0267720407004622025010100564+39933-074300FM-15+002599999V0201001N003110149419N016093199+01001+00891100261ADDAA101000231AW1611GD13991+0149419GD23991+0228619GD33991+0365819GE19AGL   +99999+99999GF199999999999014941999999MA1100241999999REMMET130METAR KMJX 010056Z AUTO 10006KT 10SM -RA BKN049 BKN075 BKN120 10/09 A2960 RMK AO2 LTG DSNT S AND NW PRESFR SLP026 P0001 T01000089=
0266720407004622025010101244+39933-074300FM-16+002599999V0201101N004110146319N012875199+01101+00901999999ADDAA101000231AW1121AW2621GD11991+0079219GD23991+0146319GD34991+0274319GE19AGL   +99999+99999GF199999999999007921999999MA1100141999999OC100721REMMET115SPECI KMJX 010124Z AUTO 11008G14KT 8SM VCTS RA FEW026 BKN048 OVC090 11/09 A2957 RMK AO2 LTG DSNT ALQDS TSB18 P0001=
0274720407004622025010101414+39933-074300FM-16+002599999V0209999V001510070119N004023199+01001+00901999999ADDAA101004531AW1101AW2951GD11991+0033519GD23991+0070119GD34991+0167619GE19AGL   +99999+99999GF199999999999003351999999MA1100141999999REMMET131SPECI KMJX 010141Z AUTO VRB03KT 2 1/2SM +TSRA BR FEW011 BKN023 OVC055 10/09 A2957 RMK AO2 VIS 1 3/4V5 LTG DSNT ALQDS TSB18 P0018 $=
0268720407004622025010101434+39933-074300FM-16+002599999V0209999V003110042719N004828199+01001+00901999999ADDAA101004831AW1101AW2951GD11991+0024411GD23991+0061019GD34991+0146319GE19AGL   +99999+99999GF199999999999002441999999MA1100141999999REMMET125SPECI KMJX 010143Z AUTO VRB06KT 3SM +TSRA BR FEW008 BKN020 OVC048 10/09 A2957 RMK AO2 LTG DSNT ALQDS TSB18 CIG 014V024 P0019=
0274720407004622025010101564+39933-074300FM-15+002599999V0201501N004610039619N016093199+01061+00941100171ADDAA101004831AW1121AW2611GD13991+0039619GD23991+0067119GD34991+0289619GE19AGL   +99999+99999GF199999999999003961999999MA1100141999999REMMET131METAR KMJX 010156Z AUTO 15009KT 10SM VCTS -RA BKN013 BKN022 OVC095 11/09 A2957 RMK AO2 LTG DSNT ALQDS TSB18 SLP017 P0019 T01060094=
0271720407004622025010102234+39933-074300FM-16+002599999V0202001V004110018319N016093199+01101+01001999999ADDAA101000531AW1121AW2611GD13991+0024411GD23991+0036619GD34991+0152419GE19AGL   +99999+99999GF199999999999002441999999MA1100141999999REMMET128SPECI KMJX 010223Z AUTO 20008KT 120V240 10SM VCTS -RA BKN008 BKN012 OVC050 11/10 A2957 RMK AO2 LTG DSNT ALQDS CIG 006V010 P0002=
0271720407004622025010102344+39933-074300FM-16+002599999V0201601N003610048819N011265199+01101+01001999999ADDAA101001231AW1121AW2621GD12991+0030511GD23991+0076219GD34991+0198119GE19AGL   +99999+99999GF199999999999003051999999MA1100141999999OC100881REMMET120SPECI KMJX 010234Z AUTO 16007G17KT 7SM VCTS RA SCT010 BKN025 OVC065 11/10 A2957 RMK AO2 LTG DSNT N-SE CIG 016V039 P0005=
0244720407004622025010102364+39933-074300FM-16+002599999V0201701N005110152419N014484199+01101+01001999999ADDAA101001231AW1611GD12991+0027419GD23991+0152419GD34991+0198119GE19AGL   +99999+99999GF199999999999002741999999MA1100141999999REMMET107SPECI KMJX 010236Z AUTO 17010KT 9SM -RA SCT009 BKN050 OVC065 11/10 A2957 RMK AO2 LTG DSNT N-SE TSE36 P0005=
0334720407004622025010102564+39933-074300FM-15+002599999V0201401N003112200059N016093199+01001+00941100071ADDAA101001531AA203006691AW1611GD11991+0167619GD22991+0213419GD32991+0243819GE19AGL   +99999+99999GF104995999999016761999999MA1100031999999MD1610421+9999REMMET137METAR KMJX 010256Z AUTO 14006KT 10SM -RA FEW055 SCT070 SCT080 10/09 A2954 RMK AO2 LTG DSNT N-SE TSE36 SLP007 P0006 60026 T01000094 56042=EQDQ01  00668PRCP03D01      0ADE726
0238720407004622025010103564+39933-074300FM-15+002599999V0201601N002610304819N016093199+00891+00831099971ADDAA101000021GD12991+0243819GD23991+0304819GD33991+0365819GE19AGL   +99999+99999GF199999999999024381999999MA1099931999999REMMET107METAR KMJX 010356Z AUTO 16005KT 10SM SCT080 BKN100 BKN120 09/08 A2951 RMK AO2 RAE00 SLP997 P0000 T00890083=
0167720407004622025010104564+39933-074300FM-15+002599999V0202501N003112200019N016093199+00891+00781099881ADDGF100991999999999999999999KA1240M+01221KA2240N-00391MA1099861999999REMMET088METAR KMJX 010456Z AUTO 25006KT 10SM CLR 09/08 A2949 RMK AO2 SLP988 T00890078 401221039=
0944720407004622025010104596+39928-074292SOD  +0025KMJX V020999999999999999999999999999+99999+99999999999ADDAA124006696AT1AW03TS  1AT2AW16RA  1AT3AW13BR  1AX1016246AX2036246KA1240M+01225KA2240N-00385MG1999999099904OE11240093915013525OE22240076015013525OE33240025099999995REMSOD71824 HR PRECIPITATION (IN): 0.26 WEATHER(CODE):3,1  24 HR MAX TEMP (F):54 24 HR MAX TEMP TIME (LST):1349 24 HR MIN TEMP (F):25 24 HR MIN TEMP TIME (LST):0745 MINIMUM SEA LEVEL PRESSURE:29.50 TIME OF OCCURRENCE:2359 PEAK WIND SPEED (MPH):21  PEAK WIND DIR (DEG):150 PEAK WIND TIME (LST):1352  FASTEST 2MIN SPEED (MPH):17 FASTEST 2MIN DIR (DEG):150 FASTEST 2MIN TIME (LST):1352 AVERAGE WIND SPEED (MPH): 5.6 24 HR AVG TEMP (F):40 HEATING DEGREE DAYS: 25 COOLING DEGREE DAYS:  0 LATEST DAY MAX TEMP (0700-1900 LST): 54 LATEST NIGHT MIN TEMP(1900-0800 LST):25 HOURLY INCREMENTAL PRECIPITATION VALUES (IN):0.00 0.00 0.00 0.00 0.00 0.00 0.00 0.00 0.00 0.00 0.00 0.00 0.00 0.00 0.00 0.00 0.00 0.00T     0.01 0.20 0.05 0.00 0.00EQDR01  0.267AAP092R02   3,17AXW092R03   3,17AXW092
0260720407004622025010105567+39928-074292FM-15+0025KMJX V0202805N003652200059N0160935N5+00785+00725099885ADDAA101000095AA206006691GA1005+999999999GD10991+9999999GF100991999999999999999999KA1060M+01061KA2060N+00781MA1099865099575MD1690189+9999REMMET11401/01/25 00:56:02 METAR KMJX 010556Z 28007KT 10SM CLR 08/07 A2949 RMK AO2 SLP988 60026 T00780072 10106 20078 56018
0231720407004622025010106417+39928-074292FM-15+0025KMJX V0202305N00265003665MN0160935N5+00705+00705999999ADDAA101000095GA1045+002445999GA2075+003665999GD12991+0024459GD23991+0036659GE19AGL   +99999+99999GF199999999999002441999999MA1099975099675REMMET08301/01/25 01:41:02 METAR KMJX 010641Z 23005KT 10SM SCT008 BKN012 07/07 A2952 RMK AO2
0231720407004622025010106527+39928-074292FM-15+0025KMJX V0202505N00515001835MN0160935N5+00805+00705999999ADDAA101000095GA1075+001835999GA2075+003665999GD13991+0018359GD23991+0036659GE19AGL   +99999+99999GF199999999999001831999999MA1099975099675REMMET08301/01/25 01:52:02 METAR KMJX 010652Z 25010KT 10SM BKN006 BKN012 08/07 A2952 RMK AO2
0260720407004622025010106567+39928-074292FM-15+0025KMJX V0202505N00515001835MN0160935N5+00785+00785100015ADDAA101000095GA1075+001835999GA2085+003665999GD13991+0018351GD24991+0036659GE19AGL   +99999+99999GF199999999999001831999999MA1099975099675REMMET11201/01/25 01:56:02 METAR KMJX 010656Z 25010KT 10SM BKN006 OVC012 08/08 A2952 RMK AO2 CIG 005V009 SLP001 T00780078
0248720407004622025010107567+39928-074292FM-15+0025KMJX V0202605N00315001835MN0160935N5+00725+00725099985ADDAA101000095GA1075+001835999GA2085+030485999GD13991+0018359GD24991+0304859GE19AGL   +99999+99999GF199999999999001831999999MA1099975099675REMMET10001/01/25 02:56:02 METAR KMJX 010756Z 26006KT 10SM BKN006 OVC100 07/07 A2952 RMK AO2 SLP998 T00720072
0230720407004622025010108127+39928-074292FM-15+0025KMJX V0202505N00315030485MN0144845N5+00705+00705999999ADDAA101000095GA1025+001225999GA2085+030485999GD11991+0012259GD24991+0304859GE19AGL   +99999+99999GF199999999999001221999999MA1099935099645REMMET08201/01/25 03:12:02 METAR KMJX 010812Z 25006KT 9SM FEW004 OVC100 07/07 A2951 RMK AO2
0231720407004622025010108487+39928-074292FM-15+0025KMJX V0202405N00465001225MN0160935N5+00705+00705999999ADDAA101000095GA1075+001225999GA2075+030485999GD13991+0012259GD23991+0304859GE19AGL   +99999+99999GF199999999999001221999999MA1099975099675REMMET08301/01/25 03:48:02 METAR KMJX 010848Z 24009KT 10SM BKN004 BKN100 07/07 A2952 RMK AO2
0229720407004622025010108567+39928-074292FM-15+0025KMJX V0202605N00415001225MN0144845N5+00725+00675100015ADDAA101000095GA1075+001225999GD13991+0012259GE19AGL   +99999+99999GF199999999999001221999999MA1099975099675MD1390019+9999REMMET09801/01/25 03:56:02 METAR KMJX 010856Z 26008KT 9SM BKN004 07/07 A2952 RMK AO2 SLP001 T00720067 53001
0209720407004622025010109567+39928-074292FM-15+0025KMJX V0202605N00465001225MN0128755N5+00725+00725100045ADDAA101000095GA1085+001225999GD14991+0012259GE19AGL   +99999+99999GF199999999999001221999999MA1100005099705REMMET09201/01/25 04:56:02 METAR KMJX 010956Z 26009KT 8SM OVC004 07/07 A2953 RMK AO2 SLP004 T00720072
0209720407004622025010110567+39928-074292FM-15+0025KMJX V0202605N00415001225MN0144845N5+00785+00725100085ADDAA101000095GA1085+001225999GD14991+0012259GE19AGL   +99999+99999GF199999999999001221999999MA1100075099775REMMET09201/01/25 05:56:02 METAR KMJX 011056Z 26008KT 9SM OVC004 08/07 A2955 RMK AO2 SLP008 T00780072
0192720407004622025010111037+39928-074292FM-15+0025KMJX V0202605N00365001835MN0144845N5+00805+00705999999ADDAA101000095GA1085+001835999GD14991+0018359GE19AGL   +99999+99999GF199999999999001831999999MA1100075099775REMMET07501/01/25 06:03:02 METAR KMJX 011103Z 26007KT 9SM OVC006 08/07 A2955 RMK AO2
0322720407004622025010111567+39928-074292FM-15+0025KMJX V0202405N00415022865MN0128755N5+00725+00675100085ADDAA101000095AA224006691GA1045+001835999GA2085+022865999GD12991+0018359GD24991+0228659GE19AGL   +99999+99999GF199999999999001831999999KA1060M+00781KA2060N+00721MA1100075099775MD1190089+9999REMMET12301/01/25 06:56:02 METAR KMJX 011156Z 24008KT 8SM SCT006 OVC075 07/07 A2955 RMK AO2 SLP008 70026 T00720067 10078 20072 51008
0228720407004622025010112567+39928-074292FM-15+0025KMJX V0202605N003652200059N0144845N5+00725+00675100115ADDAA101000095GA1045+018295999GD12991+0182959GE19AGL   +99999+99999GF104995999999018291999999MA1100105099805REMMET09201/01/25 07:56:02 METAR KMJX 011256Z 26007KT 9SM SCT060 07/07 A2956 RMK AO2 SLP011 T00720067EQDD01      0ADE726
0221720407004622025010113567+39928-074292FM-15+0025KMJX V0202605N00625016765MN0160935N5+00895+00675100165ADDAA101000095GA1075+016765999GD13991+0167659GE19AGL   +99999+99999GF199999999999016761999999MA1100145099845OC100825REMMET09601/01/25 08:56:02 METAR KMJX 011356Z 26012G16KT 10SM BKN055 09/07 A2957 RMK AO2 SLP016 T00890067
0260720407004622025010114567+39928-074292FM-15+0025KMJX V0202605N007252200059N0160935N5+01005+00565100235ADDAA101000095GA1025+006715999GD11991+0067159GE19AGL   +99999+99999GF102995999999006711999999MA1100205099915MD1390149+9999OC100985REMMET10201/01/25 09:56:02 METAR KMJX 011456Z 26014G19KT 10SM FEW022 10/06 A2959 RMK AO2 SLP023 T01000056 53014EQDD01      0ADE726
0204720407004622025010115447+39928-074292FM-15+0025KMJX V0202705N00675007325MN0160935N5+01005+00405999999ADDAA101000095GA1075+007325999GD13991+0073259GE19AGL   +99999+99999GF199999999999007321999999MA1100205099915OC101245REMMET07901/01/25 10:44:02 METAR KMJX 011544Z 27013G24KT 10SM BKN024 10/04 A2959 RMK AO2
0221720407004622025010115567+39928-074292FM-15+0025KMJX V0202805N00885007925MN0160935N5+00945+00335100255ADDAA101000095GA1085+007925999GD14991+0079259GE19AGL   +99999+99999GF199999999999007921999999MA1100205099915OC101295REMMET09601/01/25 10:56:02 METAR KMJX 011556Z 28017G25KT 10SM OVC026 09/03 A2959 RMK AO2 SLP025 T00940033
0223720407004622025010116147+39928-074292FM-15+0025KMJX V0202705N008852200059N0160935N5+01005+00205999999ADDAA101000095GA1045+008535999GD12991+0085359GE19AGL   +99999+99999GF104995999999008531999999MA1100245099945OC101295REMMET07901/01/25 11:14:02 METAR KMJX 011614Z 27017G25KT 10SM SCT028 10/02 A2960 RMK AO2EQDD01      0ADE726
0297720407004622025010116567+39928-074292FM-15+0025KMJX V0202705N01085014635MN0160935N5+00945+00115100225ADDAA101000395GA1025+010975999GA2075+014635999GD11991+0109759GD23991+0146359GE19AGL   +99999+99999GF199999999999010971999999MA1100205099915OC101495OD149901491280REMMET12701/01/25 11:56:02 METAR KMJX 011656Z 27021G29KT 10SM FEW036 BKN048 09/01 A2959 RMK AO2 PK WND 28029/1654 SLP022 P0001 T00940011
0328720407004622025010117567+39928-074292FM-15+0025KMJX V0202805N01035010975MN0160935N5+00835+00115100255ADDAA101000095AA206000391GA1085+010975999GD14991+0109759GE19AGL   +99999+99999GF199999999999010971999999KA1060M+01061KA2060N+00671MA1100245099945MD1390029+9999OC101345OD149901441290REMMET13801/01/25 12:56:02 METAR KMJX 011756Z 28020G26KT 10SM OVC036 08/01 A2960 RMK AO2 PK WND 29028/1742 SLP025 60001 T00830011 10106 20067 53002
0253720407004622025010118567+39928-074292FM-15+0025KMJX V0202905N00775012195MN0160935N5+00835+00065100335ADDAA101000095GA1085+012195999GD14991+0121959GE19AGL   +99999+99999GF199999999999012191999999MA1100305100015OC101245OD149901541300REMMET11401/01/25 13:56:02 METAR KMJX 011856Z 29015G24KT 10SM OVC040 08/01 A2962 RMK AO2 PK WND 30030/1837 SLP033 T00830006
0254720407004622025010119567+39928-074292FM-15+0025KMJX V0202905N01035014025MN0160935N5+00895-00065100425ADDAA101000095GA1075+014025999GD13991+0140259GE19AGL   +99999+99999GF199999999999014021999999MA1100375100075OC101495OD149901851280REMMET11501/01/25 14:56:02 METAR KMJX 011956Z 29020G29KT 10SM BKN046 09/M01 A2964 RMK AO2 PK WND 28036/1937 SLP042 T00891006
0274720407004622025010120567+39928-074292FM-15+0025KMJX V0202905N00935015245MN0160935N5+00835-00115100545ADDAA101000095GA1085+015245999GD14991+0152459GE19AGL   +99999+99999GF199999999999015241999999MA1100515100215MD1390299+9999OC101805OD149901951290REMMET12101/01/25 15:56:02 METAR KMJX 012056Z 29018G35KT 10SM OVC050 08/M01 A2968 RMK AO2 PK WND 29038/2030 SLP054 T00831011 53029
0273720407004622025010121567+39928-074292FM-15+0025KMJX V0202805N010852200059N0160935N5+00725-00225100625ADDAA101000095GA1045+015245999GD12991+0152459GE19AGL   +99999+99999GF104995999999015241999999MA1100585100285OC101495OD149901801280REMMET11501/01/25 16:56:02 METAR KMJX 012156Z 28021G29KT 10SM SCT050 07/M02 A2970 RMK AO2 PK WND 28035/2101 SLP062 T00721022EQDD01      0ADE726
0215720407004622025010122567+39928-074292FM-15+0025KMJX V0202705N006252200059N0160935N5+00675-00285100715ADDAA101000095GA1005+999999999GD10991+9999999GF100991999999999999999999MA1100685100385OC101085REMMET11201/01/25 17:56:02 METAR KMJX 012256Z 27012G21KT 10SM CLR 07/M03 A2973 RMK AO2 PK WND 28028/2200 SLP071 T00671028
0273720407004622025010123567+39928-074292FM-15+0025KMJX V0202805N007752200059N0160935N5+00615-00285100815ADDAA101000095GA1005+999999999GD10991+9999999GF100991999999999999999999KA1060M+00941KA2060N+00611MA1100785100485MD1390259+9999OC101185REMMET13001/01/25 18:56:02 METAR KMJX 012356Z 28015G23KT 10SM CLR 06/M03 A2976 RMK AO2 PK WND 28028/2336 SLP081 T00611028 10094 20061 53025
0215720407004622025010200567+39928-074292FM-15+0025KMJX V0202705N008252200059N0160935N5+00565-00335100915ADDAA101000095GA1005+999999999GD10991+9999999GF100991999999999999999999MA1100885100585OC101345REMMET11201/01/25 19:56:01 METAR KMJX 020056Z 27016G26KT 10SM CLR 06/M03 A2979 RMK AO2 PK WND 28029/2358 SLP091 T00561033
0215720407004622025010201567+39928-074292FM-15+0025KMJX V0202805N007252200059N0160935N5+00505-00335100995ADDAA101000095GA1005+999999999GD10991+9999999GF100991999999999999999999MA1100955100655OC101185REMMET11201/01/25 20:56:01 METAR KMJX 020156Z 28014G23KT 10SM CLR 05/M03 A2981 RMK AO2 PK WND 26026/0136 SLP099 T00501033
0217720407004622025010202567+39928-074292FM-15+0025KMJX V0202705N007752200059N0160935N5+00445-00335101035ADDAA101000095GA1005+999999999GD10991+9999999GF100991999999999999999999MA1101025100725MD1190239+9999OC101035REMMET10001/01/25 21:56:01 METAR KMJX 020256Z 27015G20KT 10SM CLR 04/M03 A2983 RMK AO2 SLP103 T00441033 51023
0197720407004622025010203567+39928-074292FM-15+0025KMJX V0202705N006752200059N0160935N5+00395-00335101095ADDAA101000095GA1005+999999999GD10991+9999999GF100991999999999999999999MA1101055100755OC101035REMMET09401/01/25 22:56:02 METAR KMJX 020356Z 27013G20KT 10SM CLR 04/M03 A2984 RMK AO2 SLP109 T00391033
0233720407004622025010204567+39928-074292FM-15+0025KMJX V0202705N005752200059N0160935N5+00335-00335101125ADDAA101000095GA1005+999999999GD10991+9999999GF100991999999999999999999KA1240M+01061KA2240N+00331MA1101085100785OC100935REMMET10401/01/25 23:56:02 METAR KMJX 020456Z 27011G18KT 10SM CLR 03/M03 A2985 RMK AO2 SLP112 T00331033 401060033
0916720407004622025010204596+39928-074292SOD  +0025KMJX V020999999999999999999999999999+99999+99999999999ADDAA124000396AX1016246KA1240M+01065KA2240N+00335MG1100014099864OE11240196729015305OE22240143129015305OE33240068099999995REMSOD75124 HR PRECIPITATION (IN): 0.01 WEATHER(CODE):1  24 HR MAX TEMP (F):51 24 HR MAX TEMP TIME (LST):1033 24 HR MIN TEMP (F):38 24 HR MIN TEMP TIME (LST):2359 AVERAGE STATION PRESSURE(D):29.533 MINIMUM SEA LEVEL PRESSURE:29.49 TIME OF OCCURRENCE:0055 PEAK WIND SPEED (MPH):44  PEAK WIND DIR (DEG):290 PEAK WIND TIME (LST):1530  FASTEST 2MIN SPEED (MPH):32 FASTEST 2MIN DIR (DEG):290 FASTEST 2MIN TIME (LST):1530 AVERAGE WIND SPEED (MPH):15.2 24 HR AVG TEMP (F):45 HEATING DEGREE DAYS: 20 COOLING DEGREE DAYS:  0 LATEST DAY MAX TEMP (0700-1900 LST): 51 LATEST NIGHT MIN TEMP(1900-0800 LST):44 HOURLY INCREMENTAL PRECIPITATION VALUES (IN):0.00 0.00 0.00 0.00 0.00 0.00 0.00 0.00 0.00 0.00 0.00 0.01 0.00 0.00 0.00 0.00 0.00 0.00 0.00 0.00 0.00 0.00 0.00 0.00EQDR01  0.017AAP092R02     17AXW092
0255720407004622025010205567+39928-074292FM-15+0025KMJX V0202705N006252200059N0160935N5+00335-00335101135ADDAA101000095GA1005+999999999GD10991+9999999GF100991999999999999999999KA1060M+00611KA2060N+00331MA1101085100785MD1190099+9999OC100935REMMET11201/02/25 00:56:02 METAR KMJX 020556Z 27012G18KT 10SM CLR 03/M03 A2985 RMK AO2 SLP113 T00331033 10061 20033 51009
0197720407004622025010206567+39928-074292FM-15+0025KMJX V0202705N005152200059N0160935N5+00335-00335101235ADDAA101000095GA1005+999999999GD10991+9999999GF100991999999999999999999MA1101195100895OC101135REMMET09401/02/25 01:56:02 METAR KMJX 020656Z 27010G22KT 10SM CLR 03/M03 A2988 RMK AO2 SLP123 T00331033
0197720407004622025010207567+39928-074292FM-15+0025KMJX V0202705N005752200059N0160935N5+00285-00335101315ADDAA101000095GA1005+999999999GD10991+9999999GF100991999999999999999999MA1101255100955OC100885REMMET09401/02/25 02:56:02 METAR KMJX 020756Z 27011G17KT 10SM CLR 03/M03 A2990 RMK AO2 SLP131 T00281033
0224720407004622025010208567+39928-074292FM-15+0025KMJX V0202805N008852200059N0160935N5+00225-00615101365ADDAA101000095GA1005+999999999GD10991+9999999GF100991999999999999999999MA1101325101025MD1190239+9999OC101135REMMET10701/02/25 03:56:02 METAR KMJX 020856Z 28017G22KT 10SM CLR 02/M06 A2992 RMK AO2 SLP136 T00221061 51023 FZRANO
0204720407004622025010209567+39928-074292FM-15+0025KMJX V0202705N008252200059N0160935N5+00175-00675101415ADDAA101000095GA1005+999999999GD10991+9999999GF100991999999999999999999MA1101355101055OC101035REMMET10101/02/25 04:56:02 METAR KMJX 020956Z 27016G20KT 10SM CLR 02/M07 A2993 RMK AO2 SLP141 T00171067 FZRANO
0193720407004622025010210567+39928-074292FM-15+0025KMJX V0202705N004652200059N0160935N5+00175-00675101505ADDAA101000095GA1005+999999999GD10991+9999999GF100991999999999999999999MA1101465101165REMMET09801/02/25 05:56:02 METAR KMJX 021056Z 27009KT 10SM CLR 02/M07 A2996 RMK AO2 SLP150 T00171067 FZRANO
0293720407004622025010211567+39928-074292FM-15+0025KMJX V0202505N00415013725MN0160935N5+00065-00615101545ADDAA101000095AA224000391GA1075+013725999GD13991+0137259GE19AGL   +99999+99999GF199999999999013721999999KA1060M+00331KA2060N+00061MA1101495101195MD1190189+9999REMMET12501/02/25 06:56:02 METAR KMJX 021156Z 25008KT 10SM BKN045 01/M06 A2997 RMK AO2 SLP154 70001 T00061061 10033 20006 51018 FZRANO
0193720407004622025010212567+39928-074292FM-15+0025KMJX V0202505N004152200059N0160935N5+00115-00615101625ADDAA101000095GA1005+999999999GD10991+9999999GF100991999999999999999999MA1101595101295REMMET09801/02/25 07:56:02 METAR KMJX 021256Z 25008KT 10SM CLR 01/M06 A3000 RMK AO2 SLP162 T00111061 FZRANO
0197720407004622025010213567+39928-074292FM-15+0025KMJX V0202705N007252200059N0160935N5+00285-00615101675ADDAA101000095GA1005+999999999GD10991+9999999GF100991999999999999999999MA1101635101325OC100935REMMET09401/02/25 08:56:02 METAR KMJX 021356Z 27014G18KT 10SM CLR 03/M06 A3001 RMK AO2 SLP167 T00281061
0235720407004622025010214567+39928-074292FM-15+0025KMJX V0202805N009352200059N0160935N5+00395-00615101735ADDAA101000095GA1005+999999999GD10991+9999999GF100991999999999999999999MA1101695101395MD1190199+9999OC101345REMMET11801/02/25 09:56:02 METAR KMJX 021456Z 28018G26KT 10SM CLR 04/M06 A3003 RMK AO2 PK WND 29026/1454 SLP173 T00391061 51019
0215720407004622025010215567+39928-074292FM-15+0025KMJX V0202805N008852200059N0160935N5+00505-00615101695ADDAA101000095GA1005+999999999GD10991+9999999GF100991999999999999999999MA1101665101365OC101605REMMET11201/02/25 10:56:02 METAR KMJX 021556Z 28017G31KT 10SM CLR 05/M06 A3002 RMK AO2 PK WND 30031/1553 SLP169 T00501061
0273720407004622025010216567+39928-074292FM-15+0025KMJX V0202805N009352200059N0160935N5+00565-00675101605ADDAA101000095GA1025+014945999GD11991+0149459GE19AGL   +99999+99999GF102995999999014941999999MA1101565101265OC101345OD149901491290REMMET11501/02/25 11:56:02 METAR KMJX 021656Z 28018G26KT 10SM FEW049 06/M07 A2999 RMK AO2 PK WND 29029/1619 SLP160 T00561067EQDD01      0ADE726
0312720407004622025010217567+39928-074292FM-15+0025KMJX V0202605N00885015245MN0160935N5+00615-00725101585ADDAA101000095GA1075+015245999GD13991+0152459GE19AGL   +99999+99999GF199999999999015241999999KA1060M+00611KA2060N+00001MA1101525101225MD1690169+9999OC101345OD149901391290REMMET13301/02/25 12:56:02 METAR KMJX 021756Z 26017G26KT 10SM BKN050 06/M07 A2998 RMK AO2 PK WND 29027/1713 SLP158 T00611072 10061 20000 56016
0254720407004622025010218567+39928-074292FM-15+0025KMJX V0202705N00725016765MN0160935N5+00565-00785101575ADDAA101000095GA1075+016765999GD13991+0167659GE19AGL   +99999+99999GF199999999999016761999999MA1101525101225OC101295OD149901391290REMMET11501/02/25 13:56:02 METAR KMJX 021856Z 27014G25KT 10SM BKN055 06/M08 A2998 RMK AO2 PK WND 29027/1820 SLP157 T00561078
0215720407004622025010219567+39928-074292FM-15+0025KMJX V0202905N008252200059N0160935N5+00395-00835101605ADDAA101000095GA1005+999999999GD10991+9999999GF100991999999999999999999MA1101565101265OC101445REMMET11201/02/25 14:56:02 METAR KMJX 021956Z 29016G28KT 10SM CLR 04/M08 A2999 RMK AO2 PK WND 30030/1927 SLP160 T00391083
0235720407004622025010220567+39928-074292FM-15+0025KMJX V0202905N009352200059N0160935N5+00335-00895101635ADDAA101000095GA1005+999999999GD10991+9999999GF100991999999999999999999MA1101595101295MD1390069+9999OC101395REMMET11801/02/25 15:56:02 METAR KMJX 022056Z 29018G27KT 10SM CLR 03/M09 A3000 RMK AO2 PK WND 30029/2024 SLP163 T00331089 53006
0197720407004622025010221567+39928-074292FM-15+0025KMJX V0202805N005752200059N0160935N5+00285-00945101685ADDAA101000095GA1005+999999999GD10991+9999999GF100991999999999999999999MA1101635101325OC101135REMMET09401/02/25 16:56:02 METAR KMJX 022156Z 28011G22KT 10SM CLR 03/M09 A3001 RMK AO2 SLP168 T00281094
0204720407004622025010222567+39928-074292FM-15+0025KMJX V0202705N006752200059N0160935N5+00175-00835101725ADDAA101000095GA1005+999999999GD10991+9999999GF100991999999999999999999MA1101695101395OC100885REMMET10101/02/25 17:56:02 METAR KMJX 022256Z 27013G17KT 10SM CLR 02/M08 A3003 RMK AO2 SLP172 T00171083 FZRANO
0262720407004622025010223567+39928-074292FM-15+0025KMJX V0202805N006252200059N0160935N5+00115-00895101785ADDAA101000095GA1005+999999999GD10991+9999999GF100991999999999999999999KA1060M+00671KA2060N+00111MA1101735101435MD1390149+9999OC100985REMMET11901/02/25 18:56:02 METAR KMJX 022356Z 28012G19KT 10SM CLR 01/M09 A3004 RMK AO2 SLP178 T00111089 10067 20011 53014 FZRANO
0204720407004622025010300567+39928-074292FM-15+0025KMJX V0202705N006252200059N0160935N5+00065-00895101825ADDAA101000095GA1005+999999999GD10991+9999999GF100991999999999999999999MA1101765101465OC100935REMMET10101/02/25 19:56:01 METAR KMJX 030056Z 27012G18KT 10SM CLR 01/M09 A3005 RMK AO2 SLP182 T00061089 FZRANO
0204720407004622025010301567+39928-074292FM-15+0025KMJX V0202705N006252200059N0160935N5+00065-00895101805ADDAA101000095GA1005+999999999GD10991+9999999GF100991999999999999999999MA1101765101465OC100935REMMET10101/02/25 20:56:01 METAR KMJX 030156Z 27012G18KT 10SM CLR 01/M09 A3005 RMK AO2 SLP180 T00061089 FZRANO
0224720407004622025010302567+39928-074292FM-15+0025KMJX V0202705N005752200059N0160935N5+00005-00945101805ADDAA101000095GA1005+999999999GD10991+9999999GF100991999999999999999999MA1101765101465MD1090029+9999OC100775REMMET10701/02/25 21:56:01 METAR KMJX 030256Z 27011G15KT 10SM CLR 00/M09 A3005 RMK AO2 SLP180 T00001094 50002 FZRANO
0255720407004622025010303567+39928-074292FM-15+0025KMJX V0202905N007252200059N0160935N5+00065-01065101805ADDAA101000095GA1045+016765999GD12991+0167659GE19AGL   +99999+99999GF104995999999016761999999MA1101765101465REMMET11901/02/25 22:56:02 METAR KMJX 030356Z 29014KT 10SM SCT055 01/M11 A3005 RMK AO2 PK WND 28026/0340 SLP180 T00061106 FZRANOEQDD01      0ADE726
0258720407004622025010304567+39928-074292FM-15+0025KMJX V0202605N006252200059N0160935N5+00065-01115101805ADDAA101000095GA1005+999999999GD10991+9999999GF100991999999999999999999KA1240M+00671KA2240N+00001MA1101765101465OC101085REMMET12901/02/25 23:56:02 METAR KMJX 030456Z 26012G21KT 10SM CLR 01/M11 A3005 RMK AO2 PK WND 28026/0440 SLP180 T00061111 400670000 FZRANO
0855720407004622025010304596+39928-074292SOD  +0025KMJX V020999999999999999999999999999+99999+99999999999ADDAA124000095KA1240M+00675KA2240N+00005MG1101254101124OE11240160930010535OE22240116229015255OE33240068499999995REMSOD73424 HR PRECIPITATION (IN): 0.00 24 HR MAX TEMP (F):44 24 HR MAX TEMP TIME (LST):1352 24 HR MIN TEMP (F):32 24 HR MIN TEMP TIME (LST):2241 AVERAGE STATION PRESSURE(D):29.901 MINIMUM SEA LEVEL PRESSURE:29.86 TIME OF OCCURRENCE:0104 PEAK WIND SPEED (MPH):36  PEAK WIND DIR (DEG):300 PEAK WIND TIME (LST):1053  FASTEST 2MIN SPEED (MPH):26 FASTEST 2MIN DIR (DEG):290 FASTEST 2MIN TIME (LST):1525 AVERAGE WIND SPEED (MPH):15.3 24 HR AVG TEMP (F):38 HEATING DEGREE DAYS: 27 COOLING DEGREE DAYS:  0 LATEST DAY MAX TEMP (0700-1900 LST): 44 LATEST NIGHT MIN TEMP(1900-0800 LST):32 HOURLY INCREMENTAL PRECIPITATION VALUES (IN):0.00 0.00 0.00 0.00 0.00 0.00 0.00 0.00 0.00 0.00 0.00 0.00 0.00 0.00 0.00 0.00 0.00 0.00 0.00 0.00 0.00 0.00 0.00 0.00
0295720407004622025010305567+39928-074292FM-15+0025KMJX V0202705N006252200059N0160935N5+00005-01005101785ADDAA101000095GA1025+018295999GD11991+0182959GE19AGL   +99999+99999GF102995999999018291999999KA1060M+00111KA2060N+00001MA1101735101435MD1890029+9999REMMET11901/03/25 00:56:02 METAR KMJX 030556Z 27012KT 10SM FEW060 00/M10 A3004 RMK AO2 SLP178 T00001100 10011 20000 58002 FZRANOEQDD01      0ADE726
0229720407004622025010306567+39928-074292FM-15+0025KMJX V0202705N00675015245MN0160935N5+00005-01005101785ADDAA101000095GA1075+015245999GD13991+0152459GE19AGL   +99999+99999GF199999999999015241999999MA1101735101435OC100885REMMET10401/03/25 01:56:02 METAR KMJX 030656Z 27013G17KT 10SM BKN050 00/M10 A3004 RMK AO2 SLP178 T00001100 FZRANO
0205720407004622025010307567+39928-074292FM-15+0025KMJX V0202705N004652200059N0160935N5-00065-00895101795ADDAA101000095GA1005+999999999GD10991+9999999GF100991999999999999999999MA1101765101465OC100825REMMET10201/03/25 02:56:02 METAR KMJX 030756Z 27009G16KT 10SM CLR M01/M09 A3005 RMK AO2 SLP179 T10061089 FZRANO
0258720407004622025010308567+39928-074292FM-15+0025KMJX V0202605N005752200059N0160935N5-00065-00835101795ADDAA101000095GA1045+015245999GD12991+0152459GE19AGL   +99999+99999GF104995999999015241999999MA1101765101465MD1190019+9999REMMET10801/03/25 03:56:02 METAR KMJX 030856Z 26011KT 10SM SCT050 M01/M08 A3005 RMK AO2 SLP179 T10061083 51001 FZRANOEQDD01      0ADE726
0194720407004622025010309567+39928-074292FM-15+0025KMJX V0202705N004652200059N0160935N5-00065-00835101755ADDAA101000095GA1005+999999999GD10991+9999999GF100991999999999999999999MA1101735101435REMMET09901/03/25 04:56:02 METAR KMJX 030956Z 27009KT 10SM CLR M01/M08 A3004 RMK AO2 SLP175 T10061083 FZRANO
0194720407004622025010310567+39928-074292FM-15+0025KMJX V0202505N003652200059N0160935N5-00115-00835101765ADDAA101000095GA1005+999999999GD10991+9999999GF100991999999999999999999MA1101735101435REMMET09901/03/25 05:56:02 METAR KMJX 031056Z 25007KT 10SM CLR M01/M08 A3004 RMK AO2 SLP176 T10111083 FZRANO
0252720407004622025010311567+39928-074292FM-15+0025KMJX V0202505N003652200059N0160935N5-00225-00835101735ADDAA101000095GA1005+999999999GD10991+9999999GF100991999999999999999999KA1060M+00001KA2060N-00221MA1101695101395MD1690069+9999REMMET11701/03/25 06:56:02 METAR KMJX 031156Z 25007KT 10SM CLR M02/M08 A3003 RMK AO2 SLP173 T10221083 10000 21022 56006 FZRANO
0194720407004622025010312567+39928-074292FM-15+0025KMJX V0202405N004152200059N0160935N5-00175-00785101705ADDAA101000095GA1005+999999999GD10991+9999999GF100991999999999999999999MA1101665101365REMMET09901/03/25 07:56:02 METAR KMJX 031256Z 24008KT 10SM CLR M02/M08 A3002 RMK AO2 SLP170 T10171078 FZRANO
0194720407004622025010313567+39928-074292FM-15+0025KMJX V0202505N004652200059N0160935N5-00065-00785101685ADDAA101000095GA1005+999999999GD10991+9999999GF100991999999999999999999MA1101635101325REMMET09901/03/25 08:56:02 METAR KMJX 031356Z 25009KT 10SM CLR M01/M08 A3001 RMK AO2 SLP168 T10061078 FZRANO
0213720407004622025010314567+39928-074292FM-15+0025KMJX V0202405N004652200059N0160935N5+00005-00785101665ADDAA101000095GA1005+999999999GD10991+9999999GF100991999999999999999999MA1101635101325MD1690079+9999REMMET10401/03/25 09:56:02 METAR KMJX 031456Z 24009KT 10SM CLR 00/M08 A3001 RMK AO2 SLP166 T00001078 56007 FZRANO
0193720407004622025010315567+39928-074292FM-15+0025KMJX V0202505N005752200059N0160935N5+00115-00835101535ADDAA101000095GA1005+999999999GD10991+9999999GF100991999999999999999999MA1101495101195REMMET09801/03/25 10:56:02 METAR KMJX 031556Z 25011KT 10SM CLR 01/M08 A2997 RMK AO2 SLP153 T00111083 FZRANO
0193720407004622025010316567+39928-074292FM-15+0025KMJX V0202505N006252200059N0160935N5+00175-00895101355ADDAA101000095GA1005+999999999GD10991+9999999GF100991999999999999999999MA1101325101025REMMET09801/03/25 11:56:02 METAR KMJX 031656Z 25012KT 10SM CLR 02/M09 A2992 RMK AO2 SLP135 T00171089 FZRANO
0251720407004622025010317567+39928-074292FM-15+0025KMJX V0202705N004652200059N0160935N5+00225-00895101235ADDAA101000095GA1005+999999999GD10991+9999999GF100991999999999999999999KA1060M+00221KA2060N-00281MA1101195100895MD1690439+9999REMMET11601/03/25 12:56:02 METAR KMJX 031756Z 27009KT 10SM CLR 02/M09 A2988 RMK AO2 SLP123 T00221089 10022 21028 56043 FZRANO
0204720407004622025010318567+39928-074292FM-15+0025KMJX V0202705N005752200059N0160935N5+00225-00785101135ADDAA101000095GA1005+999999999GD10991+9999999GF100991999999999999999999MA1101085100785OC100985REMMET10101/03/25 13:56:02 METAR KMJX 031856Z 27011G19KT 10SM CLR 02/M08 A2985 RMK AO2 SLP113 T00221078 FZRANO
0211720407004622025010319567+39928-074292FM-15+0025KMJX V0202705N00465014335MN0160935N5+00285-00675101075ADDAA101000095GA1075+014335999GD13991+0143359GE19AGL   +99999+99999GF199999999999014331999999MA1101025100725REMMET09401/03/25 14:56:02 METAR KMJX 031956Z 27009KT 10SM BKN047 03/M07 A2983 RMK AO2 SLP107 T00281067
0351720407004622025010320567+39928-074292FM-15+0025KMJX V0202705N00365013725MN0160935N5+00225-00565101075ADDAA101000025AA203000021AU110020015AW1615GA1045+011285999GA2085+013725999GD12991+0112859GD24991+0137259GE19AGL   +99999+99999GF199999999999011281999999MA1101025100725MD1690179+9999MW1615REMMET13601/03/25 15:56:02 METAR KMJX 032056Z 27007KT 10SM -RA SCT037 OVC045 02/M06 A2983 RMK AO2 RAB51 SLP107 P0000 60000 T00221056 56017 FZRANOEQDQ01  00008PRCP03
0306720407004622025010321567+39928-074292FM-15+0025KMJX V0202705N00365014635MN0160935N5+00115-00505101065ADDAA101000025GA1025+010675999GA2075+014635999GA3075+018295999GD11991+0106759GD23991+0146359GD33991+0182959GE19AGL   +99999+99999GF199999999999010671999999MA1101025100725REMMET12701/03/25 16:56:02 METAR KMJX 032156Z 27007KT 10SM FEW035 BKN048 BKN060 01/M05 A2983 RMK AO2 RAE35 SLP106 P0000 T00111050 FZRANO
0322720407004622025010322567+39928-074292FM-15+0025KMJX V0202905N00515005185MN0080475N5+00005-00225101115ADDAA101000025AU110030015AU200001015AW1105AW2715GA1075+005185999GA2085+011585999GD13991+0051859GD24991+0115859GE19AGL   +99999+99999GF199999999999005181999999MA1101085100785MW1715REMMET13401/03/25 17:56:02 METAR KMJX 032256Z 29010KT 5SM -SN BR BKN017 OVC038 00/M02 A2985 RMK AO2 RAB25E29SNB29 SLP111 P0000 T00001022 FZRANO
0330720407004622025010323457+39928-074292FM-15+0025KMJX V0202805N00265009145MN0080475N5-00105-00205999999ADDAA101000025AU110030015AU200001015AW1105AW2715GA1025+005185999GA2075+009145999GA3085+014335999GD11991+0051859GD23991+0091459GD34991+0143359GE19AGL   +99999+99999GF199999999999005181999999MA1101055100755MW1715REMMET11101/03/25 18:45:02 METAR KMJX 032345Z 28005KT 5SM -SN BR FEW017 BKN030 OVC047 M01/M02 A2984 RMK AO2 P0000 FZRANO
0441720407004622025010323567+39928-074292FM-15+0025KMJX V0202705N00215006715MN0080475N5-00115-00225101075ADDAA101000025AA206000021AU110030015AU200001015AW1105AW2715GA1025+004885999GA2075+006715999GA3085+011585999GD11991+0048859GD23991+0067159GD34991+0115859GE19AGL   +99999+99999GF199999999999004881999999KA1060M+00331KA2060N-00111MA1101025100725MD1090009+9999MW1715REMMET15201/03/25 18:56:02 METAR KMJX 032356Z 27004KT 5SM -SN BR FEW016 BKN022 OVC038 M01/M02 A2983 RMK AO2 SLP107 P0000 60000 T10111022 10033 21011 50000 FZRANOEQDQ01  00008PRCP06
0320720407004622025010400107+39928-074292FM-15+0025KMJX V0202905N00215007925MN0112655N5-00105-00305999999ADDAA101000025AU120090015AW1401AW2415GA1025+002445999GA2045+006105999GA3075+007925999GD11991+0024459GD22991+0061059GD33991+0079259GE19AGL   +99999+99999GF199999999999002441999999MA1101025100725REMMET11801/03/25 19:10:01 METAR KMJX 040010Z 29004KT 7SM UP FEW008 SCT020 BKN026 M01/M03 A2983 RMK AO2 UPB08SNE08 P0000 FZRANO
0301720407004622025010400217+39928-074292FM-15+0025KMJX V0202905N002652200059N0112655N5-00205-00305999999ADDAA101000025AU120090015AW1401AW2415GA1025+006405999GA2045+010365999GD11991+0064059GD22991+0103659GE19AGL   +99999+99999GF104995999999006401999999MA1101025100725REMMET11101/03/25 19:21:01 METAR KMJX 040021Z 29005KT 7SM UP FEW021 SCT034 M02/M03 A2983 RMK AO2 UPB08SNE08 P0000 FZRANOEQDD01      0ADE726
0233720407004622025010400567+39928-074292FM-15+0025KMJX V0202905N002152200059N0080475N5-00225-00395101045ADDAA101000025AU100001015AW1105GA1005+999999999GD10991+9999999GF100991999999999999999999MA1100985100685REMMET12101/03/25 19:56:01 METAR KMJX 040056Z 29004KT 5SM BR CLR M02/M04 A2982 RMK AO2 UPB08E25SNE08 SLP104 P0000 T10221039 FZRANO
0218720407004622025010401567+39928-074292FM-15+0025KMJX V0202905N00315033535MN0128755N5-00225-00285101025ADDAA101000095GA1075+033535999GD13991+0335359GE19AGL   +99999+99999GF199999999999033531999999MA1100985100685REMMET10101/03/25 20:56:01 METAR KMJX 040156Z 29006KT 8SM BKN110 M02/M03 A2982 RMK AO2 SLP102 T10221028 FZRANO
0230720407004622025010402567+39928-074292FM-15+0025KMJX V0202805N004152200059N0112655N5-00285-00395101025ADDAA101000095AA203000021GA1005+999999999GD10991+9999999GF100991999999999999999999MA1100985100685MD1690059+9999REMMET11001/03/25 21:56:01 METAR KMJX 040256Z 28008KT 7SM CLR M03/M04 A2982 RMK AO2 SLP102 60000 T10281039 56005 FZRANO
0193720407004622025010403567+39928-074292FM-15+0025KMJX V0202805N003652200059N0112655N5-00285-00395101015ADDAA101000095GA1005+999999999GD10991+9999999GF100991999999999999999999MA1100985100685REMMET09801/03/25 22:56:02 METAR KMJX 040356Z 28007KT 7SM CLR M03/M04 A2982 RMK AO2 SLP101 T10281039 FZRANO
0241720407004622025010404567+39928-074292FM-15+0025KMJX V0202905N005152200059N0160935N5-00285-00395101005ADDAA101000095GA1005+999999999GD10991+9999999GF100991999999999999999999KA1240M+00331KA2240N-00281MA1100955100655OC100885REMMET11201/03/25 23:56:02 METAR KMJX 040456Z 29010G17KT 10SM CLR M03/M04 A2981 RMK AO2 SLP100 T10281039 400331028 FZRANO
0929720407004622025010404596+39928-074292SOD  +0025KMJX V020999999999999999999999999999+99999+99999999999ADDAA124000025AT1AU16RA  5AT2AU18SN  5AT3AU13BR  5AT4AU19UP  5AX1015245KA1240M+00335KA2240N-00275MG1101004100984OE11240111828000275OE22240089428000215OE33240044799999995REMSOD75124 HR PRECIPITATION (IN):T     WEATHER(CODE):1  24 HR MAX TEMP (F):38 24 HR MAX TEMP TIME (LST):1447 24 HR MIN TEMP (F):27 24 HR MIN TEMP TIME (LST):2359 AVERAGE STATION PRESSURE(D):29.827 MINIMUM SEA LEVEL PRESSURE:29.82 TIME OF OCCURRENCE:2356 PEAK WIND SPEED (MPH):25  PEAK WIND DIR (DEG):280 PEAK WIND TIME (LST):0027  FASTEST 2MIN SPEED (MPH):20 FASTEST 2MIN DIR (DEG):280 FASTEST 2MIN TIME (LST):0021 AVERAGE WIND SPEED (MPH):10.0 24 HR AVG TEMP (F):33 HEATING DEGREE DAYS: 32 COOLING DEGREE DAYS:  0 LATEST DAY MAX TEMP (0700-1900 LST): 38 LATEST NIGHT MIN TEMP(1900-0800 LST):27 HOURLY INCREMENTAL PRECIPITATION VALUES (IN):0.00 0.00 0.00 0.00 0.00 0.00 0.00 0.00 0.00 0.00 0.00 0.00 0.00 0.00 0.00T    T    T    T    T     0.00 0.00 0.00 0.00
0269720407004622025010405567+39928-074292FM-15+0025KMJX V0202905N005752200059N0160935N5-00335-00445101005ADDAA101000095AA206000021GA1005+999999999GD10991+9999999GF100991999999999999999999KA1060M-00111KA2060N-00331MA1100955100655MD1690029+9999REMMET12301/04/25 00:56:02 METAR KMJX 040556Z 29011KT 10SM CLR M03/M04 A2981 RMK AO2 SLP100 60000 T10331044 11011 21033 56002 FZRANO
0238720407004622025010406567+39928-074292FM-15+0025KMJX V0202905N003652200059N0160935N5-00335-00565101055ADDAA101000095GA1025+015245999GD11991+0152459GE19AGL   +99999+99999GF102995999999015241999999MA1101025100725REMMET10201/04/25 01:56:02 METAR KMJX 040656Z 29007KT 10SM FEW050 M03/M06 A2983 RMK AO2 SLP105 T10331056 FZRANOEQDD01      0ADE726
0219720407004622025010407567+39928-074292FM-15+0025KMJX V0202805N00465018295MN0160935N5-00285-00565101095ADDAA101000095GA1075+018295999GD13991+0182959GE19AGL   +99999+99999GF199999999999018291999999MA1101055100755REMMET10201/04/25 02:56:02 METAR KMJX 040756Z 28009KT 10SM BKN060 M03/M06 A2984 RMK AO2 SLP109 T10281056 FZRANO
0269720407004622025010408567+39928-074292FM-15+0025KMJX V0202805N007252200059N0160935N5-00285-00675101115ADDAA101000095GA1045+016765999GD12991+0167659GE19AGL   +99999+99999GF104995999999016761999999MA1101055100755MD1190109+9999OC100985REMMET11101/04/25 03:56:02 METAR KMJX 040856Z 28014G19KT 10SM SCT055 M03/M07 A2984 RMK AO2 SLP111 T10281067 51010 FZRANOEQDD01      0ADE726
0268720407004622025010409567+39928-074292FM-15+0025KMJX V0202905N00675016765MN0160935N5-00225-00725101185ADDAA101000095GA1025+013115999GA2075+016765999GD11991+0131159GD23991+0167659GE19AGL   +99999+99999GF199999999999013111999999MA1101155100855OC100935REMMET11201/04/25 04:56:02 METAR KMJX 040956Z 29013G18KT 10SM FEW043 BKN055 M02/M07 A2987 RMK AO2 SLP118 T10221072 FZRANO
0194720407004622025010410567+39928-074292FM-15+0025KMJX V0202905N004652200059N0160935N5-00285-00785101245ADDAA101000095GA1005+999999999GD10991+9999999GF100991999999999999999999MA1101195100895REMMET09901/04/25 05:56:02 METAR KMJX 041056Z 29009KT 10SM CLR M03/M08 A2988 RMK AO2 SLP124 T10281078 FZRANO
0252720407004622025010411567+39928-074292FM-15+0025KMJX V0202705N005152200059N0160935N5-00335-00835101305ADDAA101000095GA1005+999999999GD10991+9999999GF100991999999999999999999KA1060M-00221KA2060N-00331MA1101255100955MD1190209+9999REMMET11701/04/25 06:56:02 METAR KMJX 041156Z 27010KT 10SM CLR M03/M08 A2990 RMK AO2 SLP130 T10331083 11022 21033 51020 FZRANO
0205720407004622025010412567+39928-074292FM-15+0025KMJX V0202805N006252200059N0160935N5-00225-00785101335ADDAA101000095GA1005+999999999GD10991+9999999GF100991999999999999999999MA1101295100995OC100935REMMET10201/04/25 07:56:02 METAR KMJX 041256Z 28012G18KT 10SM CLR M02/M08 A2991 RMK AO2 SLP133 T10221078 FZRANO
0205720407004622025010413567+39928-074292FM-15+0025KMJX V0202905N008852200059N0160935N5-00065-00785101375ADDAA101000095GA1005+999999999GD10991+9999999GF100991999999999999999999MA1101325101025OC101245REMMET10201/04/25 08:56:02 METAR KMJX 041356Z 29017G24KT 10SM CLR M01/M08 A2992 RMK AO2 SLP137 T10061078 FZRANO
0242720407004622025010414567+39928-074292FM-15+0025KMJX V0203005N009352200059N0160935N5+00005-00895101415ADDAA101000095GA1005+999999999GD10991+9999999GF100991999999999999999999MA1101355101055MD1390119+9999OC101395REMMET12501/04/25 09:56:02 METAR KMJX 041456Z 30018G27KT 10SM CLR 00/M09 A2993 RMK AO2 PK WND 28029/1442 SLP141 T00001089 53011 FZRANO
0261720407004622025010415567+39928-074292FM-15+0025KMJX V0203005N01135015245MN0160935N5+00005-01065101395ADDAA101000095GA1085+015245999GD14991+0152459GE19AGL   +99999+99999GF199999999999015241999999MA1101355101055OC101605OD149901641280REMMET12201/04/25 10:56:02 METAR KMJX 041556Z 30022G31KT 10SM OVC050 00/M11 A2993 RMK AO2 PK WND 28032/1502 SLP139 T00001106 FZRANO
0261720407004622025010416567+39928-074292FM-15+0025KMJX V0203105N01035016765MN0160935N5+00005-01225101335ADDAA101000095GA1085+016765999GD14991+0167659GE19AGL   +99999+99999GF199999999999016761999999MA1101295100995OC101445OD149901641310REMMET12201/04/25 11:56:02 METAR KMJX 041656Z 31020G28KT 10SM OVC055 00/M12 A2991 RMK AO2 PK WND 31032/1627 SLP133 T00001122 FZRANO
0319720407004622025010417567+39928-074292FM-15+0025KMJX V0202905N00885016765MN0160935N5+00005-01225101315ADDAA101000095GA1085+016765999GD14991+0167659GE19AGL   +99999+99999GF199999999999016761999999KA1060M+00111KA2060N-00331MA1101255100955MD1790109+9999OC101395OD149901851280REMMET14001/04/25 12:56:02 METAR KMJX 041756Z 29017G27KT 10SM OVC055 00/M12 A2990 RMK AO2 PK WND 28036/1743 SLP131 T00001122 10011 21033 57010 FZRANO
0280720407004622025010418567+39928-074292FM-15+0025KMJX V0202905N010852200059N0160935N5+00005-01285101305ADDAA101000095GA1045+016765999GD12991+0167659GE19AGL   +99999+99999GF104995999999016761999999MA1101255100955OC101495OD149901591280REMMET12201/04/25 13:56:02 METAR KMJX 041856Z 29021G29KT 10SM SCT055 00/M13 A2990 RMK AO2 PK WND 28031/1846 SLP130 T00001128 FZRANOEQDD01      0ADE726
0262720407004622025010419567+39928-074292FM-15+0025KMJX V0202805N00825016765MN0160935N5-00065-01175101395ADDAA101000095GA1075+016765999GD13991+0167659GE19AGL   +99999+99999GF199999999999016761999999MA1101355101055OC101135OD149901591300REMMET12301/04/25 14:56:02 METAR KMJX 041956Z 28016G22KT 10SM BKN055 M01/M12 A2993 RMK AO2 PK WND 30031/1905 SLP139 T10061117 FZRANO
0301720407004622025010420567+39928-074292FM-15+0025KMJX V0202905N005752200059N0160935N5-00115-01175101475ADDAA101000095GA1045+018295999GD12991+0182959GE19AGL   +99999+99999GF104995999999018291999999MA1101425101125MD1390169+9999OC100985OD149901541270REMMET12901/04/25 15:56:02 METAR KMJX 042056Z 29011G19KT 10SM SCT060 M01/M12 A2995 RMK AO2 PK WND 27030/1959 SLP147 T10111117 53016 FZRANOEQDD01      0ADE726
0249720407004622025010421567+39928-074292FM-15+0025KMJX V0202905N006252200059N0160935N5-00175-01115101555ADDAA101000095GA1025+018295999GD11991+0182959GE19AGL   +99999+99999GF102995999999018291999999MA1101525101225OC100985REMMET10501/04/25 16:56:02 METAR KMJX 042156Z 29012G19KT 10SM FEW060 M02/M11 A2998 RMK AO2 SLP155 T10171111 FZRANOEQDD01      0ADE726
0281720407004622025010422567+39928-074292FM-15+0025KMJX V0203005N008252200059N0160935N5-00175-01115101605ADDAA101000095GA1025+015245999GD11991+0152459GE19AGL   +99999+99999GF102995999999015241999999MA1101565101265OC101395OD149901391290REMMET12301/04/25 17:56:02 METAR KMJX 042256Z 30016G27KT 10SM FEW050 M02/M11 A2999 RMK AO2 PK WND 29027/2251 SLP160 T10171111 FZRANOEQDD01      0ADE726
0296720407004622025010423567+39928-074292FM-15+0025KMJX V0202805N003652200059N0160935N5-00285-01115101675ADDAA101000095GA1045+018295999GD12991+0182959GE19AGL   +99999+99999GF104995999999018291999999KA1060M+00171KA2060N-00281MA1101635101325MD1190209+9999REMMET12001/04/25 18:56:02 METAR KMJX 042356Z 28007KT 10SM SCT060 M03/M11 A3001 RMK AO2 SLP167 T10281111 10017 21028 51020 FZRANOEQDD01      0ADE726
0230720407004622025010500567+39928-074292FM-15+0025KMJX V0202705N00625019815MN0160935N5-00225-01175101725ADDAA101000095GA1075+019815999GD13991+0198159GE19AGL   +99999+99999GF199999999999019811999999MA1101665101365OC100885REMMET10501/04/25 19:56:01 METAR KMJX 050056Z 27012G17KT 10SM BKN065 M02/M12 A3002 RMK AO2 SLP172 T10221117 FZRANO
0230720407004622025010501567+39928-074292FM-15+0025KMJX V0202705N00625018295MN0160935N5-00225-01115101715ADDAA101000095GA1075+018295999GD13991+0182959GE19AGL   +99999+99999GF199999999999018291999999MA1101665101365OC100885REMMET10501/04/25 20:56:01 METAR KMJX 050156Z 27012G17KT 10SM BKN060 M02/M11 A3002 RMK AO2 SLP171 T10221111 FZRANO
0288720407004622025010502567+39928-074292FM-15+0025KMJX V0202805N00675015245MN0160935N5-00285-01115101805ADDAA101000095GA1075+015245999GA2085+018295999GD13991+0152459GD24991+0182959GE19AGL   +99999+99999GF199999999999015241999999MA1101765101465MD1390139+9999OC101135REMMET11801/04/25 21:56:01 METAR KMJX 050256Z 28013G22KT 10SM BKN050 OVC060 M03/M11 A3005 RMK AO2 SLP180 T10281111 53013 FZRANO
0194720407004622025010503567+39928-074292FM-15+0025KMJX V0202705N004652200059N0160935N5-00395-01175101815ADDAA101000095GA1005+999999999GD10991+9999999GF100991999999999999999999MA1101765101465REMMET09901/04/25 22:56:02 METAR KMJX 050356Z 27009KT 10SM CLR M04/M12 A3005 RMK AO2 SLP181 T10391117 FZRANO
0285720407004622025010504567+39928-074292FM-15+0025KMJX V0202705N005752200059N0160935N5-00395-01285101805ADDAA101000095GA1025+016765999GD11991+0167659GE19AGL   +99999+99999GF102995999999016761999999KA1240M+00171KA2240N-00391MA1101765101465OC100935REMMET11501/04/25 23:56:02 METAR KMJX 050456Z 27011G18KT 10SM FEW055 M04/M13 A3005 RMK AO2 SLP180 T10391128 400171039 FZRANOEQDD01      0ADE726
0855720407004622025010504596+39928-074292SOD  +0025KMJX V020999999999999999999999999999+99999+99999999999ADDAA124000095KA1240M+00175KA2240N-00385MG1101074100984OE11240183328012435OE22240129629012435OE33240068499999995REMSOD73424 HR PRECIPITATION (IN): 0.00 24 HR MAX TEMP (F):35 24 HR MAX TEMP TIME (LST):1331 24 HR MIN TEMP (F):25 24 HR MIN TEMP TIME (LST):2359 AVERAGE STATION PRESSURE(D):29.846 MINIMUM SEA LEVEL PRESSURE:29.82 TIME OF OCCURRENCE:0103 PEAK WIND SPEED (MPH):41  PEAK WIND DIR (DEG):280 PEAK WIND TIME (LST):1243  FASTEST 2MIN SPEED (MPH):29 FASTEST 2MIN DIR (DEG):290 FASTEST 2MIN TIME (LST):1243 AVERAGE WIND SPEED (MPH):15.3 24 HR AVG TEMP (F):30 HEATING DEGREE DAYS: 35 COOLING DEGREE DAYS:  0 LATEST DAY MAX TEMP (0700-1900 LST): 35 LATEST NIGHT MIN TEMP(1900-0800 LST):26 HOURLY INCREMENTAL PRECIPITATION VALUES (IN):0.00 0.00 0.00 0.00 0.00 0.00 0.00 0.00 0.00 0.00 0.00 0.00 0.00 0.00 0.00 0.00 0.00 0.00 0.00 0.00 0.00 0.00 0.00 0.00
0263720407004622025010505567+39928-074292FM-15+0025KMJX V0202805N006252200059N0160935N5-00395-01225101805ADDAA101000095GA1005+999999999GD10991+9999999GF100991999999999999999999KA1060M-00221KA2060N-00391MA1101765101465MD1090009+9999OC101085REMMET12001/05/25 00:56:02 METAR KMJX 050556Z 28012G21KT 10SM CLR M04/M12 A3005 RMK AO2 SLP180 T10391122 11022 21039 50000 FZRANO
0219720407004622025010506567+39928-074292FM-15+0025KMJX V0202805N00725015245MN0160935N5-00395-01225101815ADDAA101000095GA1085+015245999GD14991+0152459GE19AGL   +99999+99999GF199999999999015241999999MA1101765101465REMMET10201/05/25 01:56:02 METAR KMJX 050656Z 28014KT 10SM OVC050 M04/M12 A3005 RMK AO2 SLP181 T10391122 FZRANO
0230720407004622025010507567+39928-074292FM-15+0025KMJX V0202905N00515015245MN0160935N5-00335-01175101845ADDAA101000095GA1085+015245999GD14991+0152459GE19AGL   +99999+99999GF199999999999015241999999MA1101795101495OC100985REMMET10501/05/25 02:56:02 METAR KMJX 050756Z 29010G19KT 10SM OVC050 M03/M12 A3006 RMK AO2 SLP184 T10331117 FZRANO
0250720407004622025010508567+39928-074292FM-15+0025KMJX V0202805N00575014025MN0160935N5-00335-01115101845ADDAA101000095GA1085+014025999GD14991+0140259GE19AGL   +99999+99999GF199999999999014021999999MA1101795101495MD1090039+9999OC100985REMMET11101/05/25 03:56:02 METAR KMJX 050856Z 28011G19KT 10SM OVC046 M03/M11 A3006 RMK AO2 SLP184 T10331111 50003 FZRANO
0249720407004622025010509567+39928-074292FM-15+0025KMJX V0202805N006752200059N0160935N5-00395-01175101865ADDAA101000095GA1045+014025999GD12991+0140259GE19AGL   +99999+99999GF104995999999014021999999MA1101835101535OC100885REMMET10501/05/25 04:56:02 METAR KMJX 050956Z 28013G17KT 10SM SCT046 M04/M12 A3007 RMK AO2 SLP186 T10391117 FZRANOEQDD01      0ADE726
0238720407004622025010510567+39928-074292FM-15+0025KMJX V0202705N004152200059N0160935N5-00445-01175101915ADDAA101000095GA1025+013115999GD11991+0131159GE19AGL   +99999+99999GF102995999999013111999999MA1101865101565REMMET10201/05/25 05:56:02 METAR KMJX 051056Z 27008KT 10SM FEW043 M04/M12 A3008 RMK AO2 SLP191 T10441117 FZRANOEQDD01      0ADE726
0277720407004622025010511567+39928-074292FM-15+0025KMJX V0202705N00465013115MN0160935N5-00505-01175101955ADDAA101000095GA1075+013115999GD13991+0131159GE19AGL   +99999+99999GF199999999999013111999999KA1060M-00331KA2060N-00501MA1101905101595MD1390129+9999REMMET12001/05/25 06:56:02 METAR KMJX 051156Z 27009KT 10SM BKN043 M05/M12 A3009 RMK AO2 SLP195 T10501117 11033 21050 53012 FZRANO
0194720407004622025010512567+39928-074292FM-15+0025KMJX V0202605N005152200059N0160935N5-00505-01175101975ADDAA101000095GA1005+999999999GD10991+9999999GF100991999999999999999999MA1101935101635REMMET09901/05/25 07:56:02 METAR KMJX 051256Z 26010KT 10SM CLR M05/M12 A3010 RMK AO2 SLP197 T10501117 FZRANO
0205720407004622025010513567+39928-074292FM-15+0025KMJX V0202705N006752200059N0160935N5-00395-01175102005ADDAA101000095GA1005+999999999GD10991+9999999GF100991999999999999999999MA1101965101665OC101185REMMET10201/05/25 08:56:02 METAR KMJX 051356Z 27013G23KT 10SM CLR M04/M12 A3011 RMK AO2 SLP200 T10391117 FZRANO
0225720407004622025010514567+39928-074292FM-15+0025KMJX V0202805N008252200059N0160935N5-00225-01115102025ADDAA101000095GA1005+999999999GD10991+9999999GF100991999999999999999999MA1101965101665MD1390079+9999OC101135REMMET10801/05/25 09:56:02 METAR KMJX 051456Z 28016G22KT 10SM CLR M02/M11 A3011 RMK AO2 SLP202 T10221111 53007 FZRANO
0223720407004622025010515567+39928-074292FM-15+0025KMJX V0203005N008852200059N0160935N5-00175-01115101965ADDAA101000095GA1005+999999999GD10991+9999999GF100991999999999999999999MA1101935101635OC101185REMMET12001/05/25 10:56:02 METAR KMJX 051556Z 30017G23KT 10SM CLR M02/M11 A3010 RMK AO2 PK WND 26026/1535 SLP196 T10171111 FZRANO
0223720407004622025010516567+39928-074292FM-15+0025KMJX V0202805N008852200059N0160935N5-00115-01115101855ADDAA101000095GA1005+999999999GD10991+9999999GF100991999999999999999999MA1101795101495OC101085REMMET12001/05/25 11:56:02 METAR KMJX 051656Z 28017G21KT 10SM CLR M01/M11 A3006 RMK AO2 PK WND 30026/1643 SLP185 T10111111 FZRANO
0263720407004622025010517567+39928-074292FM-15+0025KMJX V0202805N008252200059N0160935N5-00065-01065101805ADDAA101000095GA1005+999999999GD10991+9999999GF100991999999999999999999KA1060M-00061KA2060N-00561MA1101765101465MD1690229+9999OC101245REMMET12001/05/25 12:56:02 METAR KMJX 051756Z 28016G24KT 10SM CLR M01/M11 A3005 RMK AO2 SLP180 T10061106 11006 21056 56022 FZRANO
0222720407004622025010518567+39928-074292FM-15+0025KMJX V0202705N008852200059N0160935N5+00005-01175101795ADDAA101000095GA1005+999999999GD10991+9999999GF100991999999999999999999MA1101765101465OC101135REMMET11901/05/25 13:56:02 METAR KMJX 051856Z 27017G22KT 10SM CLR 00/M12 A3005 RMK AO2 PK WND 27026/1839 SLP179 T00001117 FZRANO
0223720407004622025010519567+39928-074292FM-15+0025KMJX V0202905N007752200059N0160935N5-00065-01115101825ADDAA101000095GA1005+999999999GD10991+9999999GF100991999999999999999999MA1101765101465OC101085REMMET12001/05/25 14:56:02 METAR KMJX 051956Z 29015G21KT 10SM CLR M01/M11 A3005 RMK AO2 PK WND 28026/1901 SLP182 T10061111 FZRANO
0214720407004622025010520567+39928-074292FM-15+0025KMJX V0202905N006752200059N0160935N5-00065-01115101875ADDAA101000095GA1005+999999999GD10991+9999999GF100991999999999999999999MA1101835101535MD1390079+9999REMMET10501/05/25 15:56:02 METAR KMJX 052056Z 29013KT 10SM CLR M01/M11 A3007 RMK AO2 SLP187 T10061111 53007 FZRANO
0194720407004622025010521567+39928-074292FM-15+0025KMJX V0202805N004652200059N0160935N5-00175-01115101905ADDAA101000095GA1005+999999999GD10991+9999999GF100991999999999999999999MA1101865101565REMMET09901/05/25 16:56:02 METAR KMJX 052156Z 28009KT 10SM CLR M02/M11 A3008 RMK AO2 SLP190 T10171111 FZRANO
0194720407004622025010522567+39928-074292FM-15+0025KMJX V0202705N001552200059N0160935N5-00285-01175101955ADDAA101000095GA1005+999999999GD10991+9999999GF100991999999999999999999MA1101905101595REMMET09901/05/25 17:56:02 METAR KMJX 052256Z 27003KT 10SM CLR M03/M12 A3009 RMK AO2 SLP195 T10281117 FZRANO
0252720407004622025010523567+39928-074292FM-15+0025KMJX V0202405N001552200059N0160935N5-00395-01175101975ADDAA101000095GA1005+999999999GD10991+9999999GF100991999999999999999999KA1060M+00001KA2060N-00391MA1101935101635MD1190109+9999REMMET11701/05/25 18:56:02 METAR KMJX 052356Z 24003KT 10SM CLR M04/M12 A3010 RMK AO2 SLP197 T10391117 10000 21039 51010 FZRANO
0194720407004622025010600567+39928-074292FM-15+0025KMJX V0202705N002652200059N0160935N5-00395-01115101965ADDAA101000095GA1005+999999999GD10991+9999999GF100991999999999999999999MA1101935101635REMMET09901/05/25 19:56:01 METAR KMJX 060056Z 27005KT 10SM CLR M04/M11 A3010 RMK AO2 SLP196 T10391111 FZRANO
0194720407004622025010601567+39928-074292FM-15+0025KMJX V0202605N002652200059N0160935N5-00335-01115101945ADDAA101000095GA1005+999999999GD10991+9999999GF100991999999999999999999MA1101905101595REMMET09901/05/25 20:56:01 METAR KMJX 060156Z 26005KT 10SM CLR M03/M11 A3009 RMK AO2 SLP194 T10331111 FZRANO
0214720407004622025010602567+39928-074292FM-15+0025KMJX V0202805N003152200059N0160935N5-00285-01065101935ADDAA101000095GA1005+999999999GD10991+9999999GF100991999999999999999999MA1101905101595MD1690049+9999REMMET10501/05/25 21:56:01 METAR KMJX 060256Z 28006KT 10SM CLR M03/M11 A3009 RMK AO2 SLP193 T10281106 56004 FZRANO
0194720407004622025010603567+39928-074292FM-15+0025KMJX V0202705N003152200059N0160935N5-00285-01065101995ADDAA101000095GA1005+999999999GD10991+9999999GF100991999999999999999999MA1101935101635REMMET09901/05/25 22:56:02 METAR KMJX 060356Z 27006KT 10SM CLR M03/M11 A3010 RMK AO2 SLP199 T10281106 FZRANO
0230720407004622025010604567+39928-074292FM-15+0025KMJX V0203005N003152200059N0160935N5-00285-01065101955ADDAA101000095GA1005+999999999GD10991+9999999GF100991999999999999999999KA1240M+00001KA2240N-00561MA1101905101595REMMET10901/05/25 23:56:02 METAR KMJX 060456Z 30006KT 10SM CLR M03/M11 A3009 RMK AO2 SLP195 T10281106 400001056 FZRANO
0855720407004622025010604596+39928-074292SOD  +0025KMJX V020999999999999999999999999999+99999+99999999999ADDAA124000095KA1240M+00005KA2240N-00555MG1101564101764OE11240134128014015OE22240107330011445OE33240054599999995REMSOD73424 HR PRECIPITATION (IN): 0.00 24 HR MAX TEMP (F):32 24 HR MAX TEMP TIME (LST):1517 24 HR MIN TEMP (F):22 24 HR MIN TEMP TIME (LST):0742 AVERAGE STATION PRESSURE(D):29.991 MINIMUM SEA LEVEL PRESSURE:30.05 TIME OF OCCURRENCE:1412 PEAK WIND SPEED (MPH):30  PEAK WIND DIR (DEG):280 PEAK WIND TIME (LST):1401  FASTEST 2MIN SPEED (MPH):24 FASTEST 2MIN DIR (DEG):300 FASTEST 2MIN TIME (LST):1144 AVERAGE WIND SPEED (MPH):12.2 24 HR AVG TEMP (F):27 HEATING DEGREE DAYS: 38 COOLING DEGREE DAYS:  0 LATEST DAY MAX TEMP (0700-1900 LST): 32 LATEST NIGHT MIN TEMP(1900-0800 LST):22 HOURLY INCREMENTAL PRECIPITATION VALUES (IN):0.00 0.00 0.00 0.00 0.00 0.00 0.00 0.00 0.00 0.00 0.00 0.00 0.00 0.00 0.00 0.00 0.00 0.00 0.00 0.00 0.00 0.00 0.00 0.00
0252720407004622025010605567+39928-074292FM-15+0025KMJX V0203005N002152200059N0160935N5-00285-01065101875ADDAA101000095GA1005+999999999GD10991+9999999GF100991999999999999999999KA1060M-00281KA2060N-00501MA1101835101535MD1890069+9999REMMET11701/06/25 00:56:02 METAR KMJX 060556Z 30004KT 10SM CLR M03/M11 A3007 RMK AO2 SLP187 T10281106 11028 21050 58006 FZRANO
0194720407004622025010606567+39928-074292FM-15+0025KMJX V0202905N002152200059N0160935N5-00285-01005101885ADDAA101000095GA1005+999999999GD10991+9999999GF100991999999999999999999MA1101835101535REMMET09901/06/25 01:56:02 METAR KMJX 060656Z 29004KT 10SM CLR M03/M10 A3007 RMK AO2 SLP188 T10281100 FZRANO
0219720407004622025010607567+39928-074292FM-15+0025KMJX V0202905N00265036585MN0160935N5-00285-01005101825ADDAA101000095GA1075+036585999GD13991+0365859GE19AGL   +99999+99999GF199999999999036581999999MA1101795101495REMMET10201/06/25 02:56:02 METAR KMJX 060756Z 29005KT 10SM BKN120 M03/M10 A3006 RMK AO2 SLP182 T10281100 FZRANO
0214720407004622025010608567+39928-074292FM-15+0025KMJX V0202405N001552200059N0160935N5-00335-01005101785ADDAA101000095GA1005+999999999GD10991+9999999GF100991999999999999999999MA1101735101435MD1890099+9999REMMET10501/06/25 03:56:02 METAR KMJX 060856Z 24003KT 10SM CLR M03/M10 A3004 RMK AO2 SLP178 T10331100 58009 FZRANO
0257720407004622025010609567+39928-074292FM-15+0025KMJX V0202505N00215027435MN0160935N5-00335-01005101715ADDAA101000095GA1075+027435999GA2075+036585999GD13991+0274359GD23991+0365859GE19AGL   +99999+99999GF199999999999027431999999MA1101665101365REMMET10901/06/25 04:56:02 METAR KMJX 060956Z 25004KT 10SM BKN090 BKN120 M03/M10 A3002 RMK AO2 SLP171 T10331100 FZRANO
0257720407004622025010610567+39928-074292FM-15+0025KMJX V0209999C00005024385MN0160935N5-00335-01005101635ADDAA101000095GA1075+024385999GA2085+027435999GD13991+0243859GD24991+0274359GE19AGL   +99999+99999GF199999999999024381999999MA1101595101295REMMET10901/06/25 05:56:02 METAR KMJX 061056Z 00000KT 10SM BKN080 OVC090 M03/M10 A3000 RMK AO2 SLP163 T10331100 FZRANO
0277720407004622025010611567+39928-074292FM-15+0025KMJX V0209999C00005016765MN0160935N5-00285-00945101575ADDAA101000095GA1085+016765999GD14991+0167659GE19AGL   +99999+99999GF199999999999016761999999KA1060M-00281KA2060N-00391MA1101525101225MD1690209+9999REMMET12001/06/25 06:56:02 METAR KMJX 061156Z 00000KT 10SM OVC055 M03/M09 A2998 RMK AO2 SLP157 T10281094 11028 21039 56020 FZRANO
0341720407004622025010612567+39928-074292FM-15+0025KMJX V0202305N00155007015MN0048285N5-00335-00785101525ADDAA101000025AU110030015AW1715GA1075+007015999GA2075+008535999GA3085+010975999GD13991+0070159GD23991+0085359GD34991+0109759GE19AGL   +99999+99999GF199999999999007011999999MA1101495101195MW1715REMMET13901/06/25 07:56:02 METAR KMJX 061256Z 23003KT 3SM -SN BKN023 BKN028 OVC036 M03/M08 A2997 RMK AO2 UPB35E44SNB44 SLP152 P0000 T10331078 FZRANO
0276720407004622025010613027+39928-074292FM-15+0025KMJX V0202705N00155006405MN0028165N5-00305-00705999999ADDAA101000025AU110030015AW1715GA1075+006405999GA2085+008535999GD13991+0064059GD24991+0085359GE19AGL   +99999+99999GF199999999999006401999999MA1101495101195MW1715REMMET10501/06/25 08:02:02 METAR KMJX 061302Z 27003KT 1 3/4SM -SN BKN021 OVC028 M03/M07 A2997 RMK AO2 P0000 FZRANO
0294720407004622025010613177+39928-074292FM-15+0025KMJX V0209999C00005004575MN0012075N5-00405-00705999999ADDAA101000025AU110030015AU200001015AW1105AW2715GA1075+004575999GA2085+007015999GD13991+0045759GD24991+0070159GE19AGL   +99999+99999GF199999999999004571999999MA1101465101165MW1715REMMET10601/06/25 08:17:02 METAR KMJX 061317Z 00000KT 3/4SM -SN BR BKN015 OVC023 M04/M07 A2996 RMK AO2 P0000 FZRANO
0349720407004622025010613567+39928-074292FM-15+0025KMJX V0209999C00005004575MN0012075N5-00445-00565101435ADDAA101000025AU110030015AU200001015AW1105AW2715GA1025+001225999GA2075+004575999GA3085+006405999GD11991+0012259GD23991+0045759GD34991+0064059GE19AGL   +99999+99999GF199999999999001221999999MA1101395101095MW1715REMMET13001/06/25 08:56:02 METAR KMJX 061356Z 00000KT 3/4SM -SN BR FEW004 BKN015 OVC021 M04/M06 A2994 RMK AO2 SLP143 P0000 T10441056 FZRANO
0334720407004622025010614037+39928-074292FM-15+0025KMJX V0209999C00005004575MN0020125N5-00405-00605999999ADDAA101000025AU110030015AU200001015AW1105AW2715GA1075+004575999GA2075+006105999GA3085+007625999GD13991+0045759GD23991+0061059GD34991+0076259GE19AGL   +99999+99999GF199999999999004571999999MA1101355101055MW1715REMMET11501/06/25 09:03:02 METAR KMJX 061403Z 00000KT 1 1/4SM -SN BR BKN015 BKN020 OVC025 M04/M06 A2993 RMK AO2 P0000 FZRANO
0294720407004622025010614297+39928-074292FM-15+0025KMJX V0209999C00005007325MN0012075N5-00405-00505999999ADDAA101000025AU110030015AU200001015AW1105AW2715GA1045+004575999GA2085+007325999GD12991+0045759GD24991+0073259GE19AGL   +99999+99999GF199999999999004571999999MA1101355101055MW1715REMMET10601/06/25 09:29:02 METAR KMJX 061429Z 00000KT 3/4SM -SN BR SCT015 OVC024 M04/M05 A2993 RMK AO2 P0000 FZRANO
0295720407004622025010614357+39928-074292FM-15+0025KMJX V0209999C00005003665MN0008055N5-00305-00505999999ADDAA101000025AU120030015AU208002015AW1355AW2725GA1075+003665999GA2085+006405999GD13991+0036659GD24991+0064059GE19AGL   +99999+99999GF199999999999003661999999MA1101355101055MW1735REMMET10701/06/25 09:35:02 METAR KMJX 061435Z 00000KT 1/2SM SN FZFG BKN012 OVC021 M03/M05 A2993 RMK AO2 P0000 FZRANO
0330720407004622025010614567+39928-074292FM-15+0025KMJX V0209999C00005003665MN0008055N5-00285-00445101355ADDAA101000025AA203000021AU120030015AU208002015AW1355AW2725GA1085+003665999GD14991+0036659GE19AGL   +99999+99999GF199999999999003661999999MA1101295100995MD1890189+9999MW1735REMMET12901/06/25 09:56:02 METAR KMJX 061456Z 00000KT 1/2SM SN FZFG OVC012 M03/M04 A2991 RMK AO2 SLP135 P0000 60000 T10281044 58018 FZRANOEQDQ01  00008PRCP03
0294720407004622025010615107+39928-074292FM-15+0025KMJX V0209999C00005005495MN0012075N5-00305-00505999999ADDAA101000025AU110030015AU200001015AW1105AW2715GA1045+003665999GA2085+005495999GD12991+0036659GD24991+0054959GE19AGL   +99999+99999GF199999999999003661999999MA1101295100995MW1715REMMET10601/06/25 10:10:02 METAR KMJX 061510Z 00000KT 3/4SM -SN BR SCT012 OVC018 M03/M05 A2991 RMK AO2 P0000 FZRANO
0337720407004622025010615307+39928-074292FM-15+0025KMJX V0200505N00155005495MN0016095N5-00305-00505999999ADDAA101000025AU110030015AU200001015AW1105AW2715GA1025+001835999GA2075+005495999GA3085+007015999GD11991+0018359GD23991+0054959GD34991+0070159GE19AGL   +99999+99999GF199999999999001831999999MA1101195100895MW1715REMMET11801/06/25 10:30:02 METAR KMJX 061530Z 05003KT 1SM -SN BR FEW006 BKN018 OVC023 M03/M05 A2988 RMK AO2 PRESFR P0000 FZRANO
0334720407004622025010615437+39928-074292FM-15+0025KMJX V0200305N00155005495MN0020125N5-00305-00505999999ADDAA101000025AU110030015AU200001015AW1105AW2715GA1025+001835999GA2075+005495999GA3085+010975999GD11991+0018359GD23991+0054959GD34991+0109759GE19AGL   +99999+99999GF199999999999001831999999MA1101155100855MW1715REMMET11501/06/25 10:43:02 METAR KMJX 061543Z 03003KT 1 1/4SM -SN BR FEW006 BKN018 OVC036 M03/M05 A2987 RMK AO2 P0000 FZRANO
0330720407004622025010615527+39928-074292FM-15+0025KMJX V0209999C00005009145MN0032195N5-00305-00505999999ADDAA101000025AU110030015AU200001015AW1105AW2715GA1025+001835999GA2075+009145999GA3085+010675999GD11991+0018359GD23991+0091459GD34991+0106759GE19AGL   +99999+99999GF199999999999001831999999MA1101125100825MW1715REMMET11101/06/25 10:52:02 METAR KMJX 061552Z 00000KT 2SM -SN BR FEW006 BKN030 OVC035 M03/M05 A2986 RMK AO2 P0000 FZRANO
0351720407004622025010615567+39928-074292FM-15+0025KMJX V0209999C00005010065MN0040235N5-00335-00505101185ADDAA101000025AU110030015AU200001015AW1105AW2715GA1025+001835999GA2075+010065999GA3085+012805999GD11991+0018359GD23991+0100659GD34991+0128059GE19AGL   +99999+99999GF199999999999001831999999MA1101155100855MW1715REMMET13201/06/25 10:56:02 METAR KMJX 061556Z 00000KT 2 1/2SM -SN BR FEW006 BKN033 OVC042 M03/M05 A2987 RMK AO2 SLP118 P0000 T10331050 FZRANO
0334720407004622025010616167+39928-074292FM-15+0025KMJX V0209999C00005009455MN0028165N5-00305-00405999999ADDAA101000025AU110030015AU200001015AW1105AW2715GA1025+005495999GA2075+009455999GA3085+012805999GD11991+0054959GD23991+0094559GD34991+0128059GE19AGL   +99999+99999GF199999999999005491999999MA1101085100785MW1715REMMET11501/06/25 11:16:02 METAR KMJX 061616Z 00000KT 1 3/4SM -SN BR FEW018 BKN031 OVC042 M03/M04 A2985 RMK AO2 P0000 FZRANO
0330720407004622025010616237+39928-074292FM-15+0025KMJX V0209999C00005006105MN0016095N5-00305-00405999999ADDAA101000025AU110030015AU200001015AW1105AW2715GA1075+006105999GA2075+007325999GA3085+011285999GD13991+0061059GD23991+0073259GD34991+0112859GE19AGL   +99999+99999GF199999999999006101999999MA1101085100785MW1715REMMET11101/06/25 11:23:02 METAR KMJX 061623Z 00000KT 1SM -SN BR BKN020 BKN024 OVC037 M03/M04 A2985 RMK AO2 P0000 FZRANO
0292720407004622025010616527+39928-074292FM-15+0025KMJX V0203405N00215005495MN0016095N5-00305-00505999999ADDAA101000025AU110030015AU200001015AW1105AW2715GA1025+001525999GA2085+005495999GD11991+0015259GD24991+0054959GE19AGL   +99999+99999GF199999999999001521999999MA1101025100725MW1715REMMET10401/06/25 11:52:02 METAR KMJX 061652Z 34004KT 1SM -SN BR FEW005 OVC018 M03/M05 A2983 RMK AO2 P0000 FZRANO
0309720407004622025010616567+39928-074292FM-15+0025KMJX V0203305N00155005495MN0016095N5-00335-00505101055ADDAA101000025AU110030015AU200001015AW1105AW2715GA1025+001525999GA2085+005495999GD11991+0015259GD24991+0054959GE19AGL   +99999+99999GF199999999999001521999999MA1101025100725MW1715REMMET12101/06/25 11:56:02 METAR KMJX 061656Z 33003KT 1SM -SN BR FEW005 OVC018 M03/M05 A2983 RMK AO2 SLP105 P0000 T10331050 FZRANO
0334720407004622025010617147+39928-074292FM-15+0025KMJX V0203105N00155007625MN0024145N5-00305-00405999999ADDAA101000025AU110030015AU200001015AW1105AW2715GA1025+001525999GA2075+007625999GA3085+009755999GD11991+0015259GD23991+0076259GD34991+0097559GE19AGL   +99999+99999GF199999999999001521999999MA1100985100685MW1715REMMET11501/06/25 12:14:02 METAR KMJX 061714Z 31003KT 1 1/2SM -SN BR FEW005 BKN025 OVC032 M03/M04 A2982 RMK AO2 P0000 FZRANO
0406720407004622025010617567+39928-074292FM-15+0025KMJX V0203405N00215006405MN0040235V5-00285-00445100885ADDAA101000025AA206000021AU110030015AU200001015AW1105AW2715GA1045+001835999GA2085+006405999GD12991+0018359GD24991+0064059GE19AGL   +99999+99999GF199999999999001831999999KA1060M-00281MA1100855100555MD1590179+9999MW1715REMMET16101/06/25 12:56:02 METAR KMJX 061756Z 34004KT 2 1/2SM -SN BR SCT006 OVC021 M03/M04 A2978 RMK AO2 VIS 1 3/4V3 SLP088 P0000 60000 T10281044 11028 21044 55017 FZRANOEQDQ01  00008PRCP06
0337720407004622025010618077+39928-074292FM-15+0025KMJX V0203605N00265006405MN0048285N5-00305-00405999999ADDAA101000025AU110030015AU200001015AW1105AW2715GA1045+001835999GA2075+006405999GA3085+009755999GD12991+0018359GD23991+0064059GD34991+0097559GE19AGL   +99999+99999GF199999999999001831999999MA1100785100485MW1715REMMET11801/06/25 13:07:02 METAR KMJX 061807Z 36005KT 3SM -SN BR SCT006 BKN021 OVC032 M03/M04 A2976 RMK AO2 PRESFR P0000 FZRANO
0330720407004622025010618147+39928-074292FM-15+0025KMJX V0203205N00265001835MN0064375N5-00305-00405999999ADDAA101000025AU110030015AU200001015AW1105AW2715GA1075+001835999GA2075+006405999GA3085+009755999GD13991+0018359GD23991+0064059GD34991+0097559GE19AGL   +99999+99999GF199999999999001831999999MA1100815100515MW1715REMMET11101/06/25 13:14:02 METAR KMJX 061814Z 32005KT 4SM -SN BR BKN006 BKN021 OVC032 M03/M04 A2977 RMK AO2 P0000 FZRANO
0330720407004622025010618467+39928-074292FM-15+0025KMJX V0200105N00315009755MN0064375N5-00305-00405999999ADDAA101000025AU110030015AU200001015AW1105AW2715GA1045+001835999GA2075+009755999GA3085+022865999GD12991+0018359GD23991+0097559GD34991+0228659GE19AGL   +99999+99999GF199999999999001831999999MA1100685100385MW1715REMMET11101/06/25 13:46:02 METAR KMJX 061846Z 01006KT 4SM -SN BR SCT006 BKN032 OVC075 M03/M04 A2973 RMK AO2 P0000 FZRANO
0330720407004622025010618527+39928-074292FM-15+0025KMJX V0203605N00215001835MN0080475N5-00305-00405999999ADDAA101000025AU110030015AU200001015AW1105AW2715GA1075+001835999GA2075+007625999GA3085+022865999GD13991+0018359GD23991+0076259GD34991+0228659GE19AGL   +99999+99999GF199999999999001831999999MA1100715100415MW1715REMMET11101/06/25 13:52:02 METAR KMJX 061852Z 36004KT 5SM -SN BR BKN006 BKN025 OVC075 M03/M04 A2974 RMK AO2 P0000 FZRANO
0347720407004622025010618567+39928-074292FM-15+0025KMJX V0203405N00215001835MN0080475N5-00285-00445100755ADDAA101000025AU110030015AU200001015AW1105AW2715GA1075+001835999GA2075+008535999GA3085+022865999GD13991+0018359GD23991+0085359GD34991+0228659GE19AGL   +99999+99999GF199999999999001831999999MA1100715100415MW1715REMMET12801/06/25 13:56:02 METAR KMJX 061856Z 34004KT 5SM -SN BR BKN006 BKN028 OVC075 M03/M04 A2974 RMK AO2 SLP075 P0000 T10281044 FZRANO
0314720407004622025010619567+39928-074292FM-15+0025KMJX V0203605N00415002445MN0160935N5-00225-00395100565ADDAA101000025GA1075+002445999GA2075+008535999GA3085+021345999GD13991+0024459GD23991+0085359GD34991+0213459GE19AGL   +99999+99999GF199999999999002441999999MA1100515100215REMMET13501/06/25 14:56:02 METAR KMJX 061956Z 36008KT 10SM BKN008 BKN028 OVC070 M02/M04 A2968 RMK AO2 SNE41 PRESFR SLP056 P0000 T10221039 FZRANO
0240720407004622025010620047+39928-074292FM-15+0025KMJX V0203505N00415021345MN0160935N5-00205-00405999999ADDAA101000025GA1045+002445999GA2085+021345999GD12991+0024459GD24991+0213459GE19AGL   +99999+99999GF199999999999002441999999MA1100475100185REMMET09201/06/25 15:04:02 METAR KMJX 062004Z 35008KT 10SM SCT008 OVC070 M02/M04 A2967 RMK AO2 FZRANO
0294720407004622025010620567+39928-074292FM-15+0025KMJX V0203605N00365019815MN0160935N5-00225-00395100545ADDAA101000095AA203000021GA1025+003055999GA2085+019815999GD11991+0030559GD24991+0198159GE19AGL   +99999+99999GF199999999999003051999999MA1100515100215MD1690349+9999REMMET12101/06/25 15:56:02 METAR KMJX 062056Z 36007KT 10SM FEW010 OVC065 M02/M04 A2968 RMK AO2 SLP054 60000 T10221039 56034 FZRANO
0278720407004622025010621167+39928-074292FM-15+0025KMJX V0203505N00365003665MN0160935N5-00205-00405999999ADDAA101000095GA1075+003665999GA2075+006715999GA3085+019815999GD13991+0036659GD23991+0067159GD34991+0198159GE19AGL   +99999+99999GF199999999999003661999999MA1100515100215REMMET09901/06/25 16:16:02 METAR KMJX 062116Z 35007KT 10SM BKN012 BKN022 OVC065 M02/M04 A2968 RMK AO2 FZRANO
0219720407004622025010621567+39928-074292FM-15+0025KMJX V0203605N00215003665MN0160935N5-00225-00395100555ADDAA101000095GA1085+003665999GD14991+0036659GE19AGL   +99999+99999GF199999999999003661999999MA1100515100215REMMET10201/06/25 16:56:02 METAR KMJX 062156Z 36004KT 10SM OVC012 M02/M04 A2968 RMK AO2 SLP055 T10221039 FZRANO
0257720407004622025010622567+39928-074292FM-15+0025KMJX V0203605N00265003665MN0144845N5-00225-00335100455ADDAA101000025AU110030015AW1715GA1085+003665999GD14991+0036659GE19AGL   +99999+99999GF199999999999003661999999MA1100415100115MW1715REMMET11701/06/25 17:56:02 METAR KMJX 062256Z 36005KT 9SM -SN OVC012 M02/M03 A2965 RMK AO2 SNB39 SLP045 P0000 T10221033 FZRANO
0310720407004622025010623377+39928-074292FM-15+0025KMJX V0203605N00265016765MN0144845N5-00205-00305999999ADDAA101000025AU110030015AW1715GA1045+004275999GA2075+016765999GA3085+024385999GD12991+0042759GD23991+0167659GD34991+0243859GE19AGL   +99999+99999GF199999999999004271999999MA1100375100075MW1715REMMET10801/06/25 18:37:02 METAR KMJX 062337Z 36005KT 9SM -SN SCT014 BKN055 OVC080 M02/M03 A2964 RMK AO2 P0000 FZRANO
0383720407004622025010623567+39928-074292FM-15+0025KMJX V0203505N00365024385MN0144845N5-00225-00335100435ADDAA101000025AA206000021AU110030015AW1715GA1045+004885999GA2085+024385999GD12991+0048859GD24991+0243859GE19AGL   +99999+99999GF199999999999004881999999KA1060M-00221KA2060N-00281MA1100375100075MD1890129+9999MW1715REMMET14201/06/25 18:56:02 METAR KMJX 062356Z 35007KT 9SM -SN SCT016 OVC080 M02/M03 A2964 RMK AO2 SLP043 P0000 60000 T10221033 11022 21028 58012 FZRANOEQDQ01  00008PRCP06
0327720407004622025010700567+39928-074292FM-15+0025KMJX V0203405N00365014945MN0144845N5-00225-00395100375ADDAA101000025AU110030015AW1715GA1025+011285999GA2075+014945999GA3085+024385999GD11991+0112859GD23991+0149459GD34991+0243859GE19AGL   +99999+99999GF199999999999011281999999MA1100345100045MW1715REMMET12501/06/25 19:56:01 METAR KMJX 070056Z 34007KT 9SM -SN FEW037 BKN049 OVC080 M02/M04 A2963 RMK AO2 SLP037 P0000 T10221039 FZRANO
0330720407004622025010701127+39928-074292FM-15+0025KMJX V0203405N00365008535MN0048285N5-00205-00405999999ADDAA101000025AU110030015AU200001015AW1105AW2715GA1045+005185999GA2075+008535999GA3085+014945999GD12991+0051859GD23991+0085359GD34991+0149459GE19AGL   +99999+99999GF199999999999005181999999MA1100305100015MW1715REMMET11101/06/25 20:12:01 METAR KMJX 070112Z 34007KT 3SM -SN BR SCT017 BKN028 OVC049 M02/M04 A2962 RMK AO2 P0000 FZRANO
0327720407004622025010701567+39928-074292FM-15+0025KMJX V0203205N00265024385MN0128755N5-00285-00395100395ADDAA101000025AU110030015AW1715GA1045+008845999GA2045+011285999GA3085+024385999GD12991+0088459GD22991+0112859GD34991+0243859GE19AGL   +99999+99999GF199999999999008841999999MA1100345100045MW1715REMMET12501/06/25 20:56:01 METAR KMJX 070156Z 32005KT 8SM -SN SCT029 SCT037 OVC080 M03/M04 A2963 RMK AO2 SLP039 P0000 T10281039 FZRANO
0336720407004622025010702567+39928-074292FM-15+0025KMJX V0203105N00515019815MN0160935N5-00225-00505100475ADDAA101000025AA203000021GA1075+019815999GA2085+024385999GD13991+0198159GD24991+0243859GE19AGL   +99999+99999GF199999999999019811999999MA1100445100145MD1390059+9999OC100825REMMET13601/06/25 21:56:01 METAR KMJX 070256Z 31010G16KT 10SM BKN065 OVC080 M02/M05 A2966 RMK AO2 SNE23 SLP047 P0000 60000 T10221050 53005 FZRANOEQDQ01  00008PRCP03
0316720407004622025010703547+39928-074292FM-15+0025KMJX V0203205N00415007925MN0096565N5-00305-00705999999ADDAA101000025AU110030015AW1715GA1045+006405999GA2075+007925999GA3085+013725999GD12991+0064059GD23991+0079259GD34991+0137259GE19AGL   +99999+99999GF199999999999006401999999MA1100585100285MW1715REMMET11401/06/25 22:54:02 METAR KMJX 070354Z 32008KT 6SM -SN SCT021 BKN026 OVC045 M03/M07 A2970 RMK AO2 SNB24 P0000 FZRANO
0333720407004622025010703567+39928-074292FM-15+0025KMJX V0203205N00465007925MN0112655N5-00335-00675100615ADDAA101000025AU110030015AW1715GA1025+005495999GA2075+007925999GA3085+013115999GD11991+0054959GD23991+0079259GD34991+0131159GE19AGL   +99999+99999GF199999999999005491999999MA1100585100285MW1715REMMET13101/06/25 22:56:02 METAR KMJX 070356Z 32009KT 7SM -SN FEW018 BKN026 OVC043 M03/M07 A2970 RMK AO2 SNB24 SLP061 P0000 T10331067 FZRANO
0310720407004622025010704197+39928-074292FM-15+0025KMJX V0203105N00365015245MN0144845N5-00305-00705999999ADDAA101000025AU110030015AW1715GA1045+007925999GA2045+010975999GA3085+015245999GD12991+0079259GD22991+0109759GD34991+0152459GE19AGL   +99999+99999GF199999999999007921999999MA1100615100315MW1715REMMET10801/06/25 23:19:02 METAR KMJX 070419Z 31007KT 9SM -SN SCT026 SCT036 OVC050 M03/M07 A2971 RMK AO2 P0000 FZRANO
0336720407004622025010704567+39928-074292FM-15+0025KMJX V0203205N00625013725MN0144845N5-00335-00835100695ADDAA101000025AU110030015AW1715GA1075+013725999GA2085+016765999GD13991+0137259GD24991+0167659GE19AGL   +99999+99999GF199999999999013721999999KA1240M-00221KA2240N-00441MA1100645100345MW1715OC101085REMMET13101/06/25 23:56:02 METAR KMJX 070456Z 32012G21KT 9SM -SN BKN045 OVC055 M03/M08 A2972 RMK AO2 SLP069 P0000 T10331083 410221044 FZRANO
0925720407004622025010704596+39928-074292SOD  +0025KMJX V020999999999999999999999999999+99999+99999999999ADDAA124000025AT1AU18SN  5AT2AU22FZFG5AT3AU13BR  5AT4AW01FG  5AX1015245KA1240M-00215KA2240N-00435MG1100684100344OE11240111833022315OE22240080532023595OE33240023299999995REMSOD74724 HR PRECIPITATION (IN):T     WEATHER(CODE):1  24 HR MAX TEMP (F):28 24 HR MAX TEMP TIME (LST):2225 24 HR MIN TEMP (F):24 24 HR MIN TEMP TIME (LST):0903 AVERAGE STATION PRESSURE(D):29.733 MINIMUM SEA LEVEL PRESSURE:29.63 TIME OF OCCURRENCE:2025 PEAK WIND SPEED (MPH):25  PEAK WIND DIR (DEG):330 PEAK WIND TIME (LST):2231  FASTEST 2MIN SPEED (MPH):18 FASTEST 2MIN DIR (DEG):320 FASTEST 2MIN TIME (LST):2359 AVERAGE WIND SPEED (MPH): 5.2 24 HR AVG TEMP (F):26 HEATING DEGREE DAYS: 39 COOLING DEGREE DAYS:  0 LATEST DAY MAX TEMP (0700-1900 LST): 28 LATEST NIGHT MIN TEMP(1900-0800 LST):23 HOURLY INCREMENTAL PRECIPITATION VALUES (IN):0.00 0.00 0.00 0.00 0.00 0.00 0.00T    T    T    T    T    T    T    T     0.00 0.00T    T    T    T    T    T    T
0352720407004622025010705567+39928-074292FM-15+0025KMJX V0203205N005752200059N0160935N5-00565-01115100685ADDAA101000025AA206000021GA1025+021345999GD11991+0213459GE19AGL   +99999+99999GF102995999999021341999999KA1060M-00221KA2060N-00561MA1100645100345MD1090079+9999OC101135REMMET14101/07/25 00:56:02 METAR KMJX 070556Z 32011G22KT 10SM FEW070 M06/M11 A2972 RMK AO2 SNE26 SLP068 P0000 60000 T10561111 11022 21056 50007 FZRANOEQDQ01  00008PRCP06D01      0ADE726
0245720407004622025010706567+39928-074292FM-15+0025KMJX V0203205N008852200059N0160935N5-00785-01335100845ADDAA101000025GA1005+999999999GD10991+9999999GF100991999999999999999999MA1100785100485OC101395REMMET14201/07/25 01:56:02 METAR KMJX 070656Z 32017G27KT 10SM CLR M08/M13 A2976 RMK AO2 PK WND 32028/0619 SNB21E46 PRESRR SLP084 P0000 T10781133 FZRANO
0194720407004622025010707567+39928-074292FM-15+0025KMJX V0203005N006752200059N0160935N5-00835-01335100915ADDAA101000095GA1005+999999999GD10991+9999999GF100991999999999999999999MA1100885100585REMMET09901/07/25 02:56:02 METAR KMJX 070756Z 30013KT 10SM CLR M08/M13 A2979 RMK AO2 SLP091 T10831133 FZRANO
0242720407004622025010708567+39928-074292FM-15+0025KMJX V0203105N007752200059N0160935N5-00785-01335100915ADDAA101000095AA203000021GA1005+999999999GD10991+9999999GF100991999999999999999999MA1100855100555MD1090239+9999OC101245REMMET11401/07/25 03:56:02 METAR KMJX 070856Z 31015G24KT 10SM CLR M08/M13 A2978 RMK AO2 SLP091 60000 T10781133 50023 FZRANO
0230720407004622025010709567+39928-074292FM-15+0025KMJX V0203105N00465010365MN0160935N5-00785-01285100965ADDAA101000095GA1075+010365999GD13991+0103659GE19AGL   +99999+99999GF199999999999010361999999MA1100915100625OC100935REMMET10501/07/25 04:56:02 METAR KMJX 070956Z 31009G18KT 10SM BKN034 M08/M13 A2980 RMK AO2 SLP096 T10781128 FZRANO
0249720407004622025010710567+39928-074292FM-15+0025KMJX V0203005N007752200059N0160935N5-00675-01225101025ADDAA101000095GA1025+010365999GD11991+0103659GE19AGL   +99999+99999GF102995999999010361999999MA1100985100685OC101035REMMET10501/07/25 05:56:02 METAR KMJX 071056Z 30015G20KT 10SM FEW034 M07/M12 A2982 RMK AO2 SLP102 T10671122 FZRANOEQDD01      0ADE726
0280720407004622025010711567+39928-074292FM-15+0025KMJX V0203005N006752200059N0160935N5-00675-01175101105ADDAA101000095AA206000021GA1005+999999999GD10991+9999999GF100991999999999999999999KA1060M-00561KA2060N-00831MA1101055100755MD1390209+9999OC100985REMMET12601/07/25 06:56:01 METAR KMJX 071156Z 30013G19KT 10SM CLR M07/M12 A2984 RMK AO2 SLP110 60000 T10671117 11056 21083 53020 FZRANO
0205720407004622025010712567+39928-074292FM-15+0025KMJX V0202905N006252200059N0160935N5-00615-01225101165ADDAA101000095GA1005+999999999GD10991+9999999GF100991999999999999999999MA1101125100825OC100935REMMET10201/07/25 07:56:01 METAR KMJX 071256Z 29012G18KT 10SM CLR M06/M12 A2986 RMK AO2 SLP116 T10611122 FZRANO
0223720407004622025010713567+39928-074292FM-15+0025KMJX V0203105N008252200059N0160935N5-00505-01175101175ADDAA101000095GA1005+999999999GD10991+9999999GF100991999999999999999999MA1101125100825OC101395REMMET12001/07/25 08:56:02 METAR KMJX 071356Z 31016G27KT 10SM CLR M05/M12 A2986 RMK AO2 PK WND 30027/1350 SLP117 T10501117 FZRANO
0243720407004622025010714567+39928-074292FM-15+0025KMJX V0203005N008252200059N0160935N5-00445-01115101215ADDAA101000095GA1005+999999999GD10991+9999999GF100991999999999999999999MA1101195100895MD1190119+9999OC101445REMMET12601/07/25 09:56:02 METAR KMJX 071456Z 30016G28KT 10SM CLR M04/M11 A2988 RMK AO2 PK WND 30032/1415 SLP121 T10441111 51011 FZRANO
0223720407004622025010715567+39928-074292FM-15+0025KMJX V0202905N012452200059N0160935N5-00335-01065101195ADDAA101000095GA1005+999999999GD10991+9999999GF100991999999999999999999MA1101155100855OC101545REMMET12001/07/25 10:56:02 METAR KMJX 071556Z 29024G30KT 10SM CLR M03/M11 A2987 RMK AO2 PK WND 29037/1509 SLP119 T10331106 FZRANO
0223720407004622025010716567+39928-074292FM-15+0025KMJX V0203005N010352200059N0160935N5-00225-01065101175ADDAA101000095GA1005+999999999GD10991+9999999GF100991999999999999999999MA1101125100825OC101655REMMET12001/07/25 11:56:02 METAR KMJX 071656Z 30020G32KT 10SM CLR M02/M11 A2986 RMK AO2 PK WND 28032/1647 SLP117 T10221106 FZRANO
0281720407004622025010717567+39928-074292FM-15+0025KMJX V0202905N011852200059N0160935N5-00115-00945101105ADDAA101000095GA1005+999999999GD10991+9999999GF100991999999999999999999KA1060M-00111KA2060N-00671MA1101055100755MD1890119+9999OC101755REMMET13801/07/25 12:56:02 METAR KMJX 071756Z 29023G34KT 10SM CLR M01/M09 A2984 RMK AO2 PK WND 30034/1749 SLP110 T10111094 11011 21067 58011 FZRANO
0222720407004622025010718567+39928-074292FM-15+0025KMJX V0203005N014952200059N0160935N5+00005-00945101045ADDAA101000095GA1005+999999999GD10991+9999999GF100991999999999999999999MA1100985100685OC102065REMMET11901/07/25 13:56:02 METAR KMJX 071856Z 30029G40KT 10SM CLR 00/M09 A2982 RMK AO2 PK WND 29040/1852 SLP104 T00001094 FZRANO
0222720407004622025010719567+39928-074292FM-15+0025KMJX V0203005N008252200059N0160935N5+00005-01005101165ADDAA101000095GA1005+999999999GD10991+9999999GF100991999999999999999999MA1101125100825OC101345REMMET11901/07/25 14:56:01 METAR KMJX 071956Z 30016G26KT 10SM CLR 00/M10 A2986 RMK AO2 PK WND 30035/1901 SLP116 T00001100 FZRANO
0216720407004622025010720566+39928-074292FM-15+0025KMJX V0202905N007752200059N0160935N5+00005-00895101315ADDAA101000095GA1005+999999999GD10991+9999999MA1101255100955MD1390209+9999OC101135REMMET12501/07/25 15:56:02 METAR KMJX 072056Z 29015G22KT 10SM CLR 00/M09 A2990 RMK AO2 PK WND 29032/2029 SLP131 T00001089 53020 FZRANO
0223720407004622025010721567+39928-074292FM-15+0025KMJX V0203005N006252200059N0160935N5-00065-00945101415ADDAA101000095GA1005+999999999GD10991+9999999GF100991999999999999999999MA1101355101055OC101085REMMET12001/07/25 16:56:02 METAR KMJX 072156Z 30012G21KT 10SM CLR M01/M09 A2993 RMK AO2 PK WND 28026/2102 SLP141 T10061094 FZRANO
0194720407004622025010722567+39928-074292FM-15+0025KMJX V0202805N005752200059N0160935N5-00115-00945101465ADDAA101000095GA1005+999999999GD10991+9999999GF100991999999999999999999MA1101425101125REMMET09901/07/25 17:56:02 METAR KMJX 072256Z 28011KT 10SM CLR M01/M09 A2995 RMK AO2 SLP146 T10111094 FZRANO
0252720407004622025010723567+39928-074292FM-15+0025KMJX V0203005N005752200059N0160935N5-00175-00945101555ADDAA101000095GA1005+999999999GD10991+9999999GF100991999999999999999999KA1060M+00061KA2060N-00171MA1101525101225MD1190249+9999REMMET11701/07/25 18:56:02 METAR KMJX 072356Z 30011KT 10SM CLR M02/M09 A2998 RMK AO2 SLP155 T10171094 10006 21017 51024 FZRANO
0205720407004622025010800567+39928-074292FM-15+0025KMJX V0202905N006752200059N0160935N5-00225-01005101625ADDAA101000095GA1005+999999999GD10991+9999999GF100991999999999999999999MA1101565101265OC101245REMMET10201/07/25 19:56:01 METAR KMJX 080056Z 29013G24KT 10SM CLR M02/M10 A2999 RMK AO2 SLP162 T10221100 FZRANO
0223720407004622025010801567+39928-074292FM-15+0025KMJX V0203105N007752200059N0160935N5-00285-01065101655ADDAA101000095GA1005+999999999GD10991+9999999GF100991999999999999999999MA1101635101325OC101135REMMET12001/07/25 20:56:01 METAR KMJX 080156Z 31015G22KT 10SM CLR M03/M11 A3001 RMK AO2 PK WND 29029/0103 SLP165 T10281106 FZRANO
0225720407004622025010802567+39928-074292FM-15+0025KMJX V0203105N005152200059N0160935N5-00335-01065101685ADDAA101000095GA1005+999999999GD10991+9999999GF100991999999999999999999MA1101635101325MD1190139+9999OC101035REMMET10801/07/25 21:56:01 METAR KMJX 080256Z 31010G20KT 10SM CLR M03/M11 A3001 RMK AO2 SLP168 T10331106 51013 FZRANO
0194720407004622025010803567+39928-074292FM-15+0025KMJX V0203005N004152200059N0160935N5-00395-01115101735ADDAA101000095GA1005+999999999GD10991+9999999GF100991999999999999999999MA1101695101395REMMET09901/07/25 22:56:02 METAR KMJX 080356Z 30008KT 10SM CLR M04/M11 A3003 RMK AO2 SLP173 T10391111 FZRANO
0259720407004622025010804567+39928-074292FM-15+0025KMJX V0203005N007752200059N0160935N5-00395-01175101705ADDAA101000095GA1005+999999999GD10991+9999999GF100991999999999999999999KA1240M+00061KA2240N-00831MA1101665101365OC101085REMMET13001/07/25 23:56:02 METAR KMJX 080456Z 30015G21KT 10SM CLR M04/M12 A3002 RMK AO2 PK WND 32027/0438 SLP170 T10391117 400061083 FZRANO
0855720407004622025010804596+39928-074292SOD  +0025KMJX V020999999999999999999999999999+99999+99999999999ADDAA124000025KA1240M+00065KA2240N-00825MG1100894100684OE11240205629013525OE22240147530014035OE33240076999999995REMSOD73424 HR PRECIPITATION (IN):T     24 HR MAX TEMP (F):33 24 HR MAX TEMP TIME (LST):1505 24 HR MIN TEMP (F):17 24 HR MIN TEMP TIME (LST):0339 AVERAGE STATION PRESSURE(D):29.794 MINIMUM SEA LEVEL PRESSURE:29.73 TIME OF OCCURRENCE:0116 PEAK WIND SPEED (MPH):46  PEAK WIND DIR (DEG):290 PEAK WIND TIME (LST):1352  FASTEST 2MIN SPEED (MPH):33 FASTEST 2MIN DIR (DEG):300 FASTEST 2MIN TIME (LST):1403 AVERAGE WIND SPEED (MPH):17.2 24 HR AVG TEMP (F):25 HEATING DEGREE DAYS: 40 COOLING DEGREE DAYS:  0 LATEST DAY MAX TEMP (0700-1900 LST): 33 LATEST NIGHT MIN TEMP(1900-0800 LST):17 HOURLY INCREMENTAL PRECIPITATION VALUES (IN):    T     0.00 0.00 0.00 0.00 0.00 0.00 0.00 0.00 0.00 0.00 0.00 0.00 0.00 0.00 0.00 0.00 0.00 0.00 0.00 0.00 0.00 0.00
0263720407004622025010805567+39928-074292FM-15+0025KMJX V0203105N006252200059N0160935N5-00445-01225101745ADDAA101000095GA1005+999999999GD10991+9999999GF100991999999999999999999KA1060M-00171KA2060N-00441MA1101695101395MD1290069+9999OC101135REMMET12001/08/25 00:56:02 METAR KMJX 080556Z 31012G22KT 10SM CLR M04/M12 A3003 RMK AO2 SLP174 T10441122 11017 21044 52006 FZRANO
0223720407004622025010806567+39928-074292FM-15+0025KMJX V0203105N005152200059N0160935N5-00445-01285101785ADDAA101000095GA1005+999999999GD10991+9999999GF100991999999999999999999MA1101735101435OC101135REMMET12001/08/25 01:56:02 METAR KMJX 080656Z 31010G22KT 10SM CLR M04/M13 A3004 RMK AO2 PK WND 30027/0614 SLP178 T10441128 FZRANO
0194720407004622025010807567+39928-074292FM-15+0025KMJX V0203005N004152200059N0160935N5-00505-01225101765ADDAA101000095GA1005+999999999GD10991+9999999GF100991999999999999999999MA1101735101435REMMET09901/08/25 02:56:02 METAR KMJX 080756Z 30008KT 10SM CLR M05/M12 A3004 RMK AO2 SLP176 T10501122 FZRANO
0214720407004622025010808567+39928-074292FM-15+0025KMJX V0203005N004152200059N0160935N5-00565-01175101755ADDAA101000095GA1005+999999999GD10991+9999999GF100991999999999999999999MA1101695101395MD1090019+9999REMMET10501/08/25 03:56:02 METAR KMJX 080856Z 30008KT 10SM CLR M06/M12 A3003 RMK AO2 SLP175 T10561117 50001 FZRANO
0194720407004622025010809567+39928-074292FM-15+0025KMJX V0203005N004652200059N0160935N5-00445-01115101715ADDAA101000095GA1005+999999999GD10991+9999999GF100991999999999999999999MA1101665101365REMMET09901/08/25 04:56:02 METAR KMJX 080956Z 30009KT 10SM CLR M04/M11 A3002 RMK AO2 SLP171 T10441111 FZRANO
0205720407004622025010810567+39928-074292FM-15+0025KMJX V0203105N005752200059N0160935N5-00505-01175101725ADDAA101000095GA1005+999999999GD10991+9999999GF100991999999999999999999MA1101695101395OC100825REMMET10201/08/25 05:56:02 METAR KMJX 081056Z 31011G16KT 10SM CLR M05/M12 A3003 RMK AO2 SLP172 T10501117 FZRANO
0252720407004622025010811567+39928-074292FM-15+0025KMJX V0203005N005752200059N0160935N5-00505-01225101785ADDAA101000095GA1005+999999999GD10991+9999999GF100991999999999999999999KA1060M-00441KA2060N-00611MA1101735101435MD1390039+9999REMMET11701/08/25 06:56:02 METAR KMJX 081156Z 30011KT 10SM CLR M05/M12 A3004 RMK AO2 SLP178 T10501122 11044 21061 53003 FZRANO
0194720407004622025010812567+39928-074292FM-15+0025KMJX V0203005N004152200059N0160935N5-00505-01225101795ADDAA101000095GA1005+999999999GD10991+9999999GF100991999999999999999999MA1101735101435REMMET09901/08/25 07:56:02 METAR KMJX 081256Z 30008KT 10SM CLR M05/M12 A3004 RMK AO2 SLP179 T10501122 FZRANO
0205720407004622025010813567+39928-074292FM-15+0025KMJX V0203005N008252200059N0160935N5-00395-01225101765ADDAA101000095GA1005+999999999GD10991+9999999GF100991999999999999999999MA1101735101435OC101185REMMET10201/08/25 08:56:02 METAR KMJX 081356Z 30016G23KT 10SM CLR M04/M12 A3004 RMK AO2 SLP176 T10391122 FZRANO
0243720407004622025010814567+39928-074292FM-15+0025KMJX V0202905N011352200059N0160935N5-00335-01175101725ADDAA101000095GA1005+999999999GD10991+9999999GF100991999999999999999999MA1101695101395MD1890069+9999OC101605REMMET12601/08/25 09:56:02 METAR KMJX 081456Z 29022G31KT 10SM CLR M03/M12 A3003 RMK AO2 PK WND 31031/1448 SLP172 T10331117 58006 FZRANO
0281720407004622025010815567+39928-074292FM-15+0025KMJX V0202805N011352200059N0160935N5-00225-01175101575ADDAA101000095GA1025+014025999GD11991+0140259GE19AGL   +99999+99999GF102995999999014021999999MA1101525101225OC101395OD149901641310REMMET12301/08/25 10:56:02 METAR KMJX 081556Z 28022G27KT 10SM FEW046 M02/M12 A2998 RMK AO2 PK WND 31032/1510 SLP157 T10221117 FZRANOEQDD01      0ADE726
0281720407004622025010816567+39928-074292FM-15+0025KMJX V0202905N011852200059N0160935N5-00115-01175101455ADDAA101000095GA1025+014945999GD11991+0149459GE19AGL   +99999+99999GF102995999999014941999999MA1101425101125OC101705OD149901691280REMMET12301/08/25 11:56:02 METAR KMJX 081656Z 29023G33KT 10SM FEW049 M01/M12 A2995 RMK AO2 PK WND 28033/1651 SLP145 T10111117 FZRANOEQDD01      0ADE726
0320720407004622025010817567+39928-074292FM-15+0025KMJX V0202905N00885016765MN0160935N5-00065-01175101355ADDAA101000095GA1075+016765999GD13991+0167659GE19AGL   +99999+99999GF199999999999016761999999KA1060M-00061KA2060N-00561MA1101325101025MD1690379+9999OC101345OD149901641280REMMET14101/08/25 12:56:02 METAR KMJX 081756Z 29017G26KT 10SM BKN055 M01/M12 A2992 RMK AO2 PK WND 28032/1719 SLP135 T10061117 11006 21056 56037 FZRANO
0223720407004622025010818567+39928-074292FM-15+0025KMJX V0202905N008852200059N0160935N5-00065-01285101245ADDAA101000095GA1005+999999999GD10991+9999999GF100991999999999999999999MA1101195100895OC101495REMMET12001/08/25 13:56:02 METAR KMJX 081856Z 29017G29KT 10SM CLR M01/M13 A2988 RMK AO2 PK WND 29033/1818 SLP124 T10061128 FZRANO
0281720407004622025010819567+39928-074292FM-15+0025KMJX V0202905N011352200059N0160935N5-00115-01335101215ADDAA101000095GA1025+018295999GD11991+0182959GE19AGL   +99999+99999GF102995999999018291999999MA1101195100895OC101655OD149901641280REMMET12301/08/25 14:56:02 METAR KMJX 081956Z 29022G32KT 10SM FEW060 M01/M13 A2988 RMK AO2 PK WND 28032/1952 SLP121 T10111133 FZRANOEQDD01      0ADE726
0243720407004622025010820567+39928-074292FM-15+0025KMJX V0203005N009352200059N0160935N5-00175-01335101205ADDAA101000095GA1005+999999999GD10991+9999999GF100991999999999999999999MA1101155100855MD1690159+9999OC101345REMMET12601/08/25 15:56:02 METAR KMJX 082056Z 30018G26KT 10SM CLR M02/M13 A2987 RMK AO2 PK WND 29030/2026 SLP120 T10171133 56015 FZRANO
0223720407004622025010821567+39928-074292FM-15+0025KMJX V0203005N007752200059N0160935N5-00285-01395101215ADDAA101000095GA1005+999999999GD10991+9999999GF100991999999999999999999MA1101155100855OC101245REMMET12001/08/25 16:56:02 METAR KMJX 082156Z 30015G24KT 10SM CLR M03/M14 A2987 RMK AO2 PK WND 29028/2123 SLP121 T10281139 FZRANO
0205720407004622025010822567+39928-074292FM-15+0025KMJX V0203005N006752200059N0160935N5-00335-01395101225ADDAA101000095GA1005+999999999GD10991+9999999GF100991999999999999999999MA1101195100895OC101085REMMET10201/08/25 17:56:02 METAR KMJX 082256Z 30013G21KT 10SM CLR M03/M14 A2988 RMK AO2 SLP122 T10331139 FZRANO
0281720407004622025010823567+39928-074292FM-15+0025KMJX V0203005N007752200059N0160935N5-00395-01505101245ADDAA101000095GA1005+999999999GD10991+9999999GF100991999999999999999999KA1060M-00061KA2060N-00391MA1101195100895MD1390049+9999OC101345REMMET13801/08/25 18:56:02 METAR KMJX 082356Z 30015G26KT 10SM CLR M04/M15 A2988 RMK AO2 PK WND 29030/2312 SLP124 T10391150 11006 21039 53004 FZRANO
0194720407004622025010900567+39928-074292FM-15+0025KMJX V0203005N004652200059N0160935N5-00505-01445101275ADDAA101000095GA1005+999999999GD10991+9999999GF100991999999999999999999MA1101225100925REMMET09901/08/25 19:56:01 METAR KMJX 090056Z 30009KT 10SM CLR M05/M14 A2989 RMK AO2 SLP127 T10501144 FZRANO
0205720407004622025010901567+39928-074292FM-15+0025KMJX V0203005N005152200059N0160935N5-00505-01445101275ADDAA101000095GA1005+999999999GD10991+9999999GF100991999999999999999999MA1101225100925OC101085REMMET10201/08/25 20:56:01 METAR KMJX 090156Z 30010G21KT 10SM CLR M05/M14 A2989 RMK AO2 SLP127 T10501144 FZRANO
0225720407004622025010902567+39928-074292FM-15+0025KMJX V0202905N008852200059N0160935N5-00615-01445101235ADDAA101000095GA1005+999999999GD10991+9999999GF100991999999999999999999MA1101195100895MD1890019+9999OC101085REMMET10801/08/25 21:56:01 METAR KMJX 090256Z 29017G21KT 10SM CLR M06/M14 A2988 RMK AO2 SLP123 T10611144 58001 FZRANO
0205720407004622025010903567+39928-074292FM-15+0025KMJX V0202905N007752200059N0160935N5-00615-01445101205ADDAA101000095GA1005+999999999GD10991+9999999GF100991999999999999999999MA1101155100855OC101295REMMET10201/08/25 22:56:02 METAR KMJX 090356Z 29015G25KT 10SM CLR M06/M14 A2987 RMK AO2 SLP120 T10611144 FZRANO
0259720407004622025010904567+39928-074292FM-15+0025KMJX V0202905N008252200059N0160935N5-00675-01445101155ADDAA101000095GA1005+999999999GD10991+9999999GF100991999999999999999999KA1240M-00061KA2240N-00671MA1101125100825OC101035REMMET13001/08/25 23:56:02 METAR KMJX 090456Z 29016G20KT 10SM CLR M07/M14 A2986 RMK AO2 PK WND 29026/0420 SLP115 T10671144 410061067 FZRANO
0855720407004622025010904596+39928-074292SOD  +0025KMJX V020999999999999999999999999999+99999+99999999999ADDAA124000095KA1240M-00055KA2240N-00665MG1101134101124OE11240169929013185OE22240138629011165OE33240073899999995REMSOD73424 HR PRECIPITATION (IN): 0.00 24 HR MAX TEMP (F):31 24 HR MAX TEMP TIME (LST):1433 24 HR MIN TEMP (F):20 24 HR MIN TEMP TIME (LST):2359 AVERAGE STATION PRESSURE(D):29.863 MINIMUM SEA LEVEL PRESSURE:29.86 TIME OF OCCURRENCE:2358 PEAK WIND SPEED (MPH):38  PEAK WIND DIR (DEG):290 PEAK WIND TIME (LST):1318  FASTEST 2MIN SPEED (MPH):31 FASTEST 2MIN DIR (DEG):290 FASTEST 2MIN TIME (LST):1116 AVERAGE WIND SPEED (MPH):16.5 24 HR AVG TEMP (F):26 HEATING DEGREE DAYS: 39 COOLING DEGREE DAYS:  0 LATEST DAY MAX TEMP (0700-1900 LST): 31 LATEST NIGHT MIN TEMP(1900-0800 LST):21 HOURLY INCREMENTAL PRECIPITATION VALUES (IN):0.00 0.00 0.00 0.00 0.00 0.00 0.00 0.00 0.00 0.00 0.00 0.00 0.00 0.00 0.00 0.00 0.00 0.00 0.00 0.00 0.00 0.00 0.00 0.00
0281720407004622025010905567+39928-074292FM-15+0025KMJX V0202805N007752200059N0160935N5-00725-01445101105ADDAA101000095GA1005+999999999GD10991+9999999GF100991999999999999999999KA1060M-00391KA2060N-00721MA1101055100755MD1890139+9999OC101185REMMET13801/09/25 00:56:02 METAR KMJX 090556Z 28015G23KT 10SM CLR M07/M14 A2984 RMK AO2 PK WND 29028/0546 SLP110 T10721144 11039 21072 58013 FZRANO
0223720407004622025010906567+39928-074292FM-15+0025KMJX V0202905N009852200059N0160935N5-00725-01445101045ADDAA101000095GA1005+999999999GD10991+9999999GF100991999999999999999999MA1100985100685OC101395REMMET12001/09/25 01:56:02 METAR KMJX 090656Z 29019G27KT 10SM CLR M07/M14 A2982 RMK AO2 PK WND 27029/0616 SLP104 T10721144 FZRANO
0223720407004622025010907567+39928-074292FM-15+0025KMJX V0202905N007752200059N0160935N5-00725-01445101005ADDAA101000095GA1005+999999999GD10991+9999999GF100991999999999999999999MA1100955100655OC101295REMMET12001/09/25 02:56:02 METAR KMJX 090756Z 29015G25KT 10SM CLR M07/M14 A2981 RMK AO2 PK WND 28028/0723 SLP100 T10721144 FZRANO
0225720407004622025010908567+39928-074292FM-15+0025KMJX V0202805N008252200059N0160935N5-00785-01395100935ADDAA101000095GA1005+999999999GD10991+9999999GF100991999999999999999999MA1100885100585MD1890179+9999OC101245REMMET10801/09/25 03:56:02 METAR KMJX 090856Z 28016G24KT 10SM CLR M08/M14 A2979 RMK AO2 SLP093 T10781139 58017 FZRANO
0223720407004622025010909567+39928-074292FM-15+0025KMJX V0202905N007252200059N0160935N5-00725-01395100925ADDAA101000095GA1005+999999999GD10991+9999999GF100991999999999999999999MA1100885100585OC101035REMMET12001/09/25 04:56:02 METAR KMJX 090956Z 29014G20KT 10SM CLR M07/M14 A2979 RMK AO2 PK WND 28026/0933 SLP092 T10721139 FZRANO
0205720407004622025010910567+39928-074292FM-15+0025KMJX V0202805N009852200059N0160935N5-00725-01395100915ADDAA101000095GA1005+999999999GD10991+9999999GF100991999999999999999999MA1100885100585OC101245REMMET10201/09/25 05:56:02 METAR KMJX 091056Z 28019G24KT 10SM CLR M07/M14 A2979 RMK AO2 SLP091 T10721139 FZRANO
0281720407004622025010911567+39928-074292FM-15+0025KMJX V0202905N007252200059N0160935N5-00725-01445100985ADDAA101000095GA1005+999999999GD10991+9999999GF100991999999999999999999KA1060M-00721KA2060N-00781MA1100955100655MD1390049+9999OC101245REMMET13801/09/25 06:56:02 METAR KMJX 091156Z 29014G24KT 10SM CLR M07/M14 A2981 RMK AO2 PK WND 30030/1114 SLP098 T10721144 11072 21078 53004 FZRANO
0223720407004622025010912567+39928-074292FM-15+0025KMJX V0202905N010852200059N0160935N5-00675-01395100975ADDAA101000095GA1005+999999999GD10991+9999999GF100991999999999999999999MA1100915100625OC101345REMMET12001/09/25 07:56:02 METAR KMJX 091256Z 29021G26KT 10SM CLR M07/M14 A2980 RMK AO2 PK WND 30029/1223 SLP097 T10671139 FZRANO
0223720407004622025010913567+39928-074292FM-15+0025KMJX V0202905N010352200059N0160935N5-00565-01335101015ADDAA101000095GA1005+999999999GD10991+9999999GF100991999999999999999999MA1100985100685OC101605REMMET12001/09/25 08:56:02 METAR KMJX 091356Z 29020G31KT 10SM CLR M06/M13 A2982 RMK AO2 PK WND 29034/1342 SLP101 T10561133 FZRANO
0243720407004622025010914567+39928-074292FM-15+0025KMJX V0203105N008252200059N0160935N5-00445-01335101065ADDAA101000095GA1005+999999999GD10991+9999999GF100991999999999999999999MA1101025100725MD1390089+9999OC101605REMMET12601/09/25 09:56:02 METAR KMJX 091456Z 31016G31KT 10SM CLR M04/M13 A2983 RMK AO2 PK WND 30037/1435 SLP106 T10441133 53008 FZRANO
0223720407004622025010915567+39928-074292FM-15+0025KMJX V0203105N009352200059N0160935N5-00335-01225100985ADDAA101000095GA1005+999999999GD10991+9999999GF100991999999999999999999MA1100955100655OC101705REMMET12001/09/25 10:56:02 METAR KMJX 091556Z 31018G33KT 10SM CLR M03/M12 A2981 RMK AO2 PK WND 30038/1515 SLP098 T10331122 FZRANO
0223720407004622025010916567+39928-074292FM-15+0025KMJX V0203105N011352200059N0160935N5-00175-01175100945ADDAA101000095GA1005+999999999GD10991+9999999GF100991999999999999999999MA1100885100585OC101605REMMET12001/09/25 11:56:02 METAR KMJX 091656Z 31022G31KT 10SM CLR M02/M12 A2979 RMK AO2 PK WND 28038/1619 SLP094 T10171117 FZRANO
0281720407004622025010917567+39928-074292FM-15+0025KMJX V0203105N009352200059N0160935N5-00115-01115100895ADDAA101000095GA1005+999999999GD10991+9999999GF100991999999999999999999KA1060M-00111KA2060N-00721MA1100855100555MD1690169+9999OC101755REMMET13801/09/25 12:56:02 METAR KMJX 091756Z 31018G34KT 10SM CLR M01/M11 A2978 RMK AO2 PK WND 29039/1700 SLP089 T10111111 11011 21072 56016 FZRANO
0222720407004622025010918567+39928-074292FM-15+0025KMJX V0203005N009352200059N0160935N5+00005-01065100915ADDAA101000095GA1005+999999999GD10991+9999999GF100991999999999999999999MA1100885100585OC101905REMMET11901/09/25 13:56:02 METAR KMJX 091856Z 30018G37KT 10SM CLR 00/M11 A2979 RMK AO2 PK WND 31037/1850 SLP091 T00001106 FZRANO
0222720407004622025010919567+39928-074292FM-15+0025KMJX V0203005N014452200059N0160935N5+00065-01115100905ADDAA101000095GA1005+999999999GD10991+9999999GF100991999999999999999999MA1100855100555OC101705REMMET11901/09/25 14:56:02 METAR KMJX 091956Z 30028G33KT 10SM CLR 01/M11 A2978 RMK AO2 PK WND 29037/1912 SLP090 T00061111 FZRANO
0216720407004622025010920566+39928-074292FM-15+0025KMJX V0203005N008252200059N0160935N5+00065-01065100975ADDAA101000095GA1005+999999999GD10991+9999999MA1100915100625MD1390079+9999OC101705REMMET12501/09/25 15:56:02 METAR KMJX 092056Z 30016G33KT 10SM CLR 01/M11 A2980 RMK AO2 PK WND 30035/2022 SLP097 T00061106 53007 FZRANO
0222720407004622025010921567+39928-074292FM-15+0025KMJX V0203005N007252200059N0160935N5+00005-00945101005ADDAA101000095GA1005+999999999GD10991+9999999GF100991999999999999999999MA1100955100655OC101395REMMET11901/09/25 16:56:02 METAR KMJX 092156Z 30014G27KT 10SM CLR 00/M09 A2981 RMK AO2 PK WND 30032/2059 SLP100 T00001094 FZRANO
0223720407004622025010922567+39928-074292FM-15+0025KMJX V0203005N009852200059N0160935N5-00065-00895101035ADDAA101000095GA1005+999999999GD10991+9999999GF100991999999999999999999MA1100985100685OC101345REMMET12001/09/25 17:56:02 METAR KMJX 092256Z 30019G26KT 10SM CLR M01/M09 A2982 RMK AO2 PK WND 28029/2240 SLP103 T10061089 FZRANO
