0179720407004622024010100564+39933-074300FM-15+002599999V0209999C000010304819N016093199+00001-00171101741ADDGD13991+0304899GE19AGL   +99999+99999GF199999999999030481999999MA1101691999999REMMET089METAR KMJX 010056Z AUTO 00000KT 10SM BKN100 00/M02 A3003 RMK AO2 SLP174 T00001017 FZRANO=
0199720407004622024010102564+39933-074300FM-15+002599999V0209999C000010146319N016093199+00001-00171101731ADDGD14991+0146319GE19AGL   +99999+99999GF199999999999014631999999MA1101691999999MD1510001+9999REMMET095METAR KMJX 010256Z AUTO 00000KT 10SM OVC048 00/M02 A3003 RMK AO2 SLP173 T00001017 55000 FZRANO=
0179720407004622024010103564+39933-074300FM-15+002599999V0209999C000010146319N016093199+00061-00111101771ADDGD14991+0146319GE19AGL   +99999+99999GF199999999999014631999999MA1101731999999REMMET089METAR KMJX 010356Z AUTO 00000KT 10SM OVC048 01/M01 A3004 RMK AO2 SLP177 T00061011 FZRANO=
0237720407004622024010104564+39933-074300FM-15+002599999V0209999C000010152419N016093199+00171-00111101741ADDGD13991+0152419GD24991+0213419GE19AGL   +99999+99999GF199999999999015241999999KA1240M+00611KA2240N-00331MA1101691999999REMMET106METAR KMJX 010456Z AUTO 00000KT 10SM BKN050 OVC070 02/M01 A3003 RMK AO2 SLP174 T00171011 400611033 FZRANO=
0217720407004622024010113564+39933-074300FM-15+002599999V0203601N001512200059N016093199+00441+00111101741ADDGD11991+0243819GD22991+0365819GE19AGL   +99999+99999GF104995999999024381999999MA1101691999999REMMET093METAR KMJX 011356Z AUTO 36003KT 10SM FEW080 SCT120 04/01 A3003 RMK AO2 SLP174 T00440011 TSNO=EQDD01      0ADE726
0237720407004622024010118567+39928-074292FM-15+0025KMJX V0200705N00155009755MN0160935N5+00835+00175101645ADDGA1075+009755999GA2085+011895999GD13991+0097559GD24991+0118959GE19AGL   +99999+99999GF199999999999009751999999MA1101595101295REMMET10001/01/24 13:56:02 METAR KMJX 011856Z 07003KT 10SM BKN032 OVC039 08/02 A3000 RMK AO2 SLP164 T00830017
0237720407004622024010201567+39928-074292FM-15+0025KMJX V0203405N00265022865MN0160935N5+00445+00115101865ADDGA1075+022865999GA2085+030485999GD13991+0228659GD24991+0304859GE19AGL   +99999+99999GF199999999999022861999999MA1101835101535REMMET10001/01/24 20:56:01 METAR KMJX 020156Z 34005KT 10SM BKN075 OVC100 04/01 A3007 RMK AO2 SLP186 T00440011
0240720407004622024010205567+39928-074292FM-15+0025KMJX V0203305N002152200059N0160935N5+00005-00285101905ADDGA1005+999999999GD10991+9999999GF100991999999999999999999KA1060M+00441KA2060N+00001MA1101865101565MD1190019+9999REMMET11601/02/24 00:56:02 METAR KMJX 020556Z 33004KT 10SM CLR 00/M03 A3008 RMK AO2 SLP190 T00001028 10044 20000 51001 FZRANO
0188720407004622024010206567+39928-074292FM-15+0025KMJX V0203405N002652200059N0160935N5-00115-00285101915ADDGA1005+999999999GD10991+9999999GF100991999999999999999999MA1101865101565REMMET10401/02/24 01:56:02 METAR KMJX 020656Z 34005KT 10SM CLR M01/M03 A3008 RMK AO2 SLP191 T10111028 FZRANO TSNO
0183720407004622024010207567+39928-074292FM-15+0025KMJX V0203405N001552200059N0160935N5-00175-00335101955ADDGA1005+999999999GD10991+9999999GF100991999999999999999999MA1101905101595REMMET09901/02/24 02:56:02 METAR KMJX 020756Z 34003KT 10SM CLR M02/M03 A3009 RMK AO2 SLP195 T10171033 FZRANO
0183720407004622024010212567+39928-074292FM-15+0025KMJX V0203205N002152200059N0160935N5-00285-00505102115ADDGA1005+999999999GD10991+9999999GF100991999999999999999999MA1102075101765REMMET09901/02/24 07:56:02 METAR KMJX 021256Z 32004KT 10SM CLR M03/M05 A3014 RMK AO2 SLP211 T10281050 FZRANO
0183720407004622024010213567+39928-074292FM-15+0025KMJX V0203405N004152200059N0160935N5-00115-00505102145ADDGA1005+999999999GD10991+9999999GF100991999999999999999999MA1102105101805REMMET09901/02/24 08:56:02 METAR KMJX 021356Z 34008KT 10SM CLR M01/M05 A3015 RMK AO2 SLP214 T10111050 FZRANO
0202720407004622024010214567+39928-074292FM-15+0025KMJX V0203205N005152200059N0160935N5+00065-00565102165ADDGA1005+999999999GD10991+9999999GF100991999999999999999999MA1102105101805MD1190099+9999REMMET10401/02/24 09:56:02 METAR KMJX 021456Z 32010KT 10SM CLR 01/M06 A3015 RMK AO2 SLP216 T00061056 51009 FZRANO
0125720407004622024011013567+39928-074292FM-15+0025KMJX V0202405N005759999999N0160935N5+00835+00445999999REMMET08101/10/24 08:56:02 METAR KMJX 101356Z 24011KT 10SM 08/04 RMK AO2 SLPNO T00830044 $EQDR01      7SKY009R02      7GAS009
0247720407004622024011014567+39928-074292FM-15+0025KMJX V0202605N009852200059N0160935N5+01005+00175999999ADDGA1025+014025999GD11991+0140259GE19AGL   +99999+99999GF102995999999014021999999OC101345OD149901331270REMMET11501/10/24 09:56:02 METAR KMJX 101456Z 26019G26KT 10SM FEW046 10/02 RMK AO2 PK WND 27026/1454 SLPNO 6//// T01000017 $EQDD01      0ADE726
0280720407004622024011015567+39928-074292FM-15+0025KMJX V0202605N009852200059N0160935N5+00945-00115999999ADDGA1045+015245999GA2045+018295999GD12991+0152459GD22991+0182959GE19AGL   +99999+99999GF104995999999015241999999OC101605OD149901751250REMMET11701/10/24 10:56:02 METAR KMJX 101556Z 26019G31KT 10SM SCT050 SCT060 09/M01 RMK AO2 PK WND 25034/1536 SLPNO T00941011 $EQDD01      0ADE726
0198720407004622024011016567+39928-074292FM-15+0025KMJX V0202705N009852200059N0160935N5+01005-00175999999ADDGA1005+999999999GD10991+9999999GF100991999999999999999999OC101495OD149901541270REMMET10701/10/24 11:56:02 METAR KMJX 101656Z 27019G29KT 10SM CLR 10/M02 RMK AO2 PK WND 27030/1612 SLPNO T01001017 $
0229720407004622024011017567+39928-074292FM-15+0025KMJX V0202605N01185016765MN0160935N5+00945-00225999999ADDGA1085+016765999GD14991+0167659GE19AGL   +99999+99999GF199999999999016761999999OC101655OD149901641240REMMET11601/10/24 12:56:02 METAR KMJX 101756Z 26023G32KT 10SM OVC055 09/M02 RMK AO2 PK WND 24032/1747 SLPNO 6//// T00941022 $
0223720407004622024011018567+39928-074292FM-15+0025KMJX V0202605N00885016765MN0160935N5+00895-00225999999ADDGA1085+016765999GD14991+0167659GE19AGL   +99999+99999GF199999999999016761999999OC101395OD149901591250REMMET11001/10/24 13:56:02 METAR KMJX 101856Z 26017G27KT 10SM OVC055 09/M02 RMK AO2 PK WND 25031/1831 SLPNO T00891022 $
0223720407004622024011019567+39928-074292FM-15+0025KMJX V0202505N00775018295MN0160935N5+00945-00175999999ADDGA1085+018295999GD14991+0182959GE19AGL   +99999+99999GF199999999999018291999999OC101345OD149901331240REMMET11001/10/24 14:56:02 METAR KMJX 101956Z 25015G26KT 10SM OVC060 09/M02 RMK AO2 PK WND 24026/1953 SLPNO T00941017 $
0223720407004622024011020567+39928-074292FM-15+0025KMJX V0202605N00775018295MN0160935N5+00945-00175999999ADDGA1085+018295999GD14991+0182959GE19AGL   +99999+99999GF199999999999018291999999OC101185OD149901441280REMMET11001/10/24 15:56:02 METAR KMJX 102056Z 26015G23KT 10SM OVC060 09/M02 RMK AO2 PK WND 28028/2035 SLPNO T00941017 $
0223720407004622024011021567+39928-074292FM-15+0025KMJX V0202505N00625018295MN0160935N5+00895-00225999999ADDGA1085+018295999GD14991+0182959GE19AGL   +99999+99999GF199999999999018291999999OC101345OD149901691260REMMET11001/10/24 16:56:02 METAR KMJX 102156Z 25012G26KT 10SM OVC060 09/M02 RMK AO2 PK WND 26033/2105 SLPNO T00891022 $
0191720407004622024011022567+39928-074292FM-15+0025KMJX V0202505N00675018295MN0160935N5+00835-00225999999ADDGA1085+018295999GD14991+0182959GE19AGL   +99999+99999GF199999999999018291999999OC100935REMMET09201/10/24 17:56:02 METAR KMJX 102256Z 25013G18KT 10SM OVC060 08/M02 RMK AO2 SLPNO T00831022 $
0229720407004622024011023567+39928-074292FM-15+0025KMJX V0202605N00825018295MN0160935N5+00835-00225999999ADDGA1085+018295999GD14991+0182959GE19AGL   +99999+99999GF199999999999018291999999KA1060M+00941KA2060N+00831OC101185REMMET10401/10/24 18:56:02 METAR KMJX 102356Z 26016G23KT 10SM OVC060 08/M02 RMK AO2 SLPNO T00831022 10094 20083 $
0191720407004622024011100567+39928-074292FM-15+0025KMJX V0202505N00625018295MN0160935N5+00785-00225999999ADDGA1085+018295999GD14991+0182959GE19AGL   +99999+99999GF199999999999018291999999OC100885REMMET09201/10/24 19:56:01 METAR KMJX 110056Z 25012G17KT 10SM OVC060 08/M02 RMK AO2 SLPNO T00781022 $
0191720407004622024011101567+39928-074292FM-15+0025KMJX V0202705N00625016765MN0160935N5+00785-00225999999ADDGA1085+016765999GD14991+0167659GE19AGL   +99999+99999GF199999999999016761999999OC100985REMMET09201/10/24 20:56:01 METAR KMJX 110156Z 27012G19KT 10SM OVC055 08/M02 RMK AO2 SLPNO T00781022 $
0191720407004622024011102567+39928-074292FM-15+0025KMJX V0202805N00675015245MN0160935N5+00725-00225999999ADDGA1085+015245999GD14991+0152459GE19AGL   +99999+99999GF199999999999015241999999OC100885REMMET09201/10/24 21:56:01 METAR KMJX 110256Z 28013G17KT 10SM OVC050 07/M02 RMK AO2 SLPNO T00721022 $
0180720407004622024011103567+39928-074292FM-15+0025KMJX V0202605N00265013415MN0160935N5+00725-00175999999ADDGA1085+013415999GD14991+0134159GE19AGL   +99999+99999GF199999999999013411999999REMMET08901/10/24 22:56:01 METAR KMJX 110356Z 26005KT 10SM OVC044 07/M02 RMK AO2 SLPNO T00721017 $
0227720407004622024011104567+39928-074292FM-15+0025KMJX V0202705N00465014025MN0160935N5+00675-00175999999ADDGA1085+014025999GD14991+0140259GE19AGL   +99999+99999GF199999999999014021999999KA1240M+01061KA2240N+00671OC100825REMMET10201/10/24 23:56:01 METAR KMJX 110456Z 27009G16KT 10SM OVC046 07/M02 RMK AO2 SLPNO T00671017 401060067 $
0218720407004622024011105567+39928-074292FM-15+0025KMJX V0202805N00415013415MN0160935N5+00615-00225999999ADDGA1085+013415999GD14991+0134159GE19AGL   +99999+99999GF199999999999013411999999KA1060M+00831KA2060N+00611REMMET10101/11/24 00:56:01 METAR KMJX 110556Z 28008KT 10SM OVC044 06/M02 RMK AO2 SLPNO T00611022 10083 20061 $
0191720407004622024011106567+39928-074292FM-15+0025KMJX V0202805N00465013415MN0160935N5+00615-00285999999ADDGA1085+013415999GD14991+0134159GE19AGL   +99999+99999GF199999999999013411999999OC100885REMMET09201/11/24 01:56:01 METAR KMJX 110656Z 28009G17KT 10SM OVC044 06/M03 RMK AO2 SLPNO T00611028 $
0180720407004622024011107567+39928-074292FM-15+0025KMJX V0202805N00315012805MN0160935N5+00565-00225999999ADDGA1085+012805999GD14991+0128059GE19AGL   +99999+99999GF199999999999012801999999REMMET08901/11/24 02:56:01 METAR KMJX 110756Z 28006KT 10SM OVC042 06/M02 RMK AO2 SLPNO T00561022 $
0199720407004622024011108567+39928-074292FM-15+0025KMJX V0203005N003152200059N0160935N5+00445-00285999999ADDGA1045+012195999GD12991+0121959GE19AGL   +99999+99999GF104995999999012191999999REMMET08901/11/24 03:56:01 METAR KMJX 110856Z 30006KT 10SM SCT040 04/M03 RMK AO2 SLPNO T00441028 $EQDD01      0ADE726
0187720407004622024011109567+39928-074292FM-15+0025KMJX V0209999C00005013415MN0160935N5+00175-00335999999ADDGA1075+013415999GD13991+0134159GE19AGL   +99999+99999GF199999999999013411999999REMMET09601/11/24 04:56:01 METAR KMJX 110956Z 00000KT 10SM BKN044 02/M03 RMK AO2 SLPNO T00171033 FZRANO $
0187720407004622024011110567+39928-074292FM-15+0025KMJX V0209999C00005012805MN0160935N5+00005-00285999999ADDGA1075+012805999GD13991+0128059GE19AGL   +99999+99999GF199999999999012801999999REMMET09601/11/24 05:56:02 METAR KMJX 111056Z 00000KT 10SM BKN042 00/M03 RMK AO2 SLPNO T00001028 FZRANO $
0243720407004622024011111567+39928-074292FM-15+0025KMJX V0209999C00005012805MN0160935N5-00065-00285999999ADDAA124999919GA1085+012805999GD14991+0128059GE19AGL   +99999+99999GF199999999999012801999999KA1060M+00611KA2060N-00111REMMET11501/11/24 06:56:02 METAR KMJX 111156Z 00000KT 10SM OVC042 M01/M03 RMK AO2 SLPNO 7//// T10061028 10061 21011 FZRANO $
0187720407004622024011112567+39928-074292FM-15+0025KMJX V0209999C00005012805MN0160935N5+00115-00115999999ADDGA1085+012805999GD14991+0128059GE19AGL   +99999+99999GF199999999999012801999999REMMET09601/11/24 07:56:02 METAR KMJX 111256Z 00000KT 10SM OVC042 01/M01 RMK AO2 SLPNO T00111011 FZRANO $
0180720407004622024011113567+39928-074292FM-15+0025KMJX V0202305N00265012195MN0160935N5+00505-00175999999ADDGA1075+012195999GD13991+0121959GE19AGL   +99999+99999GF199999999999012191999999REMMET08901/11/24 08:56:02 METAR KMJX 111356Z 23005KT 10SM BKN040 05/M02 RMK AO2 SLPNO T00501017 $
0199720407004622024011114567+39928-074292FM-15+0025KMJX V0202605N004652200059N0160935N5+00675-00285999999ADDGA1025+011585999GD11991+0115859GE19AGL   +99999+99999GF102995999999011581999999REMMET08901/11/24 09:56:02 METAR KMJX 111456Z 26009KT 10SM FEW038 07/M03 RMK AO2 SLPNO T00671028 $EQDD01      0ADE726
0191720407004622024011115567+39928-074292FM-15+0025KMJX V0202405N00625014025MN0160935N5+00785-00285999999ADDGA1075+014025999GD13991+0140259GE19AGL   +99999+99999GF199999999999014021999999OC100885REMMET09201/11/24 10:56:02 METAR KMJX 111556Z 24012G17KT 10SM BKN046 08/M03 RMK AO2 SLPNO T00781028 $
0191720407004622024011116567+39928-074292FM-15+0025KMJX V0202605N00515013415MN0160935N5+00835-00225999999ADDGA1085+013415999GD14991+0134159GE19AGL   +99999+99999GF199999999999013411999999OC100825REMMET09201/11/24 11:56:02 METAR KMJX 111656Z 26010G16KT 10SM OVC044 08/M02 RMK AO2 SLPNO T00831022 $
0237720407004622024011117567+39928-074292FM-15+0025KMJX V0202405N005152200059N0160935N5+00895-00225999999ADDGA1025+013415999GD11991+0134159GE19AGL   +99999+99999GF102995999999013411999999KA1060M+00891KA2060N-00061REMMET10101/11/24 12:56:02 METAR KMJX 111756Z 24010KT 10SM FEW044 09/M02 RMK AO2 SLPNO T00891022 10089 21006 $EQDD01      0ADE726
0166720407004622024011118567+39928-074292FM-15+0025KMJX V0202405N004652200059N0160935N5+00895-00285999999ADDGA1005+999999999GD10991+9999999GF100991999999999999999999OC100885REMMET08901/11/24 13:56:02 METAR KMJX 111856Z 24009G17KT 10SM CLR 09/M03 RMK AO2 SLPNO T00891028 $
0155720407004622024011119567+39928-074292FM-15+0025KMJX V0202505N004652200059N0160935N5+00945-00285999999ADDGA1005+999999999GD10991+9999999GF100991999999999999999999REMMET08601/11/24 14:56:02 METAR KMJX 111956Z 25009KT 10SM CLR 09/M03 RMK AO2 SLPNO T00941028 $
0155720407004622024011120567+39928-074292FM-15+0025KMJX V0209999V003152200059N0160935N5+00895-00225999999ADDGA1005+999999999GD10991+9999999GF100991999999999999999999REMMET08601/11/24 15:56:02 METAR KMJX 112056Z VRB06KT 10SM CLR 09/M02 RMK AO2 SLPNO T00891022 $
0155720407004622024011121567+39928-074292FM-15+0025KMJX V0209999C000052200059N0160935N5+00615-00175999999ADDGA1005+999999999GD10991+9999999GF100991999999999999999999REMMET08601/11/24 16:56:02 METAR KMJX 112156Z 00000KT 10SM CLR 06/M02 RMK AO2 SLPNO T00611017 $
0162720407004622024011122567+39928-074292FM-15+0025KMJX V0202105N002152200059N0160935N5+00175-00225999999ADDGA1005+999999999GD10991+9999999GF100991999999999999999999REMMET09301/11/24 17:56:02 METAR KMJX 112256Z 21004KT 10SM CLR 02/M02 RMK AO2 SLPNO T00171022 FZRANO $
0200720407004622024011123567+39928-074292FM-15+0025KMJX V0209999C000052200059N0160935N5+00065-00175999999ADDGA1005+999999999GD10991+9999999GF100991999999999999999999KA1060M+00941KA2060N+00001REMMET10501/11/24 18:56:02 METAR KMJX 112356Z 00000KT 10SM CLR 01/M02 RMK AO2 SLPNO T00061017 10094 20000 FZRANO $
0162720407004622024011200567+39928-074292FM-15+0025KMJX V0201705N001552200059N0160935N5+00115-00115999999ADDGA1005+999999999GD10991+9999999GF100991999999999999999999REMMET09301/11/24 19:56:01 METAR KMJX 120056Z 17003KT 10SM CLR 01/M01 RMK AO2 SLPNO T00111011 FZRANO $
0163720407004622024011201567+39928-074292FM-15+0025KMJX V0209999C000052200059N0160935N5-00115-00285999999ADDGA1005+999999999GD10991+9999999GF100991999999999999999999REMMET09401/11/24 20:56:01 METAR KMJX 120156Z 00000KT 10SM CLR M01/M03 RMK AO2 SLPNO T10111028 FZRANO $
0207720407004622024011202567+39928-074292FM-15+0025KMJX V0202205N002152200059N0160935N5-00175-00285999999ADDGA1025+022865999GD11991+0228659GE19AGL   +99999+99999GF102995999999022861999999REMMET09701/11/24 21:56:01 METAR KMJX 120256Z 22004KT 10SM FEW075 M02/M03 RMK AO2 SLPNO T10171028 FZRANO $EQDD01      0ADE726
0187720407004622024011203567+39928-074292FM-15+0025KMJX V0202405N00265021345MN0160935N5+00115-00065999999ADDGA1075+021345999GD13991+0213459GE19AGL   +99999+99999GF199999999999021341999999REMMET09601/11/24 22:56:01 METAR KMJX 120356Z 24005KT 10SM BKN070 01/M01 RMK AO2 SLPNO T00111006 FZRANO $
0242720407004622024011204567+39928-074292FM-15+0025KMJX V0202305N002652200059N0160935N5+00065-00065999999ADDGA1025+019815999GD11991+0198159GE19AGL   +99999+99999GF102995999999019811999999KA1240M+00941KA2240N-00221REMMET10601/11/24 23:56:01 METAR KMJX 120456Z 23005KT 10SM FEW065 01/M01 RMK AO2 SLPNO T00061006 400941022 FZRANO $EQDD01      0ADE726
0199720407004622024011205567+39928-074292FM-15+0025KMJX V0202705N003652200059N0160935N5+00225+00065999999ADDGA1005+999999999GD10991+9999999GF100991999999999999999999KA1060M+00221KA2060N-00221REMMET10401/12/24 00:56:01 METAR KMJX 120556Z 27007KT 10SM CLR 02/01 RMK AO2 SLPNO T00220006 10022 21022 FZRANO $
0162720407004622024011206567+39928-074292FM-15+0025KMJX V0202605N003152200059N0160935N5+00225-00065999999ADDGA1005+999999999GD10991+9999999GF100991999999999999999999REMMET09301/12/24 01:56:01 METAR KMJX 120656Z 26006KT 10SM CLR 02/M01 RMK AO2 SLPNO T00221006 FZRANO $
0162720407004622024011207567+39928-074292FM-15+0025KMJX V0202805N003152200059N0160935N5+00065-00175999999ADDGA1005+999999999GD10991+9999999GF100991999999999999999999REMMET09301/12/24 02:56:01 METAR KMJX 120756Z 28006KT 10SM CLR 01/M02 RMK AO2 SLPNO T00061017 FZRANO $
0162720407004622024011208567+39928-074292FM-15+0025KMJX V0202905N002652200059N0160935N5+00065-00175999999ADDGA1005+999999999GD10991+9999999GF100991999999999999999999REMMET09301/12/24 03:56:01 METAR KMJX 120856Z 29005KT 10SM CLR 01/M02 RMK AO2 SLPNO T00061017 FZRANO $
0163720407004622024011209567+39928-074292FM-15+0025KMJX V0209999C000052200059N0160935N5-00175-00395999999ADDGA1005+999999999GD10991+9999999GF100991999999999999999999REMMET09401/12/24 04:56:01 METAR KMJX 120956Z 00000KT 10SM CLR M02/M04 RMK AO2 SLPNO T10171039 FZRANO $
0163720407004622024011210567+39928-074292FM-15+0025KMJX V0209999C000052200059N0160935N5-00335-00445999999ADDGA1005+999999999GD10991+9999999GF100991999999999999999999REMMET09401/12/24 05:56:02 METAR KMJX 121056Z 00000KT 10SM CLR M03/M04 RMK AO2 SLPNO T10331044 FZRANO $
0201720407004622024011211567+39928-074292FM-15+0025KMJX V0209999C000052200059N0160935N5-00445-00505999999ADDGA1005+999999999GD10991+9999999GF100991999999999999999999KA1060M+00281KA2060N-00441REMMET10601/12/24 06:56:02 METAR KMJX 121156Z 00000KT 10SM CLR M04/M05 RMK AO2 SLPNO T10441050 10028 21044 FZRANO $
0163720407004622024011212567+39928-074292FM-15+0025KMJX V0209999C000052200059N0160935N5-00335-00335999999ADDGA1005+999999999GD10991+9999999GF100991999999999999999999REMMET09401/12/24 07:56:02 METAR KMJX 121256Z 00000KT 10SM CLR M03/M03 RMK AO2 SLPNO T10331033 FZRANO $
0154720407004622024011213567+39928-074292FM-15+0025KMJX V0209999C000052200059N0160935N5+00395+00175999999ADDGA1005+999999999GD10991+9999999GF100991999999999999999999REMMET08501/12/24 08:56:02 METAR KMJX 121356Z 00000KT 10SM CLR 04/02 RMK AO2 SLPNO T00390017 $
0155720407004622024011214567+39928-074292FM-15+0025KMJX V0203505N001552200059N0160935N5+00675-00175999999ADDGA1005+999999999GD10991+9999999GF100991999999999999999999REMMET08601/12/24 09:56:02 METAR KMJX 121456Z 35003KT 10SM CLR 07/M02 RMK AO2 SLPNO T00671017 $
0155720407004622024011215567+39928-074292FM-15+0025KMJX V0209999C000052200059N0160935N5+00835-00225999999ADDGA1005+999999999GD10991+9999999GF100991999999999999999999REMMET08601/12/24 10:56:02 METAR KMJX 121556Z 00000KT 10SM CLR 08/M02 RMK AO2 SLPNO T00831022 $
0155720407004622024011216567+39928-074292FM-15+0025KMJX V0201105N003152200059N0160935N5+00945-00285999999ADDGA1005+999999999GD10991+9999999GF100991999999999999999999REMMET08601/12/24 11:56:02 METAR KMJX 121656Z 11006KT 10SM CLR 09/M03 RMK AO2 SLPNO T00941028 $
0193720407004622024011217567+39928-074292FM-15+0025KMJX V0201105N003652200059N0160935N5+00895-00225999999ADDGA1005+999999999GD10991+9999999GF100991999999999999999999KA1060M+01001KA2060N-00441REMMET09801/12/24 12:56:02 METAR KMJX 121756Z 11007KT 10SM CLR 09/M02 RMK AO2 SLPNO T00891022 10100 21044 $
0154720407004622024011218567+39928-074292FM-15+0025KMJX V0201105N004152200059N0160935N5+00835+00005999999ADDGA1005+999999999GD10991+9999999GF100991999999999999999999REMMET08501/12/24 13:56:02 METAR KMJX 121856Z 11008KT 10SM CLR 08/00 RMK AO2 SLPNO T00830000 $
0154720407004622024011219567+39928-074292FM-15+0025KMJX V0201105N003652200059N0160935N5+00785+00175999999ADDGA1005+999999999GD10991+9999999GF100991999999999999999999REMMET08501/12/24 14:56:02 METAR KMJX 121956Z 11007KT 10SM CLR 08/02 RMK AO2 SLPNO T00780017 $
0154720407004622024011220567+39928-074292FM-15+0025KMJX V0201205N004152200059N0160935N5+00785+00175999999ADDGA1005+999999999GD10991+9999999GF100991999999999999999999REMMET08501/12/24 15:56:02 METAR KMJX 122056Z 12008KT 10SM CLR 08/02 RMK AO2 SLPNO T00780017 $
0154720407004622024011221567+39928-074292FM-15+0025KMJX V0201305N002652200059N0160935N5+00675+00225999999ADDGA1005+999999999GD10991+9999999GF100991999999999999999999REMMET08501/12/24 16:56:02 METAR KMJX 122156Z 13005KT 10SM CLR 07/02 RMK AO2 SLPNO T00670022 $
0154720407004622024011222567+39928-074292FM-15+0025KMJX V0200805N003152200059N0160935N5+00675+00335999999ADDGA1005+999999999GD10991+9999999GF100991999999999999999999REMMET08501/12/24 17:56:02 METAR KMJX 122256Z 08006KT 10SM CLR 07/03 RMK AO2 SLPNO T00670033 $
0217720407004622024011223567+39928-074292FM-15+0025KMJX V0209999V00265014335MN0160935N5+00785+00395999999ADDGA1075+014335999GD13991+0143359GE19AGL   +99999+99999GF199999999999014331999999KA1060M+00891KA2060N+00671REMMET10001/12/24 18:56:02 METAR KMJX 122356Z VRB05KT 10SM BKN047 08/04 RMK AO2 SLPNO T00780039 10089 20067 $
0179720407004622024011300567+39928-074292FM-15+0025KMJX V0201205N00365013725MN0160935N5+00835+00505999999ADDGA1075+013725999GD13991+0137259GE19AGL   +99999+99999GF199999999999013721999999REMMET08801/12/24 19:56:01 METAR KMJX 130056Z 12007KT 10SM BKN045 08/05 RMK AO2 SLPNO T00830050 $
0266720407004622024011301567+39928-074292FM-15+0025KMJX V0201205N00575016765MN0160935N5+00895+00505999999ADDGA1045+011895999GA2045+014335999GA3075+016765999GD12991+0118959GD22991+0143359GD33991+0167659GE19AGL   +99999+99999GF199999999999011891999999OC100775REMMET10501/12/24 20:56:01 METAR KMJX 130156Z 12011G15KT 10SM SCT039 SCT047 BKN055 09/05 RMK AO2 SLPNO T00890050 $
0302720407004622024011302567+39928-074292FM-15+0025KMJX V0200905N00415010065MN0160935N5+00895+00725999999ADDAA101000595AA203000591AU120020015AW1625GA1075+010065999GA2085+015245999GD13991+0100659GD24991+0152459GE19AGL   +99999+99999GF199999999999010061999999MW1655REMMET11601/12/24 21:56:01 METAR KMJX 130256Z 09008KT 10SM RA BKN033 OVC050 09/07 RMK AO2 RAB38 SLPNO P0002 60002 T00890072 $EQDQ01  00058PRCP03
0309720407004622024011303567+39928-074292FM-15+0025KMJX V0201105N00575010975MN0112655N5+00945+00895999999ADDAA101002095AU110020015AW1615GA1075+010975999GA2075+013115999GA3085+018295999GD13991+0109759GD23991+0131159GD34991+0182959GE19AGL   +99999+99999GF199999999999010971999999MW1615OC100775REMMET11401/12/24 22:56:01 METAR KMJX 130356Z 11011G15KT 7SM -RA BKN036 BKN043 OVC060 09/09 RMK AO2 SLPNO P0008 T00940089 $
0293720407004622024011304177+39928-074292FM-15+0025KMJX V0201205N00465009455MN0128755N5+01005+00905999999ADDAA101000895AU110020015AW1615GA1025+002745999GA2045+007625999GA3085+009455999GD11991+0027459GD22991+0076259GD34991+0094559GE19AGL   +99999+99999GF199999999999002741999999MW1615OC100885REMMET09801/12/24 23:17:02 METAR KMJX 130417Z 12009G17KT 8SM -RA FEW009 SCT025 OVC031 10/09 RMK AO2 P0003 $
0312720407004622024011304257+39928-074292FM-15+0025KMJX V0201005V00365007015MN0096565N5+01005+00905999999ADDAA101001095AU120020015AU200001015AW1105AW2625GA1025+002745999GA2075+007015999GA3085+008845999GD11991+0027459GD23991+0070159GD34991+0088459GE19AGL   +99999+99999GF199999999999002741999999MW1655OC100825REMMET10001/12/24 23:25:02 METAR KMJX 130425Z 10007G16KT 6SM RA BR FEW009 BKN023 OVC029 10/09 RMK AO2 P0004 $
0339720407004622024011304567+39928-074292FM-15+0025KMJX V0201105N00675002745MN0096565N5+01065+01005999999ADDAA101002595AU110020015AU200001015AW1105AW2615GA1075+002745999GA2085+006405999GD13991+0027451GD24991+0064059GE19AGL   +99999+99999GF199999999999002741999999KA1240M+01061KA2240N-00441MW1615OC100985REMMET13201/12/24 23:56:02 METAR KMJX 130456Z 11013G19KT 6SM -RA BR BKN009 OVC021 11/10 RMK AO2 CIG 007V013 SLPNO P0010 T01060100 401061044 $
002772040700462202401130459O+39928-074292SOD  +0025KMJX V020999999999999999999999999999+99999+99999999999ADDAT1AU16RA  5AT2AU13BR  5
0287720407004622024011305307+39928-074292FM-15+0025KMJX V0201205N00775001525MN0064375N5+01105+01005999999ADDAA101003031AU130020015AU200001015AW1105AW2635GA1075+001525999GA2085+002745999GD13991+0015251GD24991+0027459GE19AGL   +99999+99999GF199999999999001521999999MW1635OC101245REMMET10601/13/24 00:30:02 METAR KMJX 130530Z 12015G24KT 4SM +RA BR BKN005 OVC009 11/10 RMK AO2 CIG 004V007 P0012 $
0327720407004622024011305567+39928-074292FM-15+0025KMJX V0201305N00625001525MN0080475N5+01115+01065999999ADDAA101006695AA206011791AU130020015AU200001015AW1105AW2635GA1085+001525999GD14991+0015259GE19AGL   +99999+99999GF199999999999001521999999KA1060M+01111KA2060N+00781MW1635OC101035REMMET12101/13/24 00:56:02 METAR KMJX 130556Z 13012G20KT 5SM +RA BR OVC005 11/11 RMK AO2 SLPNO P0026 60046 T01110106 10111 20078 $EQDQ01  01168PRCP06
0265720407004622024011306567+39928-074292FM-15+0025KMJX V0201405N00415001525MN0064375N5+01175+01175999999ADDAA101010295AU130020015AU200001015AW1105AW2635GA1085+001525999GD14991+0015251GE19AGL   +99999+99999GF199999999999001521999999MW1635OC100985REMMET11501/13/24 01:56:02 METAR KMJX 130656Z 14008G19KT 4SM +RA BR OVC005 12/12 RMK AO2 CIG 004V008 SLPNO P0040 T01170117 $
0254720407004622024011307437+39928-074292FM-15+0025KMJX V0201805N00465003965MN0128755N5+01205+01205999999ADDAA101002895AU120020015AW1625GA1045+001525999GA2085+003965999GD12991+0015259GD24991+0039659GE19AGL   +99999+99999GF199999999999001521999999MW1655OC101035REMMET09001/13/24 02:43:02 METAR KMJX 130743Z 18009G20KT 8SM RA SCT005 OVC013 12/12 RMK AO2 P0011 $
0272720407004622024011307567+39928-074292FM-15+0025KMJX V0201605N00825004275MN0160935N5+01335+01285999999ADDAA101003695AU110020015AW1615GA1025+002445999GA2085+004275999GD11991+0024459GD24991+0042759GE19AGL   +99999+99999GF199999999999002441999999MW1615OC101085REMMET10801/13/24 02:56:02 METAR KMJX 130756Z 16016G21KT 10SM -RA FEW008 OVC014 13/13 RMK AO2 SLPNO P0014 T01330128 $
0300720407004622024011308217+39928-074292FM-15+0025KMJX V0201805N00775002445MN0160935N5+01405+01405999999ADDAA101000395AU110020015AW1615GA1075+002445999GA2085+003965999GD13991+0024451GD24991+0039659GE19AGL   +99999+99999GF199999999999002441999999MW1615OC101185OD149901331160REMMET12201/13/24 03:21:02 METAR KMJX 130821Z 18015G23KT 10SM -RA BKN008 OVC013 14/14 RMK AO2 PK WND 16026/0811 CIG 005V011 P0001 $
0287720407004622024011308567+39928-074292FM-15+0025KMJX V0201805N00675001835MN0128755N5+01395+01395999999ADDAA101000895AA203014591AU110020015AW1615GA1085+001835999GD14991+0018359GE19AGL   +99999+99999GF199999999999001831999999MW1615OC100935REMMET12401/13/24 03:56:02 METAR KMJX 130856Z 18013G18KT 8SM -RA OVC006 14/14 RMK AO2 PK WND 16026/0811 SLPNO P0003 60057 T01390139 $EQDQ01  01448PRCP03
0212720407004622024011309567+39928-074292FM-15+0025KMJX V0201805N00675001835MN0144845N5+01395+01395999999ADDAA101001095GA1085+001835999GD14991+0018359GE19AGL   +99999+99999GF199999999999001831999999OC101185REMMET10201/13/24 04:56:02 METAR KMJX 130956Z 18013G23KT 9SM OVC006 14/14 RMK AO2 RAE41 SLPNO P0004 T01390139 $
0193720407004622024011310217+39928-074292FM-15+0025KMJX V0201905N00885001225MN0064375N5+01405+01405999999ADDAU100001015AW1105GA1085+001225999GD14991+0012259GE19AGL   +99999+99999GF199999999999001221999999OC101135REMMET07701/13/24 05:21:02 METAR KMJX 131021Z 19017G22KT 4SM BR OVC004 14/14 RMK AO2 $
0198720407004622024011310567+39928-074292FM-15+0025KMJX V0201805N00515001225MN0080475N5+01395+01395999999ADDAU100001015AW1105GA1085+001225999GD14991+0012259GE19AGL   +99999+99999GF199999999999001221999999REMMET09001/13/24 05:56:02 METAR KMJX 131056Z 18010KT 5SM BR OVC004 14/14 RMK AO2 SLPNO T01390139 $
0286720407004622024011311567+39928-074292FM-15+0025KMJX V0201805N00465001225MN0160935N5+01395+01395999999ADDAA106015591AA224027291GA1085+001225999GD14991+0012259GE19AGL   +99999+99999GF199999999999001221999999KA1060M+01391KA2060N+01111REMMET11201/13/24 06:56:02 METAR KMJX 131156Z 18009KT 10SM OVC004 14/14 RMK AO2 SLPNO 60061 70107 T01390139 10139 20111 $EQDQ01  01548PRCP06Q02  02718PRCP24
0191720407004622024011312567+39928-074292FM-15+0025KMJX V0202005N00415001225MN0160935N5+01445+01445999999ADDGA1085+001225999GD14991+0012251GE19AGL   +99999+99999GF199999999999001221999999REMMET10001/13/24 07:56:02 METAR KMJX 131256Z 20008KT 10SM OVC004 14/14 RMK AO2 CIG 004V008 SLPNO T01440144 $
0174720407004622024011313047+39928-074292FM-15+0025KMJX V0201905N00625001835MN0160935N5+01405+01405999999ADDGA1085+001835999GD14991+0018359GE19AGL   +99999+99999GF199999999999001831999999OC100885REMMET07501/13/24 08:04:02 METAR KMJX 131304Z 19012G17KT 10SM OVC006 14/14 RMK AO2 $
0255720407004622024011313567+39928-074292FM-15+0025KMJX V0202105N00625004885MN0160935N5+01505+01395999999ADDGA1045+001835999GA2075+004885999GA3085+009755999GD12991+0018359GD23991+0048859GD34991+0097559GE19AGL   +99999+99999GF199999999999001831999999REMMET10201/13/24 08:56:02 METAR KMJX 131356Z 21012KT 10SM SCT006 BKN016 OVC032 15/14 RMK AO2 SLPNO T01500139 $
0212720407004622024011314237+39928-074292FM-15+0025KMJX V0202305N00935004275MN0160935N5+01505+01205999999ADDGA1075+004275999GA2075+006715999GD13991+0042759GD23991+0067159GE19AGL   +99999+99999GF199999999999004271999999OC101245REMMET08201/13/24 09:23:02 METAR KMJX 131423Z 23018G24KT 10SM BKN014 BKN022 15/12 RMK AO2 $
0212720407004622024011314307+39928-074292FM-15+0025KMJX V0202305N00985006715MN0160935N5+01605+01205999999ADDGA1045+004275999GA2075+006715999GD12991+0042759GD23991+0067159GE19AGL   +99999+99999GF199999999999004271999999OC101185REMMET08201/13/24 09:30:02 METAR KMJX 131430Z 23019G23KT 10SM SCT014 BKN022 16/12 RMK AO2 $
0231720407004622024011314397+39928-074292FM-15+0025KMJX V0202305N009352200059N0160935N5+01605+01205999999ADDGA1025+004275999GA2045+006715999GD11991+0042759GD22991+0067159GE19AGL   +99999+99999GF104995999999004271999999OC101185REMMET08201/13/24 09:39:02 METAR KMJX 131439Z 23018G23KT 10SM FEW014 SCT022 16/12 RMK AO2 $EQDD01      0ADE726
0241720407004622024011314567+39928-074292FM-15+0025KMJX V0202305N009352200059N0160935N5+01565+01005999999ADDGA1025+008845999GD11991+0088459GE19AGL   +99999+99999GF102995999999008841999999OC101345OD149901491260REMMET10901/13/24 09:56:02 METAR KMJX 131456Z 23018G26KT 10SM FEW029 16/10 RMK AO2 PK WND 26029/1445 SLPNO T01560100 $EQDD01      0ADE726
0241720407004622024011315567+39928-074292FM-15+0025KMJX V0202305N009352200059N0160935N5+01505+00785999999ADDGA1045+010365999GD12991+0103659GE19AGL   +99999+99999GF104995999999010361999999OC101185OD149901641250REMMET10901/13/24 10:56:02 METAR KMJX 131556Z 23018G23KT 10SM SCT034 15/08 RMK AO2 PK WND 25032/1514 SLPNO T01500078 $EQDD01      0ADE726
0298720407004622024011316567+39928-074292FM-15+0025KMJX V0202605N00775015245MN0160935N5+01285+00675999999ADDGA1025+009145999GA2075+015245999GA3075+018295999GD11991+0091459GD23991+0152459GD33991+0182959GE19AGL   +99999+99999GF199999999999009141999999OC101135OD149901541260REMMET12301/13/24 11:56:02 METAR KMJX 131656Z 26015G22KT 10SM FEW030 BKN050 BKN060 13/07 RMK AO2 PK WND 26030/1601 SLPNO T01280067 $
002772040700462202401140459O+39928-074292SOD  +0025KMJX V020999999999999999999999999999+99999+99999999999ADDAT1AU16RA  5AT2AU13BR  5
0296720407004622024011619567+39928-074292FM-15+0025KMJX V0202905N00775001835MN0080475N5-00116-00175999999ADDAA101000395AU120090015AU200001015AW1105AW2401AW3415GA1085+001835999GD14991+0018359GE19AGL   +99999+99999GF199999999999001831999999OC101135REMMET12701/16/24 14:56:02 METAR KMJX 161956Z 29015G22KT 5SM UP BR OVC006 M01/M02 RMK AO2 RAE01UPB01 SLPNO P0001 T10111017 FZRANO TSNO $EQDR01  -0117TMP028
0275720407004622024011620307+39928-074292FM-15+0025KMJX V0203105N00775003055MN0064375N5-00205-00305999999ADDAA101000021AU110030015AU200001015AW1105AW2715GA1085+003055999GD14991+0030551GE19AGL   +99999+99999GF199999999999003051999999MW1715OC101085REMMET12501/16/24 15:30:02 METAR KMJX 162030Z 31015G21KT 4SM -SN BR OVC010 M02/M03 RMK AO2 UPE20SNB02E14B20 CIG 006V015 P0000 FZRANO $
0306720407004622024011620467+39928-074292FM-15+0025KMJX V0203105N00515003055MN0040235N5-00205-00205999999ADDAA101000021AU110030015AU200001015AW1105AW2715GA1075+003055999GA2085+003965999GD13991+0030551GD24991+0039659GE19AGL   +99999+99999GF199999999999003051999999MW1715REMMET13301/16/24 15:46:02 METAR KMJX 162046Z 31010KT 2 1/2SM -SN BR BKN010 OVC013 M02/M02 RMK AO2 UPE20SNB02E14B20 CIG 007V011 P0000 FZRANO $
0334720407004622024011621137+39928-074292FM-15+0025KMJX V0203205N00575003055MN0064375N5-00205-00305999999ADDAA101000021AU110030015AU200001015AW1105AW2715GA1075+003055999GA2075+010675999GA3085+016765999GD13991+0030551GD23991+0106759GD34991+0167659GE19AGL   +99999+99999GF199999999999003051999999MW1715OC100985REMMET12201/16/24 16:13:02 METAR KMJX 162113Z 32011G19KT 4SM -SN BR BKN010 BKN035 OVC055 M02/M03 RMK AO2 CIG 007V012 P0000 FZRANO $
0249720407004622024011621567+39928-074292FM-15+0025KMJX V0203005N00725003055MN0160935N5-00175-00285999999ADDAA101000021GA1075+003055999GA2085+018295999GD13991+0030559GD24991+0182959GE19AGL   +99999+99999GF199999999999003051999999REMMET11601/16/24 16:56:02 METAR KMJX 162156Z 30014KT 10SM BKN010 OVC060 M02/M03 RMK AO2 SNE46 SLPNO P0000 T10171028 FZRANO $
0259720407004622024011622277+39928-074292FM-15+0025KMJX V0203005N00775021345MN0160935N5-00205-00305999999ADDGA1025+003055999GA2045+004275999GA3085+021345999GD11991+0030559GD22991+0042759GD34991+0213459GE19AGL   +99999+99999GF199999999999003051999999OC101085REMMET09801/16/24 17:27:02 METAR KMJX 162227Z 30015G21KT 10SM FEW010 SCT014 OVC070 M02/M03 RMK AO2 FZRANO $
0183720407004622024011623127+39928-074292FM-15+0025KMJX V0202905N00725006405MN0160935N5-00305-00405999999ADDGA1075+006405999GD13991+0064059GE19AGL   +99999+99999GF199999999999006401999999OC100935REMMET08401/16/24 18:12:02 METAR KMJX 162312Z 29014G18KT 10SM BKN021 M03/M04 RMK AO2 FZRANO $
0202720407004622024011623327+39928-074292FM-15+0025KMJX V0203005N008252200059N0160935N5-00305-00505999999ADDGA1045+006405999GD12991+0064059GE19AGL   +99999+99999GF104995999999006401999999OC101245REMMET08401/16/24 18:32:02 METAR KMJX 162332Z 30016G24KT 10SM SCT021 M03/M05 RMK AO2 FZRANO $EQDD01      0ADE726
0237720407004622024011623567+39928-074292FM-15+0025KMJX V0202905N005752200059N0160935N5-00335-00565999999ADDAA106003091GA1005+999999999GD10991+9999999GF100991999999999999999999KA1060M+00111KA2060N-00331REMMET11201/16/24 18:56:02 METAR KMJX 162356Z 29011KT 10SM CLR M03/M06 RMK AO2 SLPNO 60012 T10331056 10011 21033 FZRANO $EQDQ01  00308PRCP06
0199720407004622024011700567+39928-074292FM-15+0025KMJX V0203005N00625009145MN0160935N5-00395-00675999999ADDGA1085+009145999GD14991+0091459GE19AGL   +99999+99999GF199999999999009141999999OC100985REMMET10001/16/24 19:56:01 METAR KMJX 170056Z 30012G19KT 10SM OVC030 M04/M07 RMK AO2 SLPNO T10391067 FZRANO $
0163720407004622024011702567+39928-074292FM-15+0025KMJX V0203105N004152200059N0160935N5-00565-00895999999ADDGA1005+999999999GD10991+9999999GF100991999999999999999999REMMET09401/16/24 21:56:01 METAR KMJX 170256Z 31008KT 10SM CLR M06/M09 RMK AO2 SLPNO T10561089 FZRANO $
0163720407004622024011703567+39928-074292FM-15+0025KMJX V0203005N004152200059N0160935N5-00675-01005999999ADDGA1005+999999999GD10991+9999999GF100991999999999999999999REMMET09401/16/24 22:56:01 METAR KMJX 170356Z 30008KT 10SM CLR M07/M10 RMK AO2 SLPNO T10671100 FZRANO $
003972040700462202401170459O+39928-074292SOD  +0025KMJX V020999999999999999999999999999+99999+99999999999ADDAT1AU18SN  5AT2AU13BR  5AT3AU19UP  5
0237720407004622024011705567+39928-074292FM-15+0025KMJX V0202805N004152200059N0160935N5-00835-01065999999ADDAA106024491GA1005+999999999GD10991+9999999GF100991999999999999999999KA1060M-00331KA2060N-00831REMMET11201/17/24 00:56:02 METAR KMJX 170556Z 28008KT 10SM CLR M08/M11 RMK AO2 SLPNO 60096 T10831106 11033 21083 FZRANO $EQDQ01  02438PRCP06
0163720407004622024011706567+39928-074292FM-15+0025KMJX V0202805N004652200059N0160935N5-00835-01065999999ADDGA1005+999999999GD10991+9999999GF100991999999999999999999REMMET09401/17/24 01:56:02 METAR KMJX 170656Z 28009KT 10SM CLR M08/M11 RMK AO2 SLPNO T10831106 FZRANO $
0163720407004622024011707567+39928-074292FM-15+0025KMJX V0202805N005752200059N0160935N5-00895-01115999999ADDGA1005+999999999GD10991+9999999GF100991999999999999999999REMMET09401/17/24 02:56:01 METAR KMJX 170756Z 28011KT 10SM CLR M09/M11 RMK AO2 SLPNO T10891111 FZRANO $
0163720407004622024011708567+39928-074292FM-15+0025KMJX V0202905N004152200059N0160935N5-00945-01175999999ADDGA1005+999999999GD10991+9999999GF100991999999999999999999REMMET09401/17/24 03:56:01 METAR KMJX 170856Z 29008KT 10SM CLR M09/M12 RMK AO2 SLPNO T10941117 FZRANO $
0180720407004622024011709567+39928-074292FM-15+0025KMJX V0202805N003652200059N0160935N5-01005-01225999999ADDAA101000395GA1005+999999999GD10991+9999999GF100991999999999999999999REMMET10001/17/24 04:56:01 METAR KMJX 170956Z 28007KT 10SM CLR M10/M12 RMK AO2 SLPNO P0001 T11001122 FZRANO $
0163720407004622024011710567+39928-074292FM-15+0025KMJX V0202805N005752200059N0160935N5-01005-01285999999ADDGA1005+999999999GD10991+9999999GF100991999999999999999999REMMET09401/17/24 05:56:02 METAR KMJX 171056Z 28011KT 10SM CLR M10/M13 RMK AO2 SLPNO T11001128 FZRANO $
0174720407004622024011712567+39928-074292FM-15+0025KMJX V0202805N007252200059N0160935N5-00945-01285999999ADDGA1005+999999999GD10991+9999999GF100991999999999999999999OC100935REMMET09701/17/24 07:56:02 METAR KMJX 171256Z 28014G18KT 10SM CLR M09/M13 RMK AO2 SLPNO T10941128 FZRANO $
0163720407004622024011713567+39928-074292FM-15+0025KMJX V0202805N006752200059N0160935N5-00785-01285999999ADDGA1005+999999999GD10991+9999999GF100991999999999999999999REMMET09401/17/24 08:56:02 METAR KMJX 171356Z 28013KT 10SM CLR M08/M13 RMK AO2 SLPNO T10781128 FZRANO $
0174720407004622024011714567+39928-074292FM-15+0025KMJX V0202805N009352200059N0160935N5-00785-01395999999ADDGA1005+999999999GD10991+9999999GF100991999999999999999999OC101245REMMET09701/17/24 09:56:02 METAR KMJX 171456Z 28018G24KT 10SM CLR M08/M14 RMK AO2 SLPNO T10781139 FZRANO $
0194720407004622024011716567+39928-074292FM-15+0025KMJX V0202705N009852200059N0160935N5-00565-01335101825ADDGA1005+999999999GD10991+9999999GF100991999999999999999999MA1101795101495OC101135REMMET10201/17/24 11:56:02 METAR KMJX 171656Z 27019G22KT 10SM CLR M06/M13 A3006 RMK AO2 SLP182 T10561133 FZRANO
0250720407004622024011717567+39928-074292FM-15+0025KMJX V0202705N007752200059N0160935N5-00445-01335101785ADDGA1005+999999999GD10991+9999999GF100991999999999999999999KA1060M-00391KA2060N-01061MA1101735101435OC101185REMMET13201/17/24 12:56:02 METAR KMJX 171756Z 27015G23KT 10SM CLR M04/M13 A3004 RMK AO2 PK WND 30028/1703 SLP178 T10441133 11039 21106 FZRANO
0194720407004622024011718567+39928-074292FM-15+0025KMJX V0202605N006752200059N0160935N5-00335-01285101745ADDGA1005+999999999GD10991+9999999GF100991999999999999999999MA1101695101395OC100935REMMET10201/17/24 13:56:02 METAR KMJX 171856Z 26013G18KT 10SM CLR M03/M13 A3003 RMK AO2 SLP174 T10331128 FZRANO
0194720407004622024011719567+39928-074292FM-15+0025KMJX V0202605N006752200059N0160935N5-00445-01335101765ADDGA1005+999999999GD10991+9999999GF100991999999999999999999MA1101695101395OC101085REMMET10201/17/24 14:56:02 METAR KMJX 171956Z 26013G21KT 10SM CLR M04/M13 A3003 RMK AO2 SLP176 T10441133 FZRANO
0214720407004622024011720567+39928-074292FM-15+0025KMJX V0202605N006252200059N0160935N5-00505-01335101805ADDGA1005+999999999GD10991+9999999GF100991999999999999999999MA1101765101465MD1390019+9999OC100935REMMET10801/17/24 15:56:02 METAR KMJX 172056Z 26012G18KT 10SM CLR M05/M13 A3005 RMK AO2 SLP180 T10501133 53001 FZRANO
0183720407004622024011721567+39928-074292FM-15+0025KMJX V0202405N004152200059N0160935N5-00615-01395101875ADDGA1005+999999999GD10991+9999999GF100991999999999999999999MA1101835101535REMMET09901/17/24 16:56:02 METAR KMJX 172156Z 24008KT 10SM CLR M06/M14 A3007 RMK AO2 SLP187 T10611139 FZRANO
0183720407004622024011722567+39928-074292FM-15+0025KMJX V0202405N002652200059N0160935N5-00785-01395102005ADDGA1005+999999999GD10991+9999999GF100991999999999999999999MA1101935101635REMMET09901/17/24 17:56:02 METAR KMJX 172256Z 24005KT 10SM CLR M08/M14 A3010 RMK AO2 SLP200 T10781139 FZRANO
0241720407004622024011723567+39928-074292FM-15+0025KMJX V0202005N002152200059N0160935N5-00945-01335102095ADDGA1005+999999999GD10991+9999999GF100991999999999999999999KA1060M-00331KA2060N-00941MA1102035101735MD1390289+9999REMMET11701/17/24 18:56:02 METAR KMJX 172356Z 20004KT 10SM CLR M09/M13 A3013 RMK AO2 SLP209 T10941133 11033 21094 53028 FZRANO
0183720407004622024011800567+39928-074292FM-15+0025KMJX V0202305N002652200059N0160935N5-00945-01335102105ADDGA1005+999999999GD10991+9999999GF100991999999999999999999MA1102035101735REMMET09901/17/24 19:56:01 METAR KMJX 180056Z 23005KT 10SM CLR M09/M13 A3013 RMK AO2 SLP210 T10941133 FZRANO
0183720407004622024011801567+39928-074292FM-15+0025KMJX V0202505N004652200059N0160935N5-00785-01335102145ADDGA1005+999999999GD10991+9999999GF100991999999999999999999MA1102105101805REMMET09901/17/24 20:56:01 METAR KMJX 180156Z 25009KT 10SM CLR M08/M13 A3015 RMK AO2 SLP214 T10781133 FZRANO
0183720407004622024011803567+39928-074292FM-15+0025KMJX V0202705N002652200059N0160935N5-00895-01445102265ADDGA1005+999999999GD10991+9999999GF100991999999999999999999MA1102205101905REMMET09901/17/24 22:56:01 METAR KMJX 180356Z 27005KT 10SM CLR M09/M14 A3018 RMK AO2 SLP226 T10891144 FZRANO
0219720407004622024011804567+39928-074292FM-15+0025KMJX V0202505N001552200059N0160935N5-01005-01445102295ADDGA1005+999999999GD10991+9999999GF100991999999999999999999KA1240M-00331KA2240N-01061MA1102245101935REMMET10901/17/24 23:56:02 METAR KMJX 180456Z 25003KT 10SM CLR M10/M14 A3019 RMK AO2 SLP229 T11001144 410331106 FZRANO
0241720407004622024011805567+39928-074292FM-15+0025KMJX V0202505N002152200059N0160935N5-01175-01445102275ADDGA1005+999999999GD10991+9999999GF100991999999999999999999KA1060M-00781KA2060N-01171MA1102245101935MD1090079+9999REMMET11701/18/24 00:56:02 METAR KMJX 180556Z 25004KT 10SM CLR M12/M14 A3019 RMK AO2 SLP227 T11171144 11078 21117 50007 FZRANO
0183720407004622024011806567+39928-074292FM-15+0025KMJX V0202705N001552200059N0160935N5-01115-01445102295ADDGA1005+999999999GD10991+9999999GF100991999999999999999999MA1102245101935REMMET09901/18/24 01:56:02 METAR KMJX 180656Z 27003KT 10SM CLR M11/M14 A3019 RMK AO2 SLP229 T11111144 FZRANO
0183720407004622024011807567+39928-074292FM-15+0025KMJX V0202305N002652200059N0160935N5-01175-01395102355ADDGA1005+999999999GD10991+9999999GF100991999999999999999999MA1102305102005REMMET09901/18/24 02:56:02 METAR KMJX 180756Z 23005KT 10SM CLR M12/M14 A3021 RMK AO2 SLP235 T11171139 FZRANO
0203720407004622024011808567+39928-074292FM-15+0025KMJX V0202105N002152200059N0160935N5-00945-01285102385ADDGA1005+999999999GD10991+9999999GF100991999999999999999999MA1102345102035MD1390119+9999REMMET10501/18/24 03:56:02 METAR KMJX 180856Z 21004KT 10SM CLR M09/M13 A3022 RMK AO2 SLP238 T10941128 53011 FZRANO
0183720407004622024011809567+39928-074292FM-15+0025KMJX V0202505N002152200059N0160935N5-00785-01175102335ADDGA1005+999999999GD10991+9999999GF100991999999999999999999MA1102275101975REMMET09901/18/24 04:56:02 METAR KMJX 180956Z 25004KT 10SM CLR M08/M12 A3020 RMK AO2 SLP233 T10781117 FZRANO
0241720407004622024011811567+39928-074292FM-15+0025KMJX V0202405N001552200059N0160935N5-00675-01065102385ADDGA1005+999999999GD10991+9999999GF100991999999999999999999KA1060M-00671KA2060N-01221MA1102345102035MD1590009+9999REMMET11701/18/24 06:56:02 METAR KMJX 181156Z 24003KT 10SM CLR M07/M11 A3022 RMK AO2 SLP238 T10671106 11067 21122 55000 FZRANO
0208720407004622024011812567+39928-074292FM-15+0025KMJX V0202005N00215033535MN0160935N5-00565-01005102375ADDGA1085+033535999GD14991+0335359GE19AGL   +99999+99999GF199999999999033531999999MA1102345102035REMMET10201/18/24 07:56:02 METAR KMJX 181256Z 20004KT 10SM OVC110 M06/M10 A3022 RMK AO2 SLP237 T10561100 FZRANO
0208720407004622024011813567+39928-074292FM-15+0025KMJX V0209999C00005025915MN0160935N5-00395-00895102405ADDGA1075+025915999GD13991+0259159GE19AGL   +99999+99999GF199999999999025911999999MA1102375102075REMMET10201/18/24 08:56:02 METAR KMJX 181356Z 00000KT 10SM BKN085 M04/M09 A3023 RMK AO2 SLP240 T10391089 FZRANO
0182720407004622024011815567+39928-074292FM-15+0025KMJX V0202605N003652200059N0160935N5+00005-00945102455ADDGA1005+999999999GD10991+9999999GF100991999999999999999999MA1102405102105REMMET09801/18/24 10:56:02 METAR KMJX 181556Z 26007KT 10SM CLR 00/M09 A3024 RMK AO2 SLP245 T00001094 FZRANO
0189720407004622024011816567+39928-074292FM-15+0025KMJX V0202605N004652200059N0160935N5+00115-00835102345ADDGA1005+999999999GD10991+9999999GF100991999999999999999999MA1102305102005REMMET10501/18/24 11:56:02 METAR KMJX 181656Z 26009KT 10SM CLR 01/M08 A3021 RMK AO2 PRESFR SLP234 T00111083 FZRANO
0293720407004622024011817567+39928-074292FM-15+0025KMJX V0202305N004152200059N0160935N5+00115-00945102215ADDAA101000595AA206000591GA1005+999999999GD10991+9999999GF100991999999999999999999KA1060M+00171KA2060N-00671MA1102175101875MD1890229+9999REMMET12801/18/24 12:56:02 METAR KMJX 181756Z 23008KT 10SM CLR 01/M09 A3017 RMK AO2 SLP221 P0002 60002 T00111094 10017 21067 58022 FZRANOEQDQ01  00058PRCP06
0226720407004622024011818567+39928-074292FM-15+0025KMJX V0202205N004152200059N0160935N5+00115-01065102105ADDGA1025+033535999GD11991+0335359GE19AGL   +99999+99999GF102995999999033531999999MA1102075101765REMMET10101/18/24 13:56:02 METAR KMJX 181856Z 22008KT 10SM FEW110 01/M11 A3014 RMK AO2 SLP210 T00111106 FZRANOEQDD01      0ADE726
0226720407004622024011819567+39928-074292FM-15+0025KMJX V0202205N003652200059N0160935N5+00115-01005101985ADDGA1025+030485999GD11991+0304859GE19AGL   +99999+99999GF102995999999030481999999MA1101935101635REMMET10101/18/24 14:56:02 METAR KMJX 181956Z 22007KT 10SM FEW100 01/M10 A3010 RMK AO2 SLP198 T00111100 FZRANOEQDD01      0ADE726
0202720407004622024011820567+39928-074292FM-15+0025KMJX V0201605N002152200059N0160935N5+00115-01065101905ADDGA1005+999999999GD10991+9999999GF100991999999999999999999MA1101865101565MD1690319+9999REMMET10401/18/24 15:56:02 METAR KMJX 182056Z 16004KT 10SM CLR 01/M11 A3008 RMK AO2 SLP190 T00111106 56031 FZRANO
0266720407004622024011823567+39928-074292FM-15+0025KMJX V0209999C00005033535MN0160935N5-00175-00725101985ADDGA1075+033535999GD13991+0335359GE19AGL   +99999+99999GF199999999999033531999999KA1060M+00171KA2060N-00171MA1101935101635MD1390089+9999REMMET12001/18/24 18:56:02 METAR KMJX 182356Z 00000KT 10SM BKN110 M02/M07 A3010 RMK AO2 SLP198 T10171072 10017 21017 53008 FZRANO
0228720407004622024011902567+39928-074292FM-15+0025KMJX V0201405N00155021345MN0160935N5-00115-00565101835ADDGA1085+021345999GD14991+0213459GE19AGL   +99999+99999GF199999999999021341999999MA1101795101495MD1890159+9999REMMET10801/18/24 21:56:01 METAR KMJX 190256Z 14003KT 10SM OVC070 M01/M06 A3006 RMK AO2 SLP183 T10111056 58015 FZRANO
0246720407004622024011903567+39928-074292FM-15+0025KMJX V0209999C00005019815MN0160935N5-00175-00565101765ADDGA1075+019815999GA2075+025915999GD13991+0198159GD23991+0259159GE19AGL   +99999+99999GF199999999999019811999999MA1101735101435REMMET10901/18/24 22:56:02 METAR KMJX 190356Z 00000KT 10SM BKN065 BKN085 M02/M06 A3004 RMK AO2 SLP176 T10171056 FZRANO
0251720407004622024011904567+39928-074292FM-15+0025KMJX V0200505N00155024385MN0160935N5-00225-00565101655ADDGA1085+024385999GD14991+0243859GE19AGL   +99999+99999GF199999999999024381999999KA1240M+00171KA2240N-01221MA1101595101295REMMET11901/18/24 23:56:02 METAR KMJX 190456Z 05003KT 10SM OVC080 M02/M06 A3000 RMK AO2 PRESFR SLP165 T10221056 400171122 FZRANO
0266720407004622024011905567+39928-074292FM-15+0025KMJX V0202205N00155027435MN0160935N5-00225-00505101615ADDGA1085+027435999GD14991+0274359GE19AGL   +99999+99999GF199999999999027431999999KA1060M-00111KA2060N-00221MA1101565101265MD1690219+9999REMMET12001/19/24 00:56:02 METAR KMJX 190556Z 22003KT 10SM OVC090 M02/M05 A2999 RMK AO2 SLP161 T10221050 11011 21022 56021 FZRANO
0208720407004622024011906567+39928-074292FM-15+0025KMJX V0209999C00005022865MN0160935N5-00225-00445101505ADDGA1085+022865999GD14991+0228659GE19AGL   +99999+99999GF199999999999022861999999MA1101465101165REMMET10201/19/24 01:56:02 METAR KMJX 190656Z 00000KT 10SM OVC075 M02/M04 A2996 RMK AO2 SLP150 T10221044 FZRANO
0208720407004622024011907567+39928-074292FM-15+0025KMJX V0203605N00365021345MN0160935N5-00175-00565101425ADDGA1085+021345999GD14991+0213459GE19AGL   +99999+99999GF199999999999021341999999MA1101395101095REMMET10201/19/24 02:56:02 METAR KMJX 190756Z 36007KT 10SM OVC070 M02/M06 A2994 RMK AO2 SLP142 T10171056 FZRANO
0266720407004622024011908567+39928-074292FM-15+0025KMJX V0200405N00265024385MN0160935N5-00175-00565101295ADDGA1045+019815999GA2085+024385999GD12991+0198159GD24991+0243859GE19AGL   +99999+99999GF199999999999019811999999MA1101255100955MD1890329+9999REMMET11501/19/24 03:56:02 METAR KMJX 190856Z 04005KT 10SM SCT065 OVC080 M02/M06 A2990 RMK AO2 SLP129 T10171056 58032 FZRANO
0278720407004622024011911437+39928-074292FM-15+0025KMJX V0209999C00005007925MN0160935N5-00205-00605999999ADDAA101000021AU120090015AW1401AW2415GA1075+007925999GA2085+010675999GD13991+0079259GD24991+0106759GE19AGL   +99999+99999GF199999999999007921999999MA1101155100855REMMET10701/19/24 06:43:02 METAR KMJX 191143Z 00000KT 10SM UP BKN026 OVC035 M02/M06 A2987 RMK AO2 UPB39 P0000 FZRANO
0384720407004622024011911567+39928-074292FM-15+0025KMJX V0209999C00005007325MN0160935N5-00175-00505101175ADDAA101000021AA206000021AA324000591AU120090015AW1401AW2415GA1085+007325999GD14991+0073259GE19AGL   +99999+99999GF199999999999007321999999KA1060M-00111KA2060N-00221MA1101125100825MD1890139+9999REMMET14701/19/24 06:56:02 METAR KMJX 191156Z 00000KT 10SM UP OVC024 M02/M05 A2986 RMK AO2 UPB39 SLP117 P0000 60000 70002 T10171050 11011 21022 58013 FZRANOEQDQ01  00008PRCP06Q02  00058PRCP24
0265720407004622024011912247+39928-074292FM-15+0025KMJX V0203605N00215004885MN0016095N5-00205-00305999999ADDAA101000021AU110030015AU200001015AW1105AW2715GA1085+004885999GD14991+0048859GE19AGL   +99999+99999GF199999999999004881999999MA1101125100825MW1715REMMET10801/19/24 07:24:02 METAR KMJX 191224Z 36004KT 1SM -SN BR OVC016 M02/M03 A2986 RMK AO2 UPE05SNB05 P0000 FZRANO
0267720407004622024011912357+39928-074292FM-15+0025KMJX V0203605N00265004275MN0012075N5-00205-00305999999ADDAA101000021AU110030015AU200001015AW1105AW2715GA1085+004275999GD14991+0042759GE19AGL   +99999+99999GF199999999999004271999999MA1101125100825MW1715REMMET11001/19/24 07:35:02 METAR KMJX 191235Z 36005KT 3/4SM -SN BR OVC014 M02/M03 A2986 RMK AO2 UPE05SNB05 P0000 FZRANO
0307720407004622024011912497+39928-074292FM-15+0025KMJX V0203605N00265004275MN0020125N5-00205-00305999999ADDAA101000021AU110030015AU200001015AW1105AW2715GA1075+004275999GA2085+006105999GD13991+0042759GD24991+0061059GE19AGL   +99999+99999GF199999999999004271999999MA1101125100825MW1715REMMET11901/19/24 07:49:02 METAR KMJX 191249Z 36005KT 1 1/4SM -SN BR BKN014 OVC020 M02/M03 A2986 RMK AO2 UPE05SNB05 P0000 FZRANO
0282720407004622024011912567+39928-074292FM-15+0025KMJX V0203605N00265004885MN0016095N5-00225-00285101155ADDAA101000021AU110030015AU200001015AW1105AW2715GA1085+004885999GD14991+0048859GE19AGL   +99999+99999GF199999999999004881999999MA1101125100825MW1715REMMET12501/19/24 07:56:02 METAR KMJX 191256Z 36005KT 1SM -SN BR OVC016 M02/M03 A2986 RMK AO2 UPE05SNB05 SLP115 P0000 T10221028 FZRANO
0258720407004622024011913107+39928-074292FM-15+0025KMJX V0203605N00265005495MN0020125N5-00205-00305999999ADDAA101000021AU110030015AU200001015AW1105AW2715GA1085+005495999GD14991+0054959GE19AGL   +99999+99999GF199999999999005491999999MA1101085100785MW1715REMMET10101/19/24 08:10:02 METAR KMJX 191310Z 36005KT 1 1/4SM -SN BR OVC018 M02/M03 A2985 RMK AO2 P0000 FZRANO
0330720407004622024011913457+39928-074292FM-15+0025KMJX V0200205N00365006105MN0016095N5-00205-00205999999ADDAA101000021AU110030015AU200001015AW1105AW2715GA1025+001835999GA2075+006105999GA3085+007625999GD11991+0018359GD23991+0061059GD34991+0076259GE19AGL   +99999+99999GF199999999999001831999999MA1101085100785MW1715REMMET11101/19/24 08:45:02 METAR KMJX 191345Z 02007KT 1SM -SN BR FEW006 BKN020 OVC025 M02/M02 A2985 RMK AO2 P0000 FZRANO
0296720407004622024011914057+39928-074292FM-15+0025KMJX V0200305N00315001835MN0020125N5-00105-00205999999ADDAA101000021AU110030015AU200001015AW1105AW2715GA1075+001835999GA2085+005795999GD13991+0018359GD24991+0057959GE19AGL   +99999+99999GF199999999999001831999999MA1101055100755MW1715REMMET10801/19/24 09:05:02 METAR KMJX 191405Z 03006KT 1 1/4SM -SN BR BKN006 OVC019 M01/M02 A2984 RMK AO2 P0000 FZRANO
0278720407004622024011914297+39928-074292FM-15+0025KMJX V0200305N00575001835MN0040235V5-00105-00205999999ADDAA101000021AU110030015AU200001015AW1105AW2715GA1085+001835999GD14991+0018351GE19AGL   +99999+99999GF199999999999001831999999MA1101025100725MW1715REMMET12101/19/24 09:29:02 METAR KMJX 191429Z 03011KT 2 1/2SM -SN BR OVC006 M01/M02 A2983 RMK AO2 VIS 2V5 CIG 005V009 P0000 FZRANO
0270720407004622024011914487+39928-074292FM-15+0025KMJX V0200305N00365001835MN0024145V5-00105-00205999999ADDAA101000021AU110030015AU200001015AW1105AW2715GA1085+001835999GD14991+0018359GE19AGL   +99999+99999GF199999999999001831999999MA1100985100685MW1715REMMET11301/19/24 09:48:02 METAR KMJX 191448Z 03007KT 1 1/2SM -SN BR OVC006 M01/M02 A2982 RMK AO2 VIS 1 1/4V2 P0000 FZRANO
0327720407004622024011914567+39928-074292FM-15+0025KMJX V0200305N00415001835MN0016095N5-00115-00175101005ADDAA101000021AA203000021AU110030015AU200001015AW1105AW2715GA1085+001835999GD14991+0018359GE19AGL   +99999+99999GF199999999999001831999999MA1100955100655MD1890179+9999MW1715REMMET12601/19/24 09:56:02 METAR KMJX 191456Z 03008KT 1SM -SN BR OVC006 M01/M02 A2981 RMK AO2 SLP100 P0000 60000 T10111017 58017 FZRANOEQDQ01  00008PRCP03
0268720407004622024011915047+39928-074292FM-15+0025KMJX V0200305N00465001835MN0012075N5-00105-00205999999ADDAA101000021AU110030015AU200001015AW1105AW2715GA1085+001835999GD14991+0018351GE19AGL   +99999+99999GF199999999999001831999999MA1100955100655MW1715REMMET11101/19/24 10:04:02 METAR KMJX 191504Z 03009KT 3/4SM -SN BR OVC006 M01/M02 A2981 RMK AO2 CIG 004V008 P0000 FZRANO
0266720407004622024011915127+39928-074292FM-15+0025KMJX V0200205N00515001835MN0016095N5-00105-00205999999ADDAA101000021AU110030015AU200001015AW1105AW2715GA1085+001835999GD14991+0018351GE19AGL   +99999+99999GF199999999999001831999999MA1100915100625MW1715REMMET10901/19/24 10:12:02 METAR KMJX 191512Z 02010KT 1SM -SN BR OVC006 M01/M02 A2980 RMK AO2 CIG 004V008 P0000 FZRANO
0304720407004622024011915567+39928-074292FM-15+0025KMJX V0200305N00465001835MN0024145N5-00065-00175100875ADDAA101000021AU110030015AU200001015AW1105AW2715GA1085+001835999GD14991+0018351GE19AGL   +99999+99999GF199999999999001831999999MA1100855100555MW1715REMMET14701/19/24 10:56:02 METAR KMJX 191556Z 03009KT 1 1/2SM -SN BR OVC006 M01/M02 A2978 RMK AO2 UPB15E17SNE15B17 CIG 005V009 SLP087 P0000 T10061017 FZRANO
0278720407004622024011916127+39928-074292FM-15+0025KMJX V0200405N00465001835MN0032195V5-00105-00205999999ADDAA101000021AU110030015AU200001015AW1105AW2715GA1085+001835999GD14991+0018351GE19AGL   +99999+99999GF199999999999001831999999MA1100815100515MW1715REMMET12101/19/24 11:12:02 METAR KMJX 191612Z 04009KT 2SM -SN BR OVC006 M01/M02 A2977 RMK AO2 VIS 1 1/2V4 CIG 005V010 P0000 FZRANO
0268720407004622024011917247+39928-074292FM-15+0025KMJX V0200205N00575001835MN0012075N5-00105-00205999999ADDAA101000021AU110030015AU200001015AW1105AW2715GA1085+001835999GD14991+0018351GE19AGL   +99999+99999GF199999999999001831999999MA1100645100345MW1715REMMET11101/19/24 12:24:02 METAR KMJX 191724Z 02011KT 3/4SM -SN BR OVC006 M01/M02 A2972 RMK AO2 CIG 005V010 P0000 FZRANO
0266720407004622024011917517+39928-074292FM-15+0025KMJX V0200305N00575001835MN0016095N5-00105-00205999999ADDAA101000021AU110030015AU200001015AW1105AW2715GA1085+001835999GD14991+0018351GE19AGL   +99999+99999GF199999999999001831999999MA1100615100315MW1715REMMET10901/19/24 12:51:02 METAR KMJX 191751Z 03011KT 1SM -SN BR OVC006 M01/M02 A2971 RMK AO2 CIG 004V011 P0000 FZRANO
0321720407004622024011918567+39928-074292FM-15+0025KMJX V0203605N00515002445MN0032195N5-00115-00225100635ADDAA101000021AU110030015AU200001015AW1105AW2715GA1075+002445999GA2085+003665999GD13991+0024451GD24991+0036659GE19AGL   +99999+99999GF199999999999002441999999MA1100585100285MW1715REMMET13301/19/24 13:56:02 METAR KMJX 191856Z 36010KT 2SM -SN BR BKN008 OVC012 M01/M02 A2970 RMK AO2 CIG 006V011 SLP063 P0000 T10111022 FZRANO
0308720407004622024011919107+39928-074292FM-15+0025KMJX V0200105N00465002445MN0020125N5-00105-00205999999ADDAA101000021AU110030015AU200001015AW1105AW2715GA1075+002445999GA2085+003665999GD13991+0024451GD24991+0036659GE19AGL   +99999+99999GF199999999999002441999999MA1100585100285MW1715REMMET12001/19/24 14:10:02 METAR KMJX 191910Z 01009KT 1 1/4SM -SN BR BKN008 OVC012 M01/M02 A2970 RMK AO2 CIG 006V011 P0000 FZRANO
0266720407004622024011919337+39928-074292FM-15+0025KMJX V0203605N00465002445MN0016095N5-00105-00205999999ADDAA101000021AU110030015AU200001015AW1105AW2715GA1085+002445999GD14991+0024451GE19AGL   +99999+99999GF199999999999002441999999MA1100615100315MW1715REMMET10901/19/24 14:33:02 METAR KMJX 191933Z 36009KT 1SM -SN BR OVC008 M01/M02 A2971 RMK AO2 CIG 006V010 P0000 FZRANO
0321720407004622024011919567+39928-074292FM-15+0025KMJX V0203505N00365002445MN0016095N5-00115-00225100655ADDAA101000021AU110030015AU200001015AW1105AW2715GA1075+002445999GA2085+003665999GD13991+0024451GD24991+0036659GE19AGL   +99999+99999GF199999999999002441999999MA1100615100315MW1715REMMET13301/19/24 14:56:02 METAR KMJX 191956Z 35007KT 1SM -SN BR BKN008 OVC012 M01/M02 A2971 RMK AO2 CIG 005V009 SLP065 P0000 T10111022 FZRANO
0306720407004622024011920247+39928-074292FM-15+0025KMJX V0203605N00415002445MN0012075N5-00105-00205999999ADDAA101000021AU110030015AU200001015AW1105AW2715GA1075+002445999GA2085+004575999GD13991+0024451GD24991+0045759GE19AGL   +99999+99999GF199999999999002441999999MA1100645100345MW1715REMMET11801/19/24 15:24:02 METAR KMJX 192024Z 36008KT 3/4SM -SN BR BKN008 OVC015 M01/M02 A2972 RMK AO2 CIG 005V010 P0000 FZRANO
0308720407004622024011920307+39928-074292FM-15+0025KMJX V0203405N00465002445MN0020125N5-00105-00205999999ADDAA101000021AU110030015AU200001015AW1105AW2715GA1075+002445999GA2085+004575999GD13991+0024451GD24991+0045759GE19AGL   +99999+99999GF199999999999002441999999MA1100645100345MW1715REMMET12001/19/24 15:30:02 METAR KMJX 192030Z 34009KT 1 1/4SM -SN BR BKN008 OVC015 M01/M02 A2972 RMK AO2 CIG 005V012 P0000 FZRANO
0304720407004622024011920447+39928-074292FM-15+0025KMJX V0203505N00515002445MN0032195N5-00205-00305999999ADDAA101000021AU110030015AU200001015AW1105AW2715GA1075+002445999GA2085+005185999GD13991+0024451GD24991+0051859GE19AGL   +99999+99999GF199999999999002441999999MA1100645100345MW1715REMMET11601/19/24 15:44:02 METAR KMJX 192044Z 35010KT 2SM -SN BR BKN008 OVC017 M02/M03 A2972 RMK AO2 CIG 005V012 P0000 FZRANO
0377720407004622024011920567+39928-074292FM-15+0025KMJX V0203505N00515002445MN0032195N5-00175-00285100725ADDAA101000021AA203000021AU110030015AU200001015AW1105AW2715GA1075+002445999GA2085+004885999GD13991+0024451GD24991+0048859GE19AGL   +99999+99999GF199999999999002441999999MA1100685100385MD1390089+9999MW1715REMMET14501/19/24 15:56:02 METAR KMJX 192056Z 35010KT 2SM -SN BR BKN008 OVC016 M02/M03 A2973 RMK AO2 CIG 006V010 SLP072 P0000 60000 T10171028 53008 FZRANOEQDQ01  00008PRCP03
0296720407004622024011921017+39928-074292FM-15+0025KMJX V0203505N00465004885MN0024145N5-00205-00305999999ADDAA101000021AU110030015AU200001015AW1105AW2715GA1045+002445999GA2085+004885999GD12991+0024459GD24991+0048859GE19AGL   +99999+99999GF199999999999002441999999MA1100685100385MW1715REMMET10801/19/24 16:01:02 METAR KMJX 192101Z 35009KT 1 1/2SM -SN BR SCT008 OVC016 M02/M03 A2973 RMK AO2 P0000 FZRANO
0296720407004622024011921247+39928-074292FM-15+0025KMJX V0203505N00465002445MN0024145N5-00205-00305999999ADDAA101000021AU110030015AU200001015AW1105AW2715GA1075+002445999GA2085+004885999GD13991+0024459GD24991+0048859GE19AGL   +99999+99999GF199999999999002441999999MA1100755100455MW1715REMMET10801/19/24 16:24:02 METAR KMJX 192124Z 35009KT 1 1/2SM -SN BR BKN008 OVC016 M02/M03 A2975 RMK AO2 P0000 FZRANO
0296720407004622024011921337+39928-074292FM-15+0025KMJX V0203505N00365004885MN0028165N5-00205-00305999999ADDAA101000021AU110030015AU200001015AW1105AW2715GA1045+002445999GA2085+004885999GD12991+0024459GD24991+0048859GE19AGL   +99999+99999GF199999999999002441999999MA1100785100485MW1715REMMET10801/19/24 16:33:02 METAR KMJX 192133Z 35007KT 1 3/4SM -SN BR SCT008 OVC016 M02/M03 A2976 RMK AO2 P0000 FZRANO
0346720407004622024011921427+39928-074292FM-15+0025KMJX V0203405N00315002445MN0024145N5-00205-00305999999ADDAA101000021AU110030015AU200001015AW1105AW2715GA1075+002445999GA2075+003965999GA3085+005495999GD13991+0024451GD23991+0039659GD34991+0054959GE19AGL   +99999+99999GF199999999999002441999999MA1100785100485MW1715REMMET12701/19/24 16:42:02 METAR KMJX 192142Z 34006KT 1 1/2SM -SN BR BKN008 BKN013 OVC018 M02/M03 A2976 RMK AO2 CIG 005V010 P0000 FZRANO
0325720407004622024011921567+39928-074292FM-15+0025KMJX V0203305N00465002445MN0024145N5-00225-00285100865ADDAA101000021AU110030015AU200001015AW1105AW2715GA1075+002445999GA2085+004575999GD13991+0024451GD24991+0045759GE19AGL   +99999+99999GF199999999999002441999999MA1100815100515MW1715REMMET13701/19/24 16:56:02 METAR KMJX 192156Z 33009KT 1 1/2SM -SN BR BKN008 OVC015 M02/M03 A2977 RMK AO2 CIG 005V010 SLP086 P0000 T10221028 FZRANO
0308720407004622024011922217+39928-074292FM-15+0025KMJX V0203305N00365002745MN0040235N5-00305-00305999999ADDAA101000021AU110030015AU200001015AW1105AW2715GA1075+002745999GA2085+004575999GD13991+0027451GD24991+0045759GE19AGL   +99999+99999GF199999999999002741999999MA1100885100585MW1715REMMET12001/19/24 17:21:02 METAR KMJX 192221Z 33007KT 2 1/2SM -SN BR BKN009 OVC015 M03/M03 A2979 RMK AO2 CIG 005V012 P0000 FZRANO
0296720407004622024011922287+39928-074292FM-15+0025KMJX V0203305N00415004575MN0040235N5-00305-00305999999ADDAA101000021AU110030015AU200001015AW1105AW2715GA1045+002135999GA2085+004575999GD12991+0021359GD24991+0045759GE19AGL   +99999+99999GF199999999999002131999999MA1100885100585MW1715REMMET10801/19/24 17:28:02 METAR KMJX 192228Z 33008KT 2 1/2SM -SN BR SCT007 OVC015 M03/M03 A2979 RMK AO2 P0000 FZRANO
0292720407004622024011922347+39928-074292FM-15+0025KMJX V0203405N00415003965MN0048285N5-00305-00305999999ADDAA101000021AU110030015AU200001015AW1105AW2715GA1045+002135999GA2085+003965999GD12991+0021359GD24991+0039659GE19AGL   +99999+99999GF199999999999002131999999MA1100915100625MW1715REMMET10401/19/24 17:34:02 METAR KMJX 192234Z 34008KT 3SM -SN BR SCT007 OVC013 M03/M03 A2980 RMK AO2 P0000 FZRANO
0347720407004622024011922567+39928-074292FM-15+0025KMJX V0203305N00315009145MN0080475N5-00285-00395100985ADDAA101000021AU110030015AU200001015AW1105AW2715GA1025+002745999GA2045+003665999GA3085+009145999GD11991+0027459GD22991+0036659GD34991+0091459GE19AGL   +99999+99999GF199999999999002741999999MA1100955100655MW1715REMMET12801/19/24 17:56:02 METAR KMJX 192256Z 33006KT 5SM -SN BR FEW009 SCT012 OVC030 M03/M04 A2981 RMK AO2 SLP098 P0000 T10281039 FZRANO
0330720407004622024011923067+39928-074292FM-15+0025KMJX V0203305N00415008535MN0064375N5-00305-00405999999ADDAA101000021AU110030015AU200001015AW1105AW2715GA1025+002445999GA2075+008535999GA3085+010675999GD11991+0024459GD23991+0085359GD34991+0106759GE19AGL   +99999+99999GF199999999999002441999999MA1100955100655MW1715REMMET11101/19/24 18:06:02 METAR KMJX 192306Z 33008KT 4SM -SN BR FEW008 BKN028 OVC035 M03/M04 A2981 RMK AO2 P0000 FZRANO
0292720407004622024011923217+39928-074292FM-15+0025KMJX V0203305N00315011285MN0080475N5-00305-00405999999ADDAA101000021AU110030015AU200001015AW1105AW2715GA1045+008845999GA2085+011285999GD12991+0088459GD24991+0112859GE19AGL   +99999+99999GF199999999999008841999999MA1100985100685MW1715REMMET10401/19/24 18:21:02 METAR KMJX 192321Z 33006KT 5SM -SN BR SCT029 OVC037 M03/M04 A2982 RMK AO2 P0000 FZRANO
0438720407004622024011923567+39928-074292FM-15+0025KMJX V0203205N00365012805MN0144845N5-00285-00395101085ADDAA101000021AA206000021AU110030015AW1715GA1025+003965999GA2075+012805999GA3085+015245999GD11991+0039659GD23991+0128059GD34991+0152459GE19AGL   +99999+99999GF199999999999003961999999KA1060M-00061KA2060N-00281MA1101055100755MD1190369+9999MW1715REMMET16601/19/24 18:56:02 METAR KMJX 192356Z 32007KT 9SM -SN FEW013 BKN042 OVC050 M03/M04 A2984 RMK AO2 UPB38E47SNE38B47 SLP108 P0000 60000 T10281039 11006 21028 51036 FZRANOEQDQ01  00008PRCP06
0293720407004622024012000567+39928-074292FM-15+0025KMJX V0203105N002652200059N0144845N5-00395-00505101155ADDAA101000021AU110030015AW1715GA1045+019815999GD12991+0198159GE19AGL   +99999+99999GF104995999999019811999999MA1101125100825MW1715REMMET13401/19/24 19:56:01 METAR KMJX 200056Z 31005KT 9SM -SN SCT065 M04/M05 A2986 RMK AO2 UPB10E15SNE10B15E32B50 SLP115 P0000 T10391050 FZRANOEQDD01      0ADE726
0280720407004622024012001567+39928-074292FM-15+0025KMJX V0203005N002652200059N0160935N5-00445-00565101195ADDAA101000021AU110030015AW1715GA1025+013725999GD11991+0137259GE19AGL   +99999+99999GF102995999999013721999999MA1101155100855MW1715REMMET12101/19/24 20:56:01 METAR KMJX 200156Z 30005KT 10SM -SN FEW045 M04/M06 A2987 RMK AO2 SNE12B56 SLP119 P0000 T10441056 FZRANOEQDD01      0ADE726
0303720407004622024012002567+39928-074292FM-15+0025KMJX V0202805N002652200059N0160935N5-00565-00675101265ADDAA101000021AA203000021GA1045+033535999GD12991+0335359GE19AGL   +99999+99999GF104995999999033531999999MA1101225100925MD1190179+9999REMMET12601/19/24 21:56:01 METAR KMJX 200256Z 28005KT 10SM SCT110 M06/M07 A2989 RMK AO2 SNE06 SLP126 P0000 60000 T10561067 51017 FZRANOEQDQ01  00008PRCP03D01      0ADE726
0227720407004622024012003567+39928-074292FM-15+0025KMJX V0202805N003652200059N0160935N5-00565-00675101325ADDGA1025+033535999GD11991+0335359GE19AGL   +99999+99999GF102995999999033531999999MA1101295100995REMMET10201/19/24 22:56:02 METAR KMJX 200356Z 28007KT 10SM FEW110 M06/M07 A2991 RMK AO2 SLP132 T10561067 FZRANOEQDD01      0ADE726
0219720407004622024012004567+39928-074292FM-15+0025KMJX V0202805N002652200059N0160935N5-00615-00725101335ADDGA1005+999999999GD10991+9999999GF100991999999999999999999KA1240M-00061KA2240N-00611MA1101295100995REMMET10901/19/24 23:56:02 METAR KMJX 200456Z 28005KT 10SM CLR M06/M07 A2991 RMK AO2 SLP133 T10611072 410061061 FZRANO
003972040700462202401200459O+39928-074292SOD  +0025KMJX V020999999999999999999999999999+99999+99999999999ADDAT1AU18SN  5AT2AU13BR  5AT3AU19UP  5
0277720407004622024012005567+39928-074292FM-15+0025KMJX V0202805N003152200059N0160935N5-00675-00785101385ADDAA106000021GA1005+999999999GD10991+9999999GF100991999999999999999999KA1060M-00281KA2060N-00671MA1101325101025MD1190129+9999REMMET12301/20/24 00:56:02 METAR KMJX 200556Z 28006KT 10SM CLR M07/M08 A2992 RMK AO2 SLP138 60000 T10671078 11028 21067 51012 FZRANOEQDQ01  00008PRCP06
0183720407004622024012006567+39928-074292FM-15+0025KMJX V0202805N004652200059N0160935N5-00675-00835101455ADDGA1005+999999999GD10991+9999999GF100991999999999999999999MA1101395101095REMMET09901/20/24 01:56:02 METAR KMJX 200656Z 28009KT 10SM CLR M07/M08 A2994 RMK AO2 SLP145 T10671083 FZRANO
0183720407004622024012007567+39928-074292FM-15+0025KMJX V0203005N005152200059N0160935N5-00785-01005101465ADDGA1005+999999999GD10991+9999999GF100991999999999999999999MA1101425101125REMMET09901/20/24 02:56:02 METAR KMJX 200756Z 30010KT 10SM CLR M08/M10 A2995 RMK AO2 SLP146 T10781100 FZRANO
0203720407004622024012008567+39928-074292FM-15+0025KMJX V0203005N004152200059N0160935N5-00835-01115101525ADDGA1005+999999999GD10991+9999999GF100991999999999999999999MA1101495101195MD1190149+9999REMMET10501/20/24 03:56:02 METAR KMJX 200856Z 30008KT 10SM CLR M08/M11 A2997 RMK AO2 SLP152 T10831111 51014 FZRANO
0183720407004622024012009567+39928-074292FM-15+0025KMJX V0202905N003652200059N0160935N5-00895-01175101565ADDGA1005+999999999GD10991+9999999GF100991999999999999999999MA1101525101225REMMET09901/20/24 04:56:02 METAR KMJX 200956Z 29007KT 10SM CLR M09/M12 A2998 RMK AO2 SLP156 T10891117 FZRANO
0183720407004622024012010567+39928-074292FM-15+0025KMJX V0202905N002652200059N0160935N5-01065-01285101645ADDGA1005+999999999GD10991+9999999GF100991999999999999999999MA1101595101295REMMET09901/20/24 05:56:02 METAR KMJX 201056Z 29005KT 10SM CLR M11/M13 A3000 RMK AO2 SLP164 T11061128 FZRANO
0241720407004622024012011567+39928-074292FM-15+0025KMJX V0202905N003152200059N0160935N5-01065-01285101685ADDGA1005+999999999GD10991+9999999GF100991999999999999999999KA1060M-00671KA2060N-01111MA1101635101325MD1390169+9999REMMET11701/20/24 06:56:02 METAR KMJX 201156Z 29006KT 10SM CLR M11/M13 A3001 RMK AO2 SLP168 T11061128 11067 21111 53016 FZRANO
0183720407004622024012012567+39928-074292FM-15+0025KMJX V0202905N002152200059N0160935N5-01005-01225101715ADDGA1005+999999999GD10991+9999999GF100991999999999999999999MA1101665101365REMMET09901/20/24 07:56:02 METAR KMJX 201256Z 29004KT 10SM CLR M10/M12 A3002 RMK AO2 SLP171 T11001122 FZRANO
0183720407004622024012013567+39928-074292FM-15+0025KMJX V0202805N005152200059N0160935N5-00675-01065101735ADDGA1005+999999999GD10991+9999999GF100991999999999999999999MA1101695101395REMMET09901/20/24 08:56:02 METAR KMJX 201356Z 28010KT 10SM CLR M07/M11 A3003 RMK AO2 SLP173 T10671106 FZRANO
0214720407004622024012014567+39928-074292FM-15+0025KMJX V0203005N006252200059N0160935N5-00615-01115101715ADDGA1005+999999999GD10991+9999999GF100991999999999999999999MA1101665101365MD1090049+9999OC100885REMMET10801/20/24 09:56:02 METAR KMJX 201456Z 30012G17KT 10SM CLR M06/M11 A3002 RMK AO2 SLP171 T10611111 50004 FZRANO
0312720407004622024012015267+39928-074292FM-15+0025KMJX V0202905N010352200059N0016095V5-00605-01205999999ADDAA101000021AU110030015AW1715GA1025+009755999GD11991+0097559GE19AGL   +99999+99999GF102995999999009751999999MA1101665101365MW1715OC101345OD149901331290REMMET13101/20/24 10:26:02 METAR KMJX 201526Z 29020G26KT 1SM -SN FEW032 M06/M12 A3002 RMK AO2 PK WND 29026/1520 VIS 1/4V5 SNB14 P0000 FZRANOEQDD01      0ADE726
0316720407004622024012015437+39928-074292FM-15+0025KMJX V0203105N007252200059N0020125V5-00605-01205999999ADDAA101000021AU110030015AW1715GA1025+009755999GD11991+0097559GE19AGL   +99999+99999GF102995999999009751999999MA1101665101365MW1715OC101245OD149901331290REMMET13501/20/24 10:43:02 METAR KMJX 201543Z 31014G24KT 1 1/4SM -SN FEW032 M06/M12 A3002 RMK AO2 PK WND 29026/1520 VIS 1/2V5 SNB14 P0000 FZRANOEQDD01      0ADE726
0302720407004622024012015487+39928-074292FM-15+0025KMJX V0203105N008252200059N0064375N5-00705-01205999999ADDAA101000021AU110030015AW1715GA1025+010365999GD11991+0103659GE19AGL   +99999+99999GF102995999999010361999999MA1101665101365MW1715OC101135OD149901331290REMMET12101/20/24 10:48:02 METAR KMJX 201548Z 31016G22KT 4SM -SN FEW034 M07/M12 A3002 RMK AO2 PK WND 29026/1520 SNB14 P0000 FZRANOEQDD01      0ADE726
0319720407004622024012015567+39928-074292FM-15+0025KMJX V0203105N006752200059N0080475N5-00615-01225101685ADDAA101000021AU110030015AW1715GA1045+010365999GD12991+0103659GE19AGL   +99999+99999GF104995999999010361999999MA1101635101325MW1715OC101135OD149901331290REMMET13801/20/24 10:56:02 METAR KMJX 201556Z 31013G22KT 5SM -SN SCT034 M06/M12 A3001 RMK AO2 PK WND 29026/1520 SNB14 SLP168 P0000 T10611122 FZRANOEQDD01      0ADE726
0279720407004622024012016567+39928-074292FM-15+0025KMJX V0203105N00675010975MN0144845N5-00615-01175101635ADDAA101000021GA1025+008845999GA2085+010975999GD11991+0088459GD24991+0109759GE19AGL   +99999+99999GF199999999999008841999999MA1101595101295OC101245REMMET12301/20/24 11:56:02 METAR KMJX 201656Z 31013G24KT 9SM FEW029 OVC036 M06/M12 A3000 RMK AO2 SNE51 SLP163 P0000 T10611117 FZRANO
0339720407004622024012017567+39928-074292FM-15+0025KMJX V0202905N00935011895MN0160935N5-00565-01225101575ADDAA101000021AA206000021GA1085+011895999GD14991+0118959GE19AGL   +99999+99999GF199999999999011891999999KA1060M-00501KA2060N-01111MA1101525101225MD1890149+9999OC101185REMMET14401/20/24 12:56:02 METAR KMJX 201756Z 29018G23KT 10SM OVC039 M06/M12 A2998 RMK AO2 SNB01E45 SLP157 P0000 60000 T10561122 11050 21111 58014 FZRANOEQDQ01  00008PRCP06
0300720407004622024012018567+39928-074292FM-15+0025KMJX V0202805N01035013115MN0144845N5-00505-01285101585ADDAA101000021AU110030015AW1715GA1075+013115999GD13991+0131159GE19AGL   +99999+99999GF199999999999013111999999MA1101525101225MW1715OC101345OD149901331290REMMET13801/20/24 13:56:02 METAR KMJX 201856Z 28020G26KT 9SM -SN BKN043 M05/M13 A2998 RMK AO2 PK WND 29026/1850 SNB23 SLP158 P0000 T10501128 FZRANO
0260720407004622024012019567+39928-074292FM-15+0025KMJX V0202905N008852200059N0144845N5-00505-01335101635ADDAA101000021GA1045+014335999GD12991+0143359GE19AGL   +99999+99999GF104995999999014331999999MA1101595101295OC101245REMMET11601/20/24 14:56:02 METAR KMJX 201956Z 29017G24KT 9SM SCT047 M05/M13 A3000 RMK AO2 SNE53 SLP163 P0000 T10501133 FZRANOEQDD01      0ADE726
0351720407004622024012020567+39928-074292FM-15+0025KMJX V0202905N007252200059N0160935N5-00565-01335101705ADDAA101000021AA203000021GA1045+014945999GD12991+0149459GE19AGL   +99999+99999GF104995999999014941999999MA1101665101365MD1390129+9999OC101085OD149901441280REMMET15201/20/24 15:56:02 METAR KMJX 202056Z 29014G21KT 10SM SCT049 M06/M13 A3002 RMK AO2 PK WND 28028/2044 SNB1958E25 SLP170 P0000 60000 T10561133 53012 FZRANOEQDQ01  00008PRCP03D01      0ADE726
0219720407004622024012021567+39928-074292FM-15+0025KMJX V0202905N00725019815MN0160935N5-00615-01395101745ADDGA1075+019815999GD13991+0198159GE19AGL   +99999+99999GF199999999999019811999999MA1101695101395OC101085REMMET10501/20/24 16:56:02 METAR KMJX 202156Z 29014G21KT 10SM BKN065 M06/M14 A3003 RMK AO2 SLP174 T10611139 FZRANO
0219720407004622024012022567+39928-074292FM-15+0025KMJX V0202905N00675016765MN0160935N5-00615-01395101825ADDGA1085+016765999GD14991+0167659GE19AGL   +99999+99999GF199999999999016761999999MA1101765101465OC101035REMMET10501/20/24 17:56:02 METAR KMJX 202256Z 29013G20KT 10SM OVC055 M06/M14 A3005 RMK AO2 SLP182 T10611139 FZRANO
0302720407004622024012023567+39928-074292FM-15+0025KMJX V0203005N00575015245MN0160935N5-00615-01335101865ADDAA106000021GA1085+015245999GD14991+0152459GE19AGL   +99999+99999GF199999999999015241999999KA1060M-00391KA2060N-00671MA1101795101495MD1190169+9999REMMET12601/20/24 18:56:02 METAR KMJX 202356Z 30011KT 10SM OVC050 M06/M13 A3006 RMK AO2 SLP186 60000 T10611133 11039 21067 51016 FZRANOEQDQ01  00008PRCP06
0208720407004622024012100567+39928-074292FM-15+0025KMJX V0203005N00515014635MN0160935N5-00565-01285101895ADDGA1085+014635999GD14991+0146359GE19AGL   +99999+99999GF199999999999014631999999MA1101865101565REMMET10201/20/24 19:56:01 METAR KMJX 210056Z 30010KT 10SM OVC048 M06/M13 A3008 RMK AO2 SLP189 T10561128 FZRANO
0183720407004622024012101567+39928-074292FM-15+0025KMJX V0203105N006252200059N0160935N5-00615-01335101955ADDGA1005+999999999GD10991+9999999GF100991999999999999999999MA1101905101595REMMET09901/20/24 20:56:01 METAR KMJX 210156Z 31012KT 10SM CLR M06/M13 A3009 RMK AO2 SLP195 T10611133 FZRANO
0258720407004622024012102567+39928-074292FM-15+0025KMJX V0203305N004652200059N0160935N5-00675-01285102025ADDGA1025+013115999GD11991+0131159GE19AGL   +99999+99999GF102995999999013111999999MA1101965101665MD1390179+9999OC100885REMMET11101/20/24 21:56:01 METAR KMJX 210256Z 33009G17KT 10SM FEW043 M07/M13 A3011 RMK AO2 SLP202 T10671128 53017 FZRANOEQDD01      0ADE726
0238720407004622024012103567+39928-074292FM-15+0025KMJX V0203105N005152200059N0160935N5-00725-01285102105ADDGA1025+033535999GD11991+0335359GE19AGL   +99999+99999GF102995999999033531999999MA1102035101735OC100775REMMET10501/20/24 22:56:02 METAR KMJX 210356Z 31010G15KT 10SM FEW110 M07/M13 A3013 RMK AO2 SLP210 T10721128 FZRANOEQDD01      0ADE726
001572040700462202401210459O+39928-074292SOD  +0025KMJX V020999999999999999999999999999+99999+99999999999ADDAT1AU18SN  5
0285720407004622024012105567+39928-074292FM-15+0025KMJX V0203105N004152200059N0160935N5-00785-01335102205ADDGA1025+033535999GD11991+0335359GE19AGL   +99999+99999GF102995999999033531999999KA1060M-00561KA2060N-00781MA1102135101835MD1290179+9999REMMET12001/21/24 00:56:02 METAR KMJX 210556Z 31008KT 10SM FEW110 M08/M13 A3016 RMK AO2 SLP220 T10781133 11056 21078 52017 FZRANOEQDD01      0ADE726
0183720407004622024012106567+39928-074292FM-15+0025KMJX V0202905N003652200059N0160935N5-00785-01335102255ADDGA1005+999999999GD10991+9999999GF100991999999999999999999MA1102205101905REMMET09901/21/24 01:56:02 METAR KMJX 210656Z 29007KT 10SM CLR M08/M13 A3018 RMK AO2 SLP225 T10781133 FZRANO
0183720407004622024012107567+39928-074292FM-15+0025KMJX V0203105N003652200059N0160935N5-00785-01335102295ADDGA1005+999999999GD10991+9999999GF100991999999999999999999MA1102245101935REMMET09901/21/24 02:56:02 METAR KMJX 210756Z 31007KT 10SM CLR M08/M13 A3019 RMK AO2 SLP229 T10781133 FZRANO
0183720407004622024012109567+39928-074292FM-15+0025KMJX V0202805N003652200059N0160935N5-00835-01335102425ADDGA1005+999999999GD10991+9999999GF100991999999999999999999MA1102375102075REMMET09901/21/24 04:56:02 METAR KMJX 210956Z 28007KT 10SM CLR M08/M13 A3023 RMK AO2 SLP242 T10831133 FZRANO
0183720407004622024012110567+39928-074292FM-15+0025KMJX V0202805N003652200059N0160935N5-00895-01335102555ADDGA1005+999999999GD10991+9999999GF100991999999999999999999MA1102515102205REMMET09901/21/24 05:56:02 METAR KMJX 211056Z 28007KT 10SM CLR M09/M13 A3027 RMK AO2 SLP255 T10891133 FZRANO
0241720407004622024012111567+39928-074292FM-15+0025KMJX V0202905N004652200059N0160935N5-00895-01335102655ADDGA1005+999999999GD10991+9999999GF100991999999999999999999KA1060M-00721KA2060N-00891MA1102615102305MD1390309+9999REMMET11701/21/24 06:56:02 METAR KMJX 211156Z 29009KT 10SM CLR M09/M13 A3030 RMK AO2 SLP265 T10891133 11072 21089 53030 FZRANO
0183720407004622024012112567+39928-074292FM-15+0025KMJX V0202905N003652200059N0160935N5-00785-01285102785ADDGA1005+999999999GD10991+9999999GF100991999999999999999999MA1102715102415REMMET09901/21/24 07:56:02 METAR KMJX 211256Z 29007KT 10SM CLR M08/M13 A3033 RMK AO2 SLP278 T10781128 FZRANO
0194720407004622024012113567+39928-074292FM-15+0025KMJX V0202905N006752200059N0160935N5-00565-01225102845ADDGA1005+999999999GD10991+9999999GF100991999999999999999999MA1102785102475OC100825REMMET10201/21/24 08:56:02 METAR KMJX 211356Z 29013G16KT 10SM CLR M06/M12 A3035 RMK AO2 SLP284 T10561122 FZRANO
0214720407004622024012114567+39928-074292FM-15+0025KMJX V0203105N005752200059N0160935N5-00505-01225102925ADDGA1005+999999999GD10991+9999999GF100991999999999999999999MA1102885102575MD1190279+9999OC101245REMMET10801/21/24 09:56:02 METAR KMJX 211456Z 31011G24KT 10SM CLR M05/M12 A3038 RMK AO2 SLP292 T10501122 51027 FZRANO
0212720407004622024012115567+39928-074292FM-15+0025KMJX V0203205N007752200059N0160935N5-00395-01175102915ADDGA1005+999999999GD10991+9999999GF100991999999999999999999MA1102885102575OC101135REMMET12001/21/24 10:56:02 METAR KMJX 211556Z 32015G22KT 10SM CLR M04/M12 A3038 RMK AO2 PK WND 31027/1514 SLP291 T10391117 FZRANO
0194720407004622024012116567+39928-074292FM-15+0025KMJX V0203005N007252200059N0160935N5-00285-01115102885ADDGA1005+999999999GD10991+9999999GF100991999999999999999999MA1102845102545OC101185REMMET10201/21/24 11:56:02 METAR KMJX 211656Z 30014G23KT 10SM CLR M03/M11 A3037 RMK AO2 SLP288 T10281111 FZRANO
0252720407004622024012117567+39928-074292FM-15+0025KMJX V0202905N007252200059N0160935N5-00175-01065102805ADDGA1005+999999999GD10991+9999999GF100991999999999999999999KA1060M-00171KA2060N-00891MA1102785102475MD1890129+9999OC101295REMMET12001/21/24 12:56:02 METAR KMJX 211756Z 29014G25KT 10SM CLR M02/M11 A3035 RMK AO2 SLP280 T10171106 11017 21089 58012 FZRANO
0194720407004622024012119567+39928-074292FM-15+0025KMJX V0203005N009352200059N0160935N5-00115-01065102885ADDGA1005+999999999GD10991+9999999GF100991999999999999999999MA1102845102545OC101135REMMET10201/21/24 14:56:02 METAR KMJX 211956Z 30018G22KT 10SM CLR M01/M11 A3037 RMK AO2 SLP288 T10111106 FZRANO
0214720407004622024012120567+39928-074292FM-15+0025KMJX V0202905N008852200059N0160935N5-00115-01065102975ADDGA1005+999999999GD10991+9999999GF100991999999999999999999MA1102955102645MD1390179+9999OC101085REMMET10801/21/24 15:56:02 METAR KMJX 212056Z 29017G21KT 10SM CLR M01/M11 A3040 RMK AO2 SLP297 T10111106 53017 FZRANO
0194720407004622024012121567+39928-074292FM-15+0025KMJX V0203005N004152200059N0160935N5-00175-01065103065ADDGA1005+999999999GD10991+9999999GF100991999999999999999999MA1103015102715OC100775REMMET10201/21/24 16:56:02 METAR KMJX 212156Z 30008G15KT 10SM CLR M02/M11 A3042 RMK AO2 SLP306 T10171106 FZRANO
0241720407004622024012123567+39928-074292FM-15+0025KMJX V0202905N003652200059N0160935N5-00565-01225103255ADDGA1005+999999999GD10991+9999999GF100991999999999999999999KA1060M-00061KA2060N-00561MA1103225102915MD1390289+9999REMMET11701/21/24 18:56:02 METAR KMJX 212356Z 29007KT 10SM CLR M06/M12 A3048 RMK AO2 SLP325 T10561122 11006 21056 53028 FZRANO
0183720407004622024012200567+39928-074292FM-15+0025KMJX V0202905N002152200059N0160935N5-00565-01225103315ADDGA1005+999999999GD10991+9999999GF100991999999999999999999MA1103255102955REMMET09901/21/24 19:56:01 METAR KMJX 220056Z 29004KT 10SM CLR M06/M12 A3049 RMK AO2 SLP331 T10561122 FZRANO
0183720407004622024012201567+39928-074292FM-15+0025KMJX V0202605N002652200059N0160935N5-00785-01285103385ADDGA1005+999999999GD10991+9999999GF100991999999999999999999MA1103325103015REMMET09901/21/24 20:56:01 METAR KMJX 220156Z 26005KT 10SM CLR M08/M13 A3051 RMK AO2 SLP338 T10781128 FZRANO
0203720407004622024012202567+39928-074292FM-15+0025KMJX V0202905N002652200059N0160935N5-00725-01285103425ADDGA1005+999999999GD10991+9999999GF100991999999999999999999MA1103395103085MD1290169+9999REMMET10501/21/24 21:56:01 METAR KMJX 220256Z 29005KT 10SM CLR M07/M13 A3053 RMK AO2 SLP342 T10721128 52016 FZRANO
0183720407004622024012203567+39928-074292FM-15+0025KMJX V0202805N002652200059N0160935N5-00675-01335103485ADDGA1005+999999999GD10991+9999999GF100991999999999999999999MA1103425103125REMMET09901/21/24 22:56:01 METAR KMJX 220356Z 28005KT 10SM CLR M07/M13 A3054 RMK AO2 SLP348 T10671133 FZRANO
0219720407004622024012204567+39928-074292FM-15+0025KMJX V0202905N003652200059N0160935N5-00615-01335103515ADDGA1005+999999999GD10991+9999999GF100991999999999999999999KA1240M-00061KA2240N-00891MA1103455103155REMMET10901/21/24 23:56:02 METAR KMJX 220456Z 29007KT 10SM CLR M06/M13 A3055 RMK AO2 SLP351 T10611133 410061089 FZRANO
0241720407004622024012205567+39928-074292FM-15+0025KMJX V0203205N004152200059N0160935N5-00565-01335103465ADDGA1005+999999999GD10991+9999999GF100991999999999999999999KA1060M-00501KA2060N-00781MA1103425103125MD1090059+9999REMMET11701/22/24 00:56:02 METAR KMJX 220556Z 32008KT 10SM CLR M06/M13 A3054 RMK AO2 SLP346 T10561133 11050 21078 50005 FZRANO
0183720407004622024012207567+39928-074292FM-15+0025KMJX V0202905N003152200059N0160935N5-00835-01445103535ADDGA1005+999999999GD10991+9999999GF100991999999999999999999MA1103495103185REMMET09901/22/24 02:56:02 METAR KMJX 220756Z 29006KT 10SM CLR M08/M14 A3056 RMK AO2 SLP353 T10831144 FZRANO
0203720407004622024012208567+39928-074292FM-15+0025KMJX V0202905N002652200059N0160935N5-00785-01335103545ADDGA1005+999999999GD10991+9999999GF100991999999999999999999MA1103495103185MD1190079+9999REMMET10501/22/24 03:56:02 METAR KMJX 220856Z 29005KT 10SM CLR M08/M13 A3056 RMK AO2 SLP354 T10781133 51007 FZRANO
0183720407004622024012209567+39928-074292FM-15+0025KMJX V0202705N002152200059N0160935N5-01115-01445103585ADDGA1005+999999999GD10991+9999999GF100991999999999999999999MA1103525103225REMMET09901/22/24 04:56:02 METAR KMJX 220956Z 27004KT 10SM CLR M11/M14 A3057 RMK AO2 SLP358 T11111144 FZRANO
0183720407004622024012210567+39928-074292FM-15+0025KMJX V0202605N002152200059N0160935N5-01175-01395103595ADDGA1005+999999999GD10991+9999999GF100991999999999999999999MA1103565103255REMMET09901/22/24 05:56:02 METAR KMJX 221056Z 26004KT 10SM CLR M12/M14 A3058 RMK AO2 SLP359 T11171139 FZRANO
0241720407004622024012211567+39928-074292FM-15+0025KMJX V0202305N002152200059N0160935N5-01115-01445103665ADDGA1005+999999999GD10991+9999999GF100991999999999999999999KA1060M-00561KA2060N-01221MA1103595103285MD1390119+9999REMMET11701/22/24 06:56:02 METAR KMJX 221156Z 23004KT 10SM CLR M11/M14 A3059 RMK AO2 SLP366 T11111144 11056 21122 53011 FZRANO
0183720407004622024012212567+39928-074292FM-15+0025KMJX V0202405N001552200059N0160935N5-00945-01285103665ADDGA1005+999999999GD10991+9999999GF100991999999999999999999MA1103625103325REMMET09901/22/24 07:56:02 METAR KMJX 221256Z 24003KT 10SM CLR M09/M13 A3060 RMK AO2 SLP366 T10941128 FZRANO
0183720407004622024012213567+39928-074292FM-15+0025KMJX V0202705N002652200059N0160935N5-00285-00835103705ADDGA1005+999999999GD10991+9999999GF100991999999999999999999MA1103665103355REMMET09901/22/24 08:56:02 METAR KMJX 221356Z 27005KT 10SM CLR M03/M08 A3061 RMK AO2 SLP370 T10281083 FZRANO
0203720407004622024012214567+39928-074292FM-15+0025KMJX V0202805N003152200059N0160935N5-00115-00785103705ADDGA1005+999999999GD10991+9999999GF100991999999999999999999MA1103665103355MD1190069+9999REMMET10501/22/24 09:56:02 METAR KMJX 221456Z 28006KT 10SM CLR M01/M08 A3061 RMK AO2 SLP370 T10111078 51006 FZRANO
0182720407004622024012215567+39928-074292FM-15+0025KMJX V0202905N002152200059N0160935N5+00115-00835103635ADDGA1005+999999999GD10991+9999999GF100991999999999999999999MA1103595103285REMMET09801/22/24 10:56:02 METAR KMJX 221556Z 29004KT 10SM CLR 01/M08 A3059 RMK AO2 SLP363 T00111083 FZRANO
0182720407004622024012216567+39928-074292FM-15+0025KMJX V0202405N005752200059N0160935N5+00175-00895103555ADDGA1005+999999999GD10991+9999999GF100991999999999999999999MA1103495103185REMMET09801/22/24 11:56:02 METAR KMJX 221656Z 24011KT 10SM CLR 02/M09 A3056 RMK AO2 SLP355 T00171089 FZRANO
0175720407004622024012218567+39928-074292FM-15+0025KMJX V0202705N004152200059N0160935N5+00335-00895103385ADDGA1005+999999999GD10991+9999999GF100991999999999999999999MA1103355103055REMMET09101/22/24 13:56:02 METAR KMJX 221856Z 27008KT 10SM CLR 03/M09 A3052 RMK AO2 SLP338 T00331089
0175720407004622024012219567+39928-074292FM-15+0025KMJX V0202605N004652200059N0160935N5+00335-01065103375ADDGA1005+999999999GD10991+9999999GF100991999999999999999999MA1103325103015REMMET09101/22/24 14:56:02 METAR KMJX 221956Z 26009KT 10SM CLR 03/M11 A3051 RMK AO2 SLP337 T00331106
0195720407004622024012220567+39928-074292FM-15+0025KMJX V0202605N003152200059N0160935N5+00285-01005103345ADDGA1005+999999999GD10991+9999999GF100991999999999999999999MA1103285102985MD1690099+9999REMMET09701/22/24 15:56:02 METAR KMJX 222056Z 26006KT 10SM CLR 03/M10 A3050 RMK AO2 SLP334 T00281100 56009
0182720407004622024012221567+39928-074292FM-15+0025KMJX V0202405N003152200059N0160935N5+00175-00895103345ADDGA1005+999999999GD10991+9999999GF100991999999999999999999MA1103285102985REMMET09801/22/24 16:56:02 METAR KMJX 222156Z 24006KT 10SM CLR 02/M09 A3050 RMK AO2 SLP334 T00171089 FZRANO
0182720407004622024012222567+39928-074292FM-15+0025KMJX V0202205N002152200059N0160935N5+00065-00835103385ADDGA1005+999999999GD10991+9999999GF100991999999999999999999MA1103355103055REMMET09801/22/24 17:56:02 METAR KMJX 222256Z 22004KT 10SM CLR 01/M08 A3052 RMK AO2 SLP338 T00061083 FZRANO
0183720407004622024012300567+39928-074292FM-15+0025KMJX V0202105N003152200059N0160935N5-00065-00725103415ADDGA1005+999999999GD10991+9999999GF100991999999999999999999MA1103355103055REMMET09901/22/24 19:56:01 METAR KMJX 230056Z 21006KT 10SM CLR M01/M07 A3052 RMK AO2 SLP341 T10061072 FZRANO
0183720407004622024012301567+39928-074292FM-15+0025KMJX V0202305N003652200059N0160935N5-00115-00675103405ADDGA1005+999999999GD10991+9999999GF100991999999999999999999MA1103355103055REMMET09901/22/24 20:56:01 METAR KMJX 230156Z 23007KT 10SM CLR M01/M07 A3052 RMK AO2 SLP340 T10111067 FZRANO
0203720407004622024012302567+39928-074292FM-15+0025KMJX V0202405N003652200059N0160935N5-00175-00725103385ADDGA1005+999999999GD10991+9999999GF100991999999999999999999MA1103325103015MD1890059+9999REMMET10501/22/24 21:56:01 METAR KMJX 230256Z 24007KT 10SM CLR M02/M07 A3051 RMK AO2 SLP338 T10171072 58005 FZRANO
0183720407004622024012303567+39928-074292FM-15+0025KMJX V0202305N004652200059N0160935N5-00115-00615103385ADDGA1005+999999999GD10991+9999999GF100991999999999999999999MA1103325103015REMMET09901/22/24 22:56:02 METAR KMJX 230356Z 23009KT 10SM CLR M01/M06 A3051 RMK AO2 SLP338 T10111061 FZRANO
0219720407004622024012304567+39928-074292FM-15+0025KMJX V0202305N004652200059N0160935N5-00115-00615103325ADDGA1005+999999999GD10991+9999999GF100991999999999999999999KA1240M+00331KA2240N-01221MA1103285102985REMMET10901/22/24 23:56:02 METAR KMJX 230456Z 23009KT 10SM CLR M01/M06 A3050 RMK AO2 SLP332 T10111061 400331122 FZRANO
0266720407004622024012305567+39928-074292FM-15+0025KMJX V0202405N00415028965MN0160935N5-00065-00565103265ADDGA1075+028965999GD13991+0289659GE19AGL   +99999+99999GF199999999999028961999999KA1060M+00001KA2060N-00221MA1103225102915MD1890129+9999REMMET12001/23/24 00:56:02 METAR KMJX 230556Z 24008KT 10SM BKN095 M01/M06 A3048 RMK AO2 SLP326 T10061056 10000 21022 58012 FZRANO
0230720407004622024012917567+39928-074292FM-15+0025KMJX V0203205N00465008235MN0160935N5+00395-00065999999ADDGA1085+008235999GD14991+0082359GE19AGL   +99999+99999GF199999999999008231999999MA1101125100825MD1190119+9999REMMET11001/29/24 12:56:02 METAR KMJX 291756Z 32009KT 10SM OVC027 04/M01 A2986 RMK AO2 SLPNO 6//// T00391006 51011 TSNO
0199720407004622024012918567+39928-074292FM-15+0025KMJX V0203305N00575008235MN0160935N5+00395-00115999999ADDGA1085+008235999GD14991+0082359GE19AGL   +99999+99999GF199999999999008231999999MA1101155100855REMMET09301/29/24 13:56:02 METAR KMJX 291856Z 33011KT 10SM OVC027 04/M01 A2987 RMK AO2 SLPNO T00391011
0194720407004622024012919287+39928-074292FM-15+0025KMJX V0203505N00675009455MN0160935N5+00405-00205999999ADDGA1085+009455999GD14991+0094559GE19AGL   +99999+99999GF199999999999009451999999MA1101195100895OC101035REMMET08001/29/24 14:28:02 METAR KMJX 291928Z 35013G20KT 10SM OVC031 04/M02 A2988 RMK AO2
0210720407004622024012919567+39928-074292FM-15+0025KMJX V0203405N00415010065MN0160935N5+00395-00175999999ADDGA1085+010065999GD14991+0100659GE19AGL   +99999+99999GF199999999999010061999999MA1101225100925OC100885REMMET09601/29/24 14:56:02 METAR KMJX 291956Z 34008G17KT 10SM OVC033 04/M02 A2989 RMK AO2 SLPNO T00391017
0219720407004622024012920567+39928-074292FM-15+0025KMJX V0203405N00415010065MN0160935N5+00395-00225999999ADDGA1085+010065999GD14991+0100659GE19AGL   +99999+99999GF199999999999010061999999MA1101325101025MD1390209+9999REMMET09901/29/24 15:56:02 METAR KMJX 292056Z 34008KT 10SM OVC033 04/M02 A2992 RMK AO2 SLPNO T00391022 53020
0199720407004622024012921567+39928-074292FM-15+0025KMJX V0203405N00315010065MN0160935N5+00395-00225999999ADDGA1085+010065999GD14991+0100659GE19AGL   +99999+99999GF199999999999010061999999MA1101425101125REMMET09301/29/24 16:56:02 METAR KMJX 292156Z 34006KT 10SM OVC033 04/M02 A2995 RMK AO2 SLPNO T00391022
0199720407004622024012922567+39928-074292FM-15+0025KMJX V0203605N00315010065MN0160935N5+00335-00175999999ADDGA1085+010065999GD14991+0100659GE19AGL   +99999+99999GF199999999999010061999999MA1101525101225REMMET09301/29/24 17:56:02 METAR KMJX 292256Z 36006KT 10SM OVC033 03/M02 A2998 RMK AO2 SLPNO T00331017
0257720407004622024012923567+39928-074292FM-15+0025KMJX V0203605N00365010675MN0160935N5+00335-00225999999ADDGA1085+010675999GD14991+0106759GE19AGL   +99999+99999GF199999999999010671999999KA1060M+00391KA2060N+00331MA1101635101325MD1390339+9999REMMET11101/29/24 18:56:02 METAR KMJX 292356Z 36007KT 10SM OVC035 03/M02 A3001 RMK AO2 SLPNO T00331022 10039 20033 53033
0199720407004622024013000567+39928-074292FM-15+0025KMJX V0203305N00265010675MN0160935N5+00285-00225999999ADDGA1085+010675999GD14991+0106759GE19AGL   +99999+99999GF199999999999010671999999MA1101735101435REMMET09301/29/24 19:56:01 METAR KMJX 300056Z 33005KT 10SM OVC035 03/M02 A3004 RMK AO2 SLPNO T00281022
0199720407004622024013001567+39928-074292FM-15+0025KMJX V0203205N00265010675MN0160935N5+00285-00225999999ADDGA1085+010675999GD14991+0106759GE19AGL   +99999+99999GF199999999999010671999999MA1101795101495REMMET09301/29/24 20:56:01 METAR KMJX 300156Z 32005KT 10SM OVC035 03/M02 A3006 RMK AO2 SLPNO T00281022
0190720407004622024013002467+39928-074292FM-15+0025KMJX V0203405N00365008845MN0160935N5+00205-00305999999ADDGA1085+008845999GD14991+0088459GE19AGL   +99999+99999GF199999999999008841999999MA1101865101565REMMET08401/29/24 21:46:01 METAR KMJX 300246Z 34007KT 10SM OVC029 02/M03 A3008 RMK AO2 FZRANO
0227720407004622024013002567+39928-074292FM-15+0025KMJX V0203405N00265008845MN0160935N5+00225-00285101935ADDGA1085+008845999GD14991+0088459GE19AGL   +99999+99999GF199999999999008841999999MA1101905101595MD1190259+9999REMMET10701/29/24 21:56:01 METAR KMJX 300256Z 34005KT 10SM OVC029 02/M03 A3009 RMK AO2 SLP193 T00221028 51025 FZRANO
0245720407004622024013003567+39928-074292FM-15+0025KMJX V0203305N00315010065MN0160935N5+00225-00285101985ADDGA1045+007625999GA2085+010065999GD12991+0076259GD24991+0100659GE19AGL   +99999+99999GF199999999999007621999999MA1101935101635REMMET10801/29/24 22:56:01 METAR KMJX 300356Z 33006KT 10SM SCT025 OVC033 02/M03 A3010 RMK AO2 SLP198 T00221028 FZRANO
0281720407004622024013004567+39928-074292FM-15+0025KMJX V0203205N00215011285MN0160935N5+00175-00225102025ADDGA1025+008535999GA2085+011285999GD11991+0085359GD24991+0112859GE19AGL   +99999+99999GF199999999999008531999999KA1240M+00391KA2240N+00171MA1102005101705REMMET11801/29/24 23:56:02 METAR KMJX 300456Z 32004KT 10SM FEW028 OVC037 02/M02 A3012 RMK AO2 SLP202 T00171022 400390017 FZRANO
0265720407004622024013005567+39928-074292FM-15+0025KMJX V0203205N00215010065MN0160935N5+00175-00225102065ADDGA1085+010065999GD14991+0100659GE19AGL   +99999+99999GF199999999999010061999999KA1060M+00331KA2060N+00171MA1102035101735MD1190149+9999REMMET11901/30/24 00:56:02 METAR KMJX 300556Z 32004KT 10SM OVC033 02/M02 A3013 RMK AO2 SLP206 T00171022 10033 20017 51014 FZRANO
0207720407004622024013006567+39928-074292FM-15+0025KMJX V0203305N00215009455MN0160935N5+00115-00225102055ADDGA1085+009455999GD14991+0094559GE19AGL   +99999+99999GF199999999999009451999999MA1102005101705REMMET10101/30/24 01:56:02 METAR KMJX 300656Z 33004KT 10SM OVC031 01/M02 A3012 RMK AO2 SLP205 T00111022 FZRANO
0190720407004622024013007107+39928-074292FM-15+0025KMJX V0203105N00265008845MN0160935N5+00105-00205999999ADDGA1085+008845999GD14991+0088459GE19AGL   +99999+99999GF199999999999008841999999MA1102035101735REMMET08401/30/24 02:10:02 METAR KMJX 300710Z 31005KT 10SM OVC029 01/M02 A3013 RMK AO2 FZRANO
0207720407004622024013007567+39928-074292FM-15+0025KMJX V0203205N00265008845MN0160935N5+00115-00225102085ADDGA1085+008845999GD14991+0088459GE19AGL   +99999+99999GF199999999999008841999999MA1102035101735REMMET10101/30/24 02:56:01 METAR KMJX 300756Z 32005KT 10SM OVC029 01/M02 A3013 RMK AO2 SLP208 T00111022 FZRANO
0227720407004622024013008567+39928-074292FM-15+0025KMJX V0203605N00265008845MN0160935N5+00115-00285102145ADDGA1085+008845999GD14991+0088459GE19AGL   +99999+99999GF199999999999008841999999MA1102105101805MD1390079+9999REMMET10701/30/24 03:56:02 METAR KMJX 300856Z 36005KT 10SM OVC029 01/M03 A3015 RMK AO2 SLP214 T00111028 53007 FZRANO
0207720407004622024013009567+39928-074292FM-15+0025KMJX V0203305N00215009455MN0160935N5+00115-00225102195ADDGA1085+009455999GD14991+0094559GE19AGL   +99999+99999GF199999999999009451999999MA1102135101835REMMET10101/30/24 04:56:02 METAR KMJX 300956Z 33004KT 10SM OVC031 01/M02 A3016 RMK AO2 SLP219 T00111022 FZRANO
0207720407004622024013010567+39928-074292FM-15+0025KMJX V0203105N00315009455MN0160935N5+00065-00225102275ADDGA1085+009455999GD14991+0094559GE19AGL   +99999+99999GF199999999999009451999999MA1102245101935REMMET10101/30/24 05:56:02 METAR KMJX 301056Z 31006KT 10SM OVC031 01/M02 A3019 RMK AO2 SLP227 T00061022 FZRANO
0282720407004622024013011567+39928-074292FM-15+0025KMJX V0203305N00365010065MN0160935N5+00065-00225102305ADDAA124999919GA1085+010065999GD14991+0100659GE19AGL   +99999+99999GF199999999999010061999999KA1060M+00171KA2060N+00061MA1102275101975MD1390119+9999REMMET12501/30/24 06:56:02 METAR KMJX 301156Z 33007KT 10SM OVC033 01/M02 A3020 RMK AO2 SLP230 7//// T00061022 10017 20006 53011 FZRANO
0207720407004622024013012567+39928-074292FM-15+0025KMJX V0203605N00155010675MN0160935N5+00115-00225102385ADDGA1085+010675999GD14991+0106759GE19AGL   +99999+99999GF199999999999010671999999MA1102345102035REMMET10101/30/24 07:56:02 METAR KMJX 301256Z 36003KT 10SM OVC035 01/M02 A3022 RMK AO2 SLP238 T00111022 FZRANO
0207720407004622024013013567+39928-074292FM-15+0025KMJX V0203505N00155009455MN0160935N5+00115-00225102425ADDGA1085+009455999GD14991+0094559GE19AGL   +99999+99999GF199999999999009451999999MA1102375102075REMMET10101/30/24 08:56:02 METAR KMJX 301356Z 35003KT 10SM OVC031 01/M02 A3023 RMK AO2 SLP242 T00111022 FZRANO
0280720407004622024013014567+39928-074292FM-15+0025KMJX V0203605N00265009455MN0160935N5+00225-00285102435ADDAA101000395AA203000391GA1085+009455999GD14991+0094559GE19AGL   +99999+99999GF199999999999009451999999MA1102375102075MD1190129+9999REMMET11901/30/24 09:56:02 METAR KMJX 301456Z 36005KT 10SM OVC031 02/M03 A3023 RMK AO2 SLP243 P0001 60001 T00221028 51012 FZRANOEQDQ01  00028PRCP03
0200720407004622024013015567+39928-074292FM-15+0025KMJX V0200205N00215009455MN0160935N5+00285-00285102415ADDGA1085+009455999GD14991+0094559GE19AGL   +99999+99999GF199999999999009451999999MA1102375102075REMMET09401/30/24 10:56:02 METAR KMJX 301556Z 02004KT 10SM OVC031 03/M03 A3023 RMK AO2 SLP241 T00281028
0200720407004622024013016567+39928-074292FM-15+0025KMJX V0200205N00215010065MN0160935N5+00335-00285102355ADDGA1085+010065999GD14991+0100659GE19AGL   +99999+99999GF199999999999010061999999MA1102305102005REMMET09401/30/24 11:56:02 METAR KMJX 301656Z 02004KT 10SM OVC033 03/M03 A3021 RMK AO2 SLP235 T00331028
0294720407004622024013017567+39928-074292FM-15+0025KMJX V0209999C00005010675MN0160935N5+00445-00285102325ADDAA106000391GA1085+010675999GD14991+0106759GE19AGL   +99999+99999GF199999999999010671999999KA1060M+00441KA2060N+00061MA1102275101975MD1890109+9999REMMET11801/30/24 12:56:02 METAR KMJX 301756Z 00000KT 10SM OVC035 04/M03 A3020 RMK AO2 SLP232 60001 T00441028 10044 20006 58010EQDQ01  00028PRCP06
0200720407004622024013018567+39928-074292FM-15+0025KMJX V0201305N00215010675MN0160935N5+00445-00225102285ADDGA1085+010675999GD14991+0106759GE19AGL   +99999+99999GF199999999999010671999999MA1102245101935REMMET09401/30/24 13:56:02 METAR KMJX 301856Z 13004KT 10SM OVC035 04/M02 A3019 RMK AO2 SLP228 T00441022
0200720407004622024013019567+39928-074292FM-15+0025KMJX V0209999V00265010675MN0160935N5+00395-00175102265ADDGA1085+010675999GD14991+0106759GE19AGL   +99999+99999GF199999999999010671999999MA1102245101935REMMET09401/30/24 14:56:02 METAR KMJX 301956Z VRB05KT 10SM OVC035 04/M02 A3019 RMK AO2 SLP226 T00391017
0221720407004622024013020097+39928-074292FM-15+0025KMJX V0200905N00215008535MN0160935N5+00405-00205999999ADDGA1075+008535999GA2085+010975999GD13991+0085359GD24991+0109759GE19AGL   +99999+99999GF199999999999008531999999MA1102245101935REMMET08401/30/24 15:09:02 METAR KMJX 302009Z 09004KT 10SM BKN028 OVC036 04/M02 A3019 RMK AO2
0221720407004622024013020187+39928-074292FM-15+0025KMJX V0200705N00265010975MN0160935N5+00405-00205999999ADDGA1045+008535999GA2085+010975999GD12991+0085359GD24991+0109759GE19AGL   +99999+99999GF199999999999008531999999MA1102205101905REMMET08401/30/24 15:18:02 METAR KMJX 302018Z 07005KT 10SM SCT028 OVC036 04/M02 A3018 RMK AO2
