0193720407004622021010100564+39933-074300FM-15+002599999V0203501N002610365819N016093199+00501+00061102721ADDGD12991+0289699GD24991+0365819GE19MSL   +99999+99999GF199999999999028961999999MA1102671999999REMMET088METAR KMJX 010056Z AUTO 35005KT 10SM SCT095 OVC120 05/01 A3032 RMK AO2 SLP272 T00500006=
0191720407004622021010101564+39933-074300FM-15+002599999V0203401N002612200059N016093199+00441-00061102831ADDGD11991+0365819GE19AGL   +99999+99999GF102995999999036581999999MA1102811999999REMMET082METAR KMJX 010156Z AUTO 34005KT 10SM FEW120 04/M01 A3036 RMK AO2 SLP283 T00441006=EQDD01      0ADE726
0152720407004622021010102564+39933-074300FM-15+002599999V0203501N003112200019N016093199+00281-00391102921ADDGF100991999999999999999999MA1102881999999MD1310231+9999REMMET085METAR KMJX 010256Z AUTO 35006KT 10SM CLR 03/M04 A3038 RMK AO2 SLP292 T00281039 53023=
0139720407004622021010103564+39933-074300FM-15+002599999V0203401N002612200019N016093199+00111-00331102991ADDGF100991999999999999999999MA1102951999999REMMET086METAR KMJX 010356Z AUTO 34005KT 10SM CLR 01/M03 A3040 RMK AO2 SLP299 T00111033 FZRANO=
0176720407004622021010104564+39933-074300FM-15+002599999V0203401N002612200019N016093199-00061-00391103031ADDGF100991999999999999999999KA1240M+01171KA2240N-00061MA1102981999999REMMET097METAR KMJX 010456Z AUTO 34005KT 10SM CLR M01/M04 A3041 RMK AO2 SLP303 T10061039 401171006 FZRANO=
0241720407004622021010105567+39928-074292FM-15+0025KMJX V0203305N002152200059N0160935N5-00225-00445103075ADDGA1005+999999999GD10991+9999999GF100991999999999999999999KA1060M+00501KA2060N-00281MA1103015102715MD1190159+9999REMMET11701/01/21 00:56:02 METAR KMJX 010556Z 33004KT 10SM CLR M02/M04 A3042 RMK AO2 SLP307 T10221044 10050 21028 51015 FZRANO
0183720407004622021010106567+39928-074292FM-15+0025KMJX V0209999C000052200059N0160935N5-00395-00565103195ADDGA1005+999999999GD10991+9999999GF100991999999999999999999MA1103155102845REMMET09901/01/21 01:56:02 METAR KMJX 010656Z 00000KT 10SM CLR M04/M06 A3046 RMK AO2 SLP319 T10391056 FZRANO
0183720407004622021010107567+39928-074292FM-15+0025KMJX V0209999C000052200059N0160935N5-00395-00565103245ADDGA1005+999999999GD10991+9999999GF100991999999999999999999MA1103185102885REMMET09901/01/21 02:56:02 METAR KMJX 010756Z 00000KT 10SM CLR M04/M06 A3047 RMK AO2 SLP324 T10391056 FZRANO
0203720407004622021010108567+39928-074292FM-15+0025KMJX V0209999C000052200059N0160935N5-00505-00615103255ADDGA1005+999999999GD10991+9999999GF100991999999999999999999MA1103225102915MD1190199+9999REMMET10501/01/21 03:56:02 METAR KMJX 010856Z 00000KT 10SM CLR M05/M06 A3048 RMK AO2 SLP325 T10501061 51019 FZRANO
0183720407004622021010109567+39928-074292FM-15+0025KMJX V0209999C000052200059N0160935N5-00445-00565103245ADDGA1005+999999999GD10991+9999999GF100991999999999999999999MA1103185102885REMMET09901/01/21 04:56:02 METAR KMJX 010956Z 00000KT 10SM CLR M04/M06 A3047 RMK AO2 SLP324 T10441056 FZRANO
0183720407004622021010110567+39928-074292FM-15+0025KMJX V0209999C000052200059N0160935N5-00505-00615103315ADDGA1005+999999999GD10991+9999999GF100991999999999999999999MA1103285102985REMMET09901/01/21 05:56:02 METAR KMJX 011056Z 00000KT 10SM CLR M05/M06 A3050 RMK AO2 SLP331 T10501061 FZRANO
0241720407004622021010111567+39928-074292FM-15+0025KMJX V0209999C000052200059N0160935N5-00565-00675103345ADDGA1005+999999999GD10991+9999999GF100991999999999999999999KA1060M-00171KA2060N-00611MA1103285102985MD1390099+9999REMMET11701/01/21 06:56:02 METAR KMJX 011156Z 00000KT 10SM CLR M06/M07 A3050 RMK AO2 SLP334 T10561067 11017 21061 53009 FZRANO
0183720407004622021010112567+39928-074292FM-15+0025KMJX V0203605N001552200059N0160935N5-00395-00505103385ADDGA1005+999999999GD10991+9999999GF100991999999999999999999MA1103355103055REMMET09901/01/21 07:56:02 METAR KMJX 011256Z 36003KT 10SM CLR M04/M05 A3052 RMK AO2 SLP338 T10391050 FZRANO
0183720407004622021010113567+39928-074292FM-15+0025KMJX V0200105N002152200059N0160935N5-00065-00335103445ADDGA1005+999999999GD10991+9999999GF100991999999999999999999MA1103395103085REMMET09901/01/21 08:56:02 METAR KMJX 011356Z 01004KT 10SM CLR M01/M03 A3053 RMK AO2 SLP344 T10061033 FZRANO
0195720407004622021010114567+39928-074292FM-15+0025KMJX V0200405N003152200059N0160935N5+00285-00175103405ADDGA1005+999999999GD10991+9999999GF100991999999999999999999MA1103355103055MD1090069+9999REMMET09701/01/21 09:56:02 METAR KMJX 011456Z 04006KT 10SM CLR 03/M02 A3052 RMK AO2 SLP340 T00281017 50006
0175720407004622021010115567+39928-074292FM-15+0025KMJX V0200805N003652200059N0160935N5+00445-00225103325ADDGA1005+999999999GD10991+9999999GF100991999999999999999999MA1103285102985REMMET09101/01/21 10:56:02 METAR KMJX 011556Z 08007KT 10SM CLR 04/M02 A3050 RMK AO2 SLP332 T00441022
0182720407004622021010116567+39928-074292FM-15+0025KMJX V0200805N004152200059N0160935N5+00505-00115103115ADDGA1005+999999999GD10991+9999999GF100991999999999999999999MA1103085102785REMMET09801/01/21 11:56:02 METAR KMJX 011656Z 08008KT 10SM CLR 05/M01 A3044 RMK AO2 PRESFR SLP311 T00501011
0276720407004622021010117567+39928-074292FM-15+0025KMJX V0200705N002152200059N0160935N5+00505+00005103035ADDGA1045+036585999GD12991+0365859GE19AGL   +99999+99999GF104995999999036581999999KA1060M+00501KA2060N-00561MA1102985102685MD1690379+9999REMMET11101/01/21 12:56:02 METAR KMJX 011756Z 07004KT 10SM SCT120 05/00 A3041 RMK AO2 SLP303 T00500000 10050 21056 56037EQDD01      0ADE726
0287720407004622021010118567+39928-074292FM-15+0025KMJX V0200605N00215028965MN0160935N5+00445+00115102985ADDAA101000021AU110020015AW1615GA1025+007925999GA2085+028965999GD11991+0079259GD24991+0289659GE19MSL   +99999+99999GF199999999999007921999999MA1102955102645MW1615REMMET11601/01/21 13:56:02 METAR KMJX 011856Z 06004KT 10SM -RA FEW026 OVC095 04/01 A3040 RMK AO2 RAB31 SLP298 P0000 T00440011
0319720407004622021010119567+39928-074292FM-15+0025KMJX V0200505N00155028965MN0160935N5+00335+00225102895ADDAA101000895AU110020015AW1615GA1025+015245999GA2045+021345999GA3085+028965999GD11991+0152459GD22991+0213459GD34991+0289659GE19MSL   +99999+99999GF199999999999015241999999MA1102845102545MW1615REMMET11701/01/21 14:56:02 METAR KMJX 011956Z 05003KT 10SM -RA FEW050 SCT070 OVC095 03/02 A3037 RMK AO2 SLP289 P0003 T00330022
0344720407004622021010120567+39928-074292FM-15+0025KMJX V0200405N00315018295MN0160935N5+00335+00225102805ADDAA101000395AA203001091AU110020015AW1615GA1075+018295999GA2085+022865999GD13991+0182959GD24991+0228659GE19MSL   +99999+99999GF199999999999018291999999MA1102745102445MD1890239+9999MW1615REMMET12901/01/21 15:56:02 METAR KMJX 012056Z 04006KT 10SM -RA BKN060 OVC075 03/02 A3034 RMK AO2 PRESFR SLP280 P0001 60004 T00330022 58023EQDQ01  00108PRCP03
0288720407004622021010121567+39928-074292FM-15+0025KMJX V0200405N00315007925MN0160935N5+00335+00285102695ADDAA101000395AU110020015AW1615GA1075+007925999GA2085+018295999GD13991+0079259GD24991+0182959GE19MSL   +99999+99999GF199999999999007921999999MA1102645102345MW1615REMMET11701/01/21 16:56:02 METAR KMJX 012156Z 04006KT 10SM -RA BKN026 OVC060 03/03 A3031 RMK AO2 PRESFR SLP269 P0001 T00330028
0301720407004622021010122047+39928-074292FM-15+0025KMJX V0200105N00215018295MN0144845N5+00305+00305999999ADDAA101000021AU110020015AW1615GA1045+007925999GA2075+018295999GA3085+022865999GD12991+0079259GD23991+0182959GD34991+0228659GE19MSL   +99999+99999GF199999999999007921999999MA1102685102375MW1615REMMET09901/01/21 17:04:02 METAR KMJX 012204Z 01004KT 9SM -RA SCT026 BKN060 OVC075 03/03 A3032 RMK AO2 P0000
0301720407004622021010122137+39928-074292FM-15+0025KMJX V0209999V00155007325MN0144845N5+00305+00305999999ADDAA101000395AU110020015AW1615GA1075+007325999GA2075+018295999GA3085+022865999GD13991+0073259GD23991+0182959GD34991+0228659GE19MSL   +99999+99999GF199999999999007321999999MA1102645102345MW1615REMMET09901/01/21 17:13:02 METAR KMJX 012213Z VRB03KT 9SM -RA BKN024 BKN060 OVC075 03/03 A3031 RMK AO2 P0001
0263720407004622021010122217+39928-074292FM-15+0025KMJX V0200305N00215019815MN0144845N5+00305+00305999999ADDAA101000595AU110020015AW1615GA1025+007325999GA2085+019815999GD11991+0073259GD24991+0198159GE19MSL   +99999+99999GF199999999999007321999999MA1102615102305MW1615REMMET09201/01/21 17:21:02 METAR KMJX 012221Z 03004KT 9SM -RA FEW024 OVC065 03/03 A3030 RMK AO2 P0002
0321720407004622021010122527+39928-074292FM-15+0025KMJX V0200605N00155007325MN0096565N5+00305+00305999999ADDAA101001895AU110020015AU200001015AW1105AW2615GA1075+007325999GA2075+014335999GA3085+016765999GD13991+0073259GD23991+0143359GD34991+0167659GE19MSL   +99999+99999GF199999999999007321999999MA1102575102275MW1615REMMET10201/01/21 17:52:02 METAR KMJX 012252Z 06003KT 6SM -RA BR BKN024 BKN047 OVC055 03/03 A3029 RMK AO2 P0007
0338720407004622021010122567+39928-074292FM-15+0025KMJX V0200505N00155014335MN0096565N5+00335+00285102635ADDAA101001895AU110020015AU200001015AW1105AW2615GA1045+007325999GA2075+014335999GA3085+016765999GD12991+0073259GD23991+0143359GD34991+0167659GE19MSL   +99999+99999GF199999999999007321999999MA1102575102275MW1615REMMET11901/01/21 17:56:02 METAR KMJX 012256Z 05003KT 6SM -RA BR SCT024 BKN047 OVC055 03/03 A3029 RMK AO2 SLP263 P0007 T00330028
0301720407004622021010123247+39928-074292FM-15+0025KMJX V0200705N00155006405MN0112655N5+00405+00305999999ADDAA101001095AU110020015AW1615GA1045+004885999GA2075+006405999GA3085+018295999GD12991+0048859GD23991+0064059GD34991+0182959GE19MSL   +99999+99999GF199999999999004881999999MA1102475102175MW1615REMMET09901/01/21 18:24:02 METAR KMJX 012324Z 07003KT 7SM -RA SCT016 BKN021 OVC060 04/03 A3026 RMK AO2 P0004
0263720407004622021010123467+39928-074292FM-15+0025KMJX V0200405N00265013115MN0112655N5+00405+00405999999ADDAA101001895AU110020015AW1615GA1045+005495999GA2085+013115999GD12991+0054959GD24991+0131159GE19MSL   +99999+99999GF199999999999005491999999MA1102445102145MW1615REMMET09201/01/21 18:46:02 METAR KMJX 012346Z 04005KT 7SM -RA SCT018 OVC043 04/04 A3025 RMK AO2 P0007
0431720407004622021010123567+39928-074292FM-15+0025KMJX V0200605N00315013115MN0096565N5+00445+00395102445ADDAA101002595AA206005691AU120020015AU200001015AW1105AW2625GA1025+005495999GA2075+013115999GA3085+016765999GD11991+0054959GD23991+0131159GD34991+0167659GE19MSL   +99999+99999GF199999999999005491999999KA1060M+00501KA2060N+00331MA1102405102105MD1890259+9999MW1655REMMET14201/01/21 18:56:02 METAR KMJX 012356Z 06006KT 6SM RA BR FEW018 BKN043 OVC055 04/04 A3024 RMK AO2 SLP244 P0010 60022 T00440039 10050 20033 58025EQDQ01  00558PRCP06
0300720407004622021010200117+39928-074292FM-15+0025KMJX V0200805N00155004575MN0112655N5+00505+00405999999ADDAA101000895AU120020015AW1625GA1045+002745999GA2075+004575999GA3085+014945999GD12991+0027459GD23991+0045759GD34991+0149459GE19MSL   +99999+99999GF199999999999002741999999MA1102375102075MW1655REMMET09801/01/21 19:11:01 METAR KMJX 020011Z 08003KT 7SM RA SCT009 BKN015 OVC049 05/04 A3023 RMK AO2 P0003
0276720407004622021010200287+39928-074292FM-15+0025KMJX V0200705N00265002745MN0160935N5+00605+00505999999ADDAA101001395AU110020015AW1615GA1075+002745999GA2085+004575999GD13991+0027451GD24991+0045759GE19MSL   +99999+99999GF199999999999002741999999MA1102305102005MW1615REMMET10501/01/21 19:28:01 METAR KMJX 020028Z 07005KT 10SM -RA BKN009 OVC015 06/05 A3021 RMK AO2 CIG 007V012 P0005
0255720407004622021010200567+39928-074292FM-15+0025KMJX V0209999V00315001835MN0160935N5+00615+00565102195ADDAA101002395AU110020015AW1615GA1085+001835999GD14991+0018351GE19MSL   +99999+99999GF199999999999001831999999MA1102135101835MW1615REMMET11501/01/21 19:56:01 METAR KMJX 020056Z VRB06KT 10SM -RA OVC006 06/06 A3016 RMK AO2 CIG 004V010 SLP219 P0009 T00610056
0261720407004622021010201567+39928-074292FM-15+0025KMJX V0201005N00365001225MN0080475N5+00675+00615102035ADDAA101002395AU120020015AU200001015AW1105AW2625GA1085+001225999GD14991+0012259GE19MSL   +99999+99999GF199999999999001221999999MA1102005101705MW1655REMMET10401/01/21 20:56:01 METAR KMJX 020156Z 10007KT 5SM RA BR OVC004 07/06 A3012 RMK AO2 SLP203 P0009 T00670061
0329720407004622021010202567+39928-074292FM-15+0025KMJX V0200605N00215001835MN0080475N5+00725+00675101955ADDAA101005395AA203009991AU120020015AU200001015AW1105AW2625GA1085+001835999GD14991+0018351GE19MSL   +99999+99999GF199999999999001831999999MA1101905101595MD1690489+9999MW1655REMMET12801/01/21 21:56:01 METAR KMJX 020256Z 06004KT 5SM RA BR OVC006 07/07 A3009 RMK AO2 CIG 003V007 SLP195 P0021 60039 T00720067 56048EQDQ01  00998PRCP03
0263720407004622021010203057+39928-074292FM-15+0025KMJX V0201005N00365001225MN0064375N5+00705+00705999999ADDAA101001095AU120020015AU200001015AW1105AW2625GA1085+001225999GD14991+0012251GE19MSL   +99999+99999GF199999999999001221999999MA1101835101535MW1655REMMET10601/01/21 22:05:01 METAR KMJX 020305Z 10007KT 4SM RA BR OVC004 07/07 A3007 RMK AO2 CIG 002V007 PRESFR P0004
0262720407004622021010203567+39928-074292FM-15+0025KMJX V0209999V00155001225MN0080475N5+00785+00725101775ADDAA101004195AU110020015AU200001015AW1105AW2615GA1085+001225999GD14991+0012259GE19MSL   +99999+99999GF199999999999001221999999MA1101735101435MW1615REMMET10501/01/21 22:56:01 METAR KMJX 020356Z VRB03KT 5SM -RA BR OVC004 08/07 A3004 RMK AO2 SLP177 P0016 T00780072
0279720407004622021010204567+39928-074292FM-15+0025KMJX V0209999V00215001225MN0160935N5+00835+00785101415ADDAA101001395AU110020015AW1615GA1085+001225999GD14991+0012259GE19MSL   +99999+99999GF199999999999001221999999KA1240M+00831KA2240N-00611MA1101355101055MW1615REMMET11301/01/21 23:56:02 METAR KMJX 020456Z VRB04KT 10SM -RA OVC004 08/08 A2993 RMK AO2 SLP141 P0005 T00830078 400831061
002772040700462202101020459O+39928-074292SOD  +0025KMJX V020999999999999999999999999999+99999+99999999999ADDAT1AU16RA  5AT2AU13BR  5
0266720407004622021010205457+39928-074292FM-15+0025KMJX V0200205N00365000615MN0040235V5+00805+00805999999ADDAA101000395AU110020015AU200001015AW1105AW2615GA1085+000615999GD14991+0006159GE19MSL   +99999+99999GF199999999999000611999999MA1101255100955MW1615REMMET10901/02/21 00:45:02 METAR KMJX 020545Z 02007KT 2 1/2SM -RA BR OVC002 08/08 A2990 RMK AO2 VIS 2V3 RAE16B41 P0001
0369720407004622021010205567+39928-074292FM-15+0025KMJX V0200105N00315000615MN0040235N5+00835+00785101295ADDAA101000395AA206015591AU110020015AU200001015AW1105AW2615GA1085+000615999GD14991+0006159GE19MSL   +99999+99999GF199999999999000611999999KA1060M+00831KA2060N+00441MA1101255100955MD1690669+9999MW1615REMMET14201/02/21 00:56:02 METAR KMJX 020556Z 01006KT 2 1/2SM -RA BR OVC002 08/08 A2990 RMK AO2 RAE16B41 SLP129 P0001 60061 T00830078 10083 20044 56066EQDQ01  01548PRCP06
0245720407004622021010206097+39928-074292FM-15+0025KMJX V0200205N00155000615MN0080475N5+00805+00805999999ADDAA101001395AU110020015AU200001015AW1105AW2615GA1085+000615999GD14991+0006159GE19MSL   +99999+99999GF199999999999000611999999MA1101225100925MW1615REMMET08801/02/21 01:09:02 METAR KMJX 020609Z 02003KT 5SM -RA BR OVC002 08/08 A2989 RMK AO2 P0005
0241720407004622021010206567+39928-074292FM-15+0025KMJX V0209999C00005000615MN0048285N5+00835+00785101155ADDAA101002095AU100001015AW1105GA1085+000615999GD14991+0006159GE19MSL   +99999+99999GF199999999999000611999999MA1101125100825REMMET10701/02/21 01:56:02 METAR KMJX 020656Z 00000KT 3SM BR OVC002 08/08 A2986 RMK AO2 RAE41 SLP115 P0008 T00830078
0255720407004622021010207077+39928-074292FM-15+0025KMJX V0203305N00215000615MN0040235N5+00805+00805999999ADDAA101000021AU110020015AU200001015AW1105AW2615GA1085+000615999GD14991+0006159GE19MSL   +99999+99999GF199999999999000611999999MA1101125100825MW1615REMMET09801/02/21 02:07:02 METAR KMJX 020707Z 33004KT 2 1/2SM -RA BR OVC002 08/08 A2986 RMK AO2 RAB06 P0000
0251720407004622021010207227+39928-074292FM-15+0025KMJX V0209999C00005000615MN0064375N5+00805+00805999999ADDAA101001395AU110020015AU200001015AW1105AW2615GA1085+000615999GD14991+0006159GE19MSL   +99999+99999GF199999999999000611999999MA1101085100785MW1615REMMET09401/02/21 02:22:02 METAR KMJX 020722Z 00000KT 4SM -RA BR OVC002 08/08 A2985 RMK AO2 RAB06 P0005
0277720407004622021010207347+39928-074292FM-15+0025KMJX V0209999C00005000615MN0040235V5+00805+00805999999ADDAA101001395AU100001015AW1105GA1075+000615999GA2085+003665999GD13991+0006159GD24991+0036659GE19MSL   +99999+99999GF199999999999000611999999MA1101055100755REMMET11201/02/21 02:34:02 METAR KMJX 020734Z 00000KT 2 1/2SM BR BKN002 OVC012 08/08 A2984 RMK AO2 VIS 1V4 RAB06E34 P0005
0277720407004622021010207387+39928-074292FM-15+0025KMJX V0209999C00005003055MN0048285N5+00805+00805999999ADDAA101001395AU100001015AW1105GA1045+000615999GA2085+003055999GD12991+0006151GD24991+0030559GE19MSL   +99999+99999GF199999999999000611999999MA1101055100755REMMET11201/02/21 02:38:02 METAR KMJX 020738Z 00000KT 3SM BR SCT002 OVC010 08/08 A2984 RMK AO2 RAB06E34 CIG 007V014 P0005
0315720407004622021010207417+39928-074292FM-15+0025KMJX V0209999C00005000615MN0032195V5+00805+00805999999ADDAA101001395AU100001015AW1105GA1075+000615999GA2075+002445999GA3085+003665999GD13991+0006159GD23991+0024459GD34991+0036659GE19MSL   +99999+99999GF199999999999000611999999MA1101055100755REMMET11901/02/21 02:41:02 METAR KMJX 020741Z 00000KT 2SM BR BKN002 BKN008 OVC012 08/08 A2984 RMK AO2 VIS 1 1/4V4 RAB06E34 P0005
0307720407004622021010207487+39928-074292FM-15+0025KMJX V0202505N00155000615MN0024145N5+00805+00705999999ADDAA101001395AU100001015AW1105GA1075+000615999GA2075+002445999GA3085+003665999GD13991+0006159GD23991+0024459GD34991+0036659GE19MSL   +99999+99999GF199999999999000611999999MA1101055100755REMMET11101/02/21 02:48:02 METAR KMJX 020748Z 25003KT 1 1/2SM BR BKN002 BKN008 OVC012 08/07 A2984 RMK AO2 RAB06E34 P0005
0294720407004622021010207567+39928-074292FM-15+0025KMJX V0202805N00215001225MN0048285N5+00785+00725101105ADDAA101001395AU100001015AW1105GA1075+001225999GA2085+003665999GD13991+0012251GD24991+0036659GE19MSL   +99999+99999GF199999999999001221999999MA1101055100755REMMET12901/02/21 02:56:02 METAR KMJX 020756Z 28004KT 3SM BR BKN004 OVC012 08/07 A2984 RMK AO2 RAB06E34 CIG 003V007 SLP110 P0005 T00780072
0300720407004622021010208567+39928-074292FM-15+0025KMJX V0209999C00005000615MN0064375N5+00725+00725100965ADDAA101000021AA203003391AU100001015AW1105GA1085+000615999GD14991+0006159GE19MSL   +99999+99999GF199999999999000611999999MA1100915100625MD1690339+9999REMMET12201/02/21 03:56:02 METAR KMJX 020856Z 00000KT 4SM BR OVC002 07/07 A2980 RMK AO2 RAB42E53 SLP096 P0000 60013 T00720072 56033EQDQ01  00338PRCP03
0221720407004622021010209167+39928-074292FM-15+0025KMJX V0209999C00005000615MN0040235V5+00705+00705999999ADDAU100001015AW1105GA1085+000615999GD14991+0006159GE19MSL   +99999+99999GF199999999999000611999999MA1100855100555REMMET09801/02/21 04:16:02 METAR KMJX 020916Z 00000KT 2 1/2SM BR OVC002 07/07 A2978 RMK AO2 VIS 1 3/4V2 1/2
0260720407004622021010209567+39928-074292FM-15+0025KMJX V0209999C00005003055MN0040235N5+00725+00675100875ADDAU100001015AW1105GA1045+000615999GA2085+003055999GD12991+0006159GD24991+0030559GE19MSL   +99999+99999GF199999999999000611999999MA1100855100555REMMET10601/02/21 04:56:02 METAR KMJX 020956Z 00000KT 2 1/2SM BR SCT002 OVC010 07/07 A2978 RMK AO2 SLP087 T00720067
0251720407004622021010210117+39928-074292FM-15+0025KMJX V0202205N00155002445MN0048285N5+00805+00705999999ADDAU100001015AW1105GA1025+000615999GA2085+002445999GD11991+0006151GD24991+0024459GE19MSL   +99999+99999GF199999999999000611999999MA1100785100485REMMET09701/02/21 05:11:02 METAR KMJX 021011Z 22003KT 3SM BR FEW002 OVC008 08/07 A2976 RMK AO2 CIG 005V011
0227720407004622021010210567+39928-074292FM-15+0025KMJX V0202505N00725001835MN0160935N5+00835+00785100865ADDAA101000395GA1085+001835999GD14991+0018359GE19MSL   +99999+99999GF199999999999001831999999MA1100815100515OC101295REMMET10201/02/21 05:56:02 METAR KMJX 021056Z 25014G25KT 10SM OVC006 08/08 A2977 RMK AO2 SLP086 P0001 T00830078
0369720407004622021010211567+39928-074292FM-15+0025KMJX V0202705N00825001835MN0160935N5+00725+00615101005ADDAA106003691AA224024691GA1085+001835999GD14991+0018359GE19MSL   +99999+99999GF199999999999001831999999KA1060M+00831KA2060N+00721MA1100955100655MD1390039+9999OC101085OD149901391260REMMET14401/02/21 06:56:02 METAR KMJX 021156Z 27016G21KT 10SM OVC006 07/06 A2981 RMK AO2 PK WND 26027/1143 SLP100 60014 70097 T00720061 10083 20072 53003EQDQ01  00358PRCP06Q02  02468PRCP24
0210720407004622021010212567+39928-074292FM-15+0025KMJX V0202705N00575002445MN0160935N5+00615+00505101035ADDGA1085+002445999GD14991+0024459GE19MSL   +99999+99999GF199999999999002441999999MA1100985100685OC100935REMMET09601/02/21 07:56:02 METAR KMJX 021256Z 27011G18KT 10SM OVC008 06/05 A2982 RMK AO2 SLP103 T00610050
0199720407004622021010213567+39928-074292FM-15+0025KMJX V0202705N00625002445MN0160935N5+00675+00565101085ADDGA1085+002445999GD14991+0024459GE19MSL   +99999+99999GF199999999999002441999999MA1101055100755REMMET09301/02/21 08:56:02 METAR KMJX 021356Z 27012KT 10SM OVC008 07/06 A2984 RMK AO2 SLP108 T00670056
0201720407004622021010214317+39928-074292FM-15+0025KMJX V0202805N005152200059N0160935N5+00805+00605999999ADDGA1045+002445999GD12991+0024459GE19AGL   +99999+99999GF104995999999002441999999MA1101055100755REMMET07601/02/21 09:31:02 METAR KMJX 021431Z 28010KT 10SM SCT008 08/06 A2984 RMK AO2EQDD01      0ADE726
0238720407004622021010214567+39928-074292FM-15+0025KMJX V0202905N006752200059N0160935N5+00835+00565101125ADDGA1025+003355999GD11991+0033559GE19AGL   +99999+99999GF102995999999003351999999MA1101085100785MD1390149+9999REMMET09901/02/21 09:56:02 METAR KMJX 021456Z 29013KT 10SM FEW011 08/06 A2985 RMK AO2 SLP112 T00830056 53014EQDD01      0ADE726
0185720407004622021010215567+39928-074292FM-15+0025KMJX V0202705N008252200059N0160935N5+01065+00615101165ADDGA1005+999999999GD10991+9999999GF100991999999999999999999MA1101125100825OC101085REMMET09301/02/21 10:56:02 METAR KMJX 021556Z 27016G21KT 10SM CLR 11/06 A2986 RMK AO2 SLP116 T01060061
0242720407004622021010216567+39928-074292FM-15+0025KMJX V0202905N00725011895MN0160935N5+01175+00445101135ADDGA1085+011895999GD14991+0118959GE19MSL   +99999+99999GF199999999999011891999999MA1101125100825OC101605OD149901591290REMMET11401/02/21 11:56:02 METAR KMJX 021656Z 29014G31KT 10SM OVC039 12/04 A2986 RMK AO2 PK WND 29031/1652 SLP113 T01170044
0300720407004622021010217567+39928-074292FM-15+0025KMJX V0202805N00985010675MN0160935N5+01175+00395101145ADDGA1085+010675999GD14991+0106759GE19MSL   +99999+99999GF199999999999010671999999KA1060M+01171KA2060N+00611MA1101125100825MD1190019+9999OC101655OD149901641280REMMET13201/02/21 12:56:02 METAR KMJX 021756Z 28019G32KT 10SM OVC035 12/04 A2986 RMK AO2 PK WND 28032/1752 SLP114 T01170039 10117 20061 51001
0242720407004622021010218567+39928-074292FM-15+0025KMJX V0203005N00825010675MN0160935N5+01115+00395101225ADDGA1085+010675999GD14991+0106759GE19MSL   +99999+99999GF199999999999010671999999MA1101195100895OC101345OD149901591280REMMET11401/02/21 13:56:02 METAR KMJX 021856Z 30016G26KT 10SM OVC035 11/04 A2988 RMK AO2 PK WND 28031/1812 SLP122 T01110039
0242720407004622021010219567+39928-074292FM-15+0025KMJX V0202905N00825010675MN0160935N5+01065+00285101385ADDGA1075+010675999GD13991+0106759GE19MSL   +99999+99999GF199999999999010671999999MA1101355101055OC101295OD149901331290REMMET11401/02/21 14:56:02 METAR KMJX 021956Z 29016G25KT 10SM BKN035 11/03 A2993 RMK AO2 PK WND 29026/1931 SLP138 T01060028
0249720407004622021010220567+39928-074292FM-15+0025KMJX V0203005N006752200059N0160935N5+01005+00335101515ADDGA1045+010065999GD12991+0100659GE19AGL   +99999+99999GF104995999999010061999999MA1101495101195MD1390379+9999OC101035REMMET10201/02/21 15:56:02 METAR KMJX 022056Z 30013G20KT 10SM SCT033 10/03 A2997 RMK AO2 SLP151 T01000033 53037EQDD01      0ADE726
0185720407004622021010221567+39928-074292FM-15+0025KMJX V0203105N005152200059N0160935N5+00835+00225101625ADDGA1005+999999999GD10991+9999999GF100991999999999999999999MA1101595101295OC100885REMMET09301/02/21 16:56:02 METAR KMJX 022156Z 31010G17KT 10SM CLR 08/02 A3000 RMK AO2 SLP162 T00830022
0174720407004622021010222567+39928-074292FM-15+0025KMJX V0203405N003152200059N0160935N5+00725+00175101755ADDGA1005+999999999GD10991+9999999GF100991999999999999999999MA1101735101435REMMET09001/02/21 17:56:02 METAR KMJX 022256Z 34006KT 10SM CLR 07/02 A3004 RMK AO2 SLP175 T00720017
0232720407004622021010223567+39928-074292FM-15+0025KMJX V0203105N004152200059N0160935N5+00615+00005101875ADDGA1005+999999999GD10991+9999999GF100991999999999999999999KA1060M+01221KA2060N+00611MA1101835101535MD1190359+9999REMMET10801/02/21 18:56:02 METAR KMJX 022356Z 31008KT 10SM CLR 06/00 A3007 RMK AO2 SLP187 T00610000 10122 20061 51035
0174720407004622021010300567+39928-074292FM-15+0025KMJX V0203205N002152200059N0160935N5+00505+00005101945ADDGA1005+999999999GD10991+9999999GF100991999999999999999999MA1101905101595REMMET09001/02/21 19:56:01 METAR KMJX 030056Z 32004KT 10SM CLR 05/00 A3009 RMK AO2 SLP194 T00500000
0174720407004622021010301567+39928-074292FM-15+0025KMJX V0203605N003152200059N0160935N5+00335+00005101985ADDGA1005+999999999GD10991+9999999GF100991999999999999999999MA1101935101635REMMET09001/02/21 20:56:01 METAR KMJX 030156Z 36006KT 10SM CLR 03/00 A3010 RMK AO2 SLP198 T00330000
0195720407004622021010302567+39928-074292FM-15+0025KMJX V0202805N001552200059N0160935N5+00285-00065101975ADDGA1005+999999999GD10991+9999999GF100991999999999999999999MA1101935101635MD1090109+9999REMMET09701/02/21 21:56:01 METAR KMJX 030256Z 28003KT 10SM CLR 03/M01 A3010 RMK AO2 SLP197 T00281006 50010
0182720407004622021010303567+39928-074292FM-15+0025KMJX V0203005N001552200059N0160935N5+00175-00115102015ADDGA1005+999999999GD10991+9999999GF100991999999999999999999MA1101965101665REMMET09801/02/21 22:56:01 METAR KMJX 030356Z 30003KT 10SM CLR 02/M01 A3011 RMK AO2 SLP201 T00171011 FZRANO
0218720407004622021010304567+39928-074292FM-15+0025KMJX V0203005N001552200059N0160935N5+00115-00175102045ADDGA1005+999999999GD10991+9999999GF100991999999999999999999KA1240M+01221KA2240N+00061MA1102005101705REMMET10801/02/21 23:56:02 METAR KMJX 030456Z 30003KT 10SM CLR 01/M02 A3012 RMK AO2 SLP204 T00111017 401220006 FZRANO
002772040700462202101030459O+39928-074292SOD  +0025KMJX V020999999999999999999999999999+99999+99999999999ADDAT1AU16RA  5AT2AU13BR  5
0260720407004622021010305567+39928-074292FM-15+0025KMJX V0200105N002652200059N0160935N5-00115-00225101965ADDGA1005+999999999GD10991+9999999GF100991999999999999999999KA1060M+00611KA2060N-00111MA1101935101635MD1890009+9999REMMET11701/03/21 00:56:02 METAR KMJX 030556Z 01005KT 10SM CLR M01/M02 A3010 RMK AO2 SLP196 T10111022 10061 21011 58000 FZRANOEQDQ010     3APC3  
0182720407004622021010306567+39928-074292FM-15+0025KMJX V0200105N002152200059N0160935N5+00005-00175101955ADDGA1005+999999999GD10991+9999999GF100991999999999999999999MA1101905101595REMMET09801/03/21 01:56:02 METAR KMJX 030656Z 01004KT 10SM CLR 00/M02 A3009 RMK AO2 SLP195 T00001017 FZRANO
0182720407004622021010307567+39928-074292FM-15+0025KMJX V0200305N002152200059N0160935N5+00115-00115101985ADDGA1005+999999999GD10991+9999999GF100991999999999999999999MA1101935101635REMMET09801/03/21 02:56:02 METAR KMJX 030756Z 03004KT 10SM CLR 01/M01 A3010 RMK AO2 SLP198 T00111011 FZRANO
0202720407004622021010308567+39928-074292FM-15+0025KMJX V0209999C000052200059N0160935N5+00115-00115102035ADDGA1005+999999999GD10991+9999999GF100991999999999999999999MA1102005101705MD1390079+9999REMMET10401/03/21 03:56:02 METAR KMJX 030856Z 00000KT 10SM CLR 01/M01 A3012 RMK AO2 SLP203 T00111011 53007 FZRANO
0188720407004622021010309567+39928-074292FM-15+0025KMJX V0200505N004652200059N0160935N5+00175+00005101725ADDGA1005+999999999GD10991+9999999GF100991999999999999999999MA1101665101365REMMET10401/03/21 04:56:02 METAR KMJX 030956Z 05009KT 10SM CLR 02/00 A3002 RMK AO2 PRESFR SLP172 T00170000 FZRANO
0193720407004622021010310237+39928-074292FM-15+0025KMJX V0200805N00465005795MN0160935N5+00405+00105999999ADDGA1075+005795999GD13991+0057959GE19MSL   +99999+99999GF199999999999005791999999MA1101665101365OC100885REMMET07901/03/21 05:23:02 METAR KMJX 031023Z 08009G17KT 10SM BKN019 04/01 A3002 RMK AO2
0182720407004622021010310547+39928-074292FM-15+0025KMJX V0200605N00365005185MN0160935N5+00405+00105999999ADDGA1085+005185999GD14991+0051859GE19MSL   +99999+99999GF199999999999005181999999MA1102005101705REMMET07601/03/21 05:54:02 METAR KMJX 031054Z 06007KT 10SM OVC017 04/01 A3012 RMK AO2
0199720407004622021010310567+39928-074292FM-15+0025KMJX V0200605N00265005185MN0160935N5+00395+00115102035ADDGA1085+005185999GD14991+0051859GE19MSL   +99999+99999GF199999999999005181999999MA1102005101705REMMET09301/03/21 05:56:02 METAR KMJX 031056Z 06005KT 10SM OVC017 04/01 A3012 RMK AO2 SLP203 T00390011
0257720407004622021010311567+39928-074292FM-15+0025KMJX V0200505N00365005185MN0160935N5+00395+00175101985ADDGA1085+005185999GD14991+0051859GE19MSL   +99999+99999GF199999999999005181999999KA1060M+00391KA2060N-00111MA1101935101635MD1090269+9999REMMET11101/03/21 06:56:02 METAR KMJX 031156Z 05007KT 10SM OVC017 04/02 A3010 RMK AO2 SLP198 T00390017 10039 21011 50026
0285720407004622021010312567+39928-074292FM-15+0025KMJX V0209999C00005005795MN0144845N5+00445+00175101995ADDAA101000021AU120020015AW1625GA1075+005795999GA2085+021345999GD13991+0057959GD24991+0213459GE19MSL   +99999+99999GF199999999999005791999999MA1101965101665MW1655REMMET11401/03/21 07:56:02 METAR KMJX 031256Z 00000KT 9SM RA BKN019 OVC070 04/02 A3011 RMK AO2 RAB39 SLP199 P0000 T00440017
0264720407004622021010313097+39928-074292FM-15+0025KMJX V0200705N00155022865MN0160935N5+00405+00205999999ADDAA101000595AU110020015AW1615GA1025+005795999GA2085+022865999GD11991+0057959GD24991+0228659GE19MSL   +99999+99999GF199999999999005791999999MA1101905101595MW1615REMMET09301/03/21 08:09:02 METAR KMJX 031309Z 07003KT 10SM -RA FEW019 OVC075 04/02 A3009 RMK AO2 P0002
0281720407004622021010313567+39928-074292FM-15+0025KMJX V0200405N00315021345MN0160935N5+00445+00395101955ADDAA101002395AU110020015AW1615GA1025+003965999GA2085+021345999GD11991+0039659GD24991+0213459GE19MSL   +99999+99999GF199999999999003961999999MA1101905101595MW1615REMMET11001/03/21 08:56:02 METAR KMJX 031356Z 04006KT 10SM -RA FEW013 OVC070 04/04 A3009 RMK AO2 SLP195 P0009 T00440039
0264720407004622021010314197+39928-074292FM-15+0025KMJX V0200505N00265005185MN0160935N5+00505+00405999999ADDAA101000895AU110020015AW1615GA1075+005185999GA2085+022865999GD13991+0051859GD24991+0228659GE19MSL   +99999+99999GF199999999999005181999999MA1101935101635MW1615REMMET09301/03/21 09:19:02 METAR KMJX 031419Z 05005KT 10SM -RA BKN017 OVC075 05/04 A3010 RMK AO2 P0003
0309720407004622021010314437+39928-074292FM-15+0025KMJX V0200305N00575003965MN0160935N5+00505+00405999999ADDAA101001395AU110020015AW1615GA1045+001835999GA2075+003965999GA3085+005495999GD12991+0018359GD23991+0039659GD34991+0054959GE19MSL   +99999+99999GF199999999999001831999999MA1101765101465MW1615REMMET10701/03/21 09:43:02 METAR KMJX 031443Z 03011KT 10SM -RA SCT006 BKN013 OVC018 05/04 A3005 RMK AO2 PRESFR P0005
0283720407004622021010314497+39928-074292FM-15+0025KMJX V0200305N00575001225MN0160935N5+00505+00405999999ADDAA101001595AU110020015AW1615GA1075+001225999GA2085+003965999GD13991+0012251GD24991+0039659GE19MSL   +99999+99999GF199999999999001221999999MA1101765101465MW1615REMMET11201/03/21 09:49:02 METAR KMJX 031449Z 03011KT 10SM -RA BKN004 OVC013 05/04 A3005 RMK AO2 CIG 003V008 PRESFR P0006
0349720407004622021010314567+39928-074292FM-15+0025KMJX V0200305N00415001225MN0160935N5+00505+00445101815ADDAA101001595AA203003891AU110020015AW1615GA1075+001225999GA2085+003965999GD13991+0012251GD24991+0039659GE19MSL   +99999+99999GF199999999999001221999999MA1101765101465MD1890179+9999MW1615REMMET13401/03/21 09:56:02 METAR KMJX 031456Z 03008KT 10SM -RA BKN004 OVC013 05/04 A3005 RMK AO2 CIG 003V008 SLP181 P0006 60015 T00500044 58017EQDQ01  00388PRCP03
0222720407004622021010315567+39928-074292FM-15+0025KMJX V0200205N00515001225MN0160935N5+00395+00335101745ADDAA101000021GA1085+001225999GD14991+0012259GE19MSL   +99999+99999GF199999999999001221999999MA1101695101395REMMET10501/03/21 10:56:02 METAR KMJX 031556Z 02010KT 10SM OVC004 04/03 A3003 RMK AO2 RAE28 SLP174 P0000 T00390033
0251720407004622021010316567+39928-074292FM-15+0025KMJX V0200205N00365001225MN0096565N5+00445+00395101455ADDAA101000021AU100001015AW1105GA1085+001225999GD14991+0012259GE19MSL   +99999+99999GF199999999999001221999999MA1101425101125REMMET11701/03/21 11:56:02 METAR KMJX 031656Z 02007KT 6SM BR OVC004 04/04 A2995 RMK AO2 RAB13E23 PRESFR SLP145 P0000 T00440039
0312720407004622021010317567+39928-074292FM-15+0025KMJX V0203605N00465001225MN0080475N5+00505+00445101345ADDAA106003891AU100001015AW1105GA1085+001225999GD14991+0012259GE19MSL   +99999+99999GF199999999999001221999999KA1060M+00501KA2060N+00391MA1101295100995MD1890479+9999REMMET11901/03/21 12:56:02 METAR KMJX 031756Z 36009KT 5SM BR OVC004 05/04 A2991 RMK AO2 SLP134 60015 T00500044 10050 20039 58047EQDQ01  00388PRCP06
0268720407004622021010318567+39928-074292FM-15+0025KMJX V0203405N00575001225MN0064375N5+00505+00445101305ADDAA101000021AU110020015AU200001015AW1105AW2615GA1085+001225999GD14991+0012259GE19MSL   +99999+99999GF199999999999001221999999MA1101255100955MW1615REMMET11101/03/21 13:56:02 METAR KMJX 031856Z 34011KT 4SM -RA BR OVC004 05/04 A2990 RMK AO2 RAB38 SLP130 P0000 T00500044
0262720407004622021010319567+39928-074292FM-15+0025KMJX V0203505N00465001225MN0080475N5+00445+00395101265ADDAA101000395AU110020015AU200001015AW1105AW2615GA1085+001225999GD14991+0012259GE19MSL   +99999+99999GF199999999999001221999999MA1101225100925MW1615REMMET10501/03/21 14:56:02 METAR KMJX 031956Z 35009KT 5SM -RA BR OVC004 04/04 A2989 RMK AO2 SLP126 P0001 T00440039
0327720407004622021010320567+39928-074292FM-15+0025KMJX V0200105N00365001225MN0080475N5+00445+00395101255ADDAA101000021AA203000391AU110020015AU200001015AW1105AW2615GA1085+001225999GD14991+0012259GE19MSL   +99999+99999GF199999999999001221999999MA1101225100925MD1690099+9999MW1615REMMET12601/03/21 15:56:02 METAR KMJX 032056Z 01007KT 5SM -RA BR OVC004 04/04 A2989 RMK AO2 RAE04B47 SLP125 P0000 60001 T00440039 56009EQDQ01  00028PRCP03
0262720407004622021010321567+39928-074292FM-15+0025KMJX V0203505N00265001225MN0096565N5+00445+00395101265ADDAA101000595AU110020015AU200001015AW1105AW2615GA1085+001225999GD14991+0012259GE19MSL   +99999+99999GF199999999999001221999999MA1101225100925MW1615REMMET10501/03/21 16:56:02 METAR KMJX 032156Z 35005KT 6SM -RA BR OVC004 04/04 A2989 RMK AO2 SLP126 P0002 T00440039
0262720407004622021010322567+39928-074292FM-15+0025KMJX V0203505N00315001225MN0080475N5+00445+00445101295ADDAA101001095AU110020015AU200001015AW1105AW2615GA1085+001225999GD14991+0012259GE19MSL   +99999+99999GF199999999999001221999999MA1101255100955MW1615REMMET10501/03/21 17:56:02 METAR KMJX 032256Z 35006KT 5SM -RA BR OVC004 04/04 A2990 RMK AO2 SLP129 P0004 T00440044
0356720407004622021010323567+39928-074292FM-15+0025KMJX V0200205N00515001225MN0048285N5+00505+00445101335ADDAA101001395AA206003091AU110020015AU200001015AW1105AW2615GA1085+001225999GD14991+0012259GE19MSL   +99999+99999GF199999999999001221999999KA1060M+00501KA2060N+00441MA1101295100995MD1390079+9999MW1615REMMET12901/03/21 18:56:02 METAR KMJX 032356Z 02010KT 3SM -RA BR OVC004 05/04 A2991 RMK AO2 SLP133 P0005 60012 T00500044 10050 20044 53007EQDQ01  00308PRCP06
0266720407004622021010400567+39928-074292FM-15+0025KMJX V0200105N00465001225MN0040235N5+00505+00445101365ADDAA101000595AU110020015AU200001015AW1105AW2615GA1085+001225999GD14991+0012259GE19MSL   +99999+99999GF199999999999001221999999MA1101325101025MW1615REMMET10901/03/21 19:56:01 METAR KMJX 040056Z 01009KT 2 1/2SM -RA BR OVC004 05/04 A2992 RMK AO2 SLP136 P0002 T00500044
0245720407004622021010401047+39928-074292FM-15+0025KMJX V0200305N00575001225MN0048285N5+00405+00405999999ADDAA101000021AU110020015AU200001015AW1105AW2615GA1085+001225999GD14991+0012259GE19MSL   +99999+99999GF199999999999001221999999MA1101325101025MW1615REMMET08801/03/21 20:04:01 METAR KMJX 040104Z 03011KT 3SM -RA BR OVC004 04/04 A2992 RMK AO2 P0000
0241720407004622021010401567+39928-074292FM-15+0025KMJX V0200205N00415001225MN0080475N5+00445+00395101335ADDAA101000395AU100001015AW1105GA1085+001225999GD14991+0012259GE19MSL   +99999+99999GF199999999999001221999999MA1101295100995REMMET10701/03/21 20:56:01 METAR KMJX 040156Z 02008KT 5SM BR OVC004 04/04 A2991 RMK AO2 RAE54 SLP133 P0001 T00440039
0324720407004622021010402567+39928-074292FM-15+0025KMJX V0200205N00365001225MN0080475N5+00445+00395101375ADDAA101000021AA203000891AU110020015AU200001015AW1105AW2615GA1085+001225999GD14991+0012259GE19MSL   +99999+99999GF199999999999001221999999MA1101325101025MD1390049+9999MW1615REMMET12301/03/21 21:56:01 METAR KMJX 040256Z 02007KT 5SM -RA BR OVC004 04/04 A2992 RMK AO2 RAB21 SLP137 P0000 60003 T00440039 53004EQDQ01  00078PRCP03
0262720407004622021010403567+39928-074292FM-15+0025KMJX V0200405N00465001225MN0064375N5+00445+00395101345ADDAA101000395AU110020015AU200001015AW1105AW2615GA1085+001225999GD14991+0012259GE19MSL   +99999+99999GF199999999999001221999999MA1101295100995MW1615REMMET10501/03/21 22:56:01 METAR KMJX 040356Z 04009KT 4SM -RA BR OVC004 04/04 A2991 RMK AO2 SLP134 P0001 T00440039
0205720407004622021010404377+39928-074292FM-15+0025KMJX V0200305N00465001835MN0160935N5+00405+00405999999ADDAA101000021GA1085+001835999GD14991+0018359GE19MSL   +99999+99999GF199999999999001831999999MA1101295100995REMMET08801/03/21 23:37:02 METAR KMJX 040437Z 03009KT 10SM OVC006 04/04 A2991 RMK AO2 RAE04 P0000
0258720407004622021010404567+39928-074292FM-15+0025KMJX V0200205N00365001835MN0160935N5+00445+00335101345ADDAA101000021GA1085+001835999GD14991+0018359GE19MSL   +99999+99999GF199999999999001831999999KA1240M+00501KA2240N-00111MA1101295100995REMMET11501/03/21 23:56:02 METAR KMJX 040456Z 02007KT 10SM OVC006 04/03 A2991 RMK AO2 RAE04 SLP134 P0000 T00440033 400501011
002772040700462202101040459O+39928-074292SOD  +0025KMJX V020999999999999999999999999999+99999+99999999999ADDAT1AU16RA  5AT2AU13BR  5
0342720407004622021010405567+39928-074292FM-15+0025KMJX V0203605N00315001835MN0112655N5+00395+00335101375ADDAA101000021AA206001091AU110020015AW1615GA1085+001835999GD14991+0018359GE19MSL   +99999+99999GF199999999999001831999999KA1060M+00501KA2060N+00391MA1101325101025MD1390019+9999MW1615REMMET13201/04/21 00:56:02 METAR KMJX 040556Z 36006KT 7SM -RA OVC006 04/03 A2992 RMK AO2 RAB46 SLP137 P0000 60004 T00390033 10050 20039 53001EQDQ01  00108PRCP06
0257720407004622021010406397+39928-074292FM-15+0025KMJX V0203505N00365001225MN0064375N5+00405+00305999999ADDAA101000021AU110020015AU200001015AW1105AW2615GA1085+001225999GD14991+0012251GE19MSL   +99999+99999GF199999999999001221999999MA1101395101095MW1615REMMET10001/04/21 01:39:02 METAR KMJX 040639Z 35007KT 4SM -RA BR OVC004 04/03 A2994 RMK AO2 CIG 003V009 P0000
0274720407004622021010406567+39928-074292FM-15+0025KMJX V0203505N00365001225MN0080475N5+00395+00335101425ADDAA101000395AU110020015AU200001015AW1105AW2615GA1085+001225999GD14991+0012251GE19MSL   +99999+99999GF199999999999001221999999MA1101395101095MW1615REMMET11701/04/21 01:56:02 METAR KMJX 040656Z 35007KT 5SM -RA BR OVC004 04/03 A2994 RMK AO2 CIG 003V007 SLP142 P0001 T00390033
0293720407004622021010407567+39928-074292FM-15+0025KMJX V0200105N00365001225MN0160935N5+00335+00225101445ADDAA101000021AU110020015AW1615GA1075+001225999GA2085+002745999GD13991+0012251GD24991+0027459GE19MSL   +99999+99999GF199999999999001221999999MA1101395101095MW1615REMMET12201/04/21 02:56:02 METAR KMJX 040756Z 01007KT 10SM -RA BKN004 OVC009 03/02 A2994 RMK AO2 CIG 003V007 SLP144 P0000 T00330022
0238720407004622021010408057+39928-074292FM-15+0025KMJX V0203605N00215001835MN0160935N5+00305+00205999999ADDAA101000021AU110020015AW1615GA1085+001835999GD14991+0018351GE19MSL   +99999+99999GF199999999999001831999999MA1101395101095MW1615REMMET09801/04/21 03:05:02 METAR KMJX 040805Z 36004KT 10SM -RA OVC006 03/02 A2994 RMK AO2 CIG 003V011 P0000
0225720407004622021010408427+39928-074292FM-15+0025KMJX V0203405N00365001225MN0160935N5+00305+00205999999ADDAA101000021GA1085+001225999GD14991+0012251GE19MSL   +99999+99999GF199999999999001221999999MA1101395101095REMMET10801/04/21 03:42:02 METAR KMJX 040842Z 34007KT 10SM OVC004 03/02 A2994 RMK AO2 RAE22UPB09E11 CIG 004V011 P0000
0225720407004622021010408517+39928-074292FM-15+0025KMJX V0203505N00365001835MN0160935N5+00305+00205999999ADDAA101000021GA1085+001835999GD14991+0018351GE19MSL   +99999+99999GF199999999999001831999999MA1101395101095REMMET10801/04/21 03:51:02 METAR KMJX 040851Z 35007KT 10SM OVC006 03/02 A2994 RMK AO2 RAE22UPB09E11 CIG 004V009 P0000
0298720407004622021010408567+39928-074292FM-15+0025KMJX V0203505N00315001225MN0160935N5+00285+00225101425ADDAA101000021AA203000391GA1085+001225999GD14991+0012251GE19MSL   +99999+99999GF199999999999001221999999MA1101395101095MD1090009+9999REMMET13701/04/21 03:56:02 METAR KMJX 040856Z 35006KT 10SM OVC004 03/02 A2994 RMK AO2 RAE22UPB09E11 CIG 004V007 SLP142 P0000 60001 T00280022 50000EQDQ01  00028PRCP03
0225720407004622021010409567+39928-074292FM-15+0025KMJX V0203305N00315001225MN0096565N5+00225+00175101495ADDAU100001015AW1105GA1085+001225999GD14991+0012259GE19MSL   +99999+99999GF199999999999001221999999MA1101465101165REMMET10201/04/21 04:56:02 METAR KMJX 040956Z 33006KT 6SM BR OVC004 02/02 A2996 RMK AO2 SLP149 T00220017 FZRANO
0274720407004622021010410567+39928-074292FM-15+0025KMJX V0203405N00215001225MN0048285N5+00225+00175101555ADDAA101000021AU120090015AU200001015AW1105AW2401AW3415GA1085+001225999GD14991+0012259GE19MSL   +99999+99999GF199999999999001221999999MA1101525101225REMMET11701/04/21 05:56:02 METAR KMJX 041056Z 34004KT 3SM UP BR OVC004 02/02 A2998 RMK AO2 UPB50 SLP155 P0000 T00220017 FZRANO
0367720407004622021010411567+39928-074292FM-15+0025KMJX V0200105N00315001225MN0112655N5+00175+00115101565ADDAA101000021AA206000391AA324008191GA1085+001225999GD14991+0012251GE19MSL   +99999+99999GF199999999999001221999999KA1060M+00391KA2060N+00171MA1101525101225MD1190149+9999REMMET15301/04/21 06:56:02 METAR KMJX 041156Z 01006KT 7SM OVC004 02/01 A2998 RMK AO2 UPE07 CIG 003V007 SLP156 P0000 60001 70032 T00170011 10039 20017 51014 FZRANOEQDQ01  00028PRCP06Q02  00818PRCP24
0200720407004622021010412177+39928-074292FM-15+0025KMJX V0203605N00265001835MN0128755N5+00205+00105999999ADDGA1085+001835999GD14991+0018351GE19MSL   +99999+99999GF199999999999001831999999MA1101525101225REMMET09401/04/21 07:17:02 METAR KMJX 041217Z 36005KT 8SM OVC006 02/01 A2998 RMK AO2 CIG 004V008 FZRANO
0188720407004622021010412277+39928-074292FM-15+0025KMJX V0203605N00215001225MN0128755N5+00205+00105999999ADDGA1085+001225999GD14991+0012259GE19MSL   +99999+99999GF199999999999001221999999MA1101525101225REMMET08201/04/21 07:27:02 METAR KMJX 041227Z 36004KT 8SM OVC004 02/01 A2998 RMK AO2 FZRANO
0205720407004622021010412567+39928-074292FM-15+0025KMJX V0203505N00215001225MN0144845N5+00175+00115101625ADDGA1085+001225999GD14991+0012259GE19MSL   +99999+99999GF199999999999001221999999MA1101595101295REMMET09901/04/21 07:56:02 METAR KMJX 041256Z 35004KT 9SM OVC004 02/01 A3000 RMK AO2 SLP162 T00170011 FZRANO
0189720407004622021010413197+39928-074292FM-15+0025KMJX V0203305N00265001835MN0160935N5+00205+00105999999ADDGA1085+001835999GD14991+0018359GE19MSL   +99999+99999GF199999999999001831999999MA1101595101295REMMET08301/04/21 08:19:02 METAR KMJX 041319Z 33005KT 10SM OVC006 02/01 A3000 RMK AO2 FZRANO
0206720407004622021010413567+39928-074292FM-15+0025KMJX V0203305N00265001835MN0160935N5+00175+00115101695ADDGA1085+001835999GD14991+0018359GE19MSL   +99999+99999GF199999999999001831999999MA1101665101365REMMET10001/04/21 08:56:02 METAR KMJX 041356Z 33005KT 10SM OVC006 02/01 A3002 RMK AO2 SLP169 T00170011 FZRANO
0238720407004622021010414567+39928-074292FM-15+0025KMJX V0203505N00315002445MN0160935N5+00225+00115101735ADDGA1085+002445999GD14991+0024451GE19MSL   +99999+99999GF199999999999002441999999MA1101695101395MD1190179+9999REMMET11801/04/21 09:56:02 METAR KMJX 041456Z 35006KT 10SM OVC008 02/01 A3003 RMK AO2 CIG 006V010 SLP173 T00220011 51017 FZRANO
0182720407004622021010415537+39928-074292FM-15+0025KMJX V0203505N00415003055MN0160935N5+00305+00105999999ADDGA1085+003055999GD14991+0030559GE19MSL   +99999+99999GF199999999999003051999999MA1101595101295REMMET07601/04/21 10:53:02 METAR KMJX 041553Z 35008KT 10SM OVC010 03/01 A3000 RMK AO2
0237720407004622021010415567+39928-074292FM-15+0025KMJX V0203605N00465003055MN0160935N5+00335+00115101655ADDGA1075+003055999GA2085+015245999GD13991+0030559GD24991+0152459GE19MSL   +99999+99999GF199999999999003051999999MA1101595101295REMMET10001/04/21 10:56:02 METAR KMJX 041556Z 36009KT 10SM BKN010 OVC050 03/01 A3000 RMK AO2 SLP165 T00330011
0199720407004622021010416567+39928-074292FM-15+0025KMJX V0203305N00155003665MN0160935N5+00395+00175101555ADDGA1085+003665999GD14991+0036659GE19MSL   +99999+99999GF199999999999003661999999MA1101495101195REMMET09301/04/21 11:56:02 METAR KMJX 041656Z 33003KT 10SM OVC012 04/02 A2997 RMK AO2 SLP155 T00390017
0220720407004622021010417237+39928-074292FM-15+0025KMJX V0200205N00215016765MN0160935N5+00405+00205999999ADDGA1045+003665999GA2085+016765999GD12991+0036659GD24991+0167659GE19MSL   +99999+99999GF199999999999003661999999MA1101465101165REMMET08301/04/21 12:23:02 METAR KMJX 041723Z 02004KT 10SM SCT012 OVC055 04/02 A2996 RMK AO2
0220720407004622021010417487+39928-074292FM-15+0025KMJX V0203205N00265004885MN0160935N5+00505+00205999999ADDGA1075+004885999GA2085+016765999GD13991+0048859GD24991+0167659GE19MSL   +99999+99999GF199999999999004881999999MA1101465101165REMMET08301/04/21 12:48:02 METAR KMJX 041748Z 32005KT 10SM BKN016 OVC055 05/02 A2996 RMK AO2
0295720407004622021010417567+39928-074292FM-15+0025KMJX V0209999V00155004885MN0160935N5+00505+00175101485ADDGA1075+004885999GA2085+016765999GD13991+0048859GD24991+0167659GE19MSL   +99999+99999GF199999999999004881999999KA1060M+00501KA2060N+00171MA1101465101165MD1890179+9999REMMET11801/04/21 12:56:02 METAR KMJX 041756Z VRB03KT 10SM BKN016 OVC055 05/02 A2996 RMK AO2 SLP148 T00500017 10050 20017 58017
0237720407004622021010418567+39928-074292FM-15+0025KMJX V0203505N00265016765MN0160935N5+00565+00175101475ADDGA1045+005495999GA2085+016765999GD12991+0054959GD24991+0167659GE19MSL   +99999+99999GF199999999999005491999999MA1101425101125REMMET10001/04/21 13:56:02 METAR KMJX 041856Z 35005KT 10SM SCT018 OVC055 06/02 A2995 RMK AO2 SLP147 T00560017
0220720407004622021010419417+39928-074292FM-15+0025KMJX V0203105N00265006715MN0160935N5+00605+00205999999ADDGA1075+006715999GA2085+015245999GD13991+0067159GD24991+0152459GE19MSL   +99999+99999GF199999999999006711999999MA1101465101165REMMET08301/04/21 14:41:02 METAR KMJX 041941Z 31005KT 10SM BKN022 OVC050 06/02 A2996 RMK AO2
0199720407004622021010419567+39928-074292FM-15+0025KMJX V0203005N00265006715MN0160935N5+00565+00175101505ADDGA1085+006715999GD14991+0067159GE19MSL   +99999+99999GF199999999999006711999999MA1101465101165REMMET09301/04/21 14:56:02 METAR KMJX 041956Z 30005KT 10SM OVC022 06/02 A2996 RMK AO2 SLP150 T00560017
0257720407004622021010420567+39928-074292FM-15+0025KMJX V0203305N00155006715MN0160935N5+00505+00225101515ADDGA1075+006715999GA2085+008845999GD13991+0067159GD24991+0088459GE19MSL   +99999+99999GF199999999999006711999999MA1101465101165MD1390029+9999REMMET10601/04/21 15:56:02 METAR KMJX 042056Z 33003KT 10SM BKN022 OVC029 05/02 A2996 RMK AO2 SLP151 T00500022 53002
0237720407004622021010421567+39928-074292FM-15+0025KMJX V0202705N00155007325MN0160935N5+00505+00285101525ADDGA1075+007325999GA2085+008845999GD13991+0073259GD24991+0088459GE19MSL   +99999+99999GF199999999999007321999999MA1101495101195REMMET10001/04/21 16:56:02 METAR KMJX 042156Z 27003KT 10SM BKN024 OVC029 05/03 A2997 RMK AO2 SLP152 T00500028
0199720407004622021010422567+39928-074292FM-15+0025KMJX V0203005N00155008845MN0160935N5+00445+00285101535ADDGA1085+008845999GD14991+0088459GE19MSL   +99999+99999GF199999999999008841999999MA1101495101195REMMET09301/04/21 17:56:02 METAR KMJX 042256Z 30003KT 10SM OVC029 04/03 A2997 RMK AO2 SLP153 T00440028
0257720407004622021010423567+39928-074292FM-15+0025KMJX V0203305N00215008845MN0160935N5+00395+00175101525ADDGA1085+008845999GD14991+0088459GE19MSL   +99999+99999GF199999999999008841999999KA1060M+00611KA2060N+00391MA1101495101195MD1090019+9999REMMET11101/04/21 18:56:02 METAR KMJX 042356Z 33004KT 10SM OVC029 04/02 A2997 RMK AO2 SLP152 T00390017 10061 20039 50001
0199720407004622021010500567+39928-074292FM-15+0025KMJX V0203005N00155008845MN0160935N5+00395+00175101525ADDGA1085+008845999GD14991+0088459GE19MSL   +99999+99999GF199999999999008841999999MA1101495101195REMMET09301/04/21 19:56:01 METAR KMJX 050056Z 30003KT 10SM OVC029 04/02 A2997 RMK AO2 SLP152 T00390017
0220720407004622021010501407+39928-074292FM-15+0025KMJX V0209999C00005013725MN0160935N5+00305+00205999999ADDGA1045+008845999GA2085+013725999GD12991+0088459GD24991+0137259GE19MSL   +99999+99999GF199999999999008841999999MA1101495101195REMMET08301/04/21 20:40:01 METAR KMJX 050140Z 00000KT 10SM SCT029 OVC045 03/02 A2997 RMK AO2
0237720407004622021010501567+39928-074292FM-15+0025KMJX V0209999C00005009755MN0160935N5+00335+00175101525ADDGA1075+009755999GA2085+013725999GD13991+0097559GD24991+0137259GE19MSL   +99999+99999GF199999999999009751999999MA1101495101195REMMET10001/04/21 20:56:01 METAR KMJX 050156Z 00000KT 10SM BKN032 OVC045 03/02 A2997 RMK AO2 SLP152 T00330017
0219720407004622021010502567+39928-074292FM-15+0025KMJX V0203105N00155013725MN0160935N5+00335+00225101495ADDGA1085+013725999GD14991+0137259GE19MSL   +99999+99999GF199999999999013721999999MA1101465101165MD1890039+9999REMMET09901/04/21 21:56:01 METAR KMJX 050256Z 31003KT 10SM OVC045 03/02 A2996 RMK AO2 SLP149 T00330022 58003
0237720407004622021010503567+39928-074292FM-15+0025KMJX V0203405N00155013115MN0160935N5+00335+00175101465ADDGA1045+010365999GA2085+013115999GD12991+0103659GD24991+0131159GE19MSL   +99999+99999GF199999999999010361999999MA1101425101125REMMET10001/04/21 22:56:01 METAR KMJX 050356Z 34003KT 10SM SCT034 OVC043 03/02 A2995 RMK AO2 SLP146 T00330017
0322720407004622021010504567+39928-074292FM-15+0025KMJX V0203205N00155014635MN0160935N5+00285+00115101435ADDAA101000021AU120090015AW1401AW2415GA1045+011895999GA2085+014635999GD12991+0118959GD24991+0146359GE19MSL   +99999+99999GF199999999999011891999999KA1240M+00611KA2240N+00171MA1101395101095REMMET12501/04/21 23:56:02 METAR KMJX 050456Z 32003KT 10SM UP SCT039 OVC048 03/01 A2994 RMK AO2 UPB56 SLP143 P0000 T00280011 400610017
003972040700462202101050459O+39928-074292SOD  +0025KMJX V020999999999999999999999999999+99999+99999999999ADDAT1AU16RA  5AT2AU13BR  5AT3AU19UP  5
0328720407004622021010505567+39928-074292FM-15+0025KMJX V0203305N00155014635MN0160935N5+00285+00115101405ADDAA101000021AA206000021GA1085+014635999GD14991+0146359GE19MSL   +99999+99999GF199999999999014631999999KA1060M+00391KA2060N+00281MA1101355101055MD1790099+9999REMMET14101/05/21 00:56:02 METAR KMJX 050556Z 33003KT 10SM OVC048 03/01 A2993 RMK AO2 UPE0458RAB0458E08 SLP140 P0000 60000 T00280011 10039 20028 57009EQDQ01  00008PRCP06
0199720407004622021010506567+39928-074292FM-15+0025KMJX V0203405N00155014025MN0160935N5+00285+00115101395ADDGA1085+014025999GD14991+0140259GE19MSL   +99999+99999GF199999999999014021999999MA1101355101055REMMET09301/05/21 01:56:02 METAR KMJX 050656Z 34003KT 10SM OVC046 03/01 A2993 RMK AO2 SLP139 T00280011
0244720407004622021010507567+39928-074292FM-15+0025KMJX V0203205N00155014025MN0160935N5+00225+00115101395ADDGA1025+011585999GA2085+014025999GD11991+0115859GD24991+0140259GE19MSL   +99999+99999GF199999999999011581999999MA1101355101055REMMET10701/05/21 02:56:02 METAR KMJX 050756Z 32003KT 10SM FEW038 OVC046 02/01 A2993 RMK AO2 SLP139 T00220011 FZRANO
0226720407004622021010508567+39928-074292FM-15+0025KMJX V0209999C00005013415MN0160935N5+00225+00115101385ADDGA1085+013415999GD14991+0134159GE19MSL   +99999+99999GF199999999999013411999999MA1101325101025MD1890029+9999REMMET10601/05/21 03:56:02 METAR KMJX 050856Z 00000KT 10SM OVC044 02/01 A2992 RMK AO2 SLP138 T00220011 58002 FZRANO
0206720407004622021010509567+39928-074292FM-15+0025KMJX V0203505N00215013415MN0160935N5+00225+00115101375ADDGA1085+013415999GD14991+0134159GE19MSL   +99999+99999GF199999999999013411999999MA1101325101025REMMET10001/05/21 04:56:02 METAR KMJX 050956Z 35004KT 10SM OVC044 02/01 A2992 RMK AO2 SLP137 T00220011 FZRANO
0206720407004622021010510567+39928-074292FM-15+0025KMJX V0203305N00215013415MN0160935N5+00225+00115101385ADDGA1085+013415999GD14991+0134159GE19MSL   +99999+99999GF199999999999013411999999MA1101325101025REMMET10001/05/21 05:56:02 METAR KMJX 051056Z 33004KT 10SM OVC044 02/01 A2992 RMK AO2 SLP138 T00220011 FZRANO
0264720407004622021010511567+39928-074292FM-15+0025KMJX V0209999C00005013415MN0160935N5+00225+00115101415ADDGA1085+013415999GD14991+0134159GE19MSL   +99999+99999GF199999999999013411999999KA1060M+00281KA2060N+00221MA1101355101055MD1390039+9999REMMET11801/05/21 06:56:02 METAR KMJX 051156Z 00000KT 10SM OVC044 02/01 A2993 RMK AO2 SLP141 T00220011 10028 20022 53003 FZRANO
0206720407004622021010512567+39928-074292FM-15+0025KMJX V0203405N00215013415MN0160935N5+00225+00115101435ADDGA1085+013415999GD14991+0134159GE19MSL   +99999+99999GF199999999999013411999999MA1101395101095REMMET10001/05/21 07:56:02 METAR KMJX 051256Z 34004KT 10SM OVC044 02/01 A2994 RMK AO2 SLP143 T00220011 FZRANO
0206720407004622021010513567+39928-074292FM-15+0025KMJX V0203405N00155014025MN0160935N5+00225+00115101455ADDGA1085+014025999GD14991+0140259GE19MSL   +99999+99999GF199999999999014021999999MA1101395101095REMMET10001/05/21 08:56:02 METAR KMJX 051356Z 34003KT 10SM OVC046 02/01 A2994 RMK AO2 SLP145 T00220011 FZRANO
0219720407004622021010514567+39928-074292FM-15+0025KMJX V0203605N00215014025MN0160935N5+00335+00115101435ADDGA1085+014025999GD14991+0140259GE19MSL   +99999+99999GF199999999999014021999999MA1101395101095MD1090029+9999REMMET09901/05/21 09:56:02 METAR KMJX 051456Z 36004KT 10SM OVC046 03/01 A2994 RMK AO2 SLP143 T00330011 50002
0220720407004622021010515547+39928-074292FM-15+0025KMJX V0203605N00265004275MN0160935N5+00405+00105999999ADDGA1075+004275999GA2085+012805999GD13991+0042759GD24991+0128059GE19MSL   +99999+99999GF199999999999004271999999MA1101325101025REMMET08301/05/21 10:54:02 METAR KMJX 051554Z 36005KT 10SM BKN014 OVC042 04/01 A2992 RMK AO2
0237720407004622021010515567+39928-074292FM-15+0025KMJX V0203605N00265004275MN0160935N5+00395+00115101365ADDGA1075+004275999GA2085+012805999GD13991+0042759GD24991+0128059GE19MSL   +99999+99999GF199999999999004271999999MA1101325101025REMMET10001/05/21 10:56:02 METAR KMJX 051556Z 36005KT 10SM BKN014 OVC042 04/01 A2992 RMK AO2 SLP136 T00390011
0220720407004622021010516217+39928-074292FM-15+0025KMJX V0203605N00215004885MN0160935N5+00405+00105999999ADDGA1075+004885999GA2085+013725999GD13991+0048859GD24991+0137259GE19MSL   +99999+99999GF199999999999004881999999MA1101295100995REMMET08301/05/21 11:21:02 METAR KMJX 051621Z 36004KT 10SM BKN016 OVC045 04/01 A2991 RMK AO2
0220720407004622021010516437+39928-074292FM-15+0025KMJX V0203505N00215013725MN0160935N5+00405+00105999999ADDGA1045+005495999GA2085+013725999GD12991+0054959GD24991+0137259GE19MSL   +99999+99999GF199999999999005491999999MA1101255100955REMMET08301/05/21 11:43:02 METAR KMJX 051643Z 35004KT 10SM SCT018 OVC045 04/01 A2990 RMK AO2
0237720407004622021010516567+39928-074292FM-15+0025KMJX V0203605N00215013725MN0160935N5+00395+00065101285ADDGA1025+005495999GA2085+013725999GD11991+0054959GD24991+0137259GE19MSL   +99999+99999GF199999999999005491999999MA1101255100955REMMET10001/05/21 11:56:02 METAR KMJX 051656Z 36004KT 10SM FEW018 OVC045 04/01 A2990 RMK AO2 SLP128 T00390006
0258720407004622021010517567+39928-074292FM-15+0025KMJX V0203405N00365014335MN0160935N5+00445-00065101235ADDGA1085+014335999GD14991+0143359GE19MSL   +99999+99999GF199999999999014331999999KA1060M+00441KA2060N+00171MA1101195100895MD1890149+9999REMMET11201/05/21 12:56:02 METAR KMJX 051756Z 34007KT 10SM OVC047 04/M01 A2988 RMK AO2 SLP123 T00441006 10044 20017 58014
0221720407004622021010518177+39928-074292FM-15+0025KMJX V0203505N00265008845MN0160935N5+00405-00105999999ADDGA1075+008845999GA2085+014335999GD13991+0088459GD24991+0143359GE19MSL   +99999+99999GF199999999999008841999999MA1101195100895REMMET08401/05/21 13:17:02 METAR KMJX 051817Z 35005KT 10SM BKN029 OVC047 04/M01 A2988 RMK AO2
0200720407004622021010518567+39928-074292FM-15+0025KMJX V0203305N00215007625MN0160935N5+00445-00065101255ADDGA1085+007625999GD14991+0076259GE19MSL   +99999+99999GF199999999999007621999999MA1101225100925REMMET09401/05/21 13:56:02 METAR KMJX 051856Z 33004KT 10SM OVC025 04/M01 A2989 RMK AO2 SLP125 T00441006
0199720407004622021010519567+39928-074292FM-15+0025KMJX V0203405N00265008235MN0160935N5+00445+00005101255ADDGA1085+008235999GD14991+0082359GE19MSL   +99999+99999GF199999999999008231999999MA1101225100925REMMET09301/05/21 14:56:02 METAR KMJX 051956Z 34005KT 10SM OVC027 04/00 A2989 RMK AO2 SLP125 T00440000
0221720407004622021010520457+39928-074292FM-15+0025KMJX V0203605N00265011585MN0160935N5+00405-00105999999ADDGA1045+008845999GA2085+011585999GD12991+0088459GD24991+0115859GE19MSL   +99999+99999GF199999999999008841999999MA1101255100955REMMET08401/05/21 15:45:02 METAR KMJX 052045Z 36005KT 10SM SCT029 OVC038 04/M01 A2990 RMK AO2
0258720407004622021010520567+39928-074292FM-15+0025KMJX V0203305N00265011585MN0160935N5+00395-00065101305ADDGA1025+008845999GA2085+011585999GD11991+0088459GD24991+0115859GE19MSL   +99999+99999GF199999999999008841999999MA1101255100955MD1390079+9999REMMET10701/05/21 15:56:02 METAR KMJX 052056Z 33005KT 10SM FEW029 OVC038 04/M01 A2990 RMK AO2 SLP130 T00391006 53007
0199720407004622021010521567+39928-074292FM-15+0025KMJX V0203105N00265012195MN0160935N5+00335+00005101365ADDGA1085+012195999GD14991+0121959GE19MSL   +99999+99999GF199999999999012191999999MA1101325101025REMMET09301/05/21 16:56:02 METAR KMJX 052156Z 31005KT 10SM OVC040 03/00 A2992 RMK AO2 SLP136 T00330000
0199720407004622021010522567+39928-074292FM-15+0025KMJX V0203105N00155013415MN0160935N5+00335+00005101415ADDGA1085+013415999GD14991+0134159GE19MSL   +99999+99999GF199999999999013411999999MA1101395101095REMMET09301/05/21 17:56:02 METAR KMJX 052256Z 31003KT 10SM OVC044 03/00 A2994 RMK AO2 SLP141 T00330000
0296720407004622021010523567+39928-074292FM-15+0025KMJX V0203005N00215016765MN0160935N5+00285-00065101475ADDGA1045+008535999GA2085+016765999GD12991+0085359GD24991+0167659GE19MSL   +99999+99999GF199999999999008531999999KA1060M+00441KA2060N+00281MA1101425101125MD1190179+9999REMMET11901/05/21 18:56:02 METAR KMJX 052356Z 30004KT 10SM SCT028 OVC055 03/M01 A2995 RMK AO2 SLP147 T00281006 10044 20028 51017
0264720407004622021010600567+39928-074292FM-15+0025KMJX V0203205N001552200059N0160935N5+00225-00065101455ADDGA1025+016765999GA2045+022865999GD11991+0167659GD22991+0228659GE19AGL   +99999+99999GF104995999999016761999999MA1101425101125REMMET10801/05/21 19:56:01 METAR KMJX 060056Z 32003KT 10SM FEW055 SCT075 02/M01 A2995 RMK AO2 SLP145 T00221006 FZRANOEQDD01      0ADE726
0283720407004622021010601567+39928-074292FM-15+0025KMJX V0203105N00155018295MN0160935N5+00005-00115101465ADDGA1045+009755999GA2075+018295999GA3075+022865999GD12991+0097559GD23991+0182959GD33991+0228659GE19MSL   +99999+99999GF199999999999009751999999MA1101425101125REMMET11501/05/21 20:56:01 METAR KMJX 060156Z 31003KT 10SM SCT032 BKN060 BKN075 00/M01 A2995 RMK AO2 SLP146 T00001011 FZRANO
0226720407004622021010602567+39928-074292FM-15+0025KMJX V0203205N00265009145MN0160935N5+00175+00005101445ADDGA1085+009145999GD14991+0091459GE19MSL   +99999+99999GF199999999999009141999999MA1101395101095MD1890039+9999REMMET10601/05/21 21:56:01 METAR KMJX 060256Z 32005KT 10SM OVC030 02/00 A2994 RMK AO2 SLP144 T00170000 58003 FZRANO
0189720407004622021010603297+39928-074292FM-15+0025KMJX V0203205N00315008535MN0160935N5+00205+00005999999ADDGA1085+008535999GD14991+0085359GE19MSL   +99999+99999GF199999999999008531999999MA1101395101095REMMET08301/05/21 22:29:01 METAR KMJX 060329Z 32006KT 10SM OVC028 02/00 A2994 RMK AO2 FZRANO
0206720407004622021010603567+39928-074292FM-15+0025KMJX V0203205N00265008535MN0160935N5+00225+00005101445ADDGA1085+008535999GD14991+0085359GE19MSL   +99999+99999GF199999999999008531999999MA1101395101095REMMET10001/05/21 22:56:01 METAR KMJX 060356Z 32005KT 10SM OVC028 02/00 A2994 RMK AO2 SLP144 T00220000 FZRANO
0182720407004622021010604257+39928-074292FM-15+0025KMJX V0203105N00265009145MN0160935N5+00305+00005999999ADDGA1085+009145999GD14991+0091459GE19MSL   +99999+99999GF199999999999009141999999MA1101395101095REMMET07601/05/21 23:25:02 METAR KMJX 060425Z 31005KT 10SM OVC030 03/00 A2994 RMK AO2
0240720407004622021010604567+39928-074292FM-15+0025KMJX V0203105N00365009145MN0160935N5+00285+00005101445ADDGA1085+009145999GD14991+0091459GE19MSL   +99999+99999GF199999999999009141999999KA1240M+00441KA2240N+00001MA1101395101095REMMET10801/05/21 23:56:02 METAR KMJX 060456Z 31007KT 10SM OVC030 03/00 A2994 RMK AO2 SLP144 T00280000 400440000 TSNO
0257720407004622021010605567+39928-074292FM-15+0025KMJX V0203105N00365009145MN0160935N5+00285+00005101445ADDGA1085+009145999GD14991+0091459GE19MSL   +99999+99999GF199999999999009141999999KA1060M+00281KA2060N+00001MA1101395101095MD1090009+9999REMMET11101/06/21 00:56:02 METAR KMJX 060556Z 31007KT 10SM OVC030 03/00 A2994 RMK AO2 SLP144 T00280000 10028 20000 50000
0199720407004622021010606567+39928-074292FM-15+0025KMJX V0203005N00315010365MN0160935N5+00285+00005101485ADDGA1085+010365999GD14991+0103659GE19MSL   +99999+99999GF199999999999010361999999MA1101425101125REMMET09301/06/21 01:56:02 METAR KMJX 060656Z 30006KT 10SM OVC034 03/00 A2995 RMK AO2 SLP148 T00280000
0206720407004622021010607567+39928-074292FM-15+0025KMJX V0203105N00265011585MN0160935N5+00225+00005101495ADDGA1085+011585999GD14991+0115859GE19MSL   +99999+99999GF199999999999011581999999MA1101465101165REMMET10001/06/21 02:56:02 METAR KMJX 060756Z 31005KT 10SM OVC038 02/00 A2996 RMK AO2 SLP149 T00220000 FZRANO
0246720407004622021010608567+39928-074292FM-15+0025KMJX V0203105N002652200059N0160935N5+00115-00115101515ADDGA1045+012805999GD12991+0128059GE19AGL   +99999+99999GF104995999999012801999999MA1101465101165MD1190079+9999REMMET10701/06/21 03:56:02 METAR KMJX 060856Z 31005KT 10SM SCT042 01/M01 A2996 RMK AO2 SLP151 T00111011 51007 FZRANOEQDD01      0ADE726
0227720407004622021010609567+39928-074292FM-15+0025KMJX V0203005N002652200059N0160935N5-00065-00175101535ADDGA1025+010065999GD11991+0100659GE19AGL   +99999+99999GF102995999999010061999999MA1101495101195REMMET10201/06/21 04:56:02 METAR KMJX 060956Z 30005KT 10SM FEW033 M01/M02 A2997 RMK AO2 SLP153 T10061017 FZRANOEQDD01      0ADE726
0183720407004622021010610567+39928-074292FM-15+0025KMJX V0202905N003152200059N0160935N5-00115-00285101555ADDGA1005+999999999GD10991+9999999GF100991999999999999999999MA1101495101195REMMET09901/06/21 05:56:02 METAR KMJX 061056Z 29006KT 10SM CLR M01/M03 A2997 RMK AO2 SLP155 T10111028 FZRANO
0240720407004622021010611567+39928-074292FM-15+0025KMJX V0203105N003652200059N0160935N5+00005-00175101585ADDGA1005+999999999GD10991+9999999GF100991999999999999999999KA1060M+00281KA2060N-00111MA1101565101265MD1390079+9999REMMET11601/06/21 06:56:02 METAR KMJX 061156Z 31007KT 10SM CLR 00/M02 A2999 RMK AO2 SLP158 T00001017 10028 21011 53007 FZRANO
0182720407004622021010612567+39928-074292FM-15+0025KMJX V0203005N003652200059N0160935N5+00065-00175101635ADDGA1005+999999999GD10991+9999999GF100991999999999999999999MA1101595101295REMMET09801/06/21 07:56:02 METAR KMJX 061256Z 30007KT 10SM CLR 01/M02 A3000 RMK AO2 SLP163 T00061017 FZRANO
0175720407004622021010613567+39928-074292FM-15+0025KMJX V0203005N004652200059N0160935N5+00285-00115101705ADDGA1005+999999999GD10991+9999999GF100991999999999999999999MA1101665101365REMMET09101/06/21 08:56:02 METAR KMJX 061356Z 30009KT 10SM CLR 03/M01 A3002 RMK AO2 SLP170 T00281011
0250720407004622021010614567+39928-074292FM-15+0025KMJX V0203105N006252200059N0160935N5+00395-00225101695ADDGA1025+009145999GD11991+0091459GE19AGL   +99999+99999GF102995999999009141999999MA1101665101365MD1090119+9999OC100935REMMET10301/06/21 09:56:02 METAR KMJX 061456Z 31012G18KT 10SM FEW030 04/M02 A3002 RMK AO2 SLP169 T00391022 50011EQDD01      0ADE726
0186720407004622021010615567+39928-074292FM-15+0025KMJX V0203205N007752200059N0160935N5+00505-00285101645ADDGA1005+999999999GD10991+9999999GF100991999999999999999999MA1101595101295OC101035REMMET09401/06/21 10:56:02 METAR KMJX 061556Z 32015G20KT 10SM CLR 05/M03 A3000 RMK AO2 SLP164 T00501028
0211720407004622021010616567+39928-074292FM-15+0025KMJX V0203205N00775027435MN0160935N5+00565-00335101595ADDGA1075+027435999GD13991+0274359GE19MSL   +99999+99999GF199999999999027431999999MA1101565101265OC101085REMMET09701/06/21 11:56:02 METAR KMJX 061656Z 32015G21KT 10SM BKN090 06/M03 A2999 RMK AO2 SLP159 T00561033
0244720407004622021010617567+39928-074292FM-15+0025KMJX V0203105N008252200059N0160935N5+00615-00335101525ADDGA1005+999999999GD10991+9999999GF100991999999999999999999KA1060M+00611KA2060N-00061MA1101495101195MD1890179+9999OC101135REMMET11201/06/21 12:56:02 METAR KMJX 061756Z 31016G22KT 10SM CLR 06/M03 A2997 RMK AO2 SLP152 T00611033 10061 21006 58017
0230720407004622021010618567+39928-074292FM-15+0025KMJX V0203005N007752200059N0160935N5+00615-00335101545ADDGA1025+012195999GD11991+0121959GE19AGL   +99999+99999GF102995999999012191999999MA1101495101195OC101085REMMET09701/06/21 13:56:02 METAR KMJX 061856Z 30015G21KT 10SM FEW040 06/M03 A2997 RMK AO2 SLP154 T00611033EQDD01      0ADE726
0262720407004622021010619567+39928-074292FM-15+0025KMJX V0203205N007752200059N0160935N5+00565-00395101615ADDGA1025+012195999GD11991+0121959GE19AGL   +99999+99999GF102995999999012191999999MA1101565101265OC101245OD149901331320REMMET11501/06/21 14:56:02 METAR KMJX 061956Z 32015G24KT 10SM FEW040 06/M04 A2999 RMK AO2 PK WND 32026/1924 SLP161 T00561039EQDD01      0ADE726
0250720407004622021010620567+39928-074292FM-15+0025KMJX V0203305N005152200059N0160935N5+00445-00395101685ADDGA1025+011895999GD11991+0118959GE19AGL   +99999+99999GF102995999999011891999999MA1101635101325MD1390159+9999OC101035REMMET10301/06/21 15:56:02 METAR KMJX 062056Z 33010G20KT 10SM FEW039 04/M04 A3001 RMK AO2 SLP168 T00441039 53015EQDD01      0ADE726
0219720407004622021010621567+39928-074292FM-15+0025KMJX V0203205N004652200059N0160935N5+00335-00395101735ADDGA1045+011895999GD12991+0118959GE19AGL   +99999+99999GF104995999999011891999999MA1101695101395REMMET09401/06/21 16:56:02 METAR KMJX 062156Z 32009KT 10SM SCT039 03/M04 A3003 RMK AO2 SLP173 T00331039EQDD01      0ADE726
0175720407004622021010622567+39928-074292FM-15+0025KMJX V0203105N004652200059N0160935N5+00285-00395101765ADDGA1005+999999999GD10991+9999999GF100991999999999999999999MA1101735101435REMMET09101/06/21 17:56:02 METAR KMJX 062256Z 31009KT 10SM CLR 03/M04 A3004 RMK AO2 SLP176 T00281039
0240720407004622021010623567+39928-074292FM-15+0025KMJX V0203305N004152200059N0160935N5+00225-00395101825ADDGA1005+999999999GD10991+9999999GF100991999999999999999999KA1060M+00611KA2060N+00221MA1101795101495MD1390159+9999REMMET11601/06/21 18:56:02 METAR KMJX 062356Z 33008KT 10SM CLR 02/M04 A3006 RMK AO2 SLP182 T00221039 10061 20022 53015 FZRANO
0182720407004622021010700567+39928-074292FM-15+0025KMJX V0203105N004152200059N0160935N5+00175-00395101855ADDGA1005+999999999GD10991+9999999GF100991999999999999999999MA1101795101495REMMET09801/06/21 19:56:01 METAR KMJX 070056Z 31008KT 10SM CLR 02/M04 A3006 RMK AO2 SLP185 T00171039 FZRANO
0182720407004622021010701567+39928-074292FM-15+0025KMJX V0203205N002652200059N0160935N5+00115-00395101855ADDGA1005+999999999GD10991+9999999GF100991999999999999999999MA1101795101495REMMET09801/06/21 20:56:01 METAR KMJX 070156Z 32005KT 10SM CLR 01/M04 A3006 RMK AO2 SLP185 T00111039 FZRANO
0202720407004622021010702567+39928-074292FM-15+0025KMJX V0203105N004152200059N0160935N5+00115-00335101825ADDGA1005+999999999GD10991+9999999GF100991999999999999999999MA1101765101465MD1890019+9999REMMET10401/06/21 21:56:01 METAR KMJX 070256Z 31008KT 10SM CLR 01/M03 A3005 RMK AO2 SLP182 T00111033 58001 FZRANO
0182720407004622021010703567+39928-074292FM-15+0025KMJX V0203005N004152200059N0160935N5+00005-00335101825ADDGA1005+999999999GD10991+9999999GF100991999999999999999999MA1101795101495REMMET09801/06/21 22:56:01 METAR KMJX 070356Z 30008KT 10SM CLR 00/M03 A3006 RMK AO2 SLP182 T00001033 FZRANO
0218720407004622021010704567+39928-074292FM-15+0025KMJX V0203205N003652200059N0160935N5+00065-00395101825ADDGA1005+999999999GD10991+9999999GF100991999999999999999999KA1240M+00611KA2240N-00111MA1101795101495REMMET10801/06/21 23:56:02 METAR KMJX 070456Z 32007KT 10SM CLR 01/M04 A3006 RMK AO2 SLP182 T00061039 400611011 FZRANO
0240720407004622021010705567+39928-074292FM-15+0025KMJX V0203105N003652200059N0160935N5+00005-00395101855ADDGA1005+999999999GD10991+9999999GF100991999999999999999999KA1060M+00221KA2060N+00001MA1101795101495MD1390039+9999REMMET11601/07/21 00:56:02 METAR KMJX 070556Z 31007KT 10SM CLR 00/M04 A3006 RMK AO2 SLP185 T00001039 10022 20000 53003 FZRANO
0182720407004622021010706567+39928-074292FM-15+0025KMJX V0203105N003652200059N0160935N5+00005-00395101915ADDGA1005+999999999GD10991+9999999GF100991999999999999999999MA1101865101565REMMET09801/07/21 01:56:02 METAR KMJX 070656Z 31007KT 10SM CLR 00/M04 A3008 RMK AO2 SLP191 T00001039 FZRANO
0183720407004622021010707567+39928-074292FM-15+0025KMJX V0203305N004152200059N0160935N5-00065-00395101895ADDGA1005+999999999GD10991+9999999GF100991999999999999999999MA1101865101565REMMET09901/07/21 02:56:02 METAR KMJX 070756Z 33008KT 10SM CLR M01/M04 A3008 RMK AO2 SLP189 T10061039 FZRANO
0203720407004622021010708567+39928-074292FM-15+0025KMJX V0203005N003652200059N0160935N5-00115-00445101885ADDGA1005+999999999GD10991+9999999GF100991999999999999999999MA1101835101535MD1090049+9999REMMET10501/07/21 03:56:02 METAR KMJX 070856Z 30007KT 10SM CLR M01/M04 A3007 RMK AO2 SLP188 T10111044 50004 FZRANO
0183720407004622021010709567+39928-074292FM-15+0025KMJX V0203105N004152200059N0160935N5-00065-00445101895ADDGA1005+999999999GD10991+9999999GF100991999999999999999999MA1101865101565REMMET09901/07/21 04:56:02 METAR KMJX 070956Z 31008KT 10SM CLR M01/M04 A3008 RMK AO2 SLP189 T10061044 FZRANO
0183720407004622021010710567+39928-074292FM-15+0025KMJX V0203205N003152200059N0160935N5-00175-00445101965ADDGA1005+999999999GD10991+9999999GF100991999999999999999999MA1101935101635REMMET09901/07/21 05:56:02 METAR KMJX 071056Z 32006KT 10SM CLR M02/M04 A3010 RMK AO2 SLP196 T10171044 FZRANO
0241720407004622021010711567+39928-074292FM-15+0025KMJX V0203005N002652200059N0160935N5-00175-00505102015ADDGA1005+999999999GD10991+9999999GF100991999999999999999999KA1060M+00061KA2060N-00171MA1101965101665MD1390139+9999REMMET11701/07/21 06:56:02 METAR KMJX 071156Z 30005KT 10SM CLR M02/M05 A3011 RMK AO2 SLP201 T10171050 10006 21017 53013 FZRANO
0183720407004622021010712567+39928-074292FM-15+0025KMJX V0203005N003152200059N0160935N5-00175-00445102085ADDGA1005+999999999GD10991+9999999GF100991999999999999999999MA1102035101735REMMET09901/07/21 07:56:02 METAR KMJX 071256Z 30006KT 10SM CLR M02/M04 A3013 RMK AO2 SLP208 T10171044 FZRANO
0193720407004622021010713567+39928-074292FM-15+0025KMJX V0203205N005752200059N0160935N5+00065-00445102105ADDGA1005+999999999GD10991+9999999GF100991999999999999999999MA1102075101765OC100825REMMET10101/07/21 08:56:02 METAR KMJX 071356Z 32011G16KT 10SM CLR 01/M04 A3014 RMK AO2 SLP210 T00061044 FZRANO
0202720407004622021010714567+39928-074292FM-15+0025KMJX V0203305N004652200059N0160935N5+00225-00505102105ADDGA1005+999999999GD10991+9999999GF100991999999999999999999MA1102075101765MD1090089+9999REMMET10401/07/21 09:56:02 METAR KMJX 071456Z 33009KT 10SM CLR 02/M05 A3014 RMK AO2 SLP210 T00221050 50008 FZRANO
0186720407004622021010715567+39928-074292FM-15+0025KMJX V0203205N007252200059N0160935N5+00335-00505102015ADDGA1005+999999999GD10991+9999999GF100991999999999999999999MA1101965101665OC100935REMMET09401/07/21 10:56:02 METAR KMJX 071556Z 32014G18KT 10SM CLR 03/M05 A3011 RMK AO2 SLP201 T00331050
0175720407004622021010716567+39928-074292FM-15+0025KMJX V0203405N005752200059N0160935N5+00445-00505101925ADDGA1005+999999999GD10991+9999999GF100991999999999999999999MA1101865101565REMMET09101/07/21 11:56:02 METAR KMJX 071656Z 34011KT 10SM CLR 04/M05 A3008 RMK AO2 SLP192 T00441050
0233720407004622021010717567+39928-074292FM-15+0025KMJX V0202905N006252200059N0160935N5+00565-00505101885ADDGA1005+999999999GD10991+9999999GF100991999999999999999999KA1060M+00561KA2060N-00221MA1101835101535MD1690229+9999REMMET10901/07/21 12:56:02 METAR KMJX 071756Z 29012KT 10SM CLR 06/M05 A3007 RMK AO2 SLP188 T00561050 10056 21022 56022
0175720407004622021010718567+39928-074292FM-15+0025KMJX V0203105N006252200059N0160935N5+00615-00505101855ADDGA1005+999999999GD10991+9999999GF100991999999999999999999MA1101795101495REMMET09101/07/21 13:56:02 METAR KMJX 071856Z 31012KT 10SM CLR 06/M05 A3006 RMK AO2 SLP185 T00611050
0175720407004622021010719567+39928-074292FM-15+0025KMJX V0203105N005752200059N0160935N5+00615-00505101885ADDGA1005+999999999GD10991+9999999GF100991999999999999999999MA1101835101535REMMET09101/07/21 14:56:02 METAR KMJX 071956Z 31011KT 10SM CLR 06/M05 A3007 RMK AO2 SLP188 T00611050
0195720407004622021010720567+39928-074292FM-15+0025KMJX V0203205N004152200059N0160935N5+00565-00505101955ADDGA1005+999999999GD10991+9999999GF100991999999999999999999MA1101905101595MD1390079+9999REMMET09701/07/21 15:56:02 METAR KMJX 072056Z 32008KT 10SM CLR 06/M05 A3009 RMK AO2 SLP195 T00561050 53007
0175720407004622021010721567+39928-074292FM-15+0025KMJX V0203205N002152200059N0160935N5+00395-00505101985ADDGA1005+999999999GD10991+9999999GF100991999999999999999999MA1101935101635REMMET09101/07/21 16:56:02 METAR KMJX 072156Z 32004KT 10SM CLR 04/M05 A3010 RMK AO2 SLP198 T00391050
0183720407004622021010722567+39928-074292FM-15+0025KMJX V0203005N001552200059N0160935N5-00175-00505101985ADDGA1005+999999999GD10991+9999999GF100991999999999999999999MA1101935101635REMMET09901/07/21 17:56:02 METAR KMJX 072256Z 30003KT 10SM CLR M02/M05 A3010 RMK AO2 SLP198 T10171050 FZRANO
0241720407004622021010723567+39928-074292FM-15+0025KMJX V0203105N001552200059N0160935N5-00175-00505102035ADDGA1005+999999999GD10991+9999999GF100991999999999999999999KA1060M+00611KA2060N-00281MA1102005101705MD1390079+9999REMMET11701/07/21 18:56:02 METAR KMJX 072356Z 31003KT 10SM CLR M02/M05 A3012 RMK AO2 SLP203 T10171050 10061 21028 53007 FZRANO
0182720407004622021010800567+39928-074292FM-15+0025KMJX V0203305N002652200059N0160935N5+00065-00615102025ADDGA1005+999999999GD10991+9999999GF100991999999999999999999MA1101965101665REMMET09801/07/21 19:56:01 METAR KMJX 080056Z 33005KT 10SM CLR 01/M06 A3011 RMK AO2 SLP202 T00061061 FZRANO
0182720407004622021010801567+39928-074292FM-15+0025KMJX V0203405N003652200059N0160935N5+00005-00615102015ADDGA1005+999999999GD10991+9999999GF100991999999999999999999MA1101965101665REMMET09801/07/21 20:56:01 METAR KMJX 080156Z 34007KT 10SM CLR 00/M06 A3011 RMK AO2 SLP201 T00001061 FZRANO
0203720407004622021010802567+39928-074292FM-15+0025KMJX V0203405N003152200059N0160935N5-00115-00565101995ADDGA1005+999999999GD10991+9999999GF100991999999999999999999MA1101965101665MD1790039+9999REMMET10501/07/21 21:56:01 METAR KMJX 080256Z 34006KT 10SM CLR M01/M06 A3011 RMK AO2 SLP199 T10111056 57003 FZRANO
0183720407004622021010803567+39928-074292FM-15+0025KMJX V0202405N002152200059N0160935N5-00225-00565102055ADDGA1005+999999999GD10991+9999999GF100991999999999999999999MA1102005101705REMMET09901/07/21 22:56:01 METAR KMJX 080356Z 24004KT 10SM CLR M02/M06 A3012 RMK AO2 SLP205 T10221056 FZRANO
0219720407004622021010804567+39928-074292FM-15+0025KMJX V0202605N001552200059N0160935N5-00335-00615102015ADDGA1005+999999999GD10991+9999999GF100991999999999999999999KA1240M+00611KA2240N-00391MA1101965101665REMMET10901/07/21 23:56:02 METAR KMJX 080456Z 26003KT 10SM CLR M03/M06 A3011 RMK AO2 SLP201 T10331061 400611039 FZRANO
0241720407004622021010805567+39928-074292FM-15+0025KMJX V0203305N002652200059N0160935N5-00285-00565101925ADDGA1005+999999999GD10991+9999999GF100991999999999999999999KA1060M+00061KA2060N-00391MA1101865101565MD1890079+9999REMMET11701/08/21 00:56:02 METAR KMJX 080556Z 33005KT 10SM CLR M03/M06 A3008 RMK AO2 SLP192 T10281056 10006 21039 58007 FZRANO
0183720407004622021010806567+39928-074292FM-15+0025KMJX V0202605N002152200059N0160935N5-00395-00675101965ADDGA1005+999999999GD10991+9999999GF100991999999999999999999MA1101935101635REMMET09901/08/21 01:56:01 METAR KMJX 080656Z 26004KT 10SM CLR M04/M07 A3010 RMK AO2 SLP196 T10391067 FZRANO
0183720407004622021010807567+39928-074292FM-15+0025KMJX V0202205N002152200059N0160935N5-00505-00725101945ADDGA1005+999999999GD10991+9999999GF100991999999999999999999MA1101905101595REMMET09901/08/21 02:56:01 METAR KMJX 080756Z 22004KT 10SM CLR M05/M07 A3009 RMK AO2 SLP194 T10501072 FZRANO
0203720407004622021010808567+39928-074292FM-15+0025KMJX V0209999C000052200059N0160935N5-00445-00615101845ADDGA1005+999999999GD10991+9999999GF100991999999999999999999MA1101795101495MD1890089+9999REMMET10501/08/21 03:56:02 METAR KMJX 080856Z 00000KT 10SM CLR M04/M06 A3006 RMK AO2 SLP184 T10441061 58008 FZRANO
0183720407004622021010809567+39928-074292FM-15+0025KMJX V0202905N001552200059N0160935N5-00565-00675101865ADDGA1005+999999999GD10991+9999999GF100991999999999999999999MA1101835101535REMMET09901/08/21 04:56:01 METAR KMJX 080956Z 29003KT 10SM CLR M06/M07 A3007 RMK AO2 SLP186 T10561067 FZRANO
0183720407004622021010810567+39928-074292FM-15+0025KMJX V0203505N002652200059N0160935N5-00335-00565101795ADDGA1005+999999999GD10991+9999999GF100991999999999999999999MA1101765101465REMMET09901/08/21 05:56:01 METAR KMJX 081056Z 35005KT 10SM CLR M03/M06 A3005 RMK AO2 SLP179 T10331056 FZRANO
0241720407004622021010811567+39928-074292FM-15+0025KMJX V0202705N001552200059N0160935N5-00395-00615101815ADDGA1005+999999999GD10991+9999999GF100991999999999999999999KA1060M-00281KA2060N-00561MA1101765101465MD1890029+9999REMMET11701/08/21 06:56:01 METAR KMJX 081156Z 27003KT 10SM CLR M04/M06 A3005 RMK AO2 SLP181 T10391061 11028 21056 58002 FZRANO
0183720407004622021010812567+39928-074292FM-15+0025KMJX V0209999C000052200059N0160935N5-00505-00675101855ADDGA1005+999999999GD10991+9999999GF100991999999999999999999MA1101795101495REMMET09901/08/21 07:56:02 METAR KMJX 081256Z 00000KT 10SM CLR M05/M07 A3006 RMK AO2 SLP185 T10501067 FZRANO
0183720407004622021010813567+39928-074292FM-15+0025KMJX V0203505N002652200059N0160935N5-00285-00565101735ADDGA1005+999999999GD10991+9999999GF100991999999999999999999MA1101695101395REMMET09901/08/21 08:56:01 METAR KMJX 081356Z 35005KT 10SM CLR M03/M06 A3003 RMK AO2 SLP173 T10281056 FZRANO
0203720407004622021010814567+39928-074292FM-15+0025KMJX V0203105N002152200059N0160935N5-00065-00445101795ADDGA1005+999999999GD10991+9999999GF100991999999999999999999MA1101765101465MD1590029+9999REMMET10501/08/21 09:56:01 METAR KMJX 081456Z 31004KT 10SM CLR M01/M04 A3005 RMK AO2 SLP179 T10061044 55002 FZRANO
0182720407004622021010815567+39928-074292FM-15+0025KMJX V0209999V001552200059N0160935N5+00115-00565101805ADDGA1005+999999999GD10991+9999999GF100991999999999999999999MA1101765101465REMMET09801/08/21 10:56:01 METAR KMJX 081556Z VRB03KT 10SM CLR 01/M06 A3005 RMK AO2 SLP180 T00111056 FZRANO
0182720407004622021010816567+39928-074292FM-15+0025KMJX V0203105N003152200059N0160935N5+00115-00565101655ADDGA1005+999999999GD10991+9999999GF100991999999999999999999MA1101595101295REMMET09801/08/21 11:56:01 METAR KMJX 081656Z 31006KT 10SM CLR 01/M06 A3000 RMK AO2 SLP165 T00111056 FZRANO
0240720407004622021010817567+39928-074292FM-15+0025KMJX V0203005N002652200059N0160935N5+00175-00565101475ADDGA1005+999999999GD10991+9999999GF100991999999999999999999KA1060M+00171KA2060N-00561MA1101425101125MD1890329+9999REMMET11601/08/21 12:56:01 METAR KMJX 081756Z 30005KT 10SM CLR 02/M06 A2995 RMK AO2 SLP147 T00171056 10017 21056 58032 FZRANO
0182720407004622021010818567+39928-074292FM-15+0025KMJX V0203305N002152200059N0160935N5+00115-00565101455ADDGA1005+999999999GD10991+9999999GF100991999999999999999999MA1101425101125REMMET09801/08/21 13:56:02 METAR KMJX 081856Z 33004KT 10SM CLR 01/M06 A2995 RMK AO2 SLP145 T00111056 FZRANO
0182720407004622021010819567+39928-074292FM-15+0025KMJX V0203105N003652200059N0160935N5+00115-00505101385ADDGA1005+999999999GD10991+9999999GF100991999999999999999999MA1101355101055REMMET09801/08/21 14:56:01 METAR KMJX 081956Z 31007KT 10SM CLR 01/M05 A2993 RMK AO2 SLP138 T00111050 FZRANO
0202720407004622021010820567+39928-074292FM-15+0025KMJX V0203105N002152200059N0160935N5+00065-00505101405ADDGA1005+999999999GD10991+9999999GF100991999999999999999999MA1101355101055MD1590069+9999REMMET10401/08/21 15:56:02 METAR KMJX 082056Z 31004KT 10SM CLR 01/M05 A2993 RMK AO2 SLP140 T00061050 55006 FZRANO
0182720407004622021010821567+39928-074292FM-15+0025KMJX V0203405N001552200059N0160935N5+00005-00505101345ADDGA1005+999999999GD10991+9999999GF100991999999999999999999MA1101295100995REMMET09801/08/21 16:56:02 METAR KMJX 082156Z 34003KT 10SM CLR 00/M05 A2991 RMK AO2 SLP134 T00001050 FZRANO
0183720407004622021010822567+39928-074292FM-15+0025KMJX V0209999C000052200059N0160935N5-00065-00445101335ADDGA1005+999999999GD10991+9999999GF100991999999999999999999MA1101295100995REMMET09901/08/21 17:56:02 METAR KMJX 082256Z 00000KT 10SM CLR M01/M04 A2991 RMK AO2 SLP133 T10061044 FZRANO
0241720407004622021010823567+39928-074292FM-15+0025KMJX V0209999C000052200059N0160935N5-00065-00445101325ADDGA1005+999999999GD10991+9999999GF100991999999999999999999KA1060M+00171KA2060N-00111MA1101295100995MD1690099+9999REMMET11701/08/21 18:56:02 METAR KMJX 082356Z 00000KT 10SM CLR M01/M04 A2991 RMK AO2 SLP132 T10061044 10017 21011 56009 FZRANO
0182720407004622021010900567+39928-074292FM-15+0025KMJX V0203305N002652200059N0160935N5+00005-00445101255ADDGA1005+999999999GD10991+9999999GF100991999999999999999999MA1101225100925REMMET09801/08/21 19:56:01 METAR KMJX 090056Z 33005KT 10SM CLR 00/M04 A2989 RMK AO2 SLP125 T00001044 FZRANO
0183720407004622021010901567+39928-074292FM-15+0025KMJX V0203505N002152200059N0160935N5-00065-00445101185ADDGA1005+999999999GD10991+9999999GF100991999999999999999999MA1101155100855REMMET09901/08/21 20:56:01 METAR KMJX 090156Z 35004KT 10SM CLR M01/M04 A2987 RMK AO2 SLP118 T10061044 FZRANO
0203720407004622021010902567+39928-074292FM-15+0025KMJX V0203205N001552200059N0160935N5-00115-00505101145ADDGA1005+999999999GD10991+9999999GF100991999999999999999999MA1101085100785MD1690189+9999REMMET10501/08/21 21:56:01 METAR KMJX 090256Z 32003KT 10SM CLR M01/M05 A2985 RMK AO2 SLP114 T10111050 56018 FZRANO
0183720407004622021010903567+39928-074292FM-15+0025KMJX V0203605N003652200059N0160935N5-00115-00505101115ADDGA1005+999999999GD10991+9999999GF100991999999999999999999MA1101085100785REMMET09901/08/21 22:56:01 METAR KMJX 090356Z 36007KT 10SM CLR M01/M05 A2985 RMK AO2 SLP111 T10111050 FZRANO
0219720407004622021010904567+39928-074292FM-15+0025KMJX V0203505N005152200059N0160935N5-00065-00565101065ADDGA1005+999999999GD10991+9999999GF100991999999999999999999KA1240M+00171KA2240N-00561MA1101025100725REMMET10901/08/21 23:56:02 METAR KMJX 090456Z 35010KT 10SM CLR M01/M06 A2983 RMK AO2 SLP106 T10061056 400171056 FZRANO
0241720407004622021010905567+39928-074292FM-15+0025KMJX V0203505N003652200059N0160935N5-00175-00615101065ADDGA1005+999999999GD10991+9999999GF100991999999999999999999KA1060M+00001KA2060N-00171MA1101025100725MD1690089+9999REMMET11701/09/21 00:56:02 METAR KMJX 090556Z 35007KT 10SM CLR M02/M06 A2983 RMK AO2 SLP106 T10171061 10000 21017 56008 FZRANO
0183720407004622021010906567+39928-074292FM-15+0025KMJX V0203505N003652200059N0160935N5-00225-00675101105ADDGA1005+999999999GD10991+9999999GF100991999999999999999999MA1101055100755REMMET09901/09/21 01:56:02 METAR KMJX 090656Z 35007KT 10SM CLR M02/M07 A2984 RMK AO2 SLP110 T10221067 FZRANO
0183720407004622021010907567+39928-074292FM-15+0025KMJX V0203605N004652200059N0160935N5-00225-00725101075ADDGA1005+999999999GD10991+9999999GF100991999999999999999999MA1101025100725REMMET09901/09/21 02:56:02 METAR KMJX 090756Z 36009KT 10SM CLR M02/M07 A2983 RMK AO2 SLP107 T10221072 FZRANO
0214720407004622021010908567+39928-074292FM-15+0025KMJX V0203505N006252200059N0160935N5-00225-00785101075ADDGA1005+999999999GD10991+9999999GF100991999999999999999999MA1101025100725MD1090019+9999OC100885REMMET10801/09/21 03:56:02 METAR KMJX 090856Z 35012G17KT 10SM CLR M02/M08 A2983 RMK AO2 SLP107 T10221078 50001 FZRANO
0183720407004622021010909567+39928-074292FM-15+0025KMJX V0203505N004652200059N0160935N5-00335-00895101085ADDGA1005+999999999GD10991+9999999GF100991999999999999999999MA1101055100755REMMET09901/09/21 04:56:02 METAR KMJX 090956Z 35009KT 10SM CLR M03/M09 A2984 RMK AO2 SLP108 T10331089 FZRANO
0194720407004622021010910567+39928-074292FM-15+0025KMJX V0203405N003652200059N0160935N5-00395-00945101115ADDGA1005+999999999GD10991+9999999GF100991999999999999999999MA1101055100755OC100825REMMET10201/09/21 05:56:02 METAR KMJX 091056Z 34007G16KT 10SM CLR M04/M09 A2984 RMK AO2 SLP111 T10391094 FZRANO
0241720407004622021010911567+39928-074292FM-15+0025KMJX V0203305N004152200059N0160935N5-00445-00945101145ADDGA1005+999999999GD10991+9999999GF100991999999999999999999KA1060M-00171KA2060N-00441MA1101085100785MD1390079+9999REMMET11701/09/21 06:56:02 METAR KMJX 091156Z 33008KT 10SM CLR M04/M09 A2985 RMK AO2 SLP114 T10441094 11017 21044 53007 FZRANO
0183720407004622021010912567+39928-074292FM-15+0025KMJX V0203305N004652200059N0160935N5-00445-00945101225ADDGA1005+999999999GD10991+9999999GF100991999999999999999999MA1101195100895REMMET09901/09/21 07:56:02 METAR KMJX 091256Z 33009KT 10SM CLR M04/M09 A2988 RMK AO2 SLP122 T10441094 FZRANO
0183720407004622021010913567+39928-074292FM-15+0025KMJX V0203505N005152200059N0160935N5-00335-00945101295ADDGA1005+999999999GD10991+9999999GF100991999999999999999999MA1101255100955REMMET09901/09/21 08:56:02 METAR KMJX 091356Z 35010KT 10SM CLR M03/M09 A2990 RMK AO2 SLP129 T10331094 FZRANO
0203720407004622021010914567+39928-074292FM-15+0025KMJX V0203605N007252200059N0160935N5-00175-00945101315ADDGA1005+999999999GD10991+9999999GF100991999999999999999999MA1101255100955MD1190179+9999REMMET10501/09/21 09:56:02 METAR KMJX 091456Z 36014KT 10SM CLR M02/M09 A2990 RMK AO2 SLP131 T10171094 51017 FZRANO
0182720407004622021010915567+39928-074292FM-15+0025KMJX V0203305N006752200059N0160935N5+00005-00945101275ADDGA1005+999999999GD10991+9999999GF100991999999999999999999MA1101225100925REMMET09801/09/21 10:56:02 METAR KMJX 091556Z 33013KT 10SM CLR 00/M09 A2989 RMK AO2 SLP127 T00001094 FZRANO
0193720407004622021010916567+39928-074292FM-15+0025KMJX V0203405N004652200059N0160935N5+00115-01065101205ADDGA1005+999999999GD10991+9999999GF100991999999999999999999MA1101155100855OC100775REMMET10101/09/21 11:56:02 METAR KMJX 091656Z 34009G15KT 10SM CLR 01/M11 A2987 RMK AO2 SLP120 T00111106 FZRANO
0333720407004622021010917567+39928-074292FM-15+0025KMJX V0203605N006252200059N0160935N5+00175-01065101185ADDGA1045+014635999GA2045+019815999GD12991+0146359GD22991+0198159GE19AGL   +99999+99999GF104995999999014631999999KA1060M+00221KA2060N-00501MA1101155100855MD1690139+9999OC100985REMMET12901/09/21 12:56:02 METAR KMJX 091756Z 36012G19KT 10SM SCT048 SCT065 02/M11 A2987 RMK AO2 SLP118 T00171106 10022 21050 56013 FZRANOEQDD01      0ADE726
0238720407004622021010918567+39928-074292FM-15+0025KMJX V0203305N00575025915MN0160935N5+00335-00895101195ADDGA1045+012805999GA2085+025915999GD12991+0128059GD24991+0259159GE19MSL   +99999+99999GF199999999999012801999999MA1101155100855REMMET10101/09/21 13:56:02 METAR KMJX 091856Z 33011KT 10SM SCT042 OVC085 03/M09 A2987 RMK AO2 SLP119 T00331089
0249720407004622021010919567+39928-074292FM-15+0025KMJX V0203405N00675012805MN0160935N5+00285-00835101245ADDGA1075+012805999GA2085+025915999GD13991+0128059GD24991+0259159GE19MSL   +99999+99999GF199999999999012801999999MA1101195100895OC100825REMMET10401/09/21 14:56:02 METAR KMJX 091956Z 34013G16KT 10SM BKN042 OVC085 03/M08 A2988 RMK AO2 SLP124 T00281083
0269720407004622021010920567+39928-074292FM-15+0025KMJX V0203205V00625012505MN0160935N5+00285-00725101275ADDGA1075+012505999GA2085+022865999GD13991+0125059GD24991+0228659GE19MSL   +99999+99999GF199999999999012501999999MA1101225100925MD1390099+9999OC100935REMMET11001/09/21 15:56:02 METAR KMJX 092056Z 32012G18KT 10SM BKN041 OVC075 03/M07 A2989 RMK AO2 SLP127 T00281072 53009
0207720407004622021010921567+39928-074292FM-15+0025KMJX V0203305N00365012505MN0160935N5+00225-00895101345ADDGA1085+012505999GD14991+0125059GE19MSL   +99999+99999GF199999999999012501999999MA1101295100995REMMET10101/09/21 16:56:02 METAR KMJX 092156Z 33007KT 10SM OVC041 02/M09 A2991 RMK AO2 SLP134 T00221089 FZRANO
0207720407004622021010922567+39928-074292FM-15+0025KMJX V0203205N00315014945MN0160935N5+00225-01005101385ADDGA1085+014945999GD14991+0149459GE19MSL   +99999+99999GF199999999999014941999999MA1101355101055REMMET10101/09/21 17:56:02 METAR KMJX 092256Z 32006KT 10SM OVC049 02/M10 A2993 RMK AO2 SLP138 T00221100 FZRANO
0341720407004622021010923567+39928-074292FM-15+0025KMJX V0203305N00265021345MN0160935N5+00225-01005101455ADDGA1045+018295999GA2075+021345999GA3085+027435999GD12991+0182959GD23991+0213459GD34991+0274359GE19MSL   +99999+99999GF199999999999018291999999KA1060M+00331KA2060N+00221MA1101395101095MD1190189+9999REMMET13301/09/21 18:56:02 METAR KMJX 092356Z 33005KT 10SM SCT060 BKN070 OVC090 02/M10 A2994 RMK AO2 SLP145 T00221100 10033 20022 51018 FZRANO
0207720407004622021011000567+39928-074292FM-15+0025KMJX V0203205N00315022865MN0160935N5+00225-01005101465ADDGA1085+022865999GD14991+0228659GE19MSL   +99999+99999GF199999999999022861999999MA1101425101125REMMET10101/09/21 19:56:01 METAR KMJX 100056Z 32006KT 10SM OVC075 02/M10 A2995 RMK AO2 SLP146 T00221100 FZRANO
0200720407004622021011001567+39928-074292FM-15+0025KMJX V0203305N00415024385MN0160935N5+00285-00835101505ADDGA1085+024385999GD14991+0243859GE19MSL   +99999+99999GF199999999999024381999999MA1101465101165REMMET09401/09/21 20:56:01 METAR KMJX 100156Z 33008KT 10SM OVC080 03/M08 A2996 RMK AO2 SLP150 T00281083
0220720407004622021011002567+39928-074292FM-15+0025KMJX V0203305N00465024385MN0160935N5+00285-00725101545ADDGA1075+024385999GD13991+0243859GE19MSL   +99999+99999GF199999999999024381999999MA1101495101195MD1390109+9999REMMET10001/09/21 21:56:01 METAR KMJX 100256Z 33009KT 10SM BKN080 03/M07 A2997 RMK AO2 SLP154 T00281072 53010
0219720407004622021011003567+39928-074292FM-15+0025KMJX V0203305N004152200059N0160935N5+00285-00675101615ADDGA1045+022865999GD12991+0228659GE19AGL   +99999+99999GF104995999999022861999999MA1101565101265REMMET09401/09/21 22:56:01 METAR KMJX 100356Z 33008KT 10SM SCT075 03/M07 A2999 RMK AO2 SLP161 T00281067EQDD01      0ADE726
0218720407004622021011004567+39928-074292FM-15+0025KMJX V0203405N003652200059N0160935N5+00175-00675101665ADDGA1005+999999999GD10991+9999999GF100991999999999999999999KA1240M+00331KA2240N-00501MA1101635101325REMMET10801/09/21 23:56:02 METAR KMJX 100456Z 34007KT 10SM CLR 02/M07 A3001 RMK AO2 SLP166 T00171067 400331050 FZRANO
0240720407004622021011005567+39928-074292FM-15+0025KMJX V0203305N004152200059N0160935N5+00065-00725101735ADDGA1005+999999999GD10991+9999999GF100991999999999999999999KA1060M+00331KA2060N+00061MA1101695101395MD1390199+9999REMMET11601/10/21 00:56:02 METAR KMJX 100556Z 33008KT 10SM CLR 01/M07 A3003 RMK AO2 SLP173 T00061072 10033 20006 53019 FZRANO
0183720407004622021011006567+39928-074292FM-15+0025KMJX V0203105N002652200059N0160935N5-00065-00675101865ADDGA1005+999999999GD10991+9999999GF100991999999999999999999MA1101835101535REMMET09901/10/21 01:56:02 METAR KMJX 100656Z 31005KT 10SM CLR M01/M07 A3007 RMK AO2 SLP186 T10061067 FZRANO
0183720407004622021011007567+39928-074292FM-15+0025KMJX V0203205N003152200059N0160935N5-00115-00675101925ADDGA1005+999999999GD10991+9999999GF100991999999999999999999MA1101865101565REMMET09901/10/21 02:56:02 METAR KMJX 100756Z 32006KT 10SM CLR M01/M07 A3008 RMK AO2 SLP192 T10111067 FZRANO
0203720407004622021011008567+39928-074292FM-15+0025KMJX V0203405N003152200059N0160935N5-00115-00785101935ADDGA1005+999999999GD10991+9999999GF100991999999999999999999MA1101905101595MD1190199+9999REMMET10501/10/21 03:56:02 METAR KMJX 100856Z 34006KT 10SM CLR M01/M08 A3009 RMK AO2 SLP193 T10111078 51019 FZRANO
0183720407004622021011009567+39928-074292FM-15+0025KMJX V0203105N002652200059N0160935N5-00175-00785101995ADDGA1005+999999999GD10991+9999999GF100991999999999999999999MA1101935101635REMMET09901/10/21 04:56:02 METAR KMJX 100956Z 31005KT 10SM CLR M02/M08 A3010 RMK AO2 SLP199 T10171078 FZRANO
0183720407004622021011010567+39928-074292FM-15+0025KMJX V0203205N001552200059N0160935N5-00285-00785102045ADDGA1005+999999999GD10991+9999999GF100991999999999999999999MA1102005101705REMMET09901/10/21 05:56:02 METAR KMJX 101056Z 32003KT 10SM CLR M03/M08 A3012 RMK AO2 SLP204 T10281078 FZRANO
0241720407004622021011011567+39928-074292FM-15+0025KMJX V0203105N002152200059N0160935N5-00335-00785102115ADDGA1005+999999999GD10991+9999999GF100991999999999999999999KA1060M+00061KA2060N-00331MA1102075101765MD1390199+9999REMMET11701/10/21 06:56:02 METAR KMJX 101156Z 31004KT 10SM CLR M03/M08 A3014 RMK AO2 SLP211 T10331078 10006 21033 53019 FZRANO
0183720407004622021011012567+39928-074292FM-15+0025KMJX V0203105N002152200059N0160935N5-00285-00725102215ADDGA1005+999999999GD10991+9999999GF100991999999999999999999MA1102175101875REMMET09901/10/21 07:56:02 METAR KMJX 101256Z 31004KT 10SM CLR M03/M07 A3017 RMK AO2 SLP221 T10281072 FZRANO
0182720407004622021011013567+39928-074292FM-15+0025KMJX V0203205N003152200059N0160935N5+00005-00675102315ADDGA1005+999999999GD10991+9999999GF100991999999999999999999MA1102275101975REMMET09801/10/21 08:56:02 METAR KMJX 101356Z 32006KT 10SM CLR 00/M07 A3020 RMK AO2 SLP231 T00001067 FZRANO
0202720407004622021011014567+39928-074292FM-15+0025KMJX V0203105N005152200059N0160935N5+00175-00725102415ADDGA1005+999999999GD10991+9999999GF100991999999999999999999MA1102375102075MD1390299+9999REMMET10401/10/21 09:56:02 METAR KMJX 101456Z 31010KT 10SM CLR 02/M07 A3023 RMK AO2 SLP241 T00171072 53029 FZRANO
0175720407004622021011015567+39928-074292FM-15+0025KMJX V0203105N004152200059N0160935N5+00285-00675102415ADDGA1005+999999999GD10991+9999999GF100991999999999999999999MA1102375102075REMMET09101/10/21 10:56:02 METAR KMJX 101556Z 31008KT 10SM CLR 03/M07 A3023 RMK AO2 SLP241 T00281067
0175720407004622021011016567+39928-074292FM-15+0025KMJX V0203205N004152200059N0160935N5+00395-00615102355ADDGA1005+999999999GD10991+9999999GF100991999999999999999999MA1102305102005REMMET09101/10/21 11:56:02 METAR KMJX 101656Z 32008KT 10SM CLR 04/M06 A3021 RMK AO2 SLP235 T00391061
0233720407004622021011017567+39928-074292FM-15+0025KMJX V0203405N004152200059N0160935N5+00505-00565102275ADDGA1005+999999999GD10991+9999999GF100991999999999999999999KA1060M+00501KA2060N-00391MA1102245101935MD1890139+9999REMMET10901/10/21 12:56:02 METAR KMJX 101756Z 34008KT 10SM CLR 05/M06 A3019 RMK AO2 SLP227 T00501056 10050 21039 58013
0186720407004622021011018567+39928-074292FM-15+0025KMJX V0203405N004652200059N0160935N5+00615-00565102285ADDGA1005+999999999GD10991+9999999GF100991999999999999999999MA1102245101935OC100775REMMET09401/10/21 13:56:02 METAR KMJX 101856Z 34009G15KT 10SM CLR 06/M06 A3019 RMK AO2 SLP228 T00611056
0175720407004622021011019567+39928-074292FM-15+0025KMJX V0203205N004652200059N0160935N5+00615-00615102325ADDGA1005+999999999GD10991+9999999GF100991999999999999999999MA1102275101975REMMET09101/10/21 14:56:02 METAR KMJX 101956Z 32009KT 10SM CLR 06/M06 A3020 RMK AO2 SLP232 T00611061
0195720407004622021011020567+39928-074292FM-15+0025KMJX V0203305N003652200059N0160935N5+00565-00615102395ADDGA1005+999999999GD10991+9999999GF100991999999999999999999MA1102345102035MD1390129+9999REMMET09701/10/21 15:56:02 METAR KMJX 102056Z 33007KT 10SM CLR 06/M06 A3022 RMK AO2 SLP239 T00561061 53012
0182720407004622021011021567+39928-074292FM-15+0025KMJX V0209999C000052200059N0160935N5+00225-00615102465ADDGA1005+999999999GD10991+9999999GF100991999999999999999999MA1102405102105REMMET09801/10/21 16:56:02 METAR KMJX 102156Z 00000KT 10SM CLR 02/M06 A3024 RMK AO2 SLP246 T00221061 FZRANO
0183720407004622021011022567+39928-074292FM-15+0025KMJX V0209999C000052200059N0160935N5-00225-00615102555ADDGA1005+999999999GD10991+9999999GF100991999999999999999999MA1102515102205REMMET09901/10/21 17:56:02 METAR KMJX 102256Z 00000KT 10SM CLR M02/M06 A3027 RMK AO2 SLP255 T10221061 FZRANO
0241720407004622021011023567+39928-074292FM-15+0025KMJX V0209999C000052200059N0160935N5-00335-00675102585ADDGA1005+999999999GD10991+9999999GF100991999999999999999999KA1060M+00671KA2060N-00331MA1102545102245MD1190199+9999REMMET11701/10/21 18:56:02 METAR KMJX 102356Z 00000KT 10SM CLR M03/M07 A3028 RMK AO2 SLP258 T10331067 10067 21033 51019 FZRANO
0183720407004622021011100567+39928-074292FM-15+0025KMJX V0209999C000052200059N0160935N5-00395-00615102655ADDGA1005+999999999GD10991+9999999GF100991999999999999999999MA1102615102305REMMET09901/10/21 19:56:01 METAR KMJX 110056Z 00000KT 10SM CLR M04/M06 A3030 RMK AO2 SLP265 T10391061 FZRANO
0183720407004622021011101567+39928-074292FM-15+0025KMJX V0209999C000052200059N0160935N5-00565-00725102705ADDGA1005+999999999GD10991+9999999GF100991999999999999999999MA1102685102375REMMET09901/10/21 20:56:01 METAR KMJX 110156Z 00000KT 10SM CLR M06/M07 A3032 RMK AO2 SLP270 T10561072 FZRANO
0203720407004622021011102567+39928-074292FM-15+0025KMJX V0209999C000052200059N0160935N5-00675-00835102685ADDGA1005+999999999GD10991+9999999GF100991999999999999999999MA1102645102345MD1090109+9999REMMET10501/10/21 21:56:01 METAR KMJX 110256Z 00000KT 10SM CLR M07/M08 A3031 RMK AO2 SLP268 T10671083 50010 FZRANO
0183720407004622021011103567+39928-074292FM-15+0025KMJX V0209999C000052200059N0160935N5-00675-00895102715ADDGA1005+999999999GD10991+9999999GF100991999999999999999999MA1102685102375REMMET09901/10/21 22:56:01 METAR KMJX 110356Z 00000KT 10SM CLR M07/M09 A3032 RMK AO2 SLP271 T10671089 FZRANO
0219720407004622021011104567+39928-074292FM-15+0025KMJX V0209999C000052200059N0160935N5-00725-00835102755ADDGA1005+999999999GD10991+9999999GF100991999999999999999999KA1240M+00671KA2240N-00781MA1102715102415REMMET10901/10/21 23:56:02 METAR KMJX 110456Z 00000KT 10SM CLR M07/M08 A3033 RMK AO2 SLP275 T10721083 400671078 FZRANO
0241720407004622021011105567+39928-074292FM-15+0025KMJX V0209999C000052200059N0160935N5-00835-01005102745ADDGA1005+999999999GD10991+9999999GF100991999999999999999999KA1060M-00331KA2060N-00831MA1102715102415MD1090069+9999REMMET11701/11/21 00:56:02 METAR KMJX 110556Z 00000KT 10SM CLR M08/M10 A3033 RMK AO2 SLP274 T10831100 11033 21083 50006 FZRANO
0183720407004622021011106567+39928-074292FM-15+0025KMJX V0209999C000052200059N0160935N5-00945-01115102735ADDGA1005+999999999GD10991+9999999GF100991999999999999999999MA1102685102375REMMET09901/11/21 01:56:02 METAR KMJX 110656Z 00000KT 10SM CLR M09/M11 A3032 RMK AO2 SLP273 T10941111 FZRANO
0183720407004622021011107567+39928-074292FM-15+0025KMJX V0209999C000052200059N0160935N5-00945-01115102735ADDGA1005+999999999GD10991+9999999GF100991999999999999999999MA1102685102375REMMET09901/11/21 02:56:02 METAR KMJX 110756Z 00000KT 10SM CLR M09/M11 A3032 RMK AO2 SLP273 T10941111 FZRANO
0203720407004622021011108567+39928-074292FM-15+0025KMJX V0209999C000052200059N0160935N5-01005-01175102765ADDGA1005+999999999GD10991+9999999GF100991999999999999999999MA1102715102415MD1390019+9999REMMET10501/11/21 03:56:02 METAR KMJX 110856Z 00000KT 10SM CLR M10/M12 A3033 RMK AO2 SLP276 T11001117 53001 FZRANO
0183720407004622021011109567+39928-074292FM-15+0025KMJX V0209999C000052200059N0160935N5-01005-01175102815ADDGA1005+999999999GD10991+9999999GF100991999999999999999999MA1102785102475REMMET09901/11/21 04:56:02 METAR KMJX 110956Z 00000KT 10SM CLR M10/M12 A3035 RMK AO2 SLP281 T11001117 FZRANO
0183720407004622021011110567+39928-074292FM-15+0025KMJX V0209999C000052200059N0160935N5-00945-01115102765ADDGA1005+999999999GD10991+9999999GF100991999999999999999999MA1102715102415REMMET09901/11/21 05:56:02 METAR KMJX 111056Z 00000KT 10SM CLR M09/M11 A3033 RMK AO2 SLP276 T10941111 FZRANO
