0208720407004622023010510137+39928-074292FM-15+0025KMJX V0209999C00005000915MN0008055N5+01105+01105999999ADDAU100002015AW1305GA1085+000915999GD14991+0009159GE19AGL   +99999+99999GF199999999999000911999999MA1101295100995REMMET08501/05/23 05:13:02 METAR KMJX 051013Z 00000KT 1/2SM FG OVC003 11/11 A2991 RMK AO2 TSNO
001572040700462202301060459O+39928-074292SOD  +0025KMJX V020999999999999999999999999999+99999+99999999999ADDAT1AU01FG  5
0385720407004622023011503567+39928-074292FM-15+0025KMJX V0203405N00575010975MN0144845N5-00065-00565101245ADDAA101000021AU110030015AW1715GA1025+007325999GA2075+010975999GA3085+014025999GD11991+0073259GD23991+0109759GD34991+0140259GE19AGL   +99999+99999GF199999999999007321999999KA1240M+00281KA2240N-00061MA1101225100925MW1715OC101035REMMET14901/14/23 22:56:01 METAR KMJX 150356Z 34011G20KT 9SM -SN FEW024 BKN036 OVC046 M01/M06 A2989 RMK AO2 SNB49 SLP124 P0000 T10061056 400281006 FZRANO TSNO
001572040700462202301150459O+39928-074292SOD  +0025KMJX V020999999999999999999999999999+99999+99999999999ADDAT1AU18SN  5
0215720407004622023012015567+39928-074292FM-15+0025KMJX V0202805N00825013725MN0160935N5+00945+00175100625ADDGA1075+013725999GD13991+0137259GE19AGL   +99999+99999GF199999999999013721999999MA1100585100285OC101135REMMET10101/20/23 10:56:02 METAR KMJX 201556Z 28016G22KT 10SM BKN045 09/02 A2970 RMK AO2 SLP062 T00940017 TSNO
0243720407004622023031117147+39928-074292FM-15+0025KMJX V0203505N00465003055MN0160935N5+00405+00305999999ADDAA101000021AU110020015AW1615GA1085+003055999GD14991+0030551GE19AGL   +99999+99999GF199999999999003051999999MA1100785100485MW1615REMMET10303/11/23 12:14:02 METAR KMJX 111714Z 35009KT 10SM -RA OVC010 04/03 A2976 RMK AO2 CIG 006V014 P0000 TSNO
001572040700462202303120459O+39928-074292SOD  +0025KMJX V020999999999999999999999999999+99999+99999999999ADDAT1AU16RA  5
0198720407004622023031907567+39928-074292FM-15+0025KMJX V0202805N006252200059N0160935N5+00225-01065101385ADDGA1005+999999999GD10991+9999999GF100991999999999999999999MA1101325101025OC100985REMMET10603/19/23 02:56:01 METAR KMJX 190756Z 28012G19KT 10SM CLR 02/M11 A2992 RMK AO2 SLP138 T00221106 FZRANO TSNO
0199720407004622023032420567+39928-074292FM-15+0025KMJX V0202905N001552200059N0160935N5+00895+00285101585ADDGA1005+999999999GD10991+9999999GF100991999999999999999999MA1101565101265MD1890049+9999REMMET10103/24/23 15:56:02 METAR KMJX 242056Z 29003KT 10SM CLR 09/03 A2999 RMK AO2 SLP158 T00890028 58004 TSNO
0281720407004622023042723567+39928-074292FM-15+0025KMJX V0201005N001552200059N0160935N5+01115+00835102245ADDGA1025+018295999GD11991+0182959GE19AGL   +99999+99999GF102995999999018291999999KA1060M+01501KA2060N+01111MA1102205101905MD1890049+9999REMMET11604/27/23 18:56:02 METAR KMJX 272356Z 10003KT 10SM FEW060 11/08 A3018 RMK AO2 SLP224 T01110083 10150 20111 58004 TSNOEQDD01      0ADE726
0179720407004622023060103567+39928-074292FM-15+0025KMJX V0209999C000052200059N0160935N5+01065+00895102125ADDGA1005+999999999GD10991+9999999GF100991999999999999999999MA1102105101805REMMET09505/31/23 22:56:02 METAR KMJX 010356Z 00000KT 10SM CLR 11/09 A3015 RMK AO2 SLP212 T01060089 TSNO
0237720407004622023060105567+39928-074292FM-15+0025KMJX V0209999C000052200059N0160935N5+00945+00785102085ADDGA1005+999999999GD10991+9999999GF100991999999999999999999KA1060M+01781KA2060N+00891MA1102075101765MD1890079+9999REMMET11306/01/23 00:56:02 METAR KMJX 010556Z 00000KT 10SM CLR 09/08 A3014 RMK AO2 SLP208 T00940078 10178 20089 58007 TSNO
0185720407004622023060111566+39928-074292FM-15+0025KMJX V0200205N001552200059N0160935N5+01725+01445102095ADDGA1005+999999999GD10991+9999999MA1102075101765MD1390059+9999REMMET11306/01/23 06:56:02 METAR KMJX 011156Z 02003KT 10SM CLR 17/14 A3014 RMK AO2 SLP209 T01720144 10172 20094 53005 TSNO
0221720407004622023060207097+39928-074292FM-15+0025KMJX V0209999C00005000305MN0112655N5+00905+00905999999ADDAA101000021GA1085+000305999GD14991+0003051GE19AGL   +99999+99999GF199999999999000301999999MA1101565101265REMMET10406/02/23 02:09:01 METAR KMJX 020709Z 00000KT 7SM OVC001 09/09 A2999 RMK AO2 RAE05 CIG 001V004 P0000 TSNO
0243720407004622023060207237+39928-074292FM-15+0025KMJX V0209999C00005000305MN0012075N5+00905+00805999999ADDAA101000021AU100001015AW1105GA1085+000305999GD14991+0003051GE19AGL   +99999+99999GF199999999999000301999999MA1101525101225REMMET10906/02/23 02:23:01 METAR KMJX 020723Z 00000KT 3/4SM BR OVC001 09/08 A2998 RMK AO2 RAE05 CIG 001V004 P0000 TSNO
0203720407004622023060208457+39928-074292FM-15+0025KMJX V0209999C00005000305MN0008055N5+00905+00805999999ADDAU100002015AW1305GA1085+000305999GD14991+0003059GE19AGL   +99999+99999GF199999999999000301999999MA1101465101165REMMET08006/02/23 03:45:01 METAR KMJX 020845Z 00000KT 1/2SM FG OVC001 09/08 A2996 RMK AO2
0147720407004622023060209567+39928-074292FM-15+0025KMJX V0209999C000059999999N0144845N5+00895+00785101515ADDMA1101495101195REMMET08506/02/23 04:56:01 METAR KMJX 020956Z 00000KT 9SM 09/08 A2997 RMK AO2 SLP151 T00890078EQDR01      7SKY009R02      7GAS009
0197720407004622023060219567+39928-074292FM-15+0025KMJX V0201305N004152200059N0128755N5+03006+01115101155ADDGA1005+999999999GD10991+9999999GF100991999999999999999999MA1101125100825REMMET09406/02/23 14:56:01 METAR KMJX 021956Z 13008KT 8SM CLR 30/11 A2986 RMK AO2 SLP115 T03000111 TSNOEQDR01  03007TMP028
002772040700462202306030459O+39928-074292SOD  +0025KMJX V020999999999999999999999999999+99999+99999999999ADDAT1AU01FG  5AT2AU13BR  5
0198720407004622023061509567+39928-074292FM-15+0025KMJX V0209999V003152200059N0160935N5+01336+01005100365ADDGA1005+999999999GD10991+9999999GF100991999999999999999999MA1100345100045REMMET09506/15/23 04:56:02 METAR KMJX 150956Z VRB06KT 10SM CLR 13/10 A2963 RMK AO2 SLP036 T01330100 TSNOEQDR01  01337TMP028
0179720407004622023061510567+39928-074292FM-15+0025KMJX V0202705N003652200059N0160935N5+01615+01115100415ADDGA1005+999999999GD10991+9999999GF100991999999999999999999MA1100375100075REMMET09506/15/23 05:56:02 METAR KMJX 151056Z 27007KT 10SM CLR 16/11 A2964 RMK AO2 SLP041 T01610111 TSNO
0237720407004622023061523567+39928-074292FM-15+0025KMJX V0202305N001552200059N0160935N5+02285+01335100635ADDGA1005+999999999GD10991+9999999GF100991999999999999999999KA1060M+02611KA2060N+02281MA1100615100315MD1390109+9999REMMET11306/15/23 18:56:02 METAR KMJX 152356Z 23003KT 10SM CLR 23/13 A2971 RMK AO2 SLP063 T02280133 10261 20228 53010 TSNO
0193720407004622023061607567+39928-074292FM-15+0025KMJX V0202405N001552200059N0160935N5+01176+01005100805ADDGA1005+999999999GD10991+9999999GF100991999999999999999999MA1100785100485REMMET09006/16/23 02:56:01 METAR KMJX 160756Z 24003KT 10SM CLR 12/10 A2976 RMK AO2 SLP080 T01170100EQDR01  01177TMP028
0223720407004622023061612567+39928-074292FM-15+0025KMJX V0202405N00265036585MN0160935N5+02336+01565100825ADDGA1075+036585999GD13991+0365859GE19AGL   +99999+99999GF199999999999036581999999MA1100785100485REMMET09806/16/23 07:56:01 METAR KMJX 161256Z 24005KT 10SM BKN120 23/16 A2976 RMK AO2 SLP082 T02330156 TSNOEQDR01  02337TMP028
0291720407004622023061615567+39928-074292FM-15+0025KMJX V0201505N00775024385MN0160935N5+02675+01335100645ADDGA1045+018295999GA2075+024385999GA3075+033535999GD12991+0182959GD23991+0243859GD33991+0335359GE19AGL   +99999+99999GF199999999999018291999999MA1100615100315OC100935REMMET11506/16/23 10:56:01 METAR KMJX 161556Z 15015G18KT 10SM SCT060 BKN080 BKN110 27/13 A2971 RMK AO2 SLP064 T02670133 TSNO
0314720407004622023061618427+39928-074292FM-15+0025KMJX V0200505N002152200059N0160935N5+01506+01505999999ADDAA101001095AU110020015AW1615GA1025+018295999GA2045+022865999GD11991+0182959GD22991+0228659GE19AGL   +99999+99999GF104995999999018291999999MA1100515100215MW1615REMMET12406/16/23 13:42:01 METAR KMJX 161842Z 05004KT 10SM -RA FEW060 SCT075 15/15 A2968 RMK AO2 TSB1757E1759B14E20B23E27B40E42 P0004EQDD01      0ADE726
0187720407004622023061620477+39928-074292FM-15+0025KMJX V0201305N00265001525MN0160935N5+01805+01705999999ADDGA1085+001525999GD14991+0015259GE19AGL   +99999+99999GF199999999999001521999999MA1100475100185REMMET08106/16/23 15:47:01 METAR KMJX 162047Z 13005KT 10SM OVC005 18/17 A2967 RMK AO2 TSNO
0174720407004622023061703567+39928-074292FM-15+0025KMJX V0203205N001552200059N0160935N5+01505+01505100565ADDGA1005+999999999GD10991+9999999GF100991999999999999999999MA1100545100245REMMET09006/16/23 22:56:01 METAR KMJX 170356Z 32003KT 10SM CLR 15/15 A2969 RMK AO2 SLP056 T01500150
001572040700462202306170459O+39928-074292SOD  +0025KMJX V020999999999999999999999999999+99999+99999999999ADDAT1AU16RA  5
0250720407004622023061719567+39928-074292FM-15+0025KMJX V0203005N007752200059N0160935N5+02676+00835100485ADDGA1025+022865999GD11991+0228659GE19AGL   +99999+99999GF102995999999022861999999MA1100475100185OC101085REMMET10106/17/23 14:56:01 METAR KMJX 171956Z 30015G21KT 10SM FEW075 27/08 A2967 RMK AO2 SLP048 T02670083 TSNOEQDR01  02677TMP028D01      0ADE726
0253720407004622023061819567+39928-074292FM-15+0025KMJX V0202605N00575019815MN0160935N5+02895+01285101165ADDGA1075+019815999GA2085+024385999GD13991+0198159GD24991+0243859GE19AGL   +99999+99999GF199999999999019811999999MA1101125100825OC100825REMMET10806/18/23 14:56:02 METAR KMJX 181956Z 26011G16KT 10SM BKN065 OVC080 29/13 A2986 RMK AO2 SLP116 T02890128 TSNO
0217720407004622023061906567+39928-074292FM-15+0025KMJX V0209999C000052200059N0048285N5+01336+01225101505ADDAU100001015AW1105GA1005+999999999GD10991+9999999GF100991999999999999999999MA1101495101195REMMET09706/19/23 01:56:02 METAR KMJX 190656Z 00000KT 3SM BR CLR 13/12 A2997 RMK AO2 SLP150 T01330122 TSNOEQDR01  01337TMP028
0224720407004622023061908567+39928-074292FM-15+0025KMJX V0209999C00005025915MN0160935N5+01395+01285101535ADDGA1075+025915999GD13991+0259159GE19AGL   +99999+99999GF199999999999025911999999MA1101525101225MD1390049+9999REMMET10406/19/23 03:56:02 METAR KMJX 190856Z 00000KT 10SM BKN085 14/13 A2998 RMK AO2 SLP153 T01390128 53004 TSNO
001572040700462202306200459O+39928-074292SOD  +0025KMJX V020999999999999999999999999999+99999+99999999999ADDAT1AU13BR  5
0186720407004622023062009087+39928-074292FM-15+0025KMJX V0200605N00215002135MN0112655N5+01805+01705999999ADDGA1075+002135999GD13991+0021359GE19AGL   +99999+99999GF199999999999002131999999MA1102075101765REMMET08006/20/23 04:08:02 METAR KMJX 200908Z 06004KT 7SM BKN007 18/17 A3014 RMK AO2 TSNO
0204720407004622023062016567+39928-074292FM-15+0025KMJX V0200505N00625003965MN0160935N5+02115+01725102295ADDGA1085+003965999GD14991+0039659GE19AGL   +99999+99999GF199999999999003961999999MA1102275101975REMMET09806/20/23 11:56:02 METAR KMJX 201656Z 05012KT 10SM OVC013 21/17 A3020 RMK AO2 SLP229 T02110172 TSNO
0204720407004622023062019567+39928-074292FM-15+0025KMJX V0200805N00365004575MN0160935N5+02225+01785102265ADDGA1075+004575999GD13991+0045759GE19AGL   +99999+99999GF199999999999004571999999MA1102245101935REMMET09806/20/23 14:56:02 METAR KMJX 201956Z 08007KT 10SM BKN015 22/18 A3019 RMK AO2 SLP226 T02220178 TSNO
0198720407004622023062021147+39928-074292FM-15+0025KMJX V0200805N00465004575MN0160935N5+02105+01705999999ADDGA1075+004575999GD13991+0045759GE19AGL   +99999+99999GF199999999999004571999999MA1102205101905OC100725REMMET08406/20/23 16:14:02 METAR KMJX 202114Z 08009G14KT 10SM BKN015 21/17 A3018 RMK AO2 TSNO
0204720407004622023062109567+39928-074292FM-15+0025KMJX V0200605N00625003965MN0160935N5+01675+01445102345ADDGA1085+003965999GD14991+0039659GE19AGL   +99999+99999GF199999999999003961999999MA1102305102005REMMET09806/21/23 04:56:02 METAR KMJX 210956Z 06012KT 10SM OVC013 17/14 A3021 RMK AO2 SLP234 T01670144 TSNO
0279720407004622023062213567+39928-074292FM-15+0025KMJX V0200405N00575002135MN0048285N5+01615+01565102155ADDAA101000021AU110020015AU200001015AW1105AW2615GA1085+002135999GD14991+0021351GE19AGL   +99999+99999GF199999999999002131999999MA1102105101805MW1615REMMET12206/22/23 08:56:02 METAR KMJX 221356Z 04011KT 3SM -RA BR OVC007 16/16 A3015 RMK AO2 CIG 006V011 SLP215 P0000 T01610156 TSNO
0273720407004622023062214077+39928-074292FM-15+0025KMJX V0200505N00625002135MN0040235V5+01605+01605999999ADDAA101000021AU110020015AU200001015AW1105AW2615GA1085+002135999GD14991+0021351GE19AGL   +99999+99999GF199999999999002131999999MA1102135101835MW1615REMMET11606/22/23 09:07:02 METAR KMJX 221407Z 05012KT 2 1/2SM -RA BR OVC007 16/16 A3016 RMK AO2 VIS 1 3/4V3 CIG 005V010 P0000
0279720407004622023062215567+39928-074292FM-15+0025KMJX V0200405N00575002135MN0048285N5+01675+01615102185ADDAA101000021AU110020015AU200001015AW1105AW2615GA1085+002135999GD14991+0021351GE19AGL   +99999+99999GF199999999999002131999999MA1102135101835MW1615REMMET12206/22/23 10:56:02 METAR KMJX 221556Z 04011KT 3SM -RA BR OVC007 17/16 A3016 RMK AO2 CIG 005V011 SLP218 P0000 T01670161 TSNO
0332720407004622023062217567+39928-074292FM-15+0025KMJX V0200505N00725004575MN0160935N5+01725+01565102115ADDAA101000021AA206000021GA1085+004575999GD14991+0045759GE19AGL   +99999+99999GF199999999999004571999999KA1060M+01721KA2060N+01501MA1102075101765MD1590079+9999OC101085REMMET13706/22/23 12:56:02 METAR KMJX 221756Z 05014G21KT 10SM OVC015 17/16 A3014 RMK AO2 RAE17 SLP211 P0000 60000 T01720156 10172 20150 55007 TSNOEQDQ01  00008PRCP06
0287720407004622023062220567+39928-074292FM-15+0025KMJX V0200605N00465002745MN0160935N5+01835+01615101995ADDAA103000021GA1085+002745999GD14991+0027459GE19AGL   +99999+99999GF199999999999002741999999MA1101965101665MD1690129+9999OC100885REMMET11306/22/23 15:56:02 METAR KMJX 222056Z 06009G17KT 10SM OVC009 18/16 A3011 RMK AO2 SLP199 60000 T01830161 56012 TSNOEQDQ01  00002PRCP03Q02  00008PRCP03
0206720407004622023062303387+39928-074292FM-15+0025KMJX V0200805N00265001525MN0032195N5+01705+01705999999ADDAU100001015AW1105GA1085+001525999GD14991+0015259GE19AGL   +99999+99999GF199999999999001521999999MA1101965101665REMMET08306/22/23 22:38:02 METAR KMJX 230338Z 08005KT 2SM BR OVC005 17/17 A3011 RMK AO2 TSNO
002772040700462202306230459O+39928-074292SOD  +0025KMJX V020999999999999999999999999999+99999+99999999999ADDAT1AU16RA  5AT2AU13BR  5
0291720407004622023062319567+39928-074292FM-15+0025KMJX V0201605N00465011895MN0160935N5+02615+02175101535ADDGA1025+007925999GA2075+011895999GA3085+019815999GD11991+0079259GD23991+0118959GD34991+0198159GE19AGL   +99999+99999GF199999999999007921999999MA1101495101195OC100775REMMET11506/23/23 14:56:02 METAR KMJX 231956Z 16009G15KT 10SM FEW026 BKN039 OVC065 26/22 A2997 RMK AO2 SLP153 T02610217 TSNO
0187720407004622023062400417+39928-074292FM-15+0025KMJX V0201505N00365003355MN0160935N5+02205+02005999999ADDGA1075+003355999GD13991+0033559GE19AGL   +99999+99999GF199999999999003351999999MA1101395101095REMMET08106/23/23 19:41:01 METAR KMJX 240041Z 15007KT 10SM BKN011 22/20 A2994 RMK AO2 TSNO
0187720407004622023062403407+39928-074292FM-15+0025KMJX V0201705N00265002135MN0160935N5+01905+01905999999ADDGA1075+002135999GD13991+0021359GE19AGL   +99999+99999GF199999999999002131999999MA1101355101055REMMET08106/23/23 22:40:02 METAR KMJX 240340Z 17005KT 10SM BKN007 19/19 A2993 RMK AO2 TSNO
0186720407004622023062404437+39928-074292FM-15+0025KMJX V0201705N00415001525MN0144845N5+02105+02005999999ADDGA1085+001525999GD14991+0015259GE19AGL   +99999+99999GF199999999999001521999999MA1101325101025REMMET08006/23/23 23:43:02 METAR KMJX 240443Z 17008KT 9SM OVC005 21/20 A2992 RMK AO2 TSNO
0304720407004622023062408567+39928-074292FM-15+0025KMJX V0201805N00315000915MN0160935N5+02065+02065101245ADDAA101000595AA203001091AU110020015AW1615GA1085+000915999GD14991+0009159GE19AGL   +99999+99999GF199999999999000911999999MA1101225100925MD1590089+9999MW1615REMMET12006/24/23 03:56:02 METAR KMJX 240856Z 18006KT 10SM -RA OVC003 21/21 A2989 RMK AO2 SLP124 P0002 60004 T02060206 55008 TSNOEQDQ01  00108PRCP03
001572040700462202306250459O+39928-074292SOD  +0025KMJX V020999999999999999999999999999+99999+99999999999ADDAT1AU16RA  5
0205720407004622023062509077+39928-074292FM-15+0025KMJX V0209999C000052200059N0112655N5+01905+01905999999ADDGA1045+033535999GD12991+0335359GE19AGL   +99999+99999GF104995999999033531999999MA1101025100725REMMET08006/25/23 04:07:02 METAR KMJX 250907Z 00000KT 7SM SCT110 19/19 A2983 RMK AO2 TSNOEQDD01      0ADE726
0181720407004622023062509377+39928-074292FM-15+0025KMJX V0209999C000052200059N0048285N5+01805+01805999999ADDAU100001015AW1105GA1005+999999999GD10991+9999999GF100991999999999999999999MA1101025100725REMMET08006/25/23 04:37:02 METAR KMJX 250937Z 00000KT 3SM BR CLR 18/18 A2983 RMK AO2 TSNO
0263720407004622023062515257+39928-074292FM-15+0025KMJX V0201505N00265024385MN0160935N5+02805+02205999999ADDGA1045+008235999GA2045+018295999GA3075+024385999GD12991+0082359GD22991+0182959GD33991+0243859GE19AGL   +99999+99999GF199999999999008231999999MA1101025100725REMMET09506/25/23 10:25:02 METAR KMJX 251525Z 15005KT 10SM SCT027 SCT060 BKN080 28/22 A2983 RMK AO2 TSNO
0313720407004622023062515537+39928-074292FM-15+0025KMJX V0201605N00465013415MN0020125N5+02605+02305999999ADDAU100007015AW1051GA1045+007625999GA2075+013415999GA3085+022865999GD12991+0076259GD23991+0134159GD34991+0228659GE19AGL   +99999+99999GF199999999999007621999999MA1101025100725MW1055REMMET12206/25/23 10:53:02 METAR KMJX 251553Z 16009KT 1 1/4SM HZ SCT025 BKN044 OVC075 26/23 A2983 RMK AO2 TSB29E31B38E41B47E49 TSNO
0284720407004622023062516207+39928-074292FM-15+0025KMJX V0201305N00315021345MN0160935N5+02605+02305999999ADDAA101000021AU110020015AW1615GA1045+013415999GA2085+021345999GD12991+0134159GD24991+0213459GE19AGL   +99999+99999GF199999999999013411999999MA1101025100725MW1615REMMET11306/25/23 11:20:02 METAR KMJX 251620Z 13006KT 10SM -RA SCT044 OVC070 26/23 A2983 RMK AO2 TSB06E08B18E20RAB15 P0000
0215720407004622023062604567+39928-074292FM-15+0025KMJX V0209999C000052200059N0160935N5+02005+02005100965ADDGA1005+999999999GD10991+9999999GF100991999999999999999999KA1240M+02941KA2240N+01831MA1100915100625REMMET10506/25/23 23:56:02 METAR KMJX 260456Z 00000KT 10SM CLR 20/20 A2980 RMK AO2 SLP096 T02000200 402940183 TSNO
003972040700462202306260459O+39928-074292SOD  +0025KMJX V020999999999999999999999999999+99999+99999999999ADDAT1AU16RA  5AT2AU13BR  5AT3AU08HZ  5
0186720407004622023062709097+39928-074292FM-15+0025KMJX V0209999C00005000915MN0112655N5+01905+01805999999ADDGA1075+000915999GD13991+0009159GE19AGL   +99999+99999GF199999999999000911999999MA1100475100185REMMET08006/27/23 04:09:02 METAR KMJX 270909Z 00000KT 7SM BKN003 19/18 A2967 RMK AO2 TSNO
0326720407004622023062715067+39928-074292FM-15+0025KMJX V0201505N00365004275MN0096565N5+02205+02105999999ADDAA101000595AU110020015AU200001015AW1105AW2615GA1075+004275999GA2075+006715999GA3085+010065999GD13991+0042759GD23991+0067159GD34991+0100659GE19AGL   +99999+99999GF199999999999004271999999MA1100685100385MW1615REMMET10706/27/23 10:06:02 METAR KMJX 271506Z 15007KT 6SM -RA BR BKN014 BKN022 OVC033 22/21 A2973 RMK AO2 P0002 TSNO
0286720407004622023062801567+39928-074292FM-15+0025KMJX V0201905N00215033535MN0160935N5+01895+01895100895ADDAA101002395AU110020015AW1615GA1025+027435999GA2085+033535999GD11991+0274359GD24991+0335359GE19AGL   +99999+99999GF199999999999027431999999MA1100855100555MW1615REMMET11506/27/23 20:56:01 METAR KMJX 280156Z 19004KT 10SM -RA FEW090 OVC110 19/19 A2978 RMK AO2 SLP089 P0009 T01890189 TSNO
002772040700462202306280459O+39928-074292SOD  +0025KMJX V020999999999999999999999999999+99999+99999999999ADDAT1AU16RA  5AT2AU13BR  5
0206720407004622023062810447+39928-074292FM-15+0025KMJX V0209999C00005000915MN0064375N5+01805+01805999999ADDAU100001015AW1105GA1085+000915999GD14991+0009159GE19AGL   +99999+99999GF199999999999000911999999MA1100915100625REMMET08306/28/23 05:44:02 METAR KMJX 281044Z 00000KT 4SM BR OVC003 18/18 A2980 RMK AO2 TSNO
0261720407004622023062823567+39928-074292FM-15+0025KMJX V0202505N00155022865MN0128755N5+02505+01835101225ADDGA1085+022865999GD14991+0228659GE19AGL   +99999+99999GF199999999999022861999999KA1060M+02891KA2060N+02501MA1101195100895MD1390169+9999REMMET11506/28/23 18:56:02 METAR KMJX 282356Z 25003KT 8SM OVC075 25/18 A2988 RMK AO2 SLP122 T02500183 10289 20250 53016 TSNO
001572040700462202306290459O+39928-074292SOD  +0025KMJX V020999999999999999999999999999+99999+99999999999ADDAT1AU13BR  5
0332720407004622023070205257+39928-074292FM-15+0025KMJX V0201505N00215014335MN0064375N5+02205+02205999999ADDAA101001231AU130020015AU200001015AW1105AW2635GA1025+002745999GA2045+007925999GA3085+014335999GD11991+0027459GD22991+0079259GD34991+0143359GE19AGL   +99999+99999GF199999999999002741999999MA1101425101125MW1635REMMET11307/02/23 00:25:02 METAR KMJX 020525Z 15004KT 4SM +RA BR FEW009 SCT026 OVC047 22/22 A2995 RMK AO2 RAB20 P0005 TSNO
0245720407004622023070207567+39928-074292FM-15+0025KMJX V0201705N002152200059N0128755N5+02175+02175101285ADDAA101000021GA1045+010365999GD12991+0103659GE19AGL   +99999+99999GF104995999999010361999999MA1101255100955REMMET10907/02/23 02:56:02 METAR KMJX 020756Z 17004KT 8SM SCT034 22/22 A2990 RMK AO2 RAE24 SLP128 P0000 T02170217 TSNOEQDD01      0ADE726
0198720407004622023070302567+39928-074292FM-15+0025KMJX V0201705N003152200059N0128755N5+02505+02395101015ADDGA1005+999999999GD10991+9999999GF100991999999999999999999MA1100985100685MD1090029+9999REMMET10007/02/23 21:56:01 METAR KMJX 030256Z 17006KT 8SM CLR 25/24 A2982 RMK AO2 SLP101 T02500239 50002 TSNO
002772040700462202307030459O+39928-074292SOD  +0025KMJX V020999999999999999999999999999+99999+99999999999ADDAT1AU16RA  5AT2AU13BR  5
0273720407004622023070311567+39928-074292FM-15+0025KMJX V0209999C000052200059N0160935N5+02505+02285101135ADDAA124002891GA1005+999999999GD10991+9999999GF100991999999999999999999KA1060M+02501KA2060N+02001MA1101125100825MD1390109+9999REMMET11907/03/23 06:56:02 METAR KMJX 031156Z 00000KT 10SM CLR 25/23 A2986 RMK AO2 SLP113 70011 T02500228 10250 20200 53010 TSNOEQDQ01  00278PRCP24
0237720407004622023091505567+39928-074292FM-15+0025KMJX V0203605N003652200059N0160935N5+01505+00945101835ADDGA1005+999999999GD10991+9999999GF100991999999999999999999KA1060M+01941KA2060N+01501MA1101795101495MD1890069+9999REMMET11309/15/23 00:56:02 METAR KMJX 150556Z 36007KT 10SM CLR 15/09 A3006 RMK AO2 SLP183 T01500094 10194 20150 58006 TSNO
0236720407004622023092217327+39928-074292FM-15+0025KMJX V0200605N00625008535MN0160935N5+02105+01405999999ADDGA1075+008535999GA2075+010975999GD13991+0085359GD23991+0109759GE19AGL   +99999+99999GF199999999999008531999999MA1102715102415OC100885REMMET09109/22/23 12:32:02 METAR KMJX 221732Z 06012G17KT 10SM BKN028 BKN036 21/14 A3033 RMK AO2 TSNO
0273720407004622023101711567+39928-074292FM-15+0025KMJX V0209999C000052200059N0160935N5+00675+00615101225ADDAA124000391GA1005+999999999GD10991+9999999GF100991999999999999999999KA1060M+01001KA2060N+00501MA1101195100895MD1390229+9999REMMET11910/17/23 06:56:02 METAR KMJX 171156Z 00000KT 10SM CLR 07/06 A2988 RMK AO2 SLP122 70001 T00670061 10100 20050 53022 TSNOEQDQ01  00028PRCP24
0174720407004622023101712567+39928-074292FM-15+0025KMJX V0203405N004152200059N0160935N5+01065+00895101325ADDGA1005+999999999GD10991+9999999GF100991999999999999999999MA1101295100995REMMET09010/17/23 07:56:02 METAR KMJX 171256Z 34008KT 10SM CLR 11/09 A2991 RMK AO2 SLP132 T01060089
0174720407004622023101713567+39928-074292FM-15+0025KMJX V0203505N003652200059N0160935N5+01335+00945101395ADDGA1005+999999999GD10991+9999999GF100991999999999999999999MA1101355101055REMMET09010/17/23 08:56:02 METAR KMJX 171356Z 35007KT 10SM CLR 13/09 A2993 RMK AO2 SLP139 T01330094
0238720407004622023101714567+39928-074292FM-15+0025KMJX V0203505N003152200059N0160935N5+01505+00895101435ADDGA1025+007015999GD11991+0070159GE19AGL   +99999+99999GF102995999999007011999999MA1101395101095MD1190219+9999REMMET09910/17/23 09:56:02 METAR KMJX 171456Z 35006KT 10SM FEW023 15/09 A2994 RMK AO2 SLP143 T01500089 51021EQDD01      0ADE726
0275720407004622023101715567+39928-074292FM-15+0025KMJX V0203405N00315009145MN0160935N5+01505+00835101425ADDGA1075+009145999GA2075+012505999GA3075+014945999GD13991+0091459GD23991+0125059GD33991+0149459GE19AGL   +99999+99999GF199999999999009141999999MA1101395101095REMMET10710/17/23 10:56:02 METAR KMJX 171556Z 34006KT 10SM BKN030 BKN041 BKN049 15/08 A2994 RMK AO2 SLP142 T01500083
0237720407004622023101716567+39928-074292FM-15+0025KMJX V0200105N00315018295MN0160935N5+01615+00835101425ADDGA1045+011285999GA2075+018295999GD12991+0112859GD23991+0182959GE19AGL   +99999+99999GF199999999999011281999999MA1101395101095REMMET10010/17/23 11:56:02 METAR KMJX 171656Z 01006KT 10SM SCT037 BKN060 16/08 A2994 RMK AO2 SLP142 T01610083
0330720407004622023101717567+39928-074292FM-15+0025KMJX V0203105N00265021345MN0160935N5+01675+00835101425ADDGA1025+010975999GA2085+021345999GD11991+0109759GD24991+0213459GE19AGL   +99999+99999GF199999999999010971999999KA1060M+01721KA2060N+00671MA1101395101095MD1690009+9999REMMET11810/17/23 12:56:02 METAR KMJX 171756Z 31005KT 10SM FEW036 OVC070 17/08 A2994 RMK AO2 SLP142 T01670083 10172 20067 56000EQDQ010     3APC3  Q026     3APCTEN
0151720407004622023101718566+39928-074292FM-15+0025KMJX V0203305N00265021345MN0160935N5+01615+00835101445ADDGA1085+021345999GD14991+0213459MA1101425101125REMMET09310/17/23 13:56:02 METAR KMJX 171856Z 33005KT 10SM OVC070 16/08 A2995 RMK AO2 SLP144 T01610083
0199720407004622023101719567+39928-074292FM-15+0025KMJX V0200605N00215019815MN0160935N5+01615+00725101485ADDGA1085+019815999GD14991+0198159GE19AGL   +99999+99999GF199999999999019811999999MA1101465101165REMMET09310/17/23 14:56:02 METAR KMJX 171956Z 06004KT 10SM OVC065 16/07 A2996 RMK AO2 SLP148 T01610072
0219720407004622023101720567+39928-074292FM-15+0025KMJX V0201305N00155024385MN0160935N5+01505+01065101545ADDGA1075+024385999GD13991+0243859GE19AGL   +99999+99999GF199999999999024381999999MA1101525101225MD1390129+9999REMMET09910/17/23 15:56:02 METAR KMJX 172056Z 13003KT 10SM BKN080 15/11 A2998 RMK AO2 SLP154 T01500106 53012
0218720407004622023101721567+39928-074292FM-15+0025KMJX V0209999C000052200059N0160935N5+01285+01065101595ADDGA1025+012805999GD11991+0128059GE19AGL   +99999+99999GF102995999999012801999999MA1101565101265REMMET09310/17/23 16:56:02 METAR KMJX 172156Z 00000KT 10SM FEW042 13/11 A2999 RMK AO2 SLP159 T01280106EQDD01      0ADE726
0174720407004622023101722567+39928-074292FM-15+0025KMJX V0209999C000052200059N0160935N5+01065+00945101655ADDGA1005+999999999GD10991+9999999GF100991999999999999999999MA1101635101325REMMET09010/17/23 17:56:02 METAR KMJX 172256Z 00000KT 10SM CLR 11/09 A3001 RMK AO2 SLP165 T01060094
0232720407004622023101723567+39928-074292FM-15+0025KMJX V0209999C000052200059N0160935N5+00895+00835101725ADDGA1005+999999999GD10991+9999999GF100991999999999999999999KA1060M+01781KA2060N+00891MA1101695101395MD1390189+9999REMMET10810/17/23 18:56:02 METAR KMJX 172356Z 00000KT 10SM CLR 09/08 A3003 RMK AO2 SLP172 T00890083 10178 20089 53018
0174720407004622023101800567+39928-074292FM-15+0025KMJX V0209999C000052200059N0160935N5+00725+00675101775ADDGA1005+999999999GD10991+9999999GF100991999999999999999999MA1101735101435REMMET09010/17/23 19:56:01 METAR KMJX 180056Z 00000KT 10SM CLR 07/07 A3004 RMK AO2 SLP177 T00720067
0174720407004622023101801567+39928-074292FM-15+0025KMJX V0209999C000052200059N0160935N5+00675+00615101835ADDGA1005+999999999GD10991+9999999GF100991999999999999999999MA1101795101495REMMET09010/17/23 20:56:01 METAR KMJX 180156Z 00000KT 10SM CLR 07/06 A3006 RMK AO2 SLP183 T00670061
0194720407004622023101802567+39928-074292FM-15+0025KMJX V0209999C000052200059N0160935N5+00505+00445101865ADDGA1005+999999999GD10991+9999999GF100991999999999999999999MA1101835101535MD1190149+9999REMMET09610/17/23 21:56:02 METAR KMJX 180256Z 00000KT 10SM CLR 05/04 A3007 RMK AO2 SLP186 T00500044 51014
0174720407004622023101803567+39928-074292FM-15+0025KMJX V0209999C000052200059N0160935N5+00445+00335101905ADDGA1005+999999999GD10991+9999999GF100991999999999999999999MA1101865101565REMMET09010/17/23 22:56:02 METAR KMJX 180356Z 00000KT 10SM CLR 04/03 A3008 RMK AO2 SLP190 T00440033
0273720407004622023101804567+39928-074292FM-15+0025KMJX V0209999C00005021345MN0160935N5+00445+00395101935ADDGA1075+021345999GA2075+027435999GD13991+0213459GD23991+0274359GE19AGL   +99999+99999GF199999999999021341999999KA1240M+01781KA2240N+00391MA1101905101595REMMET11010/17/23 23:56:02 METAR KMJX 180456Z 00000KT 10SM BKN070 BKN090 04/04 A3009 RMK AO2 SLP193 T00440039 401780039
0257720407004622023101805567+39928-074292FM-15+0025KMJX V0209999C00005025915MN0160935N5+00675+00675101955ADDGA1085+025915999GD14991+0259159GE19AGL   +99999+99999GF199999999999025911999999KA1060M+00891KA2060N+00391MA1101935101635MD1190099+9999REMMET11110/18/23 00:56:01 METAR KMJX 180556Z 00000KT 10SM OVC085 07/07 A3010 RMK AO2 SLP195 T00670067 10089 20039 51009
0199720407004622023101806567+39928-074292FM-15+0025KMJX V0209999C00005025915MN0160935N5+00725+00675101975ADDGA1085+025915999GD14991+0259159GE19AGL   +99999+99999GF199999999999025911999999MA1101935101635REMMET09310/18/23 01:56:01 METAR KMJX 180656Z 00000KT 10SM OVC085 07/07 A3010 RMK AO2 SLP197 T00720067
0199720407004622023101807567+39928-074292FM-15+0025KMJX V0209999C00005025915MN0160935N5+00675+00675101965ADDGA1085+025915999GD14991+0259159GE19AGL   +99999+99999GF199999999999025911999999MA1101935101635REMMET09310/18/23 02:56:01 METAR KMJX 180756Z 00000KT 10SM OVC085 07/07 A3010 RMK AO2 SLP196 T00670067
0199720407004622023101809567+39928-074292FM-15+0025KMJX V0209999C00005025915MN0160935N5+00615+00615102045ADDGA1085+025915999GD14991+0259159GE19AGL   +99999+99999GF199999999999025911999999MA1102005101705REMMET09310/18/23 04:56:02 METAR KMJX 180956Z 00000KT 10SM OVC085 06/06 A3012 RMK AO2 SLP204 T00610061
0257720407004622023101811567+39928-074292FM-15+0025KMJX V0209999C00005025915MN0160935N5+00675+00675102125ADDGA1075+025915999GD13991+0259159GE19AGL   +99999+99999GF199999999999025911999999KA1060M+00781KA2060N+00561MA1102105101805MD1390139+9999REMMET11110/18/23 06:56:02 METAR KMJX 181156Z 00000KT 10SM BKN085 07/07 A3015 RMK AO2 SLP212 T00670067 10078 20056 53013
0218720407004622023101812567+39928-074292FM-15+0025KMJX V0209999C000052200059N0160935N5+01285+01005102175ADDGA1045+025915999GD12991+0259159GE19AGL   +99999+99999GF104995999999025911999999MA1102135101835REMMET09310/18/23 07:56:02 METAR KMJX 181256Z 00000KT 10SM SCT085 13/10 A3016 RMK AO2 SLP217 T01280100EQDD01      0ADE726
0174720407004622023101813567+39928-074292FM-15+0025KMJX V0209999C000052200059N0160935N5+01675+01005102215ADDGA1005+999999999GD10991+9999999GF100991999999999999999999MA1102175101875REMMET09010/18/23 08:56:02 METAR KMJX 181356Z 00000KT 10SM CLR 17/10 A3017 RMK AO2 SLP221 T01670100
0194720407004622023101814567+39928-074292FM-15+0025KMJX V0209999C000052200059N0160935N5+01785+00835102205ADDGA1005+999999999GD10991+9999999GF100991999999999999999999MA1102175101875MD1090079+9999REMMET09610/18/23 09:56:02 METAR KMJX 181456Z 00000KT 10SM CLR 18/08 A3017 RMK AO2 SLP220 T01780083 50007
0218720407004622023101815567+39928-074292FM-15+0025KMJX V0201705N003152200059N0160935N5+01835+00785102185ADDGA1045+012805999GD12991+0128059GE19AGL   +99999+99999GF104995999999012801999999MA1102135101835REMMET09310/18/23 10:56:02 METAR KMJX 181556Z 17006KT 10SM SCT042 18/08 A3016 RMK AO2 SLP218 T01830078EQDD01      0ADE726
0218720407004622023101816567+39928-074292FM-15+0025KMJX V0201205N002152200059N0160935N5+01945+00835102115ADDGA1025+013725999GD11991+0137259GE19AGL   +99999+99999GF102995999999013721999999MA1102105101805REMMET09310/18/23 11:56:02 METAR KMJX 181656Z 12004KT 10SM FEW045 19/08 A3015 RMK AO2 SLP211 T01940083EQDD01      0ADE726
0295720407004622023101817567+39928-074292FM-15+0025KMJX V0201105N00265024385MN0160935N5+01785+00895102085ADDGA1025+013725999GA2085+024385999GD11991+0137259GD24991+0243859GE19AGL   +99999+99999GF199999999999013721999999KA1060M+02061KA2060N+00721MA1102075101765MD1890129+9999REMMET11810/18/23 12:56:02 METAR KMJX 181756Z 11005KT 10SM FEW045 OVC080 18/09 A3014 RMK AO2 SLP208 T01780089 10206 20072 58012
0199720407004622023101818567+39928-074292FM-15+0025KMJX V0201105N00265024385MN0160935N5+01725+00945102085ADDGA1085+024385999GD14991+0243859GE19AGL   +99999+99999GF199999999999024381999999MA1102075101765REMMET09310/18/23 13:56:02 METAR KMJX 181856Z 11005KT 10SM OVC080 17/09 A3014 RMK AO2 SLP208 T01720094
0199720407004622023101819567+39928-074292FM-15+0025KMJX V0201205N00155022865MN0160935N5+01675+01005102075ADDGA1085+022865999GD14991+0228659GE19AGL   +99999+99999GF199999999999022861999999MA1102035101735REMMET09310/18/23 14:56:02 METAR KMJX 181956Z 12003KT 10SM OVC075 17/10 A3013 RMK AO2 SLP207 T01670100
0219720407004622023101820567+39928-074292FM-15+0025KMJX V0201505N00215022865MN0160935N5+01675+01065102085ADDGA1085+022865999GD14991+0228659GE19AGL   +99999+99999GF199999999999022861999999MA1102075101765MD1590009+9999REMMET09910/18/23 15:56:02 METAR KMJX 182056Z 15004KT 10SM OVC075 17/11 A3014 RMK AO2 SLP208 T01670106 55000
0199720407004622023101821567+39928-074292FM-15+0025KMJX V0201405N00215024385MN0160935N5+01505+01115102115ADDGA1085+024385999GD14991+0243859GE19AGL   +99999+99999GF199999999999024381999999MA1102075101765REMMET09310/18/23 16:56:02 METAR KMJX 182156Z 14004KT 10SM OVC080 15/11 A3014 RMK AO2 SLP211 T01500111
0199720407004622023101822567+39928-074292FM-15+0025KMJX V0201405N00155024385MN0160935N5+01335+01115102135ADDGA1085+024385999GD14991+0243859GE19AGL   +99999+99999GF199999999999024381999999MA1102105101805REMMET09310/18/23 17:56:02 METAR KMJX 182256Z 14003KT 10SM OVC080 13/11 A3015 RMK AO2 SLP213 T01330111
0232720407004622023101823567+39928-074292FM-15+0025KMJX V0209999C000052200059N0160935N5+01175+01005102145ADDGA1005+999999999GD10991+9999999GF100991999999999999999999KA1060M+01781KA2060N+01171MA1102105101805MD1190069+9999REMMET10810/18/23 18:56:02 METAR KMJX 182356Z 00000KT 10SM CLR 12/10 A3015 RMK AO2 SLP214 T01170100 10178 20117 51006
0174720407004622023101900567+39928-074292FM-15+0025KMJX V0209999C000052200059N0160935N5+00945+00895102185ADDGA1005+999999999GD10991+9999999GF100991999999999999999999MA1102135101835REMMET09010/18/23 19:56:01 METAR KMJX 190056Z 00000KT 10SM CLR 09/09 A3016 RMK AO2 SLP218 T00940089
0174720407004622023101901567+39928-074292FM-15+0025KMJX V0209999C000052200059N0160935N5+00725+00675102215ADDGA1005+999999999GD10991+9999999GF100991999999999999999999MA1102175101875REMMET09010/18/23 20:56:01 METAR KMJX 190156Z 00000KT 10SM CLR 07/07 A3017 RMK AO2 SLP221 T00720067
0194720407004622023101902567+39928-074292FM-15+0025KMJX V0209999C000052200059N0160935N5+00615+00505102205ADDGA1005+999999999GD10991+9999999GF100991999999999999999999MA1102175101875MD1090069+9999REMMET09610/18/23 21:56:01 METAR KMJX 190256Z 00000KT 10SM CLR 06/05 A3017 RMK AO2 SLP220 T00610050 50006
0174720407004622023101903567+39928-074292FM-15+0025KMJX V0209999C000052200059N0160935N5+00565+00505102205ADDGA1005+999999999GD10991+9999999GF100991999999999999999999MA1102175101875REMMET09010/18/23 22:56:02 METAR KMJX 190356Z 00000KT 10SM CLR 06/05 A3017 RMK AO2 SLP220 T00560050
0210720407004622023101904567+39928-074292FM-15+0025KMJX V0209999C000052200059N0160935N5+00505+00445102215ADDGA1005+999999999GD10991+9999999GF100991999999999999999999KA1240M+02061KA2240N+00441MA1102175101875REMMET10010/18/23 23:56:02 METAR KMJX 190456Z 00000KT 10SM CLR 05/04 A3017 RMK AO2 SLP221 T00500044 402060044
0232720407004622023101905567+39928-074292FM-15+0025KMJX V0209999C000052200059N0160935N5+00445+00395102225ADDGA1005+999999999GD10991+9999999GF100991999999999999999999KA1060M+01171KA2060N+00391MA1102205101905MD1390029+9999REMMET10810/19/23 00:56:02 METAR KMJX 190556Z 00000KT 10SM CLR 04/04 A3018 RMK AO2 SLP222 T00440039 10117 20039 53002
0174720407004622023101906567+39928-074292FM-15+0025KMJX V0209999C000052200059N0160935N5+00445+00395102215ADDGA1005+999999999GD10991+9999999GF100991999999999999999999MA1102175101875REMMET09010/19/23 01:56:02 METAR KMJX 190656Z 00000KT 10SM CLR 04/04 A3017 RMK AO2 SLP221 T00440039
0174720407004622023101907567+39928-074292FM-15+0025KMJX V0209999C000052200059N0160935N5+00285+00175102195ADDGA1005+999999999GD10991+9999999GF100991999999999999999999MA1102175101875REMMET09010/19/23 02:56:02 METAR KMJX 190756Z 00000KT 10SM CLR 03/02 A3017 RMK AO2 SLP219 T00280017
0213720407004622023101908567+39928-074292FM-15+0025KMJX V0209999C000052200059N0160935N5+00285+00175102225ADDGA1005+999999999GD10991+9999999GF100991999999999999999999MA1102205101905MD1390009+9999REMMET09610/19/23 03:56:02 METAR KMJX 190856Z 00000KT 10SM CLR 03/02 A3018 RMK AO2 SLP222 T00280017 53000EQDQ013     3APCTEN
0181720407004622023101909567+39928-074292FM-15+0025KMJX V0209999C000052200059N0160935N5+00175+00115102265ADDGA1005+999999999GD10991+9999999GF100991999999999999999999MA1102245101935REMMET09710/19/23 04:56:02 METAR KMJX 190956Z 00000KT 10SM CLR 02/01 A3019 RMK AO2 SLP226 T00170011 FZRANO
0181720407004622023101910567+39928-074292FM-15+0025KMJX V0209999C000052200059N0160935N5+00175+00115102255ADDGA1005+999999999GD10991+9999999GF100991999999999999999999MA1102245101935REMMET09710/19/23 05:56:02 METAR KMJX 191056Z 00000KT 10SM CLR 02/01 A3019 RMK AO2 SLP225 T00170011 FZRANO
0232720407004622023101911567+39928-074292FM-15+0025KMJX V0209999C000052200059N0160935N5+00285+00225102285ADDGA1005+999999999GD10991+9999999GF100991999999999999999999KA1060M+00441KA2060N+00111MA1102245101935MD1190069+9999REMMET10810/19/23 06:56:02 METAR KMJX 191156Z 00000KT 10SM CLR 03/02 A3019 RMK AO2 SLP228 T00280022 10044 20011 51006
0174720407004622023101912567+39928-074292FM-15+0025KMJX V0209999C000052200059N0160935N5+00945+00725102325ADDGA1005+999999999GD10991+9999999GF100991999999999999999999MA1102305102005REMMET09010/19/23 07:56:02 METAR KMJX 191256Z 00000KT 10SM CLR 09/07 A3021 RMK AO2 SLP232 T00940072
0174720407004622023101913567+39928-074292FM-15+0025KMJX V0201805N001552200059N0160935N5+01565+00725102285ADDGA1005+999999999GD10991+9999999GF100991999999999999999999MA1102245101935REMMET09010/19/23 08:56:02 METAR KMJX 191356Z 18003KT 10SM CLR 16/07 A3019 RMK AO2 SLP228 T01560072
0194720407004622023101914567+39928-074292FM-15+0025KMJX V0202205N002152200059N0160935N5+01785+00675102245ADDGA1005+999999999GD10991+9999999GF100991999999999999999999MA1102205101905MD1890049+9999REMMET09610/19/23 09:56:02 METAR KMJX 191456Z 22004KT 10SM CLR 18/07 A3018 RMK AO2 SLP224 T01780067 58004
0174720407004622023101915567+39928-074292FM-15+0025KMJX V0202005N003652200059N0160935N5+01835+00725102165ADDGA1005+999999999GD10991+9999999GF100991999999999999999999MA1102135101835REMMET09010/19/23 10:56:02 METAR KMJX 191556Z 20007KT 10SM CLR 18/07 A3016 RMK AO2 SLP216 T01830072
0218720407004622023101916567+39928-074292FM-15+0025KMJX V0209999V002652200059N0160935N5+01946+00835102095ADDGA1025+016765999GD11991+0167659GE19AGL   +99999+99999GF102995999999016761999999MA1102075101765REMMET09310/19/23 11:56:02 METAR KMJX 191656Z VRB05KT 10SM FEW055 19/08 A3014 RMK AO2 SLP209 T01940083EQDD01      0ADE726
0257720407004622023101917567+39928-074292FM-15+0025KMJX V0201605N00515013115MN0160935N5+01895+01005101985ADDGA1085+013115999GD14991+0131159GE19AGL   +99999+99999GF199999999999013111999999KA1060M+02001KA2060N+00281MA1101935101635MD1890269+9999REMMET11110/19/23 12:56:02 METAR KMJX 191756Z 16010KT 10SM OVC043 19/10 A3010 RMK AO2 SLP198 T01890100 10200 20028 58026
0199720407004622023101918567+39928-074292FM-15+0025KMJX V0201805N00465014335MN0160935N5+01945+01005101905ADDGA1075+014335999GD13991+0143359GE19AGL   +99999+99999GF199999999999014331999999MA1101865101565REMMET09310/19/23 13:56:02 METAR KMJX 191856Z 18009KT 10SM BKN047 19/10 A3008 RMK AO2 SLP190 T01940100
0256720407004622023101919567+39928-074292FM-15+0025KMJX V0201605N004652200059N0160935N5+01835+01115101885ADDGA1025+011285999GA2045+013725999GD11991+0112859GD22991+0137259GE19AGL   +99999+99999GF104995999999011281999999MA1101865101565REMMET10010/19/23 14:56:02 METAR KMJX 191956Z 16009KT 10SM FEW037 SCT045 18/11 A3008 RMK AO2 SLP188 T01830111EQDD01      0ADE726
0194720407004622023101920567+39928-074292FM-15+0025KMJX V0201605N004152200059N0160935N5+01725+01065101865ADDGA1005+999999999GD10991+9999999GF100991999999999999999999MA1101835101535MD1690119+9999REMMET09610/19/23 15:56:02 METAR KMJX 192056Z 16008KT 10SM CLR 17/11 A3007 RMK AO2 SLP186 T01720106 56011
0174720407004622023101921567+39928-074292FM-15+0025KMJX V0201605N003152200059N0160935N5+01505+01115101865ADDGA1005+999999999GD10991+9999999GF100991999999999999999999MA1101835101535REMMET09010/19/23 16:56:02 METAR KMJX 192156Z 16006KT 10SM CLR 15/11 A3007 RMK AO2 SLP186 T01500111
0174720407004622023101922567+39928-074292FM-15+0025KMJX V0201305N001552200059N0160935N5+01335+01115101835ADDGA1005+999999999GD10991+9999999GF100991999999999999999999MA1101795101495REMMET09010/19/23 17:56:02 METAR KMJX 192256Z 13003KT 10SM CLR 13/11 A3006 RMK AO2 SLP183 T01330111
0232720407004622023101923567+39928-074292FM-15+0025KMJX V0201605N001552200059N0160935N5+01225+01115101805ADDGA1005+999999999GD10991+9999999GF100991999999999999999999KA1060M+01941KA2060N+01221MA1101765101465MD1890069+9999REMMET10810/19/23 18:56:02 METAR KMJX 192356Z 16003KT 10SM CLR 12/11 A3005 RMK AO2 SLP180 T01220111 10194 20122 58006
0174720407004622023102000567+39928-074292FM-15+0025KMJX V0201605N002152200059N0160935N5+01175+01115101755ADDGA1005+999999999GD10991+9999999GF100991999999999999999999MA1101735101435REMMET09010/19/23 19:56:01 METAR KMJX 200056Z 16004KT 10SM CLR 12/11 A3004 RMK AO2 SLP175 T01170111
0174720407004622023102001567+39928-074292FM-15+0025KMJX V0201705N001552200059N0160935N5+01175+01115101755ADDGA1005+999999999GD10991+9999999GF100991999999999999999999MA1101735101435REMMET09010/19/23 20:56:01 METAR KMJX 200156Z 17003KT 10SM CLR 12/11 A3004 RMK AO2 SLP175 T01170111
0194720407004622023102002567+39928-074292FM-15+0025KMJX V0209999C000052200059N0160935N5+00945+00835101715ADDGA1005+999999999GD10991+9999999GF100991999999999999999999MA1101695101395MD1690099+9999REMMET09610/19/23 21:56:01 METAR KMJX 200256Z 00000KT 10SM CLR 09/08 A3003 RMK AO2 SLP171 T00940083 56009
0218720407004622023102003567+39928-074292FM-15+0025KMJX V0209999C000052200059N0160935N5+00835+00785101645ADDGA1025+018295999GD11991+0182959GE19AGL   +99999+99999GF102995999999018291999999MA1101635101325REMMET09310/19/23 22:56:02 METAR KMJX 200356Z 00000KT 10SM FEW060 08/08 A3001 RMK AO2 SLP164 T00830078EQDD01      0ADE726
0235720407004622023102004567+39928-074292FM-15+0025KMJX V0209999C00005015245MN0160935N5+01005+00945101575ADDGA1085+015245999GD14991+0152459GE19AGL   +99999+99999GF199999999999015241999999KA1240M+02001KA2240N+00111MA1101525101225REMMET10310/19/23 23:56:02 METAR KMJX 200456Z 00000KT 10SM OVC050 10/09 A2998 RMK AO2 SLP157 T01000094 402000011
0257720407004622023102005567+39928-074292FM-15+0025KMJX V0209999C00005014635MN0160935N5+01115+01065101505ADDGA1085+014635999GD14991+0146359GE19AGL   +99999+99999GF199999999999014631999999KA1060M+01221KA2060N+00781MA1101465101165MD1790219+9999REMMET11110/20/23 00:56:02 METAR KMJX 200556Z 00000KT 10SM OVC048 11/11 A2996 RMK AO2 SLP150 T01110106 10122 20078 57021
0263720407004622023102006567+39928-074292FM-15+0025KMJX V0201405N00215010975MN0160935N5+01395+01335101385ADDAA101000021GA1075+010975999GA2085+013725999GD13991+0109759GD24991+0137259GE19AGL   +99999+99999GF199999999999010971999999MA1101355101055REMMET11510/20/23 01:56:02 METAR KMJX 200656Z 14004KT 10SM BKN036 OVC045 14/13 A2993 RMK AO2 RAB00E42 SLP138 P0000 T01390133
0265720407004622023102007567+39928-074292FM-15+0025KMJX V0201205N00315015245MN0160935N5+01445+01395101245ADDAA101000021GA1045+011285999GA2085+015245999GD12991+0112859GD24991+0152459GE19AGL   +99999+99999GF199999999999011281999999MA1101225100925REMMET11710/20/23 02:56:02 METAR KMJX 200756Z 12006KT 10SM SCT037 OVC050 14/14 A2989 RMK AO2 RAB0658E11 SLP124 P0000 T01440139
0381720407004622023102008567+39928-074292FM-15+0025KMJX V0201305N00215010065MN0160935N5+01505+01505101205ADDAA101002595AA203002591AU110020015AW1615GA1045+006715999GA2075+010065999GA3085+012195999GD12991+0067159GD23991+0100659GD34991+0121959GE19AGL   +99999+99999GF199999999999006711999999MA1101195100895MD1690309+9999MW1615REMMET13510/20/23 03:56:02 METAR KMJX 200856Z 13004KT 10SM -RA SCT022 BKN033 OVC040 15/15 A2988 RMK AO2 RAB15 SLP120 P0010 60010 T01500150 56030EQDQ01  00258PRCP03
0281720407004622023102009117+39928-074292FM-15+0025KMJX V0201505N00155006105MN0160935N5+01505+01505999999ADDAA101000021GA1075+006105999GA2075+008535999GA3085+010675999GD13991+0061059GD23991+0085359GD34991+0106759GE19AGL   +99999+99999GF199999999999006101999999MA1101155100855REMMET10210/20/23 04:11:02 METAR KMJX 200911Z 15003KT 10SM BKN020 BKN028 OVC035 15/15 A2987 RMK AO2 RAE06 P0000
0328720407004622023102009567+39928-074292FM-15+0025KMJX V0201505N00265014335MN0160935N5+01565+01565101125ADDAA101000021AU110020015AW1615GA1025+007015999GA2075+014335999GA3085+025915999GD11991+0070159GD23991+0143359GD34991+0259159GE19AGL   +99999+99999GF199999999999007011999999MA1101085100785MW1615REMMET12610/20/23 04:56:02 METAR KMJX 200956Z 15005KT 10SM -RA FEW023 BKN047 OVC085 16/16 A2985 RMK AO2 RAE06B49 SLP112 P0000 T01560156
0302720407004622023102010267+39928-074292FM-15+0025KMJX V0209999C00005006405MN0160935N5+01605+01605999999ADDAA101000395AU110020015AW1615GA1075+006405999GA2075+009145999GA3085+027435999GD13991+0064059GD23991+0091459GD34991+0274359GE19AGL   +99999+99999GF199999999999006401999999MA1101055100755MW1615REMMET10010/20/23 05:26:02 METAR KMJX 201026Z 00000KT 10SM -RA BKN021 BKN030 OVC090 16/16 A2984 RMK AO2 P0001
0281720407004622023102010447+39928-074292FM-15+0025KMJX V0201505N00265015245MN0160935N5+01605+01605999999ADDAA101000395GA1045+006405999GA2045+011895999GA3085+015245999GD12991+0064059GD22991+0118959GD34991+0152459GE19AGL   +99999+99999GF199999999999006401999999MA1101055100755REMMET10210/20/23 05:44:02 METAR KMJX 201044Z 15005KT 10SM SCT021 SCT039 OVC050 16/16 A2984 RMK AO2 RAE32 P0001
0298720407004622023102010567+39928-074292FM-15+0025KMJX V0201505N00265015245MN0160935N5+01565+01565101075ADDAA101000395GA1045+013415999GA2075+015245999GA3085+027435999GD12991+0134159GD23991+0152459GD34991+0274359GE19AGL   +99999+99999GF199999999999013411999999MA1101055100755REMMET11910/20/23 05:56:02 METAR KMJX 201056Z 15005KT 10SM SCT044 BKN050 OVC090 16/16 A2984 RMK AO2 RAE32 SLP107 P0001 T01560156
0477720407004622023102011567+39928-074292FM-15+0025KMJX V0201805N00215006105MN0048285N5+01615+01615101025ADDAA101001395AA206004191AA324004191AU110020015AU200001015AW1105AW2615GA1075+006105999GA2075+009455999GA3085+012805999GD13991+0061059GD23991+0094559GD34991+0128059GE19AGL   +99999+99999GF199999999999006101999999KA1060M+01611KA2060N+01111MA1100985100685MD1690189+9999MW1615REMMET16110/20/23 06:56:02 METAR KMJX 201156Z 18004KT 3SM -RA BR BKN020 BKN031 OVC042 16/16 A2982 RMK AO2 RAB00E11B39 SLP102 P0005 60016 70016 T01610161 10161 20111 56018EQDQ01  00408PRCP06Q02  00408PRCP24
0325720407004622023102012077+39928-074292FM-15+0025KMJX V0202105N00215004575MN0040235N5+01605+01605999999ADDAA101002095AU130020015AU200001015AW1105AW2635GA1045+001835999GA2075+004575999GA3085+009145999GD12991+0018359GD23991+0045759GD34991+0091459GE19AGL   +99999+99999GF199999999999001831999999MA1101025100725MW1635REMMET10610/20/23 07:07:02 METAR KMJX 201207Z 21004KT 2 1/2SM +RA BR SCT006 BKN015 OVC030 16/16 A2983 RMK AO2 P0008
0294720407004622023102012167+39928-074292FM-15+0025KMJX V0201805N00365002445MN0048285N5+01605+01605999999ADDAA101003095AU120020015AU200001015AW1105AW2625GA1075+002445999GA2085+005495999GD13991+0024451GD24991+0054959GE19AGL   +99999+99999GF199999999999002441999999MA1100985100685MW1655REMMET10610/20/23 07:16:02 METAR KMJX 201216Z 18007KT 3SM RA BR BKN008 OVC018 16/16 A2982 RMK AO2 CIG 004V014 P0012
0281720407004622023102012407+39928-074292FM-15+0025KMJX V0201505N00215011285MN0160935N5+01605+01605999999ADDAA101003095GA1045+002445999GA2075+011285999GA3085+015245999GD12991+0024459GD23991+0112859GD34991+0152459GE19AGL   +99999+99999GF199999999999002441999999MA1100985100685REMMET10210/20/23 07:40:02 METAR KMJX 201240Z 15004KT 10SM SCT008 BKN037 OVC050 16/16 A2982 RMK AO2 RAE31 P0012
0298720407004622023102012567+39928-074292FM-15+0025KMJX V0201705N00265013115MN0160935N5+01675+01675100985ADDAA101003095GA1045+010365999GA2075+013115999GA3085+015245999GD12991+0103659GD23991+0131159GD34991+0152459GE19AGL   +99999+99999GF199999999999010361999999MA1100955100655REMMET11910/20/23 07:56:02 METAR KMJX 201256Z 17005KT 10SM SCT034 BKN043 OVC050 17/17 A2981 RMK AO2 RAE31 SLP098 P0012 T01670167
0258720407004622023102013407+39928-074292FM-15+0025KMJX V0201805N00265012805MN0160935N5+01705+01705999999ADDGA1045+002445999GA2075+012805999GA3075+018295999GD12991+0024459GD23991+0128059GD33991+0182959GE19AGL   +99999+99999GF199999999999002441999999MA1100915100625REMMET09010/20/23 08:40:02 METAR KMJX 201340Z 18005KT 10SM SCT008 BKN042 BKN060 17/17 A2980 RMK AO2
0232720407004622023102013487+39928-074292FM-15+0025KMJX V0201705N00215002445MN0160935N5+01705+01705999999ADDGA1075+002445999GA2075+012805999GD13991+0024451GD23991+0128059GE19AGL   +99999+99999GF199999999999002441999999MA1100915100625REMMET09510/20/23 08:48:02 METAR KMJX 201348Z 17004KT 10SM BKN008 BKN042 17/17 A2980 RMK AO2 CIG 006V010
0249720407004622023102013567+39928-074292FM-15+0025KMJX V0201705N00315002445MN0160935N5+01725+01725100935ADDGA1075+002445999GA2085+012805999GD13991+0024451GD24991+0128059GE19AGL   +99999+99999GF199999999999002441999999MA1100915100625REMMET11210/20/23 08:56:02 METAR KMJX 201356Z 17006KT 10SM BKN008 OVC042 17/17 A2980 RMK AO2 CIG 005V010 SLP093 T01720172
0305720407004622023102014567+39928-074292FM-15+0025KMJX V0201505N00365002445MN0160935N5+01785+01785100865ADDAA103003091GA1075+002445999GA2085+015245999GD13991+0024451GD24991+0152459GE19AGL   +99999+99999GF199999999999002441999999MA1100815100515MD1890169+9999REMMET12410/20/23 09:56:02 METAR KMJX 201456Z 15007KT 10SM BKN008 OVC050 18/18 A2977 RMK AO2 CIG 005V012 SLP086 60012 T01780178 58016EQDQ01  00308PRCP03
0220720407004622023102015087+39928-074292FM-15+0025KMJX V0201605N00315016765MN0160935N5+01805+01805999999ADDGA1045+002445999GA2085+016765999GD12991+0024459GD24991+0167659GE19AGL   +99999+99999GF199999999999002441999999MA1100785100485REMMET08310/20/23 10:08:02 METAR KMJX 201508Z 16006KT 10SM SCT008 OVC055 18/18 A2976 RMK AO2
0258720407004622023102015187+39928-074292FM-15+0025KMJX V0201505N00365003665MN0160935N5+01905+01805999999ADDGA1045+002445999GA2075+003665999GA3085+016765999GD12991+0024459GD23991+0036659GD34991+0167659GE19AGL   +99999+99999GF199999999999002441999999MA1100785100485REMMET09010/20/23 10:18:02 METAR KMJX 201518Z 15007KT 10SM SCT008 BKN012 OVC055 19/18 A2976 RMK AO2
0258720407004622023102015427+39928-074292FM-15+0025KMJX V0201705V00465004885MN0160935N5+01905+01705999999ADDGA1025+003055999GA2075+004885999GA3085+006405999GD11991+0030559GD23991+0048859GD34991+0064059GE19AGL   +99999+99999GF199999999999003051999999MA1100755100455REMMET09010/20/23 10:42:02 METAR KMJX 201542Z 17009KT 10SM FEW010 BKN016 OVC021 19/17 A2975 RMK AO2
0220720407004622023102015517+39928-074292FM-15+0025KMJX V0201705N00315004275MN0160935N5+01905+01705999999ADDGA1075+004275999GA2085+006405999GD13991+0042759GD24991+0064059GE19AGL   +99999+99999GF199999999999004271999999MA1100755100455REMMET08310/20/23 10:51:02 METAR KMJX 201551Z 17006KT 10SM BKN014 OVC021 19/17 A2975 RMK AO2
0237720407004622023102015567+39928-074292FM-15+0025KMJX V0201705N00465004275MN0160935N5+01895+01675100745ADDGA1075+004275999GA2085+007015999GD13991+0042759GD24991+0070159GE19AGL   +99999+99999GF199999999999004271999999MA1100715100415REMMET10010/20/23 10:56:02 METAR KMJX 201556Z 17009KT 10SM BKN014 OVC023 19/17 A2974 RMK AO2 SLP074 T01890167
0220720407004622023102016037+39928-074292FM-15+0025KMJX V0201605N00465004885MN0160935N5+01905+01705999999ADDGA1075+004885999GA2085+007625999GD13991+0048859GD24991+0076259GE19AGL   +99999+99999GF199999999999004881999999MA1100685100385REMMET08310/20/23 11:03:02 METAR KMJX 201603Z 16009KT 10SM BKN016 OVC025 19/17 A2973 RMK AO2
0237720407004622023102016567+39928-074292FM-15+0025KMJX V0201705N00365021345MN0160935N5+01895+01675100625ADDGA1025+004885999GA2075+021345999GD11991+0048859GD23991+0213459GE19AGL   +99999+99999GF199999999999004881999999MA1100585100285REMMET10010/20/23 11:56:02 METAR KMJX 201656Z 17007KT 10SM FEW016 BKN070 19/17 A2970 RMK AO2 SLP062 T01890167
0220720407004622023102017157+39928-074292FM-15+0025KMJX V0201705N00315006105MN0160935N5+01905+01705999999ADDGA1075+006105999GA2085+021345999GD13991+0061059GD24991+0213459GE19AGL   +99999+99999GF199999999999006101999999MA1100585100285REMMET08310/20/23 12:15:02 METAR KMJX 201715Z 17006KT 10SM BKN020 OVC070 19/17 A2970 RMK AO2
0326720407004622023102017477+39928-074292FM-15+0025KMJX V0201605N00365004275MN0064375N5+01805+01705999999ADDAA101001395AU120020015AU200001015AW1105AW2625GA1075+004275999GA2075+006405999GA3085+008235999GD13991+0042759GD23991+0064059GD34991+0082359GE19AGL   +99999+99999GF199999999999004271999999MA1100515100215MW1655REMMET10710/20/23 12:47:02 METAR KMJX 201747Z 16007KT 4SM RA BR BKN014 BKN021 OVC027 18/17 A2968 RMK AO2 RAB35 P0005
0418720407004622023102017567+39928-074292FM-15+0025KMJX V0201505N00465003665MN0128755N5+01785+01725100515ADDAA101001395AA206004391AU110020015AW1615GA1075+003665999GA2075+006405999GA3085+011285999GD13991+0036659GD23991+0064059GD34991+0112859GE19AGL   +99999+99999GF199999999999003661999999KA1060M+01941KA2060N+01611MA1100475100185MD1890259+9999MW1615REMMET14610/20/23 12:56:02 METAR KMJX 201756Z 15009KT 8SM -RA BKN012 BKN021 OVC037 18/17 A2967 RMK AO2 RAB35 SLP051 P0005 60017 T01780172 10194 20161 58025EQDQ01  00438PRCP06
0320720407004622023102018067+39928-074292FM-15+0025KMJX V0201405N00465004275MN0064375N5+01705+01705999999ADDAA101001095AU120020015AU200001015AW1105AW2625GA1025+002445999GA2075+004275999GA3085+014025999GD11991+0024459GD23991+0042759GD34991+0140259GE19AGL   +99999+99999GF199999999999002441999999MA1100445100145MW1655REMMET10110/20/23 13:06:02 METAR KMJX 201806Z 14009KT 4SM RA BR FEW008 BKN014 OVC046 17/17 A2966 RMK AO2 P0004
0320720407004622023102018107+39928-074292FM-15+0025KMJX V0201505N00515009455MN0096565N5+01705+01705999999ADDAA101001395AU120020015AU200001015AW1105AW2625GA1045+003055999GA2075+009455999GA3085+014635999GD12991+0030559GD23991+0094559GD34991+0146359GE19AGL   +99999+99999GF199999999999003051999999MA1100415100115MW1655REMMET10110/20/23 13:10:02 METAR KMJX 201810Z 15010KT 6SM RA BR SCT010 BKN031 OVC048 17/17 A2965 RMK AO2 P0005
0317720407004622023102018567+39928-074292FM-15+0025KMJX V0202505N00315016765MN0112655N5+01725+01725100425ADDAA101002595AU120020015AW1625GA1025+001225999GA2075+016765999GA3085+019815999GD11991+0012259GD23991+0167659GD34991+0198159GE19AGL   +99999+99999GF199999999999001221999999MA1100415100115MW1655REMMET11510/20/23 13:56:02 METAR KMJX 201856Z 25006KT 7SM RA FEW004 BKN055 OVC065 17/17 A2965 RMK AO2 SLP042 P0010 T01720172
0321720407004622023102019067+39928-074292FM-15+0025KMJX V0202505N00515003355MN0080475N5+01605+01605999999ADDAA101000895AU110020015AU200001015AW1105AW2615GA1045+001835999GA2075+003355999GA3085+019815999GD12991+0018359GD23991+0033559GD34991+0198159GE19AGL   +99999+99999GF199999999999001831999999MA1100415100115MW1615REMMET10210/20/23 14:06:02 METAR KMJX 201906Z 25010KT 5SM -RA BR SCT006 BKN011 OVC065 16/16 A2965 RMK AO2 P0003
0321720407004622023102019157+39928-074292FM-15+0025KMJX V0202505N00265008535MN0080475N5+01605+01605999999ADDAA101001895AU110020015AU200001015AW1105AW2615GA1045+001835999GA2075+008535999GA3085+012805999GD12991+0018359GD23991+0085359GD34991+0128059GE19AGL   +99999+99999GF199999999999001831999999MA1100375100075MW1615REMMET10210/20/23 14:15:02 METAR KMJX 201915Z 25005KT 5SM -RA BR SCT006 BKN028 OVC042 16/16 A2964 RMK AO2 P0007
0264720407004622023102019277+39928-074292FM-15+0025KMJX V0209999C00005009755MN0160935N5+01605+01605999999ADDAA101001895AU110020015AW1615GA1025+002445999GA2085+009755999GD11991+0024459GD24991+0097559GE19AGL   +99999+99999GF199999999999002441999999MA1100375100075MW1615REMMET09310/20/23 14:27:02 METAR KMJX 201927Z 00000KT 10SM -RA FEW008 OVC032 16/16 A2964 RMK AO2 P0007
0318720407004622023102019567+39928-074292FM-15+0025KMJX V0201405N00155010365MN0144845N5+01725+01675100345ADDAA101001895AU110020015AW1615GA1045+002135999GA2075+010365999GA3085+013415999GD12991+0021359GD23991+0103659GD34991+0134159GE19AGL   +99999+99999GF199999999999002131999999MA1100305100015MW1615REMMET11610/20/23 14:56:02 METAR KMJX 201956Z 14003KT 9SM -RA SCT007 BKN034 OVC044 17/17 A2962 RMK AO2 SLP034 P0007 T01720167
0302720407004622023102020117+39928-074292FM-15+0025KMJX V0209999C00005006105MN0160935N5+01705+01705999999ADDAA101000021AU110020015AW1615GA1025+002135999GA2075+006105999GA3085+013725999GD11991+0021359GD23991+0061059GD34991+0137259GE19AGL   +99999+99999GF199999999999002131999999MA1100305100015MW1615REMMET10010/20/23 15:11:02 METAR KMJX 202011Z 00000KT 10SM -RA FEW007 BKN020 OVC045 17/17 A2962 RMK AO2 P0000
0281720407004622023102020527+39928-074292FM-15+0025KMJX V0201005N00155004275MN0160935N5+01705+01705999999ADDAA101000395GA1045+002135999GA2075+004275999GA3085+006105999GD12991+0021359GD23991+0042759GD34991+0061059GE19AGL   +99999+99999GF199999999999002131999999MA1100205099915REMMET10210/20/23 15:52:02 METAR KMJX 202052Z 10003KT 10SM SCT007 BKN014 OVC020 17/17 A2959 RMK AO2 RAE45 P0001
0386720407004622023102020567+39928-074292FM-15+0025KMJX V0200905N00215002135MN0112655N5+01675+01675100245ADDAA101000595AA203004891AU110020015AW1615GA1075+002135999GA2075+004275999GA3085+013415999GD13991+0021351GD23991+0042759GD34991+0134159GE19AGL   +99999+99999GF199999999999002131999999MA1100205099915MD1690199+9999MW1615REMMET14010/20/23 15:56:02 METAR KMJX 202056Z 09004KT 7SM -RA BKN007 BKN014 OVC044 17/17 A2959 RMK AO2 CIG 003V010 SLP024 P0002 60019 T01670167 56019EQDQ01  00488PRCP03
0217720407004622023102021327+39928-074292FM-15+0025KMJX V0201305N00315001225MN0160935N5+01705+01705999999ADDAA101000021GA1085+001225999GD14991+0012251GE19AGL   +99999+99999GF199999999999001221999999MA1100145099845REMMET10010/20/23 16:32:02 METAR KMJX 202132Z 13006KT 10SM OVC004 17/17 A2957 RMK AO2 RAE22 CIG 003V008 P0000
0289720407004622023102021567+39928-074292FM-15+0025KMJX V0201405N00215010975MN0128755N5+01675+01675100135ADDAA101000021AU110020015AW1615GA1045+001835999GA2085+010975999GD12991+0018359GD24991+0109759GE19AGL   +99999+99999GF199999999999001831999999MA1100105099805MW1615REMMET11810/20/23 16:56:02 METAR KMJX 202156Z 14004KT 8SM -RA SCT006 OVC036 17/17 A2956 RMK AO2 RAE22B52 SLP013 P0000 T01670167
0264720407004622023102022217+39928-074292FM-15+0025KMJX V0201305N00315007625MN0160935N5+01705+01705999999ADDAA101000021AU110020015AW1615GA1075+007625999GA2085+010365999GD13991+0076259GD24991+0103659GE19AGL   +99999+99999GF199999999999007621999999MA1100075099775MW1615REMMET09310/20/23 17:21:02 METAR KMJX 202221Z 13006KT 10SM -RA BKN025 OVC034 17/17 A2955 RMK AO2 P0000
0302720407004622023102022317+39928-074292FM-15+0025KMJX V0201305N00315007625MN0160935N5+01705+01705999999ADDAA101000021AU110020015AW1615GA1025+001835999GA2075+007625999GA3085+014025999GD11991+0018359GD23991+0076259GD34991+0140259GE19AGL   +99999+99999GF199999999999001831999999MA1100075099775MW1615REMMET10010/20/23 17:31:02 METAR KMJX 202231Z 13006KT 10SM -RA FEW006 BKN025 OVC046 17/17 A2955 RMK AO2 P0000
0260720407004622023102022567+39928-074292FM-15+0025KMJX V0201405N00315001835MN0160935N5+01675+01675100075ADDAA101000021GA1075+001835999GA2085+014025999GD13991+0018359GD24991+0140259GE19AGL   +99999+99999GF199999999999001831999999MA1100035099745REMMET11210/20/23 17:56:02 METAR KMJX 202256Z 14006KT 10SM BKN006 OVC046 17/17 A2954 RMK AO2 RAE32 SLP007 P0000 T01670167
0220720407004622023102023147+39928-074292FM-15+0025KMJX V0201405N00315001225MN0160935N5+01705+01705999999ADDGA1075+001225999GA2085+015245999GD13991+0012259GD24991+0152459GE19AGL   +99999+99999GF199999999999001221999999MA1100075099775REMMET08310/20/23 18:14:02 METAR KMJX 202314Z 14006KT 10SM BKN004 OVC050 17/17 A2955 RMK AO2
0308720407004622023102023537+39928-074292FM-15+0025KMJX V0209999C00005021345MN0160935N5+01705+01705999999ADDAA101000021AU110020015AW1615GA1045+001225999GA2045+016765999GA3085+021345999GD12991+0012259GD22991+0167659GD34991+0213459GE19AGL   +99999+99999GF199999999999001221999999MA1099975099675MW1615REMMET10610/20/23 18:53:02 METAR KMJX 202353Z 00000KT 10SM -RA SCT004 SCT055 OVC070 17/17 A2952 RMK AO2 RAB40 P0000
0419720407004622023102023567+39928-074292FM-15+0025KMJX V0201205N00265024385MN0160935N5+01675+01675100015ADDAA101000021AA206004891AU110020015AW1615GA1025+001225999GA2045+018295999GA3085+024385999GD11991+0012259GD22991+0182959GD34991+0243859GE19AGL   +99999+99999GF199999999999001221999999KA1060M+01721KA2060N+01611MA1099975099675MD1690129+9999MW1615REMMET14710/20/23 18:56:02 METAR KMJX 202356Z 12005KT 10SM -RA FEW004 SCT060 OVC080 17/17 A2952 RMK AO2 RAB40 SLP001 P0000 60019 T01670167 10172 20161 56012EQDQ01  00488PRCP06
0243720407004622023102100517+39928-074292FM-15+0025KMJX V0201305N00155000915MN0160935N5+01605+01605999999ADDAA101000021GA1075+000915999GA2085+018295999GD13991+0009159GD24991+0182959GE19AGL   +99999+99999GF199999999999000911999999MA1099935099645REMMET09510/20/23 19:51:01 METAR KMJX 210051Z 13003KT 10SM BKN003 OVC060 16/16 A2951 RMK AO2 RAE01 P0000
0260720407004622023102100567+39928-074292FM-15+0025KMJX V0201405N00155000915MN0160935N5+01615+01615099955ADDAA101000021GA1075+000915999GA2085+016765999GD13991+0009159GD24991+0167659GE19AGL   +99999+99999GF199999999999000911999999MA1099935099645REMMET11210/20/23 19:56:01 METAR KMJX 210056Z 14003KT 10SM BKN003 OVC055 16/16 A2951 RMK AO2 RAE01 SLP995 P0000 T01610161
0260720407004622023102101477+39928-074292FM-15+0025KMJX V0209999C00005000915MN0028165N5+01605+01605999999ADDAA101000395AU100001015AW1105GA1075+000915999GA2085+027435999GD13991+0009159GD24991+0274359GE19AGL   +99999+99999GF199999999999000911999999MA1099835099535REMMET09510/20/23 20:47:01 METAR KMJX 210147Z 00000KT 1 3/4SM BR BKN003 OVC090 16/16 A2948 RMK AO2 P0001
0277720407004622023102101567+39928-074292FM-15+0025KMJX V0203105N00155000915MN0024145N5+01565+01565099865ADDAA101000395AU100001015AW1105GA1075+000915999GA2085+027435999GD13991+0009159GD24991+0274359GE19AGL   +99999+99999GF199999999999000911999999MA1099835099535REMMET11210/20/23 20:56:01 METAR KMJX 210156Z 31003KT 1 1/2SM BR BKN003 OVC090 16/16 A2948 RMK AO2 SLP986 P0001 T01560156
0239720407004622023102102017+39928-074292FM-15+0025KMJX V0203005N00155000915MN0048285N5+01605+01605999999ADDAU100001015AW1105GA1075+000915999GA2085+027435999GD13991+0009159GD24991+0274359GE19AGL   +99999+99999GF199999999999000911999999MA1099835099535REMMET08510/20/23 21:01:01 METAR KMJX 210201Z 30003KT 3SM BR BKN003 OVC090 16/16 A2948 RMK AO2
0201720407004622023102102107+39928-074292FM-15+0025KMJX V0202905N00155000915MN0032195N5+01605+01605999999ADDAU100001015AW1105GA1085+000915999GD14991+0009159GE19AGL   +99999+99999GF199999999999000911999999MA1099835099535REMMET07810/20/23 21:10:01 METAR KMJX 210210Z 29003KT 2SM BR OVC003 16/16 A2948 RMK AO2
0205720407004622023102102207+39928-074292FM-15+0025KMJX V0203405N00155000915MN0028165N5+01605+01605999999ADDAU100001015AW1105GA1085+000915999GD14991+0009159GE19AGL   +99999+99999GF199999999999000911999999MA1099805099505REMMET08210/20/23 21:20:01 METAR KMJX 210220Z 34003KT 1 3/4SM BR OVC003 16/16 A2947 RMK AO2
0203720407004622023102102397+39928-074292FM-15+0025KMJX V0203405N00155000915MN0012075N5+01605+01605999999ADDAU100001015AW1105GA1085+000915999GD14991+0009159GE19AGL   +99999+99999GF199999999999000911999999MA1099765099475REMMET08010/20/23 21:39:01 METAR KMJX 210239Z 34003KT 3/4SM BR OVC003 16/16 A2946 RMK AO2
0205720407004622023102102497+39928-074292FM-15+0025KMJX V0209999C00005000915MN0020125N5+01605+01605999999ADDAU100001015AW1105GA1085+000915999GD14991+0009159GE19AGL   +99999+99999GF199999999999000911999999MA1099765099475REMMET08210/20/23 21:49:01 METAR KMJX 210249Z 00000KT 1 1/4SM BR OVC003 16/16 A2946 RMK AO2
0274720407004622023102102567+39928-074292FM-15+0025KMJX V0209999C00005000915MN0016095N5+01615+01615099785ADDAA103000391AU100001015AW1105GA1085+000915999GD14991+0009159GE19AGL   +99999+99999GF199999999999000911999999MA1099765099475MD1890179+9999REMMET10710/20/23 21:56:01 METAR KMJX 210256Z 00000KT 1SM BR OVC003 16/16 A2946 RMK AO2 SLP978 60001 T01610161 58017EQDQ01  00028PRCP03
0203720407004622023102103147+39928-074292FM-15+0025KMJX V0200405N00215000915MN0012075N5+01605+01605999999ADDAU100001015AW1105GA1085+000915999GD14991+0009159GE19AGL   +99999+99999GF199999999999000911999999MA1099735099435REMMET08010/20/23 22:14:02 METAR KMJX 210314Z 04004KT 3/4SM BR OVC003 16/16 A2945 RMK AO2
0243720407004622023102103217+39928-074292FM-15+0025KMJX V0209999C00005000915MN0020125N5+01605+01605999999ADDAU100001015AW1105GA1075+000915999GA2085+003965999GD13991+0009159GD24991+0039659GE19AGL   +99999+99999GF199999999999000911999999MA1099735099435REMMET08910/20/23 22:21:02 METAR KMJX 210321Z 00000KT 1 1/4SM BR BKN003 OVC013 16/16 A2945 RMK AO2
0239720407004622023102103387+39928-074292FM-15+0025KMJX V0202405N00155000915MN0016095N5+01605+01605999999ADDAU100001015AW1105GA1075+000915999GA2085+003965999GD13991+0009159GD24991+0039659GE19AGL   +99999+99999GF199999999999000911999999MA1099735099435REMMET08510/20/23 22:38:02 METAR KMJX 210338Z 24003KT 1SM BR BKN003 OVC013 16/16 A2945 RMK AO2
0220720407004622023102103567+39928-074292FM-15+0025KMJX V0209999C00005000915MN0008055N5+01565+01565099725ADDAU100002015AW1305GA1085+000915999GD14991+0009159GE19AGL   +99999+99999GF199999999999000911999999MA1099705099405REMMET09710/20/23 22:56:02 METAR KMJX 210356Z 00000KT 1/2SM FG OVC003 16/16 A2944 RMK AO2 SLP972 T01560156
0203720407004622023102104217+39928-074292FM-15+0025KMJX V0209999C00005000915MN0004025N5+01505+01505999999ADDAU100002015AW1305GA1085+000915999GD14991+0009159GE19AGL   +99999+99999GF199999999999000911999999MA1099635099335REMMET08010/20/23 23:21:02 METAR KMJX 210421Z 00000KT 1/4SM FG OVC003 15/15 A2942 RMK AO2
0256720407004622023102104567+39928-074292FM-15+0025KMJX V0200405N00155000915MN0008055N5+01445+01445099595ADDAU100002015AW1305GA1085+000915999GD14991+0009159GE19AGL   +99999+99999GF199999999999000911999999KA1240M+01941KA2240N+01001MA1099565099265REMMET10710/20/23 23:56:02 METAR KMJX 210456Z 04003KT 1/2SM FG OVC003 14/14 A2940 RMK AO2 SLP959 T01440144 401940100
003972040700462202310210459O+39928-074292SOD  +0025KMJX V020999999999999999999999999999+99999+99999999999ADDAT1AU16RA  5AT2AU01FG  5AT3AU13BR  5
0203720407004622023102105287+39928-074292FM-15+0025KMJX V0209999C00005000915MN0004025N5+01405+01405999999ADDAU100002015AW1305GA1085+000915999GD14991+0009159GE19AGL   +99999+99999GF199999999999000911999999MA1099535099235REMMET08010/21/23 00:28:02 METAR KMJX 210528Z 00000KT 1/4SM FG OVC003 14/14 A2939 RMK AO2
0314720407004622023102105567+39928-074292FM-15+0025KMJX V0209999C00005000915MN0004025N5+01505+01505099515ADDAA106000391AU100002015AW1305GA1085+000915999GD14991+0009159GE19AGL   +99999+99999GF199999999999000911999999KA1060M+01671KA2060N+01391MA1099495099205MD1890279+9999REMMET12110/21/23 00:56:02 METAR KMJX 210556Z 00000KT 1/4SM FG OVC003 15/15 A2938 RMK AO2 SLP951 60001 T01500150 10167 20139 58027EQDQ01  00028PRCP06
0220720407004622023102106567+39928-074292FM-15+0025KMJX V0209999C00005000915MN0004025N5+01505+01505099465ADDAU100002015AW1305GA1085+000915999GD14991+0009159GE19AGL   +99999+99999GF199999999999000911999999MA1099425099135REMMET09710/21/23 01:56:02 METAR KMJX 210656Z 00000KT 1/4SM FG OVC003 15/15 A2936 RMK AO2 SLP946 T01500150
0241720407004622023102107387+39928-074292FM-15+0025KMJX V0209999C00005000915MN0008055N5+01405+01405999999ADDAU100002015AW1305GA1075+000915999GA2085+003055999GD13991+0009159GD24991+0030559GE19AGL   +99999+99999GF199999999999000911999999MA1099395099105REMMET08710/21/23 02:38:02 METAR KMJX 210738Z 00000KT 1/2SM FG BKN003 OVC010 14/14 A2935 RMK AO2
0308720407004622023102107567+39928-074292FM-15+0025KMJX V0209999C00005000915MN0008055N5+01445+01445099405ADDAU100002015AW1305GA1075+000915999GA2075+003055999GA3085+010975999GD13991+0009151GD23991+0030559GD34991+0109759GE19AGL   +99999+99999GF199999999999000911999999MA1099395099105REMMET12310/21/23 02:56:02 METAR KMJX 210756Z 00000KT 1/2SM FG BKN003 BKN010 OVC036 14/14 A2935 RMK AO2 CIG 001V005 SLP940 T01440144
0251720407004622023102108077+39928-074292FM-15+0025KMJX V0209999C00005000915MN0016095N5+01405+01405999999ADDAU100001015AW1105GA1075+000915999GA2085+010975999GD13991+0009151GD24991+0109759GE19AGL   +99999+99999GF199999999999000911999999MA1099365099065REMMET09710/21/23 03:07:02 METAR KMJX 210807Z 00000KT 1SM BR BKN003 OVC036 14/14 A2934 RMK AO2 CIG 002V005
0201720407004622023102108117+39928-074292FM-15+0025KMJX V0209999C00005000915MN0032195N5+01405+01405999999ADDAU100001015AW1105GA1085+000915999GD14991+0009159GE19AGL   +99999+99999GF199999999999000911999999MA1099365099065REMMET07810/21/23 03:11:02 METAR KMJX 210811Z 00000KT 2SM BR OVC003 14/14 A2934 RMK AO2
0205720407004622023102108267+39928-074292FM-15+0025KMJX V0209999C00005000915MN0020125N5+01405+01405999999ADDAU100001015AW1105GA1085+000915999GD14991+0009159GE19AGL   +99999+99999GF199999999999000911999999MA1099365099065REMMET08210/21/23 03:26:02 METAR KMJX 210826Z 00000KT 1 1/4SM BR OVC003 14/14 A2934 RMK AO2
0201720407004622023102108467+39928-074292FM-15+0025KMJX V0209999C00005000915MN0048285N5+01405+01405999999ADDAU100001015AW1105GA1085+000915999GD14991+0009159GE19AGL   +99999+99999GF199999999999000911999999MA1099295098995REMMET07810/21/23 03:46:02 METAR KMJX 210846Z 00000KT 3SM BR OVC003 14/14 A2932 RMK AO2
0238720407004622023102108567+39928-074292FM-15+0025KMJX V0202505N00155000915MN0064375N5+01505+01505099345ADDAU100001015AW1105GA1085+000915999GD14991+0009159GE19AGL   +99999+99999GF199999999999000911999999MA1099325099035MD1890179+9999REMMET10110/21/23 03:56:02 METAR KMJX 210856Z 25003KT 4SM BR OVC003 15/15 A2933 RMK AO2 SLP934 T01500150 58017
0205720407004622023102109037+39928-074292FM-15+0025KMJX V0202505N00155000915MN0028165N5+01405+01405999999ADDAU100001015AW1105GA1085+000915999GD14991+0009159GE19AGL   +99999+99999GF199999999999000911999999MA1099295098995REMMET08210/21/23 04:03:02 METAR KMJX 210903Z 25003KT 1 3/4SM BR OVC003 14/14 A2932 RMK AO2
0201720407004622023102109157+39928-074292FM-15+0025KMJX V0202905N00265000915MN0048285N5+01405+01405999999ADDAU100001015AW1105GA1085+000915999GD14991+0009159GE19AGL   +99999+99999GF199999999999000911999999MA1099295098995REMMET07810/21/23 04:15:02 METAR KMJX 210915Z 29005KT 3SM BR OVC003 14/14 A2932 RMK AO2
0248720407004622023102109567+39928-074292FM-15+0025KMJX V0202805N00265000915MN0112655N5+01445+01445099315ADDAA101000021AU110020015AW1615GA1085+000915999GD14991+0009159GE19AGL   +99999+99999GF199999999999000911999999MA1099295098995MW1615REMMET10810/21/23 04:56:02 METAR KMJX 210956Z 28005KT 7SM -RA OVC003 14/14 A2932 RMK AO2 RAB37 SLP931 P0000 T01440144
0311720407004622023102110567+39928-074292FM-15+0025KMJX V0202905N00315001525MN0096565N5+01445+01445099285ADDAA101001895AU120020015AU200001015AW1105AW2625GA1075+001525999GA2085+008535999GD13991+0015251GD24991+0085359GE19AGL   +99999+99999GF199999999999001521999999MA1099265098965MW1655REMMET12310/21/23 05:56:02 METAR KMJX 211056Z 29006KT 6SM RA BR BKN005 OVC028 14/14 A2931 RMK AO2 CIG 003V009 SLP928 P0007 T01440144
0369720407004622023102111567+39928-074292FM-15+0025KMJX V0202905N00465001525MN0128755N5+01395+01395099285ADDAA101001095AA206002891AA324012291AU110020015AW1615GA1085+001525999GD14991+0015259GE19AGL   +99999+99999GF199999999999001521999999KA1060M+01501KA2060N+01391MA1099265098965MD1690069+9999MW1615REMMET13210/21/23 06:56:02 METAR KMJX 211156Z 29009KT 8SM -RA OVC005 14/14 A2931 RMK AO2 SLP928 P0004 60011 70048 T01390139 10150 20139 56006EQDQ01  00278PRCP06Q02  01218PRCP24
0225720407004622023102112177+39928-074292FM-15+0025KMJX V0202905N00515002135MN0144845N5+01405+01405999999ADDAA101000021AU110020015AW1615GA1085+002135999GD14991+0021359GE19AGL   +99999+99999GF199999999999002131999999MA1099265098965MW1615REMMET08510/21/23 07:17:02 METAR KMJX 211217Z 29010KT 9SM -RA OVC007 14/14 A2931 RMK AO2 P0000
0254720407004622023102112567+39928-074292FM-15+0025KMJX V0203005N00575002135MN0144845N5+01335+01335099285ADDAA101000595AU110020015AW1615GA1085+002135999GD14991+0021351GE19AGL   +99999+99999GF199999999999002131999999MA1099265098965MW1615REMMET11410/21/23 07:56:02 METAR KMJX 211256Z 30011KT 9SM -RA OVC007 13/13 A2931 RMK AO2 CIG 004V011 SLP928 P0002 T01330133
0255720407004622023102113567+39928-074292FM-15+0025KMJX V0202905N00625002135MN0160935N5+01335+01335099265ADDAA101000021AU110020015AW1615GA1085+002135999GD14991+0021351GE19AGL   +99999+99999GF199999999999002131999999MA1099225098935MW1615REMMET11510/21/23 08:56:02 METAR KMJX 211356Z 29012KT 10SM -RA OVC007 13/13 A2930 RMK AO2 CIG 005V012 SLP926 P0000 T01330133
0243720407004622023102114337+39928-074292FM-15+0025KMJX V0203005N00625028965MN0160935N5+01305+01305999999ADDAA101000021GA1045+002745999GA2085+028965999GD12991+0027459GD24991+0289659GE19AGL   +99999+99999GF199999999999002741999999MA1099225098935REMMET09510/21/23 09:33:02 METAR KMJX 211433Z 30012KT 10SM SCT009 OVC095 13/13 A2930 RMK AO2 RAE28 P0000
0346720407004622023102114567+39928-074292FM-15+0025KMJX V0203005N00625033535MN0160935N5+01335+01335099245ADDAA101000021AA203000591AU110020015AW1615GA1025+002745999GA2075+033535999GD11991+0027459GD23991+0335359GE19AGL   +99999+99999GF199999999999002741999999MA1099225098935MD1890049+9999MW1615REMMET13110/21/23 09:56:02 METAR KMJX 211456Z 30012KT 10SM -RA FEW009 BKN110 13/13 A2930 RMK AO2 RAE28B50 SLP924 P0000 60002 T01330133 58004EQDQ01  00058PRCP03
0290720407004622023102115567+39928-074292FM-15+0025KMJX V0202905N007252200059N0160935N5+01395+01335099285ADDAA101000021GA1025+028965999GA2045+036585999GD11991+0289659GD22991+0365859GE19AGL   +99999+99999GF104995999999028961999999MA1099265098965OC100935REMMET11510/21/23 10:56:02 METAR KMJX 211556Z 29014G18KT 10SM FEW095 SCT120 14/13 A2931 RMK AO2 RAE09 SLP928 P0000 T01390133EQDD01      0ADE726
0280720407004622023102116567+39928-074292FM-15+0025KMJX V0202905N00885027435MN0160935N5+01615+01175099305ADDGA1025+008535999GA2075+027435999GD11991+0085359GD23991+0274359GE19AGL   +99999+99999GF199999999999008531999999MA1099265098965OC101345OD149901331280REMMET12110/21/23 11:56:02 METAR KMJX 211656Z 29017G26KT 10SM FEW028 BKN090 16/12 A2931 RMK AO2 PK WND 28026/1654 SLP930 T01610117
0380720407004622023102117567+39928-074292FM-15+0025KMJX V0203005N00625033535MN0160935N5+01835+01065099295ADDAA106000591GA1045+011285999GA2045+013725999GA3075+033535999GD12991+0112859GD22991+0137259GD33991+0335359GE19AGL   +99999+99999GF199999999999011281999999KA1060M+01831KA2060N+01331MA1099265098965MD1090059+9999OC101035REMMET13410/21/23 12:56:02 METAR KMJX 211756Z 30012G20KT 10SM SCT037 SCT045 BKN110 18/11 A2931 RMK AO2 SLP929 60002 T01830106 10183 20133 50005EQDQ01  00058PRCP06
0286720407004622023102118567+39928-074292FM-15+0025KMJX V0202905N00575021345MN0160935N5+01725+01005099325ADDGA1045+014025999GA2045+016765999GA3085+021345999GD12991+0140259GD22991+0167659GD34991+0213459GE19AGL   +99999+99999GF199999999999014021999999MA1099295098995OC101085REMMET11010/21/23 13:56:02 METAR KMJX 211856Z 29011G21KT 10SM SCT046 SCT055 OVC070 17/10 A2932 RMK AO2 SLP932 T01720100
0199720407004622023102119567+39928-074292FM-15+0025KMJX V0202805N00625021345MN0160935N5+01725+00835099405ADDGA1085+021345999GD14991+0213459GE19AGL   +99999+99999GF199999999999021341999999MA1099365099065REMMET09310/21/23 14:56:02 METAR KMJX 211956Z 28012KT 10SM OVC070 17/08 A2934 RMK AO2 SLP940 T01720083
0219720407004622023102120567+39928-074292FM-15+0025KMJX V0202705N00575021345MN0160935N5+01675+00835099485ADDGA1085+021345999GD14991+0213459GE19AGL   +99999+99999GF199999999999021341999999MA1099465099165MD1390199+9999REMMET09910/21/23 15:56:02 METAR KMJX 212056Z 27011KT 10SM OVC070 17/08 A2937 RMK AO2 SLP948 T01670083 53019
0248720407004622023102121567+39928-074292FM-15+0025KMJX V0202705N00575021345MN0160935N5+01565+00835099595ADDGA1025+014945999GA2075+021345999GD11991+0149459GD23991+0213459GE19AGL   +99999+99999GF199999999999014941999999MA1099565099265OC100825REMMET10310/21/23 16:56:02 METAR KMJX 212156Z 27011G16KT 10SM FEW049 BKN070 16/08 A2940 RMK AO2 SLP959 T01560083
0218720407004622023102122567+39928-074292FM-15+0025KMJX V0202705N006252200059N0160935N5+01445+00895099735ADDGA1045+021345999GD12991+0213459GE19AGL   +99999+99999GF104995999999021341999999MA1099705099405REMMET09310/21/23 17:56:02 METAR KMJX 212256Z 27012KT 10SM SCT070 14/09 A2944 RMK AO2 SLP973 T01440089EQDD01      0ADE726
0276720407004622023102123567+39928-074292FM-15+0025KMJX V0202605N005752200059N0160935N5+01395+00785099835ADDGA1025+021345999GD11991+0213459GE19AGL   +99999+99999GF102995999999021341999999KA1060M+01831KA2060N+01391MA1099805099505MD1190369+9999REMMET11110/21/23 18:56:02 METAR KMJX 212356Z 26011KT 10SM FEW070 14/08 A2947 RMK AO2 SLP983 T01390078 10183 20139 51036EQDD01      0ADE726
0199720407004622023102200567+39928-074292FM-15+0025KMJX V0202605N00415018295MN0160935N5+01395+00785099945ADDGA1075+018295999GD13991+0182959GE19AGL   +99999+99999GF199999999999018291999999MA1099905099605REMMET09310/21/23 19:56:01 METAR KMJX 220056Z 26008KT 10SM BKN060 14/08 A2950 RMK AO2 SLP994 T01390078
0185720407004622023102201567+39928-074292FM-15+0025KMJX V0202705N007752200059N0160935N5+01395+00725100015ADDGA1005+999999999GD10991+9999999GF100991999999999999999999MA1099975099675OC101085REMMET09310/21/23 20:56:01 METAR KMJX 220156Z 27015G21KT 10SM CLR 14/07 A2952 RMK AO2 SLP001 T01390072
0194720407004622023102202567+39928-074292FM-15+0025KMJX V0202605N004652200059N0160935N5+01285+00725100045ADDGA1005+999999999GD10991+9999999GF100991999999999999999999MA1100005099705MD1190219+9999REMMET09610/21/23 21:56:01 METAR KMJX 220256Z 26009KT 10SM CLR 13/07 A2953 RMK AO2 SLP004 T01280072 51021
0174720407004622023102203567+39928-074292FM-15+0025KMJX V0202405N004652200059N0160935N5+01175+00725100125ADDGA1005+999999999GD10991+9999999GF100991999999999999999999MA1100105099805REMMET09010/21/23 22:56:02 METAR KMJX 220356Z 24009KT 10SM CLR 12/07 A2956 RMK AO2 SLP012 T01170072
0210720407004622023102204567+39928-074292FM-15+0025KMJX V0202505N005152200059N0160935N5+01175+00615100145ADDGA1005+999999999GD10991+9999999GF100991999999999999999999KA1240M+01831KA2240N+01171MA1100105099805REMMET10010/21/23 23:56:02 METAR KMJX 220456Z 25010KT 10SM CLR 12/06 A2956 RMK AO2 SLP014 T01170061 401830117
003972040700462202310220459O+39928-074292SOD  +0025KMJX V020999999999999999999999999999+99999+99999999999ADDAT1AU16RA  5AT2AU01FG  5AT3AU13BR  5
0232720407004622023102205567+39928-074292FM-15+0025KMJX V0202605N004152200059N0160935N5+01065+00565100155ADDGA1005+999999999GD10991+9999999GF100991999999999999999999KA1060M+01441KA2060N+01061MA1100145099845MD1190119+9999REMMET10810/22/23 00:56:02 METAR KMJX 220556Z 26008KT 10SM CLR 11/06 A2957 RMK AO2 SLP015 T01060056 10144 20106 51011
0174720407004622023102206567+39928-074292FM-15+0025KMJX V0202505N004652200059N0160935N5+00945+00565100165ADDGA1005+999999999GD10991+9999999GF100991999999999999999999MA1100145099845REMMET09010/22/23 01:56:02 METAR KMJX 220656Z 25009KT 10SM CLR 09/06 A2957 RMK AO2 SLP016 T00940056
0174720407004622023102207567+39928-074292FM-15+0025KMJX V0202505N004152200059N0160935N5+00945+00505100205ADDGA1005+999999999GD10991+9999999GF100991999999999999999999MA1100175099875REMMET09010/22/23 02:56:02 METAR KMJX 220756Z 25008KT 10SM CLR 09/05 A2958 RMK AO2 SLP020 T00940050
0194720407004622023102208567+39928-074292FM-15+0025KMJX V0202505N004152200059N0160935N5+00835+00445100245ADDGA1005+999999999GD10991+9999999GF100991999999999999999999MA1100205099915MD1390099+9999REMMET09610/22/23 03:56:02 METAR KMJX 220856Z 25008KT 10SM CLR 08/04 A2959 RMK AO2 SLP024 T00830044 53009
0174720407004622023102209567+39928-074292FM-15+0025KMJX V0202505N003652200059N0160935N5+00785+00445100305ADDGA1005+999999999GD10991+9999999GF100991999999999999999999MA1100275099975REMMET09010/22/23 04:56:02 METAR KMJX 220956Z 25007KT 10SM CLR 08/04 A2961 RMK AO2 SLP030 T00780044
0174720407004622023102210567+39928-074292FM-15+0025KMJX V0202605N004652200059N0160935N5+00785+00445100405ADDGA1005+999999999GD10991+9999999GF100991999999999999999999MA1100375100075REMMET09010/22/23 05:56:02 METAR KMJX 221056Z 26009KT 10SM CLR 08/04 A2964 RMK AO2 SLP040 T00780044
0268720407004622023102211567+39928-074292FM-15+0025KMJX V0202605N003652200059N0160935N5+00895+00505100485ADDAA124000591GA1005+999999999GD10991+9999999GF100991999999999999999999KA1060M+01061KA2060N+00721MA1100445100145MD1390249+9999REMMET11410/22/23 06:56:02 METAR KMJX 221156Z 26007KT 10SM CLR 09/05 A2966 RMK AO2 SLP048 70002 T00890050 10106 20072 53024EQDQ01  00058PRCP24
0185720407004622023102212567+39928-074292FM-15+0025KMJX V0202705N006252200059N0160935N5+01175+00505100565ADDGA1005+999999999GD10991+9999999GF100991999999999999999999MA1100545100245OC100985REMMET09310/22/23 07:56:02 METAR KMJX 221256Z 27012G19KT 10SM CLR 12/05 A2969 RMK AO2 SLP056 T01170050
0185720407004622023102213567+39928-074292FM-15+0025KMJX V0202805N006752200059N0160935N5+01285+00565100555ADDGA1005+999999999GD10991+9999999GF100991999999999999999999MA1100515100215OC101035REMMET09310/22/23 08:56:02 METAR KMJX 221356Z 28013G20KT 10SM CLR 13/06 A2968 RMK AO2 SLP055 T01280056
0249720407004622023102214567+39928-074292FM-15+0025KMJX V0202905N009352200059N0160935N5+01395+00445100525ADDGA1045+011585999GD12991+0115859GE19AGL   +99999+99999GF104995999999011581999999MA1100475100185MD1090039+9999OC101245REMMET10210/22/23 09:56:02 METAR KMJX 221456Z 29018G24KT 10SM SCT038 14/04 A2967 RMK AO2 SLP052 T01390044 50003EQDD01      0ADE726
0242720407004622023102215567+39928-074292FM-15+0025KMJX V0203005N00625012505MN0160935N5+01395+00505100545ADDGA1075+012505999GD13991+0125059GE19AGL   +99999+99999GF199999999999012501999999MA1100515100215OC101035OD149901331320REMMET11410/22/23 10:56:02 METAR KMJX 221556Z 30012G20KT 10SM BKN041 14/05 A2968 RMK AO2 PK WND 32026/1546 SLP054 T01390050
0242720407004622023102216567+39928-074292FM-15+0025KMJX V0202905N00985013115MN0160935N5+01505+00395100525ADDGA1085+013115999GD14991+0131159GE19AGL   +99999+99999GF199999999999013111999999MA1100515100215OC101395OD149901391280REMMET11410/22/23 11:56:02 METAR KMJX 221656Z 29019G27KT 10SM OVC043 15/04 A2968 RMK AO2 PK WND 28027/1649 SLP052 T01500039
0268720407004622023102217567+39928-074292FM-15+0025KMJX V0203005N00775014945MN0160935N5+01445+00445100515ADDGA1085+014945999GD14991+0149459GE19AGL   +99999+99999GF199999999999014941999999KA1060M+01501KA2060N+00831MA1100475100185MD1890019+9999OC101035REMMET11410/22/23 12:56:02 METAR KMJX 221756Z 30015G20KT 10SM OVC049 14/04 A2967 RMK AO2 SLP051 T01440044 10150 20083 58001
0242720407004622023102218567+39928-074292FM-15+0025KMJX V0203105N00725014945MN0160935N5+01505+00335100525ADDGA1085+014945999GD14991+0149459GE19AGL   +99999+99999GF199999999999014941999999MA1100475100185OC100935OD149901391290REMMET11410/22/23 13:56:02 METAR KMJX 221856Z 31014G18KT 10SM OVC049 15/03 A2967 RMK AO2 PK WND 29027/1823 SLP052 T01500033
0261720407004622023102219567+39928-074292FM-15+0025KMJX V0202905N009852200059N0160935N5+01505+00225100585ADDGA1025+016765999GD11991+0167659GE19AGL   +99999+99999GF102995999999016761999999MA1100545100245OC101245OD149901391280REMMET11410/22/23 14:56:02 METAR KMJX 221956Z 29019G24KT 10SM FEW055 15/02 A2969 RMK AO2 PK WND 28027/1905 SLP058 T01500022EQDD01      0ADE726
0230720407004622023102220567+39928-074292FM-15+0025KMJX V0203005N00675018295MN0160935N5+01445+00175100685ADDGA1075+018295999GD13991+0182959GE19AGL   +99999+99999GF199999999999018291999999MA1100645100345MD1390179+9999OC101135REMMET10210/22/23 15:56:02 METAR KMJX 222056Z 30013G22KT 10SM BKN060 14/02 A2972 RMK AO2 SLP068 T01440017 53017
0218720407004622023102222567+39928-074292FM-15+0025KMJX V0202605N003152200059N0160935N5+01065+00175100975ADDGA1025+019815999GD11991+0198159GE19AGL   +99999+99999GF102995999999019811999999MA1100955100655REMMET09310/22/23 17:56:02 METAR KMJX 222256Z 26006KT 10SM FEW065 11/02 A2981 RMK AO2 SLP097 T01060017EQDD01      0ADE726
0257720407004622023102223567+39928-074292FM-15+0025KMJX V0202705N00265021345MN0160935N5+00945+00225101075ADDGA1075+021345999GD13991+0213459GE19AGL   +99999+99999GF199999999999021341999999KA1060M+01671KA2060N+00891MA1101055100755MD1190399+9999REMMET11110/22/23 18:56:02 METAR KMJX 222356Z 27005KT 10SM BKN070 09/02 A2984 RMK AO2 SLP107 T00940022 10167 20089 51039
0199720407004622023102300567+39928-074292FM-15+0025KMJX V0203005N00265019815MN0160935N5+01005+00175101185ADDGA1085+019815999GD14991+0198159GE19AGL   +99999+99999GF199999999999019811999999MA1101155100855REMMET09310/22/23 19:56:01 METAR KMJX 230056Z 30005KT 10SM OVC065 10/02 A2987 RMK AO2 SLP118 T01000017
0174720407004622023102301567+39928-074292FM-15+0025KMJX V0203405N002152200059N0160935N5+00835+00225101255ADDGA1005+999999999GD10991+9999999GF100991999999999999999999MA1101225100925REMMET09010/22/23 20:56:01 METAR KMJX 230156Z 34004KT 10SM CLR 08/02 A2989 RMK AO2 SLP125 T00830022
0194720407004622023102302567+39928-074292FM-15+0025KMJX V0203105N002152200059N0160935N5+00505+00225101335ADDGA1005+999999999GD10991+9999999GF100991999999999999999999MA1101325101025MD1190269+9999REMMET09610/22/23 21:56:01 METAR KMJX 230256Z 31004KT 10SM CLR 05/02 A2992 RMK AO2 SLP133 T00500022 51026
0199720407004622023102303567+39928-074292FM-15+0025KMJX V0202605N00155018295MN0160935N5+00445+00225101395ADDGA1075+018295999GD13991+0182959GE19AGL   +99999+99999GF199999999999018291999999MA1101355101055REMMET09310/22/23 22:56:02 METAR KMJX 230356Z 26003KT 10SM BKN060 04/02 A2993 RMK AO2 SLP139 T00440022
0254720407004622023102304567+39928-074292FM-15+0025KMJX V0203005N003152200059N0160935N5+00565+00285101445ADDGA1025+022865999GD11991+0228659GE19AGL   +99999+99999GF102995999999022861999999KA1240M+01671KA2240N+00391MA1101425101125REMMET10310/22/23 23:56:02 METAR KMJX 230456Z 30006KT 10SM FEW075 06/03 A2995 RMK AO2 SLP144 T00560028 401670039EQDD01      0ADE726
0232720407004622023102305567+39928-074292FM-15+0025KMJX V0203005N005152200059N0160935N5+00785+00225101475ADDGA1005+999999999GD10991+9999999GF100991999999999999999999KA1060M+01061KA2060N+00391MA1101425101125MD1190139+9999REMMET10810/23/23 00:56:02 METAR KMJX 230556Z 30010KT 10SM CLR 08/02 A2995 RMK AO2 SLP147 T00780022 10106 20039 51013
0218720407004622023102306567+39928-074292FM-15+0025KMJX V0203105N003652200059N0160935N5+00785+00225101535ADDGA1025+018295999GD11991+0182959GE19AGL   +99999+99999GF102995999999018291999999MA1101495101195REMMET09310/23/23 01:56:02 METAR KMJX 230656Z 31007KT 10SM FEW060 08/02 A2997 RMK AO2 SLP153 T00780022EQDD01      0ADE726
0238720407004622023102308567+39928-074292FM-15+0025KMJX V0203005N004652200059N0160935N5+00785+00285101665ADDGA1045+011285999GD12991+0112859GE19AGL   +99999+99999GF104995999999011281999999MA1101635101325MD1390209+9999REMMET09910/23/23 03:56:02 METAR KMJX 230856Z 30009KT 10SM SCT037 08/03 A3001 RMK AO2 SLP166 T00780028 53020EQDD01      0ADE726
0174720407004622023102309567+39928-074292FM-15+0025KMJX V0203105N003652200059N0160935N5+00785+00285101755ADDGA1005+999999999GD10991+9999999GF100991999999999999999999MA1101735101435REMMET09010/23/23 04:56:02 METAR KMJX 230956Z 31007KT 10SM CLR 08/03 A3004 RMK AO2 SLP175 T00780028
0174720407004622023102310567+39928-074292FM-15+0025KMJX V0203105N003152200059N0160935N5+00725+00335101845ADDGA1005+999999999GD10991+9999999GF100991999999999999999999MA1101795101495REMMET09010/23/23 05:56:02 METAR KMJX 231056Z 31006KT 10SM CLR 07/03 A3006 RMK AO2 SLP184 T00720033
0232720407004622023102311567+39928-074292FM-15+0025KMJX V0203005N002652200059N0160935N5+00725+00395101975ADDGA1005+999999999GD10991+9999999GF100991999999999999999999KA1060M+00831KA2060N+00671MA1101935101635MD1390309+9999REMMET10810/23/23 06:56:02 METAR KMJX 231156Z 30005KT 10SM CLR 07/04 A3010 RMK AO2 SLP197 T00720039 10083 20067 53030
0185720407004622023102312567+39928-074292FM-15+0025KMJX V0203105N004152200059N0160935N5+00945+00395102085ADDGA1005+999999999GD10991+9999999GF100991999999999999999999MA1102075101765OC100885REMMET09310/23/23 07:56:02 METAR KMJX 231256Z 31008G17KT 10SM CLR 09/04 A3014 RMK AO2 SLP208 T00940039
0185720407004622023102313567+39928-074292FM-15+0025KMJX V0203305N005152200059N0160935N5+01115+00445102135ADDGA1005+999999999GD10991+9999999GF100991999999999999999999MA1102105101805OC100935REMMET09310/23/23 08:56:02 METAR KMJX 231356Z 33010G18KT 10SM CLR 11/04 A3015 RMK AO2 SLP213 T01110044
0194720407004622023102314567+39928-074292FM-15+0025KMJX V0203105N005152200059N0160935N5+01285+00505102155ADDGA1005+999999999GD10991+9999999GF100991999999999999999999MA1102135101835MD1190199+9999REMMET09610/23/23 09:56:02 METAR KMJX 231456Z 31010KT 10SM CLR 13/05 A3016 RMK AO2 SLP215 T01280050 51019
0174720407004622023102315567+39928-074292FM-15+0025KMJX V0203405N005152200059N0160935N5+01395+00565102185ADDGA1005+999999999GD10991+9999999GF100991999999999999999999MA1102135101835REMMET09010/23/23 10:56:02 METAR KMJX 231556Z 34010KT 10SM CLR 14/06 A3016 RMK AO2 SLP218 T01390056
0174720407004622023102316567+39928-074292FM-15+0025KMJX V0203105N003152200059N0160935N5+01505+00565102185ADDGA1005+999999999GD10991+9999999GF100991999999999999999999MA1102135101835REMMET09010/23/23 11:56:02 METAR KMJX 231656Z 31006KT 10SM CLR 15/06 A3016 RMK AO2 SLP218 T01500056
0251720407004622023102317567+39928-074292FM-15+0025KMJX V0203305N004152200059N0160935N5+01615+00565102155ADDGA1005+999999999GD10991+9999999GF100991999999999999999999KA1060M+01611KA2060N+00721MA1102135101835MD1890009+9999REMMET10810/23/23 12:56:02 METAR KMJX 231756Z 33008KT 10SM CLR 16/06 A3016 RMK AO2 SLP215 T01610056 10161 20072 58000EQDQ018     3APCTEN
0174720407004622023102318567+39928-074292FM-15+0025KMJX V0202805N004652200059N0160935N5+01675+00615102145ADDGA1005+999999999GD10991+9999999GF100991999999999999999999MA1102105101805REMMET09010/23/23 13:56:02 METAR KMJX 231856Z 28009KT 10SM CLR 17/06 A3015 RMK AO2 SLP214 T01670061
0194720407004622023102320567+39928-074292FM-15+0025KMJX V0202905N004152200059N0160935N5+01615+00565102255ADDGA1005+999999999GD10991+9999999GF100991999999999999999999MA1102205101905MD1390109+9999REMMET09610/23/23 15:56:02 METAR KMJX 232056Z 29008KT 10SM CLR 16/06 A3018 RMK AO2 SLP225 T01610056 53010
0174720407004622023102321567+39928-074292FM-15+0025KMJX V0202905N002152200059N0160935N5+01395+00675102345ADDGA1005+999999999GD10991+9999999GF100991999999999999999999MA1102305102005REMMET09010/23/23 16:56:02 METAR KMJX 232156Z 29004KT 10SM CLR 14/07 A3021 RMK AO2 SLP234 T01390067
0174720407004622023102322567+39928-074292FM-15+0025KMJX V0209999C000052200059N0160935N5+00895+00615102395ADDGA1005+999999999GD10991+9999999GF100991999999999999999999MA1102375102075REMMET09010/23/23 17:56:02 METAR KMJX 232256Z 00000KT 10SM CLR 09/06 A3023 RMK AO2 SLP239 T00890061
0232720407004622023102323567+39928-074292FM-15+0025KMJX V0209999C000052200059N0160935N5+00615+00445102475ADDGA1005+999999999GD10991+9999999GF100991999999999999999999KA1060M+01721KA2060N+00611MA1102445102145MD1190219+9999REMMET10810/23/23 18:56:02 METAR KMJX 232356Z 00000KT 10SM CLR 06/04 A3025 RMK AO2 SLP247 T00610044 10172 20061 51021
0174720407004622023102400567+39928-074292FM-15+0025KMJX V0209999C000052200059N0160935N5+00565+00445102515ADDGA1005+999999999GD10991+9999999GF100991999999999999999999MA1102475102175REMMET09010/23/23 19:56:01 METAR KMJX 240056Z 00000KT 10SM CLR 06/04 A3026 RMK AO2 SLP251 T00560044
0174720407004622023102401567+39928-074292FM-15+0025KMJX V0209999C000052200059N0160935N5+00395+00285102575ADDGA1005+999999999GD10991+9999999GF100991999999999999999999MA1102545102245REMMET09010/23/23 20:56:01 METAR KMJX 240156Z 00000KT 10SM CLR 04/03 A3028 RMK AO2 SLP257 T00390028
0194720407004622023102402567+39928-074292FM-15+0025KMJX V0209999C000052200059N0160935N5+00335+00225102605ADDGA1005+999999999GD10991+9999999GF100991999999999999999999MA1102575102275MD1190159+9999REMMET09610/23/23 21:56:02 METAR KMJX 240256Z 00000KT 10SM CLR 03/02 A3029 RMK AO2 SLP260 T00330022 51015
0174720407004622023102403567+39928-074292FM-15+0025KMJX V0209999C000052200059N0160935N5+00285+00225102655ADDGA1005+999999999GD10991+9999999GF100991999999999999999999MA1102615102305REMMET09010/23/23 22:56:02 METAR KMJX 240356Z 00000KT 10SM CLR 03/02 A3030 RMK AO2 SLP265 T00280022
0217720407004622023102404567+39928-074292FM-15+0025KMJX V0209999C000052200059N0160935N5+00175+00065102655ADDGA1005+999999999GD10991+9999999GF100991999999999999999999KA1240M+01721KA2240N+00171MA1102615102305REMMET10710/23/23 23:56:02 METAR KMJX 240456Z 00000KT 10SM CLR 02/01 A3030 RMK AO2 SLP265 T00170006 401720017 FZRANO
0239720407004622023102405567+39928-074292FM-15+0025KMJX V0209999C000052200059N0160935N5+00115+00065102675ADDGA1005+999999999GD10991+9999999GF100991999999999999999999KA1060M+00611KA2060N+00111MA1102645102345MD1190079+9999REMMET11510/24/23 00:56:02 METAR KMJX 240556Z 00000KT 10SM CLR 01/01 A3031 RMK AO2 SLP267 T00110006 10061 20011 51007 FZRANO
0181720407004622023102406567+39928-074292FM-15+0025KMJX V0209999C000052200059N0160935N5+00115+00065102685ADDGA1005+999999999GD10991+9999999GF100991999999999999999999MA1102645102345REMMET09710/24/23 01:56:02 METAR KMJX 240656Z 00000KT 10SM CLR 01/01 A3031 RMK AO2 SLP268 T00110006 FZRANO
0203720407004622023102408567+39928-074292FM-15+0025KMJX V0209999C000052200059N0160935N5-00065-00115102775ADDGA1005+999999999GD10991+9999999GF100991999999999999999999MA1102745102445MD1390109+9999REMMET10510/24/23 03:56:02 METAR KMJX 240856Z 00000KT 10SM CLR M01/M01 A3034 RMK AO2 SLP277 T10061011 53010 FZRANO
0183720407004622023102409567+39928-074292FM-15+0025KMJX V0209999C000052200059N0160935N5-00065-00115102835ADDGA1005+999999999GD10991+9999999GF100991999999999999999999MA1102785102475REMMET09910/24/23 04:56:02 METAR KMJX 240956Z 00000KT 10SM CLR M01/M01 A3035 RMK AO2 SLP283 T10061011 FZRANO
0183720407004622023102410567+39928-074292FM-15+0025KMJX V0209999C000052200059N0160935N5-00065-00115102885ADDGA1005+999999999GD10991+9999999GF100991999999999999999999MA1102845102545REMMET09910/24/23 05:56:02 METAR KMJX 241056Z 00000KT 10SM CLR M01/M01 A3037 RMK AO2 SLP288 T10061011 FZRANO
0174720407004622023102412567+39928-074292FM-15+0025KMJX V0209999C000052200059N0160935N5+00725+00505103035ADDGA1005+999999999GD10991+9999999GF100991999999999999999999MA1102985102685REMMET09010/24/23 07:56:02 METAR KMJX 241256Z 00000KT 10SM CLR 07/05 A3041 RMK AO2 SLP303 T00720050
0174720407004622023102413567+39928-074292FM-15+0025KMJX V0209999C000052200059N0160935N5+01395+00835102995ADDGA1005+999999999GD10991+9999999GF100991999999999999999999MA1102955102645REMMET09010/24/23 08:56:02 METAR KMJX 241356Z 00000KT 10SM CLR 14/08 A3040 RMK AO2 SLP299 T01390083
0194720407004622023102414567+39928-074292FM-15+0025KMJX V0202005N002652200059N0160935N5+01675+00505102975ADDGA1005+999999999GD10991+9999999GF100991999999999999999999MA1102955102645MD1090029+9999REMMET09610/24/23 09:56:02 METAR KMJX 241456Z 20005KT 10SM CLR 17/05 A3040 RMK AO2 SLP297 T01670050 50002
0174720407004622023102415567+39928-074292FM-15+0025KMJX V0202105N003152200059N0160935N5+01785+00505102995ADDGA1005+999999999GD10991+9999999GF100991999999999999999999MA1102955102645REMMET09010/24/23 10:56:02 METAR KMJX 241556Z 21006KT 10SM CLR 18/05 A3040 RMK AO2 SLP299 T01780050
0174720407004622023102416567+39928-074292FM-15+0025KMJX V0202205N002652200059N0160935N5+01895+00565102915ADDGA1005+999999999GD10991+9999999GF100991999999999999999999MA1102885102575REMMET09010/24/23 11:56:02 METAR KMJX 241656Z 22005KT 10SM CLR 19/06 A3038 RMK AO2 SLP291 T01890056
0232720407004622023102417567+39928-074292FM-15+0025KMJX V0202405N004152200059N0160935N5+02005+00505102845ADDGA1005+999999999GD10991+9999999GF100991999999999999999999KA1060M+02001KA2060N+00111MA1102815102515MD1890139+9999REMMET10810/24/23 12:56:02 METAR KMJX 241756Z 24008KT 10SM CLR 20/05 A3036 RMK AO2 SLP284 T02000050 10200 20011 58013
0174720407004622023102418567+39928-074292FM-15+0025KMJX V0202505N003652200059N0160935N5+02065+00505102785ADDGA1005+999999999GD10991+9999999GF100991999999999999999999MA1102745102445REMMET09010/24/23 13:56:02 METAR KMJX 241856Z 25007KT 10SM CLR 21/05 A3034 RMK AO2 SLP278 T02060050
0174720407004622023102419567+39928-074292FM-15+0025KMJX V0202105N003652200059N0160935N5+02005+00445102765ADDGA1005+999999999GD10991+9999999GF100991999999999999999999MA1102745102445REMMET09010/24/23 14:56:02 METAR KMJX 241956Z 21007KT 10SM CLR 20/04 A3034 RMK AO2 SLP276 T02000044
0194720407004622023102420567+39928-074292FM-15+0025KMJX V0202405N003152200059N0160935N5+01945+00335102775ADDGA1005+999999999GD10991+9999999GF100991999999999999999999MA1102745102445MD1590079+9999REMMET09610/24/23 15:56:02 METAR KMJX 242056Z 24006KT 10SM CLR 19/03 A3034 RMK AO2 SLP277 T01940033 55007
0174720407004622023102421567+39928-074292FM-15+0025KMJX V0201605N002652200059N0160935N5+01565+01005102775ADDGA1005+999999999GD10991+9999999GF100991999999999999999999MA1102745102445REMMET09010/24/23 16:56:02 METAR KMJX 242156Z 16005KT 10SM CLR 16/10 A3034 RMK AO2 SLP277 T01560100
0174720407004622023102422567+39928-074292FM-15+0025KMJX V0209999C000052200059N0160935N5+01285+00945102805ADDGA1005+999999999GD10991+9999999GF100991999999999999999999MA1102745102445REMMET09010/24/23 17:56:02 METAR KMJX 242256Z 00000KT 10SM CLR 13/09 A3034 RMK AO2 SLP280 T01280094
0232720407004622023102423567+39928-074292FM-15+0025KMJX V0201805N002152200059N0160935N5+01065+00835102835ADDGA1005+999999999GD10991+9999999GF100991999999999999999999KA1060M+02061KA2060N+01061MA1102785102475MD1390059+9999REMMET10810/24/23 18:56:02 METAR KMJX 242356Z 18004KT 10SM CLR 11/08 A3035 RMK AO2 SLP283 T01060083 10206 20106 53005
0174720407004622023102500567+39928-074292FM-15+0025KMJX V0202105N003152200059N0160935N5+01175+00895102805ADDGA1005+999999999GD10991+9999999GF100991999999999999999999MA1102785102475REMMET09010/24/23 19:56:01 METAR KMJX 250056Z 21006KT 10SM CLR 12/09 A3035 RMK AO2 SLP280 T01170089
0174720407004622023102501567+39928-074292FM-15+0025KMJX V0209999C000052200059N0160935N5+00945+00835102855ADDGA1005+999999999GD10991+9999999GF100991999999999999999999MA1102815102515REMMET09010/24/23 20:56:01 METAR KMJX 250156Z 00000KT 10SM CLR 09/08 A3036 RMK AO2 SLP285 T00940083
0174720407004622023102503567+39928-074292FM-15+0025KMJX V0202205N001552200059N0160935N5+00675+00615102785ADDGA1005+999999999GD10991+9999999GF100991999999999999999999MA1102745102445REMMET09010/24/23 22:56:01 METAR KMJX 250356Z 22003KT 10SM CLR 07/06 A3034 RMK AO2 SLP278 T00670061
0209720407004622023102504567+39928-074292FM-15+0025KMJX V0202205N001552200059N0128755N5+00785+00785102765ADDGA1005+999999999GD10991+9999999GF100991999999999999999999KA1240M+02061KA2240N-00061MA1102745102445REMMET09910/24/23 23:56:01 METAR KMJX 250456Z 22003KT 8SM CLR 08/08 A3034 RMK AO2 SLP276 T00780078 402061006
0176720407004622023102505497+39928-074292FM-15+0025KMJX V0202205N001552200059N0032195N5+00705+00705999999ADDAU100001015AW1105GA1005+999999999GD10991+9999999GF100991999999999999999999MA1102745102445REMMET07510/25/23 00:49:01 METAR KMJX 250549Z 22003KT 2SM BR CLR 07/07 A3034 RMK AO2
0251720407004622023102505567+39928-074292FM-15+0025KMJX V0209999C000052200059N0096565N5+00725+00725102795ADDAU100001015AW1105GA1005+999999999GD10991+9999999GF100991999999999999999999KA1060M+01171KA2060N+00611MA1102785102475MD1590019+9999REMMET11010/25/23 00:56:01 METAR KMJX 250556Z 00000KT 6SM BR CLR 07/07 A3035 RMK AO2 SLP279 T00720072 10117 20061 55001
0188720407004622023102506147+39928-074292FM-15+0025KMJX V0209999C000052200059N0028165V5+00705+00705999999ADDAU100001015AW1105GA1005+999999999GD10991+9999999GF100991999999999999999999MA1102785102475REMMET08710/25/23 01:14:01 METAR KMJX 250614Z 00000KT 1 3/4SM BR CLR 07/07 A3035 RMK AO2 VIS 1V5
0176720407004622023102506227+39928-074292FM-15+0025KMJX V0209999C000052200059N0048285N5+00605+00605999999ADDAU100001015AW1105GA1005+999999999GD10991+9999999GF100991999999999999999999MA1102785102475REMMET07510/25/23 01:22:01 METAR KMJX 250622Z 00000KT 3SM BR CLR 06/06 A3035 RMK AO2
