0256720407004622022010106247+39928-074292FM-15+0025KMJX V0201705N00265000615MN0032195N5+01005+01005999999ADDAA101000021AU110020015AU200001015AW1105AW2615GA1085+000615999GD14991+0006159GE19AGL   +99999+99999GF199999999999000611999999MA1101295100995MW1615REMMET09901/01/22 01:24:02 METAR KMJX 010624Z 17005KT 2SM -RA BR OVC002 10/10 A2991 RMK AO2 RAB17 P0000 TSNO
0280720407004622022010200567+39928-074292FM-15+0025KMJX V0200705N00155000615MN0016095N5+01285+01225100485ADDAA101000021AU110020015AU200001015AW1105AW2615GA1085+000615999GD14991+0006159GE19AGL   +99999+99999GF199999999999000611999999MA1100445100145MW1615REMMET12301/01/22 19:56:01 METAR KMJX 020056Z 07003KT 1SM -RA BR OVC002 13/12 A2966 RMK AO2 RAB44 PRESFR SLP048 P0000 T01280122 TSNO
0250720407004622022010204107+39928-074292FM-15+0025KMJX V0209999V00215000615MN0032195N5+01205+01205999999ADDAA101000395AU110020015AU200001015AW1105AW2615GA1085+000615999GD14991+0006159GE19AGL   +99999+99999GF199999999999000611999999MA1100175099875MW1615REMMET09301/01/22 23:10:02 METAR KMJX 020410Z VRB04KT 2SM -RA BR OVC002 12/12 A2958 RMK AO2 P0001 TSNO
0313720407004622022010204567+39928-074292FM-15+0025KMJX V0200805N00155002745MN0160935N5+01285+01285100095ADDAA101000395GA1045+001225999GA2085+002745999GD12991+0012251GD24991+0027459GE19AGL   +99999+99999GF199999999999001221999999KA1240M+01391KA2240N+01001MA1100075099775REMMET13901/01/22 23:56:02 METAR KMJX 020456Z 08003KT 10SM SCT004 OVC009 13/13 A2955 RMK AO2 RAE21 CIG 007V013 SLP009 P0001 T01280128 401390100 TSNO
002772040700462202201020459O+39928-074292SOD  +0025KMJX V020999999999999999999999999999+99999+99999999999ADDAT1AU16RA  5AT2AU13BR  5
0260720407004622022010207487+39928-074292FM-15+0025KMJX V0209999C00005000915MN0028165N5+01205+01205999999ADDAA101000021AU110020015AU200001015AW1105AW2615GA1085+000915999GD14991+0009159GE19AGL   +99999+99999GF199999999999000911999999MA1100105099805MW1615REMMET10301/02/22 02:48:02 METAR KMJX 020748Z 00000KT 1 3/4SM -RA BR OVC003 12/12 A2956 RMK AO2 RAB30 P0000 TSNO
0273720407004622022010207567+39928-074292FM-15+0025KMJX V0209999C00005000915MN0016095N5+01175+01175100135ADDAA101000021AU110020015AU200001015AW1105AW2615GA1085+000915999GD14991+0009159GE19AGL   +99999+99999GF199999999999000911999999MA1100105099805MW1615REMMET11601/02/22 02:56:02 METAR KMJX 020756Z 00000KT 1SM -RA BR OVC003 12/12 A2956 RMK AO2 RAB30 SLP013 P0000 T01170117 TSNO
0222720407004622022010212567+39928-074292FM-15+0025KMJX V0202305N00315001525MN0160935N5+01285+01285100285ADDAA101000021GA1085+001525999GD14991+0015259GE19AGL   +99999+99999GF199999999999001521999999MA1100275099975REMMET10501/02/22 07:56:02 METAR KMJX 021256Z 23006KT 10SM OVC005 13/13 A2961 RMK AO2 RAE07 SLP028 P0000 T01280128
002772040700462202201030459O+39928-074292SOD  +0025KMJX V020999999999999999999999999999+99999+99999999999ADDAT1AU16RA  5AT2AU13BR  5
0258720407004622022010317527+39928-074292FM-15+0025KMJX V0200205N00515003965MN0020125N5-00305-00405999999ADDAA101000395AU110030015AU200001015AW1105AW2715GA1085+003965999GD14991+0039659GE19AGL   +99999+99999GF199999999999003961999999MA1101495101195MW1715REMMET10101/03/22 12:52:02 METAR KMJX 031752Z 02010KT 1 1/4SM -SN BR OVC013 M03/M04 A2997 RMK AO2 P0001 FZRANO
0346720407004622022010318457+39928-074292FM-15+0025KMJX V0203505N00465006105MN0032195N5-00305-00505999999ADDAA101000395AU110030015AU200001015AW1105AW2715GA1025+003055999GA2075+006105999GA3085+007925999GD11991+0030559GD23991+0061059GD34991+0079259GE19AGL   +99999+99999GF199999999999003051999999MA1101495101195MW1715OC100985REMMET11901/03/22 13:45:02 METAR KMJX 031845Z 35009G19KT 2SM -SN BR FEW010 BKN020 OVC026 M03/M05 A2997 RMK AO2 P0001 FZRANO TSNO
0367720407004622022010319257+39928-074292FM-15+0025KMJX V0200105N00775002745MN0012075N5-00305-00605999999ADDAA101000395AU110030015AU200001015AW1105AW2715GA1075+002745999GA2075+003965999GA3085+007625999GD13991+0027451GD23991+0039659GD34991+0076259GE19AGL   +99999+99999GF199999999999002741999999MA1101465101165MW1715OC101035REMMET14001/03/22 14:25:02 METAR KMJX 031925Z 01015G20KT 3/4SM -SN BR BKN009 BKN013 OVC025 M03/M06 A2996 RMK AO2 CIG 008V012 PRESFR P0001 FZRANO TSNO
002772040700462202201040459O+39928-074292SOD  +0025KMJX V020999999999999999999999999999+99999+99999999999ADDAT1AU18SN  5AT2AU13BR  5
0256720407004622022010516147+39928-074292FM-15+0025KMJX V0201905N00315000915MN0040235N5+00305+00305999999ADDAA101000021AU110020015AU200001015AW1105AW2615GA1085+000915999GD14991+0009159GE19AGL   +99999+99999GF199999999999000911999999MA1101425101125MW1615REMMET09901/05/22 11:14:02 METAR KMJX 051614Z 19006KT 2 1/2SM -RA BR OVC003 03/03 A2995 RMK AO2 PRESFR P0000
0178720407004622022010600567+39928-074292FM-15+0025KMJX V0202105N002152200059N0128755N5+00445+00395100845ADDGA1005+999999999GD10991+9999999GF100991999999999999999999MA1100815100515REMMET09401/05/22 19:56:01 METAR KMJX 060056Z 21004KT 8SM CLR 04/04 A2977 RMK AO2 SLP084 T00440039 TSNO
0215720407004622022010604567+39928-074292FM-15+0025KMJX V0202505N002652200059N0160935N5+00395+00335100715ADDGA1005+999999999GD10991+9999999GF100991999999999999999999KA1240M+00781KA2240N-00941MA1100685100385REMMET10501/05/22 23:56:02 METAR KMJX 060456Z 25005KT 10SM CLR 04/03 A2973 RMK AO2 SLP071 T00390033 400781094 TSNO
002772040700462202201060459O+39928-074292SOD  +0025KMJX V020999999999999999999999999999+99999+99999999999ADDAT1AU16RA  5AT2AU13BR  5
0157720407004622022010620564+39933-074300FM-15+002599999V0202801N004112200019N016093199+00331-00831101441ADDGF100991999999999999999999MA1101391999999MD1310021+9999REMMET090METAR KMJX 062056Z AUTO 28008KT 10SM CLR 03/M08 A2994 RMK AO2 SLP144 T00331083 53002 TSNO=
0327720407004622022010706547+39928-074292FM-15+0025KMJX V0200205N00465003965MN0040235V5-00105-00305999999ADDAA101000021AU110030015AU200001015AW1105AW2715GA1075+003965999GA2085+005495999GD13991+0039659GD24991+0054959GE19AGL   +99999+99999GF199999999999003961999999MA1100885100585MW1715REMMET13901/07/22 01:54:02 METAR KMJX 070654Z 02009KT 2 1/2SM -SN BR BKN013 OVC018 M01/M03 A2979 RMK AO2 VIS 1 3/4V5 RAB28E32SNB32 P0000 FZRANO TSNO
0309720407004622022010707357+39928-074292FM-15+0025KMJX V0200305N00465001835MN0016095N5-00105-00105999999ADDAA101000021AU110030015AU200001015AW1105AW2715GA1075+001835999GA2085+003055999GD13991+0018351GD24991+0030559GE19AGL   +99999+99999GF199999999999001831999999MA1100815100515MW1715REMMET12101/07/22 02:35:02 METAR KMJX 070735Z 03009KT 1SM -SN BR BKN006 OVC010 M01/M01 A2977 RMK AO2 CIG 003V008 P0000 FZRANO TSNO
0273720407004622022010709567+39928-074292FM-15+0025KMJX V0203205N00515001225MN0012075N5-00115-00175100725ADDAA101000021AU110030015AU200001015AW1105AW2715GA1085+001225999GD14991+0012259GE19AGL   +99999+99999GF199999999999001221999999MA1100685100385MW1715REMMET11601/07/22 04:56:02 METAR KMJX 070956Z 32010KT 3/4SM -SN BR OVC004 M01/M02 A2973 RMK AO2 SLP072 P0000 T10111017 FZRANO
0350720407004622022010712107+39928-074292FM-15+0025KMJX V0203105N00625002445MN0040235N5-00205-00305999999ADDAA101000021AU107000025AU210030035AU300001015AW1105AW2715AW3905AW4921GA1075+002445999GA2085+004275999GD13991+0024451GD24991+0042759GE19AGL   +99999+99999GF199999999999002441999999MA1100885100585MW1715OC100885REMMET13101/07/22 07:10:02 METAR KMJX 071210Z 31012G17KT 2 1/2SM -TSSN BR BKN008 OVC014 M02/M03 A2979 RMK AO2 TSB10 CIG 006V011 P0000 FZRANO
0275720407004622022010714567+39928-074292FM-15+0025KMJX V0203005N00575004275MN0160935N5-00175-00335101195ADDAA103000021GA1085+004275999GD14991+0042759GE19AGL   +99999+99999GF199999999999004271999999MA1101155100855MD1390289+9999OC100985REMMET11701/07/22 09:56:02 METAR KMJX 071456Z 30011G19KT 10SM OVC014 M02/M03 A2987 RMK AO2 SLP119 60000 T10171033 53028 FZRANOEQDQ01  00008PRCP03
0202720407004622022010715227+39928-074292FM-15+0025KMJX V0203005N00675004885MN0160935N5-00105-00305999999ADDGA1085+004885999GD14991+0048859GE19AGL   +99999+99999GF199999999999004881999999MA1101225100925OC101135REMMET08801/07/22 10:22:02 METAR KMJX 071522Z 30013G22KT 10SM OVC016 M01/M03 A2989 RMK AO2 FZRANO
0219720407004622022010715567+39928-074292FM-15+0025KMJX V0202905N00775005495MN0160935N5-00065-00335101255ADDGA1075+005495999GD13991+0054959GE19AGL   +99999+99999GF199999999999005491999999MA1101225100925OC101185REMMET10501/07/22 10:56:02 METAR KMJX 071556Z 29015G23KT 10SM BKN018 M01/M03 A2989 RMK AO2 SLP125 T10061033 FZRANO
0201720407004622022010716427+39928-074292FM-15+0025KMJX V0202905N00885007625MN0160935N5+00005-00405999999ADDGA1075+007625999GD13991+0076259GE19AGL   +99999+99999GF199999999999007621999999MA1101155100855OC101245REMMET08701/07/22 11:42:02 METAR KMJX 071642Z 29017G24KT 10SM BKN025 00/M04 A2987 RMK AO2 FZRANO
0199720407004622022010803567+39928-074292FM-15+0025KMJX V0202905N007752200059N0160935N5-00565-01175102475ADDGA1005+999999999GD10991+9999999GF100991999999999999999999MA1102445102145OC101035REMMET10701/07/22 22:56:02 METAR KMJX 080356Z 29015G20KT 10SM CLR M06/M12 A3025 RMK AO2 SLP247 T10561117 FZRANO TSNO
003972040700462202201080459O+39928-074292SOD  +0025KMJX V020999999999999999999999999999+99999+99999999999ADDAT1AU03TS  5AT2AU18SN  5AT3AU13BR  5
0214720407004622022010814567+39928-074292FM-15+0025KMJX V0203205N006752200059N0160935N5-00505-01285103735ADDGA1005+999999999GD10991+9999999GF100991999999999999999999MA1103695103395MD1190399+9999OC100885REMMET10801/08/22 09:56:02 METAR KMJX 081456Z 32013G17KT 10SM CLR M05/M13 A3062 RMK AO2 SLP373 T10501128 51039 FZRANO
0183720407004622022010816567+39928-074292FM-15+0025KMJX V0200105N003152200059N0160935N5-00335-01335103705ADDGA1005+999999999GD10991+9999999GF100991999999999999999999MA1103665103355REMMET09901/08/22 11:56:02 METAR KMJX 081656Z 01006KT 10SM CLR M03/M13 A3061 RMK AO2 SLP370 T10331133 FZRANO
0188720407004622022010822567+39928-074292FM-15+0025KMJX V0209999C000052200059N0160935N5-00675-01175103735ADDGA1005+999999999GD10991+9999999GF100991999999999999999999MA1103695103395REMMET10401/08/22 17:56:02 METAR KMJX 082256Z 00000KT 10SM CLR M07/M12 A3062 RMK AO2 SLP373 T10671117 FZRANO TSNO
0188720407004622022010901567+39928-074292FM-15+0025KMJX V0209999C000052200059N0160935N5-01065-01335103755ADDGA1005+999999999GD10991+9999999GF100991999999999999999999MA1103695103395REMMET10401/08/22 20:56:01 METAR KMJX 090156Z 00000KT 10SM CLR M11/M13 A3062 RMK AO2 SLP375 T11061133 FZRANO TSNO
0203720407004622022010902567+39928-074292FM-15+0025KMJX V0209999C000052200059N0160935N5-01115-01445103625ADDGA1005+999999999GD10991+9999999GF100991999999999999999999MA1103565103255MD1890179+9999REMMET10501/08/22 21:56:01 METAR KMJX 090256Z 00000KT 10SM CLR M11/M14 A3058 RMK AO2 SLP362 T11111144 58017 FZRANO
0269720407004622022010913567+39928-074292FM-15+0025KMJX V0202005N00575033535MN0160935N5+00226-00335102685ADDGA1025+009455999GA2085+033535999GD11991+0094559GD24991+0335359GE19AGL   +99999+99999GF199999999999009451999999MA1102645102345REMMET11301/09/22 08:56:02 METAR KMJX 091356Z 20011KT 10SM FEW031 OVC110 02/M03 A3031 RMK AO2 SLP268 T00221033 FZRANO TSNOEQDR01  00227TMP028
0248720407004622022010916567+39928-074292FM-15+0025KMJX V0202105N00625006715MN0160935N5+00505+00065102295ADDAA101000021GA1085+006715999GD14991+0067159GE19AGL   +99999+99999GF199999999999006711999999MA1102245101935OC101245REMMET12301/09/22 11:56:02 METAR KMJX 091656Z 21012G24KT 10SM OVC022 05/01 A3019 RMK AO2 RAB12E33 PRESFR SLP229 P0000 T00500006 TSNO
0227720407004622022011102567+39928-074292FM-15+0025KMJX V0202605N003152200059N0160935N5-00786-01175102345ADDGA1005+999999999GD10991+9999999GF100991999999999999999999MA1102305102005MD1390039+9999REMMET11001/10/22 21:56:01 METAR KMJX 110256Z 26006KT 10SM CLR M08/M12 A3021 RMK AO2 SLP234 T10781117 53003 FZRANO TSNOEQDR01  -0787TMP028
0199720407004622022011112567+39928-074292FM-15+0025KMJX V0203105N005752200059N0160935N5-00835-01725103315ADDGA1005+999999999GD10991+9999999GF100991999999999999999999MA1103255102955OC100885REMMET10701/11/22 07:56:02 METAR KMJX 111256Z 31011G17KT 10SM CLR M08/M17 A3049 RMK AO2 SLP331 T10831172 FZRANO TSNO
0183720407004622022011201567+39928-074292FM-15+0025KMJX V0209999C000052200059N0160935N5-01285-01565103515ADDGA1005+999999999GD10991+9999999GF100991999999999999999999MA1103455103155REMMET09901/11/22 20:56:01 METAR KMJX 120156Z 00000KT 10SM CLR M13/M16 A3055 RMK AO2 SLP351 T11281156 FZRANO
0208720407004622022011202567+39928-074292FM-15+0025KMJX V0209999C000052200059N0160935N5-01285-01565103475ADDGA1005+999999999GD10991+9999999GF100991999999999999999999MA1103425103125MD1890069+9999REMMET11001/11/22 21:56:01 METAR KMJX 120256Z 00000KT 10SM CLR M13/M16 A3054 RMK AO2 SLP347 T11281156 58006 FZRANO TSNO
0265720407004622022011323567+39928-074292FM-15+0025KMJX V0209999C000052200059N0160935N5-00176-00335101295ADDGA1005+999999999GD10991+9999999GF100991999999999999999999KA1060M+00781KA2060N-00171MA1101255100955MD1690059+9999REMMET12201/13/22 18:56:02 METAR KMJX 132356Z 00000KT 10SM CLR M02/M03 A2990 RMK AO2 SLP129 T10171033 10078 21017 56005 FZRANO TSNOEQDR01  -0177TMP028
0257720407004622022011505567+39928-074292FM-15+0025KMJX V0203405N005752200059N0160935N5-00565-01335101595ADDGA1005+999999999GD10991+9999999GF100991999999999999999999KA1060M+00221KA2060N-00561MA1101565101265MD1390219+9999OC101085REMMET12501/15/22 00:56:02 METAR KMJX 150556Z 34011G21KT 10SM CLR M06/M13 A2999 RMK AO2 SLP159 T10561133 10022 21056 53021 FZRANO TSNO
0199720407004622022011512567+39928-074292FM-15+0025KMJX V0203505N005152200059N0160935N5-01065-01945102405ADDGA1005+999999999GD10991+9999999GF100991999999999999999999MA1102375102075OC100885REMMET10701/15/22 07:56:02 METAR KMJX 151256Z 35010G17KT 10SM CLR M11/M19 A3023 RMK AO2 SLP240 T11061194 FZRANO TSNO
0224720407004622022011604567+39928-074292FM-15+0025KMJX V0203305N002652200059N0160935N5-01115-01895103085ADDGA1005+999999999GD10991+9999999GF100991999999999999999999KA1240M-00441KA2240N-01111MA1103015102715REMMET11401/15/22 23:56:02 METAR KMJX 160456Z 33005KT 10SM CLR M11/M19 A3042 RMK AO2 SLP308 T11111189 410441111 FZRANO TSNO
0277720407004622022011701567+39928-074292FM-15+0025KMJX V0200805N00575003665MN0112655N5+00616+00505101045ADDAA101002595AU110020015AW1615GA1085+003665999GD14991+0036659GE19AGL   +99999+99999GF199999999999003661999999MA1100985100685MW1615OC100985REMMET11001/16/22 20:56:01 METAR KMJX 170156Z 08011G19KT 7SM -RA OVC012 06/05 A2982 RMK AO2 SLP104 P0010 T00610050 TSNOEQDR01  00617TMP028
001572040700462202201170459O+39928-074292SOD  +0025KMJX V020999999999999999999999999999+99999+99999999999ADDAT1AU16RA  5
0199720407004622022011718167+39928-074292FM-15+0025KMJX V0202505N01035009455MN0160935N5+00305-00205999999ADDGA1085+009455999GD14991+0094559GE19AGL   +99999+99999GF199999999999009451999999MA1098785098495OC101185REMMET08501/17/22 13:16:02 METAR KMJX 171816Z 25020G23KT 10SM OVC031 03/M02 A2917 RMK AO2 TSNO
0246720407004622022011823567+39928-074292FM-15+0025KMJX V0202105N002652200059N0160935N5-00335-00725102115ADDGA1005+999999999GD10991+9999999GF100991999999999999999999KA1060M+00501KA2060N-00391MA1102075101765MD1190379+9999REMMET12201/18/22 18:56:02 METAR KMJX 182356Z 21005KT 10SM CLR M03/M07 A3014 RMK AO2 SLP211 T10331072 10050 21039 51037 FZRANO TSNO
0224720407004622022011904567+39928-074292FM-15+0025KMJX V0209999C000052200059N0160935N5-00675-00785102325ADDGA1005+999999999GD10991+9999999GF100991999999999999999999KA1240M+00501KA2240N-00671MA1102275101975REMMET11401/18/22 23:56:01 METAR KMJX 190456Z 00000KT 10SM CLR M07/M08 A3020 RMK AO2 SLP232 T10671078 400501067 FZRANO TSNO
0199720407004622022011922567+39928-074292FM-15+0025KMJX V0201905N002652200059N0160935N5+00676-00285101645ADDGA1005+999999999GD10991+9999999GF100991999999999999999999MA1101595101295REMMET09601/19/22 17:56:02 METAR KMJX 192256Z 19005KT 10SM CLR 07/M03 A3000 RMK AO2 SLP164 T00671028 TSNOEQDR01  00677TMP028
0175720407004622022012003567+39928-074292FM-15+0025KMJX V0202205N003152200059N0160935N5+00505-00225101685ADDGA1005+999999999GD10991+9999999GF100991999999999999999999MA1101635101325REMMET09101/19/22 22:56:02 METAR KMJX 200356Z 22006KT 10SM CLR 05/M02 A3001 RMK AO2 SLP168 T00501022
0294720407004622022012008567+39928-074292FM-15+0025KMJX V0202705N00265014025MN0160935N5+00615+00065101655ADDAA101000021AA203000021GA1085+014025999GD14991+0140259GE19AGL   +99999+99999GF199999999999014021999999MA1101635101325MD1390059+9999REMMET11701/20/22 03:56:02 METAR KMJX 200856Z 27005KT 10SM OVC046 06/01 A3001 RMK AO2 RAE24 SLP165 P0000 60000 T00610006 53005EQDQ01  00002PRCP03Q02  00008PRCP03
0254720407004622022012010567+39928-074292FM-15+0025KMJX V0209999C00005011585MN0160935N5+00445+00225101775ADDAA101000021AU110020015AW1615GA1085+011585999GD14991+0115859GE19AGL   +99999+99999GF199999999999011581999999MA1101735101435MW1615REMMET11401/20/22 05:56:02 METAR KMJX 201056Z 00000KT 10SM -RA OVC038 04/02 A3004 RMK AO2 RAB36 SLP177 P0000 T00440022 TSNO
0276720407004622022012019567+39928-074292FM-15+0025KMJX V0203305N00365006105MN0160935N5+00005-00175102235ADDAA101000021GA1025+003665999GA2085+006105999GD11991+0036659GD24991+0061059GE19AGL   +99999+99999GF199999999999003661999999MA1102205101905REMMET12801/20/22 14:56:02 METAR KMJX 201956Z 33007KT 10SM FEW012 OVC020 00/M02 A3018 RMK AO2 RAB09E20 SLP223 P0000 T00001017 FZRANO TSNO
001572040700462202201210459O+39928-074292SOD  +0025KMJX V020999999999999999999999999999+99999+99999999999ADDAT1AU16RA  5
0183720407004622022012201567+39928-074292FM-15+0025KMJX V0203605N004152200059N0160935N5-00615-01445103435ADDGA1005+999999999GD10991+9999999GF100991999999999999999999MA1103395103085REMMET09901/21/22 20:56:01 METAR KMJX 220156Z 36008KT 10SM CLR M06/M14 A3053 RMK AO2 SLP343 T10611144 FZRANO
0203720407004622022012202567+39928-074292FM-15+0025KMJX V0200105N004652200059N0160935N5-00615-01395103385ADDGA1005+999999999GD10991+9999999GF100991999999999999999999MA1103325103015MD1890079+9999REMMET10501/21/22 21:56:01 METAR KMJX 220256Z 01009KT 10SM CLR M06/M14 A3051 RMK AO2 SLP338 T10611139 58007 FZRANO
0219720407004622022012204567+39928-074292FM-15+0025KMJX V0200105N005152200059N0160935N5-00565-01225103265ADDGA1005+999999999GD10991+9999999GF100991999999999999999999KA1240M-00441KA2240N-00891MA1103225102915REMMET10901/21/22 23:56:02 METAR KMJX 220456Z 01010KT 10SM CLR M06/M12 A3048 RMK AO2 SLP326 T10561122 410441089 FZRANO
0183720407004622022012206567+39928-074292FM-15+0025KMJX V0200105N004652200059N0160935N5-00615-01225103065ADDGA1005+999999999GD10991+9999999GF100991999999999999999999MA1103015102715REMMET09901/22/22 01:56:02 METAR KMJX 220656Z 01009KT 10SM CLR M06/M12 A3042 RMK AO2 SLP306 T10611122 FZRANO
0188720407004622022012207567+39928-074292FM-15+0025KMJX V0200105N006252200059N0160935N5-00615-01225103045ADDGA1005+999999999GD10991+9999999GF100991999999999999999999MA1103015102715REMMET10401/22/22 02:56:02 METAR KMJX 220756Z 01012KT 10SM CLR M06/M12 A3042 RMK AO2 SLP304 T10611122 FZRANO TSNO
0203720407004622022012208567+39928-074292FM-15+0025KMJX V0200105N005752200059N0160935N5-00675-01225102985ADDGA1005+999999999GD10991+9999999GF100991999999999999999999MA1102955102645MD1690199+9999REMMET10501/22/22 03:56:02 METAR KMJX 220856Z 01011KT 10SM CLR M07/M12 A3040 RMK AO2 SLP298 T10671122 56019 FZRANO
0183720407004622022012209567+39928-074292FM-15+0025KMJX V0200205N005152200059N0160935N5-00725-01285102975ADDGA1005+999999999GD10991+9999999GF100991999999999999999999MA1102915102615REMMET09901/22/22 04:56:02 METAR KMJX 220956Z 02010KT 10SM CLR M07/M13 A3039 RMK AO2 SLP297 T10721128 FZRANO
0241720407004622022012211567+39928-074292FM-15+0025KMJX V0203305N003152200059N0160935N5-01005-01395103105ADDGA1005+999999999GD10991+9999999GF100991999999999999999999KA1060M-00561KA2060N-01001MA1103055102745MD1390129+9999REMMET11701/22/22 06:56:02 METAR KMJX 221156Z 33006KT 10SM CLR M10/M14 A3043 RMK AO2 SLP310 T11001139 11056 21100 53012 FZRANO
0183720407004622022012212567+39928-074292FM-15+0025KMJX V0203405N002152200059N0160935N5-01115-01505103125ADDGA1005+999999999GD10991+9999999GF100991999999999999999999MA1103085102785REMMET09901/22/22 07:56:02 METAR KMJX 221256Z 34004KT 10SM CLR M11/M15 A3044 RMK AO2 SLP312 T11111150 FZRANO
0203720407004622022012214567+39928-074292FM-15+0025KMJX V0203405N004152200059N0160935N5-00565-01225103075ADDGA1005+999999999GD10991+9999999GF100991999999999999999999MA1103015102715MD1890039+9999REMMET10501/22/22 09:56:02 METAR KMJX 221456Z 34008KT 10SM CLR M06/M12 A3042 RMK AO2 SLP307 T10561122 58003 FZRANO
0183720407004622022012215567+39928-074292FM-15+0025KMJX V0203605N003652200059N0160935N5-00395-01005102995ADDGA1005+999999999GD10991+9999999GF100991999999999999999999MA1102955102645REMMET09901/22/22 10:56:02 METAR KMJX 221556Z 36007KT 10SM CLR M04/M10 A3040 RMK AO2 SLP299 T10391100 FZRANO
0183720407004622022012216567+39928-074292FM-15+0025KMJX V0200205N003652200059N0160935N5-00285-01005102875ADDGA1005+999999999GD10991+9999999GF100991999999999999999999MA1102815102515REMMET09901/22/22 11:56:02 METAR KMJX 221656Z 02007KT 10SM CLR M03/M10 A3036 RMK AO2 SLP287 T10281100 FZRANO
0241720407004622022012217567+39928-074292FM-15+0025KMJX V0209999C000052200059N0160935N5-00115-01065102695ADDGA1005+999999999GD10991+9999999GF100991999999999999999999KA1060M-00111KA2060N-01111MA1102645102345MD1890389+9999REMMET11701/22/22 12:56:02 METAR KMJX 221756Z 00000KT 10SM CLR M01/M11 A3031 RMK AO2 SLP269 T10111106 11011 21111 58038 FZRANO
0183720407004622022012218567+39928-074292FM-15+0025KMJX V0203005N002652200059N0160935N5-00065-01285102575ADDGA1005+999999999GD10991+9999999GF100991999999999999999999MA1102545102245REMMET09901/22/22 13:56:02 METAR KMJX 221856Z 30005KT 10SM CLR M01/M13 A3028 RMK AO2 SLP257 T10061128 FZRANO
0183720407004622022012219567+39928-074292FM-15+0025KMJX V0209999V001552200059N0160935N5-00065-01335102525ADDGA1005+999999999GD10991+9999999GF100991999999999999999999MA1102475102175REMMET09901/22/22 14:56:02 METAR KMJX 221956Z VRB03KT 10SM CLR M01/M13 A3026 RMK AO2 SLP252 T10061133 FZRANO
0183720407004622022012221567+39928-074292FM-15+0025KMJX V0203105N002152200059N0160935N5-00225-01505102395ADDGA1005+999999999GD10991+9999999GF100991999999999999999999MA1102345102035REMMET09901/22/22 16:56:02 METAR KMJX 222156Z 31004KT 10SM CLR M02/M15 A3022 RMK AO2 SLP239 T10221150 FZRANO
0183720407004622022012300567+39928-074292FM-15+0025KMJX V0209999C000052200059N0160935N5-00835-01175102325ADDGA1005+999999999GD10991+9999999GF100991999999999999999999MA1102275101975REMMET09901/22/22 19:56:01 METAR KMJX 230056Z 00000KT 10SM CLR M08/M12 A3020 RMK AO2 SLP232 T10831117 FZRANO
0183720407004622022012301567+39928-074292FM-15+0025KMJX V0209999C000052200059N0160935N5-01065-01285102275ADDGA1005+999999999GD10991+9999999GF100991999999999999999999MA1102205101905REMMET09901/22/22 20:56:01 METAR KMJX 230156Z 00000KT 10SM CLR M11/M13 A3018 RMK AO2 SLP227 T11061128 FZRANO
0203720407004622022012302567+39928-074292FM-15+0025KMJX V0209999C000052200059N0160935N5-00945-01175102195ADDGA1005+999999999GD10991+9999999GF100991999999999999999999MA1102135101835MD1890139+9999REMMET10501/22/22 21:56:01 METAR KMJX 230256Z 00000KT 10SM CLR M09/M12 A3016 RMK AO2 SLP219 T10941117 58013 FZRANO
0188720407004622022012303567+39928-074292FM-15+0025KMJX V0201805N001552200059N0160935N5-00725-00945102105ADDGA1005+999999999GD10991+9999999GF100991999999999999999999MA1102075101765REMMET10401/22/22 22:56:01 METAR KMJX 230356Z 18003KT 10SM CLR M07/M09 A3014 RMK AO2 SLP210 T10721094 FZRANO TSNO
0183720407004622022012306567+39928-074292FM-15+0025KMJX V0202305N002152200059N0160935N5-01175-01395101925ADDGA1005+999999999GD10991+9999999GF100991999999999999999999MA1101905101595REMMET09901/23/22 01:56:02 METAR KMJX 230656Z 23004KT 10SM CLR M12/M14 A3009 RMK AO2 SLP192 T11171139 FZRANO
0241720407004622022012311567+39928-074292FM-15+0025KMJX V0209999C000052200059N0160935N5-01065-01225101755ADDGA1005+999999999GD10991+9999999GF100991999999999999999999KA1060M-00781KA2060N-01221MA1101695101395MD1690079+9999REMMET11701/23/22 06:56:02 METAR KMJX 231156Z 00000KT 10SM CLR M11/M12 A3003 RMK AO2 SLP175 T11061122 11078 21122 56007 FZRANO
0183720407004622022012313567+39928-074292FM-15+0025KMJX V0202405N002652200059N0160935N5-00505-00835101645ADDGA1005+999999999GD10991+9999999GF100991999999999999999999MA1101595101295REMMET09901/23/22 08:56:02 METAR KMJX 231356Z 24005KT 10SM CLR M05/M08 A3000 RMK AO2 SLP164 T10501083 FZRANO
0203720407004622022012314567+39928-074292FM-15+0025KMJX V0202805N003152200059N0160935N5-00065-00945101565ADDGA1005+999999999GD10991+9999999GF100991999999999999999999MA1101525101225MD1890189+9999REMMET10501/23/22 09:56:02 METAR KMJX 231456Z 28006KT 10SM CLR M01/M09 A2998 RMK AO2 SLP156 T10061094 58018 FZRANO
0182720407004622022012315567+39928-074292FM-15+0025KMJX V0202805N004152200059N0160935N5+00115-01005101495ADDGA1005+999999999GD10991+9999999GF100991999999999999999999MA1101465101165REMMET09801/23/22 10:56:02 METAR KMJX 231556Z 28008KT 10SM CLR 01/M10 A2996 RMK AO2 SLP149 T00111100 FZRANO
0182720407004622022012316567+39928-074292FM-15+0025KMJX V0202805N005752200059N0160935N5+00225-01005101355ADDGA1005+999999999GD10991+9999999GF100991999999999999999999MA1101325101025REMMET09801/23/22 11:56:02 METAR KMJX 231656Z 28011KT 10SM CLR 02/M10 A2992 RMK AO2 SLP135 T00221100 FZRANO
0233720407004622022012317567+39928-074292FM-15+0025KMJX V0202405N003652200059N0160935N5+00335-01065101205ADDGA1005+999999999GD10991+9999999GF100991999999999999999999KA1060M+00331KA2060N-01111MA1101155100855MD1890369+9999REMMET10901/23/22 12:56:02 METAR KMJX 231756Z 24007KT 10SM CLR 03/M11 A2987 RMK AO2 SLP120 T00331106 10033 21111 58036
0175720407004622022012318567+39928-074292FM-15+0025KMJX V0202305N004152200059N0160935N5+00395-01065101125ADDGA1005+999999999GD10991+9999999GF100991999999999999999999MA1101085100785REMMET09101/23/22 13:56:02 METAR KMJX 231856Z 23008KT 10SM CLR 04/M11 A2985 RMK AO2 SLP112 T00391106
0175720407004622022012319567+39928-074292FM-15+0025KMJX V0202805N003152200059N0160935N5+00395-01115101005ADDGA1005+999999999GD10991+9999999GF100991999999999999999999MA1100955100655REMMET09101/23/22 14:56:02 METAR KMJX 231956Z 28006KT 10SM CLR 04/M11 A2981 RMK AO2 SLP100 T00391111
0266720407004622022012323567+39928-074292FM-15+0025KMJX V0209999C00005022865MN0160935N5-00115-00615101025ADDGA1075+022865999GD13991+0228659GE19AGL   +99999+99999GF199999999999022861999999KA1060M+00441KA2060N-00111MA1100985100685MD1390039+9999REMMET12001/23/22 18:56:02 METAR KMJX 232356Z 00000KT 10SM BKN075 M01/M06 A2982 RMK AO2 SLP102 T10111061 10044 21011 53003 FZRANO
0289720407004622022012400567+39928-074292FM-15+0025KMJX V0209999C00005014335MN0160935N5-00065-00565101035ADDGA1025+008535999GA2045+011895999GA3085+014335999GD11991+0085359GD22991+0118959GD34991+0143359GE19AGL   +99999+99999GF199999999999008531999999MA1100985100685REMMET12101/23/22 19:56:01 METAR KMJX 240056Z 00000KT 10SM FEW028 SCT039 OVC047 M01/M06 A2982 RMK AO2 SLP103 T10061056 FZRANO TSNO
0245720407004622022012401567+39928-074292FM-15+0025KMJX V0209999C00005018295MN0160935N5+00065-00675101035ADDGA1025+013725999GA2085+018295999GD11991+0137259GD24991+0182959GE19AGL   +99999+99999GF199999999999013721999999MA1100985100685REMMET10801/23/22 20:56:01 METAR KMJX 240156Z 00000KT 10SM FEW045 OVC060 01/M07 A2982 RMK AO2 SLP103 T00061067 FZRANO
0266720407004622022012402567+39928-074292FM-15+0025KMJX V0209999C00005024385MN0160935N5-00115-00445101005ADDGA1075+024385999GA2085+033535999GD13991+0243859GD24991+0335359GE19AGL   +99999+99999GF199999999999024381999999MA1100955100655MD1890019+9999REMMET11501/23/22 21:56:01 METAR KMJX 240256Z 00000KT 10SM BKN080 OVC110 M01/M04 A2981 RMK AO2 SLP100 T10111044 58001 FZRANO
0304720407004622022012405567+39928-074292FM-15+0025KMJX V0209999C00005018295MN0160935N5-00225-00565100945ADDGA1045+014335999GA2085+018295999GD12991+0143359GD24991+0182959GE19AGL   +99999+99999GF199999999999014331999999KA1060M+00061KA2060N-00221MA1100885100585MD1690079+9999REMMET12701/24/22 00:56:02 METAR KMJX 240556Z 00000KT 10SM SCT047 OVC060 M02/M06 A2979 RMK AO2 SLP094 T10221056 10006 21022 56007 FZRANO
0208720407004622022012406567+39928-074292FM-15+0025KMJX V0209999C00005018295MN0160935N5-00335-00615100995ADDGA1085+018295999GD14991+0182959GE19AGL   +99999+99999GF199999999999018291999999MA1100955100655REMMET10201/24/22 01:56:02 METAR KMJX 240656Z 00000KT 10SM OVC060 M03/M06 A2981 RMK AO2 SLP099 T10331061 FZRANO
0227720407004622022012407567+39928-074292FM-15+0025KMJX V0209999C000052200059N0160935N5-00395-00615101025ADDGA1045+018295999GD12991+0182959GE19AGL   +99999+99999GF104995999999018291999999MA1100985100685REMMET10201/24/22 02:56:02 METAR KMJX 240756Z 00000KT 10SM SCT060 M04/M06 A2982 RMK AO2 SLP102 T10391061 FZRANOEQDD01      0ADE726
0183720407004622022012410567+39928-074292FM-15+0025KMJX V0202405N001552200059N0160935N5-00725-00835101215ADDGA1005+999999999GD10991+9999999GF100991999999999999999999MA1101155100855REMMET09901/24/22 05:56:02 METAR KMJX 241056Z 24003KT 10SM CLR M07/M08 A2987 RMK AO2 SLP121 T10721083 FZRANO
0202720407004622022012412567+39928-074292FM-15+0025KMJX V0203005N003152200059N0096565N5-00445-00565101405ADDAU100001015AW1105GA1005+999999999GD10991+9999999GF100991999999999999999999MA1101355101055REMMET10101/24/22 07:56:02 METAR KMJX 241256Z 30006KT 6SM BR CLR M04/M06 A2993 RMK AO2 SLP140 T10441056 FZRANO
0183720407004622022012413567+39928-074292FM-15+0025KMJX V0203105N004152200059N0160935N5-00285-00445101475ADDGA1005+999999999GD10991+9999999GF100991999999999999999999MA1101425101125REMMET09901/24/22 08:56:02 METAR KMJX 241356Z 31008KT 10SM CLR M03/M04 A2995 RMK AO2 SLP147 T10281044 FZRANO
0182720407004622022012415567+39928-074292FM-15+0025KMJX V0203205N002652200059N0160935N5+00065-00615101455ADDGA1005+999999999GD10991+9999999GF100991999999999999999999MA1101425101125REMMET09801/24/22 10:56:02 METAR KMJX 241556Z 32005KT 10SM CLR 01/M06 A2995 RMK AO2 SLP145 T00061061 FZRANO
0240720407004622022012417567+39928-074292FM-15+0025KMJX V0203105V004652200059N0160935N5+00175-01005101255ADDGA1005+999999999GD10991+9999999GF100991999999999999999999KA1060M+00171KA2060N-00831MA1101225100925MD1890229+9999REMMET11601/24/22 12:56:02 METAR KMJX 241756Z 31009KT 10SM CLR 02/M10 A2989 RMK AO2 SLP125 T00171100 10017 21083 58022 FZRANO
0175720407004622022012419567+39928-074292FM-15+0025KMJX V0209999V001552200059N0160935N5+00285-01005101225ADDGA1005+999999999GD10991+9999999GF100991999999999999999999MA1101195100895REMMET09101/24/22 14:56:02 METAR KMJX 241956Z VRB03KT 10SM CLR 03/M10 A2988 RMK AO2 SLP122 T00281100
0207720407004622022012501567+39928-074292FM-15+0025KMJX V0201605N00265025915MN0160935N5+00005-00395101245ADDGA1085+025915999GD14991+0259159GE19AGL   +99999+99999GF199999999999025911999999MA1101195100895REMMET10101/24/22 20:56:01 METAR KMJX 250156Z 16005KT 10SM OVC085 00/M04 A2988 RMK AO2 SLP124 T00001039 FZRANO
0245720407004622022012503567+39928-074292FM-15+0025KMJX V0209999C00005019815MN0160935N5+00005-00395101225ADDGA1075+019815999GA2085+024385999GD13991+0198159GD24991+0243859GE19AGL   +99999+99999GF199999999999019811999999MA1101195100895REMMET10801/24/22 22:56:02 METAR KMJX 250356Z 00000KT 10SM BKN065 OVC080 00/M04 A2988 RMK AO2 SLP122 T00001039 FZRANO
001572040700462202201250459O+39928-074292SOD  +0025KMJX V020999999999999999999999999999+99999+99999999999ADDAT1AU13BR  5
0200720407004622022012506567+39928-074292FM-15+0025KMJX V0202005N00465018295MN0160935N5+00445-00175101045ADDGA1085+018295999GD14991+0182959GE19AGL   +99999+99999GF199999999999018291999999MA1101025100725REMMET09401/25/22 01:56:02 METAR KMJX 250656Z 20009KT 10SM OVC060 04/M02 A2983 RMK AO2 SLP104 T00441017
0200720407004622022012507567+39928-074292FM-15+0025KMJX V0202005N00315018295MN0160935N5+00395-00175101095ADDGA1085+018295999GD14991+0182959GE19AGL   +99999+99999GF199999999999018291999999MA1101055100755REMMET09401/25/22 02:56:02 METAR KMJX 250756Z 20006KT 10SM OVC060 04/M02 A2984 RMK AO2 SLP109 T00391017
0219720407004622022012509567+39928-074292FM-15+0025KMJX V0202305N002652200059N0160935N5+00335-00285101125ADDGA1025+030485999GD11991+0304859GE19AGL   +99999+99999GF102995999999030481999999MA1101085100785REMMET09401/25/22 04:56:02 METAR KMJX 250956Z 23005KT 10SM FEW100 03/M03 A2985 RMK AO2 SLP112 T00331028EQDD01      0ADE726
0207720407004622022012510567+39928-074292FM-15+0025KMJX V0209999C00005036585MN0160935N5+00225-00225101145ADDGA1075+036585999GD13991+0365859GE19AGL   +99999+99999GF199999999999036581999999MA1101125100825REMMET10101/25/22 05:56:02 METAR KMJX 251056Z 00000KT 10SM BKN120 02/M02 A2986 RMK AO2 SLP114 T00221022 FZRANO
0240720407004622022012511567+39928-074292FM-15+0025KMJX V0209999C000052200059N0160935N5+00005-00335101215ADDGA1005+999999999GD10991+9999999GF100991999999999999999999KA1060M+00441KA2060N+00001MA1101155100855MD1390129+9999REMMET11601/25/22 06:56:02 METAR KMJX 251156Z 00000KT 10SM CLR 00/M03 A2987 RMK AO2 SLP121 T00001033 10044 20000 53012 FZRANO
0207720407004622022012513567+39928-074292FM-15+0025KMJX V0209999C00005036585MN0160935N5+00175-00225101445ADDGA1075+036585999GD13991+0365859GE19AGL   +99999+99999GF199999999999036581999999MA1101395101095REMMET10101/25/22 08:56:02 METAR KMJX 251356Z 00000KT 10SM BKN120 02/M02 A2994 RMK AO2 SLP144 T00171022 FZRANO
0199720407004622022012515567+39928-074292FM-15+0025KMJX V0203005N00215016765MN0160935N5+00445-00065999999ADDGA1085+016765999GD14991+0167659GE19AGL   +99999+99999GF199999999999016761999999MA1101565101265REMMET09301/25/22 10:56:02 METAR KMJX 251556Z 30004KT 10SM OVC055 04/M01 A2999 RMK AO2 SLPNO T00441006
0199720407004622022012613567+39928-074292FM-15+0025KMJX V0203405N006252200059N0160935N5-00505-01335102865ADDGA1005+999999999GD10991+9999999GF100991999999999999999999MA1102815102515OC100885REMMET10701/26/22 08:56:02 METAR KMJX 261356Z 34012G17KT 10SM CLR M05/M13 A3036 RMK AO2 SLP286 T10501133 FZRANO TSNO
0203720407004622022012614567+39928-074292FM-15+0025KMJX V0203505N005152200059N0160935N5-00445-01335102915ADDGA1005+999999999GD10991+9999999GF100991999999999999999999MA1102885102575MD1190219+9999REMMET10501/26/22 09:56:02 METAR KMJX 261456Z 35010KT 10SM CLR M04/M13 A3038 RMK AO2 SLP291 T10441133 51021 FZRANO
0194720407004622022012616567+39928-074292FM-15+0025KMJX V0203205N005752200059N0160935N5-00225-01445102825ADDGA1005+999999999GD10991+9999999GF100991999999999999999999MA1102785102475OC100825REMMET10201/26/22 11:56:02 METAR KMJX 261656Z 32011G16KT 10SM CLR M02/M14 A3035 RMK AO2 SLP282 T10221144 FZRANO
0241720407004622022012617567+39928-074292FM-15+0025KMJX V0203405N003652200059N0160935N5-00285-01445102775ADDGA1005+999999999GD10991+9999999GF100991999999999999999999KA1060M-00221KA2060N-00831MA1102715102415MD1890149+9999REMMET11701/26/22 12:56:02 METAR KMJX 261756Z 34007KT 10SM CLR M03/M14 A3033 RMK AO2 SLP277 T10281144 11022 21083 58014 FZRANO
0194720407004622022012618567+39928-074292FM-15+0025KMJX V0203205N005752200059N0160935N5-00175-01445102745ADDGA1005+999999999GD10991+9999999GF100991999999999999999999MA1102715102415OC100775REMMET10201/26/22 13:56:02 METAR KMJX 261856Z 32011G15KT 10SM CLR M02/M14 A3033 RMK AO2 SLP274 T10171144 FZRANO
0203720407004622022012620567+39928-074292FM-15+0025KMJX V0203205N005152200059N0160935N5-00225-01565102815ADDGA1005+999999999GD10991+9999999GF100991999999999999999999MA1102785102475MD1390049+9999REMMET10501/26/22 15:56:02 METAR KMJX 262056Z 32010KT 10SM CLR M02/M16 A3035 RMK AO2 SLP281 T10221156 53004 FZRANO
0183720407004622022012622567+39928-074292FM-15+0025KMJX V0203205N002152200059N0160935N5-00445-01505103015ADDGA1005+999999999GD10991+9999999GF100991999999999999999999MA1102955102645REMMET09901/26/22 17:56:02 METAR KMJX 262256Z 32004KT 10SM CLR M04/M15 A3040 RMK AO2 SLP301 T10441150 FZRANO
0241720407004622022012623567+39928-074292FM-15+0025KMJX V0203105N002652200059N0160935N5-00565-01445103105ADDGA1005+999999999GD10991+9999999GF100991999999999999999999KA1060M-00111KA2060N-00611MA1103055102745MD1390289+9999REMMET11701/26/22 18:56:02 METAR KMJX 262356Z 31005KT 10SM CLR M06/M14 A3043 RMK AO2 SLP310 T10561144 11011 21061 53028 FZRANO
0183720407004622022012700567+39928-074292FM-15+0025KMJX V0203305N002152200059N0160935N5-00675-01505103185ADDGA1005+999999999GD10991+9999999GF100991999999999999999999MA1103125102815REMMET09901/26/22 19:56:01 METAR KMJX 270056Z 33004KT 10SM CLR M07/M15 A3045 RMK AO2 SLP318 T10671150 FZRANO
0203720407004622022012702567+39928-074292FM-15+0025KMJX V0209999C000052200059N0160935N5-01115-01505103265ADDGA1005+999999999GD10991+9999999GF100991999999999999999999MA1103225102915MD1190179+9999REMMET10501/26/22 21:56:01 METAR KMJX 270256Z 00000KT 10SM CLR M11/M15 A3048 RMK AO2 SLP326 T11111150 51017 FZRANO
0183720407004622022012703567+39928-074292FM-15+0025KMJX V0209999C000052200059N0160935N5-01285-01565103275ADDGA1005+999999999GD10991+9999999GF100991999999999999999999MA1103225102915REMMET09901/26/22 22:56:01 METAR KMJX 270356Z 00000KT 10SM CLR M13/M16 A3048 RMK AO2 SLP327 T11281156 FZRANO
0241720407004622022012705567+39928-074292FM-15+0025KMJX V0209999C000052200059N0160935N5-01445-01675103285ADDGA1005+999999999GD10991+9999999GF100991999999999999999999KA1060M-00561KA2060N-01441MA1103225102915MD1090019+9999REMMET11701/27/22 00:56:02 METAR KMJX 270556Z 00000KT 10SM CLR M14/M17 A3048 RMK AO2 SLP328 T11441167 11056 21144 50001 FZRANO
0183720407004622022012706567+39928-074292FM-15+0025KMJX V0209999C000052200059N0160935N5-01505-01785103285ADDGA1005+999999999GD10991+9999999GF100991999999999999999999MA1103225102915REMMET09901/27/22 01:56:02 METAR KMJX 270656Z 00000KT 10SM CLR M15/M18 A3048 RMK AO2 SLP328 T11501178 FZRANO
0183720407004622022012707567+39928-074292FM-15+0025KMJX V0209999C000052200059N0160935N5-01565-01835103295ADDGA1005+999999999GD10991+9999999GF100991999999999999999999MA1103225102915REMMET09901/27/22 02:56:02 METAR KMJX 270756Z 00000KT 10SM CLR M16/M18 A3048 RMK AO2 SLP329 T11561183 FZRANO
0203720407004622022012708567+39928-074292FM-15+0025KMJX V0209999C000052200059N0160935N5-01615-01895103265ADDGA1005+999999999GD10991+9999999GF100991999999999999999999MA1103225102915MD1890029+9999REMMET10501/27/22 03:56:02 METAR KMJX 270856Z 00000KT 10SM CLR M16/M19 A3048 RMK AO2 SLP326 T11611189 58002 FZRANO
0183720407004622022012709567+39928-074292FM-15+0025KMJX V0209999C000052200059N0160935N5-01615-01895103265ADDGA1005+999999999GD10991+9999999GF100991999999999999999999MA1103225102915REMMET09901/27/22 04:56:02 METAR KMJX 270956Z 00000KT 10SM CLR M16/M19 A3048 RMK AO2 SLP326 T11611189 FZRANO
0183720407004622022012710567+39928-074292FM-15+0025KMJX V0209999C000052200059N0160935N5-01565-01895103275ADDGA1005+999999999GD10991+9999999GF100991999999999999999999MA1103225102915REMMET09901/27/22 05:56:02 METAR KMJX 271056Z 00000KT 10SM CLR M16/M19 A3048 RMK AO2 SLP327 T11561189 FZRANO
0241720407004622022012711567+39928-074292FM-15+0025KMJX V0209999C000052200059N0160935N5-01565-01785103315ADDGA1005+999999999GD10991+9999999GF100991999999999999999999KA1060M-01391KA2060N-01611MA1103255102955MD1390059+9999REMMET11701/27/22 06:56:02 METAR KMJX 271156Z 00000KT 10SM CLR M16/M18 A3049 RMK AO2 SLP331 T11561178 11139 21161 53005 FZRANO
0183720407004622022012713567+39928-074292FM-15+0025KMJX V0209999C000052200059N0160935N5-00675-01065103275ADDGA1005+999999999GD10991+9999999GF100991999999999999999999MA1103225102915REMMET09901/27/22 08:56:02 METAR KMJX 271356Z 00000KT 10SM CLR M07/M11 A3048 RMK AO2 SLP327 T10671106 FZRANO
0183720407004622022012715567+39928-074292FM-15+0025KMJX V0201805N003652200059N0160935N5-00065-00895103215ADDGA1005+999999999GD10991+9999999GF100991999999999999999999MA1103155102845REMMET09901/27/22 10:56:02 METAR KMJX 271556Z 18007KT 10SM CLR M01/M09 A3046 RMK AO2 SLP321 T10061089 FZRANO
0226720407004622022012716567+39928-074292FM-15+0025KMJX V0201805N003652200059N0160935N5+00065-01065103115ADDGA1025+012805999GD11991+0128059GE19AGL   +99999+99999GF102995999999012801999999MA1103055102745REMMET10101/27/22 11:56:02 METAR KMJX 271656Z 18007KT 10SM FEW042 01/M11 A3043 RMK AO2 SLP311 T00061106 FZRANOEQDD01      0ADE726
0240720407004622022012717567+39928-074292FM-15+0025KMJX V0202105N001552200059N0160935N5+00115-01175102965ADDGA1005+999999999GD10991+9999999GF100991999999999999999999KA1060M+00111KA2060N-01611MA1102915102615MD1890289+9999REMMET11601/27/22 12:56:02 METAR KMJX 271756Z 21003KT 10SM CLR 01/M12 A3039 RMK AO2 SLP296 T00111117 10011 21161 58028 FZRANO
0182720407004622022012718567+39928-074292FM-15+0025KMJX V0201505N004152200059N0160935N5+00175-00945102825ADDGA1005+999999999GD10991+9999999GF100991999999999999999999MA1102785102475REMMET09801/27/22 13:56:02 METAR KMJX 271856Z 15008KT 10SM CLR 02/M09 A3035 RMK AO2 SLP282 T00171094 FZRANO
0202720407004622022012720567+39928-074292FM-15+0025KMJX V0201705N004652200059N0160935N5+00065-01005102695ADDGA1005+999999999GD10991+9999999GF100991999999999999999999MA1102645102345MD1690269+9999REMMET10401/27/22 15:56:02 METAR KMJX 272056Z 17009KT 10SM CLR 01/M10 A3031 RMK AO2 SLP269 T00061100 56026 FZRANO
0183720407004622022012721567+39928-074292FM-15+0025KMJX V0201505N004152200059N0160935N5-00115-00945102665ADDGA1005+999999999GD10991+9999999GF100991999999999999999999MA1102615102305REMMET09901/27/22 16:56:02 METAR KMJX 272156Z 15008KT 10SM CLR M01/M09 A3030 RMK AO2 SLP266 T10111094 FZRANO
0241720407004622022012723567+39928-074292FM-15+0025KMJX V0209999C000052200059N0160935N5-00445-00895102695ADDGA1005+999999999GD10991+9999999GF100991999999999999999999KA1060M+00171KA2060N-00441MA1102645102345MD1690019+9999REMMET11701/27/22 18:56:02 METAR KMJX 272356Z 00000KT 10SM CLR M04/M09 A3031 RMK AO2 SLP269 T10441089 10017 21044 56001 FZRANO
0183720407004622022012801567+39928-074292FM-15+0025KMJX V0209999C000052200059N0160935N5-00725-01065102625ADDGA1005+999999999GD10991+9999999GF100991999999999999999999MA1102575102275REMMET09901/27/22 20:56:01 METAR KMJX 280156Z 00000KT 10SM CLR M07/M11 A3029 RMK AO2 SLP262 T10721106 FZRANO
0228720407004622022012802567+39928-074292FM-15+0025KMJX V0209999C00005033535MN0160935N5-00615-00895102575ADDGA1075+033535999GD13991+0335359GE19AGL   +99999+99999GF199999999999033531999999MA1102545102245MD1690119+9999REMMET10801/27/22 21:56:01 METAR KMJX 280256Z 00000KT 10SM BKN110 M06/M09 A3028 RMK AO2 SLP257 T10611089 56011 FZRANO
0246720407004622022012803567+39928-074292FM-15+0025KMJX V0209999C00005024385MN0160935N5-00505-00895102555ADDGA1075+024385999GA2085+030485999GD13991+0243859GD24991+0304859GE19AGL   +99999+99999GF199999999999024381999999MA1102515102205REMMET10901/27/22 22:56:02 METAR KMJX 280356Z 00000KT 10SM BKN080 OVC100 M05/M09 A3027 RMK AO2 SLP255 T10501089 FZRANO
0304720407004622022012805567+39928-074292FM-15+0025KMJX V0209999C00005018295MN0160935N5-00395-00785102405ADDGA1075+018295999GA2075+036585999GD13991+0182959GD23991+0365859GE19AGL   +99999+99999GF199999999999018291999999KA1060M-00281KA2060N-00781MA1102345102035MD1890179+9999REMMET12701/28/22 00:56:02 METAR KMJX 280556Z 00000KT 10SM BKN060 BKN120 M04/M08 A3022 RMK AO2 SLP240 T10391078 11028 21078 58017 FZRANO
0289720407004622022012806567+39928-074292FM-15+0025KMJX V0209999C00005025915MN0160935N5-00335-00725102335ADDGA1045+021345999GA2075+025915999GA3085+030485999GD12991+0213459GD23991+0259159GD34991+0304859GE19AGL   +99999+99999GF199999999999021341999999MA1102305102005REMMET12101/28/22 01:56:02 METAR KMJX 280656Z 00000KT 10SM SCT070 BKN085 OVC100 M03/M07 A3021 RMK AO2 SLP233 T10331072 FZRANO TSNO
0208720407004622022012807567+39928-074292FM-15+0025KMJX V0209999C00005021345MN0160935N5-00285-00675102305ADDGA1085+021345999GD14991+0213459GE19AGL   +99999+99999GF199999999999021341999999MA1102275101975REMMET10201/28/22 02:56:02 METAR KMJX 280756Z 00000KT 10SM OVC070 M03/M07 A3020 RMK AO2 SLP230 T10281067 FZRANO
0208720407004622022012809567+39928-074292FM-15+0025KMJX V0209999C00005019815MN0160935N5-00395-00725102195ADDGA1075+019815999GD13991+0198159GE19AGL   +99999+99999GF199999999999019811999999MA1102135101835REMMET10201/28/22 04:56:02 METAR KMJX 280956Z 00000KT 10SM BKN065 M04/M07 A3016 RMK AO2 SLP219 T10391072 FZRANO
0246720407004622022012810567+39928-074292FM-15+0025KMJX V0209999C00005013115MN0160935N5-00335-00725102185ADDGA1075+013115999GA2085+028965999GD13991+0131159GD24991+0289659GE19AGL   +99999+99999GF199999999999013111999999MA1102135101835REMMET10901/28/22 05:56:02 METAR KMJX 281056Z 00000KT 10SM BKN043 OVC095 M03/M07 A3016 RMK AO2 SLP218 T10331072 FZRANO
0208720407004622022012812567+39928-074292FM-15+0025KMJX V0209999C00005024385MN0160935N5-00335-00615102235ADDGA1085+024385999GD14991+0243859GE19AGL   +99999+99999GF199999999999024381999999MA1102205101905REMMET10201/28/22 07:56:02 METAR KMJX 281256Z 00000KT 10SM OVC080 M03/M06 A3018 RMK AO2 SLP223 T10331061 FZRANO
0208720407004622022012813567+39928-074292FM-15+0025KMJX V0209999C00005018295MN0160935N5-00175-00675102215ADDGA1085+018295999GD14991+0182959GE19AGL   +99999+99999GF199999999999018291999999MA1102175101875REMMET10201/28/22 08:56:02 METAR KMJX 281356Z 00000KT 10SM OVC060 M02/M07 A3017 RMK AO2 SLP221 T10171067 FZRANO
0207720407004622022012816567+39928-074292FM-15+0025KMJX V0203005N00155019815MN0160935N5+00175-00725102065ADDGA1085+019815999GD14991+0198159GE19AGL   +99999+99999GF199999999999019811999999MA1102035101735REMMET10101/28/22 11:56:02 METAR KMJX 281656Z 30003KT 10SM OVC065 02/M07 A3013 RMK AO2 SLP206 T00171072 FZRANO
0341720407004622022012817567+39928-074292FM-15+0025KMJX V0203005N00155012505MN0160935N5+00225-00785101985ADDGA1045+010365999GA2075+012505999GA3085+018295999GD12991+0103659GD23991+0125059GD34991+0182959GE19AGL   +99999+99999GF199999999999010361999999KA1060M+00221KA2060N-00441MA1101935101635MD1890209+9999REMMET13301/28/22 12:56:02 METAR KMJX 281756Z 30003KT 10SM SCT034 BKN041 OVC060 02/M08 A3010 RMK AO2 SLP198 T00221078 10022 21044 58020 FZRANO
0238720407004622022012818567+39928-074292FM-15+0025KMJX V0209999C00005010675MN0160935N5+00285-00565101885ADDGA1075+010675999GA2085+014635999GD13991+0106759GD24991+0146359GE19AGL   +99999+99999GF199999999999010671999999MA1101835101535REMMET10101/28/22 13:56:02 METAR KMJX 281856Z 00000KT 10SM BKN035 OVC048 03/M06 A3007 RMK AO2 SLP188 T00281056
0200720407004622022012819567+39928-074292FM-15+0025KMJX V0203605N00265014025MN0160935N5+00285-00565101825ADDGA1085+014025999GD14991+0140259GE19AGL   +99999+99999GF199999999999014021999999MA1101795101495REMMET09401/28/22 14:56:02 METAR KMJX 281956Z 36005KT 10SM OVC046 03/M06 A3006 RMK AO2 SLP182 T00281056
0316720407004622022012822377+39928-074292FM-15+0025KMJX V0200505N00415004275MN0160935N5+00105-00205999999ADDAA101000021AU110020015AW1615GA1075+004275999GA2075+018295999GA3085+022865999GD13991+0042759GD23991+0182959GD34991+0228659GE19AGL   +99999+99999GF199999999999004271999999MA1101665101365MW1615REMMET11401/28/22 17:37:02 METAR KMJX 282237Z 05008KT 10SM -RA BKN014 BKN060 OVC075 01/M02 A3002 RMK AO2 RAB32 P0000 FZRANO
0284720407004622022012822567+39928-074292FM-15+0025KMJX V0200705N00215004275MN0080475N5+00065-00175101735ADDAA101000021AU110030015AU200001015AW1105AW2715GA1085+004275999GD14991+0042759GE19AGL   +99999+99999GF199999999999004271999999MA1101695101395MW1715REMMET12701/28/22 17:56:02 METAR KMJX 282256Z 07004KT 5SM -SN BR OVC014 01/M02 A3003 RMK AO2 RAB32E47SNB47 SLP173 P0000 T00061017 FZRANO
0254720407004622022012823447+39928-074292FM-15+0025KMJX V0200305N00265003665MN0016095N5-00105-00205999999ADDAA101000021AU110030015AU200001015AW1105AW2715GA1085+003665999GD14991+0036659GE19AGL   +99999+99999GF199999999999003661999999MA1101695101395MW1715REMMET09701/28/22 18:44:02 METAR KMJX 282344Z 03005KT 1SM -SN BR OVC012 M01/M02 A3003 RMK AO2 P0000 FZRANO
0292720407004622022012823527+39928-074292FM-15+0025KMJX V0200105N00215003665MN0016095N5-00105-00105999999ADDAA101000021AU110030015AU200001015AW1105AW2715GA1045+001525999GA2085+003665999GD12991+0015259GD24991+0036659GE19AGL   +99999+99999GF199999999999001521999999MA1101695101395MW1715REMMET10401/28/22 18:52:02 METAR KMJX 282352Z 01004KT 1SM -SN BR SCT005 OVC012 M01/M01 A3003 RMK AO2 P0000 FZRANO
0334720407004622022012900057+39928-074292FM-15+0025KMJX V0200205N00265003665MN0024145N5-00105-00105999999ADDAA101000021AU110030015AU200001015AW1105AW2715GA1045+001525999GA2075+003665999GA3085+005185999GD12991+0015259GD23991+0036659GD34991+0051859GE19AGL   +99999+99999GF199999999999001521999999MA1101665101365MW1715REMMET11501/28/22 19:05:01 METAR KMJX 290005Z 02005KT 1 1/2SM -SN BR SCT005 BKN012 OVC017 M01/M01 A3002 RMK AO2 P0000 FZRANO
0296720407004622022012900167+39928-074292FM-15+0025KMJX V0200105N00315005185MN0024145N5-00105-00105999999ADDAA101000021AU110030015AU200001015AW1105AW2715GA1025+001525999GA2085+005185999GD11991+0015259GD24991+0051859GE19AGL   +99999+99999GF199999999999001521999999MA1101635101325MW1715REMMET10801/28/22 19:16:01 METAR KMJX 290016Z 01006KT 1 1/2SM -SN BR FEW005 OVC017 M01/M01 A3001 RMK AO2 P0000 FZRANO
0330720407004622022012900377+39928-074292FM-15+0025KMJX V0200205N00365004275MN0032195N5-00105-00105999999ADDAA101000395AU110030015AU200001015AW1105AW2715GA1025+001525999GA2075+004275999GA3085+005795999GD11991+0015259GD23991+0042759GD34991+0057959GE19AGL   +99999+99999GF199999999999001521999999MA1101565101265MW1715REMMET11101/28/22 19:37:01 METAR KMJX 290037Z 02007KT 2SM -SN BR FEW005 BKN014 OVC019 M01/M01 A2999 RMK AO2 P0001 FZRANO
0330720407004622022012900507+39928-074292FM-15+0025KMJX V0200205N00365002745MN0048285N5-00105-00105999999ADDAA101000395AU110030015AU200001015AW1105AW2715GA1045+001525999GA2075+002745999GA3085+011585999GD12991+0015259GD23991+0027459GD34991+0115859GE19AGL   +99999+99999GF199999999999001521999999MA1101565101265MW1715REMMET11101/28/22 19:50:01 METAR KMJX 290050Z 02007KT 3SM -SN BR SCT005 BKN009 OVC038 M01/M01 A2999 RMK AO2 P0001 FZRANO
0358720407004622022012900547+39928-074292FM-15+0025KMJX V0200205N00365001525MN0040235V5-00105-00105999999ADDAA101000021AU110030015AU200001015AW1105AW2715GA1075+001525999GA2075+004275999GA3085+011585999GD13991+0015251GD23991+0042759GD34991+0115859GE19AGL   +99999+99999GF199999999999001521999999MA1101565101265MW1715REMMET13901/28/22 19:54:01 METAR KMJX 290054Z 02007KT 2 1/2SM -SN BR BKN005 BKN014 OVC038 M01/M01 A2999 RMK AO2 VIS 2 1/2V3 CIG 004V010 P0000 FZRANO
0256720407004622022012902127+39928-074292FM-15+0025KMJX V0200205N00365001525MN0012075N5-00105-00105999999ADDAA101000021AU110030015AU200001015AW1105AW2715GA1085+001525999GD14991+0015259GE19AGL   +99999+99999GF199999999999001521999999MA1101495101195MW1715REMMET09901/28/22 21:12:01 METAR KMJX 290212Z 02007KT 3/4SM -SN BR OVC005 M01/M01 A2997 RMK AO2 P0000 FZRANO
0254720407004622022012902367+39928-074292FM-15+0025KMJX V0200205N00515001525MN0016095N5-00105-00105999999ADDAA101000395AU110030015AU200001015AW1105AW2715GA1085+001525999GD14991+0015259GE19AGL   +99999+99999GF199999999999001521999999MA1101425101125MW1715REMMET09701/28/22 21:36:01 METAR KMJX 290236Z 02010KT 1SM -SN BR OVC005 M01/M01 A2995 RMK AO2 P0001 FZRANO
0329720407004622022012902567+39928-074292FM-15+0025KMJX V0200105N00465001525MN0012075N5-00065-00115101445ADDAA101000595AA203000891AU110030015AU200001015AW1105AW2715GA1085+001525999GD14991+0015259GE19AGL   +99999+99999GF199999999999001521999999MA1101395101095MD1890299+9999MW1715REMMET12801/28/22 21:56:01 METAR KMJX 290256Z 01009KT 3/4SM -SN BR OVC005 M01/M01 A2994 RMK AO2 SLP144 P0002 60003 T10061011 58029 FZRANOEQDQ01  00078PRCP03
0263720407004622022012903107+39928-074292FM-15+0025KMJX V0200105N00515001525MN0020125N5-00105-00105999999ADDAA101000021AU110030015AU200001015AW1105AW2715GA1085+001525999GD14991+0015259GE19AGL   +99999+99999GF199999999999001521999999MA1101395101095MW1715REMMET10601/28/22 22:10:01 METAR KMJX 290310Z 01010KT 1 1/4SM -SN BR OVC005 M01/M01 A2994 RMK AO2 P0000 FZRANO TSNO
0290720407004622022012903567+39928-074292FM-15+0025KMJX V0203605N00465001525MN0016095N5-00115-00175101295ADDAA101000021AU110030015AU200001015AW1105AW2715GA1085+001525999GD14991+0015251GE19AGL   +99999+99999GF199999999999001521999999MA1101255100955MW1715REMMET13301/28/22 22:56:02 METAR KMJX 290356Z 36009KT 1SM -SN BR OVC005 M01/M02 A2990 RMK AO2 CIG 003V008 PRESFR SLP129 P0000 T10111017 FZRANO
0271720407004622022012904257+39928-074292FM-15+0025KMJX V0203605N00515001525MN0032195N5-00105-00205999999ADDAA101000021AU110030015AU200001015AW1105AW2715GA1085+001525999GD14991+0015251GE19AGL   +99999+99999GF199999999999001521999999MA1101225100925MW1715REMMET11401/28/22 23:25:02 METAR KMJX 290425Z 36010KT 2SM -SN BR OVC005 M01/M02 A2989 RMK AO2 CIG 004V009 P0000 FZRANO TSNO
003972040700462202201290459O+39928-074292SOD  +0025KMJX V020999999999999999999999999999+99999+99999999999ADDAT1AU16RA  5AT2AU18SN  5AT3AU13BR  5
0279720407004622022012905157+39928-074292FM-15+0025KMJX V0200105N00515001525MN0012075N5-00105-00205999999ADDAA101000021AU110030015AU200001015AW1105AW2715GA1085+001525999GD14991+0015251GE19AGL   +99999+99999GF199999999999001521999999MA1101125100825MW1715OC100935REMMET11401/29/22 00:15:02 METAR KMJX 290515Z 01010G18KT 3/4SM -SN BR OVC005 M01/M02 A2986 RMK AO2 CIG 003V010 P0000 FZRANO
0269720407004622022012905297+39928-074292FM-15+0025KMJX V0200105N00575001525MN0008055N5-00105-00205999999ADDAA101000021AU120030015AU208002015AW1355AW2725GA1085+001525999GD14991+0015251GE19AGL   +99999+99999GF199999999999001521999999MA1101085100785MW1735REMMET11201/29/22 00:29:02 METAR KMJX 290529Z 01011KT 1/2SM SN FZFG OVC005 M01/M02 A2985 RMK AO2 CIG 003V007 P0000 FZRANO
0378720407004622022012905567+39928-074292FM-15+0025KMJX V0200105N00725000915MN0012075N5-00175-00225101055ADDAA101000021AA206000891AU110030015AU200001015AW1105AW2715GA1085+000915999GD14991+0009159GE19AGL   +99999+99999GF199999999999000911999999KA1060M-00061KA2060N-00171MA1101025100725MD1890389+9999MW1715OC101135REMMET14301/29/22 00:56:02 METAR KMJX 290556Z 01014G22KT 3/4SM -SN BR OVC003 M02/M02 A2983 RMK AO2 SLP105 P0000 60003 T10171022 11006 21017 58038 FZRANOEQDQ01  00078PRCP06
0280720407004622022012908127+39928-074292FM-15+0025KMJX V0200105N00885001525MN0008055N5-00305-00405999999ADDAA101000021AU120030015AU208002015AW1355AW2725GA1085+001525999GD14991+0015251GE19AGL   +99999+99999GF199999999999001521999999MA1100715100415MW1735OC101185REMMET11501/29/22 03:12:02 METAR KMJX 290812Z 01017G23KT 1/2SM SN FZFG OVC005 M03/M04 A2974 RMK AO2 CIG 003V006 P0000 FZRANO
0373720407004622022012908567+39928-074292FM-15+0025KMJX V0203505N00625001525MN0008055N5-00395-00445100615ADDAA101000021AA203000021AU120030015AU208002015AW1355AW2725GA1085+001525999GD14991+0015259GE19AGL   +99999+99999GF199999999999001521999999MA1100585100285MD1890449+9999MW1735OC100985OD149901331360REMMET15001/29/22 03:56:02 METAR KMJX 290856Z 35012G19KT 1/2SM SN FZFG OVC005 M04/M04 A2970 RMK AO2 PK WND 36026/0841 SLP061 P0000 60000 T10391044 58044 FZRANOEQDQ01  00008PRCP03
0326720407004622022012909567+39928-074292FM-15+0025KMJX V0203605N00575002135MN0016095N5-00395-00505100545ADDAA101000021AU110030015AU200001015AW1105AW2715GA1085+002135999GD14991+0021351GE19AGL   +99999+99999GF199999999999002131999999MA1100515100215MW1715OC101185OD149901391340REMMET14701/29/22 04:56:02 METAR KMJX 290956Z 36011G23KT 1SM -SN BR OVC007 M04/M05 A2968 RMK AO2 PK WND 34027/0926 CIG 004V012 SLP054 P0000 T10391050 FZRANO
0277720407004622022012910207+39928-074292FM-15+0025KMJX V0200105N00775002745MN0016095N5-00405-00605999999ADDAA101000021AU110030015AU200001015AW1105AW2715GA1085+002745999GD14991+0027451GE19AGL   +99999+99999GF199999999999002741999999MA1100475100185MW1715OC101135REMMET11201/29/22 05:20:02 METAR KMJX 291020Z 01015G22KT 1SM -SN BR OVC009 M04/M06 A2967 RMK AO2 CIG 005V012 P0000 FZRANO
0279720407004622022012910327+39928-074292FM-15+0025KMJX V0203605N00825002135MN0012075N5-00405-00605999999ADDAA101000021AU110030015AU200001015AW1105AW2715GA1085+002135999GD14991+0021351GE19AGL   +99999+99999GF199999999999002131999999MA1100445100145MW1715OC101185REMMET11401/29/22 05:32:02 METAR KMJX 291032Z 36016G23KT 3/4SM -SN BR OVC007 M04/M06 A2966 RMK AO2 CIG 004V011 P0000 FZRANO
0316720407004622022012910567+39928-074292FM-15+0025KMJX V0203505N00985002135MN0012075N5-00445-00565100435ADDAA101000021AU110030015AU200001015AW1105AW2715GA1085+002135999GD14991+0021359GE19AGL   +99999+99999GF199999999999002131999999MA1100375100075MW1715OC101445OD149901441340REMMET13701/29/22 05:56:02 METAR KMJX 291056Z 35019G28KT 3/4SM -SN BR OVC007 M04/M06 A2964 RMK AO2 PK WND 34028/1053 SLP043 P0000 T10441056 FZRANO
0410720407004622022012911567+39928-074292FM-15+0025KMJX V0203405N00825002135MN0012075N5-00505-00615100495ADDAA101000021AA206000021AA324000891AU110030015AU200001015AW1105AW2715GA1085+002135999GD14991+0021351GE19AGL   +99999+99999GF199999999999002131999999KA1060M-00171MA1100445100145MD1590129+9999MW1715OC101245REMMET16101/29/22 06:56:02 METAR KMJX 291156Z 34016G24KT 3/4SM -SN BR OVC007 M05/M06 A2966 RMK AO2 CIG 005V010 SLP049 P0000 60000 70003 T10501061 11017 21050 55012 FZRANOEQDQ01  00008PRCP06Q02  00078PRCP24
0300720407004622022012912147+39928-074292FM-15+0025KMJX V0203505N00725002135MN0008055N5-00505-00605999999ADDAA101000021AU120030015AU208002015AW1355AW2725GA1085+002135999GD14991+0021359GE19AGL   +99999+99999GF199999999999002131999999MA1100445100145MW1735OC101295OD149901391360REMMET12101/29/22 07:14:02 METAR KMJX 291214Z 35014G25KT 1/2SM SN FZFG OVC007 M05/M06 A2966 RMK AO2 PK WND 36027/1202 P0000 FZRANO
0267720407004622022012913377+39928-074292FM-15+0025KMJX V0203405N00825003355MN0012075N5-00505-00605999999ADDAA101000021AU110030015AU200001015AW1105AW2715GA1085+003355999GD14991+0033559GE19AGL   +99999+99999GF199999999999003351999999MA1100445100145MW1715OC101295REMMET10201/29/22 08:37:02 METAR KMJX 291337Z 34016G25KT 3/4SM -SN BR OVC011 M05/M06 A2966 RMK AO2 P0000 FZRANO
0322720407004622022012913567+39928-074292FM-15+0025KMJX V0203505N00825003965MN0012075N5-00505-00675100545ADDAA101000021AU110030015AU200001015AW1105AW2715GA1075+003965999GA2085+005795999GD13991+0039659GD24991+0057959GE19AGL   +99999+99999GF199999999999003961999999MA1100515100215MW1715OC101135REMMET12601/29/22 08:56:02 METAR KMJX 291356Z 35016G22KT 3/4SM -SN BR BKN013 OVC019 M05/M07 A2968 RMK AO2 SLP054 P0000 T10501067 FZRANO
0267720407004622022012914097+39928-074292FM-15+0025KMJX V0203405N00775003965MN0012075N5-00505-00705999999ADDAA101000021AU110030015AU200001015AW1105AW2715GA1085+003965999GD14991+0039659GE19AGL   +99999+99999GF199999999999003961999999MA1100475100185MW1715OC101185REMMET10201/29/22 09:09:02 METAR KMJX 291409Z 34015G23KT 3/4SM -SN BR OVC013 M05/M07 A2967 RMK AO2 P0000 FZRANO
0300720407004622022012914347+39928-074292FM-15+0025KMJX V0203405N01035003355MN0008055N5-00505-00705999999ADDAA101000021AU120030015AU208002015AW1355AW2725GA1085+003355999GD14991+0033559GE19AGL   +99999+99999GF199999999999003351999999MA1100445100145MW1735OC101545OD149901541340REMMET12101/29/22 09:34:02 METAR KMJX 291434Z 34020G30KT 1/2SM SN FZFG OVC011 M05/M07 A2966 RMK AO2 PK WND 34030/1434 P0000 FZRANO
0373720407004622022012914567+39928-074292FM-15+0025KMJX V0203405N00625003355MN0008055N5-00505-00675100535ADDAA101000021AA203000021AU120030015AU208002015AW1355AW2725GA1085+003355999GD14991+0033559GE19AGL   +99999+99999GF199999999999003351999999MA1100475100185MD1390049+9999MW1735OC101445OD149901541340REMMET15001/29/22 09:56:02 METAR KMJX 291456Z 34012G28KT 1/2SM SN FZFG OVC011 M05/M07 A2967 RMK AO2 PK WND 34030/1434 SLP053 P0000 60000 T10501067 53004 FZRANOEQDQ01  00008PRCP03
0267720407004622022012915057+39928-074292FM-15+0025KMJX V0203405N00675003355MN0012075N5-00505-00705999999ADDAA101000021AU110030015AU200001015AW1105AW2715GA1085+003355999GD14991+0033559GE19AGL   +99999+99999GF199999999999003351999999MA1100515100215MW1715OC101035REMMET10201/29/22 10:05:02 METAR KMJX 291505Z 34013G20KT 3/4SM -SN BR OVC011 M05/M07 A2968 RMK AO2 P0000 FZRANO
0318720407004622022012915457+39928-074292FM-15+0025KMJX V0203205N00625003055MN0008055N5-00505-00705999999ADDAA101000021AU120030015AU208002015AW1355AW2725GA1075+003055999GA2085+004575999GD13991+0030551GD24991+0045759GE19AGL   +99999+99999GF199999999999003051999999MA1100515100215MW1735OC101035REMMET12201/29/22 10:45:02 METAR KMJX 291545Z 32012G20KT 1/2SM SN FZFG BKN010 OVC015 M05/M07 A2968 RMK AO2 CIG 007V012 P0000 FZRANO
0292720407004622022012916317+39928-074292FM-15+0025KMJX V0209999N99999003665MN0016095N5-00605-00805999999ADDAA101000021AU110030015AU200001015AW1105AW2715GA1075+003665999GA2085+005495999GD13991+0036659GD24991+0054959GE19AGL   +99999+99999GF199999999999003661999999MA1100515100215MW1715REMMET10401/29/22 11:31:02 METAR KMJX 291631Z      KT 1SM -SN BR BKN012 OVC018 M06/M08 A2968 RMK AO2 P0000 FZRANO
0345720407004622022012917037+39928-074292FM-15+0025KMJX V0203205N00725004275MN0020125N5-00705-00905999999ADDAA101000021AU110030015AU200001015AW1105AW2715GA1075+004275999GA2075+006105999GA3085+008235999GD13991+0042759GD23991+0061059GD34991+0082359GE19AGL   +99999+99999GF199999999999004271999999MA1100475100185MW1715OC101295REMMET11801/29/22 12:03:02 METAR KMJX 291703Z 32014G25KT 1 1/4SM -SN BR BKN014 BKN020 OVC027 M07/M09 A2967 RMK AO2 P0000 FZRANO
0345720407004622022012917197+39928-074292FM-15+0025KMJX V0203205N00725004885MN0020125N5-00705-00905999999ADDAA101000021AU110030015AU200001015AW1105AW2715GA1075+004885999GA2075+006105999GA3085+008235999GD13991+0048859GD23991+0061059GD34991+0082359GE19AGL   +99999+99999GF199999999999004881999999MA1100445100145MW1715OC101245REMMET11801/29/22 12:19:02 METAR KMJX 291719Z 32014G24KT 1 1/4SM -SN BR BKN016 BKN020 OVC027 M07/M09 A2966 RMK AO2 P0000 FZRANO
0303720407004622022012917267+39928-074292FM-15+0025KMJX V0203205N00885004885MN0016095N5-00705-00905999999ADDAA101000021AU110030015AU200001015AW1105AW2715GA1075+004885999GA2085+007625999GD13991+0048859GD24991+0076259GE19AGL   +99999+99999GF199999999999004881999999MA1100415100115MW1715OC101245REMMET10701/29/22 12:26:02 METAR KMJX 291726Z 32017G24KT 1SM -SN BR BKN016 OVC025 M07/M09 A2965 RMK AO2 P0000 FZRANO
0345720407004622022012917407+39928-074292FM-15+0025KMJX V0203205N00775007325MN0020125N5-00705-00905999999ADDAA101000021AU110030015AU200001015AW1105AW2715GA1045+004885999GA2075+007325999GA3085+008845999GD12991+0048859GD23991+0073259GD34991+0088459GE19AGL   +99999+99999GF199999999999004881999999MA1100415100115MW1715OC101245REMMET11801/29/22 12:40:02 METAR KMJX 291740Z 32015G24KT 1 1/4SM -SN BR SCT016 BKN024 OVC029 M07/M09 A2965 RMK AO2 P0000 FZRANO
0405720407004622022012917567+39928-074292FM-15+0025KMJX V0209999N99999008845MN0016095N5-00725-00945100415ADDAA101000021AA206000021AU110030015AU200001015AW1105AW2715GA1045+004275999GA2085+008845999GD12991+0042759GD24991+0088459GE19AGL   +99999+99999GF199999999999004271999999KA1060M-00441KA2060N-00721MA1100375100075MD1890129+9999MW1715REMMET14701/29/22 12:56:02 METAR KMJX 291756Z      KT 1SM -SN BR SCT014 OVC029 M07/M09 A2964 RMK AO2 SLP041 P0000 60000 T10721094 11044 21072 58012 FZRANO $EQDQ01  00008PRCP06
0332720407004622022012918087+39928-074292FM-15+0025KMJX V0209999N99999009455MN0012075N5-00805-01005999999ADDAA101000021AU110030015AU200001015AW1105AW2715GA1045+004275999GA2045+006105999GA3085+009455999GD12991+0042759GD22991+0061059GD34991+0094559GE19AGL   +99999+99999GF199999999999004271999999MA1100415100115MW1715REMMET11301/29/22 13:08:02 METAR KMJX 291808Z      KT 3/4SM -SN BR SCT014 SCT020 OVC031 M08/M10 A2965 RMK AO2 P0000 FZRANO
0341720407004622022012918297+39928-074292FM-15+0025KMJX V0203105N00885004885MN0016095N5-00805-01005999999ADDAA101000021AU110030015AU200001015AW1105AW2715GA1075+004885999GA2075+007625999GA3085+009145999GD13991+0048859GD23991+0076259GD34991+0091459GE19AGL   +99999+99999GF199999999999004881999999MA1100375100075MW1715OC101345REMMET11401/29/22 13:29:02 METAR KMJX 291829Z 31017G26KT 1SM -SN BR BKN016 BKN025 OVC030 M08/M10 A2964 RMK AO2 P0000 FZRANO
0377720407004622022012918437+39928-074292FM-15+0025KMJX V0203105N00825007625MN0024145N5-00805-01005999999ADDAA101000021AU110030015AU200001015AW1105AW2715GA1045+004885999GA2075+007625999GA3085+010065999GD12991+0048859GD23991+0076259GD34991+0100659GE19AGL   +99999+99999GF199999999999004881999999MA1100375100075MW1715OC101605OD149901591310REMMET13601/29/22 13:43:02 METAR KMJX 291843Z 31016G31KT 1 1/2SM -SN BR SCT016 BKN025 OVC033 M08/M10 A2964 RMK AO2 PK WND 31031/1834 P0000 FZRANO
0327720407004622022012919407+39928-074292FM-15+0025KMJX V0203105N00935011285MN0032195V5-00805-01105999999ADDAA101000021AU110030015AW1715GA1025+005495999GA2085+011285999GD11991+0054959GD24991+0112859GE19AGL   +99999+99999GF199999999999005491999999MA1100415100115MW1715OC101545OD149901541310REMMET13401/29/22 14:40:02 METAR KMJX 291940Z 31018G30KT 2SM -SN FEW018 OVC037 M08/M11 A2965 RMK AO2 PK WND 31030/1938 VIS 1 1/4V4 P0000 FZRANO
0302720407004622022012919567+39928-074292FM-15+0025KMJX V0203105N00935011285MN0032195V5-00785-01175100485ADDAA101000021AU110030015AW1715GA1085+011285999GD14991+0112859GE19AGL   +99999+99999GF199999999999011281999999MA1100445100145MW1715OC101495OD149901541310REMMET14001/29/22 14:56:02 METAR KMJX 291956Z 31018G29KT 2SM -SN OVC037 M08/M12 A2966 RMK AO2 PK WND 31030/1938 VIS 1V5 SLP048 P0000 T10781117 FZRANO
0281720407004622022012920037+39928-074292FM-15+0025KMJX V0203105N01185010675MN0024145N5-00805-01205999999ADDAA101000021AU110030015AW1715GA1085+010675999GD14991+0106759GE19AGL   +99999+99999GF199999999999010671999999MA1100415100115MW1715OC101545OD149901541320REMMET11901/29/22 15:03:02 METAR KMJX 292003Z 31023G30KT 1 1/2SM -SN OVC035 M08/M12 A2965 RMK AO2 PK WND 32030/2003 P0000 FZRANO
0331720407004622022012920357+39928-074292FM-15+0025KMJX V0203005N00825011285MN0040235V5-00805-01205999999ADDAA101000021AU110030015AW1715GA1075+011285999GA2085+013725999GD13991+0112859GD24991+0137259GE19AGL   +99999+99999GF199999999999011281999999MA1100475100185MW1715OC101295OD149901541320REMMET13801/29/22 15:35:02 METAR KMJX 292035Z 30016G25KT 2 1/2SM -SN BKN037 OVC045 M08/M12 A2967 RMK AO2 PK WND 32030/2003 VIS 1 1/2V3 P0000 FZRANO
0315720407004622022012920437+39928-074292FM-15+0025KMJX V0203005N00825014335MN0064375N5-00805-01205999999ADDAA101000021AU110030015AW1715GA1045+011285999GA2085+014335999GD12991+0112859GD24991+0143359GE19AGL   +99999+99999GF199999999999011281999999MA1100475100185MW1715OC101135OD149901541320REMMET12201/29/22 15:43:02 METAR KMJX 292043Z 30016G22KT 4SM -SN SCT037 OVC047 M08/M12 A2967 RMK AO2 PK WND 32030/2003 P0000 FZRANO
0388720407004622022012920567+39928-074292FM-15+0025KMJX V0203005N00985014335MN0080475N5-00835-01285100495ADDAA101000021AA203000021AU110030015AW1715GA1075+014335999GA2085+016765999GD13991+0143359GD24991+0167659GE19AGL   +99999+99999GF199999999999014331999999MA1100445100145MD1390079+9999MW1715OC101345OD149901541320REMMET15101/29/22 15:56:02 METAR KMJX 292056Z 30019G26KT 5SM -SN BKN047 OVC055 M08/M13 A2966 RMK AO2 PK WND 32030/2003 SLP049 P0000 60000 T10831128 53007 FZRANOEQDQ01  00008PRCP03
0332720407004622022012922567+39928-074292FM-15+0025KMJX V0203005N00725027435MN0128755N5-00785-01615100595ADDAA101000021AU110030015AW1715GA1045+021345999GA2085+027435999GD12991+0213459GD24991+0274359GE19AGL   +99999+99999GF199999999999021341999999MA1100545100245MW1715OC101185OD149901331310REMMET13901/29/22 17:56:02 METAR KMJX 292256Z 30014G23KT 8SM -SN SCT070 OVC090 M08/M16 A2969 RMK AO2 PK WND 31026/2218 SLP059 P0000 T10781161 FZRANO
0336720407004622022012923567+39928-074292FM-15+0025KMJX V0203005N00885033535MN0160935N5-00785-01615100705ADDAA101000021AA206000021GA1085+033535999GD14991+0335359GE19AGL   +99999+99999GF199999999999033531999999KA1060M-00721KA2060N-00831MA1100645100345MD1390219+9999OC101085REMMET14101/29/22 18:56:02 METAR KMJX 292356Z 30017G21KT 10SM OVC110 M08/M16 A2972 RMK AO2 SNE16 SLP070 P0000 60000 T10781161 11072 21083 53021 FZRANOEQDQ01  00008PRCP06
0253720407004622022013000567+39928-074292FM-15+0025KMJX V0203105N007252200059N0160935N5-00785-01675100805ADDAA101000021GA1025+028965999GD11991+0289659GE19AGL   +99999+99999GF102995999999028961999999MA1100755100455REMMET11701/29/22 19:56:01 METAR KMJX 300056Z 31014KT 10SM FEW095 M08/M17 A2975 RMK AO2 SNB15E36 SLP080 P0000 T10781167 FZRANOEQDD01      0ADE726
0243720407004622022013001567+39928-074292FM-15+0025KMJX V0203105N007752200059N0128755N5-00895-01725100935ADDAA101000021AU110030015AW1715GA1005+999999999GD10991+9999999GF100991999999999999999999MA1100885100585MW1715OC101245REMMET11701/29/22 20:56:01 METAR KMJX 300156Z 31015G24KT 8SM -SN CLR M09/M17 A2979 RMK AO2 SNB07 SLP093 P0000 T10891172 FZRANO
0291720407004622022013002567+39928-074292FM-15+0025KMJX V0203105N007752200059N0160935N5-01005-01725101025ADDAA101000021AA203000021GA1005+999999999GD10991+9999999GF100991999999999999999999MA1100985100685MD1390339+9999OC100985REMMET14401/29/22 21:56:01 METAR KMJX 300256Z 31015G19KT 10SM CLR M10/M17 A2982 RMK AO2 PK WND 30029/0204 SNE19 SLP102 P0000 60000 T11001172 53033 FZRANOEQDQ01  00008PRCP03
0230720407004622022013004567+39928-074292FM-15+0025KMJX V0203105N006752200059N0160935N5-01175-01835101235ADDGA1005+999999999GD10991+9999999GF100991999999999999999999KA1240M-00111KA2240N-01171MA1101195100895OC101245REMMET11201/29/22 23:56:02 METAR KMJX 300456Z 31013G24KT 10SM CLR M12/M18 A2988 RMK AO2 SLP123 T11171183 410111117 FZRANO
005172040700462202201300459O+39928-074292SOD  +0025KMJX V020999999999999999999999999999+99999+99999999999ADDAT1AU18SN  5AT2AU22FZFG5AT3AU13BR  5AT4AW01FG  5
0337720407004622022013005567+39928-074292FM-15+0025KMJX V0203105N006752200059N0144845N5-01225-01835101265ADDAA101000021AA206000021AU110030015AW1715GA1005+999999999GD10991+9999999GF100991999999999999999999KA1060M-00781KA2060N-01221MA1101225100925MD1190239+9999MW1715OC101035REMMET14101/30/22 00:56:02 METAR KMJX 300556Z 31013G20KT 9SM -SN CLR M12/M18 A2989 RMK AO2 SNB25 SLP126 P0000 60000 T11221183 11078 21122 51023 FZRANOEQDQ01  00008PRCP06
0183720407004622022013007567+39928-074292FM-15+0025KMJX V0203005N006252200059N0160935N5-01285-01785101415ADDGA1005+999999999GD10991+9999999GF100991999999999999999999MA1101355101055REMMET09901/30/22 02:56:02 METAR KMJX 300756Z 30012KT 10SM CLR M13/M18 A2993 RMK AO2 SLP141 T11281178 FZRANO
0239720407004622022013008567+39928-074292FM-15+0025KMJX V0202905N004152200059N0160935N5-01335-01785101445ADDAA103000021GA1005+999999999GD10991+9999999GF100991999999999999999999MA1101395101095MD1190189+9999REMMET11101/30/22 03:56:02 METAR KMJX 300856Z 29008KT 10SM CLR M13/M18 A2994 RMK AO2 SLP144 60000 T11331178 51018 FZRANOEQDQ01  00008PRCP03
0183720407004622022013012567+39928-074292FM-15+0025KMJX V0202805N005152200059N0160935N5-01225-01725101845ADDGA1005+999999999GD10991+9999999GF100991999999999999999999MA1101795101495REMMET09901/30/22 07:56:02 METAR KMJX 301256Z 28010KT 10SM CLR M12/M17 A3006 RMK AO2 SLP184 T11221172 FZRANO
0183720407004622022013013567+39928-074292FM-15+0025KMJX V0202905N006252200059N0160935N5-00895-01675101895ADDGA1005+999999999GD10991+9999999GF100991999999999999999999MA1101835101535REMMET09901/30/22 08:56:02 METAR KMJX 301356Z 29012KT 10SM CLR M09/M17 A3007 RMK AO2 SLP189 T10891167 FZRANO
0203720407004622022013014567+39928-074292FM-15+0025KMJX V0202805N005752200059N0160935N5-00725-01565101915ADDGA1005+999999999GD10991+9999999GF100991999999999999999999MA1101865101565MD1190179+9999REMMET10501/30/22 09:56:02 METAR KMJX 301456Z 28011KT 10SM CLR M07/M16 A3008 RMK AO2 SLP191 T10721156 51017 FZRANO
0183720407004622022013015567+39928-074292FM-15+0025KMJX V0202905N005152200059N0160935N5-00675-01565101935ADDGA1005+999999999GD10991+9999999GF100991999999999999999999MA1101865101565REMMET09901/30/22 10:56:02 METAR KMJX 301556Z 29010KT 10SM CLR M07/M16 A3008 RMK AO2 SLP193 T10671156 FZRANO
0183720407004622022013016567+39928-074292FM-15+0025KMJX V0202705N005152200059N0160935N5-00565-01505101835ADDGA1005+999999999GD10991+9999999GF100991999999999999999999MA1101765101465REMMET09901/30/22 11:56:02 METAR KMJX 301656Z 27010KT 10SM CLR M06/M15 A3005 RMK AO2 SLP183 T10561150 FZRANO
0252720407004622022013017567+39928-074292FM-15+0025KMJX V0202605N006752200059N0160935N5-00335-01505101765ADDGA1005+999999999GD10991+9999999GF100991999999999999999999KA1060M-00331KA2060N-01441MA1101735101435MD1890149+9999OC100885REMMET12001/30/22 12:56:02 METAR KMJX 301756Z 26013G17KT 10SM CLR M03/M15 A3004 RMK AO2 SLP176 T10331150 11033 21144 58014 FZRANO
0183720407004622022013019567+39928-074292FM-15+0025KMJX V0202805N006252200059N0160935N5-00445-01615101765ADDGA1005+999999999GD10991+9999999GF100991999999999999999999MA1101695101395REMMET09901/30/22 14:56:02 METAR KMJX 301956Z 28012KT 10SM CLR M04/M16 A3003 RMK AO2 SLP176 T10441161 FZRANO
0257720407004622022013023564+39933-074300FM-15+002599999V0209999C000012200059N016093199-01221-01611102081ADDGD12991+0304819GE19AGL   +99999+99999GF104995999999030481999999KA1060M-00221KA2060N-01221MA1102031999999MD1310291+9999REMMET108METAR KMJX 302356Z AUTO 00000KT 10SM SCT100 M12/M16 A3013 RMK AO2 SLP208 T11221161 11022 21122 53029 FZRANO=EQDD01      0ADE726
0208720407004622022013103567+39928-074292FM-15+0025KMJX V0209999C00005024385MN0160935N5-00945-01335102345ADDGA1085+024385999GD14991+0243859GE19AGL   +99999+99999GF199999999999024381999999MA1102305102005REMMET10201/30/22 22:56:01 METAR KMJX 310356Z 00000KT 10SM OVC080 M09/M13 A3021 RMK AO2 SLP234 T10941133 FZRANO
0282720407004622022013104567+39928-074292FM-15+0025KMJX V0209999C00005036585MN0160935N5-00945-01285102385ADDGA1025+022865999GA2085+036585999GD11991+0228659GD24991+0365859GE19AGL   +99999+99999GF199999999999022861999999KA1240M-00221KA2240N-01441MA1102345102035REMMET11901/30/22 23:56:02 METAR KMJX 310456Z 00000KT 10SM FEW075 OVC120 M09/M13 A3022 RMK AO2 SLP238 T10941128 410221144 FZRANO
001572040700462202201310459O+39928-074292SOD  +0025KMJX V020999999999999999999999999999+99999+99999999999ADDAT1AU18SN  5
0266720407004622022013105567+39928-074292FM-15+0025KMJX V0209999C00005036585MN0160935N5-00945-01285102365ADDGA1085+036585999GD14991+0365859GE19AGL   +99999+99999GF199999999999036581999999KA1060M-00891KA2060N-01221MA1102305102005MD1090059+9999REMMET12001/31/22 00:56:02 METAR KMJX 310556Z 00000KT 10SM OVC120 M09/M13 A3021 RMK AO2 SLP236 T10941128 11089 21122 50005 FZRANO
0208720407004622022013106567+39928-074292FM-15+0025KMJX V0209999C00005033535MN0160935N5-01005-01285102395ADDGA1085+033535999GD14991+0335359GE19AGL   +99999+99999GF199999999999033531999999MA1102345102035REMMET10201/31/22 01:56:02 METAR KMJX 310656Z 00000KT 10SM OVC110 M10/M13 A3022 RMK AO2 SLP239 T11001128 FZRANO
0208720407004622022013107567+39928-074292FM-15+0025KMJX V0209999C00005033535MN0160935N5-01065-01335102405ADDGA1085+033535999GD14991+0335359GE19AGL   +99999+99999GF199999999999033531999999MA1102375102075REMMET10201/31/22 02:56:02 METAR KMJX 310756Z 00000KT 10SM OVC110 M11/M13 A3023 RMK AO2 SLP240 T11061133 FZRANO
0228720407004622022013108567+39928-074292FM-15+0025KMJX V0209999C00005033535MN0160935N5-01065-01335102435ADDGA1085+033535999GD14991+0335359GE19AGL   +99999+99999GF199999999999033531999999MA1102375102075MD1390079+9999REMMET10801/31/22 03:56:02 METAR KMJX 310856Z 00000KT 10SM OVC110 M11/M13 A3023 RMK AO2 SLP243 T11061133 53007 FZRANO
0208720407004622022013110567+39928-074292FM-15+0025KMJX V0209999C00005025915MN0160935N5-01115-01395102565ADDGA1085+025915999GD14991+0259159GE19AGL   +99999+99999GF199999999999025911999999MA1102515102205REMMET10201/31/22 05:56:02 METAR KMJX 311056Z 00000KT 10SM OVC085 M11/M14 A3027 RMK AO2 SLP256 T11111139 FZRANO
0183720407004622022013113567+39928-074292FM-15+0025KMJX V0209999C000052200059N0160935N5-00725-01115102785ADDGA1005+999999999GD10991+9999999GF100991999999999999999999MA1102715102415REMMET09901/31/22 08:56:02 METAR KMJX 311356Z 00000KT 10SM CLR M07/M11 A3033 RMK AO2 SLP278 T10721111 FZRANO
0203720407004622022013114567+39928-074292FM-15+0025KMJX V0209999C000052200059N0160935N5-00225-00945102845ADDGA1005+999999999GD10991+9999999GF100991999999999999999999MA1102815102515MD1190229+9999REMMET10501/31/22 09:56:02 METAR KMJX 311456Z 00000KT 10SM CLR M02/M09 A3036 RMK AO2 SLP284 T10221094 51022 FZRANO
0183720407004622022013115567+39928-074292FM-15+0025KMJX V0200405N003652200059N0160935N5-00175-00895102885ADDGA1005+999999999GD10991+9999999GF100991999999999999999999MA1102845102545REMMET09901/31/22 10:56:02 METAR KMJX 311556Z 04007KT 10SM CLR M02/M09 A3037 RMK AO2 SLP288 T10171089 FZRANO
0182720407004622022013118567+39928-074292FM-15+0025KMJX V0200405N004652200059N0160935N5+00065-00895102785ADDGA1005+999999999GD10991+9999999GF100991999999999999999999MA1102745102445REMMET09801/31/22 13:56:02 METAR KMJX 311856Z 04009KT 10SM CLR 01/M09 A3034 RMK AO2 SLP278 T00061089 FZRANO
0182720407004622022013119567+39928-074292FM-15+0025KMJX V0200705N003652200059N0160935N5+00065-00945102795ADDGA1005+999999999GD10991+9999999GF100991999999999999999999MA1102745102445REMMET09801/31/22 14:56:02 METAR KMJX 311956Z 07007KT 10SM CLR 01/M09 A3034 RMK AO2 SLP279 T00061094 FZRANO
0203720407004622022013120567+39928-074292FM-15+0025KMJX V0200605N003652200059N0160935N5-00115-00785102835ADDGA1005+999999999GD10991+9999999GF100991999999999999999999MA1102785102475MD1390019+9999REMMET10501/31/22 15:56:02 METAR KMJX 312056Z 06007KT 10SM CLR M01/M08 A3035 RMK AO2 SLP283 T10111078 53001 FZRANO
0183720407004622022013121567+39928-074292FM-15+0025KMJX V0200605N003152200059N0160935N5-00225-00785102905ADDGA1005+999999999GD10991+9999999GF100991999999999999999999MA1102845102545REMMET09901/31/22 16:56:02 METAR KMJX 312156Z 06006KT 10SM CLR M02/M08 A3037 RMK AO2 SLP290 T10221078 FZRANO
0183720407004622022020101567+39928-074292FM-15+0025KMJX V0200305N001552200059N0160935N5-00675-01065103125ADDGA1005+999999999GD10991+9999999GF100991999999999999999999MA1103055102745REMMET09901/31/22 20:56:01 METAR KMJX 010156Z 03003KT 10SM CLR M07/M11 A3043 RMK AO2 SLP312 T10671106 FZRANO
0208720407004622022020102567+39928-074292FM-15+0025KMJX V0203605N001552200059N0160935N5-00895-01175103155ADDGA1005+999999999GD10991+9999999GF100991999999999999999999MA1103125102815MD1290169+9999REMMET11001/31/22 21:56:01 METAR KMJX 010256Z 36003KT 10SM CLR M09/M12 A3045 RMK AO2 SLP315 T10891117 52016 FZRANO TSNO
0183720407004622022020103567+39928-074292FM-15+0025KMJX V0200105N001552200059N0160935N5-00945-01225103155ADDGA1005+999999999GD10991+9999999GF100991999999999999999999MA1103125102815REMMET09901/31/22 22:56:01 METAR KMJX 010356Z 01003KT 10SM CLR M09/M12 A3045 RMK AO2 SLP315 T10941122 FZRANO
0183720407004622022020106567+39928-074292FM-15+0025KMJX V0200105N001552200059N0160935N5-00895-01175103165ADDGA1005+999999999GD10991+9999999GF100991999999999999999999MA1103125102815REMMET09902/01/22 01:56:01 METAR KMJX 010656Z 01003KT 10SM CLR M09/M12 A3045 RMK AO2 SLP316 T10891117 FZRANO
0227720407004622022020107567+39928-074292FM-15+0025KMJX V0203605N001552200059N0160935N5-01005-01285103215ADDGA1045+009145999GD12991+0091459GE19AGL   +99999+99999GF104995999999009141999999MA1103155102845REMMET10202/01/22 02:56:01 METAR KMJX 010756Z 36003KT 10SM SCT030 M10/M13 A3046 RMK AO2 SLP321 T11001128 FZRANOEQDD01      0ADE726
0228720407004622022020108567+39928-074292FM-15+0025KMJX V0200205N00215009145MN0160935N5-00835-01115103215ADDGA1085+009145999GD14991+0091459GE19AGL   +99999+99999GF199999999999009141999999MA1103185102885MD1190069+9999REMMET10802/01/22 03:56:01 METAR KMJX 010856Z 02004KT 10SM OVC030 M08/M11 A3047 RMK AO2 SLP321 T10831111 51006 FZRANO
0208720407004622022020109567+39928-074292FM-15+0025KMJX V0200205N00215009145MN0160935N5-00835-01115103245ADDGA1085+009145999GD14991+0091459GE19AGL   +99999+99999GF199999999999009141999999MA1103185102885REMMET10202/01/22 04:56:01 METAR KMJX 010956Z 02004KT 10SM OVC030 M08/M11 A3047 RMK AO2 SLP324 T10831111 FZRANO
0227720407004622022020110567+39928-074292FM-15+0025KMJX V0203505N002152200059N0160935N5-00895-01115103295ADDGA1045+009145999GD12991+0091459GE19AGL   +99999+99999GF104995999999009141999999MA1103255102955REMMET10202/01/22 05:56:01 METAR KMJX 011056Z 35004KT 10SM SCT030 M09/M11 A3049 RMK AO2 SLP329 T10891111 FZRANOEQDD01      0ADE726
0266720407004622022020111567+39928-074292FM-15+0025KMJX V0203605N00155009145MN0160935N5-00945-01115103375ADDGA1075+009145999GD13991+0091459GE19AGL   +99999+99999GF199999999999009141999999KA1060M-00831KA2060N-01001MA1103325103015MD1390159+9999REMMET12002/01/22 06:56:01 METAR KMJX 011156Z 36003KT 10SM BKN030 M09/M11 A3051 RMK AO2 SLP337 T10941111 11083 21100 53015 FZRANO
0191720407004622022020112137+39928-074292FM-15+0025KMJX V0203605N00155008535MN0160935N5-00905-01105999999ADDGA1075+008535999GD13991+0085359GE19AGL   +99999+99999GF199999999999008531999999MA1103395103085REMMET08502/01/22 07:13:01 METAR KMJX 011213Z 36003KT 10SM BKN028 M09/M11 A3053 RMK AO2 FZRANO
0191720407004622022020113267+39928-074292FM-15+0025KMJX V0200105N00215009145MN0160935N5-00705-00905999999ADDGA1075+009145999GD13991+0091459GE19AGL   +99999+99999GF199999999999009141999999MA1103425103125REMMET08502/01/22 08:26:01 METAR KMJX 011326Z 01004KT 10SM BKN030 M07/M09 A3054 RMK AO2 FZRANO
0208720407004622022020113567+39928-074292FM-15+0025KMJX V0200205N00315009145MN0160935N5-00505-00835103465ADDGA1075+009145999GD13991+0091459GE19AGL   +99999+99999GF199999999999009141999999MA1103425103125REMMET10202/01/22 08:56:01 METAR KMJX 011356Z 02006KT 10SM BKN030 M05/M08 A3054 RMK AO2 SLP346 T10501083 FZRANO
0207720407004622022020118567+39928-074292FM-15+0025KMJX V0200405N00515010365MN0160935N5+00175-00285103345ADDGA1085+010365999GD14991+0103659GE19AGL   +99999+99999GF199999999999010361999999MA1103285102985REMMET10102/01/22 13:56:02 METAR KMJX 011856Z 04010KT 10SM OVC034 02/M03 A3050 RMK AO2 SLP334 T00171028 FZRANO
0207720407004622022020119567+39928-074292FM-15+0025KMJX V0200405N00415010365MN0160935N5+00175-00285103345ADDGA1085+010365999GD14991+0103659GE19AGL   +99999+99999GF199999999999010361999999MA1103285102985REMMET10102/01/22 14:56:02 METAR KMJX 011956Z 04008KT 10SM OVC034 02/M03 A3050 RMK AO2 SLP334 T00171028 FZRANO
0227720407004622022020120567+39928-074292FM-15+0025KMJX V0200405N00415009755MN0160935N5+00225-00285103295ADDGA1085+009755999GD14991+0097559GE19AGL   +99999+99999GF199999999999009751999999MA1103255102955MD1690129+9999REMMET10702/01/22 15:56:02 METAR KMJX 012056Z 04008KT 10SM OVC032 02/M03 A3049 RMK AO2 SLP329 T00221028 56012 FZRANO
0182720407004622022020121567+39928-074292FM-15+0025KMJX V0200605N002652200059N0160935N5+00065-00335103305ADDGA1005+999999999GD10991+9999999GF100991999999999999999999MA1103255102955REMMET09802/01/22 16:56:02 METAR KMJX 012156Z 06005KT 10SM CLR 01/M03 A3049 RMK AO2 SLP330 T00061033 FZRANO
0183720407004622022020122567+39928-074292FM-15+0025KMJX V0200605N001552200059N0160935N5-00175-00395103335ADDGA1005+999999999GD10991+9999999GF100991999999999999999999MA1103285102985REMMET09902/01/22 17:56:02 METAR KMJX 012256Z 06003KT 10SM CLR M02/M04 A3050 RMK AO2 SLP333 T10171039 FZRANO
0183720407004622022020200567+39928-074292FM-15+0025KMJX V0200205N001552200059N0160935N5-00395-00505103455ADDGA1005+999999999GD10991+9999999GF100991999999999999999999MA1103425103125REMMET09902/01/22 19:56:01 METAR KMJX 020056Z 02003KT 10SM CLR M04/M05 A3054 RMK AO2 SLP345 T10391050 FZRANO
0182720407004622022020201567+39928-074292FM-15+0025KMJX V0203005N001552200059N0128755N5-00615-00725103435ADDGA1005+999999999GD10991+9999999GF100991999999999999999999MA1103395103085REMMET09802/01/22 20:56:01 METAR KMJX 020156Z 30003KT 8SM CLR M06/M07 A3053 RMK AO2 SLP343 T10611072 FZRANO
0185720407004622022020202527+39928-074292FM-15+0025KMJX V0209999C000052200059N0032195N5-00705-00805999999ADDAU100001015AW1105GA1005+999999999GD10991+9999999GF100991999999999999999999MA1103395103085REMMET08402/01/22 21:52:01 METAR KMJX 020252Z 00000KT 2SM BR CLR M07/M08 A3053 RMK AO2 FZRANO
0195720407004622022020203437+39928-074292FM-15+0025KMJX V0209999C000052200059N0032195V5-00805-00905999999ADDAU100001015AW1105GA1005+999999999GD10991+9999999GF100991999999999999999999MA1103325103015REMMET09402/01/22 22:43:01 METAR KMJX 020343Z 00000KT 2SM BR CLR M08/M09 A3051 RMK AO2 VIS 3/4V5 FZRANO
0166720407004622022020204137+39928-074292FM-15+0025KMJX V0209999C000052200059N0160935N5-00905-00905999999ADDGA1005+999999999GD10991+9999999GF100991999999999999999999MA1103325103015REMMET08202/01/22 23:13:02 METAR KMJX 020413Z 00000KT 10SM CLR M09/M09 A3051 RMK AO2 FZRANO
001572040700462202202020459O+39928-074292SOD  +0025KMJX V020999999999999999999999999999+99999+99999999999ADDAT1AU13BR  5
0183720407004622022020206567+39928-074292FM-15+0025KMJX V0209999C000052200059N0160935N5-00945-01065103315ADDGA1005+999999999GD10991+9999999GF100991999999999999999999MA1103255102955REMMET09902/02/22 01:56:02 METAR KMJX 020656Z 00000KT 10SM CLR M09/M11 A3049 RMK AO2 SLP331 T10941106 FZRANO
0183720407004622022020207567+39928-074292FM-15+0025KMJX V0209999C000052200059N0160935N5-00945-01065103265ADDGA1005+999999999GD10991+9999999GF100991999999999999999999MA1103225102915REMMET09902/02/22 02:56:02 METAR KMJX 020756Z 00000KT 10SM CLR M09/M11 A3048 RMK AO2 SLP326 T10941106 FZRANO
0248720407004622022020208437+39928-074292FM-15+0025KMJX V0209999C000052200059N0160935N5-00905-01105999999ADDGA1025+000305999GA2045+002135999GD11991+0003059GD22991+0021359GE19AGL   +99999+99999GF104995999999000301999999MA1103155102845REMMET09202/02/22 03:43:02 METAR KMJX 020843Z 00000KT 10SM FEW001 SCT007 M09/M11 A3046 RMK AO2 FZRANOEQDD01      0ADE726
0229720407004622022020209137+39928-074292FM-15+0025KMJX V0209999C00005000305MN0160935N5-01005-01105999999ADDGA1075+000305999GA2085+002135999GD13991+0003059GD24991+0021359GE19AGL   +99999+99999GF199999999999000301999999MA1103155102845REMMET09202/02/22 04:13:02 METAR KMJX 020913Z 00000KT 10SM BKN001 OVC007 M10/M11 A3046 RMK AO2 FZRANO
0241720407004622022020209227+39928-074292FM-15+0025KMJX V0209999C00005002135MN0160935N5-00905-01105999999ADDGA1045+000305999GA2085+002135999GD12991+0003051GD24991+0021359GE19AGL   +99999+99999GF199999999999000301999999MA1103155102845REMMET10402/02/22 04:22:02 METAR KMJX 020922Z 00000KT 10SM SCT001 OVC007 M09/M11 A3046 RMK AO2 CIG 004V010 FZRANO
0207720407004622022020209567+39928-074292FM-15+0025KMJX V0209999C00005000305MN0144845N5-00945-01065103225ADDGA1085+000305999GD14991+0003059GE19AGL   +99999+99999GF199999999999000301999999MA1103185102885REMMET10102/02/22 04:56:02 METAR KMJX 020956Z 00000KT 9SM OVC001 M09/M11 A3047 RMK AO2 SLP322 T10941106 FZRANO
0214720407004622022020210007+39928-074292FM-15+0025KMJX V0209999C00005000615MN0040235N5-00905-01005999999ADDAU100001015AW1105GA1085+000615999GD14991+0006159GE19AGL   +99999+99999GF199999999999000611999999MA1103185102885REMMET09102/02/22 05:00:02 METAR KMJX 021000Z 00000KT 2 1/2SM BR OVC002 M09/M10 A3047 RMK AO2 FZRANO
0214720407004622022020210047+39928-074292FM-15+0025KMJX V0203605N00155000615MN0008055N5-00905-01005999999ADDAU108002015AW1355GA1085+000615999GD14991+0006159GE19AGL   +99999+99999GF199999999999000611999999MA1103155102845REMMET09102/02/22 05:04:02 METAR KMJX 021004Z 36003KT 1/2SM FZFG OVC002 M09/M10 A3046 RMK AO2 FZRANO
0231720407004622022020210567+39928-074292FM-15+0025KMJX V0209999C00005000615MN0004025N5-00725-00835103225ADDAU108002015AW1355GA1085+000615999GD14991+0006159GE19AGL   +99999+99999GF199999999999000611999999MA1103185102885REMMET10802/02/22 05:56:02 METAR KMJX 021056Z 00000KT 1/4SM FZFG OVC002 M07/M08 A3047 RMK AO2 SLP322 T10721083 FZRANO
0214720407004622022020211457+39928-074292FM-15+0025KMJX V0209999C00005000615MN0004025N5-00605-00705999999ADDAU108002015AW1355GA1085+000615999GD14991+0006159GE19AGL   +99999+99999GF199999999999000611999999MA1103155102845REMMET09102/02/22 06:45:02 METAR KMJX 021145Z 00000KT 1/4SM FZFG OVC002 M06/M07 A3046 RMK AO2 FZRANO
0212720407004622022020212437+39928-074292FM-15+0025KMJX V0209999C00005000615MN0012075N5-00405-00405999999ADDAU100001015AW1105GA1085+000615999GD14991+0006159GE19AGL   +99999+99999GF199999999999000611999999MA1103155102845REMMET08902/02/22 07:43:02 METAR KMJX 021243Z 00000KT 3/4SM BR OVC002 M04/M04 A3046 RMK AO2 FZRANO
0266720407004622022020212487+39928-074292FM-15+0025KMJX V0209999C00005000615MN0020125V5-00305-00405999999ADDAU100001015AW1105GA1075+000615999GA2085+008845999GD13991+0006159GD24991+0088459GE19AGL   +99999+99999GF199999999999000611999999MA1103155102845REMMET11202/02/22 07:48:02 METAR KMJX 021248Z 00000KT 1 1/4SM BR BKN002 OVC029 M03/M04 A3046 RMK AO2 VIS 1/2V2 1/2 FZRANO
0212720407004622022020213107+39928-074292FM-15+0025KMJX V0209999C00005000615MN0012075N5-00205-00305999999ADDAU100001015AW1105GA1085+000615999GD14991+0006159GE19AGL   +99999+99999GF199999999999000611999999MA1103185102885REMMET08902/02/22 08:10:02 METAR KMJX 021310Z 00000KT 3/4SM BR OVC002 M02/M03 A3047 RMK AO2 FZRANO
0214720407004622022020213137+39928-074292FM-15+0025KMJX V0209999C00005000615MN0024145N5-00205-00305999999ADDAU100001015AW1105GA1085+000615999GD14991+0006159GE19AGL   +99999+99999GF199999999999000611999999MA1103185102885REMMET09102/02/22 08:13:02 METAR KMJX 021313Z 00000KT 1 1/2SM BR OVC002 M02/M03 A3047 RMK AO2 FZRANO
0268720407004622022020213567+39928-074292FM-15+0025KMJX V0209999C00005000615MN0024145N5+00065-00065103185ADDAU100001015AW1105GA1075+000615999GA2085+007925999GD13991+0006159GD24991+0079259GE19AGL   +99999+99999GF199999999999000611999999MA1103155102845REMMET11402/02/22 08:56:02 METAR KMJX 021356Z 00000KT 1 1/2SM BR BKN002 OVC026 01/M01 A3046 RMK AO2 SLP318 T00061006 FZRANO
0201720407004622022020214417+39928-074292FM-15+0025KMJX V0209999C00005000615MN0048285N5+00305+00205999999ADDAU100001015AW1105GA1085+000615999GD14991+0006159GE19AGL   +99999+99999GF199999999999000611999999MA1103185102885REMMET07802/02/22 09:41:02 METAR KMJX 021441Z 00000KT 3SM BR OVC002 03/02 A3047 RMK AO2
0277720407004622022020215057+39928-074292FM-15+0025KMJX V0209999C00005002445MN0064375N5+00305+00205999999ADDAU100001015AW1105GA1045+000615999GA2075+002445999GA3075+011585999GD12991+0006159GD23991+0024459GD33991+0115859GE19AGL   +99999+99999GF199999999999000611999999MA1103225102915REMMET09202/02/22 10:05:02 METAR KMJX 021505Z 00000KT 4SM BR SCT002 BKN008 BKN038 03/02 A3048 RMK AO2
0239720407004622022020215247+39928-074292FM-15+0025KMJX V0209999C00005011585MN0080475N5+00405+00305999999ADDAU100001015AW1105GA1045+002445999GA2075+011585999GD12991+0024459GD23991+0115859GE19AGL   +99999+99999GF199999999999002441999999MA1103185102885REMMET08502/02/22 10:24:02 METAR KMJX 021524Z 00000KT 5SM BR SCT008 BKN038 04/03 A3047 RMK AO2
0275720407004622022020215567+39928-074292FM-15+0025KMJX V0209999C00005008535MN0160935N5+00785+00445103215ADDGA1025+002445999GA2075+008535999GA3085+011585999GD11991+0024459GD23991+0085359GD34991+0115859GE19AGL   +99999+99999GF199999999999002441999999MA1103155102845REMMET10702/02/22 10:56:02 METAR KMJX 021556Z 00000KT 10SM FEW008 BKN028 OVC038 08/04 A3046 RMK AO2 SLP321 T00780044
0239720407004622022020216477+39928-074292FM-15+0025KMJX V0209999V002152200059N0160935N5+00905+00405999999ADDGA1045+007925999GA2045+009755999GD12991+0079259GD22991+0097559GE19AGL   +99999+99999GF104995999999007921999999MA1103055102745REMMET08302/02/22 11:47:02 METAR KMJX 021647Z VRB04KT 10SM SCT026 SCT032 09/04 A3043 RMK AO2EQDD01      0ADE726
0275720407004622022020216567+39928-074292FM-15+0025KMJX V0201205N00315007925MN0160935N5+01006+00445103095ADDGA1045+006715999GA2075+007925999GA3075+009755999GD12991+0067159GD23991+0079259GD33991+0097559GE19AGL   +99999+99999GF199999999999006711999999MA1103055102745REMMET10702/02/22 11:56:02 METAR KMJX 021656Z 12006KT 10SM SCT022 BKN026 BKN032 10/04 A3043 RMK AO2 SLP309 T01000044
0199720407004622022020219567+39928-074292FM-15+0025KMJX V0201305N00265004275MN0160935N5+00895+00505102985ADDGA1085+004275999GD14991+0042759GE19AGL   +99999+99999GF199999999999004271999999MA1102955102645REMMET09302/02/22 14:56:02 METAR KMJX 021956Z 13005KT 10SM OVC014 09/05 A3040 RMK AO2 SLP298 T00890050
0182720407004622022020220337+39928-074292FM-15+0025KMJX V0201305N00315004885MN0160935N5+00805+00505999999ADDGA1085+004885999GD14991+0048859GE19AGL   +99999+99999GF199999999999004881999999MA1102845102545REMMET07602/02/22 15:33:02 METAR KMJX 022033Z 13006KT 10SM OVC016 08/05 A3037 RMK AO2
0182720407004622022020220467+39928-074292FM-15+0025KMJX V0201205N00315004275MN0160935N5+00805+00605999999ADDGA1085+004275999GD14991+0042759GE19AGL   +99999+99999GF199999999999004271999999MA1102815102515REMMET07602/02/22 15:46:02 METAR KMJX 022046Z 12006KT 10SM OVC014 08/06 A3036 RMK AO2
0257720407004622022020220567+39928-074292FM-15+0025KMJX V0201205N00265004275MN0160935N5+00785+00565102845ADDGA1075+004275999GA2085+007015999GD13991+0042759GD24991+0070159GE19AGL   +99999+99999GF199999999999004271999999MA1102815102515MD1890209+9999REMMET10602/02/22 15:56:02 METAR KMJX 022056Z 12005KT 10SM BKN014 OVC023 08/06 A3036 RMK AO2 SLP284 T00780056 58020
0220720407004622022020221277+39928-074292FM-15+0025KMJX V0201305N00215004275MN0160935N5+00705+00605999999ADDGA1045+002445999GA2085+004275999GD12991+0024459GD24991+0042759GE19AGL   +99999+99999GF199999999999002441999999MA1102815102515REMMET08302/02/22 16:27:02 METAR KMJX 022127Z 13004KT 10SM SCT008 OVC014 07/06 A3036 RMK AO2
0199720407004622022020221567+39928-074292FM-15+0025KMJX V0209999C00005001835MN0160935N5+00615+00505102895ADDGA1085+001835999GD14991+0018359GE19AGL   +99999+99999GF199999999999001831999999MA1102845102545REMMET09302/02/22 16:56:02 METAR KMJX 022156Z 00000KT 10SM OVC006 06/05 A3037 RMK AO2 SLP289 T00610050
0181720407004622022020222077+39928-074292FM-15+0025KMJX V0209999C00005001225MN0128755N5+00605+00505999999ADDGA1085+001225999GD14991+0012259GE19AGL   +99999+99999GF199999999999001221999999MA1102845102545REMMET07502/02/22 17:07:02 METAR KMJX 022207Z 00000KT 8SM OVC004 06/05 A3037 RMK AO2
0205720407004622022020222237+39928-074292FM-15+0025KMJX V0209999C00005001225MN0028165N5+00605+00505999999ADDAU100001015AW1105GA1085+001225999GD14991+0012259GE19AGL   +99999+99999GF199999999999001221999999MA1102845102545REMMET08202/02/22 17:23:02 METAR KMJX 022223Z 00000KT 1 3/4SM BR OVC004 06/05 A3037 RMK AO2
0203720407004622022020222297+39928-074292FM-15+0025KMJX V0209999C00005001225MN0012075N5+00605+00505999999ADDAU100001015AW1105GA1085+001225999GD14991+0012259GE19AGL   +99999+99999GF199999999999001221999999MA1102845102545REMMET08002/02/22 17:29:02 METAR KMJX 022229Z 00000KT 3/4SM BR OVC004 06/05 A3037 RMK AO2
0358720407004622022020223567+39928-074292FM-15+0025KMJX V0209999C00005001225MN0004025N5+00335+00335102885ADDAA101000021AA206000021AU110020015AU200002015AW1305AW2615GA1085+001225999GD14991+0012259GE19AGL   +99999+99999GF199999999999001221999999KA1060M+00941KA2060N+00331MA1102845102545MD1190059+9999MW1615REMMET13102/02/22 18:56:02 METAR KMJX 022356Z 00000KT 1/4SM -RA FG OVC004 03/03 A3037 RMK AO2 SLP288 P0000 60000 T00330033 10094 20033 51005EQDQ01  00008PRCP06
0247720407004622022020300537+39928-074292FM-15+0025KMJX V0209999C00005000615MN0004025N5+00305+00305999999ADDAA101000021AU110020015AU200002015AW1305AW2615GA1085+000615999GD14991+0006159GE19AGL   +99999+99999GF199999999999000611999999MA1102785102475MW1615REMMET09002/02/22 19:53:01 METAR KMJX 030053Z 00000KT 1/4SM -RA FG OVC002 03/03 A3035 RMK AO2 P0000
0264720407004622022020300567+39928-074292FM-15+0025KMJX V0209999C00005000615MN0004025N5+00285+00285102815ADDAA101000021AU110020015AU200002015AW1305AW2615GA1085+000615999GD14991+0006159GE19AGL   +99999+99999GF199999999999000611999999MA1102785102475MW1615REMMET10702/02/22 19:56:01 METAR KMJX 030056Z 00000KT 1/4SM -RA FG OVC002 03/03 A3035 RMK AO2 SLP281 P0000 T00280028
0300720407004622022020304567+39928-074292FM-15+0025KMJX V0209999C00005000615MN0004025N5+00335+00285102685ADDAA101000021AU110020015AU200002015AW1305AW2615GA1085+000615999GD14991+0006159GE19AGL   +99999+99999GF199999999999000611999999KA1240M+01001KA2240N-01001MA1102645102345MW1615REMMET11702/02/22 23:56:02 METAR KMJX 030456Z 00000KT 1/4SM -RA FG OVC002 03/03 A3031 RMK AO2 SLP268 P0000 T00330028 401001100
005172040700462202202030459O+39928-074292SOD  +0025KMJX V020999999999999999999999999999+99999+99999999999ADDAT1AU16RA  5AT2AU01FG  5AT3AU22FZFG5AT4AU13BR  5
0236720407004622022020306367+39928-074292FM-15+0025KMJX V0209999C00005000615MN0012075N5+00205+00205999999ADDAA101000021AU100001015AW1105GA1085+000615999GD14991+0006159GE19AGL   +99999+99999GF199999999999000611999999MA1102645102345REMMET10202/03/22 01:36:02 METAR KMJX 030636Z 00000KT 3/4SM BR OVC002 02/02 A3031 RMK AO2 RAB00E31 P0000 FZRANO
0253720407004622022020306567+39928-074292FM-15+0025KMJX V0209999C00005000615MN0008055N5+00225+00225102675ADDAA101000021AU100002015AW1305GA1085+000615999GD14991+0006159GE19AGL   +99999+99999GF199999999999000611999999MA1102645102345REMMET11902/03/22 01:56:02 METAR KMJX 030656Z 00000KT 1/2SM FG OVC002 02/02 A3031 RMK AO2 RAB00E31 SLP267 P0000 T00220022 FZRANO
0255720407004622022020307147+39928-074292FM-15+0025KMJX V0209999C00005000615MN0004025N5+00305+00205999999ADDAA101000021AU110020015AU200002015AW1305AW2615GA1085+000615999GD14991+0006159GE19AGL   +99999+99999GF199999999999000611999999MA1102615102305MW1615REMMET09802/03/22 02:14:02 METAR KMJX 030714Z 00000KT 1/4SM -RA FG OVC002 03/02 A3030 RMK AO2 RAB0657 P0000
0262720407004622022020307237+39928-074292FM-15+0025KMJX V0209999C00005001225MN0008055N5+00205+00205999999ADDAA101000021AU110020015AU200002015AW1305AW2615GA1085+001225999GD14991+0012259GE19AGL   +99999+99999GF199999999999001221999999MA1102615102305MW1615REMMET10502/03/22 02:23:02 METAR KMJX 030723Z 00000KT 1/2SM -RA FG OVC004 02/02 A3030 RMK AO2 RAB0657 P0000 FZRANO
0262720407004622022020307387+39928-074292FM-15+0025KMJX V0209999C00005000615MN0008055N5+00205+00205999999ADDAA101000021AU110020015AU200002015AW1305AW2615GA1085+000615999GD14991+0006159GE19AGL   +99999+99999GF199999999999000611999999MA1102615102305MW1615REMMET10502/03/22 02:38:02 METAR KMJX 030738Z 00000KT 1/2SM -RA FG OVC002 02/02 A3030 RMK AO2 RAB0657 P0000 FZRANO
0272720407004622022020307567+39928-074292FM-15+0025KMJX V0202005N00155000615MN0008055N5+00285+00285102645ADDAA101000021AU110020015AU200002015AW1305AW2615GA1085+000615999GD14991+0006159GE19AGL   +99999+99999GF199999999999000611999999MA1102615102305MW1615REMMET11502/03/22 02:56:02 METAR KMJX 030756Z 20003KT 1/2SM -RA FG OVC002 03/03 A3030 RMK AO2 RAB0657 SLP264 P0000 T00280028
0254720407004622022020308057+39928-074292FM-15+0025KMJX V0209999C00005000615MN0004025N5+00205+00205999999ADDAA101000021AU110020015AU200002015AW1305AW2615GA1085+000615999GD14991+0006159GE19AGL   +99999+99999GF199999999999000611999999MA1102575102275MW1615REMMET09702/03/22 03:05:02 METAR KMJX 030805Z 00000KT 1/4SM -RA FG OVC002 02/02 A3029 RMK AO2 P0000 FZRANO
0271720407004622022020308347+39928-074292FM-15+0025KMJX V0209999C00005000615MN0008055N5+00205+00205999999ADDAA101000021AU100002015AW1305GA1075+000615999GA2085+010365999GD13991+0006159GD24991+0103659GE19AGL   +99999+99999GF199999999999000611999999MA1102615102305REMMET10602/03/22 03:34:02 METAR KMJX 030834Z 00000KT 1/2SM FG BKN002 OVC034 02/02 A3030 RMK AO2 RAE15 P0000 FZRANO
0248720407004622022020309347+39928-074292FM-15+0025KMJX V0209999C00005024385MN0008055N5+00205+00205999999ADDAU100002015AW1305GA1025+010365999GA2085+024385999GD11991+0103659GD24991+0243859GE19AGL   +99999+99999GF199999999999010361999999MA1102615102305REMMET09402/03/22 04:34:02 METAR KMJX 030934Z 00000KT 1/2SM FG FEW034 OVC080 02/02 A3030 RMK AO2 FZRANO
0267720407004622022020309567+39928-074292FM-15+0025KMJX V0209999C00005024385MN0024145N5+00175+00175102625ADDAU100001015AW1105GA1045+015245999GA2085+024385999GD12991+0152459GD24991+0243859GE19AGL   +99999+99999GF199999999999015241999999MA1102575102275REMMET11302/03/22 04:56:02 METAR KMJX 030956Z 00000KT 1 1/2SM BR SCT050 OVC080 02/02 A3029 RMK AO2 SLP262 T00170017 FZRANO
0308720407004622022020311297+39928-074292FM-15+0025KMJX V0209999C00005018295MN0028165N5+00205+00205999999ADDAA101000021AU110020015AU200001015AW1105AW2615GA1075+018295999GA2085+021345999GD13991+0182959GD24991+0213459GE19AGL   +99999+99999GF199999999999018291999999MA1102615102305MW1615REMMET12002/03/22 06:29:02 METAR KMJX 031129Z 00000KT 1 3/4SM -RA BR BKN060 OVC070 02/02 A3030 RMK AO2 UPB20E27RAB27 P0000 FZRANO
