0335722247547852025010100537+40624-074669FM-15+0030KSMQ V0209999V00265016765MN0064375N5+01005+00725100355ADDAA101002595AU120020015AW1625GA1025+007015999GA2045+011285999GA3085+016765999GD11991+0070159GD22991+0112859GD34991+0167659GE19AGL   +99999+99999GF199999999999007011999999MA1100345099985MW1655REMMET13312/31/24 19:53:03 METAR KSMQ 010053Z VRB05KT 4SM RA FEW023 SCT037 OVC055 10/07 A2963 RMK AO2 LTG DSNT SW RAB24 SLP035 P0008 T01000072
0292722247547852025010101516+40624-074669FM-16+0030KSMQ V0209999V00215009755MN0160935N5+00805+00705999999ADDAU147000015AU210020015AW1615GA1025+006105999GA2075+009755999GA3085+014025999GD11991+0061059GD23991+0097559GD34991+0140259MA1100105099755MV1015MW1615REMMET13212/31/24 20:51:03 SPECI KSMQ 010151Z VRB04KT 10SM VCTS -RA FEW020 BKN032 OVC046 08/07 A2956 RMK AO2 LTG DSNT ALQDS PRESFR P0012 FIBI
0369722247547852025010101537+40624-074669FM-15+0030KSMQ V0200505N00265007925MN0160935N5+00835+00675100095ADDAA101002895AU147000015AU210020015AW1121AW2615GA1025+005495999GA2075+007925999GA3085+014025999GD11991+0054959GD23991+0079259GD34991+0140259GE19AGL   +99999+99999GF199999999999005491999999MA1100075099715MV1015MW1615REMMET14412/31/24 20:53:03 METAR KSMQ 010153Z 05005KT 10SM VCTS -RA FEW018 BKN026 OVC046 08/07 A2955 RMK AO2 LTG DSNT ALQDS PRESFR SLP009 P0012 T00830067
0343722247547852025010102087+40624-074669FM-16+0030KSMQ V0209999V00315005495MN0064375N5+00785+00675999999ADDAA101000731AU110020015AU200001015AW1105AW2615GA1045+003965999GA2075+005495999GA3085+010365999GD12991+0039659GD23991+0054959GD34991+0103659GE19AGL   +99999+99999GF199999999999003961999999MA1100035099685MW1615REMMET12412/31/24 21:08:03 SPECI KSMQ 010208Z VRB06KT 4SM -RA BR SCT013 BKN018 OVC034 08/07 A2954 RMK AO2 LTG DSNT SE P0003 T00780067
0346722247547852025010102167+40624-074669FM-16+0030KSMQ V0209999V00315005795MN0028165N5+00785+00675999999ADDAA101003331AU130020015AU200001015AW1105AW2635GA1045+003355999GA2075+005795999GA3085+007925999GD12991+0033559GD23991+0057959GD34991+0079259GE19AGL   +99999+99999GF199999999999003351999999MA1100035099685MW1635REMMET12712/31/24 21:16:03 SPECI KSMQ 010216Z VRB06KT 1 3/4SM +RA BR SCT011 BKN019 OVC026 08/07 A2954 RMK AO2 LTG DSNT S P0013 T00780067
0344722247547852025010102227+40624-074669FM-16+0030KSMQ V0209999V00265003665MN0032195N5+00785+00675999999ADDAA101004031AU120020015AU200001015AW1105AW2625GA1075+003665999GA2075+005795999GA3085+007925999GD13991+0036659GD23991+0057959GD34991+0079259GE19AGL   +99999+99999GF199999999999003661999999MA1100035099685MW1655REMMET12512/31/24 21:22:03 SPECI KSMQ 010222Z VRB05KT 2SM RA BR BKN012 BKN019 OVC026 08/07 A2954 RMK AO2 LTG DSNT SE-W P0016 T00780067
0310722247547852025010102357+40624-074669FM-16+0030KSMQ V0209999C00005003055MN0096565N5+00785+00675999999ADDAA101004831AU110020015AU200001015AW1105AW2615GA1075+003055999GA2085+004885999GD13991+0030559GD24991+0048859GE19AGL   +99999+99999GF199999999999003051999999MA1100005099645MW1615REMMET12212/31/24 21:35:03 SPECI KSMQ 010235Z 00000KT 6SM -RA BR BKN010 OVC016 08/07 A2953 RMK AO2 LTG DSNT E AND W P0019 T00780067
0385722247547852025010102537+40624-074669FM-15+0030KSMQ V0209999V00155003055MN0048285N5+00785+00675100075ADDAA101005695AA203010991AU120020015AU200001015AW1105AW2625GA1075+003055999GA2085+004575999GD13991+0030551GD24991+0045759GE19AGL   +99999+99999GF199999999999003051999999MA1100075099715MD1690449+9999MW1655REMMET15312/31/24 21:53:03 METAR KSMQ 010253Z VRB03KT 3SM RA BR BKN010 OVC015 08/07 A2955 RMK AO2 LTG DSNT E AND SE CIG 009V013 SLP007 P0023 60043 T00780067 56044EQDQ01  01098PRCP03
0259722247547852025010103537+40624-074669FM-15+0030KSMQ V0201105N00215004275MN0144845N5+00785+00675099835ADDAA101000395GA1045+003055999GA2085+004275999GD12991+0030559GD24991+0042759GE19AGL   +99999+99999GF199999999999003051999999MA1099835099475REMMET11112/31/24 22:53:03 METAR KSMQ 010353Z 11004KT 9SM SCT010 OVC014 08/07 A2948 RMK AO2 RAE13 SLP983 P0001 T00780067
0295722247547852025010104537+40624-074669FM-15+0030KSMQ V0209999C00005003055MN0144845N5+00785+00725099785ADDAA101000095GA1075+003055999GA2085+004575999GD13991+0030551GD24991+0045759GE19AGL   +99999+99999GF199999999999003051999999KA1240M+01441KA2240N-00281MA1099765099415REMMET12112/31/24 23:53:03 METAR KSMQ 010453Z 00000KT 9SM BKN010 OVC015 08/07 A2946 RMK AO2 CIG 008V012 SLP978 T00780072 401441028
0922722247547852025010104596+40624-074669SOD  +0030KSMQ V020999999999999999999999999999+99999+99999999999ADDAA124011295AT1AU03TS  5AT2AU16RA  5AT3AU13BR  5KA1240M+01445KA2240N-00275MG1100564099764OE11240107311014225OE22240071512014225OE33240013999999995REMSOD73024 HR PRECIPITATION (IN):0.44  24 HR MAX TEMP (F):58 24 HR MAX TEMP TIME (LST):1347 24 HR MIN TEMP (F):27 24 HR MIN TEMP TIME (LST):0736 AVERAGE STATION PRESSURE:29.695 MINIMUM SEA LEVEL PRESSURE:29.46 TIME OF OCCURRENCE:2359 PEAK WIND SPEED (MPH):24  PEAK WIND DIR (DEG):110 PEAK WIND TIME (LST):1422  FASTEST 2MIN SPEED (MPH):16 FASTEST 2MIN DIR (DEG):120 FASTEST 2MIN TIME (LST):1422 AVERAGE WIND SPEED (MPH):3.1  24 HR AVG TEMP (F):43 HEATING DEGREE DAYS:22  COOLING DEGREE DAYS:0   LATEST DAY MAX TEMP (0700-1900 LST):58  LATEST NIGHT MIN TEMP(1900-0800 LST):27 HOURLY INCREMENTAL PRECIPITATION VALUES (IN):.00 0.00 0.00 0.00 0.00 0.00 0.00 0.00 0.00 0.00 0.00 0.00 0.00 0.00 0.00 0.00 0.00 0.00 0.00 0.10 0.11 0.22 0.01 0.00EQDR01     N7GJS072R02     N7GKS075
1260722247547852025010104596+40624-074669SOM  +0030KSMQ V020999999999999999999999999999+99999+99999999999ADDAB10110096AD10026291011999999996AE1175095035005AH1005002093121145AH2010003393000385AH3015003893000435AH4020004193000465AH5030005193000575AH6045005893000575AI1060007193001285AI2080008193001355AI3100009193001355AI4120009993001355AI5150011493001355AI6180011993002075KB1744N-04835KB2744M+06505KB3744A+00835KC1N9-01722399995KC2M9+01832999995KD1744H09685KD2744C00005KE1035005265005MH1101784102174MK1104881410425099491116515REMSOM796PCP MTOT:4.33 PCP GT 24HRS:1.03 DATE(S):10-11 DAYS W/PCP >=.01:17 DAYS W/PCP >=.10:9  DAYS W/ PCP >=.50:3 DAYS W/PCP >=1.00:0 MSDP AMTS W/DATE-TIME TAGS:MIN:5 0.08  31/2114 MIN:10 0.13  30/0038 MIN:15 0.15  30/0043 MIN:20 0.16  30/0046 MIN:30 0.20  30/0057 MIN:45 0.23  30/0057 MIN:60 0.28  30/0128 MIN:80 0.32  30/0135 MIN:100 0.36  30/0135 MIN:120 0.39  30/0135 MIN:150 0.45  30/0135 MIN:180 0.47  30/0207 AVG DLY MIN:23.3  AVG DLY MAX:43.7  AVG MLY TMP:33.5  MIN TMP:1  DATE(S):23 MAX TMP:65  DATE(S):29 DAYS MAX <=32:3 DAYS MAX >=90:0  DAYS MIN <=32:26 DAYS MIN  <=0:0  AVG STP:30.055 LWST SLP:29.38 DATE/TIME:111651 HGST SLP:30.97 DATE/TIME:141042 HDD MTH TOT:968 DEP NORM:-2553 SEASON(JUL 1-JUN 30):1783 DEP NORM:-25536 CDD MTH TOT:0 DEP NORM:-2553 SEASON(JAN 1-DEC 31):1107 DEP NORM:-25536EQDR01  4.337ABP070R02  1.037ADP081
0191722247547852025010105237+40624-074669FM-16+0030KSMQ V0203505N00155004575MN0128755N5+00785+00725999999ADDGA1085+004575999GD14991+0045759GE19AGL   +99999+99999GF199999999999004571999999MA1099735099375REMMET08501/01/25 00:23:02 SPECI KSMQ 010523Z 35003KT 8SM OVC015 08/07 A2945 RMK AO2 T00780072
0191722247547852025010105317+40624-074669FM-16+0030KSMQ V0200205N00155004275MN0128755N5+00785+00675999999ADDGA1085+004275999GD14991+0042759GE19AGL   +99999+99999GF199999999999004271999999MA1099735099375REMMET08501/01/25 00:31:02 SPECI KSMQ 010531Z 02003KT 8SM OVC014 08/07 A2945 RMK AO2 T00780067
0284722247547852025010105537+40624-074669FM-15+0030KSMQ V0203305N00155003965MN0112655N5+00785+00725099755ADDAA101000095AA206011291GA1085+003965999GD14991+0039659GE19AGL   +99999+99999GF199999999999003961999999KA1060M+01001KA2060N+00781MA1099765099415MD1690319+9999REMMET11601/01/25 00:53:02 METAR KSMQ 010553Z 33003KT 7SM OVC013 08/07 A2946 RMK AO2 SLP975 60044 T00780072 10100 20078 56031
0267722247547852025010106537+40624-074669FM-15+0030KSMQ V0209999C00005003665MN0080475N5+00725+00725099765ADDAA101000095AU100001015AW1105GA1075+003665999GA2085+005795999GD13991+0036659GD24991+0057959GE19AGL   +99999+99999GF199999999999003661999999MA1099765099415REMMET10201/01/25 01:53:02 METAR KSMQ 010653Z 00000KT 5SM BR BKN012 OVC019 07/07 A2946 RMK AO2 SLP976 T00720072
0229722247547852025010107537+40624-074669FM-15+0030KSMQ V0209999C00005003355MN0064375N5+00725+00725099845ADDAA101000095AU100001015AW1105GA1085+003355999GD14991+0033559GE19AGL   +99999+99999GF199999999999003351999999MA1099835099475REMMET09501/01/25 02:53:02 METAR KSMQ 010753Z 00000KT 4SM BR OVC011 07/07 A2948 RMK AO2 SLP984 T00720072
0249722247547852025010108537+40624-074669FM-15+0030KSMQ V0209999C00005002745MN0096565N5+00785+00725099855ADDAA101000095AU100001015AW1105GA1085+002745999GD14991+0027459GE19AGL   +99999+99999GF199999999999002741999999MA1099835099475MD1290099+9999REMMET10101/01/25 03:53:02 METAR KSMQ 010853Z 00000KT 6SM BR OVC009 08/07 A2948 RMK AO2 SLP985 T00780072 52009
0209722247547852025010109537+40624-074669FM-15+0030KSMQ V0209999C00005002445MN0112655N5+00785+00725099875ADDAA101000095GA1085+002445999GD14991+0024459GE19AGL   +99999+99999GF199999999999002441999999MA1099865099515REMMET09201/01/25 04:53:02 METAR KSMQ 010953Z 00000KT 7SM OVC008 08/07 A2949 RMK AO2 SLP987 T00780072
0229722247547852025010110137+40624-074669FM-16+0030KSMQ V0209999C00005005495MN0128755N5+00725+00675999999ADDGA1045+002745999GA2085+005495999GD12991+0027459GD24991+0054959GE19AGL   +99999+99999GF199999999999002741999999MA1099865099515REMMET09201/01/25 05:13:02 SPECI KSMQ 011013Z 00000KT 8SM SCT009 OVC018 07/07 A2949 RMK AO2 T00720067
0210722247547852025010110537+40624-074669FM-15+0030KSMQ V0209999C00005003965MN0160935N5+00725+00675099895ADDAA101000095GA1085+003965999GD14991+0039659GE19AGL   +99999+99999GF199999999999003961999999MA1099865099515REMMET09301/01/25 05:53:02 METAR KSMQ 011053Z 00000KT 10SM OVC013 07/07 A2949 RMK AO2 SLP989 T00720067
0257722247547852025010111517+40624-074669FM-16+0030KSMQ V0209999C00005019815MN0144845N5+00705+00705999999ADDGA1045+004275999GA2075+019815999GA3085+024385999GD12991+0042759GD23991+0198159GD34991+0243859GE19AGL   +99999+99999GF199999999999004271999999MA1099905099545REMMET08901/01/25 06:51:02 SPECI KSMQ 011151Z 00000KT 9SM SCT014 BKN065 OVC080 07/07 A2950 RMK AO2
0322722247547852025010111537+40624-074669FM-15+0030KSMQ V0209999C00005021345MN0144845N5+00725+00675099915ADDAA101000095AA224011291GA1025+004275999GA2085+021345999GD11991+0042759GD24991+0213459GE19AGL   +99999+99999GF199999999999004271999999KA1060M+00781KA2060N+00721MA1099905099545MD1190049+9999REMMET12301/01/25 06:53:02 METAR KSMQ 011153Z 00000KT 9SM FEW014 OVC070 07/07 A2950 RMK AO2 SLP991 70044 T00720067 10078 20072 51004
0253722247547852025010112347+40624-074669FM-16+0030KSMQ V0209999N99999021345MN0028165N5+00615+00565999999ADDAU100001015AW1105GA1025+009455999GA2075+021345999GD11991+0094559GD23991+0213459GE19AGL   +99999+99999GF199999999999009451999999MA1099905099545REMMET09901/01/25 07:34:02 SPECI KSMQ 011234Z      KT 1 3/4SM BR FEW031 BKN070 06/06 A2950 RMK AO2 T00610056
0206722247547852025010112537+40624-074669FM-15+0030KSMQ V0209999C000052200059N0004025N5+00505+00445099895ADDAA101000095AU100002015AW1305GA1005+999999999GD10991+9999999GF100991999999999999999999MA1099905099545REMMET09401/01/25 07:53:02 METAR KSMQ 011253Z 00000KT 1/4SM FG CLR 05/04 A2950 RMK AO2 SLP989 T00500044
0212722247547852025010113037+40624-074669FM-16+0030KSMQ V0209999C00005001525WN0004025N5+00445+00445999999ADDAU100002015AW1305GA1095+001525999GD15991+0015259GE19AGL   +99999+99999GF109991999999001521999999MA1099905099545REMMET08901/01/25 08:03:02 SPECI KSMQ 011303Z 00000KT 1/4SM FG VV005 04/04 A2950 RMK AO2 T00440044
0270722247547852025010113107+40624-074669FM-16+0030KSMQ V0209999C000052200059N0004025N5+00445+00445999999ADDAU100002015AW1305GA1025+001225999GA2045+006105999GD11991+0012259GD22991+0061059GE19AGL   +99999+99999GF104995999999001221999999MA1099905099545REMMET09701/01/25 08:10:02 SPECI KSMQ 011310Z 00000KT 1/4SM FG FEW004 SCT020 04/04 A2950 RMK AO2 T00440044EQDD01      0ADE726
0316722247547852025010113257+40624-074669FM-16+0030KSMQ V0201905N001552200059N0016095V5+00505+00445999999ADDAU100001015AW1105GA1025+001225999GA2025+006105999GA3045+022865999GD11991+0012259GD21991+0061059GD32991+0228659GE19AGL   +99999+99999GF104995999999001221999999MA1099935099585REMMET11201/01/25 08:25:02 SPECI KSMQ 011325Z 19003KT 1SM BR FEW004 FEW020 SCT075 05/04 A2951 RMK AO2 VIS 1/2V2 T00500044EQDD01      0ADE726
0230722247547852025010113387+40624-074669FM-16+0030KSMQ V0201905N002152200059N0048285N5+00615+00565999999ADDAU100001015AW1105GA1045+005495999GD12991+0054959GE19AGL   +99999+99999GF104995999999005491999999MA1099975099615REMMET08801/01/25 08:38:02 SPECI KSMQ 011338Z 19004KT 3SM BR SCT018 06/06 A2952 RMK AO2 T00610056EQDD01      0ADE726
0201722247547852025010113507+40624-074669FM-16+0030KSMQ V0202005N00215006105MN0080475N5+00705+00705999999ADDAU100001015AW1105GA1075+006105999GD13991+0061059GE19AGL   +99999+99999GF199999999999006101999999MA1099975099615REMMET07801/01/25 08:50:02 SPECI KSMQ 011350Z 20004KT 5SM BR BKN020 07/07 A2952 RMK AO2
0229722247547852025010113537+40624-074669FM-15+0030KSMQ V0209999V00155006105MN0080475N5+00675+00675099985ADDAA101000095AU100001015AW1105GA1075+006105999GD13991+0061059GE19AGL   +99999+99999GF199999999999006101999999MA1099975099615REMMET09501/01/25 08:53:02 METAR KSMQ 011353Z VRB03KT 5SM BR BKN020 07/07 A2952 RMK AO2 SLP998 T00670067
0230722247547852025010114537+40624-074669FM-15+0030KSMQ V0209999N99999006715MN0160935N5+00895+00615100035ADDAA101000095GA1085+006715999GD14991+0067159GE19AGL   +99999+99999GF199999999999006711999999MA1100035099685MD1190149+9999REMMET09901/01/25 09:53:02 METAR KSMQ 011453Z      KT 10SM OVC022 09/06 A2954 RMK AO2 SLP003 T00890061 51014
0279722247547852025010115457+40624-074669FM-16+0030KSMQ V0202705V00365015245MN0160935N5+00895+00395999999ADDGA1025+007625999GA2075+015245999GA3085+025915999GD11991+0076259GD23991+0152459GD34991+0259159GE19AGL   +99999+99999GF199999999999007621999999MA1100105099755OC101085REMMET10301/01/25 10:45:02 SPECI KSMQ 011545Z 27007G21KT 10SM FEW025 BKN050 OVC085 09/04 A2956 RMK AO2 T00890039
0259722247547852025010115537+40624-074669FM-15+0030KSMQ V0202905V00465015245MN0160935N5+00895+00335100105ADDAA101000095GA1025+007625999GA2085+015245999GD11991+0076259GD24991+0152459GE19AGL   +99999+99999GF199999999999007621999999MA1100105099755OC100935REMMET10301/01/25 10:53:02 METAR KSMQ 011553Z 29009G18KT 10SM FEW025 OVC050 09/03 A2956 RMK AO2 SLP010 T00890033
0259722247547852025010116537+40624-074669FM-15+0030KSMQ V0209999V00315021345MN0160935N5+00835+00285100075ADDAA101000095GA1045+010065999GA2085+021345999GD12991+0100659GD24991+0213459GE19AGL   +99999+99999GF199999999999010061999999MA1100075099715OC100885REMMET10301/01/25 11:53:02 METAR KSMQ 011653Z VRB06G17KT 10SM SCT033 OVC070 08/03 A2955 RMK AO2 SLP007 T00830028
0279722247547852025010117537+40624-074669FM-15+0030KSMQ V0202805V00465009755MN0160935N5+00725+00175100125ADDAA101000095GA1085+009755999GD14991+0097559GE19AGL   +99999+99999GF199999999999009751999999KA1060M+00941KA2060N+00441MA1100105099755MD1190089+9999OC101035REMMET11401/01/25 12:53:02 METAR KSMQ 011753Z 28009G20KT 10SM OVC032 07/02 A2956 RMK AO2 SLP012 T00720017 10094 20044 51008
0248722247547852025010118537+40624-074669FM-15+0030KSMQ V0202805N00315021345MN0160935N5+00725+00115100175ADDAA101000095GA1025+010065999GA2085+021345999GD11991+0100659GD24991+0213459GE19AGL   +99999+99999GF199999999999010061999999MA1100175099815REMMET10001/01/25 13:53:02 METAR KSMQ 011853Z 28006KT 10SM FEW033 OVC070 07/01 A2958 RMK AO2 SLP017 T00720011
0368722247547852025010119537+40624-074669FM-15+0030KSMQ V0202905N00625013115MN0160935N5+00725+00175100315ADDAA101000025AU110020015AW1615GA1025+010365999GA2075+013115999GA3085+024385999GD11991+0103659GD23991+0131159GD34991+0243859GE19AGL   +99999+99999GF199999999999010361999999MA1100305099955MW1615OC101295OD149901541290REMMET14401/01/25 14:53:02 METAR KSMQ 011953Z 29012G25KT 10SM -RA FEW034 BKN043 OVC080 07/02 A2962 RMK AO2 PK WND 29030/1937 RAB21 SLP031 P0000 T00720017
0359722247547852025010120537+40624-074669FM-15+0030KSMQ V0202905V00725016765MN0160935N5+00725+00005100425ADDAA101000025AA203000021GA1025+011285999GA2085+016765999GD11991+0112859GD24991+0167659GE19AGL   +99999+99999GF199999999999011281999999MA1100415100055MD1390309+9999OC101445OD149901751300REMMET14501/01/25 15:53:02 METAR KSMQ 012053Z 29014G28KT 10SM FEW037 OVC055 07/00 A2965 RMK AO2 PK WND 30034/2039 RAE20 SLP042 P0000 60000 T00720000 53030EQDQ01  00008PRCP03
0272722247547852025010121537+40624-074669FM-15+0030KSMQ V0202905V006252200059N0160935N5+00675+00005100495ADDAA101000095GA1025+015245999GD11991+0152459GE19AGL   +99999+99999GF102995999999015241999999MA1100475100125OC101395OD149901391300REMMET11401/01/25 16:53:02 METAR KSMQ 012153Z 29012G27KT 10SM FEW050 07/00 A2967 RMK AO2 PK WND 30027/2109 SLP049 T00670000EQDD01      0ADE726
0229722247547852025010122537+40624-074669FM-15+0030KSMQ V0202905V005152200059N0160935N5+00615-00065100555ADDAA101000095GA1005+999999999GD10991+9999999GF100991999999999999999999MA1100545100185OC101085OD149901391310REMMET11201/01/25 17:53:02 METAR KSMQ 012253Z 29010G21KT 10SM CLR 06/M01 A2969 RMK AO2 PK WND 31027/2155 SLP055 T00611006
0272722247547852025010123537+40624-074669FM-15+0030KSMQ V0202805V004152200059N0160935N5+00615-00175100615ADDAA101000095AA206000021GA1005+999999999GD10991+9999999GF100991999999999999999999KA1060M+00721KA2060N+00561MA1100615100255MD1190199+9999OC100935REMMET11801/01/25 18:53:02 METAR KSMQ 012353Z 28008G18KT 10SM CLR 06/M02 A2971 RMK AO2 SLP061 60000 T00611017 10072 20056 51019
0215722247547852025010200537+40624-074669FM-15+0030KSMQ V0202905N003652200059N0160935N5+00565-00285100705ADDAA101000095GA1005+999999999GD10991+9999999GF100991999999999999999999MA1100715100355OC101135REMMET11201/01/25 19:53:01 METAR KSMQ 020053Z 29007G22KT 10SM CLR 06/M03 A2974 RMK AO2 PK WND 30027/0010 SLP070 T00561028
0186722247547852025010201537+40624-074669FM-15+0030KSMQ V0209999N999992200059N0160935N5+00505-00335100765ADDAA101000095GA1005+999999999GD10991+9999999GF100991999999999999999999MA1100755100395REMMET09101/01/25 20:53:01 METAR KSMQ 020153Z      KT 10SM CLR 05/M03 A2975 RMK AO2 SLP076 T00501033
0206722247547852025010202537+40624-074669FM-15+0030KSMQ V0202805V003652200059N0160935N5+00445-00285100845ADDAA101000095GA1005+999999999GD10991+9999999GF100991999999999999999999MA1100855100495MD1190239+9999REMMET09701/01/25 21:53:01 METAR KSMQ 020253Z 28007KT 10SM CLR 04/M03 A2978 RMK AO2 SLP084 T00441028 51023
0186722247547852025010203537+40624-074669FM-15+0030KSMQ V0209999V003152200059N0160935N5+00395-00285100885ADDAA101000095GA1005+999999999GD10991+9999999GF100991999999999999999999MA1100885100525REMMET09101/01/25 22:53:02 METAR KSMQ 020353Z VRB06KT 10SM CLR 04/M03 A2979 RMK AO2 SLP088 T00391028
0222722247547852025010204537+40624-074669FM-15+0030KSMQ V0202805N003152200059N0160935N5+00335-00335100915ADDAA101000095GA1005+999999999GD10991+9999999GF100991999999999999999999KA1240M+00941KA2240N+00331MA1100915100565REMMET10101/01/25 23:53:02 METAR KSMQ 020453Z 28006KT 10SM CLR 03/M03 A2980 RMK AO2 SLP091 T00331033 400940033
0922722247547852025010204596+40624-074669SOD  +0030KSMQ V020999999999999999999999999999+99999+99999999999ADDAA124000025AT1AU16RA  5AT2AU01FG  5AT3AU13BR  5KA1240M+00945KA2240N+00335MG1099714099734OE11240174330015395OE22240080530016525OE33240026899999995REMSOD73024 HR PRECIPITATION (IN):T     24 HR MAX TEMP (F):49 24 HR MAX TEMP TIME (LST):1042 24 HR MIN TEMP (F):38 24 HR MIN TEMP TIME (LST):2359 AVERAGE STATION PRESSURE:29.445 MINIMUM SEA LEVEL PRESSURE:29.45 TIME OF OCCURRENCE:0127 PEAK WIND SPEED (MPH):39  PEAK WIND DIR (DEG):300 PEAK WIND TIME (LST):1539  FASTEST 2MIN SPEED (MPH):18 FASTEST 2MIN DIR (DEG):300 FASTEST 2MIN TIME (LST):1652 AVERAGE WIND SPEED (MPH):6.0  24 HR AVG TEMP (F):44 HEATING DEGREE DAYS:21  COOLING DEGREE DAYS:0   LATEST DAY MAX TEMP (0700-1900 LST):49  LATEST NIGHT MIN TEMP(1900-0800 LST):41 HOURLY INCREMENTAL PRECIPITATION VALUES (IN):.00 0.00 0.00 0.00 0.00 0.00 0.00 0.00 0.00 0.00 0.00 0.00 0.00 0.00 T    T    0.00 0.00 0.00 0.00 0.00 0.00 0.00 0.00EQDR01     N7GJS072R02     N7GKS075
0288722247547852025010205537+40624-074669FM-15+0030KSMQ V0202905N003152200059N0160935N5+00335-00285100935ADDAA101000095GA1025+016765999GD11991+0167659GE19AGL   +99999+99999GF102995999999016761999999KA1060M+00611KA2060N+00331MA1100915100565MD1190099+9999REMMET11201/02/25 00:53:02 METAR KSMQ 020553Z 29006KT 10SM FEW055 03/M03 A2980 RMK AO2 SLP093 T00331028 10061 20033 51009EQDD01      0ADE726
0249722247547852025010206537+40624-074669FM-15+0030KSMQ V0202705V00365019815MN0160935N5+00395-00225101015ADDAA101000095GA1045+014635999GA2085+019815999GD12991+0146359GD24991+0198159GE19AGL   +99999+99999GF199999999999014631999999MA1101025100665REMMET10101/02/25 01:53:02 METAR KSMQ 020653Z 27007KT 10SM SCT048 OVC065 04/M02 A2983 RMK AO2 SLP101 T00391022
0222722247547852025010207537+40624-074669FM-15+0030KSMQ V0202605V00465018295MN0160935N5+00395-00335101075ADDAA101000095GA1085+018295999GD14991+0182959GE19AGL   +99999+99999GF199999999999018291999999MA1101055100695OC100885REMMET09701/02/25 02:53:02 METAR KSMQ 020753Z 26009G17KT 10SM OVC060 04/M03 A2984 RMK AO2 SLP107 T00391033
0280722247547852025010208537+40624-074669FM-15+0030KSMQ V0202805V00575015245MN0160935N5+00335-00505101105ADDAA101000095GA1075+015245999GA2085+018295999GD13991+0152459GD24991+0182959GE19AGL   +99999+99999GF199999999999015241999999MA1101085100725MD1190169+9999OC101135REMMET11001/02/25 03:53:02 METAR KSMQ 020853Z 28011G22KT 10SM BKN050 OVC060 03/M05 A2985 RMK AO2 SLP110 T00331050 51016
0222722247547852025010209537+40624-074669FM-15+0030KSMQ V0202405V00365019815MN0160935N5+00285-00445101175ADDAA101000095GA1075+019815999GD13991+0198159GE19AGL   +99999+99999GF199999999999019811999999MA1101155100795OC100985REMMET09701/02/25 04:53:02 METAR KSMQ 020953Z 24007G19KT 10SM BKN065 03/M04 A2987 RMK AO2 SLP117 T00281044
0186722247547852025010210537+40624-074669FM-15+0030KSMQ V0209999N999992200059N0160935N5+00285-00565101255ADDAA101000095GA1005+999999999GD10991+9999999GF100991999999999999999999MA1101255100895REMMET09101/02/25 05:53:02 METAR KSMQ 021053Z      KT 10SM CLR 03/M06 A2990 RMK AO2 SLP125 T00281056
0244722247547852025010211537+40624-074669FM-15+0030KSMQ V0202805V003652200059N0160935N5+00225-00565101265ADDAA101000095GA1005+999999999GD10991+9999999GF100991999999999999999999KA1060M+00391KA2060N+00221MA1101255100895MD1190179+9999REMMET10901/02/25 06:53:02 METAR KSMQ 021153Z 28007KT 10SM CLR 02/M06 A2990 RMK AO2 SLP126 T00221056 10039 20022 51017
0186722247547852025010212537+40624-074669FM-15+0030KSMQ V0209999V003152200059N0160935N5+00225-00565101335ADDAA101000095GA1005+999999999GD10991+9999999GF100991999999999999999999MA1101325100965REMMET09101/02/25 07:53:02 METAR KSMQ 021253Z VRB06KT 10SM CLR 02/M06 A2992 RMK AO2 SLP133 T00221056
0197722247547852025010213537+40624-074669FM-15+0030KSMQ V0209999V002652200059N0160935N5+00335-00505101415ADDAA101000095GA1005+999999999GD10991+9999999GF100991999999999999999999MA1101395101035OC100825REMMET09401/02/25 08:53:02 METAR KSMQ 021353Z VRB05G16KT 10SM CLR 03/M05 A2994 RMK AO2 SLP141 T00331050
0261722247547852025010214537+40624-074669FM-15+0030KSMQ V0202505V004652200059N0160935N5+00505-00505101495ADDAA101000095GA1025+014635999GD11991+0146359GE19AGL   +99999+99999GF102995999999014631999999MA1101495101135MD1390239+9999OC100885REMMET10301/02/25 09:53:02 METAR KSMQ 021453Z 25009G17KT 10SM FEW048 05/M05 A2997 RMK AO2 SLP149 T00501050 53023EQDD01      0ADE726
0254722247547852025010215537+40624-074669FM-15+0030KSMQ V0202605V00515015245MN0160935N5+00505-00505101485ADDAA101000095GA1085+015245999GD14991+0152459GE19AGL   +99999+99999GF199999999999015241999999MA1101465101105OC101135OD149901441290REMMET11501/02/25 10:53:02 METAR KSMQ 021553Z 26010G22KT 10SM OVC050 05/M05 A2996 RMK AO2 PK WND 29028/1528 SLP148 T00501050
0254722247547852025010216537+40624-074669FM-15+0030KSMQ V0202905V00465016765MN0160935N5+00505-00615101415ADDAA101000095GA1085+016765999GD14991+0167659GE19AGL   +99999+99999GF199999999999016761999999MA1101395101035OC101655OD149901641300REMMET11501/02/25 11:53:02 METAR KSMQ 021653Z 29009G32KT 10SM OVC055 05/M06 A2994 RMK AO2 PK WND 30032/1647 SLP141 T00501061
0280722247547852025010217537+40624-074669FM-15+0030KSMQ V0202705V00515018295MN0160935N5+00505-00615101395ADDAA101000095GA1085+018295999GD14991+0182959GE19AGL   +99999+99999GF199999999999018291999999KA1060M+00611KA2060N+00221MA1101395101035MD1890109+9999OC101185REMMET11501/02/25 12:53:02 METAR KSMQ 021753Z 27010G23KT 10SM OVC060 05/M06 A2994 RMK AO2 SLP139 T00501061 10061 20022 58010
0254722247547852025010218537+40624-074669FM-15+0030KSMQ V0202805V00575018295MN0160935N5+00445-00675101405ADDAA101000095GA1085+018295999GD14991+0182959GE19AGL   +99999+99999GF199999999999018291999999MA1101395101035OC101185OD149901441280REMMET11501/02/25 13:53:02 METAR KSMQ 021853Z 28011G23KT 10SM OVC060 04/M07 A2994 RMK AO2 PK WND 28028/1835 SLP140 T00441067
0222722247547852025010219537+40624-074669FM-15+0030KSMQ V0203005N00365021345MN0160935N5+00395-00725101435ADDAA101000095GA1085+021345999GD14991+0213459GE19AGL   +99999+99999GF199999999999021341999999MA1101425101065OC100825REMMET09701/02/25 14:53:02 METAR KSMQ 021953Z 30007G16KT 10SM OVC070 04/M07 A2995 RMK AO2 SLP143 T00391072
0242722247547852025010220537+40624-074669FM-15+0030KSMQ V0209999V00315019815MN0160935N5+00335-00725101495ADDAA101000095GA1085+019815999GD14991+0198159GE19AGL   +99999+99999GF199999999999019811999999MA1101495101135MD1390109+9999OC101135REMMET10301/02/25 15:53:02 METAR KSMQ 022053Z VRB06G22KT 10SM OVC065 03/M07 A2997 RMK AO2 SLP149 T00331072 53010
0222722247547852025010221537+40624-074669FM-15+0030KSMQ V0202705V00515021345MN0160935N5+00285-00725101525ADDAA101000095GA1085+021345999GD14991+0213459GE19AGL   +99999+99999GF199999999999021341999999MA1101525101165OC101035REMMET09701/02/25 16:53:02 METAR KSMQ 022153Z 27010G20KT 10SM OVC070 03/M07 A2998 RMK AO2 SLP152 T00281072
0211722247547852025010222537+40624-074669FM-15+0030KSMQ V0209999V00215021345MN0160935N5+00285-00725101535ADDAA101000095GA1085+021345999GD14991+0213459GE19AGL   +99999+99999GF199999999999021341999999MA1101525101165REMMET09401/02/25 17:53:02 METAR KSMQ 022253Z VRB04KT 10SM OVC070 03/M07 A2998 RMK AO2 SLP153 T00281072
0280722247547852025010223537+40624-074669FM-15+0030KSMQ V0202505V00465019815MN0160935N5+00225-00785101575ADDAA101000095GA1085+019815999GD14991+0198159GE19AGL   +99999+99999GF199999999999019811999999KA1060M+00611KA2060N+00221MA1101565101205MD1290079+9999OC100825REMMET11501/02/25 18:53:02 METAR KSMQ 022353Z 25009G16KT 10SM OVC065 02/M08 A2999 RMK AO2 SLP157 T00221078 10061 20022 52007
0197722247547852025010300537+40624-074669FM-15+0030KSMQ V0202605V004152200059N0160935N5+00175-00785101615ADDAA101000095GA1005+999999999GD10991+9999999GF100991999999999999999999MA1101595101235OC101035REMMET09401/02/25 19:53:01 METAR KSMQ 030053Z 26008G20KT 10SM CLR 02/M08 A3000 RMK AO2 SLP161 T00171078
0262722247547852025010301537+40624-074669FM-15+0030KSMQ V0209999N999992200059N0160935N5+00115-00725101575ADDAA101000095GA1025+021345999GD11991+0213459GE19AGL   +99999+99999GF102995999999021341999999MA1101565101205OD149901331260REMMET11201/02/25 20:53:01 METAR KSMQ 030153Z      KT 10SM FEW070 01/M07 A2999 RMK AO2 PK WND 26026/0127 SLP157 T00111072EQDD01      0ADE726
0231722247547852025010302537+40624-074669FM-15+0030KSMQ V0209999V00265021345MN0160935N5+00065-00785101565ADDAA101000095GA1075+021345999GD13991+0213459GE19AGL   +99999+99999GF199999999999021341999999MA1101565101205MD1890019+9999REMMET10001/02/25 21:53:01 METAR KSMQ 030253Z VRB05KT 10SM BKN070 01/M08 A2999 RMK AO2 SLP156 T00061078 58001
0222722247547852025010303537+40624-074669FM-15+0030KSMQ V0202805V00465019815MN0160935N5+00115-00785101565ADDAA101000095GA1085+019815999GD14991+0198159GE19AGL   +99999+99999GF199999999999019811999999MA1101565101205OC100775REMMET09701/02/25 22:53:02 METAR KSMQ 030353Z 28009G15KT 10SM OVC065 01/M08 A2999 RMK AO2 SLP156 T00111078
0247722247547852025010304537+40624-074669FM-15+0030KSMQ V0202705V00365018295MN0160935N5+00115-00835101565ADDAA101000095GA1085+018295999GD14991+0182959GE19AGL   +99999+99999GF199999999999018291999999KA1240M+00611KA2240N+00061MA1101565101205REMMET10401/02/25 23:53:02 METAR KSMQ 030453Z 27007KT 10SM OVC060 01/M08 A2999 RMK AO2 SLP156 T00111083 400610006
0886722247547852025010304596+40624-074669SOD  +0030KSMQ V020999999999999999999999999999+99999+99999999999ADDAA124000095KA1240M+00615KA2240N+00065MG1100904100914OE11240165430011475OE22240093931011455OE33240040299999995REMSOD73024 HR PRECIPITATION (IN):0.00  24 HR MAX TEMP (F):43 24 HR MAX TEMP TIME (LST):1303 24 HR MIN TEMP (F):33 24 HR MIN TEMP TIME (LST):2157 AVERAGE STATION PRESSURE:29.795 MINIMUM SEA LEVEL PRESSURE:29.80 TIME OF OCCURRENCE:0107 PEAK WIND SPEED (MPH):37  PEAK WIND DIR (DEG):300 PEAK WIND TIME (LST):1147  FASTEST 2MIN SPEED (MPH):21 FASTEST 2MIN DIR (DEG):310 FASTEST 2MIN TIME (LST):1145 AVERAGE WIND SPEED (MPH):9.0  24 HR AVG TEMP (F):38 HEATING DEGREE DAYS:27  COOLING DEGREE DAYS:0   LATEST DAY MAX TEMP (0700-1900 LST):43  LATEST NIGHT MIN TEMP(1900-0800 LST):36 HOURLY INCREMENTAL PRECIPITATION VALUES (IN):.00 0.00 0.00 0.00 0.00 0.00 0.00 0.00 0.00 0.00 0.00 0.00 0.00 0.00 0.00 0.00 0.00 0.00 0.00 0.00 0.00 0.00 0.00 0.00EQDR01     N7GJS072R02     N7GKS075
0304722247547852025010305537+40624-074669FM-15+0030KSMQ V0202805N00365018295MN0160935N5+00115-00835101555ADDAA101000095GA1085+018295999GD14991+0182959GE19AGL   +99999+99999GF199999999999018291999999KA1060M+00221KA2060N+00061MA1101565101205MD1890009+9999REMMET11201/03/25 00:53:02 METAR KSMQ 030553Z 28007KT 10SM OVC060 01/M08 A2999 RMK AO2 SLP155 T00111083 10022 20006 58000EQDQ010     3APC3  Q028     3APCTEN
0211722247547852025010306537+40624-074669FM-15+0030KSMQ V0209999N99999018295MN0160935N5+00065-00785101575ADDAA101000095GA1075+018295999GD13991+0182959GE19AGL   +99999+99999GF199999999999018291999999MA1101565101205REMMET09401/03/25 01:53:02 METAR KSMQ 030653Z      KT 10SM BKN060 01/M08 A2999 RMK AO2 SLP157 T00061078
0211722247547852025010307537+40624-074669FM-15+0030KSMQ V0202705N00415018295MN0160935N5+00115-00725101585ADDAA101000095GA1085+018295999GD14991+0182959GE19AGL   +99999+99999GF199999999999018291999999MA1101565101205REMMET09401/03/25 02:53:02 METAR KSMQ 030753Z 27008KT 10SM OVC060 01/M07 A2999 RMK AO2 SLP158 T00111072
0231722247547852025010308537+40624-074669FM-15+0030KSMQ V0209999N99999016765MN0160935N5+00065-00725101565ADDAA101000095GA1085+016765999GD14991+0167659GE19AGL   +99999+99999GF199999999999016761999999MA1101565101205MD1090009+9999REMMET10001/03/25 03:53:02 METAR KSMQ 030853Z      KT 10SM OVC055 01/M07 A2999 RMK AO2 SLP156 T00061072 50000
0211722247547852025010309537+40624-074669FM-15+0030KSMQ V0209999N99999016765MN0160935N5+00115-00785101555ADDAA101000095GA1085+016765999GD14991+0167659GE19AGL   +99999+99999GF199999999999016761999999MA1101525101165REMMET09401/03/25 04:53:02 METAR KSMQ 030953Z      KT 10SM OVC055 01/M08 A2998 RMK AO2 SLP155 T00111078
0211722247547852025010310537+40624-074669FM-15+0030KSMQ V0209999V00215016765MN0160935N5+00065-00785101515ADDAA101000095GA1085+016765999GD14991+0167659GE19AGL   +99999+99999GF199999999999016761999999MA1101495101135REMMET09401/03/25 05:53:02 METAR KSMQ 031053Z VRB04KT 10SM OVC055 01/M08 A2997 RMK AO2 SLP151 T00061078
0244722247547852025010311537+40624-074669FM-15+0030KSMQ V0209999N999992200059N0160935N5+00005-00785101485ADDAA101000095GA1005+999999999GD10991+9999999GF100991999999999999999999KA1060M+00111KA2060N+00001MA1101465101105MD1890089+9999REMMET10901/03/25 06:53:02 METAR KSMQ 031153Z      KT 10SM CLR 00/M08 A2996 RMK AO2 SLP148 T00001078 10011 20000 58008
0186722247547852025010312537+40624-074669FM-15+0030KSMQ V0202805V003652200059N0160935N5+00005-00785101435ADDAA101000095GA1005+999999999GD10991+9999999GF100991999999999999999999MA1101425101065REMMET09101/03/25 07:53:02 METAR KSMQ 031253Z 28007KT 10SM CLR 00/M08 A2995 RMK AO2 SLP143 T00001078
0197722247547852025010313537+40624-074669FM-15+0030KSMQ V0202805N004152200059N0160935N5+00115-00785101425ADDAA101000095GA1005+999999999GD10991+9999999GF100991999999999999999999MA1101395101035OC100885REMMET09401/03/25 08:53:02 METAR KSMQ 031353Z 28008G17KT 10SM CLR 01/M08 A2994 RMK AO2 SLP142 T00111078
0206722247547852025010314537+40624-074669FM-15+0030KSMQ V0202505V003652200059N0160935N5+00225-00785101395ADDAA101000095GA1005+999999999GD10991+9999999GF100991999999999999999999MA1101355100995MD1690099+9999REMMET09701/03/25 09:53:02 METAR KSMQ 031453Z 25007KT 10SM CLR 02/M08 A2993 RMK AO2 SLP139 T00221078 56009
0186722247547852025010315537+40624-074669FM-15+0030KSMQ V0209999N999992200059N0160935N5+00285-00725101305ADDAA101000095GA1005+999999999GD10991+9999999GF100991999999999999999999MA1101295100935REMMET09101/03/25 10:53:02 METAR KSMQ 031553Z      KT 10SM CLR 03/M07 A2991 RMK AO2 SLP130 T00281072
0230722247547852025010316537+40624-074669FM-15+0030KSMQ V0209999V003152200059N0160935N5+00285-00725101145ADDAA101000095GA1025+013725999GD11991+0137259GE19AGL   +99999+99999GF102995999999013721999999MA1101125100765REMMET09401/03/25 11:53:02 METAR KSMQ 031653Z VRB06KT 10SM FEW045 03/M07 A2986 RMK AO2 SLP114 T00281072EQDD01      0ADE726
0288722247547852025010317537+40624-074669FM-15+0030KSMQ V0209999N999992200059N0160935N5+00335-00725101015ADDAA101000095GA1025+014945999GD11991+0149459GE19AGL   +99999+99999GF102995999999014941999999KA1060M+00331KA2060N+00001MA1100985100625MD1890389+9999REMMET11201/03/25 12:53:02 METAR KSMQ 031753Z      KT 10SM FEW049 03/M07 A2982 RMK AO2 SLP101 T00331072 10033 20000 58038EQDD01      0ADE726
0211722247547852025010318537+40624-074669FM-15+0030KSMQ V0202505V00365014945MN0160935N5+00395-00725100925ADDAA101000095GA1075+014945999GD13991+0149459GE19AGL   +99999+99999GF199999999999014941999999MA1100915100565REMMET09401/03/25 13:53:02 METAR KSMQ 031853Z 25007KT 10SM BKN049 04/M07 A2980 RMK AO2 SLP092 T00391072
0260722247547852025010319537+40624-074669FM-15+0030KSMQ V0202405N00465016765MN0160935N5+00335-00725100915ADDAA101000095GA1075+016765999GA2085+021345999GD13991+0167659GD24991+0213459GE19AGL   +99999+99999GF199999999999016761999999MA1100885100525OC100775REMMET10401/03/25 14:53:02 METAR KSMQ 031953Z 24009G15KT 10SM BKN055 OVC070 03/M07 A2979 RMK AO2 SLP091 T00331072
0269722247547852025010320537+40624-074669FM-15+0030KSMQ V0202905N00265014635MN0160935N5+00225-00615100935ADDAA101000095GA1075+014635999GA2085+018295999GD13991+0146359GD24991+0182959GE19AGL   +99999+99999GF199999999999014631999999MA1100915100565MD1590089+9999REMMET10701/03/25 15:53:02 METAR KSMQ 032053Z 29005KT 10SM BKN048 OVC060 02/M06 A2980 RMK AO2 SLP093 T00221061 55008
0222722247547852025010321537+40624-074669FM-15+0030KSMQ V0202905N00315014025MN0160935N5+00065-00505100975ADDAA101000095GA1085+014025999GD14991+0140259GE19AGL   +99999+99999GF199999999999014021999999MA1100955100595OC100985REMMET09701/03/25 16:53:02 METAR KSMQ 032153Z 29006G19KT 10SM OVC046 01/M05 A2981 RMK AO2 SLP097 T00061050
0211722247547852025010322537+40624-074669FM-15+0030KSMQ V0202805N00215024385MN0160935N5+00005-00505100985ADDAA101000095GA1085+024385999GD14991+0243859GE19AGL   +99999+99999GF199999999999024381999999MA1100955100595REMMET09401/03/25 17:53:02 METAR KSMQ 032253Z 28004KT 10SM OVC080 00/M05 A2981 RMK AO2 SLP098 T00001050
0245722247547852025010323537+40624-074669FM-15+0030KSMQ V0209999C000052200059N0160935N5-00115-00565100945ADDAA101000095GA1005+999999999GD10991+9999999GF100991999999999999999999KA1060M+00441KA2060N-00111MA1100915100565MD1090019+9999REMMET11001/03/25 18:53:02 METAR KSMQ 032353Z 00000KT 10SM CLR M01/M06 A2980 RMK AO2 SLP094 T10111056 10044 21011 50001
0231722247547852025010400537+40624-074669FM-15+0030KSMQ V0209999C000052200059N0160935N5-00175-00565100935ADDAA101000095GA1045+036585999GD12991+0365859GE19AGL   +99999+99999GF104995999999036581999999MA1100915100565REMMET09501/03/25 19:53:01 METAR KSMQ 040053Z 00000KT 10SM SCT120 M02/M06 A2980 RMK AO2 SLP093 T10171056EQDD01      0ADE726
0187722247547852025010401537+40624-074669FM-15+0030KSMQ V0209999C000052200059N0160935N5-00335-00565100935ADDAA101000095GA1005+999999999GD10991+9999999GF100991999999999999999999MA1100915100565REMMET09201/03/25 20:53:01 METAR KSMQ 040153Z 00000KT 10SM CLR M03/M06 A2980 RMK AO2 SLP093 T10331056
0251722247547852025010402537+40624-074669FM-15+0030KSMQ V0209999C000052200059N0160935N5-00445-00615100895ADDAA101000095GA1045+033535999GD12991+0335359GE19AGL   +99999+99999GF104995999999033531999999MA1100885100525MD1890069+9999REMMET10101/03/25 21:53:01 METAR KSMQ 040253Z 00000KT 10SM SCT110 M04/M06 A2979 RMK AO2 SLP089 T10441061 58006EQDD01      0ADE726
0187722247547852025010403537+40624-074669FM-15+0030KSMQ V0209999V001552200059N0160935N5-00225-00565100895ADDAA101000095GA1005+999999999GD10991+9999999GF100991999999999999999999MA1100885100525REMMET09201/03/25 22:53:02 METAR KSMQ 040353Z VRB03KT 10SM CLR M02/M06 A2979 RMK AO2 SLP089 T10221056
0223722247547852025010404537+40624-074669FM-15+0030KSMQ V0209999V001552200059N0160935N5-00225-00675100865ADDAA101000095GA1005+999999999GD10991+9999999GF100991999999999999999999KA1240M+00441KA2240N-00501MA1100855100495REMMET10201/03/25 23:53:02 METAR KSMQ 040453Z VRB03KT 10SM CLR M02/M07 A2978 RMK AO2 SLP086 T10221067 400441050
0886722247547852025010404596+40624-074669SOD  +0030KSMQ V020999999999999999999999999999+99999+99999999999ADDAA124000095KA1240M+00445KA2240N-00495MG1100854100854OE11240107329001175OE22240053629016485OE33240024199999995REMSOD73024 HR PRECIPITATION (IN):0.00  24 HR MAX TEMP (F):40 24 HR MAX TEMP TIME (LST):1344 24 HR MIN TEMP (F):23 24 HR MIN TEMP TIME (LST):2152 AVERAGE STATION PRESSURE:29.780 MINIMUM SEA LEVEL PRESSURE:29.78 TIME OF OCCURRENCE:2359 PEAK WIND SPEED (MPH):24  PEAK WIND DIR (DEG):290 PEAK WIND TIME (LST):0117  FASTEST 2MIN SPEED (MPH):12 FASTEST 2MIN DIR (DEG):290 FASTEST 2MIN TIME (LST):1648 AVERAGE WIND SPEED (MPH):5.4  24 HR AVG TEMP (F):32 HEATING DEGREE DAYS:33  COOLING DEGREE DAYS:0   LATEST DAY MAX TEMP (0700-1900 LST):40  LATEST NIGHT MIN TEMP(1900-0800 LST):32 HOURLY INCREMENTAL PRECIPITATION VALUES (IN):.00 0.00 0.00 0.00 0.00 0.00 0.00 0.00 0.00 0.00 0.00 0.00 0.00 0.00 0.00 0.00 0.00 0.00 0.00 0.00 0.00 0.00 0.00 0.00EQDR01     N7GJS072R02     N7GKS075
0289722247547852025010405537+40624-074669FM-15+0030KSMQ V0202905N002652200059N0160935N5-00175-00785100835ADDAA101000095GA1025+016765999GD11991+0167659GE19AGL   +99999+99999GF102995999999016761999999KA1060M-00111KA2060N-00501MA1100815100455MD1890059+9999REMMET11301/04/25 00:53:02 METAR KSMQ 040553Z 29005KT 10SM FEW055 M02/M08 A2977 RMK AO2 SLP083 T10171078 11011 21050 58005EQDD01      0ADE726
0212722247547852025010406537+40624-074669FM-15+0030KSMQ V0202905V00365019815MN0160935N5-00115-00785100845ADDAA101000095GA1085+019815999GD14991+0198159GE19AGL   +99999+99999GF199999999999019811999999MA1100815100455REMMET09501/04/25 01:53:02 METAR KSMQ 040653Z 29007KT 10SM OVC065 M01/M08 A2977 RMK AO2 SLP084 T10111078
0223722247547852025010407537+40624-074669FM-15+0030KSMQ V0202905V00365016765MN0160935N5-00115-00835100895ADDAA101000095GA1075+016765999GD13991+0167659GE19AGL   +99999+99999GF199999999999016761999999MA1100885100525OC100885REMMET09801/04/25 02:53:02 METAR KSMQ 040753Z 29007G17KT 10SM BKN055 M01/M08 A2979 RMK AO2 SLP089 T10111083
0218722247547852025010408537+40624-074669FM-15+0030KSMQ V0203105N005152200059N0160935N5-00115-01005100965ADDAA101000095GA1005+999999999GD10991+9999999GF100991999999999999999999MA1100955100595MD1390139+9999OC101135REMMET10101/04/25 03:53:02 METAR KSMQ 040853Z 31010G22KT 10SM CLR M01/M10 A2981 RMK AO2 SLP096 T10111100 53013
0212722247547852025010409537+40624-074669FM-15+0030KSMQ V0209999V00315018295MN0160935N5-00175-00895101005ADDAA101000095GA1075+018295999GD13991+0182959GE19AGL   +99999+99999GF199999999999018291999999MA1100985100625REMMET09501/04/25 04:53:02 METAR KSMQ 040953Z VRB06KT 10SM BKN060 M02/M09 A2982 RMK AO2 SLP100 T10171089
0212722247547852025010410537+40624-074669FM-15+0030KSMQ V0209999N99999018295MN0160935N5-00065-00945101065ADDAA101000095GA1085+018295999GD14991+0182959GE19AGL   +99999+99999GF199999999999018291999999MA1101055100695REMMET09501/04/25 05:53:02 METAR KSMQ 041053Z      KT 10SM OVC060 M01/M09 A2984 RMK AO2 SLP106 T10061094
0319722247547852025010411537+40624-074669FM-15+0030KSMQ V0209999V00265018295MN0160935N5-00115-00895101135ADDAA101000095GA1025+014945999GA2085+018295999GD11991+0149459GD24991+0182959GE19AGL   +99999+99999GF199999999999014941999999KA1060M-00061KA2060N-00171MA1101125100765MD1390169+9999OC100775REMMET12301/04/25 06:53:02 METAR KSMQ 041153Z VRB05G15KT 10SM FEW049 OVC060 M01/M09 A2986 RMK AO2 SLP113 T10111089 11006 21017 53016
0231722247547852025010412537+40624-074669FM-15+0030KSMQ V0202805N003652200059N0160935N5-00175-00785101165ADDAA101000095GA1045+018295999GD12991+0182959GE19AGL   +99999+99999GF104995999999018291999999MA1101155100795REMMET09501/04/25 07:53:02 METAR KSMQ 041253Z 28007KT 10SM SCT060 M02/M08 A2987 RMK AO2 SLP116 T10171078EQDD01      0ADE726
0231722247547852025010413537+40624-074669FM-15+0030KSMQ V0209999V003152200059N0160935N5-00065-00835101235ADDAA101000095GA1045+018295999GD12991+0182959GE19AGL   +99999+99999GF104995999999018291999999MA1101225100865REMMET09501/04/25 08:53:02 METAR KSMQ 041353Z VRB06KT 10SM SCT060 M01/M08 A2989 RMK AO2 SLP123 T10061083EQDD01      0ADE726
0300722247547852025010414537+40624-074669FM-15+0030KSMQ V0202905V004652200059N0160935N5-00065-00945101315ADDAA101000095GA1045+013415999GA2045+018295999GD12991+0134159GD22991+0182959GE19AGL   +99999+99999GF104995999999013411999999MA1101295100935MD1390189+9999OC100985REMMET11101/04/25 09:53:02 METAR KSMQ 041453Z 29009G19KT 10SM SCT044 SCT060 M01/M09 A2991 RMK AO2 SLP131 T10061094 53018EQDD01      0ADE726
0255722247547852025010415537+40624-074669FM-15+0030KSMQ V0203005N00935018295MN0160935N5-00065-01115101305ADDAA101000095GA1085+018295999GD14991+0182959GE19AGL   +99999+99999GF199999999999018291999999MA1101295100935OC101605OD149901591300REMMET11601/04/25 10:53:02 METAR KSMQ 041553Z 30018G31KT 10SM OVC060 M01/M11 A2991 RMK AO2 PK WND 30031/1553 SLP130 T10061111
0254722247547852025010416537+40624-074669FM-15+0030KSMQ V0202905N00465018295MN0160935N5+00065-01225101225ADDAA101000095GA1085+018295999GD14991+0182959GE19AGL   +99999+99999GF199999999999018291999999MA1101225100865OC101245OD149901491300REMMET11501/04/25 11:53:02 METAR KSMQ 041653Z 29009G24KT 10SM OVC060 01/M12 A2989 RMK AO2 PK WND 30029/1640 SLP122 T00061122
0312722247547852025010417537+40624-074669FM-15+0030KSMQ V0202905V00515018295MN0160935N5+00005-01175101175ADDAA101000095GA1085+018295999GD14991+0182959GE19AGL   +99999+99999GF199999999999018291999999KA1060M+00111KA2060N-00171MA1101155100795MD1890149+9999OC101345OD149901331300REMMET13301/04/25 12:53:02 METAR KSMQ 041753Z 29010G26KT 10SM OVC060 00/M12 A2987 RMK AO2 PK WND 30026/1724 SLP117 T00001117 10011 21017 58014
0254722247547852025010418537+40624-074669FM-15+0030KSMQ V0202905N00625018295MN0160935N5+00065-01175101195ADDAA101000095GA1085+018295999GD14991+0182959GE19AGL   +99999+99999GF199999999999018291999999MA1101195100835OC101185OD149901391290REMMET11501/04/25 13:53:02 METAR KSMQ 041853Z 29012G23KT 10SM OVC060 01/M12 A2988 RMK AO2 PK WND 29027/1830 SLP119 T00061117
0222722247547852025010419537+40624-074669FM-15+0030KSMQ V0202905V00515021345MN0160935N5+00005-01225101245ADDAA101000095GA1085+021345999GD14991+0213459GE19AGL   +99999+99999GF199999999999021341999999MA1101225100865OC100935REMMET09701/04/25 14:53:02 METAR KSMQ 041953Z 29010G18KT 10SM OVC070 00/M12 A2989 RMK AO2 SLP124 T00001122
0275722247547852025010420537+40624-074669FM-15+0030KSMQ V0202905V00575019815MN0160935N5-00065-01225101325ADDAA101000095GA1085+019815999GD14991+0198159GE19AGL   +99999+99999GF199999999999019811999999MA1101295100935MD1390159+9999OC101135OD149901491250REMMET12201/04/25 15:53:02 METAR KSMQ 042053Z 29011G22KT 10SM OVC065 M01/M12 A2991 RMK AO2 PK WND 25029/2017 SLP132 T10061122 53015
0255722247547852025010421537+40624-074669FM-15+0030KSMQ V0203005V00625019815MN0160935N5-00115-01285101405ADDAA101000095GA1085+019815999GD14991+0198159GE19AGL   +99999+99999GF199999999999019811999999MA1101395101035OC101185OD149901331290REMMET11601/04/25 16:53:02 METAR KSMQ 042153Z 30012G23KT 10SM OVC065 M01/M13 A2994 RMK AO2 PK WND 29026/2054 SLP140 T10111128
0223722247547852025010422537+40624-074669FM-15+0030KSMQ V0202905N00625019815MN0160935N5-00115-01335101465ADDAA101000095GA1075+019815999GD13991+0198159GE19AGL   +99999+99999GF199999999999019811999999MA1101425101065OC101135REMMET09801/04/25 17:53:02 METAR KSMQ 042253Z 29012G22KT 10SM BKN065 M01/M13 A2995 RMK AO2 SLP146 T10111133
0313722247547852025010423537+40624-074669FM-15+0030KSMQ V0202905V00725019815MN0160935N5-00115-01395101475ADDAA101000095GA1085+019815999GD14991+0198159GE19AGL   +99999+99999GF199999999999019811999999KA1060M+00111KA2060N-00111MA1101465101105MD1190159+9999OC101445OD149901441300REMMET13401/04/25 18:53:02 METAR KSMQ 042353Z 29014G28KT 10SM OVC065 M01/M14 A2996 RMK AO2 PK WND 30028/2301 SLP147 T10111139 10011 21011 51015
0187722247547852025010500537+40624-074669FM-15+0030KSMQ V0209999V002652200059N0160935N5-00175-01285101495ADDAA101000095GA1005+999999999GD10991+9999999GF100991999999999999999999MA1101465101105REMMET09201/04/25 19:53:01 METAR KSMQ 050053Z VRB05KT 10SM CLR M02/M13 A2996 RMK AO2 SLP149 T10171128
0223722247547852025010501537+40624-074669FM-15+0030KSMQ V0202905N00365018295MN0160935N5-00175-01225101545ADDAA101000095GA1085+018295999GD14991+0182959GE19AGL   +99999+99999GF199999999999018291999999MA1101525101165OC101035REMMET09801/04/25 20:53:01 METAR KSMQ 050153Z 29007G20KT 10SM OVC060 M02/M12 A2998 RMK AO2 SLP154 T10171122
0243722247547852025010502537+40624-074669FM-15+0030KSMQ V0202705V00415018295MN0160935N5-00225-01285101565ADDAA101000095GA1085+018295999GD14991+0182959GE19AGL   +99999+99999GF199999999999018291999999MA1101525101165MD1190099+9999OC100825REMMET10401/04/25 21:53:01 METAR KSMQ 050253Z 27008G16KT 10SM OVC060 M02/M13 A2998 RMK AO2 SLP156 T10221128 51009
0212722247547852025010503537+40624-074669FM-15+0030KSMQ V0209999V00155019815MN0160935N5-00285-01285101585ADDAA101000095GA1085+019815999GD14991+0198159GE19AGL   +99999+99999GF199999999999019811999999MA1101565101205REMMET09501/04/25 22:53:02 METAR KSMQ 050353Z VRB03KT 10SM OVC065 M03/M13 A2999 RMK AO2 SLP158 T10281128
0259722247547852025010504537+40624-074669FM-15+0030KSMQ V0209999V00315016765MN0160935N5-00285-01175101595ADDAA101000095GA1085+016765999GD14991+0167659GE19AGL   +99999+99999GF199999999999016761999999KA1240M+00111KA2240N-00281MA1101565101205OC100885REMMET10801/04/25 23:53:02 METAR KSMQ 050453Z VRB06G17KT 10SM OVC055 M03/M12 A2999 RMK AO2 SLP159 T10281117 400111028
0886722247547852025010504596+40624-074669SOD  +0030KSMQ V020999999999999999999999999999+99999+99999999999ADDAA124000095KA1240M+00115KA2240N-00275MG1100754100814OE11240160930010535OE22240093930010545OE33240044799999995REMSOD73024 HR PRECIPITATION (IN):0.00  24 HR MAX TEMP (F):34 24 HR MAX TEMP TIME (LST):1340 24 HR MIN TEMP (F):27 24 HR MIN TEMP TIME (LST):2359 AVERAGE STATION PRESSURE:29.750 MINIMUM SEA LEVEL PRESSURE:29.77 TIME OF OCCURRENCE:0114 PEAK WIND SPEED (MPH):36  PEAK WIND DIR (DEG):300 PEAK WIND TIME (LST):1053  FASTEST 2MIN SPEED (MPH):21 FASTEST 2MIN DIR (DEG):300 FASTEST 2MIN TIME (LST):1054 AVERAGE WIND SPEED (MPH):10.0 24 HR AVG TEMP (F):31 HEATING DEGREE DAYS:34  COOLING DEGREE DAYS:0   LATEST DAY MAX TEMP (0700-1900 LST):34  LATEST NIGHT MIN TEMP(1900-0800 LST):23 HOURLY INCREMENTAL PRECIPITATION VALUES (IN):.00 0.00 0.00 0.00 0.00 0.00 0.00 0.00 0.00 0.00 0.00 0.00 0.00 0.00 0.00 0.00 0.00 0.00 0.00 0.00 0.00 0.00 0.00 0.00EQDR01     N7GJS072R02     N7GKS075
0270722247547852025010505537+40624-074669FM-15+0030KSMQ V0209999N99999015245MN0160935N5-00285-01175101615ADDAA101000095GA1085+015245999GD14991+0152459GE19AGL   +99999+99999GF199999999999015241999999KA1060M-00111KA2060N-00281MA1101595101235MD1390059+9999REMMET11301/05/25 00:53:02 METAR KSMQ 050553Z      KT 10SM OVC050 M03/M12 A3000 RMK AO2 SLP161 T10281117 11011 21028 53005
0223722247547852025010506537+40624-074669FM-15+0030KSMQ V0202805N00465015245MN0160935N5-00285-01175101635ADDAA101000095GA1085+015245999GD14991+0152459GE19AGL   +99999+99999GF199999999999015241999999MA1101595101235OC100825REMMET09801/05/25 01:53:02 METAR KSMQ 050653Z 28009G16KT 10SM OVC050 M03/M12 A3000 RMK AO2 SLP163 T10281117
0223722247547852025010507537+40624-074669FM-15+0030KSMQ V0209999V00315014945MN0160935N5-00285-01115101645ADDAA101000095GA1085+014945999GD14991+0149459GE19AGL   +99999+99999GF199999999999014941999999MA1101635101265OC100775REMMET09801/05/25 02:53:02 METAR KSMQ 050753Z VRB06G15KT 10SM OVC049 M03/M11 A3001 RMK AO2 SLP164 T10281111
0232722247547852025010508537+40624-074669FM-15+0030KSMQ V0209999N99999014635MN0160935N5-00285-01065101635ADDAA101000095GA1085+014635999GD14991+0146359GE19AGL   +99999+99999GF199999999999014631999999MA1101595101235MD1090019+9999REMMET10101/05/25 03:53:02 METAR KSMQ 050853Z      KT 10SM OVC048 M03/M11 A3000 RMK AO2 SLP163 T10281106 50001
0212722247547852025010509537+40624-074669FM-15+0030KSMQ V0209999C00005015245MN0160935N5-00335-01115101655ADDAA101000095GA1075+015245999GD13991+0152459GE19AGL   +99999+99999GF199999999999015241999999MA1101635101265REMMET09501/05/25 04:53:02 METAR KSMQ 050953Z 00000KT 10SM BKN050 M03/M11 A3001 RMK AO2 SLP165 T10331111
0212722247547852025010510537+40624-074669FM-15+0030KSMQ V0209999V00315015245MN0160935N5-00285-01115101695ADDAA101000095GA1085+015245999GD14991+0152459GE19AGL   +99999+99999GF199999999999015241999999MA1101665101305REMMET09501/05/25 05:53:02 METAR KSMQ 051053Z VRB06KT 10SM OVC050 M03/M11 A3002 RMK AO2 SLP169 T10281111
0270722247547852025010511537+40624-074669FM-15+0030KSMQ V0209999V00155015245MN0160935N5-00285-01115101735ADDAA101000095GA1085+015245999GD14991+0152459GE19AGL   +99999+99999GF199999999999015241999999KA1060M-00281KA2060N-00331MA1101695101335MD1390109+9999REMMET11301/05/25 06:53:02 METAR KSMQ 051153Z VRB03KT 10SM OVC050 M03/M11 A3003 RMK AO2 SLP173 T10281111 11028 21033 53010
0212722247547852025010512537+40624-074669FM-15+0030KSMQ V0209999N99999015245MN0160935N5-00285-01115101745ADDAA101000095GA1085+015245999GD14991+0152459GE19AGL   +99999+99999GF199999999999015241999999MA1101735101375REMMET09501/05/25 07:53:02 METAR KSMQ 051253Z      KT 10SM OVC050 M03/M11 A3004 RMK AO2 SLP174 T10281111
0212722247547852025010513537+40624-074669FM-15+0030KSMQ V0209999N99999015245MN0160935N5-00285-01115101785ADDAA101000095GA1085+015245999GD14991+0152459GE19AGL   +99999+99999GF199999999999015241999999MA1101765101405REMMET09501/05/25 08:53:02 METAR KSMQ 051353Z      KT 10SM OVC050 M03/M11 A3005 RMK AO2 SLP178 T10281111
0243722247547852025010514537+40624-074669FM-15+0030KSMQ V0202505N00465015245MN0160935N5-00115-01115101835ADDAA101000095GA1085+015245999GD14991+0152459GE19AGL   +99999+99999GF199999999999015241999999MA1101795101435MD1390109+9999OC101135REMMET10401/05/25 09:53:02 METAR KSMQ 051453Z 25009G22KT 10SM OVC050 M01/M11 A3006 RMK AO2 SLP183 T10111111 53010
0223722247547852025010515537+40624-074669FM-15+0030KSMQ V0202905V00415014635MN0160935N5-00065-01115101795ADDAA101000095GA1085+014635999GD14991+0146359GE19AGL   +99999+99999GF199999999999014631999999MA1101765101405OC100985REMMET09801/05/25 10:53:02 METAR KSMQ 051553Z 29008G19KT 10SM OVC048 M01/M11 A3005 RMK AO2 SLP179 T10061111
0223722247547852025010516537+40624-074669FM-15+0030KSMQ V0202905N00575014635MN0160935N5-00065-01115101685ADDAA101000095GA1075+014635999GD13991+0146359GE19AGL   +99999+99999GF199999999999014631999999MA1101665101305OC101295REMMET09801/05/25 11:53:02 METAR KSMQ 051653Z 29011G25KT 10SM BKN048 M01/M11 A3002 RMK AO2 SLP168 T10061111
0280722247547852025010517537+40624-074669FM-15+0030KSMQ V0202705V00575015245MN0160935N5+00005-01115101655ADDAA101000095GA1075+015245999GD13991+0152459GE19AGL   +99999+99999GF199999999999015241999999KA1060M+00061KA2060N-00331MA1101635101265MD1690189+9999OC101135REMMET11501/05/25 12:53:02 METAR KSMQ 051753Z 27011G22KT 10SM BKN050 00/M11 A3001 RMK AO2 SLP165 T00001111 10006 21033 56018
0222722247547852025010518537+40624-074669FM-15+0030KSMQ V0202805N00415015245MN0160935N5+00005-01115101685ADDAA101000095GA1085+015245999GD14991+0152459GE19AGL   +99999+99999GF199999999999015241999999MA1101665101305OC100935REMMET09701/05/25 13:53:02 METAR KSMQ 051853Z 28008G18KT 10SM OVC050 00/M11 A3002 RMK AO2 SLP168 T00001111
0241722247547852025010519537+40624-074669FM-15+0030KSMQ V0202905N005152200059N0160935N5+00065-01115101675ADDAA101000095GA1025+015245999GD11991+0152459GE19AGL   +99999+99999GF102995999999015241999999MA1101665101305OC101135REMMET09701/05/25 14:53:02 METAR KSMQ 051953Z 29010G22KT 10SM FEW050 01/M11 A3002 RMK AO2 SLP167 T00061111EQDD01      0ADE726
0217722247547852025010520537+40624-074669FM-15+0030KSMQ V0202905N003152200059N0160935N5+00005-01115101715ADDAA101000095GA1005+999999999GD10991+9999999GF100991999999999999999999MA1101695101335MD1390079+9999OC100775REMMET10001/05/25 15:53:02 METAR KSMQ 052053Z 29006G15KT 10SM CLR 00/M11 A3003 RMK AO2 SLP171 T00001111 53007
0187722247547852025010521537+40624-074669FM-15+0030KSMQ V0202605N002152200059N0160935N5-00115-01115101745ADDAA101000095GA1005+999999999GD10991+9999999GF100991999999999999999999MA1101735101375REMMET09201/05/25 16:53:02 METAR KSMQ 052153Z 26004KT 10SM CLR M01/M11 A3004 RMK AO2 SLP174 T10111111
0187722247547852025010522537+40624-074669FM-15+0030KSMQ V0202805N001552200059N0160935N5-00175-01115101835ADDAA101000095GA1005+999999999GD10991+9999999GF100991999999999999999999MA1101795101435REMMET09201/05/25 17:53:02 METAR KSMQ 052253Z 28003KT 10SM CLR M02/M11 A3006 RMK AO2 SLP183 T10171111
0245722247547852025010523537+40624-074669FM-15+0030KSMQ V0209999C000052200059N0160935N5-00395-01115101825ADDAA101000095GA1005+999999999GD10991+9999999GF100991999999999999999999KA1060M+00111KA2060N-00391MA1101795101435MD1190119+9999REMMET11001/05/25 18:53:02 METAR KSMQ 052353Z 00000KT 10SM CLR M04/M11 A3006 RMK AO2 SLP182 T10391111 10011 21039 51011
0187722247547852025010600537+40624-074669FM-15+0030KSMQ V0202805N001552200059N0160935N5-00395-01005101835ADDAA101000095GA1005+999999999GD10991+9999999GF100991999999999999999999MA1101835101475REMMET09201/05/25 19:53:01 METAR KSMQ 060053Z 28003KT 10SM CLR M04/M10 A3007 RMK AO2 SLP183 T10391100
0187722247547852025010601537+40624-074669FM-15+0030KSMQ V0209999V001552200059N0160935N5-00335-01065101825ADDAA101000095GA1005+999999999GD10991+9999999GF100991999999999999999999MA1101795101435REMMET09201/05/25 20:53:01 METAR KSMQ 060153Z VRB03KT 10SM CLR M03/M11 A3006 RMK AO2 SLP182 T10331106
0207722247547852025010602537+40624-074669FM-15+0030KSMQ V0209999V001552200059N0160935N5-00335-01005101795ADDAA101000095GA1005+999999999GD10991+9999999GF100991999999999999999999MA1101765101405MD1890049+9999REMMET09801/05/25 21:53:01 METAR KSMQ 060253Z VRB03KT 10SM CLR M03/M10 A3005 RMK AO2 SLP179 T10331100 58004
0187722247547852025010603537+40624-074669FM-15+0030KSMQ V0209999V001552200059N0160935N5-00335-01005101815ADDAA101000095GA1005+999999999GD10991+9999999GF100991999999999999999999MA1101795101435REMMET09201/05/25 22:53:02 METAR KSMQ 060353Z VRB03KT 10SM CLR M03/M10 A3006 RMK AO2 SLP181 T10331100
0223722247547852025010604537+40624-074669FM-15+0030KSMQ V0209999V001552200059N0160935N5-00285-01005101805ADDAA101000095GA1005+999999999GD10991+9999999GF100991999999999999999999KA1240M+00111KA2240N-00561MA1101795101435REMMET10201/05/25 23:53:02 METAR KSMQ 060453Z VRB03KT 10SM CLR M03/M10 A3006 RMK AO2 SLP180 T10281100 400111056
0902722247547852025010604596+40624-074669SOD  +0030KSMQ V020999999999999999999999999999+99999+99999999999ADDAA124000095KA1240M+00115KA2240N-00555MG1101304101564OE11240125230011516OE22240080530011575OE33240028299999995REMSOD73024 HR PRECIPITATION (IN):0.00  24 HR MAX TEMP (F):34 24 HR MAX TEMP TIME (LST):1427 24 HR MIN TEMP (F):22 24 HR MIN TEMP TIME (LST):2021 AVERAGE STATION PRESSURE:29.915 MINIMUM SEA LEVEL PRESSURE:29.99 TIME OF OCCURRENCE:0010 PEAK WIND SPEED (MPH):28  PEAK WIND DIR (DEG):300 PEAK WIND TIME (LST):1151  FASTEST 2MIN SPEED (MPH):18 FASTEST 2MIN DIR (DEG):300 FASTEST 2MIN TIME (LST):1157 AVERAGE WIND SPEED (MPH):6.3  24 HR AVG TEMP (F):28 HEATING DEGREE DAYS:37  COOLING DEGREE DAYS:0   LATEST DAY MAX TEMP (0700-1900 LST):34  LATEST NIGHT MIN TEMP(1900-0800 LST):26 HOURLY INCREMENTAL PRECIPITATION VALUES (IN):.00 0.00 0.00 0.00 0.00 0.00 0.00 0.00 0.00 0.00 0.00 0.00 0.00 0.00 0.00 0.00 0.00 0.00 0.00 0.00 0.00 0.00 0.00 0.00EQDR01     N7GJS072R02     N7GKS075R03    287OES063
0245722247547852025010605537+40624-074669FM-15+0030KSMQ V0209999V001552200059N0160935N5-00285-01005101715ADDAA101000095GA1005+999999999GD10991+9999999GF100991999999999999999999KA1060M-00221KA2060N-00561MA1101695101335MD1890089+9999REMMET11001/06/25 00:53:02 METAR KSMQ 060553Z VRB03KT 10SM CLR M03/M10 A3003 RMK AO2 SLP171 T10281100 11022 21056 58008
0187722247547852025010606537+40624-074669FM-15+0030KSMQ V0209999C000052200059N0160935N5-00285-01005101715ADDAA101000095GA1005+999999999GD10991+9999999GF100991999999999999999999MA1101695101335REMMET09201/06/25 01:53:02 METAR KSMQ 060653Z 00000KT 10SM CLR M03/M10 A3003 RMK AO2 SLP171 T10281100
0187722247547852025010607537+40624-074669FM-15+0030KSMQ V0209999C000052200059N0160935N5-00285-00945101705ADDAA101000095GA1005+999999999GD10991+9999999GF100991999999999999999999MA1101695101335REMMET09201/06/25 02:53:02 METAR KSMQ 060753Z 00000KT 10SM CLR M03/M09 A3003 RMK AO2 SLP170 T10281094
0207722247547852025010608537+40624-074669FM-15+0030KSMQ V0201805N001552200059N0160935N5-00395-00785101625ADDAA101000095GA1005+999999999GD10991+9999999GF100991999999999999999999MA1101595101235MD1890089+9999REMMET09801/06/25 03:53:02 METAR KSMQ 060853Z 18003KT 10SM CLR M04/M08 A3000 RMK AO2 SLP162 T10391078 58008
0187722247547852025010609537+40624-074669FM-15+0030KSMQ V0201905N001552200059N0160935N5-00395-00785101535ADDAA101000095GA1005+999999999GD10991+9999999GF100991999999999999999999MA1101495101135REMMET09201/06/25 04:53:02 METAR KSMQ 060953Z 19003KT 10SM CLR M04/M08 A2997 RMK AO2 SLP153 T10391078
0212722247547852025010610537+40624-074669FM-15+0030KSMQ V0209999C00005036585MN0160935N5-00335-00895101545ADDAA101000095GA1085+036585999GD14991+0365859GE19AGL   +99999+99999GF199999999999036581999999MA1101525101165REMMET09501/06/25 05:53:02 METAR KSMQ 061053Z 00000KT 10SM OVC120 M03/M09 A2998 RMK AO2 SLP154 T10331089
0270722247547852025010611537+40624-074669FM-15+0030KSMQ V0209999C00005030485MN0160935N5-00285-00835101465ADDAA101000095GA1085+030485999GD14991+0304859GE19AGL   +99999+99999GF199999999999030481999999KA1060M-00281KA2060N-00441MA1101425101065MD1690179+9999REMMET11301/06/25 06:53:02 METAR KSMQ 061153Z 00000KT 10SM OVC100 M03/M08 A2995 RMK AO2 SLP146 T10281083 11028 21044 56017
0250722247547852025010612537+40624-074669FM-15+0030KSMQ V0209999C00005024385MN0160935N5-00285-00835101435ADDAA101000095GA1075+024385999GA2085+028965999GD13991+0243859GD24991+0289659GE19AGL   +99999+99999GF199999999999024381999999MA1101395101035REMMET10201/06/25 07:53:02 METAR KSMQ 061253Z 00000KT 10SM BKN080 OVC095 M03/M08 A2994 RMK AO2 SLP143 T10281083
0211722247547852025010613537+40624-074669FM-15+0030KSMQ V0209999C00005012805MN0128755N5-00285-00785101365ADDAA101000025GA1085+012805999GD14991+0128059GE19AGL   +99999+99999GF199999999999012801999999MA1101355100995REMMET09401/06/25 08:53:02 METAR KSMQ 061353Z 00000KT 8SM OVC042 M03/M08 A2993 RMK AO2 SLP136 T10281078
0249722247547852025010614067+40624-074669FM-16+0030KSMQ V0209999C00005009145MN0028165N5-00285-00785999999ADDAA101000021AU110030015AW1715GA1085+009145999GD14991+0091459GE19AGL   +99999+99999GF199999999999009141999999MA1101325100965MW1715REMMET10901/06/25 09:06:02 SPECI KSMQ 061406Z 00000KT 1 3/4SM -SN OVC030 M03/M08 A2992 RMK AO2 SNB1355 P0000 T10281078
0247722247547852025010614127+40624-074669FM-16+0030KSMQ V0209999C00005007925MN0012075N5-00335-00725999999ADDAA101000021AU110030015AW1715GA1085+007925999GD14991+0079259GE19AGL   +99999+99999GF199999999999007921999999MA1101295100935MW1715REMMET10701/06/25 09:12:02 SPECI KSMQ 061412Z 00000KT 3/4SM -SN OVC026 M03/M07 A2991 RMK AO2 SNB1355 P0000 T10331072
0330722247547852025010614537+40624-074669FM-15+0030KSMQ V0209999C00005005185WN0008055N5-00395-00565101255ADDAA101000596AA203000392AU120030015AU208002015AW1355AW2725GA1095+005185999GD15991+0051859GE19AGL   +99999+99999GF109991999999005181999999MA1101225100865MD1890209+9999MW1735REMMET12901/06/25 09:53:02 METAR KSMQ 061453Z 00000KT 1/2SM SN FZFG VV017 M04/M06 A2989 RMK AO2 SNB1355 SLP125 P0001 60001 T10391056 58020EQDQ01  00028PRCP03
0295722247547852025010615387+40624-074669FM-16+0030KSMQ V0209999V00155007015MN0016095N5-00335-00505999999ADDAA101000531AU110030015AU200001015AW1105AW2715GA1025+002745999GA2085+007015999GD11991+0027459GD24991+0070159GE19AGL   +99999+99999GF199999999999002741999999MA1101155100795MW1715REMMET10701/06/25 10:38:02 SPECI KSMQ 061538Z VRB03KT 1SM -SN BR FEW009 OVC023 M03/M05 A2987 RMK AO2 P0002 T10331050
0330722247547852025010615507+40624-074669FM-16+0030KSMQ V0200105N00215011895MN0032195N5-00305-00505999999ADDAA101000531AU110030015AU200001015AW1105AW2715GA1025+002745999GA2075+011895999GA3085+018295999GD11991+0027459GD23991+0118959GD34991+0182959GE19AGL   +99999+99999GF199999999999002741999999MA1101085100725MW1715REMMET11101/06/25 10:50:02 SPECI KSMQ 061550Z 01004KT 2SM -SN BR FEW009 BKN039 OVC060 M03/M05 A2985 RMK AO2 PRESFR P0002
0306722247547852025010615537+40624-074669FM-15+0030KSMQ V0203605N00155011895MN0040235N5-00335-00565101115ADDAA101000395AU110030015AU200001015AW1105AW2715GA1075+011895999GA2085+018295999GD13991+0118959GD24991+0182959GE19AGL   +99999+99999GF199999999999011891999999MA1101085100725MW1715REMMET11801/06/25 10:53:02 METAR KSMQ 061553Z 36003KT 2 1/2SM -SN BR BKN039 OVC060 M03/M06 A2985 RMK AO2 SLP111 P0002 T10331056
0299722247547852025010616147+40624-074669FM-16+0030KSMQ V0203305N00215011585MN0024145N5-00335-00505999999ADDAA101000021AU110030015AU200001015AW1105AW2715GA1075+011585999GA2085+014335999GD13991+0115859GD24991+0143359GE19AGL   +99999+99999GF199999999999011581999999MA1101055100695MW1715REMMET11101/06/25 11:14:02 SPECI KSMQ 061614Z 33004KT 1 1/2SM -SN BR BKN038 OVC047 M03/M05 A2984 RMK AO2 P0000 T10331050
0297722247547852025010616237+40624-074669FM-16+0030KSMQ V0209999C00005008535MN0012075N5-00335-00445999999ADDAA101000231AU110030015AU200001015AW1105AW2715GA1075+008535999GA2085+010675999GD13991+0085359GD24991+0106759GE19AGL   +99999+99999GF199999999999008531999999MA1101025100665MW1715REMMET10901/06/25 11:23:02 SPECI KSMQ 061623Z 00000KT 3/4SM -SN BR BKN028 OVC035 M03/M04 A2983 RMK AO2 P0001 T10331044
0289722247547852025010616507+40624-074669FM-16+0030KSMQ V0209999C00005007015MN0020125N5-00305-00405999999ADDAA101000531AU110030015AU200001015AW1105AW2715GA1075+007015999GA2085+016765999GD13991+0070159GD24991+0167659GE19AGL   +99999+99999GF199999999999007011999999MA1100955100595MW1715REMMET10101/06/25 11:50:02 SPECI KSMQ 061650Z 00000KT 1 1/4SM -SN BR BKN023 OVC055 M03/M04 A2981 RMK AO2 P0002
0306722247547852025010616537+40624-074669FM-15+0030KSMQ V0209999C00005008235MN0020125N5-00285-00445100985ADDAA101000595AU110030015AU200001015AW1105AW2715GA1075+008235999GA2085+016765999GD13991+0082359GD24991+0167659GE19AGL   +99999+99999GF199999999999008231999999MA1100955100595MW1715REMMET11801/06/25 11:53:02 METAR KSMQ 061653Z 00000KT 1 1/4SM -SN BR BKN027 OVC055 M03/M04 A2981 RMK AO2 SLP098 P0002 T10281044
0299722247547852025010617037+40624-074669FM-16+0030KSMQ V0203205N00155009455MN0020125N5-00285-00445999999ADDAA101000021AU110030015AU200001015AW1105AW2715GA1075+009455999GA2085+016765999GD13991+0094559GD24991+0167659GE19AGL   +99999+99999GF199999999999009451999999MA1100955100595MW1715REMMET11101/06/25 12:03:02 SPECI KSMQ 061703Z 32003KT 1 1/4SM -SN BR BKN031 OVC055 M03/M04 A2981 RMK AO2 P0000 T10281044
0302722247547852025010617127+40624-074669FM-16+0030KSMQ V0203305N00155008235MN0016095N5-00285-00445999999ADDAA101000021AU110030015AU200001015AW1105AW2715GA1075+008235999GA2085+016765999GD13991+0082359GD24991+0167659GE19AGL   +99999+99999GF199999999999008231999999MA1100885100525MW1715REMMET11401/06/25 12:12:02 SPECI KSMQ 061712Z 33003KT 1SM -SN BR BKN027 OVC055 M03/M04 A2979 RMK AO2 PRESFR P0000 T10281044
0259722247547852025010617307+40624-074669FM-16+0030KSMQ V0209999C00005006105WN0008055N5-00225-00395999999ADDAA101000231AU120030015AU208002015AW1355AW2725GA1095+006105999GD15991+0061059GE19AGL   +99999+99999GF109991999999006101999999MA1100885100525MW1735REMMET10201/06/25 12:30:02 SPECI KSMQ 061730Z 00000KT 1/2SM SN FZFG VV020 M02/M04 A2979 RMK AO2 P0001 T10221039
0285722247547852025010617507+40624-074669FM-16+0030KSMQ V0203505N00155005495MN0016095N5-00205-00305999999ADDAA101000531AU110030015AU200001015AW1105AW2715GA1025+002445999GA2085+005495999GD11991+0024459GD24991+0054959GE19AGL   +99999+99999GF199999999999002441999999MA1100785100425MW1715REMMET09701/06/25 12:50:02 SPECI KSMQ 061750Z 35003KT 1SM -SN BR FEW008 OVC018 M02/M03 A2976 RMK AO2 P0002
0425722247547852025010617537+40624-074669FM-15+0030KSMQ V0209999C00005006105MN0020125N5-00175-00335100815ADDAA101000595AA206001891AU110030015AU200001015AW1105AW2715GA1025+002445999GA2075+006105999GA3085+010675999GD11991+0024459GD23991+0061059GD34991+0106759GE19AGL   +99999+99999GF199999999999002441999999KA1060M-00171MA1100785100425MD1890309+9999MW1715REMMET14901/06/25 12:53:02 METAR KSMQ 061753Z 00000KT 1 1/4SM -SN BR FEW008 BKN020 OVC035 M02/M03 A2976 RMK AO2 SLP081 P0002 60007 T10171033 11017 21039 58030EQDQ01  00178PRCP06
0337722247547852025010618037+40624-074669FM-16+0030KSMQ V0203505N00155009455MN0040235N5-00175-00335999999ADDAA101000021AU110030015AU200001015AW1105AW2715GA1025+002445999GA2075+009455999GA3085+015245999GD11991+0024459GD23991+0094559GD34991+0152459GE19AGL   +99999+99999GF199999999999002441999999MA1100755100395MW1715REMMET11801/06/25 13:03:02 SPECI KSMQ 061803Z 35003KT 2 1/2SM -SN BR FEW008 BKN031 OVC050 M02/M03 A2975 RMK AO2 P0000 T10171033
0333722247547852025010618117+40624-074669FM-16+0030KSMQ V0209999C00005012505MN0048285N5-00175-00335999999ADDAA101000021AU110030015AU200001015AW1105AW2715GA1025+002445999GA2075+012505999GA3085+015245999GD11991+0024459GD23991+0125059GD34991+0152459GE19AGL   +99999+99999GF199999999999002441999999MA1100755100395MW1715REMMET11401/06/25 13:11:02 SPECI KSMQ 061811Z 00000KT 3SM -SN BR FEW008 BKN041 OVC050 M02/M03 A2975 RMK AO2 P0000 T10171033
0318722247547852025010618407+40624-074669FM-16+0030KSMQ V0203605N00155004575MN0080475N5-00115-00395999999ADDAA101000021AU100007015AW1051GA1075+004575999GA2075+013725999GA3085+027435999GD13991+0045759GD23991+0137259GD34991+0274359GE19AGL   +99999+99999GF199999999999004571999999MA1100685100325MW1055REMMET11601/06/25 13:40:02 SPECI KSMQ 061840Z 36003KT 5SM HZ BKN015 BKN045 OVC090 M01/M04 A2973 RMK AO2 SNE28 P0000 T10111039
0223722247547852025010618537+40624-074669FM-15+0030KSMQ V0200305N00215005185MN0144845N5-00115-00395100655ADDAA101000025GA1085+005185999GD14991+0051859GE19AGL   +99999+99999GF199999999999005181999999MA1100615100255REMMET10601/06/25 13:53:02 METAR KSMQ 061853Z 03004KT 9SM OVC017 M01/M04 A2971 RMK AO2 SNE28 SLP065 P0000 T10111039
0212722247547852025010619537+40624-074669FM-15+0030KSMQ V0200305N00265006405MN0160935N5-00065-00445100595ADDAA101000095GA1085+006405999GD14991+0064059GE19AGL   +99999+99999GF199999999999006401999999MA1100585100225REMMET09501/06/25 14:53:02 METAR KSMQ 061953Z 03005KT 10SM OVC021 M01/M04 A2970 RMK AO2 SLP059 T10061044
0249722247547852025010620537+40624-074669FM-15+0030KSMQ V0203505N00315007325MN0160935N5-00065-00445100535ADDAA101000095AA203000021GA1085+007325999GD14991+0073259GE19AGL   +99999+99999GF199999999999007321999999MA1100515100155MD1690289+9999REMMET10701/06/25 15:53:02 METAR KSMQ 062053Z 35006KT 10SM OVC024 M01/M04 A2968 RMK AO2 SLP053 60000 T10061044 56028
0270722247547852025010621147+40624-074669FM-16+0030KSMQ V0200105N00215016765MN0160935N5-00065-00505999999ADDGA1045+007625999GA2075+016765999GA3085+025915999GD12991+0076259GD23991+0167659GD34991+0259159GE19AGL   +99999+99999GF199999999999007621999999MA1100475100125REMMET10201/06/25 16:14:02 SPECI KSMQ 062114Z 01004KT 10SM SCT025 BKN055 OVC085 M01/M05 A2967 RMK AO2 T10061050
0250722247547852025010621537+40624-074669FM-15+0030KSMQ V0200105N00155024385MN0160935N5-00065-00505100475ADDAA101000095GA1025+016765999GA2085+024385999GD11991+0167659GD24991+0243859GE19AGL   +99999+99999GF199999999999016761999999MA1100445100085REMMET10201/06/25 16:53:02 METAR KSMQ 062153Z 01003KT 10SM FEW055 OVC080 M01/M05 A2966 RMK AO2 SLP047 T10061050
0288722247547852025010622537+40624-074669FM-15+0030KSMQ V0203505N00215022865MN0160935N5-00065-00505100465ADDAA101000095GA1045+018295999GA2075+022865999GA3085+030485999GD12991+0182959GD23991+0228659GD34991+0304859GE19AGL   +99999+99999GF199999999999018291999999MA1100445100085REMMET10901/06/25 17:53:02 METAR KSMQ 062253Z 35004KT 10SM SCT060 BKN075 OVC100 M01/M05 A2966 RMK AO2 SLP046 T10061050
0287722247547852025010623537+40624-074669FM-15+0030KSMQ V0203405N00315018295MN0160935N5-00065-00505100395ADDAA101000095AA206000021GA1085+018295999GD14991+0182959GE19AGL   +99999+99999GF199999999999018291999999KA1060M-00061KA2060N-00171MA1100375100025MD1890149+9999REMMET11901/06/25 18:53:02 METAR KSMQ 062353Z 34006KT 10SM OVC060 M01/M05 A2964 RMK AO2 SLP039 60000 T10061050 11006 21017 58014
0260722247547852025010700537+40624-074669FM-15+0030KSMQ V0203505V00415027435MN0112655N5-00115-00725100405ADDAA101000095GA1075+027435999GA2075+033535999GD13991+0274359GD23991+0335359GE19AGL   +99999+99999GF199999999999027431999999MA1100375100025OC101135REMMET10401/06/25 19:53:01 METAR KSMQ 070053Z 35008G22KT 7SM BKN090 BKN110 M01/M07 A2964 RMK AO2 SLP040 T10111072
0293722247547852025010701537+40624-074669FM-15+0030KSMQ V0203305N00675022865MN0160935N5-00225-00945100395ADDAA101000095GA1075+022865999GA2085+027435999GD13991+0228659GD24991+0274359GE19AGL   +99999+99999GF199999999999022861999999MA1100375100025OC101035OD149901441330REMMET12301/06/25 20:53:01 METAR KSMQ 070153Z 33013G20KT 10SM BKN075 OVC090 M02/M09 A2964 RMK AO2 PK WND 33028/0132 SLP039 T10221094
0313722247547852025010702537+40624-074669FM-15+0030KSMQ V0203205N00725027435MN0160935N5-00285-00945100535ADDAA101000095GA1075+027435999GA2085+033535999GD13991+0274359GD24991+0335359GE19AGL   +99999+99999GF199999999999027431999999MA1100515100155MD1390149+9999OC101185OD149901391340REMMET12901/06/25 21:53:01 METAR KSMQ 070253Z 32014G23KT 10SM BKN090 OVC110 M03/M09 A2968 RMK AO2 PK WND 34027/0154 SLP053 T10281094 53014
0255722247547852025010703516+40624-074669FM-16+0030KSMQ V0203405N00935027435MN0040235V5-00505-01305999999ADDAU120090015AW1415GA1025+021345999GA2085+027435999GD11991+0213459GD24991+0274359MA1100615100255OC101605REMMET14101/06/25 22:51:03 SPECI KSMQ 070351Z 34018G31KT 2 1/2SM UP FEW070 OVC090 M05/M13 A2971 RMK AO2 PK WND 33031/0348 VIS 1 1/4V5 UPB45 P0000 FIBI
0346722247547852025010703537+40624-074669FM-15+0030KSMQ V0203305N00675027435MN0040235V5-00505-01285100655ADDAA101000025AU120090015AW1401AW2415GA1025+021345999GA2085+027435999GD11991+0213459GD24991+0274359GE19AGL   +99999+99999GF199999999999021341999999MA1100645100295OC101605OD149901591330REMMET15301/06/25 22:53:02 METAR KSMQ 070353Z 33013G31KT 2 1/2SM UP FEW070 OVC090 M05/M13 A2972 RMK AO2 PK WND 33031/0348 VIS 1 1/4V5 UPB45 SLP065 P0000 T10501128
0229722247547852025010704007+40624-074669FM-16+0030KSMQ V0203305N00725027435MN0112655N5-00505-01285999999ADDAA101000021GA1085+027435999GD14991+0274359GE19AGL   +99999+99999GF199999999999027431999999MA1100645100295OC101395REMMET10401/06/25 23:00:02 SPECI KSMQ 070400Z 33014G27KT 7SM OVC090 M05/M13 A2972 RMK AO2 UPE0356 P0000 T10501128
0273722247547852025010704537+40624-074669FM-15+0030KSMQ V0203105N00725030485MN0160935N5-00675-01335100815ADDAA101000095GA1085+030485999GD14991+0304859GE19AGL   +99999+99999GF199999999999030481999999KA1240M-00061KA2240N-00671MA1100785100425OC101185REMMET12201/06/25 23:53:02 METAR KSMQ 070453Z 31014G23KT 10SM OVC100 M07/M13 A2976 RMK AO2 UPE0356 SLP081 P0000 T10671133 410061067
0958722247547852025010704596+40624-074669SOD  +0030KSMQ V020999999999999999999999999999+99999+99999999999ADDAA124001895AT1AU18SN  5AT2AU22FZFG5AT3AU13BR  5AT4AU19UP  5AT5AU08HZ  5AT6AW01FG  5KA1240M-00055KA2240N-00665MG1100694100374OE11240160933022485OE22240102833022485OE33240021999999995REMSOD73024 HR PRECIPITATION (IN):0.07  24 HR MAX TEMP (F):31 24 HR MAX TEMP TIME (LST):1856 24 HR MIN TEMP (F):20 24 HR MIN TEMP TIME (LST):2359 AVERAGE STATION PRESSURE:29.735 MINIMUM SEA LEVEL PRESSURE:29.64 TIME OF OCCURRENCE:2053 PEAK WIND SPEED (MPH):36  PEAK WIND DIR (DEG):330 PEAK WIND TIME (LST):2248  FASTEST 2MIN SPEED (MPH):23 FASTEST 2MIN DIR (DEG):330 FASTEST 2MIN TIME (LST):2248 AVERAGE WIND SPEED (MPH):4.9  24 HR AVG TEMP (F):26 HEATING DEGREE DAYS:39  COOLING DEGREE DAYS:0   LATEST DAY MAX TEMP (0700-1900 LST):31  LATEST NIGHT MIN TEMP(1900-0800 LST):22 HOURLY INCREMENTAL PRECIPITATION VALUES (IN):.00 0.00 0.00 0.00 0.00 0.00 0.00 0.00 T    0.02 0.01 0.02 0.02 T    0.00 0.00 0.00 0.00 0.00 0.00 0.00 0.00 T    0.00EQDR01     N7GJS072R02     N7GKS075
0349722247547852025010705537+40624-074669FM-15+0030KSMQ V0203405N006752200059N0160935N5-00725-01395100855ADDAA101000095AA206000021GA1045+010675999GD12991+0106759GE19AGL   +99999+99999GF104995999999010671999999KA1060M-00061KA2060N-00721MA1100815100455MD1190319+9999OC101295OD149901441350REMMET14001/07/25 00:53:02 METAR KSMQ 070553Z 34013G25KT 10SM SCT035 M07/M14 A2977 RMK AO2 PK WND 35028/0525 SLP085 60000 T10721139 11006 21072 51031EQDD01      0ADE726
0216722247547852025010706537+40624-074669FM-15+0030KSMQ V0203305N006252200059N0160935N5-00675-01395100825ADDAA101000095GA1005+999999999GD10991+9999999GF100991999999999999999999MA1100815100455OC101135REMMET11301/07/25 01:53:02 METAR KSMQ 070653Z 33012G22KT 10SM CLR M07/M14 A2977 RMK AO2 PK WND 33027/0606 SLP082 T10671139
0255722247547852025010707537+40624-074669FM-15+0030KSMQ V0203305N00625011895MN0160935N5-00675-01395100895ADDAA101000095GA1075+011895999GD13991+0118959GE19AGL   +99999+99999GF199999999999011891999999MA1100885100525OC101245OD149901491330REMMET11601/07/25 02:53:02 METAR KSMQ 070753Z 33012G24KT 10SM BKN039 M07/M14 A2979 RMK AO2 PK WND 33029/0703 SLP089 T10671139
0243722247547852025010708537+40624-074669FM-15+0030KSMQ V0203205N00575011285MN0160935N5-00565-01225100885ADDAA101000095GA1085+011285999GD14991+0112859GE19AGL   +99999+99999GF199999999999011281999999MA1100855100495MD1390049+9999OC101295REMMET10401/07/25 03:53:02 METAR KSMQ 070853Z 32011G25KT 10SM OVC037 M06/M12 A2978 RMK AO2 SLP088 T10561122 53004
0223722247547852025010709537+40624-074669FM-15+0030KSMQ V0203005V00465011585MN0160935N5-00565-01175100895ADDAA101000095GA1085+011585999GD14991+0115859GE19AGL   +99999+99999GF199999999999011581999999MA1100885100525OC100885REMMET09801/07/25 04:53:02 METAR KSMQ 070953Z 30009G17KT 10SM OVC038 M06/M12 A2979 RMK AO2 SLP089 T10561117
0242722247547852025010710537+40624-074669FM-15+0030KSMQ V0203205N005152200059N0160935N5-00565-01225100935ADDAA101000095GA1025+012505999GD11991+0125059GE19AGL   +99999+99999GF102995999999012501999999MA1100915100565OC100985REMMET09801/07/25 05:53:02 METAR KSMQ 071053Z 32010G19KT 10SM FEW041 M06/M12 A2980 RMK AO2 SLP093 T10561122EQDD01      0ADE726
0317722247547852025010711537+40624-074669FM-15+0030KSMQ V0203105N005752200059N0160935N5-00505-01225101025ADDAA101000095AA224001891GA1045+012195999GD12991+0121959GE19AGL   +99999+99999GF104995999999012191999999KA1060M-00501KA2060N-00721MA1101025100665MD1390149+9999OC101185REMMET12201/07/25 06:53:02 METAR KSMQ 071153Z 31011G23KT 10SM SCT040 M05/M12 A2983 RMK AO2 SLP102 70007 T10501122 11050 21072 53014EQDD01      0ADE726
0216722247547852025010712537+40624-074669FM-15+0030KSMQ V0203005N006252200059N0160935N5-00565-01225101025ADDAA101000095GA1005+999999999GD10991+9999999GF100991999999999999999999MA1101025100665OC101245REMMET11301/07/25 07:53:02 METAR KSMQ 071253Z 30012G24KT 10SM CLR M06/M12 A2983 RMK AO2 PK WND 31026/1232 SLP102 T10561122
0273722247547852025010713537+40624-074669FM-15+0030KSMQ V0203205N006252200059N0128755N5-00505-01285101125ADDAA101000095GA1025+013115999GD11991+0131159GE19AGL   +99999+99999GF102995999999013111999999MA1101085100725OC101445OD149901491330REMMET11501/07/25 08:53:02 METAR KSMQ 071353Z 32012G28KT 8SM FEW043 M05/M13 A2985 RMK AO2 PK WND 33029/1326 SLP112 T10501128EQDD01      0ADE726
0243722247547852025010714537+40624-074669FM-15+0030KSMQ V0203005N00625013115MN0160935N5-00335-01175101155ADDAA101000095GA1075+013115999GD13991+0131159GE19AGL   +99999+99999GF199999999999013111999999MA1101125100765MD1390139+9999OC101185REMMET10401/07/25 09:53:02 METAR KSMQ 071453Z 30012G23KT 10SM BKN043 M03/M12 A2986 RMK AO2 SLP115 T10331117 53013
0231722247547852025010715537+40624-074669FM-15+0030KSMQ V0203105N007252200059N0160935N5-00285-01175101135ADDAA101000025GA1005+999999999GD10991+9999999GF100991999999999999999999MA1101125100765OC101545REMMET12801/07/25 10:53:02 METAR KSMQ 071553Z 31014G30KT 10SM CLR M03/M12 A2986 RMK AO2 PK WND 30033/1533 UPB38E45 SLP113 P0000 T10281117
0274722247547852025010716537+40624-074669FM-15+0030KSMQ V0203005V007752200059N0160935N5-00115-01065101065ADDAA101000095GA1025+014335999GD11991+0143359GE19AGL   +99999+99999GF102995999999014331999999MA1101055100695OC101445OD149901541300REMMET11601/07/25 11:53:02 METAR KSMQ 071653Z 30015G28KT 10SM FEW047 M01/M11 A2984 RMK AO2 PK WND 30030/1628 SLP106 T10111106EQDD01      0ADE726
0348722247547852025010717537+40624-074669FM-15+0030KSMQ V0203205N007252200059N0160935N5+00005-01005101045ADDAA101000095AA206000021GA1025+015245999GD11991+0152459GE19AGL   +99999+99999GF102995999999015241999999KA1060M+00001KA2060N-00561MA1101025100665MD1790129+9999OC101495OD149901751330REMMET13901/07/25 12:53:02 METAR KSMQ 071753Z 32014G29KT 10SM FEW050 00/M10 A2983 RMK AO2 PK WND 33034/1702 SLP104 60000 T00001100 10000 21056 57012EQDD01      0ADE726
0215722247547852025010718537+40624-074669FM-15+0030KSMQ V0203105N010352200059N0160935N5+00065-01005101045ADDAA101000095GA1005+999999999GD10991+9999999GF100991999999999999999999MA1101025100665OC101965REMMET11201/07/25 13:53:02 METAR KSMQ 071853Z 31020G38KT 10SM CLR 01/M10 A2983 RMK AO2 PK WND 30038/1846 SLP104 T00061100
0273722247547852025010719537+40624-074669FM-15+0030KSMQ V0203005N008252200059N0160935N5+00115-00945101095ADDAA101000095GA1025+016765999GD11991+0167659GE19AGL   +99999+99999GF102995999999016761999999MA1101085100725OC101655OD149901801350REMMET11501/07/25 14:53:02 METAR KSMQ 071953Z 30016G32KT 10SM FEW055 01/M09 A2985 RMK AO2 PK WND 35035/1923 SLP109 T00111094EQDD01      0ADE726
0209722247547852025010720536+40624-074669FM-15+0030KSMQ V0203005N006252200059N0160935N5+00005-01065101245ADDAA101000095GA1005+999999999GD10991+9999999MA1101225100865MD1390209+9999OC101395REMMET11801/07/25 15:53:02 METAR KSMQ 072053Z 30012G27KT 10SM CLR 00/M11 A2989 RMK AO2 PK WND 31031/1959 SLP124 T00001106 53020
0216722247547852025010721537+40624-074669FM-15+0030KSMQ V0203105N006252200059N0160935N5-00115-01115101375ADDAA101000095GA1005+999999999GD10991+9999999GF100991999999999999999999MA1101355100995OC101245REMMET11301/07/25 16:53:02 METAR KSMQ 072153Z 31012G24KT 10SM CLR M01/M11 A2993 RMK AO2 PK WND 30033/2103 SLP137 T10111111
0216722247547852025010722537+40624-074669FM-15+0030KSMQ V0203005N006252200059N0160935N5-00175-01115101475ADDAA101000095GA1005+999999999GD10991+9999999GF100991999999999999999999MA1101465101105OC101495REMMET11301/07/25 17:53:02 METAR KSMQ 072253Z 30012G29KT 10SM CLR M02/M11 A2996 RMK AO2 PK WND 30031/2235 SLP147 T10171111
0274722247547852025010723537+40624-074669FM-15+0030KSMQ V0203105N007252200059N0160935N5-00225-01115101515ADDAA101000095GA1005+999999999GD10991+9999999GF100991999999999999999999KA1060M+00111KA2060N-00221MA1101495101135MD1190289+9999OC101345REMMET13101/07/25 18:53:02 METAR KSMQ 072353Z 31014G26KT 10SM CLR M02/M11 A2997 RMK AO2 PK WND 31032/2314 SLP151 T10221111 10011 21022 51028
0255722247547852025010800537+40624-074669FM-15+0030KSMQ V0203105N00675014335MN0160935N5-00225-01115101565ADDAA101000095GA1075+014335999GD13991+0143359GE19AGL   +99999+99999GF199999999999014331999999MA1101565101205OC101345OD149901491300REMMET11601/07/25 19:53:01 METAR KSMQ 080053Z 31013G26KT 10SM BKN047 M02/M11 A2999 RMK AO2 PK WND 30029/0032 SLP156 T10221111
0255722247547852025010801537+40624-074669FM-15+0030KSMQ V0203105N00675013115MN0160935N5-00225-01065101555ADDAA101000095GA1085+013115999GD14991+0131159GE19AGL   +99999+99999GF199999999999013111999999MA1101525101165OC101445OD149901691290REMMET11601/07/25 20:53:01 METAR KSMQ 080153Z 31013G28KT 10SM OVC043 M02/M11 A2998 RMK AO2 PK WND 29033/0107 SLP155 T10221106
0275722247547852025010802537+40624-074669FM-15+0030KSMQ V0203205N00725013115MN0160935N5-00285-01115101595ADDAA101000095GA1075+013115999GD13991+0131159GE19AGL   +99999+99999GF199999999999013111999999MA1101565101205MD1190089+9999OC101395OD149901951310REMMET12201/07/25 21:53:01 METAR KSMQ 080253Z 32014G27KT 10SM BKN043 M03/M11 A2999 RMK AO2 PK WND 31038/0225 SLP159 T10281111 51008
0255722247547852025010803537+40624-074669FM-15+0030KSMQ V0203205N00725013725MN0160935N5-00285-01115101635ADDAA101000095GA1085+013725999GD14991+0137259GE19AGL   +99999+99999GF199999999999013721999999MA1101635101265OC101605OD149901801300REMMET11601/07/25 22:53:02 METAR KSMQ 080353Z 32014G31KT 10SM OVC045 M03/M11 A3001 RMK AO2 PK WND 30035/0337 SLP163 T10281111
0291722247547852025010804537+40624-074669FM-15+0030KSMQ V0203205N01085014335MN0160935N5-00285-01175101635ADDAA101000095GA1085+014335999GD14991+0143359GE19AGL   +99999+99999GF199999999999014331999999KA1240M+00111KA2240N-00721MA1101635101265OC101855OD149901851300REMMET12601/07/25 23:53:02 METAR KSMQ 080453Z 32021G36KT 10SM OVC047 M03/M12 A3001 RMK AO2 PK WND 30036/0452 SLP163 T10281117 400111072
0918722247547852025010804596+40624-074669SOD  +0030KSMQ V020999999999999999999999999999+99999+99999999999ADDAA124000026KA1240M+00115KA2240N-00715MG1100714100784OE11240192231021256OE22240134131021265OE33240068099999995REMSOD73024 HR PRECIPITATION (IN):T     24 HR MAX TEMP (F):34 24 HR MAX TEMP TIME (LST):1454 24 HR MIN TEMP (F):19 24 HR MIN TEMP TIME (LST):0144 AVERAGE STATION PRESSURE:29.740 MINIMUM SEA LEVEL PRESSURE:29.76 TIME OF OCCURRENCE:0139 PEAK WIND SPEED (MPH):43  PEAK WIND DIR (DEG):310 PEAK WIND TIME (LST):2125  FASTEST 2MIN SPEED (MPH):30 FASTEST 2MIN DIR (DEG):310 FASTEST 2MIN TIME (LST):2126 AVERAGE WIND SPEED (MPH):15.2 24 HR AVG TEMP (F):27 HEATING DEGREE DAYS:38  COOLING DEGREE DAYS:0   LATEST DAY MAX TEMP (0700-1900 LST):34  LATEST NIGHT MIN TEMP(1900-0800 LST):19 HOURLY INCREMENTAL PRECIPITATION VALUES (IN):.00 0.00 0.00 0.00 0.00 0.00 0.00 0.00 0.00 0.00 T    0.00 0.00 0.00 0.00 0.00 0.00 0.00 0.00 0.00 0.00 0.00 0.00 0.00EQDR01     T7AAP092R02     N7GJS072R03     N7GKS075R04    437OES063
0313722247547852025010805537+40624-074669FM-15+0030KSMQ V0203005N00515014635MN0160935N5-00335-01225101585ADDAA101000095GA1075+014635999GD13991+0146359GE19AGL   +99999+99999GF199999999999014631999999KA1060M-00221KA2060N-00331MA1101565101205MD1890019+9999OC101395OD149901391310REMMET13401/08/25 00:53:02 METAR KSMQ 080553Z 30010G27KT 10SM BKN048 M03/M12 A2999 RMK AO2 PK WND 31027/0547 SLP158 T10331122 11022 21033 58001
0223722247547852025010806537+40624-074669FM-15+0030KSMQ V0203205N00675014945MN0160935N5-00335-01285101635ADDAA101000095GA1075+014945999GD13991+0149459GE19AGL   +99999+99999GF199999999999014941999999MA1101595101235OC101295REMMET09801/08/25 01:53:02 METAR KSMQ 080653Z 32013G25KT 10SM BKN049 M03/M13 A3000 RMK AO2 SLP163 T10331128
0255722247547852025010807537+40624-074669FM-15+0030KSMQ V0203005V00775013415MN0160935N5-00395-01285101625ADDAA101000095GA1075+013415999GD13991+0134159GE19AGL   +99999+99999GF199999999999013411999999MA1101595101235OC101345OD149901331310REMMET11601/08/25 02:53:02 METAR KSMQ 080753Z 30015G26KT 10SM BKN044 M04/M13 A3000 RMK AO2 PK WND 31026/0704 SLP162 T10391128
0294722247547852025010808537+40624-074669FM-15+0030KSMQ V0203005N006252200059N0160935N5-00395-01335101635ADDAA101000095GA1025+015245999GD11991+0152459GE19AGL   +99999+99999GF102995999999015241999999MA1101635101265MD1190059+9999OC101345OD149901441310REMMET12201/08/25 03:53:02 METAR KSMQ 080853Z 30012G26KT 10SM FEW050 M04/M13 A3001 RMK AO2 PK WND 31028/0825 SLP163 T10391133 51005EQDD01      0ADE726
0212722247547852025010809537+40624-074669FM-15+0030KSMQ V0202905N00415015245MN0160935N5-00445-01285101605ADDAA101000095GA1085+015245999GD14991+0152459GE19AGL   +99999+99999GF199999999999015241999999MA1101595101235REMMET09501/08/25 04:53:02 METAR KSMQ 080953Z 29008KT 10SM OVC050 M04/M13 A3000 RMK AO2 SLP160 T10441128
0223722247547852025010810537+40624-074669FM-15+0030KSMQ V0203005N00465015245MN0160935N5-00445-01285101625ADDAA101000095GA1075+015245999GD13991+0152459GE19AGL   +99999+99999GF199999999999015241999999MA1101595101235OC100885REMMET09801/08/25 05:53:02 METAR KSMQ 081053Z 30009G17KT 10SM BKN050 M04/M13 A3000 RMK AO2 SLP162 T10441128
0270722247547852025010811537+40624-074669FM-15+0030KSMQ V0209999N99999015245MN0160935N5-00445-01285101625ADDAA101000095GA1085+015245999GD14991+0152459GE19AGL   +99999+99999GF199999999999015241999999KA1060M-00331KA2060N-00441MA1101595101235MD1690019+9999REMMET11301/08/25 06:53:02 METAR KSMQ 081153Z      KT 10SM OVC050 M04/M13 A3000 RMK AO2 SLP162 T10441128 11033 21044 56001
0212722247547852025010812537+40624-074669FM-15+0030KSMQ V0209999N99999015245MN0160935N5-00445-01285101625ADDAA101000095GA1085+015245999GD14991+0152459GE19AGL   +99999+99999GF199999999999015241999999MA1101595101235REMMET09501/08/25 07:53:02 METAR KSMQ 081253Z      KT 10SM OVC050 M04/M13 A3000 RMK AO2 SLP162 T10441128
0212722247547852025010813537+40624-074669FM-15+0030KSMQ V0209999N99999014945MN0160935N5-00335-01225101605ADDAA101000095GA1085+014945999GD14991+0149459GE19AGL   +99999+99999GF199999999999014941999999MA1101595101235REMMET09501/08/25 08:53:02 METAR KSMQ 081353Z      KT 10SM OVC049 M03/M12 A3000 RMK AO2 SLP160 T10331122
0262722247547852025010814537+40624-074669FM-15+0030KSMQ V0202905V005152200059N0160935N5-00285-01395101605ADDAA101000095GA1025+015245999GD11991+0152459GE19AGL   +99999+99999GF102995999999015241999999MA1101595101235MD1690029+9999OC101035REMMET10401/08/25 09:53:02 METAR KSMQ 081453Z 29010G20KT 10SM FEW050 M03/M14 A3000 RMK AO2 SLP160 T10281139 56002EQDD01      0ADE726
0223722247547852025010815537+40624-074669FM-15+0030KSMQ V0202905V00675015245MN0160935N5-00335-01335101545ADDAA101000095GA1075+015245999GD13991+0152459GE19AGL   +99999+99999GF199999999999015241999999MA1101525101165OC101245REMMET09801/08/25 10:53:02 METAR KSMQ 081553Z 29013G24KT 10SM BKN050 M03/M13 A2998 RMK AO2 SLP154 T10331133
0274722247547852025010816537+40624-074669FM-15+0030KSMQ V0203005N007252200059N0160935N5-00225-01395101395ADDAA101000095GA1045+016765999GD12991+0167659GE19AGL   +99999+99999GF104995999999016761999999MA1101355100995OC101545OD149901691300REMMET11601/08/25 11:53:02 METAR KSMQ 081653Z 30014G30KT 10SM SCT055 M02/M14 A2993 RMK AO2 PK WND 30033/1637 SLP139 T10221139EQDD01      0ADE726
0332722247547852025010817537+40624-074669FM-15+0030KSMQ V0202905N007752200059N0160935N5-00115-01445101255ADDAA101000095GA1025+019815999GD11991+0198159GE19AGL   +99999+99999GF102995999999019811999999KA1060M-00111KA2060N-00441MA1101225100865MD1890359+9999OC101605OD149901591300REMMET13401/08/25 12:53:02 METAR KSMQ 081753Z 29015G31KT 10SM FEW065 M01/M14 A2989 RMK AO2 PK WND 30031/1746 SLP125 T10111144 11011 21044 58035EQDD01      0ADE726
0216722247547852025010818537+40624-074669FM-15+0030KSMQ V0203205N007752200059N0160935N5-00065-01565101175ADDAA101000095GA1005+999999999GD10991+9999999GF100991999999999999999999MA1101155100795OC101545REMMET11301/08/25 13:53:02 METAR KSMQ 081853Z 32015G30KT 10SM CLR M01/M16 A2987 RMK AO2 PK WND 29038/1812 SLP117 T10061156
0274722247547852025010819537+40624-074669FM-15+0030KSMQ V0203105N007252200059N0160935N5-00175-01565101115ADDAA101000095GA1045+021345999GD12991+0213459GE19AGL   +99999+99999GF104995999999021341999999MA1101085100725OC101245OD149901391310REMMET11601/08/25 14:53:02 METAR KSMQ 081953Z 31014G24KT 10SM SCT070 M02/M16 A2985 RMK AO2 PK WND 31027/1915 SLP111 T10171156EQDD01      0ADE726
0236722247547852025010820537+40624-074669FM-15+0030KSMQ V0203205N008852200059N0160935N5-00225-01565101115ADDAA101000095GA1005+999999999GD10991+9999999GF100991999999999999999999MA1101085100725MD1690149+9999OC101755REMMET11901/08/25 15:53:02 METAR KSMQ 082053Z 32017G34KT 10SM CLR M02/M16 A2985 RMK AO2 PK WND 31034/2045 SLP111 T10221156 56014
0216722247547852025010821537+40624-074669FM-15+0030KSMQ V0203005N005752200059N0160935N5-00335-01565101165ADDAA101000095GA1005+999999999GD10991+9999999GF100991999999999999999999MA1101155100795OC101295REMMET11301/08/25 16:53:02 METAR KSMQ 082153Z 30011G25KT 10SM CLR M03/M16 A2987 RMK AO2 PK WND 31033/2100 SLP116 T10331156
0216722247547852025010822537+40624-074669FM-15+0030KSMQ V0209999V003152200059N0160935N5-00445-01505101185ADDAA101000095GA1005+999999999GD10991+9999999GF100991999999999999999999MA1101155100795OC101245REMMET11301/08/25 17:53:02 METAR KSMQ 082253Z VRB06G24KT 10SM CLR M04/M15 A2987 RMK AO2 PK WND 30029/2243 SLP118 T10441150
0274722247547852025010823537+40624-074669FM-15+0030KSMQ V0203105N005752200059N0160935N5-00505-01505101235ADDAA101000095GA1005+999999999GD10991+9999999GF100991999999999999999999KA1060M-00061KA2060N-00501MA1101225100865MD1390129+9999OC100985REMMET13101/08/25 18:53:02 METAR KSMQ 082353Z 31011G19KT 10SM CLR M05/M15 A2989 RMK AO2 PK WND 32027/2330 SLP123 T10501150 11006 21050 53012
0219722247547852025010900537+40624-074669FM-15+0030KSMQ V0209999N999992200059N0160935N5-00565-01505101195ADDAA101000095GA1005+999999999GD10991+9999999GF100991999999999999999999MA1101155100795OD149901541310REMMET11001/08/25 19:53:01 METAR KSMQ 090053Z      KT 10SM CLR M06/M15 A2987 RMK AO2 PK WND 31030/0009 SLP119 T10561150
0198722247547852025010901537+40624-074669FM-15+0030KSMQ V0203005V006752200059N0160935N5-00565-01445101165ADDAA101000095GA1005+999999999GD10991+9999999GF100991999999999999999999MA1101125100765OC101085REMMET09501/08/25 20:53:01 METAR KSMQ 090153Z 30013G21KT 10SM CLR M06/M14 A2986 RMK AO2 SLP116 T10561144
0294722247547852025010902537+40624-074669FM-15+0030KSMQ V0202905N004652200059N0160935N5-00615-01445101145ADDAA101000095GA1025+015245999GD11991+0152459GE19AGL   +99999+99999GF102995999999015241999999MA1101125100765MD1690099+9999OC101135OD149901391280REMMET12201/08/25 21:53:01 METAR KSMQ 090253Z 29009G22KT 10SM FEW050 M06/M14 A2986 RMK AO2 PK WND 28027/0202 SLP114 T10611144 56009EQDD01      0ADE726
0198722247547852025010903537+40624-074669FM-15+0030KSMQ V0202905N006252200059N0160935N5-00565-01445101095ADDAA101000095GA1005+999999999GD10991+9999999GF100991999999999999999999MA1101055100695OC101035REMMET09501/08/25 22:53:02 METAR KSMQ 090353Z 29012G20KT 10SM CLR M06/M14 A2984 RMK AO2 SLP109 T10561144
0266722247547852025010904537+40624-074669FM-15+0030KSMQ V0202805V004152200059N0160935N5-00615-01445101005ADDAA101000095GA1005+999999999GD10991+9999999GF100991999999999999999999KA1240M-00061KA2240N-00611MA1100985100625OC100985OD149901331290REMMET12301/08/25 23:53:02 METAR KSMQ 090453Z 28008G19KT 10SM CLR M06/M14 A2982 RMK AO2 PK WND 29026/0420 SLP100 T10611144 410061061
0886722247547852025010904596+40624-074669SOD  +0030KSMQ V020999999999999999999999999999+99999+99999999999ADDAA124000095KA1240M-00055KA2240N-00605MG1101024100984OE11240192229013125OE22240125231013135OE33240060499999995REMSOD73024 HR PRECIPITATION (IN):0.00  24 HR MAX TEMP (F):31 24 HR MAX TEMP TIME (LST):1431 24 HR MIN TEMP (F):21 24 HR MIN TEMP TIME (LST):2359 AVERAGE STATION PRESSURE:29.830 MINIMUM SEA LEVEL PRESSURE:29.82 TIME OF OCCURRENCE:2359 PEAK WIND SPEED (MPH):43  PEAK WIND DIR (DEG):290 PEAK WIND TIME (LST):1312  FASTEST 2MIN SPEED (MPH):28 FASTEST 2MIN DIR (DEG):310 FASTEST 2MIN TIME (LST):1313 AVERAGE WIND SPEED (MPH):13.5 24 HR AVG TEMP (F):26 HEATING DEGREE DAYS:39  COOLING DEGREE DAYS:0   LATEST DAY MAX TEMP (0700-1900 LST):31  LATEST NIGHT MIN TEMP(1900-0800 LST):24 HOURLY INCREMENTAL PRECIPITATION VALUES (IN):.00 0.00 0.00 0.00 0.00 0.00 0.00 0.00 0.00 0.00 0.00 0.00 0.00 0.00 0.00 0.00 0.00 0.00 0.00 0.00 0.00 0.00 0.00 0.00EQDR01     N7GJS072R02     N7GKS075
0274722247547852025010905537+40624-074669FM-15+0030KSMQ V0203005N005152200059N0160935N5-00615-01395100925ADDAA101000095GA1005+999999999GD10991+9999999GF100991999999999999999999KA1060M-00501KA2060N-00611MA1100915100565MD1890219+9999OC101245REMMET13101/09/25 00:53:02 METAR KSMQ 090553Z 30010G24KT 10SM CLR M06/M14 A2980 RMK AO2 PK WND 29029/0531 SLP092 T10611139 11050 21061 58021
0198722247547852025010906537+40624-074669FM-15+0030KSMQ V0202905V005152200059N0160935N5-00615-01395100915ADDAA101000095GA1005+999999999GD10991+9999999GF100991999999999999999999MA1100885100525OC101135REMMET09501/09/25 01:53:02 METAR KSMQ 090653Z 29010G22KT 10SM CLR M06/M14 A2979 RMK AO2 SLP091 T10611139
0331722247547852025010907537+40624-074669FM-15+0030KSMQ V0203005N00575019815MN0160935N5-00565-01395100905ADDAA101000095GA1045+014635999GA2075+019815999GA3075+028965999GD12991+0146359GD23991+0198159GD33991+0289659GE19AGL   +99999+99999GF199999999999014631999999MA1100885100525OC101395OD149901391290REMMET13001/09/25 02:53:02 METAR KSMQ 090753Z 30011G27KT 10SM SCT048 BKN065 BKN095 M06/M14 A2979 RMK AO2 PK WND 29027/0750 SLP090 T10561139
0313722247547852025010908537+40624-074669FM-15+0030KSMQ V0203205N00465033535MN0160935N5-00565-01335100855ADDAA101000095GA1025+014025999GA2085+033535999GD11991+0140259GD24991+0335359GE19AGL   +99999+99999GF199999999999014021999999MA1100815100455MD1890079+9999OC100985OD149901391300REMMET12901/09/25 03:53:02 METAR KSMQ 090853Z 32009G19KT 10SM FEW046 OVC110 M06/M13 A2977 RMK AO2 PK WND 30027/0825 SLP085 T10561133 58007
0274722247547852025010909537+40624-074669FM-15+0030KSMQ V0203005N006752200059N0160935N5-00565-01395100835ADDAA101000095GA1045+033535999GD12991+0335359GE19AGL   +99999+99999GF104995999999033531999999MA1100785100425OC101245OD149901441300REMMET11601/09/25 04:53:02 METAR KSMQ 090953Z 30013G24KT 10SM SCT110 M06/M14 A2976 RMK AO2 PK WND 30028/0935 SLP083 T10561139EQDD01      0ADE726
0216722247547852025010910537+40624-074669FM-15+0030KSMQ V0202905N006252200059N0160935N5-00565-01395100845ADDAA101000095GA1005+999999999GD10991+9999999GF100991999999999999999999MA1100815100455OC101345REMMET11301/09/25 05:53:02 METAR KSMQ 091053Z 29012G26KT 10SM CLR M06/M14 A2977 RMK AO2 PK WND 32026/1044 SLP084 T10561139
0274722247547852025010911537+40624-074669FM-15+0030KSMQ V0203205N006752200059N0160935N5-00565-01335100915ADDAA101000095GA1005+999999999GD10991+9999999GF100991999999999999999999KA1060M-00561KA2060N-00611MA1100885100525MD1390059+9999OC101295REMMET13101/09/25 06:53:02 METAR KSMQ 091153Z 32013G25KT 10SM CLR M06/M13 A2979 RMK AO2 PK WND 31029/1132 SLP091 T10561133 11056 21061 53005
0216722247547852025010912537+40624-074669FM-15+0030KSMQ V0203005N006752200059N0160935N5-00565-01335100875ADDAA101000095GA1005+999999999GD10991+9999999GF100991999999999999999999MA1100855100495OC101395REMMET11301/09/25 07:53:02 METAR KSMQ 091253Z 30013G27KT 10SM CLR M06/M13 A2978 RMK AO2 PK WND 31031/1243 SLP087 T10561133
0216722247547852025010913537+40624-074669FM-15+0030KSMQ V0203105N007252200059N0160935N5-00445-01335100965ADDAA101000095GA1005+999999999GD10991+9999999GF100991999999999999999999MA1100915100565OC101445REMMET11301/09/25 08:53:02 METAR KSMQ 091353Z 31014G28KT 10SM CLR M04/M13 A2980 RMK AO2 PK WND 29030/1313 SLP096 T10441133
0236722247547852025010914537+40624-074669FM-15+0030KSMQ V0203105N006752200059N0160935N5-00285-01285101015ADDAA101000095GA1005+999999999GD10991+9999999GF100991999999999999999999MA1100985100625MD1390109+9999OC101705REMMET11901/09/25 09:53:02 METAR KSMQ 091453Z 31013G33KT 10SM CLR M03/M13 A2982 RMK AO2 PK WND 29033/1447 SLP101 T10281128 53010
0230722247547852025010915537+40624-074669FM-15+0030KSMQ V0202905V007752200059N0160935N5-00175-01225100975ADDAA101000095GA1005+999999999GD10991+9999999GF100991999999999999999999MA1100955100595OC101705OD149901691320REMMET11301/09/25 10:53:02 METAR KSMQ 091553Z 29015G33KT 10SM CLR M02/M12 A2981 RMK AO2 PK WND 32033/1546 SLP097 T10171122
0230722247547852025010916537+40624-074669FM-15+0030KSMQ V0203005V005752200059N0160935N5-00065-01175100915ADDAA101000095GA1005+999999999GD10991+9999999GF100991999999999999999999MA1100885100525OC101445OD149901751290REMMET11301/09/25 11:53:02 METAR KSMQ 091653Z 30011G28KT 10SM CLR M01/M12 A2979 RMK AO2 PK WND 29034/1642 SLP091 T10061117
0331722247547852025010917537+40624-074669FM-15+0030KSMQ V0202905N007752200059N0160935N5+00065-01115100905ADDAA101000095GA1025+015245999GD11991+0152459GE19AGL   +99999+99999GF102995999999015241999999KA1060M+00061KA2060N-00561MA1100885100525MD1690109+9999OC101705OD149901691320REMMET13301/09/25 12:53:02 METAR KSMQ 091753Z 29015G33KT 10SM FEW050 01/M11 A2979 RMK AO2 PK WND 32033/1750 SLP090 T00061111 10006 21056 56010EQDD01      0ADE726
0229722247547852025010918537+40624-074669FM-15+0030KSMQ V0203005V007752200059N0160935N5+00115-01065100885ADDAA101000095GA1005+999999999GD10991+9999999GF100991999999999999999999MA1100855100495OC101495OD149901691300REMMET11201/09/25 13:53:02 METAR KSMQ 091853Z 30015G29KT 10SM CLR 01/M11 A2978 RMK AO2 PK WND 30033/1803 SLP088 T00111106
0215722247547852025010919537+40624-074669FM-15+0030KSMQ V0203105N010852200059N0160935N5+00115-00945100925ADDAA101000095GA1005+999999999GD10991+9999999GF100991999999999999999999MA1100885100525OC101805REMMET11201/09/25 14:53:02 METAR KSMQ 091953Z 31021G35KT 10SM CLR 01/M09 A2979 RMK AO2 PK WND 28035/1950 SLP092 T00111094
0209722247547852025010920536+40624-074669FM-15+0030KSMQ V0203005N008252200059N0160935N5+00065-00945100995ADDAA101000095GA1005+999999999GD10991+9999999MA1100955100595MD1390099+9999OC101345REMMET11801/09/25 15:53:02 METAR KSMQ 092053Z 30016G26KT 10SM CLR 01/M09 A2981 RMK AO2 PK WND 29035/1955 SLP099 T00061094 53009
0216722247547852025010921537+40624-074669FM-15+0030KSMQ V0203105N006752200059N0160935N5-00065-00945101065ADDAA101000095GA1005+999999999GD10991+9999999GF100991999999999999999999MA1101055100695OC101295REMMET11301/09/25 16:53:02 METAR KSMQ 092153Z 31013G25KT 10SM CLR M01/M09 A2984 RMK AO2 PK WND 31026/2102 SLP106 T10061094
0216722247547852025010922537+40624-074669FM-15+0030KSMQ V0203205N006252200059N0160935N5-00115-00945101115ADDAA101000095GA1005+999999999GD10991+9999999GF100991999999999999999999MA1101085100725OC101395REMMET11301/09/25 17:53:02 METAR KSMQ 092253Z 32012G27KT 10SM CLR M01/M09 A2985 RMK AO2 PK WND 31027/2248 SLP111 T10111094
0274722247547852025010923537+40624-074669FM-15+0030KSMQ V0203005N006752200059N0160935N5-00175-00945101135ADDAA101000095GA1005+999999999GD10991+9999999GF100991999999999999999999KA1060M+00111KA2060N-00171MA1101125100765MD1190159+9999OC101135REMMET13101/09/25 18:53:02 METAR KSMQ 092353Z 30013G22KT 10SM CLR M02/M09 A2986 RMK AO2 PK WND 30029/2256 SLP113 T10171094 10011 21017 51015
0198722247547852025011000537+40624-074669FM-15+0030KSMQ V0203105N006252200059N0160935N5-00175-00895101215ADDAA101000095GA1005+999999999GD10991+9999999GF100991999999999999999999MA1101195100835OC101135REMMET09501/09/25 19:53:01 METAR KSMQ 100053Z 31012G22KT 10SM CLR M02/M09 A2988 RMK AO2 SLP121 T10171089
0216722247547852025011001537+40624-074669FM-15+0030KSMQ V0203105N006252200059N0160935N5-00225-00895101245ADDAA101000095GA1005+999999999GD10991+9999999GF100991999999999999999999MA1101225100865OC101035REMMET11301/09/25 20:53:01 METAR KSMQ 100153Z 31012G20KT 10SM CLR M02/M09 A2989 RMK AO2 PK WND 29028/0104 SLP124 T10221089
