0162724084547602023010100184+40187-074125FM-16+004899999V0209999N999990006119N001207199+99999+99999999999ADDAA101000231AW1611GD14991+0006119GE19AGL   +99999+99999GF199999999999000611999999REMMET070SPECI KBLM 010018Z AUTO 3/4SM -RA OVC002 RMK AO2 P0001 FZRANO RVRNO $=
0211724084547602023010100274+40187-074125FM-16+004899999V0209999C000010006119N001609199+99999+99999999999ADDAA101000231AW1611GD13991+0006119GD24991+0033519GE19AGL   +99999+99999GF199999999999000611999999MA1101051999999REMMET089SPECI KBLM 010027Z AUTO 00000KT 1SM -RA BKN002 OVC011 A2984 RMK AO2 P0001 FZRANO RVRNO $=
0213724084547602023010100374+40187-074125FM-16+004899999V0201901N002110006119N001207199+99999+99999999999ADDAA101000231AW1611GD13991+0006119GD24991+0033519GE19AGL   +99999+99999GF199999999999000611999999MA1101081999999REMMET091SPECI KBLM 010037Z AUTO 19004KT 3/4SM -RA BKN002 OVC011 A2985 RMK AO2 P0001 FZRANO RVRNO $=
0223724084547602023010100504+40187-074125FM-16+004899999V0202001N001510006119N001609199+99999+99999999999ADDAA101000531AW1611GD13991+0012211GD24991+0033519GE19AGL   +99999+99999GF199999999999001221999999MA1101051999999REMMET101SPECI KBLM 010050Z AUTO 20003KT 1SM -RA BKN004 OVC011 A2984 RMK AO2 CIG 002V007 P0002 FZRANO RVRNO $=
0229724084547602023010100514+40187-074125FM-15+004899999V0202001N001510006119N001609199+99999+99999999999ADDAA101000531AW1611GD13991+0012211GD24991+0033519GE19AGL   +99999+99999GF199999999999001221999999MA1101051999999REMMET107METAR KBLM 010051Z AUTO 20003KT 1SM -RA BKN004 OVC011 A2984 RMK AO2 CIG 002V007 SLPNO P0002 FZRANO RVRNO $=
0195724084547602023010101104+40187-074125FM-16+004899999V0202201N002610006119N003219199+99999+99999999999ADDAA101000021AW1611GD14991+0012211GE19AGL   +99999+99999GF199999999999001221999999MA1101021999999REMMET088SPECI KBLM 010110Z AUTO 22005KT 2SM -RA OVC004 A2983 RMK AO2 CIG 002V009 P0000 FZRANO $=
0205724084547602023010101174+40187-074125FM-16+004899999V0202201N002610012219N014484199+99999+99999999999ADDAA101000021AW1611GD13991+0012219GD24991+0021319GE19AGL   +99999+99999GF199999999999001221999999MA1101021999999REMMET083SPECI KBLM 010117Z AUTO 22005KT 9SM -RA BKN004 OVC007 A2983 RMK AO2 P0000 FZRANO $=
0196724084547602023010101394+40187-074125FM-16+004899999V0202001N002610009119N016093199+99999+99999999999ADDAA101000231AW1611GD14991+0018311GE19AGL   +99999+99999GF199999999999001831999999MA1100981999999REMMET089SPECI KBLM 010139Z AUTO 20005KT 10SM -RA OVC006 A2982 RMK AO2 CIG 003V008 P0001 FZRANO $=
0189724084547602023010101564+40187-074125FM-15+004899999V0202301N002610018319N014484199+99999+99999999999ADDAA101000231AW1611GD14991+0018319GE19AGL   +99999+99999GF199999999999001831999999MA1100981999999REMMET082METAR KBLM 010156Z AUTO 23005KT 9SM -RA OVC006 A2982 RMK AO2 SLPNO P0001 FZRANO $=
0257724084547602023010102564+40187-074125FM-15+004899999V0202401N002610012219N014484199+99999+99999999999ADDAA101001531AA203002391AW1611GD14991+0018311GE19AGL   +99999+99999GF199999999999001831999999MA1100911999999MD1610241+9999REMMET106METAR KBLM 010256Z AUTO 24005KT 9SM -RA OVC006 A2980 RMK AO2 CIG 004V009 SLPNO P0006 60009 56024 FZRANO $=EQDQ01  00228PRCP03
0201724084547602023010103564+40187-074125FM-15+004899999V0202201N003610015219N014484199+99999+99999999999ADDAA101001031AW1611GD14991+0018311GE19AGL   +99999+99999GF199999999999001831999999MA1100951999999REMMET094METAR KBLM 010356Z AUTO 22007KT 9SM -RA OVC006 A2981 RMK AO2 CIG 005V011 SLPNO P0004 FZRANO $=
0192724084547602023010104434+40187-074125FM-16+004899999V0202201N003110009119N016093199+99999+99999999999ADDAA101000231GD14991+0012211GE19AGL   +99999+99999GF199999999999001221999999MA1100781999999REMMET091SPECI KBLM 010443Z AUTO 22006KT 10SM OVC004 A2976 RMK AO2 RAE41 CIG 003V012 P0001 FZRANO $=
0226724084547602023010104567+40183-074133FM-15+0048KBLM V0209999C00005001225MN0160935N5+99999+99999999999ADDAA101000395GA1085+001225999GD14991+0012251GE19AGL   +99999+99999GF199999999999001221999999MA1100685100105REMMET10912/31/22 23:56:02 METAR KBLM 010456Z 00000KT 10SM OVC004 A2973 RMK AO2 RAE41 CIG 003V008 SLPNO P0001 FZRANO $
0235724084547602023010105137+40183-074133FM-15+0048KBLM V0202405N00315002135MN0160935N5+99999+99999999999ADDGA1025+001225999GA2085+002135999GD11991+0012251GD24991+0021359GE19AGL   +99999+99999GF199999999999001221999999MA1100785100215REMMET09801/01/23 00:13:02 METAR KBLM 010513Z 24006KT 10SM FEW004 OVC007 A2976 RMK AO2 CIG 006V011 FZRANO $
0197724084547602023010105407+40183-074133FM-15+0048KBLM V0202605N00465001225MN0160935N5+99999+99999999999ADDGA1085+001225999GD14991+0012251GE19AGL   +99999+99999GF199999999999001221999999MA1100815100245REMMET09101/01/23 00:40:02 METAR KBLM 010540Z 26009KT 10SM OVC004 A2977 RMK AO2 CIG 002V009 FZRANO $
0246724084547602023010105567+40183-074133FM-15+0048KBLM V0202505N00415001225MN0144845N5+99999+99999999999ADDAA106003691GA1085+001225999GD14991+0012259GE19AGL   +99999+99999GF199999999999001221999999MA1100785100215MD1590149+9999REMMET09601/01/23 00:56:02 METAR KBLM 010556Z 25008KT 9SM OVC004 A2976 RMK AO2 SLPNO 60014 55014 FZRANO $EQDQ01  00358PRCP06
0185724084547602023010106307+40183-074133FM-15+0048KBLM V0202605N00515001835MN0160935N5+99999+99999999999ADDGA1085+001835999GD14991+0018359GE19AGL   +99999+99999GF199999999999001831999999MA1100815100245REMMET07901/01/23 01:30:02 METAR KBLM 010630Z 26010KT 10SM OVC006 A2977 RMK AO2 FZRANO $
0191724084547602023010106567+40183-074133FM-15+0048KBLM V0202605N00415001835MN0160935N5+99999+99999999999ADDGA1085+001835999GD14991+0018359GE19AGL   +99999+99999GF199999999999001831999999MA1100855100275REMMET08501/01/23 01:56:02 METAR KBLM 010656Z 26008KT 10SM OVC006 A2978 RMK AO2 SLPNO FZRANO $
0203724084547602023010107567+40183-074133FM-15+0048KBLM V0202605N00365001835MN0160935N5+99999+99999999999ADDGA1085+001835999GD14991+0018351GE19AGL   +99999+99999GF199999999999001831999999MA1100915100345REMMET09701/01/23 02:56:02 METAR KBLM 010756Z 26007KT 10SM OVC006 A2980 RMK AO2 CIG 004V009 SLPNO FZRANO $
0229724084547602023010108567+40183-074133FM-15+0048KBLM V0202605N00365002445MN0160935N5+99999+99999999999ADDGA1085+002445999GD14991+0024451GE19AGL   +99999+99999GF199999999999002441999999MA1100985100415MD1290209+9999REMMET10901/01/23 03:56:02 METAR KBLM 010856Z 26007KT 10SM OVC008 A2982 RMK AO2 CIG 007V011 SLPNO 6//// 52020 FZRANO $
0203724084547602023010109247+40183-074133FM-15+0048KBLM V0202505N003152200059N0144845N5+99999+99999999999ADDGA1045+002445999GD12991+0024459GE19AGL   +99999+99999GF104995999999002441999999MA1101025100445REMMET07801/01/23 04:24:02 METAR KBLM 010924Z 25006KT 9SM SCT008 A2983 RMK AO2 FZRANO $EQDD01      0ADE726
0196724084547602023010109437+40183-074133FM-15+0048KBLM V0202505N00365002445MN0128755N5+99999+99999999999ADDGA1075+002445999GD13991+0024451GE19AGL   +99999+99999GF199999999999002441999999MA1101025100445REMMET09001/01/23 04:43:02 METAR KBLM 010943Z 25007KT 8SM BKN008 A2983 RMK AO2 CIG 007V012 FZRANO $
0203724084547602023010109527+40183-074133FM-15+0048KBLM V0202505N003152200059N0112655N5+99999+99999999999ADDGA1045+002445999GD12991+0024459GE19AGL   +99999+99999GF104995999999002441999999MA1101025100445REMMET07801/01/23 04:52:02 METAR KBLM 010952Z 25006KT 7SM SCT008 A2983 RMK AO2 FZRANO $EQDD01      0ADE726
0209724084547602023010109567+40183-074133FM-15+0048KBLM V0202605N003652200059N0112655N5+99999+99999999999ADDGA1025+002445999GD11991+0024459GE19AGL   +99999+99999GF102995999999002441999999MA1101025100445REMMET08401/01/23 04:56:02 METAR KBLM 010956Z 26007KT 7SM FEW008 A2983 RMK AO2 SLPNO FZRANO $EQDD01      0ADE726
0165724084547602023010110567+40183-074133FM-15+0048KBLM V0202505N004652200059N0128755N5+99999+99999999999ADDGA1005+999999999GD10991+9999999GF100991999999999999999999MA1101125100545REMMET08101/01/23 05:56:02 METAR KBLM 011056Z 25009KT 8SM CLR A2986 RMK AO2 SLPNO FZRANO $
0208724084547602023010111567+40183-074133FM-15+0048KBLM V0202405N002652200059N0112655N5+99999+99999999999ADDAA124999919GA1005+999999999GD10991+9999999GF100991999999999999999999MA1101195100615MD1390179+9999REMMET09901/01/23 06:56:02 METAR KBLM 011156Z 24005KT 7SM CLR A2988 RMK AO2 SLPNO 6//// 7//// 53017 FZRANO $
0165724084547602023010112567+40183-074133FM-15+0048KBLM V0202405N003652200059N0144845N5+99999+99999999999ADDGA1005+999999999GD10991+9999999GF100991999999999999999999MA1101295100715REMMET08101/01/23 07:56:02 METAR KBLM 011256Z 24007KT 9SM CLR A2991 RMK AO2 SLPNO FZRANO $
0166724084547602023010113567+40183-074133FM-15+0048KBLM V0202605N004652200059N0160935N5+01005+99999999999ADDGA1005+999999999GD10991+9999999GF100991999999999999999999MA1101355100785REMMET08201/01/23 08:56:02 METAR KBLM 011356Z 26009KT 10SM CLR 10/A2993 RMK AO2 SLPNO T0100
0204724084547602023010114567+40183-074133FM-15+0048KBLM V0202705N007252200059N0160935N5+01065+01065999999ADDGA1005+999999999GD10991+9999999GF100991999999999999999999MA1101465100885MD1190259+9999OC101085REMMET09801/01/23 09:56:02 METAR KBLM 011456Z 27014G21KT 10SM CLR 11/11 A2996 RMK AO2 SLPNO T01060106 51025
0184724084547602023010115567+40183-074133FM-15+0048KBLM V0202805N004652200059N0160935N5+01175+00835999999ADDGA1005+999999999GD10991+9999999GF100991999999999999999999MA1101465100885OC100885REMMET09201/01/23 10:56:02 METAR KBLM 011556Z 28009G17KT 10SM CLR 12/08 A2996 RMK AO2 SLPNO T01170083
0173724084547602023010116567+40183-074133FM-15+0048KBLM V0202805N007252200059N0160935N5+01225+00725999999ADDGA1005+999999999GD10991+9999999GF100991999999999999999999MA1101425100855REMMET08901/01/23 11:56:02 METAR KBLM 011656Z 28014KT 10SM CLR 12/07 A2995 RMK AO2 SLPNO T01220072
0204724084547602023010117567+40183-074133FM-15+0048KBLM V0202605N006752200059N0160935N5+01335+00565999999ADDGA1005+999999999GD10991+9999999GF100991999999999999999999MA1101425100855MD1890039+9999OC100935REMMET09801/01/23 12:56:02 METAR KBLM 011756Z 26013G18KT 10SM CLR 13/06 A2995 RMK AO2 SLPNO T01330056 58003
0173724084547602023010118567+40183-074133FM-15+0048KBLM V0202705N005152200059N0160935N5+01335+00395999999ADDGA1005+999999999GD10991+9999999GF100991999999999999999999MA1101425100855REMMET08901/01/23 13:56:02 METAR KBLM 011856Z 27010KT 10SM CLR 13/04 A2995 RMK AO2 SLPNO T01330039
0173724084547602023010119567+40183-074133FM-15+0048KBLM V0202805N004152200059N0160935N5+01285+00335999999ADDGA1005+999999999GD10991+9999999GF100991999999999999999999MA1101465100885REMMET08901/01/23 14:56:02 METAR KBLM 011956Z 28008KT 10SM CLR 13/03 A2996 RMK AO2 SLPNO T01280033
0193724084547602023010120567+40183-074133FM-15+0048KBLM V0202605N002152200059N0160935N5+01225+00445999999ADDGA1005+999999999GD10991+9999999GF100991999999999999999999MA1101495100915MD1390089+9999REMMET09501/01/23 15:56:02 METAR KBLM 012056Z 26004KT 10SM CLR 12/04 A2997 RMK AO2 SLPNO T01220044 53008
0173724084547602023010121567+40183-074133FM-15+0048KBLM V0202205N002152200059N0160935N5+01065+00445999999ADDGA1005+999999999GD10991+9999999GF100991999999999999999999MA1101525100955REMMET08901/01/23 16:56:02 METAR KBLM 012156Z 22004KT 10SM CLR 11/04 A2998 RMK AO2 SLPNO T01060044
0198724084547602023010122567+40183-074133FM-15+0048KBLM V0202205N00215030485MN0160935N5+00945+00445999999ADDGA1075+030485999GD13991+0304859GE19AGL   +99999+99999GF199999999999030481999999MA1101595101015REMMET09201/01/23 17:56:02 METAR KBLM 012256Z 22004KT 10SM BKN100 09/04 A3000 RMK AO2 SLPNO T00940044
0275724084547602023010123567+40183-074133FM-15+0048KBLM V0202505N003152200059N0160935N5+00835+00505999999ADDGA1045+024385999GD12991+0243859GE19AGL   +99999+99999GF104995999999024381999999KA1060M+01331KA2060N+00831MA1101735101155MD1390219+9999REMMET11001/01/23 18:56:02 METAR KBLM 012356Z 25006KT 10SM SCT080 08/05 A3004 RMK AO2 SLPNO T00830050 10133 20083 53021EQDD01      0ADE726
0173724084547602023010200567+40183-074133FM-15+0048KBLM V0202205N002152200059N0160935N5+00835+00445999999ADDGA1005+999999999GD10991+9999999GF100991999999999999999999MA1101735101155REMMET08901/01/23 19:56:01 METAR KBLM 020056Z 22004KT 10SM CLR 08/04 A3004 RMK AO2 SLPNO T00830044
0174724084547602023010201567+40183-074133FM-15+0048KBLM V0202105N003152200059N0160935N5+00835+00445101735ADDGA1005+999999999GD10991+9999999GF100991999999999999999999MA1101735101155REMMET09001/01/23 20:56:01 METAR KBLM 020156Z 21006KT 10SM CLR 08/04 A3004 RMK AO2 SLP173 T00830044
0194724084547602023010202567+40183-074133FM-15+0048KBLM V0202605N001552200059N0160935N5+00615+00445101775ADDGA1005+999999999GD10991+9999999GF100991999999999999999999MA1101765101185MD1390059+9999REMMET09601/01/23 21:56:01 METAR KBLM 020256Z 26003KT 10SM CLR 06/04 A3005 RMK AO2 SLP177 T00610044 53005
0174724084547602023010203567+40183-074133FM-15+0048KBLM V0202405N001552200059N0160935N5+00675+00445101775ADDGA1005+999999999GD10991+9999999GF100991999999999999999999MA1101765101185REMMET09001/01/23 22:56:02 METAR KBLM 020356Z 24003KT 10SM CLR 07/04 A3005 RMK AO2 SLP177 T00670044
0174724084547602023010204567+40183-074133FM-15+0048KBLM V0202505N001552200059N0160935N5+00505+00445101765ADDGA1005+999999999GD10991+9999999GF100991999999999999999999MA1101765101185REMMET09001/01/23 23:56:02 METAR KBLM 020456Z 25003KT 10SM CLR 05/04 A3005 RMK AO2 SLP176 T00500044
0232724084547602023010205567+40183-074133FM-15+0048KBLM V0202805N002152200059N0160935N5+00395+00395101805ADDGA1005+999999999GD10991+9999999GF100991999999999999999999KA1060M+00891KA2060N+00391MA1101795101225MD1390039+9999REMMET10801/02/23 00:56:02 METAR KBLM 020556Z 28004KT 10SM CLR 04/04 A3006 RMK AO2 SLP180 T00390039 10089 20039 53003
0191724084547602023010206567+40183-074133FM-15+0048KBLM V0202405N001552200059N0160935N5+00395+00395101805ADDAA101000395GA1005+999999999GD10991+9999999GF100991999999999999999999MA1101795101225REMMET09601/02/23 01:56:02 METAR KBLM 020656Z 24003KT 10SM CLR 04/04 A3006 RMK AO2 SLP180 P0001 T00390039
0174724084547602023010207567+40183-074133FM-15+0048KBLM V0202405N002652200059N0160935N5+00505+00445101885ADDGA1005+999999999GD10991+9999999GF100991999999999999999999MA1101865101285REMMET09001/02/23 02:56:02 METAR KBLM 020756Z 24005KT 10SM CLR 05/04 A3008 RMK AO2 SLP188 T00500044
0230724084547602023010208567+40183-074133FM-15+0048KBLM V0209999C000052200059N0160935N5+00445+00445101885ADDAA103000391GA1005+999999999GD10991+9999999GF100991999999999999999999MA1101865101285MD1090089+9999REMMET10201/02/23 03:56:02 METAR KBLM 020856Z 00000KT 10SM CLR 04/04 A3008 RMK AO2 SLP188 60001 T00440044 50008EQDQ01  00028PRCP03
0174724084547602023010209567+40183-074133FM-15+0048KBLM V0202605N001552200059N0160935N5+00445+00445101945ADDGA1005+999999999GD10991+9999999GF100991999999999999999999MA1101935101355REMMET09001/02/23 04:56:02 METAR KBLM 020956Z 26003KT 10SM CLR 04/04 A3010 RMK AO2 SLP194 T00440044
0174724084547602023010210567+40183-074133FM-15+0048KBLM V0209999C000052200059N0160935N5+00445+00445101975ADDGA1005+999999999GD10991+9999999GF100991999999999999999999MA1101965101395REMMET09001/02/23 05:56:02 METAR KBLM 021056Z 00000KT 10SM CLR 04/04 A3011 RMK AO2 SLP197 T00440044
0326724084547602023010211567+40183-074133FM-15+0048KBLM V0202205N00215036585MN0160935N5+00615+00505102015ADDAA106000391AA224000391GA1075+036585999GD13991+0365859GE19AGL   +99999+99999GF199999999999036581999999KA1060M+00611KA2060N+00331MA1102005101425MD1190139+9999REMMET12301/02/23 06:56:02 METAR KBLM 021156Z 22004KT 10SM BKN120 06/05 A3012 RMK AO2 SLP201 60001 70001 T00610050 10061 20033 51013EQDQ01  00028PRCP06Q02  00028PRCP24
0174724084547602023010212567+40183-074133FM-15+0048KBLM V0202405N001552200059N0160935N5+00565+00565102105ADDGA1005+999999999GD10991+9999999GF100991999999999999999999MA1102105101525REMMET09001/02/23 07:56:02 METAR KBLM 021256Z 24003KT 10SM CLR 06/06 A3015 RMK AO2 SLP210 T00560056
0174724084547602023010213567+40183-074133FM-15+0048KBLM V0202505N002152200059N0160935N5+00785+00615102155ADDGA1005+999999999GD10991+9999999GF100991999999999999999999MA1102135101555REMMET09001/02/23 08:56:02 METAR KBLM 021356Z 25004KT 10SM CLR 08/06 A3016 RMK AO2 SLP215 T00780061
0194724084547602023010214567+40183-074133FM-15+0048KBLM V0203205N002152200059N0160935N5+00895+00725102145ADDGA1005+999999999GD10991+9999999GF100991999999999999999999MA1102135101555MD1090149+9999REMMET09601/02/23 09:56:02 METAR KBLM 021456Z 32004KT 10SM CLR 09/07 A3016 RMK AO2 SLP214 T00890072 50014
0174724084547602023010215567+40183-074133FM-15+0048KBLM V0203105N001552200059N0160935N5+01285+00675102125ADDGA1005+999999999GD10991+9999999GF100991999999999999999999MA1102105101525REMMET09001/02/23 10:56:02 METAR KBLM 021556Z 31003KT 10SM CLR 13/07 A3015 RMK AO2 SLP212 T01280067
0174724084547602023010216567+40183-074133FM-15+0048KBLM V0202205N002152200059N0160935N5+01285+00675102035ADDGA1005+999999999GD10991+9999999GF100991999999999999999999MA1102035101455REMMET09001/02/23 11:56:02 METAR KBLM 021656Z 22004KT 10SM CLR 13/07 A3013 RMK AO2 SLP203 T01280067
0232724084547602023010217567+40183-074133FM-15+0048KBLM V0202405N001552200059N0160935N5+01395+00725102015ADDGA1005+999999999GD10991+9999999GF100991999999999999999999KA1060M+01441KA2060N+00501MA1102005101425MD1690139+9999REMMET10801/02/23 12:56:02 METAR KBLM 021756Z 24003KT 10SM CLR 14/07 A3012 RMK AO2 SLP201 T01390072 10144 20050 56013
0174724084547602023010218567+40183-074133FM-15+0048KBLM V0202605N004152200059N0160935N5+01445+00785102015ADDGA1005+999999999GD10991+9999999GF100991999999999999999999MA1102005101425REMMET09001/02/23 13:56:02 METAR KBLM 021856Z 26008KT 10SM CLR 14/08 A3012 RMK AO2 SLP201 T01440078
0218724084547602023010219567+40183-074133FM-15+0048KBLM V0201605N001552200059N0160935N5+01285+00785102045ADDGA1025+010675999GD11991+0106759GE19AGL   +99999+99999GF102995999999010671999999MA1102035101455REMMET09301/02/23 14:56:02 METAR KBLM 021956Z 16003KT 10SM FEW035 13/08 A3013 RMK AO2 SLP204 T01280078EQDD01      0ADE726
0295724084547602023010220567+40183-074133FM-15+0048KBLM V0201705N00155033535MN0160935N5+01285+00785102045ADDGA1025+010675999GA2045+024385999GA3075+033535999GD11991+0106759GD22991+0243859GD33991+0335359GE19AGL   +99999+99999GF199999999999010671999999MA1102035101455MD1390039+9999REMMET11301/02/23 15:56:02 METAR KBLM 022056Z 17003KT 10SM FEW035 SCT080 BKN110 13/08 A3013 RMK AO2 SLP204 T01280078 53003
0237724084547602023010221567+40183-074133FM-15+0048KBLM V0209999C00005033535MN0160935N5+01225+00835102065ADDGA1025+022865999GA2075+033535999GD11991+0228659GD23991+0335359GE19AGL   +99999+99999GF199999999999022861999999MA1102075101495REMMET10001/02/23 16:56:02 METAR KBLM 022156Z 00000KT 10SM FEW075 BKN110 12/08 A3014 RMK AO2 SLP206 T01220083
0237724084547602023010222567+40183-074133FM-15+0048KBLM V0201605N00155012505MN0160935N5+01115+00835102095ADDGA1075+012505999GA2085+014635999GD13991+0125059GD24991+0146359GE19AGL   +99999+99999GF199999999999012501999999MA1102075101495REMMET10001/02/23 17:56:02 METAR KBLM 022256Z 16003KT 10SM BKN041 OVC048 11/08 A3014 RMK AO2 SLP209 T01110083
0295724084547602023010223567+40183-074133FM-15+0048KBLM V0201805N00215019815MN0160935N5+01115+00835102135ADDGA1045+013725999GA2085+019815999GD12991+0137259GD24991+0198159GE19AGL   +99999+99999GF199999999999013721999999KA1060M+01441KA2060N+01111MA1102135101555MD1390099+9999REMMET11801/02/23 18:56:02 METAR KBLM 022356Z 18004KT 10SM SCT045 OVC065 11/08 A3016 RMK AO2 SLP213 T01110083 10144 20111 53009
0199724084547602023010300567+40183-074133FM-15+0048KBLM V0209999C00005018295MN0160935N5+01065+00835102175ADDGA1085+018295999GD14991+0182959GE19AGL   +99999+99999GF199999999999018291999999MA1102175101595REMMET09301/02/23 19:56:01 METAR KBLM 030056Z 00000KT 10SM OVC060 11/08 A3017 RMK AO2 SLP217 T01060083
0225724084547602023010301567+40183-074133FM-15+0048KBLM V0209999C00005014335MN0160935N5+01065+00835102165ADDAA101000021GA1085+014335999GD14991+0143359GE19AGL   +99999+99999GF199999999999014331999999MA1102175101595REMMET10801/02/23 20:56:01 METAR KBLM 030156Z 00000KT 10SM OVC047 11/08 A3017 RMK AO2 RAB30E52 SLP216 P0000 T01060083
0271724084547602023010302567+40183-074133FM-15+0048KBLM V0201705N00215015245MN0160935N5+01005+00895102145ADDAA103000021GA1085+015245999GD14991+0152459GE19AGL   +99999+99999GF199999999999015241999999MA1102135101555MD1090009+9999REMMET10501/02/23 21:56:01 METAR KBLM 030256Z 17004KT 10SM OVC050 10/09 A3016 RMK AO2 SLP214 60000 T01000089 50000EQDQ01  00002PRCP03Q02  00008PRCP03
0199724084547602023010303567+40183-074133FM-15+0048KBLM V0201205N00215015245MN0160935N5+01005+00895102125ADDGA1085+015245999GD14991+0152459GE19AGL   +99999+99999GF199999999999015241999999MA1102105101525REMMET09301/02/23 22:56:01 METAR KBLM 030356Z 12004KT 10SM OVC050 10/09 A3015 RMK AO2 SLP212 T01000089
0235724084547602023010304567+40183-074133FM-15+0048KBLM V0201405N00155015245MN0160935N5+00945+00895102065ADDGA1085+015245999GD14991+0152459GE19AGL   +99999+99999GF199999999999015241999999KA1240M+01441KA2240N+00331MA1102075101495REMMET10301/02/23 23:56:02 METAR KBLM 030456Z 14003KT 10SM OVC050 09/09 A3014 RMK AO2 SLP206 T00940089 401440033
0347724084547602023010305567+40183-074133FM-15+0048KBLM V0201505N00215018295MN0160935N5+00945+00945102045ADDAA106000021GA1075+018295999GA2085+021345999GD13991+0182959GD24991+0213459GE19AGL   +99999+99999GF199999999999018291999999KA1060M+01111KA2060N+00941MA1102035101455MD1890099+9999REMMET12401/03/23 00:56:02 METAR KBLM 030556Z 15004KT 10SM BKN060 OVC070 09/09 A3013 RMK AO2 SLP204 60000 T00940094 10111 20094 58009EQDQ01  00002PRCP06Q02  00008PRCP06
0192724084547602023010306567+40183-074133FM-15+0048KBLM V0201405N00215016765MN0160935N5+00945+99999102015ADDGA1085+016765999GD14991+0167659GE19AGL   +99999+99999GF199999999999016761999999MA1102005101425REMMET08601/03/23 01:56:02 METAR KBLM 030656Z 14004KT 10SM OVC055 09/A3012 RMK AO2 SLP201 T0094
0230724084547602023010307567+40183-074133FM-15+0048KBLM V0201405N00265016765MN0160935N5+00945+99999101985ADDGA1025+013725999GA2085+016765999GD11991+0137259GD24991+0167659GE19AGL   +99999+99999GF199999999999013721999999MA1101965101395REMMET09301/03/23 02:56:02 METAR KBLM 030756Z 14005KT 10SM FEW045 OVC055 09/A3011 RMK AO2 SLP198 T0094
0212724084547602023010308567+40183-074133FM-15+0048KBLM V0201605N00265025915MN0160935N5+00945+99999101955ADDGA1085+025915999GD14991+0259159GE19AGL   +99999+99999GF199999999999025911999999MA1101965101395MD1690089+9999REMMET09201/03/23 03:56:02 METAR KBLM 030856Z 16005KT 10SM OVC085 09/A3011 RMK AO2 SLP195 T0094 56008
0192724084547602023010309567+40183-074133FM-15+0048KBLM V0201505N00265027435MN0160935N5+00945+99999101865ADDGA1085+027435999GD14991+0274359GE19AGL   +99999+99999GF199999999999027431999999MA1101865101285REMMET08601/03/23 04:56:02 METAR KBLM 030956Z 15005KT 10SM OVC090 09/A3008 RMK AO2 SLP186 T0094
0218724084547602023010310567+40183-074133FM-15+0048KBLM V0209999C00005021345MN0160935N5+00945+99999101885ADDAA101000021GA1085+021345999GD14991+0213459GE19AGL   +99999+99999GF199999999999021341999999MA1101865101285REMMET10101/03/23 05:56:02 METAR KBLM 031056Z 00000KT 10SM OVC070 09/A3008 RMK AO2 RAB17E40 SLP188 P0000 T0094
0338724084547602023010311567+40183-074133FM-15+0048KBLM V0201105N00155033535MN0144845N5+99999+99999999999ADDAA106000021GA1025+022865999GA2085+033535999GD11991+0228659GD24991+0335359GE19AGL   +99999+99999GF199999999999022861999999KA1060M+00941KA2060N+00891MA1101795101225MD1690149+9999REMMET11501/03/23 06:56:02 METAR KBLM 031156Z 11003KT 9SM FEW075 OVC110 A3006 RMK AO2 SLPNO 60000 10094 20089 56014 FZRANO $EQDQ01  00002PRCP06Q02  00008PRCP06
0229724084547602023010312567+40183-074133FM-15+0048KBLM V0209999C00005033535MN0144845N5+00895+99999101755ADDGA1045+018295999GA2085+033535999GD12991+0182959GD24991+0335359GE19AGL   +99999+99999GF199999999999018291999999MA1101735101155REMMET09201/03/23 07:56:02 METAR KBLM 031256Z 00000KT 9SM SCT060 OVC110 09/A3004 RMK AO2 SLP175 T0089
0230724084547602023010313567+40183-074133FM-15+0048KBLM V0201405N00155018295MN0160935N5+01005+99999101675ADDGA1075+018295999GA2085+022865999GD13991+0182959GD24991+0228659GE19AGL   +99999+99999GF199999999999018291999999MA1101665101085REMMET09301/03/23 08:56:02 METAR KBLM 031356Z 14003KT 10SM BKN060 OVC075 10/A3002 RMK AO2 SLP167 T0100
0225724084547602023010314567+40183-074133FM-15+0048KBLM V0202005N00265028965MN0160935N5+01175+01175101615ADDGA1085+028965999GD14991+0289659GE19AGL   +99999+99999GF199999999999028961999999MA1101595101015MD1690209+9999REMMET10501/03/23 09:56:02 METAR KBLM 031456Z 20005KT 10SM OVC095 12/12 A3000 RMK AO2 SLP161 6//// T01170117 56020
0242724084547602023010315567+40183-074133FM-15+0048KBLM V0202805N00365022865MN0160935N5+01115+99999101665ADDAA101000021AU110020015AW1615GA1085+022865999GD14991+0228659GE19AGL   +99999+99999GF199999999999022861999999MA1101665101085MW1615REMMET10201/03/23 10:56:02 METAR KBLM 031556Z 28007KT 10SM -RA OVC075 11/A3002 RMK AO2 RAB26 SLP166 P0000 T0111
0306724084547602023010316287+40183-074133FM-15+0048KBLM V0203005N00265008235MN0160935N5+01205+99999999999ADDAA101000021AU110020015AW1615GA1045+005495999GA2075+008235999GA3085+019815999GD12991+0054959GD23991+0082359GD34991+0198159GE19AGL   +99999+99999GF199999999999005491999999MA1101565100985MW1615REMMET10401/03/23 11:28:02 METAR KBLM 031628Z 30005KT 10SM -RA SCT018 BKN027 OVC065 12/A2999 RMK AO2 PRESFR P0000
0281724084547602023010316567+40183-074133FM-15+0048KBLM V0201805N00155004885MN0160935N5+01175+99999101445ADDAA101000395AU110020015AW1615GA1075+004885999GA2085+014635999GD13991+0048859GD24991+0146359GE19AGL   +99999+99999GF199999999999004881999999MA1101425100855MW1615REMMET11001/03/23 11:56:02 METAR KBLM 031656Z 18003KT 10SM -RA BKN016 OVC048 12/A2995 RMK AO2 PRESFR SLP144 P0001 T0117
0298724084547602023010317157+40183-074133FM-15+0048KBLM V0202005N00155010365MN0096565N5+01205+99999999999ADDAA101000395AU110020015AW1615GA1025+005495999GA2075+010365999GA3085+028965999GD11991+0054959GD23991+0103659GD34991+0289659GE19AGL   +99999+99999GF199999999999005491999999MA1101465100885MW1615REMMET09601/03/23 12:15:02 METAR KBLM 031715Z 20003KT 6SM -RA FEW018 BKN034 OVC095 12/A2996 RMK AO2 P0001
0336724084547602023010317567+40183-074133FM-15+0048KBLM V0201905N00155018295MN0112655N5+99999+99999999999ADDAA101000895AU110020015AW1615GA1025+005795999GA2045+014945999GA3085+018295999GD11991+0057959GD22991+0149459GD34991+0182959GE19AGL   +99999+99999GF199999999999005791999999MA1101355100785MD1890239+9999MW1615REMMET12001/03/23 12:56:02 METAR KBLM 031756Z 19003KT 7SM -RA FEW019 SCT049 OVC060 A2993 RMK AO2 SLPNO P0003 6//// 58023 FZRANO $
0278724084547602023010318407+40183-074133FM-15+0048KBLM V0202105N00315003965MN0160935N5+01405+99999999999ADDAA101000021GA1075+003965999GA2075+008535999GA3075+019815999GD13991+0039659GD23991+0085359GD33991+0198159GE19AGL   +99999+99999GF199999999999003961999999MA1101325100755REMMET09901/03/23 13:40:02 METAR KBLM 031840Z 21006KT 10SM BKN013 BKN028 BKN065 14/A2992 RMK AO2 RAE24 P0000
0215724084547602023010318567+40183-074133FM-15+0048KBLM V0202105N00465003965MN0160935N5+01445+99999101285ADDAA101000021GA1075+003965999GD13991+0039659GE19AGL   +99999+99999GF199999999999003961999999MA1101295100715REMMET09801/03/23 13:56:02 METAR KBLM 031856Z 21009KT 10SM BKN013 14/A2991 RMK AO2 RAE24 SLP128 P0000 T0144
0217724084547602023010319417+40183-074133FM-15+0048KBLM V0202105N00315033535MN0160935N5+01505+99999999999ADDGA1045+003355999GA2085+033535999GD12991+0033559GD24991+0335359GE19AGL   +99999+99999GF199999999999003351999999MA1101225100645REMMET08001/03/23 14:41:02 METAR KBLM 031941Z 21006KT 10SM SCT011 OVC110 15/A2989 RMK AO2
0230724084547602023010319567+40183-074133FM-15+0048KBLM V0202005N00315033535MN0160935N5+01505+99999101205ADDGA1025+003965999GA2085+033535999GD11991+0039659GD24991+0335359GE19AGL   +99999+99999GF199999999999003961999999MA1101195100615REMMET09301/03/23 14:56:02 METAR KBLM 031956Z 20006KT 10SM FEW013 OVC110 15/A2988 RMK AO2 SLP120 T0150
0255724084547602023010320567+40183-074133FM-15+0048KBLM V0201805N00155033535MN0160935N5+01445+01445101135ADDAA103000021GA1085+033535999GD14991+0335359GE19AGL   +99999+99999GF199999999999033531999999MA1101125100545MD1690249+9999REMMET10501/03/23 15:56:02 METAR KBLM 032056Z 18003KT 10SM OVC110 14/14 A2986 RMK AO2 SLP113 60000 T01440144 56024EQDQ01  00008PRCP03
0191724084547602023010321567+40183-074133FM-15+0048KBLM V0201505N00265033535MN0112655N5+01175+99999101065ADDGA1075+033535999GD13991+0335359GE19AGL   +99999+99999GF199999999999033531999999MA1101055100485REMMET08501/03/23 16:56:02 METAR KBLM 032156Z 15005KT 7SM BKN110 12/A2984 RMK AO2 SLP106 T0117
0166724084547602023010322567+40183-074133FM-15+0048KBLM V0201605N002652200059N0144845N5+01115+99999101045ADDGA1005+999999999GD10991+9999999GF100991999999999999999999MA1101055100485REMMET08201/03/23 17:56:02 METAR KBLM 032256Z 16005KT 9SM CLR 11/A2984 RMK AO2 SLP104 T0111
0222724084547602023010323567+40183-074133FM-15+0048KBLM V0201805N002152200059N0160935N5+01225+99999999999ADDAA106000021GA1005+999999999GD10991+9999999GF100991999999999999999999MA1101085100515MD1590069+9999REMMET09401/03/23 18:56:02 METAR KBLM 032356Z 18004KT 10SM CLR 12/A2985 RMK AO2 SLPNO 60000 T0122 55006EQDQ01  00008PRCP06
0167724084547602023010400567+40183-074133FM-15+0048KBLM V0201805N002652200059N0160935N5+01225+99999101055ADDGA1005+999999999GD10991+9999999GF100991999999999999999999MA1101055100485REMMET08301/03/23 19:56:01 METAR KBLM 040056Z 18005KT 10SM CLR 12/A2984 RMK AO2 SLP105 T0122
0174724084547602023010401567+40183-074133FM-15+0048KBLM V0202205N002152200059N0160935N5+01335+01335101055ADDGA1005+999999999GD10991+9999999GF100991999999999999999999MA1101055100485REMMET09001/03/23 20:56:01 METAR KBLM 040156Z 22004KT 10SM CLR 13/13 A2984 RMK AO2 SLP105 T01330133
0194724084547602023010402567+40183-074133FM-15+0048KBLM V0202105N002652200059N0160935N5+01395+01335101025ADDGA1005+999999999GD10991+9999999GF100991999999999999999999MA1101025100445MD1690059+9999REMMET09601/03/23 21:56:01 METAR KBLM 040256Z 21005KT 10SM CLR 14/13 A2983 RMK AO2 SLP102 T01390133 56005
0218724084547602023010403567+40183-074133FM-15+0048KBLM V0201605N002152200059N0160935N5+01225+01225100995ADDGA1025+036585999GD11991+0365859GE19AGL   +99999+99999GF102995999999036581999999MA1100985100415REMMET09301/03/23 22:56:01 METAR KBLM 040356Z 16004KT 10SM FEW120 12/12 A2982 RMK AO2 SLP099 T01220122EQDD01      0ADE726
0203724084547602023010404567+40183-074133FM-15+0048KBLM V0201805N002152200059N0160935N5+01175+99999100935ADDGA1005+999999999GD10991+9999999GF100991999999999999999999KA1240M+01611KA2240N+00891MA1100915100345REMMET09301/03/23 23:56:01 METAR KBLM 040456Z 18004KT 10SM CLR 12/A2980 RMK AO2 SLP093 T0117 401610089
001572408454760202301040459O+40183-074133SOD  +0048KBLM V020999999999999999999999999999+99999+99999999999ADDAT1AU16RA  5
0224724084547602023010405567+40183-074133FM-15+0048KBLM V0202205N002652200059N0160935N5+01225+99999999999ADDGA1005+999999999GD10991+9999999GF100991999999999999999999KA1060M+01441KA2060N+01111MA1100915100345MD1690109+9999REMMET10001/04/23 00:56:01 METAR KBLM 040556Z 22005KT 10SM CLR 12/A2980 RMK AO2 SLPNO T0122 10144 20111 56010
0174724084547602023010406567+40183-074133FM-15+0048KBLM V0202305N003652200059N0160935N5+01445+01445101015ADDGA1005+999999999GD10991+9999999GF100991999999999999999999MA1101025100445REMMET09001/04/23 01:56:01 METAR KBLM 040656Z 23007KT 10SM CLR 14/14 A2983 RMK AO2 SLP101 T01440144
0237724084547602023010407567+40183-074133FM-15+0048KBLM V0202305N00415009145MN0160935N5+01565+01445101005ADDGA1075+009145999GA2085+022865999GD13991+0091459GD24991+0228659GE19AGL   +99999+99999GF199999999999009141999999MA1101025100445REMMET10001/04/23 02:56:01 METAR KBLM 040756Z 23008KT 10SM BKN030 OVC075 16/14 A2983 RMK AO2 SLP100 T01560144
0182724084547602023010408117+40183-074133FM-15+0048KBLM V0202305N00515008535MN0160935N5+01605+01405999999ADDGA1085+008535999GD14991+0085359GE19AGL   +99999+99999GF199999999999008531999999MA1100985100415REMMET07601/04/23 03:11:01 METAR KBLM 040811Z 23010KT 10SM OVC028 16/14 A2982 RMK AO2
0182724084547602023010408337+40183-074133FM-15+0048KBLM V0202305N00415009145MN0160935N5+01605+01405999999ADDGA1085+009145999GD14991+0091459GE19AGL   +99999+99999GF199999999999009141999999MA1100985100415REMMET07601/04/23 03:33:01 METAR KBLM 040833Z 23008KT 10SM OVC030 16/14 A2982 RMK AO2
0257724084547602023010408567+40183-074133FM-15+0048KBLM V0202305N00415036585MN0160935N5+01565+01445100995ADDGA1025+009755999GA2075+036585999GD11991+0097559GD23991+0365859GE19AGL   +99999+99999GF199999999999009751999999MA1100985100415MD1090079+9999REMMET10601/04/23 03:56:01 METAR KBLM 040856Z 23008KT 10SM FEW032 BKN120 16/14 A2982 RMK AO2 SLP099 T01560144 50007
0199724084547602023010409567+40183-074133FM-15+0048KBLM V0202305N00415033535MN0160935N5+01505+01445101055ADDGA1075+033535999GD13991+0335359GE19AGL   +99999+99999GF199999999999033531999999MA1101055100485REMMET09301/04/23 04:56:01 METAR KBLM 040956Z 23008KT 10SM BKN110 15/14 A2984 RMK AO2 SLP105 T01500144
0174724084547602023010410567+40183-074133FM-15+0048KBLM V0202405N003652200059N0160935N5+01445+01445101125ADDGA1005+999999999GD10991+9999999GF100991999999999999999999MA1101125100545REMMET09001/04/23 05:56:02 METAR KBLM 041056Z 24007KT 10SM CLR 14/14 A2986 RMK AO2 SLP112 T01440144
0249724084547602023010411567+40183-074133FM-15+0048KBLM V0202305N003152200059N0160935N5+01335+01335101175ADDAA124999919GA1005+999999999GD10991+9999999GF100991999999999999999999KA1060M+01561KA2060N+01221MA1101195100615MD1190179+9999REMMET11401/04/23 06:56:02 METAR KBLM 041156Z 23006KT 10SM CLR 13/13 A2988 RMK AO2 SLP117 7//// T01330133 10156 20122 51017
0167724084547602023010412567+40183-074133FM-15+0048KBLM V0202205N003152200059N0160935N5+01395+99999101215ADDGA1005+999999999GD10991+9999999GF100991999999999999999999MA1101225100645REMMET08301/04/23 07:56:02 METAR KBLM 041256Z 22006KT 10SM CLR 14/A2989 RMK AO2 SLP121 T0139
0174724084547602023010413567+40183-074133FM-15+0048KBLM V0202405N003652200059N0160935N5+01615+01565101335ADDGA1005+999999999GD10991+9999999GF100991999999999999999999MA1101325100755REMMET09001/04/23 08:56:02 METAR KBLM 041356Z 24007KT 10SM CLR 16/16 A2992 RMK AO2 SLP133 T01610156
0194724084547602023010414567+40183-074133FM-15+0048KBLM V0202305N003152200059N0160935N5+01675+01565101305ADDGA1005+999999999GD10991+9999999GF100991999999999999999999MA1101295100715MD1090139+9999REMMET09601/04/23 09:56:02 METAR KBLM 041456Z 23006KT 10SM CLR 17/16 A2991 RMK AO2 SLP130 T01670156 50013
0174724084547602023010415567+40183-074133FM-15+0048KBLM V0202405N004152200059N0160935N5+01785+01565101325ADDGA1005+999999999GD10991+9999999GF100991999999999999999999MA1101325100755REMMET09001/04/23 10:56:02 METAR KBLM 041556Z 24008KT 10SM CLR 18/16 A2992 RMK AO2 SLP132 T01780156
0174724084547602023010416567+40183-074133FM-15+0048KBLM V0202105N003652200059N0160935N5+01945+01565101245ADDGA1005+999999999GD10991+9999999GF100991999999999999999999MA1101255100685REMMET09001/04/23 11:56:02 METAR KBLM 041656Z 21007KT 10SM CLR 19/16 A2990 RMK AO2 SLP124 T01940156
0232724084547602023010417567+40183-074133FM-15+0048KBLM V0202105N003152200059N0160935N5+01945+01505101165ADDGA1005+999999999GD10991+9999999GF100991999999999999999999KA1060M+02001KA2060N+01331MA1101155100585MD1890149+9999REMMET10801/04/23 12:56:02 METAR KBLM 041756Z 21006KT 10SM CLR 19/15 A2987 RMK AO2 SLP116 T01940150 10200 20133 58014
0174724084547602023010418567+40183-074133FM-15+0048KBLM V0209999C000052200059N0160935N5+01945+01565101095ADDGA1005+999999999GD10991+9999999GF100991999999999999999999MA1101085100515REMMET09001/04/23 13:56:02 METAR KBLM 041856Z 00000KT 10SM CLR 19/16 A2985 RMK AO2 SLP109 T01940156
0174724084547602023010419567+40183-074133FM-15+0048KBLM V0201305N001552200059N0160935N5+01785+01565101055ADDGA1005+999999999GD10991+9999999GF100991999999999999999999MA1101055100485REMMET09001/04/23 14:56:02 METAR KBLM 041956Z 13003KT 10SM CLR 18/16 A2984 RMK AO2 SLP105 T01780156
0194724084547602023010420567+40183-074133FM-15+0048KBLM V0201805N002652200059N0160935N5+01725+01505101065ADDGA1005+999999999GD10991+9999999GF100991999999999999999999MA1101085100515MD1590099+9999REMMET09601/04/23 15:56:02 METAR KBLM 042056Z 18005KT 10SM CLR 17/15 A2985 RMK AO2 SLP106 T01720150 55009
0263724084547602023010421567+40183-074133FM-15+0048KBLM V0201605N00265009145MN0160935N5+01565+01565101045ADDAA101000021GA1075+009145999GA2085+033535999GD13991+0091459GD24991+0335359GE19AGL   +99999+99999GF199999999999009141999999MA1101055100485REMMET11501/04/23 16:56:02 METAR KBLM 042156Z 16005KT 10SM BKN030 OVC110 16/16 A2984 RMK AO2 RAB09E44 SLP104 P0000 T01560156
0270724084547602023010422147+40183-074133FM-15+0048KBLM V0201205N00215008535MN0160935N5+01605+01505999999ADDAA101000021AU110020015AW1615GA1075+008535999GA2085+030485999GD13991+0085359GD24991+0304859GE19AGL   +99999+99999GF199999999999008531999999MA1100985100415MW1615REMMET09901/04/23 17:14:02 METAR KBLM 042214Z 12004KT 10SM -RA BKN028 OVC100 16/15 A2982 RMK AO2 RAB03 P0000
0270724084547602023010422287+40183-074133FM-15+0048KBLM V0201405N00215030485MN0160935N5+01505+01505999999ADDAA101000021AU110020015AW1615GA1025+008535999GA2085+030485999GD11991+0085359GD24991+0304859GE19AGL   +99999+99999GF199999999999008531999999MA1100985100415MW1615REMMET09901/04/23 17:28:02 METAR KBLM 042228Z 14004KT 10SM -RA FEW028 OVC100 15/15 A2982 RMK AO2 RAB03 P0000
0263724084547602023010422567+40183-074133FM-15+0048KBLM V0201605N00315030485MN0160935N5+01445+01445101025ADDAA101000021GA1025+006105999GA2085+030485999GD11991+0061059GD24991+0304859GE19AGL   +99999+99999GF199999999999006101999999MA1101025100445REMMET11501/04/23 17:56:02 METAR KBLM 042256Z 16006KT 10SM FEW020 OVC100 14/14 A2983 RMK AO2 RAB03E31 SLP102 P0000 T01440144
0374724084547602023010423567+40183-074133FM-15+0048KBLM V0201705N00215021345MN0160935N5+01445+99999101035ADDAA101000021AA206000021AU110020015AW1615GA1025+018295999GA2085+021345999GD11991+0182959GD24991+0213459GE19AGL   +99999+99999GF199999999999018291999999KA1060M+01941KA2060N+01391MA1101055100485MD1590039+9999MW1615REMMET13301/04/23 18:56:02 METAR KBLM 042356Z 17004KT 10SM -RA FEW060 OVC070 14/A2984 RMK AO2 RAB48 SLP103 P0000 60000 T0144 10194 20139 55003EQDQ01  00008PRCP06
0289724084547602023010500567+40183-074133FM-15+0048KBLM V0201905N00265024385MN0128755N5+99999+99999999999ADDAA101000395GA1025+002135999GA2045+019815999GA3085+024385999GD11991+0021359GD22991+0198159GD34991+0243859GE19AGL   +99999+99999GF199999999999002131999999MA1100985100415REMMET11001/04/23 19:56:01 METAR KBLM 050056Z 19005KT 8SM FEW007 SCT065 OVC080 A2982 RMK AO2 RAE37 SLPNO P0001 FZRANO $
0254724084547602023010501567+40183-074133FM-15+0048KBLM V0201705N00155012195MN0064375N5+99999+99999999999ADDAU100007015AW1051GA1045+000615999GA2085+012195999GD12991+0006159GD24991+0121959GE19AGL   +99999+99999GF199999999999000611999999MA1100985100415MW1055REMMET09401/04/23 20:56:01 METAR KBLM 050156Z 17003KT 4SM HZ SCT002 OVC040 A2982 RMK AO2 SLPNO FZRANO $
0246724084547602023010502087+40183-074133FM-15+0048KBLM V0201705N00215000615MN0028165N5+99999+99999999999ADDAU100001015AW1105GA1075+000615999GA2075+011585999GD13991+0006159GD23991+0115859GE19AGL   +99999+99999GF199999999999000611999999MA1100985100415REMMET09201/04/23 21:08:01 METAR KBLM 050208Z 17004KT 1 3/4SM BR BKN002 BKN038 A2982 RMK AO2 FZRANO $
0206724084547602023010502147+40183-074133FM-15+0048KBLM V0201705N001550006119N0012075N5+99999+99999999999ADDAW1101GD13991+0006119GD24991+0115819GE19AGL   +99999+99999GF199999999999000611999999MA1100981999999REMMET06001/04/23 21:14:01 METAR KBLM 050214Z 17003KT 3/4SM RVRNO RMKEQDR01      7SKY009R02      7GAS009
0191724084547602023010502237+40183-074133FM-15+0048KBLM V0209999C000050006119N0004025N5+99999+99999999999ADDAW1301GD14991+0006119GE19AGL   +99999+99999GF199999999999000611999999MA1100951999999REMMET06001/04/23 21:23:01 METAR KBLM 050223Z 00000KT 1/4SM RVRNO RMKEQDR01      7SKY009R02      7GAS009
0205724084547602023010502567+40183-074133FM-15+0048KBLM V0209999C000050006119N0004025N5+99999+99999999999ADDAW1301GD14991+0006119GE19AGL   +99999+99999GF199999999999000611999999MA1100951999999MD1610071+9999REMMET06001/04/23 21:56:01 METAR KBLM 050256Z 00000KT 1/4SM RVRNO RMKEQDR01      7SKY009R02      7GAS009
0191724084547602023010503167+40183-074133FM-15+0048KBLM V0209999C000050006119N0008055N5+99999+99999999999ADDAW1301GD14991+0006119GE19AGL   +99999+99999GF199999999999000611999999MA1100981999999REMMET06001/04/23 22:16:01 METAR KBLM 050316Z 00000KT 1/2SM RVRNO RMKEQDR01      7SKY009R02      7GAS009
0191724084547602023010503367+40183-074133FM-15+0048KBLM V0201605N002650006119N0012075N5+99999+99999999999ADDAW1101GD14991+0006119GE19AGL   +99999+99999GF199999999999000611999999MA1100951999999REMMET06001/04/23 22:36:01 METAR KBLM 050336Z 16005KT 3/4SM RVRNO RMKEQDR01      7SKY009R02      7GAS009
0204724084547602023010503457+40183-074133FM-15+0048KBLM V0201805N002150006119N0016095N5+99999+99999999999ADDAW1101GD13991+0006119GD24991+0048819GE19AGL   +99999+99999GF199999999999000611999999MA1100951999999REMMET05801/04/23 22:45:01 METAR KBLM 050345Z 18004KT 1SM RVRNO RMKEQDR01      7SKY009R02      7GAS009
0246724084547602023010503477+40183-074133FM-15+0048KBLM V0201905N00265004885MN0020125N5+99999+99999999999ADDAU100001015AW1105GA1045+000615999GA2085+004885999GD12991+0006159GD24991+0048859GE19AGL   +99999+99999GF199999999999000611999999MA1100955100375REMMET09201/04/23 22:47:01 METAR KBLM 050347Z 19005KT 1 1/4SM BR SCT002 OVC016 A2981 RMK AO2 FZRANO $
0252724084547602023010503567+40183-074133FM-15+0048KBLM V0201805N00215004885MN0028165N5+99999+99999999999ADDAU100001015AW1105GA1045+000615999GA2085+004885999GD12991+0006159GD24991+0048859GE19AGL   +99999+99999GF199999999999000611999999MA1100985100415REMMET09801/04/23 22:56:02 METAR KBLM 050356Z 18004KT 1 3/4SM BR SCT002 OVC016 A2982 RMK AO2 SLPNO FZRANO $
0284724084547602023010504127+40183-074133FM-15+0048KBLM V0201705N00215004885MN0040235N5+99999+99999999999ADDAU100001015AW1105GA1045+000615999GA2075+004885999GA3085+007325999GD12991+0006159GD23991+0048859GD34991+0073259GE19AGL   +99999+99999GF199999999999000611999999MA1100985100415REMMET09901/04/23 23:12:02 METAR KBLM 050412Z 17004KT 2 1/2SM BR SCT002 BKN016 OVC024 A2982 RMK AO2 FZRANO $
0259724084547602023010504157+40183-074133FM-15+0048KBLM V0201705N00215000615MN0048285N5+99999+99999999999ADDAU100001015AW1105GA1075+000615999GA2075+004885999GA3085+007325999GD13991+0006159GD23991+0048859GD34991+0073259GE19AGL   +99999+99999GF199999999999000611999999REMMET08901/04/23 23:15:02 METAR KBLM 050415Z 17004KT 3SM BR BKN002 BKN016 OVC024 RMK AO2 FZRANO $
0248724084547602023010504207+40183-074133FM-15+0048KBLM V0201705N00265007325MN0064375N5+99999+99999999999ADDAU100007015AW1051GA1045+000615999GA2085+007325999GD12991+0006159GD24991+0073259GE19AGL   +99999+99999GF199999999999000611999999MA1100985100415MW1055REMMET08801/04/23 23:20:02 METAR KBLM 050420Z 17005KT 4SM HZ SCT002 OVC024 A2982 RMK AO2 FZRANO $
0290724084547602023010504567+40183-074133FM-15+0048KBLM V0201705N00315005495MN0064375N5+99999+99999999999ADDAU100007015AW1051GA1075+005495999GA2085+007015999GD13991+0054959GD24991+0070159GE19AGL   +99999+99999GF199999999999005491999999KA1240M+02001KA2240N+01111MA1100985100415MW1055REMMET10401/04/23 23:56:02 METAR KBLM 050456Z 17006KT 4SM HZ BKN018 OVC023 A2982 RMK AO2 SLPNO 402000111 FZRANO $
005172408454760202301050459O+40183-074133SOD  +0048KBLM V020999999999999999999999999999+99999+99999999999ADDAT1AU16RA  5AT2AU13BR  5AT3AU08HZ  5AT4AW01FG  1
0280724084547602023010505397+40183-074133FM-15+0048KBLM V0201705N00215004275MN0040235N5+99999+99999999999ADDAA101000021AU100001015AW1105GA1075+004275999GA2085+006105999GD13991+0042759GD24991+0061059GE19AGL   +99999+99999GF199999999999004271999999MA1101025100445REMMET11501/05/23 00:39:02 METAR KBLM 050539Z 17004KT 2 1/2SM BR BKN014 OVC020 A2983 RMK AO2 RAB22E31UPB31E33 P0000 FZRANO $
0356724084547602023010505567+40183-074133FM-15+0048KBLM V0201905N00265003665MN0032195N5+99999+99999999999ADDAA101000021AU110020015AW1615GA1045+001835999GA2075+003665999GA3085+006715999GD12991+0018359GD23991+0036659GD34991+0067159GE19AGL   +99999+99999GF199999999999001831999999MA1101025100445MD1290079+9999MW1615REMMET14001/05/23 00:56:02 METAR KBLM 050556Z 19005KT 2SM -RA SCT006 BKN012 OVC022 A2983 RMK AO2 RAB22E31B53UPB31E33 SLPNO P0000 6//// 52007 FZRANO $
0326724084547602023010506087+40183-074133FM-15+0048KBLM V0202205N00215003055MN0064375N5+99999+99999999999ADDAA101000021AU120090015AW1401AW2415GA1025+000915999GA2075+003055999GA3085+006105999GD11991+0009151GD23991+0030559GD34991+0061059GE19AGL   +99999+99999GF199999999999000911999999MA1101025100445REMMET12401/05/23 01:08:02 METAR KBLM 050608Z 22004KT 4SM UP FEW003 BKN010 OVC020 A2983 RMK AO2 RAE02UPB02 CIG 006V013 P0000 FZRANO $
0329724084547602023010506197+40183-074133FM-15+0048KBLM V0202005N00215002445MN0080475N5+99999+99999999999ADDAA101000021AU100007015AW1051GA1025+000915999GA2075+002445999GA3085+004575999GD11991+0009151GD23991+0024459GD34991+0045759GE19AGL   +99999+99999GF199999999999000911999999MA1101025100445MW1055REMMET12701/05/23 01:19:02 METAR KBLM 050619Z 20004KT 5SM HZ FEW003 BKN008 OVC015 A2983 RMK AO2 RAE02UPB02E17 CIG 006V011 P0000 FZRANO $
0259724084547602023010506567+40183-074133FM-15+0048KBLM V0202205N00215002445MN0112655N5+99999+99999999999ADDAA101000021GA1075+002445999GA2085+003355999GD13991+0024459GD24991+0033559GE19AGL   +99999+99999GF199999999999002441999999MA1101085100515REMMET11101/05/23 01:56:02 METAR KBLM 050656Z 22004KT 7SM BKN008 OVC011 A2985 RMK AO2 RAE02UPB02E17 SLPNO P0000 FZRANO $
0245724084547602023010507567+40183-074133FM-15+0048KBLM V0202505N00215002445MN0112655N5+99999+99999999999ADDGA1075+002445999GA2085+007015999GD13991+0024459GD24991+0070159GE19AGL   +99999+99999GF199999999999002441999999MA1101155100585REMMET10801/05/23 02:56:02 METAR KBLM 050756Z 25004KT 7SM BKN008 OVC023 A2987 RMK AO2 RAB19E28UPB28E30 SLPNO FZRANO $
0260724084547602023010508197+40183-074133FM-15+0048KBLM V0202305N00265003355MN0144845N5+99999+99999999999ADDGA1045+002445999GA2075+003355999GA3085+016765999GD12991+0024459GD23991+0033559GD34991+0167659GE19AGL   +99999+99999GF199999999999002441999999MA1101195100615REMMET09201/05/23 03:19:02 METAR KBLM 050819Z 23005KT 9SM SCT008 BKN011 OVC055 A2988 RMK AO2 FZRANO $
0234724084547602023010508267+40183-074133FM-15+0048KBLM V0202405N00265002445MN0144845N5+99999+99999999999ADDGA1075+002445999GA2085+016765999GD13991+0024451GD24991+0167659GE19AGL   +99999+99999GF199999999999002441999999MA1101195100615REMMET09701/05/23 03:26:02 METAR KBLM 050826Z 24005KT 9SM BKN008 OVC055 A2988 RMK AO2 CIG 006V012 FZRANO $
0222724084547602023010508357+40183-074133FM-15+0048KBLM V0202505N00215016765MN0128755N5+99999+99999999999ADDGA1045+003055999GA2085+016765999GD12991+0030559GD24991+0167659GE19AGL   +99999+99999GF199999999999003051999999MA1101195100615REMMET08501/05/23 03:35:02 METAR KBLM 050835Z 25004KT 8SM SCT010 OVC055 A2988 RMK AO2 FZRANO $
0255724084547602023010508567+40183-074133FM-15+0048KBLM V0202405N00265018295MN0160935N5+99999+99999999999ADDGA1025+002445999GA2085+018295999GD11991+0024459GD24991+0182959GE19AGL   +99999+99999GF199999999999002441999999MA1101225100645MD1290209+9999REMMET10401/05/23 03:56:02 METAR KBLM 050856Z 24005KT 10SM FEW008 OVC060 A2989 RMK AO2 SLPNO 6//// 52020 FZRANO $
0191724084547602023010509567+40183-074133FM-15+0048KBLM V0202305N002652200059N0096565N5+99999+99999999999ADDAU100007015AW1051GA1005+999999999GD10991+9999999GF100991999999999999999999MA1101255100685MW1055REMMET08401/05/23 04:56:02 METAR KBLM 050956Z 23005KT 6SM HZ CLR A2990 RMK AO2 SLPNO FZRANO $
0183724084547602023010510297+40183-074133FM-15+0048KBLM V0202405N001552200059N0024145N5+99999+99999999999ADDAU100001015AW1105GA1005+999999999GD10991+9999999GF100991999999999999999999MA1101295100715REMMET08201/05/23 05:29:02 METAR KBLM 051029Z 24003KT 1 1/2SM BR CLR A2991 RMK AO2 FZRANO $
0154724084547602023010510357+40183-074133FM-15+0048KBLM V0202405N001552200019N0012075N5+99999+99999999999ADDAW1101GF100991999999999999999999MA1101291999999REMMET06001/05/23 05:35:02 METAR KBLM 051035Z 24003KT 3/4SM RVRNO RMKEQDR01      7SKY009R02      7GAS009
0152724084547602023010510477+40183-074133FM-15+0048KBLM V0202405N002152200019N0016095N5+99999+99999999999ADDAW1101GF100991999999999999999999MA1101321999999REMMET05801/05/23 05:47:02 METAR KBLM 051047Z 24004KT 1SM RVRNO RMKEQDR01      7SKY009R02      7GAS009
0154724084547602023010510567+40183-074133FM-15+0048KBLM V0202605N001552200019N0012075N5+99999+99999999999ADDAW1101GF100991999999999999999999MA1101321999999REMMET06001/05/23 05:56:02 METAR KBLM 051056Z 26003KT 3/4SM RVRNO RMKEQDR01      7SKY009R02      7GAS009
0192724084547602023010510597+40183-074133FM-15+0048KBLM V0202505N00215000911WN0008055N5+99999+99999999999ADDAW1301GA1999+000911999GE19AGL   +99999+99999GF109991999999000911999999MA1101321999999REMMET06001/05/23 05:59:02 METAR KBLM 051059Z 25004KT 1/2SM RVRNO RMKEQDR01      7SKY009R02      7GAS009
0222724084547602023010511067+40183-074133FM-15+0048KBLM V0202505N002152200059N0012075N5+99999+99999999999ADDAW1101GD12991+0009119GD22991+0243819GE19AGL   +99999+99999GF104995999999000911999999MA1101321999999REMMET06001/05/23 06:06:02 METAR KBLM 051106Z 25004KT 3/4SM RVRNO RMKEQDR01      7SKY009R02      7GAS009D01      0ADE726
0206724084547602023010511187+40183-074133FM-15+0048KBLM V0202405N002150243819N0008055N5+99999+99999999999ADDAW1301GD12991+0009119GD23991+0243819GE19AGL   +99999+99999GF199999999999000911999999MA1101321999999REMMET06001/05/23 06:18:02 METAR KBLM 051118Z 24004KT 1/2SM RVRNO RMKEQDR01      7SKY009R02      7GAS009
0206724084547602023010511267+40183-074133FM-15+0048KBLM V0202205N002150003019N0008055N5+99999+99999999999ADDAW1301GD13991+0003019GD24991+0228619GE19AGL   +99999+99999GF199999999999000301999999MA1101321999999REMMET06001/05/23 06:26:02 METAR KBLM 051126Z 22004KT 1/2SM RVRNO RMKEQDR01      7SKY009R02      7GAS009
0206724084547602023010511397+40183-074133FM-15+0048KBLM V0202305N002150003019N0004025N5+99999+99999999999ADDAW1301GD13991+0003019GD24991+0228619GE19AGL   +99999+99999GF199999999999000301999999MA1101351999999REMMET06001/05/23 06:39:02 METAR KBLM 051139Z 23004KT 1/4SM RVRNO RMKEQDR01      7SKY009R02      7GAS009
0202724084547602023010511567+40183-074133FM-15+0048KBLM V0202205N001550003019N0004025N5+99999+99999999999ADDAA124999919AW1301GD14991+0003019GE19AGL   +99999+99999GF199999999999000301999999MA1101391999999REMMET06001/05/23 06:56:02 METAR KBLM 051156Z 22003KT 1/4SM RVRNO RMKEQDR01      7SKY009R02      7GAS009
0206724084547602023010512077+40183-074133FM-15+0048KBLM V0202405N001550003019N0008055N5+99999+99999999999ADDAW1301GD13991+0003019GD24991+0213419GE19AGL   +99999+99999GF199999999999000301999999MA1101391999999REMMET06001/05/23 07:07:02 METAR KBLM 051207Z 24003KT 1/2SM RVRNO RMKEQDR01      7SKY009R02      7GAS009
0206724084547602023010512197+40183-074133FM-15+0048KBLM V0202505N001550213419N0008055N5+99999+99999999999ADDAW1301GD12991+0003019GD24991+0213419GE19AGL   +99999+99999GF199999999999000301999999MA1101391999999REMMET06001/05/23 07:19:02 METAR KBLM 051219Z 25003KT 1/2SM RVRNO RMKEQDR01      7SKY009R02      7GAS009
0204724084547602023010512367+40183-074133FM-15+0048KBLM V0202405N001550228619N0016095N5+99999+99999999999ADDAW1101GD11991+0003019GD24991+0228619GE19AGL   +99999+99999GF199999999999000301999999MA1101391999999REMMET05801/05/23 07:36:02 METAR KBLM 051236Z 24003KT 1SM RVRNO RMKEQDR01      7SKY009R02      7GAS009
0242724084547602023010512387+40183-074133FM-15+0048KBLM V0209999C00005022865MN0032195N5+99999+99999999999ADDAU100001015AW1105GA1025+000305999GA2085+022865999GD11991+0003059GD24991+0228659GE19AGL   +99999+99999GF199999999999000301999999MA1101395100815REMMET08801/05/23 07:38:02 METAR KBLM 051238Z 00000KT 2SM BR FEW001 OVC075 A2994 RMK AO2 FZRANO $
0210724084547602023010512477+40183-074133FM-15+0048KBLM V0202505N00155022865MN0064375N5+99999+99999999999ADDAU100007015AW1051GA1085+022865999GD14991+0228659GE19AGL   +99999+99999GF199999999999022861999999MA1101395100815MW1055REMMET08101/05/23 07:47:02 METAR KBLM 051247Z 25003KT 4SM HZ OVC075 A2994 RMK AO2 FZRANO $
0210724084547602023010512567+40183-074133FM-15+0048KBLM V0202705N00265022865MN0048285N5+99999+99999999999ADDAU100001015AW1105GA1085+022865999GD14991+0228659GE19AGL   +99999+99999GF199999999999022861999999MA1101395100815REMMET08701/05/23 07:56:02 METAR KBLM 051256Z 27005KT 3SM BR OVC075 A2994 RMK AO2 SLPNO FZRANO $
0208724084547602023010513447+40183-074133FM-15+0048KBLM V0200605N00155021345MN0028165N5+99999+99999999999ADDAU100001015AW1105GA1085+021345999GD14991+0213459GE19AGL   +99999+99999GF199999999999021341999999MA1101465100885REMMET08501/05/23 08:44:02 METAR KBLM 051344Z 06003KT 1 3/4SM BR OVC070 A2996 RMK AO2 FZRANO $
0191724084547602023010513477+40183-074133FM-15+0048KBLM V0200505N002150213419N0012075N5+99999+99999999999ADDAW1101GD14991+0213419GE19AGL   +99999+99999GF199999999999021341999999MA1101491999999REMMET06001/05/23 08:47:02 METAR KBLM 051347Z 05004KT 3/4SM RVRNO RMKEQDR01      7SKY009R02      7GAS009
0191724084547602023010513517+40183-074133FM-15+0048KBLM V0200505N002150213419N0004025N5+99999+99999999999ADDAW1301GD14991+0213419GE19AGL   +99999+99999GF199999999999021341999999MA1101491999999REMMET06001/05/23 08:51:02 METAR KBLM 051351Z 05004KT 1/4SM RVRNO RMKEQDR01      7SKY009R02      7GAS009
0191724084547602023010513567+40183-074133FM-15+0048KBLM V0200605N002650213419N0004025N5+99999+99999999999ADDAW1301GD14991+0213419GE19AGL   +99999+99999GF199999999999021341999999MA1101491999999REMMET06001/05/23 08:56:02 METAR KBLM 051356Z 06005KT 1/4SM RVRNO RMKEQDR01      7SKY009R02      7GAS009
0206724084547602023010514187+40183-074133FM-15+0048KBLM V0200605N002150213419N0004025N5+99999+99999999999ADDAW1301GD12991+0006119GD24991+0213419GE19AGL   +99999+99999GF199999999999000611999999MA1101521999999REMMET06001/05/23 09:18:02 METAR KBLM 051418Z 06004KT 1/4SM RVRNO RMKEQDR01      7SKY009R02      7GAS009
0206724084547602023010514267+40183-074133FM-15+0048KBLM V0200705N003150006119N0004025N5+99999+99999999999ADDAW1301GD13991+0006119GD24991+0213419GE19AGL   +99999+99999GF199999999999000611999999MA1101521999999REMMET06001/05/23 09:26:02 METAR KBLM 051426Z 07006KT 1/4SM RVRNO RMKEQDR01      7SKY009R02      7GAS009
0205724084547602023010514567+40183-074133FM-15+0048KBLM V0200805N003150006119N0004025N5+99999+99999999999ADDAW1301GD14991+0006119GE19AGL   +99999+99999GF199999999999000611999999MA1101591999999MD1310201+9999REMMET06001/05/23 09:56:02 METAR KBLM 051456Z 08006KT 1/4SM RVRNO RMKEQDR01      7SKY009R02      7GAS009
0191724084547602023010515297+40183-074133FM-15+0048KBLM V0200805N003650006119N0008055N5+99999+99999999999ADDAW1301GD14991+0006119GE19AGL   +99999+99999GF199999999999000611999999MA1101591999999REMMET06001/05/23 10:29:02 METAR KBLM 051529Z 08007KT 1/2SM RVRNO RMKEQDR01      7SKY009R02      7GAS009
0191724084547602023010515387+40183-074133FM-15+0048KBLM V0200705N003650006119N0004025N5+99999+99999999999ADDAW1301GD14991+0006119GE19AGL   +99999+99999GF199999999999000611999999MA1101591999999REMMET06001/05/23 10:38:02 METAR KBLM 051538Z 07007KT 1/4SM RVRNO RMKEQDR01      7SKY009R02      7GAS009
0191724084547602023010515567+40183-074133FM-15+0048KBLM V0200705N003150006119N0004025N5+99999+99999999999ADDAW1301GD14991+0006119GE19AGL   +99999+99999GF199999999999000611999999MA1101591999999REMMET06001/05/23 10:56:02 METAR KBLM 051556Z 07006KT 1/4SM RVRNO RMKEQDR01      7SKY009R02      7GAS009
0191724084547602023010516297+40183-074133FM-15+0048KBLM V0200405N003650006119N0008055N5+99999+99999999999ADDAW1301GD14991+0006119GE19AGL   +99999+99999GF199999999999000611999999MA1101561999999REMMET06001/05/23 11:29:02 METAR KBLM 051629Z 04007KT 1/2SM RVRNO RMKEQDR01      7SKY009R02      7GAS009
0191724084547602023010516567+40183-074133FM-15+0048KBLM V0200705N003650006119N0012075N5+99999+99999999999ADDAW1101GD14991+0006119GE19AGL   +99999+99999GF199999999999000611999999MA1101521999999REMMET06001/05/23 11:56:02 METAR KBLM 051656Z 07007KT 3/4SM RVRNO RMKEQDR01      7SKY009R02      7GAS009
0189724084547602023010517147+40183-074133FM-15+0048KBLM V0200605N004150006119N0016095N5+99999+99999999999ADDAW1101GD14991+0006119GE19AGL   +99999+99999GF199999999999000611999999MA1101491999999REMMET05801/05/23 12:14:02 METAR KBLM 051714Z 06008KT 1SM RVRNO RMKEQDR01      7SKY009R02      7GAS009
0208724084547602023010517247+40183-074133FM-15+0048KBLM V0200605N00415000615MN0020125N5+99999+99999999999ADDAU100001015AW1105GA1085+000615999GD14991+0006159GE19AGL   +99999+99999GF199999999999000611999999MA1101495100915REMMET08501/05/23 12:24:02 METAR KBLM 051724Z 06008KT 1 1/4SM BR OVC002 A2997 RMK AO2 FZRANO $
0216724084547602023010517437+40183-074133FM-15+0048KBLM V0200505N00515000615MN0032195V5+99999+99999999999ADDAU100001015AW1105GA1085+000615999GD14991+0006159GE19AGL   +99999+99999GF199999999999000611999999MA1101495100915REMMET09301/05/23 12:43:02 METAR KBLM 051743Z 05010KT 2SM BR OVC002 A2997 RMK AO2 VIS 1 1/4V4 FZRANO $
0230724084547602023010517567+40183-074133FM-15+0048KBLM V0200405N00465000615MN0048285N5+99999+99999999999ADDAU100001015AW1105GA1085+000615999GD14991+0006159GE19AGL   +99999+99999GF199999999999000611999999MA1101465100885MD1890149+9999REMMET09301/05/23 12:56:02 METAR KBLM 051756Z 04009KT 3SM BR OVC002 A2996 RMK AO2 SLPNO 58014 FZRANO $
0226724084547602023010518567+40183-074133FM-15+0048KBLM V0200805N00265000615MN0040235V5+99999+99999999999ADDAU100001015AW1105GA1085+000615999GD14991+0006159GE19AGL   +99999+99999GF199999999999000611999999MA1101465100885REMMET10301/05/23 13:56:02 METAR KBLM 051856Z 08005KT 2 1/2SM BR OVC002 A2996 RMK AO2 VIS 1 1/2V4 SLPNO FZRANO $
0210724084547602023010519067+40183-074133FM-15+0048KBLM V0200805N00265000615MN0064375N5+99999+99999999999ADDAU100007015AW1051GA1085+000615999GD14991+0006159GE19AGL   +99999+99999GF199999999999000611999999MA1101465100885MW1055REMMET08101/05/23 14:06:02 METAR KBLM 051906Z 08005KT 4SM HZ OVC002 A2996 RMK AO2 FZRANO $
0204724084547602023010519287+40183-074133FM-15+0048KBLM V0200505N00315000615MN0032195N5+99999+99999999999ADDAU100001015AW1105GA1085+000615999GD14991+0006159GE19AGL   +99999+99999GF199999999999000611999999MA1101425100855REMMET08101/05/23 14:28:02 METAR KBLM 051928Z 05006KT 2SM BR OVC002 A2995 RMK AO2 FZRANO $
0210724084547602023010519427+40183-074133FM-15+0048KBLM V0200805N00265000615MN0064375N5+99999+99999999999ADDAU100007015AW1051GA1085+000615999GD14991+0006159GE19AGL   +99999+99999GF199999999999000611999999MA1101425100855MW1055REMMET08101/05/23 14:42:02 METAR KBLM 051942Z 08005KT 4SM HZ OVC002 A2995 RMK AO2 FZRANO $
0210724084547602023010519567+40183-074133FM-15+0048KBLM V0200705N00315000615MN0048285N5+99999+99999999999ADDAU100001015AW1105GA1085+000615999GD14991+0006159GE19AGL   +99999+99999GF199999999999000611999999MA1101395100815REMMET08701/05/23 14:56:02 METAR KBLM 051956Z 07006KT 3SM BR OVC002 A2994 RMK AO2 SLPNO FZRANO $
0216724084547602023010520457+40183-074133FM-15+0048KBLM V0200705N00315000615MN0032195V5+99999+99999999999ADDAU100001015AW1105GA1085+000615999GD14991+0006159GE19AGL   +99999+99999GF199999999999000611999999MA1101425100855REMMET09301/05/23 15:45:02 METAR KBLM 052045Z 07006KT 2SM BR OVC002 A2995 RMK AO2 VIS 1 1/2V3 FZRANO $
0208724084547602023010520527+40183-074133FM-15+0048KBLM V0200805N00315000615MN0020125N5+99999+99999999999ADDAU100001015AW1105GA1085+000615999GD14991+0006159GE19AGL   +99999+99999GF199999999999000611999999MA1101425100855REMMET08501/05/23 15:52:02 METAR KBLM 052052Z 08006KT 1 1/4SM BR OVC002 A2995 RMK AO2 FZRANO $
0240724084547602023010520567+40183-074133FM-15+0048KBLM V0200505N00365000615MN0020125N5+99999+99999999999ADDAU100001015AW1105GA1085+000615999GD14991+0006159GE19AGL   +99999+99999GF199999999999000611999999MA1101425100855MD1690039+9999REMMET10301/05/23 15:56:02 METAR KBLM 052056Z 05007KT 1 1/4SM BR OVC002 A2995 RMK AO2 SLPNO 6//// 56003 FZRANO $
0189724084547602023010521337+40183-074133FM-15+0048KBLM V0200705N004150006119N0016095N5+99999+99999999999ADDAW1101GD14991+0006119GE19AGL   +99999+99999GF199999999999000611999999MA1101461999999REMMET05801/05/23 16:33:02 METAR KBLM 052133Z 07008KT 1SM RVRNO RMKEQDR01      7SKY009R02      7GAS009
0200724084547602023010521567+40183-074133FM-15+0048KBLM V0200705N004150006119N0016095N5+99999+99999999999ADDAA101000021AW1611GD14991+0006119GE19AGL   +99999+99999GF199999999999000611999999MA1101421999999REMMET05801/05/23 16:56:02 METAR KBLM 052156Z 07008KT 1SM RVRNO RMKEQDR01      7SKY009R02      7GAS009
0202724084547602023010522047+40183-074133FM-15+0048KBLM V0200605N005150006119N0012075N5+99999+99999999999ADDAA101000021AW1611GD14991+0006119GE19AGL   +99999+99999GF199999999999000611999999MA1101421999999REMMET06001/05/23 17:04:02 METAR KBLM 052204Z 06010KT 3/4SM RVRNO RMKEQDR01      7SKY009R02      7GAS009
0232724084547602023010522087+40183-074133FM-15+0048KBLM V0200705N00465000615MN0020125N5+99999+99999999999ADDAA101000021AU110020015AW1615GA1085+000615999GD14991+0006159GE19AGL   +99999+99999GF199999999999000611999999MA1101425100855MW1615REMMET09201/05/23 17:08:02 METAR KBLM 052208Z 07009KT 1 1/4SM -RA OVC002 A2995 RMK AO2 P0000 FZRANO $
0227724084547602023010522167+40183-074133FM-15+0048KBLM V0200905N00315000615MN0048285N5+99999+99999999999ADDAA101000021AU100001015AW1105GA1085+000615999GD14991+0006159GE19AGL   +99999+99999GF199999999999000611999999MA1101465100885REMMET09301/05/23 17:16:02 METAR KBLM 052216Z 09006KT 3SM BR OVC002 A2996 RMK AO2 RAE15 P0000 FZRANO $
0213724084547602023010522567+40183-074133FM-15+0048KBLM V0200705N00415000615MN0112655N5+99999+99999999999ADDAA101000021GA1085+000615999GD14991+0006159GE19AGL   +99999+99999GF199999999999000611999999MA1101425100855REMMET09601/05/23 17:56:02 METAR KBLM 052256Z 07008KT 7SM OVC002 A2995 RMK AO2 RAE15 SLPNO P0000 FZRANO $
0176724084547602023010523567+40183-074133FM-15+0048KBLM V0200905N00315000615MN0160935N5+99999+99999999999ADDGA1085+000615999GD14991+0006159GE19AGL   +99999+99999GF199999999999000611999999REMMET08501/05/23 18:56:02 METAR KBLM 052356Z 09006KT 10SM OVC002 RMK AO2 SLPNO 6//// FZRANO $
0185724084547602023010600117+40183-074133FM-15+0048KBLM V0201005N00265001225MN0160935N5+99999+99999999999ADDGA1085+001225999GD14991+0012259GE19AGL   +99999+99999GF199999999999001221999999MA1101495100915REMMET07901/05/23 19:11:01 METAR KBLM 060011Z 10005KT 10SM OVC004 A2997 RMK AO2 FZRANO $
0191724084547602023010600567+40183-074133FM-15+0048KBLM V0200805N00315001225MN0160935N5+99999+99999999999ADDGA1085+001225999GD14991+0012259GE19AGL   +99999+99999GF199999999999001221999999MA1101495100915REMMET08501/05/23 19:56:01 METAR KBLM 060056Z 08006KT 10SM OVC004 A2997 RMK AO2 SLPNO FZRANO $
0224724084547602023010601567+40183-074133FM-15+0048KBLM V0201105N00215001225MN0144845N5+99999+99999999999ADDAA101000021GA1085+001225999GD14991+0012259GE19AGL   +99999+99999GF199999999999001221999999MA1101495100915REMMET10701/05/23 20:56:01 METAR KBLM 060156Z 11004KT 9SM OVC004 A2997 RMK AO2 RAB31E40UPB40E46 SLPNO P0000 FZRANO $
0197724084547602023010602567+40183-074133FM-15+0048KBLM V0201005N00265001225MN0160935N5+99999+99999999999ADDGA1085+001225999GD14991+0012259GE19AGL   +99999+99999GF199999999999001221999999MA1101525100955REMMET09101/05/23 21:56:01 METAR KBLM 060256Z 10005KT 10SM OVC004 A2998 RMK AO2 SLPNO 6//// FZRANO $
0241724084547602023010603567+40183-074133FM-15+0048KBLM V0200705N00315001225MN0160935N5+99999+99999999999ADDAA101000021AU110020015AW1615GA1085+001225999GD14991+0012259GE19AGL   +99999+99999GF199999999999001221999999MA1101525100955MW1615REMMET10101/05/23 22:56:02 METAR KBLM 060356Z 07006KT 10SM -RA OVC004 A2998 RMK AO2 RAB35 SLPNO P0000 FZRANO $
0212724084547602023010604567+40183-074133FM-15+0048KBLM V0200705N00215001225MN0048285N5+99999+99999999999ADDAA101000021AU100001015AW1105GA1085+001225999GD14991+0012259GE19AGL   +99999+99999GF199999999999001221999999REMMET09301/05/23 23:56:02 METAR KBLM 060456Z 07004KT 3SM BR OVC004 RMK AO2 RAE23 SLPNO P0000 FZRANO $
006372408454760202301060459O+40183-074133SOD  +0048KBLM V020999999999999999999999999999+99999+99999999999ADDAT1AU16RA  5AT2AU13BR  5AT3AU19UP  5AT4AU08HZ  5AT5AW01FG  1
0247724084547602023010605567+40183-074133FM-15+0048KBLM V0202205N00215001225MN0160935N5+99999+99999999999ADDAA101000595AU110020015AW1615GA1085+001225999GD14991+0012259GE19AGL   +99999+99999GF199999999999001221999999MA1101525100955MW1615REMMET10701/06/23 00:56:02 METAR KBLM 060556Z 22004KT 10SM -RA OVC004 A2998 RMK AO2 RAB10 SLPNO P0002 6//// FZRANO $
0316724084547602023010606337+40183-074133FM-15+0048KBLM V0200705N00215001835MN0144845N5+99999+99999999999ADDAA101000895AU110020015AW1615GA1075+001835999GA2075+012195999GA3085+022865999GD13991+0018351GD23991+0121959GD34991+0228659GE19AGL   +99999+99999GF199999999999001831999999MA1101465100885MW1615REMMET11401/06/23 01:33:02 METAR KBLM 060633Z 07004KT 9SM -RA BKN006 BKN040 OVC075 A2996 RMK AO2 CIG 003V008 P0003 FZRANO $
0305724084547602023010606407+40183-074133FM-15+0048KBLM V0200705N00265014025MN0160935N5+99999+99999999999ADDAA101000895AU110020015AW1615GA1045+001835999GA2075+014025999GA3085+021345999GD12991+0018359GD23991+0140259GD34991+0213459GE19AGL   +99999+99999GF199999999999001831999999MA1101495100915MW1615REMMET10301/06/23 01:40:02 METAR KBLM 060640Z 07005KT 10SM -RA SCT006 BKN046 OVC070 A2997 RMK AO2 P0003 FZRANO $
0322724084547602023010606567+40183-074133FM-15+0048KBLM V0200805N00215001835MN0144845N5+99999+99999999999ADDAA101000895AU110020015AW1615GA1075+001835999GA2075+018295999GA3085+022865999GD13991+0018351GD23991+0182959GD34991+0228659GE19AGL   +99999+99999GF199999999999001831999999MA1101525100955MW1615REMMET12001/06/23 01:56:02 METAR KBLM 060656Z 08004KT 9SM -RA BKN006 BKN060 OVC075 A2998 RMK AO2 CIG 002V009 SLPNO P0003 FZRANO $
0266724084547602023010607267+40183-074133FM-15+0048KBLM V0200905N00315000915MN0128755N5+99999+99999999999ADDAA101000395AU110020015AW1615GA1075+000915999GA2085+002135999GD13991+0009159GD24991+0021359GE19AGL   +99999+99999GF199999999999000911999999MA1101525100955MW1615REMMET09501/06/23 02:26:02 METAR KBLM 060726Z 09006KT 8SM -RA BKN003 OVC007 A2998 RMK AO2 P0001 FZRANO $
0234724084547602023010607567+40183-074133FM-15+0048KBLM V0200705N00315000915MN0096565N5+99999+99999999999ADDAA101000395AU110020015AW1615GA1085+000915999GD14991+0009159GE19AGL   +99999+99999GF199999999999000911999999MA1101495100915MW1615REMMET09401/06/23 02:56:02 METAR KBLM 060756Z 07006KT 6SM -RA OVC003 A2997 RMK AO2 SLPNO P0001 FZRANO $
0289724084547602023010608567+40183-074133FM-15+0048KBLM V0203305N00315000915MN0048285N5+99999+99999999999ADDAA101000021AA203001091AU100001015AW1105GA1085+000915999GD14991+0009159GE19AGL   +99999+99999GF199999999999000911999999MA1101525100955MD1590009+9999REMMET11101/06/23 03:56:02 METAR KBLM 060856Z 33006KT 3SM BR OVC003 A2998 RMK AO2 RAE05 SLPNO P0000 60004 55000 FZRANO $EQDQ01  00108PRCP03
0238724084547602023010609057+40183-074133FM-15+0048KBLM V0203405N00315000915MN0028165N5+99999+99999999999ADDAA101000021AU110020015AW1615GA1085+000915999GD14991+0009159GE19AGL   +99999+99999GF199999999999000911999999MA1101495100915MW1615REMMET09801/06/23 04:05:02 METAR KBLM 060905Z 34006KT 1 3/4SM -RA OVC003 A2997 RMK AO2 RAB02 P0000 FZRANO $
0241724084547602023010609337+40183-074133FM-15+0048KBLM V0200305N00155000915MN0032195N5+99999+99999999999ADDAA101000395AU120090015AW1401AW2415GA1085+000915999GD14991+0009159GE19AGL   +99999+99999GF199999999999000911999999MA1101525100955REMMET10101/06/23 04:33:02 METAR KBLM 060933Z 03003KT 2SM UP OVC003 A2998 RMK AO2 RAB02E11UPB11 P0001 FZRANO $
0264724084547602023010609567+40183-074133FM-15+0048KBLM V0200205N00265000915MN0048285N5+99999+99999999999ADDAA101000395AU120090015AW1401AW2415GA1075+000915999GA2085+003355999GD13991+0009159GD24991+0033559GE19AGL   +99999+99999GF199999999999000911999999REMMET10801/06/23 04:56:02 METAR KBLM 060956Z 02005KT 3SM UP BKN003 OVC011 RMK AO2 RAB02E11UPB11 SLPNO P0001 FZRANO $
0239724084547602023010610567+40183-074133FM-15+0048KBLM V0200605N00265000915MN0064375N5+99999+99999999999ADDAA101000021AU100007015AW1051GA1085+000915999GD14991+0009159GE19AGL   +99999+99999GF199999999999000911999999MA1101495100915MW1055REMMET09901/06/23 05:56:02 METAR KBLM 061056Z 06005KT 4SM HZ OVC003 A2997 RMK AO2 UPE01 SLPNO P0000 FZRANO $
0246724084547602023010611567+40183-074133FM-15+0048KBLM V0200605N00155000915MN0064375N5+99999+99999999999ADDAA124999919AU110020015AW1615GA1085+000915999GD14991+0009159GE19AGL   +99999+99999GF199999999999000911999999MA1101525100955MW1615REMMET10601/06/23 06:56:02 METAR KBLM 061156Z 06003KT 4SM -RA OVC003 A2998 RMK AO2 RAB40 SLPNO 6//// 7//// FZRANO $
0234724084547602023010612567+40183-074133FM-15+0048KBLM V0200805N00575000915MN0128755N5+99999+99999999999ADDAA101000021AU110020015AW1615GA1085+000915999GD14991+0009159GE19AGL   +99999+99999GF199999999999000911999999MA1101465100885MW1615REMMET09401/06/23 07:56:02 METAR KBLM 061256Z 08011KT 8SM -RA OVC003 A2996 RMK AO2 SLPNO P0000 FZRANO $
0213724084547602023010613567+40183-074133FM-15+0048KBLM V0200305N00155000915MN0128755N5+99999+99999999999ADDAA101000021GA1085+000915999GD14991+0009159GE19AGL   +99999+99999GF199999999999000911999999MA1101525100955REMMET09601/06/23 08:56:02 METAR KBLM 061356Z 03003KT 8SM OVC003 A2998 RMK AO2 RAE00 SLPNO P0000 FZRANO $
0216724084547602023010614567+40183-074133FM-15+0048KBLM V0209999C00005000915MN0128755N5+99999+99999999999ADDGA1085+000915999GD14991+0009159GE19AGL   +99999+99999GF199999999999000911999999MA1101635101055MD1390109+9999REMMET09601/06/23 09:56:02 METAR KBLM 061456Z 00000KT 8SM OVC003 A3001 RMK AO2 SLPNO 6//// 53010 FZRANO $
0240724084547602023010615567+40183-074133FM-15+0048KBLM V0202905N00315000915MN0064375N5+99999+99999999999ADDAA101000021AU110020015AW1615GA1085+000915999GD14991+0009159GE19AGL   +99999+99999GF199999999999000911999999MA1101595101015MW1615REMMET10001/06/23 10:56:02 METAR KBLM 061556Z 29006KT 4SM -RA OVC003 A3000 RMK AO2 RAB51 SLPNO P0000 FZRANO $
0214724084547602023010616137+40183-074133FM-15+0048KBLM V0202905N00265000915MN0032195N5+99999+99999999999ADDAA101000021AU100001015AW1105GA1085+000915999GD14991+0009159GE19AGL   +99999+99999GF199999999999000911999999REMMET09501/06/23 11:13:02 METAR KBLM 061613Z 29005KT 2SM BR OVC003 RMK AO2 RAE03UPB03E05 P0000 FZRANO $
0245724084547602023010616407+40183-074133FM-15+0048KBLM V0202705N00265000915MN0080475N5+99999+99999999999ADDAA101000021AU110020015AW1615GA1085+000915999GD14991+0009159GE19AGL   +99999+99999GF199999999999000911999999MA1101565100985MW1615REMMET10501/06/23 11:40:02 METAR KBLM 061640Z 27005KT 5SM -RA OVC003 A2999 RMK AO2 RAE03B24UPB03E05 P0000 FZRANO $
0227724084547602023010616567+40183-074133FM-15+0048KBLM V0203005N00265000915MN0128755N5+99999+99999999999ADDAA101000021GA1085+000915999GD14991+0009159GE19AGL   +99999+99999GF199999999999000911999999MA1101525100955REMMET11001/06/23 11:56:02 METAR KBLM 061656Z 30005KT 8SM OVC003 A2998 RMK AO2 RAE03B24E42UPB03E05 SLPNO P0000 FZRANO $
0267724084547602023010617357+40183-074133FM-15+0048KBLM V0202805N00265012195MN0160935N5+00805+99999999999ADDAA101000021AU110020015AW1615GA1045+000915999GA2085+012195999GD12991+0009159GD24991+0121959GE19AGL   +99999+99999GF199999999999000911999999MA1101495100915MW1615REMMET09601/06/23 12:35:02 METAR KBLM 061735Z 28005KT 10SM -RA SCT003 OVC040 08/A2997 RMK AO2 RAB31 P0000
0304724084547602023010617497+40183-074133FM-15+0048KBLM V0202905N00265006715MN0144845N5+00805+99999999999ADDAA101000021AU110020015AW1615GA1045+004275999GA2075+006715999GA3085+012195999GD12991+0042759GD23991+0067159GD34991+0121959GE19AGL   +99999+99999GF199999999999004271999999MA1101495100915MW1615REMMET10201/06/23 12:49:02 METAR KBLM 061749Z 29005KT 9SM -RA SCT014 BKN022 OVC040 08/A2997 RMK AO2 RAB31 P0000
0342724084547602023010617567+40183-074133FM-15+0048KBLM V0202905N00315006105MN0096565N5+00725+99999999999ADDAA101000395AU110020015AW1615GA1045+004275999GA2075+006105999GA3085+012195999GD12991+0042759GD23991+0061059GD34991+0121959GE19AGL   +99999+99999GF199999999999004271999999MA1101495100915MD1890169+9999MW1615REMMET12601/06/23 12:56:02 METAR KBLM 061756Z 29006KT 6SM -RA SCT014 BKN020 OVC040 07/A2997 RMK AO2 RAB31 SLPNO P0001 6//// T0072 58016
0240724084547602023010618197+40183-074133FM-15+0048KBLM V0203005N00365003665MN0160935N5+00805+99999999999ADDAA101000021GA1075+003665999GA2085+005495999GD13991+0036659GD24991+0054959GE19AGL   +99999+99999GF199999999999003661999999MA1101495100915REMMET09201/06/23 13:19:02 METAR KBLM 061819Z 30007KT 10SM BKN012 OVC018 08/A2997 RMK AO2 RAE11 P0000
0259724084547602023010618567+40183-074133FM-15+0048KBLM V0203005N00215004575MN0160935N5+00785+00785999999ADDAA101000021GA1075+004575999GA2085+006405999GD13991+0045759GD24991+0064059GE19AGL   +99999+99999GF199999999999004571999999MA1101495100915REMMET11101/06/23 13:56:02 METAR KBLM 061856Z 30004KT 10SM BKN015 OVC021 08/08 A2997 RMK AO2 RAE11 SLPNO P0000 T00780078
0269724084547602023010619337+40183-074133FM-15+0048KBLM V0202905N00575011585MN0160935N5+00805+00705999999ADDGA1045+004575999GA2045+009145999GA3085+011585999GD12991+0045759GD22991+0091459GD34991+0115859GE19AGL   +99999+99999GF199999999999004571999999MA1101525100955OC100825REMMET09301/06/23 14:33:02 METAR KBLM 061933Z 29011G16KT 10SM SCT015 SCT030 OVC038 08/07 A2998 RMK AO2
0269724084547602023010619447+40183-074133FM-15+0048KBLM V0202805N00675007925MN0160935N5+00805+00605999999ADDGA1045+006715999GA2075+007925999GA3085+012805999GD12991+0067159GD23991+0079259GD34991+0128059GE19AGL   +99999+99999GF199999999999006711999999MA1101525100955OC100825REMMET09301/06/23 14:44:02 METAR KBLM 061944Z 28013G16KT 10SM SCT022 BKN026 OVC042 08/06 A2998 RMK AO2
0285724084547602023010619567+40183-074133FM-15+0048KBLM V0202805N00575010365MN0160935N5+00785+00565999999ADDGA1045+007325999GA2075+010365999GA3085+014025999GD12991+0073259GD23991+0103659GD34991+0140259GE19AGL   +99999+99999GF199999999999007321999999MA1101565100985OC101035REMMET10901/06/23 14:56:02 METAR KBLM 061956Z 28011G20KT 10SM SCT024 BKN034 OVC046 08/06 A2999 RMK AO2 SLPNO T00780056
0231724084547602023010620077+40183-074133FM-15+0048KBLM V0202905N00515007925MN0160935N5+00805+00505999999ADDGA1075+007925999GA2085+014025999GD13991+0079259GD24991+0140259GE19AGL   +99999+99999GF199999999999007921999999MA1101565100985OC100935REMMET08601/06/23 15:07:02 METAR KBLM 062007Z 29010G18KT 10SM BKN026 OVC046 08/05 A2999 RMK AO2
0220724084547602023010620177+40183-074133FM-15+0048KBLM V0202905N00315014025MN0160935N5+00705+00605999999ADDGA1045+008535999GA2085+014025999GD12991+0085359GD24991+0140259GE19AGL   +99999+99999GF199999999999008531999999MA1101595101015REMMET08301/06/23 15:17:02 METAR KBLM 062017Z 29006KT 10SM SCT028 OVC046 07/06 A3000 RMK AO2
0292724084547602023010620567+40183-074133FM-15+0048KBLM V0202705N00465011585MN0160935N5+00785+00505999999ADDAA103000021GA1025+007925999GA2085+011585999GD11991+0079259GD24991+0115859GE19AGL   +99999+99999GF199999999999007921999999MA1101635101055MD1390149+9999REMMET11101/06/23 15:56:02 METAR KBLM 062056Z 27009KT 10SM FEW026 OVC038 08/05 A3001 RMK AO2 SLPNO 60000 T00780050 53014EQDQ01  00008PRCP03
0198724084547602023010621567+40183-074133FM-15+0048KBLM V0202605N00265014635MN0160935N5+00725+00335999999ADDGA1085+014635999GD14991+0146359GE19AGL   +99999+99999GF199999999999014631999999MA1101735101155REMMET09201/06/23 16:56:02 METAR KBLM 062156Z 26005KT 10SM OVC048 07/03 A3004 RMK AO2 SLPNO T00720033
0173724084547602023010622567+40183-074133FM-15+0048KBLM V0202705N003152200059N0160935N5+00615+00285999999ADDGA1005+999999999GD10991+9999999GF100991999999999999999999MA1101795101225REMMET08901/06/23 17:56:02 METAR KBLM 062256Z 27006KT 10SM CLR 06/03 A3006 RMK AO2 SLPNO T00610028
0292724084547602023010623567+40183-074133FM-15+0048KBLM V0202505N00265013725MN0160935N5+00615+00225999999ADDAA106000021GA1085+013725999GD14991+0137259GE19AGL   +99999+99999GF199999999999013721999999KA1060M+00831KA2060N+00561MA1101905101325MD1190279+9999REMMET11601/06/23 18:56:02 METAR KBLM 062356Z 25005KT 10SM OVC045 06/02 A3009 RMK AO2 SLPNO 60000 T00610022 10083 20056 51027EQDQ01  00008PRCP06
0247724084547602023010700567+40183-074133FM-15+0048KBLM V0202805N00465014945MN0160935N5+00565+00115999999ADDGA1045+010365999GA2075+014945999GD12991+0103659GD23991+0149459GE19AGL   +99999+99999GF199999999999010361999999MA1101965101395OC100885REMMET10201/06/23 19:56:01 METAR KBLM 070056Z 28009G17KT 10SM SCT034 BKN049 06/01 A3011 RMK AO2 SLPNO T00560011
0198724084547602023010701567+40183-074133FM-15+0048KBLM V0202805N00465014635MN0160935N5+00505+00115999999ADDGA1085+014635999GD14991+0146359GE19AGL   +99999+99999GF199999999999014631999999MA1102005101425REMMET09201/06/23 20:56:01 METAR KBLM 070156Z 28009KT 10SM OVC048 05/01 A3012 RMK AO2 SLPNO T00500011
0237724084547602023010702567+40183-074133FM-15+0048KBLM V0202705N005152200059N0160935N5+00445+00115999999ADDGA1025+018295999GD11991+0182959GE19AGL   +99999+99999GF102995999999018291999999MA1102075101495MD1190159+9999REMMET09801/06/23 21:56:01 METAR KBLM 070256Z 27010KT 10SM FEW060 04/01 A3014 RMK AO2 SLPNO T00440011 51015EQDD01      0ADE726
0173724084547602023010703567+40183-074133FM-15+0048KBLM V0202905N003652200059N0160935N5+00395+00115999999ADDGA1005+999999999GD10991+9999999GF100991999999999999999999MA1102035101455REMMET08901/06/23 22:56:02 METAR KBLM 070356Z 29007KT 10SM CLR 04/01 A3013 RMK AO2 SLPNO T00390011
0173724084547602023010704567+40183-074133FM-15+0048KBLM V0202605N003152200059N0160935N5+00285+00175999999ADDGA1005+999999999GD10991+9999999GF100991999999999999999999MA1102035101455REMMET08901/06/23 23:56:02 METAR KBLM 070456Z 26006KT 10SM CLR 03/02 A3013 RMK AO2 SLPNO T00280017
005172408454760202301070459O+40183-074133SOD  +0048KBLM V020999999999999999999999999999+99999+99999999999ADDAT1AU16RA  5AT2AU13BR  5AT3AU19UP  5AT4AU08HZ  5
0239724084547602023010705567+40183-074133FM-15+0048KBLM V0202805N003652200059N0160935N5+00225+00115102085ADDGA1005+999999999GD10991+9999999GF100991999999999999999999KA1060M+00611KA2060N+00221MA1102075101495MD1390019+9999REMMET11501/07/23 00:56:02 METAR KBLM 070556Z 28007KT 10SM CLR 02/01 A3014 RMK AO2 SLP208 T00220011 10061 20022 53001 FZRANO
0181724084547602023010706567+40183-074133FM-15+0048KBLM V0202605N002652200059N0160935N5+00225+00115102085ADDGA1005+999999999GD10991+9999999GF100991999999999999999999MA1102075101495REMMET09701/07/23 01:56:02 METAR KBLM 070656Z 26005KT 10SM CLR 02/01 A3014 RMK AO2 SLP208 T00220011 FZRANO
0181724084547602023010707567+40183-074133FM-15+0048KBLM V0202505N002152200059N0160935N5+00175+00065102105ADDGA1005+999999999GD10991+9999999GF100991999999999999999999MA1102105101525REMMET09701/07/23 02:56:02 METAR KBLM 070756Z 25004KT 10SM CLR 02/01 A3015 RMK AO2 SLP210 T00170006 FZRANO
0220724084547602023010708567+40183-074133FM-15+0048KBLM V0202605N002152200059N0160935N5+00115+00065102085ADDGA1005+999999999GD10991+9999999GF100991999999999999999999MA1102075101495MD1890009+9999REMMET10301/07/23 03:56:02 METAR KBLM 070856Z 26004KT 10SM CLR 01/01 A3014 RMK AO2 SLP208 T00110006 58000 FZRANOEQDQ018     3APCTEN
0183724084547602023010709567+40183-074133FM-15+0048KBLM V0202605N002652200059N0160935N5-00065-00065102075ADDGA1005+999999999GD10991+9999999GF100991999999999999999999MA1102075101495REMMET09901/07/23 04:56:02 METAR KBLM 070956Z 26005KT 10SM CLR M01/M01 A3014 RMK AO2 SLP207 T10061006 FZRANO
0206724084547602023010710567+40183-074133FM-15+0048KBLM V0202405N00215018295MN0160935N5+00065+00065102105ADDGA1075+018295999GD13991+0182959GE19AGL   +99999+99999GF199999999999018291999999MA1102105101525REMMET10001/07/23 05:56:02 METAR KBLM 071056Z 24004KT 10SM BKN060 01/01 A3015 RMK AO2 SLP210 T00060006 FZRANO
0281724084547602023010711567+40183-074133FM-15+0048KBLM V0202605N00215018295MN0160935N5+00175+00175102125ADDAA124999919GA1085+018295999GD14991+0182959GE19AGL   +99999+99999GF199999999999018291999999KA1060M+00221KA2060N-00061MA1102135101555MD1390059+9999REMMET12401/07/23 06:56:02 METAR KBLM 071156Z 26004KT 10SM OVC060 02/02 A3016 RMK AO2 SLP212 7//// T00170017 10022 21006 53005 FZRANO
0199724084547602023010712567+40183-074133FM-15+0048KBLM V0202705N00365018295MN0160935N5+00285+00065102185ADDGA1085+018295999GD14991+0182959GE19AGL   +99999+99999GF199999999999018291999999MA1102175101595REMMET09301/07/23 07:56:02 METAR KBLM 071256Z 27007KT 10SM OVC060 03/01 A3017 RMK AO2 SLP218 T00280006
0199724084547602023010713567+40183-074133FM-15+0048KBLM V0202705N00365018295MN0160935N5+00335+00005102245ADDGA1085+018295999GD14991+0182959GE19AGL   +99999+99999GF199999999999018291999999MA1102245101665REMMET09301/07/23 08:56:02 METAR KBLM 071356Z 27007KT 10SM OVC060 03/00 A3019 RMK AO2 SLP224 T00330000
0297724084547602023010714567+40183-074133FM-15+0048KBLM V0202905N00415018295MN0160935N5+00565+00065102245ADDAA101000021AA203000021GA1085+018295999GD14991+0182959GE19AGL   +99999+99999GF199999999999018291999999MA1102245101665MD1190119+9999REMMET12001/07/23 09:56:02 METAR KBLM 071456Z 29008KT 10SM OVC060 06/01 A3019 RMK AO2 RAB02E14 SLP224 P0000 60000 T00560006 51011EQDQ01  00002PRCP03Q02  00008PRCP03
0175724084547602023010715567+40183-074133FM-15+0048KBLM V0202905N006252200059N0160935N5+00615-00175102185ADDGA1005+999999999GD10991+9999999GF100991999999999999999999MA1102175101595REMMET09101/07/23 10:56:02 METAR KBLM 071556Z 29012KT 10SM CLR 06/M02 A3017 RMK AO2 SLP218 T00611017
0257724084547602023010716567+40183-074133FM-15+0048KBLM V0203005N005152200059N0160935N5+00725-00115102105ADDGA1025+010365999GA2045+019815999GD11991+0103659GD22991+0198159GE19AGL   +99999+99999GF104995999999010361999999MA1102075101495REMMET10101/07/23 11:56:02 METAR KBLM 071656Z 30010KT 10SM FEW034 SCT065 07/M01 A3014 RMK AO2 SLP210 T00721011EQDD01      0ADE726
0359724084547602023010717567+40183-074133FM-15+0048KBLM V0203005N00625021345MN0160935N5+00835-00115102065ADDAA106000021GA1025+011585999GA2075+021345999GD11991+0115859GD23991+0213459GE19AGL   +99999+99999GF199999999999011581999999KA1060M+00831KA2060N+00171MA1102075101495MD1690189+9999OC100985REMMET12801/07/23 12:56:02 METAR KBLM 071756Z 30012G19KT 10SM FEW038 BKN070 08/M01 A3014 RMK AO2 SLP206 60000 T00831011 10083 20017 56018EQDQ01  00002PRCP06Q02  00008PRCP06
0275724084547602023010718567+40183-074133FM-15+0048KBLM V0203105N00575014335MN0160935N5+00675+00005102045ADDGA1045+011585999GA2075+014335999GA3075+016765999GD12991+0115859GD23991+0143359GD33991+0167659GE19AGL   +99999+99999GF199999999999011581999999MA1102035101455REMMET10701/07/23 13:56:02 METAR KBLM 071856Z 31011KT 10SM SCT038 BKN047 BKN055 07/00 A3013 RMK AO2 SLP204 T00670000
0248724084547602023010719567+40183-074133FM-15+0048KBLM V0203105N00885021345MN0160935N5+00835+00005102045ADDGA1045+012195999GA2075+021345999GD12991+0121959GD23991+0213459GE19AGL   +99999+99999GF199999999999012191999999MA1102035101455OC101035REMMET10301/07/23 14:56:02 METAR KBLM 071956Z 31017G20KT 10SM SCT040 BKN070 08/00 A3013 RMK AO2 SLP204 T00830000
0257724084547602023010720567+40183-074133FM-15+0048KBLM V0203105N00515014635MN0160935N5+00675+00005102115ADDGA1045+011585999GA2085+014635999GD12991+0115859GD24991+0146359GE19AGL   +99999+99999GF199999999999011581999999MA1102105101525MD1390059+9999REMMET10601/07/23 15:56:02 METAR KBLM 072056Z 31010KT 10SM SCT038 OVC048 07/00 A3015 RMK AO2 SLP211 T00670000 53005
0199724084547602023010721567+40183-074133FM-15+0048KBLM V0202705N00215012195MN0160935N5+00615+00005102195ADDGA1085+012195999GD14991+0121959GE19AGL   +99999+99999GF199999999999012191999999MA1102175101595REMMET09301/07/23 16:56:02 METAR KBLM 072156Z 27004KT 10SM OVC040 06/00 A3017 RMK AO2 SLP219 T00610000
0238724084547602023010722567+40183-074133FM-15+0048KBLM V0202905N00365012195MN0160935N5+00565-00065102265ADDGA1075+012195999GA2085+022865999GD13991+0121959GD24991+0228659GE19AGL   +99999+99999GF199999999999012191999999MA1102275101695REMMET10101/07/23 17:56:02 METAR KBLM 072256Z 29007KT 10SM BKN040 OVC075 06/M01 A3020 RMK AO2 SLP226 T00561006
0276724084547602023010723567+40183-074133FM-15+0048KBLM V0202605N002652200059N0160935N5+00445+00005102335ADDGA1045+019815999GD12991+0198159GE19AGL   +99999+99999GF104995999999019811999999KA1060M+00831KA2060N+00441MA1102345101765MD1190229+9999REMMET11101/07/23 18:56:02 METAR KBLM 072356Z 26005KT 10SM SCT065 04/00 A3022 RMK AO2 SLP233 T00440000 10083 20044 51022EQDD01      0ADE726
0174724084547602023010800567+40183-074133FM-15+0048KBLM V0202805N004652200059N0160935N5+00395+00065102415ADDGA1005+999999999GD10991+9999999GF100991999999999999999999MA1102405101825REMMET09001/07/23 19:56:01 METAR KBLM 080056Z 28009KT 10SM CLR 04/01 A3024 RMK AO2 SLP241 T00390006
0174724084547602023010801567+40183-074133FM-15+0048KBLM V0202805N003652200059N0160935N5+00335+00065102425ADDGA1005+999999999GD10991+9999999GF100991999999999999999999MA1102405101825REMMET09001/07/23 20:56:01 METAR KBLM 080156Z 28007KT 10SM CLR 03/01 A3024 RMK AO2 SLP242 T00330006
0194724084547602023010802567+40183-074133FM-15+0048KBLM V0202605N002152200059N0160935N5+00285+00065102485ADDGA1005+999999999GD10991+9999999GF100991999999999999999999MA1102475101895MD1190149+9999REMMET09601/07/23 21:56:01 METAR KBLM 080256Z 26004KT 10SM CLR 03/01 A3026 RMK AO2 SLP248 T00280006 51014
0181724084547602023010803567+40183-074133FM-15+0048KBLM V0202605N002652200059N0160935N5+00225+00065102495ADDGA1005+999999999GD10991+9999999GF100991999999999999999999MA1102475101895REMMET09701/07/23 22:56:02 METAR KBLM 080356Z 26005KT 10SM CLR 02/01 A3026 RMK AO2 SLP249 T00220006 FZRANO
0217724084547602023010804567+40183-074133FM-15+0048KBLM V0202505N003152200059N0160935N5+00175+00065102515ADDGA1005+999999999GD10991+9999999GF100991999999999999999999KA1240M+00831KA2240N-00061MA1102515101925REMMET10701/07/23 23:56:02 METAR KBLM 080456Z 25006KT 10SM CLR 02/01 A3027 RMK AO2 SLP251 T00170006 400831006 FZRANO
0239724084547602023010805567+40183-074133FM-15+0048KBLM V0202805N002652200059N0160935N5+00115+00065102505ADDGA1005+999999999GD10991+9999999GF100991999999999999999999KA1060M+00441KA2060N+00111MA1102475101895MD1090039+9999REMMET11501/08/23 00:56:02 METAR KBLM 080556Z 28005KT 10SM CLR 01/01 A3026 RMK AO2 SLP250 T00110006 10044 20011 50003 FZRANO
0183724084547602023010806567+40183-074133FM-15+0048KBLM V0202905N002152200059N0160935N5-00065-00115102545ADDGA1005+999999999GD10991+9999999GF100991999999999999999999MA1102545101965REMMET09901/08/23 01:56:02 METAR KBLM 080656Z 29004KT 10SM CLR M01/M01 A3028 RMK AO2 SLP254 T10061011 FZRANO
0183724084547602023010807567+40183-074133FM-15+0048KBLM V0202805N002152200059N0160935N5-00115-00115102605ADDGA1005+999999999GD10991+9999999GF100991999999999999999999MA1102615102035REMMET09901/08/23 02:56:02 METAR KBLM 080756Z 28004KT 10SM CLR M01/M01 A3030 RMK AO2 SLP260 T10111011 FZRANO
0203724084547602023010808567+40183-074133FM-15+0048KBLM V0202805N002652200059N0160935N5-00175-00175102635ADDGA1005+999999999GD10991+9999999GF100991999999999999999999MA1102615102035MD1190149+9999REMMET10501/08/23 03:56:02 METAR KBLM 080856Z 28005KT 10SM CLR M02/M02 A3030 RMK AO2 SLP263 T10171017 51014 FZRANO
0183724084547602023010809567+40183-074133FM-15+0048KBLM V0203105N002152200059N0160935N5-00225-00225102675ADDGA1005+999999999GD10991+9999999GF100991999999999999999999MA1102645102065REMMET09901/08/23 04:56:02 METAR KBLM 080956Z 31004KT 10SM CLR M02/M02 A3031 RMK AO2 SLP267 T10221022 FZRANO
0183724084547602023010810567+40183-074133FM-15+0048KBLM V0203305N004152200059N0160935N5-00225-00225102665ADDGA1005+999999999GD10991+9999999GF100991999999999999999999MA1102645102065REMMET09901/08/23 05:56:02 METAR KBLM 081056Z 33008KT 10SM CLR M02/M02 A3031 RMK AO2 SLP266 T10221022 FZRANO
0241724084547602023010811567+40183-074133FM-15+0048KBLM V0202605N002152200059N0160935N5-00225-00285102735ADDGA1005+999999999GD10991+9999999GF100991999999999999999999KA1060M+00111KA2060N-00281MA1102715102135MD1390089+9999REMMET11701/08/23 06:56:02 METAR KBLM 081156Z 26004KT 10SM CLR M02/M03 A3033 RMK AO2 SLP273 T10221028 10011 21028 53008 FZRANO
0183724084547602023010812567+40183-074133FM-15+0048KBLM V0203205N002652200059N0160935N5-00115-00175102775ADDGA1005+999999999GD10991+9999999GF100991999999999999999999MA1102745102165REMMET09901/08/23 07:56:02 METAR KBLM 081256Z 32005KT 10SM CLR M01/M02 A3034 RMK AO2 SLP277 T10111017 FZRANO
0182724084547602023010813567+40183-074133FM-15+0048KBLM V0203105N002652200059N0160935N5+00115-00395102795ADDGA1005+999999999GD10991+9999999GF100991999999999999999999MA1102785102195REMMET09801/08/23 08:56:02 METAR KBLM 081356Z 31005KT 10SM CLR 01/M04 A3035 RMK AO2 SLP279 T00111039 FZRANO
0202724084547602023010814567+40183-074133FM-15+0048KBLM V0203605N004152200059N0160935N5+00225-00445102795ADDGA1005+999999999GD10991+9999999GF100991999999999999999999MA1102785102195MD1190079+9999REMMET10401/08/23 09:56:02 METAR KBLM 081456Z 36008KT 10SM CLR 02/M04 A3035 RMK AO2 SLP279 T00221044 51007 FZRANO
0175724084547602023010815567+40183-074133FM-15+0048KBLM V0209999C000052200059N0160935N5+00395-00445102775ADDGA1005+999999999GD10991+9999999GF100991999999999999999999MA1102785102195REMMET09101/08/23 10:56:02 METAR KBLM 081556Z 00000KT 10SM CLR 04/M04 A3035 RMK AO2 SLP277 T00391044
0175724084547602023010816567+40183-074133FM-15+0048KBLM V0209999C000052200059N0160935N5+00395-00445102635ADDGA1005+999999999GD10991+9999999GF100991999999999999999999MA1102615102035REMMET09101/08/23 11:56:02 METAR KBLM 081656Z 00000KT 10SM CLR 04/M04 A3030 RMK AO2 SLP263 T00391044
0233724084547602023010817567+40183-074133FM-15+0048KBLM V0202305N002152200059N0160935N5+00505-00445102615ADDGA1005+999999999GD10991+9999999GF100991999999999999999999KA1060M+00561KA2060N-00221MA1102615102035MD1690189+9999REMMET10901/08/23 12:56:02 METAR KBLM 081756Z 23004KT 10SM CLR 05/M04 A3030 RMK AO2 SLP261 T00501044 10056 21022 56018
0175724084547602023010818567+40183-074133FM-15+0048KBLM V0202205N002152200059N0160935N5+00445-00505102545ADDGA1005+999999999GD10991+9999999GF100991999999999999999999MA1102515101925REMMET09101/08/23 13:56:02 METAR KBLM 081856Z 22004KT 10SM CLR 04/M05 A3027 RMK AO2 SLP254 T00441050
0175724084547602023010819567+40183-074133FM-15+0048KBLM V0202305N002152200059N0160935N5+00445-00505102505ADDGA1005+999999999GD10991+9999999GF100991999999999999999999MA1102475101895REMMET09101/08/23 14:56:02 METAR KBLM 081956Z 23004KT 10SM CLR 04/M05 A3026 RMK AO2 SLP250 T00441050
0195724084547602023010820567+40183-074133FM-15+0048KBLM V0201505N002652200059N0160935N5+00335-00225102475ADDGA1005+999999999GD10991+9999999GF100991999999999999999999MA1102445101865MD1690159+9999REMMET09701/08/23 15:56:02 METAR KBLM 082056Z 15005KT 10SM CLR 03/M02 A3025 RMK AO2 SLP247 T00331022 56015
0175724084547602023010821567+40183-074133FM-15+0048KBLM V0201705N001552200059N0160935N5+00285-00175102495ADDGA1005+999999999GD10991+9999999GF100991999999999999999999MA1102475101895REMMET09101/08/23 16:56:02 METAR KBLM 082156Z 17003KT 10SM CLR 03/M02 A3026 RMK AO2 SLP249 T00281017
0226724084547602023010822567+40183-074133FM-15+0048KBLM V0201705N002152200059N0160935N5+00225-00175102395ADDGA1045+036585999GD12991+0365859GE19AGL   +99999+99999GF104995999999036581999999MA1102375101795REMMET10101/08/23 17:56:02 METAR KBLM 082256Z 17004KT 10SM SCT120 02/M02 A3023 RMK AO2 SLP239 T00221017 FZRANOEQDD01      0ADE726
0240724084547602023010823567+40183-074133FM-15+0048KBLM V0201505N002152200059N0160935N5+00175-00115102345ADDGA1005+999999999GD10991+9999999GF100991999999999999999999KA1060M+00501KA2060N+00171MA1102345101765MD1890139+9999REMMET11601/08/23 18:56:02 METAR KBLM 082356Z 15004KT 10SM CLR 02/M01 A3022 RMK AO2 SLP234 T00171011 10050 20017 58013 FZRANO
0182724084547602023010900567+40183-074133FM-15+0048KBLM V0201605N002152200059N0160935N5+00175-00175102305ADDGA1005+999999999GD10991+9999999GF100991999999999999999999MA1102275101695REMMET09801/08/23 19:56:01 METAR KBLM 090056Z 16004KT 10SM CLR 02/M02 A3020 RMK AO2 SLP230 T00171017 FZRANO
0182724084547602023010901567+40183-074133FM-15+0048KBLM V0201905N002652200059N0160935N5+00225-00065102275ADDGA1005+999999999GD10991+9999999GF100991999999999999999999MA1102275101695REMMET09801/08/23 20:56:01 METAR KBLM 090156Z 19005KT 10SM CLR 02/M01 A3020 RMK AO2 SLP227 T00221006 FZRANO
0264724084547602023010902567+40183-074133FM-15+0048KBLM V0202005N00315013725MN0160935N5+00225+00005102205ADDGA1075+013725999GA2085+022865999GD13991+0137259GD24991+0228659GE19AGL   +99999+99999GF199999999999013721999999MA1102175101595MD1890149+9999REMMET11301/08/23 21:56:01 METAR KBLM 090256Z 20006KT 10SM BKN045 OVC075 02/00 A3017 RMK AO2 SLP220 T00220000 58014 FZRANO
0199724084547602023010903567+40183-074133FM-15+0048KBLM V0201805N00155013725MN0160935N5+00285+00065102085ADDGA1085+013725999GD14991+0137259GE19AGL   +99999+99999GF199999999999013721999999MA1102075101495REMMET09301/08/23 22:56:01 METAR KBLM 090356Z 18003KT 10SM OVC045 03/01 A3014 RMK AO2 SLP208 T00280006
0242724084547602023010904567+40183-074133FM-15+0048KBLM V0201105N00155011895MN0160935N5+00335+00115101945ADDGA1085+011895999GD14991+0118959GE19AGL   +99999+99999GF199999999999011891999999KA1240M+00561KA2240N-00281MA1101935101355REMMET11001/08/23 23:56:02 METAR KBLM 090456Z 11003KT 10SM OVC039 03/01 A3010 RMK AO2 PRESFR SLP194 T00330011 400561028
0343724084547602023010905567+40183-074133FM-15+0048KBLM V0209999C00005010675MN0160935N5+00335+00285101905ADDAA101000021AA206000021AU110020015AW1615GA1085+010675999GD14991+0106759GE19AGL   +99999+99999GF199999999999010671999999KA1060M+00331KA2060N+00171MA1101905101325MD1690309+9999MW1615REMMET13301/09/23 00:56:02 METAR KBLM 090556Z 00000KT 10SM -RA OVC035 03/03 A3009 RMK AO2 RAB22 SLP190 P0000 60000 T00330028 10033 20017 56030EQDQ01  00008PRCP06
0319724084547602023010906567+40183-074133FM-15+0048KBLM V0201905N00215009145MN0160935N5+00285+00285101805ADDAA101000021AU110020015AW1615GA1025+005185999GA2075+009145999GA3085+011585999GD11991+0051859GD23991+0091459GD34991+0115859GE19AGL   +99999+99999GF199999999999005181999999MA1101795101225MW1615REMMET11701/09/23 01:56:02 METAR KBLM 090656Z 19004KT 10SM -RA FEW017 BKN030 OVC038 03/03 A3006 RMK AO2 SLP180 P0000 T00280028
0298724084547602023010907167+40183-074133FM-15+0048KBLM V0201905N00155007925MN0096565N5+00305+99999999999ADDAA101000395AU110020015AW1615GA1045+005795999GA2075+007925999GA3085+009145999GD12991+0057959GD23991+0079259GD34991+0091459GE19AGL   +99999+99999GF199999999999005791999999MA1101765101185MW1615REMMET09601/09/23 02:16:02 METAR KBLM 090716Z 19003KT 6SM -RA SCT019 BKN026 OVC030 03/A3005 RMK AO2 P0001
0235724084547602023010907567+40183-074133FM-15+0048KBLM V0209999C00005006715MN0080475N5+00285+99999101735ADDAA101000595AU110020015AW1615GA1085+006715999GD14991+0067159GE19AGL   +99999+99999GF199999999999006711999999MA1101735101155MW1615REMMET09501/09/23 02:56:02 METAR KBLM 090756Z 00000KT 5SM -RA OVC022 03/A3004 RMK AO2 SLP173 P0002 T0028
0298724084547602023010908437+40183-074133FM-15+0048KBLM V0209999C00005012195MN0080475N5+00305+99999999999ADDAA101000395AU110020015AW1615GA1025+002745999GA2075+012195999GA3085+015245999GD11991+0027459GD23991+0121959GD34991+0152459GE19AGL   +99999+99999GF199999999999002741999999MA1101595101015MW1615REMMET09601/09/23 03:43:02 METAR KBLM 090843Z 00000KT 5SM -RA FEW009 BKN040 OVC050 03/A3000 RMK AO2 P0001
0312724084547602023010908517+40183-074133FM-15+0048KBLM V0209999C00005003355MN0096565N5+00305+99999999999ADDAA101000395AU110020015AW1615GA1075+003355999GA2075+004885999GA3085+012195999GD13991+0033551GD23991+0048859GD34991+0121959GE19AGL   +99999+99999GF199999999999003351999999MA1101565100985MW1615REMMET11001/09/23 03:51:02 METAR KBLM 090851Z 00000KT 6SM -RA BKN011 BKN016 OVC040 03/A2999 RMK AO2 CIG 009V014 P0001 $
0327724084547602023010908567+40183-074133FM-15+0048KBLM V0209999C00005012195MN0096565N5+00285+99999999999ADDAA101000395AA203000891AU110020015AW1615GA1045+003355999GA2045+004275999GA3085+012195999GD12991+0033559GD22991+0042759GD34991+0121959GE19AGL   +99999+99999GF199999999999003351999999MW1615REMMET11001/09/23 03:56:02 METAR KBLM 090856Z 00000KT 6SM -RA SCT011 SCT014 OVC040 03/RMK AO2 SLPNO P0001 60003 T0028 $EQDQ01  00078PRCP03
0314724084547602023010909027+40183-074133FM-15+0048KBLM V0209999C00005004275MN0096565N5+00305+99999999999ADDAA101000021AU120090015AW1401AW2415GA1045+002745999GA2075+004275999GA3085+012195999GD12991+0027459GD23991+0042759GD34991+0121959GE19AGL   +99999+99999GF199999999999002741999999MA1101565100985REMMET11201/09/23 04:02:02 METAR KBLM 090902Z 00000KT 6SM UP SCT009 BKN014 OVC040 03/A2999 RMK AO2 RAE0857UPB0857 P0000 $
0261724084547602023010909327+40183-074133FM-15+0048KBLM V0209999C00005002745MN0096565N5+99999+99999999999ADDAA101000021AU110020015AW1615GA1085+002745999GD14991+0027451GE19AGL   +99999+99999GF199999999999002741999999MA1101525100955MW1615REMMET12101/09/23 04:32:02 METAR KBLM 090932Z 00000KT 6SM -RA OVC009 A2998 RMK AO2 RAE0857B15UPB0857E15 CIG 007V012 P0000 FZRANO $
0293724084547602023010909567+40183-074133FM-15+0048KBLM V0209999C00005003355MN0080475N5+99999+99999999999ADDAA101000395AU110020015AW1615GA1045+001525999GA2085+003355999GD12991+0015259GD24991+0033559GE19AGL   +99999+99999GF199999999999001521999999MA1101495100915MW1615REMMET12201/09/23 04:56:02 METAR KBLM 090956Z 00000KT 5SM -RA SCT005 OVC011 A2997 RMK AO2 RAE0857B15UPB0857E15 SLPNO P0001 FZRANO $
0234724084547602023010910567+40183-074133FM-15+0048KBLM V0209999C00005003355MN0080475N5+99999+99999999999ADDAA101000595AU110020015AW1615GA1085+003355999GD14991+0033559GE19AGL   +99999+99999GF199999999999003351999999MA1101525100955MW1615REMMET09401/09/23 05:56:02 METAR KBLM 091056Z 00000KT 5SM -RA OVC011 A2998 RMK AO2 SLPNO P0002 FZRANO $
0245724084547602023010911407+40183-074133FM-15+0048KBLM V0209999C00005003965MN0112655N5+99999+99999999999ADDAA101000395GA1045+000915999GA2085+003965999GD12991+0009159GD24991+0039659GE19AGL   +99999+99999GF199999999999000911999999MA1101495100915REMMET09701/09/23 06:40:02 METAR KBLM 091140Z 00000KT 7SM SCT003 OVC013 A2997 RMK AO2 RAE32 P0001 FZRANO $
0283724084547602023010911497+40183-074133FM-15+0048KBLM V0203305N00155000915MN0112655N5+99999+99999999999ADDAA101000395GA1075+000915999GA2075+003965999GA3085+007015999GD13991+0009159GD23991+0039659GD34991+0070159GE19AGL   +99999+99999GF199999999999000911999999MA1101495100915REMMET10401/09/23 06:49:02 METAR KBLM 091149Z 33003KT 7SM BKN003 BKN013 OVC023 A2997 RMK AO2 RAE32 P0001 FZRANO $
0337724084547602023010911567+40183-074133FM-15+0048KBLM V0209999N99999003965MN0112655N5+99999+99999999999ADDAA101000395AA206001891AA324001891GA1045+000915999GA2075+003965999GA3085+006405999GD12991+0009159GD23991+0039659GD34991+0064059GE19AGL   +99999+99999GF199999999999000911999999REMMET11601/09/23 06:56:02 METAR KBLM 091156Z      KT 7SM SCT003 BKN013 OVC021 RMK AO2 RAE32 SLPNO P0001 60007 70007 FZRANO $EQDQ01  00178PRCP06Q02  00178PRCP24
0286724084547602023010912057+40183-074133FM-15+0048KBLM V0203205N00265004885MN0096565N5+99999+99999999999ADDAU100007015AW1051GA1045+000915999GA2075+004885999GA3085+006405999GD12991+0009159GD23991+0048859GD34991+0064059GE19AGL   +99999+99999GF199999999999000911999999MA1101465100885MW1055REMMET09501/09/23 07:05:02 METAR KBLM 091205Z 32005KT 6SM HZ SCT003 BKN016 OVC021 A2996 RMK AO2 FZRANO $
0248724084547602023010912197+40183-074133FM-15+0048KBLM V0203205N00215003355MN0096565N5+99999+99999999999ADDAU100007015AW1051GA1075+003355999GA2085+005185999GD13991+0033559GD24991+0051859GE19AGL   +99999+99999GF199999999999003351999999MA1101465100885MW1055REMMET08801/09/23 07:19:02 METAR KBLM 091219Z 32004KT 6SM HZ BKN011 OVC017 A2996 RMK AO2 FZRANO $
0260724084547602023010912307+40183-074133FM-15+0048KBLM V0203005N00155002135MN0080475N5+99999+99999999999ADDAU100007015AW1051GA1075+002135999GA2085+003965999GD13991+0021351GD24991+0039659GE19AGL   +99999+99999GF199999999999002131999999MA1101495100915MW1055REMMET10001/09/23 07:30:02 METAR KBLM 091230Z 30003KT 5SM HZ BKN007 OVC013 A2997 RMK AO2 CIG 005V009 FZRANO $
0228724084547602023010912567+40183-074133FM-15+0048KBLM V0202805N00155002135MN0064375N5+99999+99999999999ADDAU100007015AW1051GA1085+002135999GD14991+0021351GE19AGL   +99999+99999GF199999999999002131999999MA1101495100915MW1055REMMET09901/09/23 07:56:02 METAR KBLM 091256Z 28003KT 4SM HZ OVC007 A2997 RMK AO2 CIG 004V008 SLPNO FZRANO $
