0248724090147802022010100004+40033-074353FM-15+003199999V0209999C000010042719N999999999+01001+00891101401ADDGD11991+0015219GD24991+0042719GE19AGL   +99999+99999GF199999999999001521999999KA1060M+01111KA2060N+01001MA1101421999999MD1310051+9999REMMET103METAR KNEL 010000Z AUTO 00000KT FEW005 OVC014 10/09 A2995 RMK AO2 SLP140 T01000089 10111 20100 53005 $=
0185724090147802022010100564+40033-074353FM-16+003199999V0201801N001510015219N999999999+01001+00901999999ADDGD13991+0021311GD24991+0033519GE19AGL   +99999+99999GF199999999999002131999999MA1101421999999REMMET080SPECI KNEL 010056Z AUTO 18003KT BKN007 OVC011 10/09 A2995 RMK AO2 CIG 005V009 $=
0190724090147802022010101004+40033-074353FM-15+003199999V0201801N001510021319N999999999+01001+00941101401ADDGD13991+0021319GD24991+0033519GE19AGL   +99999+99999GF199999999999002131999999MA1101421999999REMMET085METAR KNEL 010100Z AUTO 18003KT BKN007 OVC011 10/09 A2995 RMK AO2 SLP140 T01000094 $=
0180724090147802022010102004+40033-074353FM-15+003199999V0201601N002110012219N999999999+01001+00941101351ADDGD14991+0021311GE19AGL   +99999+99999GF199999999999002131999999MA1101351999999REMMET090METAR KNEL 010200Z AUTO 16004KT OVC007 10/09 A2993 RMK AO2 CIG 004V011 SLP135 T01000094 $=
0161724090147802022010102224+40033-074353FM-16+003199999V0201801N002110009119N999999999+01001+00941999999ADDGD14991+0009119GE19AGL   +99999+99999GF199999999999000911999999MA1101351999999REMMET071SPECI KNEL 010222Z AUTO 18004KT OVC003 10/09 A2993 RMK AO2 T01000094 $=
0188724090147802022010103004+40033-074353FM-15+003199999V0201701N002110012219N999999999+01001+00941101331ADDGD14991+0012219GE19AGL   +99999+99999GF199999999999001221999999MA1101351999999MD1810061+9999REMMET084METAR KNEL 010300Z AUTO 17004KT OVC004 10/09 A2993 RMK AO2 SLP133 T01000094 58006 $=
0168724090147802022010104004+40033-074353FM-15+003199999V0201801N002110012219N999999999+01001+00941101301ADDGD14991+0012219GE19AGL   +99999+99999GF199999999999001221999999MA1101321999999REMMET078METAR KNEL 010400Z AUTO 18004KT OVC004 10/09 A2992 RMK AO2 SLP130 T01000094 $=
0161724090147802022010104194+40033-074353FM-16+003199999V0201801N002610015219N999999999+01001+00941999999ADDGD14991+0015219GE19AGL   +99999+99999GF199999999999001521999999MA1101321999999REMMET071SPECI KNEL 010419Z AUTO 18005KT OVC005 10/09 A2992 RMK AO2 T01000094 $=
0232724090147802022010105007+40033-074350FM-15+0031KNEL V0201805N00265001525MN9999999N5+01005+00945101255ADDGA1085+001525999GD14991+0015259GE19AGL   +99999+99999GF199999999999001521999999KA1240M+01001KA2240N+01001MA1101255100885REMMET10001/01/22 00:00:02 METAR KNEL 010500Z 18005KT OVC005 10/09 A2990 RMK AO2 SLP125 T01000094 401000100 $
0189724090147802022010105297+40033-074350FM-16+0031KNEL V0201905N00315001225MN9999999N5+01005+00945999999ADDGA1085+001225999GD14991+0012259GE19AGL   +99999+99999GF199999999999001221999999MA1101255100885REMMET08301/01/22 00:29:02 SPECI KNEL 010529Z 19006KT OVC004 10/09 A2990 RMK AO2 T01000094 $
0254724090147802022010106007+40033-074350FM-15+0031KNEL V0201705N00215001225MN9999999N5+01005+01005101185ADDGA1085+001225999GD14991+0012259GE19AGL   +99999+99999GF199999999999001221999999KA1060M+01001KA2060N+01001MA1101195100815MD1890099+9999REMMET10801/01/22 01:00:02 METAR KNEL 010600Z 17004KT OVC004 10/10 A2988 RMK AO2 SLP118 T01000100 10100 20100 58009 $
0226724090147802022010107007+40033-074350FM-15+0031KNEL V0201405N00265000915MN9999999N5+01005+01005101165ADDAA101000021GA1085+000915999GD14991+0009159GE19AGL   +99999+99999GF199999999999000911999999MA1101195100815REMMET10901/01/22 02:00:02 METAR KNEL 010700Z 14005KT OVC003 10/10 A2988 RMK AO2 RAB0601E0621 SLP116 P0000 T01000100 $
0248724090147802022010108007+40033-074350FM-15+0031KNEL V0201405N00315000915MN9999999N5+01005+01005101135ADDAA101000021AU110020015AW1615GA1085+000915999GD14991+0009159GE19AGL   +99999+99999GF199999999999000911999999MA1101155100785MW1615REMMET10801/01/22 03:00:02 METAR KNEL 010800Z 14006KT -RA OVC003 10/10 A2987 RMK AO2 RAB0746 SLP113 P0000 T01000100 $
0296724090147802022010109007+40033-074350FM-15+0031KNEL V0201105N00215000915MN9999999N5+01005+01005101085ADDAA101000395AA203000391AU110020015AW1615GA1085+000915999GD14991+0009159GE19AGL   +99999+99999GF199999999999000911999999MA1101085100715MD1690129+9999MW1615REMMET11201/01/22 04:00:02 METAR KNEL 010900Z 11004KT -RA OVC003 10/10 A2985 RMK AO2 SLP108 P0001 60001 T01000100 56012 $EQDQ01  00028PRCP03
0242724090147802022010110007+40033-074350FM-16+0031KNEL V0201005N00155008845MN9999999N5+01105+01005999999ADDAA101000231GA1045+000915999GA2085+008845999GD12991+0009159GD24991+0088459GE19AGL   +99999+99999GF199999999999000911999999MA1100985100615REMMET09401/01/22 05:00:02 SPECI KNEL 011000Z 10003KT SCT003 OVC029 11/10 A2982 RMK AO2 RAE0946 P0001 $
0242724090147802022010110077+40033-074350FM-16+0031KNEL V0209999C00005000915MN9999999N5+01005+01005999999ADDAA101000231GA1075+000915999GA2085+008845999GD13991+0009159GD24991+0088459GE19AGL   +99999+99999GF199999999999000911999999MA1101025100645REMMET09401/01/22 05:07:02 SPECI KNEL 011007Z 00000KT BKN003 OVC029 10/10 A2983 RMK AO2 RAE0946 P0001 $
0225724090147802022010111007+40033-074350FM-15+0031KNEL V0201205N00155000915MN9999999N5+01005+01005100965ADDAA101000395GA1085+000915999GD14991+0009159GE19AGL   +99999+99999GF199999999999000911999999MA1100985100615REMMET10801/01/22 06:00:02 METAR KNEL 011100Z 12003KT OVC003 10/10 A2982 RMK AO2 RAE10091046 SLP096 P0001 T01000100 $
0375724090147802022010112007+40033-074350FM-15+0031KNEL V0209999C00005000915MN9999999N5+01065+01005100975ADDAA101000395AA206000891AA324000891AU110020015AW1615GA1085+000915999GD14991+0009159GE19AGL   +99999+99999GF199999999999000911999999KA1060M+01061KA2060N+01001MA1100985100615MD1690129+9999MW1615REMMET13801/01/22 07:00:02 METAR KNEL 011200Z 00000KT -RA OVC003 11/10 A2982 RMK AO2 RAB1108 SLP097 P0001 60003 70003 T01060100 10106 20100 56012 $EQDQ01  00078PRCP06Q02  00078PRCP24
0240724090147802022010113007+40033-074350FM-15+0031KNEL V0209999C00005001225MN9999999N5+01065+01065100985ADDAA101000595AU110020015AW1615GA1085+001225999GD14991+0012259GE19AGL   +99999+99999GF199999999999001221999999MA1100985100615MW1615REMMET10001/01/22 08:00:02 METAR KNEL 011300Z 00000KT -RA OVC004 11/11 A2982 RMK AO2 SLP098 P0002 T01060106 $
0278724090147802022010114007+40033-074350FM-15+0031KNEL V0209999C00005000915MN9999999N5+01115+01115101045ADDAA101000595AU110020015AW1615GA1075+000915999GA2085+002135999GD13991+0009159GD24991+0021359GE19AGL   +99999+99999GF199999999999000911999999MA1101055100685MW1615REMMET10701/01/22 09:00:02 METAR KNEL 011400Z 00000KT -RA BKN003 OVC007 11/11 A2984 RMK AO2 SLP104 P0002 T01110111 $
0298724090147802022010115007+40033-074350FM-16+0031KNEL V0202005N00265016765MN9999999N5+01205+01205999999ADDAA101000731AU120020015AW1625GA1025+002135999GA2075+016765999GA3085+027435999GD11991+0021359GD23991+0167659GD34991+0274359GE19AGL   +99999+99999GF199999999999002131999999MA1101125100755MW1655REMMET09601/01/22 10:00:02 SPECI KNEL 011500Z 20005KT RA FEW007 BKN055 OVC090 12/12 A2986 RMK AO2 P0003 $
0372724090147802022010115067+40033-074350FM-15+0031KNEL V0202105N00215016765MN9999999N5+01175+01175101095ADDAA101001095AA203002891AU110020015AW1615GA1025+002745999GA2075+016765999GA3085+027435999GD11991+0027459GD23991+0167659GD34991+0274359GE19AGL   +99999+99999GF199999999999002741999999MA1101125100755MD1390089+9999MW1615REMMET12601/01/22 10:06:02 METAR KNEL 011506Z 21004KT -RA FEW009 BKN055 OVC090 12/12 A2986 RMK AO2 SLP109 P0004 60011 T01170117 53008 $EQDQ01  00278PRCP03
0309724090147802022010115227+40033-074350FM-16+0031KNEL V0209999C00005002745MN9999999N5+01225+01225999999ADDAA101000021AU110020015AW1615GA1075+002745999GA2075+014335999GA3085+018295999GD13991+0027459GD23991+0143359GD34991+0182959GE19AGL   +99999+99999GF199999999999002741999999MA1101085100715MW1615REMMET10701/01/22 10:22:02 SPECI KNEL 011522Z 00000KT -RA BKN009 BKN047 OVC060 12/12 A2985 RMK AO2 P0000 T01220122 $
0245724090147802022010115447+40033-074350FM-16+0031KNEL V0201705N00155001225MN9999999N5+01225+01225999999ADDAA101000231AU110020015AW1615GA1085+001225999GD14991+0012251GE19AGL   +99999+99999GF199999999999001221999999MA1101055100685MW1615REMMET10501/01/22 10:44:02 SPECI KNEL 011544Z 17003KT -RA OVC004 12/12 A2984 RMK AO2 CIG 004V008 P0001 T01220122 $
0239724090147802022010116007+40033-074350FM-15+0031KNEL V0202005N00215001225MN9999999N5+01285+01225100995ADDAA101000595AU120020015AW1625GA1085+001225999GD14991+0012259GE19AGL   +99999+99999GF199999999999001221999999MA1101025100645MW1655REMMET09901/01/22 11:00:02 METAR KNEL 011600Z 20004KT RA OVC004 13/12 A2983 RMK AO2 SLP099 P0002 T01280122 $
0233724090147802022010116217+40033-074350FM-16+0031KNEL V0202105N00215001525MN9999999N5+01285+01285999999ADDAA101000231AU110020015AW1615GA1085+001525999GD14991+0015259GE19AGL   +99999+99999GF199999999999001521999999MA1100955100585MW1615REMMET09301/01/22 11:21:02 SPECI KNEL 011621Z 21004KT -RA OVC005 13/13 A2981 RMK AO2 P0001 T01280128 $
0240724090147802022010117007+40033-074350FM-15+0031KNEL V0202205N00215001525MN9999999N5+01335+01285100835ADDAA101000595AU110020015AW1615GA1085+001525999GD14991+0015259GE19AGL   +99999+99999GF199999999999001521999999MA1100855100485MW1615REMMET10001/01/22 12:00:02 METAR KNEL 011700Z 22004KT -RA OVC005 13/13 A2978 RMK AO2 SLP083 P0002 T01330128 $
0233724090147802022010117287+40033-074350FM-16+0031KNEL V0202405N00155001225MN9999999N5+01335+01285999999ADDAA101000531AU110020015AW1615GA1085+001225999GD14991+0012259GE19AGL   +99999+99999GF199999999999001221999999MA1100785100415MW1615REMMET09301/01/22 12:28:02 SPECI KNEL 011728Z 24003KT -RA OVC004 13/13 A2976 RMK AO2 P0002 T01330128 $
0334724090147802022010118007+40033-074350FM-15+0031KNEL V0202505N00155001225MN9999999N5+01335+01335100735ADDAA101000895AA206003891AU110020015AW1615GA1085+001225999GD14991+0012259GE19AGL   +99999+99999GF199999999999001221999999KA1060M+01331KA2060N+01111MA1100755100375MD1890269+9999MW1615REMMET12401/01/22 13:00:02 METAR KNEL 011800Z 25003KT -RA OVC004 13/13 A2975 RMK AO2 SLP073 P0003 60015 T01330133 10133 20111 58026 $EQDQ01  00388PRCP06
0271724090147802022010118267+40033-074350FM-16+0031KNEL V0202505N00215001525MN9999999N5+01395+01335999999ADDAA101000231AU110020015AW1615GA1075+001525999GA2085+022865999GD13991+0015259GD24991+0228659GE19AGL   +99999+99999GF199999999999001521999999MA1100755100375MW1615REMMET10001/01/22 13:26:02 SPECI KNEL 011826Z 25004KT -RA BKN005 OVC075 14/13 A2975 RMK AO2 P0001 T01390133 $
0316724090147802022010119007+40033-074350FM-15+0031KNEL V0202505N00155001525MN9999999N5+01395+01335100695ADDAA101000895AU110020015AW1615GA1075+001525999GA2075+016765999GA3085+022865999GD13991+0015259GD23991+0167659GD34991+0228659GE19AGL   +99999+99999GF199999999999001521999999MA1100715100345MW1615REMMET11401/01/22 14:00:02 METAR KNEL 011900Z 25003KT -RA BKN005 BKN055 OVC075 14/13 A2974 RMK AO2 SLP069 P0003 T01390133 $
0278724090147802022010120007+40033-074350FM-15+0031KNEL V0209999C00005001835MN9999999N5+01395+01335100635ADDAA101000595AU110020015AW1615GA1075+001835999GA2085+013115999GD13991+0018359GD24991+0131159GE19AGL   +99999+99999GF199999999999001831999999MA1100645100275MW1615REMMET10701/01/22 15:00:02 METAR KNEL 012000Z 00000KT -RA BKN006 OVC043 14/13 A2972 RMK AO2 SLP063 P0002 T01390133 $
0347724090147802022010121007+40033-074350FM-15+0031KNEL V0209999C00005001525MN9999999N5+01335+01335100585ADDAA101000021AA203003091AU110020015AW1615GA1075+001525999GA2085+010365999GD13991+0015259GD24991+0103659GE19AGL   +99999+99999GF199999999999001521999999MA1100615100245MD1690209+9999MW1615REMMET13201/01/22 16:00:02 METAR KNEL 012100Z 00000KT -RA BKN005 OVC034 13/13 A2971 RMK AO2 RAE2035B2059 SLP058 P0000 60012 T01330133 56020 $EQDQ01  00308PRCP03
0271724090147802022010121267+40033-074350FM-16+0031KNEL V0209999C00005008235MN9999999N5+01395+01335999999ADDAA101000231AU110020015AW1615GA1025+001525999GA2085+008235999GD11991+0015259GD24991+0082359GE19AGL   +99999+99999GF199999999999001521999999MA1100615100245MW1615REMMET10001/01/22 16:26:02 SPECI KNEL 012126Z 00000KT -RA FEW005 OVC027 14/13 A2971 RMK AO2 P0001 T01390133 $
0288724090147802022010121447+40033-074350FM-16+0031KNEL V0201205N00155000915MN9999999N5+01335+01335999999ADDAA101000231GA1075+000915999GA2075+006405999GA3085+008235999GD13991+0009159GD23991+0064059GD34991+0082359GE19AGL   +99999+99999GF199999999999000911999999MA1100585100215REMMET10901/01/22 16:44:02 SPECI KNEL 012144Z 12003KT BKN003 BKN021 OVC027 13/13 A2970 RMK AO2 RAE32 P0001 T01330133 $
0291724090147802022010122007+40033-074350FM-15+0031KNEL V0201405N00315000915MN9999999N5+01335+01335100565ADDAA101000395AU110020015AW1615GA1075+000915999GA2085+007925999GD13991+0009159GD24991+0079259GE19AGL   +99999+99999GF199999999999000911999999MA1100585100215MW1615REMMET12001/01/22 17:00:02 METAR KNEL 012200Z 14006KT -RA BKN003 OVC026 13/13 A2970 RMK AO2 RAE2132B2150 SLP056 P0001 T01330133 $
0259724090147802022010123007+40033-074350FM-15+0031KNEL V0201505N00265000615MN9999999N5+01285+01285100525ADDAA101000021GA1075+000615999GA2085+006105999GD13991+0006159GD24991+0061059GE19AGL   +99999+99999GF199999999999000611999999MA1100545100175REMMET11101/01/22 18:00:02 METAR KNEL 012300Z 15005KT BKN002 OVC020 13/13 A2969 RMK AO2 RAE2204 SLP052 P0000 T01280128 $
0320724090147802022010200007+40033-074350FM-15+0031KNEL V0201005N00155000915MN9999999N5+01285+01225100485ADDAA101000021AA206001591GA1085+000915999GD14991+0009159GE19AGL   +99999+99999GF199999999999000911999999KA1060M+01391KA2060N+01281MA1100515100145MD1690119+9999REMMET13301/01/22 19:00:01 METAR KNEL 020000Z 10003KT OVC003 13/12 A2968 RMK AO2 RAB2306E2358 SLP048 P0000 60006 T01280122 10139 20128 56011 $EQDQ01  00158PRCP06
0255724090147802022010201007+40033-074350FM-15+0031KNEL V0201105N00215000915MN9999999N5+01225+01225100365ADDAA101001395AU110020015AW1615GA1085+000915999GD14991+0009159GE19AGL   +99999+99999GF199999999999000911999999MA1100375100005MW1615REMMET11501/01/22 20:00:01 METAR KNEL 020100Z 11004KT -RA OVC003 12/12 A2964 RMK AO2 RAB0001 PRESFR SLP036 P0005 T01220122 $
0228724090147802022010202007+40033-074350FM-15+0031KNEL V0201005N00265000615MN9999999N5+01285+01225100245ADDAA101000395GA1085+000615999GD14991+0006159GE19AGL   +99999+99999GF199999999999000611999999MA1100245099875REMMET11101/01/22 21:00:01 METAR KNEL 020200Z 10005KT OVC002 13/12 A2960 RMK AO2 RAE0130 PRESFR SLP024 P0001 T01280122 $
0304724090147802022010203007+40033-074350FM-15+0031KNEL V0201305N00465000915MN9999999N5+01335+01285100105ADDAA101000595AA203002391AU130020015AW1635GA1085+000915999GD14991+0009159GE19AGL   +99999+99999GF199999999999000911999999MA1100105099735MD1890289+9999MW1635REMMET12001/01/22 22:00:01 METAR KNEL 020300Z 13009KT +RA OVC003 13/13 A2956 RMK AO2 RAB0247 SLP010 P0002 60009 T01330128 58028 $EQDQ01  00228PRCP03
0240724090147802022010204007+40033-074350FM-15+0031KNEL V0203405N00265000615MN9999999N5+01285+01285100145ADDAA101001895AU130020015AW1635GA1085+000615999GD14991+0006159GE19AGL   +99999+99999GF199999999999000611999999MA1100175099805MW1635REMMET10001/01/22 23:00:02 METAR KNEL 020400Z 34005KT +RA OVC002 13/13 A2958 RMK AO2 SLP014 P0007 T01280128 $
0309724090147802022010204167+40033-074350FM-16+0031KNEL V0200805N00265003355MN9999999N5+01285+01285999999ADDAA101000731AU110020015AW1615GA1045+001225999GA2075+003355999GA3085+011585999GD12991+0012259GD23991+0033559GD34991+0115859GE19AGL   +99999+99999GF199999999999001221999999MA1100105099735MW1615REMMET10701/01/22 23:16:02 SPECI KNEL 020416Z 08005KT -RA SCT004 BKN011 OVC038 13/13 A2956 RMK AO2 P0003 T01280128 $
0288724090147802022010204277+40033-074350FM-16+0031KNEL V0200705N00265011585MN9999999N5+01285+01285999999ADDAA101001231GA1025+000915999GA2045+003055999GA3075+011585999GD11991+0009159GD22991+0030559GD33991+0115859GE19AGL   +99999+99999GF199999999999000911999999MA1100075099705REMMET10901/01/22 23:27:02 SPECI KNEL 020427Z 07005KT FEW003 SCT010 BKN038 13/13 A2955 RMK AO2 RAE23 P0005 T01280128 $
001572409014780202201020459O+40033-074350SOD  +0031KNEL V020999999999999999999999999999+99999+99999999999ADDAT1AU16RA  5
0276724090147802022010205007+40033-074350FM-15+0031KNEL V0200705N002152200059N9999999N5+01285+01225100035ADDAA101002031GA1045+000915999GD12991+0009159GE19AGL   +99999+99999GF104995999999000911999999KA1240M+01281KA2240N+01281MA1100035099675REMMET11401/02/22 00:00:02 METAR KNEL 020500Z 07004KT SCT003 13/12 A2954 RMK AO2 RAE0423 SLP003 P0008 T01280122 401280128 $EQDD01      0ADE726
0189724090147802022010205077+40033-074350FM-16+0031KNEL V0200505N00215000915MN9999999N5+01285+01225999999ADDGA1075+000915999GD13991+0009159GE19AGL   +99999+99999GF199999999999000911999999MA1100035099675REMMET08301/02/22 00:07:02 SPECI KNEL 020507Z 05004KT BKN003 13/12 A2954 RMK AO2 T01280122 $
0277724090147802022010205517+40033-074350FM-16+0031KNEL V0200605N00155036585MN9999999N5+01225+01175999999ADDAA101000021AU110020015AW1615GA1045+001525999GA2075+036585999GD12991+0015259GD23991+0365859GE19AGL   +99999+99999GF199999999999001521999999MA1100075099705MW1615REMMET10601/02/22 00:51:02 SPECI KNEL 020551Z 06003KT -RA SCT005 BKN120 12/12 A2955 RMK AO2 RAB35 P0000 T01220117 $
0380724090147802022010206007+40033-074350FM-15+0031KNEL V0201005N00215036585MN9999999N5+01175+01115100015ADDAA101000021AA206005891AU110020015AW1615GA1025+001525999GA2075+036585999GD11991+0015259GD23991+0365859GE19AGL   +99999+99999GF199999999999001521999999KA1060M+01331KA2060N+01171MA1100035099675MD1690209+9999MW1615REMMET13901/02/22 01:00:02 METAR KNEL 020600Z 10004KT -RA FEW005 BKN120 12/11 A2954 RMK AO2 RAB0535 SLP001 P0000 60023 T01170111 10133 20117 56020 $EQDQ01  00588PRCP06
0299724090147802022010206547+40033-074350FM-16+0031KNEL V0209999V00155001225MN9999999N5+01205+01105999999ADDAA101000231AU110020015AW1615GA1075+001225999GA2075+027435999GA3075+033535999GD13991+0012259GD23991+0274359GD33991+0335359GE19AGL   +99999+99999GF199999999999001221999999MA1100035099675MW1615REMMET09701/02/22 01:54:02 SPECI KNEL 020654Z VRB03KT -RA BKN004 BKN090 BKN110 12/11 A2954 RMK AO2 P0001 $
0278724090147802022010207007+40033-074350FM-15+0031KNEL V0209999C00005001225MN9999999N5+01175+01115100005ADDAA101000395AU110020015AW1615GA1075+001225999GA2075+033535999GD13991+0012259GD23991+0335359GE19AGL   +99999+99999GF199999999999001221999999MA1100035099675MW1615REMMET10701/02/22 02:00:02 METAR KNEL 020700Z 00000KT -RA BKN004 BKN110 12/11 A2954 RMK AO2 SLP000 P0001 T01170111 $
0253724090147802022010208007+40033-074350FM-15+0031KNEL V0202205N00155000915MN9999999N5+01115+01115100035ADDAA101000021AU110020015AW1615GA1075+000915999GD13991+0009159GE19AGL   +99999+99999GF199999999999000911999999MA1100035099675MW1615REMMET11301/02/22 03:00:02 METAR KNEL 020800Z 22003KT -RA BKN003 11/11 A2954 RMK AO2 RAE0712B0729 SLP003 P0000 T01110111 $
0296724090147802022010209007+40033-074350FM-15+0031KNEL V0203105N00215000915MN9999999N5+01175+01175100085ADDAA101000595AA203004691AU110020015AW1615GA1085+000915999GD14991+0009159GE19AGL   +99999+99999GF199999999999000911999999MA1100105099735MD1590009+9999MW1615REMMET11201/02/22 04:00:02 METAR KNEL 020900Z 31004KT -RA OVC003 12/12 A2956 RMK AO2 SLP008 P0002 60018 T01170117 55000 $EQDQ01  00458PRCP03
0240724090147802022010210007+40033-074350FM-15+0031KNEL V0202405N00155001225MN9999999N5+01225+01225100075ADDAA101000595AU110020015AW1615GA1085+001225999GD14991+0012259GE19AGL   +99999+99999GF199999999999001221999999MA1100105099735MW1615REMMET10001/02/22 05:00:02 METAR KNEL 021000Z 24003KT -RA OVC004 12/12 A2956 RMK AO2 SLP007 P0002 T01220122 $
0221724090147802022010211007+40033-074350FM-15+0031KNEL V0202605N00365001225MN9999999N5+01225+01225100145ADDAA101000395GA1085+001225999GD14991+0012259GE19AGL   +99999+99999GF199999999999001221999999MA1100145099775REMMET10401/02/22 06:00:02 METAR KNEL 021100Z 26007KT OVC004 12/12 A2957 RMK AO2 RAE1055 SLP014 P0001 T01220122 $
0209724090147802022010212007+40033-074350FM-16+0031KNEL V0202705N00415001525MN9999999N5+01305+01205999999ADDAA101000231GA1085+001525999GD14991+0015259GE19AGL   +99999+99999GF199999999999001521999999MA1100175099805REMMET09201/02/22 07:00:02 SPECI KNEL 021200Z 27008KT OVC005 13/12 A2958 RMK AO2 RAB1103E1158 P0001 $
0353724090147802022010212067+40033-074350FM-15+0031KNEL V0202605N00415001525MN9999999N5+01285+01225100145ADDAA101000395AA206001891AA324013091GA1085+001525999GD14991+0015259GE19AGL   +99999+99999GF199999999999001521999999KA1060M+01281KA2060N+01111MA1100175099805MD1390109+9999REMMET13901/02/22 07:06:02 METAR KNEL 021206Z 26008KT OVC005 13/12 A2958 RMK AO2 RAB1103E1158 SLP014 P0001 60007 70051 T01280122 10128 20111 53010 $EQDQ01  00178PRCP06Q02  01298PRCP24
0148724090147802022010213006+40033-074350FM-15+0031KNEL V0202405N00315001525MN9999999N5+01285+01225100195ADDGA1085+001525999GD14991+0015259MA1100205099835REMMET09001/02/22 08:00:02 METAR KNEL 021300Z 24006KT OVC005 13/12 A2959 RMK AO2 SLP019 T01280122 $
0189724090147802022010213187+40033-074350FM-16+0031KNEL V0202605N00215001225MN9999999N5+01285+01225999999ADDGA1085+001225999GD14991+0012259GE19AGL   +99999+99999GF199999999999001221999999MA1100145099775REMMET08301/02/22 08:18:02 SPECI KNEL 021318Z 26004KT OVC004 13/12 A2957 RMK AO2 T01280122 $
0196724090147802022010214007+40033-074350FM-15+0031KNEL V0202505N00365001225MN9999999N5+01285+01225100265ADDGA1085+001225999GD14991+0012259GE19AGL   +99999+99999GF199999999999001221999999MA1100275099905REMMET09001/02/22 09:00:02 METAR KNEL 021400Z 25007KT OVC004 13/12 A2961 RMK AO2 SLP026 T01280122 $
0189724090147802022010214317+40033-074350FM-16+0031KNEL V0202505N00415001525MN9999999N5+01335+01285999999ADDGA1085+001525999GD14991+0015259GE19AGL   +99999+99999GF199999999999001521999999MA1100345099975REMMET08301/02/22 09:31:02 SPECI KNEL 021431Z 25008KT OVC005 13/13 A2963 RMK AO2 T01330128 $
0264724090147802022010215007+40033-074350FM-15+0031KNEL V0202405N00315001835MN9999999N5+01395+01285100355ADDAA103001091GA1085+001835999GD14991+0018351GE19AGL   +99999+99999GF199999999999001831999999MA1100375100005MD1390129+9999REMMET11401/02/22 10:00:02 METAR KNEL 021500Z 24006KT OVC006 14/13 A2964 RMK AO2 CIG 005V010 SLP035 60004 T01390128 53012 $EQDQ01  00108PRCP03
0208724090147802022010216007+40033-074350FM-15+0031KNEL V0202605N00515002135MN9999999N5+01445+01335100365ADDGA1085+002135999GD14991+0021351GE19AGL   +99999+99999GF199999999999002131999999MA1100375100005REMMET10201/02/22 11:00:02 METAR KNEL 021600Z 26010KT OVC007 14/13 A2964 RMK AO2 CIG 005V011 SLP036 T01440133 $
0201724090147802022010216467+40033-074350FM-16+0031KNEL V0202505N00575003355MN9999999N5+01505+01335999999ADDGA1085+003355999GD14991+0033551GE19AGL   +99999+99999GF199999999999003351999999MA1100305099945REMMET09501/02/22 11:46:02 SPECI KNEL 021646Z 25011KT OVC011 15/13 A2962 RMK AO2 CIG 008V013 T01500133 $
0196724090147802022010217007+40033-074350FM-15+0031KNEL V0202605N00725003355MN9999999N5+01505+01335100285ADDGA1085+003355999GD14991+0033559GE19AGL   +99999+99999GF199999999999003351999999MA1100305099945REMMET09001/02/22 12:00:02 METAR KNEL 021700Z 26014KT OVC011 15/13 A2962 RMK AO2 SLP028 T01500133 $
0254724090147802022010218007+40033-074350FM-15+0031KNEL V0202705N00575003965MN9999999N5+01565+01335100295ADDGA1075+003965999GD13991+0039659GE19AGL   +99999+99999GF199999999999003961999999KA1060M+01561KA2060N+01281MA1100305099945MD1090039+9999REMMET10801/02/22 13:00:02 METAR KNEL 021800Z 27011KT BKN013 16/13 A2962 RMK AO2 SLP029 T01560133 10156 20128 50003 $
0200724090147802022010218107+40033-074350FM-16+0031KNEL V0202605N00675004575MN9999999N5+01565+01335999999ADDGA1075+004575999GD13991+0045759GE19AGL   +99999+99999GF199999999999004571999999MA1100305099945OC100985REMMET08601/02/22 13:10:02 SPECI KNEL 021810Z 26013G19KT BKN015 16/13 A2962 RMK AO2 T01560133 $
0208724090147802022010218447+40033-074350FM-16+0031KNEL V0202605N005152200059N9999999N5+01615+01335999999ADDGA1045+004885999GD12991+0048859GE19AGL   +99999+99999GF104995999999004881999999MA1100345099975REMMET08301/02/22 13:44:02 SPECI KNEL 021844Z 26010KT SCT016 16/13 A2963 RMK AO2 T01610133 $EQDD01      0ADE726
0253724090147802022010219007+40033-074350FM-15+0031KNEL V0202505N005152200059N9999999N5+01615+01285100355ADDGA1025+005495999GA2045+006715999GD11991+0054959GD22991+0067159GE19AGL   +99999+99999GF104995999999005491999999MA1100375100005REMMET09701/02/22 14:00:02 METAR KNEL 021900Z 25010KT FEW018 SCT022 16/13 A2964 RMK AO2 SLP035 T01610128 $EQDD01      0ADE726
0227724090147802022010219157+40033-074350FM-16+0031KNEL V0202605N00515005495MN9999999N5+01615+01285999999ADDGA1075+005495999GA2075+007625999GD13991+0054959GD23991+0076259GE19AGL   +99999+99999GF199999999999005491999999MA1100415100045REMMET09001/02/22 14:15:02 SPECI KNEL 021915Z 26010KT BKN018 BKN025 16/13 A2965 RMK AO2 T01610128 $
0246724090147802022010219377+40033-074350FM-16+0031KNEL V0202605N004152200059N9999999N5+01615+01285999999ADDGA1025+005495999GA2045+007015999GD11991+0054959GD22991+0070159GE19AGL   +99999+99999GF104995999999005491999999MA1100415100045REMMET09001/02/22 14:37:02 SPECI KNEL 021937Z 26008KT FEW018 SCT023 16/13 A2965 RMK AO2 T01610128 $EQDD01      0ADE726
0215724090147802022010220007+40033-074350FM-15+0031KNEL V0202705N004652200059N9999999N5+01615+01225100445ADDGA1045+011585999GD12991+0115859GE19AGL   +99999+99999GF104995999999011581999999MA1100445100075REMMET09001/02/22 15:00:02 METAR KNEL 022000Z 27009KT SCT038 16/12 A2966 RMK AO2 SLP044 T01610122 $EQDD01      0ADE726
0235724090147802022010221007+40033-074350FM-15+0031KNEL V0202805N003652200059N9999999N5+01505+01175100485ADDGA1025+021345999GD11991+0213459GE19AGL   +99999+99999GF102995999999021341999999MA1100515100145MD1390169+9999REMMET09601/02/22 16:00:02 METAR KNEL 022100Z 28007KT FEW070 15/12 A2968 RMK AO2 SLP048 T01500117 53016 $EQDD01      0ADE726
0196724090147802022010222007+40033-074350FM-15+0031KNEL V0202705N00215021345MN9999999N5+01395+01115100615ADDGA1075+021345999GD13991+0213459GE19AGL   +99999+99999GF199999999999021341999999MA1100645100275REMMET09001/02/22 17:00:02 METAR KNEL 022200Z 27004KT BKN070 14/11 A2972 RMK AO2 SLP061 T01390111 $
0234724090147802022010223007+40033-074350FM-15+0031KNEL V0203005N00265011585MN9999999N5+01395+01115100755ADDGA1075+011585999GA2085+018295999GD13991+0115859GD24991+0182959GE19AGL   +99999+99999GF199999999999011581999999MA1100785100415REMMET09701/02/22 18:00:02 METAR KNEL 022300Z 30005KT BKN038 OVC060 14/11 A2976 RMK AO2 SLP075 T01390111 $
0326724090147802022010223177+40033-074350FM-16+0031KNEL V0203305N00365007925MN9999999N5+01285+01065999999ADDAA101000021AU110020015AW1615GA1025+005495999GA2075+007925999GA3085+011285999GD11991+0054959GD23991+0079259GD34991+0112859GE19AGL   +99999+99999GF199999999999005491999999MA1100885100515MW1615OC100885REMMET11601/02/22 18:17:02 SPECI KNEL 022317Z 33007G17KT -RA FEW018 BKN026 OVC037 13/11 A2979 RMK AO2 RAB06 P0000 T01280106 $
0302724090147802022010223517+40033-074350FM-16+0031KNEL V0209999V00315014335MN9999999N5+01005+00835999999ADDAA101000531GA1045+003965999GA2075+014335999GA3085+018295999GD12991+0039659GD23991+0143359GD34991+0182959GE19AGL   +99999+99999GF199999999999003961999999MA1101025100645OC100825REMMET11501/02/22 18:51:02 SPECI KNEL 022351Z VRB06G16KT SCT013 BKN047 OVC060 10/08 A2983 RMK AO2 RAB06E51 P0002 T01000083 $
0356724090147802022010300007+40033-074350FM-15+0031KNEL V0203205V00415018295MN9999999N5+00945+00725101045ADDAA101000595AA206000591GA1025+003965999GA2085+018295999GD11991+0039659GD24991+0182959GE19AGL   +99999+99999GF199999999999003961999999KA1060M+01611MA1101055100685MD1390319+9999OC100885REMMET14301/02/22 19:00:01 METAR KNEL 030000Z 32008G17KT FEW013 OVC060 09/07 A2984 RMK AO2 RAB2306E2351 SLP104 P0002 60002 T00940072 10161 20094 53031 $EQDQ01  00058PRCP06
0285724090147802022010301007+40033-074350FM-16+0031KNEL V0203305N00365005795MN9999999N5+00705+00405999999ADDAA101000531GA1075+005795999GA2075+024385999GA3075+030485999GD13991+0057959GD23991+0243859GD33991+0304859GE19AGL   +99999+99999GF199999999999005791999999MA1101225100855REMMET10601/02/22 20:00:01 SPECI KNEL 030100Z 33007KT BKN019 BKN080 BKN100 07/04 A2989 RMK AO2 RAB0018E0028 P0002 $
0302724090147802022010301067+40033-074350FM-15+0031KNEL V0203405V00365005495MN9999999N5+00725+00395101225ADDAA101000595GA1075+005495999GA2075+024385999GA3075+030485999GD13991+0054959GD23991+0243859GD33991+0304859GE19AGL   +99999+99999GF199999999999005491999999MA1101225100855REMMET12301/02/22 20:06:01 METAR KNEL 030106Z 34007KT BKN018 BKN080 BKN100 07/04 A2989 RMK AO2 RAB0018E0028 SLP122 P0002 T00720039 $
0238724090147802022010301167+40033-074350FM-16+0031KNEL V0203405N00625021345MN9999999N5+00675+00335999999ADDGA1045+005495999GA2075+021345999GD12991+0054959GD23991+0213459GE19AGL   +99999+99999GF199999999999005491999999MA1101225100855OC100935REMMET09301/02/22 20:16:01 SPECI KNEL 030116Z 34012G18KT SCT018 BKN070 07/03 A2989 RMK AO2 T00670033 $
0214724090147802022010302007+40033-074350FM-15+0031KNEL V0203405N00315021345MN9999999N5+00565+00115101335ADDGA1075+021345999GD13991+0213459GE19AGL   +99999+99999GF199999999999021341999999MA1101355100985OC100775REMMET10001/02/22 21:00:01 METAR KNEL 030200Z 34006G15KT BKN070 06/01 A2993 RMK AO2 PRESRR SLP133 T00560011 $
0291724090147802022010303007+40033-074350FM-15+0031KNEL V0209999V00315021345MN9999999N5+00395-00115101415ADDAA103001091GA1075+021345999GA2085+030485999GD13991+0213459GD24991+0304859GE19AGL   +99999+99999GF199999999999021341999999MA1101425101055MD1190299+9999REMMET11001/02/22 22:00:01 METAR KNEL 030300Z VRB06KT BKN070 OVC100 04/M01 A2995 RMK AO2 SLP141 60004 T00391011 51029 $EQDQ01  00108PRCP03
0197724090147802022010304007+40033-074350FM-15+0031KNEL V0203205N00215021345MN9999999N5+00335-00225101555ADDGA1085+021345999GD14991+0213459GE19AGL   +99999+99999GF199999999999021341999999MA1101565101195REMMET09101/02/22 23:00:02 METAR KNEL 030400Z 32004KT OVC070 03/M02 A2999 RMK AO2 SLP155 T00331022 $
001572409014780202201030459O+40033-074350SOD  +0031KNEL V020999999999999999999999999999+99999+99999999999ADDAT1AU16RA  5
0233724090147802022010305007+40033-074350FM-15+0031KNEL V0203205N00215025915MN9999999N5+00285-00285101575ADDGA1085+025915999GD14991+0259159GE19AGL   +99999+99999GF199999999999025911999999KA1240M+00281KA2240N+00281MA1101595101225REMMET10101/03/22 00:00:02 METAR KNEL 030500Z 32004KT OVC085 03/M03 A3000 RMK AO2 SLP157 T00281028 400280028 $
0291724090147802022010306007+40033-074350FM-15+0031KNEL V0209999V00315024385MN9999999N5+00285-00285101765ADDAA106000591GA1085+024385999GD14991+0243859GE19AGL   +99999+99999GF199999999999024381999999KA1060M+00721KA2060N+00281MA1101765101395MD1190249+9999REMMET11501/03/22 01:00:02 METAR KNEL 030600Z VRB06KT OVC080 03/M03 A3005 RMK AO2 SLP176 60002 T00281028 10072 20028 51024 $EQDQ01  00058PRCP06
0197724090147802022010307007+40033-074350FM-15+0031KNEL V0209999V00315024385MN9999999N5+00225-00335101795ADDGA1085+024385999GD14991+0243859GE19AGL   +99999+99999GF199999999999024381999999MA1101795101425REMMET09101/03/22 02:00:02 METAR KNEL 030700Z VRB06KT OVC080 02/M03 A3006 RMK AO2 SLP179 T00221033 $
0216724090147802022010308007+40033-074350FM-15+0031KNEL V0203405N003152200059N9999999N5+00175-00395101725ADDGA1045+028965999GD12991+0289659GE19AGL   +99999+99999GF104995999999028961999999MA1101735101355REMMET09101/03/22 03:00:02 METAR KNEL 030800Z 34006KT SCT095 02/M04 A3004 RMK AO2 SLP172 T00171039 $EQDD01      0ADE726
0217724090147802022010309007+40033-074350FM-15+0031KNEL V0203505N00265021345MN9999999N5+00175-00395101785ADDGA1085+021345999GD14991+0213459GE19AGL   +99999+99999GF199999999999021341999999MA1101795101425MD1090149+9999REMMET09701/03/22 04:00:02 METAR KNEL 030900Z 35005KT OVC070 02/M04 A3006 RMK AO2 SLP178 T00171039 50014 $
0197724090147802022010310007+40033-074350FM-15+0031KNEL V0209999V00265015245MN9999999N5+00175-00395101835ADDGA1085+015245999GD14991+0152459GE19AGL   +99999+99999GF199999999999015241999999MA1101865101495REMMET09101/03/22 05:00:02 METAR KNEL 031000Z VRB05KT OVC050 02/M04 A3008 RMK AO2 SLP183 T00171039 $
0227724090147802022010311007+40033-074350FM-15+0031KNEL V0209999V00265014635MN9999999N5+00115-00395101775ADDAA101000021GA1085+014635999GD14991+0146359GE19AGL   +99999+99999GF199999999999014631999999MA1101795101425REMMET11001/03/22 06:00:02 METAR KNEL 031100Z VRB05KT OVC048 01/M04 A3006 RMK AO2 SNB1024E1055 SLP177 P0000 T00111039 $
0376724090147802022010312007+40033-074350FM-15+0031KNEL V0200305N00415010365MN9999999N5+00115-00395101795ADDAA101000021AA206000021AA324001091AU110030015AW1715GA1085+010365999GD14991+0103659GE19AGL   +99999+99999GF199999999999010361999999KA1060M+00281KA2060N+00111MA1101795101425MD1090059+9999MW1715REMMET13901/03/22 07:00:02 METAR KNEL 031200Z 03008KT -SN OVC034 01/M04 A3006 RMK AO2 SNB1124 SLP179 P0000 60000 70004 T00111039 10028 20011 50005 $EQDQ01  00008PRCP06Q02  00108PRCP24
0222724090147802022010313007+40033-074350FM-15+0031KNEL V0209999V00265018295MN9999999N5+00115-00445101805ADDAA101000021GA1085+018295999GD14991+0182959GE19AGL   +99999+99999GF199999999999018291999999MA1101835101465REMMET10501/03/22 08:00:02 METAR KNEL 031300Z VRB05KT OVC060 01/M04 A3007 RMK AO2 SNE1246 SLP180 P0000 T00111044 $
0208724090147802022010314007+40033-074350FM-15+0031KNEL V0200305V00415016765MN9999999N5+00005-00565101835ADDGA1085+016765999GD14991+0167659GE19AGL   +99999+99999GF199999999999016761999999MA1101835101465OC100825REMMET09401/03/22 09:00:02 METAR KNEL 031400Z 03008G16KT OVC055 00/M06 A3007 RMK AO2 SLP183 T00001056 $
0260724090147802022010315007+40033-074350FM-15+0031KNEL V0209999V00215013415MN9999999N5+00005-00725102035ADDAA103000021GA1085+013415999GD14991+0134159GE19AGL   +99999+99999GF199999999999013411999999MA1102035101665MD1290069+9999REMMET11001/03/22 10:00:02 METAR KNEL 031500Z VRB04KT OVC044 00/M07 A3013 RMK AO2 PRESRR SLP203 60000 T00001072 52006 $EQDQ01  00008PRCP03
0252724090147802022010315297+40033-074350FM-16+0031KNEL V0200405V00465007325MN9999999N5-00065-00895999999ADDAA101000021AU110030015AW1715GA1085+007325999GD14991+0073259GE19AGL   +99999+99999GF199999999999007321999999MA1102035101665MW1715OC100775REMMET10401/03/22 10:29:02 SPECI KNEL 031529Z 04009G15KT -SN OVC024 M01/M09 A3013 RMK AO2 SNB25 P0000 T10061089 $
0267724090147802022010316007+40033-074350FM-15+0031KNEL V0200505N00575005495MN9999999N5-00225-00565101815ADDAA101000021AU120030015AW1725GA1085+005495999GD14991+0054959GE19AGL   +99999+99999GF199999999999005491999999MA1101835101465MW1735OC100825REMMET11901/03/22 11:00:02 METAR KNEL 031600Z 05011G16KT SN OVC018 M02/M06 A3007 RMK AO2 SNB1525 PRESFR SLP181 P0000 T10221056 $
0249724090147802022010317007+40033-074350FM-15+0031KNEL V0200205V00415006105MN9999999N5-00285-00615101605ADDAA101000021AU110030015AW1715GA1085+006105999GD14991+0061059GE19AGL   +99999+99999GF199999999999006101999999MA1101595101225MW1715REMMET10901/03/22 12:00:02 METAR KNEL 031700Z 02008KT -SN OVC020 M03/M06 A3000 RMK AO2 PRESFR SLP160 P0000 T10281061 $
0336724090147802022010318007+40033-074350FM-15+0031KNEL V0200205N00265008845MN9999999N5-00225-00785101445ADDAA101000021AA206000021AU110030015AW1715GA1085+008845999GD14991+0088459GE19AGL   +99999+99999GF199999999999008841999999KA1060M+00111KA2060N-00281MA1101465101085MD1890249+9999MW1715REMMET12601/03/22 13:00:02 METAR KNEL 031800Z 02005KT -SN OVC029 M02/M08 A2996 RMK AO2 SLP144 P0000 60000 T10221078 10011 21028 58024 $EQDQ01  00008PRCP06
0246724090147802022010318497+40033-074350FM-16+0031KNEL V0203605N00465009755MN9999999N5-00225-00895999999ADDAA101000021AU110030015AW1715GA1085+009755999GD14991+0097559GE19AGL   +99999+99999GF199999999999009751999999MA1101465101085MW1715OC100985REMMET09801/03/22 13:49:02 SPECI KNEL 031849Z 36009G19KT -SN OVC032 M02/M09 A2996 RMK AO2 P0000 T10221089 $
0253724090147802022010319007+40033-074350FM-15+0031KNEL V0209999V00265010365MN9999999N5-00175-00895101435ADDAA101000021AU110030015AW1715GA1085+010365999GD14991+0103659GE19AGL   +99999+99999GF199999999999010361999999MA1101465101085MW1715OC100985REMMET10501/03/22 14:00:02 METAR KNEL 031900Z VRB05G19KT -SN OVC034 M02/M09 A2996 RMK AO2 SLP143 P0000 T10171089 $
0253724090147802022010320007+40033-074350FM-15+0031KNEL V0200105V00415007925MN9999999N5-00175-01225101505ADDAA101000021AU110030015AW1715GA1085+007925999GD14991+0079259GE19AGL   +99999+99999GF199999999999007921999999MA1101525101155MW1715OC100825REMMET10501/03/22 15:00:02 METAR KNEL 032000Z 01008G16KT -SN OVC026 M02/M12 A2998 RMK AO2 SLP150 P0000 T10171122 $
0235724090147802022010321007+40033-074350FM-16+0031KNEL V0203505N00625010365MN9999999N5-00105-01305999999ADDAA101000021GA1085+010365999GD14991+0103659GE19AGL   +99999+99999GF199999999999010361999999MA1101595101225OC100935REMMET11001/03/22 16:00:02 SPECI KNEL 032100Z 35012G18KT OVC034 M01/M13 A3000 RMK AO2 PK WND 02026/2025 SNE2046 P0000 $
0398724090147802022010321067+40033-074350FM-15+0031KNEL V0203405V00415010975MN9999999N5-00115-01335101615ADDAA101000021AA203000021GA1075+010975999GA2075+018295999GA3085+033535999GD13991+0109759GD23991+0182959GD34991+0335359GE19AGL   +99999+99999GF199999999999010971999999MA1101635101255MD1390069+9999OC100935OD149901331020REMMET15301/03/22 16:06:02 METAR KNEL 032106Z 34008G18KT BKN036 BKN060 OVC110 M01/M13 A3001 RMK AO2 PK WND 02026/2025 SNE2046 SLP161 P0000 60000 T10111133 53006 $EQDQ01  00008PRCP03
0228724090147802022010322007+40033-074350FM-15+0031KNEL V0203505V004152200059N9999999N5-00175-01395101755ADDGA1025+033535999GD11991+0335359GE19AGL   +99999+99999GF102995999999033531999999MA1101765101395OC100775REMMET09501/03/22 17:00:02 METAR KNEL 032200Z 35008G15KT FEW110 M02/M14 A3005 RMK AO2 SLP175 T10171139 $EQDD01      0ADE726
0184724090147802022010323007+40033-074350FM-15+0031KNEL V0203505V003652200059N9999999N5-00115-01335101865ADDGA1005+999999999GD10991+9999999GF100991999999999999999999MA1101865101495OC100885REMMET09201/03/22 18:00:02 METAR KNEL 032300Z 35007G17KT CLR M01/M13 A3008 RMK AO2 SLP186 T10111133 $
0267724090147802022010400007+40033-074350FM-15+0031KNEL V0203405N004152200059N9999999N5-00175-01225101995ADDAA106000021GA1005+999999999GD10991+9999999GF100991999999999999999999KA1060M-00111KA2060N-00221MA1102005101625MD1390289+9999REMMET11301/03/22 19:00:01 METAR KNEL 040000Z 34008KT CLR M02/M12 A3012 RMK AO2 SLP199 60000 T10171122 11011 21022 53028 $EQDQ01  00008PRCP06
0173724090147802022010401007+40033-074350FM-15+0031KNEL V0203305N004152200059N9999999N5-00225-01225102095ADDGA1005+999999999GD10991+9999999GF100991999999999999999999MA1102105101735REMMET08901/03/22 20:00:01 METAR KNEL 040100Z 33008KT CLR M02/M12 A3015 RMK AO2 SLP209 T10221122 $
0184724090147802022010402007+40033-074350FM-15+0031KNEL V0203305N003152200059N9999999N5-00285-01335102205ADDGA1005+999999999GD10991+9999999GF100991999999999999999999MA1102205101835OC100775REMMET09201/03/22 21:00:01 METAR KNEL 040200Z 33006G15KT CLR M03/M13 A3018 RMK AO2 SLP220 T10281133 $
0193724090147802022010403007+40033-074350FM-15+0031KNEL V0203205N003652200059N9999999N5-00395-01395102285ADDGA1005+999999999GD10991+9999999GF100991999999999999999999MA1102305101935MD1190349+9999REMMET09501/03/22 22:00:01 METAR KNEL 040300Z 32007KT CLR M04/M14 A3021 RMK AO2 SLP228 T10391139 51034 $
0173724090147802022010404007+40033-074350FM-15+0031KNEL V0203205N002652200059N9999999N5-00445-01395102355ADDGA1005+999999999GD10991+9999999GF100991999999999999999999MA1102375102005REMMET08901/03/22 23:00:02 METAR KNEL 040400Z 32005KT CLR M04/M14 A3023 RMK AO2 SLP235 T10441139 $
001572409014780202201040459O+40033-074350SOD  +0031KNEL V020999999999999999999999999999+99999+99999999999ADDAT1AU18SN  5
0209724090147802022010405007+40033-074350FM-15+0031KNEL V0203105N002652200059N9999999N5-00505-01335102465ADDGA1005+999999999GD10991+9999999GF100991999999999999999999KA1240M-00501KA2240N-00501MA1102475102105REMMET09901/04/22 00:00:02 METAR KNEL 040500Z 31005KT CLR M05/M13 A3026 RMK AO2 SLP246 T10501133 410501050 $
0231724090147802022010406007+40033-074350FM-15+0031KNEL V0203105N003652200059N9999999N5-00565-01335102505ADDGA1005+999999999GD10991+9999999GF100991999999999999999999KA1060M-00171KA2060N-00561MA1102515102135MD1390269+9999REMMET10701/04/22 01:00:02 METAR KNEL 040600Z 31007KT CLR M06/M13 A3027 RMK AO2 SLP250 T10561133 11017 21056 53026 $
0173724090147802022010407007+40033-074350FM-15+0031KNEL V0209999V002152200059N9999999N5-00615-01395102665ADDGA1005+999999999GD10991+9999999GF100991999999999999999999MA1102685102305REMMET08901/04/22 02:00:02 METAR KNEL 040700Z VRB04KT CLR M06/M14 A3032 RMK AO2 SLP266 T10611139 $
0173724090147802022010408007+40033-074350FM-15+0031KNEL V0203105N003152200059N9999999N5-00675-01395102735ADDGA1005+999999999GD10991+9999999GF100991999999999999999999MA1102745102375REMMET08901/04/22 03:00:02 METAR KNEL 040800Z 31006KT CLR M07/M14 A3034 RMK AO2 SLP273 T10671139 $
0193724090147802022010409007+40033-074350FM-15+0031KNEL V0203205N003652200059N9999999N5-00675-01505102765ADDGA1005+999999999GD10991+9999999GF100991999999999999999999MA1102785102405MD1390269+9999REMMET09501/04/22 04:00:01 METAR KNEL 040900Z 32007KT CLR M07/M15 A3035 RMK AO2 SLP276 T10671150 53026 $
0173724090147802022010410007+40033-074350FM-15+0031KNEL V0203005N003152200059N9999999N5-00725-01395102855ADDGA1005+999999999GD10991+9999999GF100991999999999999999999MA1102845102475REMMET08901/04/22 05:00:01 METAR KNEL 041000Z 30006KT CLR M07/M14 A3037 RMK AO2 SLP285 T10721139 $
0173724090147802022010411007+40033-074350FM-15+0031KNEL V0203005N002152200059N9999999N5-00785-01335102935ADDGA1005+999999999GD10991+9999999GF100991999999999999999999MA1102955102575REMMET08901/04/22 06:00:01 METAR KNEL 041100Z 30004KT CLR M08/M13 A3040 RMK AO2 SLP293 T10781133 $
0231724090147802022010412007+40033-074350FM-15+0031KNEL V0203005N003152200059N9999999N5-00945-01285103035ADDGA1005+999999999GD10991+9999999GF100991999999999999999999KA1060M-00561KA2060N-00941MA1103055102675MD1390209+9999REMMET10701/04/22 07:00:01 METAR KNEL 041200Z 30006KT CLR M09/M13 A3043 RMK AO2 SLP303 T10941128 11056 21094 53020 $
0173724090147802022010413007+40033-074350FM-15+0031KNEL V0209999C000052200059N9999999N5-00725-01225103035ADDGA1005+999999999GD10991+9999999GF100991999999999999999999MA1103055102675REMMET08901/04/22 08:00:01 METAR KNEL 041300Z 00000KT CLR M07/M12 A3043 RMK AO2 SLP303 T10721122 $
0178724090147802022010414007+40033-074350FM-15+0031KNEL V0203005N002152200059N0160935N5-00565-01225103115ADDGA1005+999999999GD10991+9999999GF100991999999999999999999MA1103125102745REMMET09401/04/22 09:00:01 METAR KNEL 041400Z 30004KT 10SM CLR M06/M12 A3045 RMK AO2 SLP311 T10561122 $
0198724090147802022010415007+40033-074350FM-15+0031KNEL V0209999C000052200059N0160935N5-00335-01225103145ADDGA1005+999999999GD10991+9999999GF100991999999999999999999MA1103155102775MD1190189+9999REMMET10001/04/22 10:00:01 METAR KNEL 041500Z 00000KT 10SM CLR M03/M12 A3046 RMK AO2 SLP314 T10331122 51018 $
0178724090147802022010416007+40033-074350FM-15+0031KNEL V0200105N003152200059N0160935N5-00225-01225103055ADDGA1005+999999999GD10991+9999999GF100991999999999999999999MA1103055102675REMMET09401/04/22 11:00:01 METAR KNEL 041600Z 01006KT 10SM CLR M02/M12 A3043 RMK AO2 SLP305 T10221122 $
0178724090147802022010417007+40033-074350FM-15+0031KNEL V0200605N003152200059N0160935N5-00065-01285102955ADDGA1005+999999999GD10991+9999999GF100991999999999999999999MA1102955102575REMMET09401/04/22 12:00:01 METAR KNEL 041700Z 06006KT 10SM CLR M01/M13 A3040 RMK AO2 SLP295 T10061128 $
0235724090147802022010418007+40033-074350FM-15+0031KNEL V0209999V002152200059N0160935N5+00005-01335102915ADDGA1005+999999999GD10991+9999999GF100991999999999999999999KA1060M+00001KA2060N-00941MA1102915102545MD1890169+9999REMMET11101/04/22 13:00:01 METAR KNEL 041800Z VRB04KT 10SM CLR 00/M13 A3039 RMK AO2 SLP291 T00001133 10000 21094 58016 $
0177724090147802022010419007+40033-074350FM-15+0031KNEL V0209999V001552200059N0160935N5+00065-01335102845ADDGA1005+999999999GD10991+9999999GF100991999999999999999999MA1102845102475REMMET09301/04/22 14:00:01 METAR KNEL 041900Z VRB03KT 10SM CLR 01/M13 A3037 RMK AO2 SLP284 T00061133 $
0177724090147802022010420007+40033-074350FM-15+0031KNEL V0202505N002652200059N0160935N5+00225-01225102815ADDGA1005+999999999GD10991+9999999GF100991999999999999999999MA1102815102435REMMET09301/04/22 15:00:01 METAR KNEL 042000Z 25005KT 10SM CLR 02/M12 A3036 RMK AO2 SLP281 T00221122 $
0197724090147802022010421007+40033-074350FM-15+0031KNEL V0202305N002652200059N0160935N5+00115-01175102855ADDGA1005+999999999GD10991+9999999GF100991999999999999999999MA1102845102475MD1690149+9999REMMET09901/04/22 16:00:01 METAR KNEL 042100Z 23005KT 10SM CLR 01/M12 A3037 RMK AO2 SLP285 T00111117 56014 $
0178724090147802022010422007+40033-074350FM-15+0031KNEL V0209999C000052200059N0160935N5-00115-01005102855ADDGA1005+999999999GD10991+9999999GF100991999999999999999999MA1102845102475REMMET09401/04/22 17:00:01 METAR KNEL 042200Z 00000KT 10SM CLR M01/M10 A3037 RMK AO2 SLP285 T10111100 $
0178724090147802022010423007+40033-074350FM-15+0031KNEL V0209999C000052200059N0160935N5-00285-00835102885ADDGA1005+999999999GD10991+9999999GF100991999999999999999999MA1102885102505REMMET09401/04/22 18:00:02 METAR KNEL 042300Z 00000KT 10SM CLR M03/M08 A3038 RMK AO2 SLP288 T10281083 $
0236724090147802022010500007+40033-074350FM-15+0031KNEL V0201905N002152200059N0160935N5-00335-00725102875ADDGA1005+999999999GD10991+9999999GF100991999999999999999999KA1060M+00221KA2060N-00331MA1102885102505MD1190079+9999REMMET11201/04/22 19:00:01 METAR KNEL 050000Z 19004KT 10SM CLR M03/M07 A3038 RMK AO2 SLP287 T10331072 10022 21033 51007 $
0173724090147802022010501007+40033-074350FM-15+0031KNEL V0201905N001552200059N9999999N5-00395-00725102855ADDGA1005+999999999GD10991+9999999GF100991999999999999999999MA1102845102475REMMET08901/04/22 20:00:01 METAR KNEL 050100Z 19003KT CLR M04/M07 A3037 RMK AO2 SLP285 T10391072 $
0173724090147802022010502007+40033-074350FM-15+0031KNEL V0201505N001552200059N9999999N5-00445-00725102785ADDGA1005+999999999GD10991+9999999GF100991999999999999999999MA1102785102405REMMET08901/04/22 21:00:01 METAR KNEL 050200Z 15003KT CLR M04/M07 A3035 RMK AO2 SLP278 T10441072 $
0193724090147802022010503007+40033-074350FM-15+0031KNEL V0201405N002152200059N9999999N5-00505-00725102715ADDGA1005+999999999GD10991+9999999GF100991999999999999999999MA1102715102335MD1890109+9999REMMET09501/04/22 22:00:01 METAR KNEL 050300Z 14004KT CLR M05/M07 A3033 RMK AO2 SLP271 T10501072 58010 $
0173724090147802022010504007+40033-074350FM-15+0031KNEL V0209999C000052200059N9999999N5-00565-00785102675ADDGA1005+999999999GD10991+9999999GF100991999999999999999999MA1102685102305REMMET08901/04/22 23:00:02 METAR KNEL 050400Z 00000KT CLR M06/M08 A3032 RMK AO2 SLP267 T10561078 $
0209724090147802022010505007+40033-074350FM-15+0031KNEL V0202905N001552200059N9999999N5-00675-00835102625ADDGA1005+999999999GD10991+9999999GF100991999999999999999999KA1240M-00671KA2240N-00671MA1102645102275REMMET09901/05/22 00:00:02 METAR KNEL 050500Z 29003KT CLR M07/M08 A3031 RMK AO2 SLP262 T10671083 410671067 $
0231724090147802022010506007+40033-074350FM-15+0031KNEL V0209999C000052200059N9999999N5-00675-00835102445ADDGA1005+999999999GD10991+9999999GF100991999999999999999999KA1060M-00331KA2060N-00781MA1102445102065MD1690169+9999REMMET10701/05/22 01:00:02 METAR KNEL 050600Z 00000KT CLR M07/M08 A3025 RMK AO2 SLP244 T10671083 11033 21078 56016 $
0173724090147802022010507007+40033-074350FM-15+0031KNEL V0209999C000052200059N9999999N5-00785-00895102405ADDGA1005+999999999GD10991+9999999GF100991999999999999999999MA1102405102035REMMET08901/05/22 02:00:02 METAR KNEL 050700Z 00000KT CLR M08/M09 A3024 RMK AO2 SLP240 T10781089 $
0198724090147802022010508007+40033-074350FM-15+0031KNEL V0209999C00005019815MN9999999N5-00615-00785102305ADDGA1075+019815999GD13991+0198159GE19AGL   +99999+99999GF199999999999019811999999MA1102305101935REMMET09201/05/22 03:00:02 METAR KNEL 050800Z 00000KT BKN065 M06/M08 A3021 RMK AO2 SLP230 T10611078 $
0219724090147802022010508577+40033-074350FM-16+0031KNEL V0209999C00005005185MN9999999N5-00405-00605999999ADDGA1075+005185999GA2085+021345999GD13991+0051859GD24991+0213459GE19AGL   +99999+99999GF199999999999005181999999MA1102205101835REMMET08201/05/22 03:57:02 SPECI KNEL 050857Z 00000KT BKN017 OVC070 M04/M06 A3018 RMK AO2 $
0263724090147802022010509007+40033-074350FM-15+0031KNEL V0209999C00005005185MN9999999N5-00395-00565102175ADDGA1075+005185999GA2085+021345999GD13991+0051859GD24991+0213459GE19AGL   +99999+99999GF199999999999005181999999MA1102175101795MD1890259+9999REMMET11201/05/22 04:00:02 METAR KNEL 050900Z 00000KT BKN017 OVC070 M04/M06 A3017 RMK AO2 PRESFR SLP217 T10391056 58025 $
0191724090147802022010509317+40033-074350FM-16+0031KNEL V0209999C00005004275MN9999999N5-00285-00505999999ADDGA1085+004275999GD14991+0042759GE19AGL   +99999+99999GF199999999999004271999999MA1102105101735REMMET08501/05/22 04:31:02 SPECI KNEL 050931Z 00000KT OVC014 M03/M05 A3015 RMK AO2 T10281050 $
0236724090147802022010510007+40033-074350FM-15+0031KNEL V0209999C00005004275MN9999999N5-00225-00445101995ADDGA1075+004275999GA2085+006405999GD13991+0042759GD24991+0064059GE19AGL   +99999+99999GF199999999999004271999999MA1102005101625REMMET09901/05/22 05:00:02 METAR KNEL 051000Z 00000KT BKN014 OVC021 M02/M04 A3012 RMK AO2 SLP199 T10221044 $
0229724090147802022010510107+40033-074350FM-16+0031KNEL V0209999C00005004885MN9999999N5-00225-00505999999ADDGA1075+004885999GA2085+007015999GD13991+0048859GD24991+0070159GE19AGL   +99999+99999GF199999999999004881999999MA1101965101595REMMET09201/05/22 05:10:02 SPECI KNEL 051010Z 00000KT BKN016 OVC023 M02/M05 A3011 RMK AO2 T10221050 $
0240724090147802022010510497+40033-074350FM-16+0031KNEL V0209999C00005003965MN9999999N5-00175-00445999999ADDAA101000021AU120090015AW1401AW2415GA1085+003965999GD14991+0039659GE19AGL   +99999+99999GF199999999999003961999999MA1101935101565REMMET10001/05/22 05:49:02 SPECI KNEL 051049Z 00000KT UP OVC013 M02/M04 A3010 RMK AO2 UPB31 P0000 T10171044 $
0242724090147802022010511007+40033-074350FM-16+0031KNEL V0203005N00265003965MN9999999N5-00205-00405999999ADDAA101000231AU128020015AW1655GA1085+003965999GD14991+0039659GE19AGL   +99999+99999GF199999999999003961999999MA1101935101565REMMET10801/05/22 06:00:02 SPECI KNEL 051100Z 30005KT FZRA OVC013 M02/M04 A3010 RMK AO2 UPB1031E1057FZRAB1057 P0001 $
0259724090147802022010511067+40033-074350FM-15+0031KNEL V0209999C00005003965MN9999999N5-00175-00335101875ADDAA101000395AU128020015AW1655GA1085+003965999GD14991+0039659GE19AGL   +99999+99999GF199999999999003961999999MA1101865101495REMMET12501/05/22 06:06:02 METAR KNEL 051106Z 00000KT FZRA OVC013 M02/M03 A3008 RMK AO2 UPB1031E1057FZRAB1057 SLP187 P0001 T10171033 $
0231724090147802022010511217+40033-074350FM-16+0031KNEL V0202905N00315004575MN9999999N5-00115-00285999999ADDAA101000231AU118020015AW1645GA1085+004575999GD14991+0045759GE19AGL   +99999+99999GF199999999999004571999999MA1101905101525REMMET09701/05/22 06:21:02 SPECI KNEL 051121Z 29006KT -FZRA OVC015 M01/M03 A3009 RMK AO2 P0001 T10111028 $
0231724090147802022010511287+40033-074350FM-16+0031KNEL V0202905N00365003965MN9999999N5-00115-00225999999ADDAA101000231AU118020015AW1645GA1085+003965999GD14991+0039659GE19AGL   +99999+99999GF199999999999003961999999MA1101935101565REMMET09701/05/22 06:28:02 SPECI KNEL 051128Z 29007KT -FZRA OVC013 M01/M02 A3010 RMK AO2 P0001 T10111022 $
0365724090147802022010512007+40033-074350FM-15+0031KNEL V0202905N00155004275MN9999999N5-00065-00175101835ADDAA101000595AA206000891AA324000891AU118020015AW1645GA1085+004275999GD14991+0042759GE19AGL   +99999+99999GF199999999999004271999999KA1060M-00061KA2060N-00781MA1101835101465MD1690299+9999REMMET13401/05/22 07:00:02 METAR KNEL 051200Z 29003KT -FZRA OVC014 M01/M02 A3007 RMK AO2 SLP183 P0002 60003 70003 T10061017 11006 21078 56029 $EQDQ01  00078PRCP06Q02  00078PRCP24
0268724090147802022010512107+40033-074350FM-16+0031KNEL V0202605N00155004275MN9999999N5-00065-00175999999ADDAA101000531AU128020015AW1655GA1075+004275999GA2085+005795999GD13991+0042759GD24991+0057959GE19AGL   +99999+99999GF199999999999004271999999MA1101865101495REMMET10301/05/22 07:10:02 SPECI KNEL 051210Z 26003KT FZRA BKN014 OVC019 M01/M02 A3008 RMK AO2 P0002 T10061017 $
0314724090147802022010512177+40033-074350FM-16+0031KNEL V0209999C00005005795MN9999999N5-00065-00115999999ADDAA101000531AU118020015AW1645GA1045+004275999GA2075+005795999GA3085+014635999GD12991+0042759GD23991+0057959GD34991+0146359GE19AGL   +99999+99999GF199999999999004271999999MA1101795101425REMMET11801/05/22 07:17:02 SPECI KNEL 051217Z 00000KT -FZRA SCT014 BKN019 OVC048 M01/M01 A3006 RMK AO2 PRESFR P0002 T10061011 $
0307724090147802022010512337+40033-074350FM-16+0031KNEL V0201005N00155014025MN9999999N5-00065-00115999999ADDAA101000731AU118020015AW1645GA1045+005185999GA2075+014025999GA3085+021345999GD12991+0051859GD23991+0140259GD34991+0213459GE19AGL   +99999+99999GF199999999999005181999999MA1101765101395REMMET11101/05/22 07:33:02 SPECI KNEL 051233Z 10003KT -FZRA SCT017 BKN046 OVC070 M01/M01 A3005 RMK AO2 P0003 T10061011 $
0281724090147802022010512587+40033-074350FM-16+0031KNEL V0209999C00005005185MN9999999N5+00005-00105999999ADDAA101000731GA1075+005185999GA2075+009755999GA3085+021345999GD13991+0051859GD23991+0097559GD34991+0213459GE19AGL   +99999+99999GF199999999999005181999999MA1101735101355REMMET10201/05/22 07:58:02 SPECI KNEL 051258Z 00000KT BKN017 BKN032 OVC070 00/M01 A3004 RMK AO2 FZRAE52 P0003 $
0300724090147802022010513007+40033-074350FM-15+0031KNEL V0209999C00005005185MN9999999N5+00005-00065101735ADDAA101000895GA1075+005185999GA2075+009755999GA3085+021345999GD13991+0051859GD23991+0097559GD34991+0213459GE19AGL   +99999+99999GF199999999999005181999999MA1101735101355REMMET12101/05/22 08:00:02 METAR KNEL 051300Z 00000KT BKN017 BKN032 OVC070 00/M01 A3004 RMK AO2 FZRAE1252 SLP173 P0003 T00001006 $
0190724090147802022010513237+40033-074350FM-16+0031KNEL V0209999C00005003965MN9999999N5+00005-00115999999ADDGA1085+003965999GD14991+0039659GE19AGL   +99999+99999GF199999999999003961999999MA1101695101325REMMET08401/05/22 08:23:02 SPECI KNEL 051323Z 00000KT OVC013 00/M01 A3003 RMK AO2 T00001011 $
0202724090147802022010513407+40033-074350FM-16+0031KNEL V0202705N00265002745MN9999999N5+00005-00065999999ADDGA1085+002745999GD14991+0027451GE19AGL   +99999+99999GF199999999999002741999999MA1101735101355REMMET09601/05/22 08:40:02 SPECI KNEL 051340Z 27005KT OVC009 00/M01 A3004 RMK AO2 CIG 005V012 T00001006 $
0276724090147802022010513477+40033-074350FM-16+0031KNEL V0201105N00155001835MN9999999N5+00005-00065999999ADDAA101000021AU118020015AW1645GA1075+001835999GA2085+003355999GD13991+0018359GD24991+0033559GE19AGL   +99999+99999GF199999999999001831999999MA1101665101295REMMET11101/05/22 08:47:02 SPECI KNEL 051347Z 11003KT -FZRA BKN006 OVC011 00/M01 A3002 RMK AO2 FZRAB41 P0000 T00001006 $
0245724090147802022010513567+40033-074350FM-16+0031KNEL V0201505N00155001835MN9999999N5+00005+00005999999ADDAA101000021GA1075+001835999GA2085+003355999GD13991+0018359GD24991+0033559GE19AGL   +99999+99999GF199999999999001831999999MA1101665101295REMMET09701/05/22 08:56:02 SPECI KNEL 051356Z 15003KT BKN006 OVC011 00/00 A3002 RMK AO2 FZRAB41E50 P0000 $
0228724090147802022010514007+40033-074350FM-15+0031KNEL V0209999C00005001835MN9999999N5+00065+00005101655ADDAA101000021GA1085+001835999GD14991+0018359GE19AGL   +99999+99999GF199999999999001831999999MA1101665101295REMMET11101/05/22 09:00:02 METAR KNEL 051400Z 00000KT OVC006 01/00 A3002 RMK AO2 FZRAB1341E1350 SLP165 P0000 T00060000 $
0189724090147802022010514267+40033-074350FM-16+0031KNEL V0209999C00005001225MN9999999N5+00065+00005999999ADDGA1085+001225999GD14991+0012259GE19AGL   +99999+99999GF199999999999001221999999MA1101635101255REMMET08301/05/22 09:26:02 SPECI KNEL 051426Z 00000KT OVC004 01/00 A3001 RMK AO2 T00060000 $
0277724090147802022010515007+40033-074350FM-15+0031KNEL V0209999C00005001225WN0004025N5+00115+00115101595ADDAA103001591AU100002015AW1305GA1095+001225999GD15991+0012259GE19AGL   +99999+99999GF109991999999001221999999MA1101595101225MD1690149+9999REMMET11001/05/22 10:00:02 METAR KNEL 051500Z 00000KT 1/4SM FG VV004 01/01 A3000 RMK AO2 SLP159 60006 T00110011 56014 $EQDQ01  00158PRCP03
0189724090147802022010515077+40033-074350FM-16+0031KNEL V0202605N00215001225MN9999999N5+00115+00115999999ADDGA1085+001225999GD14991+0012259GE19AGL   +99999+99999GF199999999999001221999999MA1101595101225REMMET08301/05/22 10:07:02 SPECI KNEL 051507Z 26004KT OVC004 01/01 A3000 RMK AO2 T00110011 $
0238724090147802022010516007+40033-074350FM-15+0031KNEL V0202205N00265001225MN9999999N5+00285+00285101415ADDAA101000021GA1085+001225999GD14991+0012259GE19AGL   +99999+99999GF199999999999001221999999MA1101425101055REMMET12101/05/22 11:00:02 METAR KNEL 051600Z 22005KT OVC004 03/03 A2995 RMK AO2 RAB1510E1545UPB1530E1531 SLP141 P0000 T00280028 $
0251724090147802022010516257+40033-074350FM-16+0031KNEL V0202305N00415001525MN9999999N5+00395+00335999999ADDAA101000021AU110020015AW1615GA1085+001525999GD14991+0015251GE19AGL   +99999+99999GF199999999999001521999999MA1101395101025MW1615REMMET11101/05/22 11:25:02 SPECI KNEL 051625Z 23008KT -RA OVC005 04/03 A2994 RMK AO2 RAB09 CIG 003V008 P0000 T00390033 $
0248724090147802022010517007+40033-074350FM-15+0031KNEL V0202105N00365001835MN9999999N5+00395+00335101275ADDAA101000395AU110020015AW1615GA1085+001835999GD14991+0018359GE19AGL   +99999+99999GF199999999999001831999999MA1101295100915MW1615REMMET10801/05/22 12:00:02 METAR KNEL 051700Z 21007KT -RA OVC006 04/03 A2991 RMK AO2 RAB1609 SLP127 P0001 T00390033 $
0212724090147802022010517457+40033-074350FM-16+0031KNEL V0202305N00365001225MN9999999N5+00505+00505999999ADDAA101000021GA1085+001225999GD14991+0012259GE19AGL   +99999+99999GF199999999999001221999999MA1101155100785REMMET09501/05/22 12:45:02 SPECI KNEL 051745Z 23007KT OVC004 05/05 A2987 RMK AO2 RAE04 P0000 T00500050 $
0315724090147802022010518007+40033-074350FM-15+0031KNEL V0202105N00515001225MN9999999N5+00565+00505101105ADDAA101000021AA206001091GA1085+001225999GD14991+0012259GE19AGL   +99999+99999GF199999999999001221999999KA1060M+00561KA2060N-00061MA1101125100755MD1890319+9999REMMET12801/05/22 13:00:02 METAR KNEL 051800Z 21010KT OVC004 06/05 A2986 RMK AO2 RAE1704 SLP110 P0000 60004 T00560050 10056 21006 58031 $EQDQ01  00108PRCP06
0208724090147802022010519007+40033-074350FM-15+0031KNEL V0202105N00675002445MN9999999N5+00725+00615100935ADDGA1085+002445999GD14991+0024451GE19AGL   +99999+99999GF199999999999002441999999MA1100955100585REMMET10201/05/22 14:00:02 METAR KNEL 051900Z 21013KT OVC008 07/06 A2981 RMK AO2 CIG 006V011 SLP093 T00720061 $
0245724090147802022010520067+40033-074350FM-15+0031KNEL V0202005N005752200059N9999999N5+00835+00675100865ADDAA101000021GA1045+002445999GD12991+0024459GE19AGL   +99999+99999GF104995999999002441999999MA1100855100485REMMET10901/05/22 15:06:02 METAR KNEL 052006Z 20011KT SCT008 08/07 A2978 RMK AO2 RAB1907E1916 SLP086 P0000 T00830067 $EQDD01      0ADE726
0189724090147802022010520347+40033-074350FM-16+0031KNEL V0202205N00515003055MN9999999N5+00785+00675999999ADDGA1075+003055999GD13991+0030559GE19AGL   +99999+99999GF199999999999003051999999MA1100885100515REMMET08301/05/22 15:34:02 SPECI KNEL 052034Z 22010KT BKN010 08/07 A2979 RMK AO2 T00780067 $
0200724090147802022010520507+40033-074350FM-16+0031KNEL V0202205N00625002745MN9999999N5+00785+00675999999ADDGA1085+002745999GD14991+0027459GE19AGL   +99999+99999GF199999999999002741999999MA1100855100485OC101035REMMET08601/05/22 15:50:02 SPECI KNEL 052050Z 22012G20KT OVC009 08/07 A2978 RMK AO2 T00780067 $
0252724090147802022010521007+40033-074350FM-15+0031KNEL V0202205N00465002745MN9999999N5+00785+00675100855ADDAA103000391GA1075+002745999GD13991+0027459GE19AGL   +99999+99999GF199999999999002741999999MA1100855100485MD1690259+9999REMMET10201/05/22 16:00:02 METAR KNEL 052100Z 22009KT BKN009 08/07 A2978 RMK AO2 SLP085 60001 T00780067 56025 $EQDQ01  00028PRCP03
0196724090147802022010522007+40033-074350FM-15+0031KNEL V0202305N00315002135MN9999999N5+00725+00615100815ADDGA1075+002135999GD13991+0021359GE19AGL   +99999+99999GF199999999999002131999999MA1100855100485REMMET09001/05/22 17:00:02 METAR KNEL 052200Z 23006KT BKN007 07/06 A2978 RMK AO2 SLP081 T00720061 $
0208724090147802022010522097+40033-074350FM-16+0031KNEL V0202105N002652200059N9999999N5+00675+00565999999ADDGA1045+002135999GD12991+0021359GE19AGL   +99999+99999GF104995999999002131999999MA1100815100445REMMET08301/05/22 17:09:02 SPECI KNEL 052209Z 21005KT SCT007 07/06 A2977 RMK AO2 T00670056 $EQDD01      0ADE726
0171724090147802022010523007+40033-074350FM-15+0031KNEL V0201905N001552200059N9999999N5+00565+00505100735ADDGA1005+999999999GD10991+9999999GF100991999999999999999999MA1100755100375REMMET08701/05/22 18:00:02 METAR KNEL 052300Z 19003KT CLR 06/05 A2975 RMK AO2 SLP073 T00560050 $
0286724090147802022010600007+40033-074350FM-15+0031KNEL V0202205N001552200059N9999999N5+00505+00505100725ADDGA1005+999999999GD10991+9999999GF100991999999999999999999KA1060M+00831KA2060N+00501MA1100715100345MD1890129+9999REMMET11101/05/22 19:00:01 METAR KNEL 060000Z 22003KT CLR 05/05 A2974 RMK AO2 SLP072 60000 T00500050 10083 20050 58012 $EQDQ01  00002PRCP06Q02  00008PRCP06Q03  00002PRCP06
0208724090147802022010600507+40033-074350FM-16+0031KNEL V0202205N002152200059N9999999N5+00395+00395999999ADDGA1045+002135999GD12991+0021359GE19AGL   +99999+99999GF104995999999002131999999MA1100755100375REMMET08301/05/22 19:50:01 SPECI KNEL 060050Z 22004KT SCT007 04/04 A2975 RMK AO2 T00390039 $EQDD01      0ADE726
0196724090147802022010601007+40033-074350FM-15+0031KNEL V0202505N00365001835MN9999999N5+00505+00445100725ADDGA1075+001835999GD13991+0018359GE19AGL   +99999+99999GF199999999999001831999999MA1100755100375REMMET09001/05/22 20:00:01 METAR KNEL 060100Z 25007KT BKN006 05/04 A2975 RMK AO2 SLP072 T00500044 $
0208724090147802022010601197+40033-074350FM-16+0031KNEL V0202505N003152200059N9999999N5+00505+00505999999ADDGA1045+001525999GD12991+0015259GE19AGL   +99999+99999GF104995999999001521999999MA1100755100375REMMET08301/05/22 20:19:01 SPECI KNEL 060119Z 25006KT SCT005 05/05 A2975 RMK AO2 T00500050 $EQDD01      0ADE726
0215724090147802022010602007+40033-074350FM-15+0031KNEL V0202405N002152200059N9999999N5+00445+00395100675ADDGA1045+001525999GD12991+0015259GE19AGL   +99999+99999GF104995999999001521999999MA1100685100315REMMET09001/05/22 21:00:01 METAR KNEL 060200Z 24004KT SCT005 04/04 A2973 RMK AO2 SLP067 T00440039 $EQDD01      0ADE726
0191724090147802022010603007+40033-074350FM-15+0031KNEL V0202505N002152200059N9999999N5+00395+00335100625ADDGA1005+999999999GD10991+9999999GF100991999999999999999999MA1100645100275MD1890049+9999REMMET09301/05/22 22:00:01 METAR KNEL 060300Z 25004KT CLR 04/03 A2972 RMK AO2 SLP062 T00390033 58004 $
0171724090147802022010604007+40033-074350FM-15+0031KNEL V0202605N002652200059N9999999N5+00445+00395100585ADDGA1005+999999999GD10991+9999999GF100991999999999999999999MA1100615100245REMMET08701/05/22 23:00:02 METAR KNEL 060400Z 26005KT CLR 04/04 A2971 RMK AO2 SLP058 T00440039 $
005172409014780202201060459O+40033-074350SOD  +0031KNEL V020999999999999999999999999999+99999+99999999999ADDAT1AU16RA  5AT2AU17FZRA5AT3AU01FG  5AT4AU19UP  5
0207724090147802022010605007+40033-074350FM-15+0031KNEL V0202705N002652200059N9999999N5+00395+00335100595ADDGA1005+999999999GD10991+9999999GF100991999999999999999999KA1240M+00391KA2240N+00391MA1100615100245REMMET09701/06/22 00:00:02 METAR KNEL 060500Z 27005KT CLR 04/03 A2971 RMK AO2 SLP059 T00390033 400390039 $
0229724090147802022010606007+40033-074350FM-15+0031KNEL V0202505N002152200059N9999999N5+00335+00285100595ADDGA1005+999999999GD10991+9999999GF100991999999999999999999KA1060M+00561KA2060N+00331MA1100615100245MD1590089+9999REMMET10501/06/22 01:00:02 METAR KNEL 060600Z 25004KT CLR 03/03 A2971 RMK AO2 SLP059 T00330028 10056 20033 55008 $
0171724090147802022010607007+40033-074350FM-15+0031KNEL V0202605N002652200059N9999999N5+00285+00175100655ADDGA1005+999999999GD10991+9999999GF100991999999999999999999MA1100685100315REMMET08701/06/22 02:00:02 METAR KNEL 060700Z 26005KT CLR 03/02 A2973 RMK AO2 SLP065 T00280017 $
0171724090147802022010608007+40033-074350FM-15+0031KNEL V0202705N003152200059N9999999N5+00225+00175100735ADDGA1005+999999999GD10991+9999999GF100991999999999999999999MA1100755100375REMMET08701/06/22 03:00:02 METAR KNEL 060800Z 27006KT CLR 02/02 A2975 RMK AO2 SLP073 T00220017 $
0191724090147802022010609007+40033-074350FM-15+0031KNEL V0202605N002652200059N9999999N5+00175+00115100805ADDGA1005+999999999GD10991+9999999GF100991999999999999999999MA1100815100445MD1390149+9999REMMET09301/06/22 04:00:02 METAR KNEL 060900Z 26005KT CLR 02/01 A2977 RMK AO2 SLP080 T00170011 53014 $
0172724090147802022010610007+40033-074350FM-15+0031KNEL V0202705N001552200059N9999999N5+00065-00065100885ADDGA1005+999999999GD10991+9999999GF100991999999999999999999MA1100885100515REMMET08801/06/22 05:00:02 METAR KNEL 061000Z 27003KT CLR 01/M01 A2979 RMK AO2 SLP088 T00061006 $
0173724090147802022010611007+40033-074350FM-15+0031KNEL V0202905N003152200059N9999999N5-00065-00115100995ADDGA1005+999999999GD10991+9999999GF100991999999999999999999MA1101025100645REMMET08901/06/22 06:00:02 METAR KNEL 061100Z 29006KT CLR M01/M01 A2983 RMK AO2 SLP099 T10061011 $
0266724090147802022010612007+40033-074350FM-15+0031KNEL V0202805N002652200059N9999999N5+00005-00175101115ADDAA124001091GA1005+999999999GD10991+9999999GF100991999999999999999999KA1060M+00331KA2060N-00221MA1101125100755MD1390269+9999REMMET11201/06/22 07:00:02 METAR KNEL 061200Z 28005KT CLR 00/M02 A2986 RMK AO2 SLP111 70004 T00001017 10033 21022 53026 $EQDQ01  00108PRCP24
0172724090147802022010613007+40033-074350FM-15+0031KNEL V0202905N005152200059N9999999N5+00175-00285101225ADDGA1005+999999999GD10991+9999999GF100991999999999999999999MA1101225100855REMMET08801/06/22 08:00:02 METAR KNEL 061300Z 29010KT CLR 02/M03 A2989 RMK AO2 SLP122 T00171028 $
0177724090147802022010614007+40033-074350FM-15+0031KNEL V0202805N004152200059N0160935N5+00175-00395101365ADDGA1005+999999999GD10991+9999999GF100991999999999999999999MA1101395101025REMMET09301/06/22 09:00:02 METAR KNEL 061400Z 28008KT 10SM CLR 02/M04 A2994 RMK AO2 SLP136 T00171039 $
0197724090147802022010615007+40033-074350FM-15+0031KNEL V0202605N003652200059N0160935N5+00285-00395101455ADDGA1005+999999999GD10991+9999999GF100991999999999999999999MA1101465101085MD1390379+9999REMMET09901/06/22 10:00:02 METAR KNEL 061500Z 26007KT 10SM CLR 03/M04 A2996 RMK AO2 SLP145 T00281039 53037 $
0177724090147802022010616007+40033-074350FM-15+0031KNEL V0202905N006252200059N0160935N5+00335-00565101435ADDGA1005+999999999GD10991+9999999GF100991999999999999999999MA1101465101085REMMET09301/06/22 11:00:02 METAR KNEL 061600Z 29012KT 10SM CLR 03/M06 A2996 RMK AO2 SLP143 T00331056 $
0188724090147802022010617007+40033-074350FM-15+0031KNEL V0202705N008252200059N0160935N5+00395-00725101405ADDGA1005+999999999GD10991+9999999GF100991999999999999999999MA1101425101055OC101135REMMET09601/06/22 12:00:02 METAR KNEL 061700Z 27016G22KT 10SM CLR 04/M07 A2995 RMK AO2 SLP140 T00391072 $
0246724090147802022010618007+40033-074350FM-15+0031KNEL V0202605N007752200059N0160935N5+00395-00895101305ADDGA1005+999999999GD10991+9999999GF100991999999999999999999KA1060M+00441KA2060N-00061MA1101325100955MD1090049+9999OC101085REMMET11401/06/22 13:00:02 METAR KNEL 061800Z 26015G21KT 10SM CLR 04/M09 A2992 RMK AO2 SLP130 T00391089 10044 21006 50004 $
0188724090147802022010619007+40033-074350FM-15+0031KNEL V0202805N007252200059N0160935N5+00395-00945101295ADDGA1005+999999999GD10991+9999999GF100991999999999999999999MA1101325100955OC101085REMMET09601/06/22 14:00:02 METAR KNEL 061900Z 28014G21KT 10SM CLR 04/M09 A2992 RMK AO2 SLP129 T00391094 $
0177724090147802022010620007+40033-074350FM-15+0031KNEL V0202905N003152200059N0160935N5+00395-00945101285ADDGA1005+999999999GD10991+9999999GF100991999999999999999999MA1101295100915REMMET09301/06/22 15:00:02 METAR KNEL 062000Z 29006KT 10SM CLR 04/M09 A2991 RMK AO2 SLP128 T00391094 $
0197724090147802022010621007+40033-074350FM-15+0031KNEL V0203005N003652200059N0160935N5+00285-00945101365ADDGA1005+999999999GD10991+9999999GF100991999999999999999999MA1101355100985MD1690129+9999REMMET09901/06/22 16:00:02 METAR KNEL 062100Z 30007KT 10SM CLR 03/M09 A2993 RMK AO2 SLP136 T00281094 56012 $
0177724090147802022010622007+40033-074350FM-15+0031KNEL V0203205N001552200059N0160935N5+00115-00895101425ADDGA1005+999999999GD10991+9999999GF100991999999999999999999MA1101425101055REMMET09301/06/22 17:00:02 METAR KNEL 062200Z 32003KT 10SM CLR 01/M09 A2995 RMK AO2 SLP142 T00111089 $
0177724090147802022010623007+40033-074350FM-15+0031KNEL V0209999V001552200059N0160935N5+00005-00725101555ADDGA1005+999999999GD10991+9999999GF100991999999999999999999MA1101565101195REMMET09301/06/22 18:00:02 METAR KNEL 062300Z VRB03KT 10SM CLR 00/M07 A2999 RMK AO2 SLP155 T00001072 $
0235724090147802022010700007+40033-074350FM-15+0031KNEL V0209999C000052200059N0160935N5+00005-00725101475ADDGA1005+999999999GD10991+9999999GF100991999999999999999999KA1060M+00441KA2060N-00111MA1101495101125MD1390269+9999REMMET11101/06/22 19:00:01 METAR KNEL 070000Z 00000KT 10SM CLR 00/M07 A2997 RMK AO2 SLP147 T00001072 10044 21011 53026 $
0216724090147802022010701007+40033-074350FM-15+0031KNEL V0209999C000052200059N9999999N5+00005-00725101405ADDGA1025+036585999GD11991+0365859GE19AGL   +99999+99999GF102995999999036581999999MA1101395101025REMMET09101/06/22 20:00:01 METAR KNEL 070100Z 00000KT FEW120 00/M07 A2994 RMK AO2 SLP140 T00001072 $EQDD01      0ADE726
0173724090147802022010702007+40033-074350FM-15+0031KNEL V0200205N001552200059N9999999N5-00065-00565101265ADDGA1005+999999999GD10991+9999999GF100991999999999999999999MA1101295100915REMMET08901/06/22 21:00:01 METAR KNEL 070200Z 02003KT CLR M01/M06 A2991 RMK AO2 SLP126 T10061056 $
0192724090147802022010703007+40033-074350FM-15+0031KNEL V0209999C000052200059N9999999N5+00005-00675101185ADDGA1005+999999999GD10991+9999999GF100991999999999999999999MA1101195100815MD1890289+9999REMMET09401/06/22 22:00:01 METAR KNEL 070300Z 00000KT CLR 00/M07 A2988 RMK AO2 SLP118 T00001067 58028 $
0205724090147802022010704007+40033-074350FM-15+0031KNEL V0200105N00155033535MN9999999N5-00065-00725101175ADDGA1085+033535999GD14991+0335359GE19AGL   +99999+99999GF199999999999033531999999MA1101195100815REMMET09901/06/22 23:00:02 METAR KNEL 070400Z 01003KT OVC110 M01/M07 A2988 RMK AO2 PRESFR SLP117 T10061072 $
0233724090147802022010705007+40033-074350FM-15+0031KNEL V0209999V00155030485MN9999999N5+00065-00835100995ADDGA1085+030485999GD14991+0304859GE19AGL   +99999+99999GF199999999999030481999999KA1240M+00061KA2240N+00061MA1100985100615REMMET10101/07/22 00:00:02 METAR KNEL 070500Z VRB03KT OVC100 01/M08 A2982 RMK AO2 SLP099 T00061083 400060006 $
0255724090147802022010706007+40033-074350FM-15+0031KNEL V0200505N00215019815MN9999999N5+00065-00785100925ADDGA1085+019815999GD14991+0198159GE19AGL   +99999+99999GF199999999999019811999999KA1060M+00061KA2060N-00111MA1100955100585MD1890279+9999REMMET10901/07/22 01:00:02 METAR KNEL 070600Z 05004KT OVC065 01/M08 A2981 RMK AO2 SLP092 T00061078 10006 21011 58027 $
0249724090147802022010707007+40033-074350FM-15+0031KNEL V0209999V00155010365MN9999999N5+00065-00675100845ADDAA101000021AU110030015AW1715GA1085+010365999GD14991+0103659GE19AGL   +99999+99999GF199999999999010361999999MA1100855100485MW1715REMMET10901/07/22 02:00:02 METAR KNEL 070700Z VRB03KT -SN OVC034 01/M07 A2978 RMK AO2 SNB0650 SLP084 P0000 T00061067 $
0180724090147802022010707106+40033-074350FM-16+0031KNEL V0209999999999007625MN9999999N5+00005-00505999999ADDAU100000017GA1085+007625999GD14991+0076259MA1100855100485REMMET09201/07/22 02:10:02 SPECI KNEL 070710Z      KT N OVC025 00/M05 A2978 RMK AO2 P0000 T00001050 $EQDR01     N7AWW013
0285724090147802022010707507+40033-074350FM-16+0031KNEL V0200505N00415003965MN9999999N5-00115-00225999999ADDAA101000531AU130030015AW1735GA1025+001835999GA2085+003965999GD11991+0018359GD24991+0039659GE19AGL   +99999+99999GF199999999999001831999999MA1100715100345OC100725REMMET11201/07/22 02:50:02 SPECI KNEL 070750Z 05008G14KT +SN FEW006 OVC013 M01/M02 A2974 RMK AO2 PRESFR P0002 T10111022 $
0286724090147802022010708007+40033-074350FM-15+0031KNEL V0200505N00365003965MN9999999N5-00115-00225100685ADDAA101000595AU120030015AW1725GA1025+001835999GA2085+003965999GD11991+0018359GD24991+0039659GE19AGL   +99999+99999GF199999999999001831999999MA1100685100315MW1735REMMET11501/07/22 03:00:02 METAR KNEL 070800Z 05007KT SN FEW006 OVC013 M01/M02 A2973 RMK AO2 PRESFR SLP068 P0002 T10111022 $
0229724090147802022010708457+40033-074350FM-16+0031KNEL V0209999V00155002745MN9999999N5-00065-00175999999ADDAA101000731AU130030015AW1735GA1085+002745999GD14991+0027459GE19AGL   +99999+99999GF199999999999002741999999MA1100615100245REMMET09501/07/22 03:45:02 SPECI KNEL 070845Z VRB03KT +SN OVC009 M01/M02 A2971 RMK AO2 P0003 T10061017 $
0330724090147802022010709007+40033-074350FM-15+0031KNEL V0203405N00155002135MN9999999N5-00065-00115100615ADDAA101001395AA203001891AU130030015AW1735GA1045+001225999GA2085+002135999GD12991+0012259GD24991+0021359GE19AGL   +99999+99999GF199999999999001221999999MA1100615100245MD1890319+9999REMMET12101/07/22 04:00:02 METAR KNEL 070900Z 34003KT +SN SCT004 OVC007 M01/M01 A2971 RMK AO2 SLP061 P0005 60007 T10061011 58031 $EQDQ01  00178PRCP03
0247724090147802022010710007+40033-074350FM-15+0031KNEL V0203205N00365001835MN9999999N5-00175-00225100695ADDAA101001595AU130030015AW1735GA1085+001835999GD14991+0018359GE19AGL   +99999+99999GF199999999999001831999999MA1100715100345OC100935REMMET10501/07/22 05:00:02 METAR KNEL 071000Z 32007G18KT +SN OVC006 M02/M02 A2974 RMK AO2 SLP069 P0006 T10171022 $
0236724090147802022010711007+40033-074350FM-15+0031KNEL V0203205N00365002135MN9999999N5-00175-00285100765ADDAA101001395AU130030015AW1735GA1085+002135999GD14991+0021359GE19AGL   +99999+99999GF199999999999002131999999MA1100785100415REMMET10201/07/22 06:00:02 METAR KNEL 071100Z 32007KT +SN OVC007 M02/M03 A2976 RMK AO2 SLP076 P0005 T10171028 $
0283724090147802022010711337+40033-074350FM-16+0031KNEL V0203105N00365003355MN9999999N5-00225-00285999999ADDAA101000231AU120030015AW1725GA1025+001835999GA2085+003355999GD11991+0018359GD24991+0033559GE19AGL   +99999+99999GF199999999999001831999999MA1100815100445MW1735OC100885REMMET10401/07/22 06:33:02 SPECI KNEL 071133Z 31007G17KT SN FEW006 OVC011 M02/M03 A2977 RMK AO2 P0001 T10221028 $
0273724090147802022010711557+40033-074350FM-16+0031KNEL V0203105N00465005185MN9999999N5-00205-00305999999ADDAA101000531AU120030015AW1725GA1025+002135999GA2085+005185999GD11991+0021359GD24991+0051859GE19AGL   +99999+99999GF199999999999002131999999MA1100855100485MW1735OC100825REMMET09401/07/22 06:55:02 SPECI KNEL 071155Z 31009G16KT SN FEW007 OVC017 M02/M03 A2978 RMK AO2 P0002 $
0406724090147802022010712007+40033-074350FM-15+0031KNEL V0203105N00515005185MN9999999N5-00225-00335100835ADDAA101000595AA206005191AA324005191AU120030015AW1725GA1045+002745999GA2085+005185999GD12991+0027459GD24991+0051859GE19AGL   +99999+99999GF199999999999002741999999KA1060M+00061KA2060N-00221MA1100855100485MD1190239+9999MW1735REMMET13801/07/22 07:00:02 METAR KNEL 071200Z 31010KT SN SCT009 OVC017 M02/M03 A2978 RMK AO2 SLP083 P0002 60020 70020 T10221033 10006 21022 51023 $EQDQ01  00508PRCP06Q02  00508PRCP24
0284724090147802022010712477+40033-074350FM-16+0031KNEL V0203005N00465002745MN9999999N5-00225-00335999999ADDAA101000021AU110030015AW1715GA1075+002745999GA2085+007925999GD13991+0027459GD24991+0079259GE19AGL   +99999+99999GF199999999999002741999999MA1100915100545MW1715OC100825REMMET10501/07/22 07:47:02 SPECI KNEL 071247Z 30009G16KT -SN BKN009 OVC026 M02/M03 A2980 RMK AO2 P0000 T10221033 $
0280724090147802022010713007+40033-074350FM-15+0031KNEL V0203005N00515002745MN9999999N5-00225-00335100925ADDAA101000021AU110030015AW1715GA1075+002745999GA2085+009145999GD13991+0027459GD24991+0091459GE19AGL   +99999+99999GF199999999999002741999999MA1100915100545MW1715REMMET10901/07/22 08:00:02 METAR KNEL 071300Z 30010KT -SN BKN009 OVC030 M02/M03 A2980 RMK AO2 SLP092 P0000 T10221033 $
0235724090147802022010713107+40033-074350FM-16+0031KNEL V0203005N00415003055MN9999999N5-00225-00335999999ADDAA101000021AU110030015AW1715GA1085+003055999GD14991+0030559GE19AGL   +99999+99999GF199999999999003051999999MA1100955100585MW1715REMMET09501/07/22 08:10:02 SPECI KNEL 071310Z 30008KT -SN OVC010 M02/M03 A2981 RMK AO2 P0000 T10221033 $
0223724090147802022010714007+40033-074350FM-15+0031KNEL V0203105N00515003665MN9999999N5-00175-00395101015ADDAA101000021GA1085+003665999GD14991+0036659GE19AGL   +99999+99999GF199999999999003661999999MA1101025100645REMMET10601/07/22 09:00:02 METAR KNEL 071400Z 31010KT OVC012 M02/M04 A2983 RMK AO2 SNE1350 SLP101 P0000 T10171039 $
0331724090147802022010715007+40033-074350FM-15+0031KNEL V0203005N00675004885MN0160935N5-00175-00395101085ADDAA101000021AA203003391AU120090015AW1415GA1085+004885999GD14991+0048859GE19AGL   +99999+99999GF199999999999004881999999MA1101085100715MD1190259+9999OC101135REMMET12901/07/22 10:00:02 METAR KNEL 071500Z 30013G22KT 10SM UP OVC016 M02/M04 A2985 RMK AO2 UPB1454 SLP108 P0000 60013 T10171039 51025 $EQDQ01  00338PRCP03D01      0ADE735
0280724090147802022010715497+40033-074350FM-16+0031KNEL V0203005N007252200059N0160935N5-00065-00445999999ADDAA101000021AU120090015AW1415GA1045+006105999GD12991+0061059GE19AGL   +99999+99999GF104995999999006101999999MA1101155100785OC101085REMMET11901/07/22 10:49:02 SPECI KNEL 071549Z 30014G21KT 10SM UP SCT020 M01/M04 A2987 RMK AO2 UPE28B49SNB09E15 P0000 T10061044 $EQDD01      0ADE735
0280724090147802022010716007+40033-074350FM-15+0031KNEL V0202905N007752200059N0160935N5-00065-00445101145ADDAA101000021GA1025+006105999GD11991+0061059GE19AGL   +99999+99999GF102995999999006101999999MA1101155100785OC101085REMMET13601/07/22 11:00:02 METAR KNEL 071600Z 29015G21KT 10SM FEW020 M01/M04 A2987 RMK AO2 UPE1528B1549E1559SNB1509E1515 SLP114 P0000 T10061044 $EQDD01      0ADE726
0295724090147802022010717007+40033-074350FM-15+0031KNEL V0202905N01035010365MN0160935N5+00005-00565101095ADDAA101000021AU120090015AW1415GA1075+010365999GD13991+0103659GE19AGL   +99999+99999GF199999999999010361999999MA1101085100715OC101495REMMET13401/07/22 12:00:02 METAR KNEL 071700Z 29020G29KT 10SM UP BKN034 00/M06 A2985 RMK AO2 PK WND 29029/1658 UPB1625 SLP109 P0000 T00001056 $EQDD01      0ADE735
0398724090147802022010718007+40033-074350FM-15+0031KNEL V0202905N00885011585MN0160935N5-00115-00675101135ADDAA101000021AU120090015AW1415GA1075+011585999GD13991+0115859GE19AGL   +99999+99999GF199999999999011581999999KA1060M+00001KA2060N-00221MA1101155100785MD1090019+9999OC101445OD149901491290REMMET15101/07/22 13:00:02 METAR KNEL 071800Z 29017G28KT 10SM UP BKN038 M01/M07 A2987 RMK AO2 PK WND 29029/1727 SLP113 P0000 60000 T10111067 10000 21022 50001 $EQDQ01  00008PRCP06Q02  00002PRCP06D01      0ADE735
0285724090147802022010719007+40033-074350FM-15+0031KNEL V0202905N011352200059N9999999N5-00065-00785101175ADDAA101000021GA1025+011285999GD11991+0112859GE19AGL   +99999+99999GF102995999999011281999999MA1101195100815OC101445OD149901491280REMMET12701/07/22 14:00:02 METAR KNEL 071900Z 29022G28KT FEW037 M01/M08 A2988 RMK AO2 PK WND 28029/1847 UPE1824 SLP117 P0000 T10061078 $EQDD01      0ADE726
0290724090147802022010720007+40033-074350FM-15+0031KNEL V0202905N010352200059N9999999N5-00115-00835101315ADDAA101000021AU120090015AW1415GA1005+999999999GD10991+9999999GF100991999999999999999999MA1101325100955OC101495OD149901641280REMMET13701/07/22 15:00:02 METAR KNEL 072000Z 29020G29KT UP CLR M01/M08 A2992 RMK AO2 PK WND 28032/1916 UPB1910E1920B1939 SLP131 P0000 T10111083 $EQDD01      0ADE735
0297724090147802022010721007+40033-074350FM-15+0031KNEL V0202805N008252200059N9999999N5-00115-00945101515ADDAA101000021AA203000021GA1005+999999999GD10991+9999999GF100991999999999999999999MA1101525101155MD1390229+9999OC101395OD149901591290REMMET13601/07/22 16:00:02 METAR KNEL 072100Z 28016G27KT CLR M01/M09 A2998 RMK AO2 PK WND 29031/2006 UPE2023 SLP151 P0000 60000 T10111094 53022 $EQDQ01  00008PRCP03
0221724090147802022010722007+40033-074350FM-15+0031KNEL V0202805N008852200059N0160935N5-00285-01115101685ADDGA1005+999999999GD10991+9999999GF100991999999999999999999MA1101695101325OC101345OD149901391280REMMET11501/07/22 17:00:02 METAR KNEL 072200Z 28017G26KT 10SM CLR M03/M11 A3003 RMK AO2 PK WND 28027/2131 SLP168 T10281111 $
0210724090147802022010723007+40033-074350FM-15+0031KNEL V0202905N007252200059N0160935N5-00335-01115101845ADDGA1005+999999999GD10991+9999999GF100991999999999999999999MA1101835101465OD149901331270REMMET11201/07/22 18:00:02 METAR KNEL 072300Z 29014KT 10SM CLR M03/M11 A3007 RMK AO2 PK WND 27026/2218 SLP184 T10331111 $
0272724090147802022010800007+40033-074350FM-15+0031KNEL V0202905N006252200059N0160935N5-00395-01175101995ADDAA106000021GA1005+999999999GD10991+9999999GF100991999999999999999999KA1060M-00061KA2060N-00391MA1102005101625MD1190539+9999REMMET11801/07/22 19:00:01 METAR KNEL 080000Z 29012KT 10SM CLR M04/M12 A3012 RMK AO2 SLP199 60000 T10391117 11006 21039 51053 $EQDQ01  00008PRCP06
0189724090147802022010801007+40033-074350FM-15+0031KNEL V0202805N007752200059N0160935N5-00395-01175102115ADDGA1005+999999999GD10991+9999999GF100991999999999999999999MA1102135101765OC101085REMMET09701/07/22 20:00:01 METAR KNEL 080100Z 28015G21KT 10SM CLR M04/M12 A3016 RMK AO2 SLP211 T10391117 $
0173724090147802022010802007+40033-074350FM-15+0031KNEL V0202905N008252200059N9999999N5-00445-01285102185ADDGA1005+999999999GD10991+9999999GF100991999999999999999999MA1102205101835REMMET08901/07/22 21:00:01 METAR KNEL 080200Z 29016KT CLR M04/M13 A3018 RMK AO2 SLP218 T10441128 $
0204724090147802022010803007+40033-074350FM-15+0031KNEL V0202805N006752200059N9999999N5-00505-01285102305ADDGA1005+999999999GD10991+9999999GF100991999999999999999999MA1102305101935MD1190349+9999OC101245REMMET09801/07/22 22:00:01 METAR KNEL 080300Z 28013G24KT CLR M05/M13 A3021 RMK AO2 SLP230 T10501128 51034 $
0173724090147802022010804007+40033-074350FM-15+0031KNEL V0202905N006752200059N9999999N5-00565-01285102365ADDGA1005+999999999GD10991+9999999GF100991999999999999999999MA1102375102005REMMET08901/07/22 23:00:02 METAR KNEL 080400Z 29013KT CLR M06/M13 A3023 RMK AO2 SLP236 T10561128 $
002772409014780202201080459O+40033-074350SOD  +0031KNEL V020999999999999999999999999999+99999+99999999999ADDAT1AU18SN  5AT2AU19UP  5
0209724090147802022010805007+40033-074350FM-15+0031KNEL V0202705N007252200059N9999999N5-00615-01335102445ADDGA1005+999999999GD10991+9999999GF100991999999999999999999KA1240M-00611KA2240N-00611MA1102445102065REMMET09901/08/22 00:00:02 METAR KNEL 080500Z 27014KT CLR M06/M13 A3025 RMK AO2 SLP244 T10611133 410611061 $
0231724090147802022010806007+40033-074350FM-15+0031KNEL V0202805N006252200059N9999999N5-00615-01285102505ADDGA1005+999999999GD10991+9999999GF100991999999999999999999KA1060M-00391KA2060N-00611MA1102515102135MD1190269+9999REMMET10701/08/22 01:00:02 METAR KNEL 080600Z 28012KT CLR M06/M13 A3027 RMK AO2 SLP250 T10611128 11039 21061 51026 $
0173724090147802022010807007+40033-074350FM-15+0031KNEL V0202805N005752200059N9999999N5-00615-01285102645ADDGA1005+999999999GD10991+9999999GF100991999999999999999999MA1102645102275REMMET08901/08/22 02:00:02 METAR KNEL 080700Z 28011KT CLR M06/M13 A3031 RMK AO2 SLP264 T10611128 $
0173724090147802022010808007+40033-074350FM-15+0031KNEL V0202905N004652200059N9999999N5-00675-01285102795ADDGA1005+999999999GD10991+9999999GF100991999999999999999999MA1102815102435REMMET08901/08/22 03:00:02 METAR KNEL 080800Z 29009KT CLR M07/M13 A3036 RMK AO2 SLP279 T10671128 $
0193724090147802022010809007+40033-074350FM-15+0031KNEL V0203005N003652200059N9999999N5-00725-01285102915ADDGA1005+999999999GD10991+9999999GF100991999999999999999999MA1102915102545MD1390359+9999REMMET09501/08/22 04:00:02 METAR KNEL 080900Z 30007KT CLR M07/M13 A3039 RMK AO2 SLP291 T10721128 53035 $
0173724090147802022010810007+40033-074350FM-15+0031KNEL V0209999V002152200059N9999999N5-00835-01285103065ADDGA1005+999999999GD10991+9999999GF100991999999999999999999MA1103085102705REMMET08901/08/22 05:00:02 METAR KNEL 081000Z VRB04KT CLR M08/M13 A3044 RMK AO2 SLP306 T10831128 $
0173724090147802022010811007+40033-074350FM-15+0031KNEL V0203005N003152200059N9999999N5-00835-01335103185ADDGA1005+999999999GD10991+9999999GF100991999999999999999999MA1103185102815REMMET08901/08/22 06:00:02 METAR KNEL 081100Z 30006KT CLR M08/M13 A3047 RMK AO2 SLP318 T10831133 $
0231724090147802022010812007+40033-074350FM-15+0031KNEL V0203005N003652200059N9999999N5-00785-01395103285ADDGA1005+999999999GD10991+9999999GF100991999999999999999999KA1060M-00611KA2060N-00941MA1103285102915MD1390389+9999REMMET10701/08/22 07:00:02 METAR KNEL 081200Z 30007KT CLR M08/M14 A3050 RMK AO2 SLP328 T10781139 11061 21094 53038 $
0173724090147802022010813007+40033-074350FM-15+0031KNEL V0203005N004152200059N9999999N5-00725-01445103445ADDGA1005+999999999GD10991+9999999GF100991999999999999999999MA1103455103085REMMET08901/08/22 08:00:02 METAR KNEL 081300Z 30008KT CLR M07/M14 A3055 RMK AO2 SLP344 T10721144 $
0191724090147802022010814007+40033-074350FM-15+0031KNEL V0203205N003652200059N9999999N5-00615-01395103575ADDGA1005+999999999GD10991+9999999GF100991999999999999999999MA1103595103215OC101035REMMET09901/08/22 09:00:02 METAR KNEL 081400Z 32007G20KT CLR M06/M14 A3059 RMK AO2 PRESRR SLP357 T10611139 $
0209724090147802022010815007+40033-074350FM-15+0031KNEL V0203105N005752200059N0160935N5-00505-01445103655ADDGA1005+999999999GD10991+9999999GF100991999999999999999999MA1103665103285MD1390409+9999OC100825REMMET10301/08/22 10:00:02 METAR KNEL 081500Z 31011G16KT 10SM CLR M05/M14 A3061 RMK AO2 SLP365 T10501144 53040 $
0173724090147802022010816007+40033-074350FM-15+0031KNEL V0203005N003152200059N9999999N5-00395-01445103635ADDGA1005+999999999GD10991+9999999GF100991999999999999999999MA1103665103285REMMET08901/08/22 11:00:02 METAR KNEL 081600Z 30006KT CLR M04/M14 A3061 RMK AO2 SLP363 T10391144 $
0173724090147802022010817007+40033-074350FM-15+0031KNEL V0203005N004152200059N9999999N5-00335-01505103585ADDGA1005+999999999GD10991+9999999GF100991999999999999999999MA1103595103215REMMET08901/08/22 12:00:02 METAR KNEL 081700Z 30008KT CLR M03/M15 A3059 RMK AO2 SLP358 T10331150 $
0231724090147802022010818007+40033-074350FM-15+0031KNEL V0202905N003152200059N9999999N5-00225-01395103585ADDGA1005+999999999GD10991+9999999GF100991999999999999999999KA1060M-00221KA2060N-00831MA1103595103215MD1090019+9999REMMET10701/08/22 13:00:02 METAR KNEL 081800Z 29006KT CLR M02/M14 A3059 RMK AO2 SLP358 T10221139 11022 21083 50001 $
0173724090147802022010819007+40033-074350FM-15+0031KNEL V0202805N002152200059N9999999N5-00175-01445103565ADDGA1005+999999999GD10991+9999999GF100991999999999999999999MA1103565103185REMMET08901/08/22 14:00:02 METAR KNEL 081900Z 28004KT CLR M02/M14 A3058 RMK AO2 SLP356 T10171144 $
0173724090147802022010820007+40033-074350FM-15+0031KNEL V0202905N002652200059N9999999N5-00175-01395103575ADDGA1005+999999999GD10991+9999999GF100991999999999999999999MA1103595103215REMMET08901/08/22 15:00:02 METAR KNEL 082000Z 29005KT CLR M02/M14 A3059 RMK AO2 SLP357 T10171139 $
0193724090147802022010821007+40033-074350FM-15+0031KNEL V0202905N002652200059N9999999N5-00225-01445103605ADDGA1005+999999999GD10991+9999999GF100991999999999999999999MA1103595103215MD1590019+9999REMMET09501/08/22 16:00:02 METAR KNEL 082100Z 29005KT CLR M02/M14 A3059 RMK AO2 SLP360 T10221144 55001 $
0173724090147802022010822007+40033-074350FM-15+0031KNEL V0209999C000052200059N9999999N5-00395-01395103625ADDGA1005+999999999GD10991+9999999GF100991999999999999999999MA1103625103245REMMET08901/08/22 17:00:02 METAR KNEL 082200Z 00000KT CLR M04/M14 A3060 RMK AO2 SLP362 T10391139 $
0173724090147802022010823007+40033-074350FM-15+0031KNEL V0209999C000052200059N9999999N5-00615-01175103635ADDGA1005+999999999GD10991+9999999GF100991999999999999999999MA1103665103285REMMET08901/08/22 18:00:02 METAR KNEL 082300Z 00000KT CLR M06/M12 A3061 RMK AO2 SLP363 T10611117 $
0231724090147802022010900007+40033-074350FM-15+0031KNEL V0209999C000052200059N9999999N5-00835-01285103675ADDGA1005+999999999GD10991+9999999GF100991999999999999999999KA1060M-00111KA2060N-00831MA1103695103315MD1190069+9999REMMET10701/08/22 19:00:01 METAR KNEL 090000Z 00000KT CLR M08/M13 A3062 RMK AO2 SLP367 T10831128 11011 21083 51006 $
0173724090147802022010901007+40033-074350FM-15+0031KNEL V0209999C000052200059N9999999N5-00895-01225103695ADDGA1005+999999999GD10991+9999999GF100991999999999999999999MA1103695103315REMMET08901/08/22 20:00:01 METAR KNEL 090100Z 00000KT CLR M09/M12 A3062 RMK AO2 SLP369 T10891122 $
0173724090147802022010902007+40033-074350FM-15+0031KNEL V0209999C000052200059N9999999N5-01005-01285103615ADDGA1005+999999999GD10991+9999999GF100991999999999999999999MA1103625103245REMMET08901/08/22 21:00:01 METAR KNEL 090200Z 00000KT CLR M10/M13 A3060 RMK AO2 SLP361 T11001128 $
0193724090147802022010903007+40033-074350FM-15+0031KNEL V0209999C000052200059N9999999N5-00835-01225103485ADDGA1005+999999999GD10991+9999999GF100991999999999999999999MA1103495103115MD1890029+9999REMMET09501/08/22 22:00:01 METAR KNEL 090300Z 00000KT CLR M08/M12 A3056 RMK AO2 SLP348 T10831122 58002 $
0173724090147802022010904007+40033-074350FM-15+0031KNEL V0202905N002652200059N9999999N5-01065-01395103455ADDGA1005+999999999GD10991+9999999GF100991999999999999999999MA1103455103085REMMET08901/08/22 23:00:02 METAR KNEL 090400Z 29005KT CLR M11/M14 A3055 RMK AO2 SLP345 T11061139 $
0209724090147802022010905007+40033-074350FM-15+0031KNEL V0209999C000052200059N9999999N5-00835-01285103485ADDGA1005+999999999GD10991+9999999GF100991999999999999999999KA1240M-00831KA2240N-00831MA1103495103115REMMET09901/09/22 00:00:02 METAR KNEL 090500Z 00000KT CLR M08/M13 A3056 RMK AO2 SLP348 T10831128 410831083 $
0231724090147802022010906007+40033-074350FM-15+0031KNEL V0209999C000052200059N9999999N5-00725-01175103355ADDGA1005+999999999GD10991+9999999GF100991999999999999999999KA1060M-00721KA2060N-01061MA1103355102975MD1590139+9999REMMET10701/09/22 01:00:02 METAR KNEL 090600Z 00000KT CLR M07/M12 A3052 RMK AO2 SLP335 T10721117 11072 21106 55013 $
0173724090147802022010907007+40033-074350FM-15+0031KNEL V0209999C000052200059N9999999N5-00945-01175103365ADDGA1005+999999999GD10991+9999999GF100991999999999999999999MA1103355102975REMMET08901/09/22 02:00:02 METAR KNEL 090700Z 00000KT CLR M09/M12 A3052 RMK AO2 SLP336 T10941117 $
0173724090147802022010908007+40033-074350FM-15+0031KNEL V0209999C000052200059N9999999N5-00835-01175103265ADDGA1005+999999999GD10991+9999999GF100991999999999999999999MA1103285102915REMMET08901/09/22 03:00:02 METAR KNEL 090800Z 00000KT CLR M08/M12 A3050 RMK AO2 SLP326 T10831117 $
0193724090147802022010909007+40033-074350FM-15+0031KNEL V0202405N001552200059N9999999N5-00675-00945103155ADDGA1005+999999999GD10991+9999999GF100991999999999999999999MA1103155102775MD1690229+9999REMMET09501/09/22 04:00:02 METAR KNEL 090900Z 24003KT CLR M07/M09 A3046 RMK AO2 SLP315 T10671094 56022 $
0198724090147802022010910007+40033-074350FM-15+0031KNEL V0201905N00365030485MN9999999N5-00725-00895102995ADDGA1075+030485999GD13991+0304859GE19AGL   +99999+99999GF199999999999030481999999MA1102985102605REMMET09201/09/22 05:00:02 METAR KNEL 091000Z 19007KT BKN100 M07/M09 A3041 RMK AO2 SLP299 T10721089 $
0198724090147802022010911007+40033-074350FM-15+0031KNEL V0202005N00315030485MN9999999N5-00175-00395102885ADDGA1085+030485999GD14991+0304859GE19AGL   +99999+99999GF199999999999030481999999MA1102885102505REMMET09201/09/22 06:00:02 METAR KNEL 091100Z 20006KT OVC100 M02/M04 A3038 RMK AO2 SLP288 T10171039 $
0255724090147802022010912007+40033-074350FM-15+0031KNEL V0202105N00415030485MN9999999N5+00005-00335102775ADDGA1085+030485999GD14991+0304859GE19AGL   +99999+99999GF199999999999030481999999KA1060M+00001KA2060N-01061MA1102785102405MD1690389+9999REMMET10901/09/22 07:00:02 METAR KNEL 091200Z 21008KT OVC100 00/M03 A3035 RMK AO2 SLP277 T00001033 10000 21106 56038 $
0197724090147802022010913007+40033-074350FM-15+0031KNEL V0202005N00515030485MN9999999N5+00115-00395102625ADDGA1085+030485999GD14991+0304859GE19AGL   +99999+99999GF199999999999030481999999MA1102645102275REMMET09101/09/22 08:00:02 METAR KNEL 091300Z 20010KT OVC100 01/M04 A3031 RMK AO2 SLP262 T00111039 $
0208724090147802022010914007+40033-074350FM-15+0031KNEL V0202105N00465033535MN9999999N5+00225-00395102595ADDGA1085+033535999GD14991+0335359GE19AGL   +99999+99999GF199999999999033531999999MA1102615102235OC100935REMMET09401/09/22 09:00:02 METAR KNEL 091400Z 21009G18KT OVC110 02/M04 A3030 RMK AO2 SLP259 T00221039 $
0228724090147802022010915007+40033-074350FM-15+0031KNEL V0202305N00575010675MN9999999N5+00395-00395102545ADDGA1085+010675999GD14991+0106759GE19AGL   +99999+99999GF199999999999010671999999MA1102545102165MD1690299+9999OC101085REMMET10001/09/22 10:00:02 METAR KNEL 091500Z 23011G21KT OVC035 04/M04 A3028 RMK AO2 SLP254 T00391039 56029 $
0238724090147802022010916007+40033-074350FM-15+0031KNEL V0202305N00465008535MN9999999N5+00445-00225102435ADDAA101000021GA1085+008535999GD14991+0085359GE19AGL   +99999+99999GF199999999999008531999999MA1102445102065OC100935REMMET11301/09/22 11:00:02 METAR KNEL 091600Z 23009G18KT OVC028 04/M02 A3025 RMK AO2 RAB1542E1553 SLP243 P0000 T00441022 $
0215724090147802022010917007+40033-074350FM-15+0031KNEL V0202005N00675006715MN9999999N5+00505-00065102115ADDGA1085+006715999GD14991+0067159GE19AGL   +99999+99999GF199999999999006711999999MA1102105101735OC100985REMMET10101/09/22 12:00:02 METAR KNEL 091700Z 20013G19KT OVC022 05/M01 A3015 RMK AO2 PRESFR SLP211 T00501006 $
0366724090147802022010918007+40033-074350FM-15+0031KNEL V0202305N00825005795MN9999999N5+00565+00115102005ADDAA101000021AA206000021GA1085+005795999GD14991+0057959GE19AGL   +99999+99999GF199999999999005791999999KA1060M+00561MA1102005101625MD1890439+9999OC101245OD149901331220REMMET15401/09/22 13:00:02 METAR KNEL 091800Z 23016G24KT OVC019 06/01 A3012 RMK AO2 PK WND 22026/1714 RAB1707E1724 SLP200 P0000 60000 T00560011 10056 20000 58043 $EQDQ01  00002PRCP06Q02  00008PRCP06
0288724090147802022010918477+40033-074350FM-16+0031KNEL V0202405N00775030485MN9999999N5+00565+00115999999ADDAA101000021AU110020015AW1615GA1045+006715999GA2085+030485999GD12991+0067159GD24991+0304859GE19AGL   +99999+99999GF199999999999006711999999MA1101905101525MW1615OC101245REMMET10901/09/22 13:47:02 SPECI KNEL 091847Z 24015G24KT -RA SCT022 OVC100 06/01 A3009 RMK AO2 RAB26 P0000 T00560011 $
0259724090147802022010919007+40033-074350FM-15+0031KNEL V0202305N00625030485MN9999999N5+00565+00225101885ADDAA101000395AU110020015AW1615GA1085+030485999GD14991+0304859GE19AGL   +99999+99999GF199999999999030481999999MA1101905101525MW1615OC101135REMMET11101/09/22 14:00:02 METAR KNEL 091900Z 23012G22KT -RA OVC100 06/02 A3009 RMK AO2 RAB1826 SLP188 P0001 T00560022 $
0253724090147802022010920007+40033-074350FM-16+0031KNEL V0202305N00575005795MN9999999N5+00605+00205999999ADDAA101000021GA1075+005795999GA2085+018295999GD13991+0057959GD24991+0182959GE19AGL   +99999+99999GF199999999999005791999999MA1101765101395OC100985REMMET09701/09/22 15:00:02 SPECI KNEL 092000Z 23011G19KT BKN019 OVC060 06/02 A3005 RMK AO2 RAE1932 P0000 $
0270724090147802022010920067+40033-074350FM-15+0031KNEL V0202305N00575005795MN9999999N5+00615+00225101745ADDAA101000021GA1075+005795999GA2085+018295999GD13991+0057959GD24991+0182959GE19AGL   +99999+99999GF199999999999005791999999MA1101765101395OC101035REMMET11401/09/22 15:06:02 METAR KNEL 092006Z 23011G20KT BKN019 OVC060 06/02 A3005 RMK AO2 RAE1932 SLP174 P0000 T00610022 $
0315724090147802022010921007+40033-074350FM-15+0031KNEL V0202405N00725005795MN9999999N5+00565+00335101685ADDAA101000021AA203000391AU110020015AW1615GA1085+005795999GD14991+0057959GE19AGL   +99999+99999GF199999999999005791999999MA1101695101325MD1690269+9999MW1615OC101085REMMET12301/09/22 16:00:02 METAR KNEL 092100Z 24014G21KT -RA OVC019 06/03 A3003 RMK AO2 RAB2025 SLP168 P0000 60001 T00560033 56026 $EQDQ01  00028PRCP03
0251724090147802022010922007+40033-074350FM-15+0031KNEL V0202405N00625004575MN9999999N5+00505+00335101675ADDAA101000021AU110020015AW1615GA1085+004575999GD14991+0045759GE19AGL   +99999+99999GF199999999999004571999999MA1101665101295MW1615OC100935REMMET10301/09/22 17:00:02 METAR KNEL 092200Z 24012G18KT -RA OVC015 05/03 A3002 RMK AO2 SLP167 P0000 T00500033 $
0233724090147802022010922147+40033-074350FM-16+0031KNEL V0202405N00575004275MN9999999N5+00505+00335999999ADDAA101000021AU110020015AW1615GA1085+004275999GD14991+0042759GE19AGL   +99999+99999GF199999999999004271999999MA1101665101295MW1615REMMET09301/09/22 17:14:02 SPECI KNEL 092214Z 24011KT -RA OVC014 05/03 A3002 RMK AO2 P0000 T00500033 $
0239724090147802022010923007+40033-074350FM-15+0031KNEL V0202305N00465003965MN9999999N5+00505+00395101655ADDAA101000595AU120020015AW1625GA1085+003965999GD14991+0039659GE19AGL   +99999+99999GF199999999999003961999999MA1101665101295MW1655REMMET09901/09/22 18:00:02 METAR KNEL 092300Z 23009KT RA OVC013 05/04 A3002 RMK AO2 SLP165 P0002 T00500039 $
0244724090147802022010923437+40033-074350FM-16+0031KNEL V0202405N00465002745MN9999999N5+00505+00395999999ADDAA101001031AU120020015AW1625GA1085+002745999GD14991+0027451GE19AGL   +99999+99999GF199999999999002741999999MA1101665101295MW1655REMMET10401/09/22 18:43:02 SPECI KNEL 092343Z 24009KT RA OVC009 05/04 A3002 RMK AO2 CIG 005V011 P0004 T00500039 $
0346724090147802022011000007+40033-074350FM-15+0031KNEL V0202505N00365002135MN9999999N5+00505+00445101615ADDAA101001395AA206002091AU110020015AW1615GA1085+002135999GD14991+0021351GE19AGL   +99999+99999GF199999999999002131999999KA1060M+00611KA2060N+00501MA1101635101255MD1690099+9999MW1615REMMET13601/09/22 19:00:01 METAR KNEL 100000Z 25007KT -RA OVC007 05/04 A3001 RMK AO2 CIG 005V010 SLP161 P0005 60008 T00500044 10061 20050 56009 $EQDQ01  00208PRCP06
0240724090147802022011001007+40033-074350FM-15+0031KNEL V0202605N00465001835MN9999999N5+00565+00445101565ADDAA101000395AU110020015AW1615GA1085+001835999GD14991+0018359GE19AGL   +99999+99999GF199999999999001831999999MA1101565101195MW1615REMMET10001/09/22 20:00:01 METAR KNEL 100100Z 26009KT -RA OVC006 06/04 A2999 RMK AO2 SLP156 P0001 T00560044 $
0239724090147802022011002007+40033-074350FM-15+0031KNEL V0202705N00465001835MN9999999N5+00565+00505101555ADDAA101001095AU120020015AW1625GA1085+001835999GD14991+0018359GE19AGL   +99999+99999GF199999999999001831999999MA1101565101195MW1655REMMET09901/09/22 21:00:01 METAR KNEL 100200Z 27009KT RA OVC006 06/05 A2999 RMK AO2 SLP155 P0004 T00560050 $
0289724090147802022011003007+40033-074350FM-15+0031KNEL V0202805N00465002135MN9999999N5+00565+00505101525ADDAA101000895AA203003891GA1085+002135999GD14991+0021351GE19AGL   +99999+99999GF199999999999002131999999MA1101525101155MD1690099+9999REMMET12801/09/22 22:00:01 METAR KNEL 100300Z 28009KT OVC007 06/05 A2998 RMK AO2 RAE0251 CIG 005V009 SLP152 P0003 60015 T00560050 56009 $EQDQ01  00388PRCP03
0246724090147802022011004007+40033-074350FM-15+0031KNEL V0202905N00515002135MN9999999N5+00505+00445101525ADDGA1075+002135999GA2075+030485999GD13991+0021351GD23991+0304859GE19AGL   +99999+99999GF199999999999002131999999MA1101525101155REMMET10901/09/22 23:00:02 METAR KNEL 100400Z 29010KT BKN007 BKN100 05/04 A2998 RMK AO2 CIG 005V011 SLP152 T00500044 $
0219724090147802022011004087+40033-074350FM-16+0031KNEL V0202905N006252200059N9999999N5+00505+00445999999ADDGA1045+002135999GD12991+0021359GE19AGL   +99999+99999GF104995999999002131999999MA1101565101195OC100935REMMET08601/09/22 23:08:02 SPECI KNEL 100408Z 29012G18KT SCT007 05/04 A2999 RMK AO2 T00500044 $EQDD01      0ADE726
001572409014780202201100459O+40033-074350SOD  +0031KNEL V020999999999999999999999999999+99999+99999999999ADDAT1AU16RA  5
0218724090147802022011005007+40033-074350FM-15+0031KNEL V0202905N006752200059N9999999N5+00445+00225101585ADDGA1005+999999999GD10991+9999999GF100991999999999999999999KA1240M+00441KA2240N+00441MA1101595101225OC100985REMMET10001/10/22 00:00:02 METAR KNEL 100500Z 29013G19KT CLR 04/02 A3000 RMK AO2 SLP158 T00440022 400440044 $
