0174724084547602022010100534+40187-074125FM-16+004899999V0201501N001510009119N008047199+00901+00901999999ADDAW1101GD14991+0015211GE19AGL   +99999+99999GF199999999999001521999999MA1101491999999REMMET078SPECI KBLM 010053Z AUTO 15003KT 5SM BR OVC005 09/09 A2997 RMK AO2 CIG 003V008=
0213724084547602022010100564+40187-074125FM-15+004899999V0201601N001510009119N008047199+00941+00941101501ADDAW1101GD13991+0015211GD24991+0042719GE19AGL   +99999+99999GF199999999999001521999999MA1101491999999REMMET102METAR KBLM 010056Z AUTO 16003KT 5SM BR BKN005 OVC014 09/09 A2997 RMK AO2 CIG 003V008 SLP150 T00940094=
0201724084547602022010101564+40187-074125FM-15+004899999V0201901N002610015219N008047199+00941+00941101471ADDAW1101GD13991+0015219GD24991+0042719GE19AGL   +99999+99999GF199999999999001521999999MA1101461999999REMMET090METAR KBLM 010156Z AUTO 19005KT 5SM BR BKN005 OVC014 09/09 A2996 RMK AO2 SLP147 T00940094=
0184724084547602022010102094+40187-074125FM-16+004899999V0201601N001510042719N009656199+00901+00901999999ADDAW1101GD12991+0015219GD24991+0042719GE19AGL   +99999+99999GF199999999999001521999999MA1101391999999REMMET073SPECI KBLM 010209Z AUTO 16003KT 6SM BR SCT005 OVC014 09/09 A2994 RMK AO2=
0197724084547602022010102414+40187-074125FM-16+004899999V0202101N002110012219N014484199+01001+01001999999ADDGD13991+0012219GD23991+0024419GD34991+0042719GE19AGL   +99999+99999GF199999999999001221999999MA1101461999999REMMET077SPECI KBLM 010241Z AUTO 21004KT 9SM BKN004 BKN008 OVC014 10/10 A2996 RMK AO2=
0191724084547602022010102564+40187-074125FM-15+004899999V0201901N002610012219N016093199+01001+01001101411ADDGD14991+0012219GE19AGL   +99999+99999GF199999999999001221999999MA1101421999999MD1810091+9999REMMET087METAR KBLM 010256Z AUTO 19005KT 10SM OVC004 10/10 A2995 RMK AO2 SLP141 T01000100 58009=
0171724084547602022010103564+40187-074125FM-15+004899999V0201701N002110012219N016093199+01001+01001101391ADDGD14991+0012219GE19AGL   +99999+99999GF199999999999001221999999MA1101391999999REMMET081METAR KBLM 010356Z AUTO 17004KT 10SM OVC004 10/10 A2994 RMK AO2 SLP139 T01000100=
0207724084547602022010104564+40187-074125FM-15+004899999V0201901N002610012219N016093199+01001+01001101351ADDGD14991+0012219GE19AGL   +99999+99999GF199999999999001221999999KA1240M+01001KA2240N+00721MA1101351999999REMMET091METAR KBLM 010456Z AUTO 19005KT 10SM OVC004 10/10 A2993 RMK AO2 SLP135 T01000100 401000072=
0257724084547602022010105567+40183-074133FM-15+0048KBLM V0201805N00265001225MN0160935N5+01005+01005101315ADDGA1085+001225999GD14991+0012259GE19AGL   +99999+99999GF199999999999001221999999KA1060M+01001KA2060N+00891MA1101325100755MD1890109+9999REMMET11101/01/22 00:56:02 METAR KBLM 010556Z 18005KT 10SM OVC004 10/10 A2992 RMK AO2 SLP131 T01000100 10100 20089 58010
0205724084547602022010106567+40183-074133FM-15+0048KBLM V0201305N00265001225MN0112655N5+01005+01005101235ADDGA1085+001225999GD14991+0012259GE19AGL   +99999+99999GF199999999999001221999999MA1101225100645REMMET09901/01/22 01:56:02 METAR KBLM 010656Z 13005KT 7SM OVC004 10/10 A2989 RMK AO2 PRESFR SLP123 T01000100
0205724084547602022010107137+40183-074133FM-15+0048KBLM V0201505N00365000615MN0040235N5+01005+01005999999ADDAU100001015AW1105GA1085+000615999GD14991+0006159GE19AGL   +99999+99999GF199999999999000611999999MA1101255100685REMMET08201/01/22 02:13:02 METAR KBLM 010713Z 15007KT 2 1/2SM BR OVC002 10/10 A2990 RMK AO2
0205724084547602022010107287+40183-074133FM-15+0048KBLM V0201705N00155000615MN0020125N5+01005+01005999999ADDAU100001015AW1105GA1085+000615999GD14991+0006159GE19AGL   +99999+99999GF199999999999000611999999MA1101325100755REMMET08201/01/22 02:28:02 METAR KBLM 010728Z 17003KT 1 1/4SM BR OVC002 10/10 A2992 RMK AO2
0189724084547602022010107427+40183-074133FM-15+0048KBLM V0201405N002150006119N0016095N5+01001+01001999999ADDAW1101GD14991+0006119GE19AGL   +99999+99999GF199999999999000611999999MA1101291999999REMMET05801/01/22 02:42:02 METAR KBLM 010742Z 14004KT 1SM RVRNO RMKEQDR01      7SKY009R02      7GAS009
0205724084547602022010107527+40183-074133FM-15+0048KBLM V0201505N00215000615MN0020125N5+01005+01005999999ADDAU100001015AW1105GA1085+000615999GD14991+0006159GE19AGL   +99999+99999GF199999999999000611999999MA1101295100715REMMET08201/01/22 02:52:02 METAR KBLM 010752Z 15004KT 1 1/4SM BR OVC002 10/10 A2991 RMK AO2
0206724084547602022010107567+40183-074133FM-15+0048KBLM V0201605N002150006119N0016095N5+01001+01001101271ADDAA101000021AW1101AW2611GD14991+0006119GE19AGL   +99999+99999GF199999999999000611999999MA1101291999999REMMET05801/01/22 02:56:02 METAR KBLM 010756Z 16004KT 1SM RVRNO RMKEQDR01      7SKY009R02      7GAS009
0208724084547602022010108067+40183-074133FM-15+0048KBLM V0201505N003150006119N0012075N5+01001+01001999999ADDAA101000021AW1101AW2611GD14991+0006119GE19AGL   +99999+99999GF199999999999000611999999MA1101251999999REMMET06001/01/22 03:06:02 METAR KBLM 010806Z 15006KT 3/4SM RVRNO RMKEQDR01      7SKY009R02      7GAS009
0206724084547602022010108167+40183-074133FM-15+0048KBLM V0201605N002650006119N0016095N5+01001+01001999999ADDAA101000021AW1101AW2611GD14991+0006119GE19AGL   +99999+99999GF199999999999000611999999MA1101221999999REMMET05801/01/22 03:16:02 METAR KBLM 010816Z 16005KT 1SM RVRNO RMKEQDR01      7SKY009R02      7GAS009
0249724084547602022010108237+40183-074133FM-15+0048KBLM V0201705N00315000615MN0020125N5+01005+01005999999ADDAA101000021AU110020015AU200001015AW1105AW2615GA1085+000615999GD14991+0006159GE19AGL   +99999+99999GF199999999999000611999999MA1101225100645MW1615REMMET09201/01/22 03:23:02 METAR KBLM 010823Z 17006KT 1 1/4SM -RA BR OVC002 10/10 A2989 RMK AO2 P0000
0249724084547602022010108427+40183-074133FM-15+0048KBLM V0201605N00265000615MN0040235N5+01005+01005999999ADDAA101000021AU110020015AU200001015AW1105AW2615GA1085+000615999GD14991+0006159GE19AGL   +99999+99999GF199999999999000611999999MA1101195100615MW1615REMMET09201/01/22 03:42:02 METAR KBLM 010842Z 16005KT 2 1/2SM -RA BR OVC002 10/10 A2988 RMK AO2 P0000
0318724084547602022010108567+40183-074133FM-15+0048KBLM V0201605N00215000615MN0064375N5+01005+01005101195ADDAA101000021AA203000021AU110020015AU200001015AW1105AW2615GA1085+000615999GD14991+0006159GE19AGL   +99999+99999GF199999999999000611999999MA1101195100615MD1790089+9999MW1615REMMET11701/01/22 03:56:02 METAR KBLM 010856Z 16004KT 4SM -RA BR OVC002 10/10 A2988 RMK AO2 SLP119 P0000 60000 T01000100 57008EQDQ01  00008PRCP03
0243724084547602022010109567+40183-074133FM-15+0048KBLM V0201505N00215000615MN0160935N5+01005+01005101105ADDAA101000021AU110020015AW1615GA1085+000615999GD14991+0006159GE19AGL   +99999+99999GF199999999999000611999999MA1101085100515MW1615REMMET10301/01/22 04:56:02 METAR KBLM 010956Z 15004KT 10SM -RA OVC002 10/10 A2985 RMK AO2 SLP110 P0000 T01000100
0221724084547602022010110567+40183-074133FM-15+0048KBLM V0201505N00155000615MN0144845N5+01005+01005101065ADDAA101000021GA1085+000615999GD14991+0006159GE19AGL   +99999+99999GF199999999999000611999999MA1101055100485REMMET10401/01/22 05:56:02 METAR KBLM 011056Z 15003KT 9SM OVC002 10/10 A2984 RMK AO2 RAE01 SLP106 P0000 T01000100
0205724084547602022010111137+40183-074133FM-15+0048KBLM V0201405N00265000615MN0028165N5+01005+01005999999ADDAU100001015AW1105GA1085+000615999GD14991+0006159GE19AGL   +99999+99999GF199999999999000611999999MA1101025100445REMMET08201/01/22 06:13:02 METAR KBLM 011113Z 14005KT 1 3/4SM BR OVC002 10/10 A2983 RMK AO2
0191724084547602022010111257+40183-074133FM-15+0048KBLM V0201505N001550006119N0012075N5+01001+01001999999ADDAW1101GD14991+0006119GE19AGL   +99999+99999GF199999999999000611999999MA1101021999999REMMET06001/01/22 06:25:02 METAR KBLM 011125Z 15003KT 3/4SM RVRNO RMKEQDR01      7SKY009R02      7GAS009
0208724084547602022010111367+40183-074133FM-15+0048KBLM V0209999C000050006119N0008055N5+01001+01001999999ADDAA101000021AW1301AW2611GD14991+0006119GE19AGL   +99999+99999GF199999999999000611999999MA1101051999999REMMET06001/01/22 06:36:02 METAR KBLM 011136Z 00000KT 1/2SM RVRNO RMKEQDR01      7SKY009R02      7GAS009
0259724084547602022010111567+40183-074133FM-15+0048KBLM V0201605N002150006119N0012075N5+01001+01001101061ADDAA101000021AA206000021AW1101AW2611GD14991+0006119GE19AGL   +99999+99999GF199999999999000611999999KA1060M+01001KA2060N+01001MA1101051999999MD1610131+9999REMMET06001/01/22 06:56:02 METAR KBLM 011156Z 16004KT 3/4SM RVRNO RMKEQDR01      7SKY009R02      7GAS009
0208724084547602022010112297+40183-074133FM-15+0048KBLM V0201505N001550006119N0008055N5+01101+01101999999ADDAA101000021AW1301AW2611GD14991+0006119GE19AGL   +99999+99999GF199999999999000611999999MA1101051999999REMMET06001/01/22 07:29:02 METAR KBLM 011229Z 15003KT 1/2SM RVRNO RMKEQDR01      7SKY009R02      7GAS009
0208724084547602022010112567+40183-074133FM-15+0048KBLM V0201405N001550006119N0008055N5+01061+01061101061ADDAA101000021AW1301AW2611GD14991+0006119GE19AGL   +99999+99999GF199999999999000611999999MA1101051999999REMMET06001/01/22 07:56:02 METAR KBLM 011256Z 14003KT 1/2SM RVRNO RMKEQDR01      7SKY009R02      7GAS009
0208724084547602022010113567+40183-074133FM-15+0048KBLM V0201905N002650006119N0008055N5+01061+01061101141ADDAA101000021AW1301AW2611GD14991+0006119GE19AGL   +99999+99999GF199999999999000611999999MA1101151999999REMMET06001/01/22 08:56:02 METAR KBLM 011356Z 19005KT 1/2SM RVRNO RMKEQDR01      7SKY009R02      7GAS009
0206724084547602022010114037+40183-074133FM-15+0048KBLM V0201905N002650006119N0016095N5+01101+01101999999ADDAA101000021AW1101AW2611GD14991+0006119GE19AGL   +99999+99999GF199999999999000611999999MA1101151999999REMMET05801/01/22 09:03:02 METAR KBLM 011403Z 19005KT 1SM RVRNO RMKEQDR01      7SKY009R02      7GAS009
0245724084547602022010114117+40183-074133FM-15+0048KBLM V0201905N00215000615MN0032195N5+01105+01105999999ADDAA101000021AU110020015AU200001015AW1105AW2615GA1085+000615999GD14991+0006159GE19AGL   +99999+99999GF199999999999000611999999MA1101155100585MW1615REMMET08801/01/22 09:11:02 METAR KBLM 011411Z 19004KT 2SM -RA BR OVC002 11/11 A2987 RMK AO2 P0000
0245724084547602022010114227+40183-074133FM-15+0048KBLM V0201805N00215000615MN0064375N5+01105+01105999999ADDAA101000021AU110020015AU200001015AW1105AW2615GA1085+000615999GD14991+0006159GE19AGL   +99999+99999GF199999999999000611999999MA1101155100585MW1615REMMET08801/01/22 09:22:02 METAR KBLM 011422Z 18004KT 4SM -RA BR OVC002 11/11 A2987 RMK AO2 P0000
0298724084547602022010114567+40183-074133FM-15+0048KBLM V0202205N00265000615MN0112655N5+01115+01115101175ADDAA101000021AA203000021AU110020015AW1615GA1085+000615999GD14991+0006159GE19AGL   +99999+99999GF199999999999000611999999MA1101155100585MD1390119+9999MW1615REMMET11401/01/22 09:56:02 METAR KBLM 011456Z 22005KT 7SM -RA OVC002 11/11 A2987 RMK AO2 SLP117 P0000 60000 T01110111 53011EQDQ01  00008PRCP03
0242724084547602022010115567+40183-074133FM-15+0048KBLM V0202105N00265000615MN0112655N5+01175+01175101095ADDAA101000021AU110020015AW1615GA1085+000615999GD14991+0006159GE19AGL   +99999+99999GF199999999999000611999999MA1101085100515MW1615REMMET10201/01/22 10:56:02 METAR KBLM 011556Z 21005KT 7SM -RA OVC002 12/12 A2985 RMK AO2 SLP109 P0000 T01170117
0242724084547602022010116567+40183-074133FM-15+0048KBLM V0202005N00265000615MN0112655N5+01225+01225100935ADDAA101000021AU110020015AW1615GA1085+000615999GD14991+0006159GE19AGL   +99999+99999GF199999999999000611999999MA1100915100345MW1615REMMET10201/01/22 11:56:02 METAR KBLM 011656Z 20005KT 7SM -RA OVC002 12/12 A2980 RMK AO2 SLP093 P0000 T01220122
0336724084547602022010117567+40183-074133FM-15+0048KBLM V0202405N00265000615MN0128755N5+01285+01285100815ADDAA101000021AA206000021AU110020015AW1615GA1085+000615999GD14991+0006159GE19AGL   +99999+99999GF199999999999000611999999KA1060M+01281KA2060N+01001MA1100815100245MD1890369+9999MW1615REMMET12601/01/22 12:56:02 METAR KBLM 011756Z 24005KT 8SM -RA OVC002 13/13 A2977 RMK AO2 SLP081 P0000 60000 T01280128 10128 20100 58036EQDQ01  00008PRCP06
0262724084547602022010118567+40183-074133FM-15+0048KBLM V0202305N00155000615MN0096565N5+01335+01335100785ADDAA101000021AU110020015AU200001015AW1105AW2615GA1085+000615999GD14991+0006159GE19AGL   +99999+99999GF199999999999000611999999MA1100785100215MW1615REMMET10501/01/22 13:56:02 METAR KBLM 011856Z 23003KT 6SM -RA BR OVC002 13/13 A2976 RMK AO2 SLP078 P0000 T01330133
0242724084547602022010119567+40183-074133FM-15+0048KBLM V0209999C00005000615MN0128755N5+01335+01335100725ADDAA101000021AU110020015AW1615GA1085+000615999GD14991+0006159GE19AGL   +99999+99999GF199999999999000611999999MA1100715100145MW1615REMMET10201/01/22 14:56:02 METAR KBLM 011956Z 00000KT 8SM -RA OVC002 13/13 A2974 RMK AO2 SLP072 P0000 T01330133
0277724084547602022010120567+40183-074133FM-15+0048KBLM V0201705N00215000615MN0128755N5+01335+01335100665ADDAA101000021AA203000021GA1085+000615999GD14991+0006159GE19AGL   +99999+99999GF199999999999000611999999MA1100645100075MD1890159+9999REMMET11601/01/22 15:56:02 METAR KBLM 012056Z 17004KT 8SM OVC002 13/13 A2972 RMK AO2 RAE48 SLP066 P0000 60000 T01330133 58015EQDQ01  00008PRCP03
0205724084547602022010121147+40183-074133FM-15+0048KBLM V0201605N00215000615MN0024145N5+01305+01305999999ADDAU100001015AW1105GA1085+000615999GD14991+0006159GE19AGL   +99999+99999GF199999999999000611999999MA1100685100105REMMET08201/01/22 16:14:02 METAR KBLM 012114Z 16004KT 1 1/2SM BR OVC002 13/13 A2973 RMK AO2
0191724084547602022010121177+40183-074133FM-15+0048KBLM V0201805N002150006119N0012075N5+01301+01301999999ADDAW1101GD14991+0006119GE19AGL   +99999+99999GF199999999999000611999999MA1100681999999REMMET06001/01/22 16:17:02 METAR KBLM 012117Z 18004KT 3/4SM RVRNO RMKEQDR01      7SKY009R02      7GAS009
0208724084547602022010121267+40183-074133FM-15+0048KBLM V0202005N001550006119N0008055N5+01301+01301999999ADDAA101000021AW1301AW2611GD14991+0006119GE19AGL   +99999+99999GF199999999999000611999999MA1100711999999REMMET06001/01/22 16:26:02 METAR KBLM 012126Z 20003KT 1/2SM RVRNO RMKEQDR01      7SKY009R02      7GAS009
0206724084547602022010121347+40183-074133FM-15+0048KBLM V0201805N001550006119N0016095N5+01301+01301999999ADDAA101000021AW1101AW2611GD14991+0006119GE19AGL   +99999+99999GF199999999999000611999999MA1100681999999REMMET05801/01/22 16:34:02 METAR KBLM 012134Z 18003KT 1SM RVRNO RMKEQDR01      7SKY009R02      7GAS009
0238724084547602022010121487+40183-074133FM-15+0048KBLM V0201505N001550018319N0012075N5+01301+01301999999ADDAA101000021AW1101AW2611GD12991+0006111GD23991+0024419GD34991+0042719GE19AGL   +99999+99999GF199999999999000611999999MA1100681999999REMMET06001/01/22 16:48:02 METAR KBLM 012148Z 15003KT 3/4SM RVRNO RMKEQDR01      7SKY009R02      7GAS009
0238724084547602022010121567+40183-074133FM-15+0048KBLM V0201505N001550018319N0012075N5+01281+01281100661ADDAA101000021AW1101AW2611GD12991+0006111GD23991+0024419GD34991+0042719GE19AGL   +99999+99999GF199999999999000611999999MA1100641999999REMMET06001/01/22 16:56:02 METAR KBLM 012156Z 15003KT 3/4SM RVRNO RMKEQDR01      7SKY009R02      7GAS009
0236724084547602022010122007+40183-074133FM-15+0048KBLM V0201505N001550003019N0016095N5+01301+01301999999ADDAA101000021AW1101AW2611GD13991+0012211GD23991+0024419GD34991+0042719GE19AGL   +99999+99999GF199999999999001221999999MA1100681999999REMMET05801/01/22 17:00:02 METAR KBLM 012200Z 15003KT 1SM RVRNO RMKEQDR01      7SKY009R02      7GAS009
0316724084547602022010122047+40183-074133FM-15+0048KBLM V0201605N00215002445MN0020125N5+01305+01305999999ADDAA101000021AU100001015AW1105GA1045+000615999GA2075+002445999GA3085+004275999GD12991+0006151GD23991+0024459GD34991+0042759GE19AGL   +99999+99999GF199999999999000611999999MA1100685100105REMMET12001/01/22 17:04:02 METAR KBLM 012204Z 16004KT 1 1/4SM BR SCT002 BKN008 OVC014 13/13 A2973 RMK AO2 RAE03 CIG 005V010 P0000
0232724084547602022010122137+40183-074133FM-15+0048KBLM V0201505N003650006119N0012075N5+01201+01201999999ADDAA101000021AW1101GD13991+0006119GD23991+0024419GD34991+0103619GE19AGL   +99999+99999GF199999999999000611999999MA1100641999999REMMET06001/01/22 17:13:02 METAR KBLM 012213Z 15007KT 3/4SM RVRNO RMKEQDR01      7SKY009R02      7GAS009
0232724084547602022010122247+40183-074133FM-15+0048KBLM V0201505N003150003019N0008055N5+01201+01201999999ADDAA101000021AW1301GD13991+0006111GD23991+0024419GD34991+0097519GE19AGL   +99999+99999GF199999999999000611999999MA1100641999999REMMET06001/01/22 17:24:02 METAR KBLM 012224Z 15006KT 1/2SM RVRNO RMKEQDR01      7SKY009R02      7GAS009
0206724084547602022010122447+40183-074133FM-15+0048KBLM V0201605N003150006119N0016095N5+01201+01201999999ADDAA101000021AW1101AW2611GD14991+0006119GE19AGL   +99999+99999GF199999999999000611999999MA1100641999999REMMET05801/01/22 17:44:02 METAR KBLM 012244Z 16006KT 1SM RVRNO RMKEQDR01      7SKY009R02      7GAS009
0251724084547602022010122567+40183-074133FM-15+0048KBLM V0201605N00265000615MN0024145N5+01225+01225100645ADDAA101000021AU100001015AW1105GA1085+000615999GD14991+0006159GE19AGL   +99999+99999GF199999999999000611999999MA1100645100075REMMET11701/01/22 17:56:02 METAR KBLM 012256Z 16005KT 1 1/2SM BR OVC002 12/12 A2972 RMK AO2 RAE03B43E56 SLP064 P0000 T01220122
0255724084547602022010123137+40183-074133FM-15+0048KBLM V0201605N00265000615MN0040235N5+01205+01205999999ADDAA101000021AU110020015AU200001015AW1105AW2615GA1085+000615999GD14991+0006159GE19AGL   +99999+99999GF199999999999000611999999MA1100615100045MW1615REMMET09801/01/22 18:13:02 METAR KBLM 012313Z 16005KT 2 1/2SM -RA BR OVC002 12/12 A2971 RMK AO2 RAB07 P0000
0251724084547602022010123207+40183-074133FM-15+0048KBLM V0201505N00155000615MN0064375N5+01205+01205999999ADDAA101000021AU110020015AU200001015AW1105AW2615GA1085+000615999GD14991+0006159GE19AGL   +99999+99999GF199999999999000611999999MA1100615100045MW1615REMMET09401/01/22 18:20:02 METAR KBLM 012320Z 15003KT 4SM -RA BR OVC002 12/12 A2971 RMK AO2 RAB07 P0000
0362724084547602022010123567+40183-074133FM-15+0048KBLM V0209999C00005000615MN0048285N5+01225+01225100615ADDAA101000021AA206000021AU110020015AU200001015AW1105AW2615GA1085+000615999GD14991+0006159GE19AGL   +99999+99999GF199999999999000611999999KA1060M+01331KA2060N+01221MA1100615100045MD1890059+9999MW1615REMMET13501/01/22 18:56:02 METAR KBLM 012356Z 00000KT 3SM -RA BR OVC002 12/12 A2971 RMK AO2 RAB07 SLP061 P0000 60000 T01220122 10133 20122 58005EQDQ01  00008PRCP06
0245724084547602022010200037+40183-074133FM-15+0048KBLM V0209999C00005000615MN0032195N5+01205+01205999999ADDAA101000021AU110020015AU200001015AW1105AW2615GA1085+000615999GD14991+0006159GE19AGL   +99999+99999GF199999999999000611999999MA1100615100045MW1615REMMET08801/01/22 19:03:01 METAR KBLM 020003Z 00000KT 2SM -RA BR OVC002 12/12 A2971 RMK AO2 P0000
0234724084547602022010200257+40183-074133FM-15+0048KBLM V0209999C00005000615MN0048285N5+01205+01205999999ADDAU110020015AU200001015AW1105AW2615GA1085+000615999GD14991+0006159GE19AGL   +99999+99999GF199999999999000611999999MA1100585100005MW1615REMMET08801/01/22 19:25:01 METAR KBLM 020025Z 00000KT 3SM -RA BR OVC002 12/12 A2970 RMK AO2 PNO $
0249724084547602022010200457+40183-074133FM-15+0048KBLM V0201205N00155000615MN0040235V5+01205+01205999999ADDAU120020015AU200001015AW1105AW2625GA1085+000615999GD14991+0006159GE19AGL   +99999+99999GF199999999999000611999999MA1100545099975MW1655REMMET10301/01/22 19:45:01 METAR KBLM 020045Z 12003KT 2 1/2SM RA BR OVC002 12/12 A2969 RMK AO2 VIS 1 1/2V3 PNO $
0274724084547602022010200567+40183-074133FM-15+0048KBLM V0201005N00155000615MN0040235N5+01225+01225100515ADDAU110020015AU200001015AW1105AW2615GA1085+000615999GD14991+0006159GE19AGL   +99999+99999GF199999999999000611999999MA1100515099945MW1615REMMET10901/01/22 19:56:01 METAR KBLM 020056Z 10003KT 2 1/2SM -RA BR OVC002 12/12 A2968 RMK AO2 SLP051 T01220122 PNO $EQDR01   PNO7AAP062
0195724084547602022010201187+40183-074133FM-15+0048KBLM V0201005N002650006119N0016095N5+01201+01201999999ADDAW1101AW2611GD14991+0006119GE19AGL   +99999+99999GF199999999999000611999999MA1100441999999REMMET05801/01/22 20:18:01 METAR KBLM 020118Z 10005KT 1SM RVRNO RMKEQDR01      7SKY009R02      7GAS009
0197724084547602022010201287+40183-074133FM-15+0048KBLM V0200605N002150006119N0012075N5+01201+01201999999ADDAW1101AW2611GD14991+0006119GE19AGL   +99999+99999GF199999999999000611999999MA1100441999999REMMET06001/01/22 20:28:01 METAR KBLM 020128Z 06004KT 3/4SM RVRNO RMKEQDR01      7SKY009R02      7GAS009
0197724084547602022010201407+40183-074133FM-15+0048KBLM V0200505N001550006119N0008055N5+01201+01201999999ADDAW1301AW2611GD14991+0006119GE19AGL   +99999+99999GF199999999999000611999999MA1100411999999REMMET06001/01/22 20:40:01 METAR KBLM 020140Z 05003KT 1/2SM RVRNO RMKEQDR01      7SKY009R02      7GAS009
0197724084547602022010201567+40183-074133FM-15+0048KBLM V0201005N002150006119N0008055N5+01221+01221100371ADDAW1301AW2611GD14991+0006119GE19AGL   +99999+99999GF199999999999000611999999MA1100371999999REMMET06001/01/22 20:56:01 METAR KBLM 020156Z 10004KT 1/2SM RVRNO RMKEQDR01      7SKY009R02      7GAS009
0197724084547602022010202037+40183-074133FM-15+0048KBLM V0201005N002150006119N0012075N5+01201+01201999999ADDAW1101AW2611GD14991+0006119GE19AGL   +99999+99999GF199999999999000611999999MA1100371999999REMMET06001/01/22 21:03:01 METAR KBLM 020203Z 10004KT 3/4SM RVRNO RMKEQDR01      7SKY009R02      7GAS009
0197724084547602022010202337+40183-074133FM-15+0048KBLM V0201005N004150006119N0008055N5+01201+01201999999ADDAW1301AW2611GD14991+0006119GE19AGL   +99999+99999GF199999999999000611999999MA1100241999999REMMET06001/01/22 21:33:01 METAR KBLM 020233Z 10008KT 1/2SM RVRNO RMKEQDR01      7SKY009R02      7GAS009
0211724084547602022010202567+40183-074133FM-15+0048KBLM V0201005N004150006119N0008055N5+01171+01171100221ADDAW1301AW2611GD14991+0006119GE19AGL   +99999+99999GF199999999999000611999999MA1100241999999MD1810391+9999REMMET06001/01/22 21:56:01 METAR KBLM 020256Z 10008KT 1/2SM RVRNO RMKEQDR01      7SKY009R02      7GAS009
0195724084547602022010203147+40183-074133FM-15+0048KBLM V0201105N004150006119N0016095N5+01101+01101999999ADDAW1101AW2621GD14991+0006119GE19AGL   +99999+99999GF199999999999000611999999MA1100201999999REMMET05801/01/22 22:14:01 METAR KBLM 020314Z 11008KT 1SM RVRNO RMKEQDR01      7SKY009R02      7GAS009
0233724084547602022010203227+40183-074133FM-15+0048KBLM V0201005N00515000615MN0032195N5+01105+01105999999ADDAU120020015AU200001015AW1105AW2625GA1085+000615999GD14991+0006159GE19AGL   +99999+99999GF199999999999000611999999MA1100205099635MW1655REMMET08701/01/22 22:22:01 METAR KBLM 020322Z 10010KT 2SM RA BR OVC002 11/11 A2959 RMK AO2 PNO $
0234724084547602022010203427+40183-074133FM-15+0048KBLM V0201105N00365000615MN0064375N5+01105+01105999999ADDAU110020015AU200001015AW1105AW2615GA1085+000615999GD14991+0006159GE19AGL   +99999+99999GF199999999999000611999999MA1100175099605MW1615REMMET08801/01/22 22:42:01 METAR KBLM 020342Z 11007KT 4SM -RA BR OVC002 11/11 A2958 RMK AO2 PNO $
0288724084547602022010203567+40183-074133FM-15+0048KBLM V0203205N00775000615MN0064375N5+01115+01115100285ADDAU110020015AU200001015AW1105AW2615GA1085+000615999GD14991+0006159GE19AGL   +99999+99999GF199999999999000611999999MA1100275099705MW1615OC100985REMMET11501/01/22 22:56:01 METAR KBLM 020356Z 32015G19KT 4SM -RA BR OVC002 11/11 A2961 RMK AO2 PRESRR SLP028 T01110111 PNO $EQDR01   PNO7AAP062
0265724084547602022010204347+40183-074133FM-15+0048KBLM V0200405N00365001525MN0160935N5+01105+01105999999ADDAU110020015AW1615GA1075+001525999GA2085+002445999GD13991+0015251GD24991+0024459GE19AGL   +99999+99999GF199999999999001521999999MA1100175099605MW1615REMMET10501/01/22 23:34:02 METAR KBLM 020434Z 04007KT 10SM -RA BKN005 OVC008 11/11 A2958 RMK AO2 CIG 002V008 PNO $
0275724084547602022010204547+40183-074133FM-15+0048KBLM V0200705N00365003355MN0160935N5+01105+01105999999ADDGA1045+001525999GA2085+003355999GD12991+0015259GD24991+0033559GE19AGL   +99999+99999GF199999999999001521999999KA1240M+01331KA2240N+01001MA1100105099535REMMET11201/01/22 23:54:02 METAR KBLM 020454Z 07007KT 10SM SCT005 OVC011 11/11 A2956 RMK AO2 RAE43 PRESFR 401330100 PNO $
0311724084547602022010204567+40183-074133FM-15+0048KBLM V0200705N00415003355MN0160935N5+01115+01115100085ADDGA1045+001525999GA2085+003355999GD12991+0015259GD24991+0033559GE19AGL   +99999+99999GF199999999999001521999999KA1240M+01331KA2240N+01001MA1100075099505REMMET12901/01/22 23:56:02 METAR KBLM 020456Z 07008KT 10SM SCT005 OVC011 11/11 A2955 RMK AO2 RAE43 PRESFR SLP008 T01110111 401330100 PNO $EQDR01   PNO7AAP062
003972408454760202201020459O+40183-074133SOD  +0048KBLM V020999999999999999999999999999+99999+99999999999ADDAT1AU16RA  5AT2AU13BR  5AT3AW01FG  1
0226724084547602022010205097+40183-074133FM-15+0048KBLM V0200405N00315000915MN0160935N5+01105+01105999999ADDGA1075+000915999GA2085+003355999GD13991+0009159GD24991+0033559GE19AGL   +99999+99999GF199999999999000911999999MA1100145099575REMMET08901/02/22 00:09:02 METAR KBLM 020509Z 04006KT 10SM BKN003 OVC011 11/11 A2957 RMK AO2 PNO $
0321724084547602022010205567+40183-074133FM-15+0048KBLM V0200405N00155000915MN0160935N5+01115+01115100115ADDAU110020015AW1615GA1085+000915999GD14991+0009159GE19AGL   +99999+99999GF199999999999000911999999KA1060M+01221KA2060N+01111MA1100105099535MD1590179+9999MW1615REMMET13301/02/22 00:56:02 METAR KBLM 020556Z 04003KT 10SM -RA OVC003 11/11 A2956 RMK AO2 RAB34 SLP011 6//// T01110111 10122 20111 55017 PNO $EQDR01   PNO7AAP062
0251724084547602022010206567+40183-074133FM-15+0048KBLM V0203305N00265000915MN0160935N5+01115+01115100115ADDAU110020015AW1615GA1085+000915999GD14991+0009159GE19AGL   +99999+99999GF199999999999000911999999MA1100105099535MW1615REMMET10301/02/22 01:56:02 METAR KBLM 020656Z 33005KT 10SM -RA OVC003 11/11 A2956 RMK AO2 SLP011 T01110111 PNO $EQDR01   PNO7AAP062
0238724084547602022010207497+40183-074133FM-15+0048KBLM V0202005N00155000915MN0028165N5+01105+01105999999ADDAU110020015AU200001015AW1105AW2615GA1085+000915999GD14991+0009159GE19AGL   +99999+99999GF199999999999000911999999MA1100075099505MW1615REMMET09201/02/22 02:49:02 METAR KBLM 020749Z 20003KT 1 3/4SM -RA BR OVC003 11/11 A2955 RMK AO2 PNO $
0274724084547602022010207567+40183-074133FM-15+0048KBLM V0202405N00155000915MN0020125N5+01115+01115100085ADDAU110020015AU200001015AW1105AW2615GA1085+000915999GD14991+0009159GE19AGL   +99999+99999GF199999999999000911999999MA1100075099505MW1615REMMET10901/02/22 02:56:02 METAR KBLM 020756Z 24003KT 1 1/4SM -RA BR OVC003 11/11 A2955 RMK AO2 SLP008 T01110111 PNO $EQDR01   PNO7AAP062
0195724084547602022010208067+40183-074133FM-15+0048KBLM V0202205N002150009119N0016095N5+01101+01101999999ADDAW1101AW2611GD14991+0009119GE19AGL   +99999+99999GF199999999999000911999999MA1100071999999REMMET05801/02/22 03:06:02 METAR KBLM 020806Z 22004KT 1SM RVRNO RMKEQDR01      7SKY009R02      7GAS009
0197724084547602022010208167+40183-074133FM-15+0048KBLM V0202105N002650009119N0012075N5+01101+01101999999ADDAW1101AW2611GD14991+0009119GE19AGL   +99999+99999GF199999999999000911999999MA1100071999999REMMET06001/02/22 03:16:02 METAR KBLM 020816Z 21005KT 3/4SM RVRNO RMKEQDR01      7SKY009R02      7GAS009
0195724084547602022010208307+40183-074133FM-15+0048KBLM V0202305N003150009119N0016095N5+01101+01101999999ADDAW1101AW2611GD14991+0009119GE19AGL   +99999+99999GF199999999999000911999999MA1100101999999REMMET05801/02/22 03:30:02 METAR KBLM 020830Z 23006KT 1SM RVRNO RMKEQDR01      7SKY009R02      7GAS009
0250724084547602022010208377+40183-074133FM-15+0048KBLM V0202905N00415000915MN0028165V5+01105+01105999999ADDAU110020015AU200001015AW1105AW2615GA1085+000915999GD14991+0009159GE19AGL   +99999+99999GF199999999999000911999999MA1100145099575MW1615REMMET10401/02/22 03:37:02 METAR KBLM 020837Z 29008KT 1 3/4SM -RA BR OVC003 11/11 A2957 RMK AO2 VIS 1V2 1/2 PNO $
0238724084547602022010208447+40183-074133FM-15+0048KBLM V0203005N00415000915MN0040235N5+01105+01105999999ADDAU110020015AU200001015AW1105AW2615GA1085+000915999GD14991+0009159GE19AGL   +99999+99999GF199999999999000911999999MA1100175099605MW1615REMMET09201/02/22 03:44:02 METAR KBLM 020844Z 30008KT 2 1/2SM -RA BR OVC003 11/11 A2958 RMK AO2 PNO $
0234724084547602022010208517+40183-074133FM-15+0048KBLM V0203005N00465000915MN0064375N5+01105+01105999999ADDAU110020015AU200001015AW1105AW2615GA1085+000915999GD14991+0009159GE19AGL   +99999+99999GF199999999999000911999999MA1100175099605MW1615REMMET08801/02/22 03:51:02 METAR KBLM 020851Z 30009KT 4SM -RA BR OVC003 11/11 A2958 RMK AO2 PNO $
0296724084547602022010208567+40183-074133FM-15+0048KBLM V0202905N00365000915MN0096565N5+01115+01115100175ADDAU110020015AU200001015AW1105AW2615GA1085+000915999GD14991+0009159GE19AGL   +99999+99999GF199999999999000911999999MA1100175099605MD1390069+9999MW1615REMMET11701/02/22 03:56:02 METAR KBLM 020856Z 29007KT 6SM -RA BR OVC003 11/11 A2958 RMK AO2 SLP017 6//// T01110111 53006 PNO $EQDR01   PNO7AAP062
0251724084547602022010209567+40183-074133FM-15+0048KBLM V0202205N00215000915MN0160935N5+01115+01115100185ADDAU110020015AW1615GA1085+000915999GD14991+0009159GE19AGL   +99999+99999GF199999999999000911999999MA1100175099605MW1615REMMET10301/02/22 04:56:02 METAR KBLM 020956Z 22004KT 10SM -RA OVC003 11/11 A2958 RMK AO2 SLP018 T01110111 PNO $EQDR01   PNO7AAP062
0291724084547602022010210097+40183-074133FM-15+0048KBLM V0202105N00215014945MN0160935N5+01105+01105999999ADDAU110020015AW1615GA1045+000915999GA2075+014945999GA3085+030485999GD12991+0009159GD23991+0149459GD34991+0304859GE19AGL   +99999+99999GF199999999999000911999999MA1100145099575MW1615REMMET10001/02/22 05:09:02 METAR KBLM 021009Z 21004KT 10SM -RA SCT003 BKN049 OVC100 11/11 A2957 RMK AO2 PNO $
0303724084547602022010210177+40183-074133FM-15+0048KBLM V0202205N00155000915MN0160935N5+01105+01105999999ADDAU110020015AW1615GA1075+000915999GA2075+014335999GA3085+030485999GD13991+0009151GD23991+0143359GD34991+0304859GE19AGL   +99999+99999GF199999999999000911999999MA1100145099575MW1615REMMET11201/02/22 05:17:02 METAR KBLM 021017Z 22003KT 10SM -RA BKN003 BKN047 OVC100 11/11 A2957 RMK AO2 CIG 002V028 PNO $
0291724084547602022010210237+40183-074133FM-15+0048KBLM V0201905N00265014335MN0160935N5+01105+01105999999ADDAU110020015AW1615GA1045+001525999GA2075+014335999GA3075+030485999GD12991+0015259GD23991+0143359GD33991+0304859GE19AGL   +99999+99999GF199999999999001521999999MA1100145099575MW1615REMMET10001/02/22 05:23:02 METAR KBLM 021023Z 19005KT 10SM -RA SCT005 BKN047 BKN100 11/11 A2957 RMK AO2 PNO $
0305724084547602022010210567+40183-074133FM-15+0048KBLM V0202605N002652200059N0040235V5+01115+01115100205ADDAU110020015AU200001015AW1105AW2615GA1045+000915999GD12991+0009159GE19AGL   +99999+99999GF104995999999000911999999MA1100205099635MW1615REMMET12401/02/22 05:56:02 METAR KBLM 021056Z 26005KT 2 1/2SM -RA BR SCT003 11/11 A2959 RMK AO2 VIS 2V3 PRESRR SLP020 T01110111 PNO $EQDR01   PNO7AAP062D01      0ADE726
0217724084547602022010211027+40183-074133FM-15+0048KBLM V0202605N00265000915MN0028165N5+01105+01105999999ADDAU100001015AW1105GA1075+000915999GD13991+0009159GE19AGL   +99999+99999GF199999999999000911999999MA1100205099635REMMET09401/02/22 06:02:02 METAR KBLM 021102Z 26005KT 1 3/4SM BR BKN003 11/11 A2959 RMK AO2 RAE00 PNO $
0253724084547602022010211257+40183-074133FM-15+0048KBLM V0201505N00215000915MN0032195V5+01205+01205999999ADDAU110020015AU200001015AW1105AW2615GA1085+000915999GD14991+0009159GE19AGL   +99999+99999GF199999999999000911999999MA1100075099505MW1615REMMET10701/02/22 06:25:02 METAR KBLM 021125Z 15004KT 2SM -RA BR OVC003 12/12 A2955 RMK AO2 VIS 1 1/2V3 PRESFR PNO $
0195724084547602022010211337+40183-074133FM-15+0048KBLM V0201705N001550009119N0016095N5+01201+01201999999ADDAW1101AW2611GD14991+0009119GE19AGL   +99999+99999GF199999999999000911999999MA1100031999999REMMET05801/02/22 06:33:02 METAR KBLM 021133Z 17003KT 1SM RVRNO RMKEQDR01      7SKY009R02      7GAS009
0234724084547602022010211447+40183-074133FM-15+0048KBLM V0203105N00415000915MN0032195N5+01205+01205999999ADDAU110020015AU200001015AW1105AW2615GA1085+000915999GD14991+0009159GE19AGL   +99999+99999GF199999999999000911999999MA1100145099575MW1615REMMET08801/02/22 06:44:02 METAR KBLM 021144Z 31008KT 2SM -RA BR OVC003 12/12 A2957 RMK AO2 PNO $
0234724084547602022010211527+40183-074133FM-15+0048KBLM V0203105N00365000915MN0080475N5+01205+01205999999ADDAU110020015AU200001015AW1105AW2615GA1085+000915999GD14991+0009159GE19AGL   +99999+99999GF199999999999000911999999MA1100205099635MW1615REMMET08801/02/22 06:52:02 METAR KBLM 021152Z 31007KT 5SM -RA BR OVC003 12/12 A2959 RMK AO2 PNO $
0337724084547602022010211567+40183-074133FM-15+0048KBLM V0203005N00415000915MN0080475N5+01175+01175100255ADDAA124999919AU100001015AW1105GA1085+000915999GD14991+0009159GE19AGL   +99999+99999GF199999999999000911999999KA1060M+01171KA2060N+01061MA1100245099675MD1390079+9999REMMET14401/02/22 06:56:02 METAR KBLM 021156Z 30008KT 5SM BR OVC003 12/12 A2960 RMK AO2 RAE53 PRESRR SLP025 6//// 7//// T01170117 10117 20106 53007 PNO $EQDR01   PNO7AAP062
0211724084547602022010212287+40183-074133FM-15+0048KBLM V0200805N00155000915MN0024145N5+01205+01205999999ADDAU100001015AW1105GA1085+000915999GD14991+0009159GE19AGL   +99999+99999GF199999999999000911999999MA1100105099535REMMET08801/02/22 07:28:02 METAR KBLM 021228Z 08003KT 1 1/2SM BR OVC003 12/12 A2956 RMK AO2 PNO $
0191724084547602022010212347+40183-074133FM-15+0048KBLM V0203005N002650009119N0012075N5+01201+01201999999ADDAW1101GD14991+0009119GE19AGL   +99999+99999GF199999999999000911999999MA1100241999999REMMET06001/02/22 07:34:02 METAR KBLM 021234Z 30005KT 3/4SM RVRNO RMKEQDR01      7SKY009R02      7GAS009
0191724084547602022010212527+40183-074133FM-15+0048KBLM V0209999C000050009119N0008055N5+01201+01201999999ADDAW1301GD14991+0009119GE19AGL   +99999+99999GF199999999999000911999999MA1100201999999REMMET06001/02/22 07:52:02 METAR KBLM 021252Z 00000KT 1/2SM RVRNO RMKEQDR01      7SKY009R02      7GAS009
0191724084547602022010212567+40183-074133FM-15+0048KBLM V0201805N002650009119N0008055N5+01171+01171100171ADDAW1301GD14991+0009119GE19AGL   +99999+99999GF199999999999000911999999MA1100171999999REMMET06001/02/22 07:56:02 METAR KBLM 021256Z 18005KT 1/2SM RVRNO RMKEQDR01      7SKY009R02      7GAS009
0191724084547602022010213177+40183-074133FM-15+0048KBLM V0202305N002150009119N0012075N5+01201+01201999999ADDAW1101GD14991+0009119GE19AGL   +99999+99999GF199999999999000911999999MA1100271999999REMMET06001/02/22 08:17:02 METAR KBLM 021317Z 23004KT 3/4SM RVRNO RMKEQDR01      7SKY009R02      7GAS009
0191724084547602022010213257+40183-074133FM-15+0048KBLM V0202005N001550009119N0008055N5+01201+01201999999ADDAW1301GD14991+0009119GE19AGL   +99999+99999GF199999999999000911999999MA1100201999999REMMET06001/02/22 08:25:02 METAR KBLM 021325Z 20003KT 1/2SM RVRNO RMKEQDR01      7SKY009R02      7GAS009
0189724084547602022010213317+40183-074133FM-15+0048KBLM V0202505N002650009119N0016095N5+01201+01201999999ADDAW1101GD14991+0009119GE19AGL   +99999+99999GF199999999999000911999999MA1100241999999REMMET05801/02/22 08:31:02 METAR KBLM 021331Z 25005KT 1SM RVRNO RMKEQDR01      7SKY009R02      7GAS009
0207724084547602022010213377+40183-074133FM-15+0048KBLM V0202305N00155000915MN0032195N5+01205+01205999999ADDAU100001015AW1105GA1085+000915999GD14991+0009159GE19AGL   +99999+99999GF199999999999000911999999MA1100245099675REMMET08401/02/22 08:37:02 METAR KBLM 021337Z 23003KT 2SM BR OVC003 12/12 A2960 RMK AO2 PNO $
0207724084547602022010213457+40183-074133FM-15+0048KBLM V0202805N00265000915MN0048285N5+01205+01205999999ADDAU100001015AW1105GA1085+000915999GD14991+0009159GE19AGL   +99999+99999GF199999999999000911999999MA1100275099705REMMET08401/02/22 08:45:02 METAR KBLM 021345Z 28005KT 3SM BR OVC003 12/12 A2961 RMK AO2 PNO $
0243724084547602022010213567+40183-074133FM-15+0048KBLM V0202505N00215000915MN0064375N5+01225+01225100305ADDAU100001015AW1105GA1085+000915999GD14991+0009159GE19AGL   +99999+99999GF199999999999000911999999MA1100305099735REMMET10101/02/22 08:56:02 METAR KBLM 021356Z 25004KT 4SM BR OVC003 12/12 A2962 RMK AO2 SLP030 T01220122 PNO $EQDR01   PNO7AAP062
0250724084547602022010214567+40183-074133FM-15+0048KBLM V0202305N00365000915MN0160935N5+01285+01285100395ADDGA1085+000915999GD14991+0009159GE19AGL   +99999+99999GF199999999999000911999999MA1100415099835MD1390199+9999REMMET11101/02/22 09:56:02 METAR KBLM 021456Z 23007KT 10SM OVC003 13/13 A2965 RMK AO2 SLP039 6//// T01280128 53019 PNO $EQDR01   PNO7AAP062
0188724084547602022010215247+40183-074133FM-15+0048KBLM V0202305N00365001525MN0160935N5+01305+01305999999ADDGA1085+001525999GD14991+0015259GE19AGL   +99999+99999GF199999999999001521999999MA1100445099875REMMET08201/02/22 10:24:02 METAR KBLM 021524Z 23007KT 10SM OVC005 13/13 A2966 RMK AO2 PNO $
0224724084547602022010215567+40183-074133FM-15+0048KBLM V0202405N00415001525MN0160935N5+01335+01335100465ADDGA1085+001525999GD14991+0015259GE19AGL   +99999+99999GF199999999999001521999999MA1100445099875REMMET09901/02/22 10:56:02 METAR KBLM 021556Z 24008KT 10SM OVC005 13/13 A2966 RMK AO2 SLP046 T01330133 PNO $EQDR01   PNO7AAP062
0188724084547602022010216417+40183-074133FM-15+0048KBLM V0202305N00515002135MN0160935N5+01405+01405999999ADDGA1085+002135999GD14991+0021359GE19AGL   +99999+99999GF199999999999002131999999MA1100345099775REMMET08201/02/22 11:41:02 METAR KBLM 021641Z 23010KT 10SM OVC007 14/14 A2963 RMK AO2 PNO $
0235724084547602022010216567+40183-074133FM-15+0048KBLM V0202405N00625002135MN0160935N5+01445+01445100345ADDGA1085+002135999GD14991+0021359GE19AGL   +99999+99999GF199999999999002131999999MA1100345099775OC100885REMMET10201/02/22 11:56:02 METAR KBLM 021656Z 24012G17KT 10SM OVC007 14/14 A2963 RMK AO2 SLP034 T01440144 PNO $EQDR01   PNO7AAP062
0299724084547602022010217567+40183-074133FM-15+0048KBLM V0202605N00625003355MN0160935N5+01505+01505100345ADDGA1085+003355999GD14991+0033559GE19AGL   +99999+99999GF199999999999003351999999KA1060M+01501KA2060N+01171MA1100345099775MD1890049+9999OC100885REMMET12601/02/22 12:56:02 METAR KBLM 021756Z 26012G17KT 10SM OVC011 15/15 A2963 RMK AO2 SLP034 6//// T01500150 10150 20117 58004 PNO $EQDR01   PNO7AAP062
0224724084547602022010218567+40183-074133FM-15+0048KBLM V0202605N00415003965MN0160935N5+01505+01505100395ADDGA1085+003965999GD14991+0039659GE19AGL   +99999+99999GF199999999999003961999999MA1100415099835REMMET09901/02/22 13:56:02 METAR KBLM 021856Z 26008KT 10SM OVC013 15/15 A2965 RMK AO2 SLP039 T01500150 PNO $EQDR01   PNO7AAP062
0199724084547602022010219067+40183-074133FM-15+0048KBLM V0202605N00575004575MN0160935N5+01505+01505999999ADDGA1085+004575999GD14991+0045759GE19AGL   +99999+99999GF199999999999004571999999MA1100415099835OC100775REMMET08501/02/22 14:06:02 METAR KBLM 021906Z 26011G15KT 10SM OVC015 15/15 A2965 RMK AO2 PNO $
0262724084547602022010219567+40183-074133FM-15+0048KBLM V0202705N00415004575MN0160935N5+01565+01445100475ADDGA1075+004575999GA2085+009755999GD13991+0045759GD24991+0097559GE19AGL   +99999+99999GF199999999999004571999999MA1100475099905REMMET10601/02/22 14:56:02 METAR KBLM 021956Z 27008KT 10SM BKN015 OVC032 16/14 A2967 RMK AO2 SLP047 T01560144 PNO $EQDR01   PNO7AAP062
0237724084547602022010220117+40183-074133FM-15+0048KBLM V0202605N00465010365MN0160935N5+01605+01405999999ADDGA1025+004575999GA2075+010365999GD11991+0045759GD23991+0103659GE19AGL   +99999+99999GF199999999999004571999999MA1100515099945OC100775REMMET09201/02/22 15:11:02 METAR KBLM 022011Z 26009G15KT 10SM FEW015 BKN034 16/14 A2968 RMK AO2 PNO $
0288724084547602022010220567+40183-074133FM-15+0048KBLM V0202705N00365010365MN0160935N5+01505+01285100545ADDGA1045+007625999GA2075+010365999GD12991+0076259GD23991+0103659GE19AGL   +99999+99999GF199999999999007621999999MA1100545099975MD1390209+9999REMMET11801/02/22 15:56:02 METAR KBLM 022056Z 27007KT 10SM SCT025 BKN034 15/13 A2969 RMK AO2 SLP054 6//// T01500128 53020 PNO $EQDR01   PNO7AAP062
0224724084547602022010221567+40183-074133FM-15+0048KBLM V0202705N00315021345MN0160935N5+01445+01225100665ADDGA1075+021345999GD13991+0213459GE19AGL   +99999+99999GF199999999999021341999999MA1100685100105REMMET09901/02/22 16:56:02 METAR KBLM 022156Z 27006KT 10SM BKN070 14/12 A2973 RMK AO2 SLP066 T01440122 PNO $EQDR01   PNO7AAP062
0313724084547602022010222567+40183-074133FM-15+0048KBLM V0203205N00725019815MN0160935N5+01285+01115100885ADDAU110020015AW1615GA1025+010975999GA2085+019815999GD11991+0109759GD24991+0198159GE19AGL   +99999+99999GF199999999999010971999999MA1100885100315MW1615OC101135REMMET12601/02/22 17:56:02 METAR KBLM 022256Z 32014G22KT 10SM -RA FEW036 OVC065 13/11 A2979 RMK AO2 RAB50 PRESRR SLP088 T01280111 PNO $EQDR01   PNO7AAP062
0260724084547602022010223187+40183-074133FM-15+0048KBLM V0203005N00575007625MN0160935N5+01105+01105999999ADDAU110020015AW1615GA1075+007625999GA2085+010365999GD13991+0076259GD24991+0103659GE19AGL   +99999+99999GF199999999999007621999999MA1101025100445MW1615REMMET10001/02/22 18:18:02 METAR KBLM 022318Z 30011KT 10SM -RA BKN025 OVC034 11/11 A2983 RMK AO2 PRESRR PNO $
0309724084547602022010223467+40183-074133FM-15+0048KBLM V0203005N00515009755MN0160935N5+01005+00905999999ADDAU110020015AW1615GA1045+006105999GA2075+009755999GA3085+015245999GD12991+0061059GD23991+0097559GD34991+0152459GE19AGL   +99999+99999GF199999999999006101999999MA1101085100515MW1615OC101035REMMET11001/02/22 18:46:02 METAR KBLM 022346Z 30010G20KT 10SM -RA SCT020 BKN032 OVC050 10/09 A2985 RMK AO2 PRESRR PNO $
0364724084547602022010223567+40183-074133FM-15+0048KBLM V0203205N00885016765MN0160935N5+00945+00835101075ADDAU110020015AW1615GA1025+005495999GA2085+016765999GD11991+0054959GD24991+0167659GE19AGL   +99999+99999GF199999999999005491999999KA1060M+01561KA2060N+00941MA1101055100485MD1390519+9999MW1615OC101185REMMET13701/02/22 18:56:02 METAR KBLM 022356Z 32017G23KT 10SM -RA FEW018 OVC055 09/08 A2984 RMK AO2 SLP107 6//// T00940083 10156 20094 53051 PNO $EQDR01   PNO7AAP062
0268724084547602022010300567+40183-074133FM-15+0048KBLM V0203205N00515030485MN0160935N5+00725+00505101255ADDGA1045+019815999GA2075+030485999GD12991+0198159GD23991+0304859GE19AGL   +99999+99999GF199999999999019811999999MA1101255100685REMMET11201/02/22 19:56:01 METAR KBLM 030056Z 32010KT 10SM SCT065 BKN100 07/05 A2990 RMK AO2 RAE33 SLP125 T00720050 PNO $EQDR01   PNO7AAP062
0231724084547602022010301567+40183-074133FM-15+0048KBLM V0203305N005152200059N0160935N5+00565+00225101355ADDGA1005+999999999GD10991+9999999GF100991999999999999999999MA1101355100785OD149901331320REMMET11401/02/22 20:56:01 METAR KBLM 030156Z 33010KT 10SM CLR 06/02 A2993 RMK AO2 PK WND 32026/0104 SLP135 T00560022 PNO $EQDR01   PNO7AAP062
0262724084547602022010302567+40183-074133FM-15+0048KBLM V0203205N00575021345MN0160935N5+00395-00065101475ADDGA1075+021345999GD13991+0213459GE19AGL   +99999+99999GF199999999999021341999999MA1101465100885MD1190409+9999OC100935REMMET11501/02/22 21:56:01 METAR KBLM 030256Z 32011G18KT 10SM BKN070 04/M01 A2996 RMK AO2 SLP147 6//// T00391006 51040 PNO $EQDR01   PNO7AAP062
0225724084547602022010303567+40183-074133FM-15+0048KBLM V0203205N00675021345MN0160935N5+00335-00115101585ADDGA1085+021345999GD14991+0213459GE19AGL   +99999+99999GF199999999999021341999999MA1101565100985REMMET10001/02/22 22:56:02 METAR KBLM 030356Z 32013KT 10SM OVC070 03/M01 A2999 RMK AO2 SLP158 T00331011 PNO $EQDR01   PNO7AAP062
0261724084547602022010304567+40183-074133FM-15+0048KBLM V0203205N00465027435MN0160935N5+00285-00175101655ADDGA1085+027435999GD14991+0274359GE19AGL   +99999+99999GF199999999999027431999999KA1240M+01561KA2240N+00281MA1101665101085REMMET11001/02/22 23:56:02 METAR KBLM 030456Z 32009KT 10SM OVC090 03/M02 A3002 RMK AO2 SLP165 T00281017 401560028 PNO $EQDR01   PNO7AAP062
003972408454760202201030459O+40183-074133SOD  +0048KBLM V020999999999999999999999999999+99999+99999999999ADDAT1AU16RA  5AT2AU13BR  5AT3AW01FG  1
0296724084547602022010305567+40183-074133FM-15+0048KBLM V0203005N00365025915MN0160935N5+00285-00225101815ADDGA1075+025915999GD13991+0259159GE19AGL   +99999+99999GF199999999999025911999999KA1060M+00941KA2060N+00221MA1101795101225MD1390349+9999REMMET13101/03/22 00:56:02 METAR KBLM 030556Z 30007KT 10SM BKN085 03/M02 A3006 RMK AO2 PRESRR SLP181 6//// T00281022 10094 20022 53034 PNO $EQDR01   PNO7AAP062
0232724084547602022010306567+40183-074133FM-15+0048KBLM V0203205N00515024385MN0160935N5+00225-00225101855ADDGA1085+024385999GD14991+0243859GE19AGL   +99999+99999GF199999999999024381999999MA1101865101285REMMET10701/03/22 01:56:02 METAR KBLM 030656Z 32010KT 10SM OVC080 02/M02 A3008 RMK AO2 SLP185 T00221022 FZRANO PNO $EQDR01   PNO7AAP062
0232724084547602022010307567+40183-074133FM-15+0048KBLM V0203205N00465024385MN0160935N5+00175-00225101825ADDGA1085+024385999GD14991+0243859GE19AGL   +99999+99999GF199999999999024381999999MA1101835101255REMMET10701/03/22 02:56:02 METAR KBLM 030756Z 32009KT 10SM OVC080 02/M02 A3007 RMK AO2 SLP182 T00171022 FZRANO PNO $EQDR01   PNO7AAP062
0296724084547602022010308567+40183-074133FM-15+0048KBLM V0203305N00365036585MN0160935N5+00225-00225101845ADDGA1025+022865999GA2075+036585999GD11991+0228659GD23991+0365859GE19AGL   +99999+99999GF199999999999022861999999MA1101835101255MD1190049+9999REMMET12601/03/22 03:56:02 METAR KBLM 030856Z 33007KT 10SM FEW075 BKN120 02/M02 A3007 RMK AO2 SLP184 6//// T00221022 51004 FZRANO PNO $EQDR01   PNO7AAP062
0232724084547602022010309567+40183-074133FM-15+0048KBLM V0203605N00515018295MN0160935N5+00225-00225101915ADDGA1085+018295999GD14991+0182959GE19AGL   +99999+99999GF199999999999018291999999MA1101905101325REMMET10701/03/22 04:56:02 METAR KBLM 030956Z 36010KT 10SM OVC060 02/M02 A3009 RMK AO2 SLP191 T00221022 FZRANO PNO $EQDR01   PNO7AAP062
0270724084547602022010310567+40183-074133FM-15+0048KBLM V0203505N00465018295MN0160935N5+00175-00335101845ADDGA1025+008235999GA2085+018295999GD11991+0082359GD24991+0182959GE19AGL   +99999+99999GF199999999999008231999999MA1101835101255REMMET11401/03/22 05:56:02 METAR KBLM 031056Z 35009KT 10SM FEW027 OVC060 02/M03 A3007 RMK AO2 SLP184 T00171033 FZRANO PNO $EQDR01   PNO7AAP062
0313724084547602022010311567+40183-074133FM-15+0048KBLM V0200205N00515018295MN0160935N5+00115-00445101875ADDAA124999919GA1085+018295999GD14991+0182959GE19AGL   +99999+99999GF199999999999018291999999KA1060M+00281KA2060N+00111MA1101865101285MD1190029+9999REMMET13701/03/22 06:56:02 METAR KBLM 031156Z 02010KT 10SM OVC060 01/M04 A3008 RMK AO2 SLP187 6//// 7//// T00111044 10028 20011 51002 FZRANO PNO $EQDR01   PNO7AAP062
0232724084547602022010312567+40183-074133FM-15+0048KBLM V0200105N00575018295MN0160935N5+00065-00445101885ADDGA1085+018295999GD14991+0182959GE19AGL   +99999+99999GF199999999999018291999999MA1101865101285REMMET10701/03/22 07:56:02 METAR KBLM 031256Z 01011KT 10SM OVC060 01/M04 A3008 RMK AO2 SLP188 T00061044 FZRANO PNO $EQDR01   PNO7AAP062
0239724084547602022010313567+40183-074133FM-15+0048KBLM V0200105N00575024385MN0160935N5+00065-00565101845ADDGA1085+024385999GD14991+0243859GE19AGL   +99999+99999GF199999999999024381999999MA1101835101255REMMET11401/03/22 08:56:02 METAR KBLM 031356Z 01011KT 10SM OVC080 01/M06 A3007 RMK AO2 PRESFR SLP184 T00061056 FZRANO PNO $EQDR01   PNO7AAP062
0269724084547602022010314567+40183-074133FM-15+0048KBLM V0203605N00625016765MN0160935N5+00065-01115102055ADDGA1085+016765999GD14991+0167659GE19AGL   +99999+99999GF199999999999016761999999MA1102035101455MD1390179+9999OC100935REMMET12201/03/22 09:56:02 METAR KBLM 031456Z 36012G18KT 10SM OVC055 01/M11 A3013 RMK AO2 SLP205 6//// T00061111 53017 FZRANO PNO $EQDR01   PNO7AAP062
0286724084547602022010315457+40183-074133FM-15+0048KBLM V0203605N00465006715MN0048285N5-00105-00905999999ADDAU110030015AW1715GA1075+006715999GA2085+015245999GD13991+0067159GD24991+0152459GE19AGL   +99999+99999GF199999999999006711999999MA1102035101455MW1715OC100935REMMET11801/03/22 10:45:02 METAR KBLM 031545Z 36009G18KT 3SM -SN BKN022 OVC050 M01/M09 A3013 RMK AO2 UPB36E38SNB38 FZRANO PNO $
0367724084547602022010315567+40183-074133FM-15+0048KBLM V0200205N00625006715MN0080475N5-00115-00785101935ADDAU110030015AW1715GA1025+003965999GA2075+006715999GA3085+008845999GD11991+0039659GD23991+0067159GD34991+0088459GE19AGL   +99999+99999GF199999999999003961999999MA1101935101355MW1715OC100935REMMET14901/03/22 10:56:02 METAR KBLM 031556Z 02012G18KT 5SM -SN FEW013 BKN022 OVC029 M01/M08 A3010 RMK AO2 UPB36E38SNB38 PRESFR SLP193 T10111078 FZRANO PNO $EQDR01   PNO7AAP062
0315724084547602022010316567+40183-074133FM-15+0048KBLM V0200205N00675008535MN0080475N5-00175-00565101775ADDAU110030015AW1715GA1045+004885999GA2085+008535999GD12991+0048859GD24991+0085359GE19AGL   +99999+99999GF199999999999004881999999MA1101765101185MW1715OC100935REMMET12801/03/22 11:56:02 METAR KBLM 031656Z 02013G18KT 5SM -SN SCT016 OVC028 M02/M06 A3005 RMK AO2 PRESFR SLP177 T10171056 FZRANO PNO $EQDR01   PNO7AAP062
0372724084547602022010317567+40183-074133FM-15+0048KBLM V0200305N00625007325MN0144845N5-00175-00785101535ADDAU110030015AW1715GA1075+007325999GA2085+009755999GD13991+0073259GD24991+0097559GE19AGL   +99999+99999GF199999999999007321999999KA1060M+00111KA2060N-00221MA1101525100955MD1890519+9999MW1715OC100825REMMET14501/03/22 12:56:02 METAR KBLM 031756Z 03012G16KT 9SM -SN BKN024 OVC032 M02/M08 A2998 RMK AO2 SLP153 6//// T10171078 10011 21022 58051 FZRANO PNO $EQDR01   PNO7AAP062
0308724084547602022010318567+40183-074133FM-15+0048KBLM V0203505N00825006105MN0128755N5-00175-00785101535ADDAU110030015AW1715GA1075+006105999GA2085+007925999GD13991+0061059GD24991+0079259GE19AGL   +99999+99999GF199999999999006101999999MA1101525100955MW1715OC101085REMMET12101/03/22 13:56:02 METAR KBLM 031856Z 35016G21KT 8SM -SN BKN020 OVC026 M02/M08 A2998 RMK AO2 SLP153 T10171078 FZRANO PNO $EQDR01   PNO7AAP062
0223724084547602022010319277+40183-074133FM-15+0048KBLM V0203605N00675009455MN0144845N5-00205-00905999999ADDAU110030015AW1715GA1085+009455999GD14991+0094559GE19AGL   +99999+99999GF199999999999009451999999MA1101565100985MW1715REMMET09401/03/22 14:27:02 METAR KBLM 031927Z 36013KT 9SM -SN OVC031 M02/M09 A2999 RMK AO2 FZRANO PNO $
0308724084547602022010319567+40183-074133FM-15+0048KBLM V0203605N00675007925MN0080475N5-00175-00835101545ADDAU110030015AW1715GA1075+007925999GA2085+009455999GD13991+0079259GD24991+0094559GE19AGL   +99999+99999GF199999999999007921999999MA1101525100955MW1715OC101085REMMET12101/03/22 14:56:02 METAR KBLM 031956Z 36013G21KT 5SM -SN BKN026 OVC031 M02/M08 A2998 RMK AO2 SLP154 T10171083 FZRANO PNO $EQDR01   PNO7AAP062
0358724084547602022010320147+40183-074133FM-15+0048KBLM V0203605N01035007325MN0040235V5-00205-00805999999ADDAU110030015AW1715GA1025+003055999GA2045+004275999GA3085+007325999GD11991+0030559GD22991+0042759GD34991+0073259GE19AGL   +99999+99999GF199999999999003051999999MA1101565100985MW1715OC101395OD149901391340REMMET14501/03/22 15:14:02 METAR KBLM 032014Z 36020G27KT 2 1/2SM -SN FEW010 SCT014 OVC024 M02/M08 A2999 RMK AO2 PK WND 34027/2012 VIS 1 1/2V5 FZRANO PNO $
0342724084547602022010320267+40183-074133FM-15+0048KBLM V0203405N00625007015MN0112655N5-00205-00705999999ADDAU110030015AW1715GA1025+003665999GA2045+005495999GA3085+007015999GD11991+0036659GD22991+0054959GD34991+0070159GE19AGL   +99999+99999GF199999999999003661999999MA1101595101015MW1715OC100985OD149901391340REMMET12901/03/22 15:26:02 METAR KBLM 032026Z 34012G19KT 7SM -SN FEW012 SCT018 OVC023 M02/M07 A3000 RMK AO2 PK WND 34027/2012 FZRANO PNO $
0331724084547602022010320447+40183-074133FM-15+0048KBLM V0203405N00935010365MN0080475N5-00205-00805999999ADDAU110030015AW1715GA1025+005185999GA2045+007015999GA3085+010365999GD11991+0051859GD22991+0070159GD34991+0103659GE19AGL   +99999+99999GF199999999999005181999999MA1101565100985MW1715OD149901391340REMMET12601/03/22 15:44:02 METAR KBLM 032044Z 34018KT 5SM -SN FEW017 SCT023 OVC034 M02/M08 A2999 RMK AO2 PK WND 34027/2012 FZRANO PNO $
0366724084547602022010320567+40183-074133FM-15+0048KBLM V0203505N01035007925MN0112655N5-00225-00945101605ADDAU110030015AW1715GA1075+007925999GA2085+010365999GD13991+0079259GD24991+0103659GE19AGL   +99999+99999GF199999999999007921999999MA1101595101015MD1390079+9999MW1715OC101395OD149901391350REMMET15101/03/22 15:56:02 METAR KBLM 032056Z 35020G27KT 7SM -SN BKN026 OVC034 M02/M09 A3000 RMK AO2 PK WND 35027/2053 SLP160 6//// T10221094 53007 FZRANO PNO $EQDR01   PNO7AAP062
0322724084547602022010321327+40183-074133FM-15+0048KBLM V0203305N00885015245MN0160935N5-00205-01005999999ADDGA1025+006105999GA2045+007625999GA3085+015245999GD11991+0061059GD22991+0076259GD34991+0152459GE19AGL   +99999+99999GF199999999999006101999999MA1101695101125OC101185OD149901331350REMMET13201/03/22 16:32:02 METAR KBLM 032132Z 33017G23KT 10SM FEW020 SCT025 OVC050 M02/M10 A3003 RMK AO2 PK WND 35026/2103 SNE18 FZRANO PNO $
0320724084547602022010321567+40183-074133FM-15+0048KBLM V0203405N00675030485MN0160935N5-00175-01115101795ADDGA1045+015245999GA2085+030485999GD12991+0152459GD24991+0304859GE19AGL   +99999+99999GF199999999999015241999999MA1101765101185OC101135OD149901331350REMMET14201/03/22 16:56:02 METAR KBLM 032156Z 34013G22KT 10SM SCT050 OVC100 M02/M11 A3005 RMK AO2 PK WND 35026/2103 SNE18 SLP179 T10171111 FZRANO PNO $EQDR01   PNO7AAP062
0260724084547602022010322567+40183-074133FM-15+0048KBLM V0203405N007752200059N0160935N5-00175-01225101905ADDGA1025+036585999GD11991+0365859GE19AGL   +99999+99999GF102995999999036581999999MA1101905101325OC101085REMMET11101/03/22 17:56:02 METAR KBLM 032256Z 34015G21KT 10SM FEW120 M02/M12 A3009 RMK AO2 SLP190 T10171122 FZRANO PNO $EQDR01   PNO7AAP062D01      0ADE726
0283724084547602022010323567+40183-074133FM-15+0048KBLM V0203505N008852200059N0160935N5-00225-01335102045ADDGA1005+999999999GD10991+9999999GF100991999999999999999999KA1060M-00171KA2060N-00221MA1102035101455MD1190439+9999OC101295REMMET13201/03/22 18:56:02 METAR KBLM 032356Z 35017G25KT 10SM CLR M02/M13 A3013 RMK AO2 SLP204 6//// T10221133 11017 21022 51043 FZRANO PNO $EQDR01   PNO7AAP062
0208724084547602022010400567+40183-074133FM-15+0048KBLM V0203205N005152200059N0160935N5-00285-01065102145ADDGA1005+999999999GD10991+9999999GF100991999999999999999999MA1102135101555REMMET10501/03/22 19:56:01 METAR KBLM 040056Z 32010KT 10SM CLR M03/M11 A3016 RMK AO2 SLP214 T10281106 FZRANO PNO $EQDR01   PNO7AAP062
0208724084547602022010401567+40183-074133FM-15+0048KBLM V0203305N008852200059N0160935N5-00335-01065102235ADDGA1005+999999999GD10991+9999999GF100991999999999999999999MA1102205101625REMMET10501/03/22 20:56:01 METAR KBLM 040156Z 33017KT 10SM CLR M03/M11 A3018 RMK AO2 SLP223 T10331106 FZRANO PNO $EQDR01   PNO7AAP062
0234724084547602022010402567+40183-074133FM-15+0048KBLM V0203305N006252200059N0160935N5-00395-01065102315ADDGA1005+999999999GD10991+9999999GF100991999999999999999999MA1102305101725MD1190279+9999REMMET11701/03/22 21:56:01 METAR KBLM 040256Z 33012KT 10SM CLR M04/M11 A3021 RMK AO2 SLP231 6//// T10391106 51027 FZRANO PNO $EQDR01   PNO7AAP062
0208724084547602022010403567+40183-074133FM-15+0048KBLM V0203205N004652200059N0160935N5-00445-01115102385ADDGA1005+999999999GD10991+9999999GF100991999999999999999999MA1102375101795REMMET10501/03/22 22:56:02 METAR KBLM 040356Z 32009KT 10SM CLR M04/M11 A3023 RMK AO2 SLP238 T10441111 FZRANO PNO $EQDR01   PNO7AAP062
0244724084547602022010404567+40183-074133FM-15+0048KBLM V0203205N006252200059N0160935N5-00445-01225102465ADDGA1005+999999999GD10991+9999999GF100991999999999999999999KA1240M+00281KA2240N-00441MA1102445101865REMMET11501/03/22 23:56:02 METAR KBLM 040456Z 32012KT 10SM CLR M04/M12 A3025 RMK AO2 SLP246 T10441122 400281044 FZRANO PNO $EQDR01   PNO7AAP062
001572408454760202201040459O+40183-074133SOD  +0048KBLM V020999999999999999999999999999+99999+99999999999ADDAT1AU18SN  5
0272724084547602022010405567+40183-074133FM-15+0048KBLM V0203105N006752200059N0160935N5-00565-01225102545ADDGA1005+999999999GD10991+9999999GF100991999999999999999999KA1060M-00221KA2060N-00561MA1102515101925MD1390239+9999REMMET12901/04/22 00:56:02 METAR KBLM 040556Z 31013KT 10SM CLR M06/M12 A3027 RMK AO2 SLP254 6//// T10561122 11022 21056 53023 FZRANO PNO $EQDR01   PNO7AAP062
0208724084547602022010406567+40183-074133FM-15+0048KBLM V0203005N005152200059N0160935N5-00565-01335102695ADDGA1005+999999999GD10991+9999999GF100991999999999999999999MA1102685102095REMMET10501/04/22 01:56:02 METAR KBLM 040656Z 30010KT 10SM CLR M06/M13 A3032 RMK AO2 SLP269 T10561133 FZRANO PNO $EQDR01   PNO7AAP062
0215724084547602022010407567+40183-074133FM-15+0048KBLM V0202905N004652200059N0160935N5-00615-01285102755ADDGA1005+999999999GD10991+9999999GF100991999999999999999999MA1102745102165REMMET11201/04/22 02:56:02 METAR KBLM 040756Z 29009KT 10SM CLR M06/M13 A3034 RMK AO2 PRESRR SLP275 T10611128 FZRANO PNO $EQDR01   PNO7AAP062
0234724084547602022010408567+40183-074133FM-15+0048KBLM V0202905N005752200059N0160935N5-00675-01395102795ADDGA1005+999999999GD10991+9999999GF100991999999999999999999MA1102785102195MD1190249+9999REMMET11701/04/22 03:56:01 METAR KBLM 040856Z 29011KT 10SM CLR M07/M14 A3035 RMK AO2 SLP279 6//// T10671139 51024 FZRANO PNO $EQDR01   PNO7AAP062
0208724084547602022010409567+40183-074133FM-15+0048KBLM V0203105N005752200059N0160935N5-00725-01335102875ADDGA1005+999999999GD10991+9999999GF100991999999999999999999MA1102845102265REMMET10501/04/22 04:56:01 METAR KBLM 040956Z 31011KT 10SM CLR M07/M13 A3037 RMK AO2 SLP287 T10721133 FZRANO PNO $EQDR01   PNO7AAP062
0208724084547602022010410567+40183-074133FM-15+0048KBLM V0203005N004652200059N0160935N5-00725-01285102965ADDGA1005+999999999GD10991+9999999GF100991999999999999999999MA1102915102335REMMET10501/04/22 05:56:01 METAR KBLM 041056Z 30009KT 10SM CLR M07/M13 A3039 RMK AO2 SLP296 T10721128 FZRANO PNO $EQDR01   PNO7AAP062
0289724084547602022010411567+40183-074133FM-15+0048KBLM V0202905N003652200059N0160935N5-00725-01225103065ADDAA124999919GA1005+999999999GD10991+9999999GF100991999999999999999999KA1060M-00501KA2060N-00721MA1103015102435MD1390269+9999REMMET13501/04/22 06:56:01 METAR KBLM 041156Z 29007KT 10SM CLR M07/M12 A3042 RMK AO2 SLP306 6//// 7//// T10721122 11050 21072 53026 FZRANO PNO $EQDR01   PNO7AAP062
0208724084547602022010412567+40183-074133FM-15+0048KBLM V0203105N004652200059N0160935N5-00725-01175103105ADDGA1005+999999999GD10991+9999999GF100991999999999999999999MA1103085102505REMMET10501/04/22 07:56:01 METAR KBLM 041256Z 31009KT 10SM CLR M07/M12 A3044 RMK AO2 SLP310 T10721117 FZRANO PNO $EQDR01   PNO7AAP062
0208724084547602022010413567+40183-074133FM-15+0048KBLM V0203105N003652200059N0160935N5-00565-01175103185ADDGA1005+999999999GD10991+9999999GF100991999999999999999999MA1103155102575REMMET10501/04/22 08:56:01 METAR KBLM 041356Z 31007KT 10SM CLR M06/M12 A3046 RMK AO2 SLP318 T10561117 FZRANO PNO $EQDR01   PNO7AAP062
0234724084547602022010414567+40183-074133FM-15+0048KBLM V0203605N003652200059N0160935N5-00395-01115103185ADDGA1005+999999999GD10991+9999999GF100991999999999999999999MA1103155102575MD1190149+9999REMMET11701/04/22 09:56:01 METAR KBLM 041456Z 36007KT 10SM CLR M04/M11 A3046 RMK AO2 SLP318 6//// T10391111 51014 FZRANO PNO $EQDR01   PNO7AAP062
0208724084547602022010415567+40183-074133FM-15+0048KBLM V0202805N002152200059N0160935N5-00285-01115103125ADDGA1005+999999999GD10991+9999999GF100991999999999999999999MA1103125102535REMMET10501/04/22 10:56:01 METAR KBLM 041556Z 28004KT 10SM CLR M03/M11 A3045 RMK AO2 SLP312 T10281111 FZRANO PNO $EQDR01   PNO7AAP062
0208724084547602022010416567+40183-074133FM-15+0048KBLM V0209999V001552200059N0160935N5-00065-01115103025ADDGA1005+999999999GD10991+9999999GF100991999999999999999999MA1103015102435REMMET10501/04/22 11:56:01 METAR KBLM 041656Z VRB03KT 10SM CLR M01/M11 A3042 RMK AO2 SLP302 T10061111 FZRANO PNO $EQDR01   PNO7AAP062
0272724084547602022010417567+40183-074133FM-15+0048KBLM V0209999C000052200059N0160935N5-00065-01175102955ADDGA1005+999999999GD10991+9999999GF100991999999999999999999KA1060M+00061KA2060N-00781MA1102915102335MD1890239+9999REMMET12901/04/22 12:56:01 METAR KBLM 041756Z 00000KT 10SM CLR M01/M12 A3039 RMK AO2 SLP295 6//// T10061117 10006 21078 58023 FZRANO PNO $EQDR01   PNO7AAP062
0207724084547602022010418567+40183-074133FM-15+0048KBLM V0202005N003152200059N0160935N5+00005-01225102915ADDGA1005+999999999GD10991+9999999GF100991999999999999999999MA1102915102335REMMET10401/04/22 13:56:01 METAR KBLM 041856Z 20006KT 10SM CLR 00/M12 A3039 RMK AO2 SLP291 T00001122 FZRANO PNO $EQDR01   PNO7AAP062
0207724084547602022010419567+40183-074133FM-15+0048KBLM V0209999V001552200059N0160935N5+00115-01285102885ADDGA1005+999999999GD10991+9999999GF100991999999999999999999MA1102885102305REMMET10401/04/22 14:56:01 METAR KBLM 041956Z VRB03KT 10SM CLR 01/M13 A3038 RMK AO2 SLP288 T00111128 FZRANO PNO $EQDR01   PNO7AAP062
0233724084547602022010420567+40183-074133FM-15+0048KBLM V0202005N002652200059N0160935N5+00115-01285102905ADDGA1005+999999999GD10991+9999999GF100991999999999999999999MA1102885102305MD1590059+9999REMMET11601/04/22 15:56:01 METAR KBLM 042056Z 20005KT 10SM CLR 01/M13 A3038 RMK AO2 SLP290 6//// T00111128 55005 FZRANO PNO $EQDR01   PNO7AAP062
0208724084547602022010421567+40183-074133FM-15+0048KBLM V0201605N001552200059N0160935N5-00115-00785102935ADDGA1005+999999999GD10991+9999999GF100991999999999999999999MA1102915102335REMMET10501/04/22 16:56:01 METAR KBLM 042156Z 16003KT 10SM CLR M01/M08 A3039 RMK AO2 SLP293 T10111078 FZRANO PNO $EQDR01   PNO7AAP062
0208724084547602022010422567+40183-074133FM-15+0048KBLM V0201905N002652200059N0160935N5-00175-00725102955ADDGA1005+999999999GD10991+9999999GF100991999999999999999999MA1102915102335REMMET10501/04/22 17:56:01 METAR KBLM 042256Z 19005KT 10SM CLR M02/M07 A3039 RMK AO2 SLP295 T10171072 FZRANO PNO $EQDR01   PNO7AAP062
0272724084547602022010423567+40183-074133FM-15+0048KBLM V0201805N002652200059N0160935N5-00225-00615102935ADDGA1005+999999999GD10991+9999999GF100991999999999999999999KA1060M+00111KA2060N-00221MA1102915102335MD1090039+9999REMMET12901/04/22 18:56:01 METAR KBLM 042356Z 18005KT 10SM CLR M02/M06 A3039 RMK AO2 SLP293 6//// T10221061 10011 21022 50003 FZRANO PNO $EQDR01   PNO7AAP062
0208724084547602022010500567+40183-074133FM-15+0048KBLM V0201905N002152200059N0160935N5-00225-00615102925ADDGA1005+999999999GD10991+9999999GF100991999999999999999999MA1102885102305REMMET10501/04/22 19:56:01 METAR KBLM 050056Z 19004KT 10SM CLR M02/M06 A3038 RMK AO2 SLP292 T10221061 FZRANO PNO $EQDR01   PNO7AAP062
0208724084547602022010501567+40183-074133FM-15+0048KBLM V0209999V002652200059N0160935N5-00285-00565102855ADDGA1005+999999999GD10991+9999999GF100991999999999999999999MA1102845102265REMMET10501/04/22 20:56:01 METAR KBLM 050156Z VRB05KT 10SM CLR M03/M06 A3037 RMK AO2 SLP285 T10281056 FZRANO PNO $EQDR01   PNO7AAP062
0234724084547602022010502567+40183-074133FM-15+0048KBLM V0201905N001552200059N0160935N5-00335-00615102795ADDGA1005+999999999GD10991+9999999GF100991999999999999999999MA1102785102195MD1890149+9999REMMET11701/04/22 21:56:01 METAR KBLM 050256Z 19003KT 10SM CLR M03/M06 A3035 RMK AO2 SLP279 6//// T10331061 58014 FZRANO PNO $EQDR01   PNO7AAP062
0208724084547602022010503567+40183-074133FM-15+0048KBLM V0209999C000052200059N0160935N5-00395-00615102735ADDGA1005+999999999GD10991+9999999GF100991999999999999999999MA1102715102135REMMET10501/04/22 22:56:02 METAR KBLM 050356Z 00000KT 10SM CLR M04/M06 A3033 RMK AO2 SLP273 T10391061 FZRANO PNO $EQDR01   PNO7AAP062
0244724084547602022010504567+40183-074133FM-15+0048KBLM V0202205N001552200059N0160935N5-00445-00675102695ADDGA1005+999999999GD10991+9999999GF100991999999999999999999KA1240M+00111KA2240N-00781MA1102685102095REMMET11501/04/22 23:56:02 METAR KBLM 050456Z 22003KT 10SM CLR M04/M07 A3032 RMK AO2 SLP269 T10441067 400111078 FZRANO PNO $EQDR01   PNO7AAP062
0272724084547602022010505567+40183-074133FM-15+0048KBLM V0201705N001552200059N0160935N5-00445-00675102535ADDGA1005+999999999GD10991+9999999GF100991999999999999999999KA1060M-00171KA2060N-00441MA1102515101925MD1890259+9999REMMET12901/05/22 00:56:02 METAR KBLM 050556Z 17003KT 10SM CLR M04/M07 A3027 RMK AO2 SLP253 6//// T10441067 11017 21044 58025 FZRANO PNO $EQDR01   PNO7AAP062
0208724084547602022010506567+40183-074133FM-15+0048KBLM V0209999C000052200059N0160935N5-00505-00675102465ADDGA1005+999999999GD10991+9999999GF100991999999999999999999MA1102445101865REMMET10501/05/22 01:56:02 METAR KBLM 050656Z 00000KT 10SM CLR M05/M07 A3025 RMK AO2 SLP246 T10501067 FZRANO PNO $EQDR01   PNO7AAP062
0208724084547602022010507567+40183-074133FM-15+0048KBLM V0202905N001552200059N0160935N5-00565-00675102385ADDGA1005+999999999GD10991+9999999GF100991999999999999999999MA1102375101795REMMET10501/05/22 02:56:02 METAR KBLM 050756Z 29003KT 10SM CLR M06/M07 A3023 RMK AO2 SLP238 T10561067 FZRANO PNO $EQDR01   PNO7AAP062
0259724084547602022010508567+40183-074133FM-15+0048KBLM V0209999C00005021345MN0160935N5-00335-00445102255ADDGA1085+021345999GD14991+0213459GE19AGL   +99999+99999GF199999999999021341999999MA1102245101665MD1890289+9999REMMET12001/05/22 03:56:02 METAR KBLM 050856Z 00000KT 10SM OVC070 M03/M04 A3019 RMK AO2 SLP225 6//// T10331044 58028 FZRANO PNO $EQDR01   PNO7AAP062
0235724084547602022010509287+40183-074133FM-15+0048KBLM V0203005N00215005185MN0160935N5-00205-00405999999ADDGA1075+005185999GA2085+021345999GD13991+0051859GD24991+0213459GE19AGL   +99999+99999GF199999999999005181999999MA1102135101555REMMET09801/05/22 04:28:02 METAR KBLM 050928Z 30004KT 10SM BKN017 OVC070 M02/M04 A3016 RMK AO2 FZRANO PNO $
0233724084547602022010509567+40183-074133FM-15+0048KBLM V0203005N00155003665MN0160935N5-00175-00395102085ADDGA1085+003665999GD14991+0036659GE19AGL   +99999+99999GF199999999999003661999999MA1102075101495REMMET10801/05/22 04:56:02 METAR KBLM 050956Z 30003KT 10SM OVC012 M02/M04 A3014 RMK AO2 SLP208 T10171039 FZRANO PNO $EQDR01   PNO7AAP062
0265724084547602022010510567+40183-074133FM-15+0048KBLM V0202805N00265003665MN0160935N5-00115-00335101985ADDAU120090015AW1401AW2415GA1085+003665999GD14991+0036659GE19AGL   +99999+99999GF199999999999003661999999MA1101965101395REMMET11701/05/22 05:56:02 METAR KBLM 051056Z 28005KT 10SM UP OVC012 M01/M03 A3011 RMK AO2 UPB38 SLP198 T10111033 FZRANO PNO $EQDR01   PNO7AAP062
0355724084547602022010511567+40183-074133FM-15+0048KBLM V0202705N00215003665MN0160935N5-00065-00175101905ADDAA124999919AU120090015AW1401AW2415GA1085+003665999GD14991+0036659GE19AGL   +99999+99999GF199999999999003661999999KA1060M-00061KA2060N-00561MA1101905101325MD1690359+9999REMMET15601/05/22 06:56:02 METAR KBLM 051156Z 27004KT 10SM UP OVC012 M01/M02 A3009 RMK AO2 SNB09E21B34E43 SLP190 6//// 7//// T10061017 11006 21056 56035 FZRANO PNO $EQDR01   PNO7AAP062
0284724084547602022010512567+40183-074133FM-15+0048KBLM V0201505N00155003055MN0128755N5+00005+00005101805ADDAU120090015AW1401AW2415GA1075+003055999GA2085+004275999GD13991+0030559GD24991+0042759GE19AGL   +99999+99999GF199999999999003051999999MA1101795101225REMMET12401/05/22 07:56:02 METAR KBLM 051256Z 15003KT 8SM UP BKN010 OVC014 00/00 A3006 RMK AO2 SNB01E11B36E47 SLP180 T00000000 FZRANO
0300724084547602022010513127+40183-074133FM-15+0048KBLM V0209999C00005004885MN0064375N5+00005+00005999999ADDAA101000021AU120090015AU200001015AW1105AW2401AW3415GA1045+003055999GA2085+004885999GD12991+0030559GD24991+0048859GE19AGL   +99999+99999GF199999999999003051999999MA1101765101185REMMET11201/05/22 08:12:02 METAR KBLM 051312Z 00000KT 4SM UP BR SCT010 OVC016 00/00 A3005 RMK AO2 SNB1259E09 P0000 FZRANO
0241724084547602022010513307+40183-074133FM-15+0048KBLM V0209999C00005004275MN0096565N5+00105+00105999999ADDAA101000021AU100001015AW1105GA1085+004275999GD14991+0042759GE19AGL   +99999+99999GF199999999999004271999999MA1101735101155REMMET10701/05/22 08:30:02 METAR KBLM 051330Z 00000KT 6SM BR OVC014 01/01 A3004 RMK AO2 UPE22SNB1259E09 P0000 FZRANO
0290724084547602022010513567+40183-074133FM-15+0048KBLM V0202605N00415003665MN0096565N5+00065+00065101775ADDAA101000021AU110020015AU200001015AW1105AW2615GA1085+003665999GD14991+0036659GE19AGL   +99999+99999GF199999999999003661999999MA1101765101185MW1615REMMET13301/05/22 08:56:02 METAR KBLM 051356Z 26008KT 6SM -RA BR OVC012 01/01 A3005 RMK AO2 UPE22RAB56SNB1259E09 SLP177 P0000 T00060006 FZRANO
0269724084547602022010514297+40183-074133FM-15+0048KBLM V0202005N00315003055MN0096565N5+00105+00105999999ADDAA101000021AU100001015AW1105GA1045+001525999GA2085+003055999GD12991+0015259GD24991+0030559GE19AGL   +99999+99999GF199999999999001521999999MA1101695101125REMMET10401/05/22 09:29:02 METAR KBLM 051429Z 20006KT 6SM BR SCT005 OVC010 01/01 A3003 RMK AO2 RAE11 P0000 FZRANO
0269724084547602022010514387+40183-074133FM-15+0048KBLM V0201905N00265001525MN0048285N5+00205+00205999999ADDAA101000021AU100001015AW1105GA1075+001525999GA2085+003055999GD13991+0015259GD24991+0030559GE19AGL   +99999+99999GF199999999999001521999999MA1101665101085REMMET10401/05/22 09:38:02 METAR KBLM 051438Z 19005KT 3SM BR BKN005 OVC010 02/02 A3002 RMK AO2 RAE11 P0000 FZRANO
0273724084547602022010514437+40183-074133FM-15+0048KBLM V0201805N00215001525MN0028165N5+00205+00205999999ADDAA101000021AU100001015AW1105GA1075+001525999GA2085+003055999GD13991+0015259GD24991+0030559GE19AGL   +99999+99999GF199999999999001521999999MA1101665101085REMMET10801/05/22 09:43:02 METAR KBLM 051443Z 18004KT 1 3/4SM BR BKN005 OVC010 02/02 A3002 RMK AO2 RAE11 P0000 FZRANO
0200724084547602022010514487+40183-074133FM-15+0048KBLM V0201805N002150009119N0016095N5+00201+00201999999ADDAA101000021AW1101GD14991+0009119GE19AGL   +99999+99999GF199999999999000911999999MA1101631999999REMMET05801/05/22 09:48:02 METAR KBLM 051448Z 18004KT 1SM RVRNO RMKEQDR01      7SKY009R02      7GAS009
0216724084547602022010514567+40183-074133FM-15+0048KBLM V0201705N002650009119N0008055N5+00221+00221101601ADDAA101000021AW1301GD14991+0009119GE19AGL   +99999+99999GF199999999999000911999999MA1101591999999MD1810291+9999REMMET06001/05/22 09:56:02 METAR KBLM 051456Z 17005KT 1/2SM RVRNO RMKEQDR01      7SKY009R02      7GAS009
0208724084547602022010515267+40183-074133FM-15+0048KBLM V0202105N002150009119N0004025N5+00201+00201999999ADDAA101000021AW1301AW2611GD14991+0009119GE19AGL   +99999+99999GF199999999999000911999999MA1101561999999REMMET06001/05/22 10:26:02 METAR KBLM 051526Z 21004KT 1/4SM RVRNO RMKEQDR01      7SKY009R02      7GAS009
0208724084547602022010515357+40183-074133FM-15+0048KBLM V0202005N002150009119N0008055N5+00301+00301999999ADDAA101000021AW1301AW2611GD14991+0009119GE19AGL   +99999+99999GF199999999999000911999999MA1101521999999REMMET06001/05/22 10:35:02 METAR KBLM 051535Z 20004KT 1/2SM RVRNO RMKEQDR01      7SKY009R02      7GAS009
0208724084547602022010515477+40183-074133FM-15+0048KBLM V0202205N003150009119N0012075N5+00301+00301999999ADDAA101000231AW1101AW2611GD14991+0009119GE19AGL   +99999+99999GF199999999999000911999999MA1101521999999REMMET06001/05/22 10:47:02 METAR KBLM 051547Z 22006KT 3/4SM RVRNO RMKEQDR01      7SKY009R02      7GAS009
0208724084547602022010515567+40183-074133FM-15+0048KBLM V0202305N002650009119N0012075N5+00281+00281101521ADDAA101000231AW1101AW2611GD14991+0009119GE19AGL   +99999+99999GF199999999999000911999999MA1101491999999REMMET06001/05/22 10:56:02 METAR KBLM 051556Z 23005KT 3/4SM RVRNO RMKEQDR01      7SKY009R02      7GAS009
0200724084547602022010516047+40183-074133FM-15+0048KBLM V0202205N002650009119N0016095N5+00301+00301999999ADDAA101000021AW1101GD14991+0009119GE19AGL   +99999+99999GF199999999999000911999999MA1101491999999REMMET05801/05/22 11:04:02 METAR KBLM 051604Z 22005KT 1SM RVRNO RMKEQDR01      7SKY009R02      7GAS009
0202724084547602022010516217+40183-074133FM-15+0048KBLM V0202105N003150009119N0012075N5+00301+00301999999ADDAA101000021AW1101GD14991+0009119GE19AGL   +99999+99999GF199999999999000911999999MA1101421999999REMMET06001/05/22 11:21:02 METAR KBLM 051621Z 21006KT 3/4SM RVRNO RMKEQDR01      7SKY009R02      7GAS009
0206724084547602022010516427+40183-074133FM-15+0048KBLM V0202305N003150009119N0016095N5+00301+00301999999ADDAA101000021AW1101AW2611GD14991+0009119GE19AGL   +99999+99999GF199999999999000911999999MA1101391999999REMMET05801/05/22 11:42:02 METAR KBLM 051642Z 23006KT 1SM RVRNO RMKEQDR01      7SKY009R02      7GAS009
0251724084547602022010516567+40183-074133FM-15+0048KBLM V0202105N00215000915MN0020125N5+00335+00335101355ADDAA101000021AU100001015AW1105GA1085+000915999GD14991+0009159GE19AGL   +99999+99999GF199999999999000911999999MA1101325100755REMMET11701/05/22 11:56:02 METAR KBLM 051656Z 21004KT 1 1/4SM BR OVC003 03/03 A2992 RMK AO2 RAE01B27E53 SLP135 P0000 T00330033
0251724084547602022010517157+40183-074133FM-15+0048KBLM V0202005N00365000915MN0048285N5+00405+00405999999ADDAA101000021AU110020015AU200001015AW1105AW2615GA1085+000915999GD14991+0009159GE19AGL   +99999+99999GF199999999999000911999999MA1101295100715MW1615REMMET09401/05/22 12:15:02 METAR KBLM 051715Z 20007KT 3SM -RA BR OVC003 04/04 A2991 RMK AO2 RAB03 P0000
0312724084547602022010517567+40183-074133FM-15+0048KBLM V0202105N00365000915MN0040235N5+00505+00505101205ADDAA101000395AU100001015AW1105GA1085+000915999GD14991+0009159GE19AGL   +99999+99999GF199999999999000911999999KA1060M+00501KA2060N-00061MA1101195100615MD1890409+9999REMMET13801/05/22 12:56:02 METAR KBLM 051756Z 21007KT 2 1/2SM BR OVC003 05/05 A2988 RMK AO2 RAB03E23 SLP120 P0001 6//// T00500050 10050 21006 58040
0205724084547602022010518137+40183-074133FM-15+0048KBLM V0201905N00415000915MN0028165N5+00505+00505999999ADDAU100001015AW1105GA1085+000915999GD14991+0009159GE19AGL   +99999+99999GF199999999999000911999999MA1101125100545REMMET08201/05/22 13:13:02 METAR KBLM 051813Z 19008KT 1 3/4SM BR OVC003 05/05 A2986 RMK AO2
0223724084547602022010518247+40183-074133FM-15+0048KBLM V0201805N00415000915MN0040235N5+00605+00605999999ADDAU100001015AW1105GA1085+000915999GD14991+0009159GE19AGL   +99999+99999GF199999999999000911999999MA1101055100485OC100725REMMET09201/05/22 13:24:02 METAR KBLM 051824Z 18008G14KT 2 1/2SM BR OVC003 06/06 A2984 RMK AO2 PRESFR
0201724084547602022010518317+40183-074133FM-15+0048KBLM V0202005N00365000915MN0080475N5+00605+00605999999ADDAU100001015AW1105GA1085+000915999GD14991+0009159GE19AGL   +99999+99999GF199999999999000911999999MA1101055100485REMMET07801/05/22 13:31:02 METAR KBLM 051831Z 20007KT 5SM BR OVC003 06/06 A2984 RMK AO2
0210724084547602022010518567+40183-074133FM-15+0048KBLM V0202105N00575000915MN0160935N5+00675+00675101035ADDGA1085+000915999GD14991+0009159GE19AGL   +99999+99999GF199999999999000911999999MA1101025100445OC100885REMMET09601/05/22 13:56:02 METAR KBLM 051856Z 21011G17KT 10SM OVC003 07/07 A2983 RMK AO2 SLP103 T00670067
0208724084547602022010519457+40183-074133FM-15+0048KBLM V0201905N00575001525MN0160935N5+00805+00805999999ADDAA101000021GA1085+001525999GD14991+0015259GE19AGL   +99999+99999GF199999999999001521999999MA1100915100345REMMET09101/05/22 14:45:02 METAR KBLM 051945Z 19011KT 10SM OVC005 08/08 A2980 RMK AO2 RAB22E34 P0000
0225724084547602022010519567+40183-074133FM-15+0048KBLM V0201905N00465001525MN0160935N5+00835+00835100935ADDAA101000021GA1085+001525999GD14991+0015259GE19AGL   +99999+99999GF199999999999001521999999MA1100915100345REMMET10801/05/22 14:56:02 METAR KBLM 051956Z 19009KT 10SM OVC005 08/08 A2980 RMK AO2 RAB22E34 SLP093 P0000 T00830083
0193724084547602022010520247+40183-074133FM-15+0048KBLM V0202005N00515002135MN0160935N5+00805+00805999999ADDGA1085+002135999GD14991+0021359GE19AGL   +99999+99999GF199999999999002131999999MA1100915100345OC100825REMMET07901/05/22 15:24:02 METAR KBLM 052024Z 20010G16KT 10SM OVC007 08/08 A2980 RMK AO2
0271724084547602022010520567+40183-074133FM-15+0048KBLM V0202005N00465002135MN0160935N5+00835+00835100915ADDAA103000021GA1085+002135999GD14991+0021359GE19AGL   +99999+99999GF199999999999002131999999MA1100915100345MD1690289+9999REMMET10501/05/22 15:56:02 METAR KBLM 052056Z 20009KT 10SM OVC007 08/08 A2980 RMK AO2 SLP091 60000 T00830083 56028EQDQ01  00002PRCP03Q02  00008PRCP03
0211724084547602022010521567+40183-074133FM-15+0048KBLM V0202305N00465002135MN0160935N5+00785+00785100895ADDGA1075+002135999GD13991+0021351GE19AGL   +99999+99999GF199999999999002131999999MA1100885100315REMMET10501/05/22 16:56:02 METAR KBLM 052156Z 23009KT 10SM BKN007 08/08 A2979 RMK AO2 CIG 007V012 SLP089 T00780078
0212724084547602022010522277+40183-074133FM-15+0048KBLM V0202205N005152200059N0160935N5+00705+00705999999ADDGA1045+002745999GD12991+0027459GE19AGL   +99999+99999GF104995999999002741999999MA1100855100275OC100725REMMET07901/05/22 17:27:02 METAR KBLM 052227Z 22010G14KT 10SM SCT009 07/07 A2978 RMK AO2EQDD01      0ADE726
0218724084547602022010522567+40183-074133FM-15+0048KBLM V0202105N003152200059N0160935N5+00725+00725100815ADDGA1045+002745999GD12991+0027459GE19AGL   +99999+99999GF104995999999002741999999MA1100815100245REMMET09301/05/22 17:56:02 METAR KBLM 052256Z 21006KT 10SM SCT009 07/07 A2977 RMK AO2 SLP081 T00720072EQDD01      0ADE726
0284724084547602022010523567+40183-074133FM-15+0048KBLM V0202105N003152200059N0160935N5+00615+00615100775ADDAA106000021GA1005+999999999GD10991+9999999GF100991999999999999999999KA1060M+00831KA2060N+00501MA1100755100175MD1890149+9999REMMET11401/05/22 18:56:02 METAR KBLM 052356Z 21006KT 10SM CLR 06/06 A2975 RMK AO2 SLP077 60000 T00610061 10083 20050 58014EQDQ01  00002PRCP06Q02  00008PRCP06
0201724084547602022010600517+40183-074133FM-15+0048KBLM V0202305N004152200059N0160935N5+00605+00605999999ADDGA1025+001225999GD11991+0012259GE19AGL   +99999+99999GF102995999999001221999999MA1100785100215REMMET07601/05/22 19:51:01 METAR KBLM 060051Z 23008KT 10SM FEW004 06/06 A2976 RMK AO2EQDD01      0ADE726
0218724084547602022010600567+40183-074133FM-15+0048KBLM V0202305N004152200059N0160935N5+00615+00615100795ADDGA1025+001225999GD11991+0012259GE19AGL   +99999+99999GF102995999999001221999999MA1100785100215REMMET09301/05/22 19:56:01 METAR KBLM 060056Z 23008KT 10SM FEW004 06/06 A2976 RMK AO2 SLP079 T00610061EQDD01      0ADE726
0182724084547602022010601417+40183-074133FM-15+0048KBLM V0202405N00315001835MN0160935N5+00605+00605999999ADDGA1075+001835999GD13991+0018359GE19AGL   +99999+99999GF199999999999001831999999MA1100755100175REMMET07601/05/22 20:41:01 METAR KBLM 060141Z 24006KT 10SM BKN006 06/06 A2975 RMK AO2
0199724084547602022010601567+40183-074133FM-15+0048KBLM V0202405N00315001835MN0160935N5+00565+00565100755ADDGA1085+001835999GD14991+0018359GE19AGL   +99999+99999GF199999999999001831999999MA1100755100175REMMET09301/05/22 20:56:01 METAR KBLM 060156Z 24006KT 10SM OVC006 06/06 A2975 RMK AO2 SLP075 T00560056
0237724084547602022010602567+40183-074133FM-15+0048KBLM V0202405N003152200059N0144845N5+00505+00505100705ADDGA1045+001835999GD12991+0018359GE19AGL   +99999+99999GF104995999999001831999999MA1100685100105MD1890109+9999REMMET09801/05/22 21:56:01 METAR KBLM 060256Z 24006KT 9SM SCT006 05/05 A2973 RMK AO2 SLP070 T00500050 58010EQDD01      0ADE726
0173724084547602022010603567+40183-074133FM-15+0048KBLM V0202605N003152200059N0144845N5+00445+00445100645ADDGA1005+999999999GD10991+9999999GF100991999999999999999999MA1100645100075REMMET08901/05/22 22:56:01 METAR KBLM 060356Z 26006KT 9SM CLR 04/04 A2972 RMK AO2 SLP064 T00440044
0210724084547602022010604567+40183-074133FM-15+0048KBLM V0202505N003152200059N0160935N5+00445+00445100655ADDGA1005+999999999GD10991+9999999GF100991999999999999999999KA1240M+00831KA2240N-00561MA1100645100075REMMET10001/05/22 23:56:02 METAR KBLM 060456Z 25006KT 10SM CLR 04/04 A2972 RMK AO2 SLP065 T00440044 400831056
005172408454760202201060459O+40183-074133SOD  +0048KBLM V020999999999999999999999999999+99999+99999999999ADDAT1AU16RA  5AT2AU13BR  5AT3AU19UP  5AT4AW01FG  1
0232724084547602022010605567+40183-074133FM-15+0048KBLM V0202305N003152200059N0160935N5+00395+00395100655ADDGA1005+999999999GD10991+9999999GF100991999999999999999999KA1060M+00671KA2060N+00391MA1100645100075MD1690059+9999REMMET10801/06/22 00:56:02 METAR KBLM 060556Z 23006KT 10SM CLR 04/04 A2972 RMK AO2 SLP065 T00390039 10067 20039 56005
0174724084547602022010606567+40183-074133FM-15+0048KBLM V0202405N003152200059N0160935N5+00395+00395100695ADDGA1005+999999999GD10991+9999999GF100991999999999999999999MA1100685100105REMMET09001/06/22 01:56:02 METAR KBLM 060656Z 24006KT 10SM CLR 04/04 A2973 RMK AO2 SLP069 T00390039
0174724084547602022010607567+40183-074133FM-15+0048KBLM V0202405N002652200059N0160935N5+00335+00335100765ADDGA1005+999999999GD10991+9999999GF100991999999999999999999MA1100755100175REMMET09001/06/22 02:56:02 METAR KBLM 060756Z 24005KT 10SM CLR 03/03 A2975 RMK AO2 SLP076 T00330033
0201724084547602022010608567+40183-074133FM-15+0048KBLM V0202405N003152200059N0160935N5+00225+00225100845ADDGA1005+999999999GD10991+9999999GF100991999999999999999999MA1100855100275MD1390209+9999REMMET10301/06/22 03:56:02 METAR KBLM 060856Z 24006KT 10SM CLR 02/02 A2978 RMK AO2 SLP084 T00220022 53020 FZRANO
0180724084547602022010609567+40183-074133FM-15+0048KBLM V0202605N002652200059N0144845N5+00175+00175100955ADDGA1005+999999999GD10991+9999999GF100991999999999999999999MA1100955100375REMMET09601/06/22 04:56:02 METAR KBLM 060956Z 26005KT 9SM CLR 02/02 A2981 RMK AO2 SLP095 T00170017 FZRANO
0181724084547602022010610567+40183-074133FM-15+0048KBLM V0202705N003152200059N0160935N5+00115+00115101035ADDGA1005+999999999GD10991+9999999GF100991999999999999999999MA1101025100445REMMET09701/06/22 05:56:02 METAR KBLM 061056Z 27006KT 10SM CLR 01/01 A2983 RMK AO2 SLP103 T00110011 FZRANO
0257724084547602022010611567+40183-074133FM-15+0048KBLM V0202705N004152200059N0160935N5+00175-00065101145ADDAA124999919GA1005+999999999GD10991+9999999GF100991999999999999999999KA1060M+00391KA2060N+00111MA1101155100585MD1390309+9999REMMET12201/06/22 06:56:02 METAR KBLM 061156Z 27008KT 10SM CLR 02/M01 A2987 RMK AO2 SLP114 7//// T00171006 10039 20011 53030 FZRANO
0182724084547602022010612567+40183-074133FM-15+0048KBLM V0202505N001552200059N0160935N5+00175-00115101275ADDGA1005+999999999GD10991+9999999GF100991999999999999999999MA1101255100685REMMET09801/06/22 07:56:02 METAR KBLM 061256Z 25003KT 10SM CLR 02/M01 A2990 RMK AO2 SLP127 T00171011 FZRANO
0182724084547602022010613567+40183-074133FM-15+0048KBLM V0202505N004652200059N0160935N5+00225-00335101385ADDGA1005+999999999GD10991+9999999GF100991999999999999999999MA1101395100815REMMET09801/06/22 08:56:02 METAR KBLM 061356Z 25009KT 10SM CLR 02/M03 A2994 RMK AO2 SLP138 T00221033 FZRANO
0213724084547602022010614567+40183-074133FM-15+0048KBLM V0202605N004152200059N0160935N5+00225-00505101485ADDGA1005+999999999GD10991+9999999GF100991999999999999999999MA1101465100885MD1190339+9999OC100775REMMET10701/06/22 09:56:02 METAR KBLM 061456Z 26008G15KT 10SM CLR 02/M05 A2996 RMK AO2 SLP148 T00221050 51033 FZRANO
0186724084547602022010615567+40183-074133FM-15+0048KBLM V0202805N006752200059N0160935N5+00335-00675101445ADDGA1005+999999999GD10991+9999999GF100991999999999999999999MA1101425100855OC100935REMMET09401/06/22 10:56:02 METAR KBLM 061556Z 28013G18KT 10SM CLR 03/M07 A2995 RMK AO2 SLP144 T00331067
0204724084547602022010616567+40183-074133FM-15+0048KBLM V0202505N008252200059N0160935N5+00445-00835101395ADDGA1005+999999999GD10991+9999999GF100991999999999999999999MA1101395100815OC101035REMMET11201/06/22 11:56:02 METAR KBLM 061656Z 25016G20KT 10SM CLR 04/M08 A2994 RMK AO2 PK WND 28026/1630 SLP139 T00441083
0233724084547602022010617567+40183-074133FM-15+0048KBLM V0202505N006252200059N0160935N5+00395-00785101335ADDGA1005+999999999GD10991+9999999GF100991999999999999999999KA1060M+00441KA2060N+00111MA1101325100755MD1890149+9999REMMET10901/06/22 12:56:02 METAR KBLM 061756Z 25012KT 10SM CLR 04/M08 A2992 RMK AO2 SLP133 T00391078 10044 20011 58014
0186724084547602022010618567+40183-074133FM-15+0048KBLM V0202805N006752200059N0160935N5+00395-00945101395ADDGA1005+999999999GD10991+9999999GF100991999999999999999999MA1101395100815OC100985REMMET09401/06/22 13:56:02 METAR KBLM 061856Z 28013G19KT 10SM CLR 04/M09 A2994 RMK AO2 SLP139 T00391094
0175724084547602022010619567+40183-074133FM-15+0048KBLM V0202705N003152200059N0160935N5+00335-00895101375ADDGA1005+999999999GD10991+9999999GF100991999999999999999999MA1101355100785REMMET09101/06/22 14:56:02 METAR KBLM 061956Z 27006KT 10SM CLR 03/M09 A2993 RMK AO2 SLP137 T00331089
0195724084547602022010620567+40183-074133FM-15+0048KBLM V0203005N003652200059N0160935N5+00285-00945101385ADDGA1005+999999999GD10991+9999999GF100991999999999999999999MA1101355100785MD1190049+9999REMMET09701/06/22 15:56:02 METAR KBLM 062056Z 30007KT 10SM CLR 03/M09 A2993 RMK AO2 SLP138 T00281094 51004
0182724084547602022010621567+40183-074133FM-15+0048KBLM V0202805N002152200059N0160935N5+00175-00895101495ADDGA1005+999999999GD10991+9999999GF100991999999999999999999MA1101495100915REMMET09801/06/22 16:56:02 METAR KBLM 062156Z 28004KT 10SM CLR 02/M09 A2997 RMK AO2 SLP149 T00171089 FZRANO
0182724084547602022010622567+40183-074133FM-15+0048KBLM V0203105N001552200059N0160935N5+00065-00785101575ADDGA1005+999999999GD10991+9999999GF100991999999999999999999MA1101565100985REMMET09801/06/22 17:56:02 METAR KBLM 062256Z 31003KT 10SM CLR 01/M08 A2999 RMK AO2 SLP157 T00061078 FZRANO
0240724084547602022010623567+40183-074133FM-15+0048KBLM V0202605N001552200059N0160935N5+00065-00895101565ADDGA1005+999999999GD10991+9999999GF100991999999999999999999KA1060M+00391KA2060N+00061MA1101565100985MD1090179+9999REMMET11601/06/22 18:56:02 METAR KBLM 062356Z 26003KT 10SM CLR 01/M09 A2999 RMK AO2 SLP156 T00061089 10039 20006 50017 FZRANO
0189724084547602022010700567+40183-074133FM-15+0048KBLM V0209999C000052200059N0160935N5+00065-00835101445ADDGA1005+999999999GD10991+9999999GF100991999999999999999999MA1101425100855REMMET10501/06/22 19:56:01 METAR KBLM 070056Z 00000KT 10SM CLR 01/M08 A2995 RMK AO2 PRESFR SLP144 T00061083 FZRANO
0226724084547602022010701567+40183-074133FM-15+0048KBLM V0209999C000052200059N0160935N5+00005-00675101395ADDGA1045+036585999GD12991+0365859GE19AGL   +99999+99999GF104995999999036581999999MA1101395100815REMMET10101/06/22 20:56:01 METAR KBLM 070156Z 00000KT 10SM SCT120 00/M07 A2994 RMK AO2 SLP139 T00001067 FZRANOEQDD01      0ADE726
0234724084547602022010702567+40183-074133FM-15+0048KBLM V0203605N00315033535MN0160935N5+00005-00675101285ADDGA1075+033535999GD13991+0335359GE19AGL   +99999+99999GF199999999999033531999999MA1101255100685MD1890289+9999REMMET11401/06/22 21:56:01 METAR KBLM 070256Z 36006KT 10SM BKN110 00/M07 A2990 RMK AO2 PRESFR SLP128 T00001067 58028 FZRANO
0207724084547602022010703567+40183-074133FM-15+0048KBLM V0203305N00265036585MN0160935N5+00005-00785101325ADDGA1075+036585999GD13991+0365859GE19AGL   +99999+99999GF199999999999036581999999MA1101325100755REMMET10101/06/22 22:56:02 METAR KBLM 070356Z 33005KT 10SM BKN120 00/M08 A2992 RMK AO2 SLP132 T00001078 FZRANO
0254724084547602022010704567+40183-074133FM-15+0048KBLM V0200205N00315027435MN0160935N5+00065-00725101035ADDGA1085+027435999GD14991+0274359GE19AGL   +99999+99999GF199999999999027431999999KA1240M+00441KA2240N-00061MA1101025100445OC100725REMMET11401/06/22 23:56:02 METAR KBLM 070456Z 02006G14KT 10SM OVC090 01/M07 A2983 RMK AO2 SLP103 T00061072 400441006 FZRANO
0389724084547602022010705567+40183-074133FM-15+0048KBLM V0200205N00265030485MN0160935N5+00115-00615100985ADDAA101000021AA206000021AU110020015AW1615GA1045+018295999GA2085+030485999GD12991+0182959GD24991+0304859GE19AGL   +99999+99999GF199999999999018291999999KA1060M+00111KA2060N-00061MA1100985100415MD1890299+9999MW1615REMMET14801/07/22 00:56:02 METAR KBLM 070556Z 02005KT 10SM -RA SCT060 OVC100 01/M06 A2982 RMK AO2 RAB50 SLP098 P0000 60000 T00111061 10011 21006 58029 FZRANOEQDQ01  00008PRCP06
0362724084547602022010706567+40183-074133FM-15+0048KBLM V0200405N00575010675MN0040235N5-00065-00115100935ADDAA101000021AU110030015AU200001015AW1105AW2715GA1025+007925999GA2075+010675999GA3085+013115999GD11991+0079259GD23991+0106759GD34991+0131159GE19AGL   +99999+99999GF199999999999007921999999MA1100915100345MW1715REMMET14301/07/22 01:56:02 METAR KBLM 070656Z 04011KT 2 1/2SM -SN BR FEW026 BKN035 OVC043 M01/M01 A2980 RMK AO2 RAE33SNB33 SLP093 P0000 T10061011 FZRANO
0334724084547602022010707127+40183-074133FM-15+0048KBLM V0200405N00365008845MN0028165N5-00105-00105999999ADDAA101000021AU110030015AU200001015AW1105AW2715GA1045+003665999GA2075+008845999GA3085+010975999GD12991+0036659GD23991+0088459GD34991+0109759GE19AGL   +99999+99999GF199999999999003661999999MA1100915100345MW1715REMMET11501/07/22 02:12:02 METAR KBLM 070712Z 04007KT 1 3/4SM -SN BR SCT012 BKN029 OVC036 M01/M01 A2980 RMK AO2 P0000 FZRANO
0334724084547602022010707187+40183-074133FM-15+0048KBLM V0200305N00415003665MN0024145N5-00105-00105999999ADDAA101000021AU110030015AU200001015AW1105AW2715GA1025+002135999GA2075+003665999GA3085+008845999GD11991+0021359GD23991+0036659GD34991+0088459GE19AGL   +99999+99999GF199999999999002131999999MA1100915100345MW1715REMMET11501/07/22 02:18:02 METAR KBLM 070718Z 03008KT 1 1/2SM -SN BR FEW007 BKN012 OVC029 M01/M01 A2980 RMK AO2 P0000 FZRANO
0325724084547602022010707567+40183-074133FM-15+0048KBLM V0200405N00365001835MN0020125N5-00065-00065100795ADDAA101000021AU110030015AU200001015AW1105AW2715GA1075+001835999GA2085+003055999GD13991+0018351GD24991+0030559GE19AGL   +99999+99999GF199999999999001831999999MA1100785100215MW1715REMMET13701/07/22 02:56:02 METAR KBLM 070756Z 04007KT 1 1/4SM -SN BR BKN006 OVC010 M01/M01 A2976 RMK AO2 CIG 004V009 SLP079 P0000 T10061006 FZRANO
0296724084547602022010708227+40183-074133FM-15+0048KBLM V0200505N00465001225MN0028165N5-00105-00105999999ADDAA101000021AU110030015AU200001015AW1105AW2715GA1075+001225999GA2085+002445999GD13991+0012259GD24991+0024459GE19AGL   +99999+99999GF199999999999001221999999MA1100685100105MW1715REMMET10801/07/22 03:22:02 METAR KBLM 070822Z 05009KT 1 3/4SM -SN BR BKN004 OVC008 M01/M01 A2973 RMK AO2 P0000 FZRANO
0329724084547602022010708567+40183-074133FM-15+0048KBLM V0200405N00365001225MN0020125N5+00005+00005100665ADDAA101000021AA203000021AU110030015AU200001015AW1105AW2715GA1085+001225999GD14991+0012259GE19AGL   +99999+99999GF199999999999001221999999MA1100645100075MD1890339+9999MW1715REMMET12801/07/22 03:56:02 METAR KBLM 070856Z 04007KT 1 1/4SM -SN BR OVC004 00/00 A2972 RMK AO2 SLP066 P0000 60000 T00000000 58033 FZRANOEQDQ01  00008PRCP03
0206724084547602022010709167+40183-074133FM-15+0048KBLM V0200205N003150012219N0016095N5+00001+00001999999ADDAA101000021AW1101AW2711GD14991+0012219GE19AGL   +99999+99999GF199999999999001221999999MA1100611999999REMMET05801/07/22 04:16:02 METAR KBLM 070916Z 02006KT 1SM RVRNO RMKEQDR01      7SKY009R02      7GAS009
0208724084547602022010709257+40183-074133FM-15+0048KBLM V0203505N003150009119N0012075N5+00001+00001999999ADDAA101000021AW1101AW2711GD14991+0012211GE19AGL   +99999+99999GF199999999999001221999999MA1100611999999REMMET06001/07/22 04:25:02 METAR KBLM 070925Z 35006KT 3/4SM RVRNO RMKEQDR01      7SKY009R02      7GAS009
0208724084547602022010709327+40183-074133FM-15+0048KBLM V0203405N003150009119N0008055N5+00001+00001999999ADDAA101000021AW1301AW2721GD14991+0012211GE19AGL   +99999+99999GF199999999999001221999999MA1100641999999REMMET06001/07/22 04:32:02 METAR KBLM 070932Z 34006KT 1/2SM RVRNO RMKEQDR01      7SKY009R02      7GAS009
0206724084547602022010709437+40183-074133FM-15+0048KBLM V0203205N004650012219N0016095N5+00001+00001999999ADDAA101000021AW1101AW2711GD14991+0012219GE19AGL   +99999+99999GF199999999999001221999999MA1100641999999REMMET05801/07/22 04:43:02 METAR KBLM 070943Z 32009KT 1SM RVRNO RMKEQDR01      7SKY009R02      7GAS009
0258724084547602022010709527+40183-074133FM-15+0048KBLM V0203005N00625001225MN0020125N5-00105-00105999999ADDAA101000021AU110030015AU200001015AW1105AW2715GA1085+001225999GD14991+0012259GE19AGL   +99999+99999GF199999999999001221999999MA1100685100105MW1715REMMET10101/07/22 04:52:02 METAR KBLM 070952Z 30012KT 1 1/4SM -SN BR OVC004 M01/M01 A2973 RMK AO2 P0000 FZRANO
0275724084547602022010709567+40183-074133FM-15+0048KBLM V0203005N00515000615MN0020125N5-00065-00065100705ADDAA101000021AU110030015AU200001015AW1105AW2715GA1085+000615999GD14991+0006159GE19AGL   +99999+99999GF199999999999000611999999MA1100685100105MW1715REMMET11801/07/22 04:56:02 METAR KBLM 070956Z 30010KT 1 1/4SM -SN BR OVC002 M01/M01 A2973 RMK AO2 SLP070 P0000 T10061006 FZRANO
0208724084547602022010710177+40183-074133FM-15+0048KBLM V0203105N008250006119N0012075N5-00101-00101999999ADDAA101000021AW1101AW2711GD14991+0006119GE19AGL   +99999+99999GF199999999999000611999999MA1100741999999REMMET06001/07/22 05:17:02 METAR KBLM 071017Z 31016KT 3/4SM RVRNO RMKEQDR01      7SKY009R02      7GAS009
0265724084547602022010710277+40183-074133FM-15+0048KBLM V0203005N00575000615MN0020125N5-00105-00105999999ADDAA101000021AU110030015AU200001015AW1105AW2715GA1085+000615999GD14991+0006159GE19AGL   +99999+99999GF199999999999000611999999MA1100815100245MW1715REMMET10801/07/22 05:27:02 METAR KBLM 071027Z 30011KT 1 1/4SM -SN BR OVC002 M01/M01 A2977 RMK AO2 PRESRR P0000 FZRANO
0313724084547602022010710567+40183-074133FM-15+0048KBLM V0203205N00575000615MN0020125N5-00175-00175100765ADDAA101000021AU110030015AU200001015AW1105AW2715GA1075+000615999GA2085+002445999GD13991+0006159GD24991+0024459GE19AGL   +99999+99999GF199999999999000611999999MA1100755100175MW1715REMMET12501/07/22 05:56:02 METAR KBLM 071056Z 32011KT 1 1/4SM -SN BR BKN002 OVC008 M02/M02 A2975 RMK AO2 SLP076 P0000 T10171017 FZRANO
0221724084547602022010711037+40183-074133FM-15+0048KBLM V0203105N006250006119N0016095N5-00201-00201999999ADDAA101000021AW1101AW2711GD13991+0006119GD24991+0024419GE19AGL   +99999+99999GF199999999999000611999999MA1100781999999REMMET05801/07/22 06:03:02 METAR KBLM 071103Z 31012KT 1SM RVRNO RMKEQDR01      7SKY009R02      7GAS009
0206724084547602022010711107+40183-074133FM-15+0048KBLM V0203205N005750009119N0016095N5-00201-00201999999ADDAA101000021AW1101AW2711GD14991+0018311GE19AGL   +99999+99999GF199999999999001831999999MA1100741999999REMMET05801/07/22 06:10:02 METAR KBLM 071110Z 32011KT 1SM RVRNO RMKEQDR01      7SKY009R02      7GAS009
0308724084547602022010711157+40183-074133FM-15+0048KBLM V0203205N00625001225MN0020125N5-00205-00205999999ADDAA101000021AU110030015AU200001015AW1105AW2715GA1075+001225999GA2085+002445999GD13991+0012251GD24991+0024459GE19AGL   +99999+99999GF199999999999001221999999MA1100785100215MW1715REMMET12001/07/22 06:15:02 METAR KBLM 071115Z 32012KT 1 1/4SM -SN BR BKN004 OVC008 M02/M02 A2976 RMK AO2 CIG 003V007 P0000 FZRANO
0270724084547602022010711457+40183-074133FM-15+0048KBLM V0203005N00725001835MN0028165N5-00205-00205999999ADDAA101000021AU110030015AU200001015AW1105AW2715GA1085+001835999GD14991+0018351GE19AGL   +99999+99999GF199999999999001831999999MA1100815100245MW1715REMMET11301/07/22 06:45:02 METAR KBLM 071145Z 30014KT 1 3/4SM -SN BR OVC006 M02/M02 A2977 RMK AO2 CIG 003V009 P0000 FZRANO
0406724084547602022010711567+40183-074133FM-15+0048KBLM V0203105N00675001225MN0024145N5-00225-00225100845ADDAA101000021AA206000021AU110030015AU200001015AW1105AW2715GA1075+001225999GA2085+003055999GD13991+0012251GD24991+0030559GE19AGL   +99999+99999GF199999999999001221999999KA1060M+00171MA1100815100245MD1190149+9999MW1715REMMET16101/07/22 06:56:02 METAR KBLM 071156Z 31013KT 1 1/2SM -SN BR BKN004 OVC010 M02/M02 A2977 RMK AO2 CIG 004V009 SLP084 P0000 60000 T10221022 10017 21022 51014 FZRANOEQDQ01  00008PRCP06
0304724084547602022010712147+40183-074133FM-15+0048KBLM V0203005N00725001835MN0032195N5-00205-00205999999ADDAA101000021AU110030015AU200001015AW1105AW2715GA1075+001835999GA2085+003055999GD13991+0018351GD24991+0030559GE19AGL   +99999+99999GF199999999999001831999999MA1100885100315MW1715REMMET11601/07/22 07:14:02 METAR KBLM 071214Z 30014KT 2SM -SN BR BKN006 OVC010 M02/M02 A2979 RMK AO2 CIG 004V009 P0000 FZRANO
0270724084547602022010712277+40183-074133FM-15+0048KBLM V0202905N00575001835MN0024145N5-00205-00205999999ADDAA101000021AU110030015AU200001015AW1105AW2715GA1085+001835999GD14991+0018351GE19AGL   +99999+99999GF199999999999001831999999MA1100885100315MW1715REMMET11301/07/22 07:27:02 METAR KBLM 071227Z 29011KT 1 1/2SM -SN BR OVC006 M02/M02 A2979 RMK AO2 CIG 004V009 P0000 FZRANO
0270724084547602022010712427+40183-074133FM-15+0048KBLM V0203005N00675002135MN0040235N5-00205-00205999999ADDAA101000021AU110030015AU200001015AW1105AW2715GA1085+002135999GD14991+0021351GE19AGL   +99999+99999GF199999999999002131999999MA1100885100315MW1715REMMET11301/07/22 07:42:02 METAR KBLM 071242Z 30013KT 2 1/2SM -SN BR OVC007 M02/M02 A2979 RMK AO2 CIG 004V012 P0000 FZRANO
0287724084547602022010712567+40183-074133FM-15+0048KBLM V0202905N00515002135MN0024145N5-00225-00225100935ADDAA101000021AU110030015AU200001015AW1105AW2715GA1085+002135999GD14991+0021351GE19AGL   +99999+99999GF199999999999002131999999MA1100915100345MW1715REMMET13001/07/22 07:56:02 METAR KBLM 071256Z 29010KT 1 1/2SM -SN BR OVC007 M02/M02 A2980 RMK AO2 CIG 005V012 SLP093 P0000 T10221022 FZRANO
0266724084547602022010713077+40183-074133FM-15+0048KBLM V0203005N00625002135MN0048285N5-00205-00205999999ADDAA101000021AU110030015AU200001015AW1105AW2715GA1085+002135999GD14991+0021351GE19AGL   +99999+99999GF199999999999002131999999MA1100915100345MW1715REMMET10901/07/22 08:07:02 METAR KBLM 071307Z 30012KT 3SM -SN BR OVC007 M02/M02 A2980 RMK AO2 CIG 005V012 P0000 FZRANO
0274724084547602022010713567+40183-074133FM-15+0048KBLM V0202905N00625002745MN0128755N5-00225-00225101005ADDAA101000021AU110030015AW1715GA1085+002745999GD14991+0027451GE19AGL   +99999+99999GF199999999999002741999999MA1100985100415MW1715OC100825REMMET12601/07/22 08:56:02 METAR KBLM 071356Z 29012G16KT 8SM -SN OVC009 M02/M02 A2982 RMK AO2 CIG 007V011 SLP100 P0000 T10221022 FZRANO
0244724084547602022010714547+40183-074133FM-15+0048KBLM V0202905N006252200059N0160935N5-00105-00205999999ADDAA101000021GA1025+002745999GD11991+0027459GE19AGL   +99999+99999GF102995999999002741999999MA1101085100515OC100885REMMET10001/07/22 09:54:02 METAR KBLM 071454Z 29012G17KT 10SM FEW009 M01/M02 A2985 RMK AO2 SNE44 P0000 FZRANOEQDD01      0ADE726
0314724084547602022010714567+40183-074133FM-15+0048KBLM V0202905N006752200059N0160935N5-00065-00225101095ADDAA101000021AA203000021GA1025+002745999GD11991+0027459GE19AGL   +99999+99999GF102995999999002741999999MA1101085100515MD1190169+9999OC100885REMMET12901/07/22 09:56:02 METAR KBLM 071456Z 29013G17KT 10SM FEW009 M01/M02 A2985 RMK AO2 SNE44 SLP109 P0000 60000 T10061022 51016 FZRANOEQDQ01  00008PRCP03D01      0ADE726
0191724084547602022010715117+40183-074133FM-15+0048KBLM V0202905N00515004575MN0160935N5-00105-00305999999ADDGA1075+004575999GD13991+0045759GE19AGL   +99999+99999GF199999999999004571999999MA1101085100515REMMET08501/07/22 10:11:02 METAR KBLM 071511Z 29010KT 10SM BKN015 M01/M03 A2985 RMK AO2 FZRANO
0244724084547602022010715567+40183-074133FM-15+0048KBLM V0202805N00825005185MN0160935N5+00005-00335101155ADDAA101000021GA1085+005185999GD14991+0051859GE19AGL   +99999+99999GF199999999999005181999999MA1101155100585OC101085REMMET11901/07/22 10:56:02 METAR KBLM 071556Z 28016G21KT 10SM OVC017 00/M03 A2987 RMK AO2 SNB24E50 SLP115 P0000 T00001033 FZRANO
0321724084547602022010716567+40183-074133FM-15+0048KBLM V0202705N00985007015MN0128755N5+00065-00505101075ADDAA101000395AU110020015AW1615GA1075+007015999GD13991+0070159GE19AGL   +99999+99999GF199999999999007011999999MA1101055100485MW1615OC101295OD149901391270REMMET15901/07/22 11:56:02 METAR KBLM 071656Z 27019G25KT 8SM -RA BKN023 01/M05 A2984 RMK AO2 PK WND 27027/1627 RAB28E30B50UPB49E50SNB30E49 SLP107 P0001 T00061050 FZRANO
0280724084547602022010717117+40183-074133FM-15+0048KBLM V0203005N01085009145MN0112655N5+00105-00605999999ADDAA101000021AU110020015AW1615GA1045+007015999GA2075+009145999GD12991+0070159GD23991+0091459GE19AGL   +99999+99999GF199999999999007011999999MA1101055100485MW1615REMMET10901/07/22 12:11:02 METAR KBLM 071711Z 30021KT 7SM -RA SCT023 BKN030 01/M06 A2984 RMK AO2 UPB00E05 P0000 FZRANO
0359724084547602022010717567+40183-074133FM-15+0048KBLM V0202805N00775009755MN0160935N5+00065-00615101105ADDAA101000021AA206000391AU120090015AW1401AW2415GA1085+009755999GD14991+0097559GE19AGL   +99999+99999GF199999999999009751999999KA1060M+00061MA1101085100515MD1190019+9999OC101185REMMET15401/07/22 12:56:02 METAR KBLM 071756Z 28015G23KT 10SM UP OVC032 01/M06 A2985 RMK AO2 RAE28UPB00E05B49 SLP110 P0000 60001 T00061061 10006 21022 51001 FZRANOEQDQ01  00028PRCP06
0350724084547602022010718567+40183-074133FM-15+0048KBLM V0202805N00935014945MN0160935N5+00005-00565101175ADDAA101000021AU120090015AW1401AW2415GA1045+010975999GA2085+014945999GD12991+0109759GD24991+0149459GE19AGL   +99999+99999GF199999999999010971999999MA1101155100585OC101135OD149901491290REMMET15701/07/22 13:56:02 METAR KBLM 071856Z 28018G22KT 10SM UP SCT036 OVC049 00/M06 A2987 RMK AO2 PK WND 29029/1817 RAB1757E1758B17E28 SLP117 P0000 T00001056 FZRANO
