0160724077547792023010100547+41009-074736FM-15+0178K12N V0209999C000059999999N9999997N5+00945+00835100995ADDAA101001095MA1100955098835REMMET08712/31/22 19:54:03 METAR K12N 010054Z 00000KT 09/08 A2981 RMK AO1 SLP099 P0004 T00940083EQDR01      7SKY009R02      7GAS009
0160724077547792023010101547+41009-074736FM-15+0178K12N V0202105N001559999999N9999997N5+00945+00785100935ADDAA101000395MA1100915098805REMMET08712/31/22 20:54:03 METAR K12N 010154Z 21003KT 09/08 A2980 RMK AO1 SLP093 P0001 T00940078EQDR01      7SKY009R02      7GAS009
0195724077547792023010102547+41009-074736FM-15+0178K12N V0209999C000059999999N9999997N5+01005+00835100865ADDAA101001895AA203003091MA1100855098735REMMET09512/31/22 21:54:03 METAR K12N 010254Z 00000KT 10/08 A2978 RMK AO1 SLP086 P0007 60012 T01000083 $EQDQ01  00308PRCP03R01      7SKY009R02      7GAS009
0162724077547792023010103547+41009-074736FM-15+0178K12N V0201805N002659999999N9999997N5+00945+00835100865ADDAA101000595MA1100855098735REMMET08912/31/22 22:54:03 METAR K12N 010354Z 18005KT 09/08 A2978 RMK AO1 SLP086 P0002 T00940083 $EQDR01      7SKY009R02      7GAS009
0205724077547792023010104547+41009-074736FM-15+0178K12N V0209999C000059999999N9999997N5+00945+00835100645ADDAA101000595KA1240M+01171KA2240N+00061MA1100615098505REMMET10612/31/22 23:54:02 METAR K12N 010454Z 00000KT 09/08 A2971 RMK AO1 PRESFR SLP064 P0002 T00940083 401170006 $EQDR01      7SKY009R02      7GAS009
0902724077547792023010104596+41009-074736SOD  +0178K12N V020999999999999999999999999999+99999+99999999999ADDAA124005896KA1240M+01175KA2240N+00065MG1099464100644OE11240053617023125OE22240026822023595OE33240002299999995REMSOD73024 HR PRECIPITATION (IN):0.23  24 HR MAX TEMP (F):53 24 HR MAX TEMP TIME (LST):1526 24 HR MIN TEMP (F):33 24 HR MIN TEMP TIME (LST):0207 AVERAGE STATION PRESSURE:29.370 MINIMUM SEA LEVEL PRESSURE:29.72 TIME OF OCCURRENCE:2355 PEAK WIND SPEED (MPH):12  PEAK WIND DIR (DEG):170 PEAK WIND TIME (LST):2312  FASTEST 2MIN SPEED (MPH):6  FASTEST 2MIN DIR (DEG):220 FASTEST 2MIN TIME (LST):2359 AVERAGE WIND SPEED (MPH):0.5  24 HR AVG TEMP (F):43 HEATING DEGREE DAYS:22  COOLING DEGREE DAYS:0   LATEST DAY MAX TEMP (0700-1900 LST):53  LATEST NIGHT MIN TEMP(1900-0800 LST):33 HOURLY INCREMENTAL PRECIPITATION VALUES (IN):.00 0.00 0.00 0.00 0.00 0.00 0.00 0.00 0.00 0.00 0.00 0.00 0.00 0.00 0.01 0.03 0.00 0.02 0.01 0.04 0.01 0.07 0.02 0.02EQDR01  0.237AAP092R02     N7GJS072R03     N7GKS075
1327724077547792023010104596+41009-074736SOM  +0178K12N V020999999999999999999999999999+99999+99999999999ADDAB10097596AD10031592223999999996AE1126096035005AH1005001592302145AH2010002892302135AH3015003392302145AH4020003692302145AH5030004392302265AH6045005892301165AI1060006992303025AI2080008192302125AI3100010292302145AI4120011992302305AI5150014292303025AI6180015792303175KB1744N-03505KB2744M+06675KB3744A+01615KC1N9-01502423995KC2M9+01723099995KD1744H09326KD2744C00005KE1035005266005MH1099884102134MK1103520210075098312311565REMSOM799PCP MTOT:3.84 PCP GT 24HRS:1.24 DATE(S):22-23 DAYS W/PCP >=.01:12 DAYS W/PCP >=.10:9  DAYS W/ PCP >=.50:3 DAYS W/PCP >=1.00:0 MSDP AMTS W/DATE-TIME TAGS:MIN:5 0.06  23/0214 MIN:10 0.11  23/0213 MIN:15 0.13  23/0214 MIN:20 0.14  23/0214 MIN:30 0.17  23/0226 MIN:45 0.23  23/0116 MIN:60 0.27  23/0302 MIN:80 0.32  23/0212 MIN:100 0.40  23/0214 MIN:120 0.47  23/0230 MIN:150 0.56  23/0302 MIN:180 0.62  23/0317 AVG DLY MIN:25.7  AVG DLY MAX:44.0  AVG MLY TMP:34.9  MIN TMP:5  DATE(S):24 23 MAX TMP:63  DATE(S):30 DAYS MAX <=32:3 DAYS MAX >=90:0  DAYS MIN <=32:26 DAYS MIN  <=0:0  AVG STP:29.495 LWST SLP:29.03 DATE/TIME:231156 HGST SLP:30.57 DATE/TIME:021007 HDD MTH TOT:932 DEP NORM:-2553 SEASON(JUL 1-JUN 30):1861 DEP NORM:-25536 CDD MTH TOT:0 DEP NORM:-2553 SEASON(JAN 1-DEC 31):1174 DEP NORM:-25536EQDR01  3.847ABP070R02  1.247ADP081R03    127AE1100R04     37AE2103R05   9327KDH045R06    267KE3038
0236724077547792023010105547+41009-074736FM-15+0178K12N V0201705N001559999999N9999997N5+01065+00895100755ADDAA106004191KA1060M+01111KA2060N+00891MA1100755098635MD1590109+9999REMMET10701/01/23 00:54:02 METAR K12N 010554Z 17003KT 11/09 A2975 RMK AO1 SLP075 60016 T01060089 10111 20089 55010 $EQDQ01  00408PRCP06R01      7SKY009R02      7GAS009
0145724077547792023010106547+41009-074736FM-15+0178K12N V0209999V002159999999N9999997N5+01065+00895100785ADDMA1100785098675REMMET08301/01/23 01:54:02 METAR K12N 010654Z VRB04KT 11/09 A2976 RMK AO1 SLP078 T01060089 $EQDR01      7SKY009R02      7GAS009
0145724077547792023010107547+41009-074736FM-15+0178K12N V0209999C000059999999N9999997N5+00895+00785100875ADDMA1100855098735REMMET08301/01/23 02:54:02 METAR K12N 010754Z 00000KT 09/08 A2978 RMK AO1 SLP087 T00890078 $EQDR01      7SKY009R02      7GAS009
0165724077547792023010108547+41009-074736FM-15+0178K12N V0209999C000059999999N9999997N5+00785+00615100935ADDMA1100915098805MD1390179+9999REMMET08901/01/23 03:54:02 METAR K12N 010854Z 00000KT 08/06 A2980 RMK AO1 SLP093 T00780061 53017 $EQDR01      7SKY009R02      7GAS009
0145724077547792023010109547+41009-074736FM-15+0178K12N V0209999C000059999999N9999997N5+00505+00395100965ADDMA1100915098805REMMET08301/01/23 04:54:02 METAR K12N 010954Z 00000KT 05/04 A2980 RMK AO1 SLP096 T00500039 $EQDR01      7SKY009R02      7GAS009
0145724077547792023010110547+41009-074736FM-15+0178K12N V0209999C000059999999N9999997N5+00675+00505101075ADDMA1101055098935REMMET08301/01/23 05:54:02 METAR K12N 011054Z 00000KT 07/05 A2984 RMK AO1 SLP107 T00670050 $EQDR01      7SKY009R02      7GAS009
0236724077547792023010111547+41009-074736FM-15+0178K12N V0209999C000059999999N9999997N5+00505+00335101175ADDAA124005891KA1060M+01061KA2060N+00501MA1101125099005MD1390229+9999REMMET10701/01/23 06:54:02 METAR K12N 011154Z 00000KT 05/03 A2986 RMK AO1 SLP117 70023 T00500033 10106 20050 53022 $EQDQ01  00588PRCP24R01      7SKY009R02      7GAS009
0145724077547792023010112547+41009-074736FM-15+0178K12N V0209999V002659999999N9999997N5+00835+00445101245ADDMA1101225099105REMMET08301/01/23 07:54:02 METAR K12N 011254Z VRB05KT 08/04 A2989 RMK AO1 SLP124 T00830044 $EQDR01      7SKY009R02      7GAS009
0145724077547792023010113547+41009-074736FM-15+0178K12N V0203505N002159999999N9999997N5+01005+00335101305ADDMA1101295099175REMMET08301/01/23 08:54:02 METAR K12N 011354Z 35004KT 10/03 A2991 RMK AO1 SLP130 T01000033 $EQDR01      7SKY009R02      7GAS009
0165724077547792023010114547+41009-074736FM-15+0178K12N V0209999V002659999999N9999997N5+01005+00285101435ADDMA1101425099305MD1390289+9999REMMET08901/01/23 09:54:02 METAR K12N 011454Z VRB05KT 10/03 A2995 RMK AO1 SLP143 T01000028 53028 $EQDR01      7SKY009R02      7GAS009
0145724077547792023010115547+41009-074736FM-15+0178K12N V0209999N999999999999N9999997N5+01065+00225101455ADDMA1101425099305REMMET08301/01/23 10:54:02 METAR K12N 011554Z      KT 11/02 A2995 RMK AO1 SLP145 T01060022 $EQDR01      7SKY009R02      7GAS009
0145724077547792023010116547+41009-074736FM-15+0178K12N V0209999V002659999999N9999997N5+01175+00115101465ADDMA1101425099305REMMET08301/01/23 11:54:02 METAR K12N 011654Z VRB05KT 12/01 A2995 RMK AO1 SLP146 T01170011 $EQDR01      7SKY009R02      7GAS009
0203724077547792023010117547+41009-074736FM-15+0178K12N V0209999V002159999999N9999997N5+01175+00005101435ADDKA1060M+01171KA2060N+00391MA1101425099305MD1090019+9999REMMET10101/01/23 12:54:02 METAR K12N 011754Z VRB04KT 12/00 A2995 RMK AO1 SLP143 T01170000 10117 20039 50001 $EQDR01      7SKY009R02      7GAS009
0145724077547792023010118547+41009-074736FM-15+0178K12N V0209999V002159999999N9999997N5+01225+00005101395ADDMA1101395099275REMMET08301/01/23 13:54:02 METAR K12N 011854Z VRB04KT 12/00 A2994 RMK AO1 SLP139 T01220000 $EQDR01      7SKY009R02      7GAS009
0145724077547792023010119547+41009-074736FM-15+0178K12N V0209999V002659999999N9999997N5+01285+00005101395ADDMA1101395099275REMMET08301/01/23 14:54:02 METAR K12N 011954Z VRB05KT 13/00 A2994 RMK AO1 SLP139 T01280000 $EQDR01      7SKY009R02      7GAS009
0197724077547792023010120547+41009-074736FM-15+0178K12N V0209999C000059999999N9999997N5+01175+00065101445ADDMA1101425099305MD1390009+9999REMMET08901/01/23 15:54:02 METAR K12N 012054Z 00000KT 12/01 A2995 RMK AO1 SLP144 T01170006 53000 $EQDQ010     3APC3  Q023     3APCTENR01      7SKY009R02      7GAS009
0145724077547792023010121547+41009-074736FM-15+0178K12N V0209999C000059999999N9999997N5+00785+00225101465ADDMA1101425099305REMMET08301/01/23 16:54:02 METAR K12N 012154Z 00000KT 08/02 A2995 RMK AO1 SLP146 T00780022 $EQDR01      7SKY009R02      7GAS009
0145724077547792023010122547+41009-074736FM-15+0178K12N V0209999C000059999999N9999997N5+00615+00225101565ADDMA1101525099405REMMET08301/01/23 17:54:02 METAR K12N 012254Z 00000KT 06/02 A2998 RMK AO1 SLP156 T00610022 $EQDR01      7SKY009R02      7GAS009
0203724077547792023010123547+41009-074736FM-15+0178K12N V0209999C000059999999N9999997N5+00445+00115101625ADDKA1060M+01331KA2060N+00391MA1101565099435MD1390139+9999REMMET10101/01/23 18:54:02 METAR K12N 012354Z 00000KT 04/01 A2999 RMK AO1 SLP162 T00440011 10133 20039 53013 $EQDR01      7SKY009R02      7GAS009
0145724077547792023010200547+41009-074736FM-15+0178K12N V0209999C000059999999N9999997N5+00395+00115101675ADDMA1101635099505REMMET08301/01/23 19:54:01 METAR K12N 020054Z 00000KT 04/01 A3001 RMK AO1 SLP167 T00390011 $EQDR01      7SKY009R02      7GAS009
0145724077547792023010201547+41009-074736FM-15+0178K12N V0209999C000059999999N9999997N5+00505+00175101705ADDMA1101665099535REMMET08301/01/23 20:54:01 METAR K12N 020154Z 00000KT 05/02 A3002 RMK AO1 SLP170 T00500017 $EQDR01      7SKY009R02      7GAS009
0165724077547792023010202547+41009-074736FM-15+0178K12N V0209999C000059999999N9999997N5+00565+00225101735ADDMA1101695099575MD1190139+9999REMMET08901/01/23 21:54:01 METAR K12N 020254Z 00000KT 06/02 A3003 RMK AO1 SLP173 T00560022 51013 $EQDR01      7SKY009R02      7GAS009
0145724077547792023010203547+41009-074736FM-15+0178K12N V0209999C000059999999N9999997N5+00565+00225101735ADDMA1101695099575REMMET08301/01/23 22:54:02 METAR K12N 020354Z 00000KT 06/02 A3003 RMK AO1 SLP173 T00560022 $EQDR01      7SKY009R02      7GAS009
0181724077547792023010204547+41009-074736FM-15+0178K12N V0209999C000059999999N9999997N5+00335+00065101735ADDKA1240M+01331KA2240N+00331MA1101695099575REMMET09301/01/23 23:54:02 METAR K12N 020454Z 00000KT 03/01 A3003 RMK AO1 SLP173 T00330006 401330033 $EQDR01      7SKY009R02      7GAS009
0203724077547792023010205547+41009-074736FM-15+0178K12N V0201905N001559999999N9999997N5+00175+00005101735ADDKA1060M+00611KA2060N+00171MA1101695099575MD1890019+9999REMMET10101/02/23 00:54:02 METAR K12N 020554Z 19003KT 02/00 A3003 RMK AO1 SLP173 T00170000 10061 20017 58001 $EQDR01      7SKY009R02      7GAS009
0146724077547792023010206547+41009-074736FM-15+0178K12N V0209999C000059999999N9999997N5+00115-00115101775ADDMA1101735099605REMMET08401/02/23 01:54:02 METAR K12N 020654Z 00000KT 01/M01 A3004 RMK AO1 SLP177 T00111011 $EQDR01      7SKY009R02      7GAS009
0146724077547792023010207547+41009-074736FM-15+0178K12N V0209999C000059999999N9999997N5+00065-00175101855ADDMA1101795099675REMMET08401/02/23 02:54:02 METAR K12N 020754Z 00000KT 01/M02 A3006 RMK AO1 SLP185 T00061017 $EQDR01      7SKY009R02      7GAS009
0166724077547792023010208547+41009-074736FM-15+0178K12N V0209999C000059999999N9999997N5+00005-00175101845ADDMA1101795099675MD1090109+9999REMMET09001/02/23 03:54:02 METAR K12N 020854Z 00000KT 00/M02 A3006 RMK AO1 SLP184 T00001017 50010 $EQDR01      7SKY009R02      7GAS009
0146724077547792023010209547+41009-074736FM-15+0178K12N V0209999C000059999999N9999997N5+00005-00225101935ADDMA1101865099735REMMET08401/02/23 04:54:02 METAR K12N 020954Z 00000KT 00/M02 A3008 RMK AO1 SLP193 T00001022 $EQDR01      7SKY009R02      7GAS009
0146724077547792023010210547+41009-074736FM-15+0178K12N V0209999C000059999999N9999997N5+00005-00225101935ADDMA1101865099735REMMET08401/02/23 05:54:02 METAR K12N 021054Z 00000KT 00/M02 A3008 RMK AO1 SLP193 T00001022 $EQDR01      7SKY009R02      7GAS009
0146724077547792023010212547+41009-074736FM-15+0178K12N V0209999C000059999999N9999997N5+00065-00175102095ADDMA1102005099875REMMET08401/02/23 07:54:02 METAR K12N 021254Z 00000KT 01/M02 A3012 RMK AO1 SLP209 T00061017 $EQDR01      7SKY009R02      7GAS009
0145724077547792023010213547+41009-074736FM-15+0178K12N V0209999C000059999999N9999997N5+00175+00005102105ADDMA1102035099905REMMET08301/02/23 08:54:02 METAR K12N 021354Z 00000KT 02/00 A3013 RMK AO1 SLP210 T00170000 $EQDR01      7SKY009R02      7GAS009
0145724077547792023010214547+41009-074736FM-15+0178K12N V0209999C000059999999N9999997N5+00505+00285102115ADDMA1102035099905REMMET08301/02/23 09:54:02 METAR K12N 021454Z 00000KT 05/03 A3013 RMK AO1 SLP211 T00500028 $EQDR01      7SKY009R02      7GAS009
0145724077547792023010215547+41009-074736FM-15+0178K12N V0209999C000059999999N9999997N5+00895+00505102035ADDMA1102005099875REMMET08301/02/23 10:54:02 METAR K12N 021554Z 00000KT 09/05 A3012 RMK AO1 SLP203 T00890050 $EQDR01      7SKY009R02      7GAS009
0145724077547792023010216547+41009-074736FM-15+0178K12N V0209999C000059999999N9999997N5+01225+00565101945ADDMA1101905099775REMMET08301/02/23 11:54:02 METAR K12N 021654Z 00000KT 12/06 A3009 RMK AO1 SLP194 T01220056 $EQDR01      7SKY009R02      7GAS009
0203724077547792023010217547+41009-074736FM-15+0178K12N V0209999V001559999999N9999997N5+01285+00565101925ADDKA1060M+01281KA2060N+00001MA1101905099775MD1690169+9999REMMET10101/02/23 12:54:02 METAR K12N 021754Z VRB03KT 13/06 A3009 RMK AO1 SLP192 T01280056 10128 20000 56016 $EQDR01      7SKY009R02      7GAS009
0145724077547792023010218547+41009-074736FM-15+0178K12N V0202005N002159999999N9999997N5+01285+00565101945ADDMA1101905099775REMMET08301/02/23 13:54:02 METAR K12N 021854Z 20004KT 13/06 A3009 RMK AO1 SLP194 T01280056 $EQDR01      7SKY009R02      7GAS009
0145724077547792023010219547+41009-074736FM-15+0178K12N V0209999V001559999999N9999997N5+01175+00615101945ADDMA1101905099775REMMET08301/02/23 14:54:02 METAR K12N 021954Z VRB03KT 12/06 A3009 RMK AO1 SLP194 T01170061 $EQDR01      7SKY009R02      7GAS009
0165724077547792023010220547+41009-074736FM-15+0178K12N V0209999C000059999999N9999997N5+01175+00615101975ADDMA1101935099805MD1390049+9999REMMET08901/02/23 15:54:02 METAR K12N 022054Z 00000KT 12/06 A3010 RMK AO1 SLP197 T01170061 53004 $EQDR01      7SKY009R02      7GAS009
0145724077547792023010221547+41009-074736FM-15+0178K12N V0209999C000059999999N9999997N5+00895+00565102035ADDMA1101965099835REMMET08301/02/23 16:54:02 METAR K12N 022154Z 00000KT 09/06 A3011 RMK AO1 SLP203 T00890056 $EQDR01      7SKY009R02      7GAS009
0145724077547792023010222547+41009-074736FM-15+0178K12N V0209999C000059999999N9999997N5+00835+00565102035ADDMA1101965099835REMMET08301/02/23 17:54:02 METAR K12N 022254Z 00000KT 08/06 A3011 RMK AO1 SLP203 T00830056 $EQDR01      7SKY009R02      7GAS009
0202724077547792023010223547+41009-074736FM-15+0178K12N V0209999C000059999999N9999997N5+00835+00615999999ADDKA1060M+01281KA2060N+00781MA1102005099875MD1390099+9999REMMET10001/02/23 18:54:02 METAR K12N 022354Z 00000KT 08/06 A3012 RMK AO1 SLPNO T00830061 10128 20078 53009 $EQDR01      7SKY009R02      7GAS009
0145724077547792023010300547+41009-074736FM-15+0178K12N V0209999C000059999999N9999997N5+00835+00615102105ADDMA1102035099905REMMET08301/02/23 19:54:01 METAR K12N 030054Z 00000KT 08/06 A3013 RMK AO1 SLP210 T00830061 $EQDR01      7SKY009R02      7GAS009
0145724077547792023010301547+41009-074736FM-15+0178K12N V0209999C000059999999N9999997N5+00835+00565102115ADDMA1102035099905REMMET08301/02/23 20:54:01 METAR K12N 030154Z 00000KT 08/06 A3013 RMK AO1 SLP211 T00830056 $EQDR01      7SKY009R02      7GAS009
0165724077547792023010302547+41009-074736FM-15+0178K12N V0209999C000059999999N9999997N5+00835+00615102105ADDMA1102075099935MD1190049+9999REMMET08901/02/23 21:54:01 METAR K12N 030254Z 00000KT 08/06 A3014 RMK AO1 SLP210 T00830061 51004 $EQDR01      7SKY009R02      7GAS009
0162724077547792023010303547+41009-074736FM-15+0178K12N V0209999C000059999999N9999997N5+00785+00615102095ADDAA101000395MA1102075099935REMMET08901/02/23 22:54:01 METAR K12N 030354Z 00000KT 08/06 A3014 RMK AO1 SLP209 P0001 T00780061 $EQDR01      7SKY009R02      7GAS009
0181724077547792023010304547+41009-074736FM-15+0178K12N V0209999C000059999999N9999997N5+00785+00615101985ADDKA1240M+01281KA2240N-00061MA1101965099835REMMET09301/02/23 23:54:02 METAR K12N 030454Z 00000KT 08/06 A3011 RMK AO1 SLP198 T00780061 401281006 $EQDR01      7SKY009R02      7GAS009
0236724077547792023010305547+41009-074736FM-15+0178K12N V0209999C000059999999N9999997N5+00725+00565101935ADDAA106000391KA1060M+00831KA2060N+00721MA1101905099775MD1890149+9999REMMET10701/03/23 00:54:02 METAR K12N 030554Z 00000KT 07/06 A3009 RMK AO1 SLP193 60001 T00720056 10083 20072 58014 $EQDQ01  00028PRCP06R01      7SKY009R02      7GAS009
0145724077547792023010306547+41009-074736FM-15+0178K12N V0209999C000059999999N9999997N5+00835+00675101965ADDMA1101935099805REMMET08301/03/23 01:54:02 METAR K12N 030654Z 00000KT 08/07 A3010 RMK AO1 SLP196 T00830067 $EQDR01      7SKY009R02      7GAS009
0145724077547792023010307547+41009-074736FM-15+0178K12N V0209999V001559999999N9999997N5+00785+00565101925ADDMA1101905099775REMMET08301/03/23 02:54:02 METAR K12N 030754Z VRB03KT 08/06 A3009 RMK AO1 SLP192 T00780056 $EQDR01      7SKY009R02      7GAS009
0181724077547792023010308547+41009-074736FM-15+0178K12N V0200305N002659999999N9999997N5+00725+00445101945ADDMA1101905099775MD1890009+9999REMMET08901/03/23 03:54:02 METAR K12N 030854Z 03005KT 07/04 A3009 RMK AO1 SLP194 T00720044 58000 $EQDQ010     3APC3  R01      7SKY009R02      7GAS009
0145724077547792023010310547+41009-074736FM-15+0178K12N V0209999C000059999999N9999997N5+00675+00335101855ADDMA1101835099705REMMET08301/03/23 05:54:02 METAR K12N 031054Z 00000KT 07/03 A3007 RMK AO1 SLP185 T00670033 $EQDR01      7SKY009R02      7GAS009
0266724077547792023010311547+41009-074736FM-15+0178K12N V0200305N003159999999N9999997N5+00615+00335101745ADDAA101000395AA206000391AA324000591KA1060M+00891KA2060N+00611MA1101695099575REMMET11301/03/23 06:54:02 METAR K12N 031154Z 03006KT 06/03 A3003 RMK AO1 SLP174 P0001 60001 70002 T00610033 10089 20061 $EQDQ01  00028PRCP06Q02  00058PRCP24R01      7SKY009R02      7GAS009
0145724077547792023010312547+41009-074736FM-15+0178K12N V0200405N001559999999N9999997N5+00615+00335101715ADDMA1101665099535REMMET08301/03/23 07:54:02 METAR K12N 031254Z 04003KT 06/03 A3002 RMK AO1 SLP171 T00610033 $EQDR01      7SKY009R02      7GAS009
0145724077547792023010313547+41009-074736FM-15+0178K12N V0209999C000059999999N9999997N5+00615+00335101685ADDMA1101635099505REMMET08301/03/23 08:54:02 METAR K12N 031354Z 00000KT 06/03 A3001 RMK AO1 SLP168 T00610033 $EQDR01      7SKY009R02      7GAS009
0172724077547792023010314547+41009-074736FM-15+0178K12N V0209999C000059999999N9999997N5+00615+00395101725ADDMA1101695099575MD1590019+9999REMMET09601/03/23 09:54:02 METAR K12N 031454Z 00000KT 06/04 A3003 RMK AO1 PRESRR SLP172 T00610039 55001 $EQDR01      7SKY009R02      7GAS009
0169724077547792023010315547+41009-074736FM-15+0178K12N V0209999C000059999999N9999997N5+00615+00395101555ADDAA101003095MA1101525099405REMMET09601/03/23 10:54:02 METAR K12N 031554Z 00000KT 06/04 A2998 RMK AO1 PRESFR SLP155 P0012 T00610039 $EQDR01      7SKY009R02      7GAS009
0160724077547792023010316547+41009-074736FM-15+0178K12N V0209999C000059999999N9999997N5+00675+00505101395ADDAA101004695MA1101355099235REMMET08701/03/23 11:54:02 METAR K12N 031654Z 00000KT 07/05 A2993 RMK AO1 SLP139 P0018 T00670050EQDR01      7SKY009R02      7GAS009
0251724077547792023010317547+41009-074736FM-15+0178K12N V0209999C000059999999N9999997N5+00725+00505101265ADDAA101001095AA206008691KA1060M+00721KA2060N+00561MA1101225099105MD1690469+9999REMMET11101/03/23 12:54:02 METAR K12N 031754Z 00000KT 07/05 A2989 RMK AO1 SLP126 P0004 60034 T00720050 10072 20056 56046EQDQ01  00868PRCP06R01      7SKY009R02      7GAS009
0167724077547792023010318547+41009-074736FM-15+0178K12N V0201805N002159999999N9999997N5+00785+00615101145ADDAA101000595MA1101125099005REMMET09401/03/23 13:54:02 METAR K12N 031854Z 18004KT 08/06 A2986 RMK AO1 PRESFR SLP114 P0002 T00780061EQDR01      7SKY009R02      7GAS009
0160724077547792023010319547+41009-074736FM-15+0178K12N V0209999C000059999999N9999997N5+00895+00725101055ADDAA101000395MA1101025098905REMMET08701/03/23 14:54:02 METAR K12N 031954Z 00000KT 09/07 A2983 RMK AO1 SLP105 P0001 T00890072EQDR01      7SKY009R02      7GAS009
0144724077547792023010321547+41009-074736FM-15+0178K12N V0209999C000059999999N9999997N5+01115+00945999999ADDMA1101025098905REMMET08201/03/23 16:54:02 METAR K12N 032154Z 00000KT 11/09 A2983 RMK AO1 SLPNO T01110094 $EQDR01      7SKY009R02      7GAS009
0145724077547792023010322547+41009-074736FM-15+0178K12N V0209999V001559999999N9999997N5+01005+00895101035ADDMA1100985098875REMMET08301/03/23 17:54:02 METAR K12N 032254Z VRB03KT 10/09 A2982 RMK AO1 SLP103 T01000089 $EQDR01      7SKY009R02      7GAS009
0216724077547792023010323547+41009-074736FM-15+0178K12N V0201805N001559999999N9999997N5+01005+00895100975ADDAA106001891KA1060M+01111KA2060N+00721MA1100955098835REMMET10101/03/23 18:54:02 METAR K12N 032354Z 18003KT 10/09 A2981 RMK AO1 SLP097 60007 T01000089 10111 20072 $EQDQ01  00178PRCP06R01      7SKY009R02      7GAS009
0145724077547792023010400547+41009-074736FM-15+0178K12N V0209999C000059999999N9999997N5+01115+01005100955ADDMA1100915098805REMMET08301/03/23 19:54:01 METAR K12N 040054Z 00000KT 11/10 A2980 RMK AO1 SLP095 T01110100 $EQDR01      7SKY009R02      7GAS009
0145724077547792023010401547+41009-074736FM-15+0178K12N V0201905N001559999999N9999997N5+01175+01005100975ADDMA1100955098835REMMET08301/03/23 20:54:01 METAR K12N 040154Z 19003KT 12/10 A2981 RMK AO1 SLP097 T01170100 $EQDR01      7SKY009R02      7GAS009
0231724077547792023010402547+41009-074736FM-15+0178K12N V0209999C000059999999N9999997N5+01175+01005100975ADDAA101000395AA203000391MA1100955098835MD1390009+9999REMMET10101/03/23 21:54:01 METAR K12N 040254Z 00000KT 12/10 A2981 RMK AO1 SLP097 P0001 60001 T01170100 53000 $EQDQ013     3APCTENQ02  00028PRCP03R01      7SKY009R02      7GAS009
0145724077547792023010403547+41009-074736FM-15+0178K12N V0209999C000059999999N9999997N5+01065+00945100925ADDMA1100885098775REMMET08301/03/23 22:54:01 METAR K12N 040354Z 00000KT 11/09 A2979 RMK AO1 SLP092 T01060094 $EQDR01      7SKY009R02      7GAS009
0181724077547792023010404547+41009-074736FM-15+0178K12N V0209999C000059999999N9999997N5+01005+00835100905ADDKA1240M+01171KA2240N+00561MA1100885098775REMMET09301/03/23 23:54:01 METAR K12N 040454Z 00000KT 10/08 A2979 RMK AO1 SLP090 T01000083 401170056 $EQDR01      7SKY009R02      7GAS009
0231724077547792023010405547+41009-074736FM-15+0178K12N V0201705N001559999999N9999997N5+01115+00945100905ADDAA101000095AA206000391KA1060M+01171KA2060N+00941MA1100885098775MD1590079+9999REMMET10701/04/23 00:54:02 METAR K12N 040554Z 17003KT 11/09 A2979 RMK AO1 SLP090 60001 T01110094 10117 20094 55007 $EQDR01      7SKY009R02      7GAS009
0156724077547792023010406547+41009-074736FM-15+0178K12N V0201905N001559999999N9999997N5+01005+00895100905ADDAA101000095MA1100885098775REMMET08301/04/23 01:54:02 METAR K12N 040654Z 19003KT 10/09 A2979 RMK AO1 SLP090 T01000089 $EQDR01      7SKY009R02      7GAS009
0156724077547792023010407547+41009-074736FM-15+0178K12N V0209999C000059999999N9999997N5+01065+00945100935ADDAA101000095MA1100915098805REMMET08301/04/23 02:54:02 METAR K12N 040754Z 00000KT 11/09 A2980 RMK AO1 SLP093 T01060094 $EQDR01      7SKY009R02      7GAS009
0176724077547792023010408547+41009-074736FM-15+0178K12N V0209999C000059999999N9999997N5+01065+00895100915ADDAA101000095MA1100885098775MD1090029+9999REMMET08901/04/23 03:54:02 METAR K12N 040854Z 00000KT 11/09 A2979 RMK AO1 SLP091 T01060089 50002 $EQDR01      7SKY009R02      7GAS009
0156724077547792023010409547+41009-074736FM-15+0178K12N V0209999V001559999999N9999997N5+01225+01115100915ADDAA101000095MA1100915098805REMMET08301/04/23 04:54:02 METAR K12N 040954Z VRB03KT 12/11 A2980 RMK AO1 SLP091 T01220111 $EQDR01      7SKY009R02      7GAS009
0156724077547792023010410547+41009-074736FM-15+0178K12N V0202005N002159999999N9999997N5+01175+01065100985ADDAA101000095MA1100985098875REMMET08301/04/23 05:54:02 METAR K12N 041054Z 20004KT 12/11 A2982 RMK AO1 SLP098 T01170106 $EQDR01      7SKY009R02      7GAS009
0231724077547792023010411547+41009-074736FM-15+0178K12N V0202205N001559999999N9999997N5+01225+01115101095ADDAA101000095AA224009991KA1060M+01221KA2060N+00941MA1101085098975MD1390199+9999REMMET10701/04/23 06:54:02 METAR K12N 041154Z 22003KT 12/11 A2985 RMK AO1 SLP109 70039 T01220111 10122 20094 53019 $EQDR01      7SKY009R02      7GAS009
0156724077547792023010412547+41009-074736FM-15+0178K12N V0209999C000059999999N9999997N5+01175+01065101175ADDAA101000095MA1101155099035REMMET08301/04/23 07:54:02 METAR K12N 041254Z 00000KT 12/11 A2987 RMK AO1 SLP117 T01170106 $EQDR01      7SKY009R02      7GAS009
0154724077547792023010413547+41009-074736FM-15+0178K12N V0209999C000059999999N9999997N5+01225+01115101235ADDAA101000095MA1101225099105REMMET08101/04/23 08:54:02 METAR K12N 041354Z 00000KT 12/11 A2989 RMK AO1 SLP123 T01220111EQDR01      7SKY009R02      7GAS009
0174724077547792023010414547+41009-074736FM-15+0178K12N V0209999C000059999999N9999997N5+01285+01115101265ADDAA101000095MA1101255099135MD1190179+9999REMMET08701/04/23 09:54:02 METAR K12N 041454Z 00000KT 13/11 A2990 RMK AO1 SLP126 T01280111 51017EQDR01      7SKY009R02      7GAS009
0154724077547792023010415547+41009-074736FM-15+0178K12N V0209999C000059999999N9999997N5+01395+01225101265ADDAA101000095MA1101255099135REMMET08101/04/23 10:54:02 METAR K12N 041554Z 00000KT 14/12 A2990 RMK AO1 SLP126 T01390122EQDR01      7SKY009R02      7GAS009
0132724077547792023010416547+41009-074736FM-15+0178K12N V0209999N999999999999N9999997N5+99999+99999999999ADDMA1101155099035REMMET07001/04/23 11:54:02 METAR K12N 041654Z      KT A2987 RMK AO1 SLPNO PNO $EQDR01      7SKY009R02      7GAS009
0182724077547792023010417547+41009-074736FM-15+0178K12N V0209999C000059999999N9999997N5+01835+01335101025ADDAA101000095MA1101055098935MD1890219+9999REMMET09501/04/23 12:54:02 METAR K12N 041754Z 00000KT 18/13 A2984 RMK AO1 SLP102 6//// T01830133 58021 $EQDR01      7SKY009R02      7GAS009
0154724077547792023010419547+41009-074736FM-15+0178K12N V0209999C000059999999N9999997N5+01675+01285100965ADDAA101000095MA1100985098875REMMET08101/04/23 14:54:02 METAR K12N 041954Z 00000KT 17/13 A2982 RMK AO1 SLP096 T01670128EQDR01      7SKY009R02      7GAS009
0154724077547792023010420547+41009-074736FM-15+0178K12N V0209999C000059999999N9999997N5+01615+01285100995ADDAA101000095MA1101025098905REMMET08101/04/23 15:54:02 METAR K12N 042054Z 00000KT 16/13 A2983 RMK AO1 SLP099 T01610128EQDR01      7SKY009R02      7GAS009
0154724077547792023010421547+41009-074736FM-15+0178K12N V0209999C000059999999N9999997N5+01335+01175100935ADDAA101000095MA1100915098805REMMET08101/04/23 16:54:02 METAR K12N 042154Z 00000KT 13/12 A2980 RMK AO1 SLP093 T01330117EQDR01      7SKY009R02      7GAS009
0154724077547792023010422547+41009-074736FM-15+0178K12N V0209999C000059999999N9999997N5+01395+01175100945ADDAA101000095MA1100955098835REMMET08101/04/23 17:54:02 METAR K12N 042254Z 00000KT 14/12 A2981 RMK AO1 SLP094 T01390117EQDR01      7SKY009R02      7GAS009
0174724077547792023010423547+41009-074736FM-15+0178K12N V0209999C000059999999N9999997N5+01335+01175100935ADDAA101000095MA1100955098835MD1690069+9999REMMET08701/04/23 18:54:02 METAR K12N 042354Z 00000KT 13/12 A2981 RMK AO1 SLP093 T01330117 56006EQDR01      7SKY009R02      7GAS009
0154724077547792023010500547+41009-074736FM-15+0178K12N V0201705N002159999999N9999997N5+01615+01335100855ADDAA101000095MA1100885098775REMMET08101/04/23 19:54:01 METAR K12N 050054Z 17004KT 16/13 A2979 RMK AO1 SLP085 T01610133EQDR01      7SKY009R02      7GAS009
0154724077547792023010501547+41009-074736FM-15+0178K12N V0201605N002659999999N9999997N5+01565+01335100825ADDAA101000095MA1100855098735REMMET08101/04/23 20:54:01 METAR K12N 050154Z 16005KT 16/13 A2978 RMK AO1 SLP082 T01560133EQDR01      7SKY009R02      7GAS009
0174724077547792023010502547+41009-074736FM-15+0178K12N V0201505N001559999999N9999997N5+01565+01335100835ADDAA101000095MA1100855098735MD1590099+9999REMMET08701/04/23 21:54:01 METAR K12N 050254Z 15003KT 16/13 A2978 RMK AO1 SLP083 T01560133 55009EQDR01      7SKY009R02      7GAS009
0154724077547792023010503547+41009-074736FM-15+0178K12N V0200605N002159999999N9999997N5+01115+00945100885ADDAA101000095MA1100885098775REMMET08101/04/23 22:54:01 METAR K12N 050354Z 06004KT 11/09 A2979 RMK AO1 SLP088 T01110094EQDR01      7SKY009R02      7GAS009
0190724077547792023010504547+41009-074736FM-15+0178K12N V0209999C000059999999N9999997N5+01115+00895100885ADDAA101000095KA1240M+01831KA2240N+00941MA1100885098775REMMET09101/04/23 23:54:02 METAR K12N 050454Z 00000KT 11/09 A2979 RMK AO1 SLP088 T01110089 401830094EQDR01      7SKY009R02      7GAS009
0902724077547792023010504596+41009-074736SOD  +0178K12N V020999999999999999999999999999+99999+99999999999ADDAA124000095KA1240M+01836KA2240N+00945MG1098874100814OE11240044721004555OE22240031321005495OE33240007299999995REMSOD73024 HR PRECIPITATION (IN):0.00  24 HR MAX TEMP (F):65 24 HR MAX TEMP TIME (LST):1439 24 HR MIN TEMP (F):49 24 HR MIN TEMP TIME (LST):0147 AVERAGE STATION PRESSURE:29.195 MINIMUM SEA LEVEL PRESSURE:29.77 TIME OF OCCURRENCE:2234 PEAK WIND SPEED (MPH):10  PEAK WIND DIR (DEG):210 PEAK WIND TIME (LST):0455  FASTEST 2MIN SPEED (MPH):7  FASTEST 2MIN DIR (DEG):210 FASTEST 2MIN TIME (LST):0549 AVERAGE WIND SPEED (MPH):1.6  24 HR AVG TEMP (F):57 HEATING DEGREE DAYS:8   COOLING DEGREE DAYS:0   LATEST DAY MAX TEMP (0700-1900 LST):65( LATEST NIGHT MIN TEMP(1900-0800 LST):49 HOURLY INCREMENTAL PRECIPITATION VALUES (IN):.00 0.00 0.00 0.00 0.00 0.00 0.00 0.00 0.00 0.00 0.00 M    0.00 0.00 0.00 0.00 0.00 0.00 0.00 0.00 0.00 0.00 0.00 0.00EQDR01     N7GJS072R02     N7GKS075R03    657KAX008
0212724077547792023010505547+41009-074736FM-15+0178K12N V0203605N001559999999N9999997N5+01115+00945100915ADDAA101000095KA1060M+01671KA2060N+01111MA1100955098835MD1390099+9999REMMET09901/05/23 00:54:02 METAR K12N 050554Z 36003KT 11/09 A2981 RMK AO1 SLP091 T01110094 10167 20111 53009EQDR01      7SKY009R02      7GAS009
0154724077547792023010506547+41009-074736FM-15+0178K12N V0200205N002159999999N9999997N5+01065+00835101045ADDAA101000095MA1101055098935REMMET08101/05/23 01:54:02 METAR K12N 050654Z 02004KT 11/08 A2984 RMK AO1 SLP104 T01060083EQDR01      7SKY009R02      7GAS009
0154724077547792023010507547+41009-074736FM-15+0178K12N V0209999C000059999999N9999997N5+00895+00785101075ADDAA101000095MA1101085098975REMMET08101/05/23 02:54:02 METAR K12N 050754Z 00000KT 09/08 A2985 RMK AO1 SLP107 T00890078EQDR01      7SKY009R02      7GAS009
0174724077547792023010508547+41009-074736FM-15+0178K12N V0209999C000059999999N9999997N5+00785+00675101125ADDAA101000095MA1101125099005MD1190199+9999REMMET08701/05/23 03:54:02 METAR K12N 050854Z 00000KT 08/07 A2986 RMK AO1 SLP112 T00780067 51019EQDR01      7SKY009R02      7GAS009
0154724077547792023010509547+41009-074736FM-15+0178K12N V0209999C000059999999N9999997N5+00785+00615101245ADDAA101000095MA1101225099105REMMET08101/05/23 04:54:02 METAR K12N 050954Z 00000KT 08/06 A2989 RMK AO1 SLP124 T00780061EQDR01      7SKY009R02      7GAS009
0154724077547792023010510547+41009-074736FM-15+0178K12N V0209999C000059999999N9999997N5+00725+00565101315ADDAA101000095MA1101295099175REMMET08101/05/23 05:54:02 METAR K12N 051054Z 00000KT 07/06 A2991 RMK AO1 SLP131 T00720056EQDR01      7SKY009R02      7GAS009
0218724077547792023010511547+41009-074736FM-15+0178K12N V0209999C000059999999N9999997N5+00675+00505101335ADDAA101000095KA1060M+01111KA2060N+00611MA1101325099205MD1190189+9999REMMET10501/05/23 06:54:02 METAR K12N 051154Z 00000KT 07/05 A2992 RMK AO1 SLP133 7//// T00670050 10111 20061 51018EQDR01      7SKY009R02      7GAS009
0154724077547792023010512547+41009-074736FM-15+0178K12N V0209999C000059999999N9999997N5+00615+00445101335ADDAA101000095MA1101325099205REMMET08101/05/23 07:54:02 METAR K12N 051254Z 00000KT 06/04 A2992 RMK AO1 SLP133 T00610044EQDR01      7SKY009R02      7GAS009
0154724077547792023010513547+41009-074736FM-15+0178K12N V0209999C000059999999N9999997N5+00785+00615101445ADDAA101000095MA1101425099305REMMET08101/05/23 08:54:02 METAR K12N 051354Z 00000KT 08/06 A2995 RMK AO1 SLP144 T00780061EQDR01      7SKY009R02      7GAS009
0174724077547792023010514547+41009-074736FM-15+0178K12N V0203605N001559999999N9999997N5+01065+00945101505ADDAA101000095MA1101495099375MD1390199+9999REMMET08701/05/23 09:54:02 METAR K12N 051454Z 36003KT 11/09 A2997 RMK AO1 SLP150 T01060094 53019EQDR01      7SKY009R02      7GAS009
0154724077547792023010515547+41009-074736FM-15+0178K12N V0209999C000059999999N9999997N5+01065+00785101525ADDAA101000095MA1101525099405REMMET08101/05/23 10:54:02 METAR K12N 051554Z 00000KT 11/08 A2998 RMK AO1 SLP152 T01060078EQDR01      7SKY009R02      7GAS009
0154724077547792023010516547+41009-074736FM-15+0178K12N V0209999V002159999999N9999997N5+01115+00785101435ADDAA101000095MA1101425099305REMMET08101/05/23 11:54:02 METAR K12N 051654Z VRB04KT 11/08 A2995 RMK AO1 SLP143 T01110078EQDR01      7SKY009R02      7GAS009
0212724077547792023010517547+41009-074736FM-15+0178K12N V0209999C000059999999N9999997N5+01175+00785101365ADDAA101000095KA1060M+01221KA2060N+00561MA1101355099235MD1890159+9999REMMET09901/05/23 12:54:02 METAR K12N 051754Z 00000KT 12/08 A2993 RMK AO1 SLP136 T01170078 10122 20056 58015EQDR01      7SKY009R02      7GAS009
0154724077547792023010518547+41009-074736FM-15+0178K12N V0209999C000059999999N9999997N5+01175+00785101335ADDAA101000095MA1101325099205REMMET08101/05/23 13:54:02 METAR K12N 051854Z 00000KT 12/08 A2992 RMK AO1 SLP133 T01170078EQDR01      7SKY009R02      7GAS009
0154724077547792023010519547+41009-074736FM-15+0178K12N V0203605N001559999999N9999997N5+01175+00785101305ADDAA101000095MA1101295099175REMMET08101/05/23 14:54:02 METAR K12N 051954Z 36003KT 12/08 A2991 RMK AO1 SLP130 T01170078EQDR01      7SKY009R02      7GAS009
0174724077547792023010520547+41009-074736FM-15+0178K12N V0209999C000059999999N9999997N5+01175+00785101255ADDAA101000095MA1101225099105MD1890129+9999REMMET08701/05/23 15:54:02 METAR K12N 052054Z 00000KT 12/08 A2989 RMK AO1 SLP125 T01170078 58012EQDR01      7SKY009R02      7GAS009
0154724077547792023010521547+41009-074736FM-15+0178K12N V0209999C000059999999N9999997N5+01115+00785101345ADDAA101000095MA1101325099205REMMET08101/05/23 16:54:02 METAR K12N 052154Z 00000KT 11/08 A2992 RMK AO1 SLP134 T01110078EQDR01      7SKY009R02      7GAS009
0154724077547792023010522547+41009-074736FM-15+0178K12N V0209999C000059999999N9999997N5+00945+00725101385ADDAA101000095MA1101355099235REMMET08101/05/23 17:54:02 METAR K12N 052254Z 00000KT 09/07 A2993 RMK AO1 SLP138 T00940072EQDR01      7SKY009R02      7GAS009
0212724077547792023010523547+41009-074736FM-15+0178K12N V0201705N001559999999N9999997N5+01005+00725101375ADDAA101000095KA1060M+01221KA2060N+00941MA1101325099205MD1090109+9999REMMET09901/05/23 18:54:02 METAR K12N 052354Z 17003KT 10/07 A2992 RMK AO1 SLP137 T01000072 10122 20094 50010EQDR01      7SKY009R02      7GAS009
0154724077547792023010600547+41009-074736FM-15+0178K12N V0209999C000059999999N9999997N5+01005+00725101415ADDAA101000095MA1101355099235REMMET08101/05/23 19:54:01 METAR K12N 060054Z 00000KT 10/07 A2993 RMK AO1 SLP141 T01000072EQDR01      7SKY009R02      7GAS009
0154724077547792023010601547+41009-074736FM-15+0178K12N V0209999C000059999999N9999997N5+00945+00725101415ADDAA101000095MA1101395099275REMMET08101/05/23 20:54:01 METAR K12N 060154Z 00000KT 09/07 A2994 RMK AO1 SLP141 T00940072EQDR01      7SKY009R02      7GAS009
0174724077547792023010602547+41009-074736FM-15+0178K12N V0209999C000059999999N9999997N5+00945+00675101435ADDAA101000095MA1101425099305MD1190079+9999REMMET08701/05/23 21:54:01 METAR K12N 060254Z 00000KT 09/07 A2995 RMK AO1 SLP143 T00940067 51007EQDR01      7SKY009R02      7GAS009
0196724077547792023010604547+41009-074736FM-15+0178K12N V0202405N001559999999N9999997N5+00895+00675101435ADDAA101001895KA1240M+01221KA2240N+00561MA1101425099305REMMET09701/05/23 23:54:02 METAR K12N 060454Z 24003KT 09/07 A2995 RMK AO1 SLP143 P0004 T00890067 401220056EQDR01      7SKY009R02      7GAS009
0902724077547792023010604596+41009-074736SOD  +0178K12N V020999999999999999999999999999+99999+99999999999ADDAA124001896KA1240M+01225KA2240N+00565MG1099104100914OE11240035804010035OE22240031303011565OE33240004999999995REMSOD73024 HR PRECIPITATION (IN):0.07  24 HR MAX TEMP (F):54 24 HR MAX TEMP TIME (LST):1409 24 HR MIN TEMP (F):42 24 HR MIN TEMP TIME (LST):0818 AVERAGE STATION PRESSURE:29.265 MINIMUM SEA LEVEL PRESSURE:29.80 TIME OF OCCURRENCE:0124 PEAK WIND SPEED (MPH):8   PEAK WIND DIR (DEG):40  PEAK WIND TIME (LST):1003  FASTEST 2MIN SPEED (MPH):7  FASTEST 2MIN DIR (DEG):30  FASTEST 2MIN TIME (LST):1156 AVERAGE WIND SPEED (MPH):1.1  24 HR AVG TEMP (F):48 HEATING DEGREE DAYS:17  COOLING DEGREE DAYS:0   LATEST DAY MAX TEMP (0700-1900 LST):54  LATEST NIGHT MIN TEMP(1900-0800 LST):43 HOURLY INCREMENTAL PRECIPITATION VALUES (IN):.00 0.00 0.00 0.00 0.00 0.00 0.00 0.00 0.00 0.00 0.00 0.00 0.00 0.00 0.00 0.00 0.00 0.00 0.00 0.00 0.00 0.00 0.00 0.07EQDR01  0.077AAP092R02     N7GJS072R03     N7GKS075
0231724077547792023010605547+41009-074736FM-15+0178K12N V0209999C000059999999N9999997N5+00785+00505101445ADDAA101004195AA206005691KA1060M+01061KA2060N+00721MA1101425099305REMMET10501/06/23 00:54:02 METAR K12N 060554Z 00000KT 08/05 A2995 RMK AO1 SLP144 P0018 60022 T00780050 10106 20072EQDQ01  00558PRCP06R01      7SKY009R02      7GAS009
0160724077547792023010606547+41009-074736FM-15+0178K12N V0209999C000059999999N9999997N5+00675+00505101495ADDAA101002095MA1101465099335REMMET08701/06/23 01:54:02 METAR K12N 060654Z 00000KT 07/05 A2996 RMK AO1 SLP149 P0009 T00670050EQDR01      7SKY009R02      7GAS009
0160724077547792023010607547+41009-074736FM-15+0178K12N V0209999C000059999999N9999997N5+00675+00505101525ADDAA101001395MA1101495099375REMMET08701/06/23 02:54:02 METAR K12N 060754Z 00000KT 07/05 A2997 RMK AO1 SLP152 P0004 T00670050EQDR01      7SKY009R02      7GAS009
0213724077547792023010608547+41009-074736FM-15+0178K12N V0201205N001559999999N9999997N5+00675+00395101425ADDAA101000595AA203004191MA1101395099275MD1890039+9999REMMET09901/06/23 03:54:02 METAR K12N 060854Z 12003KT 07/04 A2994 RMK AO1 SLP142 P0003 60016 T00670039 58003EQDQ01  00408PRCP03R01      7SKY009R02      7GAS009
0154724077547792023010609547+41009-074736FM-15+0178K12N V0209999C000059999999N9999997N5+00615+00395101385ADDAA101000095MA1101355099235REMMET08101/06/23 04:54:02 METAR K12N 060954Z 00000KT 06/04 A2993 RMK AO1 SLP138 T00610039EQDR01      7SKY009R02      7GAS009
0154724077547792023010610547+41009-074736FM-15+0178K12N V0209999C000059999999N9999997N5+00445+00285101365ADDAA101000095MA1101325099205REMMET08101/06/23 05:54:02 METAR K12N 061054Z 00000KT 04/03 A2992 RMK AO1 SLP136 T00440028EQDR01      7SKY009R02      7GAS009
0262724077547792023010611547+41009-074736FM-15+0178K12N V0209999C000059999999N9999997N5+00445+00335101445ADDAA101000095AA206004191AA324009791KA1060M+00781KA2060N+00441MA1101395099275MD1390019+9999REMMET11101/06/23 06:54:02 METAR K12N 061154Z 00000KT 04/03 A2994 RMK AO1 SLP144 60016 70038 T00440033 10078 20044 53001EQDQ01  00968PRCP24R01      7SKY009R02      7GAS009
0154724077547792023010612547+41009-074736FM-15+0178K12N V0209999C000059999999N9999997N5+00445+00285101495ADDAA101000095MA1101465099335REMMET08101/06/23 07:54:02 METAR K12N 061254Z 00000KT 04/03 A2996 RMK AO1 SLP149 T00440028EQDR01      7SKY009R02      7GAS009
0154724077547792023010613547+41009-074736FM-15+0178K12N V0209999C000059999999N9999997N5+00565+00395101545ADDAA101000095MA1101495099375REMMET08101/06/23 08:54:02 METAR K12N 061354Z 00000KT 06/04 A2997 RMK AO1 SLP154 T00560039EQDR01      7SKY009R02      7GAS009
0174724077547792023010614547+41009-074736FM-15+0178K12N V0209999C000059999999N9999997N5+00675+00445101595ADDAA101000095MA1101565099435MD1290149+9999REMMET08701/06/23 09:54:02 METAR K12N 061454Z 00000KT 07/04 A2999 RMK AO1 SLP159 T00670044 52014EQDR01      7SKY009R02      7GAS009
0153724077547792023010615547+41009-074736FM-15+0178K12N V0209999V001559999999N9999997N5+00785+00505999999ADDAA101000095MA1101525099405REMMET08001/06/23 10:54:02 METAR K12N 061554Z VRB03KT 08/05 A2998 RMK AO1 SLPNO T00780050EQDR01      7SKY009R02      7GAS009
0154724077547792023010616547+41009-074736FM-15+0178K12N V0209999C000059999999N9999997N5+00835+00445101475ADDAA101000095MA1101465099335REMMET08101/06/23 11:54:02 METAR K12N 061654Z 00000KT 08/04 A2996 RMK AO1 SLP147 T00830044EQDR01      7SKY009R02      7GAS009
0212724077547792023010617547+41009-074736FM-15+0178K12N V0203005N002159999999N9999997N5+00725+00335101455ADDAA101000095KA1060M+00891KA2060N+00441MA1101425099305MD1890149+9999REMMET09901/06/23 12:54:02 METAR K12N 061754Z 30004KT 07/03 A2995 RMK AO1 SLP145 T00720033 10089 20044 58014EQDR01      7SKY009R02      7GAS009
0154724077547792023010618547+41009-074736FM-15+0178K12N V0209999V001559999999N9999997N5+00725+00285101475ADDAA101000095MA1101425099305REMMET08101/06/23 13:54:02 METAR K12N 061854Z VRB03KT 07/03 A2995 RMK AO1 SLP147 T00720028EQDR01      7SKY009R02      7GAS009
0154724077547792023010619547+41009-074736FM-15+0178K12N V0209999V002159999999N9999997N5+00725+00285101515ADDAA101000095MA1101495099375REMMET08101/06/23 14:54:02 METAR K12N 061954Z VRB04KT 07/03 A2997 RMK AO1 SLP151 T00720028EQDR01      7SKY009R02      7GAS009
0174724077547792023010620547+41009-074736FM-15+0178K12N V0209999C000059999999N9999997N5+00725+00115101595ADDAA101000095MA1101565099435MD1390149+9999REMMET08701/06/23 15:54:02 METAR K12N 062054Z 00000KT 07/01 A2999 RMK AO1 SLP159 T00720011 53014EQDR01      7SKY009R02      7GAS009
0154724077547792023010621547+41009-074736FM-15+0178K12N V0209999V002159999999N9999997N5+00675+00005101715ADDAA101000095MA1101665099535REMMET08101/06/23 16:54:02 METAR K12N 062154Z VRB04KT 07/00 A3002 RMK AO1 SLP171 T00670000EQDR01      7SKY009R02      7GAS009
0155724077547792023010622547+41009-074736FM-15+0178K12N V0209999V001559999999N9999997N5+00615-00065101805ADDAA101000095MA1101735099605REMMET08201/06/23 17:54:02 METAR K12N 062254Z VRB03KT 06/M01 A3004 RMK AO1 SLP180 T00611006EQDR01      7SKY009R02      7GAS009
0217724077547792023010623547+41009-074736FM-15+0178K12N V0209999C000059999999N9999997N5+00505-00065101895ADDAA101000095KA1060M+00781KA2060N+00501MA1101835099705MD1190279+9999REMMET10401/06/23 18:54:02 METAR K12N 062354Z 00000KT 05/M01 A3007 RMK AO1 SLP189 T00501006 10078 20050 51027 RTXEQDR01      7SKY009R02      7GAS009
0155724077547792023010700547+41009-074736FM-15+0178K12N V0209999C000059999999N9999997N5+00285-00065101985ADDAA101000095MA1101905099775REMMET08201/06/23 19:54:01 METAR K12N 070054Z 00000KT 03/M01 A3009 RMK AO1 SLP198 T00281006EQDR01      7SKY009R02      7GAS009
0155724077547792023010701547+41009-074736FM-15+0178K12N V0201705N001559999999N9999997N5+00225-00115102015ADDAA101000095MA1101935099805REMMET08201/06/23 20:54:01 METAR K12N 070154Z 17003KT 02/M01 A3010 RMK AO1 SLP201 T00221011EQDR01      7SKY009R02      7GAS009
0175724077547792023010702547+41009-074736FM-15+0178K12N V0209999C000059999999N9999997N5+00065-00175102035ADDAA101000095MA1101965099835MD1190139+9999REMMET08801/06/23 21:54:01 METAR K12N 070254Z 00000KT 01/M02 A3011 RMK AO1 SLP203 T00061017 51013EQDR01      7SKY009R02      7GAS009
0155724077547792023010703547+41009-074736FM-15+0178K12N V0209999C000059999999N9999997N5+00065-00175102065ADDAA101000095MA1102005099875REMMET08201/06/23 22:54:02 METAR K12N 070354Z 00000KT 01/M02 A3012 RMK AO1 SLP206 T00061017EQDR01      7SKY009R02      7GAS009
0191724077547792023010704547+41009-074736FM-15+0178K12N V0209999C000059999999N9999997N5+00005-00225102035ADDAA101000095KA1240M+00891KA2240N+00001MA1101965099835REMMET09201/06/23 23:54:02 METAR K12N 070454Z 00000KT 00/M02 A3011 RMK AO1 SLP203 T00001022 400890000EQDR01      7SKY009R02      7GAS009
0902724077547792023010704596+41009-074736SOD  +0178K12N V020999999999999999999999999999+99999+99999999999ADDAA124007996KA1240M+00895KA2240N+00005MG1099394101354OE11240058132016455OE22240035833016465OE33240005899999995REMSOD73024 HR PRECIPITATION (IN):0.31  24 HR MAX TEMP (F):48 24 HR MAX TEMP TIME (LST):1219 24 HR MIN TEMP (F):32 24 HR MIN TEMP TIME (LST):2359 AVERAGE STATION PRESSURE:29.350 MINIMUM SEA LEVEL PRESSURE:29.93 TIME OF OCCURRENCE:0601 PEAK WIND SPEED (MPH):13  PEAK WIND DIR (DEG):320 PEAK WIND TIME (LST):1645  FASTEST 2MIN SPEED (MPH):8  FASTEST 2MIN DIR (DEG):330 FASTEST 2MIN TIME (LST):1646 AVERAGE WIND SPEED (MPH):1.3  24 HR AVG TEMP (F):40 HEATING DEGREE DAYS:25  COOLING DEGREE DAYS:0   LATEST DAY MAX TEMP (0700-1900 LST):48  LATEST NIGHT MIN TEMP(1900-0800 LST):40 HOURLY INCREMENTAL PRECIPITATION VALUES (IN):.16 0.08 0.05 0.02 0.00 0.00 0.00 0.00 0.00 0.00 0.00 0.00 0.00 0.00 0.00 0.00 0.00 0.00 0.00 0.00 0.00 0.00 0.00 0.00EQDR01  0.317AAP092R02     N7GJS072R03     N7GKS075
0230724077547792023010705547+41009-074736FM-15+0178K12N V0209999C000059999999N9999997N5-00065-00335102045ADDAA101000095KA1060M+00501KA2060N-00061MA1101965099835MD1890009+9999REMMET10101/07/23 00:54:02 METAR K12N 070554Z 00000KT M01/M03 A3011 RMK AO1 SLP204 T10061033 10050 21006 58000EQDQ010     3APC3  R01      7SKY009R02      7GAS009
0156724077547792023010706547+41009-074736FM-15+0178K12N V0209999C000059999999N9999997N5-00115-00335102025ADDAA101000095MA1101935099805REMMET08301/07/23 01:54:02 METAR K12N 070654Z 00000KT M01/M03 A3010 RMK AO1 SLP202 T10111033EQDR01      7SKY009R02      7GAS009
0155724077547792023010707547+41009-074736FM-15+0178K12N V0209999C000059999999N9999997N5+00005-00225102045ADDAA101000095MA1101965099835REMMET08201/07/23 02:54:02 METAR K12N 070754Z 00000KT 00/M02 A3011 RMK AO1 SLP204 T00001022EQDR01      7SKY009R02      7GAS009
0175724077547792023010708547+41009-074736FM-15+0178K12N V0209999C000059999999N9999997N5+00065-00115102015ADDAA101000095MA1101935099805MD1890029+9999REMMET08801/07/23 03:54:02 METAR K12N 070854Z 00000KT 01/M01 A3010 RMK AO1 SLP201 T00061011 58002EQDR01      7SKY009R02      7GAS009
0155724077547792023010709547+41009-074736FM-15+0178K12N V0209999C000059999999N9999997N5+00115-00065102025ADDAA101000095MA1101965099835REMMET08201/07/23 04:54:02 METAR K12N 070954Z 00000KT 01/M01 A3011 RMK AO1 SLP202 T00111006EQDR01      7SKY009R02      7GAS009
0155724077547792023010710547+41009-074736FM-15+0178K12N V0209999C000059999999N9999997N5+00115-00065102045ADDAA101000095MA1101965099835REMMET08201/07/23 05:54:02 METAR K12N 071054Z 00000KT 01/M01 A3011 RMK AO1 SLP204 T00111006EQDR01      7SKY009R02      7GAS009
0213724077547792023010711547+41009-074736FM-15+0178K12N V0209999C000059999999N9999997N5+00175-00065102095ADDAA101000095KA1060M+00171KA2060N-00111MA1102005099875MD1390079+9999REMMET10001/07/23 06:54:02 METAR K12N 071154Z 00000KT 02/M01 A3012 RMK AO1 SLP209 T00171006 10017 21011 53007EQDR01      7SKY009R02      7GAS009
0154724077547792023010713547+41009-074736FM-15+0178K12N V0209999C000059999999N9999997N5+00225+00005102205ADDAA101000095MA1102105099965REMMET08101/07/23 08:54:02 METAR K12N 071354Z 00000KT 02/00 A3015 RMK AO1 SLP220 T00220000EQDR01      7SKY009R02      7GAS009
0155724077547792023010714547+41009-074736FM-15+0178K12N V0209999C000059999999N9999997N5+00395-00065102235ADDAA101000095MA1102135100005REMMET08201/07/23 09:54:02 METAR K12N 071454Z 00000KT 04/M01 A3016 RMK AO1 SLP223 T00391006EQDR01      7SKY009R02      7GAS009
0155724077547792023010715547+41009-074736FM-15+0178K12N V0209999C000059999999N9999997N5+00505-00065102195ADDAA101000095MA1102105099965REMMET08201/07/23 10:54:02 METAR K12N 071554Z 00000KT 05/M01 A3015 RMK AO1 SLP219 T00501006EQDR01      7SKY009R02      7GAS009
0155724077547792023010716547+41009-074736FM-15+0178K12N V0209999V001559999999N9999997N5+00615-00115102115ADDAA101000095MA1102035099905REMMET08201/07/23 11:54:02 METAR K12N 071654Z VRB03KT 06/M01 A3013 RMK AO1 SLP211 T00611011EQDR01      7SKY009R02      7GAS009
0213724077547792023010717547+41009-074736FM-15+0178K12N V0209999V001559999999N9999997N5+00565-00175102085ADDAA101000095KA1060M+00611KA2060N+00111MA1102005099875MD1890139+9999REMMET10001/07/23 12:54:02 METAR K12N 071754Z VRB03KT 06/M02 A3012 RMK AO1 SLP208 T00561017 10061 20011 58013EQDR01      7SKY009R02      7GAS009
0155724077547792023010718547+41009-074736FM-15+0178K12N V0209999V002159999999N9999997N5+00565-00175102095ADDAA101000095MA1102005099875REMMET08201/07/23 13:54:02 METAR K12N 071854Z VRB04KT 06/M02 A3012 RMK AO1 SLP209 T00561017EQDR01      7SKY009R02      7GAS009
0155724077547792023010719547+41009-074736FM-15+0178K12N V0203305N002659999999N9999997N5+00615-00175102105ADDAA101000095MA1102035099905REMMET08201/07/23 14:54:02 METAR K12N 071954Z 33005KT 06/M02 A3013 RMK AO1 SLP210 T00611017EQDR01      7SKY009R02      7GAS009
0175724077547792023010720547+41009-074736FM-15+0178K12N V0209999V001559999999N9999997N5+00565-00175102135ADDAA101000095MA1102075099935MD1390059+9999REMMET08801/07/23 15:54:02 METAR K12N 072054Z VRB03KT 06/M02 A3014 RMK AO1 SLP213 T00561017 53005EQDR01      7SKY009R02      7GAS009
0155724077547792023010721547+41009-074736FM-15+0178K12N V0209999C000059999999N9999997N5+00505-00175102165ADDAA101000095MA1102075099935REMMET08201/07/23 16:54:02 METAR K12N 072154Z 00000KT 05/M02 A3014 RMK AO1 SLP216 T00501017EQDR01      7SKY009R02      7GAS009
0155724077547792023010722547+41009-074736FM-15+0178K12N V0209999C000059999999N9999997N5+00335-00115102265ADDAA101000095MA1102175100035REMMET08201/07/23 17:54:02 METAR K12N 072254Z 00000KT 03/M01 A3017 RMK AO1 SLP226 T00331011EQDR01      7SKY009R02      7GAS009
0213724077547792023010723547+41009-074736FM-15+0178K12N V0209999C000059999999N9999997N5+00115-00175102355ADDAA101000095KA1060M+00721KA2060N+00061MA1102275100135MD1390219+9999REMMET10001/07/23 18:54:02 METAR K12N 072354Z 00000KT 01/M02 A3020 RMK AO1 SLP235 T00111017 10072 20006 53021EQDR01      7SKY009R02      7GAS009
0155724077547792023010800547+41009-074736FM-15+0178K12N V0209999C000059999999N9999997N5+00225-00115102415ADDAA101000095MA1102345100205REMMET08201/07/23 19:54:01 METAR K12N 080054Z 00000KT 02/M01 A3022 RMK AO1 SLP241 T00221011EQDR01      7SKY009R02      7GAS009
0155724077547792023010801547+41009-074736FM-15+0178K12N V0203305N002159999999N9999997N5+00445-00225102435ADDAA101000095MA1102345100205REMMET08201/07/23 20:54:01 METAR K12N 080154Z 33004KT 04/M02 A3022 RMK AO1 SLP243 T00441022EQDR01      7SKY009R02      7GAS009
0175724077547792023010802547+41009-074736FM-15+0178K12N V0203305N003659999999N9999997N5+00445-00335102435ADDAA101000095MA1102375100235MD1190109+9999REMMET08801/07/23 21:54:01 METAR K12N 080254Z 33007KT 04/M03 A3023 RMK AO1 SLP243 T00441033 51010EQDR01      7SKY009R02      7GAS009
0155724077547792023010803547+41009-074736FM-15+0178K12N V0209999V001559999999N9999997N5+00445-00395102465ADDAA101000095MA1102405100265REMMET08201/07/23 22:54:02 METAR K12N 080354Z VRB03KT 04/M04 A3024 RMK AO1 SLP246 T00441039EQDR01      7SKY009R02      7GAS009
0191724077547792023010804547+41009-074736FM-15+0178K12N V0209999V003159999999N9999997N5+00395-00395102495ADDAA101000095KA1240M+00721KA2240N-00111MA1102445100305REMMET09201/07/23 23:54:02 METAR K12N 080454Z VRB06KT 04/M04 A3025 RMK AO1 SLP249 T00391039 400721011EQDR01      7SKY009R02      7GAS009
0886724077547792023010804596+41009-074736SOD  +0178K12N V020999999999999999999999999999+99999+99999999999ADDAA124000095KA1240M+00725KA2240N-00105MG1099924102004OE11240089434023435OE22240053635023465OE33240008099999995REMSOD73024 HR PRECIPITATION (IN):0.00  24 HR MAX TEMP (F):45 24 HR MAX TEMP TIME (LST):1426 24 HR MIN TEMP (F):30 24 HR MIN TEMP TIME (LST):0238 AVERAGE STATION PRESSURE:29.505 MINIMUM SEA LEVEL PRESSURE:30.12 TIME OF OCCURRENCE:0450 PEAK WIND SPEED (MPH):20  PEAK WIND DIR (DEG):340 PEAK WIND TIME (LST):2343  FASTEST 2MIN SPEED (MPH):12 FASTEST 2MIN DIR (DEG):350 FASTEST 2MIN TIME (LST):2346 AVERAGE WIND SPEED (MPH):1.8  24 HR AVG TEMP (F):38 HEATING DEGREE DAYS:27  COOLING DEGREE DAYS:0   LATEST DAY MAX TEMP (0700-1900 LST):45  LATEST NIGHT MIN TEMP(1900-0800 LST):30 HOURLY INCREMENTAL PRECIPITATION VALUES (IN):.00 0.00 0.00 0.00 0.00 0.00 0.00 0.00 0.00 0.00 0.00 0.00 0.00 0.00 0.00 0.00 0.00 0.00 0.00 0.00 0.00 0.00 0.00 0.00EQDR01     N7GJS072R02     N7GKS075
0213724077547792023010805547+41009-074736FM-15+0178K12N V0203405N004159999999N9999997N5+00285-00445102535ADDAA101000095KA1060M+00441KA2060N+00111MA1102475100335MD1390099+9999REMMET10001/08/23 00:54:02 METAR K12N 080554Z 34008KT 03/M04 A3026 RMK AO1 SLP253 T00281044 10044 20011 53009EQDR01      7SKY009R02      7GAS009
0155724077547792023010806547+41009-074736FM-15+0178K12N V0203505N003159999999N9999997N5+00225-00505102555ADDAA101000095MA1102475100335REMMET08201/08/23 01:54:02 METAR K12N 080654Z 35006KT 02/M05 A3026 RMK AO1 SLP255 T00221050EQDR01      7SKY009R02      7GAS009
0155724077547792023010807547+41009-074736FM-15+0178K12N V0209999C000059999999N9999997N5+00005-00505102625ADDAA101000095MA1102545100405REMMET08201/08/23 02:54:02 METAR K12N 080754Z 00000KT 00/M05 A3028 RMK AO1 SLP262 T00001050EQDR01      7SKY009R02      7GAS009
0175724077547792023010808547+41009-074736FM-15+0178K12N V0209999V001559999999N9999997N5+00065-00565102645ADDAA101000095MA1102575100435MD1390109+9999REMMET08801/08/23 03:54:02 METAR K12N 080854Z VRB03KT 01/M06 A3029 RMK AO1 SLP264 T00061056 53010EQDR01      7SKY009R02      7GAS009
0155724077547792023010809547+41009-074736FM-15+0178K12N V0209999V002659999999N9999997N5+00065-00675102705ADDAA101000095MA1102615100465REMMET08201/08/23 04:54:02 METAR K12N 080954Z VRB05KT 01/M07 A3030 RMK AO1 SLP270 T00061067EQDR01      7SKY009R02      7GAS009
0155724077547792023010810547+41009-074736FM-15+0178K12N V0209999C000059999999N9999997N5+00065-00725102735ADDAA101000095MA1102645100505REMMET08201/08/23 05:54:02 METAR K12N 081054Z 00000KT 01/M07 A3031 RMK AO1 SLP273 T00061072EQDR01      7SKY009R02      7GAS009
0213724077547792023010811547+41009-074736FM-15+0178K12N V0209999C000059999999N9999997N5+00005-00675102735ADDAA101000095KA1060M+00281KA2060N-00111MA1102645100505MD1090079+9999REMMET10001/08/23 06:54:02 METAR K12N 081154Z 00000KT 00/M07 A3031 RMK AO1 SLP273 T00001067 10028 21011 50007EQDR01      7SKY009R02      7GAS009
0156724077547792023010812547+41009-074736FM-15+0178K12N V0203305N001559999999N9999997N5-00115-00675102725ADDAA101000095MA1102615100465REMMET08301/08/23 07:54:02 METAR K12N 081254Z 33003KT M01/M07 A3030 RMK AO1 SLP272 T10111067EQDR01      7SKY009R02      7GAS009
0155724077547792023010813547+41009-074736FM-15+0178K12N V0209999C000059999999N9999997N5+00115-00565102765ADDAA101000095MA1102685100535REMMET08201/08/23 08:54:02 METAR K12N 081354Z 00000KT 01/M06 A3032 RMK AO1 SLP276 T00111056EQDR01      7SKY009R02      7GAS009
0175724077547792023010814547+41009-074736FM-15+0178K12N V0209999C000059999999N9999997N5+00225-00615102795ADDAA101000095MA1102715100565MD1390079+9999REMMET08801/08/23 09:54:02 METAR K12N 081454Z 00000KT 02/M06 A3033 RMK AO1 SLP279 T00221061 53007EQDR01      7SKY009R02      7GAS009
0155724077547792023010815547+41009-074736FM-15+0178K12N V0200305N002659999999N9999997N5+00285-00615102725ADDAA101000095MA1102645100505REMMET08201/08/23 10:54:02 METAR K12N 081554Z 03005KT 03/M06 A3031 RMK AO1 SLP272 T00281061EQDR01      7SKY009R02      7GAS009
0155724077547792023010816547+41009-074736FM-15+0178K12N V0209999C000059999999N9999997N5+00395-00615102635ADDAA101000095MA1102575100435REMMET08201/08/23 11:54:02 METAR K12N 081654Z 00000KT 04/M06 A3029 RMK AO1 SLP263 T00391061EQDR01      7SKY009R02      7GAS009
0213724077547792023010817547+41009-074736FM-15+0178K12N V0209999C000059999999N9999997N5+00395-00725102555ADDAA101000095KA1060M+00501KA2060N-00111MA1102475100335MD1890239+9999REMMET10001/08/23 12:54:02 METAR K12N 081754Z 00000KT 04/M07 A3026 RMK AO1 SLP255 T00391072 10050 21011 58023EQDR01      7SKY009R02      7GAS009
0155724077547792023010818547+41009-074736FM-15+0178K12N V0202005N002159999999N9999997N5+00505-00675102465ADDAA101000095MA1102375100235REMMET08201/08/23 13:54:02 METAR K12N 081854Z 20004KT 05/M07 A3023 RMK AO1 SLP246 T00501067EQDR01      7SKY009R02      7GAS009
0155724077547792023010819547+41009-074736FM-15+0178K12N V0209999C000059999999N9999997N5+00445-00675102385ADDAA101000095MA1102305100165REMMET08201/08/23 14:54:02 METAR K12N 081954Z 00000KT 04/M07 A3021 RMK AO1 SLP238 T00441067EQDR01      7SKY009R02      7GAS009
0175724077547792023010820547+41009-074736FM-15+0178K12N V0209999C000059999999N9999997N5+00445-00615102345ADDAA101000095MA1102275100135MD1690219+9999REMMET08801/08/23 15:54:02 METAR K12N 082054Z 00000KT 04/M06 A3020 RMK AO1 SLP234 T00441061 56021EQDR01      7SKY009R02      7GAS009
0155724077547792023010821547+41009-074736FM-15+0178K12N V0209999C000059999999N9999997N5+00225-00505102365ADDAA101000095MA1102275100135REMMET08201/08/23 16:54:02 METAR K12N 082154Z 00000KT 02/M05 A3020 RMK AO1 SLP236 T00221050EQDR01      7SKY009R02      7GAS009
0155724077547792023010822547+41009-074736FM-15+0178K12N V0209999C000059999999N9999997N5+00115-00395102305ADDAA101000095MA1102205100065REMMET08201/08/23 17:54:02 METAR K12N 082254Z 00000KT 01/M04 A3018 RMK AO1 SLP230 T00111039EQDR01      7SKY009R02      7GAS009
0213724077547792023010823547+41009-074736FM-15+0178K12N V0209999C000059999999N9999997N5+00005-00395102265ADDAA101000095KA1060M+00561KA2060N+00001MA1102175100035MD1890119+9999REMMET10001/08/23 18:54:02 METAR K12N 082354Z 00000KT 00/M04 A3017 RMK AO1 SLP226 T00001039 10056 20000 58011EQDR01      7SKY009R02      7GAS009
0156724077547792023010900547+41009-074736FM-15+0178K12N V0209999C000059999999N9999997N5-00065-00445102205ADDAA101000095MA1102105099965REMMET08301/08/23 19:54:01 METAR K12N 090054Z 00000KT M01/M04 A3015 RMK AO1 SLP220 T10061044EQDR01      7SKY009R02      7GAS009
0156724077547792023010901547+41009-074736FM-15+0178K12N V0209999C000059999999N9999997N5-00115-00395102175ADDAA101000095MA1102075099935REMMET08301/08/23 20:54:01 METAR K12N 090154Z 00000KT M01/M04 A3014 RMK AO1 SLP217 T10111039EQDR01      7SKY009R02      7GAS009
0176724077547792023010902547+41009-074736FM-15+0178K12N V0209999C000059999999N9999997N5-00065-00445102085ADDAA101000095MA1101965099835MD1890179+9999REMMET08901/08/23 21:54:01 METAR K12N 090254Z 00000KT M01/M04 A3011 RMK AO1 SLP208 T10061044 58017EQDR01      7SKY009R02      7GAS009
0155724077547792023010903547+41009-074736FM-15+0178K12N V0209999C000059999999N9999997N5+00065-00285101965ADDAA101000095MA1101865099735REMMET08201/08/23 22:54:01 METAR K12N 090354Z 00000KT 01/M03 A3008 RMK AO1 SLP196 T00061028EQDR01      7SKY009R02      7GAS009
0191724077547792023010904547+41009-074736FM-15+0178K12N V0209999C000059999999N9999997N5+00115-00225101885ADDAA101000095KA1240M+00561KA2240N-00111MA1101795099675REMMET09201/08/23 23:54:02 METAR K12N 090454Z 00000KT 01/M02 A3006 RMK AO1 SLP188 T00111022 400561011EQDR01      7SKY009R02      7GAS009
0886724077547792023010904596+41009-074736SOD  +0178K12N V020999999999999999999999999999+99999+99999999999ADDAA124000095KA1240M+00565KA2240N-00105MG1100274101864OE11240076033000365OE22240044735000585OE33240007299999995REMSOD73024 HR PRECIPITATION (IN):0.00  24 HR MAX TEMP (F):42 24 HR MAX TEMP TIME (LST):1313 24 HR MIN TEMP (F):30 24 HR MIN TEMP TIME (LST):2206 AVERAGE STATION PRESSURE:29.610 MINIMUM SEA LEVEL PRESSURE:30.08 TIME OF OCCURRENCE:2359 PEAK WIND SPEED (MPH):17  PEAK WIND DIR (DEG):330 PEAK WIND TIME (LST):0036  FASTEST 2MIN SPEED (MPH):10 FASTEST 2MIN DIR (DEG):350 FASTEST 2MIN TIME (LST):0058 AVERAGE WIND SPEED (MPH):1.6  24 HR AVG TEMP (F):36 HEATING DEGREE DAYS:29  COOLING DEGREE DAYS:0   LATEST DAY MAX TEMP (0700-1900 LST):42  LATEST NIGHT MIN TEMP(1900-0800 LST):30 HOURLY INCREMENTAL PRECIPITATION VALUES (IN):.00 0.00 0.00 0.00 0.00 0.00 0.00 0.00 0.00 0.00 0.00 0.00 0.00 0.00 0.00 0.00 0.00 0.00 0.00 0.00 0.00 0.00 0.00 0.00EQDR01     N7GJS072R02     N7GKS075
0213724077547792023010905547+41009-074736FM-15+0178K12N V0201505N001559999999N9999997N5+00175-00225101815ADDAA101000095KA1060M+00171KA2060N-00111MA1101735099605MD1690249+9999REMMET10001/09/23 00:54:02 METAR K12N 090554Z 15003KT 02/M02 A3004 RMK AO1 SLP181 T00171022 10017 21011 56024EQDR01      7SKY009R02      7GAS009
0155724077547792023010906547+41009-074736FM-15+0178K12N V0209999C000059999999N9999997N5+00175-00285101755ADDAA101000095MA1101665099535REMMET08201/09/23 01:54:02 METAR K12N 090654Z 00000KT 02/M03 A3002 RMK AO1 SLP175 T00171028EQDR01      7SKY009R02      7GAS009
0155724077547792023010907547+41009-074736FM-15+0178K12N V0209999C000059999999N9999997N5+00175-00225101665ADDAA101000095MA1101595099475REMMET08201/09/23 02:54:02 METAR K12N 090754Z 00000KT 02/M02 A3000 RMK AO1 SLP166 T00171022EQDR01      7SKY009R02      7GAS009
0175724077547792023010908547+41009-074736FM-15+0178K12N V0209999C000059999999N9999997N5+00175-00225101605ADDAA101000095MA1101525099405MD1790219+9999REMMET08801/09/23 03:54:02 METAR K12N 090854Z 00000KT 02/M02 A2998 RMK AO1 SLP160 T00171022 57021EQDR01      7SKY009R02      7GAS009
0155724077547792023010909547+41009-074736FM-15+0178K12N V0209999C000059999999N9999997N5+00115-00335101505ADDAA101000095MA1101425099305REMMET08201/09/23 04:54:02 METAR K12N 090954Z 00000KT 01/M03 A2995 RMK AO1 SLP150 T00111033EQDR01      7SKY009R02      7GAS009
0155724077547792023010910547+41009-074736FM-15+0178K12N V0209999C000059999999N9999997N5+00065-00285101495ADDAA101000095MA1101395099275REMMET08201/09/23 05:54:02 METAR K12N 091054Z 00000KT 01/M03 A2994 RMK AO1 SLP149 T00061028EQDR01      7SKY009R02      7GAS009
0213724077547792023010911547+41009-074736FM-15+0178K12N V0209999C000059999999N9999997N5+00065-00225101505ADDAA101000095KA1060M+00221KA2060N-00061MA1101425099305MD1590119+9999REMMET10001/09/23 06:54:02 METAR K12N 091154Z 00000KT 01/M02 A2995 RMK AO1 SLP150 T00061022 10022 21006 55011EQDR01      7SKY009R02      7GAS009
0155724077547792023010912547+41009-074736FM-15+0178K12N V0209999C000059999999N9999997N5+00065-00225101515ADDAA101000095MA1101395099275REMMET08201/09/23 07:54:02 METAR K12N 091254Z 00000KT 01/M02 A2994 RMK AO1 SLP151 T00061022EQDR01      7SKY009R02      7GAS009
0155724077547792023010913547+41009-074736FM-15+0178K12N V0209999C000059999999N9999997N5+00175-00175101525ADDAA101000095MA1101425099305REMMET08201/09/23 08:54:02 METAR K12N 091354Z 00000KT 02/M02 A2995 RMK AO1 SLP152 T00171017EQDR01      7SKY009R02      7GAS009
0175724077547792023010914547+41009-074736FM-15+0178K12N V0203505N003159999999N9999997N5+00445-00285101575ADDAA101000095MA1101495099375MD1390079+9999REMMET08801/09/23 09:54:02 METAR K12N 091454Z 35006KT 04/M03 A2997 RMK AO1 SLP157 T00441028 53007EQDR01      7SKY009R02      7GAS009
0155724077547792023010915547+41009-074736FM-15+0178K12N V0203505N002659999999N9999997N5+00445-00335101545ADDAA101000095MA1101465099335REMMET08201/09/23 10:54:02 METAR K12N 091554Z 35005KT 04/M03 A2996 RMK AO1 SLP154 T00441033EQDR01      7SKY009R02      7GAS009
0155724077547792023010916547+41009-074736FM-15+0178K12N V0209999C000059999999N9999997N5+00565-00335101445ADDAA101000095MA1101355099235REMMET08201/09/23 11:54:02 METAR K12N 091654Z 00000KT 06/M03 A2993 RMK AO1 SLP144 T00561033EQDR01      7SKY009R02      7GAS009
0213724077547792023010917547+41009-074736FM-15+0178K12N V0203105N003659999999N9999997N5+00615-00445101375ADDAA101000095KA1060M+00671KA2060N+00001MA1101295099175MD1890189+9999REMMET10001/09/23 12:54:02 METAR K12N 091754Z 31007KT 06/M04 A2991 RMK AO1 SLP137 T00611044 10067 20000 58018EQDR01      7SKY009R02      7GAS009
0155724077547792023010918547+41009-074736FM-15+0178K12N V0209999C000059999999N9999997N5+00615-00445101325ADDAA101000095MA1101255099135REMMET08201/09/23 13:54:02 METAR K12N 091854Z 00000KT 06/M04 A2990 RMK AO1 SLP132 T00611044EQDR01      7SKY009R02      7GAS009
0155724077547792023010919547+41009-074736FM-15+0178K12N V0203505V003659999999N9999997N5+00565-00565101325ADDAA101000095MA1101255099135REMMET08201/09/23 14:54:02 METAR K12N 091954Z 35007KT 06/M06 A2990 RMK AO1 SLP132 T00561056EQDR01      7SKY009R02      7GAS009
0175724077547792023010920547+41009-074736FM-15+0178K12N V0209999V001559999999N9999997N5+00565-00615101365ADDAA101000095MA1101295099175MD1590019+9999REMMET08801/09/23 15:54:02 METAR K12N 092054Z VRB03KT 06/M06 A2991 RMK AO1 SLP136 T00561061 55001EQDR01      7SKY009R02      7GAS009
0155724077547792023010921547+41009-074736FM-15+0178K12N V0209999C000059999999N9999997N5+00335-00565101375ADDAA101000095MA1101295099175REMMET08201/09/23 16:54:02 METAR K12N 092154Z 00000KT 03/M06 A2991 RMK AO1 SLP137 T00331056EQDR01      7SKY009R02      7GAS009
0155724077547792023010922547+41009-074736FM-15+0178K12N V0209999C000059999999N9999997N5+00115-00395101415ADDAA101000095MA1101325099205REMMET08201/09/23 17:54:02 METAR K12N 092254Z 00000KT 01/M04 A2992 RMK AO1 SLP141 T00111039EQDR01      7SKY009R02      7GAS009
0213724077547792023010923547+41009-074736FM-15+0178K12N V0209999C000059999999N9999997N5+00005-00445101455ADDAA101000095KA1060M+00671KA2060N-00061MA1101355099235MD1390069+9999REMMET10001/09/23 18:54:02 METAR K12N 092354Z 00000KT 00/M04 A2993 RMK AO1 SLP145 T00001044 10067 21006 53006EQDR01      7SKY009R02      7GAS009
0156724077547792023011000547+41009-074736FM-15+0178K12N V0209999C000059999999N9999997N5-00115-00445101445ADDAA101000095MA1101325099205REMMET08301/09/23 19:54:01 METAR K12N 100054Z 00000KT M01/M04 A2992 RMK AO1 SLP144 T10111044EQDR01      7SKY009R02      7GAS009
0155724077547792023011001547+41009-074736FM-15+0178K12N V0201805N001559999999N9999997N5+00225-00445101405ADDAA101000095MA1101325099205REMMET08201/09/23 20:54:01 METAR K12N 100154Z 18003KT 02/M04 A2992 RMK AO1 SLP140 T00221044EQDR01      7SKY009R02      7GAS009
0175724077547792023011002547+41009-074736FM-15+0178K12N V0201705N002159999999N9999997N5+00225-00505101445ADDAA101000095MA1101355099235MD1390029+9999REMMET08801/09/23 21:54:01 METAR K12N 100254Z 17004KT 02/M05 A2993 RMK AO1 SLP144 T00221050 53002EQDR01      7SKY009R02      7GAS009
0156724077547792023011003547+41009-074736FM-15+0178K12N V0209999C000059999999N9999997N5-00065-00505101475ADDAA101000095MA1101395099275REMMET08301/09/23 22:54:01 METAR K12N 100354Z 00000KT M01/M05 A2994 RMK AO1 SLP147 T10061050EQDR01      7SKY009R02      7GAS009
0192724077547792023011004547+41009-074736FM-15+0178K12N V0209999C000059999999N9999997N5-00065-00505101475ADDAA101000095KA1240M+00671KA2240N-00171MA1101395099275REMMET09301/09/23 23:54:01 METAR K12N 100454Z 00000KT M01/M05 A2994 RMK AO1 SLP147 T10061050 400671017EQDR01      7SKY009R02      7GAS009
0886724077547792023011004596+41009-074736SOD  +0178K12N V020999999999999999999999999999+99999+99999999999ADDAA124000095KA1240M+00675KA2240N-00165MG1099314101294OE11240080534013105OE22240053629014175OE33240008099999995REMSOD73024 HR PRECIPITATION (IN):0.00  24 HR MAX TEMP (F):44 24 HR MAX TEMP TIME (LST):1405 24 HR MIN TEMP (F):29 24 HR MIN TEMP TIME (LST):2339 AVERAGE STATION PRESSURE:29.325 MINIMUM SEA LEVEL PRESSURE:29.91 TIME OF OCCURRENCE:1409 PEAK WIND SPEED (MPH):18  PEAK WIND DIR (DEG):340 PEAK WIND TIME (LST):1310  FASTEST 2MIN SPEED (MPH):12 FASTEST 2MIN DIR (DEG):290 FASTEST 2MIN TIME (LST):1417 AVERAGE WIND SPEED (MPH):1.8  24 HR AVG TEMP (F):37 HEATING DEGREE DAYS:28  COOLING DEGREE DAYS:0   LATEST DAY MAX TEMP (0700-1900 LST):44  LATEST NIGHT MIN TEMP(1900-0800 LST):30 HOURLY INCREMENTAL PRECIPITATION VALUES (IN):.00 0.00 0.00 0.00 0.00 0.00 0.00 0.00 0.00 0.00 0.00 0.00 0.00 0.00 0.00 0.00 0.00 0.00 0.00 0.00 0.00 0.00 0.00 0.00EQDR01     N7GJS072R02     N7GKS075
0214724077547792023011005547+41009-074736FM-15+0178K12N V0209999C000059999999N9999997N5-00115-00445101475ADDAA101000095KA1060M+00221KA2060N-00171MA1101395099275MD1090029+9999REMMET10101/10/23 00:54:02 METAR K12N 100554Z 00000KT M01/M04 A2994 RMK AO1 SLP147 T10111044 10022 21017 50002EQDR01      7SKY009R02      7GAS009
0159724077547792023011006547+41009-074736FM-15+0178K12N V0209999C000059999999N9999997N5+00065-00395101515ADDAA101000095MA1101425099305REMMET08601/10/23 01:54:02 METAR K12N 100654Z 00000KT 01/M04 A2995 RMK AO1 SLP151 T00061039 RTXEQDR01      7SKY009R02      7GAS009
0155724077547792023011007547+41009-074736FM-15+0178K12N V0203305N001559999999N9999997N5+00285-00445101535ADDAA101000095MA1101465099335REMMET08201/10/23 02:54:02 METAR K12N 100754Z 33003KT 03/M04 A2996 RMK AO1 SLP153 T00281044EQDR01      7SKY009R02      7GAS009
0175724077547792023011008547+41009-074736FM-15+0178K12N V0209999V002659999999N9999997N5+00395-00395101535ADDAA101000095MA1101465099335MD1190089+9999REMMET08801/10/23 03:54:02 METAR K12N 100854Z VRB05KT 04/M04 A2996 RMK AO1 SLP153 T00391039 51008EQDR01      7SKY009R02      7GAS009
0155724077547792023011009547+41009-074736FM-15+0178K12N V0209999V002659999999N9999997N5+00395-00335101555ADDAA101000095MA1101495099375REMMET08201/10/23 04:54:02 METAR K12N 100954Z VRB05KT 04/M03 A2997 RMK AO1 SLP155 T00391033EQDR01      7SKY009R02      7GAS009
0155724077547792023011010547+41009-074736FM-15+0178K12N V0209999C000059999999N9999997N5+00335-00335101645ADDAA101000095MA1101565099435REMMET08201/10/23 05:54:02 METAR K12N 101054Z 00000KT 03/M03 A2999 RMK AO1 SLP164 T00331033EQDR01      7SKY009R02      7GAS009
0213724077547792023011011547+41009-074736FM-15+0178K12N V0209999V001559999999N9999997N5+00395-00335101695ADDAA101000095KA1060M+00391KA2060N-00111MA1101595099475MD1390129+9999REMMET10001/10/23 06:54:02 METAR K12N 101154Z VRB03KT 04/M03 A3000 RMK AO1 SLP169 T00391033 10039 21011 53012EQDR01      7SKY009R02      7GAS009
0155724077547792023011012547+41009-074736FM-15+0178K12N V0203105N003159999999N9999997N5+00395-00335101715ADDAA101000095MA1101635099505REMMET08201/10/23 07:54:02 METAR K12N 101254Z 31006KT 04/M03 A3001 RMK AO1 SLP171 T00391033EQDR01      7SKY009R02      7GAS009
0155724077547792023011013547+41009-074736FM-15+0178K12N V0203305N001559999999N9999997N5+00445-00335101745ADDAA101000095MA1101665099535REMMET08201/10/23 08:54:02 METAR K12N 101354Z 33003KT 04/M03 A3002 RMK AO1 SLP174 T00441033EQDR01      7SKY009R02      7GAS009
0175724077547792023011014547+41009-074736FM-15+0178K12N V0209999C000059999999N9999997N5+00445-00285101795ADDAA101000095MA1101695099575MD1390119+9999REMMET08801/10/23 09:54:02 METAR K12N 101454Z 00000KT 04/M03 A3003 RMK AO1 SLP179 T00441028 53011EQDR01      7SKY009R02      7GAS009
0155724077547792023011015547+41009-074736FM-15+0178K12N V0209999V001559999999N9999997N5+00505-00285101765ADDAA101000095MA1101665099535REMMET08201/10/23 10:54:02 METAR K12N 101554Z VRB03KT 05/M03 A3002 RMK AO1 SLP176 T00501028EQDR01      7SKY009R02      7GAS009
0155724077547792023011016547+41009-074736FM-15+0178K12N V0209999V001559999999N9999997N5+00505-00225101715ADDAA101000095MA1101635099505REMMET08201/10/23 11:54:02 METAR K12N 101654Z VRB03KT 05/M02 A3001 RMK AO1 SLP171 T00501022EQDR01      7SKY009R02      7GAS009
0213724077547792023011017547+41009-074736FM-15+0178K12N V0209999C000059999999N9999997N5+00505-00225101685ADDAA101000095KA1060M+00501KA2060N+00391MA1101595099475MD1790119+9999REMMET10001/10/23 12:54:02 METAR K12N 101754Z 00000KT 05/M02 A3000 RMK AO1 SLP168 T00501022 10050 20039 57011EQDR01      7SKY009R02      7GAS009
0155724077547792023011018547+41009-074736FM-15+0178K12N V0203305N001559999999N9999997N5+00445-00175101695ADDAA101000095MA1101595099475REMMET08201/10/23 13:54:02 METAR K12N 101854Z 33003KT 04/M02 A3000 RMK AO1 SLP169 T00441017EQDR01      7SKY009R02      7GAS009
0155724077547792023011019547+41009-074736FM-15+0178K12N V0203305N003159999999N9999997N5+00445-00175101675ADDAA101000095MA1101595099475REMMET08201/10/23 14:54:02 METAR K12N 101954Z 33006KT 04/M02 A3000 RMK AO1 SLP167 T00441017EQDR01      7SKY009R02      7GAS009
0175724077547792023011020547+41009-074736FM-15+0178K12N V0209999C000059999999N9999997N5+00445-00175101705ADDAA101000095MA1101635099505MD1390049+9999REMMET08801/10/23 15:54:02 METAR K12N 102054Z 00000KT 04/M02 A3001 RMK AO1 SLP170 T00441017 53004EQDR01      7SKY009R02      7GAS009
0155724077547792023011021547+41009-074736FM-15+0178K12N V0209999C000059999999N9999997N5+00395-00175101755ADDAA101000095MA1101695099575REMMET08201/10/23 16:54:02 METAR K12N 102154Z 00000KT 04/M02 A3003 RMK AO1 SLP175 T00391017EQDR01      7SKY009R02      7GAS009
0159724077547792023011022547+41009-074736FM-15+0178K12N V0209999C000059999999N9999997N5+00395-00225101815ADDAA101000095MA1101735099605REMMET08601/10/23 17:54:02 METAR K12N 102254Z 00000KT 04/M02 A3004 RMK AO1 SLP181 T00391022 RTXEQDR01      7SKY009R02      7GAS009
0213724077547792023011023547+41009-074736FM-15+0178K12N V0209999C000059999999N9999997N5+00395-00395101875ADDAA101000095KA1060M+00501KA2060N+00391MA1101795099675MD1390169+9999REMMET10001/10/23 18:54:02 METAR K12N 102354Z 00000KT 04/M04 A3006 RMK AO1 SLP187 T00391039 10050 20039 53016EQDR01      7SKY009R02      7GAS009
0155724077547792023011100547+41009-074736FM-15+0178K12N V0209999C000059999999N9999997N5+00335-00335101885ADDAA101000095MA1101795099675REMMET08201/10/23 19:54:01 METAR K12N 110054Z 00000KT 03/M03 A3006 RMK AO1 SLP188 T00331033EQDR01      7SKY009R02      7GAS009
0155724077547792023011101547+41009-074736FM-15+0178K12N V0209999C000059999999N9999997N5+00285-00285101915ADDAA101000095MA1101835099705REMMET08201/10/23 20:54:01 METAR K12N 110154Z 00000KT 03/M03 A3007 RMK AO1 SLP191 T00281028EQDR01      7SKY009R02      7GAS009
0175724077547792023011102547+41009-074736FM-15+0178K12N V0209999C000059999999N9999997N5+00285-00225101965ADDAA101000095MA1101905099775MD1390099+9999REMMET08801/10/23 21:54:01 METAR K12N 110254Z 00000KT 03/M02 A3009 RMK AO1 SLP196 T00281022 53009EQDR01      7SKY009R02      7GAS009
0155724077547792023011103547+41009-074736FM-15+0178K12N V0209999C000059999999N9999997N5+00225-00225102015ADDAA101000095MA1101935099805REMMET08201/10/23 22:54:01 METAR K12N 110354Z 00000KT 02/M02 A3010 RMK AO1 SLP201 T00221022EQDR01      7SKY009R02      7GAS009
0191724077547792023011104547+41009-074736FM-15+0178K12N V0209999C000059999999N9999997N5+00225-00285102055ADDAA101000095KA1240M+00501KA2240N-00171MA1101965099835REMMET09201/10/23 23:54:01 METAR K12N 110454Z 00000KT 02/M03 A3011 RMK AO1 SLP205 T00221028 400501017EQDR01      7SKY009R02      7GAS009
0886724077547792023011104596+41009-074736SOD  +0178K12N V020999999999999999999999999999+99999+99999999999ADDAA124000095KA1240M+00505KA2240N-00165MG1099464101464OE11240067134004085OE22240040234004315OE33240008599999995REMSOD73024 HR PRECIPITATION (IN):0.00  24 HR MAX TEMP (F):41 24 HR MAX TEMP TIME (LST):1353 24 HR MIN TEMP (F):29 24 HR MIN TEMP TIME (LST):0035 AVERAGE STATION PRESSURE:29.370 MINIMUM SEA LEVEL PRESSURE:29.96 TIME OF OCCURRENCE:0123 PEAK WIND SPEED (MPH):15  PEAK WIND DIR (DEG):340 PEAK WIND TIME (LST):0408  FASTEST 2MIN SPEED (MPH):9  FASTEST 2MIN DIR (DEG):340 FASTEST 2MIN TIME (LST):0431 AVERAGE WIND SPEED (MPH):1.9  24 HR AVG TEMP (F):35 HEATING DEGREE DAYS:30  COOLING DEGREE DAYS:0   LATEST DAY MAX TEMP (0700-1900 LST):41  LATEST NIGHT MIN TEMP(1900-0800 LST):29 HOURLY INCREMENTAL PRECIPITATION VALUES (IN):.00 0.00 0.00 0.00 0.00 0.00 0.00 0.00 0.00 0.00 0.00 0.00 0.00 0.00 0.00 0.00 0.00 0.00 0.00 0.00 0.00 0.00 0.00 0.00EQDR01     N7GJS072R02     N7GKS075
0213724077547792023011105547+41009-074736FM-15+0178K12N V0209999C000059999999N9999997N5+00225-00225102035ADDAA101000095KA1060M+00391KA2060N+00171MA1101965099835MD1090079+9999REMMET10001/11/23 00:54:02 METAR K12N 110554Z 00000KT 02/M02 A3011 RMK AO1 SLP203 T00221022 10039 20017 50007EQDR01      7SKY009R02      7GAS009
0155724077547792023011106547+41009-074736FM-15+0178K12N V0209999C000059999999N9999997N5+00285-00335102075ADDAA101000095MA1102005099875REMMET08201/11/23 01:54:02 METAR K12N 110654Z 00000KT 03/M03 A3012 RMK AO1 SLP207 T00281033EQDR01      7SKY009R02      7GAS009
0155724077547792023011107547+41009-074736FM-15+0178K12N V0209999V002659999999N9999997N5+00225-00395102155ADDAA101000095MA1102075099935REMMET08201/11/23 02:54:02 METAR K12N 110754Z VRB05KT 02/M04 A3014 RMK AO1 SLP215 T00221039EQDR01      7SKY009R02      7GAS009
0175724077547792023011108547+41009-074736FM-15+0178K12N V0209999C000059999999N9999997N5+00175-00395102225ADDAA101000095MA1102135100005MD1390179+9999REMMET08801/11/23 03:54:02 METAR K12N 110854Z 00000KT 02/M04 A3016 RMK AO1 SLP222 T00171039 53017EQDR01      7SKY009R02      7GAS009
0155724077547792023011109547+41009-074736FM-15+0178K12N V0209999V002159999999N9999997N5+00115-00505102245ADDAA101000095MA1102175100035REMMET08201/11/23 04:54:02 METAR K12N 110954Z VRB04KT 01/M05 A3017 RMK AO1 SLP224 T00111050EQDR01      7SKY009R02      7GAS009
0155724077547792023011110547+41009-074736FM-15+0178K12N V0200305N002159999999N9999997N5+00065-00505102225ADDAA101000095MA1102135100005REMMET08201/11/23 05:54:02 METAR K12N 111054Z 03004KT 01/M05 A3016 RMK AO1 SLP222 T00061050EQDR01      7SKY009R02      7GAS009
0213724077547792023011111547+41009-074736FM-15+0178K12N V0200305N002659999999N9999997N5+00065-00505102295ADDAA101000095KA1060M+00281KA2060N+00061MA1102205100065MD1390069+9999REMMET10001/11/23 06:54:02 METAR K12N 111154Z 03005KT 01/M05 A3018 RMK AO1 SLP229 T00061050 10028 20006 53006EQDR01      7SKY009R02      7GAS009
0155724077547792023011112547+41009-074736FM-15+0178K12N V0209999C000059999999N9999997N5+00005-00565102345ADDAA101000095MA1102245100105REMMET08201/11/23 07:54:02 METAR K12N 111254Z 00000KT 00/M06 A3019 RMK AO1 SLP234 T00001056EQDR01      7SKY009R02      7GAS009
0155724077547792023011113547+41009-074736FM-15+0178K12N V0209999C000059999999N9999997N5+00065-00565102445ADDAA101000095MA1102345100205REMMET08201/11/23 08:54:02 METAR K12N 111354Z 00000KT 01/M06 A3022 RMK AO1 SLP244 T00061056EQDR01      7SKY009R02      7GAS009
0175724077547792023011114547+41009-074736FM-15+0178K12N V0200305N002159999999N9999997N5+00115-00505102455ADDAA101000095MA1102375100235MD1190159+9999REMMET08801/11/23 09:54:02 METAR K12N 111454Z 03004KT 01/M05 A3023 RMK AO1 SLP245 T00111050 51015EQDR01      7SKY009R02      7GAS009
0155724077547792023011115547+41009-074736FM-15+0178K12N V0209999C000059999999N9999997N5+00175-00505102495ADDAA101000095MA1102405100265REMMET08201/11/23 10:54:02 METAR K12N 111554Z 00000KT 02/M05 A3024 RMK AO1 SLP249 T00171050EQDR01      7SKY009R02      7GAS009
0155724077547792023011116547+41009-074736FM-15+0178K12N V0209999C000059999999N9999997N5+00285-00445102415ADDAA101000095MA1102345100205REMMET08201/11/23 11:54:02 METAR K12N 111654Z 00000KT 03/M04 A3022 RMK AO1 SLP241 T00281044EQDR01      7SKY009R02      7GAS009
0213724077547792023011117547+41009-074736FM-15+0178K12N V0209999V001559999999N9999997N5+00395-00565102335ADDAA101000095KA1060M+00391KA2060N+00001MA1102245100105MD1890109+9999REMMET10001/11/23 12:54:02 METAR K12N 111754Z VRB03KT 04/M06 A3019 RMK AO1 SLP233 T00391056 10039 20000 58010EQDR01      7SKY009R02      7GAS009
0155724077547792023011118547+41009-074736FM-15+0178K12N V0209999C000059999999N9999997N5+00395-00565102315ADDAA101000095MA1102245100105REMMET08201/11/23 13:54:02 METAR K12N 111854Z 00000KT 04/M06 A3019 RMK AO1 SLP231 T00391056EQDR01      7SKY009R02      7GAS009
0155724077547792023011119547+41009-074736FM-15+0178K12N V0209999N999999999999N9999997N5+00335-00565102315ADDAA101000095MA1102245100105REMMET08201/11/23 14:54:02 METAR K12N 111954Z      KT 03/M06 A3019 RMK AO1 SLP231 T00331056EQDR01      7SKY009R02      7GAS009
0175724077547792023011120547+41009-074736FM-15+0178K12N V0209999V002159999999N9999997N5+00395-00505102355ADDAA101000095MA1102275100135MD1390029+9999REMMET08801/11/23 15:54:02 METAR K12N 112054Z VRB04KT 04/M05 A3020 RMK AO1 SLP235 T00391050 53002EQDR01      7SKY009R02      7GAS009
0155724077547792023011121547+41009-074736FM-15+0178K12N V0209999C000059999999N9999997N5+00335-00505102395ADDAA101000095MA1102305100165REMMET08201/11/23 16:54:02 METAR K12N 112154Z 00000KT 03/M05 A3021 RMK AO1 SLP239 T00331050EQDR01      7SKY009R02      7GAS009
0155724077547792023011122547+41009-074736FM-15+0178K12N V0209999C000059999999N9999997N5+00285-00505102385ADDAA101000095MA1102305100165REMMET08201/11/23 17:54:02 METAR K12N 112254Z 00000KT 03/M05 A3021 RMK AO1 SLP238 T00281050EQDR01      7SKY009R02      7GAS009
0213724077547792023011123547+41009-074736FM-15+0178K12N V0209999C000059999999N9999997N5+00285-00505102415ADDAA101000095KA1060M+00441KA2060N+00281MA1102305100165MD1190059+9999REMMET10001/11/23 18:54:02 METAR K12N 112354Z 00000KT 03/M05 A3021 RMK AO1 SLP241 T00281050 10044 20028 51005EQDR01      7SKY009R02      7GAS009
0155724077547792023011200547+41009-074736FM-15+0178K12N V0209999C000059999999N9999997N5+00285-00565102375ADDAA101000095MA1102275100135REMMET08201/11/23 19:54:01 METAR K12N 120054Z 00000KT 03/M06 A3020 RMK AO1 SLP237 T00281056EQDR01      7SKY009R02      7GAS009
0155724077547792023011201547+41009-074736FM-15+0178K12N V0209999C000059999999N9999997N5+00285-00565102415ADDAA101000095MA1102305100165REMMET08201/11/23 20:54:01 METAR K12N 120154Z 00000KT 03/M06 A3021 RMK AO1 SLP241 T00281056EQDR01      7SKY009R02      7GAS009
0175724077547792023011202547+41009-074736FM-15+0178K12N V0209999C000059999999N9999997N5+00225-00565102455ADDAA101000095MA1102375100235MD1390049+9999REMMET08801/11/23 21:54:01 METAR K12N 120254Z 00000KT 02/M06 A3023 RMK AO1 SLP245 T00221056 53004EQDR01      7SKY009R02      7GAS009
0155724077547792023011203547+41009-074736FM-15+0178K12N V0209999C000059999999N9999997N5+00225-00565102435ADDAA101000095MA1102345100205REMMET08201/11/23 22:54:01 METAR K12N 120354Z 00000KT 02/M06 A3022 RMK AO1 SLP243 T00221056EQDR01      7SKY009R02      7GAS009
0191724077547792023011204547+41009-074736FM-15+0178K12N V0209999V001559999999N9999997N5+00225-00445102395ADDAA101000095KA1240M+00441KA2240N+00001MA1102305100165REMMET09201/11/23 23:54:01 METAR K12N 120454Z VRB03KT 02/M04 A3021 RMK AO1 SLP239 T00221044 400440000EQDR01      7SKY009R02      7GAS009
0886724077547792023011204596+41009-074736SOD  +0178K12N V020999999999999999999999999999+99999+99999999999ADDAA124000095KA1240M+00445KA2240N+00005MG1100034102034OE11240049203003005OE22240035803005175OE33240007299999995REMSOD73024 HR PRECIPITATION (IN):0.00  24 HR MAX TEMP (F):40 24 HR MAX TEMP TIME (LST):1348 24 HR MIN TEMP (F):32 24 HR MIN TEMP TIME (LST):0805 AVERAGE STATION PRESSURE:29.540 MINIMUM SEA LEVEL PRESSURE:30.13 TIME OF OCCURRENCE:0148 PEAK WIND SPEED (MPH):11  PEAK WIND DIR (DEG):30  PEAK WIND TIME (LST):0300  FASTEST 2MIN SPEED (MPH):8  FASTEST 2MIN DIR (DEG):30  FASTEST 2MIN TIME (LST):0517 AVERAGE WIND SPEED (MPH):1.6  24 HR AVG TEMP (F):36 HEATING DEGREE DAYS:29  COOLING DEGREE DAYS:0   LATEST DAY MAX TEMP (0700-1900 LST):40  LATEST NIGHT MIN TEMP(1900-0800 LST):32 HOURLY INCREMENTAL PRECIPITATION VALUES (IN):.00 0.00 0.00 0.00 0.00 0.00 0.00 0.00 0.00 0.00 0.00 0.00 0.00 0.00 0.00 0.00 0.00 0.00 0.00 0.00 0.00 0.00 0.00 0.00EQDR01     N7GJS072R02     N7GKS075
0202724077547792023011205547+41009-074736FM-15+0178K12N V0209999C000059999999N9999997N5+00285-00395102345ADDKA1060M+00281KA2060N+00221MA1102275100135MD1890109+9999REMMET10001/12/23 00:54:01 METAR K12N 120554Z 00000KT 03/M04 A3020 RMK AO1 SLP234 T00281039 10028 20022 58010EQDR01      7SKY009R02      7GAS009
0144724077547792023011206547+41009-074736FM-15+0178K12N V0209999C000059999999N9999997N5+00285-00335102305ADDMA1102245100105REMMET08201/12/23 01:54:01 METAR K12N 120654Z 00000KT 03/M03 A3019 RMK AO1 SLP230 T00281033EQDR01      7SKY009R02      7GAS009
0144724077547792023011207547+41009-074736FM-15+0178K12N V0209999V001559999999N9999997N5+00285-00225102255ADDMA1102175100035REMMET08201/12/23 02:54:01 METAR K12N 120754Z VRB03KT 03/M02 A3017 RMK AO1 SLP225 T00281022EQDR01      7SKY009R02      7GAS009
0164724077547792023011208547+41009-074736FM-15+0178K12N V0209999C000059999999N9999997N5+00335-00175102215ADDMA1102135100005MD1690129+9999REMMET08801/12/23 03:54:01 METAR K12N 120854Z 00000KT 03/M02 A3016 RMK AO1 SLP221 T00331017 56012EQDR01      7SKY009R02      7GAS009
0144724077547792023011209547+41009-074736FM-15+0178K12N V0209999C000059999999N9999997N5+00335-00115102185ADDMA1102105099965REMMET08201/12/23 04:54:01 METAR K12N 120954Z 00000KT 03/M01 A3015 RMK AO1 SLP218 T00331011EQDR01      7SKY009R02      7GAS009
0160724077547792023011210547+41009-074736FM-15+0178K12N V0209999C000059999999N9999997N5+00335+00065102185ADDAA101000395MA1102105099965REMMET08701/12/23 05:54:02 METAR K12N 121054Z 00000KT 03/01 A3015 RMK AO1 SLP218 P0001 T00330006EQDR01      7SKY009R02      7GAS009
0284724077547792023011211547+41009-074736FM-15+0178K12N V0209999C000059999999N9999997N5+00285+00115102205ADDAA101000595AA206000891AA324000891KA1060M+00391KA2060N+00221MA1102105099965MD1590029+9999REMMET11701/12/23 06:54:02 METAR K12N 121154Z 00000KT 03/01 A3015 RMK AO1 SLP220 P0002 60003 70003 T00280011 10039 20022 55002EQDQ01  00078PRCP06Q02  00078PRCP24R01      7SKY009R02      7GAS009
0160724077547792023011212547+41009-074736FM-15+0178K12N V0209999C000059999999N9999997N5+00335+00175102165ADDAA101000395MA1102075099935REMMET08701/12/23 07:54:02 METAR K12N 121254Z 00000KT 03/02 A3014 RMK AO1 SLP216 P0001 T00330017EQDR01      7SKY009R02      7GAS009
0160724077547792023011213547+41009-074736FM-15+0178K12N V0209999V001559999999N9999997N5+00445+00175102125ADDAA101000395MA1102035099905REMMET08701/12/23 08:54:02 METAR K12N 121354Z VRB03KT 04/02 A3013 RMK AO1 SLP212 P0001 T00440017EQDR01      7SKY009R02      7GAS009
0196724077547792023011214547+41009-074736FM-15+0178K12N V0209999C000059999999N9999997N5+00505+00285102145ADDAA103000591MA1102075099935MD1590049+9999REMMET09301/12/23 09:54:02 METAR K12N 121454Z 00000KT 05/03 A3014 RMK AO1 SLP214 60002 T00500028 55004EQDQ01  00058PRCP03R01      7SKY009R02      7GAS009
0143724077547792023011215547+41009-074736FM-15+0178K12N V0209999V002659999999N9999997N5+00565+00335102085ADDMA1102005099875REMMET08101/12/23 10:54:02 METAR K12N 121554Z VRB05KT 06/03 A3012 RMK AO1 SLP208 T00560033EQDR01      7SKY009R02      7GAS009
0150724077547792023011216547+41009-074736FM-15+0178K12N V0209999V001559999999N9999997N5+00615+00335101875ADDMA1101795099675REMMET08801/12/23 11:54:02 METAR K12N 121654Z VRB03KT 06/03 A3006 RMK AO1 PRESFR SLP187 T00610033EQDR01      7SKY009R02      7GAS009
0234724077547792023011217547+41009-074736FM-15+0178K12N V0209999C000059999999N9999997N5+00675+00395101705ADDAA106000591KA1060M+00671KA2060N+00281MA1101635099505MD1890429+9999REMMET10501/12/23 12:54:02 METAR K12N 121754Z 00000KT 07/04 A3001 RMK AO1 SLP170 60002 T00670039 10067 20028 58042EQDQ01  00058PRCP06R01      7SKY009R02      7GAS009
0143724077547792023011218547+41009-074736FM-15+0178K12N V0209999V001559999999N9999997N5+00785+00445101595ADDMA1101525099405REMMET08101/12/23 13:54:02 METAR K12N 121854Z VRB03KT 08/04 A2998 RMK AO1 SLP159 T00780044EQDR01      7SKY009R02      7GAS009
0143724077547792023011219547+41009-074736FM-15+0178K12N V0209999V001559999999N9999997N5+00835+00505101505ADDMA1101425099305REMMET08101/12/23 14:54:02 METAR K12N 121954Z VRB03KT 08/05 A2995 RMK AO1 SLP150 T00830050EQDR01      7SKY009R02      7GAS009
0170724077547792023011220547+41009-074736FM-15+0178K12N V0209999C000059999999N9999997N5+00895+00565101345ADDMA1101295099175MD1890359+9999REMMET09401/12/23 15:54:02 METAR K12N 122054Z 00000KT 09/06 A2991 RMK AO1 PRESFR SLP134 T00890056 58035EQDR01      7SKY009R02      7GAS009
0143724077547792023011221547+41009-074736FM-15+0178K12N V0209999C000059999999N9999997N5+00945+00615101205ADDMA1101155099035REMMET08101/12/23 16:54:02 METAR K12N 122154Z 00000KT 09/06 A2987 RMK AO1 SLP120 T00940061EQDR01      7SKY009R02      7GAS009
0143724077547792023011222547+41009-074736FM-15+0178K12N V0209999V002159999999N9999997N5+01005+00675101035ADDMA1100985098875REMMET08101/12/23 17:54:02 METAR K12N 122254Z VRB04KT 10/07 A2982 RMK AO1 SLP103 T01000067EQDR01      7SKY009R02      7GAS009
0251724077547792023011223547+41009-074736FM-15+0178K12N V0209999C000059999999N9999997N5+00895+00725101005ADDAA101001395AA206001391KA1060M+01001KA2060N+00671MA1100955098835MD1690339+9999REMMET11101/12/23 18:54:02 METAR K12N 122354Z 00000KT 09/07 A2981 RMK AO1 SLP100 P0005 60005 T00890072 10100 20067 56033EQDQ01  00128PRCP06R01      7SKY009R02      7GAS009
0143724077547792023011300547+41009-074736FM-15+0178K12N V0209999C000059999999N9999997N5+01065+00895100875ADDMA1100855098735REMMET08101/12/23 19:54:01 METAR K12N 130054Z 00000KT 11/09 A2978 RMK AO1 SLP087 T01060089EQDR01      7SKY009R02      7GAS009
0143724077547792023011301547+41009-074736FM-15+0178K12N V0202005N003159999999N9999997N5+01115+00945100715ADDMA1100685098575REMMET08101/12/23 20:54:01 METAR K12N 130154Z 20006KT 11/09 A2973 RMK AO1 SLP071 T01110094EQDR01      7SKY009R02      7GAS009
0213724077547792023011302547+41009-074736FM-15+0178K12N V0201905N003659999999N9999997N5+01175+00945100615ADDAA101000395AA203000391MA1100585098475MD1690379+9999REMMET09901/12/23 21:54:01 METAR K12N 130254Z 19007KT 12/09 A2970 RMK AO1 SLP061 P0001 60001 T01170094 56037EQDQ01  00028PRCP03R01      7SKY009R02      7GAS009
0160724077547792023011303547+41009-074736FM-15+0178K12N V0209999V002159999999N9999997N5+01225+01005100455ADDAA101000595MA1100445098335REMMET08701/12/23 22:54:01 METAR K12N 130354Z VRB04KT 12/10 A2966 RMK AO1 SLP045 P0002 T01220100EQDR01      7SKY009R02      7GAS009
0196724077547792023011304547+41009-074736FM-15+0178K12N V0209999V002659999999N9999997N5+01335+01005100325ADDAA101001895KA1240M+01331KA2240N+00221MA1100305098205REMMET09701/12/23 23:54:02 METAR K12N 130454Z VRB05KT 13/10 A2962 RMK AO1 SLP032 P0007 T01330100 401330022EQDR01      7SKY009R02      7GAS009
0251724077547792023011305547+41009-074736FM-15+0178K12N V0209999C000059999999N9999997N5+01225+01065100195ADDAA101002095AA206004691KA1060M+01331KA2060N+00891MA1100175098075MD1690409+9999REMMET11101/13/23 00:54:02 METAR K12N 130554Z 00000KT 12/11 A2958 RMK AO1 SLP019 P0008 60018 T01220106 10133 20089 56040EQDQ01  00458PRCP06R01      7SKY009R02      7GAS009
0160724077547792023011306547+41009-074736FM-15+0178K12N V0202005N002159999999N9999997N5+01285+01065100105ADDAA101001595MA1100075097975REMMET08701/13/23 01:54:02 METAR K12N 130654Z 20004KT 13/11 A2955 RMK AO1 SLP010 P0006 T01280106EQDR01      7SKY009R02      7GAS009
0143724077547792023011307547+41009-074736FM-15+0178K12N V0202105N003159999999N9999997N5+01335+01065100025ADDMA1100035097935REMMET08101/13/23 02:54:02 METAR K12N 130754Z 21006KT 13/11 A2954 RMK AO1 SLP002 T01330106EQDR01      7SKY009R02      7GAS009
0207724077547792023011308547+41009-074736FM-15+0178K12N V0201905V003659999999N9999997N5+01335+01005099915ADDAA103001591MA1099905097805MD1890259+9999OC100825REMMET09601/13/23 03:54:02 METAR K12N 130854Z 19007G16KT 13/10 A2950 RMK AO1 SLP991 60006 T01330100 58025EQDQ01  00158PRCP03R01      7SKY009R02      7GAS009
0154724077547792023011309547+41009-074736FM-15+0178K12N V0202105N005159999999N9999997N5+01335+00945099875ADDMA1099865097775OC100825REMMET08401/13/23 04:54:02 METAR K12N 130954Z 21010G16KT 13/09 A2949 RMK AO1 SLP987 T01330094EQDR01      7SKY009R02      7GAS009
0154724077547792023011310547+41009-074736FM-15+0178K12N V0202105N003659999999N9999997N5+01335+00945099945ADDMA1099935097835OC101135REMMET08401/13/23 05:54:02 METAR K12N 131054Z 21007G22KT 13/09 A2951 RMK AO1 SLP994 T01330094EQDR01      7SKY009R02      7GAS009
0284724077547792023011311547+41009-074736FM-15+0178K12N V0209999V002159999999N9999997N5+01285+00945099915ADDAA101000395AA206001891AA324008191KA1060M+01391KA2060N+01221MA1099905097805MD1590009+9999REMMET11701/13/23 06:54:02 METAR K12N 131154Z VRB04KT 13/09 A2950 RMK AO1 SLP991 P0001 60007 70032 T01280094 10139 20122 55000EQDQ01  00178PRCP06Q02  00818PRCP24R01      7SKY009R02      7GAS009
0160724077547792023011312547+41009-074736FM-15+0178K12N V0209999V002159999999N9999997N5+01175+01005099945ADDAA101000595MA1099935097835REMMET08701/13/23 07:54:02 METAR K12N 131254Z VRB04KT 12/10 A2951 RMK AO1 SLP994 P0002 T01170100EQDR01      7SKY009R02      7GAS009
0160724077547792023011313547+41009-074736FM-15+0178K12N V0209999C000059999999N9999997N5+01175+01005099945ADDAA101000395MA1099935097835REMMET08701/13/23 08:54:02 METAR K12N 131354Z 00000KT 12/10 A2951 RMK AO1 SLP994 P0001 T01170100EQDR01      7SKY009R02      7GAS009
0193724077547792023011314547+41009-074736FM-15+0178K12N V0209999V001559999999N9999997N5+01225+01005099995ADDAA101001395AA203002091MA1100005097905REMMET09301/13/23 09:54:02 METAR K12N 131454Z VRB03KT 12/10 A2953 RMK AO1 SLP999 P0005 60008 T01220100EQDQ01  00208PRCP03R01      7SKY009R02      7GAS009
0143724077547792023011315547+41009-074736FM-15+0178K12N V0209999V002659999999N9999997N5+01175+00785100065ADDMA1100075097975REMMET08101/13/23 10:54:02 METAR K12N 131554Z VRB05KT 12/08 A2955 RMK AO1 SLP006 T01170078EQDR01      7SKY009R02      7GAS009
0154724077547792023011316547+41009-074736FM-15+0178K12N V0203005N004159999999N9999997N5+00895+00395100155ADDMA1100145098035OC100775REMMET08401/13/23 11:54:02 METAR K12N 131654Z 30008G15KT 09/04 A2957 RMK AO1 SLP015 T00890039EQDR01      7SKY009R02      7GAS009
0234724077547792023011317547+41009-074736FM-15+0178K12N V0203605V004659999999N9999997N5+00725+00115100185ADDAA106002091KA1060M+01221KA2060N+00721MA1100175098075MD1190179+9999REMMET10501/13/23 12:54:02 METAR K12N 131754Z 36009KT 07/01 A2958 RMK AO1 SLP018 60008 T00720011 10122 20072 51017EQDQ01  00208PRCP06R01      7SKY009R02      7GAS009
0143724077547792023011318547+41009-074736FM-15+0178K12N V0203505N002659999999N9999997N5+00675+00005100245ADDMA1100245098135REMMET08101/13/23 13:54:02 METAR K12N 131854Z 35005KT 07/00 A2960 RMK AO1 SLP024 T00670000EQDR01      7SKY009R02      7GAS009
0144724077547792023011319547+41009-074736FM-15+0178K12N V0203205V004159999999N9999997N5+00505-00115100345ADDMA1100305098205REMMET08201/13/23 14:54:02 METAR K12N 131954Z 32008KT 05/M01 A2962 RMK AO1 SLP034 T00501011EQDR01      7SKY009R02      7GAS009
0164724077547792023011320547+41009-074736FM-15+0178K12N V0203505N004159999999N9999997N5+00445-00225100475ADDMA1100445098335MD1390279+9999REMMET08801/13/23 15:54:02 METAR K12N 132054Z 35008KT 04/M02 A2966 RMK AO1 SLP047 T00441022 53027EQDR01      7SKY009R02      7GAS009
0155724077547792023011321547+41009-074736FM-15+0178K12N V0203405N004159999999N9999997N5+00335-00285100545ADDMA1100515098405OC100985REMMET08501/13/23 16:54:02 METAR K12N 132154Z 34008G19KT 03/M03 A2968 RMK AO1 SLP054 T00331028EQDR01      7SKY009R02      7GAS009
0155724077547792023011322547+41009-074736FM-15+0178K12N V0203505N005159999999N9999997N5+00335-00335100665ADDMA1100615098505OC100825REMMET08501/13/23 17:54:02 METAR K12N 132254Z 35010G16KT 03/M03 A2971 RMK AO1 SLP066 T00331033EQDR01      7SKY009R02      7GAS009
0213724077547792023011323547+41009-074736FM-15+0178K12N V0203605N005159999999N9999997N5+00285-00395100635ADDKA1060M+00721KA2060N+00281MA1100585098475MD1090159+9999OC101085REMMET10301/13/23 18:54:02 METAR K12N 132354Z 36010G21KT 03/M04 A2970 RMK AO1 SLP063 T00281039 10072 20028 50015EQDR01      7SKY009R02      7GAS009
0155724077547792023011400547+41009-074736FM-15+0178K12N V0203505N003659999999N9999997N5+00285-00335100785ADDMA1100755098635OC101035REMMET08501/13/23 19:54:01 METAR K12N 140054Z 35007G20KT 03/M03 A2975 RMK AO1 SLP078 T00281033EQDR01      7SKY009R02      7GAS009
0155724077547792023011401547+41009-074736FM-15+0178K12N V0203405N005159999999N9999997N5+00225-00395100745ADDMA1100715098605OC100825REMMET08501/13/23 20:54:01 METAR K12N 140154Z 34010G16KT 02/M04 A2974 RMK AO1 SLP074 T00221039EQDR01      7SKY009R02      7GAS009
0175724077547792023011402547+41009-074736FM-15+0178K12N V0203405N005159999999N9999997N5+00225-00395100755ADDMA1100715098605MD1190129+9999OC100985REMMET09101/13/23 21:54:01 METAR K12N 140254Z 34010G19KT 02/M04 A2974 RMK AO1 SLP075 T00221039 51012EQDR01      7SKY009R02      7GAS009
0144724077547792023011403547+41009-074736FM-15+0178K12N V0203405V004659999999N9999997N5+00175-00395100705ADDMA1100645098535REMMET08201/13/23 22:54:01 METAR K12N 140354Z 34009KT 02/M04 A2972 RMK AO1 SLP070 T00171039EQDR01      7SKY009R02      7GAS009
0191724077547792023011404547+41009-074736FM-15+0178K12N V0203505N004159999999N9999997N5+00115-00445100735ADDKA1240M+01391KA2240N+00111MA1100685098575OC100985REMMET09501/13/23 23:54:02 METAR K12N 140454Z 35008G19KT 01/M04 A2973 RMK AO1 SLP073 T00111044 401390011EQDR01      7SKY009R02      7GAS009
0224724077547792023011405547+41009-074736FM-15+0178K12N V0203605V004159999999N9999997N5+00115-00505100725ADDAA101000095KA1060M+00281KA2060N+00111MA1100645098535MD1690069+9999OC101085REMMET10301/14/23 00:54:02 METAR K12N 140554Z 36008G21KT 01/M05 A2972 RMK AO1 SLP072 T00111050 10028 20011 56006EQDR01      7SKY009R02      7GAS009
0155724077547792023011406547+41009-074736FM-15+0178K12N V0203505N004659999999N9999997N5+00065-00505100805ADDAA101000095MA1100755098635REMMET08201/14/23 01:54:02 METAR K12N 140654Z 35009KT 01/M05 A2975 RMK AO1 SLP080 T00061050EQDR01      7SKY009R02      7GAS009
0155724077547792023011407547+41009-074736FM-15+0178K12N V0203405N004159999999N9999997N5+00065-00565100895ADDAA101000095MA1100815098705REMMET08201/14/23 02:54:02 METAR K12N 140754Z 34008KT 01/M06 A2977 RMK AO1 SLP089 T00061056EQDR01      7SKY009R02      7GAS009
0175724077547792023011408547+41009-074736FM-15+0178K12N V0209999V003159999999N9999997N5+00005-00565100925ADDAA101000095MA1100855098735MD1190189+9999REMMET08801/14/23 03:54:02 METAR K12N 140854Z VRB06KT 00/M06 A2978 RMK AO1 SLP092 T00001056 51018EQDR01      7SKY009R02      7GAS009
0155724077547792023011409547+41009-074736FM-15+0178K12N V0203505N004659999999N9999997N5+00005-00615100915ADDAA101000095MA1100815098705REMMET08201/14/23 04:54:02 METAR K12N 140954Z 35009KT 00/M06 A2977 RMK AO1 SLP091 T00001061EQDR01      7SKY009R02      7GAS009
0156724077547792023011410547+41009-074736FM-15+0178K12N V0203605N003159999999N9999997N5-00065-00615100955ADDAA101000095MA1100885098775REMMET08301/14/23 05:54:02 METAR K12N 141054Z 36006KT M01/M06 A2979 RMK AO1 SLP095 T10061061EQDR01      7SKY009R02      7GAS009
0242724077547792023011411547+41009-074736FM-15+0178K12N V0203505N003659999999N9999997N5-00065-00675100985ADDAA101000095AA224002091KA1060M+00111KA2060N-00061MA1100885098775MD1390059+9999OC100935REMMET11001/14/23 06:54:02 METAR K12N 141154Z 35007G18KT M01/M07 A2979 RMK AO1 SLP098 70008 T10061067 10011 21006 53005EQDR01      7SKY009R02      7GAS009
0167724077547792023011412547+41009-074736FM-15+0178K12N V0209999V002659999999N9999997N5-00115-00675101065ADDAA101000095MA1100955098835OC100775REMMET08601/14/23 07:54:02 METAR K12N 141254Z VRB05G15KT M01/M07 A2981 RMK AO1 SLP106 T10111067EQDR01      7SKY009R02      7GAS009
0167724077547792023011413547+41009-074736FM-15+0178K12N V0203505N005759999999N9999997N5-00115-00725101155ADDAA101000095MA1101055098935OC100985REMMET08601/14/23 08:54:02 METAR K12N 141354Z 35011G19KT M01/M07 A2984 RMK AO1 SLP115 T10111072EQDR01      7SKY009R02      7GAS009
0187724077547792023011414547+41009-074736FM-15+0178K12N V0203405V005759999999N9999997N5-00115-00725101215ADDAA101000095MA1101125099005MD1190229+9999OC100885REMMET09201/14/23 09:54:02 METAR K12N 141454Z 34011G17KT M01/M07 A2986 RMK AO1 SLP121 T10111072 51022EQDR01      7SKY009R02      7GAS009
0156724077547792023011415547+41009-074736FM-15+0178K12N V0203605N004659999999N9999997N5-00065-00725101275ADDAA101000095MA1101195099075REMMET08301/14/23 10:54:02 METAR K12N 141554Z 36009KT M01/M07 A2988 RMK AO1 SLP127 T10061072EQDR01      7SKY009R02      7GAS009
0167724077547792023011416547+41009-074736FM-15+0178K12N V0203505N005159999999N9999997N5-00065-00785101215ADDAA101000095MA1101125099005OC100825REMMET08601/14/23 11:54:02 METAR K12N 141654Z 35010G16KT M01/M08 A2986 RMK AO1 SLP121 T10061078EQDR01      7SKY009R02      7GAS009
0214724077547792023011417547+41009-074736FM-15+0178K12N V0203305V004659999999N9999997N5-00065-00785101215ADDAA101000095KA1060M-00061KA2060N-00111MA1101125099005MD1190019+9999REMMET10101/14/23 12:54:02 METAR K12N 141754Z 33009KT M01/M08 A2986 RMK AO1 SLP121 T10061078 11006 21011 51001EQDR01      7SKY009R02      7GAS009
