0132724084547602024010100564+40187-074125FM-15+004899999V0202201N001512200019N016093199+00391-00331101681ADDGF100991999999999999999999MA1101661999999REMMET079METAR KBLM 010056Z AUTO 22003KT 10SM CLR 04/M03 A3002 RMK AO2 SLP168 T00391033=
0132724084547602024010101564+40187-074125FM-15+004899999V0202101N001512200019N016093199+00391-00281101671ADDGF100991999999999999999999MA1101661999999REMMET079METAR KBLM 010156Z AUTO 21003KT 10SM CLR 04/M03 A3002 RMK AO2 SLP167 T00391028=
0199724084547602024010102564+40187-074125FM-15+004899999V0202001N002610149419N016093199+00221-00221101681ADDGD14991+0149419GE19AGL   +99999+99999GF199999999999014941999999MA1101691999999MD1510021+9999REMMET095METAR KBLM 010256Z AUTO 20005KT 10SM OVC049 02/M02 A3003 RMK AO2 SLP168 T00221022 55002 FZRANO=
0172724084547602024010103564+40187-074125FM-15+004899999V0202201N002610143319N016093199+00281-00221101731ADDGD13991+0143319GE19AGL   +99999+99999GF199999999999014331999999MA1101731999999REMMET082METAR KBLM 010356Z AUTO 22005KT 10SM BKN047 03/M02 A3004 RMK AO2 SLP173 T00281022=
0236724084547602024010104567+40183-074133FM-15+0048KBLM V0202205N00215014335MN0160935N5+00335-00225101715ADDGA1085+014335999GD14991+0143359GE19AGL   +99999+99999GF199999999999014331999999KA1240M+00561KA2240N+00061MA1101695101125REMMET10412/31/23 23:56:02 METAR KBLM 010456Z 22004KT 10SM OVC047 03/M02 A3003 RMK AO2 SLP171 T00331022 400560006
0258724084547602024010105567+40183-074133FM-15+0048KBLM V0202205N00155014945MN0160935N5+00335-00225101685ADDGA1085+014945999GD14991+0149459GE19AGL   +99999+99999GF199999999999014941999999KA1060M+00441KA2060N+00221MA1101665101085MD1890029+9999REMMET11201/01/24 00:56:02 METAR KBLM 010556Z 22003KT 10SM OVC049 03/M02 A3002 RMK AO2 SLP168 T00331022 10044 20022 58002
0200724084547602024010106567+40183-074133FM-15+0048KBLM V0202105N00215014335MN0160935N5+00335-00225101655ADDGA1085+014335999GD14991+0143359GE19AGL   +99999+99999GF199999999999014331999999MA1101635101055REMMET09401/01/24 01:56:02 METAR KBLM 010656Z 21004KT 10SM OVC047 03/M02 A3001 RMK AO2 SLP165 T00331022
0200724084547602024010107567+40183-074133FM-15+0048KBLM V0209999C00005014945MN0160935N5+00335-00115101635ADDGA1085+014945999GD14991+0149459GE19AGL   +99999+99999GF199999999999014941999999MA1101635101055REMMET09401/01/24 02:56:02 METAR KBLM 010756Z 00000KT 10SM OVC049 03/M01 A3001 RMK AO2 SLP163 T00331011
0220724084547602024010108567+40183-074133FM-15+0048KBLM V0202905N00155014335MN0160935N5+00335-00065101615ADDGA1085+014335999GD14991+0143359GE19AGL   +99999+99999GF199999999999014331999999MA1101595101015MD1690079+9999REMMET10001/01/24 03:56:02 METAR KBLM 010856Z 29003KT 10SM OVC047 03/M01 A3000 RMK AO2 SLP161 T00331006 56007
0258724084547602024010109567+40183-074133FM-15+0048KBLM V0202405N00215012805MN0160935N5+00285-00065101595ADDAA101000021AU110020015AW1615GA1085+012805999GD14991+0128059GE19AGL   +99999+99999GF199999999999012801999999MA1101595101015MW1615REMMET11801/01/24 04:56:02 METAR KBLM 010956Z 24004KT 10SM -RA OVC042 03/M01 A3000 RMK AO2 UPB39E49RAB49 SLP159 P0000 T00281006
0213724084547602024010110487+40183-074133FM-15+0048KBLM V0209999C00005008535MN0160935N5+00305+00005999999ADDAA101000021GA1085+008535999GD14991+0085359GE19AGL   +99999+99999GF199999999999008531999999MA1101595101015REMMET09601/01/24 05:48:02 METAR KBLM 011048Z 00000KT 10SM OVC028 03/00 A3000 RMK AO2 RAE03UPB03E15 P0000
0268724084547602024010110567+40183-074133FM-15+0048KBLM V0209999C00005008535MN0160935N5+00335+00005101595ADDAA101000021GA1075+008535999GA2085+010975999GD13991+0085359GD24991+0109759GE19AGL   +99999+99999GF199999999999008531999999MA1101595101015REMMET12001/01/24 05:56:02 METAR KBLM 011056Z 00000KT 10SM BKN028 OVC036 03/00 A3000 RMK AO2 RAE03UPB03E15 SLP159 P0000 T00330000
0220724084547602024010111327+40183-074133FM-15+0048KBLM V0209999C00005011585MN0160935N5+00305+00105999999ADDGA1045+007925999GA2085+011585999GD12991+0079259GD24991+0115859GE19AGL   +99999+99999GF199999999999007921999999MA1101635101055REMMET08301/01/24 06:32:02 METAR KBLM 011132Z 00000KT 10SM SCT026 OVC038 03/01 A3001 RMK AO2
0343724084547602024010111567+40183-074133FM-15+0048KBLM V0202905N00155011585MN0160935N5+00285+00065101665ADDAA101000021AA206000021AU110020015AW1615GA1085+011585999GD14991+0115859GE19AGL   +99999+99999GF199999999999011581999999KA1060M+00331KA2060N+00281MA1101665101085MD1390069+9999MW1615REMMET13301/01/24 06:56:02 METAR KBLM 011156Z 29003KT 10SM -RA OVC038 03/01 A3002 RMK AO2 RAB48 SLP166 P0000 60000 T00280006 10033 20028 53006EQDQ01  00008PRCP06
0268724084547602024010112567+40183-074133FM-15+0048KBLM V0203205N00215009755MN0160935N5+00285+00115101685ADDAA101000021GA1075+009755999GA2085+021345999GD13991+0097559GD24991+0213459GE19AGL   +99999+99999GF199999999999009751999999MA1101665101085REMMET12001/01/24 07:56:02 METAR KBLM 011256Z 32004KT 10SM BKN032 OVC070 03/01 A3002 RMK AO2 RAE01UPB07E33 SLP168 P0000 T00280011
0237724084547602024010113567+40183-074133FM-15+0048KBLM V0203405N00265014335MN0160935N5+00445+00005101725ADDGA1075+014335999GA2085+021345999GD13991+0143359GD24991+0213459GE19AGL   +99999+99999GF199999999999014331999999MA1101695101125REMMET10001/01/24 08:56:02 METAR KBLM 011356Z 34005KT 10SM BKN047 OVC070 04/00 A3003 RMK AO2 SLP172 T00440000
0255724084547602024010114567+40183-074133FM-15+0048KBLM V0200105N00265014335MN0160935N5+00505+00005101765ADDAA103000021GA1085+014335999GD14991+0143359GE19AGL   +99999+99999GF199999999999014331999999MA1101765101185MD1390109+9999REMMET10501/01/24 09:56:02 METAR KBLM 011456Z 01005KT 10SM OVC047 05/00 A3005 RMK AO2 SLP176 60000 T00500000 53010EQDQ01  00008PRCP03
0220724084547602024010115257+40183-074133FM-15+0048KBLM V0203405N00315008535MN0160935N5+00505+00105999999ADDGA1075+008535999GA2085+014335999GD13991+0085359GD24991+0143359GE19AGL   +99999+99999GF199999999999008531999999MA1101765101185REMMET08301/01/24 10:25:02 METAR KBLM 011525Z 34006KT 10SM BKN028 OVC047 05/01 A3005 RMK AO2
0237724084547602024010115567+40183-074133FM-15+0048KBLM V0200205N00155014945MN0160935N5+00565+00065101745ADDGA1045+008535999GA2085+014945999GD12991+0085359GD24991+0149459GE19AGL   +99999+99999GF199999999999008531999999MA1101735101155REMMET10001/01/24 10:56:02 METAR KBLM 011556Z 02003KT 10SM SCT028 OVC049 06/01 A3004 RMK AO2 SLP174 T00560006
0199724084547602024010116567+40183-074133FM-15+0048KBLM V0209999C00005013115MN0160935N5+00615+00065101695ADDGA1085+013115999GD14991+0131159GE19AGL   +99999+99999GF199999999999013111999999MA1101665101085REMMET09301/01/24 11:56:02 METAR KBLM 011656Z 00000KT 10SM OVC043 06/01 A3002 RMK AO2 SLP169 T00610006
0293724084547602024010117567+40183-074133FM-15+0048KBLM V0203505N00215030485MN0160935N5+00725+00115101635ADDAA106000021GA1075+030485999GD13991+0304859GE19AGL   +99999+99999GF199999999999030481999999KA1060M+00721KA2060N+00281MA1101635101055MD1890139+9999REMMET11701/01/24 12:56:02 METAR KBLM 011756Z 35004KT 10SM BKN100 07/01 A3001 RMK AO2 SLP163 60000 T00720011 10072 20028 58013EQDQ01  00008PRCP06
0237724084547602024010118567+40183-074133FM-15+0048KBLM V0203305N00155008235MN0160935N5+00725+00115101645ADDGA1075+008235999GA2085+030485999GD13991+0082359GD24991+0304859GE19AGL   +99999+99999GF199999999999008231999999MA1101635101055REMMET10001/01/24 13:56:02 METAR KBLM 011856Z 33003KT 10SM BKN027 OVC100 07/01 A3001 RMK AO2 SLP164 T00720011
0199724084547602024010119567+40183-074133FM-15+0048KBLM V0200105N00215008235MN0160935N5+00675+00115101685ADDGA1085+008235999GD14991+0082359GE19AGL   +99999+99999GF199999999999008231999999MA1101665101085REMMET09301/01/24 14:56:02 METAR KBLM 011956Z 01004KT 10SM OVC027 07/01 A3002 RMK AO2 SLP168 T00670011
0219724084547602024010120567+40183-074133FM-15+0048KBLM V0203205N00155009455MN0160935N5+00675+00065101695ADDGA1085+009455999GD14991+0094559GE19AGL   +99999+99999GF199999999999009451999999MA1101695101125MD1390059+9999REMMET09901/01/24 15:56:02 METAR KBLM 012056Z 32003KT 10SM OVC031 07/01 A3003 RMK AO2 SLP169 T00670006 53005
0237724084547602024010121567+40183-074133FM-15+0048KBLM V0203305N00155028965MN0160935N5+00615+00065101745ADDGA1045+011585999GA2085+028965999GD12991+0115859GD24991+0289659GE19AGL   +99999+99999GF199999999999011581999999MA1101735101155REMMET10001/01/24 16:56:02 METAR KBLM 012156Z 33003KT 10SM SCT038 OVC095 06/01 A3004 RMK AO2 SLP174 T00610006
0199724084547602024010122567+40183-074133FM-15+0048KBLM V0203305N00155028965MN0160935N5+00565+00115101775ADDGA1085+028965999GD14991+0289659GE19AGL   +99999+99999GF199999999999028961999999MA1101765101185REMMET09301/01/24 17:56:02 METAR KBLM 012256Z 33003KT 10SM OVC095 06/01 A3005 RMK AO2 SLP177 T00560011
0257724084547602024010123567+40183-074133FM-15+0048KBLM V0203105N00215028965MN0160935N5+00505+00115101785ADDGA1085+028965999GD14991+0289659GE19AGL   +99999+99999GF199999999999028961999999KA1060M+00781KA2060N+00501MA1101765101185MD1190099+9999REMMET11101/01/24 18:56:02 METAR KBLM 012356Z 31004KT 10SM OVC095 05/01 A3005 RMK AO2 SLP178 T00500011 10078 20050 51009
0199724084547602024010200567+40183-074133FM-15+0048KBLM V0203405N00265028965MN0160935N5+00505+00065101825ADDGA1085+028965999GD14991+0289659GE19AGL   +99999+99999GF199999999999028961999999MA1101795101225REMMET09301/01/24 19:56:01 METAR KBLM 020056Z 34005KT 10SM OVC095 05/01 A3006 RMK AO2 SLP182 T00500006
0200724084547602024010201567+40183-074133FM-15+0048KBLM V0203305N00215030485MN0160935N5+00445-00065101865ADDGA1085+030485999GD14991+0304859GE19AGL   +99999+99999GF199999999999030481999999MA1101835101255REMMET09401/01/24 20:56:01 METAR KBLM 020156Z 33004KT 10SM OVC100 04/M01 A3007 RMK AO2 SLP186 T00441006
0220724084547602024010202567+40183-074133FM-15+0048KBLM V0203205N00365011285MN0160935N5+00395-00175101895ADDGA1085+011285999GD14991+0112859GE19AGL   +99999+99999GF199999999999011281999999MA1101865101285MD1190109+9999REMMET10001/01/24 21:56:01 METAR KBLM 020256Z 32007KT 10SM OVC037 04/M02 A3008 RMK AO2 SLP189 T00391017 51010
0175724084547602024010203567+40183-074133FM-15+0048KBLM V0203305N004152200059N0160935N5+00285-00285101895ADDGA1005+999999999GD10991+9999999GF100991999999999999999999MA1101865101285REMMET09101/01/24 22:56:01 METAR KBLM 020356Z 33008KT 10SM CLR 03/M03 A3008 RMK AO2 SLP189 T00281028
0218724084547602024010204567+40183-074133FM-15+0048KBLM V0203405N003652200059N0160935N5+00175-00335101875ADDGA1005+999999999GD10991+9999999GF100991999999999999999999KA1240M+00781KA2240N+00171MA1101865101285REMMET10801/01/24 23:56:02 METAR KBLM 020456Z 34007KT 10SM CLR 02/M03 A3008 RMK AO2 SLP187 T00171033 400780017 FZRANO
001572408454760202401020459O+40183-074133SOD  +0048KBLM V020999999999999999999999999999+99999+99999999999ADDAT1AU16RA  5
0240724084547602024010205567+40183-074133FM-15+0048KBLM V0203205N003152200059N0160935N5+00115-00335101875ADDGA1005+999999999GD10991+9999999GF100991999999999999999999KA1060M+00501KA2060N+00111MA1101865101285MD1890019+9999REMMET11601/02/24 00:56:02 METAR KBLM 020556Z 32006KT 10SM CLR 01/M03 A3008 RMK AO2 SLP187 T00111033 10050 20011 58001 FZRANO
0182724084547602024010206567+40183-074133FM-15+0048KBLM V0203205N003152200059N0160935N5+00065-00395101885ADDGA1005+999999999GD10991+9999999GF100991999999999999999999MA1101865101285REMMET09801/02/24 01:56:02 METAR KBLM 020656Z 32006KT 10SM CLR 01/M04 A3008 RMK AO2 SLP188 T00061039 FZRANO
0183724084547602024010207567+40183-074133FM-15+0048KBLM V0203105N002652200059N0160935N5-00065-00395101925ADDGA1005+999999999GD10991+9999999GF100991999999999999999999MA1101905101325REMMET09901/02/24 02:56:02 METAR KBLM 020756Z 31005KT 10SM CLR M01/M04 A3009 RMK AO2 SLP192 T10061039 FZRANO
0203724084547602024010208567+40183-074133FM-15+0048KBLM V0203205N002652200059N0160935N5-00175-00395101905ADDGA1005+999999999GD10991+9999999GF100991999999999999999999MA1101905101325MD1090049+9999REMMET10501/02/24 03:56:02 METAR KBLM 020856Z 32005KT 10SM CLR M02/M04 A3009 RMK AO2 SLP190 T10171039 50004 FZRANO
0183724084547602024010209567+40183-074133FM-15+0048KBLM V0203205N003652200059N0160935N5-00175-00445101915ADDGA1005+999999999GD10991+9999999GF100991999999999999999999MA1101905101325REMMET09901/02/24 04:56:02 METAR KBLM 020956Z 32007KT 10SM CLR M02/M04 A3009 RMK AO2 SLP191 T10171044 FZRANO
0183724084547602024010210567+40183-074133FM-15+0048KBLM V0203105N003152200059N0160935N5-00225-00565101995ADDGA1005+999999999GD10991+9999999GF100991999999999999999999MA1101965101395REMMET09901/02/24 05:56:02 METAR KBLM 021056Z 31006KT 10SM CLR M02/M06 A3011 RMK AO2 SLP199 T10221056 FZRANO
0241724084547602024010211567+40183-074133FM-15+0048KBLM V0203005N003152200059N0160935N5-00285-00565102035ADDGA1005+999999999GD10991+9999999GF100991999999999999999999KA1060M+00111KA2060N-00281MA1102035101455MD1390129+9999REMMET11701/02/24 06:56:02 METAR KBLM 021156Z 30006KT 10SM CLR M03/M06 A3013 RMK AO2 SLP203 T10281056 10011 21028 53012 FZRANO
0183724084547602024010212567+40183-074133FM-15+0048KBLM V0203105N003652200059N0160935N5-00225-00565102065ADDGA1005+999999999GD10991+9999999GF100991999999999999999999MA1102035101455REMMET09901/02/24 07:56:02 METAR KBLM 021256Z 31007KT 10SM CLR M02/M06 A3013 RMK AO2 SLP206 T10221056 FZRANO
0183724084547602024010213567+40183-074133FM-15+0048KBLM V0203105N005752200059N0160935N5-00065-00565102095ADDGA1005+999999999GD10991+9999999GF100991999999999999999999MA1102075101495REMMET09901/02/24 08:56:02 METAR KBLM 021356Z 31011KT 10SM CLR M01/M06 A3014 RMK AO2 SLP209 T10061056 FZRANO
0202724084547602024010214567+40183-074133FM-15+0048KBLM V0203105N006252200059N0160935N5+00005-00615102115ADDGA1005+999999999GD10991+9999999GF100991999999999999999999MA1102105101525MD1190079+9999REMMET10401/02/24 09:56:02 METAR KBLM 021456Z 31012KT 10SM CLR 00/M06 A3015 RMK AO2 SLP211 T00001061 51007 FZRANO
0182724084547602024010215567+40183-074133FM-15+0048KBLM V0203005N005152200059N0160935N5+00175-00615102035ADDGA1005+999999999GD10991+9999999GF100991999999999999999999MA1102035101455REMMET09801/02/24 10:56:02 METAR KBLM 021556Z 30010KT 10SM CLR 02/M06 A3013 RMK AO2 SLP203 T00171061 FZRANO
0175724084547602024010216567+40183-074133FM-15+0048KBLM V0202805N005752200059N0160935N5+00285-00565101905ADDGA1005+999999999GD10991+9999999GF100991999999999999999999MA1101905101325REMMET09101/02/24 11:56:02 METAR KBLM 021656Z 28011KT 10SM CLR 03/M06 A3009 RMK AO2 SLP190 T00281056
0239724084547602024010217567+40183-074133FM-15+0048KBLM V0202905N004152200059N0160935N5+00335-00565101795ADDGA1005+999999999GD10991+9999999GF100991999999999999999999KA1060M+00391KA2060N-00281MA1101765101185MD1890329+9999REMMET11501/02/24 12:56:02 METAR KBLM 021756Z 29008KT 10SM CLR 03/M06 A3005 RMK AO2 SLP179 6//// T00331056 10039 21028 58032
0186724084547602024010218567+40183-074133FM-15+0048KBLM V0203005N005752200059N0160935N5+00445-00565101695ADDGA1005+999999999GD10991+9999999GF100991999999999999999999MA1101695101125OC100825REMMET09401/02/24 13:56:02 METAR KBLM 021856Z 30011G16KT 10SM CLR 04/M06 A3003 RMK AO2 SLP169 T00441056
0175724084547602024010219567+40183-074133FM-15+0048KBLM V0202905N003652200059N0160935N5+00505-00505101665ADDGA1005+999999999GD10991+9999999GF100991999999999999999999MA1101665101085REMMET09101/02/24 14:56:02 METAR KBLM 021956Z 29007KT 10SM CLR 05/M05 A3002 RMK AO2 SLP166 T00501050
0195724084547602024010220567+40183-074133FM-15+0048KBLM V0203105N002652200059N0160935N5+00505-00445101685ADDGA1005+999999999GD10991+9999999GF100991999999999999999999MA1101665101085MD1590109+9999REMMET09701/02/24 15:56:02 METAR KBLM 022056Z 31005KT 10SM CLR 05/M04 A3002 RMK AO2 SLP168 T00501044 55010
0175724084547602024010221567+40183-074133FM-15+0048KBLM V0202905N002152200059N0160935N5+00395-00505101715ADDGA1005+999999999GD10991+9999999GF100991999999999999999999MA1101695101125REMMET09101/02/24 16:56:02 METAR KBLM 022156Z 29004KT 10SM CLR 04/M05 A3003 RMK AO2 SLP171 T00391050
0175724084547602024010222567+40183-074133FM-15+0048KBLM V0202105N002152200059N0160935N5+00285-00505101745ADDGA1005+999999999GD10991+9999999GF100991999999999999999999MA1101735101155REMMET09101/02/24 17:56:02 METAR KBLM 022256Z 21004KT 10SM CLR 03/M05 A3004 RMK AO2 SLP174 T00281050
0240724084547602024010223567+40183-074133FM-15+0048KBLM V0202405N002652200059N0160935N5+00225-00505101755ADDGA1005+999999999GD10991+9999999GF100991999999999999999999KA1060M+00561KA2060N+00171MA1101735101155MD1190079+9999REMMET11601/02/24 18:56:02 METAR KBLM 022356Z 24005KT 10SM CLR 02/M05 A3004 RMK AO2 SLP175 T00221050 10056 20017 51007 FZRANO
0182724084547602024010300567+40183-074133FM-15+0048KBLM V0202505N002152200059N0160935N5+00115-00445101745ADDGA1005+999999999GD10991+9999999GF100991999999999999999999MA1101735101155REMMET09801/02/24 19:56:01 METAR KBLM 030056Z 25004KT 10SM CLR 01/M04 A3004 RMK AO2 SLP174 T00111044 FZRANO
0182724084547602024010301567+40183-074133FM-15+0048KBLM V0202505N002652200059N0160935N5+00065-00445101745ADDGA1005+999999999GD10991+9999999GF100991999999999999999999MA1101735101155REMMET09801/02/24 20:56:01 METAR KBLM 030156Z 25005KT 10SM CLR 01/M04 A3004 RMK AO2 SLP174 T00061044 FZRANO
0221724084547602024010302567+40183-074133FM-15+0048KBLM V0202605N003152200059N0160935N5+00005-00445101755ADDGA1005+999999999GD10991+9999999GF100991999999999999999999MA1101735101155MD1390009+9999REMMET10401/02/24 21:56:01 METAR KBLM 030256Z 26006KT 10SM CLR 00/M04 A3004 RMK AO2 SLP175 T00001044 53000 FZRANOEQDQ013     3APCTEN
0182724084547602024010303567+40183-074133FM-15+0048KBLM V0202605N003152200059N0160935N5+00005-00395101755ADDGA1005+999999999GD10991+9999999GF100991999999999999999999MA1101735101155REMMET09801/02/24 22:56:02 METAR KBLM 030356Z 26006KT 10SM CLR 00/M04 A3004 RMK AO2 SLP175 T00001039 FZRANO
0219724084547602024010304567+40183-074133FM-15+0048KBLM V0202605N002652200059N0160935N5-00065-00395101725ADDGA1005+999999999GD10991+9999999GF100991999999999999999999KA1240M+00561KA2240N-00281MA1101695101125REMMET10901/02/24 23:56:02 METAR KBLM 030456Z 26005KT 10SM CLR M01/M04 A3003 RMK AO2 SLP172 T10061039 400561028 FZRANO
0241724084547602024010305567+40183-074133FM-15+0048KBLM V0202705N003152200059N0160935N5-00115-00395101695ADDGA1005+999999999GD10991+9999999GF100991999999999999999999KA1060M+00221KA2060N-00111MA1101665101085MD1890069+9999REMMET11701/03/24 00:56:02 METAR KBLM 030556Z 27006KT 10SM CLR M01/M04 A3002 RMK AO2 SLP169 T10111039 10022 21011 58006 FZRANO
0183724084547602024010306567+40183-074133FM-15+0048KBLM V0202705N002652200059N0160935N5-00115-00395101715ADDGA1005+999999999GD10991+9999999GF100991999999999999999999MA1101695101125REMMET09901/03/24 01:56:02 METAR KBLM 030656Z 27005KT 10SM CLR M01/M04 A3003 RMK AO2 SLP171 T10111039 FZRANO
0183724084547602024010307567+40183-074133FM-15+0048KBLM V0202605N002652200059N0160935N5-00175-00395101715ADDGA1005+999999999GD10991+9999999GF100991999999999999999999MA1101695101125REMMET09901/03/24 02:56:02 METAR KBLM 030756Z 26005KT 10SM CLR M02/M04 A3003 RMK AO2 SLP171 T10171039 FZRANO
0203724084547602024010308567+40183-074133FM-15+0048KBLM V0202705N003152200059N0160935N5-00175-00395101685ADDGA1005+999999999GD10991+9999999GF100991999999999999999999MA1101665101085MD1890019+9999REMMET10501/03/24 03:56:02 METAR KBLM 030856Z 27006KT 10SM CLR M02/M04 A3002 RMK AO2 SLP168 T10171039 58001 FZRANO
0183724084547602024010309567+40183-074133FM-15+0048KBLM V0202805N003152200059N0160935N5-00175-00395101705ADDGA1005+999999999GD10991+9999999GF100991999999999999999999MA1101695101125REMMET09901/03/24 04:56:01 METAR KBLM 030956Z 28006KT 10SM CLR M02/M04 A3003 RMK AO2 SLP170 T10171039 FZRANO
0183724084547602024010310567+40183-074133FM-15+0048KBLM V0202705N002152200059N0160935N5-00225-00395101745ADDGA1005+999999999GD10991+9999999GF100991999999999999999999MA1101735101155REMMET09901/03/24 05:56:01 METAR KBLM 031056Z 27004KT 10SM CLR M02/M04 A3004 RMK AO2 SLP174 T10221039 FZRANO
0258724084547602024010311567+40183-074133FM-15+0048KBLM V0202705N003152200059N0160935N5-00225-00395101805ADDAA124999919GA1005+999999999GD10991+9999999GF100991999999999999999999KA1060M-00111KA2060N-00221MA1101795101225MD1390129+9999REMMET12301/03/24 06:56:02 METAR KBLM 031156Z 27006KT 10SM CLR M02/M04 A3006 RMK AO2 SLP180 7//// T10221039 11011 21022 53012 FZRANO
0183724084547602024010312567+40183-074133FM-15+0048KBLM V0202605N003152200059N0160935N5-00115-00335101865ADDGA1005+999999999GD10991+9999999GF100991999999999999999999MA1101865101285REMMET09901/03/24 07:56:02 METAR KBLM 031256Z 26006KT 10SM CLR M01/M03 A3008 RMK AO2 SLP186 T10111033 FZRANO
0183724084547602024010313567+40183-074133FM-15+0048KBLM V0202705N003152200059N0160935N5-00065-00335101895ADDGA1005+999999999GD10991+9999999GF100991999999999999999999MA1101865101285REMMET09901/03/24 08:56:02 METAR KBLM 031356Z 27006KT 10SM CLR M01/M03 A3008 RMK AO2 SLP189 T10061033 FZRANO
0202724084547602024010314567+40183-074133FM-15+0048KBLM V0202905N003652200059N0160935N5+00225-00395101895ADDGA1005+999999999GD10991+9999999GF100991999999999999999999MA1101865101285MD1090099+9999REMMET10401/03/24 09:56:02 METAR KBLM 031456Z 29007KT 10SM CLR 02/M04 A3008 RMK AO2 SLP189 T00221039 50009 FZRANO
0175724084547602024010315567+40183-074133FM-15+0048KBLM V0203105N005152200059N0160935N5+00395-00395101815ADDGA1005+999999999GD10991+9999999GF100991999999999999999999MA1101795101225REMMET09101/03/24 10:56:02 METAR KBLM 031556Z 31010KT 10SM CLR 04/M04 A3006 RMK AO2 SLP181 T00391039
0175724084547602024010316567+40183-074133FM-15+0048KBLM V0202805N004652200059N0160935N5+00505-00335101745ADDGA1005+999999999GD10991+9999999GF100991999999999999999999MA1101735101155REMMET09101/03/24 11:56:02 METAR KBLM 031656Z 28009KT 10SM CLR 05/M03 A3004 RMK AO2 SLP174 T00501033
0233724084547602024010317567+40183-074133FM-15+0048KBLM V0203105N003652200059N0160935N5+00565-00335101715ADDGA1005+999999999GD10991+9999999GF100991999999999999999999KA1060M+00561KA2060N-00221MA1101695101125MD1690189+9999REMMET10901/03/24 12:56:02 METAR KBLM 031756Z 31007KT 10SM CLR 06/M03 A3003 RMK AO2 SLP171 T00561033 10056 21022 56018
0175724084547602024010318567+40183-074133FM-15+0048KBLM V0202605N004652200059N0160935N5+00615-00335101655ADDGA1005+999999999GD10991+9999999GF100991999999999999999999MA1101665101085REMMET09101/03/24 13:56:02 METAR KBLM 031856Z 26009KT 10SM CLR 06/M03 A3002 RMK AO2 SLP165 T00611033
0175724084547602024010319567+40183-074133FM-15+0048KBLM V0203005N003152200059N0160935N5+00615-00335101595ADDGA1005+999999999GD10991+9999999GF100991999999999999999999MA1101565100985REMMET09101/03/24 14:56:02 METAR KBLM 031956Z 30006KT 10SM CLR 06/M03 A2999 RMK AO2 SLP159 T00611033
0195724084547602024010320567+40183-074133FM-15+0048KBLM V0202805N003152200059N0160935N5+00565-00285101575ADDGA1005+999999999GD10991+9999999GF100991999999999999999999MA1101565100985MD1690149+9999REMMET09701/03/24 15:56:02 METAR KBLM 032056Z 28006KT 10SM CLR 06/M03 A2999 RMK AO2 SLP157 T00561028 56014
0200724084547602024010321567+40183-074133FM-15+0048KBLM V0202305N00215012195MN0160935N5+00445-00285101675ADDGA1075+012195999GD13991+0121959GE19AGL   +99999+99999GF199999999999012191999999MA1101665101085REMMET09401/03/24 16:56:02 METAR KBLM 032156Z 23004KT 10SM BKN040 04/M03 A3002 RMK AO2 SLP167 T00441028
0200724084547602024010322567+40183-074133FM-15+0048KBLM V0203105N00215011585MN0160935N5+00335-00285101685ADDGA1085+011585999GD14991+0115859GE19AGL   +99999+99999GF199999999999011581999999MA1101665101085REMMET09401/03/24 17:56:02 METAR KBLM 032256Z 31004KT 10SM OVC038 03/M03 A3002 RMK AO2 SLP168 T00331028
0258724084547602024010323567+40183-074133FM-15+0048KBLM V0203105N00155011585MN0160935N5+00335-00285101725ADDGA1085+011585999GD14991+0115859GE19AGL   +99999+99999GF199999999999011581999999KA1060M+00611KA2060N+00281MA1101695101125MD1190159+9999REMMET11201/03/24 18:56:02 METAR KBLM 032356Z 31003KT 10SM OVC038 03/M03 A3003 RMK AO2 SLP172 T00331028 10061 20028 51015
0179724084547602024010400567+40183-074133FM-15+0048KBLM V0201505N001550115819N9999999N5+00171-00281101681ADDGD13991+0115819GE19AGL   +99999+99999GF199999999999011581999999MA1101661999999REMMET05401/03/24 19:56:01 METAR KBLM 040056Z 15003KT RVRNO RMKEQDR01      7SKY009R02      7GAS009
0207724084547602024010401567+40183-074133FM-15+0048KBLM V0209999C00005011585MN0160935N5+00225-00225101645ADDGA1085+011585999GD14991+0115859GE19AGL   +99999+99999GF199999999999011581999999MA1101635101055REMMET10101/03/24 20:56:01 METAR KBLM 040156Z 00000KT 10SM OVC038 02/M02 A3001 RMK AO2 SLP164 T00221022 FZRANO
0227724084547602024010402567+40183-074133FM-15+0048KBLM V0202405N00155012195MN0160935N5+00175-00285101655ADDGA1085+012195999GD14991+0121959GE19AGL   +99999+99999GF199999999999012191999999MA1101635101055MD1590069+9999REMMET10701/03/24 21:56:01 METAR KBLM 040256Z 24003KT 10SM OVC040 02/M03 A3001 RMK AO2 SLP165 T00171028 55006 FZRANO
0207724084547602024010403567+40183-074133FM-15+0048KBLM V0202105N00155012805MN0160935N5+00225-00225101665ADDGA1085+012805999GD14991+0128059GE19AGL   +99999+99999GF199999999999012801999999MA1101665101085REMMET10101/03/24 22:56:01 METAR KBLM 040356Z 21003KT 10SM OVC042 02/M02 A3002 RMK AO2 SLP166 T00221022 FZRANO
0168724084547602024010404567+40183-074133FM-15+0048KBLM V0209999C000052200019N9999999N5+00171-00221101611ADDGF100991999999999999999999KA1240M+00611KA2240N-00221MA1101591999999REMMET05401/03/24 23:56:02 METAR KBLM 040456Z 00000KT RVRNO RMKEQDR01      7SKY009R02      7GAS009
0240724084547602024010405567+40183-074133FM-15+0048KBLM V0209999C000052200059N0160935N5+00115-00225101585ADDGA1005+999999999GD10991+9999999GF100991999999999999999999KA1060M+00331KA2060N+00111MA1101595101015MD1890069+9999REMMET11601/04/24 00:56:02 METAR KBLM 040556Z 00000KT 10SM CLR 01/M02 A3000 RMK AO2 SLP158 T00111022 10033 20011 58006 FZRANO
0179724084547602024010406567+40183-074133FM-15+0048KBLM V0209999C000050365819N9999999N5+00111-00221101561ADDGD13991+0365899GE19AGL   +99999+99999GF199999999999036581999999MA1101561999999REMMET05401/04/24 01:56:02 METAR KBLM 040656Z 00000KT RVRNO RMKEQDR01      7SKY009R02      7GAS009
0179724084547602024010407567+40183-074133FM-15+0048KBLM V0209999C000050304819N9999999N5+00171-00171101481ADDGD14991+0304899GE19AGL   +99999+99999GF199999999999030481999999MA1101491999999REMMET05401/04/24 02:56:02 METAR KBLM 040756Z 00000KT RVRNO RMKEQDR01      7SKY009R02      7GAS009
0227724084547602024010408567+40183-074133FM-15+0048KBLM V0209999C00005030485MN0160935N5+00115-00175101455ADDGA1085+030485999GD14991+0304859GE19AGL   +99999+99999GF199999999999030481999999MA1101465100885MD1890149+9999REMMET10701/04/24 03:56:02 METAR KBLM 040856Z 00000KT 10SM OVC100 01/M02 A2996 RMK AO2 SLP145 T00111017 58014 FZRANO
0179724084547602024010409567+40183-074133FM-15+0048KBLM V0202305N001550335319N9999999N5+00061-00171101451ADDGD14991+0335399GE19AGL   +99999+99999GF199999999999033531999999MA1101461999999REMMET05401/04/24 04:56:02 METAR KBLM 040956Z 23003KT RVRNO RMKEQDR01      7SKY009R02      7GAS009
0179724084547602024010410567+40183-074133FM-15+0048KBLM V0203005N002150304819N9999999N5+00061-00171101401ADDGD14991+0304899GE19AGL   +99999+99999GF199999999999030481999999MA1101391999999REMMET05401/04/24 05:56:02 METAR KBLM 041056Z 30004KT RVRNO RMKEQDR01      7SKY009R02      7GAS009
0266724084547602024010411567+40183-074133FM-15+0048KBLM V0209999C000050274319N9999999N5+00111-00171101461ADDGD12991+0143319GD24991+0274319GE19AGL   +99999+99999GF199999999999014331999999KA1060M+00171KA2060N+00061MA1101461999999MD1290019+9999REMMET05401/04/24 06:56:02 METAR KBLM 041156Z 00000KT RVRNO RMKEQDQ010     3APC3  Q023     3APCTENR01      7SKY009R02      7GAS009
0233724084547602024010412567+40183-074133FM-15+0048KBLM V0202505N00155013115MN0160935N5+00115-00115101505ADDAA101000021GA1085+013115999GD14991+0131159GE19AGL   +99999+99999GF199999999999013111999999MA1101495100915REMMET11601/04/24 07:56:02 METAR KBLM 041256Z 25003KT 10SM OVC043 01/M01 A2997 RMK AO2 RAB40E49 SLP150 P0000 T00111011 FZRANO
0207724084547602024010413567+40183-074133FM-15+0048KBLM V0202505N00155014945MN0160935N5+00175-00115101525ADDGA1085+014945999GD14991+0149459GE19AGL   +99999+99999GF199999999999014941999999MA1101495100915REMMET10101/04/24 08:56:02 METAR KBLM 041356Z 25003KT 10SM OVC049 02/M01 A2997 RMK AO2 SLP152 T00171011 FZRANO
0310724084547602024010414567+40183-074133FM-15+0048KBLM V0202805N00315018295MN0160935N5+00285-00175101555ADDAA103000021GA1025+014945999GA2085+018295999GD11991+0149459GD24991+0182959GE19AGL   +99999+99999GF199999999999014941999999MA1101525100955MD1190089+9999REMMET11301/04/24 09:56:02 METAR KBLM 041456Z 28006KT 10SM FEW049 OVC060 03/M02 A2998 RMK AO2 SLP155 60000 T00281017 51008EQDQ01  00002PRCP03Q02  00008PRCP03
0238724084547602024010415567+40183-074133FM-15+0048KBLM V0203005N00465021345MN0160935N5+00395-00175101545ADDGA1025+015245999GA2085+021345999GD11991+0152459GD24991+0213459GE19AGL   +99999+99999GF199999999999015241999999MA1101525100955REMMET10101/04/24 10:56:02 METAR KBLM 041556Z 30009KT 10SM FEW050 OVC070 04/M02 A2998 RMK AO2 SLP154 T00391017
0238724084547602024010416567+40183-074133FM-15+0048KBLM V0203105N00725019815MN0160935N5+00505-00175101475ADDGA1025+008845999GA2085+019815999GD11991+0088459GD24991+0198159GE19AGL   +99999+99999GF199999999999008841999999MA1101465100885REMMET10101/04/24 11:56:02 METAR KBLM 041656Z 31014KT 10SM FEW029 OVC065 05/M02 A2996 RMK AO2 SLP147 T00501017
0348724084547602024010417567+40183-074133FM-15+0048KBLM V0203005N00625021345MN0160935N5+00565-00175101435ADDAA106000021GA1045+009455999GA2085+021345999GD12991+0094559GD24991+0213459GE19AGL   +99999+99999GF199999999999009451999999KA1060M+00561KA2060N+00061MA1101425100855MD1890109+9999REMMET12501/04/24 12:56:02 METAR KBLM 041756Z 30012KT 10SM SCT031 OVC070 06/M02 A2995 RMK AO2 SLP143 60000 T00561017 10056 20006 58010EQDQ01  00002PRCP06Q02  00008PRCP06
0249724084547602024010418567+40183-074133FM-15+0048KBLM V0203005N00625011895MN0160935N5+00615-00335101425ADDGA1075+011895999GA2085+014635999GD13991+0118959GD24991+0146359GE19AGL   +99999+99999GF199999999999011891999999MA1101425100855OC101185REMMET10401/04/24 13:56:02 METAR KBLM 041856Z 30012G23KT 10SM BKN039 OVC048 06/M03 A2995 RMK AO2 SLP142 T00611033
0211724084547602024010419567+40183-074133FM-15+0048KBLM V0203205N00775013725MN0160935N5+00505-00445101495ADDGA1085+013725999GD14991+0137259GE19AGL   +99999+99999GF199999999999013721999999MA1101495100915OC101085REMMET09701/04/24 14:56:02 METAR KBLM 041956Z 32015G21KT 10SM OVC045 05/M04 A2997 RMK AO2 SLP149 T00501044
0231724084547602024010420567+40183-074133FM-15+0048KBLM V0203005N00935014335MN0160935N5+00565-00565101565ADDGA1075+014335999GD13991+0143359GE19AGL   +99999+99999GF199999999999014331999999MA1101565100985MD1390139+9999OC101135REMMET10301/04/24 15:56:02 METAR KBLM 042056Z 30018G22KT 10SM BKN047 06/M06 A2999 RMK AO2 SLP156 T00561056 53013
0262724084547602024010421567+40183-074133FM-15+0048KBLM V0203105N007752200059N0160935N5+00395-00615101735ADDGA1025+019815999GD11991+0198159GE19AGL   +99999+99999GF102995999999019811999999MA1101695101125OC101185OD149901591310REMMET11501/04/24 16:56:02 METAR KBLM 042156Z 31015G23KT 10SM FEW065 04/M06 A3003 RMK AO2 PK WND 31031/2133 SLP173 T00391061EQDD01      0ADE726
0182724084547602024010422567+40183-074133FM-15+0048KBLM V0203205N007252200059N0160935N5+00225-00785101885ADDGA1005+999999999GD10991+9999999GF100991999999999999999999MA1101865101285REMMET09801/04/24 17:56:02 METAR KBLM 042256Z 32014KT 10SM CLR 02/M08 A3008 RMK AO2 SLP188 T00221078 FZRANO
0269724084547602024010423567+40183-074133FM-15+0048KBLM V0203105N009852200059N0160935N5+00175-00835101995ADDGA1005+999999999GD10991+9999999GF100991999999999999999999KA1060M+00671KA2060N+00171MA1101965101395MD1190429+9999OC101245REMMET13701/04/24 18:56:02 METAR KBLM 042356Z 31019G24KT 10SM CLR 02/M08 A3011 RMK AO2 PK WND 33026/2303 SLP199 T00171083 10067 20017 51042 FZRANO
0211724084547602024010500567+40183-074133FM-15+0048KBLM V0203105N007252200059N0160935N5+00065-00895102075ADDGA1005+999999999GD10991+9999999GF100991999999999999999999MA1102075101495OC101245REMMET11901/04/24 19:56:01 METAR KBLM 050056Z 31014G24KT 10SM CLR 01/M09 A3014 RMK AO2 PK WND 31030/0019 SLP207 T00061089 FZRANO
0183724084547602024010501567+40183-074133FM-15+0048KBLM V0203305N005752200059N0160935N5-00065-00895102165ADDGA1005+999999999GD10991+9999999GF100991999999999999999999MA1102135101555REMMET09901/04/24 20:56:02 METAR KBLM 050156Z 33011KT 10SM CLR M01/M09 A3016 RMK AO2 SLP216 T10061089 FZRANO
0203724084547602024010502567+40183-074133FM-15+0048KBLM V0203005N004652200059N0160935N5-00175-00835102215ADDGA1005+999999999GD10991+9999999GF100991999999999999999999MA1102205101625MD1190229+9999REMMET10501/04/24 21:56:02 METAR KBLM 050256Z 30009KT 10SM CLR M02/M08 A3018 RMK AO2 SLP221 T10171083 51022 FZRANO
0183724084547602024010503567+40183-074133FM-15+0048KBLM V0203005N005152200059N0160935N5-00175-00895102305ADDGA1005+999999999GD10991+9999999GF100991999999999999999999MA1102275101695REMMET09901/04/24 22:56:02 METAR KBLM 050356Z 30010KT 10SM CLR M02/M09 A3020 RMK AO2 SLP230 T10171089 FZRANO
0219724084547602024010504567+40183-074133FM-15+0048KBLM V0203105N004652200059N0160935N5-00285-00945102365ADDGA1005+999999999GD10991+9999999GF100991999999999999999999KA1240M+00671KA2240N-00281MA1102345101765REMMET10901/04/24 23:56:02 METAR KBLM 050456Z 31009KT 10SM CLR M03/M09 A3022 RMK AO2 SLP236 T10281094 400671028 FZRANO
0241724084547602024010505567+40183-074133FM-15+0048KBLM V0202905N006252200059N0160935N5-00285-01005102365ADDGA1005+999999999GD10991+9999999GF100991999999999999999999KA1060M+00171KA2060N-00281MA1102345101765MD1190159+9999REMMET11701/05/24 00:56:02 METAR KBLM 050556Z 29012KT 10SM CLR M03/M10 A3022 RMK AO2 SLP236 T10281100 10017 21028 51015 FZRANO
0183724084547602024010506567+40183-074133FM-15+0048KBLM V0203005N006752200059N0160935N5-00335-01005102425ADDGA1005+999999999GD10991+9999999GF100991999999999999999999MA1102405101825REMMET09901/05/24 01:56:02 METAR KBLM 050656Z 30013KT 10SM CLR M03/M10 A3024 RMK AO2 SLP242 T10331100 FZRANO
0183724084547602024010507567+40183-074133FM-15+0048KBLM V0203105N005152200059N0160935N5-00395-01005102485ADDGA1005+999999999GD10991+9999999GF100991999999999999999999MA1102475101895REMMET09901/05/24 02:56:02 METAR KBLM 050756Z 31010KT 10SM CLR M04/M10 A3026 RMK AO2 SLP248 T10391100 FZRANO
0203724084547602024010508567+40183-074133FM-15+0048KBLM V0203105N004652200059N0160935N5-00445-01005102555ADDGA1005+999999999GD10991+9999999GF100991999999999999999999MA1102545101965MD1390199+9999REMMET10501/05/24 03:56:02 METAR KBLM 050856Z 31009KT 10SM CLR M04/M10 A3028 RMK AO2 SLP255 T10441100 53019 FZRANO
0183724084547602024010509567+40183-074133FM-15+0048KBLM V0203005N003652200059N0160935N5-00445-01005102515ADDGA1005+999999999GD10991+9999999GF100991999999999999999999MA1102515101925REMMET09901/05/24 04:56:02 METAR KBLM 050956Z 30007KT 10SM CLR M04/M10 A3027 RMK AO2 SLP251 T10441100 FZRANO
0183724084547602024010510567+40183-074133FM-15+0048KBLM V0203005N004652200059N0160935N5-00505-01005102615ADDGA1005+999999999GD10991+9999999GF100991999999999999999999MA1102575101995REMMET09901/05/24 05:56:02 METAR KBLM 051056Z 30009KT 10SM CLR M05/M10 A3029 RMK AO2 SLP261 T10501100 FZRANO
0241724084547602024010511567+40183-074133FM-15+0048KBLM V0202905N004652200059N0160935N5-00505-01005102645ADDGA1005+999999999GD10991+9999999GF100991999999999999999999KA1060M-00281KA2060N-00501MA1102645102065MD1390099+9999REMMET11701/05/24 06:56:02 METAR KBLM 051156Z 29009KT 10SM CLR M05/M10 A3031 RMK AO2 SLP264 T10501100 11028 21050 53009 FZRANO
0183724084547602024010512567+40183-074133FM-15+0048KBLM V0202905N004152200059N0160935N5-00445-01005102725ADDGA1005+999999999GD10991+9999999GF100991999999999999999999MA1102715102135REMMET09901/05/24 07:56:02 METAR KBLM 051256Z 29008KT 10SM CLR M04/M10 A3033 RMK AO2 SLP272 T10441100 FZRANO
0183724084547602024010513567+40183-074133FM-15+0048KBLM V0203105N006752200059N0160935N5-00285-01005102805ADDGA1005+999999999GD10991+9999999GF100991999999999999999999MA1102785102195REMMET09901/05/24 08:56:02 METAR KBLM 051356Z 31013KT 10SM CLR M03/M10 A3035 RMK AO2 SLP280 T10281100 FZRANO
0203724084547602024010514567+40183-074133FM-15+0048KBLM V0203105N007252200059N0160935N5-00115-01005102805ADDGA1005+999999999GD10991+9999999GF100991999999999999999999MA1102785102195MD1190169+9999REMMET10501/05/24 09:56:02 METAR KBLM 051456Z 31014KT 10SM CLR M01/M10 A3035 RMK AO2 SLP280 T10111100 51016 FZRANO
0182724084547602024010515567+40183-074133FM-15+0048KBLM V0203205N007252200059N0160935N5+00005-01005102755ADDGA1005+999999999GD10991+9999999GF100991999999999999999999MA1102745102165REMMET09801/05/24 10:56:02 METAR KBLM 051556Z 32014KT 10SM CLR 00/M10 A3034 RMK AO2 SLP275 T00001100 FZRANO
0182724084547602024010516567+40183-074133FM-15+0048KBLM V0203105N007752200059N0160935N5+00115-00945102635ADDGA1005+999999999GD10991+9999999GF100991999999999999999999MA1102615102035REMMET09801/05/24 11:56:02 METAR KBLM 051656Z 31015KT 10SM CLR 01/M09 A3030 RMK AO2 SLP263 T00111094 FZRANO
0240724084547602024010517567+40183-074133FM-15+0048KBLM V0203205N003652200059N0160935N5+00175-00945102555ADDGA1005+999999999GD10991+9999999GF100991999999999999999999KA1060M+00171KA2060N-00501MA1102545101965MD1890259+9999REMMET11601/05/24 12:56:02 METAR KBLM 051756Z 32007KT 10SM CLR 02/M09 A3028 RMK AO2 SLP255 T00171094 10017 21050 58025 FZRANO
0182724084547602024010518567+40183-074133FM-15+0048KBLM V0202505N003652200059N0160935N5+00225-00895102495ADDGA1005+999999999GD10991+9999999GF100991999999999999999999MA1102475101895REMMET09801/05/24 13:56:02 METAR KBLM 051856Z 25007KT 10SM CLR 02/M09 A3026 RMK AO2 SLP249 T00221089 FZRANO
0182724084547602024010519567+40183-074133FM-15+0048KBLM V0203005N003652200059N0160935N5+00225-00895102475ADDGA1005+999999999GD10991+9999999GF100991999999999999999999MA1102445101865REMMET09801/05/24 14:56:02 METAR KBLM 051956Z 30007KT 10SM CLR 02/M09 A3025 RMK AO2 SLP247 T00221089 FZRANO
0202724084547602024010520567+40183-074133FM-15+0048KBLM V0202405N003652200059N0160935N5+00225-00895102475ADDGA1005+999999999GD10991+9999999GF100991999999999999999999MA1102475101895MD1590079+9999REMMET10401/05/24 15:56:02 METAR KBLM 052056Z 24007KT 10SM CLR 02/M09 A3026 RMK AO2 SLP247 T00221089 55007 FZRANO
0182724084547602024010521567+40183-074133FM-15+0048KBLM V0202305N002152200059N0160935N5+00065-00895102455ADDGA1005+999999999GD10991+9999999GF100991999999999999999999MA1102445101865REMMET09801/05/24 16:56:02 METAR KBLM 052156Z 23004KT 10SM CLR 01/M09 A3025 RMK AO2 SLP245 T00061089 FZRANO
0183724084547602024010522567+40183-074133FM-15+0048KBLM V0201905N002152200059N0160935N5-00065-00785102465ADDGA1005+999999999GD10991+9999999GF100991999999999999999999MA1102445101865REMMET09901/05/24 17:56:02 METAR KBLM 052256Z 19004KT 10SM CLR M01/M08 A3025 RMK AO2 SLP246 T10061078 FZRANO
0241724084547602024010523567+40183-074133FM-15+0048KBLM V0202105N002152200059N0160935N5-00065-00785102575ADDGA1005+999999999GD10991+9999999GF100991999999999999999999KA1060M+00281KA2060N-00111MA1102545101965MD1390099+9999REMMET11701/05/24 18:56:02 METAR KBLM 052356Z 21004KT 10SM CLR M01/M08 A3028 RMK AO2 SLP257 T10061078 10028 21011 53009 FZRANO
0183724084547602024010600567+40183-074133FM-15+0048KBLM V0202205N002652200059N0160935N5-00115-00725102525ADDGA1005+999999999GD10991+9999999GF100991999999999999999999MA1102515101925REMMET09901/05/24 19:56:01 METAR KBLM 060056Z 22005KT 10SM CLR M01/M07 A3027 RMK AO2 SLP252 T10111072 FZRANO
0183724084547602024010601567+40183-074133FM-15+0048KBLM V0202205N002152200059N0160935N5-00175-00725102505ADDGA1005+999999999GD10991+9999999GF100991999999999999999999MA1102475101895REMMET09901/05/24 20:56:01 METAR KBLM 060156Z 22004KT 10SM CLR M02/M07 A3026 RMK AO2 SLP250 T10171072 FZRANO
0203724084547602024010602567+40183-074133FM-15+0048KBLM V0202105N002152200059N0160935N5-00225-00725102485ADDGA1005+999999999GD10991+9999999GF100991999999999999999999MA1102475101895MD1690089+9999REMMET10501/05/24 21:56:01 METAR KBLM 060256Z 21004KT 10SM CLR M02/M07 A3026 RMK AO2 SLP248 T10221072 56008 FZRANO
0183724084547602024010603567+40183-074133FM-15+0048KBLM V0202205N001552200059N0160935N5-00285-00725102435ADDGA1005+999999999GD10991+9999999GF100991999999999999999999MA1102405101825REMMET09901/05/24 22:56:02 METAR KBLM 060356Z 22003KT 10SM CLR M03/M07 A3024 RMK AO2 SLP243 T10281072 FZRANO
0219724084547602024010604567+40183-074133FM-15+0048KBLM V0202205N002152200059N0160935N5-00285-00725102395ADDGA1005+999999999GD10991+9999999GF100991999999999999999999KA1240M+00281KA2240N-00501MA1102375101795REMMET10901/05/24 23:56:02 METAR KBLM 060456Z 22004KT 10SM CLR M03/M07 A3023 RMK AO2 SLP239 T10281072 400281050 FZRANO
0241724084547602024010605567+40183-074133FM-15+0048KBLM V0202305N002152200059N0160935N5-00395-00725102435ADDGA1005+999999999GD10991+9999999GF100991999999999999999999KA1060M-00061KA2060N-00391MA1102405101825MD1590059+9999REMMET11701/06/24 00:56:02 METAR KBLM 060556Z 23004KT 10SM CLR M04/M07 A3024 RMK AO2 SLP243 T10391072 11006 21039 55005 FZRANO
0183724084547602024010606567+40183-074133FM-15+0048KBLM V0202205N001552200059N0160935N5-00395-00725102445ADDGA1005+999999999GD10991+9999999GF100991999999999999999999MA1102445101865REMMET09901/06/24 01:56:02 METAR KBLM 060656Z 22003KT 10SM CLR M04/M07 A3025 RMK AO2 SLP244 T10391072 FZRANO
0183724084547602024010607567+40183-074133FM-15+0048KBLM V0202205N002152200059N0160935N5-00395-00725102405ADDGA1005+999999999GD10991+9999999GF100991999999999999999999MA1102375101795REMMET09901/06/24 02:56:02 METAR KBLM 060756Z 22004KT 10SM CLR M04/M07 A3023 RMK AO2 SLP240 T10391072 FZRANO
0156724084547602024010608567+40183-074133FM-15+0048KBLM V0202105N002152200019N9999999N5-00391-00721102341ADDGF100991999999999999999999MA1102341999999MD1810091+9999REMMET05401/06/24 03:56:02 METAR KBLM 060856Z 21004KT RVRNO RMKEQDR01      7SKY009R02      7GAS009
0183724084547602024010609567+40183-074133FM-15+0048KBLM V0202205N002152200059N0160935N5-00395-00725102375ADDGA1005+999999999GD10991+9999999GF100991999999999999999999MA1102375101795REMMET09901/06/24 04:56:02 METAR KBLM 060956Z 22004KT 10SM CLR M04/M07 A3023 RMK AO2 SLP237 T10391072 FZRANO
0142724084547602024010610567+40183-074133FM-15+0048KBLM V0209999C000052200019N9999999N5-00331-00671102321ADDGF100991999999999999999999MA1102301999999REMMET05401/06/24 05:56:02 METAR KBLM 061056Z 00000KT RVRNO RMKEQDR01      7SKY009R02      7GAS009
0182724084547602024010611567+40183-074133FM-15+0048KBLM V0209999C000052200019N9999999N5-00391-00611102321ADDGF100991999999999999999999KA1060M-00331KA2060N-00501MA1102301999999MD1810021+9999REMMET05401/06/24 06:56:02 METAR KBLM 061156Z 00000KT RVRNO RMKEQDR01      7SKY009R02      7GAS009
0142724084547602024010612567+40183-074133FM-15+0048KBLM V0201505N001552200019N9999999N5-00391-00611102301ADDGF100991999999999999999999MA1102271999999REMMET05401/06/24 07:56:02 METAR KBLM 061256Z 15003KT RVRNO RMKEQDR01      7SKY009R02      7GAS009
0142724084547602024010613567+40183-074133FM-15+0048KBLM V0200805N001552200019N9999999N5-00221-00441102291ADDGF100991999999999999999999MA1102271999999REMMET05401/06/24 08:56:02 METAR KBLM 061356Z 08003KT RVRNO RMKEQDR01      7SKY009R02      7GAS009
0203724084547602024010614567+40183-074133FM-15+0048KBLM V0200405N002152200059N0160935N5-00065-00285102205ADDGA1005+999999999GD10991+9999999GF100991999999999999999999MA1102175101595MD1890139+9999REMMET10501/06/24 09:56:02 METAR KBLM 061456Z 04004KT 10SM CLR M01/M03 A3017 RMK AO2 SLP220 T10061028 58013 FZRANO
0182724084547602024010615567+40183-074133FM-15+0048KBLM V0200105N002152200059N0160935N5+00065-00285102115ADDGA1005+999999999GD10991+9999999GF100991999999999999999999MA1102105101525REMMET09801/06/24 10:56:02 METAR KBLM 061556Z 01004KT 10SM CLR 01/M03 A3015 RMK AO2 SLP211 T00061028 FZRANO
0214724084547602024010616567+40183-074133FM-15+0048KBLM V0200605N00215030485MN0160935N5+00225-00225101985ADDGA1075+030485999GD13991+0304859GE19AGL   +99999+99999GF199999999999030481999999MA1101965101395REMMET10801/06/24 11:56:02 METAR KBLM 061656Z 06004KT 10SM BKN100 02/M02 A3011 RMK AO2 PRESFR SLP198 T00221022 FZRANO
0258724084547602024010617567+40183-074133FM-15+0048KBLM V0200705N00365021345MN0160935N5+00395-00225101825ADDGA1075+021345999GD13991+0213459GE19AGL   +99999+99999GF199999999999021341999999KA1060M+00391KA2060N-00391MA1101795101225MD1890389+9999REMMET11201/06/24 12:56:02 METAR KBLM 061756Z 07007KT 10SM BKN070 04/M02 A3006 RMK AO2 SLP182 T00391022 10039 21039 58038
0288724084547602024010618567+40183-074133FM-15+0048KBLM V0200705N00465012195MN0160935N5+00335-00065101685ADDAA101000021AU110020015AW1615GA1075+012195999GA2085+015245999GD13991+0121959GD24991+0152459GE19AGL   +99999+99999GF199999999999012191999999MA1101665101085MW1615REMMET11701/06/24 13:56:02 METAR KBLM 061856Z 07009KT 10SM -RA BKN040 OVC050 03/M01 A3002 RMK AO2 RAB10 SLP168 P0000 T00331006
0319724084547602024010619567+40183-074133FM-15+0048KBLM V0200605N00515013115MN0160935N5+00335+00065101505ADDAA101000021AU110020015AW1615GA1025+006715999GA2075+013115999GA3085+015245999GD11991+0067159GD23991+0131159GD34991+0152459GE19AGL   +99999+99999GF199999999999006711999999MA1101495100915MW1615REMMET11701/06/24 14:56:02 METAR KBLM 061956Z 06010KT 10SM -RA FEW022 BKN043 OVC050 03/01 A2997 RMK AO2 SLP150 P0000 T00330006
0320724084547602024010620417+40183-074133FM-15+0048KBLM V0200705N00575007625MN0096565N5+00305+00105999999ADDAA101000595AU120020015AU200001015AW1105AW2625GA1045+005185999GA2075+007625999GA3085+011285999GD12991+0051859GD23991+0076259GD34991+0112859GE19AGL   +99999+99999GF199999999999005181999999MA1101395100815MW1655REMMET10101/06/24 15:41:02 METAR KBLM 062041Z 07011KT 6SM RA BR SCT017 BKN025 OVC037 03/01 A2994 RMK AO2 P0002
0394724084547602024010620567+40183-074133FM-15+0048KBLM V0200705N00625007625MN0096565N5+00285+00115101405ADDAA101000895AA203000891AU110020015AU200001015AW1105AW2615GA1045+005185999GA2075+007625999GA3085+013725999GD12991+0051859GD23991+0076259GD34991+0137259GE19AGL   +99999+99999GF199999999999005181999999MA1101395100815MD1690419+9999MW1615REMMET13101/06/24 15:56:02 METAR KBLM 062056Z 07012KT 6SM -RA BR SCT017 BKN025 OVC045 03/01 A2994 RMK AO2 SLP140 P0003 60003 T00280011 56041EQDQ01  00078PRCP03
0349724084547602024010621567+40183-074133FM-15+0048KBLM V0200605N00725003965MN0096565N5+00395+00285101235ADDAA101001395AU110020015AU200001015AW1105AW2615GA1075+003965999GA2075+005495999GA3085+007625999GD13991+0039659GD23991+0054959GD34991+0076259GE19AGL   +99999+99999GF199999999999003961999999MA1101225100645MW1615OC101085REMMET12201/06/24 16:56:02 METAR KBLM 062156Z 06014G21KT 6SM -RA BR BKN013 BKN018 OVC025 04/03 A2989 RMK AO2 SLP123 P0005 T00390028
0252724084547602024010622567+40183-074133FM-15+0048KBLM V0200805N00625003355MN0112655N5+00505+00395101165ADDAA101001895AU120020015AW1625GA1085+003355999GD14991+0033559GE19AGL   +99999+99999GF199999999999003351999999MA1101155100585MW1655OC101035REMMET10401/06/24 17:56:02 METAR KBLM 062256Z 08012G20KT 7SM RA OVC011 05/04 A2987 RMK AO2 SLP116 P0007 T00500039
0235724084547602024010623077+40183-074133FM-15+0048KBLM V0200805N00775002745MN0112655N5+00505+00405999999ADDAA101000595AU120020015AW1625GA1085+002745999GD14991+0027459GE19AGL   +99999+99999GF199999999999002741999999MA1101125100545MW1655OC101085REMMET08701/06/24 18:07:02 METAR KBLM 062307Z 08015G21KT 7SM RA OVC009 05/04 A2986 RMK AO2 P0002
0405724084547602024010623567+40183-074133FM-15+0048KBLM V0200705N00775002135MN0080475N5+00565+00505100895ADDAA101002095AA206005891AU120020015AU200001015AW1105AW2625GA1085+002135999GD14991+0021359GE19AGL   +99999+99999GF199999999999002131999999KA1060M+00561KA2060N+00281MA1100885100315MD1890519+9999MW1655OC101395OD149901391080REMMET15601/06/24 18:56:02 METAR KBLM 062356Z 07015G27KT 5SM RA BR OVC007 06/05 A2979 RMK AO2 PK WND 08027/2351 PRESFR SLP089 P0008 60023 T00560050 10056 20028 58051EQDQ01  00588PRCP06
0268724084547602024010700377+40183-074133FM-15+0048KBLM V0200805N00935001525MN0112655N5+00605+00505999999ADDAA101000895AU110020015AW1615GA1085+001525999GD14991+0015259GE19AGL   +99999+99999GF199999999999001521999999MA1100755100175MW1615OC101345OD149901441070REMMET10601/06/24 19:37:01 METAR KBLM 070037Z 08018G26KT 7SM -RA OVC005 06/05 A2975 RMK AO2 PK WND 07028/0010 P0003
0312724084547602024010700567+40183-074133FM-15+0048KBLM V0200805N01085001525MN0096565N5+00565+00505100615ADDAA101001395AU110020015AU200001015AW1105AW2615GA1085+001525999GD14991+0015259GE19AGL   +99999+99999GF199999999999001521999999MA1100615100045MW1615OC101395OD149901441070REMMET13301/06/24 19:56:01 METAR KBLM 070056Z 08021G27KT 6SM -RA BR OVC005 06/05 A2971 RMK AO2 PK WND 07028/0045 PRESFR SLP061 P0005 T00560050
0305724084547602024010701567+40183-074133FM-15+0048KBLM V0200805N01085001525MN0096565N5+00675+00615100345ADDAA101000595AU110020015AU200001015AW1105AW2615GA1085+001525999GD14991+0015259GE19AGL   +99999+99999GF199999999999001521999999MA1100345099775MW1615OC101705OD149901851080REMMET12601/06/24 20:56:01 METAR KBLM 070156Z 08021G33KT 6SM -RA BR OVC005 07/06 A2963 RMK AO2 PK WND 08036/0140 SLP034 P0002 T00670061
0342724084547602024010702567+40183-074133FM-15+0048KBLM V0200805N00935001525MN0160935N5+00725+00615100295ADDAA101000021AA203001891AU110020015AW1615GA1085+001525999GD14991+0015259GE19AGL   +99999+99999GF199999999999001521999999MA1100305099735MD1690599+9999MW1615OC101295OD149901591080REMMET13601/06/24 21:56:01 METAR KBLM 070256Z 08018G25KT 10SM -RA OVC005 07/06 A2962 RMK AO2 PK WND 08031/0202 SLP029 P0000 60007 T00720061 56059EQDQ01  00178PRCP03
0236724084547602024010703037+40183-074133FM-15+0048KBLM V0200705N00825002135MN0128755N5+00705+00605999999ADDAA101000021AU110020015AW1615GA1085+002135999GD14991+0021359GE19AGL   +99999+99999GF199999999999002131999999MA1100305099735MW1615OC101295REMMET08801/06/24 22:03:01 METAR KBLM 070303Z 07016G25KT 8SM -RA OVC007 07/06 A2962 RMK AO2 P0000
0273724084547602024010703567+40183-074133FM-15+0048KBLM V0200605N00725002135MN0064375N5+00725+00615100315ADDAA101000895AU110020015AU200001015AW1105AW2615GA1085+002135999GD14991+0021359GE19AGL   +99999+99999GF199999999999002131999999MA1100305099735MW1615OC101085REMMET10801/06/24 22:56:02 METAR KBLM 070356Z 06014G21KT 4SM -RA BR OVC007 07/06 A2962 RMK AO2 SLP031 P0003 T00720061
0268724084547602024010704227+40183-074133FM-15+0048KBLM V0200605N00675001525MN0064375N5+00705+00605999999ADDAA101000595AU110020015AU200001015AW1105AW2615GA1085+001525999GD14991+0015251GE19AGL   +99999+99999GF199999999999001521999999MA1100345099775MW1615OC101035REMMET10301/06/24 23:22:02 METAR KBLM 070422Z 06013G20KT 4SM -RA BR OVC005 07/06 A2963 RMK AO2 CIG 004V009 P0002
0313724084547602024010704567+40183-074133FM-15+0048KBLM V0200505N00775001525MN0040235N5+00675+00615100305ADDAA101001095AU110020015AU200001015AW1105AW2615GA1085+001525999GD14991+0015259GE19AGL   +99999+99999GF199999999999001521999999KA1240M+00721KA2240N-00501MA1100275099705MW1615OC101185REMMET12201/06/24 23:56:02 METAR KBLM 070456Z 05015G23KT 2 1/2SM -RA BR OVC005 07/06 A2961 RMK AO2 SLP030 P0004 T00670061 400721050
002772408454760202401070459O+40183-074133SOD  +0048KBLM V020999999999999999999999999999+99999+99999999999ADDAT1AU16RA  5AT2AU13BR  5
0256724084547602024010705117+40183-074133FM-15+0048KBLM V0200405N00825001525MN0048285N5+00705+00605999999ADDAA101000231AU110020015AU200001015AW1105AW2615GA1085+001525999GD14991+0015259GE19AGL   +99999+99999GF199999999999001521999999MA1100275099705MW1615OC101185REMMET09101/07/24 00:11:02 METAR KBLM 070511Z 04016G23KT 3SM -RA BR OVC005 07/06 A2961 RMK AO2 P0001
0367724084547602024010705567+40183-074133FM-15+0048KBLM V0200205N00575001525MN0048285N5+00505+00445100265ADDAA101000895AA206004391AU110020015AU200001015AW1105AW2615GA1085+001525999GD14991+0015259GE19AGL   +99999+99999GF199999999999001521999999KA1060M+00721KA2060N+00501MA1100245099675MD1890049+9999MW1615OC100885REMMET13201/07/24 00:56:02 METAR KBLM 070556Z 02011G17KT 3SM -RA BR OVC005 05/04 A2960 RMK AO2 SLP026 P0003 60017 T00500044 10072 20050 58004EQDQ01  00438PRCP06
0260724084547602024010706167+40183-074133FM-15+0048KBLM V0200205N00575001525MN0040235N5+00405+00405999999ADDAA101000395AU110020015AU200001015AW1105AW2615GA1085+001525999GD14991+0015259GE19AGL   +99999+99999GF199999999999001521999999MA1100245099675MW1615OC100885REMMET09501/07/24 01:16:02 METAR KBLM 070616Z 02011G17KT 2 1/2SM -RA BR OVC005 04/04 A2960 RMK AO2 P0001
0256724084547602024010706387+40183-074133FM-15+0048KBLM V0200205N00725001525MN0048285N5+00405+00405999999ADDAA101000595AU110020015AU200001015AW1105AW2615GA1085+001525999GD14991+0015259GE19AGL   +99999+99999GF199999999999001521999999MA1100175099605MW1615OC101085REMMET09101/07/24 01:38:02 METAR KBLM 070638Z 02014G21KT 3SM -RA BR OVC005 04/04 A2958 RMK AO2 P0002
0273724084547602024010706567+40183-074133FM-15+0048KBLM V0200305N00725001525MN0048285N5+00445+00395100205ADDAA101000895AU110020015AU200001015AW1105AW2615GA1085+001525999GD14991+0015259GE19AGL   +99999+99999GF199999999999001521999999MA1100205099635MW1615OC101035REMMET10801/07/24 01:56:02 METAR KBLM 070656Z 03014G20KT 3SM -RA BR OVC005 04/04 A2959 RMK AO2 SLP020 P0003 T00440039
0260724084547602024010707317+40183-074133FM-15+0048KBLM V0200205N00515001525MN0040235N5+00405+00405999999ADDAA101000395AU110020015AU200001015AW1105AW2615GA1085+001525999GD14991+0015259GE19AGL   +99999+99999GF199999999999001521999999MA1100175099605MW1615OC100985REMMET09501/07/24 02:31:02 METAR KBLM 070731Z 02010G19KT 2 1/2SM -RA BR OVC005 04/04 A2958 RMK AO2 P0001
0277724084547602024010707567+40183-074133FM-15+0048KBLM V0200205N00625001525MN0040235N5+00445+00445100155ADDAA101000595AU110020015AU200001015AW1105AW2615GA1085+001525999GD14991+0015259GE19AGL   +99999+99999GF199999999999001521999999MA1100145099575MW1615OC100985REMMET11201/07/24 02:56:02 METAR KBLM 070756Z 02012G19KT 2 1/2SM -RA BR OVC005 04/04 A2957 RMK AO2 SLP015 P0002 T00440044
0321724084547602024010708567+40183-074133FM-15+0048KBLM V0200205N00515001525MN0040235N5+00445+00395100095ADDAA101001095AA203002391AU120020015AU200001015AW1105AW2625GA1085+001525999GD14991+0015259GE19AGL   +99999+99999GF199999999999001521999999MA1100105099535MD1690169+9999MW1655REMMET12001/07/24 03:56:02 METAR KBLM 070856Z 02010KT 2 1/2SM RA BR OVC005 04/04 A2956 RMK AO2 SLP009 P0004 60009 T00440039 56016EQDQ01  00228PRCP03
0245724084547602024010709047+40183-074133FM-15+0048KBLM V0200105N00465001525MN0048285N5+00405+00405999999ADDAA101000395AU110020015AU200001015AW1105AW2615GA1085+001525999GD14991+0015259GE19AGL   +99999+99999GF199999999999001521999999MA1100075099505MW1615REMMET08801/07/24 04:04:02 METAR KBLM 070904Z 01009KT 3SM -RA BR OVC005 04/04 A2955 RMK AO2 P0001
0189724084547602024010709044+40187-074125FM-16+004899999V0200101N004610015219N004828199+00401+00401999999ADDAA101000231AW1101AW2611GD14991+0015219GE19AGL   +99999+99999GF199999999999001521999999MA1100071999999REMMET076SPECI KBLM 070904Z AUTO 01009KT 3SM -RA BR OVC005 04/04 A2955 RMK AO2 P0001=
0249724084547602024010709437+40183-074133FM-15+0048KBLM V0200305N00575001525MN0040235N5+00505+00405999999ADDAA101001095AU110020015AU200001015AW1105AW2615GA1085+001525999GD14991+0015259GE19AGL   +99999+99999GF199999999999001521999999MA1100105099535MW1615REMMET09201/07/24 04:43:02 METAR KBLM 070943Z 03011KT 2 1/2SM -RA BR OVC005 05/04 A2956 RMK AO2 P0004
0245724084547602024010709527+40183-074133FM-15+0048KBLM V0200105N00465001525MN0048285N5+00505+00405999999ADDAA101001395AU110020015AU200001015AW1105AW2615GA1085+001525999GD14991+0015259GE19AGL   +99999+99999GF199999999999001521999999MA1100105099535MW1615REMMET08801/07/24 04:52:02 METAR KBLM 070952Z 01009KT 3SM -RA BR OVC005 05/04 A2956 RMK AO2 P0005
0266724084547602024010709567+40183-074133FM-15+0048KBLM V0200105N00415001525MN0040235N5+00505+00445100135ADDAA101001395AU110020015AU200001015AW1105AW2615GA1085+001525999GD14991+0015259GE19AGL   +99999+99999GF199999999999001521999999MA1100105099535MW1615REMMET10901/07/24 04:56:02 METAR KBLM 070956Z 01008KT 2 1/2SM -RA BR OVC005 05/04 A2956 RMK AO2 SLP013 P0005 T00500044
0245724084547602024010710217+40183-074133FM-15+0048KBLM V0200105N00465001525MN0048285N5+00505+00405999999ADDAA101000595AU110020015AU200001015AW1105AW2615GA1085+001525999GD14991+0015259GE19AGL   +99999+99999GF199999999999001521999999MA1100105099535MW1615REMMET08801/07/24 05:21:02 METAR KBLM 071021Z 01009KT 3SM -RA BR OVC005 05/04 A2956 RMK AO2 P0002
0249724084547602024010710317+40183-074133FM-15+0048KBLM V0200105N00515001525MN0040235N5+00405+00405999999ADDAA101000895AU110020015AU200001015AW1105AW2615GA1085+001525999GD14991+0015259GE19AGL   +99999+99999GF199999999999001521999999MA1100105099535MW1615REMMET09201/07/24 05:31:02 METAR KBLM 071031Z 01010KT 2 1/2SM -RA BR OVC005 04/04 A2956 RMK AO2 P0003
0245724084547602024010710417+40183-074133FM-15+0048KBLM V0200205N00415001525MN0048285N5+00505+00405999999ADDAA101000895AU110020015AU200001015AW1105AW2615GA1085+001525999GD14991+0015259GE19AGL   +99999+99999GF199999999999001521999999MA1100105099535MW1615REMMET08801/07/24 05:41:02 METAR KBLM 071041Z 02008KT 3SM -RA BR OVC005 05/04 A2956 RMK AO2 P0003
0277724084547602024010710567+40183-074133FM-15+0048KBLM V0200105N00625001525MN0040235N5+00445+00445100115ADDAA101001095AU110020015AU200001015AW1105AW2615GA1085+001525999GD14991+0015259GE19AGL   +99999+99999GF199999999999001521999999MA1100105099535MW1615OC100825REMMET11201/07/24 05:56:02 METAR KBLM 071056Z 01012G16KT 2 1/2SM -RA BR OVC005 04/04 A2956 RMK AO2 SLP011 P0004 T00440044
0257724084547602024010711047+40183-074133FM-15+0048KBLM V0200105N00575001525MN0048285N5+00405+00405999999ADDAA101000395AU110020015AU200001015AW1105AW2615GA1085+001525999GD14991+0015251GE19AGL   +99999+99999GF199999999999001521999999MA1100105099535MW1615REMMET10001/07/24 06:04:02 METAR KBLM 071104Z 01011KT 3SM -RA BR OVC005 04/04 A2956 RMK AO2 CIG 004V008 P0001
0249724084547602024010711267+40183-074133FM-15+0048KBLM V0200105N00465001525MN0040235N5+00405+00405999999ADDAA101000395AU110020015AU200001015AW1105AW2615GA1085+001525999GD14991+0015259GE19AGL   +99999+99999GF199999999999001521999999MA1100075099505MW1615REMMET09201/07/24 06:26:02 METAR KBLM 071126Z 01009KT 2 1/2SM -RA BR OVC005 04/04 A2955 RMK AO2 P0001
0283724084547602024010711437+40183-074133FM-15+0048KBLM V0203605N00415001525MN0064375N5+00405+00305999999ADDAA101000595AU110020015AU200001015AW1105AW2615GA1075+001525999GA2085+003055999GD13991+0015259GD24991+0030559GE19AGL   +99999+99999GF199999999999001521999999MA1100075099505MW1615REMMET09501/07/24 06:43:02 METAR KBLM 071143Z 36008KT 4SM -RA BR BKN005 OVC010 04/03 A2955 RMK AO2 P0002
0421724084547602024010711567+40183-074133FM-15+0048KBLM V0203505N00515001525MN0080475N5+00395+00335100125ADDAA101000595AA206005191AA324015291AU110020015AU200001015AW1105AW2615GA1085+001525999GD14991+0015259GE19AGL   +99999+99999GF199999999999001521999999KA1060M+00501KA2060N+00391MA1100105099535MD1390009+9999MW1615REMMET13501/07/24 06:56:02 METAR KBLM 071156Z 35010KT 5SM -RA BR OVC005 04/03 A2956 RMK AO2 SLP012 P0002 60020 70060 T00390033 10050 20039 53000EQDQ010     3APC3  Q023     3APCTENQ03  00508PRCP06Q04  01528PRCP24
0262724084547602024010712567+40183-074133FM-15+0048KBLM V0203405N00625001525MN0080475N5+00335+00335100115ADDAA101000021AU110020015AU200001015AW1105AW2615GA1085+001525999GD14991+0015259GE19AGL   +99999+99999GF199999999999001521999999MA1100105099535MW1615REMMET10501/07/24 07:56:02 METAR KBLM 071256Z 34012KT 5SM -RA BR OVC005 03/03 A2956 RMK AO2 SLP011 P0000 T00330033
0245724084547602024010713497+40183-074133FM-15+0048KBLM V0203405N00515001525MN0032195N5+00305+00305999999ADDAA101000395AU110020015AU200001015AW1105AW2615GA1085+001525999GD14991+0015259GE19AGL   +99999+99999GF199999999999001521999999MA1100175099605MW1615REMMET08801/07/24 08:49:02 METAR KBLM 071349Z 34010KT 2SM -RA BR OVC005 03/03 A2958 RMK AO2 P0001
0262724084547602024010713567+40183-074133FM-15+0048KBLM V0203205N00465001525MN0048285N5+00335+00335100195ADDAA101000595AU110020015AU200001015AW1105AW2615GA1085+001525999GD14991+0015259GE19AGL   +99999+99999GF199999999999001521999999MA1100175099605MW1615REMMET10501/07/24 08:56:02 METAR KBLM 071356Z 32009KT 3SM -RA BR OVC005 03/03 A2958 RMK AO2 SLP019 P0002 T00330033
0310724084547602024010714567+40183-074133FM-15+0048KBLM V0202805N00575002135MN0160935N5+00335+00285100275ADDAA101000021AA203000591AU110020015AW1615GA1085+002135999GD14991+0021359GE19AGL   +99999+99999GF199999999999002131999999MA1100275099705MD1390169+9999MW1615OC100935REMMET11801/07/24 09:56:02 METAR KBLM 071456Z 28011G18KT 10SM -RA OVC007 03/03 A2961 RMK AO2 SLP027 P0000 60002 T00330028 53016EQDQ01  00058PRCP03
0247724084547602024010715207+40183-074133FM-15+0048KBLM V0202805N00415001525MN0128755N5+00305+00305999999ADDAA101000395AU120090015AW1401AW2415GA1085+001525999GD14991+0015251GE19AGL   +99999+99999GF199999999999001521999999MA1100275099705REMMET10701/07/24 10:20:02 METAR KBLM 071520Z 28008KT 8SM UP OVC005 03/03 A2961 RMK AO2 RAE07UPB07 CIG 003V007 P0001
0261724084547602024010715517+40183-074133FM-15+0048KBLM V0202905N00675000915MN0160935N5+00205+00205999999ADDAA101000595AU110020015AW1615GA1085+000915999GD14991+0009159GE19AGL   +99999+99999GF199999999999000911999999MA1100275099705MW1615OC100935REMMET11301/07/24 10:51:02 METAR KBLM 071551Z 29013G18KT 10SM -RA OVC003 02/02 A2961 RMK AO2 RAE07B36UPB07E36 P0002 FZRANO
0278724084547602024010715567+40183-074133FM-15+0048KBLM V0202805N00775000915MN0160935N5+00225+00225100315ADDAA101000595AU110020015AW1615GA1085+000915999GD14991+0009159GE19AGL   +99999+99999GF199999999999000911999999MA1100305099735MW1615OC100935REMMET13001/07/24 10:56:02 METAR KBLM 071556Z 28015G18KT 10SM -RA OVC003 02/02 A2962 RMK AO2 RAE07B36UPB07E36 SLP031 P0002 T00220022 FZRANO
0245724084547602024010716297+40183-074133FM-15+0048KBLM V0202905N00575001525MN0160935N5+00205+00205999999ADDAA101000395AU110020015AW1615GA1085+001525999GD14991+0015251GE19AGL   +99999+99999GF199999999999001521999999MA1100275099705MW1615REMMET10501/07/24 11:29:02 METAR KBLM 071629Z 29011KT 10SM -RA OVC005 02/02 A2961 RMK AO2 CIG 003V008 P0001 FZRANO
0256724084547602024010716487+40183-074133FM-15+0048KBLM V0202905N00775002135MN0160935N5+00205+00205999999ADDAA101000395AU110020015AW1615GA1085+002135999GD14991+0021351GE19AGL   +99999+99999GF199999999999002131999999MA1100275099705MW1615OC100985REMMET10801/07/24 11:48:02 METAR KBLM 071648Z 29015G19KT 10SM -RA OVC007 02/02 A2961 RMK AO2 CIG 005V010 P0001 FZRANO
0261724084547602024010716567+40183-074133FM-15+0048KBLM V0202905N00515002135MN0160935N5+00225+00175100285ADDAA101000395AU110020015AW1615GA1085+002135999GD14991+0021359GE19AGL   +99999+99999GF199999999999002131999999MA1100275099705MW1615OC100985REMMET11301/07/24 11:56:02 METAR KBLM 071656Z 29010G19KT 10SM -RA OVC007 02/02 A2961 RMK AO2 SLP028 P0001 T00220017 FZRANO
0235724084547602024010717537+40183-074133FM-15+0048KBLM V0202905N00625001525MN0160935N5+00205+00205999999ADDAA101000021GA1085+001525999GD14991+0015251GE19AGL   +99999+99999GF199999999999001521999999MA1100245099675OC100885REMMET11001/07/24 12:53:02 METAR KBLM 071753Z 29012G17KT 10SM OVC005 02/02 A2960 RMK AO2 RAE08 CIG 005V009 P0000 FZRANO
0335724084547602024010717567+40183-074133FM-15+0048KBLM V0202905N00575001525MN0160935N5+00225+00175100255ADDAA101000021AA206001391GA1085+001525999GD14991+0015251GE19AGL   +99999+99999GF199999999999001521999999KA1060M+00391KA2060N+00221MA1100245099675MD1590049+9999REMMET14801/07/24 12:56:02 METAR KBLM 071756Z 29011KT 10SM OVC005 02/02 A2960 RMK AO2 RAE08 CIG 005V009 SLP025 P0000 60005 T00220017 10039 20022 55004 FZRANOEQDQ01  00128PRCP06
0182724084547602024010718127+40183-074133FM-15+0048KBLM V0203105N00625002135MN0160935N5+00305+00205999999ADDGA1085+002135999GD14991+0021359GE19AGL   +99999+99999GF199999999999002131999999MA1100205099635REMMET07601/07/24 13:12:02 METAR KBLM 071812Z 31012KT 10SM OVC007 03/02 A2959 RMK AO2
0248724084547602024010718567+40183-074133FM-15+0048KBLM V0202905N00575002135MN0160935N5+00285+00115100295ADDGA1075+002135999GA2085+003965999GD13991+0021359GD24991+0039659GE19AGL   +99999+99999GF199999999999002131999999MA1100275099705OC101035REMMET10301/07/24 13:56:02 METAR KBLM 071856Z 29011G20KT 10SM BKN007 OVC013 03/01 A2961 RMK AO2 SLP029 T00280011
0220724084547602024010719037+40183-074133FM-15+0048KBLM V0202905N00465003965MN0160935N5+00305+00105999999ADDGA1045+002135999GA2085+003965999GD12991+0021359GD24991+0039659GE19AGL   +99999+99999GF199999999999002131999999MA1100305099735REMMET08301/07/24 14:03:02 METAR KBLM 071903Z 29009KT 10SM SCT007 OVC013 03/01 A2962 RMK AO2
0220724084547602024010719447+40183-074133FM-15+0048KBLM V0202905N00675006105MN0160935N5+00305+00105999999ADDGA1045+003965999GA2085+006105999GD12991+0039659GD24991+0061059GE19AGL   +99999+99999GF199999999999003961999999MA1100375099805REMMET08301/07/24 14:44:02 METAR KBLM 071944Z 29013KT 10SM SCT013 OVC020 03/01 A2964 RMK AO2
0237724084547602024010719567+40183-074133FM-15+0048KBLM V0202905N00575004885MN0160935N5+00335+00115100405ADDGA1075+004885999GA2085+006405999GD13991+0048859GD24991+0064059GE19AGL   +99999+99999GF199999999999004881999999MA1100415099835REMMET10001/07/24 14:56:02 METAR KBLM 071956Z 29011KT 10SM BKN016 OVC021 03/01 A2965 RMK AO2 SLP040 T00330011
0231724084547602024010720117+40183-074133FM-15+0048KBLM V0202905N00515004275MN0160935N5+00305+00105999999ADDGA1075+004275999GA2085+005795999GD13991+0042759GD24991+0057959GE19AGL   +99999+99999GF199999999999004271999999MA1100445099875OC100985REMMET08601/07/24 15:11:02 METAR KBLM 072011Z 29010G19KT 10SM BKN014 OVC019 03/01 A2966 RMK AO2
0219724084547602024010720567+40183-074133FM-15+0048KBLM V0202805N00465004275MN0160935N5+00335+00115100535ADDGA1085+004275999GD14991+0042759GE19AGL   +99999+99999GF199999999999004271999999MA1100545099975MD1390289+9999REMMET09901/07/24 15:56:02 METAR KBLM 072056Z 28009KT 10SM OVC014 03/01 A2969 RMK AO2 SLP053 T00330011 53028
0220724084547602024010721067+40183-074133FM-15+0048KBLM V0202905N00415004885MN0160935N5+00305+00105999999ADDGA1075+004885999GA2085+007015999GD13991+0048859GD24991+0070159GE19AGL   +99999+99999GF199999999999004881999999MA1100585100005REMMET08301/07/24 16:06:02 METAR KBLM 072106Z 29008KT 10SM BKN016 OVC023 03/01 A2970 RMK AO2
0258724084547602024010721297+40183-074133FM-15+0048KBLM V0202705N00515009755MN0160935N5+00305+00105999999ADDGA1045+005495999GA2045+007015999GA3085+009755999GD12991+0054959GD22991+0070159GD34991+0097559GE19AGL   +99999+99999GF199999999999005491999999MA1100615100045REMMET09001/07/24 16:29:02 METAR KBLM 072129Z 27010KT 10SM SCT018 SCT023 OVC032 03/01 A2971 RMK AO2
0210724084547602024010721567+40183-074133FM-15+0048KBLM V0202905N00575009755MN0160935N5+00395+00065100695ADDGA1085+009755999GD14991+0097559GE19AGL   +99999+99999GF199999999999009751999999MA1100685100105OC100985REMMET09601/07/24 16:56:02 METAR KBLM 072156Z 29011G19KT 10SM OVC032 04/01 A2973 RMK AO2 SLP069 T00390006
0182724084547602024010722147+40183-074133FM-15+0048KBLM V0203005N00675008235MN0160935N5+00405+00005999999ADDGA1085+008235999GD14991+0082359GE19AGL   +99999+99999GF199999999999008231999999MA1100715100145REMMET07601/07/24 17:14:02 METAR KBLM 072214Z 30013KT 10SM OVC027 04/00 A2974 RMK AO2
0248724084547602024010722567+40183-074133FM-15+0048KBLM V0202805N00725007625MN0160935N5+00395+00005100855ADDGA1075+007625999GA2085+010675999GD13991+0076259GD24991+0106759GE19AGL   +99999+99999GF199999999999007621999999MA1100855100275OC101035REMMET10301/07/24 17:56:02 METAR KBLM 072256Z 28014G20KT 10SM BKN025 OVC035 04/00 A2978 RMK AO2 SLP085 T00390000
0232724084547602024010723037+40183-074133FM-15+0048KBLM V0203005N00575011285MN0160935N5+00405-00105999999ADDGA1045+007625999GA2085+011285999GD12991+0076259GD24991+0112859GE19AGL   +99999+99999GF199999999999007621999999MA1100885100315OC101035REMMET08701/07/24 18:03:02 METAR KBLM 072303Z 30011G20KT 10SM SCT025 OVC037 04/M01 A2979 RMK AO2
0288724084547602024010723567+40183-074133FM-15+0048KBLM V0202905N006752200059N0160935N5+00335-00175101035ADDGA1045+011895999GD12991+0118959GE19AGL   +99999+99999GF104995999999011891999999KA1060M+00391KA2060N+00221MA1101025100445MD1390509+9999OC101185REMMET11501/07/24 18:56:02 METAR KBLM 072356Z 29013G23KT 10SM SCT039 03/M02 A2983 RMK AO2 SLP103 T00331017 10039 20022 53050EQDD01      0ADE726
0186724084547602024010800567+40183-074133FM-15+0048KBLM V0202905N005752200059N0160935N5+00285-00285101225ADDGA1005+999999999GD10991+9999999GF100991999999999999999999MA1101225100645OC101035REMMET09401/07/24 19:56:01 METAR KBLM 080056Z 29011G20KT 10SM CLR 03/M03 A2989 RMK AO2 SLP122 T00281028
0182724084547602024010801567+40183-074133FM-15+0048KBLM V0203005N005752200059N0160935N5+00225-00335101355ADDGA1005+999999999GD10991+9999999GF100991999999999999999999MA1101355100785REMMET09801/07/24 20:56:01 METAR KBLM 080156Z 30011KT 10SM CLR 02/M03 A2993 RMK AO2 SLP135 T00221033 FZRANO
0202724084547602024010802567+40183-074133FM-15+0048KBLM V0203005N006252200059N0160935N5+00225-00285101465ADDGA1005+999999999GD10991+9999999GF100991999999999999999999MA1101465100885MD1190429+9999REMMET10401/07/24 21:56:01 METAR KBLM 080256Z 30012KT 10SM CLR 02/M03 A2996 RMK AO2 SLP146 T00221028 51042 FZRANO
0207724084547602024010803567+40183-074133FM-15+0048KBLM V0202805N00465010065MN0160935N5+00175-00285101595ADDGA1075+010065999GD13991+0100659GE19AGL   +99999+99999GF199999999999010061999999MA1101565100985REMMET10101/07/24 22:56:02 METAR KBLM 080356Z 28009KT 10SM BKN033 02/M03 A2999 RMK AO2 SLP159 T00171028 FZRANO
0262724084547602024010804567+40183-074133FM-15+0048KBLM V0202905N004152200059N0160935N5+00115-00285101695ADDGA1045+010065999GD12991+0100659GE19AGL   +99999+99999GF104995999999010061999999KA1240M+00671KA2240N+00111MA1101665101085REMMET11101/07/24 23:56:02 METAR KBLM 080456Z 29008KT 10SM SCT033 01/M03 A3002 RMK AO2 SLP169 T00111028 400670011 FZRANOEQDD01      0ADE726
003972408454760202401080459O+40183-074133SOD  +0048KBLM V020999999999999999999999999999+99999+99999999999ADDAT1AU16RA  5AT2AU13BR  5AT3AU19UP  5
0240724084547602024010805567+40183-074133FM-15+0048KBLM V0202505N002652200059N0160935N5+00005-00225101815ADDGA1005+999999999GD10991+9999999GF100991999999999999999999KA1060M+00331KA2060N+00001MA1101795101225MD1290349+9999REMMET11601/08/24 00:56:02 METAR KBLM 080556Z 25005KT 10SM CLR 00/M02 A3006 RMK AO2 SLP181 T00001022 10033 20000 52034 FZRANO
0183724084547602024010806567+40183-074133FM-15+0048KBLM V0202405N002152200059N0160935N5-00065-00225101925ADDGA1005+999999999GD10991+9999999GF100991999999999999999999MA1101905101325REMMET09901/08/24 01:56:02 METAR KBLM 080656Z 24004KT 10SM CLR M01/M02 A3009 RMK AO2 SLP192 T10061022 FZRANO
0227724084547602024010807567+40183-074133FM-15+0048KBLM V0202305N002652200059N0160935N5-00175-00225102065ADDGA1025+010975999GD11991+0109759GE19AGL   +99999+99999GF102995999999010971999999MA1102035101455REMMET10201/08/24 02:56:02 METAR KBLM 080756Z 23005KT 10SM FEW036 M02/M02 A3013 RMK AO2 SLP206 T10171022 FZRANOEQDD01      0ADE726
0203724084547602024010808567+40183-074133FM-15+0048KBLM V0203005N003152200059N0160935N5-00175-00225102095ADDGA1005+999999999GD10991+9999999GF100991999999999999999999MA1102075101495MD1190289+9999REMMET10501/08/24 03:56:02 METAR KBLM 080856Z 30006KT 10SM CLR M02/M02 A3014 RMK AO2 SLP209 T10171022 51028 FZRANO
0190724084547602024010809567+40183-074133FM-15+0048KBLM V0202905N003152200059N0160935N5-00115-00175102225ADDGA1005+999999999GD10991+9999999GF100991999999999999999999MA1102205101625REMMET10601/08/24 04:56:02 METAR KBLM 080956Z 29006KT 10SM CLR M01/M02 A3018 RMK AO2 PRESRR SLP222 T10111017 FZRANO
0183724084547602024010810567+40183-074133FM-15+0048KBLM V0203005N003652200059N0160935N5-00175-00285102365ADDGA1005+999999999GD10991+9999999GF100991999999999999999999MA1102345101765REMMET09901/08/24 05:56:02 METAR KBLM 081056Z 30007KT 10SM CLR M02/M03 A3022 RMK AO2 SLP236 T10171028 FZRANO
0284724084547602024010811567+40183-074133FM-15+0048KBLM V0202505N003152200059N0160935N5-00115-00335102515ADDAA124001391GA1005+999999999GD10991+9999999GF100991999999999999999999KA1060M+00001KA2060N-00221MA1102515101925MD1390429+9999REMMET13001/08/24 06:56:02 METAR KBLM 081156Z 25006KT 10SM CLR M01/M03 A3027 RMK AO2 PRESRR SLP251 70005 T10111033 10000 21022 53042 FZRANOEQDQ01  00128PRCP24
0182724084547602024010812567+40183-074133FM-15+0048KBLM V0202805N003652200059N0160935N5+00005-00335102665ADDGA1005+999999999GD10991+9999999GF100991999999999999999999MA1102645102065REMMET09801/08/24 07:56:02 METAR KBLM 081256Z 28007KT 10SM CLR 00/M03 A3031 RMK AO2 SLP266 T00001033 FZRANO
0182724084547602024010813567+40183-074133FM-15+0048KBLM V0203205N004152200059N0160935N5+00225-00335102745ADDGA1005+999999999GD10991+9999999GF100991999999999999999999MA1102715102135REMMET09801/08/24 08:56:02 METAR KBLM 081356Z 32008KT 10SM CLR 02/M03 A3033 RMK AO2 SLP274 T00221033 FZRANO
0206724084547602024010814567+40183-074133FM-15+0048KBLM V0203105N005752200059N0160935N5+00395-00335102875ADDGA1005+999999999GD10991+9999999GF100991999999999999999999MA1102885102305MD1190379+9999OC100935REMMET10001/08/24 09:56:02 METAR KBLM 081456Z 31011G18KT 10SM CLR 04/M03 A3038 RMK AO2 SLP287 T00391033 51037
0175724084547602024010815567+40183-074133FM-15+0048KBLM V0203105N005752200059N0160935N5+00565-00395102935ADDGA1005+999999999GD10991+9999999GF100991999999999999999999MA1102915102335REMMET09101/08/24 10:56:02 METAR KBLM 081556Z 31011KT 10SM CLR 06/M04 A3039 RMK AO2 SLP293 T00561039
0175724084547602024010816567+40183-074133FM-15+0048KBLM V0203305N006252200059N0160935N5+00615-00395102895ADDGA1005+999999999GD10991+9999999GF100991999999999999999999MA1102885102305REMMET09101/08/24 11:56:02 METAR KBLM 081656Z 33012KT 10SM CLR 06/M04 A3038 RMK AO2 SLP289 T00611039
0233724084547602024010817567+40183-074133FM-15+0048KBLM V0203405N006252200059N0160935N5+00675-00395102895ADDGA1005+999999999GD10991+9999999GF100991999999999999999999KA1060M+00671KA2060N-00111MA1102885102305MD1090029+9999REMMET10901/08/24 12:56:02 METAR KBLM 081756Z 34012KT 10SM CLR 07/M04 A3038 RMK AO2 SLP289 T00671039 10067 21011 50002
0175724084547602024010818567+40183-074133FM-15+0048KBLM V0203205N005152200059N0160935N5+00725-00445102935ADDGA1005+999999999GD10991+9999999GF100991999999999999999999MA1102915102335REMMET09101/08/24 13:56:02 METAR KBLM 081856Z 32010KT 10SM CLR 07/M04 A3039 RMK AO2 SLP293 T00721044
0175724084547602024010819567+40183-074133FM-15+0048KBLM V0203305N002652200059N0160935N5+00725-00395102945ADDGA1005+999999999GD10991+9999999GF100991999999999999999999MA1102955102365REMMET09101/08/24 14:56:02 METAR KBLM 081956Z 33005KT 10SM CLR 07/M04 A3040 RMK AO2 SLP294 T00721039
0195724084547602024010820567+40183-074133FM-15+0048KBLM V0202905N002152200059N0160935N5+00615-00445102995ADDGA1005+999999999GD10991+9999999GF100991999999999999999999MA1102985102405MD1190099+9999REMMET09701/08/24 15:56:02 METAR KBLM 082056Z 29004KT 10SM CLR 06/M04 A3041 RMK AO2 SLP299 T00611044 51009
0175724084547602024010821567+40183-074133FM-15+0048KBLM V0202505N002152200059N0160935N5+00445-00395103065ADDGA1005+999999999GD10991+9999999GF100991999999999999999999MA1103055102465REMMET09101/08/24 16:56:02 METAR KBLM 082156Z 25004KT 10SM CLR 04/M04 A3043 RMK AO2 SLP306 T00441039
0175724084547602024010822567+40183-074133FM-15+0048KBLM V0202205N002152200059N0160935N5+00395-00395103165ADDGA1005+999999999GD10991+9999999GF100991999999999999999999MA1103155102575REMMET09101/08/24 17:56:02 METAR KBLM 082256Z 22004KT 10SM CLR 04/M04 A3046 RMK AO2 SLP316 T00391039
0233724084547602024010823567+40183-074133FM-15+0048KBLM V0202405N002152200059N0160935N5+00285-00395103185ADDGA1005+999999999GD10991+9999999GF100991999999999999999999KA1060M+00781KA2060N+00281MA1103155102575MD1190199+9999REMMET10901/08/24 18:56:02 METAR KBLM 082356Z 24004KT 10SM CLR 03/M04 A3046 RMK AO2 SLP318 T00281039 10078 20028 51019
0142724084547602024010900567+40183-074133FM-15+0048KBLM V0202905N001552200019N9999999N5+00111-00391103211ADDGF100991999999999999999999MA1103181999999REMMET05401/08/24 19:56:01 METAR KBLM 090056Z 29003KT RVRNO RMKEQDR01      7SKY009R02      7GAS009
0142724084547602024010901567+40183-074133FM-15+0048KBLM V0209999C000052200019N9999999N5+00061-00391103141ADDGF100991999999999999999999MA1103121999999REMMET05401/08/24 20:56:01 METAR KBLM 090156Z 00000KT RVRNO RMKEQDR01      7SKY009R02      7GAS009
0156724084547602024010902567+40183-074133FM-15+0048KBLM V0209999C000052200019N9999999N5-00061-00331103101ADDGF100991999999999999999999MA1103081999999MD1810081+9999REMMET05401/08/24 21:56:01 METAR KBLM 090256Z 00000KT RVRNO RMKEQDR01      7SKY009R02      7GAS009
0142724084547602024010903567+40183-074133FM-15+0048KBLM V0202305N001552200019N9999999N5-00111-00391103061ADDGF100991999999999999999999MA1103051999999REMMET05401/08/24 22:56:02 METAR KBLM 090356Z 23003KT RVRNO RMKEQDR01      7SKY009R02      7GAS009
0168724084547602024010904567+40183-074133FM-15+0048KBLM V0202205N001552200019N9999999N5-00171-00391103061ADDGF100991999999999999999999KA1240M+00781KA2240N-00221MA1103051999999REMMET05401/08/24 23:56:02 METAR KBLM 090456Z 22003KT RVRNO RMKEQDR01      7SKY009R02      7GAS009
0198724084547602024010905567+40183-074133FM-15+0048KBLM V0202305N001552200019N9999999N5-00111-00391103091ADDGF100991999999999999999999KA1060M+00281KA2060N-00221MA1103081999999MD1310019+9999REMMET05401/09/24 00:56:02 METAR KBLM 090556Z 23003KT RVRNO RMKEQDQ010     3APC3  R01      7SKY009R02      7GAS009
0142724084547602024010906567+40183-074133FM-15+0048KBLM V0209999C000052200019N9999999N5-00111-00391103031ADDGF100991999999999999999999MA1103011999999REMMET05401/09/24 01:56:02 METAR KBLM 090656Z 00000KT RVRNO RMKEQDR01      7SKY009R02      7GAS009
0142724084547602024010907567+40183-074133FM-15+0048KBLM V0209999C000052200019N9999999N5-00171-00391103021ADDGF100991999999999999999999MA1103011999999REMMET05401/09/24 02:56:02 METAR KBLM 090756Z 00000KT RVRNO RMKEQDR01      7SKY009R02      7GAS009
0156724084547602024010908567+40183-074133FM-15+0048KBLM V0200905N002152200019N9999999N5-00111-00391102911ADDGF100991999999999999999999MA1102911999999MD1810181+9999REMMET05401/09/24 03:56:02 METAR KBLM 090856Z 09004KT RVRNO RMKEQDR01      7SKY009R02      7GAS009
0142724084547602024010909567+40183-074133FM-15+0048KBLM V0201005N002152200019N9999999N5+00111-00391102891ADDGF100991999999999999999999MA1102881999999REMMET05401/09/24 04:56:02 METAR KBLM 090956Z 10004KT RVRNO RMKEQDR01      7SKY009R02      7GAS009
0142724084547602024010910567+40183-074133FM-15+0048KBLM V0209999C000052200019N9999999N5+00171-00171102891ADDGF100991999999999999999999MA1102881999999REMMET05401/09/24 05:56:02 METAR KBLM 091056Z 00000KT RVRNO RMKEQDR01      7SKY009R02      7GAS009
0240724084547602024010911567+40183-074133FM-15+0048KBLM V0200905N002152200059N0160935N5+00065-00175102785ADDGA1005+999999999GD10991+9999999GF100991999999999999999999KA1060M+00171KA2060N-00221MA1102785102195MD1890149+9999REMMET11601/09/24 06:56:02 METAR KBLM 091156Z 09004KT 10SM CLR 01/M02 A3035 RMK AO2 SLP278 T00061017 10017 21022 58014 FZRANO
0199724084547602024010912567+40183-074133FM-15+0048KBLM V0201105N00365011585MN0160935N5+00395+00005102645ADDGA1075+011585999GD13991+0115859GE19AGL   +99999+99999GF199999999999011581999999MA1102645102065REMMET09301/09/24 07:56:02 METAR KBLM 091256Z 11007KT 10SM BKN038 04/00 A3031 RMK AO2 SLP264 T00390000
0237724084547602024010913567+40183-074133FM-15+0048KBLM V0201105N00465011585MN0160935N5+00565+00065102655ADDGA1075+011585999GA2075+014335999GD13991+0115859GD23991+0143359GE19AGL   +99999+99999GF199999999999011581999999MA1102645102065REMMET10001/09/24 08:56:02 METAR KBLM 091356Z 11009KT 10SM BKN038 BKN047 06/01 A3031 RMK AO2 SLP265 T00560006
0306724084547602024010914567+40183-074133FM-15+0048KBLM V0201205N00625013725MN0160935N5+00615+00115102585ADDGA1075+013725999GA2075+018295999GA3085+033535999GD13991+0137259GD23991+0182959GD34991+0335359GE19AGL   +99999+99999GF199999999999013721999999MA1102575101995MD1690199+9999OC101035REMMET11601/09/24 09:56:02 METAR KBLM 091456Z 12012G20KT 10SM BKN045 BKN060 OVC110 06/01 A3029 RMK AO2 SLP258 T00610011 56019
0282724084547602024010915567+40183-074133FM-15+0048KBLM V0201105N00675024385MN0160935N5+00675+00285102415ADDGA1025+010365999GA2075+024385999GA3085+028965999GD11991+0103659GD23991+0243859GD34991+0289659GE19AGL   +99999+99999GF199999999999010361999999MA1102405101825REMMET11401/09/24 10:56:02 METAR KBLM 091556Z 11013KT 10SM FEW034 BKN080 OVC095 07/03 A3024 RMK AO2 PRESFR SLP241 T00670028
0305724084547602024010916567+40183-074133FM-15+0048KBLM V0201005N00775027435MN0160935N5+00675+00445102105ADDAA101000021AU110020015AW1615GA1025+021345999GA2085+027435999GD11991+0213459GD24991+0274359GE19AGL   +99999+99999GF199999999999021341999999MA1102105101525MW1615OC100985REMMET12601/09/24 11:56:02 METAR KBLM 091656Z 10015G19KT 10SM -RA FEW070 OVC090 07/04 A3015 RMK AO2 RAB27 PRESFR SLP210 P0000 T00670044
0417724084547602024010917567+40183-074133FM-15+0048KBLM V0201005N00825004575MN0112655N5+00725+00565101885ADDAA101000021AA206000021AU110020015AW1615GA1075+004575999GA2075+015245999GA3085+021345999GD13991+0045759GD23991+0152459GD34991+0213459GE19AGL   +99999+99999GF199999999999004571999999KA1060M+00721MA1101865101285MD1890709+9999MW1615OC100985REMMET15001/09/24 12:56:02 METAR KBLM 091756Z 10016G19KT 7SM -RA BKN015 BKN050 OVC070 07/06 A3008 RMK AO2 PRESFR SLP188 P0000 60000 T00720056 10072 20006 58070EQDQ01  00008PRCP06
0319724084547602024010918297+40183-074133FM-15+0048KBLM V0201005N00885010365MN0144845N5+00705+00605999999ADDAA101000021AU110020015AW1615GA1045+003965999GA2075+010365999GA3085+012805999GD12991+0039659GD23991+0103659GD34991+0128059GE19AGL   +99999+99999GF199999999999003961999999MA1101765101185MW1615OC101035REMMET10901/09/24 13:29:02 METAR KBLM 091829Z 10017G20KT 9SM -RA SCT013 BKN034 OVC042 07/06 A3005 RMK AO2 PRESFR P0000
0311724084547602024010918567+40183-074133FM-15+0048KBLM V0201005N00725003965MN0096565N5+00725+00615101705ADDAA101000395AU110020015AU200001015AW1105AW2615GA1075+003965999GA2085+010365999GD13991+0039659GD24991+0103659GE19AGL   +99999+99999GF199999999999003961999999MA1101695101125MW1615OC101085REMMET11501/09/24 13:56:02 METAR KBLM 091856Z 10014G21KT 6SM -RA BR BKN013 OVC034 07/06 A3003 RMK AO2 SLP170 P0001 T00720061
0339724084547602024010919377+40183-074133FM-15+0048KBLM V0201105N00885009145MN0096565N5+00705+00705999999ADDAA101000395AU110020015AU200001015AW1105AW2615GA1045+003355999GA2075+009145999GA3085+013115999GD12991+0033559GD23991+0091459GD34991+0131159GE19AGL   +99999+99999GF199999999999003351999999MA1101495100915MW1615OC101185REMMET11201/09/24 14:37:02 METAR KBLM 091937Z 11017G23KT 6SM -RA BR SCT011 BKN030 OVC043 07/07 A2997 RMK AO2 PRESFR P0001
0339724084547602024010919447+40183-074133FM-15+0048KBLM V0201105N00885008235MN0096565N5+00805+00705999999ADDAA101000395AU110020015AU200001015AW1105AW2615GA1045+003355999GA2075+008235999GA3085+010975999GD12991+0033559GD23991+0082359GD34991+0109759GE19AGL   +99999+99999GF199999999999003351999999MA1101495100915MW1615OC101185REMMET11201/09/24 14:44:02 METAR KBLM 091944Z 11017G23KT 6SM -RA BR SCT011 BKN027 OVC036 08/07 A2997 RMK AO2 PRESFR P0001
0348724084547602024010919567+40183-074133FM-15+0048KBLM V0201105N00675004575MN0064375N5+00785+00725101455ADDAA101000595AU120020015AU200001015AW1105AW2625GA1045+003355999GA2075+004575999GA3085+014025999GD12991+0033559GD23991+0045759GD34991+0140259GE19AGL   +99999+99999GF199999999999003351999999MA1101465100885MW1655OC101185REMMET12101/09/24 14:56:02 METAR KBLM 091956Z 11013G23KT 4SM RA BR SCT011 BKN015 OVC046 08/07 A2996 RMK AO2 SLP145 P0002 T00780072
0331724084547602024010920027+40183-074133FM-15+0048KBLM V0201105N00775002745MN0080475N5+00805+00705999999ADDAA101000021AU120020015AU200001015AW1105AW2625GA1075+002745999GA2075+004575999GA3085+011585999GD13991+0027459GD23991+0045759GD34991+0115859GE19AGL   +99999+99999GF199999999999002741999999MA1101425100855MW1655OC101185REMMET10401/09/24 15:02:02 METAR KBLM 092002Z 11015G23KT 5SM RA BR BKN009 BKN015 OVC038 08/07 A2995 RMK AO2 P0000
0321724084547602024010920567+40183-074133FM-15+0048KBLM V0201105N00825001835MN0080475N5+00895+00835101075ADDAU110020015AU200001015AW1105AW2615GA1085+001835999GD14991+0018359GE19AGL   +99999+99999GF199999999999001831999999MA1101055100485MD1890819+9999MW1615OC101395OD149901491110REMMET13901/09/24 15:56:02 METAR KBLM 092056Z 11016G27KT 5SM -RA BR OVC006 09/08 A2984 RMK AO2 PK WND 11029/2039 PRESFR SLP107 6//// T00890083 58081
0288724084547602024010921177+40183-074133FM-15+0048KBLM V0201105N00885001225MN0080475N5+00905+00805999999ADDAA101000021AU110020015AU200001015AW1105AW2615GA1085+001225999GD14991+0012259GE19AGL   +99999+99999GF199999999999001221999999MA1101025100445MW1615OC101185OD149901331110REMMET10901/09/24 16:17:02 METAR KBLM 092117Z 11017G23KT 5SM -RA BR OVC004 09/08 A2983 RMK AO2 PK WND 11026/2059 P0000
0304724084547602024010921567+40183-074133FM-15+0048KBLM V0201105N00885001225MN0080475N5+00945+00895100865ADDAA101000395AU120020015AU200001015AW1105AW2625GA1085+001225999GD14991+0012259GE19AGL   +99999+99999GF199999999999001221999999MA1100855100275MW1655OC101445OD149901441100REMMET12501/09/24 16:56:02 METAR KBLM 092156Z 11017G28KT 5SM RA BR OVC004 09/09 A2978 RMK AO2 PK WND 10028/2148 SLP086 P0001 T00940089
0331724084547602024010922517+40183-074133FM-15+0048KBLM V0201205N00775011285MN0096565N5+01005+00905999999ADDAA101000595AU120020015AU200001015AW1105AW2625GA1045+001225999GA2045+008535999GA3085+011285999GD12991+0012259GD22991+0085359GD34991+0112859GE19AGL   +99999+99999GF199999999999001221999999MA1100585100005MW1655OC101245REMMET10401/09/24 17:51:02 METAR KBLM 092251Z 12015G24KT 6SM RA BR SCT004 SCT028 OVC037 10/09 A2970 RMK AO2 P0002
0348724084547602024010922527+40183-074133FM-15+0048KBLM V0201205N00825011285MN0096565N5+01065+00945100615ADDAA101000595AU120020015AU200001015AW1105AW2625GA1045+001225999GA2045+008535999GA3085+011285999GD12991+0012259GD22991+0085359GD34991+0112859GE19AGL   +99999+99999GF199999999999001221999999MA1100615100045MW1655OC101135REMMET12101/09/24 17:52:02 METAR KBLM 092252Z 12016G22KT 6SM RA BR SCT004 SCT028 OVC037 11/09 A2971 RMK AO2 SLP061 P0002 T01060094
0294724084547602024010923387+40183-074133FM-15+0048KBLM V0201205N01035008535MN0064375N5+01105+01005999999ADDAA101000895AU120020015AU200001015AW1105AW2625GA1085+008535999GD14991+0085359GE19AGL   +99999+99999GF199999999999008531999999MA1100305099735MW1655OC101545OD149901541130REMMET11501/09/24 18:38:02 METAR KBLM 092338Z 12020G30KT 4SM RA BR OVC028 11/10 A2962 RMK AO2 PK WND 13030/2335 PRESFR P0003
0413724084547602024010923567+40183-074133FM-15+0048KBLM V0201105N00985007925MN0048285N5+01115+01065100185ADDAA101001095AU120020015AU200001015AW1105AW2625GA1045+001835999GA2085+007925999GD12991+0018359GD24991+0079259GE19AGL   +99999+99999GF199999999999001831999999KA1060M+01111KA2060N+00721MA1100175099605MD1690679+9999MW1655OC101605OD149901591120REMMET16301/09/24 18:56:02 METAR KBLM 092356Z 11019G31KT 3SM RA BR SCT006 OVC026 11/11 A2958 RMK AO2 PK WND 12031/2354 PRESFR SLP018 P0004 6//// T01110106 10111 20072 56067
0325724084547602024011000037+40183-074133FM-15+0048KBLM V0201205N01085001835MN0048285N5+01105+01105999999ADDAA101000395AU120020015AU200001015AW1105AW2625GA1075+001835999GA2085+007925999GD13991+0018359GD24991+0079259GE19AGL   +99999+99999GF199999999999001831999999MA1100175099605MW1655OC101705OD149901691130REMMET11501/09/24 19:03:01 METAR KBLM 100003Z 12021G33KT 3SM RA BR BKN006 OVC026 11/11 A2958 RMK AO2 PK WND 13033/0001 P0001
0349724084547602024011000567+40183-074133FM-15+0048KBLM V0201305N00985001835MN0064375N5+01175+01115099915ADDAA101002395AU120020015AU200001015AW1105AW2625GA1075+001835999GA2085+003665999GD13991+0018359GD24991+0036659GE19AGL   +99999+99999GF199999999999001831999999MA1099905099335MW1655OC101495OD149901691130REMMET13901/09/24 19:56:01 METAR KBLM 100056Z 13019G29KT 4SM RA BR BKN006 OVC012 12/11 A2950 RMK AO2 PK WND 13033/0001 PRESFR SLP991 P0009 T01170111
0311724084547602024011001567+40183-074133FM-15+0048KBLM V0201405N01135001835MN0064375N5+01285+01225099575ADDAA101003895AU120020015AU200001015AW1105AW2625GA1085+001835999GD14991+0018359GE19AGL   +99999+99999GF199999999999001831999999MA1099565098995MW1655OC101705OD149901751150REMMET13201/09/24 20:56:01 METAR KBLM 100156Z 14022G33KT 4SM RA BR OVC006 13/12 A2940 RMK AO2 PK WND 15034/0137 PRESFR SLP957 P0015 T01280122
0368724084547602024011002567+40183-074133FM-15+0048KBLM V0201505N01395001835MN0064375N5+01335+01285099235ADDAA101003095AA203009191AU110020015AU200001015AW1105AW2615GA1085+001835999GD14991+0018359GE19AGL   +99999+99999GF199999999999001831999999MA1099225098665MD1890959+9999MW1615OC101965OD149902211150REMMET14501/09/24 21:56:01 METAR KBLM 100256Z 15027G38KT 4SM -RA BR OVC006 13/13 A2930 RMK AO2 PK WND 15043/0246 PRESFR SLP923 P0012 60036 T01330128 58095EQDQ01  00918PRCP03
0310724084547602024011003537+40183-074133FM-15+0048KBLM V0202305N01185001835MN0040235N5+01305+01305999999ADDAA101005895AU130020015AU200001015AW1105AW2635GA1085+001835999GD14991+0018359GE19AGL   +99999+99999GF199999999999001831999999MA1099265098695MW1635OC102165OD149902161140REMMET13101/09/24 22:53:01 METAR KBLM 100353Z 23023G42KT 2 1/2SM +RA BR OVC006 13/13 A2931 RMK AO2 PK WND 14042/0346 WSHFT 0339 PRESRR P0023
0320724084547602024011003567+40183-074133FM-15+0048KBLM V0202105V00825001835MN0028165N5+01335+01335099225ADDAA101008495AU130020015AU200001015AW1105AW2635GA1085+001835999GD14991+0018359GE19AGL   +99999+99999GF199999999999001831999999MA1099225098665MW1635OC101655OD149902161140REMMET14101/09/24 22:56:01 METAR KBLM 100356Z 21016G32KT 1 3/4SM +RA BR OVC006 13/13 A2930 RMK AO2 PK WND 14042/0346 WSHFT 0339 SLP922 P0033 T01330133
0303724084547602024011004037+40183-074133FM-15+0048KBLM V0202005N00885001835MN0028165N5+01305+01305999999ADDAA101003695AU130020015AU200001015AW1105AW2635GA1085+001835999GD14991+0018359GE19AGL   +99999+99999GF199999999999001831999999MA1099195098625MW1635OC101345OD149901331190REMMET12401/09/24 23:03:01 METAR KBLM 100403Z 20017G26KT 1 3/4SM +RA BR OVC006 13/13 A2929 RMK AO2 PK WND 19026/0402 WSHFT 0343 P0014
0299724084547602024011004107+40183-074133FM-15+0048KBLM V0201905N00775001835MN0048285N5+01305+01305999999ADDAA101004895AU130020015AU200001015AW1105AW2635GA1085+001835999GD14991+0018359GE19AGL   +99999+99999GF199999999999001831999999MA1099155098595MW1635OC101345OD149901331190REMMET12001/09/24 23:10:01 METAR KBLM 100410Z 19015G26KT 3SM +RA BR OVC006 13/13 A2928 RMK AO2 PK WND 19026/0402 WSHFT 0343 P0019
0343724084547602024011004417+40183-074133FM-15+0048KBLM V0201605N00365003665MN0144845N5+01305+01305999999ADDAA101006195AU120020015AW1625GA1045+001835999GA2075+003665999GA3085+007925999GD12991+0018359GD23991+0036659GD34991+0079259GE19AGL   +99999+99999GF199999999999001831999999MA1099095098525MW1655OD149901331190REMMET12701/09/24 23:41:01 METAR KBLM 100441Z 16007KT 9SM RA SCT006 BKN012 OVC026 13/13 A2926 RMK AO2 PK WND 19026/0402 WSHFT 0343 P0024
0393724084547602024011004517+40183-074133FM-15+0048KBLM V0201605N00415007625MN0160935N5+01305+01305999999ADDAA101006495AU110020015AW1615GA1045+002745999GA2075+007625999GA3085+022865999GD12991+0027451GD23991+0076259GD34991+0228659GE19AGL   +99999+99999GF199999999999002741999999KA1240M+01331KA2240N-00221MA1099095098525MW1615OD149901331190REMMET15101/09/24 23:51:01 METAR KBLM 100451Z 16008KT 10SM -RA SCT009 BKN025 OVC075 13/13 A2926 RMK AO2 PK WND 19026/0402 WSHFT 0343 CIG 019V032 P0025 401331022
0397724084547602024011004567+40183-074133FM-15+0048KBLM V0201605N00415018295MN0160935N5+01335+01335099085ADDAA101006495AU120020015AW1625GA1025+003355999GA2075+018295999GA3085+022865999GD11991+0033559GD23991+0182959GD34991+0228659GE19AGL   +99999+99999GF199999999999003351999999KA1240M+01331KA2240N-00221MA1099095098525MW1655OD149901331190REMMET15501/09/24 23:56:01 METAR KBLM 100456Z 16008KT 10SM RA FEW011 BKN060 OVC075 13/13 A2926 RMK AO2 PK WND 19026/0402 WSHFT 0343 SLP908 P0025 T01330133 401331022
0301724084547602024011004597+40183-074133FM-15+0048KBLM V0201505N00365008235MN0160935N5+01305+01305999999ADDAA101000395AU120020015AW1625GA1025+001225999GA2075+008235999GA3085+022865999GD11991+0012259GD23991+0082359GD34991+0228659GE19AGL   +99999+99999GF199999999999001221999999MA1099055098495MW1655REMMET09901/09/24 23:59:01 METAR KBLM 100459Z 15007KT 10SM RA FEW004 BKN027 OVC075 13/13 A2925 RMK AO2 P0001
002772408454760202401100459O+40183-074133SOD  +0048KBLM V020999999999999999999999999999+99999+99999999999ADDAT1AU16RA  5AT2AU13BR  5
0362724084547602024011005527+40183-074133FM-15+0048KBLM V0201405N00775001835MN0112655N5+01205+01205999999ADDAA101002395AU120020015AW1625GA1075+001835999GA2075+006715999GA3085+011585999GD13991+0018351GD23991+0067159GD34991+0115859GE19AGL   +99999+99999GF199999999999001831999999MA1098615098055MW1655OC101345OD149901331140REMMET13801/10/24 00:52:01 METAR KBLM 100552Z 14015G26KT 7SM RA BKN006 BKN022 OVC038 12/12 A2912 RMK AO2 PK WND 14026/0547 CIG 003V011 PRESFR P0009
0454724084547602024011005567+40183-074133FM-15+0048KBLM V0201405N00775001225MN0112655N5+01225+01225098625ADDAA101002395AA206026291AU120020015AW1625GA1075+001225999GA2075+002745999GA3085+012805999GD13991+0012259GD23991+0027459GD34991+0128059GE19AGL   +99999+99999GF199999999999001221999999KA1060M+01331KA2060N+01111MA1098615098055MD1690469+9999MW1655OC101345OD149901331140REMMET16001/10/24 00:56:01 METAR KBLM 100556Z 14015G26KT 7SM RA BKN004 BKN009 OVC042 12/12 A2912 RMK AO2 PK WND 14026/0547 SLP862 P0009 60103 T01220122 10133 20111 56046EQDQ01  02618PRCP06
0253724084547602024011006567+40183-074133FM-15+0048KBLM V0201605N00515001225MN0112655N5+01285+01225098545ADDAA101001095AU110020015AW1615GA1085+001225999GD14991+0012259GE19AGL   +99999+99999GF199999999999001221999999MA1098545097985MW1615OC100775REMMET10501/10/24 01:56:01 METAR KBLM 100656Z 16010G15KT 7SM -RA OVC004 13/12 A2910 RMK AO2 SLP854 P0004 T01280122
0276724084547602024011007307+40183-074133FM-15+0048KBLM V0201705N00465002445MN0160935N5+01305+01305999999ADDAA101000021AU110020015AW1615GA1045+001225999GA2085+002445999GD12991+0012251GD24991+0024459GE19AGL   +99999+99999GF199999999999001221999999MA1098445097885MW1615REMMET10501/10/24 02:30:01 METAR KBLM 100730Z 17009KT 10SM -RA SCT004 OVC008 13/13 A2907 RMK AO2 CIG 006V010 P0000
0222724084547602024011007567+40183-074133FM-15+0048KBLM V0202105N00415002445MN0160935N5+01335+01285098395ADDAA101000021GA1085+002445999GD14991+0024459GE19AGL   +99999+99999GF199999999999002441999999MA1098375097815REMMET10501/10/24 02:56:01 METAR KBLM 100756Z 21008KT 10SM OVC008 13/13 A2905 RMK AO2 RAE33 SLP839 P0000 T01330128
0354724084547602024011008567+40183-074133FM-15+0048KBLM V0202105N00515002445MN0160935N5+01335+01225098346ADDAA103001091GA1075+002445999GA2075+004275999GA3085+006405999GD13991+0024451GD23991+0042759GD34991+0064059GE19AGL   +99999+99999GF199999999999002441999999MA1098346097786MD1690289+9999OC100885REMMET13401/10/24 03:56:01 METAR KBLM 100856Z 21010G17KT 10SM BKN008 BKN014 OVC021 13/12 A2904 RMK AO2 CIG 007V013 SLP834 60004 T01330122 56028EQDQ01  00108PRCP03
0269724084547602024011009057+40183-074133FM-15+0048KBLM V0202105N00625004275MN0160935N5+01305+01205999999ADDGA1045+002445999GA2075+004275999GA3085+006405999GD12991+0024459GD23991+0042759GD34991+0064059GE19AGL   +99999+99999GF199999999999002441999999MA1098376097816OC100985REMMET09301/10/24 04:05:01 METAR KBLM 100905Z 21012G19KT 10SM SCT008 BKN014 OVC021 13/12 A2905 RMK AO2
0248724084547602024011009567+40183-074133FM-15+0048KBLM V0202205N00625005185MN0160935N5+01335+01115098436ADDGA1075+005185999GA2085+010365999GD13991+0051859GD24991+0103659GE19AGL   +99999+99999GF199999999999005181999999MA1098446097886OC100985REMMET10301/10/24 04:56:01 METAR KBLM 100956Z 22012G19KT 10SM BKN017 OVC034 13/11 A2907 RMK AO2 SLP843 T01330111
0307724084547602024011010567+40183-074133FM-15+0048KBLM V0202705N00515005495MN0160935N5+01115+00725098555ADDGA1075+005495999GA2075+007325999GA3085+014635999GD13991+0054959GD23991+0073259GD34991+0146359GE19AGL   +99999+99999GF199999999999005491999999MA1098545097985OD149901491250REMMET12501/10/24 05:56:02 METAR KBLM 101056Z 27010KT 10SM BKN018 BKN024 OVC048 11/07 A2910 RMK AO2 PK WND 25029/1031 SLP855 T01110072
0269724084547602024011011127+40183-074133FM-15+0048KBLM V0202705N00575012805MN0160935N5+01105+00705999999ADDGA1045+006105999GA2075+012805999GA3085+022865999GD12991+0061059GD23991+0128059GD34991+0228659GE19AGL   +99999+99999GF199999999999006101999999MA1098585098015OC101135REMMET09301/10/24 06:12:02 METAR KBLM 101112Z 27011G22KT 10SM SCT020 BKN042 OVC075 11/07 A2911 RMK AO2
0385724084547602024011011567+40183-074133FM-15+0048KBLM V0202605N00625016765MN0160935N5+01005+00565098725ADDAA101000021AA206001091AA324999919GA1025+007625999GA2085+016765999GD11991+0076259GD24991+0167659GE19AGL   +99999+99999GF199999999999007621999999KA1060M+01331KA2060N+01001MA1098715098155MD1390389+9999OC100935REMMET14801/10/24 06:56:02 METAR KBLM 101156Z 26012G18KT 10SM FEW025 OVC055 10/06 A2915 RMK AO2 RAB24E36 SLP872 P0000 60004 7//// T01000056 10133 20100 53038EQDQ01  00108PRCP06
0330724084547602024011012567+40183-074133FM-15+0048KBLM V0202505N00675021345MN0160935N5+00945+00335098865ADDAA101000021AU110020015AW1615GA1075+021345999GA2085+027435999GD13991+0213459GD24991+0274359GE19AGL   +99999+99999GF199999999999021341999999MA1098855098285MW1615OC100935OD149901491260REMMET13701/10/24 07:56:02 METAR KBLM 101256Z 25013G18KT 10SM -RA BKN070 OVC090 09/03 A2919 RMK AO2 PK WND 26029/1208 RAB42 SLP886 P0000 T00940033
0265724084547602024011013567+40183-074133FM-15+0048KBLM V0202605N00675024385MN0160935N5+00895+00115099055ADDAA101000021GA1085+024385999GD14991+0243859GE19AGL   +99999+99999GF199999999999024381999999MA1099055098495OC101345OD149901591260REMMET12601/10/24 08:56:02 METAR KBLM 101356Z 26013G26KT 10SM OVC080 09/01 A2925 RMK AO2 PK WND 26031/1309 RAE26 SLP905 P0000 T00890011
0314724084547602024011014567+40183-074133FM-15+0048KBLM V0202505N008252200059N0160935N5+00945+00065099205ADDAA103000021GA1025+024385999GD11991+0243859GE19AGL   +99999+99999GF102995999999024381999999MA1099195098625MD1390489+9999OC101395OD149901391240REMMET12601/10/24 09:56:02 METAR KBLM 101456Z 25016G27KT 10SM FEW080 09/01 A2929 RMK AO2 PK WND 24027/1451 SLP920 60000 T00940006 53048EQDQ01  00008PRCP03D01      0ADE726
0243724084547602024011015567+40183-074133FM-15+0048KBLM V0202505N00985014025MN0160935N5+01005-00115099325ADDGA1075+014025999GD13991+0140259GE19AGL   +99999+99999GF199999999999014021999999MA1099325098765OC101395OD149901441270REMMET11501/10/24 10:56:02 METAR KBLM 101556Z 25019G27KT 10SM BKN046 10/M01 A2933 RMK AO2 PK WND 27028/1536 SLP932 T01001011
0243724084547602024011016567+40183-074133FM-15+0048KBLM V0202505N00725019815MN0160935N5+01005-00115099295ADDGA1075+019815999GD13991+0198159GE19AGL   +99999+99999GF199999999999019811999999MA1099295098725OC101245OD149901751270REMMET11501/10/24 11:56:02 METAR KBLM 101656Z 25014G24KT 10SM BKN065 10/M01 A2932 RMK AO2 PK WND 27034/1610 SLP929 T01001011
0298724084547602024011017567+40183-074133FM-15+0048KBLM V0202405N011352200059N0160935N5+00895-00285099445ADDAA106000021GA1005+999999999GD10991+9999999GF100991999999999999999999KA1060M+01061KA2060N+00891MA1099425098865MD1390239+9999OC101705REMMET13601/10/24 12:56:02 METAR KBLM 101756Z 24022G33KT 10SM CLR 09/M03 A2936 RMK AO2 PK WND 28034/1716 SLP944 60000 T00891028 10106 20089 53023EQDQ01  00008PRCP06
0243724084547602024011018567+40183-074133FM-15+0048KBLM V0202505N00825016765MN0160935N5+00835-00225099595ADDGA1085+016765999GD14991+0167659GE19AGL   +99999+99999GF199999999999016761999999MA1099595099035OC101445OD149901591240REMMET11501/10/24 13:56:02 METAR KBLM 101856Z 25016G28KT 10SM OVC055 08/M02 A2941 RMK AO2 PK WND 24031/1846 SLP959 T00831022
0243724084547602024011019567+40183-074133FM-15+0048KBLM V0202505N00725015245MN0160935N5+00835-00175099715ADDGA1085+015245999GD14991+0152459GE19AGL   +99999+99999GF199999999999015241999999MA1099705099135OC101395OD149901491270REMMET11501/10/24 14:56:02 METAR KBLM 101956Z 25014G27KT 10SM OVC050 08/M02 A2944 RMK AO2 PK WND 27029/1924 SLP971 T00831017
