0209724090147802023010103354+40033-074353FM-16+003199999V0202601N003610015219N999999999+01391+01331999999ADDAW1621GD14991+0024411GE19AGL   +99999+99999GF199999999999002441999999MA1100881999999REMMET113SPECI KNEL 010335Z AUTO 26007KT RA OVC008 14/13 A2979 RMK AO2 UPB25E37B19E12RAB37B12 CIG 005V011 T01390133 PNO $=
0217724090147802023010104004+40033-074353FM-15+003199999V0202301N003610024419N999999999+01391+01331100851ADDAW1611GD14991+0024419GE19AGL   +99999+99999GF199999999999002441999999MA1100881999999REMMET121METAR KNEL 010400Z AUTO 23007KT -RA OVC008 14/13 A2979 RMK AO2 UPB0325E0337B0319E0312RAB0337B0312 SLP085 T01390133 PNO $=
0257724090147802023010105007+40033-074350FM-15+0031KNEL V0202405N00265001835MN9999999N5+01285+01285100715ADDAA101000021GA1085+001835999GD14991+0018359GE19AGL   +99999+99999GF199999999999001831999999KA1240M+01281KA2240N+01281MA1100715100345REMMET11401/01/23 00:00:02 METAR KNEL 010500Z 24005KT OVC006 13/13 A2974 RMK AO2 RAE0412 SLP071 P0000 T01280128 401280128 $
0240724090147802023010106007+40033-074350FM-15+0031KNEL V0202705N00465001835MN9999999N5+01335+01285100725ADDGA1085+001835999GD14991+0018359GE19AGL   +99999+99999GF199999999999001831999999KA1060M+01391KA2060N-00111MA1100755100375REMMET10801/01/23 01:00:02 METAR KNEL 010600Z 27009KT OVC006 13/13 A2975 RMK AO2 SLP072 6//// T01330128 10139 21011 $
0195724090147802023010107007+40033-074350FM-15+0031KNEL V0202705N00625001525MN9999999N5+01285+01225999999ADDGA1085+001525999GD14991+0015259GE19AGL   +99999+99999GF199999999999001521999999MA1100815100445REMMET08901/01/23 02:00:02 METAR KNEL 010700Z 27012KT OVC005 13/12 A2977 RMK AO2 SLPNO T01280122 $
0201724090147802023010107487+40033-074350FM-16+0031KNEL V0202805N00515003055MN9999999N5+01285+01175999999ADDGA1085+003055999GD14991+0030551GE19AGL   +99999+99999GF199999999999003051999999MA1100885100515REMMET09501/01/23 02:48:02 SPECI KNEL 010748Z 28010KT OVC010 13/12 A2979 RMK AO2 CIG 006V014 T01280117 $
0208724090147802023010108007+40033-074350FM-15+0031KNEL V0202805N00415003055MN9999999N5+01225+01175100885ADDGA1085+003055999GD14991+0030551GE19AGL   +99999+99999GF199999999999003051999999MA1100885100515REMMET10201/01/23 03:00:02 METAR KNEL 010800Z 28008KT OVC010 12/12 A2979 RMK AO2 CIG 007V014 SLP088 T01220117 $
0189724090147802023010108187+40033-074350FM-16+0031KNEL V0202705N00415002745MN9999999N5+01225+01115999999ADDGA1085+002745999GD14991+0027459GE19AGL   +99999+99999GF199999999999002741999999MA1100915100545REMMET08301/01/23 03:18:02 SPECI KNEL 010818Z 27008KT OVC009 12/11 A2980 RMK AO2 T01220111 $
0234724090147802023010109007+40033-074350FM-15+0031KNEL V0202805N00315002445MN9999999N5+01175+01065100905ADDGA1085+002445999GD14991+0024451GE19AGL   +99999+99999GF199999999999002441999999MA1100915100545MD1390179+9999REMMET11401/01/23 04:00:02 METAR KNEL 010900Z 28006KT OVC008 12/11 A2980 RMK AO2 CIG 006V012 SLP090 6//// T01170106 53017 $
0208724090147802023010110007+40033-074350FM-15+0031KNEL V0202705N00465002135MN9999999N5+01115+01065100995ADDGA1075+002135999GD13991+0021351GE19AGL   +99999+99999GF199999999999002131999999MA1101025100645REMMET10201/01/23 05:00:02 METAR KNEL 011000Z 27009KT BKN007 11/11 A2983 RMK AO2 CIG 005V010 SLP099 T01110106 $
0198724090147802023010110587+40033-074350FM-16+0031KNEL V0202705N004152200059N9999999N5+01105+01005999999ADDGA1045+001525999GD12991+0015259GE19AGL   +99999+99999GF104995999999001521999999MA1101085100715REMMET07301/01/23 05:58:02 SPECI KNEL 011058Z 27008KT SCT005 11/10 A2985 RMK AO2 $EQDD01      0ADE726
0215724090147802023010111007+40033-074350FM-15+0031KNEL V0202705N004152200059N9999999N5+01065+00945101075ADDGA1025+001525999GD11991+0015259GE19AGL   +99999+99999GF102995999999001521999999MA1101085100715REMMET09001/01/23 06:00:02 METAR KNEL 011100Z 27008KT FEW005 11/09 A2985 RMK AO2 SLP107 T01060094 $EQDD01      0ADE726
0246724090147802023010112007+40033-074350FM-15+0031KNEL V0202605N002152200059N9999999N5+00945+00895101135ADDAA124999919GA1005+999999999GD10991+9999999GF100991999999999999999999KA1060M+01331KA2060N+00891MA1101155100785MD1190179+9999REMMET11101/01/23 07:00:02 METAR KNEL 011200Z 26004KT CLR 09/09 A2987 RMK AO2 SLP113 7//// T00940089 10133 20089 51017 $
0171724090147802023010113007+40033-074350FM-15+0031KNEL V0202705N004152200059N9999999N5+00895+00835101235ADDGA1005+999999999GD10991+9999999GF100991999999999999999999MA1101255100885REMMET08701/01/23 08:00:02 METAR KNEL 011300Z 27008KT CLR 09/08 A2990 RMK AO2 SLP123 T00890083 $
0171724090147802023010114007+40033-074350FM-15+0031KNEL V0202705N005152200059N9999999N5+01005+00785101345ADDGA1005+999999999GD10991+9999999GF100991999999999999999999MA1101355100985REMMET08701/01/23 09:00:02 METAR KNEL 011400Z 27010KT CLR 10/08 A2993 RMK AO2 SLP134 T01000078 $
0190724090147802023010115007+40033-074350FM-15+0031KNEL V0202905N005152200059N9999999N5+01175+00785999999ADDGA1005+999999999GD10991+9999999GF100991999999999999999999MA1101495101125MD1390269+9999REMMET09201/01/23 10:00:02 METAR KNEL 011500Z 29010KT CLR 12/08 A2997 RMK AO2 SLPNO T01170078 53026 $
0171724090147802023010116007+40033-074350FM-15+0031KNEL V0202805N006252200059N9999999N5+01225+00615101415ADDGA1005+999999999GD10991+9999999GF100991999999999999999999MA1101425101055REMMET08701/01/23 11:00:02 METAR KNEL 011600Z 28012KT CLR 12/06 A2995 RMK AO2 SLP141 T01220061 $
0215724090147802023010200007+40033-074350FM-15+0031KNEL V0209999C000052200059N9999999N5+00395+00225101665ADDGA1005+999999999GD10991+9999999GF100991999999999999999999KA1060M+01221KA2060N+00391MA1101695101325REMMET10501/01/23 19:00:01 METAR KNEL 020000Z 00000KT CLR 04/02 A3003 RMK AO2 SLP166 6//// T00390022 10122 20039 $
0171724090147802023010201007+40033-074350FM-15+0031KNEL V0209999C000052200059N9999999N5+00335+00225101675ADDGA1005+999999999GD10991+9999999GF100991999999999999999999MA1101695101325REMMET08701/01/23 20:00:01 METAR KNEL 020100Z 00000KT CLR 03/02 A3003 RMK AO2 SLP167 T00330022 $
0171724090147802023010202007+40033-074350FM-15+0031KNEL V0209999C000052200059N9999999N5+00285+00115101675ADDGA1005+999999999GD10991+9999999GF100991999999999999999999MA1101695101325REMMET08701/01/23 21:00:01 METAR KNEL 020200Z 00000KT CLR 03/01 A3003 RMK AO2 SLP167 T00280011 $
0177724090147802023010203007+40033-074350FM-15+0031KNEL V0209999C000052200059N9999999N5+00285+00175101695ADDGA1005+999999999GD10991+9999999GF100991999999999999999999MA1101735101355REMMET09301/01/23 22:00:01 METAR KNEL 020300Z 00000KT CLR 03/02 A3004 RMK AO2 SLP169 6//// T00280017 $
0172724090147802023010204007+40033-074350FM-15+0031KNEL V0209999C000052200059N9999999N5+00065-00065101685ADDGA1005+999999999GD10991+9999999GF100991999999999999999999MA1101695101325REMMET08801/01/23 23:00:02 METAR KNEL 020400Z 00000KT CLR 01/M01 A3003 RMK AO2 SLP168 T00061006 $
0207724090147802023010205007+40033-074350FM-15+0031KNEL V0209999C000052200059N9999999N5+00065+00005101695ADDGA1005+999999999GD10991+9999999GF100991999999999999999999KA1240M+00061KA2240N+00061MA1101735101355REMMET09701/02/23 00:00:02 METAR KNEL 020500Z 00000KT CLR 01/00 A3004 RMK AO2 SLP169 T00060000 400060006 $
0209724090147802023010206007+40033-074350FM-15+0031KNEL V0203405N001552200059N9999999N5+00115+00005101735ADDGA1005+999999999GD10991+9999999GF100991999999999999999999KA1060M+00391KA2060N+00001MA1101765101395REMMET09901/02/23 01:00:02 METAR KNEL 020600Z 34003KT CLR 01/00 A3005 RMK AO2 SLP173 T00110000 10039 20000 $
0172724090147802023010207007+40033-074350FM-15+0031KNEL V0203305N001552200059N9999999N5+00005-00065101765ADDGA1005+999999999GD10991+9999999GF100991999999999999999999MA1101795101425REMMET08801/02/23 02:00:02 METAR KNEL 020700Z 33003KT CLR 00/M01 A3006 RMK AO2 SLP176 T00001006 $
0172724090147802023010208007+40033-074350FM-15+0031KNEL V0209999C000052200059N9999999N5+00005-00065101825ADDGA1005+999999999GD10991+9999999GF100991999999999999999999MA1101835101465REMMET08801/02/23 03:00:02 METAR KNEL 020800Z 00000KT CLR 00/M01 A3007 RMK AO2 SLP182 T00001006 $
0191724090147802023010209007+40033-074350FM-15+0031KNEL V0209999C000052200059N9999999N5+00115+00065101815ADDGA1005+999999999GD10991+9999999GF100991999999999999999999MA1101835101465MD1390139+9999REMMET09301/02/23 04:00:02 METAR KNEL 020900Z 00000KT CLR 01/01 A3007 RMK AO2 SLP181 T00110006 53013 $
0171724090147802023010210007+40033-074350FM-15+0031KNEL V0209999C000052200059N9999999N5+00115+00065101875ADDGA1005+999999999GD10991+9999999GF100991999999999999999999MA1101905101525REMMET08701/02/23 05:00:02 METAR KNEL 021000Z 00000KT CLR 01/01 A3009 RMK AO2 SLP187 T00110006 $
0170724090147802023010211007+40033-074350FM-15+0031KNEL V0209999C000052200059N9999999N5+00225+00115999999ADDGA1005+999999999GD10991+9999999GF100991999999999999999999MA1101935101565REMMET08601/02/23 06:00:02 METAR KNEL 021100Z 00000KT CLR 02/01 A3010 RMK AO2 SLPNO T00220011 $
0246724090147802023010212007+40033-074350FM-15+0031KNEL V0209999C000052200059N9999999N5+00175+00115101965ADDAA124999919GA1005+999999999GD10991+9999999GF100991999999999999999999KA1060M+00281KA2060N+00001MA1101965101595MD1390099+9999REMMET11101/02/23 07:00:02 METAR KNEL 021200Z 00000KT CLR 02/01 A3011 RMK AO2 SLP196 7//// T00170011 10028 20000 53009 $
0171724090147802023010213007+40033-074350FM-15+0031KNEL V0209999C000052200059N9999999N5+00285+00175102025ADDGA1005+999999999GD10991+9999999GF100991999999999999999999MA1102035101665REMMET08701/02/23 08:00:02 METAR KNEL 021300Z 00000KT CLR 03/02 A3013 RMK AO2 SLP202 T00280017 $
0171724090147802023010214007+40033-074350FM-15+0031KNEL V0209999C000052200059N9999999N5+00675+00445102055ADDGA1005+999999999GD10991+9999999GF100991999999999999999999MA1102075101695REMMET08701/02/23 09:00:02 METAR KNEL 021400Z 00000KT CLR 07/04 A3014 RMK AO2 SLP205 T00670044 $
0191724090147802023010215007+40033-074350FM-15+0031KNEL V0202905N001552200059N9999999N5+01115+00725102065ADDGA1005+999999999GD10991+9999999GF100991999999999999999999MA1102075101695MD1190149+9999REMMET09301/02/23 10:00:02 METAR KNEL 021500Z 29003KT CLR 11/07 A3014 RMK AO2 SLP206 T01110072 51014 $
0259724090147802023010221007+40033-074350FM-15+0031KNEL V0209999C000052200059N9999999N5+01395+00785101945ADDGA1025+025915999GA2045+033535999GD11991+0259159GD22991+0335359GE19AGL   +99999+99999GF104995999999025911999999MA1101965101595REMMET10301/02/23 16:00:02 METAR KNEL 022100Z 00000KT FEW085 SCT110 14/08 A3011 RMK AO2 SLP194 6//// T01390078 $EQDD01      0ADE726
0234724090147802023010223007+40033-074350FM-15+0031KNEL V0209999C00005019815MN9999999N5+01115+00785102015ADDGA1075+019815999GA2085+027435999GD13991+0198159GD24991+0274359GE19AGL   +99999+99999GF199999999999019811999999MA1102035101665REMMET09701/02/23 18:00:02 METAR KNEL 022300Z 00000KT BKN065 OVC090 11/08 A3013 RMK AO2 SLP201 T01110078 $
0240724090147802023010300007+40033-074350FM-15+0031KNEL V0209999C00005018295MN9999999N5+01115+00725102055ADDGA1085+018295999GD14991+0182959GE19AGL   +99999+99999GF199999999999018291999999KA1060M+01391KA2060N+00171MA1102075101695REMMET10801/02/23 19:00:01 METAR KNEL 030000Z 00000KT OVC060 11/07 A3014 RMK AO2 SLP205 6//// T01110072 10139 20017 $
0196724090147802023010301007+40033-074350FM-15+0031KNEL V0201405N00155015245MN9999999N5+01115+00725102045ADDGA1085+015245999GD14991+0152459GE19AGL   +99999+99999GF199999999999015241999999MA1102075101695REMMET09001/02/23 20:00:01 METAR KNEL 030100Z 14003KT OVC050 11/07 A3014 RMK AO2 SLP204 T01110072 $
0196724090147802023010302007+40033-074350FM-15+0031KNEL V0209999C00005016765MN9999999N5+01065+00725102065ADDGA1085+016765999GD14991+0167659GE19AGL   +99999+99999GF199999999999016761999999MA1102075101695REMMET09001/02/23 21:00:01 METAR KNEL 030200Z 00000KT OVC055 11/07 A3014 RMK AO2 SLP206 T01060072 $
0222724090147802023010303007+40033-074350FM-15+0031KNEL V0209999C00005015245MN9999999N5+01065+00725102035ADDGA1085+015245999GD14991+0152459GE19AGL   +99999+99999GF199999999999015241999999MA1102035101665MD1190059+9999REMMET10201/02/23 22:00:01 METAR KNEL 030300Z 00000KT OVC050 11/07 A3013 RMK AO2 SLP203 6//// T01060072 51005 $
0196724090147802023010304007+40033-074350FM-15+0031KNEL V0209999C00005015245MN9999999N5+01005+00725102025ADDGA1085+015245999GD14991+0152459GE19AGL   +99999+99999GF199999999999015241999999MA1102035101665REMMET09001/02/23 23:00:02 METAR KNEL 030400Z 00000KT OVC050 10/07 A3013 RMK AO2 SLP202 T01000072 $
0232724090147802023010305007+40033-074350FM-15+0031KNEL V0201305N00155021345MN9999999N5+01065+00725101985ADDGA1085+021345999GD14991+0213459GE19AGL   +99999+99999GF199999999999021341999999KA1240M+01061KA2240N+01061MA1102005101625REMMET10001/03/23 00:00:02 METAR KNEL 030500Z 13003KT OVC070 11/07 A3012 RMK AO2 SLP198 T01060072 401060106 $
0292724090147802023010306007+40033-074350FM-15+0031KNEL V0201305N00155018295MN9999999N5+01005+00725101945ADDGA1075+018295999GA2085+024385999GD13991+0182959GD24991+0243859GE19AGL   +99999+99999GF199999999999018291999999KA1060M+01111KA2060N+01001MA1101965101595MD1890089+9999REMMET11501/03/23 01:00:02 METAR KNEL 030600Z 13003KT BKN060 OVC080 10/07 A3011 RMK AO2 SLP194 T01000072 10111 20100 58008 $
0234724090147802023010307007+40033-074350FM-15+0031KNEL V0201405N00215016765MN9999999N5+00945+00725101915ADDGA1075+016765999GA2085+025915999GD13991+0167659GD24991+0259159GE19AGL   +99999+99999GF199999999999016761999999MA1101935101565REMMET09701/03/23 02:00:02 METAR KNEL 030700Z 14004KT BKN055 OVC085 09/07 A3010 RMK AO2 SLP191 T00940072 $
0196724090147802023010308007+40033-074350FM-15+0031KNEL V0201305N00155028965MN9999999N5+00945+00725101895ADDGA1085+028965999GD14991+0289659GE19AGL   +99999+99999GF199999999999028961999999MA1101905101525REMMET09001/03/23 03:00:02 METAR KNEL 030800Z 13003KT OVC095 09/07 A3009 RMK AO2 SLP189 T00940072 $
0291724090147802023010309007+40033-074350FM-15+0031KNEL V0201305N00155028965MN9999999N5+00945+00725999999ADDGA1025+018295999GA2025+022865999GA3085+028965999GD11991+0182959GD21991+0228659GD34991+0289659GE19AGL   +99999+99999GF199999999999018291999999MA1101835101465MD1690089+9999REMMET10901/03/23 04:00:02 METAR KNEL 030900Z 13003KT FEW060 FEW075 OVC095 09/07 A3007 RMK AO2 SLPNO T00940072 56008 $
0234724090147802023010310007+40033-074350FM-15+0031KNEL V0201505N00215022865MN9999999N5+00945+00785101775ADDGA1075+022865999GA2085+027435999GD13991+0228659GD24991+0274359GE19AGL   +99999+99999GF199999999999022861999999MA1101795101425REMMET09701/03/23 05:00:02 METAR KNEL 031000Z 15004KT BKN075 OVC090 09/08 A3006 RMK AO2 SLP177 T00940078 $
0272724090147802023010311007+40033-074350FM-15+0031KNEL V0209999C00005019815MN9999999N5+00945+00785101765ADDGA1075+019815999GA2075+025915999GA3085+033535999GD13991+0198159GD23991+0259159GD34991+0335359GE19AGL   +99999+99999GF199999999999019811999999MA1101795101425REMMET10401/03/23 06:00:02 METAR KNEL 031100Z 00000KT BKN065 BKN085 OVC110 09/08 A3006 RMK AO2 SLP176 T00940078 $
0309724090147802023010312007+40033-074350FM-15+0031KNEL V0200705N00155033535MN9999999N5+00945+00785101665ADDAA124999919GA1045+025915999GA2085+033535999GD12991+0259159GD24991+0335359GE19AGL   +99999+99999GF199999999999025911999999KA1060M+01001KA2060N+00891MA1101665101295MD1690139+9999REMMET12101/03/23 07:00:02 METAR KNEL 031200Z 07003KT SCT085 OVC110 09/08 A3002 RMK AO2 SLP166 7//// T00940078 10100 20089 56013 $
0234724090147802023010313007+40033-074350FM-15+0031KNEL V0209999C00005019815MN9999999N5+00945+00785101645ADDGA1075+019815999GA2085+033535999GD13991+0198159GD24991+0335359GE19AGL   +99999+99999GF199999999999019811999999MA1101665101295REMMET09701/03/23 08:00:02 METAR KNEL 031300Z 00000KT BKN065 OVC110 09/08 A3002 RMK AO2 SLP164 T00940078 $
0272724090147802023010314007+40033-074350FM-15+0031KNEL V0201505N00215033535MN9999999N5+01065+00835101575ADDGA1025+019815999GA2025+027435999GA3075+033535999GD11991+0198159GD21991+0274359GD33991+0335359GE19AGL   +99999+99999GF199999999999019811999999MA1101595101225REMMET10401/03/23 09:00:02 METAR KNEL 031400Z 15004KT FEW065 FEW090 BKN110 11/08 A3000 RMK AO2 SLP157 T01060083 $
0216724090147802023010315007+40033-074350FM-15+0031KNEL V0209999C00005027435MN9999999N5+01225+00945101535ADDGA1085+027435999GD14991+0274359GE19AGL   +99999+99999GF199999999999027431999999MA1101565101195MD1690199+9999REMMET09601/03/23 10:00:02 METAR KNEL 031500Z 00000KT OVC090 12/09 A2999 RMK AO2 SLP153 T01220094 56019 $
0217724090147802023010315557+40033-074350FM-16+0031KNEL V0202705N00365004885MN9999999N5+01405+01105999999ADDGA1075+004885999GA2085+024385999GD13991+0048859GD24991+0243859GE19AGL   +99999+99999GF199999999999004881999999MA1101595101225REMMET08001/03/23 10:55:02 SPECI KNEL 031555Z 27007KT BKN016 OVC080 14/11 A3000 RMK AO2 $
0234724090147802023010316007+40033-074350FM-15+0031KNEL V0202805N00415004885MN9999999N5+01395+01065101565ADDGA1075+004885999GA2085+024385999GD13991+0048859GD24991+0243859GE19AGL   +99999+99999GF199999999999004881999999MA1101565101195REMMET09701/03/23 11:00:02 METAR KNEL 031600Z 28008KT BKN016 OVC080 14/11 A2999 RMK AO2 SLP156 T01390106 $
0239724090147802023010316407+40033-074350FM-16+0031KNEL V0202605N00155004275MN9999999N5+01335+01115999999ADDAA101000021AU110020015AW1615GA1085+004275999GD14991+0042759GE19AGL   +99999+99999GF199999999999004271999999MA1101425101055MW1615REMMET09901/03/23 11:40:02 SPECI KNEL 031640Z 26003KT -RA OVC014 13/11 A2995 RMK AO2 RAB23 P0000 T01330111 $
0248724090147802023010317007+40033-074350FM-15+0031KNEL V0202005N00315004275MN9999999N5+01285+01115101375ADDAA101000021AU110020015AW1615GA1085+004275999GD14991+0042759GE19AGL   +99999+99999GF199999999999004271999999MA1101395101025MW1615REMMET10801/03/23 12:00:02 METAR KNEL 031700Z 20006KT -RA OVC014 13/11 A2994 RMK AO2 RAB1623 SLP137 P0000 T01280111 $
0309724090147802023010317437+40033-074350FM-16+0031KNEL V0209999C00005004575MN9999999N5+01335+01225999999ADDAA101000021AU110020015AW1615GA1075+004575999GA2075+022865999GA3085+030485999GD13991+0045759GD23991+0228659GD34991+0304859GE19AGL   +99999+99999GF199999999999004571999999MA1101325100955MW1615REMMET10701/03/23 12:43:02 SPECI KNEL 031743Z 00000KT -RA BKN015 BKN075 OVC100 13/12 A2992 RMK AO2 P0000 T01330122 $
0261724090147802023010318007+40033-074350FM-16+0031KNEL V0202205N00315003965MN9999999N5+01405+01305999999ADDAA101000021AU110020015AW1615GA1075+003965999GA2085+024385999GD13991+0039659GD24991+0243859GE19AGL   +99999+99999GF199999999999003961999999MA1101325100955MW1615REMMET09001/03/23 13:00:02 SPECI KNEL 031800Z 22006KT -RA BKN013 OVC080 14/13 A2992 RMK AO2 P0000 $
0351724090147802023010318067+40033-074350FM-15+0031KNEL V0202105N00315003965MN9999999N5+01445+01285101285ADDAA101000021AA206000021GA1075+003965999GA2085+022865999GD13991+0039659GD24991+0228659GE19AGL   +99999+99999GF199999999999003961999999KA1060M+01441KA2060N+00941MA1101295100915MD1890179+9999REMMET13301/03/23 13:06:02 METAR KNEL 031806Z 21006KT BKN013 OVC075 14/13 A2991 RMK AO2 RAE04 SLP128 P0000 60000 T01440128 10144 20094 58017 $EQDQ01  00008PRCP06
0277724090147802023010318307+40033-074350FM-16+0031KNEL V0202105N00465002745MN9999999N5+01505+01335999999ADDGA1075+002745999GA2075+003665999GA3085+030485999GD13991+0027451GD23991+0036659GD34991+0304859GE19AGL   +99999+99999GF199999999999002741999999MA1101255100885REMMET10901/03/23 13:30:02 SPECI KNEL 031830Z 21009KT BKN009 BKN012 OVC100 15/13 A2990 RMK AO2 CIG 006V010 T01500133 $
0265724090147802023010318457+40033-074350FM-16+0031KNEL V0202205N00415003055MN9999999N5+01505+01335999999ADDGA1075+003055999GA2075+009145999GA3085+030485999GD13991+0030559GD23991+0091459GD34991+0304859GE19AGL   +99999+99999GF199999999999003051999999MA1101225100855REMMET09701/03/23 13:45:02 SPECI KNEL 031845Z 22008KT BKN010 BKN030 OVC100 15/13 A2989 RMK AO2 T01500133 $
0265724090147802023010318537+40033-074350FM-16+0031KNEL V0202105N00415024385MN9999999N5+01565+01335999999ADDGA1045+003055999GA2075+024385999GA3085+030485999GD12991+0030559GD23991+0243859GD34991+0304859GE19AGL   +99999+99999GF199999999999003051999999MA1101225100855REMMET09701/03/23 13:53:02 SPECI KNEL 031853Z 21008KT SCT010 BKN080 OVC100 16/13 A2989 RMK AO2 T01560133 $
0272724090147802023010319007+40033-074350FM-15+0031KNEL V0202105V00515024385MN9999999N5+01565+01395101155ADDGA1025+003055999GA2075+024385999GA3085+030485999GD11991+0030559GD23991+0243859GD34991+0304859GE19AGL   +99999+99999GF199999999999003051999999MA1101155100785REMMET10401/03/23 14:00:02 METAR KNEL 031900Z 21010KT FEW010 BKN080 OVC100 16/14 A2987 RMK AO2 SLP115 T01560139 $
0196724090147802023010320007+40033-074350FM-15+0031KNEL V0202105N00365036585MN9999999N5+01615+01335101105ADDGA1075+036585999GD13991+0365859GE19AGL   +99999+99999GF199999999999036581999999MA1101125100755REMMET09001/03/23 15:00:02 METAR KNEL 032000Z 21007KT BKN120 16/13 A2986 RMK AO2 SLP110 T01610133 $
0252724090147802023010321007+40033-074350FM-15+0031KNEL V0202305N00315033535MN9999999N5+01675+01335101025ADDAA103000021GA1075+033535999GD13991+0335359GE19AGL   +99999+99999GF199999999999033531999999MA1101055100685MD1890209+9999REMMET10201/03/23 16:00:02 METAR KNEL 032100Z 23006KT BKN110 17/13 A2984 RMK AO2 SLP102 60000 T01670133 58020 $EQDQ01  00008PRCP03
0171724090147802023010322007+40033-074350FM-15+0031KNEL V0201905N003152200059N9999999N5+01565+01335100965ADDGA1005+999999999GD10991+9999999GF100991999999999999999999MA1100985100615REMMET08701/03/23 17:00:02 METAR KNEL 032200Z 19006KT CLR 16/13 A2982 RMK AO2 SLP096 T01560133 $
0182724090147802023010323007+40033-074350FM-15+0031KNEL V0202105N005752200059N9999999N5+01675+01225100945ADDGA1005+999999999GD10991+9999999GF100991999999999999999999MA1100955100585OC100935REMMET09001/03/23 18:00:02 METAR KNEL 032300Z 21011G18KT CLR 17/12 A2981 RMK AO2 SLP094 T01670122 $
0229724090147802023010400007+40033-074350FM-15+0031KNEL V0202305N003652200059N9999999N5+01675+01225100975ADDGA1005+999999999GD10991+9999999GF100991999999999999999999KA1060M+01671KA2060N+01441MA1100985100615MD1690159+9999REMMET10501/03/23 19:00:01 METAR KNEL 040000Z 23007KT CLR 17/12 A2982 RMK AO2 SLP097 T01670122 10167 20144 56015 $
0182724090147802023010401007+40033-074350FM-15+0031KNEL V0202305N004152200059N9999999N5+01615+01175100975ADDGA1005+999999999GD10991+9999999GF100991999999999999999999MA1100985100615OC100985REMMET09001/03/23 20:00:01 METAR KNEL 040100Z 23008G19KT CLR 16/12 A2982 RMK AO2 SLP097 T01610117 $
0171724090147802023010402007+40033-074350FM-15+0031KNEL V0202305N006252200059N9999999N5+01615+01065100965ADDGA1005+999999999GD10991+9999999GF100991999999999999999999MA1100985100615REMMET08701/03/23 21:00:01 METAR KNEL 040200Z 23012KT CLR 16/11 A2982 RMK AO2 SLP096 T01610106 $
0191724090147802023010403007+40033-074350FM-15+0031KNEL V0202405N004652200059N9999999N5+01615+01065100945ADDGA1005+999999999GD10991+9999999GF100991999999999999999999MA1100955100585MD1090019+9999REMMET09301/03/23 22:00:01 METAR KNEL 040300Z 24009KT CLR 16/11 A2981 RMK AO2 SLP094 T01610106 50001 $
0215724090147802023010404007+40033-074350FM-15+0031KNEL V0202305N004652200059N9999999N5+01565+01115100855ADDGA1025+033535999GD11991+0335359GE19AGL   +99999+99999GF102995999999033531999999MA1100885100515REMMET09001/03/23 23:00:01 METAR KNEL 040400Z 23009KT FEW110 16/11 A2979 RMK AO2 SLP085 T01560111 $EQDD01      0ADE726
001572409014780202301040459O+40033-074350SOD  +0031KNEL V020999999999999999999999999999+99999+99999999999ADDAT1AU16RA  5
0207724090147802023010405007+40033-074350FM-15+0031KNEL V0202205N004152200059N9999999N5+01565+01115100845ADDGA1005+999999999GD10991+9999999GF100991999999999999999999KA1240M+01561KA2240N+01561MA1100855100485REMMET09701/04/23 00:00:01 METAR KNEL 040500Z 22008KT CLR 16/11 A2978 RMK AO2 SLP084 T01560111 401560156 $
0229724090147802023010406007+40033-074350FM-15+0031KNEL V0202405N004152200059N9999999N5+01565+01175100865ADDGA1005+999999999GD10991+9999999GF100991999999999999999999KA1060M+01671KA2060N+01501MA1100885100515MD1890129+9999REMMET10501/04/23 01:00:01 METAR KNEL 040600Z 24008KT CLR 16/12 A2979 RMK AO2 SLP086 T01560117 10167 20150 58012 $
0253724090147802023010407007+40033-074350FM-15+0031KNEL V0202505N003152200059N9999999N5+01565+01175100905ADDGA1025+013115999GA2045+025915999GD11991+0131159GD22991+0259159GE19AGL   +99999+99999GF104995999999013111999999MA1100915100545REMMET09701/04/23 02:00:01 METAR KNEL 040700Z 25006KT FEW043 SCT085 16/12 A2980 RMK AO2 SLP090 T01560117 $EQDD01      0ADE726
0171724090147802023010408007+40033-074350FM-15+0031KNEL V0202605N002152200059N9999999N5+01445+01175100935ADDGA1005+999999999GD10991+9999999GF100991999999999999999999MA1100955100585REMMET08701/04/23 03:00:01 METAR KNEL 040800Z 26004KT CLR 14/12 A2981 RMK AO2 SLP093 T01440117 $
0216724090147802023010409007+40033-074350FM-15+0031KNEL V0202505N00215030485MN9999999N5+01395+01175100915ADDGA1075+030485999GD13991+0304859GE19AGL   +99999+99999GF199999999999030481999999MA1100955100585MD1390119+9999REMMET09601/04/23 04:00:01 METAR KNEL 040900Z 25004KT BKN100 14/12 A2981 RMK AO2 SLP091 T01390117 53011 $
0171724090147802023010410007+40033-074350FM-15+0031KNEL V0202505N002652200059N9999999N5+01445+01175100975ADDGA1005+999999999GD10991+9999999GF100991999999999999999999MA1100985100615REMMET08701/04/23 05:00:02 METAR KNEL 041000Z 25005KT CLR 14/12 A2982 RMK AO2 SLP097 T01440117 $
0171724090147802023010413007+40033-074350FM-15+0031KNEL V0202305N003152200059N9999999N5+01285+01175101185ADDGA1005+999999999GD10991+9999999GF100991999999999999999999MA1101195100815REMMET08701/04/23 08:00:02 METAR KNEL 041300Z 23006KT CLR 13/12 A2988 RMK AO2 SLP118 T01280117 $
0171724090147802023010414007+40033-074350FM-15+0031KNEL V0202605N002652200059N9999999N5+01505+01285101245ADDGA1005+999999999GD10991+9999999GF100991999999999999999999MA1101255100885REMMET08701/04/23 09:00:02 METAR KNEL 041400Z 26005KT CLR 15/13 A2990 RMK AO2 SLP124 T01500128 $
0234724090147802023010423007+40033-074350FM-15+0031KNEL V0201505N00315024385MN9999999N5+01615+01445100915ADDGA1045+006405999GA2085+024385999GD12991+0064059GD24991+0243859GE19AGL   +99999+99999GF199999999999006401999999MA1100955100585REMMET09701/04/23 18:00:02 METAR KNEL 042300Z 15006KT SCT021 OVC080 16/14 A2981 RMK AO2 SLP091 T01610144 $
0330724090147802023010500007+40033-074350FM-15+0031KNEL V0202005N00315015245MN9999999N5+01615+01445100925ADDAA101000021AU110020015AW1615GA1075+015245999GA2085+018295999GD13991+0152459GD24991+0182959GE19AGL   +99999+99999GF199999999999015241999999KA1060M+01671KA2060N+01281MA1100955100585MW1615REMMET13301/04/23 19:00:01 METAR KNEL 050000Z 20006KT -RA BKN050 OVC060 16/14 A2981 RMK AO2 RAB2325 SLP092 P0000 6//// T01610144 10167 20128 $
0309724090147802023010500157+40033-074350FM-16+0031KNEL V0201805N00315021345MN9999999N5+01565+01505999999ADDAA101000021AU110020015AW1615GA1025+002745999GA2045+014945999GA3085+021345999GD11991+0027459GD22991+0149459GD34991+0213459GE19AGL   +99999+99999GF199999999999002741999999MA1100885100515MW1615REMMET10701/04/23 19:15:01 SPECI KNEL 050015Z 18006KT -RA FEW009 SCT049 OVC070 16/15 A2979 RMK AO2 P0000 T01560150 $
0259724090147802023010501007+40033-074350FM-15+0031KNEL V0202005N00215011585MN9999999N5+01565+01505100845ADDAA101000021GA1025+002445999GA2085+011585999GD11991+0024459GD24991+0115859GE19AGL   +99999+99999GF199999999999002441999999MA1100885100515REMMET11101/04/23 20:00:01 METAR KNEL 050100Z 20004KT FEW008 OVC038 16/15 A2979 RMK AO2 RAE0030 SLP084 P0000 T01560150 $
0189724090147802023010501377+40033-074350FM-16+0031KNEL V0201405N00215001525MN9999999N5+01505+01445999999ADDGA1075+001525999GD13991+0015259GE19AGL   +99999+99999GF199999999999001521999999MA1100855100485REMMET08301/04/23 20:37:01 SPECI KNEL 050137Z 14004KT BKN005 15/14 A2978 RMK AO2 T01500144 $
0179724090147802023010501557+40033-074350FM-16+0031KNEL V0201505N00155001225MN9999999N5+01405+01405999999ADDGA1075+001225999GD13991+0012259GE19AGL   +99999+99999GF199999999999001221999999MA1100885100515REMMET07301/04/23 20:55:01 SPECI KNEL 050155Z 15003KT BKN004 14/14 A2979 RMK AO2 $
0234724090147802023010502007+40033-074350FM-15+0031KNEL V0209999C00005000915MN9999999N5+01395+01395100885ADDGA1075+000915999GA2085+006715999GD13991+0009159GD24991+0067159GE19AGL   +99999+99999GF199999999999000911999999MA1100915100545REMMET09701/04/23 21:00:01 METAR KNEL 050200Z 00000KT BKN003 OVC022 14/14 A2980 RMK AO2 SLP088 T01390139 $
0265724090147802023010502537+40033-074350FM-16+0031KNEL V0209999C00005002445MN9999999N5+01285+01225999999ADDGA1025+000615999GA2075+002445999GA3085+004575999GD11991+0006159GD23991+0024459GD34991+0045759GE19AGL   +99999+99999GF199999999999000611999999MA1100885100515REMMET09701/04/23 21:53:01 SPECI KNEL 050253Z 00000KT FEW002 BKN008 OVC015 13/12 A2979 RMK AO2 T01280122 $
0260724090147802023010503007+40033-074350FM-15+0031KNEL V0209999C00005002445MN9999999N5+01335+01285100865ADDGA1075+002445999GA2085+004575999GD13991+0024459GD24991+0045759GE19AGL   +99999+99999GF199999999999002441999999MA1100885100515MD1590049+9999REMMET10901/04/23 22:00:01 METAR KNEL 050300Z 00000KT BKN008 OVC015 13/13 A2979 RMK AO2 SLP086 6//// T01330128 55004 $
0189724090147802023010503117+40033-074350FM-16+0031KNEL V0209999C00005003965MN9999999N5+01395+01335999999ADDGA1085+003965999GD14991+0039659GE19AGL   +99999+99999GF199999999999003961999999MA1100885100515REMMET08301/04/23 22:11:01 SPECI KNEL 050311Z 00000KT OVC013 14/13 A2979 RMK AO2 T01390133 $
0227724090147802023010503397+40033-074350FM-16+0031KNEL V0202005N00155007325MN9999999N5+01395+01395999999ADDGA1045+004275999GA2085+007325999GD12991+0042759GD24991+0073259GE19AGL   +99999+99999GF199999999999004271999999MA1100885100515REMMET09001/04/23 22:39:01 SPECI KNEL 050339Z 20003KT SCT014 OVC024 14/14 A2979 RMK AO2 T01390139 $
001572409014780202301050459O+40033-074350SOD  +0031KNEL V020999999999999999999999999999+99999+99999999999ADDAT1AU16RA  5
0189724090147802023010506007+40033-074350FM-15+0031KNEL V0202405N002159999999N9999999N5+01565+01505100925ADDKA1060M+01671KA2060N+01221MA1100955100585REMMET10101/05/23 01:00:02 METAR KNEL 050600Z 24004KT 16/15 A2981 RMK AO2 SLP092 6//// T01560150 10167 20122 $EQDR01      7SKY009R02      7GAS009
0265724090147802023010507257+40033-074350FM-16+0031KNEL V0202405N00265008235MN9999999N5+01615+01505999999ADDGA1045+003965999GA2075+008235999GA3085+013415999GD12991+0039659GD23991+0082359GD34991+0134159GE19AGL   +99999+99999GF199999999999003961999999MA1101085100715REMMET09701/05/23 02:25:02 SPECI KNEL 050725Z 24005KT SCT013 BKN027 OVC044 16/15 A2985 RMK AO2 T01610150 $
0265724090147802023010507417+40033-074350FM-16+0031KNEL V0202605N00265014025MN9999999N5+01565+01505999999ADDGA1025+003965999GA2075+014025999GA3085+018295999GD11991+0039659GD23991+0140259GD34991+0182959GE19AGL   +99999+99999GF199999999999003961999999MA1101085100715REMMET09701/05/23 02:41:02 SPECI KNEL 050741Z 26005KT FEW013 BKN046 OVC060 16/15 A2985 RMK AO2 T01560150 $
0234724090147802023010508007+40033-074350FM-15+0031KNEL V0202605N00215018295MN9999999N5+01505+01445101075ADDGA1025+014335999GA2075+018295999GD11991+0143359GD23991+0182959GE19AGL   +99999+99999GF199999999999014331999999MA1101085100715REMMET09701/05/23 03:00:02 METAR KNEL 050800Z 26004KT FEW047 BKN060 15/14 A2985 RMK AO2 SLP107 T01500144 $
0248724090147802023010509007+40033-074350FM-15+0031KNEL V0202605N00215019815MN9999999N5+01395+01335101135ADDAA103000021GA1075+019815999GD13991+0198159GE19AGL   +99999+99999GF199999999999019811999999MA1101155100785REMMET09601/05/23 04:00:02 METAR KNEL 050900Z 26004KT BKN065 14/13 A2987 RMK AO2 SLP113 60000 T01390133 $EQDQ01  00002PRCP03Q02  00008PRCP03
0198724090147802023010509557+40033-074350FM-16+0031KNEL V0202305N001552200059N9999999N5+01305+01205999999ADDGA1045+001525999GD12991+0015259GE19AGL   +99999+99999GF104995999999001521999999MA1101195100815REMMET07301/05/23 04:55:02 SPECI KNEL 050955Z 23003KT SCT005 13/12 A2988 RMK AO2 $EQDD01      0ADE726
0214724090147802023010510007+40033-074350FM-15+0031KNEL V0209999C000052200059N9999999N5+01225+01225999999ADDGA1045+001225999GD12991+0012259GE19AGL   +99999+99999GF104995999999001221999999MA1101195100815REMMET08901/05/23 05:00:02 METAR KNEL 051000Z 00000KT SCT004 12/12 A2988 RMK AO2 SLPNO T01220122 $EQDD01      0ADE726
0189724090147802023010510107+40033-074350FM-16+0031KNEL V0209999C00005001225MN9999999N5+01285+01285999999ADDGA1075+001225999GD13991+0012259GE19AGL   +99999+99999GF199999999999001221999999MA1101195100815REMMET08301/05/23 05:10:02 SPECI KNEL 051010Z 00000KT BKN004 13/13 A2988 RMK AO2 T01280128 $
0196724090147802023010511007+40033-074350FM-15+0031KNEL V0202805N00215000615MN9999999N5+01285+01285101245ADDGA1085+000615999GD14991+0006159GE19AGL   +99999+99999GF199999999999000611999999MA1101255100885REMMET09001/05/23 06:00:02 METAR KNEL 051100Z 28004KT OVC002 13/13 A2990 RMK AO2 SLP124 T01280128 $
0309724090147802023010512007+40033-074350FM-15+0031KNEL V0202705N00155000615MN9999999N5+01225+01225101305ADDAA124999919GA1075+000615999GA2085+021345999GD13991+0006159GD24991+0213459GE19AGL   +99999+99999GF199999999999000611999999KA1060M+01611KA2060N+01111MA1101325100955MD1390109+9999REMMET12101/05/23 07:00:02 METAR KNEL 051200Z 27003KT BKN002 OVC070 12/12 A2992 RMK AO2 SLP130 7//// T01220122 10161 20111 53010 $
0217724090147802023010513007+40033-074350FM-16+0031KNEL V0202705N00155021345MN9999999N5+01205+01205999999ADDGA1045+000615999GA2075+021345999GD12991+0006159GD23991+0213459GE19AGL   +99999+99999GF199999999999000611999999MA1101355100985REMMET08001/05/23 08:00:02 SPECI KNEL 051300Z 27003KT SCT002 BKN070 12/12 A2993 RMK AO2 $
0234724090147802023010513067+40033-074350FM-15+0031KNEL V0202705N00215021345MN9999999N5+01175+01175101325ADDGA1025+000615999GA2075+021345999GD11991+0006159GD23991+0213459GE19AGL   +99999+99999GF199999999999000611999999MA1101355100985REMMET09701/05/23 08:06:02 METAR KNEL 051306Z 27004KT FEW002 BKN070 12/12 A2993 RMK AO2 SLP132 T01170117 $
0196724090147802023010514007+40033-074350FM-15+0031KNEL V0202905N00315024385MN9999999N5+01285+01175101425ADDGA1085+024385999GD14991+0243859GE19AGL   +99999+99999GF199999999999024381999999MA1101425101055REMMET09001/05/23 09:00:02 METAR KNEL 051400Z 29006KT OVC080 13/12 A2995 RMK AO2 SLP142 T01280117 $
0216724090147802023010515007+40033-074350FM-15+0031KNEL V0209999C00005024385MN9999999N5+01395+01175101455ADDGA1075+024385999GD13991+0243859GE19AGL   +99999+99999GF199999999999024381999999MA1101495101125MD1390129+9999REMMET09601/05/23 10:00:02 METAR KNEL 051500Z 00000KT BKN080 14/12 A2997 RMK AO2 SLP145 T01390117 53012 $
0145724090147802023010517007+40033-074350FM-15+0031KNEL V0200805N003659999999N9999999N5+01225+01065101385ADDMA1101395101025REMMET08301/05/23 12:00:02 METAR KNEL 051700Z 08007KT 12/11 A2994 RMK AO2 SLP138 T01220106 $EQDR01      7SKY009R02      7GAS009
0189724090147802023010517337+40033-074350FM-16+0031KNEL V0201005N00415001835MN9999999N5+01175+01005999999ADDGA1085+001835999GD14991+0018359GE19AGL   +99999+99999GF199999999999001831999999MA1101395101025REMMET08301/05/23 12:33:02 SPECI KNEL 051733Z 10008KT OVC006 12/10 A2994 RMK AO2 T01170100 $
0234724090147802023010518007+40033-074350FM-15+0031KNEL V0200905N00315001835MN9999999N5+01115+01005101365ADDGA1085+001835999GD14991+0018359GE19AGL   +99999+99999GF199999999999001831999999KA1060M+01441KA2060N+01111MA1101395101025REMMET10201/05/23 13:00:02 METAR KNEL 051800Z 09006KT OVC006 11/10 A2994 RMK AO2 SLP136 T01110100 10144 20111 $
0196724090147802023010519007+40033-074350FM-15+0031KNEL V0200905N00315002135MN9999999N5+01175+00945101335ADDGA1085+002135999GD14991+0021359GE19AGL   +99999+99999GF199999999999002131999999MA1101355100985REMMET09001/05/23 14:00:02 METAR KNEL 051900Z 09006KT OVC007 12/09 A2993 RMK AO2 SLP133 T01170094 $
0196724090147802023010520007+40033-074350FM-15+0031KNEL V0201005N00365001525MN9999999N5+01005+00835101285ADDGA1085+001525999GD14991+0015259GE19AGL   +99999+99999GF199999999999001521999999MA1101295100915REMMET09001/05/23 15:00:02 METAR KNEL 052000Z 10007KT OVC005 10/08 A2991 RMK AO2 SLP128 T01000083 $
0216724090147802023010521007+40033-074350FM-15+0031KNEL V0200605N00415001525MN9999999N5+00945+00785101325ADDGA1085+001525999GD14991+0015259GE19AGL   +99999+99999GF199999999999001521999999MA1101325100955MD1890099+9999REMMET09601/05/23 16:00:02 METAR KNEL 052100Z 06008KT OVC005 09/08 A2992 RMK AO2 SLP132 T00940078 58009 $
0179724090147802023010521567+40033-074350FM-16+0031KNEL V0200705N00365001225MN9999999N5+00905+00805999999ADDGA1085+001225999GD14991+0012259GE19AGL   +99999+99999GF199999999999001221999999MA1101355100985REMMET07301/05/23 16:56:02 SPECI KNEL 052156Z 07007KT OVC004 09/08 A2993 RMK AO2 $
0196724090147802023010522007+40033-074350FM-15+0031KNEL V0200805N00415001225MN9999999N5+00895+00785101365ADDGA1085+001225999GD14991+0012259GE19AGL   +99999+99999GF199999999999001221999999MA1101395101025REMMET09001/05/23 17:00:02 METAR KNEL 052200Z 08008KT OVC004 09/08 A2994 RMK AO2 SLP136 T00890078 $
0196724090147802023010523007+40033-074350FM-15+0031KNEL V0200905N00415000915MN9999999N5+00835+00785101365ADDGA1085+000915999GD14991+0009159GE19AGL   +99999+99999GF199999999999000911999999MA1101395101025REMMET09001/05/23 18:00:02 METAR KNEL 052300Z 09008KT OVC003 08/08 A2994 RMK AO2 SLP136 T00830078 $
0254724090147802023010600007+40033-074350FM-15+0031KNEL V0200805N00315001225MN9999999N5+00835+00785101385ADDGA1085+001225999GD14991+0012259GE19AGL   +99999+99999GF199999999999001221999999KA1060M+01171KA2060N+00831MA1101395101025MD1190049+9999REMMET10801/05/23 19:00:01 METAR KNEL 060000Z 08006KT OVC004 08/08 A2994 RMK AO2 SLP138 T00830078 10117 20083 51004 $
0189724090147802023010600507+40033-074350FM-16+0031KNEL V0200705N00265001525MN9999999N5+00835+00725999999ADDGA1085+001525999GD14991+0015259GE19AGL   +99999+99999GF199999999999001521999999MA1101465101085REMMET08301/05/23 19:50:01 SPECI KNEL 060050Z 07005KT OVC005 08/07 A2996 RMK AO2 T00830072 $
0248724090147802023010601007+40033-074350FM-15+0031KNEL V0200805N00365001525MN9999999N5+00835+00725101405ADDAA101000021AU110020015AW1615GA1085+001525999GD14991+0015259GE19AGL   +99999+99999GF199999999999001521999999MA1101425101055MW1615REMMET10801/05/23 20:00:01 METAR KNEL 060100Z 08007KT -RA OVC005 08/07 A2995 RMK AO2 RAB0053 SLP140 P0000 T00830072 $
0233724090147802023010602007+40033-074350FM-15+0031KNEL V0200905N00315001525MN9999999N5+00835+00725101405ADDAA101000021GA1085+001525999GD14991+0015251GE19AGL   +99999+99999GF199999999999001521999999MA1101425101055REMMET11601/05/23 21:00:01 METAR KNEL 060200Z 09006KT OVC005 08/07 A2995 RMK AO2 RAE0110 CIG 004V010 SLP140 P0000 T00830072 $
0227724090147802023010602147+40033-074350FM-16+0031KNEL V0201005N00365001225MN9999999N5+00835+00725999999ADDGA1075+001225999GA2085+002745999GD13991+0012259GD24991+0027459GE19AGL   +99999+99999GF199999999999001221999999MA1101425101055REMMET09001/05/23 21:14:01 SPECI KNEL 060214Z 10007KT BKN004 OVC009 08/07 A2995 RMK AO2 T00830072 $
0201724090147802023010602227+40033-074350FM-16+0031KNEL V0201005N00315001835MN9999999N5+00835+00725999999ADDGA1085+001835999GD14991+0018351GE19AGL   +99999+99999GF199999999999001831999999MA1101425101055REMMET09501/05/23 21:22:01 SPECI KNEL 060222Z 10006KT OVC006 08/07 A2995 RMK AO2 CIG 004V011 T00830072 $
0201724090147802023010602317+40033-074350FM-16+0031KNEL V0201205N00315001225MN9999999N5+00835+00725999999ADDGA1085+001225999GD14991+0012251GE19AGL   +99999+99999GF199999999999001221999999MA1101425101055REMMET09501/05/23 21:31:01 SPECI KNEL 060231Z 12006KT OVC004 08/07 A2995 RMK AO2 CIG 004V008 T00830072 $
0232724090147802023010603007+40033-074350FM-15+0031KNEL V0201105N00365001225MN9999999N5+00835+00725101415ADDAA103000021GA1085+001225999GD14991+0012259GE19AGL   +99999+99999GF199999999999001221999999MA1101425101055REMMET09601/05/23 22:00:01 METAR KNEL 060300Z 11007KT OVC004 08/07 A2995 RMK AO2 SLP141 60000 T00830072 $EQDQ01  00008PRCP03
0248724090147802023010604007+40033-074350FM-15+0031KNEL V0200905N00365000915MN9999999N5+00785+00725101405ADDAA101000021AU110020015AW1615GA1085+000915999GD14991+0009159GE19AGL   +99999+99999GF199999999999000911999999MA1101425101055MW1615REMMET10801/05/23 23:00:02 METAR KNEL 060400Z 09007KT -RA OVC003 08/07 A2995 RMK AO2 RAB0325 SLP140 P0000 T00780072 $
001572409014780202301060459O+40033-074350SOD  +0031KNEL V020999999999999999999999999999+99999+99999999999ADDAT1AU16RA  5
0278724090147802023010605007+40033-074350FM-15+0031KNEL V0200805N00265000915MN9999999N5+00785+00725999999ADDAA101000021GA1085+000915999GD14991+0009151GE19AGL   +99999+99999GF199999999999000911999999KA1240M+00781KA2240N+00781MA1101425101055REMMET13501/06/23 00:00:02 METAR KNEL 060500Z 08005KT OVC003 08/07 A2995 RMK AO2 RAE0407B0428E0458 CIG 003V007 SLPNO P0000 T00780072 400780078 $
0309724090147802023010605457+40033-074350FM-16+0031KNEL V0200605N00265004575MN9999999N5+00785+00785999999ADDAU130020015AW1635GA1045+001525999GA2075+004575999GA3085+010365999GD12991+0015259GD23991+0045759GD34991+0103659GE19AGL   +99999+99999GF199999999999001521999999MA1101425101055MW1635REMMET11801/06/23 00:45:02 SPECI KNEL 060545Z 06005KT +RA SCT005 BKN015 OVC034 08/08 A2995 RMK AO2 RAB18 PRESFR T00780078 PNO $
0302724090147802023010605527+40033-074350FM-16+0031KNEL V0200605N00265010975MN9999999N5+00785+00725999999ADDAU110020015AW1615GA1045+001525999GA2075+010975999GA3085+018295999GD12991+0015259GD23991+0109759GD34991+0182959GE19AGL   +99999+99999GF199999999999001521999999MA1101395101025MW1615REMMET11101/06/23 00:52:02 SPECI KNEL 060552Z 06005KT -RA SCT005 BKN036 OVC060 08/07 A2994 RMK AO2 RAB18 T00780072 PNO $
0394724090147802023010606007+40033-074350FM-15+0031KNEL V0200505N00155016765MN9999999N5+00785+00725101395ADDAU110020015AW1615GA1025+002745999GA2045+010365999GA3085+016765999GD11991+0027459GD22991+0103659GD34991+0167659GE19AGL   +99999+99999GF199999999999002741999999KA1060M+00831KA2060N+00781MA1101425101055MD1890019+9999MW1615REMMET14401/06/23 01:00:02 METAR KNEL 060600Z 05003KT -RA FEW009 SCT034 OVC055 08/07 A2995 RMK AO2 RAB0518 SLP139 6//// T00780072 10083 20078 58001 PNO $EQDR01   PNO7AAP062
0322724090147802023010607007+40033-074350FM-15+0031KNEL V0201205N00415014635MN9999999N5+00785+00725101375ADDAU110020015AW1615GA1025+000915999GA2075+014635999GA3085+027435999GD11991+0009159GD23991+0146359GD34991+0274359GE19AGL   +99999+99999GF199999999999000911999999MA1101395101025MW1615REMMET11201/06/23 02:00:02 METAR KNEL 060700Z 12008KT -RA FEW003 BKN048 OVC090 08/07 A2994 RMK AO2 SLP137 T00780072 PNO $EQDR01   PNO7AAP062
0237724090147802023010607177+40033-074350FM-16+0031KNEL V0200905N00265001525MN9999999N5+00785+00725999999ADDGA1075+001525999GA2085+027435999GD13991+0015259GD24991+0274359GE19AGL   +99999+99999GF199999999999001521999999MA1101395101025REMMET10001/06/23 02:17:02 SPECI KNEL 060717Z 09005KT BKN005 OVC090 08/07 A2994 RMK AO2 RAE10 T00780072 PNO $
0237724090147802023010607297+40033-074350FM-16+0031KNEL V0200505N00215001225MN9999999N5+00785+00725999999ADDGA1075+001225999GA2085+030485999GD13991+0012259GD24991+0304859GE19AGL   +99999+99999GF199999999999001221999999MA1101395101025REMMET10001/06/23 02:29:02 SPECI KNEL 060729Z 05004KT BKN004 OVC100 08/07 A2994 RMK AO2 RAE10 T00780072 PNO $
0191724090147802023010608007+40033-074350FM-16+0031KNEL V0200705N00265001525MN9999999N5+00805+00705999999ADDGA1085+001525999GD14991+0015259GE19AGL   +99999+99999GF199999999999001521999999MA1101425101055REMMET08501/06/23 03:00:02 SPECI KNEL 060800Z 07005KT OVC005 08/07 A2995 RMK AO2 RAE0710 PNO $
0227724090147802023010608067+40033-074350FM-15+0031KNEL V0200805N00265001525MN9999999N5+00785+00725101395ADDGA1085+001525999GD14991+0015259GE19AGL   +99999+99999GF199999999999001521999999MA1101395101025REMMET10201/06/23 03:06:02 METAR KNEL 060806Z 08005KT OVC005 08/07 A2994 RMK AO2 RAE0710 SLP139 T00780072 PNO $EQDR01   PNO7AAP062
0193724090147802023010608307+40033-074350FM-16+0031KNEL V0203205N00155001225MN9999999N5+00785+00675999999ADDGA1085+001225999GD14991+0012259GE19AGL   +99999+99999GF199999999999001221999999MA1101465101085REMMET08701/06/23 03:30:02 SPECI KNEL 060830Z 32003KT OVC004 08/07 A2996 RMK AO2 T00780067 PNO $
0280724090147802023010609007+40033-074350FM-15+0031KNEL V0209999C00005001225MN9999999N5+00785+00725101445ADDAU110020015AW1615GA1085+001225999GD14991+0012259GE19AGL   +99999+99999GF199999999999001221999999MA1101465101085MD1690019+9999MW1615REMMET11801/06/23 04:00:02 METAR KNEL 060900Z 00000KT -RA OVC004 08/07 A2996 RMK AO2 RAB0838 SLP144 6//// T00780072 56001 PNO $EQDR01   PNO7AAP062
0237724090147802023010609287+40033-074350FM-16+0031KNEL V0200505N00155001525MN9999999N5+00785+00675999999ADDGA1075+001525999GA2085+003055999GD13991+0015259GD24991+0030559GE19AGL   +99999+99999GF199999999999001521999999MA1101425101055REMMET10001/06/23 04:28:02 SPECI KNEL 060928Z 05003KT BKN005 OVC010 08/07 A2995 RMK AO2 RAE15 T00780067 PNO $
0227724090147802023010609587+40033-074350FM-16+0031KNEL V0200505N00155001225MN9999999N5+00705+00705999999ADDGA1075+001225999GA2085+004575999GD13991+0012259GD24991+0045759GE19AGL   +99999+99999GF199999999999001221999999MA1101425101055REMMET09001/06/23 04:58:02 SPECI KNEL 060958Z 05003KT BKN004 OVC015 07/07 A2995 RMK AO2 RAE15 PNO $
0265724090147802023010610007+40033-074350FM-15+0031KNEL V0200505N00155001225MN9999999N5+00725+00675101395ADDGA1075+001225999GA2085+004575999GD13991+0012259GD24991+0045759GE19AGL   +99999+99999GF199999999999001221999999MA1101425101055REMMET10901/06/23 05:00:02 METAR KNEL 061000Z 05003KT BKN004 OVC015 07/07 A2995 RMK AO2 RAE0915 SLP139 T00720067 PNO $EQDR01   PNO7AAP062
0231724090147802023010610357+40033-074350FM-16+0031KNEL V0200805N00315001525MN9999999N5+00725+00675999999ADDGA1075+001525999GA2085+006715999GD13991+0015259GD24991+0067159GE19AGL   +99999+99999GF199999999999001521999999MA1101395101025REMMET09401/06/23 05:35:02 SPECI KNEL 061035Z 08006KT BKN005 OVC022 07/07 A2994 RMK AO2 T00720067 PNO $
0219724090147802023010611007+40033-074350FM-15+0031KNEL V0200905N00215001525MN9999999N5+00725+00675101405ADDGA1085+001525999GD14991+0015259GE19AGL   +99999+99999GF199999999999001521999999MA1101425101055REMMET09401/06/23 06:00:02 METAR KNEL 061100Z 09004KT OVC005 07/07 A2995 RMK AO2 SLP140 T00720067 PNO $EQDR01   PNO7AAP062
0264724090147802023010611337+40033-074350FM-16+0031KNEL V0200905N00265003665MN9999999N5+00725+00675999999ADDAU110020015AW1615GA1045+001835999GA2085+003665999GD12991+0018359GD24991+0036659GE19AGL   +99999+99999GF199999999999001831999999MA1101465101085MW1615REMMET10401/06/23 06:33:02 SPECI KNEL 061133Z 09005KT -RA SCT006 OVC012 07/07 A2996 RMK AO2 RAB26 T00720067 PNO $
0264724090147802023010611497+40033-074350FM-16+0031KNEL V0200705N00155001525MN9999999N5+00725+00675999999ADDAU110020015AW1615GA1075+001525999GA2085+003665999GD13991+0015259GD24991+0036659GE19AGL   +99999+99999GF199999999999001521999999MA1101465101085MW1615REMMET10401/06/23 06:49:02 SPECI KNEL 061149Z 07003KT -RA BKN005 OVC012 07/07 A2996 RMK AO2 RAB26 T00720067 PNO $
0373724090147802023010612007+40033-074350FM-15+0031KNEL V0200905N00365001525MN9999999N5+00725+00615101415ADDAA124999919AU110020015AW1615GA1075+001525999GA2085+003355999GD13991+0015259GD24991+0033559GE19AGL   +99999+99999GF199999999999001521999999KA1060M+00781KA2060N+00721MA1101425101055MD1590039+9999MW1615REMMET14301/06/23 07:00:02 METAR KNEL 061200Z 09007KT -RA BKN005 OVC011 07/06 A2995 RMK AO2 RAB1126 SLP141 6//// 7//// T00720061 10078 20072 55003 PNO $EQDR01   PNO7AAP062
0227724090147802023010613007+40033-074350FM-15+0031KNEL V0203505N00215001525MN9999999N5+00725+00675101365ADDGA1085+001525999GD14991+0015259GE19AGL   +99999+99999GF199999999999001521999999MA1101395101025REMMET10201/06/23 08:00:02 METAR KNEL 061300Z 35004KT OVC005 07/07 A2994 RMK AO2 RAE1232 SLP136 T00720067 PNO $EQDR01   PNO7AAP062
0193724090147802023010613317+40033-074350FM-16+0031KNEL V0209999C00005001225MN9999999N5+00725+00675999999ADDGA1085+001225999GD14991+0012259GE19AGL   +99999+99999GF199999999999001221999999MA1101425101055REMMET08701/06/23 08:31:02 SPECI KNEL 061331Z 00000KT OVC004 07/07 A2995 RMK AO2 T00720067 PNO $
0219724090147802023010614007+40033-074350FM-15+0031KNEL V0209999C00005001225MN9999999N5+00725+00675101475ADDGA1085+001225999GD14991+0012259GE19AGL   +99999+99999GF199999999999001221999999MA1101495101125REMMET09401/06/23 09:00:02 METAR KNEL 061400Z 00000KT OVC004 07/07 A2997 RMK AO2 SLP147 T00720067 PNO $EQDR01   PNO7AAP062
0245724090147802023010615007+40033-074350FM-15+0031KNEL V0203105N00155000915MN9999999N5+00725+00675101545ADDGA1085+000915999GD14991+0009159GE19AGL   +99999+99999GF199999999999000911999999MA1101565101195MD1390069+9999REMMET10601/06/23 10:00:02 METAR KNEL 061500Z 31003KT OVC003 07/07 A2999 RMK AO2 SLP154 6//// T00720067 53006 PNO $EQDR01   PNO7AAP062
0257724090147802023010616007+40033-074350FM-15+0031KNEL V0202805N00215000915MN9999999N5+00785+00725101495ADDGA1075+000915999GA2085+002135999GD13991+0009159GD24991+0021359GE19AGL   +99999+99999GF199999999999000911999999MA1101525101155REMMET10101/06/23 11:00:02 METAR KNEL 061600Z 28004KT BKN003 OVC007 08/07 A2998 RMK AO2 SLP149 T00780072 PNO $EQDR01   PNO7AAP062
0205724090147802023010616087+40033-074350FM-16+0031KNEL V0203005N00215001525MN9999999N5+00785+00725999999ADDGA1085+001525999GD14991+0015251GE19AGL   +99999+99999GF199999999999001521999999MA1101495101125REMMET09901/06/23 11:08:02 SPECI KNEL 061608Z 30004KT OVC005 08/07 A2997 RMK AO2 CIG 003V010 T00780072 PNO $
0268724090147802023010616547+40033-074350FM-16+0031KNEL V0202905N00365004885MN9999999N5+00805+00705999999ADDGA1045+002445999GA2075+004885999GA3085+007325999GD12991+0024459GD23991+0048859GD34991+0073259GE19AGL   +99999+99999GF199999999999002441999999MA1101465101085REMMET10001/06/23 11:54:02 SPECI KNEL 061654Z 29007KT SCT008 BKN016 OVC024 08/07 A2996 RMK AO2 RAB44E54 PNO $
0308724090147802023010617007+40033-074350FM-15+0031KNEL V0202905N00365004885MN9999999N5+00895+00725101435ADDGA1045+002445999GA2075+004885999GA3085+013415999GD12991+0024459GD23991+0048859GD34991+0134159GE19AGL   +99999+99999GF199999999999002441999999MA1101465101085REMMET12101/06/23 12:00:02 METAR KNEL 061700Z 29007KT SCT008 BKN016 OVC044 09/07 A2996 RMK AO2 RAB1644E1654 SLP143 T00890072 PNO $EQDR01   PNO7AAP062
0231724090147802023010617337+40033-074350FM-16+0031KNEL V0203105N00415003965MN9999999N5+00895+00675999999ADDGA1075+003965999GA2075+013115999GD13991+0039659GD23991+0131159GE19AGL   +99999+99999GF199999999999003961999999MA1101425101055REMMET09401/06/23 12:33:02 SPECI KNEL 061733Z 31008KT BKN013 BKN043 09/07 A2995 RMK AO2 T00890067 PNO $
0221724090147802023010617557+40033-074350FM-16+0031KNEL V0203105V00415004575MN9999999N5+00805+00605999999ADDGA1075+004575999GA2075+006715999GD13991+0045759GD23991+0067159GE19AGL   +99999+99999GF199999999999004571999999MA1101425101055REMMET08401/06/23 12:55:02 SPECI KNEL 061755Z 31008KT BKN015 BKN022 08/06 A2995 RMK AO2 PNO $
0332724090147802023010618007+40033-074350FM-15+0031KNEL V0203005N00415004575MN9999999N5+00835+00565101415ADDGA1075+004575999GA2085+006105999GD13991+0045759GD24991+0061059GE19AGL   +99999+99999GF199999999999004571999999KA1060M+00941KA2060N+00721MA1101425101055MD1690139+9999OC100775REMMET12801/06/23 13:00:02 METAR KNEL 061800Z 30008G15KT BKN015 OVC020 08/06 A2995 RMK AO2 SLP141 6//// T00830056 10094 20072 56013 PNO $EQDR01   PNO7AAP062
0269724090147802023010618327+40033-074350FM-16+0031KNEL V0202905N00625010365MN9999999N5+00945+00445999999ADDGA1025+005185999GA2045+006715999GA3075+010365999GD11991+0051859GD22991+0067159GD33991+0103659GE19AGL   +99999+99999GF199999999999005181999999MA1101425101055REMMET10101/06/23 13:32:02 SPECI KNEL 061832Z 29012KT FEW017 SCT022 BKN034 09/04 A2995 RMK AO2 T00940044 PNO $
0221724090147802023010618557+40033-074350FM-16+0031KNEL V0202905N00675007325MN9999999N5+00905+00405999999ADDGA1075+007325999GA2085+010975999GD13991+0073259GD24991+0109759GE19AGL   +99999+99999GF199999999999007321999999MA1101495101125REMMET08401/06/23 13:55:02 SPECI KNEL 061855Z 29013KT BKN024 OVC036 09/04 A2997 RMK AO2 PNO $
0257724090147802023010619007+40033-074350FM-15+0031KNEL V0203005N00625007015MN9999999N5+00895+00395101475ADDGA1075+007015999GA2085+012195999GD13991+0070159GD24991+0121959GE19AGL   +99999+99999GF199999999999007011999999MA1101495101125REMMET10101/06/23 14:00:02 METAR KNEL 061900Z 30012KT BKN023 OVC040 09/04 A2997 RMK AO2 SLP147 T00890039 PNO $EQDR01   PNO7AAP062
0269724090147802023010619257+40033-074350FM-16+0031KNEL V0203005N00415009755MN9999999N5+00785+00335999999ADDGA1025+007015999GA2075+009755999GA3085+013115999GD11991+0070159GD23991+0097559GD34991+0131159GE19AGL   +99999+99999GF199999999999007011999999MA1101525101155REMMET10101/06/23 14:25:02 SPECI KNEL 061925Z 30008KT FEW023 BKN032 OVC043 08/03 A2998 RMK AO2 T00780033 PNO $
0219724090147802023010620007+40033-074350FM-15+0031KNEL V0203005N00515013725MN9999999N5+00785+00285101515ADDGA1085+013725999GD14991+0137259GE19AGL   +99999+99999GF199999999999013721999999MA1101525101155REMMET09401/06/23 15:00:02 METAR KNEL 062000Z 30010KT OVC045 08/03 A2998 RMK AO2 SLP151 T00780028 PNO $EQDR01   PNO7AAP062
0283724090147802023010621007+40033-074350FM-15+0031KNEL V0202805N00365015245MN9999999N5+00785+00285101615ADDGA1045+009755999GA2085+015245999GD12991+0097559GD24991+0152459GE19AGL   +99999+99999GF199999999999009751999999MA1101635101255MD1190109+9999REMMET11301/06/23 16:00:02 METAR KNEL 062100Z 28007KT SCT032 OVC050 08/03 A3001 RMK AO2 SLP161 6//// T00780028 51010 PNO $EQDR01   PNO7AAP062
0257724090147802023010622007+40033-074350FM-15+0031KNEL V0203005N00315018295MN9999999N5+00675+00175101715ADDGA1025+010675999GA2075+018295999GD11991+0106759GD23991+0182959GE19AGL   +99999+99999GF199999999999010671999999MA1101735101355REMMET10101/06/23 17:00:02 METAR KNEL 062200Z 30006KT FEW035 BKN060 07/02 A3004 RMK AO2 SLP171 T00670017 PNO $EQDR01   PNO7AAP062
0194724090147802023010623007+40033-074350FM-15+0031KNEL V0202805N004152200059N9999999N5+00505+00065101775ADDGA1005+999999999GD10991+9999999GF100991999999999999999999MA1101795101425REMMET09101/06/23 18:00:02 METAR KNEL 062300Z 28008KT CLR 05/01 A3006 RMK AO2 SLP177 T00500006 PNO $EQDR01   PNO7AAP062
0300724090147802023010700007+40033-074350FM-15+0031KNEL V0202705N003152200059N9999999N5+00395-00065101875ADDGA1045+015245999GD12991+0152459GE19AGL   +99999+99999GF104995999999015241999999KA1060M+01001KA2060N+00391MA1101905101525MD1190269+9999REMMET11901/06/23 19:00:01 METAR KNEL 070000Z 27006KT SCT050 04/M01 A3009 RMK AO2 SLP187 6//// T00391006 10100 20039 51026 PNO $EQDR01   PNO7AAP062D01      0ADE726
0219724090147802023010701007+40033-074350FM-15+0031KNEL V0202905N00365015245MN9999999N5+00565+00005101945ADDGA1085+015245999GD14991+0152459GE19AGL   +99999+99999GF199999999999015241999999MA1101965101595REMMET09401/06/23 20:00:01 METAR KNEL 070100Z 29007KT OVC050 06/00 A3011 RMK AO2 SLP194 T00560000 PNO $EQDR01   PNO7AAP062
0235724090147802023010702007+40033-074350FM-15+0031KNEL V0203005N002652200059N9999999N5+00505+00005101985ADDGA1045+018295999GD12991+0182959GE19AGL   +99999+99999GF104995999999018291999999MA1102005101625REMMET09401/06/23 21:00:01 METAR KNEL 070200Z 30005KT SCT060 05/00 A3012 RMK AO2 SLP198 T00500000 PNO $EQDR01   PNO7AAP062D01      0ADE726
0245724090147802023010703007+40033-074350FM-15+0031KNEL V0202905N00415019815MN9999999N5+00505+00005102035ADDGA1085+019815999GD14991+0198159GE19AGL   +99999+99999GF199999999999019811999999MA1102035101665MD1190219+9999REMMET10601/06/23 22:00:01 METAR KNEL 070300Z 29008KT OVC065 05/00 A3013 RMK AO2 SLP203 6//// T00500000 51021 PNO $EQDR01   PNO7AAP062
0195724090147802023010704007+40033-074350FM-15+0031KNEL V0209999C000052200059N9999999N5+00175-00115102015ADDGA1005+999999999GD10991+9999999GF100991999999999999999999MA1102035101665REMMET09201/06/23 23:00:02 METAR KNEL 070400Z 00000KT CLR 02/M01 A3013 RMK AO2 SLP201 T00171011 PNO $EQDR01   PNO7AAP062
001572409014780202301070459O+40033-074350SOD  +0031KNEL V020999999999999999999999999999+99999+99999999999ADDAT1AU16RA  5
0272724090147802023010705007+40033-074350FM-15+0031KNEL V0202705N002152200059N9999999N5+00065-00175102015ADDGA1045+019815999GD12991+0198159GE19AGL   +99999+99999GF104995999999019811999999KA1240M+00061KA2240N+00061MA1102035101665REMMET10501/07/23 00:00:02 METAR KNEL 070500Z 27004KT SCT065 01/M02 A3013 RMK AO2 SLP201 T00061017 400060006 PNO $EQDR01   PNO7AAP062D01      0ADE726
0284724090147802023010706007+40033-074350FM-15+0031KNEL V0202905N00215018295MN9999999N5+00175-00065102005ADDGA1085+018295999GD14991+0182959GE19AGL   +99999+99999GF199999999999018291999999KA1060M+00611KA2060N-00061MA1102035101665MD1190039+9999REMMET11901/07/23 01:00:02 METAR KNEL 070600Z 29004KT OVC060 02/M01 A3013 RMK AO2 SLP200 6//// T00171006 10061 21006 51003 PNO $EQDR01   PNO7AAP062
0195724090147802023010707007+40033-074350FM-15+0031KNEL V0202905N001552200059N9999999N5+00005-00175102025ADDGA1005+999999999GD10991+9999999GF100991999999999999999999MA1102035101665REMMET09201/07/23 02:00:02 METAR KNEL 070700Z 29003KT CLR 00/M02 A3013 RMK AO2 SLP202 T00001017 PNO $EQDR01   PNO7AAP062
0220724090147802023010708007+40033-074350FM-15+0031KNEL V0209999C00005018295MN9999999N5+00005-00115102035ADDGA1085+018295999GD14991+0182959GE19AGL   +99999+99999GF199999999999018291999999MA1102075101695REMMET09501/07/23 03:00:02 METAR KNEL 070800Z 00000KT OVC060 00/M01 A3014 RMK AO2 SLP203 T00001011 PNO $EQDR01   PNO7AAP062
0246724090147802023010709007+40033-074350FM-15+0031KNEL V0202805N00215018295MN9999999N5+00175-00065102015ADDGA1085+018295999GD14991+0182959GE19AGL   +99999+99999GF199999999999018291999999MA1102035101665MD1390029+9999REMMET10701/07/23 04:00:02 METAR KNEL 070900Z 28004KT OVC060 02/M01 A3013 RMK AO2 SLP201 6//// T00171006 53002 PNO $EQDR01   PNO7AAP062
0220724090147802023010710007+40033-074350FM-15+0031KNEL V0209999C00005016765MN9999999N5+00175-00065102025ADDGA1085+016765999GD14991+0167659GE19AGL   +99999+99999GF199999999999016761999999MA1102035101665REMMET09501/07/23 05:00:02 METAR KNEL 071000Z 00000KT OVC055 02/M01 A3013 RMK AO2 SLP202 T00171006 PNO $EQDR01   PNO7AAP062
0220724090147802023010711007+40033-074350FM-15+0031KNEL V0202705N00215018295MN9999999N5+00225-00065102055ADDGA1085+018295999GD14991+0182959GE19AGL   +99999+99999GF199999999999018291999999MA1102075101695REMMET09501/07/23 06:00:02 METAR KNEL 071100Z 27004KT OVC060 02/M01 A3014 RMK AO2 SLP205 T00221006 PNO $EQDR01   PNO7AAP062
0301724090147802023010712007+40033-074350FM-15+0031KNEL V0202705N00365018295MN9999999N5+00335-00115102095ADDAA124999919GA1085+018295999GD14991+0182959GE19AGL   +99999+99999GF199999999999018291999999KA1060M+00331KA2060N-00111MA1102105101735MD1390029+9999REMMET12501/07/23 07:00:02 METAR KNEL 071200Z 27007KT OVC060 03/M01 A3015 RMK AO2 SLP209 6//// 7//// T00331011 10033 21011 53002 PNO $EQDR01   PNO7AAP062
0220724090147802023010713007+40033-074350FM-15+0031KNEL V0202805N00415018295MN9999999N5+00395-00065102135ADDGA1085+018295999GD14991+0182959GE19AGL   +99999+99999GF199999999999018291999999MA1102135101765REMMET09501/07/23 08:00:02 METAR KNEL 071300Z 28008KT OVC060 04/M01 A3016 RMK AO2 SLP213 T00391006 PNO $EQDR01   PNO7AAP062
0231724090147802023010714007+40033-074350FM-15+0031KNEL V0202905N00465018295MN9999999N5+00445-00065102175ADDGA1085+018295999GD14991+0182959GE19AGL   +99999+99999GF199999999999018291999999MA1102205101835OC100775REMMET09801/07/23 09:00:02 METAR KNEL 071400Z 29009G15KT OVC060 04/M01 A3018 RMK AO2 SLP217 T00441006 PNO $EQDR01   PNO7AAP062
0261724090147802023010715007+40033-074350FM-15+0031KNEL V0203005N004152200059N9999999N5+00615+00005102195ADDGA1025+018295999GD11991+0182959GE19AGL   +99999+99999GF102995999999018291999999MA1102205101835MD1390129+9999REMMET10601/07/23 10:00:02 METAR KNEL 071500Z 30008KT FEW060 06/00 A3018 RMK AO2 SLP219 6//// T00610000 53012 PNO $EQDR01   PNO7AAP062D01      0ADE726
0247724090147802023010716007+40033-074350FM-15+0031KNEL V0203005N004152200059N9999999N5+00785-00065102115ADDGA1025+010675999GD11991+0106759GE19AGL   +99999+99999GF102995999999010671999999MA1102135101765OC100825REMMET09801/07/23 11:00:02 METAR KNEL 071600Z 30008G16KT FEW035 08/M01 A3016 RMK AO2 SLP211 T00781006 PNO $EQDR01   PNO7AAP062D01      0ADE726
0269724090147802023010717007+40033-074350FM-15+0031KNEL V0203005N00575010675MN9999999N5+00785-00115102045ADDGA1075+010675999GA2075+021345999GD13991+0106759GD23991+0213459GE19AGL   +99999+99999GF199999999999010671999999MA1102075101695OC100935REMMET10501/07/23 12:00:02 METAR KNEL 071700Z 30011G18KT BKN035 BKN070 08/M01 A3014 RMK AO2 SLP204 T00781011 PNO $EQDR01   PNO7AAP062
0371724090147802023010718007+40033-074350FM-15+0031KNEL V0202905N00625021345MN9999999N5+00835-00115101995ADDGA1025+011585999GA2045+015245999GA3085+021345999GD11991+0115859GD22991+0152459GD34991+0213459GE19AGL   +99999+99999GF199999999999011581999999KA1060M+00891KA2060N+00331MA1102005101625MD1890149+9999OC100935REMMET13601/07/23 13:00:02 METAR KNEL 071800Z 29012G18KT FEW038 SCT050 OVC070 08/M01 A3012 RMK AO2 SLP199 6//// T00831011 10089 20033 58014 PNO $EQDR01   PNO7AAP062
0258724090147802023010719007+40033-074350FM-15+0031KNEL V0203005N00575021345MN9999999N5+00725-00065101985ADDGA1045+018295999GA2075+021345999GD12991+0182959GD23991+0213459GE19AGL   +99999+99999GF199999999999018291999999MA1102005101625REMMET10201/07/23 14:00:02 METAR KNEL 071900Z 30011KT SCT060 BKN070 07/M01 A3012 RMK AO2 SLP198 T00721006 PNO $EQDR01   PNO7AAP062
0258724090147802023010720007+40033-074350FM-15+0031KNEL V0203005N00365019815MN9999999N5+00725-00115102015ADDGA1075+019815999GA2075+022865999GD13991+0198159GD23991+0228659GE19AGL   +99999+99999GF199999999999019811999999MA1102035101665REMMET10201/07/23 15:00:02 METAR KNEL 072000Z 30007KT BKN065 BKN075 07/M01 A3013 RMK AO2 SLP201 T00721011 PNO $EQDR01   PNO7AAP062
0284724090147802023010721007+40033-074350FM-15+0031KNEL V0203005N00315018295MN9999999N5+00615-00065102065ADDGA1075+018295999GA2075+022865999GD13991+0182959GD23991+0228659GE19AGL   +99999+99999GF199999999999018291999999MA1102075101695MD1590039+9999REMMET11401/07/23 16:00:02 METAR KNEL 072100Z 30006KT BKN060 BKN075 06/M01 A3014 RMK AO2 SLP206 6//// T00611006 55003 PNO $EQDR01   PNO7AAP062
0270724090147802023010722007+40033-074350FM-15+0031KNEL V0203105N00265013115MN9999999N5+00615+00005102145ADDGA1075+013115999GA2085+018295999GD13991+0131159GD24991+0182959GE19AGL   +99999+99999GF199999999999013111999999MA1102175101795REMMET11401/07/23 17:00:02 METAR KNEL 072200Z 31005KT BKN043 OVC060 06/00 A3017 RMK AO2 RAB2127E2136 SLP214 T00610000 PNO $EQDR01   PNO7AAP062
0219724090147802023010723007+40033-074350FM-15+0031KNEL V0202905N00265022865MN9999999N5+00505+00005102225ADDGA1085+022865999GD14991+0228659GE19AGL   +99999+99999GF199999999999022861999999MA1102245101865REMMET09401/07/23 18:00:02 METAR KNEL 072300Z 29005KT OVC075 05/00 A3019 RMK AO2 SLP222 T00500000 PNO $EQDR01   PNO7AAP062
0284724090147802023010800007+40033-074350FM-15+0031KNEL V0209999C00005024385MN9999999N5+00395-00065102295ADDGA1085+024385999GD14991+0243859GE19AGL   +99999+99999GF199999999999024381999999KA1060M+00891KA2060N+00391MA1102305101935MD1390219+9999REMMET11901/07/23 19:00:01 METAR KNEL 080000Z 00000KT OVC080 04/M01 A3021 RMK AO2 SLP229 6//// T00391006 10089 20039 53021 PNO $EQDR01   PNO7AAP062
0195724090147802023010801007+40033-074350FM-15+0031KNEL V0203105N001552200059N9999999N5+00395-00115102365ADDGA1005+999999999GD10991+9999999GF100991999999999999999999MA1102375102005REMMET09201/07/23 20:00:01 METAR KNEL 080100Z 31003KT CLR 04/M01 A3023 RMK AO2 SLP236 T00391011 PNO $EQDR01   PNO7AAP062
0195724090147802023010802007+40033-074350FM-15+0031KNEL V0209999C000052200059N9999999N5+00115-00175102375ADDGA1005+999999999GD10991+9999999GF100991999999999999999999MA1102375102005REMMET09201/07/23 21:00:01 METAR KNEL 080200Z 00000KT CLR 01/M02 A3023 RMK AO2 SLP237 T00111017 PNO $EQDR01   PNO7AAP062
0222724090147802023010803007+40033-074350FM-15+0031KNEL V0209999C000052200059N9999999N5-00065-00225102415ADDGA1005+999999999GD10991+9999999GF100991999999999999999999MA1102445102065MD1190159+9999REMMET10501/07/23 22:00:01 METAR KNEL 080300Z 00000KT CLR M01/M02 A3025 RMK AO2 SLP241 6//// T10061022 51015 PNO $EQDR01   PNO7AAP062
0196724090147802023010804007+40033-074350FM-15+0031KNEL V0209999C000052200059N9999999N5-00115-00285102425ADDGA1005+999999999GD10991+9999999GF100991999999999999999999MA1102445102065REMMET09301/07/23 23:00:02 METAR KNEL 080400Z 00000KT CLR M01/M03 A3025 RMK AO2 SLP242 T10111028 PNO $EQDR01   PNO7AAP062
0232724090147802023010805007+40033-074350FM-15+0031KNEL V0209999C000052200059N9999999N5-00225-00335102455ADDGA1005+999999999GD10991+9999999GF100991999999999999999999KA1240M-00221KA2240N-00221MA1102475102105REMMET10301/08/23 00:00:02 METAR KNEL 080500Z 00000KT CLR M02/M03 A3026 RMK AO2 SLP245 T10221033 410221022 PNO $EQDR01   PNO7AAP062
0260724090147802023010806007+40033-074350FM-15+0031KNEL V0209999C000052200059N9999999N5-00115-00225102465ADDGA1005+999999999GD10991+9999999GF100991999999999999999999KA1060M+00501KA2060N-00221MA1102475102105MD1190089+9999REMMET11701/08/23 01:00:02 METAR KNEL 080600Z 00000KT CLR M01/M02 A3026 RMK AO2 SLP246 6//// T10111022 10050 21022 51008 PNO $EQDR01   PNO7AAP062
0196724090147802023010807007+40033-074350FM-15+0031KNEL V0209999C000052200059N9999999N5-00285-00395102515ADDGA1005+999999999GD10991+9999999GF100991999999999999999999MA1102515102135REMMET09301/08/23 02:00:02 METAR KNEL 080700Z 00000KT CLR M03/M04 A3027 RMK AO2 SLP251 T10281039 PNO $EQDR01   PNO7AAP062
0196724090147802023010808007+40033-074350FM-15+0031KNEL V0209999C000052200059N9999999N5-00285-00395102555ADDGA1005+999999999GD10991+9999999GF100991999999999999999999MA1102575102205REMMET09301/08/23 03:00:02 METAR KNEL 080800Z 00000KT CLR M03/M04 A3029 RMK AO2 SLP255 T10281039 PNO $EQDR01   PNO7AAP062
0222724090147802023010809007+40033-074350FM-15+0031KNEL V0202905N002152200059N9999999N5-00225-00335102605ADDGA1005+999999999GD10991+9999999GF100991999999999999999999MA1102615102235MD1390099+9999REMMET10501/08/23 04:00:02 METAR KNEL 080900Z 29004KT CLR M02/M03 A3030 RMK AO2 SLP260 6//// T10221033 53009 PNO $EQDR01   PNO7AAP062
0196724090147802023010810007+40033-074350FM-15+0031KNEL V0209999C000052200059N9999999N5-00285-00395102615ADDGA1005+999999999GD10991+9999999GF100991999999999999999999MA1102615102235REMMET09301/08/23 05:00:02 METAR KNEL 081000Z 00000KT CLR M03/M04 A3030 RMK AO2 SLP261 T10281039 PNO $EQDR01   PNO7AAP062
0196724090147802023010811007+40033-074350FM-15+0031KNEL V0202505N001552200059N9999999N5-00445-00565102595ADDGA1005+999999999GD10991+9999999GF100991999999999999999999MA1102615102235REMMET09301/08/23 06:00:02 METAR KNEL 081100Z 25003KT CLR M04/M06 A3030 RMK AO2 SLP259 T10441056 PNO $EQDR01   PNO7AAP062
0277724090147802023010812007+40033-074350FM-15+0031KNEL V0209999C000052200059N9999999N5-00445-00565102695ADDAA124999919GA1005+999999999GD10991+9999999GF100991999999999999999999KA1060M-00061KA2060N-00501MA1102715102335MD1090049+9999REMMET12301/08/23 07:00:02 METAR KNEL 081200Z 00000KT CLR M04/M06 A3033 RMK AO2 SLP269 6//// 7//// T10441056 11006 21050 50004 PNO $EQDR01   PNO7AAP062
0196724090147802023010813007+40033-074350FM-15+0031KNEL V0203405N001552200059N9999999N5-00225-00445102675ADDGA1005+999999999GD10991+9999999GF100991999999999999999999MA1102685102305REMMET09301/08/23 08:00:02 METAR KNEL 081300Z 34003KT CLR M02/M04 A3032 RMK AO2 SLP267 T10221044 PNO $EQDR01   PNO7AAP062
0195724090147802023010814007+40033-074350FM-15+0031KNEL V0202905N001552200059N9999999N5+00115-00285102755ADDGA1005+999999999GD10991+9999999GF100991999999999999999999MA1102785102405REMMET09201/08/23 09:00:02 METAR KNEL 081400Z 29003KT CLR 01/M03 A3035 RMK AO2 SLP275 T00111028 PNO $EQDR01   PNO7AAP062
0221724090147802023010815007+40033-074350FM-15+0031KNEL V0209999V002652200059N9999999N5+00335-00505102715ADDGA1005+999999999GD10991+9999999GF100991999999999999999999MA1102715102335MD1190179+9999REMMET10401/08/23 10:00:02 METAR KNEL 081500Z VRB05KT CLR 03/M05 A3033 RMK AO2 SLP271 6//// T00331050 51017 PNO $EQDR01   PNO7AAP062
0195724090147802023010816007+40033-074350FM-15+0031KNEL V0209999C000052200059N9999999N5+00335-00565102725ADDGA1005+999999999GD10991+9999999GF100991999999999999999999MA1102745102375REMMET09201/08/23 11:00:02 METAR KNEL 081600Z 00000KT CLR 03/M06 A3034 RMK AO2 SLP272 T00331056 PNO $EQDR01   PNO7AAP062
0172724090147802023010820007+40033-074350FM-15+0031KNEL V0209999C000052200059N9999999N5+00505-00505102385ADDGA1005+999999999GD10991+9999999GF100991999999999999999999MA1102405102035REMMET08801/08/23 15:00:02 METAR KNEL 082000Z 00000KT CLR 05/M05 A3024 RMK AO2 SLP238 T00501050 $
0178724090147802023010821007+40033-074350FM-15+0031KNEL V0202405N001552200059N9999999N5+00505-00395102405ADDGA1005+999999999GD10991+9999999GF100991999999999999999999MA1102405102035REMMET09401/08/23 16:00:02 METAR KNEL 082100Z 24003KT CLR 05/M04 A3024 RMK AO2 SLP240 6//// T00501039 $
0216724090147802023010822007+40033-074350FM-15+0031KNEL V0201305N002652200059N9999999N5+00335-00285102355ADDGA1025+036585999GD11991+0365859GE19AGL   +99999+99999GF102995999999036581999999MA1102375102005REMMET09101/08/23 17:00:02 METAR KNEL 082200Z 13005KT FEW120 03/M03 A3023 RMK AO2 SLP235 T00331028 $EQDD01      0ADE726
0216724090147802023010823007+40033-074350FM-15+0031KNEL V0201505N003152200059N9999999N5+00225-00285102295ADDGA1045+033535999GD12991+0335359GE19AGL   +99999+99999GF104995999999033531999999MA1102305101935REMMET09101/08/23 18:00:02 METAR KNEL 082300Z 15006KT SCT110 02/M03 A3021 RMK AO2 SLP229 T00221028 $EQDD01      0ADE726
0280724090147802023010900007+40033-074350FM-15+0031KNEL V0201605N002152200059N9999999N5+00175-00285102255ADDGA1045+030485999GD12991+0304859GE19AGL   +99999+99999GF104995999999030481999999KA1060M+00501KA2060N+00171MA1102275101895MD1890099+9999REMMET11501/08/23 19:00:01 METAR KNEL 090000Z 16004KT SCT100 02/M03 A3020 RMK AO2 SLP225 6//// T00171028 10050 20017 58009 $EQDD01      0ADE726
0172724090147802023010901007+40033-074350FM-15+0031KNEL V0201705N001552200059N9999999N5+00175-00225102225ADDGA1005+999999999GD10991+9999999GF100991999999999999999999MA1102245101865REMMET08801/08/23 20:00:01 METAR KNEL 090100Z 17003KT CLR 02/M02 A3019 RMK AO2 SLP222 T00171022 $
0197724090147802023010902007+40033-074350FM-15+0031KNEL V0202105N00315014335MN9999999N5+00285-00175102195ADDGA1085+014335999GD14991+0143359GE19AGL   +99999+99999GF199999999999014331999999MA1102205101835REMMET09101/08/23 21:00:01 METAR KNEL 090200Z 21006KT OVC047 03/M02 A3018 RMK AO2 SLP219 T00281017 $
0217724090147802023010903007+40033-074350FM-15+0031KNEL V0201905N00265014025MN9999999N5+00335-00115102105ADDGA1085+014025999GD14991+0140259GE19AGL   +99999+99999GF199999999999014021999999MA1102105101735MD1690119+9999REMMET09701/08/23 22:00:01 METAR KNEL 090300Z 19005KT OVC046 03/M01 A3015 RMK AO2 SLP210 T00331011 56011 $
0197724090147802023010904007+40033-074350FM-15+0031KNEL V0201705N00215013415MN9999999N5+00335-00065101995ADDGA1085+013415999GD14991+0134159GE19AGL   +99999+99999GF199999999999013411999999MA1102005101625REMMET09101/08/23 23:00:02 METAR KNEL 090400Z 17004KT OVC044 03/M01 A3012 RMK AO2 SLP199 T00331006 $
0233724090147802023010905007+40033-074350FM-15+0031KNEL V0201505N00215011585MN9999999N5+00335-00065101885ADDGA1085+011585999GD14991+0115859GE19AGL   +99999+99999GF199999999999011581999999KA1240M+00331KA2240N+00331MA1101905101525REMMET10101/09/23 00:00:02 METAR KNEL 090500Z 15004KT OVC038 03/M01 A3009 RMK AO2 SLP188 T00331006 400330033 $
0239724090147802023010905507+40033-074350FM-16+0031KNEL V0209999C00005008845MN9999999N5+00335+00065999999ADDAA101000021AU110020015AW1615GA1085+008845999GD14991+0088459GE19AGL   +99999+99999GF199999999999008841999999MA1101795101425MW1615REMMET09901/09/23 00:50:02 SPECI KNEL 090550Z 00000KT -RA OVC029 03/01 A3006 RMK AO2 RAB25 P0000 T00330006 $
0380724090147802023010906007+40033-074350FM-15+0031KNEL V0209999C00005007015MN9999999N5+00335+00115101805ADDAA101000021AA206000021AU110020015AW1615GA1075+007015999GA2085+008845999GD13991+0070159GD24991+0088459GE19AGL   +99999+99999GF199999999999007011999999KA1060M+00391KA2060N+00111MA1101835101465MD1890309+9999MW1615REMMET13901/09/23 01:00:02 METAR KNEL 090600Z 00000KT -RA BKN023 OVC029 03/01 A3007 RMK AO2 RAB0525 SLP180 P0000 60000 T00330011 10039 20011 58030 $EQDQ01  00008PRCP06
0291724090147802023010907007+40033-074350FM-15+0031KNEL V0209999C00005004885MN9999999N5+00285+00175101705ADDAA101000021AU110020015AW1615GA1075+004885999GA2085+006405999GD13991+0048859GD24991+0064059GE19AGL   +99999+99999GF199999999999004881999999MA1101735101355MW1615REMMET12001/09/23 02:00:02 METAR KNEL 090700Z 00000KT -RA BKN016 OVC021 03/02 A3004 RMK AO2 RAE0626B0653 SLP170 P0000 T00280017 $
0233724090147802023010907147+40033-074350FM-16+0031KNEL V0209999C00005004275MN9999999N5+00335+00225999999ADDAA101000021AU110020015AW1615GA1085+004275999GD14991+0042759GE19AGL   +99999+99999GF199999999999004271999999MA1101735101355MW1615REMMET09301/09/23 02:14:02 SPECI KNEL 090714Z 00000KT -RA OVC014 03/02 A3004 RMK AO2 P0000 T00330022 $
0299724090147802023010908007+40033-074350FM-16+0031KNEL V0209999C00005011285MN9999999N5+00305+00205999999ADDAA101000021AU110020015AW1615GA1025+004885999GA2045+006405999GA3085+011285999GD11991+0048859GD22991+0064059GD34991+0112859GE19AGL   +99999+99999GF199999999999004881999999MA1101665101295MW1615REMMET09701/09/23 03:00:02 SPECI KNEL 090800Z 00000KT -RA FEW016 SCT021 OVC037 03/02 A3002 RMK AO2 P0000 $
0298724090147802023010908097+40033-074350FM-16+0031KNEL V0209999C00005004275MN9999999N5+00305+00205999999ADDAA101000021AU120020015AW1625GA1025+001225999GA2075+004275999GA3085+011895999GD11991+0012259GD23991+0042759GD34991+0118959GE19AGL   +99999+99999GF199999999999001221999999MA1101635101255MW1655REMMET09601/09/23 03:09:02 SPECI KNEL 090809Z 00000KT RA FEW004 BKN014 OVC039 03/02 A3001 RMK AO2 P0000 $
0286724090147802023010908217+40033-074350FM-16+0031KNEL V0209999C00005011285MN9999999N5+00305+00205999999ADDAU110020015AW1615GA1025+001225999GA2045+004275999GA3085+011285999GD11991+0012259GD22991+0042759GD34991+0112859GE19AGL   +99999+99999GF199999999999001221999999MA1101595101225MW1615REMMET09501/09/23 03:21:02 SPECI KNEL 090821Z 00000KT -RA FEW004 SCT014 OVC037 03/02 A3000 RMK AO2 PNO $
0296724090147802023010908317+40033-074350FM-16+0031KNEL V0209999C00005005185MN9999999N5+00305+00205999999ADDAU120090015AW1401AW2415GA1025+001225999GA2075+005185999GA3085+011285999GD11991+0012259GD23991+0051859GD34991+0112859GE19AGL   +99999+99999GF199999999999001221999999MA1101565101195REMMET10501/09/23 03:31:02 SPECI KNEL 090831Z 00000KT UP FEW004 BKN017 OVC037 03/02 A2999 RMK AO2 RAE28UPB28 PNO $
0339724090147802023010908507+40033-074350FM-15+0031KNEL V0209999C00005004885MN9999999N5+00335+00225101505ADDAU110020015AW1615GA1025+001525999GA2075+004885999GA3085+011285999GD11991+0015259GD23991+0048859GD34991+0112859GE19AGL   +99999+99999GF199999999999001521999999MA1101525101155MW1615REMMET12901/09/23 03:50:02 METAR KNEL 090850Z 00000KT -RA FEW005 BKN016 OVC037 03/02 A2998 RMK AO2 RAE28B36UPB28E47 SLP150 T00330022 PNO $EQDR01   PNO7AAP062
0286724090147802023010908577+40033-074350FM-16+0031KNEL V0209999C00005003665MN9999999N5+00305+00205999999ADDAU110020015AW1615GA1025+001525999GA2075+003665999GA3085+011285999GD11991+0015259GD23991+0036659GD34991+0112859GE19AGL   +99999+99999GF199999999999001521999999MA1101495101125MW1615REMMET09501/09/23 03:57:02 SPECI KNEL 090857Z 00000KT -RA FEW005 BKN012 OVC037 03/02 A2997 RMK AO2 PNO $
0348724090147802023010909007+40033-074350FM-15+0031KNEL V0209999C00005003665MN9999999N5+00285+00225101485ADDAU110020015AW1615GA1075+003665999GA2075+008235999GA3085+010975999GD13991+0036659GD23991+0082359GD34991+0109759GE19AGL   +99999+99999GF199999999999003661999999MA1101495101125MD1690089+9999MW1615REMMET12401/09/23 04:00:02 METAR KNEL 090900Z 00000KT -RA BKN012 BKN027 OVC036 03/02 A2997 RMK AO2 SLP148 6//// T00280022 56008 PNO $EQDR01   PNO7AAP062
0305724090147802023010909427+40033-074350FM-16+0031KNEL V0209999C00005005495MN9999999N5+00285+00225999999ADDAU110020015AW1615GA1045+003355999GA2075+005495999GA3085+008235999GD12991+0033559GD23991+0054959GD34991+0082359GE19AGL   +99999+99999GF199999999999003351999999MA1101465101085MW1615REMMET11401/09/23 04:42:02 SPECI KNEL 090942Z 00000KT -RA SCT011 BKN018 OVC027 03/02 A2996 RMK AO2 UPB10E20 T00280022 PNO $
0297724090147802023010910007+40033-074350FM-15+0031KNEL V0209999C00005008235MN9999999N5+00285+00225101425ADDAU110020015AW1615GA1025+004575999GA2085+008235999GD11991+0045759GD24991+0082359GE19AGL   +99999+99999GF199999999999004571999999MA1101465101085MW1615REMMET11801/09/23 05:00:02 METAR KNEL 091000Z 00000KT -RA FEW015 OVC027 03/02 A2996 RMK AO2 UPB0910E0920 SLP142 T00280022 PNO $EQDR01   PNO7AAP062
0283724090147802023010910347+40033-074350FM-16+0031KNEL V0209999C00005008235MN9999999N5+00285+00225999999ADDGA1025+000615999GA2045+003965999GA3085+008235999GD11991+0006159GD22991+0039659GD34991+0082359GE19AGL   +99999+99999GF199999999999000611999999MA1101465101085REMMET11501/09/23 05:34:02 SPECI KNEL 091034Z 00000KT FEW002 SCT013 OVC027 03/02 A2996 RMK AO2 RAE27UPB27E31 T00280022 PNO $
0315724090147802023010911007+40033-074350FM-15+0031KNEL V0209999C00005007625MN9999999N5+00285+00225101435ADDGA1075+007625999GA2075+009145999GA3085+019815999GD13991+0076259GD23991+0091459GD34991+0198159GE19AGL   +99999+99999GF199999999999007621999999MA1101465101085REMMET12801/09/23 06:00:02 METAR KNEL 091100Z 00000KT BKN025 BKN030 OVC065 03/02 A2996 RMK AO2 RAE1027UPB1027E1031 SLP143 T00280022 PNO $EQDR01   PNO7AAP062
0300724090147802023010912007+40033-074350FM-15+0031KNEL V0209999C00005005795MN9999999N5+00285+00225101395ADDAA124999919GA1085+005795999GD14991+0057959GE19AGL   +99999+99999GF199999999999005791999999KA1060M+00331KA2060N+00281MA1101395101025MD1590069+9999REMMET12401/09/23 07:00:02 METAR KNEL 091200Z 00000KT OVC019 03/02 A2994 RMK AO2 SLP139 6//// 7//// T00280022 10033 20028 55006 PNO $EQDR01   PNO7AAP062
0193724090147802023010912177+40033-074350FM-16+0031KNEL V0202905N00155004275MN9999999N5+00285+00225999999ADDGA1085+004275999GD14991+0042759GE19AGL   +99999+99999GF199999999999004271999999MA1101425101055REMMET08701/09/23 07:17:02 SPECI KNEL 091217Z 29003KT OVC014 03/02 A2995 RMK AO2 T00280022 PNO $
0193724090147802023010912527+40033-074350FM-16+0031KNEL V0202905N00155002745MN9999999N5+00285+00225999999ADDGA1085+002745999GD14991+0027459GE19AGL   +99999+99999GF199999999999002741999999MA1101465101085REMMET08701/09/23 07:52:02 SPECI KNEL 091252Z 29003KT OVC009 03/02 A2996 RMK AO2 T00280022 PNO $
0231724090147802023010913007+40033-074350FM-15+0031KNEL V0209999C00005002445MN9999999N5+00285+00225101445ADDGA1085+002445999GD14991+0024451GE19AGL   +99999+99999GF199999999999002441999999MA1101465101085REMMET10601/09/23 08:00:02 METAR KNEL 091300Z 00000KT OVC008 03/02 A2996 RMK AO2 CIG 005V009 SLP144 T00280022 PNO $EQDR01   PNO7AAP062
0193724090147802023010913287+40033-074350FM-16+0031KNEL V0209999C00005001225MN9999999N5+00285+00225999999ADDGA1085+001225999GD14991+0012259GE19AGL   +99999+99999GF199999999999001221999999MA1101465101085REMMET08701/09/23 08:28:02 SPECI KNEL 091328Z 00000KT OVC004 03/02 A2996 RMK AO2 T00280022 PNO $
0219724090147802023010914007+40033-074350FM-15+0031KNEL V0203105N00215000915MN9999999N5+00335+00225101475ADDGA1085+000915999GD14991+0009159GE19AGL   +99999+99999GF199999999999000911999999MA1101495101125REMMET09401/09/23 09:00:02 METAR KNEL 091400Z 31004KT OVC003 03/02 A2997 RMK AO2 SLP147 T00330022 PNO $EQDR01   PNO7AAP062
0243724090147802023010914317+40033-074350FM-16+0031KNEL V0203005N00215001835MN9999999N5+00395+00285999999ADDGA1075+001835999GA2085+015245999GD13991+0018351GD24991+0152459GE19AGL   +99999+99999GF199999999999001831999999MA1101495101125REMMET10601/09/23 09:31:02 SPECI KNEL 091431Z 30004KT BKN006 OVC050 04/03 A2997 RMK AO2 CIG 003V008 T00390028 PNO $
0257724090147802023010915007+40033-074350FM-15+0031KNEL V0203405N00265002745MN9999999N5+00445+00225101465ADDGA1075+002745999GD13991+0027451GE19AGL   +99999+99999GF199999999999002741999999MA1101465101085MD1390049+9999REMMET11801/09/23 10:00:02 METAR KNEL 091500Z 34005KT BKN009 04/02 A2996 RMK AO2 CIG 005V015 SLP146 6//// T00440022 53004 PNO $EQDR01   PNO7AAP062
0231724090147802023010915147+40033-074350FM-16+0031KNEL V0209999V00265003665MN9999999N5+00505+00225999999ADDGA1025+002445999GA2075+003665999GD11991+0024459GD23991+0036659GE19AGL   +99999+99999GF199999999999002441999999MA1101495101125REMMET09401/09/23 10:14:02 SPECI KNEL 091514Z VRB05KT FEW008 BKN012 05/02 A2997 RMK AO2 T00500022 PNO $
0212724090147802023010915267+40033-074350FM-16+0031KNEL V0203105N003652200059N9999999N5+00505+00225999999ADDGA1025+003665999GD11991+0036659GE19AGL   +99999+99999GF102995999999003661999999MA1101465101085REMMET08701/09/23 10:26:02 SPECI KNEL 091526Z 31007KT FEW012 05/02 A2996 RMK AO2 T00500022 PNO $EQDD01      0ADE726
0284724090147802023010916007+40033-074350FM-15+0031KNEL V0203005N003652200059N9999999N5+00505+00115101415ADDGA1025+004575999GA2045+006405999GD11991+0045759GD22991+0064059GE19AGL   +99999+99999GF104995999999004571999999MA1101425101055OC100825REMMET10401/09/23 11:00:02 METAR KNEL 091600Z 30007G16KT FEW015 SCT021 05/01 A2995 RMK AO2 SLP141 T00500011 PNO $EQDR01   PNO7AAP062D01      0ADE726
0193724090147802023010916167+40033-074350FM-16+0031KNEL V0203105V00415006105MN9999999N5+00615+00115999999ADDGA1075+006105999GD13991+0061059GE19AGL   +99999+99999GF199999999999006101999999MA1101425101055REMMET08701/09/23 11:16:02 SPECI KNEL 091616Z 31008KT BKN020 06/01 A2995 RMK AO2 T00610011 PNO $
0257724090147802023010917007+40033-074350FM-15+0031KNEL V0203005N00365027435MN9999999N5+00675+00065101325ADDGA1045+007325999GA2075+027435999GD12991+0073259GD23991+0274359GE19AGL   +99999+99999GF199999999999007321999999MA1101325100955REMMET10101/09/23 12:00:02 METAR KNEL 091700Z 30007KT SCT024 BKN090 07/01 A2992 RMK AO2 SLP132 T00670006 PNO $EQDR01   PNO7AAP062
0204724090147802023010917387+40033-074350FM-16+0031KNEL V0203005N00415007325MN9999999N5+00675+00005999999ADDGA1075+007325999GD13991+0073259GE19AGL   +99999+99999GF199999999999007321999999MA1101295100915OC100985REMMET09001/09/23 12:38:02 SPECI KNEL 091738Z 30008G19KT BKN024 07/00 A2991 RMK AO2 T00670000 PNO $
0212724090147802023010917457+40033-074350FM-16+0031KNEL V0203005N004152200059N9999999N5+00675+00005999999ADDGA1025+007625999GD11991+0076259GE19AGL   +99999+99999GF102995999999007621999999MA1101295100915REMMET08701/09/23 12:45:02 SPECI KNEL 091745Z 30008KT FEW025 07/00 A2991 RMK AO2 T00670000 PNO $EQDD01      0ADE726
0299724090147802023010918007+40033-074350FM-15+0031KNEL V0202805N006252200059N9999999N5+00725+00005101235ADDGA1045+007925999GD12991+0079259GE19AGL   +99999+99999GF104995999999007921999999KA1060M+00781KA2060N+00281MA1101255100885MD1690149+9999REMMET11801/09/23 13:00:02 METAR KNEL 091800Z 28012KT SCT026 07/00 A2990 RMK AO2 SLP123 6//// T00720000 10078 20028 56014 PNO $EQDR01   PNO7AAP062D01      0ADE726
0195724090147802023010919007+40033-074350FM-15+0031KNEL V0202805N007252200059N9999999N5+00725-00065101195ADDGA1005+999999999GD10991+9999999GF100991999999999999999999MA1101225100855REMMET09201/09/23 14:00:02 METAR KNEL 091900Z 28014KT CLR 07/M01 A2989 RMK AO2 SLP119 T00721006 PNO $EQDR01   PNO7AAP062
0195724090147802023010920007+40033-074350FM-15+0031KNEL V0202905N007252200059N9999999N5+00785-00175101215ADDGA1005+999999999GD10991+9999999GF100991999999999999999999MA1101225100855REMMET09201/09/23 15:00:02 METAR KNEL 092000Z 29014KT CLR 08/M02 A2989 RMK AO2 SLP121 T00781017 PNO $EQDR01   PNO7AAP062
0232724090147802023010921007+40033-074350FM-15+0031KNEL V0202905N007252200059N9999999N5+00675-00225101255ADDGA1005+999999999GD10991+9999999GF100991999999999999999999MA1101295100915MD1590119+9999OC100985REMMET10701/09/23 16:00:02 METAR KNEL 092100Z 29014G19KT CLR 07/M02 A2991 RMK AO2 SLP125 6//// T00671022 55011 PNO $EQDR01   PNO7AAP062
0195724090147802023010922007+40033-074350FM-15+0031KNEL V0202905N002652200059N9999999N5+00395-00335101315ADDGA1005+999999999GD10991+9999999GF100991999999999999999999MA1101325100955REMMET09201/09/23 17:00:02 METAR KNEL 092200Z 29005KT CLR 04/M03 A2992 RMK AO2 SLP131 T00391033 PNO $EQDR01   PNO7AAP062
0195724090147802023010923007+40033-074350FM-15+0031KNEL V0202905N003152200059N9999999N5+00225-00335101355ADDGA1005+999999999GD10991+9999999GF100991999999999999999999MA1101355100985REMMET09201/09/23 18:00:02 METAR KNEL 092300Z 29006KT CLR 02/M03 A2993 RMK AO2 SLP135 T00221033 PNO $EQDR01   PNO7AAP062
0259724090147802023011000007+40033-074350FM-15+0031KNEL V0202705N003152200059N9999999N5+00285-00335101415ADDGA1005+999999999GD10991+9999999GF100991999999999999999999KA1060M+00781KA2060N+00111MA1101425101055MD1190149+9999REMMET11601/09/23 19:00:01 METAR KNEL 100000Z 27006KT CLR 03/M03 A2995 RMK AO2 SLP141 6//// T00281033 10078 20011 51014 PNO $EQDR01   PNO7AAP062
0195724090147802023011001007+40033-074350FM-15+0031KNEL V0202705N003152200059N9999999N5+00065-00395101415ADDGA1005+999999999GD10991+9999999GF100991999999999999999999MA1101425101055REMMET09201/09/23 20:00:01 METAR KNEL 100100Z 27006KT CLR 01/M04 A2995 RMK AO2 SLP141 T00061039 PNO $EQDR01   PNO7AAP062
0196724090147802023011002007+40033-074350FM-15+0031KNEL V0202805N003652200059N9999999N5-00065-00445101425ADDGA1005+999999999GD10991+9999999GF100991999999999999999999MA1101425101055REMMET09301/09/23 21:00:01 METAR KNEL 100200Z 28007KT CLR M01/M04 A2995 RMK AO2 SLP142 T10061044 PNO $EQDR01   PNO7AAP062
0221724090147802023011003007+40033-074350FM-15+0031KNEL V0202705N003652200059N9999999N5+00115-00395101435ADDGA1005+999999999GD10991+9999999GF100991999999999999999999MA1101465101085MD1190069+9999REMMET10401/09/23 22:00:01 METAR KNEL 100300Z 27007KT CLR 01/M04 A2996 RMK AO2 SLP143 6//// T00111039 51006 PNO $EQDR01   PNO7AAP062
0195724090147802023011004007+40033-074350FM-15+0031KNEL V0202805N003652200059N9999999N5+00065-00395101465ADDGA1005+999999999GD10991+9999999GF100991999999999999999999MA1101495101125REMMET09201/09/23 23:00:01 METAR KNEL 100400Z 28007KT CLR 01/M04 A2997 RMK AO2 SLP146 T00061039 PNO $EQDR01   PNO7AAP062
002772409014780202301100459O+40033-074350SOD  +0031KNEL V020999999999999999999999999999+99999+99999999999ADDAT1AU16RA  5AT2AU19UP  5
0231724090147802023011005007+40033-074350FM-15+0031KNEL V0209999C000052200059N9999999N5+00005-00445101475ADDGA1005+999999999GD10991+9999999GF100991999999999999999999KA1240M+00001KA2240N+00001MA1101495101125REMMET10201/10/23 00:00:01 METAR KNEL 100500Z 00000KT CLR 00/M04 A2997 RMK AO2 SLP147 T00001044 400000000 PNO $EQDR01   PNO7AAP062
0260724090147802023011006007+40033-074350FM-15+0031KNEL V0202505N001552200059N9999999N5-00175-00505101505ADDGA1005+999999999GD10991+9999999GF100991999999999999999999KA1060M+00221KA2060N-00171MA1101525101155MD1190059+9999REMMET11701/10/23 01:00:01 METAR KNEL 100600Z 25003KT CLR M02/M05 A2998 RMK AO2 SLP150 6//// T10171050 10022 21017 51005 PNO $EQDR01   PNO7AAP062
0196724090147802023011007007+40033-074350FM-15+0031KNEL V0202805N001552200059N9999999N5-00065-00445101575ADDGA1005+999999999GD10991+9999999GF100991999999999999999999MA1101595101225REMMET09301/10/23 02:00:01 METAR KNEL 100700Z 28003KT CLR M01/M04 A3000 RMK AO2 SLP157 T10061044 PNO $EQDR01   PNO7AAP062
0196724090147802023011008007+40033-074350FM-15+0031KNEL V0202805N003152200059N9999999N5-00115-00505101595ADDGA1005+999999999GD10991+9999999GF100991999999999999999999MA1101635101255REMMET09301/10/23 03:00:01 METAR KNEL 100800Z 28006KT CLR M01/M05 A3001 RMK AO2 SLP159 T10111050 PNO $EQDR01   PNO7AAP062
0179724090147802023011009007+40033-074350FM-15+0031KNEL V0202905N003152200059N9999999N5-00285-00565101575ADDGA1005+999999999GD10991+9999999GF100991999999999999999999MA1101565101195REMMET09501/10/23 04:00:01 METAR KNEL 100900Z 29006KT CLR M03/M06 A2999 RMK AO2 SLP157 6//// T10281056 $
0173724090147802023011010007+40033-074350FM-15+0031KNEL V0202805N002652200059N9999999N5-00285-00505101645ADDGA1005+999999999GD10991+9999999GF100991999999999999999999MA1101665101295REMMET08901/10/23 05:00:02 METAR KNEL 101000Z 28005KT CLR M03/M05 A3002 RMK AO2 SLP164 T10281050 $
0173724090147802023011011007+40033-074350FM-15+0031KNEL V0202605N001552200059N9999999N5-00285-00505101685ADDGA1005+999999999GD10991+9999999GF100991999999999999999999MA1101695101325REMMET08901/10/23 06:00:02 METAR KNEL 101100Z 26003KT CLR M03/M05 A3003 RMK AO2 SLP168 T10281050 $
0259724090147802023011012007+40033-074350FM-15+0031KNEL V0202605N00265010975MN9999999N5-00225-00445101755ADDAA124999919GA1085+010975999GD14991+0109759GE19AGL   +99999+99999GF199999999999010971999999KA1060M+00001KA2060N-00331MA1101765101395REMMET11601/10/23 07:00:02 METAR KNEL 101200Z 26005KT OVC036 M02/M04 A3005 RMK AO2 SLP175 6//// 7//// T10221044 10000 21033 $
0197724090147802023011013007+40033-074350FM-15+0031KNEL V0202605N00265010675MN9999999N5+00005-00335101785ADDGA1085+010675999GD14991+0106759GE19AGL   +99999+99999GF199999999999010671999999MA1101795101425REMMET09101/10/23 08:00:02 METAR KNEL 101300Z 26005KT OVC035 00/M03 A3006 RMK AO2 SLP178 T00001033 $
0197724090147802023011014007+40033-074350FM-15+0031KNEL V0202705N00315010675MN9999999N5+00115-00285101835ADDGA1085+010675999GD14991+0106759GE19AGL   +99999+99999GF199999999999010671999999MA1101835101465REMMET09101/10/23 09:00:02 METAR KNEL 101400Z 27006KT OVC035 01/M03 A3007 RMK AO2 SLP183 T00111028 $
0217724090147802023011015007+40033-074350FM-15+0031KNEL V0202705N00365010675MN9999999N5+00225-00285101855ADDGA1085+010675999GD14991+0106759GE19AGL   +99999+99999GF199999999999010671999999MA1101865101495MD1190159+9999REMMET09701/10/23 10:00:02 METAR KNEL 101500Z 27007KT OVC035 02/M03 A3008 RMK AO2 SLP185 T00221028 51015 $
0197724090147802023011016007+40033-074350FM-15+0031KNEL V0202705N00415010975MN9999999N5+00395-00225101835ADDGA1085+010975999GD14991+0109759GE19AGL   +99999+99999GF199999999999010971999999MA1101835101465REMMET09101/10/23 11:00:02 METAR KNEL 101600Z 27008KT OVC036 04/M02 A3007 RMK AO2 SLP183 T00391022 $
0197724090147802023011017007+40033-074350FM-15+0031KNEL V0202705N00315011285MN9999999N5+00505-00225101705ADDGA1085+011285999GD14991+0112859GE19AGL   +99999+99999GF199999999999011281999999MA1101735101355REMMET09101/10/23 12:00:02 METAR KNEL 101700Z 27006KT OVC037 05/M02 A3004 RMK AO2 SLP170 T00501022 $
0255724090147802023011018007+40033-074350FM-15+0031KNEL V0202605N00465011585MN9999999N5+00565-00225101695ADDGA1085+011585999GD14991+0115859GE19AGL   +99999+99999GF199999999999011581999999KA1060M+00561KA2060N-00171MA1101695101325MD1890129+9999REMMET10901/10/23 13:00:02 METAR KNEL 101800Z 26009KT OVC038 06/M02 A3003 RMK AO2 SLP169 T00561022 10056 21017 58012 $
0216724090147802023011019007+40033-074350FM-15+0031KNEL V0202905N004152200059N9999999N5+00615-00225101655ADDGA1025+011285999GD11991+0112859GE19AGL   +99999+99999GF102995999999011281999999MA1101665101295REMMET09101/10/23 14:00:02 METAR KNEL 101900Z 29008KT FEW037 06/M02 A3002 RMK AO2 SLP165 T00611022 $EQDD01      0ADE726
0197724090147802023011020007+40033-074350FM-15+0031KNEL V0203105N00365011285MN9999999N5+00615-00285101645ADDGA1075+011285999GD13991+0112859GE19AGL   +99999+99999GF199999999999011281999999MA1101665101295REMMET09101/10/23 15:00:02 METAR KNEL 102000Z 31007KT BKN037 06/M03 A3002 RMK AO2 SLP164 T00611028 $
0217724090147802023011021007+40033-074350FM-15+0031KNEL V0209999V00155011285MN9999999N5+00565-00285101685ADDGA1085+011285999GD14991+0112859GE19AGL   +99999+99999GF199999999999011281999999MA1101695101325MD1690059+9999REMMET09701/10/23 16:00:02 METAR KNEL 102100Z VRB03KT OVC037 06/M03 A3003 RMK AO2 SLP168 T00561028 56005 $
0197724090147802023011022007+40033-074350FM-15+0031KNEL V0209999C00005011285MN9999999N5+00505-00285101725ADDGA1085+011285999GD14991+0112859GE19AGL   +99999+99999GF199999999999011281999999MA1101735101355REMMET09101/10/23 17:00:02 METAR KNEL 102200Z 00000KT OVC037 05/M03 A3004 RMK AO2 SLP172 T00501028 $
0197724090147802023011023007+40033-074350FM-15+0031KNEL V0209999C00005011585MN9999999N5+00445-00285101785ADDGA1085+011585999GD14991+0115859GE19AGL   +99999+99999GF199999999999011581999999MA1101795101425REMMET09101/10/23 18:00:02 METAR KNEL 102300Z 00000KT OVC038 04/M03 A3006 RMK AO2 SLP178 T00441028 $
0255724090147802023011100007+40033-074350FM-15+0031KNEL V0209999C00005012195MN9999999N5+00335-00175101825ADDGA1085+012195999GD14991+0121959GE19AGL   +99999+99999GF199999999999012191999999KA1060M+00671KA2060N+00331MA1101835101465MD1390139+9999REMMET10901/10/23 19:00:01 METAR KNEL 110000Z 00000KT OVC040 03/M02 A3007 RMK AO2 SLP182 T00331017 10067 20033 53013 $
0197724090147802023011101007+40033-074350FM-15+0031KNEL V0209999C00005012505MN9999999N5+00335-00175101845ADDGA1085+012505999GD14991+0125059GE19AGL   +99999+99999GF199999999999012501999999MA1101835101465REMMET09101/10/23 20:00:01 METAR KNEL 110100Z 00000KT OVC041 03/M02 A3007 RMK AO2 SLP184 T00331017 $
0197724090147802023011102007+40033-074350FM-15+0031KNEL V0209999C00005012195MN9999999N5+00285-00115101875ADDGA1085+012195999GD14991+0121959GE19AGL   +99999+99999GF199999999999012191999999MA1101865101495REMMET09101/10/23 21:00:01 METAR KNEL 110200Z 00000KT OVC040 03/M01 A3008 RMK AO2 SLP187 T00281011 $
0217724090147802023011103007+40033-074350FM-15+0031KNEL V0209999C00005011585MN9999999N5+00285-00065101925ADDGA1085+011585999GD14991+0115859GE19AGL   +99999+99999GF199999999999011581999999MA1101935101565MD1190089+9999REMMET09701/10/23 22:00:01 METAR KNEL 110300Z 00000KT OVC038 03/M01 A3010 RMK AO2 SLP192 T00281006 51008 $
0197724090147802023011104007+40033-074350FM-15+0031KNEL V0209999C00005011895MN9999999N5+00285-00115101935ADDGA1085+011895999GD14991+0118959GE19AGL   +99999+99999GF199999999999011891999999MA1101965101595REMMET09101/10/23 23:00:01 METAR KNEL 110400Z 00000KT OVC039 03/M01 A3011 RMK AO2 SLP193 T00281011 $
0197724090147802023011108007+40033-074350FM-15+0031KNEL V0203205N00155013415MN9999999N5+00225-00065102095ADDGA1085+013415999GD14991+0134159GE19AGL   +99999+99999GF199999999999013411999999MA1102105101735REMMET09101/11/23 03:00:01 METAR KNEL 110800Z 32003KT OVC044 02/M01 A3015 RMK AO2 SLP209 T00221006 $
0197724090147802023011109007+40033-074350FM-15+0031KNEL V0209999C00005013115MN9999999N5+00285-00225102105ADDGA1085+013115999GD14991+0131159GE19AGL   +99999+99999GF199999999999013111999999MA1102135101765REMMET09101/11/23 04:00:01 METAR KNEL 110900Z 00000KT OVC043 03/M02 A3016 RMK AO2 SLP210 T00281022 $
0197724090147802023011110007+40033-074350FM-15+0031KNEL V0209999C00005013115MN9999999N5+00285-00175102135ADDGA1085+013115999GD14991+0131159GE19AGL   +99999+99999GF199999999999013111999999MA1102175101795REMMET09101/11/23 05:00:02 METAR KNEL 111000Z 00000KT OVC043 03/M02 A3017 RMK AO2 SLP213 T00281017 $
0197724090147802023011111007+40033-074350FM-15+0031KNEL V0209999C00005013725MN9999999N5+00175-00225102095ADDGA1075+013725999GD13991+0137259GE19AGL   +99999+99999GF199999999999013721999999MA1102105101735REMMET09101/11/23 06:00:02 METAR KNEL 111100Z 00000KT BKN045 02/M02 A3015 RMK AO2 SLP209 T00171022 $
0236724090147802023011112007+40033-074350FM-15+0031KNEL V0203005N00215013415MN9999999N5-00175-00335102205ADDGA1075+013415999GD13991+0134159GE19AGL   +99999+99999GF199999999999013411999999KA1060M+00331KA2060N-00221MA1102205101835REMMET10401/11/23 07:00:02 METAR KNEL 111200Z 30004KT BKN044 M02/M03 A3018 RMK AO2 SLP220 T10171033 10033 21022 $
0197724090147802023011113007+40033-074350FM-15+0031KNEL V0209999C00005013415MN9999999N5+00065-00115102295ADDGA1085+013415999GD14991+0134159GE19AGL   +99999+99999GF199999999999013411999999MA1102305101935REMMET09101/11/23 08:00:02 METAR KNEL 111300Z 00000KT OVC044 01/M01 A3021 RMK AO2 SLP229 T00061011 $
0197724090147802023011114007+40033-074350FM-15+0031KNEL V0209999C00005013415MN9999999N5+00285-00115102345ADDGA1085+013415999GD14991+0134159GE19AGL   +99999+99999GF199999999999013411999999MA1102345101965REMMET09101/11/23 09:00:02 METAR KNEL 111400Z 00000KT OVC044 03/M01 A3022 RMK AO2 SLP234 T00281011 $
0217724090147802023011115007+40033-074350FM-15+0031KNEL V0200605N00515013415MN9999999N5+00505-00175102355ADDGA1085+013415999GD14991+0134159GE19AGL   +99999+99999GF199999999999013411999999MA1102375102005MD1190249+9999REMMET09701/11/23 10:00:02 METAR KNEL 111500Z 06010KT OVC044 05/M02 A3023 RMK AO2 SLP235 T00501017 51024 $
0235724090147802023011116007+40033-074350FM-15+0031KNEL V0200705N00415013115MN9999999N5+00505-00175102395ADDGA1025+008235999GA2085+013115999GD11991+0082359GD24991+0131159GE19AGL   +99999+99999GF199999999999008231999999MA1102405102035REMMET09801/11/23 11:00:02 METAR KNEL 111600Z 07008KT FEW027 OVC043 05/M02 A3024 RMK AO2 SLP239 T00501017 $
0235724090147802023011117007+40033-074350FM-15+0031KNEL V0200705N00465013115MN9999999N5+00565-00225102325ADDGA1045+009755999GA2075+013115999GD12991+0097559GD23991+0131159GE19AGL   +99999+99999GF199999999999009751999999MA1102345101965REMMET09801/11/23 12:00:02 METAR KNEL 111700Z 07009KT SCT032 BKN043 06/M02 A3022 RMK AO2 SLP232 T00561022 $
0273724090147802023011118007+40033-074350FM-15+0031KNEL V0200705N004652200059N9999999N5+00615-00285999999ADDGA1045+010975999GD12991+0109759GE19AGL   +99999+99999GF104995999999010971999999KA1060M+00611KA2060N-00171MA1102275101895MD1890029+9999REMMET10801/11/23 13:00:02 METAR KNEL 111800Z 07009KT SCT036 06/M03 A3020 RMK AO2 SLPNO T00611028 10061 21017 58002 $EQDD01      0ADE726
0216724090147802023011119007+40033-074350FM-15+0031KNEL V0200905N003652200059N9999999N5+00565-00335102245ADDGA1025+011285999GD11991+0112859GE19AGL   +99999+99999GF102995999999011281999999MA1102275101895REMMET09101/11/23 14:00:02 METAR KNEL 111900Z 09007KT FEW037 06/M03 A3020 RMK AO2 SLP224 T00561033 $EQDD01      0ADE726
0197724090147802023011120007+40033-074350FM-15+0031KNEL V0201105N00315011895MN9999999N5+00505-00335102325ADDGA1085+011895999GD14991+0118959GE19AGL   +99999+99999GF199999999999011891999999MA1102345101965REMMET09101/11/23 15:00:02 METAR KNEL 112000Z 11006KT OVC039 05/M03 A3022 RMK AO2 SLP232 T00501033 $
0236724090147802023011121007+40033-074350FM-15+0031KNEL V0200905N003152200059N9999999N5+00445-00335102345ADDGA1025+011585999GD11991+0115859GE19AGL   +99999+99999GF102995999999011581999999MA1102345101965MD1390009+9999REMMET09701/11/23 16:00:02 METAR KNEL 112100Z 09006KT FEW038 04/M03 A3022 RMK AO2 SLP234 T00441033 53000 $EQDD01      0ADE726
0172724090147802023011122007+40033-074350FM-15+0031KNEL V0201105N003152200059N9999999N5+00395-00335102385ADDGA1005+999999999GD10991+9999999GF100991999999999999999999MA1102405102035REMMET08801/11/23 17:00:02 METAR KNEL 112200Z 11006KT CLR 04/M03 A3024 RMK AO2 SLP238 T00391033 $
0172724090147802023011123007+40033-074350FM-15+0031KNEL V0200805N003152200059N9999999N5+00335-00285102355ADDGA1005+999999999GD10991+9999999GF100991999999999999999999MA1102375102005REMMET08801/11/23 18:00:02 METAR KNEL 112300Z 08006KT CLR 03/M03 A3023 RMK AO2 SLP235 T00331028 $
0210724090147802023011200007+40033-074350FM-15+0031KNEL V0209999C000052200059N9999999N5+00175-00285102375ADDGA1005+999999999GD10991+9999999GF100991999999999999999999KA1060M+00611KA2060N+00171MA1102375102005REMMET10001/11/23 19:00:01 METAR KNEL 120000Z 00000KT CLR 02/M03 A3023 RMK AO2 SLP237 T00171028 10061 20017 $
0172724090147802023011201007+40033-074350FM-15+0031KNEL V0209999C000052200059N9999999N5+00005-00285102395ADDGA1005+999999999GD10991+9999999GF100991999999999999999999MA1102405102035REMMET08801/11/23 20:00:01 METAR KNEL 120100Z 00000KT CLR 00/M03 A3024 RMK AO2 SLP239 T00001028 $
0197724090147802023011202007+40033-074350FM-15+0031KNEL V0200705N00265021345MN9999999N5+00115-00225102345ADDGA1075+021345999GD13991+0213459GE19AGL   +99999+99999GF199999999999021341999999MA1102345101965REMMET09101/11/23 21:00:01 METAR KNEL 120200Z 07005KT BKN070 01/M02 A3022 RMK AO2 SLP234 T00111022 $
0217724090147802023011203007+40033-074350FM-15+0031KNEL V0209999C00005019815MN9999999N5+00115-00175102405ADDGA1085+019815999GD14991+0198159GE19AGL   +99999+99999GF199999999999019811999999MA1102405102035MD1890029+9999REMMET09701/11/23 22:00:01 METAR KNEL 120300Z 00000KT OVC065 01/M02 A3024 RMK AO2 SLP240 T00111017 58002 $
