0163724097547382025010100454+40799-074415FM-15+005799999V0200401N002610134119N016093199+00801+00601999999ADDGD12991+0076219GD24991+0134119GE19AGL   +99999+99999GF199999999999007621999999MA1100511999999REMMET058METAR KMMU 010045Z 04005KT 10SM SCT025 OVC044 08/06 A2968=
0181724097547382025010101454+40799-074415FM-15+005799999V0200201N004110213419N008047199+00601+00601999999ADDGD12991+0121919GD23991+0213419GE19AGL   +99999+99999GF199999999999012191999999MA1100341999999MW1101MW2611REMMET064METAR KMMU 010145Z 02008KT 5SM -RA BR SCT040 BKN070 06/06 A2963=
0203724097547382025010102454+40799-074415FM-15+005799999V0200501N003110079219N008047199+00601+00601999999ADDGD12991+0030519GD23991+0079219GD34991+0103619GE19AGL   +99999+99999GF199999999999003051999999MA1100171999999MW1101MW2611REMMET071METAR KMMU 010245Z 05006KT 5SM -RA BR SCT010 BKN026 OVC034 06/06 A2958=
0183724097547382025010103354+40799-074415FM-15+005799999V0200201N003110018319N016093199+00601+00601999999ADDAW1121GD14991+0018319GE19AGL   +99999+99999GF199999999999001831999999MA1099971999999REMMET087METAR KMMU 010335Z AUTO 02006KT 10SM VCTS OVC006 06/06 A2952 RMK AO2 LTG DSNT E THRU S=
0184724097547382025010103554+40799-074415FM-15+005799999V0209999C000010018319N016093199+00601+00601999999ADDAW1121GD14991+0018319GE19AGL   +99999+99999GF199999999999001831999999MA1100001999999REMMET088METAR KMMU 010355Z AUTO 00000KT 10SM VCTS OVC006 06/06 A2953 RMK AO2 LTG DSNT NE THRU S=
0172724097547382025010104154+40799-074415FM-15+005799999V0200401N003110018319N016093199+00601+00601999999ADDGD14991+0018319GE19AGL   +99999+99999GF199999999999001831999999MA1099901999999REMMET082METAR KMMU 010415Z AUTO 04006KT 10SM OVC006 06/06 A2950 RMK AO2 LTG DSNT E THRU S=
0172724097547382025010104354+40799-074415FM-15+005799999V0200401N002110018319N016093199+00601+00601999999ADDGD14991+0018319GE19AGL   +99999+99999GF199999999999001831999999MA1099861999999REMMET082METAR KMMU 010435Z AUTO 04004KT 10SM OVC006 06/06 A2949 RMK AO2 LTG DSNT E THRU S=
0235724097547382025010104557+40800-074417FM-15+0057KMMU V0200205N00215001835MN0160935N5+0060C+0060C999999ADDGA1085+001835999GD14991+0018359GE19AGL   +99999+99999GF199999999999001831999999MA1099835099165REMMET09412/31/24 23:55:02 METAR KMMU 010455Z 02004KT 10SM OVC006 06/06 A2948 RMK AO2 LTG DSNT E AND SEEQDR01    067TMP046R02    067DPT046
0193724097547382025010105157+40800-074417FM-15+0057KMMU V0209999C00005001835MN0160935N5+00705+00605999999ADDGA1085+001835999GD14991+0018359GE19AGL   +99999+99999GF199999999999001831999999MA1099835099165REMMET08701/01/25 00:15:02 METAR KMMU 010515Z 00000KT 10SM OVC006 07/06 A2948 RMK AO2 LTG DSNT E
0276724097547382025010105357+40800-074417FM-15+0057KMMU V0209999C00005001835MN0160935N5+00605+00605999999ADDGA1075+001835999GA2075+003355999GA3085+005185999GD13991+0018359GD23991+0033559GD34991+0051859GE19AGL   +99999+99999GF199999999999001831999999MA1099805099125REMMET10801/01/25 00:35:02 METAR KMMU 010535Z 00000KT 10SM BKN006 BKN011 OVC017 06/06 A2947 RMK AO2 LTG DSNT E AND SE
0228724097547382025010105557+40800-074417FM-15+0057KMMU V0209999C00005001835MN0112655N5+0060C+0060C999999ADDGA1085+001835999GD14991+0018359GE19AGL   +99999+99999GF199999999999001831999999MA1099835099165REMMET08701/01/25 00:55:02 METAR KMMU 010555Z 00000KT 7SM OVC006 06/06 A2948 RMK AO2 LTG DSNT SEEQDR01    067TMP046R02    067DPT046
0239724097547382025010106157+40800-074417FM-15+0057KMMU V0209999C00005001835MN0080475N5+00705+00605999999ADDAU100001015AW1105GA1075+001835999GA2085+004275999GD13991+0018359GD24991+0042759GE19AGL   +99999+99999GF199999999999001831999999MA1099835099165REMMET08501/01/25 01:15:02 METAR KMMU 010615Z 00000KT 5SM BR BKN006 OVC014 07/06 A2948 RMK AO2
0251724097547382025010106357+40800-074417FM-15+0057KMMU V0209999C00005004275MN0080475N5+00605+00605999999ADDAU100001015AW1105GA1045+001835999GA2085+004275999GD12991+0018359GD24991+0042759GE19AGL   +99999+99999GF199999999999001831999999MA1099805099125REMMET09701/01/25 01:35:02 METAR KMMU 010635Z 00000KT 5SM BR SCT006 OVC014 06/06 A2947 RMK AO2 LTG DSNT SE
0274724097547382025010106557+40800-074417FM-15+0057KMMU V0209999C00005004275MN0064375N5+0060C+0060C999999ADDAU100001015AW1105GA1045+001835999GA2085+004275999GD12991+0018359GD24991+0042759GE19AGL   +99999+99999GF199999999999001831999999MA1099835099165REMMET08501/01/25 01:55:02 METAR KMMU 010655Z 00000KT 4SM BR SCT006 OVC014 06/06 A2948 RMK AO2EQDR01    067TMP046R02    067DPT046
0201724097547382025010107157+40800-074417FM-15+0057KMMU V0209999C00005001835MN0016095N5+00605+00605999999ADDAU100001015AW1105GA1085+001835999GD14991+0018359GE19AGL   +99999+99999GF199999999999001831999999MA1099865099195REMMET07801/01/25 02:15:02 METAR KMMU 010715Z 00000KT 1SM BR OVC006 06/06 A2949 RMK AO2
0201724097547382025010107357+40800-074417FM-15+0057KMMU V0209999C00005001835MN0048285N5+00605+00605999999ADDAU100001015AW1105GA1085+001835999GD14991+0018359GE19AGL   +99999+99999GF199999999999001831999999MA1099835099165REMMET07801/01/25 02:35:02 METAR KMMU 010735Z 00000KT 3SM BR OVC006 06/06 A2948 RMK AO2
0240724097547382025010107557+40800-074417FM-15+0057KMMU V0209999C00005001835MN0020125N5+0060C+0060C999999ADDAU100001015AW1105GA1085+001835999GD14991+0018359GE19AGL   +99999+99999GF199999999999001831999999MA1099865099195REMMET08201/01/25 02:55:02 METAR KMMU 010755Z 00000KT 1 1/4SM BR OVC006 06/06 A2949 RMK AO2EQDR01    067TMP046R02    067DPT046
0201724097547382025010108157+40800-074417FM-15+0057KMMU V0201905N00155001835MN0064375N5+00605+00605999999ADDAU100001015AW1105GA1085+001835999GD14991+0018359GE19AGL   +99999+99999GF199999999999001831999999MA1099865099195REMMET07801/01/25 03:15:02 METAR KMMU 010815Z 19003KT 4SM BR OVC006 06/06 A2949 RMK AO2
0201724097547382025010108357+40800-074417FM-15+0057KMMU V0209999C00005001835MN0048285N5+00605+00605999999ADDAU100001015AW1105GA1085+001835999GD14991+0018359GE19AGL   +99999+99999GF199999999999001831999999MA1099865099195REMMET07801/01/25 03:35:02 METAR KMMU 010835Z 00000KT 3SM BR OVC006 06/06 A2949 RMK AO2
0236724097547382025010108557+40800-074417FM-15+0057KMMU V0201805N00215001835MN0064375N5+0060C+0060C999999ADDAU100001015AW1105GA1085+001835999GD14991+0018359GE19AGL   +99999+99999GF199999999999001831999999MA1099865099195REMMET07801/01/25 03:55:02 METAR KMMU 010855Z 18004KT 4SM BR OVC006 06/06 A2949 RMK AO2EQDR01    067TMP046R02    067DPT046
0239724097547382025010109157+40800-074417FM-15+0057KMMU V0202005N00155001835MN0064375N5+00605+00605999999ADDAU100001015AW1105GA1075+001835999GA2085+007325999GD13991+0018359GD24991+0073259GE19AGL   +99999+99999GF199999999999001831999999MA1099865099195REMMET08501/01/25 04:15:02 METAR KMMU 010915Z 20003KT 4SM BR BKN006 OVC024 06/06 A2949 RMK AO2
0219724097547382025010109357+40800-074417FM-15+0057KMMU V0202305N00315005495MN0112655N5+00705+00705999999ADDGA1075+005495999GA2085+006715999GD13991+0054959GD24991+0067159GE19AGL   +99999+99999GF199999999999005491999999MA1099865099195REMMET08201/01/25 04:35:02 METAR KMMU 010935Z 23006KT 7SM BKN018 OVC022 07/07 A2949 RMK AO2
0254724097547382025010109557+40800-074417FM-15+0057KMMU V0202205N00265002135MN0112655N5+0070C+0070C999999ADDGA1075+002135999GA2085+005495999GD13991+0021359GD24991+0054959GE19AGL   +99999+99999GF199999999999002131999999MA1099905099225REMMET08201/01/25 04:55:02 METAR KMMU 010955Z 22005KT 7SM BKN007 OVC018 07/07 A2950 RMK AO2EQDR01    077TMP046R02    077DPT046
0181724097547382025010110157+40800-074417FM-15+0057KMMU V0209999C00005001525MN0112655N5+00705+00705999999ADDGA1085+001525999GD14991+0015259GE19AGL   +99999+99999GF199999999999001521999999MA1099905099225REMMET07501/01/25 05:15:02 METAR KMMU 011015Z 00000KT 7SM OVC005 07/07 A2950 RMK AO2
0258724097547382025010110357+40800-074417FM-15+0057KMMU V0202505N00155001525MN0160935N5+00705+00705999999ADDGA1075+001525999GA2075+003055999GA3085+004885999GD13991+0015259GD23991+0030559GD34991+0048859GE19AGL   +99999+99999GF199999999999001521999999MA1099905099225REMMET09001/01/25 05:35:02 METAR KMMU 011035Z 25003KT 10SM BKN005 BKN010 OVC016 07/07 A2950 RMK AO2
0255724097547382025010110557+40800-074417FM-15+0057KMMU V0209999C00005003355MN0160935N5+0070C+0060C999999ADDGA1075+003355999GA2085+004885999GD13991+0033559GD24991+0048859GE19AGL   +99999+99999GF199999999999003351999999MA1099905099225REMMET08301/01/25 05:55:02 METAR KMMU 011055Z 00000KT 10SM BKN011 OVC016 07/06 A2950 RMK AO2EQDR01    077TMP046R02    067DPT046
0182724097547382025010111157+40800-074417FM-15+0057KMMU V0202405N00155003355MN0160935N5+00705+00605999999ADDGA1085+003355999GD14991+0033559GE19AGL   +99999+99999GF199999999999003351999999MA1099905099225REMMET07601/01/25 06:15:02 METAR KMMU 011115Z 24003KT 10SM OVC011 07/06 A2950 RMK AO2
0220724097547382025010111357+40800-074417FM-15+0057KMMU V0202305N00155022865MN0160935N5+00705+00605999999ADDGA1045+003355999GA2085+022865999GD12991+0033559GD24991+0228659GE19AGL   +99999+99999GF199999999999003351999999MA1099935099265REMMET08301/01/25 06:35:02 METAR KMMU 011135Z 23003KT 10SM SCT011 OVC075 07/06 A2951 RMK AO2
0163724097547382025010111454+40799-074415FM-15+005799999V0202701N003110033519N016093199+00701+00701999999ADDGD13991+0033519GD24991+0228619GE19AGL   +99999+99999GF199999999999003351999999MA1099931999999REMMET058METAR KMMU 011145Z 27006KT 10SM BKN011 OVC075 07/07 A2951=
0251724097547382025010111467+40800-074417FM-15+0057KMMU V0202705N00315003355MN0160935N5+0070C+0070C999999ADDGA1075+003355999GA2085+022865999GD13991+0033559GD24991+0228659GE19AGL   +99999+99999GF199999999999003351999999MA1099935099265REMMET07901/01/25 06:46:02 METAR KMMU 011146Z 27006KT 10SM BKN011 OVC075 07/07 A2951 RMKEQDR01    077TMP046R02    077DPT046
0251724097547382025010112467+40800-074417FM-15+0057KMMU V0202605N00365019815MN0160935N5+0070C+0070C999999ADDGA1025+002745999GA2075+019815999GD11991+0027459GD23991+0198159GE19AGL   +99999+99999GF199999999999002741999999MA1099935099265REMMET07901/01/25 07:46:02 METAR KMMU 011246Z 26007KT 10SM FEW009 BKN065 07/07 A2951 RMKEQDR01    077TMP046R02    077DPT046
0229724097547382025010113467+40800-074417FM-15+0057KMMU V0202305N003652200059N0160935N5+0090C+0070C999999ADDGA1045+018295999GD12991+0182959GE19AGL   +99999+99999GF104995999999018291999999MA1099975099295REMMET07201/01/25 08:46:02 METAR KMMU 011346Z 23007KT 10SM SCT060 09/07 A2952 RMKEQDR01    097TMP046R02    077DPT046D01      0ADE726
0262724097547382025010114557+40800-074417FM-15+0057KMMU V0202405N00465021345MN0160935N5+0100C+0070C999999ADDGA1045+007015999GA2075+021345999GD12991+0070159GD23991+0213459GE19AGL   +99999+99999GF199999999999007011999999MA1100035099365OC100725REMMET08201/01/25 09:55:02 METAR KMMU 011455Z 24009G14KT 10SM SCT023 BKN070 10/07 A2954 RMKEQDR01    107TMP046R02    077DPT046
0189724097547382025010115157+40800-074417FM-15+0057KMMU V0202805N00675007015MN0160935N5+01005+00705999999ADDGA1085+007015999GD14991+0070159GE19AGL   +99999+99999GF199999999999007011999999MA1100075099395OC100935REMMET07501/01/25 10:15:02 METAR KMMU 011515Z 28013G18KT 10SM OVC023 10/07 A2955 RMK
0224724097547382025010115457+40800-074417FM-15+0057KMMU V0202705N00575007015MN0160935N5+0090C+0060C999999ADDGA1085+007015999GD14991+0070159GE19AGL   +99999+99999GF199999999999007011999999MA1100075099395OC100935REMMET07501/01/25 10:45:02 METAR KMMU 011545Z 27011G18KT 10SM OVC023 09/06 A2955 RMKEQDR01    097TMP046R02    067DPT046
0262724097547382025010116457+40800-074417FM-15+0057KMMU V0202605N00625006405MN0160935N5+0090C+0050C999999ADDGA1075+006405999GA2085+024385999GD13991+0064059GD24991+0243859GE19AGL   +99999+99999GF199999999999006401999999MA1100075099395OC100985REMMET08201/01/25 11:45:02 METAR KMMU 011645Z 26012G19KT 10SM BKN021 OVC080 09/05 A2955 RMKEQDR01    097TMP046R02    057DPT046
0262724097547382025010117457+40800-074417FM-15+0057KMMU V0202905N00575007625MN0160935N5+0080C+0030C999999ADDGA1075+007625999GA2085+009145999GD13991+0076259GD24991+0091459GE19AGL   +99999+99999GF199999999999007621999999MA1100075099395OC101035REMMET08201/01/25 12:45:02 METAR KMMU 011745Z 29011G20KT 10SM BKN025 OVC030 08/03 A2955 RMKEQDR01    087TMP046R02    037DPT046
0262724097547382025010118557+40800-074417FM-15+0057KMMU V0202805N00885007625MN0160935N5+0070C+0030C999999ADDGA1075+007625999GA2085+008235999GD13991+0076259GD24991+0082359GE19AGL   +99999+99999GF199999999999007621999999MA1100105099435OC101035REMMET08201/01/25 13:55:02 METAR KMMU 011855Z 28017G20KT 10SM BKN025 OVC027 07/03 A2956 RMKEQDR01    077TMP046R02    037DPT046
0239724097547382025010119527+40800-074417FM-15+0057KMMU V0203105N00935007925MN0160935N5+0070C+0020C999999ADDGA1085+007925999GD14991+0079259GD24991+0082319GE19AGL   +99999+99999GF199999999999007621999999MA1100275099595OC101345REMMET07501/01/25 14:52:02 METAR KMMU 011952Z 31018G26KT 10SM OVC026 07/02 A2961 RMKEQDR01    077TMP046R02    027DPT046
0224724097547382025010120567+40800-074417FM-15+0057KMMU V0202805N00825008535MN0160935N5+0060C+0020C999999ADDGA1075+008535999GD13991+0085359GE19AGL   +99999+99999GF199999999999008531999999MA1100415099735OC101085REMMET07501/01/25 15:56:02 METAR KMMU 012056Z 28016G21KT 10SM BKN028 06/02 A2965 RMKEQDR01    067TMP046R02    027DPT046
0224724097547382025010121457+40800-074417FM-15+0057KMMU V0203005N01035010675MN0160935N5+0060C+0010C999999ADDGA1075+010675999GD13991+0106759GE19AGL   +99999+99999GF199999999999010671999999MA1100475099805OC101445REMMET07501/01/25 16:45:02 METAR KMMU 012145Z 30020G28KT 10SM BKN035 06/01 A2967 RMKEQDR01    067TMP046R02    017DPT046
0262724097547382025010122457+40800-074417FM-15+0057KMMU V0203105N00825011895MN0160935N5+0050C+0000C999999ADDGA1075+011895999GA2075+013415999GD13991+0118959GD23991+0134159GE19AGL   +99999+99999GF199999999999011891999999MA1100585099905OC101345REMMET08201/01/25 17:45:02 METAR KMMU 012245Z 31016G26KT 10SM BKN039 BKN044 05/00 A2970 RMKEQDR01    057TMP046R02    007DPT046
0240724097547382025010123507+40800-074417FM-15+0057KMMU V0202905N006752200059N0160935N5+0050C+0010C999999ADDGA1045+013115999GD12991+0131159GE19AGL   +99999+99999GF104995999999013111999999MA1100615099935OC100935REMMET07501/01/25 18:50:02 METAR KMMU 012350Z 29013G18KT 10SM SCT043 05/01 A2971 RMKEQDR01    057TMP046R02    017DPT046D01      0ADE726
0241724097547382025010200537+40800-074417FM-15+0057KMMU V0203405N007252200059N0160935N5+0050C-0030C999999ADDGA1045+013115999GD12991+0131159GE19AGL   +99999+99999GF104995999999013111999999MA1100715100035OC101345REMMET07601/01/25 19:53:01 METAR KMMU 020053Z 34014G26KT 10SM SCT043 05/M03 A2974 RMKEQDR01    057TMP046R02   M037DPT046D01      0ADE726
0241724097547382025010201507+40800-074417FM-15+0057KMMU V0203005N008252200059N0160935N5+0040C-0040C999999ADDGA1025+045725999GD11991+0457259GE19AGL   +99999+99999GF102995999999045721999999MA1100755100065OC101085REMMET07601/01/25 20:50:01 METAR KMMU 020150Z 30016G21KT 10SM FEW150 04/M04 A2975 RMKEQDR01    047TMP046R02   M047DPT046D01      0ADE726
0241724097547382025010202507+40800-074417FM-15+0057KMMU V0202805N005152200059N0160935N5+0040C-0030C999999ADDGA1045+015245999GD12991+0152459GE19AGL   +99999+99999GF104995999999015241999999MA1100815100135OC100885REMMET07601/01/25 21:50:01 METAR KMMU 020250Z 28010G17KT 10SM SCT050 04/M03 A2977 RMKEQDR01    047TMP046R02   M037DPT046D01      0ADE726
0158724097547382025010203357+40800-074417FM-15+0057KMMU V0202405N003652200059N0160935N5+00305-00405999999ADDGA1005+999999999GD10991+9999999GF100991999999999999999999MA1100855100175REMMET07401/01/25 22:35:02 METAR KMMU 020335Z 24007KT 10SM CLR 03/M04 A2978 RMK AO2
0204724097547382025010203557+40800-074417FM-15+0057KMMU V0202405N004652200059N0160935N5+0030C-0030C999999ADDGA1005+999999999GD10991+9999999GF100991999999999999999999MA1100855100175OC100775REMMET07701/01/25 22:55:02 METAR KMMU 020355Z 24009G15KT 10SM CLR 03/M03 A2978 RMK AO2EQDR01    037TMP046R02   M037DPT046
0158724097547382025010204157+40800-074417FM-15+0057KMMU V0202505N004652200059N0160935N5+00305-00305999999ADDGA1005+999999999GD10991+9999999GF100991999999999999999999MA1100855100175REMMET07401/01/25 23:15:02 METAR KMMU 020415Z 25009KT 10SM CLR 03/M03 A2978 RMK AO2
0158724097547382025010204357+40800-074417FM-15+0057KMMU V0202405N004652200059N0160935N5+00305-00405999999ADDGA1005+999999999GD10991+9999999GF100991999999999999999999MA1100885100205REMMET07401/01/25 23:35:02 METAR KMMU 020435Z 24009KT 10SM CLR 03/M04 A2979 RMK AO2
0193724097547382025010204557+40800-074417FM-15+0057KMMU V0202505N003652200059N0160935N5+0030C-0040C999999ADDGA1005+999999999GD10991+9999999GF100991999999999999999999MA1100885100205REMMET07401/01/25 23:55:02 METAR KMMU 020455Z 25007KT 10SM CLR 03/M04 A2979 RMK AO2EQDR01    037TMP046R02   M047DPT046
001572409754738202501020459O+40800-074417SOD  +0057KMMU V020999999999999999999999999999+99999+99999999999ADDAT1AU13BR  5
0158724097547382025010205157+40800-074417FM-15+0057KMMU V0202505N004152200059N0160935N5+00205-00405999999ADDGA1005+999999999GD10991+9999999GF100991999999999999999999MA1100885100205REMMET07401/02/25 00:15:02 METAR KMMU 020515Z 25008KT 10SM CLR 02/M04 A2979 RMK AO2
0202724097547382025010205357+40800-074417FM-15+0057KMMU V0202405N004652200059N0160935N5+00205-00405999999ADDGA1045+014635999GD12991+0146359GE19AGL   +99999+99999GF104995999999014631999999MA1100885100205REMMET07701/02/25 00:35:02 METAR KMMU 020535Z 24009KT 10SM SCT048 02/M04 A2979 RMK AO2EQDD01      0ADE726
0283724097547382025010205557+40800-074417FM-15+0057KMMU V0202405N004652200059N0160935N5+0020C-0040C999999ADDGA1045+014635999GA2045+016765999GD12991+0146359GD22991+0167659GE19AGL   +99999+99999GF104995999999014631999999MA1100915100235OC100775REMMET08701/02/25 00:55:02 METAR KMMU 020555Z 24009G15KT 10SM SCT048 SCT055 02/M04 A2980 RMK AO2EQDR01    027TMP046R02   M047DPT046D01      0ADE726
0169724097547382025010206157+40800-074417FM-15+0057KMMU V0202405N004652200059N0160935N5+00205-00305999999ADDGA1005+999999999GD10991+9999999GF100991999999999999999999MA1100915100235OC100725REMMET07701/02/25 01:15:02 METAR KMMU 020615Z 24009G14KT 10SM CLR 02/M03 A2980 RMK AO2
0169724097547382025010206357+40800-074417FM-15+0057KMMU V0202405N003652200059N0160935N5+00205-00305999999ADDGA1005+999999999GD10991+9999999GF100991999999999999999999MA1100955100275OC100725REMMET07701/02/25 01:35:02 METAR KMMU 020635Z 24007G14KT 10SM CLR 02/M03 A2981 RMK AO2
0229724097547382025010206557+40800-074417FM-15+0057KMMU V0202405N00465016765MN0160935N5+0030C-0030C999999ADDGA1075+016765999GD13991+0167659GE19AGL   +99999+99999GF199999999999016761999999MA1100985100305OC100725REMMET08001/02/25 01:55:02 METAR KMMU 020655Z 24009G14KT 10SM BKN055 03/M03 A2982 RMK AO2EQDR01    037TMP046R02   M037DPT046
0183724097547382025010207157+40800-074417FM-15+0057KMMU V0202405N00515016765MN0160935N5+00305-00305999999ADDGA1085+016765999GD14991+0167659GE19AGL   +99999+99999GF199999999999016761999999MA1100985100305REMMET07701/02/25 02:15:02 METAR KMMU 020715Z 24010KT 10SM OVC055 03/M03 A2982 RMK AO2
0194724097547382025010207357+40800-074417FM-15+0057KMMU V0202405N00725016765MN0160935N5+00305-00305999999ADDGA1085+016765999GD14991+0167659GE19AGL   +99999+99999GF199999999999016761999999MA1101025100335OC100935REMMET08001/02/25 02:35:02 METAR KMMU 020735Z 24014G18KT 10SM OVC055 03/M03 A2983 RMK AO2
0256724097547382025010207557+40800-074417FM-15+0057KMMU V0202505N00515015245MN0160935N5+0030C-0030C999999ADDGA1045+014635999GA2085+015245999GD12991+0146359GD24991+0152459GE19AGL   +99999+99999GF199999999999014631999999MA1101055100375REMMET08401/02/25 02:55:02 METAR KMMU 020755Z 25010KT 10SM SCT048 OVC050 03/M03 A2984 RMK AO2EQDR01    037TMP046R02   M037DPT046
0270724097547382025010208157+40800-074417FM-15+0057KMMU V0202405N00465013115MN0160935N5+00305-00305999999ADDGA1045+010065999GA2075+013115999GA3085+015245999GD12991+0100659GD23991+0131159GD34991+0152459GE19AGL   +99999+99999GF199999999999010061999999MA1101055100375OC100725REMMET09401/02/25 03:15:02 METAR KMMU 020815Z 24009G14KT 10SM SCT033 BKN043 OVC050 03/M03 A2984 RMK AO2
0270724097547382025010208357+40800-074417FM-15+0057KMMU V0202405N00625014025MN0160935N5+00305-00305999999ADDGA1075+014025999GA2075+016765999GA3085+021345999GD13991+0140259GD23991+0167659GD34991+0213459GE19AGL   +99999+99999GF199999999999014021999999MA1101055100375OC100885REMMET09401/02/25 03:35:02 METAR KMMU 020835Z 24012G17KT 10SM BKN046 BKN055 OVC070 03/M03 A2984 RMK AO2
0305724097547382025010208557+40800-074417FM-15+0057KMMU V0202505N00515018295MN0160935N5+0030C-0030C999999ADDGA1045+014335999GA2075+018295999GA3085+021345999GD12991+0143359GD23991+0182959GD34991+0213459GE19AGL   +99999+99999GF199999999999014331999999MA1101055100375OC100775REMMET09401/02/25 03:55:02 METAR KMMU 020855Z 25010G15KT 10SM SCT047 BKN060 OVC070 03/M03 A2984 RMK AO2EQDR01    037TMP046R02   M037DPT046
0270724097547382025010209157+40800-074417FM-15+0057KMMU V0202505N00515021345MN0160935N5+00305-00405999999ADDGA1045+011585999GA2045+013415999GA3085+021345999GD12991+0115859GD22991+0134159GD34991+0213459GE19AGL   +99999+99999GF199999999999011581999999MA1101055100375OC100985REMMET09401/02/25 04:15:02 METAR KMMU 020915Z 25010G19KT 10SM SCT038 SCT044 OVC070 03/M04 A2984 RMK AO2
0251724097547382025010209357+40800-074417FM-15+0057KMMU V0202605N004652200059N0160935N5+00305-00405999999ADDGA1045+016765999GA2045+021345999GD12991+0167659GD22991+0213459GE19AGL   +99999+99999GF104995999999016761999999MA1101085100405OC100885REMMET08701/02/25 04:35:02 METAR KMMU 020935Z 26009G17KT 10SM SCT055 SCT070 03/M04 A2985 RMK AO2EQDD01      0ADE726
0321724097547382025010209557+40800-074417FM-15+0057KMMU V0202505N004652200059N0160935N5+0020C-0050C999999ADDGA1045+015245999GA2045+021345999GA3045+022865999GD12991+0152459GD22991+0213459GD32991+0228659GE19AGL   +99999+99999GF104995999999015241999999MA1101125100445OC100775REMMET09401/02/25 04:55:02 METAR KMMU 020955Z 25009G15KT 10SM SCT050 SCT070 SCT075 02/M05 A2986 RMK AO2EQDR01    027TMP046R02   M057DPT046D01      0ADE726
0213724097547382025010210157+40800-074417FM-15+0057KMMU V0202405N006752200059N0160935N5+00205-00505999999ADDGA1045+015245999GD12991+0152459GE19AGL   +99999+99999GF104995999999015241999999MA1101125100445OC100935REMMET08001/02/25 05:15:02 METAR KMMU 021015Z 24013G18KT 10SM SCT050 02/M05 A2986 RMK AO2EQDD01      0ADE726
0213724097547382025010210357+40800-074417FM-15+0057KMMU V0202305N006752200059N0160935N5+00205-00505999999ADDGA1045+015245999GD12991+0152459GE19AGL   +99999+99999GF104995999999015241999999MA1101155100475OC100825REMMET08001/02/25 05:35:02 METAR KMMU 021035Z 23013G16KT 10SM SCT050 02/M05 A2987 RMK AO2EQDD01      0ADE726
0204724097547382025010210557+40800-074417FM-15+0057KMMU V0202405N005752200059N0160935N5+0020C-0050C999999ADDGA1005+999999999GD10991+9999999GF100991999999999999999999MA1101155100475OC100825REMMET07701/02/25 05:55:02 METAR KMMU 021055Z 24011G16KT 10SM CLR 02/M05 A2987 RMK AO2EQDR01    027TMP046R02   M057DPT046
0169724097547382025010211157+40800-074417FM-15+0057KMMU V0202405N005152200059N0160935N5+00205-00505999999ADDGA1005+999999999GD10991+9999999GF100991999999999999999999MA1101195100505OC100825REMMET07701/02/25 06:15:02 METAR KMMU 021115Z 24010G16KT 10SM CLR 02/M05 A2988 RMK AO2
0169724097547382025010211357+40800-074417FM-15+0057KMMU V0202405N007252200059N0160935N5+00205-00605999999ADDGA1005+999999999GD10991+9999999GF100991999999999999999999MA1101195100505OC101035REMMET07701/02/25 06:35:02 METAR KMMU 021135Z 24014G20KT 10SM CLR 02/M06 A2988 RMK AO2
0172724097547382025010211454+40799-074415FM-15+005799999V0202801N005712200059N016093199+00201-00501999999ADDGD12991+0609619GE19AGL   +99999+99999GF104995999999060961999999MA1101221999999OC101131REMMET055METAR KMMU 021145Z 28011G22KT 10SM SCT200 02/M05 A2989=EQDD01      0ADE726
0241724097547382025010211467+40800-074417FM-15+0057KMMU V0202805N005752200059N0160935N5+0020C-0050C999999ADDGA1045+060965999GD12991+0609659GE19AGL   +99999+99999GF104995999999060961999999MA1101225100545OC101135REMMET07601/02/25 06:46:02 METAR KMMU 021146Z 28011G22KT 10SM SCT200 02/M05 A2989 RMKEQDR01    027TMP046R02   M057DPT046D01      0ADE726
0241724097547382025010212457+40800-074417FM-15+0057KMMU V0202705N004652200059N0160935N5+0020C-0050C999999ADDGA1045+060965999GD12991+0609659GE19AGL   +99999+99999GF104995999999060961999999MA1101295100605OC100885REMMET07601/02/25 07:45:02 METAR KMMU 021245Z 27009G17KT 10SM SCT200 02/M05 A2991 RMKEQDR01    027TMP046R02   M057DPT046D01      0ADE726
0241724097547382025010213457+40800-074417FM-15+0057KMMU V0202705N008252200059N0160935N5+0030C-0050C999999ADDGA1045+060965999GD12991+0609659GE19AGL   +99999+99999GF104995999999060961999999MA1101355100675OC101085REMMET07601/02/25 08:45:02 METAR KMMU 021345Z 27016G21KT 10SM SCT200 03/M05 A2993 RMKEQDR01    037TMP046R02   M057DPT046D01      0ADE726
0194724097547382025010214454+40799-074415FM-15+005799999V0202901N008812200059N016093199+00401-00401999999ADDGD12991+0304819GD22991+0609619GE19AGL   +99999+99999GF104995999999030481999999MA1101461999999OC101491REMMET062METAR KMMU 021445Z 29017G29KT 10SM SCT100 SCT200 04/M04 A2996=EQDD01      0ADE726
0279724097547382025010214467+40800-074417FM-15+0057KMMU V0202905N008852200059N0160935N5+0040C-0040C999999ADDGA1045+030485999GA2045+060965999GD12991+0304859GD22991+0609659GE19AGL   +99999+99999GF104995999999030481999999MA1101465100775OC101495REMMET08301/02/25 09:46:02 METAR KMMU 021446Z 29017G29KT 10SM SCT100 SCT200 04/M04 A2996 RMKEQDR01    047TMP046R02   M047DPT046D01      0ADE726
0225724097547382025010215507+40800-074417FM-15+0057KMMU V0202805N00885015245MN0160935N5+0050C-0050C999999ADDGA1075+015245999GD13991+0152459GE19AGL   +99999+99999GF199999999999015241999999MA1101465100775OC101495REMMET07601/02/25 10:50:02 METAR KMMU 021550Z 28017G29KT 10SM BKN050 05/M05 A2996 RMKEQDR01    057TMP046R02   M057DPT046
0153724097547382025010216504+40799-074415FM-15+005799999V0202901N006710152419N016093199+00601-00501999999ADDGD13991+0152419GE19AGL   +99999+99999GF199999999999015241999999MA1101351999999OC101441REMMET055METAR KMMU 021650Z 29013G28KT 10SM BKN050 06/M05 A2993=
0225724097547382025010216517+40800-074417FM-15+0057KMMU V0202905N00675015245MN0160935N5+0060C-0050C999999ADDGA1075+015245999GD13991+0152459GE19AGL   +99999+99999GF199999999999015241999999MA1101355100675OC101445REMMET07601/02/25 11:51:02 METAR KMMU 021651Z 29013G28KT 10SM BKN050 06/M05 A2993 RMKEQDR01    067TMP046R02   M057DPT046
0225724097547382025010217457+40800-074417FM-15+0057KMMU V0203005N00725015245MN0160935N5+0050C-0060C999999ADDGA1075+015245999GD13991+0152459GE19AGL   +99999+99999GF199999999999015241999999MA1101395100705OC101345REMMET07601/02/25 12:45:02 METAR KMMU 021745Z 30014G26KT 10SM BKN050 05/M06 A2994 RMKEQDR01    057TMP046R02   M067DPT046
0263724097547382025010218457+40800-074417FM-15+0057KMMU V0202905N00675016765MN0160935N5+0040C-0060C999999ADDGA1075+016765999GA2085+021345999GD13991+0167659GD24991+0213459GE19AGL   +99999+99999GF199999999999016761999999MA1101355100675OC101245REMMET08301/02/25 13:45:02 METAR KMMU 021845Z 29013G24KT 10SM BKN055 OVC070 04/M06 A2993 RMKEQDR01    047TMP046R02   M067DPT046
0263724097547382025010219457+40800-074417FM-15+0057KMMU V0202805N00825016765MN0160935N5+0040C-0060C999999ADDGA1075+016765999GA2085+018295999GD13991+0167659GD24991+0182959GE19AGL   +99999+99999GF199999999999016761999999MA1101355100675OC101345REMMET08301/02/25 14:45:02 METAR KMMU 021945Z 28016G26KT 10SM BKN055 OVC060 04/M06 A2993 RMKEQDR01    047TMP046R02   M067DPT046
0225724097547382025010220507+40800-074417FM-15+0057KMMU V0202705N00775016765MN0160935N5+0030C-0070C999999ADDGA1075+016765999GD13991+0167659GE19AGL   +99999+99999GF199999999999016761999999MA1101465100775OC101245REMMET07601/02/25 15:50:02 METAR KMMU 022050Z 27015G24KT 10SM BKN055 03/M07 A2996 RMKEQDR01    037TMP046R02   M077DPT046
0225724097547382025010221457+40800-074417FM-15+0057KMMU V0202905N00515016765MN0160935N5+0030C-0070C999999ADDGA1075+016765999GD13991+0167659GE19AGL   +99999+99999GF199999999999016761999999MA1101495100815OC100985REMMET07601/02/25 16:45:02 METAR KMMU 022145Z 29010G19KT 10SM BKN055 03/M07 A2997 RMKEQDR01    037TMP046R02   M077DPT046
0263724097547382025010222457+40800-074417FM-15+0057KMMU V0202705N00515021345MN0160935N5+0020C-0070C999999ADDGA1045+015245999GA2075+021345999GD12991+0152459GD23991+0213459GE19AGL   +99999+99999GF199999999999015241999999MA1101495100815OC101185REMMET08301/02/25 17:45:02 METAR KMMU 022245Z 27010G23KT 10SM SCT050 BKN070 02/M07 A2997 RMKEQDR01    027TMP046R02   M077DPT046
0241724097547382025010223557+40800-074417FM-15+0057KMMU V0202605N005752200059N0160935N5+0020C-0070C999999ADDGA1045+013725999GD12991+0137259GE19AGL   +99999+99999GF104995999999013721999999MA1101525100845OC100985REMMET07601/02/25 18:55:02 METAR KMMU 022355Z 26011G19KT 10SM SCT045 02/M07 A2998 RMKEQDR01    027TMP046R02   M077DPT046D01      0ADE726
0241724097547382025010300457+40800-074417FM-15+0057KMMU V0202705N004652200059N0160935N5+0010C-0080C999999ADDGA1025+015245999GD11991+0152459GE19AGL   +99999+99999GF102995999999015241999999MA1101565100875OC100935REMMET07601/02/25 19:45:01 METAR KMMU 030045Z 27009G18KT 10SM FEW050 01/M08 A2999 RMKEQDR01    017TMP046R02   M087DPT046D01      0ADE726
0241724097547382025010301457+40800-074417FM-15+0057KMMU V0202905N006752200059N0160935N5+0010C-0070C999999ADDGA1045+015245999GD12991+0152459GE19AGL   +99999+99999GF104995999999015241999999MA1101565100875OC101035REMMET07601/02/25 20:45:01 METAR KMMU 030145Z 29013G20KT 10SM SCT050 01/M07 A2999 RMKEQDR01    017TMP046R02   M077DPT046D01      0ADE726
0225724097547382025010302507+40800-074417FM-15+0057KMMU V0202705N00625018295MN0160935N5+0010C-0070C999999ADDGA1085+018295999GD14991+0182959GE19AGL   +99999+99999GF199999999999018291999999MA1101565100875OC100935REMMET07601/02/25 21:50:01 METAR KMMU 030250Z 27012G18KT 10SM OVC060 01/M07 A2999 RMKEQDR01    017TMP046R02   M077DPT046
0194724097547382025010303357+40800-074417FM-15+0057KMMU V0202505N00515018295MN0160935N5+00005-00805999999ADDGA1085+018295999GD14991+0182959GE19AGL   +99999+99999GF199999999999018291999999MA1101525100845OC100825REMMET08001/02/25 22:35:02 METAR KMMU 030335Z 25010G16KT 10SM OVC060 00/M08 A2998 RMK AO2
0256724097547382025010303557+40800-074417FM-15+0057KMMU V0202605N00465018295MN0160935N5+0000C-0080C999999ADDGA1045+013115999GA2075+018295999GD12991+0131159GD23991+0182959GE19AGL   +99999+99999GF199999999999013111999999MA1101525100845REMMET08401/02/25 22:55:02 METAR KMMU 030355Z 26009KT 10SM SCT043 BKN060 00/M08 A2998 RMK AO2EQDR01    007TMP046R02   M087DPT046
0240724097547382025010304157+40800-074417FM-15+0057KMMU V0202605N004152200059N0160935N5+00005-00805999999ADDGA1045+013725999GA2045+018295999GD12991+0137259GD22991+0182959GE19AGL   +99999+99999GF104995999999013721999999MA1101525100845REMMET08401/02/25 23:15:02 METAR KMMU 030415Z 26008KT 10SM SCT045 SCT060 00/M08 A2998 RMK AO2EQDD01      0ADE726
0270724097547382025010304357+40800-074417FM-15+0057KMMU V0202505N00465018295MN0160935N5+00005-00805999999ADDGA1045+013725999GA2075+018295999GA3075+021345999GD12991+0137259GD23991+0182959GD33991+0213459GE19AGL   +99999+99999GF199999999999013721999999MA1101525100845OC100775REMMET09401/02/25 23:35:02 METAR KMMU 030435Z 25009G15KT 10SM SCT045 BKN060 BKN070 00/M08 A2998 RMK AO2
0322724097547382025010304557+40800-074417FM-15+0057KMMU V0202405N005152200059N0160935N5+0000C-0080C999999ADDGA1045+011285999GA2045+014945999GA3045+018295999GD12991+0112859GD22991+0149459GD32991+0182959GE19AGL   +99999+99999GF104995999999011281999999MA1101525100845OC100725REMMET09501/02/25 23:55:02 METAR KMMU 030455Z 24010G14KT 10SM SCT037 SCT049 SCT060 M00/M08 A2998 RMK AO2EQDR01   M007TMP046R02   M087DPT046D01      0ADE726
0270724097547382025010305157+40800-074417FM-15+0057KMMU V0202505N00315016765MN0160935N5+00005-00805999999ADDGA1045+012805999GA2045+015245999GA3075+016765999GD12991+0128059GD22991+0152459GD33991+0167659GE19AGL   +99999+99999GF199999999999012801999999MA1101525100845OC100775REMMET09401/03/25 00:15:02 METAR KMMU 030515Z 25006G15KT 10SM SCT042 SCT050 BKN055 00/M08 A2998 RMK AO2
0259724097547382025010305357+40800-074417FM-15+0057KMMU V0202405N00315018295MN0160935N5+00005-00805999999ADDGA1045+013415999GA2045+015245999GA3085+018295999GD12991+0134159GD22991+0152459GD34991+0182959GE19AGL   +99999+99999GF199999999999013411999999MA1101525100845REMMET09101/03/25 00:35:02 METAR KMMU 030535Z 24006KT 10SM SCT044 SCT050 OVC060 00/M08 A2998 RMK AO2
0229724097547382025010305557+40800-074417FM-15+0057KMMU V0202505N00415015245MN0160935N5+0000C-0080C999999ADDGA1085+015245999GD14991+0152459GE19AGL   +99999+99999GF199999999999015241999999MA1101525100845OC100825REMMET08001/03/25 00:55:02 METAR KMMU 030555Z 25008G16KT 10SM OVC050 00/M08 A2998 RMK AO2EQDR01    007TMP046R02   M087DPT046
0183724097547382025010306157+40800-074417FM-15+0057KMMU V0202505N00315018295MN0160935N5+00005-00805999999ADDGA1085+018295999GD14991+0182959GE19AGL   +99999+99999GF199999999999018291999999MA1101525100845REMMET07701/03/25 01:15:02 METAR KMMU 030615Z 25006KT 10SM OVC060 00/M08 A2998 RMK AO2
0202724097547382025010306357+40800-074417FM-15+0057KMMU V0202505N005152200059N0160935N5+00005-00905999999ADDGA1045+018295999GD12991+0182959GE19AGL   +99999+99999GF104995999999018291999999MA1101525100845REMMET07701/03/25 01:35:02 METAR KMMU 030635Z 25010KT 10SM SCT060 00/M09 A2998 RMK AO2EQDD01      0ADE726
0218724097547382025010306557+40800-074417FM-15+0057KMMU V0202405N00515018295MN0160935N5+0000C-0090C999999ADDGA1075+018295999GD13991+0182959GE19AGL   +99999+99999GF199999999999018291999999MA1101525100845REMMET07701/03/25 01:55:02 METAR KMMU 030655Z 24010KT 10SM BKN060 00/M09 A2998 RMK AO2EQDR01    007TMP046R02   M097DPT046
0183724097547382025010307157+40800-074417FM-15+0057KMMU V0202505N00365018295MN0160935N5+00005-00905999999ADDGA1085+018295999GD14991+0182959GE19AGL   +99999+99999GF199999999999018291999999MA1101525100845REMMET07701/03/25 02:15:02 METAR KMMU 030715Z 25007KT 10SM OVC060 00/M09 A2998 RMK AO2
0183724097547382025010307357+40800-074417FM-15+0057KMMU V0202505N00365015245MN0160935N5+00005-00905999999ADDGA1085+015245999GD14991+0152459GE19AGL   +99999+99999GF199999999999015241999999MA1101525100845REMMET07701/03/25 02:35:02 METAR KMMU 030735Z 25007KT 10SM OVC050 00/M09 A2998 RMK AO2
0218724097547382025010307557+40800-074417FM-15+0057KMMU V0202605N00315015245MN0160935N5+0000C-0090C999999ADDGA1085+015245999GD14991+0152459GE19AGL   +99999+99999GF199999999999015241999999MA1101565100875REMMET07701/03/25 02:55:02 METAR KMMU 030755Z 26006KT 10SM OVC050 00/M09 A2999 RMK AO2EQDR01    007TMP046R02   M097DPT046
0194724097547382025010308157+40800-074417FM-15+0057KMMU V0202505N00465015245MN0160935N5+00005-00905999999ADDGA1085+015245999GD14991+0152459GE19AGL   +99999+99999GF199999999999015241999999MA1101525100845OC100725REMMET08001/03/25 03:15:02 METAR KMMU 030815Z 25009G14KT 10SM OVC050 00/M09 A2998 RMK AO2
0183724097547382025010308357+40800-074417FM-15+0057KMMU V0202605N00465015245MN0160935N5+00005-00905999999ADDGA1085+015245999GD14991+0152459GE19AGL   +99999+99999GF199999999999015241999999MA1101525100845REMMET07701/03/25 03:35:02 METAR KMMU 030835Z 26009KT 10SM OVC050 00/M09 A2998 RMK AO2
0218724097547382025010308557+40800-074417FM-15+0057KMMU V0202305N00365015245MN0160935N5+0000C-0080C999999ADDGA1085+015245999GD14991+0152459GE19AGL   +99999+99999GF199999999999015241999999MA1101525100845REMMET07701/03/25 03:55:02 METAR KMMU 030855Z 23007KT 10SM OVC050 00/M08 A2998 RMK AO2EQDR01    007TMP046R02   M087DPT046
0183724097547382025010309157+40800-074417FM-15+0057KMMU V0202505N00625015245MN0160935N5+00005-00705999999ADDGA1085+015245999GD14991+0152459GE19AGL   +99999+99999GF199999999999015241999999MA1101525100845REMMET07701/03/25 04:15:02 METAR KMMU 030915Z 25012KT 10SM OVC050 00/M07 A2998 RMK AO2
0221724097547382025010309357+40800-074417FM-15+0057KMMU V0202605N00465015245MN0160935N5+00005-00705999999ADDGA1045+013415999GA2085+015245999GD12991+0134159GD24991+0152459GE19AGL   +99999+99999GF199999999999013411999999MA1101525100845REMMET08401/03/25 04:35:02 METAR KMMU 030935Z 26009KT 10SM SCT044 OVC050 00/M07 A2998 RMK AO2
0229724097547382025010309557+40800-074417FM-15+0057KMMU V0202505N00315015245MN0160935N5+0000C-0070C999999ADDGA1085+015245999GD14991+0152459GE19AGL   +99999+99999GF199999999999015241999999MA1101525100845OC100885REMMET08001/03/25 04:55:02 METAR KMMU 030955Z 25006G17KT 10SM OVC050 00/M07 A2998 RMK AO2EQDR01    007TMP046R02   M077DPT046
0183724097547382025010310157+40800-074417FM-15+0057KMMU V0202405N00415015245MN0160935N5+00005-00705999999ADDGA1085+015245999GD14991+0152459GE19AGL   +99999+99999GF199999999999015241999999MA1101525100845REMMET07701/03/25 05:15:02 METAR KMMU 031015Z 24008KT 10SM OVC050 00/M07 A2998 RMK AO2
0183724097547382025010310357+40800-074417FM-15+0057KMMU V0202505N00365015245MN0160935N5+00005-00705999999ADDGA1085+015245999GD14991+0152459GE19AGL   +99999+99999GF199999999999015241999999MA1101495100815REMMET07701/03/25 05:35:02 METAR KMMU 031035Z 25007KT 10SM OVC050 00/M07 A2997 RMK AO2
0218724097547382025010310557+40800-074417FM-15+0057KMMU V0202505N00315015245MN0160935N5+0000C-0070C999999ADDGA1085+015245999GD14991+0152459GE19AGL   +99999+99999GF199999999999015241999999MA1101495100815REMMET07701/03/25 05:55:02 METAR KMMU 031055Z 25006KT 10SM OVC050 00/M07 A2997 RMK AO2EQDR01    007TMP046R02   M077DPT046
0183724097547382025010311157+40800-074417FM-15+0057KMMU V0202405N00315014635MN0160935N5+00005-00805999999ADDGA1085+014635999GD14991+0146359GE19AGL   +99999+99999GF199999999999014631999999MA1101465100775REMMET07701/03/25 06:15:02 METAR KMMU 031115Z 24006KT 10SM OVC048 00/M08 A2996 RMK AO2
0183724097547382025010311357+40800-074417FM-15+0057KMMU V0202405N00365014635MN0160935N5+00005-00805999999ADDGA1085+014635999GD14991+0146359GE19AGL   +99999+99999GF199999999999014631999999MA1101465100775REMMET07701/03/25 06:35:02 METAR KMMU 031135Z 24007KT 10SM OVC048 00/M08 A2996 RMK AO2
0142724097547382025010311454+40799-074415FM-15+005799999V0202701N003610152419N016093199+00001-00701999999ADDGD13991+0152419GE19AGL   +99999+99999GF199999999999015241999999MA1101491999999REMMET052METAR KMMU 031145Z 27007KT 10SM BKN050 00/M07 A2997=
0214724097547382025010311467+40800-074417FM-15+0057KMMU V0202705N00365015245MN0160935N5+0000C-0070C999999ADDGA1075+015245999GD13991+0152459GE19AGL   +99999+99999GF199999999999015241999999MA1101495100815REMMET07301/03/25 06:46:02 METAR KMMU 031146Z 27007KT 10SM BKN050 00/M07 A2997 RMKEQDR01    007TMP046R02   M077DPT046
0161724097547382025010312464+40799-074415FM-15+005799999V0202601N003612200059N016093199+00001-00701999999ADDGD12991+0152419GE19AGL   +99999+99999GF104995999999015241999999MA1101421999999REMMET052METAR KMMU 031246Z 26007KT 10SM SCT050 00/M07 A2995=EQDD01      0ADE726
0230724097547382025010312507+40800-074417FM-15+0057KMMU V0202605N003652200059N0160935N5+0000C-0070C999999ADDGA1045+015245999GD12991+0152459GE19AGL   +99999+99999GF104995999999015241999999MA1101425100745REMMET07301/03/25 07:50:02 METAR KMMU 031250Z 26007KT 10SM SCT050 00/M07 A2995 RMKEQDR01    007TMP046R02   M077DPT046D01      0ADE726
0230724097547382025010313457+40800-074417FM-15+0057KMMU V0202705N005152200059N0160935N5+0010C-0080C999999ADDGA1045+015245999GD12991+0152459GE19AGL   +99999+99999GF104995999999015241999999MA1101425100745REMMET07301/03/25 08:45:02 METAR KMMU 031345Z 27010KT 10SM SCT050 01/M08 A2995 RMKEQDR01    017TMP046R02   M087DPT046D01      0ADE726
0279724097547382025010314507+40800-074417FM-15+0057KMMU V0203005N006252200059N0160935N5+0020C-0080C999999ADDGA1045+015245999GA2045+030485999GD12991+0152459GD22991+0304859GE19AGL   +99999+99999GF104995999999015241999999MA1101395100705OC101135REMMET08301/03/25 09:50:02 METAR KMMU 031450Z 30012G22KT 10SM SCT050 SCT100 02/M08 A2994 RMKEQDR01    027TMP046R02   M087DPT046D01      0ADE726
0241724097547382025010315457+40800-074417FM-15+0057KMMU V0202905N004652200059N0160935N5+0030C-0070C999999ADDGA1045+013725999GD12991+0137259GE19AGL   +99999+99999GF104995999999013721999999MA1101325100645OC100825REMMET07601/03/25 10:45:02 METAR KMMU 031545Z 29009G16KT 10SM SCT045 03/M07 A2992 RMKEQDR01    037TMP046R02   M077DPT046D01      0ADE726
0194724097547382025010316454+40799-074415FM-15+005799999V0202601N005712200059N016093199+00301-00701999999ADDGD12991+0137219GD22991+0457219GE19AGL   +99999+99999GF104995999999013721999999MA1101151999999OC100881REMMET062METAR KMMU 031645Z 26011G17KT 10SM SCT045 SCT150 03/M07 A2987=EQDD01      0ADE726
0194724097547382025010316464+40799-074415FM-15+005799999V0202601N005712200059N016093199+00301-00701999999ADDGD12991+0137219GD22991+0457219GE19AGL   +99999+99999GF104995999999013721999999MA1101151999999OC100881REMMET062METAR KMMU 031646Z 26011G17KT 10SM SCT045 SCT150 03/M07 A2987=EQDD01      0ADE726
0279724097547382025010316477+40800-074417FM-15+0057KMMU V0202605N005752200059N0160935N5+0030C-0070C999999ADDGA1045+013725999GA2045+045725999GD12991+0137259GD22991+0457259GE19AGL   +99999+99999GF104995999999013721999999MA1101155100475OC100885REMMET08301/03/25 11:47:02 METAR KMMU 031647Z 26011G17KT 10SM SCT045 SCT150 03/M07 A2987 RMKEQDR01    037TMP046R02   M077DPT046D01      0ADE726
0241724097547382025010317457+40800-074417FM-15+0057KMMU V0202605N006252200059N0160935N5+0030C-0070C999999ADDGA1045+013725999GD12991+0137259GE19AGL   +99999+99999GF104995999999013721999999MA1101025100335OC100935REMMET07601/03/25 12:45:02 METAR KMMU 031745Z 26012G18KT 10SM SCT045 03/M07 A2983 RMKEQDR01    037TMP046R02   M077DPT046D01      0ADE726
0279724097547382025010318457+40800-074417FM-15+0057KMMU V0202905N007252200059N0160935N5+0040C-0070C999999ADDGA1045+014335999GA2045+018295999GD12991+0143359GD22991+0182959GE19AGL   +99999+99999GF104995999999014331999999MA1100915100235OC100935REMMET08301/03/25 13:45:02 METAR KMMU 031845Z 29014G18KT 10SM SCT047 SCT060 04/M07 A2980 RMKEQDR01    047TMP046R02   M077DPT046D01      0ADE726
0252724097547382025010319457+40800-074417FM-15+0057KMMU V0202605N00575076205MN0160935N5+0030C-0070C999999ADDGA1045+013725999GA2075+076205999GD12991+0137259GD23991+0762059GE19AGL   +99999+99999GF199999999999013721999999MA1100915100235REMMET08001/03/25 14:45:02 METAR KMMU 031945Z 26011KT 10SM SCT045 BKN250 03/M07 A2980 RMKEQDR01    037TMP046R02   M077DPT046
0252724097547382025010320457+40800-074417FM-15+0057KMMU V0202605N00415076205MN0160935N5+0020C-0070C999999ADDGA1045+014335999GA2075+076205999GD12991+0143359GD23991+0762059GE19AGL   +99999+99999GF199999999999014331999999MA1100915100235REMMET08001/03/25 15:45:02 METAR KMMU 032045Z 26008KT 10SM SCT047 BKN250 02/M07 A2980 RMKEQDR01    027TMP046R02   M077DPT046
0290724097547382025010321457+40800-074417FM-15+0057KMMU V0202805N00415030485MN0160935N5+0010C-0060C999999ADDGA1045+015245999GA2045+024385999GA3075+030485999GD12991+0152459GD22991+0243859GD33991+0304859GE19AGL   +99999+99999GF199999999999015241999999MA1100955100275REMMET08701/03/25 16:45:02 METAR KMMU 032145Z 28008KT 10SM SCT050 SCT080 BKN100 01/M06 A2981 RMKEQDR01    017TMP046R02   M067DPT046
0252724097547382025010322557+40800-074417FM-15+0057KMMU V0202805N00415022865MN0160935N5+0000C-0050C999999ADDGA1045+015245999GA2075+022865999GD12991+0152459GD23991+0228659GE19AGL   +99999+99999GF199999999999015241999999MA1100985100305REMMET08001/03/25 17:55:02 METAR KMMU 032255Z 28008KT 10SM SCT050 BKN075 00/M05 A2982 RMKEQDR01    007TMP046R02   M057DPT046
0215724097547382025010323567+40800-074417FM-15+0057KMMU V0202605N00265025915MN0160935N5-0010C-0040C999999ADDGA1085+025915999GD14991+0259159GE19AGL   +99999+99999GF199999999999025911999999MA1100955100275REMMET07401/03/25 18:56:02 METAR KMMU 032356Z 26005KT 10SM OVC085 M01/M04 A2981 RMKEQDR01   M017TMP046R02   M047DPT046
0231724097547382025010400457+40800-074417FM-15+0057KMMU V0202505N002652200059N0160935N5-0010C-0050C999999ADDGA1025+025915999GD11991+0259159GE19AGL   +99999+99999GF102995999999025911999999MA1100955100275REMMET07401/03/25 19:45:01 METAR KMMU 040045Z 25005KT 10SM FEW085 M01/M05 A2981 RMKEQDR01   M017TMP046R02   M057DPT046D01      0ADE726
0222724097547382025010401457+40800-074417FM-15+0057KMMU V0202505N002152200079N0160935N5-0020C-0050C999999ADDGA1007+999999999GD10991+9999999GF100991999999999999999999MA1100915100235REMMET07101/03/25 20:45:01 METAR KMMU 040145Z 25004KT 10SM SKC M02/M05 A2980 RMKEQDR01   SKC7SKY009R02   M027TMP046R03   M057DPT046R04   SKC7GAS009
0162724097547382025010402454+40799-074415FM-15+005799999V0202601N002612200059N016093199-00201-00501999999ADDGD12991+0304819GE19AGL   +99999+99999GF104995999999030481999999MA1100881999999REMMET053METAR KMMU 040245Z 26005KT 10SM SCT100 M02/M05 A2979=EQDD01      0ADE726
0231724097547382025010402467+40800-074417FM-15+0057KMMU V0202605N002652200059N0160935N5-0020C-0050C999999ADDGA1045+030485999GD12991+0304859GE19AGL   +99999+99999GF104995999999030481999999MA1100885100205REMMET07401/03/25 21:46:01 METAR KMMU 040246Z 26005KT 10SM SCT100 M02/M05 A2979 RMKEQDR01   M027TMP046R02   M057DPT046D01      0ADE726
0195724097547382025010403357+40800-074417FM-15+0057KMMU V0202605N00215036585MN0160935N5-00205-00705999999ADDGA1075+036585999GD13991+0365859GE19AGL   +99999+99999GF199999999999036581999999MA1100855100175REMMET08901/03/25 22:35:02 METAR KMMU 040335Z 26004KT 10SM BKN120 M02/M07 A2978 RMK AO2 LTG DSNT S
0235724097547382025010403557+40800-074417FM-15+0057KMMU V0202705N004152200059N0160935N5-0020C-0080C999999ADDGA1045+036585999GD12991+0365859GE19AGL   +99999+99999GF104995999999036581999999MA1100855100175REMMET07801/03/25 22:55:02 METAR KMMU 040355Z 27008KT 10SM SCT120 M02/M08 A2978 RMK AO2EQDR01   M027TMP046R02   M087DPT046D01      0ADE726
0170724097547382025010404157+40800-074417FM-15+0057KMMU V0202805N005752200059N0160935N5-00205-00805999999ADDGA1005+999999999GD10991+9999999GF100991999999999999999999MA1100855100175OC100885REMMET07801/03/25 23:15:02 METAR KMMU 040415Z 28011G17KT 10SM CLR M02/M08 A2978 RMK AO2
0159724097547382025010404357+40800-074417FM-15+0057KMMU V0202905N005152200059N0160935N5-00205-00905999999ADDGA1005+999999999GD10991+9999999GF100991999999999999999999MA1100815100135REMMET07501/03/25 23:35:02 METAR KMMU 040435Z 29010KT 10SM CLR M02/M09 A2977 RMK AO2
0194724097547382025010404557+40800-074417FM-15+0057KMMU V0202905N003152200059N0160935N5-0020C-0090C999999ADDGA1005+999999999GD10991+9999999GF100991999999999999999999MA1100815100135REMMET07501/03/25 23:55:02 METAR KMMU 040455Z 29006KT 10SM CLR M02/M09 A2977 RMK AO2EQDR01   M027TMP046R02   M097DPT046
0159724097547382025010405157+40800-074417FM-15+0057KMMU V0202805N004152200059N0160935N5-00205-00905999999ADDGA1005+999999999GD10991+9999999GF100991999999999999999999MA1100815100135REMMET07501/04/25 00:15:02 METAR KMMU 040515Z 28008KT 10SM CLR M02/M09 A2977 RMK AO2
0214724097547382025010405357+40800-074417FM-15+0057KMMU V0202705N004152200059N0160935N5-00205-00905999999ADDGA1045+014335999GD12991+0143359GE19AGL   +99999+99999GF104995999999014331999999MA1100815100135REMMET08901/04/25 00:35:02 METAR KMMU 040535Z 27008KT 10SM SCT047 M02/M09 A2977 RMK AO2 LTG DSNT SEQDD01      0ADE726
0284724097547382025010405557+40800-074417FM-15+0057KMMU V0202905N003652200059N0160935N5-0020C-0100C999999ADDGA1045+014335999GA2045+018295999GD12991+0143359GD22991+0182959GE19AGL   +99999+99999GF104995999999014331999999MA1100815100135OC100775REMMET08801/04/25 00:55:02 METAR KMMU 040555Z 29007G15KT 10SM SCT047 SCT060 M02/M10 A2977 RMK AO2EQDR01   M027TMP046R02   M107DPT046D01      0ADE726
0203724097547382025010406157+40800-074417FM-15+0057KMMU V0202905V003652200059N0160935N5-00205-01005999999ADDGA1045+018295999GD12991+0182959GE19AGL   +99999+99999GF104995999999018291999999MA1100815100135REMMET07801/04/25 01:15:02 METAR KMMU 040615Z 29007KT 10SM SCT060 M02/M10 A2977 RMK AO2EQDD01      0ADE726
0222724097547382025010406357+40800-074417FM-15+0057KMMU V0202805N00265018295MN0160935N5-00205-01005999999ADDGA1045+015245999GA2075+018295999GD12991+0152459GD23991+0182959GE19AGL   +99999+99999GF199999999999015241999999MA1100815100135REMMET08501/04/25 01:35:02 METAR KMMU 040635Z 28005KT 10SM SCT050 BKN060 M02/M10 A2977 RMK AO2
0257724097547382025010406557+40800-074417FM-15+0057KMMU V0202605N00265018295MN0160935N5-0020C-0100C999999ADDGA1045+015245999GA2085+018295999GD12991+0152459GD24991+0182959GE19AGL   +99999+99999GF199999999999015241999999MA1100815100135REMMET08501/04/25 01:55:02 METAR KMMU 040655Z 26005KT 10SM SCT050 OVC060 M02/M10 A2977 RMK AO2EQDR01   M027TMP046R02   M107DPT046
0184724097547382025010407157+40800-074417FM-15+0057KMMU V0202605N00365018295MN0160935N5-00105-01005999999ADDGA1085+018295999GD14991+0182959GE19AGL   +99999+99999GF199999999999018291999999MA1100815100135REMMET07801/04/25 02:15:02 METAR KMMU 040715Z 26007KT 10SM OVC060 M01/M10 A2977 RMK AO2
0222724097547382025010407357+40800-074417FM-15+0057KMMU V0202705N00415015245MN0160935N5-00205-01005999999ADDGA1075+015245999GA2075+018295999GD13991+0152459GD23991+0182959GE19AGL   +99999+99999GF199999999999015241999999MA1100855100175REMMET08501/04/25 02:35:02 METAR KMMU 040735Z 27008KT 10SM BKN050 BKN060 M02/M10 A2978 RMK AO2
0230724097547382025010407557+40800-074417FM-15+0057KMMU V0202805N00465015245MN0160935N5-0010C-0100C999999ADDGA1085+015245999GD14991+0152459GE19AGL   +99999+99999GF199999999999015241999999MA1100885100205OC100885REMMET08101/04/25 02:55:02 METAR KMMU 040755Z 28009G17KT 10SM OVC050 M01/M10 A2979 RMK AO2EQDR01   M017TMP046R02   M107DPT046
0271724097547382025010408157+40800-074417FM-15+0057KMMU V0202805N00415014335MN0160935N5-00105-01105999999ADDGA1045+012195999GA2075+014335999GA3085+015245999GD12991+0121959GD23991+0143359GD34991+0152459GE19AGL   +99999+99999GF199999999999012191999999MA1100885100205OC101135REMMET09501/04/25 03:15:02 METAR KMMU 040815Z 28008G22KT 10SM SCT040 BKN047 OVC050 M01/M11 A2979 RMK AO2
0252724097547382025010408357+40800-074417FM-15+0057KMMU V0202705V004152200059N0160935N5-00205-01105999999ADDGA1045+013725999GA2045+015245999GD12991+0137259GD22991+0152459GE19AGL   +99999+99999GF104995999999013721999999MA1100885100205OC100985REMMET08801/04/25 03:35:02 METAR KMMU 040835Z 27008G19KT 10SM SCT045 SCT050 M02/M11 A2979 RMK AO2EQDD01      0ADE726
0205724097547382025010408557+40800-074417FM-15+0057KMMU V0202805N005152200059N0160935N5-0020C-0120C999999ADDGA1005+999999999GD10991+9999999GF100991999999999999999999MA1100955100275OC101085REMMET07801/04/25 03:55:02 METAR KMMU 040855Z 28010G21KT 10SM CLR M02/M12 A2981 RMK AO2EQDR01   M027TMP046R02   M127DPT046
0170724097547382025010409157+40800-074417FM-15+0057KMMU V0202905N003652200059N0160935N5-00205-01205999999ADDGA1005+999999999GD10991+9999999GF100991999999999999999999MA1100985100305OC100725REMMET07801/04/25 04:15:02 METAR KMMU 040915Z 29007G14KT 10SM CLR M02/M12 A2982 RMK AO2
0241724097547382025010409357+40800-074417FM-15+0057KMMU V0202905V004652200059N0160935N5-00205-01205999999ADDGA1045+015245999GA2045+018295999GD12991+0152459GD22991+0182959GE19AGL   +99999+99999GF104995999999015241999999MA1100985100305REMMET08501/04/25 04:35:02 METAR KMMU 040935Z 29009KT 10SM SCT050 SCT060 M02/M12 A2982 RMK AO2EQDD01      0ADE726
0219724097547382025010409557+40800-074417FM-15+0057KMMU V0202905N00265018295MN0160935N5-0020C-0110C999999ADDGA1075+018295999GD13991+0182959GE19AGL   +99999+99999GF199999999999018291999999MA1100985100305REMMET07801/04/25 04:55:02 METAR KMMU 040955Z 29005KT 10SM BKN060 M02/M11 A2982 RMK AO2EQDR01   M027TMP046R02   M117DPT046
0184724097547382025010410157+40800-074417FM-15+0057KMMU V0202705N00215018295MN0160935N5-00205-01105999999ADDGA1075+018295999GD13991+0182959GE19AGL   +99999+99999GF199999999999018291999999MA1101025100335REMMET07801/04/25 05:15:02 METAR KMMU 041015Z 27004KT 10SM BKN060 M02/M11 A2983 RMK AO2
0241724097547382025010410357+40800-074417FM-15+0057KMMU V0202905N002152200059N0160935N5-00205-01105999999ADDGA1045+015245999GA2045+018295999GD12991+0152459GD22991+0182959GE19AGL   +99999+99999GF104995999999015241999999MA1101025100335REMMET08501/04/25 05:35:02 METAR KMMU 041035Z 29004KT 10SM SCT050 SCT060 M02/M11 A2983 RMK AO2EQDD01      0ADE726
0230724097547382025010410557+40800-074417FM-15+0057KMMU V0202805N00365018295MN0160935N5-0020C-0110C999999ADDGA1075+018295999GD13991+0182959GE19AGL   +99999+99999GF199999999999018291999999MA1101055100375REMMET08901/04/25 05:55:02 METAR KMMU 041055Z 28007KT 10SM BKN060 M02/M11 A2984 RMK AO2 LTG DSNT SEQDR01   M027TMP046R02   M117DPT046
0195724097547382025010411157+40800-074417FM-15+0057KMMU V0202905N00575018295MN0160935N5-00205-01205999999ADDGA1075+018295999GD13991+0182959GE19AGL   +99999+99999GF199999999999018291999999MA1101055100375OC100885REMMET08101/04/25 06:15:02 METAR KMMU 041115Z 29011G17KT 10SM BKN060 M02/M12 A2984 RMK AO2
0195724097547382025010411357+40800-074417FM-15+0057KMMU V0202805N00575018295MN0160935N5-00105-01205999999ADDGA1075+018295999GD13991+0182959GE19AGL   +99999+99999GF199999999999018291999999MA1101085100405OC100775REMMET08101/04/25 06:35:02 METAR KMMU 041135Z 28011G15KT 10SM BKN060 M01/M12 A2985 RMK AO2
0190724097547382025010412454+40799-074415FM-15+005799999V0203101N005710018319N016093199-00105-01105999999ADDGD13991+0018319GE19AGL   +99999+99999GF199999999999001831999999MA1101155999999OC101131REMMET057METAR KMMU 041245Z 31011G22KT 10SM BKN0060 M01/M11 A2987=EQDD01      0ADE693D02      0ADE539
0291724097547382025010412557+40800-074417FM-15+0057KMMU V0203105N00575001837MN0160935N5-0010C-0110C999999ADDGA1077+001837999GD13991+0018379GE19AGL   +99999+99999GF199999999999001831999999MA1101155100475OC101135REMMET07801/04/25 07:55:02 METAR KMMU 041255Z 31011G22KT 10SM BKN0060 M01/M11 A2987 RMKEQDR01BKN0067SKY009R02   M017TMP046R03   M117DPT046R04BKN0067GAS009D01      0ADE693D02      0ADE539
0226724097547382025010413557+40800-074417FM-15+0057KMMU V0203205N00625016765MN0160935N5-0010C-0100C999999ADDGA1075+016765999GD13991+0167659GE19AGL   +99999+99999GF199999999999016761999999MA1101225100545OC101135REMMET07701/04/25 08:55:02 METAR KMMU 041355Z 32012G22KT 10SM BKN055 M01/M10 A2989 RMKEQDR01   M017TMP046R02   M107DPT046
0153724097547382025010414454+40799-074415FM-15+005799999V0203201N005710152419N016093199+00001-01001999999ADDGD14991+0152419GE19AGL   +99999+99999GF199999999999015241999999MA1101251999999OC101241REMMET055METAR KMMU 041445Z 32011G24KT 10SM OVC050 00/M10 A2990=
0225724097547382025010414507+40800-074417FM-15+0057KMMU V0203205N00575015245MN0160935N5+0000C-0100C999999ADDGA1085+015245999GD14991+0152459GE19AGL   +99999+99999GF199999999999015241999999MA1101255100575OC101245REMMET07601/04/25 09:50:02 METAR KMMU 041450Z 32011G24KT 10SM OVC050 00/M10 A2990 RMKEQDR01    007TMP046R02   M107DPT046
0171724097547382025010415454+40799-074415FM-15+005799999V0203001N009310152419N016093199+00001+99999999999ADDGD13991+0152419GE19AGL   +99999+99999GF199999999999015241999999MA1101251999999OC101341REMMET054METAR KMMU 041545Z 30018G26KT 10SM BKN050 00/11 A2990=EQDQ0111    2ATOD  
0256724097547382025010415467+40800-074417FM-15+0057KMMU V0203005N00935015245MN0160935N5+0000C+99999999999ADDGA1075+015245999GD13991+0152459GE19AGL   +99999+99999GF199999999999015241999999MA1101255100575OC101345REMMET07501/04/25 10:46:02 METAR KMMU 041546Z 30018G26KT 10SM BKN050 00/11 A2990 RMKEQDQ0111    2ATOD  Q02 +01102ATOD  R01    007TMP046R02    117DPT046
0225724097547382025010416457+40800-074417FM-15+0057KMMU V0203105N00675018295MN0160935N5+0000C-0110C999999ADDGA1075+018295999GD13991+0182959GE19AGL   +99999+99999GF199999999999018291999999MA1101225100545OC101135REMMET07601/04/25 11:45:02 METAR KMMU 041645Z 31013G22KT 10SM BKN060 00/M11 A2989 RMKEQDR01    007TMP046R02   M117DPT046
0153724097547382025010417454+40799-074415FM-15+005799999V0203201N006210182919N016093199+00101-01201999999ADDGD13991+0182919GE19AGL   +99999+99999GF199999999999018291999999MA1101151999999OC101031REMMET055METAR KMMU 041745Z 32012G20KT 10SM BKN060 01/M12 A2987=
0225724097547382025010417467+40800-074417FM-15+0057KMMU V0203205N00625018295MN0160935N5+0010C-0120C999999ADDGA1075+018295999GD13991+0182959GE19AGL   +99999+99999GF199999999999018291999999MA1101155100475OC101035REMMET07601/04/25 12:46:02 METAR KMMU 041746Z 32012G20KT 10SM BKN060 01/M12 A2987 RMKEQDR01    017TMP046R02   M127DPT046
0154724097547382025010418454+40799-074415FM-15+005799999V0203401N009810182919N016093199-00101-01101999999ADDGD13991+0182919GE19AGL   +99999+99999GF199999999999018291999999MA1101181999999OC101541REMMET056METAR KMMU 041845Z 34019G30KT 10SM BKN060 M01/M11 A2988=
0226724097547382025010418467+40800-074417FM-15+0057KMMU V0203405N00985018295MN0160935N5-0010C-0110C999999ADDGA1075+018295999GD13991+0182959GE19AGL   +99999+99999GF199999999999018291999999MA1101195100505OC101545REMMET07701/04/25 13:46:02 METAR KMMU 041846Z 34019G30KT 10SM BKN060 M01/M11 A2988 RMKEQDR01   M017TMP046R02   M117DPT046
0226724097547382025010419457+40800-074417FM-15+0057KMMU V0203205N00725019815MN0160935N5-0010C-0110C999999ADDGA1075+019815999GD13991+0198159GE19AGL   +99999+99999GF199999999999019811999999MA1101225100545OC101185REMMET07701/04/25 14:45:02 METAR KMMU 041945Z 32014G23KT 10SM BKN065 M01/M11 A2989 RMKEQDR01   M017TMP046R02   M117DPT046
0226724097547382025010420507+40800-074417FM-15+0057KMMU V0203305N00365019815MN0160935N5-0010C-0130C999999ADDGA1075+019815999GD13991+0198159GE19AGL   +99999+99999GF199999999999019811999999MA1101325100645OC101085REMMET07701/04/25 15:50:02 METAR KMMU 042050Z 33007G21KT 10SM BKN065 M01/M13 A2992 RMKEQDR01   M017TMP046R02   M137DPT046
0226724097547382025010421457+40800-074417FM-15+0057KMMU V0203205N00465019815MN0160935N5-0010C-0120C999999ADDGA1075+019815999GD13991+0198159GE19AGL   +99999+99999GF199999999999019811999999MA1101395100705OC101085REMMET07701/04/25 16:45:02 METAR KMMU 042145Z 32009G21KT 10SM BKN065 M01/M12 A2994 RMKEQDR01   M017TMP046R02   M127DPT046
0154724097547382025010422454+40799-074415FM-15+005799999V0203001N006210198119N016093199-00201-01301999999ADDGD13991+0198119GE19AGL   +99999+99999GF199999999999019811999999MA1101421999999OC100931REMMET056METAR KMMU 042245Z 30012G18KT 10SM BKN065 M02/M13 A2995=
0226724097547382025010422467+40800-074417FM-15+0057KMMU V0203005N00625019815MN0160935N5-0020C-0130C999999ADDGA1075+019815999GD13991+0198159GE19AGL   +99999+99999GF199999999999019811999999MA1101425100745OC100935REMMET07701/04/25 17:46:02 METAR KMMU 042246Z 30012G18KT 10SM BKN065 M02/M13 A2995 RMKEQDR01   M027TMP046R02   M137DPT046
0226724097547382025010423457+40800-074417FM-15+0057KMMU V0203005N00675019815MN0160935N5-0020C-0120C999999ADDGA1075+019815999GD13991+0198159GE19AGL   +99999+99999GF199999999999019811999999MA1101425100745OC101035REMMET07701/04/25 18:45:02 METAR KMMU 042345Z 30013G20KT 10SM BKN065 M02/M12 A2995 RMKEQDR01   M027TMP046R02   M127DPT046
0215724097547382025010500457+40800-074417FM-15+0057KMMU V0202805N00515021345MN0160935N5-0020C-0130C999999ADDGA1075+021345999GD13991+0213459GE19AGL   +99999+99999GF199999999999021341999999MA1101465100775REMMET07401/04/25 19:45:01 METAR KMMU 050045Z 28010KT 10SM BKN070 M02/M13 A2996 RMKEQDR01   M027TMP046R02   M137DPT046
0226724097547382025010501457+40800-074417FM-15+0057KMMU V0202905N00515021345MN0160935N5-0020C-0120C999999ADDGA1075+021345999GD13991+0213459GE19AGL   +99999+99999GF199999999999021341999999MA1101495100815OC100935REMMET07701/04/25 20:45:01 METAR KMMU 050145Z 29010G18KT 10SM BKN070 M02/M12 A2997 RMKEQDR01   M027TMP046R02   M127DPT046
0173724097547382025010502454+40799-074415FM-15+005799999V0203001N007212200059N016093199-00301-01201999999ADDGD12991+0213419GE19AGL   +99999+99999GF104995999999021341999999MA1101491999999OC101031REMMET056METAR KMMU 050245Z 30014G20KT 10SM SCT070 M03/M12 A2997=EQDD01      0ADE726
0242724097547382025010502507+40800-074417FM-15+0057KMMU V0203005N007252200059N0160935N5-0030C-0120C999999ADDGA1045+021345999GD12991+0213459GE19AGL   +99999+99999GF104995999999021341999999MA1101495100815OC101035REMMET07701/04/25 21:50:01 METAR KMMU 050250Z 30014G20KT 10SM SCT070 M03/M12 A2997 RMKEQDR01   M037TMP046R02   M127DPT046D01      0ADE726
0184724097547382025010503357+40800-074417FM-15+0057KMMU V0202405N00315018295MN0160935N5-00305-01405999999ADDGA1085+018295999GD14991+0182959GE19AGL   +99999+99999GF199999999999018291999999MA1101525100845REMMET07801/04/25 22:35:02 METAR KMMU 050335Z 24006KT 10SM OVC060 M03/M14 A2998 RMK AO2
0230724097547382025010503557+40800-074417FM-15+0057KMMU V0202505N00365018295MN0160935N5-0030C-0130C999999ADDGA1085+018295999GD14991+0182959GE19AGL   +99999+99999GF199999999999018291999999MA1101525100845OC100725REMMET08101/04/25 22:55:02 METAR KMMU 050355Z 25007G14KT 10SM OVC060 M03/M13 A2998 RMK AO2EQDR01   M037TMP046R02   M137DPT046
0184724097547382025010504157+40800-074417FM-15+0057KMMU V0202605N00365015245MN0160935N5-00305-01305999999ADDGA1085+015245999GD14991+0152459GE19AGL   +99999+99999GF199999999999015241999999MA1101565100875REMMET07801/04/25 23:15:02 METAR KMMU 050415Z 26007KT 10SM OVC050 M03/M13 A2999 RMK AO2
0195724097547382025010504357+40800-074417FM-15+0057KMMU V0202405N00465015245MN0160935N5-00305-01305999999ADDGA1085+015245999GD14991+0152459GE19AGL   +99999+99999GF199999999999015241999999MA1101565100875OC100725REMMET08101/04/25 23:35:02 METAR KMMU 050435Z 24009G14KT 10SM OVC050 M03/M13 A2999 RMK AO2
0219724097547382025010504557+40800-074417FM-15+0057KMMU V0202305N00415015245MN0160935N5-0030C-0130C999999ADDGA1085+015245999GD14991+0152459GE19AGL   +99999+99999GF199999999999015241999999MA1101525100845REMMET07801/04/25 23:55:02 METAR KMMU 050455Z 23008KT 10SM OVC050 M03/M13 A2998 RMK AO2EQDR01   M037TMP046R02   M137DPT046
0184724097547382025010505157+40800-074417FM-15+0057KMMU V0202405N00315015245MN0160935N5-00305-01305999999ADDGA1085+015245999GD14991+0152459GE19AGL   +99999+99999GF199999999999015241999999MA1101525100845REMMET07801/05/25 00:15:02 METAR KMMU 050515Z 24006KT 10SM OVC050 M03/M13 A2998 RMK AO2
0184724097547382025010505357+40800-074417FM-15+0057KMMU V0202505N00315014635MN0160935N5-00305-01205999999ADDGA1085+014635999GD14991+0146359GE19AGL   +99999+99999GF199999999999014631999999MA1101565100875REMMET07801/05/25 00:35:02 METAR KMMU 050535Z 25006KT 10SM OVC048 M03/M12 A2999 RMK AO2
0219724097547382025010505557+40800-074417FM-15+0057KMMU V0202605N00365014635MN0160935N5-0030C-0120C999999ADDGA1085+014635999GD14991+0146359GE19AGL   +99999+99999GF199999999999014631999999MA1101595100915REMMET07801/05/25 00:55:02 METAR KMMU 050555Z 26007KT 10SM OVC048 M03/M12 A3000 RMK AO2EQDR01   M037TMP046R02   M127DPT046
0184724097547382025010506157+40800-074417FM-15+0057KMMU V0202505N00365014635MN0160935N5-00305-01205999999ADDGA1085+014635999GD14991+0146359GE19AGL   +99999+99999GF199999999999014631999999MA1101595100915REMMET07801/05/25 01:15:02 METAR KMMU 050615Z 25007KT 10SM OVC048 M03/M12 A3000 RMK AO2
0184724097547382025010506357+40800-074417FM-15+0057KMMU V0202505N00415014635MN0160935N5-00305-01205999999ADDGA1085+014635999GD14991+0146359GE19AGL   +99999+99999GF199999999999014631999999MA1101595100915REMMET07801/05/25 01:35:02 METAR KMMU 050635Z 25008KT 10SM OVC048 M03/M12 A3000 RMK AO2
0219724097547382025010506557+40800-074417FM-15+0057KMMU V0202505N00315014635MN0160935N5-0030C-0120C999999ADDGA1085+014635999GD14991+0146359GE19AGL   +99999+99999GF199999999999014631999999MA1101595100915REMMET07801/05/25 01:55:02 METAR KMMU 050655Z 25006KT 10SM OVC048 M03/M12 A3000 RMK AO2EQDR01   M037TMP046R02   M127DPT046
0184724097547382025010507157+40800-074417FM-15+0057KMMU V0202505N00415014635MN0160935N5-00305-01205999999ADDGA1085+014635999GD14991+0146359GE19AGL   +99999+99999GF199999999999014631999999MA1101595100915REMMET07801/05/25 02:15:02 METAR KMMU 050715Z 25008KT 10SM OVC048 M03/M12 A3000 RMK AO2
0184724097547382025010507357+40800-074417FM-15+0057KMMU V0202505N00365014635MN0160935N5-00305-01205999999ADDGA1085+014635999GD14991+0146359GE19AGL   +99999+99999GF199999999999014631999999MA1101595100915REMMET07801/05/25 02:35:02 METAR KMMU 050735Z 25007KT 10SM OVC048 M03/M12 A3000 RMK AO2
0219724097547382025010507557+40800-074417FM-15+0057KMMU V0202405N00415014025MN0160935N5-0030C-0120C999999ADDGA1085+014025999GD14991+0140259GE19AGL   +99999+99999GF199999999999014021999999MA1101595100915REMMET07801/05/25 02:55:02 METAR KMMU 050755Z 24008KT 10SM OVC046 M03/M12 A3000 RMK AO2EQDR01   M037TMP046R02   M127DPT046
0184724097547382025010508157+40800-074417FM-15+0057KMMU V0202605N00315014025MN0160935N5-00305-01205999999ADDGA1085+014025999GD14991+0140259GE19AGL   +99999+99999GF199999999999014021999999MA1101595100915REMMET07801/05/25 03:15:02 METAR KMMU 050815Z 26006KT 10SM OVC046 M03/M12 A3000 RMK AO2
0184724097547382025010508357+40800-074417FM-15+0057KMMU V0202505N00465014025MN0160935N5-00305-01205999999ADDGA1085+014025999GD14991+0140259GE19AGL   +99999+99999GF199999999999014021999999MA1101595100915REMMET07801/05/25 03:35:02 METAR KMMU 050835Z 25009KT 10SM OVC046 M03/M12 A3000 RMK AO2
0230724097547382025010508557+40800-074417FM-15+0057KMMU V0202705N00415014025MN0160935N5-0030C-0110C999999ADDGA1085+014025999GD14991+0140259GE19AGL   +99999+99999GF199999999999014021999999MA1101595100915OC100775REMMET08101/05/25 03:55:02 METAR KMMU 050855Z 27008G15KT 10SM OVC046 M03/M11 A3000 RMK AO2EQDR01   M037TMP046R02   M117DPT046
0184724097547382025010509157+40800-074417FM-15+0057KMMU V0202505N00415014025MN0160935N5-00305-01105999999ADDGA1085+014025999GD14991+0140259GE19AGL   +99999+99999GF199999999999014021999999MA1101595100915REMMET07801/05/25 04:15:02 METAR KMMU 050915Z 25008KT 10SM OVC046 M03/M11 A3000 RMK AO2
0184724097547382025010509357+40800-074417FM-15+0057KMMU V0202505N00465014025MN0160935N5-00305-01105999999ADDGA1085+014025999GD14991+0140259GE19AGL   +99999+99999GF199999999999014021999999MA1101595100915REMMET07801/05/25 04:35:02 METAR KMMU 050935Z 25009KT 10SM OVC046 M03/M11 A3000 RMK AO2
0219724097547382025010509557+40800-074417FM-15+0057KMMU V0202605N00465014025MN0160935N5-0030C-0110C999999ADDGA1085+014025999GD14991+0140259GE19AGL   +99999+99999GF199999999999014021999999MA1101595100915REMMET07801/05/25 04:55:02 METAR KMMU 050955Z 26009KT 10SM OVC046 M03/M11 A3000 RMK AO2EQDR01   M037TMP046R02   M117DPT046
0184724097547382025010510157+40800-074417FM-15+0057KMMU V0202705N00315014025MN0160935N5-00305-01105999999ADDGA1085+014025999GD14991+0140259GE19AGL   +99999+99999GF199999999999014021999999MA1101595100915REMMET07801/05/25 05:15:02 METAR KMMU 051015Z 27006KT 10SM OVC046 M03/M11 A3000 RMK AO2
0184724097547382025010510357+40800-074417FM-15+0057KMMU V0202605N00315014025MN0160935N5-00305-01105999999ADDGA1085+014025999GD14991+0140259GE19AGL   +99999+99999GF199999999999014021999999MA1101635100945REMMET07801/05/25 05:35:02 METAR KMMU 051035Z 26006KT 10SM OVC046 M03/M11 A3001 RMK AO2
0219724097547382025010510557+40800-074417FM-15+0057KMMU V0202505N00365014025MN0160935N5-0030C-0110C999999ADDGA1075+014025999GD13991+0140259GE19AGL   +99999+99999GF199999999999014021999999MA1101635100945REMMET07801/05/25 05:55:02 METAR KMMU 051055Z 25007KT 10SM BKN046 M03/M11 A3001 RMK AO2EQDR01   M037TMP046R02   M117DPT046
0184724097547382025010511157+40800-074417FM-15+0057KMMU V0202505N00415014025MN0160935N5-00405-01105999999ADDGA1075+014025999GD13991+0140259GE19AGL   +99999+99999GF199999999999014021999999MA1101635100945REMMET07801/05/25 06:15:02 METAR KMMU 051115Z 25008KT 10SM BKN046 M04/M11 A3001 RMK AO2
0184724097547382025010511357+40800-074417FM-15+0057KMMU V0202505N00365014025MN0160935N5-00405-01105999999ADDGA1075+014025999GD13991+0140259GE19AGL   +99999+99999GF199999999999014021999999MA1101665100975REMMET07801/05/25 06:35:02 METAR KMMU 051135Z 25007KT 10SM BKN046 M04/M11 A3002 RMK AO2
0226724097547382025010511457+40800-074417FM-15+0057KMMU V0202805N00415013725MN0160935N5-0040C-0100C999999ADDGA1075+013725999GD13991+0137259GE19AGL   +99999+99999GF199999999999013721999999MA1101665100975OC100775REMMET07701/05/25 06:45:02 METAR KMMU 051145Z 28008G15KT 10SM BKN045 M04/M10 A3002 RMKEQDR01   M047TMP046R02   M107DPT046
0226724097547382025010512457+40800-074417FM-15+0057KMMU V0202605N00515013725MN0160935N5-0030C-0100C999999ADDGA1075+013725999GD13991+0137259GE19AGL   +99999+99999GF199999999999013721999999MA1101695101015OC100825REMMET07701/05/25 07:45:02 METAR KMMU 051245Z 26010G16KT 10SM BKN045 M03/M10 A3003 RMKEQDR01   M037TMP046R02   M107DPT046
0226724097547382025010513457+40800-074417FM-15+0057KMMU V0202705N00515014635MN0160935N5-0030C-0100C999999ADDGA1075+014635999GD13991+0146359GE19AGL   +99999+99999GF199999999999014631999999MA1101735101045OC100825REMMET07701/05/25 08:45:02 METAR KMMU 051345Z 27010G16KT 10SM BKN048 M03/M10 A3004 RMKEQDR01   M037TMP046R02   M107DPT046
0154724097547382025010514454+40799-074415FM-15+005799999V0202901N006210146319N016093199-00301-01101999999ADDGD13991+0146319GE19AGL   +99999+99999GF199999999999014631999999MA1101761999999OC100881REMMET056METAR KMMU 051445Z 29012G17KT 10SM BKN048 M03/M11 A3005=
0226724097547382025010514467+40800-074417FM-15+0057KMMU V0202905N00625014635MN0160935N5-0030C-0110C999999ADDGA1075+014635999GD13991+0146359GE19AGL   +99999+99999GF199999999999014631999999MA1101765101085OC100885REMMET07701/05/25 09:46:02 METAR KMMU 051446Z 29012G17KT 10SM BKN048 M03/M11 A3005 RMKEQDR01   M037TMP046R02   M117DPT046
0264724097547382025010516487+40800-074417FM-15+0057KMMU V0203005N00315015245MN0160935N5-0010C-0090C999999ADDGA1045+013725999GA2075+015245999GD12991+0137259GD23991+0152459GE19AGL   +99999+99999GF199999999999013721999999MA1101665100975OC100825REMMET08401/05/25 11:48:02 METAR KMMU 051648Z 30006G16KT 10SM SCT045 BKN050 M01/M09 A3002 RMKEQDR01   M017TMP046R02   M097DPT046
0225724097547382025010517457+40800-074417FM-15+0057KMMU V0203105N00725014635MN0160935N5+0000C-0110C999999ADDGA1075+014635999GD13991+0146359GE19AGL   +99999+99999GF199999999999014631999999MA1101635100945OC100885REMMET07601/05/25 12:45:02 METAR KMMU 051745Z 31014G17KT 10SM BKN048 00/M11 A3001 RMKEQDR01    007TMP046R02   M117DPT046
0225724097547382025010518457+40800-074417FM-15+0057KMMU V0203105N00825014635MN0160935N5+0000C-0100C999999ADDGA1075+014635999GD13991+0146359GE19AGL   +99999+99999GF199999999999014631999999MA1101665100975OC101135REMMET07601/05/25 13:45:02 METAR KMMU 051845Z 31016G22KT 10SM BKN048 00/M10 A3002 RMKEQDR01    007TMP046R02   M107DPT046
0241724097547382025010519457+40800-074417FM-15+0057KMMU V0203205N004652200059N0160935N5+0000C-0110C999999ADDGA1045+015245999GD12991+0152459GE19AGL   +99999+99999GF104995999999015241999999MA1101665100975OC101185REMMET07601/05/25 14:45:02 METAR KMMU 051945Z 32009G23KT 10SM SCT050 00/M11 A3002 RMKEQDR01    007TMP046R02   M117DPT046D01      0ADE726
0242724097547382025010520597+40800-074417FM-15+0057KMMU V0203305N006252200059N0160935N5-0010C-0100C999999ADDGA1045+016765999GD12991+0167659GE19AGL   +99999+99999GF104995999999016761999999MA1101735101045OC100985REMMET07701/05/25 15:59:02 METAR KMMU 052059Z 33012G19KT 10SM SCT055 M01/M10 A3004 RMKEQDR01   M017TMP046R02   M107DPT046D01      0ADE726
0258724097547382025010521457+40800-074417FM-15+0057KMMU V0203305N002652200059N0160935N5-0010C-0100C999999ADDGA1045+016765999GD12991+0167659GE19AGL   +99999+99999GF104995999999016761999999MA1101765101085OC100517REMMET07701/05/25 16:45:02 METAR KMMU 052145Z 33005G10KT 10SM SCT055 M01/M10 A3005 RMKEQDR01   M017TMP046R02   M107DPT046R03 G10KT7OCW039D01      0ADE726
0231724097547382025010522457+40800-074417FM-15+0057KMMU V0203205N002652200059N0160935N5-0020C-0100C999999ADDGA1045+016765999GD12991+0167659GE19AGL   +99999+99999GF104995999999016761999999MA1101835101145REMMET07401/05/25 17:45:02 METAR KMMU 052245Z 32005KT 10SM SCT055 M02/M10 A3007 RMKEQDR01   M027TMP046R02   M107DPT046D01      0ADE726
0231724097547382025010523457+40800-074417FM-15+0057KMMU V0203105N004152200059N0160935N5-0020C-0100C999999ADDGA1045+060965999GD12991+0609659GE19AGL   +99999+99999GF104995999999060961999999MA1101835101145REMMET07401/05/25 18:45:02 METAR KMMU 052345Z 31008KT 10SM SCT200 M02/M10 A3007 RMKEQDR01   M027TMP046R02   M107DPT046D01      0ADE726
0231724097547382025010600457+40800-074417FM-15+0057KMMU V0203005N003152200059N0160935N5-0030C-0090C999999ADDGA1045+060965999GD12991+0609659GE19AGL   +99999+99999GF104995999999060961999999MA1101835101145REMMET07401/05/25 19:45:01 METAR KMMU 060045Z 30006KT 10SM SCT200 M03/M09 A3007 RMKEQDR01   M037TMP046R02   M097DPT046D01      0ADE726
0222724097547382025010601457+40800-074417FM-15+0057KMMU V0202905N003652200079N0160935N5-0020C-0090C999999ADDGA1007+999999999GD10991+9999999GF100991999999999999999999MA1101795101115REMMET07101/05/25 20:45:01 METAR KMMU 060145Z 29007KT 10SM SKC M02/M09 A3006 RMKEQDR01   SKC7SKY009R02   M027TMP046R03   M097DPT046R04   SKC7GAS009
0222724097547382025010602457+40800-074417FM-15+0057KMMU V0202705N002652200079N0160935N5-0030C-0090C999999ADDGA1007+999999999GD10991+9999999GF100991999999999999999999MA1101765101085REMMET07101/05/25 21:45:01 METAR KMMU 060245Z 27005KT 10SM SKC M03/M09 A3005 RMKEQDR01   SKC7SKY009R02   M037TMP046R03   M097DPT046R04   SKC7GAS009
0159724097547382025010603357+40800-074417FM-15+0057KMMU V0202705N001552200059N0160935N5-00305-01005999999ADDGA1005+999999999GD10991+9999999GF100991999999999999999999MA1101765101085REMMET07501/05/25 22:35:02 METAR KMMU 060335Z 27003KT 10SM CLR M03/M10 A3005 RMK AO2
0194724097547382025010603557+40800-074417FM-15+0057KMMU V0202305N002152200059N0160935N5-0040C-0100C999999ADDGA1005+999999999GD10991+9999999GF100991999999999999999999MA1101765101085REMMET07501/05/25 22:55:02 METAR KMMU 060355Z 23004KT 10SM CLR M04/M10 A3005 RMK AO2EQDR01   M047TMP046R02   M107DPT046
0159724097547382025010604157+40800-074417FM-15+0057KMMU V0202305N002152200059N0160935N5-00405-01005999999ADDGA1005+999999999GD10991+9999999GF100991999999999999999999MA1101795101115REMMET07501/05/25 23:15:02 METAR KMMU 060415Z 23004KT 10SM CLR M04/M10 A3006 RMK AO2
0159724097547382025010604357+40800-074417FM-15+0057KMMU V0202205N002152200059N0160935N5-00405-01005999999ADDGA1005+999999999GD10991+9999999GF100991999999999999999999MA1101765101085REMMET07501/05/25 23:35:02 METAR KMMU 060435Z 22004KT 10SM CLR M04/M10 A3005 RMK AO2
0235724097547382025010604557+40800-074417FM-15+0057KMMU V0202105N002152200059N0160935N5-0040C-0100C999999ADDGA1045+010365999GD12991+0103659GE19AGL   +99999+99999GF104995999999010361999999MA1101735101045REMMET07801/05/25 23:55:02 METAR KMMU 060455Z 21004KT 10SM SCT034 M04/M10 A3004 RMK AO2EQDR01   M047TMP046R02   M107DPT046D01      0ADE726
0184724097547382025010605157+40800-074417FM-15+0057KMMU V0202305N00215010365MN0160935N5-00405-01005999999ADDGA1075+010365999GD13991+0103659GE19AGL   +99999+99999GF199999999999010361999999MA1101735101045REMMET07801/06/25 00:15:02 METAR KMMU 060515Z 23004KT 10SM BKN034 M04/M10 A3004 RMK AO2
0184724097547382025010605357+40800-074417FM-15+0057KMMU V0209999C00005010365MN0160935N5-00405-01005999999ADDGA1085+010365999GD14991+0103659GE19AGL   +99999+99999GF199999999999010361999999MA1101735101045REMMET07801/06/25 00:35:02 METAR KMMU 060535Z 00000KT 10SM OVC034 M04/M10 A3004 RMK AO2
0219724097547382025010605557+40800-074417FM-15+0057KMMU V0209999C00005010365MN0160935N5-0040C-0090C999999ADDGA1085+010365999GD14991+0103659GE19AGL   +99999+99999GF199999999999010361999999MA1101695101015REMMET07801/06/25 00:55:02 METAR KMMU 060555Z 00000KT 10SM OVC034 M04/M09 A3003 RMK AO2EQDR01   M047TMP046R02   M097DPT046
0184724097547382025010606157+40800-074417FM-15+0057KMMU V0202105N00155010365MN0160935N5-00405-00905999999ADDGA1075+010365999GD13991+0103659GE19AGL   +99999+99999GF199999999999010361999999MA1101695101015REMMET07801/06/25 01:15:02 METAR KMMU 060615Z 21003KT 10SM BKN034 M04/M09 A3003 RMK AO2
0203724097547382025010606357+40800-074417FM-15+0057KMMU V0202105N001552200059N0160935N5-00405-00905999999ADDGA1045+010365999GD12991+0103659GE19AGL   +99999+99999GF104995999999010361999999MA1101695101015REMMET07801/06/25 01:35:02 METAR KMMU 060635Z 21003KT 10SM SCT034 M04/M09 A3003 RMK AO2EQDD01      0ADE726
0235724097547382025010606557+40800-074417FM-15+0057KMMU V0209999C000052200059N0160935N5-0040C-0090C999999ADDGA1045+010365999GD12991+0103659GE19AGL   +99999+99999GF104995999999010361999999MA1101695101015REMMET07801/06/25 01:55:02 METAR KMMU 060655Z 00000KT 10SM SCT034 M04/M09 A3003 RMK AO2EQDR01   M047TMP046R02   M097DPT046D01      0ADE726
0203724097547382025010607157+40800-074417FM-15+0057KMMU V0202005N001552200059N0160935N5-00405-00905999999ADDGA1045+010365999GD12991+0103659GE19AGL   +99999+99999GF104995999999010361999999MA1101735101045REMMET07801/06/25 02:15:02 METAR KMMU 060715Z 20003KT 10SM SCT034 M04/M09 A3004 RMK AO2EQDD01      0ADE726
0203724097547382025010607357+40800-074417FM-15+0057KMMU V0202305N002152200059N0160935N5-00405-00905999999ADDGA1045+010365999GD12991+0103659GE19AGL   +99999+99999GF104995999999010361999999MA1101735101045REMMET07801/06/25 02:35:02 METAR KMMU 060735Z 23004KT 10SM SCT034 M04/M09 A3004 RMK AO2EQDD01      0ADE726
0194724097547382025010607557+40800-074417FM-15+0057KMMU V0209999C000052200059N0160935N5-0040C-0090C999999ADDGA1005+999999999GD10991+9999999GF100991999999999999999999MA1101695101015REMMET07501/06/25 02:55:02 METAR KMMU 060755Z 00000KT 10SM CLR M04/M09 A3003 RMK AO2EQDR01   M047TMP046R02   M097DPT046
0159724097547382025010608157+40800-074417FM-15+0057KMMU V0209999C000052200059N0160935N5-00405-00905999999ADDGA1005+999999999GD10991+9999999GF100991999999999999999999MA1101635100945REMMET07501/06/25 03:15:02 METAR KMMU 060815Z 00000KT 10SM CLR M04/M09 A3001 RMK AO2
0159724097547382025010608357+40800-074417FM-15+0057KMMU V0209999C000052200059N0160935N5-00405-00905999999ADDGA1005+999999999GD10991+9999999GF100991999999999999999999MA1101595100915REMMET07501/06/25 03:35:02 METAR KMMU 060835Z 00000KT 10SM CLR M04/M09 A3000 RMK AO2
0194724097547382025010608557+40800-074417FM-15+0057KMMU V0209999C000052200059N0160935N5-0040C-0080C999999ADDGA1005+999999999GD10991+9999999GF100991999999999999999999MA1101595100915REMMET07501/06/25 03:55:02 METAR KMMU 060855Z 00000KT 10SM CLR M04/M08 A3000 RMK AO2EQDR01   M047TMP046R02   M087DPT046
0159724097547382025010609157+40800-074417FM-15+0057KMMU V0209999C000052200059N0160935N5-00405-00805999999ADDGA1005+999999999GD10991+9999999GF100991999999999999999999MA1101565100875REMMET07501/06/25 04:15:02 METAR KMMU 060915Z 00000KT 10SM CLR M04/M08 A2999 RMK AO2
0159724097547382025010609357+40800-074417FM-15+0057KMMU V0209999C000052200059N0160935N5-00405-00805999999ADDGA1005+999999999GD10991+9999999GF100991999999999999999999MA1101525100845REMMET07501/06/25 04:35:02 METAR KMMU 060935Z 00000KT 10SM CLR M04/M08 A2998 RMK AO2
0194724097547382025010609557+40800-074417FM-15+0057KMMU V0209999C000052200059N0160935N5-0040C-0070C999999ADDGA1005+999999999GD10991+9999999GF100991999999999999999999MA1101495100815REMMET07501/06/25 04:55:02 METAR KMMU 060955Z 00000KT 10SM CLR M04/M07 A2997 RMK AO2EQDR01   M047TMP046R02   M077DPT046
0159724097547382025010610157+40800-074417FM-15+0057KMMU V0209999C000052200059N0160935N5-00405-00705999999ADDGA1005+999999999GD10991+9999999GF100991999999999999999999MA1101525100845REMMET07501/06/25 05:15:02 METAR KMMU 061015Z 00000KT 10SM CLR M04/M07 A2998 RMK AO2
0159724097547382025010610357+40800-074417FM-15+0057KMMU V0202105N001552200059N0160935N5-00405-00805999999ADDGA1005+999999999GD10991+9999999GF100991999999999999999999MA1101525100845REMMET07501/06/25 05:35:02 METAR KMMU 061035Z 21003KT 10SM CLR M04/M08 A2998 RMK AO2
0194724097547382025010610557+40800-074417FM-15+0057KMMU V0209999C000052200059N0160935N5-0040C-0080C999999ADDGA1005+999999999GD10991+9999999GF100991999999999999999999MA1101525100845REMMET07501/06/25 05:55:02 METAR KMMU 061055Z 00000KT 10SM CLR M04/M08 A2998 RMK AO2EQDR01   M047TMP046R02   M087DPT046
0203724097547382025010611157+40800-074417FM-15+0057KMMU V0209999C000052200059N0160935N5-00305-00805999999ADDGA1045+036585999GD12991+0365859GE19AGL   +99999+99999GF104995999999036581999999MA1101495100815REMMET07801/06/25 06:15:02 METAR KMMU 061115Z 00000KT 10SM SCT120 M03/M08 A2997 RMK AO2EQDD01      0ADE726
0184724097547382025010611357+40800-074417FM-15+0057KMMU V0209999C00005036585MN0160935N5-00305-00805999999ADDGA1075+036585999GD13991+0365859GE19AGL   +99999+99999GF199999999999036581999999MA1101465100775REMMET07801/06/25 06:35:02 METAR KMMU 061135Z 00000KT 10SM BKN120 M03/M08 A2996 RMK AO2
0215724097547382025010611457+40800-074417FM-15+0057KMMU V0202805N00155036585MN0160935N5-0030C-0070C999999ADDGA1075+036585999GD13991+0365859GE19AGL   +99999+99999GF199999999999036581999999MA1101465100775REMMET07401/06/25 06:45:02 METAR KMMU 061145Z 28003KT 10SM BKN120 M03/M07 A2996 RMKEQDR01   M037TMP046R02   M077DPT046
0215724097547382025010612457+40800-074417FM-15+0057KMMU V0202505N00265036585MN0160935N5-0030C-0080C999999ADDGA1085+036585999GD14991+0365859GE19AGL   +99999+99999GF199999999999036581999999MA1101425100745REMMET07401/06/25 07:45:02 METAR KMMU 061245Z 25005KT 10SM OVC120 M03/M08 A2995 RMKEQDR01   M037TMP046R02   M087DPT046
0215724097547382025010613507+40800-074417FM-15+0057KMMU V0209999C00005022865MN0160935N5-0030C-0070C999999ADDGA1085+022865999GD14991+0228659GE19AGL   +99999+99999GF199999999999022861999999MA1101325100645REMMET07401/06/25 08:50:02 METAR KMMU 061350Z 00000KT 10SM OVC075 M03/M07 A2992 RMKEQDR01   M037TMP046R02   M077DPT046
0305724097547382025010614457+40800-074417FM-15+0057KMMU V0209999C00005006105MN0032195N5-0030C-0060C999999ADDAU110030015AU200001015AW1105AW2715GA1085+006105999GA2075+009755999GD14991+0061059GD23991+0097559GE19AGL   +99999+99999GF199999999999006101999999MA1101295100605MW1101MW2715REMMET08701/06/25 09:45:02 METAR KMMU 061445Z 00000KT 2SM -SN BR OVC020 BKN032 M03/M06 A2991 RMKEQDR01   M037TMP046R02   M067DPT046
0301724097547382025010615037+40800-074417FM-15+0057KMMU V0209999C00005004575MN0008056N5-00305-00505999999ADDAU110030016AU200001016AW1106AW2716GA1085+004575999GD14991+0045759GE19AGL   +99999+99999GF199999999999004571999999MA1101255100575MW1101MW2716REMMET08201/06/25 10:03:02 METAR KMMU 061503Z 00000KT 1/2SM -SN BR OVC015 M03/M05 A2990 RMKEQDR01 1/2SM7VIS018R02-SN BR7AWW018R03SEERMK7MVW018R04-SN BR7MWW018
0333724097547382025010615457+40800-074417FM-15+0057KMMU V0209999C00005004575MN0008056N5-0030C-0040C999999ADDAU110030016AU200001016AW1106AW2716GA1085+004575999GD14991+0045759GE19AGL   +99999+99999GF199999999999004571999999MA1101225100545MW1101MW2716REMMET08201/06/25 10:45:02 METAR KMMU 061545Z 00000KT 1/2SM -SN BR OVC015 M03/M04 A2989 RMKEQDR01 1/2SM7VIS018R02   M037TMP046R03   M047DPT046R04-SN BR7AWW018R05SEERMK7MVW018R06-SN BR7MWW018
0267724097547382025010616457+40800-074417FM-15+0057KMMU V0209999C00005004575MN0016095N5-0030C-0040C999999ADDAU110030015AU200001015AW1105AW2715GA1085+004575999GD14991+0045759GE19AGL   +99999+99999GF199999999999004571999999MA1101055100375MW1101MW2715REMMET08001/06/25 11:45:02 METAR KMMU 061645Z 00000KT 1SM -SN BR OVC015 M03/M04 A2984 RMKEQDR01   M037TMP046R02   M047DPT046
0305724097547382025010617597+40800-074417FM-15+0057KMMU V0209999C00005003055MN0016095N5-0020C-0030C999999ADDAU110030015AU200001015AW1105AW2715GA1045+002445999GA2085+003055999GD12991+0024459GD24991+0030559GE19AGL   +99999+99999GF199999999999002441999999MA1100855100175MW1101MW2715REMMET08701/06/25 12:59:02 METAR KMMU 061759Z 00000KT 1SM -SN BR SCT008 OVC010 M02/M03 A2978 RMKEQDR01   M027TMP046R02   M037DPT046
0280724097547382025010618217+40800-074417FM-15+0057KMMU V0200605N00215004275MN0064375N5-00205-00305999999ADDGA1045+003055999GA2075+004275999GA3075+012195999GD12991+0030559GD23991+0042759GD33991+0121959GD44991+0198119GE19AGL   +99999+99999GF199999999999003051999999MA1100815100135MW1715REMMET09101/06/25 13:21:02 METAR KMMU 061821Z 06004KT 4SM -SN SCT010 BKN014 BKN040 M02/M03 A2977 RMK
0242724097547382025010618457+40800-074417FM-15+0057KMMU V0200705N00215019815MN0160935N5-0020C-0040C999999ADDAU110030015AW1715GA1085+019815999GD14991+0198159GE19AGL   +99999+99999GF199999999999019811999999MA1100785100105MW1715REMMET07801/06/25 13:45:01 METAR KMMU 061845Z 07004KT 10SM -SN OVC065 M02/M04 A2976 RMKEQDR01   M027TMP046R02   M047DPT046
0215724097547382025010619457+40800-074417FM-15+0057KMMU V0200505N00315019815MN0160935N5-0010C-0040C999999ADDGA1085+019815999GD14991+0198159GE19AGL   +99999+99999GF199999999999019811999999MA1100645099965REMMET07401/06/25 14:45:02 METAR KMMU 061945Z 05006KT 10SM OVC065 M01/M04 A2972 RMKEQDR01   M017TMP046R02   M047DPT046
0253724097547382025010620457+40800-074417FM-15+0057KMMU V0200405N00315005795MN0160935N5-0010C-0040C999999ADDGA1075+005795999GA2085+016765999GD13991+0057959GD24991+0167659GE19AGL   +99999+99999GF199999999999005791999999MA1100585099905REMMET08101/06/25 15:45:02 METAR KMMU 062045Z 04006KT 10SM BKN019 OVC055 M01/M04 A2970 RMKEQDR01   M017TMP046R02   M047DPT046
0180724097547382025010621127+40800-074417FM-15+0057KMMU V0200405N00155016765MN0160935N5-00105-00405999999ADDGA1085+016765999GD14991+0167659GE19AGL   +99999+99999GF199999999999016761999999MA1100585099905REMMET07401/06/25 16:12:02 METAR KMMU 062112Z 04003KT 10SM OVC055 M01/M04 A2970 RMK
0253724097547382025010621457+40800-074417FM-15+0057KMMU V0209999C00005022865MN0160935N5-0010C-0040C999999ADDGA1045+016765999GA2085+022865999GD12991+0167659GD24991+0228659GE19AGL   +99999+99999GF199999999999016761999999MA1100545099865REMMET08101/06/25 16:45:02 METAR KMMU 062145Z 00000KT 10SM SCT055 OVC075 M01/M04 A2969 RMKEQDR01   M017TMP046R02   M047DPT046
0291724097547382025010622457+40800-074417FM-15+0057KMMU V0200105N00365027435MN0160935N5-0010C-0040C999999ADDGA1045+022865999GA2075+027435999GA3085+033535999GD12991+0228659GD23991+0274359GD34991+0335359GE19AGL   +99999+99999GF199999999999022861999999MA1100515099835REMMET08801/06/25 17:45:02 METAR KMMU 062245Z 01007KT 10SM SCT075 BKN090 OVC110 M01/M04 A2968 RMKEQDR01   M017TMP046R02   M047DPT046
0226724097547382025010623457+40800-074417FM-15+0057KMMU V0200105N00365027435MN0160935N5-0010C-0040C999999ADDGA1085+027435999GD14991+0274359GE19AGL   +99999+99999GF199999999999027431999999MA1100445099765OC100775REMMET07701/06/25 18:45:02 METAR KMMU 062345Z 01007G15KT 10SM OVC090 M01/M04 A2966 RMKEQDR01   M017TMP046R02   M047DPT046
0226724097547382025010700457+40800-074417FM-15+0057KMMU V0203505N00465033535MN0160935N5-0020C-0060C999999ADDGA1075+033535999GD13991+0335359GE19AGL   +99999+99999GF199999999999033531999999MA1100415099735OC100935REMMET07701/06/25 19:45:01 METAR KMMU 070045Z 35009G18KT 10SM BKN110 M02/M06 A2965 RMKEQDR01   M027TMP046R02   M067DPT046
0226724097547382025010701507+40800-074417FM-15+0057KMMU V0203605N00415033535MN0160935N5-0030C-0070C999999ADDGA1085+033535999GD14991+0335359GE19AGL   +99999+99999GF199999999999033531999999MA1100415099735OC101035REMMET07701/06/25 20:50:01 METAR KMMU 070150Z 36008G20KT 10SM OVC110 M03/M07 A2965 RMKEQDR01   M037TMP046R02   M077DPT046
0226724097547382025010702457+40800-074417FM-15+0057KMMU V0200105N00575033535MN0160935N5-0040C-0100C999999ADDGA1085+033535999GD14991+0335359GE19AGL   +99999+99999GF199999999999033531999999MA1100515099835OC101085REMMET07701/06/25 21:45:01 METAR KMMU 070245Z 01011G21KT 10SM OVC110 M04/M10 A2968 RMKEQDR01   M047TMP046R02   M107DPT046
0195724097547382025010703357+40800-074417FM-15+0057KMMU V0203205N00625027435MN0160935N5-00505-01205999999ADDGA1085+027435999GD14991+0274359GE19AGL   +99999+99999GF199999999999027431999999MA1100615099935OC100775REMMET08101/06/25 22:35:02 METAR KMMU 070335Z 32012G15KT 10SM OVC090 M05/M12 A2971 RMK AO2
0230724097547382025010703557+40800-074417FM-15+0057KMMU V0203305N00675027435MN0160935N5-0060C-0120C999999ADDGA1085+027435999GD14991+0274359GE19AGL   +99999+99999GF199999999999027431999999MA1100645099965OC101085REMMET08101/06/25 22:55:02 METAR KMMU 070355Z 33013G21KT 10SM OVC090 M06/M12 A2972 RMK AO2EQDR01   M067TMP046R02   M127DPT046
0195724097547382025010704157+40800-074417FM-15+0057KMMU V0203005N00465027435MN0160935N5-00605-01305999999ADDGA1085+027435999GD14991+0274359GE19AGL   +99999+99999GF199999999999027431999999MA1100685100005OC100775REMMET08101/06/25 23:15:02 METAR KMMU 070415Z 30009G15KT 10SM OVC090 M06/M13 A2973 RMK AO2
0195724097547382025010704357+40800-074417FM-15+0057KMMU V0203005N00775030485MN0160935N5-00705-01405999999ADDGA1085+030485999GD14991+0304859GE19AGL   +99999+99999GF199999999999030481999999MA1100755100065OC101035REMMET08101/06/25 23:35:02 METAR KMMU 070435Z 30015G20KT 10SM OVC100 M07/M14 A2975 RMK AO2
0268724097547382025010704557+40800-074417FM-15+0057KMMU V0203005N00625036585MN0160935N5-0080C-0140C999999ADDGA1045+030485999GA2075+036585999GD12991+0304859GD23991+0365859GE19AGL   +99999+99999GF199999999999030481999999MA1100785100105OC101085REMMET08801/06/25 23:55:02 METAR KMMU 070455Z 30012G21KT 10SM SCT100 BKN120 M08/M14 A2976 RMK AO2EQDR01   M087TMP046R02   M147DPT046
002772409754738202501070459O+40800-074417SOD  +0057KMMU V020999999999999999999999999999+99999+99999999999ADDAT1AU18SN  5AT2AU13BR  5
0214724097547382025010705157+40800-074417FM-15+0057KMMU V0203105V005752200059N0160935N5-00805-01405999999ADDGA1045+036585999GD12991+0365859GE19AGL   +99999+99999GF104995999999036581999999MA1100785100105OC101085REMMET08101/07/25 00:15:02 METAR KMMU 070515Z 31011G21KT 10SM SCT120 M08/M14 A2976 RMK AO2EQDD01      0ADE726
0170724097547382025010705357+40800-074417FM-15+0057KMMU V0203205V005152200059N0160935N5-00805-01405999999ADDGA1005+999999999GD10991+9999999GF100991999999999999999999MA1100815100135OC100775REMMET07801/07/25 00:35:02 METAR KMMU 070535Z 32010G15KT 10SM CLR M08/M14 A2977 RMK AO2
0246724097547382025010705557+40800-074417FM-15+0057KMMU V0203405N004652200059N0160935N5-0080C-0140C999999ADDGA1045+009755999GD12991+0097559GE19AGL   +99999+99999GF104995999999009751999999MA1100785100105OC100935REMMET08101/07/25 00:55:02 METAR KMMU 070555Z 34009G18KT 10SM SCT032 M08/M14 A2976 RMK AO2EQDR01   M087TMP046R02   M147DPT046D01      0ADE726
0195724097547382025010706157+40800-074417FM-15+0057KMMU V0203305N00365009755MN0160935N5-00805-01405999999ADDGA1075+009755999GD13991+0097559GE19AGL   +99999+99999GF199999999999009751999999MA1100785100105OC100825REMMET08101/07/25 01:15:02 METAR KMMU 070615Z 33007G16KT 10SM BKN032 M08/M14 A2976 RMK AO2
0214724097547382025010706357+40800-074417FM-15+0057KMMU V0203205N006252200059N0160935N5-00805-01405999999ADDGA1045+009755999GD12991+0097559GE19AGL   +99999+99999GF104995999999009751999999MA1100785100105OC100935REMMET08101/07/25 01:35:02 METAR KMMU 070635Z 32012G18KT 10SM SCT032 M08/M14 A2976 RMK AO2EQDD01      0ADE726
0205724097547382025010706557+40800-074417FM-15+0057KMMU V0203105V007752200059N0160935N5-0080C-0140C999999ADDGA1005+999999999GD10991+9999999GF100991999999999999999999MA1100755100065OC101245REMMET07801/07/25 01:55:02 METAR KMMU 070655Z 31015G24KT 10SM CLR M08/M14 A2975 RMK AO2EQDR01   M087TMP046R02   M147DPT046
0214724097547382025010707157+40800-074417FM-15+0057KMMU V0203205N005752200059N0160935N5-00705-01405999999ADDGA1045+010365999GD12991+0103659GE19AGL   +99999+99999GF104995999999010361999999MA1100815100135OC100985REMMET08101/07/25 02:15:02 METAR KMMU 070715Z 32011G19KT 10SM SCT034 M07/M14 A2977 RMK AO2EQDD01      0ADE726
0214724097547382025010707357+40800-074417FM-15+0057KMMU V0203205N007752200059N0160935N5-00705-01405999999ADDGA1045+010365999GD12991+0103659GE19AGL   +99999+99999GF104995999999010361999999MA1100815100135OC101085REMMET08101/07/25 02:35:02 METAR KMMU 070735Z 32015G21KT 10SM SCT034 M07/M14 A2977 RMK AO2EQDD01      0ADE726
0246724097547382025010707557+40800-074417FM-15+0057KMMU V0203205N007252200059N0160935N5-0070C-0140C999999ADDGA1045+010365999GD12991+0103659GE19AGL   +99999+99999GF104995999999010361999999MA1100815100135OC101135REMMET08101/07/25 02:55:02 METAR KMMU 070755Z 32014G22KT 10SM SCT034 M07/M14 A2977 RMK AO2EQDR01   M077TMP046R02   M147DPT046D01      0ADE726
0195724097547382025010708157+40800-074417FM-15+0057KMMU V0203305N00675010365MN0160935N5-00705-01305999999ADDGA1075+010365999GD13991+0103659GE19AGL   +99999+99999GF199999999999010361999999MA1100815100135OC100935REMMET08101/07/25 03:15:02 METAR KMMU 070815Z 33013G18KT 10SM BKN034 M07/M13 A2977 RMK AO2
0214724097547382025010708357+40800-074417FM-15+0057KMMU V0203205N005752200059N0160935N5-00705-01405999999ADDGA1045+010365999GD12991+0103659GE19AGL   +99999+99999GF104995999999010361999999MA1100815100135OC100985REMMET08101/07/25 03:35:02 METAR KMMU 070835Z 32011G19KT 10SM SCT034 M07/M14 A2977 RMK AO2EQDD01      0ADE726
0246724097547382025010708557+40800-074417FM-15+0057KMMU V0203205N005152200059N0160935N5-0070C-0140C999999ADDGA1045+011285999GD12991+0112859GE19AGL   +99999+99999GF104995999999011281999999MA1100815100135OC101085REMMET08101/07/25 03:55:02 METAR KMMU 070855Z 32010G21KT 10SM SCT037 M07/M14 A2977 RMK AO2EQDR01   M077TMP046R02   M147DPT046D01      0ADE726
0214724097547382025010709157+40800-074417FM-15+0057KMMU V0203005N006252200059N0160935N5-00705-01305999999ADDGA1045+011285999GD12991+0112859GE19AGL   +99999+99999GF104995999999011281999999MA1100815100135OC100935REMMET08101/07/25 04:15:02 METAR KMMU 070915Z 30012G18KT 10SM SCT037 M07/M13 A2977 RMK AO2EQDD01      0ADE726
0195724097547382025010709357+40800-074417FM-15+0057KMMU V0203205N00515011285MN0160935N5-00605-01305999999ADDGA1075+011285999GD13991+0112859GE19AGL   +99999+99999GF199999999999011281999999MA1100855100175OC100885REMMET08101/07/25 04:35:02 METAR KMMU 070935Z 32010G17KT 10SM BKN037 M06/M13 A2978 RMK AO2
0219724097547382025010709557+40800-074417FM-15+0057KMMU V0203105N00415011285MN0160935N5-0060C-0130C999999ADDGA1085+011285999GD14991+0112859GE19AGL   +99999+99999GF199999999999011281999999MA1100855100175REMMET07801/07/25 04:55:02 METAR KMMU 070955Z 31008KT 10SM OVC037 M06/M13 A2978 RMK AO2EQDR01   M067TMP046R02   M137DPT046
0184724097547382025010710157+40800-074417FM-15+0057KMMU V0203105N00365011895MN0160935N5-00605-01405999999ADDGA1085+011895999GD14991+0118959GE19AGL   +99999+99999GF199999999999011891999999MA1100885100205REMMET07801/07/25 05:15:02 METAR KMMU 071015Z 31007KT 10SM OVC039 M06/M14 A2979 RMK AO2
0214724097547382025010710357+40800-074417FM-15+0057KMMU V0203105N005152200059N0160935N5-00605-01405999999ADDGA1045+011895999GD12991+0118959GE19AGL   +99999+99999GF104995999999011891999999MA1100915100235OC100775REMMET08101/07/25 05:35:02 METAR KMMU 071035Z 31010G15KT 10SM SCT039 M06/M14 A2980 RMK AO2EQDD01      0ADE726
0246724097547382025010710557+40800-074417FM-15+0057KMMU V0202905N006252200059N0160935N5-0060C-0140C999999ADDGA1045+012505999GD12991+0125059GE19AGL   +99999+99999GF104995999999012501999999MA1100915100235OC100885REMMET08101/07/25 05:55:01 METAR KMMU 071055Z 29012G17KT 10SM SCT041 M06/M14 A2980 RMK AO2EQDR01   M067TMP046R02   M147DPT046D01      0ADE726
0214724097547382025010711157+40800-074417FM-15+0057KMMU V0203105N005752200059N0160935N5-00605-01405999999ADDGA1045+012505999GD12991+0125059GE19AGL   +99999+99999GF104995999999012501999999MA1100955100275OC101185REMMET08101/07/25 06:15:01 METAR KMMU 071115Z 31011G23KT 10SM SCT041 M06/M14 A2981 RMK AO2EQDD01      0ADE726
0170724097547382025010711357+40800-074417FM-15+0057KMMU V0203005N003152200059N0160935N5-00605-01305999999ADDGA1005+999999999GD10991+9999999GF100991999999999999999999MA1100955100275OC100725REMMET07801/07/25 06:35:01 METAR KMMU 071135Z 30006G14KT 10SM CLR M06/M13 A2981 RMK AO2
0242724097547382025010711457+40800-074417FM-15+0057KMMU V0203205N003652200059N0160935N5-0060C-0120C999999ADDGA1045+012195999GD12991+0121959GE19AGL   +99999+99999GF104995999999012191999999MA1100955100275OC100775REMMET07701/07/25 06:45:01 METAR KMMU 071145Z 32007G15KT 10SM SCT040 M06/M12 A2981 RMKEQDR01   M067TMP046R02   M127DPT046D01      0ADE726
0242724097547382025010712457+40800-074417FM-15+0057KMMU V0203105N005752200059N0160935N5-0060C-0110C999999ADDGA1025+012805999GD11991+0128059GE19AGL   +99999+99999GF102995999999012801999999MA1100985100305OC101085REMMET07701/07/25 07:45:01 METAR KMMU 071245Z 31011G21KT 10SM FEW042 M06/M11 A2982 RMKEQDR01   M067TMP046R02   M117DPT046D01      0ADE726
0242724097547382025010713457+40800-074417FM-15+0057KMMU V0203205N007752200059N0160935N5-0050C-0130C999999ADDGA1045+012505999GD12991+0125059GE19AGL   +99999+99999GF104995999999012501999999MA1101085100405OC101185REMMET07701/07/25 08:45:02 METAR KMMU 071345Z 32015G23KT 10SM SCT041 M05/M13 A2985 RMKEQDR01   M057TMP046R02   M137DPT046D01      0ADE726
0258724097547382025010714457+40800-074417FM-15+0057KMMU V0203105N004652200059N0160935N5-0040C-0120C999999ADDGA1045+013725999GD12991+0137259GE19AGL   +99999+99999GF104995999999013721999999MA1101125100445OC100517REMMET07701/07/25 09:45:02 METAR KMMU 071445Z 31009G10KT 10SM SCT045 M04/M12 A2986 RMKEQDR01   M047TMP046R02   M127DPT046R03 G10KT7OCW039D01      0ADE726
0242724097547382025010715497+40800-074417FM-15+0057KMMU V0203105N005152200059N0160935N5-0040C-0110C999999ADDGA1045+013725999GD12991+0137259GE19AGL   +99999+99999GF104995999999013721999999MA1101085100405OC101445REMMET07701/07/25 10:49:02 METAR KMMU 071549Z 31010G28KT 10SM SCT045 M04/M11 A2985 RMKEQDR01   M047TMP046R02   M117DPT046D01      0ADE726
0242724097547382025010716457+40800-074417FM-15+0057KMMU V0203205N007752200059N0160935N5-0020C-0100C999999ADDGA1045+013725999GD12991+0137259GE19AGL   +99999+99999GF104995999999013721999999MA1101025100335OC101705REMMET07701/07/25 11:45:02 METAR KMMU 071645Z 32015G33KT 10SM SCT045 M02/M10 A2983 RMKEQDR01   M027TMP046R02   M107DPT046D01      0ADE726
0242724097547382025010717457+40800-074417FM-15+0057KMMU V0203405N004652200059N0160935N5-0010C-0100C999999ADDGA1045+014025999GD12991+0140259GE19AGL   +99999+99999GF104995999999014021999999MA1100955100275OC101345REMMET07701/07/25 12:45:02 METAR KMMU 071745Z 34009G26KT 10SM SCT046 M01/M10 A2981 RMKEQDR01   M017TMP046R02   M107DPT046D01      0ADE726
0242724097547382025010718457+40800-074417FM-15+0057KMMU V0203205N007252200059N0160935N5+0000C-0090C999999ADDGA1045+014635999GD12991+0146359GE19AGL   +99999+99999GF104995999999014631999999MA1101025100335OC101445REMMET07701/07/25 13:45:02 METAR KMMU 071845Z 32014G28KT 10SM SCT048 M00/M09 A2983 RMKEQDR01   M007TMP046R02   M097DPT046D01      0ADE726
0241724097547382025010719457+40800-074417FM-15+0057KMMU V0203305N007752200059N0160935N5+0000C-0110C999999ADDGA1045+015245999GD12991+0152459GE19AGL   +99999+99999GF104995999999015241999999MA1101055100375OC101655REMMET07601/07/25 14:45:01 METAR KMMU 071945Z 33015G32KT 10SM SCT050 00/M11 A2984 RMKEQDR01    007TMP046R02   M117DPT046D01      0ADE726
0241724097547382025010720457+40800-074417FM-15+0057KMMU V0203305N009852200059N0160935N5+0000C-0100C999999ADDGA1045+015245999GD12991+0152459GE19AGL   +99999+99999GF104995999999015241999999MA1101225100545OC101495REMMET07601/07/25 15:45:02 METAR KMMU 072045Z 33019G29KT 10SM SCT050 00/M10 A2989 RMKEQDR01    007TMP046R02   M107DPT046D01      0ADE726
0242724097547382025010721507+40800-074417FM-15+0057KMMU V0203005N007252200059N0160935N5-0020C-0100C999999ADDGA1045+014335999GD12991+0143359GE19AGL   +99999+99999GF104995999999014331999999MA1101325100645OC101035REMMET07701/07/25 16:50:02 METAR KMMU 072150Z 30014G20KT 10SM SCT047 M02/M10 A2992 RMKEQDR01   M027TMP046R02   M107DPT046D01      0ADE726
0242724097547382025010722457+40800-074417FM-15+0057KMMU V0203205N005152200059N0160935N5-0020C-0100C999999ADDGA1045+014335999GD12991+0143359GE19AGL   +99999+99999GF104995999999014331999999MA1101465100775OC101295REMMET07701/07/25 17:45:02 METAR KMMU 072245Z 32010G25KT 10SM SCT047 M02/M10 A2996 RMKEQDR01   M027TMP046R02   M107DPT046D01      0ADE726
0242724097547382025010723457+40800-074417FM-15+0057KMMU V0203105N006752200059N0160935N5-0030C-0100C999999ADDGA1045+015245999GD12991+0152459GE19AGL   +99999+99999GF104995999999015241999999MA1101465100775OC101345REMMET07701/07/25 18:45:02 METAR KMMU 072345Z 31013G26KT 10SM SCT050 M03/M10 A2996 RMKEQDR01   M037TMP046R02   M107DPT046D01      0ADE726
0242724097547382025010800457+40800-074417FM-15+0057KMMU V0203205N008852200059N0160935N5-0030C-0100C999999ADDGA1045+013115999GD12991+0131159GE19AGL   +99999+99999GF104995999999013111999999MA1101525100845OC101345REMMET07701/07/25 19:45:01 METAR KMMU 080045Z 32017G26KT 10SM SCT043 M03/M10 A2998 RMKEQDR01   M037TMP046R02   M107DPT046D01      0ADE726
