0228724070937302025010100004+39450-074567FM-12+002099999V0201101N005719999999N016000199+01001+00781100291ADDAA106001031GA1999+012501999GE19AGL   +99999+99999GF108991999999012501999999KA1120M+01331KA2120N-00211MA1999999099881MD1810501+9999REMSYN08672407 12666 81111 10100 20078 39988 40029 58050 60011 92354 333 10133 21021 555 90100=
0259724070937302025010100544+39458-074577FM-15+002399999V0201301N005110118919N012875199+01111+00831100131ADDAA101000531AW1611GD12991+0094519GD23991+0118919GD34991+0213419GE19AGL   +99999+99999GF199999999999009451999999MA1100141999999OC100931REMMET114METAR KACY 010054Z 13010G18KT 8SM -RA SCT031 BKN039 OVC070 11/08 A2957 RMK AO2 RAB02E18B43 SLP013 P0002 T01110083=
0316724070937302025010101544+39458-074577FM-15+002399999V0202301N008810115819N004828199+01221+01001100231ADDAA101003331AW1101AW2631GD12991+0079219GD23991+0115819GD33991+0152419GE19AGL   +99999+99999GF199999999999007921999999MA1100241999999OC101601OD149901591230REMMET151METAR KACY 010154Z AUTO 23017G31KT 3SM +RA BR SCT026 BKN038 BKN050 12/10 A2960 RMK AO2 PK WND 23031/0149 WSHFT 0138 PRESRR SLP023 P0013 T01220100 TSNO=
0292724070937302025010102014+39458-074577FM-16+002399999V0202401N005710146319N009656199+01171+00941999999ADDAA101000231AW1101AW2611GD11991+0085319GD22991+0118919GD33991+0146319GE19AGL   +99999+99999GF199999999999008531999999MA1100201999999OC101441OD149901331230REMMET127SPECI KACY 010201Z 24011G28KT 6SM -RA BR FEW028 SCT039 BKN048 12/09 A2959 RMK AO2 PK WND 23026/0155 WSHFT 0141 P0001 T01170094=
0304724070937302025010102544+39458-074577FM-15+002399999V0202001N002612200059N016093199+01001+00781100001ADDAA101000531AA203004391GD12991+0228619GE19AGL   +99999+99999GF104995999999022861999999MA1100001999999MD1810281+9999OD149901331230REMMET129METAR KACY 010254Z 20005KT 10SM SCT075 10/08 A2953 RMK AO2 PK WND 23026/0155 WSHFT 0141 RAE16 SLP000 P0002 60017 T01000078 58028=EQDQ01  00438PRCP03D01      0ADE726
0186724070937302025010103004+39450-074567FM-12+002099999V0202001N002612200019N016000199+01001+00781100001ADDAA103004031GA1999+022501999GE19AGL   +99999+99999GF104991999999022501999999MA1999999099581MD1810281+9999REMSYN07072407 12866 42005 10100 20078 39958 40000 58028 60047 90254 555 90103=
0243724070937302025010103544+39458-074577FM-15+002399999V0202001N004110243819N016093199+01001+00781099951ADDAA101000231GD12991+0167619GD23991+0243819GD34991+0289619GE19AGL   +99999+99999GF199999999999016761999999MA1099971999999REMMET112METAR KACY 010354Z 20008KT 10SM SCT055 BKN080 OVC095 10/08 A2952 RMK AO2 RAB18E47 PRESFR SLP995 P0001 T01000078=
0162724070937302025010104544+39458-074577FM-15+002399999V0202301N002612200019N016093199+00891+00721099861ADDGF100991999999999999999999KA1240M+01391KA2240N-00221MA1099861999999REMMET083METAR KACY 010454Z 23005KT 10SM CLR 09/07 A2949 RMK AO2 SLP986 T00890072 401391022=
1053724070937302025010104596+39452-074567SOD  +0020KACY V030999999999999999999999999999+99999+99999999999ADDAA12400589AAJ100009I99999999AN102400009IAT1AW16RA  1AT2AW13BR  1AX1016246AX2086246KA1240M+01395KA2240N-00215MG1999999099834OE11240160923020495OE22240111822020505OE33240034499999995RH1024X088D4RH2024N043D4RH3024M070D4REMSOD74224 HR PRECIPITATION (IN): 0.23 WEATHER(CODE):1,8  24 HR MAX TEMP (F):57 24 HR MAX TEMP TIME (LST):2049 24 HR MIN TEMP (F):28 24 HR MIN TEMP TIME (LST):0711 MINIMUM SEA LEVEL PRESSURE:29.48 TIME OF OCCURRENCE:2340 PEAK WIND SPEED (MPH):36  PEAK WIND DIR (DEG):230 PEAK WIND TIME (LST):2049  FASTEST 2MIN SPEED (MPH):25 FASTEST 2MIN DIR (DEG):220 FASTEST 2MIN TIME (LST):2050 AVERAGE WIND SPEED (MPH): 7.7 24 HR AVG TEMP (F):43 DEPART FROM NORMAL:  10 HEATING DEGREE DAYS: 22 COOLING DEGREE DAYS:  0 LATEST DAY MAX TEMP (0700-1900 LST): 56 LATEST NIGHT MIN TEMP(1900-0800 LST):28 HOURLY INCREMENTAL PRECIPITATION VALUES (IN):0.00 0.00 0.00 0.00 0.00 0.00 0.00 0.00 0.00 0.00 0.00 0.00 0.00 0.00 0.00 0.00 0.00T     0.05 0.04 0.12 0.01 0.01 0.00EQDR01  0.237AAP092R02   1,87AXW092R03   1,87AXW092R04     N7GJS072R05     N7GKS075
0218724070937302025010104596+39452-074567SOM  +0020KACY V030999999999999999999999999999+99999+99999999999ADDAD1003059101199999999IAE116I05I02I01IAK100009999999IAM100004242499999999PAN174400003IKB1240N-0200IKB2240M+0839IKB3240A+0317IKC1N9-0139239999IKC2M9+0172299999IKE101I00I22I00IMH110203U10230UMK110474140954I09983111754I
0260724070937302025010105547+39452-074567FM-15+0020KACY V0202305N003152200059N0160935N5+00895+00725099895ADDAA101000095AA206004691GA1005+999999999GD10991+9999999GF100991999999999999999999KA1060M+01391KA2060N+00891MA1099905099665MD1590119+9999REMMET11401/01/25 00:54:02 METAR KACY 010554Z 23006KT 10SM CLR 09/07 A2950 RMK AO2 SLP989 60018 T00890072 10139 20089 55011
0164724070937302025010106004+39450-074567FM-12+002099999V0202301N003119999999N016000199+00891+00721099891ADDAA106005031KA1240M+01391KA2240N-00211MA1999999099481MD1510111+9999REMSYN08672407 12966 02306 10089 20072 39948 49989 55011 60051 90554 333 10139 21021 555 90106=
0204724070937302025010106377+39452-074567FM-16+0020KACY V0202605N00465002745MN0160935N5+00945+00725999999ADDGA1075+002745999GD13991+0027451GE19AGL   +99999+99999GF199999999999002741999999MA1099975099735REMMET09801/01/25 01:37:02 SPECI KACY 010637Z 26009KT 10SM BKN009 09/07 A2952 RMK AO2 CIG 007V012 T00940072
0222724070937302025010106547+39452-074567FM-15+0020KACY V0202705N00465002445MN0160935N5+00895+00725099935ADDAA101000095GA1075+002445999GD13991+0024451GE19AGL   +99999+99999GF199999999999002441999999MA1099935099695REMMET10501/01/25 01:54:02 METAR KACY 010654Z 27009KT 10SM BKN008 09/07 A2951 RMK AO2 CIG 006V010 SLP993 T00890072
0210724070937302025010107547+39452-074567FM-15+0020KACY V0202605N00625001525MN0160935N5+00835+00725100025ADDAA101000095GA1085+001525999GD14991+0015259GE19AGL   +99999+99999GF199999999999001521999999MA1100035099805REMMET09301/01/25 02:54:02 METAR KACY 010754Z 26012KT 10SM OVC005 08/07 A2954 RMK AO2 SLP002 T00830072
0230724070937302025010108547+39452-074567FM-15+0020KACY V0202605N00415001525MN0160935N5+00835+00675100025ADDAA101000095GA1085+001525999GD14991+0015259GE19AGL   +99999+99999GF199999999999001521999999MA1100035099805MD1190139+9999REMMET09901/01/25 03:54:02 METAR KACY 010854Z 26008KT 10SM OVC005 08/07 A2954 RMK AO2 SLP002 T00830067 51013
0169724070937302025010109004+39450-074567FM-12+002099999V0202601N004119999999N016000199+00831+00671100021ADDGA1999+001501999GE19AGL   +99999+99999GF108991999999001501999999MA1999999099611MD1110131+9999REMSYN06472407 32266 82608 10083 20067 39961 40002 51013 90854 555 90109=
0248724070937302025010109547+39452-074567FM-15+0020KACY V0202605N00465001835MN0160935N5+00835+00675100045ADDAA101000095GA1075+001835999GA2085+033535999GD13991+0018359GD24991+0335359GE19AGL   +99999+99999GF199999999999001831999999MA1100075099835REMMET10001/01/25 04:54:02 METAR KACY 010954Z 26009KT 10SM BKN006 OVC110 08/07 A2955 RMK AO2 SLP004 T00830067
0230724070937302025010110147+39452-074567FM-16+0020KACY V0202605N00465033535MN0160935N5+00835+00675999999ADDGA1045+001835999GA2085+033535999GD12991+0018359GD24991+0335359GE19AGL   +99999+99999GF199999999999001831999999MA1100075099835REMMET09301/01/25 05:14:02 SPECI KACY 011014Z 26009KT 10SM SCT006 OVC110 08/07 A2955 RMK AO2 T00830067
0248724070937302025010110547+39452-074567FM-15+0020KACY V0202505N00365027435MN0160935N5+00785+00675100065ADDAA101000095GA1025+018295999GA2085+027435999GD11991+0182959GD24991+0274359GE19AGL   +99999+99999GF199999999999018291999999MA1100075099835REMMET10001/01/25 05:54:02 METAR KACY 011054Z 25007KT 10SM FEW060 OVC090 08/07 A2955 RMK AO2 SLP006 T00780067
0290724070937302025010111547+39452-074567FM-15+0020KACY V0202405N00315036585MN0160935N5+00835+00615100095ADDAA101000095AA224005891GA1085+036585999GD14991+0365859GE19AGL   +99999+99999GF199999999999036581999999KA1060M+00941KA2060N+00781MA1100105099865MD1390079+9999REMMET12201/01/25 06:54:02 METAR KACY 011154Z 24006KT 10SM OVC120 08/06 A2956 RMK AO2 SLP009 70023 T00830061 10094 20078 53007 TSNO
0212724070937302025010112004+39450-074567FM-12+002099999V0202401N003119999999N016000199+00831+00611100091ADDAA124005831GE19AGL   +99999+99999GF108991999999999999999999KA1240M+01391KA2240N+00781MA1999999099681MD1310071+9999REMSYN08672407 35966 82406 10083 20061 39968 40009 53007 91154 333 10139 20078 70058 555 90112=
0272724070937302025010112547+39452-074567FM-15+0020KACY V0202605N004152200059N0160935N5+00835+00565100145ADDAA101000095GA1025+016765999GA2045+033535999GD11991+0167659GD22991+0335359GE19AGL   +99999+99999GF104995999999016761999999MA1100175099935REMMET10501/01/25 07:54:02 METAR KACY 011254Z 26008KT 10SM FEW055 SCT110 08/06 A2958 RMK AO2 SLP014 T00830056 TSNOEQDD01      0ADE726
0240724070937302025010113547+39452-074567FM-15+0020KACY V0202605N006752200059N0160935N5+00945+00445100195ADDAA101000095GA1025+018295999GD11991+0182959GE19AGL   +99999+99999GF102995999999018291999999MA1100205099975OC101035REMMET09601/01/25 08:54:02 METAR KACY 011354Z 26013G20KT 10SM FEW060 09/04 A2959 RMK AO2 SLP019 T00940044EQDD01      0ADE726
0248724070937302025010114547+39452-074567FM-15+0020KACY V0202705N007752200059N0160935N5+01005+00335100265ADDAA101000095GA1005+999999999GD10991+9999999GF100991999999999999999999MA1100275100035MD1390179+9999OC101495OD149901491270REMMET11701/01/25 09:54:02 METAR KACY 011454Z 27015G29KT 10SM CLR 10/03 A2961 RMK AO2 PK WND 27029/1447 SLP026 T01000033 53017
0129724070937302025010115004+39450-074567FM-12+002099999V0202701N007719999999N016000199+01001+00331100261ADDMA1999999099851MD1310171+9999OD149901491999REMSYN07472407 32966 02715 10100 20033 39985 40026 53017 91454 333 91029 555 90115=
0272724070937302025010115547+39452-074567FM-15+0020KACY V0202705N008852200059N0160935N5+01005+00065100315ADDAA101000095GA1025+010365999GD11991+0103659GE19AGL   +99999+99999GF102995999999010361999999MA1100305100075OC101395OD149901751290REMMET11401/01/25 10:54:02 METAR KACY 011554Z 27017G27KT 10SM FEW034 10/01 A2962 RMK AO2 PK WND 29034/1540 SLP031 T01000006EQDD01      0ADE726
0291724070937302025010116547+39452-074567FM-15+0020KACY V0202805N01035011895MN0160935N5+00945+00005100285ADDAA101000095GA1075+011895999GA2085+014335999GD13991+0118959GD24991+0143359GE19AGL   +99999+99999GF199999999999011891999999MA1100305100075OC101545OD149901691290REMMET12101/01/25 11:54:02 METAR KACY 011654Z 28020G30KT 10SM BKN039 OVC047 09/00 A2962 RMK AO2 PK WND 29033/1616 SLP028 T00940000
0312724070937302025010117547+39452-074567FM-15+0020KACY V0202905N00985012505MN0160935N5+00895-00065100335ADDAA101000095GA1085+012505999GD14991+0125059GE19AGL   +99999+99999GF199999999999012501999999KA1060M+01061KA2060N+00831MA1100345100105MD1390079+9999OC101495OD149901591290REMMET13301/01/25 12:54:02 METAR KACY 011754Z 29019G29KT 10SM OVC041 09/M01 A2963 RMK AO2 PK WND 29031/1657 SLP033 T00891006 10106 20083 53007
0231724070937302025010118004+39450-074567FM-12+002099999V0202901N009819999999N016000199+00891-00061100331ADDGA1999+012501999GE19AGL   +99999+99999GF108991999999012501999999KA1120M+01061KA2120N+00831MA1999999099921MD1310071+9999OD149901491999REMSYN08672407 32666 82919 10089 21006 39992 40033 53007 91754 333 10106 20083 91029 555 90118=
0253724070937302025010118547+39452-074567FM-15+0020KACY V0203005N01245014635MN0160935N5+01115+00005100355ADDAA101000095GA1085+014635999GD14991+0146359GE19AGL   +99999+99999GF199999999999014631999999MA1100375100135OC101655OD149901641310REMMET11401/01/25 13:54:02 METAR KACY 011854Z 30024G32KT 10SM OVC048 11/00 A2964 RMK AO2 PK WND 31032/1853 SLP035 T01110000
0273724070937302025010119547+39452-074567FM-15+0020KACY V0202905N010352200059N0160935N5+01065-00115100475ADDAA101000095GA1045+015245999GD12991+0152459GE19AGL   +99999+99999GF104995999999015241999999MA1100475100245OC101905OD149902261290REMMET11501/01/25 14:54:02 METAR KACY 011954Z 29020G37KT 10SM SCT050 11/M01 A2967 RMK AO2 PK WND 29044/1940 SLP047 T01061011EQDD01      0ADE726
0274724070937302025010120547+39452-074567FM-15+0020KACY V0202905N00885015245MN0160935N5+00895-00225100625ADDAA101000095GA1075+015245999GD13991+0152459GE19AGL   +99999+99999GF199999999999015241999999MA1100645100405MD1390299+9999OC101495OD149901951300REMMET12101/01/25 15:54:02 METAR KACY 012054Z 29017G29KT 10SM BKN050 09/M02 A2972 RMK AO2 PK WND 30038/2011 SLP062 T00891022 53029
0193724070937302025010121004+39450-074567FM-12+002099999V0202901N008819999999N016000199+00891-00221100621ADDGA1999+017501999GE19AGL   +99999+99999GF106991999999017501999999MA1999999100221MD1310291+9999OD149901491999REMSYN07472407 32766 62917 10089 21022 30022 40062 53029 92054 333 91029 555 90121=
0273724070937302025010121547+39452-074567FM-15+0020KACY V0202905N008852200059N0160935N5+00785-00335100715ADDAA101000095GA1045+016765999GD12991+0167659GE19AGL   +99999+99999GF104995999999016761999999MA1100715100475OC101655OD149901691310REMMET11501/01/25 16:54:02 METAR KACY 012154Z 29017G32KT 10SM SCT055 08/M03 A2974 RMK AO2 PK WND 31033/2111 SLP071 T00781033EQDD01      0ADE726
0273724070937302025010122547+39452-074567FM-15+0020KACY V0202805N009852200059N0160935N5+00725-00335100805ADDAA101000095GA1025+016765999GD11991+0167659GE19AGL   +99999+99999GF102995999999016761999999MA1100815100575OC101345OD149901691280REMMET11501/01/25 17:54:02 METAR KACY 012254Z 28019G26KT 10SM FEW055 07/M03 A2977 RMK AO2 PK WND 28033/2237 SLP080 T00721033EQDD01      0ADE726
0287724070937302025010123547+39452-074567FM-15+0020KACY V0202805N006752200059N0160935N5+00615-00395100935ADDAA101000095GA1005+999999999GD10991+9999999GF100991999999999999999999KA1060M+01111KA2060N+00611MA1100955100715MD1390309+9999OC101245OD149901691270REMMET13001/01/25 18:54:02 METAR KACY 012354Z 28013G24KT 10SM CLR 06/M04 A2981 RMK AO2 PK WND 27033/2327 SLP093 T00611039 10111 20061 53030
0167724070937302025010200004+39450-074567FM-12+002099999V0202801N006719999999N016000199+00611-00391100931ADDKA1120M+01111KA2120N+00611MA1999999100521MD1310301+9999OD149901241999REMSYN08672407 32966 02813 10061 21039 30052 40093 53030 92354 333 10111 20061 91024 555 90200=
0229724070937302025010200547+39452-074567FM-15+0020KACY V0202705N007252200059N0160935N5+00565-00335101035ADDAA101000095GA1005+999999999GD10991+9999999GF100991999999999999999999MA1101025100785OC101185OD149901591270REMMET11201/01/25 19:54:01 METAR KACY 020054Z 27014G23KT 10SM CLR 06/M03 A2983 RMK AO2 PK WND 27031/0042 SLP103 T00561033
0229724070937302025010201547+39452-074567FM-15+0020KACY V0202805N007752200059N0160935N5+00505-00335101065ADDAA101000095GA1005+999999999GD10991+9999999GF100991999999999999999999MA1101055100815OC101395OD149901491280REMMET11201/01/25 20:54:01 METAR KACY 020154Z 28015G27KT 10SM CLR 05/M03 A2984 RMK AO2 PK WND 28029/0121 SLP106 T00501033
0206724070937302025010202547+39452-074567FM-15+0020KACY V0202705N005152200059N0160935N5+00445-00395101145ADDAA101000095GA1005+999999999GD10991+9999999GF100991999999999999999999MA1101155100915MD1190219+9999REMMET09701/01/25 21:54:01 METAR KACY 020254Z 27010KT 10SM CLR 04/M04 A2987 RMK AO2 SLP114 T00441039 51021
0105724070937302025010203004+39450-074567FM-12+002099999V0202701N005119999999N016000199+00441-00391101141ADDMA1999999100731MD1110211+9999REMSYN06472407 32966 02710 10044 21039 30073 40114 51021 90254 555 90203=
0186724070937302025010203547+39452-074567FM-15+0020KACY V0202705N005752200059N0160935N5+00395-00395101175ADDAA101000095GA1005+999999999GD10991+9999999GF100991999999999999999999MA1101195100955REMMET09101/01/25 22:54:02 METAR KACY 020354Z 27011KT 10SM CLR 04/M04 A2988 RMK AO2 SLP117 T00391039
0227724070937302025010204547+39452-074567FM-15+0020KACY V0202605N007252200059N0160935N5+00395-00395101215ADDAA101000095GA1005+999999999GD10991+9999999GF100991999999999999999999KA1240M+01111KA2240N+00391MA1101225100985REMMET10601/01/25 23:54:02 METAR KACY 020454Z 26014KT 10SM CLR 04/M04 A2989 RMK AO2 SLP121 T00391039 401110039 TSNO
0879724070937302025010204596+39452-074567SOD  +0020KACY V020999999999999999999999999999+99999+99999999999ADDAA124000095KA1240M+01115KA2240N+00395MG1100204099834OE11240228029014405OE22240156529014405OE33240069399999995REMSOD75824 HR PRECIPITATION (IN): 0.00 24 HR MAX TEMP (F):52 24 HR MAX TEMP TIME (LST):1356 24 HR MIN TEMP (F):39 24 HR MIN TEMP TIME (LST):2359 AVERAGE STATION PRESSURE(D):29.589 MINIMUM SEA LEVEL PRESSURE:29.48 TIME OF OCCURRENCE:0033 PEAK WIND SPEED (MPH):51  PEAK WIND DIR (DEG):290 PEAK WIND TIME (LST):1440  FASTEST 2MIN SPEED (MPH):35 FASTEST 2MIN DIR (DEG):290 FASTEST 2MIN TIME (LST):1440 AVERAGE WIND SPEED (MPH):15.5 24 HR AVG TEMP (F):46 DEPART FROM NORMAL:  13 HEATING DEGREE DAYS: 19 COOLING DEGREE DAYS:  0 LATEST DAY MAX TEMP (0700-1900 LST): 52 LATEST NIGHT MIN TEMP(1900-0800 LST):46 HOURLY INCREMENTAL PRECIPITATION VALUES (IN):0.00 0.00 0.00 0.00 0.00 0.00 0.00 0.00 0.00 0.00 0.00 0.00 0.00 0.00 0.00 0.00 0.00 0.00 0.00 0.00 0.00 0.00 0.00 0.00
0244724070937302025010205547+39452-074567FM-15+0020KACY V0202605N005752200059N0160935N5+00395-00395101235ADDAA101000095GA1005+999999999GD10991+9999999GF100991999999999999999999KA1060M+00611KA2060N+00391MA1101225100985MD1190099+9999REMMET10901/02/25 00:54:02 METAR KACY 020554Z 26011KT 10SM CLR 04/M04 A2989 RMK AO2 SLP123 T00391039 10061 20039 51009
0147724070937302025010206004+39450-074567FM-12+002099999V0202601N005719999999N016000199+00391-00391101231ADDKA1240M+00941KA2240N+00391MA1999999100791MD1110091+9999REMSYN08072407 32966 02611 10039 21039 30079 40123 51009 90554 333 10094 20039 555 90206=
0229724070937302025010206547+39452-074567FM-15+0020KACY V0202705N006252200059N0160935N5+00395-00335101295ADDAA101000095GA1005+999999999GD10991+9999999GF100991999999999999999999MA1101295101055OC101085OD149901491240REMMET11201/02/25 01:54:02 METAR KACY 020654Z 27012G21KT 10SM CLR 04/M03 A2991 RMK AO2 PK WND 24029/0630 SLP129 T00391033
0229724070937302025010207547+39452-074567FM-15+0020KACY V0202605N007752200059N0160935N5+00335-00505101375ADDAA101000095GA1005+999999999GD10991+9999999GF100991999999999999999999MA1101395101155OC101135OD149901391290REMMET11201/02/25 02:54:02 METAR KACY 020754Z 26015G22KT 10SM CLR 03/M05 A2994 RMK AO2 PK WND 29027/0726 SLP137 T00331050
0249724070937302025010208547+39452-074567FM-15+0020KACY V0202805N007752200059N0160935N5+00285-00675101455ADDAA101000095GA1005+999999999GD10991+9999999GF100991999999999999999999MA1101465101225MD1390229+9999OC101135OD149901491260REMMET11801/02/25 03:54:02 METAR KACY 020854Z 28015G22KT 10SM CLR 03/M07 A2996 RMK AO2 PK WND 26029/0826 SLP145 T00281067 53022
0129724070937302025010209004+39450-074567FM-12+002099999V0202801N007719999999N016000199+00281-00671101451ADDMA1999999101031MD1310221+9999OD149901131999REMSYN07472407 32966 02815 10028 21067 30103 40145 53022 90854 333 91022 555 90209=
0229724070937302025010209547+39452-074567FM-15+0020KACY V0202705N008252200059N0160935N5+00225-00725101535ADDAA101000095GA1005+999999999GD10991+9999999GF100991999999999999999999MA1101525101285OC101445OD149901441270REMMET11201/02/25 04:54:02 METAR KACY 020954Z 27016G28KT 10SM CLR 02/M07 A2998 RMK AO2 PK WND 27028/0948 SLP153 T00221072
0186724070937302025010210547+39452-074567FM-15+0020KACY V0202805N006252200059N0160935N5+00175-00725101555ADDAA101000095GA1005+999999999GD10991+9999999GF100991999999999999999999MA1101565101325REMMET09101/02/25 05:54:02 METAR KACY 021054Z 28012KT 10SM CLR 02/M07 A2999 RMK AO2 SLP155 T00171072
0244724070937302025010211547+39452-074567FM-15+0020KACY V0202705N004152200059N0160935N5+00115-00785101605ADDAA101000095GA1005+999999999GD10991+9999999GF100991999999999999999999KA1060M+00391KA2060N+00111MA1101595101355MD1190159+9999REMMET10901/02/25 06:54:02 METAR KACY 021154Z 27008KT 10SM CLR 01/M08 A3000 RMK AO2 SLP160 T00111078 10039 20011 51015
0147724070937302025010212004+39450-074567FM-12+002099999V0202701N004119999999N016000199+00111-00781101601ADDKA1240M+01111KA2240N+00111MA1999999101171MD1110151+9999REMSYN08072407 32966 02708 10011 21078 30117 40160 51015 91154 333 10111 20011 555 90212=
0186724070937302025010212547+39452-074567FM-15+0020KACY V0202605N004652200059N0160935N5+00115-00785101675ADDAA101000095GA1005+999999999GD10991+9999999GF100991999999999999999999MA1101665101425REMMET09101/02/25 07:54:02 METAR KACY 021254Z 26009KT 10SM CLR 01/M08 A3002 RMK AO2 SLP167 T00111078
0197724070937302025010213547+39452-074567FM-15+0020KACY V0202605N006752200059N0160935N5+00285-00725101765ADDAA101000095GA1005+999999999GD10991+9999999GF100991999999999999999999MA1101765101525OC101085REMMET09401/02/25 08:54:02 METAR KACY 021354Z 26013G21KT 10SM CLR 03/M07 A3005 RMK AO2 SLP176 T00281072
0249724070937302025010214547+39452-074567FM-15+0020KACY V0202905N011352200059N0160935N5+00395-00725101795ADDAA101000095GA1005+999999999GD10991+9999999GF100991999999999999999999MA1101795101555MD1190199+9999OC101855OD149901851280REMMET11801/02/25 09:54:02 METAR KACY 021454Z 29022G36KT 10SM CLR 04/M07 A3006 RMK AO2 PK WND 28036/1449 SLP179 T00391072 51019
0129724070937302025010215004+39450-074567FM-12+002099999V0202901N011319999999N016000199+00391-00721101791ADDMA1999999101371MD1110191+9999OD149901851999REMSYN07472407 32966 02922 10039 21072 30137 40179 51019 91454 333 91036 555 90215=
0229724070937302025010215547+39452-074567FM-15+0020KACY V0202905N008252200059N0160935N5+00565-00675101795ADDAA101000095GA1005+999999999GD10991+9999999GF100991999999999999999999MA1101795101555OC101545OD149901641290REMMET11201/02/25 10:54:02 METAR KACY 021554Z 29016G30KT 10SM CLR 06/M07 A3006 RMK AO2 PK WND 29032/1522 SLP179 T00561067
0229724070937302025010216547+39452-074567FM-15+0020KACY V0202905N011352200059N0160935N5+00565-00725101695ADDAA101000095GA1005+999999999GD10991+9999999GF100991999999999999999999MA1101695101455OC101855OD149901851300REMMET11201/02/25 11:54:02 METAR KACY 021654Z 29022G36KT 10SM CLR 06/M07 A3003 RMK AO2 PK WND 30036/1653 SLP169 T00561072
0287724070937302025010217547+39452-074567FM-15+0020KACY V0202905N009852200059N0160935N5+00615-00785101645ADDAA101000095GA1005+999999999GD10991+9999999GF100991999999999999999999KA1060M+00611KA2060N+00111MA1101635101385MD1890169+9999OC101545OD149901751300REMMET13001/02/25 12:54:02 METAR KACY 021754Z 29019G30KT 10SM CLR 06/M08 A3001 RMK AO2 PK WND 30034/1717 SLP164 T00611078 10061 20011 58016
0167724070937302025010218004+39450-074567FM-12+002099999V0202901N009819999999N016000199+00611-00781101641ADDKA1120M+00611KA2120N+00111MA1999999101201MD1810161+9999OD149901541999REMSYN08672407 32966 02919 10061 21078 30120 40164 58016 91754 333 10061 20011 91030 555 90218=
0229724070937302025010218547+39452-074567FM-15+0020KACY V0202805N010352200059N0160935N5+00565-00785101625ADDAA101000095GA1005+999999999GD10991+9999999GF100991999999999999999999MA1101635101385OC101805OD149901801300REMMET11201/02/25 13:54:02 METAR KACY 021854Z 28020G35KT 10SM CLR 06/M08 A3001 RMK AO2 PK WND 30035/1846 SLP162 T00561078
0229724070937302025010219547+39452-074567FM-15+0020KACY V0202805N008252200059N0160935N5+00565-00895101625ADDAA101000095GA1005+999999999GD10991+9999999GF100991999999999999999999MA1101635101385OC101345OD149901801280REMMET11201/02/25 14:54:02 METAR KACY 021954Z 28016G26KT 10SM CLR 06/M09 A3001 RMK AO2 PK WND 28035/1858 SLP162 T00561089
0249724070937302025010220547+39452-074567FM-15+0020KACY V0202805N007752200059N0160935N5+00395-00945101675ADDAA101000095GA1005+999999999GD10991+9999999GF100991999999999999999999MA1101665101425MD1390039+9999OC101495OD149901691280REMMET11801/02/25 15:54:02 METAR KACY 022054Z 28015G29KT 10SM CLR 04/M09 A3002 RMK AO2 PK WND 28033/2010 SLP167 T00391094 53003
0129724070937302025010221004+39450-074567FM-12+002099999V0202801N007719999999N016000199+00391-00941101671ADDMA1999999101231MD1310031+9999OD149901491999REMSYN07472407 32966 02815 10039 21094 30123 40167 53003 92054 333 91029 555 90221=
0229724070937302025010221547+39452-074567FM-15+0020KACY V0202905N007752200059N0160935N5+00285-00895101735ADDAA101000095GA1005+999999999GD10991+9999999GF100991999999999999999999MA1101735101495OC101245OD149901591270REMMET11201/02/25 16:54:02 METAR KACY 022154Z 29015G24KT 10SM CLR 03/M09 A3004 RMK AO2 PK WND 27031/2134 SLP173 T00281089
0229724070937302025010222547+39452-074567FM-15+0020KACY V0202805N008252200059N0160935N5+00225-00895101785ADDAA101000095GA1005+999999999GD10991+9999999GF100991999999999999999999MA1101795101555OC101395OD149901491270REMMET11201/02/25 17:54:02 METAR KACY 022254Z 28016G27KT 10SM CLR 02/M09 A3006 RMK AO2 PK WND 27029/2157 SLP178 T00221089
0287724070937302025010223547+39452-074567FM-15+0020KACY V0202805N007752200059N0160935N5+00175-00945101835ADDAA101000095GA1005+999999999GD10991+9999999GF100991999999999999999999KA1060M+00611KA2060N+00171MA1101835101595MD1190169+9999OC101295OD149901441290REMMET13001/02/25 18:54:02 METAR KACY 022354Z 28015G25KT 10SM CLR 02/M09 A3007 RMK AO2 PK WND 29028/2310 SLP183 T00171094 10061 20017 51016
0167724070937302025010300004+39450-074567FM-12+002099999V0202801N007719999999N016000199+00171-00941101831ADDKA1120M+00611KA2120N+00111MA1999999101401MD1110161+9999OD149901291999REMSYN08672407 32966 02815 10017 21094 30140 40183 51016 92354 333 10061 20011 91025 555 90300=
0186724070937302025010300547+39452-074567FM-15+0020KACY V0202705N005152200059N0160935N5+00115-00835101895ADDAA101000095GA1005+999999999GD10991+9999999GF100991999999999999999999MA1101905101665REMMET09101/02/25 19:54:01 METAR KACY 030054Z 27010KT 10SM CLR 01/M08 A3009 RMK AO2 SLP189 T00111083
0186724070937302025010301547+39452-074567FM-15+0020KACY V0202805N006252200059N0160935N5+00065-00785101865ADDAA101000095GA1005+999999999GD10991+9999999GF100991999999999999999999MA1101865101625REMMET09101/02/25 20:54:01 METAR KACY 030154Z 28012KT 10SM CLR 01/M08 A3008 RMK AO2 SLP186 T00061078
0231724070937302025010302547+39452-074567FM-15+0020KACY V0202805N00465015245MN0160935N5+00175-00785101865ADDAA101000095GA1085+015245999GD14991+0152459GE19AGL   +99999+99999GF199999999999015241999999MA1101865101625MD1190039+9999REMMET10001/02/25 21:54:01 METAR KACY 030254Z 28009KT 10SM OVC050 02/M08 A3008 RMK AO2 SLP186 T00171078 51003
0169724070937302025010303004+39450-074567FM-12+002099999V0202801N004619999999N016000199+00171-00781101861ADDGA1999+017501999GE19AGL   +99999+99999GF108991999999017501999999MA1999999101441MD1110031+9999REMSYN06472407 32766 82809 10017 21078 30144 40186 51003 90254 555 90303=
0211724070937302025010303547+39452-074567FM-15+0020KACY V0202805N00515016765MN0160935N5+00175-00785101845ADDAA101000095GA1085+016765999GD14991+0167659GE19AGL   +99999+99999GF199999999999016761999999MA1101835101595REMMET09401/02/25 22:54:02 METAR KACY 030354Z 28010KT 10SM OVC055 02/M08 A3007 RMK AO2 SLP184 T00171078
0247724070937302025010304547+39452-074567FM-15+0020KACY V0202805N00515016765MN0160935N5+00175-00725101825ADDAA101000095GA1085+016765999GD14991+0167659GE19AGL   +99999+99999GF199999999999016761999999KA1240M+00611KA2240N+00061MA1101835101595REMMET10401/02/25 23:54:02 METAR KACY 030454Z 28010KT 10SM OVC055 02/M07 A3007 RMK AO2 SLP182 T00171072 400610006
0879724070937302025010304596+39452-074567SOD  +0020KACY V020999999999999999999999999999+99999+99999999999ADDAA124000095KA1240M+00615KA2240N+00065MG1101424101224OE11240187828009495OE22240138629009505OE33240072499999995REMSOD75824 HR PRECIPITATION (IN): 0.00 24 HR MAX TEMP (F):43 24 HR MAX TEMP TIME (LST):1353 24 HR MIN TEMP (F):33 24 HR MIN TEMP TIME (LST):2111 AVERAGE STATION PRESSURE(D):29.950 MINIMUM SEA LEVEL PRESSURE:29.89 TIME OF OCCURRENCE:0059 PEAK WIND SPEED (MPH):42  PEAK WIND DIR (DEG):280 PEAK WIND TIME (LST):0949  FASTEST 2MIN SPEED (MPH):31 FASTEST 2MIN DIR (DEG):290 FASTEST 2MIN TIME (LST):0950 AVERAGE WIND SPEED (MPH):16.2 24 HR AVG TEMP (F):38 DEPART FROM NORMAL:   5 HEATING DEGREE DAYS: 27 COOLING DEGREE DAYS:  0 LATEST DAY MAX TEMP (0700-1900 LST): 43 LATEST NIGHT MIN TEMP(1900-0800 LST):34 HOURLY INCREMENTAL PRECIPITATION VALUES (IN):0.00 0.00 0.00 0.00 0.00 0.00 0.00 0.00 0.00 0.00 0.00 0.00 0.00 0.00 0.00 0.00 0.00 0.00 0.00 0.00 0.00 0.00 0.00 0.00
0269724070937302025010305547+39452-074567FM-15+0020KACY V0202905N00575016765MN0160935N5+00065-00725101815ADDAA101000095GA1075+016765999GD13991+0167659GE19AGL   +99999+99999GF199999999999016761999999KA1060M+00171KA2060N+00061MA1101795101555MD1690059+9999REMMET11201/03/25 00:54:02 METAR KACY 030554Z 29011KT 10SM BKN055 01/M07 A3006 RMK AO2 SLP181 T00061072 10017 20006 56005
0211724070937302025010306004+39450-074567FM-12+002099999V0202901N005719999999N016000199+00061-00721101811ADDGA1999+017501999GE19AGL   +99999+99999GF106991999999017501999999KA1240M+00391KA2240N+00061MA1999999101371MD1610051+9999REMSYN08072407 32766 62911 10006 21072 30137 40181 56005 90554 333 10039 20006 555 90306=
0279724070937302025010306547+39452-074567FM-15+0020KACY V0202805N005152200059N0160935N5+00115-00725101845ADDAA101000095GA1025+012805999GA2045+015245999GD11991+0128059GD22991+0152459GE19AGL   +99999+99999GF104995999999012801999999MA1101835101595OC100885REMMET10401/03/25 01:54:02 METAR KACY 030654Z 28010G17KT 10SM FEW042 SCT050 01/M07 A3007 RMK AO2 SLP184 T00111072EQDD01      0ADE726
0211724070937302025010307547+39452-074567FM-15+0020KACY V0202805N00365014335MN0160935N5+00065-00785101865ADDAA101000095GA1085+014335999GD14991+0143359GE19AGL   +99999+99999GF199999999999014331999999MA1101865101625REMMET09401/03/25 02:54:02 METAR KACY 030754Z 28007KT 10SM OVC047 01/M08 A3008 RMK AO2 SLP186 T00061078
0293724070937302025010308547+39452-074567FM-15+0020KACY V0203005N006752200059N0160935N5+00005-00945101845ADDAA101000095GA1045+013725999GD12991+0137259GE19AGL   +99999+99999GF104995999999013721999999MA1101835101595MD1090039+9999OC101295OD149901331310REMMET12101/03/25 03:54:02 METAR KACY 030854Z 30013G25KT 10SM SCT045 00/M09 A3007 RMK AO2 PK WND 31026/0835 SLP184 T00001094 50003EQDD01      0ADE726
0193724070937302025010309004+39450-074567FM-12+002099999V0203001N006712200019N016000199+00001-00941101841ADDGA1999+012501999GE19AGL   +99999+99999GF104991999999012501999999MA1999999101401MD1990031+9999OD149901291999REMSYN07472407 32666 43013 10000 21094 30140 40184 50003 90854 333 91025 555 90309=
0187724070937302025010309547+39452-074567FM-15+0020KACY V0202905N006252200059N0160935N5-00065-01005101815ADDAA101000095GA1005+999999999GD10991+9999999GF100991999999999999999999MA1101795101555REMMET09201/03/25 04:54:02 METAR KACY 030954Z 29012KT 10SM CLR M01/M10 A3006 RMK AO2 SLP181 T10061100
0187724070937302025010310547+39452-074567FM-15+0020KACY V0202605N003152200059N0160935N5-00115-00945101795ADDAA101000095GA1005+999999999GD10991+9999999GF100991999999999999999999MA1101795101555REMMET09201/03/25 05:54:02 METAR KACY 031054Z 26006KT 10SM CLR M01/M09 A3006 RMK AO2 SLP179 T10111094
0245724070937302025010311547+39452-074567FM-15+0020KACY V0202505N003152200059N0160935N5-00175-00895101795ADDAA101000095GA1005+999999999GD10991+9999999GF100991999999999999999999KA1060M+00111KA2060N-00171MA1101795101555MD1690059+9999REMMET11001/03/25 06:54:02 METAR KACY 031154Z 25006KT 10SM CLR M02/M09 A3006 RMK AO2 SLP179 T10171089 10011 21017 56005
0147724070937302025010312004+39450-074567FM-12+002099999V0202501N003119999999N016000199-00171-00891101791ADDKA1240M+00611KA2240N-00171MA1999999101371MD1610051+9999REMSYN08072407 32966 02506 11017 21089 30137 40179 56005 91154 333 10061 21017 555 90312=
0187724070937302025010312547+39452-074567FM-15+0020KACY V0202605N004152200059N0160935N5-00175-00945101735ADDAA101000095GA1005+999999999GD10991+9999999GF100991999999999999999999MA1101735101495REMMET09201/03/25 07:54:02 METAR KACY 031254Z 26008KT 10SM CLR M02/M09 A3004 RMK AO2 SLP173 T10171094
0186724070937302025010313547+39452-074567FM-15+0020KACY V0202405N003652200059N0160935N5+00005-00895101725ADDAA101000095GA1005+999999999GD10991+9999999GF100991999999999999999999MA1101735101495REMMET09101/03/25 08:54:02 METAR KACY 031354Z 24007KT 10SM CLR 00/M09 A3004 RMK AO2 SLP172 T00001089
0250724070937302025010314547+39452-074567FM-15+0020KACY V0202505V005152200059N0160935N5+00175-00895101695ADDAA101000095GA1025+036585999GD11991+0365859GE19AGL   +99999+99999GF102995999999036581999999MA1101695101455MD1690099+9999REMMET10001/03/25 09:54:02 METAR KACY 031454Z 25010KT 10SM FEW120 02/M09 A3003 RMK AO2 SLP169 T00171089 56009EQDD01      0ADE726
0153724070937302025010315004+39450-074567FM-12+002099999V0202501N005112200019N016000199+00171-00891101691ADDGE19AGL   +99999+99999GF102991999999999999999999MA1999999101271MD1610091+9999REMSYN06472407 32966 22510 10017 21089 30127 40169 56009 91454 555 90315=
0230724070937302025010315547+39452-074567FM-15+0020KACY V0202405N006252200059N0160935N5+00175-00945101575ADDAA101000095GA1045+030485999GD12991+0304859GE19AGL   +99999+99999GF104995999999030481999999MA1101565101325REMMET09401/03/25 10:54:02 METAR KACY 031554Z 24012KT 10SM SCT100 02/M09 A2999 RMK AO2 SLP157 T00171094EQDD01      0ADE726
0197724070937302025010316547+39452-074567FM-15+0020KACY V0202505N006252200059N0160935N5+00285-00835101365ADDAA101000095GA1005+999999999GD10991+9999999GF100991999999999999999999MA1101355101115OC100885REMMET09401/03/25 11:54:02 METAR KACY 031654Z 25012G17KT 10SM CLR 03/M08 A2993 RMK AO2 SLP136 T00281083
0244724070937302025010317547+39452-074567FM-15+0020KACY V0202705N004652200059N0160935N5+00335-00725101205ADDAA101000095GA1005+999999999GD10991+9999999GF100991999999999999999999KA1060M+00331KA2060N-00171MA1101195100955MD1890499+9999REMMET10901/03/25 12:54:02 METAR KACY 031754Z 27009KT 10SM CLR 03/M07 A2988 RMK AO2 SLP120 T00331072 10033 21017 58049
0147724070937302025010318004+39450-074567FM-12+002099999V0202701N004619999999N016000199+00331-00721101201ADDKA1120M+00331KA2120N-00171MA1999999100761MD1810491+9999REMSYN08072407 32966 02709 10033 21072 30076 40120 58049 91754 333 10033 21017 555 90318=
0211724070937302025010318547+39452-074567FM-15+0020KACY V0202505N00415016765MN0160935N5+00335-00725101085ADDAA101000095GA1075+016765999GD13991+0167659GE19AGL   +99999+99999GF199999999999016761999999MA1101085100845REMMET09401/03/25 13:54:02 METAR KACY 031854Z 25008KT 10SM BKN055 03/M07 A2985 RMK AO2 SLP108 T00331072
0287724070937302025010319547+39452-074567FM-15+0020KACY V0202405N00365018295MN0160935N5+00395-00675101045ADDAA101000095GA1025+014025999GA2075+018295999GA3085+022865999GD11991+0140259GD23991+0182959GD34991+0228659GE19AGL   +99999+99999GF199999999999014021999999MA1101055100815REMMET10801/03/25 14:54:02 METAR KACY 031954Z 24007KT 10SM FEW046 BKN060 OVC075 04/M07 A2984 RMK AO2 SLP104 T00391067
0269724070937302025010320547+39452-074567FM-15+0020KACY V0202305N00265015245MN0160935N5+00335-00565101005ADDAA101000095GA1075+015245999GA2085+018295999GD13991+0152459GD24991+0182959GE19AGL   +99999+99999GF199999999999015241999999MA1101025100785MD1690209+9999REMMET10701/03/25 15:54:02 METAR KACY 032054Z 23005KT 10SM BKN050 OVC060 03/M06 A2983 RMK AO2 SLP100 T00331056 56020
0169724070937302025010321004+39450-074567FM-12+002099999V0202301N002619999999N016000199+00331-00561101001ADDGA1999+017501999GE19AGL   +99999+99999GF108991999999017501999999MA1999999100591MD1610201+9999REMSYN06472407 32766 82305 10033 21056 30059 40100 56020 92054 555 90321=
0211724070937302025010321547+39452-074567FM-15+0020KACY V0202805N00215015245MN0160935N5+00335-00505100985ADDAA101000095GA1085+015245999GD14991+0152459GE19AGL   +99999+99999GF199999999999015241999999MA1100985100745REMMET09401/03/25 16:54:02 METAR KACY 032154Z 28004KT 10SM OVC050 03/M05 A2982 RMK AO2 SLP098 T00331050
0287724070937302025010322547+39452-074567FM-15+0020KACY V0202905N00465009145MN0144845N5+00285-00395100985ADDAA101000025AU110030015AW1715GA1075+009145999GA2085+011585999GD13991+0091459GD24991+0115859GE19AGL   +99999+99999GF199999999999009141999999MA1100985100745MW1715REMMET11601/03/25 17:54:02 METAR KACY 032254Z 29009KT 9SM -SN BKN030 OVC038 03/M04 A2982 RMK AO2 SNB43 SLP098 P0000 T00281039
0247724070937302025010323317+39452-074567FM-16+0020KACY V0203205N00575008535MN0048285N5+00115-00175999999ADDAA101000021AU110030015AW1715GA1085+008535999GD14991+0085359GE19AGL   +99999+99999GF199999999999008531999999MA1101025100785MW1715REMMET10701/03/25 18:31:02 SPECI KACY 032331Z 32011KT 3SM -SN OVC028 01/M02 A2983 RMK AO2 SNE2255B12 P0000 T00111017
0309724070937302025010323387+39452-074567FM-16+0020KACY V0203305N00465008535MN0040235N5+00065-00175999999ADDAA101000021AU110030015AU200001015AW1105AW2715GA1025+002445999GA2085+008535999GD11991+0024459GD24991+0085359GE19AGL   +99999+99999GF199999999999002441999999MA1100985100745MW1715REMMET12101/03/25 18:38:02 SPECI KACY 032338Z 33009KT 2 1/2SM -SN BR FEW008 OVC028 01/M02 A2982 RMK AO2 SNE2255B12 P0000 T00061017
0343724070937302025010323477+39452-074567FM-16+0020KACY V0203405N00575007015MN0048285N5+00065-00175999999ADDAA101000021AU110030015AU200001015AW1105AW2715GA1045+003055999GA2075+007015999GA3085+008535999GD12991+0030559GD23991+0070159GD34991+0085359GE19AGL   +99999+99999GF199999999999003051999999MA1100985100745MW1715REMMET12401/03/25 18:47:02 SPECI KACY 032347Z 34011KT 3SM -SN BR SCT010 BKN023 OVC028 01/M02 A2982 RMK AO2 SNE2255B12 P0000 T00061017
0444724070937302025010323547+39452-074567FM-15+0020KACY V0203305N00465007625MN0064375N5+00005-00175101015ADDAA101000025AA206000021AU110030015AU200001015AW1105AW2715GA1045+002445999GA2075+007625999GA3085+011895999GD12991+0024459GD23991+0076259GD34991+0118959GE19AGL   +99999+99999GF199999999999002441999999KA1060M+00391KA2060N+00001MA1101025100785MD1390019+9999MW1715REMMET15501/03/25 18:54:02 METAR KACY 032354Z 33009KT 4SM -SN BR SCT008 BKN025 OVC039 00/M02 A2983 RMK AO2 SNE2255B12 SLP101 P0000 60000 T00001017 10039 20000 53001EQDQ01  00008PRCP06
0246724070937302025010400004+39450-074567FM-12+002099999V0203301N004619999999N006000199+00001-00171101011ADDAA106000021GA1999+002501999GE19AGL   +99999+99999GF108991999999002501999999KA1120M+00391KA2120N-00161MA1999999100591MD1310011+9999MW1711REMSYN09872407 11356 83309 10000 21017 30059 40101 53001 69901 771// 92354 333 10039 21016 96010 555 90400=
0292724070937302025010400137+39452-074567FM-16+0020KACY V0203205N00515011285MN0160935N5+00005-00175999999ADDAA101000021GA1025+002445999GA2075+011285999GA3085+015245999GD11991+0024459GD23991+0112859GD34991+0152459GE19AGL   +99999+99999GF199999999999002441999999MA1101025100785REMMET11301/03/25 19:13:01 SPECI KACY 040013Z 32010KT 10SM FEW008 BKN037 OVC050 00/M02 A2983 RMK AO2 SNE00 P0000 T00001017
0242724070937302025010400547+39452-074567FM-15+0020KACY V0203005N003152200059N0144845N5-00065-00225101005ADDAA101000025GA1045+018295999GD12991+0182959GE19AGL   +99999+99999GF104995999999018291999999MA1101025100785REMMET10601/03/25 19:54:01 METAR KACY 040054Z 30006KT 9SM SCT060 M01/M02 A2983 RMK AO2 SNE00 SLP100 P0000 T10061022EQDD01      0ADE726
0212724070937302025010401547+39452-074567FM-15+0020KACY V0202905N00515033535MN0160935N5-00065-00285100995ADDAA101000095GA1075+033535999GD13991+0335359GE19AGL   +99999+99999GF199999999999033531999999MA1100985100745REMMET09501/03/25 20:54:01 METAR KACY 040154Z 29010KT 10SM BKN110 M01/M03 A2982 RMK AO2 SLP099 T10061028
0224724070937302025010402547+39452-074567FM-15+0020KACY V0202905N005152200059N0160935N5-00115-00335101005ADDAA101000095AA203000021GA1005+999999999GD10991+9999999GF100991999999999999999999MA1101025100785MD1590019+9999REMMET10401/03/25 21:54:01 METAR KACY 040254Z 29010KT 10SM CLR M01/M03 A2983 RMK AO2 SLP100 60000 T10111033 55001
0122724070937302025010403004+39450-074567FM-12+002099999V0202901N005119999999N016000199-00111-00331101001ADDAA103000021MA1999999100591MD1510011+9999REMSYN07072407 12966 02910 11011 21033 30059 40100 55001 69907 90254 555 90403=
0231724070937302025010403547+39452-074567FM-15+0020KACY V0202905N005752200059N0160935N5-00115-00395101015ADDAA101000095GA1045+036585999GD12991+0365859GE19AGL   +99999+99999GF104995999999036581999999MA1101025100785REMMET09501/03/25 22:54:02 METAR KACY 040354Z 29011KT 10SM SCT120 M01/M04 A2983 RMK AO2 SLP101 T10111039EQDD01      0ADE726
0234724070937302025010404547+39452-074567FM-15+0020KACY V0203005N007252200059N0160935N5-00115-00445101005ADDAA101000095GA1005+999999999GD10991+9999999GF100991999999999999999999KA1240M+00391KA2240N-00171MA1101025100785OC101035REMMET10501/03/25 23:54:02 METAR KACY 040454Z 30014G20KT 10SM CLR M01/M04 A2983 RMK AO2 SLP100 T10111044 400391017
0929724070937302025010404596+39452-074567SOD  +0020KACY V020999999999999999999999999999+99999+99999999999ADDAA124000025AT1AU18SN  5AT2AU13BR  5AX1015245KA1240M+00395KA2240N-00165MG1101094100954OE11240134131003355OE22240093930003465OE33240046599999995REMSOD77524 HR PRECIPITATION (IN):T     WEATHER(CODE):1  24 HR MAX TEMP (F):39 24 HR MAX TEMP TIME (LST):1456 24 HR MIN TEMP (F):29 24 HR MIN TEMP TIME (LST):0757 AVERAGE STATION PRESSURE(D):29.851 MINIMUM SEA LEVEL PRESSURE:29.81 TIME OF OCCURRENCE:1717 PEAK WIND SPEED (MPH):30  PEAK WIND DIR (DEG):310 PEAK WIND TIME (LST):0335  FASTEST 2MIN SPEED (MPH):21 FASTEST 2MIN DIR (DEG):300 FASTEST 2MIN TIME (LST):0346 AVERAGE WIND SPEED (MPH):10.4 24 HR AVG TEMP (F):34 DEPART FROM NORMAL:   1 HEATING DEGREE DAYS: 31 COOLING DEGREE DAYS:  0 LATEST DAY MAX TEMP (0700-1900 LST): 39 LATEST NIGHT MIN TEMP(1900-0800 LST):29 HOURLY INCREMENTAL PRECIPITATION VALUES (IN):0.00 0.00 0.00 0.00 0.00 0.00 0.00 0.00 0.00 0.00 0.00 0.00 0.00 0.00 0.00 0.00 0.00T    T    T     0.00 0.00 0.00 0.00
0262724070937302025010405547+39452-074567FM-15+0020KACY V0203005N006252200059N0160935N5-00175-00615101015ADDAA101000095AA206000021GA1005+999999999GD10991+9999999GF100991999999999999999999KA1060M+00001KA2060N-00171MA1101025100785MD1290019+9999REMMET11601/04/25 00:54:02 METAR KACY 040554Z 30012KT 10SM CLR M02/M06 A2983 RMK AO2 SLP101 60000 T10171061 10000 21017 52001
0164724070937302025010406004+39450-074567FM-12+002099999V0203001N006219999999N016000199-00171-00611101011ADDAA106000021KA1240M+00111KA2240N-00171MA1999999100591MD1210011+9999REMSYN08672407 12966 03012 11017 21061 30059 40101 52001 69901 90554 333 10011 21017 555 90406=
0187724070937302025010406547+39452-074567FM-15+0020KACY V0202805N006252200059N0160935N5-00175-00725101075ADDAA101000095GA1005+999999999GD10991+9999999GF100991999999999999999999MA1101085100845REMMET09201/04/25 01:54:02 METAR KACY 040654Z 28012KT 10SM CLR M02/M07 A2985 RMK AO2 SLP107 T10171072
0187724070937302025010407547+39452-074567FM-15+0020KACY V0202805N006752200059N0160935N5-00175-00835101135ADDAA101000095GA1005+999999999GD10991+9999999GF100991999999999999999999MA1101125100885REMMET09201/04/25 02:54:02 METAR KACY 040754Z 28013KT 10SM CLR M02/M08 A2986 RMK AO2 SLP113 T10171083
0232724070937302025010408547+39452-074567FM-15+0020KACY V0202805N00725018295MN0160935N5-00175-00945101155ADDAA101000095GA1075+018295999GD13991+0182959GE19AGL   +99999+99999GF199999999999018291999999MA1101155100915MD1190149+9999REMMET10101/04/25 03:54:02 METAR KACY 040854Z 28014KT 10SM BKN060 M02/M09 A2987 RMK AO2 SLP115 T10171094 51014
0169724070937302025010409004+39450-074567FM-12+002099999V0202801N007219999999N016000199-00171-00941101151ADDGA1999+017501999GE19AGL   +99999+99999GF106991999999017501999999MA1999999100731MD1110141+9999REMSYN06472407 32766 62814 11017 21094 30073 40115 51014 90854 555 90409=
0198724070937302025010409547+39452-074567FM-15+0020KACY V0202805N007252200059N0160935N5-00175-00945101215ADDAA101000095GA1005+999999999GD10991+9999999GF100991999999999999999999MA1101225100985OC101135REMMET09501/04/25 04:54:02 METAR KACY 040954Z 28014G22KT 10SM CLR M02/M09 A2989 RMK AO2 SLP121 T10171094
0192724070937302025010410547+39452-074567FM-15+0020KACY V0202805N007252200059N0160935N5-00225-00945101275ADDAA101000095GA1005+999999999GD10991+9999999GF100991999999999999999999MA1101295101055REMMET09701/04/25 05:54:02 METAR KACY 041054Z 28014KT 10SM CLR M02/M09 A2991 RMK AO2 SLP127 T10221094 TSNO
0261724070937302025010411547+39452-074567FM-15+0020KACY V0202805N007252200059N0160935N5-00225-00945101325ADDAA101000095GA1005+999999999GD10991+9999999GF100991999999999999999999KA1060M-00171KA2060N-00221MA1101325101085MD1190179+9999OC101135REMMET11801/04/25 06:54:02 METAR KACY 041154Z 28014G22KT 10SM CLR M02/M09 A2992 RMK AO2 SLP132 T10221094 11017 21022 51017 TSNO
0167724070937302025010412004+39450-074567FM-12+002099999V0202801N007219999999N016000199-00221-00941101321ADDKA1240M+00391KA2240N-00221MA1999999100901MD1110171+9999OD149901131999REMSYN08672407 35966 02814 11022 21094 30090 40132 51017 91154 333 10039 21022 91022 555 90412=
0198724070937302025010412547+39452-074567FM-15+0020KACY V0202805N007252200059N0160935N5-00225-00945101375ADDAA101000095GA1005+999999999GD10991+9999999GF100991999999999999999999MA1101355101115OC101085REMMET09501/04/25 07:54:02 METAR KACY 041254Z 28014G21KT 10SM CLR M02/M09 A2993 RMK AO2 SLP137 T10221094
0230724070937302025010413547+39452-074567FM-15+0020KACY V0202805N008252200059N0160935N5-00065-01005101435ADDAA101000095GA1005+999999999GD10991+9999999GF100991999999999999999999MA1101425101185OC101445OD149901441280REMMET11301/04/25 08:54:02 METAR KACY 041354Z 28016G28KT 10SM CLR M01/M10 A2995 RMK AO2 PK WND 28028/1344 SLP143 T10061100
0249724070937302025010414547+39452-074567FM-15+0020KACY V0202905N009852200059N0160935N5+00065-01065101475ADDAA101000095GA1005+999999999GD10991+9999999GF100991999999999999999999MA1101465101225MD1190159+9999OC101655OD149901751280REMMET11801/04/25 09:54:02 METAR KACY 041454Z 29019G32KT 10SM CLR 01/M11 A2996 RMK AO2 PK WND 28034/1443 SLP147 T00061106 51015
0129724070937302025010415004+39450-074567FM-12+002099999V0202901N009819999999N016000199+00061-01061101471ADDMA1999999101031MD1110151+9999OD149901651999REMSYN07472407 32966 02919 10006 21106 30103 40147 51015 91454 333 91032 555 90415=
0273724070937302025010415547+39452-074567FM-15+0020KACY V0203005N010352200059N0160935N5+00005-01175101475ADDAA101000095GA1045+015245999GD12991+0152459GE19AGL   +99999+99999GF104995999999015241999999MA1101465101225OC101495OD149902051280REMMET11501/04/25 10:54:02 METAR KACY 041554Z 30020G29KT 10SM SCT050 00/M12 A2996 RMK AO2 PK WND 28040/1521 SLP147 T00001117EQDD01      0ADE726
0254724070937302025010416547+39452-074567FM-15+0020KACY V0203005N01245014635MN0160935N5+00065-01115101395ADDAA101000095GA1085+014635999GD14991+0146359GE19AGL   +99999+99999GF199999999999014631999999MA1101395101155OC101855OD149901901280REMMET11501/04/25 11:54:02 METAR KACY 041654Z 30024G36KT 10SM OVC048 01/M11 A2994 RMK AO2 PK WND 28037/1639 SLP139 T00061111
0312724070937302025010417547+39452-074567FM-15+0020KACY V0203005N01035014945MN0160935N5+00065-01175101365ADDAA101000095GA1085+014945999GD14991+0149459GE19AGL   +99999+99999GF199999999999014941999999KA1060M+00111KA2060N-00221MA1101355101115MD1890119+9999OC101655OD149901851310REMMET13301/04/25 12:54:02 METAR KACY 041754Z 30020G32KT 10SM OVC049 01/M12 A2993 RMK AO2 PK WND 31036/1710 SLP136 T00061117 10011 21022 58011
0231724070937302025010418004+39450-074567FM-12+002099999V0203001N010319999999N016000199+00061-01171101361ADDGA1999+012501999GE19AGL   +99999+99999GF108991999999012501999999KA1120M+00111KA2120N-00221MA1999999100931MD1810111+9999OD149901651999REMSYN08672407 32666 83020 10006 21117 30093 40136 58011 91754 333 10011 21022 91032 555 90418=
0254724070937302025010418547+39452-074567FM-15+0020KACY V0203005N01135015245MN0160935N5+00005-01175101375ADDAA101000095GA1085+015245999GD14991+0152459GE19AGL   +99999+99999GF199999999999015241999999MA1101355101115OC101705OD149901901270REMMET11501/04/25 13:54:02 METAR KACY 041854Z 30022G33KT 10SM OVC050 00/M12 A2993 RMK AO2 PK WND 27037/1830 SLP137 T00001117
0241724070937302025010419547+39452-074567FM-15+0020KACY V0202905N01035016765MN0160935N5-00065-01115101455ADDAA101000095GA1085+016765999GD14991+0167659GE19AGL   +99999+99999GF199999999999016761999999MA1101465101225OC101495REMMET11601/04/25 14:54:02 METAR KACY 041954Z 29020G29KT 10SM OVC055 M01/M11 A2996 RMK AO2 PK WND 30036/1913 SLP145 T10061111
0261724070937302025010420547+39452-074567FM-15+0020KACY V0202905N00885016765MN0160935N5-00065-01335101525ADDAA101000095GA1085+016765999GD14991+0167659GE19AGL   +99999+99999GF199999999999016761999999MA1101525101285MD1390179+9999OC101445REMMET12201/04/25 15:54:02 METAR KACY 042054Z 29017G28KT 10SM OVC055 M01/M13 A2998 RMK AO2 PK WND 28033/2019 SLP152 T10061133 53017
0193724070937302025010421004+39450-074567FM-12+002099999V0202901N008819999999N016000199-00061-01331101521ADDGA1999+017501999GE19AGL   +99999+99999GF108991999999017501999999MA1999999101101MD1310171+9999OD149901441999REMSYN07472407 32766 82917 11006 21133 30110 40152 53017 92054 333 91028 555 90421=
0241724070937302025010421547+39452-074567FM-15+0020KACY V0203005N00985018295MN0160935N5-00115-01335101595ADDAA101000095GA1085+018295999GD14991+0182959GE19AGL   +99999+99999GF199999999999018291999999MA1101595101355OC101495REMMET11601/04/25 16:54:02 METAR KACY 042154Z 30019G29KT 10SM OVC060 M01/M13 A3000 RMK AO2 PK WND 29029/2149 SLP159 T10111133
0241724070937302025010422547+39452-074567FM-15+0020KACY V0202805N00985018295MN0160935N5-00175-01395101675ADDAA101000095GA1075+018295999GD13991+0182959GE19AGL   +99999+99999GF199999999999018291999999MA1101665101425OC101395REMMET11601/04/25 17:54:02 METAR KACY 042254Z 28019G27KT 10SM BKN060 M02/M14 A3002 RMK AO2 PK WND 31032/2220 SLP167 T10171139
0288724070937302025010423547+39452-074567FM-15+0020KACY V0202805N007252200059N0160935N5-00225-01335101735ADDAA101000095GA1005+999999999GD10991+9999999GF100991999999999999999999KA1060M+00111KA2060N-00221MA1101735101495MD1290219+9999OC101185OD149901331290REMMET13101/04/25 18:54:02 METAR KACY 042354Z 28014G23KT 10SM CLR M02/M13 A3004 RMK AO2 PK WND 29026/2304 SLP173 T10221133 10011 21022 52021
0167724070937302025010500004+39450-074567FM-12+002099999V0202801N007219999999N016000199-00221-01331101731ADDKA1120M+00111KA2120N-00221MA1999999101301MD1210211+9999OD149901181999REMSYN08672407 32966 02814 11022 21133 30130 40173 52021 92354 333 10011 21022 91023 555 90500=
0242724070937302025010500547+39452-074567FM-15+0020KACY V0202805N007252200059N0160935N5-00285-01285101745ADDAA101000095GA1025+018295999GD11991+0182959GE19AGL   +99999+99999GF102995999999018291999999MA1101735101495OC101295REMMET09801/04/25 19:54:01 METAR KACY 050054Z 28014G25KT 10SM FEW060 M03/M13 A3004 RMK AO2 SLP174 T10281128EQDD01      0ADE726
0223724070937302025010501547+39452-074567FM-15+0020KACY V0202705N00575018295MN0160935N5-00225-01335101775ADDAA101000095GA1085+018295999GD14991+0182959GE19AGL   +99999+99999GF199999999999018291999999MA1101765101525OC101085REMMET09801/04/25 20:54:01 METAR KACY 050154Z 27011G21KT 10SM OVC060 M02/M13 A3005 RMK AO2 SLP177 T10221133
0243724070937302025010502547+39452-074567FM-15+0020KACY V0202905N00725015245MN0160935N5-00225-01285101825ADDAA101000095GA1085+015245999GD14991+0152459GE19AGL   +99999+99999GF199999999999015241999999MA1101835101595MD1390099+9999OC101035REMMET10401/04/25 21:54:01 METAR KACY 050254Z 29014G20KT 10SM OVC050 M02/M13 A3007 RMK AO2 SLP182 T10221128 53009
0193724070937302025010503004+39450-074567FM-12+002099999V0202901N007219999999N016000199-00221-01281101821ADDGA1999+017501999GE19AGL   +99999+99999GF108991999999017501999999MA1999999101401MD1310091+9999OD149901031999REMSYN07472407 32766 82914 11022 21128 30140 40182 53009 90254 333 91020 555 90503=
0231724070937302025010503547+39452-074567FM-15+0020KACY V0203005N004652200059N0160935N5-00335-01285101875ADDAA101000095GA1025+015245999GD11991+0152459GE19AGL   +99999+99999GF102995999999015241999999MA1101865101625REMMET09501/04/25 22:54:02 METAR KACY 050354Z 30009KT 10SM FEW050 M03/M13 A3008 RMK AO2 SLP187 T10331128EQDD01      0ADE726
0267724070937302025010504547+39452-074567FM-15+0020KACY V0202905N005152200059N0160935N5-00335-01335101885ADDAA101000095GA1025+015245999GD11991+0152459GE19AGL   +99999+99999GF102995999999015241999999KA1240M+00111KA2240N-00391MA1101865101625REMMET10501/04/25 23:54:02 METAR KACY 050454Z 29010KT 10SM FEW050 M03/M13 A3008 RMK AO2 SLP188 T10331133 400111039EQDD01      0ADE726
0879724070937302025010504596+39452-074567SOD  +0020KACY V020999999999999999999999999999+99999+99999999999ADDAA124000095KA1240M+00115KA2240N-00385MG1101224100984OE11240201228010215OE22240147531012005OE33240080599999995REMSOD75824 HR PRECIPITATION (IN): 0.00 24 HR MAX TEMP (F):34 24 HR MAX TEMP TIME (LST):1429 24 HR MIN TEMP (F):25 24 HR MIN TEMP TIME (LST):2326 AVERAGE STATION PRESSURE(D):29.890 MINIMUM SEA LEVEL PRESSURE:29.82 TIME OF OCCURRENCE:0029 PEAK WIND SPEED (MPH):45  PEAK WIND DIR (DEG):280 PEAK WIND TIME (LST):1021  FASTEST 2MIN SPEED (MPH):33 FASTEST 2MIN DIR (DEG):310 FASTEST 2MIN TIME (LST):1200 AVERAGE WIND SPEED (MPH):18.0 24 HR AVG TEMP (F):30 DEPART FROM NORMAL:  -3 HEATING DEGREE DAYS: 35 COOLING DEGREE DAYS:  0 LATEST DAY MAX TEMP (0700-1900 LST): 34 LATEST NIGHT MIN TEMP(1900-0800 LST):28 HOURLY INCREMENTAL PRECIPITATION VALUES (IN):0.00 0.00 0.00 0.00 0.00 0.00 0.00 0.00 0.00 0.00 0.00 0.00 0.00 0.00 0.00 0.00 0.00 0.00 0.00 0.00 0.00 0.00 0.00 0.00
0281724070937302025010505547+39452-074567FM-15+0020KACY V0202905N00675013725MN0160935N5-00335-01335101835ADDAA101000095GA1075+013725999GD13991+0137259GE19AGL   +99999+99999GF199999999999013721999999KA1060M-00221KA2060N-00391MA1101835101595MD1090019+9999OC100985REMMET11601/05/25 00:54:02 METAR KACY 050554Z 29013G19KT 10SM BKN045 M03/M13 A3007 RMK AO2 SLP183 T10331133 11022 21039 50001
0231724070937302025010506004+39450-074567FM-12+002099999V0202901N006719999999N016000199-00331-01331101831ADDGA1999+012501999GE19AGL   +99999+99999GF106991999999012501999999KA1240M-00171KA2240N-00391MA1999999101401MD1990011+9999OD149900981999REMSYN08672407 32666 62913 11033 21133 30140 40183 50001 90554 333 11017 21039 91019 555 90506=
0244724070937302025010506547+39452-074567FM-15+0020KACY V0202905N00675014335MN0160935N5-00335-01335101875ADDAA101000095GA1075+014335999GD13991+0143359GE19AGL   +99999+99999GF199999999999014331999999MA1101865101625OD149901391270REMMET11301/05/25 01:54:02 METAR KACY 050654Z 29013KT 10SM BKN047 M03/M13 A3008 RMK AO2 PK WND 27027/0641 SLP187 T10331133
0223724070937302025010507547+39452-074567FM-15+0020KACY V0202805N00625014335MN0160935N5-00335-01335101895ADDAA101000095GA1075+014335999GD13991+0143359GE19AGL   +99999+99999GF199999999999014331999999MA1101905101665OC101035REMMET09801/05/25 02:54:02 METAR KACY 050754Z 28012G20KT 10SM BKN047 M03/M13 A3009 RMK AO2 SLP189 T10331133
0223724070937302025010508547+39452-074567FM-15+0020KACY V0202805N006252200059N0160935N5-00395-01335101875ADDAA101000095GA1005+999999999GD10991+9999999GF100991999999999999999999MA1101865101625MD1090049+9999OC101085REMMET10601/05/25 03:54:02 METAR KACY 050854Z 28012G21KT 10SM CLR M04/M13 A3008 RMK AO2 SLP187 T10391133 50004 TSNO
0129724070937302025010509004+39450-074567FM-12+002099999V0202801N006219999999N016000199-00391-01331101871ADDMA1999999101441MD1990041+9999OD149901081999REMSYN07472407 35966 02812 11039 21133 30144 40187 50004 90854 333 91021 555 90509=
0187724070937302025010509547+39452-074567FM-15+0020KACY V0202805N005752200059N0160935N5-00445-01335101915ADDAA101000095GA1005+999999999GD10991+9999999GF100991999999999999999999MA1101905101665REMMET09201/05/25 04:54:02 METAR KACY 050954Z 28011KT 10SM CLR M04/M13 A3009 RMK AO2 SLP191 T10441133
0187724070937302025010510547+39452-074567FM-15+0020KACY V0202605N004652200059N0160935N5-00445-01285101965ADDAA101000095GA1005+999999999GD10991+9999999GF100991999999999999999999MA1101965101725REMMET09201/05/25 05:54:02 METAR KACY 051054Z 26009KT 10SM CLR M04/M13 A3011 RMK AO2 SLP196 T10441128
0256724070937302025010511547+39452-074567FM-15+0020KACY V0202805N007252200059N0160935N5-00505-01225101995ADDAA101000095GA1005+999999999GD10991+9999999GF100991999999999999999999KA1060M-00281KA2060N-00501MA1102005101765MD1290129+9999OC101035REMMET11301/05/25 06:54:02 METAR KACY 051154Z 28014G20KT 10SM CLR M05/M12 A3012 RMK AO2 SLP199 T10501122 11028 21050 52012
0167724070937302025010512004+39450-074567FM-12+002099999V0202801N007219999999N016000199-00501-01221101991ADDKA1240M+00111KA2240N-00501MA1999999101571MD1210121+9999OD149901031999REMSYN08672407 32966 02814 11050 21122 30157 40199 52012 91154 333 10011 21050 91020 555 90512=
0187724070937302025010512547+39452-074567FM-15+0020KACY V0202705N005752200059N0160935N5-00445-01225102035ADDAA101000095GA1005+999999999GD10991+9999999GF100991999999999999999999MA1102035101795REMMET09201/05/25 07:54:02 METAR KACY 051254Z 27011KT 10SM CLR M04/M12 A3013 RMK AO2 SLP203 T10441122
0198724070937302025010513547+39452-074567FM-15+0020KACY V0202705N007752200059N0160935N5-00335-01285102065ADDAA101000095GA1005+999999999GD10991+9999999GF100991999999999999999999MA1102075101825OC101245REMMET09501/05/25 08:54:02 METAR KACY 051354Z 27015G24KT 10SM CLR M03/M13 A3014 RMK AO2 SLP206 T10331128
0250724070937302025010514547+39452-074567FM-15+0020KACY V0202905N007752200059N0160935N5-00225-01285102085ADDAA101000095GA1005+999999999GD10991+9999999GF100991999999999999999999MA1102075101825MD1190089+9999OC101245OD149901441280REMMET11901/05/25 09:54:02 METAR KACY 051454Z 29015G24KT 10SM CLR M02/M13 A3014 RMK AO2 PK WND 28028/1421 SLP208 T10221128 51008
0129724070937302025010515004+39450-074567FM-12+002099999V0202901N007719999999N016000199-00221-01281102081ADDMA1999999101641MD1110081+9999OD149901241999REMSYN07472407 32966 02915 11022 21128 30164 40208 51008 91454 333 91024 555 90515=
0230724070937302025010515547+39452-074567FM-15+0020KACY V0202905N010352200059N0160935N5-00175-01285102005ADDAA101000095GA1005+999999999GD10991+9999999GF100991999999999999999999MA1102005101765OC101495OD149901541290REMMET11301/05/25 10:54:02 METAR KACY 051554Z 29020G29KT 10SM CLR M02/M13 A3012 RMK AO2 PK WND 29030/1542 SLP200 T10171128
0230724070937302025010516547+39452-074567FM-15+0020KACY V0202705N007752200059N0160935N5-00115-01285101885ADDAA101000095GA1005+999999999GD10991+9999999GF100991999999999999999999MA1101905101665OC101185OD149901491310REMMET11301/05/25 11:54:02 METAR KACY 051654Z 27015G23KT 10SM CLR M01/M13 A3009 RMK AO2 PK WND 31029/1630 SLP188 T10111128
0287724070937302025010517547+39452-074567FM-15+0020KACY V0202605N007252200059N0160935N5+00005-01225101835ADDAA101000095GA1005+999999999GD10991+9999999GF100991999999999999999999KA1060M+00001KA2060N-00501MA1101835101595MD1690249+9999OC101245OD149901331260REMMET13001/05/25 12:54:02 METAR KACY 051754Z 26014G24KT 10SM CLR 00/M12 A3007 RMK AO2 PK WND 26026/1721 SLP183 T00001122 10000 21050 56024
0167724070937302025010518004+39450-074567FM-12+002099999V0202601N007219999999N016000199+00001-01221101831ADDKA1120M+00001KA2120N-00501MA1999999101401MD1610241+9999OD149901241999REMSYN08672407 32966 02614 10000 21122 30140 40183 56024 91754 333 10000 21050 91024 555 90518=
0230724070937302025010518547+39452-074567FM-15+0020KACY V0202705N007252200059N0160935N5-00065-01285101805ADDAA101000095GA1005+999999999GD10991+9999999GF100991999999999999999999MA1101795101555OC101245OD149901441280REMMET11301/05/25 13:54:02 METAR KACY 051854Z 27014G24KT 10SM CLR M01/M13 A3006 RMK AO2 PK WND 28028/1803 SLP180 T10061128
0229724070937302025010519547+39452-074567FM-15+0020KACY V0202705N006752200059N0160935N5+00005-01285101825ADDAA101000095GA1005+999999999GD10991+9999999GF100991999999999999999999MA1101835101595OC101185OD149901331280REMMET11201/05/25 14:54:02 METAR KACY 051954Z 27013G23KT 10SM CLR 00/M13 A3007 RMK AO2 PK WND 28026/1912 SLP182 T00001128
0207724070937302025010520547+39452-074567FM-15+0020KACY V0202805N006752200059N0160935N5-00065-01285101885ADDAA101000095GA1005+999999999GD10991+9999999GF100991999999999999999999MA1101865101625MD1390049+9999REMMET09801/05/25 15:54:02 METAR KACY 052054Z 28013KT 10SM CLR M01/M13 A3008 RMK AO2 SLP188 T10061128 53004
0105724070937302025010521004+39450-074567FM-12+002099999V0202801N006719999999N016000199-00061-01281101881ADDMA1999999101441MD1310041+9999REMSYN06472407 32966 02813 11006 21128 30144 40188 53004 92054 555 90521=
0198724070937302025010521547+39452-074567FM-15+0020KACY V0202805N005152200059N0160935N5-00175-01285101915ADDAA101000095GA1005+999999999GD10991+9999999GF100991999999999999999999MA1101905101665OC100885REMMET09501/05/25 16:54:02 METAR KACY 052154Z 28010G17KT 10SM CLR M02/M13 A3009 RMK AO2 SLP191 T10171128
0187724070937302025010522547+39452-074567FM-15+0020KACY V0202705N003652200059N0160935N5-00225-01285101955ADDAA101000095GA1005+999999999GD10991+9999999GF100991999999999999999999MA1101965101725REMMET09201/05/25 17:54:02 METAR KACY 052254Z 27007KT 10SM CLR M02/M13 A3011 RMK AO2 SLP195 T10221128
0245724070937302025010523547+39452-074567FM-15+0020KACY V0202705N002152200059N0160935N5-00285-01285101975ADDAA101000095GA1005+999999999GD10991+9999999GF100991999999999999999999KA1060M+00061KA2060N-00281MA1101965101725MD1190099+9999REMMET11001/05/25 18:54:02 METAR KACY 052354Z 27004KT 10SM CLR M03/M13 A3011 RMK AO2 SLP197 T10281128 10006 21028 51009
0147724070937302025010600004+39450-074567FM-12+002099999V0202701N002119999999N016000199-00281-01281101971ADDKA1120M+00061KA2120N-00501MA1999999101541MD1110091+9999REMSYN08072407 32966 02704 11028 21128 30154 40197 51009 92354 333 10006 21050 555 90600=
0187724070937302025010600547+39452-074567FM-15+0020KACY V0202705N002652200059N0160935N5-00335-01285101965ADDAA101000095GA1005+999999999GD10991+9999999GF100991999999999999999999MA1101965101725REMMET09201/05/25 19:54:01 METAR KACY 060054Z 27005KT 10SM CLR M03/M13 A3011 RMK AO2 SLP196 T10331128
0187724070937302025010601547+39452-074567FM-15+0020KACY V0202805N003652200059N0160935N5-00285-01225101955ADDAA101000095GA1005+999999999GD10991+9999999GF100991999999999999999999MA1101935101695REMMET09201/05/25 20:54:01 METAR KACY 060154Z 28007KT 10SM CLR M03/M12 A3010 RMK AO2 SLP195 T10281122
0207724070937302025010602547+39452-074567FM-15+0020KACY V0202805N004152200059N0160935N5-00285-01225101945ADDAA101000095GA1005+999999999GD10991+9999999GF100991999999999999999999MA1101935101695MD1690039+9999REMMET09801/05/25 21:54:01 METAR KACY 060254Z 28008KT 10SM CLR M03/M12 A3010 RMK AO2 SLP194 T10281122 56003
0105724070937302025010603004+39450-074567FM-12+002099999V0202801N004119999999N016000199-00281-01221101941ADDMA1999999101501MD1610031+9999REMSYN06472407 32966 02808 11028 21122 30150 40194 56003 90254 555 90603=
0187724070937302025010603547+39452-074567FM-15+0020KACY V0202905N005152200059N0160935N5-00225-01225101965ADDAA101000095GA1005+999999999GD10991+9999999GF100991999999999999999999MA1101965101725REMMET09201/05/25 22:54:02 METAR KACY 060354Z 29010KT 10SM CLR M02/M12 A3011 RMK AO2 SLP196 T10221122
0223724070937302025010604547+39452-074567FM-15+0020KACY V0202805N003652200059N0160935N5-00225-01175101925ADDAA101000095GA1005+999999999GD10991+9999999GF100991999999999999999999KA1240M+00061KA2240N-00501MA1101935101695REMMET10201/05/25 23:54:02 METAR KACY 060454Z 28007KT 10SM CLR M02/M12 A3010 RMK AO2 SLP192 T10221117 400061050
0879724070937302025010604596+39452-074567SOD  +0020KACY V020999999999999999999999999999+99999+99999999999ADDAA124000095KA1240M+00065KA2240N-00495MG1101684101794OE11240152029010425OE22240111829010205OE33240058199999995REMSOD75824 HR PRECIPITATION (IN): 0.00 24 HR MAX TEMP (F):33 24 HR MAX TEMP TIME (LST):1405 24 HR MIN TEMP (F):23 24 HR MIN TEMP TIME (LST):0748 AVERAGE STATION PRESSURE(D):30.028 MINIMUM SEA LEVEL PRESSURE:30.06 TIME OF OCCURRENCE:1445 PEAK WIND SPEED (MPH):34  PEAK WIND DIR (DEG):290 PEAK WIND TIME (LST):1042  FASTEST 2MIN SPEED (MPH):25 FASTEST 2MIN DIR (DEG):290 FASTEST 2MIN TIME (LST):1020 AVERAGE WIND SPEED (MPH):13.0 24 HR AVG TEMP (F):28 DEPART FROM NORMAL:  -4 HEATING DEGREE DAYS: 37 COOLING DEGREE DAYS:  0 LATEST DAY MAX TEMP (0700-1900 LST): 33 LATEST NIGHT MIN TEMP(1900-0800 LST):23 HOURLY INCREMENTAL PRECIPITATION VALUES (IN):0.00 0.00 0.00 0.00 0.00 0.00 0.00 0.00 0.00 0.00 0.00 0.00 0.00 0.00 0.00 0.00 0.00 0.00 0.00 0.00 0.00 0.00 0.00 0.00
0245724070937302025010605547+39452-074567FM-15+0020KACY V0202805N002152200059N0160935N5-00225-01175101855ADDAA101000095GA1005+999999999GD10991+9999999GF100991999999999999999999KA1060M-00221KA2060N-00331MA1101835101595MD1890099+9999REMMET11001/06/25 00:54:02 METAR KACY 060554Z 28004KT 10SM CLR M02/M12 A3007 RMK AO2 SLP185 T10221117 11022 21033 58009
0147724070937302025010606004+39450-074567FM-12+002099999V0202801N002119999999N016000199-00221-01171101851ADDKA1240M-00221KA2240N-00501MA1999999101401MD1810091+9999REMSYN08072407 32966 02804 11022 21117 30140 40185 58009 90554 333 11022 21050 555 90606=
0212724070937302025010606547+39452-074567FM-15+0020KACY V0202805N00265030485MN0160935N5-00225-01175101855ADDAA101000095GA1085+030485999GD14991+0304859GE19AGL   +99999+99999GF199999999999030481999999MA1101865101625REMMET09501/06/25 01:54:02 METAR KACY 060654Z 28005KT 10SM OVC100 M02/M12 A3008 RMK AO2 SLP185 T10221117
0212724070937302025010607547+39452-074567FM-15+0020KACY V0202405N00265030485MN0160935N5-00225-01175101815ADDAA101000095GA1085+030485999GD14991+0304859GE19AGL   +99999+99999GF199999999999030481999999MA1101835101595REMMET09501/06/25 02:54:02 METAR KACY 060754Z 24005KT 10SM OVC100 M02/M12 A3007 RMK AO2 SLP181 T10221117
0232724070937302025010608547+39452-074567FM-15+0020KACY V0202605N00265025915MN0160935N5-00225-01175101745ADDAA101000095GA1075+025915999GD13991+0259159GE19AGL   +99999+99999GF199999999999025911999999MA1101735101495MD1890109+9999REMMET10101/06/25 03:54:02 METAR KACY 060854Z 26005KT 10SM BKN085 M02/M12 A3004 RMK AO2 SLP174 T10221117 58010
0153724070937302025010609004+39450-074567FM-12+002099999V0202601N002619999999N016000199-00221-01171101741ADDGE19AGL   +99999+99999GF106991999999999999999999MA1999999101301MD1810101+9999REMSYN06472407 32966 62605 11022 21117 30130 40174 58010 90854 555 90609=
0255724070937302025010609547+39452-074567FM-15+0020KACY V0202405N00215016765MN0160935N5-00225-01115101705ADDAA101000095GA1075+016765999GA2085+022865999GD13991+0167659GD24991+0228659GE19AGL   +99999+99999GF199999999999016761999999MA1101695101455REMMET10701/06/25 04:54:02 METAR KACY 060954Z 24004KT 10SM BKN055 OVC075 M02/M11 A3003 RMK AO2 SLP170 T10221111 TSNO
0254724070937302025010610547+39452-074567FM-15+0020KACY V0202305N00155006715MN0028165N5-00395-00785101615ADDAA101000025AU110030015AW1715GA1085+006715999GD14991+0067159GE19AGL   +99999+99999GF199999999999006711999999MA1101595101355MW1715REMMET11401/06/25 05:54:02 METAR KACY 061054Z 23003KT 1 3/4SM -SN OVC022 M04/M08 A3000 RMK AO2 SNB27 SLP161 P0000 T10391078
0241724070937302025010611057+39452-074567FM-16+0020KACY V0202405N00155005495MN0020125N5-00395-00675999999ADDAA101000021AU110030015AW1715GA1085+005495999GD14991+0054959GE19AGL   +99999+99999GF199999999999005491999999MA1101595101355MW1715REMMET10101/06/25 06:05:02 SPECI KACY 061105Z 24003KT 1 1/4SM -SN OVC018 M04/M07 A3000 RMK AO2 P0000 T10391067
0256724070937302025010611227+39452-074567FM-16+0020KACY V0209999C00005004275WN0016095N5-00445-00615999999ADDAA101000231AU110030015AU200001015AW1105AW2715GA1095+004275999GD15991+0042759GE19AGL   +99999+99999GF109991999999004271999999MA1101565101325MW1715REMMET09901/06/25 06:22:02 SPECI KACY 061122Z 00000KT 1SM -SN BR VV014 M04/M06 A2999 RMK AO2 P0001 T10441061
0268724070937302025010611437+39452-074567FM-16+0020KACY V0209999C00005003355WN0012075N5-00445-00615999999ADDAA101001031AU110030015AU200001015AW1105AW2715GA1095+003355999GD15991+0033559GE19AGL   +99999+99999GF109991999999003351999999MA1101525101285MW1715REMMET11101/06/25 06:43:02 SPECI KACY 061143Z 00000KT 3/4SM -SN BR VV011 M04/M06 A2998 RMK AO2 TWR VIS 1 P0004 T10441061
0402724070937302025010611547+39452-074567FM-15+0020KACY V0209999C00005003055WN0012075N5-00445-00565101515ADDAA101001395AA206001391AA324001391AU110030015AU200001015AW1105AW2715GA1095+003055999GD15991+0030559GE19AGL   +99999+99999GF109991999999003051999999KA1060M-00221KA2060N-00441MA1101495101255MD1890239+9999MW1715REMMET14801/06/25 06:54:02 METAR KACY 061154Z 00000KT 3/4SM -SN BR VV010 M04/M06 A2997 RMK AO2 TWR VIS 1 SLP151 P0005 60005 70005 T10441056 11022 21044 58023EQDQ01  00128PRCP06Q02  00128PRCP24
0199724070937302025010612004+39450-074567FM-12+002099999V0209999C000019999999N001200199-00441-00561101511ADDAA106001031AA224001331KA1240M+00061KA2240N-00441MA1999999101061MD1810231+9999MW1711REMSYN10472407 11412 /0000 11044 21056 30106 40151 58023 60011 771// 91154 333 10006 21044 70013 96010 555 90612=
0268724070937302025010612087+39452-074567FM-16+0020KACY V0209999C00005002745WN0012075N5-00445-00615999999ADDAA101000231AU110030015AU200001015AW1105AW2715GA1095+002745999GD15991+0027459GE19AGL   +99999+99999GF109991999999002741999999MA1101525101285MW1715REMMET11101/06/25 07:08:02 SPECI KACY 061208Z 00000KT 3/4SM -SN BR VV009 M04/M06 A2998 RMK AO2 TWR VIS 1 P0001 T10441061
0256724070937302025010612157+39452-074567FM-16+0020KACY V0209999C00005003055WN0016095N5-00445-00675999999ADDAA101000531AU110030015AU200001015AW1105AW2715GA1095+003055999GD15991+0030559GE19AGL   +99999+99999GF109991999999003051999999MA1101525101285MW1715REMMET09901/06/25 07:15:02 SPECI KACY 061215Z 00000KT 1SM -SN BR VV010 M04/M07 A2998 RMK AO2 P0002 T10441067
0268724070937302025010612427+39452-074567FM-16+0020KACY V0209999C00005004885WN0012075N5-00445-00565999999ADDAA101001031AU110030015AU200001015AW1105AW2715GA1095+004885999GD15991+0048859GE19AGL   +99999+99999GF109991999999004881999999MA1101495101255MW1715REMMET11101/06/25 07:42:02 SPECI KACY 061242Z 00000KT 3/4SM -SN BR VV016 M04/M06 A2997 RMK AO2 TWR VIS 1 P0004 T10441056
0275724070937302025010612547+39452-074567FM-15+0020KACY V0209999C00005004885WN0012075N5-00445-00565101445ADDAA101001395AU110030015AU200001015AW1105AW2715GA1095+004885999GD15991+0048859GE19AGL   +99999+99999GF109991999999004881999999MA1101465101225MW1715REMMET11801/06/25 07:54:02 METAR KACY 061254Z 00000KT 3/4SM -SN BR VV016 M04/M06 A2996 RMK AO2 TWR VIS 1 SLP144 P0005 T10441056
0268724070937302025010613237+39452-074567FM-16+0020KACY V0209999C00005004275WN0012075N5-00445-00615999999ADDAA101000531AU110030015AU200001015AW1105AW2715GA1095+004275999GD15991+0042759GE19AGL   +99999+99999GF109991999999004271999999MA1101355101115MW1715REMMET11101/06/25 08:23:02 SPECI KACY 061323Z 00000KT 3/4SM -SN BR VV014 M04/M06 A2993 RMK AO2 TWR VIS 1 P0002 T10441061
0268724070937302025010613327+39452-074567FM-16+0020KACY V0209999C00005004575WN0012075N5-00395-00615999999ADDAA101000531AU110030015AU200001015AW1105AW2715GA1095+004575999GD15991+0045759GE19AGL   +99999+99999GF109991999999004571999999MA1101355101115MW1715REMMET11101/06/25 08:32:02 SPECI KACY 061332Z 00000KT 3/4SM -SN BR VV015 M04/M06 A2993 RMK AO2 TWR VIS 1 P0002 T10391061
0268724070937302025010613427+39452-074567FM-16+0020KACY V0209999C00005004275WN0012075N5-00395-00565999999ADDAA101000731AU110030015AU200001015AW1105AW2715GA1095+004275999GD15991+0042759GE19AGL   +99999+99999GF109991999999004271999999MA1101395101155MW1715REMMET11101/06/25 08:42:02 SPECI KACY 061342Z 00000KT 3/4SM -SN BR VV014 M04/M06 A2994 RMK AO2 TWR VIS 1 P0003 T10391056
0276724070937302025010613547+39452-074567FM-15+0020KACY V0209999C00005003965WN0008055N5-00395-00565101385ADDAA101001095AU120030015AU208002015AW1355AW2725GA1095+003965999GD15991+0039659GE19AGL   +99999+99999GF109991999999003961999999MA1101395101155MW1735REMMET11901/06/25 08:54:02 METAR KACY 061354Z 00000KT 1/2SM SN FZFG VV013 M04/M06 A2994 RMK AO2 TWR VIS 1 SLP138 P0004 T10391056
0263724070937302025010614137+39452-074567FM-16+0020KACY V0200805N00155004885WN0016095N5-00395-00565999999ADDAA101000231AU110030015AU200001015AW1105AW2715GA1095+004885999GD15991+0048859GE19AGL   +99999+99999GF109991999999004881999999MA1101295101055MW1715REMMET10601/06/25 09:13:02 SPECI KACY 061413Z 08003KT 1SM -SN BR VV016 M04/M06 A2991 RMK AO2 PRESFR P0001 T10391056
0268724070937302025010614247+39452-074567FM-16+0020KACY V0209999C00005005185WN0012075N5-00395-00565999999ADDAA101000531AU110030015AU200001015AW1105AW2715GA1095+005185999GD15991+0051859GE19AGL   +99999+99999GF109991999999005181999999MA1101295101055MW1715REMMET11101/06/25 09:24:02 SPECI KACY 061424Z 00000KT 3/4SM -SN BR VV017 M04/M06 A2991 RMK AO2 TWR VIS 1 P0002 T10391056
0332724070937302025010614547+39452-074567FM-15+0020KACY V0200505N00215003965WN0008055N5-00395-00565101225ADDAA101001395AA203003391AU120030015AU208002015AW1355AW2725GA1095+003965999GD15991+0039659GE19AGL   +99999+99999GF109991999999003961999999MA1101225100985MD1890289+9999MW1735REMMET13101/06/25 09:54:02 METAR KACY 061454Z 05004KT 1/2SM SN FZFG VV013 M04/M06 A2989 RMK AO2 TWR VIS 1 SLP122 P0004 60013 T10391056 58028EQDQ01  00338PRCP03
0144724070937302025010615004+39450-074567FM-12+002099999V0200501N002119999999N000800199-00391-00561101221ADDAA103003031MA1999999100791MD1810281+9999MW1731REMSYN08672407 11408 /0504 11039 21056 30079 40122 58028 60037 773// 91454 333 96041 555 90615=
0256724070937302025010615247+39452-074567FM-16+0020KACY V0200205N00315005495WN0016095N5-00335-00565999999ADDAA101000531AU110030015AU200001015AW1105AW2715GA1095+005495999GD15991+0054959GE19AGL   +99999+99999GF109991999999005491999999MA1101155100915MW1715REMMET09901/06/25 10:24:02 SPECI KACY 061524Z 02006KT 1SM -SN BR VV018 M03/M06 A2987 RMK AO2 P0002 T10331056
0263724070937302025010615547+39452-074567FM-15+0020KACY V0200405N00215005795WN0016095N5-00335-00565101125ADDAA101000895AU110030015AU200001015AW1105AW2715GA1095+005795999GD15991+0057959GE19AGL   +99999+99999GF109991999999005791999999MA1101125100885MW1715REMMET10601/06/25 10:54:02 METAR KACY 061554Z 04004KT 1SM -SN BR VV019 M03/M06 A2986 RMK AO2 SLP112 P0003 T10331056
0268724070937302025010616067+39452-074567FM-16+0020KACY V0200105N00155004885WN0012075N5-00335-00505999999ADDAA101000231AU110030015AU200001015AW1105AW2715GA1095+004885999GD15991+0048859GE19AGL   +99999+99999GF109991999999004881999999MA1101055100815MW1715REMMET11101/06/25 11:06:02 SPECI KACY 061606Z 01003KT 3/4SM -SN BR VV016 M03/M05 A2984 RMK AO2 TWR VIS 1 P0001 T10331050
0275724070937302025010616167+39452-074567FM-16+0020KACY V0200105N00215003965WN0012075N5-00285-00505999999ADDAA101000531AU110030015AU200001015AW1105AW2715GA1095+003965999GD15991+0039659GE19AGL   +99999+99999GF109991999999003961999999MA1101025100785MW1715REMMET11801/06/25 11:16:02 SPECI KACY 061616Z 01004KT 3/4SM -SN BR VV013 M03/M05 A2983 RMK AO2 TWR VIS 1 PRESFR P0002 T10281050
0307724070937302025010616227+39452-074567FM-16+0020KACY V0200105N00215004885MN0012075N5-00335-00505999999ADDAA101000531AU110030015AU200001015AW1105AW2715GA1025+001525999GA2085+004885999GD11991+0015259GD24991+0048859GE19AGL   +99999+99999GF199999999999001521999999MA1101025100785MW1715REMMET11901/06/25 11:22:02 SPECI KACY 061622Z 01004KT 3/4SM -SN BR FEW005 OVC016 M03/M05 A2983 RMK AO2 TWR VIS 1 P0002 T10331050
0271724070937302025010616307+39452-074567FM-16+0020KACY V0203505N00265005495MN0016095N5-00335-00505999999ADDAA101000531AU110030015AU200001015AW1105AW2715GA1085+005495999GD14991+0054959GE19AGL   +99999+99999GF199999999999005491999999MA1101025100785MW1715REMMET11401/06/25 11:30:02 SPECI KACY 061630Z 35005KT 1SM -SN BR OVC018 M03/M05 A2983 RMK AO2 SFC VIS 1 1/4 P0002 T10331050
0268724070937302025010616457+39452-074567FM-16+0020KACY V0200105N00215005185WN0012075N5-00335-00565999999ADDAA101000731AU110030015AU200001015AW1105AW2715GA1095+005185999GD15991+0051859GE19AGL   +99999+99999GF109991999999005181999999MA1100985100745MW1715REMMET11101/06/25 11:45:02 SPECI KACY 061645Z 01004KT 3/4SM -SN BR VV017 M03/M06 A2982 RMK AO2 TWR VIS 1 P0003 T10331056
0276724070937302025010616547+39452-074567FM-15+0020KACY V0203405N00155003965WN0008055N5-00335-00505100975ADDAA101001095AU120030015AU208002015AW1355AW2725GA1095+003965999GD15991+0039659GE19AGL   +99999+99999GF109991999999003961999999MA1100955100715MW1735REMMET11901/06/25 11:54:02 METAR KACY 061654Z 34003KT 1/2SM SN FZFG VV013 M03/M05 A2981 RMK AO2 TWR VIS 1 SLP097 P0004 T10331050
0264724070937302025010617087+39452-074567FM-16+0020KACY V0203405N00265002445WN0004025N5-00335-00505999999ADDAA101000531AU130030015AU208002015AW1355AW2735GA1095+002445999GD15991+0024459GE19AGL   +99999+99999GF109991999999002441999999MA1100915100675REMMET11301/06/25 12:08:02 SPECI KACY 061708Z 34005KT 1/4SM +SN FZFG VV008 M03/M05 A2980 RMK AO2 TWR VIS 1 P0002 T10331050
0269724070937302025010617307+39452-074567FM-16+0020KACY V0203405N00265003055WN0008055N5-00335-00505999999ADDAA101001531AU120030015AU208002015AW1355AW2725GA1095+003055999GD15991+0030559GE19AGL   +99999+99999GF109991999999003051999999MA1100885100645MW1735REMMET11201/06/25 12:30:02 SPECI KACY 061730Z 34005KT 1/2SM SN FZFG VV010 M03/M05 A2979 RMK AO2 TWR VIS 1 P0006 T10331050
0256724070937302025010617387+39452-074567FM-16+0020KACY V0203605N00265004575WN0016095N5-00335-00505999999ADDAA101001531AU110030015AU200001015AW1105AW2715GA1095+004575999GD15991+0045759GE19AGL   +99999+99999GF109991999999004571999999MA1100815100575MW1715REMMET09901/06/25 12:38:02 SPECI KACY 061738Z 36005KT 1SM -SN BR VV015 M03/M05 A2977 RMK AO2 P0006 T10331050
0357724070937302025010617547+39452-074567FM-15+0020KACY V0203605N00315006105WN0016095N5-00335-00505100765ADDAA101001595AA206006991AU110030015AU200001015AW1105AW2715GA1095+006105999GD15991+0061059GE19AGL   +99999+99999GF109991999999006101999999KA1060M-00281KA2060N-00441MA1100755100515MD1890469+9999MW1715REMMET13001/06/25 12:54:02 METAR KACY 061754Z 36006KT 1SM -SN BR VV020 M03/M05 A2975 RMK AO2 SLP076 P0007 60027 T10331050 11028 21044 58046EQDQ01  00688PRCP06
0182724070937302025010618004+39450-074567FM-12+002099999V0203601N003119999999N001600199-00331-00501100761ADDAA106007031KA1120M-00221KA2120N-00441MA1999999100321MD1810461+9999MW1711REMSYN09872407 11516 /3606 11033 21050 30032 40076 58046 60071 771// 91754 333 11022 21044 96010 555 90618=
0347724070937302025010618267+39452-074567FM-16+0020KACY V0203605N00365008235MN0016095N5-00285-00505999999ADDAA101000021AU110030015AU200001015AW1105AW2715GA1025+001835999GA2075+008235999GA3085+014635999GD11991+0018359GD23991+0082359GD34991+0146359GE19AGL   +99999+99999GF199999999999001831999999MA1100645100405MW1715REMMET12801/06/25 13:26:02 SPECI KACY 061826Z 36007KT 1SM -SN BR FEW006 BKN027 OVC048 M03/M05 A2972 RMK AO2 SFC VIS 2 1/2 P0000 T10281050
0333724070937302025010618407+39452-074567FM-16+0020KACY V0200105N00415011285MN0048285N5-00285-00505999999ADDAA101000021AU110030015AU200001015AW1105AW2715GA1025+001835999GA2075+011285999GA3085+014025999GD11991+0018359GD23991+0112859GD34991+0140259GE19AGL   +99999+99999GF199999999999001831999999MA1100645100405MW1715REMMET11401/06/25 13:40:02 SPECI KACY 061840Z 01008KT 3SM -SN BR FEW006 BKN037 OVC046 M03/M05 A2972 RMK AO2 P0000 T10281050
0347724070937302025010618547+39452-074567FM-15+0020KACY V0200105N00365012805MN0096565N5-00225-00445100565ADDAA101000025AU110030015AU200001015AW1105AW2715GA1025+002445999GA2075+012805999GA3085+015245999GD11991+0024459GD23991+0128059GD34991+0152459GE19AGL   +99999+99999GF199999999999002441999999MA1100585100345MW1715REMMET12801/06/25 13:54:01 METAR KACY 061854Z 01007KT 6SM -SN BR FEW008 BKN042 OVC050 M02/M04 A2970 RMK AO2 PRESFR SLP056 P0000 T10221044
0262724070937302025010619477+39452-074567FM-16+0020KACY V0200105N00515002445MN0160935N5-00225-00445999999ADDAA101000021GA1075+002445999GA2085+016765999GD13991+0024459GD24991+0167659GE19AGL   +99999+99999GF199999999999002441999999MA1100375100135REMMET11401/06/25 14:47:02 SPECI KACY 061947Z 01010KT 10SM BKN008 OVC055 M02/M04 A2964 RMK AO2 SNE25 PRESFR P0000 T10221044
0262724070937302025010619547+39452-074567FM-15+0020KACY V0203605N00415002445MN0160935N5-00225-00505100485ADDAA101000025GA1075+002445999GA2085+016765999GD13991+0024459GD24991+0167659GE19AGL   +99999+99999GF199999999999002441999999MA1100475100245REMMET11401/06/25 14:54:02 METAR KACY 061954Z 36008KT 10SM BKN008 OVC055 M02/M05 A2967 RMK AO2 SNE25 SLP048 P0000 T10221050
0194724070937302025010620397+39452-074567FM-16+0020KACY V0200105N00365003055MN0160935N5-00225-00445999999ADDGA1085+003055999GD14991+0030559GE19AGL   +99999+99999GF199999999999003051999999MA1100445100205REMMET08801/06/25 15:39:02 SPECI KACY 062039Z 01007KT 10SM OVC010 M02/M04 A2966 RMK AO2 T10221044
0249724070937302025010620547+39452-074567FM-15+0020KACY V0200105N00215003055MN0160935N5-00175-00445100465ADDAA101000095AA203000021GA1085+003055999GD14991+0030559GE19AGL   +99999+99999GF199999999999003051999999MA1100475100245MD1690309+9999REMMET10701/06/25 15:54:02 METAR KACY 062054Z 01004KT 10SM OVC010 M02/M04 A2967 RMK AO2 SLP046 60000 T10171044 56030
0186724070937302025010621004+39450-074567FM-12+002099999V0200101N002119999999N016000199-00171-00441100461ADDAA103000021GA1999+004501999GE19AGL   +99999+99999GF108991999999004501999999MA1999999100051MD1610301+9999REMSYN07072407 12466 80104 11017 21044 30005 40046 56030 69907 92054 555 90621=
0232724070937302025010621137+39452-074567FM-16+0020KACY V0200105N00265018295MN0160935N5-00225-00445999999ADDGA1045+003055999GA2085+018295999GD12991+0030559GD24991+0182959GE19AGL   +99999+99999GF199999999999003051999999MA1100445100205REMMET09501/06/25 16:13:02 SPECI KACY 062113Z 01005KT 10SM SCT010 OVC060 M02/M04 A2966 RMK AO2 T10221044
0288724070937302025010621547+39452-074567FM-15+0020KACY V0200105N00465019815MN0144845N5-00225-00445100385ADDAA101000025AU110030015AW1715GA1025+003055999GA2085+019815999GD11991+0030559GD24991+0198159GE19AGL   +99999+99999GF199999999999003051999999MA1100375100135MW1715REMMET11701/06/25 16:54:02 METAR KACY 062154Z 01009KT 9SM -SN FEW010 OVC065 M02/M04 A2964 RMK AO2 SNB54 SLP038 P0000 T10221044
0295724070937302025010622227+39452-074567FM-16+0020KACY V0203605N00465006105MN0032195N5-00225-00445999999ADDAA101000021AU110030015AU200001015AW1105AW2715GA1075+006105999GA2085+018295999GD13991+0061059GD24991+0182959GE19AGL   +99999+99999GF199999999999006101999999MA1100345100105MW1715REMMET10701/06/25 17:22:02 SPECI KACY 062222Z 36009KT 2SM -SN BR BKN020 OVC060 M02/M04 A2963 RMK AO2 P0000 T10221044
0264724070937302025010622547+39452-074567FM-15+0020KACY V0203505N00415005495MN0032195N5-00225-00445100345ADDAA101000395AU110030015AU200001015AW1105AW2715GA1085+005495999GD14991+0054959GE19AGL   +99999+99999GF199999999999005491999999MA1100345100105MW1715REMMET10701/06/25 17:54:02 METAR KACY 062254Z 35008KT 2SM -SN BR OVC018 M02/M04 A2963 RMK AO2 SLP034 P0001 T10221044
0257724070937302025010623017+39452-074567FM-16+0020KACY V0203505N00465005495MN0080475N5-00225-00445999999ADDAA101000021AU110030015AU200001015AW1105AW2715GA1085+005495999GD14991+0054959GE19AGL   +99999+99999GF199999999999005491999999MA1100345100105MW1715REMMET10001/06/25 18:01:02 SPECI KACY 062301Z 35009KT 5SM -SN BR OVC018 M02/M04 A2963 RMK AO2 P0000 T10221044
0317724070937302025010623547+39452-074567FM-15+0020KACY V0203505N00515006405MN0144845N5-00225-00445100285ADDAA101000025AA206000391GA1085+006405999GD14991+0064059GE19AGL   +99999+99999GF199999999999006401999999KA1060M-00171KA2060N-00331MA1100275100035MD1690189+9999REMMET13001/06/25 18:54:02 METAR KACY 062354Z 35010KT 9SM OVC021 M02/M04 A2961 RMK AO2 SNE18 SLP028 P0000 60001 T10221044 11017 21033 56018EQDQ01  00028PRCP06
0228724070937302025010700004+39450-074567FM-12+002099999V0203501N005119999999N014000199-00221-00441100281ADDAA106000331GA1999+008001999GE19AGL   +99999+99999GF108991999999008001999999KA1120M-00171KA2120N-00441MA1999999099851MD1610181+9999REMSYN08672407 12564 83510 11022 21044 39985 40028 56018 69931 92354 333 11017 21044 555 90700=
0270724070937302025010700367+39452-074567FM-16+0020KACY V0203605N00515021345MN0160935N5-00225-00445999999ADDGA1025+003355999GA2045+010975999GA3085+021345999GD11991+0033559GD22991+0109759GD34991+0213459GE19AGL   +99999+99999GF199999999999003351999999MA1100275100035REMMET10201/06/25 19:36:01 SPECI KACY 070036Z 36010KT 10SM FEW011 SCT036 OVC070 M02/M04 A2961 RMK AO2 T10221044
0212724070937302025010700547+39452-074567FM-15+0020KACY V0203505N00675021345MN0160935N5-00225-00445100265ADDAA101000025GA1085+021345999GD14991+0213459GE19AGL   +99999+99999GF199999999999021341999999MA1100275100035REMMET09501/06/25 19:54:01 METAR KACY 070054Z 35013KT 10SM OVC070 M02/M04 A2961 RMK AO2 SLP026 T10221044
0316724070937302025010701547+39452-074567FM-15+0020KACY V0203305N00575011285MN0080475N5-00225-00445100345ADDAA101000025AU110030015AU200001015AW1105AW2715GA1075+011285999GA2085+021345999GD13991+0112859GD24991+0213459GE19AGL   +99999+99999GF199999999999011281999999MA1100345100105MW1715REMMET12801/06/25 20:54:01 METAR KACY 070154Z 33011KT 5SM -SN BR BKN037 OVC070 M02/M04 A2963 RMK AO2 SNB0059E20B44 SLP034 P0000 T10221044
0261724070937302025010702247+39452-074567FM-16+0020KACY V0203305N00515007925MN0028165N5-00225-00445999999ADDAA101000021AU110030015AU200001015AW1105AW2715GA1085+007925999GD14991+0079259GE19AGL   +99999+99999GF199999999999007921999999MA1100415100175MW1715REMMET10401/06/25 21:24:01 SPECI KACY 070224Z 33010KT 1 3/4SM -SN BR OVC026 M02/M04 A2965 RMK AO2 P0000 T10221044
0251724070937302025010702517+39452-074567FM-16+0020KACY V0203105N00625006105MN0040235N5-00205-00405999999ADDAA101000231AU110030015AU200001015AW1105AW2715GA1085+006105999GD14991+0061059GE19AGL   +99999+99999GF199999999999006101999999MA1100475100245MW1715REMMET09401/06/25 21:51:01 SPECI KACY 070251Z 31012KT 2 1/2SM -SN BR OVC020 M02/M04 A2967 RMK AO2 P0001
0320724070937302025010702547+39452-074567FM-15+0020KACY V0203205N00625007325MN0048285N5-00225-00395100475ADDAA101000395AA203000391AU110030015AU200001015AW1105AW2715GA1085+007325999GD14991+0073259GE19AGL   +99999+99999GF199999999999007321999999MA1100475100245MD1190219+9999MW1715REMMET11901/06/25 21:54:01 METAR KACY 070254Z 32012KT 3SM -SN BR OVC024 M02/M04 A2967 RMK AO2 SLP047 P0001 60001 T10221039 51021EQDQ01  00028PRCP03
0208724070937302025010703004+39450-074567FM-12+002099999V0203201N006219999999N004800199-00221-00391100471ADDAA103000331GA1999+008001999GE19AGL   +99999+99999GF108991999999008001999999MA1999999100051MD1110211+9999MW1711REMSYN08672407 11548 83212 11022 21039 30005 40047 51021 69937 771// 90254 333 96010 555 90703=
0257724070937302025010703077+39452-074567FM-16+0020KACY V0203105N00775009145MN0048285N5-00225-00445999999ADDAA101000021AU110030015AU200001015AW1105AW2715GA1085+009145999GD14991+0091459GE19AGL   +99999+99999GF199999999999009141999999MA1100515100275MW1715REMMET10001/06/25 22:07:01 SPECI KACY 070307Z 31015KT 3SM -SN BR OVC030 M02/M04 A2968 RMK AO2 P0000 T10221044
0261724070937302025010703137+39452-074567FM-16+0020KACY V0203205N00885007325MN0028165N5-00225-00445999999ADDAA101000021AU110030015AU200001015AW1105AW2715GA1085+007325999GD14991+0073259GE19AGL   +99999+99999GF199999999999007321999999MA1100515100275MW1715REMMET10401/06/25 22:13:02 SPECI KACY 070313Z 32017KT 1 3/4SM -SN BR OVC024 M02/M04 A2968 RMK AO2 P0000 T10221044
0269724070937302025010703217+39452-074567FM-16+0020KACY V0203205N00625005495WN0012075N5-00225-00445999999ADDAA101000021AU110030015AU200001015AW1105AW2715GA1095+005495999GD15991+0054959GE19AGL   +99999+99999GF109991999999005491999999MA1100545100305MW1715OC101135REMMET10401/06/25 22:21:02 SPECI KACY 070321Z 32012G22KT 3/4SM -SN BR VV018 M02/M04 A2969 RMK AO2 P0000 T10221044
0261724070937302025010703337+39452-074567FM-16+0020KACY V0203105N00675004275MN0024145N5-00225-00445999999ADDAA101000231AU110030015AU200001015AW1105AW2715GA1085+004275999GD14991+0042759GE19AGL   +99999+99999GF199999999999004271999999MA1100545100305MW1715REMMET10401/06/25 22:33:02 SPECI KACY 070333Z 31013KT 1 1/2SM -SN BR OVC014 M02/M04 A2969 RMK AO2 P0001 T10221044
0262724070937302025010703377+39452-074567FM-16+0020KACY V0203105N00675004885MN0032195N5-00225-00445999999ADDAA101000531AU110030015AU200001015AW1105AW2715GA1085+004885999GD14991+0048859GE19AGL   +99999+99999GF199999999999004881999999MA1100545100305MW1715REMMET10501/06/25 22:37:02 SPECI KACY 070337Z 31013KT 2SM -SN BR OVC016 M02/M04 A2969 RMK AO2 P0002 T10221044 TSNO
0257724070937302025010703477+39452-074567FM-16+0020KACY V0203005N00625007625MN0064375N5-00225-00445999999ADDAA101000531AU110030015AU200001015AW1105AW2715GA1085+007625999GD14991+0076259GE19AGL   +99999+99999GF199999999999007621999999MA1100585100345MW1715REMMET10001/06/25 22:47:02 SPECI KACY 070347Z 30012KT 4SM -SN BR OVC025 M02/M04 A2970 RMK AO2 P0002 T10221044
0264724070937302025010703547+39452-074567FM-15+0020KACY V0203005N00515008235MN0048285N5-00225-00445100605ADDAA101000595AU110030015AU200001015AW1105AW2715GA1085+008235999GD14991+0082359GE19AGL   +99999+99999GF199999999999008231999999MA1100615100375MW1715REMMET10701/06/25 22:54:02 METAR KACY 070354Z 30010KT 3SM -SN BR OVC027 M02/M04 A2971 RMK AO2 SLP060 P0002 T10221044
0299724070937302025010704037+39452-074567FM-16+0020KACY V0203105N00515007925MN0040235N5-00225-00445999999ADDAA101000021AU110030015AU200001015AW1105AW2715GA1025+005185999GA2085+007925999GD11991+0051859GD24991+0079259GE19AGL   +99999+99999GF199999999999005181999999MA1100615100375MW1715REMMET11101/06/25 23:03:02 SPECI KACY 070403Z 31010KT 2 1/2SM -SN BR FEW017 OVC026 M02/M04 A2971 RMK AO2 P0000 T10221044
0333724070937302025010704197+39452-074567FM-16+0020KACY V0203105N00675005495MN0048285N5-00225-00445999999ADDAA101000021AU110030015AU200001015AW1105AW2715GA1045+003665999GA2075+005495999GA3085+007325999GD12991+0036659GD23991+0054959GD34991+0073259GE19AGL   +99999+99999GF199999999999003661999999MA1100615100375MW1715REMMET11401/06/25 23:19:02 SPECI KACY 070419Z 31013KT 3SM -SN BR SCT012 BKN018 OVC024 M02/M04 A2971 RMK AO2 P0000 T10221044
0344724070937302025010704237+39452-074567FM-16+0020KACY V0203105N00885004275MN0048285N5-00225-00445999999ADDAA101000021AU110030015AU200001015AW1105AW2715GA1025+002745999GA2075+004275999GA3085+007325999GD11991+0027459GD23991+0042759GD34991+0073259GE19AGL   +99999+99999GF199999999999002741999999MA1100615100375MW1715OC101085REMMET11701/06/25 23:23:02 SPECI KACY 070423Z 31017G21KT 3SM -SN BR FEW009 BKN014 OVC024 M02/M04 A2971 RMK AO2 P0000 T10221044
0310724070937302025010704267+39452-074567FM-16+0020KACY V0203205N00885006715MN0040235N5-00285-00505999999ADDAA101000021AU110030015AU200001015AW1105AW2715GA1045+004275999GA2085+006715999GD12991+0042759GD24991+0067159GE19AGL   +99999+99999GF199999999999004271999999MA1100615100375MW1715OC101185REMMET11401/06/25 23:26:02 SPECI KACY 070426Z 32017G23KT 2 1/2SM -SN BR SCT014 OVC022 M03/M05 A2971 RMK AO2 P0000 T10281050
0275724070937302025010704377+39452-074567FM-16+0020KACY V0203305N00775007325MN0064375N5-00285-00615999999ADDAA101000021AU110030015AW1715GA1025+003965999GA2085+007325999GD11991+0039659GD24991+0073259GE19AGL   +99999+99999GF199999999999003961999999MA1100645100405MW1715REMMET10401/06/25 23:37:02 SPECI KACY 070437Z 33015KT 4SM -SN FEW013 OVC024 M03/M06 A2972 RMK AO2 P0000 T10281061
0280724070937302025010704527+39452-074567FM-16+0020KACY V0203205N00725006715MN0040235N5-00305-00605999999ADDAA101000021AU110030015AW1715GA1025+004885999GA2085+006715999GD11991+0048859GD24991+0067159GE19AGL   +99999+99999GF199999999999004881999999MA1100645100405MW1715OC101185REMMET10101/06/25 23:52:02 SPECI KACY 070452Z 32014G23KT 2 1/2SM -SN FEW016 OVC022 M03/M06 A2972 RMK AO2 P0000
0333724070937302025010704547+39452-074567FM-15+0020KACY V0203105N00985006715MN0040235N5-00335-00615100625ADDAA101000025AU110030015AW1715GA1025+004885999GA2085+006715999GD11991+0048859GD24991+0067159GE19AGL   +99999+99999GF199999999999004881999999KA1240M-00171KA2240N-00441MA1100615100375MW1715OC101185REMMET12801/06/25 23:54:02 METAR KACY 070454Z 31019G23KT 2 1/2SM -SN FEW016 OVC022 M03/M06 A2971 RMK AO2 SLP062 P0000 T10331061 410171044
0949724070937302025010704596+39452-074567SOD  +0020KACY V020999999999999999999999999999+99999+99999999999ADDAA124009195AT1AU18SN  5AT2AU22FZFG5AT3AU13BR  5AT4AW01FG  5AX1015245KA1240M-00165KA2240N-00435MG1100674100244OE11240147532023595OE22240107332023595OE33240032699999995REMSOD77124 HR PRECIPITATION (IN): 0.36 WEATHER(CODE):1  24 HR MAX TEMP (F):29 24 HR MAX TEMP TIME (LST):2201 24 HR MIN TEMP (F):24 24 HR MIN TEMP TIME (LST):0829 AVERAGE STATION PRESSURE(D):29.727 MINIMUM SEA LEVEL PRESSURE:29.60 TIME OF OCCURRENCE:1951 PEAK WIND SPEED (MPH):33  PEAK WIND DIR (DEG):320 PEAK WIND TIME (LST):2359  FASTEST 2MIN SPEED (MPH):24 FASTEST 2MIN DIR (DEG):320 FASTEST 2MIN TIME (LST):2359 AVERAGE WIND SPEED (MPH): 7.3 24 HR AVG TEMP (F):27 DEPART FROM NORMAL:  -5 HEATING DEGREE DAYS: 38 COOLING DEGREE DAYS:  0 LATEST DAY MAX TEMP (0700-1900 LST): 29 LATEST NIGHT MIN TEMP(1900-0800 LST):24 HOURLY INCREMENTAL PRECIPITATION VALUES (IN):0.00 0.00 0.00 0.00 0.00T     0.05 0.05 0.04 0.05 0.03 0.04 0.06T    T     0.00T     0.01T    T    T     0.01 0.02T
0318724070937302025010705007+39452-074567FM-16+0020KACY V0203205N01185009145MN0048285N5-00395-00675999999ADDAA101000021AU110030015AW1715GA1025+004885999GA2085+009145999GD11991+0048859GD24991+0091459GE19AGL   +99999+99999GF199999999999004881999999MA1100615100375MW1715OC101495OD149901491310REMMET12501/07/25 00:00:02 SPECI KACY 070500Z 32023G29KT 3SM -SN FEW016 OVC030 M04/M07 A2971 RMK AO2 PK WND 31029/0500 P0000 T10391067
0422724070937302025010705547+39452-074567FM-15+0020KACY V0203205N008252200059N0048285N5-00565-00945100675ADDAA101000025AA206000891GA1025+005495999GA2025+028965999GD11991+0054959GD21991+0289659GE19AGL   +99999+99999GF102995999999005491999999KA1060M-00171KA2060N-00561MA1100685100445MD1390079+9999OD149901691330REMMET17401/07/25 00:54:02 METAR KACY 070554Z 32016KT 3SM FEW018 FEW095 M06/M09 A2973 RMK AO2 PK WND 33033/0524 SFC VIS 10 UPB19E35SNE19 SLP067 P0000 60003 T10561094 11017 21056 53007EQDQ01  00078PRCP06D01      0ADE726
0228724070937302025010706004+39450-074567FM-12+002099999V0203201N008212200019N004800199-00561-00941100671ADDAA106000831GA1999+004501999GE19AGL   +99999+99999GF102991999999004501999999KA1240M-00171KA2240N-00561MA1999999100251MD1310071+9999REMSYN08672407 12448 23216 11056 21094 30025 40067 53007 69981 90554 333 11017 21056 555 90706=
0245724070937302025010706547+39452-074567FM-15+0020KACY V0203105N010852200059N0160935N5-00675-01175100795ADDAA101000025GA1005+999999999GD10991+9999999GF100991999999999999999999MA1100785100545OC101495OD149901691310REMMET12801/07/25 01:54:02 METAR KACY 070654Z 31021G29KT 10SM CLR M07/M12 A2976 RMK AO2 PK WND 31033/0607 UPB12E20 SLP079 P0000 T10671117
0247724070937302025010707547+39452-074567FM-15+0020KACY V0203205N008852200059N0160935N5-00785-01335100905ADDAA101000025GA1005+999999999GD10991+9999999GF100991999999999999999999MA1100915100675OC101295OD149902111330REMMET13001/07/25 02:54:02 METAR KACY 070754Z 32017G25KT 10SM CLR M08/M13 A2980 RMK AO2 PK WND 33041/0717 UPB0655E43 SLP090 P0000 T10781133
0267724070937302025010708547+39452-074567FM-15+0020KACY V0203105N011352200059N0160935N5-00785-01285100875ADDAA101000095AA203000021GA1005+999999999GD10991+9999999GF100991999999999999999999MA1100885100645MD1090209+9999OC101545OD149901541320REMMET12501/07/25 03:54:02 METAR KACY 070854Z 31022G30KT 10SM CLR M08/M13 A2979 RMK AO2 PK WND 32030/0854 SLP087 60000 T10781128 50020
0165724070937302025010709004+39450-074567FM-12+002099999V0203101N011319999999N016000199-00781-01281100871ADDAA103000091MA1999999100461MD1990201+9999OD149901541999REMSYN08072407 12966 03122 11078 21128 30046 40087 50020 69907 90854 333 91030 555 90709=EQDQ01  00002PRCP03
0230724070937302025010709547+39452-074567FM-15+0020KACY V0203105N008252200059N0160935N5-00725-01285100955ADDAA101000095GA1005+999999999GD10991+9999999GF100991999999999999999999MA1100955100715OC101395OD149901541320REMMET11301/07/25 04:54:02 METAR KACY 070954Z 31016G27KT 10SM CLR M07/M13 A2981 RMK AO2 PK WND 32030/0932 SLP095 T10721128
0230724070937302025010710547+39452-074567FM-15+0020KACY V0203105N008252200059N0160935N5-00675-01285101055ADDAA101000095GA1005+999999999GD10991+9999999GF100991999999999999999999MA1101055100815OC101495OD149901541310REMMET11301/07/25 05:54:02 METAR KACY 071054Z 31016G29KT 10SM CLR M07/M13 A2984 RMK AO2 PK WND 31030/1034 SLP105 T10671128
0330724070937302025010711547+39452-074567FM-15+0020KACY V0203105N008852200059N0160935N5-00725-01285101135ADDAA101000095AA206000021AA324007991GA1005+999999999GD10991+9999999GF100991999999999999999999KA1060M-00561KA2060N-00781MA1101125100885MD1190269+9999OD149901441310REMMET14001/07/25 06:54:01 METAR KACY 071154Z 31017KT 10SM CLR M07/M13 A2986 RMK AO2 PK WND 31028/1108 SLP113 60000 70031 T10721128 11056 21078 51026EQDQ01  00788PRCP24
0200724070937302025010712004+39450-074567FM-12+002099999V0203101N008819999999N016000199-00721-01281101131ADDAA106000091AA224007931KA1240M-00171KA2240N-00781MA1999999100691MD1110261+9999REMSYN09272407 12966 03117 11072 21128 30069 40113 51026 69901 91154 333 11017 21078 70079 555 90712=EQDQ01  00002PRCP06
0187724070937302025010712547+39452-074567FM-15+0020KACY V0203005N009352200059N0160935N5-00675-01285101185ADDAA101000095GA1005+999999999GD10991+9999999GF100991999999999999999999MA1101195100955REMMET09201/07/25 07:54:01 METAR KACY 071254Z 30018KT 10SM CLR M07/M13 A2988 RMK AO2 SLP118 T10671128
0230724070937302025010713547+39452-074567FM-15+0020KACY V0203005N008852200059N0160935N5-00565-01225101235ADDAA101000095GA1005+999999999GD10991+9999999GF100991999999999999999999MA1101225100985OC101345OD149901331290REMMET11301/07/25 08:54:02 METAR KACY 071354Z 30017G26KT 10SM CLR M06/M12 A2989 RMK AO2 PK WND 29026/1349 SLP123 T10561122
0250724070937302025010714547+39452-074567FM-15+0020KACY V0203005N012452200059N0160935N5-00445-01115101255ADDAA101000025GA1005+999999999GD10991+9999999GF100991999999999999999999MA1101255101015MD1190129+9999OC101855OD149901851290REMMET11901/07/25 09:54:02 METAR KACY 071454Z 30024G36KT 10SM CLR M04/M11 A2990 RMK AO2 PK WND 29036/1450 SLP125 T10441111 51012
0129724070937302025010715004+39450-074567FM-12+002099999V0203001N012419999999N016000199-00441-01111101251ADDMA1999999100831MD1110121+9999OD149901851999REMSYN07472407 32966 03024 11044 21111 30083 40125 51012 91454 333 91036 555 90715=
0263724070937302025010715547+39452-074567FM-15+0020KACY V0203105N013452200059N0112655N5-00335-01065101265ADDAA101000025AU120090015AW1415GA1005+999999999GD10991+9999999GF100991999999999999999999MA1101255101015OC101805OD149901901300REMMET12901/07/25 10:54:02 METAR KACY 071554Z 31026G35KT 7SM UP CLR M03/M11 A2990 RMK AO2 PK WND 30037/1516 UPB1456 SLP126 P0000 T10331106
0248724070937302025010716547+39452-074567FM-15+0020KACY V0203005N010852200059N0160935N5-00175-01065101195ADDAA101000025GA1005+999999999GD10991+9999999GF100991999999999999999999MA1101195100955OC101705OD149902001320REMMET13101/07/25 11:54:02 METAR KACY 071654Z 30021G33KT 10SM CLR M02/M11 A2988 RMK AO2 PK WND 32039/1628 UPE17B38E51 SLP119 P0000 T10171106
0339724070937302025010717547+39452-074567FM-15+0020KACY V0203005N011852200059N0160935N5-00065-01065101195ADDAA101000025AA206000021GA1005+999999999GD10991+9999999GF100991999999999999999999KA1060M-00061KA2060N-00721MA1101195100955MD1890069+9999OC101755OD149902161300REMMET15201/07/25 12:54:02 METAR KACY 071754Z 30023G34KT 10SM CLR M01/M11 A2988 RMK AO2 PK WND 30042/1702 UPB02E29 SLP119 P0000 60000 T10061106 11006 21072 58006EQDQ01  00008PRCP06
0184724070937302025010718004+39450-074567FM-12+002099999V0203001N011819999999N016000199-00061-01061101191ADDAA106000021KA1120M-00061KA2120N-00721MA1999999100761MD1810061+9999OD149901751999REMSYN09272407 12966 03023 11006 21106 30076 40119 58006 69901 91754 333 11006 21072 91034 555 90718=
0229724070937302025010718547+39452-074567FM-15+0020KACY V0203005N008852200059N0160935N5+00005-00945101185ADDAA101000095GA1005+999999999GD10991+9999999GF100991999999999999999999MA1101195100955OC101605OD149902051290REMMET11201/07/25 13:54:02 METAR KACY 071854Z 30017G31KT 10SM CLR 00/M09 A2988 RMK AO2 PK WND 29040/1840 SLP118 T00001094
0229724070937302025010719547+39452-074567FM-15+0020KACY V0202905N009352200059N0160935N5+00065-00945101255ADDAA101000095GA1005+999999999GD10991+9999999GF100991999999999999999999MA1101255101015OC101495OD149901801290REMMET11201/07/25 14:54:01 METAR KACY 071954Z 29018G29KT 10SM CLR 01/M09 A2990 RMK AO2 PK WND 29035/1912 SLP125 T00061094
0209724070937302025010720546+39452-074567FM-15+0020KACY V0202905N010852200059N0160935N5+00005-01005101325ADDAA101000095GA1005+999999999GD10991+9999999MA1101325101085MD1390139+9999OC101495REMMET11801/07/25 15:54:02 METAR KACY 072054Z 29021G29KT 10SM CLR 00/M10 A2992 RMK AO2 PK WND 31035/2013 SLP132 T00001100 53013
