0097724077547792024010100544+41009-074738FM-15+017899999V0209999C000019999999N999999999+00331-00281101611ADDMA1101521999999REMMET070METAR K12N 010054Z AUTO 00000KT 03/M03 A2998 RMK AO1 SLP161 T00331028=
0097724077547792024010101544+41009-074738FM-15+017899999V0209999C000019999999N999999999+00331-00221101601ADDMA1101521999999REMMET070METAR K12N 010154Z AUTO 00000KT 03/M02 A2998 RMK AO1 SLP160 T00331022=
0117724077547792024010102544+41009-074738FM-15+017899999V0209999C000019999999N999999999+00331-00171101591ADDMA1101521999999MD1810031+9999REMMET076METAR K12N 010254Z AUTO 00000KT 03/M02 A2998 RMK AO1 SLP159 T00331017 58003=
0097724077547792024010103544+41009-074738FM-15+017899999V0209999C000019999999N999999999+00281-00171101621ADDMA1101561999999REMMET070METAR K12N 010354Z AUTO 00000KT 03/M02 A2999 RMK AO1 SLP162 T00281017=
0133724077547792024010104544+41009-074738FM-15+017899999V0209999V001519999999N999999999+00281-00111101631ADDKA1240M+00441KA2240N+00221MA1101561999999REMMET080METAR K12N 010454Z AUTO VRB03KT 03/M01 A2999 RMK AO1 SLP163 T00281011 400440022=
0886724077547792024010104596+41009-074736SOD  +0178K12N V020999999999999999999999999999+99999+99999999999ADDAA124000095KA1240M+00445KA2240N+00225MG1099204101054OE11240076033001065OE22240044733001075OE33240007299999995REMSOD73024 HR PRECIPITATION (IN):0.00  24 HR MAX TEMP (F):40 24 HR MAX TEMP TIME (LST):1705 24 HR MIN TEMP (F):36 24 HR MIN TEMP TIME (LST):2359 AVERAGE STATION PRESSURE:29.295 MINIMUM SEA LEVEL PRESSURE:29.84 TIME OF OCCURRENCE:0013 PEAK WIND SPEED (MPH):17  PEAK WIND DIR (DEG):330 PEAK WIND TIME (LST):0106  FASTEST 2MIN SPEED (MPH):10 FASTEST 2MIN DIR (DEG):330 FASTEST 2MIN TIME (LST):0107 AVERAGE WIND SPEED (MPH):1.6  24 HR AVG TEMP (F):38 HEATING DEGREE DAYS:27  COOLING DEGREE DAYS:0   LATEST DAY MAX TEMP (0700-1900 LST):40  LATEST NIGHT MIN TEMP(1900-0800 LST):36 HOURLY INCREMENTAL PRECIPITATION VALUES (IN):.00 0.00 0.00 0.00 0.00 0.00 0.00 0.00 0.00 0.00 0.00 0.00 0.00 0.00 0.00 0.00 0.00 0.00 0.00 0.00 0.00 0.00 0.00 0.00EQDR01     N7GJS072R02     N7GKS075
1294724077547792024010104596+41009-074736SOM  +0178K12N V020999999999999999999999999999+99999+99999999999ADDAB10217496AD10085991718999999996AE1105085075045AH1005003091808445AH2010004391019415AH3015006191019415AH4020007691019455AH5030009791019545AH6045013091019505AI1060015291020025AI2080017891020105AI3100020391803495AI4120024691803365AI5150030291803415AI6180034091804175KB1744N-00175KB2744M+08175KB3744A+04005KC1N9-00662299995KC2M9+01551810995KD1744H07926KD2744C00005KE1005005176005MH1099784102004MK1104001410185098311808165REMSOM798PCP MTOT:8.56 PCP GT 24HRS:3.38 DATE(S):17-18 DAYS W/PCP >=.01:10 DAYS W/PCP >=.10:8  DAYS W/ PCP >=.50:7 DAYS W/PCP >=1.00:4 MSDP AMTS W/DATE-TIME TAGS:MIN:5 0.12  18/0844 MIN:10 0.17  10/1941 MIN:15 0.24  10/1941 MIN:20 0.30  10/1945 MIN:30 0.38  10/1954 MIN:45 0.51  10/1950 MIN:60 0.60  10/2002 MIN:80 0.70  10/2010 MIN:100 0.80  18/0349 MIN:120 0.97  18/0336 MIN:150 1.19  18/0341 MIN:180 1.34  18/0417 AVG DLY MIN:31.7  AVG DLY MAX:46.7  AVG MLY TMP:39.2  MIN TMP:20 DATE(S):22 MAX TMP:60  DATE(S):18 10 DAYS MAX <=32:0 DAYS MAX >=90:0  DAYS MIN <=32:17 DAYS MIN  <=0:0  AVG STP:29.465 LWST SLP:29.03 DATE/TIME:180816 HGST SLP:30.71 DATE/TIME:141018 HDD MTH TOT:792 DEP NORM:-2553 SEASON(JUL 1-JUN 30):1966 DEP NORM:-25536 CDD MTH TOT:0 DEP NORM:-2553 SEASON(JAN 1-DEC 31):845 DEP NORM:-25536EQDR01  8.567ABP070R02  3.387ADP081R03   7927KDH045R04    177KE3038
0202724077547792024010105547+41009-074736FM-15+0178K12N V0209999C000059999999N9999997N5+00225-00065101615ADDKA1060M+00391KA2060N+00221MA1101525099405MD1090029+9999REMMET10001/01/24 00:54:02 METAR K12N 010554Z 00000KT 02/M01 A2998 RMK AO1 SLP161 T00221006 10039 20022 50002EQDR01      7SKY009R02      7GAS009
0144724077547792024010106547+41009-074736FM-15+0178K12N V0209999C000059999999N9999997N5+00225-00065101595ADDMA1101525099405REMMET08201/01/24 01:54:02 METAR K12N 010654Z 00000KT 02/M01 A2998 RMK AO1 SLP159 T00221006EQDR01      7SKY009R02      7GAS009
0144724077547792024010107547+41009-074736FM-15+0178K12N V0209999C000059999999N9999997N5+00225-00065101585ADDMA1101495099375REMMET08201/01/24 02:54:02 METAR K12N 010754Z 00000KT 02/M01 A2997 RMK AO1 SLP158 T00221006EQDR01      7SKY009R02      7GAS009
0164724077547792024010108547+41009-074736FM-15+0178K12N V0209999C000059999999N9999997N5+00175-00065101555ADDMA1101465099335MD1890069+9999REMMET08801/01/24 03:54:02 METAR K12N 010854Z 00000KT 02/M01 A2996 RMK AO1 SLP155 T00171006 58006EQDR01      7SKY009R02      7GAS009
0144724077547792024010109547+41009-074736FM-15+0178K12N V0209999C000059999999N9999997N5+00175-00065101565ADDMA1101495099375REMMET08201/01/24 04:54:02 METAR K12N 010954Z 00000KT 02/M01 A2997 RMK AO1 SLP156 T00171006EQDR01      7SKY009R02      7GAS009
0143724077547792024010110547+41009-074736FM-15+0178K12N V0209999C000059999999N9999997N5+00225+00005101615ADDMA1101525099405REMMET08101/01/24 05:54:02 METAR K12N 011054Z 00000KT 02/00 A2998 RMK AO1 SLP161 T00220000EQDR01      7SKY009R02      7GAS009
0202724077547792024010111547+41009-074736FM-15+0178K12N V0209999C000059999999N9999997N5+00115-00065101645ADDKA1060M+00221KA2060N+00111MA1101565099435MD1390099+9999REMMET10001/01/24 06:54:02 METAR K12N 011154Z 00000KT 01/M01 A2999 RMK AO1 SLP164 T00111006 10022 20011 53009EQDR01      7SKY009R02      7GAS009
0143724077547792024010112547+41009-074736FM-15+0178K12N V0209999C000059999999N9999997N5+00115+00005101705ADDMA1101635099505REMMET08101/01/24 07:54:02 METAR K12N 011254Z 00000KT 01/00 A3001 RMK AO1 SLP170 T00110000EQDR01      7SKY009R02      7GAS009
0143724077547792024010113547+41009-074736FM-15+0178K12N V0209999C000059999999N9999997N5+00225+00065101745ADDMA1101665099535REMMET08101/01/24 08:54:02 METAR K12N 011354Z 00000KT 02/01 A3002 RMK AO1 SLP174 T00220006EQDR01      7SKY009R02      7GAS009
0163724077547792024010114547+41009-074736FM-15+0178K12N V0200405N001559999999N9999997N5+00285+00065101755ADDMA1101665099535MD1190129+9999REMMET08701/01/24 09:54:02 METAR K12N 011454Z 04003KT 03/01 A3002 RMK AO1 SLP175 T00280006 51012EQDR01      7SKY009R02      7GAS009
0143724077547792024010115547+41009-074736FM-15+0178K12N V0200205N002159999999N9999997N5+00615+00065101725ADDMA1101665099535REMMET08101/01/24 10:54:02 METAR K12N 011554Z 02004KT 06/01 A3002 RMK AO1 SLP172 T00610006EQDR01      7SKY009R02      7GAS009
0144724077547792024010116547+41009-074736FM-15+0178K12N V0200205N002159999999N9999997N5+00565-00065101665ADDMA1101595099475REMMET08201/01/24 11:54:02 METAR K12N 011654Z 02004KT 06/M01 A3000 RMK AO1 SLP166 T00561006EQDR01      7SKY009R02      7GAS009
0202724077547792024010117547+41009-074736FM-15+0178K12N V0209999V001559999999N9999997N5+00565-00115101645ADDKA1060M+00611KA2060N+00111MA1101595099475MD1690109+9999REMMET10001/01/24 12:54:02 METAR K12N 011754Z VRB03KT 06/M01 A3000 RMK AO1 SLP164 T00561011 10061 20011 56010EQDR01      7SKY009R02      7GAS009
0144724077547792024010118547+41009-074736FM-15+0178K12N V0209999N999999999999N9999997N5+00565-00175101655ADDMA1101595099475REMMET08201/01/24 13:54:02 METAR K12N 011854Z      KT 06/M02 A3000 RMK AO1 SLP165 T00561017EQDR01      7SKY009R02      7GAS009
0144724077547792024010119547+41009-074736FM-15+0178K12N V0209999V001559999999N9999997N5+00505-00225101685ADDMA1101635099505REMMET08201/01/24 14:54:02 METAR K12N 011954Z VRB03KT 05/M02 A3001 RMK AO1 SLP168 T00501022EQDR01      7SKY009R02      7GAS009
0164724077547792024010120547+41009-074736FM-15+0178K12N V0203505N003159999999N9999997N5+00505-00225101735ADDMA1101665099535MD1390079+9999REMMET08801/01/24 15:54:02 METAR K12N 012054Z 35006KT 05/M02 A3002 RMK AO1 SLP173 T00501022 53007EQDR01      7SKY009R02      7GAS009
0144724077547792024010121547+41009-074736FM-15+0178K12N V0203505N001559999999N9999997N5+00335-00285101765ADDMA1101695099575REMMET08201/01/24 16:54:02 METAR K12N 012154Z 35003KT 03/M03 A3003 RMK AO1 SLP176 T00331028EQDR01      7SKY009R02      7GAS009
0144724077547792024010122547+41009-074736FM-15+0178K12N V0203505N001559999999N9999997N5+00335-00335101825ADDMA1101735099605REMMET08201/01/24 17:54:02 METAR K12N 012254Z 35003KT 03/M03 A3004 RMK AO1 SLP182 T00331033EQDR01      7SKY009R02      7GAS009
0202724077547792024010123547+41009-074736FM-15+0178K12N V0203505N003159999999N9999997N5+00285-00395101895ADDKA1060M+00561KA2060N+00281MA1101795099675MD1390159+9999REMMET10001/01/24 18:54:02 METAR K12N 012354Z 35006KT 03/M04 A3006 RMK AO1 SLP189 T00281039 10056 20028 53015EQDR01      7SKY009R02      7GAS009
0144724077547792024010200547+41009-074736FM-15+0178K12N V0203505N001559999999N9999997N5+00065-00445101935ADDMA1101835099705REMMET08201/01/24 19:54:01 METAR K12N 020054Z 35003KT 01/M04 A3007 RMK AO1 SLP193 T00061044EQDR01      7SKY009R02      7GAS009
0144724077547792024010201547+41009-074736FM-15+0178K12N V0200105N002159999999N9999997N5+00065-00395101955ADDMA1101865099735REMMET08201/01/24 20:54:01 METAR K12N 020154Z 01004KT 01/M04 A3008 RMK AO1 SLP195 T00061039EQDR01      7SKY009R02      7GAS009
0164724077547792024010202547+41009-074736FM-15+0178K12N V0203405N002159999999N9999997N5+00065-00445101975ADDMA1101905099775MD1190089+9999REMMET08801/01/24 21:54:01 METAR K12N 020254Z 34004KT 01/M04 A3009 RMK AO1 SLP197 T00061044 51008EQDR01      7SKY009R02      7GAS009
0144724077547792024010203547+41009-074736FM-15+0178K12N V0200105N002659999999N9999997N5+00065-00445101975ADDMA1101905099775REMMET08201/01/24 22:54:01 METAR K12N 020354Z 01005KT 01/M04 A3009 RMK AO1 SLP197 T00061044EQDR01      7SKY009R02      7GAS009
0181724077547792024010204547+41009-074736FM-15+0178K12N V0203605N003159999999N9999997N5-00065-00615101945ADDKA1240M+00611KA2240N-00061MA1101865099735REMMET09301/01/24 23:54:02 METAR K12N 020454Z 36006KT M01/M06 A3008 RMK AO1 SLP194 T10061061 400611006EQDR01      7SKY009R02      7GAS009
0203724077547792024010205547+41009-074736FM-15+0178K12N V0203405N002659999999N9999997N5-00115-00675101945ADDKA1060M+00281KA2060N-00111MA1101865099735MD1890039+9999REMMET10101/02/24 00:54:02 METAR K12N 020554Z 34005KT M01/M07 A3008 RMK AO1 SLP194 T10111067 10028 21011 58003EQDR01      7SKY009R02      7GAS009
0145724077547792024010206547+41009-074736FM-15+0178K12N V0203305N002659999999N9999997N5-00175-00785101965ADDMA1101865099735REMMET08301/02/24 01:54:02 METAR K12N 020654Z 33005KT M02/M08 A3008 RMK AO1 SLP196 T10171078EQDR01      7SKY009R02      7GAS009
0145724077547792024010207547+41009-074736FM-15+0178K12N V0203505N002659999999N9999997N5-00225-00785101985ADDMA1101905099775REMMET08301/02/24 02:54:02 METAR K12N 020754Z 35005KT M02/M08 A3009 RMK AO1 SLP198 T10221078EQDR01      7SKY009R02      7GAS009
0165724077547792024010208547+41009-074736FM-15+0178K12N V0203505N002659999999N9999997N5-00285-00785101985ADDMA1101905099775MD1090039+9999REMMET08901/02/24 03:54:02 METAR K12N 020854Z 35005KT M03/M08 A3009 RMK AO1 SLP198 T10281078 50003EQDR01      7SKY009R02      7GAS009
0145724077547792024010209547+41009-074736FM-15+0178K12N V0203505N001559999999N9999997N5-00335-00835101985ADDMA1101865099735REMMET08301/02/24 04:54:02 METAR K12N 020954Z 35003KT M03/M08 A3008 RMK AO1 SLP198 T10331083EQDR01      7SKY009R02      7GAS009
0145724077547792024010210547+41009-074736FM-15+0178K12N V0203305N002159999999N9999997N5-00335-00785102035ADDMA1101935099805REMMET08301/02/24 05:54:02 METAR K12N 021054Z 33004KT M03/M08 A3010 RMK AO1 SLP203 T10331078EQDR01      7SKY009R02      7GAS009
0203724077547792024010211547+41009-074736FM-15+0178K12N V0203405N003159999999N9999997N5-00225-00725102045ADDKA1060M-00111KA2060N-00331MA1101935099805MD1390069+9999REMMET10101/02/24 06:54:02 METAR K12N 021154Z 34006KT M02/M07 A3010 RMK AO1 SLP204 T10221072 11011 21033 53006EQDR01      7SKY009R02      7GAS009
0145724077547792024010212547+41009-074736FM-15+0178K12N V0209999V002659999999N9999997N5-00225-00725102065ADDMA1101965099835REMMET08301/02/24 07:54:02 METAR K12N 021254Z VRB05KT M02/M07 A3011 RMK AO1 SLP206 T10221072EQDR01      7SKY009R02      7GAS009
0145724077547792024010213547+41009-074736FM-15+0178K12N V0203405N002659999999N9999997N5-00065-00725102085ADDMA1101965099835REMMET08301/02/24 08:54:02 METAR K12N 021354Z 34005KT M01/M07 A3011 RMK AO1 SLP208 T10061072EQDR01      7SKY009R02      7GAS009
0164724077547792024010214547+41009-074736FM-15+0178K12N V0209999V002159999999N9999997N5+00065-00675102095ADDMA1102005099875MD1390059+9999REMMET08801/02/24 09:54:02 METAR K12N 021454Z VRB04KT 01/M07 A3012 RMK AO1 SLP209 T00061067 53005EQDR01      7SKY009R02      7GAS009
0144724077547792024010215547+41009-074736FM-15+0178K12N V0203405N003159999999N9999997N5+00175-00675102025ADDMA1101935099805REMMET08201/02/24 10:54:02 METAR K12N 021554Z 34006KT 02/M07 A3010 RMK AO1 SLP202 T00171067EQDR01      7SKY009R02      7GAS009
0144724077547792024010216547+41009-074736FM-15+0178K12N V0209999V003159999999N9999997N5+00335-00615101935ADDMA1101835099705REMMET08201/02/24 11:54:02 METAR K12N 021654Z VRB06KT 03/M06 A3007 RMK AO1 SLP193 T00331061EQDR01      7SKY009R02      7GAS009
0202724077547792024010217547+41009-074736FM-15+0178K12N V0203505N003659999999N9999997N5+00445-00565101795ADDKA1060M+00441KA2060N-00221MA1101695099575MD1890289+9999REMMET10001/02/24 12:54:02 METAR K12N 021754Z 35007KT 04/M06 A3003 RMK AO1 SLP179 T00441056 10044 21022 58028EQDR01      7SKY009R02      7GAS009
0144724077547792024010218547+41009-074736FM-15+0178K12N V0209999V003159999999N9999997N5+00445-00565101715ADDMA1101635099505REMMET08201/02/24 13:54:02 METAR K12N 021854Z VRB06KT 04/M06 A3001 RMK AO1 SLP171 T00441056EQDR01      7SKY009R02      7GAS009
0144724077547792024010219547+41009-074736FM-15+0178K12N V0202905N002659999999N9999997N5+00565-00565101695ADDMA1101595099475REMMET08201/02/24 14:54:02 METAR K12N 021954Z 29005KT 06/M06 A3000 RMK AO1 SLP169 T00561056EQDR01      7SKY009R02      7GAS009
0164724077547792024010220547+41009-074736FM-15+0178K12N V0209999V001559999999N9999997N5+00505-00565101695ADDMA1101595099475MD1690119+9999REMMET08801/02/24 15:54:02 METAR K12N 022054Z VRB03KT 05/M06 A3000 RMK AO1 SLP169 T00501056 56011EQDR01      7SKY009R02      7GAS009
0144724077547792024010221547+41009-074736FM-15+0178K12N V0209999C000059999999N9999997N5+00335-00615101695ADDMA1101595099475REMMET08201/02/24 16:54:02 METAR K12N 022154Z 00000KT 03/M06 A3000 RMK AO1 SLP169 T00331061EQDR01      7SKY009R02      7GAS009
0144724077547792024010222547+41009-074736FM-15+0178K12N V0209999C000059999999N9999997N5+00065-00445101725ADDMA1101635099505REMMET08201/02/24 17:54:02 METAR K12N 022254Z 00000KT 01/M04 A3001 RMK AO1 SLP172 T00061044EQDR01      7SKY009R02      7GAS009
0203724077547792024010223547+41009-074736FM-15+0178K12N V0209999C000059999999N9999997N5-00065-00505101745ADDKA1060M+00561KA2060N-00111MA1101635099505MD1390049+9999REMMET10101/02/24 18:54:02 METAR K12N 022354Z 00000KT M01/M05 A3001 RMK AO1 SLP174 T10061050 10056 21011 53004EQDR01      7SKY009R02      7GAS009
0145724077547792024010300547+41009-074736FM-15+0178K12N V0209999C000059999999N9999997N5-00225-00615101745ADDMA1101635099505REMMET08301/02/24 19:54:01 METAR K12N 030054Z 00000KT M02/M06 A3001 RMK AO1 SLP174 T10221061EQDR01      7SKY009R02      7GAS009
0145724077547792024010301547+41009-074736FM-15+0178K12N V0209999C000059999999N9999997N5-00175-00505101765ADDMA1101665099535REMMET08301/02/24 20:54:01 METAR K12N 030154Z 00000KT M02/M05 A3002 RMK AO1 SLP176 T10171050EQDR01      7SKY009R02      7GAS009
0165724077547792024010302547+41009-074736FM-15+0178K12N V0209999C000059999999N9999997N5-00285-00505101735ADDMA1101635099505MD1890019+9999REMMET08901/02/24 21:54:01 METAR K12N 030254Z 00000KT M03/M05 A3001 RMK AO1 SLP173 T10281050 58001EQDR01      7SKY009R02      7GAS009
0145724077547792024010303547+41009-074736FM-15+0178K12N V0209999C000059999999N9999997N5-00285-00505101735ADDMA1101635099505REMMET08301/02/24 22:54:02 METAR K12N 030354Z 00000KT M03/M05 A3001 RMK AO1 SLP173 T10281050EQDR01      7SKY009R02      7GAS009
0181724077547792024010304547+41009-074736FM-15+0178K12N V0209999C000059999999N9999997N5-00335-00565101745ADDKA1240M+00561KA2240N-00331MA1101635099505REMMET09301/02/24 23:54:02 METAR K12N 030454Z 00000KT M03/M06 A3001 RMK AO1 SLP174 T10331056 400561033EQDR01      7SKY009R02      7GAS009
0203724077547792024010305547+41009-074736FM-15+0178K12N V0209999C000059999999N9999997N5-00395-00565101715ADDKA1060M-00111KA2060N-00391MA1101635099505MD1890019+9999REMMET10101/03/24 00:54:02 METAR K12N 030554Z 00000KT M04/M06 A3001 RMK AO1 SLP171 T10391056 11011 21039 58001EQDR01      7SKY009R02      7GAS009
0145724077547792024010306547+41009-074736FM-15+0178K12N V0209999C000059999999N9999997N5-00395-00615101725ADDMA1101635099505REMMET08301/03/24 01:54:02 METAR K12N 030654Z 00000KT M04/M06 A3001 RMK AO1 SLP172 T10391061EQDR01      7SKY009R02      7GAS009
0145724077547792024010307547+41009-074736FM-15+0178K12N V0209999C000059999999N9999997N5-00395-00565101725ADDMA1101635099505REMMET08301/03/24 02:54:02 METAR K12N 030754Z 00000KT M04/M06 A3001 RMK AO1 SLP172 T10391056EQDR01      7SKY009R02      7GAS009
0165724077547792024010308547+41009-074736FM-15+0178K12N V0209999C000059999999N9999997N5-00395-00615101705ADDMA1101595099475MD1890019+9999REMMET08901/03/24 03:54:02 METAR K12N 030854Z 00000KT M04/M06 A3000 RMK AO1 SLP170 T10391061 58001EQDR01      7SKY009R02      7GAS009
0145724077547792024010309547+41009-074736FM-15+0178K12N V0203405N002659999999N9999997N5-00115-00505101695ADDMA1101595099475REMMET08301/03/24 04:54:01 METAR K12N 030954Z 34005KT M01/M05 A3000 RMK AO1 SLP169 T10111050EQDR01      7SKY009R02      7GAS009
0145724077547792024010310547+41009-074736FM-15+0178K12N V0209999C000059999999N9999997N5-00285-00615101725ADDMA1101595099475REMMET08301/03/24 05:54:01 METAR K12N 031054Z 00000KT M03/M06 A3000 RMK AO1 SLP172 T10281061EQDR01      7SKY009R02      7GAS009
0203724077547792024010311547+41009-074736FM-15+0178K12N V0209999C000059999999N9999997N5-00335-00615101765ADDKA1060M-00111KA2060N-00441MA1101635099505MD1390049+9999REMMET10101/03/24 06:54:02 METAR K12N 031154Z 00000KT M03/M06 A3001 RMK AO1 SLP176 T10331061 11011 21044 53004EQDR01      7SKY009R02      7GAS009
0145724077547792024010312547+41009-074736FM-15+0178K12N V0201405N002159999999N9999997N5-00395-00565101835ADDMA1101695099575REMMET08301/03/24 07:54:02 METAR K12N 031254Z 14004KT M04/M06 A3003 RMK AO1 SLP183 T10391056EQDR01      7SKY009R02      7GAS009
0145724077547792024010313547+41009-074736FM-15+0178K12N V0209999C000059999999N9999997N5-00065-00335101835ADDMA1101735099605REMMET08301/03/24 08:54:02 METAR K12N 031354Z 00000KT M01/M03 A3004 RMK AO1 SLP183 T10061033EQDR01      7SKY009R02      7GAS009
0164724077547792024010314547+41009-074736FM-15+0178K12N V0209999C000059999999N9999997N5+00115-00335101825ADDMA1101735099605MD1090079+9999REMMET08801/03/24 09:54:02 METAR K12N 031454Z 00000KT 01/M03 A3004 RMK AO1 SLP182 T00111033 50007EQDR01      7SKY009R02      7GAS009
0144724077547792024010315547+41009-074736FM-15+0178K12N V0209999C000059999999N9999997N5+00225-00395101805ADDMA1101695099575REMMET08201/03/24 10:54:02 METAR K12N 031554Z 00000KT 02/M04 A3003 RMK AO1 SLP180 T00221039EQDR01      7SKY009R02      7GAS009
0144724077547792024010316547+41009-074736FM-15+0178K12N V0202805N002659999999N9999997N5+00285-00395101735ADDMA1101635099505REMMET08201/03/24 11:54:02 METAR K12N 031654Z 28005KT 03/M04 A3001 RMK AO1 SLP173 T00281039EQDR01      7SKY009R02      7GAS009
0202724077547792024010317547+41009-074736FM-15+0178K12N V0209999V002159999999N9999997N5+00285-00395101695ADDKA1060M+00331KA2060N-00441MA1101595099475MD1890139+9999REMMET10001/03/24 12:54:02 METAR K12N 031754Z VRB04KT 03/M04 A3000 RMK AO1 SLP169 T00281039 10033 21044 58013EQDR01      7SKY009R02      7GAS009
0144724077547792024010318547+41009-074736FM-15+0178K12N V0203005N002659999999N9999997N5+00285-00395101665ADDMA1101565099435REMMET08201/03/24 13:54:02 METAR K12N 031854Z 30005KT 03/M04 A2999 RMK AO1 SLP166 T00281039EQDR01      7SKY009R02      7GAS009
0144724077547792024010319547+41009-074736FM-15+0178K12N V0203305N001559999999N9999997N5+00285-00445101605ADDMA1101495099375REMMET08201/03/24 14:54:02 METAR K12N 031954Z 33003KT 03/M04 A2997 RMK AO1 SLP160 T00281044EQDR01      7SKY009R02      7GAS009
0164724077547792024010320547+41009-074736FM-15+0178K12N V0202205N001559999999N9999997N5+00285-00445101595ADDMA1101495099375MD1690109+9999REMMET08801/03/24 15:54:02 METAR K12N 032054Z 22003KT 03/M04 A2997 RMK AO1 SLP159 T00281044 56010EQDR01      7SKY009R02      7GAS009
0144724077547792024010321547+41009-074736FM-15+0178K12N V0202205N001559999999N9999997N5+00225-00445101655ADDMA1101565099435REMMET08201/03/24 16:54:02 METAR K12N 032154Z 22003KT 02/M04 A2999 RMK AO1 SLP165 T00221044EQDR01      7SKY009R02      7GAS009
0144724077547792024010322547+41009-074736FM-15+0178K12N V0209999C000059999999N9999997N5+00175-00335101685ADDMA1101565099435REMMET08201/03/24 17:54:02 METAR K12N 032254Z 00000KT 02/M03 A2999 RMK AO1 SLP168 T00171033EQDR01      7SKY009R02      7GAS009
0202724077547792024010323547+41009-074736FM-15+0178K12N V0209999C000059999999N9999997N5+00225-00395101695ADDKA1060M+00331KA2060N+00171MA1101595099475MD1190099+9999REMMET10001/03/24 18:54:02 METAR K12N 032354Z 00000KT 02/M04 A3000 RMK AO1 SLP169 T00221039 10033 20017 51009EQDR01      7SKY009R02      7GAS009
0144724077547792024010400547+41009-074736FM-15+0178K12N V0203605N001559999999N9999997N5+00225-00395101645ADDMA1101525099405REMMET08201/03/24 19:54:01 METAR K12N 040054Z 36003KT 02/M04 A2998 RMK AO1 SLP164 T00221039EQDR01      7SKY009R02      7GAS009
0144724077547792024010401547+41009-074736FM-15+0178K12N V0209999C000059999999N9999997N5+00175-00335101625ADDMA1101525099405REMMET08201/03/24 20:54:01 METAR K12N 040154Z 00000KT 02/M03 A2998 RMK AO1 SLP162 T00171033EQDR01      7SKY009R02      7GAS009
0164724077547792024010402547+41009-074736FM-15+0178K12N V0209999C000059999999N9999997N5+00175-00335101565ADDMA1101465099335MD1690109+9999REMMET08801/03/24 21:54:01 METAR K12N 040254Z 00000KT 02/M03 A2996 RMK AO1 SLP156 T00171033 56010EQDR01      7SKY009R02      7GAS009
0144724077547792024010403547+41009-074736FM-15+0178K12N V0209999C000059999999N9999997N5+00115-00335101595ADDMA1101495099375REMMET08201/03/24 22:54:01 METAR K12N 040354Z 00000KT 01/M03 A2997 RMK AO1 SLP159 T00111033EQDR01      7SKY009R02      7GAS009
0180724077547792024010404547+41009-074736FM-15+0178K12N V0209999C000059999999N9999997N5+00115-00285101585ADDKA1240M+00331KA2240N-00441MA1101495099375REMMET09201/03/24 23:54:02 METAR K12N 040454Z 00000KT 01/M03 A2997 RMK AO1 SLP158 T00111028 400331044EQDR01      7SKY009R02      7GAS009
0213724077547792024010405547+41009-074736FM-15+0178K12N V0209999C000059999999N9999997N5+00115-00285101545ADDAA101000095KA1060M+00221KA2060N+00111MA1101465099335MD1890029+9999REMMET10001/04/24 00:54:02 METAR K12N 040554Z 00000KT 01/M03 A2996 RMK AO1 SLP154 T00111028 10022 20011 58002EQDR01      7SKY009R02      7GAS009
0155724077547792024010406547+41009-074736FM-15+0178K12N V0209999C000059999999N9999997N5+00065-00285101505ADDAA101000095MA1101425099305REMMET08201/04/24 01:54:02 METAR K12N 040654Z 00000KT 01/M03 A2995 RMK AO1 SLP150 T00061028EQDR01      7SKY009R02      7GAS009
0155724077547792024010407547+41009-074736FM-15+0178K12N V0209999C000059999999N9999997N5+00115-00335101495ADDAA101000095MA1101425099305REMMET08201/04/24 02:54:02 METAR K12N 040754Z 00000KT 01/M03 A2995 RMK AO1 SLP149 T00111033EQDR01      7SKY009R02      7GAS009
0175724077547792024010408547+41009-074736FM-15+0178K12N V0209999C000059999999N9999997N5+00065-00285101435ADDAA101000095MA1101355099235MD1890129+9999REMMET08801/04/24 03:54:02 METAR K12N 040854Z 00000KT 01/M03 A2993 RMK AO1 SLP143 T00061028 58012EQDR01      7SKY009R02      7GAS009
0155724077547792024010409547+41009-074736FM-15+0178K12N V0209999C000059999999N9999997N5+00065-00225101365ADDAA101000095MA1101295099175REMMET08201/04/24 04:54:02 METAR K12N 040954Z 00000KT 01/M02 A2991 RMK AO1 SLP136 T00061022EQDR01      7SKY009R02      7GAS009
0155724077547792024010410547+41009-074736FM-15+0178K12N V0209999C000059999999N9999997N5+00065-00225101405ADDAA101000095MA1101325099205REMMET08201/04/24 05:54:02 METAR K12N 041054Z 00000KT 01/M02 A2992 RMK AO1 SLP140 T00061022EQDR01      7SKY009R02      7GAS009
0213724077547792024010411547+41009-074736FM-15+0178K12N V0209999C000059999999N9999997N5+00065-00225101405ADDAA101000095KA1060M+00111KA2060N+00001MA1101325099205MD1590029+9999REMMET10001/04/24 06:54:02 METAR K12N 041154Z 00000KT 01/M02 A2992 RMK AO1 SLP140 T00061022 10011 20000 55002EQDR01      7SKY009R02      7GAS009
0155724077547792024010412547+41009-074736FM-15+0178K12N V0209999C000059999999N9999997N5+00065-00225101465ADDAA101000095MA1101395099275REMMET08201/04/24 07:54:02 METAR K12N 041254Z 00000KT 01/M02 A2994 RMK AO1 SLP146 T00061022EQDR01      7SKY009R02      7GAS009
0155724077547792024010413547+41009-074736FM-15+0178K12N V0209999C000059999999N9999997N5+00115-00175101505ADDAA101000095MA1101425099305REMMET08201/04/24 08:54:02 METAR K12N 041354Z 00000KT 01/M02 A2995 RMK AO1 SLP150 T00111017EQDR01      7SKY009R02      7GAS009
0175724077547792024010414547+41009-074736FM-15+0178K12N V0209999C000059999999N9999997N5+00225-00115101555ADDAA101000095MA1101465099335MD1190149+9999REMMET08801/04/24 09:54:02 METAR K12N 041454Z 00000KT 02/M01 A2996 RMK AO1 SLP155 T00221011 51014EQDR01      7SKY009R02      7GAS009
0166724077547792024010415547+41009-074736FM-15+0178K12N V0203505N003159999999N9999997N5+00395-00285101555ADDAA101000095MA1101495099375OC100775REMMET08501/04/24 10:54:02 METAR K12N 041554Z 35006G15KT 04/M03 A2997 RMK AO1 SLP155 T00391028EQDR01      7SKY009R02      7GAS009
0166724077547792024010416547+41009-074736FM-15+0178K12N V0203505N002659999999N9999997N5+00395-00395101545ADDAA101000095MA1101465099335OC100775REMMET08501/04/24 11:54:02 METAR K12N 041654Z 35005G15KT 04/M04 A2996 RMK AO1 SLP154 T00391039EQDR01      7SKY009R02      7GAS009
0252724077547792024010417547+41009-074736FM-15+0178K12N V0209999V001559999999N9999997N5+00505-00335101505ADDAA101000395AA206000391KA1060M+00501KA2060N+00001MA1101425099305MD1890039+9999REMMET11201/04/24 12:54:02 METAR K12N 041754Z VRB03KT 05/M03 A2995 RMK AO1 SLP150 P0001 60001 T00501033 10050 20000 58003EQDQ01  00028PRCP06R01      7SKY009R02      7GAS009
0166724077547792024010418547+41009-074736FM-15+0178K12N V0203505N005159999999N9999997N5+00505-00505101545ADDAA101000095MA1101465099335OC100935REMMET08501/04/24 13:54:02 METAR K12N 041854Z 35010G18KT 05/M05 A2996 RMK AO1 SLP154 T00501050EQDR01      7SKY009R02      7GAS009
0166724077547792024010419547+41009-074736FM-15+0178K12N V0203505V004659999999N9999997N5+00335-00675101685ADDAA101000095MA1101595099475OC101085REMMET08501/04/24 14:54:02 METAR K12N 041954Z 35009G21KT 03/M07 A3000 RMK AO1 SLP168 T00331067EQDR01      7SKY009R02      7GAS009
0175724077547792024010420547+41009-074736FM-15+0178K12N V0203405V003659999999N9999997N5+00175-00895101805ADDAA101000095MA1101695099575MD1390279+9999REMMET08801/04/24 15:54:02 METAR K12N 042054Z 34007KT 02/M09 A3003 RMK AO1 SLP180 T00171089 53027EQDR01      7SKY009R02      7GAS009
0166724077547792024010421547+41009-074736FM-15+0178K12N V0203405N004659999999N9999997N5+00065-00835101925ADDAA101000095MA1101835099705OC100725REMMET08501/04/24 16:54:02 METAR K12N 042154Z 34009G14KT 01/M08 A3007 RMK AO1 SLP192 T00061083EQDR01      7SKY009R02      7GAS009
0167724077547792024010422547+41009-074736FM-15+0178K12N V0203405N003159999999N9999997N5-00065-00945102065ADDAA101000095MA1101965099835OC100985REMMET08601/04/24 17:54:02 METAR K12N 042254Z 34006G19KT M01/M09 A3011 RMK AO1 SLP206 T10061094EQDR01      7SKY009R02      7GAS009
0214724077547792024010423547+41009-074736FM-15+0178K12N V0203505N004659999999N9999997N5-00115-01005102175ADDAA101000095KA1060M+00561KA2060N-00111MA1102075099935MD1190359+9999REMMET10101/04/24 18:54:02 METAR K12N 042354Z 35009KT M01/M10 A3014 RMK AO1 SLP217 T10111100 10056 21011 51035EQDR01      7SKY009R02      7GAS009
0167724077547792024010500547+41009-074736FM-15+0178K12N V0203405N004159999999N9999997N5-00225-01065102225ADDAA101000095MA1102105099965OC101035REMMET08601/04/24 19:54:01 METAR K12N 050054Z 34008G20KT M02/M11 A3015 RMK AO1 SLP222 T10221106EQDR01      7SKY009R02      7GAS009
0156724077547792024010501547+41009-074736FM-15+0178K12N V0203305V003659999999N9999997N5-00335-01115102265ADDAA101000095MA1102135100005REMMET08301/04/24 20:54:02 METAR K12N 050154Z 33007KT M03/M11 A3016 RMK AO1 SLP226 T10331111EQDR01      7SKY009R02      7GAS009
0187724077547792024010502547+41009-074736FM-15+0178K12N V0203605V003659999999N9999997N5-00395-01115102345ADDAA101000095MA1102245100105MD1390179+9999OC100885REMMET09201/04/24 21:54:02 METAR K12N 050254Z 36007G17KT M04/M11 A3019 RMK AO1 SLP234 T10391111 53017EQDR01      7SKY009R02      7GAS009
0156724077547792024010503547+41009-074736FM-15+0178K12N V0203405N003159999999N9999997N5-00445-01115102415ADDAA101000095MA1102305100165REMMET08301/04/24 22:54:02 METAR K12N 050354Z 34006KT M04/M11 A3021 RMK AO1 SLP241 T10441111EQDR01      7SKY009R02      7GAS009
0203724077547792024010504547+41009-074736FM-15+0178K12N V0203305N003659999999N9999997N5-00505-01175102405ADDAA101000095KA1240M+00561KA2240N-00501MA1102275100135OC100885REMMET09601/04/24 23:54:02 METAR K12N 050454Z 33007G17KT M05/M12 A3020 RMK AO1 SLP240 T10501117 400561050EQDR01      7SKY009R02      7GAS009
0902724077547792024010504596+41009-074736SOD  +0178K12N V020999999999999999999999999999+99999+99999999999ADDAA124000396KA1240M+00565KA2240N-00495MG1099424101354OE11240125234013165OE22240067133014415OE33240021099999995REMSOD73024 HR PRECIPITATION (IN):0.01  24 HR MAX TEMP (F):42 24 HR MAX TEMP TIME (LST):1300 24 HR MIN TEMP (F):23 24 HR MIN TEMP TIME (LST):2359 AVERAGE STATION PRESSURE:29.360 MINIMUM SEA LEVEL PRESSURE:29.93 TIME OF OCCURRENCE:0524 PEAK WIND SPEED (MPH):28  PEAK WIND DIR (DEG):340 PEAK WIND TIME (LST):1316  FASTEST 2MIN SPEED (MPH):15 FASTEST 2MIN DIR (DEG):330 FASTEST 2MIN TIME (LST):1441 AVERAGE WIND SPEED (MPH):4.7  24 HR AVG TEMP (F):33 HEATING DEGREE DAYS:32  COOLING DEGREE DAYS:0   LATEST DAY MAX TEMP (0700-1900 LST):42  LATEST NIGHT MIN TEMP(1900-0800 LST):32 HOURLY INCREMENTAL PRECIPITATION VALUES (IN):.00 0.00 0.00 0.00 0.00 0.00 0.00 0.00 0.00 0.00 0.00 0.00 0.01 0.00 0.00 0.00 0.00 0.00 0.00 0.00 0.00 0.00 0.00 0.00EQDR01  0.017AAP092R02     N7GJS072R03     N7GKS075
0214724077547792024010505547+41009-074736FM-15+0178K12N V0203205N002159999999N9999997N5-00505-01175102435ADDAA101000095KA1060M-00111KA2060N-00501MA1102305100165MD1190099+9999REMMET10101/05/24 00:54:02 METAR K12N 050554Z 32004KT M05/M12 A3021 RMK AO1 SLP243 T10501117 11011 21050 51009EQDR01      7SKY009R02      7GAS009
0156724077547792024010506547+41009-074736FM-15+0178K12N V0203605N002659999999N9999997N5-00505-01175102495ADDAA101000095MA1102375100235REMMET08301/05/24 01:54:02 METAR K12N 050654Z 36005KT M05/M12 A3023 RMK AO1 SLP249 T10501117EQDR01      7SKY009R02      7GAS009
0156724077547792024010507547+41009-074736FM-15+0178K12N V0209999C000059999999N9999997N5-00505-01115102545ADDAA101000095MA1102445100305REMMET08301/05/24 02:54:02 METAR K12N 050754Z 00000KT M05/M11 A3025 RMK AO1 SLP254 T10501111EQDR01      7SKY009R02      7GAS009
0176724077547792024010508547+41009-074736FM-15+0178K12N V0209999C000059999999N9999997N5-00445-01175102525ADDAA101000095MA1102405100265MD1090099+9999REMMET08901/05/24 03:54:02 METAR K12N 050854Z 00000KT M04/M12 A3024 RMK AO1 SLP252 T10441117 50009EQDR01      7SKY009R02      7GAS009
0156724077547792024010509547+41009-074736FM-15+0178K12N V0202105N001559999999N9999997N5-00565-01065102545ADDAA101000095MA1102405100265REMMET08301/05/24 04:54:02 METAR K12N 050954Z 21003KT M06/M11 A3024 RMK AO1 SLP254 T10561106EQDR01      7SKY009R02      7GAS009
0156724077547792024010510547+41009-074736FM-15+0178K12N V0203105N001559999999N9999997N5-00505-01175102595ADDAA101000095MA1102475100335REMMET08301/05/24 05:54:02 METAR K12N 051054Z 31003KT M05/M12 A3026 RMK AO1 SLP259 T10501117EQDR01      7SKY009R02      7GAS009
0231724077547792024010511547+41009-074736FM-15+0178K12N V0203405N002659999999N9999997N5-00505-01175102675ADDAA101000095AA224000391KA1060M-00441KA2060N-00611MA1102545100405MD1390139+9999REMMET10701/05/24 06:54:02 METAR K12N 051154Z 34005KT M05/M12 A3028 RMK AO1 SLP267 70001 T10501117 11044 21061 53013EQDR01      7SKY009R02      7GAS009
0156724077547792024010512547+41009-074736FM-15+0178K12N V0209999C000059999999N9999997N5-00445-01175102715ADDAA101000095MA1102575100435REMMET08301/05/24 07:54:02 METAR K12N 051254Z 00000KT M04/M12 A3029 RMK AO1 SLP271 T10441117EQDR01      7SKY009R02      7GAS009
0156724077547792024010513547+41009-074736FM-15+0178K12N V0209999V002159999999N9999997N5-00285-01115102755ADDAA101000095MA1102615100465REMMET08301/05/24 08:54:02 METAR K12N 051354Z VRB04KT M03/M11 A3030 RMK AO1 SLP275 T10281111EQDR01      7SKY009R02      7GAS009
0176724077547792024010514547+41009-074736FM-15+0178K12N V0203005N003159999999N9999997N5-00225-01065102805ADDAA101000095MA1102685100535MD1390139+9999REMMET08901/05/24 09:54:02 METAR K12N 051454Z 30006KT M02/M11 A3032 RMK AO1 SLP280 T10221106 53013EQDR01      7SKY009R02      7GAS009
0156724077547792024010515547+41009-074736FM-15+0178K12N V0202705N002659999999N9999997N5-00065-01005102705ADDAA101000095MA1102575100435REMMET08301/05/24 10:54:02 METAR K12N 051554Z 27005KT M01/M10 A3029 RMK AO1 SLP270 T10061100EQDR01      7SKY009R02      7GAS009
0156724077547792024010516547+41009-074736FM-15+0178K12N V0209999V002659999999N9999997N5-00065-00945102605ADDAA101000095MA1102475100335REMMET08301/05/24 11:54:02 METAR K12N 051654Z VRB05KT M01/M09 A3026 RMK AO1 SLP260 T10061094EQDR01      7SKY009R02      7GAS009
0213724077547792024010517547+41009-074736FM-15+0178K12N V0202905N004159999999N9999997N5+00065-00895102515ADDAA101000095KA1060M+00111KA2060N-00501MA1102405100265MD1690279+9999REMMET10001/05/24 12:54:02 METAR K12N 051754Z 29008KT 01/M09 A3024 RMK AO1 SLP251 T00061089 10011 21050 56027EQDR01      7SKY009R02      7GAS009
0155724077547792024010518547+41009-074736FM-15+0178K12N V0203005N003159999999N9999997N5+00175-00895102455ADDAA101000095MA1102345100205REMMET08201/05/24 13:54:02 METAR K12N 051854Z 30006KT 02/M09 A3022 RMK AO1 SLP245 T00171089EQDR01      7SKY009R02      7GAS009
0155724077547792024010519547+41009-074736FM-15+0178K12N V0209999V001559999999N9999997N5+00285-00895102395ADDAA101000095MA1102275100135REMMET08201/05/24 14:54:02 METAR K12N 051954Z VRB03KT 03/M09 A3020 RMK AO1 SLP239 T00281089EQDR01      7SKY009R02      7GAS009
0175724077547792024010520547+41009-074736FM-15+0178K12N V0209999C000059999999N9999997N5+00175-00945102395ADDAA101000095MA1102275100135MD1690119+9999REMMET08801/05/24 15:54:02 METAR K12N 052054Z 00000KT 02/M09 A3020 RMK AO1 SLP239 T00171094 56011EQDR01      7SKY009R02      7GAS009
0156724077547792024010521547+41009-074736FM-15+0178K12N V0209999C000059999999N9999997N5-00065-00725102385ADDAA101000095MA1102245100105REMMET08301/05/24 16:54:02 METAR K12N 052154Z 00000KT M01/M07 A3019 RMK AO1 SLP238 T10061072EQDR01      7SKY009R02      7GAS009
0156724077547792024010522547+41009-074736FM-15+0178K12N V0209999C000059999999N9999997N5-00285-00785102405ADDAA101000095MA1102275100135REMMET08301/05/24 17:54:02 METAR K12N 052254Z 00000KT M03/M08 A3020 RMK AO1 SLP240 T10281078EQDR01      7SKY009R02      7GAS009
0214724077547792024010523547+41009-074736FM-15+0178K12N V0209999C000059999999N9999997N5-00225-00725102475ADDAA101000095KA1060M+00281KA2060N-00281MA1102345100205MD1390069+9999REMMET10101/05/24 18:54:02 METAR K12N 052354Z 00000KT M02/M07 A3022 RMK AO1 SLP247 T10221072 10028 21028 53006EQDR01      7SKY009R02      7GAS009
0156724077547792024010600547+41009-074736FM-15+0178K12N V0209999C000059999999N9999997N5-00285-00675102465ADDAA101000095MA1102345100205REMMET08301/05/24 19:54:01 METAR K12N 060054Z 00000KT M03/M07 A3022 RMK AO1 SLP246 T10281067EQDR01      7SKY009R02      7GAS009
0156724077547792024010601547+41009-074736FM-15+0178K12N V0209999C000059999999N9999997N5-00395-00725102435ADDAA101000095MA1102305100165REMMET08301/05/24 20:54:01 METAR K12N 060154Z 00000KT M04/M07 A3021 RMK AO1 SLP243 T10391072EQDR01      7SKY009R02      7GAS009
0176724077547792024010602547+41009-074736FM-15+0178K12N V0209999C000059999999N9999997N5-00445-00725102415ADDAA101000095MA1102275100135MD1890069+9999REMMET08901/05/24 21:54:01 METAR K12N 060254Z 00000KT M04/M07 A3020 RMK AO1 SLP241 T10441072 58006EQDR01      7SKY009R02      7GAS009
0156724077547792024010603547+41009-074736FM-15+0178K12N V0209999C000059999999N9999997N5-00505-00785102365ADDAA101000095MA1102245100105REMMET08301/05/24 22:54:02 METAR K12N 060354Z 00000KT M05/M08 A3019 RMK AO1 SLP236 T10501078EQDR01      7SKY009R02      7GAS009
0192724077547792024010604547+41009-074736FM-15+0178K12N V0202005N001559999999N9999997N5-00505-00785102345ADDAA101000095KA1240M+00281KA2240N-00611MA1102205100065REMMET09301/05/24 23:54:02 METAR K12N 060454Z 20003KT M05/M08 A3018 RMK AO1 SLP234 T10501078 400281061EQDR01      7SKY009R02      7GAS009
0886724077547792024010604596+41009-074736SOD  +0178K12N V020999999999999999999999999999+99999+99999999999ADDAA124000095KA1240M+00285KA2240N-00605MG1100254102344OE11240102832011145OE22240044735000295OE33240013099999995REMSOD73024 HR PRECIPITATION (IN):0.00  24 HR MAX TEMP (F):37 24 HR MAX TEMP TIME (LST):1454 24 HR MIN TEMP (F):21 24 HR MIN TEMP TIME (LST):0530 AVERAGE STATION PRESSURE:29.605 MINIMUM SEA LEVEL PRESSURE:30.22 TIME OF OCCURRENCE:2359 PEAK WIND SPEED (MPH):23  PEAK WIND DIR (DEG):320 PEAK WIND TIME (LST):1114  FASTEST 2MIN SPEED (MPH):10 FASTEST 2MIN DIR (DEG):350 FASTEST 2MIN TIME (LST):0029 AVERAGE WIND SPEED (MPH):2.9  24 HR AVG TEMP (F):29 HEATING DEGREE DAYS:36  COOLING DEGREE DAYS:0   LATEST DAY MAX TEMP (0700-1900 LST):37  LATEST NIGHT MIN TEMP(1900-0800 LST):21 HOURLY INCREMENTAL PRECIPITATION VALUES (IN):.00 0.00 0.00 0.00 0.00 0.00 0.00 0.00 0.00 0.00 0.00 0.00 0.00 0.00 0.00 0.00 0.00 0.00 0.00 0.00 0.00 0.00 0.00 0.00EQDR01     N7GJS072R02     N7GKS075
0214724077547792024010605547+41009-074736FM-15+0178K12N V0209999C000059999999N9999997N5-00565-00785102355ADDAA101000095KA1060M-00221KA2060N-00561MA1102245100105MD1590059+9999REMMET10101/06/24 00:54:02 METAR K12N 060554Z 00000KT M06/M08 A3019 RMK AO1 SLP235 T10561078 11022 21056 55005EQDR01      7SKY009R02      7GAS009
0156724077547792024010606547+41009-074736FM-15+0178K12N V0209999C000059999999N9999997N5-00615-00835102365ADDAA101000095MA1102245100105REMMET08301/06/24 01:54:02 METAR K12N 060654Z 00000KT M06/M08 A3019 RMK AO1 SLP236 T10611083EQDR01      7SKY009R02      7GAS009
0156724077547792024010607547+41009-074736FM-15+0178K12N V0209999C000059999999N9999997N5-00565-00835102345ADDAA101000095MA1102245100105REMMET08301/06/24 02:54:02 METAR K12N 060754Z 00000KT M06/M08 A3019 RMK AO1 SLP234 T10561083EQDR01      7SKY009R02      7GAS009
0176724077547792024010608547+41009-074736FM-15+0178K12N V0209999C000059999999N9999997N5-00615-00835102335ADDAA101000095MA1102205100065MD1890019+9999REMMET08901/06/24 03:54:02 METAR K12N 060854Z 00000KT M06/M08 A3018 RMK AO1 SLP233 T10611083 58001EQDR01      7SKY009R02      7GAS009
0156724077547792024010609547+41009-074736FM-15+0178K12N V0209999C000059999999N9999997N5-00565-00725102305ADDAA101000095MA1102175100035REMMET08301/06/24 04:54:02 METAR K12N 060954Z 00000KT M06/M07 A3017 RMK AO1 SLP230 T10561072EQDR01      7SKY009R02      7GAS009
0156724077547792024010610547+41009-074736FM-15+0178K12N V0209999C000059999999N9999997N5-00565-00785102315ADDAA101000095MA1102175100035REMMET08301/06/24 05:54:02 METAR K12N 061054Z 00000KT M06/M08 A3017 RMK AO1 SLP231 T10561078EQDR01      7SKY009R02      7GAS009
0214724077547792024010611547+41009-074736FM-15+0178K12N V0209999C000059999999N9999997N5-00505-00725102295ADDAA101000095KA1060M-00501KA2060N-00611MA1102175100035MD1690059+9999REMMET10101/06/24 06:54:02 METAR K12N 061154Z 00000KT M05/M07 A3017 RMK AO1 SLP229 T10501072 11050 21061 56005EQDR01      7SKY009R02      7GAS009
0156724077547792024010612547+41009-074736FM-15+0178K12N V0200105N001559999999N9999997N5-00505-00725102265ADDAA101000095MA1102135100005REMMET08301/06/24 07:54:02 METAR K12N 061254Z 01003KT M05/M07 A3016 RMK AO1 SLP226 T10501072EQDR01      7SKY009R02      7GAS009
0156724077547792024010613547+41009-074736FM-15+0178K12N V0200105N001559999999N9999997N5-00395-00675102315ADDAA101000095MA1102175100035REMMET08301/06/24 08:54:02 METAR K12N 061354Z 01003KT M04/M07 A3017 RMK AO1 SLP231 T10391067EQDR01      7SKY009R02      7GAS009
0192724077547792024010614547+41009-074736FM-15+0178K12N V0209999C000059999999N9999997N5-00335-00675102305ADDAA101000095MA1102175100035MD1690009+9999REMMET08901/06/24 09:54:02 METAR K12N 061454Z 00000KT M03/M07 A3017 RMK AO1 SLP230 T10331067 56000EQDQ010     3APC3  R01      7SKY009R02      7GAS009
0156724077547792024010615547+41009-074736FM-15+0178K12N V0203605N001559999999N9999997N5-00225-00615102165ADDAA101000095MA1102035099905REMMET08301/06/24 10:54:02 METAR K12N 061554Z 36003KT M02/M06 A3013 RMK AO1 SLP216 T10221061EQDR01      7SKY009R02      7GAS009
0156724077547792024010616547+41009-074736FM-15+0178K12N V0200105N001559999999N9999997N5-00115-00565102035ADDAA101000095MA1101905099775REMMET08301/06/24 11:54:02 METAR K12N 061654Z 01003KT M01/M06 A3009 RMK AO1 SLP203 T10111056EQDR01      7SKY009R02      7GAS009
0214724077547792024010617547+41009-074736FM-15+0178K12N V0209999C000059999999N9999997N5-00065-00505101885ADDAA101000095KA1060M-00061KA2060N-00501MA1101765099635MD1890409+9999REMMET10101/06/24 12:54:02 METAR K12N 061754Z 00000KT M01/M05 A3005 RMK AO1 SLP188 T10061050 11006 21050 58040EQDR01      7SKY009R02      7GAS009
0155724077547792024010618547+41009-074736FM-15+0178K12N V0209999V002659999999N9999997N5+00005-00565101765ADDAA101000095MA1101635099505REMMET08201/06/24 13:54:02 METAR K12N 061854Z VRB05KT 00/M06 A3001 RMK AO1 SLP176 T00001056EQDR01      7SKY009R02      7GAS009
0155724077547792024010619547+41009-074736FM-15+0178K12N V0200405N002159999999N9999997N5+00005-00445101655ADDAA101000095MA1101525099405REMMET08201/06/24 14:54:02 METAR K12N 061954Z 04004KT 00/M04 A2998 RMK AO1 SLP165 T00001044EQDR01      7SKY009R02      7GAS009
0215724077547792024010620547+41009-074736FM-15+0178K12N V0200205N002159999999N9999997N5-00065-00335101505ADDAA101001096AA203000892MA1101395099275MD1890379+9999REMMET10101/06/24 15:54:02 METAR K12N 062054Z 02004KT M01/M03 A2994 RMK AO1 SLP150 P0003 60003 T10061033 58037EQDQ01  00078PRCP03R01      7SKY009R02      7GAS009
0162724077547792024010621547+41009-074736FM-15+0178K12N V0200105N001559999999N9999997N5-00065-00225101405ADDAA101001595MA1101255099135REMMET08901/06/24 16:54:02 METAR K12N 062154Z 01003KT M01/M02 A2990 RMK AO1 SLP140 P0006 T10061022EQDR01      7SKY009R02      7GAS009
0162724077547792024010622547+41009-074736FM-15+0178K12N V0209999V002659999999N9999997N5-00065-00225101275ADDAA101002095MA1101155099035REMMET08901/06/24 17:54:02 METAR K12N 062254Z VRB05KT M01/M02 A2987 RMK AO1 SLP127 P0008 T10061022EQDR01      7SKY009R02      7GAS009
0252724077547792024010623547+41009-074736FM-15+0178K12N V0200105N003159999999N9999997N5+00005-00175101105ADDAA101002395AA206006991KA1060M+00001KA2060N-00061MA1100985098875MD1890389+9999REMMET11201/06/24 18:54:02 METAR K12N 062354Z 01006KT 00/M02 A2982 RMK AO1 SLP110 P0010 60027 T00001017 10000 21006 58038EQDQ01  00688PRCP06R01      7SKY009R02      7GAS009
0161724077547792024010700547+41009-074736FM-15+0178K12N V0200205N003159999999N9999997N5+00005-00175100945ADDAA101003095MA1100815098705REMMET08801/06/24 19:54:01 METAR K12N 070054Z 02006KT 00/M02 A2977 RMK AO1 SLP094 P0011 T00001017EQDR01      7SKY009R02      7GAS009
0161724077547792024010701547+41009-074736FM-15+0178K12N V0200205N002659999999N9999997N5+00005-00175100785ADDAA101004395MA1100685098575REMMET08801/06/24 20:54:01 METAR K12N 070154Z 02005KT 00/M02 A2973 RMK AO1 SLP078 P0017 T00001017EQDR01      7SKY009R02      7GAS009
0214724077547792024010702547+41009-074736FM-15+0178K12N V0203605N003659999999N9999997N5+00005-00115100715ADDAA101003095AA203010291MA1100615098505MD1690389+9999REMMET10001/06/24 21:54:01 METAR K12N 070254Z 36007KT 00/M01 A2971 RMK AO1 SLP071 P0012 60040 T00001011 56038EQDQ01  01018PRCP03R01      7SKY009R02      7GAS009
0173724077547792024010703547+41009-074736FM-15+0178K12N V0200205N003659999999N9999997N5-00115-00285100715ADDAA101003395MA1100585098475OC100885REMMET09201/06/24 22:54:02 METAR K12N 070354Z 02007G17KT M01/M03 A2970 RMK AO1 SLP071 P0013 T10111028EQDR01      7SKY009R02      7GAS009
0198724077547792024010704547+41009-074736FM-15+0178K12N V0200305N003659999999N9999997N5-00175-00335100615ADDAA101001895KA1240M+00061KA2240N-00611MA1100515098405REMMET09901/06/24 23:54:02 METAR K12N 070454Z 03007KT M02/M03 A2968 RMK AO1 SLP061 P0008 T10171033 400061061EQDR01      7SKY009R02      7GAS009
0918724077547792024010704596+41009-074736SOD  +0178K12N V020999999999999999999999999999+99999+99999999999ADDAA124022496KA1240M+00065KA2240N-00605MG1099644100614OE11240084903022516OE22240053603022505OE33240015299999995REMSOD73024 HR PRECIPITATION (IN):0.88  24 HR MAX TEMP (F):33 24 HR MAX TEMP TIME (LST):2153 24 HR MIN TEMP (F):21 24 HR MIN TEMP TIME (LST):0549 AVERAGE STATION PRESSURE:29.425 MINIMUM SEA LEVEL PRESSURE:29.71 TIME OF OCCURRENCE:2359 PEAK WIND SPEED (MPH):19  PEAK WIND DIR (DEG):30  PEAK WIND TIME (LST):2251  FASTEST 2MIN SPEED (MPH):12 FASTEST 2MIN DIR (DEG):30  FASTEST 2MIN TIME (LST):2250 AVERAGE WIND SPEED (MPH):3.4  24 HR AVG TEMP (F):27 HEATING DEGREE DAYS:38  COOLING DEGREE DAYS:0   LATEST DAY MAX TEMP (0700-1900 LST):32  LATEST NIGHT MIN TEMP(1900-0800 LST):21 HOURLY INCREMENTAL PRECIPITATION VALUES (IN):.00 0.00 0.00 0.00 0.00 0.00 0.00 0.00 0.00 0.00 0.00 0.00 0.00 0.00 0.00 0.04 0.06 0.08 0.09 0.12 0.17 0.12 0.13 0.07EQDR01  0.887AAP092R02     N7GJS072R03     N7GKS075R04    197OES063
0253724077547792024010705547+41009-074736FM-15+0178K12N V0200305N004159999999N9999997N5-00115-00285100605ADDAA101000595AA206016091KA1060M+00061KA2060N-00171MA1100515098405MD1690109+9999REMMET11301/07/24 00:54:02 METAR K12N 070554Z 03008KT M01/M03 A2968 RMK AO1 SLP060 P0002 60063 T10111028 10006 21017 56010EQDQ01  01608PRCP06R01      7SKY009R02      7GAS009
0145724077547792024010706547+41009-074736FM-15+0178K12N V0200205N003659999999N9999997N5-00115-00285100555ADDMA1100445098335REMMET08301/07/24 01:54:02 METAR K12N 070654Z 02007KT M01/M03 A2966 RMK AO1 SLP055 T10111028EQDR01      7SKY009R02      7GAS009
0162724077547792024010707547+41009-074736FM-15+0178K12N V0200305N003159999999N9999997N5-00175-00285100505ADDAA101000595MA1100415098305REMMET08901/07/24 02:54:02 METAR K12N 070754Z 03006KT M02/M03 A2965 RMK AO1 SLP050 P0002 T10171028EQDR01      7SKY009R02      7GAS009
0215724077547792024010708547+41009-074736FM-15+0178K12N V0200305N004159999999N9999997N5-00115-00285100415ADDAA101000395AA203000891MA1100305098205MD1890199+9999REMMET10101/07/24 03:54:02 METAR K12N 070854Z 03008KT M01/M03 A2962 RMK AO1 SLP041 P0001 60003 T10111028 58019EQDQ01  00078PRCP03R01      7SKY009R02      7GAS009
0145724077547792024010709547+41009-074736FM-15+0178K12N V0200305N003659999999N9999997N5-00115-00285100365ADDMA1100275098175REMMET08301/07/24 04:54:02 METAR K12N 070954Z 03007KT M01/M03 A2961 RMK AO1 SLP036 T10111028EQDR01      7SKY009R02      7GAS009
0162724077547792024010710547+41009-074736FM-15+0178K12N V0200405N002659999999N9999997N5-00115-00285100375ADDAA101000395MA1100275098175REMMET08901/07/24 05:54:02 METAR K12N 071054Z 04005KT M01/M03 A2961 RMK AO1 SLP037 P0001 T10111028EQDR01      7SKY009R02      7GAS009
0286724077547792024010711547+41009-074736FM-15+0178K12N V0200305N002659999999N9999997N5-00115-00225100385ADDAA101000595AA206001591AA324024491KA1060M-00061KA2060N-00171MA1100275098175MD1590039+9999REMMET11901/07/24 06:54:02 METAR K12N 071154Z 03005KT M01/M02 A2961 RMK AO1 SLP038 P0002 60006 70096 T10111022 11006 21017 55003EQDQ01  00158PRCP06Q02  02438PRCP24R01      7SKY009R02      7GAS009
0162724077547792024010712547+41009-074736FM-15+0178K12N V0209999V001559999999N9999997N5-00065-00225100385ADDAA101000395MA1100275098175REMMET08901/07/24 07:54:02 METAR K12N 071254Z VRB03KT M01/M02 A2961 RMK AO1 SLP038 P0001 T10061022EQDR01      7SKY009R02      7GAS009
0162724077547792024010713547+41009-074736FM-15+0178K12N V0209999V002659999999N9999997N5-00065-00225100355ADDAA101000395MA1100245098135REMMET08901/07/24 08:54:02 METAR K12N 071354Z VRB05KT M01/M02 A2960 RMK AO1 SLP035 P0001 T10061022EQDR01      7SKY009R02      7GAS009
0214724077547792024010714547+41009-074736FM-15+0178K12N V0203105N001559999999N9999997N5+00005-00175100435ADDAA101000395AA203000891MA1100345098235MD1390059+9999REMMET10001/07/24 09:54:02 METAR K12N 071454Z 31003KT 00/M02 A2963 RMK AO1 SLP043 P0001 60003 T00001017 53005EQDQ01  00078PRCP03R01      7SKY009R02      7GAS009
0161724077547792024010715547+41009-074736FM-15+0178K12N V0209999C000059999999N9999997N5+00005-00065100455ADDAA101001595MA1100345098235REMMET08801/07/24 10:54:02 METAR K12N 071554Z 00000KT 00/M01 A2963 RMK AO1 SLP045 P0006 T00001006EQDR01      7SKY009R02      7GAS009
0160724077547792024010716547+41009-074736FM-15+0178K12N V0209999C000059999999N9999997N5+00065+00005100375ADDAA101000595MA1100275098175REMMET08701/07/24 11:54:02 METAR K12N 071654Z 00000KT 01/00 A2961 RMK AO1 SLP037 P0002 T00060000EQDR01      7SKY009R02      7GAS009
0251724077547792024010717547+41009-074736FM-15+0178K12N V0209999C000059999999N9999997N5+00225+00005100325ADDAA101000395AA206003091KA1060M+00221KA2060N-00111MA1100245098135MD1890109+9999REMMET11101/07/24 12:54:02 METAR K12N 071754Z 00000KT 02/00 A2960 RMK AO1 SLP032 P0001 60012 T00220000 10022 21011 58010EQDQ01  00308PRCP06R01      7SKY009R02      7GAS009
0143724077547792024010718547+41009-074736FM-15+0178K12N V0203305N001559999999N9999997N5+00225+00005100335ADDMA1100245098135REMMET08101/07/24 13:54:02 METAR K12N 071854Z 33003KT 02/00 A2960 RMK AO1 SLP033 T00220000EQDR01      7SKY009R02      7GAS009
0144724077547792024010719547+41009-074736FM-15+0178K12N V0209999C000059999999N9999997N5+00175-00065100455ADDMA1100345098235REMMET08201/07/24 14:54:02 METAR K12N 071954Z 00000KT 02/M01 A2963 RMK AO1 SLP045 T00171006EQDR01      7SKY009R02      7GAS009
0164724077547792024010720547+41009-074736FM-15+0178K12N V0209999V003159999999N9999997N5+00225-00175100575ADDMA1100475098375MD1390249+9999REMMET08801/07/24 15:54:02 METAR K12N 072054Z VRB06KT 02/M02 A2967 RMK AO1 SLP057 T00221017 53024EQDR01      7SKY009R02      7GAS009
0144724077547792024010721547+41009-074736FM-15+0178K12N V0209999V002659999999N9999997N5+00225-00225100745ADDMA1100645098535REMMET08201/07/24 16:54:02 METAR K12N 072154Z VRB05KT 02/M02 A2972 RMK AO1 SLP074 T00221022EQDR01      7SKY009R02      7GAS009
0144724077547792024010722547+41009-074736FM-15+0178K12N V0209999V002159999999N9999997N5+00175-00335100955ADDMA1100855098735REMMET08201/07/24 17:54:02 METAR K12N 072254Z VRB04KT 02/M03 A2978 RMK AO1 SLP095 T00171033EQDR01      7SKY009R02      7GAS009
0202724077547792024010723547+41009-074736FM-15+0178K12N V0209999V001559999999N9999997N5+00175-00395101115ADDKA1060M+00281KA2060N+00171MA1101025098905MD1190539+9999REMMET10001/07/24 18:54:02 METAR K12N 072354Z VRB03KT 02/M04 A2983 RMK AO1 SLP111 T00171039 10028 20017 51053EQDR01      7SKY009R02      7GAS009
0144724077547792024010800547+41009-074736FM-15+0178K12N V0209999C000059999999N9999997N5+00115-00445101255ADDMA1101155099035REMMET08201/07/24 19:54:01 METAR K12N 080054Z 00000KT 01/M04 A2987 RMK AO1 SLP125 T00111044EQDR01      7SKY009R02      7GAS009
0144724077547792024010801547+41009-074736FM-15+0178K12N V0203605N001559999999N9999997N5+00115-00395101365ADDMA1101255099135REMMET08201/07/24 20:54:01 METAR K12N 080154Z 36003KT 01/M04 A2990 RMK AO1 SLP136 T00111039EQDR01      7SKY009R02      7GAS009
0164724077547792024010802547+41009-074736FM-15+0178K12N V0209999C000059999999N9999997N5+00115-00445101475ADDMA1101395099275MD1190359+9999REMMET08801/07/24 21:54:01 METAR K12N 080254Z 00000KT 01/M04 A2994 RMK AO1 SLP147 T00111044 51035EQDR01      7SKY009R02      7GAS009
0144724077547792024010803547+41009-074736FM-15+0178K12N V0203405N003159999999N9999997N5+00115-00395101585ADDMA1101495099375REMMET08201/07/24 22:54:02 METAR K12N 080354Z 34006KT 01/M04 A2997 RMK AO1 SLP158 T00111039EQDR01      7SKY009R02      7GAS009
0180724077547792024010804547+41009-074736FM-15+0178K12N V0209999V002159999999N9999997N5+00115-00395101665ADDKA1240M+00281KA2240N-00171MA1101565099435REMMET09201/07/24 23:54:02 METAR K12N 080454Z VRB04KT 01/M04 A2999 RMK AO1 SLP166 T00111039 400281017EQDR01      7SKY009R02      7GAS009
0213724077547792024010805547+41009-074736FM-15+0178K12N V0203305N002159999999N9999997N5+00175-00335101785ADDAA101000095KA1060M+00171KA2060N+00061MA1101695099575MD1390319+9999REMMET10001/08/24 00:54:02 METAR K12N 080554Z 33004KT 02/M03 A3003 RMK AO1 SLP178 T00171033 10017 20006 53031EQDR01      7SKY009R02      7GAS009
0155724077547792024010806547+41009-074736FM-15+0178K12N V0209999V003159999999N9999997N5+00175-00445101905ADDAA101000095MA1101795099675REMMET08201/08/24 01:54:02 METAR K12N 080654Z VRB06KT 02/M04 A3006 RMK AO1 SLP190 T00171044EQDR01      7SKY009R02      7GAS009
0166724077547792024010807547+41009-074736FM-15+0178K12N V0203105V004159999999N9999997N5+00115-00505102075ADDAA101000095MA1101965099835OC100775REMMET08501/08/24 02:54:02 METAR K12N 080754Z 31008G15KT 01/M05 A3011 RMK AO1 SLP207 T00111050EQDR01      7SKY009R02      7GAS009
0175724077547792024010808547+41009-074736FM-15+0178K12N V0203205N003159999999N9999997N5+00065-00505102155ADDAA101000095MA1102075099935MD1190369+9999REMMET08801/08/24 03:54:02 METAR K12N 080854Z 32006KT 01/M05 A3014 RMK AO1 SLP215 T00061050 51036EQDR01      7SKY009R02      7GAS009
0155724077547792024010809547+41009-074736FM-15+0178K12N V0203505N002159999999N9999997N5+00005-00505102255ADDAA101000095MA1102175100035REMMET08201/08/24 04:54:02 METAR K12N 080954Z 35004KT 00/M05 A3017 RMK AO1 SLP225 T00001050EQDR01      7SKY009R02      7GAS009
0156724077547792024010810547+41009-074736FM-15+0178K12N V0203505N002159999999N9999997N5-00065-00565102425ADDAA101000095MA1102305100165REMMET08301/08/24 05:54:02 METAR K12N 081054Z 35004KT M01/M06 A3021 RMK AO1 SLP242 T10061056EQDR01      7SKY009R02      7GAS009
0231724077547792024010811547+41009-074736FM-15+0178K12N V0209999C000059999999N9999997N5-00065-00505102555ADDAA101000095AA224003091KA1060M+00171KA2060N-00111MA1102445100305MD1390389+9999REMMET10701/08/24 06:54:02 METAR K12N 081154Z 00000KT M01/M05 A3025 RMK AO1 SLP255 70012 T10061050 10017 21011 53038EQDR01      7SKY009R02      7GAS009
0155724077547792024010812546+41009-074736FM-15+0178K12N V02099999999999999999N9999997N5+00115-00505102665ADDAA101000095MA1102575100435REMMET08201/08/24 07:54:02 METAR K12N 081254Z      KT 01/M05 A3029 RMK AO1 SLP266 T00111050EQDR01      7SKY009R02      7GAS009
0155724077547792024010813547+41009-074736FM-15+0178K12N V0209999V002159999999N9999997N5+00225-00445102785ADDAA101000095MA1102685100535REMMET08201/08/24 08:54:02 METAR K12N 081354Z VRB04KT 02/M04 A3032 RMK AO1 SLP278 T00221044EQDR01      7SKY009R02      7GAS009
0175724077547792024010814547+41009-074736FM-15+0178K12N V0203605N003159999999N9999997N5+00285-00395102855ADDAA101000095MA1102745100605MD1190319+9999REMMET08801/08/24 09:54:02 METAR K12N 081454Z 36006KT 03/M04 A3034 RMK AO1 SLP285 T00281039 51031EQDR01      7SKY009R02      7GAS009
0155724077547792024010815547+41009-074736FM-15+0178K12N V0200105N001559999999N9999997N5+00395-00395102865ADDAA101000095MA1102785100635REMMET08201/08/24 10:54:02 METAR K12N 081554Z 01003KT 04/M04 A3035 RMK AO1 SLP286 T00391039EQDR01      7SKY009R02      7GAS009
0155724077547792024010816547+41009-074736FM-15+0178K12N V0209999V002159999999N9999997N5+00505-00395102885ADDAA101000095MA1102785100635REMMET08201/08/24 11:54:02 METAR K12N 081654Z VRB04KT 05/M04 A3035 RMK AO1 SLP288 T00501039EQDR01      7SKY009R02      7GAS009
0224724077547792024010817547+41009-074736FM-15+0178K12N V0203505V004159999999N9999997N5+00445-00505102895ADDAA101000095KA1060M+00501KA2060N-00061MA1102815100665MD1190059+9999OC100775REMMET10301/08/24 12:54:02 METAR K12N 081754Z 35008G15KT 04/M05 A3036 RMK AO1 SLP289 T00441050 10050 21006 51005EQDR01      7SKY009R02      7GAS009
0155724077547792024010818547+41009-074736FM-15+0178K12N V0203605N002159999999N9999997N5+00565-00445102875ADDAA101000095MA1102815100665REMMET08201/08/24 13:54:02 METAR K12N 081854Z 36004KT 06/M04 A3036 RMK AO1 SLP287 T00561044EQDR01      7SKY009R02      7GAS009
0155724077547792024010819547+41009-074736FM-15+0178K12N V0209999V002159999999N9999997N5+00445-00505102915ADDAA101000095MA1102815100665REMMET08201/08/24 14:54:02 METAR K12N 081954Z VRB04KT 04/M05 A3036 RMK AO1 SLP291 T00441050EQDR01      7SKY009R02      7GAS009
0175724077547792024010820547+41009-074736FM-15+0178K12N V0209999V001559999999N9999997N5+00505-00505102945ADDAA101000095MA1102845100705MD1390059+9999REMMET08801/08/24 15:54:02 METAR K12N 082054Z VRB03KT 05/M05 A3037 RMK AO1 SLP294 T00501050 53005EQDR01      7SKY009R02      7GAS009
0155724077547792024010821547+41009-074736FM-15+0178K12N V0209999C000059999999N9999997N5+00065-00445103045ADDAA101000095MA1102955100805REMMET08201/08/24 16:54:02 METAR K12N 082154Z 00000KT 01/M04 A3040 RMK AO1 SLP304 T00061044EQDR01      7SKY009R02      7GAS009
0156724077547792024010822547+41009-074736FM-15+0178K12N V0209999C000059999999N9999997N5-00065-00335103155ADDAA101000095MA1103055100905REMMET08301/08/24 17:54:02 METAR K12N 082254Z 00000KT M01/M03 A3043 RMK AO1 SLP315 T10061033EQDR01      7SKY009R02      7GAS009
0214724077547792024010823547+41009-074736FM-15+0178K12N V0209999C000059999999N9999997N5-00225-00445103165ADDAA101000095KA1060M+00561KA2060N-00221MA1103055100905MD1190199+9999REMMET10101/08/24 18:54:02 METAR K12N 082354Z 00000KT M02/M04 A3043 RMK AO1 SLP316 T10221044 10056 21022 51019EQDR01      7SKY009R02      7GAS009
0156724077547792024010900547+41009-074736FM-15+0178K12N V0209999C000059999999N9999997N5-00225-00505103195ADDAA101000095MA1103085100935REMMET08301/08/24 19:54:01 METAR K12N 090054Z 00000KT M02/M05 A3044 RMK AO1 SLP319 T10221050EQDR01      7SKY009R02      7GAS009
0156724077547792024010901547+41009-074736FM-15+0178K12N V0209999C000059999999N9999997N5-00445-00615103135ADDAA101000095MA1103015100865REMMET08301/08/24 20:54:01 METAR K12N 090154Z 00000KT M04/M06 A3042 RMK AO1 SLP313 T10441061EQDR01      7SKY009R02      7GAS009
0176724077547792024010902547+41009-074736FM-15+0178K12N V0209999C000059999999N9999997N5-00505-00675103065ADDAA101000095MA1102955100805MD1890109+9999REMMET08901/08/24 21:54:01 METAR K12N 090254Z 00000KT M05/M07 A3040 RMK AO1 SLP306 T10501067 58010EQDR01      7SKY009R02      7GAS009
0156724077547792024010903547+41009-074736FM-15+0178K12N V0209999C000059999999N9999997N5-00505-00725103065ADDAA101000095MA1102955100805REMMET08301/08/24 22:54:02 METAR K12N 090354Z 00000KT M05/M07 A3040 RMK AO1 SLP306 T10501072EQDR01      7SKY009R02      7GAS009
0192724077547792024010904547+41009-074736FM-15+0178K12N V0209999C000059999999N9999997N5-00565-00725103035ADDAA101000095KA1240M+00561KA2240N-00611MA1102915100765REMMET09301/08/24 23:54:02 METAR K12N 090454Z 00000KT M06/M07 A3039 RMK AO1 SLP303 T10561072 400561061EQDR01      7SKY009R02      7GAS009
0886724077547792024010904596+41009-074736SOD  +0178K12N V020999999999999999999999999999+99999+99999999999ADDAA124000095KA1240M+00565KA2240N-00605MG1100344101664OE11240111830002545OE22240058134012455OE33240015299999995REMSOD73024 HR PRECIPITATION (IN):0.00  24 HR MAX TEMP (F):42 24 HR MAX TEMP TIME (LST):1444 24 HR MIN TEMP (F):21 24 HR MIN TEMP TIME (LST):2329 AVERAGE STATION PRESSURE:29.630 MINIMUM SEA LEVEL PRESSURE:30.02 TIME OF OCCURRENCE:0006 PEAK WIND SPEED (MPH):25  PEAK WIND DIR (DEG):300 PEAK WIND TIME (LST):0254  FASTEST 2MIN SPEED (MPH):13 FASTEST 2MIN DIR (DEG):340 FASTEST 2MIN TIME (LST):1245 AVERAGE WIND SPEED (MPH):3.4  24 HR AVG TEMP (F):32 HEATING DEGREE DAYS:33  COOLING DEGREE DAYS:0   LATEST DAY MAX TEMP (0700-1900 LST):42  LATEST NIGHT MIN TEMP(1900-0800 LST):30 HOURLY INCREMENTAL PRECIPITATION VALUES (IN):.00 0.00 0.00 0.00 0.00 0.00 0.00 0.00 0.00 0.00 0.00 0.00 0.00 0.00 0.00 0.00 0.00 0.00 0.00 0.00 0.00 0.00 0.00 0.00EQDR01     N7GJS072R02     N7GKS075
0214724077547792024010905547+41009-074736FM-15+0178K12N V0209999C000059999999N9999997N5-00565-00785103095ADDAA101000095KA1060M-00171KA2060N-00671MA1102985100835MD1390039+9999REMMET10101/09/24 00:54:02 METAR K12N 090554Z 00000KT M06/M08 A3041 RMK AO1 SLP309 T10561078 11017 21067 53003EQDR01      7SKY009R02      7GAS009
0156724077547792024010906547+41009-074736FM-15+0178K12N V0209999C000059999999N9999997N5-00565-00785103035ADDAA101000095MA1102915100765REMMET08301/09/24 01:54:02 METAR K12N 090654Z 00000KT M06/M08 A3039 RMK AO1 SLP303 T10561078EQDR01      7SKY009R02      7GAS009
0156724077547792024010907547+41009-074736FM-15+0178K12N V0209999C000059999999N9999997N5-00565-00835103055ADDAA101000095MA1102955100805REMMET08301/09/24 02:54:02 METAR K12N 090754Z 00000KT M06/M08 A3040 RMK AO1 SLP305 T10561083EQDR01      7SKY009R02      7GAS009
0183724077547792024010908547+41009-074736FM-15+0178K12N V0200205N001559999999N9999997N5-00505-00675102825ADDAA101000095MA1102715100565MD1890269+9999REMMET09601/09/24 03:54:02 METAR K12N 090854Z 02003KT M05/M07 A3033 RMK AO1 PRESFR SLP282 T10501067 58026EQDR01      7SKY009R02      7GAS009
0156724077547792024010909547+41009-074736FM-15+0178K12N V0209999C000059999999N9999997N5-00505-00675102885ADDAA101000095MA1102745100605REMMET08301/09/24 04:54:02 METAR K12N 090954Z 00000KT M05/M07 A3034 RMK AO1 SLP288 T10501067EQDR01      7SKY009R02      7GAS009
0156724077547792024010910547+41009-074736FM-15+0178K12N V0209999C000059999999N9999997N5-00445-00615102915ADDAA101000095MA1102785100635REMMET08301/09/24 05:54:02 METAR K12N 091054Z 00000KT M04/M06 A3035 RMK AO1 SLP291 T10441061EQDR01      7SKY009R02      7GAS009
0214724077547792024010911547+41009-074736FM-15+0178K12N V0209999C000059999999N9999997N5-00395-00505102765ADDAA101000095KA1060M-00391KA2060N-00721MA1102615100465MD1890089+9999REMMET10101/09/24 06:54:02 METAR K12N 091154Z 00000KT M04/M05 A3030 RMK AO1 SLP276 T10391050 11039 21072 58008EQDR01      7SKY009R02      7GAS009
0156724077547792024010912547+41009-074736FM-15+0178K12N V0209999C000059999999N9999997N5-00285-00445102645ADDAA101000095MA1102515100365REMMET08301/09/24 07:54:02 METAR K12N 091254Z 00000KT M03/M04 A3027 RMK AO1 SLP264 T10281044EQDR01      7SKY009R02      7GAS009
0156724077547792024010913547+41009-074736FM-15+0178K12N V0209999V001559999999N9999997N5-00115-00335102645ADDAA101000095MA1102515100365REMMET08301/09/24 08:54:02 METAR K12N 091354Z VRB03KT M01/M03 A3027 RMK AO1 SLP264 T10111033EQDR01      7SKY009R02      7GAS009
0175724077547792024010914547+41009-074736FM-15+0178K12N V0209999V002159999999N9999997N5+00285-00115102475ADDAA101000095MA1102375100235MD1890269+9999REMMET08801/09/24 09:54:02 METAR K12N 091454Z VRB04KT 03/M01 A3023 RMK AO1 SLP247 T00281011 58026EQDR01      7SKY009R02      7GAS009
0155724077547792024010915547+41009-074736FM-15+0178K12N V0209999V002659999999N9999997N5+00285-00065102415ADDAA101000395MA1102305100165REMMET08201/09/24 10:54:02 METAR K12N 091554Z VRB05KT 03/M01 A3021 RMK AO1 SLP241 T00281006EQDR01      7SKY009R02      7GAS009
0160724077547792024010916547+41009-074736FM-15+0178K12N V0209999N999999999999N9999997N5+00225+00005102175ADDAA101001595MA1102035099905REMMET08701/09/24 11:54:02 METAR K12N 091654Z      KT 02/00 A3013 RMK AO1 SLP217 P0005 T00220000EQDR01      7SKY009R02      7GAS009
0258724077547792024010917547+41009-074736FM-15+0178K12N V0209999N999999999999N9999997N5+00285+00115101855ADDAA101001095AA206002591KA1060M+00331KA2060N-00391MA1101735099605MD1890619+9999REMMET11801/09/24 12:54:02 METAR K12N 091754Z      KT 03/01 A3004 RMK AO1 PRESFR SLP185 P0005 60010 T00280011 10033 21039 58061EQDQ01  00258PRCP06R01      7SKY009R02      7GAS009
0167724077547792024010918547+41009-074736FM-15+0178K12N V0209999V001559999999N9999997N5+00335+00115101645ADDAA101003095MA1101525099405REMMET09401/09/24 13:54:02 METAR K12N 091854Z VRB03KT 03/01 A2998 RMK AO1 PRESFR SLP164 P0012 T00330011EQDR01      7SKY009R02      7GAS009
0167724077547792024010919547+41009-074736FM-15+0178K12N V0209999N999999999999N9999997N5+00395+00225101375ADDAA101003695MA1101255099135REMMET09401/09/24 14:54:02 METAR K12N 091954Z      KT 04/02 A2990 RMK AO1 PRESFR SLP137 P0015 T00390022EQDR01      7SKY009R02      7GAS009
0213724077547792024010920547+41009-074736FM-15+0178K12N V0209999N999999999999N9999997N5+00505+00335101135ADDAA101003095AA203009791MA1101025098905MD1890709+9999REMMET09901/09/24 15:54:02 METAR K12N 092054Z      KT 05/03 A2983 RMK AO1 SLP113 P0011 60038 T00500033 58070EQDQ01  00968PRCP03R01      7SKY009R02      7GAS009
0160724077547792024010921547+41009-074736FM-15+0178K12N V0209999N999999999999N9999997N5+00675+00445100815ADDAA101003095MA1100715098605REMMET08701/09/24 16:54:02 METAR K12N 092154Z      KT 07/04 A2974 RMK AO1 SLP081 P0013 T00670044EQDR01      7SKY009R02      7GAS009
0178724077547792024010922547+41009-074736FM-15+0178K12N V0201205V003659999999N9999997N5+00785+00565100495ADDAA101004695MA1100415098305OC101135REMMET09701/09/24 17:54:02 METAR K12N 092254Z 12007G22KT 08/06 A2965 RMK AO1 PRESFR SLP049 P0017 T00780056EQDR01      7SKY009R02      7GAS009
0262724077547792024010923547+41009-074736FM-15+0178K12N V0201605V003659999999N9999997N5+00895+00675100135ADDAA101005395AA206022191KA1060M+00891KA2060N+00281MA1100075097975MD1890959+9999OC101135REMMET11401/09/24 18:54:02 METAR K12N 092354Z 16007G22KT 09/07 A2955 RMK AO1 SLP013 P0019 60087 T00890067 10089 20028 58095EQDQ01  02208PRCP06R01      7SKY009R02      7GAS009
0178724077547792024011000547+41009-074736FM-15+0178K12N V0209999V003159999999N9999997N5+01005+00785099815ADDAA101008195MA1099765097675OC101035REMMET09701/09/24 19:54:01 METAR K12N 100054Z VRB06G20KT 10/08 A2946 RMK AO1 PRESFR SLP981 P0033 T01000078EQDR01      7SKY009R02      7GAS009
0210724077547792024011001547+41009-074736FM-15+0178K12N V0201405V004659999999N9999997N5+01065+00835099405ADDAA101008995MA1099365097275OC101085OD149901331130REMMET11501/09/24 20:54:01 METAR K12N 100154Z 14009G21KT 11/08 A2934 RMK AO1 PK WND 13026/0119 PRESFR SLP940 P0034 T01060083EQDR01      7SKY009R02      7GAS009
0224724077547792024011002547+41009-074736FM-15+0178K12N V0209999V002659999999N9999997N5+01115+00945099125ADDAA101010295AA203026791MA1099095097005MD1690949+9999OC100985REMMET10201/09/24 21:54:01 METAR K12N 100254Z VRB05G19KT 11/09 A2926 RMK AO1 SLP912 P0038 60105 T01110094 56094EQDQ01  02668PRCP03R01      7SKY009R02      7GAS009
0167724077547792024011003547+41009-074736FM-15+0178K12N V0209999C000059999999N9999997N5+00945+00895099165ADDAA101010795MA1099125097045REMMET09401/09/24 22:54:01 METAR K12N 100354Z 00000KT 09/09 A2927 RMK AO1 PRESFR SLP916 P0047 T00940089EQDR01      7SKY009R02      7GAS009
0214724077547792024011004547+41009-074736FM-15+0178K12N V0201605V004659999999N9999997N5+01225+01115098535ADDAA101003095KA1240M+01221KA2240N-00721MA1098515096445OC101135REMMET10701/09/24 23:54:01 METAR K12N 100454Z 16009G22KT 12/11 A2909 RMK AO1 PRESFR SLP853 P0012 T01220111 401221072EQDR01      7SKY009R02      7GAS009
0902724077547792024011004596+41009-074736SOD  +0178K12N V020999999999999999999999999999+99999+99999999999ADDAA124066396KA1240M+01225KA2240N-00715MG1099714098484OE11240134113020195OE22240062615023495OE33240016599999995REMSOD73024 HR PRECIPITATION (IN):2.61  24 HR MAX TEMP (F):54 24 HR MAX TEMP TIME (LST):2359 24 HR MIN TEMP (F):19 24 HR MIN TEMP TIME (LST):0147 AVERAGE STATION PRESSURE:29.445 MINIMUM SEA LEVEL PRESSURE:29.08 TIME OF OCCURRENCE:2359 PEAK WIND SPEED (MPH):30  PEAK WIND DIR (DEG):130 PEAK WIND TIME (LST):2019  FASTEST 2MIN SPEED (MPH):14 FASTEST 2MIN DIR (DEG):150 FASTEST 2MIN TIME (LST):2349 AVERAGE WIND SPEED (MPH):3.7  24 HR AVG TEMP (F):37 HEATING DEGREE DAYS:28  COOLING DEGREE DAYS:0   LATEST DAY MAX TEMP (0700-1900 LST):48  LATEST NIGHT MIN TEMP(1900-0800 LST):19 HOURLY INCREMENTAL PRECIPITATION VALUES (IN):.00 0.00 0.00 0.00 0.00 0.00 0.00 0.00 0.00 0.00 0.01 0.06 0.04 0.12 0.14 0.12 0.12 0.18 0.21 0.32 0.35 0.40 0.42 0.12EQDR01  2.617AAP092R02     N7GJS072R03     N7GKS075
0262724077547792024011005547+41009-074736FM-15+0178K12N V0201605N005759999999N9999997N5+01335+01115098385ADDAA101000395AA206041991KA1060M+01391KA2060N+00721MA1098345096275MD1890739+9999OC101085REMMET11401/10/24 00:54:02 METAR K12N 100554Z 16011G21KT 13/11 A2904 RMK AO1 SLP838 P0001 60165 T01330111 10139 20072 58073EQDQ01  04198PRCP06R01      7SKY009R02      7GAS009
0171724077547792024011006547+41009-074736FM-15+0178K12N V0201805V003659999999N9999997N5+01335+01175098315ADDAA101000595MA1098275096205OC100985REMMET09001/10/24 01:54:02 METAR K12N 100654Z 18007G19KT 13/12 A2902 RMK AO1 SLP831 P0002 T01330117EQDR01      7SKY009R02      7GAS009
0160724077547792024011007547+41009-074736FM-15+0178K12N V0202005N003659999999N9999997N5+01285+01115098256ADDAA101001895MA1098246096176REMMET08701/10/24 02:54:02 METAR K12N 100754Z 20007KT 13/11 A2901 RMK AO1 SLP825 P0006 T01280111EQDR01      7SKY009R02      7GAS009
0231724077547792024011008547+41009-074736FM-15+0178K12N V0209999V002659999999N9999997N5+01065+00785098316ADDAA101000895AA203003091MA1098276096206MD1590079+9999OC100885REMMET10901/10/24 03:54:02 METAR K12N 100854Z VRB05G17KT 11/08 A2902 RMK AO1 PRESRR SLP831 P0004 60012 T01060078 55007EQDQ01  00308PRCP03R01      7SKY009R02      7GAS009
0160724077547792024011009547+41009-074736FM-15+0178K12N V0209999V002159999999N9999997N5+00835+00445098406ADDAA101000395MA1098376096306REMMET08701/10/24 04:54:02 METAR K12N 100954Z VRB04KT 08/04 A2905 RMK AO1 SLP840 P0001 T00830044EQDR01      7SKY009R02      7GAS009
0154724077547792024011010547+41009-074736FM-15+0178K12N V0209999V001559999999N9999997N5+00725+00395098486ADDAA101000095MA1098445096375REMMET08101/10/24 05:54:02 METAR K12N 101054Z VRB03KT 07/04 A2907 RMK AO1 SLP848 T00720039EQDR01      7SKY009R02      7GAS009
0262724077547792024011011547+41009-074736FM-15+0178K12N V0202205N003659999999N9999997N5+00725+00175098655ADDAA101000095AA206003391AA324069991KA1060M+01391KA2060N+00671MA1098615096545MD1390339+9999REMMET11101/10/24 06:54:02 METAR K12N 101154Z 22007KT 07/02 A2912 RMK AO1 SLP865 60013 70275 T00720017 10139 20067 53033EQDQ01  06988PRCP24R01      7SKY009R02      7GAS009
0154724077547792024011012547+41009-074736FM-15+0178K12N V0209999V001559999999N9999997N5+00675+00065098745ADDAA101000095MA1098715096645REMMET08101/10/24 07:54:02 METAR K12N 101254Z VRB03KT 07/01 A2915 RMK AO1 SLP874 T00670006EQDR01      7SKY009R02      7GAS009
0155724077547792024011013547+41009-074736FM-15+0178K12N V0209999V002159999999N9999997N5+00675-00115098895ADDAA101000095MA1098885096805REMMET08201/10/24 08:54:02 METAR K12N 101354Z VRB04KT 07/M01 A2920 RMK AO1 SLP889 T00671011EQDR01      7SKY009R02      7GAS009
0186724077547792024011014547+41009-074736FM-15+0178K12N V0202205V004159999999N9999997N5+00785-00225098995ADDAA101000095MA1098985096905MD1390359+9999OC101085REMMET09101/10/24 09:54:02 METAR K12N 101454Z 22008G21KT 08/M02 A2923 RMK AO1 SLP899 T00781022 53035EQDR01      7SKY009R02      7GAS009
0166724077547792024011015547+41009-074736FM-15+0178K12N V0202205N005759999999N9999997N5+00675-00115099175ADDAA101000095MA1099155097075OC101245REMMET08501/10/24 10:54:02 METAR K12N 101554Z 22011G24KT 07/M01 A2928 RMK AO1 SLP917 T00671011EQDR01      7SKY009R02      7GAS009
0187724077547792024011016547+41009-074736FM-15+0178K12N V0209999N999999999999N9999997N5+00725-00335099155ADDAA101000095MA1099155097075OD149901541230REMMET10001/10/24 11:54:02 METAR K12N 101654Z      KT 07/M03 A2928 RMK AO1 PK WND 23030/1623 SLP915 T00721033EQDR01      7SKY009R02      7GAS009
0224724077547792024011017547+41009-074736FM-15+0178K12N V0202205V005159999999N9999997N5+00675-00285099215ADDAA101000095KA1060M+00781KA2060N+00611MA1099225097145MD1190229+9999OC100985REMMET10301/10/24 12:54:02 METAR K12N 101754Z 22010G19KT 07/M03 A2930 RMK AO1 SLP921 T00671028 10078 20061 51022EQDR01      7SKY009R02      7GAS009
0166724077547792024011018547+41009-074736FM-15+0178K12N V0202305V004659999999N9999997N5+00675-00285099375ADDAA101000095MA1099365097275OC101035REMMET08501/10/24 13:54:02 METAR K12N 101854Z 23009G20KT 07/M03 A2934 RMK AO1 SLP937 T00671028EQDR01      7SKY009R02      7GAS009
0198724077547792024011019547+41009-074736FM-15+0178K12N V0209999V003159999999N9999997N5+00675-00285099495ADDAA101000095MA1099495097405OC101135OD149901331230REMMET10301/10/24 14:54:02 METAR K12N 101954Z VRB06G22KT 07/M03 A2938 RMK AO1 PK WND 23026/1909 SLP949 T00671028EQDR01      7SKY009R02      7GAS009
0186724077547792024011020547+41009-074736FM-15+0178K12N V0202205V004159999999N9999997N5+00675-00225099645ADDAA101000095MA1099635097535MD1190419+9999OC101245REMMET09101/10/24 15:54:02 METAR K12N 102054Z 22008G24KT 07/M02 A2942 RMK AO1 SLP964 T00671022 51041EQDR01      7SKY009R02      7GAS009
0184724077547792024011021547+41009-074736FM-15+0178K12N V0201905V004159999999N9999997N5+00615-00285099845ADDAA101000095MA1099805097705OC101035REMMET10301/10/24 16:54:02 METAR K12N 102154Z 19008G20KT 06/M03 A2947 RMK AO1 PK WND 21027/2142 SLP984 T00611028EQDR01      7SKY009R02      7GAS009
0187724077547792024011022547+41009-074736FM-15+0178K12N V0209999V002659999999N9999997N5+00615-00285100005ADDAA101000095MA1099975097875OD149901391290REMMET10001/10/24 17:54:02 METAR K12N 102254Z VRB05KT 06/M03 A2952 RMK AO1 PK WND 29027/2157 SLP000 T00611028EQDR01      7SKY009R02      7GAS009
0213724077547792024011023547+41009-074736FM-15+0178K12N V0202305V003659999999N9999997N5+00565-00175100155ADDAA101000095KA1060M+00671KA2060N+00561MA1100105098005MD1190489+9999REMMET10001/10/24 18:54:02 METAR K12N 102354Z 23007KT 06/M02 A2956 RMK AO1 SLP015 T00561017 10067 20056 51048EQDR01      7SKY009R02      7GAS009
0166724077547792024011100547+41009-074736FM-15+0178K12N V0209999V003159999999N9999997N5+00565-00285100245ADDAA101000095MA1100205098105OC100985REMMET08501/10/24 19:54:01 METAR K12N 110054Z VRB06G19KT 06/M03 A2959 RMK AO1 SLP024 T00561028EQDR01      7SKY009R02      7GAS009
0155724077547792024011101547+41009-074736FM-15+0178K12N V0202305V003659999999N9999997N5+00505-00285100325ADDAA101000095MA1100275098175REMMET08201/10/24 20:54:01 METAR K12N 110154Z 23007KT 05/M03 A2961 RMK AO1 SLP032 T00501028EQDR01      7SKY009R02      7GAS009
0186724077547792024011102547+41009-074736FM-15+0178K12N V0202305N003159999999N9999997N5+00505-00285100385ADDAA101000095MA1100345098235MD1190239+9999OC100935REMMET09101/10/24 21:54:01 METAR K12N 110254Z 23006G18KT 05/M03 A2963 RMK AO1 SLP038 T00501028 51023EQDR01      7SKY009R02      7GAS009
0155724077547792024011103547+41009-074736FM-15+0178K12N V0202205N002659999999N9999997N5+00445-00285100495ADDAA101000095MA1100445098335REMMET08201/10/24 22:54:01 METAR K12N 110354Z 22005KT 04/M03 A2966 RMK AO1 SLP049 T00441028EQDR01      7SKY009R02      7GAS009
0191724077547792024011104547+41009-074736FM-15+0178K12N V0209999V001559999999N9999997N5+00445-00285100535ADDAA101000095KA1240M+01391KA2240N+00441MA1100475098375REMMET09201/10/24 23:54:01 METAR K12N 110454Z VRB03KT 04/M03 A2967 RMK AO1 SLP053 T00441028 401390044EQDR01      7SKY009R02      7GAS009
0902724077547792024011104596+41009-074736SOD  +0178K12N V020999999999999999999999999999+99999+99999999999ADDAA124003696KA1240M+01395KA2240N+00445MG1096974098174OE11240156523011235OE22240080523017045OE33240033599999995REMSOD73024 HR PRECIPITATION (IN):0.14  24 HR MAX TEMP (F):57 24 HR MAX TEMP TIME (LST):0106 24 HR MIN TEMP (F):40 24 HR MIN TEMP TIME (LST):2359 AVERAGE STATION PRESSURE:28.635 MINIMUM SEA LEVEL PRESSURE:28.99 TIME OF OCCURRENCE:0344 PEAK WIND SPEED (MPH):35  PEAK WIND DIR (DEG):230 PEAK WIND TIME (LST):1123  FASTEST 2MIN SPEED (MPH):18 FASTEST 2MIN DIR (DEG):230 FASTEST 2MIN TIME (LST):1704 AVERAGE WIND SPEED (MPH):7.5  24 HR AVG TEMP (F):49 HEATING DEGREE DAYS:16  COOLING DEGREE DAYS:0   LATEST DAY MAX TEMP (0700-1900 LST):46  LATEST NIGHT MIN TEMP(1900-0800 LST):44 HOURLY INCREMENTAL PRECIPITATION VALUES (IN):.01 0.02 0.07 0.03 0.01 0.00 0.00 0.00 0.00 0.00 0.00 0.00 0.00 0.00 0.00 0.00 0.00 0.00 0.00 0.00 0.00 0.00 0.00 0.00EQDR01  0.147AAP092R02     N7GJS072R03     N7GKS075
0213724077547792024011105547+41009-074736FM-15+0178K12N V0202205N003159999999N9999997N5+00445-00225100635ADDAA101000095KA1060M+00561KA2060N+00441MA1100585098475MD1190239+9999REMMET10001/11/24 00:54:02 METAR K12N 110554Z 22006KT 04/M02 A2970 RMK AO1 SLP063 T00441022 10056 20044 51023EQDR01      7SKY009R02      7GAS009
0166724077547792024011106547+41009-074736FM-15+0178K12N V0209999V001559999999N9999997N5+00395-00285100705ADDAA101000095MA1100645098535OC100775REMMET08501/11/24 01:54:02 METAR K12N 110654Z VRB03G15KT 04/M03 A2972 RMK AO1 SLP070 T00391028EQDR01      7SKY009R02      7GAS009
0155724077547792024011107547+41009-074736FM-15+0178K12N V0209999V002159999999N9999997N5+00395-00335100805ADDAA101000095MA1100755098635REMMET08201/11/24 02:54:02 METAR K12N 110754Z VRB04KT 04/M03 A2975 RMK AO1 SLP080 T00391033EQDR01      7SKY009R02      7GAS009
0175724077547792024011108547+41009-074736FM-15+0178K12N V0202105N001559999999N9999997N5+00395-00335100805ADDAA101000095MA1100755098635MD1190179+9999REMMET08801/11/24 03:54:02 METAR K12N 110854Z 21003KT 04/M03 A2975 RMK AO1 SLP080 T00391033 51017EQDR01      7SKY009R02      7GAS009
0155724077547792024011109547+41009-074736FM-15+0178K12N V0202205N002159999999N9999997N5+00395-00335100845ADDAA101000095MA1100785098675REMMET08201/11/24 04:54:02 METAR K12N 110954Z 22004KT 04/M03 A2976 RMK AO1 SLP084 T00391033EQDR01      7SKY009R02      7GAS009
0155724077547792024011110547+41009-074736FM-15+0178K12N V0202005N002159999999N9999997N5+00335-00395100935ADDAA101000095MA1100885098775REMMET08201/11/24 05:54:02 METAR K12N 111054Z 20004KT 03/M04 A2979 RMK AO1 SLP093 T00331039EQDR01      7SKY009R02      7GAS009
0213724077547792024011111547+41009-074736FM-15+0178K12N V0209999V002159999999N9999997N5+00335-00445101015ADDAA101000095KA1060M+00441KA2060N+00331MA1100955098835MD1390209+9999REMMET10001/11/24 06:54:02 METAR K12N 111154Z VRB04KT 03/M04 A2981 RMK AO1 SLP101 T00331044 10044 20033 53020EQDR01      7SKY009R02      7GAS009
0155724077547792024011112547+41009-074736FM-15+0178K12N V0209999N999999999999N9999997N5+00285-00445101045ADDAA101000095MA1100985098875REMMET08201/11/24 07:54:02 METAR K12N 111254Z      KT 03/M04 A2982 RMK AO1 SLP104 T00281044EQDR01      7SKY009R02      7GAS009
0155724077547792024011113547+41009-074736FM-15+0178K12N V0202205N002159999999N9999997N5+00335-00445101095ADDAA101000095MA1101025098905REMMET08201/11/24 08:54:02 METAR K12N 111354Z 22004KT 03/M04 A2983 RMK AO1 SLP109 T00331044EQDR01      7SKY009R02      7GAS009
0175724077547792024011114547+41009-074736FM-15+0178K12N V0202105N004159999999N9999997N5+00335-00395101145ADDAA101000095MA1101085098975MD1390139+9999REMMET08801/11/24 09:54:02 METAR K12N 111454Z 21008KT 03/M04 A2985 RMK AO1 SLP114 T00331039 53013EQDR01      7SKY009R02      7GAS009
0155724077547792024011115547+41009-074736FM-15+0178K12N V0202205N003659999999N9999997N5+00335-00395101175ADDAA101000095MA1101085098975REMMET08201/11/24 10:54:02 METAR K12N 111554Z 22007KT 03/M04 A2985 RMK AO1 SLP117 T00331039EQDR01      7SKY009R02      7GAS009
0155724077547792024011116547+41009-074736FM-15+0178K12N V0209999V002159999999N9999997N5+00395-00395101055ADDAA101000095MA1100985098875REMMET08201/11/24 11:54:02 METAR K12N 111654Z VRB04KT 04/M04 A2982 RMK AO1 SLP105 T00391039EQDR01      7SKY009R02      7GAS009
0224724077547792024011117547+41009-074736FM-15+0178K12N V0209999V003159999999N9999997N5+00445-00395100985ADDAA101000095KA1060M+00501KA2060N+00281MA1100915098805MD1890169+9999OC100725REMMET10301/11/24 12:54:02 METAR K12N 111754Z VRB06G14KT 04/M04 A2980 RMK AO1 SLP098 T00441039 10050 20028 58016EQDR01      7SKY009R02      7GAS009
0155724077547792024011118547+41009-074736FM-15+0178K12N V0202205N003159999999N9999997N5+00565-00285100935ADDAA101000095MA1100885098775REMMET08201/11/24 13:54:02 METAR K12N 111854Z 22006KT 06/M03 A2979 RMK AO1 SLP093 T00561028EQDR01      7SKY009R02      7GAS009
0155724077547792024011119547+41009-074736FM-15+0178K12N V0202105V004159999999N9999997N5+00675-00285100955ADDAA101000095MA1100885098775REMMET08201/11/24 14:54:02 METAR K12N 111954Z 21008KT 07/M03 A2979 RMK AO1 SLP095 T00671028EQDR01      7SKY009R02      7GAS009
0175724077547792024011120547+41009-074736FM-15+0178K12N V0209999V003159999999N9999997N5+00615-00335101025ADDAA101000095MA1100985098875MD1390059+9999REMMET08801/11/24 15:54:02 METAR K12N 112054Z VRB06KT 06/M03 A2982 RMK AO1 SLP102 T00611033 53005EQDR01      7SKY009R02      7GAS009
0155724077547792024011121547+41009-074736FM-15+0178K12N V0202005N002159999999N9999997N5+00615-00285101105ADDAA101000095MA1101055098935REMMET08201/11/24 16:54:02 METAR K12N 112154Z 20004KT 06/M03 A2984 RMK AO1 SLP110 T00611028EQDR01      7SKY009R02      7GAS009
0155724077547792024011122547+41009-074736FM-15+0178K12N V0202005N002659999999N9999997N5+00565-00285101165ADDAA101000095MA1101085098975REMMET08201/11/24 17:54:02 METAR K12N 112254Z 20005KT 06/M03 A2985 RMK AO1 SLP116 T00561028EQDR01      7SKY009R02      7GAS009
0213724077547792024011123547+41009-074736FM-15+0178K12N V0209999C000059999999N9999997N5+00565-00225101255ADDAA101000095KA1060M+00671KA2060N+00441MA1101195099075MD1390219+9999REMMET10001/11/24 18:54:02 METAR K12N 112354Z 00000KT 06/M02 A2988 RMK AO1 SLP125 T00561022 10067 20044 53021EQDR01      7SKY009R02      7GAS009
0155724077547792024011200547+41009-074736FM-15+0178K12N V0209999V002159999999N9999997N5+00615-00225101345ADDAA101000095MA1101295099175REMMET08201/11/24 19:54:01 METAR K12N 120054Z VRB04KT 06/M02 A2991 RMK AO1 SLP134 T00611022EQDR01      7SKY009R02      7GAS009
0155724077547792024011201547+41009-074736FM-15+0178K12N V0209999C000059999999N9999997N5+00565-00175101405ADDAA101000095MA1101325099205REMMET08201/11/24 20:54:01 METAR K12N 120154Z 00000KT 06/M02 A2992 RMK AO1 SLP140 T00561017EQDR01      7SKY009R02      7GAS009
0175724077547792024011202547+41009-074736FM-15+0178K12N V0209999C000059999999N9999997N5+00445-00175101475ADDAA101000095MA1101395099275MD1190219+9999REMMET08801/11/24 21:54:01 METAR K12N 120254Z 00000KT 04/M02 A2994 RMK AO1 SLP147 T00441017 51021EQDR01      7SKY009R02      7GAS009
0155724077547792024011203547+41009-074736FM-15+0178K12N V0209999C000059999999N9999997N5+00115-00175101585ADDAA101000095MA1101495099375REMMET08201/11/24 22:54:01 METAR K12N 120354Z 00000KT 01/M02 A2997 RMK AO1 SLP158 T00111017EQDR01      7SKY009R02      7GAS009
0191724077547792024011204547+41009-074736FM-15+0178K12N V0209999C000059999999N9999997N5+00005-00175101665ADDAA101000095KA1240M+00671KA2240N+00001MA1101565099435REMMET09201/11/24 23:54:01 METAR K12N 120454Z 00000KT 00/M02 A2999 RMK AO1 SLP166 T00001017 400670000EQDR01      7SKY009R02      7GAS009
0886724077547792024011204596+41009-074736SOD  +0178K12N V020999999999999999999999999999+99999+99999999999ADDAA124000095KA1240M+00675KA2240N+00005MG1098784100544OE11240089422013175OE22240058121013155OE33240020199999995REMSOD73024 HR PRECIPITATION (IN):0.00  24 HR MAX TEMP (F):44 24 HR MAX TEMP TIME (LST):1523 24 HR MIN TEMP (F):32 24 HR MIN TEMP TIME (LST):2359 AVERAGE STATION PRESSURE:29.170 MINIMUM SEA LEVEL PRESSURE:29.69 TIME OF OCCURRENCE:0008 PEAK WIND SPEED (MPH):20  PEAK WIND DIR (DEG):220 PEAK WIND TIME (LST):1317  FASTEST 2MIN SPEED (MPH):13 FASTEST 2MIN DIR (DEG):210 FASTEST 2MIN TIME (LST):1315 AVERAGE WIND SPEED (MPH):4.5  24 HR AVG TEMP (F):38 HEATING DEGREE DAYS:27  COOLING DEGREE DAYS:0   LATEST DAY MAX TEMP (0700-1900 LST):44  LATEST NIGHT MIN TEMP(1900-0800 LST):37 HOURLY INCREMENTAL PRECIPITATION VALUES (IN):.00 0.00 0.00 0.00 0.00 0.00 0.00 0.00 0.00 0.00 0.00 0.00 0.00 0.00 0.00 0.00 0.00 0.00 0.00 0.00 0.00 0.00 0.00 0.00EQDR01     N7GJS072R02     N7GKS075
0202724077547792024011205547+41009-074736FM-15+0178K12N V0209999C000059999999N9999997N5+00005-00225101745ADDKA1060M+00611KA2060N-00061MA1101665099535MD1190249+9999REMMET10001/12/24 00:54:01 METAR K12N 120554Z 00000KT 00/M02 A3002 RMK AO1 SLP174 T00001022 10061 21006 51024EQDR01      7SKY009R02      7GAS009
0145724077547792024011206547+41009-074736FM-15+0178K12N V0209999C000059999999N9999997N5-00065-00335101865ADDMA1101795099675REMMET08301/12/24 01:54:01 METAR K12N 120654Z 00000KT M01/M03 A3006 RMK AO1 SLP186 T10061033EQDR01      7SKY009R02      7GAS009
0145724077547792024011207547+41009-074736FM-15+0178K12N V0209999C000059999999N9999997N5-00115-00335102005ADDMA1101935099805REMMET08301/12/24 02:54:01 METAR K12N 120754Z 00000KT M01/M03 A3010 RMK AO1 SLP200 T10111033EQDR01      7SKY009R02      7GAS009
0165724077547792024011208547+41009-074736FM-15+0178K12N V0209999C000059999999N9999997N5-00115-00285102025ADDMA1101935099805MD1190299+9999REMMET08901/12/24 03:54:01 METAR K12N 120854Z 00000KT M01/M03 A3010 RMK AO1 SLP202 T10111028 51029EQDR01      7SKY009R02      7GAS009
0145724077547792024011209547+41009-074736FM-15+0178K12N V0209999C000059999999N9999997N5-00175-00335102015ADDMA1101935099805REMMET08301/12/24 04:54:01 METAR K12N 120954Z 00000KT M02/M03 A3010 RMK AO1 SLP201 T10171033EQDR01      7SKY009R02      7GAS009
0152724077547792024011210547+41009-074736FM-15+0178K12N V0202005N001559999999N9999997N5-00175-00335102165ADDMA1102075099935REMMET09001/12/24 05:54:02 METAR K12N 121054Z 20003KT M02/M03 A3014 RMK AO1 PRESRR SLP216 T10171033EQDR01      7SKY009R02      7GAS009
0203724077547792024011211547+41009-074736FM-15+0178K12N V0209999C000059999999N9999997N5-00285-00395102205ADDKA1060M+00001KA2060N-00281MA1102105099965MD1390179+9999REMMET10101/12/24 06:54:02 METAR K12N 121154Z 00000KT M03/M04 A3015 RMK AO1 SLP220 T10281039 10000 21028 53017EQDR01      7SKY009R02      7GAS009
0145724077547792024011212547+41009-074736FM-15+0178K12N V0209999C000059999999N9999997N5-00285-00445102215ADDMA1102135100005REMMET08301/12/24 07:54:02 METAR K12N 121254Z 00000KT M03/M04 A3016 RMK AO1 SLP221 T10281044EQDR01      7SKY009R02      7GAS009
0145724077547792024011213547+41009-074736FM-15+0178K12N V0200405N001559999999N9999997N5-00065-00225102285ADDMA1102205100065REMMET08301/12/24 08:54:02 METAR K12N 121354Z 04003KT M01/M02 A3018 RMK AO1 SLP228 T10061022EQDR01      7SKY009R02      7GAS009
0164724077547792024011214547+41009-074736FM-15+0178K12N V0209999C000059999999N9999997N5+00335-00175102325ADDMA1102245100105MD1390149+9999REMMET08801/12/24 09:54:02 METAR K12N 121454Z 00000KT 03/M02 A3019 RMK AO1 SLP232 T00331017 53014EQDR01      7SKY009R02      7GAS009
0144724077547792024011215547+41009-074736FM-15+0178K12N V0209999C000059999999N9999997N5+00565-00175102355ADDMA1102275100135REMMET08201/12/24 10:54:02 METAR K12N 121554Z 00000KT 06/M02 A3020 RMK AO1 SLP235 T00561017EQDR01      7SKY009R02      7GAS009
0144724077547792024011216547+41009-074736FM-15+0178K12N V0209999V001559999999N9999997N5+00615-00285102245ADDMA1102175100035REMMET08201/12/24 11:54:02 METAR K12N 121654Z VRB03KT 06/M03 A3017 RMK AO1 SLP224 T00611028EQDR01      7SKY009R02      7GAS009
0189724077547792024011217547+41009-074736FM-15+0178K12N V0209999N999999999999N9999997N5+00725-00335102035ADDKA1060M+00781MA1101965099835MD1890289+9999REMMET10001/12/24 12:54:02 METAR K12N 121754Z      KT 07/M03 A3011 RMK AO1 SLP203 T00721033 10078 21028 58028EQDR01      7SKY009R02      7GAS009
0144724077547792024011218547+41009-074736FM-15+0178K12N V0209999N999999999999N9999997N5+00785-00395101935ADDMA1101865099735REMMET08201/12/24 13:54:02 METAR K12N 121854Z      KT 08/M04 A3008 RMK AO1 SLP193 T00781039EQDR01      7SKY009R02      7GAS009
0144724077547792024011219547+41009-074736FM-15+0178K12N V0209999N999999999999N9999997N5+00725-00335101885ADDMA1101795099675REMMET08201/12/24 14:54:02 METAR K12N 121954Z      KT 07/M03 A3006 RMK AO1 SLP188 T00721033EQDR01      7SKY009R02      7GAS009
0164724077547792024011220547+41009-074736FM-15+0178K12N V0209999N999999999999N9999997N5+00675-00395101815ADDMA1101735099605MD1690229+9999REMMET08801/12/24 15:54:02 METAR K12N 122054Z      KT 07/M04 A3004 RMK AO1 SLP181 T00671039 56022EQDR01      7SKY009R02      7GAS009
0144724077547792024011221547+41009-074736FM-15+0178K12N V0201605V004159999999N9999997N5+00565-00335101685ADDMA1101595099475REMMET08201/12/24 16:54:02 METAR K12N 122154Z 16008KT 06/M03 A3000 RMK AO1 SLP168 T00561033EQDR01      7SKY009R02      7GAS009
0144724077547792024011222547+41009-074736FM-15+0178K12N V0209999V003159999999N9999997N5+00445-00065101585ADDMA1101495099375REMMET08201/12/24 17:54:02 METAR K12N 122254Z VRB06KT 04/M01 A2997 RMK AO1 SLP158 T00441006EQDR01      7SKY009R02      7GAS009
0201724077547792024011223547+41009-074736FM-15+0178K12N V0201405V003659999999N9999997N5+00505+00065101455ADDKA1060M+00781KA2060N+00441MA1101355099235MD1790389+9999REMMET09901/12/24 18:54:02 METAR K12N 122354Z 14007KT 05/01 A2993 RMK AO1 SLP145 T00500006 10078 20044 57038EQDR01      7SKY009R02      7GAS009
0143724077547792024011300547+41009-074736FM-15+0178K12N V0209999V001559999999N9999997N5+00505+00065101165ADDMA1101085098975REMMET08101/12/24 19:54:01 METAR K12N 130054Z VRB03KT 05/01 A2985 RMK AO1 SLP116 T00500006EQDR01      7SKY009R02      7GAS009
0143724077547792024011301547+41009-074736FM-15+0178K12N V0209999C000059999999N9999997N5+00565+00115101205ADDMA1101125099005REMMET08101/12/24 20:54:01 METAR K12N 130154Z 00000KT 06/01 A2986 RMK AO1 SLP120 T00560011EQDR01      7SKY009R02      7GAS009
0163724077547792024011302547+41009-074736FM-15+0178K12N V0209999C000059999999N9999997N5+00565+00225100925ADDMA1100855098735MD1690499+9999REMMET08701/12/24 21:54:01 METAR K12N 130254Z 00000KT 06/02 A2978 RMK AO1 SLP092 T00560022 56049EQDR01      7SKY009R02      7GAS009
0160724077547792024011303547+41009-074736FM-15+0178K12N V0209999V002659999999N9999997N5+00505+00285100645ADDAA101001395MA1100585098475REMMET08701/12/24 22:54:01 METAR K12N 130354Z VRB05KT 05/03 A2970 RMK AO1 SLP064 P0005 T00500028EQDR01      7SKY009R02      7GAS009
0196724077547792024011304547+41009-074736FM-15+0178K12N V0209999N999999999999N9999997N5+00565+00335100335ADDAA101003395KA1240M+00781KA2240N-00281MA1100305098205REMMET09701/12/24 23:54:02 METAR K12N 130454Z      KT 06/03 A2962 RMK AO1 SLP033 P0013 T00560033 400781028EQDR01      7SKY009R02      7GAS009
0192724077547792024011307547+41009-074736FM-15+0178K12N V0209999N999999999999N9999997N5+01005+00835099445ADDAA101001395MA1099425097345OD149901541160REMMET10501/13/24 02:54:02 METAR K12N 130754Z      KT 10/08 A2936 RMK AO1 PK WND 16030/0738 SLP944 P0005 T01000083EQDR01      7SKY009R02      7GAS009
0204724077547792024011308547+41009-074736FM-15+0178K12N V0201705V004159999999N9999997N5+01065+00835099225ADDAA101001095AA203006491MA1099195097105OC101085REMMET09601/13/24 03:54:02 METAR K12N 130854Z 17008G21KT 11/08 A2929 RMK AO1 SLP922 P0004 60025 T01060083EQDQ01  00638PRCP03R01      7SKY009R02      7GAS009
0160724077547792024011309547+41009-074736FM-15+0178K12N V0201805V003659999999N9999997N5+01065+00895099045ADDAA101000595MA1099025096945REMMET08701/13/24 04:54:02 METAR K12N 130954Z 18007KT 11/09 A2924 RMK AO1 SLP904 P0002 T01060089EQDR01      7SKY009R02      7GAS009
0160724077547792024011310547+41009-074736FM-15+0178K12N V0201705N002659999999N9999997N5+01175+01005098945ADDAA101000595MA1098925096845REMMET08701/13/24 05:54:02 METAR K12N 131054Z 17005KT 12/10 A2921 RMK AO1 SLP894 P0002 T01170100EQDR01      7SKY009R02      7GAS009
0284724077547792024011311547+41009-074736FM-15+0178K12N V0201905N002659999999N9999997N5+01175+01115098855ADDAA101000895AA206008191AA324016091KA1060M+01221KA2060N+00781MA1098815096745MD1690389+9999REMMET11701/13/24 06:54:02 METAR K12N 131154Z 19005KT 12/11 A2918 RMK AO1 SLP885 P0003 60032 70063 T01170111 10122 20078 56038EQDQ01  00818PRCP06Q02  01608PRCP24R01      7SKY009R02      7GAS009
0160724077547792024011312547+41009-074736FM-15+0178K12N V0209999V003159999999N9999997N5+01225+01115098796ADDAA101000895MA1098786096706REMMET08701/13/24 07:54:02 METAR K12N 131254Z VRB06KT 12/11 A2917 RMK AO1 SLP879 P0003 T01220111EQDR01      7SKY009R02      7GAS009
0143724077547792024011313547+41009-074736FM-15+0178K12N V0202005N002659999999N9999997N5+01225+01005098846ADDMA1098816096746REMMET08101/13/24 08:54:02 METAR K12N 131354Z 20005KT 12/10 A2918 RMK AO1 SLP884 T01220100EQDR01      7SKY009R02      7GAS009
0207724077547792024011314547+41009-074736FM-15+0178K12N V0202205V003659999999N9999997N5+01115+00785098955ADDAA103000891MA1098925096845MD1390119+9999OC100985REMMET09601/13/24 09:54:02 METAR K12N 131454Z 22007G19KT 11/08 A2921 RMK AO1 SLP895 60003 T01110078 53011EQDQ01  00078PRCP03R01      7SKY009R02      7GAS009
0154724077547792024011315547+41009-074736FM-15+0178K12N V0202205N004659999999N9999997N5+01065+00615098935ADDMA1098925096845OC100935REMMET08401/13/24 10:54:02 METAR K12N 131554Z 22009G18KT 11/06 A2921 RMK AO1 SLP893 T01060061EQDR01      7SKY009R02      7GAS009
0154724077547792024011316547+41009-074736FM-15+0178K12N V0202105V004159999999N9999997N5+00835+00285098985ADDMA1098955096875OC100885REMMET08401/13/24 11:54:02 METAR K12N 131654Z 21008G17KT 08/03 A2922 RMK AO1 SLP898 T00830028EQDR01      7SKY009R02      7GAS009
0234724077547792024011317547+41009-074736FM-15+0178K12N V0209999V003159999999N9999997N5+00675+00005099065ADDAA106000891KA1060M+01221KA2060N+00671MA1099025096945MD1390109+9999REMMET10501/13/24 12:54:02 METAR K12N 131754Z VRB06KT 07/00 A2924 RMK AO1 SLP906 60003 T00670000 10122 20067 53010EQDQ01  00078PRCP06R01      7SKY009R02      7GAS009
0155724077547792024011318547+41009-074736FM-15+0178K12N V0202205N004159999999N9999997N5+00725-00285099125ADDMA1099095097005OC100885REMMET08501/13/24 13:54:02 METAR K12N 131854Z 22008G17KT 07/M03 A2926 RMK AO1 SLP912 T00721028EQDR01      7SKY009R02      7GAS009
0155724077547792024011319547+41009-074736FM-15+0178K12N V0202705V005159999999N9999997N5+00675-00505099315ADDMA1099295097205OC101245REMMET08501/13/24 14:54:02 METAR K12N 131954Z 27010G24KT 07/M05 A2932 RMK AO1 SLP931 T00671050EQDR01      7SKY009R02      7GAS009
0193724077547792024011320547+41009-074736FM-15+0178K12N V0202205V006259999999N9999997N5+00565-00565099515ADDMA1099495097405MD1390449+9999OC101245REMMET10901/13/24 15:54:02 METAR K12N 132054Z 22012G24KT 06/M06 A2938 RMK AO1 PK WND 23027/2044 SLP951 T00561056 53044EQDR01      7SKY009R02      7GAS009
0155724077547792024011321547+41009-074736FM-15+0178K12N V0202705V005159999999N9999997N5+00445-00615099705ADDMA1099665097575OC100935REMMET08501/13/24 16:54:02 METAR K12N 132154Z 27010G18KT 04/M06 A2943 RMK AO1 SLP970 T00441061EQDR01      7SKY009R02      7GAS009
0180724077547792024011322547+41009-074736FM-15+0178K12N V0202305V005159999999N9999997N5+00335-00785099905ADDMA1099865097775OC101295REMMET11001/13/24 17:54:02 METAR K12N 132254Z 23010G25KT 03/M08 A2949 RMK AO1 PK WND 25027/2243 PRESRR SLP990 T00331078EQDR01      7SKY009R02      7GAS009
0231724077547792024011323547+41009-074736FM-15+0178K12N V0202605V005759999999N9999997N5+00225-00895100075ADDKA1060M+00721KA2060N+00221MA1100035097935MD1190559+9999OC101445REMMET12101/13/24 18:54:02 METAR K12N 132354Z 26011G28KT 02/M09 A2954 RMK AO1 PK WND 21028/2351 SLP007 T00221089 10072 20022 51055EQDR01      7SKY009R02      7GAS009
0155724077547792024011400547+41009-074736FM-15+0178K12N V0209999V003159999999N9999997N5+00115-00945100255ADDMA1100205098105OC101035REMMET08501/13/24 19:54:01 METAR K12N 140054Z VRB06G20KT 01/M09 A2959 RMK AO1 SLP025 T00111094EQDR01      7SKY009R02      7GAS009
0187724077547792024011401547+41009-074736FM-15+0178K12N V0209999V002659999999N9999997N5+00065-00945100385ADDMA1100345098235OC101035OD149901541240REMMET10301/13/24 20:54:01 METAR K12N 140154Z VRB05G20KT 01/M09 A2963 RMK AO1 PK WND 24030/0112 SLP038 T00061094EQDR01      7SKY009R02      7GAS009
0164724077547792024011402547+41009-074736FM-15+0178K12N V0209999V003159999999N9999997N5+00065-00895100495ADDMA1100445098335MD1190409+9999REMMET08801/13/24 21:54:01 METAR K12N 140254Z VRB06KT 01/M09 A2966 RMK AO1 SLP049 T00061089 51040EQDR01      7SKY009R02      7GAS009
0144724077547792024011403547+41009-074736FM-15+0178K12N V0202405V004159999999N9999997N5+00005-00835100615ADDMA1100545098435REMMET08201/13/24 22:54:02 METAR K12N 140354Z 24008KT 00/M08 A2969 RMK AO1 SLP061 T00001083EQDR01      7SKY009R02      7GAS009
0191724077547792024011404547+41009-074736FM-15+0178K12N V0202105V004159999999N9999997N5+00005-00945100695ADDKA1240M+01221KA2240N+00001MA1100615098505OC101035REMMET09501/13/24 23:54:02 METAR K12N 140454Z 21008G20KT 00/M09 A2971 RMK AO1 SLP069 T00001094 401220000EQDR01      7SKY009R02      7GAS009
0200724077547792024011405547+41009-074736FM-15+0178K12N V0209999N999999999999N9999997N5+00005-00945100825ADDAA101000095KA1060M+00221MA1100755098635MD1390299+9999REMMET10001/14/24 00:54:02 METAR K12N 140554Z      KT 00/M09 A2975 RMK AO1 SLP082 T00001094 10022 20000 53029EQDR01      7SKY009R02      7GAS009
0167724077547792024011406547+41009-074736FM-15+0178K12N V0202205V003659999999N9999997N5-00065-00895100925ADDAA101000095MA1100855098735OC100825REMMET08601/14/24 01:54:02 METAR K12N 140654Z 22007G16KT M01/M09 A2978 RMK AO1 SLP092 T10061089EQDR01      7SKY009R02      7GAS009
0156724077547792024011407547+41009-074736FM-15+0178K12N V0202205N002159999999N9999997N5-00065-00945100975ADDAA101000095MA1100885098775REMMET08301/14/24 02:54:02 METAR K12N 140754Z 22004KT M01/M09 A2979 RMK AO1 SLP097 T10061094EQDR01      7SKY009R02      7GAS009
0176724077547792024011408547+41009-074736FM-15+0178K12N V0202205N003159999999N9999997N5-00065-00895100995ADDAA101000095MA1100915098805MD1190179+9999REMMET08901/14/24 03:54:02 METAR K12N 140854Z 22006KT M01/M09 A2980 RMK AO1 SLP099 T10061089 51017EQDR01      7SKY009R02      7GAS009
0156724077547792024011409547+41009-074736FM-15+0178K12N V0202105N003159999999N9999997N5-00115-00835101005ADDAA101000095MA1100915098805REMMET08301/14/24 04:54:02 METAR K12N 140954Z 21006KT M01/M08 A2980 RMK AO1 SLP100 T10111083EQDR01      7SKY009R02      7GAS009
0156724077547792024011410547+41009-074736FM-15+0178K12N V0209999V002659999999N9999997N5-00115-00785101035ADDAA101000095MA1100955098835REMMET08301/14/24 05:54:02 METAR K12N 141054Z VRB05KT M01/M08 A2981 RMK AO1 SLP103 T10111078EQDR01      7SKY009R02      7GAS009
0231724077547792024011411547+41009-074736FM-15+0178K12N V0202005N003159999999N9999997N5-00115-00785101025ADDAA101000095AA224000891KA1060M+00001KA2060N-00171MA1100915098805MD1090019+9999REMMET10701/14/24 06:54:02 METAR K12N 141154Z 20006KT M01/M08 A2980 RMK AO1 SLP102 70003 T10111078 10000 21017 50001EQDR01      7SKY009R02      7GAS009
0156724077547792024011412547+41009-074736FM-15+0178K12N V0201705N002159999999N9999997N5-00175-00785101025ADDAA101000095MA1100915098805REMMET08301/14/24 07:54:02 METAR K12N 141254Z 17004KT M02/M08 A2980 RMK AO1 SLP102 T10171078EQDR01      7SKY009R02      7GAS009
0167724077547792024011413547+41009-074736FM-15+0178K12N V0202005N004659999999N9999997N5-00065-00725101035ADDAA101000095MA1100915098805OC100935REMMET08601/14/24 08:54:02 METAR K12N 141354Z 20009G18KT M01/M07 A2980 RMK AO1 SLP103 T10061072EQDR01      7SKY009R02      7GAS009
0186724077547792024011414547+41009-074736FM-15+0178K12N V0202005N006259999999N9999997N5+00065-00725100965ADDAA101000095MA1100885098775MD1890069+9999OC100985REMMET09101/14/24 09:54:02 METAR K12N 141454Z 20012G19KT 01/M07 A2979 RMK AO1 SLP096 T00061072 58006EQDR01      7SKY009R02      7GAS009
0155724077547792024011415547+41009-074736FM-15+0178K12N V0202105V004659999999N9999997N5+00175-00675100865ADDAA101000095MA1100785098675REMMET08201/14/24 10:54:02 METAR K12N 141554Z 21009KT 02/M07 A2976 RMK AO1 SLP086 T00171067EQDR01      7SKY009R02      7GAS009
0198724077547792024011416547+41009-074736FM-15+0178K12N V0202205N005159999999N9999997N5+00115-00445100865ADDAA101000095MA1100785098675OC101085OD149901441200REMMET10301/14/24 11:54:02 METAR K12N 141654Z 22010G21KT 01/M04 A2976 RMK AO1 PK WND 20028/1643 SLP086 T00111044EQDR01      7SKY009R02      7GAS009
