0354724074937802025010100447+39941-074841FM-16+0016KVAY V0200905N00265021345MN0160935N5+00895+00725999999ADDAA101000531AU147000015AU210020015AW1121AW2615GA1025+012195999GA2075+021345999GA3085+027435999GD11991+0121959GD23991+0213459GD34991+0274359GE19AGL   +99999+99999GF199999999999012191999999MA1100175099985MV1015MW1615REMMET12912/31/24 19:44:03 SPECI KVAY 010044Z 09005KT 10SM VCTS -RA FEW040 BKN070 OVC090 09/07 A2958 RMK AO2 LTG DSNT S-NW P0002 T00890072
0319724074937802025010100547+39941-074841FM-15+0016KVAY V0200805N00315021345MN0160935N5+00895+00725100105ADDAA101000595GA1025+013415999GA2045+016765999GA3075+021345999GD11991+0134159GD22991+0167659GD33991+0213459GE19AGL   +99999+99999GF199999999999013411999999MA1100105099915REMMET14012/31/24 19:54:03 METAR KVAY 010054Z 08006KT 10SM FEW044 SCT055 BKN070 09/07 A2956 RMK AO2 LTG DSNT S-NW RAE47 PRESFR SLP010 P0002 T00890072
0337724074937802025010101207+39941-074841FM-16+0016KVAY V0201105N00415011895MN0160935N5+00945+00785999999ADDAA101000731AU147000015AW1121GA1025+009455999GA2075+011895999GA3075+015245999GD11991+0094559GD23991+0118959GD33991+0152459GE19AGL   +99999+99999GF199999999999009451999999MA1100075099885MV1015REMMET13512/31/24 20:20:03 SPECI KVAY 010120Z 11008KT 10SM VCTS FEW031 BKN039 BKN050 09/08 A2955 RMK AO2 LTG DSNT ALQDS RAB00E18 P0003 T00940078
0350724074937802025010101407+39941-074841FM-16+0016KVAY V0201005N00415014945MN0160935N5+00945+00835999999ADDAA101001031AU110020015AW1615GA1025+009455999GA2075+014945999GA3085+028965999GD11991+0094559GD23991+0149459GD34991+0289659GE19AGL   +99999+99999GF199999999999009451999999MA1100005099815MW1615OC100885REMMET14012/31/24 20:40:03 SPECI KVAY 010140Z 10008G17KT 10SM -RA FEW031 BKN049 OVC095 09/08 A2953 RMK AO2 LTG DSNT ALQDS RAB00E18B21 P0004 T00940083
0353724074937802025010101547+39941-074841FM-15+0016KVAY V0209999V00315012805MN0160935N5+01005+00835100135ADDAA101001395AU110020015AW1615GA1025+003355999GA2075+012805999GA3085+021345999GD11991+0033559GD23991+0128059GD34991+0213459GE19AGL   +99999+99999GF199999999999003351999999MA1100145099955MW1615REMMET15112/31/24 20:54:03 METAR KVAY 010154Z VRB06KT 10SM -RA FEW011 BKN042 OVC070 10/08 A2957 RMK AO2 LTG DSNT ALQDS RAB00E18B21 PRESRR SLP013 P0004 T01000083
0356724074937802025010102027+39941-074841FM-16+0016KVAY V0201805N00315007325MN0080475N5+01005+00895999999ADDAA101000531AU120020015AU200001015AW1105AW2625GA1025+003055999GA2075+007325999GA3085+021345999GD11991+0030559GD23991+0073259GD34991+0213459GE19AGL   +99999+99999GF199999999999003051999999MA1100105099915MW1655OC100725REMMET12912/31/24 21:02:03 SPECI KVAY 010202Z 18006G14KT 5SM RA BR FEW010 BKN024 OVC070 10/09 A2956 RMK AO2 LTG DSNT ALQDS P0002 T01000089
0346724074937802025010102067+39941-074841FM-16+0016KVAY V0201605N00315009755MN0096565N5+01005+00895999999ADDAA101000531AU110020015AU200001015AW1105AW2615GA1025+002745999GA2075+009755999GA3085+021345999GD11991+0027459GD23991+0097559GD34991+0213459GE19AGL   +99999+99999GF199999999999002741999999MA1100075099885MW1615REMMET12712/31/24 21:06:03 SPECI KVAY 010206Z 16006KT 6SM -RA BR FEW009 BKN032 OVC070 10/09 A2955 RMK AO2 LTG DSNT ALQDS P0002 T01000089
0332724074937802025010102547+39941-074841FM-15+0016KVAY V0201705N002652200059N0160935N5+00945+00835099915ADDAA101000395AA203002091GA1025+022865999GA2045+033535999GD11991+0228659GD22991+0335359GE19AGL   +99999+99999GF104995999999022861999999MA1099935099745MD1690439+9999REMMET12412/31/24 21:54:03 METAR KVAY 010254Z 17005KT 10SM FEW075 SCT110 09/08 A2951 RMK AO2 RAE14 SLP991 P0002 60008 T00940083 56043EQDQ01  00208PRCP03D01      0ADE726
0185724074937802025010103547+39941-074841FM-15+0016KVAY V0202405N002652200059N0160935N5+00945+00725099945ADDAA101000095GA1005+999999999GD10991+9999999GF100991999999999999999999MA1099975099785REMMET09012/31/24 22:54:03 METAR KVAY 010354Z 24005KT 10SM CLR 09/07 A2952 RMK AO2 SLP994 T00940072
0221724074937802025010104547+39941-074841FM-15+0016KVAY V0202305N001552200059N0160935N5+00785+00675099845ADDAA101000095GA1005+999999999GD10991+9999999GF100991999999999999999999KA1240M+01391KA2240N-00171MA1099865099675REMMET10012/31/24 23:54:03 METAR KVAY 010454Z 23003KT 10SM CLR 08/07 A2949 RMK AO2 SLP984 T00780067 401391017
0922724074937802025010104596+39941-074841SOD  +0016KVAY V020999999999999999999999999999+99999+99999999999ADDAA124002395AT1AU03TS  5AT2AU16RA  5AT3AU13BR  5KA1240M+01395KA2240N-00165MG1100764099834OE11240102816014055OE22240062615014065OE33240017999999995REMSOD73024 HR PRECIPITATION (IN):0.09  24 HR MAX TEMP (F):57 24 HR MAX TEMP TIME (LST):1400 24 HR MIN TEMP (F):29 24 HR MIN TEMP TIME (LST):0811 AVERAGE STATION PRESSURE:29.755 MINIMUM SEA LEVEL PRESSURE:29.48 TIME OF OCCURRENCE:2359 PEAK WIND SPEED (MPH):23  PEAK WIND DIR (DEG):160 PEAK WIND TIME (LST):1405  FASTEST 2MIN SPEED (MPH):14 FASTEST 2MIN DIR (DEG):150 FASTEST 2MIN TIME (LST):1406 AVERAGE WIND SPEED (MPH):4.0  24 HR AVG TEMP (F):43 HEATING DEGREE DAYS:22  COOLING DEGREE DAYS:0   LATEST DAY MAX TEMP (0700-1900 LST):57  LATEST NIGHT MIN TEMP(1900-0800 LST):29 HOURLY INCREMENTAL PRECIPITATION VALUES (IN):.00 0.00 0.00 0.00 0.00 0.00 0.00 0.00 0.00 0.00 0.00 0.00 0.00 0.00 0.00 0.00 0.00 0.00 0.01 0.02 0.05 0.01 0.00 0.00EQDR01     N7GJS072R02     N7GKS075
1260724074937802025010104596+39941-074841SOM  +0016KVAY V020999999999999999999999999999+99999+99999999999ADDAB10097896AD10035191011999999996AE1155095025015AH1005003093000225AH2010004691111505AH3015005691111525AH4020006191111545AH5030007191112035AH6045009991111495AI1060011991111595AI2080013591112215AI3100014591112365AI4120015091112565AI5150016091113215AI6180016591113575KB1744N-03065KB2744M+07285KB3744A+02115KC1N9-01502399995KC2M9+01882999995KD1744H08955KD2744C00005KE1025005245005MH1102054102244MK1104841410385099631116285REMSOM796PCP MTOT:3.85 PCP GT 24HRS:1.38 DATE(S):10-11 DAYS W/PCP >=.01:15 DAYS W/PCP >=.10:9  DAYS W/ PCP >=.50:2 DAYS W/PCP >=1.00:1 MSDP AMTS W/DATE-TIME TAGS:MIN:5 0.12  30/0022 MIN:10 0.18  11/1150 MIN:15 0.22  11/1152 MIN:20 0.24  11/1154 MIN:30 0.28  11/1203 MIN:45 0.39  11/1149 MIN:60 0.47  11/1159 MIN:80 0.53  11/1221 MIN:100 0.57  11/1236 MIN:120 0.59  11/1256 MIN:150 0.63  11/1321 MIN:180 0.65  11/1357 AVG DLY MIN:26.5  AVG DLY MAX:45.1  AVG MLY TMP:35.8  MIN TMP:5  DATE(S):23 MAX TMP:66  DATE(S):29 DAYS MAX <=32:2 DAYS MAX >=90:0  DAYS MIN <=32:24 DAYS MIN  <=0:0  AVG STP:30.135 LWST SLP:29.42 DATE/TIME:111628 HGST SLP:30.96 DATE/TIME:141038 HDD MTH TOT:895 DEP NORM:-2553 SEASON(JUL 1-JUN 30):1618 DEP NORM:-25536 CDD MTH TOT:0 DEP NORM:-2553 SEASON(JAN 1-DEC 31):1183 DEP NORM:-25536EQDR01  3.857ABP070R02  1.387ADP081
0260724074937802025010105547+39941-074841FM-15+0016KVAY V0202405N003152200059N0160935N5+00785+00675099845ADDAA101000095AA206002091GA1005+999999999GD10991+9999999GF100991999999999999999999KA1060M+01001KA2060N+00781MA1099865099675MD1890079+9999REMMET11401/01/25 00:54:02 METAR KVAY 010554Z 24006KT 10SM CLR 08/07 A2949 RMK AO2 SLP984 60008 T00780067 10100 20078 58007
0211724074937802025010106097+39941-074841FM-16+0016KVAY V0202505N002652200059N0160935N5+00785+00675999999ADDGA1045+002135999GD12991+0021359GE19AGL   +99999+99999GF104995999999002131999999MA1099865099675REMMET08601/01/25 01:09:02 SPECI KVAY 010609Z 25005KT 10SM SCT007 08/07 A2949 RMK AO2 T00780067EQDD01      0ADE726
0192724074937802025010106187+39941-074841FM-16+0016KVAY V0202305N00365002135MN0160935N5+00785+00675999999ADDGA1075+002135999GD13991+0021359GE19AGL   +99999+99999GF199999999999002131999999MA1099905099715REMMET08601/01/25 01:18:02 SPECI KVAY 010618Z 23007KT 10SM BKN007 08/07 A2950 RMK AO2 T00780067
0191724074937802025010106367+39941-074841FM-16+0016KVAY V0202205N00265001525MN0128755N5+00785+00675999999ADDGA1085+001525999GD14991+0015259GE19AGL   +99999+99999GF199999999999001521999999MA1099935099745REMMET08501/01/25 01:36:02 SPECI KVAY 010636Z 22005KT 8SM OVC005 08/07 A2951 RMK AO2 T00780067
0209724074937802025010106547+39941-074841FM-15+0016KVAY V0202305N00265001525MN0128755N5+00785+00675099945ADDAA101000095GA1085+001525999GD14991+0015259GE19AGL   +99999+99999GF199999999999001521999999MA1099975099785REMMET09201/01/25 01:54:02 METAR KVAY 010654Z 23005KT 8SM OVC005 08/07 A2952 RMK AO2 SLP994 T00780067
0209724074937802025010107547+39941-074841FM-15+0016KVAY V0202505N00365001525MN0128755N5+00785+00675100005ADDAA101000095GA1085+001525999GD14991+0015259GE19AGL   +99999+99999GF199999999999001521999999MA1100005099815REMMET09201/01/25 02:54:02 METAR KVAY 010754Z 25007KT 8SM OVC005 08/07 A2953 RMK AO2 SLP000 T00780067
0191724074937802025010108167+39941-074841FM-16+0016KVAY V0202405N00315001225MN0112655N5+00785+00675999999ADDGA1085+001225999GD14991+0012259GE19AGL   +99999+99999GF199999999999001221999999MA1100005099815REMMET08501/01/25 03:16:02 SPECI KVAY 010816Z 24006KT 7SM OVC004 08/07 A2953 RMK AO2 T00780067
0249724074937802025010108547+39941-074841FM-15+0016KVAY V0202505N00365001225MN0096565N5+00785+00675100005ADDAA101000095AU100001015AW1105GA1085+001225999GD14991+0012259GE19AGL   +99999+99999GF199999999999001221999999MA1100005099815MD1190179+9999REMMET10101/01/25 03:54:02 METAR KVAY 010854Z 25007KT 6SM BR OVC004 08/07 A2953 RMK AO2 SLP000 T00780067 51017
0191724074937802025010109257+39941-074841FM-16+0016KVAY V0202505N00315001835MN0128755N5+00785+00675999999ADDGA1085+001835999GD14991+0018359GE19AGL   +99999+99999GF199999999999001831999999MA1100005099815REMMET08501/01/25 04:25:02 SPECI KVAY 010925Z 25006KT 8SM OVC006 08/07 A2953 RMK AO2 T00780067
0209724074937802025010109547+39941-074841FM-15+0016KVAY V0202405N00365001835MN0112655N5+00785+00675100015ADDAA101000095GA1085+001835999GD14991+0018359GE19AGL   +99999+99999GF199999999999001831999999MA1100035099845REMMET09201/01/25 04:54:02 METAR KVAY 010954Z 24007KT 7SM OVC006 08/07 A2954 RMK AO2 SLP001 T00780067
0209724074937802025010110547+39941-074841FM-15+0016KVAY V0202405N00265002135MN0112655N5+00785+00675100035ADDAA101000095GA1085+002135999GD14991+0021359GE19AGL   +99999+99999GF199999999999002131999999MA1100035099845REMMET09201/01/25 05:54:02 METAR KVAY 011054Z 24005KT 7SM OVC007 08/07 A2954 RMK AO2 SLP003 T00780067
0229724074937802025010111147+39941-074841FM-16+0016KVAY V0202405N00155022865MN0128755N5+00785+00675999999ADDGA1045+002135999GA2085+022865999GD12991+0021359GD24991+0228659GE19AGL   +99999+99999GF199999999999002131999999MA1100035099845REMMET09201/01/25 06:14:02 SPECI KVAY 011114Z 24003KT 8SM SCT007 OVC075 08/07 A2954 RMK AO2 T00780067
0303724074937802025010111547+39941-074841FM-15+0016KVAY V0202305N002152200059N0112655N5+00725+00615100065ADDAA101000095AA224002391GA1045+024385999GD12991+0243859GE19AGL   +99999+99999GF104995999999024381999999KA1060M+00781KA2060N+00671MA1100075099885MD1390069+9999REMMET11601/01/25 06:54:02 METAR KVAY 011154Z 23004KT 7SM SCT080 07/06 A2955 RMK AO2 SLP006 70009 T00720061 10078 20067 53006EQDD01      0ADE726
0248724074937802025010112547+39941-074841FM-15+0016KVAY V0202405N00415018295MN0160935N5+00785+00565100105ADDAA101000095GA1045+013115999GA2085+018295999GD12991+0131159GD24991+0182959GE19AGL   +99999+99999GF199999999999013111999999MA1100105099915REMMET10001/01/25 07:54:02 METAR KVAY 011254Z 24008KT 10SM SCT043 OVC060 08/06 A2956 RMK AO2 SLP010 T00780056
0221724074937802025010113547+39941-074841FM-15+0016KVAY V0202505N00465015245MN0160935N5+00835+00445100145ADDAA101000095GA1075+015245999GD13991+0152459GE19AGL   +99999+99999GF199999999999015241999999MA1100175099985OC101035REMMET09601/01/25 08:54:02 METAR KVAY 011354Z 25009G20KT 10SM BKN050 08/04 A2958 RMK AO2 SLP014 T00830044
0349724074937802025010114547+39941-074841FM-15+0016KVAY V0202705N00825015245MN0160935N5+00895+00285100245ADDAA101000095GA1025+008535999GA2075+015245999GA3085+024385999GD11991+0085359GD23991+0152459GD34991+0243859GE19AGL   +99999+99999GF199999999999008531999999MA1100245100055MD1390189+9999OC101395OD149901391280REMMET13401/01/25 09:54:02 METAR KVAY 011454Z 27016G27KT 10SM FEW028 BKN050 OVC080 09/03 A2960 RMK AO2 PK WND 28027/1453 SLP024 T00890028 53018
0272724074937802025010115547+39941-074841FM-15+0016KVAY V0202805N007752200059N0160935N5+00895+00005100285ADDAA101000095GA1025+014335999GD11991+0143359GE19AGL   +99999+99999GF102995999999014331999999MA1100305100115OC101495OD149901691290REMMET11401/01/25 10:54:02 METAR KVAY 011554Z 28015G29KT 10SM FEW047 09/00 A2962 RMK AO2 PK WND 29033/1531 SLP028 T00890000EQDD01      0ADE726
0253724074937802025010116547+39941-074841FM-15+0016KVAY V0202805N00675011285MN0160935N5+00835+00005100295ADDAA101000095GA1085+011285999GD14991+0112859GE19AGL   +99999+99999GF199999999999011281999999MA1100305100115OC101295OD149901591270REMMET11401/01/25 11:54:02 METAR KVAY 011654Z 28013G25KT 10SM OVC037 08/00 A2962 RMK AO2 PK WND 27031/1607 SLP029 T00830000
0350724074937802025010117547+39941-074841FM-15+0016KVAY V0203005N00935015245MN0160935N5+00835-00065100305ADDAA101000095GA1045+012505999GA2085+015245999GD12991+0125059GD24991+0152459GE19AGL   +99999+99999GF199999999999012501999999KA1060M+00941KA2060N+00671MA1100305100115MD1190069+9999OC101545OD149901591300REMMET14001/01/25 12:54:02 METAR KVAY 011754Z 30018G30KT 10SM SCT041 OVC050 08/M01 A2962 RMK AO2 PK WND 30031/1737 SLP030 T00831006 10094 20067 51006
0292724074937802025010118547+39941-074841FM-15+0016KVAY V0202705N00775021345MN0160935N5+00945-00175100365ADDAA101000095GA1045+014335999GA2075+021345999GD12991+0143359GD23991+0213459GE19AGL   +99999+99999GF199999999999014331999999MA1100375100185OC101855OD149901851270REMMET12201/01/25 13:54:02 METAR KVAY 011854Z 27015G36KT 10SM SCT047 BKN070 09/M02 A2964 RMK AO2 PK WND 27036/1848 SLP036 T00941017
0254724074937802025010119547+39941-074841FM-15+0016KVAY V0202705N00885014945MN0160935N5+00895-00225100525ADDAA101000095GA1085+014945999GD14991+0149459GE19AGL   +99999+99999GF199999999999014941999999MA1100545100355OC101495OD149902111250REMMET11501/01/25 14:54:02 METAR KVAY 011954Z 27017G29KT 10SM OVC049 09/M02 A2969 RMK AO2 PK WND 25041/1935 SLP052 T00891022
0274724074937802025010120547+39941-074841FM-15+0016KVAY V0202705N00775015245MN0160935N5+00835-00285100655ADDAA101000095GA1085+015245999GD14991+0152459GE19AGL   +99999+99999GF199999999999015241999999MA1100685100495MD1390359+9999OC101345OD149901641280REMMET12101/01/25 15:54:02 METAR KVAY 012054Z 27015G26KT 10SM OVC050 08/M03 A2973 RMK AO2 PK WND 28032/2013 SLP065 T00831028 53035
0254724074937802025010121547+39941-074841FM-15+0016KVAY V0202905N00725016765MN0160935N5+00785-00395100695ADDAA101000095GA1075+016765999GD13991+0167659GE19AGL   +99999+99999GF199999999999016761999999MA1100715100525OC101295OD149901591250REMMET11501/01/25 16:54:02 METAR KVAY 012154Z 29014G25KT 10SM BKN055 08/M04 A2974 RMK AO2 PK WND 25031/2122 SLP069 T00781039
0273724074937802025010122547+39941-074841FM-15+0016KVAY V0202605N007752200059N0160935N5+00675-00335100775ADDAA101000095GA1025+016765999GD11991+0167659GE19AGL   +99999+99999GF102995999999016761999999MA1100785100595OC101245OD149901591260REMMET11501/01/25 17:54:02 METAR KVAY 012254Z 26015G24KT 10SM FEW055 07/M03 A2976 RMK AO2 PK WND 26031/2221 SLP077 T00671033EQDD01      0ADE726
0331724074937802025010123547+39941-074841FM-15+0016KVAY V0202705N005752200059N0160935N5+00615-00395100885ADDAA101000095GA1045+018295999GD12991+0182959GE19AGL   +99999+99999GF104995999999018291999999KA1060M+01001KA2060N+00611MA1100885100695MD1390229+9999OC100985OD149901391270REMMET13301/01/25 18:54:02 METAR KVAY 012354Z 27011G19KT 10SM SCT060 06/M04 A2979 RMK AO2 PK WND 27027/2315 SLP088 T00611039 10100 20061 53022EQDD01      0ADE726
0215724074937802025010200547+39941-074841FM-15+0016KVAY V0202605N005752200059N0160935N5+00565-00395100975ADDAA101000095GA1005+999999999GD10991+9999999GF100991999999999999999999MA1100985100795OC101035REMMET11201/01/25 19:54:01 METAR KVAY 020054Z 26011G20KT 10SM CLR 06/M04 A2982 RMK AO2 PK WND 26027/0013 SLP097 T00561039
0197724074937802025010201547+39941-074841FM-15+0016KVAY V0202805N005152200059N0160935N5+00505-00395101035ADDAA101000095GA1005+999999999GD10991+9999999GF100991999999999999999999MA1101055100865OC101135REMMET09401/01/25 20:54:01 METAR KVAY 020154Z 28010G22KT 10SM CLR 05/M04 A2984 RMK AO2 SLP103 T00501039
0235724074937802025010202547+39941-074841FM-15+0016KVAY V0202705N004652200059N0160935N5+00505-00445101105ADDAA101000095GA1005+999999999GD10991+9999999GF100991999999999999999999MA1101125100935MD1190229+9999OC100985REMMET11801/01/25 21:54:01 METAR KVAY 020254Z 27009G19KT 10SM CLR 05/M04 A2986 RMK AO2 PK WND 29027/0221 SLP110 T00501044 51022
0197724074937802025010203547+39941-074841FM-15+0016KVAY V0202705N004652200059N0160935N5+00445-00395101135ADDAA101000095GA1005+999999999GD10991+9999999GF100991999999999999999999MA1101155100965OC100935REMMET09401/01/25 22:54:02 METAR KVAY 020354Z 27009G18KT 10SM CLR 04/M04 A2987 RMK AO2 SLP113 T00441039
0233724074937802025010204547+39941-074841FM-15+0016KVAY V0202705N005752200059N0160935N5+00445-00395101155ADDAA101000095GA1005+999999999GD10991+9999999GF100991999999999999999999KA1240M+01001KA2240N+00391MA1101155100965OC101035REMMET10401/01/25 23:54:02 METAR KVAY 020454Z 27011G20KT 10SM CLR 04/M04 A2987 RMK AO2 SLP115 T00441039 401000039
0898724074937802025010204596+39941-074841SOD  +0016KVAY V020999999999999999999999999999+99999+99999999999ADDAA124000095AT1AU13BR  5KA1240M+01005KA2240N+00395MG1100074099834OE11240210125014355OE22240107328014145OE33240055099999995REMSOD73024 HR PRECIPITATION (IN):0.00  24 HR MAX TEMP (F):50 24 HR MAX TEMP TIME (LST):1351 24 HR MIN TEMP (F):39 24 HR MIN TEMP TIME (LST):2359 AVERAGE STATION PRESSURE:29.550 MINIMUM SEA LEVEL PRESSURE:29.48 TIME OF OCCURRENCE:0059 PEAK WIND SPEED (MPH):47  PEAK WIND DIR (DEG):250 PEAK WIND TIME (LST):1435  FASTEST 2MIN SPEED (MPH):24 FASTEST 2MIN DIR (DEG):280 FASTEST 2MIN TIME (LST):1414 AVERAGE WIND SPEED (MPH):12.3 24 HR AVG TEMP (F):45 HEATING DEGREE DAYS:20  COOLING DEGREE DAYS:0   LATEST DAY MAX TEMP (0700-1900 LST):50  LATEST NIGHT MIN TEMP(1900-0800 LST):44 HOURLY INCREMENTAL PRECIPITATION VALUES (IN):.00 0.00 0.00 0.00 0.00 0.00 0.00 0.00 0.00 0.00 0.00 0.00 0.00 0.00 0.00 0.00 0.00 0.00 0.00 0.00 0.00 0.00 0.00 0.00EQDR01     N7GJS072R02     N7GKS075
0244724074937802025010205547+39941-074841FM-15+0016KVAY V0202505N004652200059N0160935N5+00395-00445101185ADDAA101000095GA1005+999999999GD10991+9999999GF100991999999999999999999KA1060M+00611KA2060N+00391MA1101195100995MD1390099+9999REMMET10901/02/25 00:54:02 METAR KVAY 020554Z 25009KT 10SM CLR 04/M04 A2988 RMK AO2 SLP118 T00391044 10061 20039 53009
0222724074937802025010206547+39941-074841FM-15+0016KVAY V0202705N00575018295MN0160935N5+00395-00395101255ADDAA101000095GA1085+018295999GD14991+0182959GE19AGL   +99999+99999GF199999999999018291999999MA1101255101065OC101295REMMET09701/02/25 01:54:02 METAR KVAY 020654Z 27011G25KT 10SM OVC060 04/M04 A2990 RMK AO2 SLP125 T00391039
0215724074937802025010207547+39941-074841FM-15+0016KVAY V0202805N008252200059N0160935N5+00335-00725101365ADDAA101000095GA1005+999999999GD10991+9999999GF100991999999999999999999MA1101395101205OC101395REMMET11201/02/25 02:54:02 METAR KVAY 020754Z 28016G27KT 10SM CLR 03/M07 A2994 RMK AO2 PK WND 27029/0714 SLP136 T00331072
0293724074937802025010208547+39941-074841FM-15+0016KVAY V0202705N006752200059N0160935N5+00285-00785101395ADDAA101000095GA1025+015245999GD11991+0152459GE19AGL   +99999+99999GF102995999999015241999999MA1101395101205MD1190209+9999OC101395OD149901691310REMMET12101/02/25 03:54:02 METAR KVAY 020854Z 27013G27KT 10SM FEW050 03/M08 A2994 RMK AO2 PK WND 31033/0802 SLP139 T00281078 51020EQDD01      0ADE726
0254724074937802025010209547+39941-074841FM-15+0016KVAY V0202705N00725016765MN0160935N5+00225-00725101475ADDAA101000095GA1085+016765999GD14991+0167659GE19AGL   +99999+99999GF199999999999016761999999MA1101465101265OC101185OD149901441260REMMET11501/02/25 04:54:02 METAR KVAY 020954Z 27014G23KT 10SM OVC055 02/M07 A2996 RMK AO2 PK WND 26028/0855 SLP147 T00221072
0230724074937802025010210547+39941-074841FM-15+0016KVAY V0202605N004652200059N0160935N5+00175-00725101505ADDAA101000095GA1045+014025999GD12991+0140259GE19AGL   +99999+99999GF104995999999014021999999MA1101495101305REMMET09401/02/25 05:54:02 METAR KVAY 021054Z 26009KT 10SM SCT046 02/M07 A2997 RMK AO2 SLP150 T00171072EQDD01      0ADE726
0255724074937802025010211547+39941-074841FM-15+0016KVAY V0202605N004152200059N0160935N5+00175-00725101545ADDAA101000095GA1005+999999999GD10991+9999999GF100991999999999999999999KA1060M+00391KA2060N+00171MA1101525101335MD1190149+9999OC100885REMMET11201/02/25 06:54:02 METAR KVAY 021154Z 26008G17KT 10SM CLR 02/M07 A2998 RMK AO2 SLP154 T00171072 10039 20017 51014
0222724074937802025010212547+39941-074841FM-15+0016KVAY V0202605N00515014635MN0160935N5+00175-00725101615ADDAA101000095GA1075+014635999GD13991+0146359GE19AGL   +99999+99999GF199999999999014631999999MA1101635101435OC100935REMMET09701/02/25 07:54:02 METAR KVAY 021254Z 26010G18KT 10SM BKN048 02/M07 A3001 RMK AO2 SLP161 T00171072
0241724074937802025010213547+39941-074841FM-15+0016KVAY V0202605N007252200059N0160935N5+00285-00725101715ADDAA101000095GA1025+014635999GD11991+0146359GE19AGL   +99999+99999GF102995999999014631999999MA1101735101535OC101085REMMET09701/02/25 08:54:02 METAR KVAY 021354Z 26014G21KT 10SM FEW048 03/M07 A3004 RMK AO2 SLP171 T00281072EQDD01      0ADE726
0235724074937802025010214547+39941-074841FM-15+0016KVAY V0202805N006252200059N0160935N5+00395-00725101765ADDAA101000095GA1005+999999999GD10991+9999999GF100991999999999999999999MA1101765101575MD1190239+9999OC101295REMMET11801/02/25 09:54:02 METAR KVAY 021454Z 28012G25KT 10SM CLR 04/M07 A3005 RMK AO2 PK WND 26028/1432 SLP176 T00391072 51023
0215724074937802025010215547+39941-074841FM-15+0016KVAY V0202905N007252200059N0160935N5+00445-00725101755ADDAA101000095GA1005+999999999GD10991+9999999GF100991999999999999999999MA1101765101575OC101545REMMET11201/02/25 10:54:02 METAR KVAY 021554Z 29014G30KT 10SM CLR 04/M07 A3005 RMK AO2 PK WND 29030/1546 SLP175 T00441072
0273724074937802025010216547+39941-074841FM-15+0016KVAY V0203005N006252200059N0160935N5+00565-00785101675ADDAA101000095GA1025+015245999GD11991+0152459GE19AGL   +99999+99999GF102995999999015241999999MA1101665101475OC101245OD149901591250REMMET11501/02/25 11:54:02 METAR KVAY 021654Z 30012G24KT 10SM FEW050 06/M08 A3002 RMK AO2 PK WND 25031/1609 SLP167 T00561078EQDD01      0ADE726
0331724074937802025010217547+39941-074841FM-15+0016KVAY V0202905N008252200059N0160935N5+00565-00835101615ADDAA101000095GA1025+016765999GD11991+0167659GE19AGL   +99999+99999GF102995999999016761999999KA1060M+00561KA2060N+00171MA1101635101435MD1890159+9999OC101445OD149901441270REMMET13301/02/25 12:54:02 METAR KVAY 021754Z 29016G28KT 10SM FEW055 06/M08 A3001 RMK AO2 PK WND 27028/1750 SLP161 T00561083 10056 20017 58015EQDD01      0ADE726
0254724074937802025010218547+39941-074841FM-15+0016KVAY V0202605N00825018295MN0160935N5+00505-00895101625ADDAA101000095GA1085+018295999GD14991+0182959GE19AGL   +99999+99999GF199999999999018291999999MA1101635101435OC101245OD149901541260REMMET11501/02/25 13:54:02 METAR KVAY 021854Z 26016G24KT 10SM OVC060 05/M09 A3001 RMK AO2 PK WND 26030/1805 SLP162 T00501089
0254724074937802025010219547+39941-074841FM-15+0016KVAY V0202805N00625018295MN0160935N5+00395-00945101675ADDAA101000095GA1085+018295999GD14991+0182959GE19AGL   +99999+99999GF199999999999018291999999MA1101665101475OC101395OD149901591280REMMET11501/02/25 14:54:02 METAR KVAY 021954Z 28012G27KT 10SM OVC060 04/M09 A3002 RMK AO2 PK WND 28031/1922 SLP167 T00391094
0293724074937802025010220547+39941-074841FM-15+0016KVAY V0202905N006752200059N0160935N5+00335-01065101665ADDAA101000095GA1025+018295999GD11991+0182959GE19AGL   +99999+99999GF102995999999018291999999MA1101665101475MD1090059+9999OC101135OD149901391300REMMET12101/02/25 15:54:02 METAR KVAY 022054Z 29013G22KT 10SM FEW060 03/M11 A3002 RMK AO2 PK WND 30027/2019 SLP166 T00331106 50005EQDD01      0ADE726
0215724074937802025010221547+39941-074841FM-15+0016KVAY V0202905N006752200059N0160935N5+00285-00895101725ADDAA101000095GA1005+999999999GD10991+9999999GF100991999999999999999999MA1101735101535OC101185REMMET11201/02/25 16:54:02 METAR KVAY 022154Z 29013G23KT 10SM CLR 03/M09 A3004 RMK AO2 PK WND 28026/2140 SLP172 T00281089
0215724074937802025010222547+39941-074841FM-15+0016KVAY V0202705N006252200059N0160935N5+00225-00945101775ADDAA101000095GA1005+999999999GD10991+9999999GF100991999999999999999999MA1101765101575OC101135REMMET11201/02/25 17:54:02 METAR KVAY 022254Z 27012G22KT 10SM CLR 02/M09 A3005 RMK AO2 PK WND 29027/2221 SLP177 T00221094
0273724074937802025010223547+39941-074841FM-15+0016KVAY V0202805N005752200059N0160935N5+00175-00945101815ADDAA101000095GA1005+999999999GD10991+9999999GF100991999999999999999999KA1060M+00561KA2060N+00171MA1101835101645MD1190159+9999OC101085REMMET13001/02/25 18:54:02 METAR KVAY 022354Z 28011G21KT 10SM CLR 02/M09 A3007 RMK AO2 PK WND 27028/2340 SLP181 T00171094 10056 20017 51015
0215724074937802025010300547+39941-074841FM-15+0016KVAY V0202705N005752200059N0160935N5+00115-00895101845ADDAA101000095GA1005+999999999GD10991+9999999GF100991999999999999999999MA1101835101645OC101345REMMET11201/02/25 19:54:01 METAR KVAY 030054Z 27011G26KT 10SM CLR 01/M09 A3007 RMK AO2 PK WND 27026/0048 SLP184 T00111089
0222724074937802025010301547+39941-074841FM-15+0016KVAY V0202805N00575018295MN0160935N5+00115-01005101835ADDAA101000095GA1075+018295999GD13991+0182959GE19AGL   +99999+99999GF199999999999018291999999MA1101835101645OC101185REMMET09701/02/25 20:54:01 METAR KVAY 030154Z 28011G23KT 10SM BKN060 01/M10 A3007 RMK AO2 SLP183 T00111100
0242724074937802025010302547+39941-074841FM-15+0016KVAY V0202605N00675018295MN0160935N5+00175-01115101825ADDAA101000095GA1075+018295999GD13991+0182959GE19AGL   +99999+99999GF199999999999018291999999MA1101835101645MD1090009+9999OC101035REMMET10301/02/25 21:54:01 METAR KVAY 030254Z 26013G20KT 10SM BKN060 02/M11 A3007 RMK AO2 SLP182 T00171111 50000
0222724074937802025010303547+39941-074841FM-15+0016KVAY V0202705N00575015245MN0160935N5+00175-00945101815ADDAA101000095GA1085+015245999GD14991+0152459GE19AGL   +99999+99999GF199999999999015241999999MA1101835101645OC100935REMMET09701/02/25 22:54:02 METAR KVAY 030354Z 27011G18KT 10SM OVC050 02/M09 A3007 RMK AO2 SLP181 T00171094
0290724074937802025010304547+39941-074841FM-15+0016KVAY V0202705N00575016765MN0160935N5+00115-01065101815ADDAA101000095GA1085+016765999GD14991+0167659GE19AGL   +99999+99999GF199999999999016761999999KA1240M+00561KA2240N+00111MA1101835101645OC101295OD149901541270REMMET12501/02/25 23:54:02 METAR KVAY 030454Z 27011G25KT 10SM OVC055 01/M11 A3007 RMK AO2 PK WND 27030/0433 SLP181 T00111106 400560011
0886724074937802025010304596+39941-074841SOD  +0016KVAY V020999999999999999999999999999+99999+99999999999ADDAA124000095KA1240M+00565KA2240N+00115MG1101344101154OE11240169931003025OE22240102827013085OE33240062699999995REMSOD73024 HR PRECIPITATION (IN):0.00  24 HR MAX TEMP (F):42 24 HR MAX TEMP TIME (LST):1300 24 HR MIN TEMP (F):34 24 HR MIN TEMP TIME (LST):2359 AVERAGE STATION PRESSURE:29.925 MINIMUM SEA LEVEL PRESSURE:29.87 TIME OF OCCURRENCE:0043 PEAK WIND SPEED (MPH):38  PEAK WIND DIR (DEG):310 PEAK WIND TIME (LST):0302  FASTEST 2MIN SPEED (MPH):23 FASTEST 2MIN DIR (DEG):270 FASTEST 2MIN TIME (LST):1308 AVERAGE WIND SPEED (MPH):14.0 24 HR AVG TEMP (F):38 HEATING DEGREE DAYS:27  COOLING DEGREE DAYS:0   LATEST DAY MAX TEMP (0700-1900 LST):42  LATEST NIGHT MIN TEMP(1900-0800 LST):35 HOURLY INCREMENTAL PRECIPITATION VALUES (IN):.00 0.00 0.00 0.00 0.00 0.00 0.00 0.00 0.00 0.00 0.00 0.00 0.00 0.00 0.00 0.00 0.00 0.00 0.00 0.00 0.00 0.00 0.00 0.00EQDR01     N7GJS072R02     N7GKS075
0312724074937802025010305547+39941-074841FM-15+0016KVAY V0202905N00515015245MN0160935N5+00115-01065101785ADDAA101000095GA1085+015245999GD14991+0152459GE19AGL   +99999+99999GF199999999999015241999999KA1060M+00171KA2060N+00111MA1101765101575MD1890049+9999OC100935OD149901641260REMMET13301/03/25 00:54:02 METAR KVAY 030554Z 29010G18KT 10SM OVC050 01/M11 A3005 RMK AO2 PK WND 26032/0509 SLP178 T00111106 10017 20011 58004
0222724074937802025010306547+39941-074841FM-15+0016KVAY V0202705N00415015245MN0160935N5+00065-01065101825ADDAA101000095GA1075+015245999GD13991+0152459GE19AGL   +99999+99999GF199999999999015241999999MA1101835101645OC100885REMMET09701/03/25 01:54:02 METAR KVAY 030654Z 27008G17KT 10SM BKN050 01/M11 A3007 RMK AO2 SLP182 T00061106
0254724074937802025010307547+39941-074841FM-15+0016KVAY V0202805N00725015245MN0160935N5+00065-01065101815ADDAA101000095GA1075+015245999GD13991+0152459GE19AGL   +99999+99999GF199999999999015241999999MA1101795101605OC101345OD149901331270REMMET11501/03/25 02:54:02 METAR KVAY 030754Z 28014G26KT 10SM BKN050 01/M11 A3006 RMK AO2 PK WND 27026/0740 SLP181 T00061106
0274724074937802025010308547+39941-074841FM-15+0016KVAY V0202805N00465015245MN0160935N5+00065-01005101805ADDAA101000095GA1085+015245999GD14991+0152459GE19AGL   +99999+99999GF199999999999015241999999MA1101795101605MD1090029+9999OC101085OD149901491260REMMET12101/03/25 03:54:02 METAR KVAY 030854Z 28009G21KT 10SM OVC050 01/M10 A3006 RMK AO2 PK WND 26029/0815 SLP180 T00061100 50002
0241724074937802025010309547+39941-074841FM-15+0016KVAY V0202705N005752200059N0160935N5+00005-01005101755ADDAA101000095GA1045+014335999GD12991+0143359GE19AGL   +99999+99999GF104995999999014331999999MA1101765101575OC100935REMMET09701/03/25 04:54:02 METAR KVAY 030954Z 27011G18KT 10SM SCT047 00/M10 A3005 RMK AO2 SLP175 T00001100EQDD01      0ADE726
0187724074937802025010310547+39941-074841FM-15+0016KVAY V0202605N003652200059N0160935N5-00065-01005101735ADDAA101000095GA1005+999999999GD10991+9999999GF100991999999999999999999MA1101735101535REMMET09201/03/25 05:54:02 METAR KVAY 031054Z 26007KT 10SM CLR M01/M10 A3004 RMK AO2 SLP173 T10061100
0245724074937802025010311547+39941-074841FM-15+0016KVAY V0202305N002652200059N0160935N5-00115-00945101725ADDAA101000095GA1005+999999999GD10991+9999999GF100991999999999999999999KA1060M+00111KA2060N-00111MA1101735101535MD1690089+9999REMMET11001/03/25 06:54:02 METAR KVAY 031154Z 23005KT 10SM CLR M01/M09 A3004 RMK AO2 SLP172 T10111094 10011 21011 56008
0187724074937802025010312547+39941-074841FM-15+0016KVAY V0202405N003152200059N0160935N5-00115-00895101675ADDAA101000095GA1005+999999999GD10991+9999999GF100991999999999999999999MA1101665101475REMMET09201/03/25 07:54:02 METAR KVAY 031254Z 24006KT 10SM CLR M01/M09 A3002 RMK AO2 SLP167 T10111089
0187724074937802025010313547+39941-074841FM-15+0016KVAY V0202505N004652200059N0160935N5-00065-00945101655ADDAA101000095GA1005+999999999GD10991+9999999GF100991999999999999999999MA1101665101475REMMET09201/03/25 08:54:02 METAR KVAY 031354Z 25009KT 10SM CLR M01/M09 A3002 RMK AO2 SLP165 T10061094
0207724074937802025010314547+39941-074841FM-15+0016KVAY V0202305N004652200059N0160935N5-00065-00895101645ADDAA101000095GA1005+999999999GD10991+9999999GF100991999999999999999999MA1101635101435MD1690079+9999REMMET09801/03/25 09:54:02 METAR KVAY 031454Z 23009KT 10SM CLR M01/M09 A3001 RMK AO2 SLP164 T10061089 56007
0197724074937802025010315547+39941-074841FM-15+0016KVAY V0202605N006252200059N0160935N5+00005-00945101525ADDAA101000095GA1005+999999999GD10991+9999999GF100991999999999999999999MA1101525101335OC100935REMMET09401/03/25 10:54:02 METAR KVAY 031554Z 26012G18KT 10SM CLR 00/M09 A2998 RMK AO2 SLP152 T00001094
0197724074937802025010316547+39941-074841FM-15+0016KVAY V0202505N005152200059N0160935N5+00065-01005101325ADDAA101000095GA1005+999999999GD10991+9999999GF100991999999999999999999MA1101325101135OC100885REMMET09401/03/25 11:54:02 METAR KVAY 031654Z 25010G17KT 10SM CLR 01/M10 A2992 RMK AO2 SLP132 T00061100
0299724074937802025010317547+39941-074841FM-15+0016KVAY V0202605V003652200059N0160935N5+00175-00835101195ADDAA101000095GA1025+033535999GD11991+0335359GE19AGL   +99999+99999GF102995999999033531999999KA1060M+00171KA2060N-00111MA1101195100995MD1890459+9999OC100725REMMET11501/03/25 12:54:02 METAR KVAY 031754Z 26007G14KT 10SM FEW110 02/M08 A2988 RMK AO2 SLP119 T00171083 10017 21011 58045EQDD01      0ADE726
0249724074937802025010318547+39941-074841FM-15+0016KVAY V0202705N00415013415MN0160935N5+00175-00785101065ADDAA101000095GA1075+013415999GA2075+015245999GD13991+0134159GD23991+0152459GE19AGL   +99999+99999GF199999999999013411999999MA1101055100865REMMET10101/03/25 13:54:02 METAR KVAY 031854Z 27008KT 10SM BKN044 BKN050 02/M08 A2984 RMK AO2 SLP106 T00171078
0211724074937802025010319547+39941-074841FM-15+0016KVAY V0202405N00315018295MN0160935N5+00225-00725101035ADDAA101000095GA1085+018295999GD14991+0182959GE19AGL   +99999+99999GF199999999999018291999999MA1101025100825REMMET09401/03/25 14:54:02 METAR KVAY 031954Z 24006KT 10SM OVC060 02/M07 A2983 RMK AO2 SLP103 T00221072
0269724074937802025010320547+39941-074841FM-15+0016KVAY V0202405V00415013415MN0160935N5+00175-00615101035ADDAA101000095GA1075+013415999GA2085+016765999GD13991+0134159GD24991+0167659GE19AGL   +99999+99999GF199999999999013411999999MA1101055100865MD1590169+9999REMMET10701/03/25 15:54:02 METAR KVAY 032054Z 24008KT 10SM BKN044 OVC055 02/M06 A2984 RMK AO2 SLP103 T00171061 55016
0249724074937802025010321547+39941-074841FM-15+0016KVAY V0202605N00315010065MN0064375N5+00065-00395101065ADDAA101000025AU110030015AW1715GA1085+010065999GD14991+0100659GE19AGL   +99999+99999GF199999999999010061999999MA1101055100865MW1715REMMET10901/03/25 16:54:02 METAR KVAY 032154Z 26006KT 4SM -SN OVC033 01/M04 A2984 RMK AO2 SNB44 SLP106 P0000 T00061039
0240724074937802025010322047+39941-074841FM-16+0016KVAY V0202705N00365008235MN0040235N5+00005-00335999999ADDAA101000021AU110030015AW1715GA1085+008235999GD14991+0082359GE19AGL   +99999+99999GF199999999999008231999999MA1101085100895MW1715REMMET10001/03/25 17:04:02 SPECI KVAY 032204Z 27007KT 2 1/2SM -SN OVC027 00/M03 A2985 RMK AO2 P0000 T00001033
0236724074937802025010322137+39941-074841FM-16+0016KVAY V0202705N00315007015MN0048285N5+00005-00285999999ADDAA101000021AU110030015AW1715GA1085+007015999GD14991+0070159GE19AGL   +99999+99999GF199999999999007011999999MA1101085100895MW1715REMMET09601/03/25 17:13:02 SPECI KVAY 032213Z 27006KT 3SM -SN OVC023 00/M03 A2985 RMK AO2 P0000 T00001028
0278724074937802025010322217+39941-074841FM-16+0016KVAY V0202805N00265007015MN0040235N5+00005-00285999999ADDAA101000021AU110030015AW1715GA1045+004885999GA2085+007015999GD12991+0048859GD24991+0070159GE19AGL   +99999+99999GF199999999999004881999999MA1101085100895MW1715REMMET10701/03/25 17:21:02 SPECI KVAY 032221Z 28005KT 2 1/2SM -SN SCT016 OVC023 00/M03 A2985 RMK AO2 P0000 T00001028
0294724074937802025010322447+39941-074841FM-16+0016KVAY V0202905N00215009145MN0048285N5+00005-00225999999ADDAA101000021AU110030015AU200001015AW1105AW2715GA1025+004275999GA2085+009145999GD11991+0042759GD24991+0091459GE19AGL   +99999+99999GF199999999999004271999999MA1101085100895MW1715REMMET10601/03/25 17:44:02 SPECI KVAY 032244Z 29004KT 3SM -SN BR FEW014 OVC030 00/M02 A2985 RMK AO2 P0000 T00001022
0263724074937802025010322547+39941-074841FM-15+0016KVAY V0202705N00315010365MN0096565N5+00005-00225101075ADDAA101000025AU110030015AU200001015AW1105AW2715GA1085+010365999GD14991+0103659GE19AGL   +99999+99999GF199999999999010361999999MA1101085100895MW1715REMMET10601/03/25 17:54:02 METAR KVAY 032254Z 27006KT 6SM -SN BR OVC034 00/M02 A2985 RMK AO2 SLP107 P0000 T00001022
0355724074937802025010323547+39941-074841FM-15+0016KVAY V0203405N00155018295MN0128755N5-00115-00285101045ADDAA101000025AA206000021GA1025+003965999GA2075+018295999GD11991+0039659GD23991+0182959GE19AGL   +99999+99999GF199999999999003961999999KA1060M+00221KA2060N-00111MA1101055100865MD1090009+9999REMMET13701/03/25 18:54:02 METAR KVAY 032354Z 34003KT 8SM FEW013 BKN060 M01/M03 A2984 RMK AO2 SNE26 SLP104 P0000 60000 T10111028 10022 21011 50000EQDQ01  00008PRCP06
0269724074937802025010400057+39941-074841FM-16+0016KVAY V0209999C00005003965MN0128755N5-00115-00225999999ADDGA1075+003965999GA2075+006105999GA3075+018295999GD13991+0039659GD23991+0061059GD33991+0182959GE19AGL   +99999+99999GF199999999999003961999999MA1101055100865REMMET10101/03/25 19:05:01 SPECI KVAY 040005Z 00000KT 8SM BKN013 BKN020 BKN060 M01/M02 A2984 RMK AO2 T10111022
0231724074937802025010400197+39941-074841FM-16+0016KVAY V0209999C00005005795MN0128755N5-00115-00225999999ADDGA1045+004275999GA2075+005795999GD12991+0042759GD23991+0057959GE19AGL   +99999+99999GF199999999999004271999999MA1101055100865REMMET09401/03/25 19:19:01 SPECI KVAY 040019Z 00000KT 8SM SCT014 BKN019 M01/M02 A2984 RMK AO2 T10111022
0250724074937802025010400327+39941-074841FM-16+0016KVAY V0209999C000052200059N0112655N5-00065-00225999999ADDGA1025+003665999GA2045+005795999GD11991+0036659GD22991+0057959GE19AGL   +99999+99999GF104995999999003661999999MA1101055100865REMMET09401/03/25 19:32:01 SPECI KVAY 040032Z 00000KT 7SM FEW012 SCT019 M01/M02 A2984 RMK AO2 T10061022EQDD01      0ADE726
0230724074937802025010400547+39941-074841FM-15+0016KVAY V0202705N001552200059N0112655N5-00065-00225101045ADDAA101000095GA1025+036585999GD11991+0365859GE19AGL   +99999+99999GF102995999999036581999999MA1101055100865REMMET09401/03/25 19:54:01 METAR KVAY 040054Z 27003KT 7SM FEW120 M01/M02 A2984 RMK AO2 SLP104 T10061022EQDD01      0ADE726
0211724074937802025010401547+39941-074841FM-15+0016KVAY V0202805N00265030485MN0144845N5-00115-00285101035ADDAA101000095GA1075+030485999GD13991+0304859GE19AGL   +99999+99999GF199999999999030481999999MA1101025100825REMMET09401/03/25 20:54:01 METAR KVAY 040154Z 28005KT 9SM BKN100 M01/M03 A2983 RMK AO2 SLP103 T10111028
0207724074937802025010402547+39941-074841FM-15+0016KVAY V0202905N002652200059N0160935N5-00115-00395101035ADDAA101000095GA1005+999999999GD10991+9999999GF100991999999999999999999MA1101025100825MD1890019+9999REMMET09801/03/25 21:54:01 METAR KVAY 040254Z 29005KT 10SM CLR M01/M04 A2983 RMK AO2 SLP103 T10111039 58001
0198724074937802025010403547+39941-074841FM-15+0016KVAY V0202905N003652200059N0160935N5-00115-00445101035ADDAA101000095GA1005+999999999GD10991+9999999GF100991999999999999999999MA1101025100825OC100885REMMET09501/03/25 22:54:02 METAR KVAY 040354Z 29007G17KT 10SM CLR M01/M04 A2983 RMK AO2 SLP103 T10111044
0234724074937802025010404547+39941-074841FM-15+0016KVAY V0202905N004652200059N0160935N5-00115-00565101025ADDAA101000095GA1005+999999999GD10991+9999999GF100991999999999999999999KA1240M+00221KA2240N-00171MA1101025100825OC101035REMMET10501/03/25 23:54:02 METAR KVAY 040454Z 29009G20KT 10SM CLR M01/M06 A2983 RMK AO2 SLP102 T10111056 400221017
0910724074937802025010404596+39941-074841SOD  +0016KVAY V020999999999999999999999999999+99999+99999999999ADDAA124000025AT1AU18SN  5AT2AU13BR  5KA1240M+00225KA2240N-00165MG1101224101024OE11240160926000095OE22240093927000105OE33240039399999995REMSOD73024 HR PRECIPITATION (IN):T     24 HR MAX TEMP (F):36 24 HR MAX TEMP TIME (LST):1549 24 HR MIN TEMP (F):29 24 HR MIN TEMP TIME (LST):1859 AVERAGE STATION PRESSURE:29.890 MINIMUM SEA LEVEL PRESSURE:29.83 TIME OF OCCURRENCE:2359 PEAK WIND SPEED (MPH):36  PEAK WIND DIR (DEG):260 PEAK WIND TIME (LST):0009  FASTEST 2MIN SPEED (MPH):21 FASTEST 2MIN DIR (DEG):270 FASTEST 2MIN TIME (LST):0010 AVERAGE WIND SPEED (MPH):8.8  24 HR AVG TEMP (F):33 HEATING DEGREE DAYS:32  COOLING DEGREE DAYS:0   LATEST DAY MAX TEMP (0700-1900 LST):36  LATEST NIGHT MIN TEMP(1900-0800 LST):30 HOURLY INCREMENTAL PRECIPITATION VALUES (IN):.00 0.00 0.00 0.00 0.00 0.00 0.00 0.00 0.00 0.00 0.00 0.00 0.00 0.00 0.00 0.00 T    T    T    0.00 0.00 0.00 0.00 0.00EQDR01     N7GJS072R02     N7GKS075
0256724074937802025010405547+39941-074841FM-15+0016KVAY V0202805N006252200059N0160935N5-00115-00785101035ADDAA101000095GA1005+999999999GD10991+9999999GF100991999999999999999999KA1060M-00061KA2060N-00171MA1101025100825MD1590009+9999OC100935REMMET11301/04/25 00:54:02 METAR KVAY 040554Z 28012G18KT 10SM CLR M01/M08 A2983 RMK AO2 SLP103 T10111078 11006 21017 55000
0242724074937802025010406547+39941-074841FM-15+0016KVAY V0202705N004152200059N0160935N5-00175-00835101065ADDAA101000095GA1025+015245999GD11991+0152459GE19AGL   +99999+99999GF102995999999015241999999MA1101055100865OC100985REMMET09801/04/25 01:54:02 METAR KVAY 040654Z 27008G19KT 10SM FEW050 M02/M08 A2984 RMK AO2 SLP106 T10171083EQDD01      0ADE726
0223724074937802025010407547+39941-074841FM-15+0016KVAY V0209999V00315018295MN0160935N5-00115-00945101125ADDAA101000095GA1085+018295999GD14991+0182959GE19AGL   +99999+99999GF199999999999018291999999MA1101125100935OC100775REMMET09801/04/25 02:54:02 METAR KVAY 040754Z VRB06G15KT 10SM OVC060 M01/M09 A2986 RMK AO2 SLP112 T10111094
0218724074937802025010408547+39941-074841FM-15+0016KVAY V0202805N005752200059N0160935N5-00115-01005101155ADDAA101000095GA1005+999999999GD10991+9999999GF100991999999999999999999MA1101155100965MD1190139+9999OC100885REMMET10101/04/25 03:54:02 METAR KVAY 040854Z 28011G17KT 10SM CLR M01/M10 A2987 RMK AO2 SLP115 T10111100 51013
0280724074937802025010409547+39941-074841FM-15+0016KVAY V0202805N004652200059N0160935N5-00115-01005101215ADDAA101000095GA1025+014635999GA2025+021345999GD11991+0146359GD21991+0213459GE19AGL   +99999+99999GF102995999999014631999999MA1101225101035OC101135REMMET10501/04/25 04:54:02 METAR KVAY 040954Z 28009G22KT 10SM FEW048 FEW070 M01/M10 A2989 RMK AO2 SLP121 T10111100EQDD01      0ADE726
0198724074937802025010410547+39941-074841FM-15+0016KVAY V0202905N004652200059N0160935N5-00175-01065101275ADDAA101000095GA1005+999999999GD10991+9999999GF100991999999999999999999MA1101295101095OC101035REMMET09501/04/25 05:54:02 METAR KVAY 041054Z 29009G20KT 10SM CLR M02/M11 A2991 RMK AO2 SLP127 T10171106
0274724074937802025010411547+39941-074841FM-15+0016KVAY V0202705N006752200059N0160935N5-00175-01065101325ADDAA101000095GA1005+999999999GD10991+9999999GF100991999999999999999999KA1060M-00111KA2060N-00171MA1101325101135MD1190179+9999OC101345REMMET13101/04/25 06:54:02 METAR KVAY 041154Z 27013G26KT 10SM CLR M02/M11 A2992 RMK AO2 PK WND 27026/1149 SLP132 T10171106 11011 21017 51017
0198724074937802025010412547+39941-074841FM-15+0016KVAY V0202805V005152200059N0160935N5-00175-01065101375ADDAA101000095GA1005+999999999GD10991+9999999GF100991999999999999999999MA1101395101205OC100935REMMET09501/04/25 07:54:02 METAR KVAY 041254Z 28010G18KT 10SM CLR M02/M11 A2994 RMK AO2 SLP137 T10171106
0216724074937802025010413547+39941-074841FM-15+0016KVAY V0202805N005752200059N0160935N5-00115-01285101445ADDAA101000095GA1005+999999999GD10991+9999999GF100991999999999999999999MA1101465101265OC101245REMMET11301/04/25 08:54:02 METAR KVAY 041354Z 28011G24KT 10SM CLR M01/M13 A2996 RMK AO2 PK WND 27029/1335 SLP144 T10111128
0294724074937802025010414547+39941-074841FM-15+0016KVAY V0202905N006752200059N0160935N5-00115-01335101515ADDAA101000095GA1025+016765999GD11991+0167659GE19AGL   +99999+99999GF102995999999016761999999MA1101495101305MD1390189+9999OC101605OD149901591280REMMET12201/04/25 09:54:02 METAR KVAY 041454Z 29013G31KT 10SM FEW055 M01/M13 A2997 RMK AO2 PK WND 28031/1447 SLP151 T10111133 53018EQDD01      0ADE726
0255724074937802025010415547+39941-074841FM-15+0016KVAY V0203005N00775016765MN0160935N5-00065-01395101525ADDAA101000095GA1075+016765999GD13991+0167659GE19AGL   +99999+99999GF199999999999016761999999MA1101525101335OC101395OD149901901260REMMET11601/04/25 10:54:02 METAR KVAY 041554Z 30015G27KT 10SM BKN055 M01/M14 A2998 RMK AO2 PK WND 26037/1541 SLP152 T10061139
0255724074937802025010416547+39941-074841FM-15+0016KVAY V0203005N00675018295MN0160935N5-00065-01395101455ADDAA101000095GA1085+018295999GD14991+0182959GE19AGL   +99999+99999GF199999999999018291999999MA1101465101265OC101395OD149901491290REMMET11601/04/25 11:54:02 METAR KVAY 041654Z 30013G27KT 10SM OVC060 M01/M14 A2996 RMK AO2 PK WND 29029/1601 SLP145 T10061139
0351724074937802025010417547+39941-074841FM-15+0016KVAY V0203005N00515018295MN0160935N5-00115-01225101415ADDAA101000095GA1045+014945999GA2075+018295999GD12991+0149459GD23991+0182959GE19AGL   +99999+99999GF199999999999014941999999KA1060M+00001KA2060N-00171MA1101425101235MD1890109+9999OC101245OD149901801270REMMET14101/04/25 12:54:02 METAR KVAY 041754Z 30010G24KT 10SM SCT049 BKN060 M01/M12 A2995 RMK AO2 PK WND 27035/1708 SLP141 T10111122 10000 21017 58010
0254724074937802025010418547+39941-074841FM-15+0016KVAY V0202805N00825016765MN0160935N5+00005-01285101415ADDAA101000095GA1085+016765999GD14991+0167659GE19AGL   +99999+99999GF199999999999016761999999MA1101425101235OC101605OD149901641290REMMET11501/04/25 13:54:02 METAR KVAY 041854Z 28016G31KT 10SM OVC055 00/M13 A2995 RMK AO2 PK WND 29032/1831 SLP141 T00001128
0255724074937802025010419547+39941-074841FM-15+0016KVAY V0202905N00675018295MN0160935N5-00065-01285101455ADDAA101000095GA1085+018295999GD14991+0182959GE19AGL   +99999+99999GF199999999999018291999999MA1101465101265OC101345OD149901641260REMMET11601/04/25 14:54:02 METAR KVAY 041954Z 29013G26KT 10SM OVC060 M01/M13 A2996 RMK AO2 PK WND 26032/1916 SLP145 T10061128
0275724074937802025010420547+39941-074841FM-15+0016KVAY V0203005V00575018295MN0160935N5-00115-01285101525ADDAA101000095GA1085+018295999GD14991+0182959GE19AGL   +99999+99999GF199999999999018291999999MA1101525101335MD1390119+9999OC101445OD149901441310REMMET12201/04/25 15:54:02 METAR KVAY 042054Z 30011G28KT 10SM OVC060 M01/M13 A2998 RMK AO2 PK WND 31028/2048 SLP152 T10111128 53011
0255724074937802025010421547+39941-074841FM-15+0016KVAY V0202805V00465019815MN0160935N5-00115-01395101585ADDAA101000095GA1085+019815999GD14991+0198159GE19AGL   +99999+99999GF199999999999019811999999MA1101595101405OC101135OD149901491290REMMET11601/04/25 16:54:02 METAR KVAY 042154Z 28009G22KT 10SM OVC065 M01/M14 A3000 RMK AO2 PK WND 29029/2119 SLP158 T10111139
0223724074937802025010422547+39941-074841FM-15+0016KVAY V0202905N00575019815MN0160935N5-00175-01395101645ADDAA101000095GA1075+019815999GD13991+0198159GE19AGL   +99999+99999GF199999999999019811999999MA1101665101475OC100935REMMET09801/04/25 17:54:02 METAR KVAY 042254Z 29011G18KT 10SM BKN065 M02/M14 A3002 RMK AO2 SLP164 T10171139
0281724074937802025010423547+39941-074841FM-15+0016KVAY V0202805N00515019815MN0160935N5-00175-01395101695ADDAA101000095GA1075+019815999GD13991+0198159GE19AGL   +99999+99999GF199999999999019811999999KA1060M+00001KA2060N-00171MA1101695101505MD1190179+9999OC100985REMMET11601/04/25 18:54:02 METAR KVAY 042354Z 28010G19KT 10SM BKN065 M02/M14 A3003 RMK AO2 SLP169 T10171139 10000 21017 51017
0223724074937802025010500547+39941-074841FM-15+0016KVAY V0202605N00625018295MN0160935N5-00225-01335101735ADDAA101000095GA1085+018295999GD14991+0182959GE19AGL   +99999+99999GF199999999999018291999999MA1101735101535OC100935REMMET09801/04/25 19:54:01 METAR KVAY 050054Z 26012G18KT 10SM OVC060 M02/M13 A3004 RMK AO2 SLP173 T10221133
0223724074937802025010501547+39941-074841FM-15+0016KVAY V0202805N00515016765MN0160935N5-00225-01335101755ADDAA101000095GA1075+016765999GD13991+0167659GE19AGL   +99999+99999GF199999999999016761999999MA1101765101575OC101085REMMET09801/04/25 20:54:01 METAR KVAY 050154Z 28010G21KT 10SM BKN055 M02/M13 A3005 RMK AO2 SLP175 T10221133
0294724074937802025010502547+39941-074841FM-15+0016KVAY V0202805N003652200059N0160935N5-00285-01505101825ADDAA101000095GA1025+015245999GD11991+0152459GE19AGL   +99999+99999GF102995999999015241999999MA1101835101645MD1390139+9999OC100935OD149901331260REMMET12201/04/25 21:54:01 METAR KVAY 050254Z 28007G18KT 10SM FEW050 M03/M15 A3007 RMK AO2 PK WND 26026/0205 SLP182 T10281150 53013EQDD01      0ADE726
0223724074937802025010503547+39941-074841FM-15+0016KVAY V0202805N00415016765MN0160935N5-00285-01505101875ADDAA101000095GA1085+016765999GD14991+0167659GE19AGL   +99999+99999GF199999999999016761999999MA1101865101675OC100985REMMET09801/04/25 22:54:02 METAR KVAY 050354Z 28008G19KT 10SM OVC055 M03/M15 A3008 RMK AO2 SLP187 T10281150
0291724074937802025010504547+39941-074841FM-15+0016KVAY V0202705N00415016765MN0160935N5-00285-01445101845ADDAA101000095GA1085+016765999GD14991+0167659GE19AGL   +99999+99999GF199999999999016761999999KA1240M+00001KA2240N-00281MA1101835101645OC101345OD149901331290REMMET12601/04/25 23:54:02 METAR KVAY 050454Z 27008G26KT 10SM OVC055 M03/M14 A3007 RMK AO2 PK WND 29026/0435 SLP184 T10281144 400001028
0886724074937802025010504596+39941-074841SOD  +0016KVAY V020999999999999999999999999999+99999+99999999999ADDAA124000095KA1240M+00005KA2240N-00275MG1101154101024OE11240192226010415OE22240111827013315OE33240054599999995REMSOD73024 HR PRECIPITATION (IN):0.00  24 HR MAX TEMP (F):32 24 HR MAX TEMP TIME (LST):1359 24 HR MIN TEMP (F):27 24 HR MIN TEMP TIME (LST):2359 AVERAGE STATION PRESSURE:29.870 MINIMUM SEA LEVEL PRESSURE:29.83 TIME OF OCCURRENCE:0126 PEAK WIND SPEED (MPH):43  PEAK WIND DIR (DEG):260 PEAK WIND TIME (LST):1041  FASTEST 2MIN SPEED (MPH):25 FASTEST 2MIN DIR (DEG):270 FASTEST 2MIN TIME (LST):1331 AVERAGE WIND SPEED (MPH):12.2 24 HR AVG TEMP (F):30 HEATING DEGREE DAYS:35  COOLING DEGREE DAYS:0   LATEST DAY MAX TEMP (0700-1900 LST):32  LATEST NIGHT MIN TEMP(1900-0800 LST):29 HOURLY INCREMENTAL PRECIPITATION VALUES (IN):.00 0.00 0.00 0.00 0.00 0.00 0.00 0.00 0.00 0.00 0.00 0.00 0.00 0.00 0.00 0.00 0.00 0.00 0.00 0.00 0.00 0.00 0.00 0.00EQDR01     N7GJS072R02     N7GKS075
0281724074937802025010505547+39941-074841FM-15+0016KVAY V0202705V00575015245MN0160935N5-00335-01395101825ADDAA101000095GA1085+015245999GD14991+0152459GE19AGL   +99999+99999GF199999999999015241999999KA1060M-00171KA2060N-00331MA1101835101645MD1890019+9999OC100985REMMET11601/05/25 00:54:02 METAR KVAY 050554Z 27011G19KT 10SM OVC050 M03/M14 A3007 RMK AO2 SLP182 T10331139 11017 21033 58001
0223724074937802025010506547+39941-074841FM-15+0016KVAY V0202705N00675015245MN0160935N5-00285-01395101855ADDAA101000095GA1085+015245999GD14991+0152459GE19AGL   +99999+99999GF199999999999015241999999MA1101865101675OC100985REMMET09801/05/25 01:54:02 METAR KVAY 050654Z 27013G19KT 10SM OVC050 M03/M14 A3008 RMK AO2 SLP185 T10281139
0212724074937802025010507547+39941-074841FM-15+0016KVAY V0202905N00515014335MN0160935N5-00285-01335101875ADDAA101000095GA1085+014335999GD14991+0143359GE19AGL   +99999+99999GF199999999999014331999999MA1101865101675REMMET09501/05/25 02:54:02 METAR KVAY 050754Z 29010KT 10SM OVC047 M03/M13 A3008 RMK AO2 SLP187 T10281133
0243724074937802025010508547+39941-074841FM-15+0016KVAY V0202705N00575014335MN0160935N5-00285-01335101885ADDAA101000095GA1085+014335999GD14991+0143359GE19AGL   +99999+99999GF199999999999014331999999MA1101905101705MD1190069+9999OC100985REMMET10401/05/25 03:54:02 METAR KVAY 050854Z 27011G19KT 10SM OVC047 M03/M13 A3009 RMK AO2 SLP188 T10281133 51006
0223724074937802025010509547+39941-074841FM-15+0016KVAY V0202605N00515013415MN0160935N5-00335-01335101885ADDAA101000095GA1085+013415999GD14991+0134159GE19AGL   +99999+99999GF199999999999013411999999MA1101905101705OC100825REMMET09801/05/25 04:54:02 METAR KVAY 050954Z 26010G16KT 10SM OVC044 M03/M13 A3009 RMK AO2 SLP188 T10331133
0242724074937802025010510547+39941-074841FM-15+0016KVAY V0202505N004652200059N0160935N5-00445-01335101945ADDAA101000095GA1025+013115999GD11991+0131159GE19AGL   +99999+99999GF102995999999013111999999MA1101935101745OC100985REMMET09801/05/25 05:54:02 METAR KVAY 051054Z 25009G19KT 10SM FEW043 M04/M13 A3010 RMK AO2 SLP194 T10441133EQDD01      0ADE726
0289724074937802025010511547+39941-074841FM-15+0016KVAY V0202605N004152200059N0160935N5-00505-01335101995ADDAA101000095GA1025+013415999GD11991+0134159GE19AGL   +99999+99999GF102995999999013411999999KA1060M-00281KA2060N-00501MA1102005101805MD1390109+9999REMMET11301/05/25 06:54:02 METAR KVAY 051154Z 26008KT 10SM FEW044 M05/M13 A3012 RMK AO2 SLP199 T10501133 11028 21050 53010EQDD01      0ADE726
0198724074937802025010512547+39941-074841FM-15+0016KVAY V0202605N007252200059N0160935N5-00505-01335102005ADDAA101000095GA1005+999999999GD10991+9999999GF100991999999999999999999MA1102005101805OC101085REMMET09501/05/25 07:54:02 METAR KVAY 051254Z 26014G21KT 10SM CLR M05/M13 A3012 RMK AO2 SLP200 T10501133
0198724074937802025010513547+39941-074841FM-15+0016KVAY V0202605N006752200059N0160935N5-00445-01335102055ADDAA101000095GA1005+999999999GD10991+9999999GF100991999999999999999999MA1102075101875OC101245REMMET09501/05/25 08:54:02 METAR KVAY 051354Z 26013G24KT 10SM CLR M04/M13 A3014 RMK AO2 SLP205 T10441133
0218724074937802025010514547+39941-074841FM-15+0016KVAY V0202705N007752200059N0160935N5-00395-01335102085ADDAA101000095GA1005+999999999GD10991+9999999GF100991999999999999999999MA1102105101915MD1390099+9999OC101295REMMET10101/05/25 09:54:02 METAR KVAY 051454Z 27015G25KT 10SM CLR M04/M13 A3015 RMK AO2 SLP208 T10391133 53009
0242724074937802025010515547+39941-074841FM-15+0016KVAY V0202805N005152200059N0160935N5-00285-01335102025ADDAA101000095GA1025+012505999GD11991+0125059GE19AGL   +99999+99999GF102995999999012501999999MA1102035101845OC101135REMMET09801/05/25 10:54:02 METAR KVAY 051554Z 28010G22KT 10SM FEW041 M03/M13 A3013 RMK AO2 SLP202 T10281133EQDD01      0ADE726
0230724074937802025010516547+39941-074841FM-15+0016KVAY V0202905V005752200059N0160935N5-00175-01335101915ADDAA101000095GA1005+999999999GD10991+9999999GF100991999999999999999999MA1101905101705OC100985OD149901331260REMMET11301/05/25 11:54:02 METAR KVAY 051654Z 29011G19KT 10SM CLR M02/M13 A3009 RMK AO2 PK WND 26026/1617 SLP191 T10171133
0256724074937802025010517547+39941-074841FM-15+0016KVAY V0202805N005752200059N0160935N5-00115-01335101865ADDAA101000095GA1005+999999999GD10991+9999999GF100991999999999999999999KA1060M-00111KA2060N-00501MA1101865101675MD1690229+9999OC101085REMMET11301/05/25 12:54:02 METAR KVAY 051754Z 28011G21KT 10SM CLR M01/M13 A3008 RMK AO2 SLP186 T10111133 11011 21050 56022
0198724074937802025010518547+39941-074841FM-15+0016KVAY V0202805V005752200059N0160935N5-00065-01335101835ADDAA101000095GA1005+999999999GD10991+9999999GF100991999999999999999999MA1101835101645OC101085REMMET09501/05/25 13:54:02 METAR KVAY 051854Z 28011G21KT 10SM CLR M01/M13 A3007 RMK AO2 SLP183 T10061133
0198724074937802025010519547+39941-074841FM-15+0016KVAY V0202705N005752200059N0160935N5-00065-01335101865ADDAA101000095GA1005+999999999GD10991+9999999GF100991999999999999999999MA1101865101675OC101035REMMET09501/05/25 14:54:02 METAR KVAY 051954Z 27011G20KT 10SM CLR M01/M13 A3008 RMK AO2 SLP186 T10061133
0218724074937802025010520547+39941-074841FM-15+0016KVAY V0203105N004652200059N0160935N5-00065-01335101875ADDAA101000095GA1005+999999999GD10991+9999999GF100991999999999999999999MA1101865101675MD1390019+9999OC100885REMMET10101/05/25 15:54:02 METAR KVAY 052054Z 31009G17KT 10SM CLR M01/M13 A3008 RMK AO2 SLP187 T10061133 53001
0187724074937802025010521547+39941-074841FM-15+0016KVAY V0202805N004652200059N0160935N5-00115-01395101915ADDAA101000095GA1005+999999999GD10991+9999999GF100991999999999999999999MA1101905101705REMMET09201/05/25 16:54:02 METAR KVAY 052154Z 28009KT 10SM CLR M01/M14 A3009 RMK AO2 SLP191 T10111139
0187724074937802025010522547+39941-074841FM-15+0016KVAY V0203005N003152200059N0160935N5-00175-01335101965ADDAA101000095GA1005+999999999GD10991+9999999GF100991999999999999999999MA1101965101775REMMET09201/05/25 17:54:02 METAR KVAY 052254Z 30006KT 10SM CLR M02/M13 A3011 RMK AO2 SLP196 T10171133
0245724074937802025010523547+39941-074841FM-15+0016KVAY V0202905N003152200059N0160935N5-00175-01335101965ADDAA101000095GA1005+999999999GD10991+9999999GF100991999999999999999999KA1060M+00001KA2060N-00171MA1101965101775MD1190099+9999REMMET11001/05/25 18:54:02 METAR KVAY 052354Z 29006KT 10SM CLR M02/M13 A3011 RMK AO2 SLP196 T10171133 10000 21017 51009
0187724074937802025010600547+39941-074841FM-15+0016KVAY V0202705N002152200059N0160935N5-00225-01335101955ADDAA101000095GA1005+999999999GD10991+9999999GF100991999999999999999999MA1101965101775REMMET09201/05/25 19:54:01 METAR KVAY 060054Z 27004KT 10SM CLR M02/M13 A3011 RMK AO2 SLP195 T10221133
0187724074937802025010601547+39941-074841FM-15+0016KVAY V0202805N003152200059N0160935N5-00225-01335101945ADDAA101000095GA1005+999999999GD10991+9999999GF100991999999999999999999MA1101935101745REMMET09201/05/25 20:54:01 METAR KVAY 060154Z 28006KT 10SM CLR M02/M13 A3010 RMK AO2 SLP194 T10221133
0207724074937802025010602547+39941-074841FM-15+0016KVAY V0202805N003152200059N0160935N5-00225-01285101945ADDAA101000095GA1005+999999999GD10991+9999999GF100991999999999999999999MA1101935101745MD1790029+9999REMMET09801/05/25 21:54:01 METAR KVAY 060254Z 28006KT 10SM CLR M02/M13 A3010 RMK AO2 SLP194 T10221128 57002
0187724074937802025010603547+39941-074841FM-15+0016KVAY V0202805N002652200059N0160935N5-00175-01285101985ADDAA101000095GA1005+999999999GD10991+9999999GF100991999999999999999999MA1101965101775REMMET09201/05/25 22:54:02 METAR KVAY 060354Z 28005KT 10SM CLR M02/M13 A3011 RMK AO2 SLP198 T10171128
0223724074937802025010604547+39941-074841FM-15+0016KVAY V0209999V002652200059N0160935N5-00225-01225101925ADDAA101000095GA1005+999999999GD10991+9999999GF100991999999999999999999KA1240M+00001KA2240N-00501MA1101935101745REMMET10201/05/25 23:54:02 METAR KVAY 060454Z VRB05KT 10SM CLR M02/M12 A3010 RMK AO2 SLP192 T10221122 400001050
0886724074937802025010604596+39941-074841SOD  +0016KVAY V020999999999999999999999999999+99999+99999999999ADDAA124000095KA1240M+00005KA2240N-00495MG1101694101794OE11240134126011175OE22240080528013165OE33240047899999995REMSOD73024 HR PRECIPITATION (IN):0.00  24 HR MAX TEMP (F):32 24 HR MAX TEMP TIME (LST):1543 24 HR MIN TEMP (F):23 24 HR MIN TEMP TIME (LST):0816 AVERAGE STATION PRESSURE:30.030 MINIMUM SEA LEVEL PRESSURE:30.06 TIME OF OCCURRENCE:1426 PEAK WIND SPEED (MPH):30  PEAK WIND DIR (DEG):260 PEAK WIND TIME (LST):1117  FASTEST 2MIN SPEED (MPH):18 FASTEST 2MIN DIR (DEG):280 FASTEST 2MIN TIME (LST):1316 AVERAGE WIND SPEED (MPH):10.7 24 HR AVG TEMP (F):28 HEATING DEGREE DAYS:37  COOLING DEGREE DAYS:0   LATEST DAY MAX TEMP (0700-1900 LST):32  LATEST NIGHT MIN TEMP(1900-0800 LST):23 HOURLY INCREMENTAL PRECIPITATION VALUES (IN):.00 0.00 0.00 0.00 0.00 0.00 0.00 0.00 0.00 0.00 0.00 0.00 0.00 0.00 0.00 0.00 0.00 0.00 0.00 0.00 0.00 0.00 0.00 0.00EQDR01     N7GJS072R02     N7GKS075
0245724074937802025010605547+39941-074841FM-15+0016KVAY V0203005N002652200059N0160935N5-00225-01225101865ADDAA101000095GA1005+999999999GD10991+9999999GF100991999999999999999999KA1060M-00171KA2060N-00221MA1101865101675MD1890089+9999REMMET11001/06/25 00:54:02 METAR KVAY 060554Z 30005KT 10SM CLR M02/M12 A3008 RMK AO2 SLP186 T10221122 11017 21022 58008
0187724074937802025010606547+39941-074841FM-15+0016KVAY V0203105N001552200059N0160935N5-00225-01175101825ADDAA101000095GA1005+999999999GD10991+9999999GF100991999999999999999999MA1101835101645REMMET09201/06/25 01:54:02 METAR KVAY 060654Z 31003KT 10SM CLR M02/M12 A3007 RMK AO2 SLP182 T10221117
0212724074937802025010607547+39941-074841FM-15+0016KVAY V0203005N00155036585MN0160935N5-00225-01175101805ADDAA101000095GA1075+036585999GD13991+0365859GE19AGL   +99999+99999GF199999999999036581999999MA1101795101605REMMET09501/06/25 02:54:02 METAR KVAY 060754Z 30003KT 10SM BKN120 M02/M12 A3006 RMK AO2 SLP180 T10221117
0232724074937802025010608547+39941-074841FM-15+0016KVAY V0202405N00155030485MN0160935N5-00285-01115101755ADDAA101000095GA1075+030485999GD13991+0304859GE19AGL   +99999+99999GF199999999999030481999999MA1101765101575MD1890119+9999REMMET10101/06/25 03:54:02 METAR KVAY 060854Z 24003KT 10SM BKN100 M03/M11 A3005 RMK AO2 SLP175 T10281111 58011
0212724074937802025010609547+39941-074841FM-15+0016KVAY V0209999C00005024385MN0160935N5-00285-01065101665ADDAA101000095GA1085+024385999GD14991+0243859GE19AGL   +99999+99999GF199999999999024381999999MA1101665101475REMMET09501/06/25 04:54:02 METAR KVAY 060954Z 00000KT 10SM OVC080 M03/M11 A3002 RMK AO2 SLP166 T10281106
0212724074937802025010610547+39941-074841FM-15+0016KVAY V0209999C00005021345MN0160935N5-00285-01005101595ADDAA101000095GA1085+021345999GD14991+0213459GE19AGL   +99999+99999GF199999999999021341999999MA1101595101405REMMET09501/06/25 05:54:02 METAR KVAY 061054Z 00000KT 10SM OVC070 M03/M10 A3000 RMK AO2 SLP159 T10281100
0270724074937802025010611547+39941-074841FM-15+0016KVAY V0209999C00005013415MN0160935N5-00285-00945101525ADDAA101000095GA1085+013415999GD14991+0134159GE19AGL   +99999+99999GF199999999999013411999999KA1060M-00221KA2060N-00281MA1101525101335MD1690239+9999REMMET11301/06/25 06:54:02 METAR KVAY 061154Z 00000KT 10SM OVC044 M03/M09 A2998 RMK AO2 SLP152 T10281094 11022 21028 56023
0247724074937802025010612237+39941-074841FM-16+0016KVAY V0209999C00005007925MN0028165N5-00335-00785999999ADDAA101000021AU110030015AW1715GA1085+007925999GD14991+0079259GE19AGL   +99999+99999GF199999999999007921999999MA1101525101335MW1715REMMET10701/06/25 07:23:02 SPECI KVAY 061223Z 00000KT 1 3/4SM -SN OVC026 M03/M08 A2998 RMK AO2 SNB08 P0000 T10331078
0254724074937802025010612497+39941-074841FM-16+0016KVAY V0209999C00005005495WN0012075N5-00405-00605999999ADDAA101000021AU110030015AU200001015AW1105AW2715GA1095+005495999GD15991+0054959GE19AGL   +99999+99999GF109991999999005491999999MA1101495101305MW1715REMMET09701/06/25 07:49:02 SPECI KVAY 061249Z 00000KT 3/4SM -SN BR VV018 M04/M06 A2997 RMK AO2 SNB08 P0000
0271724074937802025010612547+39941-074841FM-15+0016KVAY V0209999C00005005495WN0012075N5-00395-00615101485ADDAA101000025AU110030015AU200001015AW1105AW2715GA1095+005495999GD15991+0054959GE19AGL   +99999+99999GF109991999999005491999999MA1101495101305MW1715REMMET11401/06/25 07:54:02 METAR KVAY 061254Z 00000KT 3/4SM -SN BR VV018 M04/M06 A2997 RMK AO2 SNB08 SLP148 P0000 T10391061
0246724074937802025010613497+39941-074841FM-16+0016KVAY V0209999C00005005795WN0016095N5-00405-00605999999ADDAA101000021AU110030015AU200001015AW1105AW2715GA1095+005795999GD15991+0057959GE19AGL   +99999+99999GF109991999999005791999999MA1101355101165MW1715REMMET08901/06/25 08:49:02 SPECI KVAY 061349Z 00000KT 1SM -SN BR VV019 M04/M06 A2993 RMK AO2 P0000
0264724074937802025010613547+39941-074841FM-15+0016KVAY V0209999C00005007015MN0016095N5-00445-00565101345ADDAA101000025AU110030015AU200001015AW1105AW2715GA1085+007015999GD14991+0070159GE19AGL   +99999+99999GF199999999999007011999999MA1101355101165MW1715REMMET10701/06/25 08:54:02 METAR KVAY 061354Z 00000KT 1SM -SN BR OVC023 M04/M06 A2993 RMK AO2 SLP134 P0000 T10441056
0261724074937802025010614047+39941-074841FM-16+0016KVAY V0209999C00005007625MN0020125N5-00445-00565999999ADDAA101000021AU110030015AU200001015AW1105AW2715GA1085+007625999GD14991+0076259GE19AGL   +99999+99999GF199999999999007621999999MA1101325101135MW1715REMMET10401/06/25 09:04:02 SPECI KVAY 061404Z 00000KT 1 1/4SM -SN BR OVC025 M04/M06 A2992 RMK AO2 P0000 T10441056
0259724074937802025010614097+39941-074841FM-16+0016KVAY V0209999C00005006405MN0012075N5-00395-00565999999ADDAA101000021AU110030015AU200001015AW1105AW2715GA1085+006405999GD14991+0064059GE19AGL   +99999+99999GF199999999999006401999999MA1101325101135MW1715REMMET10201/06/25 09:09:02 SPECI KVAY 061409Z 00000KT 3/4SM -SN BR OVC021 M04/M06 A2992 RMK AO2 P0000 T10391056
0320724074937802025010614547+39941-074841FM-15+0016KVAY V0209999C00005006405MN0016095N5-00395-00565101315ADDAA101000025AA203000021AU110030015AU200001015AW1105AW2715GA1085+006405999GD14991+0064059GE19AGL   +99999+99999GF199999999999006401999999MA1101325101135MD1690179+9999MW1715REMMET11901/06/25 09:54:02 METAR KVAY 061454Z 00000KT 1SM -SN BR OVC021 M04/M06 A2992 RMK AO2 SLP131 P0000 60000 T10391056 56017EQDQ01  00008PRCP03
0258724074937802025010615047+39941-074841FM-16+0016KVAY V0209999C00005006105WN0012075N5-00395-00565999999ADDAA101000021AU110030015AU200001015AW1105AW2715GA1095+006105999GD15991+0061059GE19AGL   +99999+99999GF109991999999006101999999MA1101255101065MW1715REMMET10101/06/25 10:04:02 SPECI KVAY 061504Z 00000KT 3/4SM -SN BR VV020 M04/M06 A2990 RMK AO2 P0000 T10391056
0299724074937802025010615297+39941-074841FM-16+0016KVAY V0209999C00005006405MN0020125N5-00395-00565999999ADDAA101000021AU110030015AU200001015AW1105AW2715GA1075+006405999GA2085+014025999GD13991+0064059GD24991+0140259GE19AGL   +99999+99999GF199999999999006401999999MA1101195100995MW1715REMMET11101/06/25 10:29:02 SPECI KVAY 061529Z 00000KT 1 1/4SM -SN BR BKN021 OVC046 M04/M06 A2988 RMK AO2 P0000 T10391056
0295724074937802025010615457+39941-074841FM-16+0016KVAY V0209999C00005009455MN0032195N5-00395-00565999999ADDAA101000021AU110030015AU200001015AW1105AW2715GA1075+009455999GA2085+012805999GD13991+0094559GD24991+0128059GE19AGL   +99999+99999GF199999999999009451999999MA1101155100965MW1715REMMET10701/06/25 10:45:02 SPECI KVAY 061545Z 00000KT 2SM -SN BR BKN031 OVC042 M04/M06 A2987 RMK AO2 P0000 T10391056
0289724074937802025010615527+39941-074841FM-16+0016KVAY V0209999C00005008845MN0024145N5-00405-00605999999ADDAA101000021AU110030015AU200001015AW1105AW2715GA1075+008845999GA2085+012805999GD13991+0088459GD24991+0128059GE19AGL   +99999+99999GF199999999999008841999999MA1101155100965MW1715REMMET10101/06/25 10:52:02 SPECI KVAY 061552Z 00000KT 1 1/2SM -SN BR BKN029 OVC042 M04/M06 A2987 RMK AO2 P0000
0306724074937802025010615547+39941-074841FM-15+0016KVAY V0209999C00005008845MN0020125N5-00395-00565101145ADDAA101000025AU110030015AU200001015AW1105AW2715GA1075+008845999GA2085+015245999GD13991+0088459GD24991+0152459GE19AGL   +99999+99999GF199999999999008841999999MA1101155100965MW1715REMMET11801/06/25 10:54:02 METAR KVAY 061554Z 00000KT 1 1/4SM -SN BR BKN029 OVC050 M04/M06 A2987 RMK AO2 SLP114 P0000 T10391056
0295724074937802025010615567+39941-074841FM-16+0016KVAY V0209999C00005008845MN0016095N5-00395-00565999999ADDAA101000021AU110030015AU200001015AW1105AW2715GA1025+002445999GA2085+008845999GD11991+0024459GD24991+0088459GE19AGL   +99999+99999GF199999999999002441999999MA1101155100965MW1715REMMET10701/06/25 10:56:02 SPECI KVAY 061556Z 00000KT 1SM -SN BR FEW008 OVC029 M04/M06 A2987 RMK AO2 P0000 T10391056
0298724074937802025010616057+39941-074841FM-16+0016KVAY V0209999C00005006105MN0008055N5-00395-00565999999ADDAA101000021AU120030015AU208002015AW1355AW2725GA1025+002445999GA2085+006105999GD11991+0024459GD24991+0061059GE19AGL   +99999+99999GF199999999999002441999999MA1101125100935MW1735REMMET11001/06/25 11:05:02 SPECI KVAY 061605Z 00000KT 1/2SM SN FZFG FEW008 OVC020 M04/M06 A2986 RMK AO2 P0000 T10391056
0299724074937802025010616187+39941-074841FM-16+0016KVAY V0209999C00005004275MN0008055N5-00335-00505999999ADDAA101000021AU110030015AU208002015AW1355AW2715GA1025+002445999GA2085+004275999GD11991+0024459GD24991+0042759GE19AGL   +99999+99999GF199999999999002441999999MA1101085100895MW1715REMMET11101/06/25 11:18:02 SPECI KVAY 061618Z 00000KT 1/2SM -SN FZFG FEW008 OVC014 M03/M05 A2985 RMK AO2 P0000 T10331050
0333724074937802025010616367+39941-074841FM-16+0016KVAY V0200105N00155005495MN0016095N5-00335-00505999999ADDAA101000021AU110030015AU200001015AW1105AW2715GA1025+001835999GA2075+005495999GA3085+010675999GD11991+0018359GD23991+0054959GD34991+0106759GE19AGL   +99999+99999GF199999999999001831999999MA1101055100865MW1715REMMET11401/06/25 11:36:02 SPECI KVAY 061636Z 01003KT 1SM -SN BR FEW006 BKN018 OVC035 M03/M05 A2984 RMK AO2 P0000 T10331050
0337724074937802025010616467+39941-074841FM-16+0016KVAY V0209999C00005008535MN0028165N5-00335-00505999999ADDAA101000021AU110030015AU200001015AW1105AW2715GA1025+002135999GA2075+008535999GA3085+014945999GD11991+0021359GD23991+0085359GD34991+0149459GE19AGL   +99999+99999GF199999999999002131999999MA1101025100825MW1715REMMET11801/06/25 11:46:02 SPECI KVAY 061646Z 00000KT 1 3/4SM -SN BR FEW007 BKN028 OVC049 M03/M05 A2983 RMK AO2 P0000 T10331050
0269724074937802025010616526+39941-074841FM-16+0016KVAY V0209999C00005009755MN0032195N5-00305-00505999999ADDAU110030015AU200001015AW1105AW2715GA1025+002135999GA2075+009755999GA3085+014945999GD11991+0021359GD23991+0097559GD34991+0149459MA1101025100825MW1715REMMET10901/06/25 11:52:02 SPECI KVAY 061652Z 00000KT 2SM -SN BR FEW007 BKN032 OVC049 M03/M05 A2983 RMK AO2 P0000 FIBI
0340724074937802025010616547+39941-074841FM-15+0016KVAY V0209999C00005010675MN0032195N5-00335-00505101045ADDAA101000025AU110030015AU200001015AW1105AW2715GA1025+002135999GA2075+010675999GA3085+014945999GD11991+0021359GD23991+0106759GD34991+0149459GE19AGL   +99999+99999GF199999999999002131999999MA1101055100865MW1715REMMET12101/06/25 11:54:02 METAR KVAY 061654Z 00000KT 2SM -SN BR FEW007 BKN035 OVC049 M03/M05 A2984 RMK AO2 SLP104 P0000 T10331050
0337724074937802025010617087+39941-074841FM-16+0016KVAY V0203605N00215008535MN0024145N5-00335-00505999999ADDAA101000021AU110030015AU200001015AW1105AW2715GA1025+002135999GA2075+008535999GA3085+014635999GD11991+0021359GD23991+0085359GD34991+0146359GE19AGL   +99999+99999GF199999999999002131999999MA1101025100825MW1715REMMET11801/06/25 12:08:02 SPECI KVAY 061708Z 36004KT 1 1/2SM -SN BR FEW007 BKN028 OVC048 M03/M05 A2983 RMK AO2 P0000 T10331050
0273724074937802025010617526+39941-074841FM-16+0016KVAY V0203605N00215002445MN0028165N5-00305-00505999999ADDAU110030015AU200001015AW1105AW2715GA1075+002445999GA2075+008235999GA3085+010975999GD13991+0024459GD23991+0082359GD34991+0109759MA1100855100665MW1715REMMET11301/06/25 12:52:02 SPECI KVAY 061752Z 36004KT 1 3/4SM -SN BR BKN008 BKN027 OVC036 M03/M05 A2978 RMK AO2 P0000 FIBI
0425724074937802025010617547+39941-074841FM-15+0016KVAY V0203605N00215002445MN0028165N5-00285-00505100855ADDAA101000025AA206000021AU110030015AU200001015AW1105AW2715GA1075+002445999GA2075+008235999GA3085+010975999GD13991+0024459GD23991+0082359GD34991+0109759GE19AGL   +99999+99999GF199999999999002441999999KA1060M-00281MA1100855100665MD1890479+9999MW1715REMMET14901/06/25 12:54:02 METAR KVAY 061754Z 36004KT 1 3/4SM -SN BR BKN008 BKN027 OVC036 M03/M05 A2978 RMK AO2 SLP085 P0000 60000 T10281050 11028 21044 58047EQDQ01  00008PRCP06
0333724074937802025010618017+39941-074841FM-16+0016KVAY V0203505N00265007625MN0032195N5-00285-00505999999ADDAA101000021AU110030015AU200001015AW1105AW2715GA1045+002135999GA2075+007625999GA3085+010365999GD12991+0021359GD23991+0076259GD34991+0103659GE19AGL   +99999+99999GF199999999999002131999999MA1100815100625MW1715REMMET11401/06/25 13:01:02 SPECI KVAY 061801Z 35005KT 2SM -SN BR SCT007 BKN025 OVC034 M03/M05 A2977 RMK AO2 P0000 T10281050
0299724074937802025010618157+39941-074841FM-16+0016KVAY V0203505N00265002445MN0040235N5-00285-00505999999ADDAA101000021AU110030015AU200001015AW1105AW2715GA1075+002445999GA2085+007015999GD13991+0024459GD24991+0070159GE19AGL   +99999+99999GF199999999999002441999999MA1100815100625MW1715REMMET11101/06/25 13:15:02 SPECI KVAY 061815Z 35005KT 2 1/2SM -SN BR BKN008 OVC023 M03/M05 A2977 RMK AO2 P0000 T10281050
0302724074937802025010618217+39941-074841FM-16+0016KVAY V0203605N00365003055MN0048285N5-00285-00505999999ADDAA101000021AU110030015AU200001015AW1105AW2715GA1075+003055999GA2085+007015999GD13991+0030559GD24991+0070159GE19AGL   +99999+99999GF199999999999003051999999MA1100755100555MW1715REMMET11401/06/25 13:21:02 SPECI KVAY 061821Z 36007KT 3SM -SN BR BKN010 OVC023 M03/M05 A2975 RMK AO2 PRESFR P0000 T10281050
0223724074937802025010618547+39941-074841FM-15+0016KVAY V0203505N00365003355MN0112655N5-00285-00505100705ADDAA101000025GA1085+003355999GD14991+0033559GE19AGL   +99999+99999GF199999999999003351999999MA1100715100525REMMET10601/06/25 13:54:02 METAR KVAY 061854Z 35007KT 7SM OVC011 M03/M05 A2974 RMK AO2 SNE25 SLP070 P0000 T10281050
0219724074937802025010619547+39941-074841FM-15+0016KVAY V0200105N00465003665MN0160935N5-00225-00505100535ADDAA101000095GA1085+003665999GD14991+0036659GE19AGL   +99999+99999GF199999999999003661999999MA1100545100355REMMET10201/06/25 14:54:02 METAR KVAY 061954Z 01009KT 10SM OVC012 M02/M05 A2969 RMK AO2 PRESFR SLP053 T10221050
0260724074937802025010620517+39941-074841FM-16+0016KVAY V0200205N00315008845MN0160935N5-00205-00505999999ADDGA1045+004275999GA2075+008845999GA3085+022865999GD12991+0042759GD23991+0088459GD34991+0228659GE19AGL   +99999+99999GF199999999999004271999999MA1100545100355REMMET09201/06/25 15:51:02 SPECI KVAY 062051Z 02006KT 10SM SCT014 BKN029 OVC075 M02/M05 A2969 RMK AO2
0325724074937802025010620547+39941-074841FM-15+0016KVAY V0200205N00415009455MN0160935N5-00225-00505100535ADDAA101000095AA203000021GA1045+004275999GA2075+009455999GA3085+022865999GD12991+0042759GD23991+0094559GD34991+0228659GE19AGL   +99999+99999GF199999999999004271999999MA1100545100355MD1690189+9999REMMET12101/06/25 15:54:02 METAR KVAY 062054Z 02008KT 10SM SCT014 BKN031 OVC075 M02/M05 A2969 RMK AO2 SLP053 60000 T10221050 56018
0270724074937802025010621477+39941-074841FM-16+0016KVAY V0200305N00265005495MN0160935N5-00225-00505999999ADDGA1075+005495999GA2075+010065999GA3085+021345999GD13991+0054959GD23991+0100659GD34991+0213459GE19AGL   +99999+99999GF199999999999005491999999MA1100545100355REMMET10201/06/25 16:47:02 SPECI KVAY 062147Z 03005KT 10SM BKN018 BKN033 OVC070 M02/M05 A2969 RMK AO2 T10221050
0250724074937802025010621547+39941-074841FM-15+0016KVAY V0200205N00365005495MN0160935N5-00225-00505100515ADDAA101000095GA1075+005495999GA2085+021345999GD13991+0054959GD24991+0213459GE19AGL   +99999+99999GF199999999999005491999999MA1100515100325REMMET10201/06/25 16:54:02 METAR KVAY 062154Z 02007KT 10SM BKN018 OVC070 M02/M05 A2968 RMK AO2 SLP051 T10221050
0232724074937802025010622287+39941-074841FM-16+0016KVAY V0203605N00315021345MN0160935N5-00225-00505999999ADDGA1045+005495999GA2085+021345999GD12991+0054959GD24991+0213459GE19AGL   +99999+99999GF199999999999005491999999MA1100475100285REMMET09501/06/25 17:28:02 SPECI KVAY 062228Z 36006KT 10SM SCT018 OVC070 M02/M05 A2967 RMK AO2 T10221050
0270724074937802025010622547+39941-074841FM-15+0016KVAY V0203605N00365018295MN0096565N5-00225-00445100445ADDAA101000025AU110030015AU200001015AW1105AW2715GA1085+018295999GD14991+0182959GE19AGL   +99999+99999GF199999999999018291999999MA1100445100255MW1715REMMET11301/06/25 17:54:02 METAR KVAY 062254Z 36007KT 6SM -SN BR OVC060 M02/M04 A2966 RMK AO2 SNB36 SLP044 P0000 T10221044
0376724074937802025010623547+39941-074841FM-15+0016KVAY V0203605N00315015245MN0112655N5-00225-00445100415ADDAA101000025AA206000021AU110030015AW1715GA1075+015245999GA2085+024385999GD13991+0152459GD24991+0243859GE19AGL   +99999+99999GF199999999999015241999999KA1060M-00171KA2060N-00281MA1100415100225MD1890129+9999MW1715REMMET13501/06/25 18:54:02 METAR KVAY 062354Z 36006KT 7SM -SN BKN050 OVC080 M02/M04 A2965 RMK AO2 SLP041 P0000 60000 T10221044 11017 21028 58012EQDQ01  00008PRCP06
0257724074937802025010700177+39941-074841FM-16+0016KVAY V0203505N00315010365MN0032195N5-00225-00395999999ADDAA101000021AU110030015AU200001015AW1105AW2715GA1085+010365999GD14991+0103659GE19AGL   +99999+99999GF199999999999010361999999MA1100415100225MW1715REMMET10001/06/25 19:17:01 SPECI KVAY 070017Z 35006KT 2SM -SN BR OVC034 M02/M04 A2965 RMK AO2 P0000 T10221039
0257724074937802025010700287+39941-074841FM-16+0016KVAY V0203605N00365010365MN0064375N5-00225-00395999999ADDAA101000021AU110030015AU200001015AW1105AW2715GA1085+010365999GD14991+0103659GE19AGL   +99999+99999GF199999999999010361999999MA1100415100225MW1715REMMET10001/06/25 19:28:01 SPECI KVAY 070028Z 36007KT 4SM -SN BR OVC034 M02/M04 A2965 RMK AO2 P0000 T10221039
0264724074937802025010700547+39941-074841FM-15+0016KVAY V0203405N00265011285MN0064375N5-00225-00395100395ADDAA101000025AU110030015AU200001015AW1105AW2715GA1085+011285999GD14991+0112859GE19AGL   +99999+99999GF199999999999011281999999MA1100415100225MW1715REMMET10701/06/25 19:54:01 METAR KVAY 070054Z 34005KT 4SM -SN BR OVC037 M02/M04 A2965 RMK AO2 SLP039 P0000 T10221039
0267724074937802025010701547+39941-074841FM-15+0016KVAY V0203405N00625024385MN0160935N5-00175-00675100445ADDAA101000025GA1085+024385999GD14991+0243859GE19AGL   +99999+99999GF199999999999024381999999MA1100445100255OC101345OD149901331340REMMET12801/06/25 20:54:01 METAR KVAY 070154Z 34012G26KT 10SM OVC080 M02/M07 A2966 RMK AO2 PK WND 34026/0149 SNE36 SLP044 P0000 T10171067
0393724074937802025010702547+39941-074841FM-15+0016KVAY V0203305N00775024385MN0160935N5-00175-00835100555ADDAA101000025AA203000021AU120090015AW1401AW2415GA1045+016765999GA2075+024385999GA3085+027435999GD12991+0167659GD23991+0243859GD34991+0274359GE19AGL   +99999+99999GF199999999999016761999999MA1100545100355MD1390149+9999OC101245REMMET13901/06/25 21:54:01 METAR KVAY 070254Z 33015G24KT 10SM UP SCT055 BKN080 OVC090 M02/M08 A2969 RMK AO2 UPB54 SLP055 P0000 60000 T10171083 53014EQDQ01  00008PRCP03
0235724074937802025010703547+39941-074841FM-15+0016KVAY V0203205N00725016765MN0160935N5-00285-00945100705ADDAA101000025GA1085+016765999GD14991+0167659GE19AGL   +99999+99999GF199999999999016761999999MA1100715100525OC101085REMMET11001/06/25 22:54:02 METAR KVAY 070354Z 32014G21KT 10SM OVC055 M03/M09 A2974 RMK AO2 UPE04 SLP070 P0000 T10281094
0352724074937802025010704547+39941-074841FM-15+0016KVAY V0203205N00575014025MN0160935N5-00505-01225100825ADDAA101000025GA1075+014025999GA2085+021345999GD13991+0140259GD24991+0213459GE19AGL   +99999+99999GF199999999999014021999999KA1240M-00171KA2240N-00501MA1100815100625OC101085OD149901331330REMMET15601/06/25 23:54:02 METAR KVAY 070454Z 32011G21KT 10SM BKN046 OVC070 M05/M12 A2977 RMK AO2 PK WND 33026/0424 UPB14E20SNB20E41 SLP082 P0000 T10501122 410171050
0943724074937802025010704596+39941-074841SOD  +0016KVAY V020999999999999999999999999999+99999+99999999999ADDAA124000025AT1AU18SN  5AT2AU22FZFG5AT3AU13BR  5AT4AU19UP  5AT5AW01FG  5KA1240M-00165KA2240N-00495MG1100954100374OE11240134133023245OE22240080532023305OE33240024699999995REMSOD72724 HR PRECIPITATION (IN):T     24 HR MAX TEMP (F):29 24 HR MAX TEMP TIME (LST):2211 24 HR MIN TEMP (F):23 24 HR MIN TEMP TIME (LST):2359 AVERAGE STATION PRESSURE:29.810 MINIMUM SEA LEVEL PRESSURE:29.64 TIME OF OCCURRENCE:2001 PEAK WIND SPEED (MPH):30  PEAK WIND DIR (DEG):330 PEAK WIND TIME (LST):2324  FASTEST 2MIN SPEED (MPH):18 FASTEST 2MIN DIR (DEG):320 FASTEST 2MIN TIME (LST):2330 AVERAGE WIND SPEED (MPH):5.5  24 HR AVG TEMP (F):26 HEATING DEGREE DAYS:39  COOLING DEGREE DAYS:0   LATEST DAY MAX TEMP (0700-1900 LST):29  LATEST NIGHT MIN TEMP(1900-0800 LST):24 HOURLY INCREMENTAL PRECIPITATION VALUES (IN):.00 0.00 0.00 0.00 0.00 0.00 0.00 T    T    T    T    T    T    T    0.00 0.00 0.00 T    T    T    T    T    T    TEQDR01     N7GJS072R02     N7GKS075
0330724074937802025010705547+39941-074841FM-15+0016KVAY V0203305N00775030485MN0160935N5-00615-01335100845ADDAA101000095AA206000021GA1075+030485999GD13991+0304859GE19AGL   +99999+99999GF199999999999030481999999KA1060M-00171KA2060N-00611MA1100855100665MD1190289+9999OC101445OD149901591320REMMET14001/07/25 00:54:02 METAR KVAY 070554Z 33015G28KT 10SM BKN100 M06/M13 A2978 RMK AO2 PK WND 32031/0541 SLP084 60000 T10611133 11017 21061 51028
0216724074937802025010706547+39941-074841FM-15+0016KVAY V0203205N006752200059N0160935N5-00725-01445100965ADDAA101000095GA1005+999999999GD10991+9999999GF100991999999999999999999MA1100955100765OC101245REMMET11301/07/25 01:54:02 METAR KVAY 070654Z 32013G24KT 10SM CLR M07/M14 A2981 RMK AO2 PK WND 33032/0621 SLP096 T10721144
0223724074937802025010707547+39941-074841FM-15+0016KVAY V0203105N00515011285MN0160935N5-00725-01395101045ADDAA101000095GA1075+011285999GD13991+0112859GE19AGL   +99999+99999GF199999999999011281999999MA1101055100865OC100935REMMET09801/07/25 02:54:02 METAR KVAY 070754Z 31010G18KT 10SM BKN037 M07/M14 A2984 RMK AO2 SLP104 T10721139
0243724074937802025010708547+39941-074841FM-15+0016KVAY V0203105N00465010975MN0160935N5-00675-01335101025ADDAA101000095GA1085+010975999GD14991+0109759GE19AGL   +99999+99999GF199999999999010971999999MA1101025100825MD1090199+9999OC101035REMMET10401/07/25 03:54:02 METAR KVAY 070854Z 31009G20KT 10SM OVC036 M07/M13 A2983 RMK AO2 SLP102 T10671133 50019
0223724074937802025010709547+39941-074841FM-15+0016KVAY V0203105N00575011585MN0160935N5-00615-01335101055ADDAA101000095GA1085+011585999GD14991+0115859GE19AGL   +99999+99999GF199999999999011581999999MA1101055100865OC100935REMMET09801/07/25 04:54:02 METAR KVAY 070954Z 31011G18KT 10SM OVC038 M06/M13 A2984 RMK AO2 SLP105 T10611133
0242724074937802025010710547+39941-074841FM-15+0016KVAY V0203105N004152200059N0160935N5-00615-01335101125ADDAA101000095GA1045+011285999GD12991+0112859GE19AGL   +99999+99999GF104995999999011281999999MA1101125100935OC100935REMMET09801/07/25 05:54:02 METAR KVAY 071054Z 31008G18KT 10SM SCT037 M06/M13 A2986 RMK AO2 SLP112 T10611133EQDD01      0ADE726
0256724074937802025010711547+39941-074841FM-15+0016KVAY V0203005N004652200059N0160935N5-00615-01335101215ADDAA101000095GA1005+999999999GD10991+9999999GF100991999999999999999999KA1060M-00611KA2060N-00781MA1101225101035MD1390199+9999OC100985REMMET11301/07/25 06:54:02 METAR KVAY 071154Z 30009G19KT 10SM CLR M06/M13 A2989 RMK AO2 SLP121 T10611133 11061 21078 53019
0198724074937802025010712547+39941-074841FM-15+0016KVAY V0203005N004652200059N0160935N5-00615-01395101245ADDAA101000095GA1005+999999999GD10991+9999999GF100991999999999999999999MA1101255101065OC100935REMMET09501/07/25 07:54:02 METAR KVAY 071254Z 30009G18KT 10SM CLR M06/M14 A2990 RMK AO2 SLP124 T10611139
0198724074937802025010713547+39941-074841FM-15+0016KVAY V0202905N004652200059N0160935N5-00505-01335101295ADDAA101000095GA1005+999999999GD10991+9999999GF100991999999999999999999MA1101295101095OC101135REMMET09501/07/25 08:54:02 METAR KVAY 071354Z 29009G22KT 10SM CLR M05/M13 A2991 RMK AO2 SLP129 T10501133
0236724074937802025010714547+39941-074841FM-15+0016KVAY V0203105N006252200059N0160935N5-00395-01285101345ADDAA101000095GA1005+999999999GD10991+9999999GF100991999999999999999999MA1101355101165MD1390139+9999OC101295REMMET11901/07/25 09:54:02 METAR KVAY 071454Z 31012G25KT 10SM CLR M04/M13 A2993 RMK AO2 PK WND 30026/1426 SLP134 T10391128 53013
0216724074937802025010715547+39941-074841FM-15+0016KVAY V0203105N006752200059N0160935N5-00285-01285101335ADDAA101000095GA1005+999999999GD10991+9999999GF100991999999999999999999MA1101325101135OC101545REMMET11301/07/25 10:54:02 METAR KVAY 071554Z 31013G30KT 10SM CLR M03/M13 A2992 RMK AO2 PK WND 30030/1551 SLP133 T10281128
0230724074937802025010716547+39941-074841FM-15+0016KVAY V0203005V008252200059N0160935N5-00175-01225101295ADDAA101000095GA1005+999999999GD10991+9999999GF100991999999999999999999MA1101295101095OC101545OD149901541300REMMET11301/07/25 11:54:02 METAR KVAY 071654Z 30016G30KT 10SM CLR M02/M12 A2991 RMK AO2 PK WND 30030/1653 SLP129 T10171122
0332724074937802025010717547+39941-074841FM-15+0016KVAY V0203005N006252200059N0160935N5-00065-01115101275ADDAA101000095GA1025+014945999GD11991+0149459GE19AGL   +99999+99999GF102995999999014941999999KA1060M-00061KA2060N-00611MA1101295101095MD1890079+9999OC101345OD149901441300REMMET13401/07/25 12:54:02 METAR KVAY 071754Z 30012G26KT 10SM FEW049 M01/M11 A2991 RMK AO2 PK WND 30028/1735 SLP127 T10061111 11006 21061 58007EQDD01      0ADE726
0273724074937802025010718547+39941-074841FM-15+0016KVAY V0202905N007252200059N0160935N5+00005-01175101245ADDAA101000095GA1025+015245999GD11991+0152459GE19AGL   +99999+99999GF102995999999015241999999MA1101255101065OC101395OD149901391260REMMET11501/07/25 13:54:02 METAR KVAY 071854Z 29014G27KT 10SM FEW050 00/M12 A2990 RMK AO2 PK WND 26027/1814 SLP124 T00001117EQDD01      0ADE726
0215724074937802025010719547+39941-074841FM-15+0016KVAY V0203005N007252200059N0160935N5+00065-01115101285ADDAA101000095GA1005+999999999GD10991+9999999GF100991999999999999999999MA1101295101095OC101245REMMET11201/07/25 14:54:02 METAR KVAY 071954Z 30014G24KT 10SM CLR 01/M11 A2991 RMK AO2 PK WND 29030/1918 SLP128 T00061111
0209724074937802025010720546+39941-074841FM-15+0016KVAY V0203005N006752200059N0160935N5+00065-01175101405ADDAA101000095GA1005+999999999GD10991+9999999MA1101395101205MD1390139+9999OC101395REMMET11801/07/25 15:54:02 METAR KVAY 072054Z 30013G27KT 10SM CLR 01/M12 A2994 RMK AO2 PK WND 30032/2009 SLP140 T00061117 53013
0215724074937802025010721547+39941-074841FM-15+0016KVAY V0202905N005752200059N0160935N5+00005-01175101485ADDAA101000095GA1005+999999999GD10991+9999999GF100991999999999999999999MA1101495101305OC101345REMMET11201/07/25 16:54:02 METAR KVAY 072154Z 29011G26KT 10SM CLR 00/M12 A2997 RMK AO2 PK WND 31029/2116 SLP148 T00001117
0216724074937802025010722547+39941-074841FM-15+0016KVAY V0203005N003652200059N0160935N5-00065-01115101565ADDAA101000095GA1005+999999999GD10991+9999999GF100991999999999999999999MA1101565101375OC101345REMMET11301/07/25 17:54:02 METAR KVAY 072254Z 30007G26KT 10SM CLR M01/M11 A2999 RMK AO2 PK WND 32026/2246 SLP156 T10061111
0274724074937802025010723547+39941-074841FM-15+0016KVAY V0203005N006252200059N0160935N5-00115-01175101655ADDAA101000095GA1005+999999999GD10991+9999999GF100991999999999999999999KA1060M+00061KA2060N-00111MA1101665101475MD1390259+9999OC101495REMMET13101/07/25 18:54:02 METAR KVAY 072354Z 30012G29KT 10SM CLR M01/M12 A3002 RMK AO2 PK WND 28029/2348 SLP165 T10111117 10006 21011 53025
0216724074937802025010800547+39941-074841FM-15+0016KVAY V0202905N005752200059N0160935N5-00175-01175101725ADDAA101000095GA1005+999999999GD10991+9999999GF100991999999999999999999MA1101735101535OC101245REMMET11301/07/25 19:54:01 METAR KVAY 080054Z 29011G24KT 10SM CLR M02/M12 A3004 RMK AO2 PK WND 31027/0000 SLP172 T10171117
0198724074937802025010801547+39941-074841FM-15+0016KVAY V0203205N005152200059N0160935N5-00225-01225101745ADDAA101000095GA1005+999999999GD10991+9999999GF100991999999999999999999MA1101735101535OC100985REMMET09501/07/25 20:54:01 METAR KVAY 080154Z 32010G19KT 10SM CLR M02/M12 A3004 RMK AO2 SLP174 T10221122
0236724074937802025010802547+39941-074841FM-15+0016KVAY V0203105N005152200059N0160935N5-00285-01285101735ADDAA101000095GA1005+999999999GD10991+9999999GF100991999999999999999999MA1101735101535MD1090089+9999OC101395REMMET11901/07/25 21:54:01 METAR KVAY 080254Z 31010G27KT 10SM CLR M03/M13 A3004 RMK AO2 PK WND 32028/0210 SLP173 T10281128 50008
0198724074937802025010803547+39941-074841FM-15+0016KVAY V0203105N006752200059N0160935N5-00335-01285101775ADDAA101000095GA1005+999999999GD10991+9999999GF100991999999999999999999MA1101765101575OC101135REMMET09501/07/25 22:54:02 METAR KVAY 080354Z 31013G22KT 10SM CLR M03/M13 A3005 RMK AO2 SLP177 T10331128
0234724074937802025010804547+39941-074841FM-15+0016KVAY V0203105N005152200059N0160935N5-00335-01335101795ADDAA101000095GA1005+999999999GD10991+9999999GF100991999999999999999999KA1240M+00061KA2240N-00781MA1101795101605OC101185REMMET10501/07/25 23:54:02 METAR KVAY 080454Z 31010G23KT 10SM CLR M03/M13 A3006 RMK AO2 SLP179 T10331133 400061078
0886724074937802025010804596+39941-074841SOD  +0016KVAY V020999999999999999999999999999+99999+99999999999ADDAA124000095KA1240M+00065KA2240N-00775MG1101034100814OE11240165430015095OE22240098334001365OE33240058199999995REMSOD73024 HR PRECIPITATION (IN):0.00  24 HR MAX TEMP (F):33 24 HR MAX TEMP TIME (LST):1646 24 HR MIN TEMP (F):18 24 HR MIN TEMP TIME (LST):0227 AVERAGE STATION PRESSURE:29.835 MINIMUM SEA LEVEL PRESSURE:29.77 TIME OF OCCURRENCE:0052 PEAK WIND SPEED (MPH):37  PEAK WIND DIR (DEG):300 PEAK WIND TIME (LST):1509  FASTEST 2MIN SPEED (MPH):22 FASTEST 2MIN DIR (DEG):340 FASTEST 2MIN TIME (LST):0136 AVERAGE WIND SPEED (MPH):13.0 24 HR AVG TEMP (F):26 HEATING DEGREE DAYS:39  COOLING DEGREE DAYS:0   LATEST DAY MAX TEMP (0700-1900 LST):33  LATEST NIGHT MIN TEMP(1900-0800 LST):18 HOURLY INCREMENTAL PRECIPITATION VALUES (IN):.00 0.00 0.00 0.00 0.00 0.00 0.00 0.00 0.00 0.00 0.00 0.00 0.00 0.00 0.00 0.00 0.00 0.00 0.00 0.00 0.00 0.00 0.00 0.00EQDR01     N7GJS072R02     N7GKS075
0245724074937802025010805547+39941-074841FM-15+0016KVAY V0203005N002652200059N0160935N5-00395-01335101775ADDAA101000095GA1005+999999999GD10991+9999999GF100991999999999999999999KA1060M-00111KA2060N-00391MA1101765101575MD1090049+9999REMMET11001/08/25 00:54:02 METAR KVAY 080554Z 30005KT 10SM CLR M04/M13 A3005 RMK AO2 SLP177 T10391133 11011 21039 50004
0187724074937802025010806547+39941-074841FM-15+0016KVAY V0203005N003652200059N0160935N5-00395-01285101805ADDAA101000095GA1005+999999999GD10991+9999999GF100991999999999999999999MA1101795101605REMMET09201/08/25 01:54:02 METAR KVAY 080654Z 30007KT 10SM CLR M04/M13 A3006 RMK AO2 SLP180 T10391128
0231724074937802025010807547+39941-074841FM-15+0016KVAY V0203105N003152200059N0160935N5-00395-01335101795ADDAA101000095GA1025+014635999GD11991+0146359GE19AGL   +99999+99999GF102995999999014631999999MA1101795101605REMMET09501/08/25 02:54:02 METAR KVAY 080754Z 31006KT 10SM FEW048 M04/M13 A3006 RMK AO2 SLP179 T10391133EQDD01      0ADE726
0232724074937802025010808547+39941-074841FM-15+0016KVAY V0209999V00265014635MN0160935N5-00335-01225101755ADDAA101000095GA1075+014635999GD13991+0146359GE19AGL   +99999+99999GF199999999999014631999999MA1101765101575MD1890029+9999REMMET10101/08/25 03:54:02 METAR KVAY 080854Z VRB05KT 10SM BKN048 M03/M12 A3005 RMK AO2 SLP175 T10331122 58002
0242724074937802025010809547+39941-074841FM-15+0016KVAY V0203005N004152200059N0160935N5-00335-01285101735ADDAA101000095GA1025+014025999GD11991+0140259GE19AGL   +99999+99999GF102995999999014021999999MA1101735101535OC100885REMMET09801/08/25 04:54:02 METAR KVAY 080954Z 30008G17KT 10SM FEW046 M03/M13 A3004 RMK AO2 SLP173 T10331128EQDD01      0ADE726
0198724074937802025010810547+39941-074841FM-15+0016KVAY V0203005N005152200059N0160935N5-00335-01335101745ADDAA101000095GA1005+999999999GD10991+9999999GF100991999999999999999999MA1101735101535OC100985REMMET09501/08/25 05:54:02 METAR KVAY 081054Z 30010G19KT 10SM CLR M03/M13 A3004 RMK AO2 SLP174 T10331133
0274724074937802025010811547+39941-074841FM-15+0016KVAY V0203005N004652200059N0160935N5-00395-01395101805ADDAA101000095GA1005+999999999GD10991+9999999GF100991999999999999999999KA1060M-00281KA2060N-00441MA1101795101605MD1390049+9999OC101345REMMET13101/08/25 06:54:02 METAR KVAY 081154Z 30009G26KT 10SM CLR M04/M14 A3006 RMK AO2 PK WND 29026/1148 SLP180 T10391139 11028 21044 53004
0219724074937802025010812547+39941-074841FM-15+0016KVAY V0203105N004152200059N0160935N5-00445-01395101815ADDAA101000095GA1005+999999999GD10991+9999999GF100991999999999999999999MA1101835101645OD149901331300REMMET11001/08/25 07:54:02 METAR KVAY 081254Z 31008KT 10SM CLR M04/M14 A3007 RMK AO2 PK WND 30026/1220 SLP181 T10441139
0231724074937802025010813547+39941-074841FM-15+0016KVAY V0203205V004652200059N0160935N5-00335-01335101795ADDAA101000095GA1025+014945999GD11991+0149459GE19AGL   +99999+99999GF102995999999014941999999MA1101795101605REMMET09501/08/25 08:54:02 METAR KVAY 081354Z 32009KT 10SM FEW049 M03/M13 A3006 RMK AO2 SLP179 T10331133EQDD01      0ADE726
0294724074937802025010814547+39941-074841FM-15+0016KVAY V0203005N006252200059N0160935N5-00225-01285101785ADDAA101000095GA1045+015245999GD12991+0152459GE19AGL   +99999+99999GF104995999999015241999999MA1101795101605MD1890019+9999OC101245OD149901491310REMMET12201/08/25 09:54:02 METAR KVAY 081454Z 30012G24KT 10SM SCT050 M02/M13 A3006 RMK AO2 PK WND 31029/1435 SLP178 T10221128 58001EQDD01      0ADE726
0274724074937802025010815547+39941-074841FM-15+0016KVAY V0202905N006252200059N0160935N5-00175-01395101665ADDAA101000095GA1025+015245999GD11991+0152459GE19AGL   +99999+99999GF102995999999015241999999MA1101665101475OC101245OD149901491310REMMET11601/08/25 10:54:02 METAR KVAY 081554Z 29012G24KT 10SM FEW050 M02/M14 A3002 RMK AO2 PK WND 31029/1521 SLP166 T10171139EQDD01      0ADE726
0274724074937802025010816547+39941-074841FM-15+0016KVAY V0202905N007752200059N0160935N5-00175-01445101555ADDAA101000095GA1025+016765999GD11991+0167659GE19AGL   +99999+99999GF102995999999016761999999MA1101565101375OC101495OD149901691300REMMET11601/08/25 11:54:02 METAR KVAY 081654Z 29015G29KT 10SM FEW055 M02/M14 A2999 RMK AO2 PK WND 30033/1555 SLP155 T10171144EQDD01      0ADE726
0332724074937802025010817547+39941-074841FM-15+0016KVAY V0203005N006752200059N0160935N5-00115-01335101435ADDAA101000095GA1045+015245999GD12991+0152459GE19AGL   +99999+99999GF104995999999015241999999KA1060M-00111KA2060N-00441MA1101425101235MD1690359+9999OC101185OD149901441310REMMET13401/08/25 12:54:02 METAR KVAY 081754Z 30013G23KT 10SM SCT050 M01/M13 A2995 RMK AO2 PK WND 31028/1739 SLP143 T10111133 11011 21044 56035EQDD01      0ADE726
0230724074937802025010818547+39941-074841FM-15+0016KVAY V0203005V004652200059N0160935N5-00175-01335101335ADDAA101000095GA1005+999999999GD10991+9999999GF100991999999999999999999MA1101325101135OC101035OD149901331290REMMET11301/08/25 13:54:02 METAR KVAY 081854Z 30009G20KT 10SM CLR M02/M13 A2992 RMK AO2 PK WND 29026/1827 SLP133 T10171133
0255724074937802025010819547+39941-074841FM-15+0016KVAY V0203005V00675016765MN0160935N5-00065-01445101285ADDAA101000095GA1075+016765999GD13991+0167659GE19AGL   +99999+99999GF199999999999016761999999MA1101295101095OC101185OD149901331320REMMET11601/08/25 14:54:02 METAR KVAY 081954Z 30013G23KT 10SM BKN055 M01/M14 A2991 RMK AO2 PK WND 32026/1903 SLP128 T10061144
0243724074937802025010820547+39941-074841FM-15+0016KVAY V0202905N00465018295MN0160935N5-00115-01565101275ADDAA101000095GA1075+018295999GD13991+0182959GE19AGL   +99999+99999GF199999999999018291999999MA1101255101065MD1690169+9999OC101035REMMET10401/08/25 15:54:02 METAR KVAY 082054Z 29009G20KT 10SM BKN060 M01/M16 A2990 RMK AO2 SLP127 T10111156 56016
0242724074937802025010821547+39941-074841FM-15+0016KVAY V0203005N004152200059N0160935N5-00225-01565101275ADDAA101000095GA1025+018295999GD11991+0182959GE19AGL   +99999+99999GF102995999999018291999999MA1101255101065OC101035REMMET09801/08/25 16:54:02 METAR KVAY 082154Z 30008G20KT 10SM FEW060 M02/M16 A2990 RMK AO2 SLP127 T10221156EQDD01      0ADE726
0216724074937802025010822547+39941-074841FM-15+0016KVAY V0203005N005752200059N0160935N5-00285-01725101295ADDAA101000095GA1005+999999999GD10991+9999999GF100991999999999999999999MA1101295101095OC101295REMMET11301/08/25 17:54:02 METAR KVAY 082254Z 30011G25KT 10SM CLR M03/M17 A2991 RMK AO2 PK WND 30029/2220 SLP129 T10281172
0274724074937802025010823547+39941-074841FM-15+0016KVAY V0203105N006252200059N0160935N5-00335-01675101335ADDAA101000095GA1005+999999999GD10991+9999999GF100991999999999999999999KA1060M-00061KA2060N-00331MA1101325101135MD1390069+9999OC101395REMMET13101/08/25 18:54:02 METAR KVAY 082354Z 31012G27KT 10SM CLR M03/M17 A2992 RMK AO2 PK WND 30027/2349 SLP133 T10331167 11006 21033 53006
0198724074937802025010900547+39941-074841FM-15+0016KVAY V0203005N004152200059N0160935N5-00395-01725101365ADDAA101000095GA1005+999999999GD10991+9999999GF100991999999999999999999MA1101355101165OC100985REMMET09501/08/25 19:54:01 METAR KVAY 090054Z 30008G19KT 10SM CLR M04/M17 A2993 RMK AO2 SLP136 T10391172
0216724074937802025010901547+39941-074841FM-15+0016KVAY V0202905N007752200059N0160935N5-00445-01725101355ADDAA101000095GA1005+999999999GD10991+9999999GF100991999999999999999999MA1101355101165OC101395REMMET11301/08/25 20:54:01 METAR KVAY 090154Z 29015G27KT 10SM CLR M04/M17 A2993 RMK AO2 PK WND 30027/0154 SLP135 T10441172
0236724074937802025010902547+39941-074841FM-15+0016KVAY V0203005N004652200059N0160935N5-00505-01675101325ADDAA101000095GA1005+999999999GD10991+9999999GF100991999999999999999999MA1101325101135MD1890019+9999OC101295REMMET11901/08/25 21:54:01 METAR KVAY 090254Z 30009G25KT 10SM CLR M05/M17 A2992 RMK AO2 PK WND 31029/0226 SLP132 T10501167 58001
0216724074937802025010903547+39941-074841FM-15+0016KVAY V0202905N006252200059N0160935N5-00565-01675101325ADDAA101000095GA1005+999999999GD10991+9999999GF100991999999999999999999MA1101325101135OC101395REMMET11301/08/25 22:54:02 METAR KVAY 090354Z 29012G27KT 10SM CLR M06/M17 A2992 RMK AO2 PK WND 27027/0347 SLP132 T10561167
0252724074937802025010904547+39941-074841FM-15+0016KVAY V0203005N005152200059N0160935N5-00615-01615101255ADDAA101000095GA1005+999999999GD10991+9999999GF100991999999999999999999KA1240M-00061KA2240N-00611MA1101255101065OC101345REMMET12301/08/25 23:54:02 METAR KVAY 090454Z 30010G26KT 10SM CLR M06/M16 A2990 RMK AO2 PK WND 30026/0451 SLP125 T10611161 410061061
0886724074937802025010904596+39941-074841SOD  +0016KVAY V020999999999999999999999999999+99999+99999999999ADDAA124000095KA1240M-00055KA2240N-00605MG1101374101254OE11240165430010555OE22240093929011365OE33240050599999995REMSOD73024 HR PRECIPITATION (IN):0.00  24 HR MAX TEMP (F):31 24 HR MAX TEMP TIME (LST):1539 24 HR MIN TEMP (F):21 24 HR MIN TEMP TIME (LST):2359 AVERAGE STATION PRESSURE:29.935 MINIMUM SEA LEVEL PRESSURE:29.90 TIME OF OCCURRENCE:2359 PEAK WIND SPEED (MPH):37  PEAK WIND DIR (DEG):300 PEAK WIND TIME (LST):1055  FASTEST 2MIN SPEED (MPH):21 FASTEST 2MIN DIR (DEG):290 FASTEST 2MIN TIME (LST):1136 AVERAGE WIND SPEED (MPH):11.3 24 HR AVG TEMP (F):26 HEATING DEGREE DAYS:39  COOLING DEGREE DAYS:0   LATEST DAY MAX TEMP (0700-1900 LST):31  LATEST NIGHT MIN TEMP(1900-0800 LST):24 HOURLY INCREMENTAL PRECIPITATION VALUES (IN):.00 0.00 0.00 0.00 0.00 0.00 0.00 0.00 0.00 0.00 0.00 0.00 0.00 0.00 0.00 0.00 0.00 0.00 0.00 0.00 0.00 0.00 0.00 0.00EQDR01     N7GJS072R02     N7GKS075
0274724074937802025010905547+39941-074841FM-15+0016KVAY V0202905N006752200059N0160935N5-00675-01615101225ADDAA101000095GA1005+999999999GD10991+9999999GF100991999999999999999999KA1060M-00331KA2060N-00671MA1101225101035MD1890109+9999OC101345REMMET13101/09/25 00:54:02 METAR KVAY 090554Z 29013G26KT 10SM CLR M07/M16 A2989 RMK AO2 PK WND 29027/0530 SLP122 T10671161 11033 21067 58010
0216724074937802025010906547+39941-074841FM-15+0016KVAY V0203005N005152200059N0160935N5-00675-01565101215ADDAA101000095GA1005+999999999GD10991+9999999GF100991999999999999999999MA1101225101035OC101085REMMET11301/09/25 01:54:02 METAR KVAY 090654Z 30010G21KT 10SM CLR M07/M16 A2989 RMK AO2 PK WND 30028/0556 SLP121 T10671156
0198724074937802025010907547+39941-074841FM-15+0016KVAY V0202905N005152200059N0160935N5-00675-01615101125ADDAA101000095GA1005+999999999GD10991+9999999GF100991999999999999999999MA1101125100935OC101085REMMET09501/09/25 02:54:02 METAR KVAY 090754Z 29010G21KT 10SM CLR M07/M16 A2986 RMK AO2 SLP112 T10671161
0236724074937802025010908547+39941-074841FM-15+0016KVAY V0203005N006252200059N0160935N5-00675-01615101075ADDAA101000095GA1005+999999999GD10991+9999999GF100991999999999999999999MA1101085100895MD1890159+9999OC101295REMMET11901/09/25 03:54:02 METAR KVAY 090854Z 30012G25KT 10SM CLR M07/M16 A2985 RMK AO2 PK WND 29027/0758 SLP107 T10671161 58015
0274724074937802025010909547+39941-074841FM-15+0016KVAY V0203005N006752200059N0160935N5-00675-01615101075ADDAA101000095GA1025+028965999GD11991+0289659GE19AGL   +99999+99999GF102995999999028961999999MA1101085100895OC101445OD149901441280REMMET11601/09/25 04:54:02 METAR KVAY 090954Z 30013G28KT 10SM FEW095 M07/M16 A2985 RMK AO2 PK WND 28028/0952 SLP107 T10671161EQDD01      0ADE726
0274724074937802025010910547+39941-074841FM-15+0016KVAY V0203005N006752200059N0160935N5-00675-01615101105ADDAA101000095GA1045+030485999GD12991+0304859GE19AGL   +99999+99999GF104995999999030481999999MA1101085100895OC101345OD149901751280REMMET11601/09/25 05:54:02 METAR KVAY 091054Z 30013G26KT 10SM SCT100 M07/M16 A2985 RMK AO2 PK WND 28034/1027 SLP110 T10671161EQDD01      0ADE726
0332724074937802025010911547+39941-074841FM-15+0016KVAY V0203005V005152200059N0160935N5-00675-01615101155ADDAA101000095GA1025+036585999GD11991+0365859GE19AGL   +99999+99999GF102995999999036581999999KA1060M-00671KA2060N-00671MA1101155100965MD1390089+9999OC101245OD149901441300REMMET13401/09/25 06:54:02 METAR KVAY 091154Z 30010G24KT 10SM FEW120 M07/M16 A2987 RMK AO2 PK WND 30028/1134 SLP115 T10671161 11067 21067 53008EQDD01      0ADE726
0216724074937802025010912547+39941-074841FM-15+0016KVAY V0203005N007752200059N0160935N5-00675-01615101185ADDAA101000095GA1005+999999999GD10991+9999999GF100991999999999999999999MA1101195100995OC101295REMMET11301/09/25 07:54:02 METAR KVAY 091254Z 30015G25KT 10SM CLR M07/M16 A2988 RMK AO2 PK WND 30027/1235 SLP118 T10671161
0216724074937802025010913547+39941-074841FM-15+0016KVAY V0203005N007252200059N0160935N5-00615-01615101205ADDAA101000095GA1005+999999999GD10991+9999999GF100991999999999999999999MA1101195100995OC101605REMMET11301/09/25 08:54:02 METAR KVAY 091354Z 30014G31KT 10SM CLR M06/M16 A2988 RMK AO2 PK WND 28031/1345 SLP120 T10611161
0236724074937802025010914547+39941-074841FM-15+0016KVAY V0202905N007252200059N0160935N5-00445-01565101195ADDAA101000095GA1005+999999999GD10991+9999999GF100991999999999999999999MA1101195100995MD1090049+9999OC101495REMMET11901/09/25 09:54:02 METAR KVAY 091454Z 29014G29KT 10SM CLR M04/M16 A2988 RMK AO2 PK WND 31030/1415 SLP119 T10441156 50004
