0208724074937802024010100547+39941-074841FM-15+0016KVAY V0209999C00005015245MN9999997N5+00175-00175101665ADDAA101000095GA1085+015245999GD14991+0152459GE19AGL   +99999+99999GF199999999999015241999999MA1101665101475REMMET09112/31/23 19:54:03 METAR KVAY 010054Z 00000KT OVC050 02/M02 A3002 RMK AO2 SLP166 T00171017 $
0246724074937802024010101547+39941-074841FM-15+0016KVAY V0209999C00005014635MN9999997N5+00225-00115101665ADDAA101000095GA1075+014635999GA2085+022865999GD13991+0146359GD24991+0228659GE19AGL   +99999+99999GF199999999999014631999999MA1101665101475REMMET09812/31/23 20:54:03 METAR KVAY 010154Z 00000KT BKN048 OVC075 02/M01 A3002 RMK AO2 SLP166 T00221011 $
0228724074937802024010102547+39941-074841FM-15+0016KVAY V0209999C00005014635MN9999997N5+00285-00175101665ADDAA101000095GA1085+014635999GD14991+0146359GE19AGL   +99999+99999GF199999999999014631999999MA1101665101475MD1390019+9999REMMET09712/31/23 21:54:03 METAR KVAY 010254Z 00000KT OVC048 03/M02 A3002 RMK AO2 SLP166 T00281017 53001 $
0208724074937802024010103547+39941-074841FM-15+0016KVAY V0209999C00005015245MN9999997N5+00335-00175101695ADDAA101000095GA1085+015245999GD14991+0152459GE19AGL   +99999+99999GF199999999999015241999999MA1101695101505REMMET09112/31/23 22:54:03 METAR KVAY 010354Z 00000KT OVC050 03/M02 A3003 RMK AO2 SLP169 T00331017 $
0244724074937802024010104547+39941-074841FM-15+0016KVAY V0209999C00005016765MN9999997N5+00335-00175101675ADDAA101000095GA1085+016765999GD14991+0167659GE19AGL   +99999+99999GF199999999999016761999999KA1240M+00721KA2240N+00111MA1101665101475REMMET10112/31/23 23:54:03 METAR KVAY 010454Z 00000KT OVC055 03/M02 A3002 RMK AO2 SLP167 T00331017 400720011 $
0886724074937802024010104596+39941-074841SOD  +0016KVAY V020999999999999999999999999999+99999+99999999999ADDAA124000095KA1240M+00725KA2240N+00115MG1101294101154OE11240084926011155OE22240053627013535OE33240016599999995REMSOD73024 HR PRECIPITATION (IN):0.00  24 HR MAX TEMP (F):45 24 HR MAX TEMP TIME (LST):1454 24 HR MIN TEMP (F):34 24 HR MIN TEMP TIME (LST):1936 AVERAGE STATION PRESSURE:29.910 MINIMUM SEA LEVEL PRESSURE:29.87 TIME OF OCCURRENCE:0018 PEAK WIND SPEED (MPH):19  PEAK WIND DIR (DEG):260 PEAK WIND TIME (LST):1115  FASTEST 2MIN SPEED (MPH):12 FASTEST 2MIN DIR (DEG):270 FASTEST 2MIN TIME (LST):1353 AVERAGE WIND SPEED (MPH):3.7  24 HR AVG TEMP (F):40 HEATING DEGREE DAYS:25  COOLING DEGREE DAYS:0   LATEST DAY MAX TEMP (0700-1900 LST):45  LATEST NIGHT MIN TEMP(1900-0800 LST):39 HOURLY INCREMENTAL PRECIPITATION VALUES (IN):.00 0.00 0.00 0.00 0.00 0.00 0.00 0.00 0.00 0.00 0.00 0.00 0.00 0.00 0.00 0.00 0.00 0.00 0.00 0.00 0.00 0.00 0.00 0.00EQDR01     N7GJS072R02     N7GKS075
1262724074937802024010104596+39941-074841SOM  +0016KVAY V020999999999999999999999999999+99999+99999999999ADDAB10116196AD10054491011999999996AE1075065055015AH1005001892722295AH2010003392722355AH3015004192722365AH4020005192800215AH5030007192800315AH6045010492800455AI1060013092800455AI2080016392800565AI3100017892801095AI4120019692801245AI5150023992800535AI6180026492801245KB1744N+01225KB2744M+10065KB3744A+05675KC1N9-00332214995KC2M9+01771099995KD1744H07045KD2744C00005KE1005005155005MH1101784102004MK1104061409475098371807145REMSOM798PCP MTOT:4.57 PCP GT 24HRS:2.14 DATE(S):10-11 DAYS W/PCP >=.01:7  DAYS W/PCP >=.10:6  DAYS W/ PCP >=.50:5 DAYS W/PCP >=1.00:1 MSDP AMTS W/DATE-TIME TAGS:MIN:5 0.07  27/2229 MIN:10 0.13  27/2235 MIN:15 0.16  27/2236 MIN:20 0.20  28/0021 MIN:30 0.28  28/0031 MIN:45 0.41  28/0045 MIN:60 0.51  28/0045 MIN:80 0.64  28/0056 MIN:100 0.70  28/0109 MIN:120 0.77  28/0124 MIN:150 0.94  28/0053 MIN:180 1.04  28/0124 AVG DLY MIN:34.2  AVG DLY MAX:50.1  AVG MLY TMP:42.2  MIN TMP:26 DATE(S):22 14 MAX TMP:64  DATE(S):10 DAYS MAX <=32:0 DAYS MAX >=90:0  DAYS MIN <=32:15 DAYS MIN  <=0:0  AVG STP:30.055 LWST SLP:29.05 DATE/TIME:180714 HGST SLP:30.73 DATE/TIME:140947 HDD MTH TOT:704 DEP NORM:-2553 SEASON(JUL 1-JUN 30):1572 DEP NORM:-25536 CDD MTH TOT:0 DEP NORM:-2553 SEASON(JAN 1-DEC 31):304 DEP NORM:-25536EQDR01  4.577ABP070R02  2.147ADP081
0266724074937802024010105547+39941-074841FM-15+0016KVAY V0209999C00005016765MN9999997N5+00395-00115101615ADDAA101000095GA1085+016765999GD14991+0167659GE19AGL   +99999+99999GF199999999999016761999999KA1060M+00391KA2060N+00111MA1101635101435MD1890059+9999REMMET10901/01/24 00:54:02 METAR KVAY 010554Z 00000KT OVC055 04/M01 A3001 RMK AO2 SLP161 T00391011 10039 20011 58005 $
0208724074937802024010106547+39941-074841FM-15+0016KVAY V0209999C00005016765MN9999997N5+00395-00065101605ADDAA101000095GA1085+016765999GD14991+0167659GE19AGL   +99999+99999GF199999999999016761999999MA1101595101405REMMET09101/01/24 01:54:02 METAR KVAY 010654Z 00000KT OVC055 04/M01 A3000 RMK AO2 SLP160 T00391006 $
0207724074937802024010107547+39941-074841FM-15+0016KVAY V0209999C00005013415MN9999997N5+00395+00005101575ADDAA101000095GA1085+013415999GD14991+0134159GE19AGL   +99999+99999GF199999999999013411999999MA1101565101375REMMET09001/01/24 02:54:02 METAR KVAY 010754Z 00000KT OVC044 04/00 A2999 RMK AO2 SLP157 T00390000 $
0227724074937802024010108547+39941-074841FM-15+0016KVAY V0209999C00005013725MN9999997N5+00395+00065101545ADDAA101000095GA1085+013725999GD14991+0137259GE19AGL   +99999+99999GF199999999999013721999999MA1101565101375MD1890079+9999REMMET09601/01/24 03:54:02 METAR KVAY 010854Z 00000KT OVC045 04/01 A2999 RMK AO2 SLP154 T00390006 58007 $
0245724074937802024010109547+39941-074841FM-15+0016KVAY V0209999C00005016765MN9999997N5+00335+00065101515ADDAA101000095GA1045+013415999GA2085+016765999GD12991+0134159GD24991+0167659GE19AGL   +99999+99999GF199999999999013411999999MA1101525101335REMMET09701/01/24 04:54:02 METAR KVAY 010954Z 00000KT SCT044 OVC055 03/01 A2998 RMK AO2 SLP151 T00330006 $
0207724074937802024010110547+39941-074841FM-15+0016KVAY V0209999C00005014335MN9999997N5+00335+00115101605ADDAA101000095GA1085+014335999GD14991+0143359GE19AGL   +99999+99999GF199999999999014331999999MA1101595101405REMMET09001/01/24 05:54:02 METAR KVAY 011054Z 00000KT OVC047 03/01 A3000 RMK AO2 SLP160 T00330011 $
0370724074937802024010111547+39941-074841FM-15+0016KVAY V0209999C00005018295MN9999997N5+00335+00115101625ADDAA101000025AA206000021GA1045+011895999GA2085+018295999GD12991+0118959GD24991+0182959GE19AGL   +99999+99999GF199999999999011891999999KA1060M+00391KA2060N+00331MA1101635101435MD1390079+9999REMMET13601/01/24 06:54:02 METAR KVAY 011154Z 00000KT SCT039 OVC060 03/01 A3001 RMK AO2 RAB14E26 SLP162 P0000 60000 T00330011 10039 20033 53007 $EQDQ01  00002PRCP06Q02  00008PRCP06
0283724074937802024010112547+39941-074841FM-15+0016KVAY V0209999C00005022865MN9999997N5+00285+00175101635ADDAA101000095GA1045+014635999GA2075+022865999GA3085+036585999GD12991+0146359GD23991+0228659GD34991+0365859GE19AGL   +99999+99999GF199999999999014631999999MA1101635101435REMMET10401/01/24 07:54:02 METAR KVAY 011254Z 00000KT SCT048 BKN075 OVC120 03/02 A3001 RMK AO2 SLP163 T00280017 $
0207724074937802024010113547+39941-074841FM-15+0016KVAY V0200105N00265033535MN9999997N5+00565+00115101695ADDAA101000095GA1085+033535999GD14991+0335359GE19AGL   +99999+99999GF199999999999033531999999MA1101695101505REMMET09001/01/24 08:54:02 METAR KVAY 011354Z 01005KT OVC110 06/01 A3003 RMK AO2 SLP169 T00560011 $
0227724074937802024010114547+39941-074841FM-15+0016KVAY V0200105N00315033535MN9999997N5+00615+00115101745ADDAA101000095GA1085+033535999GD14991+0335359GE19AGL   +99999+99999GF199999999999033531999999MA1101735101535MD1390129+9999REMMET09601/01/24 09:54:02 METAR KVAY 011454Z 01006KT OVC110 06/01 A3004 RMK AO2 SLP174 T00610011 53012 $
0207724074937802024010115547+39941-074841FM-15+0016KVAY V0203605N00155011285MN9999997N5+00725+00115101715ADDAA101000095GA1085+011285999GD14991+0112859GE19AGL   +99999+99999GF199999999999011281999999MA1101735101535REMMET09001/01/24 10:54:02 METAR KVAY 011554Z 36003KT OVC037 07/01 A3004 RMK AO2 SLP171 T00720011 $
0245724074937802024010116547+39941-074841FM-15+0016KVAY V0203405N00155030485MN9999997N5+00725+00175101655ADDAA101000095GA1025+011585999GA2085+030485999GD11991+0115859GD24991+0304859GE19AGL   +99999+99999GF199999999999011581999999MA1101665101475REMMET09701/01/24 11:54:02 METAR KVAY 011654Z 34003KT FEW038 OVC100 07/02 A3002 RMK AO2 SLP165 T00720017 $
0265724074937802024010117547+39941-074841FM-15+0016KVAY V0203205N00215030485MN9999997N5+00785+00175101615ADDAA101000095GA1085+030485999GD14991+0304859GE19AGL   +99999+99999GF199999999999030481999999KA1060M+00781KA2060N+00281MA1101635101435MD1890129+9999REMMET10801/01/24 12:54:02 METAR KVAY 011754Z 32004KT OVC100 08/02 A3001 RMK AO2 SLP161 T00780017 10078 20028 58012 $
0227724074937802024010118157+39941-074841FM-16+0016KVAY V0203305N00315007625MN9999997N5+00725+00175999999ADDGA1075+007625999GA2085+028965999GD13991+0076259GD24991+0289659GE19AGL   +99999+99999GF199999999999007621999999MA1101635101435REMMET09001/01/24 13:15:02 SPECI KVAY 011815Z 33006KT BKN025 OVC095 07/02 A3001 RMK AO2 T00720017 $
0227724074937802024010118307+39941-074841FM-16+0016KVAY V0203405N00315028965MN9999997N5+00725+00115999999ADDGA1045+007625999GA2085+028965999GD12991+0076259GD24991+0289659GE19AGL   +99999+99999GF199999999999007621999999MA1101635101435REMMET09001/01/24 13:30:02 SPECI KVAY 011830Z 34006KT SCT025 OVC095 07/01 A3001 RMK AO2 T00720011 $
0245724074937802024010118547+39941-074841FM-15+0016KVAY V0203605N00215028965MN9999997N5+00725+00115101615ADDAA101000095GA1025+007325999GA2085+028965999GD11991+0073259GD24991+0289659GE19AGL   +99999+99999GF199999999999007321999999MA1101635101435REMMET09701/01/24 13:54:02 METAR KVAY 011854Z 36004KT FEW024 OVC095 07/01 A3001 RMK AO2 SLP161 T00720011 $
0227724074937802024010119177+39941-074841FM-16+0016KVAY V0200105N00265007625MN9999997N5+00725+00175999999ADDGA1075+007625999GA2085+028965999GD13991+0076259GD24991+0289659GE19AGL   +99999+99999GF199999999999007621999999MA1101635101435REMMET09001/01/24 14:17:02 SPECI KVAY 011917Z 01005KT BKN025 OVC095 07/02 A3001 RMK AO2 T00720017 $
0245724074937802024010119547+39941-074841FM-15+0016KVAY V0200205N00215007925MN9999997N5+00725+00175101635ADDAA101000095GA1075+007925999GA2085+028965999GD13991+0079259GD24991+0289659GE19AGL   +99999+99999GF199999999999007921999999MA1101635101435REMMET09701/01/24 14:54:02 METAR KVAY 011954Z 02004KT BKN026 OVC095 07/02 A3001 RMK AO2 SLP163 T00720017 $
0227724074937802024010120057+39941-074841FM-16+0016KVAY V0203605N00155028965MN9999997N5+00725+00175999999ADDGA1045+007925999GA2085+028965999GD12991+0079259GD24991+0289659GE19AGL   +99999+99999GF199999999999007921999999MA1101665101475REMMET09001/01/24 15:05:02 SPECI KVAY 012005Z 36003KT SCT026 OVC095 07/02 A3002 RMK AO2 T00720017 $
0174724074937802024010120526+39941-074841FM-16+0016KVAY V0200305N00155008535MN9999997N5+00705+00205999999ADDGA1075+008535999GA2085+010065999GD13991+0085359GD24991+0100659MA1101665101475REMMET08501/01/24 15:52:02 SPECI KVAY 012052Z 03003KT BKN028 OVC033 07/02 A3002 RMK AO2 $ FIBI
0265724074937802024010120547+39941-074841FM-15+0016KVAY V0200305N00215008535MN9999997N5+00725+00175101675ADDAA101000095GA1075+008535999GA2085+010065999GD13991+0085359GD24991+0100659GE19AGL   +99999+99999GF199999999999008531999999MA1101665101475MD1390049+9999REMMET10301/01/24 15:54:02 METAR KVAY 012054Z 03004KT BKN028 OVC033 07/02 A3002 RMK AO2 SLP167 T00720017 53004 $
0227724074937802024010121027+39941-074841FM-16+0016KVAY V0203605N00215010065MN9999997N5+00725+00175999999ADDGA1025+008235999GA2085+010065999GD11991+0082359GD24991+0100659GE19AGL   +99999+99999GF199999999999008231999999MA1101665101475REMMET09001/01/24 16:02:02 SPECI KVAY 012102Z 36004KT FEW027 OVC033 07/02 A3002 RMK AO2 T00720017 $
0245724074937802024010121547+39941-074841FM-15+0016KVAY V0203205N00155027435MN9999997N5+00675+00115101715ADDAA101000095GA1025+012195999GA2085+027435999GD11991+0121959GD24991+0274359GE19AGL   +99999+99999GF199999999999012191999999MA1101735101535REMMET09701/01/24 16:54:02 METAR KVAY 012154Z 32003KT FEW040 OVC090 07/01 A3004 RMK AO2 SLP171 T00670011 $
0207724074937802024010122547+39941-074841FM-15+0016KVAY V0203405N00215028965MN9999997N5+00615+00115101745ADDAA101000095GA1085+028965999GD14991+0289659GE19AGL   +99999+99999GF199999999999028961999999MA1101735101535REMMET09001/01/24 17:54:02 METAR KVAY 012254Z 34004KT OVC095 06/01 A3004 RMK AO2 SLP174 T00610011 $
0265724074937802024010123547+39941-074841FM-15+0016KVAY V0203205N00155028965MN9999997N5+00615+00175101775ADDAA101000095GA1085+028965999GD14991+0289659GE19AGL   +99999+99999GF199999999999028961999999KA1060M+00781KA2060N+00561MA1101765101575MD1190119+9999REMMET10801/01/24 18:54:02 METAR KVAY 012354Z 32003KT OVC095 06/02 A3005 RMK AO2 SLP177 T00610017 10078 20056 51011 $
0207724074937802024010200547+39941-074841FM-15+0016KVAY V0203405N00265027435MN9999997N5+00565+00115101825ADDAA101000095GA1085+027435999GD14991+0274359GE19AGL   +99999+99999GF199999999999027431999999MA1101835101645REMMET09001/01/24 19:54:01 METAR KVAY 020054Z 34005KT OVC090 06/01 A3007 RMK AO2 SLP182 T00560011 $
0207724074937802024010201547+39941-074841FM-15+0016KVAY V0203605N00365030485MN9999997N5+00565+00005101855ADDAA101000095GA1085+030485999GD14991+0304859GE19AGL   +99999+99999GF199999999999030481999999MA1101865101675REMMET09001/01/24 20:54:01 METAR KVAY 020154Z 36007KT OVC100 06/00 A3008 RMK AO2 SLP185 T00560000 $
0266724074937802024010202547+39941-074841FM-15+0016KVAY V0203605N00315030485MN9999997N5+00505-00115101875ADDAA101000095GA1045+024385999GA2085+030485999GD12991+0243859GD24991+0304859GE19AGL   +99999+99999GF199999999999024381999999MA1101865101675MD1190109+9999REMMET10401/01/24 21:54:01 METAR KVAY 020254Z 36006KT SCT080 OVC100 05/M01 A3008 RMK AO2 SLP187 T00501011 51010 $
0227724074937802024010203547+39941-074841FM-15+0016KVAY V0203505N002652200059N9999997N5+00285-00225101885ADDAA101000095GA1025+030485999GD11991+0304859GE19AGL   +99999+99999GF102995999999030481999999MA1101905101705REMMET09101/01/24 22:54:01 METAR KVAY 020354Z 35005KT FEW100 03/M02 A3009 RMK AO2 SLP188 T00281022 $EQDD01      0ADE726
0219724074937802024010204547+39941-074841FM-15+0016KVAY V0203505N002652200059N9999997N5+00175-00285101875ADDAA101000095GA1005+999999999GD10991+9999999GF100991999999999999999999KA1240M+00781KA2240N+00171MA1101865101675REMMET09801/01/24 23:54:02 METAR KVAY 020454Z 35005KT CLR 02/M03 A3008 RMK AO2 SLP187 T00171028 400780017 $
0886724074937802024010204596+39941-074841SOD  +0016KVAY V020999999999999999999999999999+99999+99999999999ADDAA124000025KA1240M+00785KA2240N+00175MG1101444101494OE11240062636022095OE22240044735022105OE33240015299999995REMSOD73024 HR PRECIPITATION (IN):T     24 HR MAX TEMP (F):46 24 HR MAX TEMP TIME (LST):1311 24 HR MIN TEMP (F):35 24 HR MIN TEMP TIME (LST):2359 AVERAGE STATION PRESSURE:29.955 MINIMUM SEA LEVEL PRESSURE:29.97 TIME OF OCCURRENCE:0524 PEAK WIND SPEED (MPH):14  PEAK WIND DIR (DEG):360 PEAK WIND TIME (LST):2209  FASTEST 2MIN SPEED (MPH):10 FASTEST 2MIN DIR (DEG):350 FASTEST 2MIN TIME (LST):2210 AVERAGE WIND SPEED (MPH):3.4  24 HR AVG TEMP (F):41 HEATING DEGREE DAYS:24  COOLING DEGREE DAYS:0   LATEST DAY MAX TEMP (0700-1900 LST):46  LATEST NIGHT MIN TEMP(1900-0800 LST):34 HOURLY INCREMENTAL PRECIPITATION VALUES (IN):.00 0.00 0.00 0.00 0.00 0.00 T    0.00 0.00 0.00 0.00 0.00 0.00 0.00 0.00 0.00 0.00 0.00 0.00 0.00 0.00 0.00 0.00 0.00EQDR01     N7GJS072R02     N7GKS075
0276724074937802024010205547+39941-074841FM-15+0016KVAY V0203305N002652200059N9999997N5+00115-00285101885ADDAA101000095GA1005+999999999GD10991+9999999GF100991999999999999999999KA1060M+00611KA2060N+00111MA1101865101675MD1190009+9999REMMET10601/02/24 00:54:02 METAR KVAY 020554Z 33005KT CLR 01/M03 A3008 RMK AO2 SLP188 T00111028 10061 20011 51000 $EQDQ010     3APC3  Q021     3APCTEN
0183724074937802024010206547+39941-074841FM-15+0016KVAY V0203305N003652200059N9999997N5+00115-00335101895ADDAA101000095GA1005+999999999GD10991+9999999GF100991999999999999999999MA1101905101705REMMET08801/02/24 01:54:02 METAR KVAY 020654Z 33007KT CLR 01/M03 A3009 RMK AO2 SLP189 T00111033 $
0183724074937802024010207547+39941-074841FM-15+0016KVAY V0203205N002152200059N9999997N5+00065-00395101935ADDAA101000095GA1005+999999999GD10991+9999999GF100991999999999999999999MA1101935101745REMMET08801/02/24 02:54:02 METAR KVAY 020754Z 32004KT CLR 01/M04 A3010 RMK AO2 SLP193 T00061039 $
0203724074937802024010208547+39941-074841FM-15+0016KVAY V0203305N002652200059N9999997N5+00005-00445101935ADDAA101000095GA1005+999999999GD10991+9999999GF100991999999999999999999MA1101935101745MD1190059+9999REMMET09401/02/24 03:54:02 METAR KVAY 020854Z 33005KT CLR 00/M04 A3010 RMK AO2 SLP193 T00001044 51005 $
0184724074937802024010209547+39941-074841FM-15+0016KVAY V0203405N002652200059N9999997N5-00115-00505101925ADDAA101000095GA1005+999999999GD10991+9999999GF100991999999999999999999MA1101935101745REMMET08901/02/24 04:54:02 METAR KVAY 020954Z 34005KT CLR M01/M05 A3010 RMK AO2 SLP192 T10111050 $
0184724074937802024010210547+39941-074841FM-15+0016KVAY V0209999C000052200059N9999997N5-00225-00505102005ADDAA101000095GA1005+999999999GD10991+9999999GF100991999999999999999999MA1102005101805REMMET08901/02/24 05:54:02 METAR KVAY 021054Z 00000KT CLR M02/M05 A3012 RMK AO2 SLP200 T10221050 $
0242724074937802024010211547+39941-074841FM-15+0016KVAY V0209999C000052200059N9999997N5-00225-00565102055ADDAA101000095GA1005+999999999GD10991+9999999GF100991999999999999999999KA1060M+00171KA2060N-00281MA1102075101875MD1390129+9999REMMET10701/02/24 06:54:02 METAR KVAY 021154Z 00000KT CLR M02/M06 A3014 RMK AO2 SLP205 T10221056 10017 21028 53012 $
0184724074937802024010212547+39941-074841FM-15+0016KVAY V0203405N001552200059N9999997N5-00225-00565102085ADDAA101000095GA1005+999999999GD10991+9999999GF100991999999999999999999MA1102105101915REMMET08901/02/24 07:54:02 METAR KVAY 021254Z 34003KT CLR M02/M06 A3015 RMK AO2 SLP208 T10221056 $
0137724074937802024010213526+39941-074841FM-16+0016KVAY V0203505N00315008535MN9999997N5+00105-00405999999ADDGA1075+008535999GD13991+0085359MA1102135101945REMMET07901/02/24 08:52:02 SPECI KVAY 021352Z 35006KT BKN028 01/M04 A3016 RMK AO2 $ FIBI
0208724074937802024010213547+39941-074841FM-15+0016KVAY V0203505N00265008535MN9999997N5+00005-00445102135ADDAA101000095GA1075+008535999GD13991+0085359GE19AGL   +99999+99999GF199999999999008531999999MA1102135101945REMMET09101/02/24 08:54:02 METAR KVAY 021354Z 35005KT BKN028 00/M04 A3016 RMK AO2 SLP213 T00001044 $
0226724074937802024010214547+39941-074841FM-15+0016KVAY V0203505N00265008845MN9999997N5+00175-00445102155ADDAA101000095GA1075+008845999GD13991+0088459GE19AGL   +99999+99999GF199999999999008841999999MA1102175101975MD1190109+9999REMMET09501/02/24 09:54:02 METAR KVAY 021454Z 35005KT BKN029 02/M04 A3017 RMK AO2 SLP215 T00171044 51010
0207724074937802024010215017+39941-074841FM-16+0016KVAY V0209999V002152200059N9999997N5+00175-00505999999ADDGA1045+008845999GD12991+0088459GE19AGL   +99999+99999GF104995999999008841999999MA1102135101945REMMET08201/02/24 10:01:02 SPECI KVAY 021501Z VRB04KT SCT029 02/M05 A3016 RMK AO2 T00171050EQDD01      0ADE726
0181724074937802024010215547+39941-074841FM-15+0016KVAY V0203205N004652200059N9999997N5+00335-00445102085ADDAA101000095GA1005+999999999GD10991+9999999GF100991999999999999999999MA1102075101875REMMET08601/02/24 10:54:02 METAR KVAY 021554Z 32009KT CLR 03/M04 A3014 RMK AO2 SLP208 T00331044
0181724074937802024010216547+39941-074841FM-15+0016KVAY V0203205N004652200059N9999997N5+00445-00395101935ADDAA101000095GA1005+999999999GD10991+9999999GF100991999999999999999999MA1101935101745REMMET08601/02/24 11:54:02 METAR KVAY 021654Z 32009KT CLR 04/M04 A3010 RMK AO2 SLP193 T00441039
0239724074937802024010217547+39941-074841FM-15+0016KVAY V0203205N004652200059N9999997N5+00505-00445101805ADDAA101000095GA1005+999999999GD10991+9999999GF100991999999999999999999KA1060M+00501KA2060N-00281MA1101795101605MD1890369+9999REMMET10401/02/24 12:54:02 METAR KVAY 021754Z 32009KT CLR 05/M04 A3006 RMK AO2 SLP180 T00501044 10050 21028 58036
0192724074937802024010218547+39941-074841FM-15+0016KVAY V0203205N004652200059N9999997N5+00615-00445101735ADDAA101000095GA1005+999999999GD10991+9999999GF100991999999999999999999MA1101735101535OC100775REMMET08901/02/24 13:54:02 METAR KVAY 021854Z 32009G15KT CLR 06/M04 A3004 RMK AO2 SLP173 T00611044
0192724074937802024010219547+39941-074841FM-15+0016KVAY V0202905N004152200059N9999997N5+00675-00395101705ADDAA101000095GA1005+999999999GD10991+9999999GF100991999999999999999999MA1101695101505OC100775REMMET08901/02/24 14:54:02 METAR KVAY 021954Z 29008G15KT CLR 07/M04 A3003 RMK AO2 SLP170 T00671039
0201724074937802024010220547+39941-074841FM-15+0016KVAY V0202705N003652200059N9999997N5+00615-00395101705ADDAA101000095GA1005+999999999GD10991+9999999GF100991999999999999999999MA1101695101505MD1590099+9999REMMET09201/02/24 15:54:02 METAR KVAY 022054Z 27007KT CLR 06/M04 A3003 RMK AO2 SLP170 T00611039 55009
0181724074937802024010221547+39941-074841FM-15+0016KVAY V0202805N002152200059N9999997N5+00505-00505101735ADDAA101000095GA1005+999999999GD10991+9999999GF100991999999999999999999MA1101735101535REMMET08601/02/24 16:54:02 METAR KVAY 022154Z 28004KT CLR 05/M05 A3004 RMK AO2 SLP173 T00501050
0181724074937802024010222547+39941-074841FM-15+0016KVAY V0209999C000052200059N9999997N5+00395-00505101755ADDAA101000095GA1005+999999999GD10991+9999999GF100991999999999999999999MA1101765101575REMMET08601/02/24 17:54:02 METAR KVAY 022254Z 00000KT CLR 04/M05 A3005 RMK AO2 SLP175 T00391050
0239724074937802024010223547+39941-074841FM-15+0016KVAY V0209999C000052200059N9999997N5+00065-00395101765ADDAA101000095GA1005+999999999GD10991+9999999GF100991999999999999999999KA1060M+00721KA2060N+00061MA1101765101575MD1190069+9999REMMET10401/02/24 18:54:02 METAR KVAY 022354Z 00000KT CLR 01/M04 A3005 RMK AO2 SLP176 T00061039 10072 20006 51006
0181724074937802024010300547+39941-074841FM-15+0016KVAY V0202505N001552200059N9999997N5+00065-00445101775ADDAA101000095GA1005+999999999GD10991+9999999GF100991999999999999999999MA1101765101575REMMET08601/02/24 19:54:01 METAR KVAY 030054Z 25003KT CLR 01/M04 A3005 RMK AO2 SLP177 T00061044
0181724074937802024010301547+39941-074841FM-15+0016KVAY V0202605N002152200059N9999997N5+00285-00395101795ADDAA101000095GA1005+999999999GD10991+9999999GF100991999999999999999999MA1101795101605REMMET08601/02/24 20:54:01 METAR KVAY 030154Z 26004KT CLR 03/M04 A3006 RMK AO2 SLP179 T00281039
0201724074937802024010302547+39941-074841FM-15+0016KVAY V0202905N002152200059N9999997N5+00285-00395101785ADDAA101000095GA1005+999999999GD10991+9999999GF100991999999999999999999MA1101765101575MD1090019+9999REMMET09201/02/24 21:54:01 METAR KVAY 030254Z 29004KT CLR 03/M04 A3005 RMK AO2 SLP178 T00281039 50001
0181724074937802024010303547+39941-074841FM-15+0016KVAY V0209999C000052200059N9999997N5+00225-00395101785ADDAA101000095GA1005+999999999GD10991+9999999GF100991999999999999999999MA1101795101605REMMET08601/02/24 22:54:01 METAR KVAY 030354Z 00000KT CLR 02/M04 A3006 RMK AO2 SLP178 T00221039
0217724074937802024010304547+39941-074841FM-15+0016KVAY V0202505N001552200059N9999997N5+00115-00395101785ADDAA101000095GA1005+999999999GD10991+9999999GF100991999999999999999999KA1240M+00721KA2240N-00281MA1101765101575REMMET09601/02/24 23:54:02 METAR KVAY 030454Z 25003KT CLR 01/M04 A3005 RMK AO2 SLP178 T00111039 400721028
0886724074937802024010304596+39941-074841SOD  +0016KVAY V020999999999999999999999999999+99999+99999999999ADDAA124000095KA1240M+00725KA2240N-00275MG1101664101694OE11240084934011125OE22240062633011135OE33240023299999995REMSOD73024 HR PRECIPITATION (IN):0.00  24 HR MAX TEMP (F):45 24 HR MAX TEMP TIME (LST):1426 24 HR MIN TEMP (F):27 24 HR MIN TEMP TIME (LST):0726 AVERAGE STATION PRESSURE:30.020 MINIMUM SEA LEVEL PRESSURE:30.03 TIME OF OCCURRENCE:1626 PEAK WIND SPEED (MPH):19  PEAK WIND DIR (DEG):340 PEAK WIND TIME (LST):1112  FASTEST 2MIN SPEED (MPH):14 FASTEST 2MIN DIR (DEG):330 FASTEST 2MIN TIME (LST):1113 AVERAGE WIND SPEED (MPH):5.2  24 HR AVG TEMP (F):36 HEATING DEGREE DAYS:29  COOLING DEGREE DAYS:0   LATEST DAY MAX TEMP (0700-1900 LST):45  LATEST NIGHT MIN TEMP(1900-0800 LST):27 HOURLY INCREMENTAL PRECIPITATION VALUES (IN):.00 0.00 0.00 0.00 0.00 0.00 0.00 0.00 0.00 0.00 0.00 0.00 0.00 0.00 0.00 0.00 0.00 0.00 0.00 0.00 0.00 0.00 0.00 0.00EQDR01     N7GJS072R02     N7GKS075
0239724074937802024010305547+39941-074841FM-15+0016KVAY V0202805N002652200059N9999997N5+00115-00395101755ADDAA101000095GA1005+999999999GD10991+9999999GF100991999999999999999999KA1060M+00281KA2060N+00001MA1101765101575MD1890039+9999REMMET10401/03/24 00:54:02 METAR KVAY 030554Z 28005KT CLR 01/M04 A3005 RMK AO2 SLP175 T00111039 10028 20000 58003
0181724074937802024010306547+39941-074841FM-15+0016KVAY V0202605N002152200059N9999997N5+00005-00395101765ADDAA101000095GA1005+999999999GD10991+9999999GF100991999999999999999999MA1101765101575REMMET08601/03/24 01:54:02 METAR KVAY 030654Z 26004KT CLR 00/M04 A3005 RMK AO2 SLP176 T00001039
0181724074937802024010307547+39941-074841FM-15+0016KVAY V0202705N002152200059N9999997N5+00005-00395101775ADDAA101000095GA1005+999999999GD10991+9999999GF100991999999999999999999MA1101765101575REMMET08601/03/24 02:54:02 METAR KVAY 030754Z 27004KT CLR 00/M04 A3005 RMK AO2 SLP177 T00001039
0201724074937802024010308547+39941-074841FM-15+0016KVAY V0202705N002152200059N9999997N5+00005-00395101735ADDAA101000095GA1005+999999999GD10991+9999999GF100991999999999999999999MA1101735101535MD1890019+9999REMMET09201/03/24 03:54:02 METAR KVAY 030854Z 27004KT CLR 00/M04 A3004 RMK AO2 SLP173 T00001039 58001
0184724074937802024010309547+39941-074841FM-15+0016KVAY V0202605N001552200059N9999997N5-00065-00395101755ADDAA101000095GA1005+999999999GD10991+9999999GF100991999999999999999999MA1101765101575REMMET08901/03/24 04:54:02 METAR KVAY 030954Z 26003KT CLR M01/M04 A3005 RMK AO2 SLP175 T10061039 $
0184724074937802024010310547+39941-074841FM-15+0016KVAY V0209999C000052200059N9999997N5-00175-00445101795ADDAA101000095GA1005+999999999GD10991+9999999GF100991999999999999999999MA1101795101605REMMET08901/03/24 05:54:02 METAR KVAY 031054Z 00000KT CLR M02/M04 A3006 RMK AO2 SLP179 T10171044 $
0242724074937802024010311547+39941-074841FM-15+0016KVAY V0202505N001552200059N9999997N5-00175-00445101855ADDAA101000095GA1005+999999999GD10991+9999999GF100991999999999999999999KA1060M+00111KA2060N-00221MA1101865101675MD1390129+9999REMMET10701/03/24 06:54:02 METAR KVAY 031154Z 25003KT CLR M02/M04 A3008 RMK AO2 SLP185 T10171044 10011 21022 53012 $
0184724074937802024010312547+39941-074841FM-15+0016KVAY V0202605N002152200059N9999997N5-00065-00395101915ADDAA101000095GA1005+999999999GD10991+9999999GF100991999999999999999999MA1101905101705REMMET08901/03/24 07:54:02 METAR KVAY 031254Z 26004KT CLR M01/M04 A3009 RMK AO2 SLP191 T10061039 $
0183724074937802024010313547+39941-074841FM-15+0016KVAY V0202505N001552200059N9999997N5+00065-00335101935ADDAA101000095GA1005+999999999GD10991+9999999GF100991999999999999999999MA1101935101745REMMET08801/03/24 08:54:02 METAR KVAY 031354Z 25003KT CLR 01/M03 A3010 RMK AO2 SLP193 T00061033 $
0203724074937802024010314547+39941-074841FM-15+0016KVAY V0202505N002152200059N9999997N5+00285-00335101915ADDAA101000095GA1005+999999999GD10991+9999999GF100991999999999999999999MA1101905101705MD1090069+9999REMMET09401/03/24 09:54:02 METAR KVAY 031454Z 25004KT CLR 03/M03 A3009 RMK AO2 SLP191 T00281033 50006 $
0183724074937802024010315547+39941-074841FM-15+0016KVAY V0203605N002152200059N9999997N5+00445-00335101875ADDAA101000095GA1005+999999999GD10991+9999999GF100991999999999999999999MA1101865101675REMMET08801/03/24 10:54:02 METAR KVAY 031554Z 36004KT CLR 04/M03 A3008 RMK AO2 SLP187 T00441033 $
0183724074937802024010316547+39941-074841FM-15+0016KVAY V0203005N003652200059N9999997N5+00505-00335101815ADDAA101000095GA1005+999999999GD10991+9999999GF100991999999999999999999MA1101795101605REMMET08801/03/24 11:54:02 METAR KVAY 031654Z 30007KT CLR 05/M03 A3006 RMK AO2 SLP181 T00501033 $
0241724074937802024010317547+39941-074841FM-15+0016KVAY V0202605N003652200059N9999997N5+00565-00335101735ADDAA101000095GA1005+999999999GD10991+9999999GF100991999999999999999999KA1060M+00561KA2060N-00171MA1101735101535MD1890189+9999REMMET10601/03/24 12:54:02 METAR KVAY 031754Z 26007KT CLR 06/M03 A3004 RMK AO2 SLP173 T00561033 10056 21017 58018 $
0183724074937802024010318547+39941-074841FM-15+0016KVAY V0202605N002652200059N9999997N5+00615-00285101645ADDAA101000095GA1005+999999999GD10991+9999999GF100991999999999999999999MA1101665101475REMMET08801/03/24 13:54:02 METAR KVAY 031854Z 26005KT CLR 06/M03 A3002 RMK AO2 SLP164 T00611028 $
0183724074937802024010319547+39941-074841FM-15+0016KVAY V0209999V002152200059N9999997N5+00675-00285101595ADDAA101000095GA1005+999999999GD10991+9999999GF100991999999999999999999MA1101595101405REMMET08801/03/24 14:54:02 METAR KVAY 031954Z VRB04KT CLR 07/M03 A3000 RMK AO2 SLP159 T00671028 $
0203724074937802024010320547+39941-074841FM-15+0016KVAY V0209999V002152200059N9999997N5+00615-00335101605ADDAA101000095GA1005+999999999GD10991+9999999GF100991999999999999999999MA1101595101405MD1590139+9999REMMET09401/03/24 15:54:02 METAR KVAY 032054Z VRB04KT CLR 06/M03 A3000 RMK AO2 SLP160 T00611033 55013 $
0183724074937802024010321547+39941-074841FM-15+0016KVAY V0209999C000052200059N9999997N5+00395-00285101655ADDAA101000095GA1005+999999999GD10991+9999999GF100991999999999999999999MA1101665101475REMMET08801/03/24 16:54:02 METAR KVAY 032154Z 00000KT CLR 04/M03 A3002 RMK AO2 SLP165 T00391028 $
0183724074937802024010322547+39941-074841FM-15+0016KVAY V0209999C000052200059N9999997N5+00175-00285101665ADDAA101000095GA1005+999999999GD10991+9999999GF100991999999999999999999MA1101665101475REMMET08801/03/24 17:54:02 METAR KVAY 032254Z 00000KT CLR 02/M03 A3002 RMK AO2 SLP166 T00171028 $
0241724074937802024010323547+39941-074841FM-15+0016KVAY V0209999C000052200059N9999997N5+00065-00285101675ADDAA101000095GA1005+999999999GD10991+9999999GF100991999999999999999999KA1060M+00721KA2060N+00061MA1101665101475MD1190079+9999REMMET10601/03/24 18:54:02 METAR KVAY 032354Z 00000KT CLR 01/M03 A3002 RMK AO2 SLP167 T00061028 10072 20006 51007 $
0183724074937802024010400547+39941-074841FM-15+0016KVAY V0209999C000052200059N9999997N5+00065-00335101655ADDAA101000095GA1005+999999999GD10991+9999999GF100991999999999999999999MA1101665101475REMMET08801/03/24 19:54:01 METAR KVAY 040054Z 00000KT CLR 01/M03 A3002 RMK AO2 SLP165 T00061033 $
0183724074937802024010401547+39941-074841FM-15+0016KVAY V0209999C000052200059N9999997N5+00005-00285101605ADDAA101000095GA1005+999999999GD10991+9999999GF100991999999999999999999MA1101595101405REMMET08801/03/24 20:54:01 METAR KVAY 040154Z 00000KT CLR 00/M03 A3000 RMK AO2 SLP160 T00001028 $
0203724074937802024010402547+39941-074841FM-15+0016KVAY V0209999C000052200059N9999997N5+00005-00285101615ADDAA101000095GA1005+999999999GD10991+9999999GF100991999999999999999999MA1101635101435MD1590069+9999REMMET09401/03/24 21:54:01 METAR KVAY 040254Z 00000KT CLR 00/M03 A3001 RMK AO2 SLP161 T00001028 55006 $
0184724074937802024010403547+39941-074841FM-15+0016KVAY V0209999C000052200059N9999997N5-00065-00285101645ADDAA101000095GA1005+999999999GD10991+9999999GF100991999999999999999999MA1101635101435REMMET08901/03/24 22:54:01 METAR KVAY 040354Z 00000KT CLR M01/M03 A3001 RMK AO2 SLP164 T10061028 $
0220724074937802024010404547+39941-074841FM-15+0016KVAY V0209999C000052200059N9999997N5-00065-00285101605ADDAA101000095GA1005+999999999GD10991+9999999GF100991999999999999999999KA1240M+00721KA2240N-00221MA1101595101405REMMET09901/03/24 23:54:02 METAR KVAY 040454Z 00000KT CLR M01/M03 A3000 RMK AO2 SLP160 T10061028 400721022 $
0886724074937802024010404596+39941-074841SOD  +0016KVAY V020999999999999999999999999999+99999+99999999999ADDAA124000095KA1240M+00725KA2240N-00215MG1101544101564OE11240067130011375OE22240044726014395OE33240013999999995REMSOD73024 HR PRECIPITATION (IN):0.00  24 HR MAX TEMP (F):45 24 HR MAX TEMP TIME (LST):1347 24 HR MIN TEMP (F):28 24 HR MIN TEMP TIME (LST):0602 AVERAGE STATION PRESSURE:29.985 MINIMUM SEA LEVEL PRESSURE:29.99 TIME OF OCCURRENCE:1537 PEAK WIND SPEED (MPH):15  PEAK WIND DIR (DEG):300 PEAK WIND TIME (LST):1137  FASTEST 2MIN SPEED (MPH):10 FASTEST 2MIN DIR (DEG):260 FASTEST 2MIN TIME (LST):1439 AVERAGE WIND SPEED (MPH):3.1  24 HR AVG TEMP (F):37 HEATING DEGREE DAYS:28  COOLING DEGREE DAYS:0   LATEST DAY MAX TEMP (0700-1900 LST):45  LATEST NIGHT MIN TEMP(1900-0800 LST):28 HOURLY INCREMENTAL PRECIPITATION VALUES (IN):.00 0.00 0.00 0.00 0.00 0.00 0.00 0.00 0.00 0.00 0.00 0.00 0.00 0.00 0.00 0.00 0.00 0.00 0.00 0.00 0.00 0.00 0.00 0.00EQDR01     N7GJS072R02     N7GKS075
0246724074937802024010405547+39941-074841FM-15+0016KVAY V0209999C000052200059N0160935N5+00005-00225101555ADDAA101000095GA1005+999999999GD10991+9999999GF100991999999999999999999KA1060M+00061KA2060N-00061MA1101565101375MD1890069+9999REMMET11101/04/24 00:54:02 METAR KVAY 040554Z 00000KT 10SM CLR 00/M02 A2999 RMK AO2 SLP155 T00001022 10006 21006 58006 $
0213724074937802024010406547+39941-074841FM-15+0016KVAY V0209999C00005033535MN0160935N5+00005-00225101525ADDAA101000095GA1075+033535999GD13991+0335359GE19AGL   +99999+99999GF199999999999033531999999MA1101525101335REMMET09601/04/24 01:54:02 METAR KVAY 040654Z 00000KT 10SM BKN110 00/M02 A2998 RMK AO2 SLP152 T00001022 $
0213724074937802024010407547+39941-074841FM-15+0016KVAY V0209999C00005033535MN0160935N5+00005-00175101455ADDAA101000095GA1085+033535999GD14991+0335359GE19AGL   +99999+99999GF199999999999033531999999MA1101465101265REMMET09601/04/24 02:54:02 METAR KVAY 040754Z 00000KT 10SM OVC110 00/M02 A2996 RMK AO2 SLP145 T00001017 $
0233724074937802024010408547+39941-074841FM-15+0016KVAY V0209999C00005033535MN0160935N5+00005-00175101425ADDAA101000095GA1075+033535999GD13991+0335359GE19AGL   +99999+99999GF199999999999033531999999MA1101425101235MD1790139+9999REMMET10201/04/24 03:54:02 METAR KVAY 040854Z 00000KT 10SM BKN110 00/M02 A2995 RMK AO2 SLP142 T00001017 57013 $
0213724074937802024010409547+39941-074841FM-15+0016KVAY V0209999C00005033535MN0160935N5+00005-00225101405ADDAA101000095GA1085+033535999GD14991+0335359GE19AGL   +99999+99999GF199999999999033531999999MA1101395101205REMMET09601/04/24 04:54:02 METAR KVAY 040954Z 00000KT 10SM OVC110 00/M02 A2994 RMK AO2 SLP140 T00001022 $
0213724074937802024010410547+39941-074841FM-15+0016KVAY V0209999C00005028965MN0160935N5+00005-00175101405ADDAA101000095GA1085+028965999GD14991+0289659GE19AGL   +99999+99999GF199999999999028961999999MA1101395101205REMMET09601/04/24 05:54:02 METAR KVAY 041054Z 00000KT 10SM OVC095 00/M02 A2994 RMK AO2 SLP140 T00001017 $
0347724074937802024010411547+39941-074841FM-15+0016KVAY V0209999C00005028965MN0160935N5+00005-00175101465ADDAA101000095GA1025+013725999GA2025+024385999GA3085+028965999GD11991+0137259GD21991+0243859GD34991+0289659GE19AGL   +99999+99999GF199999999999013721999999KA1060M+00061KA2060N-00061MA1101465101265MD1390049+9999REMMET12801/04/24 06:54:02 METAR KVAY 041154Z 00000KT 10SM FEW045 FEW080 OVC095 00/M02 A2996 RMK AO2 SLP146 T00001017 10006 21006 53004 $
0213724074937802024010412547+39941-074841FM-15+0016KVAY V0209999C00005016765MN0160935N5+00065-00115101505ADDAA101000095GA1085+016765999GD14991+0167659GE19AGL   +99999+99999GF199999999999016761999999MA1101495101305REMMET09601/04/24 07:54:02 METAR KVAY 041254Z 00000KT 10SM OVC055 01/M01 A2997 RMK AO2 SLP150 T00061011 $
0211724074937802024010413547+39941-074841FM-15+0016KVAY V0209999C00005018295MN0160935N5+00115-00065101535ADDAA101000095GA1085+018295999GD14991+0182959GE19AGL   +99999+99999GF199999999999018291999999MA1101525101335REMMET09401/04/24 08:54:02 METAR KVAY 041354Z 00000KT 10SM OVC060 01/M01 A2998 RMK AO2 SLP153 T00111006
0230724074937802024010414547+39941-074841FM-15+0016KVAY V0209999C00005019815MN0144845N5+00335-00065101585ADDAA101000095GA1085+019815999GD14991+0198159GE19AGL   +99999+99999GF199999999999019811999999MA1101595101405MD1390129+9999REMMET09901/04/24 09:54:02 METAR KVAY 041454Z 00000KT 9SM OVC065 03/M01 A3000 RMK AO2 SLP158 T00331006 53012
0211724074937802024010415547+39941-074841FM-15+0016KVAY V0203105N00315021345MN0160935N5+00505-00175101585ADDAA101000095GA1085+021345999GD14991+0213459GE19AGL   +99999+99999GF199999999999021341999999MA1101595101405REMMET09401/04/24 10:54:02 METAR KVAY 041554Z 31006KT 10SM OVC070 05/M02 A3000 RMK AO2 SLP158 T00501017
0211724074937802024010416547+39941-074841FM-15+0016KVAY V0203105N00415019815MN0160935N5+00615-00175101545ADDAA101000095GA1085+019815999GD14991+0198159GE19AGL   +99999+99999GF199999999999019811999999MA1101565101375REMMET09401/04/24 11:54:02 METAR KVAY 041654Z 31008KT 10SM OVC065 06/M02 A2999 RMK AO2 SLP154 T00611017
0356724074937802024010417547+39941-074841FM-15+0016KVAY V0203005N00515021345MN0160935N5+00615-00225101515ADDAA101000095GA1045+012805999GA2045+014945999GA3085+021345999GD12991+0128059GD22991+0149459GD34991+0213459GE19AGL   +99999+99999GF199999999999012801999999KA1060M+00671KA2060N+00001MA1101525101335MD1890069+9999OC100935REMMET12901/04/24 12:54:02 METAR KVAY 041754Z 30010G18KT 10SM SCT042 SCT049 OVC070 06/M02 A2998 RMK AO2 SLP151 T00611022 10067 20000 58006
0222724074937802024010418547+39941-074841FM-15+0016KVAY V0203205N00625021345MN0160935N5+00615-00285101565ADDAA101000095GA1085+021345999GD14991+0213459GE19AGL   +99999+99999GF199999999999021341999999MA1101565101375OC100935REMMET09701/04/24 13:54:02 METAR KVAY 041854Z 32012G18KT 10SM OVC070 06/M03 A2999 RMK AO2 SLP156 T00611028
0222724074937802024010419547+39941-074841FM-15+0016KVAY V0203205V00465019815MN0160935N5+00615-00445101625ADDAA101000095GA1085+019815999GD14991+0198159GE19AGL   +99999+99999GF199999999999019811999999MA1101635101435OC100825REMMET09701/04/24 14:54:02 METAR KVAY 041954Z 32009G16KT 10SM OVC065 06/M04 A3001 RMK AO2 SLP162 T00611044
0231724074937802024010420547+39941-074841FM-15+0016KVAY V0203105N00415018295MN0160935N5+00615-00445101685ADDAA101000095GA1075+018295999GD13991+0182959GE19AGL   +99999+99999GF199999999999018291999999MA1101695101505MD1390169+9999REMMET10001/04/24 15:54:02 METAR KVAY 042054Z 31008KT 10SM BKN060 06/M04 A3003 RMK AO2 SLP168 T00611044 53016
0241724074937802024010421547+39941-074841FM-15+0016KVAY V0203205N005152200059N0160935N5+00445-00675101825ADDAA101000095GA1025+018295999GD11991+0182959GE19AGL   +99999+99999GF102995999999018291999999MA1101835101645OC101085REMMET09701/04/24 16:54:02 METAR KVAY 042154Z 32010G21KT 10SM FEW060 04/M07 A3007 RMK AO2 SLP182 T00441067EQDD01      0ADE726
0197724074937802024010422547+39941-074841FM-15+0016KVAY V0203305N006252200059N0160935N5+00335-00725101955ADDAA101000095GA1005+999999999GD10991+9999999GF100991999999999999999999MA1101965101775OC100985REMMET09401/04/24 17:54:02 METAR KVAY 042254Z 33012G19KT 10SM CLR 03/M07 A3011 RMK AO2 SLP195 T00331072
0255724074937802024010423547+39941-074841FM-15+0016KVAY V0203405N006752200059N0160935N5+00225-00895102115ADDAA101000095GA1005+999999999GD10991+9999999GF100991999999999999999999KA1060M+00671KA2060N+00221MA1102105101915MD1390439+9999OC101085REMMET11201/04/24 18:54:02 METAR KVAY 042354Z 34013G21KT 10SM CLR 02/M09 A3015 RMK AO2 SLP211 T00221089 10067 20022 53043
0186724074937802024010500547+39941-074841FM-15+0016KVAY V0203305N004652200059N0160935N5+00115-00945102195ADDAA101000095GA1005+999999999GD10991+9999999GF100991999999999999999999MA1102205102015REMMET09101/04/24 19:54:01 METAR KVAY 050054Z 33009KT 10SM CLR 01/M09 A3018 RMK AO2 SLP219 T00111094
0186724074937802024010501547+39941-074841FM-15+0016KVAY V0203405N003652200059N0160935N5+00065-01005102255ADDAA101000095GA1005+999999999GD10991+9999999GF100991999999999999999999MA1102245102045REMMET09101/04/24 20:54:02 METAR KVAY 050154Z 34007KT 10SM CLR 01/M10 A3019 RMK AO2 SLP225 T00061100
0217724074937802024010502547+39941-074841FM-15+0016KVAY V0203305N004652200059N0160935N5+00005-01065102325ADDAA101000095GA1005+999999999GD10991+9999999GF100991999999999999999999MA1102345102145MD1190219+9999OC100825REMMET10001/04/24 21:54:02 METAR KVAY 050254Z 33009G16KT 10SM CLR 00/M11 A3022 RMK AO2 SLP232 T00001106 51021
0187724074937802024010503547+39941-074841FM-15+0016KVAY V0203205N003152200059N0160935N5-00115-01065102395ADDAA101000095GA1005+999999999GD10991+9999999GF100991999999999999999999MA1102405102215REMMET09201/04/24 22:54:02 METAR KVAY 050354Z 32006KT 10SM CLR M01/M11 A3024 RMK AO2 SLP239 T10111106
0223724074937802024010504547+39941-074841FM-15+0016KVAY V0203305N003652200059N0160935N5-00115-01005102455ADDAA101000095GA1005+999999999GD10991+9999999GF100991999999999999999999KA1240M+00671KA2240N-00171MA1102445102245REMMET10201/04/24 23:54:02 METAR KVAY 050454Z 33007KT 10SM CLR M01/M10 A3025 RMK AO2 SLP245 T10111100 400671017
0886724074937802024010504596+39941-074841SOD  +0016KVAY V020999999999999999999999999999+99999+99999999999ADDAA124000095KA1240M+00675KA2240N-00165MG1101444101394OE11240111835016225OE22240080533017345OE33240026899999995REMSOD73024 HR PRECIPITATION (IN):0.00  24 HR MAX TEMP (F):44 24 HR MAX TEMP TIME (LST):1415 24 HR MIN TEMP (F):29 24 HR MIN TEMP TIME (LST):2359 AVERAGE STATION PRESSURE:29.955 MINIMUM SEA LEVEL PRESSURE:29.94 TIME OF OCCURRENCE:0606 PEAK WIND SPEED (MPH):25  PEAK WIND DIR (DEG):350 PEAK WIND TIME (LST):1622  FASTEST 2MIN SPEED (MPH):18 FASTEST 2MIN DIR (DEG):330 FASTEST 2MIN TIME (LST):1734 AVERAGE WIND SPEED (MPH):6.0  24 HR AVG TEMP (F):37 HEATING DEGREE DAYS:28  COOLING DEGREE DAYS:0   LATEST DAY MAX TEMP (0700-1900 LST):44  LATEST NIGHT MIN TEMP(1900-0800 LST):31 HOURLY INCREMENTAL PRECIPITATION VALUES (IN):.00 0.00 0.00 0.00 0.00 0.00 0.00 0.00 0.00 0.00 0.00 0.00 0.00 0.00 0.00 0.00 0.00 0.00 0.00 0.00 0.00 0.00 0.00 0.00EQDR01     N7GJS072R02     N7GKS075
0245724074937802024010505547+39941-074841FM-15+0016KVAY V0203205N001552200059N0160935N5-00225-01005102435ADDAA101000095GA1005+999999999GD10991+9999999GF100991999999999999999999KA1060M+00221KA2060N-00221MA1102445102245MD1090109+9999REMMET11001/05/24 00:54:02 METAR KVAY 050554Z 32003KT 10SM CLR M02/M10 A3025 RMK AO2 SLP243 T10221100 10022 21022 50010
0187724074937802024010506547+39941-074841FM-15+0016KVAY V0203305N002652200059N0160935N5-00335-01005102485ADDAA101000095GA1005+999999999GD10991+9999999GF100991999999999999999999MA1102475102285REMMET09201/05/24 01:54:02 METAR KVAY 050654Z 33005KT 10SM CLR M03/M10 A3026 RMK AO2 SLP248 T10331100
0187724074937802024010507547+39941-074841FM-15+0016KVAY V0203305N003152200059N0160935N5-00335-01065102575ADDAA101000095GA1005+999999999GD10991+9999999GF100991999999999999999999MA1102575102385REMMET09201/05/24 02:54:02 METAR KVAY 050754Z 33006KT 10SM CLR M03/M11 A3029 RMK AO2 SLP257 T10331106
0207724074937802024010508547+39941-074841FM-15+0016KVAY V0203405N004652200059N0160935N5-00335-01005102605ADDAA101000095GA1005+999999999GD10991+9999999GF100991999999999999999999MA1102615102415MD1190179+9999REMMET09801/05/24 03:54:02 METAR KVAY 050854Z 34009KT 10SM CLR M03/M10 A3030 RMK AO2 SLP260 T10331100 51017
0187724074937802024010509547+39941-074841FM-15+0016KVAY V0203405N004652200059N0160935N5-00395-01065102605ADDAA101000095GA1005+999999999GD10991+9999999GF100991999999999999999999MA1102615102415REMMET09201/05/24 04:54:02 METAR KVAY 050954Z 34009KT 10SM CLR M04/M11 A3030 RMK AO2 SLP260 T10391106
0187724074937802024010510547+39941-074841FM-15+0016KVAY V0209999C000052200059N0160935N5-00395-01065102675ADDAA101000095GA1005+999999999GD10991+9999999GF100991999999999999999999MA1102685102485REMMET09201/05/24 05:54:02 METAR KVAY 051054Z 00000KT 10SM CLR M04/M11 A3032 RMK AO2 SLP267 T10391106
0245724074937802024010511547+39941-074841FM-15+0016KVAY V0202905N001552200059N0160935N5-00395-01065102725ADDAA101000095GA1005+999999999GD10991+9999999GF100991999999999999999999KA1060M-00221KA2060N-00441MA1102715102515MD1390129+9999REMMET11001/05/24 06:54:02 METAR KVAY 051154Z 29003KT 10SM CLR M04/M11 A3033 RMK AO2 SLP272 T10391106 11022 21044 53012
0187724074937802024010512547+39941-074841FM-15+0016KVAY V0209999C000052200059N0160935N5-00505-01005102785ADDAA101000095GA1005+999999999GD10991+9999999GF100991999999999999999999MA1102785102585REMMET09201/05/24 07:54:02 METAR KVAY 051254Z 00000KT 10SM CLR M05/M10 A3035 RMK AO2 SLP278 T10501100
0187724074937802024010513547+39941-074841FM-15+0016KVAY V0202805N002152200059N0160935N5-00225-00945102875ADDAA101000095GA1005+999999999GD10991+9999999GF100991999999999999999999MA1102885102685REMMET09201/05/24 08:54:02 METAR KVAY 051354Z 28004KT 10SM CLR M02/M09 A3038 RMK AO2 SLP287 T10221094
0207724074937802024010514547+39941-074841FM-15+0016KVAY V0203205N004152200059N0160935N5-00065-00945102895ADDAA101000095GA1005+999999999GD10991+9999999GF100991999999999999999999MA1102885102685MD1190189+9999REMMET09801/05/24 09:54:02 METAR KVAY 051454Z 32008KT 10SM CLR M01/M09 A3038 RMK AO2 SLP289 T10061094 51018
0183724074937802024010515547+39941-074841FM-15+0016KVAY V0203205N003152200059N9999997N5+00005-00895102815ADDAA101000095GA1005+999999999GD10991+9999999GF100991999999999999999999MA1102815102625REMMET08801/05/24 10:54:02 METAR KVAY 051554Z 32006KT CLR 00/M09 A3036 RMK AO2 SLP281 T00001089 $
0183724074937802024010516547+39941-074841FM-15+0016KVAY V0203405N003152200059N9999997N5+00115-00895102685ADDAA101000095GA1005+999999999GD10991+9999999GF100991999999999999999999MA1102685102485REMMET08801/05/24 11:54:02 METAR KVAY 051654Z 34006KT CLR 01/M09 A3032 RMK AO2 SLP268 T00111089 $
0241724074937802024010517547+39941-074841FM-15+0016KVAY V0202705V005152200059N9999997N5+00225-00835102605ADDAA101000095GA1005+999999999GD10991+9999999GF100991999999999999999999KA1060M+00221KA2060N-00501MA1102615102415MD1890299+9999REMMET10601/05/24 12:54:02 METAR KVAY 051754Z 27010KT CLR 02/M08 A3030 RMK AO2 SLP260 T00221083 10022 21050 58029 $
0183724074937802024010518547+39941-074841FM-15+0016KVAY V0202605N003652200059N9999997N5+00225-00835102495ADDAA101000095GA1005+999999999GD10991+9999999GF100991999999999999999999MA1102515102315REMMET08801/05/24 13:54:02 METAR KVAY 051854Z 26007KT CLR 02/M08 A3027 RMK AO2 SLP249 T00221083 $
0183724074937802024010519547+39941-074841FM-15+0016KVAY V0202305N002652200059N9999997N5+00285-00835102485ADDAA101000095GA1005+999999999GD10991+9999999GF100991999999999999999999MA1102475102285REMMET08801/05/24 14:54:02 METAR KVAY 051954Z 23005KT CLR 03/M08 A3026 RMK AO2 SLP248 T00281083 $
0206724074937802024010520547+39941-074841FM-15+0016KVAY V0202705N002652200059N0160935N5+00285-00835102475ADDAA101000095GA1005+999999999GD10991+9999999GF100991999999999999999999MA1102475102285MD1690139+9999REMMET09701/05/24 15:54:02 METAR KVAY 052054Z 27005KT 10SM CLR 03/M08 A3026 RMK AO2 SLP247 T00281083 56013
0186724074937802024010521547+39941-074841FM-15+0016KVAY V0202305N001552200059N0160935N5+00175-00785102475ADDAA101000095GA1005+999999999GD10991+9999999GF100991999999999999999999MA1102475102285REMMET09101/05/24 16:54:02 METAR KVAY 052154Z 23003KT 10SM CLR 02/M08 A3026 RMK AO2 SLP247 T00171078
0187724074937802024010522547+39941-074841FM-15+0016KVAY V0209999C000052200059N0160935N5-00175-00725102465ADDAA101000095GA1005+999999999GD10991+9999999GF100991999999999999999999MA1102475102285REMMET09201/05/24 17:54:02 METAR KVAY 052254Z 00000KT 10SM CLR M02/M07 A3026 RMK AO2 SLP246 T10171072
0245724074937802024010523547+39941-074841FM-15+0016KVAY V0202205N001552200059N0160935N5-00115-00725102545ADDAA101000095GA1005+999999999GD10991+9999999GF100991999999999999999999KA1060M+00331KA2060N-00221MA1102545102355MD1390089+9999REMMET11001/05/24 18:54:02 METAR KVAY 052354Z 22003KT 10SM CLR M01/M07 A3028 RMK AO2 SLP254 T10111072 10033 21022 53008
0187724074937802024010600547+39941-074841FM-15+0016KVAY V0209999C000052200059N0160935N5-00175-00725102525ADDAA101000095GA1005+999999999GD10991+9999999GF100991999999999999999999MA1102515102315REMMET09201/05/24 19:54:01 METAR KVAY 060054Z 00000KT 10SM CLR M02/M07 A3027 RMK AO2 SLP252 T10171072
0187724074937802024010601547+39941-074841FM-15+0016KVAY V0202105N001552200059N0160935N5-00285-00725102495ADDAA101000095GA1005+999999999GD10991+9999999GF100991999999999999999999MA1102515102315REMMET09201/05/24 20:54:01 METAR KVAY 060154Z 21003KT 10SM CLR M03/M07 A3027 RMK AO2 SLP249 T10281072
0207724074937802024010602547+39941-074841FM-15+0016KVAY V0202105N001552200059N0160935N5-00285-00725102455ADDAA101000095GA1005+999999999GD10991+9999999GF100991999999999999999999MA1102445102245MD1890099+9999REMMET09801/05/24 21:54:01 METAR KVAY 060254Z 21003KT 10SM CLR M03/M07 A3025 RMK AO2 SLP245 T10281072 58009
0187724074937802024010603547+39941-074841FM-15+0016KVAY V0209999C000052200059N0160935N5-00395-00725102375ADDAA101000095GA1005+999999999GD10991+9999999GF100991999999999999999999MA1102375102185REMMET09201/05/24 22:54:02 METAR KVAY 060354Z 00000KT 10SM CLR M04/M07 A3023 RMK AO2 SLP237 T10391072
0225724074937802024010604547+39941-074841FM-15+0016KVAY V0209999C000052200059N0160935N5-00565-00835102365ADDAA101000095GA1005+999999999GD10991+9999999GF100991999999999999999999KA1240M+00331KA2240N-00561MA1102375102185REMMET10401/05/24 23:54:02 METAR KVAY 060454Z 00000KT 10SM CLR M06/M08 A3023 RMK AO2 SLP236 T10561083 400331056 $
0886724074937802024010604596+39941-074841SOD  +0016KVAY V020999999999999999999999999999+99999+99999999999ADDAA124000095KA1240M+00335KA2240N-00555MG1102354102344OE11240080535003125OE22240058134010385OE33240021099999995REMSOD73024 HR PRECIPITATION (IN):0.00  24 HR MAX TEMP (F):38 24 HR MAX TEMP TIME (LST):1510 24 HR MIN TEMP (F):22 24 HR MIN TEMP TIME (LST):2359 AVERAGE STATION PRESSURE:30.225 MINIMUM SEA LEVEL PRESSURE:30.22 TIME OF OCCURRENCE:2325 PEAK WIND SPEED (MPH):18  PEAK WIND DIR (DEG):350 PEAK WIND TIME (LST):0312  FASTEST 2MIN SPEED (MPH):13 FASTEST 2MIN DIR (DEG):340 FASTEST 2MIN TIME (LST):1038 AVERAGE WIND SPEED (MPH):4.7  24 HR AVG TEMP (F):30 HEATING DEGREE DAYS:35  COOLING DEGREE DAYS:0   LATEST DAY MAX TEMP (0700-1900 LST):38  LATEST NIGHT MIN TEMP(1900-0800 LST):23 HOURLY INCREMENTAL PRECIPITATION VALUES (IN):.00 0.00 0.00 0.00 0.00 0.00 0.00 0.00 0.00 0.00 0.00 0.00 0.00 0.00 0.00 0.00 0.00 0.00 0.00 0.00 0.00 0.00 0.00 0.00EQDR01     N7GJS072R02     N7GKS075
0247724074937802024010605547+39941-074841FM-15+0016KVAY V0209999C000052200059N0160935N5-00565-00835102405ADDAA101000095GA1005+999999999GD10991+9999999GF100991999999999999999999KA1060M-00111KA2060N-00611MA1102405102215MD1590069+9999REMMET11201/06/24 00:54:02 METAR KVAY 060554Z 00000KT 10SM CLR M06/M08 A3024 RMK AO2 SLP240 T10561083 11011 21061 55006 $
0204724074937802024010606547+39941-074841FM-15+0016KVAY V0209999C000052200059N0160935N5-00615-00835102405ADDAA101000095GA1005+999999999GD10991+9999999GF100991999999999999999999MA1102405102215WA1900099REMMET10001/06/24 01:54:02 METAR KVAY 060654Z 00000KT 10SM CLR M06/M08 A3024 RMK AO2 SLP240 I1000 T10611083 $
0204724074937802024010607547+39941-074841FM-15+0016KVAY V0209999C000052200059N0160935N5-00565-00785102365ADDAA101000095GA1005+999999999GD10991+9999999GF100991999999999999999999MA1102375102185WA1900099REMMET10001/06/24 02:54:02 METAR KVAY 060754Z 00000KT 10SM CLR M06/M08 A3023 RMK AO2 SLP236 I1000 T10561078 $
0224724074937802024010608547+39941-074841FM-15+0016KVAY V0209999C000052200059N0160935N5-00565-00785102325ADDAA101000095GA1005+999999999GD10991+9999999GF100991999999999999999999MA1102345102145MD1890089+9999WA1900099REMMET10601/06/24 03:54:02 METAR KVAY 060854Z 00000KT 10SM CLR M06/M08 A3022 RMK AO2 SLP232 I3000 T10561078 58008 $
0189724074937802024010609547+39941-074841FM-15+0016KVAY V0209999C000052200059N0160935N5-00565-00725102305ADDAA101000095GA1005+999999999GD10991+9999999GF100991999999999999999999MA1102305102115REMMET09401/06/24 04:54:02 METAR KVAY 060954Z 00000KT 10SM CLR M06/M07 A3021 RMK AO2 SLP230 T10561072 $
0189724074937802024010610547+39941-074841FM-15+0016KVAY V0209999C000052200059N0160935N5-00445-00675102285ADDAA101000095GA1005+999999999GD10991+9999999GF100991999999999999999999MA1102275102085REMMET09401/06/24 05:54:02 METAR KVAY 061054Z 00000KT 10SM CLR M04/M07 A3020 RMK AO2 SLP228 T10441067 $
0262724074937802024010611547+39941-074841FM-15+0016KVAY V0209999C000052200059N0160935N5-00445-00675102245ADDAA101000095GA1005+999999999GD10991+9999999GF100991999999999999999999KA1060M-00441KA2060N-00611MA1102245102045MD1890089+9999WA1900099REMMET11801/06/24 06:54:02 METAR KVAY 061154Z 00000KT 10SM CLR M04/M07 A3019 RMK AO2 SLP224 I6000 T10441067 11044 21061 58008 $
0189724074937802024010612547+39941-074841FM-15+0016KVAY V0209999C000052200059N0160935N5-00395-00565102225ADDAA101000095GA1005+999999999GD10991+9999999GF100991999999999999999999MA1102245102045REMMET09401/06/24 07:54:02 METAR KVAY 061254Z 00000KT 10SM CLR M04/M06 A3019 RMK AO2 SLP222 T10391056 $
0189724074937802024010613547+39941-074841FM-15+0016KVAY V0209999C000052200059N0160935N5-00285-00445102205ADDAA101000095GA1005+999999999GD10991+9999999GF100991999999999999999999MA1102205102015REMMET09401/06/24 08:54:02 METAR KVAY 061354Z 00000KT 10SM CLR M03/M04 A3018 RMK AO2 SLP220 T10281044 $
0209724074937802024010614547+39941-074841FM-15+0016KVAY V0200905N001552200059N0160935N5-00175-00395102105ADDAA101000095GA1005+999999999GD10991+9999999GF100991999999999999999999MA1102105101915MD1890149+9999REMMET10001/06/24 09:54:02 METAR KVAY 061454Z 09003KT 10SM CLR M02/M04 A3015 RMK AO2 SLP210 T10171039 58014 $
0213724074937802024010615547+39941-074841FM-15+0016KVAY V0209999C00005015245MN0160935N5+00005-00285102055ADDAA101000095GA1085+015245999GD14991+0152459GE19AGL   +99999+99999GF199999999999015241999999MA1102035101845REMMET09601/06/24 10:54:02 METAR KVAY 061554Z 00000KT 10SM OVC050 00/M03 A3013 RMK AO2 SLP205 T00001028 $
0220724074937802024010616547+39941-074841FM-15+0016KVAY V0200705N00215015245MN0160935N5+00225-00175101825ADDAA101000095GA1085+015245999GD14991+0152459GE19AGL   +99999+99999GF199999999999015241999999MA1101835101645REMMET10301/06/24 11:54:02 METAR KVAY 061654Z 07004KT 10SM OVC050 02/M02 A3007 RMK AO2 PRESFR SLP182 T00221017 $
0264724074937802024010617526+39941-074841FM-16+0016KVAY V0200505N00215010675MN0032195N5+00205-00205999999ADDAU110030015AW1715GA1025+008535999GA2075+010675999GA3085+014335999GD11991+0085359GD23991+0106759GD34991+0143359MA1101735101535MW1715REMMET12101/06/24 12:52:02 SPECI KVAY 061752Z 05004KT 2SM -SN FEW028 BKN035 OVC047 02/M02 A3004 RMK AO2 UPB39E41SNB41 P0000 $ FIBI
0436724074937802024010617547+39941-074841FM-15+0016KVAY V0200505N00265010675MN0032195N5+00175-00175101715ADDAA101000025AA206000021AU110030015AW1715GA1025+008535999GA2075+010675999GA3085+014335999GD11991+0085359GD23991+0106759GD34991+0143359GE19AGL   +99999+99999GF199999999999008531999999KA1060M+00281KA2060N-00441MA1101695101505MD1690349+9999MW1715REMMET16401/06/24 12:54:02 METAR KVAY 061754Z 05005KT 2SM -SN FEW028 BKN035 OVC047 02/M02 A3003 RMK AO2 UPB39E41SNB41 PRESFR SLP171 P0000 60000 T00171017 10028 21044 56034 $EQDQ01  00008PRCP06
0283724074937802024010618077+39941-074841FM-16+0016KVAY V0200405N00365014945MN0048285N5+00175-00175999999ADDAA101000021AU110030015AW1715GA1045+011285999GA2085+014945999GD12991+0112859GD24991+0149459GE19AGL   +99999+99999GF199999999999011281999999MA1101595101405MW1715REMMET11201/06/24 13:07:02 SPECI KVAY 061807Z 04007KT 3SM -SN SCT037 OVC049 02/M02 A3000 RMK AO2 PRESFR P0000 T00171017 $
0296724074937802024010618547+39941-074841FM-15+0016KVAY V0200505N00365011285MN0040235N5+00115-00175101495ADDAA101000025AU110030015AW1715GA1075+011285999GA2085+014335999GD13991+0112859GD24991+0143359GE19AGL   +99999+99999GF199999999999011281999999MA1101495101305MW1715REMMET12501/06/24 13:54:02 METAR KVAY 061854Z 05007KT 2 1/2SM -SN BKN037 OVC047 01/M02 A2997 RMK AO2 SNE24B42 SLP149 P0000 T00111017 $
0265724074937802024010619137+39941-074841FM-16+0016KVAY V0200505N00365010365MN0064375N5+00115-00115999999ADDAA101000231AU110030015AU200001015AW1105AW2715GA1085+010365999GD14991+0103659GE19AGL   +99999+99999GF199999999999010361999999MA1101425101235MW1715REMMET10801/06/24 14:13:02 SPECI KVAY 061913Z 05007KT 4SM -SN BR OVC034 01/M01 A2995 RMK AO2 PRESFR P0001 T00111011 $
0276724074937802024010619547+39941-074841FM-15+0016KVAY V0200605N00265009755MN0064375N5+00115-00065101335ADDAA101001395AU110020015AU200001015AW1105AW2615GA1085+009755999GD14991+0097559GE19AGL   +99999+99999GF199999999999009751999999MA1101325101135MW1615REMMET11901/06/24 14:54:02 METAR KVAY 061954Z 06005KT 4SM -RA BR OVC032 01/M01 A2992 RMK AO2 RAB14SNE14 SLP133 P0005 T00111006 $
0332724074937802024010620417+39941-074841FM-16+0016KVAY V0200605N00315008845MN0048285N5+00175+00005999999ADDAA101001531AU120020015AU200001015AW1105AW2625GA1025+002445999GA2075+008845999GA3085+012505999GD11991+0024459GD23991+0088459GD34991+0125059GE19AGL   +99999+99999GF199999999999002441999999MA1101295101095MW1655REMMET11301/06/24 15:41:02 SPECI KVAY 062041Z 06006KT 3SM RA BR FEW008 BKN029 OVC041 02/00 A2991 RMK AO2 P0006 T00170000 $
0336724074937802024010620447+39941-074841FM-16+0016KVAY V0200605N00415009755MN0040235N5+00175+00065999999ADDAA101001531AU120020015AU200001015AW1105AW2625GA1025+002445999GA2075+009755999GA3085+012505999GD11991+0024459GD23991+0097559GD34991+0125059GE19AGL   +99999+99999GF199999999999002441999999MA1101255101065MW1655REMMET11701/06/24 15:44:02 SPECI KVAY 062044Z 06008KT 2 1/2SM RA BR FEW008 BKN032 OVC041 02/01 A2990 RMK AO2 P0006 T00170006 $
0323724074937802024010620507+39941-074841FM-16+0016KVAY V0200705N00365008235MN0048285N5+00205+00105999999ADDAA101001731AU110020015AU200001015AW1105AW2615GA1025+002445999GA2075+008235999GA3085+012505999GD11991+0024459GD23991+0082359GD34991+0125059GE19AGL   +99999+99999GF199999999999002441999999MA1101255101065MW1615REMMET10401/06/24 15:50:02 SPECI KVAY 062050Z 07007KT 3SM -RA BR FEW008 BKN027 OVC041 02/01 A2990 RMK AO2 P0007 $
0396724074937802024010620547+39941-074841FM-15+0016KVAY V0209999V00265008235MN0048285N5+00175+00065101245ADDAA101002095AA203003091AU110020015AU200001015AW1105AW2615GA1045+002445999GA2075+008235999GA3085+011895999GD12991+0024459GD23991+0082359GD34991+0118959GE19AGL   +99999+99999GF199999999999002441999999MA1101255101065MD1690479+9999MW1615REMMET13301/06/24 15:54:02 METAR KVAY 062054Z VRB05KT 3SM -RA BR SCT008 BKN027 OVC039 02/01 A2990 RMK AO2 SLP124 P0007 60012 T00170006 56047 $EQDQ01  00308PRCP03
0298724074937802024010621047+39941-074841FM-16+0016KVAY V0200705N00265002445MN0040235N5+00175+00065999999ADDAA101000531AU120020015AU200001015AW1105AW2625GA1075+002445999GA2085+008235999GD13991+0024459GD24991+0082359GE19AGL   +99999+99999GF199999999999002441999999MA1101225101035MW1655REMMET11001/06/24 16:04:02 SPECI KVAY 062104Z 07005KT 2 1/2SM RA BR BKN008 OVC027 02/01 A2989 RMK AO2 P0002 T00170006 $
0268724074937802024010621367+39941-074841FM-16+0016KVAY V0200605N00365002445MN0064375N5+00175+00115999999ADDAA101001731AU120020015AU200001015AW1105AW2625GA1085+002445999GD14991+0024451GE19AGL   +99999+99999GF199999999999002441999999MA1101155100965MW1655REMMET11101/06/24 16:36:02 SPECI KVAY 062136Z 06007KT 4SM RA BR OVC008 02/01 A2987 RMK AO2 CIG 006V010 P0007 T00170011 $
0274724074937802024010621547+39941-074841FM-15+0016KVAY V0200605N00515002135MN0064375N5+00225+00115101085ADDAA101002595AU120020015AU200001015AW1105AW2625GA1085+002135999GD14991+0021359GE19AGL   +99999+99999GF199999999999002131999999MA1101085100895MW1655OC100725REMMET10901/06/24 16:54:02 METAR KVAY 062154Z 06010G14KT 4SM RA BR OVC007 02/01 A2985 RMK AO2 SLP108 P0010 T00220011 $
0263724074937802024010622547+39941-074841FM-15+0016KVAY V0209999V00155001835MN0064375N5+00335+00335100965ADDAA101004195AU120020015AU200001015AW1105AW2625GA1085+001835999GD14991+0018359GE19AGL   +99999+99999GF199999999999001831999999MA1100955100765MW1655REMMET10601/06/24 17:54:02 METAR KVAY 062254Z VRB03KT 4SM RA BR OVC006 03/03 A2981 RMK AO2 SLP096 P0016 T00330033 $
0375724074937802024010623547+39941-074841FM-15+0016KVAY V0200705V00415001835MN0096565N5+00505+00505100615ADDAA101002895AA206012291AU120020015AU200001015AW1105AW2625GA1085+001835999GD14991+0018359GE19AGL   +99999+99999GF199999999999001831999999KA1060M+00501KA2060N+00111MA1100615100425MD1890629+9999MW1655OC100935REMMET14001/06/24 18:54:02 METAR KVAY 062354Z 07008G18KT 6SM RA BR OVC006 05/05 A2971 RMK AO2 PRESFR SLP061 P0010 60048 T00500050 10050 20011 58062 $EQDQ01  01218PRCP06
0288724074937802024010700547+39941-074841FM-15+0016KVAY V0200905V00515001835MN0160935N5+00675+00675100295ADDAA101000895AU110020015AW1615GA1085+001835999GD14991+0018359GE19AGL   +99999+99999GF199999999999001831999999MA1100305100115MW1615OC101245OD149901331080REMMET12601/06/24 19:54:01 METAR KVAY 070054Z 09010G24KT 10SM -RA OVC006 07/07 A2962 RMK AO2 PK WND 08026/0039 SLP029 P0005 T00670067 $
0255724074937802024010701547+39941-074841FM-15+0016KVAY V0200805V00365002135MN0144845N5+00725+00615100235ADDAA101000395AU110020015AW1615GA1085+002135999GD14991+0021359GE19AGL   +99999+99999GF199999999999002131999999MA1100245100055MW1615OC100935REMMET10701/06/24 20:54:01 METAR KVAY 070154Z 08007G18KT 9SM -RA OVC007 07/06 A2960 RMK AO2 SLP023 P0001 T00720061 $
0319724074937802024010702547+39941-074841FM-15+0016KVAY V0200505N00265001835MN0048285N5+00785+00675100235ADDAA101003095AA203004391AU120020015AU200001015AW1105AW2625GA1085+001835999GD14991+0018359GE19AGL   +99999+99999GF199999999999001831999999MA1100245100055MD1690399+9999MW1655REMMET11801/06/24 21:54:01 METAR KVAY 070254Z 05005KT 3SM RA BR OVC006 08/07 A2960 RMK AO2 SLP023 P0011 60017 T00780067 56039 $EQDQ01  00438PRCP03
0272724074937802024010703087+39941-074841FM-16+0016KVAY V0200205N00315001835MN0040235N5+00785+00675999999ADDAA101001031AU120020015AU200001015AW1105AW2625GA1085+001835999GD14991+0018351GE19AGL   +99999+99999GF199999999999001831999999MA1100245100055MW1655REMMET11501/06/24 22:08:01 SPECI KVAY 070308Z 02006KT 2 1/2SM RA BR OVC006 08/07 A2960 RMK AO2 CIG 005V011 P0004 T00780067 $
0337724074937802024010703457+39941-074841FM-16+0016KVAY V0200305N00315003965MN0040235N5+00785+00725999999ADDAA101003331AU110020015AU200001015AW1105AW2615GA1045+002135999GA2075+003965999GA3085+005495999GD12991+0021359GD23991+0039659GD34991+0054959GE19AGL   +99999+99999GF199999999999002131999999MA1100205100015MW1615REMMET11801/06/24 22:45:01 SPECI KVAY 070345Z 03006KT 2 1/2SM -RA BR SCT007 BKN013 OVC018 08/07 A2959 RMK AO2 P0013 T00780072 $
0269724074937802024010703526+39941-074841FM-16+0016KVAY V0200305N00365004575MN0048285N5+00705+00705999999ADDAU110020015AU200001015AW1105AW2615GA1045+002135999GA2075+004575999GA3085+005795999GD12991+0021359GD23991+0045759GD34991+0057959MA1100205100015MW1615REMMET10901/06/24 22:52:03 SPECI KVAY 070352Z 03007KT 3SM -RA BR SCT007 BKN015 OVC019 07/07 A2959 RMK AO2 P0014 $ FIBI
0352724074937802024010703547+39941-074841FM-15+0016KVAY V0200305N00365003055MN0048285N5+00725+00725100215ADDAA101003695AU110020015AU200001015AW1105AW2615GA1025+001525999GA2075+003055999GA3085+005185999GD11991+0015251GD23991+0030559GD34991+0051859GE19AGL   +99999+99999GF199999999999001521999999MA1100205100015MW1615REMMET13301/06/24 22:54:02 METAR KVAY 070354Z 03007KT 3SM -RA BR FEW005 BKN010 OVC017 07/07 A2959 RMK AO2 CIG 007V013 SLP021 P0014 T00720072 $
0336724074937802024010704027+39941-074841FM-16+0016KVAY V0200305N00415003665MN0040235N5+00725+00725999999ADDAA101000531AU120020015AU200001015AW1105AW2625GA1025+001525999GA2075+003665999GA3085+005795999GD11991+0015259GD23991+0036659GD34991+0057959GE19AGL   +99999+99999GF199999999999001521999999MA1100205100015MW1655REMMET11701/06/24 23:02:02 SPECI KVAY 070402Z 03008KT 2 1/2SM RA BR FEW005 BKN012 OVC019 07/07 A2959 RMK AO2 P0002 T00720072 $
0307724074937802024010704127+39941-074841FM-16+0016KVAY V0200305N00365002135MN0048285N5+00725+00725999999ADDAA101000731AU110020015AU200001015AW1105AW2615GA1075+002135999GA2085+003665999GD13991+0021351GD24991+0036659GE19AGL   +99999+99999GF199999999999002131999999MA1100205100015MW1615REMMET11901/06/24 23:12:02 SPECI KVAY 070412Z 03007KT 3SM -RA BR BKN007 OVC012 07/07 A2959 RMK AO2 CIG 003V009 P0003 T00720072 $
0311724074937802024010704157+39941-074841FM-16+0016KVAY V0200205N00365001525MN0040235N5+00725+00725999999ADDAA101000731AU110020015AU200001015AW1105AW2615GA1075+001525999GA2085+003665999GD13991+0015251GD24991+0036659GE19AGL   +99999+99999GF199999999999001521999999MA1100205100015MW1615REMMET12301/06/24 23:15:02 SPECI KVAY 070415Z 02007KT 2 1/2SM -RA BR BKN005 OVC012 07/07 A2959 RMK AO2 CIG 003V009 P0003 T00720072 $
0257724074937802024010704377+39941-074841FM-16+0016KVAY V0203605N00515001225MN0048285N5+00565+00565999999ADDAA101001531AU110020015AU200001015AW1105AW2615GA1085+001225999GD14991+0012259GE19AGL   +99999+99999GF199999999999001221999999MA1100175099985MW1615REMMET10001/06/24 23:37:02 SPECI KVAY 070437Z 36010KT 3SM -RA BR OVC004 06/06 A2958 RMK AO2 P0006 T00560056 $
0251724074937802024010704527+39941-074841FM-16+0016KVAY V0203605N00465000915MN0040235N5+00405+00405999999ADDAA101001731AU110020015AU200001015AW1105AW2615GA1085+000915999GD14991+0009159GE19AGL   +99999+99999GF199999999999000911999999MA1100175099985MW1615REMMET09401/06/24 23:52:02 SPECI KVAY 070452Z 36009KT 2 1/2SM -RA BR OVC003 04/04 A2958 RMK AO2 P0007 $
0304724074937802024010704547+39941-074841FM-15+0016KVAY V0200105N00465000915MN0040235N5+00445+00445100185ADDAA101001895AU110020015AU200001015AW1105AW2615GA1085+000915999GD14991+0009159GE19AGL   +99999+99999GF199999999999000911999999KA1240M+00781KA2240N-00611MA1100175099985MW1615REMMET12101/06/24 23:54:02 METAR KVAY 070454Z 01009KT 2 1/2SM -RA BR OVC003 04/04 A2958 RMK AO2 SLP018 P0007 T00440044 400781061 $
0922724074937802024010704596+39941-074841SOD  +0016KVAY V020999999999999999999999999999+99999+99999999999ADDAA124022195AT1AU16RA  5AT2AU18SN  5AT3AU13BR  5KA1240M+00785KA2240N-00605MG1101524100174OE11240134108019395OE22240080508020035OE33240018899999995REMSOD73024 HR PRECIPITATION (IN):0.87  24 HR MAX TEMP (F):46 24 HR MAX TEMP TIME (LST):2246 24 HR MIN TEMP (F):21 24 HR MIN TEMP TIME (LST):0250 AVERAGE STATION PRESSURE:29.980 MINIMUM SEA LEVEL PRESSURE:29.58 TIME OF OCCURRENCE:2359 PEAK WIND SPEED (MPH):30  PEAK WIND DIR (DEG):80  PEAK WIND TIME (LST):1939  FASTEST 2MIN SPEED (MPH):18 FASTEST 2MIN DIR (DEG):80  FASTEST 2MIN TIME (LST):2003 AVERAGE WIND SPEED (MPH):4.2  24 HR AVG TEMP (F):34 HEATING DEGREE DAYS:31  COOLING DEGREE DAYS:0   LATEST DAY MAX TEMP (0700-1900 LST):41  LATEST NIGHT MIN TEMP(1900-0800 LST):21 HOURLY INCREMENTAL PRECIPITATION VALUES (IN):.00 0.00 0.00 0.00 0.00 0.00 0.00 0.00 0.00 0.00 0.00 0.00 T    T    0.05 0.08 0.10 0.16 0.11 0.03 0.01 0.12 0.14 0.07EQDR01     N7GJS072R02     N7GKS075
0197724074937802024010705526+39941-074841FM-16+0016KVAY V0200205N00515001525MN0040235N5+00405+00305999999ADDAU110020015AU200001015AW1105AW2615GA1085+001525999GD14991+0015259MA1100175099985MW1615REMMET09901/07/24 00:52:02 SPECI KVAY 070552Z 02010KT 2 1/2SM -RA BR OVC005 04/03 A2958 RMK AO2 P0006 $ FIBI
0362724074937802024010705547+39941-074841FM-15+0016KVAY V0200205N00575001525MN0040235N5+00395+00335100165ADDAA101001395AA206011291AU110020015AU200001015AW1105AW2615GA1085+001525999GD14991+0015259GE19AGL   +99999+99999GF199999999999001521999999KA1060M+00781KA2060N+00391MA1100175099985MD1690059+9999MW1615REMMET13501/07/24 00:54:02 METAR KVAY 070554Z 02011KT 2 1/2SM -RA BR OVC005 04/03 A2958 RMK AO2 SLP016 P0006 60044 T00390033 10078 20039 56005 $EQDQ01  01118PRCP06
0268724074937802024010706067+39941-074841FM-16+0016KVAY V0200205N00575001525MN0048285N5+00395+00285999999ADDAA101000021AU110020015AU200001015AW1105AW2615GA1085+001525999GD14991+0015259GE19AGL   +99999+99999GF199999999999001521999999MA1100145099955MW1615OC101085REMMET10301/07/24 01:06:02 SPECI KVAY 070606Z 02011G21KT 3SM -RA BR OVC005 04/03 A2957 RMK AO2 P0000 T00390028 $
0257724074937802024010706327+39941-074841FM-16+0016KVAY V0200205N00575001835MN0064375N5+00395+00285999999ADDAA101000231AU110020015AU200001015AW1105AW2615GA1085+001835999GD14991+0018359GE19AGL   +99999+99999GF199999999999001831999999MA1100175099985MW1615REMMET10001/07/24 01:32:02 SPECI KVAY 070632Z 02011KT 4SM -RA BR OVC006 04/03 A2958 RMK AO2 P0001 T00390028 $
0276724074937802024010706547+39941-074841FM-15+0016KVAY V0200105N00515001835MN0048285N5+00395+00285100215ADDAA101000395AU110020015AU200001015AW1105AW2615GA1085+001835999GD14991+0018351GE19AGL   +99999+99999GF199999999999001831999999MA1100205100015MW1615REMMET11901/07/24 01:54:02 METAR KVAY 070654Z 01010KT 3SM -RA BR OVC006 04/03 A2959 RMK AO2 CIG 005V009 SLP021 P0001 T00390028 $
0269724074937802024010707267+39941-074841FM-16+0016KVAY V0200205N00675001525MN0064375N5+00335+00225999999ADDAA101000021AU110020015AU200001015AW1105AW2615GA1085+001525999GD14991+0015251GE19AGL   +99999+99999GF199999999999001521999999MA1100175099985MW1615REMMET11201/07/24 02:26:02 SPECI KVAY 070726Z 02013KT 4SM -RA BR OVC005 03/02 A2958 RMK AO2 CIG 004V008 P0000 T00330022 $
0274724074937802024010707547+39941-074841FM-15+0016KVAY V0200105N00625001525MN0048285N5+00285+00225100165ADDAA101000025AU120090015AU200001015AW1105AW2401AW3415GA1085+001525999GD14991+0015259GE19AGL   +99999+99999GF199999999999001521999999MA1100175099985REMMET11701/07/24 02:54:02 METAR KVAY 070754Z 01012KT 3SM UP BR OVC005 03/02 A2958 RMK AO2 RAE42UPB42 SLP016 P0000 T00280022 $
0240724074937802024010708447+39941-074841FM-16+0016KVAY V0200105N00465001525MN0040235N5+00285+00225999999ADDAA101000021AU100001015AW1105GA1085+001525999GD14991+0015259GE19AGL   +99999+99999GF199999999999001521999999MA1100145099955REMMET10601/07/24 03:44:02 SPECI KVAY 070844Z 01009KT 2 1/2SM BR OVC005 03/02 A2957 RMK AO2 UPE07 P0000 T00280022 $
0172724074937802024010708526+39941-074841FM-16+0016KVAY V0203605N00465001525MN0048285N5+00305+00205999999ADDAU100001015AW1105GA1085+001525999GD14991+0015259MA1100175099985REMMET09701/07/24 03:52:02 SPECI KVAY 070852Z 36009KT 3SM BR OVC005 03/02 A2958 RMK AO2 UPE07 P0000 $ FIBI
0299724074937802024010708547+39941-074841FM-15+0016KVAY V0200105N00415001525MN0048285N5+00285+00225100185ADDAA101000025AA203000391AU100001015AW1105GA1085+001525999GD14991+0015259GE19AGL   +99999+99999GF199999999999001521999999MA1100175099985MD1690039+9999REMMET12101/07/24 03:54:02 METAR KVAY 070854Z 01008KT 3SM BR OVC005 03/02 A2958 RMK AO2 UPE07 SLP018 P0000 60001 T00280022 56003 $EQDQ01  00028PRCP03
0213724074937802024010709217+39941-074841FM-16+0016KVAY V0200105N00365001835MN0048285N5+00285+00225999999ADDAU100001015AW1105GA1085+001835999GD14991+0018359GE19AGL   +99999+99999GF199999999999001831999999MA1100175099985REMMET09001/07/24 04:21:02 SPECI KVAY 070921Z 01007KT 3SM BR OVC006 03/02 A2958 RMK AO2 T00280022 $
0277724074937802024010709547+39941-074841FM-15+0016KVAY V0203605N00465001835MN0064375N5+00285+00225100135ADDAA101000395AU120090015AU200001015AW1105AW2401AW3415GA1085+001835999GD14991+0018359GE19AGL   +99999+99999GF199999999999001831999999MA1100145099955REMMET12001/07/24 04:54:02 METAR KVAY 070954Z 36009KT 4SM UP BR OVC006 03/02 A2957 RMK AO2 UPB39RAB44E54 SLP013 P0001 T00280022 $
0223724074937802024010710547+39941-074841FM-15+0016KVAY V0203205N00265001835MN0144845N5+00285+00225100185ADDAA101000025GA1085+001835999GD14991+0018359GE19AGL   +99999+99999GF199999999999001831999999MA1100175099985REMMET10601/07/24 05:54:02 METAR KVAY 071054Z 32005KT 9SM OVC006 03/02 A2958 RMK AO2 UPE08 SLP018 P0000 T00280022 $
0203724074937802024010711526+39941-074841FM-16+0016KVAY V0203205N00265001835MN0040235N5+00305+00205999999ADDAU110020015AU200001015AW1105AW2615GA1085+001835999GD14991+0018359MA1100205100015MW1615REMMET10501/07/24 06:52:02 SPECI KVAY 071152Z 32005KT 2 1/2SM -RA BR OVC006 03/02 A2959 RMK AO2 RAB31 P0001 $ FIBI
0397724074937802024010711547+39941-074841FM-15+0016KVAY V0203205N00215001835MN0032195N5+00285+00225100215ADDAA101000595AA206001091AA324024491AU110020015AU200001015AW1105AW2615GA1085+001835999GD14991+0018359GE19AGL   +99999+99999GF199999999999001831999999KA1060M+00391KA2060N+00281MA1100205100015MD1390039+9999MW1615REMMET14301/07/24 06:54:02 METAR KVAY 071154Z 32004KT 2SM -RA BR OVC006 03/02 A2959 RMK AO2 RAB31 SLP021 P0002 60004 70096 T00280022 10039 20028 53003 $EQDQ01  00108PRCP06Q02  02438PRCP24
0267724074937802024010712137+39941-074841FM-16+0016KVAY V0203105N00265001835MN0064375N5+00285+00175999999ADDAA101000231AU120090015AU200001015AW1105AW2401AW3415GA1085+001835999GD14991+0018359GE19AGL   +99999+99999GF199999999999001831999999MA1100245100055REMMET11001/07/24 07:13:02 SPECI KVAY 071213Z 31005KT 4SM UP BR OVC006 03/02 A2960 RMK AO2 RAE05UPB05 P0001 T00280017 $
0243724074937802024010712547+39941-074841FM-15+0016KVAY V0202905N00265001835MN0144845N5+00225+00175100305ADDAA101000395GA1085+001835999GD14991+0018351GE19AGL   +99999+99999GF199999999999001831999999MA1100305100115REMMET12601/07/24 07:54:02 METAR KVAY 071254Z 29005KT 9SM OVC006 02/02 A2962 RMK AO2 RAE05UPB05E20 CIG 004V010 SLP030 P0001 T00220017 $
0245724074937802024010713526+39941-074841FM-16+0016KVAY V0202805N00265001835MN0032195N5+00205+00205999999ADDAU110020015AU200001015AW1105AW2615GA1075+001835999GA2085+002745999GD13991+0018359GD24991+0027459MA1100375100185MW1615REMMET11601/07/24 08:52:02 SPECI KVAY 071352Z 28005KT 2SM -RA BR BKN006 OVC009 02/02 A2964 RMK AO2 UPB47E49RAB49 P0000 $ FIBI
0316724074937802024010713547+39941-074841FM-15+0016KVAY V0202705N00365001835MN0032195N5+00285+00175100385ADDAA101000395AU110020015AU200001015AW1105AW2615GA1075+001835999GA2085+002745999GD13991+0018359GD24991+0027459GE19AGL   +99999+99999GF199999999999001831999999MA1100375100185MW1615REMMET12801/07/24 08:54:02 METAR KVAY 071354Z 27007KT 2SM -RA BR BKN006 OVC009 03/02 A2964 RMK AO2 UPB47E49RAB49 SLP038 P0001 T00280017 $
0286724074937802024010714407+39941-074841FM-16+0016KVAY V0209999V00315002135MN0028165N5+00225+00175999999ADDAA101000231AU120090015AU200001015AW1105AW2401AW3415GA1085+002135999GD14991+0021359GE19AGL   +99999+99999GF199999999999002131999999MA1100445100255OC100825REMMET12101/07/24 09:40:02 SPECI KVAY 071440Z VRB06G16KT 1 3/4SM UP BR OVC007 02/02 A2966 RMK AO2 RAE1358UPB1358 P0001 T00220017 $
0311724074937802024010714547+39941-074841FM-15+0016KVAY V0202905N00215001525MN0048285N5+00225+00175100425ADDAA101000395AA203000891AU100001015AW1105GA1085+001525999GD14991+0015259GE19AGL   +99999+99999GF199999999999001521999999MA1100415100225MD1190219+9999REMMET13301/07/24 09:54:02 METAR KVAY 071454Z 29004KT 3SM BR OVC005 02/02 A2965 RMK AO2 RAE1358UPB1358E44 SLP042 P0001 60003 T00220017 51021 $EQDQ01  00078PRCP03
0206724074937802024010715187+39941-074841FM-16+0016KVAY V0202905N00415001835MN0160935N5+00285+00115999999ADDGA1085+001835999GD14991+0018351GE19AGL   +99999+99999GF199999999999001831999999MA1100445100255REMMET10001/07/24 10:18:02 SPECI KVAY 071518Z 29008KT 10SM OVC006 03/01 A2966 RMK AO2 CIG 004V009 T00280011 $
0224724074937802024010715547+39941-074841FM-15+0016KVAY V0202805N00265001835MN0160935N5+00285+00175100455ADDAA101000095GA1085+001835999GD14991+0018351GE19AGL   +99999+99999GF199999999999001831999999MA1100445100255REMMET10701/07/24 10:54:02 METAR KVAY 071554Z 28005KT 10SM OVC006 03/02 A2966 RMK AO2 CIG 005V010 SLP045 T00280017 $
0300724074937802024010716547+39941-074841FM-15+0016KVAY V0202805N00515004575MN0160935N5+00395+00175100365ADDAA101000025AU110020015AW1615GA1045+002445999GA2085+004575999GD12991+0024459GD24991+0045759GE19AGL   +99999+99999GF199999999999002441999999MA1100375100185MW1615OC100825REMMET12101/07/24 11:54:02 METAR KVAY 071654Z 28010G16KT 10SM -RA SCT008 OVC015 04/02 A2964 RMK AO2 RAB27 SLP036 P0000 T00390017 $
0230724074937802024010717037+39941-074841FM-16+0016KVAY V0202905N00575004275MN0160935N5+00395+00175999999ADDAA101000021GA1085+004275999GD14991+0042759GE19AGL   +99999+99999GF199999999999004271999999MA1100345100155OC101035REMMET10501/07/24 12:03:02 SPECI KVAY 071703Z 29011G20KT 10SM OVC014 04/02 A2963 RMK AO2 RAE1658 P0000 T00390017 $
0230724074937802024010717157+39941-074841FM-16+0016KVAY V0202805N00575005185MN0160935N5+00395+00115999999ADDAA101000021GA1085+005185999GD14991+0051859GE19AGL   +99999+99999GF199999999999005181999999MA1100345100155OC100885REMMET10501/07/24 12:15:02 SPECI KVAY 071715Z 28011G17KT 10SM OVC017 04/01 A2963 RMK AO2 RAE1658 P0000 T00390011 $
0331724074937802024010717547+39941-074841FM-15+0016KVAY V0202905N00575005185MN0160935N5+00445+00115100355ADDAA101000095AA206000891GA1085+005185999GD14991+0051859GE19AGL   +99999+99999GF199999999999005181999999KA1060M+00441KA2060N+00221MA1100345100155MD1890079+9999OC100985REMMET13601/07/24 12:54:02 METAR KVAY 071754Z 29011G19KT 10SM OVC017 04/01 A2963 RMK AO2 RAE1658 SLP035 P0000 60003 T00440011 10044 20022 58007 $EQDQ01  00078PRCP06
0223724074937802024010718547+39941-074841FM-15+0016KVAY V0202905N00415007325MN0160935N5+00505+00065100395ADDAA101000095GA1085+007325999GD14991+0073259GE19AGL   +99999+99999GF199999999999007321999999MA1100415100225OC101085REMMET09801/07/24 13:54:02 METAR KVAY 071854Z 29008G21KT 10SM OVC024 05/01 A2965 RMK AO2 SLP039 T00500006 $
0224724074937802024010719547+39941-074841FM-15+0016KVAY V0203005N00725008535MN0160935N5+00565-00065100515ADDAA101000095GA1085+008535999GD14991+0085359GE19AGL   +99999+99999GF199999999999008531999999MA1100515100325OC101185REMMET09901/07/24 14:54:02 METAR KVAY 071954Z 30014G23KT 10SM OVC028 06/M01 A2968 RMK AO2 SLP051 T00561006 $
0206724074937802024010720017+39941-074841FM-16+0016KVAY V0202805N00885009145MN0160935N5+00565-00065999999ADDGA1085+009145999GD14991+0091459GE19AGL   +99999+99999GF199999999999009141999999MA1100545100355OC101295REMMET09201/07/24 15:01:02 SPECI KVAY 072001Z 28017G25KT 10SM OVC030 06/M01 A2969 RMK AO2 T00561006 $
0283724074937802024010720547+39941-074841FM-15+0016KVAY V0202905V00675010975MN0160935N5+00505-00115100675ADDAA101000095GA1075+010975999GD13991+0109759GE19AGL   +99999+99999GF199999999999010971999999MA1100685100495MD1390329+9999OC101085OD149901441290REMMET13001/07/24 15:54:02 METAR KVAY 072054Z 29013G21KT 10SM BKN036 05/M01 A2973 RMK AO2 PK WND 29028/2004 PRESRR SLP067 T00501011 53032 $
0219724074937802024010721547+39941-074841FM-15+0016KVAY V0203005N00675011285MN9999997N5+00505-00175100815ADDAA101000095GA1085+011285999GD14991+0112859GE19AGL   +99999+99999GF199999999999011281999999MA1100815100625OC101135REMMET09401/07/24 16:54:02 METAR KVAY 072154Z 30013G22KT OVC037 05/M02 A2977 RMK AO2 SLP081 T00501017 $
0245724074937802024010722547+39941-074841FM-15+0016KVAY V0202905N004652200059N9999997N5+00505-00175100995ADDAA101000095GA1025+012805999GD11991+0128059GE19AGL   +99999+99999GF102995999999012801999999MA1100985100795OC100825REMMET10101/07/24 17:54:02 METAR KVAY 072254Z 29009G16KT FEW042 05/M02 A2982 RMK AO2 PRESRR SLP099 T00501017 $EQDD01      0ADE726
0241724074937802024010723547+39941-074841FM-15+0016KVAY V0202805N004152200059N9999997N5+00445-00175101195ADDAA101000095GA1005+999999999GD10991+9999999GF100991999999999999999999KA1060M+00561KA2060N+00441MA1101195100995MD1390519+9999REMMET10601/07/24 18:54:02 METAR KVAY 072354Z 28008KT CLR 04/M02 A2988 RMK AO2 SLP119 T00441017 10056 20044 53051 $
0208724074937802024010800547+39941-074841FM-15+0016KVAY V0202905N00415030485MN9999997N5+00445-00175101325ADDAA101000095GA1075+030485999GD13991+0304859GE19AGL   +99999+99999GF199999999999030481999999MA1101325101135REMMET09101/07/24 19:54:01 METAR KVAY 080054Z 29008KT BKN100 04/M02 A2992 RMK AO2 SLP132 T00441017 $
0183724074937802024010801547+39941-074841FM-15+0016KVAY V0202705N002652200059N9999997N5+00335-00175101425ADDAA101000095GA1005+999999999GD10991+9999999GF100991999999999999999999MA1101425101235REMMET08801/07/24 20:54:01 METAR KVAY 080154Z 27005KT CLR 03/M02 A2995 RMK AO2 SLP142 T00331017 $
0203724074937802024010802547+39941-074841FM-15+0016KVAY V0202905N003152200059N9999997N5+00335-00115101505ADDAA101000095GA1005+999999999GD10991+9999999GF100991999999999999999999MA1101495101305MD1190319+9999REMMET09401/07/24 21:54:01 METAR KVAY 080254Z 29006KT CLR 03/M01 A2997 RMK AO2 SLP150 T00331011 51031 $
0183724074937802024010803547+39941-074841FM-15+0016KVAY V0202605N002652200059N9999997N5+00285-00115101615ADDAA101000095GA1005+999999999GD10991+9999999GF100991999999999999999999MA1101635101435REMMET08801/07/24 22:54:02 METAR KVAY 080354Z 26005KT CLR 03/M01 A3001 RMK AO2 SLP161 T00281011 $
0219724074937802024010804547+39941-074841FM-15+0016KVAY V0202405N002652200059N9999997N5+00285-00115101735ADDAA101000095GA1005+999999999GD10991+9999999GF100991999999999999999999KA1240M+00561KA2240N+00221MA1101735101535REMMET09801/07/24 23:54:02 METAR KVAY 080454Z 24005KT CLR 03/M01 A3004 RMK AO2 SLP173 T00281011 400560022 $
0922724074937802024010804596+39941-074841SOD  +0016KVAY V020999999999999999999999999999+99999+99999999999ADDAA124003095AT1AU16RA  5AT2AU13BR  5AT3AU19UP  5KA1240M+00565KA2240N+00225MG1100274100104OE11240143129015045OE22240089428015015OE33240041199999995REMSOD73024 HR PRECIPITATION (IN):0.12  24 HR MAX TEMP (F):42 24 HR MAX TEMP TIME (LST):1533 24 HR MIN TEMP (F):36 24 HR MIN TEMP TIME (LST):1001 AVERAGE STATION PRESSURE:29.610 MINIMUM SEA LEVEL PRESSURE:29.56 TIME OF OCCURRENCE:0451 PEAK WIND SPEED (MPH):32  PEAK WIND DIR (DEG):290 PEAK WIND TIME (LST):1504  FASTEST 2MIN SPEED (MPH):20 FASTEST 2MIN DIR (DEG):280 FASTEST 2MIN TIME (LST):1501 AVERAGE WIND SPEED (MPH):9.2  24 HR AVG TEMP (F):39 HEATING DEGREE DAYS:26  COOLING DEGREE DAYS:0   LATEST DAY MAX TEMP (0700-1900 LST):42  LATEST NIGHT MIN TEMP(1900-0800 LST):36 HOURLY INCREMENTAL PRECIPITATION VALUES (IN):.05 0.01 T    T    0.01 T    0.02 0.01 0.01 0.01 0.00 T    0.00 0.00 0.00 0.00 0.00 0.00 0.00 0.00 0.00 0.00 0.00 0.00EQDR01     N7GJS072R02     N7GKS075
0266724074937802024010805547+39941-074841FM-15+0016KVAY V0202605N00215016765MN9999997N5+00395-00115101845ADDAA101000095GA1085+016765999GD14991+0167659GE19AGL   +99999+99999GF199999999999016761999999KA1060M+00441KA2060N+00281MA1101835101645MD1390349+9999REMMET10901/08/24 00:54:02 METAR KVAY 080554Z 26004KT OVC055 04/M01 A3007 RMK AO2 SLP184 T00391011 10044 20028 53034 $
0208724074937802024010806547+39941-074841FM-15+0016KVAY V0202605N00415015245MN9999997N5+00445-00065101985ADDAA101000095GA1085+015245999GD14991+0152459GE19AGL   +99999+99999GF199999999999015241999999MA1101965101775REMMET09101/08/24 01:54:02 METAR KVAY 080654Z 26008KT OVC050 04/M01 A3011 RMK AO2 SLP198 T00441006 $
0183724074937802024010807547+39941-074841FM-15+0016KVAY V0203005N003152200059N9999997N5+00395-00115102045ADDAA101000095GA1005+999999999GD10991+9999999GF100991999999999999999999MA1102035101845REMMET08801/08/24 02:54:02 METAR KVAY 080754Z 30006KT CLR 04/M01 A3013 RMK AO2 SLP204 T00391011 $
0228724074937802024010808547+39941-074841FM-15+0016KVAY V0202905N00265016765MN9999997N5+00395-00065102145ADDAA101000095GA1075+016765999GD13991+0167659GE19AGL   +99999+99999GF199999999999016761999999MA1102135101945MD1190309+9999REMMET09701/08/24 03:54:02 METAR KVAY 080854Z 29005KT BKN055 04/M01 A3016 RMK AO2 SLP214 T00391006 51030 $
0183724074937802024010809547+39941-074841FM-15+0016KVAY V0203105N003152200059N9999997N5+00335-00115102245ADDAA101000095GA1005+999999999GD10991+9999999GF100991999999999999999999MA1102245102045REMMET08801/08/24 04:54:02 METAR KVAY 080954Z 31006KT CLR 03/M01 A3019 RMK AO2 SLP224 T00331011 $
0183724074937802024010810547+39941-074841FM-15+0016KVAY V0203105N002652200059N9999997N5+00285-00115102365ADDAA101000095GA1005+999999999GD10991+9999999GF100991999999999999999999MA1102375102185REMMET08801/08/24 05:54:02 METAR KVAY 081054Z 31005KT CLR 03/M01 A3023 RMK AO2 SLP236 T00281011 $
0258724074937802024010811547+39941-074841FM-15+0016KVAY V0203005N001552200059N9999997N5+00225-00175102565ADDAA101000095AA224000891GA1005+999999999GD10991+9999999GF100991999999999999999999KA1060M+00441KA2060N+00221MA1102575102385MD1390419+9999REMMET11201/08/24 06:54:02 METAR KVAY 081154Z 30003KT CLR 02/M02 A3029 RMK AO2 SLP256 70003 T00221017 10044 20022 53041 $
0183724074937802024010812547+39941-074841FM-15+0016KVAY V0209999C000052200059N9999997N5+00005-00225102675ADDAA101000095GA1005+999999999GD10991+9999999GF100991999999999999999999MA1102685102485REMMET08801/08/24 07:54:02 METAR KVAY 081254Z 00000KT CLR 00/M02 A3032 RMK AO2 SLP267 T00001022 $
0188724074937802024010813547+39941-074841FM-15+0016KVAY V0203405N003152200059N0160935N5+00395-00175102805ADDAA101000095GA1005+999999999GD10991+9999999GF100991999999999999999999MA1102815102625REMMET09301/08/24 08:54:02 METAR KVAY 081354Z 34006KT 10SM CLR 04/M02 A3036 RMK AO2 SLP280 T00391017 $
0206724074937802024010814547+39941-074841FM-15+0016KVAY V0203305N005752200059N0160935N5+00505-00285102965ADDAA101000095GA1005+999999999GD10991+9999999GF100991999999999999999999MA1102955102755MD1390409+9999REMMET09701/08/24 09:54:02 METAR KVAY 081454Z 33011KT 10SM CLR 05/M03 A3040 RMK AO2 SLP296 T00501028 53040
0186724074937802024010815547+39941-074841FM-15+0016KVAY V0203405N005152200059N0160935N5+00615-00335102985ADDAA101000095GA1005+999999999GD10991+9999999GF100991999999999999999999MA1102985102795REMMET09101/08/24 10:54:02 METAR KVAY 081554Z 34010KT 10SM CLR 06/M03 A3041 RMK AO2 SLP298 T00611033
0197724074937802024010816547+39941-074841FM-15+0016KVAY V0200105N005752200059N0160935N5+00785-00285102955ADDAA101000095GA1005+999999999GD10991+9999999GF100991999999999999999999MA1102955102755OC100885REMMET09401/08/24 11:54:02 METAR KVAY 081654Z 01011G17KT 10SM CLR 08/M03 A3040 RMK AO2 SLP295 T00781028
0244724074937802024010817547+39941-074841FM-15+0016KVAY V0209999V003152200059N0160935N5+00785-00335102935ADDAA101000095GA1005+999999999GD10991+9999999GF100991999999999999999999KA1060M+00831KA2060N+00001MA1102955102755MD1890029+9999REMMET10901/08/24 12:54:02 METAR KVAY 081754Z VRB06KT 10SM CLR 08/M03 A3040 RMK AO2 SLP293 T00781033 10083 20000 58002
0186724074937802024010818547+39941-074841FM-15+0016KVAY V0203305N003152200059N0160935N5+00835-00335102905ADDAA101000095GA1005+999999999GD10991+9999999GF100991999999999999999999MA1102915102725REMMET09101/08/24 13:54:02 METAR KVAY 081854Z 33006KT 10SM CLR 08/M03 A3039 RMK AO2 SLP290 T00831033
0186724074937802024010819547+39941-074841FM-15+0016KVAY V0202805N002652200059N0160935N5+00725-00445102945ADDAA101000095GA1005+999999999GD10991+9999999GF100991999999999999999999MA1102955102755REMMET09101/08/24 14:54:02 METAR KVAY 081954Z 28005KT 10SM CLR 07/M04 A3040 RMK AO2 SLP294 T00721044
0206724074937802024010820547+39941-074841FM-15+0016KVAY V0203205N002152200059N0160935N5+00725-00395102985ADDAA101000095GA1005+999999999GD10991+9999999GF100991999999999999999999MA1102985102795MD1390049+9999REMMET09701/08/24 15:54:02 METAR KVAY 082054Z 32004KT 10SM CLR 07/M04 A3041 RMK AO2 SLP298 T00721039 53004
0186724074937802024010821547+39941-074841FM-15+0016KVAY V0203205N001552200059N0160935N5+00505-00395103075ADDAA101000095GA1005+999999999GD10991+9999999GF100991999999999999999999MA1103085102895REMMET09101/08/24 16:54:02 METAR KVAY 082154Z 32003KT 10SM CLR 05/M04 A3044 RMK AO2 SLP307 T00501039
0186724074937802024010822547+39941-074841FM-15+0016KVAY V0209999C000052200059N0160935N5+00175-00335103135ADDAA101000095GA1005+999999999GD10991+9999999GF100991999999999999999999MA1103125102925REMMET09101/08/24 17:54:02 METAR KVAY 082254Z 00000KT 10SM CLR 02/M03 A3045 RMK AO2 SLP313 T00171033
0244724074937802024010823547+39941-074841FM-15+0016KVAY V0209999C000052200059N0160935N5+00005-00335103175ADDAA101000095GA1005+999999999GD10991+9999999GF100991999999999999999999KA1060M+00831KA2060N+00001MA1103185102995MD1190209+9999REMMET10901/08/24 18:54:02 METAR KVAY 082354Z 00000KT 10SM CLR 00/M03 A3047 RMK AO2 SLP317 T00001033 10083 20000 51020
0187724074937802024010900547+39941-074841FM-15+0016KVAY V0209999C000052200059N0160935N5-00115-00335103175ADDAA101000095GA1005+999999999GD10991+9999999GF100991999999999999999999MA1103185102995REMMET09201/08/24 19:54:01 METAR KVAY 090054Z 00000KT 10SM CLR M01/M03 A3047 RMK AO2 SLP317 T10111033
0187724074937802024010901547+39941-074841FM-15+0016KVAY V0209999C000052200059N0160935N5-00175-00395103115ADDAA101000095GA1005+999999999GD10991+9999999GF100991999999999999999999MA1103125102925REMMET09201/08/24 20:54:01 METAR KVAY 090154Z 00000KT 10SM CLR M02/M04 A3045 RMK AO2 SLP311 T10171039
0207724074937802024010902547+39941-074841FM-15+0016KVAY V0209999C000052200059N0160935N5-00225-00395103065ADDAA101000095GA1005+999999999GD10991+9999999GF100991999999999999999999MA1103055102855MD1890129+9999REMMET09801/08/24 21:54:01 METAR KVAY 090254Z 00000KT 10SM CLR M02/M04 A3043 RMK AO2 SLP306 T10221039 58012
0202724074937802024010903547+39941-074841FM-15+0016KVAY V0209999C000052200059N0160935N5-00285-00445103025ADDAA101000095GA1005+999999999GD10991+9999999GF100991999999999999999999MA1103015102825WA1900099REMMET09801/08/24 22:54:02 METAR KVAY 090354Z 00000KT 10SM CLR M03/M04 A3042 RMK AO2 SLP302 I1000 T10281044
0238724074937802024010904547+39941-074841FM-15+0016KVAY V0209999C000052200059N0160935N5-00335-00505103045ADDAA101000095GA1005+999999999GD10991+9999999GF100991999999999999999999KA1240M+00831KA2240N-00331MA1103055102855WA1900099REMMET10801/08/24 23:54:02 METAR KVAY 090454Z 00000KT 10SM CLR M03/M05 A3043 RMK AO2 SLP304 I1000 T10331050 400831033
0886724074937802024010904596+39941-074841SOD  +0016KVAY V020999999999999999999999999999+99999+99999999999ADDAA124000095KA1240M+00835KA2240N-00325MG1102424101764OE11240102835012385OE22240076035011595OE33240021099999995REMSOD73024 HR PRECIPITATION (IN):0.00  24 HR MAX TEMP (F):47 24 HR MAX TEMP TIME (LST):1510 24 HR MIN TEMP (F):26 24 HR MIN TEMP TIME (LST):2359 AVERAGE STATION PRESSURE:30.245 MINIMUM SEA LEVEL PRESSURE:30.05 TIME OF OCCURRENCE:0021 PEAK WIND SPEED (MPH):23  PEAK WIND DIR (DEG):350 PEAK WIND TIME (LST):1238  FASTEST 2MIN SPEED (MPH):17 FASTEST 2MIN DIR (DEG):350 FASTEST 2MIN TIME (LST):1159 AVERAGE WIND SPEED (MPH):4.7  24 HR AVG TEMP (F):37 HEATING DEGREE DAYS:28  COOLING DEGREE DAYS:0   LATEST DAY MAX TEMP (0700-1900 LST):47  LATEST NIGHT MIN TEMP(1900-0800 LST):32 HOURLY INCREMENTAL PRECIPITATION VALUES (IN):.00 0.00 0.00 0.00 0.00 0.00 0.00 0.00 0.00 0.00 0.00 0.00 0.00 0.00 0.00 0.00 0.00 0.00 0.00 0.00 0.00 0.00 0.00 0.00EQDR01     N7GJS072R02     N7GKS075
0266724074937802024010905547+39941-074841FM-15+0016KVAY V0209999C000052200059N0160935N5-00335-00445102995ADDAA101000095GA1005+999999999GD10991+9999999GF100991999999999999999999KA1060M+00001KA2060N-00331MA1102985102795MD1890079+9999WA1900099REMMET12201/09/24 00:54:02 METAR KVAY 090554Z 00000KT 10SM CLR M03/M04 A3041 RMK AO2 SLP299 I1000 I6000 T10331044 10000 21033 58007
0202724074937802024010906547+39941-074841FM-15+0016KVAY V0209999C000052200059N0160935N5-00335-00505102955ADDAA101000095GA1005+999999999GD10991+9999999GF100991999999999999999999MA1102955102755WA1900099REMMET09801/09/24 01:54:02 METAR KVAY 090654Z 00000KT 10SM CLR M03/M05 A3040 RMK AO2 SLP295 I1000 T10331050
0202724074937802024010907547+39941-074841FM-15+0016KVAY V0209999C000052200059N0160935N5-00285-00395102945ADDAA101000095GA1005+999999999GD10991+9999999GF100991999999999999999999MA1102955102755WA1900099REMMET09801/09/24 02:54:02 METAR KVAY 090754Z 00000KT 10SM CLR M03/M04 A3040 RMK AO2 SLP294 I1000 T10281039
0222724074937802024010908547+39941-074841FM-15+0016KVAY V0201105N001552200059N0160935N5-00115-00335102855ADDAA101000095GA1005+999999999GD10991+9999999GF100991999999999999999999MA1102845102655MD1890149+9999WA1900099REMMET10401/09/24 03:54:02 METAR KVAY 090854Z 11003KT 10SM CLR M01/M03 A3037 RMK AO2 SLP285 I3000 T10111033 58014
0187724074937802024010909547+39941-074841FM-15+0016KVAY V0209999C000052200059N0160935N5-00175-00335102825ADDAA101000095GA1005+999999999GD10991+9999999GF100991999999999999999999MA1102815102625REMMET09201/09/24 04:54:02 METAR KVAY 090954Z 00000KT 10SM CLR M02/M03 A3036 RMK AO2 SLP282 T10171033
0212724074937802024010910547+39941-074841FM-15+0016KVAY V0209999C00005011585MN0160935N5-00115-00225102755ADDAA101000095GA1085+011585999GD14991+0115859GE19AGL   +99999+99999GF199999999999011581999999MA1102745102555REMMET09501/09/24 05:54:02 METAR KVAY 091054Z 00000KT 10SM OVC038 M01/M02 A3034 RMK AO2 SLP275 T10111022
0266724074937802024010911547+39941-074841FM-15+0016KVAY V0200905N002152200059N0160935N5+00065-00175102575ADDAA101000095GA1005+999999999GD10991+9999999GF100991999999999999999999KA1060M+00061KA2060N-00391MA1102575102385MD1890289+9999WA1900099REMMET12201/09/24 06:54:02 METAR KVAY 091154Z 09004KT 10SM CLR 01/M02 A3029 RMK AO2 PRESFR SLP257 I6000 T00061017 10006 21039 58028
0186724074937802024010912547+39941-074841FM-15+0016KVAY V0209999C000052200059N0160935N5+00225-00115102565ADDAA101000095GA1005+999999999GD10991+9999999GF100991999999999999999999MA1102575102385REMMET09101/09/24 07:54:02 METAR KVAY 091254Z 00000KT 10SM CLR 02/M01 A3029 RMK AO2 SLP256 T00221011
0210724074937802024010913547+39941-074841FM-15+0016KVAY V0201005N00265033535MN0160935N5+00335+00005102505ADDAA101000095GA1075+033535999GD13991+0335359GE19AGL   +99999+99999GF199999999999033531999999MA1102515102315REMMET09301/09/24 08:54:02 METAR KVAY 091354Z 10005KT 10SM BKN110 03/00 A3027 RMK AO2 SLP250 T00330000
0335724074937802024010914547+39941-074841FM-15+0016KVAY V0201105N00265021345MN0160935N5+00505+00115102405ADDAA101000025AA203000021GA1045+014945999GA2085+021345999GD12991+0149459GD24991+0213459GE19AGL   +99999+99999GF199999999999014941999999MA1102405102215MD1890189+9999REMMET12701/09/24 09:54:02 METAR KVAY 091454Z 11005KT 10SM SCT049 OVC070 05/01 A3024 RMK AO2 RAB37E49 SLP240 P0000 60000 T00500011 58018EQDQ01  00002PRCP03Q02  00008PRCP03
0305724074937802024010915547+39941-074841FM-15+0016KVAY V0201005N00515018295MN0160935N5+00615+00225102155ADDAA101000025AU110020015AW1615GA1075+018295999GA2085+021345999GD13991+0182959GD24991+0213459GE19AGL   +99999+99999GF199999999999018291999999MA1102175101975MW1615OC100825REMMET12601/09/24 10:54:02 METAR KVAY 091554Z 10010G16KT 10SM -RA BKN060 OVC070 06/02 A3017 RMK AO2 RAB24 PRESFR SLP215 P0000 T00610022
0260724074937802024010916547+39941-074841FM-15+0016KVAY V0201105N00515018295MN0160935N5+00725+00395101895ADDAA101000025GA1075+018295999GA2085+024385999GD13991+0182959GD24991+0243859GE19AGL   +99999+99999GF199999999999018291999999MA1101905101705REMMET11201/09/24 11:54:02 METAR KVAY 091654Z 11010KT 10SM BKN060 OVC080 07/04 A3009 RMK AO2 RAE12 SLP189 P0000 T00720039
0426724074937802024010917547+39941-074841FM-15+0016KVAY V0201005N00415015245MN0064375N5+00725+00565101715ADDAA101001396AA206001092AU120020015AU200001015AW1105AW2625GA1045+004275999GA2075+015245999GA3085+016765999GD12991+0042759GD23991+0152459GD34991+0167659GE19AGL   +99999+99999GF199999999999004271999999KA1060M+00721MA1101695101505MD1690699+9999MW1655REMMET15001/09/24 12:54:02 METAR KVAY 091754Z 10008KT 4SM RA BR SCT014 BKN050 OVC055 07/06 A3003 RMK AO2 RAB1655 SLP171 P0004 60004 T00720056 10072 20006 56069EQDQ01  00108PRCP06
0342724074937802024010918047+39941-074841FM-16+0016KVAY V0201105V00365003965MN0064375N5+00725+00565999999ADDAA101000231AU110020015AU200001015AW1105AW2615GA1075+003965999GA2075+008535999GA3085+016765999GD13991+0039659GD23991+0085359GD34991+0167659GE19AGL   +99999+99999GF199999999999003961999999MA1101695101505MW1615OC100725REMMET11501/09/24 13:04:02 SPECI KVAY 091804Z 11007G14KT 4SM -RA BR BKN013 BKN028 OVC055 07/06 A3003 RMK AO2 P0001 T00720056
0289724074937802024010918527+39941-074841FM-16+0016KVAY V0201005V00365002445MN0048285N5+00805+00705999999ADDAA101002531AU120020015AU200001015AW1105AW2625GA1075+002445999GA2085+003665999GD13991+0024459GD24991+0036659GE19AGL   +99999+99999GF199999999999002441999999MA1101465101265MW1655REMMET10101/09/24 13:52:02 SPECI KVAY 091852Z 10007KT 3SM RA BR BKN008 OVC012 08/07 A2996 RMK AO2 PRESFR P0010
0306724074937802024010918547+39941-074841FM-15+0016KVAY V0201005N00465002445MN0048285N5+00785+00675101455ADDAA101002595AU120020015AU200001015AW1105AW2625GA1075+002445999GA2085+003665999GD13991+0024459GD24991+0036659GE19AGL   +99999+99999GF199999999999002441999999MA1101465101265MW1655REMMET11801/09/24 13:54:02 METAR KVAY 091854Z 10009KT 3SM RA BR BKN008 OVC012 08/07 A2996 RMK AO2 PRESFR SLP145 P0010 T00780067
0291724074937802024010919547+39941-074841FM-15+0016KVAY V0201105N00415002745MN0064375N5+00895+00785101125ADDAA101002595AU120020015AU200001015AW1105AW2625GA1085+002745999GD14991+0027451GE19AGL   +99999+99999GF199999999999002741999999MA1101125100935MW1655OC100825REMMET12601/09/24 14:54:02 METAR KVAY 091954Z 11008G16KT 4SM RA BR OVC009 09/08 A2986 RMK AO2 CIG 007V013 PRESFR SLP112 P0011 T00890078
0273724074937802024010920297+39941-074841FM-16+0016KVAY V0201205N00465003055MN0080475N5+00945+00945999999ADDAA101001031AU110020015AU200001015AW1105AW2615GA1085+003055999GD14991+0030559GE19AGL   +99999+99999GF199999999999003051999999MA1100885100695MW1615OC100935REMMET10801/09/24 15:29:02 SPECI KVAY 092029Z 12009G18KT 5SM -RA BR OVC010 09/09 A2979 RMK AO2 PRESFR P0004 T00940094
0309724074937802024010920547+39941-074841FM-15+0016KVAY V0201305N00415003055MN0128755N5+01005+00895100855ADDAA101001595AA203006991AU110020015AW1615GA1085+003055999GD14991+0030559GE19AGL   +99999+99999GF199999999999003051999999MA1100855100665MD1890619+9999MW1615OC100935REMMET11701/09/24 15:54:02 METAR KVAY 092054Z 13008G18KT 8SM -RA OVC010 10/09 A2978 RMK AO2 SLP085 P0006 60027 T01000089 58061EQDQ01  00688PRCP03
0387724074937802024010921547+39941-074841FM-15+0016KVAY V0201205N00515003965MN0048285N5+01115+00945100525ADDAA101003695AU120020015AU200001015AW1105AW2625GA1075+003965999GA2075+006715999GA3085+008845999GD13991+0039659GD23991+0067159GD34991+0088459GE19AGL   +99999+99999GF199999999999003961999999MA1100515100325MW1655OC101295OD149901331110REMMET14601/09/24 16:54:02 METAR KVAY 092154Z 12010G25KT 3SM RA BR BKN013 BKN022 OVC029 11/09 A2968 RMK AO2 PK WND 11026/2119 PRESFR SLP052 P0013 T01110094
0340724074937802024010922387+39941-074841FM-16+0016KVAY V0201405N00725005185MN0040235N5+01175+01005999999ADDAA101004031AU130020015AU200001015AW1105AW2635GA1075+005185999GA2085+008235999GD13991+0051859GD24991+0082359GE19AGL   +99999+99999GF199999999999005181999999MA1100345100155MW1635OC101185OD149901441120REMMET13001/09/24 17:38:02 SPECI KVAY 092238Z 14014G23KT 2 1/2SM +RA BR BKN017 OVC027 12/10 A2963 RMK AO2 PK WND 12028/2208 P0016 T01170100
0387724074937802024010922547+39941-074841FM-15+0016KVAY V0201405N00725004575MN0048285N5+01175+01065100185ADDAA101005695AU120020015AU200001015AW1105AW2625GA1025+003055999GA2075+004575999GA3085+010675999GD11991+0030559GD23991+0045759GD34991+0106759GE19AGL   +99999+99999GF199999999999003051999999MA1100175099985MW1655OC101605OD149901591140REMMET14601/09/24 17:54:02 METAR KVAY 092254Z 14014G31KT 3SM RA BR FEW010 BKN015 OVC035 12/11 A2958 RMK AO2 PK WND 14031/2249 PRESFR SLP018 P0021 T01170106
0384724074937802024010923007+39941-074841FM-16+0016KVAY V0201405V00675003965MN0040235N5+01225+01065999999ADDAA101000531AU120020015AU200001015AW1105AW2625GA1025+002745999GA2075+003965999GA3085+008845999GD11991+0027459GD23991+0039659GD34991+0088459GE19AGL   +99999+99999GF199999999999002741999999MA1100145099955MW1655OC101495OD149901491140REMMET14301/09/24 18:00:02 SPECI KVAY 092300Z 14013G29KT 2 1/2SM RA BR FEW009 BKN013 OVC029 12/11 A2957 RMK AO2 PK WND 14029/2256 PRESFR P0002 T01220106
0377724074937802024010923087+39941-074841FM-16+0016KVAY V0201505N00775004575MN0040235N5+01225+01065999999ADDAA101001231AU120020015AU200001015AW1105AW2625GA1025+002745999GA2075+004575999GA3085+009455999GD11991+0027459GD23991+0045759GD34991+0094559GE19AGL   +99999+99999GF199999999999002741999999MA1100105099915MW1655OC101495OD149901491140REMMET13601/09/24 18:08:02 SPECI KVAY 092308Z 15015G29KT 2 1/2SM RA BR FEW009 BKN015 OVC031 12/11 A2956 RMK AO2 PK WND 14029/2256 P0005 T01220106
0380724074937802024010923187+39941-074841FM-16+0016KVAY V0201305V00825003055MN0048285N5+01225+01115999999ADDAA101001731AU120020015AU200001015AW1105AW2625GA1075+003055999GA2075+005185999GA3085+006715999GD13991+0030559GD23991+0051859GD34991+0067159GE19AGL   +99999+99999GF199999999999003051999999MA1100005099815MW1655OC101545OD149901541140REMMET13901/09/24 18:18:02 SPECI KVAY 092318Z 13016G30KT 3SM RA BR BKN010 BKN017 OVC022 12/11 A2953 RMK AO2 PK WND 14030/2316 PRESFR P0007 T01220111
0340724074937802024010923437+39941-074841FM-16+0016KVAY V0201505N00885003355MN0028165N5+01285+01175999999ADDAA101004031AU130020015AU200001015AW1105AW2635GA1075+003355999GA2085+004885999GD13991+0033559GD24991+0048859GE19AGL   +99999+99999GF199999999999003351999999MA1099935099745MW1635OC101395OD149901541140REMMET13001/09/24 18:43:02 SPECI KVAY 092343Z 15017G27KT 1 3/4SM +RA BR BKN011 OVC016 13/12 A2951 RMK AO2 PK WND 14030/2316 P0016 T01280117
