0235724095147922024010100537+40277-074816FM-15+0065KTTN V0209999C000052200059N0160935N5+00395-00175101565ADDAA101000095GA1045+014335999GD12991+0143359GE19AGL   +99999+99999GF104995999999014331999999MA1101635100845REMMET09912/31/23 19:53:03 METAR KTTN 010053Z 00000KT 10SM SCT047 04/M02 A3001 RMK AO2 SLP156 T00391017 (JM)EQDD01      0ADE726
0292724095147922024010101537+40277-074816FM-15+0065KTTN V0209999C00005014945MN0160935N5+00225-00175101545ADDAA101000095GA1075+014945999GA2075+018295999GA3075+025915999GD13991+0149459GD23991+0182959GD33991+0259159GE19AGL   +99999+99999GF199999999999014941999999MA1101595100815REMMET11312/31/23 20:53:03 METAR KTTN 010153Z 00000KT 10SM BKN049 BKN060 BKN085 02/M02 A3000 RMK AO2 SLP154 T00221017 (JM)
0274724095147922024010102537+40277-074816FM-15+0065KTTN V0209999V00155015245MN0160935N5+00335-00115101565ADDAA101000095GA1075+015245999GA2085+019815999GD13991+0152459GD24991+0198159GE19AGL   +99999+99999GF199999999999015241999999MA1101635100845MD1390019+9999REMMET11212/31/23 21:53:03 METAR KTTN 010253Z VRB03KT 10SM BKN050 OVC065 03/M01 A3001 RMK AO2 SLP156 T00331011 53001 (JM)
0211724095147922024010103537+40277-074816FM-15+0065KTTN V0209999C00005014025MN0160935N5+00335-00115101595ADDAA101000095GA1085+014025999GD14991+0140259GE19AGL   +99999+99999GF199999999999014021999999MA1101635100845REMMET09412/31/23 22:53:03 METAR KTTN 010353Z 00000KT 10SM OVC046 03/M01 A3001 RMK AO2 SLP159 T00331011
0247724095147922024010104537+40277-074816FM-15+0065KTTN V0209999C00005013415MN0160935N5+00335-00115101565ADDAA101000095GA1085+013415999GD14991+0134159GE19AGL   +99999+99999GF199999999999013411999999KA1240M+00561KA2240N+00061MA1101635100845REMMET10412/31/23 23:53:03 METAR KTTN 010453Z 00000KT 10SM OVC044 03/M01 A3001 RMK AO2 SLP156 T00331011 400560006
0899724095147922024010104596+40277-074816SOD  +0065KTTN V020999999999999999999999999999+99999+99999999999ADDAA124000095AJ100009599999999AL12400095AN1024000095KA1240M+00565KA2240N+00065MG1100634101024OE11240098327099995OE22240053629099995OE33240016199999995REMSOD73924 HR PRECIPITATION (IN): 0.00 SNOW DEPTH (IN):0     24 HR SNOWFALL (IN):0.0  24 HR MAX TEMP (F): 4224 HR MIN TEMP (F): 33AVERAGE STATION PRESSURE:29.715 MINIMUM SEA LEVEL PRESSURE:29.83 TIME OF OCCURRENCE:0024 PEAK WIND SPEED (MPH): 22 PEAK WIND DIR (DEG):270 PEAK WIND TIME (LST):      FASTEST 2MIN SPEED (MPH): 12FASTEST 2MIN DIR (DEG):290 FASTEST 2MIN TIME (LST):     AVERAGE WIND SPEED (MPH): 3.6 24 HR AVG TEMP (F): 38DEPART FROM NORMAL:  5  HEATING DEGREE DAYS: 27 COOLING DEGREE DAYS:  0 LATEST DAY MAX TEMP (0700-1900 LST):42  LATEST NIGHT MIN TEMP(1900-0800 LST):33 HOURLY INCREMENTAL PRECIPITATION VALUES (IN):.00 0.00 0.00 0.00 0.00 0.00 0.00 0.00 0.00 0.00 0.00 0.00 0.00 0.00 0.00 0.00 0.00 0.00 0.00 0.00 0.00 0.00 0.00 0.00
1259724095147922024010104596+40277-074816SOM  +0065KTTN V020999999999999999999999999999+99999+99999999999ADDAB10191396AD10077591718999999996AE1095085075025AH1005003691807575AH2010005691802525AH3015007491802575AH4020008491803025AH5030011291802585AH6045015791802585AI1060019391803035AI2080021691803035AI3100024191803135AI4120026491804025AI5150030091804055AI6180031891804325KB1744N+00895KB2744M+08945KB3744A+04945KC1N9-00501499995KC2M9+01661099995KD1744H07425KD2744C00005KE1005005155005MH1101154101904MK1103961409595098241807315REMSOM795PCP MTOT:7.53 PCP GT 24HRS:3.05 DATE(S):17-18 DAYS W/PCP >=.01:9  DAYS W/PCP >=.10:8  DAYS W/ PCP >=.50:7 DAYS W/PCP >=1.00:2 MSDP AMTS W/DATE-TIME TAGS:MIN:5 0.14  18/0757 MIN:10 0.22  18/0252 MIN:15 0.29  18/0257 MIN:20 0.33  18/0302 MIN:30 0.44  18/0258 MIN:45 0.62  18/0258 MIN:60 0.76  18/0303 MIN:80 0.85  18/0303 MIN:100 0.95  18/0313 MIN:120 1.04  18/0402 MIN:150 1.18  18/0405 MIN:180 1.25  18/0432 AVG DLY MIN:33.6  AVG DLY MAX:48.1  AVG MLY TMP:40.9  MIN TMP:23 DATE(S):14 MAX TMP:62  DATE(S):10 DAYS MAX <=32:0 DAYS MAX >=90:0  DAYS MIN <=32:15 DAYS MIN  <=0:0  AVG STP:29.870 LWST SLP:29.01 DATE/TIME:180731 HGST SLP:30.70 DATE/TIME:140959 HDD MTH TOT:742 DEP NORM:-2553 SEASON(JUL 1-JUN 30):1701 DEP NORM:-25536 CDD MTH TOT:0 DEP NORM:-2553 SEASON(JAN 1-DEC 31):971 DEP NORM:-25536EQDR01  7.537ABP070R02  3.057ADP081
0269724095147922024010105537+40277-074816FM-15+0065KTTN V0203305N00155014025MN0160935N5+00335-00175101535ADDAA101000095GA1085+014025999GD14991+0140259GE19AGL   +99999+99999GF199999999999014021999999KA1060M+00441KA2060N+00221MA1101595100815MD1890039+9999REMMET11201/01/24 00:53:02 METAR KTTN 010553Z 33003KT 10SM OVC046 03/M02 A3000 RMK AO2 SLP153 T00331017 10044 20022 58003
0210724095147922024010106537+40277-074816FM-15+0065KTTN V0209999C00005014025MN0144845N5+00285-00115101515ADDAA101000095GA1085+014025999GD14991+0140259GE19AGL   +99999+99999GF199999999999014021999999MA1101565100785REMMET09301/01/24 01:53:02 METAR KTTN 010653Z 00000KT 9SM OVC046 03/M01 A2999 RMK AO2 SLP151 T00281011
0211724095147922024010107537+40277-074816FM-15+0065KTTN V0209999C00005012195MN0160935N5+00335-00065101485ADDAA101000095GA1085+012195999GD14991+0121959GE19AGL   +99999+99999GF199999999999012191999999MA1101525100745REMMET09401/01/24 02:53:02 METAR KTTN 010753Z 00000KT 10SM OVC040 03/M01 A2998 RMK AO2 SLP148 T00331006
0230724095147922024010108537+40277-074816FM-15+0065KTTN V0209999C00005010975MN0160935N5+00335+00005101465ADDAA101000095GA1085+010975999GD14991+0109759GE19AGL   +99999+99999GF199999999999010971999999MA1101525100745MD1890079+9999REMMET09901/01/24 03:53:02 METAR KTTN 010853Z 00000KT 10SM OVC036 03/00 A2998 RMK AO2 SLP146 T00330000 58007
0209724095147922024010109537+40277-074816FM-15+0065KTTN V0209999C00005010675MN0144845N5+00335+00005101445ADDAA101000095GA1085+010675999GD14991+0106759GE19AGL   +99999+99999GF199999999999010671999999MA1101495100715REMMET09201/01/24 04:53:02 METAR KTTN 010953Z 00000KT 9SM OVC035 03/00 A2997 RMK AO2 SLP144 T00330000
0214724095147922024010110537+40277-074816FM-15+0065KTTN V0203205N00155013415MN0144845N5+00285+00005101495ADDAA101000025GA1085+013415999GD14991+0134159GE19AGL   +99999+99999GF199999999999013411999999MA1101565100785REMMET09701/01/24 05:53:02 METAR KTTN 011053Z 32003KT 9SM OVC044 03/00 A2999 RMK AO2 SLP149 T00280000 (KJ)
0396724095147922024010111537+40277-074816FM-15+0065KTTN V0209999C00005013725MN0128755N5+00285+00065101555ADDAA101000025AA206000021AU120090015AW1415GA1025+010675999GA2085+013725999GD11991+0106759GD24991+0137259GE19AGL   +99999+99999GF199999999999010671999999KA1060M+00331KA2060N+00221MA1101595100815MD1390099+9999REMMET14501/01/24 06:53:02 METAR KTTN 011153Z 00000KT 8SM UP FEW035 OVC045 03/01 A3000 RMK AO2 UPB1057 SLP155 P0000 60000 T00280006 10033 20022 53009 (KJ)EQDQ01  00008PRCP06D01      0ADE735
0266724095147922024010112537+40277-074816FM-15+0065KTTN V0203205N00155013415MN0144845N5+00225+00065101605ADDAA101000095GA1045+011285999GA2085+013415999GD12991+0112859GD24991+0134159GE19AGL   +99999+99999GF199999999999011281999999MA1101665100885REMMET11801/01/24 07:53:02 METAR KTTN 011253Z 32003KT 9SM SCT037 OVC044 02/01 A3002 RMK AO2 UPE1158 SLP160 P0000 T00220006 (KJ)
0224724095147922024010113497+40277-074816FM-16+0065KTTN V0209999C00005007925MN0128755N5+00305+00105999999ADDGA1075+007925999GA2085+010065999GD13991+0079259GD24991+0100659GE19AGL   +99999+99999GF199999999999007921999999MA1101695100915REMMET08701/01/24 08:49:02 SPECI KTTN 011349Z 00000KT 8SM BKN026 OVC033 03/01 A3003 RMK AO2 (KJ)
0252724095147922024010113537+40277-074816FM-15+0065KTTN V0209999C00005007325MN0144845N5+00285+00115101645ADDAA101000095GA1075+007325999GA2085+010065999GD13991+0073259GD24991+0100659GE19AGL   +99999+99999GF199999999999007321999999MA1101695100915REMMET10401/01/24 08:53:02 METAR KTTN 011353Z 00000KT 9SM BKN024 OVC033 03/01 A3003 RMK AO2 SLP164 T00280011 (KJ)
0235724095147922024010114107+40277-074816FM-16+0065KTTN V0203305N00215009145MN0160935N5+00335+00065999999ADDGA1045+007325999GA2085+009145999GD12991+0073259GD24991+0091459GE19AGL   +99999+99999GF199999999999007321999999MA1101695100915REMMET09801/01/24 09:10:02 SPECI KTTN 011410Z 33004KT 10SM SCT024 OVC030 03/01 A3003 RMK AO2 T00330006 (EE)
0290724095147922024010114537+40277-074816FM-15+0065KTTN V0209999V00265010065MN0160935N5+00395+00115101645ADDAA101000095AA203000021GA1075+010065999GA2085+033535999GD13991+0100659GD24991+0335359GE19AGL   +99999+99999GF199999999999010061999999MA1101695100915MD1190049+9999REMMET11701/01/24 09:53:02 METAR KTTN 011453Z VRB05KT 10SM BKN033 OVC110 04/01 A3003 RMK AO2 SLP164 60000 T00390011 51004 (EE)
0272724095147922024010115537+40277-074816FM-15+0065KTTN V0209999V001552200059N0160935N5+00565+00225101635ADDAA101000095GA1025+004885999GA2045+030485999GD11991+0048859GD22991+0304859GE19AGL   +99999+99999GF104995999999004881999999MA1101695100915REMMET10501/01/24 10:53:02 METAR KTTN 011553Z VRB03KT 10SM FEW016 SCT100 06/02 A3003 RMK AO2 SLP163 T00560022 (EE)EQDD01      0ADE726
0235724095147922024010116317+40277-074816FM-16+0065KTTN V0209999C00005005495MN0160935N5+00565+00175999999ADDGA1075+005495999GA2085+030485999GD13991+0054959GD24991+0304859GE19AGL   +99999+99999GF199999999999005491999999MA1101635100845REMMET09801/01/24 11:31:02 SPECI KTTN 011631Z 00000KT 10SM BKN018 OVC100 06/02 A3001 RMK AO2 T00560017 (EE)
0253724095147922024010116537+40277-074816FM-15+0065KTTN V0209999V00215005185MN0160935N5+00615+00175101575ADDAA101000095GA1075+005185999GA2085+030485999GD13991+0051859GD24991+0304859GE19AGL   +99999+99999GF199999999999005181999999MA1101635100845REMMET10501/01/24 11:53:02 METAR KTTN 011653Z VRB04KT 10SM BKN017 OVC100 06/02 A3001 RMK AO2 SLP157 T00610017 (EE)
0328724095147922024010117537+40277-074816FM-15+0065KTTN V0203505N00265007325MN0160935N5+00615+00115101555ADDAA101000095AA206000021GA1075+007325999GA2085+008535999GD13991+0073259GD24991+0085359GE19AGL   +99999+99999GF199999999999007321999999KA1060M+00611KA2060N+00221MA1101595100815MD1890099+9999REMMET12901/01/24 12:53:02 METAR KTTN 011753Z 35005KT 10SM BKN024 OVC028 06/01 A3000 RMK AO2 SLP155 60000 T00610011 10061 20022 58009 (EE)
0215724095147922024010118537+40277-074816FM-15+0065KTTN V0203305N00265007625MN0160935N5+00615+00115101545ADDAA101000095GA1085+007625999GD14991+0076259GE19AGL   +99999+99999GF199999999999007621999999MA1101595100815REMMET09801/01/24 13:53:02 METAR KTTN 011853Z 33005KT 10SM OVC025 06/01 A3000 RMK AO2 SLP154 T00610011 (BC)
0197724095147922024010119147+40277-074816FM-16+0065KTTN V0203605N00315009145MN0160935N5+00615+00115999999ADDGA1085+009145999GD14991+0091459GE19AGL   +99999+99999GF199999999999009141999999MA1101595100815REMMET09101/01/24 14:14:02 SPECI KTTN 011914Z 36006KT 10SM OVC030 06/01 A3000 RMK AO2 T00610011 (BC)
0253724095147922024010119537+40277-074816FM-15+0065KTTN V0203405N00315010975MN0160935N5+00675+00065101565ADDAA101000095GA1075+010975999GA2085+028965999GD13991+0109759GD24991+0289659GE19AGL   +99999+99999GF199999999999010971999999MA1101635100845REMMET10501/01/24 14:53:02 METAR KTTN 011953Z 34006KT 10SM BKN036 OVC095 07/01 A3001 RMK AO2 SLP156 T00670006 (BC)
0235724095147922024010120537+40277-074816FM-15+0065KTTN V0203605N00215011895MN0160935N5+00615+00065101595ADDAA101000095GA1085+011895999GD14991+0118959GE19AGL   +99999+99999GF199999999999011891999999MA1101665100885MD1390059+9999REMMET10401/01/24 15:53:02 METAR KTTN 012053Z 36004KT 10SM OVC039 06/01 A3002 RMK AO2 SLP159 T00610006 53005 (BC)
0215724095147922024010121537+40277-074816FM-15+0065KTTN V0209999C00005011895MN0160935N5+00615+00065101645ADDAA101000095GA1085+011895999GD14991+0118959GE19AGL   +99999+99999GF199999999999011891999999MA1101695100915REMMET09801/01/24 16:53:02 METAR KTTN 012153Z 00000KT 10SM OVC039 06/01 A3003 RMK AO2 SLP164 T00610006 (BC)
0253724095147922024010122537+40277-074816FM-15+0065KTTN V0203205N00215027435MN0160935N5+00505+00065101685ADDAA101000095GA1025+021345999GA2085+027435999GD11991+0213459GD24991+0274359GE19AGL   +99999+99999GF199999999999021341999999MA1101735100955REMMET10501/01/24 17:53:02 METAR KTTN 012253Z 32004KT 10SM FEW070 OVC090 05/01 A3004 RMK AO2 SLP168 T00500006 (DZ)
0273724095147922024010123537+40277-074816FM-15+0065KTTN V0203505N00265028965MN0160935N5+00445+00005101705ADDAA101000095GA1085+028965999GD14991+0289659GE19AGL   +99999+99999GF199999999999028961999999KA1060M+00671KA2060N+00441MA1101765100985MD1190119+9999REMMET11601/01/24 18:53:02 METAR KTTN 012353Z 35005KT 10SM OVC095 04/00 A3005 RMK AO2 SLP170 T00440000 10067 20044 51011 (DZ)
0211724095147922024010200537+40277-074816FM-15+0065KTTN V0203405N00315030485MN0160935N5+00395-00115101755ADDAA101000095GA1085+030485999GD14991+0304859GE19AGL   +99999+99999GF199999999999030481999999MA1101795101015REMMET09401/01/24 19:53:01 METAR KTTN 020053Z 34006KT 10SM OVC100 04/M01 A3006 RMK AO2 SLP175 T00391011
0230724095147922024010201537+40277-074816FM-15+0065KTTN V0203405N002652200059N0160935N5+00285-00225101795ADDAA101000095GA1045+030485999GD12991+0304859GE19AGL   +99999+99999GF104995999999030481999999MA1101835101055REMMET09401/01/24 20:53:01 METAR KTTN 020153Z 34005KT 10SM SCT100 03/M02 A3007 RMK AO2 SLP179 T00281022EQDD01      0ADE726
0206724095147922024010202537+40277-074816FM-15+0065KTTN V0203405N002652200059N0160935N5+00175-00285101825ADDAA101000095GA1005+999999999GD10991+9999999GF100991999999999999999999MA1101865101085MD1190119+9999REMMET09701/01/24 21:53:01 METAR KTTN 020253Z 34005KT 10SM CLR 02/M03 A3008 RMK AO2 SLP182 T00171028 51011
0186724095147922024010203537+40277-074816FM-15+0065KTTN V0203505N002652200059N0160935N5+00005-00335101825ADDAA101000095GA1005+999999999GD10991+9999999GF100991999999999999999999MA1101865101085REMMET09101/01/24 22:53:01 METAR KTTN 020353Z 35005KT 10SM CLR 00/M03 A3008 RMK AO2 SLP182 T00001033
0222724095147922024010204537+40277-074816FM-15+0065KTTN V0203405N003152200059N0160935N5+00065-00335101815ADDAA101000095GA1005+999999999GD10991+9999999GF100991999999999999999999KA1240M+00671KA2240N+00001MA1101865101085REMMET10101/01/24 23:53:02 METAR KTTN 020453Z 34006KT 10SM CLR 01/M03 A3008 RMK AO2 SLP181 T00061033 400670000
0930724095147922024010204596+40277-074816SOD  +0065KTTN V020999999999999999999999999999+99999+99999999999ADDAA124000026AJ100009599999999AL12400035AN1024000035AT1AU19UP  5KA1240M+00675KA2240N+00005MG1100854101424OE11240053634099995OE22240035834099995OE33240014899999995REMSOD73924 HR PRECIPITATION (IN):    T SNOW DEPTH (IN):0     24 HR SNOWFALL (IN):T    24 HR MAX TEMP (F): 4424 HR MIN TEMP (F): 32AVERAGE STATION PRESSURE:29.780 MINIMUM SEA LEVEL PRESSURE:29.95 TIME OF OCCURRENCE:0510 PEAK WIND SPEED (MPH): 12 PEAK WIND DIR (DEG):340 PEAK WIND TIME (LST):      FASTEST 2MIN SPEED (MPH):  8FASTEST 2MIN DIR (DEG):340 FASTEST 2MIN TIME (LST):     AVERAGE WIND SPEED (MPH): 3.3 24 HR AVG TEMP (F): 38DEPART FROM NORMAL:  5  HEATING DEGREE DAYS: 27 COOLING DEGREE DAYS:  0 LATEST DAY MAX TEMP (0700-1900 LST):44  LATEST NIGHT MIN TEMP(1900-0800 LST):36 HOURLY INCREMENTAL PRECIPITATION VALUES (IN):.00 0.00 0.00 0.00 0.00 T    T    0.00 0.00 0.00 0.00 0.00 0.00 0.00 0.00 0.00 0.00 0.00 0.00 0.00 0.00 0.00 0.00 0.00EQDR01     T7AAP092
0244724095147922024010205537+40277-074816FM-15+0065KTTN V0203305N004152200059N0160935N5+00065-00395101805ADDAA101000095GA1005+999999999GD10991+9999999GF100991999999999999999999KA1060M+00441KA2060N+00001MA1101865101085MD1890029+9999REMMET10901/02/24 00:53:02 METAR KTTN 020553Z 33008KT 10SM CLR 01/M04 A3008 RMK AO2 SLP180 T00061039 10044 20000 58002
0187724095147922024010206537+40277-074816FM-15+0065KTTN V0203305N002652200059N0160935N5-00065-00445101805ADDAA101000095GA1005+999999999GD10991+9999999GF100991999999999999999999MA1101865101085REMMET09201/02/24 01:53:02 METAR KTTN 020653Z 33005KT 10SM CLR M01/M04 A3008 RMK AO2 SLP180 T10061044
0187724095147922024010207537+40277-074816FM-15+0065KTTN V0203105N002152200059N0160935N5-00065-00505101855ADDAA101000095GA1005+999999999GD10991+9999999GF100991999999999999999999MA1101905101115REMMET09201/02/24 02:53:02 METAR KTTN 020753Z 31004KT 10SM CLR M01/M05 A3009 RMK AO2 SLP185 T10061050
0207724095147922024010208537+40277-074816FM-15+0065KTTN V0203305N002652200059N0160935N5-00115-00505101835ADDAA101000095GA1005+999999999GD10991+9999999GF100991999999999999999999MA1101865101085MD1090039+9999REMMET09801/02/24 03:53:02 METAR KTTN 020853Z 33005KT 10SM CLR M01/M05 A3008 RMK AO2 SLP183 T10111050 50003
0187724095147922024010209537+40277-074816FM-15+0065KTTN V0203605N001552200059N0160935N5-00225-00565101845ADDAA101000095GA1005+999999999GD10991+9999999GF100991999999999999999999MA1101865101085REMMET09201/02/24 04:53:02 METAR KTTN 020953Z 36003KT 10SM CLR M02/M06 A3008 RMK AO2 SLP184 T10221056
0192724095147922024010210537+40277-074816FM-15+0065KTTN V0203305N002652200059N0160935N5-00225-00615101905ADDAA101000095GA1005+999999999GD10991+9999999GF100991999999999999999999MA1101935101155REMMET09701/02/24 05:53:02 METAR KTTN 021053Z 33005KT 10SM CLR M02/M06 A3010 RMK AO2 SLP190 T10221061 (KJ)
0250724095147922024010211537+40277-074816FM-15+0065KTTN V0203405N002152200059N0160935N5-00335-00675101955ADDAA101000095GA1005+999999999GD10991+9999999GF100991999999999999999999KA1060M+00061KA2060N-00331MA1102005101215MD1390119+9999REMMET11501/02/24 06:53:02 METAR KTTN 021153Z 34004KT 10SM CLR M03/M07 A3012 RMK AO2 SLP195 T10331067 10006 21033 53011 (KJ)
0192724095147922024010212537+40277-074816FM-15+0065KTTN V0203305N001552200059N0160935N5-00285-00615101975ADDAA101000095GA1005+999999999GD10991+9999999GF100991999999999999999999MA1102005101215REMMET09701/02/24 07:53:02 METAR KTTN 021253Z 33003KT 10SM CLR M03/M06 A3012 RMK AO2 SLP197 T10281061 (KJ)
0236724095147922024010213537+40277-074816FM-15+0065KTTN V0203305N001552200059N0160935N5-00065-00565102025ADDAA101000095GA1025+008235999GD11991+0082359GE19AGL   +99999+99999GF102995999999008231999999MA1102075101285REMMET10001/02/24 08:53:02 METAR KTTN 021353Z 33003KT 10SM FEW027 M01/M06 A3014 RMK AO2 SLP202 T10061056 (EE)EQDD01      0ADE726
0211724095147922024010214537+40277-074816FM-15+0065KTTN V0202905N003652200059N0160935N5+00065-00505102035ADDAA101000095GA1005+999999999GD10991+9999999GF100991999999999999999999MA1102075101285MD1190089+9999REMMET10201/02/24 09:53:02 METAR KTTN 021453Z 29007KT 10SM CLR 01/M05 A3014 RMK AO2 SLP203 T00061050 51008 (EE)
0191724095147922024010215537+40277-074816FM-15+0065KTTN V0209999V003152200059N0160935N5+00225-00445101975ADDAA101000095GA1005+999999999GD10991+9999999GF100991999999999999999999MA1102005101215REMMET09601/02/24 10:53:02 METAR KTTN 021553Z VRB06KT 10SM CLR 02/M04 A3012 RMK AO2 SLP197 T00221044 (EE)
0191724095147922024010216537+40277-074816FM-15+0065KTTN V0209999V003152200059N0160935N5+00335-00445101835ADDAA101000095GA1005+999999999GD10991+9999999GF100991999999999999999999MA1101865101085REMMET09601/02/24 11:53:02 METAR KTTN 021653Z VRB06KT 10SM CLR 03/M04 A3008 RMK AO2 SLP183 T00331044 (EE)
0249724095147922024010217537+40277-074816FM-15+0065KTTN V0203105V004652200059N0160935N5+00505-00445101695ADDAA101000095GA1005+999999999GD10991+9999999GF100991999999999999999999KA1060M+00501KA2060N-00391MA1101735100955MD1890339+9999REMMET11401/02/24 12:53:02 METAR KTTN 021753Z 31009KT 10SM CLR 05/M04 A3004 RMK AO2 SLP169 T00501044 10050 21039 58033 (RF)
0191724095147922024010218537+40277-074816FM-15+0065KTTN V0203005N004152200059N0160935N5+00505-00505101645ADDAA101000095GA1005+999999999GD10991+9999999GF100991999999999999999999MA1101695100915REMMET09601/02/24 13:53:02 METAR KTTN 021853Z 30008KT 10SM CLR 05/M05 A3003 RMK AO2 SLP164 T00501050 (RF)
0191724095147922024010219537+40277-074816FM-15+0065KTTN V0203005N004652200059N0160935N5+00565-00505101595ADDAA101000095GA1005+999999999GD10991+9999999GF100991999999999999999999MA1101665100885REMMET09601/02/24 14:53:02 METAR KTTN 021953Z 30009KT 10SM CLR 06/M05 A3002 RMK AO2 SLP159 T00561050 (RF)
0211724095147922024010220537+40277-074816FM-15+0065KTTN V0202705N003652200059N0160935N5+00565-00395101605ADDAA101000095GA1005+999999999GD10991+9999999GF100991999999999999999999MA1101635100845MD1690109+9999REMMET10201/02/24 15:53:02 METAR KTTN 022053Z 27007KT 10SM CLR 06/M04 A3001 RMK AO2 SLP160 T00561039 56010 (RF)
0191724095147922024010221537+40277-074816FM-15+0065KTTN V0202905N002152200059N0160935N5+00395-00505101635ADDAA101000095GA1005+999999999GD10991+9999999GF100991999999999999999999MA1101665100885REMMET09601/02/24 16:53:02 METAR KTTN 022153Z 29004KT 10SM CLR 04/M05 A3002 RMK AO2 SLP163 T00391050 (RF)
0191724095147922024010222537+40277-074816FM-15+0065KTTN V0202505N001552200059N0160935N5+00285-00505101635ADDAA101000095GA1005+999999999GD10991+9999999GF100991999999999999999999MA1101665100885REMMET09601/02/24 17:53:02 METAR KTTN 022253Z 25003KT 10SM CLR 03/M05 A3002 RMK AO2 SLP163 T00281050 (RF)
0249724095147922024010223537+40277-074816FM-15+0065KTTN V0202705N002152200059N0160935N5+00225-00505101645ADDAA101000095GA1005+999999999GD10991+9999999GF100991999999999999999999KA1060M+00561KA2060N+00221MA1101695100915MD1190049+9999REMMET11401/02/24 18:53:02 METAR KTTN 022353Z 27004KT 10SM CLR 02/M05 A3003 RMK AO2 SLP164 T00221050 10056 20022 51004 (RF)
0186724095147922024010300537+40277-074816FM-15+0065KTTN V0202805N002152200059N0160935N5+00175-00445101645ADDAA101000095GA1005+999999999GD10991+9999999GF100991999999999999999999MA1101695100915REMMET09101/02/24 19:53:01 METAR KTTN 030053Z 28004KT 10SM CLR 02/M04 A3003 RMK AO2 SLP164 T00171044
0186724095147922024010301537+40277-074816FM-15+0065KTTN V0202605N001552200059N0160935N5+00065-00445101675ADDAA101000095GA1005+999999999GD10991+9999999GF100991999999999999999999MA1101735100955REMMET09101/02/24 20:53:01 METAR KTTN 030153Z 26003KT 10SM CLR 01/M04 A3004 RMK AO2 SLP167 T00061044
0206724095147922024010302537+40277-074816FM-15+0065KTTN V0202905N002652200059N0160935N5+00065-00445101675ADDAA101000095GA1005+999999999GD10991+9999999GF100991999999999999999999MA1101735100955MD1390039+9999REMMET09701/02/24 21:53:01 METAR KTTN 030253Z 29005KT 10SM CLR 01/M04 A3004 RMK AO2 SLP167 T00061044 53003
0168724095147922024010302597+40277-074816FM-16+0065KTTN V0203005N003152200059N0160935N5+00065-00445999999ADDGA1005+999999999GD10991+9999999GF100991999999999999999999MA1101695100915REMMET08401/02/24 21:59:01 SPECI KTTN 030259Z 30006KT 10SM CLR 01/M04 A3003 RMK AO2 T00061044
0186724095147922024010303537+40277-074816FM-15+0065KTTN V0202705N002152200059N0160935N5+00005-00445101655ADDAA101000095GA1005+999999999GD10991+9999999GF100991999999999999999999MA1101695100915REMMET09101/02/24 22:53:01 METAR KTTN 030353Z 27004KT 10SM CLR 00/M04 A3003 RMK AO2 SLP165 T00001044
0223724095147922024010304537+40277-074816FM-15+0065KTTN V0202805N002152200059N0160935N5-00065-00445101665ADDAA101000095GA1005+999999999GD10991+9999999GF100991999999999999999999KA1240M+00561KA2240N-00391MA1101695100915REMMET10201/02/24 23:53:02 METAR KTTN 030453Z 28004KT 10SM CLR M01/M04 A3003 RMK AO2 SLP166 T10061044 400561039
0899724095147922024010304596+40277-074816SOD  +0065KTTN V020999999999999999999999999999+99999+99999999999ADDAA124000095AJ100009599999999AL12400095AN1024000095KA1240M+00565KA2240N-00385MG1101024101594OE11240093933099995OE22240067132099995OE33240023799999995REMSOD73924 HR PRECIPITATION (IN): 0.00 SNOW DEPTH (IN):0     24 HR SNOWFALL (IN):0.0  24 HR MAX TEMP (F): 4224 HR MIN TEMP (F): 25AVERAGE STATION PRESSURE:29.830 MINIMUM SEA LEVEL PRESSURE:30.00 TIME OF OCCURRENCE:1626 PEAK WIND SPEED (MPH): 21 PEAK WIND DIR (DEG):330 PEAK WIND TIME (LST):      FASTEST 2MIN SPEED (MPH): 15FASTEST 2MIN DIR (DEG):320 FASTEST 2MIN TIME (LST):     AVERAGE WIND SPEED (MPH): 5.3 24 HR AVG TEMP (F): 34DEPART FROM NORMAL:  1  HEATING DEGREE DAYS: 31 COOLING DEGREE DAYS:  0 LATEST DAY MAX TEMP (0700-1900 LST):42  LATEST NIGHT MIN TEMP(1900-0800 LST):25 HOURLY INCREMENTAL PRECIPITATION VALUES (IN):.00 0.00 0.00 0.00 0.00 0.00 0.00 0.00 0.00 0.00 0.00 0.00 0.00 0.00 0.00 0.00 0.00 0.00 0.00 0.00 0.00 0.00 0.00 0.00
0245724095147922024010305537+40277-074816FM-15+0065KTTN V0202805N001552200059N0160935N5-00115-00445101615ADDAA101000095GA1005+999999999GD10991+9999999GF100991999999999999999999KA1060M+00281KA2060N-00111MA1101665100885MD1890069+9999REMMET11001/03/24 00:53:02 METAR KTTN 030553Z 28003KT 10SM CLR M01/M04 A3002 RMK AO2 SLP161 T10111044 10028 21011 58006
0187724095147922024010306537+40277-074816FM-15+0065KTTN V0202505N001552200059N0160935N5-00175-00445101645ADDAA101000095GA1005+999999999GD10991+9999999GF100991999999999999999999MA1101695100915REMMET09201/03/24 01:53:02 METAR KTTN 030653Z 25003KT 10SM CLR M02/M04 A3003 RMK AO2 SLP164 T10171044
0187724095147922024010307537+40277-074816FM-15+0065KTTN V0202705N001552200059N0160935N5-00175-00505101635ADDAA101000095GA1005+999999999GD10991+9999999GF100991999999999999999999MA1101665100885REMMET09201/03/24 02:53:02 METAR KTTN 030753Z 27003KT 10SM CLR M02/M05 A3002 RMK AO2 SLP163 T10171050
0182724095147922024010308536+40277-074816FM-15+0065KTTN V02099999999999999999N9999997N5+99999+99999999999ADDAA101000095MA1101695100915MD1390059+9999REMMET09501/03/24 03:53:02 METAR KTTN 030853Z      KT A3003 RMK AO2 SLPNO 53005 PWINO FZRANO TSNO $ FIBIEQDR01      7SKY009R02      7GAS009
0189724095147922024010309537+40277-074816FM-15+0065KTTN V0202605N001552200059N0160935N5-00175-00445101635ADDAA101000095GA1005+999999999GD10991+9999999GF100991999999999999999999MA1101665100885REMMET09401/03/24 04:53:02 METAR KTTN 030953Z 26003KT 10SM CLR M02/M04 A3002 RMK AO2 SLP163 T10171044 $
0189724095147922024010310537+40277-074816FM-15+0065KTTN V0202605N002152200059N0160935N5-00175-00505101665ADDAA101000095GA1005+999999999GD10991+9999999GF100991999999999999999999MA1101695100915REMMET09401/03/24 05:53:02 METAR KTTN 031053Z 26004KT 10SM CLR M02/M05 A3003 RMK AO2 SLP166 T10171050 $
0230724095147922024010311537+40277-074816FM-15+0065KTTN V0209999C000052200059N0160935N5-00285-00505101735ADDAA101000095GA1005+999999999GD10991+9999999GF100991999999999999999999KA1060M-00111KA2060N-00281MA1101765100985REMMET10901/03/24 06:53:02 METAR KTTN 031153Z 00000KT 10SM CLR M03/M05 A3005 RMK AO2 SLP173 T10281050 11011 21028 (EE)
0192724095147922024010312537+40277-074816FM-15+0065KTTN V0202405N001552200059N0160935N5-00225-00445101795ADDAA101000095GA1005+999999999GD10991+9999999GF100991999999999999999999MA1101835101055REMMET09701/03/24 07:53:02 METAR KTTN 031253Z 24003KT 10SM CLR M02/M04 A3007 RMK AO2 SLP179 T10221044 (EE)
0192724095147922024010313537+40277-074816FM-15+0065KTTN V0202505N002652200059N0160935N5-00065-00395101805ADDAA101000095GA1005+999999999GD10991+9999999GF100991999999999999999999MA1101835101055REMMET09701/03/24 08:53:02 METAR KTTN 031353Z 25005KT 10SM CLR M01/M04 A3007 RMK AO2 SLP180 T10061039 (JM)
0211724095147922024010314537+40277-074816FM-15+0065KTTN V0202405N001552200059N0160935N5+00175-00335101805ADDAA101000095GA1005+999999999GD10991+9999999GF100991999999999999999999MA1101835101055MD1090079+9999REMMET10201/03/24 09:53:02 METAR KTTN 031453Z 24003KT 10SM CLR 02/M03 A3007 RMK AO2 SLP180 T00171033 50007 (JM)
0191724095147922024010315537+40277-074816FM-15+0065KTTN V0202905N003652200059N0160935N5+00335-00335101755ADDAA101000095GA1005+999999999GD10991+9999999GF100991999999999999999999MA1101795101015REMMET09601/03/24 10:53:02 METAR KTTN 031553Z 29007KT 10SM CLR 03/M03 A3006 RMK AO2 SLP175 T00331033 (EE)
0191724095147922024010316537+40277-074816FM-15+0065KTTN V0202605N002152200059N0160935N5+00445-00335101675ADDAA101000095GA1005+999999999GD10991+9999999GF100991999999999999999999MA1101695100915REMMET09601/03/24 11:53:02 METAR KTTN 031653Z 26004KT 10SM CLR 04/M03 A3003 RMK AO2 SLP167 T00441033 (MY)
0293724095147922024010317537+40277-074816FM-15+0065KTTN V0209999C000052200059N0160935N5+00505-00285101625ADDAA101000095GA1025+010675999GD11991+0106759GE19AGL   +99999+99999GF102995999999010671999999KA1060M+00501KA2060N-00331MA1101665100885MD1690179+9999REMMET11701/03/24 12:53:02 METAR KTTN 031753Z 00000KT 10SM FEW035 05/M03 A3002 RMK AO2 SLP162 T00501028 10050 21033 56017 (DZ)EQDD01      0ADE726
0235724095147922024010318537+40277-074816FM-15+0065KTTN V0202605N004152200059N0160935N5+00615-00285101555ADDAA101000095GA1025+011285999GD11991+0112859GE19AGL   +99999+99999GF102995999999011281999999MA1101595100815REMMET09901/03/24 13:53:02 METAR KTTN 031853Z 26008KT 10SM FEW037 06/M03 A3000 RMK AO2 SLP155 T00611028 (DZ)EQDD01      0ADE726
0217724095147922024010318577+40277-074816FM-16+0065KTTN V0202605N003652200059N0160935N5+00615-00335999999ADDGA1025+011585999GD11991+0115859GE19AGL   +99999+99999GF102995999999011581999999MA1101595100815REMMET09201/03/24 13:57:02 SPECI KTTN 031857Z 26007KT 10SM FEW038 06/M03 A3000 RMK AO2 T00611033 (DZ)EQDD01      0ADE726
0191724095147922024010319537+40277-074816FM-15+0065KTTN V0203205N003652200059N0160935N5+00615-00285101505ADDAA101000095GA1005+999999999GD10991+9999999GF100991999999999999999999MA1101565100785REMMET09601/03/24 14:53:02 METAR KTTN 031953Z 32007KT 10SM CLR 06/M03 A2999 RMK AO2 SLP150 T00611028 (DZ)
0254724095147922024010320537+40277-074816FM-15+0065KTTN V0203105N003152200059N0160935N5+00505-00335999999ADDAA101000095GA1045+011285999GD12991+0112859GE19AGL   +99999+99999GF104995999999011281999999MA1101525100745MD1690139+9999REMMET10401/03/24 15:53:02 METAR KTTN 032053Z 31006KT 10SM SCT037 05/M03 A2998 RMK AO2 SLPNO T00501033 56013 (RF)EQDD01      0ADE726
0191724095147922024010321537+40277-074816FM-15+0065KTTN V0203005N002152200059N0160935N5+00395-00335101575ADDAA101000095GA1005+999999999GD10991+9999999GF100991999999999999999999MA1101635100845REMMET09601/03/24 16:53:02 METAR KTTN 032153Z 30004KT 10SM CLR 04/M03 A3001 RMK AO2 SLP157 T00391033 (RF)
0216724095147922024010322537+40277-074816FM-15+0065KTTN V0209999C00005011285MN0160935N5+00285-00285101565ADDAA101000095GA1085+011285999GD14991+0112859GE19AGL   +99999+99999GF199999999999011281999999MA1101595100815REMMET09901/03/24 17:53:02 METAR KTTN 032253Z 00000KT 10SM OVC037 03/M03 A3000 RMK AO2 SLP156 T00281028 (RF)
0274724095147922024010323537+40277-074816FM-15+0065KTTN V0203505N00155012195MN0160935N5+00285-00285101595ADDAA101000095GA1085+012195999GD14991+0121959GE19AGL   +99999+99999GF199999999999012191999999KA1060M+00611KA2060N+00281MA1101635100845MD1190099+9999REMMET11701/03/24 18:53:02 METAR KTTN 032353Z 35003KT 10SM OVC040 03/M03 A3001 RMK AO2 SLP159 T00281028 10061 20028 51009 (RF)
0211724095147922024010400537+40277-074816FM-15+0065KTTN V0209999C00005012505MN0160935N5+00285-00285101575ADDAA101000095GA1085+012505999GD14991+0125059GE19AGL   +99999+99999GF199999999999012501999999MA1101635100845REMMET09401/03/24 19:53:01 METAR KTTN 040053Z 00000KT 10SM OVC041 03/M03 A3001 RMK AO2 SLP157 T00281028
0211724095147922024010401537+40277-074816FM-15+0065KTTN V0209999C00005012805MN0160935N5+00225-00285101515ADDAA101000095GA1085+012805999GD14991+0128059GE19AGL   +99999+99999GF199999999999012801999999MA1101565100785REMMET09401/03/24 20:53:01 METAR KTTN 040153Z 00000KT 10SM OVC042 02/M03 A2999 RMK AO2 SLP151 T00221028
0206724095147922024010402537+40277-074816FM-15+0065KTTN V0209999C000052200059N0160935N5+00175-00285101505ADDAA101000095GA1005+999999999GD10991+9999999GF100991999999999999999999MA1101525100745MD1790099+9999REMMET09701/03/24 21:53:01 METAR KTTN 040253Z 00000KT 10SM CLR 02/M03 A2998 RMK AO2 SLP150 T00171028 57009
0186724095147922024010403537+40277-074816FM-15+0065KTTN V0209999C000052200059N0160935N5+00175-00285101535ADDAA101000095GA1005+999999999GD10991+9999999GF100991999999999999999999MA1101595100815REMMET09101/03/24 22:53:01 METAR KTTN 040353Z 00000KT 10SM CLR 02/M03 A3000 RMK AO2 SLP153 T00171028
0266724095147922024010404537+40277-074816FM-15+0065KTTN V0209999C000052200059N0160935N5+00115-00285101495ADDAA101000095GA1025+019815999GD11991+0198159GE19AGL   +99999+99999GF102995999999019811999999KA1240M+00611KA2240N-00331MA1101565100785REMMET10401/03/24 23:53:02 METAR KTTN 040453Z 00000KT 10SM FEW065 01/M03 A2999 RMK AO2 SLP149 T00111028 400611033EQDD01      0ADE726
0899724095147922024010404596+40277-074816SOD  +0065KTTN V020999999999999999999999999999+99999+99999999999ADDAA124000095AJ100009599999999AL12400095AN1024000095KA1240M+00615KA2240N-00325MG1100884101464OE11240084926099995OE22240044732099995OE33240013499999995REMSOD73924 HR PRECIPITATION (IN): 0.00 SNOW DEPTH (IN):0     24 HR SNOWFALL (IN):0.0  24 HR MAX TEMP (F): 4324 HR MIN TEMP (F): 26AVERAGE STATION PRESSURE:29.790 MINIMUM SEA LEVEL PRESSURE:29.96 TIME OF OCCURRENCE:1535 PEAK WIND SPEED (MPH): 19 PEAK WIND DIR (DEG):260 PEAK WIND TIME (LST):      FASTEST 2MIN SPEED (MPH): 10FASTEST 2MIN DIR (DEG):320 FASTEST 2MIN TIME (LST):     AVERAGE WIND SPEED (MPH): 3.0 24 HR AVG TEMP (F): 35DEPART FROM NORMAL:  2  HEATING DEGREE DAYS: 30 COOLING DEGREE DAYS:  0 LATEST DAY MAX TEMP (0700-1900 LST):43  LATEST NIGHT MIN TEMP(1900-0800 LST):26(HOURLY INCREMENTAL PRECIPITATION VALUES (IN):.00 0.00 0.00 0.00 0.00 0.00 0.00 0.00 0.00 0.00 0.00 0.00 0.00 0.00 0.00 0.00 0.00 0.00 0.00 0.00 0.00 0.00 0.00 0.00
0244724095147922024010405537+40277-074816FM-15+0065KTTN V0203505N001552200059N0160935N5+00005-00285101445ADDAA101000095GA1005+999999999GD10991+9999999GF100991999999999999999999KA1060M+00331KA2060N+00001MA1101495100715MD1890059+9999REMMET10901/04/24 00:53:02 METAR KTTN 040553Z 35003KT 10SM CLR 00/M03 A2997 RMK AO2 SLP144 T00001028 10033 20000 58005
0186724095147922024010406537+40277-074816FM-15+0065KTTN V0209999C000052200059N0160935N5+00065-00285101435ADDAA101000095GA1005+999999999GD10991+9999999GF100991999999999999999999MA1101495100715REMMET09101/04/24 01:53:02 METAR KTTN 040653Z 00000KT 10SM CLR 01/M03 A2997 RMK AO2 SLP143 T00061028
0186724095147922024010407537+40277-074816FM-15+0065KTTN V0209999C000052200059N0160935N5+00005-00285101355ADDAA101000095GA1005+999999999GD10991+9999999GF100991999999999999999999MA1101395100615REMMET09101/04/24 02:53:02 METAR KTTN 040753Z 00000KT 10SM CLR 00/M03 A2994 RMK AO2 SLP135 T00001028
0231724095147922024010408537+40277-074816FM-15+0065KTTN V0203605N00155036585MN0160935N5+00005-00285101345ADDAA101000095GA1075+036585999GD13991+0365859GE19AGL   +99999+99999GF199999999999036581999999MA1101395100615MD1890109+9999REMMET10001/04/24 03:53:02 METAR KTTN 040853Z 36003KT 10SM BKN120 00/M03 A2994 RMK AO2 SLP134 T00001028 58010
0211724095147922024010409537+40277-074816FM-15+0065KTTN V0209999C00005033535MN0160935N5+00065-00285101355ADDAA101000095GA1085+033535999GD14991+0335359GE19AGL   +99999+99999GF199999999999033531999999MA1101395100615REMMET09401/04/24 04:53:02 METAR KTTN 040953Z 00000KT 10SM OVC110 01/M03 A2994 RMK AO2 SLP135 T00061028
0211724095147922024010410537+40277-074816FM-15+0065KTTN V0202805N00215013115MN0160935N5+00005-00225101325ADDAA101000095GA1085+013115999GD14991+0131159GE19AGL   +99999+99999GF199999999999013111999999MA1101355100585REMMET09401/04/24 05:53:02 METAR KTTN 041053Z 28004KT 10SM OVC043 00/M02 A2993 RMK AO2 SLP132 T00001022
0312724095147922024010411537+40277-074816FM-15+0065KTTN V0202105N00155015245MN0160935N5+00005-00175101345ADDAA101000095GA1075+015245999GA2085+027435999GD13991+0152459GD24991+0274359GE19AGL   +99999+99999GF199999999999015241999999KA1060M+00111KA2060N+00001MA1101395100615MD1590009+9999REMMET12401/04/24 06:53:02 METAR KTTN 041153Z 21003KT 10SM BKN050 OVC090 00/M02 A2994 RMK AO2 SLP134 T00001017 10011 20000 55000 (EE)
0216724095147922024010412537+40277-074816FM-15+0065KTTN V0209999C00005016765MN0160935N5+00065-00225101405ADDAA101000095GA1085+016765999GD14991+0167659GE19AGL   +99999+99999GF199999999999016761999999MA1101425100645REMMET09901/04/24 07:53:02 METAR KTTN 041253Z 00000KT 10SM OVC055 01/M02 A2995 RMK AO2 SLP140 T00061022 (EE)
0216724095147922024010413537+40277-074816FM-15+0065KTTN V0203105N00155018295MN0160935N5+00115-00225101445ADDAA101000095GA1085+018295999GD14991+0182959GE19AGL   +99999+99999GF199999999999018291999999MA1101495100715REMMET09901/04/24 08:53:02 METAR KTTN 041353Z 31003KT 10SM OVC060 01/M02 A2997 RMK AO2 SLP144 T00111022 (JM)
0235724095147922024010414537+40277-074816FM-15+0065KTTN V0203005N00265019815MN0144845N5+00225-00225101485ADDAA101000095GA1085+019815999GD14991+0198159GE19AGL   +99999+99999GF199999999999019811999999MA1101525100745MD1190149+9999REMMET10401/04/24 09:53:02 METAR KTTN 041453Z 30005KT 9SM OVC065 02/M02 A2998 RMK AO2 SLP148 T00221022 51014 (JM)
0216724095147922024010415537+40277-074816FM-15+0065KTTN V0209999V00315018295MN0160935N5+00335-00175101485ADDAA101000095GA1085+018295999GD14991+0182959GE19AGL   +99999+99999GF199999999999018291999999MA1101525100745REMMET09901/04/24 10:53:02 METAR KTTN 041553Z VRB06KT 10SM OVC060 03/M02 A2998 RMK AO2 SLP148 T00331017 (JM)
0227724095147922024010416537+40277-074816FM-15+0065KTTN V0203405N00465021345MN0160935N5+00565-00225101445ADDAA101000095GA1085+021345999GD14991+0213459GE19AGL   +99999+99999GF199999999999021341999999MA1101495100715OC100935REMMET10201/04/24 11:53:02 METAR KTTN 041653Z 34009G18KT 10SM OVC070 06/M02 A2997 RMK AO2 SLP144 T00561022 (MY)
0285724095147922024010417537+40277-074816FM-15+0065KTTN V0203205N00625018295MN0160935N5+00505-00335101425ADDAA101000095GA1085+018295999GD14991+0182959GE19AGL   +99999+99999GF199999999999018291999999KA1060M+00561KA2060N+00001MA1101495100715MD1890059+9999OC100985REMMET12001/04/24 12:53:02 METAR KTTN 041753Z 32012G19KT 10SM OVC060 05/M03 A2997 RMK AO2 SLP142 T00501033 10056 20000 58005 (BC)
0227724095147922024010418537+40277-074816FM-15+0065KTTN V0203205N00625019815MN0160935N5+00505-00505101445ADDAA101000095GA1085+019815999GD14991+0198159GE19AGL   +99999+99999GF199999999999019811999999MA1101495100715OC101185REMMET10201/04/24 13:53:02 METAR KTTN 041853Z 32012G23KT 10SM OVC065 05/M05 A2997 RMK AO2 SLP144 T00501050 (BC)
0227724095147922024010419537+40277-074816FM-15+0065KTTN V0203205N00625018295MN0160935N5+00505-00505101515ADDAA101000095GA1085+018295999GD14991+0182959GE19AGL   +99999+99999GF199999999999018291999999MA1101565100785OC101085REMMET10201/04/24 14:53:02 METAR KTTN 041953Z 32012G21KT 10SM OVC060 05/M05 A2999 RMK AO2 SLP151 T00501050 (BC)
0298724095147922024010420537+40277-074816FM-15+0065KTTN V0203205N006752200059N0160935N5+00395-00615101605ADDAA101000095GA1045+016765999GD12991+0167659GE19AGL   +99999+99999GF104995999999016761999999MA1101635100845MD1390179+9999OC101185OD149901441320REMMET12601/04/24 15:53:02 METAR KTTN 042053Z 32013G23KT 10SM SCT055 04/M06 A3001 RMK AO2 PK WND 32028/2036 SLP160 T00391061 53017 (BC)EQDD01      0ADE726
0249724095147922024010421537+40277-074816FM-15+0065KTTN V0203305N005152200059N0160935N5+00285-00785101745ADDAA101000025GA1005+999999999GD10991+9999999GF100991999999999999999999MA1101795101015OC101035OD149901441350REMMET13201/04/24 16:53:02 METAR KTTN 042153Z 33010G20KT 10SM CLR 03/M08 A3006 RMK AO2 PK WND 35028/2123 SNB26E35 SLP174 P0000 T00281078 (BC)
0202724095147922024010422537+40277-074816FM-15+0065KTTN V0203305N004652200059N0160935N5+00175-00835101885ADDAA101000095GA1005+999999999GD10991+9999999GF100991999999999999999999MA1101935101155OC100985REMMET09901/04/24 17:53:02 METAR KTTN 042253Z 33009G19KT 10SM CLR 02/M08 A3010 RMK AO2 SLP188 T00171083 (BC)
0277724095147922024010423537+40277-074816FM-15+0065KTTN V0203205N005152200059N0160935N5+00065-00945102025ADDAA101000095AA206000021GA1005+999999999GD10991+9999999GF100991999999999999999999KA1060M+00611KA2060N+00061MA1102075101285MD1190419+9999OC101035REMMET12301/04/24 18:53:02 METAR KTTN 042353Z 32010G20KT 10SM CLR 01/M09 A3014 RMK AO2 SLP202 60000 T00061094 10061 20006 51041 (BC)
0197724095147922024010500537+40277-074816FM-15+0065KTTN V0203305N003652200059N0160935N5+00005-01065102095ADDAA101000095GA1005+999999999GD10991+9999999GF100991999999999999999999MA1102135101355OC100885REMMET09401/04/24 19:53:01 METAR KTTN 050053Z 33007G17KT 10SM CLR 00/M11 A3016 RMK AO2 SLP209 T00001106
0187724095147922024010501537+40277-074816FM-15+0065KTTN V0203305N004152200059N0160935N5-00115-01225102155ADDAA101000095GA1005+999999999GD10991+9999999GF100991999999999999999999MA1102205101425REMMET09201/04/24 20:53:01 METAR KTTN 050153Z 33008KT 10SM CLR M01/M12 A3018 RMK AO2 SLP215 T10111122
0207724095147922024010502537+40277-074816FM-15+0065KTTN V0203205N005152200059N0160935N5-00175-01225102225ADDAA101000095GA1005+999999999GD10991+9999999GF100991999999999999999999MA1102275101485MD1190209+9999REMMET09801/04/24 21:53:02 METAR KTTN 050253Z 32010KT 10SM CLR M02/M12 A3020 RMK AO2 SLP222 T10171122 51020
0198724095147922024010503537+40277-074816FM-15+0065KTTN V0203305N005752200059N0160935N5-00225-01175102275ADDAA101000095GA1005+999999999GD10991+9999999GF100991999999999999999999MA1102305101525OC100985REMMET09501/04/24 22:53:02 METAR KTTN 050353Z 33011G19KT 10SM CLR M02/M12 A3021 RMK AO2 SLP227 T10221117
0234724095147922024010504537+40277-074816FM-15+0065KTTN V0203405N004652200059N0160935N5-00285-01175102315ADDAA101000095GA1005+999999999GD10991+9999999GF100991999999999999999999KA1240M+00611KA2240N-00281MA1102345101555OC100935REMMET10501/04/24 23:53:02 METAR KTTN 050453Z 34009G18KT 10SM CLR M03/M12 A3022 RMK AO2 SLP231 T10281117 400611028
0934724095147922024010504596+40277-074816SOD  +0065KTTN V020999999999999999999999999999+99999+99999999999ADDAA124000096AJ100009599999999AL12400096AN1024000095KA1240M+00615KA2240N-00325MG1100814101294OE11240143135099995OE22240102834099995OE33240032699999995REMSOD73924 HR PRECIPITATION (IN): 0.00 SNOW DEPTH (IN):0     24 HR SNOWFALL (IN):0.0  24 HR MAX TEMP (F): 4324 HR MIN TEMP (F): 26AVERAGE STATION PRESSURE:29.770 MINIMUM SEA LEVEL PRESSURE:29.91 TIME OF OCCURRENCE:0605 PEAK WIND SPEED (MPH): 32 PEAK WIND DIR (DEG):350 PEAK WIND TIME (LST):      FASTEST 2MIN SPEED (MPH): 23FASTEST 2MIN DIR (DEG):340 FASTEST 2MIN TIME (LST):     AVERAGE WIND SPEED (MPH): 7.3 24 HR AVG TEMP (F): 35DEPART FROM NORMAL:  2  HEATING DEGREE DAYS: 30 COOLING DEGREE DAYS:  0 LATEST DAY MAX TEMP (0700-1900 LST):43  LATEST NIGHT MIN TEMP(1900-0800 LST):32 HOURLY INCREMENTAL PRECIPITATION VALUES (IN):.00 0.00 0.00 0.00 0.00 0.00 0.00 0.00 0.00 0.00 0.00 0.00 0.00 0.00 0.00 0.00 T    0.00 0.00 0.00 0.00 0.00 0.00 0.00EQDR01  0.007AAP092R02   0.07ALS030
0245724095147922024010505537+40277-074816FM-15+0065KTTN V0203405N004152200059N0160935N5-00395-01115102315ADDAA101000095GA1005+999999999GD10991+9999999GF100991999999999999999999KA1060M+00061KA2060N-00391MA1102345101555MD1090099+9999REMMET11001/05/24 00:53:02 METAR KTTN 050553Z 34008KT 10SM CLR M04/M11 A3022 RMK AO2 SLP231 T10391111 10006 21039 50009
0187724095147922024010506537+40277-074816FM-15+0065KTTN V0203205N003652200059N0160935N5-00445-01115102405ADDAA101000095GA1005+999999999GD10991+9999999GF100991999999999999999999MA1102445101655REMMET09201/05/24 01:53:02 METAR KTTN 050653Z 32007KT 10SM CLR M04/M11 A3025 RMK AO2 SLP240 T10441111
0187724095147922024010507537+40277-074816FM-15+0065KTTN V0203405N004652200059N0160935N5-00445-01115102455ADDAA101000095GA1005+999999999GD10991+9999999GF100991999999999999999999MA1102475101695REMMET09201/05/24 02:53:02 METAR KTTN 050753Z 34009KT 10SM CLR M04/M11 A3026 RMK AO2 SLP245 T10441111
0207724095147922024010508537+40277-074816FM-15+0065KTTN V0203205N002152200059N0160935N5-00445-01115102495ADDAA101000095GA1005+999999999GD10991+9999999GF100991999999999999999999MA1102545101755MD1190189+9999REMMET09801/05/24 03:53:02 METAR KTTN 050853Z 32004KT 10SM CLR M04/M11 A3028 RMK AO2 SLP249 T10441111 51018
0187724095147922024010509537+40277-074816FM-15+0065KTTN V0203005N002152200059N0160935N5-00505-01115102515ADDAA101000095GA1005+999999999GD10991+9999999GF100991999999999999999999MA1102545101755REMMET09201/05/24 04:53:02 METAR KTTN 050953Z 30004KT 10SM CLR M05/M11 A3028 RMK AO2 SLP251 T10501111
0192724095147922024010510537+40277-074816FM-15+0065KTTN V0203305N002152200059N0160935N5-00505-01065102525ADDAA101000095GA1005+999999999GD10991+9999999GF100991999999999999999999MA1102575101795REMMET09701/05/24 05:53:02 METAR KTTN 051053Z 33004KT 10SM CLR M05/M11 A3029 RMK AO2 SLP252 T10501106 (KJ)
0250724095147922024010511537+40277-074816FM-15+0065KTTN V0202705N001552200059N0160935N5-00505-01065102615ADDAA101000095GA1005+999999999GD10991+9999999GF100991999999999999999999KA1060M-00391KA2060N-00561MA1102645101855MD1390129+9999REMMET11501/05/24 06:53:02 METAR KTTN 051153Z 27003KT 10SM CLR M05/M11 A3031 RMK AO2 SLP261 T10501106 11039 21056 53012 (KJ)
0192724095147922024010512537+40277-074816FM-15+0065KTTN V0202705N002652200059N0160935N5-00505-01005102655ADDAA101000095GA1005+999999999GD10991+9999999GF100991999999999999999999MA1102685101895REMMET09701/05/24 07:53:02 METAR KTTN 051253Z 27005KT 10SM CLR M05/M10 A3032 RMK AO2 SLP265 T10501100 (KJ)
0192724095147922024010513537+40277-074816FM-15+0065KTTN V0202705N002152200059N0160935N5-00335-01005102745ADDAA101000095GA1005+999999999GD10991+9999999GF100991999999999999999999MA1102785101995REMMET09701/05/24 08:53:02 METAR KTTN 051353Z 27004KT 10SM CLR M03/M10 A3035 RMK AO2 SLP274 T10331100 (RF)
0212724095147922024010514537+40277-074816FM-15+0065KTTN V0202905N002652200059N0160935N5-00175-00945102765ADDAA101000095GA1005+999999999GD10991+9999999GF100991999999999999999999MA1102815102025MD1190159+9999REMMET10301/05/24 09:53:02 METAR KTTN 051453Z 29005KT 10SM CLR M02/M09 A3036 RMK AO2 SLP276 T10171094 51015 (RF)
0235724095147922024010515537+40277-074816FM-15+0065KTTN V0202905N004152200059N0160935N5+00005-00895102695ADDAA101000095GA1045+010675999GD12991+0106759GE19AGL   +99999+99999GF104995999999010671999999MA1102745101965REMMET09901/05/24 10:53:02 METAR KTTN 051553Z 29008KT 10SM SCT035 00/M09 A3034 RMK AO2 SLP269 T00001089 (RF)EQDD01      0ADE726
0191724095147922024010516537+40277-074816FM-15+0065KTTN V0202905N004652200059N0160935N5+00065-00895102565ADDAA101000095GA1005+999999999GD10991+9999999GF100991999999999999999999MA1102615101825REMMET09601/05/24 11:53:02 METAR KTTN 051653Z 29009KT 10SM CLR 01/M09 A3030 RMK AO2 SLP256 T00061089 (RF)
0249724095147922024010517537+40277-074816FM-15+0065KTTN V0202705N004152200059N0160935N5+00175-00835102475ADDAA101000095GA1005+999999999GD10991+9999999GF100991999999999999999999KA1060M+00171KA2060N-00561MA1102515101725MD1890299+9999REMMET11401/05/24 12:53:02 METAR KTTN 051753Z 27008KT 10SM CLR 02/M08 A3027 RMK AO2 SLP247 T00171083 10017 21056 58029 (RF)
0191724095147922024010518537+40277-074816FM-15+0065KTTN V0202905N002652200059N0160935N5+00285-00835102405ADDAA101000095GA1005+999999999GD10991+9999999GF100991999999999999999999MA1102445101655REMMET09601/05/24 13:53:02 METAR KTTN 051853Z 29005KT 10SM CLR 03/M08 A3025 RMK AO2 SLP240 T00281083 (RF)
0191724095147922024010519537+40277-074816FM-15+0065KTTN V0209999V002652200059N0160935N5+00225-00835102355ADDAA101000095GA1005+999999999GD10991+9999999GF100991999999999999999999MA1102405101625REMMET09601/05/24 14:53:02 METAR KTTN 051953Z VRB05KT 10SM CLR 02/M08 A3024 RMK AO2 SLP235 T00221083 (RF)
0211724095147922024010520537+40277-074816FM-15+0065KTTN V0202705N003652200059N0160935N5+00225-00835102355ADDAA101000095GA1005+999999999GD10991+9999999GF100991999999999999999999MA1102405101625MD1690129+9999REMMET10201/05/24 15:53:02 METAR KTTN 052053Z 27007KT 10SM CLR 02/M08 A3024 RMK AO2 SLP235 T00221083 56012 (BC)
0191724095147922024010521537+40277-074816FM-15+0065KTTN V0202405N001552200059N0160935N5+00115-00785102335ADDAA101000095GA1005+999999999GD10991+9999999GF100991999999999999999999MA1102375101595REMMET09601/05/24 16:53:02 METAR KTTN 052153Z 24003KT 10SM CLR 01/M08 A3023 RMK AO2 SLP233 T00111078 (BC)
0191724095147922024010522537+40277-074816FM-15+0065KTTN V0202505N001552200059N0160935N5+00065-00785102325ADDAA101000095GA1005+999999999GD10991+9999999GF100991999999999999999999MA1102375101595REMMET09601/05/24 17:53:02 METAR KTTN 052253Z 25003KT 10SM CLR 01/M08 A3023 RMK AO2 SLP232 T00061078 (BC)
0249724095147922024010523537+40277-074816FM-15+0065KTTN V0202405N002152200059N0160935N5+00005-00785102415ADDAA101000095GA1005+999999999GD10991+9999999GF100991999999999999999999KA1060M+00281KA2060N-00061MA1102445101655MD1390069+9999REMMET11401/05/24 18:53:02 METAR KTTN 052353Z 24004KT 10SM CLR 00/M08 A3025 RMK AO2 SLP241 T00001078 10028 21006 53006 (BC)
0187724095147922024010600537+40277-074816FM-15+0065KTTN V0202405N001552200059N0160935N5-00115-00785102415ADDAA101000095GA1005+999999999GD10991+9999999GF100991999999999999999999MA1102445101655REMMET09201/05/24 19:53:01 METAR KTTN 060053Z 24003KT 10SM CLR M01/M08 A3025 RMK AO2 SLP241 T10111078
0187724095147922024010601537+40277-074816FM-15+0065KTTN V0202405N001552200059N0160935N5-00175-00785102395ADDAA101000095GA1005+999999999GD10991+9999999GF100991999999999999999999MA1102445101655REMMET09201/05/24 20:53:01 METAR KTTN 060153Z 24003KT 10SM CLR M02/M08 A3025 RMK AO2 SLP239 T10171078
0207724095147922024010602537+40277-074816FM-15+0065KTTN V0209999C000052200059N0160935N5-00225-00785102345ADDAA101000095GA1005+999999999GD10991+9999999GF100991999999999999999999MA1102375101595MD1890079+9999REMMET09801/05/24 21:53:01 METAR KTTN 060253Z 00000KT 10SM CLR M02/M08 A3023 RMK AO2 SLP234 T10221078 58007
0187724095147922024010603537+40277-074816FM-15+0065KTTN V0209999C000052200059N0160935N5-00395-00785102265ADDAA101000095GA1005+999999999GD10991+9999999GF100991999999999999999999MA1102305101525REMMET09201/05/24 22:53:02 METAR KTTN 060353Z 00000KT 10SM CLR M04/M08 A3021 RMK AO2 SLP226 T10391078
0223724095147922024010604537+40277-074816FM-15+0065KTTN V0209999C000052200059N0160935N5-00445-00785102255ADDAA101000095GA1005+999999999GD10991+9999999GF100991999999999999999999KA1240M+00281KA2240N-00561MA1102305101525REMMET10201/05/24 23:53:02 METAR KTTN 060453Z 00000KT 10SM CLR M04/M08 A3021 RMK AO2 SLP225 T10441078 400281056
0899724095147922024010604596+40277-074816SOD  +0065KTTN V020999999999999999999999999999+99999+99999999999ADDAA124000095AJ100009599999999AL12400095AN1024000095KA1240M+00285KA2240N-00555MG1101694102244OE11240098334099995OE22240058130099995OE33240023799999995REMSOD73924 HR PRECIPITATION (IN): 0.00 SNOW DEPTH (IN):0     24 HR SNOWFALL (IN):0.0  24 HR MAX TEMP (F): 3724 HR MIN TEMP (F): 22AVERAGE STATION PRESSURE:30.030 MINIMUM SEA LEVEL PRESSURE:30.19 TIME OF OCCURRENCE:2352 PEAK WIND SPEED (MPH): 22 PEAK WIND DIR (DEG):340 PEAK WIND TIME (LST):      FASTEST 2MIN SPEED (MPH): 13FASTEST 2MIN DIR (DEG):300 FASTEST 2MIN TIME (LST):     AVERAGE WIND SPEED (MPH): 5.3 24 HR AVG TEMP (F): 30DEPART FROM NORMAL: -3  HEATING DEGREE DAYS: 35 COOLING DEGREE DAYS:  0 LATEST DAY MAX TEMP (0700-1900 LST):37  LATEST NIGHT MIN TEMP(1900-0800 LST):22 HOURLY INCREMENTAL PRECIPITATION VALUES (IN):.00 0.00 0.00 0.00 0.00 0.00 0.00 0.00 0.00 0.00 0.00 0.00 0.00 0.00 0.00 0.00 0.00 0.00 0.00 0.00 0.00 0.00 0.00 0.00
0245724095147922024010605537+40277-074816FM-15+0065KTTN V0209999C000052200059N0160935N5-00395-00835102295ADDAA101000095GA1005+999999999GD10991+9999999GF100991999999999999999999KA1060M+00001KA2060N-00441MA1102345101555MD1590049+9999REMMET11001/06/24 00:53:02 METAR KTTN 060553Z 00000KT 10SM CLR M04/M08 A3022 RMK AO2 SLP229 T10391083 10000 21044 55004
0187724095147922024010606537+40277-074816FM-15+0065KTTN V0209999C000052200059N0160935N5-00445-00835102295ADDAA101000095GA1005+999999999GD10991+9999999GF100991999999999999999999MA1102345101555REMMET09201/06/24 01:53:02 METAR KTTN 060653Z 00000KT 10SM CLR M04/M08 A3022 RMK AO2 SLP229 T10441083
0187724095147922024010607537+40277-074816FM-15+0065KTTN V0209999C000052200059N0160935N5-00505-00835102255ADDAA101000095GA1005+999999999GD10991+9999999GF100991999999999999999999MA1102305101525REMMET09201/06/24 02:53:02 METAR KTTN 060753Z 00000KT 10SM CLR M05/M08 A3021 RMK AO2 SLP225 T10501083
0207724095147922024010608537+40277-074816FM-15+0065KTTN V0209999C000052200059N0160935N5-00445-00785102235ADDAA101000095GA1005+999999999GD10991+9999999GF100991999999999999999999MA1102275101485MD1890079+9999REMMET09801/06/24 03:53:02 METAR KTTN 060853Z 00000KT 10SM CLR M04/M08 A3020 RMK AO2 SLP223 T10441078 58007
0187724095147922024010609537+40277-074816FM-15+0065KTTN V0209999C000052200059N0160935N5-00565-00785102225ADDAA101000095GA1005+999999999GD10991+9999999GF100991999999999999999999MA1102275101485REMMET09201/06/24 04:53:02 METAR KTTN 060953Z 00000KT 10SM CLR M06/M08 A3020 RMK AO2 SLP222 T10561078
0192724095147922024010610537+40277-074816FM-15+0065KTTN V0209999C000052200059N0160935N5-00505-00675102195ADDAA101000095GA1005+999999999GD10991+9999999GF100991999999999999999999MA1102245101455REMMET09701/06/24 05:53:02 METAR KTTN 061053Z 00000KT 10SM CLR M05/M07 A3019 RMK AO2 SLP219 T10501067 (KJ)
0250724095147922024010611537+40277-074816FM-15+0065KTTN V0200605N001552200059N0160935N5-00505-00725102155ADDAA101000095GA1005+999999999GD10991+9999999GF100991999999999999999999KA1060M-00331KA2060N-00561MA1102205101425MD1890079+9999REMMET11501/06/24 06:53:02 METAR KTTN 061153Z 06003KT 10SM CLR M05/M07 A3018 RMK AO2 SLP215 T10501072 11033 21056 58007 (KJ)
0192724095147922024010612537+40277-074816FM-15+0065KTTN V0200605N001552200059N0160935N5-00445-00675102145ADDAA101000095GA1005+999999999GD10991+9999999GF100991999999999999999999MA1102205101425REMMET09701/06/24 07:53:02 METAR KTTN 061253Z 06003KT 10SM CLR M04/M07 A3018 RMK AO2 SLP214 T10441067 (KJ)
0192724095147922024010613537+40277-074816FM-15+0065KTTN V0200405N001552200059N0160935N5-00335-00615102155ADDAA101000095GA1005+999999999GD10991+9999999GF100991999999999999999999MA1102205101425REMMET09701/06/24 08:53:02 METAR KTTN 061353Z 04003KT 10SM CLR M03/M06 A3018 RMK AO2 SLP215 T10331061 (RF)
0212724095147922024010614537+40277-074816FM-15+0065KTTN V0200405N002152200059N0160935N5-00175-00445102055ADDAA101000095GA1005+999999999GD10991+9999999GF100991999999999999999999MA1102105101325MD1890099+9999REMMET10301/06/24 09:53:02 METAR KTTN 061453Z 04004KT 10SM CLR M02/M04 A3015 RMK AO2 SLP205 T10171044 58009 (RF)
0255724095147922024010615537+40277-074816FM-15+0065KTTN V0200605N00315033535MN0160935N5-00065-00395101995ADDAA101000095GA1025+019815999GA2075+033535999GD11991+0198159GD23991+0335359GE19AGL   +99999+99999GF199999999999019811999999MA1102035101255REMMET10701/06/24 10:53:02 METAR KTTN 061553Z 06006KT 10SM FEW065 BKN110 M01/M04 A3013 RMK AO2 SLP199 T10061039 (RF)
0254724095147922024010616537+40277-074816FM-15+0065KTTN V0200805N00415018295MN0160935N5+00005-00395101825ADDAA101000095GA1075+018295999GA2085+022865999GD13991+0182959GD24991+0228659GE19AGL   +99999+99999GF199999999999018291999999MA1101865101085REMMET10601/06/24 11:53:02 METAR KTTN 061653Z 08008KT 10SM BKN060 OVC075 00/M04 A3008 RMK AO2 SLP182 T00001039 (RF)
0341724095147922024010617537+40277-074816FM-15+0065KTTN V0200605N00365014945MN0160935N5+00005-00395101725ADDAA101000025AA206000021GA1085+014945999GD14991+0149459GE19AGL   +99999+99999GF199999999999014941999999KA1060M+00001KA2060N-00501MA1101765100985MD1890339+9999REMMET13801/06/24 12:53:02 METAR KTTN 061753Z 06007KT 10SM OVC049 00/M04 A3005 RMK AO2 SNB10E33 SLP172 P0000 60000 T00001039 10000 21050 58033 (RF)EQDQ01  00002PRCP06Q02  00008PRCP06
0289724095147922024010618367+40277-074816FM-16+0065KTTN V0200505N00415012805MN0040235N5+00005-00285999999ADDAA101000021AU110030015AW1715GA1075+012805999GA2085+016765999GD13991+0128059GD24991+0167659GE19AGL   +99999+99999GF199999999999012801999999MA1101635100845MW1715REMMET11801/06/24 13:36:02 SPECI KTTN 061836Z 05008KT 2 1/2SM -SN BKN042 OVC055 00/M03 A3001 RMK AO2 SNB01 P0000 T00001028 (JM)
0285724095147922024010618457+40277-074816FM-16+0065KTTN V0200405N00515014335MN0064375N5+00005-00285999999ADDAA101000021AU110030015AW1715GA1075+014335999GA2085+016765999GD13991+0143359GD24991+0167659GE19AGL   +99999+99999GF199999999999014331999999MA1101565100785MW1715REMMET11401/06/24 13:45:02 SPECI KTTN 061845Z 04010KT 4SM -SN BKN047 OVC055 00/M03 A2999 RMK AO2 SNB01 P0000 T00001028 (JM)
0274724095147922024010618537+40277-074816FM-15+0065KTTN V0200405N00515014945MN0064375N5+00005-00225101495ADDAA101000025AU110030015AU200001015AW1105AW2715GA1085+014945999GD14991+0149459GE19AGL   +99999+99999GF199999999999014941999999MA1101525100745MW1715REMMET11701/06/24 13:53:02 METAR KTTN 061853Z 04010KT 4SM -SN BR OVC049 00/M02 A2998 RMK AO2 SNB01 SLP149 P0000 T00001022 (JM)
0299724095147922024010619177+40277-074816FM-16+0065KTTN V0200505N00515010675MN0032195N5+00005-00225999999ADDAA101000021AU110030015AU200001015AW1105AW2715GA1075+010675999GA2085+014635999GD13991+0106759GD24991+0146359GE19AGL   +99999+99999GF199999999999010671999999MA1101425100645MW1715REMMET11101/06/24 14:17:02 SPECI KTTN 061917Z 05010KT 2SM -SN BR BKN035 OVC048 00/M02 A2995 RMK AO2 P0000 T00001022 (JM)
0303724095147922024010619247+40277-074816FM-16+0065KTTN V0200505N00575008845MN0020125N5+00005-00175999999ADDAA101000021AU110030015AU200001015AW1105AW2715GA1075+008845999GA2085+011895999GD13991+0088459GD24991+0118959GE19AGL   +99999+99999GF199999999999008841999999MA1101425100645MW1715REMMET11501/06/24 14:24:02 SPECI KTTN 061924Z 05011KT 1 1/4SM -SN BR BKN029 OVC039 00/M02 A2995 RMK AO2 P0000 T00001017 (JM)
0307724095147922024010619537+40277-074816FM-15+0065KTTN V0200605N00515005185MN0008055N5+00005-00115101315ADDAA101000025AU120030015AU200002015AW1305AW2725GA1025+001835999GA2085+005185999GD11991+0018359GD24991+0051859GE19AGL   +99999+99999GF199999999999001831999999MA1101355100585MW1735REMMET11901/06/24 14:53:02 METAR KTTN 061953Z 06010KT 1/2SM SN FG FEW006 OVC017 00/M01 A2993 RMK AO2 SLP131 P0000 T00001011 (JM)
0300724095147922024010620047+40277-074816FM-16+0065KTTN V0200605N00575001835MN0008055N5+00005-00065999999ADDAA101000231AU120030015AU200002015AW1305AW2725GA1075+001835999GA2085+003965999GD13991+0018359GD24991+0039659GE19AGL   +99999+99999GF199999999999001831999999MA1101355100585MW1735REMMET11201/06/24 15:04:02 SPECI KTTN 062004Z 06011KT 1/2SM SN FG BKN006 OVC013 00/M01 A2993 RMK AO2 P0001 T00001006 (JM)
0265724095147922024010620277+40277-074816FM-16+0065KTTN V0200605N00575001835MN0028165N5+00005-00065999999ADDAA101000531AU110030015AU200001015AW1105AW2715GA1085+001835999GD14991+0018359GE19AGL   +99999+99999GF199999999999001831999999MA1101325100545MW1715REMMET10801/06/24 15:27:02 SPECI KTTN 062027Z 06011KT 1 3/4SM -SN BR OVC006 00/M01 A2992 RMK AO2 P0002 T00001006 (JM)
0261724095147922024010620517+40277-074816FM-16+0065KTTN V0200605N00625001525MN0032195N5+00005-00105999999ADDAA101001531AU120090015AU200001015AW1105AW2401AW3415GA1085+001525999GD14991+0015259GE19AGL   +99999+99999GF199999999999001521999999MA1101295100515REMMET10401/06/24 15:51:02 SPECI KTTN 062051Z 06012KT 2SM UP BR OVC005 00/M01 A2991 RMK AO2 UPB47SNE47 P0006 (JM)
0334724095147922024010620537+40277-074816FM-15+0065KTTN V0200605N00575001835MN0032195N5+00065-00065101245ADDAA101002096AA203001892AU120020015AU200001015AW1105AW2625GA1085+001835999GD14991+0018359GE19AGL   +99999+99999GF199999999999001831999999MA1101295100515MD1690259+9999MW1655REMMET13301/06/24 15:53:02 METAR KTTN 062053Z 06011KT 2SM RA BR OVC006 01/M01 A2991 RMK AO2 UPB47SNE47 SLP124 P0007 60007 T00061006 56025 (JM)EQDQ01  00178PRCP03
0272724095147922024010621357+40277-074816FM-16+0065KTTN V0200705N00625001525MN0048285N5+00065+00005999999ADDAA101002231AU120020015AU200001015AW1105AW2625GA1085+001525999GD14991+0015259GE19AGL   +99999+99999GF199999999999001521999999MA1101195100415MW1655REMMET11501/06/24 16:35:02 SPECI KTTN 062135Z 07012KT 3SM RA BR OVC005 01/00 A2988 RMK AO2 UPE18RAB2059 P0009 T00060000 (JM)
0291724095147922024010621537+40277-074816FM-15+0065KTTN V0200705N00725001525MN0064375N5+00065-00065101105ADDAA101003095AU120020015AU200001015AW1105AW2625GA1085+001525999GD14991+0015259GE19AGL   +99999+99999GF199999999999001521999999MA1101155100375MW1655OC101085REMMET12601/06/24 16:53:02 METAR KTTN 062153Z 07014G21KT 4SM RA BR OVC005 01/M01 A2987 RMK AO2 UPE18RAB2059 SLP110 P0012 T00061006 (JM)
0267724095147922024010622537+40277-074816FM-15+0065KTTN V0200705N00725001525MN0080475N5+00065+00005100985ADDAA101002895AU110020015AU200001015AW1105AW2615GA1085+001525999GD14991+0015259GE19AGL   +99999+99999GF199999999999001521999999MA1101025100245MW1615REMMET11001/06/24 17:53:02 METAR KTTN 062253Z 07014KT 5SM -RA BR OVC005 01/00 A2983 RMK AO2 SLP098 P0010 T00060000 (DZ)
0415724095147922024010623537+40277-074816FM-15+0065KTTN V0200605N00935001525MN0048285N5+00115+00005100705ADDAA101002595AA206010291AU110030015AU200001015AW1105AW2715GA1085+001525999GD14991+0015259GE19AGL   +99999+99999GF199999999999001521999999KA1060M+00111KA2060N+00001MA1100755099975MD1890549+9999MW1715OC101395OD149901441070REMMET16601/06/24 18:53:02 METAR KTTN 062353Z 06018G27KT 3SM -SN BR OVC005 01/00 A2975 RMK AO2 PK WND 07028/2333 RAE10SNB10 SLP070 P0011 60040 T00110000 10011 20000 58054 (DZ)EQDQ01  01018PRCP06
0232724095147922024010700516+40277-074816FM-16+0065KTTN V0200405N00985001225MN0064375N5+00205+00105999999ADDAU110030015AU200001015AW1105AW2715GA1085+001225999GD14991+0012259MA1100445099675MW1715OC101345REMMET12601/06/24 19:51:03 SPECI KTTN 070051Z 04019G26KT 4SM -SN BR OVC004 02/01 A2966 RMK AO2 PK WND 06026/0030 PRESFR P0002 FIBI (DZ)
0312724095147922024010700537+40277-074816FM-15+0065KTTN V0200505N00985001225MN0064375N5+00175+00115100385ADDAA101000595AU110030015AU200001015AW1105AW2715GA1085+001225999GD14991+0012259GE19AGL   +99999+99999GF199999999999001221999999MA1100445099675MW1715OC101395OD149901391050REMMET13301/06/24 19:53:01 METAR KTTN 070053Z 05019G27KT 4SM -SN BR OVC004 02/01 A2966 RMK AO2 PK WND 05027/0053 PRESFR SLP038 P0002 T00170011
0315724095147922024010701537+40277-074816FM-15+0065KTTN V0200405N00675001225MN0048285N5+00225+00175100315ADDAA101000895AU120020015AU200001015AW1105AW2625GA1085+001225999GD14991+0012259GE19AGL   +99999+99999GF199999999999001221999999MA1100375099605MW1655OC101135OD149901541050REMMET13601/06/24 20:53:01 METAR KTTN 070153Z 04013G22KT 3SM RA BR OVC004 02/02 A2964 RMK AO2 PK WND 05030/0105 RAB49SNE49 SLP031 P0004 T00220017
0347724095147922024010702537+40277-074816FM-15+0065KTTN V0200305N00575001225MN0048285N5+00225+00175100275ADDAA101002895AA203003891AU110030015AU200001015AW1105AW2715GA1085+001225999GD14991+0012259GE19AGL   +99999+99999GF199999999999001221999999MA1100305099535MD1690439+9999MW1715REMMET14601/06/24 21:53:01 METAR KTTN 070253Z 03011KT 3SM -SN BR OVC004 02/02 A2962 RMK AO2 PK WND 05027/0223 RAE47SNB47 SLP027 P0009 60015 T00220017 56043EQDQ01  00388PRCP03
0270724095147922024010703037+40277-074816FM-16+0065KTTN V0200405N00625001525MN0040235N5+00225+00175999999ADDAA101000531AU110020015AU200001015AW1105AW2615GA1085+001525999GD14991+0015259GE19AGL   +99999+99999GF199999999999001521999999MA1100345099575MW1615REMMET11301/06/24 22:03:01 SPECI KTTN 070303Z 04012KT 2 1/2SM -RA BR OVC005 02/02 A2963 RMK AO2 RAB01SNE01 P0002 T00220017
0282724095147922024010703297+40277-074816FM-16+0065KTTN V0200205N00575001525MN0048285N5+00175+00115999999ADDAA101001531AU120020015AU200001015AW1105AW2625GA1085+001525999GD14991+0015259GE19AGL   +99999+99999GF199999999999001521999999MA1100375099605MW1655OC100935REMMET11701/06/24 22:29:01 SPECI KTTN 070329Z 02011G18KT 3SM RA BR OVC005 02/01 A2964 RMK AO2 RAB01SNE01B05E14 P0006 T00170011
0303724095147922024010703367+40277-074816FM-16+0065KTTN V0200205N00675001835MN0048285N5+00175+00115999999ADDAA101001731AU128020015AU200001015AW1105AW2655GA1085+001835999GD14991+0018359GE19AGL   +99999+99999GF199999999999001831999999MA1100375099605OC101085WA1900099REMMET13501/06/24 22:36:01 SPECI KTTN 070336Z 02013G21KT 3SM FZRA BR OVC006 02/01 A2964 RMK AO2 RAB01E34FZRAB34SNE01B05E14 P0007 I1000 T00170011
0345724095147922024010703457+40277-074816FM-16+0065KTTN V0200205N00725001835MN0040235N5+00115+00065999999ADDAA101002231AU128020015AU200001015AW1105AW2655GA1075+001835999GA2085+003055999GD13991+0018359GD24991+0030559GE19AGL   +99999+99999GF199999999999001831999999MA1100375099605OC100985WA1900099REMMET14601/06/24 22:45:01 SPECI KTTN 070345Z 02014G19KT 2 1/2SM FZRA BR BKN006 OVC010 01/01 A2964 RMK AO2 RAB01E34FZRAB34SNE01B05E14 P0009 I1000 T00110006
0342724095147922024010703517+40277-074816FM-16+0065KTTN V0200205N00515001835MN0048285N5+00105+00105999999ADDAA101002231AU110020015AU200001015AW1105AW2615GA1075+001835999GA2085+003355999GD13991+0018359GD24991+0033559GE19AGL   +99999+99999GF199999999999001831999999MA1100375099605MW1615OC101035WA1900099REMMET13701/06/24 22:51:02 SPECI KTTN 070351Z 02010G20KT 3SM -RA BR BKN006 OVC011 01/01 A2964 RMK AO2 RAB01E34B51FZRAB34E51SNE01B05E14 P0009 I1000
0365724095147922024010703537+40277-074816FM-15+0065KTTN V0200205N00575001835MN0048285N5+00115+00065100325ADDAA101002095AU110030015AU200001015AW1105AW2715GA1075+001835999GA2085+003355999GD13991+0018359GD24991+0033559GE19AGL   +99999+99999GF199999999999001831999999MA1100375099605MW1715OC101035WA1900099REMMET16001/06/24 22:53:02 METAR KTTN 070353Z 02011G20KT 3SM -SN BR BKN006 OVC011 01/01 A2964 RMK AO2 RAB01E34B51E53FZRAB34E51SNE01B05E14B53 SLP032 P0009 I1000 T00110006
0341724095147922024010704537+40277-074816FM-15+0065KTTN V0200305N00625001835MN0048285N5+00175+00115100235ADDAA101000395AU110030015AU200001015AW1105AW2715GA1085+001835999GD14991+0018359GE19AGL   +99999+99999GF199999999999001831999999KA1240M+00221KA2240N-00561MA1100275099505MW1715OC101035WA1900099REMMET14101/06/24 23:53:02 METAR KTTN 070453Z 03012G20KT 3SM -SN BR OVC006 02/01 A2961 RMK AO2 UPB46E48SNE46B48 SLP023 P0001 I1000 T00170011 400221056
1042724095147922024010704596+40277-074816SOD  +0065KTTN V020999999999999999999999999999+99999+99999999999ADDAA124020195AJ100009599999999AL12402595AN1024002595AT1AU16RA  5AT2AU17FZRA5AT3AU18SN  5AT4AU01FG  5AT5AU13BR  5AT6AU19UP  5AX1016246AX2066246KA1240M+00225KA2240N-00555MG1100974100204OE11240156505099995OE22240102805099995OE33240040299999995REMSOD75724 HR PRECIPITATION (IN): 0.79 SNOW DEPTH (IN):0     24 HR SNOWFALL (IN):1.0  WEATHER(CODE):16  24 HR MAX TEMP (F): 3624 HR MIN TEMP (F): 22AVERAGE STATION PRESSURE:29.815 MINIMUM SEA LEVEL PRESSURE:29.59 TIME OF OCCURRENCE:2359 PEAK WIND SPEED (MPH): 35 PEAK WIND DIR (DEG): 50 PEAK WIND TIME (LST):      FASTEST 2MIN SPEED (MPH): 23FASTEST 2MIN DIR (DEG): 50 FASTEST 2MIN TIME (LST):     AVERAGE WIND SPEED (MPH): 9.0 24 HR AVG TEMP (F): 29DEPART FROM NORMAL: -3  HEATING DEGREE DAYS: 36 COOLING DEGREE DAYS:  0 LATEST DAY MAX TEMP (0700-1900 LST):34  LATEST NIGHT MIN TEMP(1900-0800 LST):22 HOURLY INCREMENTAL PRECIPITATION VALUES (IN):.00 0.00 0.00 0.00 0.00 0.00 0.00 0.00 0.00 0.00 0.00 0.00 T    T    T    0.08 0.12 0.11 0.10 0.02 0.03 0.11 0.08 0.01EQDR01    167AXW093R02    167AXW093
0422724095147922024010705537+40277-074816FM-15+0065KTTN V0200305N00625001525MN0048285N5+00115+00065100205ADDAA101000025AA206006691AU120090015AU200001015AW1105AW2401AW3415GA1085+001525999GD14991+0015259GE19AGL   +99999+99999GF199999999999001521999999KA1060M+00221KA2060N+00111MA1100245099465MD1890069+9999OC101035WA1900099REMMET17801/07/24 00:53:02 METAR KTTN 070553Z 03012G20KT 3SM UP BR OVC005 01/01 A2960 RMK AO2 UPB0458E08B37SNE0458B0459E03B08E37B39E49 SLP020 P0001 60026 I6000 T00110006 10022 20011 58006EQDQ01  00668PRCP06
0254724095147922024010706537+40277-074816FM-15+0065KTTN V0200305N00625001835MN0064375N5+00115+00065100205ADDAA101000095AU100001015AW1105GA1085+001835999GD14991+0018359GE19AGL   +99999+99999GF199999999999001831999999MA1100245099465OC101035REMMET11201/07/24 01:53:02 METAR KTTN 070653Z 03012G20KT 4SM BR OVC006 01/01 A2960 RMK AO2 UPE0559 SLP020 P0000 T00110006
0287724095147922024010707537+40277-074816FM-15+0065KTTN V0200305N00515001835MN0080475N5+00115+00065100165ADDAA101000025AU100001015AW1105GA1085+001835999GD14991+0018359GE19AGL   +99999+99999GF199999999999001831999999MA1100205099435OC100935OD149901331030REMMET13101/07/24 02:53:02 METAR KTTN 070753Z 03010G18KT 5SM BR OVC006 01/01 A2959 RMK AO2 PK WND 03026/0728 SNB29E39 SLP016 P0000 T00110006
0310724095147922024010708537+40277-074816FM-15+0065KTTN V0200305N00515001835MN0080475N5+00115+00065100095ADDAA101000095AA203000021AU100001015AW1105GA1085+001835999GD14991+0018351GE19AGL   +99999+99999GF199999999999001831999999MA1100145099365MD1890119+9999OC101035WA1900099REMMET13401/07/24 03:53:02 METAR KTTN 070853Z 03010G20KT 5SM BR OVC006 01/01 A2957 RMK AO2 CIG 005V010 SLP009 60000 I1000 I3000 T00110006 58011
0270724095147922024010709537+40277-074816FM-15+0065KTTN V0200105N00365001835MN0112655N5+00175+00115100125ADDAA101000025AU120090015AW1401AW2415GA1085+001835999GD14991+0018351GE19AGL   +99999+99999GF199999999999001831999999MA1100175099405OC100825REMMET12201/07/24 04:53:02 METAR KTTN 070953Z 01007G16KT 7SM UP OVC006 02/01 A2958 RMK AO2 UPB49 CIG 005V009 SLP012 P0000 T00170011
0330724095147922024010710537+40277-074816FM-15+0065KTTN V0200205N00515002445MN0096565N5+00175+00115100115ADDAA101000025AU110020015AU200001015AW1105AW2615GA1085+002445999GD14991+0024451GE19AGL   +99999+99999GF199999999999002441999999MA1100145099365MW1615OC100825WA1900099REMMET15601/07/24 05:53:02 METAR KTTN 071053Z 02010G16KT 6SM -RA BR OVC008 02/01 A2957 RMK AO2 UPE44RAB26E27B52SNB44E52 CIG 005V012 SLP011 P0000 I1000 T00170011 (KJ)
0446724095147922024010711537+40277-074816FM-15+0065KTTN V0203505N00415002135MN0064375N5+00115+00115100125ADDAA101000595AA206000591AA324017391AU110030015AU200001015AW1105AW2715GA1085+002135999GD14991+0021359GE19AGL   +99999+99999GF199999999999002131999999KA1060M+00171KA2060N+00111MA1100175099405MD1190039+9999MW1715WA1900099REMMET18301/07/24 06:53:02 METAR KTTN 071153Z 35008KT 4SM -SN BR OVC007 01/01 A2958 RMK AO2 RAE1055B23E43UPB1055E1059B21E23SNB43 SLP012 P0002 60002 70068 I6000 T00110011 10017 20011 51003 (KJ)EQDQ01  00058PRCP06Q02  01728PRCP24
0251724095147922024010712537+40277-074816FM-15+0065KTTN V0203005N00265002445MN0160935N5+00115+00065100205ADDAA101000025GA1085+002445999GD14991+0024451GE19AGL   +99999+99999GF199999999999002441999999MA1100245099465REMMET13401/07/24 07:53:02 METAR KTTN 071253Z 30005KT 10SM OVC008 01/01 A2960 RMK AO2 UPB1156E16SNE1156 CIG 006V010 SLP020 P0000 T00110006 (KJ)
0246724095147922024010713537+40277-074816FM-15+0065KTTN V0203005N00315002745MN0064375N5+00115+00065100265ADDAA101000395AU100001015AW1105GA1085+002745999GD14991+0027459GE19AGL   +99999+99999GF199999999999002741999999MA1100305099535REMMET11201/07/24 08:53:02 METAR KTTN 071353Z 30006KT 4SM BR OVC009 01/01 A2962 RMK AO2 UPB04 SLP026 P0001 T00110006 (KJ)
0241724095147922024010714037+40277-074816FM-16+0065KTTN V0203005N00415002445MN0032195N5+00175+00065999999ADDAA101000021AU100001015AW1105GA1085+002445999GD14991+0024459GE19AGL   +99999+99999GF199999999999002441999999MA1100345099575REMMET10701/07/24 09:03:02 SPECI KTTN 071403Z 30008KT 2SM BR OVC008 02/01 A2963 RMK AO2 UPE1354 P0000 T00170006 (EE)
0245724095147922024010714117+40277-074816FM-16+0065KTTN V0203005N00415002445MN0024145N5+00115+00115999999ADDAA101000231AU100001015AW1105GA1085+002445999GD14991+0024459GE19AGL   +99999+99999GF199999999999002441999999MA1100345099575REMMET11101/07/24 09:11:02 SPECI KTTN 071411Z 30008KT 1 1/2SM BR OVC008 01/01 A2963 RMK AO2 UPE1354 P0001 T00110011 (EE)
0283724095147922024010714267+40277-074816FM-16+0065KTTN V0202805N00415001525MN0040235N5+00115+00065999999ADDAA101000231AU100001015AW1105GA1075+001525999GA2085+002745999GD13991+0015259GD24991+0027459GE19AGL   +99999+99999GF199999999999001521999999MA1100345099575REMMET11801/07/24 09:26:02 SPECI KTTN 071426Z 28008KT 2 1/2SM BR BKN005 OVC009 01/01 A2963 RMK AO2 UPE1354 P0001 T00110006 (EE)
0279724095147922024010714337+40277-074816FM-16+0065KTTN V0202805N00415001525MN0048285N5+00065+00065999999ADDAA101000531AU100001015AW1105GA1075+001525999GA2085+003965999GD13991+0015259GD24991+0039659GE19AGL   +99999+99999GF199999999999001521999999MA1100375099605REMMET11401/07/24 09:33:02 SPECI KTTN 071433Z 28008KT 3SM BR BKN005 OVC013 01/01 A2964 RMK AO2 UPE1354 P0002 T00060006 (EE)
0283724095147922024010714447+40277-074816FM-16+0065KTTN V0202905N00465001225MN0040235N5+00065+00005999999ADDAA101000531AU100001015AW1105GA1075+001225999GA2085+006105999GD13991+0012259GD24991+0061059GE19AGL   +99999+99999GF199999999999001221999999MA1100375099605REMMET11801/07/24 09:44:02 SPECI KTTN 071444Z 29009KT 2 1/2SM BR BKN004 OVC020 01/00 A2964 RMK AO2 UPE1354 P0002 T00060000 (EE)
0357724095147922024010714537+40277-074816FM-15+0065KTTN V0202905N00515001225MN0048285N5+00065+00005100335ADDAA101000595AA203000891AU100001015AW1105GA1075+001225999GA2085+007015999GD13991+0012259GD24991+0070159GE19AGL   +99999+99999GF199999999999001221999999MA1100375099605MD1190219+9999WA1900099REMMET13901/07/24 09:53:02 METAR KTTN 071453Z 29010KT 3SM BR BKN004 OVC023 01/00 A2964 RMK AO2 UPE1354 SLP033 P0002 60003 I3000 T00060000 51021 (EE)EQDQ01  00078PRCP03
0254724095147922024010715267+40277-074816FM-16+0065KTTN V0203105N00365001525MN0064375N5+00115+00065999999ADDAU100001015AW1105GA1075+001525999GA2085+009455999GD13991+0015259GD24991+0094559GE19AGL   +99999+99999GF199999999999001521999999MA1100375099605REMMET10001/07/24 10:26:02 SPECI KTTN 071526Z 31007KT 4SM BR BKN005 OVC031 01/01 A2964 RMK AO2 T00110006 (EE)
0329724095147922024010715537+40277-074816FM-15+0065KTTN V0203205N00365002135MN0128755N5+00115+00065100325ADDAA101000025AU110030015AW1715GA1075+002135999GA2075+004575999GA3085+008845999GD13991+0021359GD23991+0045759GD34991+0088459GE19AGL   +99999+99999GF199999999999002131999999MA1100375099605MW1715REMMET12701/07/24 10:53:02 METAR KTTN 071553Z 32007KT 8SM -SN BKN007 BKN015 OVC029 01/01 A2964 RMK AO2 SNB30 SLP032 P0000 T00110006 (EE)
0267724095147922024010716537+40277-074816FM-15+0065KTTN V0203005N00415002135MN0160935N5+00225+00115100285ADDAA101000095GA1075+002135999GA2085+008845999GD13991+0021359GD24991+0088459GE19AGL   +99999+99999GF199999999999002131999999MA1100305099535REMMET11901/07/24 11:53:02 METAR KTTN 071653Z 30008KT 10SM BKN007 OVC029 02/01 A2962 RMK AO2 SNE1555 SLP028 P0000 T00220011 (EE)
0197724095147922024010717337+40277-074816FM-16+0065KTTN V0202905N00365003055MN0160935N5+00225+00115999999ADDGA1085+003055999GD14991+0030559GE19AGL   +99999+99999GF199999999999003051999999MA1100275099505REMMET09101/07/24 12:33:02 SPECI KTTN 071733Z 29007KT 10SM OVC010 02/01 A2961 RMK AO2 T00220011 (EE)
0316724095147922024010717537+40277-074816FM-15+0065KTTN V0203005N00465003665MN0160935N5+00285+00115100245ADDAA101000095AA206000891GA1085+003665999GD14991+0036659GE19AGL   +99999+99999GF199999999999003661999999KA1060M+00281KA2060N+00061MA1100275099505MD1890099+9999OC100825WA1900099REMMET13101/07/24 12:53:02 METAR KTTN 071753Z 30009G16KT 10SM OVC012 03/01 A2961 RMK AO2 SLP024 60003 I6000 T00280011 10028 20006 58009 (EE)
0197724095147922024010718107+40277-074816FM-16+0065KTTN V0202905N00465004575MN0160935N5+00285+00115999999ADDGA1085+004575999GD14991+0045759GE19AGL   +99999+99999GF199999999999004571999999MA1100275099505REMMET09101/07/24 13:10:02 SPECI KTTN 071810Z 29009KT 10SM OVC015 03/01 A2961 RMK AO2 T00280011 (JM)
0235724095147922024010718327+40277-074816FM-16+0065KTTN V0203005N00515004275MN0160935N5+00285+00065999999ADDGA1075+004275999GA2085+006105999GD13991+0042759GD24991+0061059GE19AGL   +99999+99999GF199999999999004271999999MA1100305099535REMMET09801/07/24 13:32:02 SPECI KTTN 071832Z 30010KT 10SM BKN014 OVC020 03/01 A2962 RMK AO2 T00280006 (JM)
0263724095147922024010718487+40277-074816FM-16+0065KTTN V0202905N00415005795MN0160935N5+00305+00105999999ADDGA1025+004275999GA2075+005795999GA3085+008845999GD11991+0042759GD23991+0057959GD34991+0088459GE19AGL   +99999+99999GF199999999999004271999999MA1100305099535REMMET09501/07/24 13:48:02 SPECI KTTN 071848Z 29008KT 10SM FEW014 BKN019 OVC029 03/01 A2962 RMK AO2 (JM)
0253724095147922024010718537+40277-074816FM-15+0065KTTN V0202805N00415008845MN0160935N5+00285+00065100275ADDAA101000095GA1045+005185999GA2085+008845999GD12991+0051859GD24991+0088459GE19AGL   +99999+99999GF199999999999005181999999MA1100305099535REMMET10501/07/24 13:53:02 METAR KTTN 071853Z 28008KT 10SM SCT017 OVC029 03/01 A2962 RMK AO2 SLP027 T00280006 (JM)
0235724095147922024010719377+40277-074816FM-16+0065KTTN V0202805N00465009145MN0160935N5+00395+00065999999ADDGA1025+006715999GA2075+009145999GD11991+0067159GD23991+0091459GE19AGL   +99999+99999GF199999999999006711999999MA1100375099605REMMET09801/07/24 14:37:02 SPECI KTTN 071937Z 28009KT 10SM FEW022 BKN030 04/01 A2964 RMK AO2 T00390006 (JM)
0283724095147922024010719537+40277-074816FM-15+0065KTTN V0202905N005152200059N0160935N5+00445+00005100365ADDAA101000095GA1025+007325999GA2045+009145999GD11991+0073259GD22991+0091459GE19AGL   +99999+99999GF104995999999007321999999MA1100415099635OC101035REMMET10801/07/24 14:53:02 METAR KTTN 071953Z 29010G20KT 10SM FEW024 SCT030 04/00 A2965 RMK AO2 SLP036 T00440000 (JM)EQDD01      0ADE726
0279724095147922024010720537+40277-074816FM-15+0065KTTN V0202905N00515010675MN0160935N5+00395-00115100525ADDAA101000095GA1085+010675999GD14991+0106759GE19AGL   +99999+99999GF199999999999010671999999MA1100585099805MD1390269+9999OC101035OD149901331300REMMET12601/07/24 15:53:02 METAR KTTN 072053Z 29010G20KT 10SM OVC035 04/M01 A2970 RMK AO2 PK WND 30026/2011 SLP052 T00391011 53026 (JM)
0227724095147922024010721537+40277-074816FM-15+0065KTTN V0203005N00415010365MN0160935N5+00335-00115100675ADDAA101000095GA1085+010365999GD14991+0103659GE19AGL   +99999+99999GF199999999999010361999999MA1100715099945OC100885REMMET10201/07/24 16:53:02 METAR KTTN 072153Z 30008G17KT 10SM OVC034 03/M01 A2974 RMK AO2 SLP067 T00331011 (JM)
0227724095147922024010722537+40277-074816FM-15+0065KTTN V0203005N00465013115MN0160935N5+00335-00175100845ADDAA101000095GA1075+013115999GD13991+0131159GE19AGL   +99999+99999GF199999999999013111999999MA1100885100105OC100935REMMET10201/07/24 17:53:02 METAR KTTN 072253Z 30009G18KT 10SM BKN043 03/M02 A2979 RMK AO2 SLP084 T00331017 (BC)
0260724095147922024010723537+40277-074816FM-15+0065KTTN V0202905N003652200059N0160935N5+00285-00225101065ADDAA101000095GA1005+999999999GD10991+9999999GF100991999999999999999999KA1060M+00501KA2060N+00281MA1101085100315MD1390529+9999OC100775REMMET11701/07/24 18:53:02 METAR KTTN 072353Z 29007G15KT 10SM CLR 03/M02 A2985 RMK AO2 SLP106 T00281022 10050 20028 53052 (BC)
0230724095147922024010800537+40277-074816FM-15+0065KTTN V0202905N002652200059N0160935N5+00175-00225101225ADDAA101000095GA1045+011285999GD12991+0112859GE19AGL   +99999+99999GF104995999999011281999999MA1101255100475REMMET09401/07/24 19:53:01 METAR KTTN 080053Z 29005KT 10SM SCT037 02/M02 A2990 RMK AO2 SLP122 T00171022EQDD01      0ADE726
0186724095147922024010801537+40277-074816FM-15+0065KTTN V0202805N001552200059N0160935N5+00175-00225101315ADDAA101000095GA1005+999999999GD10991+9999999GF100991999999999999999999MA1101355100585REMMET09101/07/24 20:53:01 METAR KTTN 080153Z 28003KT 10SM CLR 02/M02 A2993 RMK AO2 SLP131 T00171022
0250724095147922024010802537+40277-074816FM-15+0065KTTN V0202905N002652200059N0160935N5+00115-00225101395ADDAA101000095GA1045+010675999GD12991+0106759GE19AGL   +99999+99999GF104995999999010671999999MA1101425100645MD1190339+9999REMMET10001/07/24 21:53:01 METAR KTTN 080253Z 29005KT 10SM SCT035 01/M02 A2995 RMK AO2 SLP139 T00111022 51033EQDD01      0ADE726
0211724095147922024010803537+40277-074816FM-15+0065KTTN V0202705N00265010675MN0160935N5+00175-00175101525ADDAA101000095GA1075+010675999GD13991+0106759GE19AGL   +99999+99999GF199999999999010671999999MA1101565100785REMMET09401/07/24 22:53:02 METAR KTTN 080353Z 27005KT 10SM BKN035 02/M02 A2999 RMK AO2 SLP152 T00171017
0247724095147922024010804537+40277-074816FM-15+0065KTTN V0202905N00215014335MN0160935N5+00175-00175101605ADDAA101000095GA1085+014335999GD14991+0143359GE19AGL   +99999+99999GF199999999999014331999999KA1240M+00501KA2240N+00061MA1101635100845REMMET10401/07/24 23:53:02 METAR KTTN 080453Z 29004KT 10SM OVC047 02/M02 A3001 RMK AO2 SLP160 T00171017 400500006
0973724095147922024010804596+40277-074816SOD  +0065KTTN V020999999999999999999999999999+99999+99999999999ADDAA124001395AJ100003599999999AL12400035AN1024000035AT1AU16RA  5AT2AU18SN  5AT3AU13BR  5AT4AU19UP  5AX1015245KA1240M+00505KA2240N+00065MG1099664100074OE11240134130099995OE22240089403099995OE33240040299999995REMSOD75624 HR PRECIPITATION (IN): 0.05 SNOW DEPTH (IN):T     24 HR SNOWFALL (IN):T    WEATHER(CODE):1  24 HR MAX TEMP (F): 4124 HR MIN TEMP (F): 33AVERAGE STATION PRESSURE:29.430 MINIMUM SEA LEVEL PRESSURE:29.55 TIME OF OCCURRENCE:0357 PEAK WIND SPEED (MPH): 30 PEAK WIND DIR (DEG):300 PEAK WIND TIME (LST):      FASTEST 2MIN SPEED (MPH): 20FASTEST 2MIN DIR (DEG): 30 FASTEST 2MIN TIME (LST):     AVERAGE WIND SPEED (MPH): 9.0 24 HR AVG TEMP (F): 37DEPART FROM NORMAL:  5  HEATING DEGREE DAYS: 28 COOLING DEGREE DAYS:  0 LATEST DAY MAX TEMP (0700-1900 LST):41  LATEST NIGHT MIN TEMP(1900-0800 LST):34 HOURLY INCREMENTAL PRECIPITATION VALUES (IN):    0.00 T    0.00 T    T    0.02 T    0.01 0.02 T    0.00 0.00 0.00 0.00 0.00 0.00 0.00 0.00 0.00 0.00 0.00 0.00 0.00
0288724095147922024010805537+40277-074816FM-15+0065KTTN V0202805N003652200059N0160935N5+00225-00175101675ADDAA101000095GA1045+014945999GD12991+0149459GE19AGL   +99999+99999GF104995999999014941999999KA1060M+00281KA2060N+00111MA1101735100955MD1190299+9999REMMET11201/08/24 00:53:02 METAR KTTN 080553Z 28007KT 10SM SCT049 02/M02 A3004 RMK AO2 SLP167 T00221017 10028 20011 51029EQDD01      0ADE726
0193724095147922024010806537+40277-074816FM-15+0065KTTN V0202705N001552200059N0160935N5+00175-00175101845ADDAA101000095GA1005+999999999GD10991+9999999GF100991999999999999999999MA1101865101085REMMET09801/08/24 01:53:02 METAR KTTN 080653Z 27003KT 10SM CLR 02/M02 A3008 RMK AO2 PRESRR SLP184 T00171017
0186724095147922024010807537+40277-074816FM-15+0065KTTN V0203105N002652200059N0160935N5+00175-00115101975ADDAA101000095GA1005+999999999GD10991+9999999GF100991999999999999999999MA1102035101255REMMET09101/08/24 02:53:02 METAR KTTN 080753Z 31005KT 10SM CLR 02/M01 A3013 RMK AO2 SLP197 T00171011
0206724095147922024010808537+40277-074816FM-15+0065KTTN V0203205N003652200059N0160935N5+00225-00115101975ADDAA101000095GA1005+999999999GD10991+9999999GF100991999999999999999999MA1102035101255MD1190309+9999REMMET09701/08/24 03:53:02 METAR KTTN 080853Z 32007KT 10SM CLR 02/M01 A3013 RMK AO2 SLP197 T00221011 51030
0186724095147922024010809537+40277-074816FM-15+0065KTTN V0203305N004152200059N0160935N5+00175-00225102155ADDAA101000095GA1005+999999999GD10991+9999999GF100991999999999999999999MA1102205101425REMMET09101/08/24 04:53:02 METAR KTTN 080953Z 33008KT 10SM CLR 02/M02 A3018 RMK AO2 SLP215 T00171022
0191724095147922024010810537+40277-074816FM-15+0065KTTN V0203305N004152200059N0160935N5+00175-00335102305ADDAA101000095GA1005+999999999GD10991+9999999GF100991999999999999999999MA1102375101595REMMET09601/08/24 05:53:02 METAR KTTN 081053Z 33008KT 10SM CLR 02/M03 A3023 RMK AO2 SLP230 T00171033 (KJ)
0266724095147922024010811537+40277-074816FM-15+0065KTTN V0203305N002152200059N0160935N5+00115-00395102465ADDAA101000095AA224000891GA1005+999999999GD10991+9999999GF100991999999999999999999KA1060M+00221KA2060N+00061MA1102515101725MD1190489+9999REMMET12001/08/24 06:53:02 METAR KTTN 081153Z 33004KT 10SM CLR 01/M04 A3027 RMK AO2 SLP246 70003 T00111039 10022 20006 51048 (KJ)
0191724095147922024010812537+40277-074816FM-15+0065KTTN V0203205N002152200059N0160935N5+00115-00335102585ADDAA101000095GA1005+999999999GD10991+9999999GF100991999999999999999999MA1102615101825REMMET09601/08/24 07:53:02 METAR KTTN 081253Z 32004KT 10SM CLR 01/M03 A3030 RMK AO2 SLP258 T00111033 (KJ)
0191724095147922024010813537+40277-074816FM-15+0065KTTN V0203305N003652200059N0160935N5+00285-00335102705ADDAA101000095GA1005+999999999GD10991+9999999GF100991999999999999999999MA1102745101965REMMET09601/08/24 08:53:02 METAR KTTN 081353Z 33007KT 10SM CLR 03/M03 A3034 RMK AO2 SLP270 T00281033 (EE)
0222724095147922024010814537+40277-074816FM-15+0065KTTN V0203305N003652200059N0160935N5+00395-00335102835ADDAA101000095GA1005+999999999GD10991+9999999GF100991999999999999999999MA1102885102095MD1390389+9999OC100775REMMET10501/08/24 09:53:02 METAR KTTN 081453Z 33007G15KT 10SM CLR 04/M03 A3038 RMK AO2 SLP283 T00391033 53038 (EE)
0191724095147922024010815537+40277-074816FM-15+0065KTTN V0203505N004152200059N0160935N5+00505-00395102855ADDAA101000095GA1005+999999999GD10991+9999999GF100991999999999999999999MA1102915102125REMMET09601/08/24 10:53:02 METAR KTTN 081553Z 35008KT 10SM CLR 05/M04 A3039 RMK AO2 SLP285 T00501039 (EE)
0191724095147922024010816537+40277-074816FM-15+0065KTTN V0203305N004652200059N0160935N5+00565-00395102835ADDAA101000095GA1005+999999999GD10991+9999999GF100991999999999999999999MA1102885102095REMMET09601/08/24 11:53:02 METAR KTTN 081653Z 33009KT 10SM CLR 06/M04 A3038 RMK AO2 SLP283 T00561039 (EE)
0249724095147922024010817537+40277-074816FM-15+0065KTTN V0203405N005152200059N0160935N5+00675-00395102835ADDAA101000095GA1005+999999999GD10991+9999999GF100991999999999999999999KA1060M+00671KA2060N+00061MA1102885102095MD1090009+9999REMMET11401/08/24 12:53:02 METAR KTTN 081753Z 34010KT 10SM CLR 07/M04 A3038 RMK AO2 SLP283 T00671039 10067 20006 50000 (EE)
0235724095147922024010818537+40277-074816FM-15+0065KTTN V0203405N005752200059N0160935N5+00675-00395102805ADDAA101000095GA1025+013725999GD11991+0137259GE19AGL   +99999+99999GF102995999999013721999999MA1102845102065REMMET09901/08/24 13:53:02 METAR KTTN 081853Z 34011KT 10SM FEW045 07/M04 A3037 RMK AO2 SLP280 T00671039 (BC)EQDD01      0ADE726
0235724095147922024010819537+40277-074816FM-15+0065KTTN V0203505N003152200059N0160935N5+00725-00395102865ADDAA101000095GA1045+014025999GD12991+0140259GE19AGL   +99999+99999GF104995999999014021999999MA1102915102125REMMET09901/08/24 14:53:02 METAR KTTN 081953Z 35006KT 10SM SCT046 07/M04 A3039 RMK AO2 SLP286 T00721039 (BC)EQDD01      0ADE726
0255724095147922024010820537+40277-074816FM-15+0065KTTN V0203305N003152200059N0160935N5+00565-00445102885ADDAA101000095GA1025+014335999GD11991+0143359GE19AGL   +99999+99999GF102995999999014331999999MA1102955102165MD1390059+9999REMMET10501/08/24 15:53:02 METAR KTTN 082053Z 33006KT 10SM FEW047 06/M04 A3040 RMK AO2 SLP288 T00561044 53005 (BC)EQDD01      0ADE726
0191724095147922024010821537+40277-074816FM-15+0065KTTN V0202805N001552200059N0160935N5+00505-00445102995ADDAA101000095GA1005+999999999GD10991+9999999GF100991999999999999999999MA1103055102265REMMET09601/08/24 16:53:02 METAR KTTN 082153Z 28003KT 10SM CLR 05/M04 A3043 RMK AO2 SLP299 T00501044 (DZ)
0191724095147922024010822537+40277-074816FM-15+0065KTTN V0209999C000052200059N0160935N5+00285-00445103065ADDAA101000095GA1005+999999999GD10991+9999999GF100991999999999999999999MA1103085102295REMMET09601/08/24 17:53:02 METAR KTTN 082253Z 00000KT 10SM CLR 03/M04 A3044 RMK AO2 SLP306 T00281044 (DZ)
0249724095147922024010823537+40277-074816FM-15+0065KTTN V0202105N002152200059N0160935N5+00285-00395103055ADDAA101000095GA1005+999999999GD10991+9999999GF100991999999999999999999KA1060M+00721KA2060N+00171MA1103085102295MD1090169+9999REMMET11401/08/24 18:53:02 METAR KTTN 082353Z 21004KT 10SM CLR 03/M04 A3044 RMK AO2 SLP305 T00281039 10072 20017 50016 (DZ)
0186724095147922024010900537+40277-074816FM-15+0065KTTN V0209999C000052200059N0160935N5+00005-00445103085ADDAA101000095GA1005+999999999GD10991+9999999GF100991999999999999999999MA1103125102335REMMET09101/08/24 19:53:01 METAR KTTN 090053Z 00000KT 10SM CLR 00/M04 A3045 RMK AO2 SLP308 T00001044
0187724095147922024010901537+40277-074816FM-15+0065KTTN V0209999C000052200059N0160935N5-00175-00505102995ADDAA101000095GA1005+999999999GD10991+9999999GF100991999999999999999999MA1103055102265REMMET09201/08/24 20:53:01 METAR KTTN 090153Z 00000KT 10SM CLR M02/M05 A3043 RMK AO2 SLP299 T10171050
0207724095147922024010902537+40277-074816FM-15+0065KTTN V0209999C000052200059N0160935N5-00225-00505102955ADDAA101000095GA1005+999999999GD10991+9999999GF100991999999999999999999MA1102985102195MD1890109+9999REMMET09801/08/24 21:53:01 METAR KTTN 090253Z 00000KT 10SM CLR M02/M05 A3041 RMK AO2 SLP295 T10221050 58010
0187724095147922024010903537+40277-074816FM-15+0065KTTN V0209999C000052200059N0160935N5-00285-00505102915ADDAA101000095GA1005+999999999GD10991+9999999GF100991999999999999999999MA1102955102165REMMET09201/08/24 22:53:02 METAR KTTN 090353Z 00000KT 10SM CLR M03/M05 A3040 RMK AO2 SLP291 T10281050
0223724095147922024010904537+40277-074816FM-15+0065KTTN V0203305N001552200059N0160935N5-00335-00505102935ADDAA101000095GA1005+999999999GD10991+9999999GF100991999999999999999999KA1240M+00721KA2240N-00331MA1102985102195REMMET10201/08/24 23:53:02 METAR KTTN 090453Z 33003KT 10SM CLR M03/M05 A3041 RMK AO2 SLP293 T10331050 400721033
0899724095147922024010904596+40277-074816SOD  +0065KTTN V020999999999999999999999999999+99999+99999999999ADDAA124000095AJ100009599999999AL12400095AN1024000095KA1240M+00725KA2240N-00325MG1101744101594OE11240098333099995OE22240076034099995OE33240025999999995REMSOD73924 HR PRECIPITATION (IN): 0.00 SNOW DEPTH (IN):0     24 HR SNOWFALL (IN):0.0  24 HR MAX TEMP (F): 4524 HR MIN TEMP (F): 26AVERAGE STATION PRESSURE:30.045 MINIMUM SEA LEVEL PRESSURE:30.00 TIME OF OCCURRENCE:0002 PEAK WIND SPEED (MPH): 22 PEAK WIND DIR (DEG):330 PEAK WIND TIME (LST):      FASTEST 2MIN SPEED (MPH): 17FASTEST 2MIN DIR (DEG):340 FASTEST 2MIN TIME (LST):     AVERAGE WIND SPEED (MPH): 5.8 24 HR AVG TEMP (F): 36DEPART FROM NORMAL:  4  HEATING DEGREE DAYS: 29 COOLING DEGREE DAYS:  0 LATEST DAY MAX TEMP (0700-1900 LST):45  LATEST NIGHT MIN TEMP(1900-0800 LST):33 HOURLY INCREMENTAL PRECIPITATION VALUES (IN):.00 0.00 0.00 0.00 0.00 0.00 0.00 0.00 0.00 0.00 0.00 0.00 0.00 0.00 0.00 0.00 0.00 0.00 0.00 0.00 0.00 0.00 0.00 0.00
0245724095147922024010905537+40277-074816FM-15+0065KTTN V0209999C000052200059N0160935N5-00395-00565102965ADDAA101000095GA1005+999999999GD10991+9999999GF100991999999999999999999KA1060M+00331KA2060N-00391MA1103015102225MD1390019+9999REMMET11001/09/24 00:53:02 METAR KTTN 090553Z 00000KT 10SM CLR M04/M06 A3042 RMK AO2 SLP296 T10391056 10033 21039 53001
0187724095147922024010906537+40277-074816FM-15+0065KTTN V0200305N001552200059N0160935N5-00335-00505102865ADDAA101000095GA1005+999999999GD10991+9999999GF100991999999999999999999MA1102915102125REMMET09201/09/24 01:53:02 METAR KTTN 090653Z 03003KT 10SM CLR M03/M05 A3039 RMK AO2 SLP286 T10331050
0187724095147922024010907537+40277-074816FM-15+0065KTTN V0200205N002152200059N0160935N5-00285-00445102865ADDAA101000095GA1005+999999999GD10991+9999999GF100991999999999999999999MA1102915102125REMMET09201/09/24 02:53:02 METAR KTTN 090753Z 02004KT 10SM CLR M03/M04 A3039 RMK AO2 SLP286 T10281044
0207724095147922024010908537+40277-074816FM-15+0065KTTN V0209999C000052200059N0160935N5-00115-00445102785ADDAA101000095GA1005+999999999GD10991+9999999GF100991999999999999999999MA1102815102025MD1690179+9999REMMET09801/09/24 03:53:02 METAR KTTN 090853Z 00000KT 10SM CLR M01/M04 A3036 RMK AO2 SLP278 T10111044 56017
0187724095147922024010909537+40277-074816FM-15+0065KTTN V0200905N001552200059N0160935N5-00065-00445102745ADDAA101000095GA1005+999999999GD10991+9999999GF100991999999999999999999MA1102785101995REMMET09201/09/24 04:53:02 METAR KTTN 090953Z 09003KT 10SM CLR M01/M04 A3035 RMK AO2 SLP274 T10061044
0236724095147922024010910537+40277-074816FM-15+0065KTTN V0200705N001552200059N0160935N5-00065-00445102735ADDAA101000095GA1045+012195999GD12991+0121959GE19AGL   +99999+99999GF104995999999012191999999MA1102785101995REMMET10001/09/24 05:53:02 METAR KTTN 091053Z 07003KT 10SM SCT040 M01/M04 A3035 RMK AO2 SLP273 T10061044 (KJ)EQDD01      0ADE726
0293724095147922024010911537+40277-074816FM-15+0065KTTN V0200805N003652200059N0160935N5+00005-00395102545ADDAA101000095GA1025+011285999GD11991+0112859GE19AGL   +99999+99999GF102995999999011281999999KA1060M+00001KA2060N-00391MA1102575101795MD1890249+9999REMMET11701/09/24 06:53:02 METAR KTTN 091153Z 08007KT 10SM FEW037 00/M04 A3029 RMK AO2 SLP254 T00001039 10000 21039 58024 (KJ)EQDD01      0ADE726
0191724095147922024010912537+40277-074816FM-15+0065KTTN V0200905N002652200059N0160935N5+00115-00225102495ADDAA101000095GA1005+999999999GD10991+9999999GF100991999999999999999999MA1102545101755REMMET09601/09/24 07:53:02 METAR KTTN 091253Z 09005KT 10SM CLR 01/M02 A3028 RMK AO2 SLP249 T00111022 (KJ)
0254724095147922024010913537+40277-074816FM-15+0065KTTN V0200705N00265036585MN0160935N5+00175-00175102475ADDAA101000095GA1045+011895999GA2075+036585999GD12991+0118959GD23991+0365859GE19AGL   +99999+99999GF199999999999011891999999MA1102515101725REMMET10601/09/24 08:53:02 METAR KTTN 091353Z 07005KT 10SM SCT039 BKN120 02/M02 A3027 RMK AO2 SLP247 T00171017 (EE)
0312724095147922024010914537+40277-074816FM-15+0065KTTN V0200905N00315022865MN0160935N5+00225-00115102365ADDAA101000025GA1025+018295999GA2075+022865999GA3085+027435999GD11991+0182959GD23991+0228659GD34991+0274359GE19AGL   +99999+99999GF199999999999018291999999MA1102405101625MD1890189+9999REMMET11901/09/24 09:53:02 METAR KTTN 091453Z 09006KT 10SM FEW060 BKN075 OVC090 02/M01 A3024 RMK AO2 SLP236 T00221011 58018 (EE)
0334724095147922024010915537+40277-074816FM-15+0065KTTN V0200905N00465014025MN0096565N5+00335+00115102155ADDAA101000895AU110020015AU200001015AW1105AW2615GA1075+014025999GA2085+016765999GD13991+0140259GD24991+0167659GE19AGL   +99999+99999GF199999999999014021999999MA1102205101425MW1615REMMET14601/09/24 10:53:02 METAR KTTN 091553Z 09009KT 6SM -RA BR BKN046 OVC055 03/01 A3018 RMK AO2 UPB1457E02B18E26RAB02 PRESFR SLP215 P0002 T00330011 (EE)
0281724095147922024010916537+40277-074816FM-15+0065KTTN V0201005N00465019815MN0160935N5+00505+00285101875ADDAA101000395AU110020015AW1615GA1025+005795999GA2085+019815999GD11991+0057959GD24991+0198159GE19AGL   +99999+99999GF199999999999005791999999MA1101905101115MW1615REMMET11001/09/24 11:53:02 METAR KTTN 091653Z 10009KT 10SM -RA FEW019 OVC065 05/03 A3009 RMK AO2 SLP187 P0002 T00500028
0412724095147922024010917537+40277-074816FM-15+0065KTTN V0201005N00465014335MN0064375N5+00565+00445101675ADDAA101001595AA206002391AU110020015AU200001015AW1105AW2615GA1045+004275999GA2085+014335999GD12991+0042759GD24991+0143359GE19AGL   +99999+99999GF199999999999004271999999KA1060M+00561KA2060N+00001MA1101695100915MD1690699+9999MW1615OC100825REMMET14601/09/24 12:53:02 METAR KTTN 091753Z 10009G16KT 4SM -RA BR SCT014 OVC047 06/04 A3003 RMK AO2 PRESFR SLP167 P0005 60009 T00560044 10056 20000 56069EQDQ01  00228PRCP06
0280724095147922024010918537+40277-074816FM-15+0065KTTN V0201105N00675002445MN0048285N5+00615+00565101455ADDAA101002895AU110020015AU200001015AW1105AW2615GA1085+002445999GD14991+0024459GE19AGL   +99999+99999GF199999999999002441999999MA1101495100715MW1615OC100935REMMET11501/09/24 13:53:02 METAR KTTN 091853Z 11013G18KT 3SM -RA BR OVC008 06/06 A2997 RMK AO2 PRESFR SLP145 P0011 T00610056
0330724095147922024010919537+40277-074816FM-15+0065KTTN V0201105N00725002445MN0064375N5+00675+00615101155ADDAA101002595AU110020015AU200001015AW1105AW2615GA1075+002445999GA2085+003665999GD13991+0024451GD24991+0036659GE19AGL   +99999+99999GF199999999999002441999999MA1101195100415MW1615OC101185REMMET13401/09/24 14:53:02 METAR KTTN 091953Z 11014G23KT 4SM -RA BR BKN008 OVC012 07/06 A2988 RMK AO2 CIG 006V010 PRESFR SLP115 P0010 T00670061
0339724095147922024010920537+40277-074816FM-15+0065KTTN V0201205N00675002445MN0112655N5+00785+00725100845ADDAA101001895AA203007191AU110020015AW1615GA1085+002445999GD14991+0024451GE19AGL   +99999+99999GF199999999999002441999999MA1100915100145MD1890819+9999MW1615OC101445REMMET14701/09/24 15:53:02 METAR KTTN 092053Z 12013G28KT 7SM -RA OVC008 08/07 A2980 RMK AO2 PK WND 11028/2047 CIG 006V011 SLP084 P0007 60028 T00780072 58081EQDQ01  00718PRCP03
0321724095147922024010921097+40277-074816FM-16+0065KTTN V0201205N00825002445MN0040235N5+00835+00785999999ADDAA101001031AU110020015AU200001015AW1105AW2615GA1085+002445999GD14991+0024451GE19AGL   +99999+99999GF199999999999002441999999MA1100815100045MW1615OC101395OD149901391110REMMET14201/09/24 16:09:02 SPECI KTTN 092109Z 12016G27KT 2 1/2SM -RA BR OVC008 08/08 A2977 RMK AO2 PK WND 11027/2106 CIG 006V010 PRESFR P0004 T00830078
0317724095147922024010921337+40277-074816FM-16+0065KTTN V0201105N00885002445MN0064375N5+00895+00835999999ADDAA101002231AU110020015AU200001015AW1105AW2615GA1085+002445999GD14991+0024451GE19AGL   +99999+99999GF199999999999002441999999MA1100715099945MW1615OC101345OD149901391110REMMET13801/09/24 16:33:02 SPECI KTTN 092133Z 11017G26KT 4SM -RA BR OVC008 09/08 A2974 RMK AO2 PK WND 11027/2106 CIG 006V010 PRESFR P0009 T00890083
0350724095147922024010921537+40277-074816FM-15+0065KTTN V0201105N00885002745MN0048285N5+00945+00895100555ADDAA101004195AU120020015AU200001015AW1105AW2625GA1075+002745999GA2085+004885999GD13991+0027451GD24991+0048859GE19AGL   +99999+99999GF199999999999002741999999MA1100615099845MW1655OD149901491130REMMET14801/09/24 16:53:02 METAR KTTN 092153Z 11017KT 3SM RA BR BKN009 OVC016 09/09 A2971 RMK AO2 PK WND 13029/2138 CIG 007V014 PRESFR SLP055 P0015 T00940089
0347724095147922024010922247+40277-074816FM-16+0065KTTN V0201205N00825003055MN0048285N5+01005+00895999999ADDAA101002231AU120020015AU200001015AW1105AW2625GA1075+003055999GA2085+004885999GD13991+0030551GD24991+0048859GE19AGL   +99999+99999GF199999999999003051999999MA1100445099675MW1655OC101495OD149901591120REMMET13701/09/24 17:24:02 SPECI KTTN 092224Z 12016G29KT 3SM RA BR BKN010 OVC016 10/09 A2966 RMK AO2 PK WND 12031/2212 CIG 007V012 P0009 T01000089
0349724095147922024010922537+40277-074816FM-15+0065KTTN V0201305N01245003665MN0048285N5+01065+00945100215ADDAA101005195AU120020015AU200001015AW1105AW2625GA1025+002445999GA2085+003665999GD11991+0024459GD24991+0036659GE19AGL   +99999+99999GF199999999999002441999999MA1100275099505MW1655OC102115OD149902111130REMMET13901/09/24 17:53:02 METAR KTTN 092253Z 13024G41KT 3SM RA BR FEW008 OVC012 11/09 A2961 RMK AO2 PK WND 13041/2247 PRESFR SLP021 P0020 T01060094
0390724095147922024010923537+40277-074816FM-15+0065KTTN V0201405N01345003355MN0040235N5+01175+01065099825ADDAA101004395AA206020391AU130020015AU200001015AW1105AW2635GA1085+003355999GD14991+0033559GE19AGL   +99999+99999GF199999999999003351999999KA1060M+01171MA1099865099095MD1891019+9999MW1635OC102115OD149902111140REMMET15401/09/24 18:53:02 METAR KTTN 092353Z 14026G41KT 2 1/2SM +RA BR OVC011 12/11 A2949 RMK AO2 PK WND 14041/2352 SLP982 P0017 60080 T01170106 10117 20056 58101EQDQ01  02038PRCP06
0353724095147922024011000537+40277-074816FM-15+0065KTTN V0201505N01185003665MN0040235N5+01285+01115099515ADDAA101006195AU120020015AU200001015AW1105AW2625GA1075+003665999GA2085+005495999GD13991+0036659GD24991+0054959GE19AGL   +99999+99999GF199999999999003661999999MA1099565098795MW1655OC102115OD149902161130REMMET14301/09/24 19:53:01 METAR KTTN 100053Z 15023G41KT 2 1/2SM RA BR BKN012 OVC018 13/11 A2940 RMK AO2 PK WND 13042/0028 PRESFR SLP951 P0022 T01280111
0342724095147922024011001077+40277-074816FM-16+0065KTTN V0201405N01035004275MN0048285N5+01285+01175999999ADDAA101001731AU120020015AU200001015AW1105AW2625GA1075+004275999GA2085+006105999GD13991+0042759GD24991+0061059GE19AGL   +99999+99999GF199999999999004271999999MA1099465098695MW1655OC101805OD149901801130REMMET13201/09/24 20:07:01 SPECI KTTN 100107Z 14020G35KT 3SM RA BR BKN014 OVC020 13/12 A2937 RMK AO2 PK WND 13035/0104 PRESFR P0007 T01280117
0294724095147922024011001517+40277-074816FM-16+0065KTTN V0201605N01245004575MN0064375N5+01305+01205999999ADDAA101005831AU120020015AU200001015AW1105AW2625GA1085+004575999GD14991+0045759GE19AGL   +99999+99999GF199999999999004571999999MA1099195098425MW1655OC102275OD149902261170REMMET11501/09/24 20:51:01 SPECI KTTN 100151Z 16024G44KT 4SM RA BR OVC015 13/12 A2929 RMK AO2 PK WND 17044/0148 PRESFR P0023
0305724095147922024011001537+40277-074816FM-15+0065KTTN V0201505N01135004575MN0064375N5+01335+01225099125ADDAA101005395AU110020015AU200001015AW1105AW2615GA1085+004575999GD14991+0045759GE19AGL   +99999+99999GF199999999999004571999999MA1099195098425MW1615OC102275OD149902261170REMMET12601/09/24 20:53:01 METAR KTTN 100153Z 15022G44KT 4SM -RA BR OVC015 13/12 A2929 RMK AO2 PK WND 17044/0148 SLP912 P0023 T01330122
0343724095147922024011002097+40277-074816FM-16+0065KTTN V0201605N01135003965MN0080475N5+01395+01225999999ADDAA101001031AU110020015AU200001015AW1105AW2615GA1075+003965999GA2085+006105999GD13991+0039659GD24991+0061059GE19AGL   +99999+99999GF199999999999003961999999MA1099095098325MW1615OC102375OD149902361140REMMET13301/09/24 21:09:01 SPECI KTTN 100209Z 16022G46KT 5SM -RA BR BKN013 OVC020 14/12 A2926 RMK AO2 PK WND 14046/0204 PRESFR P0004 T01390122
