0248724075137352025010100077+39366-075078FM-16+0023KMIV V0301005N00365011585MN0160935N5+01065+00895999999ADDGA1075+011585999GA2085+014335999GD13991+0115859GD24991+0143359GE19AGL   +99999+99999GF199999999999011581999999MA1100175099905REMMET11112/31/24 19:07:03 SPECI KMIV 010007Z 10007KT 10SM BKN038 OVC047 11/09 A2958 RMK AO2 LTG DSNT N AND NW T01060089
0273724075137352025010100467+39366-075078FM-16+0023KMIV V0301305N00315011285MN0160935N5+01115+00945999999ADDAU147000015AW1121GA1025+009145999GA2075+011285999GD11991+0091459GD23991+0112859GE19AGL   +99999+99999GF199999999999009141999999MA1100075099795MV1015REMMET11312/31/24 19:46:03 SPECI KMIV 010046Z 13006KT 10SM VCTS FEW030 BKN037 11/09 A2955 RMK AO2 LTG DSNT ALQDS T01110094
0329724075137352025010100547+39366-075078FM-15+0023KMIV V0301305N00515011895MN0160935N5+01115+00945100065ADDAA101000095AU147000015AW1121GA1025+008535999GA2075+011895999GA3075+015245999GD11991+0085359GD23991+0118959GD33991+0152459GE19AGL   +99999+99999GF199999999999008531999999MA1100075099795MV1015REMMET12712/31/24 19:54:03 METAR KMIV 010054Z 13010KT 10SM VCTS FEW028 BKN039 BKN050 11/09 A2955 RMK AO2 LTG DSNT ALQDS SLP006 T01110094
0245724075137352025010101017+39366-075078FM-16+0023KMIV V0301305N00575011895MN0160935N5+01175+01005999999ADDGA1045+008535999GA2075+011895999GD12991+0085359GD23991+0118959GE19AGL   +99999+99999GF199999999999008531999999MA1100035099765REMMET10812/31/24 20:01:03 SPECI KMIV 010101Z 13011KT 10SM SCT028 BKN039 12/10 A2954 RMK AO2 LTG DSNT ALQDS T01170100
0334724075137352025010101087+39366-075078FM-16+0023KMIV V0301505N00575008235MN0160935N5+01225+01005999999ADDAU147000015AW1121GA1045+005795999GA2075+008235999GA3075+013115999GD12991+0057951GD23991+0082359GD33991+0131159GE19AGL   +99999+99999GF199999999999005791999999MA1100035099765MV1015OC100985REMMET13512/31/24 20:08:03 SPECI KMIV 010108Z 15011G19KT 10SM VCTS SCT019 BKN027 BKN043 12/10 A2954 RMK AO2 LTG DSNT ALQDS CIG 022V035 T01220100
0243724075137352025010101187+39366-075078FM-16+0023KMIV V0309999N999999999999N0064375N5+01225+01065999999ADDAA101001031AU100001015AW1105MA1100245099965OD149901391240REMMET13912/31/24 20:18:03 SPECI KMIV 010118Z      KT 4SM BR 12/11 A2960 RMK AO2 PK WND 24027/0113 LTG DSNT ALQDS RAB12RAEMM P0004 T01220106 PWINO $EQDR01      7SKY009R02      7GAS009
0358724075137352025010101547+39366-075078FM-15+0023KMIV V0302305N00415024385MN0160935N5+01005+00785100145ADDAA101001595AU110020015AW1615GA1025+016765999GA2085+024385999GD11991+0167659GD24991+0243859GE19AGL   +99999+99999GF199999999999016761999999MA1100145099865MW1615OC100885OD149901391240REMMET16512/31/24 20:54:03 METAR KMIV 010154Z 23008G17KT 10SM -RA FEW055 OVC080 10/08 A2957 RMK AO2 PK WND 24027/0113 LTG DSNT NE AND W RAB12RAEMMB24 SLP014 P0005 T01000078 $
0329724075137352025010102547+39366-075078FM-15+0023KMIV V0309999V00155014335MN0160935N5+01065+00785099995ADDAA101001895AA203003391GA1075+014335999GA2085+021345999GD13991+0143359GD24991+0213459GE19AGL   +99999+99999GF199999999999014331999999MA1100005099735MD1690219+9999REMMET13712/31/24 21:54:03 METAR KMIV 010254Z VRB03KT 10SM BKN047 OVC070 11/08 A2953 RMK AO2 LTG DSNT S RAE37 SLP999 P0008 60013 T01060078 56021 $EQDQ01  00338PRCP03
0250724075137352025010103547+39366-075078FM-15+0023KMIV V0302205N00155036585MN0160935N5+00945+00785099945ADDAA101000095GA1045+030485999GA2075+036585999GD12991+0304859GD23991+0365859GE19AGL   +99999+99999GF199999999999030481999999MA1099975099695REMMET10212/31/24 22:54:03 METAR KMIV 010354Z 22003KT 10SM SCT100 BKN120 09/08 A2952 RMK AO2 SLP994 T00940078 $
0222724075137352025010104547+39366-075078FM-15+0023KMIV V0302405N001552200059N0128755N5+00725+00675099875ADDAA101000095GA1005+999999999GD10991+9999999GF100991999999999999999999KA1240M+01441KA2240N-00331MA1099905099635REMMET10112/31/24 23:54:03 METAR KMIV 010454Z 24003KT 8SM CLR 07/07 A2950 RMK AO2 SLP987 T00720067 401441033 $
1001724075137352025010104596+39366-075078SOD  +0023KMIV V030999999999999999999999999999+99999+99999999999ADDAA124004195AT1AU03TS  5AT2AU16RA  5AT3AU13BR  5KA1240M+01445KA2240N-00325KG1024W+0044D4KG2024D+0017D4MF1100644100814MG1100634099864OE11240138624020135OE22240080524020135OE33240025999999995RH1024X097D4RH2024N036D4RH3024M075D4REMSOD73024 HR PRECIPITATION (IN):0.16  24 HR MAX TEMP (F):58 24 HR MAX TEMP TIME (LST):1425 24 HR MIN TEMP (F):26 24 HR MIN TEMP TIME (LST):0713 AVERAGE STATION PRESSURE:29.715 MINIMUM SEA LEVEL PRESSURE:29.49 TIME OF OCCURRENCE:2358 PEAK WIND SPEED (MPH):31  PEAK WIND DIR (DEG):240 PEAK WIND TIME (LST):2013  FASTEST 2MIN SPEED (MPH):18 FASTEST 2MIN DIR (DEG):240 FASTEST 2MIN TIME (LST):2013 AVERAGE WIND SPEED (MPH):5.8  24 HR AVG TEMP (F):42 HEATING DEGREE DAYS:23  COOLING DEGREE DAYS:0   LATEST DAY MAX TEMP (0700-1900 LST):58  LATEST NIGHT MIN TEMP(1900-0800 LST):26 HOURLY INCREMENTAL PRECIPITATION VALUES (IN):.00 0.00 0.00 0.00 0.00 0.00 0.00 0.00 0.00 0.00 0.00 0.00 0.00 0.00 0.00 0.00 0.00 0.01 0.02 0.00 0.06 0.07 0.00 0.00EQDR01     N7GJS072R02     N7GKS075
1247724075137352025010104596+39366-075078SOM  +0023KMIV V030999999999999999999999999999+99999+99999999999ADDAB10075295AD1002959101199999999AAE1155065025015AH1005001591111225AH2010002091111295AH3015002591111325AH4020002893000055AH5030003893000155AH6045005191112015AI1060007191112185AI2080008491112315AI3100008991112525AI4120010291113105AI5150011491113395AI6180012291113395KB1744N-03395KB2744M+08175KB3744A+02395KC1N9-01502399995KC2M9+01722911995KD1744H08805KD2744C00005KE102U00U24U00UMH110196U10227UMK1104741410445099731116055REMSOM799PCP MTOT:2.96 PCP GT 24HRS:1.16 DATE(S):10-11 DAYS W/PCP >=.01:15 DAYS W/PCP >=.10:6  DAYS W/ PCP >=.50:2 DAYS W/PCP >=1.00:1 MSDP AMTS W/DATE-TIME TAGS:MIN:5 0.06  11/1122 MIN:10 0.08  11/1129 MIN:15 0.10  11/1132 MIN:20 0.11  30/0005 MIN:30 0.15  30/0015 MIN:45 0.20  11/1201 MIN:60 0.28  11/1218 MIN:80 0.33  11/1231 MIN:100 0.35  11/1252 MIN:120 0.40  11/1310 MIN:150 0.45  11/1339 MIN:180 0.48  11/1339 AVG DLY MIN:25.9  AVG DLY MAX:46.7  AVG MLY TMP:36.3  MIN TMP:5  DATE(S):23 MAX TMP:63  DATE(S):29 11 DAYS MAX <=32:2 DAYS MAX >=90:0  DAYS MIN <=32:24 DAYS MIN  <=0:0  AVG STP:30.110 LWST SLP:29.45 DATE/TIME:111605 HGST SLP:30.93 DATE/TIME:141044 HDD MTH TOT:880 DEP NORM:-2553 SEASON(JUL 1-JUN 30):1657 DEP NORM:-25536 CDD MTH TOT:0 DEP NORM:-2553 SEASON(JAN 1-DEC 31):1197 DEP NORM:-25536EQDR01  1.167ADP081
0192724075137352025010105377+39366-075078FM-16+0023KMIV V0202605N003152200059N0028165N5+00505+00445999999ADDAU100001015AW1105GA1005+999999999GD10991+9999999GF100991999999999999999999MA1099935099665REMMET09101/01/25 00:37:02 SPECI KMIV 010537Z 26006KT 1 3/4SM BR CLR 05/04 A2951 RMK AO2 T00500044 $
0178724075137352025010105487+39366-075078FM-16+0023KMIV V0202305N001552200059N0048285N5+00705+00605999999ADDAU100001015AW1105GA1005+999999999GD10991+9999999GF100991999999999999999999MA1099975099695REMMET07701/01/25 00:48:02 SPECI KMIV 010548Z 23003KT 3SM BR CLR 07/06 A2952 RMK AO2 $
0140724075137352025010105526+39366-075078FM-16+0023KMIV V0202205N001552200059N0144845N5+00705+00605999999ADDGA1025+002745999GD11991+0027459MA1100005099735REMMET08201/01/25 00:52:02 SPECI KMIV 010552Z 22003KT 9SM FEW009 07/06 A2953 RMK AO2 $ FIBI
0306724075137352025010105547+39366-075078FM-15+0023KMIV V0202105N002152200059N0160935N5+00675+00615099985ADDAA101000095AA206003391GA1025+002745999GD11991+0027459GE19AGL   +99999+99999GF102995999999002741999999KA1060M+01221KA2060N+00501MA1100005099735MD1590019+9999REMMET11901/01/25 00:54:02 METAR KMIV 010554Z 21004KT 10SM FEW009 07/06 A2953 RMK AO2 SLP998 60013 T00670061 10122 20050 55001 $EQDD01      0ADE726
0206724075137352025010106067+39366-075078FM-16+0023KMIV V0209999V00215002135MN0160935N5+00725+00675999999ADDGA1075+002135999GD13991+0021351GE19AGL   +99999+99999GF199999999999002131999999MA1100005099735REMMET10001/01/25 01:06:02 SPECI KMIV 010606Z VRB04KT 10SM BKN007 07/07 A2953 RMK AO2 CIG 005V009 T00720067 $
0141724075137352025010106526+39366-075078FM-16+0023KMIV V0202805N00365001225MN0160935N5+00705+00705999999ADDGA1085+001225999GD14991+0012259MA1100005099735REMMET08301/01/25 01:52:02 SPECI KMIV 010652Z 28007KT 10SM OVC004 07/07 A2953 RMK AO2 $ FIBI
0211724075137352025010106547+39366-075078FM-15+0023KMIV V0202805N00365001225MN0144845N5+00785+00725100005ADDAA101000095GA1085+001225999GD14991+0012259GE19AGL   +99999+99999GF199999999999001221999999MA1100005099735REMMET09401/01/25 01:54:02 METAR KMIV 010654Z 28007KT 9SM OVC004 08/07 A2953 RMK AO2 SLP000 T00780072 $
0231724075137352025010107547+39366-075078FM-15+0023KMIV V0202605N00265000615MN0048285N5+00785+00725100055ADDAA101000095AU100001015AW1105GA1085+000615999GD14991+0006159GE19AGL   +99999+99999GF199999999999000611999999MA1100075099795REMMET09701/01/25 02:54:02 METAR KMIV 010754Z 26005KT 3SM BR OVC002 08/07 A2955 RMK AO2 SLP005 T00780072 $
0213724075137352025010108077+39366-075078FM-16+0023KMIV V0202505N00265000615MN0032195N5+00785+00725999999ADDAU100001015AW1105GA1085+000615999GD14991+0006159GE19AGL   +99999+99999GF199999999999000611999999MA1100075099795REMMET09001/01/25 03:07:02 SPECI KMIV 010807Z 25005KT 2SM BR OVC002 08/07 A2955 RMK AO2 T00780072 $
0213724075137352025010108227+39366-075078FM-16+0023KMIV V0202605N00365000615MN0064375N5+00725+00675999999ADDAU100001015AW1105GA1085+000615999GD14991+0006159GE19AGL   +99999+99999GF199999999999000611999999MA1100075099795REMMET09001/01/25 03:22:02 SPECI KMIV 010822Z 26007KT 4SM BR OVC002 07/07 A2955 RMK AO2 T00720067 $
0251724075137352025010108547+39366-075078FM-15+0023KMIV V0202605N00365000915MN0096565N5+00725+00675100065ADDAA101000095AU100001015AW1105GA1085+000915999GD14991+0009159GE19AGL   +99999+99999GF199999999999000911999999MA1100075099795MD1190089+9999REMMET10301/01/25 03:54:02 METAR KMIV 010854Z 26007KT 6SM BR OVC003 07/07 A2955 RMK AO2 SLP006 T00720067 51008 $
0269724075137352025010109467+39366-075078FM-16+0023KMIV V0202505N00215033535MN0112655N5+00725+00615999999ADDGA1045+000915999GA2045+018295999GA3085+033535999GD12991+0009159GD22991+0182959GD34991+0335359GE19AGL   +99999+99999GF199999999999000911999999MA1100105099835REMMET10101/01/25 04:46:02 SPECI KMIV 010946Z 25004KT 7SM SCT003 SCT060 OVC110 07/06 A2956 RMK AO2 T00720061 $
0287724075137352025010109547+39366-075078FM-15+0023KMIV V0202405N00215018295MN0112655N5+00725+00675100085ADDAA101000095GA1025+000915999GA2075+018295999GA3085+033535999GD11991+0009159GD23991+0182959GD34991+0335359GE19AGL   +99999+99999GF199999999999000911999999MA1100105099835REMMET10801/01/25 04:54:02 METAR KMIV 010954Z 24004KT 7SM FEW003 BKN060 OVC110 07/07 A2956 RMK AO2 SLP008 T00720067 $
0249724075137352025010110547+39366-075078FM-15+0023KMIV V0202405N00265024385MN0144845N5+00725+00675100115ADDAA101000095GA1075+024385999GA2085+033535999GD13991+0243859GD24991+0335359GE19AGL   +99999+99999GF199999999999024381999999MA1100145099865REMMET10101/01/25 05:54:02 METAR KMIV 011054Z 24005KT 9SM BKN080 OVC110 07/07 A2957 RMK AO2 SLP011 T00720067 $
0287724075137352025010111547+39366-075078FM-15+0023KMIV V0202505N00315036585MN0160935N5+00725+00615100145ADDAA101000095AA224004191GA1075+036585999GD13991+0365859GE19AGL   +99999+99999GF199999999999036581999999KA1060M+00781KA2060N+00611MA1100175099905MD1390079+9999REMMET11901/01/25 06:54:02 METAR KMIV 011154Z 25006KT 10SM BKN120 07/06 A2958 RMK AO2 SLP014 70016 T00720061 10078 20061 53007 $
0288724075137352025010112547+39366-075078FM-15+0023KMIV V0202605N00515025915MN0160935N5+00725+00445100205ADDAA101000095GA1025+018295999GA2075+025915999GA3085+030485999GD11991+0182959GD23991+0259159GD34991+0304859GE19AGL   +99999+99999GF199999999999018291999999MA1100205099935REMMET10901/01/25 07:54:02 METAR KMIV 011254Z 26010KT 10SM FEW060 BKN085 OVC100 07/04 A2959 RMK AO2 SLP020 T00720044 $
0216724075137352025010113547+39366-075078FM-15+0023KMIV V0202705N007752200059N0160935N5+00835+00285100305ADDAA101000095GA1005+999999999GD10991+9999999GF100991999999999999999999MA1100305100035OC101395REMMET11301/01/25 08:54:02 METAR KMIV 011354Z 27015G27KT 10SM CLR 08/03 A2962 RMK AO2 PK WND 26027/1348 SLP030 T00830028 $
0294724075137352025010114547+39366-075078FM-15+0023KMIV V0202805N006752200059N0160935N5+00945+00175100385ADDAA101000095GA1025+021345999GD11991+0213459GE19AGL   +99999+99999GF102995999999021341999999MA1100415100135MD1390249+9999OC101605OD149901591270REMMET12201/01/25 09:54:02 METAR KMIV 011454Z 28013G31KT 10SM FEW070 09/02 A2965 RMK AO2 PK WND 27031/1445 SLP038 T00940017 53024 $EQDD01      0ADE726
0255724075137352025010115547+39366-075078FM-15+0023KMIV V0202805N00935012195MN0160935N5+00945+00005100425ADDAA101000095GA1075+012195999GD13991+0121959GE19AGL   +99999+99999GF199999999999012191999999MA1100445100175OC101495OD149901691270REMMET11601/01/25 10:54:02 METAR KMIV 011554Z 28018G29KT 10SM BKN040 09/00 A2966 RMK AO2 PK WND 27033/1503 SLP042 T00940000 $
0256724075137352025010116547+39366-075078FM-15+0023KMIV V0202805N00985012805MN0160935N5+00945-00065100415ADDAA101000095GA1085+012805999GD14991+0128059GE19AGL   +99999+99999GF199999999999012801999999MA1100445100175OC101545OD149901691300REMMET11701/01/25 11:54:02 METAR KMIV 011654Z 28019G30KT 10SM OVC042 09/M01 A2966 RMK AO2 PK WND 30033/1600 SLP041 T00941006 $
0314724075137352025010117547+39366-075078FM-15+0023KMIV V0202805N01245013725MN0160935N5+00945-00175100445ADDAA101000095GA1085+013725999GD14991+0137259GE19AGL   +99999+99999GF199999999999013721999999KA1060M+01061KA2060N+00721MA1100475100205MD1190079+9999OC101855OD149901851300REMMET13501/01/25 12:54:02 METAR KMIV 011754Z 28024G36KT 10SM OVC045 09/M02 A2967 RMK AO2 PK WND 30036/1727 SLP044 T00941017 10106 20072 51007 $
0275724075137352025010118547+39366-075078FM-15+0023KMIV V0202905N011352200059N0160935N5+01065-00175100495ADDAA101000095GA1045+014335999GD12991+0143359GE19AGL   +99999+99999GF104995999999014331999999MA1100515100235OC101905OD149901951300REMMET11701/01/25 13:54:02 METAR KMIV 011854Z 29022G37KT 10SM SCT047 11/M02 A2968 RMK AO2 PK WND 30038/1823 SLP049 T01061017 $EQDD01      0ADE726
0256724075137352025010119547+39366-075078FM-15+0023KMIV V0203005N01185015245MN0160935N5+00895-00335100645ADDAA101000095GA1075+015245999GD13991+0152459GE19AGL   +99999+99999GF199999999999015241999999MA1100645100375OC102115OD149902111290REMMET11701/01/25 14:54:02 METAR KMIV 011954Z 30023G41KT 10SM BKN050 09/M03 A2972 RMK AO2 PK WND 29041/1923 SLP064 T00891033 $
0276724075137352025010120547+39366-075078FM-15+0023KMIV V0202905N00935016765MN0160935N5+00835-00285100785ADDAA101000095GA1075+016765999GD13991+0167659GE19AGL   +99999+99999GF199999999999016761999999MA1100785100505MD1390339+9999OC101605OD149902001310REMMET12301/01/25 15:54:02 METAR KMIV 012054Z 29018G31KT 10SM BKN055 08/M03 A2976 RMK AO2 PK WND 31039/1955 SLP078 T00831028 53033 $
0256724075137352025010121547+39366-075078FM-15+0023KMIV V0202905N00775016765MN0160935N5+00725-00445100865ADDAA101000095GA1085+016765999GD14991+0167659GE19AGL   +99999+99999GF199999999999016761999999MA1100885100615OC101705OD149902001260REMMET11701/01/25 16:54:02 METAR KMIV 012154Z 29015G33KT 10SM OVC055 07/M04 A2979 RMK AO2 PK WND 26039/2138 SLP086 T00721044 $
0217724075137352025010122547+39366-075078FM-15+0023KMIV V0202805N008252200059N0160935N5+00615-00395100945ADDAA101000095GA1005+999999999GD10991+9999999GF100991999999999999999999MA1100955100675OC101245REMMET11401/01/25 17:54:02 METAR KMIV 012254Z 28016G24KT 10SM CLR 06/M04 A2981 RMK AO2 PK WND 29037/2223 SLP094 T00611039 $
0275724075137352025010123547+39366-075078FM-15+0023KMIV V0202805N008252200059N0160935N5+00565-00395101045ADDAA101000095GA1005+999999999GD10991+9999999GF100991999999999999999999KA1060M+01111KA2060N+00501MA1101055100775MD1390269+9999OC101295REMMET13201/01/25 18:54:02 METAR KMIV 012354Z 28016G25KT 10SM CLR 06/M04 A2984 RMK AO2 PK WND 29027/2339 SLP104 T00561039 10111 20050 53026 $
0220724075137352025010200547+39366-075078FM-15+0023KMIV V0202705N007752200059N0160935N5+00505-00395101135ADDAA101000095GA1005+999999999GD10991+9999999GF100991999999999999999999MA1101155100885OD149901331270REMMET11101/01/25 19:54:01 METAR KMIV 020054Z 27015KT 10SM CLR 05/M04 A2987 RMK AO2 PK WND 27026/0007 SLP113 T00501039 $
0188724075137352025010201547+39366-075078FM-15+0023KMIV V0202705N006252200059N0160935N5+00395-00445101185ADDAA101000095GA1005+999999999GD10991+9999999GF100991999999999999999999MA1101195100915REMMET09301/01/25 20:54:01 METAR KMIV 020154Z 27012KT 10SM CLR 04/M04 A2988 RMK AO2 SLP118 T00391044 $
0219724075137352025010202547+39366-075078FM-15+0023KMIV V0202705N006752200059N0160935N5+00445-00505101225ADDAA101000095GA1005+999999999GD10991+9999999GF100991999999999999999999MA1101225100945MD1190189+9999OC100985REMMET10201/01/25 21:54:01 METAR KMIV 020254Z 27013G19KT 10SM CLR 04/M05 A2989 RMK AO2 SLP122 T00441050 51018 $
0188724075137352025010203547+39366-075078FM-15+0023KMIV V0202605N005152200059N0160935N5+00335-00445101255ADDAA101000095GA1005+999999999GD10991+9999999GF100991999999999999999999MA1101255100985REMMET09301/01/25 22:54:02 METAR KMIV 020354Z 26010KT 10SM CLR 03/M04 A2990 RMK AO2 SLP125 T00331044 $
0224724075137352025010204547+39366-075078FM-15+0023KMIV V0202705N005752200059N0160935N5+00335-00335101295ADDAA101000095GA1005+999999999GD10991+9999999GF100991999999999999999999KA1240M+01111KA2240N+00331MA1101295101015REMMET10301/01/25 23:54:02 METAR KMIV 020454Z 27011KT 10SM CLR 03/M03 A2991 RMK AO2 SLP129 T00331033 401110033 $
0898724075137352025010204596+39366-075078SOD  +0023KMIV V020999999999999999999999999999+99999+99999999999ADDAA124000095AT1AU13BR  5KA1240M+01115KA2240N+00335MG1100124099904OE11240210129014235OE22240143130014565OE33240066299999995REMSOD73024 HR PRECIPITATION (IN):0.00  24 HR MAX TEMP (F):52 24 HR MAX TEMP TIME (LST):1404 24 HR MIN TEMP (F):38 24 HR MIN TEMP TIME (LST):2359 AVERAGE STATION PRESSURE:29.565 MINIMUM SEA LEVEL PRESSURE:29.50 TIME OF OCCURRENCE:0040 PEAK WIND SPEED (MPH):47  PEAK WIND DIR (DEG):290 PEAK WIND TIME (LST):1423  FASTEST 2MIN SPEED (MPH):32 FASTEST 2MIN DIR (DEG):300 FASTEST 2MIN TIME (LST):1456 AVERAGE WIND SPEED (MPH):14.8 24 HR AVG TEMP (F):45 HEATING DEGREE DAYS:20  COOLING DEGREE DAYS:0   LATEST DAY MAX TEMP (0700-1900 LST):52  LATEST NIGHT MIN TEMP(1900-0800 LST):41 HOURLY INCREMENTAL PRECIPITATION VALUES (IN):.00 0.00 0.00 0.00 0.00 0.00 0.00 0.00 0.00 0.00 0.00 0.00 0.00 0.00 0.00 0.00 0.00 0.00 0.00 0.00 0.00 0.00 0.00 0.00EQDR01     N7GJS072R02     N7GKS075
0275724075137352025010205547+39366-075078FM-15+0023KMIV V0202805N008852200059N0160935N5+00395-00395101325ADDAA101000095GA1005+999999999GD10991+9999999GF100991999999999999999999KA1060M+00561KA2060N+00281MA1101325101045MD1390099+9999OC101395REMMET13201/02/25 00:54:02 METAR KMIV 020554Z 28017G27KT 10SM CLR 04/M04 A2992 RMK AO2 PK WND 26027/0550 SLP132 T00391039 10056 20028 53009 $
0217724075137352025010206547+39366-075078FM-15+0023KMIV V0202805N007252200059N0160935N5+00335-00505101405ADDAA101000095GA1005+999999999GD10991+9999999GF100991999999999999999999MA1101425101155OC101345REMMET11401/02/25 01:54:02 METAR KMIV 020654Z 28014G26KT 10SM CLR 03/M05 A2995 RMK AO2 PK WND 26026/0651 SLP140 T00331050 $
0275724075137352025010207547+39366-075078FM-15+0023KMIV V0202705N007252200059N0160935N5+00225-00675101525ADDAA101000095GA1025+015245999GD11991+0152459GE19AGL   +99999+99999GF102995999999015241999999MA1101525101255OC101295OD149901391270REMMET11701/02/25 02:54:02 METAR KMIV 020754Z 27014G25KT 10SM FEW050 02/M07 A2998 RMK AO2 PK WND 27027/0659 SLP152 T00221067 $EQDD01      0ADE726
0237724075137352025010208547+39366-075078FM-15+0023KMIV V0202905N006752200059N0160935N5+00175-00785101555ADDAA101000095GA1005+999999999GD10991+9999999GF100991999999999999999999MA1101565101285MD1190239+9999OC101135REMMET12001/02/25 03:54:02 METAR KMIV 020854Z 29013G22KT 10SM CLR 02/M08 A2999 RMK AO2 PK WND 30030/0818 SLP155 T00171078 51023 $
0224724075137352025010209547+39366-075078FM-15+0023KMIV V0202705N00575015245MN0160935N5+00225-00785101615ADDAA101000095GA1085+015245999GD14991+0152459GE19AGL   +99999+99999GF199999999999015241999999MA1101635101355OC101245REMMET09901/02/25 04:54:02 METAR KMIV 020954Z 27011G24KT 10SM OVC050 02/M08 A3001 RMK AO2 SLP161 T00221078 $
0243724075137352025010210547+39366-075078FM-15+0023KMIV V0202805N004652200059N0160935N5+00115-00835101625ADDAA101000095GA1025+014945999GD11991+0149459GE19AGL   +99999+99999GF102995999999014941999999MA1101635101355OC100935REMMET09901/02/25 05:54:02 METAR KMIV 021054Z 28009G18KT 10SM FEW049 01/M08 A3001 RMK AO2 SLP162 T00111083 $EQDD01      0ADE726
0244724075137352025010211547+39366-075078FM-15+0023KMIV V0202705N003652200059N0160935N5+00005-00785101695ADDAA101000095GA1005+999999999GD10991+9999999GF100991999999999999999999KA1060M+00391KA2060N+00001MA1101695101425MD1390159+9999REMMET10901/02/25 06:54:02 METAR KMIV 021154Z 27007KT 10SM CLR 00/M08 A3003 RMK AO2 SLP169 T00001078 10039 20000 53015
0186724075137352025010212547+39366-075078FM-15+0023KMIV V0202805N004652200059N0160935N5+00065-00785101755ADDAA101000095GA1005+999999999GD10991+9999999GF100991999999999999999999MA1101765101485REMMET09101/02/25 07:54:02 METAR KMIV 021254Z 28009KT 10SM CLR 01/M08 A3005 RMK AO2 SLP175 T00061078
0197724075137352025010213547+39366-075078FM-15+0023KMIV V0202805N007252200059N0160935N5+00285-00785101825ADDAA101000095GA1005+999999999GD10991+9999999GF100991999999999999999999MA1101835101555OC101295REMMET09401/02/25 08:54:02 METAR KMIV 021354Z 28014G25KT 10SM CLR 03/M08 A3007 RMK AO2 SLP182 T00281078
0235724075137352025010214547+39366-075078FM-15+0023KMIV V0202805N010352200059N0160935N5+00395-00785101915ADDAA101000095GA1005+999999999GD10991+9999999GF100991999999999999999999MA1101935101655MD1390229+9999OC101605REMMET11801/02/25 09:54:02 METAR KMIV 021454Z 28020G31KT 10SM CLR 04/M08 A3010 RMK AO2 PK WND 29033/1443 SLP191 T00391078 53022
0215724075137352025010215547+39366-075078FM-15+0023KMIV V0202905N008852200059N0160935N5+00505-00785101925ADDAA101000095GA1005+999999999GD10991+9999999GF100991999999999999999999MA1101935101655OC101395REMMET11201/02/25 10:54:02 METAR KMIV 021554Z 29017G27KT 10SM CLR 05/M08 A3010 RMK AO2 PK WND 27035/1455 SLP192 T00501078
0273724075137352025010216547+39366-075078FM-15+0023KMIV V0202905N009852200059N0160935N5+00505-00785101815ADDAA101000095GA1025+015245999GD11991+0152459GE19AGL   +99999+99999GF102995999999015241999999MA1101835101555OC101605OD149901591310REMMET11501/02/25 11:54:02 METAR KMIV 021654Z 29019G31KT 10SM FEW050 05/M08 A3007 RMK AO2 PK WND 31031/1605 SLP181 T00501078EQDD01      0ADE726
0331724075137352025010217547+39366-075078FM-15+0023KMIV V0202805N008252200059N0160935N5+00505-00895101765ADDAA101000095GA1045+015245999GD12991+0152459GE19AGL   +99999+99999GF104995999999015241999999KA1060M+00561KA2060N-00061MA1101765101485MD1890159+9999OC101605OD149901591270REMMET13301/02/25 12:54:02 METAR KMIV 021754Z 28016G31KT 10SM SCT050 05/M09 A3005 RMK AO2 PK WND 27031/1718 SLP176 T00501089 10056 21006 58015EQDD01      0ADE726
0254724075137352025010218547+39366-075078FM-15+0023KMIV V0202805N00935016765MN0160935N5+00565-00895101725ADDAA101000095GA1075+016765999GD13991+0167659GE19AGL   +99999+99999GF199999999999016761999999MA1101735101455OC101855OD149901851270REMMET11501/02/25 13:54:02 METAR KMIV 021854Z 28018G36KT 10SM BKN055 06/M09 A3004 RMK AO2 PK WND 27036/1847 SLP172 T00561089
0215724075137352025010219547+39366-075078FM-15+0023KMIV V0202705N008852200059N0160935N5+00445-00945101745ADDAA101000095GA1005+999999999GD10991+9999999GF100991999999999999999999MA1101765101485OC101345REMMET11201/02/25 14:54:02 METAR KMIV 021954Z 27017G26KT 10SM CLR 04/M09 A3005 RMK AO2 PK WND 29032/1927 SLP174 T00441094
0235724075137352025010220547+39366-075078FM-15+0023KMIV V0202805N008252200059N0160935N5+00335-00835101805ADDAA101000095GA1005+999999999GD10991+9999999GF100991999999999999999999MA1101795101525MD1390049+9999OC101395REMMET11801/02/25 15:54:02 METAR KMIV 022054Z 28016G27KT 10SM CLR 03/M08 A3006 RMK AO2 PK WND 27031/2004 SLP180 T00331083 53004
0273724075137352025010221547+39366-075078FM-15+0023KMIV V0202805N005752200059N0160935N5+00225-00945101855ADDAA101000095GA1025+015245999GD11991+0152459GE19AGL   +99999+99999GF102995999999015241999999MA1101865101595OC101245OD149901391300REMMET11501/02/25 16:54:02 METAR KMIV 022154Z 28011G24KT 10SM FEW050 02/M09 A3008 RMK AO2 PK WND 30027/2119 SLP185 T00221094EQDD01      0ADE726
0215724075137352025010222547+39366-075078FM-15+0023KMIV V0202905N006252200059N0160935N5+00175-01005101905ADDAA101000095GA1005+999999999GD10991+9999999GF100991999999999999999999MA1101905101625OC101295REMMET11201/02/25 17:54:02 METAR KMIV 022254Z 29012G25KT 10SM CLR 02/M10 A3009 RMK AO2 PK WND 29026/2229 SLP190 T00171100
0299724075137352025010223547+39366-075078FM-15+0023KMIV V0202705N005152200059N0160935N5+00065-00895101935ADDAA101000095GA1025+016765999GD11991+0167659GE19AGL   +99999+99999GF102995999999016761999999KA1060M+00611KA2060N+00061MA1101935101655MD1190139+9999OC100825REMMET11501/02/25 18:54:02 METAR KMIV 022354Z 27010G16KT 10SM FEW055 01/M09 A3010 RMK AO2 SLP193 T00061089 10061 20006 51013EQDD01      0ADE726
0211724075137352025010300547+39366-075078FM-15+0023KMIV V0202705N00465016765MN0160935N5+00115-00725101955ADDAA101000095GA1075+016765999GD13991+0167659GE19AGL   +99999+99999GF199999999999016761999999MA1101965101695REMMET09401/02/25 19:54:01 METAR KMIV 030054Z 27009KT 10SM BKN055 01/M07 A3011 RMK AO2 SLP195 T00111072
0211724075137352025010301547+39366-075078FM-15+0023KMIV V0202905N00415018295MN0160935N5+00115-00725101925ADDAA101000095GA1085+018295999GD14991+0182959GE19AGL   +99999+99999GF199999999999018291999999MA1101935101655REMMET09401/02/25 20:54:01 METAR KMIV 030154Z 29008KT 10SM OVC060 01/M07 A3010 RMK AO2 SLP192 T00111072
0231724075137352025010302547+39366-075078FM-15+0023KMIV V0203005N00265016765MN0160935N5+00115-00725101905ADDAA101000095GA1085+016765999GD14991+0167659GE19AGL   +99999+99999GF199999999999016761999999MA1101905101625MD1890039+9999REMMET10001/02/25 21:54:01 METAR KMIV 030254Z 30005KT 10SM OVC055 01/M07 A3009 RMK AO2 SLP190 T00111072 58003
0211724075137352025010303547+39366-075078FM-15+0023KMIV V0202805N00365018295MN0160935N5+00005-00725101895ADDAA101000095GA1075+018295999GD13991+0182959GE19AGL   +99999+99999GF199999999999018291999999MA1101905101625REMMET09401/02/25 22:54:02 METAR KMIV 030354Z 28007KT 10SM BKN060 00/M07 A3009 RMK AO2 SLP189 T00001072
0266724075137352025010304547+39366-075078FM-15+0023KMIV V0202805N003652200059N0160935N5+00065-00785101885ADDAA101000095GA1025+018295999GD11991+0182959GE19AGL   +99999+99999GF102995999999018291999999KA1240M+00611KA2240N-00061MA1101905101625REMMET10401/02/25 23:54:02 METAR KMIV 030454Z 28007KT 10SM FEW060 01/M08 A3009 RMK AO2 SLP188 T00061078 400611006EQDD01      0ADE726
0886724075137352025010304596+39366-075078SOD  +0023KMIV V020999999999999999999999999999+99999+99999999999ADDAA124000095KA1240M+00615KA2240N-00055MG1101374101294OE11240183327013475OE22240125230010005OE33240064499999995REMSOD73024 HR PRECIPITATION (IN):0.00  24 HR MAX TEMP (F):43 24 HR MAX TEMP TIME (LST):1339 24 HR MIN TEMP (F):31 24 HR MIN TEMP TIME (LST):2332 AVERAGE STATION PRESSURE:29.935 MINIMUM SEA LEVEL PRESSURE:29.91 TIME OF OCCURRENCE:0018 PEAK WIND SPEED (MPH):41  PEAK WIND DIR (DEG):270 PEAK WIND TIME (LST):1347  FASTEST 2MIN SPEED (MPH):28 FASTEST 2MIN DIR (DEG):300 FASTEST 2MIN TIME (LST):1000 AVERAGE WIND SPEED (MPH):14.4 24 HR AVG TEMP (F):37 HEATING DEGREE DAYS:28  COOLING DEGREE DAYS:0   LATEST DAY MAX TEMP (0700-1900 LST):43  LATEST NIGHT MIN TEMP(1900-0800 LST):31 HOURLY INCREMENTAL PRECIPITATION VALUES (IN):.00 0.00 0.00 0.00 0.00 0.00 0.00 0.00 0.00 0.00 0.00 0.00 0.00 0.00 0.00 0.00 0.00 0.00 0.00 0.00 0.00 0.00 0.00 0.00EQDR01     N7GJS072R02     N7GKS075
0269724075137352025010305547+39366-075078FM-15+0023KMIV V0202805N00465016765MN0160935N5+00065-00725101865ADDAA101000095GA1085+016765999GD14991+0167659GE19AGL   +99999+99999GF199999999999016761999999KA1060M+00171KA2060N-00061MA1101865101595MD1890049+9999REMMET11201/03/25 00:54:02 METAR KMIV 030554Z 28009KT 10SM OVC055 01/M07 A3008 RMK AO2 SLP186 T00061072 10017 21006 58004
0211724075137352025010306547+39366-075078FM-15+0023KMIV V0202905N00315016765MN0160935N5+00065-00725101885ADDAA101000095GA1085+016765999GD14991+0167659GE19AGL   +99999+99999GF199999999999016761999999MA1101905101625REMMET09401/03/25 01:54:02 METAR KMIV 030654Z 29006KT 10SM OVC055 01/M07 A3009 RMK AO2 SLP188 T00061072
0241724075137352025010307547+39366-075078FM-15+0023KMIV V0203005N005752200059N0160935N5+00065-00785101915ADDAA101000095GA1045+015245999GD12991+0152459GE19AGL   +99999+99999GF104995999999015241999999MA1101935101655OC100885REMMET09701/03/25 02:54:02 METAR KMIV 030754Z 30011G17KT 10SM SCT050 01/M08 A3010 RMK AO2 SLP191 T00061078EQDD01      0ADE726
0207724075137352025010308547+39366-075078FM-15+0023KMIV V0202905N004152200059N0160935N5-00065-00945101895ADDAA101000095GA1005+999999999GD10991+9999999GF100991999999999999999999MA1101905101625MD1090029+9999REMMET09801/03/25 03:54:02 METAR KMIV 030854Z 29008KT 10SM CLR M01/M09 A3009 RMK AO2 SLP189 T10061094 50002
0187724075137352025010309547+39366-075078FM-15+0023KMIV V0202905N004652200059N0160935N5-00115-00945101875ADDAA101000095GA1005+999999999GD10991+9999999GF100991999999999999999999MA1101865101595REMMET09201/03/25 04:54:02 METAR KMIV 030954Z 29009KT 10SM CLR M01/M09 A3008 RMK AO2 SLP187 T10111094
0187724075137352025010310547+39366-075078FM-15+0023KMIV V0202805N003652200059N0160935N5-00175-01005101835ADDAA101000095GA1005+999999999GD10991+9999999GF100991999999999999999999MA1101835101555REMMET09201/03/25 05:54:02 METAR KMIV 031054Z 28007KT 10SM CLR M02/M10 A3007 RMK AO2 SLP183 T10171100
0245724075137352025010311547+39366-075078FM-15+0023KMIV V0202505N003152200059N0160935N5-00285-00945101845ADDAA101000095GA1005+999999999GD10991+9999999GF100991999999999999999999KA1060M+00111KA2060N-00281MA1101835101555MD1590059+9999REMMET11001/03/25 06:54:02 METAR KMIV 031154Z 25006KT 10SM CLR M03/M09 A3007 RMK AO2 SLP184 T10281094 10011 21028 55005
0187724075137352025010312547+39366-075078FM-15+0023KMIV V0202605N003152200059N0160935N5-00175-00895101765ADDAA101000095GA1005+999999999GD10991+9999999GF100991999999999999999999MA1101765101485REMMET09201/03/25 07:54:02 METAR KMIV 031254Z 26006KT 10SM CLR M02/M09 A3005 RMK AO2 SLP176 T10171089
0197724075137352025010313547+39366-075078FM-15+0023KMIV V0202605N004652200059N0160935N5+00065-00945101775ADDAA101000095GA1005+999999999GD10991+9999999GF100991999999999999999999MA1101795101525OC100725REMMET09401/03/25 08:54:02 METAR KMIV 031354Z 26009G14KT 10SM CLR 01/M09 A3006 RMK AO2 SLP177 T00061094
0242724075137352025010314547+39366-075078FM-15+0023KMIV V0202505N00415033535MN0160935N5+00065-00945101725ADDAA101000095GA1075+033535999GD13991+0335359GE19AGL   +99999+99999GF199999999999033531999999MA1101735101455MD1690119+9999OC100885REMMET10301/03/25 09:54:02 METAR KMIV 031454Z 25008G17KT 10SM BKN110 01/M09 A3004 RMK AO2 SLP172 T00061094 56011
0222724075137352025010315547+39366-075078FM-15+0023KMIV V0202705N00515030485MN0160935N5+00115-00835101625ADDAA101000095GA1075+030485999GD13991+0304859GE19AGL   +99999+99999GF199999999999030481999999MA1101635101355OC100885REMMET09701/03/25 10:54:02 METAR KMIV 031554Z 27010G17KT 10SM BKN100 01/M08 A3001 RMK AO2 SLP162 T00111083
0218724075137352025010316547+39366-075078FM-15+0023KMIV V0202605N00315027435MN0160935N5+00175-00835101385ADDAA101000095GA1075+027435999GD13991+0274359GE19AGL   +99999+99999GF199999999999027431999999MA1101395101115REMMET10101/03/25 11:54:02 METAR KMIV 031654Z 26006KT 10SM BKN090 02/M08 A2994 RMK AO2 PRESFR SLP138 T00171083
0307724075137352025010317547+39366-075078FM-15+0023KMIV V0202705N00265018295MN0160935N5+00225-00785101215ADDAA101000095GA1075+018295999GA2085+021345999GD13991+0182959GD24991+0213459GE19AGL   +99999+99999GF199999999999018291999999KA1060M+00221KA2060N-00281MA1101225100945MD1890519+9999REMMET11901/03/25 12:54:02 METAR KMIV 031754Z 27005KT 10SM BKN060 OVC070 02/M08 A2989 RMK AO2 SLP121 T00221078 10022 21028 58051
0211724075137352025010318547+39366-075078FM-15+0023KMIV V0209999V00155019815MN0160935N5+00225-00725101085ADDAA101000095GA1085+019815999GD14991+0198159GE19AGL   +99999+99999GF199999999999019811999999MA1101085100815REMMET09401/03/25 13:54:02 METAR KMIV 031854Z VRB03KT 10SM OVC065 02/M07 A2985 RMK AO2 SLP108 T00221072
0211724075137352025010319547+39366-075078FM-15+0023KMIV V0209999V00265021345MN0160935N5+00285-00615101025ADDAA101000095GA1085+021345999GD14991+0213459GE19AGL   +99999+99999GF199999999999021341999999MA1101025100745REMMET09401/03/25 14:54:02 METAR KMIV 031954Z VRB05KT 10SM OVC070 03/M06 A2983 RMK AO2 SLP102 T00281061
0231724075137352025010320547+39366-075078FM-15+0023KMIV V0209999C00005018295MN0160935N5+00335-00615100985ADDAA101000095GA1085+018295999GD14991+0182959GE19AGL   +99999+99999GF199999999999018291999999MA1100985100715MD1690239+9999REMMET10001/03/25 15:54:02 METAR KMIV 032054Z 00000KT 10SM OVC060 03/M06 A2982 RMK AO2 SLP098 T00331061 56023
0325724075137352025010321547+39366-075078FM-15+0023KMIV V0202905N00315009145MN0112655N5+00225-00285101005ADDAA101000025AU110030015AW1715GA1045+007625999GA2075+009145999GA3085+010975999GD12991+0076259GD23991+0091459GD34991+0109759GE19AGL   +99999+99999GF199999999999007621999999MA1101025100745MW1715REMMET12301/03/25 16:54:02 METAR KMIV 032154Z 29006KT 7SM -SN SCT025 BKN030 OVC036 02/M03 A2983 RMK AO2 SNB50 SLP100 P0000 T00221028
0274724075137352025010322047+39366-075078FM-16+0023KMIV V0202905N00315006715MN0080475N5+00175-00225999999ADDAA101000021AU110030015AW1715GA1075+006715999GA2085+008535999GD13991+0067159GD24991+0085359GE19AGL   +99999+99999GF199999999999006711999999MA1101025100745MW1715REMMET10301/03/25 17:04:02 SPECI KMIV 032204Z 29006KT 5SM -SN BKN022 OVC028 02/M02 A2983 RMK AO2 P0000 T00171022
0274724075137352025010322237+39366-075078FM-16+0023KMIV V0203405N00215009455MN0128755N5+00115-00115999999ADDAA101000021AU110030015AW1715GA1025+006715999GA2085+009455999GD11991+0067159GD24991+0094559GE19AGL   +99999+99999GF199999999999006711999999MA1101025100745MW1715REMMET10301/03/25 17:23:02 SPECI KMIV 032223Z 34004KT 8SM -SN FEW022 OVC031 01/M01 A2983 RMK AO2 P0000 T00111011
0256724075137352025010322317+39366-075078FM-16+0023KMIV V0203505N00215008235MN0080475N5+00115-00065999999ADDAA101000021AU110030015AU200001015AW1105AW2715GA1085+008235999GD14991+0082359GE19AGL   +99999+99999GF199999999999008231999999MA1101025100745MW1715REMMET09901/03/25 17:31:02 SPECI KMIV 032231Z 35004KT 5SM -SN BR OVC027 01/M01 A2983 RMK AO2 P0000 T00111006
0256724075137352025010322447+39366-075078FM-16+0023KMIV V0203205N00215006405MN0032195N5+00115-00065999999ADDAA101000021AU110030015AU200001015AW1105AW2715GA1085+006405999GD14991+0064059GE19AGL   +99999+99999GF199999999999006401999999MA1101025100745MW1715REMMET09901/03/25 17:44:02 SPECI KMIV 032244Z 32004KT 2SM -SN BR OVC021 01/M01 A2983 RMK AO2 P0000 T00111006
0288724075137352025010322507+39366-075078FM-16+0023KMIV V0203005N00215005185MN0024145N5+00105-00105999999ADDAA101000021AU110030015AU200001015AW1105AW2715GA1025+002745999GA2085+005185999GD11991+0027459GD24991+0051859GE19AGL   +99999+99999GF199999999999002741999999MA1101025100745MW1715REMMET10001/03/25 17:50:02 SPECI KMIV 032250Z 30004KT 1 1/2SM -SN BR FEW009 OVC017 01/M01 A2983 RMK AO2 P0000
0305724075137352025010322547+39366-075078FM-15+0023KMIV V0203005N00265005185MN0024145N5+00065-00065101025ADDAA101000395AU110030015AU200001015AW1105AW2715GA1045+002745999GA2085+005185999GD12991+0027459GD24991+0051859GE19AGL   +99999+99999GF199999999999002741999999MA1101025100745MW1715REMMET11701/03/25 17:54:02 METAR KMIV 032254Z 30005KT 1 1/2SM -SN BR SCT009 OVC017 01/M01 A2983 RMK AO2 SLP102 P0001 T00061006
0260724075137352025010323047+39366-075078FM-16+0023KMIV V0203305N00315003965MN0028165N5+00065-00065999999ADDAA101000021AU110030015AU200001015AW1105AW2715GA1085+003965999GD14991+0039659GE19AGL   +99999+99999GF199999999999003961999999MA1101025100745MW1715REMMET10301/03/25 18:04:02 SPECI KMIV 032304Z 33006KT 1 3/4SM -SN BR OVC013 01/M01 A2983 RMK AO2 P0000 T00061006
0256724075137352025010323097+39366-075078FM-16+0023KMIV V0203305N00315003965MN0048285N5+00065-00065999999ADDAA101000021AU110030015AU200001015AW1105AW2715GA1085+003965999GD14991+0039659GE19AGL   +99999+99999GF199999999999003961999999MA1101025100745MW1715REMMET09901/03/25 18:09:02 SPECI KMIV 032309Z 33006KT 3SM -SN BR OVC013 01/M01 A2983 RMK AO2 P0000 T00061006
0294724075137352025010323177+39366-075078FM-16+0023KMIV V0203305N00315004575MN0064375N5+00065-00065999999ADDAA101000021AU110030015AU200001015AW1105AW2715GA1025+002445999GA2085+004575999GD11991+0024459GD24991+0045759GE19AGL   +99999+99999GF199999999999002441999999MA1101055100775MW1715REMMET10601/03/25 18:17:02 SPECI KMIV 032317Z 33006KT 4SM -SN BR FEW008 OVC015 01/M01 A2984 RMK AO2 P0000 T00061006
0265724075137352025010323427+39366-075078FM-16+0023KMIV V0203205N00415002745MN0144845N5+00065-00115999999ADDAA101000021GA1075+002745999GA2085+005185999GD13991+0027451GD24991+0051859GE19AGL   +99999+99999GF199999999999002741999999MA1101085100815REMMET11701/03/25 18:42:02 SPECI KMIV 032342Z 32008KT 9SM BKN009 OVC017 01/M01 A2985 RMK AO2 SNE27 CIG 007V011 P0000 T00061011
0392724075137352025010323547+39366-075078FM-15+0023KMIV V0203305N00415002445MN0160935N5+00005-00115101065ADDAA101000025AA206000391GA1075+002445999GA2075+003965999GA3085+005495999GD13991+0024451GD23991+0039659GD34991+0054959GE19AGL   +99999+99999GF199999999999002441999999KA1060M+00331MA1101085100815MD1390089+9999REMMET15601/03/25 18:54:02 METAR KMIV 032354Z 33008KT 10SM BKN008 BKN013 OVC018 00/M01 A2985 RMK AO2 SNE27 CIG 007V011 SLP106 P0000 60001 T00001011 10033 20000 53008EQDQ01  00028PRCP06
0269724075137352025010400047+39366-075078FM-16+0023KMIV V0203305N00265005495MN0160935N5+00005-00175999999ADDGA1045+002445999GA2075+005495999GA3085+019815999GD12991+0024459GD23991+0054959GD34991+0198159GE19AGL   +99999+99999GF199999999999002441999999MA1101055100775REMMET10101/03/25 19:04:01 SPECI KMIV 040004Z 33005KT 10SM SCT008 BKN018 OVC065 00/M02 A2984 RMK AO2 T00001017
0269724075137352025010400117+39366-075078FM-16+0023KMIV V0203205N00265019815MN0160935N5+00005-00175999999ADDGA1025+002445999GA2045+005495999GA3075+019815999GD11991+0024459GD22991+0054959GD33991+0198159GE19AGL   +99999+99999GF199999999999002441999999MA1101085100815REMMET10101/03/25 19:11:01 SPECI KMIV 040011Z 32005KT 10SM FEW008 SCT018 BKN065 00/M02 A2985 RMK AO2 T00001017
0249724075137352025010400547+39366-075078FM-15+0023KMIV V0202805N00265033535MN0144845N5-00065-00225101095ADDAA101000095GA1045+012505999GA2085+033535999GD12991+0125059GD24991+0335359GE19AGL   +99999+99999GF199999999999012501999999MA1101085100815REMMET10101/03/25 19:54:01 METAR KMIV 040054Z 28005KT 9SM SCT041 OVC110 M01/M02 A2985 RMK AO2 SLP109 T10061022
0288724075137352025010401547+39366-075078FM-15+0023KMIV V0202905N00315018295MN0160935N5-00065-00285101085ADDAA101000095GA1045+012195999GA2045+014335999GA3075+018295999GD12991+0121959GD22991+0143359GD33991+0182959GE19AGL   +99999+99999GF199999999999012191999999MA1101085100815REMMET10901/03/25 20:54:01 METAR KMIV 040154Z 29006KT 10SM SCT040 SCT047 BKN060 M01/M03 A2985 RMK AO2 SLP108 T10061028
0308724075137352025010402547+39366-075078FM-15+0023KMIV V0203005N00575016765MN0160935N5-00065-00445101075ADDAA101000095GA1045+012195999GA2075+016765999GA3075+036585999GD12991+0121959GD23991+0167659GD33991+0365859GE19AGL   +99999+99999GF199999999999012191999999MA1101085100815MD1090019+9999REMMET11501/03/25 21:54:01 METAR KMIV 040254Z 30011KT 10SM SCT040 BKN055 BKN120 M01/M04 A2985 RMK AO2 SLP107 T10061044 50001
0194724075137352025010403327+39366-075078FM-16+0023KMIV V0202805N00515007625MN0160935N5-00115-00445999999ADDGA1075+007625999GD13991+0076259GE19AGL   +99999+99999GF199999999999007621999999MA1101085100815REMMET08801/03/25 22:32:02 SPECI KMIV 040332Z 28010KT 10SM BKN025 M01/M04 A2985 RMK AO2 T10111044
0213724075137352025010403427+39366-075078FM-16+0023KMIV V0202905N005152200059N0160935N5-00115-00445999999ADDGA1045+007925999GD12991+0079259GE19AGL   +99999+99999GF104995999999007921999999MA1101085100815REMMET08801/03/25 22:42:02 SPECI KMIV 040342Z 29010KT 10SM SCT026 M01/M04 A2985 RMK AO2 T10111044EQDD01      0ADE726
0223724075137352025010403547+39366-075078FM-15+0023KMIV V0203005N00725008535MN0160935N5-00065-00505101105ADDAA101000095GA1075+008535999GD13991+0085359GE19AGL   +99999+99999GF199999999999008531999999MA1101125100845OC101185REMMET09801/03/25 22:54:02 METAR KMIV 040354Z 30014G23KT 10SM BKN028 M01/M05 A2986 RMK AO2 SLP110 T10061050
0313724075137352025010404257+39366-075078FM-16+0023KMIV V0203005N00885024385MN0160935N5-00065-00615999999ADDGA1045+008845999GA2045+010675999GA3075+024385999GD12991+0088459GD22991+0106759GD33991+0243859GE19AGL   +99999+99999GF199999999999008841999999MA1101125100845OC101445OD149901441310REMMET12301/03/25 23:25:02 SPECI KMIV 040425Z 30017G28KT 10SM SCT029 SCT035 BKN080 M01/M06 A2986 RMK AO2 PK WND 31028/0422 T10061061
0386724075137352025010404547+39366-075078FM-15+0023KMIV V0203005N005752200059N0160935N5-00115-00615101125ADDAA101000095GA1025+008845999GA2045+021345999GA3045+027435999GD11991+0088459GD22991+0213459GD32991+0274359GE19AGL   +99999+99999GF104995999999008841999999KA1240M+00331KA2240N-00281MA1101125100845OC101035OD149901441310REMMET14001/03/25 23:54:02 METAR KMIV 040454Z 30011G20KT 10SM FEW029 SCT070 SCT090 M01/M06 A2986 RMK AO2 PK WND 31028/0422 SLP112 T10111061 400331028EQDD01      0ADE726
0910724075137352025010404596+39366-075078SOD  +0023KMIV V020999999999999999999999999999+99999+99999999999ADDAA124000395AT1AU18SN  5AT2AU13BR  5KA1240M+00335KA2240N-00275MG1101194100984OE11240143131023225OE22240093929023235OE33240037199999995REMSOD73024 HR PRECIPITATION (IN):0.01  24 HR MAX TEMP (F):38 24 HR MAX TEMP TIME (LST):1638 24 HR MIN TEMP (F):27 24 HR MIN TEMP TIME (LST):0731 AVERAGE STATION PRESSURE:29.880 MINIMUM SEA LEVEL PRESSURE:29.82 TIME OF OCCURRENCE:1735 PEAK WIND SPEED (MPH):32  PEAK WIND DIR (DEG):310 PEAK WIND TIME (LST):2322  FASTEST 2MIN SPEED (MPH):21 FASTEST 2MIN DIR (DEG):290 FASTEST 2MIN TIME (LST):2323 AVERAGE WIND SPEED (MPH):8.3  24 HR AVG TEMP (F):33 HEATING DEGREE DAYS:32  COOLING DEGREE DAYS:0   LATEST DAY MAX TEMP (0700-1900 LST):38  LATEST NIGHT MIN TEMP(1900-0800 LST):27 HOURLY INCREMENTAL PRECIPITATION VALUES (IN):.00 0.00 0.00 0.00 0.00 0.00 0.00 0.00 0.00 0.00 0.00 0.00 0.00 0.00 0.00 0.00 T    0.01 T    0.00 0.00 0.00 0.00 0.00EQDR01     N7GJS072R02     N7GKS075
0245724075137352025010405547+39366-075078FM-15+0023KMIV V0203005N006252200059N0160935N5-00175-00785101125ADDAA101000095GA1005+999999999GD10991+9999999GF100991999999999999999999KA1060M+00001KA2060N-00171MA1101125100845MD1190059+9999REMMET11001/04/25 00:54:02 METAR KMIV 040554Z 30012KT 10SM CLR M02/M08 A2986 RMK AO2 SLP112 T10171078 10000 21017 51005
0198724075137352025010406547+39366-075078FM-15+0023KMIV V0202905N006752200059N0160935N5-00175-00895101195ADDAA101000095GA1005+999999999GD10991+9999999GF100991999999999999999999MA1101195100915OC101085REMMET09501/04/25 01:54:02 METAR KMIV 040654Z 29013G21KT 10SM CLR M02/M09 A2988 RMK AO2 SLP119 T10171089
0198724075137352025010407547+39366-075078FM-15+0023KMIV V0202805N005152200059N0160935N5-00225-00945101255ADDAA101000095GA1005+999999999GD10991+9999999GF100991999999999999999999MA1101255100985OC101035REMMET09501/04/25 02:54:02 METAR KMIV 040754Z 28010G20KT 10SM CLR M02/M09 A2990 RMK AO2 SLP125 T10221094
0243724075137352025010408547+39366-075078FM-15+0023KMIV V0202805N00575018295MN0160935N5-00175-00945101285ADDAA101000095GA1085+018295999GD14991+0182959GE19AGL   +99999+99999GF199999999999018291999999MA1101295101015MD1190169+9999OC101135REMMET10401/04/25 03:54:02 METAR KMIV 040854Z 28011G22KT 10SM OVC060 M02/M09 A2991 RMK AO2 SLP128 T10171094 51016
0223724075137352025010409547+39366-075078FM-15+0023KMIV V0202805N00515018295MN0160935N5-00225-00895101335ADDAA101000095GA1075+018295999GD13991+0182959GE19AGL   +99999+99999GF199999999999018291999999MA1101355101085OC101035REMMET09801/04/25 04:54:02 METAR KMIV 040954Z 28010G20KT 10SM BKN060 M02/M09 A2993 RMK AO2 SLP133 T10221089
0223724075137352025010410547+39366-075078FM-15+0023KMIV V0202805N00625016765MN0160935N5-00225-00945101415ADDAA101000095GA1075+016765999GD13991+0167659GE19AGL   +99999+99999GF199999999999016761999999MA1101425101155OC100985REMMET09801/04/25 05:54:02 METAR KMIV 041054Z 28012G19KT 10SM BKN055 M02/M09 A2995 RMK AO2 SLP141 T10221094
0262724075137352025010411547+39366-075078FM-15+0023KMIV V0202805N006252200059N0160935N5-00285-01005101475ADDAA101000095AA224000391GA1005+999999999GD10991+9999999GF100991999999999999999999KA1060M-00171KA2060N-00281MA1101495101215MD1390199+9999REMMET11601/04/25 06:54:02 METAR KMIV 041154Z 28012KT 10SM CLR M03/M10 A2997 RMK AO2 SLP147 70001 T10281100 11017 21028 53019
0187724075137352025010412547+39366-075078FM-15+0023KMIV V0202805N005152200059N0160935N5-00225-01005101515ADDAA101000095GA1005+999999999GD10991+9999999GF100991999999999999999999MA1101525101255REMMET09201/04/25 07:54:02 METAR KMIV 041254Z 28010KT 10SM CLR M02/M10 A2998 RMK AO2 SLP151 T10221100
0187724075137352025010413547+39366-075078FM-15+0023KMIV V0202905N007752200059N0160935N5-00115-00945101575ADDAA101000095GA1005+999999999GD10991+9999999GF100991999999999999999999MA1101595101315REMMET09201/04/25 08:54:02 METAR KMIV 041354Z 29015KT 10SM CLR M01/M09 A3000 RMK AO2 SLP157 T10111094
0313724075137352025010414547+39366-075078FM-15+0023KMIV V0202905N00885015245MN0160935N5-00065-01005101615ADDAA101000095GA1045+013115999GA2085+015245999GD12991+0131159GD24991+0152459GE19AGL   +99999+99999GF199999999999013111999999MA1101635101355MD1290149+9999OC101495OD149901491300REMMET12901/04/25 09:54:02 METAR KMIV 041454Z 29017G29KT 10SM SCT043 OVC050 M01/M10 A3001 RMK AO2 PK WND 30029/1448 SLP161 T10061100 52014
0254724075137352025010415547+39366-075078FM-15+0023KMIV V0203105N00725015245MN0160935N5+00005-01065101605ADDAA101000095GA1085+015245999GD14991+0152459GE19AGL   +99999+99999GF199999999999015241999999MA1101635101355OC101345OD149901591290REMMET11501/04/25 10:54:02 METAR KMIV 041554Z 31014G26KT 10SM OVC050 00/M11 A3001 RMK AO2 PK WND 29031/1504 SLP160 T00001106
0255724075137352025010416547+39366-075078FM-15+0023KMIV V0203105N00675015245MN0160935N5-00065-01175101535ADDAA101000095GA1085+015245999GD14991+0152459GE19AGL   +99999+99999GF199999999999015241999999MA1101525101255OC101345OD149901491320REMMET11601/04/25 11:54:02 METAR KMIV 041654Z 31013G26KT 10SM OVC050 M01/M12 A2998 RMK AO2 PK WND 32029/1642 SLP153 T10061117
0313724075137352025010417547+39366-075078FM-15+0023KMIV V0202705N01035016765MN0160935N5-00065-01175101495ADDAA101000095GA1085+016765999GD14991+0167659GE19AGL   +99999+99999GF199999999999016761999999KA1060M+00001KA2060N-00281MA1101495101215MD1890129+9999OC101545OD149901641270REMMET13401/04/25 12:54:02 METAR KMIV 041754Z 27020G30KT 10SM OVC055 M01/M12 A2997 RMK AO2 PK WND 27032/1717 SLP149 T10061117 10000 21028 58012
0255724075137352025010418547+39366-075078FM-15+0023KMIV V0202905N00935016765MN0160935N5-00065-01175101525ADDAA101000095GA1085+016765999GD14991+0167659GE19AGL   +99999+99999GF199999999999016761999999MA1101525101255OC101495OD149901491320REMMET11601/04/25 13:54:02 METAR KMIV 041854Z 29018G29KT 10SM OVC055 M01/M12 A2998 RMK AO2 PK WND 32029/1853 SLP152 T10061117
0293724075137352025010419547+39366-075078FM-15+0023KMIV V0202905N00625016765MN0160935N5-00115-01225101575ADDAA101000095GA1025+014025999GA2085+016765999GD11991+0140259GD24991+0167659GE19AGL   +99999+99999GF199999999999014021999999MA1101595101315OC101545OD149901591270REMMET12301/04/25 14:54:02 METAR KMIV 041954Z 29012G30KT 10SM FEW046 OVC055 M01/M12 A3000 RMK AO2 PK WND 27031/1930 SLP157 T10111122
0275724075137352025010420547+39366-075078FM-15+0023KMIV V0202905N00725016765MN0160935N5-00115-01395101645ADDAA101000095GA1085+016765999GD14991+0167659GE19AGL   +99999+99999GF199999999999016761999999MA1101665101385MD1390149+9999OC101245OD149901541290REMMET12201/04/25 15:54:02 METAR KMIV 042054Z 29014G24KT 10SM OVC055 M01/M14 A3002 RMK AO2 PK WND 29030/1957 SLP164 T10111139 53014
0255724075137352025010421547+39366-075078FM-15+0023KMIV V0202905N00725018295MN0160935N5-00175-01445101705ADDAA101000095GA1085+018295999GD14991+0182959GE19AGL   +99999+99999GF199999999999018291999999MA1101695101425OC101295OD149901541310REMMET11601/04/25 16:54:02 METAR KMIV 042154Z 29014G25KT 10SM OVC060 M02/M14 A3003 RMK AO2 PK WND 31030/2100 SLP170 T10171144
0274724075137352025010422547+39366-075078FM-15+0023KMIV V0202805N007252200059N0160935N5-00225-01395101765ADDAA101000095GA1045+018295999GD12991+0182959GE19AGL   +99999+99999GF104995999999018291999999MA1101765101485OC101395OD149901391290REMMET11601/04/25 17:54:02 METAR KMIV 042254Z 28014G27KT 10SM SCT060 M02/M14 A3005 RMK AO2 PK WND 29027/2250 SLP176 T10221139EQDD01      0ADE726
0274724075137352025010423547+39366-075078FM-15+0023KMIV V0202805N006252200059N0160935N5-00285-01395101835ADDAA101000095GA1005+999999999GD10991+9999999GF100991999999999999999999KA1060M+00001KA2060N-00281MA1101835101555MD1390199+9999OC101035REMMET13101/04/25 18:54:02 METAR KMIV 042354Z 28012G20KT 10SM CLR M03/M14 A3007 RMK AO2 PK WND 31026/2306 SLP183 T10281139 10000 21028 53019
0187724075137352025010500547+39366-075078FM-15+0023KMIV V0202805N005152200059N0160935N5-00335-01335101855ADDAA101000095GA1005+999999999GD10991+9999999GF100991999999999999999999MA1101865101595REMMET09201/04/25 19:54:01 METAR KMIV 050054Z 28010KT 10SM CLR M03/M13 A3008 RMK AO2 SLP185 T10331133
0223724075137352025010501547+39366-075078FM-15+0023KMIV V0202805N00675016765MN0160935N5-00285-01395101865ADDAA101000095GA1085+016765999GD14991+0167659GE19AGL   +99999+99999GF199999999999016761999999MA1101865101595OC101245REMMET09801/04/25 20:54:01 METAR KMIV 050154Z 28013G24KT 10SM OVC055 M03/M14 A3008 RMK AO2 SLP186 T10281139
0243724075137352025010502547+39366-075078FM-15+0023KMIV V0203005N00775016765MN0160935N5-00285-01335101905ADDAA101000095GA1085+016765999GD14991+0167659GE19AGL   +99999+99999GF199999999999016761999999MA1101905101625MD1390079+9999OC101245REMMET10401/04/25 21:54:01 METAR KMIV 050254Z 30015G24KT 10SM OVC055 M03/M13 A3009 RMK AO2 SLP190 T10281133 53007
0223724075137352025010503547+39366-075078FM-15+0023KMIV V0203005N00575015245MN0160935N5-00285-01335101945ADDAA101000095GA1085+015245999GD14991+0152459GE19AGL   +99999+99999GF199999999999015241999999MA1101965101695OC100985REMMET09801/04/25 22:54:02 METAR KMIV 050354Z 30011G19KT 10SM OVC050 M03/M13 A3011 RMK AO2 SLP194 T10281133
0259724075137352025010504547+39366-075078FM-15+0023KMIV V0202905N00675014945MN0160935N5-00285-01335101955ADDAA101000095GA1085+014945999GD14991+0149459GE19AGL   +99999+99999GF199999999999014941999999KA1240M+00001KA2240N-00331MA1101965101695OC101035REMMET10801/04/25 23:54:02 METAR KMIV 050454Z 29013G20KT 10SM OVC049 M03/M13 A3011 RMK AO2 SLP195 T10281133 400001033
0886724075137352025010504596+39366-075078SOD  +0023KMIV V020999999999999999999999999999+99999+99999999999ADDAA124000095KA1240M+00005KA2240N-00325MG1101174101084OE11240160927012175OE22240111829014215OE33240067599999995REMSOD73024 HR PRECIPITATION (IN):0.00  24 HR MAX TEMP (F):32 24 HR MAX TEMP TIME (LST):1349 24 HR MIN TEMP (F):26 24 HR MIN TEMP TIME (LST):2022 AVERAGE STATION PRESSURE:29.875 MINIMUM SEA LEVEL PRESSURE:29.85 TIME OF OCCURRENCE:0020 PEAK WIND SPEED (MPH):36  PEAK WIND DIR (DEG):270 PEAK WIND TIME (LST):1217  FASTEST 2MIN SPEED (MPH):25 FASTEST 2MIN DIR (DEG):290 FASTEST 2MIN TIME (LST):1421 AVERAGE WIND SPEED (MPH):15.1 24 HR AVG TEMP (F):29 HEATING DEGREE DAYS:36  COOLING DEGREE DAYS:0   LATEST DAY MAX TEMP (0700-1900 LST):32  LATEST NIGHT MIN TEMP(1900-0800 LST):27 HOURLY INCREMENTAL PRECIPITATION VALUES (IN):.00 0.00 0.00 0.00 0.00 0.00 0.00 0.00 0.00 0.00 0.00 0.00 0.00 0.00 0.00 0.00 0.00 0.00 0.00 0.00 0.00 0.00 0.00 0.00EQDR01     N7GJS072R02     N7GKS075
0313724075137352025010505547+39366-075078FM-15+0023KMIV V0203105N00825014635MN0160935N5-00335-01445101955ADDAA101000095GA1085+014635999GD14991+0146359GE19AGL   +99999+99999GF199999999999014631999999KA1060M-00281KA2060N-00331MA1101965101695MD1190059+9999OC101345OD149901331300REMMET13401/05/25 00:54:02 METAR KMIV 050554Z 31016G26KT 10SM OVC048 M03/M14 A3011 RMK AO2 PK WND 30026/0551 SLP195 T10331144 11028 21033 51005
0212724075137352025010506547+39366-075078FM-15+0023KMIV V0202805N00415014945MN0160935N5-00395-01395101955ADDAA101000095GA1085+014945999GD14991+0149459GE19AGL   +99999+99999GF199999999999014941999999MA1101965101695REMMET09501/05/25 01:54:02 METAR KMIV 050654Z 28008KT 10SM OVC049 M04/M14 A3011 RMK AO2 SLP195 T10391139
0223724075137352025010507547+39366-075078FM-15+0023KMIV V0202905N00675014945MN0160935N5-00395-01445101995ADDAA101000095GA1085+014945999GD14991+0149459GE19AGL   +99999+99999GF199999999999014941999999MA1102005101725OC101035REMMET09801/05/25 02:54:02 METAR KMIV 050754Z 29013G20KT 10SM OVC049 M04/M14 A3012 RMK AO2 SLP199 T10391144
0207724075137352025010508547+39366-075078FM-15+0023KMIV V0202705N005752200059N0160935N5-00505-01285102005ADDAA101000095GA1005+999999999GD10991+9999999GF100991999999999999999999MA1102005101725MD1390059+9999REMMET09801/05/25 03:54:02 METAR KMIV 050854Z 27011KT 10SM CLR M05/M13 A3012 RMK AO2 SLP200 T10501128 53005
0198724075137352025010509547+39366-075078FM-15+0023KMIV V0202705N006752200059N0160935N5-00505-01285102015ADDAA101000095GA1005+999999999GD10991+9999999GF100991999999999999999999MA1102005101725OC101035REMMET09501/05/25 04:54:02 METAR KMIV 050954Z 27013G20KT 10SM CLR M05/M13 A3012 RMK AO2 SLP201 T10501128
0187724075137352025010510547+39366-075078FM-15+0023KMIV V0202705N004652200059N0160935N5-00505-01285102045ADDAA101000095GA1005+999999999GD10991+9999999GF100991999999999999999999MA1102075101795REMMET09201/05/25 05:54:02 METAR KMIV 051054Z 27009KT 10SM CLR M05/M13 A3014 RMK AO2 SLP204 T10501128
0256724075137352025010511547+39366-075078FM-15+0023KMIV V0202805N006752200059N0160935N5-00505-01285102115ADDAA101000095GA1005+999999999GD10991+9999999GF100991999999999999999999KA1060M-00331KA2060N-00501MA1102105101825MD1390119+9999OC101085REMMET11301/05/25 06:54:02 METAR KMIV 051154Z 28013G21KT 10SM CLR M05/M13 A3015 RMK AO2 SLP211 T10501128 11033 21050 53011
0198724075137352025010512547+39366-075078FM-15+0023KMIV V0202805N005752200059N0160935N5-00505-01285102135ADDAA101000095GA1005+999999999GD10991+9999999GF100991999999999999999999MA1102135101865OC101185REMMET09501/05/25 07:54:02 METAR KMIV 051254Z 28011G23KT 10SM CLR M05/M13 A3016 RMK AO2 SLP213 T10501128
0216724075137352025010513547+39366-075078FM-15+0023KMIV V0202705N007752200059N0160935N5-00395-01335102165ADDAA101000095GA1005+999999999GD10991+9999999GF100991999999999999999999MA1102175101895OC101295REMMET11301/05/25 08:54:02 METAR KMIV 051354Z 27015G25KT 10SM CLR M04/M13 A3017 RMK AO2 PK WND 25027/1342 SLP216 T10391133
0236724075137352025010514547+39366-075078FM-15+0023KMIV V0202905N007752200059N0160935N5-00285-01335102195ADDAA101000095GA1005+999999999GD10991+9999999GF100991999999999999999999MA1102205101925MD1390089+9999OC101345REMMET11901/05/25 09:54:02 METAR KMIV 051454Z 29015G26KT 10SM CLR M03/M13 A3018 RMK AO2 PK WND 30030/1435 SLP219 T10281133 53008
0198724075137352025010515547+39366-075078FM-15+0023KMIV V0202905N006752200059N0160935N5-00175-01335102115ADDAA101000095GA1005+999999999GD10991+9999999GF100991999999999999999999MA1102105101825OC101245REMMET09501/05/25 10:54:02 METAR KMIV 051554Z 29013G24KT 10SM CLR M02/M13 A3015 RMK AO2 SLP211 T10171133
0216724075137352025010516547+39366-075078FM-15+0023KMIV V0203005N008252200059N0160935N5-00115-01335102015ADDAA101000095GA1005+999999999GD10991+9999999GF100991999999999999999999MA1102035101755OC101295REMMET11301/05/25 11:54:02 METAR KMIV 051654Z 30016G25KT 10SM CLR M01/M13 A3013 RMK AO2 PK WND 33028/1600 SLP201 T10111133
0256724075137352025010517547+39366-075078FM-15+0023KMIV V0202705N007252200059N0160935N5-00115-01285101945ADDAA101000095GA1005+999999999GD10991+9999999GF100991999999999999999999KA1060M-00061KA2060N-00501MA1101935101655MD1690259+9999OC101185REMMET11301/05/25 12:54:02 METAR KMIV 051754Z 27014G23KT 10SM CLR M01/M13 A3010 RMK AO2 SLP194 T10111128 11006 21050 56025
0216724075137352025010518547+39366-075078FM-15+0023KMIV V0203005N007252200059N0160935N5-00065-01285101895ADDAA101000095GA1005+999999999GD10991+9999999GF100991999999999999999999MA1101905101625OC101135REMMET11301/05/25 13:54:02 METAR KMIV 051854Z 30014G22KT 10SM CLR M01/M13 A3009 RMK AO2 PK WND 27027/1803 SLP189 T10061128
0198724075137352025010519547+39366-075078FM-15+0023KMIV V0202905N007752200059N0160935N5-00065-01335101905ADDAA101000095GA1005+999999999GD10991+9999999GF100991999999999999999999MA1101905101625OC101085REMMET09501/05/25 14:54:02 METAR KMIV 051954Z 29015G21KT 10SM CLR M01/M13 A3009 RMK AO2 SLP190 T10061133
0207724075137352025010520547+39366-075078FM-15+0023KMIV V0202905N005752200059N0160935N5-00065-01395101965ADDAA101000095GA1005+999999999GD10991+9999999GF100991999999999999999999MA1101965101695MD1390029+9999REMMET09801/05/25 15:54:02 METAR KMIV 052054Z 29011KT 10SM CLR M01/M14 A3011 RMK AO2 SLP196 T10061139 53002
0187724075137352025010521547+39366-075078FM-15+0023KMIV V0202805N003652200059N0160935N5-00225-01395101965ADDAA101000095GA1005+999999999GD10991+9999999GF100991999999999999999999MA1101965101695REMMET09201/05/25 16:54:02 METAR KMIV 052154Z 28007KT 10SM CLR M02/M14 A3011 RMK AO2 SLP196 T10221139
0187724075137352025010522547+39366-075078FM-15+0023KMIV V0202805N003152200059N0160935N5-00335-01335102005ADDAA101000095GA1005+999999999GD10991+9999999GF100991999999999999999999MA1102005101725REMMET09201/05/25 17:54:02 METAR KMIV 052254Z 28006KT 10SM CLR M03/M13 A3012 RMK AO2 SLP200 T10331133
0245724075137352025010523547+39366-075078FM-15+0023KMIV V0202805N003652200059N0160935N5-00335-01335102015ADDAA101000095GA1005+999999999GD10991+9999999GF100991999999999999999999KA1060M+00001KA2060N-00331MA1102005101725MD1390049+9999REMMET11001/05/25 18:54:02 METAR KMIV 052354Z 28007KT 10SM CLR M03/M13 A3012 RMK AO2 SLP201 T10331133 10000 21033 53004
0187724075137352025010600547+39366-075078FM-15+0023KMIV V0202905N003152200059N0160935N5-00335-01335102005ADDAA101000095GA1005+999999999GD10991+9999999GF100991999999999999999999MA1102005101725REMMET09201/05/25 19:54:01 METAR KMIV 060054Z 29006KT 10SM CLR M03/M13 A3012 RMK AO2 SLP200 T10331133
0187724075137352025010601547+39366-075078FM-15+0023KMIV V0202705N002652200059N0160935N5-00285-01335102015ADDAA101000095GA1005+999999999GD10991+9999999GF100991999999999999999999MA1102005101725REMMET09201/05/25 20:54:01 METAR KMIV 060154Z 27005KT 10SM CLR M03/M13 A3012 RMK AO2 SLP201 T10281133
0207724075137352025010602547+39366-075078FM-15+0023KMIV V0202905N003152200059N0160935N5-00225-01335102015ADDAA101000095GA1005+999999999GD10991+9999999GF100991999999999999999999MA1102005101725MD1590009+9999REMMET09801/05/25 21:54:01 METAR KMIV 060254Z 29006KT 10SM CLR M02/M13 A3012 RMK AO2 SLP201 T10221133 55000
0187724075137352025010603547+39366-075078FM-15+0023KMIV V0202805N003152200059N0160935N5-00225-01285102005ADDAA101000095GA1005+999999999GD10991+9999999GF100991999999999999999999MA1102005101725REMMET09201/05/25 22:54:02 METAR KMIV 060354Z 28006KT 10SM CLR M02/M13 A3012 RMK AO2 SLP200 T10221128
0248724075137352025010604547+39366-075078FM-15+0023KMIV V0203005N00315036585MN0160935N5-00175-01285101925ADDAA101000095GA1075+036585999GD13991+0365859GE19AGL   +99999+99999GF199999999999036581999999KA1240M+00001KA2240N-00501MA1101935101655REMMET10501/05/25 23:54:02 METAR KMIV 060454Z 30006KT 10SM BKN120 M02/M13 A3010 RMK AO2 SLP192 T10171128 400001050
0886724075137352025010604596+39366-075078SOD  +0023KMIV V020999999999999999999999999999+99999+99999999999ADDAA124000095KA1240M+00005KA2240N-00495MG1101694101864OE11240152030009355OE22240102829009355OE33240055099999995REMSOD73024 HR PRECIPITATION (IN):0.00  24 HR MAX TEMP (F):32 24 HR MAX TEMP TIME (LST):1329 24 HR MIN TEMP (F):23 24 HR MIN TEMP TIME (LST):0756 AVERAGE STATION PRESSURE:30.030 MINIMUM SEA LEVEL PRESSURE:30.08 TIME OF OCCURRENCE:1409 PEAK WIND SPEED (MPH):34  PEAK WIND DIR (DEG):300 PEAK WIND TIME (LST):0935  FASTEST 2MIN SPEED (MPH):23 FASTEST 2MIN DIR (DEG):290 FASTEST 2MIN TIME (LST):0935 AVERAGE WIND SPEED (MPH):12.3 24 HR AVG TEMP (F):28 HEATING DEGREE DAYS:37  COOLING DEGREE DAYS:0   LATEST DAY MAX TEMP (0700-1900 LST):32  LATEST NIGHT MIN TEMP(1900-0800 LST):23 HOURLY INCREMENTAL PRECIPITATION VALUES (IN):.00 0.00 0.00 0.00 0.00 0.00 0.00 0.00 0.00 0.00 0.00 0.00 0.00 0.00 0.00 0.00 0.00 0.00 0.00 0.00 0.00 0.00 0.00 0.00EQDR01     N7GJS072R02     N7GKS075
0270724075137352025010605547+39366-075078FM-15+0023KMIV V0202905N00215033535MN0160935N5-00225-01225101885ADDAA101000095GA1075+033535999GD13991+0335359GE19AGL   +99999+99999GF199999999999033531999999KA1060M-00171KA2060N-00391MA1101905101625MD1890139+9999REMMET11301/06/25 00:54:02 METAR KMIV 060554Z 29004KT 10SM BKN110 M02/M12 A3009 RMK AO2 SLP188 T10221122 11017 21039 58013
0212724075137352025010606547+39366-075078FM-15+0023KMIV V0202805N00215027435MN0160935N5-00225-01225101855ADDAA101000095GA1085+027435999GD14991+0274359GE19AGL   +99999+99999GF199999999999027431999999MA1101865101595REMMET09501/06/25 01:54:02 METAR KMIV 060654Z 28004KT 10SM OVC090 M02/M12 A3008 RMK AO2 SLP185 T10221122
0212724075137352025010607547+39366-075078FM-15+0023KMIV V0202405N00215028965MN0160935N5-00225-01225101845ADDAA101000095GA1085+028965999GD14991+0289659GE19AGL   +99999+99999GF199999999999028961999999MA1101865101595REMMET09501/06/25 02:54:02 METAR KMIV 060754Z 24004KT 10SM OVC095 M02/M12 A3008 RMK AO2 SLP184 T10221122
0270724075137352025010608547+39366-075078FM-15+0023KMIV V0209999C00005024385MN0160935N5-00225-01175101755ADDAA101000095GA1045+019815999GA2085+024385999GD12991+0198159GD24991+0243859GE19AGL   +99999+99999GF199999999999019811999999MA1101765101485MD1890149+9999REMMET10801/06/25 03:54:02 METAR KMIV 060854Z 00000KT 10SM SCT065 OVC080 M02/M12 A3005 RMK AO2 SLP175 T10221117 58014
0247724075137352025010609447+39366-075078FM-16+0023KMIV V0209999N99999007925MN0040235N5-00285-01005999999ADDAA101000021AU110030015AW1715GA1085+007925999GD14991+0079259GE19AGL   +99999+99999GF199999999999007921999999MA1101735101455MW1715REMMET10701/06/25 04:44:02 SPECI KMIV 060944Z      KT 2 1/2SM -SN OVC026 M03/M10 A3004 RMK AO2 SNB35 P0000 T10281100
0183724075137352025010609526+39366-075078FM-16+0023KMIV V0202505N00155006105MN0020125N5-00405-00805999999ADDAU110030015AW1715GA1085+006105999GD14991+0061059MA1101735101455MW1715REMMET10201/06/25 04:52:02 SPECI KMIV 060952Z 25003KT 1 1/4SM -SN OVC020 M04/M08 A3004 RMK AO2 SNB35 P0000 FIBI
0254724075137352025010609547+39366-075078FM-15+0023KMIV V0202805N00215005495MN0020125N5-00395-00835101725ADDAA101000025AU110030015AW1715GA1085+005495999GD14991+0054959GE19AGL   +99999+99999GF199999999999005491999999MA1101735101455MW1715REMMET11401/06/25 04:54:02 METAR KMIV 060954Z 28004KT 1 1/4SM -SN OVC018 M04/M08 A3004 RMK AO2 SNB35 SLP172 P0000 T10391083
0256724075137352025010610077+39366-075078FM-16+0023KMIV V0209999C00005003965WN0016095N5-00445-00675999999ADDAA101000021AU110030015AU200001015AW1105AW2715GA1095+003965999GD15991+0039659GE19AGL   +99999+99999GF109991999999003961999999MA1101695101425MW1715REMMET09901/06/25 05:07:02 SPECI KMIV 061007Z 00000KT 1SM -SN BR VV013 M04/M07 A3003 RMK AO2 P0000 T10441067
0263724075137352025010610547+39366-075078FM-15+0023KMIV V0209999C00005004275WN0016095N5-00445-00615101615ADDAA101000895AU110030015AU200001015AW1105AW2715GA1095+004275999GD15991+0042759GE19AGL   +99999+99999GF109991999999004271999999MA1101635101355MW1715REMMET10601/06/25 05:54:02 METAR KMIV 061054Z 00000KT 1SM -SN BR VV014 M04/M06 A3001 RMK AO2 SLP161 P0003 T10441061
0390724075137352025010611547+39366-075078FM-15+0023KMIV V0209999C00005003665WN0016095N5-00445-00615101535ADDAA101001395AA206002091AA324002091AU110030015AU200001015AW1105AW2715GA1095+003665999GD15991+0036659GE19AGL   +99999+99999GF109991999999003661999999KA1060M-00171KA2060N-00441MA1101525101255MD1690199+9999MW1715REMMET13601/06/25 06:54:02 METAR KMIV 061154Z 00000KT 1SM -SN BR VV012 M04/M06 A2998 RMK AO2 SLP153 P0005 60008 70008 T10441061 11017 21044 56019EQDQ01  00208PRCP06Q02  00208PRCP24
0258724075137352025010612357+39366-075078FM-16+0023KMIV V0209999C00005003355WN0012075N5-00445-00615999999ADDAA101000731AU110030015AU200001015AW1105AW2715GA1095+003355999GD15991+0033559GE19AGL   +99999+99999GF109991999999003351999999MA1101465101185MW1715REMMET10101/06/25 07:35:02 SPECI KMIV 061235Z 00000KT 3/4SM -SN BR VV011 M04/M06 A2996 RMK AO2 P0003 T10441061
0266724075137352025010612547+39366-075078FM-15+0023KMIV V0200705N00155003355WN0008055N5-00445-00615101415ADDAA101001395AU120030015AU208002015AW1355AW2725GA1095+003355999GD15991+0033559GE19AGL   +99999+99999GF109991999999003351999999MA1101425101155MW1735REMMET10901/06/25 07:54:02 METAR KMIV 061254Z 07003KT 1/2SM SN FZFG VV011 M04/M06 A2995 RMK AO2 SLP141 P0004 T10441061
0274724075137352025010613547+39366-075078FM-15+0023KMIV V0201005N00215003965WN0008055N5-00445-00615101305ADDAA101001095AU110030015AU208002015AW1355AW2715GA1095+003965999GD15991+0039659GE19AGL   +99999+99999GF109991999999003961999999MA1101325101045MW1715REMMET11701/06/25 08:54:02 METAR KMIV 061354Z 10004KT 1/2SM -SN FZFG VV013 M04/M06 A2992 RMK AO2 PRESFR SLP130 P0004 T10441061
0259724075137352025010614417+39366-075078FM-16+0023KMIV V0200605N00215003055WN0004025N5-00445-00615999999ADDAA101001031AU120030015AU208002015AW1355AW2725GA1095+003055999GD15991+0030559GE19AGL   +99999+99999GF109991999999003051999999MA1101255100985MW1735REMMET10201/06/25 09:41:02 SPECI KMIV 061441Z 06004KT 1/4SM SN FZFG VV010 M04/M06 A2990 RMK AO2 P0004 T10441061
0196724075137352025010614526+39366-075078FM-16+0023KMIV V0200605N00315003355WN0008055N5-00405-00605999999ADDAU110030015AU208002015AW1355AW2715GA1095+003355999GD15991+0033559MA1101195100915MW1715REMMET09801/06/25 09:52:02 SPECI KMIV 061452Z 06006KT 1/2SM -SN FZFG VV011 M04/M06 A2988 RMK AO2 P0005 FIBI
0323724075137352025010614547+39366-075078FM-15+0023KMIV V0200605N00265003665WN0008055N5-00445-00615101205ADDAA101001095AA203003391AU110030015AU208002015AW1355AW2715GA1095+003665999GD15991+0036659GE19AGL   +99999+99999GF109991999999003661999999MA1101225100945MD1590219+9999MW1715REMMET12201/06/25 09:54:02 METAR KMIV 061454Z 06005KT 1/2SM -SN FZFG VV012 M04/M06 A2989 RMK AO2 SLP120 P0005 60013 T10441061 55021EQDQ01  00338PRCP03
0256724075137352025010615037+39366-075078FM-16+0023KMIV V0200505N00215005795WN0016095N5-00445-00565999999ADDAA101000021AU110030015AU200001015AW1105AW2715GA1095+005795999GD15991+0057959GE19AGL   +99999+99999GF109991999999005791999999MA1101195100915MW1715REMMET09901/06/25 10:03:02 SPECI KMIV 061503Z 05004KT 1SM -SN BR VV019 M04/M06 A2988 RMK AO2 P0000 T10441056
0299724075137352025010615147+39366-075078FM-16+0023KMIV V0200605N00215009455MN0040235N5-00395-00565999999ADDAA101000021AU110030015AU200001015AW1105AW2715GA1075+009455999GA2085+014635999GD13991+0094559GD24991+0146359GE19AGL   +99999+99999GF199999999999009451999999MA1101155100885MW1715REMMET11101/06/25 10:14:02 SPECI KMIV 061514Z 06004KT 2 1/2SM -SN BR BKN031 OVC048 M04/M06 A2987 RMK AO2 P0000 T10391056
0295724075137352025010615227+39366-075078FM-16+0023KMIV V0200605N00215010065MN0048285N5-00395-00565999999ADDAA101000021AU110030015AU200001015AW1105AW2715GA1075+010065999GA2085+014635999GD13991+0100659GD24991+0146359GE19AGL   +99999+99999GF199999999999010061999999MA1101195100915MW1715REMMET10701/06/25 10:22:02 SPECI KMIV 061522Z 06004KT 3SM -SN BR BKN033 OVC048 M04/M06 A2988 RMK AO2 P0000 T10391056
0295724075137352025010615317+39366-075078FM-16+0023KMIV V0200505N00265010675MN0032195N5-00395-00615999999ADDAA101000021AU110030015AU200001015AW1105AW2715GA1075+010675999GA2085+013415999GD13991+0106759GD24991+0134159GE19AGL   +99999+99999GF199999999999010671999999MA1101155100885MW1715REMMET10701/06/25 10:31:02 SPECI KMIV 061531Z 05005KT 2SM -SN BR BKN035 OVC044 M04/M06 A2987 RMK AO2 P0000 T10391061
0261724075137352025010615387+39366-075078FM-16+0023KMIV V0200305N00155008535MN0028165N5-00395-00565999999ADDAA101000231AU110030015AU200001015AW1105AW2715GA1085+008535999GD14991+0085359GE19AGL   +99999+99999GF199999999999008531999999MA1101155100885MW1715REMMET10401/06/25 10:38:02 SPECI KMIV 061538Z 03003KT 1 3/4SM -SN BR OVC028 M04/M06 A2987 RMK AO2 P0001 T10391056
0194724075137352025010615526+39366-075078FM-16+0023KMIV V0200405N00215005795WN0012075N5-00405-00605999999ADDAU110030015AU200001015AW1105AW2715GA1095+005795999GD15991+0057959MA1101125100845MW1715REMMET09601/06/25 10:52:02 SPECI KMIV 061552Z 04004KT 3/4SM -SN BR VV019 M04/M06 A2986 RMK AO2 P0001 FIBI
0265724075137352025010615547+39366-075078FM-15+0023KMIV V0200505N00215005495WN0012075N5-00395-00565101095ADDAA101000595AU110030015AU200001015AW1105AW2715GA1095+005495999GD15991+0054959GE19AGL   +99999+99999GF109991999999005491999999MA1101085100815MW1715REMMET10801/06/25 10:54:02 METAR KMIV 061554Z 05004KT 3/4SM -SN BR VV018 M04/M06 A2985 RMK AO2 SLP109 P0001 T10391056
0263724075137352025010616157+39366-075078FM-16+0023KMIV V0200205N00265005795WN0016095N5-00395-00565999999ADDAA101000231AU110030015AU200001015AW1105AW2715GA1095+005795999GD15991+0057959GE19AGL   +99999+99999GF109991999999005791999999MA1101025100745MW1715REMMET10601/06/25 11:15:02 SPECI KMIV 061615Z 02005KT 1SM -SN BR VV019 M04/M06 A2983 RMK AO2 PRESFR P0001 T10391056
0259724075137352025010616247+39366-075078FM-16+0023KMIV V0200505N00215005185WN0008055N5-00395-00565999999ADDAA101000531AU120030015AU208002015AW1355AW2725GA1095+005185999GD15991+0051859GE19AGL   +99999+99999GF109991999999005181999999MA1100985100715MW1735REMMET10201/06/25 11:24:02 SPECI KMIV 061624Z 05004KT 1/2SM SN FZFG VV017 M04/M06 A2982 RMK AO2 P0002 T10391056
0259724075137352025010616397+39366-075078FM-16+0023KMIV V0203505N00155003665WN0008055N5-00395-00565999999ADDAA101000731AU120030015AU208002015AW1355AW2725GA1095+003665999GD15991+0036659GE19AGL   +99999+99999GF109991999999003661999999MA1101055100775MW1735REMMET10201/06/25 11:39:02 SPECI KMIV 061639Z 35003KT 1/2SM SN FZFG VV012 M04/M06 A2984 RMK AO2 P0003 T10391056
0195724075137352025010616526+39366-075078FM-16+0023KMIV V0200405N00215003055WN0004025N5-00405-00605999999ADDAU120030015AU208002015AW1355AW2725GA1095+003055999GD15991+0030559MA1100985100715MW1735REMMET09701/06/25 11:52:02 SPECI KMIV 061652Z 04004KT 1/4SM SN FZFG VV010 M04/M06 A2982 RMK AO2 P0004 FIBI
0273724075137352025010616547+39366-075078FM-15+0023KMIV V0200405N00265002745WN0004025N5-00395-00565100945ADDAA101001095AU120030015AU208002015AW1355AW2725GA1095+002745999GD15991+0027459GE19AGL   +99999+99999GF109991999999002741999999MA1100955100675MW1735REMMET11601/06/25 11:54:02 METAR KMIV 061654Z 04005KT 1/4SM SN FZFG VV009 M04/M06 A2981 RMK AO2 PRESFR SLP094 P0005 T10391056
0259724075137352025010617007+39366-075078FM-16+0023KMIV V0200205N00215003055WN0008055N5-00395-00505999999ADDAA101000021AU120030015AU208002015AW1355AW2725GA1095+003055999GD15991+0030559GE19AGL   +99999+99999GF109991999999003051999999MA1100985100715MW1735REMMET10201/06/25 12:00:02 SPECI KMIV 061700Z 02004KT 1/2SM SN FZFG VV010 M04/M05 A2982 RMK AO2 P0000 T10391050
0258724075137352025010617207+39366-075078FM-16+0023KMIV V0200105N00265004575WN0012075N5-00335-00505999999ADDAA101000231AU110030015AU200001015AW1105AW2715GA1095+004575999GD15991+0045759GE19AGL   +99999+99999GF109991999999004571999999MA1100885100615MW1715REMMET10101/06/25 12:20:02 SPECI KMIV 061720Z 01005KT 3/4SM -SN BR VV015 M03/M05 A2979 RMK AO2 P0001 T10331050
0302724075137352025010617417+39366-075078FM-16+0023KMIV V0200205N00315005495MN0016095N5-00335-00505999999ADDAA101000231AU110030015AU200001015AW1105AW2715GA1025+001835999GA2085+005495999GD11991+0018359GD24991+0054959GE19AGL   +99999+99999GF199999999999001831999999MA1100785100505MW1715REMMET11401/06/25 12:41:02 SPECI KMIV 061741Z 02006KT 1SM -SN BR FEW006 OVC018 M03/M05 A2976 RMK AO2 PRESFR P0001 T10331050
0400724075137352025010617547+39366-075078FM-15+0023KMIV V0200205N00315006715MN0020125N5-00335-00565100785ADDAA101000395AA206005191AU110030015AU200001015AW1105AW2715GA1025+001835999GA2085+006715999GD11991+0018359GD24991+0067159GE19AGL   +99999+99999GF199999999999001831999999KA1060M-00331KA2060N-00441MA1100785100505MD1890319+9999MW1715REMMET14201/06/25 12:54:02 METAR KMIV 061754Z 02006KT 1 1/4SM -SN BR FEW006 OVC022 M03/M06 A2976 RMK AO2 SLP078 P0001 60020 T10331056 11033 21044 58031EQDQ01  00508PRCP06
0333724075137352025010618287+39366-075078FM-16+0023KMIV V0200105N00465009455MN0032195N5-00335-00565999999ADDAA101000021AU110030015AU200001015AW1105AW2715GA1025+002135999GA2075+009455999GA3085+012195999GD11991+0021359GD23991+0094559GD34991+0121959GE19AGL   +99999+99999GF199999999999002131999999MA1100645100375MW1715REMMET11401/06/25 13:28:02 SPECI KMIV 061828Z 01009KT 2SM -SN BR FEW007 BKN031 OVC040 M03/M06 A2972 RMK AO2 P0000 T10331056
0333724075137352025010618417+39366-075078FM-16+0023KMIV V0200405N00365012195MN0048285N5-00285-00505999999ADDAA101000021AU110030015AU200001015AW1105AW2715GA1045+002135999GA2075+012195999GA3085+014945999GD12991+0021359GD23991+0121959GD34991+0149459GE19AGL   +99999+99999GF199999999999002131999999MA1100615100335MW1715REMMET11401/06/25 13:41:02 SPECI KMIV 061841Z 04007KT 3SM -SN BR SCT007 BKN040 OVC049 M03/M05 A2971 RMK AO2 P0000 T10281050
0302724075137352025010618547+39366-075078FM-15+0023KMIV V0200305N00415014025MN0064375N5-00285-00505100575ADDAA101000025AU110030015AU200001015AW1105AW2715GA1045+002445999GA2085+014025999GD12991+0024459GD24991+0140259GE19AGL   +99999+99999GF199999999999002441999999MA1100585100305MW1715REMMET11401/06/25 13:54:02 METAR KMIV 061854Z 03008KT 4SM -SN BR SCT008 OVC046 M03/M05 A2970 RMK AO2 SLP057 P0000 T10281050
0292724075137352025010619087+39366-075078FM-16+0023KMIV V0200405N00415002445MN0128755N5-00285-00505999999ADDAA101000021GA1075+002445999GA2075+014025999GA3085+018295999GD13991+0024459GD23991+0140259GD34991+0182959GE19AGL   +99999+99999GF199999999999002441999999MA1100545100275REMMET11301/06/25 14:08:02 SPECI KMIV 061908Z 04008KT 8SM BKN008 BKN046 OVC060 M03/M05 A2969 RMK AO2 SNE01 P0000 T10281050
0230724075137352025010619547+39366-075078FM-15+0023KMIV V0200205N00515002745MN0160935N5-00225-00505100485ADDAA101000025GA1085+002745999GD14991+0027459GE19AGL   +99999+99999GF199999999999002741999999MA1100515100235REMMET11301/06/25 14:54:02 METAR KMIV 061954Z 02010KT 10SM OVC009 M02/M05 A2968 RMK AO2 SNE01B36E47 SLP048 P0000 T10221050
0206724075137352025010620127+39366-075078FM-16+0023KMIV V0200305N00415003055MN0160935N5-00225-00505999999ADDGA1085+003055999GD14991+0030551GE19AGL   +99999+99999GF199999999999003051999999MA1100475100205REMMET10001/06/25 15:12:02 SPECI KMIV 062012Z 03008KT 10SM OVC010 M02/M05 A2967 RMK AO2 CIG 009V013 T10221050
0249724075137352025010620547+39366-075078FM-15+0023KMIV V0200305N00415003355MN0160935N5-00225-00505100435ADDAA101000095AA203000021GA1085+003355999GD14991+0033559GE19AGL   +99999+99999GF199999999999003351999999MA1100445100175MD1690349+9999REMMET10701/06/25 15:54:02 METAR KMIV 062054Z 03008KT 10SM OVC011 M02/M05 A2966 RMK AO2 SLP043 60000 T10221050 56034
0288724075137352025010621547+39366-075078FM-15+0023KMIV V0200205N00515003965MN0112655N5-00225-00505100415ADDAA101000025AU110030015AW1715GA1075+003965999GA2085+014945999GD13991+0039659GD24991+0149459GE19AGL   +99999+99999GF199999999999003961999999MA1100415100135MW1715REMMET11701/06/25 16:54:02 METAR KMIV 062154Z 02010KT 7SM -SN BKN013 OVC049 M02/M05 A2965 RMK AO2 SNB51 SLP041 P0000 T10221050
0255724075137352025010622257+39366-075078FM-16+0023KMIV V0200105N00465019815MN0160935N5-00225-00505999999ADDAA101000021GA1045+003965999GA2085+019815999GD12991+0039659GD24991+0198159GE19AGL   +99999+99999GF199999999999003961999999MA1100375100105REMMET10701/06/25 17:25:02 SPECI KMIV 062225Z 01009KT 10SM SCT013 OVC065 M02/M05 A2964 RMK AO2 SNE02 P0000 T10221050
0300724075137352025010622547+39366-075078FM-15+0023KMIV V0203605N00415021345MN0160935N5-00225-00505100355ADDAA101000025GA1045+016765999GA2075+021345999GA3085+025915999GD12991+0167659GD23991+0213459GD34991+0259159GE19AGL   +99999+99999GF199999999999016761999999MA1100375100105REMMET12101/06/25 17:54:02 METAR KMIV 062254Z 36008KT 10SM SCT055 BKN070 OVC085 M02/M05 A2964 RMK AO2 SNE02 SLP035 P0000 T10221050
0287724075137352025010623547+39366-075078FM-15+0023KMIV V0203505N00415019815MN0160935N5-00225-00505100345ADDAA101000095AA206000021GA1085+019815999GD14991+0198159GE19AGL   +99999+99999GF199999999999019811999999KA1060M-00221KA2060N-00331MA1100345100065MD1690109+9999REMMET11901/06/25 18:54:02 METAR KMIV 062354Z 35008KT 10SM OVC065 M02/M05 A2963 RMK AO2 SLP034 60000 T10221050 11022 21033 56010
0308724075137352025010700547+39366-075078FM-15+0023KMIV V0203405N00415012805MN0080475N5-00225-00445100365ADDAA101000025AU110030015AU200001015AW1105AW2715GA1075+012805999GA2085+021345999GD13991+0128059GD24991+0213459GE19AGL   +99999+99999GF199999999999012801999999MA1100375100105MW1715REMMET12001/06/25 19:54:01 METAR KMIV 070054Z 34008KT 5SM -SN BR BKN042 OVC070 M02/M04 A2964 RMK AO2 SNB12 SLP036 P0000 T10221044
0261724075137352025010701097+39366-075078FM-16+0023KMIV V0203305N00465009755MN0040235N5-00225-00445999999ADDAA101000021AU110030015AU200001015AW1105AW2715GA1085+009755999GD14991+0097559GE19AGL   +99999+99999GF199999999999009751999999MA1100415100135MW1715REMMET10401/06/25 20:09:01 SPECI KMIV 070109Z 33009KT 2 1/2SM -SN BR OVC032 M02/M04 A2965 RMK AO2 P0000 T10221044
0257724075137352025010701197+39366-075078FM-16+0023KMIV V0203205N00365009755MN0064375N5-00225-00395999999ADDAA101000021AU110030015AU200001015AW1105AW2715GA1085+009755999GD14991+0097559GE19AGL   +99999+99999GF199999999999009751999999MA1100415100135MW1715REMMET10001/06/25 20:19:01 SPECI KMIV 070119Z 32007KT 4SM -SN BR OVC032 M02/M04 A2965 RMK AO2 P0000 T10221039
0261724075137352025010701277+39366-075078FM-16+0023KMIV V0203305N00365007925MN0040235N5-00225-00395999999ADDAA101000021AU110030015AU200001015AW1105AW2715GA1085+007925999GD14991+0079259GE19AGL   +99999+99999GF199999999999007921999999MA1100415100135MW1715REMMET10401/06/25 20:27:01 SPECI KMIV 070127Z 33007KT 2 1/2SM -SN BR OVC026 M02/M04 A2965 RMK AO2 P0000 T10221039
0261724075137352025010701367+39366-075078FM-16+0023KMIV V0203305N00415006715MN0020125N5-00225-00395999999ADDAA101000231AU110030015AU200001015AW1105AW2715GA1085+006715999GD14991+0067159GE19AGL   +99999+99999GF199999999999006711999999MA1100445100175MW1715REMMET10401/06/25 20:36:01 SPECI KMIV 070136Z 33008KT 1 1/4SM -SN BR OVC022 M02/M04 A2966 RMK AO2 P0001 T10221039
0197724075137352025010701526+39366-075078FM-16+0023KMIV V0203105N00415004275MN0024145N5-00205-00405999999ADDAU110030015AU200001015AW1105AW2715GA1085+004275999GD14991+0042759MA1100475100205MW1715REMMET09901/06/25 20:52:03 SPECI KMIV 070152Z 31008KT 1 1/2SM -SN BR OVC014 M02/M04 A2967 RMK AO2 P0001 FIBI
0268724075137352025010701547+39366-075078FM-15+0023KMIV V0203105N00315004275MN0024145N5-00225-00395100465ADDAA101000395AU110030015AU200001015AW1105AW2715GA1085+004275999GD14991+0042759GE19AGL   +99999+99999GF199999999999004271999999MA1100475100205MW1715REMMET11101/06/25 20:54:01 METAR KMIV 070154Z 31006KT 1 1/2SM -SN BR OVC014 M02/M04 A2967 RMK AO2 SLP046 P0001 T10221039
0257724075137352025010701567+39366-075078FM-16+0023KMIV V0203105N00365004885MN0032195N5-00225-00395999999ADDAA101000021AU110030015AU200001015AW1105AW2715GA1085+004885999GD14991+0048859GE19AGL   +99999+99999GF199999999999004881999999MA1100475100205MW1715REMMET10001/06/25 20:56:01 SPECI KMIV 070156Z 31007KT 2SM -SN BR OVC016 M02/M04 A2967 RMK AO2 P0000 T10221039
0333724075137352025010702077+39366-075078FM-16+0023KMIV V0203105N00465006715MN0064375N5-00225-00395999999ADDAA101000021AU110030015AU200001015AW1105AW2715GA1075+006715999GA2075+018295999GA3085+022865999GD13991+0067159GD23991+0182959GD34991+0228659GE19AGL   +99999+99999GF199999999999006711999999MA1100475100205MW1715REMMET11401/06/25 21:07:01 SPECI KMIV 070207Z 31009KT 4SM -SN BR BKN022 BKN060 OVC075 M02/M04 A2967 RMK AO2 P0000 T10221039
0337724075137352025010702207+39366-075078FM-16+0023KMIV V0203205N00365006715MN0028165N5-00225-00395999999ADDAA101000021AU110030015AU200001015AW1105AW2715GA1075+006715999GA2075+018295999GA3085+022865999GD13991+0067159GD23991+0182959GD34991+0228659GE19AGL   +99999+99999GF199999999999006711999999MA1100515100235MW1715REMMET11801/06/25 21:20:01 SPECI KMIV 070220Z 32007KT 1 3/4SM -SN BR BKN022 BKN060 OVC075 M02/M04 A2968 RMK AO2 P0000 T10221039
0306724075137352025010702327+39366-075078FM-16+0023KMIV V0203105N00415003665MN0016095N5-00225-00335999999ADDAA101000231AU110030015AU200001015AW1105AW2715GA1075+003665999GA2085+018295999GD13991+0036659GD24991+0182959GE19AGL   +99999+99999GF199999999999003661999999MA1100545100275MW1715OC100825REMMET11001/06/25 21:32:01 SPECI KMIV 070232Z 31008G16KT 1SM -SN BR BKN012 OVC060 M02/M03 A2969 RMK AO2 P0001 T10221033
0306724075137352025010702407+39366-075078FM-16+0023KMIV V0203005N00415004275MN0024145N5-00225-00335999999ADDAA101000231AU110030015AU200001015AW1105AW2715GA1025+002445999GA2085+004275999GD11991+0024459GD24991+0042759GE19AGL   +99999+99999GF199999999999002441999999MA1100585100305MW1715REMMET11801/06/25 21:40:01 SPECI KMIV 070240Z 30008KT 1 1/2SM -SN BR FEW008 OVC014 M02/M03 A2970 RMK AO2 PRESRR P0001 T10221033
0289724075137352025010702507+39366-075078FM-16+0023KMIV V0203005N00465004575MN0020125N5-00205-00405999999ADDAA101000231AU110030015AU200001015AW1105AW2715GA1025+002445999GA2085+004575999GD11991+0024459GD24991+0045759GE19AGL   +99999+99999GF199999999999002441999999MA1100585100305MW1715REMMET10101/06/25 21:50:01 SPECI KMIV 070250Z 30009KT 1 1/4SM -SN BR FEW008 OVC015 M02/M04 A2970 RMK AO2 P0001
0362724075137352025010702547+39366-075078FM-15+0023KMIV V0203205N00515005185MN0020125N5-00225-00395100595ADDAA101000595AA203000591AU110030015AU200001015AW1105AW2715GA1025+003055999GA2085+005185999GD11991+0030559GD24991+0051859GE19AGL   +99999+99999GF199999999999003051999999MA1100615100335MD1190239+9999MW1715REMMET13001/06/25 21:54:01 METAR KMIV 070254Z 32010KT 1 1/4SM -SN BR FEW010 OVC017 M02/M04 A2971 RMK AO2 SLP059 P0001 60002 T10221039 51023EQDQ01  00058PRCP03
0348724075137352025010703247+39366-075078FM-16+0023KMIV V0203205N00515008235MN0040235N5-00225-00445999999ADDAA101000231AU110030015AU200001015AW1105AW2715GA1025+003055999GA2045+004575999GA3085+008235999GD11991+0030559GD22991+0045759GD34991+0082359GE19AGL   +99999+99999GF199999999999003051999999MA1100645100375MW1715OC100985REMMET12101/06/25 22:24:02 SPECI KMIV 070324Z 32010G19KT 2 1/2SM -SN BR FEW010 SCT015 OVC027 M02/M04 A2972 RMK AO2 P0001 T10221044
0344724075137352025010703267+39366-075078FM-16+0023KMIV V0203305N00465009755MN0048285N5-00225-00445999999ADDAA101000231AU110030015AU200001015AW1105AW2715GA1025+003055999GA2025+004575999GA3085+009755999GD11991+0030559GD21991+0045759GD34991+0097559GE19AGL   +99999+99999GF199999999999003051999999MA1100645100375MW1715OC100985REMMET11701/06/25 22:26:02 SPECI KMIV 070326Z 33009G19KT 3SM -SN BR FEW010 FEW015 OVC032 M02/M04 A2972 RMK AO2 P0001 T10221044
0310724075137352025010703547+39366-075078FM-15+0023KMIV V0203305N00515015245MN0144845N5-00285-00565100685ADDAA101000025GA1025+004275999GA2075+015245999GA3085+021345999GD11991+0042759GD23991+0152459GD34991+0213459GE19AGL   +99999+99999GF199999999999004271999999MA1100685100405OC101035REMMET12301/06/25 22:54:02 METAR KMIV 070354Z 33010G20KT 9SM FEW014 BKN050 OVC070 M03/M06 A2973 RMK AO2 SNE51 SLP068 P0001 T10281056
0377724075137352025010704547+39366-075078FM-15+0023KMIV V0203205N00575015245MN0096565N5-00445-00785100765ADDAA101000025AU100007015AW1051GA1075+015245999GA2085+019815999GD13991+0152459GD24991+0198159GE19AGL   +99999+99999GF199999999999015241999999KA1240M-00171KA2240N-00441MA1100785100505MW1055OC101085OD149901331350REMMET15801/06/25 23:54:02 METAR KMIV 070454Z 32011G21KT 6SM HZ BKN050 OVC065 M04/M08 A2976 RMK AO2 PK WND 35026/0420 SNB0356E09B25E45 SLP076 P0000 T10441078 410171044
0943724075137352025010704596+39366-075078SOD  +0023KMIV V020999999999999999999999999999+99999+99999999999ADDAA124007995AT1AU18SN  5AT2AU22FZFG5AT3AU13BR  5AT4AU08HZ  5AT5AW01FG  5KA1240M-00165KA2240N-00435MG1100834100304OE11240134135023205OE22240093932023225OE33240030099999995REMSOD72724 HR PRECIPITATION (IN):0.31  24 HR MAX TEMP (F):29 24 HR MAX TEMP TIME (LST):0118 24 HR MIN TEMP (F):24 24 HR MIN TEMP TIME (LST):2359 AVERAGE STATION PRESSURE:29.775 MINIMUM SEA LEVEL PRESSURE:29.62 TIME OF OCCURRENCE:1932 PEAK WIND SPEED (MPH):30  PEAK WIND DIR (DEG):350 PEAK WIND TIME (LST):2320  FASTEST 2MIN SPEED (MPH):21 FASTEST 2MIN DIR (DEG):320 FASTEST 2MIN TIME (LST):2322 AVERAGE WIND SPEED (MPH):6.7  24 HR AVG TEMP (F):27 HEATING DEGREE DAYS:38  COOLING DEGREE DAYS:0   LATEST DAY MAX TEMP (0700-1900 LST):28  LATEST NIGHT MIN TEMP(1900-0800 LST):24 HOURLY INCREMENTAL PRECIPITATION VALUES (IN):.00 0.00 0.00 0.00 T    0.03 0.05 0.05 0.04 0.04 0.02 0.04 0.01 T    T    0.00 T    T    0.00 T    0.01 0.02 T    TEQDR01     N7GJS072R02     N7GKS075
0380724075137352025010705547+39366-075078FM-15+0023KMIV V0203305N007752200059N0160935N5-00505-01175100815ADDAA101000025AA206000891GA1045+014335999GD12991+0143359GE19AGL   +99999+99999GF104995999999014331999999KA1060M-00221KA2060N-00561MA1100815100545MD1190229+9999OC101295OD149901491330REMMET15501/07/25 00:54:02 METAR KMIV 070554Z 33015G25KT 10SM SCT047 M05/M12 A2977 RMK AO2 PK WND 33029/0514 SNB14E27 SLP081 P0000 60003 T10501117 11022 21056 51022EQDQ01  00078PRCP06D01      0ADE726
0198724075137352025010706547+39366-075078FM-15+0023KMIV V0203205N005752200059N0160935N5-00615-01285100945ADDAA101000095GA1005+999999999GD10991+9999999GF100991999999999999999999MA1100955100675OC101295REMMET09501/07/25 01:54:02 METAR KMIV 070654Z 32011G25KT 10SM CLR M06/M13 A2981 RMK AO2 SLP094 T10611128
0198724075137352025010707547+39366-075078FM-15+0023KMIV V0203205N006252200059N0160935N5-00725-01395101045ADDAA101000095GA1005+999999999GD10991+9999999GF100991999999999999999999MA1101055100775OC101035REMMET09501/07/25 02:54:02 METAR KMIV 070754Z 32012G20KT 10SM CLR M07/M14 A2984 RMK AO2 SLP104 T10721139
0205724075137352025010708447+39366-075078FM-16+0023KMIV V0203205N00675008235MN0160935N5-00725-01395999999ADDGA1075+008235999GD13991+0082359GE19AGL   +99999+99999GF199999999999008231999999MA1101055100775OC100985REMMET09101/07/25 03:44:02 SPECI KMIV 070844Z 32013G19KT 10SM BKN027 M07/M14 A2984 RMK AO2 T10721139
0243724075137352025010708547+39366-075078FM-15+0023KMIV V0203105N00575008235MN0160935N5-00725-01335101045ADDAA101000095GA1085+008235999GD14991+0082359GE19AGL   +99999+99999GF199999999999008231999999MA1101055100775MD1090239+9999OC100985REMMET10401/07/25 03:54:02 METAR KMIV 070854Z 31011G19KT 10SM OVC027 M07/M13 A2984 RMK AO2 SLP104 T10721133 50023
0205724075137352025010709367+39366-075078FM-16+0023KMIV V0203105N00515009455MN0160935N5-00725-01335999999ADDGA1075+009455999GD13991+0094559GE19AGL   +99999+99999GF199999999999009451999999MA1101085100815OC100935REMMET09101/07/25 04:36:02 SPECI KMIV 070936Z 31010G18KT 10SM BKN031 M07/M13 A2985 RMK AO2 T10721133
0242724075137352025010709547+39366-075078FM-15+0023KMIV V0203105N006252200059N0160935N5-00725-01335101105ADDAA101000095GA1045+009455999GD12991+0094559GE19AGL   +99999+99999GF104995999999009451999999MA1101125100845OC101035REMMET09801/07/25 04:54:02 METAR KMIV 070954Z 31012G20KT 10SM SCT031 M07/M13 A2986 RMK AO2 SLP110 T10721133EQDD01      0ADE726
0274724075137352025010710547+39366-075078FM-15+0023KMIV V0203105N006752200059N0160935N5-00675-01335101195ADDAA101000095GA1025+010065999GD11991+0100659GE19AGL   +99999+99999GF102995999999010061999999MA1101195100915OC101135OD149901331320REMMET11601/07/25 05:54:02 METAR KMIV 071054Z 31013G22KT 10SM FEW033 M07/M13 A2988 RMK AO2 PK WND 32026/1004 SLP119 T10671133EQDD01      0ADE726
0273724075137352025010711547+39366-075078FM-15+0023KMIV V0203005N006252200059N0160935N5-00675-01335101295ADDAA101000095AA224005891GA1005+999999999GD10991+9999999GF100991999999999999999999KA1060M-00501KA2060N-00781MA1101295101015MD1390249+9999OC101135REMMET11901/07/25 06:54:02 METAR KMIV 071154Z 30012G22KT 10SM CLR M07/M13 A2991 RMK AO2 SLP129 70023 T10671133 11050 21078 53024
0187724075137352025010712547+39366-075078FM-15+0023KMIV V0203005N005152200059N0160935N5-00675-01395101315ADDAA101000095GA1005+999999999GD10991+9999999GF100991999999999999999999MA1101325101045REMMET09201/07/25 07:54:02 METAR KMIV 071254Z 30010KT 10SM CLR M07/M14 A2992 RMK AO2 SLP131 T10671139
0198724075137352025010713547+39366-075078FM-15+0023KMIV V0202905N006752200059N0160935N5-00565-01335101365ADDAA101000095GA1005+999999999GD10991+9999999GF100991999999999999999999MA1101395101115OC100985REMMET09501/07/25 08:54:02 METAR KMIV 071354Z 29013G19KT 10SM CLR M06/M13 A2994 RMK AO2 SLP136 T10561133
0236724075137352025010714547+39366-075078FM-15+0023KMIV V0203205N005152200059N0160935N5-00395-01225101405ADDAA101000095GA1005+999999999GD10991+9999999GF100991999999999999999999MA1101425101155MD1390129+9999OC101345REMMET11901/07/25 09:54:02 METAR KMIV 071454Z 32010G26KT 10SM CLR M04/M12 A2995 RMK AO2 PK WND 30030/1421 SLP140 T10391122 53012
0216724075137352025010715547+39366-075078FM-15+0023KMIV V0203005N007752200059N0160935N5-00285-01175101415ADDAA101000095GA1005+999999999GD10991+9999999GF100991999999999999999999MA1101425101155OC101295REMMET11301/07/25 10:54:02 METAR KMIV 071554Z 30015G25KT 10SM CLR M03/M12 A2995 RMK AO2 PK WND 30030/1544 SLP141 T10281117
0216724075137352025010716547+39366-075078FM-15+0023KMIV V0203005N009352200059N0160935N5-00175-01115101375ADDAA101000095GA1005+999999999GD10991+9999999GF100991999999999999999999MA1101395101115OC101605REMMET11301/07/25 11:54:02 METAR KMIV 071654Z 30018G31KT 10SM CLR M02/M11 A2994 RMK AO2 PK WND 29031/1645 SLP137 T10171111
0274724075137352025010717547+39366-075078FM-15+0023KMIV V0203105N007752200059N0160935N5-00065-01115101345ADDAA101000095GA1005+999999999GD10991+9999999GF100991999999999999999999KA1060M-00061KA2060N-00721MA1101355101085MD1890069+9999OC101655REMMET13101/07/25 12:54:02 METAR KMIV 071754Z 31015G32KT 10SM CLR M01/M11 A2993 RMK AO2 PK WND 30034/1700 SLP134 T10061111 11006 21072 58006
0214724075137352025010718547+39366-075078FM-15+0023KMIV V0203005N008852200059N0144845N5+00005-01065101355ADDAA101000095GA1005+999999999GD10991+9999999GF100991999999999999999999MA1101355101085OC101755REMMET11101/07/25 13:54:02 METAR KMIV 071854Z 30017G34KT 9SM CLR 00/M11 A2993 RMK AO2 PK WND 30034/1849 SLP135 T00001106
0215724075137352025010719547+39366-075078FM-15+0023KMIV V0202905N010352200059N0160935N5+00005-01005101415ADDAA101000095GA1005+999999999GD10991+9999999GF100991999999999999999999MA1101425101155OC101445REMMET11201/07/25 14:54:02 METAR KMIV 071954Z 29020G28KT 10SM CLR 00/M10 A2995 RMK AO2 PK WND 27033/1922 SLP141 T00001100
0209724075137352025010720546+39366-075078FM-15+0023KMIV V0203005N006752200059N0160935N5+00065-01065101495ADDAA101000095GA1005+999999999GD10991+9999999MA1101495101215MD1390159+9999OC101295REMMET11801/07/25 15:54:02 METAR KMIV 072054Z 30013G25KT 10SM CLR 01/M11 A2997 RMK AO2 PK WND 29034/1956 SLP149 T00061106 53015
0216724075137352025010721547+39366-075078FM-15+0023KMIV V0202905N008252200059N0160935N5-00065-01065101575ADDAA101000095GA1005+999999999GD10991+9999999GF100991999999999999999999MA1101595101315OC101345REMMET11301/07/25 16:54:02 METAR KMIV 072154Z 29016G26KT 10SM CLR M01/M11 A3000 RMK AO2 PK WND 27027/2117 SLP157 T10061106
0198724075137352025010722547+39366-075078FM-15+0023KMIV V0203005N006252200059N0160935N5-00065-01005101645ADDAA101000095GA1005+999999999GD10991+9999999GF100991999999999999999999MA1101665101385OC101185REMMET09501/07/25 17:54:02 METAR KMIV 072254Z 30012G23KT 10SM CLR M01/M10 A3002 RMK AO2 SLP164 T10061100
0274724075137352025010723547+39366-075078FM-15+0023KMIV V0203005N006752200059N0160935N5-00115-01065101705ADDAA101000095GA1005+999999999GD10991+9999999GF100991999999999999999999KA1060M+00061KA2060N-00111MA1101695101425MD1190219+9999OC101345REMMET13101/07/25 18:54:02 METAR KMIV 072354Z 30013G26KT 10SM CLR M01/M11 A3003 RMK AO2 PK WND 31026/2351 SLP170 T10111106 10006 21011 51021
0216724075137352025010800547+39366-075078FM-15+0023KMIV V0203105N007752200059N0160935N5-00115-01225101745ADDAA101000095GA1005+999999999GD10991+9999999GF100991999999999999999999MA1101765101485OC101495REMMET11301/07/25 19:54:01 METAR KMIV 080054Z 31015G29KT 10SM CLR M01/M12 A3005 RMK AO2 PK WND 32029/0046 SLP174 T10111122
0216724075137352025010801547+39366-075078FM-15+0023KMIV V0203105N006752200059N0160935N5-00175-01225101755ADDAA101000095GA1005+999999999GD10991+9999999GF100991999999999999999999MA1101765101485OC101135REMMET11301/07/25 20:54:01 METAR KMIV 080154Z 31013G22KT 10SM CLR M02/M12 A3005 RMK AO2 PK WND 33028/0117 SLP175 T10171122
0218724075137352025010802547+39366-075078FM-15+0023KMIV V0203105N007252200059N0160935N5-00225-01225101795ADDAA101000095GA1005+999999999GD10991+9999999GF100991999999999999999999MA1101795101525MD1190099+9999OC101185REMMET10101/07/25 21:54:01 METAR KMIV 080254Z 31014G23KT 10SM CLR M02/M12 A3006 RMK AO2 SLP179 T10221122 51009
0187724075137352025010803547+39366-075078FM-15+0023KMIV V0203105N003652200059N0160935N5-00285-01225101815ADDAA101000095GA1005+999999999GD10991+9999999GF100991999999999999999999MA1101835101555REMMET09201/07/25 22:54:02 METAR KMIV 080354Z 31007KT 10SM CLR M03/M12 A3007 RMK AO2 SLP181 T10281122
0223724075137352025010804547+39366-075078FM-15+0023KMIV V0202905N003152200059N0160935N5-00565-01285101835ADDAA101000095GA1005+999999999GD10991+9999999GF100991999999999999999999KA1240M+00061KA2240N-00781MA1101835101555REMMET10201/07/25 23:54:02 METAR KMIV 080454Z 29006KT 10SM CLR M06/M13 A3007 RMK AO2 SLP183 T10561128 400061078
0886724075137352025010804596+39366-075078SOD  +0023KMIV V020999999999999999999999999999+99999+99999999999ADDAA124000025KA1240M+00065KA2240N-00775MG1100984100754OE11240174330012005OE22240116230014145OE33240067199999995REMSOD73024 HR PRECIPITATION (IN):T     24 HR MAX TEMP (F):33 24 HR MAX TEMP TIME (LST):1557 24 HR MIN TEMP (F):18 24 HR MIN TEMP TIME (LST):0402 AVERAGE STATION PRESSURE:29.820 MINIMUM SEA LEVEL PRESSURE:29.75 TIME OF OCCURRENCE:0003 PEAK WIND SPEED (MPH):39  PEAK WIND DIR (DEG):300 PEAK WIND TIME (LST):1200  FASTEST 2MIN SPEED (MPH):26 FASTEST 2MIN DIR (DEG):300 FASTEST 2MIN TIME (LST):1414 AVERAGE WIND SPEED (MPH):15.0 24 HR AVG TEMP (F):26 HEATING DEGREE DAYS:39  COOLING DEGREE DAYS:0   LATEST DAY MAX TEMP (0700-1900 LST):33  LATEST NIGHT MIN TEMP(1900-0800 LST):18 HOURLY INCREMENTAL PRECIPITATION VALUES (IN):    0.00 0.00 0.00 0.00 0.00 0.00 0.00 0.00 0.00 0.00 0.00 0.00 0.00 0.00 0.00 0.00 0.00 0.00 0.00 0.00 0.00 0.00 0.00EQDR01     N7GJS072R02     N7GKS075
0289724075137352025010805547+39366-075078FM-15+0023KMIV V0203005N003652200059N0160935N5-00565-01225101825ADDAA101000095GA1025+013415999GD11991+0134159GE19AGL   +99999+99999GF102995999999013411999999KA1060M-00111KA2060N-00721MA1101835101555MD1090039+9999REMMET11301/08/25 00:54:02 METAR KMIV 080554Z 30007KT 10SM FEW044 M06/M12 A3007 RMK AO2 SLP182 T10561122 11011 21072 50003EQDD01      0ADE726
0212724075137352025010806547+39366-075078FM-15+0023KMIV V0202605N00155014025MN0160935N5-00505-01175101855ADDAA101000095GA1085+014025999GD14991+0140259GE19AGL   +99999+99999GF199999999999014021999999MA1101865101595REMMET09501/08/25 01:54:02 METAR KMIV 080654Z 26003KT 10SM OVC046 M05/M12 A3008 RMK AO2 SLP185 T10501117
0212724075137352025010807547+39366-075078FM-15+0023KMIV V0202905N00415013725MN0160935N5-00285-01065101835ADDAA101000095GA1085+013725999GD14991+0137259GE19AGL   +99999+99999GF199999999999013721999999MA1101835101555REMMET09501/08/25 02:54:02 METAR KMIV 080754Z 29008KT 10SM OVC045 M03/M11 A3007 RMK AO2 SLP183 T10281106
0232724075137352025010808547+39366-075078FM-15+0023KMIV V0202905N00465013725MN0160935N5-00285-01115101805ADDAA101000095GA1085+013725999GD14991+0137259GE19AGL   +99999+99999GF199999999999013721999999MA1101795101525MD1890029+9999REMMET10101/08/25 03:54:02 METAR KMIV 080854Z 29009KT 10SM OVC045 M03/M11 A3006 RMK AO2 SLP180 T10281111 58002
0242724075137352025010809547+39366-075078FM-15+0023KMIV V0203005N006252200059N0160935N5-00285-01225101805ADDAA101000095GA1045+013115999GD12991+0131159GE19AGL   +99999+99999GF104995999999013111999999MA1101795101525OC101135REMMET09801/08/25 04:54:02 METAR KMIV 080954Z 30012G22KT 10SM SCT043 M03/M12 A3006 RMK AO2 SLP180 T10281122EQDD01      0ADE726
0187724075137352025010810547+39366-075078FM-15+0023KMIV V0202905N004652200059N0160935N5-00395-01175101825ADDAA101000095GA1005+999999999GD10991+9999999GF100991999999999999999999MA1101835101555REMMET09201/08/25 05:54:02 METAR KMIV 081054Z 29009KT 10SM CLR M04/M12 A3007 RMK AO2 SLP182 T10391117
0256724075137352025010811547+39366-075078FM-15+0023KMIV V0202805N004152200059N0160935N5-00445-01225101855ADDAA101000095GA1005+999999999GD10991+9999999GF100991999999999999999999KA1060M-00221KA2060N-00611MA1101865101595MD1390059+9999OC101035REMMET11301/08/25 06:54:02 METAR KMIV 081154Z 28008G20KT 10SM CLR M04/M12 A3008 RMK AO2 SLP185 T10441122 11022 21061 53005
0187724075137352025010812547+39366-075078FM-15+0023KMIV V0202605N003652200059N0160935N5-00505-01285101875ADDAA101000095GA1005+999999999GD10991+9999999GF100991999999999999999999MA1101865101595REMMET09201/08/25 07:54:02 METAR KMIV 081254Z 26007KT 10SM CLR M05/M13 A3008 RMK AO2 SLP187 T10501128
0212724075137352025010813547+39366-075078FM-15+0023KMIV V0202905N00515014335MN0160935N5-00285-01175101865ADDAA101000095GA1075+014335999GD13991+0143359GE19AGL   +99999+99999GF199999999999014331999999MA1101865101595REMMET09501/08/25 08:54:02 METAR KMIV 081354Z 29010KT 10SM BKN047 M03/M12 A3008 RMK AO2 SLP186 T10281117
0275724075137352025010814547+39366-075078FM-15+0023KMIV V0203005N00775014025MN0160935N5-00175-01175101845ADDAA101000095GA1085+014025999GD14991+0140259GE19AGL   +99999+99999GF199999999999014021999999MA1101835101555MD1890029+9999OC101295OD149901331300REMMET12201/08/25 09:54:02 METAR KMIV 081454Z 30015G25KT 10SM OVC046 M02/M12 A3007 RMK AO2 PK WND 30026/1432 SLP184 T10171117 58002
0255724075137352025010815547+39366-075078FM-15+0023KMIV V0203105N00825013725MN0160935N5-00115-01225101755ADDAA101000095GA1075+013725999GD13991+0137259GE19AGL   +99999+99999GF199999999999013721999999MA1101765101485OC101245OD149901491330REMMET11601/08/25 10:54:02 METAR KMIV 081554Z 31016G24KT 10SM BKN045 M01/M12 A3005 RMK AO2 PK WND 33029/1458 SLP175 T10111122
0255724075137352025010816547+39366-075078FM-15+0023KMIV V0203005N00885014635MN0160935N5-00065-01225101625ADDAA101000095GA1085+014635999GD14991+0146359GE19AGL   +99999+99999GF199999999999014631999999MA1101635101355OC101495OD149901591310REMMET11601/08/25 11:54:02 METAR KMIV 081654Z 30017G29KT 10SM OVC048 M01/M12 A3001 RMK AO2 PK WND 31031/1608 SLP162 T10061122
0313724075137352025010817547+39366-075078FM-15+0023KMIV V0203005N00985015245MN0160935N5-00065-01225101495ADDAA101000095GA1075+015245999GD13991+0152459GE19AGL   +99999+99999GF199999999999015241999999KA1060M-00061KA2060N-00501MA1101495101215MD1890349+9999OC101605OD149901591300REMMET13401/08/25 12:54:02 METAR KMIV 081754Z 30019G31KT 10SM BKN050 M01/M12 A2997 RMK AO2 PK WND 30031/1748 SLP149 T10061122 11006 21050 58034
0274724075137352025010818547+39366-075078FM-15+0023KMIV V0203005N007752200059N0160935N5-00065-01175101375ADDAA101000095GA1025+015245999GD11991+0152459GE19AGL   +99999+99999GF102995999999015241999999MA1101395101115OC101345OD149901441300REMMET11601/08/25 13:54:02 METAR KMIV 081854Z 30015G26KT 10SM FEW050 M01/M12 A2994 RMK AO2 PK WND 30028/1758 SLP137 T10061117EQDD01      0ADE726
0216724075137352025010819547+39366-075078FM-15+0023KMIV V0203005N008852200059N0160935N5-00065-01285101335ADDAA101000095GA1005+999999999GD10991+9999999GF100991999999999999999999MA1101325101045OC101295REMMET11301/08/25 14:54:02 METAR KMIV 081954Z 30017G25KT 10SM CLR M01/M13 A2992 RMK AO2 PK WND 30030/1921 SLP133 T10061128
