0184724090147802025010315007+40033-074350FM-15+0031KNEL V0202405N005152200059N0160935N5-00065-00895101515ADDGA1005+999999999GD10991+9999999GF100991999999999999999999MA1101525101155REMMET10001/03/25 10:00:02 METAR KNEL 031500Z 24010KT 10SM CLR M01/M09 A2998 RMK AO2 SLP151 6//// T10061089 $
0188724090147802025010316007+40033-074350FM-15+0031KNEL V0202605N005752200059N0160935N5+00065-00895101385ADDGA1005+999999999GD10991+9999999GF100991999999999999999999MA1101395101025OC101085REMMET09601/03/25 11:00:02 METAR KNEL 031600Z 26011G21KT 10SM CLR 01/M09 A2994 RMK AO2 SLP138 T00061089 $
0188724090147802025010317007+40033-074350FM-15+0031KNEL V0202605N004652200059N0160935N5+00065-00945101225ADDGA1005+999999999GD10991+9999999GF100991999999999999999999MA1101225100855OC100935REMMET09601/03/25 12:00:02 METAR KNEL 031700Z 26009G18KT 10SM CLR 01/M09 A2989 RMK AO2 SLP122 T00061094 $
0221724090147802025010318007+40033-074350FM-15+0031KNEL V0202505N006752200059N0160935N5+00175-00945101095ADDGA1005+999999999GD10991+9999999GF100991999999999999999999KA1060M+00171KA2060N-00331MA1101085100715REMMET11101/03/25 13:00:02 METAR KNEL 031800Z 25013KT 10SM CLR 02/M09 A2985 RMK AO2 SLP109 6//// T00171094 10017 21033 $
0222724090147802025010321007+40033-074350FM-15+0031KNEL V0202505N00515019815MN0160935N5+00225-00675100945ADDGA1085+019815999GD14991+0198159GE19AGL   +99999+99999GF199999999999019811999999MA1100955100585MD1690279+9999REMMET10201/03/25 16:00:02 METAR KNEL 032100Z 25010KT 10SM OVC065 02/M07 A2981 RMK AO2 SLP094 T00221067 56027 $
0240724090147802025010322007+40033-074350FM-15+0031KNEL V0202705N00365013725MN0160935N5+00115-00565100955ADDGA1075+013725999GA2085+015245999GD13991+0137259GD24991+0152459GE19AGL   +99999+99999GF199999999999013721999999MA1100955100585REMMET10301/03/25 17:00:02 METAR KNEL 032200Z 27007KT 10SM BKN045 OVC050 01/M06 A2981 RMK AO2 SLP095 T00111056 $
0324724090147802025010322427+40033-074350FM-16+0031KNEL V0202905N00465010065MN0028165N5+00005-00285999999ADDAA101000021AU110030015AW1715GA1025+006105999GA2045+007625999GA3085+010065999GD11991+0061059GD22991+0076259GD34991+0100659GE19AGL   +99999+99999GF199999999999006101999999MA1101025100645MW1715REMMET12201/03/25 17:42:02 SPECI KNEL 032242Z 29009KT 1 3/4SM -SN FEW020 SCT025 OVC033 00/M03 A2983 RMK AO2 SNB29 P0000 T00001028 $
0345724090147802025010322537+40033-074350FM-16+0031KNEL V0202905N00315004885MN0028165N5-00065-00175999999ADDAA101000021AU110030015AU200001015AW1105AW2715GA1045+003055999GA2075+004885999GA3085+008235999GD12991+0030559GD23991+0048859GD34991+0082359GE19AGL   +99999+99999GF199999999999003051999999MA1101025100645MW1715REMMET12601/03/25 17:53:02 SPECI KNEL 032253Z 29006KT 1 3/4SM -SN BR SCT010 BKN016 OVC027 M01/M02 A2983 RMK AO2 SNB29 P0000 T10061017 $
0299724090147802025010323007+40033-074350FM-16+0031KNEL V0202805N00315003055MN0028165N5-00105-00205999999ADDAA101000021AU110030015AU200001015AW1105AW2715GA1075+003055999GA2085+005795999GD13991+0030559GD24991+0057959GE19AGL   +99999+99999GF199999999999003051999999MA1101025100645MW1715REMMET11101/03/25 18:00:02 SPECI KNEL 032300Z 28006KT 1 3/4SM -SN BR BKN010 OVC019 M01/M02 A2983 RMK AO2 SNB2229 P0000 $
0316724090147802025010323067+40033-074350FM-15+0031KNEL V0202805N00315003055MN0024145N5-00065-00175100995ADDAA101000021AU110030015AU200001015AW1105AW2715GA1075+003055999GA2085+005185999GD13991+0030559GD24991+0051859GE19AGL   +99999+99999GF199999999999003051999999MA1101025100645MW1715REMMET12801/03/25 18:06:02 METAR KNEL 032306Z 28006KT 1 1/2SM -SN BR BKN010 OVC017 M01/M02 A2983 RMK AO2 SNB2229 SLP099 P0000 T10061017 $
0301724090147802025010323207+40033-074350FM-16+0031KNEL V0202905N00365002445MN0024145N5-00065-00175999999ADDAA101000021AU110030015AU200001015AW1105AW2715GA1075+002445999GA2085+004885999GD13991+0024459GD24991+0048859GE19AGL   +99999+99999GF199999999999002441999999MA1100985100615MW1715REMMET11301/03/25 18:20:02 SPECI KNEL 032320Z 29007KT 1 1/2SM -SN BR BKN008 OVC016 M01/M02 A2982 RMK AO2 P0000 T10061017 $
0335724090147802025010323327+40033-074350FM-16+0031KNEL V0202805N00315002445MN0032195N5-00065-00175999999ADDAA101000021AU110030015AU200001015AW1105AW2715GA1075+002445999GA2075+004275999GA3085+007625999GD13991+0024459GD23991+0042759GD34991+0076259GE19AGL   +99999+99999GF199999999999002441999999MA1100985100615MW1715REMMET11601/03/25 18:32:02 SPECI KNEL 032332Z 28006KT 2SM -SN BR BKN008 BKN014 OVC025 M01/M02 A2982 RMK AO2 P0000 T10061017 $
0395724090147802025010400007+40033-074350FM-15+0031KNEL V0202905N003152200059N0096565N5-00175-00285100965ADDAA101000021AA206000021AU100001015AW1105GA1045+002445999GA2045+010675999GD12991+0024459GD22991+0106759GE19AGL   +99999+99999GF104995999999002441999999KA1060M+00221KA2060N-00171MA1100955100585MD1090019+9999REMMET14401/03/25 19:00:01 METAR KNEL 040000Z 29006KT 6SM BR SCT008 SCT035 M02/M03 A2981 RMK AO2 SNE2348 SLP096 P0000 60000 T10171028 10022 21017 50001 $EQDQ01  00008PRCP06D01      0ADE726
0197724090147802025010401007+40033-074350FM-15+0031KNEL V0202905N002652200059N0080475N5-00335-00395100935ADDAU100001015AW1105GA1005+999999999GD10991+9999999GF100991999999999999999999MA1100955100585REMMET09601/03/25 20:00:01 METAR KNEL 040100Z 29005KT 5SM BR CLR M03/M04 A2981 RMK AO2 SLP093 T10331039 $
002772409014780202501040459O+40033-074350SOD  +0031KNEL V020999999999999999999999999999+99999+99999999999ADDAT1AU18SN  5AT2AU13BR  5
0203724090147802025010407007+40033-074350FM-15+0031KNEL V0202805N00415015245MN0160935N5-00335-00675100935ADDGA1075+015245999GD13991+0152459GE19AGL   +99999+99999GF199999999999015241999999MA1100955100585REMMET09701/04/25 02:00:02 METAR KNEL 040700Z 28008KT 10SM BKN050 M03/M07 A2981 RMK AO2 SLP093 T10331067 $
0251724090147802025010718007+40033-074350FM-15+0031KNEL V0203005N010352200059N0160935N5-00115-01115100985ADDGA1005+999999999GD10991+9999999GF100991999999999999999999KA1060M-00111KA2060N-00441MA1100985100615OC101495REMMET13301/07/25 13:00:02 METAR KNEL 071800Z 30020G29KT 10SM CLR M01/M11 A2982 RMK AO2 PK WND 30031/1747 SLP098 6//// T10111111 11011 21044 $
0194724090147802025010720007+40033-074350FM-15+0031KNEL V0202905N010859999999N0160935N5+00065-01115101055ADDMA1101055100685OC101605OD149901641290REMMET11001/07/25 15:00:02 METAR KNEL 072000Z 29021G31KT 10SM 01/M11 A2984 RMK AO2 PK WND 29032/1938 SLP105 T00061111 $EQDR01      7SKY009R02      7GAS009
0186724090147802025010721006+40033-074350FM-15+0031KNEL V0202905N009352200059N0160935N5+00005-01065101195ADDGA1005+999999999GD10991+9999999MA1101195100815OC101395REMMET12001/07/25 16:00:02 METAR KNEL 072100Z 29018G27KT 10SM CLR 00/M11 A2988 RMK AO2 PK WND 29031/2002 SLP119 6//// T00001106 $
0207724090147802025010722007+40033-074350FM-15+0031KNEL V0203005N006252200059N0160935N5-00065-01115101295ADDGA1005+999999999GD10991+9999999GF100991999999999999999999MA1101295100915OC101085REMMET11501/07/25 17:00:02 METAR KNEL 072200Z 30012G21KT 10SM CLR M01/M11 A2991 RMK AO2 PK WND 29027/2103 SLP129 T10061111 $
0178724090147802025010723007+40033-074350FM-15+0031KNEL V0203005N003652200059N0160935N5-00175-01115101375ADDGA1005+999999999GD10991+9999999GF100991999999999999999999MA1101395101025REMMET09401/07/25 18:00:02 METAR KNEL 072300Z 30007KT 10SM CLR M02/M11 A2994 RMK AO2 SLP137 T10171111 $
0189724090147802025010801007+40033-074350FM-15+0031KNEL V0203005N007252200059N0160935N5-00225-01115101495ADDGA1005+999999999GD10991+9999999GF100991999999999999999999MA1101495101125OC101135REMMET09701/07/25 20:00:01 METAR KNEL 080100Z 30014G22KT 10SM CLR M02/M11 A2997 RMK AO2 SLP149 T10221111 $
0225724090147802025010805007+40033-074350FM-15+0031KNEL V0203005N007752200059N0160935N5-00395-01335101575ADDGA1005+999999999GD10991+9999999GF100991999999999999999999KA1240M-00391KA2240N-00391MA1101595101225OC101605REMMET10701/08/25 00:00:02 METAR KNEL 080500Z 30015G31KT 10SM CLR M04/M13 A3000 RMK AO2 SLP157 T10391133 410391039 $
0271724090147802025010806007+40033-074350FM-15+0031KNEL V0203005N008852200059N0160935N5-00445-01395101605ADDGA1005+999999999GD10991+9999999GF100991999999999999999999KA1060M-00221KA2060N-00441MA1101595101225MD1090029+9999OC101295REMMET13901/08/25 01:00:02 METAR KNEL 080600Z 30017G25KT 10SM CLR M04/M14 A3000 RMK AO2 PK WND 29028/0546 SLP160 6//// T10441139 11022 21044 50002 $
0209724090147802025010809007+40033-074350FM-15+0031KNEL V0203005N005152200059N0160935N5-00445-01335101625ADDGA1005+999999999GD10991+9999999GF100991999999999999999999MA1101635101255MD1090069+9999OC101185REMMET10301/08/25 04:00:02 METAR KNEL 080900Z 30010G23KT 10SM CLR M04/M13 A3001 RMK AO2 SLP162 T10441133 50006 $
0189724090147802025010810007+40033-074350FM-15+0031KNEL V0203005N006752200059N0160935N5-00445-01335101575ADDGA1005+999999999GD10991+9999999GF100991999999999999999999MA1101595101225OC101135REMMET09701/08/25 05:00:02 METAR KNEL 081000Z 30013G22KT 10SM CLR M04/M13 A3000 RMK AO2 SLP157 T10441133 $
0189724090147802025010811007+40033-074350FM-15+0031KNEL V0203005N004152200059N0160935N5-00445-01335101615ADDGA1005+999999999GD10991+9999999GF100991999999999999999999MA1101635101255OC100935REMMET09701/08/25 06:00:02 METAR KNEL 081100Z 30008G18KT 10SM CLR M04/M13 A3001 RMK AO2 SLP161 T10441133 $
0189724090147802025010813007+40033-074350FM-15+0031KNEL V0202905N007252200059N0160935N5-00505-01395101645ADDGA1005+999999999GD10991+9999999GF100991999999999999999999MA1101665101295OC101085REMMET09701/08/25 08:00:02 METAR KNEL 081300Z 29014G21KT 10SM CLR M05/M14 A3002 RMK AO2 SLP164 T10501139 $
0207724090147802025010816007+40033-074350FM-15+0031KNEL V0203005N008252200059N0160935N5-00225-01395101465ADDGA1005+999999999GD10991+9999999GF100991999999999999999999MA1101495101125OC101605REMMET11501/08/25 11:00:02 METAR KNEL 081600Z 30016G31KT 10SM CLR M02/M14 A2997 RMK AO2 PK WND 29031/1557 SLP146 T10221139 $
0207724090147802025010817007+40033-074350FM-15+0031KNEL V0203005N009852200059N0160935N5-00175-01505101325ADDGA1005+999999999GD10991+9999999GF100991999999999999999999MA1101325100955OC101805REMMET11501/08/25 12:00:02 METAR KNEL 081700Z 30019G35KT 10SM CLR M02/M15 A2992 RMK AO2 PK WND 30035/1651 SLP132 T10171150 $
0265724090147802025010819007+40033-074350FM-15+0031KNEL V0203005N008852200059N0160935N5-00065-01505101115ADDGA1025+018295999GD11991+0182959GE19AGL   +99999+99999GF102995999999018291999999MA1101125100755OC101545OD149901641280REMMET11801/08/25 14:00:02 METAR KNEL 081900Z 30017G30KT 10SM FEW060 M01/M15 A2986 RMK AO2 PK WND 28032/1837 SLP111 T10061150 $EQDD01      0ADE726
0265724090147802025010820007+40033-074350FM-15+0031KNEL V0202905N010852200059N0160935N5-00115-01565101105ADDGA1045+018295999GD12991+0182959GE19AGL   +99999+99999GF104995999999018291999999MA1101125100755OC101495OD149901901270REMMET11801/08/25 15:00:02 METAR KNEL 082000Z 29021G29KT 10SM SCT060 M01/M16 A2986 RMK AO2 PK WND 27037/1907 SLP110 T10111156 $EQDD01      0ADE726
0207724090147802025010821007+40033-074350FM-15+0031KNEL V0202905N007252200059N0160935N5-00175-01615101095ADDGA1005+999999999GD10991+9999999GF100991999999999999999999MA1101085100715OC101345REMMET11501/08/25 16:00:02 METAR KNEL 082100Z 29014G26KT 10SM CLR M02/M16 A2985 RMK AO2 PK WND 30032/2044 SLP109 T10171161 $
0207724090147802025010822007+40033-074350FM-15+0031KNEL V0202905N008252200059N0160935N5-00285-01615101085ADDGA1005+999999999GD10991+9999999GF100991999999999999999999MA1101085100715OC101445REMMET11501/08/25 17:00:02 METAR KNEL 082200Z 29016G28KT 10SM CLR M03/M16 A2985 RMK AO2 PK WND 30033/2128 SLP108 T10281161 $
0207724090147802025010823007+40033-074350FM-15+0031KNEL V0202905N007252200059N0160935N5-00335-01675101105ADDGA1005+999999999GD10991+9999999GF100991999999999999999999MA1101125100755OC101245REMMET11501/08/25 18:00:02 METAR KNEL 082300Z 29014G24KT 10SM CLR M03/M17 A2986 RMK AO2 PK WND 29028/2206 SLP110 T10331167 $
0207724090147802025010901007+40033-074350FM-15+0031KNEL V0203005N006252200059N0160935N5-00445-01675101165ADDGA1005+999999999GD10991+9999999GF100991999999999999999999MA1101155100785OC101295REMMET11501/08/25 20:00:01 METAR KNEL 090100Z 30012G25KT 10SM CLR M04/M17 A2987 RMK AO2 PK WND 28026/0032 SLP116 T10441167 $
0207724090147802025010902007+40033-074350FM-15+0031KNEL V0203005N008252200059N0160935N5-00505-01615101135ADDGA1005+999999999GD10991+9999999GF100991999999999999999999MA1101155100785OC101345REMMET11501/08/25 21:00:01 METAR KNEL 090200Z 30016G26KT 10SM CLR M05/M16 A2987 RMK AO2 PK WND 29031/0124 SLP113 T10501161 $
0265724090147802025010906007+40033-074350FM-15+0031KNEL V0202905N008252200059N0160935N5-00725-01565100975ADDGA1005+999999999GD10991+9999999GF100991999999999999999999KA1060M-00391KA2060N-00721MA1100985100615MD1890109+9999OC101495REMMET13301/09/25 01:00:02 METAR KNEL 090600Z 29016G29KT 10SM CLR M07/M16 A2982 RMK AO2 PK WND 30029/0557 SLP097 T10721156 11039 21072 58010 $
0227724090147802025010909007+40033-074350FM-15+0031KNEL V0202905N009352200059N0160935N5-00725-01565100825ADDGA1005+999999999GD10991+9999999GF100991999999999999999999MA1100855100485MD1690149+9999OC101655REMMET12101/09/25 04:00:02 METAR KNEL 090900Z 29018G32KT 10SM CLR M07/M16 A2978 RMK AO2 PK WND 29032/0854 SLP082 T10721156 56014 $
0265724090147802025010910007+40033-074350FM-15+0031KNEL V0202905N009352200059N0160935N5-00675-01565100795ADDGA1025+028965999GD11991+0289659GE19AGL   +99999+99999GF102995999999028961999999MA1100815100445OC101295OD149901591300REMMET11801/09/25 05:00:02 METAR KNEL 091000Z 29018G25KT 10SM FEW095 M07/M16 A2977 RMK AO2 PK WND 30031/0940 SLP079 T10671156 $EQDD01      0ADE726
0207724090147802025010911007+40033-074350FM-15+0031KNEL V0202905N009352200059N0160935N5-00675-01505100805ADDGA1005+999999999GD10991+9999999GF100991999999999999999999MA1100815100445OC101295REMMET11501/09/25 06:00:02 METAR KNEL 091100Z 29018G25KT 10SM CLR M07/M15 A2977 RMK AO2 PK WND 29031/1001 SLP080 T10671150 $
0268724090147802025010912007+40033-074350FM-15+0031KNEL V0202905N008852200059N0160935N5-00725-01505100885ADDGA1005+999999999GD10991+9999999GF100991999999999999999999KA1060M-00671KA2060N-00721MA1100885100515MD1590089+9999OD149901391280REMMET13001/09/25 07:00:02 METAR KNEL 091200Z 29017KT 10SM CLR M07/M15 A2979 RMK AO2 PK WND 28027/1120 SLP088 T10721150 11067 21072 55008 $
0207724090147802025010913007+40033-074350FM-15+0031KNEL V0203005N007752200059N0160935N5-00675-01505100885ADDGA1005+999999999GD10991+9999999GF100991999999999999999999MA1100885100515OC101295REMMET11501/09/25 08:00:02 METAR KNEL 091300Z 30015G25KT 10SM CLR M07/M15 A2979 RMK AO2 PK WND 28026/1250 SLP088 T10671150 $
0207724090147802025010914007+40033-074350FM-15+0031KNEL V0202905N010352200059N0160935N5-00565-01505100905ADDGA1005+999999999GD10991+9999999GF100991999999999999999999MA1100915100545OC101545REMMET11501/09/25 09:00:02 METAR KNEL 091400Z 29020G30KT 10SM CLR M06/M15 A2980 RMK AO2 PK WND 28032/1318 SLP090 T10561150 $
0227724090147802025010915007+40033-074350FM-15+0031KNEL V0203005N009352200059N0160935N5-00445-01445100915ADDGA1005+999999999GD10991+9999999GF100991999999999999999999MA1100915100545MD1190099+9999OC101705REMMET12101/09/25 10:00:02 METAR KNEL 091500Z 30018G33KT 10SM CLR M04/M14 A2980 RMK AO2 PK WND 30034/1435 SLP091 T10441144 51009 $
0207724090147802025010916007+40033-074350FM-15+0031KNEL V0202905N011352200059N0160935N5-00285-01445100895ADDGA1005+999999999GD10991+9999999GF100991999999999999999999MA1100885100515OC101755REMMET11501/09/25 11:00:02 METAR KNEL 091600Z 29022G34KT 10SM CLR M03/M14 A2979 RMK AO2 PK WND 30042/1518 SLP089 T10281144 $
0207724090147802025010917007+40033-074350FM-15+0031KNEL V0202905N011852200059N0160935N5-00175-01335100845ADDGA1005+999999999GD10991+9999999GF100991999999999999999999MA1100855100485OC101755REMMET11501/09/25 12:00:02 METAR KNEL 091700Z 29023G34KT 10SM CLR M02/M13 A2978 RMK AO2 PK WND 31039/1603 SLP084 T10171133 $
0206724090147802025010920007+40033-074350FM-15+0031KNEL V0203005N010352200059N0160935N5+00065-01175100805ADDGA1005+999999999GD10991+9999999GF100991999999999999999999MA1100815100445OC101655REMMET11401/09/25 15:00:02 METAR KNEL 092000Z 30020G32KT 10SM CLR 01/M12 A2977 RMK AO2 PK WND 29035/1934 SLP080 T00061117 $
0265724090147802025011000007+40033-074350FM-15+0031KNEL V0203005N007752200059N0160935N5-00065-01005101015ADDGA1005+999999999GD10991+9999999GF100991999999999999999999KA1060M+00111KA2060N-00061MA1101025100645MD1390169+9999OC101245REMMET13301/09/25 19:00:01 METAR KNEL 100000Z 30015G24KT 10SM CLR M01/M10 A2983 RMK AO2 PK WND 30034/2317 SLP101 T10061100 10011 21006 53016 $
0207724090147802025011001007+40033-074350FM-15+0031KNEL V0203005N006252200059N0160935N5-00115-01065101125ADDGA1005+999999999GD10991+9999999GF100991999999999999999999MA1101125100755OC101085REMMET11501/09/25 20:00:01 METAR KNEL 100100Z 30012G21KT 10SM CLR M01/M11 A2986 RMK AO2 PK WND 29030/0027 SLP112 T10111106 $
0207724090147802025011004007+40033-074350FM-15+0031KNEL V0203005N008252200059N0160935N5-00285-01065101285ADDGA1005+999999999GD10991+9999999GF100991999999999999999999MA1101295100915OC101605REMMET11501/09/25 23:00:02 METAR KNEL 100400Z 30016G31KT 10SM CLR M03/M11 A2991 RMK AO2 PK WND 30031/0354 SLP128 T10281106 $
0225724090147802025011005007+40033-074350FM-15+0031KNEL V0203005N006252200059N0160935N5-00285-01115101285ADDGA1005+999999999GD10991+9999999GF100991999999999999999999KA1240M-00281KA2240N-00281MA1101295100915OC101295REMMET10701/10/25 00:00:02 METAR KNEL 100500Z 30012G25KT 10SM CLR M03/M11 A2991 RMK AO2 SLP128 T10281111 410281028 $
0265724090147802025011006007+40033-074350FM-15+0031KNEL V0203105N006252200059N0160935N5-00335-01175101305ADDGA1005+999999999GD10991+9999999GF100991999999999999999999KA1060M-00061KA2060N-00331MA1101325100955MD1090099+9999OC100985REMMET13301/10/25 01:00:02 METAR KNEL 100600Z 31012G19KT 10SM CLR M03/M12 A2992 RMK AO2 PK WND 30031/0504 SLP130 T10331117 11006 21033 50009 $
0185724090147802025011010007+40033-074350FM-15+0031KNEL V0203005N005752200059N0160935N5-00505-01225101475ADDGA1005+999999999GD10991+9999999GF100991999999999999999999MA1101495101125REMMET10101/10/25 05:00:02 METAR KNEL 101000Z 30011KT 10SM CLR M05/M12 A2997 RMK AO2 PRESRR SLP147 T10501122 $
0189724090147802025011013007+40033-074350FM-15+0031KNEL V0203005N005152200059N0160935N5-00445-01225101565ADDGA1005+999999999GD10991+9999999GF100991999999999999999999MA1101565101195OC100935REMMET09701/10/25 08:00:02 METAR KNEL 101300Z 30010G18KT 10SM CLR M04/M12 A2999 RMK AO2 SLP156 T10441122 $
0178724090147802025011014007+40033-074350FM-15+0031KNEL V0203005N006252200059N0160935N5-00285-01225101585ADDGA1005+999999999GD10991+9999999GF100991999999999999999999MA1101595101225REMMET09401/10/25 09:00:02 METAR KNEL 101400Z 30012KT 10SM CLR M03/M12 A3000 RMK AO2 SLP158 T10281122 $
0209724090147802025011015007+40033-074350FM-15+0031KNEL V0203105N005152200059N0160935N5-00115-01175101575ADDGA1005+999999999GD10991+9999999GF100991999999999999999999MA1101595101225MD1190089+9999OC100985REMMET10301/10/25 10:00:02 METAR KNEL 101500Z 31010G19KT 10SM CLR M01/M12 A3000 RMK AO2 SLP157 T10111117 51008 $
0235724090147802025011018007+40033-074350FM-15+0031KNEL V0203105V004652200059N0160935N5+00285-01005101295ADDGA1005+999999999GD10991+9999999GF100991999999999999999999KA1060M+00281KA2060N-00561MA1101295100915MD1890199+9999REMMET11101/10/25 13:00:02 METAR KNEL 101800Z 31009KT 10SM CLR 03/M10 A2991 RMK AO2 SLP129 T00281100 10028 21056 58019 $
0177724090147802025011020007+40033-074350FM-15+0031KNEL V0202805N004652200059N0160935N5+00285-01005101295ADDGA1005+999999999GD10991+9999999GF100991999999999999999999MA1101295100915REMMET09301/10/25 15:00:02 METAR KNEL 102000Z 28009KT 10SM CLR 03/M10 A2991 RMK AO2 SLP129 T00281100 $
0197724090147802025011021007+40033-074350FM-15+0031KNEL V0202805N003652200059N0160935N5+00225-00945101225ADDGA1005+999999999GD10991+9999999GF100991999999999999999999MA1101225100855MD1590109+9999REMMET09901/10/25 16:00:02 METAR KNEL 102100Z 28007KT 10SM CLR 02/M09 A2989 RMK AO2 SLP122 T00221094 55010 $
0178724090147802025011022007+40033-074350FM-15+0031KNEL V0202605N002152200059N0160935N5-00115-00945101195ADDGA1005+999999999GD10991+9999999GF100991999999999999999999MA1101195100815REMMET09401/10/25 17:00:02 METAR KNEL 102200Z 26004KT 10SM CLR M01/M09 A2988 RMK AO2 SLP119 T10111094 $
0177724090147802025011023007+40033-074350FM-15+0031KNEL V0202905N002152200059N0160935N5+00005-00895101085ADDGA1005+999999999GD10991+9999999GF100991999999999999999999MA1101085100715REMMET09301/10/25 18:00:02 METAR KNEL 102300Z 29004KT 10SM CLR 00/M09 A2985 RMK AO2 SLP108 T00001089 $
0203724090147802025011102007+40033-074350FM-15+0031KNEL V0202705N00265036585MN0160935N5-00065-01005100975ADDGA1085+036585999GD14991+0365859GE19AGL   +99999+99999GF199999999999036581999999MA1100985100615REMMET09701/10/25 21:00:01 METAR KNEL 110200Z 27005KT 10SM OVC120 M01/M10 A2982 RMK AO2 SLP097 T10061100 $
0223724090147802025011103007+40033-074350FM-15+0031KNEL V0202405N00155036585MN0160935N5-00115-01005100825ADDGA1075+036585999GD13991+0365859GE19AGL   +99999+99999GF199999999999036581999999MA1100855100485MD1890119+9999REMMET10301/10/25 22:00:02 METAR KNEL 110300Z 24003KT 10SM BKN120 M01/M10 A2978 RMK AO2 SLP082 T10111100 58011 $
0210724090147802025011104007+40033-074350FM-15+0031KNEL V0209999C00005033535MN0160935N5-00115-00945100705ADDGA1085+033535999GD14991+0335359GE19AGL   +99999+99999GF199999999999033531999999MA1100715100345REMMET10401/10/25 23:00:02 METAR KNEL 110400Z 00000KT 10SM OVC110 M01/M09 A2974 RMK AO2 PRESFR SLP070 T10111094 $
0259724090147802025011107067+40033-074350FM-15+0031KNEL V0202205N00315008235MN0064375N5-00175-00835100565ADDAA101000021AU110030015AW1715GA1085+008235999GD14991+0082359GE19AGL   +99999+99999GF199999999999008231999999MA1100585100215MW1715REMMET11901/11/25 02:06:02 METAR KNEL 110706Z 22006KT 4SM -SN OVC027 M02/M08 A2970 RMK AO2 SNB01 PRESFR SLP056 P0000 T10171083 $
0243724090147802025011107457+40033-074350FM-16+0031KNEL V0202205N00315006405MN0028165N5-00225-00615999999ADDAA101000021AU110030015AW1715GA1085+006405999GD14991+0064059GE19AGL   +99999+99999GF199999999999006401999999MA1100545100175MW1715REMMET10301/11/25 02:45:02 SPECI KNEL 110745Z 22006KT 1 3/4SM -SN OVC021 M02/M06 A2969 RMK AO2 P0000 T10221061 $
0246724090147802025011108067+40033-074350FM-15+0031KNEL V0202005N00155011285MN0064375N5-00285-00565100455ADDAA101000021AU110030015AW1715GA1085+011285999GD14991+0112859GE19AGL   +99999+99999GF199999999999011281999999MA1100475100105MW1715REMMET10601/11/25 03:06:02 METAR KNEL 110806Z 20003KT 4SM -SN OVC037 M03/M06 A2967 RMK AO2 SLP045 P0000 T10281056 $
0243724090147802025011108157+40033-074350FM-16+0031KNEL V0202405N00315010065MN0028165N5-00285-00565999999ADDAA101000021AU110030015AW1715GA1085+010065999GD14991+0100659GE19AGL   +99999+99999GF199999999999010061999999MA1100475100105MW1715REMMET10301/11/25 03:15:02 SPECI KNEL 110815Z 24006KT 1 3/4SM -SN OVC033 M03/M06 A2967 RMK AO2 P0000 T10281056 $
0263724090147802025011108367+40033-074350FM-16+0031KNEL V0202305N00215007325MN0024145N5-00335-00505999999ADDAA101000021AU110030015AU200001015AW1105AW2715GA1085+007325999GD14991+0073259GE19AGL   +99999+99999GF199999999999007321999999MA1100415100045MW1715REMMET10601/11/25 03:36:02 SPECI KNEL 110836Z 23004KT 1 1/2SM -SN BR OVC024 M03/M05 A2965 RMK AO2 P0000 T10331050 $
0287724090147802025011108557+40033-074350FM-16+0031KNEL V0209999C00005012805MN0064375N5-00305-00405999999ADDAA101000021AU110030015AU200001015AW1105AW2715GA1075+012805999GA2085+018295999GD13991+0128059GD24991+0182959GE19AGL   +99999+99999GF199999999999012801999999MA1100305099945MW1715REMMET09901/11/25 03:55:02 SPECI KNEL 110855Z 00000KT 4SM -SN BR BKN042 OVC060 M03/M04 A2962 RMK AO2 P0000 $
0367724090147802025011109007+40033-074350FM-15+0031KNEL V0209999C00005013415MN0064375N5-00335-00505100275ADDAA101000021AA203000021AU110030015AU200001015AW1105AW2715GA1075+013415999GA2085+018295999GD13991+0134159GD24991+0182959GE19AGL   +99999+99999GF199999999999013411999999MA1100275099905MD1890269+9999MW1715REMMET13501/11/25 04:00:02 METAR KNEL 110900Z 00000KT 4SM -SN BR BKN044 OVC060 M03/M05 A2961 RMK AO2 PRESFR SLP027 P0000 60000 T10331050 58026 $EQDQ01  00008PRCP03
0301724090147802025011109177+40033-074350FM-16+0031KNEL V0209999C00005011585MN0040235N5-00335-00505999999ADDAA101000021AU110030015AU200001015AW1105AW2715GA1075+011585999GA2085+016765999GD13991+0115859GD24991+0167659GE19AGL   +99999+99999GF199999999999011581999999MA1100275099905MW1715REMMET11301/11/25 04:17:02 SPECI KNEL 110917Z 00000KT 2 1/2SM -SN BR BKN038 OVC055 M03/M05 A2961 RMK AO2 P0000 T10331050 $
0327724090147802025011112007+40033-074350FM-15+0031KNEL V0202805N00215008535MN0160935N5-00335-00505100045ADDAA101000021AA206000021GA1085+008535999GD14991+0085359GE19AGL   +99999+99999GF199999999999008531999999KA1060M-00171KA2060N-00331MA1100075099705MD1690229+9999REMMET14001/11/25 07:00:02 METAR KNEL 111200Z 28004KT 10SM OVC028 M03/M05 A2955 RMK AO2 SNB1112E1127 SLP004 P0000 60000 T10331050 11017 21033 56022 $EQDQ01  00008PRCP06
0233724090147802025011112317+40033-074350FM-16+0031KNEL V0202805N00215008235MN0128755N5-00335-00505999999ADDGA1045+002745999GA2085+008235999GD12991+0027459GD24991+0082359GE19AGL   +99999+99999GF199999999999002741999999MA1100035099675REMMET09601/11/25 07:31:02 SPECI KNEL 111231Z 28004KT 8SM SCT009 OVC027 M03/M05 A2954 RMK AO2 T10331050 $
0233724090147802025011112427+40033-074350FM-16+0031KNEL V0202805N00155002745MN0112655N5-00335-00505999999ADDGA1075+002745999GA2085+008235999GD13991+0027459GD24991+0082359GE19AGL   +99999+99999GF199999999999002741999999MA1100035099675REMMET09601/11/25 07:42:02 SPECI KNEL 111242Z 28003KT 7SM BKN009 OVC027 M03/M05 A2954 RMK AO2 T10331050 $
0312724090147802025011115007+40033-074350FM-15+0031KNEL V0203005N00265008535MN0144845N5-00175-00505099965ADDAA103000021GA1045+003965999GA2075+008535999GD12991+0039659GD23991+0085359GE19AGL   +99999+99999GF199999999999003961999999MA1099975099605MD1590079+9999REMMET11501/11/25 10:00:02 METAR KNEL 111500Z 30005KT 9SM SCT013 BKN028 M02/M05 A2952 RMK AO2 SLP996 60000 T10171050 55007 $EQDQ01  00002PRCP03Q02  00008PRCP03
0203724090147802025011117007+40033-074350FM-15+0031KNEL V0203305N00415006405MN0160935N5-00115-00615099805ADDGA1085+006405999GD14991+0064059GE19AGL   +99999+99999GF199999999999006401999999MA1099805099435REMMET09701/11/25 12:00:02 METAR KNEL 111700Z 33008KT 10SM OVC021 M01/M06 A2947 RMK AO2 SLP980 T10111061 $
0272724090147802025011118007+40033-074350FM-15+0031KNEL V0203005N00575007925MN0160935N5-00065-00615099775ADDGA1085+007925999GD14991+0079259GE19AGL   +99999+99999GF199999999999007921999999KA1060M-00061KA2060N-00331MA1099765099405MD1890179+9999OC101035REMMET11801/11/25 13:00:02 METAR KNEL 111800Z 30011G20KT 10SM OVC026 M01/M06 A2946 RMK AO2 SLP977 T10061061 11006 21033 58017 $
0206724090147802025011119447+40033-074350FM-16+0031KNEL V0203005N00515009455MN0160935N5+00005-00675999999ADDGA1085+009455999GD14991+0094559GE19AGL   +99999+99999GF199999999999009451999999MA1099905099535OC101085REMMET09201/11/25 14:44:02 SPECI KNEL 111944Z 30010G21KT 10SM OVC031 00/M07 A2950 RMK AO2 T00001067 $
0213724090147802025011120007+40033-074350FM-15+0031KNEL V0203005N00675010065MN0160935N5+00065-00675099925ADDGA1085+010065999GD14991+0100659GE19AGL   +99999+99999GF199999999999010061999999MA1099935099565OC100985REMMET09901/11/25 15:00:02 METAR KNEL 112000Z 30013G19KT 10SM OVC033 01/M07 A2951 RMK AO2 SLP992 T00061067 $
0213724090147802025011122007+40033-074350FM-15+0031KNEL V0203005N00675012505MN0160935N5+00005-00785100235ADDGA1085+012505999GD14991+0125059GE19AGL   +99999+99999GF199999999999012501999999MA1100245099875OC101245REMMET09901/11/25 17:00:02 METAR KNEL 112200Z 30013G24KT 10SM OVC041 00/M08 A2960 RMK AO2 SLP023 T00001078 $
0189724090147802025011123007+40033-074350FM-15+0031KNEL V0203005N008252200059N0160935N5-00065-00835100375ADDGA1005+999999999GD10991+9999999GF100991999999999999999999MA1100375100005OC101295REMMET09701/11/25 18:00:02 METAR KNEL 112300Z 30016G25KT 10SM CLR M01/M08 A2964 RMK AO2 SLP037 T10061083 $
0247724090147802025011200007+40033-074350FM-15+0031KNEL V0203005N004652200059N0160935N5-00115-00895100545ADDGA1005+999999999GD10991+9999999GF100991999999999999999999KA1060M+00061KA2060N-00111MA1100545100175MD1190459+9999OC100985REMMET11501/11/25 19:00:01 METAR KNEL 120000Z 30009G19KT 10SM CLR M01/M09 A2969 RMK AO2 SLP054 T10111089 10006 21011 51045 $
0198724090147802025011203007+40033-074350FM-15+0031KNEL V0203005N004652200059N0160935N5-00225-00835100795ADDGA1005+999999999GD10991+9999999GF100991999999999999999999MA1100785100415MD1190389+9999REMMET10001/11/25 22:00:01 METAR KNEL 120300Z 30009KT 10SM CLR M02/M08 A2976 RMK AO2 SLP079 T10221083 51038 $
0178724090147802025011204007+40033-074350FM-15+0031KNEL V0202905N004152200059N0160935N5-00285-00835100895ADDGA1005+999999999GD10991+9999999GF100991999999999999999999MA1100915100545REMMET09401/11/25 23:00:02 METAR KNEL 120400Z 29008KT 10SM CLR M03/M08 A2980 RMK AO2 SLP089 T10281083 $
002772409014780202501120459O+40033-074350SOD  +0031KNEL V020999999999999999999999999999+99999+99999999999ADDAT1AU18SN  5AT2AU13BR  5
0178724090147802025011207007+40033-074350FM-15+0031KNEL V0209999C000052200059N0160935N5-00445-00835101075ADDGA1005+999999999GD10991+9999999GF100991999999999999999999MA1101085100715REMMET09401/12/25 02:00:02 METAR KNEL 120700Z 00000KT 10SM CLR M04/M08 A2985 RMK AO2 SLP107 T10441083 $
0203724090147802025011208007+40033-074350FM-15+0031KNEL V0202805N00265010975MN0160935N5-00285-00675101235ADDGA1085+010975999GD14991+0109759GE19AGL   +99999+99999GF199999999999010971999999MA1101225100855REMMET09701/12/25 03:00:02 METAR KNEL 120800Z 28005KT 10SM OVC036 M03/M07 A2989 RMK AO2 SLP123 T10281067 $
0223724090147802025011209007+40033-074350FM-15+0031KNEL V0202805N00315010975MN0160935N5-00115-00675101305ADDGA1085+010975999GD14991+0109759GE19AGL   +99999+99999GF199999999999010971999999MA1101325100955MD1390239+9999REMMET10301/12/25 04:00:02 METAR KNEL 120900Z 28006KT 10SM OVC036 M01/M07 A2992 RMK AO2 SLP130 T10111067 53023 $
0222724090147802025011211007+40033-074350FM-15+0031KNEL V0203105N002652200059N0160935N5-00225-00675101395ADDGA1045+011585999GD12991+0115859GE19AGL   +99999+99999GF104995999999011581999999MA1101395101025REMMET09701/12/25 06:00:02 METAR KNEL 121100Z 31005KT 10SM SCT038 M02/M07 A2994 RMK AO2 SLP139 T10221067 $EQDD01      0ADE726
0177724090147802025011214007+40033-074350FM-15+0031KNEL V0202905N002652200059N0160935N5+00005-00675101585ADDGA1005+999999999GD10991+9999999GF100991999999999999999999MA1101595101225REMMET09301/12/25 09:00:02 METAR KNEL 121400Z 29005KT 10SM CLR 00/M07 A3000 RMK AO2 SLP158 T00001067 $
0239724090147802025011312007+40033-074350FM-15+0031KNEL V0202405N002152200059N0160935N5-00285-00615101585ADDAA124999919GA1005+999999999GD10991+9999999GF100991999999999999999999KA1060M+00281KA2060N-00561MA1101595101225REMMET11801/13/25 07:00:02 METAR KNEL 131200Z 24004KT 10SM CLR M03/M06 A3000 RMK AO2 SLP158 6//// 7//// T10281061 10028 21056 $
0202724090147802025011319007+40033-074350FM-15+0031KNEL V0202605N00465018295MN0160935N5+00505-00505101275ADDGA1085+018295999GD14991+0182959GE19AGL   +99999+99999GF199999999999018291999999MA1101295100915REMMET09601/13/25 14:00:02 METAR KNEL 131900Z 26009KT 10SM OVC060 05/M05 A2991 RMK AO2 SLP127 T00501050 $
0163724090147802025011420007+40033-074350FM-15+0031KNEL V0202805N006759999999N0160935N5-00065-01565101635ADDMA1101635101255OC101295REMMET09301/14/25 15:00:02 METAR KNEL 142000Z 28013G25KT 10SM M01/M16 A3001 RMK AO2 SLP163 T10061156 $EQDR01      7SKY009R02      7GAS009
0213724090147802025011421007+40033-074350FM-15+0031KNEL V0202905N005752200059N0160935N5-00115-01615101645ADDGA1005+999999999GD10991+9999999GF100991999999999999999999MA1101665101295OC101185REMMET12101/14/25 16:00:02 METAR KNEL 142100Z 29011G23KT 10SM CLR M01/M16 A3002 RMK AO2 PK WND 29026/2022 SLP164 6//// T10111161 $
0178724090147802025011422007+40033-074350FM-15+0031KNEL V0202705N005752200059N0160935N5-00225-01565101635ADDGA1005+999999999GD10991+9999999GF100991999999999999999999MA1101635101255REMMET09401/14/25 17:00:02 METAR KNEL 142200Z 27011KT 10SM CLR M02/M16 A3001 RMK AO2 SLP163 T10221156 $
0178724090147802025011423007+40033-074350FM-15+0031KNEL V0202805N005752200059N0160935N5-00225-01565101675ADDGA1005+999999999GD10991+9999999GF100991999999999999999999MA1101665101295REMMET09401/14/25 18:00:02 METAR KNEL 142300Z 28011KT 10SM CLR M02/M16 A3002 RMK AO2 SLP167 T10221156 $
0203724090147802025011501007+40033-074350FM-15+0031KNEL V0202605N00415036585MN0160935N5-00335-01505101715ADDGA1075+036585999GD13991+0365859GE19AGL   +99999+99999GF199999999999036581999999MA1101735101355REMMET09701/14/25 20:00:01 METAR KNEL 150100Z 26008KT 10SM BKN120 M03/M15 A3004 RMK AO2 SLP171 T10331150 $
0241724090147802025011503007+40033-074350FM-15+0031KNEL V0202905N00675033535MN0160935N5-00335-01395101775ADDGA1085+033535999GD14991+0335359GE19AGL   +99999+99999GF199999999999033531999999MA1101795101425MD1190069+9999REMMET12101/14/25 22:00:01 METAR KNEL 150300Z 29013KT 10SM OVC110 M03/M14 A3006 RMK AO2 PK WND 30027/0224 SLP177 T10331139 51006 $
0265724090147802025011504007+40033-074350FM-15+0031KNEL V0203005N005152200059N0160935N5-00445-01445101835ADDGA1025+033535999GD11991+0335359GE19AGL   +99999+99999GF102995999999033531999999MA1101835101465OC101345OD149901491270REMMET11801/14/25 23:00:01 METAR KNEL 150400Z 30010G26KT 10SM FEW110 M04/M14 A3007 RMK AO2 PK WND 27029/0342 SLP183 T10441144 $EQDD01      0ADE726
0225724090147802025011505007+40033-074350FM-15+0031KNEL V0202905N008252200059N0160935N5-00505-01445101835ADDGA1005+999999999GD10991+9999999GF100991999999999999999999KA1240M-00501KA2240N-00501MA1101835101465OC101345REMMET10701/15/25 00:00:01 METAR KNEL 150500Z 29016G26KT 10SM CLR M05/M14 A3007 RMK AO2 SLP183 T10501144 410501050 $
0265724090147802025011506007+40033-074350FM-15+0031KNEL V0202905N008252200059N0160935N5-00615-01445101835ADDGA1005+999999999GD10991+9999999GF100991999999999999999999KA1060M-00221KA2060N-00611MA1101835101465MD1090099+9999OC101295REMMET13301/15/25 01:00:01 METAR KNEL 150600Z 29016G25KT 10SM CLR M06/M14 A3007 RMK AO2 PK WND 30026/0507 SLP183 T10611144 11022 21061 50009 $
0207724090147802025011507007+40033-074350FM-15+0031KNEL V0203005N007252200059N0160935N5-00615-01445101895ADDGA1005+999999999GD10991+9999999GF100991999999999999999999MA1101905101525OC101295REMMET11501/15/25 02:00:01 METAR KNEL 150700Z 30014G25KT 10SM CLR M06/M14 A3009 RMK AO2 PK WND 30026/0642 SLP189 T10611144 $
0178724090147802025011508007+40033-074350FM-15+0031KNEL V0202805N006252200059N0160935N5-00675-01445101975ADDGA1005+999999999GD10991+9999999GF100991999999999999999999MA1101965101595REMMET09401/15/25 03:00:01 METAR KNEL 150800Z 28012KT 10SM CLR M07/M14 A3011 RMK AO2 SLP197 T10671144 $
0209724090147802025011509007+40033-074350FM-15+0031KNEL V0202805N005752200059N0160935N5-00675-01445102005ADDGA1005+999999999GD10991+9999999GF100991999999999999999999MA1102005101625MD1390149+9999OC100985REMMET10301/15/25 04:00:02 METAR KNEL 150900Z 28011G19KT 10SM CLR M07/M14 A3012 RMK AO2 SLP200 T10671144 53014 $
0189724090147802025011510007+40033-074350FM-15+0031KNEL V0202905N005752200059N0160935N5-00675-01445102045ADDGA1005+999999999GD10991+9999999GF100991999999999999999999MA1102035101665OC101035REMMET09701/15/25 05:00:02 METAR KNEL 151000Z 29011G20KT 10SM CLR M07/M14 A3013 RMK AO2 SLP204 T10671144 $
0189724090147802025011511007+40033-074350FM-15+0031KNEL V0202805N006252200059N0160935N5-00675-01445102065ADDGA1005+999999999GD10991+9999999GF100991999999999999999999MA1102075101695OC101135REMMET09701/15/25 06:00:02 METAR KNEL 151100Z 28012G22KT 10SM CLR M07/M14 A3014 RMK AO2 SLP206 T10671144 $
0253724090147802025011512007+40033-074350FM-15+0031KNEL V0202905N007752200059N0160935N5-00675-01395102075ADDAA124999919GA1005+999999999GD10991+9999999GF100991999999999999999999KA1060M-00611KA2060N-00721MA1102075101695MD1190099+9999REMMET11801/15/25 07:00:02 METAR KNEL 151200Z 29015KT 10SM CLR M07/M14 A3014 RMK AO2 SLP207 7//// T10671139 11061 21072 51009 $
0227724090147802025011515007+40033-074350FM-15+0031KNEL V0202905N009852200059N0160935N5-00335-01335102295ADDGA1005+999999999GD10991+9999999GF100991999999999999999999MA1102305101935MD1390179+9999OC101295REMMET12101/15/25 10:00:02 METAR KNEL 151500Z 29019G25KT 10SM CLR M03/M13 A3021 RMK AO2 PK WND 31028/1420 SLP229 T10331133 53017 $
0207724090147802025011516007+40033-074350FM-15+0031KNEL V0202905N010352200059N0160935N5-00225-01335102265ADDGA1005+999999999GD10991+9999999GF100991999999999999999999MA1102275101895OC101495REMMET11501/15/25 11:00:02 METAR KNEL 151600Z 29020G29KT 10SM CLR M02/M13 A3020 RMK AO2 PK WND 29029/1559 SLP226 T10221133 $
0246724090147802025011517007+40033-074350FM-15+0031KNEL V0202905N00775014025MN0160935N5-00175-01335102185ADDGA1075+014025999GD13991+0140259GE19AGL   +99999+99999GF199999999999014021999999MA1102175101795OC101245OD149901591300REMMET11801/15/25 12:00:02 METAR KNEL 151700Z 29015G24KT 10SM BKN046 M02/M13 A3017 RMK AO2 PK WND 30031/1608 SLP218 T10171133 $
0265724090147802025011518007+40033-074350FM-15+0031KNEL V0203105N007752200059N0160935N5-00065-01335102065ADDGA1005+999999999GD10991+9999999GF100991999999999999999999KA1060M-00061KA2060N-00671MA1102075101695MD1890069+9999OC101295REMMET13301/15/25 13:00:02 METAR KNEL 151800Z 31015G25KT 10SM CLR M01/M13 A3014 RMK AO2 PK WND 29027/1741 SLP206 T10061133 11006 21067 58006 $
0177724090147802025011519007+40033-074350FM-15+0031KNEL V0203005N008252200059N0160935N5+00005-01335101985ADDGA1005+999999999GD10991+9999999GF100991999999999999999999MA1102005101625REMMET09301/15/25 14:00:02 METAR KNEL 151900Z 30016KT 10SM CLR 00/M13 A3012 RMK AO2 SLP198 T00001133 $
0206724090147802025011520007+40033-074350FM-15+0031KNEL V0203005N006252200059N0160935N5+00005-01335101975ADDGA1005+999999999GD10991+9999999GF100991999999999999999999MA1102005101625OC101185REMMET11401/15/25 15:00:02 METAR KNEL 152000Z 30012G23KT 10SM CLR 00/M13 A3012 RMK AO2 PK WND 30029/1933 SLP197 T00001133 $
0203724090147802025012116007+40033-074350FM-15+0031KNEL V0202605N00365033535MN0160935N5-00945-02005103555ADDGA1085+033535999GD14991+0335359GE19AGL   +99999+99999GF199999999999033531999999MA1103565103185REMMET09701/21/25 11:00:02 METAR KNEL 211600Z 26007KT 10SM OVC110 M09/M20 A3058 RMK AO2 SLP355 T10941200 $
0242724090147802025012118007+40033-074350FM-15+0031KNEL V0202705N004652200059N0160935N5-00835-02115103245ADDGA1005+999999999GD10991+9999999GF100991999999999999999999KA1060M-00111KA2060N-01171MA1103255102875MD1890219+9999REMMET11801/21/25 13:00:02 METAR KNEL 211800Z 27009KT 10SM CLR M08/M21 A3049 RMK AO2 SLP324 6//// T10831211 11011 21117 58021 $
0242724090147802025012121007+40033-074350FM-15+0031KNEL V0202605N003652200059N0160935N5-00895-02005103195ADDGA1025+036585999GD11991+0365859GE19AGL   +99999+99999GF102995999999036581999999MA1103185102815MD1690259+9999REMMET10301/21/25 16:00:02 METAR KNEL 212100Z 26007KT 10SM FEW120 M09/M20 A3047 RMK AO2 SLP319 T10891200 56025 $EQDD01      0ADE726
0203724090147802025012122007+40033-074350FM-15+0031KNEL V0202405N00315033535MN0160935N5-00895-01945103135ADDGA1075+033535999GD13991+0335359GE19AGL   +99999+99999GF199999999999033531999999MA1103155102775REMMET09701/21/25 17:00:02 METAR KNEL 212200Z 24006KT 10SM BKN110 M09/M19 A3046 RMK AO2 SLP313 T10891194 $
0203724090147802025012123007+40033-074350FM-15+0031KNEL V0202605N00215024385MN0160935N5-00895-01895103195ADDGA1085+024385999GD14991+0243859GE19AGL   +99999+99999GF199999999999024381999999MA1103225102845REMMET09701/21/25 18:00:02 METAR KNEL 212300Z 26004KT 10SM OVC080 M09/M19 A3048 RMK AO2 SLP319 T10891189 $
0261724090147802025012200007+40033-074350FM-15+0031KNEL V0202605N00265018295MN0160935N5-00895-01835103225ADDGA1085+018295999GD14991+0182959GE19AGL   +99999+99999GF199999999999018291999999KA1060M-00831KA2060N-00891MA1103225102845MD1190099+9999REMMET11501/21/25 19:00:01 METAR KNEL 220000Z 26005KT 10SM OVC060 M09/M18 A3048 RMK AO2 SLP322 T10891183 11083 21089 51009 $
0241724090147802025012201007+40033-074350FM-15+0031KNEL V0202805N00155025915MN0160935N5-00895-01725103185ADDGA1045+021345999GA2085+025915999GD12991+0213459GD24991+0259159GE19AGL   +99999+99999GF199999999999021341999999MA1103185102815REMMET10401/21/25 20:00:01 METAR KNEL 220100Z 28003KT 10SM SCT070 OVC085 M09/M17 A3047 RMK AO2 SLP318 T10891172 $
0203724090147802025012202007+40033-074350FM-15+0031KNEL V0202905N00315030485MN0160935N5-00945-01675103205ADDGA1085+030485999GD14991+0304859GE19AGL   +99999+99999GF199999999999030481999999MA1103225102845REMMET09701/21/25 21:00:01 METAR KNEL 220200Z 29006KT 10SM OVC100 M09/M17 A3048 RMK AO2 SLP320 T10941167 $
0223724090147802025012203007+40033-074350FM-15+0031KNEL V0203005N00315022865MN0160935N5-00945-01895103145ADDGA1085+022865999GD14991+0228659GE19AGL   +99999+99999GF199999999999022861999999MA1103155102775MD1090009+9999REMMET10301/21/25 22:00:01 METAR KNEL 220300Z 30006KT 10SM OVC075 M09/M19 A3046 RMK AO2 SLP314 T10941189 50000 $
0236724090147802025012206007+40033-074350FM-15+0031KNEL V0203105N001552200059N0160935N5-01065-01945103225ADDGA1005+999999999GD10991+9999999GF100991999999999999999999KA1060M-00891KA2060N-01061MA1103225102845MD1390029+9999REMMET11201/22/25 01:00:02 METAR KNEL 220600Z 31003KT 10SM CLR M11/M19 A3048 RMK AO2 SLP322 T11061194 11089 21106 53002 $
0178724090147802025012208007+40033-074350FM-15+0031KNEL V0209999C000052200059N0160935N5-01175-01895103245ADDGA1005+999999999GD10991+9999999GF100991999999999999999999MA1103255102875REMMET09401/22/25 03:00:02 METAR KNEL 220800Z 00000KT 10SM CLR M12/M19 A3049 RMK AO2 SLP324 T11171189 $
0198724090147802025012209007+40033-074350FM-15+0031KNEL V0209999C000052200059N0160935N5-01285-01945103225ADDGA1005+999999999GD10991+9999999GF100991999999999999999999MA1103225102845MD1390019+9999REMMET10001/22/25 04:00:02 METAR KNEL 220900Z 00000KT 10SM CLR M13/M19 A3048 RMK AO2 SLP322 T11281194 53001 $
0178724090147802025012211007+40033-074350FM-15+0031KNEL V0209999C000052200059N0160935N5-01725-02005103245ADDGA1005+999999999GD10991+9999999GF100991999999999999999999MA1103255102875REMMET09401/22/25 06:00:02 METAR KNEL 221100Z 00000KT 10SM CLR M17/M20 A3049 RMK AO2 SLP324 T11721200 $
0198724090147802025012215007+40033-074350FM-15+0031KNEL V0209999V002152200059N0160935N5-01065-02005103325ADDGA1005+999999999GD10991+9999999GF100991999999999999999999MA1103325102945MD1390019+9999REMMET10001/22/25 10:00:02 METAR KNEL 221500Z VRB04KT 10SM CLR M11/M20 A3051 RMK AO2 SLP332 T11061200 53001 $
0178724090147802025012216007+40033-074350FM-15+0031KNEL V0209999V001552200059N0160935N5-00945-02005103335ADDGA1005+999999999GD10991+9999999GF100991999999999999999999MA1103325102945REMMET09401/22/25 11:00:02 METAR KNEL 221600Z VRB03KT 10SM CLR M09/M20 A3051 RMK AO2 SLP333 T10941200 $
0178724090147802025012217007+40033-074350FM-15+0031KNEL V0209999C000052200059N0160935N5-00835-02115103305ADDGA1005+999999999GD10991+9999999GF100991999999999999999999MA1103325102945REMMET09401/22/25 12:00:02 METAR KNEL 221700Z 00000KT 10SM CLR M08/M21 A3051 RMK AO2 SLP330 T10831211 $
0184724090147802025012221007+40033-074350FM-15+0031KNEL V0202805N002652200059N0160935N5-00785-02065103245ADDGA1005+999999999GD10991+9999999GF100991999999999999999999MA1103255102875REMMET10001/22/25 16:00:02 METAR KNEL 222100Z 28005KT 10SM CLR M08/M21 A3049 RMK AO2 SLP324 6//// T10781206 $
0178724090147802025012223007+40033-074350FM-15+0031KNEL V0209999C000052200059N0160935N5-01175-01835103265ADDGA1005+999999999GD10991+9999999GF100991999999999999999999MA1103255102875REMMET09401/22/25 18:00:02 METAR KNEL 222300Z 00000KT 10SM CLR M12/M18 A3049 RMK AO2 SLP326 T11171183 $
0222724090147802025012300007+40033-074350FM-15+0031KNEL V0209999C000052200059N0160935N5-01285-01835103315ADDGA1005+999999999GD10991+9999999GF100991999999999999999999KA1060M-00781KA2060N-01281MA1103325102945REMMET11201/22/25 19:00:01 METAR KNEL 230000Z 00000KT 10SM CLR M13/M18 A3051 RMK AO2 SLP331 6//// T11281183 11078 21128 $
0178724090147802025012301007+40033-074350FM-15+0031KNEL V0209999C000052200059N0160935N5-01225-01725103245ADDGA1005+999999999GD10991+9999999GF100991999999999999999999MA1103255102875REMMET09401/22/25 20:00:01 METAR KNEL 230100Z 00000KT 10SM CLR M12/M17 A3049 RMK AO2 SLP324 T11221172 $
0178724090147802025012302007+40033-074350FM-15+0031KNEL V0209999C000052200059N0160935N5-01505-01895103185ADDGA1005+999999999GD10991+9999999GF100991999999999999999999MA1103185102815REMMET09401/22/25 21:00:01 METAR KNEL 230200Z 00000KT 10SM CLR M15/M19 A3047 RMK AO2 SLP318 T11501189 $
0198724090147802025012303007+40033-074350FM-15+0031KNEL V0209999C000052200059N0160935N5-01565-01895103225ADDGA1005+999999999GD10991+9999999GF100991999999999999999999MA1103225102845MD1890089+9999REMMET10001/22/25 22:00:02 METAR KNEL 230300Z 00000KT 10SM CLR M16/M19 A3048 RMK AO2 SLP322 T11561189 58008 $
0152724090147802025012304006+40033-074350FM-15+0031KNEL V0209999C000052200059N0160935N5-01725-02005103205ADDGA1005+999999999GD10991+9999999MA1103185102815REMMET09401/22/25 23:00:02 METAR KNEL 230400Z 00000KT 10SM CLR M17/M20 A3047 RMK AO2 SLP320 T11721200 $
0162724090147802025012305006+40033-074350FM-15+0031KNEL V0209999C000052200059N0160935N5-01785-02065103075ADDGA1005+999999999GD10991+9999999MA1103085102705REMMET10401/23/25 00:00:02 METAR KNEL 230500Z 00000KT 10SM CLR M18/M21 A3044 RMK AO2 SLP307 T11781206 411781178 $
0184724090147802025012306006+40033-074350FM-15+0031KNEL V0209999C000052200059N0160935N5-01835-02115103045ADDGA1005+999999999GD10991+9999999MA1103055102675MD1890109+9999REMMET11201/23/25 01:00:02 METAR KNEL 230600Z 00000KT 10SM CLR M18/M21 A3043 RMK AO2 SLP304 T11831211 11117 21183 58010 $
0152724090147802025012307006+40033-074350FM-15+0031KNEL V0209999C000052200059N0160935N5-01835-02065103035ADDGA1005+999999999GD10991+9999999MA1103015102645REMMET09401/23/25 02:00:02 METAR KNEL 230700Z 00000KT 10SM CLR M18/M21 A3042 RMK AO2 SLP303 T11831206 $
0172724090147802025012309006+40033-074350FM-15+0031KNEL V0209999C000052200059N0160935N5-01835-02115102925ADDGA1005+999999999GD10991+9999999MA1102915102545MD1890129+9999REMMET10001/23/25 04:00:02 METAR KNEL 230900Z 00000KT 10SM CLR M18/M21 A3039 RMK AO2 SLP292 T11831211 58012 $
0197724090147802025012319007+40033-074350FM-15+0031KNEL V0202605N004152200059N0160935N5-00286-01335102195ADDGA1005+999999999GD10991+9999999GF100991999999999999999999MA1102205101835REMMET09401/23/25 14:00:02 METAR KNEL 231900Z 26008KT 10SM CLR M03/M13 A3018 RMK AO2 SLP219 T10281133 $EQDR01  -0287TMP028
0178724090147802025012320007+40033-074350FM-15+0031KNEL V0202905N003152200059N0160935N5-00285-01615102125ADDGA1005+999999999GD10991+9999999GF100991999999999999999999MA1102135101765REMMET09401/23/25 15:00:02 METAR KNEL 232000Z 29006KT 10SM CLR M03/M16 A3016 RMK AO2 SLP212 T10281161 $
0158724090147802025012321006+40033-074350FM-15+0031KNEL V0202605N002152200059N0160935N5-00285-01675102085ADDGA1005+999999999GD10991+9999999MA1102105101735REMMET10001/23/25 16:00:02 METAR KNEL 232100Z 26004KT 10SM CLR M03/M17 A3015 RMK AO2 SLP208 6//// T10281167 $
0178724090147802025012322007+40033-074350FM-15+0031KNEL V0202805N002652200059N0160935N5-00565-01615102115ADDGA1005+999999999GD10991+9999999GF100991999999999999999999MA1102105101735REMMET09401/23/25 17:00:02 METAR KNEL 232200Z 28005KT 10SM CLR M06/M16 A3015 RMK AO2 SLP211 T10561161 $
0178724090147802025012323007+40033-074350FM-15+0031KNEL V0202505N002152200059N0160935N5-00675-01565102125ADDGA1005+999999999GD10991+9999999GF100991999999999999999999MA1102105101735REMMET09401/23/25 18:00:02 METAR KNEL 232300Z 25004KT 10SM CLR M07/M16 A3015 RMK AO2 SLP212 T10671156 $
0242724090147802025012400007+40033-074350FM-15+0031KNEL V0202705N002152200059N0160935N5-00785-01675102135ADDGA1005+999999999GD10991+9999999GF100991999999999999999999KA1060M-00221KA2060N-01001MA1102135101765MD1590029+9999REMMET11801/23/25 19:00:01 METAR KNEL 240000Z 27004KT 10SM CLR M08/M17 A3016 RMK AO2 SLP213 6//// T10781167 11022 21100 55002 $
0178724090147802025012402007+40033-074350FM-15+0031KNEL V0202605N001552200059N0160935N5-01005-01675102115ADDGA1005+999999999GD10991+9999999GF100991999999999999999999MA1102105101735REMMET09401/23/25 21:00:01 METAR KNEL 240200Z 26003KT 10SM CLR M10/M17 A3015 RMK AO2 SLP211 T11001167 $
0233724090147802025012403007+40033-074350FM-15+0031KNEL V0202505N002152200059N0160935N5-00945-01565102105ADDGA1005+999999999GD10991+9999999GF100991999999999999999999MA1102105101735MD1890009+9999REMMET10001/23/25 22:00:02 METAR KNEL 240300Z 25004KT 10SM CLR M09/M16 A3015 RMK AO2 SLP210 T10941156 58000 $EQDQ010     3APC3  Q028     3APCTEN
0178724090147802025012404007+40033-074350FM-15+0031KNEL V0209999C000052200059N0160935N5-01175-01565102095ADDGA1005+999999999GD10991+9999999GF100991999999999999999999MA1102105101735REMMET09401/23/25 23:00:02 METAR KNEL 240400Z 00000KT 10SM CLR M12/M16 A3015 RMK AO2 SLP209 T11171156 $
0214724090147802025012405007+40033-074350FM-15+0031KNEL V0202805N002152200059N0160935N5-01445-01725102095ADDGA1005+999999999GD10991+9999999GF100991999999999999999999KA1240M-01441KA2240N-01441MA1102105101735REMMET10401/24/25 00:00:02 METAR KNEL 240500Z 28004KT 10SM CLR M14/M17 A3015 RMK AO2 SLP209 T11441172 411441144 $
0178724090147802025012407007+40033-074350FM-15+0031KNEL V0202805N002152200059N0160935N5-01445-01675102105ADDGA1005+999999999GD10991+9999999GF100991999999999999999999MA1102105101735REMMET09401/24/25 02:00:02 METAR KNEL 240700Z 28004KT 10SM CLR M14/M17 A3015 RMK AO2 SLP210 T11441167 $
0178724090147802025012408007+40033-074350FM-15+0031KNEL V0202805N001552200059N0160935N5-01445-01675102115ADDGA1005+999999999GD10991+9999999GF100991999999999999999999MA1102135101765REMMET09401/24/25 03:00:02 METAR KNEL 240800Z 28003KT 10SM CLR M14/M17 A3016 RMK AO2 SLP211 T11441167 $
0198724090147802025012409007+40033-074350FM-15+0031KNEL V0202705N001552200059N0160935N5-01505-01675102095ADDGA1005+999999999GD10991+9999999GF100991999999999999999999MA1102105101735MD1390029+9999REMMET10001/24/25 04:00:02 METAR KNEL 240900Z 27003KT 10SM CLR M15/M17 A3015 RMK AO2 SLP209 T11501167 53002 $
0178724090147802025012410007+40033-074350FM-15+0031KNEL V0202905N002152200059N0160935N5-01505-01675102165ADDGA1005+999999999GD10991+9999999GF100991999999999999999999MA1102175101795REMMET09401/24/25 05:00:02 METAR KNEL 241000Z 29004KT 10SM CLR M15/M17 A3017 RMK AO2 SLP216 T11501167 $
0177724090147802025012413007+40033-074350FM-15+0031KNEL V0209999C000052200059N0128755N5-01225-01445102305ADDGA1005+999999999GD10991+9999999GF100991999999999999999999MA1102305101935REMMET09301/24/25 08:00:02 METAR KNEL 241300Z 00000KT 8SM CLR M12/M14 A3021 RMK AO2 SLP230 T11221144 $
0208724090147802025012417007+40033-074350FM-15+0031KNEL V0202905N007752200059N0160935N5-00066-01115102245ADDGA1005+999999999GD10991+9999999GF100991999999999999999999MA1102245101865OC101085REMMET09701/24/25 12:00:02 METAR KNEL 241700Z 29015G21KT 10SM CLR M01/M11 A3019 RMK AO2 SLP224 T10061111 $EQDR01  -0067TMP028
0233724090147802025012418007+40033-074350FM-15+0031KNEL V0202805N007252200059N0160935N5-00065-01175102185ADDGA1005+999999999GD10991+9999999GF100991999999999999999999KA1060M-00061KA2060N-01501MA1102205101835OC101135REMMET11501/24/25 13:00:02 METAR KNEL 241800Z 28014G22KT 10SM CLR M01/M12 A3018 RMK AO2 SLP218 6//// T10061117 11006 21150 $
0178724090147802025012419007+40033-074350FM-15+0031KNEL V0202605N007252200059N0160935N5-00065-01225102115ADDGA1005+999999999GD10991+9999999GF100991999999999999999999MA1102135101765REMMET09401/24/25 14:00:02 METAR KNEL 241900Z 26014KT 10SM CLR M01/M12 A3016 RMK AO2 SLP211 T10061122 $
0178724090147802025012422007+40033-074350FM-15+0031KNEL V0202905N001552200059N0160935N5-00285-01335102255ADDGA1005+999999999GD10991+9999999GF100991999999999999999999MA1102275101895REMMET09401/24/25 17:00:02 METAR KNEL 242200Z 29003KT 10SM CLR M03/M13 A3020 RMK AO2 SLP225 T10281133 $
0178724090147802025012423007+40033-074350FM-15+0031KNEL V0202805N001552200059N0160935N5-00505-01285102365ADDGA1005+999999999GD10991+9999999GF100991999999999999999999MA1102375102005REMMET09401/24/25 18:00:02 METAR KNEL 242300Z 28003KT 10SM CLR M05/M13 A3023 RMK AO2 SLP236 T10501128 $
0236724090147802025012500007+40033-074350FM-15+0031KNEL V0202905N001552200059N0160935N5-00675-01395102415ADDGA1005+999999999GD10991+9999999GF100991999999999999999999KA1060M+00001KA2060N-00671MA1102405102035MD1390269+9999REMMET11201/24/25 19:00:01 METAR KNEL 250000Z 29003KT 10SM CLR M07/M14 A3024 RMK AO2 SLP241 T10671139 10000 21067 53026 $
0178724090147802025012501007+40033-074350FM-15+0031KNEL V0209999C000052200059N0160935N5-00785-01335102465ADDGA1005+999999999GD10991+9999999GF100991999999999999999999MA1102475102105REMMET09401/24/25 20:00:01 METAR KNEL 250100Z 00000KT 10SM CLR M08/M13 A3026 RMK AO2 SLP246 T10781133 $
0177724090147802025012502007+40033-074350FM-15+0031KNEL V0202805N001552200059N0160935N5-01065-01445999999ADDGA1005+999999999GD10991+9999999GF100991999999999999999999MA1102475102105REMMET09301/24/25 21:00:01 METAR KNEL 250200Z 28003KT 10SM CLR M11/M14 A3026 RMK AO2 SLPNO T11061144 $
0198724090147802025012503007+40033-074350FM-15+0031KNEL V0202905N002152200059N0160935N5-01175-01445102525ADDGA1005+999999999GD10991+9999999GF100991999999999999999999MA1102515102135MD1190119+9999REMMET10001/24/25 22:00:02 METAR KNEL 250300Z 29004KT 10SM CLR M12/M14 A3027 RMK AO2 SLP252 T11171144 51011 $
0236724090147802025012506007+40033-074350FM-15+0031KNEL V0209999C000052200059N0160935N5-01505-01725102555ADDGA1005+999999999GD10991+9999999GF100991999999999999999999KA1060M-00671KA2060N-01501MA1102575102205MD1190079+9999REMMET11201/25/25 01:00:02 METAR KNEL 250600Z 00000KT 10SM CLR M15/M17 A3029 RMK AO2 SLP255 T11501172 11067 21150 51007 $
0178724090147802025012507007+40033-074350FM-15+0031KNEL V0209999C000052200059N0160935N5-01505-01725102635ADDGA1005+999999999GD10991+9999999GF100991999999999999999999MA1102645102275REMMET09401/25/25 02:00:02 METAR KNEL 250700Z 00000KT 10SM CLR M15/M17 A3031 RMK AO2 SLP263 T11501172 $
0178724090147802025012508007+40033-074350FM-15+0031KNEL V0202905N001552200059N0160935N5-01565-01785102675ADDGA1005+999999999GD10991+9999999GF100991999999999999999999MA1102685102305REMMET09401/25/25 03:00:02 METAR KNEL 250800Z 29003KT 10SM CLR M16/M18 A3032 RMK AO2 SLP267 T11561178 $
0198724090147802025012509007+40033-074350FM-15+0031KNEL V0202905N001552200059N0160935N5-01505-01725102665ADDGA1005+999999999GD10991+9999999GF100991999999999999999999MA1102685102305MD1390149+9999REMMET10001/25/25 04:00:02 METAR KNEL 250900Z 29003KT 10SM CLR M15/M17 A3032 RMK AO2 SLP266 T11501172 53014 $
0178724090147802025012510007+40033-074350FM-15+0031KNEL V0209999C000052200059N0160935N5-01445-01725102715ADDGA1005+999999999GD10991+9999999GF100991999999999999999999MA1102715102335REMMET09401/25/25 05:00:02 METAR KNEL 251000Z 00000KT 10SM CLR M14/M17 A3033 RMK AO2 SLP271 T11441172 $
0178724090147802025012511007+40033-074350FM-15+0031KNEL V0209999C000052200059N0160935N5-01505-01785102785ADDGA1005+999999999GD10991+9999999GF100991999999999999999999MA1102785102405REMMET09401/25/25 06:00:02 METAR KNEL 251100Z 00000KT 10SM CLR M15/M18 A3035 RMK AO2 SLP278 T11501178 $
0253724090147802025012512007+40033-074350FM-15+0031KNEL V0209999C000052200059N0160935N5-01505-01785102895ADDAA124999919GA1005+999999999GD10991+9999999GF100991999999999999999999KA1060M-01331KA2060N-01611MA1102885102505MD1390109+9999REMMET11801/25/25 07:00:02 METAR KNEL 251200Z 00000KT 10SM CLR M15/M18 A3038 RMK AO2 SLP289 7//// T11501178 11133 21161 53010 $
0178724090147802025012513007+40033-074350FM-15+0031KNEL V0209999C000052200059N0160935N5-01285-01565102905ADDGA1005+999999999GD10991+9999999GF100991999999999999999999MA1102915102545REMMET09401/25/25 08:00:02 METAR KNEL 251300Z 00000KT 10SM CLR M13/M16 A3039 RMK AO2 SLP290 T11281156 $
0178724090147802025012514007+40033-074350FM-15+0031KNEL V0202805N002152200059N0160935N5-00565-01175102935ADDGA1005+999999999GD10991+9999999GF100991999999999999999999MA1102955102575REMMET09401/25/25 09:00:02 METAR KNEL 251400Z 28004KT 10SM CLR M06/M12 A3040 RMK AO2 SLP293 T10561117 $
0198724090147802025012515007+40033-074350FM-15+0031KNEL V0202905N003652200059N0160935N5-00335-01225102935ADDGA1005+999999999GD10991+9999999GF100991999999999999999999MA1102955102575MD1190169+9999REMMET10001/25/25 10:00:02 METAR KNEL 251500Z 29007KT 10SM CLR M03/M12 A3040 RMK AO2 SLP293 T10331122 51016 $
0189724090147802025012516007+40033-074350FM-15+0031KNEL V0202905N006252200059N0160935N5-00285-01225102845ADDGA1005+999999999GD10991+9999999GF100991999999999999999999MA1102845102475OC100885REMMET09701/25/25 11:00:02 METAR KNEL 251600Z 29012G17KT 10SM CLR M03/M12 A3037 RMK AO2 SLP284 T10281122 $
0222724090147802025012517007+40033-074350FM-15+0031KNEL V0202605N005152200059N0160935N5-00175-01285102725ADDGA1045+033535999GD12991+0335359GE19AGL   +99999+99999GF104995999999033531999999MA1102745102375REMMET09701/25/25 12:00:02 METAR KNEL 251700Z 26010KT 10SM SCT110 M02/M13 A3034 RMK AO2 SLP272 T10171128 $EQDD01      0ADE726
0261724090147802025012518007+40033-074350FM-15+0031KNEL V0202405N00515033535MN0160935N5-00065-01335102635ADDGA1075+033535999GD13991+0335359GE19AGL   +99999+99999GF199999999999033531999999KA1060M-00061KA2060N-01501MA1102645102275MD1890219+9999REMMET11501/25/25 13:00:02 METAR KNEL 251800Z 24010KT 10SM BKN110 M01/M13 A3031 RMK AO2 SLP263 T10061133 11006 21150 58021 $
0177724090147802025012519007+40033-074350FM-15+0031KNEL V0202705N006752200059N0160935N5+00065-01285102595ADDGA1005+999999999GD10991+9999999GF100991999999999999999999MA1102615102235REMMET09301/25/25 14:00:02 METAR KNEL 251900Z 27013KT 10SM CLR 01/M13 A3030 RMK AO2 SLP259 T00061128 $
0177724090147802025012520007+40033-074350FM-15+0031KNEL V0202505N005752200059N0160935N5+00065-01335102555ADDGA1005+999999999GD10991+9999999GF100991999999999999999999MA1102545102165REMMET09301/25/25 15:00:02 METAR KNEL 252000Z 25011KT 10SM CLR 01/M13 A3028 RMK AO2 SLP255 T00061133 $
0178724090147802025012523007+40033-074350FM-15+0031KNEL V0202205N002152200059N0160935N5-00175-01175102545ADDGA1005+999999999GD10991+9999999GF100991999999999999999999MA1102545102165REMMET09401/25/25 18:00:02 METAR KNEL 252300Z 22004KT 10SM CLR M02/M12 A3028 RMK AO2 SLP254 T10171117 $
0178724090147802025012601007+40033-074350FM-15+0031KNEL V0202105N003652200059N0160935N5-00175-01005102515ADDGA1005+999999999GD10991+9999999GF100991999999999999999999MA1102515102135REMMET09401/25/25 20:00:01 METAR KNEL 260100Z 21007KT 10SM CLR M02/M10 A3027 RMK AO2 SLP251 T10171100 $
0178724090147802025012602007+40033-074350FM-15+0031KNEL V0202105N003152200059N0160935N5-00175-00895102505ADDGA1005+999999999GD10991+9999999GF100991999999999999999999MA1102515102135REMMET09401/25/25 21:00:01 METAR KNEL 260200Z 21006KT 10SM CLR M02/M09 A3027 RMK AO2 SLP250 T10171089 $
0198724090147802025012603007+40033-074350FM-15+0031KNEL V0202105N003652200059N0160935N5-00115-00895102475ADDGA1005+999999999GD10991+9999999GF100991999999999999999999MA1102475102105MD1690049+9999REMMET10001/25/25 22:00:02 METAR KNEL 260300Z 21007KT 10SM CLR M01/M09 A3026 RMK AO2 SLP247 T10111089 56004 $
0178724090147802025012604007+40033-074350FM-15+0031KNEL V0202105N003152200059N0160935N5-00115-00895102425ADDGA1005+999999999GD10991+9999999GF100991999999999999999999MA1102445102065REMMET09401/25/25 23:00:02 METAR KNEL 260400Z 21006KT 10SM CLR M01/M09 A3025 RMK AO2 SLP242 T10111089 $
0214724090147802025012605007+40033-074350FM-15+0031KNEL V0202105N003152200059N0160935N5-00175-00835102355ADDGA1005+999999999GD10991+9999999GF100991999999999999999999KA1240M-00171KA2240N-00171MA1102375102005REMMET10401/26/25 00:00:02 METAR KNEL 260500Z 21006KT 10SM CLR M02/M08 A3023 RMK AO2 SLP235 T10171083 410171017 $
0236724090147802025012606007+40033-074350FM-15+0031KNEL V0202105N001552200059N0160935N5-00225-00835102245ADDGA1005+999999999GD10991+9999999GF100991999999999999999999KA1060M-00111KA2060N-00221MA1102275101895MD1890169+9999REMMET11201/26/25 01:00:02 METAR KNEL 260600Z 21003KT 10SM CLR M02/M08 A3020 RMK AO2 SLP224 T10221083 11011 21022 58016 $
0178724090147802025012607007+40033-074350FM-15+0031KNEL V0202305N003652200059N0160935N5-00115-00785102205ADDGA1005+999999999GD10991+9999999GF100991999999999999999999MA1102205101835REMMET09401/26/25 02:00:02 METAR KNEL 260700Z 23007KT 10SM CLR M01/M08 A3018 RMK AO2 SLP220 T10111078 $
0198724090147802025012609007+40033-074350FM-15+0031KNEL V0202305N003152200059N0160935N5-00065-00785102075ADDGA1005+999999999GD10991+9999999GF100991999999999999999999MA1102075101695MD1690229+9999REMMET10001/26/25 04:00:02 METAR KNEL 260900Z 23006KT 10SM CLR M01/M08 A3014 RMK AO2 SLP207 T10061078 56022 $
0235724090147802025012612007+40033-074350FM-15+0031KNEL V0202605N003152200059N0160935N5+00065-00785102065ADDGA1005+999999999GD10991+9999999GF100991999999999999999999KA1060M+00061KA2060N-00221MA1102075101695MD1690099+9999REMMET11101/26/25 07:00:02 METAR KNEL 261200Z 26006KT 10SM CLR 01/M08 A3014 RMK AO2 SLP206 T00061078 10006 21022 56009 $
0177724090147802025012613007+40033-074350FM-15+0031KNEL V0203005N002652200059N0160935N5+00065-00785102135ADDGA1005+999999999GD10991+9999999GF100991999999999999999999MA1102135101765REMMET09301/26/25 08:00:02 METAR KNEL 261300Z 30005KT 10SM CLR 01/M08 A3016 RMK AO2 SLP213 T00061078 $
0202724090147802025012614007+40033-074350FM-15+0031KNEL V0202705N00315036585MN0160935N5+00175-00785102165ADDGA1075+036585999GD13991+0365859GE19AGL   +99999+99999GF199999999999036581999999MA1102175101795REMMET09601/26/25 09:00:02 METAR KNEL 261400Z 27006KT 10SM BKN120 02/M08 A3017 RMK AO2 SLP216 T00171078 $
0197724090147802025012615007+40033-074350FM-15+0031KNEL V0202705N005152200059N0160935N5+00285-00725102185ADDGA1005+999999999GD10991+9999999GF100991999999999999999999MA1102175101795MD1390129+9999REMMET09901/26/25 10:00:01 METAR KNEL 261500Z 27010KT 10SM CLR 03/M07 A3017 RMK AO2 SLP218 T00281072 53012 $
0177724090147802025012616007+40033-074350FM-15+0031KNEL V0202605N003652200059N0160935N5+00335-00675102145ADDGA1005+999999999GD10991+9999999GF100991999999999999999999MA1102175101795REMMET09301/26/25 11:00:02 METAR KNEL 261600Z 26007KT 10SM CLR 03/M07 A3017 RMK AO2 SLP214 T00331067 $
0177724090147802025012617007+40033-074350FM-15+0031KNEL V0202805N004652200059N0160935N5+00395-00675102085ADDGA1005+999999999GD10991+9999999GF100991999999999999999999MA1102105101735REMMET09301/26/25 12:00:02 METAR KNEL 261700Z 28009KT 10SM CLR 04/M07 A3015 RMK AO2 SLP208 T00391067 $
0246724090147802025012618007+40033-074350FM-15+0031KNEL V0202705N005152200059N0160935N5+00445-00675102035ADDGA1005+999999999GD10991+9999999GF100991999999999999999999KA1060M+00441KA2060N+00061MA1102035101665MD1890089+9999OC101085REMMET11401/26/25 13:00:02 METAR KNEL 261800Z 27010G21KT 10SM CLR 04/M07 A3013 RMK AO2 SLP203 T00441067 10044 20006 58008 $
0177724090147802025012619007+40033-074350FM-15+0031KNEL V0202605N005752200059N0160935N5+00445-00675102005ADDGA1005+999999999GD10991+9999999GF100991999999999999999999MA1102005101625REMMET09301/26/25 14:00:02 METAR KNEL 261900Z 26011KT 10SM CLR 04/M07 A3012 RMK AO2 SLP200 T00441067 $
0177724090147802025012620007+40033-074350FM-15+0031KNEL V0202605N004652200059N0160935N5+00445-00725102015ADDGA1005+999999999GD10991+9999999GF100991999999999999999999MA1102035101665REMMET09301/26/25 15:00:02 METAR KNEL 262000Z 26009KT 10SM CLR 04/M07 A3013 RMK AO2 SLP201 T00441072 $
0197724090147802025012621007+40033-074350FM-15+0031KNEL V0202505N003652200059N0160935N5+00395-00785102055ADDGA1005+999999999GD10991+9999999GF100991999999999999999999MA1102075101695MD1590079+9999REMMET09901/26/25 16:00:02 METAR KNEL 262100Z 25007KT 10SM CLR 04/M08 A3014 RMK AO2 SLP205 T00391078 55007 $
0177724090147802025012622007+40033-074350FM-15+0031KNEL V0202605N002152200059N0160935N5+00225-00835102075ADDGA1005+999999999GD10991+9999999GF100991999999999999999999MA1102075101695REMMET09301/26/25 17:00:02 METAR KNEL 262200Z 26004KT 10SM CLR 02/M08 A3014 RMK AO2 SLP207 T00221083 $
0236724090147802025012700007+40033-074350FM-15+0031KNEL V0209999C000052200059N0160935N5-00395-00835102175ADDGA1005+999999999GD10991+9999999GF100991999999999999999999KA1060M+00441KA2060N-00391MA1102175101795MD1390119+9999REMMET11201/26/25 19:00:01 METAR KNEL 270000Z 00000KT 10SM CLR M04/M08 A3017 RMK AO2 SLP217 T10391083 10044 21039 53011 $
0178724090147802025012701007+40033-074350FM-15+0031KNEL V0202505N002152200059N0160935N5-00285-00895102145ADDGA1005+999999999GD10991+9999999GF100991999999999999999999MA1102135101765REMMET09401/26/25 20:00:01 METAR KNEL 270100Z 25004KT 10SM CLR M03/M09 A3016 RMK AO2 SLP214 T10281089 $
0178724090147802025012702007+40033-074350FM-15+0031KNEL V0209999C000052200059N0160935N5-00335-00835102105ADDGA1005+999999999GD10991+9999999GF100991999999999999999999MA1102105101735REMMET09401/26/25 21:00:01 METAR KNEL 270200Z 00000KT 10SM CLR M03/M08 A3015 RMK AO2 SLP210 T10331083 $
0198724090147802025012703007+40033-074350FM-15+0031KNEL V0209999C000052200059N0160935N5-00505-00785102055ADDGA1005+999999999GD10991+9999999GF100991999999999999999999MA1102075101695MD1890029+9999REMMET10001/26/25 22:00:01 METAR KNEL 270300Z 00000KT 10SM CLR M05/M08 A3014 RMK AO2 SLP205 T10501078 58002 $
0178724090147802025012704007+40033-074350FM-15+0031KNEL V0209999C000052200059N0160935N5-00615-00835102045ADDGA1005+999999999GD10991+9999999GF100991999999999999999999MA1102035101665REMMET09401/26/25 23:00:01 METAR KNEL 270400Z 00000KT 10SM CLR M06/M08 A3013 RMK AO2 SLP204 T10611083 $
0214724090147802025012705007+40033-074350FM-15+0031KNEL V0209999C000052200059N0160935N5-00785-00945102025ADDGA1005+999999999GD10991+9999999GF100991999999999999999999KA1240M-00781KA2240N-00781MA1102035101665REMMET10401/27/25 00:00:01 METAR KNEL 270500Z 00000KT 10SM CLR M08/M09 A3013 RMK AO2 SLP202 T10781094 410781078 $
0236724090147802025012706007+40033-074350FM-15+0031KNEL V0209999C000052200059N0160935N5-00505-00835101945ADDGA1005+999999999GD10991+9999999GF100991999999999999999999KA1060M-00221KA2060N-00781MA1101965101595MD1690089+9999REMMET11201/27/25 01:00:01 METAR KNEL 270600Z 00000KT 10SM CLR M05/M08 A3011 RMK AO2 SLP194 T10501083 11022 21078 56008 $
0178724090147802025012708007+40033-074350FM-15+0031KNEL V0209999C000052200059N0160935N5-00895-01065101835ADDGA1005+999999999GD10991+9999999GF100991999999999999999999MA1101835101465REMMET09401/27/25 03:00:01 METAR KNEL 270800Z 00000KT 10SM CLR M09/M11 A3007 RMK AO2 SLP183 T10891106 $
0223724090147802025012709007+40033-074350FM-15+0031KNEL V0209999C00005033535MN0160935N5-00785-01005101755ADDGA1075+033535999GD13991+0335359GE19AGL   +99999+99999GF199999999999033531999999MA1101765101395MD1890189+9999REMMET10301/27/25 04:00:01 METAR KNEL 270900Z 00000KT 10SM BKN110 M08/M10 A3005 RMK AO2 SLP175 T10781100 58018 $
0222724090147802025012710007+40033-074350FM-15+0031KNEL V0202905N002152200059N0160935N5-00785-01005101755ADDGA1045+033535999GD12991+0335359GE19AGL   +99999+99999GF104995999999033531999999MA1101765101395REMMET09701/27/25 05:00:01 METAR KNEL 271000Z 29004KT 10SM SCT110 M08/M10 A3005 RMK AO2 SLP175 T10781100 $EQDD01      0ADE726
0178724090147802025012711007+40033-074350FM-15+0031KNEL V0202705N002652200059N0160935N5-00565-00945101775ADDGA1005+999999999GD10991+9999999GF100991999999999999999999MA1101795101425REMMET09401/27/25 06:00:01 METAR KNEL 271100Z 27005KT 10SM CLR M06/M09 A3006 RMK AO2 SLP177 T10561094 $
0178724090147802025012713007+40033-074350FM-15+0031KNEL V0209999C000052200059N0160935N5-00505-00785101845ADDGA1005+999999999GD10991+9999999GF100991999999999999999999MA1101865101495REMMET09401/27/25 08:00:01 METAR KNEL 271300Z 00000KT 10SM CLR M05/M08 A3008 RMK AO2 SLP184 T10501078 $
0177724090147802025012714007+40033-074350FM-15+0031KNEL V0202805N005152200059N0160935N5+00065-01005101865ADDGA1005+999999999GD10991+9999999GF100991999999999999999999MA1101865101495REMMET09301/27/25 09:00:01 METAR KNEL 271400Z 28010KT 10SM CLR 01/M10 A3008 RMK AO2 SLP186 T00061100 $
0208724090147802025012715007+40033-074350FM-15+0031KNEL V0202605N006752200059N0160935N5+00225-01285101835ADDGA1005+999999999GD10991+9999999GF100991999999999999999999MA1101835101465MD1190099+9999OC100985REMMET10201/27/25 10:00:01 METAR KNEL 271500Z 26013G19KT 10SM CLR 02/M13 A3007 RMK AO2 SLP183 T00221128 51009 $
0177724090147802025012716007+40033-074350FM-15+0031KNEL V0202605N006752200059N0160935N5+00335-01395101775ADDGA1005+999999999GD10991+9999999GF100991999999999999999999MA1101765101395REMMET09301/27/25 11:00:02 METAR KNEL 271600Z 26013KT 10SM CLR 03/M14 A3005 RMK AO2 SLP177 T00331139 $
0188724090147802025012717007+40033-074350FM-15+0031KNEL V0202405N005752200059N0160935N5+00445-01395101615ADDGA1005+999999999GD10991+9999999GF100991999999999999999999MA1101635101255OC101085REMMET09601/27/25 12:00:02 METAR KNEL 271700Z 24011G21KT 10SM CLR 04/M14 A3001 RMK AO2 SLP161 T00441139 $
0235724090147802025012718007+40033-074350FM-15+0031KNEL V0202705N007752200059N0160935N5+00505-01505101465ADDGA1005+999999999GD10991+9999999GF100991999999999999999999KA1060M+00501KA2060N-00891MA1101465101085MD1890269+9999REMMET11101/27/25 13:00:02 METAR KNEL 271800Z 27015KT 10SM CLR 05/M15 A2996 RMK AO2 SLP146 T00501150 10050 21089 58026 $
0188724090147802025012719007+40033-074350FM-15+0031KNEL V0202605N007752200059N0160935N5+00565-01505101285ADDGA1005+999999999GD10991+9999999GF100991999999999999999999MA1101295100915OC101185REMMET09601/27/25 14:00:02 METAR KNEL 271900Z 26015G23KT 10SM CLR 06/M15 A2991 RMK AO2 SLP128 T00561150 $
0177724090147802025012720007+40033-074350FM-15+0031KNEL V0202605N005752200059N0160935N5+00615-01565101175ADDGA1005+999999999GD10991+9999999GF100991999999999999999999MA1101195100815REMMET09301/27/25 15:00:02 METAR KNEL 272000Z 26011KT 10SM CLR 06/M16 A2988 RMK AO2 SLP117 T00611156 $
0177724090147802025012722007+40033-074350FM-15+0031KNEL V0202305N003152200059N0160935N5+00395-01445100995ADDGA1005+999999999GD10991+9999999GF100991999999999999999999MA1100985100615REMMET09301/27/25 17:00:02 METAR KNEL 272200Z 23006KT 10SM CLR 04/M14 A2982 RMK AO2 SLP099 T00391144 $
0177724090147802025012723007+40033-074350FM-15+0031KNEL V0202005N002152200059N0160935N5+00115-01395100945ADDGA1005+999999999GD10991+9999999GF100991999999999999999999MA1100955100585REMMET09301/27/25 18:00:02 METAR KNEL 272300Z 20004KT 10SM CLR 01/M14 A2981 RMK AO2 SLP094 T00111139 $
0235724090147802025012800007+40033-074350FM-15+0031KNEL V0202105N003152200059N0160935N5+00115-01175100895ADDGA1005+999999999GD10991+9999999GF100991999999999999999999KA1060M+00671KA2060N-00061MA1100915100545MD1690239+9999REMMET11101/27/25 19:00:01 METAR KNEL 280000Z 21006KT 10SM CLR 01/M12 A2980 RMK AO2 SLP089 T00111117 10067 21006 56023 $
0177724090147802025012801007+40033-074350FM-15+0031KNEL V0202105N003152200059N0160935N5+00115-01005100795ADDGA1005+999999999GD10991+9999999GF100991999999999999999999MA1100815100445REMMET09301/27/25 20:00:01 METAR KNEL 280100Z 21006KT 10SM CLR 01/M10 A2977 RMK AO2 SLP079 T00111100 $
0177724090147802025012802007+40033-074350FM-15+0031KNEL V0202105N004652200059N0160935N5+00115-00835100685ADDGA1005+999999999GD10991+9999999GF100991999999999999999999MA1100685100315REMMET09301/27/25 21:00:01 METAR KNEL 280200Z 21009KT 10SM CLR 01/M08 A2973 RMK AO2 SLP068 T00111083 $
0197724090147802025012803007+40033-074350FM-15+0031KNEL V0202205N004152200059N0160935N5+00065-00725100585ADDGA1005+999999999GD10991+9999999GF100991999999999999999999MA1100585100215MD1890259+9999REMMET09901/27/25 22:00:01 METAR KNEL 280300Z 22008KT 10SM CLR 01/M07 A2970 RMK AO2 SLP058 T00061072 58025 $
0177724090147802025012804007+40033-074350FM-15+0031KNEL V0202305N004152200059N0160935N5+00065-00675100475ADDGA1005+999999999GD10991+9999999GF100991999999999999999999MA1100475100105REMMET09301/27/25 23:00:01 METAR KNEL 280400Z 23008KT 10SM CLR 01/M07 A2967 RMK AO2 SLP047 T00061067 $
0213724090147802025012805007+40033-074350FM-15+0031KNEL V0202405N002652200059N0160935N5+00005-00615100395ADDGA1005+999999999GD10991+9999999GF100991999999999999999999KA1240M+00001KA2240N+00001MA1100415100045REMMET10301/28/25 00:00:01 METAR KNEL 280500Z 24005KT 10SM CLR 00/M06 A2965 RMK AO2 SLP039 T00001061 400000000 $
0236724090147802025012806007+40033-074350FM-15+0031KNEL V0202705N001552200059N0160935N5-00065-00615100295ADDGA1005+999999999GD10991+9999999GF100991999999999999999999KA1060M+00171KA2060N-00061MA1100305099945MD1690299+9999REMMET11201/28/25 01:00:01 METAR KNEL 280600Z 27003KT 10SM CLR M01/M06 A2962 RMK AO2 SLP029 T10061061 10017 21006 56029 $
0188724090147802025012813007+40033-074350FM-15+0031KNEL V0202605N006752200059N0160935N5+00395-01115100295ADDGA1005+999999999GD10991+9999999GF100991999999999999999999MA1100305099945OC101085REMMET09601/28/25 08:00:01 METAR KNEL 281300Z 26013G21KT 10SM CLR 04/M11 A2962 RMK AO2 SLP029 T00391111 $
0245724090147802025012814007+40033-074350FM-15+0031KNEL V0202705N00985015245MN0160935N5+00445-00895100365ADDGA1085+015245999GD14991+0152459GE19AGL   +99999+99999GF199999999999015241999999MA1100375100005OC101395OD149901391280REMMET11701/28/25 09:00:01 METAR KNEL 281400Z 27019G27KT 10SM OVC050 04/M09 A2964 RMK AO2 PK WND 28027/1359 SLP036 T00441089 $
0265724090147802025012815007+40033-074350FM-15+0031KNEL V0202705N00935015245MN0160935N5+00565-00785100375ADDGA1075+015245999GD13991+0152459GE19AGL   +99999+99999GF199999999999015241999999MA1100375100005MD1290209+9999OC101805OD149902001250REMMET12301/28/25 10:00:01 METAR KNEL 281500Z 27018G35KT 10SM BKN050 06/M08 A2964 RMK AO2 PK WND 25039/1425 SLP037 T00561078 52020 $
0245724090147802025012816007+40033-074350FM-15+0031KNEL V0202905N01035016765MN0160935N5+00565-00675100435ADDGA1075+016765999GD13991+0167659GE19AGL   +99999+99999GF199999999999016761999999MA1100445100075OC102165OD149902161300REMMET11701/28/25 11:00:02 METAR KNEL 281600Z 29020G42KT 10SM BKN055 06/M07 A2966 RMK AO2 PK WND 30042/1552 SLP043 T00561067 $
0245724090147802025012817007+40033-074350FM-15+0031KNEL V0202905N01085018295MN0160935N5+00565-00725100425ADDGA1075+018295999GD13991+0182959GE19AGL   +99999+99999GF199999999999018291999999MA1100445100075OC101655OD149902001300REMMET11701/28/25 12:00:02 METAR KNEL 281700Z 29021G32KT 10SM BKN060 06/M07 A2966 RMK AO2 PK WND 30039/1648 SLP042 T00561072 $
0303724090147802025012818007+40033-074350FM-15+0031KNEL V0202905N00935016765MN0160935N5+00565-00725100475ADDGA1075+016765999GD13991+0167659GE19AGL   +99999+99999GF199999999999016761999999KA1060M+00611KA2060N+00331MA1100475100105MD1090069+9999OC101495OD149901801300REMMET13501/28/25 13:00:02 METAR KNEL 281800Z 29018G29KT 10SM BKN055 06/M07 A2967 RMK AO2 PK WND 30035/1710 SLP047 T00561072 10061 20033 50006 $
0206724090147802025012819007+40033-074350FM-15+0031KNEL V0202905N008852200059N0160935N5+00565-00725100475ADDGA1005+999999999GD10991+9999999GF100991999999999999999999MA1100475100105OC101345REMMET11401/28/25 14:00:02 METAR KNEL 281900Z 29017G26KT 10SM CLR 06/M07 A2967 RMK AO2 PK WND 30041/1833 SLP047 T00561072 $
0264724090147802025012820007+40033-074350FM-15+0031KNEL V0202805N008252200059N0160935N5+00565-00785100475ADDGA1025+016765999GD11991+0167659GE19AGL   +99999+99999GF102995999999016761999999MA1100475100105OC101395OD149901851300REMMET11701/28/25 15:00:02 METAR KNEL 282000Z 28016G27KT 10SM FEW055 06/M08 A2967 RMK AO2 PK WND 30036/1919 SLP047 T00561078 $EQDD01      0ADE726
0229724090147802025012821007+40033-074350FM-15+0031KNEL V0202905N005752200059N0160935N5+00505-00785100535ADDGA1005+999999999GD10991+9999999GF100991999999999999999999MA1100545100175MD1190059+9999OD149901801300REMMET11701/28/25 16:00:02 METAR KNEL 282100Z 29011KT 10SM CLR 05/M08 A2969 RMK AO2 PK WND 30035/2009 SLP053 T00501078 51005 $
0177724090147802025012823007+40033-074350FM-15+0031KNEL V0209999C000052200059N0160935N5+00115-00785100655ADDGA1005+999999999GD10991+9999999GF100991999999999999999999MA1100685100315REMMET09301/28/25 18:00:02 METAR KNEL 282300Z 00000KT 10SM CLR 01/M08 A2973 RMK AO2 SLP065 T00111078 $
0236724090147802025012900007+40033-074350FM-15+0031KNEL V0209999C000052200059N0160935N5-00115-00785100635ADDGA1005+999999999GD10991+9999999GF100991999999999999999999KA1060M+00671KA2060N-00221MA1100645100275MD1290179+9999REMMET11201/28/25 19:00:01 METAR KNEL 290000Z 00000KT 10SM CLR M01/M08 A2972 RMK AO2 SLP063 T10111078 10067 21022 52017 $
0178724090147802025012901007+40033-074350FM-15+0031KNEL V0209999C000052200059N0160935N5-00175-00785100585ADDGA1005+999999999GD10991+9999999GF100991999999999999999999MA1100585100215REMMET09401/28/25 20:00:01 METAR KNEL 290100Z 00000KT 10SM CLR M02/M08 A2970 RMK AO2 SLP058 T10171078 $
0178724090147802025012902007+40033-074350FM-15+0031KNEL V0201305N001552200059N0160935N5-00225-00785100485ADDGA1005+999999999GD10991+9999999GF100991999999999999999999MA1100475100105REMMET09401/28/25 21:00:01 METAR KNEL 290200Z 13003KT 10SM CLR M02/M08 A2967 RMK AO2 SLP048 T10221078 $
0198724090147802025012903007+40033-074350FM-15+0031KNEL V0201305N001552200059N0160935N5-00115-00725100435ADDGA1005+999999999GD10991+9999999GF100991999999999999999999MA1100445100075MD1890189+9999REMMET10001/28/25 22:00:01 METAR KNEL 290300Z 13003KT 10SM CLR M01/M07 A2966 RMK AO2 SLP043 T10111072 58018 $
0178724090147802025012904007+40033-074350FM-15+0031KNEL V0201505N002152200059N0160935N5-00225-00675100305ADDGA1005+999999999GD10991+9999999GF100991999999999999999999MA1100305099945REMMET09401/28/25 23:00:01 METAR KNEL 290400Z 15004KT 10SM CLR M02/M07 A2962 RMK AO2 SLP030 T10221067 $
0214724090147802025012905007+40033-074350FM-15+0031KNEL V0201405N002652200059N0160935N5-00175-00565100105ADDGA1005+999999999GD10991+9999999GF100991999999999999999999KA1240M-00171KA2240N-00171MA1100105099735REMMET10401/29/25 00:00:01 METAR KNEL 290500Z 14005KT 10SM CLR M02/M06 A2956 RMK AO2 SLP010 T10171056 410171017 $
0271724090147802025012906007+40033-074350FM-15+0031KNEL V0202205N00575027435MN0160935N5+00395-00445099965ADDGA1085+027435999GD14991+0274359GE19AGL   +99999+99999GF199999999999027431999999KA1060M+00441KA2060N-00331MA1099975099605MD1890389+9999OC101135REMMET11701/29/25 01:00:01 METAR KNEL 290600Z 22011G22KT 10SM OVC090 04/M04 A2952 RMK AO2 SLP996 T00391044 10044 21033 58038 $
0177724090147802025012907007+40033-074350FM-15+0031KNEL V0202505N004152200059N0160935N5+00335-00505099955ADDGA1005+999999999GD10991+9999999GF100991999999999999999999MA1099975099605REMMET09301/29/25 02:00:01 METAR KNEL 290700Z 25008KT 10SM CLR 03/M05 A2952 RMK AO2 SLP995 T00331050 $
0202724090147802025012908007+40033-074350FM-15+0031KNEL V0202505N00365030485MN0160935N5+00225-00505099925ADDGA1075+030485999GD13991+0304859GE19AGL   +99999+99999GF199999999999030481999999MA1099935099565REMMET09601/29/25 03:00:01 METAR KNEL 290800Z 25007KT 10SM BKN100 02/M05 A2951 RMK AO2 SLP992 T00221050 $
0197724090147802025012909007+40033-074350FM-15+0031KNEL V0202405N003152200059N0160935N5+00175-00505099905ADDGA1005+999999999GD10991+9999999GF100991999999999999999999MA1099935099565MD1690179+9999REMMET09901/29/25 04:00:01 METAR KNEL 290900Z 24006KT 10SM CLR 02/M05 A2951 RMK AO2 SLP990 T00171050 56017 $
0177724090147802025012910007+40033-074350FM-15+0031KNEL V0202305N002652200059N0160935N5+00005-00565099935ADDGA1005+999999999GD10991+9999999GF100991999999999999999999MA1099935099565REMMET09301/29/25 05:00:01 METAR KNEL 291000Z 23005KT 10SM CLR 00/M06 A2951 RMK AO2 SLP993 T00001056 $
0177724090147802025012911007+40033-074350FM-15+0031KNEL V0202305N003152200059N0160935N5+00005-00565099925ADDGA1005+999999999GD10991+9999999GF100991999999999999999999MA1099935099565REMMET09301/29/25 06:00:01 METAR KNEL 291100Z 23006KT 10SM CLR 00/M06 A2951 RMK AO2 SLP992 T00001056 $
0235724090147802025012912007+40033-074350FM-15+0031KNEL V0202405N003652200059N0160935N5+00225-00505099965ADDGA1005+999999999GD10991+9999999GF100991999999999999999999KA1060M+00391KA2060N+00001MA1099975099605MD1690019+9999REMMET11101/29/25 07:00:01 METAR KNEL 291200Z 24007KT 10SM CLR 02/M05 A2952 RMK AO2 SLP996 T00221050 10039 20000 56001 $
0188724090147802025012914007+40033-074350FM-15+0031KNEL V0202505N004652200059N0160935N5+00675-00445099955ADDGA1005+999999999GD10991+9999999GF100991999999999999999999MA1099975099605OC100885REMMET09601/29/25 09:00:01 METAR KNEL 291400Z 25009G17KT 10SM CLR 07/M04 A2952 RMK AO2 SLP995 T00671044 $
0169724090147802025012916006+40033-074350FM-15+0031KNEL V02099999999992200059N0160935N5+01115-00395099895ADDGA1005+999999999GD10991+9999999MA1099905099535REMMET11101/29/25 11:00:02 METAR KNEL 291600Z      KT 10SM CLR 11/M04 A2950 RMK AO2 PK WND 25035/1537 SLP989 T01111039 $
0172724090147802025012917006+40033-074350FM-15+0031KNEL V02099999999992200059N0160935N5+01115-00445099805ADDGA1045+021345999GD12991+0213459MA1099835099465REMMET11401/29/25 12:00:02 METAR KNEL 291700Z      KT 10SM SCT070 11/M04 A2948 RMK AO2 PK WND 25036/1612 SLP980 T01111044 $
0322724090147802025012918007+40033-074350FM-15+0031KNEL V0202705N01246021345MN0160935N5+01065-00505099745ADDGA1075+021345999GD13991+0213459GE19AGL   +99999+99999GF199999999999021341999999KA1060M+01171KA2060N+00221MA1099765099405MD1890149+9999OC102275OD149902361280REMMET13501/29/25 13:00:02 METAR KNEL 291800Z 27024G44KT 10SM BKN070 11/M05 A2946 RMK AO2 PK WND 28046/1730 SLP974 T01061050 10117 20022 58014 $EQDR01    247WNS038
0191724090147802025012919006+40033-074350FM-15+0031KNEL V02099999999992200059N0160935N5+01175-00565099835ADDGA1025+021345999GD11991+0213459MA1099865099505REMMET11401/29/25 14:00:02 METAR KNEL 291900Z      KT 10SM FEW070 12/M06 A2949 RMK AO2 PK WND 30042/1815 SLP983 T01171056 $EQDR01      7WNS038
0280724090147802025012920007+40033-074350FM-15+0031KNEL V0202705N010862200059N0160935N5+01065-00725099975ADDGA1045+022865999GD12991+0228659GE19AGL   +99999+99999GF104995999999022861999999MA1100005099635OC102065OD149902721300REMMET11701/29/25 15:00:02 METAR KNEL 292000Z 27021G40KT 10SM SCT075 11/M07 A2953 RMK AO2 PK WND 30053/1918 SLP997 T01061072 $EQDR01    217WNS038D01      0ADE726
0226724090147802025012921007+40033-074350FM-15+0031KNEL V0202805N010852200059N0160935N5+00895-00725100125ADDGA1005+999999999GD10991+9999999GF100991999999999999999999MA1100145099775MD1390179+9999OC102275REMMET12001/29/25 16:00:02 METAR KNEL 292100Z 28021G44KT 10SM CLR 09/M07 A2957 RMK AO2 PK WND 29048/2005 SLP012 T00891072 53017 $
0264724090147802025012922007+40033-074350FM-15+0031KNEL V0202805N008852200059N0160935N5+00785-00615100285ADDGA1025+022865999GD11991+0228659GE19AGL   +99999+99999GF102995999999022861999999MA1100305099945OC101445OD149902211250REMMET11701/29/25 17:00:02 METAR KNEL 292200Z 28017G28KT 10SM FEW075 08/M06 A2962 RMK AO2 PK WND 25043/2101 SLP028 T00781061 $EQDD01      0ADE726
0264724090147802025012923007+40033-074350FM-15+0031KNEL V0202905N009352200059N0160935N5+00725-00395100445ADDGA1045+021345999GD12991+0213459GE19AGL   +99999+99999GF104995999999021341999999MA1100445100075OC101545OD149901541300REMMET11701/29/25 18:00:02 METAR KNEL 292300Z 29018G30KT 10SM SCT070 07/M04 A2966 RMK AO2 PK WND 30030/2300 SLP044 T00721039 $EQDD01      0ADE726
0264724090147802025013000007+40033-074350FM-15+0031KNEL V0202905N008852200059N0160935N5+00615-00565100615ADDGA1005+999999999GD10991+9999999GF100991999999999999999999KA1060M+01171KA2060N+00561MA1100615100245MD1390479+9999OC101605REMMET13201/29/25 19:00:01 METAR KNEL 300000Z 29017G31KT 10SM CLR 06/M06 A2971 RMK AO2 PK WND 29043/2320 SLP061 T00611056 10117 20056 53047 $
0206724090147802025013001007+40033-074350FM-15+0031KNEL V0202805N009352200059N0160935N5+00505-00565100775ADDGA1005+999999999GD10991+9999999GF100991999999999999999999MA1100785100415OC101705REMMET11401/29/25 20:00:01 METAR KNEL 300100Z 28018G33KT 10SM CLR 05/M06 A2976 RMK AO2 PK WND 27035/0023 SLP077 T00501056 $
0264724090147802025013002007+40033-074350FM-15+0031KNEL V0202905N009852200059N0160935N5+00445-00725100905ADDGA1045+019815999GD12991+0198159GE19AGL   +99999+99999GF104995999999019811999999MA1100915100545OC101445OD149901641280REMMET11701/29/25 21:00:01 METAR KNEL 300200Z 29019G28KT 10SM SCT065 04/M07 A2980 RMK AO2 PK WND 28032/0120 SLP090 T00441072 $EQDD01      0ADE726
0226724090147802025013003007+40033-074350FM-15+0031KNEL V0202905N008852200059N0160935N5+00395-00945101025ADDGA1005+999999999GD10991+9999999GF100991999999999999999999MA1101055100685MD1190469+9999OC101705REMMET12001/29/25 22:00:01 METAR KNEL 300300Z 29017G33KT 10SM CLR 04/M09 A2984 RMK AO2 PK WND 30033/0300 SLP102 T00391094 51046 $
0206724090147802025013004007+40033-074350FM-15+0031KNEL V0203105N004652200059N0160935N5+00285-01005101165ADDGA1005+999999999GD10991+9999999GF100991999999999999999999MA1101195100815OC101085REMMET11401/29/25 23:00:01 METAR KNEL 300400Z 31009G21KT 10SM CLR 03/M10 A2988 RMK AO2 PK WND 29030/0341 SLP116 T00281100 $
0242724090147802025013005007+40033-074350FM-15+0031KNEL V0203005N012952200059N0160935N5+00225-01065101275ADDGA1005+999999999GD10991+9999999GF100991999999999999999999KA1240M+00221KA2240N+00221MA1101295100915OC101855REMMET12401/30/25 00:00:01 METAR KNEL 300500Z 30025G36KT 10SM CLR 02/M11 A2991 RMK AO2 PK WND 30034/0500 SLP127 T00221106 400220022 $
0264724090147802025013006007+40033-074350FM-15+0031KNEL V0203005N006252200059N0160935N5+00115-01175101385ADDGA1005+999999999GD10991+9999999GF100991999999999999999999KA1060M+00611KA2060N+00111MA1101395101025MD1190379+9999OC101185REMMET13201/30/25 01:00:01 METAR KNEL 300600Z 30012G23KT 10SM CLR 01/M12 A2994 RMK AO2 PK WND 29033/0501 SLP138 T00111117 10061 20011 51037 $
0206724090147802025013007007+40033-074350FM-15+0031KNEL V0203205N003152200059N0160935N5+00065-01115101555ADDGA1005+999999999GD10991+9999999GF100991999999999999999999MA1101565101195OC100885REMMET11401/30/25 02:00:01 METAR KNEL 300700Z 32006G17KT 10SM CLR 01/M11 A2999 RMK AO2 PK WND 30026/0624 SLP155 T00061111 $
0178724090147802025013010007+40033-074350FM-15+0031KNEL V0203005N003152200059N0160935N5-00225-01285101875ADDGA1005+999999999GD10991+9999999GF100991999999999999999999MA1101905101525REMMET09401/30/25 05:00:01 METAR KNEL 301000Z 30006KT 10SM CLR M02/M13 A3009 RMK AO2 SLP187 T10221128 $
0178724090147802025013011007+40033-074350FM-15+0031KNEL V0209999C000052200059N0160935N5-00285-01285102075ADDGA1005+999999999GD10991+9999999GF100991999999999999999999MA1102105101735REMMET09401/30/25 06:00:01 METAR KNEL 301100Z 00000KT 10SM CLR M03/M13 A3015 RMK AO2 SLP207 T10281128 $
0243724090147802025013012007+40033-074350FM-15+0031KNEL V0203205N001552200059N0160935N5-00335-01335102275ADDGA1005+999999999GD10991+9999999GF100991999999999999999999KA1060M+00111KA2060N-00611MA1102275101895MD1390409+9999REMMET11901/30/25 07:00:01 METAR KNEL 301200Z 32003KT 10SM CLR M03/M13 A3020 RMK AO2 PRESRR SLP227 T10331133 10011 21061 53040 $
0178724090147802025013013007+40033-074350FM-15+0031KNEL V0203305N001552200059N0160935N5-00225-01225102385ADDGA1005+999999999GD10991+9999999GF100991999999999999999999MA1102375102005REMMET09401/30/25 08:00:01 METAR KNEL 301300Z 33003KT 10SM CLR M02/M12 A3023 RMK AO2 SLP238 T10221122 $
0178724090147802025013014007+40033-074350FM-15+0031KNEL V0203205N003152200059N0160935N5-00115-01335102455ADDGA1005+999999999GD10991+9999999GF100991999999999999999999MA1102445102065REMMET09401/30/25 09:00:01 METAR KNEL 301400Z 32006KT 10SM CLR M01/M13 A3025 RMK AO2 SLP245 T10111133 $
0197724090147802025013015007+40033-074350FM-15+0031KNEL V0203105N003152200059N0160935N5+00005-01335102485ADDGA1005+999999999GD10991+9999999GF100991999999999999999999MA1102515102135MD1190379+9999REMMET09901/30/25 10:00:01 METAR KNEL 301500Z 31006KT 10SM CLR 00/M13 A3027 RMK AO2 SLP248 T00001133 51037 $
0188724090147802025013017007+40033-074350FM-15+0031KNEL V0202905N007252200059N0160935N5+00175-01285102465ADDGA1005+999999999GD10991+9999999GF100991999999999999999999MA1102475102105OC101085REMMET09601/30/25 12:00:01 METAR KNEL 301700Z 29014G21KT 10SM CLR 02/M13 A3026 RMK AO2 SLP246 T00171128 $
0246724090147802025013018007+40033-074350FM-15+0031KNEL V0202805N004152200059N0160935N5+00225-01225102365ADDGA1005+999999999GD10991+9999999GF100991999999999999999999KA1060M+00281KA2060N-00441MA1102375102005MD1090019+9999OC100775REMMET11401/30/25 13:00:01 METAR KNEL 301800Z 28008G15KT 10SM CLR 02/M12 A3023 RMK AO2 SLP236 T00221122 10028 21044 50001 $
0177724090147802025013019007+40033-074350FM-15+0031KNEL V0202605N004152200059N0160935N5+00335-01225102365ADDGA1005+999999999GD10991+9999999GF100991999999999999999999MA1102375102005REMMET09301/30/25 14:00:01 METAR KNEL 301900Z 26008KT 10SM CLR 03/M12 A3023 RMK AO2 SLP236 T00331122 $
0197724090147802025013021007+40033-074350FM-15+0031KNEL V0202505N002152200059N0160935N5+00335-01065102375ADDGA1005+999999999GD10991+9999999GF100991999999999999999999MA1102375102005MD1590079+9999REMMET09901/30/25 16:00:01 METAR KNEL 302100Z 25004KT 10SM CLR 03/M11 A3023 RMK AO2 SLP237 T00331106 55007 $
0177724090147802025013022007+40033-074350FM-15+0031KNEL V0209999C000052200059N0160935N5+00115-01065102415ADDGA1005+999999999GD10991+9999999GF100991999999999999999999MA1102405102035REMMET09301/30/25 17:00:01 METAR KNEL 302200Z 00000KT 10SM CLR 01/M11 A3024 RMK AO2 SLP241 T00111106 $
0236724090147802025013100007+40033-074350FM-15+0031KNEL V0201405N002152200059N0160935N5-00115-00725102485ADDGA1005+999999999GD10991+9999999GF100991999999999999999999KA1060M+00391KA2060N-00171MA1102515102135MD1390019+9999REMMET11201/30/25 19:00:01 METAR KNEL 310000Z 14004KT 10SM CLR M01/M07 A3027 RMK AO2 SLP248 T10111072 10039 21017 53001 $
0178724090147802025013101007+40033-074350FM-15+0031KNEL V0201405N002152200059N0160935N5-00115-00675102405ADDGA1005+999999999GD10991+9999999GF100991999999999999999999MA1102405102035REMMET09401/30/25 20:00:01 METAR KNEL 310100Z 14004KT 10SM CLR M01/M07 A3024 RMK AO2 SLP240 T10111067 $
0178724090147802025013102007+40033-074350FM-15+0031KNEL V0201605N002152200059N0160935N5-00175-00615102415ADDGA1005+999999999GD10991+9999999GF100991999999999999999999MA1102445102065REMMET09401/30/25 21:00:01 METAR KNEL 310200Z 16004KT 10SM CLR M02/M06 A3025 RMK AO2 SLP241 T10171061 $
0198724090147802025013103007+40033-074350FM-15+0031KNEL V0201505N001552200059N0160935N5-00115-00505102315ADDGA1005+999999999GD10991+9999999GF100991999999999999999999MA1102345101965MD1190019+9999REMMET10001/30/25 22:00:01 METAR KNEL 310300Z 15003KT 10SM CLR M01/M05 A3022 RMK AO2 SLP231 T10111050 51001 $
0203724090147802025013104007+40033-074350FM-15+0031KNEL V0201505N00155036585MN0160935N5-00115-00445102225ADDGA1085+036585999GD14991+0365859GE19AGL   +99999+99999GF199999999999036581999999MA1102245101865REMMET09701/30/25 23:00:01 METAR KNEL 310400Z 15003KT 10SM OVC120 M01/M04 A3019 RMK AO2 SLP222 T10111044 $
0257724090147802025013105007+40033-074350FM-15+0031KNEL V0201605N001552200059N0160935N5+00005-00335102145ADDGA1025+036585999GD11991+0365859GE19AGL   +99999+99999GF102995999999036581999999KA1240M+00001KA2240N+00001MA1102175101795REMMET10601/31/25 00:00:01 METAR KNEL 310500Z 16003KT 10SM FEW120 00/M03 A3017 RMK AO2 SLP214 T00001033 400000000 $EQDD01      0ADE726
0229724090147802025013113007+40033-074350FM-15+0031KNEL V0201905N003659999999N0064375N5+00615+00505101475ADDAU110020015AU200001015AW1105AW2615MA1101495101125MW1615REMMET11101/31/25 08:00:01 METAR KNEL 311300Z 19007KT 4SM -RA BR 06/05 A2997 RMK AO2 RAB1213B1257 SLP147 T00610050 PNO $EQDR01      7SKY009R02   PNO7AAP062R03      7GAS009
002772409014780202502010459O+40033-074350SOD  +0031KNEL V020999999999999999999999999999+99999+99999999999ADDAT1AU16RA  5AT2AU13BR  5
0165724090147802025020315007+40033-074350FM-15+0031KNEL V0209999C000059999999N0160935N5+00565-00065102075ADDMA1102105101735REMMET10302/03/25 10:00:01 METAR KNEL 031500Z 00000KT 10SM 06/M01 A3015 RMK AO2 RAE1422 SLP207 6//// T00561006 $EQDR01      7SKY009R02      7GAS009
0155724090147802025020316007+40033-074350FM-15+0031KNEL V0202205N001559999999N0160935N5+00785+00005101935ADDMA1101965101595REMMET09302/03/25 11:00:01 METAR KNEL 031600Z 22003KT 10SM 08/00 A3011 RMK AO2 PRESFR SLP193 T00780000EQDR01      7SKY009R02      7GAS009
0194724090147802025020318007+40033-074350FM-15+0031KNEL V0202305N004159999999N0160935N5+01225+00175101695ADDKA1060M+01221KA2060N-00111MA1101695101325REMMET10602/03/25 13:00:02 METAR KNEL 031800Z 23008KT 10SM 12/02 A3003 RMK AO2 SLP169 6//// T01220017 10122 21011 $EQDR01      7SKY009R02      7GAS009
0168724090147802025020400006+40033-074350FM-15+0031KNEL V0202105N001552200059N0160935N5+00565+00175101275ADDGA1005+999999999GD10991+9999999MA1101295100915REMMET11002/03/25 19:00:01 METAR KNEL 040000Z 21003KT 10SM CLR 06/02 A2991 RMK AO2 SLP127 6//// T00560017 10122 20044 $
0176724090147802025020401007+40033-074350FM-15+0031KNEL V0202005N003652200059N0160935N5+00675+00335101135ADDGA1005+999999999GD10991+9999999GF100991999999999999999999MA1101155100785REMMET09202/03/25 20:00:01 METAR KNEL 040100Z 20007KT 10SM CLR 07/03 A2987 RMK AO2 SLP113 T00670033 $
0176724090147802025020402007+40033-074350FM-15+0031KNEL V0202105N003152200059N0160935N5+00615+00335101065ADDGA1005+999999999GD10991+9999999GF100991999999999999999999MA1101085100715REMMET09202/03/25 21:00:01 METAR KNEL 040200Z 21006KT 10SM CLR 06/03 A2985 RMK AO2 SLP106 T00610033 $
0176724090147802025020404007+40033-074350FM-15+0031KNEL V0202205N002152200059N0160935N5+00615+00395100915ADDGA1005+999999999GD10991+9999999GF100991999999999999999999MA1100915100545REMMET09202/03/25 23:00:01 METAR KNEL 040400Z 22004KT 10SM CLR 06/04 A2980 RMK AO2 SLP091 T00610039 $
0256724090147802025020405007+40033-074350FM-15+0031KNEL V0202005N002152200059N0160935N5+00565+00395100855ADDGA1025+024385999GD11991+0243859GE19AGL   +99999+99999GF102995999999024381999999KA1240M+00561KA2240N+00561MA1100855100485REMMET10502/04/25 00:00:01 METAR KNEL 040500Z 20004KT 10SM FEW080 06/04 A2978 RMK AO2 SLP085 T00560039 400560056 $EQDD01      0ADE726
0234724090147802025020406007+40033-074350FM-15+0031KNEL V0202505N002152200059N0160935N5+00565+00395100765ADDGA1005+999999999GD10991+9999999GF100991999999999999999999KA1060M+00671KA2060N+00441MA1100785100415MD1690229+9999REMMET11002/04/25 01:00:01 METAR KNEL 040600Z 25004KT 10SM CLR 06/04 A2976 RMK AO2 SLP076 T00560039 10067 20044 56022 $
0176724090147802025020407007+40033-074350FM-15+0031KNEL V0202905N001552200059N0160935N5+00565+00445100745ADDGA1005+999999999GD10991+9999999GF100991999999999999999999MA1100755100375REMMET09202/04/25 02:00:01 METAR KNEL 040700Z 29003KT 10SM CLR 06/04 A2975 RMK AO2 SLP074 T00560044 $
0176724090147802025020408007+40033-074350FM-15+0031KNEL V0203205N002152200059N0160935N5+00565+00445100695ADDGA1005+999999999GD10991+9999999GF100991999999999999999999MA1100715100345REMMET09202/04/25 03:00:01 METAR KNEL 040800Z 32004KT 10SM CLR 06/04 A2974 RMK AO2 SLP069 T00560044 $
0196724090147802025020409007+40033-074350FM-15+0031KNEL V0202805N004152200059N0160935N5+00675+00505100765ADDGA1005+999999999GD10991+9999999GF100991999999999999999999MA1100785100415MD1690159+9999REMMET09802/04/25 04:00:01 METAR KNEL 040900Z 28008KT 10SM CLR 07/05 A2976 RMK AO2 SLP076 T00670050 56015 $
0201724090147802025020410007+40033-074350FM-15+0031KNEL V0203205N00265016765MN0160935N5+00785+00505100865ADDGA1085+016765999GD14991+0167659GE19AGL   +99999+99999GF199999999999016761999999MA1100885100515REMMET09502/04/25 05:00:01 METAR KNEL 041000Z 32005KT 10SM OVC055 08/05 A2979 RMK AO2 SLP086 T00780050 $
0238724090147802025020411007+40033-074350FM-15+0031KNEL V0202905N00155021345MN0160935N5+00675+00395999999ADDGA1025+016765999GA2085+021345999GD11991+0167659GD24991+0213459GE19AGL   +99999+99999GF199999999999016761999999MA1100915100545REMMET10102/04/25 06:00:01 METAR KNEL 041100Z 29003KT 10SM FEW055 OVC070 07/04 A2980 RMK AO2 SLPNO T00670039 $
0333724090147802025020412007+40033-074350FM-15+0031KNEL V0202905N001552200059N0160935N5+00505+00285101035ADDAA124999919GA1045+015245999GA2045+024385999GD12991+0152459GD22991+0243859GE19AGL   +99999+99999GF104995999999015241999999KA1060M+00781KA2060N+00501MA1101055100685MD1190209+9999REMMET12602/04/25 07:00:01 METAR KNEL 041200Z 29003KT 10SM SCT050 SCT080 05/03 A2984 RMK AO2 SLP103 7//// T00500028 10078 20050 51020 $EQDD01      0ADE726
0176724090147802025020413007+40033-074350FM-15+0031KNEL V0209999V002152200059N0160935N5+00785+00285101125ADDGA1005+999999999GD10991+9999999GF100991999999999999999999MA1101125100755REMMET09202/04/25 08:00:01 METAR KNEL 041300Z VRB04KT 10SM CLR 08/03 A2986 RMK AO2 SLP112 T00780028 $
0232724090147802025020414007+40033-074350FM-15+0031KNEL V0203305V004652200059N0160935N5+00785-00065101245ADDGA1045+015245999GD12991+0152459GE19AGL   +99999+99999GF104995999999015241999999MA1101255100885OC101295REMMET09902/04/25 09:00:01 METAR KNEL 041400Z 33009G25KT 10SM SCT050 08/M01 A2990 RMK AO2 SLP124 T00781006 $EQDD01      0ADE726
0152724090147802025020513007+40033-074350FM-15+0031KNEL V0209999V002659999999N0160935N5-00175-01285102985ADDMA1102985102605REMMET09002/05/25 08:00:01 METAR KNEL 051300Z VRB05KT 10SM M02/M13 A3041 RMK AO2 SLP298 T10171128 $EQDR01      7SKY009R02      7GAS009
0222724090147802025020514007+40033-074350FM-15+0031KNEL V0203405N002152200059N0160935N5-00175-01285103015ADDGA1045+033535999GD12991+0335359GE19AGL   +99999+99999GF104995999999033531999999MA1103015102645REMMET09702/05/25 09:00:01 METAR KNEL 051400Z 34004KT 10SM SCT110 M02/M13 A3042 RMK AO2 SLP301 T10171128 $EQDD01      0ADE726
0209724090147802025020515007+40033-074350FM-15+0031KNEL V0203105N00265033535MN0160935N5-00115-01285103015ADDGA1085+033535999GD14991+0335359GE19AGL   +99999+99999GF199999999999033531999999MA1103015102645REMMET10302/05/25 10:00:01 METAR KNEL 051500Z 31005KT 10SM OVC110 M01/M13 A3042 RMK AO2 SLP301 6//// T10111128 $
0177724090147802025020516007+40033-074350FM-15+0031KNEL V0203305N002652200059N0160935N5+00005-01335102965ADDGA1005+999999999GD10991+9999999GF100991999999999999999999MA1102985102605REMMET09302/05/25 11:00:01 METAR KNEL 051600Z 33005KT 10SM CLR 00/M13 A3041 RMK AO2 SLP296 T00001133 $
0151724090147802025020517006+40033-074350FM-15+0031KNEL V02099999999992200059N0160935N5+00065-01395102875ADDGA1005+999999999GD10991+9999999MA1102885102505REMMET09302/05/25 12:00:01 METAR KNEL 051700Z      KT 10SM CLR 01/M14 A3038 RMK AO2 SLP287 T00061139 $
0177724090147802025020519007+40033-074350FM-15+0031KNEL V0203605N001552200059N0160935N5+00115-01395102825ADDGA1005+999999999GD10991+9999999GF100991999999999999999999MA1102845102475REMMET09302/05/25 14:00:01 METAR KNEL 051900Z 36003KT 10SM CLR 01/M14 A3037 RMK AO2 SLP282 T00111139 $
0177724090147802025020520007+40033-074350FM-15+0031KNEL V0209999C000052200059N0160935N5+00065-01445102795ADDGA1005+999999999GD10991+9999999GF100991999999999999999999MA1102815102435REMMET09302/05/25 15:00:01 METAR KNEL 052000Z 00000KT 10SM CLR 01/M14 A3036 RMK AO2 SLP279 T00061144 $
0197724090147802025020521007+40033-074350FM-15+0031KNEL V0202705N001552200059N0160935N5+00065-01335102815ADDGA1005+999999999GD10991+9999999GF100991999999999999999999MA1102815102435MD1690079+9999REMMET09902/05/25 16:00:01 METAR KNEL 052100Z 27003KT 10SM CLR 01/M13 A3036 RMK AO2 SLP281 T00061133 56007 $
0178724090147802025020522007+40033-074350FM-15+0031KNEL V0209999C000052200059N0160935N5-00065-01285102825ADDGA1005+999999999GD10991+9999999GF100991999999999999999999MA1102845102475REMMET09402/05/25 17:00:01 METAR KNEL 052200Z 00000KT 10SM CLR M01/M13 A3037 RMK AO2 SLP282 T10061128 $
0178724090147802025020523007+40033-074350FM-15+0031KNEL V0209999C000052200059N0160935N5-00065-01285102805ADDGA1005+999999999GD10991+9999999GF100991999999999999999999MA1102815102435REMMET09402/05/25 18:00:02 METAR KNEL 052300Z 00000KT 10SM CLR M01/M13 A3036 RMK AO2 SLP280 T10061128 $
0261724090147802025020600007+40033-074350FM-15+0031KNEL V0209999C00005033535MN0160935N5-00115-01065102835ADDGA1075+033535999GD13991+0335359GE19AGL   +99999+99999GF199999999999033531999999KA1060M+00111KA2060N-00171MA1102845102475MD1090009+9999REMMET11502/05/25 19:00:01 METAR KNEL 060000Z 00000KT 10SM BKN110 M01/M11 A3037 RMK AO2 SLP283 T10111106 10011 21017 50000 $
0203724090147802025020601007+40033-074350FM-15+0031KNEL V0201305N00215028965MN0160935N5-00065-00945102795ADDGA1085+028965999GD14991+0289659GE19AGL   +99999+99999GF199999999999028961999999MA1102815102435REMMET09702/05/25 20:00:01 METAR KNEL 060100Z 13004KT 10SM OVC095 M01/M09 A3036 RMK AO2 SLP279 T10061094 $
