0222724096147062025010100034+40016-074592FM-16+004399999V0201001N003110182919N016093199+01001+00701100341ADDAW1611GD12991+0100619GD22991+0118919GD34991+0182919GE19AGL   +99999+99999GF199999999999010061999999MA1100341999999REMMET096SPECI KWRI 010003Z 10006KT 10SM -RA SCT033 SCT039 OVC060 10/07 A2963 RMK AO2A LTG DSNT W SLP034=
0237724096147062025010100144+40016-074592FM-16+004399999V0201001N004610128019N016093199+01001+00701100311ADDAW1121AW2611GD12991+0094519GD23991+0128019GD34991+0182919GE19AGL   +99999+99999GF199999999999009451999999MA1100301999999REMMET105SPECI KWRI 010014Z COR 10009KT 10SM -RA VCTS SCT031 BKN042CB OVC060 10/07 A2962 RMK AO2A SLP031 COR 0044=
0262724096147062025010100554+40016-074592FM-15+004399999V0201001N005110140219N016093199+00991+00831100141ADDAA101000731AW1121AW2611GD12991+0115819GD23991+0140219GD34991+0213419GE19AGL   +99999+99999GF199999999999011581999999MA1100141999999REMMET119METAR KWRI 010055Z 10010KT 10SM -RA VCTS SCT038 BKN046CB OVC070 10/08 A2957 RMK AO2A LTG DSNT S SLP014 P0003 T00990083=
0228724096147062025010101264+40016-074592FM-16+004399999V0200901N003610140219N016093199+01001+00901100041ADDAW1921GD12991+0115819GD23991+0140219GD34991+0213419GE19AGL   +99999+99999GF199999999999011581999999MA1100031999999REMMET102SPECI KWRI 010126Z COR 09007KT 10SM -TSRA SCT038 BKN046CB OVC070 10/09 A2954 RMK AO2A SLP004 COR 0131=
0232724096147062025010101554+40016-074592FM-15+004399999V0201301N004610057919N014484199+01031+00911099971ADDAA101001531AW1921GD13991+0057919GD24991+0167619GE19AGL   +99999+99999GF199999999999005791999999MA1099971999999REMMET110METAR KWRI 010155Z COR 13009KT 9SM -TSRA BKN019 OVC055CB 10/09 A2952 RMK AO2A SLP997 P0006 T01030091 COR 0159=
0202724096147062025010102154+40016-074592FM-16+004399999V0202001N005710021319N012875199+01101+01001100071ADDAW1921GD13991+0021319GD24991+0134119GE19AGL   +99999+99999GF199999999999002131999999MA1100071999999OC100821REMMET083SPECI KWRI 010215Z 20011G16KT 8SM TSRA BKN007CB OVC044 11/10 A2955 RMK AO2A SLP007=
0277724096147062025010102554+40016-074592FM-15+004399999V0201401N003110213419N016093199+01081+00921099901ADDAA101001231AA203003691AW1611GD13991+0213419GE19AGL   +99999+99999GF199999999999021341999999MA1099901999999MD1710471+9999REMMET126METAR KWRI 010255Z 14006KT 10SM -RA BKN070 11/09 A2950 RMK AO2A PK WND 20028/16 TSB0126E55 SLP990 P0005 60014 T01080092 57047=EQDQ01  00358PRCP03
0163724096147062025010102574+40016-074592FM-16+004399999V0201601N003110213419N016093199+01101+00901099901ADDGD13991+0213419GE19AGL   +99999+99999GF199999999999021341999999MA1099901999999REMMET073SPECI KWRI 010257Z 16006KT 10SM BKN070 11/09 A2950 RMK AO2A RAE57 SLP990=
0198724096147062025010103554+40016-074592FM-15+004399999V0202401N003612200059N016093199+00901+00761099901ADDGD12991+0396219GE19AGL   +99999+99999GF104995999999039621999999MA1099901999999REMMET089METAR KWRI 010355Z AUTO 24007KT 10SM SCT130 09/08 A2950 RMK AO2 RAE0255 SLP990 T00900076=EQDD01      0ADE726
0210724096147062025010104557+40017-074600FM-15+0041KWRI V0209999C000052200059N0160935N5+00755+00665099795ADDGA1005+999999999GD10991+9999999GF100991999999999999999999KA1240M+01391KA2240N-00171MA1099805099315REMMET10012/31/24 23:55:02 METAR KWRI 010455Z 00000KT 10SM CLR 08/07 A2947 RMK AO2 SLP979 T00750066 401391017
0237724096147062025010105277+40017-074600FM-15+0041KWRI V0209999C000052200059N0000007N5+00805+00705099795ADDAU100001015AW1105GA1005+999999999GD10991+9999999GF100991999999999999999999MA1099805099315REMMET11701/01/25 00:27:02 METAR KWRI 010527Z 00000KT 2 3/4SM BR CLR 08/07 A2947 RMK AO2A VIS 2 3/4V10 VIS 5/8 RWY06/24 SLP979EQDR012 3/4S7VIS011
0209724096147062025010106237+40017-074600FM-15+0041KWRI V0202405N003152200059N0160935N5+00805+00705099835ADDGA1025+003055999GD11991+0030559GE19AGL   +99999+99999GF102995999999003051999999MA1099835099345REMMET08401/01/25 01:23:02 METAR KWRI 010623Z 24006KT 10SM FEW010 08/07 A2948 RMK A02A SLP983EQDD01      0ADE726
0209724096147062025010106247+40017-074600FM-15+0041KWRI V0202405N003152200059N0160935N5+00805+00705099835ADDGA1025+003055999GD11991+0030559GE19AGL   +99999+99999GF102995999999003051999999MA1099835099345REMMET08401/01/25 01:24:02 METAR KWRI 010624Z 24006KT 10SM FEW010 08/07 A2948 RMK A02A SLP983EQDD01      0ADE726
0266724096147062025010106317+40017-074600FM-15+0041KWRI V0202405N00315003665MN0160935N5+00805+00705099865ADDGA1045+002135999GA2075+003665999GD12991+0021351GD23991+0036659GE19AGL   +99999+99999GF199999999999002131999999MA1099865099385REMMET12901/01/25 01:31:02 METAR KWRI 010631Z 24006KT 10SM SCT007 BKN012 08/07 A2949 RMK AO2A BKN V SCT CIG 006 RWY06 CIG 008 RWY18 SLP986
0267724096147062025010106337+40017-074600FM-15+0041KWRI V0202505N00365002135MN0160935N5+00805+00705099865ADDGA1075+002135999GA2075+003665999GD13991+0021351GD23991+0036659GE19AGL   +99999+99999GF199999999999002131999999MA1099865099385REMMET13001/01/25 01:33:02 METAR KWRI 010633Z 25007KT 10SM BKN007 BKN012 08/07 A2949 RMK AO2A CIG 007V012 BKN007 V SCT CIG 006 RWY06 SLP986
0228724096147062025010106457+40017-074600FM-15+0041KWRI V0202405N00365001835MN0160935N5+00805+00705099895ADDGA1075+001835999GA2085+003355999GD13991+0018359GD24991+0033559GE19AGL   +99999+99999GF199999999999001831999999MA1099905099415REMMET09101/01/25 01:45:02 METAR KWRI 010645Z 24007KT 10SM BKN006 OVC011 08/07 A2950 RMK AO2A SLP989
0238724096147062025010106557+40017-074600FM-15+0041KWRI V0202505N00515001835MN0160935N5+00825+00715099895ADDGA1085+001835999GD14991+0018351GE19AGL   +99999+99999GF199999999999001831999999MA1099905099415REMMET13201/01/25 01:55:02 METAR KWRI 010655Z 25010KT 10SM OVC006 08/07 A2950 RMK AO2A OVC V BKN CIG 005 RWY06 CIG 005 RWY18 SLP989 T00820071
0190724096147062025010106587+40017-074600FM-15+0041KWRI V0202505N00515001525MN0160935N5+00805+00705099895ADDGA1085+001525999GD14991+0015259GE19AGL   +99999+99999GF199999999999001521999999MA1099905099415REMMET08401/01/25 01:58:02 METAR KWRI 010658Z 25010KT 10SM OVC005 08/07 A2950 RMK AO2A SLP989
0200724096147062025010107557+40017-074600FM-15+0041KWRI V0202405N00365001525MN0160935N5+00825+00715099935ADDGA1085+001525999GD14991+0015259GE19AGL   +99999+99999GF199999999999001521999999MA1099935099455REMMET09401/01/25 02:55:02 METAR KWRI 010755Z 24007KT 10SM OVC005 08/07 A2951 RMK AO2A SLP993 T00820071
0190724096147062025010108247+40017-074600FM-15+0041KWRI V0202605N00575001225MN0160935N5+00805+00705099935ADDGA1085+001225999GD14991+0012259GE19AGL   +99999+99999GF199999999999001221999999MA1099935099455REMMET08401/01/25 03:24:02 METAR KWRI 010824Z 26011KT 10SM OVC004 08/07 A2951 RMK AO2A SLP993
0220724096147062025010108557+40017-074600FM-15+0041KWRI V0202505N00415001225MN0160935N5+00795+00685099935ADDGA1085+001225999GD14991+0012259GE19AGL   +99999+99999GF199999999999001221999999MA1099935099455MD1190129+9999REMMET10001/01/25 03:55:02 METAR KWRI 010855Z 25008KT 10SM OVC004 08/07 A2951 RMK AO2A SLP993 T00790068 51012
0214724096147062025010109557+40017-074600FM-15+0041KWRI V0202705N00415001225MN0160935N5+00795+00685099965ADDGA1085+001225999GD14991+0012251GE19AGL   +99999+99999GF199999999999001221999999MA1099975099485REMMET10801/01/25 04:55:02 METAR KWRI 010955Z 27008KT 10SM OVC004 08/07 A2952 RMK AO2A CIG 003 RWY06 SLP996 T00790068
0218724096147062025010109587+40017-074600FM-15+0041KWRI V0202705N00365001525MN0160935N5+00805+00705099965ADDGA1085+001525999GD14991+0015251GE19AGL   +99999+99999GF199999999999001521999999MA1099975099485REMMET11201/01/25 04:58:02 METAR KWRI 010958Z 27007KT 10SM OVC005 08/07 A2952 RMK AO2A CIG 003 RWY06 CIG 004 RWY18 SLP996
0216724096147062025010110507+40017-074600FM-15+0041KWRI V0202505N00365001835MN0144845N5+00805+00705100005ADDGA1085+001835999GD14991+0018351GE19AGL   +99999+99999GF199999999999001831999999MA1100005099515REMMET11001/01/25 05:50:02 METAR KWRI 011050Z 25007KT 9SM OVC006 08/07 A2953 RMK AO2 CIG 005 RWY06 CIG 005 RWY18 SLP000
0227724096147062025010110557+40017-074600FM-15+0041KWRI V0202505N00365001835MN0160935N5+00815+00695100005ADDGA1085+001835999GD14991+0018351GE19AGL   +99999+99999GF199999999999001831999999MA1100005099515REMMET12101/01/25 05:55:02 METAR KWRI 011055Z 25007KT 10SM OVC006 08/07 A2953 RMK AO2 CIG 005 RWY06 CIG 005 RWY18 SLP000 T00810069
0330724096147062025010111557+40017-074600FM-15+0041KWRI V0202505N00415001835MN0128755N5+00765+00645100005ADDAA124003691GA1075+001835999GA2085+022865999GD13991+0018359GD24991+0228659GE19AGL   +99999+99999GF199999999999001831999999KA1060M+00841KA2060N+00761MA1100005099515MD1290099+9999REMMET12301/01/25 06:55:02 METAR KWRI 011155Z 25008KT 8SM BKN006 OVC075 08/06 A2953 RMK AO2 SLP000 70014 T00760064 10084 20076 52009EQDQ01  00358PRCP24
0226724096147062025010111587+40017-074600FM-15+0041KWRI V0202505N00415022865MN0128755N5+00805+00605100005ADDGA1045+001835999GA2075+022865999GD12991+0018359GD23991+0228659GE19AGL   +99999+99999GF199999999999001831999999MA1100005099515REMMET08901/01/25 06:58:02 METAR KWRI 011158Z 25008KT 8SM SCT006 BKN075 08/06 A2953 RMK AO2 SLP000
0227724096147062025010112317+40017-074600FM-15+0041KWRI V0202405N00365011895MN0080475N5+00705+00605100005ADDAU100001015AW1105GA1075+011895999GD13991+0118959GE19AGL   +99999+99999GF199999999999011891999999MA1100005099515REMMET10401/01/25 07:31:02 METAR KWRI 011231Z 24007KT 5SM BR BKN039 07/06 A2953 RMK AO2 VIS 2 1/2 RWY06/24 SLP000
0198724096147062025010112557+40017-074600FM-15+0041KWRI V0202505N00465011585MN0144845N5+00775+00665100035ADDGA1085+011585999GD14991+0115859GE19AGL   +99999+99999GF199999999999011581999999MA1100035099555REMMET09201/01/25 07:55:02 METAR KWRI 011255Z 25009KT 9SM OVC038 08/07 A2954 RMK AO2 SLP003 T00770066
0227724096147062025010113057+40017-074600FM-15+0041KWRI V0202605N00515018295MN0160935N5+00805+00605100075ADDGA1045+011585999GA2085+018295999GD12991+0115859GD24991+0182959GE19AGL   +99999+99999GF199999999999011581999999MA1100075099585REMMET09001/01/25 08:05:02 METAR KWRI 011305Z 26010KT 10SM SCT038 OVC060 08/06 A2955 RMK AO2 SLP007
0199724096147062025010113557+40017-074600FM-15+0041KWRI V0202605N00625016765MN0160935N5+00915+00585100075ADDGA1085+016765999GD14991+0167659GE19AGL   +99999+99999GF199999999999016761999999MA1100075099585REMMET09301/01/25 08:55:02 METAR KWRI 011355Z 26012KT 10SM OVC055 09/06 A2955 RMK AO2 SLP007 T00910058
0227724096147062025010114187+40017-074600FM-15+0041KWRI V0202605N00775013725MN0160935N5+00905+00505100135ADDGA1075+013725999GA2075+016765999GD13991+0137259GD23991+0167659GE19AGL   +99999+99999GF199999999999013721999999MA1100145099655REMMET09001/01/25 09:18:02 METAR KWRI 011418Z 26015KT 10SM BKN045 BKN055 09/05 A2957 RMK AO2 SLP013
0268724096147062025010114557+40017-074600FM-15+0041KWRI V0202705N00625014945MN0160935N5+00935+00415100175ADDGA1075+014945999GA2075+027435999GD13991+0149459GD23991+0274359GE19AGL   +99999+99999GF199999999999014941999999MA1100175099685MD1390169+9999OC101085REMMET10901/01/25 09:55:02 METAR KWRI 011455Z 27012G21KT 10SM BKN049 BKN090 09/04 A2958 RMK AO2 SLP017 T00930041 53016
0265724096147062025010115087+40017-074600FM-15+0041KWRI V0202805N00625015245MN0160935N5+01005+00405100175ADDGA1025+007925999GA2075+015245999GA3085+027435999GD11991+0079259GD23991+0152459GD34991+0274359GE19AGL   +99999+99999GF199999999999007921999999MA1100175099685REMMET09701/01/25 10:08:02 METAR KWRI 011508Z 28012KT 10SM FEW026 BKN050 OVC090 10/04 A2958 RMK AO2 SLP017
0249724096147062025010115307+40017-074600FM-15+0041KWRI V0202805N00675008235MN0160935N5+00905+00205100205ADDGA1075+008235999GA2085+015245999GD13991+0082351GD24991+0152459GE19AGL   +99999+99999GF199999999999008231999999MA1100205099725REMMET11201/01/25 10:30:02 METAR KWRI 011530Z 28013KT 10SM BKN027 OVC050 09/02 A2959 RMK AO2 CIG 027V050 BKN V SCT SLP020
0238724096147062025010115407+40017-074600FM-15+0041KWRI V0202805N00885014945MN0160935N5+01005+00205100205ADDGA1045+008535999GA2075+014945999GD12991+0085359GD23991+0149459GE19AGL   +99999+99999GF199999999999008531999999MA1100205099725OC101135REMMET09301/01/25 10:40:02 METAR KWRI 011540Z 28017G22KT 10SM SCT028 BKN049 10/02 A2959 RMK AO2 SLP020
0210724096147062025010115557+40017-074600FM-15+0041KWRI V0202905N00675009145MN0160935N5+00975+00215100205ADDGA1075+009145999GD13991+0091459GE19AGL   +99999+99999GF199999999999009141999999MA1100205099725OC101085REMMET09601/01/25 10:55:02 METAR KWRI 011555Z 29013G21KT 10SM BKN030 10/02 A2959 RMK AO2 SLP020 T00970021
0219724096147062025010115577+40017-074600FM-15+0041KWRI V0202905N007252200059N0160935N5+01005+00205100205ADDGA1045+009455999GD12991+0094559GE19AGL   +99999+99999GF104995999999009451999999MA1100205099725OC101085REMMET08601/01/25 10:57:02 METAR KWRI 011557Z 29014G21KT 10SM SCT031 10/02 A2959 RMK AO2 SLP020EQDD01      0ADE726
0200724096147062025010116057+40017-074600FM-15+0041KWRI V0202705N00775009755MN0160935N5+01005+00205100205ADDGA1075+009755999GD13991+0097559GE19AGL   +99999+99999GF199999999999009751999999MA1100205099725OC101085REMMET08601/01/25 11:05:02 METAR KWRI 011605Z 27015G21KT 10SM BKN032 10/02 A2959 RMK AO2 SLP020
0226724096147062025010116557+40017-074600FM-15+0041KWRI V0202805N00825010365MN0160935N5+00885+00075100205ADDGA1085+010365999GD14991+0103659GE19AGL   +99999+99999GF199999999999010361999999MA1100205099725OC101345REMMET11201/01/25 11:55:02 METAR KWRI 011655Z 28016G26KT 10SM OVC034 09/01 A2959 RMK AO2 PK WND 26028/41 SLP020 T00880007
0284724096147062025010117557+40017-074600FM-15+0041KWRI V0202905N00825010675MN0160935N5+00845+00015100205ADDGA1085+010675999GD14991+0106759GE19AGL   +99999+99999GF199999999999010671999999KA1060M+01011KA2060N+00681MA1100205099725MD1190049+9999OC101085REMMET13001/01/25 12:55:02 METAR KWRI 011755Z 29016G21KT 10SM OVC035 08/00 A2959 RMK AO2 PK WND 29032/20 SLP020 T00840001 10101 20068 51004
0226724096147062025010118557+40017-074600FM-15+0041KWRI V0202905N00825012195MN0160935N5+00935+00025100275ADDGA1085+012195999GD14991+0121959GE19AGL   +99999+99999GF199999999999012191999999MA1100275099785OC101345REMMET11201/01/25 13:55:02 METAR KWRI 011855Z 29016G26KT 10SM OVC040 09/00 A2961 RMK AO2 PK WND 30032/21 SLP027 T00930002
0239724096147062025010119167+40017-074600FM-15+0041KWRI V0202905N01035021345MN0160935N5+01005+00005100345ADDGA1045+012805999GA2085+021345999GD12991+0128059GD24991+0213459GE19AGL   +99999+99999GF199999999999012801999999MA1100345099855OC101545REMMET09401/01/25 14:16:02 METAR KWRI 011916Z 29020G30KT 10SM SCT042 OVC070 10/M00 A2963 RMK AO2 SLP034
0239724096147062025010119177+40017-074600FM-15+0041KWRI V0202905N00935013115MN0160935N5+01005-00105100345ADDGA1075+013115999GA2085+021345999GD13991+0131159GD24991+0213459GE19AGL   +99999+99999GF199999999999013111999999MA1100345099855OC101545REMMET09401/01/25 14:17:02 METAR KWRI 011917Z 29018G30KT 10SM BKN043 OVC070 10/M01 A2963 RMK AO2 SLP034
0303724096147062025010119557+40017-074600FM-15+0041KWRI V0202905N00775014335MN0160935N5+00945-00085100415ADDGA1075+014335999GA2075+021345999GA3075+030485999GD13991+0143359GD23991+0213459GD33991+0304859GE19AGL   +99999+99999GF199999999999014331999999MA1100415099925OC101495REMMET12701/01/25 14:55:02 METAR KWRI 011955Z 29015G29KT 10SM BKN047 BKN070 BKN100 09/M01 A2965 RMK AO2 PK WND 28034/26 SLP041 T00941008
0201724096147062025010120537+40017-074600FM-15+0041KWRI V0202905N00985015245MN0160935N5+00905-00205100545ADDGA1085+015245999GD14991+0152459GE19AGL   +99999+99999GF199999999999015241999999MA1100545100055OC101655REMMET08701/01/25 15:53:02 METAR KWRI 012053Z 29019G32KT 10SM OVC050 09/M02 A2969 RMK AO2 SLP054
0247724096147062025010120557+40017-074600FM-15+0041KWRI V0202905N00935015245MN0160935N5+00865-00215100545ADDGA1085+015245999GD14991+0152459GE19AGL   +99999+99999GF199999999999015241999999MA1100545100055MD1290339+9999OC101655REMMET11901/01/25 15:55:02 METAR KWRI 012055Z 29018G32KT 10SM OVC050 09/M02 A2969 RMK AO2 PK WND 30034/33 SLP054 T00861021 52033
0201724096147062025010121127+40017-074600FM-15+0041KWRI V0202805N00985014945MN0160935N5+00805-00305100585ADDGA1085+014945999GD14991+0149459GE19AGL   +99999+99999GF199999999999014941999999MA1100585100095OC101295REMMET08701/01/25 16:12:02 METAR KWRI 012112Z 28019G25KT 10SM OVC049 08/M03 A2970 RMK AO2 SLP058
0201724096147062025010121277+40017-074600FM-15+0041KWRI V0202805N01085015245MN0160935N5+00805-00305100585ADDGA1085+015245999GD14991+0152459GE19AGL   +99999+99999GF199999999999015241999999MA1100585100095OC101495REMMET08701/01/25 16:27:02 METAR KWRI 012127Z 28021G29KT 10SM OVC050 08/M03 A2970 RMK AO2 SLP058
0246724096147062025010121557+40017-074600FM-15+0041KWRI V0202905N007752200059N0160935N5+00765-00275100615ADDGA1045+015245999GD12991+0152459GE19AGL   +99999+99999GF104995999999015241999999MA1100615100125OC101245REMMET11301/01/25 16:55:02 METAR KWRI 012155Z 29015G24KT 10SM SCT050 08/M03 A2971 RMK AO2 PK WND 29033/04 SLP061 T00761027EQDD01      0ADE726
0246724096147062025010122557+40017-074600FM-15+0041KWRI V0202805N008852200059N0160935N5+00715-00295100685ADDGA1045+016765999GD12991+0167659GE19AGL   +99999+99999GF104995999999016761999999MA1100685100195OC101245REMMET11301/01/25 17:55:02 METAR KWRI 012255Z 28017G24KT 10SM SCT055 07/M03 A2973 RMK AO2 PK WND 29028/49 SLP068 T00711029EQDD01      0ADE726
0260724096147062025010123557+40017-074600FM-15+0041KWRI V0202805N007752200059N0160935N5+00645-00355100785ADDGA1005+999999999GD10991+9999999GF100991999999999999999999KA1060M+01021KA2060N+00641MA1100785100295MD1290239+9999OC101085REMMET12801/01/25 18:55:02 METAR KWRI 012355Z 28015G21KT 10SM CLR 06/M03 A2976 RMK AO2 PK WND 30026/11 SLP078 T00641035 10102 20064 52023
0186724096147062025010200557+40017-074600FM-15+0041KWRI V0202905N008252200059N0160935N5+00595-00355100885ADDGA1005+999999999GD10991+9999999GF100991999999999999999999MA1100885100395OC101185REMMET09401/01/25 19:55:01 METAR KWRI 020055Z 29016G23KT 10SM CLR 06/M03 A2979 RMK AO2 SLP088 T00591035
0202724096147062025010201557+40017-074600FM-15+0041KWRI V0202805N006752200059N0160935N5+00525-00345100955ADDGA1005+999999999GD10991+9999999GF100991999999999999999999MA1100955100465OC100935REMMET11001/01/25 20:55:01 METAR KWRI 020155Z 28013G18KT 10SM CLR 05/M03 A2981 RMK AO2 PK WND 29026/06 SLP095 T00521034
0206724096147062025010202557+40017-074600FM-15+0041KWRI V0202805N007252200059N0160935N5+00485-00375101025ADDGA1005+999999999GD10991+9999999GF100991999999999999999999MA1101025100535MD1290249+9999OC101085REMMET10001/01/25 21:55:01 METAR KWRI 020255Z 28014G21KT 10SM CLR 05/M04 A2983 RMK AO2 SLP102 T00481037 52024
0186724096147062025010203557+40017-074600FM-15+0041KWRI V0202805N007252200059N0160935N5+00455-00385101055ADDGA1005+999999999GD10991+9999999GF100991999999999999999999MA1101055100565OC101085REMMET09401/01/25 22:55:02 METAR KWRI 020355Z 28014G21KT 10SM CLR 05/M04 A2984 RMK AO2 SLP105 T00451038
0222724096147062025010204557+40017-074600FM-15+0041KWRI V0202705N007752200059N0160935N5+00405-00355101085ADDGA1005+999999999GD10991+9999999GF100991999999999999999999KA1240M+01021KA2240N+00381MA1101085100595OC101135REMMET10401/01/25 23:55:02 METAR KWRI 020455Z 27015G22KT 10SM CLR 04/M03 A2985 RMK AO2 SLP108 T00401035 401020038
001572409614706202501020459O+40017-074600SOD  +0041KWRI V020999999999999999999999999999+99999+99999999999ADDAT1AU13BR  5
0244724096147062025010205557+40017-074600FM-15+0041KWRI V0202805N006252200059N0160935N5+00405-00385101085ADDGA1005+999999999GD10991+9999999GF100991999999999999999999KA1060M+00641KA2060N+00381MA1101085100595MD1290089+9999OC101085REMMET11201/02/25 00:55:02 METAR KWRI 020555Z 28012G21KT 10SM CLR 04/M04 A2985 RMK AO2 SLP108 T00401038 10064 20038 52008
0186724096147062025010206557+40017-074600FM-15+0041KWRI V0202805N007252200059N0160935N5+00375-00365101155ADDGA1005+999999999GD10991+9999999GF100991999999999999999999MA1101155100665OC101135REMMET09401/02/25 01:55:02 METAR KWRI 020655Z 28014G22KT 10SM CLR 04/M04 A2987 RMK AO2 SLP115 T00371036
0186724096147062025010207557+40017-074600FM-15+0041KWRI V0202805N007252200059N0160935N5+00375-00505101255ADDGA1005+999999999GD10991+9999999GF100991999999999999999999MA1101255100765OC101245REMMET09401/02/25 02:55:02 METAR KWRI 020755Z 28014G24KT 10SM CLR 04/M05 A2990 RMK AO2 SLP125 T00371050
0266724096147062025010208557+40017-074600FM-15+0041KWRI V0202805N007752200059N0160935N5+00265-00705101295ADDGA1045+018295999GD12991+0182959GE19AGL   +99999+99999GF104995999999018291999999MA1101295100805MD1290209+9999OC101085REMMET11901/02/25 03:55:02 METAR KWRI 020855Z 28015G21KT 10SM SCT060 03/M07 A2991 RMK AO2 PK WND 28028/27 SLP129 T00261070 52020EQDD01      0ADE726
0246724096147062025010209557+40017-074600FM-15+0041KWRI V0202805N008252200059N0160935N5+00295-00705101365ADDGA1045+016765999GD12991+0167659GE19AGL   +99999+99999GF104995999999016761999999MA1101355100865OC101245REMMET11301/02/25 04:55:02 METAR KWRI 020955Z 28016G24KT 10SM SCT055 03/M07 A2993 RMK AO2 PK WND 28026/33 SLP136 T00291070EQDD01      0ADE726
0230724096147062025010210557+40017-074600FM-15+0041KWRI V0202805N007252200059N0160935N5+00225-00695101425ADDGA1045+013415999GD12991+0134159GE19AGL   +99999+99999GF104995999999013411999999MA1101425100935OC100985REMMET09701/02/25 05:55:02 METAR KWRI 021055Z 28014G19KT 10SM SCT044 02/M07 A2995 RMK AO2 SLP142 T00221069EQDD01      0ADE726
0190724096147062025010211077+40017-074600FM-15+0041KWRI V0202805N00625013415MN0160935N5+00205-00605101425ADDGA1075+013415999GD13991+0134159GE19AGL   +99999+99999GF199999999999013411999999MA1101425100935REMMET08401/02/25 06:07:02 METAR KWRI 021107Z 28012KT 10SM BKN044 02/M06 A2995 RMK AO2 SLP142
0209724096147062025010211377+40017-074600FM-15+0041KWRI V0202805N006752200059N0160935N5+00205-00705101435ADDGA1045+013415999GD12991+0134159GE19AGL   +99999+99999GF104995999999013411999999MA1101425100935REMMET08401/02/25 06:37:02 METAR KWRI 021137Z 28013KT 10SM SCT044 02/M07 A2995 RMK AO2 SLP143EQDD01      0ADE726
0244724096147062025010211557+40017-074600FM-15+0041KWRI V0202805N005752200059N0160935N5+00185-00685101435ADDGA1005+999999999GD10991+9999999GF100991999999999999999999KA1060M+00421KA2060N+00181MA1101425100935MD1290159+9999OC100885REMMET11201/02/25 06:55:02 METAR KWRI 021155Z 28011G17KT 10SM CLR 02/M07 A2995 RMK AO2 SLP143 T00181068 10042 20018 52015
0175724096147062025010212557+40017-074600FM-15+0041KWRI V0202605N006252200059N0160935N5+00215-00655101535ADDGA1005+999999999GD10991+9999999GF100991999999999999999999MA1101525101035REMMET09101/02/25 07:55:02 METAR KWRI 021255Z 26012KT 10SM CLR 02/M06 A2998 RMK AO2 SLP153 T00211065
0186724096147062025010213557+40017-074600FM-15+0041KWRI V0202705N008252200059N0160935N5+00335-00675101605ADDGA1005+999999999GD10991+9999999GF100991999999999999999999MA1101595101105OC101085REMMET09401/02/25 08:55:02 METAR KWRI 021355Z 27016G21KT 10SM CLR 03/M07 A3000 RMK AO2 SLP160 T00331067
0222724096147062025010214557+40017-074600FM-15+0041KWRI V0202805N008252200059N0160935N5+00475-00625101665ADDGA1005+999999999GD10991+9999999GF100991999999999999999999MA1101665101175MD1290239+9999OC101185REMMET11601/02/25 09:55:02 METAR KWRI 021455Z 28016G23KT 10SM CLR 05/M06 A3002 RMK AO2 PK WND 27026/33 SLP166 T00471062 52023
0246724096147062025010215557+40017-074600FM-15+0041KWRI V0202905N010852200059N0160935N5+00525-00705101665ADDGA1025+014335999GD11991+0143359GE19AGL   +99999+99999GF102995999999014331999999MA1101665101175OC101445REMMET11301/02/25 10:55:02 METAR KWRI 021555Z 29021G28KT 10SM FEW047 05/M07 A3002 RMK AO2 PK WND 30032/35 SLP166 T00521070EQDD01      0ADE726
0246724096147062025010216557+40017-074600FM-15+0041KWRI V0202805N008252200059N0160935N5+00595-00735101565ADDGA1045+014945999GD12991+0149459GE19AGL   +99999+99999GF104995999999014941999999MA1101565101065OC101245REMMET11301/02/25 11:55:02 METAR KWRI 021655Z 28016G24KT 10SM SCT049 06/M07 A2999 RMK AO2 PK WND 30029/24 SLP156 T00591073EQDD01      0ADE726
0304724096147062025010217557+40017-074600FM-15+0041KWRI V0202805N009352200059N0160935N5+00665-00825101495ADDGA1045+015245999GD12991+0152459GE19AGL   +99999+99999GF104995999999015241999999KA1060M+00661KA2060N+00181MA1101495101005MD1790189+9999OC101245REMMET13101/02/25 12:55:02 METAR KWRI 021755Z 28018G24KT 10SM SCT050 07/M08 A2997 RMK AO2 PK WND 28030/12 SLP149 T00661082 10066 20018 57018EQDD01      0ADE726
0227724096147062025010218557+40017-074600FM-15+0041KWRI V0202805N00985016765MN0160935N5+00475-00845101535ADDGA1075+016765999GD13991+0167659GE19AGL   +99999+99999GF199999999999016761999999MA1101525101035OC101295REMMET11301/02/25 13:55:02 METAR KWRI 021855Z 28019G25KT 10SM BKN055 05/M08 A2998 RMK AO2 PK WND 29029/03 SLP153 T00471084
0243724096147062025010219557+40017-074600FM-15+0041KWRI V0202905N00885016765MN0160935N5+00465-00895101565ADDGA1085+016765999GD14991+0167659GE19AGL   +99999+99999GF199999999999016761999999MA1101565101065OC101245OD149901441290REMMET11501/02/25 14:55:02 METAR KWRI 021955Z 29017G24KT 10SM OVC055 05/M09 A2999 RMK AO2 PK WND 29028/1858 SLP156 T00461089
0266724096147062025010220557+40017-074600FM-15+0041KWRI V0202905N006752200059N0160935N5+00375-00935101605ADDGA1045+016765999GD12991+0167659GE19AGL   +99999+99999GF104995999999016761999999MA1101595101105MD1290089+9999OC101135REMMET11901/02/25 15:55:02 METAR KWRI 022055Z 29013G22KT 10SM SCT055 04/M09 A3000 RMK AO2 PK WND 31031/17 SLP160 T00371093 52008EQDD01      0ADE726
0175724096147062025010221557+40017-074600FM-15+0041KWRI V0202805N006252200059N0160935N5+00305-00935101635ADDGA1005+999999999GD10991+9999999GF100991999999999999999999MA1101635101135REMMET09101/02/25 16:55:02 METAR KWRI 022155Z 28012KT 10SM CLR 03/M09 A3001 RMK AO2 SLP163 T00301093
0186724096147062025010222557+40017-074600FM-15+0041KWRI V0202705N007252200059N0160935N5+00225-00855101675ADDGA1005+999999999GD10991+9999999GF100991999999999999999999MA1101665101175OC101035REMMET09401/02/25 17:55:02 METAR KWRI 022255Z 27014G20KT 10SM CLR 02/M08 A3002 RMK AO2 SLP167 T00221085
0244724096147062025010223557+40017-074600FM-15+0041KWRI V0202805N006752200059N0160935N5+00175-00965101705ADDGA1005+999999999GD10991+9999999GF100991999999999999999999KA1060M+00721KA2060N+00171MA1101695101205MD1290139+9999OC101135REMMET11201/02/25 18:55:02 METAR KWRI 022355Z 28013G22KT 10SM CLR 02/M10 A3003 RMK AO2 SLP170 T00171096 10072 20017 52013
0202724096147062025010300557+40017-074600FM-15+0041KWRI V0202805N006752200059N0160935N5+00135-00935101735ADDGA1005+999999999GD10991+9999999GF100991999999999999999999MA1101735101235OC101185REMMET11001/02/25 19:55:01 METAR KWRI 030055Z 28013G23KT 10SM CLR 01/M09 A3004 RMK AO2 PK WND 28026/03 SLP173 T00131093
0186724096147062025010301557+40017-074600FM-15+0041KWRI V0202705N006752200059N0160935N5+00115-00905101735ADDGA1005+999999999GD10991+9999999GF100991999999999999999999MA1101735101235OC101035REMMET09401/02/25 20:55:01 METAR KWRI 030155Z 27013G20KT 10SM CLR 01/M09 A3004 RMK AO2 SLP173 T00111090
0214724096147062025010302557+40017-074600FM-15+0041KWRI V0202805N005752200059N0160935N5+00095-01005101705ADDGA1005+999999999GD10991+9999999GF100991999999999999999999MA1101695101205MD1890009+9999REMMET09701/02/25 21:55:01 METAR KWRI 030255Z 28011KT 10SM CLR 01/M10 A3003 RMK AO2 SLP170 T00091100 58000EQDQ018     3APCTEN
0227724096147062025010303557+40017-074600FM-15+0041KWRI V0202905N00825016765MN0160935N5+00175-01115101705ADDGA1085+016765999GD14991+0167659GE19AGL   +99999+99999GF199999999999016761999999MA1101695101205OC101245REMMET11301/02/25 22:55:02 METAR KWRI 030355Z 29016G24KT 10SM OVC055 02/M11 A3003 RMK AO2 PK WND 30031/41 SLP170 T00171111
0238724096147062025010304557+40017-074600FM-15+0041KWRI V0202905N006752200059N0160935N5+00105-01145101705ADDGA1005+999999999GD10991+9999999GF100991999999999999999999KA1240M+00721KA2240N+00081MA1101695101205OC101085REMMET12001/02/25 23:55:02 METAR KWRI 030455Z 29013G21KT 10SM CLR 01/M11 A3003 RMK AO2 PK WND 29030/06 SLP170 T00101114 400720008
0258724096147062025010305557+40017-074600FM-15+0041KWRI V0202805N00625015245MN0160935N5+00115-01045101705ADDGA1075+015245999GD13991+0152459GE19AGL   +99999+99999GF199999999999015241999999KA1060M+00171KA2060N+00061MA1101695101205MD1890029+9999REMMET11201/03/25 00:55:02 METAR KWRI 030555Z 28012KT 10SM BKN050 01/M10 A3003 RMK AO2 SLP170 T00111104 10017 20006 58002
0219724096147062025010306557+40017-074600FM-15+0041KWRI V0202805N005752200059N0160935N5+00075-01055101705ADDGA1045+015245999GD12991+0152459GE19AGL   +99999+99999GF104995999999015241999999MA1101695101205REMMET09401/03/25 01:55:02 METAR KWRI 030655Z 28011KT 10SM SCT050 01/M10 A3003 RMK AO2 SLP170 T00071105EQDD01      0ADE726
0175724096147062025010307557+40017-074600FM-15+0041KWRI V0202705N007252200059N0160935N5+00035-00975101705ADDGA1005+999999999GD10991+9999999GF100991999999999999999999MA1101695101205REMMET09101/03/25 02:55:02 METAR KWRI 030755Z 27014KT 10SM CLR 00/M10 A3003 RMK AO2 SLP170 T00031097
0231724096147062025010308557+40017-074600FM-15+0041KWRI V0202705N00625015245MN0160935N5+00045-00995101705ADDGA1075+015245999GD13991+0152459GE19AGL   +99999+99999GF199999999999015241999999MA1101695101205MD1090019+9999OC100935REMMET10301/03/25 03:55:02 METAR KWRI 030855Z 27012G18KT 10SM BKN050 00/M10 A3003 RMK AO2 SLP170 T00041099 50001
0175724096147062025010309557+40017-074600FM-15+0041KWRI V0202805N006252200059N0160935N5+00015-00965101635ADDGA1005+999999999GD10991+9999999GF100991999999999999999999MA1101635101135REMMET09101/03/25 04:55:02 METAR KWRI 030955Z 28012KT 10SM CLR 00/M10 A3001 RMK AO2 SLP163 T00011096
0176724096147062025010310557+40017-074600FM-15+0041KWRI V0202705N005752200059N0160935N5-00035-00955101635ADDGA1005+999999999GD10991+9999999GF100991999999999999999999MA1101635101135REMMET09201/03/25 05:55:02 METAR KWRI 031055Z 27011KT 10SM CLR M00/M09 A3001 RMK AO2 SLP163 T10031095
0234724096147062025010311557+40017-074600FM-15+0041KWRI V0202605N004652200059N0160935N5-00095-00935101635ADDGA1005+999999999GD10991+9999999GF100991999999999999999999KA1060M+00121KA2060N-00091MA1101635101135MD1590079+9999REMMET11001/03/25 06:55:02 METAR KWRI 031155Z 26009KT 10SM CLR M01/M09 A3001 RMK AO2 SLP163 T10091093 10012 21009 55007
0176724096147062025010312557+40017-074600FM-15+0041KWRI V0202405N004152200059N0160935N5-00105-00855101605ADDGA1005+999999999GD10991+9999999GF100991999999999999999999MA1101595101105REMMET09201/03/25 07:55:02 METAR KWRI 031255Z 24008KT 10SM CLR M01/M08 A3000 RMK AO2 SLP160 T10101085
0175724096147062025010313557+40017-074600FM-15+0041KWRI V0202405N005752200059N0160935N5+00035-00825101565ADDGA1005+999999999GD10991+9999999GF100991999999999999999999MA1101565101065REMMET09101/03/25 08:55:02 METAR KWRI 031355Z 24011KT 10SM CLR 00/M08 A2999 RMK AO2 SLP156 T00031082
0195724096147062025010314557+40017-074600FM-15+0041KWRI V0202405N006752200059N0160935N5+00045-00865101575ADDGA1005+999999999GD10991+9999999GF100991999999999999999999MA1101565101065MD1790079+9999REMMET09701/03/25 09:55:02 METAR KWRI 031455Z 24013KT 10SM CLR 00/M09 A2999 RMK AO2 SLP157 T00041086 57007
0175724096147062025010315557+40017-074600FM-15+0041KWRI V0202505N006252200059N0160935N5+00095-00865101435ADDGA1005+999999999GD10991+9999999GF100991999999999999999999MA1101425100935REMMET09101/03/25 10:55:02 METAR KWRI 031555Z 25012KT 10SM CLR 01/M09 A2995 RMK AO2 SLP143 T00091086
0175724096147062025010316557+40017-074600FM-15+0041KWRI V0202605N004652200059N0160935N5+00135-00935101265ADDGA1005+999999999GD10991+9999999GF100991999999999999999999MA1101255100765REMMET09101/03/25 11:55:02 METAR KWRI 031655Z 26009KT 10SM CLR 01/M09 A2990 RMK AO2 SLP126 T00131093
0244724096147062025010317557+40017-074600FM-15+0041KWRI V0202805N005152200059N0160935N5+00245-00925101125ADDGA1005+999999999GD10991+9999999GF100991999999999999999999KA1060M+00261KA2060N-00181MA1101125100635MD1790439+9999OC100935REMMET11201/03/25 12:55:02 METAR KWRI 031755Z 28010G18KT 10SM CLR 02/M09 A2986 RMK AO2 SLP112 T00241092 10026 21018 57043
0175724096147062025010318557+40017-074600FM-15+0041KWRI V0202405N006252200059N0160935N5+00275-00785101025ADDGA1005+999999999GD10991+9999999GF100991999999999999999999MA1101025100535REMMET09101/03/25 13:55:02 METAR KWRI 031855Z 24012KT 10SM CLR 03/M08 A2983 RMK AO2 SLP102 T00271078
0190724096147062025010319107+40017-074600FM-15+0041KWRI V0202605N00465013415MN0160935N5+00205-00705100995ADDGA1075+013415999GD13991+0134159GE19AGL   +99999+99999GF199999999999013411999999MA1100985100495REMMET08401/03/25 14:10:02 METAR KWRI 031910Z 26009KT 10SM BKN044 02/M07 A2982 RMK AO2 SLP099
0238724096147062025010319557+40017-074600FM-15+0041KWRI V0202505N00515014335MN0160935N5+00275-00705100955ADDGA1075+014335999GA2085+018295999GD13991+0143359GD24991+0182959GE19AGL   +99999+99999GF199999999999014331999999MA1100955100465REMMET10101/03/25 14:55:02 METAR KWRI 031955Z 25010KT 10SM BKN047 OVC060 03/M07 A2981 RMK AO2 SLP095 T00271070
0190724096147062025010320047+40017-074600FM-15+0041KWRI V0202505N00415016765MN0160935N5+00305-00705100955ADDGA1085+016765999GD14991+0167659GE19AGL   +99999+99999GF199999999999016761999999MA1100955100465REMMET08401/03/25 15:04:02 METAR KWRI 032004Z 25008KT 10SM OVC055 03/M07 A2981 RMK AO2 SLP095
0228724096147062025010320207+40017-074600FM-15+0041KWRI V0202405N00415013415MN0160935N5+00305-00705100995ADDGA1075+013415999GA2085+018295999GD13991+0134159GD24991+0182959GE19AGL   +99999+99999GF199999999999013411999999MA1100985100495REMMET09101/03/25 15:20:02 METAR KWRI 032020Z 24008KT 10SM BKN044 OVC060 03/M07 A2982 RMK AO2 SLP099
0262724096147062025010320327+40017-074600FM-15+0041KWRI V0202305N00415012505MN0160935N5+00305-00605100955ADDAU110030015AW1715GA1075+012505999GA2085+016765999GD13991+0125059GD24991+0167659GE19AGL   +99999+99999GF199999999999012501999999MA1100955100465MW1715REMMET10201/03/25 15:32:02 METAR KWRI 032032Z 23008KT 10SM -SN BKN041 OVC055 03/M06 A2981 RMK AO2A SNB32 SLP095
0331724096147062025010320557+40017-074600FM-15+0041KWRI V0202505N00415010975MN0160935N5+00255-00665100955ADDAA101000021AW1711GA1025+006715999GA2045+008535999GA3075+010975999GD11991+0067159GD22991+0085359GD33991+0109759GD44991+0140219GE19AGL   +99999+99999GF199999999999006711999999MA1100955100465MW1715REMMET12501/03/25 15:55:02 METAR KWRI 032055Z 25008KT 10SM -SN FEW022 SCT028 BKN036 03/M07 A2981 RMK AO2A SNB32 SLP095 P0000 T00251066
0321724096147062025010321557+40017-074600FM-15+0041KWRI V0202705N00415012195MN0160935N5+00175-00505100995ADDAA101000021AU110030015AW1715GA1025+007325999GA2045+009755999GA3085+012195999GD11991+0073259GD22991+0097559GD34991+0121959GE19AGL   +99999+99999GF199999999999007321999999MA1100985100495MW1715REMMET11901/03/25 16:55:02 METAR KWRI 032155Z 27008KT 10SM -SN FEW024 SCT032 OVC040 02/M05 A2982 RMK AO2A SLP099 P0000 T00171050
0303724096147062025010322057+40017-074600FM-15+0041KWRI V0202805N00515008235MN0080475N5+00205-00505100995ADDAU110030015AW1715GA1025+006405999GA2075+008235999GA3085+011585999GD11991+0064059GD23991+0082359GD34991+0115859GE19AGL   +99999+99999GF199999999999006401999999MA1100985100495MW1715REMMET11201/03/25 17:05:02 METAR KWRI 032205Z 28010KT 5SM -SN FEW021 BKN027 OVC038 02/M05 A2982 RMK AO2A TWR VIS 2 SLP099
0359724096147062025010322157+40017-074600FM-15+0041KWRI V0202805N00415008535MN0016097N5+00105-00405101025ADDAU120030017AW1727GA1025+006405999GA2075+008535999GA3085+010975999GD11991+0064059GD23991+0085359GD34991+0109759GE19AGL   +99999+99999GF199999999999006401999999MA1101025100535MW1737REMMET10101/03/25 17:15:02 METAR KWRI 032215Z 28008KT 1SM SN FEW021 BKN028 OVC036 01/M04 A2983 RMK AO2A SLP102EQDR01   1SM7VIS012R02    SN7AWW012R03SEERMK7MVW012R04    SN7MWW012
0269724096147062025010322327+40017-074600FM-15+0041KWRI V0202805N00365007325MN0040235N5+00005-00205101025ADDAU110030015AW1715GA1045+003355999GA2085+007325999GD12991+0033559GD24991+0073259GE19AGL   +99999+99999GF199999999999003351999999MA1101025100535MW1715REMMET10901/03/25 17:32:02 METAR KWRI 032232Z 28007KT 2 1/2SM -SN SCT011 OVC024 00/M02 A2983 RMK AO2A TWR VIS 2 SLP102
0338724096147062025010322457+40017-074600FM-15+0041KWRI V0202805N00365005185MN0032195N5+00005-00205101025ADDAU110030015AW1715GA1025+002135999GA2045+003355999GA3085+005185999GD11991+0021351GD22991+0033559GD34991+0051859GE19AGL   +99999+99999GF199999999999002131999999MA1101025100535MW1715REMMET14701/03/25 17:45:02 METAR KWRI 032245Z 28007KT 2SM -SN FEW007 SCT011 OVC017 00/M02 A2983 RMK AO2A VIS 1 3/4 RWY06/24 CIG 017V021 CIG 016 RWY18 SLP102
0302724096147062025010322557+40017-074600FM-15+0041KWRI V0202805N00265004275MN0032195N5+00025-00145101025ADDAA101000021AU110030015AU200001015AW1105AW2715GA1025+002135999GA2085+004275999GD11991+0021359GD24991+0042759GE19AGL   +99999+99999GF199999999999002131999999MA1101025100535MW1715REMMET11401/03/25 17:55:02 METAR KWRI 032255Z 28005KT 2SM -SN BR FEW007 OVC014 00/M01 A2983 RMK AO2A SLP102 P0000 T00021014
0275724096147062025010323247+40017-074600FM-15+0041KWRI V0203005N00365001525MN0032195N5+00005-00105100995ADDAU110030015AU200001015AW1105AW2715GA1075+001525999GA2085+003665999GD13991+0015259GD24991+0036659GE19AGL   +99999+99999GF199999999999001521999999MA1100985100495MW1715REMMET09801/03/25 18:24:02 METAR KWRI 032324Z 30007KT 2SM -SN BR BKN005 OVC012 00/M01 A2982 RMK AO2A SLP099
0377724096147062025010323557+40017-074600FM-15+0041KWRI V0203005N00315012805MN0064375N5-00015-00175100965ADDAA101000895AA206000891AU110030015AW1715GA1045+001835999GA2075+012805999GD12991+0018359GD23991+0128059GE19AGL   +99999+99999GF199999999999001831999999KA1060M+00321KA2060N-00011MA1100955100465MD1090009+9999MW1715REMMET13601/03/25 18:55:02 METAR KWRI 032355Z 30006KT 4SM -SN SCT006 BKN042 M00/M02 A2981 RMK AO2A SLP096 P0003 60003 T10011017 10032 21001 50000EQDQ01  00078PRCP06
0275724096147062025010323577+40017-074600FM-15+0041KWRI V0202905N002652200059N0080475N5+00005-00205100965ADDAU110030015AW1715GA1045+001835999GA2045+012805999GD12991+0018359GD22991+0128059GE19AGL   +99999+99999GF104995999999001831999999MA1100955100465MW1715REMMET09601/03/25 18:57:02 METAR KWRI 032357Z 29005KT 5SM -SN SCT006 SCT042 M00/M02 A2981 RMK AO2A SLP096EQDD01      0ADE726
0255724096147062025010400067+40017-074600FM-15+0041KWRI V0203005N002652200059N0160935N5+00005-00205100965ADDGA1025+001835999GA2045+012805999GD11991+0018359GD22991+0128059GE19AGL   +99999+99999GF104995999999001831999999MA1100955100465REMMET09901/03/25 19:06:01 METAR KWRI 040006Z 30005KT 10SM FEW006 SCT042 M00/M02 A2981 RMK AO2A SNE06 SLP096EQDD01      0ADE726
0223724096147062025010400557+40017-074600FM-15+0041KWRI V0202805N002652200059N0160935N5-00135-00275100965ADDAA101000021GA1005+999999999GD10991+9999999GF100991999999999999999999MA1100955100465REMMET12801/03/25 19:55:01 METAR KWRI 040055Z 28005KT 10SM CLR M01/M03 A2981 RMK AO2 SNE2355RAB2355E2355UPB2355E00 SLP096 P0000 T10131027
0177724096147062025010401557+40017-074600FM-15+0041KWRI V0202805N003152200059N0160935N5-00175-00305100965ADDGA1005+999999999GD10991+9999999GF100991999999999999999999MA1100955100465REMMET09301/03/25 20:55:01 METAR KWRI 040155Z 28006KT 10SM CLR M02/M03 A2981 RMK AO2A SLP096 T10171030
0232724096147062025010402557+40017-074600FM-15+0041KWRI V0202905N003152200059N0160935N5-00165-00325100965ADDAA103000021GA1005+999999999GD10991+9999999GF100991999999999999999999MA1100955100465MD1790039+9999REMMET10401/03/25 21:55:01 METAR KWRI 040255Z 29006KT 10SM CLR M02/M03 A2981 RMK AO2 SLP096 60000 T10161032 57003EQDQ01  00008PRCP03
0176724096147062025010403557+40017-074600FM-15+0041KWRI V0202705N003652200059N0160935N5-00175-00375100925ADDGA1005+999999999GD10991+9999999GF100991999999999999999999MA1100915100425REMMET09201/03/25 22:55:02 METAR KWRI 040355Z 27007KT 10SM CLR M02/M04 A2980 RMK AO2 SLP092 T10171037
0213724096147062025010404557+40017-074600FM-15+0041KWRI V0202805N004152200059N0160935N5-00175-00415100925ADDGA1005+999999999GD10991+9999999GF100991999999999999999999KA1240M+00321KA2240N-00201MA1100915100425REMMET10301/03/25 23:55:02 METAR KWRI 040455Z 28008KT 10SM CLR M02/M04 A2980 RMK AO2A SLP092 T10171041 400321020
002772409614706202501040459O+40017-074600SOD  +0041KWRI V020999999999999999999999999999+99999+99999999999ADDAT1AU18SN  5AT2AU13BR  5
0312724096147062025010405557+40017-074600FM-15+0041KWRI V0202805N004652200059N0160935N5-00205-00605100925ADDAA106000021GA1025+013415999GD11991+0134159GE19AGL   +99999+99999GF102995999999013411999999KA1060M-00021KA2060N-00201MA1100915100425MD1590019+9999REMMET12001/04/25 00:55:02 METAR KWRI 040555Z 28009KT 10SM FEW044 M02/M06 A2980 RMK AO2A SLP092 60000 T10201060 11002 21020 55001EQDQ01  00008PRCP06D01      0ADE726
0176724096147062025010406557+40017-074600FM-15+0041KWRI V0202805N004152200059N0160935N5-00205-00695100965ADDGA1005+999999999GD10991+9999999GF100991999999999999999999MA1100955100465REMMET09201/04/25 01:55:02 METAR KWRI 040655Z 28008KT 10SM CLR M02/M07 A2981 RMK AO2 SLP096 T10201069
0202724096147062025010407557+40017-074600FM-15+0041KWRI V0202705N00465018295MN0160935N5-00155-00745100995ADDGA1085+018295999GD14991+0182959GE19AGL   +99999+99999GF199999999999018291999999MA1100985100495REMMET09601/04/25 02:55:02 METAR KWRI 040755Z 27009KT 10SM OVC060 M01/M07 A2982 RMK AO2A SLP099 T10151074
0222724096147062025010408557+40017-074600FM-15+0041KWRI V0202805N00465016765MN0160935N5-00175-00855101065ADDGA1075+016765999GD13991+0167659GE19AGL   +99999+99999GF199999999999016761999999MA1101055100565MD1290129+9999REMMET10201/04/25 03:55:02 METAR KWRI 040855Z 28009KT 10SM BKN055 M02/M08 A2984 RMK AO2A SLP106 T10171085 52012
0241724096147062025010409297+40017-074600FM-15+0041KWRI V0202805N00515014335MN0160935N5-00105-00905101095ADDGA1075+014335999GA2085+018295999GD13991+0143359GD24991+0182959GE19AGL   +99999+99999GF199999999999014331999999MA1101085100595OC100885REMMET09601/04/25 04:29:02 METAR KWRI 040929Z 28010G17KT 10SM BKN047 OVC060 M01/M09 A2985 RMK AO2A SLP109
0230724096147062025010409437+40017-074600FM-15+0041KWRI V0202905N00575018295MN0160935N5-00205-00905101095ADDGA1045+014635999GA2075+018295999GD12991+0146359GD23991+0182959GE19AGL   +99999+99999GF199999999999014631999999MA1101085100595REMMET09301/04/25 04:43:02 METAR KWRI 040943Z 29011KT 10SM SCT048 BKN060 M02/M09 A2985 RMK AO2A SLP109
0191724096147062025010409554+40016-074592FM-15+004399999V0202901N004110167619N016093199-00171-00871101121ADDGD11991+0125019GD23991+0167619GE19AGL   +99999+99999GF199999999999012501999999MA1101121999999REMMET086METAR KWRI 040955Z 29008KT 10SM FEW041 BKN055 M02/M09 A2986 RMK AO2A SLP112 T10171087=
0277724096147062025010409567+40017-074600FM-15+0041KWRI V0202805N00465014635MN0160935N5-00175-00875101125ADDGA1025+011285999GA2075+014635999GA3075+016765999GD11991+0112859GD23991+0146359GD33991+0167659GE19AGL   +99999+99999GF199999999999011281999999MA1101125100635REMMET10901/04/25 04:56:02 METAR KWRI 040956Z 28009KT 10SM FEW037 BKN048 BKN055 M02/M09 A2986 RMK AO2 SLP112 T10171087
0267724096147062025010409577+40017-074600FM-15+0041KWRI V0202805N00415016765MN0160935N5-00205-00905101125ADDGA1025+011285999GA2045+014635999GA3075+016765999GD11991+0112859GD22991+0146359GD33991+0167659GE19AGL   +99999+99999GF199999999999011281999999MA1101125100635REMMET09901/04/25 04:57:02 METAR KWRI 040957Z 28008KT 10SM FEW037 SCT048 BKN055 M02/M09 A2986 RMK AO2 SLP112
0176724096147062025010410557+40017-074600FM-15+0041KWRI V0202805N004152200059N0160935N5-00205-00905101165ADDGA1005+999999999GD10991+9999999GF100991999999999999999999MA1101155100665REMMET09201/04/25 05:55:02 METAR KWRI 041055Z 28008KT 10SM CLR M02/M09 A2987 RMK AO2 SLP116 T10201090
0234724096147062025010411557+40017-074600FM-15+0041KWRI V0202805N004152200059N0160935N5-00225-00945101235ADDGA1005+999999999GD10991+9999999GF100991999999999999999999KA1060M-00131KA2060N-00231MA1101225100735MD1290189+9999REMMET11001/04/25 06:55:02 METAR KWRI 041155Z 28008KT 10SM CLR M02/M09 A2989 RMK AO2 SLP123 T10221094 11013 21023 52018
0176724096147062025010412557+40017-074600FM-15+0041KWRI V0202805N005152200059N0160935N5-00195-00935101265ADDGA1005+999999999GD10991+9999999GF100991999999999999999999MA1101255100765REMMET09201/04/25 07:55:02 METAR KWRI 041255Z 28010KT 10SM CLR M02/M09 A2990 RMK AO2 SLP126 T10191093
0187724096147062025010413557+40017-074600FM-15+0041KWRI V0202905N006752200059N0160935N5-00075-00985101335ADDGA1005+999999999GD10991+9999999GF100991999999999999999999MA1101325100835OC100985REMMET09501/04/25 08:55:02 METAR KWRI 041355Z 29013G19KT 10SM CLR M01/M10 A2992 RMK AO2 SLP133 T10071098
0247724096147062025010414557+40017-074600FM-15+0041KWRI V0202905N00935015245MN0160935N5+00025-01095101365ADDGA1075+015245999GD13991+0152459GE19AGL   +99999+99999GF199999999999015241999999MA1101355100865MD1290159+9999OC101295REMMET11901/04/25 09:55:02 METAR KWRI 041455Z 29018G25KT 10SM BKN050 00/M11 A2993 RMK AO2 PK WND 30027/23 SLP136 T00021109 52015
0228724096147062025010415557+40017-074600FM-15+0041KWRI V0203005N00985015245MN0160935N5-00015-01215101405ADDGA1085+015245999GD14991+0152459GE19AGL   +99999+99999GF199999999999015241999999MA1101395100905OC101495REMMET11401/04/25 10:55:02 METAR KWRI 041555Z 30019G29KT 10SM OVC050 M00/M12 A2994 RMK AO2 PK WND 31034/46 SLP140 T10011121
0243724096147062025010416557+40017-074600FM-15+0041KWRI V0203005N01035016765MN0160935N5+00025-01255101335ADDGA1085+016765999GD14991+0167659GE19AGL   +99999+99999GF199999999999016761999999MA1101325100835OC101295OD149901591300REMMET11501/04/25 11:55:02 METAR KWRI 041655Z 30020G25KT 10SM OVC055 00/M12 A2992 RMK AO2 PK WND 30031/1557 SLP133 T00021125
0285724096147062025010417557+40017-074600FM-15+0041KWRI V0202905N00825016765MN0160935N5+00065-01245101265ADDGA1085+016765999GD14991+0167659GE19AGL   +99999+99999GF199999999999016761999999KA1060M+00101KA2060N-00231MA1101255100765MD1890129+9999OC101345REMMET13101/04/25 12:55:02 METAR KWRI 041755Z 29016G26KT 10SM OVC055 01/M12 A2990 RMK AO2 PK WND 28031/13 SLP126 T00061124 10010 21023 58012
0246724096147062025010418557+40017-074600FM-15+0041KWRI V0202905N008252200059N0160935N5+00105-01285101265ADDGA1045+016765999GD12991+0167659GE19AGL   +99999+99999GF104995999999016761999999MA1101255100765OC101345REMMET11301/04/25 13:55:02 METAR KWRI 041855Z 29016G26KT 10SM SCT055 01/M13 A2990 RMK AO2 PK WND 29030/14 SLP126 T00101128EQDD01      0ADE726
0246724096147062025010419557+40017-074600FM-15+0041KWRI V0202905N008252200059N0160935N5+00055-01295101335ADDGA1045+016765999GD12991+0167659GE19AGL   +99999+99999GF104995999999016761999999MA1101325100835OC101135REMMET11301/04/25 14:55:02 METAR KWRI 041955Z 29016G22KT 10SM SCT055 01/M13 A2992 RMK AO2 PK WND 30028/16 SLP133 T00051129EQDD01      0ADE726
0264724096147062025010420557+40017-074600FM-15+0041KWRI V0202905N00825016765MN0160935N5-00065-01265101405ADDGA1085+016765999GD14991+0167659GE19AGL   +99999+99999GF199999999999016761999999MA1101395100905MD1390149+9999OC101185OD149901441290REMMET12201/04/25 15:55:02 METAR KWRI 042055Z 29016G23KT 10SM OVC055 M01/M13 A2994 RMK AO2 PK WND 29028/1959 SLP140 T10061126 53014
0217724096147062025010421557+40017-074600FM-15+0041KWRI V0202905N00625019815MN0160935N5-00105-01175101505ADDGA1075+019815999GD13991+0198159GE19AGL   +99999+99999GF199999999999019811999999MA1101495101005REMMET11101/04/25 16:55:02 METAR KWRI 042155Z 29012KT 10SM BKN065 M01/M12 A2997 RMK AO2 PK WND 30026/11 SLP150 T10101117
0266724096147062025010422557+40017-074600FM-15+0041KWRI V0203005N00725018295MN0160935N5-00135-01265101535ADDGA1025+015245999GA2075+018295999GD11991+0152459GD23991+0182959GE19AGL   +99999+99999GF199999999999015241999999MA1101525101035OC101035REMMET12101/04/25 17:55:02 METAR KWRI 042255Z 30014G20KT 10SM FEW050 BKN060 M01/M13 A2998 RMK AO2 PK WND 33026/38 SLP153 T10131126
0270724096147062025010423557+40017-074600FM-15+0041KWRI V0202805N00575018295MN0160935N5-00175-01295101605ADDGA1075+018295999GD13991+0182959GE19AGL   +99999+99999GF199999999999018291999999KA1060M+00121KA2060N-00171MA1101595101105MD1290179+9999OC101085REMMET11601/04/25 18:55:02 METAR KWRI 042355Z 28011G21KT 10SM BKN060 M02/M13 A3000 RMK AO2 SLP160 T10171129 10012 21017 52017
0201724096147062025010500557+40017-074600FM-15+0041KWRI V0202805N00625018295MN0160935N5-00165-01325101645ADDGA1085+018295999GD14991+0182959GE19AGL   +99999+99999GF199999999999018291999999MA1101635101135REMMET09501/04/25 19:55:01 METAR KWRI 050055Z 28012KT 10SM OVC060 M02/M13 A3001 RMK AO2 SLP164 T10161132
0212724096147062025010501557+40017-074600FM-15+0041KWRI V0202805N00515018295MN0160935N5-00225-01255101635ADDGA1075+018295999GD13991+0182959GE19AGL   +99999+99999GF199999999999018291999999MA1101635101135OC100885REMMET09801/04/25 20:55:01 METAR KWRI 050155Z 28010G17KT 10SM BKN060 M02/M12 A3001 RMK AO2 SLP163 T10221125
0251724096147062025010502557+40017-074600FM-15+0041KWRI V0202905N005152200059N0160935N5-00285-01235101745ADDGA1045+018295999GD12991+0182959GE19AGL   +99999+99999GF104995999999018291999999MA1101735101235MD1290149+9999OC100935REMMET10401/04/25 21:55:01 METAR KWRI 050255Z 29010G18KT 10SM SCT060 M03/M12 A3004 RMK AO2 SLP174 T10281123 52014EQDD01      0ADE726
0201724096147062025010503557+40017-074600FM-15+0041KWRI V0202805N00625016765MN0160935N5-00295-01405101745ADDGA1085+016765999GD14991+0167659GE19AGL   +99999+99999GF199999999999016761999999MA1101735101235REMMET09501/04/25 22:55:02 METAR KWRI 050355Z 28012KT 10SM OVC055 M03/M14 A3004 RMK AO2 SLP174 T10291140
0237724096147062025010504557+40017-074600FM-15+0041KWRI V0202805N00675018295MN0160935N5-00305-01415101705ADDGA1075+018295999GD13991+0182959GE19AGL   +99999+99999GF199999999999018291999999KA1240M+00121KA2240N-00311MA1101695101205REMMET10501/04/25 23:55:02 METAR KWRI 050455Z 28013KT 10SM BKN060 M03/M14 A3003 RMK AO2 SLP170 T10301141 400121031
0259724096147062025010505557+40017-074600FM-15+0041KWRI V0202805N00515015245MN0160935N5-00295-01355101745ADDGA1085+015245999GD14991+0152459GE19AGL   +99999+99999GF199999999999015241999999KA1060M-00161KA2060N-00321MA1101735101235MD1090029+9999REMMET11301/05/25 00:55:02 METAR KWRI 050555Z 28010KT 10SM OVC050 M03/M13 A3004 RMK AO2 SLP174 T10291135 11016 21032 50002
0201724096147062025010506557+40017-074600FM-15+0041KWRI V0202805N00575015245MN0160935N5-00285-01315101745ADDGA1085+015245999GD14991+0152459GE19AGL   +99999+99999GF199999999999015241999999MA1101735101235REMMET09501/05/25 01:55:02 METAR KWRI 050655Z 28011KT 10SM OVC050 M03/M13 A3004 RMK AO2 SLP174 T10281131
0202724096147062025010507167+40017-074600FM-15+0041KWRI V0202805N00775014945MN0160935N5-00305-01305101775ADDGA1085+014945999GD14991+0149459GE19AGL   +99999+99999GF199999999999014941999999MA1101765101275OC101035REMMET08801/05/25 02:16:02 METAR KWRI 050716Z 28015G20KT 10SM OVC049 M03/M13 A3005 RMK AO2 SLP177
0201724096147062025010507557+40017-074600FM-15+0041KWRI V0202805N00575014335MN0160935N5-00275-01275101775ADDGA1085+014335999GD14991+0143359GE19AGL   +99999+99999GF199999999999014331999999MA1101765101275REMMET09501/05/25 02:55:02 METAR KWRI 050755Z 28011KT 10SM OVC047 M03/M13 A3005 RMK AO2 SLP177 T10271127
0232724096147062025010508557+40017-074600FM-15+0041KWRI V0202805N00515013415MN0160935N5-00275-01275101775ADDGA1085+013415999GD14991+0134159GE19AGL   +99999+99999GF199999999999013411999999MA1101765101275MD1090029+9999OC100935REMMET10401/05/25 03:55:02 METAR KWRI 050855Z 28010G18KT 10SM OVC044 M03/M13 A3005 RMK AO2 SLP177 T10271127 50002
0212724096147062025010509557+40017-074600FM-15+0041KWRI V0202805N00625013725MN0160935N5-00315-01285101805ADDGA1085+013725999GD14991+0137259GE19AGL   +99999+99999GF199999999999013721999999MA1101795101305OC100775REMMET09801/05/25 04:55:02 METAR KWRI 050955Z 28012G15KT 10SM OVC045 M03/M13 A3006 RMK AO2 SLP180 T10311128
0210724096147062025010510427+40017-074600FM-15+0041KWRI V0202805N005152200059N0160935N5-00405-01305101815ADDGA1045+013115999GD12991+0131159GE19AGL   +99999+99999GF104995999999013111999999MA1101795101305REMMET08501/05/25 05:42:02 METAR KWRI 051042Z 28010KT 10SM SCT043 M04/M13 A3006 RMK AO2 SLP181EQDD01      0ADE726
0220724096147062025010510557+40017-074600FM-15+0041KWRI V0202705N004652200059N0160935N5-00385-01275101815ADDGA1025+013115999GD11991+0131159GE19AGL   +99999+99999GF102995999999013111999999MA1101795101305REMMET09501/05/25 05:55:02 METAR KWRI 051055Z 27009KT 10SM FEW043 M04/M13 A3006 RMK AO2 SLP181 T10381127EQDD01      0ADE726
0234724096147062025010511557+40017-074600FM-15+0041KWRI V0202705N004152200059N0160935N5-00435-01275101875ADDGA1005+999999999GD10991+9999999GF100991999999999999999999KA1060M-00251KA2060N-00441MA1101865101375MD1290129+9999REMMET11001/05/25 06:55:02 METAR KWRI 051155Z 27008KT 10SM CLR M04/M13 A3008 RMK AO2 SLP187 T10431127 11025 21044 52012
0176724096147062025010512557+40017-074600FM-15+0041KWRI V0202605N005752200059N0160935N5-00445-01285101915ADDGA1005+999999999GD10991+9999999GF100991999999999999999999MA1101905101405REMMET09201/05/25 07:55:02 METAR KWRI 051255Z 26011KT 10SM CLR M04/M13 A3009 RMK AO2 SLP191 T10441128
0187724096147062025010513557+40017-074600FM-15+0041KWRI V0202805N007252200059N0160935N5-00325-01275101915ADDGA1005+999999999GD10991+9999999GF100991999999999999999999MA1101905101405OC101085REMMET09501/05/25 08:55:02 METAR KWRI 051355Z 28014G21KT 10SM CLR M03/M13 A3009 RMK AO2 SLP191 T10321127
0207724096147062025010514557+40017-074600FM-15+0041KWRI V0202705N008252200059N0160935N5-00235-01265101975ADDGA1005+999999999GD10991+9999999GF100991999999999999999999MA1101965101475MD1390099+9999OC101185REMMET10101/05/25 09:55:02 METAR KWRI 051455Z 27016G23KT 10SM CLR M02/M13 A3011 RMK AO2 SLP197 T10231126 53009
0187724096147062025010515557+40017-074600FM-15+0041KWRI V0202805N007752200059N0160935N5-00125-01285101915ADDGA1005+999999999GD10991+9999999GF100991999999999999999999MA1101905101405OC101035REMMET09501/05/25 10:55:02 METAR KWRI 051555Z 28015G20KT 10SM CLR M01/M13 A3009 RMK AO2 SLP191 T10121128
0187724096147062025010516557+40017-074600FM-15+0041KWRI V0202905N007252200059N0160935N5-00035-01235101805ADDGA1005+999999999GD10991+9999999GF100991999999999999999999MA1101795101305OC100985REMMET09501/05/25 11:55:02 METAR KWRI 051655Z 29014G19KT 10SM CLR M00/M12 A3006 RMK AO2 SLP180 T10031123
0245724096147062025010517557+40017-074600FM-15+0041KWRI V0202805N007252200059N0160935N5-00025-01255101745ADDGA1005+999999999GD10991+9999999GF100991999999999999999999KA1060M-00021KA2060N-00471MA1101735101235MD1790229+9999OC100985REMMET11301/05/25 12:55:02 METAR KWRI 051755Z 28014G19KT 10SM CLR M00/M12 A3004 RMK AO2 SLP174 T10021125 11002 21047 57022
0186724096147062025010518557+40017-074600FM-15+0041KWRI V0202805N007252200059N0160935N5+00055-01295101745ADDGA1005+999999999GD10991+9999999GF100991999999999999999999MA1101735101235OC101135REMMET09401/05/25 13:55:02 METAR KWRI 051855Z 28014G22KT 10SM CLR 01/M13 A3004 RMK AO2 SLP174 T00051129
0175724096147062025010519557+40017-074600FM-15+0041KWRI V0202805N007252200059N0160935N5+00045-01305101775ADDGA1005+999999999GD10991+9999999GF100991999999999999999999MA1101765101275REMMET09101/05/25 14:55:02 METAR KWRI 051955Z 28014KT 10SM CLR 00/M13 A3005 RMK AO2 SLP177 T00041130
0196724096147062025010520557+40017-074600FM-15+0041KWRI V0203005N005752200059N0160935N5-00025-01325101805ADDGA1005+999999999GD10991+9999999GF100991999999999999999999MA1101795101305MD1390059+9999REMMET09801/05/25 15:55:02 METAR KWRI 052055Z 30011KT 10SM CLR M00/M13 A3006 RMK AO2 SLP180 T10021132 53005
0176724096147062025010521557+40017-074600FM-15+0041KWRI V0202805N004152200059N0160935N5-00125-01315101845ADDGA1005+999999999GD10991+9999999GF100991999999999999999999MA1101835101335REMMET09201/05/25 16:55:02 METAR KWRI 052155Z 28008KT 10SM CLR M01/M13 A3007 RMK AO2 SLP184 T10121131
0176724096147062025010522557+40017-074600FM-15+0041KWRI V0202905N004652200059N0160935N5-00185-01275101875ADDGA1005+999999999GD10991+9999999GF100991999999999999999999MA1101865101375REMMET09201/05/25 17:55:02 METAR KWRI 052255Z 29009KT 10SM CLR M02/M13 A3008 RMK AO2 SLP187 T10181127
0234724096147062025010523557+40017-074600FM-15+0041KWRI V0202705N003152200059N0160935N5-00255-01265101915ADDGA1005+999999999GD10991+9999999GF100991999999999999999999KA1060M+00061KA2060N-00251MA1101905101405MD1290099+9999REMMET11001/05/25 18:55:02 METAR KWRI 052355Z 27006KT 10SM CLR M02/M13 A3009 RMK AO2 SLP191 T10251126 10006 21025 52009
0176724096147062025010600557+40017-074600FM-15+0041KWRI V0202805N003652200059N0160935N5-00235-01265101875ADDGA1005+999999999GD10991+9999999GF100991999999999999999999MA1101865101375REMMET09201/05/25 19:55:01 METAR KWRI 060055Z 28007KT 10SM CLR M02/M13 A3008 RMK AO2 SLP187 T10231126
0176724096147062025010601557+40017-074600FM-15+0041KWRI V0202805N004152200059N0160935N5-00225-01235101875ADDGA1005+999999999GD10991+9999999GF100991999999999999999999MA1101865101375REMMET09201/05/25 20:55:01 METAR KWRI 060155Z 28008KT 10SM CLR M02/M12 A3008 RMK AO2 SLP187 T10221123
0196724096147062025010602557+40017-074600FM-15+0041KWRI V0203005N004152200059N0160935N5-00215-01225101845ADDGA1005+999999999GD10991+9999999GF100991999999999999999999MA1101835101335MD1690049+9999REMMET09801/05/25 21:55:01 METAR KWRI 060255Z 30008KT 10SM CLR M02/M12 A3007 RMK AO2 SLP184 T10211122 56004
0176724096147062025010603557+40017-074600FM-15+0041KWRI V0202705N004152200059N0160935N5-00215-01225101915ADDGA1005+999999999GD10991+9999999GF100991999999999999999999MA1101905101405REMMET09201/05/25 22:55:02 METAR KWRI 060355Z 27008KT 10SM CLR M02/M12 A3009 RMK AO2 SLP191 T10211122
0212724096147062025010604557+40017-074600FM-15+0041KWRI V0202905N003652200059N0160935N5-00225-01205101845ADDGA1005+999999999GD10991+9999999GF100991999999999999999999KA1240M+00061KA2240N-00471MA1101835101335REMMET10201/05/25 23:55:02 METAR KWRI 060455Z 29007KT 10SM CLR M02/M12 A3007 RMK AO2 SLP184 T10221120 400061047
0234724096147062025010605557+40017-074600FM-15+0041KWRI V0203005N002652200059N0160935N5-00225-01155101775ADDGA1005+999999999GD10991+9999999GF100991999999999999999999KA1060M-00191KA2060N-00251MA1101765101275MD1890089+9999REMMET11001/06/25 00:55:02 METAR KWRI 060555Z 30005KT 10SM CLR M02/M11 A3005 RMK AO2 SLP177 T10221115 11019 21025 58008
0176724096147062025010606557+40017-074600FM-15+0041KWRI V0203005N002652200059N0160935N5-00225-01155101775ADDGA1005+999999999GD10991+9999999GF100991999999999999999999MA1101765101275REMMET09201/06/25 01:55:02 METAR KWRI 060655Z 30005KT 10SM CLR M02/M11 A3005 RMK AO2 SLP177 T10221115
0176724096147062025010607557+40017-074600FM-15+0041KWRI V0203005N003152200059N0160935N5-00235-01135101705ADDGA1005+999999999GD10991+9999999GF100991999999999999999999MA1101695101205REMMET09201/06/25 02:55:02 METAR KWRI 060755Z 30006KT 10SM CLR M02/M11 A3003 RMK AO2 SLP170 T10231113
0196724096147062025010608557+40017-074600FM-15+0041KWRI V0202605N001552200059N0160935N5-00285-01085101675ADDGA1005+999999999GD10991+9999999GF100991999999999999999999MA1101665101175MD1890119+9999REMMET09801/06/25 03:55:02 METAR KWRI 060855Z 26003KT 10SM CLR M03/M11 A3002 RMK AO2 SLP167 T10281108 58011
0201724096147062025010609557+40017-074600FM-15+0041KWRI V0202405N00265025915MN0160935N5-00265-01045101575ADDGA1085+025915999GD14991+0259159GE19AGL   +99999+99999GF199999999999025911999999MA1101565101065REMMET09501/06/25 04:55:02 METAR KWRI 060955Z 24005KT 10SM OVC085 M03/M10 A2999 RMK AO2 SLP157 T10261104
0239724096147062025010610557+40017-074600FM-15+0041KWRI V0202605N00155018295MN0160935N5-00245-01075101505ADDGA1075+018295999GA2085+024385999GD13991+0182959GD24991+0243859GE19AGL   +99999+99999GF199999999999018291999999MA1101495101005REMMET10201/06/25 05:55:02 METAR KWRI 061055Z 26003KT 10SM BKN060 OVC080 M02/M11 A2997 RMK AO2 SLP150 T10241107
0229724096147062025010611247+40017-074600FM-15+0041KWRI V0202405N00155014335MN0160935N5-00205-01105101505ADDGA1075+014335999GA2075+016765999GD13991+0143359GD23991+0167659GE19AGL   +99999+99999GF199999999999014331999999MA1101495101005REMMET09201/06/25 06:24:02 METAR KWRI 061124Z 24003KT 10SM BKN047 BKN055 M02/M11 A2997 RMK AO2 SLP150
0280724096147062025010611457+40017-074600FM-15+0041KWRI V0209999C00005007925MN0160935N5-00205-01005101475ADDGA1075+007925999GA2075+010975999GA3085+014025999GD13991+0079251GD23991+0109759GD34991+0140259GE19AGL   +99999+99999GF199999999999007921999999MA1101465100965REMMET11201/06/25 06:45:02 METAR KWRI 061145Z 00000KT 10SM BKN026 BKN036 OVC046 M02/M10 A2996 RMK AO2A CIG 026V037 SLP147
0297724096147062025010611557+40017-074600FM-15+0041KWRI V0209999C00005007925MN0160935N5-00245-01025101475ADDGA1075+007925999GA2085+010975999GD13991+0079259GD24991+0109759GE19AGL   +99999+99999GF199999999999007921999999KA1060M-00211KA2060N-00291MA1101465100965MD1790179+9999REMMET12001/06/25 06:55:02 METAR KWRI 061155Z 00000KT 10SM BKN026 OVC036 M02/M10 A2996 RMK AO2 SLP147 T10241102 11021 21029 57017
0225724096147062025010612047+40017-074600FM-15+0041KWRI V0209999C00005007015MN0160935N5-00205-01005101475ADDAU110030015AW1715GA1085+007015999GD14991+0070159GE19AGL   +99999+99999GF199999999999007011999999MA1101465100965MW1715REMMET09601/06/25 07:04:02 METAR KWRI 061204Z 00000KT 10SM -SN OVC023 M02/M10 A2996 RMK AO2A SNB04 SLP147
0262724096147062025010612337+40017-074600FM-15+0041KWRI V0202605N00155009145MN0096565N5-00305-00905101435ADDAU110030015AW1715GA1045+006405999GA2085+009145999GD12991+0064059GD24991+0091459GE19AGL   +99999+99999GF199999999999006401999999MA1101425100935MW1715REMMET10201/06/25 07:33:02 METAR KWRI 061233Z 26003KT 6SM -SN SCT021 OVC030 M03/M09 A2995 RMK AO2A SNB04 SLP143
0262724096147062025010612397+40017-074600FM-15+0041KWRI V0209999C00005009145MN0064375N5-00305-00805101435ADDAU110030015AW1715GA1045+006405999GA2085+009145999GD12991+0064059GD24991+0091459GE19AGL   +99999+99999GF199999999999006401999999MA1101425100935MW1715REMMET10201/06/25 07:39:02 METAR KWRI 061239Z 00000KT 4SM -SN SCT021 OVC030 M03/M08 A2995 RMK AO2A SNB04 SLP143
0224724096147062025010612507+40017-074600FM-15+0041KWRI V0202605N00155007625MN0032195N5-00305-00705101435ADDAU110030015AW1715GA1085+007625999GD14991+0076259GE19AGL   +99999+99999GF199999999999007621999999MA1101425100935MW1715REMMET09501/06/25 07:50:02 METAR KWRI 061250Z 26003KT 2SM -SN OVC025 M03/M07 A2995 RMK AO2A SNB04 SLP143
0251724096147062025010612557+40017-074600FM-15+0041KWRI V0202705N00155007015MN0032195N5-00355-00705101435ADDAA101000021AU110030015AW1715GA1085+007015999GD14991+0070159GE19AGL   +99999+99999GF199999999999007011999999MA1101425100935MW1715REMMET11101/06/25 07:55:02 METAR KWRI 061255Z 27003KT 2SM -SN OVC023 M03/M07 A2995 RMK AO2A SNB04 SLP143 P0000 T10351070
0220724096147062025010613017+40017-074600FM-15+0041KWRI V0202705N00155005795MN0012075N5-00405-00705101435ADDAU110030015AW1715GA1085+005795999GD14991+0057959GE19AGL   +99999+99999GF199999999999005791999999MA1101425100935MW1715REMMET09101/06/25 08:01:02 METAR KWRI 061301Z 27003KT 3/4SM -SN OVC019 M04/M07 A2995 RMK AO2A SLP143
0239724096147062025010613127+40017-074600FM-15+0041KWRI V0209999C00005005795MN0010067N5-00405-00605101375ADDAU110030015AW1715GA1085+005795999GD14991+0057959GE19AGL   +99999+99999GF199999999999005791999999MA1101355100865MW1715REMMET09101/06/25 08:12:02 METAR KWRI 061312Z 00000KT 5/8SM -SN OVC019 M04/M06 A2993 RMK AO2A SLP137EQDR01 5/8SM7VIS011
0278724096147062025010613327+40017-074600FM-15+0041KWRI V0209999C00005004275WN0016095N5-00405-00605101375ADDAU110030015AU200001015AW1105AW2715ED124U18299GA1095+004275999GD15991+0042759GE19AGL   +99999+99999GF109991999999004271999999MA1101355100865MW1101MW2715REMMET11501/06/25 08:32:02 METAR KWRI 061332Z 00000KT 1SM R24/P6000FT -SN BR VV014 M04/M06 A2993 RMK VIS 1/2 RWY06/24 SLP137
0237724096147062025010613407+40017-074600FM-15+0041KWRI V0209999C00005003965WN0016095N5-00405-00605101335ADDAU110030015AU200001015AW1105AW2715GA1095+003965999GD15991+0039659GE19AGL   +99999+99999GF109991999999003961999999MA1101325100835MW1715REMMET09101/06/25 08:40:02 METAR KWRI 061340Z 00000KT 1SM -SN BR VV013 M04/M06 A2992 RMK AO2A SLP133
0242724096147062025010613457+40017-074600FM-15+0041KWRI V0209999C00005004275MN0020125N5-00405-00605101335ADDAU110030015AU200001015AW1105AW2715GA1085+004275999GD14991+0042759GE19AGL   +99999+99999GF199999999999004271999999MA1101325100835MW1715REMMET09601/06/25 08:45:02 METAR KWRI 061345Z 00000KT 1 1/4SM -SN BR OVC014 M04/M06 A2992 RMK AO2A SLP133
0242724096147062025010613507+40017-074600FM-15+0041KWRI V0209999C00005004275MN0024145N5-00405-00605101305ADDAU110030015AU200001015AW1105AW2715GA1085+004275999GD14991+0042759GE19AGL   +99999+99999GF199999999999004271999999MA1101295100805MW1715REMMET09601/06/25 08:50:02 METAR KWRI 061350Z 00000KT 1 1/2SM -SN BR OVC014 M04/M06 A2991 RMK AO2A SLP130
0281724096147062025010613557+40017-074600FM-15+0041KWRI V0209999C00005004275MN0000007N5-00375-00565999999ADDAA101000021AU110030015AU200001015AW1105AW2715GA1085+004275999GD14991+0042759GE19AGL   +99999+99999GF199999999999004271999999MA1101295100805MW1715REMMET10501/06/25 08:55:02 METAR KWRI 061355Z 00000KT 1 5/8SM -SN BR OVC014 M04/M06 A2991 RMK AO2A P0000 T10371056EQDR011 5/8S7VIS011
0261724096147062025010614037+40017-074600FM-15+0041KWRI V0209999C00005005795MN0000007N5-00405-00605101265ADDAU110030015AU200001015AW1105AW2715GA1085+005795999GD14991+0057959GE19AGL   +99999+99999GF199999999999005791999999MA1101255100765MW1715REMMET09601/06/25 09:03:02 METAR KWRI 061403Z 00000KT 1 7/8SM -SN BR OVC019 M04/M06 A2990 RMK AO2A SLP126EQDR011 7/8S7VIS011
0260724096147062025010614067+40017-074600FM-15+0041KWRI V0209999C00005006105MN0000007N5-00405-00605101265ADDAU110030015AU200001015AW1105AW2715GA1085+006105999GD14991+0061059GE19AGL   +99999+99999GF199999999999006101999999MA1101255100765MW1715REMMET09501/06/25 09:06:02 METAR KWRI 061406Z 00000KT 1 7/8SM -SN BR OVC020 M04/M06 A2990 RMK AO2ASLP126EQDR011 7/8S7VIS011
0242724096147062025010614117+40017-074600FM-15+0041KWRI V0209999C00005008235MN0040235N5-00405-00605101265ADDAU110030015AU200001015AW1105AW2715GA1085+008235999GD14991+0082359GE19AGL   +99999+99999GF199999999999008231999999MA1101255100765MW1715REMMET09601/06/25 09:11:02 METAR KWRI 061411Z 00000KT 2 1/2SM -SN BR OVC027 M04/M06 A2990 RMK AO2A SLP126
0266724096147062025010614337+40017-074600FM-15+0041KWRI V0209999C00005007015MN0016095N5-00405-00605101305ADDAU110030015AU200001015AW1105AW2715ED124U18299GA1085+007015999GD14991+0070159GE19AGL   +99999+99999GF199999999999007011999999MA1101295100805MW1715REMMET10901/06/25 09:33:02 METAR KWRI 061433Z 00000KT 1SM R24/6000VP6000FT -SN BR OVC023 M04/M06 A2991 RMK AO2A SLP130
0287724096147062025010614377+40017-074600FM-15+0041KWRI V0209999C00005007015MN0014087N5-00405-00605101265ADDAU110030015AU200001015AW1105AW2715ED124U16769GA1085+007015999GD14991+0070159GE19AGL   +99999+99999GF199999999999007011999999MA1101255100765MW1715REMMET11101/06/25 09:37:02 METAR KWRI 061437Z 00000KT 7/8SM R24/5500VP6000FT -SN BR OVC023 M04/M06 A2990 RMK AO2A SLP126EQDR01 7/8SM7VIS011
0266724096147062025010614417+40017-074600FM-15+0041KWRI V0209999C00005005795WN0012075N5-00405-00605101265ADDAU110030015AU200001015AW1105AW2715ED124U16769GA1095+005795999GD15991+0057959GE19AGL   +99999+99999GF109991999999005791999999MA1101255100765MW1715REMMET10901/06/25 09:41:02 METAR KWRI 061441Z 00000KT 3/4SM R24/5500V6000FT -SN BR VV019 M04/M06 A2990 RMK AO2A SLP126
0286724096147062025010614487+40017-074600FM-15+0041KWRI V0209999C00005004275WN0014087N5-00405-00605101235ADDAU110030015AU200001015AW1105AW2715ED124U16769GA1095+004275999GD15991+0042759GE19AGL   +99999+99999GF109991999999004271999999MA1101225100735MW1715REMMET11001/06/25 09:48:02 METAR KWRI 061448Z 00000KT 7/8SM R24/5500VP6000FT -SN BR VV014 M04/M06 A2989 RMK AO2A SLP123EQDR01 7/8SM7VIS011
0341724096147062025010614557+40017-074600FM-15+0041KWRI V0209999C00005004885MN0000007N5-00355-00545101235ADDAA101000595AA203001391AU110030015AU200001015AW1105AW2715GA1085+004885999GD14991+0048859GE19AGL   +99999+99999GF199999999999004881999999MA1101225100735MD1790249+9999MW1715REMMET12401/06/25 09:55:02 METAR KWRI 061455Z 00000KT 1 1/8SM -SN BR OVC016 M03/M05 A2989 RMK AO2A SLP123 P0002 60005 T10351054 57024EQDQ01  00128PRCP03R011 1/8S7VIS011
0264724096147062025010615247+40017-074600FM-15+0041KWRI V0200505N00215005185WN0016095N5-00305-00505101135ADDAU110030015AU200001015AW1105AW2715ED124U16769GA1095+005185999GD15991+0051859GE19AGL   +99999+99999GF109991999999005181999999MA1101125100635MW1715REMMET10701/06/25 10:24:02 METAR KWRI 061524Z 05004KT 1SM R24/5500V6000FT -SN BR VV017 M03/M05 A2986 RMK AO2A SLP113
0261724096147062025010615327+40017-074600FM-15+0041KWRI V0200505N00155004885MN0000007N5-00305-00505101135ADDAU110030015AU200001015AW1105AW2715GA1085+004885999GD14991+0048859GE19AGL   +99999+99999GF199999999999004881999999MA1101125100635MW1715REMMET09601/06/25 10:32:02 METAR KWRI 061532Z 05003KT 1 1/8SM -SN BR OVC016 M03/M05 A2986 RMK AO2A SLP113EQDR011 1/8S7VIS011
0238724096147062025010615507+40017-074600FM-15+0041KWRI V0200205N00155008535MN0048285N5-00305-00505101095ADDAU110030015AU200001015AW1105AW2715GA1085+008535999GD14991+0085359GE19AGL   +99999+99999GF199999999999008531999999MA1101085100595MW1715REMMET09201/06/25 10:50:02 METAR KWRI 061550Z 02003KT 3SM -SN BR OVC028 M03/M05 A2985 RMK AO2A SLP109
0265724096147062025010615557+40017-074600FM-15+0041KWRI V0200205N00155009145MN0064375N5-00325-00525101095ADDAA101000021AU110030015AU200001015AW1105AW2715GA1085+009145999GD14991+0091459GE19AGL   +99999+99999GF199999999999009141999999MA1101085100595MW1715REMMET10801/06/25 10:55:02 METAR KWRI 061555Z 02003KT 4SM -SN BR OVC030 M03/M05 A2985 RMK AO2A SLP109 P0000 T10321052
0287724096147062025010616217+40017-074600FM-15+0041KWRI V0209999C00005008535MN0014087N5-00305-00505101035ADDAU110030015AU200001015AW1105AW2715ED124U12199GA1085+008535999GD14991+0085359GE19AGL   +99999+99999GF199999999999008531999999MA1101025100535MW1715REMMET11101/06/25 11:21:02 METAR KWRI 061621Z 00000KT 7/8SM R24/4000VP6000FT -SN BR OVC028 M03/M05 A2983 RMK AO2A SLP103EQDR01 7/8SM7VIS011
0286724096147062025010616257+40017-074600FM-15+0041KWRI V0209999C00005004275MN0010067N5-00305-00505101035ADDAU110030015AU200001015AW1105AW2715ED124U12199GA1085+004275999GD14991+0042759GE19AGL   +99999+99999GF199999999999004271999999MA1101025100535MW1715REMMET11001/06/25 11:25:02 METAR KWRI 061625Z 00000KT 5/8SM R24/4000V5500FT -SN BR OVC014 M03/M05 A2983 RMK AO2A SLP103EQDR01 5/8SM7VIS011
0285724096147062025010616357+40017-074600FM-15+0041KWRI V0209999C00005004885WN0014087N5-00305-00505100995ADDAU110030015AU200001015AW1105AW2715ED124U12199GA1095+004885999GD15991+0048859GE19AGL   +99999+99999GF109991999999004881999999MA1100985100495MW1715REMMET10901/06/25 11:35:02 METAR KWRI 061635Z 00000KT 7/8SM R24/4000V6000FT -SN BR VV016 M03/M05 A2982 RMK AO2A SLP099EQDR01 7/8SM7VIS011
0280724096147062025010616487+40017-074600FM-15+0041KWRI V0203205N00155003965MN0028165N5-00305-00505100965ADDAU110030015AU200001015AW1105AW2715GA1025+001525999GA2085+003965999GD11991+0015259GD24991+0039659GE19AGL   +99999+99999GF199999999999001521999999MA1100955100465MW1715REMMET10301/06/25 11:48:02 METAR KWRI 061648Z 32003KT 1 3/4SM -SN BR FEW005 OVC013 M03/M05 A2981 RMK AO2A SLP096
0364724096147062025010616557+40017-074600FM-15+0041KWRI V0209999C00005005795MN0000007N5-00315-00505100965ADDAA101000021AU110030015AU200001015AW1105AW2715GA1045+001525999GA2075+005795999GA3085+007325999GD12991+0015259GD23991+0057959GD34991+0073259GE19AGL   +99999+99999GF199999999999001521999999MA1100955100465MW1715REMMET12601/06/25 11:55:02 METAR KWRI 061655Z 00000KT 1 7/8SM -SN BR SCT005 BKN019 OVC024 M03/M05 A2981 RMK AO2A SLP096 P0000 T10311050EQDR011 7/8S7VIS011
0314724096147062025010617197+40017-074600FM-15+0041KWRI V0203505N00155005795MN0032195N5-00305-00505100925ADDAU110030015AU200001015AW1105AW2715GA1025+001835999GA2075+005795999GA3085+008535999GD11991+0018359GD23991+0057959GD34991+0085359GE19AGL   +99999+99999GF199999999999001831999999MA1100915100425MW1715REMMET10601/06/25 12:19:02 METAR KWRI 061719Z 35003KT 2SM -SN BR FEW006 BKN019 OVC028 M03/M05 A2980 RMK AO2A SLP092
0337724096147062025010617267+40017-074600FM-15+0041KWRI V0200105N00155005795MN0000007N5-00305-00505100865ADDAU110030015AU200001015AW1105AW2715GA1025+001835999GA2075+005795999GA3085+011285999GD11991+0018359GD23991+0057959GD34991+0112859GE19AGL   +99999+99999GF199999999999001831999999MA1100855100365MW1715REMMET11001/06/25 12:26:02 METAR KWRI 061726Z 01003KT 1 7/8SM -SN BR FEW006 BKN019 OVC037 M03/M05 A2978 RMK AO2A SLP086EQDR011 7/8S7VIS011
0299724096147062025010617397+40017-074600FM-15+0041KWRI V0200305N00155005795MN0000007N5-00305-00505100825ADDAU110030015AU200001015AW1105AW2715GA1075+005795999GA2085+007325999GD13991+0057959GD24991+0073259GE19AGL   +99999+99999GF199999999999005791999999MA1100815100325MW1715REMMET10301/06/25 12:39:02 METAR KWRI 061739Z 03003KT 2 3/4SM -SN BR BKN019 OVC024 M03/M05 A2977 RMK AO2A SLP082EQDR012 3/4S7VIS011
0455724096147062025010617557+40017-074600FM-15+0041KWRI V0200305N00155005185MN0040235N5-00275-00495999999ADDAA101000595AA206001391AJ100039500025099AU110030015AU200001015AW1105AW2715GA1045+002135999GA2075+005185999GA3085+009755999GD12991+0021359GD23991+0051859GD34991+0097559GE19AGL   +99999+99999GF199999999999002131999999KA1060M-00231KA2060N-00401MA1100785100295MD1790459+9999MW1715REMMET14901/06/25 12:55:02 METAR KWRI 061755Z 03003KT 2 1/2SM -SN BR SCT007 BKN017 OVC032 M03/M05 A2976 RMK AO2A P0002 60005 4/001 T10271049 11023 21040 57045EQDQ01  00128PRCP06
0282724096147062025010618517+40017-074600FM-15+0041KWRI V0200205N00315002445MN0160935N5-00205-00505100625ADDGA1075+002445999GA2075+004275999GA3085+024385999GD13991+0024459GD23991+0042759GD34991+0243859GE19AGL   +99999+99999GF199999999999002441999999MA1100615100125REMMET11401/06/25 13:51:02 METAR KWRI 061851Z 02006KT 10SM BKN008 BKN014 OVC080 M02/M05 A2971 RMK AO2A SNE36UPB36E51 SLP062
0271724096147062025010618557+40017-074600FM-15+0041KWRI V0200205N00315002445MN0160935N5-00225-00475100655ADDAA101000021GA1075+002445999GA2085+004275999GD13991+0024459GD24991+0042759GE19AGL   +99999+99999GF199999999999002441999999MA1100645100155REMMET12301/06/25 13:55:01 METAR KWRI 061855Z 02006KT 10SM BKN008 OVC014 M02/M05 A2972 RMK AO2A SNE36UPB36E51 SLP065 P0000 T10221047
0294724096147062025010618597+40017-074600FM-15+0041KWRI V0200105N00415003055MN0160935N5-00205-00505100655ADDGA1075+003055999GA2075+004275999GA3085+024385999GD13991+0030551GD23991+0042759GD34991+0243859GE19AGL   +99999+99999GF199999999999003051999999MA1100645100155REMMET12601/06/25 13:59:02 METAR KWRI 061859Z 01008KT 10SM BKN010 BKN014 OVC080 M02/M05 A2972 RMK AO2A CIG 008V010 CIG 009 RWY18 SLP065
0237724096147062025010619077+40017-074600FM-15+0041KWRI V0200305N00365024385MN0160935N5-00205-00505100585ADDGA1045+002745999GA2085+024385999GD12991+0027459GD24991+0243859GE19AGL   +99999+99999GF199999999999002741999999MA1100585100095REMMET10001/06/25 14:07:02 METAR KWRI 061907Z 03007KT 10SM SCT009 OVC080 M02/M05 A2970 RMK AO2A PRESFR SLP058
0266724096147062025010619297+40017-074600FM-15+0041KWRI V0200205N00365003055MN0160935N5-00205-00505100555ADDGA1075+003055999GA2085+025915999GD13991+0030551GD24991+0259159GE19AGL   +99999+99999GF199999999999003051999999MA1100545100055REMMET12901/06/25 14:29:02 METAR KWRI 061929Z 02007KT 10SM BKN010 OVC085 M02/M05 A2969 RMK AO2A CIG 010V085 BKN V SCT CIG 009 RWY06 SLP055
0240724096147062025010619557+40017-074600FM-15+0041KWRI V0200205N00465003055MN0160935N5-00185-00485100485ADDGA1075+003055999GA2085+021345999GD13991+0030559GD24991+0213459GE19AGL   +99999+99999GF199999999999003051999999MA1100475099995REMMET10301/06/25 14:55:02 METAR KWRI 061955Z 02009KT 10SM BKN010 OVC070 M02/M05 A2967 RMK AO2A SLP048 T10181048
0258724096147062025010619577+40017-074600FM-15+0041KWRI V0200205N00415003355MN0160935N5-00205-00505100485ADDGA1075+003355999GA2085+021345999GD13991+0033551GD24991+0213459GE19AGL   +99999+99999GF199999999999003351999999MA1100475099995REMMET12101/06/25 14:57:02 METAR KWRI 061957Z 02008KT 10SM BKN011 OVC070 M02/M05 A2967 RMK AO2A CIG 010 RWY06 CIG 010 RWY18 SLP048
0230724096147062025010620037+40017-074600FM-15+0041KWRI V0200205N00365021345MN0160935N5-00205-00505100455ADDGA1045+003355999GA2085+021345999GD12991+0033559GD24991+0213459GE19AGL   +99999+99999GF199999999999003351999999MA1100445099955REMMET09301/06/25 15:03:02 METAR KWRI 062003Z 02007KT 10SM SCT011 OVC070 M02/M05 A2966 RMK AO2A SLP045
0252724096147062025010620377+40017-074600FM-15+0041KWRI V0200305N00415007625MN0160935N5-00205-00505100485ADDGA1075+007625999GA2085+021345999GD13991+0076251GD24991+0213459GE19AGL   +99999+99999GF199999999999007621999999MA1100475099995REMMET11501/06/25 15:37:02 METAR KWRI 062037Z 03008KT 10SM BKN025 OVC070 M02/M05 A2967 RMK AO2A CIG 025V070 BKN V SCT SLP048
0268724096147062025010620557+40017-074600FM-15+0041KWRI V0200105N00315007625MN0160935N5-00165-00465100485ADDAA103000021GA1085+007625999GD14991+0076259GE19AGL   +99999+99999GF199999999999007621999999MA1100475099995MD1590299+9999REMMET11801/06/25 15:55:02 METAR KWRI 062055Z 01006KT 10SM OVC025 M02/M05 A2967 RMK AO2A OVC V BKN SLP048 60000 T10161046 55029EQDQ01  00008PRCP03
0267724096147062025010621357+40017-074600FM-15+0041KWRI V0200205N00415010365MN0160935N5-00205-00405100455ADDGA1025+003665999GA2045+008535999GA3085+010365999GD11991+0036659GD22991+0085359GD34991+0103659GE19AGL   +99999+99999GF199999999999003661999999MA1100445099955REMMET09901/06/25 16:35:02 METAR KWRI 062135Z 02008KT 10SM FEW012 SCT028 OVC034 M02/M04 A2966 RMK AO2 SLP045
0303724096147062025010621437+40017-074600FM-15+0041KWRI V0200105N00265008535MN0160935N5-00205-00405100485ADDGA1045+004275999GA2075+008535999GA3085+010365999GD12991+0042751GD23991+0085359GD34991+0103659GE19AGL   +99999+99999GF199999999999004271999999MA1100475099995REMMET13501/06/25 16:43:02 METAR KWRI 062143Z 01005KT 10SM SCT014 BKN028 OVC034 M02/M04 A2967 RMK AO2 CIG 028V034 BKN V SCT CIG 013 RWY18 SLP048
0279724096147062025010621477+40017-074600FM-15+0041KWRI V0200205N00315003965MN0160935N5-00205-00405100455ADDGA1075+003965999GA2075+008535999GA3085+010365999GD13991+0039651GD23991+0085359GD34991+0103659GE19AGL   +99999+99999GF199999999999003961999999MA1100445099955REMMET11101/06/25 16:47:02 METAR KWRI 062147Z 02006KT 10SM BKN013 BKN028 OVC034 M02/M04 A2966 RMK AO2 CIG 013V034 SLP045
0279724096147062025010621557+40017-074600FM-15+0041KWRI V0200105N00365003965MN0160935N5-00175-00445100455ADDGA1075+003965999GA2085+010365999GD13991+0039651GD24991+0103659GE19AGL   +99999+99999GF199999999999003961999999MA1100445099955REMMET14201/06/25 16:55:02 METAR KWRI 062155Z 01007KT 10SM BKN013 OVC034 M02/M04 A2966 RMK AO2 CIG 013V028 CIG 012 RWY06 CIG 012 RWY18 SLP045 T10171044
0225724096147062025010622337+40017-074600FM-15+0041KWRI V0203605N00315004275MN0160935N5-00205-00405100385ADDAU110030015AW1715GA1085+004275999GD14991+0042759GE19AGL   +99999+99999GF199999999999004271999999MA1100375099885MW1715REMMET09601/06/25 17:33:02 METAR KWRI 062233Z 36006KT 10SM -SN OVC014 M02/M04 A2964 RMK AO2A SNB33 SLP038
0273724096147062025010622357+40017-074600FM-15+0041KWRI V0203605N00265004275MN0160935N5-00205-00405100385ADDAU110030015AW1715GA1075+004275999GA2085+016765999GD13991+0042759GD24991+0167659GE19AGL   +99999+99999GF199999999999004271999999MA1100375099885MW1715REMMET11301/06/25 17:35:02 METAR KWRI 062235Z 36005KT 10SM -SN BKN014 OVC055 M02/M04 A2964 RMK AO2A SNB33 BKN V OVC SLP038
0273724096147062025010622367+40017-074600FM-15+0041KWRI V0203605N00265004275MN0160935N5-00205-00405100385ADDAU110030015AW1715GA1075+004275999GA2085+016765999GD13991+0042759GD24991+0167659GE19AGL   +99999+99999GF199999999999004271999999MA1100375099885MW1715REMMET11301/06/25 17:36:02 METAR KWRI 062236Z 36005KT 10SM -SN BKN014 OVC055 M02/M04 A2964 RMK AO2A SNB33 BKN V OVC SLP038
0273724096147062025010622377+40017-074600FM-15+0041KWRI V0203605N00265004275MN0160935N5-00205-00405100385ADDAU110030015AW1715GA1075+004275999GA2085+016765999GD13991+0042759GD24991+0167659GE19AGL   +99999+99999GF199999999999004271999999MA1100375099885MW1715REMMET11301/06/25 17:37:02 METAR KWRI 062237Z 36005KT 10SM -SN BKN014 OVC055 M02/M04 A2964 RMK AO2A SNB33 BKN V OVC SLP038
0309724096147062025010622557+40017-074600FM-15+0041KWRI V0209999V00315009755MN0144845N5-00185-00425100355ADDAA101000021AU110030015AW1715GA1085+009755999GD14991+0097559GE19AGL   +99999+99999GF199999999999009751999999KA1060M-00161KA2060N-00291MA1100345099855MD1790159+9999MW1715REMMET12901/06/25 17:55:02 METAR KWRI 062255Z VRB06KT 9SM -SN OVC032 M02/M04 A2963 RMK AO2A SNB33 SLP035 P0000 T10181042 11016 21029 57015
0293724096147062025010623467+40017-074600FM-15+0041KWRI V0203505N003152200059N0160935N5-00205-00405100355ADDGA1025+009145999GA2045+025915999GA3045+036585999GD11991+0091459GD22991+0259159GD32991+0365859GE19AGL   +99999+99999GF104995999999009141999999MA1100345099855REMMET10601/06/25 18:46:02 METAR KWRI 062346Z 35006KT 10SM FEW030 SCT085 SCT120 M02/M04 A2963 RMK AO2A SNE42 SLP035EQDD01      0ADE726
0403724096147062025010623557+40017-074600FM-15+0041KWRI V0200205N003152200059N0160935N5-00175-00455100355ADDAA101000021AA206000021AU110030015AW1715GA1045+024385999GA2045+036585999GD12991+0243859GD22991+0365859GE19AGL   +99999+99999GF104995999999024381999999KA1060M-00161KA2060N-00271MA1100345099855MD1790169+9999MW1715REMMET14601/06/25 18:55:02 METAR KWRI 062355Z 02006KT 10SM -SN SCT080 SCT120 M02/M04 A2963 RMK AO2A SNE34B54 SLP035 P0000 60000 T10171045 11016 21027 57016EQDQ01  00008PRCP06D01      0ADE726
0277724096147062025010700147+40017-074600FM-15+0041KWRI V0203605N00265014335MN0160935N5-00205-00405100355ADDGA1025+011585999GA2075+014335999GA3075+024385999GD11991+0115859GD23991+0143359GD33991+0243859GE19AGL   +99999+99999GF199999999999011581999999MA1100345099855REMMET10901/06/25 19:14:01 METAR KWRI 070014Z 36005KT 10SM FEW038 BKN047 BKN080 M02/M04 A2963 RMK AO2A SNB54E07 SLP035
0304724096147062025010700157+40017-074600FM-15+0041KWRI V0203505N00315014335MN0160935N5-00205-00405100355ADDAU110030015AW1715GA1025+011585999GA2075+014335999GA3075+024385999GD11991+0115859GD23991+0143359GD33991+0243859GE19AGL   +99999+99999GF199999999999011581999999MA1100345099855MW1715REMMET11301/06/25 19:15:01 METAR KWRI 070015Z 35006KT 10SM -SN FEW038 BKN047 BKN080 M02/M04 A2963 RMK AO2A SNE07B15 SLP035
0256724096147062025010700497+40017-074600FM-15+0041KWRI V0203405N00315008535MN0048285N5-00205-00405100315ADDAU110030015AW1715GA1085+008535999GD14991+0085359GE19AGL   +99999+99999GF199999999999008531999999MA1100305099825MW1715REMMET12701/06/25 19:49:01 METAR KWRI 070049Z 34006KT 3SM -SN OVC028 M02/M04 A2962 RMK AO2A TWR VIS 2 1/2 SNB15E22SNB22 OVC V BKN SLP031
0270724096147062025010700557+40017-074600FM-15+0041KWRI V0203405N00315008535MN0048285N5-00195-00385100315ADDAA101000021AU110030015AW1715GA1085+008535999GD14991+0085359GE19AGL   +99999+99999GF199999999999008531999999MA1100305099825MW1715REMMET13001/06/25 19:55:01 METAR KWRI 070055Z 34006KT 3SM -SN OVC028 M02/M04 A2962 RMK AO2A TWR VIS 2 1/2 SNB22 SLP031 P0000 T10191038 0105
0218724096147062025010701057+40017-074600FM-15+0041KWRI V0203505N00315009455MN0048285N5-00205-00405100285ADDAU110030015AW1715GA1085+009455999GD14991+0094559GE19AGL   +99999+99999GF199999999999009451999999MA1100275099785MW1715REMMET08901/06/25 20:05:01 METAR KWRI 070105Z 35006KT 3SM -SN OVC031 M02/M04 A2961 RMK AO2A SLP028
0263724096147062025010701557+40017-074600FM-15+0041KWRI V0203305N00365024385MN0160935N5-00165-00465100355ADDAA101000021GA1045+019815999GA2075+024385999GD12991+0198159GD23991+0243859GE19AGL   +99999+99999GF199999999999019811999999MA1100345099855REMMET11501/06/25 20:55:01 METAR KWRI 070155Z 33007KT 10SM SCT065 BKN080 M02/M05 A2963 RMK AO2A SNE39 SLP035 P0000 T10161046
0296724096147062025010702557+40017-074600FM-15+0041KWRI V0203305N00515019815MN0160935N5-00165-00775100455ADDAA103000021GA1025+014635999GA2085+019815999GD11991+0146359GD24991+0198159GE19AGL   +99999+99999GF199999999999014631999999MA1100445099955MD1390109+9999REMMET11501/06/25 21:55:01 METAR KWRI 070255Z 33010KT 10SM FEW048 OVC065 M02/M08 A2966 RMK AO2A SLP045 60000 T10161077 53010EQDQ01  00008PRCP03
0334724096147062025010703207+40017-074600FM-15+0041KWRI V0203205N005152200059N0160935N5-00205-00705100485ADDAU110090017AW1417GA1025+014025999GA2045+018295999GD11991+0140259GD22991+0182959GE19AGL   +99999+99999GF104995999999014021999999MA1100475099995OC100885REMMET10501/06/25 22:20:02 METAR KWRI 070320Z 32010G17KT 10SM -UP FEW046 SCT060 M02/M07 A2967 RMK AO2 UPB20 SLP048EQDR01   -UP7AWW013R02SEERMK7MVW013R03   -UP7MWW013D01      0ADE735
0230724096147062025010703317+40017-074600FM-15+0041KWRI V0203205N005152200059N0160935N5-00205-00805100525ADDGA1025+015245999GD11991+0152459GE19AGL   +99999+99999GF102995999999015241999999MA1100515100025OC100985REMMET09701/06/25 22:31:02 METAR KWRI 070331Z 32010G19KT 10SM FEW050 M02/M08 A2968 RMK AO2 UPB20E31 SLP052EQDD01      0ADE726
0304724096147062025010703447+40017-074600FM-15+0041KWRI V0203205N006752200059N0160935N5-00205-00805100555ADDAU110090017AW1417GA1025+010675999GD11991+0106759GE19AGL   +99999+99999GF102995999999010671999999MA1100545100055OC100985REMMET10601/06/25 22:44:02 METAR KWRI 070344Z 32013G19KT 10SM -UP FEW035 M02/M08 A2969 RMK AO2 UPB20E31UPB44 SLP055EQDR01   -UP7AWW013R02SEERMK7MVW013R03   -UP7MWW013D01      0ADE735
0227724096147062025010703467+40017-074600FM-15+0041KWRI V0203205N006252200059N0160935N5-00205-00805100555ADDGA1025+010675999GD11991+0106759GE19AGL   +99999+99999GF102995999999010671999999MA1100545100055REMMET10201/06/25 22:46:02 METAR KWRI 070346Z 32012KT 10SM FEW035 M02/M08 A2969 RMK AO2 UPB20E31UPB44E46 SLP055EQDD01      0ADE726
0221724096147062025010703557+40017-074600FM-15+0041KWRI V0203205N005752200059N0160935N5-00235-00905100555ADDAA101000021GA1005+999999999GD10991+9999999GF100991999999999999999999MA1100545100055OC100935REMMET11801/06/25 22:55:02 METAR KWRI 070355Z 32011G18KT 10SM CLR M02/M09 A2969 RMK AO2 UPB20E31UPB44E46 SLP055 P0000 T10231090
0260724096147062025010704247+40017-074600FM-15+0041KWRI V0203205N006752200059N0160935N5-00305-01005100625ADDAU110030015AW1715GA1025+005495999GD11991+0054959GE19AGL   +99999+99999GF102995999999005491999999MA1100615100125MW1715OC101035REMMET10401/06/25 23:24:02 METAR KWRI 070424Z 32013G20KT 10SM -SN FEW018 M03/M10 A2971 RMK AO2A SNB24 SLP062 0452EQDD01      0ADE726
0263724096147062025010704517+40017-074600FM-15+0041KWRI V0203205N00415010365MN0160935N5-00405-00805100655ADDAU110030015AW1715GA1075+010365999GA2075+014945999GD13991+0103659GD23991+0149459GE19AGL   +99999+99999GF199999999999010361999999MA1100645100155MW1715REMMET10301/06/25 23:51:02 METAR KWRI 070451Z 32008KT 10SM -SN BKN034 BKN049 M04/M08 A2972 RMK AO2A SNB24 SLP065
0353724096147062025010704557+40017-074600FM-15+0041KWRI V0203205N00575010365MN0160935N5-00395-00825100655ADDAA101000021AU110030015AW1715GA1075+010365999GA2075+014945999GD13991+0103659GD23991+0149459GE19AGL   +99999+99999GF199999999999010361999999KA1240M-00131KA2240N-00401MA1100645100155MW1715OC100985REMMET14801/06/25 23:55:02 METAR KWRI 070455Z 32011G19KT 10SM -SN BKN034 BKN049 M04/M08 A2972 RMK AO2A PK WND 33028/05 SNB24 SLP065 P0000 T10391082 410131040
002772409614706202501070459O+40017-074600SOD  +0041KWRI V020999999999999999999999999999+99999+99999999999ADDAT1AU18SN  5AT2AU13BR  5
0323724096147062025010705557+40017-074600FM-15+0041KWRI V0203305N008252200059N0160935N5-00545-01305100695ADDAA101000021AA206000021GA1005+999999999GD10991+9999999GF100991999999999999999999KA1060M-00131KA2060N-00541MA1100685100195MD1290279+9999OC101185REMMET15001/07/25 00:55:02 METAR KWRI 070555Z 33016G23KT 10SM CLR M05/M13 A2973 RMK AO2A PK WND 32030/49 SNE0455 SLP069 P0000 60000 T10541130 11013 21054 52027EQDQ01  00008PRCP06
0193724096147062025010706557+40017-074600FM-15+0041KWRI V0203405N005752200059N0160935N5-00755-01425100825ADDGA1005+999999999GD10991+9999999GF100991999999999999999999MA1100815100325REMMET10901/07/25 01:55:02 METAR KWRI 070655Z 34011KT 10SM CLR M07/M14 A2977 RMK AO2A PK WND 35033/21 SLP082 T10751142
0177724096147062025010707557+40017-074600FM-15+0041KWRI V0203005N006252200059N0160935N5-00725-01375100895ADDGA1005+999999999GD10991+9999999GF100991999999999999999999MA1100885100395REMMET09301/07/25 02:55:02 METAR KWRI 070755Z 30012KT 10SM CLR M07/M14 A2979 RMK AO2A SLP089 T10721137
0192724096147062025010708347+40017-074600FM-15+0041KWRI V0203105N00465010065MN0160935N5-00705-01305100895ADDGA1075+010065999GD13991+0100659GE19AGL   +99999+99999GF199999999999010061999999MA1100885100395REMMET08601/07/25 03:34:02 METAR KWRI 070834Z 31009KT 10SM BKN033 M07/M13 A2979 RMK AO2A SLP089
0222724096147062025010708557+40017-074600FM-15+0041KWRI V0203105N00515010065MN0160935N5-00655-01305100895ADDGA1085+010065999GD14991+0100659GE19AGL   +99999+99999GF199999999999010061999999MA1100885100395MD1090199+9999REMMET10201/07/25 03:55:02 METAR KWRI 070855Z 31010KT 10SM OVC033 M06/M13 A2979 RMK AO2A SLP089 T10651130 50019
0213724096147062025010709557+40017-074600FM-15+0041KWRI V0203205N00725010065MN0160935N5-00565-01245100925ADDGA1085+010065999GD14991+0100659GE19AGL   +99999+99999GF199999999999010061999999MA1100915100425OC101245REMMET09901/07/25 04:55:02 METAR KWRI 070955Z 32014G24KT 10SM OVC033 M06/M12 A2980 RMK AO2A SLP092 T10561124
0232724096147062025010710557+40017-074600FM-15+0041KWRI V0203005N006252200059N0160935N5-00545-01225100995ADDGA1045+010365999GD12991+0103659GE19AGL   +99999+99999GF104995999999010361999999MA1100985100495OC100935REMMET09901/07/25 05:55:02 METAR KWRI 071055Z 30012G18KT 10SM SCT034 M05/M12 A2982 RMK AO2A SLP099 T10541122EQDD01      0ADE726
0245724096147062025010711557+40017-074600FM-15+0041KWRI V0203005N006752200059N0160935N5-00555-01275101065ADDGA1005+999999999GD10991+9999999GF100991999999999999999999KA1060M-00531KA2060N-00751MA1101055100565MD1290189+9999OC100985REMMET11301/07/25 06:55:01 METAR KWRI 071155Z 30013G19KT 10SM CLR M05/M13 A2984 RMK AO2 SLP106 T10551127 11053 21075 52018
0187724096147062025010712557+40017-074600FM-15+0041KWRI V0203005N005752200059N0160935N5-00555-01315101135ADDGA1005+999999999GD10991+9999999GF100991999999999999999999MA1101125100635OC100885REMMET09501/07/25 07:55:01 METAR KWRI 071255Z 30011G17KT 10SM CLR M05/M13 A2986 RMK AO2 SLP113 T10551131
0188724096147062025010713557+40017-074600FM-15+0041KWRI V0202905N006752200059N0160935N5-00435-01225101165ADDGA1005+999999999GD10991+9999999GF100991999999999999999999MA1101155100665OC101085REMMET09601/07/25 08:55:02 METAR KWRI 071355Z 29013G21KT 10SM CLR M04/M12 A2987 RMK AO2A SLP116 T10431122
0224724096147062025010714557+40017-074600FM-15+0041KWRI V0203005N007752200059N0160935N5-00355-01225101195ADDGA1005+999999999GD10991+9999999GF100991999999999999999999MA1101195100695MD1290129+9999OC101295REMMET11801/07/25 09:55:02 METAR KWRI 071455Z 30015G25KT 10SM CLR M03/M12 A2988 RMK AO2A PK WND 33028/51 SLP119 T10351122 52012
0239724096147062025010715557+40017-074600FM-15+0041KWRI V0203105N006752200059N0160935N5-0030C-0130C999999ADDGA1005+999999999GD10991+9999999GF100991999999999999999999MA1101255100765OC101545REMMET11201/07/25 10:55:02 METAR KWRI 071555Z 31013G30KT 10SM CLR M03/M13 A2990 RMK AO2A SLPNO WND DATA ESTMD ALSTG ESTMDEQDR01   M037TMP046R02   M137DPT046
0239724096147062025010716557+40017-074600FM-15+0041KWRI V0203005N008252200059N0160935N5-0020C-0120C999999ADDGA1005+999999999GD10991+9999999GF100991999999999999999999MA1101295100805OC101545REMMET11201/07/25 11:55:02 METAR KWRI 071655Z 30016G30KT 10SM CLR M02/M12 A2991 RMK AO2A SLPNO WND DATA ESTMD ALSTG ESTMDEQDR01   M027TMP046R02   M127DPT046
0262724096147062025010717557+40017-074600FM-15+0041KWRI V0202905N008852200059N0160935N5-00015-01015101095ADDGA1005+999999999GD10991+9999999GF100991999999999999999999KA1060M-00011KA2060N-00581MA1101085100595MD1890089+9999OC101395REMMET13001/07/25 12:55:02 METAR KWRI 071755Z 29017G27KT 10SM CLR M00/M10 A2985 RMK AO2A PK WND 32031/40 SLP109 T10011101 11001 21058 58008
0203724096147062025010718557+40017-074600FM-15+0041KWRI V0203005N007752200059N0160935N5+00085-01015101095ADDGA1005+999999999GD10991+9999999GF100991999999999999999999MA1101085100595OC101185REMMET11101/07/25 13:55:02 METAR KWRI 071855Z 30015G23KT 10SM CLR 01/M10 A2985 RMK AO2A PK WND 29033/05 SLP109 T00081101
0203724096147062025010719557+40017-074600FM-15+0041KWRI V0203005N011352200059N0160935N5+00105-01025101135ADDGA1005+999999999GD10991+9999999GF100991999999999999999999MA1101125100635OC101395REMMET11101/07/25 14:55:01 METAR KWRI 071955Z 30022G27KT 10SM CLR 01/M10 A2986 RMK AO2A PK WND 33032/08 SLP113 T00101102
0197724096147062025010720556+40017-074600FM-15+0041KWRI V0202905N007752200059N0160935N5+00055-01045101265ADDGA1005+999999999GD10991+9999999MA1101255100765MD1390169+9999OC101135REMMET11701/07/25 15:55:02 METAR KWRI 072055Z 29015G22KT 10SM CLR 01/M10 A2990 RMK AO2A PK WND 31031/37 SLP126 T00051104 53016
0208724096147062025010721557+40017-074600FM-15+0041KWRI V0202905N005152200059N0160935N5-00015-01065101375ADDGA1005+999999999GD10991+9999999GF100991999999999999999999MA1101355100865OD149901391310REMMET11001/07/25 16:55:02 METAR KWRI 072155Z 29010KT 10SM CLR M00/M11 A2993 RMK AO2 PK WND 31027/2059 SLP137 T10011106
0176724096147062025010722557+40017-074600FM-15+0041KWRI V0203005N006252200059N0160935N5-00035-01055101435ADDGA1005+999999999GD10991+9999999GF100991999999999999999999MA1101425100935REMMET09201/07/25 17:55:02 METAR KWRI 072255Z 30012KT 10SM CLR M00/M10 A2995 RMK AO2 SLP143 T10031105
0245724096147062025010723557+40017-074600FM-15+0041KWRI V0202905N005152200059N0160935N5-00105-01095101535ADDGA1005+999999999GD10991+9999999GF100991999999999999999999KA1060M+00101KA2060N-00111MA1101525101035MD1290259+9999OC100935REMMET11301/07/25 18:55:02 METAR KWRI 072355Z 29010G18KT 10SM CLR M01/M11 A2998 RMK AO2 SLP153 T10101109 10010 21011 52025
0187724096147062025010800557+40017-074600FM-15+0041KWRI V0202805N007752200059N0160935N5-00185-01145101605ADDGA1005+999999999GD10991+9999999GF100991999999999999999999MA1101595101105OC101185REMMET09501/07/25 19:55:01 METAR KWRI 080055Z 28015G23KT 10SM CLR M02/M11 A3000 RMK AO2 SLP160 T10181114
0205724096147062025010801557+40017-074600FM-15+0041KWRI V0203105N005152200059N0160935N5-00255-01135101605ADDGA1005+999999999GD10991+9999999GF100991999999999999999999MA1101595101105OC101085REMMET11301/07/25 20:55:01 METAR KWRI 080155Z 31010G21KT 10SM CLR M02/M11 A3000 RMK AO2 PK WND 30026/0055 SLP160 T10251113
0207724096147062025010802557+40017-074600FM-15+0041KWRI V0203005N006752200059N0160935N5-00295-01165101605ADDGA1005+999999999GD10991+9999999GF100991999999999999999999MA1101595101105MD1190099+9999OC101035REMMET10101/07/25 21:55:02 METAR KWRI 080255Z 30013G20KT 10SM CLR M03/M12 A3000 RMK AO2 SLP160 T10291116 51009
0203724096147062025010803557+40017-074600FM-15+0041KWRI V0203105N008252200059N0160935N5-00325-01195101645ADDGA1005+999999999GD10991+9999999GF100991999999999999999999MA1101635101135OC101185REMMET11101/07/25 22:55:02 METAR KWRI 080355Z 31016G23KT 10SM CLR M03/M12 A3001 RMK AO2 PK WND 34029/27 SLP164 T10321119
0239724096147062025010804557+40017-074600FM-15+0041KWRI V0203005N005152200059N0160935N5-00365-01255101675ADDGA1005+999999999GD10991+9999999GF100991999999999999999999KA1240M+00101KA2240N-00751MA1101665101175OC100775REMMET12101/07/25 23:55:02 METAR KWRI 080455Z 30010G15KT 10SM CLR M04/M12 A3002 RMK AO2 PK WND 31029/09 SLP167 T10361125 400101075
0234724096147062025010805557+40017-074600FM-15+0041KWRI V0203005N004652200059N0160935N5-00435-01275101705ADDGA1005+999999999GD10991+9999999GF100991999999999999999999KA1060M-00101KA2060N-00431MA1101695101205MD1290079+9999REMMET11001/08/25 00:55:02 METAR KWRI 080555Z 30009KT 10SM CLR M04/M13 A3003 RMK AO2 SLP170 T10431127 11010 21043 52007
0176724096147062025010806557+40017-074600FM-15+0041KWRI V0203005N004152200059N0160935N5-00435-01295101745ADDGA1005+999999999GD10991+9999999GF100991999999999999999999MA1101735101235REMMET09201/08/25 01:55:02 METAR KWRI 080655Z 30008KT 10SM CLR M04/M13 A3004 RMK AO2 SLP174 T10431129
0176724096147062025010807557+40017-074600FM-15+0041KWRI V0203005N004152200059N0160935N5-00485-01295101705ADDGA1005+999999999GD10991+9999999GF100991999999999999999999MA1101695101205REMMET09201/08/25 02:55:02 METAR KWRI 080755Z 30008KT 10SM CLR M05/M13 A3003 RMK AO2 SLP170 T10481129
0196724096147062025010808557+40017-074600FM-15+0041KWRI V0202905N003652200059N0160935N5-00435-01255101705ADDGA1005+999999999GD10991+9999999GF100991999999999999999999MA1101695101205MD1090009+9999REMMET09801/08/25 03:55:02 METAR KWRI 080855Z 29007KT 10SM CLR M04/M12 A3003 RMK AO2 SLP170 T10431125 50000
0176724096147062025010809557+40017-074600FM-15+0041KWRI V0203105N003652200059N0160935N5-00415-01185101645ADDGA1005+999999999GD10991+9999999GF100991999999999999999999MA1101635101135REMMET09201/08/25 04:55:02 METAR KWRI 080955Z 31007KT 10SM CLR M04/M12 A3001 RMK AO2 SLP164 T10411118
0176724096147062025010810557+40017-074600FM-15+0041KWRI V0203005N004152200059N0160935N5-00455-01175101675ADDGA1005+999999999GD10991+9999999GF100991999999999999999999MA1101665101175REMMET09201/08/25 05:55:02 METAR KWRI 081055Z 30008KT 10SM CLR M04/M12 A3002 RMK AO2 SLP167 T10451117
0245724096147062025010811557+40017-074600FM-15+0041KWRI V0203105N004652200059N0160935N5-00475-01225101705ADDGA1005+999999999GD10991+9999999GF100991999999999999999999KA1060M-00391KA2060N-00491MA1101695101205MD1390029+9999OC100775REMMET11301/08/25 06:55:02 METAR KWRI 081155Z 31009G15KT 10SM CLR M05/M12 A3003 RMK AO2 SLP170 T10471122 11039 21049 53002
0176724096147062025010812557+40017-074600FM-15+0041KWRI V0203105N006252200059N0160935N5-00405-01375101745ADDGA1005+999999999GD10991+9999999GF100991999999999999999999MA1101735101235REMMET09201/08/25 07:55:02 METAR KWRI 081255Z 31012KT 10SM CLR M04/M14 A3004 RMK AO2 SLP174 T10401137
0176724096147062025010813557+40017-074600FM-15+0041KWRI V0203005N005152200059N0160935N5-00315-01345101705ADDGA1005+999999999GD10991+9999999GF100991999999999999999999MA1101695101205REMMET09201/08/25 08:55:02 METAR KWRI 081355Z 30010KT 10SM CLR M03/M13 A3003 RMK AO2 SLP170 T10311134
0207724096147062025010814557+40017-074600FM-15+0041KWRI V0202905N006752200059N0160935N5-00225-01235101675ADDGA1005+999999999GD10991+9999999GF100991999999999999999999MA1101665101175MD1890029+9999OC101035REMMET10101/08/25 09:55:02 METAR KWRI 081455Z 29013G20KT 10SM CLR M02/M12 A3002 RMK AO2 SLP167 T10221123 58002
0203724096147062025010815557+40017-074600FM-15+0041KWRI V0203005N009852200059N0160935N5-00125-01345101575ADDGA1005+999999999GD10991+9999999GF100991999999999999999999MA1101565101065OC101345REMMET11101/08/25 10:55:02 METAR KWRI 081555Z 30019G26KT 10SM CLR M01/M13 A2999 RMK AO2 PK WND 30028/36 SLP157 T10121134
0247724096147062025010816557+40017-074600FM-15+0041KWRI V0203005N007252200059N0160935N5-00075-01395101435ADDGA1025+016765999GD11991+0167659GE19AGL   +99999+99999GF102995999999016761999999MA1101425100935OC101245REMMET11401/08/25 11:55:02 METAR KWRI 081655Z 30014G24KT 10SM FEW055 M01/M14 A2995 RMK AO2 PK WND 32033/50 SLP143 T10071139EQDD01      0ADE726
0321724096147062025010817557+40017-074600FM-15+0041KWRI V0203105N008852200059N0160935N5-00025-01355101335ADDGA1025+016765999GD11991+0167659GE19AGL   +99999+99999GF102995999999016761999999KA1060M-00011KA2060N-00491MA1101325100835MD1790369+9999OC101245OD149901591310REMMET13401/08/25 12:55:02 METAR KWRI 081755Z 31017G24KT 10SM FEW055 M00/M13 A2992 RMK AO2 PK WND 31031/1655 SLP133 T10021135 11001 21049 57036EQDD01      0ADE726
0203724096147062025010818557+40017-074600FM-15+0041KWRI V0203005N009852200059N0160935N5-00085-01375101235ADDGA1005+999999999GD10991+9999999GF100991999999999999999999MA1101225100735OC101345REMMET11101/08/25 13:55:02 METAR KWRI 081855Z 30019G26KT 10SM CLR M01/M14 A2989 RMK AO2 PK WND 30027/08 SLP123 T10081137
0203724096147062025010819557+40017-074600FM-15+0041KWRI V0203105N007752200059N0160935N5-00045-01405101165ADDGA1005+999999999GD10991+9999999GF100991999999999999999999MA1101155100665OC101135REMMET11101/08/25 14:55:02 METAR KWRI 081955Z 31015G22KT 10SM CLR M00/M14 A2987 RMK AO2 PK WND 33027/16 SLP116 T10041140
0223724096147062025010820557+40017-074600FM-15+0041KWRI V0203005N006752200059N0160935N5-00125-01475101165ADDGA1005+999999999GD10991+9999999GF100991999999999999999999MA1101155100665MD1690169+9999OC101185REMMET11701/08/25 15:55:02 METAR KWRI 082055Z 30013G23KT 10SM CLR M01/M15 A2987 RMK AO2 PK WND 33026/47 SLP116 T10121147 56016
