0251724090147802024020315007+40033-074350FM-15+0031KNEL V0209999N99999009755MN9999999N5+00445-00285101815ADDGA1075+009755999GD13991+0097559GE19AGL   +99999+99999GF199999999999009751999999MA1101835101465MD1190149+9999REMMET11202/03/24 10:00:02 METAR KNEL 031500Z      KT BKN032 04/M03 A3007 RMK SLP181 6//// T00441028 51014 PNO $ RTX FIBIEQDR01   PNO7AAP062
0282724090147802024020412007+40033-074350FM-15+0031KNEL V0209999C000052200059N9999999N5-00335-00615101695ADDAA124999919GA1005+999999999GD10991+9999999GF100991999999999999999999KA1060M-00171KA2060N-00391MA1101695101325MD1190019+9999REMMET12802/04/24 07:00:02 METAR KNEL 041200Z 00000KT CLR M03/M06 A3003 RMK SLP169 6//// 7//// T10331061 11017 21039 51001 PNO $ RTX FIBIEQDR01   PNO7AAP062
0253724090147802024020512007+40033-074350FM-15+0031KNEL V0209999C000052200059N9999999N5-00445-00675101305ADDGA1005+999999999GD10991+9999999GF100991999999999999999999KA1060M-00171KA2060N-00501MA1101325100955MD1390079+9999REMMET12902/05/24 07:00:02 METAR KNEL 051200Z 00000KT CLR M04/M07 A2992 RMK SLP130 6//// 7///// T10441067 11017 21050 53007 PN0 $ RTX FIBI
0200724090147802024020513007+40033-074350FM-15+0031KNEL V0209999V001552200059N9999999N5+00005-00565101355ADDGA1005+999999999GD10991+9999999GF100991999999999999999999MA1101355100985REMMET09702/05/24 08:00:02 METAR KNEL 051300Z VRB03KT CLR 00/M06 A2993 RMK SLP135 T00001056 PNO $ RTX FIBIEQDR01   PNO7AAP062
0200724090147802024020514007+40033-074350FM-15+0031KNEL V0209999V002652200059N9999999N5+00225-00675101375ADDGA1005+999999999GD10991+9999999GF100991999999999999999999MA1101395101025REMMET09702/05/24 09:00:02 METAR KNEL 051400Z VRB05KT CLR 02/M07 A2994 RMK SLP137 T00221067 PNO $ RTX FIBIEQDR01   PNO7AAP062
0264724090147802024020515007+40033-074350FM-15+0031KNEL V0200505N003152200059N9999999N5+00407-00807999999ADDGA1005+999999999GD10991+9999999MA1101395101025MD1190099+9999REMMET10902/05/24 10:00:02 METAR KNEL 051500Z 05006KT CLR 04/M08 A2994 RMK AO2 SLP 139 6//// TOO441078 51009 PNO $ RTXEQDR01    047TMP046R02   M087DPT046R03   PNO7AAP062D01      0ADE693D02      0ADE539
0200724090147802024020516007+40033-074350FM-15+0031KNEL V0200205N003152200059N9999999N5+00565-00835101385ADDGA1005+999999999GD10991+9999999GF100991999999999999999999MA1101395101025REMMET09702/05/24 11:00:02 METAR KNEL 051600Z 02006KT CLR 06/M08 A2994 RMK SLP138 T00561083 PNO $ RTX FIBIEQDR01   PNO7AAP062
0185724090147802024020517007+40033-074350FM-15+0031KNEL V0203505N003652200059N9999999N5+00675-00945101325ADDGA1005+999999999GD10991+9999999MA1101325100955REMMET09202/05/24 12:00:02 METAR KNEL 051700Z 35007KT CLR 07/M09 A2992 RMK AO2 SLP132 T00671094 PNO $EQDR01   PNO7AAP062D01      0ADE693
0259724090147802024020518007+40033-074350FM-15+0031KNEL V0209999V003152200059N9999999N5+00725-00835101265ADDGA1005+999999999GD10991+9999999GF100991999999999999999999KA1060M+00781KA2060N-00441MA1101295100915MD1890059+9999REMMET11602/05/24 13:00:01 METAR KNEL 051800Z VRB06KT CLR 07/M08 A2991 RMK AO2 SLP126 6//// T00721083 10078 21044 58005 PNO $EQDR01   PNO7AAP062
0192724090147802024020613007+40033-074350FM-15+0031KNEL V0203605N001552200059N9999999N5-00175-00945102115ADDGA1005+999999999GD10991+9999999GF100991999999999999999999MA1102135101765REMMET08902/06/24 08:00:02 METAR KNEL 061300Z 36003KT CLR M02/M09 A3016 RMK SLP211 T10171094 PNO $EQDR01   PNO7AAP062
0195724090147802024020614007+40033-074350FM-15+0031KNEL V0209999V002652200059N9999999N5+00115-00835102155ADDGA1005+999999999GD10991+9999999GF100991999999999999999999MA1102175101795REMMET09202/06/24 09:00:02 METAR KNEL 061400Z VRB05KT CLR 01/M08 A3017 RMK SLP215 T00111083 PNO $ RTXEQDR01   PNO7AAP062
0209724090147802024020615007+40033-074350FM-15+0031KNEL V0200605N004652200059N9999999N5+00225-00785102195ADDGA1005+999999999GD10991+9999999GF100991999999999999999999MA1102205101835MD1190189+9999OC100775REMMET10302/06/24 10:00:02 METAR KNEL 061500Z 06009G15KT CLR 02/M08 A3018 RMK SLP219 6//// T00221078 51018 $ RTX
0133724090147802024020616004+40033-074353FM-15+003199999V0209999V003112200019N999999999+00391-00721102191ADDGF100991999999999999999999MA1102201999999REMMET080METAR KNEL 061600Z VRB06KT CLR 04/M07 A3018 RMK SLP219 T00391072 PNO $ RTX FIBI=
0204724090147802024020617007+40033-074350FM-15+0031KNEL V0209999V003152200059N9999999N5+00565-00785102095ADDGA1005+999999999GD10991+9999999GF100991999999999999999999MA1102105101735REMMET10102/06/24 12:00:02 METAR KNEL 061700Z VRB06KT CLR 06/M08 A3015 RMK AO2 SLP209 T00561078 PNO $ RTX FIBIEQDR01   PNO7AAP062
0266724090147802024020618007+40033-074350FM-15+0031KNEL V0200405V004152200059N9999999N5+00565-00785102075ADDGA1005+999999999GD10991+9999999GF100991999999999999999999KA1060M+00611KA2060N-00561MA1102075101695MD1890069+9999OC100775REMMET11502/06/24 13:00:02 METAR KNEL 061800Z 04008G15KT CLR 06/M08 A3014 RMK SLP207 6//// T00561078 10061 21056 58006 PNO $EQDR01   PNO7AAP062
0217724090147802024020714557+40033-074350FM-15+0031KNEL V0209999V002152200059N9999999N5+00505-00335102675ADDGA1005+999999999GD10991+9999999GF100991999999999999999999MA1102685102305MD1090139+9999REMMET10002/07/24 09:55:02 METAR KNEL 071455Z VRB04KT CLR 05/M03 A3032 RMK SLP267 6//// T00501033 50013 PNO $EQDR01   PNO7AAP062
0191724090147802024020715587+40033-074350FM-15+0031KNEL V0209999V001552200059N9999999N5+00615-00335102665ADDGA1005+999999999GD10991+9999999GF100991999999999999999999MA1102685102305REMMET08802/07/24 10:58:02 METAR KNEL 071558Z VRB03KT CLR 06/M03 A3032 RMK SLP266 T00611033 PNO $EQDR01   PNO7AAP062
0176724090147802024020717007+40033-074350FM-15+0031KNEL V0209999N999992200059N9999999N5+00725-00395102595ADDGA1005+999999999GD10991+9999999GF100991999999999999999999MA1102575102205REMMET09202/07/24 12:00:02 METAR KNEL 071700Z      KT CLR 07/M04 A3029 RMK SLP259 T00721039 RNO $ RTX
0255724090147802024020718007+40033-074350FM-15+0031KNEL V0209999V003152200059N9999999N5+00895-00395102445ADDGA1005+999999999GD10991+9999999GF100991999999999999999999KA1060M+00891KA2060N-00221MA1102475102105MD1890069+9999REMMET11202/07/24 13:00:02 METAR KNEL 071800Z VRB06KT CLR 09/M04 A3026 RMK SLP244 6//// T00891039 10089 21022 58006 PNO $EQDR01   PNO7AAP062
0195724090147802024020817007+40033-074350FM-15+0031KNEL V0202705N004152200059N9999999N5+01175-00285102545ADDGA1005+999999999GD10991+9999999GF100991999999999999999999MA1102545102165REMMET09202/08/24 12:00:02 METAR KNEL 081700Z 27008KT CLR 12/M03 A3028 RMK SLP254 T01171028 PNO $ RTXEQDR01   PNO7AAP062
0259724090147802024020818007+40033-074350FM-15+0031KNEL V0209999V002652200059N9999999N5+01225-00335102465ADDGA1005+999999999GD10991+9999999GF100991999999999999999999KA1060M+01221KA2060N-00441MA1102475102105MD1890159+9999REMMET11602/08/24 13:00:02 METAR KNEL 081800Z VRB05KT CLR 12/M03 A3026 RMK SLP246 6//// T01221033 10122 21044 58015 PNO $ RTXEQDR01   PNO7AAP062
0191724090147802024020819007+40033-074350FM-15+0031KNEL V0209999C000052200059N9999999N5+01285-00335102385ADDGA1005+999999999GD10991+9999999GF100991999999999999999999MA1102405102035REMMET08802/08/24 14:00:02 METAR KNEL 081900Z 00000KT CLR 13/M03 A3024 RMK SLP238 T01281033 PNO $EQDR01   PNO7AAP062
0322724090147802024021212007+40033-074350FM-15+0031KNEL V0209999C00005024385MN9999999N5+00066-00065101365ADDAA124999919GA1085+024385999GD14991+0243859GE19AGL   +99999+99999GF199999999999024381999999KA1060M+00561KA2060N-00061MA1101395101025MD1390099+9999REMMET13002/12/24 07:00:02 METAR KNEL 121200Z 00000KT OVC080 01/M01 A2994 RMK SLP136 6//// 7//// T00061006 10056 21006 53009 PNO $ RTX FIBIEQDR01  00067TMP028R02   PNO7AAP062
0254724090147802024021218007+40033-074350FM-15+0031KNEL V0209999C000052200059N9999999N5+00945+00005101065ADDGA1005+999999999GD10991+9999999GF100991999999999999999999KA1060M+01001KA2060N+00061MA1101085100715MD1690189+9999REMMET11102/12/24 13:00:02 METAR KNEL 121800Z 00000KT CLR 09/00 A2985 RMK SLP106 6//// T00940000 10100 20006 56018 PNO $EQDR01   PNO7AAP062
0289724090147802024021221007+40033-074350FM-15+0031KNEL V0209999C00005015245MN9999999N5+00895+00225999999ADDGA1075+015245999GA2085+021345999GD13991+0152459GD24991+0213459GE19AGL   +99999+99999GF199999999999015241999999MA1101025100645MD1690259+9999REMMET11902/12/24 16:00:02 METAR KNEL 122100Z 00000KT BKN050 OVC070 09/02 A2983 RMK SLP 099 6//// T00890022 56025 PNO $ RTX FIBIEQDR01   PNO7AAP062
0219724090147802024021222007+40033-074350FM-15+0031KNEL V0201505N00265018295MN9999999N5+00785+00225101015ADDGA1085+018295999GD14991+0182959GE19AGL   +99999+99999GF199999999999018291999999MA1101025100645REMMET09402/12/24 17:00:02 METAR KNEL 122200Z 15005KT OVC060 08/02 A2983 RMK SLP101 T00780022 PNO $ RTXEQDR01   PNO7AAP062
0257724090147802024021223007+40033-074350FM-15+0031KNEL V0201105N00265018295MN9999999N5+00675+00225100995ADDGA1075+018295999GA2085+025915999GD13991+0182959GD24991+0259159GE19AGL   +99999+99999GF199999999999018291999999MA1101025100645REMMET10102/12/24 18:00:02 METAR KNEL 122300Z 11005KT BKN060 OVC085 07/02 A2983 RMK SLP099 T00670022 PNO $ RTXEQDR01   PNO7AAP062
0255724090147802024021400007+40033-074350FM-15+0031KNEL V0209999C000052200059N9999999N5+00005-00225100825ADDGA1005+999999999GD10991+9999999GF100991999999999999999999KA1060M+00441KA2060N-00061MA1100855100485MD1190399+9999REMMET11202/13/24 19:00:01 METAR KNEL 140000Z 00000KT CLR 00/M02 A2978 RMK SLP082 6//// T00001022 10044 21006 51039 PNO $EQDR01   PNO7AAP062
0265724090147802024021416007+40033-074350FM-15+0031KNEL V0202905N010852200059N9999999N5+00285-00945101775ADDGA1005+999999999GD10991+9999999MA1101795101425OC199999OD149901441290REMMET11802/14/24 11:00:02 METAR KNEL 141600Z 29021G8KT  CLR 03/M09 A3006 RMK PK WND 29028/1554 SLP177 T00281094 PNO $ RTX FIBIEQDQ01  00772WGOSPDR01   PNO7AAP062R02  G8KT7OCW039D01      0ADE693
0202724090147802024021422007+40033-074350FM-15+0031KNEL V0203005N004652200059N9999999N5+00285-01115101845ADDGA1005+999999999GD10991+9999999GF100991999999999999999999MA1101595101225OC100985REMMET09102/14/24 17:00:02 METAR KNEL 142200Z 30009G19KT CLR 03/M11 A3000 RMK SLP184 T00281111 PNO $EQDR01   PNO7AAP062
0257724090147802024021500007+40033-074350FM-15+0031KNEL V0209999C000052200059N9999999N5-00115-01005102015ADDGA1005+999999999GD10991+9999999GF100991999999999999999999KA1060M+00391KA2060N-00111MA1102035101665MD1390229+9999REMMET11402/14/24 19:00:01 METAR KNEL 150000Z 00000KT CLR M01/M10 A3013 RMK SLP201 6///// T10111100 10039 21011 53022 PNO $EQDR01   PNO7AAP062
0275724090147802024021518007+40033-074350FM-15+0031KNEL V0202205N003152200059N9999999N5+00395-01115101905ADDGA1005+999999999GD10991+9999999GF100991999999999999999999KA1060M+00441KA2060N-00721MA1101905101525MD1890239+9999REMMET13202/15/24 13:00:02 METAR KNEL 151800Z 22006KT CLR 04/M11 A3009 RMK AO2 PRESFR SLP190 6//// T00391111 10044 21072 58023 PNO $ RTX FIBIEQDR01   PNO7AAP062
0204724090147802024021520007+40033-074350FM-15+0031KNEL V0202105N002652200059N9999999N5+00565-01065101545ADDGA1005+999999999GD10991+9999999GF100991999999999999999999MA1101565101195REMMET10102/15/24 15:00:02 METAR KNEL 152000Z 21005KT CLR 06/M11 A2999 RMK AO2 SLP154 T00561106 PNO $ RTX FIBIEQDR01   PNO7AAP062
0229724090147802024021601007+40033-074350FM-15+0031KNEL V0201905N00265027435MN9999999N5+00175-00395101135ADDGA1075+027435999GD13991+0274359GE19AGL   +99999+99999GF199999999999027431999999MA1101155100785REMMET10402/15/24 20:00:01 METAR KNEL 160100Z 19005KT BKN090 02/M04 A2987 RMK AO2 SLP113 T00171039 PNO $ RTX FIBIEQDR01   PNO7AAP062
0200724090147802024022017007+40033-074350FM-15+0031KNEL V0201005V003652200059N9999999N5+00335-00895103255ADDGA1005+999999999GD10991+9999999GF100991999999999999999999MA1103255102875REMMET09702/20/24 12:00:02 METAR KNEL 201700Z 10007KT CLR 03/M09 A3049 RMK SLP325 T00331089 PNO $ RTX FIBIEQDR01   PNO7AAP062
0185724090147802024022019007+40033-074350FM-15+0031KNEL V0209999N999992200059N9999999N5+00445-00895103135ADDGA1005+999999999GD10991+9999999MA1103155102775REMMET09202/20/24 14:00:02 METAR KNEL 201900Z      KT CLR 04/M09 A3046 RMK SLP313 T00441089 PNO $ RTXEQDR01   PNO7AAP062D01      0ADE693
0201724090147802024022020007+40033-074350FM-15+0031KNEL V0200605N004652200059N9999999N5+00445-00835999999ADDGA1005+999999999GD10991+9999999GF100991999999999999999999MA1103125102745REMMET09802/20/24 15:00:02 METAR KNEL 202000Z 06009KT CLR 04/M08 A3045 RMK SLP 310 T00441083 PNO $ RTX FIBIEQDR01   PNO7AAP062
0294724090147802024022222007+40033-074350FM-15+0031KNEL V0201505N00415028965MN9999999N5+00607+00107100955ADDGA1075+028965999GA2085+036585999GD13991+0289659GD24991+0365859GE19AGL   +99999+99999GF199999999999028961999999MA1100955100585REMMET10602/22/24 17:00:01 METAR KNEL 222200Z 15008KT BKN095 OVC120 06/01 A2981 RMK SLP095 TOO560006 PNO $ RTX FIBIEQDR01    067TMP046R02    017DPT046R03   PNO7AAP062
0231724090147802024022714007+40033-074350FM-15+0031KNEL V0201505N002152200059N9999999N5+00895+00615101615ADDGA1025+030485999GD11991+0304859GE19AGL   +99999+99999GF102995999999030481999999MA1101635101255REMMET09002/27/24 09:00:02 METAR KNEL 271400Z 15004KT FEW100 09/06 A3001 RMK SLP161 T00890061 PNO $EQDR01   PNO7AAP062D01      0ADE726
0311724090147802024022800007+40033-074350FM-15+0031KNEL V0201905N00575022865MN9999999N5+01285+01065101245ADDAU110020015AW1615GA1085+022865999GD14991+0228659GE19AGL   +99999+99999GF199999999999022861999999KA1060M+02001KA2060N+01281MA1101255100885MW1615OC100935REMMET12902/27/24 19:00:01 METAR KNEL 280000Z 19011G18KT -RA OVC075 13/11 A2990 RMK SLP124 6//// T01280106 10200 20128 5300 PNO $ RTX FIBIEQDR01   PNO7AAP062
001572409014780202402280459O+40033-074350SOD  +0031KNEL V020999999999999999999999999999+99999+99999999999ADDAT1AU16RA  5
0198724090147802024022811197+40033-074350FM-16+0031KNEL V0201805N00465009145MN9999999N5+01285+01175999999ADDGA1085+009145999GD14991+0091459GE19AGL   +99999+99999GF199999999999009141999999MA1100645100275REMMET09202/28/24 06:19:02 SPECI KNEL 281119Z 18009KT OVC030 13/12 A2972 RMK T01280117 PNO $ RTX FIBI
0238724090147802024022811387+40033-074350FM-16+0031KNEL V0201805N00515008845MN9999999N5+01335+01175999999ADDGA1025+003055999GA2085+008845999GD11991+0030559GD24991+0088459GE19AGL   +99999+99999GF199999999999003051999999MA1100685100315OC101295REMMET09302/28/24 06:38:02 SPECI KNEL 281138Z 18010G25KT FEW010 OVC029 13/12 A2973 RMK T01330117 PNO $
0321724090147802024022822007+40033-074350FM-15+0031KNEL V0202305N00775010065MN9999999N5+01615+01285100235ADDAU110020015AW1615GA1075+010065999GA2085+018295999GD13991+0100659GD24991+0182959GE19AGL   +99999+99999GF199999999999010061999999MA1100245099875MW1615OC101755REMMET13402/28/24 17:00:02 METAR KNEL 282200Z 23015G34KT -RA BKN033 OVC060 16/13 A2960 RMK PK WND 23034/2158 RAB2143 SLP023 T01610128 PNO $ RTXEQDR01   PNO7AAP062
0279724090147802024022823007+40033-074350FM-15+0031KNEL V0201805N00575033535MN9999999N5+01565+01335100115ADDGA1025+007925999GA2085+033535999GD11991+0079259GD24991+0335359GE19AGL   +99999+99999GF199999999999007921999999MA1100145099775OC101085REMMET11502/28/24 18:00:02 METAR KNEL 282300Z 18011G21KT FEW026 OVC110 16/13 A2957 RMK RAE00 SLP011 T01560133 PNO $ RTX FIBIEQDR01   PNO7AAP062
001572409014780202402290459O+40033-074350SOD  +0031KNEL V020999999999999999999999999999+99999+99999999999ADDAT1AU16RA  5
0181724090147802024022910004+40033-074353FM-15+003199999V0203001N006212200019N999999999+00061-00941102041ADDGF100991999999999999999999MA1102071999999OC101541OD149901541280REMMET106METAR KNEL 291000Z AUTO 30012G30KT CLR 01/M09 A3014 RMK PK WND 28030/0954 SLP204 T00061094 PNO $ RTX FIBI=
0128724090147802024022923004+40033-074353FM-15+003199999V0202901N004612200019N999999999+00331-01001102731ADDGF100991999999999999999999MA1102741999999REMMET075METAR KNEL 292300Z 29009KT CLR 03/M10 A3034 RMK SLP273 T00331100 PNO $ RTX=
0172724090147802024030116007+40033-074350FM-15+0031KNEL V0209999V001552200059N9999999N5+00675-01005103785ADDGA1005+999999999GD10991+9999999GF100991999999999999999999MA1103795103415REMMET08803/01/24 11:00:01 METAR KNEL 011600Z VRB03KT CLR 07/M10 A3065 RMK SLP378 T00671100 PN0 $
0199724090147802024030411007+40033-074350FM-15+0031KNEL V0209999V001552200059N9999999N5+00395+00335102635ADDGA1005+999999999GD10991+9999999GF100991999999999999999999MA1102645102275REMMET09603/04/24 06:00:02 METAR KNEL 041100Z VRB03KT CLR 04/03 A3031 RMK SLP263 T00390033 PNO $ RTX FIBIEQDR01   PNO7AAP062
0223724090147802024030514007+40033-074350FM-15+0031KNEL V0200705N00725002135MN9999999N5+00675+00565102085ADDGA1085+002135999GD14991+0021359GE19AGL   +99999+99999GF199999999999002131999999MA1102105101735REMMET11703/05/24 09:00:02 METAR KNEL 051400Z 07014KT OVC007 07/06 A3015 RMK RAE1303B1320E1357 SLP208 T00670056 PN0 $ RTX FIBI
0301724090147802024030515007+40033-074350FM-15+0031KNEL V0200615999999001835MN9999999N5+00675+00565101965ADDGA1075+001835999GA2085+003055999GD13991+0018359GD24991+0030559MA1101965101595MD1690129+9999OD149901331050REMMET14903/05/24 10:00:02 METAR KNEL 051500Z 061  KT BKN006 OVC010 07/06 A3011 RMK PK WND 05026/1429 RAB1423E1442 SLP196 6//// T00670056 56012 PNO $ RTX FIBIEQDR01   PNO7AAP062D01      0ADE693
0275724090147802024030516007+40033-074350FM-15+0031KNEL V0200705N00885002135MN9999999N5+00785+00675101885ADDAU110020015AW1615GA1085+002135999GD14991+0021359GE19AGL   +99999+99999GF199999999999002131999999MA1101905101525MW1615OC101135REMMET11903/05/24 11:00:02 METAR KNEL 051600Z 07017G22KT -RA OVC007 08/07 A3009 RMK RAB1508E1518B1535 SLP188 T00780067 PNO $ RTXEQDR01   PNO7AAP062
0227724090147802024030517007+40033-074350FM-15+0031KNEL V0200505N00675001525MN9999999N5+00835+00725101715ADDGA1085+001525999GD14991+0015259GE19AGL   +99999+99999GF199999999999001521999999MA1101735101355REMMET10203/05/24 12:00:02 METAR KNEL 051700Z 05013KT OVC005 08/07 A3004 RMK RAE1605 SLP171 T00830072 PNO $ RTXEQDR01   PNO7AAP062
001572409014780202403060459O+40033-074350SOD  +0031KNEL V020999999999999999999999999999+99999+99999999999ADDAT1AU16RA  5
0215724090147802024030614007+40033-074350FM-15+0031KNEL V0201205N00315000915MN9999999N5+00945+00835101755ADDGA1085+000915999GD14991+0009159GE19AGL   +99999+99999GF199999999999000911999999MA1101765101395REMMET09003/06/24 09:00:02 METAR KNEL 061400Z 12006KT OVC003 09/08 A3005 RMK SLP175 T00940083 PNO $EQDR01   PNO7AAP062
0222724090147802024030619307+40033-074350FM-16+0031KNEL V0200405N00215001525MN9999999N5+00945+00835999999ADDAU130020015AW1635GA1085+001525999GD14991+0015259GE19AGL   +99999+99999GF199999999999001521999999MA1101395101025MW1635MW2651REMMET08703/06/24 14:30:02 SPECI KNEL 061930Z 04004KT +RA OVC005 09/08 A2994 RMK T00940083 PNO $
001572409014780202403070459O+40033-074350SOD  +0031KNEL V020999999999999999999999999999+99999+99999999999ADDAT1AU16RA  5
0226724090147802024030815007+40033-074350FM-15+0031KNEL V0200605N004152200059N9999999N5+00835-00065102585ADDGA1005+999999999GD10991+9999999GF100991999999999999999999MA1102615102235MD1390119+9999REMMET10903/08/24 10:00:02 METAR KNEL 081500Z 06008KT CLR 08/M01 A3030 RMK SLP258 6//// T00831006 53011 PNO $ RTX FIBIEQDR01   PNO7AAP062
0175724090147802024031310007+40033-074350FM-15+0031KNEL V0209999C000052200059N9999999N5+00205+00105101225ADDGA1005+999999999GD10991+9999999GF100991999999999999999999MA1101255100885REMMET09103/13/24 05:00:01 METAR KNEL 131000Z 00000KT CLR 02/01 A2990 RMK SLP122 T0020006 $ RTX FIBI
0220724090147802024031814007+40033-074350FM-15+0031KNEL V0202905N008852200059N9999999N5+00785-00505100735ADDGA1005+999999999GD10991+9999999GF100991999999999999999999MA1100755100375OC101345OD149901331300REMMET11403/18/24 09:00:02 METAR KNEL 181400Z 29017G26KT CLR 08/M05 A2975 RMK PK WND 30026/1400 SLP073 T00781050 $ RTX FIBI
0247724090147802024031815007+40033-074350FM-15+0031KNEL V0202905N006252200059N9999999N5+00835-00505100735ADDGA1045+015245999GD12991+0152459GE19AGL   +99999+99999GF104995999999015241999999MA1100755100375MD1390019+9999OC101085REMMET10003/18/24 10:00:02 METAR KNEL 181500Z 29012G21KT SCT050 08/M05 A2975 RMK SLP073 T00831050 53001 $ RTXEQDD01      0ADE726
0189724090147802024032110007+40033-074350FM-15+0031KNEL V0202905N006752200059N9999999N5-00115-01395101745ADDGA1005+999999999GD10991+9999999GF100991999999999999999999MA1101765101395OC101085REMMET09703/21/24 05:00:02 METAR KNEL 211000Z 29013G21KT CLR M01/M14 A3005 RMK SLP174 T10111139 $ RTX FIBI
0232724090147802024032810006+40033-074350FM-15+0031KNEL V0200905N00365001225MN9999999N5+00835+00726101365ADDAU110020015AW1615GA1085+001225999GD14991+0012259MA1101395101025MW1615REMMET11603/28/24 05:00:01 METAR KNEL 281000Z 09007KT -RA OVC004 08/07 A2994 RMK RAE0929B0954 SLP136 T00830072 PNO $ RTX FIBIEQDR01  00727DPT033R02   PNO7AAP062
0204724090147802024032811006+40033-074350FM-15+0031KNEL V0209999C00005001225MN9999999N5+00835+00785101495ADDAU110020015AW1615GA1085+001225999GD14991+0012259MA1101495101125MW1615REMMET10403/28/24 06:00:02 METAR KNEL 281100Z 00000KT -RA OVC004 08/08 A2997 RMK SLP149 T00830078 PNO $ RTX FIBI.EQDR01   PNO7AAP062
0172724090147802024032811326+40033-074350FM-16+0031KNEL V0201205N00215001525MN9999999N5+00835+00785999999ADDAU110020015AW1615GA1085+001525999GD14991+0015259MA1101525101155MW1615REMMET09103/28/24 06:32:02 SPECI KNEL 281132Z 12004KT -RA OVC005 08/08 A2998 RMK T00830078 PNO $ RTX
001572409014780202403290459O+40033-074350SOD  +0031KNEL V020999999999999999999999999999+99999+99999999999ADDAT1AU16RA  5
0224724090147802024040411007+40033-074350FM-15+0031KNEL V0203005N00315014635MN9999999N5+00335+00225099365ADDGA1085+014635999GD14991+0146359GE19AGL   +99999+99999GF199999999999014631999999MA1099395099025REMMET09904/04/24 06:00:02 METAR KNEL 041100Z 30006KT OVC048 03/02 A2935 RMK SLP936 T00330022 PNO $ RTX FIBIEQDR01   PNO7AAP062
0172724090147802024041622007+40033-074350FM-15+0031KNEL V0201705V004659999999N9999999N5+02176+00065101885ADDMA1101905101525OC100725REMMET08604/16/24 17:00:02 METAR KNEL 162200Z 17009G14KT 22/01 A3009 RMK AO2 SLP188 T02170006 $EQDR01      7SKY009R02  02177TMP028R03      7GAS009
0171724090147802024041623007+40033-074350FM-15+0031KNEL V0201605N004652200059N9999999N5+01675+00225101925ADDGA1005+999999999GD10991+9999999GF100991999999999999999999MA1101935101565REMMET08704/16/24 18:00:02 METAR KNEL 162300Z 16009KT CLR 17/02 A3010 RMK AO2 SLP192 T01670022 $
0171724090147802024041701007+40033-074350FM-15+0031KNEL V0201805N002652200059N9999999N5+01335+00175102075ADDGA1005+999999999GD10991+9999999GF100991999999999999999999MA1102075101695REMMET08704/16/24 20:00:01 METAR KNEL 170100Z 18005KT CLR 13/02 A3014 RMK AO2 SLP207 T01330017 $
0171724090147802024041703007+40033-074350FM-15+0031KNEL V0202005N002152200059N9999999N5+01225+00175102105ADDGA1005+999999999GD10991+9999999GF100991999999999999999999MA1102135101765REMMET08704/16/24 22:00:01 METAR KNEL 170300Z 20004KT CLR 12/02 A3016 RMK AO2 SLP210 T01220017 $
0171724090147802024041704007+40033-074350FM-15+0031KNEL V0209999C000052200059N9999999N5+01175+00175102095ADDGA1005+999999999GD10991+9999999GF100991999999999999999999MA1102135101765REMMET08704/16/24 23:00:01 METAR KNEL 170400Z 00000KT CLR 12/02 A3016 RMK AO2 SLP209 T01170017 $
0207724090147802024041705007+40033-074350FM-15+0031KNEL V0209999C000052200059N9999999N5+00945+00175102105ADDGA1005+999999999GD10991+9999999GF100991999999999999999999KA1240M+00941KA2240N+00941MA1102135101765REMMET09704/17/24 00:00:01 METAR KNEL 170500Z 00000KT CLR 09/02 A3016 RMK AO2 SLP210 T00940017 400940094 $
0209724090147802024041706007+40033-074350FM-15+0031KNEL V0209999C000052200059N9999999N5+00785+00285102035ADDGA1005+999999999GD10991+9999999GF100991999999999999999999KA1060M+01441KA2060N+00721MA1102075101695REMMET09904/17/24 01:00:01 METAR KNEL 170600Z 00000KT CLR 08/03 A3014 RMK AO2 SLP203 T00780028 10144 20072 $
0171724090147802024041707007+40033-074350FM-15+0031KNEL V0209999C000052200059N9999999N5+00675+00285102065ADDGA1005+999999999GD10991+9999999GF100991999999999999999999MA1102075101695REMMET08704/17/24 02:00:01 METAR KNEL 170700Z 00000KT CLR 07/03 A3014 RMK AO2 SLP206 T00670028 $
0171724090147802024041708007+40033-074350FM-15+0031KNEL V0209999C000052200059N9999999N5+00615+00285102105ADDGA1005+999999999GD10991+9999999GF100991999999999999999999MA1102105101735REMMET08704/17/24 03:00:01 METAR KNEL 170800Z 00000KT CLR 06/03 A3015 RMK AO2 SLP210 T00610028 $
0191724090147802024041709007+40033-074350FM-15+0031KNEL V0209999C000052200059N9999999N5+00565+00285102115ADDGA1005+999999999GD10991+9999999GF100991999999999999999999MA1102135101765MD1590019+9999REMMET09304/17/24 04:00:02 METAR KNEL 170900Z 00000KT CLR 06/03 A3016 RMK AO2 SLP211 T00560028 55001 $
0171724090147802024041710007+40033-074350FM-15+0031KNEL V0209999C000052200059N9999999N5+00445+00285102095ADDGA1005+999999999GD10991+9999999GF100991999999999999999999MA1102105101735REMMET08704/17/24 05:00:02 METAR KNEL 171000Z 00000KT CLR 04/03 A3015 RMK AO2 SLP209 T00440028 $
0171724090147802024041711007+40033-074350FM-15+0031KNEL V0209999C000052200059N9999999N5+00675+00445102095ADDGA1005+999999999GD10991+9999999GF100991999999999999999999MA1102105101735REMMET08704/17/24 06:00:01 METAR KNEL 171100Z 00000KT CLR 07/04 A3015 RMK AO2 SLP209 T00670044 $
0247724090147802024041712007+40033-074350FM-15+0031KNEL V0209999C000052200059N9999999N5+01005+00615999999ADDGA1005+999999999GD10991+9999999GF100991999999999999999999KA1060M+01001KA2060N+00441MA1102135101765MD1890009+9999REMMET10404/17/24 07:00:01 METAR KNEL 171200Z 00000KT CLR 10/06 A3016 RMK AO2 SLPNO T01000061 10100 20044 58000 $EQDQ018     3APCTEN
0171724090147802024041713007+40033-074350FM-15+0031KNEL V0200305N001552200059N9999999N5+01565+00505102065ADDGA1005+999999999GD10991+9999999GF100991999999999999999999MA1102105101735REMMET08704/17/24 08:00:02 METAR KNEL 171300Z 03003KT CLR 16/05 A3015 RMK AO2 SLP206 T01560050 $
0171724090147802024041714007+40033-074350FM-15+0031KNEL V0200805N001552200059N9999999N5+01895+00505102045ADDGA1005+999999999GD10991+9999999GF100991999999999999999999MA1102075101695REMMET08704/17/24 09:00:01 METAR KNEL 171400Z 08003KT CLR 19/05 A3014 RMK AO2 SLP204 T01890050 $
0145724090147802024041715006+40033-074350FM-15+0031KNEL V0201405N002159999999N9999999N5+01895+00445102005ADDMA1102035101665REMMET08304/17/24 10:00:02 METAR KNEL 171500Z 14004KT 19/04 A3013 RMK AO2 SLP200 T01890044 $EQDR01      7SKY009R02      7GAS009
0224724090147802024041716006+40033-074350FM-15+0031KNEL V0201005N00465021345MN9999999N5+01945+00675101935ADDGA1045+013415999GA2075+021345999GA3075+025915999GD12991+0134159GD23991+0213459GD33991+0259159MA1101965101595REMMET10404/17/24 11:00:02 METAR KNEL 171600Z 10009KT SCT044 BKN070 BKN085 19/07 A3011 RMK AO2 SLP193 T01940067 $
0224724090147802024041717006+40033-074350FM-15+0031KNEL V0201005N00465014635MN9999999N5+01785+00615101895ADDGA1025+012505999GA2075+014635999GA3075+021345999GD11991+0125059GD23991+0146359GD33991+0213459MA1101905101525REMMET10404/17/24 12:00:01 METAR KNEL 171700Z 10009KT FEW041 BKN048 BKN070 18/06 A3009 RMK AO2 SLP189 T01780061 $
0160724090147802024041718006+40033-074350FM-15+0031KNEL V0200905N00415013415MN9999999N5+01615+00615101925ADDGA1085+013415999GD14991+0134159MA1101935101565REMMET10204/17/24 13:00:02 METAR KNEL 171800Z 09008KT OVC044 16/06 A3010 RMK AO2 SLP192 T01610061 10200 20100 $
0238724090147802024041719006+40033-074350FM-15+0031KNEL V0201105N00415030485MN9999999N5+01395+00565101805ADDAA101000021AU110020015AW1615GA1025+021345999GA2085+030485999GD11991+0213459GD24991+0304859MA1101835101465MW1615REMMET11504/17/24 14:00:01 METAR KNEL 171900Z 11008KT -RA FEW070 OVC100 14/06 A3007 RMK AO2 RAB1848 SLP180 P0000 T01390056 $
0223724090147802024041719446+40033-074350FM-16+0031KNEL V0201105N00215008235MN9999999N5+01225+00785999999ADDGA1045+006105999GA2075+008235999GA3085+033535999GD12991+0061059GD23991+0082359GD34991+0335359MA1101835101465REMMET10304/17/24 14:44:02 SPECI KNEL 171944Z 11004KT SCT020 BKN027 OVC110 12/08 A3007 RMK AO2 P0000 T01220078 $
0165724090147802024041720006+40033-074350FM-15+0031KNEL V0201205N00265005495MN9999999N5+01225+00725101805ADDAA101000021GA1085+005495999GD14991+0054959MA1101835101465REMMET09604/17/24 15:00:02 METAR KNEL 172000Z 12005KT OVC018 12/07 A3007 RMK AO2 SLP180 P0000 T01220072 $
0165724090147802024041721006+40033-074350FM-15+0031KNEL V0201005N00515004575MN9999999N5+01225+00785101625ADDAA103000021GA1085+004575999GD14991+0045759MA1101635101255REMMET09604/17/24 16:00:02 METAR KNEL 172100Z 10010KT OVC015 12/08 A3001 RMK AO2 SLP162 60000 T01220078 $
0186724090147802024041722006+40033-074350FM-15+0031KNEL V0201005N00365004275MN9999999N5+01225+00785101665ADDGA1075+004275999GA2085+007015999GD13991+0042759GD24991+0070159MA1101695101325REMMET09704/17/24 17:00:02 METAR KNEL 172200Z 10007KT BKN014 OVC023 12/08 A3003 RMK AO2 SLP166 T01220078 $
0148724090147802024041723006+40033-074350FM-15+0031KNEL V0200805N00315003965MN9999999N5+01225+00835101645ADDGA1085+003965999GD14991+0039659MA1101665101295REMMET09004/17/24 18:00:02 METAR KNEL 172300Z 08006KT OVC013 12/08 A3002 RMK AO2 SLP164 T01220083 $
0179724090147802024041723356+40033-074350FM-16+0031KNEL V0200705N00465007625MN9999999N5+01175+00835999999ADDGA1045+003965999GA2085+007625999GD12991+0039659GD24991+0076259MA1101635101255REMMET09004/17/24 18:35:02 SPECI KNEL 172335Z 07009KT SCT013 OVC025 12/08 A3001 RMK AO2 T01170083 $
0179724090147802024041723446+40033-074350FM-16+0031KNEL V0200805N00365003665MN9999999N5+01175+00835999999ADDGA1075+003665999GA2085+007625999GD13991+0036659GD24991+0076259MA1101595101225REMMET09004/17/24 18:44:02 SPECI KNEL 172344Z 08007KT BKN012 OVC025 12/08 A3000 RMK AO2 T01170083 $
0169724090147802024041723576+40033-074350FM-16+0031KNEL V0200705N00465007625MN9999999N5+01205+00905999999ADDGA1045+003355999GA2085+007625999GD12991+0033559GD24991+0076259MA1101595101225REMMET08004/17/24 18:57:02 SPECI KNEL 172357Z 07009KT SCT011 OVC025 12/09 A3000 RMK AO2 $
0235724090147802024041800006+40033-074350FM-15+0031KNEL V0200705N00515007625MN9999999N5+01175+00895101575ADDAA106000021GA1045+003355999GA2085+007625999GD12991+0033559GD24991+0076259MA1101595101225MD1890089+9999REMMET12104/17/24 19:00:01 METAR KNEL 180000Z 07010KT SCT011 OVC025 12/09 A3000 RMK AO2 SLP157 60000 T01170089 10161 20117 58008 $
0148724090147802024041801006+40033-074350FM-15+0031KNEL V0200605N00465007325MN9999999N5+01175+00895101625ADDGA1085+007325999GD14991+0073259MA1101635101255REMMET09004/17/24 20:00:01 METAR KNEL 180100Z 06009KT OVC024 12/09 A3001 RMK AO2 SLP162 T01170089 $
0186724090147802024041802006+40033-074350FM-15+0031KNEL V0209999V00315006715MN9999999N5+01175+00895101645ADDGA1025+003665999GA2085+006715999GD11991+0036659GD24991+0067159MA1101665101295REMMET09704/17/24 21:00:01 METAR KNEL 180200Z VRB06KT FEW012 OVC022 12/09 A3002 RMK AO2 SLP164 T01170089 $
0215724090147802024041803006+40033-074350FM-15+0031KNEL V0200805N00415005795MN9999999N5+01115+00895101555ADDAA101000021AA203000021GA1085+005795999GD14991+0057959MA1101595101225MD1390069+9999REMMET12104/17/24 22:00:02 METAR KNEL 180300Z 08008KT OVC019 11/09 A3000 RMK AO2 RAB0201E0211 SLP155 P0000 60000 T01110089 53006 $
0227724090147802024041803367+40033-074350FM-16+0031KNEL V0200705N00575003355MN9999999N5+01115+00895999999ADDGA1075+003355999GA2085+005495999GD13991+0033559GD24991+0054959GE19AGL   +99999+99999GF199999999999003351999999MA1101495101125REMMET09004/17/24 22:36:01 SPECI KNEL 180336Z 07011KT BKN011 OVC018 11/09 A2997 RMK AO2 T01110089 $
0234724090147802024041804007+40033-074350FM-15+0031KNEL V0200705N00625003055MN9999999N5+01115+00895101435ADDGA1075+003055999GA2085+004275999GD13991+0030559GD24991+0042759GE19AGL   +99999+99999GF199999999999003051999999MA1101465101085REMMET09704/17/24 23:00:01 METAR KNEL 180400Z 07012KT BKN010 OVC014 11/09 A2996 RMK AO2 SLP143 T01110089 $
0200724090147802024041804207+40033-074350FM-16+0031KNEL V0200505N00575002745MN9999999N5+01065+00895999999ADDGA1085+002745999GD14991+0027459GE19AGL   +99999+99999GF199999999999002741999999MA1101465101085OC100935REMMET08604/17/24 23:20:01 SPECI KNEL 180420Z 05011G18KT OVC009 11/09 A2996 RMK AO2 T01060089 $
001572409014780202404180459O+40033-074350SOD  +0031KNEL V020999999999999999999999999999+99999+99999999999ADDAT1AU16RA  5
0232724090147802024041805007+40033-074350FM-15+0031KNEL V0200605N00725002445MN9999999N5+01065+00895101415ADDGA1085+002445999GD14991+0024459GE19AGL   +99999+99999GF199999999999002441999999KA1240M+01061KA2240N+01061MA1101425101055REMMET10004/18/24 00:00:01 METAR KNEL 180500Z 06014KT OVC008 11/09 A2995 RMK AO2 SLP141 T01060089 401060106 $
0306724090147802024041806007+40033-074350FM-15+0031KNEL V0200705N00625001835MN9999999N5+01065+00895101335ADDAA106000021GA1085+001835999GD14991+0018359GE19AGL   +99999+99999GF199999999999001831999999KA1060M+01171KA2060N+01061MA1101355100985MD1690249+9999REMMET11404/18/24 01:00:01 METAR KNEL 180600Z 07012KT OVC006 11/09 A2993 RMK AO2 SLP133 60000 T01060089 10117 20106 56024 $EQDQ01  00002PRCP06Q02  00008PRCP06
0190724090147802024041806557+40033-074350FM-16+0031KNEL V0200505N00465001225MN9999999N5+01005+00905999999ADDGA1085+001225999GD14991+0012259GE19AGL   +99999+99999GF199999999999001221999999MA1101295100915OC100985REMMET07604/18/24 01:55:01 SPECI KNEL 180655Z 05009G19KT OVC004 10/09 A2991 RMK AO2 $
0196724090147802024041807007+40033-074350FM-15+0031KNEL V0200705N00515001225MN9999999N5+01005+00945101255ADDGA1085+001225999GD14991+0012259GE19AGL   +99999+99999GF199999999999001221999999MA1101255100885REMMET09004/18/24 02:00:01 METAR KNEL 180700Z 07010KT OVC004 10/09 A2990 RMK AO2 SLP125 T01000094 $
0196724090147802024041808007+40033-074350FM-15+0031KNEL V0200505N00575000915MN9999999N5+01005+00945101225ADDGA1085+000915999GD14991+0009159GE19AGL   +99999+99999GF199999999999000911999999MA1101255100885REMMET09004/18/24 03:00:01 METAR KNEL 180800Z 05011KT OVC003 10/09 A2990 RMK AO2 SLP122 T01000094 $
0339724090147802024041809007+40033-074350FM-15+0031KNEL V0200405N00315001225MN9999999N5+00907+00907101295ADDGA1085+001225999GD14991+0012259GE19AGL   +99999+99999GF199999999999001221999999MA1101325100955MD1610111+9999OC100775REMMET17604/18/24 04:00:01 METAR KNEL 180900Z 04006G15KT OVC004 09/09 A2992 RMK AO2 SLP129 T00 NO CARRIER RING CONNECT 1200 WBCRR7NUI ALL TTAA00 KNUI 180900 .A KNUI 0418 DH0900/PPH 0.00EQDR01    097TMP046R02    097DPT046
0190724090147802024041810007+40033-074350FM-16+0031KNEL V0200505N00415001525MN9999999N5+00905+00805999999ADDGA1085+001525999GD14991+0015259GE19AGL   +99999+99999GF199999999999001521999999MA1101325100955OC100725REMMET07604/18/24 05:00:01 SPECI KNEL 181000Z 05008G14KT OVC005 09/08 A2992 RMK AO2 $
0207724090147802024041810067+40033-074350FM-15+0031KNEL V0200505N00515001525MN9999999N5+00945+00835101305ADDGA1085+001525999GD14991+0015259GE19AGL   +99999+99999GF199999999999001521999999MA1101325100955OC100825REMMET09304/18/24 05:06:01 METAR KNEL 181006Z 05010G16KT OVC005 09/08 A2992 RMK AO2 SLP130 T00940083 $
0145724090147802024041811007+40033-074350FM-15+0031KNEL V0200505N005159999999N9999999N5+00945+00835101395ADDMA1101425101055REMMET08304/18/24 06:00:01 METAR KNEL 181100Z 05010KT 09/08 A2995 RMK AO2 SLP139 T00940083 $EQDR01      7SKY009R02      7GAS009
0200724090147802024041811117+40033-074350FM-16+0031KNEL V0200505N00365001835MN9999999N5+00945+00835999999ADDGA1085+001835999GD14991+0018359GE19AGL   +99999+99999GF199999999999001831999999MA1101465101085OC100775REMMET08604/18/24 06:11:01 SPECI KNEL 181111Z 05007G15KT OVC006 09/08 A2996 RMK AO2 T00940083 $
0234724090147802024041812007+40033-074350FM-15+0031KNEL V0209999V00315001525MN9999999N5+00945+00835101505ADDGA1085+001525999GD14991+0015259GE19AGL   +99999+99999GF199999999999001521999999KA1060M+01001KA2060N+00891MA1101525101155REMMET10204/18/24 07:00:01 METAR KNEL 181200Z VRB06KT OVC005 09/08 A2998 RMK AO2 SLP150 T00940083 10100 20089 $
0219724090147802024041813007+40033-074350FM-15+0031KNEL V0200505N00365002135MN9999999N5+00945+00835101535ADDGA1085+002135999GD14991+0021351GE19AGL   +99999+99999GF199999999999002131999999MA1101565101195OC100825REMMET10504/18/24 08:00:02 METAR KNEL 181300Z 05007G16KT OVC007 09/08 A2999 RMK AO2 CIG 006V009 SLP153 T00940083 $
0257724090147802024041814007+40033-074350FM-15+0031KNEL V0200405N00465002745MN9999999N5+01005+00785101615ADDGA1075+002745999GA2085+003965999GD13991+0027451GD24991+0039659GE19AGL   +99999+99999GF199999999999002741999999MA1101635101255OC100935REMMET11204/18/24 09:00:01 METAR KNEL 181400Z 04009G18KT BKN009 OVC013 10/08 A3001 RMK AO2 CIG 007V012 SLP161 T01000078 $
0212724090147802024041814427+40033-074350FM-16+0031KNEL V0200405N00515003055MN9999999N5+01005+00785999999ADDGA1085+003055999GD14991+0030551GE19AGL   +99999+99999GF199999999999003051999999MA1101665101295OC101035REMMET09804/18/24 09:42:01 SPECI KNEL 181442Z 04010G20KT OVC010 10/08 A3002 RMK AO2 CIG 009V013 T01000078 $
0227724090147802024041815007+40033-074350FM-15+0031KNEL V0200505N00575003055MN9999999N5+01065+00785101675ADDGA1085+003055999GD14991+0030559GE19AGL   +99999+99999GF199999999999003051999999MA1101695101325MD1190229+9999OC101085REMMET09904/18/24 10:00:01 METAR KNEL 181500Z 05011G21KT OVC010 11/08 A3003 RMK AO2 SLP167 T01060078 51022 $
0156724090147802024041816017+40033-074350FM-15+0031KNEL V0200505N005759999999N9999999N5+01005+00725101715ADDMA1101735101355OC100985REMMET08604/18/24 11:01:01 METAR KNEL 181601Z 05011G19KT 10/07 A3004 RMK AO2 SLP171 T01000072 $EQDR01      7SKY009R02      7GAS009
0200724090147802024041816207+40033-074350FM-16+0031KNEL V0200505N00725003355MN9999999N5+01005+00675999999ADDGA1085+003355999GD14991+0033559GE19AGL   +99999+99999GF199999999999003351999999MA1101735101355OC101085REMMET08604/18/24 11:20:02 SPECI KNEL 181620Z 05014G21KT OVC011 10/07 A3004 RMK AO2 T01000067 $
0200724090147802024041817327+40033-074350FM-16+0031KNEL V0200505N00625003355MN9999999N5+01005+00675999999ADDGA1085+003355999GD14991+0033559GE19AGL   +99999+99999GF199999999999003351999999MA1101835101465OC101135REMMET08604/18/24 12:32:01 SPECI KNEL 181732Z 05012G22KT OVC011 10/07 A3007 RMK AO2 T01000067 $
0200724090147802024041817497+40033-074350FM-16+0031KNEL V0200605N00825004575MN9999999N5+01005+00675999999ADDGA1085+004575999GD14991+0045759GE19AGL   +99999+99999GF199999999999004571999999MA1101865101495OC101085REMMET08604/18/24 12:49:02 SPECI KNEL 181749Z 06016G21KT OVC015 10/07 A3008 RMK AO2 T01000067 $
0240724090147802024041818007+40033-074350FM-15+0031KNEL V0200505N00515004575MN9999999N5+01005+00615101885ADDGA1085+004575999GD14991+0045759GE19AGL   +99999+99999GF199999999999004571999999KA1060M+01061KA2060N+00941MA1101905101525REMMET10804/18/24 13:00:02 METAR KNEL 181800Z 05010KT OVC015 10/06 A3009 RMK AO2 SLP188 6//// T01000061 10106 20094 $
0200724090147802024041818287+40033-074350FM-16+0031KNEL V0200505N00575004275MN9999999N5+01005+00675999999ADDGA1085+004275999GD14991+0042759GE19AGL   +99999+99999GF199999999999004271999999MA1101865101495OC100825REMMET08604/18/24 13:28:01 SPECI KNEL 181828Z 05011G16KT OVC014 10/07 A3008 RMK AO2 T01000067 $
0196724090147802024041819007+40033-074350FM-15+0031KNEL V0209999V00265003355MN9999999N5+00945+00725101845ADDGA1085+003355999GD14991+0033559GE19AGL   +99999+99999GF199999999999003351999999MA1101865101495REMMET09004/18/24 14:00:02 METAR KNEL 181900Z VRB05KT OVC011 09/07 A3008 RMK AO2 SLP184 T00940072 $
0196724090147802024041820007+40033-074350FM-15+0031KNEL V0209999V00215003965MN9999999N5+00945+00675101865ADDGA1085+003965999GD14991+0039659GE19AGL   +99999+99999GF199999999999003961999999MA1101865101495REMMET09004/18/24 15:00:02 METAR KNEL 182000Z VRB04KT OVC013 09/07 A3008 RMK AO2 SLP186 T00940067 $
0189724090147802024041820087+40033-074350FM-16+0031KNEL V0209999V00155004575MN9999999N5+01005+00615999999ADDGA1085+004575999GD14991+0045759GE19AGL   +99999+99999GF199999999999004571999999MA1101865101495REMMET08304/18/24 15:08:02 SPECI KNEL 182008Z VRB03KT OVC015 10/06 A3008 RMK AO2 T01000061 $
0227724090147802024041820187+40033-074350FM-16+0031KNEL V0200405N00315003665MN9999999N5+00945+00675999999ADDGA1075+003665999GA2085+005185999GD13991+0036659GD24991+0051859GE19AGL   +99999+99999GF199999999999003661999999MA1101865101495REMMET09004/18/24 15:18:02 SPECI KNEL 182018Z 04006KT BKN012 OVC017 09/07 A3008 RMK AO2 T00940067 $
0263724090147802024041821007+40033-074350FM-15+0031KNEL V0209999V00315003055MN9999999N5+00945+00675101835ADDGA1075+003055999GA2085+004885999GD13991+0030551GD24991+0048859GE19AGL   +99999+99999GF199999999999003051999999MA1101835101465OC100775REMMET11804/18/24 16:00:02 METAR KNEL 182100Z VRB06G15KT BKN010 OVC016 09/07 A3007 RMK AO2 CIG 009V014 SLP183 6//// T00940067 $
0207724090147802024041822007+40033-074350FM-15+0031KNEL V0200505N00575003965MN9999999N5+00895+00505101915ADDGA1085+003965999GD14991+0039659GE19AGL   +99999+99999GF199999999999003961999999MA1101935101565OC100935REMMET09304/18/24 17:00:02 METAR KNEL 182200Z 05011G18KT OVC013 09/05 A3010 RMK AO2 SLP191 T00890050 $
0190724090147802024041822557+40033-074350FM-16+0031KNEL V0200505N00575004885MN9999999N5+00805+00405999999ADDGA1085+004885999GD14991+0048859GE19AGL   +99999+99999GF199999999999004881999999MA1102075101695OC101085REMMET07604/18/24 17:55:02 SPECI KNEL 182255Z 05011G21KT OVC016 08/04 A3014 RMK AO2 $
0207724090147802024041823007+40033-074350FM-15+0031KNEL V0200505N00365004885MN9999999N5+00835+00445102065ADDGA1085+004885999GD14991+0048859GE19AGL   +99999+99999GF199999999999004881999999MA1102075101695OC101085REMMET09304/18/24 18:00:02 METAR KNEL 182300Z 05007G21KT OVC016 08/04 A3014 RMK AO2 SLP206 T00830044 $
0330724090147802024041900007+40033-074350FM-15+0031KNEL V0200505N00515005185MN9999999N5+00835+00445102045ADDGA1075+005185999GA2075+007625999GA3085+010675999GD13991+0051859GD23991+0076259GD34991+0106759GE19AGL   +99999+99999GF199999999999005181999999KA1060M+01061KA2060N+00831MA1102075101695MD1190249+9999REMMET12204/18/24 19:00:01 METAR KNEL 190000Z 05010KT BKN017 BKN025 OVC035 08/04 A3014 RMK AO2 SLP204 T00830044 10106 20083 51024 $
0276724090147802024041900157+40033-074350FM-16+0031KNEL V0200605N00675010675MN9999999N5+00835+00445999999ADDGA1045+005185999GA2045+007325999GA3085+010675999GD12991+0051859GD22991+0073259GD34991+0106759GE19AGL   +99999+99999GF199999999999005181999999MA1102035101665OC101135REMMET10004/18/24 19:15:01 SPECI KNEL 190015Z 06013G22KT SCT017 SCT024 OVC035 08/04 A3013 RMK AO2 T00830044 $
0238724090147802024041900467+40033-074350FM-16+0031KNEL V0200505N00415007925MN9999999N5+00785+00395999999ADDGA1025+005495999GA2075+007925999GD11991+0054959GD23991+0079259GE19AGL   +99999+99999GF199999999999005491999999MA1102075101695OC100825REMMET09304/18/24 19:46:01 SPECI KNEL 190046Z 05008G16KT FEW018 BKN026 08/04 A3014 RMK AO2 T00780039 $
0207724090147802024041901007+40033-074350FM-15+0031KNEL V0200605N00575008235MN9999999N5+00785+00395102055ADDGA1085+008235999GD14991+0082359GE19AGL   +99999+99999GF199999999999008231999999MA1102075101695OC100935REMMET09304/18/24 20:00:01 METAR KNEL 190100Z 06011G18KT OVC027 08/04 A3014 RMK AO2 SLP205 T00780039 $
0219724090147802024041901227+40033-074350FM-16+0031KNEL V0200305N003152200059N9999999N5+00785+00395999999ADDGA1045+008235999GD12991+0082359GE19AGL   +99999+99999GF104995999999008231999999MA1102105101735OC100885REMMET08604/18/24 20:22:01 SPECI KNEL 190122Z 03006G17KT SCT027 08/04 A3015 RMK AO2 T00780039 $EQDD01      0ADE726
0171724090147802024041902007+40033-074350FM-15+0031KNEL V0200405N002652200059N9999999N5+00725+00395102125ADDGA1005+999999999GD10991+9999999GF100991999999999999999999MA1102135101765REMMET08704/18/24 21:00:01 METAR KNEL 190200Z 04005KT CLR 07/04 A3016 RMK AO2 SLP212 T00720039 $
0227724090147802024041902307+40033-074350FM-16+0031KNEL V0200405N00215007625MN9999999N5+00725+00395999999ADDGA1025+006105999GA2075+007625999GD11991+0061059GD23991+0076259GE19AGL   +99999+99999GF199999999999006101999999MA1102135101765REMMET09004/18/24 21:30:01 SPECI KNEL 190230Z 04004KT FEW020 BKN025 07/04 A3016 RMK AO2 T00720039 $
0216724090147802024041903007+40033-074350FM-15+0031KNEL V0200505N00315007925MN9999999N5+00725+00395102095ADDGA1075+007925999GD13991+0079259GE19AGL   +99999+99999GF199999999999007921999999MA1102105101735MD1390069+9999REMMET09604/18/24 22:00:02 METAR KNEL 190300Z 05006KT BKN026 07/04 A3015 RMK AO2 SLP209 T00720039 53006 $
0208724090147802024041903077+40033-074350FM-16+0031KNEL V0200505N002152200059N9999999N5+00725+00395999999ADDGA1025+007925999GD11991+0079259GE19AGL   +99999+99999GF102995999999007921999999MA1102105101735REMMET08304/18/24 22:07:02 SPECI KNEL 190307Z 05004KT FEW026 07/04 A3015 RMK AO2 T00720039 $EQDD01      0ADE726
0189724090147802024041903257+40033-074350FM-16+0031KNEL V0200405N00155007925MN9999999N5+00725+00395999999ADDGA1075+007925999GD13991+0079259GE19AGL   +99999+99999GF199999999999007921999999MA1102135101765REMMET08304/18/24 22:25:02 SPECI KNEL 190325Z 04003KT BKN026 07/04 A3016 RMK AO2 T00720039 $
0208724090147802024041903347+40033-074350FM-16+0031KNEL V0200405N002152200059N9999999N5+00725+00395999999ADDGA1045+007925999GD12991+0079259GE19AGL   +99999+99999GF104995999999007921999999MA1102105101735REMMET08304/18/24 22:34:02 SPECI KNEL 190334Z 04004KT SCT026 07/04 A3015 RMK AO2 T00720039 $EQDD01      0ADE726
0171724090147802024041904007+40033-074350FM-15+0031KNEL V0200605N003652200059N9999999N5+00725+00395102055ADDGA1005+999999999GD10991+9999999GF100991999999999999999999MA1102075101695REMMET08704/18/24 23:00:02 METAR KNEL 190400Z 06007KT CLR 07/04 A3014 RMK AO2 SLP205 T00720039 $
0207724090147802024041905007+40033-074350FM-15+0031KNEL V0200605N002152200059N9999999N5+00675+00395102025ADDGA1005+999999999GD10991+9999999GF100991999999999999999999KA1240M+00671KA2240N+00671MA1102035101665REMMET09704/19/24 00:00:02 METAR KNEL 190500Z 06004KT CLR 07/04 A3013 RMK AO2 SLP202 T00670039 400670067 $
0254724090147802024041906007+40033-074350FM-15+0031KNEL V0203205N00155016765MN9999999N5+00565+00395102065ADDGA1075+016765999GD13991+0167659GE19AGL   +99999+99999GF199999999999016761999999KA1060M+00831KA2060N+00561MA1102075101695MD1690109+9999REMMET10804/19/24 01:00:02 METAR KNEL 190600Z 32003KT BKN055 06/04 A3014 RMK AO2 SLP206 T00560039 10083 20056 56010 $
0215724090147802024041907007+40033-074350FM-15+0031KNEL V0209999C000052200059N9999999N5+00445+00285102025ADDGA1025+016765999GD11991+0167659GE19AGL   +99999+99999GF102995999999016761999999MA1102035101665REMMET09004/19/24 02:00:02 METAR KNEL 190700Z 00000KT FEW055 04/03 A3013 RMK AO2 SLP202 T00440028 $EQDD01      0ADE726
0171724090147802024041908007+40033-074350FM-15+0031KNEL V0209999C000052200059N9999999N5+00285+00225101965ADDGA1005+999999999GD10991+9999999GF100991999999999999999999MA1101965101595REMMET08704/19/24 03:00:02 METAR KNEL 190800Z 00000KT CLR 03/02 A3011 RMK AO2 SLP196 T00280022 $
0189724090147802024041908217+40033-074350FM-16+0031KNEL V0209999C00005005795MN9999999N5+00335+00225999999ADDGA1075+005795999GD13991+0057959GE19AGL   +99999+99999GF199999999999005791999999MA1102005101625REMMET08304/19/24 03:21:02 SPECI KNEL 190821Z 00000KT BKN019 03/02 A3012 RMK AO2 T00330022 $
0216724090147802024041909007+40033-074350FM-15+0031KNEL V0203305N00155005495MN9999999N5+00505+00395102065ADDGA1085+005495999GD14991+0054959GE19AGL   +99999+99999GF199999999999005491999999MA1102075101695MD1890069+9999REMMET09604/19/24 04:00:02 METAR KNEL 190900Z 33003KT OVC018 05/04 A3014 RMK AO2 SLP206 T00500039 58006 $
0196724090147802024041910007+40033-074350FM-15+0031KNEL V0209999C00005005795MN9999999N5+00675+00445102115ADDGA1085+005795999GD14991+0057959GE19AGL   +99999+99999GF199999999999005791999999MA1102135101765REMMET09004/19/24 05:00:02 METAR KNEL 191000Z 00000KT OVC019 07/04 A3016 RMK AO2 SLP211 T00670044 $
0196724090147802024041911007+40033-074350FM-15+0031KNEL V0200605N00315005495MN9999999N5+00725+00505102105ADDGA1085+005495999GD14991+0054959GE19AGL   +99999+99999GF199999999999005491999999MA1102105101735REMMET09004/19/24 06:00:02 METAR KNEL 191100Z 06006KT OVC018 07/05 A3015 RMK AO2 SLP210 T00720050 $
0198724090147802024041911587+40033-074350FM-16+0031KNEL V0201005N004152200059N9999999N5+00905+00505999999ADDGA1045+005495999GD12991+0054959GE19AGL   +99999+99999GF104995999999005491999999MA1102075101695REMMET07304/19/24 06:58:02 SPECI KNEL 191158Z 10008KT SCT018 09/05 A3014 RMK AO2 $EQDD01      0ADE726
0290724090147802024041912007+40033-074350FM-15+0031KNEL V0201005N005152200059N9999999N5+00945+00505102065ADDAA124999919GA1025+005495999GD11991+0054959GE19AGL   +99999+99999GF102995999999005491999999KA1060M+00941KA2060N+00281MA1102075101695MD1890019+9999REMMET11404/19/24 07:00:02 METAR KNEL 191200Z 10010KT FEW018 09/05 A3014 RMK AO2 SLP206 7//// T00940050 10094 20028 58001 $EQDD01      0ADE726
0189724090147802024041912497+40033-074350FM-16+0031KNEL V0200805N00515005495MN9999999N5+01005+00505999999ADDGA1075+005495999GD13991+0054959GE19AGL   +99999+99999GF199999999999005491999999MA1102075101695REMMET08304/19/24 07:49:02 SPECI KNEL 191249Z 08010KT BKN018 10/05 A3014 RMK AO2 T01000050 $
0196724090147802024041913007+40033-074350FM-15+0031KNEL V0200705N00515005495MN9999999N5+01005+00505102055ADDGA1085+005495999GD14991+0054959GE19AGL   +99999+99999GF199999999999005491999999MA1102075101695REMMET09004/19/24 08:00:02 METAR KNEL 191300Z 07010KT OVC018 10/05 A3014 RMK AO2 SLP205 T01000050 $
0196724090147802024041914007+40033-074350FM-15+0031KNEL V0200905N00415005795MN9999999N5+01065+00565102085ADDGA1085+005795999GD14991+0057959GE19AGL   +99999+99999GF199999999999005791999999MA1102105101735REMMET09004/19/24 09:00:02 METAR KNEL 191400Z 09008KT OVC019 11/06 A3015 RMK AO2 SLP208 T01060056 $
0216724090147802024041915007+40033-074350FM-15+0031KNEL V0200705N00415006405MN9999999N5+01175+00615102085ADDGA1085+006405999GD14991+0064059GE19AGL   +99999+99999GF199999999999006401999999MA1102105101735MD1390029+9999REMMET09604/19/24 10:00:02 METAR KNEL 191500Z 07008KT OVC021 12/06 A3015 RMK AO2 SLP208 T01170061 53002 $
0234724090147802024041916007+40033-074350FM-15+0031KNEL V0200805N00465005795MN9999999N5+01175+00675101995ADDGA1075+005795999GA2085+009755999GD13991+0057959GD24991+0097559GE19AGL   +99999+99999GF199999999999005791999999MA1102005101625REMMET09704/19/24 11:00:02 METAR KNEL 191600Z 08009KT BKN019 OVC032 12/07 A3012 RMK AO2 SLP199 T01170067 $
0234724090147802024041917007+40033-074350FM-15+0031KNEL V0200705N00465005795MN9999999N5+01285+00725101925ADDGA1075+005795999GA2085+010365999GD13991+0057959GD24991+0103659GE19AGL   +99999+99999GF199999999999005791999999MA1101935101565REMMET09704/19/24 12:00:02 METAR KNEL 191700Z 07009KT BKN019 OVC034 13/07 A3010 RMK AO2 SLP192 T01280072 $
0228724090147802024041917577+40033-074350FM-16+0031KNEL V0201205N00465010365MN9999999N5+01305+00705999999ADDGA1045+006715999GA2085+010365999GD12991+0067159GD24991+0103659GE19AGL   +99999+99999GF199999999999006711999999MA1101905101525OC100725REMMET08304/19/24 12:57:01 SPECI KNEL 191757Z 12009G14KT SCT022 OVC034 13/07 A3009 RMK AO2 $
0303724090147802024041918007+40033-074350FM-15+0031KNEL V0201105N00465010365MN9999999N5+01285+00675101885ADDGA1045+006715999GA2085+010365999GD12991+0067159GD24991+0103659GE19AGL   +99999+99999GF199999999999006711999999KA1060M+01331KA2060N+00941MA1101905101525MD1690209+9999OC100725REMMET11804/19/24 13:00:02 METAR KNEL 191800Z 11009G14KT SCT022 OVC034 13/07 A3009 RMK AO2 SLP188 T01280067 10133 20094 56020 $
0196724090147802024041919007+40033-074350FM-15+0031KNEL V0201305N00265010975MN9999999N5+01225+00675101895ADDGA1085+010975999GD14991+0109759GE19AGL   +99999+99999GF199999999999010971999999MA1101905101525REMMET09004/19/24 14:00:02 METAR KNEL 191900Z 13005KT OVC036 12/07 A3009 RMK AO2 SLP189 T01220067 $
0196724090147802024041920007+40033-074350FM-15+0031KNEL V0201305N00265011895MN9999999N5+01285+00725101875ADDGA1085+011895999GD14991+0118959GE19AGL   +99999+99999GF199999999999011891999999MA1101905101525REMMET09004/19/24 15:00:01 METAR KNEL 192000Z 13005KT OVC039 13/07 A3009 RMK AO2 SLP187 T01280072 $
0191724090147802024041921007+40033-074350FM-15+0031KNEL V0201305N004152200059N9999999N5+01285+00785101775ADDGA1005+999999999GD10991+9999999GF100991999999999999999999MA1101795101425MD1890019+9999REMMET09304/19/24 16:00:01 METAR KNEL 192100Z 13008KT CLR 13/08 A3006 RMK AO2 SLP177 T01280078 58001 $
0253724090147802024041922007+40033-074350FM-15+0031KNEL V0201305N004152200059N9999999N5+01225+00835101745ADDGA1025+003965999GA2025+015245999GD11991+0039659GD21991+0152459GE19AGL   +99999+99999GF102995999999003961999999MA1101765101395REMMET09704/19/24 17:00:01 METAR KNEL 192200Z 13008KT FEW013 FEW050 12/08 A3005 RMK AO2 SLP174 T01220083 $EQDD01      0ADE726
0189724090147802024041922177+40033-074350FM-16+0031KNEL V0201205N00465003965MN9999999N5+01175+00785999999ADDGA1075+003965999GD13991+0039659GE19AGL   +99999+99999GF199999999999003961999999MA1101735101355REMMET08304/19/24 17:17:01 SPECI KNEL 192217Z 12009KT BKN013 12/08 A3004 RMK AO2 T01170078 $
0226724090147802024041923007+40033-074350FM-15+0031KNEL V0201205N00315003355MN9999999N5+01005+00785101695ADDAA101000021GA1085+003355999GD14991+0033559GE19AGL   +99999+99999GF199999999999003351999999MA1101695101325REMMET10904/19/24 18:00:01 METAR KNEL 192300Z 12006KT OVC011 10/08 A3003 RMK AO2 RAB2245E2255 SLP169 P0000 T01000078 $
0205724090147802024041923557+40033-074350FM-16+0031KNEL V0201505N00215002745MN9999999N5+01005+00805999999ADDAA101000021GA1085+002745999GD14991+0027459GE19AGL   +99999+99999GF199999999999002741999999MA1101795101425REMMET08804/19/24 18:55:01 SPECI KNEL 192355Z 15004KT OVC009 10/08 A3006 RMK AO2 RAB25E33 P0000 $
0336724090147802024042000007+40033-074350FM-15+0031KNEL V0201505N00215002745MN9999999N5+01005+00785101785ADDAA101000021AA206000021GA1085+002745999GD14991+0027459GE19AGL   +99999+99999GF199999999999002741999999KA1060M+01391KA2060N+01001MA1101795101425MD1390029+9999REMMET13304/19/24 19:00:01 METAR KNEL 200000Z 15004KT OVC009 10/08 A3006 RMK AO2 RAB2325E2333 SLP178 P0000 60000 T01000078 10139 20100 53002 $EQDQ01  00002PRCP06Q02  00008PRCP06
0189724090147802024042000267+40033-074350FM-16+0031KNEL V0201105N00215003055MN9999999N5+01005+00785999999ADDGA1085+003055999GD14991+0030559GE19AGL   +99999+99999GF199999999999003051999999MA1101835101465REMMET08304/19/24 19:26:01 SPECI KNEL 200026Z 11004KT OVC010 10/08 A3007 RMK AO2 T01000078 $
0179724090147802024042001007+40033-074350FM-16+0031KNEL V0201005N00265002745MN9999999N5+01005+00805999999ADDGA1085+002745999GD14991+0027459GE19AGL   +99999+99999GF199999999999002741999999MA1101835101465REMMET07304/19/24 20:00:01 SPECI KNEL 200100Z 10005KT OVC009 10/08 A3007 RMK AO2 $
0196724090147802024042001067+40033-074350FM-15+0031KNEL V0200905N00215002745MN9999999N5+01005+00785101815ADDGA1085+002745999GD14991+0027459GE19AGL   +99999+99999GF199999999999002741999999MA1101835101465REMMET09004/19/24 20:06:01 METAR KNEL 200106Z 09004KT OVC009 10/08 A3007 RMK AO2 SLP181 T01000078 $
0196724090147802024042002007+40033-074350FM-15+0031KNEL V0201205N00215002445MN9999999N5+00945+00785101795ADDGA1085+002445999GD14991+0024459GE19AGL   +99999+99999GF199999999999002441999999MA1101795101425REMMET09004/19/24 21:00:01 METAR KNEL 200200Z 12004KT OVC008 09/08 A3006 RMK AO2 SLP179 T00940078 $
0268724090147802024042003007+40033-074350FM-15+0031KNEL V0201205N00155002745MN9999999N5+00945+00785101765ADDAA103000021GA1085+002745999GD14991+0027459GE19AGL   +99999+99999GF199999999999002741999999MA1101765101395MD1090009+9999REMMET10204/19/24 22:00:01 METAR KNEL 200300Z 12003KT OVC009 09/08 A3005 RMK AO2 SLP176 60000 T00940078 50000 $EQDQ01  00002PRCP03Q02  00008PRCP03
0196724090147802024042004007+40033-074350FM-15+0031KNEL V0201505N00365002445MN9999999N5+00945+00785101675ADDGA1085+002445999GD14991+0024459GE19AGL   +99999+99999GF199999999999002441999999MA1101695101325REMMET09004/19/24 23:00:02 METAR KNEL 200400Z 15007KT OVC008 09/08 A3003 RMK AO2 SLP167 T00940078 $
0232724090147802024042005007+40033-074350FM-15+0031KNEL V0201505N00215001835MN9999999N5+00895+00785101665ADDGA1085+001835999GD14991+0018359GE19AGL   +99999+99999GF199999999999001831999999KA1240M+00891KA2240N+00891MA1101665101295REMMET10004/20/24 00:00:02 METAR KNEL 200500Z 15004KT OVC006 09/08 A3002 RMK AO2 SLP166 T00890078 400890089 $
0254724090147802024042006007+40033-074350FM-15+0031KNEL V0201605N00155001525MN9999999N5+00895+00835101635ADDGA1085+001525999GD14991+0015259GE19AGL   +99999+99999GF199999999999001521999999KA1060M+01001KA2060N+00891MA1101665101295MD1690139+9999REMMET10804/20/24 01:00:02 METAR KNEL 200600Z 16003KT OVC005 09/08 A3002 RMK AO2 SLP163 T00890083 10100 20089 56013 $
0189724090147802024042006347+40033-074350FM-16+0031KNEL V0201605N00215001225MN9999999N5+00895+00835999999ADDGA1085+001225999GD14991+0012259GE19AGL   +99999+99999GF199999999999001221999999MA1101595101225REMMET08304/20/24 01:34:02 SPECI KNEL 200634Z 16004KT OVC004 09/08 A3000 RMK AO2 T00890083 $
0196724090147802024042007007+40033-074350FM-15+0031KNEL V0202105N00155001225MN9999999N5+00945+00835101555ADDGA1085+001225999GD14991+0012259GE19AGL   +99999+99999GF199999999999001221999999MA1101565101195REMMET09004/20/24 02:00:02 METAR KNEL 200700Z 21003KT OVC004 09/08 A2999 RMK AO2 SLP155 T00940083 $
0196724090147802024042008007+40033-074350FM-15+0031KNEL V0201605N00215000915MN9999999N5+00945+00835101475ADDGA1085+000915999GD14991+0009159GE19AGL   +99999+99999GF199999999999000911999999MA1101495101125REMMET09004/20/24 03:00:02 METAR KNEL 200800Z 16004KT OVC003 09/08 A2997 RMK AO2 SLP147 T00940083 $
0216724090147802024042009007+40033-074350FM-15+0031KNEL V0201905N00155001225MN9999999N5+00945+00835101505ADDGA1085+001225999GD14991+0012259GE19AGL   +99999+99999GF199999999999001221999999MA1101525101155MD1890199+9999REMMET09604/20/24 04:00:02 METAR KNEL 200900Z 19003KT OVC004 09/08 A2998 RMK AO2 SLP150 T00940083 58019 $
0196724090147802024042010007+40033-074350FM-15+0031KNEL V0202405N00215001225MN9999999N5+00945+00835101505ADDGA1085+001225999GD14991+0012259GE19AGL   +99999+99999GF199999999999001221999999MA1101525101155REMMET09004/20/24 05:00:02 METAR KNEL 201000Z 24004KT OVC004 09/08 A2998 RMK AO2 SLP150 T00940083 $
0292724090147802024042010567+40033-074350FM-16+0031KNEL V0209999C00005007925MN9999999N5+00905+00905999999ADDAU110020015AW1615GA1025+000915999GA2075+007925999GA3085+012195999GD11991+0009159GD23991+0079259GD34991+0121959GE19AGL   +99999+99999GF199999999999000911999999MA1101525101155MW1615REMMET10104/20/24 05:56:02 SPECI KNEL 201056Z 00000KT -RA FEW003 BKN026 OVC040 09/09 A2998 RMK AO2 RAB08 PNO $
0292724090147802024042011067+40033-074350FM-15+0031KNEL V0202205N00155012195MN9999999N5+00945+00895101545ADDAU110020015AW1615GA1045+001525999GA2085+012195999GD12991+0015259GD24991+0121959GE19AGL   +99999+99999GF199999999999001521999999MA1101565101195MW1615REMMET11304/20/24 06:06:02 METAR KNEL 201106Z 22003KT -RA SCT005 OVC040 09/09 A2999 RMK AO2 RAB1008 SLP154 T00940089 PNO $EQDR01   PNO7AAP062
0403724090147802024042012007+40033-074350FM-15+0031KNEL V0202605N00155013415MN9999999N5+01005+00895101515ADDAA124999919AU130020015AW1635GA1025+001225999GA2075+013415999GA3085+018295999GD11991+0012259GD23991+0134159GD34991+0182959GE19AGL   +99999+99999GF199999999999001221999999KA1060M+01001KA2060N+00891MA1101525101155MD1190049+9999MW1635REMMET14204/20/24 07:00:02 METAR KNEL 201200Z 26003KT +RA FEW004 BKN044 OVC060 10/09 A2998 RMK AO2 SLP151 6//// 7//// T01000089 10100 20089 51004 PNO $EQDR01   PNO7AAP062
0296724090147802024042012357+40033-074350FM-16+0031KNEL V0202505N00265004275MN9999999N5+01005+00945999999ADDAU110020015AW1615GA1025+001525999GA2075+004275999GA3085+014635999GD11991+0015259GD23991+0042759GD34991+0146359GE19AGL   +99999+99999GF199999999999001521999999MA1101565101195MW1615REMMET10504/20/24 07:35:02 SPECI KNEL 201235Z 25005KT -RA FEW005 BKN014 OVC048 10/09 A2999 RMK AO2 T01000094 PNO $
0284724090147802024042013007+40033-074350FM-15+0031KNEL V0202405N00215003665MN9999999N5+01065+01005101525ADDAU110020015AW1615GA1025+001835999GA2085+003665999GD11991+0018359GD24991+0036659GE19AGL   +99999+99999GF199999999999001831999999MA1101525101155MW1615REMMET10504/20/24 08:00:02 METAR KNEL 201300Z 24004KT -RA FEW006 OVC012 11/10 A2998 RMK AO2 SLP152 T01060100 PNO $EQDR01   PNO7AAP062
0237724090147802024042013157+40033-074350FM-16+0031KNEL V0202205N00155001835MN9999999N5+01065+01005999999ADDGA1075+001835999GA2085+003665999GD13991+0018359GD24991+0036659GE19AGL   +99999+99999GF199999999999001831999999MA1101495101125REMMET10004/20/24 08:15:02 SPECI KNEL 201315Z 22003KT BKN006 OVC012 11/10 A2997 RMK AO2 RAE03 T01060100 PNO $
0249724090147802024042014007+40033-074350FM-15+0031KNEL V0202705N00265001525MN9999999N5+01175+01065101455ADDGA1085+001525999GD14991+0015251GE19AGL   +99999+99999GF199999999999001521999999MA1101465101085REMMET12404/20/24 09:00:02 METAR KNEL 201400Z 27005KT OVC005 12/11 A2996 RMK AO2 RAE1303B1317E1336 CIG 004V010 SLP145 T01170106 PNO $EQDR01   PNO7AAP062
0257724090147802024042015007+40033-074350FM-15+0031KNEL V0202705N00365002135MN9999999N5+01225+01115101465ADDGA1085+002135999GD14991+0021351GE19AGL   +99999+99999GF199999999999002131999999MA1101495101125MD1890089+9999REMMET11804/20/24 10:00:02 METAR KNEL 201500Z 27007KT OVC007 12/11 A2997 RMK AO2 CIG 005V011 SLP146 6//// T01220111 58008 PNO $EQDR01   PNO7AAP062
0269724090147802024042015467+40033-074350FM-16+0031KNEL V0202605N00365004275MN9999999N5+01395+01175999999ADDGA1045+003055999GA2075+004275999GA3085+018295999GD12991+0030559GD23991+0042759GD34991+0182959GE19AGL   +99999+99999GF199999999999003051999999MA1101425101055REMMET10104/20/24 10:46:02 SPECI KNEL 201546Z 26007KT SCT010 BKN014 OVC060 14/12 A2995 RMK AO2 T01390117 PNO $
0257724090147802024042016007+40033-074350FM-15+0031KNEL V0202705N00315003665MN9999999N5+01395+01115101395ADDGA1075+003665999GA2085+019815999GD13991+0036659GD24991+0198159GE19AGL   +99999+99999GF199999999999003661999999MA1101395101025REMMET10104/20/24 11:00:02 METAR KNEL 201600Z 27006KT BKN012 OVC065 14/11 A2994 RMK AO2 SLP139 T01390111 PNO $EQDR01   PNO7AAP062
0269724090147802024042016087+40033-074350FM-16+0031KNEL V0202505N00415019815MN9999999N5+01395+01115999999ADDGA1045+003665999GA2075+019815999GA3085+024385999GD12991+0036659GD23991+0198159GD34991+0243859GE19AGL   +99999+99999GF199999999999003661999999MA1101395101025REMMET10104/20/24 11:08:02 SPECI KNEL 201608Z 25008KT SCT012 BKN065 OVC080 14/11 A2994 RMK AO2 T01390111 PNO $
0295724090147802024042017007+40033-074350FM-15+0031KNEL V0202405N00465024385MN9999999N5+01675+00945101305ADDGA1025+007325999GA2075+024385999GA3075+033535999GD11991+0073259GD23991+0243859GD33991+0335359GE19AGL   +99999+99999GF199999999999007321999999MA1101325100955REMMET10804/20/24 12:00:02 METAR KNEL 201700Z 24009KT FEW024 BKN080 BKN110 17/09 A2992 RMK AO2 SLP130 T01670094 PNO $EQDR01   PNO7AAP062
0359724090147802024042018007+40033-074350FM-15+0031KNEL V0202705N00515033535MN9999999N5+01835+00835101215ADDGA1025+010365999GA2025+012505999GA3075+033535999GD11991+0103659GD21991+0125059GD33991+0335359GE19AGL   +99999+99999GF199999999999010361999999KA1060M+01831KA2060N+01001MA1101225100855MD1890159+9999REMMET13204/20/24 13:00:02 METAR KNEL 201800Z 27010KT FEW034 FEW041 BKN110 18/08 A2989 RMK AO2 SLP121 6//// T01830083 10183 20100 58015 PNO $EQDR01   PNO7AAP062
0246724090147802024042019007+40033-074350FM-15+0031KNEL V0202605N005152200059N9999999N5+02005+00785101085ADDGA1045+015245999GD12991+0152459GE19AGL   +99999+99999GF104995999999015241999999MA1101125100755OC100825REMMET09704/20/24 14:00:02 METAR KNEL 201900Z 26010G16KT SCT050 20/08 A2986 RMK AO2 SLP108 T02000078 PNO $EQDR01   PNO7AAP062D01      0ADE726
0268724090147802024042020007+40033-074350FM-15+0031KNEL V0202605N00625022865MN9999999N5+02005+00615101005ADDGA1045+018295999GA2075+022865999GD12991+0182959GD23991+0228659GE19AGL   +99999+99999GF199999999999018291999999MA1101025100645OC101085REMMET10404/20/24 15:00:02 METAR KNEL 202000Z 26012G21KT SCT060 BKN075 20/06 A2983 RMK AO2 SLP100 T02000061 PNO $EQDR01   PNO7AAP062
0263724090147802024042021007+40033-074350FM-15+0031KNEL V0202705N008852200059N9999999N5+02115+00005100985ADDGA1005+999999999GD10991+9999999GF100991999999999999999999MA1101025100645MD1690299+9999OC101495OD149901491290REMMET12404/20/24 16:00:02 METAR KNEL 202100Z 27017G29KT CLR 21/00 A2983 RMK AO2 PK WND 29029/2055 SLP098 6//// T02110000 56029 PNO $EQDR01   PNO7AAP062
0237724090147802024042022007+40033-074350FM-15+0031KNEL V0202805N006752200059N9999999N5+02005+00115100985ADDGA1005+999999999GD10991+9999999GF100991999999999999999999MA1101025100645OC101085OD149901541280REMMET11204/20/24 17:00:02 METAR KNEL 202200Z 28013G21KT CLR 20/01 A2983 RMK AO2 PK WND 28030/2106 SLP098 T02000011 PNO $EQDR01   PNO7AAP062
0206724090147802024042023007+40033-074350FM-15+0031KNEL V0202905N006752200059N9999999N5+01945-00065101005ADDGA1005+999999999GD10991+9999999GF100991999999999999999999MA1101025100645OC101245REMMET09504/20/24 18:00:02 METAR KNEL 202300Z 29013G24KT CLR 19/M01 A2983 RMK AO2 SLP100 T01941006 PNO $EQDR01   PNO7AAP062
0259724090147802024042100007+40033-074350FM-15+0031KNEL V0203105N003652200059N9999999N5+01725-00115101135ADDGA1005+999999999GD10991+9999999GF100991999999999999999999KA1060M+02111KA2060N+01721MA1101155100785MD1590019+9999REMMET11604/20/24 19:00:01 METAR KNEL 210000Z 31007KT CLR 17/M01 A2987 RMK AO2 SLP113 6//// T01721011 10211 20172 55001 PNO $EQDR01   PNO7AAP062
0195724090147802024042101007+40033-074350FM-15+0031KNEL V0203205N004152200059N9999999N5+01615-00175101275ADDGA1005+999999999GD10991+9999999GF100991999999999999999999MA1101295100915REMMET09204/20/24 20:00:01 METAR KNEL 210100Z 32008KT CLR 16/M02 A2991 RMK AO2 SLP127 T01611017 PNO $EQDR01   PNO7AAP062
0194724090147802024042102007+40033-074350FM-15+0031KNEL V0209999V002152200059N9999999N5+01395+00065101375ADDGA1005+999999999GD10991+9999999GF100991999999999999999999MA1101395101025REMMET09104/20/24 21:00:01 METAR KNEL 210200Z VRB04KT CLR 14/01 A2994 RMK AO2 SLP137 T01390006 PNO $EQDR01   PNO7AAP062
0231724090147802024042103007+40033-074350FM-15+0031KNEL V0209999V003152200059N9999999N5+01115+00115101535ADDGA1005+999999999GD10991+9999999GF100991999999999999999999MA1101565101195MD1190379+9999OC100885REMMET10604/20/24 22:00:02 METAR KNEL 210300Z VRB06G17KT CLR 11/01 A2999 RMK AO2 SLP153 6//// T01110011 51037 PNO $EQDR01   PNO7AAP062
0145724090147802024042104007+40033-074350FM-15+0031KNEL V0209999V002159999999N9999999N5+01005+00005101625ADDMA1101635101255REMMET08304/20/24 23:00:02 METAR KNEL 210400Z VRB04KT 10/00 A3001 RMK AO2 SLP162 T01000000 $EQDR01      7SKY009R02      7GAS009
001572409014780202404210459O+40033-074350SOD  +0031KNEL V020999999999999999999999999999+99999+99999999999ADDAT1AU16RA  5
0190724090147802024042106007+40033-074350FM-15+0031KNEL V0209999C000059999999N9999999N5+00785-00175101635ADDKA1060M+01941KA2060N+00781MA1101665101295REMMET10204/21/24 01:00:02 METAR KNEL 210600Z 00000KT 08/M02 A3002 RMK AO2 SLP163 6//// T00781017 10194 20078 $EQDR01      7SKY009R02      7GAS009
0172724090147802024042107007+40033-074350FM-15+0031KNEL V0209999C000052200059N9999999N5+00505-00175101715ADDGA1005+999999999GD10991+9999999GF100991999999999999999999MA1101735101355REMMET08804/21/24 02:00:02 METAR KNEL 210700Z 00000KT CLR 05/M02 A3004 RMK AO2 SLP171 T00501017 $
0172724090147802024042108007+40033-074350FM-15+0031KNEL V0209999C000052200059N9999999N5+00335-00175101715ADDGA1005+999999999GD10991+9999999GF100991999999999999999999MA1101735101355REMMET08804/21/24 03:00:02 METAR KNEL 210800Z 00000KT CLR 03/M02 A3004 RMK AO2 SLP171 T00331017 $
0178724090147802024042109007+40033-074350FM-15+0031KNEL V0203105N001552200059N9999999N5+00225-00065101705ADDGA1005+999999999GD10991+9999999GF100991999999999999999999MA1101735101355REMMET09404/21/24 04:00:02 METAR KNEL 210900Z 31003KT CLR 02/M01 A3004 RMK AO2 SLP170 6//// T00221006 $
0172724090147802024042110007+40033-074350FM-15+0031KNEL V0203205N002152200059N9999999N5+00285-00225101735ADDGA1005+999999999GD10991+9999999GF100991999999999999999999MA1101765101395REMMET08804/21/24 05:00:02 METAR KNEL 211000Z 32004KT CLR 03/M02 A3005 RMK AO2 SLP173 T00281022 $
0172724090147802024042111007+40033-074350FM-15+0031KNEL V0209999C000052200059N9999999N5+00285-00065101795ADDGA1005+999999999GD10991+9999999GF100991999999999999999999MA1101795101425REMMET08804/21/24 06:00:02 METAR KNEL 211100Z 00000KT CLR 03/M01 A3006 RMK AO2 SLP179 T00281006 $
0247724090147802024042112007+40033-074350FM-15+0031KNEL V0203005N002652200059N9999999N5+00725-00225101815ADDAA124999919GA1005+999999999GD10991+9999999GF100991999999999999999999KA1060M+00781KA2060N+00111MA1101835101465MD1390089+9999REMMET11204/21/24 07:00:02 METAR KNEL 211200Z 30005KT CLR 07/M02 A3007 RMK AO2 SLP181 7//// T00721022 10078 20011 53008 $
0172724090147802024042113007+40033-074350FM-15+0031KNEL V0203205N003152200059N9999999N5+00835-00335101765ADDGA1005+999999999GD10991+9999999GF100991999999999999999999MA1101765101395REMMET08804/21/24 08:00:02 METAR KNEL 211300Z 32006KT CLR 08/M03 A3005 RMK AO2 SLP176 T00831033 $
0172724090147802024042114007+40033-074350FM-15+0031KNEL V0202505N003152200059N9999999N5+00895-00335101765ADDGA1005+999999999GD10991+9999999GF100991999999999999999999MA1101795101425REMMET08804/21/24 09:00:02 METAR KNEL 211400Z 25006KT CLR 09/M03 A3006 RMK AO2 SLP176 T00891033 $
0192724090147802024042115007+40033-074350FM-15+0031KNEL V0202705N003652200059N9999999N5+00945-00335101775ADDGA1005+999999999GD10991+9999999GF100991999999999999999999MA1101795101425MD1890029+9999REMMET09404/21/24 10:00:02 METAR KNEL 211500Z 27007KT CLR 09/M03 A3006 RMK AO2 SLP177 T00941033 58002 $
0183724090147802024042116007+40033-074350FM-15+0031KNEL V0202905N005152200059N9999999N5+00945-00285101715ADDGA1005+999999999GD10991+9999999GF100991999999999999999999MA1101735101355OC100725REMMET09104/21/24 11:00:02 METAR KNEL 211600Z 29010G14KT CLR 09/M03 A3004 RMK AO2 SLP171 T00941028 $
0171724090147802024042117007+40033-074350FM-15+0031KNEL V0202605N005752200059N9999999N5+01005-00335999999ADDGA1005+999999999GD10991+9999999GF100991999999999999999999MA1101635101255REMMET08704/21/24 12:00:02 METAR KNEL 211700Z 26011KT CLR 10/M03 A3001 RMK AO2 SLPNO T01001033 $
0230724090147802024042118007+40033-074350FM-15+0031KNEL V0202905N005152200059N9999999N5+01115-00285101555ADDGA1005+999999999GD10991+9999999GF100991999999999999999999KA1060M+01111KA2060N+00721MA1101565101195MD1890149+9999REMMET10604/21/24 13:00:02 METAR KNEL 211800Z 29010KT CLR 11/M03 A2999 RMK AO2 SLP155 T01111028 10111 20072 58014 $
0183724090147802024042119007+40033-074350FM-15+0031KNEL V0202805N006752200059N9999999N5+01115-00285101455ADDGA1005+999999999GD10991+9999999GF100991999999999999999999MA1101465101085OC100985REMMET09104/21/24 14:00:02 METAR KNEL 211900Z 28013G19KT CLR 11/M03 A2996 RMK AO2 SLP145 T01111028 $
0172724090147802024042120007+40033-074350FM-15+0031KNEL V0202805N005152200059N9999999N5+01115-00285101325ADDGA1005+999999999GD10991+9999999GF100991999999999999999999MA1101325100955REMMET08804/21/24 15:00:02 METAR KNEL 212000Z 28010KT CLR 11/M03 A2992 RMK AO2 SLP132 T01111028 $
0203724090147802024042121007+40033-074350FM-15+0031KNEL V0203105N004152200059N9999999N5+01175-00285101305ADDGA1005+999999999GD10991+9999999GF100991999999999999999999MA1101325100955MD1890309+9999OC100935REMMET09704/21/24 16:00:02 METAR KNEL 212100Z 31008G18KT CLR 12/M03 A2992 RMK AO2 SLP130 T01171028 58030 $
0172724090147802024042122007+40033-074350FM-15+0031KNEL V0203205N002152200059N9999999N5+01115-00285101345ADDGA1005+999999999GD10991+9999999GF100991999999999999999999MA1101355100985REMMET08804/21/24 17:00:02 METAR KNEL 212200Z 32004KT CLR 11/M03 A2993 RMK AO2 SLP134 T01111028 $
0172724090147802024042123007+40033-074350FM-15+0031KNEL V0209999V002152200059N9999999N5+01005-00335101365ADDGA1005+999999999GD10991+9999999GF100991999999999999999999MA1101395101025REMMET08804/21/24 18:00:02 METAR KNEL 212300Z VRB04KT CLR 10/M03 A2994 RMK AO2 SLP136 T01001033 $
0230724090147802024042200007+40033-074350FM-15+0031KNEL V0203205N001552200059N9999999N5+00895-00285101405ADDGA1005+999999999GD10991+9999999GF100991999999999999999999KA1060M+01171KA2060N+00891MA1101425101055MD1390049+9999REMMET10604/21/24 19:00:01 METAR KNEL 220000Z 32003KT CLR 09/M03 A2995 RMK AO2 SLP140 T00891028 10117 20089 53004 $
0172724090147802024042201007+40033-074350FM-15+0031KNEL V0209999C000052200059N9999999N5+00675-00115101445ADDGA1005+999999999GD10991+9999999GF100991999999999999999999MA1101465101085REMMET08804/21/24 20:00:01 METAR KNEL 220100Z 00000KT CLR 07/M01 A2996 RMK AO2 SLP144 T00671011 $
0172724090147802024042202007+40033-074350FM-15+0031KNEL V0202905N001552200059N9999999N5+00565-00065101475ADDGA1005+999999999GD10991+9999999GF100991999999999999999999MA1101495101125REMMET08804/21/24 21:00:01 METAR KNEL 220200Z 29003KT CLR 06/M01 A2997 RMK AO2 SLP147 T00561006 $
0191724090147802024042203007+40033-074350FM-15+0031KNEL V0209999C000052200059N9999999N5+00395+00005101485ADDGA1005+999999999GD10991+9999999GF100991999999999999999999MA1101495101125MD1290119+9999REMMET09304/21/24 22:00:02 METAR KNEL 220300Z 00000KT CLR 04/00 A2997 RMK AO2 SLP148 T00390000 52011 $
0172724090147802024042204007+40033-074350FM-15+0031KNEL V0203105N001552200059N9999999N5+00175-00115101525ADDGA1005+999999999GD10991+9999999GF100991999999999999999999MA1101525101155REMMET08804/21/24 23:00:02 METAR KNEL 220400Z 31003KT CLR 02/M01 A2998 RMK AO2 SLP152 T00171011 $
0208724090147802024042205007+40033-074350FM-15+0031KNEL V0203005N001552200059N9999999N5+00285-00175101555ADDGA1005+999999999GD10991+9999999GF100991999999999999999999KA1240M+00281KA2240N+00281MA1101565101195REMMET09804/22/24 00:00:02 METAR KNEL 220500Z 30003KT CLR 03/M02 A2999 RMK AO2 SLP155 T00281017 400280028 $
0230724090147802024042206007+40033-074350FM-15+0031KNEL V0202905N002152200059N9999999N5+00115-00225101575ADDGA1005+999999999GD10991+9999999GF100991999999999999999999KA1060M+00891KA2060N+00061MA1101595101225MD1390089+9999REMMET10604/22/24 01:00:02 METAR KNEL 220600Z 29004KT CLR 01/M02 A3000 RMK AO2 SLP157 T00111022 10089 20006 53008 $
0172724090147802024042207007+40033-074350FM-15+0031KNEL V0209999C000052200059N9999999N5+00115-00225101595ADDGA1005+999999999GD10991+9999999GF100991999999999999999999MA1101595101225REMMET08804/22/24 02:00:02 METAR KNEL 220700Z 00000KT CLR 01/M02 A3000 RMK AO2 SLP159 T00111022 $
0172724090147802024042208007+40033-074350FM-15+0031KNEL V0202705N001552200059N9999999N5+00005-00225101635ADDGA1005+999999999GD10991+9999999GF100991999999999999999999MA1101665101295REMMET08804/22/24 03:00:02 METAR KNEL 220800Z 27003KT CLR 00/M02 A3002 RMK AO2 SLP163 T00001022 $
0193724090147802024042209007+40033-074350FM-15+0031KNEL V0203105N001552200059N9999999N5-00115-00285101655ADDGA1005+999999999GD10991+9999999GF100991999999999999999999MA1101665101295MD1390089+9999REMMET09504/22/24 04:00:02 METAR KNEL 220900Z 31003KT CLR M01/M03 A3002 RMK AO2 SLP165 T10111028 53008 $
0173724090147802024042210007+40033-074350FM-15+0031KNEL V0202805N001552200059N9999999N5-00115-00285101705ADDGA1005+999999999GD10991+9999999GF100991999999999999999999MA1101735101355REMMET08904/22/24 05:00:02 METAR KNEL 221000Z 28003KT CLR M01/M03 A3004 RMK AO2 SLP170 T10111028 $
0173724090147802024042211007+40033-074350FM-15+0031KNEL V0203005N001552200059N9999999N5-00065-00225101765ADDGA1005+999999999GD10991+9999999GF100991999999999999999999MA1101795101425REMMET08904/22/24 06:00:02 METAR KNEL 221100Z 30003KT CLR M01/M02 A3006 RMK AO2 SLP176 T10061022 $
0230724090147802024042212007+40033-074350FM-15+0031KNEL V0202905N002652200059N9999999N5+00565-00065101835ADDGA1005+999999999GD10991+9999999GF100991999999999999999999KA1060M+00561KA2060N-00221MA1101865101495MD1390139+9999REMMET10604/22/24 07:00:02 METAR KNEL 221200Z 29005KT CLR 06/M01 A3008 RMK AO2 SLP183 T00561006 10056 21022 53013 $
0183724090147802024042213007+40033-074350FM-15+0031KNEL V0203205N004652200059N9999999N5+00945-00285101825ADDGA1005+999999999GD10991+9999999GF100991999999999999999999MA1101835101465OC100775REMMET09104/22/24 08:00:02 METAR KNEL 221300Z 32009G15KT CLR 09/M03 A3007 RMK AO2 SLP182 T00941028 $
0172724090147802024042214007+40033-074350FM-15+0031KNEL V0202905N003652200059N9999999N5+01065-00285101835ADDGA1005+999999999GD10991+9999999GF100991999999999999999999MA1101835101465REMMET08804/22/24 09:00:02 METAR KNEL 221400Z 29007KT CLR 11/M03 A3007 RMK AO2 SLP183 T01061028 $
0166724090147802024042215006+40033-074350FM-15+0031KNEL V02099999999992200059N9999999N5+01285-00335101845ADDGA1005+999999999GD10991+9999999MA1101865101495MD1190079+9999REMMET09404/22/24 10:00:02 METAR KNEL 221500Z      KT CLR 13/M03 A3008 RMK AO2 SLP184 T01281033 51007 $
0146724090147802024042216006+40033-074350FM-15+0031KNEL V02099999999992200059N9999999N5+01335-00335101835ADDGA1005+999999999GD10991+9999999MA1101835101465REMMET08804/22/24 11:00:02 METAR KNEL 221600Z      KT CLR 13/M03 A3007 RMK AO2 SLP183 T01331033 $
0157724090147802024042217007+40033-074350FM-15+0031KNEL V0202805V004659999999N9999999N5+01395-00335101825ADDMA1101835101465OC100935REMMET08704/22/24 12:00:02 METAR KNEL 221700Z 28009G18KT 14/M03 A3007 RMK AO2 SLP182 T01391033 $EQDR01      7SKY009R02      7GAS009
0210724090147802024042218007+40033-074350FM-15+0031KNEL V0209999V002152200059N9999999N5+01505-00285101795ADDGA1005+999999999GD10991+9999999GF100991999999999999999999KA1060M+01501KA2060N+00561MA1101795101425REMMET10004/22/24 13:00:02 METAR KNEL 221800Z VRB04KT CLR 15/M03 A3006 RMK AO2 SLP179 T01501028 10150 20056 $
0183724090147802024042219007+40033-074350FM-15+0031KNEL V0203105N003652200059N9999999N5+01565-00395101755ADDGA1005+999999999GD10991+9999999GF100991999999999999999999MA1101765101395OC100775REMMET09104/22/24 14:00:02 METAR KNEL 221900Z 31007G15KT CLR 16/M04 A3005 RMK AO2 SLP175 T01561039 $
0146724090147802024042220006+40033-074350FM-15+0031KNEL V02099999999992200059N9999999N5+01615-00335101705ADDGA1005+999999999GD10991+9999999MA1101735101355REMMET08804/22/24 15:00:02 METAR KNEL 222000Z      KT CLR 16/M03 A3004 RMK AO2 SLP170 T01611033 $
0192724090147802024042221007+40033-074350FM-15+0031KNEL V0202805N005152200059N9999999N5+01615-00285101695ADDGA1005+999999999GD10991+9999999GF100991999999999999999999MA1101695101325MD1890129+9999REMMET09404/22/24 16:00:02 METAR KNEL 222100Z 28010KT CLR 16/M03 A3003 RMK AO2 SLP169 T01611028 58012 $
0171724090147802024042222007+40033-074350FM-15+0031KNEL V0201305N006252200059N9999999N5+01335+00065101735ADDGA1005+999999999GD10991+9999999GF100991999999999999999999MA1101765101395REMMET08704/22/24 17:00:02 METAR KNEL 222200Z 13012KT CLR 13/01 A3005 RMK AO2 SLP173 T01330006 $
0172724090147802024042223007+40033-074350FM-15+0031KNEL V0201405N005752200059N9999999N5+01175-00065101795ADDGA1005+999999999GD10991+9999999GF100991999999999999999999MA1101795101425REMMET08804/22/24 18:00:02 METAR KNEL 222300Z 14011KT CLR 12/M01 A3006 RMK AO2 SLP179 T01171006 $
0210724090147802024042300007+40033-074350FM-15+0031KNEL V0201705N002652200059N9999999N5+00945-00065101875ADDGA1005+999999999GD10991+9999999GF100991999999999999999999KA1060M+01671KA2060N+00941MA1101905101525REMMET10004/22/24 19:00:01 METAR KNEL 230000Z 17005KT CLR 09/M01 A3009 RMK AO2 SLP187 T00941006 10167 20094 $
0172724090147802024042301007+40033-074350FM-15+0031KNEL V0201705N001552200059N9999999N5+00835-00065101965ADDGA1005+999999999GD10991+9999999GF100991999999999999999999MA1101965101595REMMET08804/22/24 20:00:01 METAR KNEL 230100Z 17003KT CLR 08/M01 A3011 RMK AO2 SLP196 T00831006 $
0172724090147802024042302007+40033-074350FM-15+0031KNEL V0209999C000052200059N9999999N5+00565-00065102005ADDGA1005+999999999GD10991+9999999GF100991999999999999999999MA1102035101665REMMET08804/22/24 21:00:01 METAR KNEL 230200Z 00000KT CLR 06/M01 A3013 RMK AO2 SLP200 T00561006 $
0192724090147802024042303007+40033-074350FM-15+0031KNEL V0209999C000052200059N9999999N5+00335-00115102015ADDGA1005+999999999GD10991+9999999GF100991999999999999999999MA1102035101665MD1190219+9999REMMET09404/22/24 22:00:02 METAR KNEL 230300Z 00000KT CLR 03/M01 A3013 RMK AO2 SLP201 T00331011 51021 $
0172724090147802024042304007+40033-074350FM-15+0031KNEL V0209999C000052200059N9999999N5+00225-00115102035ADDGA1005+999999999GD10991+9999999GF100991999999999999999999MA1102075101695REMMET08804/22/24 23:00:02 METAR KNEL 230400Z 00000KT CLR 02/M01 A3014 RMK AO2 SLP203 T00221011 $
0208724090147802024042305007+40033-074350FM-15+0031KNEL V0209999C000052200059N9999999N5+00115-00175102055ADDGA1005+999999999GD10991+9999999GF100991999999999999999999KA1240M+00111KA2240N+00111MA1102075101695REMMET09804/23/24 00:00:02 METAR KNEL 230500Z 00000KT CLR 01/M02 A3014 RMK AO2 SLP205 T00111017 400110011 $
0230724090147802024042306007+40033-074350FM-15+0031KNEL V0209999C000052200059N9999999N5+00175-00115102045ADDGA1005+999999999GD10991+9999999GF100991999999999999999999KA1060M+01001KA2060N+00061MA1102075101695MD1390049+9999REMMET10604/23/24 01:00:02 METAR KNEL 230600Z 00000KT CLR 02/M01 A3014 RMK AO2 SLP204 T00171011 10100 20006 53004 $
0173724090147802024042307007+40033-074350FM-15+0031KNEL V0209999C000052200059N9999999N5-00065-00175102045ADDGA1005+999999999GD10991+9999999GF100991999999999999999999MA1102075101695REMMET08904/23/24 02:00:02 METAR KNEL 230700Z 00000KT CLR M01/M02 A3014 RMK AO2 SLP204 T10061017 $
0172724090147802024042308007+40033-074350FM-15+0031KNEL V0209999C000052200059N9999999N5+00005-00225102055ADDGA1005+999999999GD10991+9999999GF100991999999999999999999MA1102075101695REMMET08804/23/24 03:00:02 METAR KNEL 230800Z 00000KT CLR 00/M02 A3014 RMK AO2 SLP205 T00001022 $
0193724090147802024042309007+40033-074350FM-15+0031KNEL V0209999C000052200059N9999999N5-00175-00285102085ADDGA1005+999999999GD10991+9999999GF100991999999999999999999MA1102105101735MD1390019+9999REMMET09504/23/24 04:00:02 METAR KNEL 230900Z 00000KT CLR M02/M03 A3015 RMK AO2 SLP208 T10171028 53001 $
0173724090147802024042310007+40033-074350FM-15+0031KNEL V0209999C000052200059N9999999N5-00115-00225102125ADDGA1005+999999999GD10991+9999999GF100991999999999999999999MA1102135101765REMMET08904/23/24 05:00:02 METAR KNEL 231000Z 00000KT CLR M01/M02 A3016 RMK AO2 SLP212 T10111022 $
0172724090147802024042311007+40033-074350FM-15+0031KNEL V0209999C000052200059N9999999N5+00115-00065102165ADDGA1005+999999999GD10991+9999999GF100991999999999999999999MA1102175101795REMMET08804/23/24 06:00:02 METAR KNEL 231100Z 00000KT CLR 01/M01 A3017 RMK AO2 SLP216 T00111006 $
0229724090147802024042312007+40033-074350FM-15+0031KNEL V0209999C000052200059N9999999N5+00725+00225102205ADDGA1005+999999999GD10991+9999999GF100991999999999999999999KA1060M+00721KA2060N-00171MA1102205101835MD1390109+9999REMMET10504/23/24 07:00:02 METAR KNEL 231200Z 00000KT CLR 07/02 A3018 RMK AO2 SLP220 T00720022 10072 21017 53010 $
0171724090147802024042313007+40033-074350FM-15+0031KNEL V0201505N003152200059N9999999N5+01225+00065102225ADDGA1005+999999999GD10991+9999999GF100991999999999999999999MA1102245101865REMMET08704/23/24 08:00:02 METAR KNEL 231300Z 15006KT CLR 12/01 A3019 RMK AO2 SLP222 T01220006 $
0171724090147802024042314007+40033-074350FM-15+0031KNEL V0201105N002652200059N9999999N5+01445+00115102185ADDGA1005+999999999GD10991+9999999GF100991999999999999999999MA1102205101835REMMET08704/23/24 09:00:02 METAR KNEL 231400Z 11005KT CLR 14/01 A3018 RMK AO2 SLP218 T01440011 $
0146724090147802024042315007+40033-074350FM-15+0031KNEL V0202105N002659999999N9999999N5+01615-00175102105ADDMA1102105101735REMMET08404/23/24 10:00:02 METAR KNEL 231500Z 21005KT 16/M02 A3015 RMK AO2 SLP210 T01611017 $EQDR01      7SKY009R02      7GAS009
0146724090147802024042316006+40033-074350FM-15+0031KNEL V02099999999992200059N9999999N5+01785-00175101995ADDGA1005+999999999GD10991+9999999MA1102005101625REMMET08804/23/24 11:00:02 METAR KNEL 231600Z      KT CLR 18/M02 A3012 RMK AO2 SLP199 T01781017 $
0182724090147802024042317007+40033-074350FM-15+0031KNEL V0201205N007252200059N9999999N5+01835+00005101875ADDGA1005+999999999GD10991+9999999GF100991999999999999999999MA1101905101525OC101245REMMET09004/23/24 12:00:02 METAR KNEL 231700Z 12014G24KT CLR 18/00 A3009 RMK AO2 SLP187 T01830000 $
0220724090147802024042318007+40033-074350FM-15+0031KNEL V0201105N007252200059N9999999N5+01785+00175101795ADDGA1005+999999999GD10991+9999999GF100991999999999999999999KA1060M+01831KA2060N+00721MA1101795101425OC101085REMMET10204/23/24 13:00:02 METAR KNEL 231800Z 11014G21KT CLR 18/02 A3006 RMK AO2 SLP179 T01780017 10183 20072 $
0182724090147802024042319007+40033-074350FM-15+0031KNEL V0201405N007752200059N9999999N5+01835+00115101725ADDGA1005+999999999GD10991+9999999GF100991999999999999999999MA1101735101355OC101245REMMET09004/23/24 14:00:02 METAR KNEL 231900Z 14015G24KT CLR 18/01 A3004 RMK AO2 SLP172 T01830011 $
0214724090147802024042320007+40033-074350FM-15+0031KNEL V0201605N007752200059N9999999N5+01785+00005101665ADDGA1005+999999999GD10991+9999999GF100991999999999999999999MA1101665101295OC101345OD149901331140REMMET10804/23/24 15:00:02 METAR KNEL 232000Z 16015G26KT CLR 18/00 A3002 RMK AO2 PK WND 14026/1951 SLP166 T01780000 $
0235724090147802024042321007+40033-074350FM-15+0031KNEL V0201605N009352200059N9999999N5+01565-00065101635ADDGA1005+999999999GD10991+9999999GF100991999999999999999999MA1101665101295MD1690219+9999OC101295OD149901331160REMMET11504/23/24 16:00:02 METAR KNEL 232100Z 16018G25KT CLR 16/M01 A3002 RMK AO2 PK WND 16026/2004 SLP163 T01561006 56021 $
0183724090147802024042322007+40033-074350FM-15+0031KNEL V0201605N007252200059N9999999N5+01445-00285101635ADDGA1005+999999999GD10991+9999999GF100991999999999999999999MA1101635101255OC101135REMMET09104/23/24 17:00:02 METAR KNEL 232200Z 16014G22KT CLR 14/M03 A3001 RMK AO2 SLP163 T01441028 $
0183724090147802024042323007+40033-074350FM-15+0031KNEL V0201705N006752200059N9999999N5+01225-00115101605ADDGA1005+999999999GD10991+9999999GF100991999999999999999999MA1101635101255OC101035REMMET09104/23/24 18:00:02 METAR KNEL 232300Z 17013G20KT CLR 12/M01 A3001 RMK AO2 SLP160 T01221011 $
0230724090147802024042400007+40033-074350FM-15+0031KNEL V0201705N004652200059N9999999N5+01115-00285101615ADDGA1005+999999999GD10991+9999999GF100991999999999999999999KA1060M+01891KA2060N+01061MA1101635101255MD1890069+9999REMMET10604/23/24 19:00:01 METAR KNEL 240000Z 17009KT CLR 11/M03 A3001 RMK AO2 SLP161 T01111028 10189 20106 58006 $
0172724090147802024042401007+40033-074350FM-15+0031KNEL V0201605N004152200059N9999999N5+01005-00175101615ADDGA1005+999999999GD10991+9999999GF100991999999999999999999MA1101635101255REMMET08804/23/24 20:00:01 METAR KNEL 240100Z 16008KT CLR 10/M02 A3001 RMK AO2 SLP161 T01001017 $
0172724090147802024042402007+40033-074350FM-15+0031KNEL V0201605N003152200059N9999999N5+00945-00065101585ADDGA1005+999999999GD10991+9999999GF100991999999999999999999MA1101595101225REMMET08804/23/24 21:00:01 METAR KNEL 240200Z 16006KT CLR 09/M01 A3000 RMK AO2 SLP158 T00941006 $
0192724090147802024042403007+40033-074350FM-15+0031KNEL V0201705N003652200059N9999999N5+00895-00065101535ADDGA1005+999999999GD10991+9999999GF100991999999999999999999MA1101565101195MD1890019+9999REMMET09404/23/24 22:00:01 METAR KNEL 240300Z 17007KT CLR 09/M01 A2999 RMK AO2 SLP153 T00891006 58001 $
0171724090147802024042404007+40033-074350FM-15+0031KNEL V0201805N003152200059N9999999N5+00945+00005101475ADDGA1005+999999999GD10991+9999999GF100991999999999999999999MA1101495101125REMMET08704/23/24 23:00:01 METAR KNEL 240400Z 18006KT CLR 09/00 A2997 RMK AO2 SLP147 T00940000 $
0207724090147802024042405007+40033-074350FM-15+0031KNEL V0201505N002652200059N9999999N5+00895+00065101395ADDGA1005+999999999GD10991+9999999GF100991999999999999999999KA1240M+00891KA2240N+00891MA1101395101025REMMET09704/24/24 00:00:01 METAR KNEL 240500Z 15005KT CLR 09/01 A2994 RMK AO2 SLP139 T00890006 400890089 $
0229724090147802024042406007+40033-074350FM-15+0031KNEL V0201505N003152200059N9999999N5+00945+00115101245ADDGA1005+999999999GD10991+9999999GF100991999999999999999999KA1060M+01111KA2060N+00831MA1101255100885MD1890209+9999REMMET10504/24/24 01:00:01 METAR KNEL 240600Z 15006KT CLR 09/01 A2990 RMK AO2 SLP124 T00940011 10111 20083 58020 $
0171724090147802024042407007+40033-074350FM-15+0031KNEL V0201805N003652200059N9999999N5+01065+00175101165ADDGA1005+999999999GD10991+9999999GF100991999999999999999999MA1101195100815REMMET08704/24/24 02:00:01 METAR KNEL 240700Z 18007KT CLR 11/02 A2988 RMK AO2 SLP116 T01060017 $
0215724090147802024042408007+40033-074350FM-15+0031KNEL V0202005N001552200059N9999999N5+01115+00285101075ADDGA1025+036585999GD11991+0365859GE19AGL   +99999+99999GF102995999999036581999999MA1101085100715REMMET09004/24/24 03:00:01 METAR KNEL 240800Z 20003KT FEW120 11/03 A2985 RMK AO2 SLP107 T01110028 $EQDD01      0ADE726
0191724090147802024042409007+40033-074350FM-15+0031KNEL V0202105N001552200059N9999999N5+01005+00335101025ADDGA1005+999999999GD10991+9999999GF100991999999999999999999MA1101055100685MD1690319+9999REMMET09304/24/24 04:00:01 METAR KNEL 240900Z 21003KT CLR 10/03 A2984 RMK AO2 SLP102 T01000033 56031 $
0196724090147802024042410007+40033-074350FM-15+0031KNEL V0209999C00005036585MN9999999N5+01005+00395101005ADDGA1075+036585999GD13991+0365859GE19AGL   +99999+99999GF199999999999036581999999MA1101025100645REMMET09004/24/24 05:00:01 METAR KNEL 241000Z 00000KT BKN120 10/04 A2983 RMK AO2 SLP100 T01000039 $
0196724090147802024042411007+40033-074350FM-15+0031KNEL V0209999C00005036585MN9999999N5+01005+00445101045ADDGA1075+036585999GD13991+0365859GE19AGL   +99999+99999GF199999999999036581999999MA1101055100685REMMET09004/24/24 06:00:02 METAR KNEL 241100Z 00000KT BKN120 10/04 A2984 RMK AO2 SLP104 T01000044 $
0254724090147802024042412007+40033-074350FM-15+0031KNEL V0209999C00005033535MN9999999N5+01065+00565101045ADDGA1085+033535999GD14991+0335359GE19AGL   +99999+99999GF199999999999033531999999KA1060M+01111KA2060N+00941MA1101055100685MD1590049+9999REMMET10804/24/24 07:00:02 METAR KNEL 241200Z 00000KT OVC110 11/06 A2984 RMK AO2 SLP104 T01060056 10111 20094 55004 $
0196724090147802024042413007+40033-074350FM-15+0031KNEL V0202505N00315028965MN9999999N5+01285+00675101045ADDGA1075+028965999GD13991+0289659GE19AGL   +99999+99999GF199999999999028961999999MA1101055100685REMMET09004/24/24 08:00:02 METAR KNEL 241300Z 25006KT BKN095 13/07 A2984 RMK AO2 SLP104 T01280067 $
0234724090147802024042414007+40033-074350FM-15+0031KNEL V0202605N00265028965MN9999999N5+01395+00725101075ADDGA1075+028965999GA2075+036585999GD13991+0289659GD23991+0365859GE19AGL   +99999+99999GF199999999999028961999999MA1101085100715REMMET09704/24/24 09:00:02 METAR KNEL 241400Z 26005KT BKN095 BKN120 14/07 A2985 RMK AO2 SLP107 T01390072 $
0202724090147802024042415007+40033-074350FM-15+0031KNEL V0202605N004652200059N9999999N5+01785+00725101085ADDGA1005+999999999GD10991+9999999GF100991999999999999999999MA1101085100715MD1390039+9999OC101135REMMET09604/24/24 10:00:02 METAR KNEL 241500Z 26009G22KT CLR 18/07 A2985 RMK AO2 SLP108 T01780072 53003 $
0226724090147802024042416007+40033-074350FM-15+0031KNEL V0202905N005152200059N9999999N5+01945+00725101075ADDGA1045+033535999GD12991+0335359GE19AGL   +99999+99999GF104995999999033531999999MA1101085100715OC100885REMMET09304/24/24 11:00:02 METAR KNEL 241600Z 29010G17KT SCT110 19/07 A2985 RMK AO2 SLP107 T01940072 $EQDD01      0ADE726
0245724090147802024042417007+40033-074350FM-15+0031KNEL V0202805N00775018295MN9999999N5+02115+00615101035ADDGA1075+018295999GA2075+033535999GD13991+0182959GD23991+0335359GE19AGL   +99999+99999GF199999999999018291999999MA1101055100685OC101185REMMET10004/24/24 12:00:02 METAR KNEL 241700Z 28015G23KT BKN060 BKN110 21/06 A2984 RMK AO2 SLP103 T02110061 $
0316724090147802024042418007+40033-074350FM-15+0031KNEL V0202805N007252200059N9999999N5+02225+00505101025ADDGA1025+021345999GD11991+0213459GE19AGL   +99999+99999GF102995999999021341999999KA1060M+02221KA2060N+01061MA1101055100685MD1890039+9999OC101395OD149901391270REMMET12904/24/24 13:00:02 METAR KNEL 241800Z 28014G27KT FEW070 22/05 A2984 RMK AO2 PK WND 27027/1757 SLP102 T02220050 10222 20106 58003 $EQDD01      0ADE726
0296724090147802024042419007+40033-074350FM-15+0031KNEL V0202605N006252200059N9999999N5+02335+00445101025ADDGA1025+021345999GA2045+030485999GD11991+0213459GD22991+0304859GE19AGL   +99999+99999GF104995999999021341999999MA1101055100685OC101185OD149901391270REMMET11804/24/24 14:00:02 METAR KNEL 241900Z 26012G23KT FEW070 SCT100 23/04 A2984 RMK AO2 PK WND 27027/1834 SLP102 T02330044 $EQDD01      0ADE726
0277724090147802024042420007+40033-074350FM-15+0031KNEL V0202805N00625030485MN9999999N5+02285+00445101025ADDGA1045+022865999GA2075+030485999GD12991+0228659GD23991+0304859GE19AGL   +99999+99999GF199999999999022861999999MA1101055100685OC100985OD149901331270REMMET11804/24/24 15:00:02 METAR KNEL 242000Z 28012G19KT SCT075 BKN100 23/04 A2984 RMK AO2 PK WND 27026/1903 SLP102 T02280044 $
0265724090147802024042421007+40033-074350FM-15+0031KNEL V0203205N00415030485MN9999999N5+02115+00395101105ADDGA1025+024385999GA2075+030485999GD11991+0243859GD23991+0304859GE19AGL   +99999+99999GF199999999999024381999999MA1101125100755MD1790019+9999OC100985REMMET10604/24/24 16:00:02 METAR KNEL 242100Z 32008G19KT FEW080 BKN100 21/04 A2986 RMK AO2 SLP110 T02110039 57001 $
0245724090147802024042422007+40033-074350FM-15+0031KNEL V0202905N00675030485MN9999999N5+02115+00505101195ADDGA1025+022865999GA2075+030485999GD11991+0228659GD23991+0304859GE19AGL   +99999+99999GF199999999999022861999999MA1101225100855OC100985REMMET10004/24/24 17:00:02 METAR KNEL 242200Z 29013G19KT FEW075 BKN100 21/05 A2989 RMK AO2 SLP119 T02110050 $
0196724090147802024042423007+40033-074350FM-15+0031KNEL V0202905N00365030485MN9999999N5+01945+00505101285ADDGA1085+030485999GD14991+0304859GE19AGL   +99999+99999GF199999999999030481999999MA1101295100915REMMET09004/24/24 18:00:02 METAR KNEL 242300Z 29007KT OVC100 19/05 A2991 RMK AO2 SLP128 T01940050 $
0256724090147802024042500006+40033-074350FM-15+0031KNEL V0203105N00215021345MN9999999N5+01835+00505101425ADDGA1075+021345999GA2075+024385999GA3085+033535999GD13991+0213459GD23991+0243859GD34991+0335359MA1101425101055MD1290269+9999REMMET12204/24/24 19:00:01 METAR KNEL 250000Z 31004KT BKN070 BKN080 OVC110 18/05 A2995 RMK AO2 SLP142 T01830050 10233 20183 52026 $
0196724090147802024042501007+40033-074350FM-15+0031KNEL V0203505N00365021345MN9999999N5+01785+00505101575ADDGA1085+021345999GD14991+0213459GE19AGL   +99999+99999GF199999999999021341999999MA1101595101225REMMET09004/24/24 20:00:01 METAR KNEL 250100Z 35007KT OVC070 18/05 A3000 RMK AO2 SLP157 T01780050 $
0215724090147802024042502007+40033-074350FM-15+0031KNEL V0209999V002652200059N9999999N5+01615+00445101705ADDGA1045+033535999GD12991+0335359GE19AGL   +99999+99999GF104995999999033531999999MA1101735101355REMMET09004/24/24 21:00:01 METAR KNEL 250200Z VRB05KT SCT110 16/04 A3004 RMK AO2 SLP170 T01610044 $EQDD01      0ADE726
0215724090147802024042503007+40033-074350FM-15+0031KNEL V0209999V002152200059N9999999N5+01505+00505101785ADDGA1025+033535999GD11991+0335359GE19AGL   +99999+99999GF102995999999033531999999MA1101795101425REMMET09004/24/24 22:00:01 METAR KNEL 250300Z VRB04KT FEW110 15/05 A3006 RMK AO2 SLP178 T01500050 $EQDD01      0ADE726
0196724090147802024042504007+40033-074350FM-15+0031KNEL V0203605N00155033535MN9999999N5+01445+00505101845ADDGA1085+033535999GD14991+0335359GE19AGL   +99999+99999GF199999999999033531999999MA1101865101495REMMET09004/24/24 23:00:01 METAR KNEL 250400Z 36003KT OVC110 14/05 A3008 RMK AO2 SLP184 T01440050 $
0232724090147802024042505007+40033-074350FM-15+0031KNEL V0209999V00215033535MN9999999N5+01335+00395101915ADDGA1085+033535999GD14991+0335359GE19AGL   +99999+99999GF199999999999033531999999KA1240M+01331KA2240N+01331MA1101935101565REMMET10004/25/24 00:00:01 METAR KNEL 250500Z VRB04KT OVC110 13/04 A3010 RMK AO2 SLP191 T01330039 401330133 $
0234724090147802024042506007+40033-074350FM-15+0031KNEL V0203605N00215030485MN9999999N5+01225+00395101955ADDGA1085+030485999GD14991+0304859GE19AGL   +99999+99999GF199999999999030481999999KA1060M+01831KA2060N+01221MA1101965101595REMMET10204/25/24 01:00:01 METAR KNEL 250600Z 36004KT OVC100 12/04 A3011 RMK AO2 SLP195 T01220039 10183 20122 $
0171724090147802024042507007+40033-074350FM-15+0031KNEL V0209999V002152200059N9999999N5+01115+00335102065ADDGA1005+999999999GD10991+9999999GF100991999999999999999999MA1102105101735REMMET08704/25/24 02:00:01 METAR KNEL 250700Z VRB04KT CLR 11/03 A3015 RMK AO2 SLP206 T01110033 $
0221724090147802024042509007+40033-074350FM-15+0031KNEL V0209999V001552200059N9999999N5+00835+00005102265ADDGA1025+025915999GD11991+0259159GE19AGL   +99999+99999GF102995999999025911999999MA1102305101935REMMET09604/25/24 04:00:01 METAR KNEL 250900Z VRB03KT FEW085 08/00 A3021 RMK AO2 SLP226 6//// T00830000 $EQDD01      0ADE726
0207724090147802024042510007+40033-074350FM-15+0031KNEL V0200505N00625027435MN9999999N5+00785+00005102325ADDGA1075+027435999GD13991+0274359GE19AGL   +99999+99999GF199999999999027431999999MA1102345101965OC100985REMMET09304/25/24 05:00:01 METAR KNEL 251000Z 05012G19KT BKN090 08/00 A3022 RMK AO2 SLP232 T00780000 $
0208724090147802024042511007+40033-074350FM-15+0031KNEL V0200505N00415027435MN9999999N5+00785-00115102455ADDGA1085+027435999GD14991+0274359GE19AGL   +99999+99999GF199999999999027431999999MA1102475102105OC100775REMMET09404/25/24 06:00:02 METAR KNEL 251100Z 05008G15KT OVC090 08/M01 A3026 RMK AO2 SLP245 T00781011 $
0307724090147802024042512007+40033-074350FM-15+0031KNEL V0200505N00575025915MN9999999N5+00835-00115102565ADDAA124999919GA1025+009455999GA2075+025915999GD11991+0094559GD23991+0259159GE19AGL   +99999+99999GF199999999999009451999999KA1060M+01331KA2060N+00781MA1102575102205OC100885REMMET12504/25/24 07:00:02 METAR KNEL 251200Z 05011G17KT FEW031 BKN085 08/M01 A3029 RMK AO2 SLP256 6//// 7//// T00831011 10133 20078 $
0265724090147802024042513007+40033-074350FM-15+0031KNEL V0200705N007752200059N9999999N5+00945-00175102665ADDGA1025+019815999GA2045+027435999GD11991+0198159GD22991+0274359GE19AGL   +99999+99999GF104995999999019811999999MA1102685102305OC101035REMMET10104/25/24 08:00:02 METAR KNEL 251300Z 07015G20KT FEW065 SCT090 09/M02 A3032 RMK AO2 SLP266 T00941017 $EQDD01      0ADE726
0246724090147802024042514007+40033-074350FM-15+0031KNEL V0200805V00465027435MN9999999N5+00945-00225102735ADDGA1045+022865999GA2085+027435999GD12991+0228659GD24991+0274359GE19AGL   +99999+99999GF199999999999022861999999MA1102745102375OC100885REMMET10104/25/24 09:00:02 METAR KNEL 251400Z 08009G17KT SCT075 OVC090 09/M02 A3034 RMK AO2 SLP273 T00941022 $
0228724090147802024042515007+40033-074350FM-15+0031KNEL V0200905N00465025915MN9999999N5+00945-00225102765ADDGA1075+025915999GD13991+0259159GE19AGL   +99999+99999GF199999999999025911999999MA1102785102405MD1190289+9999OC100885REMMET10004/25/24 10:00:02 METAR KNEL 251500Z 09009G17KT BKN085 09/M02 A3035 RMK AO2 SLP276 T00941022 51028 $
0208724090147802024042516007+40033-074350FM-15+0031KNEL V0201005N00465024385MN9999999N5+01005-00285102745ADDGA1085+024385999GD14991+0243859GE19AGL   +99999+99999GF199999999999024381999999MA1102745102375OC100985REMMET09404/25/24 11:00:02 METAR KNEL 251600Z 10009G19KT OVC080 10/M03 A3034 RMK AO2 SLP274 T01001028 $
0160724090147802024042517006+40033-074350FM-15+0031KNEL V0201005N005752200059N9999999N5+01005-00285102675ADDGA1045+024385999GD12991+0243859MA1102685102305OC100935REMMET09404/25/24 12:00:02 METAR KNEL 251700Z 10011G18KT SCT080 10/M03 A3032 RMK AO2 SLP267 T01001028 $
0255724090147802024042518007+40033-074350FM-15+0031KNEL V0200905N00575022865MN9999999N5+01065-00335102675ADDGA1075+022865999GD13991+0228659GE19AGL   +99999+99999GF199999999999022861999999KA1060M+01111KA2060N+00831MA1102685102305MD1890069+9999REMMET10904/25/24 13:00:02 METAR KNEL 251800Z 09011KT BKN075 11/M03 A3032 RMK AO2 SLP267 T01061033 10111 20083 58006 $
0227724090147802024042519007+40033-074350FM-15+0031KNEL V0201405N005152200059N9999999N5+01115-00335102615ADDGA1045+022865999GD12991+0228659GE19AGL   +99999+99999GF104995999999022861999999MA1102615102235OC100885REMMET09404/25/24 14:00:02 METAR KNEL 251900Z 14010G17KT SCT075 11/M03 A3030 RMK AO2 SLP261 T01111033 $EQDD01      0ADE726
0172724090147802024042520007+40033-074350FM-15+0031KNEL V0201105N003652200059N9999999N5+01115-00285102575ADDGA1005+999999999GD10991+9999999GF100991999999999999999999MA1102575102205REMMET08804/25/24 15:00:02 METAR KNEL 252000Z 11007KT CLR 11/M03 A3029 RMK AO2 SLP257 T01111028 $
