0248724084547602025010100564+40187-074125FM-15+004899999V0200901N005710121919N016093199+01001+00891100331ADDAA101000021AW1611GD13991+0121919GD23991+0152419GD34991+0228619GE19AGL   +99999+99999GF199999999999012191999999MA1100341999999REMMET111METAR KBLM 010056Z AUTO 09011KT 10SM -RA BKN040 BKN050 OVC075 10/09 A2963 RMK AO2 RAB27 SLP033 P0000 T01000089=
0266724084547602025010101404+40187-074125FM-16+004899999V0200901N005110140219N011265199+01001+00901999999ADDAA101000531AW1121AW2611GD12991+0082319GD23991+0140219GD34991+0259119GE19AGL   +99999+99999GF199999999999008231999999MA1100171999999OC100931REMMET115SPECI KBLM 010140Z AUTO 09010G18KT 7SM VCTS -RA SCT027 BKN046 OVC085 10/09 A2958 RMK AO2 LTG DSNT SE-W TSB34 P0002=
0307724084547602025010101484+40187-074125FM-16+004899999V0201001N008210082319N009656199+01101+00901999999ADDAA101000731AW1101AW2121AW3611GD11991+0051819GD23991+0082319GD34991+0182919GE19AGL   +99999+99999GF199999999999005181999999MA1100171999999OC101341OD149901331120REMMET136SPECI KBLM 010148Z AUTO 10016G26KT 6SM VCTS -RA BR FEW017 BKN027 OVC060 11/09 A2958 RMK AO2 PK WND 12026/0143 LTG DSNT SE-W TSB34 P0003=
0307724084547602025010101564+40187-074125FM-15+004899999V0201201N005110082319N012875199+01001+00941100211ADDAA101000731AW1921GD11991+0051819GD23991+0082319GD34991+0198119GE19AGL   +99999+99999GF199999999999005181999999MA1100201999999OC100981OD149901331120REMMET148METAR KBLM 010156Z AUTO 12010G19KT 8SM -TSRA FEW017 BKN027 OVC065 10/09 A2959 RMK AO2 PK WND 12026/0143 LTG DSNT ALQDS TSB34 SLP021 P0003 T01000094=
0281724084547602025010102234+40187-074125FM-16+004899999V0202201N005710018319N009656199+01101+01001999999ADDAA101001231AW1101AW2121AW3621GD13991+0024411GD23991+0067119GD34991+0137219GE19AGL   +99999+99999GF199999999999002441999999MA1100201999999OC100771REMMET124SPECI KBLM 010223Z AUTO 22011G15KT 6SM VCTS RA BR BKN008 BKN022 OVC045 11/10 A2959 RMK AO2 LTG DSNT ALQDS CIG 006V014 P0005=
0343724084547602025010102564+40187-074125FM-15+004899999V0201601N003610015219N009656199+01061+01061100121ADDAA101002231AA203003091AW1101AW2121AW3621GD13991+0024411GD23991+0033519GD34991+0182919GE19AGL   +99999+99999GF199999999999002441999999MA1100101999999MD1610441+9999REMMET150METAR KBLM 010256Z AUTO 16007KT 6SM VCTS RA BR BKN008 BKN011 OVC060 11/11 A2956 RMK AO2 LTG DSNT ALQDS CIG 005V009 SLP012 P0009 60012 T01060106 56044=EQDQ01  00308PRCP03
0260724084547602025010103014+40187-074125FM-16+004899999V0201601N003110015219N009656199+01101+01101999999ADDAA101000231AW1101AW2121AW3611GD13991+0024411GD24991+0198119GE19AGL   +99999+99999GF199999999999002441999999MA1100071999999REMMET126SPECI KBLM 010301Z AUTO 16006KT 6SM VCTS -RA BR BKN008 OVC065 11/11 A2955 RMK AO2 LTG DSNT NE-SE TSE0258B01 CIG 005V015 P0001=
0262724084547602025010103094+40187-074125FM-16+004899999V0201601N003610213419N016093199+01101+01101999999ADDAA101000231AW1121AW2611GD12991+0024419GD23991+0213419GD33991+0289619GE19AGL   +99999+99999GF199999999999002441999999MA1100071999999REMMET119SPECI KBLM 010309Z AUTO 16007KT 10SM VCTS -RA SCT008 BKN070 BKN095 11/11 A2955 RMK AO2 LTG DSNT NE-SE TSE0258B01 P0001=
0256724084547602025010103224+40187-074125FM-16+004899999V0201301N003112200059N016093199+01001+01001999999ADDAA101000231GD11991+0213419GD22991+0289619GE19AGL   +99999+99999GF104995999999021341999999MA1099971999999REMMET121SPECI KBLM 010322Z AUTO 13006KT 10SM FEW070 SCT095 10/10 A2952 RMK AO2 LTG DSNT NE AND E TSE0258B01E16RAE19 PRESFR P0001=EQDD01      0ADE726
0166724084547602025010103564+40187-074125FM-15+004899999V0201401N003112200019N014484199+00941+00941099941ADDAA101000231GF100991999999999999999999MA1099931999999REMMET102METAR KBLM 010356Z AUTO 14006KT 9SM CLR 09/09 A2951 RMK AO2 TSE0258B01E16RAE19 SLP994 P0001 T00940094=
0226724084547602025010104564+40187-074125FM-15+004899999V0202001N001512200059N016093199+00891+00891099871ADDGD11991+0213419GE19AGL   +99999+99999GF102995999999021341999999KA1240M+01111KA2240N+00061MA1099861999999REMMET091METAR KBLM 010456Z AUTO 20003KT 10SM FEW070 09/09 A2949 RMK AO2 SLP987 T00890089 401110006=EQDD01      0ADE726
0944724084547602025010104596+40183-074133SOD  +0048KBLM V020999999999999999999999999999+99999+99999999999ADDAA124003396AT1AW03TS  1AT2AW16RA  1AT3AW13BR  1AX1016246AX2036246KA1240M+01115KA2240N+00065MG1999999099864OE11240134112020435OE22240098311020445OE33240030499999995REMSOD71824 HR PRECIPITATION (IN): 0.13 WEATHER(CODE):3,1  24 HR MAX TEMP (F):52 24 HR MAX TEMP TIME (LST):1431 24 HR MIN TEMP (F):33 24 HR MIN TEMP TIME (LST):0738 MINIMUM SEA LEVEL PRESSURE:29.49 TIME OF OCCURRENCE:2359 PEAK WIND SPEED (MPH):30  PEAK WIND DIR (DEG):120 PEAK WIND TIME (LST):2043  FASTEST 2MIN SPEED (MPH):22 FASTEST 2MIN DIR (DEG):110 FASTEST 2MIN TIME (LST):2044 AVERAGE WIND SPEED (MPH): 6.8 24 HR AVG TEMP (F):43 HEATING DEGREE DAYS: 22 COOLING DEGREE DAYS:  0 LATEST DAY MAX TEMP (0700-1900 LST): 52 LATEST NIGHT MIN TEMP(1900-0800 LST):33 HOURLY INCREMENTAL PRECIPITATION VALUES (IN):0.00 0.00 0.00 0.00 0.00 0.00 0.00 0.00 0.00 0.00 0.00 0.00 0.00 0.00 0.00 0.00 0.00 0.00 0.00T     0.03 0.10T     0.00EQDR01  0.137AAP092R02   3,17AXW092R03   3,17AXW092
0285724084547602025010105567+40183-074133FM-15+0048KBLM V0202505N001552200059N0160935N5+00785+00785099865ADDAA101000395AA206003691GA1005+999999999GD10991+9999999GF100991999999999999999999KA1060M+01061KA2060N+00781MA1099865099305MD1690269+9999REMMET12001/01/25 00:56:02 METAR KBLM 010556Z 25003KT 10SM CLR 08/08 A2949 RMK AO2 SLP986 P0001 60014 T00780078 10106 20078 56026EQDQ01  00358PRCP06
0185724084547602025010106567+40183-074133FM-15+0048KBLM V0202305N003652200059N0160935N5+00785+00785099935ADDAA101000095GA1005+999999999GD10991+9999999GF100991999999999999999999MA1099935099365REMMET09001/01/25 01:56:02 METAR KBLM 010656Z 23007KT 10SM CLR 08/08 A2951 RMK AO2 SLP993 T00780078
0212724084547602025010107057+40183-074133FM-15+0048KBLM V0202205N003652200059N0160935N5+00805+00805999999ADDAA101000095GA1045+002745999GD12991+0027459GE19AGL   +99999+99999GF104995999999002741999999MA1099975099405REMMET07601/01/25 02:05:02 METAR KBLM 010705Z 22007KT 10SM SCT009 08/08 A2952 RMK AO2EQDD01      0ADE726
0193724084547602025010107137+40183-074133FM-15+0048KBLM V0202305N00415002135MN0160935N5+00805+00805999999ADDAA101000095GA1075+002135999GD13991+0021359GE19AGL   +99999+99999GF199999999999002131999999MA1099975099405REMMET07601/01/25 02:13:02 METAR KBLM 010713Z 23008KT 10SM BKN007 08/08 A2952 RMK AO2
0209724084547602025010107567+40183-074133FM-15+0048KBLM V0202405N00415002135MN0144845N5+00785+00785099945ADDAA101000095GA1085+002135999GD14991+0021359GE19AGL   +99999+99999GF199999999999002131999999MA1099935099365REMMET09201/01/25 02:56:02 METAR KBLM 010756Z 24008KT 9SM OVC007 08/08 A2951 RMK AO2 SLP994 T00780078
0192724084547602025010108037+40183-074133FM-15+0048KBLM V0202505N00315001525MN0144845N5+00805+00805999999ADDAA101000095GA1085+001525999GD14991+0015259GE19AGL   +99999+99999GF199999999999001521999999MA1099935099365REMMET07501/01/25 03:03:02 METAR KBLM 010803Z 25006KT 9SM OVC005 08/08 A2951 RMK AO2
0249724084547602025010108567+40183-074133FM-15+0048KBLM V0202505N00415001525MN0096565N5+00785+00785099945ADDAA101000095AU100001015AW1105GA1085+001525999GD14991+0015259GE19AGL   +99999+99999GF199999999999001521999999MA1099935099365MD1190089+9999REMMET10101/01/25 03:56:02 METAR KBLM 010856Z 25008KT 6SM BR OVC005 08/08 A2951 RMK AO2 SLP994 T00780078 51008
0209724084547602025010109567+40183-074133FM-15+0048KBLM V0202505N00365001525MN0112655N5+00785+00785099975ADDAA101000095GA1085+001525999GD14991+0015259GE19AGL   +99999+99999GF199999999999001521999999MA1099975099405REMMET09201/01/25 04:56:02 METAR KBLM 010956Z 25007KT 7SM OVC005 08/08 A2952 RMK AO2 SLP997 T00780078
0204724084547602025010110547+40183-074133FM-15+0048KBLM V0202505N00515002135MN0128755N5+00805+00705999999ADDAA101000095GA1085+002135999GD14991+0021351GE19AGL   +99999+99999GF199999999999002131999999MA1100005099435REMMET08701/01/25 05:54:02 METAR KBLM 011054Z 25010KT 8SM OVC007 08/07 A2953 RMK AO2 CIG 005V010
0221724084547602025010110567+40183-074133FM-15+0048KBLM V0202505N00575002135MN0128755N5+00785+00725100015ADDAA101000095GA1085+002135999GD14991+0021351GE19AGL   +99999+99999GF199999999999002131999999MA1100005099435REMMET10401/01/25 05:56:02 METAR KBLM 011056Z 25011KT 8SM OVC007 08/07 A2953 RMK AO2 CIG 005V010 SLP001 T00780072
0284724084547602025010111567+40183-074133FM-15+0048KBLM V0202405N00515001525MN0112655N5+00725+00725100025ADDAA101000095AA224003691GA1085+001525999GD14991+0015259GE19AGL   +99999+99999GF199999999999001521999999KA1060M+00781KA2060N+00721MA1100005099435MD1190019+9999REMMET11601/01/25 06:56:02 METAR KBLM 011156Z 24010KT 7SM OVC005 07/07 A2953 RMK AO2 SLP002 70014 T00720072 10078 20072 51001
0212724084547602025010112367+40183-074133FM-15+0048KBLM V0202505N00365002135MN0080475N5+00705+00705999999ADDAA101000095AU100001015AW1105GA1085+002135999GD14991+0021359GE19AGL   +99999+99999GF199999999999002131999999MA1100035099465REMMET07801/01/25 07:36:02 METAR KBLM 011236Z 25007KT 5SM BR OVC007 07/07 A2954 RMK AO2
0229724084547602025010112567+40183-074133FM-15+0048KBLM V0202505N00415002135MN0080475N5+00725+00725100035ADDAA101000095AU100001015AW1105GA1085+002135999GD14991+0021359GE19AGL   +99999+99999GF199999999999002131999999MA1100035099465REMMET09501/01/25 07:56:02 METAR KBLM 011256Z 25008KT 5SM BR OVC007 07/07 A2954 RMK AO2 SLP003 T00720072
0211724084547602025010113357+40183-074133FM-15+0048KBLM V0202505N005152200059N0128755N5+00805+00705999999ADDAA101000095GA1045+002135999GD12991+0021359GE19AGL   +99999+99999GF104995999999002131999999MA1100075099505REMMET07501/01/25 08:35:02 METAR KBLM 011335Z 25010KT 8SM SCT007 08/07 A2955 RMK AO2EQDD01      0ADE726
0240724084547602025010113567+40183-074133FM-15+0048KBLM V0202505N004652200059N0160935N5+00895+00725100095ADDAA101000095GA1025+009455999GD11991+0094559GE19AGL   +99999+99999GF102995999999009451999999MA1100105099535OC100885REMMET09601/01/25 08:56:02 METAR KBLM 011356Z 25009G17KT 10SM FEW031 09/07 A2956 RMK AO2 SLP009 T00890072EQDD01      0ADE726
0298724084547602025010114567+40183-074133FM-15+0048KBLM V0202505N005752200059N0160935N5+00945+00615100165ADDAA101000095GA1045+006105999GA2045+016765999GD12991+0061059GD22991+0167659GE19AGL   +99999+99999GF104995999999006101999999MA1100175099605MD1390149+9999OC100935REMMET10901/01/25 09:56:02 METAR KBLM 011456Z 25011G18KT 10SM SCT020 SCT055 09/06 A2958 RMK AO2 SLP016 T00940061 53014EQDD01      0ADE726
0242724084547602025010115057+40183-074133FM-15+0048KBLM V0202605N00625006105MN0160935N5+00905+00605999999ADDAA101000095GA1075+006105999GA2075+016765999GD13991+0061059GD23991+0167659GE19AGL   +99999+99999GF199999999999006101999999MA1100175099605OC101085REMMET08601/01/25 10:05:02 METAR KBLM 011505Z 26012G21KT 10SM BKN020 BKN055 09/06 A2958 RMK AO2
0221724084547602025010115567+40183-074133FM-15+0048KBLM V0202605N00675006715MN0160935N5+00945+00505100165ADDAA101000095GA1085+006715999GD14991+0067159GE19AGL   +99999+99999GF199999999999006711999999MA1100175099605OC101135REMMET09601/01/25 10:56:02 METAR KBLM 011556Z 26013G22KT 10SM OVC022 09/05 A2958 RMK AO2 SLP016 T00940050
0293724084547602025010116337+40183-074133FM-15+0048KBLM V0202605N006752200059N0160935N5+00905+00305999999ADDAA101000095GA1045+007925999GA2045+024385999GD12991+0079259GD22991+0243859GE19AGL   +99999+99999GF104995999999007921999999MA1100175099605OC101295OD149901391260REMMET10401/01/25 11:33:02 METAR KBLM 011633Z 26013G25KT 10SM SCT026 SCT080 09/03 A2958 RMK AO2 PK WND 26027/1623EQDD01      0ADE726
0236724084547602025010116527+40183-074133FM-15+0048KBLM V0202605N00775008535MN0160935N5+00905+00305999999ADDAA101000095GA1075+008535999GD13991+0085359GE19AGL   +99999+99999GF199999999999008531999999MA1100145099575OC101085OD149901391260REMMET09701/01/25 11:52:02 METAR KBLM 011652Z 26015G21KT 10SM BKN028 09/03 A2957 RMK AO2 PK WND 26027/1623
0253724084547602025010116567+40183-074133FM-15+0048KBLM V0202505N00625008535MN0160935N5+00895+00335100135ADDAA101000095GA1075+008535999GD13991+0085359GE19AGL   +99999+99999GF199999999999008531999999MA1100145099575OC101135OD149901391260REMMET11401/01/25 11:56:02 METAR KBLM 011656Z 25012G22KT 10SM BKN028 09/03 A2957 RMK AO2 PK WND 26027/1623 SLP013 T00890033
0274724084547602025010117217+40183-074133FM-15+0048KBLM V0202505N00775009145MN0160935N5+00905+00205999999ADDAA101000095GA1075+009145999GA2085+014635999GD13991+0091459GD24991+0146359GE19AGL   +99999+99999GF199999999999009141999999MA1100145099575OC101445OD149901441270REMMET10401/01/25 12:21:02 METAR KBLM 011721Z 25015G28KT 10SM BKN030 OVC048 09/02 A2957 RMK AO2 PK WND 27028/1712
0311724084547602025010117567+40183-074133FM-15+0048KBLM V0202705N00775009755MN0160935N5+00835+00175100165ADDAA101000095GA1085+009755999GD14991+0097559GE19AGL   +99999+99999GF199999999999009751999999KA1060M+01001KA2060N+00721MA1100175099605MD1590009+9999OC101295OD149901441270REMMET13201/01/25 12:56:02 METAR KBLM 011756Z 27015G25KT 10SM OVC032 08/02 A2958 RMK AO2 PK WND 27028/1712 SLP016 T00830017 10100 20072 55000
0253724084547602025010118567+40183-074133FM-15+0048KBLM V0202705N00775010365MN0160935N5+00785+00115100235ADDAA101000095GA1085+010365999GD14991+0103659GE19AGL   +99999+99999GF199999999999010361999999MA1100245099675OC101395OD149901391270REMMET11401/01/25 13:56:02 METAR KBLM 011856Z 27015G27KT 10SM OVC034 08/01 A2960 RMK AO2 PK WND 27027/1848 SLP023 T00780011
0291724084547602025010119567+40183-074133FM-15+0048KBLM V0202805N00885011585MN0160935N5+00785+00065100385ADDAA101000095GA1075+011585999GA2085+018295999GD13991+0115859GD24991+0182959GE19AGL   +99999+99999GF199999999999011581999999MA1100375099805OC101185OD149901641270REMMET12101/01/25 14:56:02 METAR KBLM 011956Z 28017G23KT 10SM BKN038 OVC060 08/01 A2964 RMK AO2 PK WND 27032/1921 SLP038 T00780006
0293724084547602025010120567+40183-074133FM-15+0048KBLM V0202805N011852200059N0160935N5+00785-00115100455ADDAA101000095GA1025+013115999GD11991+0131159GE19AGL   +99999+99999GF102995999999013111999999MA1100445099875MD1290299+9999OC101805OD149901801300REMMET12101/01/25 15:56:02 METAR KBLM 012056Z 28023G35KT 10SM FEW043 08/M01 A2966 RMK AO2 PK WND 30035/2051 SLP045 T00781011 52029EQDD01      0ADE726
0273724084547602025010121567+40183-074133FM-15+0048KBLM V0202805N008852200059N0160935N5+00675-00115100535ADDAA101000095GA1045+014635999GD12991+0146359GE19AGL   +99999+99999GF104995999999014631999999MA1100545099975OC101295OD149901751290REMMET11501/01/25 16:56:02 METAR KBLM 012156Z 28017G25KT 10SM SCT048 07/M01 A2969 RMK AO2 PK WND 29034/2120 SLP053 T00671011EQDD01      0ADE726
0273724084547602025010122567+40183-074133FM-15+0048KBLM V0202805N006752200059N0160935N5+00675-00175100625ADDAA101000095GA1025+015245999GD11991+0152459GE19AGL   +99999+99999GF102995999999015241999999MA1100615100045OC101185OD149901691260REMMET11501/01/25 17:56:02 METAR KBLM 012256Z 28013G23KT 10SM FEW050 07/M02 A2971 RMK AO2 PK WND 26033/2215 SLP062 T00671017EQDD01      0ADE726
0244724084547602025010123567+40183-074133FM-15+0048KBLM V0202605N005152200059N0160935N5+00565-00225100705ADDAA101000095GA1005+999999999GD10991+9999999GF100991999999999999999999KA1060M+00831KA2060N+00561MA1100715100145MD1390259+9999REMMET10901/01/25 18:56:02 METAR KBLM 012356Z 26010KT 10SM CLR 06/M02 A2974 RMK AO2 SLP070 T00561022 10083 20056 53025
0215724084547602025010200567+40183-074133FM-15+0048KBLM V0202705N008852200059N0160935N5+00565-00285100795ADDAA101000095GA1005+999999999GD10991+9999999GF100991999999999999999999MA1100785100215OC101185REMMET11201/01/25 19:56:01 METAR KBLM 020056Z 27017G23KT 10SM CLR 06/M03 A2976 RMK AO2 PK WND 28027/0023 SLP079 T00561028
0215724084547602025010201567+40183-074133FM-15+0048KBLM V0202605N006752200059N0160935N5+00505-00335100865ADDAA101000095GA1005+999999999GD10991+9999999GF100991999999999999999999MA1100855100275OC101295REMMET11201/01/25 20:56:01 METAR KBLM 020156Z 26013G25KT 10SM CLR 05/M03 A2978 RMK AO2 PK WND 27030/0119 SLP086 T00501033
0235724084547602025010202567+40183-074133FM-15+0048KBLM V0202605N006752200059N0160935N5+00445-00225100925ADDAA101000095GA1005+999999999GD10991+9999999GF100991999999999999999999MA1100915100345MD1190229+9999OC100935REMMET11801/01/25 21:56:01 METAR KBLM 020256Z 26013G18KT 10SM CLR 04/M02 A2980 RMK AO2 PK WND 26026/0207 SLP092 T00441022 51022
0197724084547602025010203567+40183-074133FM-15+0048KBLM V0202605N007752200059N0160935N5+00395-00285100975ADDAA101000095GA1005+999999999GD10991+9999999GF100991999999999999999999MA1100985100415OC100985REMMET09401/01/25 22:56:02 METAR KBLM 020356Z 26015G19KT 10SM CLR 04/M03 A2982 RMK AO2 SLP097 T00391028
0222724084547602025010204567+40183-074133FM-15+0048KBLM V0202605N007752200059N0160935N5+00335-00335101005ADDAA101000095GA1005+999999999GD10991+9999999GF100991999999999999999999KA1240M+01001KA2240N+00331MA1100985100415REMMET10101/01/25 23:56:02 METAR KBLM 020456Z 26015KT 10SM CLR 03/M03 A2982 RMK AO2 SLP100 T00331033 401000033
0928724084547602025010204596+40183-074133SOD  +0048KBLM V020999999999999999999999999999+99999+99999999999ADDAA124000396AT1AU13BR  5AX1016246KA1240M+01005KA2240N+00335MG1099684099834OE11240178830015515OE22240138628015355OE33240062199999995REMSOD75124 HR PRECIPITATION (IN): 0.01 WEATHER(CODE):1  24 HR MAX TEMP (F):50 24 HR MAX TEMP TIME (LST):1038 24 HR MIN TEMP (F):38 24 HR MIN TEMP TIME (LST):2359 AVERAGE STATION PRESSURE(D):29.435 MINIMUM SEA LEVEL PRESSURE:29.48 TIME OF OCCURRENCE:0048 PEAK WIND SPEED (MPH):40  PEAK WIND DIR (DEG):300 PEAK WIND TIME (LST):1551  FASTEST 2MIN SPEED (MPH):31 FASTEST 2MIN DIR (DEG):280 FASTEST 2MIN TIME (LST):1535 AVERAGE WIND SPEED (MPH):13.9 24 HR AVG TEMP (F):44 HEATING DEGREE DAYS: 21 COOLING DEGREE DAYS:  0 LATEST DAY MAX TEMP (0700-1900 LST): 50 LATEST NIGHT MIN TEMP(1900-0800 LST):45 HOURLY INCREMENTAL PRECIPITATION VALUES (IN):0.01 0.00 0.00 0.00 0.00 0.00 0.00 0.00 0.00 0.00 0.00 0.00 0.00 0.00 0.00 0.00 0.00 0.00 0.00 0.00 0.00 0.00 0.00 0.00EQDR01  0.017AAP092R02     17AXW092
0255724084547602025010205567+40183-074133FM-15+0048KBLM V0202705N005752200059N0160935N5+00335-00285101035ADDAA101000095GA1005+999999999GD10991+9999999GF100991999999999999999999KA1060M+00611KA2060N+00331MA1101025100445MD1190119+9999OC101035REMMET11201/02/25 00:56:02 METAR KBLM 020556Z 27011G20KT 10SM CLR 03/M03 A2983 RMK AO2 SLP103 T00331028 10061 20033 51011
0197724084547602025010206567+40183-074133FM-15+0048KBLM V0202605N006752200059N0160935N5+00335-00285101105ADDAA101000095GA1005+999999999GD10991+9999999GF100991999999999999999999MA1101085100515OC101135REMMET09401/02/25 01:56:02 METAR KBLM 020656Z 26013G22KT 10SM CLR 03/M03 A2985 RMK AO2 SLP110 T00331028
0197724084547602025010207567+40183-074133FM-15+0048KBLM V0202605N005752200059N0160935N5+00285-00285101205ADDAA101000095GA1005+999999999GD10991+9999999GF100991999999999999999999MA1101195100615OC100935REMMET09401/02/25 02:56:02 METAR KBLM 020756Z 26011G18KT 10SM CLR 03/M03 A2988 RMK AO2 SLP120 T00281028
0261724084547602025010208567+40183-074133FM-15+0048KBLM V0202605N006252200059N0160935N5+00285-00335101225ADDAA101000095GA1045+016765999GD12991+0167659GE19AGL   +99999+99999GF104995999999016761999999MA1101225100645MD1190199+9999OC100985REMMET10301/02/25 03:56:02 METAR KBLM 020856Z 26012G19KT 10SM SCT055 03/M03 A2989 RMK AO2 SLP122 T00281033 51019EQDD01      0ADE726
0229724084547602025010209567+40183-074133FM-15+0048KBLM V0202505N00625018295MN0160935N5+00225-00615101325ADDAA101000095GA1075+018295999GD13991+0182959GE19AGL   +99999+99999GF199999999999018291999999MA1101325100755OC100985REMMET10401/02/25 04:56:02 METAR KBLM 020956Z 25012G19KT 10SM BKN060 02/M06 A2992 RMK AO2 SLP132 T00221061 FZRANO
0204724084547602025010210567+40183-074133FM-15+0048KBLM V0202505N005752200059N0160935N5+00175-00615101395ADDAA101000095GA1005+999999999GD10991+9999999GF100991999999999999999999MA1101395100815OC100775REMMET10101/02/25 05:56:02 METAR KBLM 021056Z 25011G15KT 10SM CLR 02/M06 A2994 RMK AO2 SLP139 T00171061 FZRANO
0262724084547602025010211567+40183-074133FM-15+0048KBLM V0202505N007752200059N0160935N5+00175-00615101395ADDAA101000095GA1005+999999999GD10991+9999999GF100991999999999999999999KA1060M+00331KA2060N+00171MA1101395100815MD1190179+9999OC101085REMMET11901/02/25 06:56:02 METAR KBLM 021156Z 25015G21KT 10SM CLR 02/M06 A2994 RMK AO2 SLP139 T00171061 10033 20017 51017 FZRANO
0193724084547602025010212567+40183-074133FM-15+0048KBLM V0202505N004152200059N0160935N5+00175-00615101475ADDAA101000095GA1005+999999999GD10991+9999999GF100991999999999999999999MA1101465100885REMMET09801/02/25 07:56:02 METAR KBLM 021256Z 25008KT 10SM CLR 02/M06 A2996 RMK AO2 SLP147 T00171061 FZRANO
0197724084547602025010213567+40183-074133FM-15+0048KBLM V0202505N006752200059N0160935N5+00285-00615101555ADDAA101000095GA1005+999999999GD10991+9999999GF100991999999999999999999MA1101565100985OC101135REMMET09401/02/25 08:56:02 METAR KBLM 021356Z 25013G22KT 10SM CLR 03/M06 A2999 RMK AO2 SLP155 T00281061
0217724084547602025010214567+40183-074133FM-15+0048KBLM V0202605N008252200059N0160935N5+00395-00615101625ADDAA101000095GA1005+999999999GD10991+9999999GF100991999999999999999999MA1101595101015MD1190229+9999OC101295REMMET10001/02/25 09:56:02 METAR KBLM 021456Z 26016G25KT 10SM CLR 04/M06 A3000 RMK AO2 SLP162 T00391061 51022
0273724084547602025010215567+40183-074133FM-15+0048KBLM V0202705N009352200059N0160935N5+00505-00615101585ADDAA101000095GA1025+014025999GD11991+0140259GE19AGL   +99999+99999GF102995999999014021999999MA1101565100985OC101395OD149901491290REMMET11501/02/25 10:56:02 METAR KBLM 021556Z 27018G27KT 10SM FEW046 05/M06 A2999 RMK AO2 PK WND 29029/1534 SLP158 T00501061EQDD01      0ADE726
0254724084547602025010216567+40183-074133FM-15+0048KBLM V0202805N00985014635MN0160935N5+00565-00675101505ADDAA101000095GA1075+014635999GD13991+0146359GE19AGL   +99999+99999GF199999999999014631999999MA1101495100915OC101445OD149901491270REMMET11501/02/25 11:56:02 METAR KBLM 021656Z 28019G28KT 10SM BKN048 06/M07 A2997 RMK AO2 PK WND 27029/1644 SLP150 T00561067
0331724084547602025010217567+40183-074133FM-15+0048KBLM V0202805N009352200059N0160935N5+00505-00675101465ADDAA101000095GA1025+015245999GD11991+0152459GE19AGL   +99999+99999GF102995999999015241999999KA1060M+00561KA2060N+00171MA1101465100885MD1690169+9999OC101445OD149901441270REMMET13301/02/25 12:56:02 METAR KBLM 021756Z 28018G28KT 10SM FEW050 05/M07 A2996 RMK AO2 PK WND 27028/1748 SLP146 T00501067 10056 20017 56016EQDD01      0ADE726
0254724084547602025010218567+40183-074133FM-15+0048KBLM V0202605N00885016765MN0160935N5+00505-00785101465ADDAA101000095GA1085+016765999GD14991+0167659GE19AGL   +99999+99999GF199999999999016761999999MA1101465100885OC101345OD149901491260REMMET11501/02/25 13:56:02 METAR KBLM 021856Z 26017G26KT 10SM OVC055 05/M08 A2996 RMK AO2 PK WND 26029/1827 SLP146 T00501078
0254724084547602025010219567+40183-074133FM-15+0048KBLM V0202705N00825016765MN0160935N5+00445-00785101505ADDAA101000095GA1085+016765999GD14991+0167659GE19AGL   +99999+99999GF199999999999016761999999MA1101495100915OC101085OD149901441260REMMET11501/02/25 14:56:02 METAR KBLM 021956Z 27016G21KT 10SM OVC055 04/M08 A2997 RMK AO2 PK WND 26028/1934 SLP150 T00441078
0274724084547602025010220567+40183-074133FM-15+0048KBLM V0202805N00825016765MN0160935N5+00335-00895101545ADDAA101000095GA1075+016765999GD13991+0167659GE19AGL   +99999+99999GF199999999999016761999999MA1101525100955MD1390089+9999OC101245OD149901591280REMMET12101/02/25 15:56:02 METAR KBLM 022056Z 28016G24KT 10SM BKN055 03/M09 A2998 RMK AO2 PK WND 28031/2006 SLP154 T00331089 53008
0215724084547602025010221567+40183-074133FM-15+0048KBLM V0202805N008252200059N0160935N5+00285-00895101585ADDAA101000095GA1005+999999999GD10991+9999999GF100991999999999999999999MA1101595101015OC101295REMMET11201/02/25 16:56:02 METAR KBLM 022156Z 28016G25KT 10SM CLR 03/M09 A3000 RMK AO2 PK WND 27029/2128 SLP158 T00281089
0222724084547602025010222567+40183-074133FM-15+0048KBLM V0202805N006752200059N0160935N5+00225-00895101615ADDAA101000095GA1005+999999999GD10991+9999999GF100991999999999999999999MA1101595101015OC100985REMMET11901/02/25 17:56:02 METAR KBLM 022256Z 28013G19KT 10SM CLR 02/M09 A3000 RMK AO2 PK WND 28027/2203 SLP161 T00221089 FZRANO
0262724084547602025010223567+40183-074133FM-15+0048KBLM V0202705N007252200059N0160935N5+00115-00785101675ADDAA101000095GA1005+999999999GD10991+9999999GF100991999999999999999999KA1060M+00561KA2060N+00111MA1101665101085MD1390129+9999OC100935REMMET11901/02/25 18:56:02 METAR KBLM 022356Z 27014G18KT 10SM CLR 01/M08 A3002 RMK AO2 SLP167 T00111078 10056 20011 53012 FZRANO
0248724084547602025010300567+40183-074133FM-15+0048KBLM V0202605N006252200059N0160935N5+00065-00895101715ADDAA101000095GA1025+018295999GD11991+0182959GE19AGL   +99999+99999GF102995999999018291999999MA1101695101125OC100935REMMET10401/02/25 19:56:01 METAR KBLM 030056Z 26012G18KT 10SM FEW060 01/M09 A3003 RMK AO2 SLP171 T00061089 FZRANOEQDD01      0ADE726
0204724084547602025010301567+40183-074133FM-15+0048KBLM V0202505N006752200059N0160935N5+00065-00835101695ADDAA101000095GA1005+999999999GD10991+9999999GF100991999999999999999999MA1101665101085OC101035REMMET10101/02/25 20:56:01 METAR KBLM 030156Z 25013G20KT 10SM CLR 01/M08 A3002 RMK AO2 SLP169 T00061083 FZRANO
0224724084547602025010302567+40183-074133FM-15+0048KBLM V0202505N005152200059N0160935N5+00005-00835101695ADDAA101000095GA1005+999999999GD10991+9999999GF100991999999999999999999MA1101665101085MD1090029+9999OC100885REMMET10701/02/25 21:56:01 METAR KBLM 030256Z 25010G17KT 10SM CLR 00/M08 A3002 RMK AO2 SLP169 T00001083 50002 FZRANO
0204724084547602025010303567+40183-074133FM-15+0048KBLM V0202505N005152200059N0160935N5+00005-00895101675ADDAA101000095GA1005+999999999GD10991+9999999GF100991999999999999999999MA1101665101085OC100935REMMET10101/02/25 22:56:02 METAR KBLM 030356Z 25010G18KT 10SM CLR 00/M09 A3002 RMK AO2 SLP167 T00001089 FZRANO
0265724084547602025010304567+40183-074133FM-15+0048KBLM V0202605N00625018295MN0160935N5+00005-00945101695ADDAA101000095GA1085+018295999GD14991+0182959GE19AGL   +99999+99999GF199999999999018291999999KA1240M+00561KA2240N+00001MA1101695101125OC100935REMMET11401/02/25 23:56:02 METAR KBLM 030456Z 26012G18KT 10SM OVC060 00/M09 A3003 RMK AO2 SLP169 T00001094 400560000 FZRANO
0855724084547602025010304596+40183-074133SOD  +0048KBLM V020999999999999999999999999999+99999+99999999999ADDAA124000095KA1240M+00565KA2240N+00005MG1100904101024OE11240160928015065OE22240125228011435OE33240069799999995REMSOD73424 HR PRECIPITATION (IN): 0.00 24 HR MAX TEMP (F):42 24 HR MAX TEMP TIME (LST):1332 24 HR MIN TEMP (F):32 24 HR MIN TEMP TIME (LST):2357 AVERAGE STATION PRESSURE(D):29.796 MINIMUM SEA LEVEL PRESSURE:29.83 TIME OF OCCURRENCE:0106 PEAK WIND SPEED (MPH):36  PEAK WIND DIR (DEG):280 PEAK WIND TIME (LST):1506  FASTEST 2MIN SPEED (MPH):28 FASTEST 2MIN DIR (DEG):280 FASTEST 2MIN TIME (LST):1143 AVERAGE WIND SPEED (MPH):15.6 24 HR AVG TEMP (F):37 HEATING DEGREE DAYS: 28 COOLING DEGREE DAYS:  0 LATEST DAY MAX TEMP (0700-1900 LST): 42 LATEST NIGHT MIN TEMP(1900-0800 LST):35 HOURLY INCREMENTAL PRECIPITATION VALUES (IN):0.00 0.00 0.00 0.00 0.00 0.00 0.00 0.00 0.00 0.00 0.00 0.00 0.00 0.00 0.00 0.00 0.00 0.00 0.00 0.00 0.00 0.00 0.00 0.00
0287724084547602025010305567+40183-074133FM-15+0048KBLM V0202605N00515016765MN0160935N5+00065-01065101645ADDAA101000095GA1075+016765999GD13991+0167659GE19AGL   +99999+99999GF199999999999016761999999KA1060M+00111KA2060N+00001MA1101635101055MD1890049+9999OC101035REMMET12201/03/25 00:56:02 METAR KBLM 030556Z 26010G20KT 10SM BKN055 01/M11 A3001 RMK AO2 SLP164 T00061106 10011 20000 58004 FZRANO
0204724084547602025010306567+40183-074133FM-15+0048KBLM V0202605N006252200059N0160935N5+00005-01005101665ADDAA101000095GA1005+999999999GD10991+9999999GF100991999999999999999999MA1101665101085OC101085REMMET10101/03/25 01:56:02 METAR KBLM 030656Z 26012G21KT 10SM CLR 00/M10 A3002 RMK AO2 SLP166 T00001100 FZRANO
0193724084547602025010307567+40183-074133FM-15+0048KBLM V0202605N005752200059N0160935N5+00005-00835101685ADDAA101000095GA1005+999999999GD10991+9999999GF100991999999999999999999MA1101665101085REMMET09801/03/25 02:56:02 METAR KBLM 030756Z 26011KT 10SM CLR 00/M08 A3002 RMK AO2 SLP168 T00001083 FZRANO
0214724084547602025010308567+40183-074133FM-15+0048KBLM V0202505N004652200059N0160935N5-00065-00835101685ADDAA101000095GA1005+999999999GD10991+9999999GF100991999999999999999999MA1101665101085MD1190039+9999REMMET10501/03/25 03:56:02 METAR KBLM 030856Z 25009KT 10SM CLR M01/M08 A3002 RMK AO2 SLP168 T10061083 51003 FZRANO
0219724084547602025010309567+40183-074133FM-15+0048KBLM V0202505N00465015245MN0160935N5-00065-00785101665ADDAA101000095GA1075+015245999GD13991+0152459GE19AGL   +99999+99999GF199999999999015241999999MA1101635101055REMMET10201/03/25 04:56:02 METAR KBLM 030956Z 25009KT 10SM BKN050 M01/M08 A3001 RMK AO2 SLP166 T10061078 FZRANO
0249724084547602025010310567+40183-074133FM-15+0048KBLM V0202505N003652200059N0160935N5-00115-00785101655ADDAA101000095GA1045+015245999GD12991+0152459GE19AGL   +99999+99999GF104995999999015241999999MA1101635101055OC100775REMMET10501/03/25 05:56:02 METAR KBLM 031056Z 25007G15KT 10SM SCT050 M01/M08 A3001 RMK AO2 SLP165 T10111078 FZRANOEQDD01      0ADE726
0252724084547602025010311567+40183-074133FM-15+0048KBLM V0202405N004152200059N0160935N5-00115-00785101635ADDAA101000095GA1005+999999999GD10991+9999999GF100991999999999999999999KA1060M+00061KA2060N-00171MA1101635101055MD1690049+9999REMMET11701/03/25 06:56:02 METAR KBLM 031156Z 24008KT 10SM CLR M01/M08 A3001 RMK AO2 SLP163 T10111078 10006 21017 56004 FZRANO
0194724084547602025010312567+40183-074133FM-15+0048KBLM V0202405N003652200059N0160935N5-00115-00785101605ADDAA101000095GA1005+999999999GD10991+9999999GF100991999999999999999999MA1101595101015REMMET09901/03/25 07:56:02 METAR KBLM 031256Z 24007KT 10SM CLR M01/M08 A3000 RMK AO2 SLP160 T10111078 FZRANO
0205724084547602025010313567+40183-074133FM-15+0048KBLM V0202405N005152200059N0160935N5-00115-00785101575ADDAA101000095GA1005+999999999GD10991+9999999GF100991999999999999999999MA1101565100985OC100775REMMET10201/03/25 08:56:02 METAR KBLM 031356Z 24010G15KT 10SM CLR M01/M08 A2999 RMK AO2 SLP157 T10111078 FZRANO
0213724084547602025010314567+40183-074133FM-15+0048KBLM V0202305V004652200059N0160935N5+00065-00835101545ADDAA101000095GA1005+999999999GD10991+9999999GF100991999999999999999999MA1101525100955MD1690099+9999REMMET10401/03/25 09:56:02 METAR KBLM 031456Z 23009KT 10SM CLR 01/M08 A2998 RMK AO2 SLP154 T00061083 56009 FZRANO
0204724084547602025010315567+40183-074133FM-15+0048KBLM V0202405N006752200059N0160935N5+00175-00835101435ADDAA101000095GA1005+999999999GD10991+9999999GF100991999999999999999999MA1101425100855OC100885REMMET10101/03/25 10:56:02 METAR KBLM 031556Z 24013G17KT 10SM CLR 02/M08 A2995 RMK AO2 SLP143 T00171083 FZRANO
0193724084547602025010316567+40183-074133FM-15+0048KBLM V0202605N005752200059N0160935N5+00115-00835101265ADDAA101000095GA1005+999999999GD10991+9999999GF100991999999999999999999MA1101255100685REMMET09801/03/25 11:56:02 METAR KBLM 031656Z 26011KT 10SM CLR 01/M08 A2990 RMK AO2 SLP126 T00111083 FZRANO
0262724084547602025010317567+40183-074133FM-15+0048KBLM V0202405N007252200059N0160935N5+00115-00835101135ADDAA101000095GA1005+999999999GD10991+9999999GF100991999999999999999999KA1060M+00171KA2060N-00171MA1101125100545MD1890429+9999OC100985REMMET11901/03/25 12:56:02 METAR KBLM 031756Z 24014G19KT 10SM CLR 01/M08 A2986 RMK AO2 SLP113 T00111083 10017 21017 58042 FZRANO
0248724084547602025010318567+40183-074133FM-15+0048KBLM V0202305N006752200059N0160935N5+00225-00835101045ADDAA101000095GA1025+033535999GD11991+0335359GE19AGL   +99999+99999GF102995999999033531999999MA1101025100445OC100825REMMET10401/03/25 13:56:02 METAR KBLM 031856Z 23013G16KT 10SM FEW110 02/M08 A2983 RMK AO2 SLP104 T00221083 FZRANOEQDD01      0ADE726
0193724084547602025010319567+40183-074133FM-15+0048KBLM V0202305N006252200059N0160935N5+00175-00835101025ADDAA101000095GA1005+999999999GD10991+9999999GF100991999999999999999999MA1101025100445REMMET09801/03/25 14:56:02 METAR KBLM 031956Z 23012KT 10SM CLR 02/M08 A2983 RMK AO2 SLP102 T00171083 FZRANO
0238724084547602025010320567+40183-074133FM-15+0048KBLM V0202405N00315015245MN0160935N5+00175-00785101015ADDAA101000095GA1075+015245999GD13991+0152459GE19AGL   +99999+99999GF199999999999015241999999MA1100985100415MD1690129+9999REMMET10701/03/25 15:56:02 METAR KBLM 032056Z 24006KT 10SM BKN050 02/M08 A2982 RMK AO2 SLP101 T00171078 56012 FZRANO
0218724084547602025010321567+40183-074133FM-15+0048KBLM V0202505N00415018295MN0160935N5+00115-00675101025ADDAA101000095GA1085+018295999GD14991+0182959GE19AGL   +99999+99999GF199999999999018291999999MA1101025100445REMMET10101/03/25 16:56:02 METAR KBLM 032156Z 25008KT 10SM OVC060 01/M07 A2983 RMK AO2 SLP102 T00111067 FZRANO
0360724084547602025010322567+40183-074133FM-15+0048KBLM V0202705N00365007325MN0048285N5+00005-00175101065ADDAA101000025AU110030015AU200001015AW1105AW2715GA1045+002445999GA2075+007325999GA3085+009145999GD12991+0024459GD23991+0073259GD34991+0091459GE19AGL   +99999+99999GF199999999999002441999999MA1101055100485MW1715REMMET14101/03/25 17:56:02 METAR KBLM 032256Z 27007KT 3SM -SN BR SCT008 BKN024 OVC030 00/M02 A2984 RMK AO2 RAB32E34SNB34 SLP106 P0000 T00001017 FZRANO
0345724084547602025010323037+40183-074133FM-15+0048KBLM V0202705N00415002445MN0040235V5+00005-00205999999ADDAA101000025AU110030015AU200001015AW1105AW2715GA1075+002445999GA2075+005185999GA3085+007015999GD13991+0024459GD23991+0051859GD34991+0070159GE19AGL   +99999+99999GF199999999999002441999999MA1101055100485MW1715REMMET12601/03/25 18:03:02 METAR KBLM 032303Z 27008KT 2 1/2SM -SN BR BKN008 BKN017 OVC023 00/M02 A2984 RMK AO2 VIS 1 3/4V4 P0000 FZRANO
0292724084547602025010323117+40183-074133FM-15+0048KBLM V0202805N00365002445MN0064375N5-00105-00205999999ADDAA101000025AU110030015AU200001015AW1105AW2715GA1075+002445999GA2085+007015999GD13991+0024459GD24991+0070159GE19AGL   +99999+99999GF199999999999002441999999MA1101055100485MW1715REMMET10401/03/25 18:11:02 METAR KBLM 032311Z 28007KT 4SM -SN BR BKN008 OVC023 M01/M02 A2984 RMK AO2 P0000 FZRANO
0233724084547602025010323537+40183-074133FM-15+0048KBLM V0202705N003652200059N0160935N5-00205-00305999999ADDAA101000025GA1045+002445999GD12991+0024459GE19AGL   +99999+99999GF104995999999002441999999MA1100985100415REMMET09701/03/25 18:53:02 METAR KBLM 032353Z 27007KT 10SM SCT008 M02/M03 A2982 RMK AO2 SNE45 P0000 FZRANOEQDD01      0ADE726
0341724084547602025010323567+40183-074133FM-15+0048KBLM V0202705N003652200059N0160935N5-00175-00285101015ADDAA101000025AA206000021GA1025+002445999GD11991+0024459GE19AGL   +99999+99999GF102995999999002441999999KA1060M+00221KA2060N-00171MA1100985100415MD1890019+9999REMMET13801/03/25 18:56:02 METAR KBLM 032356Z 27007KT 10SM FEW008 M02/M03 A2982 RMK AO2 SNE45 SLP101 P0000 60000 T10171028 10022 21017 58001 FZRANOEQDQ01  00008PRCP06D01      0ADE726
0194724084547602025010400567+40183-074133FM-15+0048KBLM V0202805N003152200059N0160935N5-00225-00285100995ADDAA101000095GA1005+999999999GD10991+9999999GF100991999999999999999999MA1100985100415REMMET09901/03/25 19:56:01 METAR KBLM 040056Z 28006KT 10SM CLR M02/M03 A2982 RMK AO2 SLP099 T10221028 FZRANO
0194724084547602025010401567+40183-074133FM-15+0048KBLM V0202705N003152200059N0160935N5-00285-00335100975ADDAA101000095GA1005+999999999GD10991+9999999GF100991999999999999999999MA1100955100375REMMET09901/03/25 20:56:01 METAR KBLM 040156Z 27006KT 10SM CLR M03/M03 A2981 RMK AO2 SLP097 T10281033 FZRANO
0214724084547602025010402567+40183-074133FM-15+0048KBLM V0202705N003652200059N0160935N5-00285-00335100955ADDAA101000095GA1005+999999999GD10991+9999999GF100991999999999999999999MA1100955100375MD1690059+9999REMMET10501/03/25 21:56:01 METAR KBLM 040256Z 27007KT 10SM CLR M03/M03 A2981 RMK AO2 SLP095 T10281033 56005 FZRANO
0194724084547602025010403567+40183-074133FM-15+0048KBLM V0202705N003652200059N0160935N5-00335-00335100935ADDAA101000095GA1005+999999999GD10991+9999999GF100991999999999999999999MA1100915100345REMMET09901/03/25 22:56:02 METAR KBLM 040356Z 27007KT 10SM CLR M03/M03 A2980 RMK AO2 SLP093 T10331033 FZRANO
0230724084547602025010404567+40183-074133FM-15+0048KBLM V0202805N005752200059N0160935N5-00335-00395100915ADDAA101000095GA1005+999999999GD10991+9999999GF100991999999999999999999KA1240M+00221KA2240N-00331MA1100885100315REMMET10901/03/25 23:56:02 METAR KBLM 040456Z 28011KT 10SM CLR M03/M04 A2979 RMK AO2 SLP091 T10331039 400221033 FZRANO
0905724084547602025010404596+40183-074133SOD  +0048KBLM V020999999999999999999999999999+99999+99999999999ADDAA124000025AT1AU18SN  5AT2AU13BR  5AX1015245KA1240M+00225KA2240N-00325MG1100684100914OE11240107324001525OE22240080526000505OE33240046999999995REMSOD75124 HR PRECIPITATION (IN):T     WEATHER(CODE):1  24 HR MAX TEMP (F):36 24 HR MAX TEMP TIME (LST):1530 24 HR MIN TEMP (F):26 24 HR MIN TEMP TIME (LST):2359 AVERAGE STATION PRESSURE(D):29.730 MINIMUM SEA LEVEL PRESSURE:29.80 TIME OF OCCURRENCE:2359 PEAK WIND SPEED (MPH):24  PEAK WIND DIR (DEG):240 PEAK WIND TIME (LST):0152  FASTEST 2MIN SPEED (MPH):18 FASTEST 2MIN DIR (DEG):260 FASTEST 2MIN TIME (LST):0050 AVERAGE WIND SPEED (MPH):10.5 24 HR AVG TEMP (F):31 HEATING DEGREE DAYS: 34 COOLING DEGREE DAYS:  0 LATEST DAY MAX TEMP (0700-1900 LST): 36 LATEST NIGHT MIN TEMP(1900-0800 LST):29 HOURLY INCREMENTAL PRECIPITATION VALUES (IN):0.00 0.00 0.00 0.00 0.00 0.00 0.00 0.00 0.00 0.00 0.00 0.00 0.00 0.00 0.00 0.00 0.00T    T     0.00 0.00 0.00 0.00 0.00
0252724084547602025010405567+40183-074133FM-15+0048KBLM V0202805N004152200059N0160935N5-00335-00445100915ADDAA101000095GA1005+999999999GD10991+9999999GF100991999999999999999999KA1060M-00171KA2060N-00331MA1100885100315MD1590049+9999REMMET11701/04/25 00:56:02 METAR KBLM 040556Z 28008KT 10SM CLR M03/M04 A2979 RMK AO2 SLP091 T10331044 11017 21033 55004 FZRANO
0238724084547602025010406567+40183-074133FM-15+0048KBLM V0202705N004152200059N0160935N5-00335-00565100965ADDAA101000095GA1025+018295999GD11991+0182959GE19AGL   +99999+99999GF102995999999018291999999MA1100955100375REMMET10201/04/25 01:56:02 METAR KBLM 040656Z 27008KT 10SM FEW060 M03/M06 A2981 RMK AO2 SLP096 T10331056 FZRANOEQDD01      0ADE726
0219724084547602025010407567+40183-074133FM-15+0048KBLM V0202505N00365016765MN0160935N5-00285-00565100995ADDAA101000095GA1075+016765999GD13991+0167659GE19AGL   +99999+99999GF199999999999016761999999MA1100985100415REMMET10201/04/25 02:56:02 METAR KBLM 040756Z 25007KT 10SM BKN055 M03/M06 A2982 RMK AO2 SLP099 T10281056 FZRANO
0277724084547602025010408567+40183-074133FM-15+0048KBLM V0202605N00415016765MN0160935N5-00285-00615101035ADDAA101000095GA1045+014025999GA2085+016765999GD12991+0140259GD24991+0167659GE19AGL   +99999+99999GF199999999999014021999999MA1101025100445MD1190129+9999REMMET11501/04/25 03:56:02 METAR KBLM 040856Z 26008KT 10SM SCT046 OVC055 M03/M06 A2983 RMK AO2 SLP103 T10281061 51012 FZRANO
0220724084547602025010409567+40183-074133FM-15+0048KBLM V0202805V005152200059N0160935N5-00285-00785101075ADDAA101000025GA1005+999999999GD10991+9999999GF100991999999999999999999MA1101055100485OC101035REMMET11701/04/25 04:56:02 METAR KBLM 040956Z 28010G20KT 10SM CLR M03/M08 A2984 RMK AO2 SNB11E23 SLP107 P0000 T10281078 FZRANO
0238724084547602025010410567+40183-074133FM-15+0048KBLM V0202805N005752200059N0160935N5-00285-00835101155ADDAA101000095GA1025+018295999GD11991+0182959GE19AGL   +99999+99999GF102995999999018291999999MA1101125100545REMMET10201/04/25 05:56:02 METAR KBLM 041056Z 28011KT 10SM FEW060 M03/M08 A2986 RMK AO2 SLP115 T10281083 FZRANOEQDD01      0ADE726
0269724084547602025010411567+40183-074133FM-15+0048KBLM V0202705N005752200059N0160935N5-00335-00785101195ADDAA101000095AA206000021GA1005+999999999GD10991+9999999GF100991999999999999999999KA1060M-00281KA2060N-00331MA1101195100615MD1390179+9999REMMET12301/04/25 06:56:02 METAR KBLM 041156Z 27011KT 10SM CLR M03/M08 A2988 RMK AO2 SLP119 60000 T10331078 11028 21033 53017 FZRANO
0205724084547602025010412567+40183-074133FM-15+0048KBLM V0202805N006752200059N0160935N5-00225-00785101205ADDAA101000095GA1005+999999999GD10991+9999999GF100991999999999999999999MA1101195100615OC101035REMMET10201/04/25 07:56:02 METAR KBLM 041256Z 28013G20KT 10SM CLR M02/M08 A2988 RMK AO2 SLP120 T10221078 FZRANO
0205724084547602025010413567+40183-074133FM-15+0048KBLM V0202705N007752200059N0160935N5-00115-00785101295ADDAA101000095GA1005+999999999GD10991+9999999GF100991999999999999999999MA1101295100715OC100985REMMET10201/04/25 08:56:02 METAR KBLM 041356Z 27015G19KT 10SM CLR M01/M08 A2991 RMK AO2 SLP129 T10111078 FZRANO
0300724084547602025010414567+40183-074133FM-15+0048KBLM V0203005N008852200059N0160935N5+00005-01005101305ADDAA101000095GA1025+013115999GD11991+0131159GE19AGL   +99999+99999GF102995999999013111999999MA1101295100715MD1190119+9999OC101495OD149901491280REMMET12801/04/25 09:56:02 METAR KBLM 041456Z 30017G29KT 10SM FEW043 00/M10 A2991 RMK AO2 PK WND 28029/1447 SLP130 T00001100 51011 FZRANOEQDD01      0ADE726
0261724084547602025010415567+40183-074133FM-15+0048KBLM V0202905N01085014945MN0160935N5+00115-01225101305ADDAA101000095GA1075+014945999GD13991+0149459GE19AGL   +99999+99999GF199999999999014941999999MA1101295100715OC101495OD149901641300REMMET12201/04/25 10:56:02 METAR KBLM 041556Z 29021G29KT 10SM BKN049 01/M12 A2991 RMK AO2 PK WND 30032/1519 SLP130 T00111122 FZRANO
0261724084547602025010416567+40183-074133FM-15+0048KBLM V0202805N00985016765MN0160935N5+00065-01335101255ADDAA101000095GA1085+016765999GD14991+0167659GE19AGL   +99999+99999GF199999999999016761999999MA1101225100645OC101495OD149901751290REMMET12201/04/25 11:56:02 METAR KBLM 041656Z 28019G29KT 10SM OVC055 01/M13 A2989 RMK AO2 PK WND 29034/1624 SLP125 T00061133 FZRANO
0319724084547602025010417567+40183-074133FM-15+0048KBLM V0202905N01135016765MN0160935N5+00005-01225101215ADDAA101000095GA1085+016765999GD14991+0167659GE19AGL   +99999+99999GF199999999999016761999999KA1060M+00111KA2060N-00331MA1101195100615MD1890099+9999OC101655OD149901751280REMMET14001/04/25 12:56:02 METAR KBLM 041756Z 29022G32KT 10SM OVC055 00/M12 A2988 RMK AO2 PK WND 28034/1734 SLP121 T00001122 10011 21033 58009 FZRANO
0280724084547602025010418567+40183-074133FM-15+0048KBLM V0202905N009352200059N0160935N5+00115-01335101235ADDAA101000095GA1045+016765999GD12991+0167659GE19AGL   +99999+99999GF104995999999016761999999MA1101225100645OC101345OD149901641290REMMET12201/04/25 13:56:02 METAR KBLM 041856Z 29018G26KT 10SM SCT055 01/M13 A2989 RMK AO2 PK WND 29032/1833 SLP123 T00111133 FZRANOEQDD01      0ADE726
0222724084547602025010419567+40183-074133FM-15+0048KBLM V0202805N008852200059N0160935N5+00065-01395101285ADDAA101000095GA1005+999999999GD10991+9999999GF100991999999999999999999MA1101255100685OC101545REMMET11901/04/25 14:56:02 METAR KBLM 041956Z 28017G30KT 10SM CLR 01/M14 A2990 RMK AO2 PK WND 27030/1952 SLP128 T00061139 FZRANO
0282724084547602025010420567+40183-074133FM-15+0048KBLM V0202905N00935018295MN0160935N5-00115-01285101365ADDAA101000095GA1075+018295999GD13991+0182959GE19AGL   +99999+99999GF199999999999018291999999MA1101355100785MD1390169+9999OC101545OD149901591280REMMET12901/04/25 15:56:02 METAR KBLM 042056Z 29018G30KT 10SM BKN060 M01/M13 A2993 RMK AO2 PK WND 28031/2035 SLP136 T10111128 53016 FZRANO
0262724084547602025010421567+40183-074133FM-15+0048KBLM V0202905N00675019815MN0160935N5-00175-01335101475ADDAA101000095GA1085+019815999GD14991+0198159GE19AGL   +99999+99999GF199999999999019811999999MA1101465100885OC101135OD149901441280REMMET12301/04/25 16:56:02 METAR KBLM 042156Z 29013G22KT 10SM OVC065 M02/M13 A2996 RMK AO2 PK WND 28028/2125 SLP147 T10171133 FZRANO
0281724084547602025010422567+40183-074133FM-15+0048KBLM V0202805N008252200059N0160935N5-00225-01335101525ADDAA101000095GA1025+018295999GD11991+0182959GE19AGL   +99999+99999GF102995999999018291999999MA1101495100915OC101185OD149901331290REMMET12301/04/25 17:56:02 METAR KBLM 042256Z 28016G23KT 10SM FEW060 M02/M13 A2997 RMK AO2 PK WND 29026/2242 SLP152 T10221133 FZRANOEQDD01      0ADE726
0307724084547602025010423567+40183-074133FM-15+0048KBLM V0202905N005152200059N0160935N5-00225-01335101575ADDAA101000095GA1045+019815999GD12991+0198159GE19AGL   +99999+99999GF104995999999019811999999KA1060M+00171KA2060N-00221MA1101565100985MD1190219+9999OC100985REMMET12301/04/25 18:56:02 METAR KBLM 042356Z 29010G19KT 10SM SCT065 M02/M13 A2999 RMK AO2 SLP157 T10221133 10017 21022 51021 FZRANOEQDD01      0ADE726
0219724084547602025010500567+40183-074133FM-15+0048KBLM V0202705N00515018295MN0160935N5-00285-01115101615ADDAA101000095GA1075+018295999GD13991+0182959GE19AGL   +99999+99999GF199999999999018291999999MA1101595101015REMMET10201/04/25 19:56:01 METAR KBLM 050056Z 27010KT 10SM BKN060 M03/M11 A3000 RMK AO2 SLP161 T10281111 FZRANO
0205724084547602025010501567+40183-074133FM-15+0048KBLM V0202605N005752200059N0160935N5-00335-01115101605ADDAA101000095GA1005+999999999GD10991+9999999GF100991999999999999999999MA1101595101015OC100775REMMET10201/04/25 20:56:01 METAR KBLM 050156Z 26011G15KT 10SM CLR M03/M11 A3000 RMK AO2 SLP160 T10331111 FZRANO
0225724084547602025010502567+40183-074133FM-15+0048KBLM V0202605N007752200059N0160935N5-00335-01175101665ADDAA101000095GA1005+999999999GD10991+9999999GF100991999999999999999999MA1101665101085MD1390099+9999OC101135REMMET10801/04/25 21:56:01 METAR KBLM 050256Z 26015G22KT 10SM CLR M03/M12 A3002 RMK AO2 SLP166 T10331117 53009 FZRANO
0205724084547602025010503567+40183-074133FM-15+0048KBLM V0202605N006252200059N0160935N5-00395-01335101695ADDAA101000095GA1005+999999999GD10991+9999999GF100991999999999999999999MA1101665101085OC101085REMMET10201/04/25 22:56:02 METAR KBLM 050356Z 26012G21KT 10SM CLR M04/M13 A3002 RMK AO2 SLP169 T10391133 FZRANO
0241724084547602025010504567+40183-074133FM-15+0048KBLM V0202705N005752200059N0160935N5-00445-01225101705ADDAA101000095GA1005+999999999GD10991+9999999GF100991999999999999999999KA1240M+00171KA2240N-00441MA1101695101125OC100935REMMET11201/04/25 23:56:02 METAR KBLM 050456Z 27011G18KT 10SM CLR M04/M12 A3003 RMK AO2 SLP170 T10441122 400171044 FZRANO
0890724084547602025010504596+40183-074133SOD  +0048KBLM V020999999999999999999999999999+99999+99999999999ADDAA124000025KA1240M+00175KA2240N-00435MG1100724100884OE11240174328012345OE22240129628012225OE33240068899999995REMSOD73424 HR PRECIPITATION (IN):T     24 HR MAX TEMP (F):35 24 HR MAX TEMP TIME (LST):1423 24 HR MIN TEMP (F):24 24 HR MIN TEMP TIME (LST):2359 AVERAGE STATION PRESSURE(D):29.744 MINIMUM SEA LEVEL PRESSURE:29.79 TIME OF OCCURRENCE:0023 PEAK WIND SPEED (MPH):39  PEAK WIND DIR (DEG):280 PEAK WIND TIME (LST):1234  FASTEST 2MIN SPEED (MPH):29 FASTEST 2MIN DIR (DEG):280 FASTEST 2MIN TIME (LST):1222 AVERAGE WIND SPEED (MPH):15.4 24 HR AVG TEMP (F):30 HEATING DEGREE DAYS: 35 COOLING DEGREE DAYS:  0 LATEST DAY MAX TEMP (0700-1900 LST): 35 LATEST NIGHT MIN TEMP(1900-0800 LST):26 HOURLY INCREMENTAL PRECIPITATION VALUES (IN):0.00 0.00 0.00 0.00T     0.00 0.00 0.00 0.00 0.00 0.00 0.00 0.00 0.00 0.00 0.00 0.00 0.00 0.00 0.00 0.00 0.00 0.00 0.00EQDR01     N7GJS072R02     N7GKS075
0294724084547602025010505567+40183-074133FM-15+0048KBLM V0202705N00725015245MN0160935N5-00395-01225101705ADDAA101000095GA1085+015245999GD14991+0152459GE19AGL   +99999+99999GF199999999999015241999999KA1060M-00221KA2060N-00441MA1101695101125MD1190049+9999OC101035REMMET12901/05/25 00:56:02 METAR KBLM 050556Z 27014G20KT 10SM OVC050 M04/M12 A3003 RMK AO2 SLP170 6//// T10391122 11022 21044 51004 FZRANO
0219724084547602025010506567+40183-074133FM-15+0048KBLM V0202605N00625015245MN0160935N5-00335-01225101745ADDAA101000095GA1085+015245999GD14991+0152459GE19AGL   +99999+99999GF199999999999015241999999MA1101735101155REMMET10201/05/25 01:56:02 METAR KBLM 050656Z 26012KT 10SM OVC050 M03/M12 A3004 RMK AO2 SLP174 T10331122 FZRANO
0230724084547602025010507567+40183-074133FM-15+0048KBLM V0202605N00575014635MN0160935N5-00395-01175101745ADDAA101000095GA1075+014635999GD13991+0146359GE19AGL   +99999+99999GF199999999999014631999999MA1101735101155OC100885REMMET10501/05/25 02:56:02 METAR KBLM 050756Z 26011G17KT 10SM BKN048 M04/M12 A3004 RMK AO2 SLP174 T10391117 FZRANO
0250724084547602025010508567+40183-074133FM-15+0048KBLM V0202705N00465014025MN0160935N5-00395-01115101745ADDAA101000095GA1085+014025999GD14991+0140259GE19AGL   +99999+99999GF199999999999014021999999MA1101735101155MD1190049+9999OC100985REMMET11101/05/25 03:56:02 METAR KBLM 050856Z 27009G19KT 10SM OVC046 M04/M11 A3004 RMK AO2 SLP174 T10391111 51004 FZRANO
0205724084547602025010509567+40183-074133FM-15+0048KBLM V0202705N005752200059N0160935N5-00445-01115101755ADDAA101000095GA1005+999999999GD10991+9999999GF100991999999999999999999MA1101735101155OC100885REMMET10201/05/25 04:56:02 METAR KBLM 050956Z 27011G17KT 10SM CLR M04/M11 A3004 RMK AO2 SLP175 T10441111 FZRANO
0238724084547602025010510567+40183-074133FM-15+0048KBLM V0202605N004152200059N0160935N5-00445-01115101795ADDAA101000095GA1045+014335999GD12991+0143359GE19AGL   +99999+99999GF104995999999014331999999MA1101765101185REMMET10201/05/25 05:56:02 METAR KBLM 051056Z 26008KT 10SM SCT047 M04/M11 A3005 RMK AO2 SLP179 T10441111 FZRANOEQDD01      0ADE726
0313724084547602025010511567+40183-074133FM-15+0048KBLM V0202505N004152200059N0160935N5-00445-01115101835ADDAA101000095GA1025+014335999GD11991+0143359GE19AGL   +99999+99999GF102995999999014331999999KA1060M-00331KA2060N-00501MA1101835101255MD1390099+9999OC100725REMMET12901/05/25 06:56:02 METAR KBLM 051156Z 25008G14KT 10SM FEW047 M04/M11 A3007 RMK AO2 SLP183 7//// T10441111 11033 21050 53009 FZRANOEQDD01      0ADE726
0205724084547602025010512567+40183-074133FM-15+0048KBLM V0202605N006252200059N0160935N5-00395-01115101855ADDAA101000095GA1005+999999999GD10991+9999999GF100991999999999999999999MA1101835101255OC101035REMMET10201/05/25 07:56:02 METAR KBLM 051256Z 26012G20KT 10SM CLR M04/M11 A3007 RMK AO2 SLP185 T10391111 FZRANO
0205724084547602025010513567+40183-074133FM-15+0048KBLM V0202605N006252200059N0160935N5-00285-01115101865ADDAA101000095GA1005+999999999GD10991+9999999GF100991999999999999999999MA1101835101255OC100935REMMET10201/05/25 08:56:02 METAR KBLM 051356Z 26012G18KT 10SM CLR M03/M11 A3007 RMK AO2 SLP186 T10281111 FZRANO
0243724084547602025010514567+40183-074133FM-15+0048KBLM V0202705N009352200059N0160935N5-00175-01115101925ADDAA101000095GA1005+999999999GD10991+9999999GF100991999999999999999999MA1101905101325MD1390089+9999OC101345REMMET12601/05/25 09:56:02 METAR KBLM 051456Z 27018G26KT 10SM CLR M02/M11 A3009 RMK AO2 PK WND 27026/1450 SLP192 T10171111 53008 FZRANO
0205724084547602025010515567+40183-074133FM-15+0048KBLM V0202705N007752200059N0160935N5-00065-01115101855ADDAA101000095GA1005+999999999GD10991+9999999GF100991999999999999999999MA1101835101255OC101135REMMET10201/05/25 10:56:02 METAR KBLM 051556Z 27015G22KT 10SM CLR M01/M11 A3007 RMK AO2 SLP185 T10061111 FZRANO
0222724084547602025010516567+40183-074133FM-15+0048KBLM V0202805N007252200059N0160935N5+00005-01175101745ADDAA101000095GA1005+999999999GD10991+9999999GF100991999999999999999999MA1101735101155OC101245REMMET11901/05/25 11:56:02 METAR KBLM 051656Z 28014G24KT 10SM CLR 00/M12 A3004 RMK AO2 PK WND 27027/1621 SLP174 T00001117 FZRANO
0262724084547602025010517567+40183-074133FM-15+0048KBLM V0202905N009852200059N0160935N5+00065-01225101705ADDAA101000095GA1005+999999999GD10991+9999999GF100991999999999999999999KA1060M+00111KA2060N-00501MA1101695101125MD1690229+9999OC101185REMMET11901/05/25 12:56:02 METAR KBLM 051756Z 29019G23KT 10SM CLR 01/M12 A3003 RMK AO2 SLP170 T00061122 10011 21050 56022 FZRANO
0204724084547602025010518567+40183-074133FM-15+0048KBLM V0202605N008252200059N0160935N5+00005-01225101715ADDAA101000095GA1005+999999999GD10991+9999999GF100991999999999999999999MA1101695101125OC101245REMMET10101/05/25 13:56:02 METAR KBLM 051856Z 26016G24KT 10SM CLR 00/M12 A3003 RMK AO2 SLP171 T00001122 FZRANO
0193724084547602025010519567+40183-074133FM-15+0048KBLM V0202605N007752200059N0160935N5+00005-01225101725ADDAA101000095GA1005+999999999GD10991+9999999GF100991999999999999999999MA1101695101125REMMET09801/05/25 14:56:02 METAR KBLM 051956Z 26015KT 10SM CLR 00/M12 A3003 RMK AO2 SLP172 T00001122 FZRANO
0224724084547602025010520567+40183-074133FM-15+0048KBLM V0202905N006252200059N0160935N5+00005-01115101785ADDAA101000095GA1005+999999999GD10991+9999999GF100991999999999999999999MA1101765101185MD1390099+9999OC100985REMMET10701/05/25 15:56:02 METAR KBLM 052056Z 29012G19KT 10SM CLR 00/M11 A3005 RMK AO2 SLP178 T00001111 53009 FZRANO
0205724084547602025010521567+40183-074133FM-15+0048KBLM V0202805N006252200059N0160935N5-00115-01115101815ADDAA101000095GA1005+999999999GD10991+9999999GF100991999999999999999999MA1101795101225OC100935REMMET10201/05/25 16:56:02 METAR KBLM 052156Z 28012G18KT 10SM CLR M01/M11 A3006 RMK AO2 SLP181 T10111111 FZRANO
0194724084547602025010522567+40183-074133FM-15+0048KBLM V0202605N003652200059N0160935N5-00175-01065101905ADDAA101000095GA1005+999999999GD10991+9999999GF100991999999999999999999MA1101905101325REMMET09901/05/25 17:56:02 METAR KBLM 052256Z 26007KT 10SM CLR M02/M11 A3009 RMK AO2 SLP190 T10171106 FZRANO
0252724084547602025010523567+40183-074133FM-15+0048KBLM V0202705N004152200059N0160935N5-00225-01065101885ADDAA101000095GA1005+999999999GD10991+9999999GF100991999999999999999999KA1060M+00171KA2060N-00221MA1101865101285MD1090109+9999REMMET11701/05/25 18:56:02 METAR KBLM 052356Z 27008KT 10SM CLR M02/M11 A3008 RMK AO2 SLP188 T10221106 10017 21022 50010 FZRANO
0194724084547602025010600567+40183-074133FM-15+0048KBLM V0202705N004152200059N0160935N5-00285-01065101865ADDAA101000095GA1005+999999999GD10991+9999999GF100991999999999999999999MA1101865101285REMMET09901/05/25 19:56:01 METAR KBLM 060056Z 27008KT 10SM CLR M03/M11 A3008 RMK AO2 SLP186 T10281106 FZRANO
0194724084547602025010601567+40183-074133FM-15+0048KBLM V0202705N004152200059N0160935N5-00285-01065101875ADDAA101000095GA1005+999999999GD10991+9999999GF100991999999999999999999MA1101865101285REMMET09901/05/25 20:56:01 METAR KBLM 060156Z 27008KT 10SM CLR M03/M11 A3008 RMK AO2 SLP187 T10281106 FZRANO
0214724084547602025010602567+40183-074133FM-15+0048KBLM V0202605N004152200059N0160935N5-00285-01065101875ADDAA101000095GA1005+999999999GD10991+9999999GF100991999999999999999999MA1101865101285MD1690019+9999REMMET10501/05/25 21:56:01 METAR KBLM 060256Z 26008KT 10SM CLR M03/M11 A3008 RMK AO2 SLP187 T10281106 56001 FZRANO
0194724084547602025010603567+40183-074133FM-15+0048KBLM V0202605N003152200059N0160935N5-00335-01065101895ADDAA101000095GA1005+999999999GD10991+9999999GF100991999999999999999999MA1101865101285REMMET09901/05/25 22:56:02 METAR KBLM 060356Z 26006KT 10SM CLR M03/M11 A3008 RMK AO2 SLP189 T10331106 FZRANO
0230724084547602025010604567+40183-074133FM-15+0048KBLM V0202705N003652200059N0160935N5-00285-01065101895ADDAA101000095GA1005+999999999GD10991+9999999GF100991999999999999999999KA1240M+00171KA2240N-00501MA1101865101285REMMET10901/05/25 23:56:02 METAR KBLM 060456Z 27007KT 10SM CLR M03/M11 A3008 RMK AO2 SLP189 T10281106 400171050 FZRANO
0855724084547602025010604596+40183-074133SOD  +0048KBLM V020999999999999999999999999999+99999+99999999999ADDAA124000095KA1240M+00175KA2240N-00495MG1101214101694OE11240138627011215OE22240102829015095OE33240057799999995REMSOD73424 HR PRECIPITATION (IN): 0.00 24 HR MAX TEMP (F):35 24 HR MAX TEMP TIME (LST):1347 24 HR MIN TEMP (F):23 24 HR MIN TEMP TIME (LST):0734 AVERAGE STATION PRESSURE(D):29.889 MINIMUM SEA LEVEL PRESSURE:30.03 TIME OF OCCURRENCE:1442 PEAK WIND SPEED (MPH):31  PEAK WIND DIR (DEG):270 PEAK WIND TIME (LST):1121  FASTEST 2MIN SPEED (MPH):23 FASTEST 2MIN DIR (DEG):290 FASTEST 2MIN TIME (LST):1509 AVERAGE WIND SPEED (MPH):12.9 24 HR AVG TEMP (F):29 HEATING DEGREE DAYS: 36 COOLING DEGREE DAYS:  0 LATEST DAY MAX TEMP (0700-1900 LST): 35 LATEST NIGHT MIN TEMP(1900-0800 LST):23 HOURLY INCREMENTAL PRECIPITATION VALUES (IN):0.00 0.00 0.00 0.00 0.00 0.00 0.00 0.00 0.00 0.00 0.00 0.00 0.00 0.00 0.00 0.00 0.00 0.00 0.00 0.00 0.00 0.00 0.00 0.00
0252724084547602025010605567+40183-074133FM-15+0048KBLM V0202705N003152200059N0160935N5-00335-01005101815ADDAA101000095GA1005+999999999GD10991+9999999GF100991999999999999999999KA1060M-00221KA2060N-00331MA1101795101225MD1890069+9999REMMET11701/06/25 00:56:02 METAR KBLM 060556Z 27006KT 10SM CLR M03/M10 A3006 RMK AO2 SLP181 T10331100 11022 21033 58006 FZRANO
0194724084547602025010606567+40183-074133FM-15+0048KBLM V0202705N004652200059N0160935N5-00285-01005101815ADDAA101000095GA1005+999999999GD10991+9999999GF100991999999999999999999MA1101795101225REMMET09901/06/25 01:56:02 METAR KBLM 060656Z 27009KT 10SM CLR M03/M10 A3006 RMK AO2 SLP181 T10281100 FZRANO
0194724084547602025010607567+40183-074133FM-15+0048KBLM V0203005N003652200059N0160935N5-00285-00945101765ADDAA101000095GA1005+999999999GD10991+9999999GF100991999999999999999999MA1101735101155REMMET09901/06/25 02:56:02 METAR KBLM 060756Z 30007KT 10SM CLR M03/M09 A3004 RMK AO2 SLP176 T10281094 FZRANO
0214724084547602025010608567+40183-074133FM-15+0048KBLM V0202505N002152200059N0160935N5-00335-00945101705ADDAA101000095GA1005+999999999GD10991+9999999GF100991999999999999999999MA1101695101125MD1890109+9999REMMET10501/06/25 03:56:02 METAR KBLM 060856Z 25004KT 10SM CLR M03/M09 A3003 RMK AO2 SLP170 T10331094 58010 FZRANO
0194724084547602025010609567+40183-074133FM-15+0048KBLM V0202205N002152200059N0160935N5-00335-00945101635ADDAA101000095GA1005+999999999GD10991+9999999GF100991999999999999999999MA1101635101055REMMET09901/06/25 04:56:02 METAR KBLM 060956Z 22004KT 10SM CLR M03/M09 A3001 RMK AO2 SLP163 T10331094 FZRANO
0219724084547602025010610567+40183-074133FM-15+0048KBLM V0202505N00215033535MN0160935N5-00335-00945101625ADDAA101000095GA1075+033535999GD13991+0335359GE19AGL   +99999+99999GF199999999999033531999999MA1101595101015REMMET10201/06/25 05:56:02 METAR KBLM 061056Z 25004KT 10SM BKN110 M03/M09 A3000 RMK AO2 SLP162 T10331094 FZRANO
0315724084547602025010611567+40183-074133FM-15+0048KBLM V0202805N00215022865MN0160935N5-00335-00945101515ADDAA101000095GA1075+022865999GA2085+027435999GD13991+0228659GD24991+0274359GE19AGL   +99999+99999GF199999999999022861999999KA1060M-00281KA2060N-00331MA1101495100915MD1890199+9999REMMET12701/06/25 06:56:02 METAR KBLM 061156Z 28004KT 10SM BKN075 OVC090 M03/M09 A2997 RMK AO2 SLP151 T10331094 11028 21033 58019 FZRANO
0295724084547602025010612567+40183-074133FM-15+0048KBLM V0202705N00215015245MN0160935N5-00335-00895101495ADDAA101000095GA1045+012805999GA2075+015245999GA3085+019815999GD12991+0128059GD23991+0152459GD34991+0198159GE19AGL   +99999+99999GF199999999999012801999999MA1101465100885REMMET11601/06/25 07:56:02 METAR KBLM 061256Z 27004KT 10SM SCT042 BKN050 OVC065 M03/M09 A2996 RMK AO2 SLP149 T10331089 FZRANO
0316724084547602025010613187+40183-074133FM-15+0048KBLM V0202705N00265007625MN0064375N5-00305-00805999999ADDAA101000095AU110030015AW1715GA1075+007625999GA2075+009755999GA3085+012195999GD13991+0076259GD23991+0097559GD34991+0121959GE19AGL   +99999+99999GF199999999999007621999999MA1101425100855MW1715REMMET11401/06/25 08:18:02 METAR KBLM 061318Z 27005KT 4SM -SN BKN025 BKN032 OVC040 M03/M08 A2995 RMK AO2 SNB02 P0000 FZRANO
0294724084547602025010613287+40183-074133FM-15+0048KBLM V0202605N00215006715MN0028165V5-00405-00705999999ADDAA101000095AU110030015AW1715GA1075+006715999GA2085+008845999GD13991+0067159GD24991+0088459GE19AGL   +99999+99999GF199999999999006711999999MA1101425100855MW1715REMMET12301/06/25 08:28:02 METAR KBLM 061328Z 26004KT 1 3/4SM -SN BKN022 OVC029 M04/M07 A2995 RMK AO2 VIS 1 1/4V5 SNB02 P0000 FZRANO
0206724084547602025010613497+40183-074133FM-15+0048KBLM V0202805N001550054919N0016095N5-00401-00601999999ADDAA101000025AW1101AW2711GD14991+0054919GE19AGL   +99999+99999GF199999999999005491999999MA1101391999999REMMET05801/06/25 08:49:02 METAR KBLM 061349Z 28003KT 1SM RVRNO RMKEQDR01      7SKY009R02      7GAS009
0206724084547602025010613567+40183-074133FM-15+0048KBLM V0202605N001550054919N0016095N5-00441-00561101431ADDAA101000025AW1101AW2711GD14991+0054919GE19AGL   +99999+99999GF199999999999005491999999MA1101421999999REMMET05801/06/25 08:56:02 METAR KBLM 061356Z 26003KT 1SM RVRNO RMKEQDR01      7SKY009R02      7GAS009
0296724084547602025010614147+40183-074133FM-15+0048KBLM V0209999C00005007625MN0024145N5-00405-00605999999ADDAA101000025AU110030015AU200001015AW1105AW2715GA1045+004885999GA2085+007625999GD12991+0048859GD24991+0076259GE19AGL   +99999+99999GF199999999999004881999999MA1101355100785MW1715REMMET10801/06/25 09:14:02 METAR KBLM 061414Z 00000KT 1 1/2SM -SN BR SCT016 OVC025 M04/M06 A2993 RMK AO2 P0000 FZRANO
0246724084547602025010614567+40183-074133FM-15+0048KBLM V0209999C000050061019N0016095N5-00331-00501101341ADDAA101000396AA203000232AW1101AW2711GD13991+0061019GD24991+0097519GE19AGL   +99999+99999GF199999999999006101999999MA1101321999999MD1810181+9999REMMET05801/06/25 09:56:02 METAR KBLM 061456Z 00000KT 1SM RVRNO RMKEQDR01      7SKY009R02      7GAS009
0296724084547602025010615297+40183-074133FM-15+0048KBLM V0203605N00215006105MN0020125N5-00305-00505999999ADDAA101000395AU110030015AU200001015AW1105AW2715GA1075+006105999GA2085+007625999GD13991+0061059GD24991+0076259GE19AGL   +99999+99999GF199999999999006101999999MA1101225100645MW1715REMMET10801/06/25 10:29:02 METAR KBLM 061529Z 36004KT 1 1/4SM -SN BR BKN020 OVC025 M03/M05 A2989 RMK AO2 P0000 FZRANO
0221724084547602025010615387+40183-074133FM-15+0048KBLM V0200105N002150051819N0016095N5-00401-00501999999ADDAA101000025AW1101AW2711GD13991+0051819GD24991+0070119GE19AGL   +99999+99999GF199999999999005181999999MA1101151999999REMMET05801/06/25 10:38:02 METAR KBLM 061538Z 01004KT 1SM RVRNO RMKEQDR01      7SKY009R02      7GAS009
0208724084547602025010615527+40183-074133FM-15+0048KBLM V0203505N002150045719N0012075N5-00301-00401999999ADDAA101000025AW1101AW2711GD14991+0045719GE19AGL   +99999+99999GF199999999999004571999999MA1101121999999REMMET06001/06/25 10:52:02 METAR KBLM 061552Z 35004KT 3/4SM RVRNO RMKEQDR01      7SKY009R02      7GAS009
0208724084547602025010615567+40183-074133FM-15+0048KBLM V0203405N002150045719N0012075N5-00331-00441101141ADDAA101000025AW1101AW2711GD14991+0045719GE19AGL   +99999+99999GF199999999999004571999999MA1101121999999REMMET06001/06/25 10:56:02 METAR KBLM 061556Z 34004KT 3/4SM RVRNO RMKEQDR01      7SKY009R02      7GAS009
0348724084547602025010616057+40183-074133FM-15+0048KBLM V0203405N00215003965MN0020125V5-00305-00405999999ADDAA101000025AU110030015AU200001015AW1105AW2715GA1075+003965999GA2075+005795999GA3085+010675999GD13991+0039659GD23991+0057959GD34991+0106759GE19AGL   +99999+99999GF199999999999003961999999MA1101085100515MW1715REMMET12901/06/25 11:05:02 METAR KBLM 061605Z 34004KT 1 1/4SM -SN BR BKN013 BKN019 OVC035 M03/M04 A2985 RMK AO2 VIS 3/4V1 3/4 P0000 FZRANO
0342724084547602025010616137+40183-074133FM-15+0048KBLM V0203305N00215011285MN0032195V5-00305-00405999999ADDAA101000025AU110030015AU200001015AW1105AW2715GA1045+003965999GA2045+005495999GA3085+011285999GD12991+0039659GD22991+0054959GD34991+0112859GE19AGL   +99999+99999GF199999999999003961999999MA1101085100515MW1715REMMET12301/06/25 11:13:02 METAR KBLM 061613Z 33004KT 2SM -SN BR SCT013 SCT018 OVC037 M03/M04 A2985 RMK AO2 VIS 1 1/4V4 P0000 FZRANO
0334724084547602025010616297+40183-074133FM-15+0048KBLM V0203105N00155007925MN0028165N5-00305-00405999999ADDAA101000025AU110030015AU200001015AW1105AW2715GA1045+006105999GA2075+007925999GA3085+010675999GD12991+0061059GD23991+0079259GD34991+0106759GE19AGL   +99999+99999GF199999999999006101999999MA1101055100485MW1715REMMET11501/06/25 11:29:02 METAR KBLM 061629Z 31003KT 1 3/4SM -SN BR SCT020 BKN026 OVC035 M03/M04 A2984 RMK AO2 P0000 FZRANO
0236724084547602025010616377+40183-074133FM-15+0048KBLM V0203005N002650042719N0016095N5-00301-00401999999ADDAA101000395AW1101AW2711GD13991+0042719GD23991+0073219GD34991+0121919GE19AGL   +99999+99999GF199999999999004271999999MA1101051999999REMMET05801/06/25 11:37:02 METAR KBLM 061637Z 30005KT 1SM RVRNO RMKEQDR01      7SKY009R02      7GAS009
0238724084547602025010616397+40183-074133FM-15+0048KBLM V0203005N002650051819N0012075N5-00301-00401999999ADDAA101000395AW1101AW2711GD12991+0036619GD23991+0051819GD34991+0100619GE19AGL   +99999+99999GF199999999999003661999999MA1101051999999REMMET06001/06/25 11:39:02 METAR KBLM 061639Z 30005KT 3/4SM RVRNO RMKEQDR01      7SKY009R02      7GAS009
0238724084547602025010616467+40183-074133FM-15+0048KBLM V0203105N002650036619N0012075N5-00301-00401999999ADDAA101000395AW1101AW2711GD13991+0036619GD23991+0051819GD34991+0073219GE19AGL   +99999+99999GF199999999999003661999999MA1101021999999REMMET06001/06/25 11:46:02 METAR KBLM 061646Z 31005KT 3/4SM RVRNO RMKEQDR01      7SKY009R02      7GAS009
0238724084547602025010616537+40183-074133FM-15+0048KBLM V0203205N002650021319N0012075N5-00301-00401999999ADDAA101000395AW1101AW2711GD13991+0027411GD23991+0036619GD34991+0061019GE19AGL   +99999+99999GF199999999999002741999999MA1100981999999REMMET06001/06/25 11:53:02 METAR KBLM 061653Z 32005KT 3/4SM RVRNO RMKEQDR01      7SKY009R02      7GAS009
0223724084547602025010616567+40183-074133FM-15+0048KBLM V0203205N002150021319N0008055N5-00281-00441100991ADDAA101000395AW1351AW2711GD13991+0027411GD24991+0042719GE19AGL   +99999+99999GF199999999999002741999999MA1100981999999REMMET06001/06/25 11:56:02 METAR KBLM 061656Z 32004KT 1/2SM RVRNO RMKEQDR01      7SKY009R02      7GAS009
0208724084547602025010617067+40183-074133FM-15+0048KBLM V0203105N002650012219N0012075N5-00301-00401999999ADDAA101000395AW1101AW2711GD14991+0027411GE19AGL   +99999+99999GF199999999999002741999999MA1100981999999REMMET06001/06/25 12:06:02 METAR KBLM 061706Z 31005KT 3/4SM RVRNO RMKEQDR01      7SKY009R02      7GAS009
0346724084547602025010617107+40183-074133FM-15+0048KBLM V0202905N00155002745MN0020125N5-00305-00405999999ADDAA101000395AU110030015AU200001015AW1105AW2715GA1075+002745999GA2075+004885999GA3085+008535999GD13991+0027451GD23991+0048859GD34991+0085359GE19AGL   +99999+99999GF199999999999002741999999MA1100985100415MW1715REMMET12701/06/25 12:10:02 METAR KBLM 061710Z 29003KT 1 1/4SM -SN BR BKN009 BKN016 OVC028 M03/M04 A2982 RMK AO2 CIG 004V012 P0000 FZRANO
0330724084547602025010617227+40183-074133FM-15+0048KBLM V0203005N00215004885MN0048285N5-00305-00405999999ADDAA101000395AU110030015AU200001015AW1105AW2715GA1045+002135999GA2075+004885999GA3085+010975999GD12991+0021359GD23991+0048859GD34991+0109759GE19AGL   +99999+99999GF199999999999002131999999MA1100985100415MW1715REMMET11101/06/25 12:22:02 METAR KBLM 061722Z 30004KT 3SM -SN BR SCT007 BKN016 OVC036 M03/M04 A2982 RMK AO2 P0000 FZRANO
0299724084547602025010617327+40183-074133FM-15+0048KBLM V0203105N00265010975MN0048285N5-00305-00405999999ADDAA101000025AU110030015AU200001015AW1105AW2715GA1025+001525999GA2085+010975999GD11991+0015259GD24991+0109759GE19AGL   +99999+99999GF199999999999001521999999MA1100915100345MW1715REMMET11101/06/25 12:32:02 METAR KBLM 061732Z 31005KT 3SM -SN BR FEW005 OVC036 M03/M04 A2980 RMK AO2 PRESFR P0000 FZRANO
0292724084547602025010617407+40183-074133FM-15+0048KBLM V0203005N00215010365MN0032195N5-00205-00405999999ADDAA101000025AU110030015AU200001015AW1105AW2715GA1025+001525999GA2085+010365999GD11991+0015259GD24991+0103659GE19AGL   +99999+99999GF199999999999001521999999MA1100885100315MW1715REMMET10401/06/25 12:40:02 METAR KBLM 061740Z 30004KT 2SM -SN BR FEW005 OVC034 M02/M04 A2979 RMK AO2 P0000 FZRANO
0341724084547602025010617477+40183-074133FM-15+0048KBLM V0203105N00265007925MN0020125N5-00205-00405999999ADDAA101000025AU110030015AU200001015AW1105AW2715GA1025+001525999GA2075+007925999GA3085+012195999GD11991+0015259GD23991+0079259GD34991+0121959GE19AGL   +99999+99999GF199999999999001521999999MA1100855100275MW1715REMMET12201/06/25 12:47:02 METAR KBLM 061747Z 31005KT 1 1/4SM -SN BR FEW005 BKN026 OVC040 M02/M04 A2978 RMK AO2 PRESFR P0000 FZRANO
0453724084547602025010617567+40183-074133FM-15+0048KBLM V0203005N00265007925MN0028165V5-00225-00395100855ADDAA101000025AA206000591AU110030015AU200001015AW1105AW2715GA1045+001525999GA2075+007925999GA3085+009755999GD12991+0015259GD23991+0079259GD34991+0097559GE19AGL   +99999+99999GF199999999999001521999999KA1060M-00221KA2060N-00441MA1100855100275MD1890289+9999MW1715REMMET16401/06/25 12:56:02 METAR KBLM 061756Z 30005KT 1 3/4SM -SN BR SCT005 BKN026 OVC032 M02/M04 A2978 RMK AO2 VIS 1V5 SLP085 P0000 60002 T10221039 11022 21044 58028 FZRANOEQDQ01  00058PRCP06
0338724084547602025010617587+40183-074133FM-15+0048KBLM V0203105N00265009145MN0032195V5-00205-00405999999ADDAA101000025AU110030015AU200001015AW1105AW2715GA1025+001525999GA2045+006715999GA3085+009145999GD11991+0015259GD22991+0067159GD34991+0091459GE19AGL   +99999+99999GF199999999999001521999999MA1100855100275MW1715REMMET11901/06/25 12:58:02 METAR KBLM 061758Z 31005KT 2SM -SN BR FEW005 SCT022 OVC030 M02/M04 A2978 RMK AO2 VIS 1V5 P0000 FZRANO
0292724084547602025010618037+40183-074133FM-15+0048KBLM V0203005N00265008535MN0064375N5-00205-00405999999ADDAA101000025AU110030015AU200001015AW1105AW2715GA1025+001525999GA2085+008535999GD11991+0015259GD24991+0085359GE19AGL   +99999+99999GF199999999999001521999999MA1100815100245MW1715REMMET10401/06/25 13:03:02 METAR KBLM 061803Z 30005KT 4SM -SN BR FEW005 OVC028 M02/M04 A2977 RMK AO2 P0000 FZRANO
0292724084547602025010618177+40183-074133FM-15+0048KBLM V0203105N00265009145MN0096565N5-00205-00405999999ADDAA101000025AU110030015AU200001015AW1105AW2715GA1025+001525999GA2085+009145999GD11991+0015259GD24991+0091459GE19AGL   +99999+99999GF199999999999001521999999MA1100785100215MW1715REMMET10401/06/25 13:17:02 METAR KBLM 061817Z 31005KT 6SM -SN BR FEW005 OVC030 M02/M04 A2976 RMK AO2 P0000 FZRANO
0272724084547602025010618287+40183-074133FM-15+0048KBLM V0203105N00265007925MN0144845N5-00205-00305999999ADDAA101000025AU110030015AW1715GA1075+007925999GA2085+009755999GD13991+0079259GD24991+0097559GE19AGL   +99999+99999GF199999999999007921999999MA1100785100215MW1715REMMET10101/06/25 13:28:02 METAR KBLM 061828Z 31005KT 9SM -SN BKN026 OVC032 M02/M03 A2976 RMK AO2 P0001 FZRANO
0310724084547602025010618337+40183-074133FM-15+0048KBLM V0203105N00315009755MN0128755N5-00205-00405999999ADDAA101000395AU110030015AW1715GA1025+002445999GA2045+007925999GA3085+009755999GD11991+0024459GD22991+0079259GD34991+0097559GE19AGL   +99999+99999GF199999999999002441999999MA1100755100175MW1715REMMET10801/06/25 13:33:02 METAR KBLM 061833Z 31006KT 8SM -SN FEW008 SCT026 OVC032 M02/M04 A2975 RMK AO2 P0001 FZRANO
0292724084547602025010618427+40183-074133FM-15+0048KBLM V0203305N00265008845MN0096565N5-00205-00305999999ADDAA101000395AU110030015AU200001015AW1105AW2715GA1045+002445999GA2085+008845999GD12991+0024459GD24991+0088459GE19AGL   +99999+99999GF199999999999002441999999MA1100715100145MW1715REMMET10401/06/25 13:42:02 METAR KBLM 061842Z 33005KT 6SM -SN BR SCT008 OVC029 M02/M03 A2974 RMK AO2 P0001 FZRANO
0309724084547602025010618567+40183-074133FM-15+0048KBLM V0203205N00315009755MN0096565N5-00175-00335100705ADDAA101000395AU110030015AU200001015AW1105AW2715GA1045+002445999GA2085+009755999GD12991+0024459GD24991+0097559GE19AGL   +99999+99999GF199999999999002441999999MA1100685100105MW1715REMMET12101/06/25 13:56:02 METAR KBLM 061856Z 32006KT 6SM -SN BR SCT008 OVC032 M02/M03 A2973 RMK AO2 SLP070 P0001 T10171033 FZRANO
0330724084547602025010619067+40183-074133FM-15+0048KBLM V0203205N00215008845MN0096565N5-00205-00305999999ADDAA101000395AU110030015AU200001015AW1105AW2715GA1025+002445999GA2075+008845999GA3085+010365999GD11991+0024459GD23991+0088459GD34991+0103659GE19AGL   +99999+99999GF199999999999002441999999MA1100715100145MW1715REMMET11101/06/25 14:06:02 METAR KBLM 061906Z 32004KT 6SM -SN BR FEW008 BKN029 OVC034 M02/M03 A2974 RMK AO2 P0000 FZRANO
0310724084547602025010619157+40183-074133FM-15+0048KBLM V0203305N00315010365MN0144845N5-00205-00305999999ADDAA101000395AU110030015AW1715GA1025+002445999GA2045+008845999GA3085+010365999GD11991+0024459GD22991+0088459GD34991+0103659GE19AGL   +99999+99999GF199999999999002441999999MA1100645100075MW1715REMMET10801/06/25 14:15:02 METAR KBLM 061915Z 33006KT 9SM -SN FEW008 SCT029 OVC034 M02/M03 A2972 RMK AO2 P0000 FZRANO
0284724084547602025010619477+40183-074133FM-15+0048KBLM V0203405N00315003055MN0112655N5-00105-00305999999ADDAA101000395AU110030015AW1715GA1075+003055999GA2085+009755999GD13991+0030551GD24991+0097559GE19AGL   +99999+99999GF199999999999003051999999MA1100615100045MW1715REMMET11301/06/25 14:47:02 METAR KBLM 061947Z 34006KT 7SM -SN BKN010 OVC032 M01/M03 A2971 RMK AO2 CIG 008V012 P0000 FZRANO
0289724084547602025010619567+40183-074133FM-15+0048KBLM V0203405N00315003055MN0112655N5-00115-00285100605ADDAA101000395AU110030015AW1715GA1075+003055999GA2085+009755999GD13991+0030559GD24991+0097559GE19AGL   +99999+99999GF199999999999003051999999MA1100585100005MW1715REMMET11801/06/25 14:56:02 METAR KBLM 061956Z 34006KT 7SM -SN BKN010 OVC032 M01/M03 A2970 RMK AO2 SLP060 P0001 T10111028 FZRANO
0234724084547602025010620277+40183-074133FM-15+0048KBLM V0203405N00365002445MN0144845N5-00205-00305999999ADDAA101000395AU110030015AW1715GA1085+002445999GD14991+0024459GE19AGL   +99999+99999GF199999999999002441999999MA1100545099975MW1715REMMET09401/06/25 15:27:02 METAR KBLM 062027Z 34007KT 9SM -SN OVC008 M02/M03 A2969 RMK AO2 P0000 FZRANO
0287724084547602025010620567+40183-074133FM-15+0048KBLM V0203605N00365002445MN0160935N5-00175-00285100575ADDAA101000025AA203000591GA1085+002445999GD14991+0024459GE19AGL   +99999+99999GF199999999999002441999999MA1100545099975MD1690289+9999REMMET12601/06/25 15:56:02 METAR KBLM 062056Z 36007KT 10SM OVC008 M02/M03 A2969 RMK AO2 SNE29 SLP057 P0000 60002 T10171028 56028 FZRANOEQDQ01  00058PRCP03
0202724084547602025010621407+40183-074133FM-15+0048KBLM V0203505N00265003055MN0160935N5-00205-00305999999ADDAA101000095GA1085+003055999GD14991+0030559GE19AGL   +99999+99999GF199999999999003051999999MA1100515099945REMMET08501/06/25 16:40:02 METAR KBLM 062140Z 35005KT 10SM OVC010 M02/M03 A2968 RMK AO2 FZRANO
0219724084547602025010621567+40183-074133FM-15+0048KBLM V0203605N00315003055MN0160935N5-00175-00285100545ADDAA101000095GA1085+003055999GD14991+0030559GE19AGL   +99999+99999GF199999999999003051999999MA1100545099975REMMET10201/06/25 16:56:02 METAR KBLM 062156Z 36006KT 10SM OVC010 M02/M03 A2969 RMK AO2 SLP054 T10171028 FZRANO
0301724084547602025010622567+40183-074133FM-15+0048KBLM V0203405N00365024385MN0144845N5-00175-00335100435ADDAA101000025AU110030015AW1715GA1045+004275999GA2085+024385999GD12991+0042759GD24991+0243859GE19AGL   +99999+99999GF199999999999004271999999MA1100415099835MW1715REMMET13001/06/25 17:56:02 METAR KBLM 062256Z 34007KT 9SM -SN SCT014 OVC080 M02/M03 A2965 RMK AO2 SNB02E12B32 SLP043 P0000 T10171033 FZRANO
0383724084547602025010623567+40183-074133FM-15+0048KBLM V0203405N00465018295MN0144845N5-00175-00335100405ADDAA101000025AA206000591AU110030015AW1715GA1075+018295999GA2085+024385999GD13991+0182959GD24991+0243859GE19AGL   +99999+99999GF199999999999018291999999KA1060M-00111KA2060N-00221MA1100375099805MD1790179+9999MW1715REMMET14201/06/25 18:56:02 METAR KBLM 062356Z 34009KT 9SM -SN BKN060 OVC080 M02/M03 A2964 RMK AO2 SLP040 P0000 60002 T10171033 11011 21022 57017 FZRANOEQDQ01  00058PRCP06
0327724084547602025010700567+40183-074133FM-15+0048KBLM V0203305N00415013115MN0144845N5-00175-00395100355ADDAA101000025AU110030015AW1715GA1045+009755999GA2075+013115999GA3085+027435999GD12991+0097559GD23991+0131159GD34991+0274359GE19AGL   +99999+99999GF199999999999009751999999MA1100345099775MW1715REMMET12501/06/25 19:56:01 METAR KBLM 070056Z 33008KT 9SM -SN SCT032 BKN043 OVC090 M02/M04 A2963 RMK AO2 SLP035 P0000 T10171039 FZRANO
0326724084547602025010701567+40183-074133FM-15+0048KBLM V0203305N005152200059N0160935N5-00225-00445100325ADDAA101000025GA1025+006715999GA2045+018295999GA3045+027435999GD11991+0067159GD22991+0182959GD32991+0274359GE19AGL   +99999+99999GF104995999999006711999999MA1100305099735REMMET12801/06/25 20:56:01 METAR KBLM 070156Z 33010KT 10SM FEW022 SCT060 SCT090 M02/M04 A2962 RMK AO2 SNE45 SLP032 P0000 T10221044 FZRANOEQDD01      0ADE726
0305724084547602025010702567+40183-074133FM-15+0048KBLM V0203205N00885024385MN0160935N5-00225-00615100445ADDAA101000095AA203000021GA1045+008535999GA2085+024385999GD12991+0085359GD24991+0243859GE19AGL   +99999+99999GF199999999999008531999999MA1100415099835MD1390039+9999OC101135REMMET12401/06/25 21:56:01 METAR KBLM 070256Z 32017G22KT 10SM SCT028 OVC080 M02/M06 A2965 RMK AO2 SLP044 60000 T10221061 53003 FZRANO
0321724084547602025010703567+40183-074133FM-15+0048KBLM V0203205N00675021345MN0160935N5-00335-00835100545ADDAA101000025GA1025+013115999GA2045+016765999GA3085+021345999GD11991+0131159GD22991+0167659GD34991+0213459GE19AGL   +99999+99999GF199999999999013111999999MA1100545099975OC101185REMMET13401/06/25 22:56:02 METAR KBLM 070356Z 32013G23KT 10SM FEW043 SCT055 OVC070 M03/M08 A2969 RMK AO2 SNB06E47 SLP054 P0000 T10331083 FZRANO
0318724084547602025010704567+40183-074133FM-15+0048KBLM V0203205N00625016765MN0144845N5-00445-01005100645ADDAA101000025GA1075+016765999GA2085+021345999GD13991+0167659GD24991+0213459GE19AGL   +99999+99999GF199999999999016761999999KA1240M-00111KA2240N-00441MA1100615100045OC101135REMMET13601/06/25 23:56:02 METAR KBLM 070456Z 32012G22KT 9SM BKN055 OVC070 M04/M10 A2971 RMK AO2 SNB45E56 SLP064 P0000 T10441100 410111044 FZRANO
0913724084547602025010704596+40183-074133SOD  +0048KBLM V020999999999999999999999999999+99999+99999999999ADDAA124001095AT1AU18SN  5AT2AU13BR  5AT3AW01FG  1AX1015245KA1240M-00105KA2240N-00435MG1100364100304OE11240125232023475OE22240102832023485OE33240034099999995REMSOD74724 HR PRECIPITATION (IN): 0.04 WEATHER(CODE):1  24 HR MAX TEMP (F):30 24 HR MAX TEMP TIME (LST):1509 24 HR MIN TEMP (F):24 24 HR MIN TEMP TIME (LST):2359 AVERAGE STATION PRESSURE(D):29.638 MINIMUM SEA LEVEL PRESSURE:29.62 TIME OF OCCURRENCE:2056 PEAK WIND SPEED (MPH):28  PEAK WIND DIR (DEG):320 PEAK WIND TIME (LST):2347  FASTEST 2MIN SPEED (MPH):23 FASTEST 2MIN DIR (DEG):320 FASTEST 2MIN TIME (LST):2348 AVERAGE WIND SPEED (MPH): 7.6 24 HR AVG TEMP (F):27 HEATING DEGREE DAYS: 38 COOLING DEGREE DAYS:  0 LATEST DAY MAX TEMP (0700-1900 LST): 30 LATEST NIGHT MIN TEMP(1900-0800 LST):26 HOURLY INCREMENTAL PRECIPITATION VALUES (IN):0.00 0.00 0.00 0.00 0.00 0.00 0.00 0.00T     0.01T     0.01T     0.01 0.01T     0.00T    T    T    T     0.00T    T
0400724084547602025010705567+40183-074133FM-15+0048KBLM V0203005N00935024385MN0160935N5-00615-01225100655ADDAA101000095AA206000021GA1075+024385999GA2075+028965999GA3085+033535999GD13991+0243859GD23991+0289659GD34991+0335359GE19AGL   +99999+99999GF199999999999024381999999KA1060M-00171MA1100645100075MD1190219+9999OC101545OD149901541300REMMET16101/07/25 00:56:02 METAR KBLM 070556Z 30018G30KT 10SM BKN080 BKN095 OVC110 M06/M12 A2972 RMK AO2 PK WND 30030/0552 SLP065 60000 T10611122 11017 21061 51021 FZRANO
0223724084547602025010706567+40183-074133FM-15+0048KBLM V0203005N010352200059N0160935N5-00835-01335100745ADDAA101000095GA1005+999999999GD10991+9999999GF100991999999999999999999MA1100715100145OC101345REMMET12001/07/25 01:56:02 METAR KBLM 070656Z 30020G26KT 10SM CLR M08/M13 A2974 RMK AO2 PK WND 31029/0630 SLP074 T10831133 FZRANO
0205724084547602025010707567+40183-074133FM-15+0048KBLM V0203005N008252200059N0160935N5-00835-01335100835ADDAA101000095GA1005+999999999GD10991+9999999GF100991999999999999999999MA1100815100245OC101135REMMET10201/07/25 02:56:02 METAR KBLM 070756Z 30016G22KT 10SM CLR M08/M13 A2977 RMK AO2 SLP083 T10831133 FZRANO
0243724084547602025010708567+40183-074133FM-15+0048KBLM V0203005N007252200059N0160935N5-00835-01335100835ADDAA101000095GA1005+999999999GD10991+9999999GF100991999999999999999999MA1100815100245MD1090179+9999OC101085REMMET12601/07/25 03:56:02 METAR KBLM 070856Z 30014G21KT 10SM CLR M08/M13 A2977 RMK AO2 PK WND 30027/0810 SLP083 T10831133 50017 FZRANO
0249724084547602025010709567+40183-074133FM-15+0048KBLM V0203005N005752200059N0160935N5-00725-01285100885ADDAA101000095GA1025+010365999GD11991+0103659GE19AGL   +99999+99999GF102995999999010361999999MA1100855100275OC101035REMMET10501/07/25 04:56:02 METAR KBLM 070956Z 30011G20KT 10SM FEW034 M07/M13 A2978 RMK AO2 SLP088 T10721128 FZRANOEQDD01      0ADE726
0205724084547602025010710567+40183-074133FM-15+0048KBLM V0202905N006752200059N0160935N5-00725-01225100955ADDAA101000095GA1005+999999999GD10991+9999999GF100991999999999999999999MA1100915100345OC101085REMMET10201/07/25 05:56:02 METAR KBLM 071056Z 29013G21KT 10SM CLR M07/M12 A2980 RMK AO2 SLP095 T10721122 FZRANO
0280724084547602025010711567+40183-074133FM-15+0048KBLM V0202905N006752200059N0160935N5-00675-01175101025ADDAA101000095AA224001091GA1005+999999999GD10991+9999999GF100991999999999999999999KA1060M-00611KA2060N-00891MA1101025100445MD1390209+9999OC100935REMMET12601/07/25 06:56:01 METAR KBLM 071156Z 29013G18KT 10SM CLR M07/M12 A2983 RMK AO2 SLP102 70004 T10671117 11061 21089 53020 FZRANO
0205724084547602025010712567+40183-074133FM-15+0048KBLM V0202905N006752200059N0160935N5-00615-01175101045ADDAA101000095GA1005+999999999GD10991+9999999GF100991999999999999999999MA1101025100445OC100985REMMET10201/07/25 07:56:01 METAR KBLM 071256Z 29013G19KT 10SM CLR M06/M12 A2983 RMK AO2 SLP104 T10611117 FZRANO
0205724084547602025010713567+40183-074133FM-15+0048KBLM V0202905N007752200059N0160935N5-00505-01175101085ADDAA101000095GA1005+999999999GD10991+9999999GF100991999999999999999999MA1101055100485OC101245REMMET10201/07/25 08:56:02 METAR KBLM 071356Z 29015G24KT 10SM CLR M05/M12 A2984 RMK AO2 SLP108 T10501117 FZRANO
0331724084547602025010714567+40183-074133FM-15+0048KBLM V0202905N011852200059N0128755N5-00395-01175101095ADDAA101000025AA203000021AU110030015AW1715GA1005+999999999GD10991+9999999GF100991999999999999999999MA1101085100515MD1190079+9999MW1715OC101545OD149901641300REMMET14701/07/25 09:56:02 METAR KBLM 071456Z 29023G30KT 8SM -SN CLR M04/M12 A2985 RMK AO2 PK WND 30032/1426 SNB28 SLP109 P0000 60000 T10391117 51007 FZRANOEQDQ01  00008PRCP03
0256724084547602025010715147+40183-074133FM-15+0048KBLM V0202805N011852200059N0020125N5-00305-01205999999ADDAA101000025AU110030015AW1715GA1005+999999999GD10991+9999999GF100991999999999999999999MA1101085100515MW1715OC101755OD149901751280REMMET11601/07/25 10:14:02 METAR KBLM 071514Z 28023G34KT 1 1/4SM -SN CLR M03/M12 A2985 RMK AO2 PK WND 28034/1513 P0000 FZRANO
0252724084547602025010715247+40183-074133FM-15+0048KBLM V0203005N009852200059N0128755N5-00305-01205999999ADDAA101000025AU110030015AW1715GA1005+999999999GD10991+9999999GF100991999999999999999999MA1101085100515MW1715OC101495OD149901751280REMMET11201/07/25 10:24:02 METAR KBLM 071524Z 30019G29KT 8SM -SN CLR M03/M12 A2985 RMK AO2 PK WND 28034/1513 P0000 FZRANO
0269724084547602025010715567+40183-074133FM-15+0048KBLM V0202905N011352200059N0144845N5-00285-01115101075ADDAA101000025AU110030015AW1715GA1005+999999999GD10991+9999999GF100991999999999999999999MA1101055100485MW1715OC101755OD149901751280REMMET12901/07/25 10:56:02 METAR KBLM 071556Z 29022G34KT 9SM -SN CLR M03/M11 A2984 RMK AO2 PK WND 28034/1547 SLP107 P0000 T10281111 FZRANO
0235724084547602025010716567+40183-074133FM-15+0048KBLM V0202805N010852200059N0160935N5-00175-01115101035ADDAA101000025GA1005+999999999GD10991+9999999GF100991999999999999999999MA1101025100445OC101545REMMET13201/07/25 11:56:02 METAR KBLM 071656Z 28021G30KT 10SM CLR M02/M11 A2983 RMK AO2 PK WND 29034/1601 SNE18 SLP103 P0000 T10171111 FZRANO
0297724084547602025010717567+40183-074133FM-15+0048KBLM V0202905N012452200059N0160935N5+00005-01005100995ADDAA101000095AA206000021GA1005+999999999GD10991+9999999GF100991999999999999999999KA1060M+00001KA2060N-00671MA1100985100415MD1890109+9999OC101655REMMET14301/07/25 12:56:02 METAR KBLM 071756Z 29024G32KT 10SM CLR 00/M10 A2982 RMK AO2 PK WND 29037/1712 SLP099 60000 T00001100 10000 21067 58010 FZRANO
0222724084547602025010718567+40183-074133FM-15+0048KBLM V0202905N009852200059N0160935N5+00065-01115100995ADDAA101000095GA1005+999999999GD10991+9999999GF100991999999999999999999MA1100985100415OC101605REMMET11901/07/25 13:56:02 METAR KBLM 071856Z 29019G31KT 10SM CLR 01/M11 A2982 RMK AO2 PK WND 31037/1802 SLP099 T00061111 FZRANO
0222724084547602025010719567+40183-074133FM-15+0048KBLM V0203005N011352200059N0160935N5+00115-01065101045ADDAA101000095GA1005+999999999GD10991+9999999GF100991999999999999999999MA1101025100445OC101655REMMET11901/07/25 14:56:01 METAR KBLM 071956Z 30022G32KT 10SM CLR 01/M11 A2983 RMK AO2 PK WND 30033/1942 SLP104 T00111106 FZRANO
0216724084547602025010720566+40183-074133FM-15+0048KBLM V0202905N009352200059N0160935N5+00065-01115101195ADDAA101000095GA1005+999999999GD10991+9999999MA1101195100615MD1390209+9999OC101605REMMET12501/07/25 15:56:02 METAR KBLM 072056Z 29018G31KT 10SM CLR 01/M11 A2988 RMK AO2 PK WND 29034/2029 SLP119 T00061111 53020 FZRANO
0223724084547602025010721567+40183-074133FM-15+0048KBLM V0202905N008252200059N0160935N5-00115-01005101325ADDAA101000095GA1005+999999999GD10991+9999999GF100991999999999999999999MA1101295100715OC101395REMMET12001/07/25 16:56:02 METAR KBLM 072156Z 29016G27KT 10SM CLR M01/M10 A2991 RMK AO2 PK WND 31033/2112 SLP132 T10111100 FZRANO
0223724084547602025010722567+40183-074133FM-15+0048KBLM V0203005N009352200059N0160935N5-00175-01065101425ADDAA101000095GA1005+999999999GD10991+9999999GF100991999999999999999999MA1101395100815OC101395REMMET12001/07/25 17:56:02 METAR KBLM 072256Z 30018G27KT 10SM CLR M02/M11 A2994 RMK AO2 PK WND 29029/2243 SLP142 T10171106 FZRANO
0281724084547602025010723567+40183-074133FM-15+0048KBLM V0203005N009352200059N0160935N5-00225-01065101455ADDAA101000095GA1005+999999999GD10991+9999999GF100991999999999999999999KA1060M+00111KA2060N-00221MA1101425100855MD1190259+9999OC101135REMMET13801/07/25 18:56:02 METAR KBLM 072356Z 30018G22KT 10SM CLR M02/M11 A2995 RMK AO2 PK WND 31032/2324 SLP145 T10221106 10011 21022 51025 FZRANO
0223724084547602025010800567+40183-074133FM-15+0048KBLM V0202905N008252200059N0160935N5-00285-01065101535ADDAA101000095GA1005+999999999GD10991+9999999GF100991999999999999999999MA1101495100915OC101185REMMET12001/07/25 19:56:01 METAR KBLM 080056Z 29016G23KT 10SM CLR M03/M11 A2997 RMK AO2 PK WND 30029/0017 SLP153 T10281106 FZRANO
0194724084547602025010801567+40183-074133FM-15+0048KBLM V0203005N006752200059N0160935N5-00335-01065101595ADDAA101000095GA1005+999999999GD10991+9999999GF100991999999999999999999MA1101565100985REMMET09901/07/25 20:56:01 METAR KBLM 080156Z 30013KT 10SM CLR M03/M11 A2999 RMK AO2 SLP159 T10331106 FZRANO
0258724084547602025010802567+40183-074133FM-15+0048KBLM V0202905N006752200059N0160935N5-00395-01065101615ADDAA101000095GA1045+012505999GD12991+0125059GE19AGL   +99999+99999GF104995999999012501999999MA1101595101015MD1190179+9999REMMET10801/07/25 21:56:01 METAR KBLM 080256Z 29013KT 10SM SCT041 M04/M11 A3000 RMK AO2 SLP161 T10391106 51017 FZRANOEQDD01      0ADE726
0237724084547602025010803567+40183-074133FM-15+0048KBLM V0202805N00515012505MN0160935N5-00335-01065101645ADDAA101000095GA1075+012505999GD13991+0125059GE19AGL   +99999+99999GF199999999999012501999999MA1101635101055REMMET12001/07/25 22:56:02 METAR KBLM 080356Z 28010KT 10SM BKN041 M03/M11 A3001 RMK AO2 PK WND 32028/0331 SLP164 T10331106 FZRANO
0255724084547602025010804567+40183-074133FM-15+0048KBLM V0202905N00575011895MN0160935N5-00445-01065101625ADDAA101000095GA1075+011895999GD13991+0118959GE19AGL   +99999+99999GF199999999999011891999999KA1240M+00111KA2240N-00891MA1101595101015REMMET11201/07/25 23:56:02 METAR KBLM 080456Z 29011KT 10SM BKN039 M04/M11 A3000 RMK AO2 SLP162 T10441106 400111089 FZRANO
0912724084547602025010804596+40183-074133SOD  +0048KBLM V020999999999999999999999999999+99999+99999999999ADDAA124000025AT1AU18SN  5AX1086246KA1240M+00115KA2240N-00885MG1100554100644OE11240192231013025OE22240147530014425OE33240084999999995REMSOD75124 HR PRECIPITATION (IN):T     WEATHER(CODE):8  24 HR MAX TEMP (F):34 24 HR MAX TEMP TIME (LST):1521 24 HR MIN TEMP (F):16 24 HR MIN TEMP TIME (LST):0234 AVERAGE STATION PRESSURE(D):29.693 MINIMUM SEA LEVEL PRESSURE:29.72 TIME OF OCCURRENCE:0102 PEAK WIND SPEED (MPH):43  PEAK WIND DIR (DEG):310 PEAK WIND TIME (LST):1302  FASTEST 2MIN SPEED (MPH):33 FASTEST 2MIN DIR (DEG):300 FASTEST 2MIN TIME (LST):1442 AVERAGE WIND SPEED (MPH):19.0 24 HR AVG TEMP (F):25 HEATING DEGREE DAYS: 40 COOLING DEGREE DAYS:  0 LATEST DAY MAX TEMP (0700-1900 LST): 34 LATEST NIGHT MIN TEMP(1900-0800 LST):16 HOURLY INCREMENTAL PRECIPITATION VALUES (IN):0.00 0.00 0.00 0.00 0.00 0.00 0.00 0.00 0.00T    T    T     0.00 0.00 0.00 0.00 0.00 0.00 0.00 0.00 0.00 0.00 0.00 0.00EQDR01     87AXW093
0263724084547602025010805567+40183-074133FM-15+0048KBLM V0202805N005152200059N0160935N5-00445-01115101635ADDAA101000095GA1005+999999999GD10991+9999999GF100991999999999999999999KA1060M-00221KA2060N-00441MA1101635101055MD1190029+9999OC101035REMMET12001/08/25 00:56:02 METAR KBLM 080556Z 28010G20KT 10SM CLR M04/M11 A3001 RMK AO2 SLP163 T10441111 11022 21044 51002 FZRANO
0205724084547602025010806567+40183-074133FM-15+0048KBLM V0202805N007752200059N0160935N5-00445-01225101655ADDAA101000095GA1005+999999999GD10991+9999999GF100991999999999999999999MA1101635101055OC101135REMMET10201/08/25 01:56:02 METAR KBLM 080656Z 28015G22KT 10SM CLR M04/M12 A3001 RMK AO2 SLP165 T10441122 FZRANO
0205724084547602025010807567+40183-074133FM-15+0048KBLM V0202905N005152200059N0160935N5-00505-01285101665ADDAA101000095GA1005+999999999GD10991+9999999GF100991999999999999999999MA1101635101055OC100985REMMET10201/08/25 02:56:02 METAR KBLM 080756Z 29010G19KT 10SM CLR M05/M13 A3001 RMK AO2 SLP166 T10501128 FZRANO
0225724084547602025010808567+40183-074133FM-15+0048KBLM V0202905N009352200059N0160935N5-00505-01285101655ADDAA101000095GA1005+999999999GD10991+9999999GF100991999999999999999999MA1101635101055MD1090019+9999OC101135REMMET10801/08/25 03:56:02 METAR KBLM 080856Z 29018G22KT 10SM CLR M05/M13 A3001 RMK AO2 SLP165 T10501128 50001 FZRANO
0205724084547602025010809567+40183-074133FM-15+0048KBLM V0202905N008252200059N0160935N5-00505-01285101625ADDAA101000095GA1005+999999999GD10991+9999999GF100991999999999999999999MA1101595101015OC101295REMMET10201/08/25 04:56:02 METAR KBLM 080956Z 29016G25KT 10SM CLR M05/M13 A3000 RMK AO2 SLP162 T10501128 FZRANO
0205724084547602025010810567+40183-074133FM-15+0048KBLM V0202905N006752200059N0160935N5-00505-01285101635ADDAA101000095GA1005+999999999GD10991+9999999GF100991999999999999999999MA1101635101055OC101085REMMET10201/08/25 05:56:02 METAR KBLM 081056Z 29013G21KT 10SM CLR M05/M13 A3001 RMK AO2 SLP163 T10501128 FZRANO
0271724084547602025010811567+40183-074133FM-15+0048KBLM V0202805N006752200059N0160935N5-00565-01285101655ADDAA101000095GA1005+999999999GD10991+9999999GF100991999999999999999999KA1060M-00441KA2060N-00561MA1101635101055MD1390009+9999REMMET11701/08/25 06:56:02 METAR KBLM 081156Z 28013KT 10SM CLR M06/M13 A3001 RMK AO2 SLP165 T10561128 11044 21056 53000 FZRANOEQDQ013     3APCTEN
0205724084547602025010812567+40183-074133FM-15+0048KBLM V0202805N006252200059N0160935N5-00565-01285101675ADDAA101000095GA1005+999999999GD10991+9999999GF100991999999999999999999MA1101665101085OC101035REMMET10201/08/25 07:56:02 METAR KBLM 081256Z 28012G20KT 10SM CLR M06/M13 A3002 RMK AO2 SLP167 T10561128 FZRANO
0205724084547602025010813567+40183-074133FM-15+0048KBLM V0202805N009852200059N0160935N5-00395-01285101655ADDAA101000095GA1005+999999999GD10991+9999999GF100991999999999999999999MA1101635101055OC101135REMMET10201/08/25 08:56:02 METAR KBLM 081356Z 28019G22KT 10SM CLR M04/M13 A3001 RMK AO2 SLP165 T10391128 FZRANO
0243724084547602025010814567+40183-074133FM-15+0048KBLM V0202705N009852200059N0160935N5-00335-01335101645ADDAA101000095GA1005+999999999GD10991+9999999GF100991999999999999999999MA1101635101055MD1890019+9999OC101395REMMET12601/08/25 09:56:02 METAR KBLM 081456Z 27019G27KT 10SM CLR M03/M13 A3001 RMK AO2 PK WND 29027/1454 SLP164 T10331133 58001 FZRANO
0223724084547602025010815567+40183-074133FM-15+0048KBLM V0202905N008852200059N0160935N5-00225-01225101535ADDAA101000095GA1005+999999999GD10991+9999999GF100991999999999999999999MA1101525100955OC101395REMMET12001/08/25 10:56:02 METAR KBLM 081556Z 29017G27KT 10SM CLR M02/M12 A2998 RMK AO2 PK WND 28029/1538 SLP153 T10221122 FZRANO
0281724084547602025010816567+40183-074133FM-15+0048KBLM V0203005N010352200059N0160935N5-00175-01335101415ADDAA101000095GA1025+015245999GD11991+0152459GE19AGL   +99999+99999GF102995999999015241999999MA1101395100815OC101805OD149901801300REMMET12301/08/25 11:56:02 METAR KBLM 081656Z 30020G35KT 10SM FEW050 M02/M13 A2994 RMK AO2 PK WND 30035/1650 SLP141 T10171133 FZRANOEQDD01      0ADE726
0339724084547602025010817567+40183-074133FM-15+0048KBLM V0202805N011352200059N0160935N5-00115-01335101285ADDAA101000095GA1025+016765999GD11991+0167659GE19AGL   +99999+99999GF102995999999016761999999KA1060M-00111KA2060N-00611MA1101255100685MD1890359+9999OC101495OD149901691300REMMET14101/08/25 12:56:02 METAR KBLM 081756Z 28022G29KT 10SM FEW055 M01/M13 A2990 RMK AO2 PK WND 30033/1742 SLP128 T10111133 11011 21061 58035 FZRANOEQDD01      0ADE726
0281724084547602025010818567+40183-074133FM-15+0048KBLM V0202805N009852200059N0160935N5-00115-01395101175ADDAA101000095GA1045+018295999GD12991+0182959GE19AGL   +99999+99999GF104995999999018291999999MA1101155100585OC101605OD149901591290REMMET12301/08/25 13:56:02 METAR KBLM 081856Z 28019G31KT 10SM SCT060 M01/M14 A2987 RMK AO2 PK WND 29031/1850 SLP117 T10111139 FZRANOEQDD01      0ADE726
0223724084547602025010819567+40183-074133FM-15+0048KBLM V0203105N010852200059N0160935N5-00065-01505101125ADDAA101000095GA1005+999999999GD10991+9999999GF100991999999999999999999MA1101125100545OC101495REMMET12001/08/25 14:56:02 METAR KBLM 081956Z 31021G29KT 10SM CLR M01/M15 A2986 RMK AO2 PK WND 28031/1859 SLP112 T10061150 FZRANO
0243724084547602025010820567+40183-074133FM-15+0048KBLM V0202705N010352200059N0160935N5-00115-01395101095ADDAA101000095GA1005+999999999GD10991+9999999GF100991999999999999999999MA1101085100515MD1690209+9999OC101295REMMET12601/08/25 15:56:02 METAR KBLM 082056Z 27020G25KT 10SM CLR M01/M14 A2985 RMK AO2 PK WND 29029/1959 SLP109 T10111139 56020 FZRANO
0223724084547602025010821567+40183-074133FM-15+0048KBLM V0202805N007752200059N0160935N5-00335-01505101105ADDAA101000095GA1005+999999999GD10991+9999999GF100991999999999999999999MA1101085100515OC101135REMMET12001/08/25 16:56:02 METAR KBLM 082156Z 28015G22KT 10SM CLR M03/M15 A2985 RMK AO2 PK WND 28029/2126 SLP110 T10331150 FZRANO
0223724084547602025010822567+40183-074133FM-15+0048KBLM V0202905N006252200059N0160935N5-00395-01505101175ADDAA101000095GA1005+999999999GD10991+9999999GF100991999999999999999999MA1101155100585OC100935REMMET12001/08/25 17:56:02 METAR KBLM 082256Z 29012G18KT 10SM CLR M04/M15 A2987 RMK AO2 PK WND 28030/2216 SLP117 T10391150 FZRANO
0281724084547602025010823567+40183-074133FM-15+0048KBLM V0202805N010852200059N0160935N5-00445-01505101175ADDAA101000095GA1005+999999999GD10991+9999999GF100991999999999999999999KA1060M+00001KA2060N-00441MA1101155100585MD1090079+9999OC101495REMMET13801/08/25 18:56:02 METAR KBLM 082356Z 28021G29KT 10SM CLR M04/M15 A2987 RMK AO2 PK WND 29029/2354 SLP117 T10441150 10000 21044 50007 FZRANO
0223724084547602025010900567+40183-074133FM-15+0048KBLM V0203005N008252200059N0160935N5-00505-01445101205ADDAA101000095GA1005+999999999GD10991+9999999GF100991999999999999999999MA1101195100615OC101395REMMET12001/08/25 19:56:01 METAR KBLM 090056Z 30016G27KT 10SM CLR M05/M14 A2988 RMK AO2 PK WND 30031/0021 SLP120 T10501144 FZRANO
0223724084547602025010901567+40183-074133FM-15+0048KBLM V0202905N007252200059N0160935N5-00565-01445101195ADDAA101000095GA1005+999999999GD10991+9999999GF100991999999999999999999MA1101195100615OC101135REMMET12001/08/25 20:56:01 METAR KBLM 090156Z 29014G22KT 10SM CLR M06/M14 A2988 RMK AO2 PK WND 31028/0122 SLP119 T10561144 FZRANO
0225724084547602025010902567+40183-074133FM-15+0048KBLM V0202905N008252200059N0160935N5-00615-01445101165ADDAA101000095GA1005+999999999GD10991+9999999GF100991999999999999999999MA1101155100585MD1890019+9999OC101135REMMET10801/08/25 21:56:01 METAR KBLM 090256Z 29016G22KT 10SM CLR M06/M14 A2987 RMK AO2 SLP116 T10611144 58001 FZRANO
0226724084547602025010903567+40183-074133FM-15+0048KBLM V0202705N006252200059N0160935N5-00675-01445101105ADDAA101000095GA1005+999999999GD10991+9999999GF100991999999999999999999MA1101085100515OD149901331290REMMET11701/08/25 22:56:02 METAR KBLM 090356Z 27012KT 10SM CLR M07/M14 A2985 RMK AO2 PK WND 29026/0301 SLP110 T10671144 FZRANO
0241724084547602025010904567+40183-074133FM-15+0048KBLM V0202805N007252200059N0160935N5-00675-01445101015ADDAA101000095GA1005+999999999GD10991+9999999GF100991999999999999999999KA1240M+00001KA2240N-00671MA1100985100415OC101135REMMET11201/08/25 23:56:02 METAR KBLM 090456Z 28014G22KT 10SM CLR M07/M14 A2982 RMK AO2 SLP101 T10671144 400001067 FZRANO
0855724084547602025010904596+40183-074133SOD  +0048KBLM V020999999999999999999999999999+99999+99999999999ADDAA124000095KA1240M+00005KA2240N-00665MG1100794101024OE11240178830011505OE22240147531011375OE33240082399999995REMSOD73424 HR PRECIPITATION (IN): 0.00 24 HR MAX TEMP (F):32 24 HR MAX TEMP TIME (LST):1447 24 HR MIN TEMP (F):20 24 HR MIN TEMP TIME (LST):2359 AVERAGE STATION PRESSURE(D):29.763 MINIMUM SEA LEVEL PRESSURE:29.83 TIME OF OCCURRENCE:2359 PEAK WIND SPEED (MPH):40  PEAK WIND DIR (DEG):300 PEAK WIND TIME (LST):1150  FASTEST 2MIN SPEED (MPH):33 FASTEST 2MIN DIR (DEG):310 FASTEST 2MIN TIME (LST):1137 AVERAGE WIND SPEED (MPH):18.4 24 HR AVG TEMP (F):26 HEATING DEGREE DAYS: 39 COOLING DEGREE DAYS:  0 LATEST DAY MAX TEMP (0700-1900 LST): 32 LATEST NIGHT MIN TEMP(1900-0800 LST):21 HOURLY INCREMENTAL PRECIPITATION VALUES (IN):0.00 0.00 0.00 0.00 0.00 0.00 0.00 0.00 0.00 0.00 0.00 0.00 0.00 0.00 0.00 0.00 0.00 0.00 0.00 0.00 0.00 0.00 0.00 0.00
0281724084547602025010905567+40183-074133FM-15+0048KBLM V0202805N007752200059N0160935N5-00725-01445100955ADDAA101000095GA1005+999999999GD10991+9999999GF100991999999999999999999KA1060M-00441KA2060N-00721MA1100955100375MD1890219+9999OC101245REMMET13801/09/25 00:56:02 METAR KBLM 090556Z 28015G24KT 10SM CLR M07/M14 A2981 RMK AO2 PK WND 29026/0517 SLP095 T10721144 11044 21072 58021 FZRANO
0205724084547602025010906567+40183-074133FM-15+0048KBLM V0202805N008852200059N0160935N5-00725-01395100925ADDAA101000095GA1005+999999999GD10991+9999999GF100991999999999999999999MA1100915100345OC101295REMMET10201/09/25 01:56:02 METAR KBLM 090656Z 28017G25KT 10SM CLR M07/M14 A2980 RMK AO2 SLP092 T10721139 FZRANO
0223724084547602025010907567+40183-074133FM-15+0048KBLM V0202805N007752200059N0160935N5-00725-01395100865ADDAA101000095GA1005+999999999GD10991+9999999GF100991999999999999999999MA1100855100275OC101295REMMET12001/09/25 02:56:02 METAR KBLM 090756Z 28015G25KT 10SM CLR M07/M14 A2978 RMK AO2 PK WND 28027/0745 SLP086 T10721139 FZRANO
0243724084547602025010908567+40183-074133FM-15+0048KBLM V0202905N008852200059N0160935N5-00725-01395100805ADDAA101000095GA1005+999999999GD10991+9999999GF100991999999999999999999MA1100785100215MD1890159+9999OC101445REMMET12601/09/25 03:56:02 METAR KBLM 090856Z 29017G28KT 10SM CLR M07/M14 A2976 RMK AO2 PK WND 28028/0847 SLP080 T10721139 58015 FZRANO
0281724084547602025010909567+40183-074133FM-15+0048KBLM V0202805N008252200059N0160935N5-00725-01335100785ADDAA101000095GA1045+028965999GD12991+0289659GE19AGL   +99999+99999GF104995999999028961999999MA1100755100175OC101085OD149901331270REMMET12301/09/25 04:56:02 METAR KBLM 090956Z 28016G21KT 10SM SCT095 M07/M13 A2975 RMK AO2 PK WND 27026/0901 SLP078 T10721133 FZRANOEQDD01      0ADE726
0223724084547602025010910567+40183-074133FM-15+0048KBLM V0202805N008252200059N0160935N5-00725-01335100815ADDAA101000095GA1005+999999999GD10991+9999999GF100991999999999999999999MA1100785100215OC101245REMMET12001/09/25 05:56:02 METAR KBLM 091056Z 28016G24KT 10SM CLR M07/M13 A2976 RMK AO2 PK WND 29026/1033 SLP081 T10721133 FZRANO
0263724084547602025010911567+40183-074133FM-15+0048KBLM V0202805N007752200059N0160935N5-00675-01335100855ADDAA101000095GA1005+999999999GD10991+9999999GF100991999999999999999999KA1060M-00671KA2060N-00721MA1100815100245MD1390049+9999OC101185REMMET12001/09/25 06:56:02 METAR KBLM 091156Z 28015G23KT 10SM CLR M07/M13 A2977 RMK AO2 SLP085 T10671133 11067 21072 53004 FZRANO
