0253724090147802021010100004+40033-074353FM-15+003199999V0203401N001510304819N016093199+00501+00111102601ADDGD12991+0103619GD24991+0304819GE19MSL   +99999+99999GF199999999999010361999999KA1060M+00781KA2060N+00501MA1102611999999MD1110161+9999REMMET108METAR KNEL 010000Z AUTO 34003KT 10SM SCT034 OVC100 05/01 A3030 RMK AO2 SLP260 T00500011 10078 20050 51016 $=
0192724090147802021010101004+40033-074353FM-15+003199999V0203301N002612200059N016093199+00441+00061102671ADDGD12991+0365819GE19AGL   +99999+99999GF104995999999036581999999MA1102671999999REMMET083METAR KNEL 010100Z AUTO 33005KT 10SM SCT120 04/01 A3032 RMK AO2 SLP267 T00440006 $=EQDD01      0ADE726
0134724090147802021010102004+40033-074353FM-15+003199999V0209999V002112200019N016093199+00391-00171102771ADDGF100991999999999999999999MA1102781999999REMMET081METAR KNEL 010200Z AUTO VRB04KT 10SM CLR 04/M02 A3035 RMK AO2 SLP277 T00391017 $=
0161724090147802021010103004+40033-074353FM-15+003199999V0209999C000012200019N016093199+00221-00281102841ADDGF100991999999999999999999MA1102881999999MD1110291+9999REMMET094METAR KNEL 010300Z AUTO 00000KT 10SM CLR 02/M03 A3038 RMK AO2 SLP284 T00221028 51029 FZRANO $=
0184724090147802021010104007+40033-074350FM-15+0031KNEL V0203205N002152200059N0160935N5+00175-00335102915ADDGA1005+999999999GD10991+9999999GF100991999999999999999999MA1102915102545REMMET10012/31/20 23:00:02 METAR KNEL 010400Z 32004KT 10SM CLR 02/M03 A3039 RMK AO2 SLP291 T00171033 FZRANO $
0220724090147802021010105007+40033-074350FM-15+0031KNEL V0203205N001552200059N0160935N5+00065-00395102955ADDGA1005+999999999GD10991+9999999GF100991999999999999999999KA1240M+00061KA2240N+00061MA1102985102605REMMET11001/01/21 00:00:02 METAR KNEL 010500Z 32003KT 10SM CLR 01/M04 A3041 RMK AO2 SLP295 T00061039 400060006 FZRANO $
0243724090147802021010106007+40033-074350FM-15+0031KNEL V0209999C000052200059N0160935N5-00225-00445102985ADDGA1005+999999999GD10991+9999999GF100991999999999999999999KA1060M+00501KA2060N-00221MA1102985102605MD1190189+9999REMMET11901/01/21 01:00:02 METAR KNEL 010600Z 00000KT 10SM CLR M02/M04 A3041 RMK AO2 SLP298 T10221044 10050 21022 51018 FZRANO $
0185724090147802021010107007+40033-074350FM-15+0031KNEL V0209999C000052200059N0160935N5-00285-00445103105ADDGA1005+999999999GD10991+9999999GF100991999999999999999999MA1103125102745REMMET10101/01/21 02:00:02 METAR KNEL 010700Z 00000KT 10SM CLR M03/M04 A3045 RMK AO2 SLP310 T10281044 FZRANO $
0185724090147802021010108007+40033-074350FM-15+0031KNEL V0209999C000052200059N0160935N5-00335-00445103155ADDGA1005+999999999GD10991+9999999GF100991999999999999999999MA1103155102775REMMET10101/01/21 03:00:02 METAR KNEL 010800Z 00000KT 10SM CLR M03/M04 A3046 RMK AO2 SLP315 T10331044 FZRANO $
0205724090147802021010109007+40033-074350FM-15+0031KNEL V0203505N001552200059N0160935N5-00335-00445103165ADDGA1005+999999999GD10991+9999999GF100991999999999999999999MA1103185102815MD1390199+9999REMMET10701/01/21 04:00:02 METAR KNEL 010900Z 35003KT 10SM CLR M03/M04 A3047 RMK AO2 SLP316 T10331044 53019 FZRANO $
0185724090147802021010110007+40033-074350FM-15+0031KNEL V0209999C000052200059N0160935N5-00395-00445103155ADDGA1005+999999999GD10991+9999999GF100991999999999999999999MA1103155102775REMMET10101/01/21 05:00:02 METAR KNEL 011000Z 00000KT 10SM CLR M04/M04 A3046 RMK AO2 SLP315 T10391044 FZRANO $
0185724090147802021010111007+40033-074350FM-15+0031KNEL V0209999C000052200059N0160935N5-00395-00565103235ADDGA1005+999999999GD10991+9999999GF100991999999999999999999MA1103255102875REMMET10101/01/21 06:00:02 METAR KNEL 011100Z 00000KT 10SM CLR M04/M06 A3049 RMK AO2 SLP323 T10391056 FZRANO $
0243724090147802021010112007+40033-074350FM-15+0031KNEL V0209999C000052200059N0160935N5-00615-00615103275ADDGA1005+999999999GD10991+9999999GF100991999999999999999999KA1060M-00171KA2060N-00721MA1103285102915MD1390089+9999REMMET11901/01/21 07:00:02 METAR KNEL 011200Z 00000KT 10SM CLR M06/M06 A3050 RMK AO2 SLP327 T10611061 11017 21072 53008 FZRANO $
0159724090147802021010113006+40033-074350FM-15+0031KNEL V0203405N001552200059N0160935N5-00445-00445103305ADDGA1005+999999999GD10991+9999999MA1103325102945REMMET10101/01/21 08:00:02 METAR KNEL 011300Z 34003KT 10SM CLR M04/M04 A3051 RMK AO2 SLP330 T10441044 FZRANO $
0184724090147802021010114007+40033-074350FM-15+0031KNEL V0209999V001552200059N0160935N5+00065-00285103365ADDGA1005+999999999GD10991+9999999GF100991999999999999999999MA1103355102975REMMET10001/01/21 09:00:02 METAR KNEL 011400Z VRB03KT 10SM CLR 01/M03 A3052 RMK AO2 SLP336 T00061028 FZRANO $
0197724090147802021010115007+40033-074350FM-15+0031KNEL V0209999V001552200059N0160935N5+00285-00285103325ADDGA1005+999999999GD10991+9999999GF100991999999999999999999MA1103355102975MD1390129+9999REMMET09901/01/21 10:00:02 METAR KNEL 011500Z VRB03KT 10SM CLR 03/M03 A3052 RMK AO2 SLP332 T00281028 53012 $
0177724090147802021010116007+40033-074350FM-15+0031KNEL V0200305N002152200059N0160935N5+00335-00225103205ADDGA1005+999999999GD10991+9999999GF100991999999999999999999MA1103225102845REMMET09301/01/21 11:00:02 METAR KNEL 011600Z 03004KT 10SM CLR 03/M02 A3048 RMK AO2 SLP320 T00331022 $
0177724090147802021010117007+40033-074350FM-15+0031KNEL V0200905N005152200059N0160935N5+00445-00115103015ADDGA1005+999999999GD10991+9999999GF100991999999999999999999MA1103015102645REMMET09301/01/21 12:00:02 METAR KNEL 011700Z 09010KT 10SM CLR 04/M01 A3042 RMK AO2 SLP301 T00441011 $
0278724090147802021010118007+40033-074350FM-15+0031KNEL V0200705N003652200059N0160935N5+00445+00005102955ADDGA1025+033535999GD11991+0335359GE19AGL   +99999+99999GF102995999999033531999999KA1060M+00441KA2060N-00671MA1102955102575MD1890339+9999REMMET11301/01/21 13:00:02 METAR KNEL 011800Z 07007KT 10SM FEW110 04/00 A3040 RMK AO2 SLP295 T00440000 10044 21067 58033 $EQDD01      0ADE726
0232724090147802021010118257+40033-074350FM-16+0031KNEL V0200805N00215008235MN0160935N5+00445+00005999999ADDGA1075+008235999GA2075+033535999GD13991+0082359GD23991+0335359GE19MSL   +99999+99999GF199999999999008231999999MA1102955102575REMMET09501/01/21 13:25:02 SPECI KNEL 011825Z 08004KT 10SM BKN027 BKN110 04/00 A3040 RMK AO2 T00440000 $
0320724090147802021010118527+40033-074350FM-16+0031KNEL V0200705N00265030485MN0160935N5+00445+00005999999ADDAA101000021AU110020015AW1615GA1045+008235999GA2045+019815999GA3085+030485999GD12991+0082359GD22991+0198159GD34991+0304859GE19MSL   +99999+99999GF199999999999008231999999MA1102915102545MW1615REMMET11801/01/21 13:52:02 SPECI KNEL 011852Z 07005KT 10SM -RA SCT027 SCT065 OVC100 04/00 A3039 RMK AO2 RAB40 P0000 T00440000 $
0329724090147802021010119007+40033-074350FM-15+0031KNEL V0200605N00315030485MN0160935N5+00445+00065102915ADDAA101000021AU110020015AW1615GA1025+008235999GA2025+021345999GA3085+030485999GD11991+0082359GD21991+0213459GD34991+0304859GE19MSL   +99999+99999GF199999999999008231999999MA1102915102545MW1615REMMET12701/01/21 14:00:02 METAR KNEL 011900Z 06006KT 10SM -RA FEW027 FEW070 OVC100 04/01 A3039 RMK AO2 RAB1840 SLP291 P0000 T00440006 $
0321724090147802021010120007+40033-074350FM-15+0031KNEL V0200705N00315030485MN0160935N5+00335+00225102795ADDAA101000895AU110020015AW1615GA1025+021345999GA2075+030485999GA3085+033535999GD11991+0213459GD23991+0304859GD34991+0335359GE19MSL   +99999+99999GF199999999999021341999999MA1102815102435MW1615REMMET11901/01/21 15:00:02 METAR KNEL 012000Z 07006KT 10SM -RA FEW070 BKN100 OVC110 03/02 A3036 RMK AO2 SLP279 P0003 T00330022 $
0397724090147802021010121007+40033-074350FM-15+0031KNEL V0200505N00315025915MN0160935N5+00285+00225102685ADDAA101000395AA203001091AU110020015AW1615GA1045+018295999GA2075+025915999GA3085+033535999GD12991+0182959GD23991+0259159GD34991+0335359GE19MSL   +99999+99999GF199999999999018291999999MA1102685102305MD1890239+9999MW1615REMMET15101/01/21 16:00:02 METAR KNEL 012100Z 05006KT 10SM -RA SCT060 BKN085 OVC110 03/02 A3032 RMK AO2 RAE2011B2037 PRESFR SLP268 P0001 60004 T00280022 58023 $EQDQ01  00108PRCP03
0361724090147802021010122007+40033-074350FM-15+0031KNEL V0200605N00265018295MN0112655N5+00285+00285102625ADDAA101000595AU120020015AW1625GA1025+009455999GA2075+018295999GA3085+024385999GD11991+0094559GD23991+0182959GD34991+0243859GE19MSL   +99999+99999GF199999999999009451999999MA1102615102235MW1655REMMET15901/01/21 17:00:02 METAR KNEL 012200Z 06005KT 7SM RA FEW031 BKN060 OVC080 03/03 A3030 RMK AO2 RAE2107B2127UPB2107E2109B2125E2127 PRESFR SLP262 P0002 T00280028 $
0339724090147802021010123007+40033-074350FM-15+0031KNEL V0209999V00155015245MN0080475N5+00285+00285102545ADDAA101002395AU120020015AU200001015AW1105AW2625GA1025+007015999GA2075+015245999GA3085+019815999GD11991+0070159GD23991+0152459GD34991+0198159GE19MSL   +99999+99999GF199999999999007011999999MA1102545102165MW1655REMMET12001/01/21 18:00:02 METAR KNEL 012300Z VRB03KT 5SM RA BR FEW023 BKN050 OVC065 03/03 A3028 RMK AO2 SLP254 P0009 T00280028 $
0295724090147802021010123367+40033-074350FM-16+0031KNEL V0200405N00155005185MN0096565N5+00335+00335999999ADDAA101001031AU110020015AU200001015AW1105AW2615GA1075+005185999GA2085+027435999GD13991+0051859GD24991+0274359GE19MSL   +99999+99999GF199999999999005181999999MA1102475102105MW1615REMMET10701/01/21 18:36:02 SPECI KNEL 012336Z 04003KT 6SM -RA BR BKN017 OVC090 03/03 A3026 RMK AO2 P0004 T00330033 $
0402724090147802021010200007+40033-074350FM-15+0031KNEL V0200405N00315004575MN0064375N5+00335+00335102345ADDAA101002395AA206006191AU120020015AU200001015AW1105AW2625GA1075+004575999GA2085+012805999GD13991+0045759GD24991+0128059GE19MSL   +99999+99999GF199999999999004571999999KA1060M+00441KA2060N+00281MA1102345101965MD1690259+9999MW1655REMMET14401/01/21 19:00:01 METAR KNEL 020000Z 04006KT 4SM RA BR BKN015 OVC042 03/03 A3022 RMK AO2 PRESFR SLP234 P0009 60024 T00330033 10044 20028 56025 $EQDQ01  00608PRCP06
0332724090147802021010200087+40033-074350FM-16+0031KNEL V0200605N00365012805MN0080475N5+00395+00395999999ADDAA101000231AU120020015AU200001015AW1105AW2625GA1045+004275999GA2075+012805999GA3085+014945999GD12991+0042759GD23991+0128059GD34991+0149459GE19MSL   +99999+99999GF199999999999004271999999MA1102345101965MW1655REMMET11301/01/21 19:08:01 SPECI KNEL 020008Z 06007KT 5SM RA BR SCT014 BKN042 OVC049 04/04 A3022 RMK AO2 P0001 T00390039 $
0340724090147802021010200267+40033-074350FM-16+0031KNEL V0200905N00415003665MN0096565N5+00395+00395999999ADDAA101000731AU110020015AU200001015AW1105AW2615GA1025+001835999GA2075+003665999GA3085+014945999GD11991+0018359GD23991+0036659GD34991+0149459GE19MSL   +99999+99999GF199999999999001831999999MA1102275101895MW1615REMMET12101/01/21 19:26:01 SPECI KNEL 020026Z 09008KT 6SM -RA BR FEW006 BKN012 OVC049 04/04 A3020 RMK AO2 PRESFR P0003 T00390039 $
0303724090147802021010200567+40033-074350FM-16+0031KNEL V0200705N00415001835MN0096565N5+00405+00405999999ADDAA101001231AU120020015AU200001015AW1105AW2625GA1075+001835999GA2085+003965999GD13991+0018351GD24991+0039659GE19MSL   +99999+99999GF199999999999001831999999MA1102105101735MW1655REMMET11501/01/21 19:56:01 SPECI KNEL 020056Z 07008KT 6SM RA BR BKN006 OVC013 04/04 A3015 RMK AO2 CIG 004V010 PRESFR P0005 $
0275724090147802021010201007+40033-074350FM-15+0031KNEL V0200805N00365001835MN0096565N5+00505+00505102105ADDAA101001395AU120020015AU200001015AW1105AW2625GA1085+001835999GD14991+0018351GE19MSL   +99999+99999GF199999999999001831999999MA1102105101735MW1655REMMET11801/01/21 20:00:01 METAR KNEL 020100Z 08007KT 6SM RA BR OVC006 05/05 A3015 RMK AO2 CIG 004V012 SLP210 P0005 T00500050 $
0276724090147802021010202007+40033-074350FM-15+0031KNEL V0200805N00415002135MN0080475N5+00615+00615101985ADDAA101002395AU130020015AU200001015AW1105AW2635GA1085+002135999GD14991+0021351GE19MSL   +99999+99999GF199999999999002131999999MA1102005101625MW1635REMMET11901/01/21 21:00:01 METAR KNEL 020200Z 08008KT 5SM +RA BR OVC007 06/06 A3012 RMK AO2 CIG 005V011 SLP198 P0009 T00610061 $
0365724090147802021010203007+40033-074350FM-15+0031KNEL V0201005N00515001835MN0064375N5+00725+00725101795ADDAA101005895AA203014591AU130020015AU200001015AW1105AW2635GA1075+001835999GA2085+003665999GD13991+0018359GD24991+0036659GE19MSL   +99999+99999GF199999999999001831999999MA1101795101425MD1690359+9999MW1635REMMET13301/01/21 22:00:01 METAR KNEL 020300Z 10010KT 4SM +RA BR BKN006 OVC012 07/07 A3006 RMK AO2 PRESFR SLP179 P0023 60057 T00720072 56035 $EQDQ01  01448PRCP03
0251724090147802021010203587+40033-074350FM-16+0031KNEL V0200905N00215001525MN0040235N5+00705+00705999999ADDAA101004331AU130020015AU200001015AW1105AW2635GA1085+001525999GD14991+0015259GE19MSL   +99999+99999GF199999999999001521999999MA1101735101355MW1635REMMET09401/01/21 22:58:01 SPECI KNEL 020358Z 09004KT 2 1/2SM +RA BR OVC005 07/07 A3004 RMK AO2 P0017 $
0268724090147802021010204007+40033-074350FM-15+0031KNEL V0200905N00215001525MN0040235N5+00675+00675101715ADDAA101004395AU130020015AU200001015AW1105AW2635GA1085+001525999GD14991+0015259GE19MSL   +99999+99999GF199999999999001521999999MA1101735101355MW1635REMMET11101/01/21 23:00:01 METAR KNEL 020400Z 09004KT 2 1/2SM +RA BR OVC005 07/07 A3004 RMK AO2 SLP171 P0017 T00670067 $
0263724090147802021010204087+40033-074350FM-16+0031KNEL V0201005N00365001835MN0080475N5+00675+00675999999ADDAA101000231AU120020015AU200001015AW1105AW2625GA1085+001835999GD14991+0018359GE19MSL   +99999+99999GF199999999999001831999999MA1101595101225MW1655REMMET10601/01/21 23:08:02 SPECI KNEL 020408Z 10007KT 5SM RA BR OVC006 07/07 A3000 RMK AO2 PRESFR P0001 T00670067 $
0312724090147802021010204407+40033-074350FM-16+0031KNEL V0209999V00265001225MN0128755N5+00785+00785999999ADDAA101000731AU120020015AW1625GA1075+001225999GA2075+003055999GA3085+008535999GD13991+0012259GD23991+0030559GD34991+0085359GE19MSL   +99999+99999GF199999999999001221999999MA1101425101055MW1655REMMET11001/01/21 23:40:02 SPECI KNEL 020440Z VRB05KT 8SM RA BKN004 BKN010 OVC028 08/08 A2995 RMK AO2 P0003 T00780078 $
0313724090147802021010204477+40033-074350FM-16+0031KNEL V0200805N00465001525MN0144845N5+00785+00785999999ADDAA101000731AU110020015AW1615GA1075+001525999GA2075+003355999GA3085+009145999GD13991+0015259GD23991+0033559GD34991+0091459GE19MSL   +99999+99999GF199999999999001521999999MA1101355100985MW1615REMMET11101/01/21 23:47:02 SPECI KNEL 020447Z 08009KT 9SM -RA BKN005 BKN011 OVC030 08/08 A2993 RMK AO2 P0003 T00780078 $
002772409014780202101020459O+40033-074350SOD  +0031KNEL V020999999999999999999999999999+99999+99999999999ADDAT1AU16RA  5AT2AU13BR  5
0281724090147802021010205007+40033-074350FM-15+0031KNEL V0200705N00365001525MN0160935N5+00785+00785101345ADDAA101000731AU110020015AW1615GA1085+001525999GD14991+0015259GE19MSL   +99999+99999GF199999999999001521999999KA1240M+00781KA2240N+00781MA1101355100985MW1615REMMET11501/02/21 00:00:02 METAR KNEL 020500Z 07007KT 10SM -RA OVC005 08/08 A2993 RMK AO2 SLP134 P0003 T00780078 400780078 $
0238724090147802021010205087+40033-074350FM-16+0031KNEL V0200405N00215001225MN0160935N5+00785+00785999999ADDAA101000021AU110020015AW1615GA1085+001225999GD14991+0012259GE19MSL   +99999+99999GF199999999999001221999999MA1101395101025MW1615REMMET09801/02/21 00:08:02 SPECI KNEL 020508Z 04004KT 10SM -RA OVC004 08/08 A2994 RMK AO2 P0000 T00780078 $
0266724090147802021010205517+40033-074350FM-16+0031KNEL V0209999V00155000915MN0032195N5+00785+00785999999ADDAA101000021AU110020015AU200001015AW1105AW2615GA1085+000915999GD14991+0009159GE19MSL   +99999+99999GF199999999999000911999999MA1101295100915MW1615REMMET10901/02/21 00:51:02 SPECI KNEL 020551Z VRB03KT 2SM -RA BR OVC003 08/08 A2991 RMK AO2 RAE09B46 P0000 T00780078 $
0260724090147802021010205587+40033-074350FM-16+0031KNEL V0209999V00215000915MN0028165N5+00705+00705999999ADDAA101000021AU110020015AU200001015AW1105AW2615GA1085+000915999GD14991+0009159GE19MSL   +99999+99999GF199999999999000911999999MA1101255100885MW1615REMMET10301/02/21 00:58:02 SPECI KNEL 020558Z VRB04KT 1 3/4SM -RA BR OVC003 07/07 A2990 RMK AO2 RAE09B46 P0000 $
0375724090147802021010206007+40033-074350FM-15+0031KNEL V0203005N00215000915MN0028165N5+00725+00725101245ADDAA101000395AA206014791AU110020015AU200001015AW1105AW2615GA1085+000915999GD14991+0009159GE19MSL   +99999+99999GF199999999999000911999999KA1060M+00781KA2060N+00331MA1101255100885MD1890489+9999MW1615REMMET14801/02/21 01:00:02 METAR KNEL 020600Z 30004KT 1 3/4SM -RA BR OVC003 07/07 A2990 RMK AO2 RAE0509B0546 SLP124 P0001 60058 T00720072 10078 20033 58048 $EQDQ01  01478PRCP06
0302724090147802021010206197+40033-074350FM-16+0031KNEL V0200505N00365000915MN0048285N5+00725+00725999999ADDAA101000731AU110020015AU200001015AW1105AW2615GA1075+000915999GA2085+002745999GD13991+0009159GD24991+0027459GE19MSL   +99999+99999GF199999999999000911999999MA1101155100785MW1615REMMET11401/02/21 01:19:02 SPECI KNEL 020619Z 05007KT 3SM -RA BR BKN003 OVC009 07/07 A2987 RMK AO2 PRESFR P0003 T00720072 $
0321724090147802021010207007+40033-074350FM-15+0031KNEL V0209999V00155001225MN0096565N5+00725+00725101045ADDAA101001095AU100001015AW1105GA1075+001225999GA2075+002135999GA3085+003965999GD13991+0012259GD23991+0021359GD34991+0039659GE19MSL   +99999+99999GF199999999999001221999999MA1101055100685REMMET12501/02/21 02:00:02 METAR KNEL 020700Z VRB03KT 6SM BR BKN004 BKN007 OVC013 07/07 A2984 RMK AO2 RAE0646 SLP104 P0004 T00720072 $
0240724090147802021010208006+40033-074350FM-15+0031KNEL V0209999999999001225MN0064375N5+00675+00675101035ADDAA101000021AU100001015AW1105GA1075+001225999GA2085+002135999GD13991+0012259GD24991+0021359MA1101055100685REMMET12301/02/21 03:00:02 METAR KNEL 020800Z      KT 4SM BR BKN004 OVC007 07/07 A2984 RMK AO2 RAB0709E0725 SLP103 P0000 T00670067 $
0269724090147802021010208237+40033-074350FM-16+0031KNEL V0209999V00155002445MN0112655N5+00615+00615999999ADDAA101000021GA1045+000915999GA2085+002445999GD12991+0009151GD24991+0024459GE19MSL   +99999+99999GF199999999999000911999999MA1101025100645REMMET12101/02/21 03:23:02 SPECI KNEL 020823Z VRB03KT 7SM SCT003 OVC008 06/06 A2983 RMK AO2 RAB09E14 CIG 006V010 P0000 T00610061 $
0281724090147802021010208387+40033-074350FM-16+0031KNEL V0209999C00005000915MN0040235N5+00615+00615999999ADDAA101000021AU100001015AW1105GA1075+000915999GA2085+002135999GD13991+0009159GD24991+0021359GE19MSL   +99999+99999GF199999999999000911999999MA1100955100585REMMET11601/02/21 03:38:02 SPECI KNEL 020838Z 00000KT 2 1/2SM BR BKN003 OVC007 06/06 A2981 RMK AO2 RAB09E14 P0000 T00610061 $
0233724090147802021010209007+40033-074350FM-16+0031KNEL V0200905N00155000615MN0048285N5+00605+00605999999ADDAA101000231AU100001015AW1105GA1085+000615999GD14991+0006159GE19MSL   +99999+99999GF199999999999000611999999MA1100885100515REMMET09901/02/21 04:00:02 SPECI KNEL 020900Z 09003KT 3SM BR OVC002 06/06 A2979 RMK AO2 RAB0809E0814 P0001 $
0344724090147802021010209067+40033-074350FM-15+0031KNEL V0200805N00155000615MN0064375N5+00615+00615100825ADDAA101000395AA203006691AU100001015AW1105GA1075+000615999GA2085+003665999GD13991+0006159GD24991+0036659GE19MSL   +99999+99999GF199999999999000611999999MA1100855100485MD1890209+9999REMMET13501/02/21 04:06:02 METAR KNEL 020906Z 08003KT 4SM BR BKN002 OVC012 06/06 A2978 RMK AO2 RAB0809E0814 SLP082 P0001 60026 T00610061 58020 $EQDQ01  00668PRCP03
0258724090147802021010210007+40033-074350FM-15+0031KNEL V0209999C00005000915MN0080475N5+00615+00615100775ADDAU100001015AW1105GA1075+000915999GA2085+002745999GD13991+0009159GD24991+0027459GE19MSL   +99999+99999GF199999999999000911999999MA1100785100415REMMET10401/02/21 05:00:02 METAR KNEL 021000Z 00000KT 5SM BR BKN003 OVC009 06/06 A2976 RMK AO2 SLP077 T00610061 $
0217724090147802021010210107+40033-074350FM-16+0031KNEL V0209999C00005001525MN0040235N5+00615+00615999999ADDAU100001015AW1105GA1085+001525999GD14991+0015259GE19MSL   +99999+99999GF199999999999001521999999MA1100785100415REMMET09401/02/21 05:10:02 SPECI KNEL 021010Z 00000KT 2 1/2SM BR OVC005 06/06 A2976 RMK AO2 T00610061 $
0217724090147802021010210457+40033-074350FM-16+0031KNEL V0202405N00265001225MN0040235N5+00615+00615999999ADDAU100001015AW1105GA1085+001225999GD14991+0012259GE19MSL   +99999+99999GF199999999999001221999999MA1100755100375REMMET09401/02/21 05:45:02 SPECI KNEL 021045Z 24005KT 2 1/2SM BR OVC004 06/06 A2975 RMK AO2 T00610061 $
0213724090147802021010210537+40033-074350FM-16+0031KNEL V0202505N00515001225MN0096565N5+00725+00725999999ADDAU100001015AW1105GA1085+001225999GD14991+0012259GE19MSL   +99999+99999GF199999999999001221999999MA1100755100375REMMET09001/02/21 05:53:02 SPECI KNEL 021053Z 25010KT 6SM BR OVC004 07/07 A2975 RMK AO2 T00720072 $
0200724090147802021010211007+40033-074350FM-15+0031KNEL V0202505N00465001225MN0144845N5+00725+00725100735ADDGA1085+001225999GD14991+0012259GE19MSL   +99999+99999GF199999999999001221999999MA1100755100375REMMET09401/02/21 06:00:02 METAR KNEL 021100Z 25009KT 9SM OVC004 07/07 A2975 RMK AO2 SLP073 T00720072 $
0194724090147802021010211207+40033-074350FM-16+0031KNEL V0202705N00725001525MN0160935N5+00675+00675999999ADDGA1085+001525999GD14991+0015259GE19MSL   +99999+99999GF199999999999001521999999MA1100815100445REMMET08801/02/21 06:20:02 SPECI KNEL 021120Z 27014KT 10SM OVC005 07/07 A2977 RMK AO2 T00670067 $
0347724090147802021010212007+40033-074350FM-15+0031KNEL V0202605N00725001525MN0096565N5+00615+00615100875ADDAA106001391AA224022191AU100001015AW1105GA1085+001525999GD14991+0015259GE19MSL   +99999+99999GF199999999999001521999999KA1060M+00721KA2060N+00611MA1100885100515MD1890139+9999REMMET12701/02/21 07:00:02 METAR KNEL 021200Z 26014KT 6SM BR OVC005 06/06 A2979 RMK AO2 SLP087 60005 70087 T00610061 10072 20061 58013 $EQDQ01  00128PRCP06Q02  02208PRCP24
0224724090147802021010213007+40033-074350FM-15+0031KNEL V0202705N00675002445MN0160935N5+00615+00565100925ADDGA1085+002445999GD14991+0024451GE19MSL   +99999+99999GF199999999999002441999999MA1100955100585OC100985REMMET11001/02/21 08:00:02 METAR KNEL 021300Z 27013G19KT 10SM OVC008 06/06 A2981 RMK AO2 CIG 007V012 SLP092 T00610056 $
0217724090147802021010213297+40033-074350FM-16+0031KNEL V0202705N00625003055MN0160935N5+00615+00565999999ADDGA1085+003055999GD14991+0030551GE19MSL   +99999+99999GF199999999999003051999999MA1100955100585OC100985REMMET10301/02/21 08:29:02 SPECI KNEL 021329Z 27012G19KT 10SM OVC010 06/06 A2981 RMK AO2 CIG 007V014 T00610056 $
0206724090147802021010213447+40033-074350FM-16+0031KNEL V0202705N00775002745MN0160935N5+00615+00615999999ADDGA1085+002745999GD14991+0027451GE19MSL   +99999+99999GF199999999999002741999999MA1100985100615REMMET10001/02/21 08:44:02 SPECI KNEL 021344Z 27015KT 10SM OVC009 06/06 A2982 RMK AO2 CIG 007V013 T00610061 $
0250724090147802021010214007+40033-074350FM-15+0031KNEL V0202705N00775002745MN0160935N5+00675+00615100985ADDGA1075+002745999GA2075+003665999GD13991+0027459GD23991+0036659GE19MSL   +99999+99999GF199999999999002741999999MA1100985100615OC100985REMMET10501/02/21 09:00:02 METAR KNEL 021400Z 27015G19KT 10SM BKN009 BKN012 07/06 A2982 RMK AO2 SLP098 T00670061 $
0213724090147802021010214257+40033-074350FM-16+0031KNEL V0202805N006252200059N0160935N5+00725+00615999999ADDGA1045+002745999GD12991+0027459GE19AGL   +99999+99999GF104995999999002741999999MA1101025100645REMMET08801/02/21 09:25:02 SPECI KNEL 021425Z 28012KT 10SM SCT009 07/06 A2983 RMK AO2 T00720061 $EQDD01      0ADE726
0196724090147802021010215007+40033-074350FM-15+0031KNEL V0202905N007252200059N0160935N5+00835+00615101035ADDGA1005+999999999GD10991+9999999GF100991999999999999999999MA1101055100685MD1190259+9999REMMET09801/02/21 10:00:02 METAR KNEL 021500Z 29014KT 10SM CLR 08/06 A2984 RMK AO2 SLP103 T00830061 51025 $
0220724090147802021010216007+40033-074350FM-15+0031KNEL V0202705N008252200059N0160935N5+01065+00615101085ADDGA1045+012805999GD12991+0128059GE19AGL   +99999+99999GF104995999999012801999999MA1101085100715REMMET09501/02/21 11:00:02 METAR KNEL 021600Z 27016KT 10SM SCT042 11/06 A2985 RMK AO2 SLP108 T01060061 $EQDD01      0ADE726
0244724090147802021010217007+40033-074350FM-15+0031KNEL V0202805N01035011285MN0160935N5+01115+00505101025ADDGA1085+011285999GD14991+0112859GE19MSL   +99999+99999GF199999999999011281999999MA1101055100685OC101395OD149901691290REMMET11601/02/21 12:00:02 METAR KNEL 021700Z 28020G27KT 10SM OVC037 11/05 A2984 RMK AO2 PK WND 29033/1649 SLP102 T01110050 $
0302724090147802021010218007+40033-074350FM-15+0031KNEL V0202805N00825010675MN0160935N5+01225+00505101055ADDGA1075+010675999GD13991+0106759GE19MSL   +99999+99999GF199999999999010671999999KA1060M+01221KA2060N+00611MA1101085100715MD1090049+9999OC101445OD149901801290REMMET13401/02/21 13:00:02 METAR KNEL 021800Z 28016G28KT 10SM BKN035 12/05 A2985 RMK AO2 PK WND 29035/1710 SLP105 T01220050 10122 20061 50004 $
0244724090147802021010219007+40033-074350FM-15+0031KNEL V0202905N00825010975MN0160935N5+01175+00395101135ADDGA1085+010975999GD14991+0109759GE19MSL   +99999+99999GF199999999999010971999999MA1101155100785OC101295OD149901691290REMMET11601/02/21 14:00:02 METAR KNEL 021900Z 29016G25KT 10SM OVC036 12/04 A2987 RMK AO2 PK WND 29033/1820 SLP113 T01170039 $
0263724090147802021010220007+40033-074350FM-15+0031KNEL V0203005N008252200059N0160935N5+01065+00395101295ADDGA1025+010675999GD11991+0106759GE19AGL   +99999+99999GF102995999999010671999999MA1101325100955OC101295OD149901491280REMMET11601/02/21 15:00:02 METAR KNEL 022000Z 30016G25KT 10SM FEW035 11/04 A2992 RMK AO2 PK WND 28029/1902 SLP129 T01060039 $EQDD01      0ADE726
0240724090147802021010221007+40033-074350FM-15+0031KNEL V0203005N005152200059N0160935N5+01005+00395101445ADDGA1025+010065999GD11991+0100659GE19AGL   +99999+99999GF102995999999010061999999MA1101465101085MD1390279+9999REMMET10101/02/21 16:00:02 METAR KNEL 022100Z 30010KT 10SM FEW033 10/04 A2996 RMK AO2 SLP144 T01000039 53027 $EQDD01      0ADE726
0176724090147802021010222007+40033-074350FM-15+0031KNEL V0203105N004152200059N0160935N5+00835+00285101575ADDGA1005+999999999GD10991+9999999GF100991999999999999999999MA1101595101225REMMET09201/02/21 17:00:02 METAR KNEL 022200Z 31008KT 10SM CLR 08/03 A3000 RMK AO2 SLP157 T00830028 $
0176724090147802021010223007+40033-074350FM-15+0031KNEL V0203205N003152200059N0160935N5+00725+00115101695ADDGA1005+999999999GD10991+9999999GF100991999999999999999999MA1101695101325REMMET09201/02/21 18:00:02 METAR KNEL 022300Z 32006KT 10SM CLR 07/01 A3003 RMK AO2 SLP169 T00720011 $
0234724090147802021010300007+40033-074350FM-15+0031KNEL V0203205N003152200059N0160935N5+00565+00065101805ADDGA1005+999999999GD10991+9999999GF100991999999999999999999KA1060M+01221KA2060N+00561MA1101835101465MD1190399+9999REMMET11001/02/21 19:00:01 METAR KNEL 030000Z 32006KT 10SM CLR 06/01 A3007 RMK AO2 SLP180 T00560006 10122 20056 51039 $
0176724090147802021010301007+40033-074350FM-15+0031KNEL V0200105N001552200059N0160935N5+00395+00065101855ADDGA1005+999999999GD10991+9999999GF100991999999999999999999MA1101865101495REMMET09201/02/21 20:00:01 METAR KNEL 030100Z 01003KT 10SM CLR 04/01 A3008 RMK AO2 SLP185 T00390006 $
0176724090147802021010302007+40033-074350FM-15+0031KNEL V0209999C000052200059N0160935N5+00285+00005101925ADDGA1005+999999999GD10991+9999999GF100991999999999999999999MA1101935101565REMMET09201/02/21 21:00:01 METAR KNEL 030200Z 00000KT 10SM CLR 03/00 A3010 RMK AO2 SLP192 T00280000 $
0197724090147802021010303007+40033-074350FM-15+0031KNEL V0209999V001552200059N0160935N5+00285-00065101875ADDGA1005+999999999GD10991+9999999GF100991999999999999999999MA1101905101525MD1190239+9999REMMET09901/02/21 22:00:01 METAR KNEL 030300Z VRB03KT 10SM CLR 03/M01 A3009 RMK AO2 SLP187 T00281006 51023 $
0184724090147802021010304007+40033-074350FM-15+0031KNEL V0202805N002152200059N0160935N5+00005-00175101905ADDGA1005+999999999GD10991+9999999GF100991999999999999999999MA1101935101565REMMET10001/02/21 23:00:02 METAR KNEL 030400Z 28004KT 10SM CLR 00/M02 A3010 RMK AO2 SLP190 T00001017 FZRANO $
002772409014780202101030459O+40033-074350SOD  +0031KNEL V020999999999999999999999999999+99999+99999999999ADDAT1AU16RA  5AT2AU13BR  5
0220724090147802021010305007+40033-074350FM-15+0031KNEL V0209999C000052200059N0160935N5+00005-00175101935ADDGA1005+999999999GD10991+9999999GF100991999999999999999999KA1240M+00001KA2240N+00001MA1101965101595REMMET11001/03/21 00:00:02 METAR KNEL 030500Z 00000KT 10SM CLR 00/M02 A3011 RMK AO2 SLP193 T00001017 400000000 FZRANO $
0242724090147802021010306007+40033-074350FM-15+0031KNEL V0209999C000052200059N0160935N5+00005-00115101875ADDGA1005+999999999GD10991+9999999GF100991999999999999999999KA1060M+00611KA2060N-00111MA1101905101525MD1390019+9999REMMET11801/03/21 01:00:02 METAR KNEL 030600Z 00000KT 10SM CLR 00/M01 A3009 RMK AO2 SLP187 T00001011 10061 21011 53001 FZRANO $
0184724090147802021010307007+40033-074350FM-15+0031KNEL V0200505N002152200059N0160935N5+00065-00115101855ADDGA1005+999999999GD10991+9999999GF100991999999999999999999MA1101865101495REMMET10001/03/21 02:00:02 METAR KNEL 030700Z 05004KT 10SM CLR 01/M01 A3008 RMK AO2 SLP185 T00061011 FZRANO $
0184724090147802021010308007+40033-074350FM-15+0031KNEL V0209999C000052200059N0160935N5+00115-00115101885ADDGA1005+999999999GD10991+9999999GF100991999999999999999999MA1101905101525REMMET10001/03/21 03:00:02 METAR KNEL 030800Z 00000KT 10SM CLR 01/M01 A3009 RMK AO2 SLP188 T00111011 FZRANO $
0204724090147802021010309007+40033-074350FM-15+0031KNEL V0209999C000052200059N0160935N5+00065-00065101955ADDGA1005+999999999GD10991+9999999GF100991999999999999999999MA1101965101595MD1590059+9999REMMET10601/03/21 04:00:02 METAR KNEL 030900Z 00000KT 10SM CLR 01/M01 A3011 RMK AO2 SLP195 T00061006 55005 FZRANO $
0183724090147802021010310007+40033-074350FM-15+0031KNEL V0200705N004652200059N0160935N5+00225+00005101675ADDGA1005+999999999GD10991+9999999GF100991999999999999999999MA1101695101325REMMET09901/03/21 05:00:02 METAR KNEL 031000Z 07009KT 10SM CLR 02/00 A3003 RMK AO2 SLP167 T00220000 FZRANO $
0201724090147802021010310357+40033-074350FM-16+0031KNEL V0200705N00315005795MN0160935N5+00335+00065999999ADDGA1075+005795999GD13991+0057959GE19MSL   +99999+99999GF199999999999005791999999MA1101835101465REMMET09501/03/21 05:35:02 SPECI KNEL 031035Z 07006KT 10SM BKN019 03/01 A3007 RMK AO2 PRESRR T00330006 $
0194724090147802021010310527+40033-074350FM-16+0031KNEL V0200605N00215005795MN0160935N5+00335+00065999999ADDGA1085+005795999GD14991+0057959GE19MSL   +99999+99999GF199999999999005791999999MA1101965101595REMMET08801/03/21 05:52:02 SPECI KNEL 031052Z 06004KT 10SM OVC019 03/01 A3011 RMK AO2 T00330006 $
0201724090147802021010311007+40033-074350FM-15+0031KNEL V0200705N00465005795MN0160935N5+00335+00115101915ADDGA1085+005795999GD14991+0057959GE19MSL   +99999+99999GF199999999999005791999999MA1101935101565REMMET09501/03/21 06:00:02 METAR KNEL 031100Z 07009KT 10SM OVC019 03/01 A3010 RMK AO2 SLP191 T00330011 $
0259724090147802021010312007+40033-074350FM-15+0031KNEL V0209999V00215005185MN0160935N5+00395+00115101915ADDGA1085+005185999GD14991+0051859GE19MSL   +99999+99999GF199999999999005181999999KA1060M+00391KA2060N+00001MA1101935101565MD1390039+9999REMMET11301/03/21 07:00:02 METAR KNEL 031200Z VRB04KT 10SM OVC017 04/01 A3010 RMK AO2 SLP191 T00390011 10039 20000 53003 $
0291724090147802021010313007+40033-074350FM-15+0031KNEL V0200805N00315005495MN0160935N5+00335+00225101875ADDAA101000395AU110020015AW1615GA1075+005495999GA2085+021345999GD13991+0054959GD24991+0213459GE19MSL   +99999+99999GF199999999999005491999999MA1101905101525MW1615REMMET12001/03/21 08:00:02 METAR KNEL 031300Z 08006KT 10SM -RA BKN018 OVC070 03/02 A3009 RMK AO2 RAB1219 SLP187 P0001 T00330022 $
0263724090147802021010314007+40033-074350FM-15+0031KNEL V0209999V00215004885MN0096565N5+00285+00285101885ADDAA101002895AU120020015AU200001015AW1105AW2625GA1085+004885999GD14991+0048859GE19MSL   +99999+99999GF199999999999004881999999MA1101905101525MW1655REMMET10601/03/21 09:00:02 METAR KNEL 031400Z VRB04KT 6SM RA BR OVC016 03/03 A3009 RMK AO2 SLP188 P0011 T00280028 $
0282724090147802021010314427+40033-074350FM-16+0031KNEL V0200505N00365005185MN0112655N5+00335+00335999999ADDAA101000731AU110020015AW1615GA1045+002745999GA2085+005185999GD12991+0027459GD24991+0051859GE19MSL   +99999+99999GF199999999999002741999999MA1101835101465MW1615REMMET11101/03/21 09:42:02 SPECI KNEL 031442Z 05007KT 7SM -RA SCT009 OVC017 03/03 A3007 RMK AO2 PRESFR P0003 T00330033 $
0332724090147802021010314517+40033-074350FM-16+0031KNEL V0200405N00415002445MN0128755N5+00335+00335999999ADDAA101001031AU110020015AW1615GA1075+002445999GA2075+003965999GA3085+005495999GD13991+0024451GD23991+0039659GD34991+0054959GE19MSL   +99999+99999GF199999999999002441999999MA1101735101355MW1615REMMET13001/03/21 09:51:02 SPECI KNEL 031451Z 04008KT 8SM -RA BKN008 BKN013 OVC018 03/03 A3004 RMK AO2 CIG 006V011 PRESFR P0004 T00330033 $
0362724090147802021010315007+40033-074350FM-15+0031KNEL V0200405V00365002445MN0160935N5+00335+00335101735ADDAA101001095AA203004191AU110020015AW1615GA1075+002445999GA2085+003965999GD13991+0024451GD24991+0039659GE19MSL   +99999+99999GF199999999999002441999999MA1101765101395MD1590039+9999MW1615OC100775REMMET13901/03/21 10:00:02 METAR KNEL 031500Z 04007G15KT 10SM -RA BKN008 OVC013 03/03 A3005 RMK AO2 CIG 004V010 SLP173 P0004 60016 T00330033 55003 $EQDQ01  00408PRCP03
0226724090147802021010316007+40033-074350FM-15+0031KNEL V0200405N00315002135MN0160935N5+00335+00285101685ADDAA101000021GA1085+002135999GD14991+0021359GE19MSL   +99999+99999GF199999999999002131999999MA1101695101325REMMET10901/03/21 11:00:02 METAR KNEL 031600Z 04006KT 10SM OVC007 03/03 A3003 RMK AO2 RAE1515 SLP168 P0000 T00330028 $
0220724090147802021010317007+40033-074350FM-15+0031KNEL V0200405N00315001525MN0080475N5+00335+00335101415ADDAU100001015AW1105GA1085+001525999GD14991+0015259GE19MSL   +99999+99999GF199999999999001521999999MA1101425101055REMMET09701/03/21 12:00:02 METAR KNEL 031700Z 04006KT 5SM BR OVC005 03/03 A2995 RMK AO2 SLP141 T00330033 $
0263724090147802021010317267+40033-074350FM-16+0031KNEL V0209999V00155001225MN0048285N5+00335+00335999999ADDAA101000021AU110020015AU200001015AW1105AW2615GA1085+001225999GD14991+0012259GE19MSL   +99999+99999GF199999999999001221999999MA1101355100985MW1615REMMET10601/03/21 12:26:02 SPECI KNEL 031726Z VRB03KT 3SM -RA BR OVC004 03/03 A2993 RMK AO2 RAB20 P0000 T00330033 $
0366724090147802021010318007+40033-074350FM-15+0031KNEL V0209999V00155001225MN0048285N5+00395+00395101305ADDAA101000021AA206004191AU110020015AU200001015AW1105AW2615GA1085+001225999GD14991+0012259GE19MSL   +99999+99999GF199999999999001221999999KA1060M+00391KA2060N+00281MA1101325100955MD1890489+9999MW1615REMMET13901/03/21 13:00:02 METAR KNEL 031800Z VRB03KT 3SM -RA BR OVC004 04/04 A2992 RMK AO2 RAB1720 SLP130 P0000 60016 T00390039 10039 20028 58048 $EQDQ01  00408PRCP06
0261724090147802021010318257+40033-074350FM-16+0031KNEL V0209999V00265001225MN0040235N5+00395+00395999999ADDAA101000231AU110020015AU200001015AW1105AW2615GA1085+001225999GD14991+0012259GE19MSL   +99999+99999GF199999999999001221999999MA1101295100915MW1615REMMET10401/03/21 13:25:02 SPECI KNEL 031825Z VRB05KT 2 1/2SM -RA BR OVC004 04/04 A2991 RMK AO2 P0001 T00390039 $
0257724090147802021010318347+40033-074350FM-16+0031KNEL V0209999V00315001225MN0064375N5+00395+00395999999ADDAA101000231AU110020015AU200001015AW1105AW2615GA1085+001225999GD14991+0012259GE19MSL   +99999+99999GF199999999999001221999999MA1101295100915MW1615REMMET10001/03/21 13:34:02 SPECI KNEL 031834Z VRB06KT 4SM -RA BR OVC004 04/04 A2991 RMK AO2 P0001 T00390039 $
0302724090147802021010319007+40033-074350FM-15+0031KNEL V0209999V00265001225MN0064375N5+00395+00395101265ADDAA101000595AU110020015AU200001015AW1105AW2615GA1075+001225999GA2085+002445999GD13991+0012259GD24991+0024459GE19MSL   +99999+99999GF199999999999001221999999MA1101255100885MW1615REMMET11401/03/21 14:00:02 METAR KNEL 031900Z VRB05KT 4SM -RA BR BKN004 OVC008 04/04 A2990 RMK AO2 SLP126 P0002 T00390039 $
0273724090147802021010319147+40033-074350FM-16+0031KNEL V0200205N00265001525MN0040235N5+00395+00395999999ADDAA101000231AU110020015AU200001015AW1105AW2615GA1085+001525999GD14991+0015251GE19MSL   +99999+99999GF199999999999001521999999MA1101255100885MW1615REMMET11601/03/21 14:14:02 SPECI KNEL 031914Z 02005KT 2 1/2SM -RA BR OVC005 04/04 A2990 RMK AO2 CIG 004V010 P0001 T00390039 $
0261724090147802021010319497+40033-074350FM-16+0031KNEL V0200105N00315001225MN0028165N5+00335+00335999999ADDAA101000731AU110020015AU200001015AW1105AW2615GA1085+001225999GD14991+0012259GE19MSL   +99999+99999GF199999999999001221999999MA1101255100885MW1615REMMET10401/03/21 14:49:02 SPECI KNEL 031949Z 01006KT 1 3/4SM -RA BR OVC004 03/03 A2990 RMK AO2 P0003 T00330033 $
0268724090147802021010320007+40033-074350FM-15+0031KNEL V0209999V00265001225MN0028165N5+00335+00335101205ADDAA101000895AU110020015AU200001015AW1105AW2615GA1085+001225999GD14991+0012259GE19MSL   +99999+99999GF199999999999001221999999MA1101225100855MW1615REMMET11101/03/21 15:00:02 METAR KNEL 032000Z VRB05KT 1 3/4SM -RA BR OVC004 03/03 A2989 RMK AO2 SLP120 P0003 T00330033 $
0261724090147802021010320097+40033-074350FM-16+0031KNEL V0200205N00365001225MN0040235N5+00335+00335999999ADDAA101000231AU110020015AU200001015AW1105AW2615GA1085+001225999GD14991+0012259GE19MSL   +99999+99999GF199999999999001221999999MA1101225100855MW1615REMMET10401/03/21 15:09:02 SPECI KNEL 032009Z 02007KT 2 1/2SM -RA BR OVC004 03/03 A2989 RMK AO2 P0001 T00330033 $
0257724090147802021010320167+40033-074350FM-16+0031KNEL V0209999V00315001525MN0064375N5+00335+00335999999ADDAA101000231AU110020015AU200001015AW1105AW2615GA1085+001525999GD14991+0015259GE19MSL   +99999+99999GF199999999999001521999999MA1101225100855MW1615REMMET10001/03/21 15:16:02 SPECI KNEL 032016Z VRB06KT 4SM -RA BR OVC005 03/03 A2989 RMK AO2 P0001 T00330033 $
0261724090147802021010320337+40033-074350FM-16+0031KNEL V0200105N00315001525MN0040235N5+00335+00335999999ADDAA101000231AU110020015AU200001015AW1105AW2615GA1085+001525999GD14991+0015259GE19MSL   +99999+99999GF199999999999001521999999MA1101225100855MW1615REMMET10401/03/21 15:33:02 SPECI KNEL 032033Z 01006KT 2 1/2SM -RA BR OVC005 03/03 A2989 RMK AO2 P0001 T00330033 $
0257724090147802021010320437+40033-074350FM-16+0031KNEL V0209999V00265001525MN0064375N5+00335+00335999999ADDAA101000231AU110020015AU200001015AW1105AW2615GA1085+001525999GD14991+0015259GE19MSL   +99999+99999GF199999999999001521999999MA1101225100855MW1615REMMET10001/03/21 15:43:02 SPECI KNEL 032043Z VRB05KT 4SM -RA BR OVC005 03/03 A2989 RMK AO2 P0001 T00330033 $
0251724090147802021010321007+40033-074350FM-16+0031KNEL V0209999V00265001525MN0040235N5+00305+00305999999ADDAA101000231AU110020015AU200001015AW1105AW2615GA1085+001525999GD14991+0015259GE19MSL   +99999+99999GF199999999999001521999999MA1101225100855MW1615REMMET09401/03/21 16:00:02 SPECI KNEL 032100Z VRB05KT 2 1/2SM -RA BR OVC005 03/03 A2989 RMK AO2 P0001 $
0324724090147802021010321067+40033-074350FM-15+0031KNEL V0209999V00265001525MN0040235N5+00335+00335101215ADDAA101000595AA203001891AU110020015AU200001015AW1105AW2615GA1085+001525999GD14991+0015259GE19MSL   +99999+99999GF199999999999001521999999MA1101225100855MD1690219+9999MW1615REMMET12301/03/21 16:06:02 METAR KNEL 032106Z VRB05KT 2 1/2SM -RA BR OVC005 03/03 A2989 RMK AO2 SLP121 P0002 60007 T00330033 56021 $EQDQ01  00178PRCP03
0299724090147802021010321377+40033-074350FM-16+0031KNEL V0209999V00265001835MN0028165N5+00395+00395999999ADDAA101001031AU130020015AU200001015AW1105AW2635GA1075+001835999GA2085+003665999GD13991+0018359GD24991+0036659GE19MSL   +99999+99999GF199999999999001831999999MA1101225100855MW1635REMMET11101/03/21 16:37:02 SPECI KNEL 032137Z VRB05KT 1 3/4SM +RA BR BKN006 OVC012 04/04 A2989 RMK AO2 P0004 T00390039 $
0294724090147802021010321467+40033-074350FM-16+0031KNEL V0209999V00215001835MN0048285N5+00395+00395999999ADDAA101001231AU120020015AU200001015AW1105AW2625GA1075+001835999GA2085+003665999GD13991+0018359GD24991+0036659GE19MSL   +99999+99999GF199999999999001831999999MA1101225100855MW1655REMMET10601/03/21 16:46:02 SPECI KNEL 032146Z VRB04KT 3SM RA BR BKN006 OVC012 04/04 A2989 RMK AO2 P0005 T00390039 $
0302724090147802021010322007+40033-074350FM-15+0031KNEL V0209999V00215001525MN0096565N5+00395+00395101205ADDAA101001595AU110020015AU200001015AW1105AW2615GA1075+001525999GA2085+003665999GD13991+0015259GD24991+0036659GE19MSL   +99999+99999GF199999999999001521999999MA1101225100855MW1615REMMET11401/03/21 17:00:02 METAR KNEL 032200Z VRB04KT 6SM -RA BR BKN005 OVC012 04/04 A2989 RMK AO2 SLP120 P0006 T00390039 $
0261724090147802021010322387+40033-074350FM-16+0031KNEL V0209999V00215001225MN0040235N5+00395+00395999999ADDAA101000231AU110020015AU200001015AW1105AW2615GA1085+001225999GD14991+0012259GE19MSL   +99999+99999GF199999999999001221999999MA1101255100885MW1615REMMET10401/03/21 17:38:02 SPECI KNEL 032238Z VRB04KT 2 1/2SM -RA BR OVC004 04/04 A2990 RMK AO2 P0001 T00390039 $
0247724090147802021010323007+40033-074350FM-16+0031KNEL V0209999C00005001225MN0048285N5+00405+00405999999ADDAA101000731AU110020015AU200001015AW1105AW2615GA1085+001225999GD14991+0012259GE19MSL   +99999+99999GF199999999999001221999999MA1101255100885MW1615REMMET09001/03/21 18:00:02 SPECI KNEL 032300Z 00000KT 3SM -RA BR OVC004 04/04 A2990 RMK AO2 P0003 $
0251724090147802021010323097+40033-074350FM-16+0031KNEL V0203505N00215001225MN0040235N5+00405+00405999999ADDAA101000731AU110020015AU200001015AW1105AW2615GA1085+001225999GD14991+0012259GE19MSL   +99999+99999GF199999999999001221999999MA1101255100885MW1615REMMET09401/03/21 18:09:02 SPECI KNEL 032309Z 35004KT 2 1/2SM -RA BR OVC004 04/04 A2990 RMK AO2 P0003 $
0247724090147802021010323167+40033-074350FM-16+0031KNEL V0209999C00005001225MN0048285N5+00405+00405999999ADDAA101000731AU110020015AU200001015AW1105AW2615GA1085+001225999GD14991+0012259GE19MSL   +99999+99999GF199999999999001221999999MA1101255100885MW1615REMMET09001/03/21 18:16:02 SPECI KNEL 032316Z 00000KT 3SM -RA BR OVC004 04/04 A2990 RMK AO2 P0003 $
0226724090147802021010323437+40033-074350FM-16+0031KNEL V0203605N00215001525MN0096565N5+00405+00405999999ADDAA101001031AU100001015AW1105GA1085+001525999GD14991+0015259GE19MSL   +99999+99999GF199999999999001521999999MA1101295100915REMMET09201/03/21 18:43:02 SPECI KNEL 032343Z 36004KT 6SM BR OVC005 04/04 A2991 RMK AO2 RAE36 P0004 $
0339724090147802021010400007+40033-074350FM-15+0031KNEL V0209999V00265001525MN0096565N5+00445+00445101285ADDAA101001095AA206004391AU100001015AW1105GA1085+001525999GD14991+0015259GE19MSL   +99999+99999GF199999999999001521999999KA1060M+00441KA2060N+00331MA1101295100915MD1190039+9999REMMET13501/03/21 19:00:01 METAR KNEL 040000Z VRB05KT 6SM BR OVC005 04/04 A2991 RMK AO2 RAE2336 SLP128 P0004 60017 T00440044 10044 20033 51003 $EQDQ01  00438PRCP06
0272724090147802021010401007+40033-074350FM-15+0031KNEL V0209999V00315001525MN0048285N5+00395+00395101295ADDAA101000395AU110020015AU200001015AW1105AW2615GA1085+001525999GD14991+0015259GE19MSL   +99999+99999GF199999999999001521999999MA1101295100915MW1615REMMET11501/03/21 20:00:01 METAR KNEL 040100Z VRB06KT 3SM -RA BR OVC005 04/04 A2991 RMK AO2 RAB0004 SLP129 P0001 T00390039 $
0245724090147802021010402007+40033-074350FM-15+0031KNEL V0209999V00265001525MN0080475N5+00335+00335101265ADDAA101000021AU100001015AW1105GA1085+001525999GD14991+0015259GE19MSL   +99999+99999GF199999999999001521999999MA1101295100915REMMET11101/03/21 21:00:01 METAR KNEL 040200Z VRB05KT 5SM BR OVC005 03/03 A2991 RMK AO2 RAE0101 SLP126 P0000 T00330033 $
0256724090147802021010403007+40033-074350FM-15+0031KNEL V0200305N00155001525MN0112655N5+00395+00395101295ADDAA103003391GA1085+001525999GD14991+0015259GE19MSL   +99999+99999GF199999999999001521999999MA1101325100955MD1090009+9999REMMET10601/03/21 22:00:01 METAR KNEL 040300Z 03003KT 7SM OVC005 04/04 A2992 RMK AO2 SLP129 60013 T00390039 50000 $EQDQ01  00338PRCP03
0213724090147802021010403447+40033-074350FM-16+0031KNEL V0209999V00155001225MN0064375N5+00395+00395999999ADDAU100001015AW1105GA1085+001225999GD14991+0012259GE19MSL   +99999+99999GF199999999999001221999999MA1101295100915REMMET09001/03/21 22:44:01 SPECI KNEL 040344Z VRB03KT 4SM BR OVC004 04/04 A2991 RMK AO2 T00390039 $
0232724090147802021010404007+40033-074350FM-15+0031KNEL V0200305N00215001225MN0080475N5+00395+00395101275ADDAU100001015AW1105GA1085+001225999GD14991+0012251GE19MSL   +99999+99999GF199999999999001221999999MA1101295100915REMMET10901/03/21 23:00:01 METAR KNEL 040400Z 03004KT 5SM BR OVC004 04/04 A2991 RMK AO2 CIG 003V008 SLP127 T00390039 $
0193724090147802021010404217+40033-074350FM-16+0031KNEL V0200105N00155001525MN0112655N5+00395+00395999999ADDGA1085+001525999GD14991+0015259GE19MSL   +99999+99999GF199999999999001521999999MA1101295100915REMMET08701/03/21 23:21:02 SPECI KNEL 040421Z 01003KT 7SM OVC005 04/04 A2991 RMK AO2 T00390039 $
002772409014780202101040459O+40033-074350SOD  +0031KNEL V020999999999999999999999999999+99999+99999999999ADDAT1AU16RA  5AT2AU13BR  5
0249724090147802021010405007+40033-074350FM-15+0031KNEL V0209999V00155001835MN0160935N5+00395+00395101275ADDGA1085+001835999GD14991+0018351GE19MSL   +99999+99999GF199999999999001831999999KA1240M+00391KA2240N+00391MA1101295100915REMMET11701/04/21 00:00:02 METAR KNEL 040500Z VRB03KT 10SM OVC006 04/04 A2991 RMK AO2 CIG 005V009 SLP127 T00390039 400390039 $
0319724090147802021010406007+40033-074350FM-16+0031KNEL V0203305N00155001835MN0040235N5+00405+00405999999ADDAA101000231AU110020015AU200001015AW1105AW2615GA1075+001835999GA2085+003355999GD13991+0018351GD24991+0033559GE19MSL   +99999+99999GF199999999999001831999999MA1101325100955MW1615REMMET13101/04/21 01:00:02 SPECI KNEL 040600Z 33003KT 2 1/2SM -RA BR BKN006 OVC011 04/04 A2992 RMK AO2 RAB0506E0516B0533 CIG 004V010 P0001 $
0430724090147802021010406067+40033-074350FM-15+0031KNEL V0203205N00155001835MN0040235N5+00395+00395101315ADDAA101000395AA206000591AU110020015AU200001015AW1105AW2615GA1075+001835999GA2085+003355999GD13991+0018351GD24991+0033559GE19MSL   +99999+99999GF199999999999001831999999KA1060M+00391KA2060N+00331MA1101325100955MD1190019+9999MW1615REMMET17201/04/21 01:06:02 METAR KNEL 040606Z 32003KT 2 1/2SM -RA BR BKN006 OVC011 04/04 A2992 RMK AO2 RAB0506E0516B0533 CIG 004V009 SLP131 P0001 60002 T00390039 10039 20033 51001 $EQDQ01  00058PRCP06
0307724090147802021010406137+40033-074350FM-16+0031KNEL V0203305N00155001835MN0048285N5+00335+00335999999ADDAA101000021AU110020015AU200001015AW1105AW2615GA1075+001835999GA2085+003355999GD13991+0018351GD24991+0033559GE19MSL   +99999+99999GF199999999999001831999999MA1101355100985MW1615REMMET11901/04/21 01:13:02 SPECI KNEL 040613Z 33003KT 3SM -RA BR BKN006 OVC011 03/03 A2993 RMK AO2 CIG 004V008 P0000 T00330033 $
0269724090147802021010406357+40033-074350FM-16+0031KNEL V0203205N00215001225MN0048285N5+00335+00335999999ADDAA101000231AU110020015AU200001015AW1105AW2615GA1085+001225999GD14991+0012251GE19MSL   +99999+99999GF199999999999001221999999MA1101355100985MW1615REMMET11201/04/21 01:35:02 SPECI KNEL 040635Z 32004KT 3SM -RA BR OVC004 03/03 A2993 RMK AO2 CIG 003V010 P0001 T00330033 $
0259724090147802021010407007+40033-074350FM-16+0031KNEL V0209999V00215001525MN0048285N5+00305+00305999999ADDAA101000531AU110020015AU200001015AW1105AW2615GA1085+001525999GD14991+0015251GE19MSL   +99999+99999GF199999999999001521999999MA1101355100985MW1615REMMET10201/04/21 02:00:02 SPECI KNEL 040700Z VRB04KT 3SM -RA BR OVC005 03/03 A2993 RMK AO2 CIG 003V008 P0002 $
0276724090147802021010407067+40033-074350FM-15+0031KNEL V0209999V00155001525MN0048285N5+00285+00285101355ADDAA101000595AU110020015AU200001015AW1105AW2615GA1085+001525999GD14991+0015251GE19MSL   +99999+99999GF199999999999001521999999MA1101355100985MW1615REMMET11901/04/21 02:06:02 METAR KNEL 040706Z VRB03KT 3SM -RA BR OVC005 03/03 A2993 RMK AO2 CIG 004V008 SLP135 P0002 T00280028 $
0269724090147802021010408007+40033-074350FM-15+0031KNEL V0209999C00005001525MN0096565N5+00285+00285101365ADDAA101000395AU100001015AW1105GA1085+001525999GD14991+0015251GE19MSL   +99999+99999GF199999999999001521999999MA1101395101025REMMET13501/04/21 03:00:02 METAR KNEL 040800Z 00000KT 6SM BR OVC005 03/03 A2994 RMK AO2 RAE0735UPB0735E0753 CIG 004V008 SLP136 P0001 T00280028 $
0200724090147802021010408477+40033-074350FM-16+0031KNEL V0203405N00155001225MN0112655N5+00225+00225999999ADDGA1085+001225999GD14991+0012259GE19MSL   +99999+99999GF199999999999001221999999MA1101395101025REMMET09401/04/21 03:47:02 SPECI KNEL 040847Z 34003KT 7SM OVC004 02/02 A2994 RMK AO2 T00220022 FZRANO $
0263724090147802021010409007+40033-074350FM-15+0031KNEL V0209999V00215001225MN0112655N5+00225+00225101345ADDAA103001091GA1085+001225999GD14991+0012259GE19MSL   +99999+99999GF199999999999001221999999MA1101355100985MD1190059+9999REMMET11301/04/21 04:00:02 METAR KNEL 040900Z VRB04KT 7SM OVC004 02/02 A2993 RMK AO2 SLP134 60004 T00220022 51005 FZRANO $EQDQ01  00108PRCP03
0227724090147802021010410007+40033-074350FM-15+0031KNEL V0209999C00005001225MN0096565N5+00225+00225101425ADDAU100001015AW1105GA1085+001225999GD14991+0012259GE19MSL   +99999+99999GF199999999999001221999999MA1101465101085REMMET10401/04/21 05:00:02 METAR KNEL 041000Z 00000KT 6SM BR OVC004 02/02 A2996 RMK AO2 SLP142 T00220022 FZRANO $
0273724090147802021010410237+40033-074350FM-16+0031KNEL V0203205N00155001225MN0040235N5+00225+00225999999ADDAA101000021AU120090015AU200001015AW1105AW2401AW3415GA1085+001225999GD14991+0012259GE19MSL   +99999+99999GF199999999999001221999999MA1101465101085REMMET11601/04/21 05:23:02 SPECI KNEL 041023Z 32003KT 2 1/2SM UP BR OVC004 02/02 A2996 RMK AO2 UPB18 P0000 T00220022 FZRANO $
0273724090147802021010410487+40033-074350FM-16+0031KNEL V0203505N00155001525MN0040235N5+00175+00175999999ADDAA101000021AU120090015AU200001015AW1105AW2401AW3415GA1085+001525999GD14991+0015259GE19MSL   +99999+99999GF199999999999001521999999MA1101465101085REMMET11601/04/21 05:48:02 SPECI KNEL 041048Z 35003KT 2 1/2SM UP BR OVC005 02/02 A2996 RMK AO2 UPB18 P0000 T00170017 FZRANO $
0236724090147802021010410577+40033-074350FM-16+0031KNEL V0203305N00155001525MN0048285N5+00205+00205999999ADDAA101000021AU100001015AW1105GA1085+001525999GD14991+0015259GE19MSL   +99999+99999GF199999999999001521999999MA1101495101125REMMET10201/04/21 05:57:02 SPECI KNEL 041057Z 33003KT 3SM BR OVC005 02/02 A2997 RMK AO2 UPB18E50 P0000 FZRANO $
0269724090147802021010411007+40033-074350FM-15+0031KNEL V0209999C00005001525MN0064375N5+00175+00175101475ADDAA101000021AU100001015AW1105GA1085+001525999GD14991+0015251GE19MSL   +99999+99999GF199999999999001521999999MA1101495101125REMMET13501/04/21 06:00:02 METAR KNEL 041100Z 00000KT 4SM BR OVC005 02/02 A2997 RMK AO2 UPB1018E1050 CIG 003V008 SLP147 P0000 T00170017 FZRANO $
0334724090147802021010412007+40033-074350FM-15+0031KNEL V0209999V00215001835MN0112655N5+00175+00175101475ADDAA106000891AA224009791GA1085+001835999GD14991+0018359GE19MSL   +99999+99999GF199999999999001831999999KA1060M+00391KA2060N+00171MA1101495101125MD1190139+9999REMMET13101/04/21 07:00:02 METAR KNEL 041200Z VRB04KT 7SM OVC006 02/02 A2997 RMK AO2 SLP147 60003 70038 T00170017 10039 20017 51013 FZRANO $EQDQ01  00078PRCP06Q02  00968PRCP24
0207724090147802021010413007+40033-074350FM-15+0031KNEL V0209999C00005002445MN0112655N5+00115+00115101515ADDGA1085+002445999GD14991+0024459GE19MSL   +99999+99999GF199999999999002441999999MA1101525101155REMMET10101/04/21 08:00:02 METAR KNEL 041300Z 00000KT 7SM OVC008 01/01 A2998 RMK AO2 SLP151 T00110011 FZRANO $
0208724090147802021010414007+40033-074350FM-15+0031KNEL V0209999V00215002445MN0160935N5+00175+00175101615ADDGA1085+002445999GD14991+0024459GE19MSL   +99999+99999GF199999999999002441999999MA1101635101255REMMET10201/04/21 09:00:02 METAR KNEL 041400Z VRB04KT 10SM OVC008 02/02 A3001 RMK AO2 SLP161 T00170017 FZRANO $
0206724090147802021010414367+40033-074350FM-16+0031KNEL V0209999V00155003055MN0160935N5+00285+00225999999ADDGA1085+003055999GD14991+0030551GE19MSL   +99999+99999GF199999999999003051999999MA1101665101295REMMET10001/04/21 09:36:02 SPECI KNEL 041436Z VRB03KT 10SM OVC010 03/02 A3002 RMK AO2 CIG 008V013 T00280022 $
0311724090147802021010415007+40033-074350FM-15+0031KNEL V0203405N00315003055MN0160935N5+00285+00225101635ADDAA103000021GA1075+003055999GA2085+010065999GD13991+0030559GD24991+0100659GE19MSL   +99999+99999GF199999999999003051999999MA1101665101295MD1390149+9999REMMET11401/04/21 10:00:02 METAR KNEL 041500Z 34006KT 10SM BKN010 OVC033 03/02 A3002 RMK AO2 SLP163 60000 T00280022 53014 $EQDQ01  00002PRCP03Q02  00008PRCP03
0201724090147802021010416007+40033-074350FM-15+0031KNEL V0203405N00265003665MN0160935N5+00395+00225101565ADDGA1085+003665999GD14991+0036659GE19MSL   +99999+99999GF199999999999003661999999MA1101595101225REMMET09501/04/21 11:00:02 METAR KNEL 041600Z 34005KT 10SM OVC012 04/02 A3000 RMK AO2 SLP156 T00390022 $
0184724090147802021010416326+40033-074350FM-16+0031KNEL V0209999999999016765MN0160935N5+00445+00225999999ADDGA1045+003965999GA2085+016765999GD12991+0039659GD24991+0167659MA1101525101155REMMET09501/04/21 11:32:02 SPECI KNEL 041632Z      KT 10SM SCT013 OVC055 04/02 A2998 RMK AO2 T00440022 $
0239724090147802021010417007+40033-074350FM-15+0031KNEL V0203305N00265016765MN0160935N5+00505+00115101465ADDGA1045+004575999GA2085+016765999GD12991+0045759GD24991+0167659GE19MSL   +99999+99999GF199999999999004571999999MA1101465101085REMMET10201/04/21 12:00:02 METAR KNEL 041700Z 33005KT 10SM SCT015 OVC055 05/01 A2996 RMK AO2 SLP146 T00500011 $
0297724090147802021010418007+40033-074350FM-15+0031KNEL V0203505N00215016765MN0160935N5+00565+00175101385ADDGA1045+005795999GA2085+016765999GD12991+0057959GD24991+0167659GE19MSL   +99999+99999GF199999999999005791999999KA1060M+00561KA2060N+00111MA1101395101025MD1890169+9999REMMET12001/04/21 13:00:02 METAR KNEL 041800Z 35004KT 10SM SCT019 OVC055 06/02 A2994 RMK AO2 SLP138 T00560017 10056 20011 58016 $
0232724090147802021010418467+40033-074350FM-16+0031KNEL V0203005N00215006105MN0160935N5+00565+00175999999ADDGA1075+006105999GA2085+016765999GD13991+0061059GD24991+0167659GE19MSL   +99999+99999GF199999999999006101999999MA1101395101025REMMET09501/04/21 13:46:02 SPECI KNEL 041846Z 30004KT 10SM BKN020 OVC055 06/02 A2994 RMK AO2 T00560017 $
0239724090147802021010419007+40033-074350FM-15+0031KNEL V0202905N00215006105MN0160935N5+00565+00175101365ADDGA1075+006105999GA2085+016765999GD13991+0061059GD24991+0167659GE19MSL   +99999+99999GF199999999999006101999999MA1101395101025REMMET10201/04/21 14:00:02 METAR KNEL 041900Z 29004KT 10SM BKN020 OVC055 06/02 A2994 RMK AO2 SLP136 T00560017 $
0201724090147802021010420007+40033-074350FM-15+0031KNEL V0209999V00155006715MN0160935N5+00565+00225101415ADDGA1085+006715999GD14991+0067159GE19MSL   +99999+99999GF199999999999006711999999MA1101425101055REMMET09501/04/21 15:00:02 METAR KNEL 042000Z VRB03KT 10SM OVC022 06/02 A2995 RMK AO2 SLP141 T00560022 $
0221724090147802021010421007+40033-074350FM-15+0031KNEL V0209999C00005007625MN0160935N5+00505+00225101425ADDGA1085+007625999GD14991+0076259GE19MSL   +99999+99999GF199999999999007621999999MA1101425101055MD1590059+9999REMMET10101/04/21 16:00:02 METAR KNEL 042100Z 00000KT 10SM OVC025 05/02 A2995 RMK AO2 SLP142 T00500022 55005 $
0194724090147802021010421417+40033-074350FM-16+0031KNEL V0209999C00005009455MN0160935N5+00505+00285999999ADDGA1085+009455999GD14991+0094559GE19MSL   +99999+99999GF199999999999009451999999MA1101465101085REMMET08801/04/21 16:41:02 SPECI KNEL 042141Z 00000KT 10SM OVC031 05/03 A2996 RMK AO2 T00500028 $
0201724090147802021010422007+40033-074350FM-15+0031KNEL V0209999C00005009755MN0160935N5+00445+00285101435ADDGA1085+009755999GD14991+0097559GE19MSL   +99999+99999GF199999999999009751999999MA1101465101085REMMET09501/04/21 17:00:02 METAR KNEL 042200Z 00000KT 10SM OVC032 04/03 A2996 RMK AO2 SLP143 T00440028 $
0194724090147802021010422317+40033-074350FM-16+0031KNEL V0209999C00005008535MN0160935N5+00445+00225999999ADDGA1085+008535999GD14991+0085359GE19MSL   +99999+99999GF199999999999008531999999MA1101425101055REMMET08801/04/21 17:31:02 SPECI KNEL 042231Z 00000KT 10SM OVC028 04/02 A2995 RMK AO2 T00440022 $
0201724090147802021010423007+40033-074350FM-15+0031KNEL V0209999C00005008235MN0160935N5+00445+00225101435ADDGA1085+008235999GD14991+0082359GE19MSL   +99999+99999GF199999999999008231999999MA1101465101085REMMET09501/04/21 18:00:02 METAR KNEL 042300Z 00000KT 10SM OVC027 04/02 A2996 RMK AO2 SLP143 T00440022 $
0259724090147802021010500007+40033-074350FM-15+0031KNEL V0209999C00005008535MN0160935N5+00445+00175101435ADDGA1085+008535999GD14991+0085359GE19MSL   +99999+99999GF199999999999008531999999KA1060M+00561KA2060N+00391MA1101465101085MD1290029+9999REMMET11301/04/21 19:00:01 METAR KNEL 050000Z 00000KT 10SM OVC028 04/02 A2996 RMK AO2 SLP143 T00440017 10056 20039 52002 $
0201724090147802021010501007+40033-074350FM-15+0031KNEL V0202905N00155008845MN0160935N5+00395+00225101425ADDGA1085+008845999GD14991+0088459GE19MSL   +99999+99999GF199999999999008841999999MA1101425101055REMMET09501/04/21 20:00:01 METAR KNEL 050100Z 29003KT 10SM OVC029 04/02 A2995 RMK AO2 SLP142 T00390022 $
0194724090147802021010501097+40033-074350FM-16+0031KNEL V0202905N00155009145MN0160935N5+00335+00225999999ADDGA1085+009145999GD14991+0091459GE19MSL   +99999+99999GF199999999999009141999999MA1101425101055REMMET08801/04/21 20:09:01 SPECI KNEL 050109Z 29003KT 10SM OVC030 03/02 A2995 RMK AO2 T00330022 $
0201724090147802021010502007+40033-074350FM-15+0031KNEL V0209999C00005014025MN0160935N5+00335+00285101425ADDGA1085+014025999GD14991+0140259GE19MSL   +99999+99999GF199999999999014021999999MA1101465101085REMMET09501/04/21 21:00:01 METAR KNEL 050200Z 00000KT 10SM OVC046 03/03 A2996 RMK AO2 SLP142 T00330028 $
0221724090147802021010503007+40033-074350FM-15+0031KNEL V0209999C00005013725MN0160935N5+00285+00225101395ADDGA1085+013725999GD14991+0137259GE19MSL   +99999+99999GF199999999999013721999999MA1101425101055MD1590019+9999REMMET10101/04/21 22:00:01 METAR KNEL 050300Z 00000KT 10SM OVC045 03/02 A2995 RMK AO2 SLP139 T00280022 55001 $
0201724090147802021010504007+40033-074350FM-15+0031KNEL V0209999C00005012805MN0160935N5+00335+00225101355ADDGA1085+012805999GD14991+0128059GE19MSL   +99999+99999GF199999999999012801999999MA1101395101025REMMET09501/04/21 23:00:01 METAR KNEL 050400Z 00000KT 10SM OVC042 03/02 A2994 RMK AO2 SLP135 T00330022 $
003972409014780202101050459O+40033-074350SOD  +0031KNEL V020999999999999999999999999999+99999+99999999999ADDAT1AU16RA  5AT2AU13BR  5AT3AU19UP  5
0237724090147802021010505007+40033-074350FM-15+0031KNEL V0203205N00155014335MN0160935N5+00285+00225101325ADDGA1085+014335999GD14991+0143359GE19MSL   +99999+99999GF199999999999014331999999KA1240M+00281KA2240N+00281MA1101355100985REMMET10501/05/21 00:00:02 METAR KNEL 050500Z 32003KT 10SM OVC047 03/02 A2993 RMK AO2 SLP132 T00280022 400280028 $
0404724090147802021010506007+40033-074350FM-15+0031KNEL V0209999C00005012195MN0160935N5+00285+00225101305ADDAA101000021AA206000021GA1025+009145999GA2075+012195999GA3085+014945999GD11991+0091459GD23991+0121959GD34991+0149459GE19MSL   +99999+99999GF199999999999009141999999KA1060M+00441MA1101325100955MD1690109+9999REMMET15201/05/21 01:00:02 METAR KNEL 050600Z 00000KT 10SM FEW030 BKN040 OVC049 03/02 A2992 RMK AO2 UPB0507E0527 SLP130 P0000 60000 T00280022 10044 20028 56010 $EQDQ01  00002PRCP06Q02  00008PRCP06
0239724090147802021010507007+40033-074350FM-15+0031KNEL V0209999C00005011585MN0160935N5+00285+00225101305ADDGA1075+011585999GA2085+014335999GD13991+0115859GD24991+0143359GE19MSL   +99999+99999GF199999999999011581999999MA1101325100955REMMET10201/05/21 02:00:02 METAR KNEL 050700Z 00000KT 10SM BKN038 OVC047 03/02 A2992 RMK AO2 SLP130 T00280022 $
0208724090147802021010508007+40033-074350FM-15+0031KNEL V0209999C00005013415MN0160935N5+00225+00175101295ADDGA1085+013415999GD14991+0134159GE19MSL   +99999+99999GF199999999999013411999999MA1101325100955REMMET10201/05/21 03:00:02 METAR KNEL 050800Z 00000KT 10SM OVC044 02/02 A2992 RMK AO2 SLP129 T00220017 FZRANO $
0280724090147802021010509007+40033-074350FM-15+0031KNEL V0209999C00005013725MN0160935N5+00225+00175101285ADDAA103000021GA1085+013725999GD14991+0137259GE19MSL   +99999+99999GF199999999999013721999999MA1101295100915MD1690039+9999REMMET11401/05/21 04:00:02 METAR KNEL 050900Z 00000KT 10SM OVC045 02/02 A2991 RMK AO2 SLP128 60000 T00220017 56003 FZRANO $EQDQ01  00002PRCP03Q02  00008PRCP03
0208724090147802021010510007+40033-074350FM-15+0031KNEL V0209999C00005013725MN0160935N5+00225+00175101295ADDGA1085+013725999GD14991+0137259GE19MSL   +99999+99999GF199999999999013721999999MA1101295100915REMMET10201/05/21 05:00:02 METAR KNEL 051000Z 00000KT 10SM OVC045 02/02 A2991 RMK AO2 SLP129 T00220017 FZRANO $
0208724090147802021010511007+40033-074350FM-15+0031KNEL V0209999C00005013415MN0160935N5+00225+00175101295ADDGA1085+013415999GD14991+0134159GE19MSL   +99999+99999GF199999999999013411999999MA1101325100955REMMET10201/05/21 06:00:02 METAR KNEL 051100Z 00000KT 10SM OVC044 02/02 A2992 RMK AO2 SLP129 T00220017 FZRANO $
0266724090147802021010512007+40033-074350FM-15+0031KNEL V0209999C00005013725MN0160935N5+00225+00175101315ADDGA1085+013725999GD14991+0137259GE19MSL   +99999+99999GF199999999999013721999999KA1060M+00281KA2060N+00221MA1101325100955MD1690019+9999REMMET12001/05/21 07:00:02 METAR KNEL 051200Z 00000KT 10SM OVC045 02/02 A2992 RMK AO2 SLP131 T00220017 10028 20022 56001 FZRANO $
0207724090147802021010513007+40033-074350FM-15+0031KNEL V0209999V00155014025MN0144845N5+00225+00175101335ADDGA1085+014025999GD14991+0140259GE19MSL   +99999+99999GF199999999999014021999999MA1101355100985REMMET10101/05/21 08:00:02 METAR KNEL 051300Z VRB03KT 9SM OVC046 02/02 A2993 RMK AO2 SLP133 T00220017 FZRANO $
0201724090147802021010514007+40033-074350FM-15+0031KNEL V0200205N00155014025MN0160935N5+00285+00175101365ADDGA1085+014025999GD14991+0140259GE19MSL   +99999+99999GF199999999999014021999999MA1101395101025REMMET09501/05/21 09:00:02 METAR KNEL 051400Z 02003KT 10SM OVC046 03/02 A2994 RMK AO2 SLP136 T00280017 $
0221724090147802021010515007+40033-074350FM-15+0031KNEL V0200205N00215012805MN0160935N5+00335+00115101335ADDGA1085+012805999GD14991+0128059GE19MSL   +99999+99999GF199999999999012801999999MA1101355100985MD1290079+9999REMMET10101/05/21 10:00:02 METAR KNEL 051500Z 02004KT 10SM OVC042 03/01 A2993 RMK AO2 SLP133 T00330011 52007 $
0239724090147802021010516007+40033-074350FM-15+0031KNEL V0209999V00215013415MN0160935N5+00395+00065101285ADDGA1025+004275999GA2085+013415999GD11991+0042759GD24991+0134159GE19MSL   +99999+99999GF199999999999004271999999MA1101295100915REMMET10201/05/21 11:00:02 METAR KNEL 051600Z VRB04KT 10SM FEW014 OVC044 04/01 A2991 RMK AO2 SLP128 T00390006 $
0202724090147802021010517007+40033-074350FM-15+0031KNEL V0203605N00215014335MN0160935N5+00445-00065101195ADDGA1085+014335999GD14991+0143359GE19MSL   +99999+99999GF199999999999014331999999MA1101225100855REMMET09601/05/21 12:00:02 METAR KNEL 051700Z 36004KT 10SM OVC047 04/M01 A2989 RMK AO2 SLP119 T00441006 $
0222724090147802021010518007+40033-074350FM-16+0031KNEL V0209999V00155008535MN0160935N5+00405+00005999999ADDGA1075+008535999GA2085+014945999GD13991+0085359GD24991+0149459GE19MSL   +99999+99999GF199999999999008531999999MA1101155100785REMMET08501/05/21 13:00:02 SPECI KNEL 051800Z VRB03KT 10SM BKN028 OVC049 04/00 A2987 RMK AO2 $
0297724090147802021010518067+40033-074350FM-15+0031KNEL V0209999V00215008535MN0160935N5+00505+00005101135ADDGA1075+008535999GA2085+014945999GD13991+0085359GD24991+0149459GE19MSL   +99999+99999GF199999999999008531999999KA1060M+00501KA2060N+00221MA1101155100785MD1890179+9999REMMET12001/05/21 13:06:02 METAR KNEL 051806Z VRB04KT 10SM BKN028 OVC049 05/00 A2987 RMK AO2 SLP113 T00500000 10050 20022 58017 $
0201724090147802021010519007+40033-074350FM-15+0031KNEL V0209999V00215007625MN0160935N5+00445+00005101165ADDGA1085+007625999GD14991+0076259GE19MSL   +99999+99999GF199999999999007621999999MA1101195100815REMMET09501/05/21 14:00:02 METAR KNEL 051900Z VRB04KT 10SM OVC025 04/00 A2988 RMK AO2 SLP116 T00440000 $
0240724090147802021010520007+40033-074350FM-15+0031KNEL V0203505N00215007925MN0160935N5+00445-00065101175ADDGA1075+007925999GA2085+011585999GD13991+0079259GD24991+0115859GE19MSL   +99999+99999GF199999999999007921999999MA1101195100815REMMET10301/05/21 15:00:02 METAR KNEL 052000Z 35004KT 10SM BKN026 OVC038 04/M01 A2988 RMK AO2 SLP117 T00441006 $
0232724090147802021010520127+40033-074350FM-16+0031KNEL V0209999V00215011585MN0160935N5+00395+00005999999ADDGA1045+008235999GA2085+011585999GD12991+0082359GD24991+0115859GE19MSL   +99999+99999GF199999999999008231999999MA1101195100815REMMET09501/05/21 15:12:02 SPECI KNEL 052012Z VRB04KT 10SM SCT027 OVC038 04/00 A2988 RMK AO2 T00390000 $
0221724090147802021010521007+40033-074350FM-15+0031KNEL V0203105N00155011585MN0160935N5+00395+00005101215ADDGA1085+011585999GD14991+0115859GE19MSL   +99999+99999GF199999999999011581999999MA1101225100855MD1390039+9999REMMET10101/05/21 16:00:02 METAR KNEL 052100Z 31003KT 10SM OVC038 04/00 A2989 RMK AO2 SLP121 T00390000 53003 $
0201724090147802021010522007+40033-074350FM-15+0031KNEL V0203005N00215012805MN0160935N5+00335+00065101275ADDGA1085+012805999GD14991+0128059GE19MSL   +99999+99999GF199999999999012801999999MA1101295100915REMMET09501/05/21 17:00:02 METAR KNEL 052200Z 30004KT 10SM OVC042 03/01 A2991 RMK AO2 SLP127 T00330006 $
0277724090147802021010523007+40033-074350FM-15+0031KNEL V0203005N00155016765MN0160935N5+00285+00005101335ADDGA1025+009755999GA2045+014025999GA3085+016765999GD11991+0097559GD22991+0140259GD34991+0167659GE19MSL   +99999+99999GF199999999999009751999999MA1101355100985REMMET10901/05/21 18:00:02 METAR KNEL 052300Z 30003KT 10SM FEW032 SCT046 OVC055 03/00 A2993 RMK AO2 SLP133 T00280000 $
0304724090147802021010600007+40033-074350FM-15+0031KNEL V0203005N00155013415MN0160935N5+00225+00005101375ADDGA1075+013415999GA2085+016765999GD13991+0134159GD24991+0167659GE19MSL   +99999+99999GF199999999999013411999999KA1060M+00501KA2060N+00221MA1101395101025MD1390169+9999REMMET12701/05/21 19:00:01 METAR KNEL 060000Z 30003KT 10SM BKN044 OVC055 02/00 A2994 RMK AO2 SLP137 T00220000 10050 20022 53016 FZRANO $
0208724090147802021010601007+40033-074350FM-15+0031KNEL V0209999C00005018295MN0160935N5+00175+00005101365ADDGA1085+018295999GD14991+0182959GE19MSL   +99999+99999GF199999999999018291999999MA1101355100985REMMET10201/05/21 20:00:01 METAR KNEL 060100Z 00000KT 10SM OVC060 02/00 A2993 RMK AO2 SLP136 T00170000 FZRANO $
0208724090147802021010602007+40033-074350FM-15+0031KNEL V0203005N00155010065MN0160935N5+00115+00005101385ADDGA1085+010065999GD14991+0100659GE19MSL   +99999+99999GF199999999999010061999999MA1101395101025REMMET10201/05/21 21:00:01 METAR KNEL 060200Z 30003KT 10SM OVC033 01/00 A2994 RMK AO2 SLP138 T00110000 FZRANO $
0228724090147802021010603007+40033-074350FM-15+0031KNEL V0203005N00155009755MN0160935N5+00175+00065101355ADDGA1085+009755999GD14991+0097559GE19MSL   +99999+99999GF199999999999009751999999MA1101395101025MD1190049+9999REMMET10801/05/21 22:00:01 METAR KNEL 060300Z 30003KT 10SM OVC032 02/01 A2994 RMK AO2 SLP135 T00170006 51004 FZRANO $
0201724090147802021010603307+40033-074350FM-16+0031KNEL V0203005N00155008535MN0160935N5+00175+00065999999ADDGA1085+008535999GD14991+0085359GE19MSL   +99999+99999GF199999999999008531999999MA1101395101025REMMET09501/05/21 22:30:01 SPECI KNEL 060330Z 30003KT 10SM OVC028 02/01 A2994 RMK AO2 T00170006 FZRANO $
0208724090147802021010604007+40033-074350FM-15+0031KNEL V0209999C00005008845MN0160935N5+00225+00065101345ADDGA1085+008845999GD14991+0088459GE19MSL   +99999+99999GF199999999999008841999999MA1101355100985REMMET10201/05/21 23:00:02 METAR KNEL 060400Z 00000KT 10SM OVC029 02/01 A2993 RMK AO2 SLP134 T00220006 FZRANO $
0201724090147802021010604077+40033-074350FM-16+0031KNEL V0203005N00155009145MN0160935N5+00225+00065999999ADDGA1085+009145999GD14991+0091459GE19MSL   +99999+99999GF199999999999009141999999MA1101355100985REMMET09501/05/21 23:07:02 SPECI KNEL 060407Z 30003KT 10SM OVC030 02/01 A2993 RMK AO2 T00220006 FZRANO $
0244724090147802021010605007+40033-074350FM-15+0031KNEL V0203005N00215009755MN0160935N5+00225+00115101365ADDGA1085+009755999GD14991+0097559GE19MSL   +99999+99999GF199999999999009751999999KA1240M+00221KA2240N+00221MA1101395101025REMMET11201/06/21 00:00:02 METAR KNEL 060500Z 30004KT 10SM OVC032 02/01 A2994 RMK AO2 SLP136 T00220011 400220022 FZRANO $
0266724090147802021010606007+40033-074350FM-15+0031KNEL V0203005N00155009755MN0160935N5+00225+00115101365ADDGA1085+009755999GD14991+0097559GE19MSL   +99999+99999GF199999999999009751999999KA1060M+00221KA2060N+00111MA1101395101025MD1590019+9999REMMET12001/06/21 01:00:02 METAR KNEL 060600Z 30003KT 10SM OVC032 02/01 A2994 RMK AO2 SLP136 T00220011 10022 20011 55001 FZRANO $
0208724090147802021010607007+40033-074350FM-15+0031KNEL V0203005N00215010975MN0160935N5+00175+00065101395ADDGA1085+010975999GD14991+0109759GE19MSL   +99999+99999GF199999999999010971999999MA1101425101055REMMET10201/06/21 02:00:02 METAR KNEL 060700Z 30004KT 10SM OVC036 02/01 A2995 RMK AO2 SLP139 T00170006 FZRANO $
0208724090147802021010608007+40033-074350FM-15+0031KNEL V0203005N00155011585MN0160935N5+00115+00065101415ADDGA1085+011585999GD14991+0115859GE19MSL   +99999+99999GF199999999999011581999999MA1101425101055REMMET10201/06/21 03:00:02 METAR KNEL 060800Z 30003KT 10SM OVC038 01/01 A2995 RMK AO2 SLP141 T00110006 FZRANO $
0204724090147802021010609007+40033-074350FM-15+0031KNEL V0203005N002152200059N0160935N5+00005-00065101435ADDGA1005+999999999GD10991+9999999GF100991999999999999999999MA1101425101055MD1390059+9999REMMET10601/06/21 04:00:02 METAR KNEL 060900Z 30004KT 10SM CLR 00/M01 A2995 RMK AO2 SLP143 T00001006 53005 FZRANO $
0185724090147802021010610007+40033-074350FM-15+0031KNEL V0202905N002152200059N0160935N5-00225-00225101445ADDGA1005+999999999GD10991+9999999GF100991999999999999999999MA1101465101085REMMET10101/06/21 05:00:02 METAR KNEL 061000Z 29004KT 10SM CLR M02/M02 A2996 RMK AO2 SLP144 T10221022 FZRANO $
0185724090147802021010611007+40033-074350FM-15+0031KNEL V0203005N002652200059N0160935N5-00115-00175101465ADDGA1005+999999999GD10991+9999999GF100991999999999999999999MA1101465101085REMMET10101/06/21 06:00:02 METAR KNEL 061100Z 30005KT 10SM CLR M01/M02 A2996 RMK AO2 SLP146 T10111017 FZRANO $
0242724090147802021010612007+40033-074350FM-15+0031KNEL V0203005N003152200059N0160935N5+00065-00175101505ADDGA1005+999999999GD10991+9999999GF100991999999999999999999KA1060M+00221KA2060N-00221MA1101495101125MD1290049+9999REMMET11801/06/21 07:00:02 METAR KNEL 061200Z 30006KT 10SM CLR 01/M02 A2997 RMK AO2 SLP150 T00061017 10022 21022 52004 FZRANO $
0177724090147802021010613007+40033-074350FM-15+0031KNEL V0202905N002652200059N0160935N5+00005-00225101565ADDGA1005+999999999GD10991+9999999GF100991999999999999999999MA1101565101195REMMET09301/06/21 08:00:02 METAR KNEL 061300Z 29005KT 10SM CLR 00/M02 A2999 RMK AO2 SLP156 T00001022 $
0177724090147802021010614007+40033-074350FM-15+0031KNEL V0203005N003652200059N0160935N5+00285-00115101635ADDGA1005+999999999GD10991+9999999GF100991999999999999999999MA1101635101255REMMET09301/06/21 09:00:02 METAR KNEL 061400Z 30007KT 10SM CLR 03/M01 A3001 RMK AO2 SLP163 T00281011 $
0252724090147802021010615007+40033-074350FM-15+0031KNEL V0203005N004652200059N0160935N5+00445-00175101625ADDGA1025+008845999GD11991+0088459GE19AGL   +99999+99999GF102995999999008841999999MA1101635101255MD1390189+9999OC100885REMMET10501/06/21 10:00:02 METAR KNEL 061500Z 30009G17KT 10SM FEW029 04/M02 A3001 RMK AO2 SLP162 T00441017 53018 $EQDD01      0ADE726
0188724090147802021010616007+40033-074350FM-15+0031KNEL V0203005N008852200059N0160935N5+00505-00225101565ADDGA1005+999999999GD10991+9999999GF100991999999999999999999MA1101595101225OC101245REMMET09601/06/21 11:00:02 METAR KNEL 061600Z 30017G24KT 10SM CLR 05/M02 A3000 RMK AO2 SLP156 T00501022 $
0188724090147802021010617007+40033-074350FM-15+0031KNEL V0203105N006252200059N0160935N5+00565-00285101535ADDGA1005+999999999GD10991+9999999GF100991999999999999999999MA1101565101195OC100985REMMET09601/06/21 12:00:02 METAR KNEL 061700Z 31012G19KT 10SM CLR 06/M03 A2999 RMK AO2 SLP153 T00561028 $
0290724090147802021010618007+40033-074350FM-15+0031KNEL V0203205N004652200059N0160935N5+00615-00285101465ADDGA1025+011895999GD11991+0118959GE19AGL   +99999+99999GF102995999999011891999999KA1060M+00611KA2060N-00061MA1101495101125MD1890099+9999OC100935REMMET11701/06/21 13:00:02 METAR KNEL 061800Z 32009G18KT 10SM FEW039 06/M03 A2997 RMK AO2 SLP146 T00611028 10061 21006 58009 $EQDD01      0ADE726
0188724090147802021010619007+40033-074350FM-15+0031KNEL V0203105N006252200059N0160935N5+00615-00285101475ADDGA1005+999999999GD10991+9999999GF100991999999999999999999MA1101495101125OC101035REMMET09601/06/21 14:00:02 METAR KNEL 061900Z 31012G20KT 10SM CLR 06/M03 A2997 RMK AO2 SLP147 T00611028 $
0232724090147802021010620007+40033-074350FM-15+0031KNEL V0203105N006752200059N0160935N5+00565-00285101525ADDGA1025+011585999GD11991+0115859GE19AGL   +99999+99999GF102995999999011581999999MA1101525101155OC101135REMMET09901/06/21 15:00:02 METAR KNEL 062000Z 31013G22KT 10SM FEW038 06/M03 A2998 RMK AO2 SLP152 T00561028 $EQDD01      0ADE726
0233724090147802021010621007+40033-074350FM-15+0031KNEL V0203105N00515011585MN0160935N5+00445-00335101605ADDGA1085+011585999GD14991+0115859GE19MSL   +99999+99999GF199999999999011581999999MA1101635101255MD1590019+9999OC100985REMMET10501/06/21 16:00:02 METAR KNEL 062100Z 31010G19KT 10SM OVC038 04/M03 A3001 RMK AO2 SLP160 T00441033 55001 $
0177724090147802021010622007+40033-074350FM-15+0031KNEL V0203205N004652200059N0160935N5+00335-00335101655ADDGA1005+999999999GD10991+9999999GF100991999999999999999999MA1101665101295REMMET09301/06/21 17:00:02 METAR KNEL 062200Z 32009KT 10SM CLR 03/M03 A3002 RMK AO2 SLP165 T00331033 $
0188724090147802021010623007+40033-074350FM-15+0031KNEL V0203005N004152200059N0160935N5+00285-00335101695ADDGA1005+999999999GD10991+9999999GF100991999999999999999999MA1101695101325OC100725REMMET09601/06/21 18:00:02 METAR KNEL 062300Z 30008G14KT 10SM CLR 03/M03 A3003 RMK AO2 SLP169 T00281033 $
0235724090147802021010700007+40033-074350FM-15+0031KNEL V0203105N003152200059N0160935N5+00225-00335101755ADDGA1005+999999999GD10991+9999999GF100991999999999999999999KA1060M+00671KA2060N+00221MA1101765101395MD1190169+9999REMMET11101/06/21 19:00:01 METAR KNEL 070000Z 31006KT 10SM CLR 02/M03 A3005 RMK AO2 SLP175 T00221033 10067 20022 51016 $
0184724090147802021010701007+40033-074350FM-15+0031KNEL V0203005N003152200059N0160935N5+00065-00335101775ADDGA1005+999999999GD10991+9999999GF100991999999999999999999MA1101795101425REMMET10001/06/21 20:00:01 METAR KNEL 070100Z 30006KT 10SM CLR 01/M03 A3006 RMK AO2 SLP177 T00061033 FZRANO $
0184724090147802021010702007+40033-074350FM-15+0031KNEL V0203005N002152200059N0160935N5+00065-00335101775ADDGA1005+999999999GD10991+9999999GF100991999999999999999999MA1101765101395REMMET10001/06/21 21:00:01 METAR KNEL 070200Z 30004KT 10SM CLR 01/M03 A3005 RMK AO2 SLP177 T00061033 FZRANO $
0204724090147802021010703007+40033-074350FM-15+0031KNEL V0203105N002652200059N0160935N5+00005-00335101755ADDGA1005+999999999GD10991+9999999GF100991999999999999999999MA1101765101395MD1090079+9999REMMET10601/06/21 22:00:01 METAR KNEL 070300Z 31005KT 10SM CLR 00/M03 A3005 RMK AO2 SLP175 T00001033 50007 FZRANO $
0184724090147802021010704007+40033-074350FM-15+0031KNEL V0203005N003652200059N0160935N5+00005-00335101735ADDGA1005+999999999GD10991+9999999GF100991999999999999999999MA1101765101395REMMET10001/06/21 23:00:01 METAR KNEL 070400Z 30007KT 10SM CLR 00/M03 A3005 RMK AO2 SLP173 T00001033 FZRANO $
0220724090147802021010705007+40033-074350FM-15+0031KNEL V0203105N002652200059N0160935N5+00065-00335101735ADDGA1005+999999999GD10991+9999999GF100991999999999999999999KA1240M+00061KA2240N+00061MA1101765101395REMMET11001/07/21 00:00:02 METAR KNEL 070500Z 31005KT 10SM CLR 01/M03 A3005 RMK AO2 SLP173 T00061033 400060006 FZRANO $
0242724090147802021010706007+40033-074350FM-15+0031KNEL V0203005N003152200059N0160935N5+00005-00395101765ADDGA1005+999999999GD10991+9999999GF100991999999999999999999KA1060M+00221KA2060N-00061MA1101765101395MD1690029+9999REMMET11801/07/21 01:00:02 METAR KNEL 070600Z 30006KT 10SM CLR 00/M04 A3005 RMK AO2 SLP176 T00001039 10022 21006 56002 FZRANO $
0184724090147802021010707007+40033-074350FM-15+0031KNEL V0203105N002652200059N0160935N5+00005-00395101825ADDGA1005+999999999GD10991+9999999GF100991999999999999999999MA1101835101465REMMET10001/07/21 02:00:02 METAR KNEL 070700Z 31005KT 10SM CLR 00/M04 A3007 RMK AO2 SLP182 T00001039 FZRANO $
0184724090147802021010708007+40033-074350FM-15+0031KNEL V0203205N002652200059N0160935N5+00005-00445101805ADDGA1005+999999999GD10991+9999999GF100991999999999999999999MA1101835101465REMMET10001/07/21 03:00:02 METAR KNEL 070800Z 32005KT 10SM CLR 00/M04 A3007 RMK AO2 SLP180 T00001044 FZRANO $
0205724090147802021010709007+40033-074350FM-15+0031KNEL V0203005N003652200059N0160935N5-00065-00445101795ADDGA1005+999999999GD10991+9999999GF100991999999999999999999MA1101795101425MD1090079+9999REMMET10701/07/21 04:00:02 METAR KNEL 070900Z 30007KT 10SM CLR M01/M04 A3006 RMK AO2 SLP179 T10061044 50007 FZRANO $
0185724090147802021010710007+40033-074350FM-15+0031KNEL V0203005N003152200059N0160935N5-00065-00445101825ADDGA1005+999999999GD10991+9999999GF100991999999999999999999MA1101835101465REMMET10101/07/21 05:00:02 METAR KNEL 071000Z 30006KT 10SM CLR M01/M04 A3007 RMK AO2 SLP182 T10061044 FZRANO $
0185724090147802021010711007+40033-074350FM-15+0031KNEL V0203105N002152200059N0160935N5-00115-00445101875ADDGA1005+999999999GD10991+9999999GF100991999999999999999999MA1101865101495REMMET10101/07/21 06:00:02 METAR KNEL 071100Z 31004KT 10SM CLR M01/M04 A3008 RMK AO2 SLP187 T10111044 FZRANO $
0243724090147802021010712007+40033-074350FM-15+0031KNEL V0202905N002152200059N0160935N5-00225-00505101935ADDGA1005+999999999GD10991+9999999GF100991999999999999999999KA1060M+00001KA2060N-00221MA1101935101565MD1390069+9999REMMET11901/07/21 07:00:02 METAR KNEL 071200Z 29004KT 10SM CLR M02/M05 A3010 RMK AO2 SLP193 T10221050 10000 21022 53006 FZRANO $
0178724090147802021010713007+40033-074350FM-15+0031KNEL V0203005N002152200059N0160935N5-00115-00445102005ADDGA1005+999999999GD10991+9999999GF100991999999999999999999MA1102005101625REMMET09401/07/21 08:00:02 METAR KNEL 071300Z 30004KT 10SM CLR M01/M04 A3012 RMK AO2 SLP200 T10111044 $
0177724090147802021010714007+40033-074350FM-15+0031KNEL V0203205N003152200059N0160935N5+00115-00395102035ADDGA1005+999999999GD10991+9999999GF100991999999999999999999MA1102035101665REMMET09301/07/21 09:00:02 METAR KNEL 071400Z 32006KT 10SM CLR 01/M04 A3013 RMK AO2 SLP203 T00111039 $
0197724090147802021010715007+40033-074350FM-15+0031KNEL V0203205N003652200059N0160935N5+00285-00445102015ADDGA1005+999999999GD10991+9999999GF100991999999999999999999MA1102005101625MD1190169+9999REMMET09901/07/21 10:00:02 METAR KNEL 071500Z 32007KT 10SM CLR 03/M04 A3012 RMK AO2 SLP201 T00281044 51016 $
0188724090147802021010716007+40033-074350FM-15+0031KNEL V0203005N006252200059N0160935N5+00335-00445101945ADDGA1005+999999999GD10991+9999999GF100991999999999999999999MA1101935101565OC100775REMMET09601/07/21 11:00:02 METAR KNEL 071600Z 30012G15KT 10SM CLR 03/M04 A3010 RMK AO2 SLP194 T00331044 $
0188724090147802021010717007+40033-074350FM-15+0031KNEL V0203305N004152200059N0160935N5+00505-00445101835ADDGA1005+999999999GD10991+9999999GF100991999999999999999999MA1101865101495OC100775REMMET09601/07/21 12:00:02 METAR KNEL 071700Z 33008G15KT 10SM CLR 05/M04 A3008 RMK AO2 SLP183 T00501044 $
0246724090147802021010718007+40033-074350FM-15+0031KNEL V0202905N007752200059N0160935N5+00565-00445101795ADDGA1005+999999999GD10991+9999999GF100991999999999999999999KA1060M+00561KA2060N-00281MA1101795101425MD1890189+9999OC101035REMMET11401/07/21 13:00:02 METAR KNEL 071800Z 29015G20KT 10SM CLR 06/M04 A3006 RMK AO2 SLP179 T00561044 10056 21028 58018 $
0188724090147802021010719007+40033-074350FM-15+0031KNEL V0203205N004152200059N0160935N5+00615-00445101765ADDGA1005+999999999GD10991+9999999GF100991999999999999999999MA1101765101395OC100775REMMET09601/07/21 14:00:02 METAR KNEL 071900Z 32008G15KT 10SM CLR 06/M04 A3005 RMK AO2 SLP176 T00611044 $
0177724090147802021010720007+40033-074350FM-15+0031KNEL V0203305V004152200059N0160935N5+00675-00505101795ADDGA1005+999999999GD10991+9999999GF100991999999999999999999MA1101795101425REMMET09301/07/21 15:00:02 METAR KNEL 072000Z 33008KT 10SM CLR 07/M05 A3006 RMK AO2 SLP179 T00671050 $
0197724090147802021010721007+40033-074350FM-15+0031KNEL V0203005N004152200059N0160935N5+00615-00445101865ADDGA1005+999999999GD10991+9999999GF100991999999999999999999MA1101865101495MD1590059+9999REMMET09901/07/21 16:00:02 METAR KNEL 072100Z 30008KT 10SM CLR 06/M04 A3008 RMK AO2 SLP186 T00611044 55005 $
0177724090147802021010722007+40033-074350FM-15+0031KNEL V0203205N001552200059N0160935N5+00335-00445101905ADDGA1005+999999999GD10991+9999999GF100991999999999999999999MA1101905101525REMMET09301/07/21 17:00:02 METAR KNEL 072200Z 32003KT 10SM CLR 03/M04 A3009 RMK AO2 SLP190 T00331044 $
0177724090147802021010723007+40033-074350FM-15+0031KNEL V0203005N002152200059N0160935N5+00115-00505101905ADDGA1005+999999999GD10991+9999999GF100991999999999999999999MA1101905101525REMMET09301/07/21 18:00:02 METAR KNEL 072300Z 30004KT 10SM CLR 01/M05 A3009 RMK AO2 SLP190 T00111050 $
0236724090147802021010800007+40033-074350FM-15+0031KNEL V0203005N002152200059N0160935N5-00065-00505101955ADDGA1005+999999999GD10991+9999999GF100991999999999999999999KA1060M+00671KA2060N-00111MA1101965101595MD1190119+9999REMMET11201/07/21 19:00:01 METAR KNEL 080000Z 30004KT 10SM CLR M01/M05 A3011 RMK AO2 SLP195 T10061050 10067 21011 51011 $
0177724090147802021010801007+40033-074350FM-15+0031KNEL V0203305N002652200059N0160935N5+00115-00565101955ADDGA1005+999999999GD10991+9999999GF100991999999999999999999MA1101965101595REMMET09301/07/21 20:00:01 METAR KNEL 080100Z 33005KT 10SM CLR 01/M06 A3011 RMK AO2 SLP195 T00111056 $
0177724090147802021010802007+40033-074350FM-15+0031KNEL V0209999V002152200059N0160935N5+00065-00565101945ADDGA1005+999999999GD10991+9999999GF100991999999999999999999MA1101935101565REMMET09301/07/21 21:00:01 METAR KNEL 080200Z VRB04KT 10SM CLR 01/M06 A3010 RMK AO2 SLP194 T00061056 $
0198724090147802021010803007+40033-074350FM-15+0031KNEL V0209999V002152200059N0160935N5-00065-00565101925ADDGA1005+999999999GD10991+9999999GF100991999999999999999999MA1101935101565MD1090039+9999REMMET10001/07/21 22:00:01 METAR KNEL 080300Z VRB04KT 10SM CLR M01/M06 A3010 RMK AO2 SLP192 T10061056 50003 $
0178724090147802021010804007+40033-074350FM-15+0031KNEL V0203005N002152200059N0160935N5-00175-00565101935ADDGA1005+999999999GD10991+9999999GF100991999999999999999999MA1101935101565REMMET09401/07/21 23:00:02 METAR KNEL 080400Z 30004KT 10SM CLR M02/M06 A3010 RMK AO2 SLP193 T10171056 $
0221724090147802021010805007+40033-074350FM-15+0031KNEL V0202805N002152200059N0160935N5-00335-00565101935ADDGA1005+999999999GD10991+9999999GF100991999999999999999999KA1240M-00331KA2240N-00331MA1101935101565REMMET11101/08/21 00:00:02 METAR KNEL 080500Z 28004KT 10SM CLR M03/M06 A3010 RMK AO2 SLP193 T10331056 410331033 FZRANO $
0243724090147802021010806007+40033-074350FM-15+0031KNEL V0203205N001552200059N0160935N5-00285-00565101825ADDGA1005+999999999GD10991+9999999GF100991999999999999999999KA1060M+00111KA2060N-00441MA1101835101465MD1690019+9999REMMET11901/08/21 01:00:01 METAR KNEL 080600Z 32003KT 10SM CLR M03/M06 A3007 RMK AO2 SLP182 T10281056 10011 21044 56001 FZRANO $
0159724090147802021010807006+40033-074350FM-15+0031KNEL V0203005N001552200059N0160935N5-00335-00565101865ADDGA1005+999999999GD10991+9999999MA1101865101495REMMET10101/08/21 02:00:02 METAR KNEL 080700Z 30003KT 10SM CLR M03/M06 A3008 RMK AO2 SLP186 T10331056 FZRANO $
0159724090147802021010808006+40033-074350FM-15+0031KNEL V0209999C000052200059N0160935N5-00445-00565101845ADDGA1005+999999999GD10991+9999999MA1101865101495REMMET10101/08/21 03:00:02 METAR KNEL 080800Z 00000KT 10SM CLR M04/M06 A3008 RMK AO2 SLP184 T10441056 FZRANO $
0179724090147802021010809006+40033-074350FM-15+0031KNEL V0203105N001552200059N0160935N5-00445-00565101755ADDGA1005+999999999GD10991+9999999MA1101765101395MD1690099+9999REMMET10701/08/21 04:00:02 METAR KNEL 080900Z 31003KT 10SM CLR M04/M06 A3005 RMK AO2 SLP175 T10441056 56009 FZRANO $
0159724090147802021010810006+40033-074350FM-15+0031KNEL V0209999C000052200059N0160935N5-00445-00565101765ADDGA1005+999999999GD10991+9999999MA1101765101395REMMET10101/08/21 05:00:02 METAR KNEL 081000Z 00000KT 10SM CLR M04/M06 A3005 RMK AO2 SLP176 T10441056 FZRANO $
0159724090147802021010811006+40033-074350FM-15+0031KNEL V0203405N001552200059N0160935N5-00395-00565101705ADDGA1005+999999999GD10991+9999999MA1101735101355REMMET10101/08/21 06:00:02 METAR KNEL 081100Z 34003KT 10SM CLR M04/M06 A3004 RMK AO2 SLP170 T10391056 FZRANO $
0191724090147802021010812006+40033-074350FM-15+0031KNEL V0209999C000052200059N0160935N5-00565-00615101705ADDGA1005+999999999GD10991+9999999MA1101695101325MD1690149+9999REMMET11901/08/21 07:00:02 METAR KNEL 081200Z 00000KT 10SM CLR M06/M06 A3003 RMK AO2 SLP170 T10561061 11028 21056 56014 FZRANO $
0152724090147802021010813006+40033-074350FM-15+0031KNEL V0209999C000052200059N0160935N5-00505-00565101805ADDGA1005+999999999GD10991+9999999MA1101795101425REMMET09401/08/21 08:00:02 METAR KNEL 081300Z 00000KT 10SM CLR M05/M06 A3006 RMK AO2 SLP180 T10501056 $
0152724090147802021010814006+40033-074350FM-15+0031KNEL V0209999V002152200059N0160935N5-00225-00505101665ADDGA1005+999999999GD10991+9999999MA1101665101295REMMET09401/08/21 09:00:02 METAR KNEL 081400Z VRB04KT 10SM CLR M02/M05 A3002 RMK AO2 SLP166 T10221050 $
0171724090147802021010815006+40033-074350FM-15+0031KNEL V0203005N002152200059N0160935N5+00005-00505101715ADDGA1005+999999999GD10991+9999999MA1101735101355MD1890049+9999REMMET09901/08/21 10:00:02 METAR KNEL 081500Z 30004KT 10SM CLR 00/M05 A3004 RMK AO2 SLP171 T00001050 58004 $
0151724090147802021010816006+40033-074350FM-15+0031KNEL V0202505N002652200059N0160935N5+00115-00505101685ADDGA1005+999999999GD10991+9999999MA1101695101325REMMET09301/08/21 11:00:02 METAR KNEL 081600Z 25005KT 10SM CLR 01/M05 A3003 RMK AO2 SLP168 T00111050 $
0151724090147802021010817006+40033-074350FM-15+0031KNEL V0202905N003152200059N0160935N5+00115-00505101565ADDGA1005+999999999GD10991+9999999MA1101565101195REMMET09301/08/21 12:00:02 METAR KNEL 081700Z 29006KT 10SM CLR 01/M05 A2999 RMK AO2 SLP156 T00111050 $
0183724090147802021010818006+40033-074350FM-15+0031KNEL V0203205N002152200059N0160935N5+00115-00505101375ADDGA1005+999999999GD10991+9999999MA1101395101025MD1890099+9999REMMET11101/08/21 13:00:02 METAR KNEL 081800Z 32004KT 10SM CLR 01/M05 A2994 RMK AO2 SLP137 T00111050 10017 21056 58009 $
0151724090147802021010819006+40033-074350FM-15+0031KNEL V0203405N002152200059N0160935N5+00115-00445101355ADDGA1005+999999999GD10991+9999999MA1101355100985REMMET09301/08/21 14:00:02 METAR KNEL 081900Z 34004KT 10SM CLR 01/M04 A2993 RMK AO2 SLP135 T00111044 $
0151724090147802021010820006+40033-074350FM-15+0031KNEL V0209999V001552200059N0160935N5+00115-00445101305ADDGA1005+999999999GD10991+9999999MA1101325100955REMMET09301/08/21 15:00:02 METAR KNEL 082000Z VRB03KT 10SM CLR 01/M04 A2992 RMK AO2 SLP130 T00111044 $
0171724090147802021010821006+40033-074350FM-15+0031KNEL V0202805N002152200059N0160935N5+00065-00445101315ADDGA1005+999999999GD10991+9999999MA1101325100955MD1690269+9999REMMET09901/08/21 16:00:02 METAR KNEL 082100Z 28004KT 10SM CLR 01/M04 A2992 RMK AO2 SLP131 T00061044 56026 $
0177724090147802021010822007+40033-074350FM-15+0031KNEL V0209999C000052200059N0160935N5+00005-00445101265ADDGA1005+999999999GD10991+9999999GF100991999999999999999999MA1101255100885REMMET09301/08/21 17:00:02 METAR KNEL 082200Z 00000KT 10SM CLR 00/M04 A2990 RMK AO2 SLP126 T00001044 $
0178724090147802021010823007+40033-074350FM-15+0031KNEL V0209999C000052200059N0160935N5-00065-00445101245ADDGA1005+999999999GD10991+9999999GF100991999999999999999999MA1101255100885REMMET09401/08/21 18:00:02 METAR KNEL 082300Z 00000KT 10SM CLR M01/M04 A2990 RMK AO2 SLP124 T10061044 $
0236724090147802021010900007+40033-074350FM-15+0031KNEL V0202905N002152200059N0160935N5-00115-00445101245ADDGA1005+999999999GD10991+9999999GF100991999999999999999999KA1060M+00111KA2060N-00111MA1101255100885MD1890079+9999REMMET11201/08/21 19:00:01 METAR KNEL 090000Z 29004KT 10SM CLR M01/M04 A2990 RMK AO2 SLP124 T10111044 10011 21011 58007 $
0185724090147802021010901007+40033-074350FM-15+0031KNEL V0203205N001552200059N0160935N5-00115-00445101175ADDGA1005+999999999GD10991+9999999GF100991999999999999999999MA1101195100815REMMET10101/08/21 20:00:01 METAR KNEL 090100Z 32003KT 10SM CLR M01/M04 A2988 RMK AO2 SLP117 T10111044 FZRANO $
0184724090147802021010902007+40033-074350FM-15+0031KNEL V0203405N002652200059N0160935N5+00005-00505101095ADDGA1005+999999999GD10991+9999999GF100991999999999999999999MA1101085100715REMMET10001/08/21 21:00:01 METAR KNEL 090200Z 34005KT 10SM CLR 00/M05 A2985 RMK AO2 SLP109 T00001050 FZRANO $
0204724090147802021010903007+40033-074350FM-15+0031KNEL V0209999V002152200059N0160935N5+00005-00505101065ADDGA1005+999999999GD10991+9999999GF100991999999999999999999MA1101085100715MD1890159+9999REMMET10601/08/21 22:00:01 METAR KNEL 090300Z VRB04KT 10SM CLR 00/M05 A2985 RMK AO2 SLP106 T00001050 58015 FZRANO $
0184724090147802021010904007+40033-074350FM-15+0031KNEL V0203505N002152200059N0160935N5+00005-00565101045ADDGA1005+999999999GD10991+9999999GF100991999999999999999999MA1101055100685REMMET10001/08/21 23:00:01 METAR KNEL 090400Z 35004KT 10SM CLR 00/M06 A2984 RMK AO2 SLP104 T00001056 FZRANO $
0221724090147802021010905007+40033-074350FM-15+0031KNEL V0209999V002652200059N0160935N5-00065-00615101005ADDGA1005+999999999GD10991+9999999GF100991999999999999999999KA1240M-00061KA2240N-00061MA1101025100645REMMET11101/09/21 00:00:02 METAR KNEL 090500Z VRB05KT 10SM CLR M01/M06 A2983 RMK AO2 SLP100 T10061061 410061006 FZRANO $
0243724090147802021010906007+40033-074350FM-15+0031KNEL V0203505N003652200059N0160935N5-00115-00725100985ADDGA1005+999999999GD10991+9999999GF100991999999999999999999KA1060M+00001KA2060N-00111MA1100985100615MD1890089+9999REMMET11901/09/21 01:00:02 METAR KNEL 090600Z 35007KT 10SM CLR M01/M07 A2982 RMK AO2 SLP098 T10111072 10000 21011 58008 FZRANO $
0185724090147802021010907007+40033-074350FM-15+0031KNEL V0209999V002652200059N0160935N5-00175-00725101035ADDGA1005+999999999GD10991+9999999GF100991999999999999999999MA1101055100685REMMET10101/09/21 02:00:02 METAR KNEL 090700Z VRB05KT 10SM CLR M02/M07 A2984 RMK AO2 SLP103 T10171072 FZRANO $
0185724090147802021010908007+40033-074350FM-15+0031KNEL V0203605N003652200059N0160935N5-00225-00785101015ADDGA1005+999999999GD10991+9999999GF100991999999999999999999MA1101025100645REMMET10101/09/21 03:00:02 METAR KNEL 090800Z 36007KT 10SM CLR M02/M08 A2983 RMK AO2 SLP101 T10221078 FZRANO $
0224724090147802021010909007+40033-074350FM-15+0031KNEL V0203505N002652200059N0160935N5-00285-00895101035ADDGA1005+999999999GD10991+9999999GF100991999999999999999999MA1101055100685MD1390009+9999REMMET10701/09/21 04:00:02 METAR KNEL 090900Z 35005KT 10SM CLR M03/M09 A2984 RMK AO2 SLP103 T10281089 53000 FZRANO $EQDQ010     3APC3  
0185724090147802021010910007+40033-074350FM-15+0031KNEL V0203405N004152200059N0160935N5-00335-00945101035ADDGA1005+999999999GD10991+9999999GF100991999999999999999999MA1101055100685REMMET10101/09/21 05:00:02 METAR KNEL 091000Z 34008KT 10SM CLR M03/M09 A2984 RMK AO2 SLP103 T10331094 FZRANO $
0185724090147802021010911007+40033-074350FM-15+0031KNEL V0203305N002652200059N0160935N5-00395-00945101065ADDGA1005+999999999GD10991+9999999GF100991999999999999999999MA1101055100685REMMET10101/09/21 06:00:02 METAR KNEL 091100Z 33005KT 10SM CLR M04/M09 A2984 RMK AO2 SLP106 T10391094 FZRANO $
0243724090147802021010912007+40033-074350FM-15+0031KNEL V0203205N002152200059N0160935N5-00445-01005101095ADDGA1005+999999999GD10991+9999999GF100991999999999999999999KA1060M-00111KA2060N-00441MA1101125100755MD1390059+9999REMMET11901/09/21 07:00:02 METAR KNEL 091200Z 32004KT 10SM CLR M04/M10 A2986 RMK AO2 SLP109 T10441100 11011 21044 53005 FZRANO $
0185724090147802021010913007+40033-074350FM-15+0031KNEL V0209999V002652200059N0160935N5-00445-01005101185ADDGA1005+999999999GD10991+9999999GF100991999999999999999999MA1101195100815REMMET10101/09/21 08:00:02 METAR KNEL 091300Z VRB05KT 10SM CLR M04/M10 A2988 RMK AO2 SLP118 T10441100 FZRANO $
0185724090147802021010914007+40033-074350FM-15+0031KNEL V0203405N002152200059N0160935N5-00285-01005101215ADDGA1005+999999999GD10991+9999999GF100991999999999999999999MA1101225100855REMMET10101/09/21 09:00:02 METAR KNEL 091400Z 34004KT 10SM CLR M03/M10 A2989 RMK AO2 SLP121 T10281100 FZRANO $
0216724090147802021010915007+40033-074350FM-15+0031KNEL V0203505V003652200059N0160935N5-00115-01065101245ADDGA1005+999999999GD10991+9999999GF100991999999999999999999MA1101255100885MD1390169+9999OC100725REMMET11001/09/21 10:00:02 METAR KNEL 091500Z 35007G14KT 10SM CLR M01/M11 A2990 RMK AO2 SLP124 T10111106 53016 FZRANO $
0184724090147802021010916007+40033-074350FM-15+0031KNEL V0203205N005152200059N0160935N5+00005-01005101205ADDGA1005+999999999GD10991+9999999GF100991999999999999999999MA1101225100855REMMET10001/09/21 11:00:02 METAR KNEL 091600Z 32010KT 10SM CLR 00/M10 A2989 RMK AO2 SLP120 T00001100 FZRANO $
0177724090147802021010917007+40033-074350FM-15+0031KNEL V0203305N003652200059N0160935N5+00115-01065101125ADDGA1005+999999999GD10991+9999999GF100991999999999999999999MA1101125100755REMMET09301/09/21 12:00:02 METAR KNEL 091700Z 33007KT 10SM CLR 01/M11 A2986 RMK AO2 SLP112 T00111106 $
0309724090147802021010918007+40033-074350FM-15+0031KNEL V0209999V00315021345MN0160935N5+00285-00945101105ADDGA1045+014945999GA2075+021345999GD12991+0149459GD23991+0213459GE19MSL   +99999+99999GF199999999999014941999999KA1060M+00281KA2060N-00501MA1101125100755MD1890099+9999OC100885REMMET12401/09/21 13:00:02 METAR KNEL 091800Z VRB06G17KT 10SM SCT049 BKN070 03/M09 A2986 RMK AO2 SLP110 T00281094 10028 21050 58009 $
0251724090147802021010919007+40033-074350FM-15+0031KNEL V0203205V00415027435MN0160935N5+00285-00895101135ADDGA1025+012505999GA2085+027435999GD11991+0125059GD24991+0274359GE19MSL   +99999+99999GF199999999999012501999999MA1101155100785OC100935REMMET10601/09/21 14:00:02 METAR KNEL 091900Z 32008G18KT 10SM FEW041 OVC090 03/M09 A2987 RMK AO2 SLP113 T00281089 $
0240724090147802021010920007+40033-074350FM-15+0031KNEL V0203305V00365013725MN0160935N5+00285-00785101175ADDGA1075+013725999GA2075+025915999GD13991+0137259GD23991+0259159GE19MSL   +99999+99999GF199999999999013721999999MA1101195100815REMMET10301/09/21 15:00:02 METAR KNEL 092000Z 33007KT 10SM BKN045 BKN085 03/M08 A2988 RMK AO2 SLP117 T00281078 $
0298724090147802021010921007+40033-074350FM-15+0031KNEL V0203105N00415015245MN0160935N5+00285-00725101215ADDGA1045+013115999GA2075+015245999GA3085+024385999GD12991+0131159GD23991+0152459GD34991+0243859GE19MSL   +99999+99999GF199999999999013111999999MA1101225100855MD1390059+9999REMMET11601/09/21 16:00:02 METAR KNEL 092100Z 31008KT 10SM SCT043 BKN050 OVC080 03/M07 A2989 RMK AO2 SLP121 T00281072 53005 $
0202724090147802021010922007+40033-074350FM-15+0031KNEL V0209999V00265013415MN0160935N5+00285-01005101275ADDGA1085+013415999GD14991+0134159GE19MSL   +99999+99999GF199999999999013411999999MA1101295100915REMMET09601/09/21 17:00:02 METAR KNEL 092200Z VRB05KT 10SM OVC044 03/M10 A2991 RMK AO2 SLP127 T00281100 $
0209724090147802021010923007+40033-074350FM-15+0031KNEL V0203105N00215018295MN0160935N5+00225-01005101315ADDGA1085+018295999GD14991+0182959GE19MSL   +99999+99999GF199999999999018291999999MA1101325100955REMMET10301/09/21 18:00:02 METAR KNEL 092300Z 31004KT 10SM OVC060 02/M10 A2992 RMK AO2 SLP131 T00221100 FZRANO $
0260724090147802021011000007+40033-074350FM-15+0031KNEL V0203205N00155021345MN0160935N5+00285-01005101365ADDGA1085+021345999GD14991+0213459GE19MSL   +99999+99999GF199999999999021341999999KA1060M+00331KA2060N+00221MA1101395101025MD1290139+9999REMMET11401/09/21 19:00:01 METAR KNEL 100000Z 32003KT 10SM OVC070 03/M10 A2994 RMK AO2 SLP136 T00281100 10033 20022 52013 $
0209724090147802021011001007+40033-074350FM-15+0031KNEL V0203005N00315022865MN0160935N5+00225-00835101385ADDGA1085+022865999GD14991+0228659GE19MSL   +99999+99999GF199999999999022861999999MA1101395101025REMMET10301/09/21 20:00:01 METAR KNEL 100100Z 30006KT 10SM OVC075 02/M08 A2994 RMK AO2 SLP138 T00221083 FZRANO $
0232724090147802021011002007+40033-074350FM-15+0031KNEL V0203205N004652200059N0160935N5+00285-00675101425ADDGA1025+024385999GD11991+0243859GE19AGL   +99999+99999GF102995999999024381999999MA1101425101055OC100725REMMET09901/09/21 21:00:01 METAR KNEL 100200Z 32009G14KT 10SM FEW080 03/M07 A2995 RMK AO2 SLP142 T00281067 $EQDD01      0ADE726
0241724090147802021011003007+40033-074350FM-15+0031KNEL V0203305V003652200059N0160935N5+00335-00675101485ADDGA1045+024385999GD12991+0243859GE19AGL   +99999+99999GF104995999999024381999999MA1101495101125MD1190119+9999REMMET10201/09/21 22:00:01 METAR KNEL 100300Z 33007KT 10SM SCT080 03/M07 A2997 RMK AO2 SLP148 T00331067 51011 $EQDD01      0ADE726
0213724090147802021011004007+40033-074350FM-15+0031KNEL V0203405V00515022865MN0160935N5+00285-00615101545ADDGA1085+022865999GD14991+0228659GE19MSL   +99999+99999GF199999999999022861999999MA1101565101195OC100825REMMET09901/09/21 23:00:01 METAR KNEL 100400Z 34010G16KT 10SM OVC075 03/M06 A2999 RMK AO2 SLP154 T00281061 $
0264724090147802021011005007+40033-074350FM-15+0031KNEL V0209999V003152200059N0160935N5+00175-00675101585ADDGA1025+022865999GD11991+0228659GE19AGL   +99999+99999GF102995999999022861999999KA1240M+00171KA2240N+00171MA1101595101225REMMET11301/10/21 00:00:02 METAR KNEL 100500Z VRB06KT 10SM FEW075 02/M07 A3000 RMK AO2 SLP158 T00171067 400170017 FZRANO $EQDD01      0ADE726
0242724090147802021011006007+40033-074350FM-15+0031KNEL V0203305N002652200059N0160935N5+00065-00675101665ADDGA1005+999999999GD10991+9999999GF100991999999999999999999KA1060M+00331KA2060N+00061MA1101665101295MD1190179+9999REMMET11801/10/21 01:00:02 METAR KNEL 100600Z 33005KT 10SM CLR 01/M07 A3002 RMK AO2 SLP166 T00061067 10033 20006 51017 FZRANO $
0184724090147802021011007007+40033-074350FM-15+0031KNEL V0203105N002152200059N0160935N5+00005-00675101785ADDGA1005+999999999GD10991+9999999GF100991999999999999999999MA1101795101425REMMET10001/10/21 02:00:02 METAR KNEL 100700Z 31004KT 10SM CLR 00/M07 A3006 RMK AO2 SLP178 T00001067 FZRANO $
0185724090147802021011008007+40033-074350FM-15+0031KNEL V0203205N002652200059N0160935N5-00065-00785101845ADDGA1005+999999999GD10991+9999999GF100991999999999999999999MA1101865101495REMMET10101/10/21 03:00:02 METAR KNEL 100800Z 32005KT 10SM CLR M01/M08 A3008 RMK AO2 SLP184 T10061078 FZRANO $
0205724090147802021011009007+40033-074350FM-15+0031KNEL V0203205N002152200059N0160935N5-00115-00835101845ADDGA1005+999999999GD10991+9999999GF100991999999999999999999MA1101865101495MD1190259+9999REMMET10701/10/21 04:00:02 METAR KNEL 100900Z 32004KT 10SM CLR M01/M08 A3008 RMK AO2 SLP184 T10111083 51025 FZRANO $
0185724090147802021011010007+40033-074350FM-15+0031KNEL V0202705N002652200059N0160935N5-00335-00835101925ADDGA1005+999999999GD10991+9999999GF100991999999999999999999MA1101935101565REMMET10101/10/21 05:00:02 METAR KNEL 101000Z 27005KT 10SM CLR M03/M08 A3010 RMK AO2 SLP192 T10331083 FZRANO $
0185724090147802021011011007+40033-074350FM-15+0031KNEL V0203105N001552200059N0160935N5-00285-00785101965ADDGA1005+999999999GD10991+9999999GF100991999999999999999999MA1101965101595REMMET10101/10/21 06:00:02 METAR KNEL 101100Z 31003KT 10SM CLR M03/M08 A3011 RMK AO2 SLP196 T10281078 FZRANO $
0243724090147802021011012007+40033-074350FM-15+0031KNEL V0209999C000052200059N0160935N5-00335-00785102045ADDGA1005+999999999GD10991+9999999GF100991999999999999999999KA1060M+00061KA2060N-00501MA1102035101665MD1390129+9999REMMET11901/10/21 07:00:02 METAR KNEL 101200Z 00000KT 10SM CLR M03/M08 A3013 RMK AO2 SLP204 T10331078 10006 21050 53012 FZRANO $
0159724090147802021011013006+40033-074350FM-15+0031KNEL V0203105N001552200059N0160935N5-00225-00725102135ADDGA1005+999999999GD10991+9999999MA1102135101765REMMET10101/10/21 08:00:02 METAR KNEL 101300Z 31003KT 10SM CLR M02/M07 A3016 RMK AO2 SLP213 T10221072 FZRANO $
0184724090147802021011014007+40033-074350FM-15+0031KNEL V0203305N004152200059N0160935N5+00065-00725102215ADDGA1005+999999999GD10991+9999999GF100991999999999999999999MA1102245101865REMMET10001/10/21 09:00:02 METAR KNEL 101400Z 33008KT 10SM CLR 01/M07 A3019 RMK AO2 SLP221 T00061072 FZRANO $
