0401724095147922025010100057+40277-074816FM-16+0065KTTN V0201005N00515018295MN0064375N5+00835+00615999999ADDAA101001231AU147000015AU220020015AU300001015AW1105AW2121AW3625GA1025+011895999GA2045+014025999GA3085+018295999GD11991+0118959GD22991+0140259GD34991+0182959GE19AGL   +99999+99999GF199999999999011891999999MA1100445099675MV1015MW1655REMMET15912/31/24 19:05:03 SPECI KTTN 010005Z 10010KT 4SM VCTS RA BR FEW039 SCT046 OVC060 08/06 A2966 RMK AO2 LTG DSNT SW AND W LTG DSNT SW MVG E P0005 T00830061 $ (RF)
0355724095147922025010100207+40277-074816FM-16+0065KTTN V0200605N00365012505MN0064375N5+00835+00675999999ADDAA101002231AU120020015AU200001015AW1105AW2625GA1075+012505999GA2075+014945999GA3085+018295999GD13991+0125059GD23991+0149459GD34991+0182959GE19AGL   +99999+99999GF199999999999012501999999MA1100375099605MW1655REMMET13612/31/24 19:20:03 SPECI KTTN 010020Z 06007KT 4SM RA BR BKN041 BKN049 OVC060 08/07 A2964 RMK AO2 LTG DSNT SW MVG E P0009 T00830067 $ (RF)
0376724095147922025010100537+40277-074816FM-15+0065KTTN V0200605N00415012505MN0064375N5+00785+00675100215ADDAA101004395AU120020015AU200001015AW1105AW2625GA1075+012505999GA2075+014945999GA3085+018295999GD13991+0125059GD23991+0149459GD34991+0182959GE19AGL   +99999+99999GF199999999999012501999999MA1100275099505MW1655REMMET15712/31/24 19:53:03 METAR KTTN 010053Z 06008KT 4SM RA BR BKN041 BKN049 OVC060 08/07 A2961 RMK AO2 LTG DSNT SW-N SLP021 LTG DSNT SW MVG E P0014 T00780067 $ (RF)
0379724095147922025010100557+40277-074816FM-16+0065KTTN V0200705N00415008845MN0096565N5+00785+00675999999ADDAA101000231AU147000015AU220020015AU300001015AW1105AW2121AW3625GA1075+008845999GA2075+013415999GA3085+018295999GD13991+0088459GD23991+0134159GD34991+0182959GE19AGL   +99999+99999GF199999999999008841999999MA1100275099505MV1015MW1655REMMET13712/31/24 19:55:03 SPECI KTTN 010055Z 07008KT 6SM VCTS RA BR BKN029 BKN044 OVC060 08/07 A2961 RMK AO2 LTG DSNT SW-N P0001 T00780067 $ (RF)
0396724095147922025010101007+40277-074816FM-16+0065KTTN V0200505N00675008845MN0040235N5+00785+00675999999ADDAA101001531AU147000015AU220020015AU300001015AW1105AW2121AW3625GA1075+008845999GA2075+010675999GA3085+019815999GD13991+0088459GD23991+0106759GD34991+0198159GE19AGL   +99999+99999GF199999999999008841999999MA1100205099435MV1015MW1655REMMET15412/31/24 20:00:03 SPECI KTTN 010100Z 05013KT 2 1/2SM VCTS RA BR BKN029 BKN035 OVC065 08/07 A2959 RMK AO2 LTG DSNT SW-N TSVC S MVG E P0006 T00780067 $ (RF)
0379724095147922025010101137+40277-074816FM-16+0065KTTN V0200505N00675010365MN0040235N5+00785+00725999999ADDAA101003331AU120020015AU200001015AW1105AW2625GA1045+008845999GA2075+010365999GA3085+021345999GD12991+0088459GD23991+0103659GD34991+0213459GE19AGL   +99999+99999GF199999999999008841999999MA1100105099335MW1655REMMET16012/31/24 20:13:03 SPECI KTTN 010113Z 05013KT 2 1/2SM RA BR SCT029 BKN034 OVC070 08/07 A2956 RMK AO2 LTG DSNT NE AND W PRESFR TSVC S MVG E P0013 T00780072 $ (RF)
0410724095147922025010101407+40277-074816FM-16+0065KTTN V0200405N00575011285MN0040235N5+00785+00725999999ADDAA101004531AU107000025AU220020035AU300001015AW1105AW2625AW3905AW4921GA1025+002445999GA2075+011285999GA3085+021345999GD11991+0024459GD23991+0112859GD34991+0213459GE19AGL   +99999+99999GF199999999999002441999999MA1100075099305MW1655OC100885REMMET16012/31/24 20:40:03 SPECI KTTN 010140Z 04011G17KT 2 1/2SM TSRA BR FEW008 BKN037 OVC070 08/07 A2955 RMK AO2 LTG DSNT SE-W TSB40 TSVC S MVG E P0018 T00780072 $ (RF)
0410724095147922025010101437+40277-074816FM-16+0065KTTN V0209999V00155002445MN0040235N5+00785+00725999999ADDAA101004531AU107000025AU220020035AU300001015AW1105AW2625AW3905AW4921GA1075+002445999GA2075+007015999GA3085+018295999GD13991+0024459GD23991+0070159GD34991+0182959GE19AGL   +99999+99999GF199999999999002441999999MA1100105099335MW1655OC100885REMMET16012/31/24 20:43:03 SPECI KTTN 010143Z VRB03G17KT 2 1/2SM TSRA BR BKN008 BKN023 OVC060 08/07 A2956 RMK AO2 LTG DSNT SE-W TSB40 TSVC S MVG E P0018 T00780072 $ (RF)
0407724095147922025010101537+40277-074816FM-15+0065KTTN V0209999N99999002445MN0040235N5+00785+00785100005ADDAA101003395AU107000025AU220020035AU300001015AW1105AW2625AW3905AW4921GA1075+002445999GA2075+007015999GA3085+018295999GD13991+0024459GD23991+0070159GD34991+0182959GE19AGL   +99999+99999GF199999999999002441999999MA1100035099265MW1655REMMET16512/31/24 20:53:03 METAR KTTN 010153Z      KT 2 1/2SM TSRA BR BKN008 BKN023 OVC060 08/08 A2954 RMK AO2 LTG DSNT ALQDS TSB40 SLP000 TSVC S MVG E P0019 T00780078 $ (RF)
0331724095147922025010101557+40277-074816FM-16+0065KTTN V0200605N00265002445MN0048281N5+00785+00725999999ADDAA101000021AU100000017AW1105AW2625GA1075+002445999GA2075+004885999GA3085+015245999GD13991+0024459GD23991+0048859GD34991+0152459MA1100035099265MW1655REMMET13612/31/24 20:55:03 SPECI KTTN 010155Z 06005KT  RA BR BKN008 BKN016 OVC050 08/07 A2954 RMK AO2 LTG DSNT ALQDS TSE55 P0000 T00780072 $ (RF)EQDR01 RA BR7AWW013D01      0ADE735
0373724095147922025010102027+40277-074816FM-16+0065KTTN V0200605N00215002445MN0032195N5+00835+00725999999ADDAA101000021AU120020015AU200001015AW1105AW2625GA1075+002445999GA2075+004885999GA3085+011285999GD13991+0024459GD23991+0048859GD34991+0112859GE19AGL   +99999+99999GF199999999999002441999999MA1100005099235MW1655REMMET15412/31/24 21:02:03 SPECI KTTN 010202Z 06004KT 2SM RA BR BKN008 BKN016 OVC037 08/07 A2953 RMK AO2 LTG DSNT ALQDS TSE0155 VCTS S MVG E P0000 T00830072 $ (RF)
0411724095147922025010102217+40277-074816FM-16+0065KTTN V0200605N00215002445MN0032195N5+00785+00785999999ADDAA101003031AU147000015AU220020015AU300001015AW1105AW2121AW3625GA1075+002445999GA2075+004885999GA3085+011285999GD13991+0024459GD23991+0048859GD34991+0112859GE19AGL   +99999+99999GF199999999999002441999999MA1100145099365MV1015MW1655REMMET16912/31/24 21:21:03 SPECI KTTN 010221Z 06004KT 2SM VCTS RA BR BKN008 BKN016 OVC037 08/08 A2957 RMK AO2 LTG DSNT E AND NW TSE0155 PRESRR VCTS S MVG E P0012 T00780078 $ (RF)
0369724095147922025010102367+40277-074816FM-16+0065KTTN V0200605N00215002445MN0032195N5+00785+00725999999ADDAA101003331AU120020015AU200001015AW1105AW2625GA1075+002445999GA2075+004885999GA3085+011285999GD13991+0024459GD23991+0048859GD34991+0112859GE19AGL   +99999+99999GF199999999999002441999999MA1099975099205MW1655REMMET15012/31/24 21:36:03 SPECI KTTN 010236Z 06004KT 2SM RA BR BKN008 BKN016 OVC037 08/07 A2952 RMK AO2 LTG DSNT E TSE0155 VCTS S MVG E P0013 T00780072 $ (RF)
0432724095147922025010102537+40277-074816FM-15+0065KTTN V0200605N00215002445MN0032195N5+00725+00725099875ADDAA101003395AA203011791AU120020015AU200001015AW1105AW2625GA1075+002445999GA2075+004885999GA3085+011285999GD13991+0024459GD23991+0048859GD34991+0112859GE19AGL   +99999+99999GF199999999999002441999999MA1099935099165MD1690519+9999MW1655REMMET16912/31/24 21:53:03 METAR KTTN 010253Z 06004KT 2SM RA BR BKN008 BKN016 OVC037 07/07 A2951 RMK AO2 LTG DSNT E TSE0155 SLP987 VCTS S MVG E P0013 60046 T00720072 56051 $ (RF)EQDQ01  01168PRCP03
0337724095147922025010103007+40277-074816FM-16+0065KTTN V0200805N00365002445MN0048285N5+00785+00725999999ADDAA101000021AU120020015AU200001015AW1105AW2625GA1075+002445999GA2075+004885999GA3075+022865999GD13991+0024459GD23991+0048859GD33991+0228659GE19AGL   +99999+99999GF199999999999002441999999MA1099905099135MW1655REMMET11812/31/24 22:00:03 SPECI KTTN 010300Z 08007KT 3SM RA BR BKN008 BKN016 BKN075 08/07 A2950 RMK AO2 P0000 T00780072 $ (DZ)
0339724095147922025010103537+40277-074816FM-15+0065KTTN V0209999V00265002445MN0048285N5+00785+00785099845ADDAA101000025AU120020015AU200001015AW1105AW2625GA1075+002445999GA2075+004885999GA3075+022865999GD13991+0024459GD23991+0048859GD33991+0228659GE19AGL   +99999+99999GF199999999999002441999999MA1099905099135MW1655REMMET12012/31/24 22:53:03 METAR KTTN 010353Z VRB05KT 3SM RA BR BKN008 BKN016 BKN075 08/08 A2950 RMK AO2 SLP984 P0000 T00780078 $
0275724095147922025010104007+40277-074816FM-16+0065KTTN V0201905N00315006105MN0160935N5+00895+00835999999ADDAA101000021AU120020015AW1625GA1045+004885999GA2075+006105999GD12991+0048859GD23991+0061059GE19AGL   +99999+99999GF199999999999004881999999MA1099865099095MW1655REMMET10412/31/24 23:00:03 SPECI KTTN 010400Z 19006KT 10SM RA SCT016 BKN020 09/08 A2949 RMK AO2 P0000 T00890083 $
0256724095147922025010104097+40277-074816FM-16+0065KTTN V0201905N003652200059N0160935N5+00835+00785999999ADDAA101000021AU120020015AW1625GA1025+005185999GD11991+0051859GE19AGL   +99999+99999GF102995999999005181999999MA1099865099095MW1655REMMET09712/31/24 23:09:03 SPECI KTTN 010409Z 19007KT 10SM RA FEW017 08/08 A2949 RMK AO2 P0000 T00830078 $EQDD01      0ADE726
0237724095147922025010104327+40277-074816FM-16+0065KTTN V0202305N00315004575MN0160935N5+00895+00785999999ADDAA101000021AU120020015AW1625GA1075+004575999GD13991+0045759GE19AGL   +99999+99999GF199999999999004571999999MA1099865099095MW1655REMMET09712/31/24 23:32:03 SPECI KTTN 010432Z 23006KT 10SM RA BKN015 09/08 A2949 RMK AO2 P0000 T00890078 $
0237724095147922025010104457+40277-074816FM-16+0065KTTN V0202605N00315004275MN0160935N5+00895+00785999999ADDAA101000021AU120020015AW1625GA1085+004275999GD14991+0042759GE19AGL   +99999+99999GF199999999999004271999999MA1099835099065MW1655REMMET09712/31/24 23:45:03 SPECI KTTN 010445Z 26006KT 10SM RA OVC014 09/08 A2948 RMK AO2 P0000 T00890078 $
0280724095147922025010104537+40277-074816FM-15+0065KTTN V0202605N00365003965MN0160935N5+00895+00725099745ADDAA101000025AU120020015AW1625GA1075+003965999GD13991+0039659GE19AGL   +99999+99999GF199999999999003961999999KA1240M+01221KA2240N-00221MA1099805099035MW1655REMMET11412/31/24 23:53:03 METAR KTTN 010453Z 26007KT 10SM RA BKN013 09/07 A2947 RMK AO2 SLP974 P0000 T00890072 401221022 $
0919724095147922025010104596+40277-074816SOD  +0065KTTN V020999999999999999999999999999+99999+99999999999ADDAA124011795AT1AU03TS  5AT2AU16RA  5AT3AU13BR  5KA1240M+01225KA2240N-00215MG1100174099734OE11240107314015295OE22240076014014365OE33240026899999995REMSOD72724 HR PRECIPITATION (IN):0.46  24 HR MAX TEMP (F):54 24 HR MAX TEMP TIME (LST):1336 24 HR MIN TEMP (F):28 24 HR MIN TEMP TIME (LST):0604 AVERAGE STATION PRESSURE:29.580 MINIMUM SEA LEVEL PRESSURE:29.45 TIME OF OCCURRENCE:2359 PEAK WIND SPEED (MPH):24  PEAK WIND DIR (DEG):140 PEAK WIND TIME (LST):1529  FASTEST 2MIN SPEED (MPH):17 FASTEST 2MIN DIR (DEG):140 FASTEST 2MIN TIME (LST):1436 AVERAGE WIND SPEED (MPH):6.0  24 HR AVG TEMP (F):41 HEATING DEGREE DAYS:24  COOLING DEGREE DAYS:0   LATEST DAY MAX TEMP (0700-1900 LST):54  LATEST NIGHT MIN TEMP(1900-0800 LST):28 HOURLY INCREMENTAL PRECIPITATION VALUES (IN):.00 0.00 0.00 0.00 0.00 0.00 0.00 0.00 0.00 0.00 0.00 0.00 0.00 0.00 0.00 0.00 0.00 0.00 0.03 0.17 0.13 0.13 T    TEQDR01     N7GJS072R02     N7GKS075
1260724095147922025010104596+40277-074816SOM  +0065KTTN V020999999999999999999999999999+99999+99999999999ADDAB10097096AD10023691011999999996AE1175105035005AH1005002593121175AH2010003093121205AH3015003891100055AH4020004191100055AH5030004391100125AH6045004893120375AI1060005393001095AI2080006993121175AI3100008493121235AI4120009493121175AI5150011793121235AI6180011793121235KB1744N-02785KB2744M+06115KB3744A+01675KC1N9-01502399995KC2M9+01832999995KD1744H09235KD2744C00005KE1035005225005MH1101414102134MK1104811410145099531116415REMSOM796PCP MTOT:3.82 PCP GT 24HRS:0.93 DATE(S):10-11 DAYS W/PCP >=.01:17 DAYS W/PCP >=.10:10 DAYS W/ PCP >=.50:3 DAYS W/PCP >=1.00:0 MSDP AMTS W/DATE-TIME TAGS:MIN:5 0.10  31/2117 MIN:10 0.12  31/2120 MIN:15 0.15  11/0005 MIN:20 0.16  11/0005 MIN:30 0.17  11/0012 MIN:45 0.19  31/2037 MIN:60 0.21  30/0109 MIN:80 0.27  31/2117 MIN:100 0.33  31/2123 MIN:120 0.37  31/2117 MIN:150 0.46  31/2123 MIN:180 0.46  31/2123 AVG DLY MIN:27.0  AVG DLY MAX:43.0  AVG MLY TMP:35.0  MIN TMP:5  DATE(S):23 MAX TMP:65  DATE(S):29 DAYS MAX <=32:3 DAYS MAX >=90:0  DAYS MIN <=32:22 DAYS MIN  <=0:0  AVG STP:29.945 LWST SLP:29.39 DATE/TIME:111641 HGST SLP:30.95 DATE/TIME:141014 HDD MTH TOT:923 DEP NORM:-2553 SEASON(JUL 1-JUN 30):1662 DEP NORM:-25536 CDD MTH TOT:0 DEP NORM:-2553 SEASON(JAN 1-DEC 31):1205 DEP NORM:-25536EQDR01  3.827ABP070R02  0.937ADP081
0338724095147922025010105537+40277-074816FM-15+0065KTTN V0202505N00315003055MN0160935N5+00835+00675099755ADDAA101000025AA206011791AU120020015AW1625GA1085+003055999GD14991+0030559GE19AGL   +99999+99999GF199999999999003051999999KA1060M+00891KA2060N+00721MA1099805099035MD1590129+9999MW1655REMMET12801/01/25 00:53:02 METAR KTTN 010553Z 25006KT 10SM RA OVC010 08/07 A2947 RMK AO2 SLP975 P0000 60046 T00830067 10089 20072 55012 $EQDQ01  01168PRCP06
0275724095147922025010106167+40277-074816FM-16+0065KTTN V0202405N00215011585MN0160935N5+00785+00675999999ADDAA101000021AU120020015AW1625GA1045+003665999GA2075+011585999GD12991+0036659GD23991+0115859GE19AGL   +99999+99999GF199999999999003661999999MA1099805099035MW1655REMMET10401/01/25 01:16:02 SPECI KTTN 010616Z 24004KT 10SM RA SCT012 BKN038 08/07 A2947 RMK AO2 P0000 T00780067 $
0211724095147922025010106516+40277-074816FM-16+0065KTTN V0202505N00265010365MN0160935N5+00805+00705999999ADDAU120020015AW1625GA1025+002135999GA2085+010365999GD11991+0021359GD24991+0103659MA1099865099095MW1655REMMET09901/01/25 01:51:02 SPECI KTTN 010651Z 25005KT 10SM RA FEW007 OVC034 08/07 A2949 RMK AO2 P0000 $ FIBI
0282724095147922025010106537+40277-074816FM-15+0065KTTN V0202505N00265010065MN0160935N5+00785+00675099805ADDAA101000025AU120020015AW1625GA1025+002135999GA2085+010065999GD11991+0021359GD24991+0100659GE19AGL   +99999+99999GF199999999999002131999999MA1099865099095MW1655REMMET11101/01/25 01:53:02 METAR KTTN 010653Z 25005KT 10SM RA FEW007 OVC033 08/07 A2949 RMK AO2 SLP980 P0000 T00780067 $
0275724095147922025010107077+40277-074816FM-16+0065KTTN V0202205N00215002135MN0160935N5+00785+00725999999ADDAA101000021AU120020015AW1625GA1075+002135999GA2085+010065999GD13991+0021359GD24991+0100659GE19AGL   +99999+99999GF199999999999002131999999MA1099905099135MW1655REMMET10401/01/25 02:07:02 SPECI KTTN 010707Z 22004KT 10SM RA BKN007 OVC033 08/07 A2950 RMK AO2 P0000 T00780072 $
0249724095147922025010107516+40277-074816FM-16+0065KTTN V0202405N00215006405MN0160935N5+00705+00705999999ADDAU120020015AW1625GA1045+001835999GA2075+006405999GA3085+010065999GD12991+0018359GD23991+0064059GD34991+0100659MA1099905099135MW1655REMMET10601/01/25 02:51:02 SPECI KTTN 010751Z 24004KT 10SM RA SCT006 BKN021 OVC033 07/07 A2950 RMK AO2 P0000 $ FIBI
0320724095147922025010107537+40277-074816FM-15+0065KTTN V0202405N00215006405MN0160935N5+00725+00675099855ADDAA101000025AU120020015AW1625GA1045+001835999GA2075+006405999GA3085+008235999GD12991+0018359GD23991+0064059GD34991+0082359GE19AGL   +99999+99999GF199999999999001831999999MA1099905099135MW1655REMMET11801/01/25 02:53:02 METAR KTTN 010753Z 24004KT 10SM RA SCT006 BKN021 OVC027 07/07 A2950 RMK AO2 SLP985 P0000 T00720067 $
0337724095147922025010108537+40277-074816FM-15+0065KTTN V0202505N00215004575MN0144845N5+00725+00675099875ADDAA101000025AA203000021AU120020015AW1625GA1025+002445999GA2085+004575999GD11991+0024459GD24991+0045759GE19AGL   +99999+99999GF199999999999002441999999MA1099935099165MD1190079+9999MW1655REMMET12201/01/25 03:53:02 METAR KTTN 010853Z 25004KT 9SM RA FEW008 OVC015 07/07 A2951 RMK AO2 SLP987 P0000 60000 T00720067 51007 $EQDQ01  00008PRCP03
0236724095147922025010109417+40277-074816FM-16+0065KTTN V0202205N00265004275MN0128755N5+00725+00675999999ADDAA101000021AU120020015AW1625GA1085+004275999GD14991+0042759GE19AGL   +99999+99999GF199999999999004271999999MA1099935099165MW1655REMMET09601/01/25 04:41:02 SPECI KTTN 010941Z 22005KT 8SM RA OVC014 07/07 A2951 RMK AO2 P0000 T00720067 $
0243724095147922025010109537+40277-074816FM-15+0065KTTN V0202405N00265003665MN0128755N5+00725+00675099895ADDAA101000025AU120020015AW1625GA1085+003665999GD14991+0036659GE19AGL   +99999+99999GF199999999999003661999999MA1099935099165MW1655REMMET10301/01/25 04:53:02 METAR KTTN 010953Z 24005KT 8SM RA OVC012 07/07 A2951 RMK AO2 SLP989 P0000 T00720067 $
0249724095147922025010110277+40277-074816FM-16+0065KTTN V0202405N00365002135MN0160935N5+00725+00615999999ADDAA101000021AU120020015AW1625GA1085+002135999GD14991+0021351GE19AGL   +99999+99999GF199999999999002131999999MA1099975099205MW1655REMMET10901/01/25 05:27:02 SPECI KTTN 011027Z 24007KT 10SM RA OVC007 07/06 A2952 RMK AO2 CIG 006V011 P0000 T00720061 $
0223724095147922025010110537+40277-074816FM-15+0065KTTN V0202405N00265002135MN0128755N5+00725+00675099925ADDAA101000025GA1085+002135999GD14991+0021359GE19AGL   +99999+99999GF199999999999002131999999MA1099975099205REMMET10601/01/25 05:53:02 METAR KTTN 011053Z 24005KT 8SM OVC007 07/07 A2952 RMK AO2 RAE37 SLP992 P0000 T00720067 $
0221724095147922025010111516+40277-074816FM-16+0065KTTN V0202405N00265024385MN0112655N5+00705+00605999999ADDGA1025+002445999GA2045+010065999GA3085+024385999GD11991+0024459GD22991+0100659GD34991+0243859MA1099975099205REMMET10101/01/25 06:51:02 SPECI KTTN 011151Z 24005KT 7SM FEW008 SCT033 OVC080 07/06 A2952 RMK AO2 $ FIBI (EE)
0403724095147922025010111537+40277-074816FM-15+0065KTTN V0202405N00215024385MN0112655N5+00675+00615099935ADDAA101000095AA206000021AA324011791GA1025+002445999GA2045+010065999GA3085+024385999GD11991+0024459GD22991+0100659GD34991+0243859GE19AGL   +99999+99999GF199999999999002441999999KA1060M+00831KA2060N+00671MA1099975099205MD1190049+9999REMMET14301/01/25 06:53:02 METAR KTTN 011153Z 24004KT 7SM FEW008 SCT033 OVC080 07/06 A2952 RMK AO2 SLP993 60000 70046 T00670061 10083 20067 51004 $ (EE)EQDQ01  01168PRCP24
0222724095147922025010112267+40277-074816FM-16+0065KTTN V0202205N00315002135MN0040235N5+00615+00565999999ADDAU100001015AW1105GA1075+002135999GD13991+0021359GE19AGL   +99999+99999GF199999999999002131999999MA1100005099235REMMET09901/01/25 07:26:02 SPECI KTTN 011226Z 22006KT 2 1/2SM BR BKN007 06/06 A2953 RMK AO2 T00610056 $ (EE)
0218724095147922025010112387+40277-074816FM-16+0065KTTN V0202305N00265002135MN0048285N5+00675+00615999999ADDAU100001015AW1105GA1085+002135999GD14991+0021359GE19AGL   +99999+99999GF199999999999002131999999MA1100005099235REMMET09501/01/25 07:38:02 SPECI KTTN 011238Z 23005KT 3SM BR OVC007 07/06 A2953 RMK AO2 T00670061 $ (EE)
0324724095147922025010112537+40277-074816FM-15+0065KTTN V0202205N00265001835MN0048285N5+00675+00615099955ADDAA101000095AU100001015AW1105GA1075+001835999GA2075+003355999GA3085+004885999GD13991+0018351GD23991+0033559GD34991+0048859GE19AGL   +99999+99999GF199999999999001831999999MA1100005099235REMMET12801/01/25 07:53:02 METAR KTTN 011253Z 22005KT 3SM BR BKN006 BKN011 OVC016 07/06 A2953 RMK AO2 CIG 004V007 SLP995 T00670061 $ (EE)
0294724095147922025010113087+40277-074816FM-16+0065KTTN V0202205N00265001225MN0048285N5+00615+00615999999ADDAU100001015AW1105GA1075+001225999GA2075+002445999GA3085+004275999GD13991+0012259GD23991+0024459GD34991+0042759GE19AGL   +99999+99999GF199999999999001221999999MA1100035099265REMMET10901/01/25 08:08:02 SPECI KTTN 011308Z 22005KT 3SM BR BKN004 BKN008 OVC014 06/06 A2954 RMK AO2 T00610061 $ (EE)
0256724095147922025010113327+40277-074816FM-16+0065KTTN V0202505N00365018295MN0096565N5+00725+00615999999ADDAU100001015AW1105GA1045+001225999GA2085+018295999GD12991+0012259GD24991+0182959GE19AGL   +99999+99999GF199999999999001221999999MA1100035099265REMMET10201/01/25 08:32:02 SPECI KTTN 011332Z 25007KT 6SM BR SCT004 OVC060 07/06 A2954 RMK AO2 T00720061 $ (EE)
0217724095147922025010113537+40277-074816FM-15+0065KTTN V0202505N00465016765MN0160935N5+00785+00615100005ADDAA101000095GA1085+016765999GD14991+0167659GE19AGL   +99999+99999GF199999999999016761999999MA1100075099305REMMET10001/01/25 08:53:02 METAR KTTN 011353Z 25009KT 10SM OVC055 08/06 A2955 RMK AO2 SLP000 T00780061 $ (EE)
0248724095147922025010114437+40277-074816FM-16+0065KTTN V0202705N00415006105MN0160935N5+00835+00505999999ADDGA1075+006105999GA2085+016765999GD13991+0061059GD24991+0167659GE19AGL   +99999+99999GF199999999999006101999999MA1100145099365OC100985REMMET10301/01/25 09:43:02 SPECI KTTN 011443Z 27008G19KT 10SM BKN020 OVC055 08/05 A2957 RMK AO2 T00830050 $ (JM)
0248724095147922025010114537+40277-074816FM-15+0065KTTN V0202705N00575006715MN0160935N5+00835+00395100085ADDAA101000095GA1085+006715999GD14991+0067159GE19AGL   +99999+99999GF199999999999006711999999MA1100145099365MD1390159+9999OC100935REMMET10901/01/25 09:53:02 METAR KTTN 011453Z 27011G18KT 10SM OVC022 08/04 A2957 RMK AO2 SLP008 T00830039 53015 $ (JM)
0248724095147922025010115187+40277-074816FM-16+0065KTTN V0202605N00675025915MN0160935N5+00785+00225999999ADDGA1025+007325999GA2085+025915999GD11991+0073259GD24991+0259159GE19AGL   +99999+99999GF199999999999007321999999MA1100175099405OC101135REMMET10301/01/25 10:18:02 SPECI KTTN 011518Z 26013G22KT 10SM FEW024 OVC085 08/02 A2958 RMK AO2 T00780022 $ (JM)
0298724095147922025010115537+40277-074816FM-15+0065KTTN V0202805N00775015245MN0160935N5+00785+00225100135ADDAA101000095GA1075+015245999GA2085+027435999GD13991+0152459GD24991+0274359GE19AGL   +99999+99999GF199999999999015241999999MA1100175099405OC101295OD149901331270REMMET12801/01/25 10:53:02 METAR KTTN 011553Z 28015G25KT 10SM BKN050 OVC090 08/02 A2958 RMK AO2 PK WND 27026/1520 SLP013 T00780022 $ (JM)
0310724095147922025010116537+40277-074816FM-15+0065KTTN V0202805N00825010065MN0160935N5+00785+00115100145ADDAA101000025GA1075+010065999GA2085+015245999GD13991+0100659GD24991+0152459GE19AGL   +99999+99999GF199999999999010061999999MA1100205099435OC101295OD149901641270REMMET14001/01/25 11:53:02 METAR KTTN 011653Z 28016G25KT 10SM BKN033 OVC050 08/01 A2959 RMK AO2 PK WND 27032/1620 RAB07 SLP014 P0000 T00780011 $ (JM)
0401724095147922025010117537+40277-074816FM-15+0065KTTN V0202905N01035010365MN0160935N5+00675+00005100175ADDAA101000025AA206000021GA1075+010365999GA2085+019815999GD13991+0103659GD24991+0198159GE19AGL   +99999+99999GF199999999999010361999999KA1060M+00831MA1100245099465MD1190099+9999OC101545OD149901641280REMMET15801/01/25 12:53:02 METAR KTTN 011753Z 29020G30KT 10SM BKN034 OVC065 07/00 A2960 RMK AO2 PK WND 28032/1742 SLP017 P0000 60000 T00670000 10083 20056 51009 $ (JM)EQDQ01  00002PRCP06Q02  00008PRCP06
0310724095147922025010118537+40277-074816FM-15+0065KTTN V0202905N00775019815MN0160935N5+00725+00005100265ADDAA101000025GA1045+011285999GA2085+019815999GD12991+0112859GD24991+0198159GE19AGL   +99999+99999GF199999999999011281999999MA1100305099535OC101345OD149901801280REMMET14001/01/25 13:53:02 METAR KTTN 011853Z 29015G26KT 10SM SCT037 OVC065 07/00 A2962 RMK AO2 PK WND 28035/1805 RAE15 SLP026 P0000 T00720000 $ (MY)
0337724095147922025010119537+40277-074816FM-15+0065KTTN V0202905N00775021345MN0160935N5+00785-00115100375ADDAA101000095GA1045+013115999GA2075+021345999GA3085+033535999GD12991+0131159GD23991+0213459GD34991+0335359GE19AGL   +99999+99999GF199999999999013111999999MA1100445099675OC101965OD149901951260REMMET13601/01/25 14:53:02 METAR KTTN 011953Z 29015G38KT 10SM SCT043 BKN070 OVC110 08/M01 A2966 RMK AO2 PK WND 26038/1951 SLP037 T00781011 $ (MY)
0298724095147922025010120537+40277-074816FM-15+0065KTTN V0202805N00625015245MN0160935N5+00725-00175100485ADDAA101000095AA203000021GA1075+015245999GD13991+0152459GE19AGL   +99999+99999GF199999999999015241999999MA1100545099775MD1390319+9999OC101655OD149901641280REMMET13401/01/25 15:53:02 METAR KTTN 012053Z 28012G32KT 10SM BKN050 07/M02 A2969 RMK AO2 PK WND 28032/2045 SLP048 60000 T00721017 53031 $ (MY)
0236724095147922025010121537+40277-074816FM-15+0065KTTN V0202605N006752200059N0160935N5+00675-00225100525ADDAA101000095GA1005+999999999GD10991+9999999GF100991999999999999999999MA1100585099805OC101245OD149901691270REMMET11901/01/25 16:53:02 METAR KTTN 012153Z 26013G24KT 10SM CLR 07/M02 A2970 RMK AO2 PK WND 27033/2059 SLP052 T00671022 $ (RF)
0280724095147922025010122537+40277-074816FM-15+0065KTTN V0202705N006252200059N0160935N5+00615-00285100595ADDAA101000095GA1025+018295999GD11991+0182959GE19AGL   +99999+99999GF102995999999018291999999MA1100645099875OC101085OD149901491300REMMET12201/01/25 17:53:02 METAR KTTN 012253Z 27012G21KT 10SM FEW060 06/M03 A2972 RMK AO2 PK WND 30029/2159 SLP059 T00611028 $ (RF)EQDD01      0ADE726
0311724095147922025010123537+40277-074816FM-15+0065KTTN V0202805N007252200059N0160935N5+00565-00285100675ADDAA101000095AA206000021GA1005+999999999GD10991+9999999GF100991999999999999999999KA1060M+00781KA2060N+00561MA1100715099945MD1390209+9999OC101245OD149901391290REMMET14301/01/25 18:53:02 METAR KTTN 012353Z 28014G24KT 10SM CLR 06/M03 A2974 RMK AO2 PK WND 29027/2319 SLP067 60000 T00561028 10078 20056 53020 $ (RF)
0231724095147922025010200537+40277-074816FM-15+0065KTTN V0202905N007252200059N0160935N5+00505-00335100775ADDAA101000095GA1005+999999999GD10991+9999999GF100991999999999999999999MA1100815100045OC101245OD149901491280REMMET11401/01/25 19:53:01 METAR KTTN 020053Z 29014G24KT 10SM CLR 05/M03 A2977 RMK AO2 PK WND 28029/0015 SLP077 T00501033 $
0231724095147922025010201537+40277-074816FM-15+0065KTTN V0202705N005152200059N0160935N5+00395-00285100845ADDAA101000095GA1005+999999999GD10991+9999999GF100991999999999999999999MA1100885100105OC101185OD149901331270REMMET11401/01/25 20:53:01 METAR KTTN 020153Z 27010G23KT 10SM CLR 04/M03 A2979 RMK AO2 PK WND 27026/0140 SLP084 T00391028 $
0219724095147922025010202537+40277-074816FM-15+0065KTTN V0202705N005152200059N0160935N5+00395-00335100925ADDAA101000095GA1005+999999999GD10991+9999999GF100991999999999999999999MA1100985100215MD1190249+9999OC100935REMMET10201/01/25 21:53:01 METAR KTTN 020253Z 27010G18KT 10SM CLR 04/M03 A2982 RMK AO2 SLP092 T00391033 51024 $
0199724095147922025010203537+40277-074816FM-15+0065KTTN V0202705N005152200059N0160935N5+00335-00335100965ADDAA101000095GA1005+999999999GD10991+9999999GF100991999999999999999999MA1101025100245OC100985REMMET09601/01/25 22:53:02 METAR KTTN 020353Z 27010G19KT 10SM CLR 03/M03 A2983 RMK AO2 SLP096 T00331033 $
0235724095147922025010204537+40277-074816FM-15+0065KTTN V0202605N005752200059N0160935N5+00285-00335100975ADDAA101000095GA1005+999999999GD10991+9999999GF100991999999999999999999KA1240M+00891KA2240N+00281MA1101025100245OC101085REMMET10601/01/25 23:53:02 METAR KTTN 020453Z 26011G21KT 10SM CLR 03/M03 A2983 RMK AO2 SLP097 T00281033 400890028 $
0910724095147922025010204596+40277-074816SOD  +0065KTTN V020999999999999999999999999999+99999+99999999999ADDAA124000025AT1AU16RA  5AT2AU13BR  5KA1240M+00895KA2240N+00285MG1099394099734OE11240196726014515OE22240111827014515OE33240052399999995REMSOD73024 HR PRECIPITATION (IN):T     24 HR MAX TEMP (F):48 24 HR MAX TEMP TIME (LST):0034 24 HR MIN TEMP (F):37 24 HR MIN TEMP TIME (LST):2359 AVERAGE STATION PRESSURE:29.350 MINIMUM SEA LEVEL PRESSURE:29.45 TIME OF OCCURRENCE:0135 PEAK WIND SPEED (MPH):44  PEAK WIND DIR (DEG):260 PEAK WIND TIME (LST):1451  FASTEST 2MIN SPEED (MPH):25 FASTEST 2MIN DIR (DEG):270 FASTEST 2MIN TIME (LST):1451 AVERAGE WIND SPEED (MPH):11.7 24 HR AVG TEMP (F):43 HEATING DEGREE DAYS:22  COOLING DEGREE DAYS:0   LATEST DAY MAX TEMP (0700-1900 LST):47  LATEST NIGHT MIN TEMP(1900-0800 LST):42 HOURLY INCREMENTAL PRECIPITATION VALUES (IN):    T    T    T    T    T    0.00 0.00 0.00 0.00 0.00 T    T    T    0.00 0.00 0.00 0.00 0.00 0.00 0.00 0.00 0.00 0.00EQDR01     N7GJS072R02     N7GKS075
0257724095147922025010205537+40277-074816FM-15+0065KTTN V0202705N006252200059N0160935N5+00285-00335100995ADDAA101000095GA1005+999999999GD10991+9999999GF100991999999999999999999KA1060M+00561KA2060N+00281MA1101055100275MD1190079+9999OC101135REMMET11401/02/25 00:53:02 METAR KTTN 020553Z 27012G22KT 10SM CLR 03/M03 A2984 RMK AO2 SLP099 T00281033 10056 20028 51007 $
0232724095147922025010206537+40277-074816FM-15+0065KTTN V0202505N003652200059N0160935N5+00285-00335101075ADDAA101000095GA1025+016765999GD11991+0167659GE19AGL   +99999+99999GF102995999999016761999999MA1101125100345REMMET09601/02/25 01:53:02 METAR KTTN 020653Z 25007KT 10SM FEW055 03/M03 A2986 RMK AO2 SLP107 T00281033 $EQDD01      0ADE726
0256724095147922025010207537+40277-074816FM-15+0065KTTN V0202805N00625018295MN0160935N5+00285-00565101175ADDAA101000095GA1075+018295999GD13991+0182959GE19AGL   +99999+99999GF199999999999018291999999MA1101225100445OC101395OD149901391250REMMET11701/02/25 02:53:02 METAR KTTN 020753Z 28012G27KT 10SM BKN060 03/M06 A2989 RMK AO2 PK WND 25027/0748 SLP117 T00281056 $
0276724095147922025010208537+40277-074816FM-15+0065KTTN V0202705N00515016765MN0160935N5+00175-00615101205ADDAA101000095GA1075+016765999GD13991+0167659GE19AGL   +99999+99999GF199999999999016761999999MA1101255100475MD1190209+9999OC101245OD149901441260REMMET12301/02/25 03:53:02 METAR KTTN 020853Z 27010G24KT 10SM BKN055 02/M06 A2990 RMK AO2 PK WND 26028/0812 SLP120 T00171061 51020 $
0256724095147922025010209537+40277-074816FM-15+0065KTTN V0202705N00575016765MN0160935N5+00175-00675101265ADDAA101000095GA1075+016765999GD13991+0167659GE19AGL   +99999+99999GF199999999999016761999999MA1101325100545OC101135OD149901331260REMMET11701/02/25 04:53:02 METAR KTTN 020953Z 27011G22KT 10SM BKN055 02/M07 A2992 RMK AO2 PK WND 26026/0919 SLP126 T00171067 $
0224724095147922025010210537+40277-074816FM-15+0065KTTN V0202605N00675014025MN0160935N5+00175-00615101355ADDAA101000095GA1085+014025999GD14991+0140259GE19AGL   +99999+99999GF199999999999014021999999MA1101395100615OC101135REMMET09901/02/25 05:53:02 METAR KTTN 021053Z 26013G22KT 10SM OVC046 02/M06 A2994 RMK AO2 SLP135 T00171061 $
0286724095147922025010211537+40277-074816FM-15+0065KTTN V0202705N004652200059N0160935N5+00115-00675101365ADDAA101000095GA1045+014025999GD12991+0140259GE19AGL   +99999+99999GF104995999999014021999999KA1060M+00331KA2060N+00111MA1101425100645OC101135REMMET11601/02/25 06:53:02 METAR KTTN 021153Z 27009G22KT 10SM SCT046 01/M07 A2995 RMK AO2 SLP136 T00111067 10033 20011 $ (EE)EQDD01      0ADE726
0204724095147922025010212537+40277-074816FM-15+0065KTTN V0202605N005752200059N0160935N5+00115-00615101415ADDAA101000095GA1005+999999999GD10991+9999999GF100991999999999999999999MA1101465100685OC101085REMMET10101/02/25 07:53:02 METAR KTTN 021253Z 26011G21KT 10SM CLR 01/M06 A2996 RMK AO2 SLP141 T00111061 $ (EE)
0204724095147922025010213537+40277-074816FM-15+0065KTTN V0202605N005752200059N0160935N5+00225-00615101525ADDAA101000095GA1005+999999999GD10991+9999999GF100991999999999999999999MA1101565100785OC101035REMMET10101/02/25 08:53:02 METAR KTTN 021353Z 26011G20KT 10SM CLR 02/M06 A2999 RMK AO2 SLP152 T00221061 $ (EE)
0361724095147922025010214537+40277-074816FM-15+0065KTTN V0202905N008852200059N0160935N5+00335-00615101575ADDAA101000025AA203000021GA1025+014635999GD11991+0146359GE19AGL   +99999+99999GF102995999999014631999999MA1101635100845MD1190229+9999OC101445OD149901441300REMMET14601/02/25 09:53:02 METAR KTTN 021453Z 29017G28KT 10SM FEW048 03/M06 A3001 RMK AO2 PK WND 30028/1452 SNB52 SLP157 P0000 60000 T00331061 51022 $ (JM)EQDQ01  00002PRCP03Q02  00008PRCP03D01      0ADE726
0294724095147922025010215537+40277-074816FM-15+0065KTTN V0202805N008852200059N0160935N5+00445-00615101575ADDAA101000095GA1045+014945999GD12991+0149459GE19AGL   +99999+99999GF104995999999014941999999MA1101635100845OC101495OD149901541290REMMET13601/02/25 10:53:02 METAR KTTN 021553Z 28017G29KT 10SM SCT049 04/M06 A3001 RMK AO2 PK WND 29030/1537 SNE1457 SLP157 P0000 T00441061 $ (JM)EQDD01      0ADE726
0280724095147922025010216537+40277-074816FM-15+0065KTTN V0202905N006252200059N0160935N5+00505-00675101495ADDAA101000095GA1045+015245999GD12991+0152459GE19AGL   +99999+99999GF104995999999015241999999MA1101525100745OC101395OD149901541260REMMET12201/02/25 11:53:02 METAR KTTN 021653Z 29012G27KT 10SM SCT050 05/M07 A2998 RMK AO2 PK WND 26030/1603 SLP149 T00501067 $ (JM)EQDD01      0ADE726
0336724095147922025010217537+40277-074816FM-15+0065KTTN V0202905N00935016765MN0160935N5+00445-00725101465ADDAA101000095AA206000021GA1075+016765999GD13991+0167659GE19AGL   +99999+99999GF199999999999016761999999KA1060M+00501KA2060N+00111MA1101525100745MD1890119+9999OC101545OD149901541300REMMET14601/02/25 12:53:02 METAR KTTN 021753Z 29018G30KT 10SM BKN055 04/M07 A2998 RMK AO2 PK WND 30030/1752 SLP146 60000 T00441072 10050 20011 58011 $ (JM)
0261724095147922025010218537+40277-074816FM-15+0065KTTN V0202705N00825016765MN0160935N5+00335-00835101485ADDAA101000095GA1075+016765999GD13991+0167659GE19AGL   +99999+99999GF199999999999016761999999MA1101525100745OC101495OD149901591260REMMET12201/02/25 13:53:02 METAR KTTN 021853Z 27016G29KT 10SM BKN055 03/M08 A2998 RMK AO2 PK WND 26031/1806 SLP148 T00331083 $ (BC)
0261724095147922025010219537+40277-074816FM-15+0065KTTN V0202705N00825018295MN0160935N5+00335-00945101515ADDAA101000095GA1085+018295999GD14991+0182959GE19AGL   +99999+99999GF199999999999018291999999MA1101565100785OC101345OD149901541260REMMET12201/02/25 14:53:02 METAR KTTN 021953Z 27016G26KT 10SM OVC060 03/M09 A2999 RMK AO2 PK WND 26030/1914 SLP151 T00331094 $ (BC)
0281724095147922025010220537+40277-074816FM-15+0065KTTN V0202805N00775018295MN0160935N5+00285-00895101555ADDAA101000095GA1085+018295999GD14991+0182959GE19AGL   +99999+99999GF199999999999018291999999MA1101595100815MD1390079+9999OC101245OD149901591250REMMET12801/02/25 15:53:02 METAR KTTN 022053Z 28015G24KT 10SM OVC060 03/M09 A3000 RMK AO2 PK WND 25031/2011 SLP155 T00281089 53007 $ (BC)
0229724095147922025010221537+40277-074816FM-15+0065KTTN V0202705N00515018295MN0160935N5+00225-00895101575ADDAA101000095GA1075+018295999GD13991+0182959GE19AGL   +99999+99999GF199999999999018291999999MA1101595100815OC101245REMMET10401/02/25 16:53:02 METAR KTTN 022153Z 27010G24KT 10SM BKN060 02/M09 A3000 RMK AO2 SLP157 T00221089 $ (BC)
0204724095147922025010222537+40277-074816FM-15+0065KTTN V0202705N005152200059N0160935N5+00115-00785101615ADDAA101000095GA1005+999999999GD10991+9999999GF100991999999999999999999MA1101665100885OC101135REMMET10101/02/25 17:53:02 METAR KTTN 022253Z 27010G22KT 10SM CLR 01/M08 A3002 RMK AO2 SLP161 T00111078 $ (RF)
0338724095147922025010223537+40277-074816FM-15+0065KTTN V0202705N006752200059N0160935N5+00115-00895101625ADDAA101000095GA1045+018295999GD12991+0182959GE19AGL   +99999+99999GF104995999999018291999999KA1060M+00441KA2060N+00111MA1101665100885MD1190079+9999OC101245OD149901591260REMMET14001/02/25 18:53:02 METAR KTTN 022353Z 27013G24KT 10SM SCT060 01/M09 A3002 RMK AO2 PK WND 26031/2320 SLP162 T00111089 10044 20011 51007 $ (RF)EQDD01      0ADE726
0224724095147922025010300537+40277-074816FM-15+0065KTTN V0202605N00515018295MN0160935N5+00065-00835101675ADDAA101000095GA1075+018295999GD13991+0182959GE19AGL   +99999+99999GF199999999999018291999999MA1101735100955OC100985REMMET09901/02/25 19:53:01 METAR KTTN 030053Z 26010G19KT 10SM BKN060 01/M08 A3004 RMK AO2 SLP167 T00061083 $
0243724095147922025010301537+40277-074816FM-15+0065KTTN V0202705N004152200059N0160935N5+00005-00835101665ADDAA101000095GA1025+018295999GD11991+0182959GE19AGL   +99999+99999GF102995999999018291999999MA1101695100915OC100935REMMET09901/02/25 20:53:01 METAR KTTN 030153Z 27008G18KT 10SM FEW060 00/M08 A3003 RMK AO2 SLP166 T00001083 $EQDD01      0ADE726
0219724095147922025010302537+40277-074816FM-15+0065KTTN V0202605N004652200059N0160935N5+00005-00895101645ADDAA101000095GA1005+999999999GD10991+9999999GF100991999999999999999999MA1101695100915MD1090019+9999OC100935REMMET10201/02/25 21:53:01 METAR KTTN 030253Z 26009G18KT 10SM CLR 00/M09 A3003 RMK AO2 SLP164 T00001089 50001 $
0243724095147922025010303537+40277-074816FM-15+0065KTTN V0202705N007252200059N0160935N5+00005-01005101625ADDAA101000095GA1025+018295999GD11991+0182959GE19AGL   +99999+99999GF102995999999018291999999MA1101665100885OC101185REMMET09901/02/25 22:53:02 METAR KTTN 030353Z 27014G23KT 10SM FEW060 00/M10 A3002 RMK AO2 SLP162 T00001100 $EQDD01      0ADE726
0224724095147922025010304537+40277-074816FM-15+0065KTTN V0209999N999992200059N0160935N5+00005-01065101625ADDAA101000095GA1005+999999999GD10991+9999999GF100991999999999999999999KA1240M+00501KA2240N-00061MA1101665100885REMMET10301/02/25 23:53:02 METAR KTTN 030453Z      KT 10SM CLR 00/M11 A3002 RMK AO2 SLP162 T00001106 400501006 $
0886724095147922025010304596+40277-074816SOD  +0065KTTN V020999999999999999999999999999+99999+99999999999ADDAA124000025KA1240M+00505KA2240N-00055MG1100614100984OE11240160925015115OE22240107326014225OE33240063099999995REMSOD73024 HR PRECIPITATION (IN):T     24 HR MAX TEMP (F):41 24 HR MAX TEMP TIME (LST):1249 24 HR MIN TEMP (F):31 24 HR MIN TEMP TIME (LST):2139 AVERAGE STATION PRESSURE:29.710 MINIMUM SEA LEVEL PRESSURE:29.82 TIME OF OCCURRENCE:0054 PEAK WIND SPEED (MPH):36  PEAK WIND DIR (DEG):250 PEAK WIND TIME (LST):1511  FASTEST 2MIN SPEED (MPH):24 FASTEST 2MIN DIR (DEG):260 FASTEST 2MIN TIME (LST):1422 AVERAGE WIND SPEED (MPH):14.1 24 HR AVG TEMP (F):36 HEATING DEGREE DAYS:29  COOLING DEGREE DAYS:0   LATEST DAY MAX TEMP (0700-1900 LST):41  LATEST NIGHT MIN TEMP(1900-0800 LST):34 HOURLY INCREMENTAL PRECIPITATION VALUES (IN):.00 0.00 0.00 0.00 0.00 0.00 0.00 0.00 0.00 T    0.00 0.00 0.00 0.00 0.00 0.00 0.00 0.00 0.00 0.00 0.00 0.00 0.00 0.00EQDR01     N7GJS072R02     N7GKS075
0282724095147922025010305537+40277-074816FM-15+0065KTTN V0202705N00465016765MN0160935N5+00005-01005101615ADDAA101000095GA1085+016765999GD14991+0167659GE19AGL   +99999+99999GF199999999999016761999999KA1060M+00111KA2060N-00061MA1101665100885MD1690029+9999OC100825REMMET11701/03/25 00:53:02 METAR KTTN 030553Z 27009G16KT 10SM OVC055 00/M10 A3002 RMK AO2 SLP161 T00001100 10011 21006 56002 $
0243724095147922025010306537+40277-074816FM-15+0065KTTN V0202705N005152200059N0160935N5+00005-00945101625ADDAA101000095GA1025+015245999GD11991+0152459GE19AGL   +99999+99999GF102995999999015241999999MA1101665100885OC100825REMMET09901/03/25 01:53:02 METAR KTTN 030653Z 27010G16KT 10SM FEW050 00/M09 A3002 RMK AO2 SLP162 T00001094 $EQDD01      0ADE726
0214724095147922025010307537+40277-074816FM-15+0065KTTN V0202505N00415015245MN0160935N5-00065-00895101655ADDAA101000095GA1085+015245999GD14991+0152459GE19AGL   +99999+99999GF199999999999015241999999MA1101695100915REMMET09701/03/25 02:53:02 METAR KTTN 030753Z 25008KT 10SM OVC050 M01/M09 A3003 RMK AO2 SLP165 T10061089 $
0253724095147922025010308537+40277-074816FM-15+0065KTTN V0202605N00465015245MN0160935N5-00065-00895101615ADDAA101000095GA1085+015245999GD14991+0152459GE19AGL   +99999+99999GF199999999999015241999999MA1101665100885MD1890009+9999REMMET10301/03/25 03:53:02 METAR KTTN 030853Z 26009KT 10SM OVC050 M01/M09 A3002 RMK AO2 SLP161 T10061089 58000 $EQDQ018     3APCTEN
0244724095147922025010309537+40277-074816FM-15+0065KTTN V0202805N004152200059N0160935N5-00065-00895101575ADDAA101000095GA1025+015245999GD11991+0152459GE19AGL   +99999+99999GF102995999999015241999999MA1101635100845OC100775REMMET10001/03/25 04:53:02 METAR KTTN 030953Z 28008G15KT 10SM FEW050 M01/M09 A3001 RMK AO2 SLP157 T10061089 $EQDD01      0ADE726
0194724095147922025010310537+40277-074816FM-15+0065KTTN V0202605N002652200059N0160935N5-00115-00895101565ADDAA101000095GA1005+999999999GD10991+9999999GF100991999999999999999999MA1101595100815REMMET09901/03/25 05:53:02 METAR KTTN 031053Z 26005KT 10SM CLR M01/M09 A3000 RMK AO2 SLP156 T10111089 $ (KJ)
0252724095147922025010311537+40277-074816FM-15+0065KTTN V0202605N002652200059N0160935N5-00115-00895101545ADDAA101000095GA1005+999999999GD10991+9999999GF100991999999999999999999KA1060M+00061KA2060N-00111MA1101595100815MD1690079+9999REMMET11701/03/25 06:53:02 METAR KTTN 031153Z 26005KT 10SM CLR M01/M09 A3000 RMK AO2 SLP154 T10111089 10006 21011 56007 $ (KJ)
0194724095147922025010312537+40277-074816FM-15+0065KTTN V0202405N002652200059N0160935N5-00175-00895101495ADDAA101000095GA1005+999999999GD10991+9999999GF100991999999999999999999MA1101525100745REMMET09901/03/25 07:53:02 METAR KTTN 031253Z 24005KT 10SM CLR M02/M09 A2998 RMK AO2 SLP149 T10171089 $ (KJ)
0194724095147922025010313537+40277-074816FM-15+0065KTTN V0202305N002152200059N0160935N5-00175-00835101485ADDAA101000095GA1005+999999999GD10991+9999999GF100991999999999999999999MA1101525100745REMMET09901/03/25 08:53:02 METAR KTTN 031353Z 23004KT 10SM CLR M02/M08 A2998 RMK AO2 SLP148 T10171083 $ (RF)
0224724095147922025010314537+40277-074816FM-15+0065KTTN V0202505N005752200059N0160935N5+00005-00835101475ADDAA101000095GA1005+999999999GD10991+9999999GF100991999999999999999999MA1101525100745MD1690079+9999OC100985REMMET10701/03/25 09:53:02 METAR KTTN 031453Z 25011G19KT 10SM CLR 00/M08 A2998 RMK AO2 SLP147 T00001083 56007 $ (RF)
0204724095147922025010315537+40277-074816FM-15+0065KTTN V0202605N006752200059N0160935N5+00005-00895101375ADDAA101000095GA1005+999999999GD10991+9999999GF100991999999999999999999MA1101425100645OC100935REMMET10101/03/25 10:53:02 METAR KTTN 031553Z 26013G18KT 10SM CLR 00/M09 A2995 RMK AO2 SLP137 T00001089 $ (RF)
0202724095147922025010316537+40277-074816FM-15+0065KTTN V0202405N005152200059N0160935N5+00115-00835101185ADDAA101000095GA1005+999999999GD10991+9999999GF100991999999999999999999MA1101225100445OC100775REMMET09901/03/25 11:53:02 METAR KTTN 031653Z 24010G15KT 10SM CLR 01/M08 A2989 RMK AO2 SLP118 T00111083 (KJ)
0260724095147922025010317537+40277-074816FM-15+0065KTTN V0202705N006252200059N0160935N5+00115-00895101055ADDAA101000095GA1005+999999999GD10991+9999999GF100991999999999999999999KA1060M+00171KA2060N-00171MA1101085100315MD1890429+9999OC100985REMMET11701/03/25 12:53:02 METAR KTTN 031753Z 27012G19KT 10SM CLR 01/M09 A2985 RMK AO2 SLP105 T00111089 10017 21017 58042 (JM)
0191724095147922025010318537+40277-074816FM-15+0065KTTN V0202505N006252200059N0160935N5+00225-00835100955ADDAA101000095GA1005+999999999GD10991+9999999GF100991999999999999999999MA1100985100215REMMET09601/03/25 13:53:02 METAR KTTN 031853Z 25012KT 10SM CLR 02/M08 A2982 RMK AO2 SLP095 T00221083 (JM)
0216724095147922025010319537+40277-074816FM-15+0065KTTN V0202505N00415015245MN0160935N5+00175-00675100905ADDAA101000095GA1075+015245999GD13991+0152459GE19AGL   +99999+99999GF199999999999015241999999MA1100955100175REMMET09901/03/25 14:53:02 METAR KTTN 031953Z 25008KT 10SM BKN050 02/M07 A2981 RMK AO2 SLP090 T00171067 (JM)
0274724095147922025010320537+40277-074816FM-15+0065KTTN V0202505V00365011895MN0160935N5+00115-00615100905ADDAA101000025GA1075+011895999GA2085+015245999GD13991+0118959GD24991+0152459GE19AGL   +99999+99999GF199999999999011891999999MA1100955100175MD1690149+9999REMMET11201/03/25 15:53:02 METAR KTTN 032053Z 25007KT 10SM BKN039 OVC050 01/M06 A2981 RMK AO2 SLP090 T00111061 56014 (JM)
0291724095147922025010321257+40277-074816FM-16+0065KTTN V0202505N00365007925MN0040235N5+00005-00395999999ADDAA101000021AU110030015AW1715GA1075+007925999GA2085+011285999GD13991+0079259GD24991+0112859GE19AGL   +99999+99999GF199999999999007921999999MA1100985100215MW1715REMMET12001/03/25 16:25:02 SPECI KTTN 032125Z 25007KT 2 1/2SM -SN BKN026 OVC037 00/M04 A2982 RMK AO2 SNB2055 P0000 T00001039 (JM)
0250724095147922025010321367+40277-074816FM-16+0065KTTN V0202505N00315006715MN0016095N5-00065-00335999999ADDAA101000021AU110030015AW1715GA1085+006715999GD14991+0067159GE19AGL   +99999+99999GF199999999999006711999999MA1101025100245MW1715REMMET11001/03/25 16:36:02 SPECI KTTN 032136Z 25006KT 1SM -SN OVC022 M01/M03 A2983 RMK AO2 SNB2055 P0000 T10061033 (JM)
0281724095147922025010321537+40277-074816FM-15+0065KTTN V0202705N00315004885MN0024145N5-00065-00285100975ADDAA101000025AU110030015AU200001015AW1105AW2715GA1085+004885999GD14991+0048859GE19AGL   +99999+99999GF199999999999004881999999MA1101025100245MW1715REMMET12401/03/25 16:53:02 METAR KTTN 032153Z 27006KT 1 1/2SM -SN BR OVC016 M01/M03 A2983 RMK AO2 SNB2055 SLP097 P0000 T10061028 (JM)
0338724095147922025010322227+40277-074816FM-16+0065KTTN V0202905N00215005185MN0032195N5-00115-00225999999ADDAA101000021AU110030015AU200001015AW1105AW2715GA1025+001835999GA2045+003665999GA3085+005185999GD11991+0018359GD22991+0036659GD34991+0051859GE19AGL   +99999+99999GF199999999999001831999999MA1101025100245MW1715REMMET11901/03/25 17:22:02 SPECI KTTN 032222Z 29004KT 2SM -SN BR FEW006 SCT012 OVC017 M01/M02 A2983 RMK AO2 P0000 T10111022 (JM)
0342724095147922025010322267+40277-074816FM-16+0065KTTN V0202905N00265003665MN0028165N5-00115-00175999999ADDAA101000021AU110030015AU200001015AW1105AW2715GA1045+001835999GA2075+003665999GA3085+005185999GD12991+0018359GD23991+0036659GD34991+0051859GE19AGL   +99999+99999GF199999999999001831999999MA1101025100245MW1715REMMET12301/03/25 17:26:02 SPECI KTTN 032226Z 29005KT 1 3/4SM -SN BR SCT006 BKN012 OVC017 M01/M02 A2983 RMK AO2 P0000 T10111017 (JM)
0342724095147922025010322437+40277-074816FM-16+0065KTTN V0202905N00265005795MN0028165N5-00115-00175999999ADDAA101000021AU110030015AU200001015AW1105AW2715GA1045+001835999GA2045+003665999GA3085+005795999GD12991+0018359GD22991+0036659GD34991+0057959GE19AGL   +99999+99999GF199999999999001831999999MA1101025100245MW1715REMMET12301/03/25 17:43:02 SPECI KTTN 032243Z 29005KT 1 3/4SM -SN BR SCT006 SCT012 OVC019 M01/M02 A2983 RMK AO2 P0000 T10111017 (JM)
0236724095147922025010322516+40277-074816FM-16+0065KTTN V0202905N00215007015MN0032195N5-00105-00205999999ADDAU110030015AU200001015AW1105AW2715GA1025+001525999GA2085+007015999GD11991+0015259GD24991+0070159MA1101025100245MW1715REMMET10701/03/25 17:51:02 SPECI KTTN 032251Z 29004KT 2SM -SN BR FEW005 OVC023 M01/M02 A2983 RMK AO2 P0000 FIBI (JM)
0311724095147922025010322537+40277-074816FM-15+0065KTTN V0203005N00265007015MN0040235N5-00115-00225100985ADDAA101000025AU110030015AU200001015AW1105AW2715GA1025+001525999GA2085+007015999GD11991+0015259GD24991+0070159GE19AGL   +99999+99999GF199999999999001521999999MA1101025100245MW1715REMMET12301/03/25 17:53:02 METAR KTTN 032253Z 30005KT 2 1/2SM -SN BR FEW005 OVC023 M01/M02 A2983 RMK AO2 SLP098 P0000 T10111022 (JM)
0300724095147922025010323097+40277-074816FM-16+0065KTTN V0203005N00215007625MN0048285N5-00115-00175999999ADDAA101000021AU110030015AU200001015AW1105AW2715GA1025+001525999GA2085+007625999GD11991+0015259GD24991+0076259GE19AGL   +99999+99999GF199999999999001521999999MA1101025100245MW1715REMMET11201/03/25 18:09:02 SPECI KTTN 032309Z 30004KT 3SM -SN BR FEW005 OVC025 M01/M02 A2983 RMK AO2 P0000 T10111017 (JM)
0298724095147922025010323307+40277-074816FM-16+0065KTTN V0202505N001552200059N0096565N5-00115-00225999999ADDAA101000021AU100001015AW1105GA1025+002135999GA2045+006105999GD11991+0021359GD22991+0061059GE19AGL   +99999+99999GF104995999999002131999999MA1100985100215REMMET11401/03/25 18:30:02 SPECI KTTN 032330Z 25003KT 6SM BR FEW007 SCT020 M01/M02 A2982 RMK AO2 SNE21 P0000 T10111022 (JM)EQDD01      0ADE726
0396724095147922025010323537+40277-074816FM-15+0065KTTN V0202505N001552200059N0096565N5-00175-00225100945ADDAA101000025AA206000021AU100001015AW1105GA1025+002135999GA2045+019815999GD11991+0021359GD22991+0198159GE19AGL   +99999+99999GF104995999999002131999999KA1060M+00281KA2060N-00171MA1100985100215MD1090049+9999REMMET14501/03/25 18:53:02 METAR KTTN 032353Z 25003KT 6SM BR FEW007 SCT065 M02/M02 A2982 RMK AO2 SNE21 SLP094 P0000 60000 T10171022 10028 21017 50004 (JM)EQDQ01  00008PRCP06D01      0ADE726
0211724095147922025010400537+40277-074816FM-15+0065KTTN V0202605N00215033535MN0144845N5-00175-00285100935ADDAA101000095GA1075+033535999GD13991+0335359GE19AGL   +99999+99999GF199999999999033531999999MA1100985100215REMMET09401/03/25 19:53:01 METAR KTTN 040053Z 26004KT 9SM BKN110 M02/M03 A2982 RMK AO2 SLP093 T10171028
0186724095147922025010401537+40277-074816FM-15+0065KTTN V0202805N002152200059N0128755N5-00225-00335100925ADDAA101000095GA1005+999999999GD10991+9999999GF100991999999999999999999MA1100955100175REMMET09101/03/25 20:53:01 METAR KTTN 040153Z 28004KT 8SM CLR M02/M03 A2981 RMK AO2 SLP092 T10221033
0226724095147922025010402537+40277-074816FM-15+0065KTTN V0202805N002152200059N0096565N5-00285-00395100895ADDAA101000095AU100001015AW1105GA1005+999999999GD10991+9999999GF100991999999999999999999MA1100955100175MD1890059+9999REMMET10001/03/25 21:53:01 METAR KTTN 040253Z 28004KT 6SM BR CLR M03/M04 A2981 RMK AO2 SLP089 T10281039 58005
0186724095147922025010403537+40277-074816FM-15+0065KTTN V0202805N003152200059N0144845N5-00285-00445100905ADDAA101000095GA1005+999999999GD10991+9999999GF100991999999999999999999MA1100955100175REMMET09101/03/25 22:53:02 METAR KTTN 040353Z 28006KT 9SM CLR M03/M04 A2981 RMK AO2 SLP090 T10281044
0223724095147922025010404537+40277-074816FM-15+0065KTTN V0202905N003652200059N0160935N5-00285-00565100885ADDAA101000095GA1005+999999999GD10991+9999999GF100991999999999999999999KA1240M+00281KA2240N-00281MA1100915100145REMMET10201/03/25 23:53:02 METAR KTTN 040453Z 29007KT 10SM CLR M03/M06 A2980 RMK AO2 SLP088 T10281056 400281028
0910724095147922025010404596+40277-074816SOD  +0065KTTN V020999999999999999999999999999+99999+99999999999ADDAA124000025AT1AU18SN  5AT2AU13BR  5KA1240M+00285KA2240N-00275MG1100544100884OE11240107330000155OE22240076025010075OE33240037699999995REMSOD73024 HR PRECIPITATION (IN):T     24 HR MAX TEMP (F):37 24 HR MAX TEMP TIME (LST):1430 24 HR MIN TEMP (F):27 24 HR MIN TEMP TIME (LST):2355 AVERAGE STATION PRESSURE:29.690 MINIMUM SEA LEVEL PRESSURE:29.79 TIME OF OCCURRENCE:2359 PEAK WIND SPEED (MPH):24  PEAK WIND DIR (DEG):300 PEAK WIND TIME (LST):0015  FASTEST 2MIN SPEED (MPH):17 FASTEST 2MIN DIR (DEG):250 FASTEST 2MIN TIME (LST):1007 AVERAGE WIND SPEED (MPH):8.4  24 HR AVG TEMP (F):32 HEATING DEGREE DAYS:33  COOLING DEGREE DAYS:0   LATEST DAY MAX TEMP (0700-1900 LST):37  LATEST NIGHT MIN TEMP(1900-0800 LST):29 HOURLY INCREMENTAL PRECIPITATION VALUES (IN):.00 0.00 0.00 0.00 0.00 0.00 0.00 0.00 0.00 0.00 0.00 0.00 0.00 0.00 0.00 T    T    T    T    0.00 0.00 0.00 0.00 0.00EQDR01     N7GJS072R02     N7GKS075
0289724095147922025010405537+40277-074816FM-15+0065KTTN V0202805N004152200059N0160935N5-00225-00725100865ADDAA101000095GA1045+013725999GD12991+0137259GE19AGL   +99999+99999GF104995999999013721999999KA1060M-00171KA2060N-00281MA1100915100145MD1890039+9999REMMET11301/04/25 00:53:02 METAR KTTN 040553Z 28008KT 10SM SCT045 M02/M07 A2980 RMK AO2 SLP086 T10221072 11017 21028 58003EQDD01      0ADE726
0212724095147922025010406537+40277-074816FM-15+0065KTTN V0202805N00365018295MN0160935N5-00225-00785100905ADDAA101000095GA1075+018295999GD13991+0182959GE19AGL   +99999+99999GF199999999999018291999999MA1100955100175REMMET09501/04/25 01:53:02 METAR KTTN 040653Z 28007KT 10SM BKN060 M02/M08 A2981 RMK AO2 SLP090 T10221078
0212724095147922025010407537+40277-074816FM-15+0065KTTN V0209999N99999018295MN0160935N5-00225-00835100925ADDAA101000095GA1085+018295999GD14991+0182959GE19AGL   +99999+99999GF199999999999018291999999MA1100955100175REMMET09501/04/25 02:53:02 METAR KTTN 040753Z      KT 10SM OVC060 M02/M08 A2981 RMK AO2 SLP092 T10221083
0281724095147922025010408537+40277-074816FM-15+0065KTTN V0202905N00575016765MN0160935N5-00225-00835100975ADDAA101000095GA1045+013725999GA2085+016765999GD12991+0137259GD24991+0167659GE19AGL   +99999+99999GF199999999999013721999999MA1101025100245MD1390129+9999OC101035REMMET11101/04/25 03:53:02 METAR KTTN 040853Z 29011G20KT 10SM SCT045 OVC055 M02/M08 A2983 RMK AO2 SLP097 T10221083 53012
0187724095147922025010409537+40277-074816FM-15+0065KTTN V0202805N003652200059N0160935N5-00225-00835101035ADDAA101000095GA1005+999999999GD10991+9999999GF100991999999999999999999MA1101085100315REMMET09201/04/25 04:53:02 METAR KTTN 040953Z 28007KT 10SM CLR M02/M08 A2985 RMK AO2 SLP103 T10221083
0192724095147922025010410537+40277-074816FM-15+0065KTTN V0202805N005152200059N0160935N5-00225-00895101105ADDAA101000095GA1005+999999999GD10991+9999999GF100991999999999999999999MA1101155100375REMMET09701/04/25 05:53:02 METAR KTTN 041053Z 28010KT 10SM CLR M02/M09 A2987 RMK AO2 SLP110 T10221089 (KJ)
0250724095147922025010411537+40277-074816FM-15+0065KTTN V0202905N004152200059N0160935N5-00285-00945101165ADDAA101000095GA1005+999999999GD10991+9999999GF100991999999999999999999KA1060M-00171KA2060N-00281MA1101225100445MD1290199+9999REMMET11501/04/25 06:53:02 METAR KTTN 041153Z 29008KT 10SM CLR M03/M09 A2989 RMK AO2 SLP116 T10281094 11017 21028 52019 (KJ)
0247724095147922025010412537+40277-074816FM-15+0065KTTN V0209999V003152200059N0160935N5-00285-01005101205ADDAA101000095GA1025+015245999GD11991+0152459GE19AGL   +99999+99999GF102995999999015241999999MA1101255100475OC100935REMMET10301/04/25 07:53:02 METAR KTTN 041253Z VRB06G18KT 10SM FEW050 M03/M10 A2990 RMK AO2 SLP120 T10281100 (KJ)EQDD01      0ADE726
0241724095147922025010413537+40277-074816FM-15+0065KTTN V0202805N005152200059N0144845N5-00175-01065101275ADDAA101000025AU110030015AW1715GA1005+999999999GD10991+9999999GF100991999999999999999999MA1101325100545MW1715OC101295REMMET11501/04/25 08:53:02 METAR KTTN 041353Z 28010G25KT 9SM -SN CLR M02/M11 A2992 RMK AO2 SNB43 SLP127 P0000 T10171106 (KJ)
0316724095147922025010414537+40277-074816FM-15+0065KTTN V0203205N00725015245MN0160935N5-00115-01065101315ADDAA101000095AA203000021GA1085+015245999GD14991+0152459GE19AGL   +99999+99999GF199999999999015241999999MA1101355100585MD1390159+9999OC101295REMMET14701/04/25 09:53:02 METAR KTTN 041453Z 32014G25KT 10SM OVC050 M01/M11 A2993 RMK AO2 PK WND 30026/1429 SNE1357 SLP131 P0000 60000 T10111106 53015 (KJ)EQDQ01  00008PRCP03
0298724095147922025010415537+40277-074816FM-15+0065KTTN V0202905N00725016765MN0144845N5-00115-01225101345ADDAA101000025AU110030015AW1715GA1085+016765999GD14991+0167659GE19AGL   +99999+99999GF199999999999016761999999MA1101395100615MW1715OC101545OD149901541290REMMET13601/04/25 10:53:02 METAR KTTN 041553Z 29014G30KT 9SM -SN OVC055 M01/M12 A2994 RMK AO2 PK WND 29030/1550 SNB24 SLP134 P0000 T10111122 (KJ)
0301724095147922025010416537+40277-074816FM-15+0065KTTN V0202905N00775016765MN0144845N5-00115-01175101275ADDAA101000025AU110030015AW1715GA1085+016765999GD14991+0167659GE19AGL   +99999+99999GF199999999999016761999999MA1101325100545MW1715OC101395OD149901491300REMMET13901/04/25 11:53:02 METAR KTTN 041653Z 29015G27KT 9SM -SN OVC055 M01/M12 A2992 RMK AO2 PK WND 30029/1557 SNE09B40 SLP127 P0000 T10111117 (KJ)
0386724095147922025010417537+40277-074816FM-15+0065KTTN V0202805N00825018295MN0144845N5-00115-01335101255ADDAA101000025AA206000021AU110030015AW1715GA1085+018295999GD14991+0182959GE19AGL   +99999+99999GF199999999999018291999999KA1060M-00061KA2060N-00281MA1101295100515MD1890069+9999MW1715OC101545OD149901541270REMMET15401/04/25 12:53:02 METAR KTTN 041753Z 28016G30KT 9SM -SN OVC060 M01/M13 A2991 RMK AO2 PK WND 27030/1713 SLP125 P0000 60000 T10111133 11006 21028 58006 (KJ)EQDQ01  00008PRCP06
0270724095147922025010418537+40277-074816FM-15+0065KTTN V0203205N00775018295MN0144845N5+00005-01395101205ADDAA101000025GA1085+018295999GD14991+0182959GE19AGL   +99999+99999GF199999999999018291999999MA1101255100475OC101295OD149901491290REMMET13101/04/25 13:53:02 METAR KTTN 041853Z 32015G25KT 9SM OVC060 00/M14 A2990 RMK AO2 PK WND 29029/1820 SNE52 SLP120 P0000 T00001139 (JM)
0275724095147922025010419537+40277-074816FM-15+0065KTTN V0203005N007252200059N0144845N5+00005-01395101255ADDAA101000025GA1045+018295999GD12991+0182959GE19AGL   +99999+99999GF104995999999018291999999MA1101295100515OC101345REMMET13101/04/25 14:53:02 METAR KTTN 041953Z 30014G26KT 9SM SCT060 00/M14 A2991 RMK AO2 PK WND 31030/1935 SNB07 SLP125 P0000 T00001139 (JM)EQDD01      0ADE726
0330724095147922025010420537+40277-074816FM-15+0065KTTN V0203105N005152200059N0160935N5-00115-01445101355ADDAA101000025AA203000021GA1025+019815999GD11991+0198159GE19AGL   +99999+99999GF102995999999019811999999MA1101395100615MD1390109+9999OC101345REMMET14501/04/25 15:53:02 METAR KTTN 042053Z 31010G26KT 10SM FEW065 M01/M14 A2994 RMK AO2 PK WND 29028/2011 SNE43 SLP135 P0000 60000 T10111144 53010 (JM)EQDQ01  00008PRCP03D01      0ADE726
0228724095147922025010421537+40277-074816FM-15+0065KTTN V0203005N00625019815MN0160935N5-00175-01285101435ADDAA101000095GA1085+019815999GD14991+0198159GE19AGL   +99999+99999GF199999999999019811999999MA1101495100715OC101135REMMET10301/04/25 16:53:02 METAR KTTN 042153Z 30012G22KT 10SM OVC065 M02/M13 A2997 RMK AO2 SLP143 T10171128 (JM)
0247724095147922025010422537+40277-074816FM-15+0065KTTN V0203005N006252200059N0160935N5-00285-01115101485ADDAA101000095GA1025+019815999GD11991+0198159GE19AGL   +99999+99999GF102995999999019811999999MA1101525100745OC101085REMMET10301/04/25 17:53:02 METAR KTTN 042253Z 30012G21KT 10SM FEW065 M03/M11 A2998 RMK AO2 SLP148 T10281111 (RF)EQDD01      0ADE726
0303724095147922025010423537+40277-074816FM-15+0065KTTN V0202805N00315018295MN0160935N5-00285-01175101525ADDAA101000095AA206000021GA1075+018295999GD13991+0182959GE19AGL   +99999+99999GF199999999999018291999999KA1060M+00001KA2060N-00281MA1101565100785MD1190179+9999OC100985REMMET12701/04/25 18:53:02 METAR KTTN 042353Z 28006G19KT 10SM BKN060 M03/M12 A2999 RMK AO2 SLP152 60000 T10281117 10000 21028 51017 (RF)
0261724095147922025010500537+40277-074816FM-15+0065KTTN V0202705N00625018295MN0160935N5-00225-01175101575ADDAA101000095GA1045+015245999GA2085+018295999GD12991+0152459GD24991+0182959GE19AGL   +99999+99999GF199999999999015241999999MA1101635100845OC100935REMMET10501/04/25 19:53:01 METAR KTTN 050053Z 27012G18KT 10SM SCT050 OVC060 M02/M12 A3001 RMK AO2 SLP157 T10221117
0288724095147922025010501537+40277-074816FM-15+0065KTTN V0203005N007252200059N0144845N5-00335-01445101605ADDAA101000025GA1025+019815999GD11991+0198159GE19AGL   +99999+99999GF102995999999019811999999MA1101635100845OC101295OD149901441250REMMET13001/04/25 20:53:01 METAR KTTN 050153Z 30014G25KT 9SM FEW065 M03/M14 A3001 RMK AO2 PK WND 25028/0139 SNB41E51 SLP160 P0000 T10331144EQDD01      0ADE726
0260724095147922025010502537+40277-074816FM-15+0065KTTN V0202805N00465016765MN0160935N5-00395-01335101645ADDAA101000095AA203000021GA1075+016765999GD13991+0167659GE19AGL   +99999+99999GF199999999999016761999999MA1101695100915MD1190129+9999OC100935REMMET11001/04/25 21:53:01 METAR KTTN 050253Z 28009G18KT 10SM BKN055 M04/M13 A3003 RMK AO2 SLP164 60000 T10391133 51012
0223724095147922025010503537+40277-074816FM-15+0065KTTN V0202805N00365015245MN0160935N5-00335-01335101665ADDAA101000095GA1085+015245999GD14991+0152459GE19AGL   +99999+99999GF199999999999015241999999MA1101695100915OC100885REMMET09801/04/25 22:53:02 METAR KTTN 050353Z 28007G17KT 10SM OVC050 M03/M13 A3003 RMK AO2 SLP166 T10331133
0234724095147922025010504537+40277-074816FM-15+0065KTTN V0202805N005152200059N0160935N5-00395-01335101635ADDAA101000095GA1005+999999999GD10991+9999999GF100991999999999999999999KA1240M+00001KA2240N-00391MA1101665100885OC101085REMMET10501/04/25 23:53:02 METAR KTTN 050453Z 28010G21KT 10SM CLR M04/M13 A3002 RMK AO2 SLP163 T10391133 400001039
0898724095147922025010504596+40277-074816SOD  +0065KTTN V020999999999999999999999999999+99999+99999999999ADDAA124000025AT1AU18SN  5KA1240M+00005KA2240N-00385MG1100444100854OE11240156529010505OE22240102829012215OE33240055099999995REMSOD73024 HR PRECIPITATION (IN):T     24 HR MAX TEMP (F):32 24 HR MAX TEMP TIME (LST):1457 24 HR MIN TEMP (F):25 24 HR MIN TEMP TIME (LST):2359 AVERAGE STATION PRESSURE:29.660 MINIMUM SEA LEVEL PRESSURE:29.78 TIME OF OCCURRENCE:0124 PEAK WIND SPEED (MPH):35  PEAK WIND DIR (DEG):290 PEAK WIND TIME (LST):1050  FASTEST 2MIN SPEED (MPH):23 FASTEST 2MIN DIR (DEG):290 FASTEST 2MIN TIME (LST):1221 AVERAGE WIND SPEED (MPH):12.3 24 HR AVG TEMP (F):29 HEATING DEGREE DAYS:36  COOLING DEGREE DAYS:0   LATEST DAY MAX TEMP (0700-1900 LST):32  LATEST NIGHT MIN TEMP(1900-0800 LST):27 HOURLY INCREMENTAL PRECIPITATION VALUES (IN):.00 0.00 0.00 0.00 0.00 0.00 0.00 0.00 T    0.00 T    T    T    T    T    T    0.00 0.00 0.00 0.00 T    0.00 0.00 0.00EQDR01     N7GJS072R02     N7GKS075
0333724095147922025010505537+40277-074816FM-15+0065KTTN V0202805V00515016765MN0160935N5-00395-01285101655ADDAA101000095AA206000021GA1085+016765999GD14991+0167659GE19AGL   +99999+99999GF199999999999016761999999KA1060M-00221KA2060N-00391MA1101695100915MD1390009+9999OC100885REMMET12201/05/25 00:53:02 METAR KTTN 050553Z 28010G17KT 10SM OVC055 M04/M13 A3003 RMK AO2 SLP165 60000 T10391128 11022 21039 53000EQDQ010     3APC3  Q023     3APCTEN
0223724095147922025010506537+40277-074816FM-15+0065KTTN V0202705N00365015245MN0160935N5-00395-01225101685ADDAA101000095GA1085+015245999GD14991+0152459GE19AGL   +99999+99999GF199999999999015241999999MA1101735100955OC100825REMMET09801/05/25 01:53:02 METAR KTTN 050653Z 27007G16KT 10SM OVC050 M04/M12 A3004 RMK AO2 SLP168 T10391122
0223724095147922025010507537+40277-074816FM-15+0065KTTN V0202705N00415013725MN0160935N5-00395-01225101715ADDAA101000095GA1085+013725999GD14991+0137259GE19AGL   +99999+99999GF199999999999013721999999MA1101765100985OC100825REMMET09801/05/25 02:53:02 METAR KTTN 050753Z 27008G16KT 10SM OVC045 M04/M12 A3005 RMK AO2 SLP171 T10391122
0251724095147922025010508537+40277-074816FM-15+0065KTTN V0202705N004652200059N0160935N5-00395-01225101675ADDAA101000095GA1045+013725999GD12991+0137259GE19AGL   +99999+99999GF104995999999013721999999MA1101735100955MD1090029+9999REMMET10101/05/25 03:53:02 METAR KTTN 050853Z 27009KT 10SM SCT045 M04/M12 A3004 RMK AO2 SLP167 T10391122 50002EQDD01      0ADE726
0212724095147922025010509537+40277-074816FM-15+0065KTTN V0202605N00415013415MN0160935N5-00395-01225101705ADDAA101000095GA1075+013415999GD13991+0134159GE19AGL   +99999+99999GF199999999999013411999999MA1101735100955REMMET09501/05/25 04:53:02 METAR KTTN 050953Z 26008KT 10SM BKN044 M04/M12 A3004 RMK AO2 SLP170 T10391122
0228724095147922025010510537+40277-074816FM-15+0065KTTN V0202605N00465013115MN0160935N5-00395-01225101775ADDAA101000095GA1085+013115999GD14991+0131159GE19AGL   +99999+99999GF199999999999013111999999MA1101795101015OC100885REMMET10301/05/25 05:53:02 METAR KTTN 051053Z 26009G17KT 10SM OVC043 M04/M12 A3006 RMK AO2 SLP177 T10391122 (KJ)
0286724095147922025010511537+40277-074816FM-15+0065KTTN V0202705N00415014335MN0160935N5-00445-01225101805ADDAA101000095GA1075+014335999GD13991+0143359GE19AGL   +99999+99999GF199999999999014331999999KA1060M-00331KA2060N-00441MA1101835101055MD1390139+9999OC100885REMMET12101/05/25 06:53:02 METAR KTTN 051153Z 27008G17KT 10SM BKN047 M04/M12 A3007 RMK AO2 SLP180 T10441122 11033 21044 53013 (KJ)
0247724095147922025010512537+40277-074816FM-15+0065KTTN V0202705N006252200059N0160935N5-00445-01225101805ADDAA101000095GA1045+012195999GD12991+0121959GE19AGL   +99999+99999GF104995999999012191999999MA1101835101055OC100985REMMET10301/05/25 07:53:02 METAR KTTN 051253Z 27012G19KT 10SM SCT040 M04/M12 A3007 RMK AO2 SLP180 T10441122 (KJ)EQDD01      0ADE726
0228724095147922025010513537+40277-074816FM-15+0065KTTN V0202705N00575013415MN0160935N5-00395-01225101865ADDAA101000095GA1085+013415999GD14991+0134159GE19AGL   +99999+99999GF199999999999013411999999MA1101905101115OC101035REMMET10301/05/25 08:53:02 METAR KTTN 051353Z 27011G20KT 10SM OVC044 M04/M12 A3009 RMK AO2 SLP186 T10391122 (EE)
0255724095147922025010514537+40277-074816FM-15+0065KTTN V0202705N007252200059N0160935N5-00285-01225101885ADDAA101000095GA1005+999999999GD10991+9999999GF100991999999999999999999MA1101935101155MD1390089+9999OC101445OD149901441290REMMET12401/05/25 09:53:02 METAR KTTN 051453Z 27014G28KT 10SM CLR M03/M12 A3010 RMK AO2 PK WND 29028/1448 SLP188 T10281122 53008 (EE)
0235724095147922025010515537+40277-074816FM-15+0065KTTN V0202905N006752200059N0160935N5-00225-01225101825ADDAA101000095GA1005+999999999GD10991+9999999GF100991999999999999999999MA1101865101085OC101135OD149901391300REMMET11801/05/25 10:53:02 METAR KTTN 051553Z 29013G22KT 10SM CLR M02/M12 A3008 RMK AO2 PK WND 30027/1528 SLP182 T10221122 (EE)
0203724095147922025010516537+40277-074816FM-15+0065KTTN V0203005N006252200059N0160935N5-00175-01225101725ADDAA101000095GA1005+999999999GD10991+9999999GF100991999999999999999999MA1101765100985OC101135REMMET10001/05/25 11:53:02 METAR KTTN 051653Z 30012G22KT 10SM CLR M02/M12 A3005 RMK AO2 SLP172 T10171122 (EE)
0328724095147922025010517537+40277-074816FM-15+0065KTTN V0202905N007252200059N0160935N5-00115-01225101675ADDAA101000025AA206000021GA1005+999999999GD10991+9999999GF100991999999999999999999KA1060M-00061KA2060N-00501MA1101735100955MD1690209+9999OC101135REMMET13901/05/25 12:53:02 METAR KTTN 051753Z 29014G22KT 10SM CLR M01/M12 A3004 RMK AO2 SNB35E44 SLP167 P0000 60000 T10111122 11006 21050 56020 (EE)EQDQ01  00002PRCP06Q02  00008PRCP06
0203724095147922025010518537+40277-074816FM-15+0065KTTN V0203005N007252200059N0160935N5-00065-01225101695ADDAA101000095GA1005+999999999GD10991+9999999GF100991999999999999999999MA1101735100955OC101135REMMET10001/05/25 13:53:02 METAR KTTN 051853Z 30014G22KT 10SM CLR M01/M12 A3004 RMK AO2 SLP169 T10061122 (JM)
0203724095147922025010519537+40277-074816FM-15+0065KTTN V0203005N005152200059N0160935N5-00065-01225101705ADDAA101000095GA1005+999999999GD10991+9999999GF100991999999999999999999MA1101735100955OC101185REMMET10001/05/25 14:53:02 METAR KTTN 051953Z 30010G23KT 10SM CLR M01/M12 A3004 RMK AO2 SLP170 T10061122 (JM)
0212724095147922025010520537+40277-074816FM-15+0065KTTN V0202905N004652200059N0160935N5-00065-01225101745ADDAA101000095GA1005+999999999GD10991+9999999GF100991999999999999999999MA1101795101015MD1390079+9999REMMET10301/05/25 15:53:02 METAR KTTN 052053Z 29009KT 10SM CLR M01/M12 A3006 RMK AO2 SLP174 T10061122 53007 (JM)
0192724095147922025010521537+40277-074816FM-15+0065KTTN V0202905N005152200059N0160935N5-00175-01225101775ADDAA101000095GA1005+999999999GD10991+9999999GF100991999999999999999999MA1101835101055REMMET09701/05/25 16:53:02 METAR KTTN 052153Z 29010KT 10SM CLR M02/M12 A3007 RMK AO2 SLP177 T10171122 (JM)
0192724095147922025010522537+40277-074816FM-15+0065KTTN V0202705N003152200059N0160935N5-00225-01225101815ADDAA101000095GA1005+999999999GD10991+9999999GF100991999999999999999999MA1101865101085REMMET09701/05/25 17:53:02 METAR KTTN 052253Z 27006KT 10SM CLR M02/M12 A3008 RMK AO2 SLP181 T10221122 (BC)
0250724095147922025010523537+40277-074816FM-15+0065KTTN V0202605N002652200059N0160935N5-00285-01225101845ADDAA101000095GA1005+999999999GD10991+9999999GF100991999999999999999999KA1060M-00061KA2060N-00281MA1101865101085MD1190099+9999REMMET11501/05/25 18:53:02 METAR KTTN 052353Z 26005KT 10SM CLR M03/M12 A3008 RMK AO2 SLP184 T10281122 11006 21028 51009 (BC)
0187724095147922025010600537+40277-074816FM-15+0065KTTN V0202605N003152200059N0160935N5-00335-01225101845ADDAA101000095GA1005+999999999GD10991+9999999GF100991999999999999999999MA1101865101085REMMET09201/05/25 19:53:01 METAR KTTN 060053Z 26006KT 10SM CLR M03/M12 A3008 RMK AO2 SLP184 T10331122
0187724095147922025010601537+40277-074816FM-15+0065KTTN V0202805N002152200059N0160935N5-00335-01175101815ADDAA101000095GA1005+999999999GD10991+9999999GF100991999999999999999999MA1101865101085REMMET09201/05/25 20:53:01 METAR KTTN 060153Z 28004KT 10SM CLR M03/M12 A3008 RMK AO2 SLP181 T10331117
0207724095147922025010602537+40277-074816FM-15+0065KTTN V0202805N003152200059N0160935N5-00335-01175101825ADDAA101000095GA1005+999999999GD10991+9999999GF100991999999999999999999MA1101865101085MD1590029+9999REMMET09801/05/25 21:53:01 METAR KTTN 060253Z 28006KT 10SM CLR M03/M12 A3008 RMK AO2 SLP182 T10331117 55002
0187724095147922025010603537+40277-074816FM-15+0065KTTN V0202705N002152200059N0160935N5-00335-01175101845ADDAA101000095GA1005+999999999GD10991+9999999GF100991999999999999999999MA1101865101085REMMET09201/05/25 22:53:02 METAR KTTN 060353Z 27004KT 10SM CLR M03/M12 A3008 RMK AO2 SLP184 T10331117
0223724095147922025010604537+40277-074816FM-15+0065KTTN V0202805N002652200059N0160935N5-00395-01115101795ADDAA101000095GA1005+999999999GD10991+9999999GF100991999999999999999999KA1240M-00061KA2240N-00501MA1101835101055REMMET10201/05/25 23:53:02 METAR KTTN 060453Z 28005KT 10SM CLR M04/M11 A3007 RMK AO2 SLP179 T10391111 410061050
0886724095147922025010604596+40277-074816SOD  +0065KTTN V020999999999999999999999999999+99999+99999999999ADDAA124000025KA1240M-00055KA2240N-00495MG1100984101634OE11240143129009485OE22240089430012555OE33240046099999995REMSOD73024 HR PRECIPITATION (IN):T     24 HR MAX TEMP (F):31 24 HR MAX TEMP TIME (LST):1605 24 HR MIN TEMP (F):23 24 HR MIN TEMP TIME (LST):0749 AVERAGE STATION PRESSURE:29.820 MINIMUM SEA LEVEL PRESSURE:30.01 TIME OF OCCURRENCE:0049 PEAK WIND SPEED (MPH):32  PEAK WIND DIR (DEG):290 PEAK WIND TIME (LST):0948  FASTEST 2MIN SPEED (MPH):20 FASTEST 2MIN DIR (DEG):300 FASTEST 2MIN TIME (LST):1255 AVERAGE WIND SPEED (MPH):10.3 24 HR AVG TEMP (F):27 HEATING DEGREE DAYS:38  COOLING DEGREE DAYS:0   LATEST DAY MAX TEMP (0700-1900 LST):31  LATEST NIGHT MIN TEMP(1900-0800 LST):23 HOURLY INCREMENTAL PRECIPITATION VALUES (IN):.00 0.00 0.00 0.00 0.00 0.00 0.00 0.00 0.00 0.00 0.00 0.00 T    0.00 0.00 0.00 0.00 0.00 0.00 0.00 0.00 0.00 0.00 0.00EQDR01     N7GJS072R02     N7GKS075
0245724095147922025010605537+40277-074816FM-15+0065KTTN V0202605N001552200059N0160935N5-00395-01115101725ADDAA101000095GA1005+999999999GD10991+9999999GF100991999999999999999999KA1060M-00281KA2060N-00391MA1101765100985MD1890099+9999REMMET11001/06/25 00:53:02 METAR KTTN 060553Z 26003KT 10SM CLR M04/M11 A3005 RMK AO2 SLP172 T10391111 11028 21039 58009
0187724095147922025010606537+40277-074816FM-15+0065KTTN V0202605N001552200059N0160935N5-00395-01115101735ADDAA101000095GA1005+999999999GD10991+9999999GF100991999999999999999999MA1101765100985REMMET09201/06/25 01:53:02 METAR KTTN 060653Z 26003KT 10SM CLR M04/M11 A3005 RMK AO2 SLP173 T10391111
0187724095147922025010607537+40277-074816FM-15+0065KTTN V0209999C000052200059N0160935N5-00395-01065101685ADDAA101000095GA1005+999999999GD10991+9999999GF100991999999999999999999MA1101735100955REMMET09201/06/25 02:53:02 METAR KTTN 060753Z 00000KT 10SM CLR M04/M11 A3004 RMK AO2 SLP168 T10391106
0251724095147922025010608537+40277-074816FM-15+0065KTTN V0202305N002152200059N0160935N5-00445-01065101595ADDAA101000095GA1025+036585999GD11991+0365859GE19AGL   +99999+99999GF102995999999036581999999MA1101635100845MD1890139+9999REMMET10101/06/25 03:53:02 METAR KTTN 060853Z 23004KT 10SM FEW120 M04/M11 A3001 RMK AO2 SLP159 T10441106 58013EQDD01      0ADE726
0231724095147922025010609537+40277-074816FM-15+0065KTTN V0202505N002652200059N0160935N5-00395-01065101555ADDAA101000095GA1045+030485999GD12991+0304859GE19AGL   +99999+99999GF104995999999030481999999MA1101595100815REMMET09501/06/25 04:53:02 METAR KTTN 060953Z 25005KT 10SM SCT100 M04/M11 A3000 RMK AO2 SLP155 T10391106EQDD01      0ADE726
0217724095147922025010610537+40277-074816FM-15+0065KTTN V0202705N00155027435MN0160935N5-00335-01005101485ADDAA101000095GA1085+027435999GD14991+0274359GE19AGL   +99999+99999GF199999999999027431999999MA1101525100745REMMET10001/06/25 05:53:02 METAR KTTN 061053Z 27003KT 10SM OVC090 M03/M10 A2998 RMK AO2 SLP148 T10331100 (KJ)
0275724095147922025010611537+40277-074816FM-15+0065KTTN V0202705N00215015245MN0160935N5-00335-01005101435ADDAA101000095GA1085+015245999GD14991+0152459GE19AGL   +99999+99999GF199999999999015241999999KA1060M-00331KA2060N-00441MA1101465100685MD1890169+9999REMMET11801/06/25 06:53:02 METAR KTTN 061153Z 27004KT 10SM OVC050 M03/M10 A2996 RMK AO2 SLP143 T10331100 11033 21044 58016 (KJ)
0242724095147922025010612517+40277-074816FM-16+0065KTTN V0202605N00215008235MN0040235N5-00405-00905999999ADDAA101000021AU110030015AW1715GA1085+008235999GD14991+0082359GE19AGL   +99999+99999GF199999999999008231999999MA1101465100685MW1715REMMET10201/06/25 07:51:02 SPECI KTTN 061251Z 26004KT 2 1/2SM -SN OVC027 M04/M09 A2996 RMK AO2 SNB36 P0000 (KJ)
0259724095147922025010612537+40277-074816FM-15+0065KTTN V0202905N00215007625MN0028165N5-00395-00895101405ADDAA101000025AU110030015AW1715GA1085+007625999GD14991+0076259GE19AGL   +99999+99999GF199999999999007621999999MA1101465100685MW1715REMMET11901/06/25 07:53:02 METAR KTTN 061253Z 29004KT 1 3/4SM -SN OVC025 M04/M09 A2996 RMK AO2 SNB36 SLP140 P0000 T10391089 (KJ)
0250724095147922025010613077+40277-074816FM-16+0065KTTN V0209999C00005005495WN0012075N5-00505-00835999999ADDAA101000021AU110030015AW1715GA1095+005495999GD15991+0054959GE19AGL   +99999+99999GF109991999999005491999999MA1101355100585MW1715REMMET11001/06/25 08:07:02 SPECI KTTN 061307Z 00000KT 3/4SM -SN VV018 M05/M08 A2993 RMK AO2 PRESFR P0000 T10501083 (KJ)
0270724095147922025010613537+40277-074816FM-15+0065KTTN V0203505N00155006105WN0012075N5-00505-00725101275ADDAA101000595AU110030015AU200001015AW1105AW2715GA1095+006105999GD15991+0061059GE19AGL   +99999+99999GF109991999999006101999999MA1101325100545MW1715REMMET11301/06/25 08:53:02 METAR KTTN 061353Z 35003KT 3/4SM -SN BR VV020 M05/M07 A2992 RMK AO2 SLP127 P0001 T10501072 (KJ)
0304724095147922025010614267+40277-074816FM-16+0065KTTN V0203605N00155007015MN0020125N5-00505-00615999999ADDAA101000531AU110030015AU200001015AW1105AW2715GA1075+007015999GA2085+009755999GD13991+0070159GD24991+0097559GE19AGL   +99999+99999GF199999999999007011999999MA1101255100475MW1715REMMET11601/06/25 09:26:02 SPECI KTTN 061426Z 36003KT 1 1/4SM -SN BR BKN023 OVC032 M05/M06 A2990 RMK AO2 P0002 T10501061 (KJ)
0199724095147922025010614516+40277-074816FM-16+0065KTTN V0203505N00155005795WN0012075N5-00405-00605999999ADDAU110030015AU200001015AW1105AW2715GA1095+005795999GD15991+0057959MA1101295100515MW1715REMMET10101/06/25 09:51:02 SPECI KTTN 061451Z 35003KT 3/4SM -SN BR VV019 M04/M06 A2991 RMK AO2 P0002 FIBI (EE)
0327724095147922025010614537+40277-074816FM-15+0065KTTN V0209999C00005005495WN0008055N5-00445-00615101245ADDAA101000595AA203000891AU120030015AU208002015AW1355AW2725GA1095+005495999GD15991+0054959GE19AGL   +99999+99999GF109991999999005491999999MA1101295100515MD1890209+9999MW1735REMMET12601/06/25 09:53:02 METAR KTTN 061453Z 00000KT 1/2SM SN FZFG VV018 M04/M06 A2991 RMK AO2 SLP124 P0002 60003 T10441061 58020 (EE)EQDQ01  00078PRCP03
0271724095147922025010615037+40277-074816FM-16+0065KTTN V0200305N00155004275WN0004025N5-00445-00565999999ADDAA101000231AU120030015AU208002015AW1355AW2725GA1095+004275999GD15991+0042759GE19AGL   +99999+99999GF109991999999004271999999MA1101195100415MW1735REMMET11401/06/25 10:03:02 SPECI KTTN 061503Z 03003KT 1/4SM SN FZFG VV014 M04/M06 A2988 RMK AO2 PRESFR P0001 T10441056 (EE)
0264724095147922025010615237+40277-074816FM-16+0065KTTN V0209999C00005003965WN0008055N5-00445-00565999999ADDAA101000731AU120030015AU208002015AW1355AW2725GA1095+003965999GD15991+0039659GE19AGL   +99999+99999GF109991999999003961999999MA1101155100375MW1735REMMET10701/06/25 10:23:02 SPECI KTTN 061523Z 00000KT 1/2SM SN FZFG VV013 M04/M06 A2987 RMK AO2 P0003 T10441056 (EE)
0309724095147922025010615327+40277-074816FM-16+0065KTTN V0200205N00215004885MN0012075N5-00445-00565999999ADDAA101000731AU110030015AU200001015AW1105AW2715GA1025+001525999GA2085+004885999GD11991+0015259GD24991+0048859GE19AGL   +99999+99999GF199999999999001521999999MA1101125100345MW1715REMMET12101/06/25 10:32:02 SPECI KTTN 061532Z 02004KT 3/4SM -SN BR FEW005 OVC016 M04/M06 A2986 RMK AO2 PRESFR P0003 T10441056 (EE)
0304724095147922025010615417+40277-074816FM-16+0065KTTN V0209999V00215006105MN0020125N5-00445-00565999999ADDAA101000731AU110030015AU200001015AW1105AW2715GA1025+001525999GA2085+006105999GD11991+0015259GD24991+0061059GE19AGL   +99999+99999GF199999999999001521999999MA1101125100345MW1715REMMET11601/06/25 10:41:02 SPECI KTTN 061541Z VRB04KT 1 1/4SM -SN BR FEW005 OVC020 M04/M06 A2986 RMK AO2 P0003 T10441056 (EE)
0309724095147922025010615537+40277-074816FM-15+0065KTTN V0203505N00265006105MN0012075N5-00445-00565101085ADDAA101000895AU110030015AU200001015AW1105AW2715GA1025+002135999GA2085+006105999GD11991+0021359GD24991+0061059GE19AGL   +99999+99999GF199999999999002131999999MA1101125100345MW1715REMMET12101/06/25 10:53:02 METAR KTTN 061553Z 35005KT 3/4SM -SN BR FEW007 OVC020 M04/M06 A2986 RMK AO2 SLP108 P0003 T10441056 (EE)
0259724095147922025010616107+40277-074816FM-16+0065KTTN V0203505N00155003665WN0004025N5-00445-00565999999ADDAA101000531AU130030015AU208002015AW1355AW2735GA1095+003665999GD15991+0036659GE19AGL   +99999+99999GF109991999999003661999999MA1101085100315REMMET10801/06/25 11:10:02 SPECI KTTN 061610Z 35003KT 1/4SM +SN FZFG VV012 M04/M06 A2985 RMK AO2 P0002 T10441056 (EE)
0264724095147922025010616237+40277-074816FM-16+0065KTTN V0200105N00155002745WN0004025N5-00395-00445999999ADDAA101000731AU120030015AU208002015AW1355AW2725GA1095+002745999GD15991+0027459GE19AGL   +99999+99999GF109991999999002741999999MA1101025100245MW1735REMMET10701/06/25 11:23:02 SPECI KTTN 061623Z 01003KT 1/4SM SN FZFG VV009 M04/M04 A2983 RMK AO2 P0003 T10391044 (EE)
0264724095147922025010616287+40277-074816FM-16+0065KTTN V0203505N00155003355WN0008055N5-00395-00505999999ADDAA101000731AU120030015AU208002015AW1355AW2725GA1095+003355999GD15991+0033559GE19AGL   +99999+99999GF109991999999003351999999MA1101055100275MW1735REMMET10701/06/25 11:28:02 SPECI KTTN 061628Z 35003KT 1/2SM SN FZFG VV011 M04/M05 A2984 RMK AO2 P0003 T10391050 (EE)
0302724095147922025010616437+40277-074816FM-16+0065KTTN V0209999C00005004885MN0012075N5-00395-00445999999ADDAA101001031AU110030015AU200001015AW1105AW2715GA1075+004885999GA2085+008845999GD13991+0048859GD24991+0088459GE19AGL   +99999+99999GF199999999999004881999999MA1100955100175MW1715REMMET11401/06/25 11:43:02 SPECI KTTN 061643Z 00000KT 3/4SM -SN BR BKN016 OVC029 M04/M04 A2981 RMK AO2 P0004 T10391044 (EE)
0309724095147922025010616537+40277-074816FM-15+0065KTTN V0203305N00155006105MN0012075N5-00395-00505100975ADDAA101000895AU110030015AU200001015AW1105AW2715GA1075+006105999GA2085+009755999GD13991+0061059GD24991+0097559GE19AGL   +99999+99999GF199999999999006101999999MA1101025100245MW1715REMMET12101/06/25 11:53:02 METAR KTTN 061653Z 33003KT 3/4SM -SN BR BKN020 OVC032 M04/M05 A2983 RMK AO2 SLP097 P0004 T10391050 (EE)
0338724095147922025010616597+40277-074816FM-16+0065KTTN V0203405N00155006715MN0016095N5-00395-00505999999ADDAA101000021AU110030015AU200001015AW1105AW2715GA1025+001835999GA2075+006715999GA3085+009455999GD11991+0018359GD23991+0067159GD34991+0094559GE19AGL   +99999+99999GF199999999999001831999999MA1100955100175MW1715REMMET11901/06/25 11:59:02 SPECI KTTN 061659Z 34003KT 1SM -SN BR FEW006 BKN022 OVC031 M04/M05 A2981 RMK AO2 P0000 T10391050 (EE)
0401724095147922025010617537+40277-074816FM-15+0065KTTN V0203405N00265007625MN0016095N5-00395-00505100765ADDAA101000395AA206002891AU110030015AU200001015AW1105AW2715GA1075+007625999GA2085+013415999GD13991+0076259GD24991+0134159GE19AGL   +99999+99999GF199999999999007621999999KA1060M-00331KA2060N-00501MA1100785100005MD1890489+9999MW1715REMMET14301/06/25 12:53:02 METAR KTTN 061753Z 34005KT 1SM -SN BR BKN025 OVC044 M04/M05 A2976 RMK AO2 SLP076 P0001 60011 T10391050 11033 21050 58048 (EE)EQDQ01  00278PRCP06
0338724095147922025010618057+40277-074816FM-16+0065KTTN V0203505N00155008845MN0032195N5-00335-00445999999ADDAA101000021AU110030015AU200001015AW1105AW2715GA1075+008845999GA2075+011285999GA3085+013115999GD13991+0088459GD23991+0112859GD34991+0131159GE19AGL   +99999+99999GF199999999999008841999999MA1100785100005MW1715REMMET11901/06/25 13:05:02 SPECI KTTN 061805Z 35003KT 2SM -SN BR BKN029 BKN037 OVC043 M03/M04 A2976 RMK AO2 P0000 T10331044 (EE)
0342724095147922025010618097+40277-074816FM-16+0065KTTN V0203305N00155008845MN0028165N5-00335-00445999999ADDAA101000021AU110030015AU200001015AW1105AW2715GA1025+002445999GA2075+008845999GA3085+013115999GD11991+0024459GD23991+0088459GD34991+0131159GE19AGL   +99999+99999GF199999999999002441999999MA1100785100005MW1715REMMET12301/06/25 13:09:02 SPECI KTTN 061809Z 33003KT 1 3/4SM -SN BR FEW008 BKN029 OVC043 M03/M04 A2976 RMK AO2 P0000 T10331044 (EE)
0342724095147922025010618187+40277-074816FM-16+0065KTTN V0203305N00215010975MN0020125N5-00335-00565999999ADDAA101000021AU110030015AU200001015AW1105AW2715GA1045+002445999GA2075+010975999GA3085+013415999GD12991+0024459GD23991+0109759GD34991+0134159GE19AGL   +99999+99999GF199999999999002441999999MA1100815100045MW1715REMMET12301/06/25 13:18:02 SPECI KTTN 061818Z 33004KT 1 1/4SM -SN BR SCT008 BKN036 OVC044 M03/M06 A2977 RMK AO2 P0000 T10331056 (EE)
0345724095147922025010618337+40277-074816FM-16+0065KTTN V0203605N00265008535MN0032195N5-00335-00505999999ADDAA101000021AU110030015AU200001015AW1105AW2715GA1025+002135999GA2075+008535999GA3085+011285999GD11991+0021359GD23991+0085359GD34991+0112859GE19AGL   +99999+99999GF199999999999002131999999MA1100685099905MW1715REMMET12601/06/25 13:33:02 SPECI KTTN 061833Z 36005KT 2SM -SN BR FEW007 BKN028 OVC037 M03/M05 A2973 RMK AO2 PRESFR P0000 T10331050 (BC)
0338724095147922025010618407+40277-074816FM-16+0065KTTN V0203605N00215011285MN0032195N5-00335-00505999999ADDAA101000021AU110030015AU200001015AW1105AW2715GA1025+002135999GA2045+008235999GA3085+011285999GD11991+0021359GD22991+0082359GD34991+0112859GE19AGL   +99999+99999GF199999999999002131999999MA1100685099905MW1715REMMET11901/06/25 13:40:02 SPECI KTTN 061840Z 36004KT 2SM -SN BR FEW007 SCT027 OVC037 M03/M05 A2973 RMK AO2 P0000 T10331050 (BC)
0345724095147922025010618537+40277-074816FM-15+0065KTTN V0200105N00155009455MN0048285N5-00285-00445100625ADDAA101000025AU110030015AU200001015AW1105AW2715GA1075+009455999GA2075+012195999GA3085+024385999GD13991+0094559GD23991+0121959GD34991+0243859GE19AGL   +99999+99999GF199999999999009451999999MA1100685099905MW1715REMMET12601/06/25 13:53:02 METAR KTTN 061853Z 01003KT 3SM -SN BR BKN031 BKN040 OVC080 M03/M04 A2973 RMK AO2 SLP062 P0000 T10281044 (BC)
0317724095147922025010619217+40277-074816FM-16+0065KTTN V0200105N00265003355MN0096565N5-00285-00445999999ADDAA101000021AU100001015AW1105GA1075+003355999GA2075+009755999GA3085+024385999GD13991+0033559GD23991+0097559GD34991+0243859GE19AGL   +99999+99999GF199999999999003351999999MA1100615099845REMMET12101/06/25 14:21:02 SPECI KTTN 061921Z 01005KT 6SM BR BKN011 BKN032 OVC080 M03/M04 A2971 RMK AO2 SNE06 P0000 T10281044 (BC)
0267724095147922025010619537+40277-074816FM-15+0065KTTN V0200205N00265003965MN0160935N5-00225-00505100535ADDAA101000025GA1075+003965999GA2085+022865999GD13991+0039659GD24991+0228659GE19AGL   +99999+99999GF199999999999003961999999MA1100585099805REMMET11901/06/25 14:53:02 METAR KTTN 061953Z 02005KT 10SM BKN013 OVC075 M02/M05 A2970 RMK AO2 SNE06 SLP053 P0000 T10221050 (BC)
0206724095147922025010620057+40277-074816FM-16+0065KTTN V0200105N00365004575MN0160935N5-00225-00565999999ADDGA1085+004575999GD14991+0045759GE19AGL   +99999+99999GF199999999999004571999999MA1100515099735REMMET10001/06/25 15:05:02 SPECI KTTN 062005Z 01007KT 10SM OVC015 M02/M06 A2968 RMK AO2 PRESFR T10221056 (BC)
0254724095147922025010620537+40277-074816FM-15+0065KTTN V0200205N00265004885MN0160935N5-00225-00505100455ADDAA101000095AA203000021GA1085+004885999GD14991+0048859GE19AGL   +99999+99999GF199999999999004881999999MA1100475099705MD1690309+9999REMMET11201/06/25 15:53:02 METAR KTTN 062053Z 02005KT 10SM OVC016 M02/M05 A2967 RMK AO2 SLP045 60000 T10221050 56030 (BC)
0255724095147922025010621537+40277-074816FM-15+0065KTTN V0200205N00215006405MN0144845N5-00225-00505100435ADDAA101000025AU110030015AW1715GA1085+006405999GD14991+0064059GE19AGL   +99999+99999GF199999999999006401999999MA1100475099705MW1715REMMET11501/06/25 16:53:02 METAR KTTN 062153Z 02004KT 9SM -SN OVC021 M02/M05 A2967 RMK AO2 SNB48 SLP043 P0000 T10221050 (MY)
0259724095147922025010622197+40277-074816FM-16+0065KTTN V0200105N00215021345MN0144845N5-00225-00505999999ADDAA101000021GA1045+006715999GA2085+021345999GD12991+0067159GD24991+0213459GE19AGL   +99999+99999GF199999999999006711999999MA1100475099705REMMET11101/06/25 17:19:02 SPECI KTTN 062219Z 01004KT 9SM SCT022 OVC070 M02/M05 A2967 RMK AO2 SNE16 P0000 T10221050 (MY)
0267724095147922025010622537+40277-074816FM-15+0065KTTN V0203305N00265022865MN0160935N5-00225-00445100395ADDAA101000025GA1025+016765999GA2085+022865999GD11991+0167659GD24991+0228659GE19AGL   +99999+99999GF199999999999016761999999MA1100445099675REMMET11901/06/25 17:53:02 METAR KTTN 062253Z 33005KT 10SM FEW055 OVC075 M02/M04 A2966 RMK AO2 SNE16 SLP039 P0000 T10221044 (MY)
0363724095147922025010623537+40277-074816FM-15+0065KTTN V0203505N00315019815MN0144845N5-00225-00505100325ADDAA101000025AA206000021GA1075+019815999GA2085+024385999GD13991+0198159GD24991+0243859GE19AGL   +99999+99999GF199999999999019811999999KA1060M-00221KA2060N-00391MA1100375099605MD1890139+9999REMMET14501/06/25 18:53:02 METAR KTTN 062353Z 35006KT 9SM BKN065 OVC080 M02/M05 A2964 RMK AO2 SNB01E48 SLP032 P0000 60000 T10221050 11022 21039 58013 (MY)EQDQ01  00008PRCP06
0229724095147922025010700537+40277-074816FM-15+0065KTTN V0203405N00515021345MN0160935N5-00225-00565100315ADDAA101000025GA1085+021345999GD14991+0213459GE19AGL   +99999+99999GF199999999999021341999999MA1100345099575REMMET11201/06/25 19:53:01 METAR KTTN 070053Z 34010KT 10SM OVC070 M02/M06 A2963 RMK AO2 SNB2359E10 SLP031 P0000 T10221056
0250724095147922025010701537+40277-074816FM-15+0065KTTN V0203305N00575027435MN0160935N5-00225-00835100365ADDAA101000095GA1025+024385999GA2085+027435999GD11991+0243859GD24991+0274359GE19AGL   +99999+99999GF199999999999024381999999MA1100415099635REMMET10201/06/25 20:53:01 METAR KTTN 070153Z 33011KT 10SM FEW080 OVC090 M02/M08 A2965 RMK AO2 SLP036 T10221083
0278724095147922025010702537+40277-074816FM-15+0065KTTN V0203305N00985021345MN0160935N5-00335-00945100455ADDAA101000025AA203000021GA1085+021345999GD14991+0213459GE19AGL   +99999+99999GF199999999999021341999999MA1100475099705MD1390119+9999OC101395REMMET12801/06/25 21:53:01 METAR KTTN 070253Z 33019G27KT 10SM OVC070 M03/M09 A2967 RMK AO2 PK WND 32027/0252 SLP045 60000 T10331094 53011
0339724095147922025010703537+40277-074816FM-15+0065KTTN V0203205N00725014335MN0128755N5-00445-01065100595ADDAA101000025AU110030015AW1715GA1075+014335999GA2085+022865999GD13991+0143359GD24991+0228659GE19AGL   +99999+99999GF199999999999014331999999MA1100615099845MW1715OC101295OD149901331310REMMET14601/06/25 22:53:02 METAR KTTN 070353Z 32014G25KT 8SM -SN BKN047 OVC075 M04/M11 A2971 RMK AO2 PK WND 31026/0341 SNB0254E05B41 SLP059 P0000 T10441106
0311724095147922025010704537+40277-074816FM-15+0065KTTN V0203205N00825028965MN0160935N5-00615-01285100715ADDAA101000025GA1085+028965999GD14991+0289659GE19AGL   +99999+99999GF199999999999028961999999KA1240M-00221KA2240N-00611MA1100755099975OC101395OD149901491330REMMET14601/06/25 23:53:02 METAR KTTN 070453Z 32016G27KT 10SM OVC095 M06/M13 A2975 RMK AO2 PK WND 33029/0432 SNE0356B17E26 SLP071 P0000 T10611128 410221061
0931724095147922025010704596+40277-074816SOD  +0065KTTN V020999999999999999999999999999+99999+99999999999ADDAA124002895AT1AU18SN  5AT2AU22FZFG5AT3AU13BR  5AT4AW01FG  5KA1240M-00215KA2240N-00605MG1100304100304OE11240152033023325OE22240098333021545OE33240030099999995REMSOD72724 HR PRECIPITATION (IN):0.11  24 HR MAX TEMP (F):28 24 HR MAX TEMP TIME (LST):2058 24 HR MIN TEMP (F):21 24 HR MIN TEMP TIME (LST):2359 AVERAGE STATION PRESSURE:29.620 MINIMUM SEA LEVEL PRESSURE:29.62 TIME OF OCCURRENCE:2035 PEAK WIND SPEED (MPH):34  PEAK WIND DIR (DEG):330 PEAK WIND TIME (LST):2332  FASTEST 2MIN SPEED (MPH):22 FASTEST 2MIN DIR (DEG):330 FASTEST 2MIN TIME (LST):2154 AVERAGE WIND SPEED (MPH):6.7  24 HR AVG TEMP (F):25 HEATING DEGREE DAYS:40  COOLING DEGREE DAYS:0   LATEST DAY MAX TEMP (0700-1900 LST):28  LATEST NIGHT MIN TEMP(1900-0800 LST):24 HOURLY INCREMENTAL PRECIPITATION VALUES (IN):.00 0.00 0.00 0.00 0.00 0.00 0.00 T    0.02 0.02 0.03 0.03 0.01 T    T    0.00 T    T    T    T    0.00 T    T    TEQDR01     N7GJS072R02     N7GKS075
0349724095147922025010705537+40277-074816FM-15+0065KTTN V0203305N008252200059N0144845N5-00785-01445100775ADDAA101000025AA206000021AU110030015AW1715GA1005+999999999GD10991+9999999GF100991999999999999999999KA1060M-00221MA1100815100045MD1190329+9999MW1715OC101545OD149901591320REMMET15201/07/25 00:53:02 METAR KTTN 070553Z 33016G30KT 9SM -SN CLR M08/M14 A2977 RMK AO2 PK WND 32031/0542 SNB12 SLP077 P0000 60000 T10781144 11022 21078 51032EQDQ01  00008PRCP06
0199724095147922025010706537+40277-074816FM-15+0065KTTN V0203305N006252200059N0160935N5-00835-01445100815ADDAA101000025GA1005+999999999GD10991+9999999GF100991999999999999999999MA1100855100075REMMET10401/07/25 01:53:02 METAR KTTN 070653Z 33012KT 10SM CLR M08/M14 A2978 RMK AO2 SNE00 SLP081 P0000 T10831144
0223724095147922025010707537+40277-074816FM-15+0065KTTN V0203205N00515010675MN0160935N5-00785-01395100875ADDAA101000095GA1075+010675999GD13991+0106759GE19AGL   +99999+99999GF199999999999010671999999MA1100915100145OC100985REMMET09801/07/25 02:53:02 METAR KTTN 070753Z 32010G19KT 10SM BKN035 M08/M14 A2980 RMK AO2 SLP087 T10781139
0260724095147922025010708537+40277-074816FM-15+0065KTTN V0203205N00575010365MN0160935N5-00725-01335100875ADDAA101000095AA203000021GA1085+010365999GD14991+0103659GE19AGL   +99999+99999GF199999999999010361999999MA1100915100145MD1190109+9999OC101035REMMET11001/07/25 03:53:02 METAR KTTN 070853Z 32011G20KT 10SM OVC034 M07/M13 A2980 RMK AO2 SLP087 60000 T10721133 51010
0238724095147922025010709537+40277-074816FM-15+0065KTTN V0203105N00625010675MN0160935N5-00675-01285100915ADDAA101000025GA1085+010675999GD14991+0106759GE19AGL   +99999+99999GF199999999999010671999999MA1100955100175OC100985REMMET11301/07/25 04:53:02 METAR KTTN 070953Z 31012G19KT 10SM OVC035 M07/M13 A2981 RMK AO2 SNB37E43 SLP091 P0000 T10671128
0236724095147922025010710537+40277-074816FM-15+0065KTTN V0203105N004652200059N0160935N5-00675-01285100975ADDAA101000095GA1045+010975999GD12991+0109759GE19AGL   +99999+99999GF104995999999010971999999MA1101025100245REMMET10001/07/25 05:53:02 METAR KTTN 071053Z 31009KT 10SM SCT036 M07/M13 A2983 RMK AO2 SLP097 T10671128 (KJ)EQDD01      0ADE726
0314724095147922025010711537+40277-074816FM-15+0065KTTN V0203105N005152200059N0160935N5-00675-01335101035ADDAA101000095AA206000021AA324002891GA1005+999999999GD10991+9999999GF100991999999999999999999KA1060M-00671KA2060N-00831MA1101055100275MD1390169+9999OC101085REMMET13001/07/25 06:53:02 METAR KTTN 071153Z 31010G21KT 10SM CLR M07/M13 A2984 RMK AO2 SLP103 60000 70011 T10671133 11067 21083 53016 (KJ)EQDQ01  00278PRCP24
0218724095147922025010712537+40277-074816FM-15+0065KTTN V0203005N006252200059N0160935N5-00675-01335101085ADDAA101000025GA1005+999999999GD10991+9999999GF100991999999999999999999MA1101125100345OC101035REMMET11501/07/25 07:53:02 METAR KTTN 071253Z 30012G20KT 10SM CLR M07/M13 A2986 RMK AO2 SNB11E29 SLP108 P0000 T10671133 (KJ)
0263724095147922025010713537+40277-074816FM-15+0065KTTN V0203005N00575011585MN0160935N5-00505-01285101145ADDAA101000025GA1075+011585999GD13991+0115859GE19AGL   +99999+99999GF199999999999011581999999MA1101195100415OC101035REMMET13801/07/25 08:53:02 METAR KTTN 071353Z 30011G20KT 10SM BKN038 M05/M13 A2988 RMK AO2 PK WND 29026/1256 SNB1257E06 SLP114 P0000 T10501128 (KJ)
0362724095147922025010714537+40277-074816FM-15+0065KTTN V0203105N006752200059N0144845N5-00445-01225101185ADDAA101000025AA203000021GA1025+011585999GD11991+0115859GE19AGL   +99999+99999GF102995999999011581999999MA1101225100445MD1190159+9999OC100985OD149901491320REMMET14701/07/25 09:53:02 METAR KTTN 071453Z 31013G19KT 9SM FEW038 M04/M12 A2989 RMK AO2 PK WND 32029/1440 SNB17E50 SLP118 P0000 60000 T10441122 51015 (EE)EQDQ01  00002PRCP03Q02  00008PRCP03D01      0ADE726
0265724095147922025010715537+40277-074816FM-15+0065KTTN V0203105N007752200059N0160935N5-00335-01175101185ADDAA101000095GA1025+012505999GD11991+0125059GE19AGL   +99999+99999GF102995999999012501999999MA1101225100445OC101245REMMET12101/07/25 10:53:02 METAR KTTN 071553Z 31015G24KT 10SM FEW041 M03/M12 A2989 RMK AO2 PK WND 30027/1520 SLP118 T10331117 (EE)EQDD01      0ADE726
0265724095147922025010716537+40277-074816FM-15+0065KTTN V0203005N006752200059N0160935N5-00225-01115101125ADDAA101000095GA1025+014025999GD11991+0140259GE19AGL   +99999+99999GF102995999999014021999999MA1101155100375OC101245REMMET12101/07/25 11:53:02 METAR KTTN 071653Z 30013G24KT 10SM FEW046 M02/M11 A2987 RMK AO2 PK WND 31026/1607 SLP112 T10221111 (EE)EQDD01      0ADE726
0340724095147922025010717537+40277-074816FM-15+0065KTTN V0203005N007752200059N0160935N5-00115-01115101105ADDAA101000095AA206000021GA1045+014635999GD12991+0146359GE19AGL   +99999+99999GF104995999999014631999999KA1060M-00111KA2060N-00671MA1101125100345MD1890099+9999OC101345REMMET14501/07/25 12:53:02 METAR KTTN 071753Z 30015G26KT 10SM SCT048 M01/M11 A2986 RMK AO2 PK WND 28030/1742 SLP110 60000 T10111111 11011 21067 58009 (EE)EQDD01      0ADE726
0278724095147922025010718537+40277-074816FM-15+0065KTTN V0203005V005752200059N0160935N5+00005-01065101085ADDAA101000095GA1025+016765999GD11991+0167659GE19AGL   +99999+99999GF102995999999016761999999MA1101125100345OC101445OD149901441290REMMET12001/07/25 13:53:02 METAR KTTN 071853Z 30011G28KT 10SM FEW055 00/M11 A2986 RMK AO2 PK WND 29028/1845 SLP108 T00001106 (EE)EQDD01      0ADE726
0278724095147922025010719537+40277-074816FM-15+0065KTTN V0202905N005752200059N0160935N5+00065-01065101125ADDAA101000095GA1045+015245999GD12991+0152459GE19AGL   +99999+99999GF104995999999015241999999MA1101155100375OC101135OD149901331330REMMET12001/07/25 14:53:02 METAR KTTN 071953Z 29011G22KT 10SM SCT050 01/M11 A2987 RMK AO2 PK WND 33026/1857 SLP112 T00061106 (RF)EQDD01      0ADE726
0217724095147922025010720536+40277-074816FM-15+0065KTTN V0202905N00575015245MN0160935N5+00005-01065101265ADDAA101000095GA1075+015245999GD13991+0152459MA1101325100545MD1390189+9999OC101135REMMET12601/07/25 15:53:02 METAR KTTN 072053Z 29011G22KT 10SM BKN050 00/M11 A2992 RMK AO2 PK WND 32029/2005 SLP126 T00001106 53018 (RF)
0235724095147922025010721537+40277-074816FM-15+0065KTTN V0203005N003652200059N0160935N5-00065-01115101355ADDAA101000095GA1005+999999999GD10991+9999999GF100991999999999999999999MA1101395100615OC100935OD149901331300REMMET11801/07/25 16:53:02 METAR KTTN 072153Z 30007G18KT 10SM CLR M01/M11 A2994 RMK AO2 PK WND 30026/2109 SLP135 T10061111 (RF)
0236724095147922025010722537+40277-074816FM-15+0065KTTN V0202905N002652200059N0160935N5-00115-01115101465ADDAA101000095GA1025+015245999GD11991+0152459GE19AGL   +99999+99999GF102995999999015241999999MA1101495100715REMMET10001/07/25 17:53:02 METAR KTTN 072253Z 29005KT 10SM FEW050 M01/M11 A2997 RMK AO2 SLP146 T10111111 (RF)EQDD01      0ADE726
0261724095147922025010723537+40277-074816FM-15+0065KTTN V0203005N005752200059N0160935N5-00225-01115101505ADDAA101000095GA1005+999999999GD10991+9999999GF100991999999999999999999KA1060M+00061KA2060N-00221MA1101525100745MD1190239+9999OC100985REMMET11801/07/25 18:53:02 METAR KTTN 072353Z 30011G19KT 10SM CLR M02/M11 A2998 RMK AO2 SLP150 T10221111 10006 21022 51023 (MY)
0198724095147922025010800537+40277-074816FM-15+0065KTTN V0203105N005752200059N0160935N5-00285-01175101585ADDAA101000095GA1005+999999999GD10991+9999999GF100991999999999999999999MA1101635100845OC101245REMMET09501/07/25 19:53:01 METAR KTTN 080053Z 31011G24KT 10SM CLR M03/M12 A3001 RMK AO2 SLP158 T10281117
0275724095147922025010801537+40277-074816FM-15+0065KTTN V0203105N006752200059N0160935N5-00335-01175101575ADDAA101000025GA1045+011285999GD12991+0112859GE19AGL   +99999+99999GF104995999999011281999999MA1101595100815OC101295REMMET13101/07/25 20:53:01 METAR KTTN 080153Z 31013G25KT 10SM SCT037 M03/M12 A3000 RMK AO2 PK WND 32032/0104 SNB00E34 SLP157 P0000 T10331117EQDD01      0ADE726
0328724095147922025010802537+40277-074816FM-15+0065KTTN V0203105N00575012805MN0160935N5-00395-01175101635ADDAA101000025AA203000021GA1075+012805999GD13991+0128059GE19AGL   +99999+99999GF199999999999012801999999MA1101665100885MD1190139+9999OC100885REMMET14301/07/25 21:53:01 METAR KTTN 080253Z 31011G17KT 10SM BKN042 M04/M12 A3002 RMK AO2 PK WND 33028/0209 SNB11E41 SLP163 P0000 60000 T10391117 51013EQDQ01  00002PRCP03Q02  00008PRCP03
0289724095147922025010803537+40277-074816FM-15+0065KTTN V0203205N005152200059N0160935N5-00395-01285101655ADDAA101000025GA1045+012805999GD12991+0128059GE19AGL   +99999+99999GF104995999999012801999999MA1101695100915OC101035OD149901391310REMMET13101/07/25 22:53:02 METAR KTTN 080353Z 32010G20KT 10SM SCT042 M04/M13 A3003 RMK AO2 PK WND 31027/0309 SNB10E19 SLP165 P0000 T10391128EQDD01      0ADE726
0267724095147922025010804537+40277-074816FM-15+0065KTTN V0203205N008252200059N0160935N5-00445-01335101635ADDAA101000025GA1005+999999999GD10991+9999999GF100991999999999999999999KA1240M+00061KA2240N-00831MA1101695100915OC101445REMMET13801/07/25 23:53:02 METAR KTTN 080453Z 32016G28KT 10SM CLR M04/M13 A3003 RMK AO2 PK WND 33028/0451 SNB44E47 SLP163 P0000 T10441133 400061083
0895724095147922025010804596+40277-074816SOD  +0065KTTN V020999999999999999999999999999+99999+99999999999ADDAA124000025AT1AU18SN  5KA1240M+00065KA2240N-00825MG1100344100714OE11240165432020045OE22240111833000415OE33240059099999995REMSOD72724 HR PRECIPITATION (IN):T     24 HR MAX TEMP (F):33 24 HR MAX TEMP TIME (LST):1532 24 HR MIN TEMP (F):17 24 HR MIN TEMP TIME (LST):0211 AVERAGE STATION PRESSURE:29.630 MINIMUM SEA LEVEL PRESSURE:29.74 TIME OF OCCURRENCE:0018 PEAK WIND SPEED (MPH):37  PEAK WIND DIR (DEG):320 PEAK WIND TIME (LST):2004  FASTEST 2MIN SPEED (MPH):25 FASTEST 2MIN DIR (DEG):330 FASTEST 2MIN TIME (LST):0041 AVERAGE WIND SPEED (MPH):13.2 24 HR AVG TEMP (F):25 HEATING DEGREE DAYS:40  COOLING DEGREE DAYS:0   LATEST DAY MAX TEMP (0700-1900 LST):33  LATEST NIGHT MIN TEMP(1900-0800 LST):17 HOURLY INCREMENTAL PRECIPITATION VALUES (IN):    T    0.00 0.00 T    0.00 0.00 T    T    T    0.00 0.00 0.00 0.00 0.00 0.00 0.00 0.00 0.00 0.00 T    T    T    TEQDR01     N7GJS072R02     N7GKS075
0273724095147922025010805537+40277-074816FM-15+0065KTTN V0203305N006252200059N0160935N5-00445-01335101645ADDAA101000095AA206000021GA1005+999999999GD10991+9999999GF100991999999999999999999KA1060M-00221KA2060N-00501MA1101695100915MD1190029+9999OC101135REMMET11901/08/25 00:53:02 METAR KTTN 080553Z 33012G22KT 10SM CLR M04/M13 A3003 RMK AO2 SLP164 60000 T10441133 11022 21050 51002
0242724095147922025010806537+40277-074816FM-15+0065KTTN V0203105N005152200059N0160935N5-00505-01335101665ADDAA101000095GA1025+013725999GD11991+0137259GE19AGL   +99999+99999GF102995999999013721999999MA1101695100915OC100985REMMET09801/08/25 01:53:02 METAR KTTN 080653Z 31010G19KT 10SM FEW045 M05/M13 A3003 RMK AO2 SLP166 T10501133EQDD01      0ADE726
0223724095147922025010807537+40277-074816FM-15+0065KTTN V0203105N00515014025MN0160935N5-00505-01285101655ADDAA101000095GA1075+014025999GD13991+0140259GE19AGL   +99999+99999GF199999999999014021999999MA1101695100915OC100775REMMET09801/08/25 02:53:02 METAR KTTN 080753Z 31010G15KT 10SM BKN046 M05/M13 A3003 RMK AO2 SLP165 T10501128
0218724095147922025010808537+40277-074816FM-15+0065KTTN V0203105N006252200059N0160935N5-00445-01285101635ADDAA101000095GA1005+999999999GD10991+9999999GF100991999999999999999999MA1101665100885MD1890019+9999OC101135REMMET10101/08/25 03:53:02 METAR KTTN 080853Z 31012G22KT 10SM CLR M04/M13 A3002 RMK AO2 SLP163 T10441128 58001
0198724095147922025010809537+40277-074816FM-15+0065KTTN V0203105N005752200059N0160935N5-00505-01285101595ADDAA101000095GA1005+999999999GD10991+9999999GF100991999999999999999999MA1101635100845OC100985REMMET09501/08/25 04:53:02 METAR KTTN 080953Z 31011G19KT 10SM CLR M05/M13 A3001 RMK AO2 SLP159 T10501128
0187724095147922025010810537+40277-074816FM-15+0065KTTN V0203205N004652200059N0160935N5-00505-01335101625ADDAA101000095GA1005+999999999GD10991+9999999GF100991999999999999999999MA1101665100885REMMET09201/08/25 05:53:02 METAR KTTN 081053Z 32009KT 10SM CLR M05/M13 A3002 RMK AO2 SLP162 T10501133
0261724095147922025010811537+40277-074816FM-15+0065KTTN V0203105N007252200059N0160935N5-00565-01395101675ADDAA101000095GA1005+999999999GD10991+9999999GF100991999999999999999999KA1060M-00441KA2060N-00561MA1101695100915MD1390039+9999OC101185REMMET11801/08/25 06:53:02 METAR KTTN 081153Z 31014G23KT 10SM CLR M06/M14 A3003 RMK AO2 SLP167 T10561139 11044 21056 53003 (EE)
0203724095147922025010812537+40277-074816FM-15+0065KTTN V0203105N006752200059N0160935N5-00565-01445101705ADDAA101000095GA1005+999999999GD10991+9999999GF100991999999999999999999MA1101735100955OC101185REMMET10001/08/25 07:53:02 METAR KTTN 081253Z 31013G23KT 10SM CLR M06/M14 A3004 RMK AO2 SLP170 T10561144 (EE)
0203724095147922025010813537+40277-074816FM-15+0065KTTN V0203105N006252200059N0160935N5-00445-01395101665ADDAA101000095GA1005+999999999GD10991+9999999GF100991999999999999999999MA1101695100915OC101245REMMET10001/08/25 08:53:02 METAR KTTN 081353Z 31012G24KT 10SM CLR M04/M14 A3003 RMK AO2 SLP166 T10441139 (EE)
0248724095147922025010814537+40277-074816FM-15+0065KTTN V0202905N00515014945MN0160935N5-00335-01285101635ADDAA101000095GA1075+014945999GD13991+0149459GE19AGL   +99999+99999GF199999999999014941999999MA1101665100885MD1890039+9999OC101035REMMET10901/08/25 09:53:02 METAR KTTN 081453Z 29010G20KT 10SM BKN049 M03/M13 A3002 RMK AO2 SLP163 T10331128 58003 (JM)
