0191724084547602021010100564+40187-074125FM-15+004899999V0203401N004112200059N016093199+00441-00111102701ADDGD12991+0335319GE19AGL   +99999+99999GF104995999999033531999999MA1102711999999REMMET082METAR KBLM 010056Z AUTO 34008KT 10SM SCT110 04/M01 A3033 RMK AO2 SLP270 T00441011=EQDD01      0ADE726
0191724084547602021010101564+40187-074125FM-15+004899999V0203301N005112200059N016093199+00331-00281102831ADDGD12991+0365819GE19AGL   +99999+99999GF104995999999036581999999MA1102811999999REMMET082METAR KBLM 010156Z AUTO 33010KT 10SM SCT120 03/M03 A3036 RMK AO2 SLP283 T00331028=EQDD01      0ADE726
0159724084547602021010102564+40187-074125FM-15+004899999V0203301N003112200019N016093199+00221-00331102911ADDGF100991999999999999999999MA1102881999999MD1310241+9999REMMET092METAR KBLM 010256Z AUTO 33006KT 10SM CLR 02/M03 A3038 RMK AO2 SLP291 T00221033 53024 FZRANO=
0139724084547602021010103564+40187-074125FM-15+004899999V0203201N003612200019N016093199+00111-00391102961ADDGF100991999999999999999999MA1102951999999REMMET086METAR KBLM 010356Z AUTO 32007KT 10SM CLR 01/M04 A3040 RMK AO2 SLP296 T00111039 FZRANO=
0175724084547602021010104564+40187-074125FM-15+004899999V0203201N003112200019N016093199+00061-00391102991ADDGF100991999999999999999999KA1240M+01111KA2240N+00061MA1102981999999REMMET096METAR KBLM 010456Z AUTO 32006KT 10SM CLR 01/M04 A3041 RMK AO2 SLP299 T00061039 401110006 FZRANO=
0241724084547602021010105567+40183-074133FM-15+0048KBLM V0203305N002152200059N0160935N5-00065-00395103045ADDGA1005+999999999GD10991+9999999GF100991999999999999999999KA1060M+00501KA2060N-00061MA1103015102435MD1190149+9999REMMET11701/01/21 00:56:02 METAR KBLM 010556Z 33004KT 10SM CLR M01/M04 A3042 RMK AO2 SLP304 T10061039 10050 21006 51014 FZRANO
0183724084547602021010106567+40183-074133FM-15+0048KBLM V0203205N002152200059N0160935N5-00115-00395103145ADDGA1005+999999999GD10991+9999999GF100991999999999999999999MA1103125102535REMMET09901/01/21 01:56:02 METAR KBLM 010656Z 32004KT 10SM CLR M01/M04 A3045 RMK AO2 SLP314 T10111039 FZRANO
0183724084547602021010107567+40183-074133FM-15+0048KBLM V0203305N002652200059N0160935N5-00175-00395103195ADDGA1005+999999999GD10991+9999999GF100991999999999999999999MA1103185102605REMMET09901/01/21 02:56:02 METAR KBLM 010756Z 33005KT 10SM CLR M02/M04 A3047 RMK AO2 SLP319 T10171039 FZRANO
0203724084547602021010108567+40183-074133FM-15+0048KBLM V0203005N001552200059N0160935N5-00225-00445103245ADDGA1005+999999999GD10991+9999999GF100991999999999999999999MA1103225102635MD1190199+9999REMMET10501/01/21 03:56:02 METAR KBLM 010856Z 30003KT 10SM CLR M02/M04 A3048 RMK AO2 SLP324 T10221044 51019 FZRANO
0183724084547602021010109567+40183-074133FM-15+0048KBLM V0203505N001552200059N0160935N5-00225-00445103245ADDGA1005+999999999GD10991+9999999GF100991999999999999999999MA1103225102635REMMET09901/01/21 04:56:02 METAR KBLM 010956Z 35003KT 10SM CLR M02/M04 A3048 RMK AO2 SLP324 T10221044 FZRANO
0183724084547602021010110567+40183-074133FM-15+0048KBLM V0200105N001552200059N0160935N5-00175-00395103265ADDGA1005+999999999GD10991+9999999GF100991999999999999999999MA1103255102675REMMET09901/01/21 05:56:02 METAR KBLM 011056Z 01003KT 10SM CLR M02/M04 A3049 RMK AO2 SLP326 T10171039 FZRANO
0277724084547602021010111567+40183-074133FM-15+0048KBLM V0203605N002152200059N0160935N5-00335-00505103325ADDAA124000591GA1005+999999999GD10991+9999999GF100991999999999999999999KA1060M-00061KA2060N-00331MA1103325102735MD1390089+9999REMMET12301/01/21 06:56:02 METAR KBLM 011156Z 36004KT 10SM CLR M03/M05 A3051 RMK AO2 SLP332 70002 T10331050 11006 21033 53008 FZRANOEQDQ01  00058PRCP24
0183724084547602021010112567+40183-074133FM-15+0048KBLM V0200105N002652200059N0160935N5-00175-00445103345ADDGA1005+999999999GD10991+9999999GF100991999999999999999999MA1103325102735REMMET09901/01/21 07:56:02 METAR KBLM 011256Z 01005KT 10SM CLR M02/M04 A3051 RMK AO2 SLP334 T10171044 FZRANO
0182724084547602021010113567+40183-074133FM-15+0048KBLM V0209999C000052200059N0160935N5+00175-00335103415ADDGA1005+999999999GD10991+9999999GF100991999999999999999999MA1103395102805REMMET09801/01/21 08:56:02 METAR KBLM 011356Z 00000KT 10SM CLR 02/M03 A3053 RMK AO2 SLP341 T00171033 FZRANO
0195724084547602021010114567+40183-074133FM-15+0048KBLM V0200805N003152200059N0160935N5+00335-00285103385ADDGA1005+999999999GD10991+9999999GF100991999999999999999999MA1103395102805MD1090079+9999REMMET09701/01/21 09:56:02 METAR KBLM 011456Z 08006KT 10SM CLR 03/M03 A3053 RMK AO2 SLP338 T00331028 50007
0219724084547602021010115567+40183-074133FM-15+0048KBLM V0200805N002652200059N0160935N5+00395-00225103315ADDGA1025+008235999GD11991+0082359GE19AGL   +99999+99999GF102995999999008231999999MA1103325102735REMMET09401/01/21 10:56:02 METAR KBLM 011556Z 08005KT 10SM FEW027 04/M02 A3051 RMK AO2 SLP331 T00391022EQDD01      0ADE726
0175724084547602021010116567+40183-074133FM-15+0048KBLM V0200705N003652200059N0160935N5+00395-00175103105ADDGA1005+999999999GD10991+9999999GF100991999999999999999999MA1103085102505REMMET09101/01/21 11:56:02 METAR KBLM 011656Z 07007KT 10SM CLR 04/M02 A3044 RMK AO2 SLP310 T00391017
0233724084547602021010117567+40183-074133FM-15+0048KBLM V0200405N003652200059N0160935N5+00395-00065103045ADDGA1005+999999999GD10991+9999999GF100991999999999999999999KA1060M+00391KA2060N-00331MA1103015102435MD1690359+9999REMMET10901/01/21 12:56:02 METAR KBLM 011756Z 04007KT 10SM CLR 04/M01 A3042 RMK AO2 SLP304 T00391006 10039 21033 56035
0238724084547602021010118567+40183-074133FM-15+0048KBLM V0200605N00265033535MN0160935N5+00395-00065102995ADDGA1025+007925999GA2075+033535999GD11991+0079259GD23991+0335359GE19MSL   +99999+99999GF199999999999007921999999MA1102985102405REMMET10101/01/21 13:56:02 METAR KBLM 011856Z 06005KT 10SM FEW026 BKN110 04/M01 A3041 RMK AO2 SLP299 T00391006
0220724084547602021010119127+40183-074133FM-15+0048KBLM V0200405N00315007925MN0160935N5+00405+00005999999ADDGA1075+007925999GA2085+033535999GD13991+0079259GD24991+0335359GE19MSL   +99999+99999GF199999999999007921999999MA1102985102405REMMET08301/01/21 14:12:02 METAR KBLM 011912Z 04006KT 10SM BKN026 OVC110 04/00 A3041 RMK AO2
0294724084547602021010119567+40183-074133FM-15+0048KBLM V0200405N00365027435MN0160935N5+00335+00065102855ADDAA101000021AU110020015AW1615GA1045+007925999GA2085+027435999GD12991+0079259GD24991+0274359GE19MSL   +99999+99999GF199999999999007921999999MA1102845102265MW1615REMMET12301/01/21 14:56:02 METAR KBLM 011956Z 04007KT 10SM -RA SCT026 OVC090 03/01 A3037 RMK AO2 RAB27 PRESFR SLP285 P0000 T00330006
0264724084547602021010120367+40183-074133FM-15+0048KBLM V0203305N00215007015MN0160935N5+00405+00205999999ADDAA101000395AU110020015AW1615GA1075+007015999GA2085+027435999GD13991+0070159GD24991+0274359GE19MSL   +99999+99999GF199999999999007011999999MA1102915102335MW1615REMMET09301/01/21 15:36:02 METAR KBLM 012036Z 33004KT 10SM -RA BKN023 OVC090 04/02 A3039 RMK AO2 P0001
0306724084547602021010120567+40183-074133FM-15+0048KBLM V0200305N00215006405MN0160935N5+00335+00175102845ADDAA101000395AA203000391AU110020015AW1615GA1085+006405999GD14991+0064059GE19MSL   +99999+99999GF199999999999006401999999MA1102815102235MD1690199+9999MW1615REMMET12201/01/21 15:56:02 METAR KBLM 012056Z 03004KT 10SM -RA OVC021 03/02 A3036 RMK AO2 PRESFR SLP284 P0001 60001 T00330017 56019EQDQ01  00028PRCP03
0281724084547602021010121567+40183-074133FM-15+0048KBLM V0200705N00265021345MN0160935N5+00395+00285102705ADDAA101000595AU110020015AW1615GA1025+007015999GA2085+021345999GD11991+0070159GD24991+0213459GE19MSL   +99999+99999GF199999999999007011999999MA1102685102095MW1615REMMET11001/01/21 16:56:02 METAR KBLM 012156Z 07005KT 10SM -RA FEW023 OVC070 04/03 A3032 RMK AO2 SLP270 P0002 T00390028
0319724084547602021010122567+40183-074133FM-15+0048KBLM V0200705N00265018295MN0160935N5+00445+00335102655ADDAA101000895AU110020015AW1615GA1045+006715999GA2075+018295999GA3085+021345999GD12991+0067159GD23991+0182959GD34991+0213459GE19MSL   +99999+99999GF199999999999006711999999MA1102645102065MW1615REMMET11701/01/21 17:56:02 METAR KBLM 012256Z 07005KT 10SM -RA SCT022 BKN060 OVC070 04/03 A3031 RMK AO2 SLP265 P0003 T00440033
0302724084547602021010123067+40183-074133FM-15+0048KBLM V0200805N00265004885MN0160935N5+00405+00305999999ADDAA101000395AU110020015AW1615GA1075+004885999GA2075+007015999GA3085+021345999GD13991+0048859GD23991+0070159GD34991+0213459GE19MSL   +99999+99999GF199999999999004881999999MA1102615102035MW1615REMMET10001/01/21 18:06:02 METAR KBLM 012306Z 08005KT 10SM -RA BKN016 BKN023 OVC070 04/03 A3030 RMK AO2 P0001
0233724084547602021010123287+40183-074133FM-15+0048KBLM V0200605N00415003965MN0160935N5+00405+00405999999ADDAA101000595AU110020015AW1615GA1085+003965999GD14991+0039659GE19MSL   +99999+99999GF199999999999003961999999MA1102475101895MW1615REMMET09301/01/21 18:28:02 METAR KBLM 012328Z 06008KT 10SM -RA OVC013 04/04 A3026 RMK AO2 PRESFR P0002
0337724084547602021010123567+40183-074133FM-15+0048KBLM V0200505N00265003055MN0160935N5+00445+00395102505ADDAA101001395AA206002891AU110020015AW1615GA1085+003055999GD14991+0030559GE19MSL   +99999+99999GF199999999999003051999999KA1060M+00441KA2060N+00331MA1102475101895MD1890349+9999MW1615REMMET12701/01/21 18:56:02 METAR KBLM 012356Z 05005KT 10SM -RA OVC010 04/04 A3026 RMK AO2 SLP250 P0005 60011 T00440039 10044 20033 58034EQDQ01  00278PRCP06
0280724084547602021010200567+40183-074133FM-15+0048KBLM V0200905N00465003665MN0144845N5+00615+00565102245ADDAA101001595AU110020015AW1615GA1075+003665999GA2085+005495999GD13991+0036659GD24991+0054959GE19MSL   +99999+99999GF199999999999003661999999MA1102245101665MW1615REMMET10901/01/21 19:56:01 METAR KBLM 020056Z 09009KT 9SM -RA BKN012 OVC018 06/06 A3019 RMK AO2 SLP224 P0006 T00610056
0302724084547602021010201127+40183-074133FM-15+0048KBLM V0200905N00465005495MN0160935N5+00605+00605999999ADDAA101000395AU110020015AW1615GA1025+003665999GA2075+005495999GA3085+014335999GD11991+0036659GD23991+0054959GD34991+0143359GE19MSL   +99999+99999GF199999999999003661999999MA1102175101595MW1615REMMET10001/01/21 20:12:01 METAR KBLM 020112Z 09009KT 10SM -RA FEW012 BKN018 OVC047 06/06 A3017 RMK AO2 P0001
0314724084547602021010201287+40183-074133FM-15+0048KBLM V0200905N00465002445MN0160935N5+00605+00605999999ADDAA101000595AU110020015AW1615GA1075+002445999GA2075+005495999GA3085+014335999GD13991+0024451GD23991+0054959GD34991+0143359GE19MSL   +99999+99999GF199999999999002441999999MA1102135101555MW1615REMMET11201/01/21 20:28:01 METAR KBLM 020128Z 09009KT 10SM -RA BKN008 BKN018 OVC047 06/06 A3016 RMK AO2 CIG 006V011 P0002
0242724084547602021010201567+40183-074133FM-15+0048KBLM V0200805N00515001835MN0144845N5+00675+00615102075ADDAA101001895AU110020015AW1615GA1085+001835999GD14991+0018359GE19MSL   +99999+99999GF199999999999001831999999MA1102075101495MW1615REMMET10201/01/21 20:56:01 METAR KBLM 020156Z 08010KT 9SM -RA OVC006 07/06 A3014 RMK AO2 SLP207 P0007 T00670061
0244724084547602021010202257+40183-074133FM-15+0048KBLM V0200605N00415001225MN0096565N5+00605+00605999999ADDAA101001895AU120020015AU200001015AW1105AW2625GA1085+001225999GD14991+0012259GE19MSL   +99999+99999GF199999999999001221999999MA1102035101455MW1655REMMET08701/01/21 21:25:01 METAR KBLM 020225Z 06008KT 6SM RA BR OVC004 06/06 A3013 RMK AO2 P0007
0328724084547602021010202567+40183-074133FM-15+0048KBLM V0201005N00625001225MN0096565N5+00615+00565101895ADDAA101003895AA203007191AU120020015AU200001015AW1105AW2625GA1085+001225999GD14991+0012259GE19MSL   +99999+99999GF199999999999001221999999MA1101865101285MD1690609+9999MW1655OC100885REMMET11901/01/21 21:56:01 METAR KBLM 020256Z 10012G17KT 6SM RA BR OVC004 06/06 A3008 RMK AO2 SLP189 P0015 60028 T00610056 56060EQDQ01  00718PRCP03
0262724084547602021010203567+40183-074133FM-15+0048KBLM V0200105N00215001225MN0096565N5+00675+00675101815ADDAA101002595AU110020015AU200001015AW1105AW2615GA1085+001225999GD14991+0012259GE19MSL   +99999+99999GF199999999999001221999999MA1101795101225MW1615REMMET10501/01/21 22:56:01 METAR KBLM 020356Z 01004KT 6SM -RA BR OVC004 07/07 A3006 RMK AO2 SLP181 P0010 T00670067
0236724084547602021010204277+40183-074133FM-15+0048KBLM V0201105N00315001225MN0112655N5+00705+00705999999ADDAA101001895AU110020015AW1615GA1085+001225999GD14991+0012259GE19MSL   +99999+99999GF199999999999001221999999MA1101525100955MW1615REMMET09601/01/21 23:27:02 METAR KBLM 020427Z 11006KT 7SM -RA OVC004 07/07 A2998 RMK AO2 WSHFT 0407 P0007
0327724084547602021010204567+40183-074133FM-15+0048KBLM V0200605N00315000615MN0144845N5+00785+00725101455ADDAA101002395AU110020015AW1615GA1075+000615999GA2085+008845999GD13991+0006159GD24991+0088459GE19MSL   +99999+99999GF199999999999000611999999KA1240M+00781KA2240N-00331MA1101465100885MW1615REMMET13001/01/21 23:56:02 METAR KBLM 020456Z 06006KT 9SM -RA BKN002 OVC029 08/07 A2996 RMK AO2 WSHFT 0407 SLP145 P0009 T00780072 400781033
002772408454760202101020459O+40183-074133SOD  +0048KBLM V020999999999999999999999999999+99999+99999999999ADDAT1AU16RA  5AT2AU13BR  5
0256724084547602021010205427+40183-074133FM-15+0048KBLM V0203505N00365000615MN0028165N5+00705+00705999999ADDAA101000021AU110020015AU200001015AW1105AW2615GA1085+000615999GD14991+0006159GE19MSL   +99999+99999GF199999999999000611999999MA1101355100785MW1615REMMET09901/02/21 00:42:02 METAR KBLM 020542Z 35007KT 1 3/4SM -RA BR OVC002 07/07 A2993 RMK AO2 PRESFR P0000
0360724084547602021010205567+40183-074133FM-15+0048KBLM V0203605N00365000615MN0040235N5+00725+00725101325ADDAA101000395AA206012291AU110020015AU200001015AW1105AW2615GA1085+000615999GD14991+0006159GE19MSL   +99999+99999GF199999999999000611999999KA1060M+00781KA2060N+00441MA1101325100755MD1890569+9999MW1615REMMET13301/02/21 00:56:02 METAR KBLM 020556Z 36007KT 2 1/2SM -RA BR OVC002 07/07 A2992 RMK AO2 SLP132 P0001 60048 T00720072 10078 20044 58056EQDQ01  01218PRCP06
0256724084547602021010206397+40183-074133FM-15+0048KBLM V0209999V00215000615MN0080475N5+00705+00705999999ADDAA101000395AU110020015AU200001015AW1105AW2615GA1085+000615999GD14991+0006159GE19MSL   +99999+99999GF199999999999000611999999MA1101225100645MW1615OC100725REMMET09101/02/21 01:39:02 METAR KBLM 020639Z VRB04G14KT 5SM -RA BR OVC002 07/07 A2989 RMK AO2 P0001
0262724084547602021010206567+40183-074133FM-15+0048KBLM V0200205N00215000615MN0096565N5+00675+00615101135ADDAA101000595AU110020015AU200001015AW1105AW2615GA1085+000615999GD14991+0006159GE19MSL   +99999+99999GF199999999999000611999999MA1101125100545MW1615REMMET10501/02/21 01:56:02 METAR KBLM 020656Z 02004KT 6SM -RA BR OVC002 07/06 A2986 RMK AO2 SLP113 P0002 T00670061
0271724084547602021010207567+40183-074133FM-15+0048KBLM V0200305N00315000615MN0048285N5+00565+00565101035ADDAA101000021AU110020015AU200001015AW1105AW2615GA1085+000615999GD14991+0006159GE19MSL   +99999+99999GF199999999999000611999999MA1101025100445MW1615REMMET11401/02/21 02:56:02 METAR KBLM 020756Z 03006KT 3SM -RA BR OVC002 06/06 A2983 RMK AO2 RAE07B31 SLP103 P0000 T00560056
0297724084547602021010208567+40183-074133FM-15+0048KBLM V0209999C00005000615MN0064375N5+00505+00505100935ADDAA101000021AA203000591AU100001015AW1105GA1085+000615999GD14991+0006159GE19MSL   +99999+99999GF199999999999000611999999MA1100915100345MD1690399+9999REMMET11901/02/21 03:56:02 METAR KBLM 020856Z 00000KT 4SM BR OVC002 05/05 A2980 RMK AO2 RAE27 SLP093 P0000 60002 T00500050 56039EQDQ01  00058PRCP03
0213724084547602021010209367+40183-074133FM-15+0048KBLM V0209999C00005001225MN0064375N5+00505+00505999999ADDAU100001015AW1105GA1085+001225999GD14991+0012251GE19MSL   +99999+99999GF199999999999001221999999MA1100855100275REMMET09001/02/21 04:36:02 METAR KBLM 020936Z 00000KT 4SM BR OVC004 05/05 A2978 RMK AO2 CIG 002V007
0230724084547602021010209567+40183-074133FM-15+0048KBLM V0209999C00005001225MN0048285N5+00505+00505100825ADDAU100001015AW1105GA1085+001225999GD14991+0012251GE19MSL   +99999+99999GF199999999999001221999999MA1100815100245REMMET10701/02/21 04:56:02 METAR KBLM 020956Z 00000KT 3SM BR OVC004 05/05 A2977 RMK AO2 CIG 002V005 SLP082 T00500050
0201724084547602021010210177+40183-074133FM-15+0048KBLM V0202705N00155000615MN0048285N5+00505+00505999999ADDAU100001015AW1105GA1085+000615999GD14991+0006159GE19MSL   +99999+99999GF199999999999000611999999MA1100785100215REMMET07801/02/21 05:17:02 METAR KBLM 021017Z 27003KT 3SM BR OVC002 05/05 A2976 RMK AO2
0205724084547602021010210297+40183-074133FM-15+0048KBLM V0202405N00155001225MN0040235N5+00505+00505999999ADDAU100001015AW1105GA1085+001225999GD14991+0012259GE19MSL   +99999+99999GF199999999999001221999999MA1100785100215REMMET08201/02/21 05:29:02 METAR KBLM 021029Z 24003KT 2 1/2SM BR OVC004 05/05 A2976 RMK AO2
0205724084547602021010210467+40183-074133FM-15+0048KBLM V0202605N00155001225MN0028165N5+00505+00505999999ADDAU100001015AW1105GA1085+001225999GD14991+0012259GE19MSL   +99999+99999GF199999999999001221999999MA1100785100215REMMET08201/02/21 05:46:02 METAR KBLM 021046Z 26003KT 1 3/4SM BR OVC004 05/05 A2976 RMK AO2
0222724084547602021010210567+40183-074133FM-15+0048KBLM V0202705N00215000615MN0028165N5+00505+00505100815ADDAU100001015AW1105GA1085+000615999GD14991+0006159GE19MSL   +99999+99999GF199999999999000611999999MA1100815100245REMMET09901/02/21 05:56:02 METAR KBLM 021056Z 27004KT 1 3/4SM BR OVC002 05/05 A2977 RMK AO2 SLP081 T00500050
0201724084547602021010211327+40183-074133FM-15+0048KBLM V0202805N00365000615MN0032195N5+00605+00505999999ADDAU100001015AW1105GA1085+000615999GD14991+0006159GE19MSL   +99999+99999GF199999999999000611999999MA1100885100315REMMET07801/02/21 06:32:02 METAR KBLM 021132Z 28007KT 2SM BR OVC002 06/05 A2979 RMK AO2
0345724084547602021010211567+40183-074133FM-15+0048KBLM V0202605N00365000615MN0048285N5+00505+00505100945ADDAA106000591AA224015591AU100001015AW1105GA1085+000615999GD14991+0006159GE19MSL   +99999+99999GF199999999999000611999999KA1060M+00721KA2060N+00501MA1100915100345MD1390019+9999REMMET12501/02/21 06:56:02 METAR KBLM 021156Z 26007KT 3SM BR OVC002 05/05 A2980 RMK AO2 SLP094 60002 70061 T00500050 10072 20050 53001EQDQ01  00058PRCP06Q02  01548PRCP24
0222724084547602021010212357+40183-074133FM-15+0048KBLM V0202505N00675001225MN0160935N5+00605+00605999999ADDAA101000395GA1085+001225999GD14991+0012251GE19MSL   +99999+99999GF199999999999001221999999MA1100915100345OC100935REMMET09701/02/21 07:35:02 METAR KBLM 021235Z 25013G18KT 10SM OVC004 06/06 A2980 RMK AO2 CIG 002V006 P0001
0227724084547602021010212567+40183-074133FM-15+0048KBLM V0202605N00625001835MN0160935N5+00565+00505100955ADDAA101000395GA1085+001835999GD14991+0018359GE19MSL   +99999+99999GF199999999999001831999999MA1100955100375OC101085REMMET10201/02/21 07:56:02 METAR KBLM 021256Z 26012G21KT 10SM OVC006 06/05 A2981 RMK AO2 SLP095 P0001 T00560050
0222724084547602021010213567+40183-074133FM-15+0048KBLM V0202605N00625002445MN0160935N5+00615+00505100985ADDGA1075+002445999GD13991+0024451GE19MSL   +99999+99999GF199999999999002441999999MA1100985100415OC100885REMMET10801/02/21 08:56:02 METAR KBLM 021356Z 26012G17KT 10SM BKN008 06/05 A2982 RMK AO2 CIG 006V010 SLP098 T00610050
0212724084547602021010214247+40183-074133FM-15+0048KBLM V0202605N007752200059N0160935N5+00705+00505999999ADDGA1045+002445999GD12991+0024459GE19AGL   +99999+99999GF104995999999002441999999MA1100985100415OC101135REMMET07901/02/21 09:24:02 METAR KBLM 021424Z 26015G22KT 10SM SCT008 07/05 A2982 RMK AO2EQDD01      0ADE726
0282724084547602021010214567+40183-074133FM-15+0048KBLM V0202805N006252200059N0160935N5+00835+00505101035ADDAA103000391GA1045+003055999GD12991+0030559GE19AGL   +99999+99999GF104995999999003051999999MA1101025100445MD1390109+9999OC101135REMMET10801/02/21 09:56:02 METAR KBLM 021456Z 28012G22KT 10SM SCT010 08/05 A2983 RMK AO2 SLP103 60001 T00830050 53010EQDQ01  00028PRCP03D01      0ADE726
0203724084547602021010215567+40183-074133FM-15+0048KBLM V0202805N007752200059N0160935N5+01065+00505101075ADDGA1005+999999999GD10991+9999999GF100991999999999999999999MA1101055100485OC101035REMMET11101/02/21 10:56:02 METAR KBLM 021556Z 28015G20KT 10SM CLR 11/05 A2984 RMK AO2 PK WND 28026/1501 SLP107 T01060050
0242724084547602021010216567+40183-074133FM-15+0048KBLM V0202805N00885010975MN0160935N5+01065+00445101045ADDGA1085+010975999GD14991+0109759GE19MSL   +99999+99999GF199999999999010971999999MA1101055100485OC101545OD149901641270REMMET11401/02/21 11:56:02 METAR KBLM 021656Z 28017G30KT 10SM OVC036 11/04 A2984 RMK AO2 PK WND 27032/1642 SLP104 T01060044
0336724084547602021010217567+40183-074133FM-15+0048KBLM V0202805N01085009755MN0160935N5+01115+00445101055ADDAA106000391GA1085+009755999GD14991+0097559GE19MSL   +99999+99999GF199999999999009751999999KA1060M+01111KA2060N+00561MA1101055100485MD1190029+9999OC101395OD149901591280REMMET13801/02/21 12:56:02 METAR KBLM 021756Z 28021G27KT 10SM OVC032 11/04 A2984 RMK AO2 PK WND 28031/1721 SLP105 60001 T01110044 10111 20056 51002EQDQ01  00028PRCP06
0242724084547602021010218567+40183-074133FM-15+0048KBLM V0202905N00935010365MN0160935N5+01115+00395101145ADDGA1085+010365999GD14991+0103659GE19MSL   +99999+99999GF199999999999010361999999MA1101155100585OC101245OD149901641280REMMET11401/02/21 13:56:02 METAR KBLM 021856Z 29018G24KT 10SM OVC034 11/04 A2987 RMK AO2 PK WND 28032/1757 SLP114 T01110039
0242724084547602021010219567+40183-074133FM-15+0048KBLM V0202905N00935009755MN0160935N5+01005+00335101315ADDGA1085+009755999GD14991+0097559GE19MSL   +99999+99999GF199999999999009751999999MA1101295100715OC101245OD149901331290REMMET11401/02/21 14:56:02 METAR KBLM 021956Z 29018G24KT 10SM OVC032 10/03 A2991 RMK AO2 PK WND 29026/1912 SLP131 T01000033
0256724084547602021010220567+40183-074133FM-15+0048KBLM V0203005N009352200059N0160935N5+00945+00285101445ADDGA1025+009755999GD11991+0097559GE19AGL   +99999+99999GF102995999999009751999999MA1101425100855MD1390399+9999REMMET11701/02/21 15:56:02 METAR KBLM 022056Z 30018KT 10SM FEW032 09/03 A2995 RMK AO2 PK WND 30028/2017 SLP144 T00940028 53039EQDD01      0ADE726
0174724084547602021010221567+40183-074133FM-15+0048KBLM V0202905N006252200059N0160935N5+00835+00115101585ADDGA1005+999999999GD10991+9999999GF100991999999999999999999MA1101565100985REMMET09001/02/21 16:56:02 METAR KBLM 022156Z 29012KT 10SM CLR 08/01 A2999 RMK AO2 SLP158 T00830011
0174724084547602021010222567+40183-074133FM-15+0048KBLM V0203005N006252200059N0160935N5+00725+00065101685ADDGA1005+999999999GD10991+9999999GF100991999999999999999999MA1101665101085REMMET09001/02/21 17:56:02 METAR KBLM 022256Z 30012KT 10SM CLR 07/01 A3002 RMK AO2 SLP168 T00720006
0232724084547602021010223567+40183-074133FM-15+0048KBLM V0203105N004152200059N0160935N5+00565+00065101825ADDGA1005+999999999GD10991+9999999GF100991999999999999999999KA1060M+01171KA2060N+00561MA1101835101255MD1390399+9999REMMET10801/02/21 18:56:02 METAR KBLM 022356Z 31008KT 10SM CLR 06/01 A3007 RMK AO2 SLP182 T00560006 10117 20056 53039
0175724084547602021010300567+40183-074133FM-15+0048KBLM V0203205N002652200059N0160935N5+00505-00065101925ADDGA1005+999999999GD10991+9999999GF100991999999999999999999MA1101935101355REMMET09101/02/21 19:56:01 METAR KBLM 030056Z 32005KT 10SM CLR 05/M01 A3010 RMK AO2 SLP192 T00501006
0175724084547602021010301567+40183-074133FM-15+0048KBLM V0203205N002652200059N0160935N5+00335-00065101945ADDGA1005+999999999GD10991+9999999GF100991999999999999999999MA1101935101355REMMET09101/02/21 20:56:01 METAR KBLM 030156Z 32005KT 10SM CLR 03/M01 A3010 RMK AO2 SLP194 T00331006
0195724084547602021010302567+40183-074133FM-15+0048KBLM V0203305N004152200059N0160935N5+00335-00115101935ADDGA1005+999999999GD10991+9999999GF100991999999999999999999MA1101935101355MD1090109+9999REMMET09701/02/21 21:56:01 METAR KBLM 030256Z 33008KT 10SM CLR 03/M01 A3010 RMK AO2 SLP193 T00331011 50010
0182724084547602021010303567+40183-074133FM-15+0048KBLM V0203205N003652200059N0160935N5+00225-00175101955ADDGA1005+999999999GD10991+9999999GF100991999999999999999999MA1101935101355REMMET09801/02/21 22:56:01 METAR KBLM 030356Z 32007KT 10SM CLR 02/M02 A3010 RMK AO2 SLP195 T00221017 FZRANO
0218724084547602021010304567+40183-074133FM-15+0048KBLM V0203505N003152200059N0160935N5+00225-00175101985ADDGA1005+999999999GD10991+9999999GF100991999999999999999999KA1240M+01171KA2240N+00171MA1101965101395REMMET10801/02/21 23:56:02 METAR KBLM 030456Z 35006KT 10SM CLR 02/M02 A3011 RMK AO2 SLP198 T00221017 401170017 FZRANO
002772408454760202101030459O+40183-074133SOD  +0048KBLM V020999999999999999999999999999+99999+99999999999ADDAT1AU16RA  5AT2AU13BR  5
0240724084547602021010305567+40183-074133FM-15+0048KBLM V0203305N001552200059N0160935N5+00175-00175101995ADDGA1005+999999999GD10991+9999999GF100991999999999999999999KA1060M+00561KA2060N+00171MA1102005101425MD1190069+9999REMMET11601/03/21 00:56:02 METAR KBLM 030556Z 33003KT 10SM CLR 02/M02 A3012 RMK AO2 SLP199 T00171017 10056 20017 51006 FZRANO
0182724084547602021010306567+40183-074133FM-15+0048KBLM V0200105N003152200059N0160935N5+00175-00115101955ADDGA1005+999999999GD10991+9999999GF100991999999999999999999MA1101965101395REMMET09801/03/21 01:56:02 METAR KBLM 030656Z 01006KT 10SM CLR 02/M01 A3011 RMK AO2 SLP195 T00171011 FZRANO
0182724084547602021010307567+40183-074133FM-15+0048KBLM V0200105N002652200059N0160935N5+00225-00115101985ADDGA1005+999999999GD10991+9999999GF100991999999999999999999MA1101965101395REMMET09801/03/21 02:56:02 METAR KBLM 030756Z 01005KT 10SM CLR 02/M01 A3011 RMK AO2 SLP198 T00221011 FZRANO
0202724084547602021010308567+40183-074133FM-15+0048KBLM V0200305N003652200059N0160935N5+00285-00115101925ADDGA1005+999999999GD10991+9999999GF100991999999999999999999MA1101905101325MD1890079+9999REMMET10401/03/21 03:56:02 METAR KBLM 030856Z 03007KT 10SM CLR 03/M01 A3009 RMK AO2 PRESFR SLP192 T00281011 58007
0193724084547602021010309567+40183-074133FM-15+0048KBLM V0200605N007252200059N0160935N5+00335-00065101765ADDGA1005+999999999GD10991+9999999GF100991999999999999999999MA1101765101185OC100885REMMET10101/03/21 04:56:02 METAR KBLM 030956Z 06014G17KT 10SM CLR 03/M01 A3005 RMK AO2 PRESFR SLP176 T00331006
0189724084547602021010310497+40183-074133FM-15+0048KBLM V0200405N00315004575MN0160935N5+00305+00105999999ADDGA1075+004575999GD13991+0045759GE19MSL   +99999+99999GF199999999999004571999999MA1101965101395REMMET08301/03/21 05:49:02 METAR KBLM 031049Z 04006KT 10SM BKN015 03/01 A3011 RMK AO2 PRESRR
0199724084547602021010310567+40183-074133FM-15+0048KBLM V0200605N00365004575MN0160935N5+00335+00065101995ADDGA1075+004575999GD13991+0045759GE19MSL   +99999+99999GF199999999999004571999999MA1102005101425REMMET09301/03/21 05:56:02 METAR KBLM 031056Z 06007KT 10SM BKN015 03/01 A3012 RMK AO2 SLP199 T00330006
0300724084547602021010311567+40183-074133FM-15+0048KBLM V0200305N00315004575MN0160935N5+00395+00115102065ADDAA124000391GA1085+004575999GD14991+0045759GE19MSL   +99999+99999GF199999999999004571999999KA1060M+00391KA2060N+00171MA1102035101455MD1390149+9999REMMET12401/03/21 06:56:02 METAR KBLM 031156Z 03006KT 10SM OVC015 04/01 A3013 RMK AO2 PRESRR SLP206 70001 T00390011 10039 20017 53014EQDQ01  00028PRCP24
0249724084547602021010312567+40183-074133FM-15+0048KBLM V0200805N00575004575MN0160935N5+00445+00225101925ADDAA101000021AU110020015AW1615GA1085+004575999GD14991+0045759GE19MSL   +99999+99999GF199999999999004571999999MA1101905101325MW1615REMMET10901/03/21 07:56:02 METAR KBLM 031256Z 08011KT 10SM -RA OVC015 04/02 A3009 RMK AO2 RAB35 SLP192 P0000 T00440022
0263724084547602021010313517+40183-074133FM-15+0048KBLM V0200305N00365003355MN0160935N5+00305+00205999999ADDAA101001395AU120020015AW1625GA1075+003355999GA2085+005185999GD13991+0033559GD24991+0051859GE19MSL   +99999+99999GF199999999999003351999999MA1101965101395MW1655REMMET09201/03/21 08:51:02 METAR KBLM 031351Z 03007KT 10SM RA BKN011 OVC017 03/02 A3011 RMK AO2 P0005
0280724084547602021010313567+40183-074133FM-15+0048KBLM V0200305N00365003355MN0144845N5+00335+00225101985ADDAA101001595AU110020015AW1615GA1075+003355999GA2085+005185999GD13991+0033559GD24991+0051859GE19MSL   +99999+99999GF199999999999003351999999MA1101965101395MW1615REMMET10901/03/21 08:56:02 METAR KBLM 031356Z 03007KT 9SM -RA BKN011 OVC017 03/02 A3011 RMK AO2 SLP198 P0006 T00330022
0317724084547602021010314567+40183-074133FM-15+0048KBLM V0200205N00575003355MN0144845N5+00335+00285101865ADDAA101001895AA203003391AU110020015AW1615GA1085+003355999GD14991+0033551GE19MSL   +99999+99999GF199999999999003351999999MA1101865101285MD1890059+9999MW1615REMMET13301/03/21 09:56:02 METAR KBLM 031456Z 02011KT 9SM -RA OVC011 03/03 A3008 RMK AO2 CIG 007V012 PRESFR SLP186 P0007 60013 T00330028 58005EQDQ01  00338PRCP03
0245724084547602021010315077+40183-074133FM-15+0048KBLM V0200305N00575002745MN0160935N5+00305+00305999999ADDAA101000021AU110020015AW1615GA1085+002745999GD14991+0027451GE19MSL   +99999+99999GF199999999999002741999999MA1101765101185MW1615REMMET10501/03/21 10:07:02 METAR KBLM 031507Z 03011KT 10SM -RA OVC009 03/03 A3005 RMK AO2 CIG 007V012 PRESFR P0000
0243724084547602021010315567+40183-074133FM-15+0048KBLM V0200305N00465002135MN0160935N5+00335+00285101735ADDAA101000021AU110020015AW1615GA1085+002135999GD14991+0021359GE19MSL   +99999+99999GF199999999999002131999999MA1101735101155MW1615REMMET10301/03/21 10:56:02 METAR KBLM 031556Z 03009KT 10SM -RA OVC007 03/03 A3004 RMK AO2 SLP173 P0000 T00330028
0270724084547602021010316567+40183-074133FM-15+0048KBLM V0200405N00575002135MN0160935N5+00445+00335101495ADDAA101000021AU110020015AW1615GA1085+002135999GD14991+0021359GE19MSL   +99999+99999GF199999999999002131999999MA1101495100915MW1615OC100985REMMET12201/03/21 11:56:02 METAR KBLM 031656Z 04011G19KT 10SM -RA OVC007 04/03 A2997 RMK AO2 RAE00B26 PRESFR SLP149 P0000 T00440033
0233724084547602021010317077+40183-074133FM-15+0048KBLM V0200405N00575001525MN0160935N5+00405+00405999999ADDAA101000021AU110020015AW1615GA1085+001525999GD14991+0015259GE19MSL   +99999+99999GF199999999999001521999999MA1101425100855MW1615REMMET09301/03/21 12:07:02 METAR KBLM 031707Z 04011KT 10SM -RA OVC005 04/04 A2995 RMK AO2 PRESFR P0000
0372724084547602021010317567+40183-074133FM-15+0048KBLM V0200405N00415001525MN0040235V5+00505+00445101375ADDAA101000395AA206003691AU110020015AU200001015AW1105AW2615GA1085+001525999GD14991+0015259GE19MSL   +99999+99999GF199999999999001521999999KA1060M+00501KA2060N+00331MA1101355100785MD1690499+9999MW1615REMMET14501/03/21 12:56:02 METAR KBLM 031756Z 04008KT 2 1/2SM -RA BR OVC005 05/04 A2993 RMK AO2 VIS 1 1/2V4 SLP137 P0001 60014 T00500044 10050 20033 56049EQDQ01  00358PRCP06
0249724084547602021010318217+40183-074133FM-15+0048KBLM V0200305N00415001525MN0028165N5+00605+00505999999ADDAA101000595AU110020015AU200001015AW1105AW2615GA1085+001525999GD14991+0015259GE19MSL   +99999+99999GF199999999999001521999999MA1101325100755MW1615REMMET09201/03/21 13:21:02 METAR KBLM 031821Z 03008KT 1 3/4SM -RA BR OVC005 06/05 A2992 RMK AO2 P0002
0245724084547602021010318247+40183-074133FM-15+0048KBLM V0200305N00415000915MN0032195N5+00605+00505999999ADDAA101000595AU110020015AU200001015AW1105AW2615GA1085+000915999GD14991+0009159GE19MSL   +99999+99999GF199999999999000911999999MA1101325100755MW1615REMMET08801/03/21 13:24:02 METAR KBLM 031824Z 03008KT 2SM -RA BR OVC003 06/05 A2992 RMK AO2 P0002
0245724084547602021010318537+40183-074133FM-15+0048KBLM V0200305N00365000915MN0048285N5+00605+00605999999ADDAA101001095AU110020015AU200001015AW1105AW2615GA1085+000915999GD14991+0009159GE19MSL   +99999+99999GF199999999999000911999999MA1101355100785MW1615REMMET08801/03/21 13:53:02 METAR KBLM 031853Z 03007KT 3SM -RA BR OVC003 06/06 A2993 RMK AO2 P0004
0262724084547602021010318567+40183-074133FM-15+0048KBLM V0200305N00365000915MN0064375N5+00565+00565101375ADDAA101001095AU110020015AU200001015AW1105AW2615GA1085+000915999GD14991+0009159GE19MSL   +99999+99999GF199999999999000911999999MA1101355100785MW1615REMMET10501/03/21 13:56:02 METAR KBLM 031856Z 03007KT 4SM -RA BR OVC003 06/06 A2993 RMK AO2 SLP137 P0004 T00560056
0245724084547602021010319417+40183-074133FM-15+0048KBLM V0200305N00415000915MN0032195N5+00605+00605999999ADDAA101000895AU110020015AU200001015AW1105AW2615GA1085+000915999GD14991+0009159GE19MSL   +99999+99999GF199999999999000911999999MA1101325100755MW1615REMMET08801/03/21 14:41:02 METAR KBLM 031941Z 03008KT 2SM -RA BR OVC003 06/06 A2992 RMK AO2 P0003
0266724084547602021010319567+40183-074133FM-15+0048KBLM V0200205N00465000915MN0028165N5+00565+00505101315ADDAA101001095AU110020015AU200001015AW1105AW2615GA1085+000915999GD14991+0009159GE19MSL   +99999+99999GF199999999999000911999999MA1101325100755MW1615REMMET10901/03/21 14:56:02 METAR KBLM 031956Z 02009KT 1 3/4SM -RA BR OVC003 06/05 A2992 RMK AO2 SLP131 P0004 T00560050
0245724084547602021010320087+40183-074133FM-15+0048KBLM V0200305N00515000915MN0032195N5+00605+00505999999ADDAA101000395AU110020015AU200001015AW1105AW2615GA1085+000915999GD14991+0009159GE19MSL   +99999+99999GF199999999999000911999999MA1101295100715MW1615REMMET08801/03/21 15:08:02 METAR KBLM 032008Z 03010KT 2SM -RA BR OVC003 06/05 A2991 RMK AO2 P0001
0322724084547602021010320567+40183-074133FM-15+0048KBLM V0200305N00575000915MN0040235N5+00505+00445101285ADDAA101000895AA203002891AU110020015AU200001015AW1105AW2615GA1085+000915999GD14991+0009159GE19MSL   +99999+99999GF199999999999000911999999MA1101295100715MD1890099+9999MW1615REMMET12101/03/21 15:56:02 METAR KBLM 032056Z 03011KT 2 1/2SM -RA BR OVC003 05/04 A2991 RMK AO2 SLP128 P0003 60011 T00500044 58009EQDQ01  00278PRCP03
0245724084547602021010321407+40183-074133FM-15+0048KBLM V0200405N00465000915MN0048285N5+00505+00505999999ADDAA101000595AU110020015AU200001015AW1105AW2615GA1085+000915999GD14991+0009159GE19MSL   +99999+99999GF199999999999000911999999MA1101295100715MW1615REMMET08801/03/21 16:40:02 METAR KBLM 032140Z 04009KT 3SM -RA BR OVC003 05/05 A2991 RMK AO2 P0002
0262724084547602021010321567+40183-074133FM-15+0048KBLM V0200405N00575000915MN0064375N5+00505+00445101285ADDAA101001395AU110020015AU200001015AW1105AW2615GA1085+000915999GD14991+0009159GE19MSL   +99999+99999GF199999999999000911999999MA1101255100685MW1615REMMET10501/03/21 16:56:02 METAR KBLM 032156Z 04011KT 4SM -RA BR OVC003 05/04 A2990 RMK AO2 SLP128 P0005 T00500044
0261724084547602021010322567+40183-074133FM-15+0048KBLM V0200305N00515000915MN0064375N5+00505+00445101305ADDAA101002395AU120020015AU200001015AW1105AW2625GA1085+000915999GD14991+0009159GE19MSL   +99999+99999GF199999999999000911999999MA1101295100715MW1655REMMET10401/03/21 17:56:02 METAR KBLM 032256Z 03010KT 4SM RA BR OVC003 05/04 A2991 RMK AO2 SLP130 P0009 T00500044
0245724084547602021010323047+40183-074133FM-15+0048KBLM V0200405N00465001525MN0064375N5+00505+00405999999ADDAA101000895AU110020015AU200001015AW1105AW2615GA1085+001525999GD14991+0015259GE19MSL   +99999+99999GF199999999999001521999999MA1101325100755MW1615REMMET08801/03/21 18:04:02 METAR KBLM 032304Z 04009KT 4SM -RA BR OVC005 05/04 A2992 RMK AO2 P0003
0347724084547602021010323567+40183-074133FM-15+0048KBLM V0200205N00625001525MN0112655N5+00445+00395101365ADDAA101001595AA206007991AU110020015AW1615GA1085+001525999GD14991+0015259GE19MSL   +99999+99999GF199999999999001521999999KA1060M+00561KA2060N+00441MA1101355100785MD1390069+9999MW1615OC100825REMMET12901/03/21 18:56:02 METAR KBLM 032356Z 02012G16KT 7SM -RA OVC005 04/04 A2993 RMK AO2 SLP136 P0006 60031 T00440039 10056 20044 53006EQDQ01  00788PRCP06
0262724084547602021010400567+40183-074133FM-15+0048KBLM V0200105N00415001525MN0064375N5+00395+00395101385ADDAA101000595AU110020015AU200001015AW1105AW2615GA1085+001525999GD14991+0015259GE19MSL   +99999+99999GF199999999999001521999999MA1101355100785MW1615REMMET10501/03/21 19:56:01 METAR KBLM 040056Z 01008KT 4SM -RA BR OVC005 04/04 A2993 RMK AO2 SLP138 P0002 T00390039
0245724084547602021010401447+40183-074133FM-15+0048KBLM V0200305N00465000915MN0048285N5+00405+00305999999ADDAA101000395AU110020015AU200001015AW1105AW2615GA1085+000915999GD14991+0009159GE19MSL   +99999+99999GF199999999999000911999999MA1101355100785MW1615REMMET08801/03/21 20:44:01 METAR KBLM 040144Z 03009KT 3SM -RA BR OVC003 04/03 A2993 RMK AO2 P0001
0262724084547602021010401567+40183-074133FM-15+0048KBLM V0200305N00465000915MN0064375N5+00395+00335101345ADDAA101000395AU110020015AU200001015AW1105AW2615GA1085+000915999GD14991+0009159GE19MSL   +99999+99999GF199999999999000911999999MA1101325100755MW1615REMMET10501/03/21 20:56:01 METAR KBLM 040156Z 03009KT 4SM -RA BR OVC003 04/03 A2992 RMK AO2 SLP134 P0001 T00390033
0313724084547602021010402567+40183-074133FM-15+0048KBLM V0200305N00575000915MN0080475N5+00445+00395101355ADDAA101000021AA203000891AU100001015AW1105GA1085+000915999GD14991+0009159GE19MSL   +99999+99999GF199999999999000911999999MA1101355100785MD1190009+9999REMMET11901/03/21 21:56:01 METAR KBLM 040256Z 03011KT 5SM BR OVC003 04/04 A2993 RMK AO2 RAE36 SLP135 P0000 60003 T00440039 51000EQDQ010     3APC3  Q02  00078PRCP03
0211724084547602021010403567+40183-074133FM-15+0048KBLM V0200505N00575001525MN0160935N5+00445+00335101335ADDGA1085+001525999GD14991+0015251GE19MSL   +99999+99999GF199999999999001521999999MA1101325100755REMMET10501/03/21 22:56:01 METAR KBLM 040356Z 05011KT 10SM OVC005 04/03 A2992 RMK AO2 CIG 004V007 SLP133 T00440033
0182724084547602021010404207+40183-074133FM-15+0048KBLM V0200305N00575002135MN0160935N5+00405+00305999999ADDGA1085+002135999GD14991+0021359GE19MSL   +99999+99999GF199999999999002131999999MA1101325100755REMMET07601/03/21 23:20:02 METAR KBLM 040420Z 03011KT 10SM OVC007 04/03 A2992 RMK AO2
0235724084547602021010404567+40183-074133FM-15+0048KBLM V0200305N00415002135MN0160935N5+00395+00335101325ADDGA1085+002135999GD14991+0021359GE19MSL   +99999+99999GF199999999999002131999999KA1240M+00561KA2240N+00171MA1101325100755REMMET10301/03/21 23:56:02 METAR KBLM 040456Z 03008KT 10SM OVC007 04/03 A2992 RMK AO2 SLP132 T00390033 400560017
002772408454760202101040459O+40183-074133SOD  +0048KBLM V020999999999999999999999999999+99999+99999999999ADDAT1AU16RA  5AT2AU13BR  5
0358724084547602021010405567+40183-074133FM-15+0048KBLM V0200105N00365002135MN0112655N5+00395+00285101365ADDAA101000021AA206000891AU110020015AW1615GA1085+002135999GD14991+0021359GE19MSL   +99999+99999GF199999999999002131999999KA1060M+00441KA2060N+00391MA1101355100785MD1390009+9999MW1615REMMET13201/04/21 00:56:02 METAR KBLM 040556Z 01007KT 7SM -RA OVC007 04/03 A2993 RMK AO2 RAB00 SLP136 P0000 60003 T00390028 10044 20039 53000EQDQ010     3APC3  Q02  00078PRCP06
0237724084547602021010406417+40183-074133FM-15+0048KBLM V0203405N00365001225MN0128755N5+00305+00305999999ADDAA101000395AU110020015AW1615GA1085+001225999GD14991+0012251GE19MSL   +99999+99999GF199999999999001221999999MA1101395100815MW1615REMMET09701/04/21 01:41:02 METAR KBLM 040641Z 34007KT 8SM -RA OVC004 03/03 A2994 RMK AO2 CIG 004V008 P0001
0242724084547602021010406567+40183-074133FM-15+0048KBLM V0203305N00415001225MN0144845N5+00335+00285101425ADDAA101000595AU110020015AW1615GA1085+001225999GD14991+0012259GE19MSL   +99999+99999GF199999999999001221999999MA1101395100815MW1615REMMET10201/04/21 01:56:02 METAR KBLM 040656Z 33008KT 9SM -RA OVC004 03/03 A2994 RMK AO2 SLP142 P0002 T00330028
0265724084547602021010407567+40183-074133FM-15+0048KBLM V0203505N00365001225MN0160935N5+00285+00225101435ADDAA101000395AU120090015AW1401AW2415GA1085+001225999GD14991+0012251GE19MSL   +99999+99999GF199999999999001221999999MA1101425100855REMMET12501/04/21 02:56:02 METAR KBLM 040756Z 35007KT 10SM UP OVC004 03/02 A2995 RMK AO2 RAE43UPB43 CIG 004V009 SLP143 P0001 T00280022
0246724084547602021010408227+40183-074133FM-15+0048KBLM V0203505N00315001835MN0160935N5+00305+00205999999ADDAA101000021AU120090015AW1401AW2415GA1085+001835999GD14991+0018351GE19MSL   +99999+99999GF199999999999001831999999MA1101395100815REMMET10601/04/21 03:22:02 METAR KBLM 040822Z 35006KT 10SM UP OVC006 03/02 A2994 RMK AO2 RAB04E16 CIG 004V009 P0000
0298724084547602021010408567+40183-074133FM-15+0048KBLM V0203305N00365001835MN0160935N5+00285+00225101415ADDAA101000021AA203000891GA1085+001835999GD14991+0018351GE19MSL   +99999+99999GF199999999999001831999999MA1101425100855MD1090069+9999REMMET13701/04/21 03:56:02 METAR KBLM 040856Z 33007KT 10SM OVC006 03/02 A2995 RMK AO2 UPE31RAB04E32 CIG 005V009 SLP141 P0000 60003 T00280022 50006EQDQ01  00078PRCP03
0188724084547602021010409257+40183-074133FM-15+0048KBLM V0203405N00365001225MN0144845N5+00205+00205999999ADDGA1085+001225999GD14991+0012259GE19MSL   +99999+99999GF199999999999001221999999MA1101395100815REMMET08201/04/21 04:25:02 METAR KBLM 040925Z 34007KT 9SM OVC004 02/02 A2994 RMK AO2 FZRANO
0205724084547602021010409567+40183-074133FM-15+0048KBLM V0203405N00365001225MN0144845N5+00225+00175101445ADDGA1085+001225999GD14991+0012259GE19MSL   +99999+99999GF199999999999001221999999MA1101425100855REMMET09901/04/21 04:56:02 METAR KBLM 040956Z 34007KT 9SM OVC004 02/02 A2995 RMK AO2 SLP144 T00220017 FZRANO
0206724084547602021010410567+40183-074133FM-15+0048KBLM V0202805N00265001225MN0160935N5+00175+00115101545ADDGA1085+001225999GD14991+0012259GE19MSL   +99999+99999GF199999999999001221999999MA1101525100955REMMET10001/04/21 05:56:02 METAR KBLM 041056Z 28005KT 10SM OVC004 02/01 A2998 RMK AO2 SLP154 T00170011 FZRANO
0201724084547602021010411367+40183-074133FM-15+0048KBLM V0203305N00365001835MN0160935N5+00205+00105999999ADDGA1085+001835999GD14991+0018351GE19MSL   +99999+99999GF199999999999001831999999MA1101565100985REMMET09501/04/21 06:36:02 METAR KBLM 041136Z 33007KT 10SM OVC006 02/01 A2999 RMK AO2 CIG 004V009 FZRANO
0345724084547602021010411567+40183-074133FM-15+0048KBLM V0203505N00315002445MN0160935N5+00175+00115101555ADDAA106000891AA224013091GA1085+002445999GD14991+0024451GE19MSL   +99999+99999GF199999999999002441999999KA1060M+00391KA2060N+00171MA1101525100955MD1190139+9999REMMET14201/04/21 06:56:02 METAR KBLM 041156Z 35006KT 10SM OVC008 02/01 A2998 RMK AO2 CIG 005V010 SLP155 60003 70051 T00170011 10039 20017 51013 FZRANOEQDQ01  00078PRCP06Q02  01298PRCP24
0218724084547602021010412567+40183-074133FM-15+0048KBLM V0203505N00365002445MN0160935N5+00175+00115101565ADDGA1085+002445999GD14991+0024451GE19MSL   +99999+99999GF199999999999002441999999MA1101565100985REMMET11201/04/21 07:56:02 METAR KBLM 041256Z 35007KT 10SM OVC008 02/01 A2999 RMK AO2 CIG 005V010 SLP156 T00170011 FZRANO
0189724084547602021010413167+40183-074133FM-15+0048KBLM V0203605N00415003055MN0160935N5+00205+00105999999ADDGA1085+003055999GD14991+0030559GE19MSL   +99999+99999GF199999999999003051999999MA1101565100985REMMET08301/04/21 08:16:02 METAR KBLM 041316Z 36008KT 10SM OVC010 02/01 A2999 RMK AO2 FZRANO
0239724084547602021010413357+40183-074133FM-15+0048KBLM V0203405N00415002445MN0160935N5+00205+00105999999ADDGA1075+002445999GA2085+018295999GD13991+0024451GD24991+0182959GE19MSL   +99999+99999GF199999999999002441999999MA1101595101015REMMET10201/04/21 08:35:02 METAR KBLM 041335Z 34008KT 10SM BKN008 OVC060 02/01 A3000 RMK AO2 CIG 006V011 FZRANO
0244724084547602021010413567+40183-074133FM-15+0048KBLM V0203305N00315002445MN0160935N5+00225+00115101635ADDGA1075+002445999GA2085+018295999GD13991+0024459GD24991+0182959GE19MSL   +99999+99999GF199999999999002441999999MA1101635101055REMMET10701/04/21 08:56:02 METAR KBLM 041356Z 33006KT 10SM BKN008 OVC060 02/01 A3001 RMK AO2 SLP163 T00220011 FZRANO
0219724084547602021010414567+40183-074133FM-15+0048KBLM V0203305N00365002445MN0160935N5+00335+00115101675ADDGA1085+002445999GD14991+0024459GE19MSL   +99999+99999GF199999999999002441999999MA1101665101085MD1390139+9999REMMET09901/04/21 09:56:02 METAR KBLM 041456Z 33007KT 10SM OVC008 03/01 A3002 RMK AO2 SLP167 T00330011 53013
0182724084547602021010415127+40183-074133FM-15+0048KBLM V0203105N00315003055MN0160935N5+00305+00105999999ADDGA1085+003055999GD14991+0030559GE19MSL   +99999+99999GF199999999999003051999999MA1101665101085REMMET07601/04/21 10:12:02 METAR KBLM 041512Z 31006KT 10SM OVC010 03/01 A3002 RMK AO2
0199724084547602021010415567+40183-074133FM-15+0048KBLM V0203205N00265003055MN0160935N5+00395+00115101635ADDGA1085+003055999GD14991+0030559GE19MSL   +99999+99999GF199999999999003051999999MA1101635101055REMMET09301/04/21 10:56:02 METAR KBLM 041556Z 32005KT 10SM OVC010 04/01 A3001 RMK AO2 SLP163 T00390011
0220724084547602021010416317+40183-074133FM-15+0048KBLM V0203205N00315014025MN0160935N5+00405+00105999999ADDGA1045+003665999GA2085+014025999GD12991+0036659GD24991+0140259GE19MSL   +99999+99999GF199999999999003661999999MA1101565100985REMMET08301/04/21 11:31:02 METAR KBLM 041631Z 32006KT 10SM SCT012 OVC046 04/01 A2999 RMK AO2
0199724084547602021010416567+40183-074133FM-15+0048KBLM V0200105N00265014025MN0160935N5+00395+00115101505ADDGA1085+014025999GD14991+0140259GE19MSL   +99999+99999GF199999999999014021999999MA1101495100915REMMET09301/04/21 11:56:02 METAR KBLM 041656Z 01005KT 10SM OVC046 04/01 A2997 RMK AO2 SLP150 T00390011
0220724084547602021010417397+40183-074133FM-15+0048KBLM V0203305N00315004575MN0160935N5+00505+00105999999ADDGA1075+004575999GA2085+014945999GD13991+0045759GD24991+0149459GE19MSL   +99999+99999GF199999999999004571999999MA1101465100885REMMET08301/04/21 12:39:02 METAR KBLM 041739Z 33006KT 10SM BKN015 OVC049 05/01 A2996 RMK AO2
0220724084547602021010417467+40183-074133FM-15+0048KBLM V0203305N00265014945MN0160935N5+00505+00105999999ADDGA1045+004575999GA2085+014945999GD12991+0045759GD24991+0149459GE19MSL   +99999+99999GF199999999999004571999999MA1101425100855REMMET08301/04/21 12:46:02 METAR KBLM 041746Z 33005KT 10SM SCT015 OVC049 05/01 A2995 RMK AO2
0295724084547602021010417567+40183-074133FM-15+0048KBLM V0203105N00265004575MN0160935N5+00505+00115101455ADDGA1075+004575999GA2085+014945999GD13991+0045759GD24991+0149459GE19MSL   +99999+99999GF199999999999004571999999KA1060M+00501KA2060N+00171MA1101425100855MD1890239+9999REMMET11801/04/21 12:56:02 METAR KBLM 041756Z 31005KT 10SM BKN015 OVC049 05/01 A2995 RMK AO2 SLP145 T00500011 10050 20017 58023
0220724084547602021010418057+40183-074133FM-15+0048KBLM V0203205N00265014945MN0160935N5+00505+00205999999ADDGA1025+004575999GA2085+014945999GD11991+0045759GD24991+0149459GE19MSL   +99999+99999GF199999999999004571999999MA1101425100855REMMET08301/04/21 13:05:02 METAR KBLM 041805Z 32005KT 10SM FEW015 OVC049 05/02 A2995 RMK AO2
0275724084547602021010418567+40183-074133FM-15+0048KBLM V0203205N00265005185MN0160935N5+00565+00115101455ADDGA1075+005185999GA2075+007015999GA3085+016765999GD13991+0051859GD23991+0070159GD34991+0167659GE19MSL   +99999+99999GF199999999999005181999999MA1101425100855REMMET10701/04/21 13:56:02 METAR KBLM 041856Z 32005KT 10SM BKN017 BKN023 OVC055 06/01 A2995 RMK AO2 SLP145 T00560011
0237724084547602021010419567+40183-074133FM-15+0048KBLM V0203005N00215006405MN0160935N5+00565+00115101475ADDGA1075+006405999GA2085+008235999GD13991+0064059GD24991+0082359GE19MSL   +99999+99999GF199999999999006401999999MA1101465100885REMMET10001/04/21 14:56:02 METAR KBLM 041956Z 30004KT 10SM BKN021 OVC027 06/01 A2996 RMK AO2 SLP147 T00560011
0219724084547602021010420567+40183-074133FM-15+0048KBLM V0209999C00005008235MN0160935N5+00505+00175101475ADDGA1085+008235999GD14991+0082359GE19MSL   +99999+99999GF199999999999008231999999MA1101465100885MD1390039+9999REMMET09901/04/21 15:56:02 METAR KBLM 042056Z 00000KT 10SM OVC027 05/02 A2996 RMK AO2 SLP147 T00500017 53003
0199724084547602021010421567+40183-074133FM-15+0048KBLM V0209999C00005007625MN0160935N5+00505+00225101485ADDGA1085+007625999GD14991+0076259GE19MSL   +99999+99999GF199999999999007621999999MA1101495100915REMMET09301/04/21 16:56:02 METAR KBLM 042156Z 00000KT 10SM OVC025 05/02 A2997 RMK AO2 SLP148 T00500022
0199724084547602021010422567+40183-074133FM-15+0048KBLM V0203305N00365005795MN0160935N5+00445+00115101495ADDGA1085+005795999GD14991+0057959GE19MSL   +99999+99999GF199999999999005791999999MA1101495100915REMMET09301/04/21 17:56:02 METAR KBLM 042256Z 33007KT 10SM OVC019 04/01 A2997 RMK AO2 SLP149 T00440011
0257724084547602021010423567+40183-074133FM-15+0048KBLM V0203505N00215008845MN0160935N5+00445+00115101495ADDGA1085+008845999GD14991+0088459GE19MSL   +99999+99999GF199999999999008841999999KA1060M+00561KA2060N+00441MA1101495100915MD1190029+9999REMMET11101/04/21 18:56:02 METAR KBLM 042356Z 35004KT 10SM OVC029 04/01 A2997 RMK AO2 SLP149 T00440011 10056 20044 51002
0220724084547602021010500407+40183-074133FM-15+0048KBLM V0203505N00215014635MN0160935N5+00405+00105999999ADDGA1045+008845999GA2085+014635999GD12991+0088459GD24991+0146359GE19MSL   +99999+99999GF199999999999008841999999MA1101495100915REMMET08301/04/21 19:40:01 METAR KBLM 050040Z 35004KT 10SM SCT029 OVC048 04/01 A2997 RMK AO2
0237724084547602021010500567+40183-074133FM-15+0048KBLM V0203605N00265014635MN0160935N5+00395+00065101485ADDGA1045+010065999GA2085+014635999GD12991+0100659GD24991+0146359GE19MSL   +99999+99999GF199999999999010061999999MA1101495100915REMMET10001/04/21 19:56:01 METAR KBLM 050056Z 36005KT 10SM SCT033 OVC048 04/01 A2997 RMK AO2 SLP148 T00390006
0199724084547602021010501567+40183-074133FM-15+0048KBLM V0209999C00005015245MN0160935N5+00285+00065101465ADDGA1085+015245999GD14991+0152459GE19MSL   +99999+99999GF199999999999015241999999MA1101465100885REMMET09301/04/21 20:56:01 METAR KBLM 050156Z 00000KT 10SM OVC050 03/01 A2996 RMK AO2 SLP146 T00280006
0219724084547602021010502567+40183-074133FM-15+0048KBLM V0203005N00155015245MN0160935N5+00285+00065101465ADDGA1085+015245999GD14991+0152459GE19MSL   +99999+99999GF199999999999015241999999MA1101465100885MD1790039+9999REMMET09901/04/21 21:56:01 METAR KBLM 050256Z 30003KT 10SM OVC050 03/01 A2996 RMK AO2 SLP146 T00280006 57003
0199724084547602021010503567+40183-074133FM-15+0048KBLM V0203405N00215014025MN0160935N5+00335+00065101425ADDGA1085+014025999GD14991+0140259GE19MSL   +99999+99999GF199999999999014021999999MA1101425100855REMMET09301/04/21 22:56:01 METAR KBLM 050356Z 34004KT 10SM OVC046 03/01 A2995 RMK AO2 SLP142 T00330006
0273724084547602021010504567+40183-074133FM-15+0048KBLM V0203005N00155011285MN0160935N5+00285+00065101385ADDGA1075+011285999GA2085+013415999GD13991+0112859GD24991+0134159GE19MSL   +99999+99999GF199999999999011281999999KA1240M+00561KA2240N+00171MA1101395100815REMMET11001/04/21 23:56:02 METAR KBLM 050456Z 30003KT 10SM BKN037 OVC044 03/01 A2994 RMK AO2 SLP138 T00280006 400560017
002772408454760202101050459O+40183-074133SOD  +0048KBLM V020999999999999999999999999999+99999+99999999999ADDAT1AU16RA  5AT2AU19UP  5
0257724084547602021010505567+40183-074133FM-15+0048KBLM V0203305N00155013115MN0160935N5+00285+00115101355ADDGA1085+013115999GD14991+0131159GE19MSL   +99999+99999GF199999999999013111999999KA1060M+00441KA2060N+00281MA1101355100785MD1690109+9999REMMET11101/05/21 00:56:02 METAR KBLM 050556Z 33003KT 10SM OVC043 03/01 A2993 RMK AO2 SLP135 T00280011 10044 20028 56010
0269724084547602021010506447+40183-074133FM-15+0048KBLM V0209999C00005005795MN0160935N5+00305+00105999999ADDAA101000021AU120090015AW1401AW2415GA1075+005795999GA2085+013115999GD13991+0057959GD24991+0131159GE19MSL   +99999+99999GF199999999999005791999999MA1101355100785REMMET09801/05/21 01:44:02 METAR KBLM 050644Z 00000KT 10SM UP BKN019 OVC043 03/01 A2993 RMK AO2 UPB36 P0000
0263724084547602021010506567+40183-074133FM-15+0048KBLM V0209999C00005005795MN0160935N5+00285+00115101375ADDAA101000021GA1075+005795999GA2085+013115999GD13991+0057959GD24991+0131159GE19MSL   +99999+99999GF199999999999005791999999MA1101355100785REMMET11501/05/21 01:56:02 METAR KBLM 050656Z 00000KT 10SM BKN019 OVC043 03/01 A2993 RMK AO2 UPB36E46 SLP137 P0000 T00280011
0237724084547602021010507567+40183-074133FM-15+0048KBLM V0203305N00215013115MN0160935N5+00285+00115101385ADDGA1045+005795999GA2085+013115999GD12991+0057959GD24991+0131159GE19MSL   +99999+99999GF199999999999005791999999MA1101355100785REMMET10001/05/21 02:56:02 METAR KBLM 050756Z 33004KT 10SM SCT019 OVC043 03/01 A2993 RMK AO2 SLP138 T00280011
0255724084547602021010508567+40183-074133FM-15+0048KBLM V0203505N00215013725MN0160935N5+00285+00115101355ADDAA103000021GA1085+013725999GD14991+0137259GE19MSL   +99999+99999GF199999999999013721999999MA1101355100785MD1890019+9999REMMET10501/05/21 03:56:02 METAR KBLM 050856Z 35004KT 10SM OVC045 03/01 A2993 RMK AO2 SLP135 60000 T00280011 58001EQDQ01  00008PRCP03
0206724084547602021010509567+40183-074133FM-15+0048KBLM V0203205N00155013115MN0160935N5+00225+00115101355ADDGA1085+013115999GD14991+0131159GE19MSL   +99999+99999GF199999999999013111999999MA1101355100785REMMET10001/05/21 04:56:02 METAR KBLM 050956Z 32003KT 10SM OVC043 02/01 A2993 RMK AO2 SLP135 T00220011 FZRANO
0206724084547602021010510567+40183-074133FM-15+0048KBLM V0203405N00215013115MN0160935N5+00225+00115101355ADDGA1085+013115999GD14991+0131159GE19MSL   +99999+99999GF199999999999013111999999MA1101355100785REMMET10001/05/21 05:56:02 METAR KBLM 051056Z 34004KT 10SM OVC043 02/01 A2993 RMK AO2 SLP135 T00220011 FZRANO
0300724084547602021010511567+40183-074133FM-15+0048KBLM V0203305N00155013115MN0160935N5+00225+00115101375ADDAA106000021GA1085+013115999GD14991+0131159GE19MSL   +99999+99999GF199999999999013111999999KA1060M+00281KA2060N+00221MA1101355100785MD1390029+9999REMMET12401/05/21 06:56:02 METAR KBLM 051156Z 33003KT 10SM OVC043 02/01 A2993 RMK AO2 SLP137 60000 T00220011 10028 20022 53002 FZRANOEQDQ01  00008PRCP06
0206724084547602021010512567+40183-074133FM-15+0048KBLM V0203505N00155012505MN0160935N5+00225+00115101405ADDGA1085+012505999GD14991+0125059GE19MSL   +99999+99999GF199999999999012501999999MA1101395100815REMMET10001/05/21 07:56:02 METAR KBLM 051256Z 35003KT 10SM OVC041 02/01 A2994 RMK AO2 SLP140 T00220011 FZRANO
0199724084547602021010513567+40183-074133FM-15+0048KBLM V0203505N00215012505MN0160935N5+00285+00065101425ADDGA1085+012505999GD14991+0125059GE19MSL   +99999+99999GF199999999999012501999999MA1101425100855REMMET09301/05/21 08:56:02 METAR KBLM 051356Z 35004KT 10SM OVC041 03/01 A2995 RMK AO2 SLP142 T00280006
0220724084547602021010514567+40183-074133FM-15+0048KBLM V0203505N00315013725MN0160935N5+00335-00065101405ADDGA1085+013725999GD14991+0137259GE19MSL   +99999+99999GF199999999999013721999999MA1101395100815MD1090039+9999REMMET10001/05/21 09:56:02 METAR KBLM 051456Z 35006KT 10SM OVC045 03/M01 A2994 RMK AO2 SLP140 T00331006 50003
0238724084547602021010515567+40183-074133FM-15+0048KBLM V0200405N00315009755MN0160935N5+00395-00175101335ADDGA1075+009755999GA2085+013115999GD13991+0097559GD24991+0131159GE19MSL   +99999+99999GF199999999999009751999999MA1101325100755REMMET10101/05/21 10:56:02 METAR KBLM 051556Z 04006KT 10SM BKN032 OVC043 04/M02 A2992 RMK AO2 SLP133 T00391017
0238724084547602021010516567+40183-074133FM-15+0048KBLM V0203405N00415014945MN0160935N5+00445-00115101245ADDGA1045+009455999GA2085+014945999GD12991+0094559GD24991+0149459GE19MSL   +99999+99999GF199999999999009451999999MA1101225100645REMMET10101/05/21 11:56:02 METAR KBLM 051656Z 34008KT 10SM SCT031 OVC049 04/M01 A2989 RMK AO2 SLP124 T00441011
0258724084547602021010517567+40183-074133FM-15+0048KBLM V0203305N00315010675MN0160935N5+00445-00115101205ADDGA1085+010675999GD14991+0106759GE19MSL   +99999+99999GF199999999999010671999999KA1060M+00441KA2060N+00221MA1101195100615MD1690199+9999REMMET11201/05/21 12:56:02 METAR KBLM 051756Z 33006KT 10SM OVC035 04/M01 A2988 RMK AO2 SLP120 T00441011 10044 20022 56019
0238724084547602021010518567+40183-074133FM-15+0048KBLM V0203205N00365007925MN0160935N5+00445-00115101225ADDGA1075+007925999GA2085+010675999GD13991+0079259GD24991+0106759GE19MSL   +99999+99999GF199999999999007921999999MA1101225100645REMMET10101/05/21 13:56:02 METAR KBLM 051856Z 32007KT 10SM BKN026 OVC035 04/M01 A2989 RMK AO2 SLP122 T00441011
0200724084547602021010519567+40183-074133FM-15+0048KBLM V0203205N00365008535MN0160935N5+00445-00065101235ADDGA1085+008535999GD14991+0085359GE19MSL   +99999+99999GF199999999999008531999999MA1101225100645REMMET09401/05/21 14:56:02 METAR KBLM 051956Z 32007KT 10SM OVC028 04/M01 A2989 RMK AO2 SLP123 T00441006
0183724084547602021010520187+40183-074133FM-15+0048KBLM V0203205N00415009145MN0160935N5+00405-00105999999ADDGA1085+009145999GD14991+0091459GE19MSL   +99999+99999GF199999999999009141999999MA1101225100645REMMET07701/05/21 15:18:02 METAR KBLM 052018Z 32008KT 10SM OVC030 04/M01 A2989 RMK AO2
0219724084547602021010520567+40183-074133FM-15+0048KBLM V0203205N00315009755MN0160935N5+00395+00005101265ADDGA1085+009755999GD14991+0097559GE19MSL   +99999+99999GF199999999999009751999999MA1101255100685MD1390059+9999REMMET09901/05/21 15:56:02 METAR KBLM 052056Z 32006KT 10SM OVC032 04/00 A2990 RMK AO2 SLP126 T00390000 53005
0200724084547602021010521567+40183-074133FM-15+0048KBLM V0203005N00215011895MN0160935N5+00395-00065101325ADDGA1085+011895999GD14991+0118959GE19MSL   +99999+99999GF199999999999011891999999MA1101325100755REMMET09401/05/21 16:56:02 METAR KBLM 052156Z 30004KT 10SM OVC039 04/M01 A2992 RMK AO2 SLP132 T00391006
0200724084547602021010522567+40183-074133FM-15+0048KBLM V0203105N00215011285MN0160935N5+00335-00065101375ADDGA1085+011285999GD14991+0112859GE19MSL   +99999+99999GF199999999999011281999999MA1101355100785REMMET09401/05/21 17:56:02 METAR KBLM 052256Z 31004KT 10SM OVC037 03/M01 A2993 RMK AO2 SLP137 T00331006
0258724084547602021010523567+40183-074133FM-15+0048KBLM V0203005N00365011285MN0160935N5+00335-00065101415ADDGA1085+011285999GD14991+0112859GE19MSL   +99999+99999GF199999999999011281999999KA1060M+00441KA2060N+00331MA1101395100815MD1190159+9999REMMET11201/05/21 18:56:02 METAR KBLM 052356Z 30007KT 10SM OVC037 03/M01 A2994 RMK AO2 SLP141 T00331006 10044 20033 51015
0200724084547602021010600567+40183-074133FM-15+0048KBLM V0203105N00315011895MN0160935N5+00335-00065101405ADDGA1085+011895999GD14991+0118959GE19MSL   +99999+99999GF199999999999011891999999MA1101395100815REMMET09401/05/21 19:56:01 METAR KBLM 060056Z 31006KT 10SM OVC039 03/M01 A2994 RMK AO2 SLP140 T00331006
0200724084547602021010601567+40183-074133FM-15+0048KBLM V0203105N00315033535MN0160935N5+00285-00065101405ADDGA1085+033535999GD14991+0335359GE19MSL   +99999+99999GF199999999999033531999999MA1101395100815REMMET09401/05/21 20:56:01 METAR KBLM 060156Z 31006KT 10SM OVC110 03/M01 A2994 RMK AO2 SLP140 T00281006
0220724084547602021010602567+40183-074133FM-15+0048KBLM V0203005N00315008845MN0160935N5+00285-00065101395ADDGA1085+008845999GD14991+0088459GE19MSL   +99999+99999GF199999999999008841999999MA1101395100815MD1890029+9999REMMET10001/05/21 21:56:01 METAR KBLM 060256Z 30006KT 10SM OVC029 03/M01 A2994 RMK AO2 SLP139 T00281006 58002
0190724084547602021010603257+40183-074133FM-15+0048KBLM V0203005N00265009455MN0160935N5+00205-00105999999ADDGA1085+009455999GD14991+0094559GE19MSL   +99999+99999GF199999999999009451999999MA1101395100815REMMET08401/05/21 22:25:01 METAR KBLM 060325Z 30005KT 10SM OVC031 02/M01 A2994 RMK AO2 FZRANO
0226724084547602021010603567+40183-074133FM-15+0048KBLM V0203005N003152200059N0160935N5+00225-00065101385ADDGA1025+009455999GD11991+0094559GE19AGL   +99999+99999GF102995999999009451999999MA1101395100815REMMET10101/05/21 22:56:01 METAR KBLM 060356Z 30006KT 10SM FEW031 02/M01 A2994 RMK AO2 SLP138 T00221006 FZRANOEQDD01      0ADE726
0241724084547602021010604567+40183-074133FM-15+0048KBLM V0203005N00315010065MN0160935N5+00285-00065101395ADDGA1085+010065999GD14991+0100659GE19MSL   +99999+99999GF199999999999010061999999KA1240M+00441KA2240N+00171MA1101395100815REMMET10901/05/21 23:56:02 METAR KBLM 060456Z 30006KT 10SM OVC033 03/M01 A2994 RMK AO2 SLP139 T00281006 400440017 TSNO
001572408454760202101060459O+40183-074133SOD  +0048KBLM V020999999999999999999999999999+99999+99999999999ADDAT1AU19UP  5
0265724084547602021010605567+40183-074133FM-15+0048KBLM V0203005N00315010675MN0160935N5+00225-00065101385ADDGA1085+010675999GD14991+0106759GE19MSL   +99999+99999GF199999999999010671999999KA1060M+00331KA2060N+00171MA1101395100815MD1890019+9999REMMET11901/06/21 00:56:02 METAR KBLM 060556Z 30006KT 10SM OVC035 02/M01 A2994 RMK AO2 SLP138 T00221006 10033 20017 58001 FZRANO
0207724084547602021010606567+40183-074133FM-15+0048KBLM V0203105N00265011285MN0160935N5+00175-00065101435ADDGA1085+011285999GD14991+0112859GE19MSL   +99999+99999GF199999999999011281999999MA1101425100855REMMET10101/06/21 01:56:02 METAR KBLM 060656Z 31005KT 10SM OVC037 02/M01 A2995 RMK AO2 SLP143 T00171006 FZRANO
0244724084547602021010607567+40183-074133FM-15+0048KBLM V0203105N00265011285MN0160935N5+00225+00005101455ADDGA1025+005795999GA2085+011285999GD11991+0057959GD24991+0112859GE19MSL   +99999+99999GF199999999999005791999999MA1101465100885REMMET10701/06/21 02:56:02 METAR KBLM 060756Z 31005KT 10SM FEW019 OVC037 02/00 A2996 RMK AO2 SLP145 T00220000 FZRANO
0227724084547602021010608567+40183-074133FM-15+0048KBLM V0203005N00315011895MN0160935N5+00115-00065101465ADDGA1075+011895999GD13991+0118959GE19MSL   +99999+99999GF199999999999011891999999MA1101465100885MD1190089+9999REMMET10701/06/21 03:56:02 METAR KBLM 060856Z 30006KT 10SM BKN039 01/M01 A2996 RMK AO2 SLP146 T00111006 51008 FZRANO
0182724084547602021010609567+40183-074133FM-15+0048KBLM V0202805N002652200059N0160935N5+00065-00115101475ADDGA1005+999999999GD10991+9999999GF100991999999999999999999MA1101465100885REMMET09801/06/21 04:56:02 METAR KBLM 060956Z 28005KT 10SM CLR 01/M01 A2996 RMK AO2 SLP147 T00061011 FZRANO
0207724084547602021010610567+40183-074133FM-15+0048KBLM V0202905N00365030485MN0160935N5+00005-00115101485ADDGA1075+030485999GD13991+0304859GE19MSL   +99999+99999GF199999999999030481999999MA1101465100885REMMET10101/06/21 05:56:02 METAR KBLM 061056Z 29007KT 10SM BKN100 00/M01 A2996 RMK AO2 SLP148 T00001011 FZRANO
0240724084547602021010611567+40183-074133FM-15+0048KBLM V0202905N005152200059N0160935N5+00065-00225101515ADDGA1005+999999999GD10991+9999999GF100991999999999999999999KA1060M+00221KA2060N-00061MA1101495100915MD1390049+9999REMMET11601/06/21 06:56:02 METAR KBLM 061156Z 29010KT 10SM CLR 01/M02 A2997 RMK AO2 SLP151 T00061022 10022 21006 53004 FZRANO
0182724084547602021010612567+40183-074133FM-15+0048KBLM V0202905N004152200059N0160935N5+00115-00225101585ADDGA1005+999999999GD10991+9999999GF100991999999999999999999MA1101565100985REMMET09801/06/21 07:56:02 METAR KBLM 061256Z 29008KT 10SM CLR 01/M02 A2999 RMK AO2 SLP158 T00111022 FZRANO
0175724084547602021010613567+40183-074133FM-15+0048KBLM V0202905N005752200059N0160935N5+00285-00225101635ADDGA1005+999999999GD10991+9999999GF100991999999999999999999MA1101635101055REMMET09101/06/21 08:56:02 METAR KBLM 061356Z 29011KT 10SM CLR 03/M02 A3001 RMK AO2 SLP163 T00281022
0206724084547602021010614567+40183-074133FM-15+0048KBLM V0202905N007252200059N0160935N5+00395-00225101615ADDGA1005+999999999GD10991+9999999GF100991999999999999999999MA1101595101015MD1090119+9999OC100935REMMET10001/06/21 09:56:02 METAR KBLM 061456Z 29014G18KT 10SM CLR 04/M02 A3000 RMK AO2 SLP161 T00391022 50011
0186724084547602021010615567+40183-074133FM-15+0048KBLM V0203105N008852200059N0160935N5+00505-00335101595ADDGA1005+999999999GD10991+9999999GF100991999999999999999999MA1101595101015OC101245REMMET09401/06/21 10:56:02 METAR KBLM 061556Z 31017G24KT 10SM CLR 05/M03 A3000 RMK AO2 SLP159 T00501033
0186724084547602021010616567+40183-074133FM-15+0048KBLM V0202905N006752200059N0160935N5+00565-00335101565ADDGA1005+999999999GD10991+9999999GF100991999999999999999999MA1101525100955OC100935REMMET09401/06/21 11:56:02 METAR KBLM 061656Z 29013G18KT 10SM CLR 06/M03 A2998 RMK AO2 SLP156 T00561033
0233724084547602021010617567+40183-074133FM-15+0048KBLM V0203005N008852200059N0160935N5+00565-00395101475ADDGA1005+999999999GD10991+9999999GF100991999999999999999999KA1060M+00561KA2060N+00061MA1101465100885MD1890149+9999REMMET10901/06/21 12:56:02 METAR KBLM 061756Z 30017KT 10SM CLR 06/M04 A2996 RMK AO2 SLP147 T00561039 10056 20006 58014
0204724084547602021010618567+40183-074133FM-15+0048KBLM V0203005N007752200059N0160935N5+00565-00395101485ADDGA1005+999999999GD10991+9999999GF100991999999999999999999MA1101495100915OC101295REMMET11201/06/21 13:56:02 METAR KBLM 061856Z 30015G25KT 10SM CLR 06/M04 A2997 RMK AO2 PK WND 31026/1836 SLP148 T00561039
0186724084547602021010619567+40183-074133FM-15+0048KBLM V0202905N008252200059N0160935N5+00505-00395101555ADDGA1005+999999999GD10991+9999999GF100991999999999999999999MA1101565100985OC101185REMMET09401/06/21 14:56:02 METAR KBLM 061956Z 29016G23KT 10SM CLR 05/M04 A2999 RMK AO2 SLP155 T00501039
0263724084547602021010620567+40183-074133FM-15+0048KBLM V0203105N00935011585MN0160935N5+00395-00395101615ADDGA1085+011585999GD14991+0115859GE19MSL   +99999+99999GF199999999999011581999999MA1101595101015MD1390139+9999OC101545OD149901541310REMMET12101/06/21 15:56:02 METAR KBLM 062056Z 31018G30KT 10SM OVC038 04/M04 A3000 RMK AO2 PK WND 31030/2050 SLP161 T00391039 53013
0204724084547602021010621567+40183-074133FM-15+0048KBLM V0203105N009352200059N0160935N5+00335-00395101665ADDGA1005+999999999GD10991+9999999GF100991999999999999999999MA1101665101085OC101135REMMET11201/06/21 16:56:02 METAR KBLM 062156Z 31018G22KT 10SM CLR 03/M04 A3002 RMK AO2 PK WND 32026/2102 SLP166 T00331039
0193724084547602021010622567+40183-074133FM-15+0048KBLM V0203205N008252200059N0160935N5+00225-00335101725ADDGA1005+999999999GD10991+9999999GF100991999999999999999999MA1101695101125OC101085REMMET10101/06/21 17:56:02 METAR KBLM 062256Z 32016G21KT 10SM CLR 02/M03 A3003 RMK AO2 SLP172 T00221033 FZRANO
0240724084547602021010623567+40183-074133FM-15+0048KBLM V0203205N005752200059N0160935N5+00175-00335101775ADDGA1005+999999999GD10991+9999999GF100991999999999999999999KA1060M+00611KA2060N+00171MA1101765101185MD1390169+9999REMMET11601/06/21 18:56:02 METAR KBLM 062356Z 32011KT 10SM CLR 02/M03 A3005 RMK AO2 SLP177 T00171033 10061 20017 53016 FZRANO
0182724084547602021010700567+40183-074133FM-15+0048KBLM V0203005N005152200059N0160935N5+00175-00335101795ADDGA1005+999999999GD10991+9999999GF100991999999999999999999MA1101765101185REMMET09801/06/21 19:56:01 METAR KBLM 070056Z 30010KT 10SM CLR 02/M03 A3005 RMK AO2 SLP179 T00171033 FZRANO
0182724084547602021010701567+40183-074133FM-15+0048KBLM V0202905N004152200059N0160935N5+00115-00395101805ADDGA1005+999999999GD10991+9999999GF100991999999999999999999MA1101795101225REMMET09801/06/21 20:56:01 METAR KBLM 070156Z 29008KT 10SM CLR 01/M04 A3006 RMK AO2 SLP180 T00111039 FZRANO
0202724084547602021010702567+40183-074133FM-15+0048KBLM V0203005N004152200059N0160935N5+00115-00395101755ADDGA1005+999999999GD10991+9999999GF100991999999999999999999MA1101735101155MD1890029+9999REMMET10401/06/21 21:56:01 METAR KBLM 070256Z 30008KT 10SM CLR 01/M04 A3004 RMK AO2 SLP175 T00111039 58002 FZRANO
0182724084547602021010703567+40183-074133FM-15+0048KBLM V0202905N005752200059N0160935N5+00115-00395101745ADDGA1005+999999999GD10991+9999999GF100991999999999999999999MA1101735101155REMMET09801/06/21 22:56:01 METAR KBLM 070356Z 29011KT 10SM CLR 01/M04 A3004 RMK AO2 SLP174 T00111039 FZRANO
0218724084547602021010704567+40183-074133FM-15+0048KBLM V0202905N004152200059N0160935N5+00065-00395101775ADDGA1005+999999999GD10991+9999999GF100991999999999999999999KA1240M+00611KA2240N-00061MA1101765101185REMMET10801/06/21 23:56:02 METAR KBLM 070456Z 29008KT 10SM CLR 01/M04 A3005 RMK AO2 SLP177 T00061039 400611006 FZRANO
0240724084547602021010705567+40183-074133FM-15+0048KBLM V0203005N006752200059N0160935N5+00065-00445101785ADDGA1005+999999999GD10991+9999999GF100991999999999999999999KA1060M+00171KA2060N+00061MA1101765101185MD1390039+9999REMMET11601/07/21 00:56:02 METAR KBLM 070556Z 30013KT 10SM CLR 01/M04 A3005 RMK AO2 SLP178 T00061044 10017 20006 53003 FZRANO
0182724084547602021010706567+40183-074133FM-15+0048KBLM V0203005N006252200059N0160935N5+00005-00445101845ADDGA1005+999999999GD10991+9999999GF100991999999999999999999MA1101835101255REMMET09801/07/21 01:56:02 METAR KBLM 070656Z 30012KT 10SM CLR 00/M04 A3007 RMK AO2 SLP184 T00001044 FZRANO
0182724084547602021010707567+40183-074133FM-15+0048KBLM V0202905N005152200059N0160935N5+00005-00445101835ADDGA1005+999999999GD10991+9999999GF100991999999999999999999MA1101835101255REMMET09801/07/21 02:56:02 METAR KBLM 070756Z 29010KT 10SM CLR 00/M04 A3007 RMK AO2 SLP183 T00001044 FZRANO
0203724084547602021010708567+40183-074133FM-15+0048KBLM V0203105N005752200059N0160935N5-00065-00445101815ADDGA1005+999999999GD10991+9999999GF100991999999999999999999MA1101795101225MD1090029+9999REMMET10501/07/21 03:56:02 METAR KBLM 070856Z 31011KT 10SM CLR M01/M04 A3006 RMK AO2 SLP181 T10061044 50002 FZRANO
0183724084547602021010709567+40183-074133FM-15+0048KBLM V0203005N005152200059N0160935N5-00065-00445101845ADDGA1005+999999999GD10991+9999999GF100991999999999999999999MA1101835101255REMMET09901/07/21 04:56:02 METAR KBLM 070956Z 30010KT 10SM CLR M01/M04 A3007 RMK AO2 SLP184 T10061044 FZRANO
0183724084547602021010710567+40183-074133FM-15+0048KBLM V0202905N004152200059N0160935N5-00065-00445101905ADDGA1005+999999999GD10991+9999999GF100991999999999999999999MA1101905101325REMMET09901/07/21 05:56:02 METAR KBLM 071056Z 29008KT 10SM CLR M01/M04 A3009 RMK AO2 SLP190 T10061044 FZRANO
0241724084547602021010711567+40183-074133FM-15+0048KBLM V0203005N005152200059N0160935N5-00065-00445101945ADDGA1005+999999999GD10991+9999999GF100991999999999999999999KA1060M+00061KA2060N-00061MA1101935101355MD1390139+9999REMMET11701/07/21 06:56:02 METAR KBLM 071156Z 30010KT 10SM CLR M01/M04 A3010 RMK AO2 SLP194 T10061044 10006 21006 53013 FZRANO
0183724084547602021010712567+40183-074133FM-15+0048KBLM V0202905N004152200059N0160935N5-00065-00445102025ADDGA1005+999999999GD10991+9999999GF100991999999999999999999MA1102005101425REMMET09901/07/21 07:56:02 METAR KBLM 071256Z 29008KT 10SM CLR M01/M04 A3012 RMK AO2 SLP202 T10061044 FZRANO
0182724084547602021010713567+40183-074133FM-15+0048KBLM V0203105N006752200059N0160935N5+00065-00505102065ADDGA1005+999999999GD10991+9999999GF100991999999999999999999MA1102035101455REMMET09801/07/21 08:56:02 METAR KBLM 071356Z 31013KT 10SM CLR 01/M05 A3013 RMK AO2 SLP206 T00061050 FZRANO
0202724084547602021010714567+40183-074133FM-15+0048KBLM V0203105N007752200059N0160935N5+00225-00505102045ADDGA1005+999999999GD10991+9999999GF100991999999999999999999MA1102035101455MD1090109+9999REMMET10401/07/21 09:56:02 METAR KBLM 071456Z 31015KT 10SM CLR 02/M05 A3013 RMK AO2 SLP204 T00221050 50010 FZRANO
0175724084547602021010715567+40183-074133FM-15+0048KBLM V0203105N007752200059N0160935N5+00285-00565101985ADDGA1005+999999999GD10991+9999999GF100991999999999999999999MA1101965101395REMMET09101/07/21 10:56:02 METAR KBLM 071556Z 31015KT 10SM CLR 03/M06 A3011 RMK AO2 SLP198 T00281056
0175724084547602021010716567+40183-074133FM-15+0048KBLM V0203105N006252200059N0160935N5+00445-00615101885ADDGA1005+999999999GD10991+9999999GF100991999999999999999999MA1101865101285REMMET09101/07/21 11:56:02 METAR KBLM 071656Z 31012KT 10SM CLR 04/M06 A3008 RMK AO2 SLP188 T00441061
0233724084547602021010717567+40183-074133FM-15+0048KBLM V0203205N008852200059N0160935N5+00565-00615101815ADDGA1005+999999999GD10991+9999999GF100991999999999999999999KA1060M+00561KA2060N-00061MA1101795101225MD1890239+9999REMMET10901/07/21 12:56:02 METAR KBLM 071756Z 32017KT 10SM CLR 06/M06 A3006 RMK AO2 SLP181 T00561061 10056 21006 58023
0175724084547602021010718567+40183-074133FM-15+0048KBLM V0203105N007752200059N0160935N5+00615-00615101805ADDGA1005+999999999GD10991+9999999GF100991999999999999999999MA1101795101225REMMET09101/07/21 13:56:02 METAR KBLM 071856Z 31015KT 10SM CLR 06/M06 A3006 RMK AO2 SLP180 T00611061
0175724084547602021010719567+40183-074133FM-15+0048KBLM V0203105N005152200059N0160935N5+00615-00615101845ADDGA1005+999999999GD10991+9999999GF100991999999999999999999MA1101835101255REMMET09101/07/21 14:56:02 METAR KBLM 071956Z 31010KT 10SM CLR 06/M06 A3007 RMK AO2 SLP184 T00611061
0195724084547602021010720567+40183-074133FM-15+0048KBLM V0202905N005752200059N0160935N5+00565-00615101905ADDGA1005+999999999GD10991+9999999GF100991999999999999999999MA1101905101325MD1390099+9999REMMET09701/07/21 15:56:02 METAR KBLM 072056Z 29011KT 10SM CLR 06/M06 A3009 RMK AO2 SLP190 T00561061 53009
0175724084547602021010721567+40183-074133FM-15+0048KBLM V0202905N003152200059N0160935N5+00445-00615101945ADDGA1005+999999999GD10991+9999999GF100991999999999999999999MA1101935101355REMMET09101/07/21 16:56:02 METAR KBLM 072156Z 29006KT 10SM CLR 04/M06 A3010 RMK AO2 SLP194 T00441061
0182724084547602021010722567+40183-074133FM-15+0048KBLM V0203105N003152200059N0160935N5+00225-00565101945ADDGA1005+999999999GD10991+9999999GF100991999999999999999999MA1101935101355REMMET09801/07/21 17:56:02 METAR KBLM 072256Z 31006KT 10SM CLR 02/M06 A3010 RMK AO2 SLP194 T00221056 FZRANO
0240724084547602021010723567+40183-074133FM-15+0048KBLM V0203105N004152200059N0160935N5+00225-00615101985ADDGA1005+999999999GD10991+9999999GF100991999999999999999999KA1060M+00611KA2060N+00171MA1101965101395MD1390079+9999REMMET11601/07/21 18:56:02 METAR KBLM 072356Z 31008KT 10SM CLR 02/M06 A3011 RMK AO2 SLP198 T00221061 10061 20017 53007 FZRANO
0182724084547602021010800567+40183-074133FM-15+0048KBLM V0203105N005152200059N0160935N5+00115-00615102005ADDGA1005+999999999GD10991+9999999GF100991999999999999999999MA1101965101395REMMET09801/07/21 19:56:01 METAR KBLM 080056Z 31010KT 10SM CLR 01/M06 A3011 RMK AO2 SLP200 T00111061 FZRANO
0182724084547602021010801567+40183-074133FM-15+0048KBLM V0203205N004152200059N0160935N5+00005-00565101995ADDGA1005+999999999GD10991+9999999GF100991999999999999999999MA1101965101395REMMET09801/07/21 20:56:01 METAR KBLM 080156Z 32008KT 10SM CLR 00/M06 A3011 RMK AO2 SLP199 T00001056 FZRANO
0203724084547602021010802567+40183-074133FM-15+0048KBLM V0203205N004152200059N0160935N5-00065-00505101975ADDGA1005+999999999GD10991+9999999GF100991999999999999999999MA1101965101395MD1890019+9999REMMET10501/07/21 21:56:01 METAR KBLM 080256Z 32008KT 10SM CLR M01/M05 A3011 RMK AO2 SLP197 T10061050 58001 FZRANO
0183724084547602021010803567+40183-074133FM-15+0048KBLM V0203205N003152200059N0160935N5-00115-00505101925ADDGA1005+999999999GD10991+9999999GF100991999999999999999999MA1101905101325REMMET09901/07/21 22:56:01 METAR KBLM 080356Z 32006KT 10SM CLR M01/M05 A3009 RMK AO2 SLP192 T10111050 FZRANO
0219724084547602021010804567+40183-074133FM-15+0048KBLM V0203105N002652200059N0160935N5-00225-00565101945ADDGA1005+999999999GD10991+9999999GF100991999999999999999999KA1240M+00611KA2240N-00221MA1101935101355REMMET10901/07/21 23:56:02 METAR KBLM 080456Z 31005KT 10SM CLR M02/M06 A3010 RMK AO2 SLP194 T10221056 400611022 FZRANO
0241724084547602021010805567+40183-074133FM-15+0048KBLM V0203105N004152200059N0160935N5-00225-00505101905ADDGA1005+999999999GD10991+9999999GF100991999999999999999999KA1060M+00221KA2060N-00281MA1101905101325MD1690089+9999REMMET11701/08/21 00:56:02 METAR KBLM 080556Z 31008KT 10SM CLR M02/M05 A3009 RMK AO2 SLP190 T10221050 10022 21028 56008 FZRANO
0183724084547602021010806567+40183-074133FM-15+0048KBLM V0202805N002652200059N0160935N5-00225-00565101875ADDGA1005+999999999GD10991+9999999GF100991999999999999999999MA1101865101285REMMET09901/08/21 01:56:01 METAR KBLM 080656Z 28005KT 10SM CLR M02/M06 A3008 RMK AO2 SLP187 T10221056 FZRANO
0183724084547602021010807567+40183-074133FM-15+0048KBLM V0203005N002652200059N0160935N5-00285-00565101865ADDGA1005+999999999GD10991+9999999GF100991999999999999999999MA1101865101285REMMET09901/08/21 02:56:01 METAR KBLM 080756Z 30005KT 10SM CLR M03/M06 A3008 RMK AO2 SLP186 T10281056 FZRANO
0203724084547602021010808567+40183-074133FM-15+0048KBLM V0202905N002152200059N0160935N5-00335-00565101835ADDGA1005+999999999GD10991+9999999GF100991999999999999999999MA1101795101225MD1890079+9999REMMET10501/08/21 03:56:01 METAR KBLM 080856Z 29004KT 10SM CLR M03/M06 A3006 RMK AO2 SLP183 T10331056 58007 FZRANO
0183724084547602021010809567+40183-074133FM-15+0048KBLM V0202705N002152200059N0160935N5-00335-00565101845ADDGA1005+999999999GD10991+9999999GF100991999999999999999999MA1101835101255REMMET09901/08/21 04:56:01 METAR KBLM 080956Z 27004KT 10SM CLR M03/M06 A3007 RMK AO2 SLP184 T10331056 FZRANO
0183724084547602021010810567+40183-074133FM-15+0048KBLM V0203305N003152200059N0160935N5-00335-00565101755ADDGA1005+999999999GD10991+9999999GF100991999999999999999999MA1101735101155REMMET09901/08/21 05:56:01 METAR KBLM 081056Z 33006KT 10SM CLR M03/M06 A3004 RMK AO2 SLP175 T10331056 FZRANO
0241724084547602021010811567+40183-074133FM-15+0048KBLM V0203005N001552200059N0160935N5-00395-00615101745ADDGA1005+999999999GD10991+9999999GF100991999999999999999999KA1060M-00221KA2060N-00391MA1101735101155MD1890099+9999REMMET11701/08/21 06:56:01 METAR KBLM 081156Z 30003KT 10SM CLR M04/M06 A3004 RMK AO2 SLP174 T10391061 11022 21039 58009 FZRANO
0183724084547602021010812567+40183-074133FM-15+0048KBLM V0209999C000052200059N0160935N5-00395-00565101785ADDGA1005+999999999GD10991+9999999GF100991999999999999999999MA1101765101185REMMET09901/08/21 07:56:01 METAR KBLM 081256Z 00000KT 10SM CLR M04/M06 A3005 RMK AO2 SLP178 T10391056 FZRANO
0183724084547602021010813567+40183-074133FM-15+0048KBLM V0203405N003652200059N0160935N5-00175-00505101735ADDGA1005+999999999GD10991+9999999GF100991999999999999999999MA1101695101125REMMET09901/08/21 08:56:01 METAR KBLM 081356Z 34007KT 10SM CLR M02/M05 A3003 RMK AO2 SLP173 T10171050 FZRANO
0202724084547602021010814567+40183-074133FM-15+0048KBLM V0203405N003652200059N0160935N5+00005-00505101705ADDGA1005+999999999GD10991+9999999GF100991999999999999999999MA1101695101125MD1890049+9999REMMET10401/08/21 09:56:01 METAR KBLM 081456Z 34007KT 10SM CLR 00/M05 A3003 RMK AO2 SLP170 T00001050 58004 FZRANO
0182724084547602021010815567+40183-074133FM-15+0048KBLM V0202605N003652200059N0160935N5+00115-00565101745ADDGA1005+999999999GD10991+9999999GF100991999999999999999999MA1101735101155REMMET09801/08/21 10:56:01 METAR KBLM 081556Z 26007KT 10SM CLR 01/M06 A3004 RMK AO2 SLP174 T00111056 FZRANO
0189724084547602021010816567+40183-074133FM-15+0048KBLM V0202705N002652200059N0160935N5+00115-00565101585ADDGA1005+999999999GD10991+9999999GF100991999999999999999999MA1101565100985REMMET10501/08/21 11:56:01 METAR KBLM 081656Z 27005KT 10SM CLR 01/M06 A2999 RMK AO2 PRESFR SLP158 T00111056 FZRANO
0240724084547602021010817567+40183-074133FM-15+0048KBLM V0202905N003152200059N0160935N5+00115-00565101445ADDGA1005+999999999GD10991+9999999GF100991999999999999999999KA1060M+00111KA2060N-00441MA1101425100855MD1890269+9999REMMET11601/08/21 12:56:01 METAR KBLM 081756Z 29006KT 10SM CLR 01/M06 A2995 RMK AO2 SLP144 T00111056 10011 21044 58026 FZRANO
0182724084547602021010818567+40183-074133FM-15+0048KBLM V0203105N004652200059N0160935N5+00175-00505101395ADDGA1005+999999999GD10991+9999999GF100991999999999999999999MA1101395100815REMMET09801/08/21 13:56:01 METAR KBLM 081856Z 31009KT 10SM CLR 02/M05 A2994 RMK AO2 SLP139 T00171050 FZRANO
0182724084547602021010819567+40183-074133FM-15+0048KBLM V0203005N002652200059N0160935N5+00175-00565101385ADDGA1005+999999999GD10991+9999999GF100991999999999999999999MA1101355100785REMMET09801/08/21 14:56:01 METAR KBLM 081956Z 30005KT 10SM CLR 02/M06 A2993 RMK AO2 SLP138 T00171056 FZRANO
0202724084547602021010820567+40183-074133FM-15+0048KBLM V0202805N002152200059N0160935N5+00115-00505101375ADDGA1005+999999999GD10991+9999999GF100991999999999999999999MA1101355100785MD1690079+9999REMMET10401/08/21 15:56:02 METAR KBLM 082056Z 28004KT 10SM CLR 01/M05 A2993 RMK AO2 SLP137 T00111050 56007 FZRANO
0182724084547602021010821567+40183-074133FM-15+0048KBLM V0203205N002652200059N0160935N5+00065-00505101325ADDGA1005+999999999GD10991+9999999GF100991999999999999999999MA1101325100755REMMET09801/08/21 16:56:02 METAR KBLM 082156Z 32005KT 10SM CLR 01/M05 A2992 RMK AO2 SLP132 T00061050 FZRANO
0182724084547602021010822567+40183-074133FM-15+0048KBLM V0203205N003152200059N0160935N5+00005-00505101285ADDGA1005+999999999GD10991+9999999GF100991999999999999999999MA1101255100685REMMET09801/08/21 17:56:02 METAR KBLM 082256Z 32006KT 10SM CLR 00/M05 A2990 RMK AO2 SLP128 T00001050 FZRANO
0241724084547602021010823567+40183-074133FM-15+0048KBLM V0202905N002652200059N0160935N5-00065-00445101295ADDGA1005+999999999GD10991+9999999GF100991999999999999999999KA1060M+00171KA2060N-00061MA1101295100715MD1590089+9999REMMET11701/08/21 18:56:02 METAR KBLM 082356Z 29005KT 10SM CLR M01/M04 A2991 RMK AO2 SLP129 T10061044 10017 21006 55008 FZRANO
0182724084547602021010900567+40183-074133FM-15+0048KBLM V0203005N001552200059N0160935N5+00005-00445101255ADDGA1005+999999999GD10991+9999999GF100991999999999999999999MA1101255100685REMMET09801/08/21 19:56:01 METAR KBLM 090056Z 30003KT 10SM CLR 00/M04 A2990 RMK AO2 SLP125 T00001044 FZRANO
0182724084547602021010901567+40183-074133FM-15+0048KBLM V0203405N004652200059N0160935N5+00005-00505101175ADDGA1005+999999999GD10991+9999999GF100991999999999999999999MA1101155100585REMMET09801/08/21 20:56:01 METAR KBLM 090156Z 34009KT 10SM CLR 00/M05 A2987 RMK AO2 SLP117 T00001050 FZRANO
0202724084547602021010902567+40183-074133FM-15+0048KBLM V0203505N005752200059N0160935N5+00005-00565101135ADDGA1005+999999999GD10991+9999999GF100991999999999999999999MA1101125100545MD1790169+9999REMMET10401/08/21 21:56:01 METAR KBLM 090256Z 35011KT 10SM CLR 00/M06 A2986 RMK AO2 SLP113 T00001056 57016 FZRANO
0183724084547602021010903567+40183-074133FM-15+0048KBLM V0203405N005152200059N0160935N5-00065-00565101095ADDGA1005+999999999GD10991+9999999GF100991999999999999999999MA1101085100515REMMET09901/08/21 22:56:01 METAR KBLM 090356Z 34010KT 10SM CLR M01/M06 A2985 RMK AO2 SLP109 T10061056 FZRANO
0219724084547602021010904567+40183-074133FM-15+0048KBLM V0203505N004152200059N0160935N5-00065-00615101075ADDGA1005+999999999GD10991+9999999GF100991999999999999999999KA1240M+00171KA2240N-00441MA1101055100485REMMET10901/08/21 23:56:02 METAR KBLM 090456Z 35008KT 10SM CLR M01/M06 A2984 RMK AO2 SLP107 T10061061 400171044 FZRANO
0241724084547602021010905567+40183-074133FM-15+0048KBLM V0203505N005752200059N0160935N5-00115-00675101055ADDGA1005+999999999GD10991+9999999GF100991999999999999999999KA1060M+00061KA2060N-00111MA1101055100485MD1690089+9999REMMET11701/09/21 00:56:02 METAR KBLM 090556Z 35011KT 10SM CLR M01/M07 A2984 RMK AO2 SLP105 T10111067 10006 21011 56008 FZRANO
0183724084547602021010906567+40183-074133FM-15+0048KBLM V0203505N005152200059N0160935N5-00175-00725101085ADDGA1005+999999999GD10991+9999999GF100991999999999999999999MA1101085100515REMMET09901/09/21 01:56:02 METAR KBLM 090656Z 35010KT 10SM CLR M02/M07 A2985 RMK AO2 SLP108 T10171072 FZRANO
0183724084547602021010907567+40183-074133FM-15+0048KBLM V0203505N006252200059N0160935N5-00175-00785101075ADDGA1005+999999999GD10991+9999999GF100991999999999999999999MA1101055100485REMMET09901/09/21 02:56:02 METAR KBLM 090756Z 35012KT 10SM CLR M02/M08 A2984 RMK AO2 SLP107 T10171078 FZRANO
0203724084547602021010908567+40183-074133FM-15+0048KBLM V0203305N006752200059N0160935N5-00225-00785101075ADDGA1005+999999999GD10991+9999999GF100991999999999999999999MA1101055100485MD1190029+9999REMMET10501/09/21 03:56:02 METAR KBLM 090856Z 33013KT 10SM CLR M02/M08 A2984 RMK AO2 SLP107 T10221078 51002 FZRANO
0183724084547602021010909567+40183-074133FM-15+0048KBLM V0203405N005752200059N0160935N5-00335-00835101065ADDGA1005+999999999GD10991+9999999GF100991999999999999999999MA1101055100485REMMET09901/09/21 04:56:02 METAR KBLM 090956Z 34011KT 10SM CLR M03/M08 A2984 RMK AO2 SLP106 T10331083 FZRANO
0183724084547602021010910567+40183-074133FM-15+0048KBLM V0203305N004652200059N0160935N5-00395-00835101115ADDGA1005+999999999GD10991+9999999GF100991999999999999999999MA1101085100515REMMET09901/09/21 05:56:02 METAR KBLM 091056Z 33009KT 10SM CLR M04/M08 A2985 RMK AO2 SLP111 T10391083 FZRANO
0241724084547602021010911567+40183-074133FM-15+0048KBLM V0203205N005152200059N0160935N5-00445-00895101135ADDGA1005+999999999GD10991+9999999GF100991999999999999999999KA1060M-00111KA2060N-00441MA1101125100545MD1390059+9999REMMET11701/09/21 06:56:02 METAR KBLM 091156Z 32010KT 10SM CLR M04/M09 A2986 RMK AO2 SLP113 T10441089 11011 21044 53005 FZRANO
0183724084547602021010912567+40183-074133FM-15+0048KBLM V0203405N005152200059N0160935N5-00395-00945101215ADDGA1005+999999999GD10991+9999999GF100991999999999999999999MA1101195100615REMMET09901/09/21 07:56:02 METAR KBLM 091256Z 34010KT 10SM CLR M04/M09 A2988 RMK AO2 SLP121 T10391094 FZRANO
0194724084547602021010913567+40183-074133FM-15+0048KBLM V0203505N006752200059N0160935N5-00225-00945101265ADDGA1005+999999999GD10991+9999999GF100991999999999999999999MA1101255100685OC100825REMMET10201/09/21 08:56:02 METAR KBLM 091356Z 35013G16KT 10SM CLR M02/M09 A2990 RMK AO2 SLP126 T10221094 FZRANO
0214724084547602021010914567+40183-074133FM-15+0048KBLM V0203405N008252200059N0160935N5-00115-01005101265ADDGA1005+999999999GD10991+9999999GF100991999999999999999999MA1101255100685MD1190149+9999OC101085REMMET10801/09/21 09:56:02 METAR KBLM 091456Z 34016G21KT 10SM CLR M01/M10 A2990 RMK AO2 SLP126 T10111100 51014 FZRANO
0182724084547602021010915567+40183-074133FM-15+0048KBLM V0203305N006252200059N0160935N5+00005-01065101265ADDGA1005+999999999GD10991+9999999GF100991999999999999999999MA1101255100685REMMET09801/09/21 10:56:02 METAR KBLM 091556Z 33012KT 10SM CLR 00/M11 A2990 RMK AO2 SLP126 T00001106 FZRANO
0182724084547602021010916567+40183-074133FM-15+0048KBLM V0203205N009852200059N0160935N5+00065-01065101165ADDGA1005+999999999GD10991+9999999GF100991999999999999999999MA1101155100585REMMET09801/09/21 11:56:02 METAR KBLM 091656Z 32019KT 10SM CLR 01/M11 A2987 RMK AO2 SLP116 T00061106 FZRANO
0276724084547602021010917567+40183-074133FM-15+0048KBLM V0203205N00825028965MN0160935N5+00175-00945101145ADDGA1085+028965999GD14991+0289659GE19MSL   +99999+99999GF199999999999028961999999KA1060M+00171KA2060N-00441MA1101125100545MD1890129+9999OC101135REMMET12201/09/21 12:56:02 METAR KBLM 091756Z 32016G22KT 10SM OVC095 02/M09 A2986 RMK AO2 SLP114 T00171094 10017 21044 58012 FZRANO
0288724084547602021010918567+40183-074133FM-15+0048KBLM V0203305N00725028965MN0160935N5+00175-00895101165ADDGA1045+011895999GA2075+028965999GD12991+0118959GD23991+0289659GE19MSL   +99999+99999GF199999999999011891999999MA1101155100585OC101035OD149901331340REMMET12901/09/21 13:56:02 METAR KBLM 091856Z 33014G20KT 10SM SCT039 BKN095 02/M09 A2987 RMK AO2 PK WND 34026/1800 SLP116 T00171089 FZRANO
0219724084547602021010919567+40183-074133FM-15+0048KBLM V0203305N005152200059N0160935N5+00285-00895101215ADDGA1025+027435999GD11991+0274359GE19AGL   +99999+99999GF102995999999027431999999MA1101195100615REMMET09401/09/21 14:56:02 METAR KBLM 091956Z 33010KT 10SM FEW090 03/M09 A2988 RMK AO2 SLP121 T00281089EQDD01      0ADE726
0227724084547602021010920567+40183-074133FM-15+0048KBLM V0203205N00625011895MN0160935N5+00225-00785101235ADDGA1075+011895999GD13991+0118959GE19MSL   +99999+99999GF199999999999011891999999MA1101225100645MD1390099+9999REMMET10701/09/21 15:56:02 METAR KBLM 092056Z 32012KT 10SM BKN039 02/M08 A2989 RMK AO2 SLP123 T00221078 53009 FZRANO
0245724084547602021010921567+40183-074133FM-15+0048KBLM V0203005N00515012505MN0160935N5+00175-00835101295ADDGA1075+012505999GA2085+030485999GD13991+0125059GD24991+0304859GE19MSL   +99999+99999GF199999999999012501999999MA1101295100715REMMET10801/09/21 16:56:02 METAR KBLM 092156Z 30010KT 10SM BKN041 OVC100 02/M08 A2991 RMK AO2 SLP129 T00171083 FZRANO
0245724084547602021010922567+40183-074133FM-15+0048KBLM V0203105N00415013415MN0160935N5+00175-01065101355ADDGA1075+013415999GA2085+027435999GD13991+0134159GD24991+0274359GE19MSL   +99999+99999GF199999999999013411999999MA1101325100755REMMET10801/09/21 17:56:02 METAR KBLM 092256Z 31008KT 10SM BKN044 OVC090 02/M11 A2992 RMK AO2 SLP135 T00171106 FZRANO
0341724084547602021010923567+40183-074133FM-15+0048KBLM V0203005N00315022865MN0160935N5+00175-01065101405ADDGA1025+014635999GA2075+022865999GA3085+028965999GD11991+0146359GD23991+0228659GD34991+0289659GE19MSL   +99999+99999GF199999999999014631999999KA1060M+00281KA2060N+00171MA1101395100815MD1190179+9999REMMET13301/09/21 18:56:02 METAR KBLM 092356Z 30006KT 10SM FEW048 BKN075 OVC095 02/M11 A2994 RMK AO2 SLP140 T00171106 10028 20017 51017 FZRANO
0207724084547602021011000567+40183-074133FM-15+0048KBLM V0203005N00315030485MN0160935N5+00225-01005101435ADDGA1085+030485999GD14991+0304859GE19MSL   +99999+99999GF199999999999030481999999MA1101425100855REMMET10101/09/21 19:56:01 METAR KBLM 100056Z 30006KT 10SM OVC100 02/M10 A2995 RMK AO2 SLP143 T00221100 FZRANO
0207724084547602021011001567+40183-074133FM-15+0048KBLM V0203105N00415030485MN0160935N5+00225-00835101475ADDGA1085+030485999GD14991+0304859GE19MSL   +99999+99999GF199999999999030481999999MA1101465100885REMMET10101/09/21 20:56:01 METAR KBLM 100156Z 31008KT 10SM OVC100 02/M08 A2996 RMK AO2 SLP147 T00221083 FZRANO
0220724084547602021011002567+40183-074133FM-15+0048KBLM V0203205N00625022865MN0160935N5+00285-00725101525ADDGA1075+022865999GD13991+0228659GE19MSL   +99999+99999GF199999999999022861999999MA1101525100955MD1390129+9999REMMET10001/09/21 21:56:01 METAR KBLM 100256Z 32012KT 10SM BKN075 03/M07 A2998 RMK AO2 SLP152 T00281072 53012
0226724084547602021011003567+40183-074133FM-15+0048KBLM V0203305N005152200059N0160935N5+00175-00725101585ADDGA1025+024385999GD11991+0243859GE19AGL   +99999+99999GF102995999999024381999999MA1101565100985REMMET10101/09/21 22:56:01 METAR KBLM 100356Z 33010KT 10SM FEW080 02/M07 A2999 RMK AO2 SLP158 T00171072 FZRANOEQDD01      0ADE726
0218724084547602021011004567+40183-074133FM-15+0048KBLM V0203205N004152200059N0160935N5+00115-00675101645ADDGA1005+999999999GD10991+9999999GF100991999999999999999999KA1240M+00281KA2240N-00441MA1101635101055REMMET10801/09/21 23:56:02 METAR KBLM 100456Z 32008KT 10SM CLR 01/M07 A3001 RMK AO2 SLP164 T00111067 400281044 FZRANO
0240724084547602021011005567+40183-074133FM-15+0048KBLM V0203105N003152200059N0160935N5+00005-00675101705ADDGA1005+999999999GD10991+9999999GF100991999999999999999999KA1060M+00281KA2060N+00001MA1101695101125MD1390179+9999REMMET11601/10/21 00:56:02 METAR KBLM 100556Z 31006KT 10SM CLR 00/M07 A3003 RMK AO2 SLP170 T00001067 10028 20000 53017 FZRANO
0183724084547602021011006567+40183-074133FM-15+0048KBLM V0203105N004152200059N0160935N5-00065-00675101785ADDGA1005+999999999GD10991+9999999GF100991999999999999999999MA1101765101185REMMET09901/10/21 01:56:02 METAR KBLM 100656Z 31008KT 10SM CLR M01/M07 A3005 RMK AO2 SLP178 T10061067 FZRANO
0183724084547602021011007567+40183-074133FM-15+0048KBLM V0203105N004652200059N0160935N5-00115-00675101875ADDGA1005+999999999GD10991+9999999GF100991999999999999999999MA1101865101285REMMET09901/10/21 02:56:02 METAR KBLM 100756Z 31009KT 10SM CLR M01/M07 A3008 RMK AO2 SLP187 T10111067 FZRANO
0203724084547602021011008567+40183-074133FM-15+0048KBLM V0203205N004652200059N0160935N5-00115-00725101885ADDGA1005+999999999GD10991+9999999GF100991999999999999999999MA1101865101285MD1190189+9999REMMET10501/10/21 03:56:02 METAR KBLM 100856Z 32009KT 10SM CLR M01/M07 A3008 RMK AO2 SLP188 T10111072 51018 FZRANO
0183724084547602021011009567+40183-074133FM-15+0048KBLM V0203205N003152200059N0160935N5-00225-00785101915ADDGA1005+999999999GD10991+9999999GF100991999999999999999999MA1101905101325REMMET09901/10/21 04:56:02 METAR KBLM 100956Z 32006KT 10SM CLR M02/M08 A3009 RMK AO2 SLP191 T10221078 FZRANO
0183724084547602021011010567+40183-074133FM-15+0048KBLM V0203105N003152200059N0160935N5-00225-00785102005ADDGA1005+999999999GD10991+9999999GF100991999999999999999999MA1102005101425REMMET09901/10/21 05:56:02 METAR KBLM 101056Z 31006KT 10SM CLR M02/M08 A3012 RMK AO2 SLP200 T10221078 FZRANO
0241724084547602021011011567+40183-074133FM-15+0048KBLM V0203105N002652200059N0160935N5-00285-00785102085ADDGA1005+999999999GD10991+9999999GF100991999999999999999999KA1060M+00001KA2060N-00281MA1102075101495MD1390219+9999REMMET11701/10/21 06:56:02 METAR KBLM 101156Z 31005KT 10SM CLR M03/M08 A3014 RMK AO2 SLP208 T10281078 10000 21028 53021 FZRANO
0183724084547602021011012567+40183-074133FM-15+0048KBLM V0203005N003652200059N0160935N5-00225-00725102165ADDGA1005+999999999GD10991+9999999GF100991999999999999999999MA1102135101555REMMET09901/10/21 07:56:02 METAR KBLM 101256Z 30007KT 10SM CLR M02/M07 A3016 RMK AO2 SLP216 T10221072 FZRANO
0182724084547602021011013567+40183-074133FM-15+0048KBLM V0203105N004652200059N0160935N5+00005-00675102265ADDGA1005+999999999GD10991+9999999GF100991999999999999999999MA1102245101665REMMET09801/10/21 08:56:02 METAR KBLM 101356Z 31009KT 10SM CLR 00/M07 A3019 RMK AO2 SLP226 T00001067 FZRANO
0202724084547602021011014567+40183-074133FM-15+0048KBLM V0203205N004152200059N0160935N5+00115-00785102385ADDGA1005+999999999GD10991+9999999GF100991999999999999999999MA1102375101795MD1390299+9999REMMET10401/10/21 09:56:02 METAR KBLM 101456Z 32008KT 10SM CLR 01/M08 A3023 RMK AO2 SLP238 T00111078 53029 FZRANO
0182724084547602021011015567+40183-074133FM-15+0048KBLM V0203105N004152200059N0160935N5+00225-00725102395ADDGA1005+999999999GD10991+9999999GF100991999999999999999999MA1102375101795REMMET09801/10/21 10:56:02 METAR KBLM 101556Z 31008KT 10SM CLR 02/M07 A3023 RMK AO2 SLP239 T00221072 FZRANO
0175724084547602021011016567+40183-074133FM-15+0048KBLM V0203105N005752200059N0160935N5+00395-00725102315ADDGA1005+999999999GD10991+9999999GF100991999999999999999999MA1102305101725REMMET09101/10/21 11:56:02 METAR KBLM 101656Z 31011KT 10SM CLR 04/M07 A3021 RMK AO2 SLP231 T00391072
0233724084547602021011017567+40183-074133FM-15+0048KBLM V0203405N003652200059N0160935N5+00505-00725102275ADDGA1005+999999999GD10991+9999999GF100991999999999999999999KA1060M+00501KA2060N-00281MA1102275101695MD1890109+9999REMMET10901/10/21 12:56:02 METAR KBLM 101756Z 34007KT 10SM CLR 05/M07 A3020 RMK AO2 SLP227 T00501072 10050 21028 58010
0186724084547602021011018567+40183-074133FM-15+0048KBLM V0203205N006752200059N0160935N5+00615-00675102235ADDGA1005+999999999GD10991+9999999GF100991999999999999999999MA1102245101665OC100825REMMET09401/10/21 13:56:02 METAR KBLM 101856Z 32013G16KT 10SM CLR 06/M07 A3019 RMK AO2 SLP223 T00611067
0175724084547602021011019567+40183-074133FM-15+0048KBLM V0203105N004152200059N0160935N5+00615-00725102305ADDGA1005+999999999GD10991+9999999GF100991999999999999999999MA1102305101725REMMET09101/10/21 14:56:02 METAR KBLM 101956Z 31008KT 10SM CLR 06/M07 A3021 RMK AO2 SLP230 T00611072
0195724084547602021011020567+40183-074133FM-15+0048KBLM V0203105N004652200059N0160935N5+00565-00725102365ADDGA1005+999999999GD10991+9999999GF100991999999999999999999MA1102345101765MD1390089+9999REMMET09701/10/21 15:56:02 METAR KBLM 102056Z 31009KT 10SM CLR 06/M07 A3022 RMK AO2 SLP236 T00561072 53008
0175724084547602021011021567+40183-074133FM-15+0048KBLM V0202805N001552200059N0160935N5+00395-00725102425ADDGA1005+999999999GD10991+9999999GF100991999999999999999999MA1102405101825REMMET09101/10/21 16:56:02 METAR KBLM 102156Z 28003KT 10SM CLR 04/M07 A3024 RMK AO2 SLP242 T00391072
0175724084547602021011022567+40183-074133FM-15+0048KBLM V0209999C000052200059N0160935N5+00335-00725102525ADDGA1005+999999999GD10991+9999999GF100991999999999999999999MA1102515101925REMMET09101/10/21 17:56:02 METAR KBLM 102256Z 00000KT 10SM CLR 03/M07 A3027 RMK AO2 SLP252 T00331072
0240724084547602021011023567+40183-074133FM-15+0048KBLM V0209999C000052200059N0160935N5+00065-00725102545ADDGA1005+999999999GD10991+9999999GF100991999999999999999999KA1060M+00611KA2060N+00061MA1102545101965MD1190189+9999REMMET11601/10/21 18:56:02 METAR KBLM 102356Z 00000KT 10SM CLR 01/M07 A3028 RMK AO2 SLP254 T00061072 10061 20006 51018 FZRANO
0183724084547602021011100567+40183-074133FM-15+0048KBLM V0209999C000052200059N0160935N5-00065-00725102615ADDGA1005+999999999GD10991+9999999GF100991999999999999999999MA1102615102035REMMET09901/10/21 19:56:01 METAR KBLM 110056Z 00000KT 10SM CLR M01/M07 A3030 RMK AO2 SLP261 T10061072 FZRANO
0183724084547602021011101567+40183-074133FM-15+0048KBLM V0202405N001552200059N0160935N5-00115-00615102685ADDGA1005+999999999GD10991+9999999GF100991999999999999999999MA1102685102095REMMET09901/10/21 20:56:01 METAR KBLM 110156Z 24003KT 10SM CLR M01/M06 A3032 RMK AO2 SLP268 T10111061 FZRANO
0203724084547602021011102567+40183-074133FM-15+0048KBLM V0203405N002152200059N0160935N5-00175-00615102655ADDGA1005+999999999GD10991+9999999GF100991999999999999999999MA1102645102065MD1090109+9999REMMET10501/10/21 21:56:01 METAR KBLM 110256Z 34004KT 10SM CLR M02/M06 A3031 RMK AO2 SLP265 T10171061 50010 FZRANO
0183724084547602021011103567+40183-074133FM-15+0048KBLM V0203205N001552200059N0160935N5-00285-00675102665ADDGA1005+999999999GD10991+9999999GF100991999999999999999999MA1102645102065REMMET09901/10/21 22:56:01 METAR KBLM 110356Z 32003KT 10SM CLR M03/M07 A3031 RMK AO2 SLP266 T10281067 FZRANO
0219724084547602021011104567+40183-074133FM-15+0048KBLM V0202905N002152200059N0160935N5-00335-00725102705ADDGA1005+999999999GD10991+9999999GF100991999999999999999999KA1240M+00611KA2240N-00391MA1102685102095REMMET10901/10/21 23:56:02 METAR KBLM 110456Z 29004KT 10SM CLR M03/M07 A3032 RMK AO2 SLP270 T10331072 400611039 FZRANO
0241724084547602021011105567+40183-074133FM-15+0048KBLM V0203305N002152200059N0160935N5-00285-00725102695ADDGA1005+999999999GD10991+9999999GF100991999999999999999999KA1060M+00111KA2060N-00391MA1102685102095MD1090059+9999REMMET11701/11/21 00:56:02 METAR KBLM 110556Z 33004KT 10SM CLR M03/M07 A3032 RMK AO2 SLP269 T10281072 10011 21039 50005 FZRANO
0183724084547602021011106567+40183-074133FM-15+0048KBLM V0203505N002652200059N0160935N5-00285-00675102715ADDGA1005+999999999GD10991+9999999GF100991999999999999999999MA1102685102095REMMET09901/11/21 01:56:02 METAR KBLM 110656Z 35005KT 10SM CLR M03/M07 A3032 RMK AO2 SLP271 T10281067 FZRANO
0183724084547602021011107567+40183-074133FM-15+0048KBLM V0203305N001552200059N0160935N5-00285-00615102695ADDGA1005+999999999GD10991+9999999GF100991999999999999999999MA1102685102095REMMET09901/11/21 02:56:02 METAR KBLM 110756Z 33003KT 10SM CLR M03/M06 A3032 RMK AO2 SLP269 T10281061 FZRANO
0203724084547602021011108567+40183-074133FM-15+0048KBLM V0209999C000052200059N0160935N5-00335-00565102715ADDGA1005+999999999GD10991+9999999GF100991999999999999999999MA1102685102095MD1390019+9999REMMET10501/11/21 03:56:02 METAR KBLM 110856Z 00000KT 10SM CLR M03/M06 A3032 RMK AO2 SLP271 T10331056 53001 FZRANO
0183724084547602021011109567+40183-074133FM-15+0048KBLM V0203205N001552200059N0160935N5-00445-00675102765ADDGA1005+999999999GD10991+9999999GF100991999999999999999999MA1102745102165REMMET09901/11/21 04:56:02 METAR KBLM 110956Z 32003KT 10SM CLR M04/M07 A3034 RMK AO2 SLP276 T10441067 FZRANO
0183724084547602021011110567+40183-074133FM-15+0048KBLM V0209999C000052200059N0160935N5-00335-00565102745ADDGA1005+999999999GD10991+9999999GF100991999999999999999999MA1102715102135REMMET09901/11/21 05:56:02 METAR KBLM 111056Z 00000KT 10SM CLR M03/M06 A3033 RMK AO2 SLP274 T10331056 FZRANO
0241724084547602021011111567+40183-074133FM-15+0048KBLM V0209999C000052200059N0160935N5-00445-00615102755ADDGA1005+999999999GD10991+9999999GF100991999999999999999999KA1060M-00171KA2060N-00561MA1102745102165MD1190049+9999REMMET11701/11/21 06:56:02 METAR KBLM 111156Z 00000KT 10SM CLR M04/M06 A3034 RMK AO2 SLP275 T10441061 11017 21056 51004 FZRANO
0183724084547602021011112567+40183-074133FM-15+0048KBLM V0209999C000052200059N0160935N5-00335-00565102755ADDGA1005+999999999GD10991+9999999GF100991999999999999999999MA1102745102165REMMET09901/11/21 07:56:02 METAR KBLM 111256Z 00000KT 10SM CLR M03/M06 A3034 RMK AO2 SLP275 T10331056 FZRANO
0183724084547602021011113567+40183-074133FM-15+0048KBLM V0203405N002152200059N0160935N5-00115-00395102725ADDGA1005+999999999GD10991+9999999GF100991999999999999999999MA1102715102135REMMET09901/11/21 08:56:02 METAR KBLM 111356Z 34004KT 10SM CLR M01/M04 A3033 RMK AO2 SLP272 T10111039 FZRANO
0202724084547602021011114567+40183-074133FM-15+0048KBLM V0209999C000052200059N0160935N5+00065-00445102805ADDGA1005+999999999GD10991+9999999GF100991999999999999999999MA1102785102195MD1390059+9999REMMET10401/11/21 09:56:02 METAR KBLM 111456Z 00000KT 10SM CLR 01/M04 A3035 RMK AO2 SLP280 T00061044 53005 FZRANO
0182724084547602021011115567+40183-074133FM-15+0048KBLM V0202805N001552200059N0160935N5+00175-00445102705ADDGA1005+999999999GD10991+9999999GF100991999999999999999999MA1102685102095REMMET09801/11/21 10:56:02 METAR KBLM 111556Z 28003KT 10SM CLR 02/M04 A3032 RMK AO2 SLP270 T00171044 FZRANO
0175724084547602021011116567+40183-074133FM-15+0048KBLM V0209999C000052200059N0160935N5+00285-00505102535ADDGA1005+999999999GD10991+9999999GF100991999999999999999999MA1102515101925REMMET09101/11/21 11:56:02 METAR KBLM 111656Z 00000KT 10SM CLR 03/M05 A3027 RMK AO2 SLP253 T00281050
