0154724077547792022010100547+41009-074736FM-15+0178K12N V0201905N001559999999N9999997N5+00895+00835101395ADDAA101000095MA1101355099235REMMET08112/31/21 19:54:03 METAR K12N 010054Z 19003KT 09/08 A2993 RMK AO1 SLP139 T00890083EQDR01      7SKY009R02      7GAS009
0154724077547792022010101547+41009-074736FM-15+0178K12N V0201905N002159999999N9999997N5+00895+00835101325ADDAA101000095MA1101295099175REMMET08112/31/21 20:54:03 METAR K12N 010154Z 19004KT 09/08 A2991 RMK AO1 SLP132 T00890083EQDR01      7SKY009R02      7GAS009
0174724077547792022010102547+41009-074736FM-15+0178K12N V0202005N001559999999N9999997N5+00945+00835101315ADDAA101000095MA1101295099175MD1690079+9999REMMET08712/31/21 21:54:03 METAR K12N 010254Z 20003KT 09/08 A2991 RMK AO1 SLP131 T00940083 56007EQDR01      7SKY009R02      7GAS009
0154724077547792022010103547+41009-074736FM-15+0178K12N V0209999C000059999999N9999997N5+00895+00835101265ADDAA101000095MA1101225099105REMMET08112/31/21 22:54:03 METAR K12N 010354Z 00000KT 09/08 A2989 RMK AO1 SLP126 T00890083EQDR01      7SKY009R02      7GAS009
0190724077547792022010104547+41009-074736FM-15+0178K12N V0209999C000059999999N9999997N5+00895+00835101235ADDAA101000095KA1240M+01111KA2240N+00781MA1101225099105REMMET09112/31/21 23:54:03 METAR K12N 010454Z 00000KT 09/08 A2989 RMK AO1 SLP123 T00890083 401110078EQDR01      7SKY009R02      7GAS009
0886724077547792022010104596+41009-074736SOD  +0178K12N V020999999999999999999999999999+99999+99999999999ADDAA124000095KA1240M+01115KA2240N+00785MG1099194101224OE11240058122012385OE22240040221012395OE33240008599999995REMSOD73024 HR PRECIPITATION (IN):0.00  24 HR MAX TEMP (F):52 24 HR MAX TEMP TIME (LST):0953 24 HR MIN TEMP (F):46 24 HR MIN TEMP TIME (LST):0800 AVERAGE STATION PRESSURE:29.290 MINIMUM SEA LEVEL PRESSURE:29.89 TIME OF OCCURRENCE:2359 PEAK WIND SPEED (MPH):13  PEAK WIND DIR (DEG):220 PEAK WIND TIME (LST):1238  FASTEST 2MIN SPEED (MPH):9  FASTEST 2MIN DIR (DEG):210 FASTEST 2MIN TIME (LST):1239 AVERAGE WIND SPEED (MPH):1.9  24 HR AVG TEMP (F):49 HEATING DEGREE DAYS:16  COOLING DEGREE DAYS:0   LATEST DAY MAX TEMP (0700-1900 LST):52  LATEST NIGHT MIN TEMP(1900-0800 LST):45 HOURLY INCREMENTAL PRECIPITATION VALUES (IN):.00 0.00 0.00 0.00 0.00 0.00 0.00 0.00 0.00 0.00 0.00 0.00 0.00 0.00 0.00 0.00 0.00 0.00 0.00 0.00 0.00 0.00 0.00 0.00EQDR01     N7GJS072R02     N7GKS075
1244724077547792022010104596+41009-074736SOM  +0178K12N V020999999999999999999999999999+99999+99999999999ADDAB10036896AD10006492122999999995AE1155075005005AH1005001591121225AH2010002591121225AH3015003091121225AH4020003391121225AH5030003891121225AH6045004191121225AI1060004191121225AI2080004191121225AI3100004191121225AI4120004191121225AI5150004392901515AI6180004692901515KB1744N-00175KB2744M+08725KB3744A+04285KC1N9-00722099995KC2M9+01881199995KD1744H07755KD2744C00005KE1005005195005MH1099534101734MK1103961507115099802514285REMSOM796PCP MTOT:1.45 PCP GT 24HRS:0.25 DATE(S):21-22 DAYS W/PCP >=.01:15 DAYS W/PCP >=.10:7  DAYS W/ PCP >=.50:0 DAYS W/PCP >=1.00:0 MSDP AMTS W/DATE-TIME TAGS:MIN:5 0.06  11/2122 MIN:10 0.10  11/2122 MIN:15 0.12  11/2122 MIN:20 0.13  11/2122 MIN:30 0.15  11/2122 MIN:45 0.16  11/2122 MIN:60 0.16  11/2122 MIN:80 0.16  11/2122 MIN:100 0.16  11/2122 MIN:120 0.16  11/2122 MIN:150 0.17  29/0151 MIN:180 0.18  29/0151 AVG DLY MIN:31.7  AVG DLY MAX:47.7  AVG MLY TMP:39.7  MIN TMP:19 DATE(S):20 MAX TMP:66  DATE(S):11 DAYS MAX <=32:0 DAYS MAX >=90:0  DAYS MIN <=32:19 DAYS MIN  <=0:0  AVG STP:29.390 LWST SLP:29.47 DATE/TIME:251428 HGST SLP:30.70 DATE/TIME:150711 HDD MTH TOT:775 DEP NORM:-2553 SEASON(JUL 1-JUN 30):1631 DEP NORM:-25536 CDD MTH TOT:0 DEP NORM:-2553 SEASON(JAN 1-DEC 31):1030 DEP NORM:-25536EQDR01  1.457ABP070
0212724077547792022010105547+41009-074736FM-15+0178K12N V0209999C000059999999N9999997N5+00945+00835101225ADDAA101000095KA1060M+00941KA2060N+00891MA1101195099075MD1690099+9999REMMET09901/01/22 00:54:02 METAR K12N 010554Z 00000KT 09/08 A2988 RMK AO1 SLP122 T00940083 10094 20089 56009EQDR01      7SKY009R02      7GAS009
0154724077547792022010106547+41009-074736FM-15+0178K12N V0209999C000059999999N9999997N5+00945+00835101185ADDAA101000095MA1101155099035REMMET08101/01/22 01:54:02 METAR K12N 010654Z 00000KT 09/08 A2987 RMK AO1 SLP118 T00940083EQDR01      7SKY009R02      7GAS009
0154724077547792022010107547+41009-074736FM-15+0178K12N V0209999V001559999999N9999997N5+00945+00835101125ADDAA101000095MA1101085098975REMMET08101/01/22 02:54:02 METAR K12N 010754Z VRB03KT 09/08 A2985 RMK AO1 SLP112 T00940083EQDR01      7SKY009R02      7GAS009
0174724077547792022010108547+41009-074736FM-15+0178K12N V0202005N001559999999N9999997N5+00945+00895101085ADDAA101000095MA1101055098935MD1690159+9999REMMET08701/01/22 03:54:02 METAR K12N 010854Z 20003KT 09/09 A2984 RMK AO1 SLP108 T00940089 56015EQDR01      7SKY009R02      7GAS009
0154724077547792022010109547+41009-074736FM-15+0178K12N V0209999C000059999999N9999997N5+00945+00895101015ADDAA101000095MA1100985098875REMMET08101/01/22 04:54:02 METAR K12N 010954Z 00000KT 09/09 A2982 RMK AO1 SLP101 T00940089EQDR01      7SKY009R02      7GAS009
0154724077547792022010110547+41009-074736FM-15+0178K12N V0209999C000059999999N9999997N5+00945+00895100945ADDAA101000095MA1100915098805REMMET08101/01/22 05:54:02 METAR K12N 011054Z 00000KT 09/09 A2980 RMK AO1 SLP094 T00940089EQDR01      7SKY009R02      7GAS009
0284724077547792022010111547+41009-074736FM-15+0178K12N V0202305N001559999999N9999997N5+00945+00895100995ADDAA101000595AA206000591AA324000591KA1060M+00941KA2060N+00941MA1100985098875MD1590089+9999REMMET11701/01/22 06:54:02 METAR K12N 011154Z 23003KT 09/09 A2982 RMK AO1 SLP099 P0002 60002 70002 T00940089 10094 20094 55008EQDQ01  00058PRCP06Q02  00058PRCP24R01      7SKY009R02      7GAS009
0154724077547792022010112547+41009-074736FM-15+0178K12N V0201805N001559999999N9999997N5+00945+00945100935ADDAA101000095MA1100915098805REMMET08101/01/22 07:54:02 METAR K12N 011254Z 18003KT 09/09 A2980 RMK AO1 SLP093 T00940094EQDR01      7SKY009R02      7GAS009
0154724077547792022010113547+41009-074736FM-15+0178K12N V0202205N001559999999N9999997N5+01005+00945100995ADDAA101000095MA1100955098835REMMET08101/01/22 08:54:02 METAR K12N 011354Z 22003KT 10/09 A2981 RMK AO1 SLP099 T01000094EQDR01      7SKY009R02      7GAS009
0174724077547792022010114547+41009-074736FM-15+0178K12N V0209999V001559999999N9999997N5+01065+01005101055ADDAA101000095MA1101055098935MD1390079+9999REMMET08701/01/22 09:54:02 METAR K12N 011454Z VRB03KT 11/10 A2984 RMK AO1 SLP105 T01060100 53007EQDR01      7SKY009R02      7GAS009
0154724077547792022010115547+41009-074736FM-15+0178K12N V0202105N001559999999N9999997N5+01175+01065100895ADDAA101000095MA1100885098775REMMET08101/01/22 10:54:02 METAR K12N 011554Z 21003KT 12/11 A2979 RMK AO1 SLP089 T01170106EQDR01      7SKY009R02      7GAS009
0160724077547792022010116547+41009-074736FM-15+0178K12N V0209999V002159999999N9999997N5+01175+01065100845ADDAA101000395MA1100815098705REMMET08701/01/22 11:54:02 METAR K12N 011654Z VRB04KT 12/11 A2977 RMK AO1 SLP084 P0001 T01170106EQDR01      7SKY009R02      7GAS009
0251724077547792022010117547+41009-074736FM-15+0178K12N V0202105N002659999999N9999997N5+01175+01065100785ADDAA101000395AA206000591KA1060M+01221KA2060N+00941MA1100785098675MD1690269+9999REMMET11101/01/22 12:54:02 METAR K12N 011754Z 21005KT 12/11 A2976 RMK AO1 SLP078 P0001 60002 T01170106 10122 20094 56026EQDQ01  00058PRCP06R01      7SKY009R02      7GAS009
0160724077547792022010118547+41009-074736FM-15+0178K12N V0202005N002659999999N9999997N5+01225+01115100685ADDAA101000395MA1100685098575REMMET08701/01/22 13:54:02 METAR K12N 011854Z 20005KT 12/11 A2973 RMK AO1 SLP068 P0001 T01220111EQDR01      7SKY009R02      7GAS009
0154724077547792022010119547+41009-074736FM-15+0178K12N V0209999C000059999999N9999997N5+01225+01115100555ADDAA101000095MA1100545098435REMMET08101/01/22 14:54:02 METAR K12N 011954Z 00000KT 12/11 A2969 RMK AO1 SLP055 T01220111EQDR01      7SKY009R02      7GAS009
0191724077547792022010120547+41009-074736FM-15+0178K12N V0209999C000059999999N9999997N5+01285+01115100605ADDAA101000095AA203000391MA1100615098505MD1590179+9999REMMET09301/01/22 15:54:02 METAR K12N 012054Z 00000KT 13/11 A2971 RMK AO1 SLP060 60001 T01280111 55017EQDR01      7SKY009R02      7GAS009
0154724077547792022010121547+41009-074736FM-15+0178K12N V0209999C000059999999N9999997N5+01115+01115100625ADDAA101000395MA1100615098505REMMET08101/01/22 16:54:02 METAR K12N 012154Z 00000KT 11/11 A2971 RMK AO1 SLP062 T01110111EQDR01      7SKY009R02      7GAS009
0160724077547792022010122547+41009-074736FM-15+0178K12N V0209999C000059999999N9999997N5+01005+01005100645ADDAA101000595MA1100615098505REMMET08701/01/22 17:54:02 METAR K12N 012254Z 00000KT 10/10 A2971 RMK AO1 SLP064 P0003 T01000100EQDR01      7SKY009R02      7GAS009
0251724077547792022010123547+41009-074736FM-15+0178K12N V0209999C000059999999N9999997N5+01065+01005100545ADDAA101001395AA206002391KA1060M+01281KA2060N+01001MA1100515098405MD1890079+9999REMMET11101/01/22 18:54:02 METAR K12N 012354Z 00000KT 11/10 A2968 RMK AO1 SLP054 P0005 60009 T01060100 10128 20100 58007EQDQ01  00228PRCP06R01      7SKY009R02      7GAS009
0295724077547792022010200547+41009-074736FM-15+0178K12N V0209999C000059999999N9999997N5+01007+01007100515ADDAA101001895MA1100515098405REMMET19001/01/22 19:54:01 METAR K12N 020054Z 00000KT 10/10 A2968 RMK AO1 SLP051ZCZC ATLMTRATL                                                                                          079 T02330161 $EQDR01      7SKY009R02    107TMP046R03    107DPT046R04      7GAS009
0160724077547792022010201547+41009-074736FM-15+0178K12N V0209999C000059999999N9999997N5+01005+00945100455ADDAA101004195MA1100445098335REMMET08701/01/22 20:54:01 METAR K12N 020154Z 00000KT 10/09 A2966 RMK AO1 SLP045 P0016 T01000094EQDR01      7SKY009R02      7GAS009
0213724077547792022010202547+41009-074736FM-15+0178K12N V0209999C000059999999N9999997N5+00945+00945100375ADDAA101002595AA203008191MA1100345098235MD1890179+9999REMMET09901/01/22 21:54:01 METAR K12N 020254Z 00000KT 09/09 A2963 RMK AO1 SLP037 P0010 60032 T00940094 58017EQDQ01  00818PRCP03R01      7SKY009R02      7GAS009
0160724077547792022010203547+41009-074736FM-15+0178K12N V0209999V001559999999N9999997N5+01005+01005100215ADDAA101000895MA1100205098105REMMET08701/01/22 22:54:01 METAR K12N 020354Z VRB03KT 10/10 A2959 RMK AO1 SLP021 P0004 T01000100EQDR01      7SKY009R02      7GAS009
0196724077547792022010204547+41009-074736FM-15+0178K12N V0209999C000059999999N9999997N5+01065+01005100025ADDAA101000395KA1240M+01281KA2240N+00941MA1100005097905REMMET09701/01/22 23:54:02 METAR K12N 020454Z 00000KT 11/10 A2953 RMK AO1 SLP002 P0001 T01060100 401280094EQDR01      7SKY009R02      7GAS009
0902724077547792022010204596+41009-074736SOD  +0178K12N V020999999999999999999999999999+99999+99999999999ADDAA124012796KA1240M+01285KA2240N+00945MG1098754099974OE11240058120011155OE22240040220011175OE33240008099999995REMSOD73024 HR PRECIPITATION (IN):0.50  24 HR MAX TEMP (F):55 24 HR MAX TEMP TIME (LST):1600 24 HR MIN TEMP (F):49 24 HR MIN TEMP TIME (LST):2201 AVERAGE STATION PRESSURE:29.160 MINIMUM SEA LEVEL PRESSURE:29.52 TIME OF OCCURRENCE:2359 PEAK WIND SPEED (MPH):13  PEAK WIND DIR (DEG):200 PEAK WIND TIME (LST):1115  FASTEST 2MIN SPEED (MPH):9  FASTEST 2MIN DIR (DEG):200 FASTEST 2MIN TIME (LST):1117 AVERAGE WIND SPEED (MPH):1.8  24 HR AVG TEMP (F):52 HEATING DEGREE DAYS:13  COOLING DEGREE DAYS:0   LATEST DAY MAX TEMP (0700-1900 LST):55  LATEST NIGHT MIN TEMP(1900-0800 LST):48 HOURLY INCREMENTAL PRECIPITATION VALUES (IN):.00 0.00 0.00 0.00 0.00 0.00 0.02 0.00 0.00 0.00 0.00 0.01 0.01 0.01 0.00 0.00 0.01 0.02 0.05 0.07 0.16 0.10 0.03 0.01EQDR01  0.507AAP092R02     N7GJS072R03     N7GKS075
0229724077547792022010205547+41009-074736FM-15+0178K12N V0209999V001559999999N9999997N5+01115+01065100055ADDAA101000095AA206009491KA1060M+01171KA2060N+00941MA1100035097935MD1590309+9999REMMET10501/02/22 00:54:02 METAR K12N 020554Z VRB03KT 11/11 A2954 RMK AO1 SLP005 60037 T01110106 10117 20094 55030EQDR01      7SKY009R02      7GAS009
0161724077547792022010206547+41009-074736FM-15+0178K12N V0203505N002659999999N9999997N5+01175+01065100115ADDAA101000095MA1100105098005REMMET08801/02/22 01:54:02 METAR K12N 020654Z 35005KT 12/11 A2956 RMK AO1 PRESRR SLP011 T01170106EQDR01      7SKY009R02      7GAS009
0154724077547792022010207547+41009-074736FM-15+0178K12N V0209999C000059999999N9999997N5+01115+01065100175ADDAA101000095MA1100175098075REMMET08101/02/22 02:54:02 METAR K12N 020754Z 00000KT 11/11 A2958 RMK AO1 SLP017 T01110106EQDR01      7SKY009R02      7GAS009
0181724077547792022010208547+41009-074736FM-15+0178K12N V0209999C000059999999N9999997N5+01115+01065099945ADDAA101000095MA1099975097875MD1890099+9999REMMET09401/02/22 03:54:02 METAR K12N 020854Z 00000KT 11/11 A2952 RMK AO1 PRESFR SLP994 T01110106 58009EQDR01      7SKY009R02      7GAS009
0160724077547792022010209547+41009-074736FM-15+0178K12N V0209999C000059999999N9999997N5+01115+01065100095ADDAA101000395MA1100105098005REMMET08701/02/22 04:54:02 METAR K12N 020954Z 00000KT 11/11 A2956 RMK AO1 SLP009 P0001 T01110106EQDR01      7SKY009R02      7GAS009
0160724077547792022010210547+41009-074736FM-15+0178K12N V0202605N001559999999N9999997N5+01115+01065100165ADDAA101000395MA1100145098035REMMET08701/02/22 05:54:02 METAR K12N 021054Z 26003KT 11/11 A2957 RMK AO1 SLP016 P0001 T01110106EQDR01      7SKY009R02      7GAS009
0284724077547792022010211547+41009-074736FM-15+0178K12N V0209999C000059999999N9999997N5+01065+01005100055ADDAA101000395AA206000891AA324013091KA1060M+01221KA2060N+01061MA1100035097935MD1090089+9999REMMET11701/02/22 06:54:02 METAR K12N 021154Z 00000KT 11/10 A2954 RMK AO1 SLP005 P0001 60003 70051 T01060100 10122 20106 50008EQDQ01  00078PRCP06Q02  01298PRCP24R01      7SKY009R02      7GAS009
0154724077547792022010212547+41009-074736FM-15+0178K12N V0209999C000059999999N9999997N5+01065+01005100165ADDAA101000095MA1100145098035REMMET08101/02/22 07:54:02 METAR K12N 021254Z 00000KT 11/10 A2957 RMK AO1 SLP016 T01060100EQDR01      7SKY009R02      7GAS009
0154724077547792022010213547+41009-074736FM-15+0178K12N V0209999C000059999999N9999997N5+01115+01065100155ADDAA101000095MA1100145098035REMMET08101/02/22 08:54:02 METAR K12N 021354Z 00000KT 11/11 A2957 RMK AO1 SLP015 T01110106EQDR01      7SKY009R02      7GAS009
0174724077547792022010214547+41009-074736FM-15+0178K12N V0202105N001559999999N9999997N5+01175+01115100295ADDAA101000095MA1100275098175MD1390249+9999REMMET08701/02/22 09:54:02 METAR K12N 021454Z 21003KT 12/11 A2961 RMK AO1 SLP029 T01170111 53024EQDR01      7SKY009R02      7GAS009
0154724077547792022010215547+41009-074736FM-15+0178K12N V0209999V001559999999N9999997N5+01175+01115100325ADDAA101000095MA1100305098205REMMET08101/02/22 10:54:02 METAR K12N 021554Z VRB03KT 12/11 A2962 RMK AO1 SLP032 T01170111EQDR01      7SKY009R02      7GAS009
0154724077547792022010216547+41009-074736FM-15+0178K12N V0201905N001559999999N9999997N5+01225+01175100295ADDAA101000095MA1100275098175REMMET08101/02/22 11:54:02 METAR K12N 021654Z 19003KT 12/12 A2961 RMK AO1 SLP029 T01220117EQDR01      7SKY009R02      7GAS009
0212724077547792022010217547+41009-074736FM-15+0178K12N V0209999V002159999999N9999997N5+01335+01115100335ADDAA101000095KA1060M+01331KA2060N+01061MA1100345098235MD1390069+9999REMMET09901/02/22 12:54:02 METAR K12N 021754Z VRB04KT 13/11 A2963 RMK AO1 SLP033 T01330111 10133 20106 53006EQDR01      7SKY009R02      7GAS009
0154724077547792022010218547+41009-074736FM-15+0178K12N V0203205N002659999999N9999997N5+01115+00835100425ADDAA101000095MA1100415098305REMMET08101/02/22 13:54:02 METAR K12N 021854Z 32005KT 11/08 A2965 RMK AO1 SLP042 T01110083EQDR01      7SKY009R02      7GAS009
0154724077547792022010219547+41009-074736FM-15+0178K12N V0203505N002659999999N9999997N5+00945+00615100535ADDAA101000095MA1100515098405REMMET08101/02/22 14:54:02 METAR K12N 021954Z 35005KT 09/06 A2968 RMK AO1 SLP053 T00940061EQDR01      7SKY009R02      7GAS009
0174724077547792022010220547+41009-074736FM-15+0178K12N V0203405N003659999999N9999997N5+00785+00445100705ADDAA101000095MA1100685098575MD1390349+9999REMMET08701/02/22 15:54:02 METAR K12N 022054Z 34007KT 08/04 A2973 RMK AO1 SLP070 T00780044 53034EQDR01      7SKY009R02      7GAS009
0154724077547792022010221547+41009-074736FM-15+0178K12N V0203405N002659999999N9999997N5+00615+00285100905ADDAA101000095MA1100885098775REMMET08101/02/22 16:54:02 METAR K12N 022154Z 34005KT 06/03 A2979 RMK AO1 SLP090 T00610028EQDR01      7SKY009R02      7GAS009
0165724077547792022010222547+41009-074736FM-15+0178K12N V0203305V003659999999N9999997N5+00395+00005101155ADDAA101000095MA1101125099005OC100985REMMET08401/02/22 17:54:02 METAR K12N 022254Z 33007G19KT 04/00 A2986 RMK AO1 SLP115 T00390000EQDR01      7SKY009R02      7GAS009
0213724077547792022010223547+41009-074736FM-15+0178K12N V0203505N004159999999N9999997N5+00225-00175101325ADDAA101000095KA1060M+01331KA2060N+00221MA1101295099175MD1190599+9999REMMET10001/02/22 18:54:02 METAR K12N 022354Z 35008KT 02/M02 A2991 RMK AO1 SLP132 T00221017 10133 20022 51059EQDR01      7SKY009R02      7GAS009
0155724077547792022010300547+41009-074736FM-15+0178K12N V0203505V004159999999N9999997N5+00115-00335101435ADDAA101000095MA1101395099275REMMET08201/02/22 19:54:01 METAR K12N 030054Z 35008KT 01/M03 A2994 RMK AO1 SLP143 T00111033EQDR01      7SKY009R02      7GAS009
0166724077547792022010301547+41009-074736FM-15+0178K12N V0209999V003159999999N9999997N5+00065-00395101455ADDAA101000095MA1101395099275OC100775REMMET08501/02/22 20:54:01 METAR K12N 030154Z VRB06G15KT 01/M04 A2994 RMK AO1 SLP145 T00061039EQDR01      7SKY009R02      7GAS009
0186724077547792022010302547+41009-074736FM-15+0178K12N V0203505N004159999999N9999997N5+00065-00445101545ADDAA101000095MA1101495099375MD1190219+9999OC100825REMMET09101/02/22 21:54:01 METAR K12N 030254Z 35008G16KT 01/M04 A2997 RMK AO1 SLP154 T00061044 51021EQDR01      7SKY009R02      7GAS009
0155724077547792022010303547+41009-074736FM-15+0178K12N V0203505N003659999999N9999997N5+00005-00445101585ADDAA101000095MA1101525099405REMMET08201/02/22 22:54:02 METAR K12N 030354Z 35007KT 00/M04 A2998 RMK AO1 SLP158 T00001044EQDR01      7SKY009R02      7GAS009
0191724077547792022010304547+41009-074736FM-15+0178K12N V0203505N003159999999N9999997N5+00005-00505101665ADDAA101000095KA1240M+01331KA2240N-00061MA1101635099505REMMET09201/02/22 23:54:02 METAR K12N 030454Z 35006KT 00/M05 A3001 RMK AO1 SLP166 T00001050 401331006EQDR01      7SKY009R02      7GAS009
0902724077547792022010304596+41009-074736SOD  +0178K12N V020999999999999999999999999999+99999+99999999999ADDAA124000896KA1240M+01335KA2240N-00055MG1098314099904OE11240098333017395OE22240067133018425OE33240020699999995REMSOD73024 HR PRECIPITATION (IN):0.03  24 HR MAX TEMP (F):56 24 HR MAX TEMP TIME (LST):1255 24 HR MIN TEMP (F):31 24 HR MIN TEMP TIME (LST):2359 AVERAGE STATION PRESSURE:29.030 MINIMUM SEA LEVEL PRESSURE:29.50 TIME OF OCCURRENCE:0133 PEAK WIND SPEED (MPH):22  PEAK WIND DIR (DEG):330 PEAK WIND TIME (LST):1739  FASTEST 2MIN SPEED (MPH):15 FASTEST 2MIN DIR (DEG):330 FASTEST 2MIN TIME (LST):1842 AVERAGE WIND SPEED (MPH):4.6  24 HR AVG TEMP (F):44 HEATING DEGREE DAYS:21  COOLING DEGREE DAYS:0   LATEST DAY MAX TEMP (0700-1900 LST):56  LATEST NIGHT MIN TEMP(1900-0800 LST):49 HOURLY INCREMENTAL PRECIPITATION VALUES (IN):.00 0.00 0.00 0.00 0.01 0.01 0.01 0.00 0.00 0.00 0.00 0.00 0.00 0.00 0.00 0.00 0.00 0.00 0.00 0.00 0.00 0.00 0.00 0.00EQDR01  0.037AAP092R02     N7GJS072R03     N7GKS075
0214724077547792022010305547+41009-074736FM-15+0178K12N V0209999V003159999999N9999997N5-00065-00565101845ADDAA101000095KA1060M+00221KA2060N-00061MA1101795099675MD1390309+9999REMMET10101/03/22 00:54:02 METAR K12N 030554Z VRB06KT M01/M06 A3006 RMK AO1 SLP184 T10061056 10022 21006 53030EQDR01      7SKY009R02      7GAS009
0156724077547792022010306547+41009-074736FM-15+0178K12N V0209999V002659999999N9999997N5-00115-00565101955ADDAA101000095MA1101905099775REMMET08301/03/22 01:54:02 METAR K12N 030654Z VRB05KT M01/M06 A3009 RMK AO1 SLP195 T10111056EQDR01      7SKY009R02      7GAS009
0156724077547792022010307547+41009-074736FM-15+0178K12N V0203505N003659999999N9999997N5-00115-00565101985ADDAA101000095MA1101905099775REMMET08301/03/22 02:54:02 METAR K12N 030754Z 35007KT M01/M06 A3009 RMK AO1 SLP198 T10111056EQDR01      7SKY009R02      7GAS009
0176724077547792022010308547+41009-074736FM-15+0178K12N V0203505N004659999999N9999997N5-00115-00565101945ADDAA101000095MA1101865099735MD1090079+9999REMMET08901/03/22 03:54:02 METAR K12N 030854Z 35009KT M01/M06 A3008 RMK AO1 SLP194 T10111056 50007EQDR01      7SKY009R02      7GAS009
0156724077547792022010309547+41009-074736FM-15+0178K12N V0209999V002659999999N9999997N5-00175-00615101935ADDAA101000095MA1101835099705REMMET08301/03/22 04:54:02 METAR K12N 030954Z VRB05KT M02/M06 A3007 RMK AO1 SLP193 T10171061EQDR01      7SKY009R02      7GAS009
0156724077547792022010310547+41009-074736FM-15+0178K12N V0203505N003659999999N9999997N5-00175-00615102085ADDAA101000095MA1101965099835REMMET08301/03/22 05:54:02 METAR K12N 031054Z 35007KT M02/M06 A3011 RMK AO1 SLP208 T10171061EQDR01      7SKY009R02      7GAS009
0214724077547792022010311547+41009-074736FM-15+0178K12N V0203505N003159999999N9999997N5-00175-00675102035ADDAA101000095KA1060M-00061KA2060N-00171MA1101935099805MD1090069+9999REMMET10101/03/22 06:54:02 METAR K12N 031154Z 35006KT M02/M07 A3010 RMK AO1 SLP203 T10171067 11006 21017 50006EQDR01      7SKY009R02      7GAS009
0167724077547792022010312547+41009-074736FM-15+0178K12N V0209999V003159999999N9999997N5-00175-00725102035ADDAA101000095MA1101935099805OC100725REMMET08601/03/22 07:54:02 METAR K12N 031254Z VRB06G14KT M02/M07 A3010 RMK AO1 SLP203 T10171072EQDR01      7SKY009R02      7GAS009
0156724077547792022010313547+41009-074736FM-15+0178K12N V0209999V002159999999N9999997N5-00175-00785102135ADDAA101000095MA1102035099905REMMET08301/03/22 08:54:02 METAR K12N 031354Z VRB04KT M02/M08 A3013 RMK AO1 SLP213 T10171078EQDR01      7SKY009R02      7GAS009
0187724077547792022010314547+41009-074736FM-15+0178K12N V0209999V003159999999N9999997N5-00175-00895102105ADDAA101000095MA1102005099875MD1090059+9999OC100935REMMET09201/03/22 09:54:02 METAR K12N 031454Z VRB06G18KT M02/M09 A3012 RMK AO1 SLP210 T10171089 50005EQDR01      7SKY009R02      7GAS009
0156724077547792022010315547+41009-074736FM-15+0178K12N V0200205V003659999999N9999997N5-00225-00945102095ADDAA101000095MA1102005099875REMMET08301/03/22 10:54:02 METAR K12N 031554Z 02007KT M02/M09 A3012 RMK AO1 SLP209 T10221094EQDR01      7SKY009R02      7GAS009
0156724077547792022010316547+41009-074736FM-15+0178K12N V0200205V003659999999N9999997N5-00225-01005101955ADDAA101000095MA1101835099705REMMET08301/03/22 11:54:02 METAR K12N 031654Z 02007KT M02/M10 A3007 RMK AO1 SLP195 T10221100EQDR01      7SKY009R02      7GAS009
0214724077547792022010317547+41009-074736FM-15+0178K12N V0209999V002659999999N9999997N5-00225-01005101815ADDAA101000095KA1060M-00171KA2060N-00281MA1101695099575MD1890289+9999REMMET10101/03/22 12:54:02 METAR K12N 031754Z VRB05KT M02/M10 A3003 RMK AO1 SLP181 T10221100 11017 21028 58028EQDR01      7SKY009R02      7GAS009
0167724077547792022010318547+41009-074736FM-15+0178K12N V0203605N004159999999N9999997N5-00225-01065101805ADDAA101000095MA1101695099575OC100775REMMET08601/03/22 13:54:02 METAR K12N 031854Z 36008G15KT M02/M11 A3003 RMK AO1 SLP180 T10221106EQDR01      7SKY009R02      7GAS009
0156724077547792022010319547+41009-074736FM-15+0178K12N V0203505N004159999999N9999997N5-00285-01115101835ADDAA101000095MA1101735099605REMMET08301/03/22 14:54:02 METAR K12N 031954Z 35008KT M03/M11 A3004 RMK AO1 SLP183 T10281111EQDR01      7SKY009R02      7GAS009
0187724077547792022010320547+41009-074736FM-15+0178K12N V0203505N004159999999N9999997N5-00335-01285101965ADDAA101000095MA1101835099705MD1390139+9999OC100825REMMET09201/03/22 15:54:02 METAR K12N 032054Z 35008G16KT M03/M13 A3007 RMK AO1 SLP196 T10331128 53013EQDR01      7SKY009R02      7GAS009
0156724077547792022010321547+41009-074736FM-15+0178K12N V0203505N004159999999N9999997N5-00335-01285101985ADDAA101000095MA1101865099735REMMET08301/03/22 16:54:02 METAR K12N 032154Z 35008KT M03/M13 A3008 RMK AO1 SLP198 T10331128EQDR01      7SKY009R02      7GAS009
0156724077547792022010322547+41009-074736FM-15+0178K12N V0203505N003159999999N9999997N5-00335-01335102095ADDAA101000095MA1101965099835REMMET08301/03/22 17:54:02 METAR K12N 032254Z 35006KT M03/M13 A3011 RMK AO1 SLP209 T10331133EQDR01      7SKY009R02      7GAS009
0214724077547792022010323547+41009-074736FM-15+0178K12N V0203605V003659999999N9999997N5-00445-01445102265ADDAA101000095KA1060M-00221KA2060N-00441MA1102135100005MD1390299+9999REMMET10101/03/22 18:54:02 METAR K12N 032354Z 36007KT M04/M14 A3016 RMK AO1 SLP226 T10441144 11022 21044 53029EQDR01      7SKY009R02      7GAS009
0156724077547792022010400547+41009-074736FM-15+0178K12N V0203605V003659999999N9999997N5-00505-01395102375ADDAA101000095MA1102245100105REMMET08301/03/22 19:54:01 METAR K12N 040054Z 36007KT M05/M14 A3019 RMK AO1 SLP237 T10501139EQDR01      7SKY009R02      7GAS009
0156724077547792022010401547+41009-074736FM-15+0178K12N V0209999V002659999999N9999997N5-00565-01395102435ADDAA101000095MA1102305100165REMMET08301/03/22 20:54:01 METAR K12N 040154Z VRB05KT M06/M14 A3021 RMK AO1 SLP243 T10561139EQDR01      7SKY009R02      7GAS009
0176724077547792022010402547+41009-074736FM-15+0178K12N V0203505N002659999999N9999997N5-00615-01395102505ADDAA101000095MA1102375100235MD1190239+9999REMMET08901/03/22 21:54:01 METAR K12N 040254Z 35005KT M06/M14 A3023 RMK AO1 SLP250 T10611139 51023EQDR01      7SKY009R02      7GAS009
0156724077547792022010403547+41009-074736FM-15+0178K12N V0209999V002659999999N9999997N5-00725-01395102565ADDAA101000095MA1102405100265REMMET08301/03/22 22:54:02 METAR K12N 040354Z VRB05KT M07/M14 A3024 RMK AO1 SLP256 T10721139EQDR01      7SKY009R02      7GAS009
0192724077547792022010404547+41009-074736FM-15+0178K12N V0203605N002159999999N9999997N5-00785-01445102635ADDAA101000095KA1240M-00061KA2240N-00781MA1102475100335REMMET09301/03/22 23:54:02 METAR K12N 040454Z 36004KT M08/M14 A3026 RMK AO1 SLP263 T10781144 410061078EQDR01      7SKY009R02      7GAS009
0886724077547792022010404596+41009-074736SOD  +0178K12N V020999999999999999999999999999+99999+99999999999ADDAA124000095KA1240M-00055KA2240N-00775MG1099754101734OE11240102835016095OE22240067135014385OE33240032299999995REMSOD73024 HR PRECIPITATION (IN):0.00  24 HR MAX TEMP (F):31 24 HR MAX TEMP TIME (LST):0113 24 HR MIN TEMP (F):18 24 HR MIN TEMP TIME (LST):2359 AVERAGE STATION PRESSURE:29.455 MINIMUM SEA LEVEL PRESSURE:30.04 TIME OF OCCURRENCE:1236 PEAK WIND SPEED (MPH):23  PEAK WIND DIR (DEG):350 PEAK WIND TIME (LST):1609  FASTEST 2MIN SPEED (MPH):15 FASTEST 2MIN DIR (DEG):350 FASTEST 2MIN TIME (LST):1438 AVERAGE WIND SPEED (MPH):7.2  24 HR AVG TEMP (F):25 HEATING DEGREE DAYS:40  COOLING DEGREE DAYS:0   LATEST DAY MAX TEMP (0700-1900 LST):29  LATEST NIGHT MIN TEMP(1900-0800 LST):29 HOURLY INCREMENTAL PRECIPITATION VALUES (IN):.00 0.00 0.00 0.00 0.00 0.00 0.00 0.00 0.00 0.00 0.00 0.00 0.00 0.00 0.00 0.00 0.00 0.00 0.00 0.00 0.00 0.00 0.00 0.00EQDR01     N7GJS072R02     N7GKS075
0214724077547792022010405547+41009-074736FM-15+0178K12N V0203505N002659999999N9999997N5-00835-01565102705ADDAA101000095KA1060M-00441KA2060N-00831MA1102545100405MD1390189+9999REMMET10101/04/22 00:54:02 METAR K12N 040554Z 35005KT M08/M16 A3028 RMK AO1 SLP270 T10831156 11044 21083 53018EQDR01      7SKY009R02      7GAS009
0156724077547792022010406547+41009-074736FM-15+0178K12N V0203405N001559999999N9999997N5-00835-01565102745ADDAA101000095MA1102575100435REMMET08301/04/22 01:54:02 METAR K12N 040654Z 34003KT M08/M16 A3029 RMK AO1 SLP274 T10831156EQDR01      7SKY009R02      7GAS009
0156724077547792022010407547+41009-074736FM-15+0178K12N V0209999V002659999999N9999997N5-00835-01445102835ADDAA101000095MA1102685100535REMMET08301/04/22 02:54:02 METAR K12N 040754Z VRB05KT M08/M14 A3032 RMK AO1 SLP283 T10831144EQDR01      7SKY009R02      7GAS009
0176724077547792022010408547+41009-074736FM-15+0178K12N V0203505N001559999999N9999997N5-00895-01395102885ADDAA101000095MA1102715100565MD1390179+9999REMMET08901/04/22 03:54:02 METAR K12N 040854Z 35003KT M09/M14 A3033 RMK AO1 SLP288 T10891139 53017EQDR01      7SKY009R02      7GAS009
0156724077547792022010409547+41009-074736FM-15+0178K12N V0203205N001559999999N9999997N5-00895-01335102955ADDAA101000095MA1102785100635REMMET08301/04/22 04:54:02 METAR K12N 040954Z 32003KT M09/M13 A3035 RMK AO1 SLP295 T10891133EQDR01      7SKY009R02      7GAS009
0156724077547792022010410547+41009-074736FM-15+0178K12N V0209999C000059999999N9999997N5-00895-01285102995ADDAA101000095MA1102815100665REMMET08301/04/22 05:54:02 METAR K12N 041054Z 00000KT M09/M13 A3036 RMK AO1 SLP299 T10891128EQDR01      7SKY009R02      7GAS009
0214724077547792022010411547+41009-074736FM-15+0178K12N V0209999V001559999999N9999997N5-00895-01225103025ADDAA101000095KA1060M-00781KA2060N-00941MA1102845100705MD1190139+9999REMMET10101/04/22 06:54:02 METAR K12N 041154Z VRB03KT M09/M12 A3037 RMK AO1 SLP302 T10891122 11078 21094 51013EQDR01      7SKY009R02      7GAS009
0156724077547792022010412547+41009-074736FM-15+0178K12N V0209999C000059999999N9999997N5-00895-01225103075ADDAA101000095MA1102915100765REMMET08301/04/22 07:54:02 METAR K12N 041254Z 00000KT M09/M12 A3039 RMK AO1 SLP307 T10891122EQDR01      7SKY009R02      7GAS009
0156724077547792022010413547+41009-074736FM-15+0178K12N V0209999C000059999999N9999997N5-00725-01115103135ADDAA101000095MA1102985100835REMMET08301/04/22 08:54:02 METAR K12N 041354Z 00000KT M07/M11 A3041 RMK AO1 SLP313 T10721111EQDR01      7SKY009R02      7GAS009
0176724077547792022010414547+41009-074736FM-15+0178K12N V0202205N002159999999N9999997N5-00505-01175103135ADDAA101000095MA1102985100835MD1190129+9999REMMET08901/04/22 09:54:02 METAR K12N 041454Z 22004KT M05/M12 A3041 RMK AO1 SLP313 T10501117 51012EQDR01      7SKY009R02      7GAS009
0156724077547792022010415547+41009-074736FM-15+0178K12N V0202205N002159999999N9999997N5-00335-01115103085ADDAA101000095MA1102915100765REMMET08301/04/22 10:54:02 METAR K12N 041554Z 22004KT M03/M11 A3039 RMK AO1 SLP308 T10331111EQDR01      7SKY009R02      7GAS009
0156724077547792022010416547+41009-074736FM-15+0178K12N V0201905N001559999999N9999997N5-00175-01005102955ADDAA101000095MA1102815100665REMMET08301/04/22 11:54:02 METAR K12N 041654Z 19003KT M02/M10 A3036 RMK AO1 SLP295 T10171100EQDR01      7SKY009R02      7GAS009
0214724077547792022010417547+41009-074736FM-15+0178K12N V0209999V001559999999N9999997N5-00065-00895102865ADDAA101000095KA1060M-00061KA2060N-00891MA1102715100565MD1890259+9999REMMET10101/04/22 12:54:02 METAR K12N 041754Z VRB03KT M01/M09 A3033 RMK AO1 SLP286 T10061089 11006 21089 58025EQDR01      7SKY009R02      7GAS009
0155724077547792022010418547+41009-074736FM-15+0178K12N V0201805N002659999999N9999997N5+00005-00895102825ADDAA101000095MA1102685100535REMMET08201/04/22 13:54:02 METAR K12N 041854Z 18005KT 00/M09 A3032 RMK AO1 SLP282 T00001089EQDR01      7SKY009R02      7GAS009
0155724077547792022010419547+41009-074736FM-15+0178K12N V0202305N003159999999N9999997N5+00005-00945102825ADDAA101000095MA1102685100535REMMET08201/04/22 14:54:02 METAR K12N 041954Z 23006KT 00/M09 A3032 RMK AO1 SLP282 T00001094EQDR01      7SKY009R02      7GAS009
0175724077547792022010420547+41009-074736FM-15+0178K12N V0201805N001559999999N9999997N5+00005-00895102815ADDAA101000095MA1102685100535MD1690049+9999REMMET08801/04/22 15:54:02 METAR K12N 042054Z 18003KT 00/M09 A3032 RMK AO1 SLP281 T00001089 56004EQDR01      7SKY009R02      7GAS009
0156724077547792022010421547+41009-074736FM-15+0178K12N V0202105N001559999999N9999997N5-00115-00895102855ADDAA101000095MA1102715100565REMMET08301/04/22 16:54:02 METAR K12N 042154Z 21003KT M01/M09 A3033 RMK AO1 SLP285 T10111089EQDR01      7SKY009R02      7GAS009
0156724077547792022010422547+41009-074736FM-15+0178K12N V0209999C000059999999N9999997N5-00225-00785102835ADDAA101000095MA1102685100535REMMET08301/04/22 17:54:02 METAR K12N 042254Z 00000KT M02/M08 A3032 RMK AO1 SLP283 T10221078EQDR01      7SKY009R02      7GAS009
0214724077547792022010423547+41009-074736FM-15+0178K12N V0209999C000059999999N9999997N5-00395-00785102855ADDAA101000095KA1060M+00061KA2060N-00391MA1102685100535MD1190029+9999REMMET10101/04/22 18:54:02 METAR K12N 042354Z 00000KT M04/M08 A3032 RMK AO1 SLP285 T10391078 10006 21039 51002EQDR01      7SKY009R02      7GAS009
0156724077547792022010500547+41009-074736FM-15+0178K12N V0209999C000059999999N9999997N5-00335-00785102795ADDAA101000095MA1102645100505REMMET08301/04/22 19:54:01 METAR K12N 050054Z 00000KT M03/M08 A3031 RMK AO1 SLP279 T10331078EQDR01      7SKY009R02      7GAS009
0156724077547792022010501547+41009-074736FM-15+0178K12N V0202205N001559999999N9999997N5-00335-00785102715ADDAA101000095MA1102545100405REMMET08301/04/22 20:54:01 METAR K12N 050154Z 22003KT M03/M08 A3028 RMK AO1 SLP271 T10331078EQDR01      7SKY009R02      7GAS009
0176724077547792022010502547+41009-074736FM-15+0178K12N V0209999C000059999999N9999997N5-00445-00785102675ADDAA101000095MA1102545100405MD1690169+9999REMMET08901/04/22 21:54:01 METAR K12N 050254Z 00000KT M04/M08 A3028 RMK AO1 SLP267 T10441078 56016EQDR01      7SKY009R02      7GAS009
0156724077547792022010503547+41009-074736FM-15+0178K12N V0209999C000059999999N9999997N5-00445-00785102605ADDAA101000095MA1102445100305REMMET08301/04/22 22:54:02 METAR K12N 050354Z 00000KT M04/M08 A3025 RMK AO1 SLP260 T10441078EQDR01      7SKY009R02      7GAS009
0192724077547792022010504547+41009-074736FM-15+0178K12N V0209999V001559999999N9999997N5-00335-00785102515ADDAA101000095KA1240M+00061KA2240N-00941MA1102375100235REMMET09301/04/22 23:54:02 METAR K12N 050454Z VRB03KT M03/M08 A3023 RMK AO1 SLP251 T10331078 400061094EQDR01      7SKY009R02      7GAS009
0886724077547792022010504596+41009-074736SOD  +0178K12N V020999999999999999999999999999+99999+99999999999ADDAA124000095KA1240M+00065KA2240N-00935MG1100544102514OE11240080521014235OE22240044722014335OE33240012599999995REMSOD73024 HR PRECIPITATION (IN):0.00  24 HR MAX TEMP (F):33 24 HR MAX TEMP TIME (LST):1527 24 HR MIN TEMP (F):15 24 HR MIN TEMP TIME (LST):0645 AVERAGE STATION PRESSURE:29.690 MINIMUM SEA LEVEL PRESSURE:30.27 TIME OF OCCURRENCE:2359 PEAK WIND SPEED (MPH):18  PEAK WIND DIR (DEG):210 PEAK WIND TIME (LST):1423  FASTEST 2MIN SPEED (MPH):10 FASTEST 2MIN DIR (DEG):220 FASTEST 2MIN TIME (LST):1433 AVERAGE WIND SPEED (MPH):2.8  24 HR AVG TEMP (F):24 HEATING DEGREE DAYS:41  COOLING DEGREE DAYS:0   LATEST DAY MAX TEMP (0700-1900 LST):33  LATEST NIGHT MIN TEMP(1900-0800 LST):15 HOURLY INCREMENTAL PRECIPITATION VALUES (IN):.00 0.00 0.00 0.00 0.00 0.00 0.00 0.00 0.00 0.00 0.00 0.00 0.00 0.00 0.00 0.00 0.00 0.00 0.00 0.00 0.00 0.00 0.00 0.00EQDR01     N7GJS072R02     N7GKS075
0214724077547792022010505547+41009-074736FM-15+0178K12N V0209999C000059999999N9999997N5-00395-00785102445ADDAA101000095KA1060M-00281KA2060N-00501MA1102305100165MD1690219+9999REMMET10101/05/22 00:54:02 METAR K12N 050554Z 00000KT M04/M08 A3021 RMK AO1 SLP244 T10391078 11028 21050 56021EQDR01      7SKY009R02      7GAS009
0156724077547792022010506547+41009-074736FM-15+0178K12N V0209999C000059999999N9999997N5-00445-00785102405ADDAA101000095MA1102275100135REMMET08301/05/22 01:54:02 METAR K12N 050654Z 00000KT M04/M08 A3020 RMK AO1 SLP240 T10441078EQDR01      7SKY009R02      7GAS009
0156724077547792022010507547+41009-074736FM-15+0178K12N V0209999C000059999999N9999997N5-00505-00785102335ADDAA101000095MA1102205100065REMMET08301/05/22 02:54:02 METAR K12N 050754Z 00000KT M05/M08 A3018 RMK AO1 SLP233 T10501078EQDR01      7SKY009R02      7GAS009
0176724077547792022010508547+41009-074736FM-15+0178K12N V0201805N002159999999N9999997N5-00395-00675102205ADDAA101000095MA1102075099935MD1890239+9999REMMET08901/05/22 03:54:02 METAR K12N 050854Z 18004KT M04/M07 A3014 RMK AO1 SLP220 T10391067 58023EQDR01      7SKY009R02      7GAS009
0156724077547792022010509547+41009-074736FM-15+0178K12N V0202205N003159999999N9999997N5-00285-00565102055ADDAA101000095MA1101935099805REMMET08301/05/22 04:54:02 METAR K12N 050954Z 22006KT M03/M06 A3010 RMK AO1 SLP205 T10281056EQDR01      7SKY009R02      7GAS009
0167724077547792022010510547+41009-074736FM-15+0178K12N V0202005N004159999999N9999997N5-00115-00445101975ADDAA101000095MA1101865099735OC100775REMMET08601/05/22 05:54:02 METAR K12N 051054Z 20008G15KT M01/M04 A3008 RMK AO1 SLP197 T10111044EQDR01      7SKY009R02      7GAS009
0221724077547792022010511547+41009-074736FM-15+0178K12N V0209999C000059999999N9999997N5-00115-00445101775ADDAA101000095KA1060M-00061KA2060N-00561MA1101665099535MD1890429+9999REMMET10801/05/22 06:54:02 METAR K12N 051154Z 00000KT M01/M04 A3002 RMK AO1 PRESFR SLP177 T10111044 11006 21056 58042EQDR01      7SKY009R02      7GAS009
0156724077547792022010512547+41009-074736FM-15+0178K12N V0209999C000059999999N9999997N5-00065-00395101725ADDAA101000095MA1101595099475REMMET08301/05/22 07:54:02 METAR K12N 051254Z 00000KT M01/M04 A3000 RMK AO1 SLP172 T10061039EQDR01      7SKY009R02      7GAS009
0156724077547792022010513547+41009-074736FM-15+0178K12N V0202705N001559999999N9999997N5-00065-00335101665ADDAA101000095MA1101565099435REMMET08301/05/22 08:54:02 METAR K12N 051354Z 27003KT M01/M03 A2999 RMK AO1 SLP166 T10061033EQDR01      7SKY009R02      7GAS009
0175724077547792022010514547+41009-074736FM-15+0178K12N V0209999C000059999999N9999997N5+00005-00285101535ADDAA101000095MA1101425099305MD1890239+9999REMMET08801/05/22 09:54:02 METAR K12N 051454Z 00000KT 00/M03 A2995 RMK AO1 SLP153 T00001028 58023EQDR01      7SKY009R02      7GAS009
0155724077547792022010515547+41009-074736FM-15+0178K12N V0209999C000059999999N9999997N5+00115-00225101375ADDAA101000095MA1101255099135REMMET08201/05/22 10:54:02 METAR K12N 051554Z 00000KT 01/M02 A2990 RMK AO1 SLP137 T00111022EQDR01      7SKY009R02      7GAS009
0155724077547792022010516547+41009-074736FM-15+0178K12N V0202005N002159999999N9999997N5+00445-00065101135ADDAA101000095MA1101055098935REMMET08201/05/22 11:54:02 METAR K12N 051654Z 20004KT 04/M01 A2984 RMK AO1 SLP113 T00441006EQDR01      7SKY009R02      7GAS009
0213724077547792022010517547+41009-074736FM-15+0178K12N V0209999V001559999999N9999997N5+00445-00065101025ADDAA101000095KA1060M+00501KA2060N-00111MA1100915098805MD1690489+9999REMMET10001/05/22 12:54:02 METAR K12N 051754Z VRB03KT 04/M01 A2980 RMK AO1 SLP102 T00441006 10050 21011 56048EQDR01      7SKY009R02      7GAS009
0155724077547792022010518547+41009-074736FM-15+0178K12N V0202905N001559999999N9999997N5+00395-00065100925ADDAA101000095MA1100815098705REMMET08201/05/22 13:54:02 METAR K12N 051854Z 29003KT 04/M01 A2977 RMK AO1 SLP092 T00391006EQDR01      7SKY009R02      7GAS009
0155724077547792022010519547+41009-074736FM-15+0178K12N V0209999C000059999999N9999997N5+00395-00065100895ADDAA101000095MA1100785098675REMMET08201/05/22 14:54:02 METAR K12N 051954Z 00000KT 04/M01 A2976 RMK AO1 SLP089 T00391006EQDR01      7SKY009R02      7GAS009
0175724077547792022010520547+41009-074736FM-15+0178K12N V0209999C000059999999N9999997N5+00335-00065100875ADDAA101000095MA1100755098635MD1690169+9999REMMET08801/05/22 15:54:02 METAR K12N 052054Z 00000KT 03/M01 A2975 RMK AO1 SLP087 T00331006 56016EQDR01      7SKY009R02      7GAS009
0155724077547792022010521547+41009-074736FM-15+0178K12N V0209999C000059999999N9999997N5+00115-00115100815ADDAA101000095MA1100715098605REMMET08201/05/22 16:54:02 METAR K12N 052154Z 00000KT 01/M01 A2974 RMK AO1 SLP081 T00111011EQDR01      7SKY009R02      7GAS009
0156724077547792022010522547+41009-074736FM-15+0178K12N V0209999C000059999999N9999997N5-00115-00285100785ADDAA101000095MA1100685098575REMMET08301/05/22 17:54:02 METAR K12N 052254Z 00000KT M01/M03 A2973 RMK AO1 SLP078 T10111028EQDR01      7SKY009R02      7GAS009
0214724077547792022010523547+41009-074736FM-15+0178K12N V0209999C000059999999N9999997N5-00175-00285100785ADDAA101000095KA1060M+00441KA2060N-00221MA1100685098575MD1690099+9999REMMET10101/05/22 18:54:02 METAR K12N 052354Z 00000KT M02/M03 A2973 RMK AO1 SLP078 T10171028 10044 21022 56009EQDR01      7SKY009R02      7GAS009
0156724077547792022010600547+41009-074736FM-15+0178K12N V0209999C000059999999N9999997N5-00285-00395100755ADDAA101000095MA1100645098535REMMET08301/05/22 19:54:01 METAR K12N 060054Z 00000KT M03/M04 A2972 RMK AO1 SLP075 T10281039EQDR01      7SKY009R02      7GAS009
0156724077547792022010601547+41009-074736FM-15+0178K12N V0209999C000059999999N9999997N5-00285-00395100745ADDAA101000095MA1100615098505REMMET08301/05/22 20:54:01 METAR K12N 060154Z 00000KT M03/M04 A2971 RMK AO1 SLP074 T10281039EQDR01      7SKY009R02      7GAS009
0176724077547792022010602547+41009-074736FM-15+0178K12N V0209999C000059999999N9999997N5-00285-00395100695ADDAA101000095MA1100585098475MD1690089+9999REMMET08901/05/22 21:54:01 METAR K12N 060254Z 00000KT M03/M04 A2970 RMK AO1 SLP069 T10281039 56008EQDR01      7SKY009R02      7GAS009
0156724077547792022010603547+41009-074736FM-15+0178K12N V0209999C000059999999N9999997N5-00285-00395100625ADDAA101000095MA1100515098405REMMET08301/05/22 22:54:01 METAR K12N 060354Z 00000KT M03/M04 A2968 RMK AO1 SLP062 T10281039EQDR01      7SKY009R02      7GAS009
0192724077547792022010604547+41009-074736FM-15+0178K12N V0209999C000059999999N9999997N5-00225-00285100615ADDAA101000095KA1240M+00501KA2240N-00561MA1100515098405REMMET09301/05/22 23:54:02 METAR K12N 060454Z 00000KT M02/M03 A2968 RMK AO1 SLP061 T10221028 400501056EQDR01      7SKY009R02      7GAS009
0886724077547792022010604596+41009-074736SOD  +0178K12N V020999999999999999999999999999+99999+99999999999ADDAA124000095KA1240M+00505KA2240N-00555MG1099264100584OE11240080520011445OE22240053621012045OE33240006799999995REMSOD73024 HR PRECIPITATION (IN):0.00  24 HR MAX TEMP (F):41 24 HR MAX TEMP TIME (LST):1224 24 HR MIN TEMP (F):22 24 HR MIN TEMP TIME (LST):0300 AVERAGE STATION PRESSURE:29.310 MINIMUM SEA LEVEL PRESSURE:29.70 TIME OF OCCURRENCE:2336 PEAK WIND SPEED (MPH):18  PEAK WIND DIR (DEG):200 PEAK WIND TIME (LST):1144  FASTEST 2MIN SPEED (MPH):12 FASTEST 2MIN DIR (DEG):210 FASTEST 2MIN TIME (LST):1204 AVERAGE WIND SPEED (MPH):1.5  24 HR AVG TEMP (F):32 HEATING DEGREE DAYS:33  COOLING DEGREE DAYS:0   LATEST DAY MAX TEMP (0700-1900 LST):41  LATEST NIGHT MIN TEMP(1900-0800 LST):22 HOURLY INCREMENTAL PRECIPITATION VALUES (IN):.00 0.00 0.00 0.00 0.00 0.00 0.00 0.00 0.00 0.00 0.00 0.00 0.00 0.00 0.00 0.00 0.00 0.00 0.00 0.00 0.00 0.00 0.00 0.00EQDR01     N7GJS072R02     N7GKS075
0214724077547792022010605547+41009-074736FM-15+0178K12N V0201905N001559999999N9999997N5-00175-00225100665ADDAA101000095KA1060M-00171KA2060N-00331MA1100585098475MD1590019+9999REMMET10101/06/22 00:54:02 METAR K12N 060554Z 19003KT M02/M02 A2970 RMK AO1 SLP066 T10171022 11017 21033 55001EQDR01      7SKY009R02      7GAS009
0156724077547792022010606547+41009-074736FM-15+0178K12N V0209999C000059999999N9999997N5-00175-00225100705ADDAA101000095MA1100615098505REMMET08301/06/22 01:54:02 METAR K12N 060654Z 00000KT M02/M02 A2971 RMK AO1 SLP070 T10171022EQDR01      7SKY009R02      7GAS009
0156724077547792022010607547+41009-074736FM-15+0178K12N V0209999C000059999999N9999997N5-00285-00395100765ADDAA101000095MA1100685098575REMMET08301/06/22 02:54:02 METAR K12N 060754Z 00000KT M03/M04 A2973 RMK AO1 SLP076 T10281039EQDR01      7SKY009R02      7GAS009
0176724077547792022010608547+41009-074736FM-15+0178K12N V0209999C000059999999N9999997N5-00395-00505100815ADDAA101000095MA1100715098605MD1390139+9999REMMET08901/06/22 03:54:02 METAR K12N 060854Z 00000KT M04/M05 A2974 RMK AO1 SLP081 T10391050 53013EQDR01      7SKY009R02      7GAS009
0155724077547792022010609547+41009-074736FM-15+0178K12N V0209999V002659999999N9999997N5+00115-00335100905ADDAA101000095MA1100815098705REMMET08201/06/22 04:54:02 METAR K12N 060954Z VRB05KT 01/M03 A2977 RMK AO1 SLP090 T00111033EQDR01      7SKY009R02      7GAS009
0155724077547792022010610547+41009-074736FM-15+0178K12N V0202105N003159999999N9999997N5+00115-00565101025ADDAA101000095MA1100915098805REMMET08201/06/22 05:54:02 METAR K12N 061054Z 21006KT 01/M06 A2980 RMK AO1 SLP102 T00111056EQDR01      7SKY009R02      7GAS009
0213724077547792022010611547+41009-074736FM-15+0178K12N V0209999V002159999999N9999997N5+00065-00675101115ADDAA101000095KA1060M+00221KA2060N-00391MA1101025098905MD1190309+9999REMMET10001/06/22 06:54:02 METAR K12N 061154Z VRB04KT 01/M07 A2983 RMK AO1 SLP111 T00061067 10022 21039 51030EQDR01      7SKY009R02      7GAS009
0155724077547792022010612547+41009-074736FM-15+0178K12N V0202205N002159999999N9999997N5+00005-00835101215ADDAA101000095MA1101125099005REMMET08201/06/22 07:54:02 METAR K12N 061254Z 22004KT 00/M08 A2986 RMK AO1 SLP121 T00001083EQDR01      7SKY009R02      7GAS009
0155724077547792022010613547+41009-074736FM-15+0178K12N V0209999V001559999999N9999997N5+00005-00895101305ADDAA101000095MA1101195099075REMMET08201/06/22 08:54:02 METAR K12N 061354Z VRB03KT 00/M09 A2988 RMK AO1 SLP130 T00001089EQDR01      7SKY009R02      7GAS009
0175724077547792022010614547+41009-074736FM-15+0178K12N V0202605V003659999999N9999997N5+00065-01005101365ADDAA101000095MA1101255099135MD1190249+9999REMMET08801/06/22 09:54:02 METAR K12N 061454Z 26007KT 01/M10 A2990 RMK AO1 SLP136 T00061100 51024EQDR01      7SKY009R02      7GAS009
0155724077547792022010615547+41009-074736FM-15+0178K12N V0209999V003159999999N9999997N5+00115-01005101385ADDAA101000095MA1101295099175REMMET08201/06/22 10:54:02 METAR K12N 061554Z VRB06KT 01/M10 A2991 RMK AO1 SLP138 T00111100EQDR01      7SKY009R02      7GAS009
0155724077547792022010616547+41009-074736FM-15+0178K12N V0202605V003659999999N9999997N5+00115-01005101405ADDAA101000095MA1101295099175REMMET08201/06/22 11:54:02 METAR K12N 061654Z 26007KT 01/M10 A2991 RMK AO1 SLP140 T00111100EQDR01      7SKY009R02      7GAS009
0213724077547792022010617547+41009-074736FM-15+0178K12N V0209999C000059999999N9999997N5+00175-01065101345ADDAA101000095KA1060M+00171KA2060N+00001MA1101255099135MD1890029+9999REMMET10001/06/22 12:54:02 METAR K12N 061754Z 00000KT 02/M11 A2990 RMK AO1 SLP134 T00171106 10017 20000 58002EQDR01      7SKY009R02      7GAS009
0155724077547792022010618547+41009-074736FM-15+0178K12N V0209999V002159999999N9999997N5+00175-01005101325ADDAA101000095MA1101225099105REMMET08201/06/22 13:54:02 METAR K12N 061854Z VRB04KT 02/M10 A2989 RMK AO1 SLP132 T00171100EQDR01      7SKY009R02      7GAS009
0155724077547792022010619547+41009-074736FM-15+0178K12N V0209999V001559999999N9999997N5+00285-01005101325ADDAA101000095MA1101225099105REMMET08201/06/22 14:54:02 METAR K12N 061954Z VRB03KT 03/M10 A2989 RMK AO1 SLP132 T00281100EQDR01      7SKY009R02      7GAS009
0175724077547792022010620547+41009-074736FM-15+0178K12N V0209999V001559999999N9999997N5+00175-01005101345ADDAA101000095MA1101225099105MD1590009+9999REMMET08801/06/22 15:54:02 METAR K12N 062054Z VRB03KT 02/M10 A2989 RMK AO1 SLP134 T00171100 55000EQDR01      7SKY009R02      7GAS009
0156724077547792022010621547+41009-074736FM-15+0178K12N V0209999C000059999999N9999997N5-00065-00835101465ADDAA101000095MA1101355099235REMMET08301/06/22 16:54:02 METAR K12N 062154Z 00000KT M01/M08 A2993 RMK AO1 SLP146 T10061083EQDR01      7SKY009R02      7GAS009
0156724077547792022010622547+41009-074736FM-15+0178K12N V0209999C000059999999N9999997N5-00175-00785101505ADDAA101000095MA1101395099275REMMET08301/06/22 17:54:02 METAR K12N 062254Z 00000KT M02/M08 A2994 RMK AO1 SLP150 T10171078EQDR01      7SKY009R02      7GAS009
0214724077547792022010623547+41009-074736FM-15+0178K12N V0209999C000059999999N9999997N5-00115-00615101485ADDAA101000095KA1060M+00281KA2060N-00221MA1101395099275MD1090149+9999REMMET10101/06/22 18:54:02 METAR K12N 062354Z 00000KT M01/M06 A2994 RMK AO1 SLP148 T10111061 10028 21022 50014EQDR01      7SKY009R02      7GAS009
0155724077547792022010700547+41009-074736FM-15+0178K12N V0209999C000059999999N9999997N5+00005-00895101435ADDAA101000095MA1101325099205REMMET08201/06/22 19:54:01 METAR K12N 070054Z 00000KT 00/M09 A2992 RMK AO1 SLP143 T00001089EQDR01      7SKY009R02      7GAS009
0155724077547792022010701547+41009-074736FM-15+0178K12N V0209999C000059999999N9999997N5+00005-00945101375ADDAA101000095MA1101255099135REMMET08201/06/22 20:54:01 METAR K12N 070154Z 00000KT 00/M09 A2990 RMK AO1 SLP137 T00001094EQDR01      7SKY009R02      7GAS009
0176724077547792022010702547+41009-074736FM-15+0178K12N V0209999C000059999999N9999997N5-00065-00945101425ADDAA101000095MA1101325099205MD1590069+9999REMMET08901/06/22 21:54:01 METAR K12N 070254Z 00000KT M01/M09 A2992 RMK AO1 SLP142 T10061094 55006EQDR01      7SKY009R02      7GAS009
0162724077547792022010703547+41009-074736FM-15+0178K12N V0209999C000059999999N9999997N5-00225-00505101415ADDAA101000395MA1101295099175REMMET08901/06/22 22:54:01 METAR K12N 070354Z 00000KT M02/M05 A2991 RMK AO1 SLP141 P0001 T10221050EQDR01      7SKY009R02      7GAS009
0198724077547792022010704547+41009-074736FM-15+0178K12N V0209999C000059999999N9999997N5-00225-00395101355ADDAA101001095KA1240M+00281KA2240N-00391MA1101255099135REMMET09901/06/22 23:54:02 METAR K12N 070454Z 00000KT M02/M04 A2990 RMK AO1 SLP135 P0004 T10221039 400281039EQDR01      7SKY009R02      7GAS009
0902724077547792022010704596+41009-074736SOD  +0178K12N V020999999999999999999999999999+99999+99999999999ADDAA124001396KA1240M+00285KA2240N-00385MG1098924100614OE11240076029009285OE22240053630012255OE33240011699999995REMSOD73024 HR PRECIPITATION (IN):0.05  24 HR MAX TEMP (F):37 24 HR MAX TEMP TIME (LST):1531 24 HR MIN TEMP (F):25 24 HR MIN TEMP TIME (LST):0407 AVERAGE STATION PRESSURE:29.210 MINIMUM SEA LEVEL PRESSURE:29.71 TIME OF OCCURRENCE:0036 PEAK WIND SPEED (MPH):17  PEAK WIND DIR (DEG):290 PEAK WIND TIME (LST):0928  FASTEST 2MIN SPEED (MPH):12 FASTEST 2MIN DIR (DEG):300 FASTEST 2MIN TIME (LST):1225 AVERAGE WIND SPEED (MPH):2.6  24 HR AVG TEMP (F):31 HEATING DEGREE DAYS:34  COOLING DEGREE DAYS:0   LATEST DAY MAX TEMP (0700-1900 LST):37  LATEST NIGHT MIN TEMP(1900-0800 LST):25 HOURLY INCREMENTAL PRECIPITATION VALUES (IN):.00 0.00 0.00 0.00 0.00 0.00 0.00 0.00 0.00 0.00 0.00 0.00 0.00 0.00 0.00 0.00 0.00 0.00 0.00 0.00 0.00 0.00 0.01 0.04EQDR01  0.057AAP092R02     N7GJS072R03     N7GKS075
0253724077547792022010705547+41009-074736FM-15+0178K12N V0200305N003159999999N9999997N5-00285-00395101015ADDAA101001595AA206002591KA1060M+00001KA2060N-00281MA1100915098805MD1890409+9999REMMET11301/07/22 00:54:02 METAR K12N 070554Z 03006KT M03/M04 A2980 RMK AO1 SLP101 P0005 60010 T10281039 10000 21028 58040EQDQ01  00258PRCP06R01      7SKY009R02      7GAS009
0162724077547792022010706547+41009-074736FM-15+0178K12N V0200205N002159999999N9999997N5-00285-00445100915ADDAA101000095MA1100815098705REMMET08901/07/22 01:54:02 METAR K12N 070654Z 02004KT M03/M04 A2977 RMK AO1 SLP091 P0001 T10281044EQDR01      7SKY009R02      7GAS009
0162724077547792022010707547+41009-074736FM-15+0178K12N V0200205N001559999999N9999997N5-00285-00445100955ADDAA101000595MA1100855098735REMMET08901/07/22 02:54:02 METAR K12N 070754Z 02003KT M03/M04 A2978 RMK AO1 SLP095 P0002 T10281044EQDR01      7SKY009R02      7GAS009
0215724077547792022010708547+41009-074736FM-15+0178K12N V0209999V003159999999N9999997N5-00285-00445100875ADDAA101000395AA203001091MA1100785098675MD1690139+9999REMMET10101/07/22 03:54:02 METAR K12N 070854Z VRB06KT M03/M04 A2976 RMK AO1 SLP087 P0001 60004 T10281044 56013EQDQ01  00108PRCP03R01      7SKY009R02      7GAS009
0162724077547792022010709547+41009-074736FM-15+0178K12N V0203405N002159999999N9999997N5-00335-00445100895ADDAA101000595MA1100785098675REMMET08901/07/22 04:54:02 METAR K12N 070954Z 34004KT M03/M04 A2976 RMK AO1 SLP089 P0002 T10331044EQDR01      7SKY009R02      7GAS009
0162724077547792022010710547+41009-074736FM-15+0178K12N V0209999C000059999999N9999997N5-00335-00445100985ADDAA101001395MA1100885098775REMMET08901/07/22 05:54:02 METAR K12N 071054Z 00000KT M03/M04 A2979 RMK AO1 SLP098 P0005 T10331044EQDR01      7SKY009R02      7GAS009
0286724077547792022010711547+41009-074736FM-15+0178K12N V0203405N001559999999N9999997N5-00335-00445101025ADDAA101001095AA206003891AA324006491KA1060M-00281KA2060N-00331MA1100915098805MD1390149+9999REMMET11901/07/22 06:54:02 METAR K12N 071154Z 34003KT M03/M04 A2980 RMK AO1 SLP102 P0004 60015 70025 T10331044 11028 21033 53014EQDQ01  00388PRCP06Q02  00638PRCP24R01      7SKY009R02      7GAS009
0162724077547792022010712547+41009-074736FM-15+0178K12N V0209999C000059999999N9999997N5-00335-00505101055ADDAA101000395MA1100915098805REMMET08901/07/22 07:54:02 METAR K12N 071254Z 00000KT M03/M05 A2980 RMK AO1 SLP105 P0001 T10331050EQDR01      7SKY009R02      7GAS009
0156724077547792022010713547+41009-074736FM-15+0178K12N V0209999V002159999999N9999997N5-00225-00505101085ADDAA101000095MA1100985098875REMMET08301/07/22 08:54:02 METAR K12N 071354Z VRB04KT M02/M05 A2982 RMK AO1 SLP108 T10221050EQDR01      7SKY009R02      7GAS009
0193724077547792022010714547+41009-074736FM-15+0178K12N V0203405N004159999999N9999997N5-00115-00565101165ADDAA101000095AA203000391MA1101055098935MD1390149+9999REMMET09501/07/22 09:54:02 METAR K12N 071454Z 34008KT M01/M06 A2984 RMK AO1 SLP116 60001 T10111056 53014EQDR01      7SKY009R02      7GAS009
0167724077547792022010715547+41009-074736FM-15+0178K12N V0209999V002659999999N9999997N5-00065-00725101165ADDAA101000095MA1101055098935OC100775REMMET08601/07/22 10:54:02 METAR K12N 071554Z VRB05G15KT M01/M07 A2984 RMK AO1 SLP116 T10061072EQDR01      7SKY009R02      7GAS009
0167724077547792022010716547+41009-074736FM-15+0178K12N V0203205V003659999999N9999997N5-00115-00835101155ADDAA101000095MA1101055098935OC100775REMMET08601/07/22 11:54:02 METAR K12N 071654Z 32007G15KT M01/M08 A2984 RMK AO1 SLP115 T10111083EQDR01      7SKY009R02      7GAS009
0242724077547792022010717547+41009-074736FM-15+0178K12N V0203105V006759999999N9999997N5-00115-00895101165ADDAA101000095AA206000391KA1060M+00001KA2060N-00331MA1101055098935MD1590009+9999OC101035REMMET11001/07/22 12:54:02 METAR K12N 071754Z 31013G20KT M01/M09 A2984 RMK AO1 SLP116 60001 T10111089 10000 21033 55000EQDR01      7SKY009R02      7GAS009
0166724077547792022010718547+41009-074736FM-15+0178K12N V0209999V002159999999N9999997N5+00005-01005101195ADDAA101000095MA1101085098975OC100985REMMET08501/07/22 13:54:02 METAR K12N 071854Z VRB04G19KT 00/M10 A2985 RMK AO1 SLP119 T00001100EQDR01      7SKY009R02      7GAS009
0156724077547792022010719547+41009-074736FM-15+0178K12N V0203305V003659999999N9999997N5-00115-01115101325ADDAA101000095MA1101225099105REMMET08301/07/22 14:54:02 METAR K12N 071954Z 33007KT M01/M11 A2989 RMK AO1 SLP132 T10111111EQDR01      7SKY009R02      7GAS009
0187724077547792022010720547+41009-074736FM-15+0178K12N V0203305V003659999999N9999997N5-00225-00945101495ADDAA101000095MA1101395099275MD1390339+9999OC100775REMMET09201/07/22 15:54:02 METAR K12N 072054Z 33007G15KT M02/M09 A2994 RMK AO1 SLP149 T10221094 53033EQDR01      7SKY009R02      7GAS009
0156724077547792022010721547+41009-074736FM-15+0178K12N V0209999C000059999999N9999997N5-00225-01005101665ADDAA101000095MA1101525099405REMMET08301/07/22 16:54:02 METAR K12N 072154Z 00000KT M02/M10 A2998 RMK AO1 SLP166 T10221100EQDR01      7SKY009R02      7GAS009
0156724077547792022010722547+41009-074736FM-15+0178K12N V0202905V004159999999N9999997N5-00335-01115101825ADDAA101000095MA1101695099575REMMET08301/07/22 17:54:02 METAR K12N 072254Z 29008KT M03/M11 A3003 RMK AO1 SLP182 T10331111EQDR01      7SKY009R02      7GAS009
0214724077547792022010723547+41009-074736FM-15+0178K12N V0209999V001559999999N9999997N5-00395-01175101955ADDAA101000095KA1060M+00001KA2060N-00391MA1101835099705MD1190439+9999REMMET10101/07/22 18:54:02 METAR K12N 072354Z VRB03KT M04/M12 A3007 RMK AO1 SLP195 T10391117 10000 21039 51043EQDR01      7SKY009R02      7GAS009
0156724077547792022010800547+41009-074736FM-15+0178K12N V0202805N002659999999N9999997N5-00395-01285102055ADDAA101000095MA1101935099805REMMET08301/07/22 19:54:01 METAR K12N 080054Z 28005KT M04/M13 A3010 RMK AO1 SLP205 T10391128EQDR01      7SKY009R02      7GAS009
0167724077547792022010801547+41009-074736FM-15+0178K12N V0203205V004659999999N9999997N5-00445-01225102165ADDAA101000095MA1102035099905OC100725REMMET08601/07/22 20:54:01 METAR K12N 080154Z 32009G14KT M04/M12 A3013 RMK AO1 SLP216 T10441122EQDR01      7SKY009R02      7GAS009
0176724077547792022010802547+41009-074736FM-15+0178K12N V0209999V002159999999N9999997N5-00505-01225102235ADDAA101000095MA1102105099965MD1190289+9999REMMET08901/07/22 21:54:01 METAR K12N 080254Z VRB04KT M05/M12 A3015 RMK AO1 SLP223 T10501122 51028EQDR01      7SKY009R02      7GAS009
0156724077547792022010803547+41009-074736FM-15+0178K12N V0209999V001559999999N9999997N5-00505-01285102385ADDAA101000095MA1102275100135REMMET08301/07/22 22:54:02 METAR K12N 080354Z VRB03KT M05/M13 A3020 RMK AO1 SLP238 T10501128EQDR01      7SKY009R02      7GAS009
0203724077547792022010804547+41009-074736FM-15+0178K12N V0209999V003159999999N9999997N5-00565-01395102445ADDAA101000095KA1240M+00001KA2240N-00561MA1102305100165OC100935REMMET09601/07/22 23:54:02 METAR K12N 080454Z VRB06G18KT M06/M14 A3021 RMK AO1 SLP244 T10561139 400001056EQDR01      7SKY009R02      7GAS009
0902724077547792022010804596+41009-074736SOD  +0178K12N V020999999999999999999999999999+99999+99999999999ADDAA124005396KA1240M+00005KA2240N-00555MG1099034100814OE11240102830012535OE22240067133014055OE33240025599999995REMSOD73024 HR PRECIPITATION (IN):0.21  24 HR MAX TEMP (F):32 24 HR MAX TEMP TIME (LST):1422 24 HR MIN TEMP (F):22 24 HR MIN TEMP TIME (LST):2359 AVERAGE STATION PRESSURE:29.245 MINIMUM SEA LEVEL PRESSURE:29.77 TIME OF OCCURRENCE:0418 PEAK WIND SPEED (MPH):23  PEAK WIND DIR (DEG):300 PEAK WIND TIME (LST):1253  FASTEST 2MIN SPEED (MPH):15 FASTEST 2MIN DIR (DEG):330 FASTEST 2MIN TIME (LST):1405 AVERAGE WIND SPEED (MPH):5.7  24 HR AVG TEMP (F):27 HEATING DEGREE DAYS:38  COOLING DEGREE DAYS:0   LATEST DAY MAX TEMP (0700-1900 LST):32  LATEST NIGHT MIN TEMP(1900-0800 LST):26 HOURLY INCREMENTAL PRECIPITATION VALUES (IN):.06 0.00 0.02 0.01 0.02 0.05 0.04 0.01 0.00 0.00 0.00 0.00 0.00 0.00 0.00 0.00 0.00 0.00 0.00 0.00 0.00 0.00 0.00 0.00EQDR01  0.217AAP092R02     N7GJS072R03     N7GKS075
0201724077547792022010805547+41009-074736FM-15+0178K12N V0209999N999999999999N9999997N5-00615-01395102525ADDAA101000095KA1060M-00391MA1102375100235MD1190289+9999REMMET10101/08/22 00:54:02 METAR K12N 080554Z      KT M06/M14 A3023 RMK AO1 SLP252 T10611139 11039 21061 51028EQDR01      7SKY009R02      7GAS009
0156724077547792022010806547+41009-074736FM-15+0178K12N V0203405N003659999999N9999997N5-00675-01445102685ADDAA101000095MA1102545100405REMMET08301/08/22 01:54:02 METAR K12N 080654Z 34007KT M07/M14 A3028 RMK AO1 SLP268 T10671144EQDR01      7SKY009R02      7GAS009
0156724077547792022010807547+41009-074736FM-15+0178K12N V0203405N003159999999N9999997N5-00675-01395102815ADDAA101000095MA1102685100535REMMET08301/08/22 02:54:02 METAR K12N 080754Z 34006KT M07/M14 A3032 RMK AO1 SLP281 T10671139EQDR01      7SKY009R02      7GAS009
0176724077547792022010808547+41009-074736FM-15+0178K12N V0209999V002159999999N9999997N5-00675-01445102905ADDAA101000095MA1102745100605MD1190369+9999REMMET08901/08/22 03:54:02 METAR K12N 080854Z VRB04KT M07/M14 A3034 RMK AO1 SLP290 T10671144 51036EQDR01      7SKY009R02      7GAS009
0156724077547792022010809547+41009-074736FM-15+0178K12N V0209999V003159999999N9999997N5-00785-01505103065ADDAA101000095MA1102915100765REMMET08301/08/22 04:54:02 METAR K12N 080954Z VRB06KT M08/M15 A3039 RMK AO1 SLP306 T10781150EQDR01      7SKY009R02      7GAS009
0156724077547792022010810547+41009-074736FM-15+0178K12N V0209999V002159999999N9999997N5-00785-01505103235ADDAA101000095MA1103085100935REMMET08301/08/22 05:54:02 METAR K12N 081054Z VRB04KT M08/M15 A3044 RMK AO1 SLP323 T10781150EQDR01      7SKY009R02      7GAS009
0231724077547792022010811547+41009-074736FM-15+0178K12N V0203305N002659999999N9999997N5-00895-01445103355ADDAA101000095AA224000391KA1060M-00611KA2060N-00941MA1103185101035MD1190439+9999REMMET10701/08/22 06:54:02 METAR K12N 081154Z 33005KT M09/M14 A3047 RMK AO1 SLP335 70001 T10891144 11061 21094 51043EQDR01      7SKY009R02      7GAS009
0156724077547792022010812547+41009-074736FM-15+0178K12N V0209999C000059999999N9999997N5-01005-01335103515ADDAA101000095MA1103355101205REMMET08301/08/22 07:54:02 METAR K12N 081254Z 00000KT M10/M13 A3052 RMK AO1 SLP351 T11001133EQDR01      7SKY009R02      7GAS009
0156724077547792022010813547+41009-074736FM-15+0178K12N V0209999C000059999999N9999997N5-00725-01335103695ADDAA101000095MA1103525101365REMMET08301/08/22 08:54:02 METAR K12N 081354Z 00000KT M07/M13 A3057 RMK AO1 SLP369 T10721133EQDR01      7SKY009R02      7GAS009
0176724077547792022010814547+41009-074736FM-15+0178K12N V0203305N002659999999N9999997N5-00615-01445103785ADDAA101000095MA1103625101465MD1190439+9999REMMET08901/08/22 09:54:02 METAR K12N 081454Z 33005KT M06/M14 A3060 RMK AO1 SLP378 T10611144 51043EQDR01      7SKY009R02      7GAS009
0156724077547792022010815547+41009-074736FM-15+0178K12N V0203505N003659999999N9999997N5-00445-01505103715ADDAA101000095MA1103565101405REMMET08301/08/22 10:54:02 METAR K12N 081554Z 35007KT M04/M15 A3058 RMK AO1 SLP371 T10441150EQDR01      7SKY009R02      7GAS009
0156724077547792022010816547+41009-074736FM-15+0178K12N V0203305N003159999999N9999997N5-00335-01565103655ADDAA101000095MA1103495101335REMMET08301/08/22 11:54:02 METAR K12N 081654Z 33006KT M03/M16 A3056 RMK AO1 SLP365 T10331156EQDR01      7SKY009R02      7GAS009
0214724077547792022010817547+41009-074736FM-15+0178K12N V0209999C000059999999N9999997N5-00225-01445103615ADDAA101000095KA1060M-00221KA2060N-01061MA1103455101305MD1690159+9999REMMET10101/08/22 12:54:02 METAR K12N 081754Z 00000KT M02/M14 A3055 RMK AO1 SLP361 T10221144 11022 21106 56015EQDR01      7SKY009R02      7GAS009
0156724077547792022010818547+41009-074736FM-15+0178K12N V0209999C000059999999N9999997N5-00065-01505103565ADDAA101000095MA1103425101265REMMET08301/08/22 13:54:02 METAR K12N 081854Z 00000KT M01/M15 A3054 RMK AO1 SLP356 T10061150EQDR01      7SKY009R02      7GAS009
0156724077547792022010819547+41009-074736FM-15+0178K12N V0209999C000059999999N9999997N5-00065-01565103595ADDAA101000095MA1103455101305REMMET08301/08/22 14:54:02 METAR K12N 081954Z 00000KT M01/M16 A3055 RMK AO1 SLP359 T10061156EQDR01      7SKY009R02      7GAS009
0156724077547792022010820547+41009-074736FM-15+0178K12N V0202105N003159999999N9999997N5-00175-01565103605ADDAA101000095MA1103455101305REMMET08301/08/22 15:54:02 METAR K12N 082054Z 21006KT M02/M16 A3055 RMK AO1 SLP360 T10171156EQDR01      7SKY009R02      7GAS009
0156724077547792022010821547+41009-074736FM-15+0178K12N V0209999C000059999999N9999997N5-00445-01285103615ADDAA101000095MA1103455101305REMMET08301/08/22 16:54:02 METAR K12N 082154Z 00000KT M04/M13 A3055 RMK AO1 SLP361 T10441128EQDR01      7SKY009R02      7GAS009
0156724077547792022010822547+41009-074736FM-15+0178K12N V0209999C000059999999N9999997N5-00335-01335103595ADDAA101000095MA1103425101265REMMET08301/08/22 17:54:02 METAR K12N 082254Z 00000KT M03/M13 A3054 RMK AO1 SLP359 T10331133EQDR01      7SKY009R02      7GAS009
0214724077547792022010823547+41009-074736FM-15+0178K12N V0209999C000059999999N9999997N5-00675-01115103655ADDAA101000095KA1060M+00001KA2060N-00671MA1103455101305MD1390019+9999REMMET10101/08/22 18:54:02 METAR K12N 082354Z 00000KT M07/M11 A3055 RMK AO1 SLP365 T10671111 10000 21067 53001EQDR01      7SKY009R02      7GAS009
0156724077547792022010900547+41009-074736FM-15+0178K12N V0201805N001559999999N9999997N5-00675-01005103675ADDAA101000095MA1103495101335REMMET08301/08/22 19:54:01 METAR K12N 090054Z 18003KT M07/M10 A3056 RMK AO1 SLP367 T10671100EQDR01      7SKY009R02      7GAS009
0156724077547792022010901547+41009-074736FM-15+0178K12N V0209999C000059999999N9999997N5-00785-01115103595ADDAA101000095MA1103425101265REMMET08301/08/22 20:54:01 METAR K12N 090154Z 00000KT M08/M11 A3054 RMK AO1 SLP359 T10781111EQDR01      7SKY009R02      7GAS009
0176724077547792022010902547+41009-074736FM-15+0178K12N V0201905N001559999999N9999997N5-00675-01065103435ADDAA101000095MA1103255101105MD1890219+9999REMMET08901/08/22 21:54:01 METAR K12N 090254Z 19003KT M07/M11 A3049 RMK AO1 SLP343 T10671106 58021EQDR01      7SKY009R02      7GAS009
0156724077547792022010903547+41009-074736FM-15+0178K12N V0201905N002659999999N9999997N5-00505-01335103385ADDAA101000095MA1103255101105REMMET08301/08/22 22:54:02 METAR K12N 090354Z 19005KT M05/M13 A3049 RMK AO1 SLP338 T10501133EQDR01      7SKY009R02      7GAS009
0192724077547792022010904547+41009-074736FM-15+0178K12N V0201905N001559999999N9999997N5-00505-01285103385ADDAA101000095KA1240M+00001KA2240N-01061MA1103255101105REMMET09301/08/22 23:54:02 METAR K12N 090454Z 19003KT M05/M13 A3049 RMK AO1 SLP338 T10501128 400001106EQDR01      7SKY009R02      7GAS009
0886724077547792022010904596+41009-074736SOD  +0178K12N V020999999999999999999999999999+99999+99999999999ADDAA124000095KA1240M+00005KA2240N-01055MG1100974102444OE11240089427000305OE22240058135003275OE33240015699999995REMSOD73024 HR PRECIPITATION (IN):0.00  24 HR MAX TEMP (F):32 24 HR MAX TEMP TIME (LST):1451 24 HR MIN TEMP (F):13 24 HR MIN TEMP TIME (LST):0743 AVERAGE STATION PRESSURE:29.815 MINIMUM SEA LEVEL PRESSURE:30.25 TIME OF OCCURRENCE:0010 PEAK WIND SPEED (MPH):20  PEAK WIND DIR (DEG):270 PEAK WIND TIME (LST):0030  FASTEST 2MIN SPEED (MPH):13 FASTEST 2MIN DIR (DEG):350 FASTEST 2MIN TIME (LST):0327 AVERAGE WIND SPEED (MPH):3.5  24 HR AVG TEMP (F):23 HEATING DEGREE DAYS:42  COOLING DEGREE DAYS:0   LATEST DAY MAX TEMP (0700-1900 LST):32  LATEST NIGHT MIN TEMP(1900-0800 LST):13 HOURLY INCREMENTAL PRECIPITATION VALUES (IN):.00 0.00 0.00 0.00 0.00 0.00 0.00 0.00 0.00 0.00 0.00 0.00 0.00 0.00 0.00 0.00 0.00 0.00 0.00 0.00 0.00 0.00 0.00 0.00EQDR01     N7GJS072R02     N7GKS075
0214724077547792022010905547+41009-074736FM-15+0178K12N V0201905N002159999999N9999997N5-00395-01225103285ADDAA101000095KA1060M-00391KA2060N-00831MA1103155101005MD1890119+9999REMMET10101/09/22 00:54:02 METAR K12N 090554Z 19004KT M04/M12 A3046 RMK AO1 SLP328 T10391122 11039 21083 58011EQDR01      7SKY009R02      7GAS009
0156724077547792022010906547+41009-074736FM-15+0178K12N V0202105N003159999999N9999997N5-00335-01115103285ADDAA101000095MA1103155101005REMMET08301/09/22 01:54:02 METAR K12N 090654Z 21006KT M03/M11 A3046 RMK AO1 SLP328 T10331111EQDR01      7SKY009R02      7GAS009
0156724077547792022010907547+41009-074736FM-15+0178K12N V0209999V003159999999N9999997N5-00285-01065103155ADDAA101000095MA1103015100865REMMET08301/09/22 02:54:02 METAR K12N 090754Z VRB06KT M03/M11 A3042 RMK AO1 SLP315 T10281106EQDR01      7SKY009R02      7GAS009
0176724077547792022010908547+41009-074736FM-15+0178K12N V0201905N003659999999N9999997N5-00175-00895102975ADDAA101000095MA1102845100705MD1890309+9999REMMET08901/09/22 03:54:02 METAR K12N 090854Z 19007KT M02/M09 A3037 RMK AO1 SLP297 T10171089 58030EQDR01      7SKY009R02      7GAS009
0156724077547792022010909547+41009-074736FM-15+0178K12N V0209999V002159999999N9999997N5-00175-00785102845ADDAA101000095MA1102715100565REMMET08301/09/22 04:54:02 METAR K12N 090954Z VRB04KT M02/M08 A3033 RMK AO1 SLP284 T10171078EQDR01      7SKY009R02      7GAS009
0167724077547792022010910547+41009-074736FM-15+0178K12N V0202005N003659999999N9999997N5-00115-00725102755ADDAA101000095MA1102615100465OC100775REMMET08601/09/22 05:54:02 METAR K12N 091054Z 20007G15KT M01/M07 A3030 RMK AO1 SLP275 T10111072EQDR01      7SKY009R02      7GAS009
0214724077547792022010911547+41009-074736FM-15+0178K12N V0209999V002659999999N9999997N5-00115-00675102635ADDAA101000095KA1060M-00111KA2060N-00391MA1102475100335MD1690359+9999REMMET10101/09/22 06:54:02 METAR K12N 091154Z VRB05KT M01/M07 A3026 RMK AO1 SLP263 T10111067 11011 21039 56035EQDR01      7SKY009R02      7GAS009
0156724077547792022010912547+41009-074736FM-15+0178K12N V0202005N003659999999N9999997N5-00065-00615102535ADDAA101000095MA1102405100265REMMET08301/09/22 07:54:02 METAR K12N 091254Z 20007KT M01/M06 A3024 RMK AO1 SLP253 T10061061EQDR01      7SKY009R02      7GAS009
0155724077547792022010913547+41009-074736FM-15+0178K12N V0202005N004159999999N9999997N5+00065-00565102575ADDAA101000095MA1102445100305REMMET08201/09/22 08:54:02 METAR K12N 091354Z 20008KT 01/M06 A3025 RMK AO1 SLP257 T00061056EQDR01      7SKY009R02      7GAS009
0214724077547792022010914547+41009-074736FM-15+0178K12N V0202005N003159999999N9999997N5+00005-00335102455ADDAA101001095AA203001091MA1102345100205MD1890179+9999REMMET10001/09/22 09:54:02 METAR K12N 091454Z 20006KT 00/M03 A3022 RMK AO1 SLP245 P0004 60004 T00001033 58017EQDQ01  00108PRCP03R01      7SKY009R02      7GAS009
0166724077547792022010915547+41009-074736FM-15+0178K12N V0202105N003659999999N9999997N5+00065-00285102285ADDAA101000095MA1102175100035OC100985REMMET08501/09/22 10:54:02 METAR K12N 091554Z 21007G19KT 01/M03 A3017 RMK AO1 SLP228 T00061028EQDR01      7SKY009R02      7GAS009
0155724077547792022010916547+41009-074736FM-15+0178K12N V0202005N003659999999N9999997N5+00115-00225102085ADDAA101000095MA1101965099835REMMET08201/09/22 11:54:02 METAR K12N 091654Z 20007KT 01/M02 A3011 RMK AO1 SLP208 T00111022EQDR01      7SKY009R02      7GAS009
0230724077547792022010917547+41009-074736FM-15+0178K12N V0202005N002659999999N9999997N5+00115-00225101965ADDAA101000095AA206001091KA1060M+00111KA2060N-00111MA1101865099735MD1690469+9999REMMET10601/09/22 12:54:02 METAR K12N 091754Z 20005KT 01/M02 A3008 RMK AO1 SLP196 60004 T00111022 10011 21011 56046EQDR01      7SKY009R02      7GAS009
0155724077547792022010918547+41009-074736FM-15+0178K12N V0202005N003659999999N9999997N5+00115-00175101805ADDAA101000095MA1101695099575REMMET08201/09/22 13:54:02 METAR K12N 091854Z 20007KT 01/M02 A3003 RMK AO1 SLP180 T00111017EQDR01      7SKY009R02      7GAS009
0155724077547792022010919547+41009-074736FM-15+0178K12N V0202105V004659999999N9999997N5+00115-00175101725ADDAA101000095MA1101635099505REMMET08201/09/22 14:54:02 METAR K12N 091954Z 21009KT 01/M02 A3001 RMK AO1 SLP172 T00111017EQDR01      7SKY009R02      7GAS009
0175724077547792022010920547+41009-074736FM-15+0178K12N V0202105N003159999999N9999997N5+00115-00115101695ADDAA101000095MA1101595099475MD1690279+9999REMMET08801/09/22 15:54:02 METAR K12N 092054Z 21006KT 01/M01 A3000 RMK AO1 SLP169 T00111011 56027EQDR01      7SKY009R02      7GAS009
0155724077547792022010921547+41009-074736FM-15+0178K12N V0202105V003659999999N9999997N5+00115-00065101685ADDAA101000095MA1101565099435REMMET08201/09/22 16:54:02 METAR K12N 092154Z 21007KT 01/M01 A2999 RMK AO1 SLP168 T00111006EQDR01      7SKY009R02      7GAS009
0155724077547792022010922547+41009-074736FM-15+0178K12N V0202105N002659999999N9999997N5+00115-00065101655ADDAA101000095MA1101525099405REMMET08201/09/22 17:54:02 METAR K12N 092254Z 21005KT 01/M01 A2998 RMK AO1 SLP165 T00111006EQDR01      7SKY009R02      7GAS009
0251724077547792022010923547+41009-074736FM-15+0178K12N V0209999V002659999999N9999997N5+00115+00005101625ADDAA101000895AA206000891KA1060M+00171KA2060N+00061MA1101525099405MD1890079+9999REMMET11101/09/22 18:54:02 METAR K12N 092354Z VRB05KT 01/00 A2998 RMK AO1 SLP162 P0003 60003 T00110000 10017 20006 58007EQDQ01  00078PRCP06R01      7SKY009R02      7GAS009
0154724077547792022011000547+41009-074736FM-15+0178K12N V0202005N003159999999N9999997N5+00175+00065101595ADDAA101000095MA1101495099375REMMET08101/09/22 19:54:01 METAR K12N 100054Z 20006KT 02/01 A2997 RMK AO1 SLP159 T00170006EQDR01      7SKY009R02      7GAS009
0154724077547792022011001547+41009-074736FM-15+0178K12N V0209999V002159999999N9999997N5+00175+00065101585ADDAA101000095MA1101495099375REMMET08101/09/22 20:54:01 METAR K12N 100154Z VRB04KT 02/01 A2997 RMK AO1 SLP158 T00170006EQDR01      7SKY009R02      7GAS009
0174724077547792022011002547+41009-074736FM-15+0178K12N V0201805N001559999999N9999997N5+00175+00065101575ADDAA101000095MA1101465099335MD1690049+9999REMMET08701/09/22 21:54:01 METAR K12N 100254Z 18003KT 02/01 A2996 RMK AO1 SLP157 T00170006 56004EQDR01      7SKY009R02      7GAS009
0154724077547792022011003547+41009-074736FM-15+0178K12N V0209999V001559999999N9999997N5+00225+00065101595ADDAA101000095MA1101495099375REMMET08101/09/22 22:54:01 METAR K12N 100354Z VRB03KT 02/01 A2997 RMK AO1 SLP159 T00220006EQDR01      7SKY009R02      7GAS009
0190724077547792022011004547+41009-074736FM-15+0178K12N V0209999C000059999999N9999997N5+00175+00065101585ADDAA101000095KA1240M+00221KA2240N-00501MA1101495099375REMMET09101/09/22 23:54:02 METAR K12N 100454Z 00000KT 02/01 A2997 RMK AO1 SLP158 T00170006 400221050EQDR01      7SKY009R02      7GAS009
0902724077547792022011004596+41009-074736SOD  +0178K12N V020999999999999999999999999999+99999+99999999999ADDAA124001896KA1240M+00225KA2240N-00495MG1100104101564OE11240098321010445OE22240071521010465OE33240028699999995REMSOD73024 HR PRECIPITATION (IN):0.07  24 HR MAX TEMP (F):36 24 HR MAX TEMP TIME (LST):2359 24 HR MIN TEMP (F):23 24 HR MIN TEMP TIME (LST):0001 AVERAGE STATION PRESSURE:29.560 MINIMUM SEA LEVEL PRESSURE:29.99 TIME OF OCCURRENCE:2357 PEAK WIND SPEED (MPH):22  PEAK WIND DIR (DEG):210 PEAK WIND TIME (LST):1044  FASTEST 2MIN SPEED (MPH):16 FASTEST 2MIN DIR (DEG):210 FASTEST 2MIN TIME (LST):1046 AVERAGE WIND SPEED (MPH):6.4  24 HR AVG TEMP (F):30 HEATING DEGREE DAYS:35  COOLING DEGREE DAYS:0   LATEST DAY MAX TEMP (0700-1900 LST):35  LATEST NIGHT MIN TEMP(1900-0800 LST):17 HOURLY INCREMENTAL PRECIPITATION VALUES (IN):.00 0.00 0.00 0.00 0.00 0.00 0.00 0.00 0.00 0.04 0.00 0.00 0.00 0.00 0.00 0.00 0.00 0.00 0.03 0.00 0.00 0.00 0.00 0.00EQDR01  0.077AAP092R02     N7GJS072R03     N7GKS075
0245724077547792022011005547+41009-074736FM-15+0178K12N V0209999C000059999999N9999997N5+00285-00115101565ADDAA101000095KA1060M+00281KA2060N+00111MA1101465099335MD1890009+9999REMMET10001/10/22 00:54:02 METAR K12N 100554Z 00000KT 03/M01 A2996 RMK AO1 SLP156 T00281011 10028 20011 58000EQDQ010     3APC3  Q028     3APCTENR01      7SKY009R02      7GAS009
0155724077547792022011006547+41009-074736FM-15+0178K12N V0203005N004159999999N9999997N5+00285-00445101655ADDAA101000095MA1101565099435REMMET08201/10/22 01:54:02 METAR K12N 100654Z 30008KT 03/M04 A2999 RMK AO1 SLP165 T00281044EQDR01      7SKY009R02      7GAS009
0155724077547792022011007547+41009-074736FM-15+0178K12N V0203205V004159999999N9999997N5+00115-00675101775ADDAA101000095MA1101665099535REMMET08201/10/22 02:54:02 METAR K12N 100754Z 32008KT 01/M07 A3002 RMK AO1 SLP177 T00111067EQDR01      7SKY009R02      7GAS009
0175724077547792022011008547+41009-074736FM-15+0178K12N V0209999V002659999999N9999997N5+00005-00835101845ADDAA101000095MA1101765099635MD1190279+9999REMMET08801/10/22 03:54:02 METAR K12N 100854Z VRB05KT 00/M08 A3005 RMK AO1 SLP184 T00001083 51027EQDR01      7SKY009R02      7GAS009
0156724077547792022011009547+41009-074736FM-15+0178K12N V0209999V002659999999N9999997N5-00115-01065101895ADDAA101000095MA1101795099675REMMET08301/10/22 04:54:02 METAR K12N 100954Z VRB05KT M01/M11 A3006 RMK AO1 SLP189 T10111106EQDR01      7SKY009R02      7GAS009
0156724077547792022011010547+41009-074736FM-15+0178K12N V0203505V004159999999N9999997N5-00225-01175101995ADDAA101000095MA1101865099735REMMET08301/10/22 05:54:02 METAR K12N 101054Z 35008KT M02/M12 A3008 RMK AO1 SLP199 T10221117EQDR01      7SKY009R02      7GAS009
0231724077547792022011011547+41009-074736FM-15+0178K12N V0203405V003659999999N9999997N5-00285-01115102055ADDAA101000095AA224001891KA1060M+00281KA2060N-00281MA1101935099805MD1390199+9999REMMET10701/10/22 06:54:02 METAR K12N 101154Z 34007KT M03/M11 A3010 RMK AO1 SLP205 70007 T10281111 10028 21028 53019EQDR01      7SKY009R02      7GAS009
0167724077547792022011012547+41009-074736FM-15+0178K12N V0203205N005159999999N9999997N5-00395-01395102145ADDAA101000095MA1102035099905OC101035REMMET08601/10/22 07:54:02 METAR K12N 101254Z 32010G20KT M04/M14 A3013 RMK AO1 SLP214 T10391139EQDR01      7SKY009R02      7GAS009
0167724077547792022011013547+41009-074736FM-15+0178K12N V0203005V005159999999N9999997N5-00335-01445102275ADDAA101000095MA1102175100035OC100775REMMET08601/10/22 08:54:02 METAR K12N 101354Z 30010G15KT M03/M14 A3017 RMK AO1 SLP227 T10331144EQDR01      7SKY009R02      7GAS009
0176724077547792022011014547+41009-074736FM-15+0178K12N V0203405V003659999999N9999997N5-00335-01445102265ADDAA101000095MA1102135100005MD1090209+9999REMMET08901/10/22 09:54:02 METAR K12N 101454Z 34007KT M03/M14 A3016 RMK AO1 SLP226 T10331144 50020EQDR01      7SKY009R02      7GAS009
0156724077547792022011015547+41009-074736FM-15+0178K12N V0209999V003159999999N9999997N5-00285-01395102235ADDAA101000095MA1102135100005REMMET08301/10/22 10:54:02 METAR K12N 101554Z VRB06KT M03/M14 A3016 RMK AO1 SLP223 T10281139EQDR01      7SKY009R02      7GAS009
0156724077547792022011016547+41009-074736FM-15+0178K12N V0203205V003659999999N9999997N5-00285-01445102155ADDAA101000095MA1102035099905REMMET08301/10/22 11:54:02 METAR K12N 101654Z 32007KT M03/M14 A3013 RMK AO1 SLP215 T10281144EQDR01      7SKY009R02      7GAS009
0214724077547792022011017547+41009-074736FM-15+0178K12N V0209999V003159999999N9999997N5-00335-01445102025ADDAA101000095KA1060M-00221KA2060N-00391MA1101905099775MD1890239+9999REMMET10101/10/22 12:54:02 METAR K12N 101754Z VRB06KT M03/M14 A3009 RMK AO1 SLP202 T10331144 11022 21039 58023EQDR01      7SKY009R02      7GAS009
0167724077547792022011018547+41009-074736FM-15+0178K12N V0209999V002659999999N9999997N5-00285-01505101995ADDAA101000095MA1101905099775OC100985REMMET08601/10/22 13:54:02 METAR K12N 101854Z VRB05G19KT M03/M15 A3009 RMK AO1 SLP199 T10281150EQDR01      7SKY009R02      7GAS009
0156724077547792022011019547+41009-074736FM-15+0178K12N V0202605N003159999999N9999997N5-00285-01445101995ADDAA101000095MA1101905099775REMMET08301/10/22 14:54:02 METAR K12N 101954Z 26006KT M03/M14 A3009 RMK AO1 SLP199 T10281144EQDR01      7SKY009R02      7GAS009
0176724077547792022011020547+41009-074736FM-15+0178K12N V0202205N003159999999N9999997N5-00335-01335102025ADDAA101000095MA1101905099775MD1590029+9999REMMET08901/10/22 15:54:02 METAR K12N 102054Z 22006KT M03/M13 A3009 RMK AO1 SLP202 T10331133 55002EQDR01      7SKY009R02      7GAS009
0156724077547792022011021547+41009-074736FM-15+0178K12N V0209999V002159999999N9999997N5-00395-01335102035ADDAA101000095MA1101905099775REMMET08301/10/22 16:54:02 METAR K12N 102154Z VRB04KT M04/M13 A3009 RMK AO1 SLP203 T10391133EQDR01      7SKY009R02      7GAS009
0156724077547792022011022547+41009-074736FM-15+0178K12N V0209999V002159999999N9999997N5-00445-01335102095ADDAA101000095MA1101965099835REMMET08301/10/22 17:54:02 METAR K12N 102254Z VRB04KT M04/M13 A3011 RMK AO1 SLP209 T10441133EQDR01      7SKY009R02      7GAS009
0214724077547792022011023547+41009-074736FM-15+0178K12N V0201905N001559999999N9999997N5-00445-01335102095ADDAA101000095KA1060M-00221KA2060N-00441MA1101965099835MD1190069+9999REMMET10101/10/22 18:54:02 METAR K12N 102354Z 19003KT M04/M13 A3011 RMK AO1 SLP209 T10441133 11022 21044 51006EQDR01      7SKY009R02      7GAS009
0156724077547792022011100547+41009-074736FM-15+0178K12N V0202105N002159999999N9999997N5-00505-01225102135ADDAA101000095MA1102005099875REMMET08301/10/22 19:54:01 METAR K12N 110054Z 21004KT M05/M12 A3012 RMK AO1 SLP213 T10501122EQDR01      7SKY009R02      7GAS009
0156724077547792022011101547+41009-074736FM-15+0178K12N V0209999V001559999999N9999997N5-00505-01225102145ADDAA101000095MA1102005099875REMMET08301/10/22 20:54:01 METAR K12N 110154Z VRB03KT M05/M12 A3012 RMK AO1 SLP214 T10501122EQDR01      7SKY009R02      7GAS009
0176724077547792022011102547+41009-074736FM-15+0178K12N V0209999V002159999999N9999997N5-00505-01335102165ADDAA101000095MA1102035099905MD1190059+9999REMMET08901/10/22 21:54:01 METAR K12N 110254Z VRB04KT M05/M13 A3013 RMK AO1 SLP216 T10501133 51005EQDR01      7SKY009R02      7GAS009
0156724077547792022011103547+41009-074736FM-15+0178K12N V0209999V002659999999N9999997N5-00565-01395102195ADDAA101000095MA1102035099905REMMET08301/10/22 22:54:02 METAR K12N 110354Z VRB05KT M06/M14 A3013 RMK AO1 SLP219 T10561139EQDR01      7SKY009R02      7GAS009
0210724077547792022011104547+41009-074736FM-15+0178K12N V0209999V002659999999N9999997N5-00675-01065102325ADDAA101000095KA1240M+00281KA2240N-00671MA1102175100035OC101085REMMET10301/10/22 23:54:02 METAR K12N 110454Z VRB05G21KT M07/M11 A3017 RMK AO1 PRESRR SLP232 T10671106 400281067EQDR01      7SKY009R02      7GAS009
0886724077547792022011104596+41009-074736SOD  +0178K12N V020999999999999999999999999999+99999+99999999999ADDAA124000095KA1240M+00285KA2240N-00665MG1099684101564OE11240107327023465OE22240067133007505OE33240029199999995REMSOD73024 HR PRECIPITATION (IN):0.00  24 HR MAX TEMP (F):37 24 HR MAX TEMP TIME (LST):0203 24 HR MIN TEMP (F):20 24 HR MIN TEMP TIME (LST):2359 AVERAGE STATION PRESSURE:29.435 MINIMUM SEA LEVEL PRESSURE:29.99 TIME OF OCCURRENCE:0113 PEAK WIND SPEED (MPH):24  PEAK WIND DIR (DEG):270 PEAK WIND TIME (LST):2346  FASTEST 2MIN SPEED (MPH):15 FASTEST 2MIN DIR (DEG):330 FASTEST 2MIN TIME (LST):0750 AVERAGE WIND SPEED (MPH):6.5  24 HR AVG TEMP (F):29 HEATING DEGREE DAYS:36  COOLING DEGREE DAYS:0   LATEST DAY MAX TEMP (0700-1900 LST):28  LATEST NIGHT MIN TEMP(1900-0800 LST):25 HOURLY INCREMENTAL PRECIPITATION VALUES (IN):.00 0.00 0.00 0.00 0.00 0.00 0.00 0.00 0.00 0.00 0.00 0.00 0.00 0.00 0.00 0.00 0.00 0.00 0.00 0.00 0.00 0.00 0.00 0.00EQDR01     N7GJS072R02     N7GKS075
0253724077547792022011105547+41009-074736FM-15+0178K12N V0209999V003159999999N9999997N5-00725-01615102445ADDAA101000595AA206000591KA1060M-00501KA2060N-00721MA1102305100165MD1390279+9999REMMET11301/11/22 00:54:02 METAR K12N 110554Z VRB06KT M07/M16 A3021 RMK AO1 SLP244 P0002 60002 T10721161 11050 21072 53027EQDQ01  00058PRCP06R01      7SKY009R02      7GAS009
0167724077547792022011106547+41009-074736FM-15+0178K12N V0203105V005159999999N9999997N5-00835-01835102565ADDAA101000095MA1102405100265OC101035REMMET08601/11/22 01:54:02 METAR K12N 110654Z 31010G20KT M08/M18 A3024 RMK AO1 SLP256 T10831183EQDR01      7SKY009R02      7GAS009
0167724077547792022011107547+41009-074736FM-15+0178K12N V0203405N003659999999N9999997N5-00895-01835102705ADDAA101000095MA1102545100405OC100985REMMET08601/11/22 02:54:02 METAR K12N 110754Z 34007G19KT M09/M18 A3028 RMK AO1 SLP270 T10891183EQDR01      7SKY009R02      7GAS009
0176724077547792022011108547+41009-074736FM-15+0178K12N V0209999V001559999999N9999997N5-00945-01835102775ADDAA101000095MA1102615100465MD1190319+9999REMMET08901/11/22 03:54:02 METAR K12N 110854Z VRB03KT M09/M18 A3030 RMK AO1 SLP277 T10941183 51031EQDR01      7SKY009R02      7GAS009
0156724077547792022011109547+41009-074736FM-15+0178K12N V0209999V001559999999N9999997N5-00945-01785102885ADDAA101000095MA1102715100565REMMET08301/11/22 04:54:02 METAR K12N 110954Z VRB03KT M09/M18 A3033 RMK AO1 SLP288 T10941178EQDR01      7SKY009R02      7GAS009
0156724077547792022011110547+41009-074736FM-15+0178K12N V0203505N004159999999N9999997N5-01005-01615103065ADDAA101000095MA1102885100735REMMET08301/11/22 05:54:02 METAR K12N 111054Z 35008KT M10/M16 A3038 RMK AO1 SLP306 T11001161EQDR01      7SKY009R02      7GAS009
0231724077547792022011111547+41009-074736FM-15+0178K12N V0203305N001559999999N9999997N5-01065-01785103185ADDAA101000095AA224000591KA1060M-00721KA2060N-01061MA1103015100865MD1390399+9999REMMET10701/11/22 06:54:02 METAR K12N 111154Z 33003KT M11/M18 A3042 RMK AO1 SLP318 70002 T11061178 11072 21106 53039EQDR01      7SKY009R02      7GAS009
0167724077547792022011112547+41009-074736FM-15+0178K12N V0203505N005159999999N9999997N5-01115-01835103285ADDAA101000095MA1103125100965OC100825REMMET08601/11/22 07:54:02 METAR K12N 111254Z 35010G16KT M11/M18 A3045 RMK AO1 SLP328 T11111183EQDR01      7SKY009R02      7GAS009
0167724077547792022011113547+41009-074736FM-15+0178K12N V0203305N003659999999N9999997N5-01065-01945103425ADDAA101000095MA1103255101105OC100775REMMET08601/11/22 08:54:02 METAR K12N 111354Z 33007G15KT M11/M19 A3049 RMK AO1 SLP342 T11061194EQDR01      7SKY009R02      7GAS009
0187724077547792022011114547+41009-074736FM-15+0178K12N V0203405N004159999999N9999997N5-01065-02175103485ADDAA101000095MA1103285101135MD1190289+9999OC100885REMMET09201/11/22 09:54:02 METAR K12N 111454Z 34008G17KT M11/M22 A3050 RMK AO1 SLP348 T11061217 51028EQDR01      7SKY009R02      7GAS009
0167724077547792022011115547+41009-074736FM-15+0178K12N V0203405N002659999999N9999997N5-01005-02175103495ADDAA101000095MA1103325101165OC100825REMMET08601/11/22 10:54:02 METAR K12N 111554Z 34005G16KT M10/M22 A3051 RMK AO1 SLP349 T11001217EQDR01      7SKY009R02      7GAS009
0158724077547792022011116547+41009-074736FM-15+0178K12N V0209999V003159999999N9999997N5-00895-02065103405ADDAA101000095MA1103225101065REMMET08501/11/22 11:54:02 METAR K12N 111654Z VRB06KT M09/M21 A3048 RMK AO1 SLP340 T10891206 $EQDR01      7SKY009R02      7GAS009
0225724077547792022011117547+41009-074736FM-15+0178K12N V0203405N003659999999N9999997N5-00835-02175103365ADDAA101000095KA1060M-00781KA2060N-01111MA1103185101035MD1890129+9999OC100725REMMET10401/11/22 12:54:02 METAR K12N 111754Z 34007G14KT M08/M22 A3047 RMK AO1 SLP336 T10831217 11078 21111 58012EQDR01      7SKY009R02      7GAS009
0156724077547792022011118547+41009-074736FM-15+0178K12N V0203505N003659999999N9999997N5-00785-02115103375ADDAA101000095MA1103185101035REMMET08301/11/22 13:54:02 METAR K12N 111854Z 35007KT M08/M21 A3047 RMK AO1 SLP337 T10781211EQDR01      7SKY009R02      7GAS009
0156724077547792022011119547+41009-074736FM-15+0178K12N V0209999V002159999999N9999997N5-00725-02175103355ADDAA101000095MA1103185101035REMMET08301/11/22 14:54:02 METAR K12N 111954Z VRB04KT M07/M22 A3047 RMK AO1 SLP335 T10721217EQDR01      7SKY009R02      7GAS009
0176724077547792022011120547+41009-074736FM-15+0178K12N V0209999V001559999999N9999997N5-00785-02225103435ADDAA101000095MA1103255101105MD1390069+9999REMMET08901/11/22 15:54:02 METAR K12N 112054Z VRB03KT M08/M22 A3049 RMK AO1 SLP343 T10781222 53006EQDR01      7SKY009R02      7GAS009
0156724077547792022011121547+41009-074736FM-15+0178K12N V0203405N001559999999N9999997N5-00895-02225103485ADDAA101000095MA1103285101135REMMET08301/11/22 16:54:02 METAR K12N 112154Z 34003KT M09/M22 A3050 RMK AO1 SLP348 T10891222EQDR01      7SKY009R02      7GAS009
0156724077547792022011122547+41009-074736FM-15+0178K12N V0209999C000059999999N9999997N5-00945-02115103475ADDAA101000095MA1103285101135REMMET08301/11/22 17:54:02 METAR K12N 112254Z 00000KT M09/M21 A3050 RMK AO1 SLP347 T10941211EQDR01      7SKY009R02      7GAS009
0214724077547792022011123547+41009-074736FM-15+0178K12N V0209999C000059999999N9999997N5-01115-01945103465ADDAA101000095KA1060M-00721KA2060N-01111MA1103255101105MD1090009+9999REMMET10101/11/22 18:54:02 METAR K12N 112354Z 00000KT M11/M19 A3049 RMK AO1 SLP346 T11111194 11072 21111 50000EQDR01      7SKY009R02      7GAS009
0156724077547792022011200547+41009-074736FM-15+0178K12N V0209999C000059999999N9999997N5-01175-01835103445ADDAA101000095MA1103225101065REMMET08301/11/22 19:54:01 METAR K12N 120054Z 00000KT M12/M18 A3048 RMK AO1 SLP344 T11171183EQDR01      7SKY009R02      7GAS009
0156724077547792022011201547+41009-074736FM-15+0178K12N V0209999C000059999999N9999997N5-01285-01835103405ADDAA101000095MA1103185101035REMMET08301/11/22 20:54:01 METAR K12N 120154Z 00000KT M13/M18 A3047 RMK AO1 SLP340 T11281183EQDR01      7SKY009R02      7GAS009
0176724077547792022011202547+41009-074736FM-15+0178K12N V0202205N001559999999N9999997N5-01285-01785103285ADDAA101000095MA1103055100905MD1890189+9999REMMET08901/11/22 21:54:01 METAR K12N 120254Z 22003KT M13/M18 A3043 RMK AO1 SLP328 T11281178 58018EQDR01      7SKY009R02      7GAS009
0156724077547792022011203547+41009-074736FM-15+0178K12N V0209999C000059999999N9999997N5-01285-01725103235ADDAA101000095MA1103015100865REMMET08301/11/22 22:54:02 METAR K12N 120354Z 00000KT M13/M17 A3042 RMK AO1 SLP323 T11281172EQDR01      7SKY009R02      7GAS009
0192724077547792022011204547+41009-074736FM-15+0178K12N V0202205N001559999999N9999997N5-01175-01785103135ADDAA101000095KA1240M-00671KA2240N-01331MA1102955100805REMMET09301/11/22 23:54:02 METAR K12N 120454Z 22003KT M12/M18 A3040 RMK AO1 SLP313 T11171178 410671133EQDR01      7SKY009R02      7GAS009
0902724077547792022011204596+41009-074736SOD  +0178K12N V020999999999999999999999999999+99999+99999999999ADDAA124000596KA1240M-00665KA2240N-01325MG1100784102344OE11240111831000295OE22240062633009305OE33240022899999995REMSOD73024 HR PRECIPITATION (IN):0.02  24 HR MAX TEMP (F):20 24 HR MAX TEMP TIME (LST):0008 24 HR MIN TEMP (F):8  24 HR MIN TEMP TIME (LST):2217 AVERAGE STATION PRESSURE:29.760 MINIMUM SEA LEVEL PRESSURE:30.22 TIME OF OCCURRENCE:0004 PEAK WIND SPEED (MPH):25  PEAK WIND DIR (DEG):310 PEAK WIND TIME (LST):0029  FASTEST 2MIN SPEED (MPH):14 FASTEST 2MIN DIR (DEG):330 FASTEST 2MIN TIME (LST):0930 AVERAGE WIND SPEED (MPH):5.1  24 HR AVG TEMP (F):14 HEATING DEGREE DAYS:51  COOLING DEGREE DAYS:0   LATEST DAY MAX TEMP (0700-1900 LST):19  LATEST NIGHT MIN TEMP(1900-0800 LST):12 HOURLY INCREMENTAL PRECIPITATION VALUES (IN):.02 0.00 0.00 0.00 0.00 0.00 0.00 0.00 0.00 0.00 0.00 0.00 0.00 0.00 0.00 0.00 0.00 0.00 0.00 0.00 0.00 0.00 0.00 0.00EQDR01  0.027AAP092R02     N7GJS072R03     N7GKS075
0214724077547792022011205547+41009-074736FM-15+0178K12N V0202205N001559999999N9999997N5-01065-01895103055ADDAA101000095KA1060M-01061KA2060N-01331MA1102845100705MD1890219+9999REMMET10101/12/22 00:54:02 METAR K12N 120554Z 22003KT M11/M19 A3037 RMK AO1 SLP305 T11061189 11106 21133 58021EQDR01      7SKY009R02      7GAS009
0156724077547792022011206547+41009-074736FM-15+0178K12N V0202005N002159999999N9999997N5-01005-01835102955ADDAA101000095MA1102785100635REMMET08301/12/22 01:54:02 METAR K12N 120654Z 20004KT M10/M18 A3035 RMK AO1 SLP295 T11001183EQDR01      7SKY009R02      7GAS009
0156724077547792022011207547+41009-074736FM-15+0178K12N V0209999V001559999999N9999997N5-00945-01675102905ADDAA101000095MA1102715100565REMMET08301/12/22 02:54:02 METAR K12N 120754Z VRB03KT M09/M17 A3033 RMK AO1 SLP290 T10941167EQDR01      7SKY009R02      7GAS009
0176724077547792022011208547+41009-074736FM-15+0178K12N V0209999V002159999999N9999997N5-00945-01615102725ADDAA101000095MA1102545100405MD1890319+9999REMMET08901/12/22 03:54:02 METAR K12N 120854Z VRB04KT M09/M16 A3028 RMK AO1 SLP272 T10941161 58031EQDR01      7SKY009R02      7GAS009
0156724077547792022011209547+41009-074736FM-15+0178K12N V0201905N001559999999N9999997N5-00895-01565102665ADDAA101000095MA1102475100335REMMET08301/12/22 04:54:02 METAR K12N 120954Z 19003KT M09/M16 A3026 RMK AO1 SLP266 T10891156EQDR01      7SKY009R02      7GAS009
0156724077547792022011210547+41009-074736FM-15+0178K12N V0201805N002159999999N9999997N5-00835-01505102555ADDAA101000095MA1102375100235REMMET08301/12/22 05:54:02 METAR K12N 121054Z 18004KT M08/M15 A3023 RMK AO1 SLP255 T10831150EQDR01      7SKY009R02      7GAS009
0214724077547792022011211547+41009-074736FM-15+0178K12N V0209999C000059999999N9999997N5-00835-01445102515ADDAA101000095KA1060M-00831KA2060N-01061MA1102305100165MD1690219+9999REMMET10101/12/22 06:54:02 METAR K12N 121154Z 00000KT M08/M14 A3021 RMK AO1 SLP251 T10831144 11083 21106 56021EQDR01      7SKY009R02      7GAS009
0156724077547792022011212547+41009-074736FM-15+0178K12N V0209999C000059999999N9999997N5-00895-01395102465ADDAA101000095MA1102275100135REMMET08301/12/22 07:54:02 METAR K12N 121254Z 00000KT M09/M14 A3020 RMK AO1 SLP246 T10891139EQDR01      7SKY009R02      7GAS009
0156724077547792022011213547+41009-074736FM-15+0178K12N V0201905N003159999999N9999997N5-00615-01175102385ADDAA101000095MA1102205100065REMMET08301/12/22 08:54:02 METAR K12N 121354Z 19006KT M06/M12 A3018 RMK AO1 SLP238 T10611117EQDR01      7SKY009R02      7GAS009
0187724077547792022011214547+41009-074736FM-15+0178K12N V0202105N004159999999N9999997N5-00335-01065102265ADDAA101000095MA1102105099965MD1890229+9999OC100935REMMET09201/12/22 09:54:02 METAR K12N 121454Z 21008G18KT M03/M11 A3015 RMK AO1 SLP226 T10331106 58022EQDR01      7SKY009R02      7GAS009
0167724077547792022011215547+41009-074736FM-15+0178K12N V0202105N006259999999N9999997N5-00225-01005102205ADDAA101000095MA1102035099905OC100985REMMET08601/12/22 10:54:02 METAR K12N 121554Z 21012G19KT M02/M10 A3013 RMK AO1 SLP220 T10221100EQDR01      7SKY009R02      7GAS009
0156724077547792022011216547+41009-074736FM-15+0178K12N V0202105N003659999999N9999997N5-00115-01005102115ADDAA101000095MA1101935099805REMMET08301/12/22 11:54:02 METAR K12N 121654Z 21007KT M01/M10 A3010 RMK AO1 SLP211 T10111100EQDR01      7SKY009R02      7GAS009
0214724077547792022011217547+41009-074736FM-15+0178K12N V0202105N003659999999N9999997N5-00115-00945102005ADDAA101000095KA1060M-00111KA2060N-00941MA1101865099735MD1890249+9999REMMET10101/12/22 12:54:02 METAR K12N 121754Z 21007KT M01/M09 A3008 RMK AO1 SLP200 T10111094 11011 21094 58024EQDR01      7SKY009R02      7GAS009
0155724077547792022011218547+41009-074736FM-15+0178K12N V0202205N001559999999N9999997N5+00005-00895101945ADDAA101000095MA1101795099675REMMET08201/12/22 13:54:02 METAR K12N 121854Z 22003KT 00/M09 A3006 RMK AO1 SLP194 T00001089EQDR01      7SKY009R02      7GAS009
0155724077547792022011219547+41009-074736FM-15+0178K12N V0202105N002159999999N9999997N5+00005-00835101935ADDAA101000095MA1101795099675REMMET08201/12/22 14:54:02 METAR K12N 121954Z 21004KT 00/M08 A3006 RMK AO1 SLP193 T00001083EQDR01      7SKY009R02      7GAS009
0175724077547792022011220547+41009-074736FM-15+0178K12N V0202105N002159999999N9999997N5+00065-00835101935ADDAA101000095MA1101795099675MD1690069+9999REMMET08801/12/22 15:54:02 METAR K12N 122054Z 21004KT 01/M08 A3006 RMK AO1 SLP193 T00061083 56006EQDR01      7SKY009R02      7GAS009
0155724077547792022011221547+41009-074736FM-15+0178K12N V0209999C000059999999N9999997N5+00005-00835101935ADDAA101000095MA1101795099675REMMET08201/12/22 16:54:02 METAR K12N 122154Z 00000KT 00/M08 A3006 RMK AO1 SLP193 T00001083EQDR01      7SKY009R02      7GAS009
0156724077547792022011222547+41009-074736FM-15+0178K12N V0209999C000059999999N9999997N5-00175-00725101965ADDAA101000095MA1101795099675REMMET08301/12/22 17:54:02 METAR K12N 122254Z 00000KT M02/M07 A3006 RMK AO1 SLP196 T10171072EQDR01      7SKY009R02      7GAS009
0214724077547792022011223547+41009-074736FM-15+0178K12N V0209999C000059999999N9999997N5-00225-00615101995ADDAA101000095KA1060M+00061KA2060N-00281MA1101835099705MD1390069+9999REMMET10101/12/22 18:54:02 METAR K12N 122354Z 00000KT M02/M06 A3007 RMK AO1 SLP199 T10221061 10006 21028 53006EQDR01      7SKY009R02      7GAS009
0156724077547792022011300547+41009-074736FM-15+0178K12N V0209999C000059999999N9999997N5-00225-00615102015ADDAA101000095MA1101865099735REMMET08301/12/22 19:54:01 METAR K12N 130054Z 00000KT M02/M06 A3008 RMK AO1 SLP201 T10221061EQDR01      7SKY009R02      7GAS009
0156724077547792022011301547+41009-074736FM-15+0178K12N V0209999C000059999999N9999997N5-00225-00615101995ADDAA101000095MA1101865099735REMMET08301/12/22 20:54:01 METAR K12N 130154Z 00000KT M02/M06 A3008 RMK AO1 SLP199 T10221061EQDR01      7SKY009R02      7GAS009
0176724077547792022011302547+41009-074736FM-15+0178K12N V0209999C000059999999N9999997N5-00225-00565101995ADDAA101000095MA1101865099735MD1190029+9999REMMET08901/12/22 21:54:01 METAR K12N 130254Z 00000KT M02/M06 A3008 RMK AO1 SLP199 T10221056 51002EQDR01      7SKY009R02      7GAS009
0156724077547792022011303547+41009-074736FM-15+0178K12N V0209999C000059999999N9999997N5-00175-00565101965ADDAA101000095MA1101835099705REMMET08301/12/22 22:54:01 METAR K12N 130354Z 00000KT M02/M06 A3007 RMK AO1 SLP196 T10171056EQDR01      7SKY009R02      7GAS009
0192724077547792022011304547+41009-074736FM-15+0178K12N V0209999C000059999999N9999997N5-00225-00565101925ADDAA101000095KA1240M+00061KA2240N-01111MA1101795099675REMMET09301/12/22 23:54:02 METAR K12N 130454Z 00000KT M02/M06 A3006 RMK AO1 SLP192 T10221056 400061111EQDR01      7SKY009R02      7GAS009
0886724077547792022011304596+41009-074736SOD  +0178K12N V020999999999999999999999999999+99999+99999999999ADDAA124000095KA1240M+00065KA2240N-01105MG1100074101904OE11240116221009435OE22240067121011005OE33240015699999995REMSOD73024 HR PRECIPITATION (IN):0.00  24 HR MAX TEMP (F):33 24 HR MAX TEMP TIME (LST):1621 24 HR MIN TEMP (F):12 24 HR MIN TEMP TIME (LST):0011 AVERAGE STATION PRESSURE:29.550 MINIMUM SEA LEVEL PRESSURE:30.09 TIME OF OCCURRENCE:2359 PEAK WIND SPEED (MPH):26  PEAK WIND DIR (DEG):210 PEAK WIND TIME (LST):0943  FASTEST 2MIN SPEED (MPH):15 FASTEST 2MIN DIR (DEG):210 FASTEST 2MIN TIME (LST):1100 AVERAGE WIND SPEED (MPH):3.5  24 HR AVG TEMP (F):23 HEATING DEGREE DAYS:42  COOLING DEGREE DAYS:0   LATEST DAY MAX TEMP (0700-1900 LST):33  LATEST NIGHT MIN TEMP(1900-0800 LST):8  HOURLY INCREMENTAL PRECIPITATION VALUES (IN):.00 0.00 0.00 0.00 0.00 0.00 0.00 0.00 0.00 0.00 0.00 0.00 0.00 0.00 0.00 0.00 0.00 0.00 0.00 0.00 0.00 0.00 0.00 0.00EQDR01     N7GJS072R02     N7GKS075
0214724077547792022011305547+41009-074736FM-15+0178K12N V0209999C000059999999N9999997N5-00175-00505101865ADDAA101000095KA1060M-00171KA2060N-00281MA1101765099635MD1890109+9999REMMET10101/13/22 00:54:02 METAR K12N 130554Z 00000KT M02/M05 A3005 RMK AO1 SLP186 T10171050 11017 21028 58010EQDR01      7SKY009R02      7GAS009
0156724077547792022011306547+41009-074736FM-15+0178K12N V0209999C000059999999N9999997N5-00225-00505101835ADDAA101000095MA1101735099605REMMET08301/13/22 01:54:02 METAR K12N 130654Z 00000KT M02/M05 A3004 RMK AO1 SLP183 T10221050EQDR01      7SKY009R02      7GAS009
0156724077547792022011307547+41009-074736FM-15+0178K12N V0209999C000059999999N9999997N5-00225-00505101815ADDAA101000095MA1101695099575REMMET08301/13/22 02:54:02 METAR K12N 130754Z 00000KT M02/M05 A3003 RMK AO1 SLP181 T10221050EQDR01      7SKY009R02      7GAS009
0176724077547792022011308547+41009-074736FM-15+0178K12N V0209999C000059999999N9999997N5-00225-00505101725ADDAA101000095MA1101635099505MD1890149+9999REMMET08901/13/22 03:54:02 METAR K12N 130854Z 00000KT M02/M05 A3001 RMK AO1 SLP172 T10221050 58014EQDR01      7SKY009R02      7GAS009
0156724077547792022011309547+41009-074736FM-15+0178K12N V0209999C000059999999N9999997N5-00175-00505101705ADDAA101000095MA1101595099475REMMET08301/13/22 04:54:02 METAR K12N 130954Z 00000KT M02/M05 A3000 RMK AO1 SLP170 T10171050EQDR01      7SKY009R02      7GAS009
0156724077547792022011310547+41009-074736FM-15+0178K12N V0209999C000059999999N9999997N5-00285-00565101705ADDAA101000095MA1101595099475REMMET08301/13/22 05:54:02 METAR K12N 131054Z 00000KT M03/M06 A3000 RMK AO1 SLP170 T10281056EQDR01      7SKY009R02      7GAS009
0214724077547792022011311547+41009-074736FM-15+0178K12N V0209999C000059999999N9999997N5-00395-00565101795ADDAA101000095KA1060M-00171KA2060N-00391MA1101665099535MD1390049+9999REMMET10101/13/22 06:54:02 METAR K12N 131154Z 00000KT M04/M06 A3002 RMK AO1 SLP179 T10391056 11017 21039 53004EQDR01      7SKY009R02      7GAS009
0156724077547792022011312547+41009-074736FM-15+0178K12N V0209999C000059999999N9999997N5-00285-00505101765ADDAA101000095MA1101665099535REMMET08301/13/22 07:54:02 METAR K12N 131254Z 00000KT M03/M05 A3002 RMK AO1 SLP176 T10281050EQDR01      7SKY009R02      7GAS009
0156724077547792022011313547+41009-074736FM-15+0178K12N V0209999C000059999999N9999997N5-00065-00445101775ADDAA101000095MA1101665099535REMMET08301/13/22 08:54:02 METAR K12N 131354Z 00000KT M01/M04 A3002 RMK AO1 SLP177 T10061044EQDR01      7SKY009R02      7GAS009
0175724077547792022011314547+41009-074736FM-15+0178K12N V0209999C000059999999N9999997N5+00115-00505101805ADDAA101000095MA1101695099575MD1390039+9999REMMET08801/13/22 09:54:02 METAR K12N 131454Z 00000KT 01/M05 A3003 RMK AO1 SLP180 T00111050 53003EQDR01      7SKY009R02      7GAS009
0155724077547792022011315547+41009-074736FM-15+0178K12N V0209999C000059999999N9999997N5+00285-00505101725ADDAA101000095MA1101635099505REMMET08201/13/22 10:54:02 METAR K12N 131554Z 00000KT 03/M05 A3001 RMK AO1 SLP172 T00281050EQDR01      7SKY009R02      7GAS009
0155724077547792022011316547+41009-074736FM-15+0178K12N V0209999C000059999999N9999997N5+00565-00505101575ADDAA101000095MA1101495099375REMMET08201/13/22 11:54:02 METAR K12N 131654Z 00000KT 06/M05 A2997 RMK AO1 SLP157 T00561050EQDR01      7SKY009R02      7GAS009
