0254724094547432025010100537+40876-074283FM-15+0053KCDW V0200605N00265019815MN0160935N5+00835+00445100555ADDAA101000095GA1045+014945999GA2075+019815999GD12991+0149459GD23991+0198159GE19AGL   +99999+99999GF199999999999014941999999MA1100515099885REMMET10612/31/24 19:53:03 METAR KCDW 010053Z 06005KT 10SM SCT049 BKN065 08/04 A2968 RMK AO2 SLP055 T00830044 (CDW)
0360724094547432025010101537+40876-074283FM-15+0053KCDW V0200705N00365015245MN0064375N5+00725+00615100415ADDAA101002595AU120020015AU200001015AW1105AW2625GA1045+011895999GA2075+015245999GA3085+021345999GD12991+0118959GD23991+0152459GD34991+0213459GE19AGL   +99999+99999GF199999999999011891999999MA1100345099715MW1655REMMET14112/31/24 20:53:03 METAR KCDW 010153Z 07007KT 4SM RA BR SCT039 BKN050 OVC070 07/06 A2963 RMK AO2 LTG DSNT W RAB05 SLP041 P0009 T00720061 (CDW)
0383724094547432025010102407+40876-074283FM-16+0053KCDW V0200905N00465008845MN0048285N5+00675+00615999999ADDAA101004531AU147000015AU230020015AU300001015AW1105AW2121AW3635GA1025+007325999GA2075+008845999GA3085+016765999GD11991+0073259GD23991+0088459GD34991+0167659GE19AGL   +99999+99999GF199999999999007321999999MA1100275099645MV1015MW1635REMMET14112/31/24 21:40:03 SPECI KCDW 010240Z 09009KT 3SM VCTS +RA BR FEW024 BKN029 OVC055 07/06 A2961 RMK AO2 LTG DSNT SE AND S P0018 T00670061 (CDW)
0373724094547432025010102487+40876-074283FM-16+0053KCDW V0200705N00465010975MN0032195N5+00705+00605999999ADDAA101006831AU147000015AU230020015AU300001015AW1105AW2121AW3635GA1025+007325999GA2075+010975999GA3085+014335999GD11991+0073259GD23991+0109759GD34991+0143359GE19AGL   +99999+99999GF199999999999007321999999MA1100245099615MV1015MW1635REMMET13112/31/24 21:48:03 SPECI KCDW 010248Z 07009KT 2SM VCTS +RA BR FEW024 BKN036 OVC047 07/06 A2960 RMK AO2 LTG DSNT SE AND S P0027 (CDW)
0417724094547432025010102537+40876-074283FM-15+0053KCDW V0200705N00675012195MN0040235N5+00675+00615100245ADDAA101007695AA203009791AU120020015AU200001015AW1105AW2625GA1025+007325999GA2045+009145999GA3085+012195999GD11991+0073259GD22991+0091459GD34991+0121959GE19AGL   +99999+99999GF199999999999007321999999MA1100175099545MD1690319+9999MW1655REMMET15412/31/24 21:53:03 METAR KCDW 010253Z 07013KT 2 1/2SM RA BR FEW024 SCT030 OVC040 07/06 A2958 RMK AO2 LTG DSNT NE-S SLP024 P0029 60038 T00670061 56031 (CDW)EQDQ01  00968PRCP03
0363724094547432025010103037+40876-074283FM-16+0053KCDW V0200705N00675012195MN0064375N5+00675+00615999999ADDAA101000531AU110020015AU200001015AW1105AW2615GA1025+007325999GA2075+012195999GA3085+025915999GD11991+0073259GD23991+0121959GD34991+0259159GE19AGL   +99999+99999GF199999999999007321999999MA1100145099515MW1615OC101035REMMET13612/31/24 22:03:03 SPECI KCDW 010303Z 07013G20KT 4SM -RA BR FEW024 BKN040 OVC085 07/06 A2957 RMK AO2 LTG DSNT NE-SE P0002 T00670061 (CDW)
0347724094547432025010103117+40876-074283FM-16+0053KCDW V0200605N00415010675MN0160935N5+00675+00615999999ADDAA101000531AU110020015AW1615GA1045+002745999GA2075+010675999GA3085+024385999GD12991+0027459GD23991+0106759GD34991+0243859GE19AGL   +99999+99999GF199999999999002741999999MA1100145099515MW1615OC100985REMMET13712/31/24 22:11:03 SPECI KCDW 010311Z 06008G19KT 10SM -RA SCT009 BKN035 OVC080 07/06 A2957 RMK AO2 LTG DSNT E AND SE P0002 T00670061 (CDW)
0315724094547432025010103227+40876-074283FM-16+0053KCDW V0200805N00265003355MN0160935N5+00675+00615999999ADDAA101000531GA1075+003355999GA2075+009755999GA3085+025915999GD13991+0033559GD23991+0097559GD34991+0259159GE19AGL   +99999+99999GF199999999999003351999999MA1100175099545REMMET13612/31/24 22:22:03 SPECI KCDW 010322Z 08005KT 10SM BKN011 BKN032 OVC085 07/06 A2958 RMK AO2 LTG DSNT E AND SE RAE14 P0002 T00670061 (CDW)
0378724094547432025010103317+40876-074283FM-16+0053KCDW V0200705N00725003665MN0080475N5+00675+00675999999ADDAA101001031AU120020015AU200001015AW1105AW2625GA1045+002445999GA2075+003665999GA3085+010675999GD12991+0024459GD23991+0036659GD34991+0106759GE19AGL   +99999+99999GF199999999999002441999999MA1100035099415MW1655OC100935REMMET15112/31/24 22:31:03 SPECI KCDW 010331Z 07014G18KT 5SM RA BR SCT008 BKN012 OVC035 07/07 A2954 RMK AO2 LTG DSNT NE-SE RAE14B25 PRESFR P0004 T00670067 (CDW)
0406724094547432025010103367+40876-074283FM-16+0053KCDW V0200605N00515002445MN0064375N5+00675+00615999999ADDAA101001231AU147000015AU220020015AU300001015AW1105AW2121AW3625GA1075+002445999GA2075+004275999GA3085+011285999GD13991+0024459GD23991+0042759GD34991+0112859GE19AGL   +99999+99999GF199999999999002441999999MA1100005099375MV1015MW1655OC100935REMMET15612/31/24 22:36:03 SPECI KCDW 010336Z 06010G18KT 4SM VCTS RA BR BKN008 BKN014 OVC037 07/06 A2953 RMK AO2 LTG DSNT NE-SE RAE14B25 PRESFR P0005 T00670061 (CDW)
0261724094547432025010103516+40876-074283FM-16+0053KCDW V0200605N00575002445MN0160935N5+00705+00705999999ADDAU110020015AW1615GA1075+002445999GA2085+011585999GD13991+0024459GD24991+0115859MA1099935099305MW1615OC100775REMMET14112/31/24 22:51:03 SPECI KCDW 010351Z 06011G15KT 10SM -RA BKN008 OVC038 07/07 A2951 RMK AO2 LTG DSNT NE AND E RAE14B25 PRESFR P0005 FIBI (CDW)
0315724094547432025010103537+40876-074283FM-15+0053KCDW V0200605N00415002445MN0160935N5+00675+00675099985ADDAA101000895AU110020015AW1615GA1075+002445999GA2085+011585999GD13991+0024459GD24991+0115859GE19AGL   +99999+99999GF199999999999002441999999MA1099935099305MW1615REMMET14412/31/24 22:53:03 METAR KCDW 010353Z 06008KT 10SM -RA BKN008 OVC038 07/07 A2951 RMK AO2 LTG DSNT NE RAE14B25 PRESFR SLP998 P0005 T00670067 (CDW)
0266724094547432025010104537+40876-074283FM-15+0053KCDW V0200805N00215001835MN0160935N5+00725+00675099915ADDAA101000095GA1085+001835999GD14991+0018359GE19AGL   +99999+99999GF199999999999001831999999KA1240M+01221KA2240N-00061MA1099865099245REMMET12312/31/24 23:53:03 METAR KCDW 010453Z 08004KT 10SM OVC006 07/07 A2949 RMK AO2 RAE0354 SLP991 P0000 T00720067 401221006 (CDW)
0922724094547432025010104596+40876-074283SOD  +0053KCDW V020999999999999999999999999999+99999+99999999999ADDAA124010995AT1AU03TS  5AT2AU16RA  5AT3AU13BR  5KA1240M+01225KA2240N-00055MG1100394099904OE11240107318015155OE22240076007022325OE33240021599999995REMSOD73024 HR PRECIPITATION (IN):0.43  24 HR MAX TEMP (F):54 24 HR MAX TEMP TIME (LST):1330 24 HR MIN TEMP (F):31 24 HR MIN TEMP TIME (LST):0750 AVERAGE STATION PRESSURE:29.645 MINIMUM SEA LEVEL PRESSURE:29.50 TIME OF OCCURRENCE:2359 PEAK WIND SPEED (MPH):24  PEAK WIND DIR (DEG):180 PEAK WIND TIME (LST):1515  FASTEST 2MIN SPEED (MPH):17 FASTEST 2MIN DIR (DEG):70  FASTEST 2MIN TIME (LST):2232 AVERAGE WIND SPEED (MPH):4.8  24 HR AVG TEMP (F):43 HEATING DEGREE DAYS:22  COOLING DEGREE DAYS:0   LATEST DAY MAX TEMP (0700-1900 LST):54  LATEST NIGHT MIN TEMP(1900-0800 LST):31 HOURLY INCREMENTAL PRECIPITATION VALUES (IN):.00 0.00 0.00 0.00 0.00 0.00 0.00 0.00 0.00 0.00 0.00 0.00 0.00 0.00 0.00 0.00 0.00 0.00 0.00 0.00 0.10 0.30 0.03 0.00EQDR01     N7GJS072R02     N7GKS075
1260724094547432025010104596+40876-074283SOM  +0053KCDW V020999999999999999999999999999+99999+99999999999ADDAB10101196AD10032391011999999996AE1175095025015AH1005001893121435AH2010003093121465AH3015003893121505AH4020004693121545AH5030005193121575AH6045006493121505AI1060007693121575AI2080009493121575AI3100010293121575AI4120010493122325AI5150010993122325AI6180010993122325KB1744N-02725KB2744M+06115KB3744A+01725KC1N9-01382399995KC2M9+01831199995KD1744H09215KD2744C00005KE1035005235005MH1101564102274MK1105011409355099561116575REMSOM796PCP MTOT:3.98 PCP GT 24HRS:1.27 DATE(S):10-11 DAYS W/PCP >=.01:17 DAYS W/PCP >=.10:9  DAYS W/ PCP >=.50:2 DAYS W/PCP >=1.00:1 MSDP AMTS W/DATE-TIME TAGS:MIN:5 0.07  31/2143 MIN:10 0.12  31/2146 MIN:15 0.15  31/2150 MIN:20 0.18  31/2154 MIN:30 0.20  31/2157 MIN:45 0.25  31/2150 MIN:60 0.30  31/2157 MIN:80 0.37  31/2157 MIN:100 0.40  31/2157 MIN:120 0.41  31/2232 MIN:150 0.43  31/2232 MIN:180 0.43  31/2232 AVG DLY MIN:27.1  AVG DLY MAX:43.0  AVG MLY TMP:35.1  MIN TMP:7  DATE(S):23 MAX TMP:65  DATE(S):11 DAYS MAX <=32:3 DAYS MAX >=90:0  DAYS MIN <=32:23 DAYS MIN  <=0:0  AVG STP:29.990 LWST SLP:29.40 DATE/TIME:111657 HGST SLP:31.01 DATE/TIME:140935 HDD MTH TOT:921 DEP NORM:-2553 SEASON(JUL 1-JUN 30):1628 DEP NORM:-25536 CDD MTH TOT:0 DEP NORM:-2553 SEASON(JAN 1-DEC 31):1351 DEP NORM:-25536EQDR01  3.987ABP070R02  1.277ADP081
0340724094547432025010105537+40876-074283FM-15+0053KCDW V0200205N00155001525MN0144845N5+00785+00725099865ADDAA101000095AA206010991GA1075+001525999GA2085+003965999GD13991+0015251GD24991+0039659GE19AGL   +99999+99999GF199999999999001521999999KA1060M+00891KA2060N+00671MA1099835099205MD1690369+9999REMMET14101/01/25 00:53:02 METAR KCDW 010553Z 02003KT 9SM BKN005 OVC013 08/07 A2948 RMK AO2 CIG 004V008 SLP986 60043 T00780072 10089 20067 56036 (CDW)
0273724094547432025010106157+40876-074283FM-16+0053KCDW V0200805N00265006405MN0128755N5+00785+00785999999ADDGA1045+002135999GA2045+004575999GA3085+006405999GD12991+0021359GD22991+0045759GD34991+0064059GE19AGL   +99999+99999GF199999999999002131999999MA1099805099175REMMET10501/01/25 01:15:02 SPECI KCDW 010615Z 08005KT 8SM SCT007 SCT015 OVC021 08/08 A2947 RMK AO2 T00780078 (CDW)
0293724094547432025010106437+40876-074283FM-16+0053KCDW V0200505N00215001835MN0096565N5+00785+00725999999ADDAU100001015AW1105GA1075+001835999GA2075+003055999GA3085+005495999GD13991+0018359GD23991+0030559GD34991+0054959GE19AGL   +99999+99999GF199999999999001831999999MA1099805099175REMMET10801/01/25 01:43:02 SPECI KCDW 010643Z 05004KT 6SM BR BKN006 BKN010 OVC018 08/07 A2947 RMK AO2 T00780072 (CDW)
0235724094547432025010106537+40876-074283FM-15+0053KCDW V0209999C00005001835MN0096565N5+00785+00785099855ADDAA101000095AU100001015AW1105GA1085+001835999GD14991+0018359GE19AGL   +99999+99999GF199999999999001831999999MA1099805099175REMMET10101/01/25 01:53:02 METAR KCDW 010653Z 00000KT 6SM BR OVC006 08/08 A2947 RMK AO2 SLP985 T00780078 (CDW)
0229724094547432025010107537+40876-074283FM-15+0053KCDW V0209999C00005001835MN0080475N5+00785+00785099905ADDAA101000095AU100001015AW1105GA1085+001835999GD14991+0018359GE19AGL   +99999+99999GF199999999999001831999999MA1099835099205REMMET09501/01/25 02:53:02 METAR KCDW 010753Z 00000KT 5SM BR OVC006 08/08 A2948 RMK AO2 SLP990 T00780078
0211724094547432025010108327+40876-074283FM-16+0053KCDW V0202205N00155001225MN0048285N5+00725+00725999999ADDAU100001015AW1105GA1085+001225999GD14991+0012259GE19AGL   +99999+99999GF199999999999001221999999MA1099905099275REMMET08801/01/25 03:32:02 SPECI KCDW 010832Z 22003KT 3SM BR OVC004 07/07 A2950 RMK AO2 T00720072
0249724094547432025010108537+40876-074283FM-15+0053KCDW V0209999C00005000915MN0048285N5+00725+00725099915ADDAA101000095AU100001015AW1105GA1085+000915999GD14991+0009159GE19AGL   +99999+99999GF199999999999000911999999MA1099865099245MD1390049+9999REMMET10101/01/25 03:53:02 METAR KCDW 010853Z 00000KT 3SM BR OVC003 07/07 A2949 RMK AO2 SLP991 T00720072 53004
0223724094547432025010109387+40876-074283FM-16+0053KCDW V0209999C00005001835MN0064375N5+00725+00725999999ADDAU100001015AW1105GA1085+001835999GD14991+0018351GE19AGL   +99999+99999GF199999999999001831999999MA1099865099245REMMET10001/01/25 04:38:02 SPECI KCDW 010938Z 00000KT 4SM BR OVC006 07/07 A2949 RMK AO2 CIG 003V008 T00720072
0229724094547432025010109537+40876-074283FM-15+0053KCDW V0202505N00155002135MN0080475N5+00725+00725099945ADDAA101000095AU100001015AW1105GA1085+002135999GD14991+0021359GE19AGL   +99999+99999GF199999999999002131999999MA1099905099275REMMET09501/01/25 04:53:02 METAR KCDW 010953Z 25003KT 5SM BR OVC007 07/07 A2950 RMK AO2 SLP994 T00720072
0249724094547432025010110207+40876-074283FM-16+0053KCDW V0202405N00265009455MN0080475N5+00725+00725999999ADDAU100001015AW1105GA1045+002135999GA2085+009455999GD12991+0021359GD24991+0094559GE19AGL   +99999+99999GF199999999999002131999999MA1099865099245REMMET09501/01/25 05:20:02 SPECI KCDW 011020Z 24005KT 5SM BR SCT007 OVC031 07/07 A2949 RMK AO2 T00720072
0247724094547432025010110537+40876-074283FM-15+0053KCDW V0202805N00155018295MN0112655N5+00725+00725099965ADDAA101000095GA1025+003665999GA2075+018295999GD11991+0036659GD23991+0182959GE19AGL   +99999+99999GF199999999999003661999999MA1099905099275REMMET09901/01/25 05:53:02 METAR KCDW 011053Z 28003KT 7SM FEW012 BKN060 07/07 A2950 RMK AO2 SLP996 T00720072
0241724094547432025010111027+40876-074283FM-16+0053KCDW V0202805N00155002445MN0112655N5+00725+00725999999ADDGA1075+002445999GA2085+018295999GD13991+0024451GD24991+0182959GE19AGL   +99999+99999GF199999999999002441999999MA1099905099275REMMET10401/01/25 06:02:02 SPECI KCDW 011102Z 28003KT 7SM BKN008 OVC060 07/07 A2950 RMK AO2 CIG 005V011 T00720072
0268724094547432025010111337+40876-074283FM-16+0053KCDW V0202905N00265019815MN0160935N5+00725+00675999999ADDGA1025+002445999GA2075+019815999GA3085+024385999GD11991+0024459GD23991+0198159GD34991+0243859GE19AGL   +99999+99999GF199999999999002441999999MA1099935099305REMMET10001/01/25 06:33:02 SPECI KCDW 011133Z 29005KT 10SM FEW008 BKN065 OVC080 07/07 A2951 RMK AO2 T00720067
0264724094547432025010111487+40876-074283FM-16+0053KCDW V0202905N00265003055MN0160935N5+00705+00605999999ADDGA1075+003055999GA2075+019815999GA3085+024385999GD13991+0030559GD23991+0198159GD34991+0243859GE19AGL   +99999+99999GF199999999999003051999999MA1099935099305REMMET09601/01/25 06:48:02 SPECI KCDW 011148Z 29005KT 10SM BKN010 BKN065 OVC080 07/06 A2951 RMK AO2 (CDW)
0329724094547432025010111537+40876-074283FM-15+0053KCDW V0202805N00215003355MN0160935N5+00675+00615099975ADDAA101000095AA224010991GA1075+003355999GA2085+022865999GD13991+0033559GD24991+0228659GE19AGL   +99999+99999GF199999999999003351999999KA1060M+00781KA2060N+00671MA1099935099305MD1090049+9999REMMET13001/01/25 06:53:02 METAR KCDW 011153Z 28004KT 10SM BKN011 OVC075 07/06 A2951 RMK AO2 SLP997 70043 T00670061 10078 20067 50004 (CDW)
0292724094547432025010112537+40876-074283FM-15+0053KCDW V0209999C00005003355MN0160935N5+00565+00565099965ADDAA101000095GA1075+003355999GA2075+004275999GA3075+021345999GD13991+0033559GD23991+0042759GD33991+0213459GE19AGL   +99999+99999GF199999999999003351999999MA1099905099275REMMET11301/01/25 07:53:02 METAR KCDW 011253Z 00000KT 10SM BKN011 BKN014 BKN070 06/06 A2950 RMK AO2 SLP996 T00560056 (CDW)
0235724094547432025010113047+40876-074283FM-16+0053KCDW V0209999C00005021345MN0128755N5+00615+00615999999ADDGA1045+003055999GA2085+021345999GD12991+0030559GD24991+0213459GE19AGL   +99999+99999GF199999999999003051999999MA1099905099275REMMET09801/01/25 08:04:02 SPECI KCDW 011304Z 00000KT 8SM SCT010 OVC070 06/06 A2950 RMK AO2 T00610061 (CDW)
0273724094547432025010113537+40876-074283FM-15+0053KCDW V0209999V001552200059N0160935N5+00785+00725100005ADDAA101000095GA1025+014335999GA2045+016765999GD11991+0143359GD22991+0167659GE19AGL   +99999+99999GF104995999999014331999999MA1099975099345REMMET10601/01/25 08:53:02 METAR KCDW 011353Z VRB03KT 10SM FEW047 SCT055 08/07 A2952 RMK AO2 SLP000 T00780072 (CDW)EQDD01      0ADE726
0198724094547432025010114337+40876-074283FM-16+0053KCDW V0202605N00155008535MN0160935N5+00945+00725999999ADDGA1075+008535999GD13991+0085359GE19AGL   +99999+99999GF199999999999008531999999MA1099975099345REMMET09201/01/25 09:33:02 SPECI KCDW 011433Z 26003KT 10SM BKN028 09/07 A2952 RMK AO2 T00940072 (CDW)
0145724094547432025010114516+40876-074283FM-16+0053KCDW V0209999V003152200059N0160935N5+01005+00705999999ADDGA1045+007325999GD12991+0073259MA1100005099375REMMET08701/01/25 09:51:02 SPECI KCDW 011451Z VRB06KT 10SM SCT024 10/07 A2953 RMK AO2 FIBI (CDW)
0266724094547432025010114537+40876-074283FM-15+0053KCDW V0202605N004652200059N0160935N5+01005+00675100045ADDAA101000095GA1045+007325999GD12991+0073259GE19AGL   +99999+99999GF104995999999007321999999MA1100005099375MD1390079+9999OC100775REMMET10801/01/25 09:53:02 METAR KCDW 011453Z 26009G15KT 10SM SCT024 10/07 A2953 RMK AO2 SLP004 T01000067 53007 (CDW)EQDD01      0ADE726
0209724094547432025010115027+40876-074283FM-16+0053KCDW V0202805N00415007325MN0160935N5+01005+00615999999ADDGA1075+007325999GD13991+0073259GE19AGL   +99999+99999GF199999999999007321999999MA1100005099375OC100775REMMET09501/01/25 10:02:02 SPECI KCDW 011502Z 28008G15KT 10SM BKN024 10/06 A2953 RMK AO2 T01000061 (CDW)
0254724094547432025010115537+40876-074283FM-15+0053KCDW V0202405N00365007015MN0160935N5+00945+00615100085ADDAA101000095GA1075+007015999GA2085+009145999GD13991+0070159GD24991+0091459GE19AGL   +99999+99999GF199999999999007011999999MA1100035099415REMMET10601/01/25 10:53:02 METAR KCDW 011553Z 24007KT 10SM BKN023 OVC030 09/06 A2954 RMK AO2 SLP008 T00940061 (CDW)
0227724094547432025010116537+40876-074283FM-15+0053KCDW V0202705N00365006715MN0160935N5+00895+00445100075ADDAA101000095GA1085+006715999GD14991+0067159GE19AGL   +99999+99999GF199999999999006711999999MA1100005099375OC100935REMMET10201/01/25 11:53:02 METAR KCDW 011653Z 27007G18KT 10SM OVC022 09/04 A2953 RMK AO2 SLP007 T00890044 (CDW)
0285724094547432025010117537+40876-074283FM-15+0053KCDW V0202805N00575008845MN0160935N5+00835+00285100095ADDAA101000095GA1085+008845999GD14991+0088459GE19AGL   +99999+99999GF199999999999008841999999KA1060M+01001KA2060N+00561MA1100035099415MD1190049+9999OC101135REMMET12001/01/25 12:53:02 METAR KCDW 011753Z 28011G22KT 10SM OVC029 08/03 A2954 RMK AO2 SLP009 T00830028 10100 20056 51004 (CDW)
0285724094547432025010118437+40876-074283FM-16+0053KCDW V0202805N00625014635MN0160935N5+00785+00225999999ADDGA1045+008845999GA2075+014635999GA3085+018295999GD12991+0088459GD23991+0146359GD34991+0182959GE19AGL   +99999+99999GF199999999999008841999999MA1100075099445OC101135REMMET10901/01/25 13:43:02 SPECI KCDW 011843Z 28012G22KT 10SM SCT029 BKN048 OVC060 08/02 A2955 RMK AO2 T00780022 (CDW)
0265724094547432025010118537+40876-074283FM-15+0053KCDW V0202805N00675018295MN0160935N5+00785+00225100135ADDAA101000095GA1025+008845999GA2085+018295999GD11991+0088459GD24991+0182959GE19AGL   +99999+99999GF199999999999008841999999MA1100075099445OC101085REMMET10901/01/25 13:53:02 METAR KCDW 011853Z 28013G21KT 10SM FEW029 OVC060 08/02 A2955 RMK AO2 SLP013 T00780022 (CDW)
0335724094547432025010119537+40876-074283FM-15+0053KCDW V0202905V00935021345MN0160935N5+00725+00225100295ADDAA101000095GA1045+008235999GA2045+010975999GA3085+021345999GD12991+0082359GD22991+0109759GD34991+0213459GE19AGL   +99999+99999GF199999999999008231999999MA1100245099615OC101495OD149901491310REMMET13401/01/25 14:53:02 METAR KCDW 011953Z 29018G29KT 10SM SCT027 SCT036 OVC070 07/02 A2960 RMK AO2 PK WND 31029/1953 SLP029 T00720022 (CDW)
0392724094547432025010120537+40876-074283FM-15+0053KCDW V0203005N01085011895MN0160935N5+00615+00175100415ADDAA101000025AA203000021AU110020015AW1615GA1045+008845999GA2085+011895999GD12991+0088459GD24991+0118959GE19AGL   +99999+99999GF199999999999008841999999MA1100345099715MD1390329+9999MW1615OC101545OD149901801310REMMET15501/01/25 15:53:02 METAR KCDW 012053Z 30021G30KT 10SM -RA SCT029 OVC039 06/02 A2963 RMK AO2 PK WND 31035/1956 RAB11 SLP041 P0000 60000 T00610017 53032 (CDW)EQDQ01  00008PRCP03
0309724094547432025010121537+40876-074283FM-15+0053KCDW V0202805N00775009755MN0160935N5+00615+00065100505ADDAA101000025GA1075+009755999GA2085+014025999GD13991+0097559GD24991+0140259GE19AGL   +99999+99999GF199999999999009751999999MA1100445099815OC101295OD149901391280REMMET13901/01/25 16:53:02 METAR KCDW 012153Z 28015G25KT 10SM BKN032 OVC046 06/01 A2966 RMK AO2 PK WND 28027/2141 RAE06 SLP050 P0000 T00610006 (CDW)
0279724094547432025010122537+40876-074283FM-15+0053KCDW V0202805N007252200059N0160935N5+00565-00115100585ADDAA101000095GA1025+012195999GD11991+0121959GE19AGL   +99999+99999GF102995999999012191999999MA1100545099915OC101545OD149901591290REMMET12101/01/25 17:53:02 METAR KCDW 012253Z 28014G30KT 10SM FEW040 06/M01 A2969 RMK AO2 PK WND 29031/2203 SLP058 T00561011 (CDW)EQDD01      0ADE726
0354724094547432025010123537+40876-074283FM-15+0053KCDW V0202805N005152200059N0160935N5+00565-00115100635ADDAA101000095AA206000021GA1025+013115999GD11991+0131159GE19AGL   +99999+99999GF102995999999013111999999KA1060M+00831KA2060N+00561MA1100585099945MD1190239+9999OC100985OD149901641330REMMET14501/01/25 18:53:02 METAR KCDW 012353Z 28010G19KT 10SM FEW043 06/M01 A2970 RMK AO2 PK WND 33032/2258 SLP063 60000 T00561011 10083 20056 51023 (CDW)EQDD01      0ADE726
0254724094547432025010200537+40876-074283FM-15+0053KCDW V0203005V00575014635MN0160935N5+00565-00285100715ADDAA101000095GA1085+014635999GD14991+0146359GE19AGL   +99999+99999GF199999999999014631999999MA1100645100015OC101245OD149901391290REMMET11501/01/25 19:53:01 METAR KCDW 020053Z 30011G24KT 10SM OVC048 06/M03 A2972 RMK AO2 PK WND 29027/2359 SLP071 T00561028
0273724094547432025010201537+40876-074283FM-15+0053KCDW V0203005N007752200059N0160935N5+00505-00565100775ADDAA101000095GA1025+015245999GD11991+0152459GE19AGL   +99999+99999GF102995999999015241999999MA1100715100085OC101185OD149901591320REMMET11501/01/25 20:53:01 METAR KCDW 020153Z 30015G23KT 10SM FEW050 05/M06 A2974 RMK AO2 PK WND 32031/0139 SLP077 T00501056EQDD01      0ADE726
0293724094547432025010202537+40876-074283FM-15+0053KCDW V0202805N005152200059N0160935N5+00445-00565100845ADDAA101000095GA1045+016765999GD12991+0167659GE19AGL   +99999+99999GF104995999999016761999999MA1100785100155MD1190219+9999OC101135OD149901391310REMMET12101/01/25 21:53:01 METAR KCDW 020253Z 28010G22KT 10SM SCT055 04/M06 A2976 RMK AO2 PK WND 31027/0243 SLP084 T00441056 51021EQDD01      0ADE726
0197724094547432025010203537+40876-074283FM-15+0053KCDW V0202805N004652200059N0160935N5+00445-00505100875ADDAA101000095GA1005+999999999GD10991+9999999GF100991999999999999999999MA1100815100185OC101085REMMET09401/01/25 22:53:02 METAR KCDW 020353Z 28009G21KT 10SM CLR 04/M05 A2977 RMK AO2 SLP087 T00441050
0233724094547432025010204537+40876-074283FM-15+0053KCDW V0202705N004652200059N0160935N5+00335-00395100905ADDAA101000095GA1005+999999999GD10991+9999999GF100991999999999999999999KA1240M+01001KA2240N+00331MA1100855100215OC100825REMMET10401/01/25 23:53:02 METAR KCDW 020453Z 27009G16KT 10SM CLR 03/M04 A2978 RMK AO2 SLP090 T00331039 401000033
0910724094547432025010204596+40876-074283SOD  +0053KCDW V020999999999999999999999999999+99999+99999999999ADDAA124000025AT1AU16RA  5AT2AU13BR  5KA1240M+01005KA2240N+00335MG1099444099864OE11240178831014565OE22240116230014575OE33240041699999995REMSOD73024 HR PRECIPITATION (IN):T     24 HR MAX TEMP (F):50 24 HR MAX TEMP TIME (LST):1052 24 HR MIN TEMP (F):38 24 HR MIN TEMP TIME (LST):2355 AVERAGE STATION PRESSURE:29.365 MINIMUM SEA LEVEL PRESSURE:29.49 TIME OF OCCURRENCE:0245 PEAK WIND SPEED (MPH):40  PEAK WIND DIR (DEG):310 PEAK WIND TIME (LST):1456  FASTEST 2MIN SPEED (MPH):26 FASTEST 2MIN DIR (DEG):300 FASTEST 2MIN TIME (LST):1457 AVERAGE WIND SPEED (MPH):9.3  24 HR AVG TEMP (F):44 HEATING DEGREE DAYS:21  COOLING DEGREE DAYS:0   LATEST DAY MAX TEMP (0700-1900 LST):50  LATEST NIGHT MIN TEMP(1900-0800 LST):42 HOURLY INCREMENTAL PRECIPITATION VALUES (IN):.00 0.00 0.00 0.00 0.00 0.00 0.00 0.00 0.00 0.00 0.00 0.00 0.00 0.00 0.00 T    T    0.00 0.00 0.00 0.00 0.00 0.00 0.00EQDR01     N7GJS072R02     N7GKS075
0255724094547432025010205537+40876-074283FM-15+0053KCDW V0202805N005752200059N0160935N5+00335-00395100935ADDAA101000095GA1005+999999999GD10991+9999999GF100991999999999999999999KA1060M+00561KA2060N+00331MA1100885100255MD1390089+9999OC100985REMMET11201/02/25 00:53:02 METAR KCDW 020553Z 28011G19KT 10SM CLR 03/M04 A2979 RMK AO2 SLP093 T00331039 10056 20033 53008
0186724094547432025010206537+40876-074283FM-15+0053KCDW V0202705N003652200059N0160935N5+00335-00225100995ADDAA101000095GA1005+999999999GD10991+9999999GF100991999999999999999999MA1100955100315REMMET09101/02/25 01:53:02 METAR KCDW 020653Z 27007KT 10SM CLR 03/M02 A2981 RMK AO2 SLP099 T00331022
0186724094547432025010207537+40876-074283FM-15+0053KCDW V0202605N003652200059N0160935N5+00335-00285101065ADDAA101000095GA1005+999999999GD10991+9999999GF100991999999999999999999MA1101025100385REMMET09101/02/25 02:53:02 METAR KCDW 020753Z 26007KT 10SM CLR 03/M03 A2983 RMK AO2 SLP106 T00331028
0392724094547432025010208537+40876-074283FM-15+0053KCDW V0202905N00625015245MN0128755N5+00335-00225101115ADDAA101000025AA203000021AU110030015AW1715GA1025+008535999GA2075+015245999GA3085+021345999GD11991+0085359GD23991+0152459GD34991+0213459GE19AGL   +99999+99999GF199999999999008531999999MA1101055100425MD1190189+9999MW1715OC100885REMMET13801/02/25 03:53:02 METAR KCDW 020853Z 29012G17KT 8SM -SN FEW028 BKN050 OVC070 03/M02 A2984 RMK AO2 SNB41 SLP111 P0000 60000 T00331022 51018EQDQ01  00008PRCP03
0274724094547432025010209537+40876-074283FM-15+0053KCDW V0202805N00515015245MN0160935N5+00335-00445101135ADDAA101000095GA1075+015245999GA2075+022865999GD13991+0152459GD23991+0228659GE19AGL   +99999+99999GF199999999999015241999999MA1101085100455OC101085REMMET11801/02/25 04:53:02 METAR KCDW 020953Z 28010G21KT 10SM BKN050 BKN075 03/M04 A2985 RMK AO2 SNE0855 SLP113 P0000 T00331044
0241724094547432025010210537+40876-074283FM-15+0053KCDW V0202805N004652200059N0160935N5+00335-00565101215ADDAA101000095GA1045+015245999GD12991+0152459GE19AGL   +99999+99999GF104995999999015241999999MA1101155100525OC100935REMMET09701/02/25 05:53:02 METAR KCDW 021053Z 28009G18KT 10SM SCT050 03/M06 A2987 RMK AO2 SLP121 T00331056EQDD01      0ADE726
0272724094547432025010211537+40876-074283FM-15+0053KCDW V0202705N003652200059N0160935N5+00225-00615101255ADDAA101000095AA206000021GA1005+999999999GD10991+9999999GF100991999999999999999999KA1060M+00391KA2060N+00221MA1101195100555MD1390149+9999OC100775REMMET11801/02/25 06:53:02 METAR KCDW 021153Z 27007G15KT 10SM CLR 02/M06 A2988 RMK AO2 SLP125 60000 T00221061 10039 20022 53014
0203724094547432025010212537+40876-074283FM-15+0053KCDW V0202705N004152200059N0160935N5+00285-00615101325ADDAA101000095GA1005+999999999GD10991+9999999GF100991999999999999999999MA1101255100625OC100935REMMET10001/02/25 07:53:02 METAR KCDW 021253Z 27008G18KT 10SM CLR 03/M06 A2990 RMK AO2 SLP132 T00281061 (CDW)
0228724094547432025010213537+40876-074283FM-15+0053KCDW V0202705N00365016765MN0160935N5+00335-00565101405ADDAA101000095GA1075+016765999GD13991+0167659GE19AGL   +99999+99999GF199999999999016761999999MA1101355100725OC100985REMMET10301/02/25 08:53:02 METAR KCDW 021353Z 27007G19KT 10SM BKN055 03/M06 A2993 RMK AO2 SLP140 T00331056 (CDW)
0318724094547432025010214537+40876-074283FM-15+0053KCDW V0202905N00675013725MN0160935N5+00395-00505101485ADDAA101000095GA1075+013725999GA2075+018295999GD13991+0137259GD23991+0182959GE19AGL   +99999+99999GF199999999999013721999999MA1101425100795MD1390239+9999OC101085OD149901441290REMMET13401/02/25 09:53:02 METAR KCDW 021453Z 29013G21KT 10SM BKN045 BKN060 04/M05 A2995 RMK AO2 PK WND 29028/1422 SLP148 T00391050 53023 (CDW)
0260724094547432025010215537+40876-074283FM-15+0053KCDW V0202905N00575014945MN0160935N5+00445-00565101465ADDAA101000095GA1075+014945999GD13991+0149459GE19AGL   +99999+99999GF199999999999014941999999MA1101395100755OC101345OD149901491240REMMET12101/02/25 10:53:02 METAR KCDW 021553Z 29011G26KT 10SM BKN049 04/M06 A2994 RMK AO2 PK WND 24029/1543 SLP146 T00441056 (CDW)
0260724094547432025010216537+40876-074283FM-15+0053KCDW V0203005N00625016765MN0160935N5+00505-00615101395ADDAA101000095GA1085+016765999GD14991+0167659GE19AGL   +99999+99999GF199999999999016761999999MA1101325100695OC101085OD149901441300REMMET12101/02/25 11:53:02 METAR KCDW 021653Z 30012G21KT 10SM OVC055 05/M06 A2992 RMK AO2 PK WND 30028/1621 SLP139 T00501061 (CDW)
0318724094547432025010217537+40876-074283FM-15+0053KCDW V0202605N00625018295MN0160935N5+00565-00725101375ADDAA101000095GA1075+018295999GD13991+0182959GE19AGL   +99999+99999GF199999999999018291999999KA1060M+00611KA2060N+00221MA1101325100695MD1790129+9999OC101245OD149901391260REMMET13901/02/25 12:53:02 METAR KCDW 021753Z 26012G24KT 10SM BKN060 06/M07 A2992 RMK AO2 PK WND 26027/1708 SLP137 T00561072 10061 20022 57012 (CDW)
0260724094547432025010218537+40876-074283FM-15+0053KCDW V0202905N00885019815MN0160935N5+00505-00785101365ADDAA101000095GA1085+019815999GD14991+0198159GE19AGL   +99999+99999GF199999999999019811999999MA1101295100655OC101345OD149901491300REMMET12101/02/25 13:53:02 METAR KCDW 021853Z 29017G26KT 10SM OVC065 05/M08 A2991 RMK AO2 PK WND 30029/1843 SLP136 T00501078 (CDW)
0298724094547432025010219537+40876-074283FM-15+0053KCDW V0202805N00775021345MN0160935N5+00445-00725101405ADDAA101000095GA1045+015245999GA2085+021345999GD12991+0152459GD24991+0213459GE19AGL   +99999+99999GF199999999999015241999999MA1101355100725OC101495OD149901591300REMMET12801/02/25 14:53:02 METAR KCDW 021953Z 28015G29KT 10SM SCT050 OVC070 04/M07 A2993 RMK AO2 PK WND 30031/1913 SLP140 T00441072 (CDW)
0318724094547432025010220537+40876-074283FM-15+0053KCDW V0202705N00775016765MN0160935N5+00395-00725101495ADDAA101000095GA1075+016765999GA2085+021345999GD13991+0167659GD24991+0213459GE19AGL   +99999+99999GF199999999999016761999999MA1101425100795MD1390139+9999OC101135OD149901541290REMMET13401/02/25 15:53:02 METAR KCDW 022053Z 27015G22KT 10SM BKN055 OVC070 04/M07 A2995 RMK AO2 PK WND 29030/2031 SLP149 T00391072 53013 (CDW)
0260724094547432025010221537+40876-074283FM-15+0053KCDW V0202805N00465021345MN0160935N5+00335-00785101525ADDAA101000095GA1085+021345999GD14991+0213459GE19AGL   +99999+99999GF199999999999021341999999MA1101465100825OC101135OD149901331300REMMET12101/02/25 16:53:02 METAR KCDW 022153Z 28009G22KT 10SM OVC070 03/M08 A2996 RMK AO2 PK WND 30026/2059 SLP152 T00331078 (CDW)
0260724094547432025010222537+40876-074283FM-15+0053KCDW V0202805N00575021345MN0160935N5+00285-00785101535ADDAA101000095GA1075+021345999GD13991+0213459GE19AGL   +99999+99999GF199999999999021341999999MA1101495100855OC101245OD149901331280REMMET12101/02/25 17:53:02 METAR KCDW 022253Z 28011G24KT 10SM BKN070 03/M08 A2997 RMK AO2 PK WND 28026/2243 SLP153 T00281078 (CDW)
0337724094547432025010223537+40876-074283FM-15+0053KCDW V0202905N006252200059N0160935N5+00225-00785101585ADDAA101000095GA1025+021345999GD11991+0213459GE19AGL   +99999+99999GF102995999999021341999999KA1060M+00561KA2060N+00221MA1101525100895MD1390089+9999OC100825OD149901491260REMMET13901/02/25 18:53:02 METAR KCDW 022353Z 29012G16KT 10SM FEW070 02/M08 A2998 RMK AO2 PK WND 26029/2320 SLP158 T00221078 10056 20022 53008 (CDW)EQDD01      0ADE726
0241724094547432025010300537+40876-074283FM-15+0053KCDW V0202705N005152200059N0160935N5+00175-00785101615ADDAA101000095GA1045+021345999GD12991+0213459GE19AGL   +99999+99999GF104995999999021341999999MA1101525100895OC101035REMMET09701/02/25 19:53:01 METAR KCDW 030053Z 27010G20KT 10SM SCT070 02/M08 A2998 RMK AO2 SLP161 T00171078EQDD01      0ADE726
0222724094547432025010301537+40876-074283FM-15+0053KCDW V0202905N00675019815MN0160935N5+00175-00785101575ADDAA101000095GA1075+019815999GD13991+0198159GE19AGL   +99999+99999GF199999999999019811999999MA1101495100855OC101185REMMET09701/02/25 20:53:01 METAR KCDW 030153Z 29013G23KT 10SM BKN065 02/M08 A2997 RMK AO2 SLP157 T00171078
0261724094547432025010302537+40876-074283FM-15+0053KCDW V0202805N005152200059N0160935N5+00115-00785101585ADDAA101000095GA1045+019815999GD12991+0198159GE19AGL   +99999+99999GF104995999999019811999999MA1101525100895MD1890019+9999OC100935REMMET10301/02/25 21:53:01 METAR KCDW 030253Z 28010G18KT 10SM SCT065 01/M08 A2998 RMK AO2 SLP158 T00111078 58001EQDD01      0ADE726
0222724094547432025010303537+40876-074283FM-15+0053KCDW V0202805N00515018295MN0160935N5+00115-00835101565ADDAA101000095GA1075+018295999GD13991+0182959GE19AGL   +99999+99999GF199999999999018291999999MA1101495100855OC101035REMMET09701/02/25 22:53:02 METAR KCDW 030353Z 28010G20KT 10SM BKN060 01/M08 A2997 RMK AO2 SLP156 T00111083
0296724094547432025010304537+40876-074283FM-15+0053KCDW V0202805N00465019815MN0160935N5+00065-00725101575ADDAA101000095GA1025+012805999GA2075+019815999GD11991+0128059GD23991+0198159GE19AGL   +99999+99999GF199999999999012801999999KA1240M+00611KA2240N+00061MA1101495100855OC100825REMMET11401/02/25 23:53:02 METAR KCDW 030453Z 28009G16KT 10SM FEW042 BKN065 01/M07 A2997 RMK AO2 SLP157 T00061072 400610006
0898724094547432025010304596+40876-074283SOD  +0053KCDW V020999999999999999999999999999+99999+99999999999ADDAA124000025AT1AU18SN  5KA1240M+00615KA2240N+00065MG1100584100914OE11240160930014135OE22240098329014165OE33240055099999995REMSOD73024 HR PRECIPITATION (IN):T     24 HR MAX TEMP (F):43 24 HR MAX TEMP TIME (LST):1218 24 HR MIN TEMP (F):33 24 HR MIN TEMP TIME (LST):2359 AVERAGE STATION PRESSURE:29.700 MINIMUM SEA LEVEL PRESSURE:29.80 TIME OF OCCURRENCE:0057 PEAK WIND SPEED (MPH):36  PEAK WIND DIR (DEG):300 PEAK WIND TIME (LST):1413  FASTEST 2MIN SPEED (MPH):22 FASTEST 2MIN DIR (DEG):290 FASTEST 2MIN TIME (LST):1416 AVERAGE WIND SPEED (MPH):12.3 24 HR AVG TEMP (F):38 HEATING DEGREE DAYS:27  COOLING DEGREE DAYS:0   LATEST DAY MAX TEMP (0700-1900 LST):43  LATEST NIGHT MIN TEMP(1900-0800 LST):36 HOURLY INCREMENTAL PRECIPITATION VALUES (IN):.00 0.00 0.00 T    0.00 0.00 0.00 0.00 0.00 0.00 0.00 0.00 0.00 0.00 0.00 0.00 0.00 0.00 0.00 0.00 0.00 0.00 0.00 0.00EQDR01     N7GJS072R02     N7GKS075
0307724094547432025010305537+40876-074283FM-15+0053KCDW V0202705N00465018295MN0160935N5+00065-00725101565ADDAA101000095GA1025+013115999GA2085+018295999GD11991+0131159GD24991+0182959GE19AGL   +99999+99999GF199999999999013111999999KA1060M+00221KA2060N+00061MA1101525100895MD1590009+9999REMMET11901/03/25 00:53:02 METAR KCDW 030553Z 27009KT 10SM FEW043 OVC060 01/M07 A2998 RMK AO2 SLP156 T00061072 10022 20006 55000
0260724094547432025010306537+40876-074283FM-15+0053KCDW V0203005N00465018295MN0160935N5+00065-00725101585ADDAA101000095GA1025+014025999GA2085+018295999GD11991+0140259GD24991+0182959GE19AGL   +99999+99999GF199999999999014021999999MA1101525100895OC100775REMMET10401/03/25 01:53:02 METAR KCDW 030653Z 30009G15KT 10SM FEW046 OVC060 01/M07 A2998 RMK AO2 SLP158 T00061072
0222724094547432025010307537+40876-074283FM-15+0053KCDW V0203205N00625014335MN0160935N5+00115-00945101615ADDAA101000095GA1085+014335999GD14991+0143359GE19AGL   +99999+99999GF199999999999014331999999MA1101565100925OC100985REMMET09701/03/25 02:53:02 METAR KCDW 030753Z 32012G19KT 10SM OVC047 01/M09 A2999 RMK AO2 SLP161 T00111094
0231724094547432025010308537+40876-074283FM-15+0053KCDW V0203005N00515015245MN0160935N5+00115-01065101595ADDAA101000095GA1085+015245999GD14991+0152459GE19AGL   +99999+99999GF199999999999015241999999MA1101525100895MD1090029+9999REMMET10001/03/25 03:53:02 METAR KCDW 030853Z 30010KT 10SM OVC050 01/M11 A2998 RMK AO2 SLP159 T00111106 50002
0211724094547432025010309537+40876-074283FM-15+0053KCDW V0202705N00315014635MN0160935N5+00065-00785101595ADDAA101000095GA1085+014635999GD14991+0146359GE19AGL   +99999+99999GF199999999999014631999999MA1101525100895REMMET09401/03/25 04:53:02 METAR KCDW 030953Z 27006KT 10SM OVC048 01/M08 A2998 RMK AO2 SLP159 T00061078
0211724094547432025010310537+40876-074283FM-15+0053KCDW V0202805N00365014945MN0160935N5+00065-00675101565ADDAA101000095GA1085+014945999GD14991+0149459GE19AGL   +99999+99999GF199999999999014941999999MA1101495100855REMMET09401/03/25 05:53:02 METAR KCDW 031053Z 28007KT 10SM OVC049 01/M07 A2997 RMK AO2 SLP156 T00061067
0275724094547432025010311537+40876-074283FM-15+0053KCDW V0202805N00365015245MN0160935N5+00065-00725101535ADDAA101000095GA1085+015245999GD14991+0152459GE19AGL   +99999+99999GF199999999999015241999999KA1060M+00111KA2060N+00061MA1101465100825MD1890069+9999REMMET11801/03/25 06:53:02 METAR KCDW 031153Z 28007KT 10SM OVC050 01/M07 A2996 RMK AO2 SLP153 T00061072 10011 20006 58006 (CDW)
0217724094547432025010312537+40876-074283FM-15+0053KCDW V0202805N00315014945MN0160935N5+00065-00785101485ADDAA101000095GA1085+014945999GD14991+0149459GE19AGL   +99999+99999GF199999999999014941999999MA1101425100795REMMET10001/03/25 07:53:02 METAR KCDW 031253Z 28006KT 10SM OVC049 01/M08 A2995 RMK AO2 SLP148 T00061078 (CDW)
0236724094547432025010313537+40876-074283FM-15+0053KCDW V0202605N003652200059N0160935N5+00115-00785101475ADDAA101000095GA1025+014335999GD11991+0143359GE19AGL   +99999+99999GF102995999999014331999999MA1101395100755REMMET10001/03/25 08:53:02 METAR KCDW 031353Z 26007KT 10SM FEW047 01/M08 A2994 RMK AO2 SLP147 T00111078 (CDW)EQDD01      0ADE726
0267724094547432025010314537+40876-074283FM-15+0053KCDW V0202805N004652200059N0160935N5+00175-00835101445ADDAA101000095GA1045+013725999GD12991+0137259GE19AGL   +99999+99999GF104995999999013721999999MA1101355100725MD1690099+9999OC101185REMMET10901/03/25 09:53:02 METAR KCDW 031453Z 28009G23KT 10SM SCT045 02/M08 A2993 RMK AO2 SLP144 T00171083 56009 (CDW)EQDD01      0ADE726
0228724094547432025010315537+40876-074283FM-15+0053KCDW V0202905N00415013725MN0160935N5+00225-00835101345ADDAA101000095GA1075+013725999GD13991+0137259GE19AGL   +99999+99999GF199999999999013721999999MA1101295100655OC100775REMMET10301/03/25 10:53:02 METAR KCDW 031553Z 29008G15KT 10SM BKN045 02/M08 A2991 RMK AO2 SLP134 T00221083 (CDW)
0247724094547432025010316537+40876-074283FM-15+0053KCDW V0202805N005752200059N0160935N5+00335-00835101195ADDAA101000095GA1025+014335999GD11991+0143359GE19AGL   +99999+99999GF102995999999014331999999MA1101125100485OC101085REMMET10301/03/25 11:53:02 METAR KCDW 031653Z 28011G21KT 10SM FEW047 03/M08 A2986 RMK AO2 SLP119 T00331083 (CDW)EQDD01      0ADE726
0294724094547432025010317537+40876-074283FM-15+0053KCDW V0203205N005152200059N0160935N5+00335-00785101045ADDAA101000095GA1025+014635999GD11991+0146359GE19AGL   +99999+99999GF102995999999014631999999KA1060M+00331KA2060N+00061MA1100985100355MD1890399+9999REMMET11801/03/25 12:53:02 METAR KCDW 031753Z 32010KT 10SM FEW048 03/M08 A2982 RMK AO2 SLP104 T00331078 10033 20006 58039 (CDW)EQDD01      0ADE726
0228724094547432025010318537+40876-074283FM-15+0053KCDW V0202805N00415014945MN0160935N5+00335-00835100975ADDAA101000095GA1075+014945999GD13991+0149459GE19AGL   +99999+99999GF199999999999014941999999MA1100915100285OC100825REMMET10301/03/25 13:53:02 METAR KCDW 031853Z 28008G16KT 10SM BKN049 03/M08 A2980 RMK AO2 SLP097 T00331083 (CDW)
0228724094547432025010319537+40876-074283FM-15+0053KCDW V0202705N00315014635MN0160935N5+00335-00785100955ADDAA101000095GA1085+014635999GD14991+0146359GE19AGL   +99999+99999GF199999999999014631999999MA1100885100255OC100725REMMET10301/03/25 14:53:02 METAR KCDW 031953Z 27006G14KT 10SM OVC048 03/M08 A2979 RMK AO2 SLP095 T00331078 (CDW)
0231724094547432025010320537+40876-074283FM-15+0053KCDW V0202805N00465015245MN0160935N5+00285-00835100975ADDAA101000095GA1085+015245999GD14991+0152459GE19AGL   +99999+99999GF199999999999015241999999MA1100915100285MD1590079+9999REMMET10001/03/25 15:53:02 METAR KCDW 032053Z 28009KT 10SM OVC050 03/M08 A2980 RMK AO2 SLP097 T00281083 55007
0293724094547432025010321537+40876-074283FM-15+0053KCDW V0202905N00315030485MN0160935N5+00175-00785101015ADDAA101000095GA1025+018295999GA2045+021345999GA3085+030485999GD11991+0182959GD22991+0213459GD34991+0304859GE19AGL   +99999+99999GF199999999999018291999999MA1100955100315REMMET11401/03/25 16:53:02 METAR KCDW 032153Z 29006KT 10SM FEW060 SCT070 OVC100 02/M08 A2981 RMK AO2 SLP101 T00171078 (CDW)
0255724094547432025010322537+40876-074283FM-15+0053KCDW V0202905N00315028965MN0160935N5+00115-00785101035ADDAA101000095GA1025+021345999GA2085+028965999GD11991+0213459GD24991+0289659GE19AGL   +99999+99999GF199999999999021341999999MA1100985100355REMMET10701/03/25 17:53:02 METAR KCDW 032253Z 29006KT 10SM FEW070 OVC095 01/M08 A2982 RMK AO2 SLP103 T00111078 (CDW)
0250724094547432025010323537+40876-074283FM-15+0053KCDW V0203005N003152200059N0160935N5+00065-00725100995ADDAA101000095GA1005+999999999GD10991+9999999GF100991999999999999999999KA1060M+00391KA2060N+00061MA1100915100285MD1090039+9999REMMET11501/03/25 18:53:02 METAR KCDW 032353Z 30006KT 10SM CLR 01/M07 A2980 RMK AO2 SLP099 T00061072 10039 20006 50003 (CDW)
0187724094547432025010400537+40876-074283FM-15+0053KCDW V0202405N001552200059N0160935N5-00115-00615100985ADDAA101000095GA1005+999999999GD10991+9999999GF100991999999999999999999MA1100915100285REMMET09201/03/25 19:53:01 METAR KCDW 040053Z 24003KT 10SM CLR M01/M06 A2980 RMK AO2 SLP098 T10111061
0231724094547432025010401537+40876-074283FM-15+0053KCDW V0209999C000052200059N0160935N5-00175-00565100965ADDAA101000095GA1025+033535999GD11991+0335359GE19AGL   +99999+99999GF102995999999033531999999MA1100885100255REMMET09501/03/25 20:53:01 METAR KCDW 040153Z 00000KT 10SM FEW110 M02/M06 A2979 RMK AO2 SLP096 T10171056EQDD01      0ADE726
0251724094547432025010402537+40876-074283FM-15+0053KCDW V0209999V001552200059N0160935N5-00175-00565100945ADDAA101000095GA1025+033535999GD11991+0335359GE19AGL   +99999+99999GF102995999999033531999999MA1100885100255MD1790059+9999REMMET10101/03/25 21:53:01 METAR KCDW 040253Z VRB03KT 10SM FEW110 M02/M06 A2979 RMK AO2 SLP094 T10171056 57005EQDD01      0ADE726
0187724094547432025010403537+40876-074283FM-15+0053KCDW V0202905N002652200059N0160935N5-00175-00675100915ADDAA101000095GA1005+999999999GD10991+9999999GF100991999999999999999999MA1100855100215REMMET09201/03/25 22:53:02 METAR KCDW 040353Z 29005KT 10SM CLR M02/M07 A2978 RMK AO2 SLP091 T10171067
0223724094547432025010404537+40876-074283FM-15+0053KCDW V0203205N004152200059N0160935N5-00115-00835100895ADDAA101000095GA1005+999999999GD10991+9999999GF100991999999999999999999KA1240M+00391KA2240N-00221MA1100815100185REMMET10201/03/25 23:53:02 METAR KCDW 040453Z 32008KT 10SM CLR M01/M08 A2977 RMK AO2 SLP089 T10111083 400391022
0886724094547432025010404596+40876-074283SOD  +0053KCDW V020999999999999999999999999999+99999+99999999999ADDAA124000095KA1240M+00395KA2240N-00215MG1100564100884OE11240120728010115OE22240089429010205OE33240036799999995REMSOD73024 HR PRECIPITATION (IN):0.00  24 HR MAX TEMP (F):39 24 HR MAX TEMP TIME (LST):1428 24 HR MIN TEMP (F):28 24 HR MIN TEMP TIME (LST):2247 AVERAGE STATION PRESSURE:29.695 MINIMUM SEA LEVEL PRESSURE:29.79 TIME OF OCCURRENCE:2359 PEAK WIND SPEED (MPH):27  PEAK WIND DIR (DEG):280 PEAK WIND TIME (LST):1011  FASTEST 2MIN SPEED (MPH):20 FASTEST 2MIN DIR (DEG):290 FASTEST 2MIN TIME (LST):1020 AVERAGE WIND SPEED (MPH):8.2  24 HR AVG TEMP (F):34 HEATING DEGREE DAYS:31  COOLING DEGREE DAYS:0   LATEST DAY MAX TEMP (0700-1900 LST):39  LATEST NIGHT MIN TEMP(1900-0800 LST):33 HOURLY INCREMENTAL PRECIPITATION VALUES (IN):.00 0.00 0.00 0.00 0.00 0.00 0.00 0.00 0.00 0.00 0.00 0.00 0.00 0.00 0.00 0.00 0.00 0.00 0.00 0.00 0.00 0.00 0.00 0.00EQDR01     N7GJS072R02     N7GKS075
0256724094547432025010405537+40876-074283FM-15+0053KCDW V0203105N003652200059N0160935N5-00115-01005100865ADDAA101000095GA1005+999999999GD10991+9999999GF100991999999999999999999KA1060M+00061KA2060N-00221MA1100785100155MD1890089+9999OC101135REMMET11301/04/25 00:53:02 METAR KCDW 040553Z 31007G22KT 10SM CLR M01/M10 A2976 RMK AO2 SLP086 T10111100 10006 21022 58008
0212724094547432025010406537+40876-074283FM-15+0053KCDW V0202905N00315018295MN0160935N5-00115-01005100885ADDAA101000095GA1075+018295999GD13991+0182959GE19AGL   +99999+99999GF199999999999018291999999MA1100815100185REMMET09501/04/25 01:53:02 METAR KCDW 040653Z 29006KT 10SM BKN060 M01/M10 A2977 RMK AO2 SLP088 T10111100
0261724094547432025010407537+40876-074283FM-15+0053KCDW V0202905N00465018295MN0160935N5-00115-01115100905ADDAA101000095GA1025+014945999GA2075+018295999GD11991+0149459GD23991+0182959GE19AGL   +99999+99999GF199999999999014941999999MA1100855100215OC100885REMMET10501/04/25 02:53:02 METAR KCDW 040753Z 29009G17KT 10SM FEW049 BKN060 M01/M11 A2978 RMK AO2 SLP090 T10111111
0332724094547432025010408537+40876-074283FM-15+0053KCDW V0203005N005752200059N0160935N5-00175-01005100985ADDAA101000095GA1025+012505999GA2025+018295999GD11991+0125059GD21991+0182959GE19AGL   +99999+99999GF102995999999012501999999MA1100915100285MD1390129+9999OC101395OD149901691310REMMET12901/04/25 03:53:02 METAR KCDW 040853Z 30011G27KT 10SM FEW041 FEW060 M02/M10 A2980 RMK AO2 PK WND 31033/0830 SLP098 T10171100 53012EQDD01      0ADE726
0212724094547432025010409537+40876-074283FM-15+0053KCDW V0202905N00365016765MN0160935N5-00175-01175101055ADDAA101000095GA1075+016765999GD13991+0167659GE19AGL   +99999+99999GF199999999999016761999999MA1100985100355REMMET09501/04/25 04:53:02 METAR KCDW 040953Z 29007KT 10SM BKN055 M02/M12 A2982 RMK AO2 SLP105 T10171117
0269724094547432025010410537+40876-074283FM-15+0053KCDW V0203005N005152200059N0160935N5-00175-01005101105ADDAA101000095GA1025+014025999GA2045+016765999GD11991+0140259GD22991+0167659GE19AGL   +99999+99999GF104995999999014021999999MA1101025100385REMMET10201/04/25 05:53:02 METAR KCDW 041053Z 30010KT 10SM FEW046 SCT055 M02/M10 A2983 RMK AO2 SLP110 T10171100EQDD01      0ADE726
0287724094547432025010411537+40876-074283FM-15+0053KCDW V0203105N00575019815MN0160935N5-00115-01225101135ADDAA101000095GA1075+019815999GD13991+0198159GE19AGL   +99999+99999GF199999999999019811999999KA1060M-00061KA2060N-00171MA1101055100425MD1190149+9999OC100935REMMET12201/04/25 06:53:02 METAR KCDW 041153Z 31011G18KT 10SM BKN065 M01/M12 A2984 RMK AO2 SLP113 T10111122 11006 21017 51014 (CDW)
0247724094547432025010412537+40876-074283FM-15+0053KCDW V0202905N00625018295MN0160935N5-00115-01285101185ADDAA101000095GA1085+018295999GD14991+0182959GE19AGL   +99999+99999GF199999999999018291999999MA1101125100485OC101245REMMET12201/04/25 07:53:02 METAR KCDW 041253Z 29012G24KT 10SM OVC060 M01/M13 A2986 RMK AO2 PK WND 31031/1214 SLP118 T10111128 (CDW)
0247724094547432025010413537+40876-074283FM-15+0053KCDW V0203105N00675018295MN0160935N5-00065-01335101255ADDAA101000095GA1085+018295999GD14991+0182959GE19AGL   +99999+99999GF199999999999018291999999MA1101195100555OC101035REMMET12201/04/25 08:53:02 METAR KCDW 041353Z 31013G20KT 10SM OVC060 M01/M13 A2988 RMK AO2 PK WND 34029/1334 SLP125 T10061133 (CDW)
0280724094547432025010414537+40876-074283FM-15+0053KCDW V0203105N00625016765MN0160935N5+00005-01225101315ADDAA101000095GA1085+016765999GD14991+0167659GE19AGL   +99999+99999GF199999999999016761999999MA1101255100625MD1390189+9999OC101245OD149901491300REMMET12701/04/25 09:53:02 METAR KCDW 041453Z 31012G24KT 10SM OVC055 00/M12 A2990 RMK AO2 PK WND 30029/1439 SLP131 T00001122 53018 (CDW)
0260724094547432025010415537+40876-074283FM-15+0053KCDW V0203005N00675018295MN0160935N5+00005-01285101285ADDAA101000095GA1075+018295999GD13991+0182959GE19AGL   +99999+99999GF199999999999018291999999MA1101225100585OC101295OD149901591300REMMET12101/04/25 10:53:02 METAR KCDW 041553Z 30013G25KT 10SM BKN060 00/M13 A2989 RMK AO2 PK WND 30031/1527 SLP128 T00001128 (CDW)
0260724094547432025010416537+40876-074283FM-15+0053KCDW V0203005N00825016765MN0160935N5+00005-01225101265ADDAA101000095GA1085+016765999GD14991+0167659GE19AGL   +99999+99999GF199999999999016761999999MA1101195100555OC101345OD149901591280REMMET12101/04/25 11:53:02 METAR KCDW 041653Z 30016G26KT 10SM OVC055 00/M12 A2988 RMK AO2 PK WND 28031/1614 SLP126 T00001122 (CDW)
0305724094547432025010417537+40876-074283FM-15+0053KCDW V0203205N00825018295MN0160935N5-00065-01285101205ADDAA101000095GA1075+018295999GD13991+0182959GE19AGL   +99999+99999GF199999999999018291999999KA1060M+00061KA2060N-00111MA1101125100485MD1890119+9999OC101345REMMET14001/04/25 12:53:02 METAR KCDW 041753Z 32016G26KT 10SM BKN060 M01/M13 A2986 RMK AO2 PK WND 30031/1657 SLP120 T10061128 10006 21011 58011 (CDW)
0260724094547432025010418537+40876-074283FM-15+0053KCDW V0203205N01035018295MN0160935N5+00065-01445101215ADDAA101000095GA1075+018295999GD13991+0182959GE19AGL   +99999+99999GF199999999999018291999999MA1101155100525OC101655OD149901641310REMMET12101/04/25 13:53:02 METAR KCDW 041853Z 32020G32KT 10SM BKN060 01/M14 A2987 RMK AO2 PK WND 31032/1844 SLP121 T00061144 (CDW)
0261724094547432025010419537+40876-074283FM-15+0053KCDW V0203205V00675018295MN0160935N5-00065-01445101295ADDAA101000095GA1085+018295999GD14991+0182959GE19AGL   +99999+99999GF199999999999018291999999MA1101225100585OC101655OD149901691310REMMET12201/04/25 14:53:02 METAR KCDW 041953Z 32013G32KT 10SM OVC060 M01/M14 A2989 RMK AO2 PK WND 31033/1917 SLP129 T10061144 (CDW)
0281724094547432025010420537+40876-074283FM-15+0053KCDW V0203005V00675019815MN0160935N5-00065-01505101355ADDAA101000095GA1085+019815999GD14991+0198159GE19AGL   +99999+99999GF199999999999019811999999MA1101295100655MD1390159+9999OC101395OD149901801280REMMET12801/04/25 15:53:02 METAR KCDW 042053Z 30013G27KT 10SM OVC065 M01/M15 A2991 RMK AO2 PK WND 28035/2002 SLP135 T10061150 53015 (CDW)
0247724094547432025010421537+40876-074283FM-15+0053KCDW V0202905N00825019815MN0160935N5-00065-01505101405ADDAA101000095GA1085+019815999GD14991+0198159GE19AGL   +99999+99999GF199999999999019811999999MA1101325100695OC101395REMMET12201/04/25 16:53:02 METAR KCDW 042153Z 29016G27KT 10SM OVC065 M01/M15 A2992 RMK AO2 PK WND 29027/2145 SLP140 T10061150 (CDW)
0247724094547432025010422537+40876-074283FM-15+0053KCDW V0202905N00575019815MN0160935N5-00115-01445101445ADDAA101000095GA1085+019815999GD14991+0198159GE19AGL   +99999+99999GF199999999999019811999999MA1101395100755OC100985REMMET12201/04/25 17:53:02 METAR KCDW 042253Z 29011G19KT 10SM OVC065 M01/M14 A2994 RMK AO2 PK WND 30030/2225 SLP144 T10111144 (CDW)
0287724094547432025010423537+40876-074283FM-15+0053KCDW V0202905N00575021345MN0160935N5-00115-01395101475ADDAA101000095GA1085+021345999GD14991+0213459GE19AGL   +99999+99999GF199999999999021341999999KA1060M+00111KA2060N-00111MA1101395100755MD1190129+9999OC101085REMMET12201/04/25 18:53:02 METAR KCDW 042353Z 29011G21KT 10SM OVC070 M01/M14 A2994 RMK AO2 SLP147 T10111139 10011 21011 51012 (CDW)
0223724094547432025010500537+40876-074283FM-15+0053KCDW V0202905N00625022865MN0160935N5-00115-01395101505ADDAA101000095GA1085+022865999GD14991+0228659GE19AGL   +99999+99999GF199999999999022861999999MA1101425100795OC101035REMMET09801/04/25 19:53:01 METAR KCDW 050053Z 29012G20KT 10SM OVC075 M01/M14 A2995 RMK AO2 SLP150 T10111139
0242724094547432025010501537+40876-074283FM-15+0053KCDW V0202805V005152200059N0160935N5-00175-01335101515ADDAA101000095GA1045+018295999GD12991+0182959GE19AGL   +99999+99999GF104995999999018291999999MA1101465100825OC100935REMMET09801/04/25 20:53:01 METAR KCDW 050153Z 28010G18KT 10SM SCT060 M02/M13 A2996 RMK AO2 SLP151 T10171133EQDD01      0ADE726
0243724094547432025010502537+40876-074283FM-15+0053KCDW V0202805N00415018295MN0160935N5-00225-01395101555ADDAA101000095GA1075+018295999GD13991+0182959GE19AGL   +99999+99999GF199999999999018291999999MA1101495100855MD1390089+9999OC101035REMMET10401/04/25 21:53:01 METAR KCDW 050253Z 28008G20KT 10SM BKN060 M02/M14 A2997 RMK AO2 SLP155 T10221139 53008
0223724094547432025010503537+40876-074283FM-15+0053KCDW V0202805N00415016765MN0160935N5-00225-01335101605ADDAA101000095GA1085+016765999GD14991+0167659GE19AGL   +99999+99999GF199999999999016761999999MA1101525100895OC100825REMMET09801/04/25 22:53:02 METAR KCDW 050353Z 28008G16KT 10SM OVC055 M02/M13 A2998 RMK AO2 SLP160 T10221133
0259724094547432025010504537+40876-074283FM-15+0053KCDW V0209999V00315015245MN0160935N5-00225-01285101625ADDAA101000095GA1085+015245999GD14991+0152459GE19AGL   +99999+99999GF199999999999015241999999KA1240M+00111KA2240N-00221MA1101565100925OC100825REMMET10801/04/25 23:53:02 METAR KCDW 050453Z VRB06G16KT 10SM OVC050 M02/M13 A2999 RMK AO2 SLP162 T10221128 400111022
0886724094547432025010504596+40876-074283SOD  +0053KCDW V020999999999999999999999999999+99999+99999999999ADDAA124000095KA1240M+00115KA2240N-00215MG1100444100854OE11240183328015025OE22240111830015025OE33240058199999995REMSOD73024 HR PRECIPITATION (IN):0.00  24 HR MAX TEMP (F):34 24 HR MAX TEMP TIME (LST):1317 24 HR MIN TEMP (F):28 24 HR MIN TEMP TIME (LST):2359 AVERAGE STATION PRESSURE:29.660 MINIMUM SEA LEVEL PRESSURE:29.78 TIME OF OCCURRENCE:0117 PEAK WIND SPEED (MPH):41  PEAK WIND DIR (DEG):280 PEAK WIND TIME (LST):1502  FASTEST 2MIN SPEED (MPH):25 FASTEST 2MIN DIR (DEG):300 FASTEST 2MIN TIME (LST):1502 AVERAGE WIND SPEED (MPH):13.0 24 HR AVG TEMP (F):31 HEATING DEGREE DAYS:34  COOLING DEGREE DAYS:0   LATEST DAY MAX TEMP (0700-1900 LST):34  LATEST NIGHT MIN TEMP(1900-0800 LST):28 HOURLY INCREMENTAL PRECIPITATION VALUES (IN):.00 0.00 0.00 0.00 0.00 0.00 0.00 0.00 0.00 0.00 0.00 0.00 0.00 0.00 0.00 0.00 0.00 0.00 0.00 0.00 0.00 0.00 0.00 0.00EQDR01     N7GJS072R02     N7GKS075
0270724094547432025010505537+40876-074283FM-15+0053KCDW V0202805N00315014945MN0160935N5-00225-01225101645ADDAA101000095GA1085+014945999GD14991+0149459GE19AGL   +99999+99999GF199999999999014941999999KA1060M-00111KA2060N-00221MA1101565100925MD1190089+9999REMMET11301/05/25 00:53:02 METAR KCDW 050553Z 28006KT 10SM OVC049 M02/M12 A2999 RMK AO2 SLP164 T10221122 11011 21022 51008
0212724094547432025010506537+40876-074283FM-15+0053KCDW V0202705N00265014945MN0160935N5-00225-01115101655ADDAA101000095GA1085+014945999GD14991+0149459GE19AGL   +99999+99999GF199999999999014941999999MA1101595100955REMMET09501/05/25 01:53:02 METAR KCDW 050653Z 27005KT 10SM OVC049 M02/M11 A3000 RMK AO2 SLP165 T10221111
0212724094547432025010507537+40876-074283FM-15+0053KCDW V0202905N00415014335MN0160935N5-00225-01225101665ADDAA101000095GA1085+014335999GD14991+0143359GE19AGL   +99999+99999GF199999999999014331999999MA1101595100955REMMET09501/05/25 02:53:02 METAR KCDW 050753Z 29008KT 10SM OVC047 M02/M12 A3000 RMK AO2 SLP166 T10221122
0243724094547432025010508537+40876-074283FM-15+0053KCDW V0202805N00315014025MN0160935N5-00225-01115101655ADDAA101000095GA1085+014025999GD14991+0140259GE19AGL   +99999+99999GF199999999999014021999999MA1101595100955MD1090019+9999OC100825REMMET10401/05/25 03:53:02 METAR KCDW 050853Z 28006G16KT 10SM OVC046 M02/M11 A3000 RMK AO2 SLP165 T10221111 50001
0223724094547432025010509537+40876-074283FM-15+0053KCDW V0202905N00365014335MN0160935N5-00225-01065101675ADDAA101000095GA1085+014335999GD14991+0143359GE19AGL   +99999+99999GF199999999999014331999999MA1101595100955OC100775REMMET09801/05/25 04:53:02 METAR KCDW 050953Z 29007G15KT 10SM OVC047 M02/M11 A3000 RMK AO2 SLP167 T10221106
0212724094547432025010510537+40876-074283FM-15+0053KCDW V0202805V00365014025MN0160935N5-00225-01065101715ADDAA101000095GA1085+014025999GD14991+0140259GE19AGL   +99999+99999GF199999999999014021999999MA1101665101025REMMET09501/05/25 05:53:02 METAR KCDW 051053Z 28007KT 10SM OVC046 M02/M11 A3002 RMK AO2 SLP171 T10221106
0276724094547432025010511537+40876-074283FM-15+0053KCDW V0202705N00265014335MN0160935N5-00285-01065101735ADDAA101000095GA1085+014335999GD14991+0143359GE19AGL   +99999+99999GF199999999999014331999999KA1060M-00221KA2060N-00281MA1101665101025MD1190089+9999REMMET11901/05/25 06:53:02 METAR KCDW 051153Z 27005KT 10SM OVC047 M03/M11 A3002 RMK AO2 SLP173 T10281106 11022 21028 51008 (CDW)
0229724094547432025010512537+40876-074283FM-15+0053KCDW V0202805N00365014635MN0160935N5-00285-01115101755ADDAA101000095GA1085+014635999GD14991+0146359GE19AGL   +99999+99999GF199999999999014631999999MA1101695101065OC100825REMMET10401/05/25 07:53:02 METAR KCDW 051253Z 28007G16KT 10SM OVC048 M03/M11 A3003 RMK AO2 SLP175 T10281111 (CDW)
0229724094547432025010513537+40876-074283FM-15+0053KCDW V0202705N00465014635MN0160935N5-00225-01115101805ADDAA101000095GA1085+014635999GD14991+0146359GE19AGL   +99999+99999GF199999999999014631999999MA1101735101095OC100935REMMET10401/05/25 08:53:02 METAR KCDW 051353Z 27009G18KT 10SM OVC048 M02/M11 A3004 RMK AO2 SLP180 T10221111 (CDW)
0249724094547432025010514537+40876-074283FM-15+0053KCDW V0202905N00465015245MN0160935N5-00175-01065101825ADDAA101000095GA1085+015245999GD14991+0152459GE19AGL   +99999+99999GF199999999999015241999999MA1101765101125MD1390099+9999OC100885REMMET11001/05/25 09:53:02 METAR KCDW 051453Z 29009G17KT 10SM OVC050 M02/M11 A3005 RMK AO2 SLP182 T10171106 53009 (CDW)
0229724094547432025010515537+40876-074283FM-15+0053KCDW V0203005N00515014635MN0160935N5-00175-01065101805ADDAA101000095GA1085+014635999GD14991+0146359GE19AGL   +99999+99999GF199999999999014631999999MA1101735101095OC100935REMMET10401/05/25 10:53:02 METAR KCDW 051553Z 30010G18KT 10SM OVC048 M02/M11 A3004 RMK AO2 SLP180 T10171106 (CDW)
0218724094547432025010516537+40876-074283FM-15+0053KCDW V0202805N00515014025MN0160935N5-00115-01005101725ADDAA101000095GA1085+014025999GD14991+0140259GE19AGL   +99999+99999GF199999999999014021999999MA1101665101025REMMET10101/05/25 11:53:02 METAR KCDW 051653Z 28010KT 10SM OVC046 M01/M10 A3002 RMK AO2 SLP172 T10111100 (CDW)
0286724094547432025010517537+40876-074283FM-15+0053KCDW V0202805N00625014945MN0160935N5+00005-01175101685ADDAA101000095GA1085+014945999GD14991+0149459GE19AGL   +99999+99999GF199999999999014941999999KA1060M+00001KA2060N-00281MA1101635100995MD1890149+9999OC101085REMMET12101/05/25 12:53:02 METAR KCDW 051753Z 28012G21KT 10SM OVC049 00/M12 A3001 RMK AO2 SLP168 T00001117 10000 21028 58014 (CDW)
0228724094547432025010518537+40876-074283FM-15+0053KCDW V0203205N00515015245MN0160935N5+00065-01115101705ADDAA101000095GA1075+015245999GD13991+0152459GE19AGL   +99999+99999GF199999999999015241999999MA1101635100995OC101035REMMET10301/05/25 13:53:02 METAR KCDW 051853Z 32010G20KT 10SM BKN050 01/M11 A3001 RMK AO2 SLP170 T00061111 (CDW)
0203724094547432025010519537+40876-074283FM-15+0053KCDW V0203205N005752200059N0160935N5+00065-01175101725ADDAA101000095GA1005+999999999GD10991+9999999GF100991999999999999999999MA1101665101025OC101245REMMET10001/05/25 14:53:02 METAR KCDW 051953Z 32011G24KT 10SM CLR 01/M12 A3002 RMK AO2 SLP172 T00061117 (CDW)
0224724094547432025010520537+40876-074283FM-15+0053KCDW V0203105N004152200059N0160935N5-00065-01175101805ADDAA101000095GA1005+999999999GD10991+9999999GF100991999999999999999999MA1101735101095MD1390129+9999OC100935REMMET10701/05/25 15:53:02 METAR KCDW 052053Z 31008G18KT 10SM CLR M01/M12 A3004 RMK AO2 SLP180 T10061117 53012 (CDW)
0248724094547432025010521537+40876-074283FM-15+0053KCDW V0203205N004652200059N0160935N5-00115-01175101835ADDAA101000095GA1025+014335999GD11991+0143359GE19AGL   +99999+99999GF102995999999014331999999MA1101765101125OC100885REMMET10401/05/25 16:53:02 METAR KCDW 052153Z 32009G17KT 10SM FEW047 M01/M12 A3005 RMK AO2 SLP183 T10111117 (CDW)EQDD01      0ADE726
0248724094547432025010522537+40876-074283FM-15+0053KCDW V0202905N004652200059N0160935N5-00115-01115101895ADDAA101000095GA1025+013725999GD11991+0137259GE19AGL   +99999+99999GF102995999999013721999999MA1101835101195OC100825REMMET10401/05/25 17:53:02 METAR KCDW 052253Z 29009G16KT 10SM FEW045 M01/M11 A3007 RMK AO2 SLP189 T10111111 (CDW)EQDD01      0ADE726
0251724094547432025010523537+40876-074283FM-15+0053KCDW V0203005N003152200059N0160935N5-00175-01115101865ADDAA101000095GA1005+999999999GD10991+9999999GF100991999999999999999999KA1060M+00061KA2060N-00171MA1101795101165MD1090069+9999REMMET11601/05/25 18:53:02 METAR KCDW 052353Z 30006KT 10SM CLR M02/M11 A3006 RMK AO2 SLP186 T10171111 10006 21017 50006 (CDW)
0187724094547432025010600537+40876-074283FM-15+0053KCDW V0202705N001552200059N0160935N5-00225-01065101875ADDAA101000095GA1005+999999999GD10991+9999999GF100991999999999999999999MA1101795101165REMMET09201/05/25 19:53:01 METAR KCDW 060053Z 27003KT 10SM CLR M02/M11 A3006 RMK AO2 SLP187 T10221106
0187724094547432025010601537+40876-074283FM-15+0053KCDW V0202705N002652200059N0160935N5-00225-01005101825ADDAA101000095GA1005+999999999GD10991+9999999GF100991999999999999999999MA1101765101125REMMET09201/05/25 20:53:01 METAR KCDW 060153Z 27005KT 10SM CLR M02/M10 A3005 RMK AO2 SLP182 T10221100
0207724094547432025010602537+40876-074283FM-15+0053KCDW V0202705N002152200059N0160935N5-00175-00895101825ADDAA101000095GA1005+999999999GD10991+9999999GF100991999999999999999999MA1101765101125MD1890049+9999REMMET09801/05/25 21:53:01 METAR KCDW 060253Z 27004KT 10SM CLR M02/M09 A3005 RMK AO2 SLP182 T10171089 58004
0187724094547432025010603537+40876-074283FM-15+0053KCDW V0209999V002152200059N0160935N5-00285-00895101815ADDAA101000095GA1005+999999999GD10991+9999999GF100991999999999999999999MA1101765101125REMMET09201/05/25 22:53:02 METAR KCDW 060353Z VRB04KT 10SM CLR M03/M09 A3005 RMK AO2 SLP181 T10281089
0267724094547432025010604537+40876-074283FM-15+0053KCDW V0202205N001552200059N0160935N5-00285-00895101825ADDAA101000095GA1025+010975999GD11991+0109759GE19AGL   +99999+99999GF102995999999010971999999KA1240M+00061KA2240N-00281MA1101765101125REMMET10501/05/25 23:53:02 METAR KCDW 060453Z 22003KT 10SM FEW036 M03/M09 A3005 RMK AO2 SLP182 T10281089 400061028EQDD01      0ADE726
0886724094547432025010604596+40876-074283SOD  +0053KCDW V020999999999999999999999999999+99999+99999999999ADDAA124000095KA1240M+00065KA2240N-00275MG1101004101594OE11240125232014335OE22240089430014195OE33240037199999995REMSOD73024 HR PRECIPITATION (IN):0.00  24 HR MAX TEMP (F):33 24 HR MAX TEMP TIME (LST):1525 24 HR MIN TEMP (F):27 24 HR MIN TEMP TIME (LST):2359 AVERAGE STATION PRESSURE:29.825 MINIMUM SEA LEVEL PRESSURE:30.00 TIME OF OCCURRENCE:0005 PEAK WIND SPEED (MPH):28  PEAK WIND DIR (DEG):320 PEAK WIND TIME (LST):1433  FASTEST 2MIN SPEED (MPH):20 FASTEST 2MIN DIR (DEG):300 FASTEST 2MIN TIME (LST):1419 AVERAGE WIND SPEED (MPH):8.3  24 HR AVG TEMP (F):30 HEATING DEGREE DAYS:35  COOLING DEGREE DAYS:0   LATEST DAY MAX TEMP (0700-1900 LST):33  LATEST NIGHT MIN TEMP(1900-0800 LST):27 HOURLY INCREMENTAL PRECIPITATION VALUES (IN):.00 0.00 0.00 0.00 0.00 0.00 0.00 0.00 0.00 0.00 0.00 0.00 0.00 0.00 0.00 0.00 0.00 0.00 0.00 0.00 0.00 0.00 0.00 0.00EQDR01     N7GJS072R02     N7GKS075
0305724094547432025010605537+40876-074283FM-15+0053KCDW V0202105N00155010365MN0160935N5-00285-00945101815ADDAA101000095GA1085+010365999GD14991+0103659GE19AGL   +99999+99999GF199999999999010361999999KA1060M-00171KA2060N-00281MA1101765101125MD1890009+9999REMMET11301/06/25 00:53:02 METAR KCDW 060553Z 21003KT 10SM OVC034 M03/M09 A3005 RMK AO2 SLP181 T10281094 11017 21028 58000EQDQ010     3APC3  Q028     3APCTEN
0212724094547432025010606537+40876-074283FM-15+0053KCDW V0202005N00155010365MN0160935N5-00285-00895101785ADDAA101000095GA1075+010365999GD13991+0103659GE19AGL   +99999+99999GF199999999999010361999999MA1101735101095REMMET09501/06/25 01:53:02 METAR KCDW 060653Z 20003KT 10SM BKN034 M03/M09 A3004 RMK AO2 SLP178 T10281089
0231724094547432025010607537+40876-074283FM-15+0053KCDW V0209999V001552200059N0160935N5-00285-01005101815ADDAA101000095GA1025+010065999GD11991+0100659GE19AGL   +99999+99999GF102995999999010061999999MA1101765101125REMMET09501/06/25 02:53:02 METAR KCDW 060753Z VRB03KT 10SM FEW033 M03/M10 A3005 RMK AO2 SLP181 T10281100EQDD01      0ADE726
0207724094547432025010608537+40876-074283FM-15+0053KCDW V0209999C000052200059N0160935N5-00285-00895101675ADDAA101000095GA1005+999999999GD10991+9999999GF100991999999999999999999MA1101595100955MD1890149+9999REMMET09801/06/25 03:53:02 METAR KCDW 060853Z 00000KT 10SM CLR M03/M09 A3000 RMK AO2 SLP167 T10281089 58014
0187724094547432025010609537+40876-074283FM-15+0053KCDW V0209999C000052200059N0160935N5-00285-00835101575ADDAA101000095GA1005+999999999GD10991+9999999GF100991999999999999999999MA1101525100895REMMET09201/06/25 04:53:02 METAR KCDW 060953Z 00000KT 10SM CLR M03/M08 A2998 RMK AO2 SLP157 T10281083
0187724094547432025010610537+40876-074283FM-15+0053KCDW V0209999C000052200059N0160935N5-00285-00785101605ADDAA101000095GA1005+999999999GD10991+9999999GF100991999999999999999999MA1101525100895REMMET09201/06/25 05:53:02 METAR KCDW 061053Z 00000KT 10SM CLR M03/M08 A2998 RMK AO2 SLP160 T10281078
0295724094547432025010611537+40876-074283FM-15+0053KCDW V0209999C000052200059N0160935N5-00285-00835101525ADDAA101000095GA1045+036585999GD12991+0365859GE19AGL   +99999+99999GF104995999999036581999999KA1060M-00281KA2060N-00331MA1101465100825MD1690159+9999REMMET11901/06/25 06:53:02 METAR KCDW 061153Z 00000KT 10SM SCT120 M03/M08 A2996 RMK AO2 SLP152 T10281083 11028 21033 56015 (CDW)EQDD01      0ADE726
0218724094547432025010612537+40876-074283FM-15+0053KCDW V0209999V00155033535MN0160935N5-00285-00785101525ADDAA101000095GA1075+033535999GD13991+0335359GE19AGL   +99999+99999GF199999999999033531999999MA1101465100825REMMET10101/06/25 07:53:02 METAR KCDW 061253Z VRB03KT 10SM BKN110 M03/M08 A2996 RMK AO2 SLP152 T10281078 (CDW)
0218724094547432025010613537+40876-074283FM-15+0053KCDW V0209999C00005025915MN0160935N5-00225-00835101405ADDAA101000095GA1085+025915999GD14991+0259159GE19AGL   +99999+99999GF199999999999025911999999MA1101325100695REMMET10101/06/25 08:53:02 METAR KCDW 061353Z 00000KT 10SM OVC085 M02/M08 A2992 RMK AO2 SLP140 T10221083 (CDW)
0276724094547432025010614537+40876-074283FM-15+0053KCDW V0209999C00005013415MN0160935N5-00225-00785101365ADDAA101000095GA1075+013415999GA2085+018295999GD13991+0134159GD24991+0182959GE19AGL   +99999+99999GF199999999999013411999999MA1101295100655MD1890169+9999REMMET11401/06/25 09:53:02 METAR KCDW 061453Z 00000KT 10SM BKN044 OVC060 M02/M08 A2991 RMK AO2 SLP136 T10221078 58016 (CDW)
0291724094547432025010615217+40876-074283FM-16+0053KCDW V0209999C00005008845MN0040235N5-00285-00615999999ADDAA101000021AU110030015AW1715GA1075+008845999GA2085+011285999GD13991+0088459GD24991+0112859GE19AGL   +99999+99999GF199999999999008841999999MA1101255100625MW1715REMMET12001/06/25 10:21:02 SPECI KCDW 061521Z 00000KT 2 1/2SM -SN BKN029 OVC037 M03/M06 A2990 RMK AO2 SNB00 P0000 T10281061 (CDW)
0247724094547432025010615516+40876-074283FM-16+0053KCDW V0209999C00005008235MN0028165N5-00305-00505999999ADDAU110030015AU200001015AW1105AW2715GA1075+008235999GA2085+011285999GD13991+0082359GD24991+0112859MA1101195100555MW1715REMMET11801/06/25 10:51:02 SPECI KCDW 061551Z 00000KT 1 3/4SM -SN BR BKN027 OVC037 M03/M05 A2988 RMK AO2 SNB00 P0000 FIBI (CDW)
0318724094547432025010615537+40876-074283FM-15+0053KCDW V0209999C00005008235MN0024145N5-00285-00445101245ADDAA101000025AU110030015AU200001015AW1105AW2715GA1075+008235999GA2085+011285999GD13991+0082359GD24991+0112859GE19AGL   +99999+99999GF199999999999008231999999MA1101195100555MW1715REMMET13001/06/25 10:53:02 METAR KCDW 061553Z 00000KT 1 1/2SM -SN BR BKN027 OVC037 M03/M04 A2988 RMK AO2 SNB00 SLP124 P0000 T10281044 (CDW)
0350724094547432025010616157+40876-074283FM-16+0053KCDW V0209999C00005007925MN0040235N5-00285-00395999999ADDAA101000021AU110030015AU200001015AW1105AW2715GA1075+007925999GA2075+010675999GA3085+024385999GD13991+0079259GD23991+0106759GD34991+0243859GE19AGL   +99999+99999GF199999999999007921999999MA1101085100455MW1715REMMET13101/06/25 11:15:02 SPECI KCDW 061615Z 00000KT 2 1/2SM -SN BR BKN026 BKN035 OVC080 M03/M04 A2985 RMK AO2 PRESFR P0000 T10281039 (CDW)
0346724094547432025010616197+40876-074283FM-16+0053KCDW V0209999C00005010675MN0048285N5-00225-00395999999ADDAA101000021AU110030015AU200001015AW1105AW2715GA1045+008535999GA2075+010675999GA3085+024385999GD12991+0085359GD23991+0106759GD34991+0243859GE19AGL   +99999+99999GF199999999999008531999999MA1101085100455MW1715REMMET12701/06/25 11:19:02 SPECI KCDW 061619Z 00000KT 3SM -SN BR SCT028 BKN035 OVC080 M02/M04 A2985 RMK AO2 PRESFR P0000 T10221039 (CDW)
0284724094547432025010616516+40876-074283FM-16+0053KCDW V0209999C00005010675MN0032195N5-00205-00405999999ADDAU110030015AU200001015AW1105AW2715GA1075+010675999GA2075+014635999GA3085+018295999GD13991+0106759GD23991+0146359GD34991+0182959MA1101025100385MW1715REMMET12401/06/25 11:51:02 SPECI KCDW 061651Z 00000KT 2SM -SN BR BKN035 BKN048 OVC060 M02/M04 A2983 RMK AO2 SNE22B39 P0000 FIBI (CDW)
0359724094547432025010616537+40876-074283FM-15+0053KCDW V0209999C00005011285MN0028165N5-00225-00445101095ADDAA101000025AU110030015AU200001015AW1105AW2715GA1075+011285999GA2075+014635999GA3085+018295999GD13991+0112859GD23991+0146359GD34991+0182959GE19AGL   +99999+99999GF199999999999011281999999MA1101025100385MW1715REMMET14001/06/25 11:53:02 METAR KCDW 061653Z 00000KT 1 3/4SM -SN BR BKN037 BKN048 OVC060 M02/M04 A2983 RMK AO2 SNE22B39 SLP109 P0000 T10221044 (CDW)
0301724094547432025010617057+40876-074283FM-16+0053KCDW V0209999C00005010975MN0048285N5-00225-00445999999ADDAA101000021AU110030015AU200001015AW1105AW2715GA1075+010975999GA2085+014635999GD13991+0109759GD24991+0146359GE19AGL   +99999+99999GF199999999999010971999999MA1100985100355MW1715REMMET11301/06/25 12:05:02 SPECI KCDW 061705Z 00000KT 3SM -SN BR BKN036 OVC048 M02/M04 A2982 RMK AO2 P0000 T10221044 (CDW)
0343724094547432025010617157+40876-074283FM-16+0053KCDW V0209999C00005008535MN0028165N5-00225-00395999999ADDAA101000021AU110030015AU200001015AW1105AW2715GA1075+008535999GA2075+010675999GA3085+014635999GD13991+0085359GD23991+0106759GD34991+0146359GE19AGL   +99999+99999GF199999999999008531999999MA1101055100425MW1715REMMET12401/06/25 12:15:02 SPECI KCDW 061715Z 00000KT 1 3/4SM -SN BR BKN028 BKN035 OVC048 M02/M04 A2984 RMK AO2 P0000 T10221039 (CDW)
0303724094547432025010617277+40876-074283FM-16+0053KCDW V0209999C00005006105MN0012075N5-00225-00395999999ADDAA101000021AU110030015AU200001015AW1105AW2715GA1075+006105999GA2085+010975999GD13991+0061059GD24991+0109759GE19AGL   +99999+99999GF199999999999006101999999MA1100985100355MW1715REMMET11501/06/25 12:27:02 SPECI KCDW 061727Z 00000KT 3/4SM -SN BR BKN020 OVC036 M02/M04 A2982 RMK AO2 P0000 T10221039 (CDW)
0340724094547432025010617487+40876-074283FM-16+0053KCDW V0209999C00005005795MN0020125N5-00205-00305999999ADDAA101000231AU110030015AU200001015AW1105AW2715GA1025+002135999GA2075+005795999GA3085+011895999GD11991+0021359GD23991+0057959GD34991+0118959GE19AGL   +99999+99999GF199999999999002131999999MA1100915100285MW1715REMMET12101/06/25 12:48:02 SPECI KCDW 061748Z 00000KT 1 1/4SM -SN BR FEW007 BKN019 OVC039 M02/M03 A2980 RMK AO2 PRESFR P0001 (CDW)
0444724094547432025010617537+40876-074283FM-15+0053KCDW V0209999C00005005795MN0028165N5-00225-00335100955ADDAA101000395AA206000391AU110030015AU200001015AW1105AW2715GA1045+002135999GA2075+005795999GA3085+018295999GD12991+0021359GD23991+0057959GD34991+0182959GE19AGL   +99999+99999GF199999999999002131999999KA1060M-00221KA2060N-00281MA1100885100255MD1890409+9999MW1715REMMET15501/06/25 12:53:02 METAR KCDW 061753Z 00000KT 1 3/4SM -SN BR SCT007 BKN019 OVC060 M02/M03 A2979 RMK AO2 SLP095 P0001 60001 T10221033 11022 21028 58040 (CDW)EQDQ01  00028PRCP06
0343724094547432025010618017+40876-074283FM-16+0053KCDW V0209999C00005008235MN0040235N5-00175-00335999999ADDAA101000021AU110030015AU200001015AW1105AW2715GA1045+002445999GA2075+008235999GA3085+012805999GD12991+0024459GD23991+0082359GD34991+0128059GE19AGL   +99999+99999GF199999999999002441999999MA1100855100215MW1715REMMET12401/06/25 13:01:02 SPECI KCDW 061801Z 00000KT 2 1/2SM -SN BR SCT008 BKN027 OVC042 M02/M03 A2978 RMK AO2 P0000 T10171033 (CDW)
0305724094547432025010618107+40876-074283FM-16+0053KCDW V0209999V00155003055MN0040235N5-00175-00335999999ADDAA101000021AU110030015AU200001015AW1105AW2715GA1075+003055999GA2085+011585999GD13991+0030559GD24991+0115859GE19AGL   +99999+99999GF199999999999003051999999MA1100815100185MW1715REMMET11701/06/25 13:10:02 SPECI KCDW 061810Z VRB03KT 2 1/2SM -SN BR BKN010 OVC038 M02/M03 A2977 RMK AO2 P0000 T10171033 (CDW)
0343724094547432025010618197+40876-074283FM-16+0053KCDW V0200105N00155004575MN0040235N5-00175-00335999999ADDAA101000021AU110030015AU200001015AW1105AW2715GA1045+003055999GA2075+004575999GA3085+018295999GD12991+0030559GD23991+0045759GD34991+0182959GE19AGL   +99999+99999GF199999999999003051999999MA1100815100185MW1715REMMET12401/06/25 13:19:02 SPECI KCDW 061819Z 01003KT 2 1/2SM -SN BR SCT010 BKN015 OVC060 M02/M03 A2977 RMK AO2 P0000 T10171033 (CDW)
0339724094547432025010618267+40876-074283FM-16+0053KCDW V0209999C00005004885MN0080475N5-00175-00335999999ADDAA101000021AU110030015AU200001015AW1105AW2715GA1045+003055999GA2075+004885999GA3085+018295999GD12991+0030559GD23991+0048859GD34991+0182959GE19AGL   +99999+99999GF199999999999003051999999MA1100815100185MW1715REMMET12001/06/25 13:26:02 SPECI KCDW 061826Z 00000KT 5SM -SN BR SCT010 BKN016 OVC060 M02/M03 A2977 RMK AO2 P0000 T10171033 (CDW)
0318724094547432025010618347+40876-074283FM-16+0053KCDW V0200205N00155004275MN0096565N5-00175-00335999999ADDAA101000021AU100001015AW1105GA1025+003055999GA2075+004275999GA3085+018295999GD11991+0030559GD23991+0042759GD34991+0182959GE19AGL   +99999+99999GF199999999999003051999999MA1100815100185REMMET12201/06/25 13:34:02 SPECI KCDW 061834Z 02003KT 6SM BR FEW010 BKN014 OVC060 M02/M03 A2977 RMK AO2 SNE28 P0000 T10171033 (CDW)
0260724094547432025010618457+40876-074283FM-16+0053KCDW V0209999C00005018295MN0128755N5-00175-00335999999ADDAA101000021GA1045+004275999GA2085+018295999GD12991+0042759GD24991+0182959GE19AGL   +99999+99999GF199999999999004271999999MA1100785100155REMMET11201/06/25 13:45:02 SPECI KCDW 061845Z 00000KT 8SM SCT014 OVC060 M02/M03 A2976 RMK AO2 SNE28 P0000 T10171033 (CDW)
0267724094547432025010618537+40876-074283FM-15+0053KCDW V0200205N00215004275MN0128755N5-00115-00335100805ADDAA101000025GA1075+004275999GA2085+018295999GD13991+0042759GD24991+0182959GE19AGL   +99999+99999GF199999999999004271999999MA1100755100115REMMET11901/06/25 13:53:02 METAR KCDW 061853Z 02004KT 8SM BKN014 OVC060 M01/M03 A2975 RMK AO2 SNE28 SLP080 P0000 T10111033 (CDW)
0238724094547432025010619187+40876-074283FM-16+0053KCDW V0209999V00155018295MN0160935N5-00115-00395999999ADDGA1045+003965999GA2085+018295999GD12991+0039659GD24991+0182959GE19AGL   +99999+99999GF199999999999003961999999MA1100715100085REMMET10101/06/25 14:18:02 SPECI KCDW 061918Z VRB03KT 10SM SCT013 OVC060 M01/M04 A2974 RMK AO2 T10111039 (CDW)
0256724094547432025010619537+40876-074283FM-15+0053KCDW V0209999V00265018295MN0160935N5-00065-00395100725ADDAA101000095GA1045+005795999GA2085+018295999GD12991+0057959GD24991+0182959GE19AGL   +99999+99999GF199999999999005791999999MA1100645100015REMMET10801/06/25 14:53:02 METAR KCDW 061953Z VRB05KT 10SM SCT019 OVC060 M01/M04 A2972 RMK AO2 SLP072 T10061039 (CDW)
0255724094547432025010620537+40876-074283FM-15+0053KCDW V0209999V00215018295MN0160935N5-00115-00565100635ADDAA101000095AA203000021GA1085+018295999GD14991+0182959GE19AGL   +99999+99999GF199999999999018291999999MA1100585099945MD1690329+9999REMMET11301/06/25 15:53:02 METAR KCDW 062053Z VRB04KT 10SM OVC060 M01/M06 A2970 RMK AO2 SLP063 60000 T10111056 56032 (CDW)
0256724094547432025010621537+40876-074283FM-15+0053KCDW V0200305N00265024385MN0160935N5-00115-00565100615ADDAA101000095GA1025+018295999GA2085+024385999GD11991+0182959GD24991+0243859GE19AGL   +99999+99999GF199999999999018291999999MA1100545099915REMMET10801/06/25 16:53:02 METAR KCDW 062153Z 03005KT 10SM FEW060 OVC080 M01/M06 A2969 RMK AO2 SLP061 T10111056 (CDW)
0218724094547432025010622537+40876-074283FM-15+0053KCDW V0209999V00215024385MN0160935N5-00175-00505100575ADDAA101000095GA1085+024385999GD14991+0243859GE19AGL   +99999+99999GF199999999999024381999999MA1100515099885REMMET10101/06/25 17:53:02 METAR KCDW 062253Z VRB04KT 10SM OVC080 M02/M05 A2968 RMK AO2 SLP057 T10171050 (CDW)
0293724094547432025010623537+40876-074283FM-15+0053KCDW V0200405N00265025915MN0160935N5-00225-00505100515ADDAA101000095AA206000021GA1075+025915999GD13991+0259159GE19AGL   +99999+99999GF199999999999025911999999KA1060M-00061KA2060N-00221MA1100445099815MD1890129+9999REMMET12501/06/25 18:53:02 METAR KCDW 062353Z 04005KT 10SM BKN085 M02/M05 A2966 RMK AO2 SLP051 60000 T10221050 11006 21022 58012 (CDW)
0212724094547432025010700537+40876-074283FM-15+0053KCDW V0200405N00215036585MN0160935N5-00285-00565100495ADDAA101000095GA1085+036585999GD14991+0365859GE19AGL   +99999+99999GF199999999999036581999999MA1100445099815REMMET09501/06/25 19:53:01 METAR KCDW 070053Z 04004KT 10SM OVC120 M03/M06 A2966 RMK AO2 SLP049 T10281056
0212724094547432025010701537+40876-074283FM-15+0053KCDW V0209999V00265033535MN0160935N5-00335-00785100495ADDAA101000095GA1085+033535999GD14991+0335359GE19AGL   +99999+99999GF199999999999033531999999MA1100415099785REMMET09501/06/25 20:53:01 METAR KCDW 070153Z VRB05KT 10SM OVC110 M03/M08 A2965 RMK AO2 SLP049 T10331078
0281724094547432025010702537+40876-074283FM-15+0053KCDW V0203405N00215030485MN0160935N5-00395-01005100595ADDAA101000095GA1075+030485999GA2085+036585999GD13991+0304859GD24991+0365859GE19AGL   +99999+99999GF199999999999030481999999MA1100515099885MD1390079+9999OC100885REMMET11101/06/25 21:53:01 METAR KCDW 070253Z 34004G17KT 10SM BKN100 OVC120 M04/M10 A2968 RMK AO2 SLP059 T10391100 53007
0223724094547432025010703537+40876-074283FM-15+0053KCDW V0203305N00465027435MN0160935N5-00505-01225100705ADDAA101000095GA1085+027435999GD14991+0274359GE19AGL   +99999+99999GF199999999999027431999999MA1100615099985OC101295REMMET09801/06/25 22:53:02 METAR KCDW 070353Z 33009G25KT 10SM OVC090 M05/M12 A2971 RMK AO2 SLP070 T10501122
0329724094547432025010704537+40876-074283FM-15+0053KCDW V0209999V00315030485MN0160935N5-00675-01395100835ADDAA101000095GA1075+030485999GA2085+036585999GD13991+0304859GD24991+0365859GE19AGL   +99999+99999GF199999999999030481999999KA1240M-00061KA2240N-00671MA1100755100115OC101135OD149901391330REMMET13301/06/25 23:53:02 METAR KCDW 070453Z VRB06G22KT 10SM BKN100 OVC120 M07/M14 A2975 RMK AO2 PK WND 33027/0437 SLP083 T10671139 410061067
0910724094547432025010704596+40876-074283SOD  +0053KCDW V020999999999999999999999999999+99999+99999999999ADDAA124000395AT1AU18SN  5AT2AU13BR  5KA1240M-00055KA2240N-00665MG1100474100474OE11240138633023375OE22240080532022485OE33240014399999995REMSOD73024 HR PRECIPITATION (IN):0.01  24 HR MAX TEMP (F):31 24 HR MAX TEMP TIME (LST):1528 24 HR MIN TEMP (F):20 24 HR MIN TEMP TIME (LST):2359 AVERAGE STATION PRESSURE:29.670 MINIMUM SEA LEVEL PRESSURE:29.67 TIME OF OCCURRENCE:2102 PEAK WIND SPEED (MPH):31  PEAK WIND DIR (DEG):330 PEAK WIND TIME (LST):2337  FASTEST 2MIN SPEED (MPH):18 FASTEST 2MIN DIR (DEG):320 FASTEST 2MIN TIME (LST):2248 AVERAGE WIND SPEED (MPH):3.2  24 HR AVG TEMP (F):26 HEATING DEGREE DAYS:39  COOLING DEGREE DAYS:0   LATEST DAY MAX TEMP (0700-1900 LST):31  LATEST NIGHT MIN TEMP(1900-0800 LST):26 HOURLY INCREMENTAL PRECIPITATION VALUES (IN):.00 0.00 0.00 0.00 0.00 0.00 0.00 0.00 0.00 0.00 T    T    0.01 T    0.00 0.00 0.00 0.00 0.00 0.00 0.00 0.00 0.00 0.00EQDR01     N7GJS072R02     N7GKS075
0274724094547432025010705537+40876-074283FM-15+0053KCDW V0203305N006252200059N0160935N5-00725-01395100855ADDAA101000095GA1005+999999999GD10991+9999999GF100991999999999999999999KA1060M-00171KA2060N-00781MA1100785100155MD1190259+9999OC101395REMMET13101/07/25 00:53:02 METAR KCDW 070553Z 33012G27KT 10SM CLR M07/M14 A2976 RMK AO2 PK WND 32027/0544 SLP085 T10721139 11017 21078 51025
0249724094547432025010706537+40876-074283FM-15+0053KCDW V0203205N004152200059N0160935N5-00725-01395100855ADDAA101000095GA1025+010365999GD11991+0103659GE19AGL   +99999+99999GF102995999999010361999999MA1100785100155REMMET11301/07/25 01:53:02 METAR KCDW 070653Z 32008KT 10SM FEW034 M07/M14 A2976 RMK AO2 PK WND 32026/0601 SLP085 T10721139EQDD01      0ADE726
0223724094547432025010707537+40876-074283FM-15+0053KCDW V0203305N00625010675MN0160935N5-00675-01395100905ADDAA101000095GA1085+010675999GD14991+0106759GE19AGL   +99999+99999GF199999999999010671999999MA1100855100215OC101085REMMET09801/07/25 02:53:02 METAR KCDW 070753Z 33012G21KT 10SM OVC035 M07/M14 A2978 RMK AO2 SLP090 T10671139
0275724094547432025010708537+40876-074283FM-15+0053KCDW V0203305N00515010365MN0160935N5-00615-01285100875ADDAA101000095GA1075+010365999GD13991+0103659GE19AGL   +99999+99999GF199999999999010361999999MA1100815100185MD1090039+9999OC101295OD149901391310REMMET12201/07/25 03:53:02 METAR KCDW 070853Z 33010G25KT 10SM BKN034 M06/M13 A2977 RMK AO2 PK WND 31027/0842 SLP087 T10611128 50003
0255724094547432025010709537+40876-074283FM-15+0053KCDW V0203205N00575011285MN0160935N5-00565-01335100925ADDAA101000095GA1075+011285999GD13991+0112859GE19AGL   +99999+99999GF199999999999011281999999MA1100855100215OC101085OD149901491320REMMET11601/07/25 04:53:02 METAR KCDW 070953Z 32011G21KT 10SM BKN037 M06/M13 A2978 RMK AO2 PK WND 32029/0940 SLP092 T10561133
0274724094547432025010710537+40876-074283FM-15+0053KCDW V0203305N005752200059N0160935N5-00565-01285100985ADDAA101000095GA1045+011585999GD12991+0115859GE19AGL   +99999+99999GF104995999999011581999999MA1100915100285OC101135OD149901591310REMMET11601/07/25 05:53:02 METAR KCDW 071053Z 33011G22KT 10SM SCT038 M06/M13 A2980 RMK AO2 PK WND 31031/1030 SLP098 T10561128EQDD01      0ADE726
0311724094547432025010711537+40876-074283FM-15+0053KCDW V0203105N007752200059N0160935N5-00565-01225101025ADDAA101000095AA224000391GA1005+999999999GD10991+9999999GF100991999999999999999999KA1060M-00561KA2060N-00721MA1100955100315MD1190149+9999OC101395OD149901441320REMMET14301/07/25 06:53:02 METAR KCDW 071153Z 31015G27KT 10SM CLR M06/M12 A2981 RMK AO2 PK WND 32028/1127 SLP102 70001 T10561122 11056 21072 51014 (CDW)
0266724094547432025010712537+40876-074283FM-15+0053KCDW V0203205N007252200059N0160935N5-00505-01225101045ADDAA101000095GA1045+011285999GD12991+0112859GE19AGL   +99999+99999GF104995999999011281999999MA1100955100315OC101245REMMET12201/07/25 07:53:02 METAR KCDW 071253Z 32014G24KT 10SM SCT037 M05/M12 A2981 RMK AO2 PK WND 32027/1154 SLP104 T10501122 (CDW)EQDD01      0ADE726
0247724094547432025010713537+40876-074283FM-15+0053KCDW V0203005N00885012505MN0160935N5-00505-01395101135ADDAA101000095GA1075+012505999GD13991+0125059GE19AGL   +99999+99999GF199999999999012501999999MA1101055100425OC101295REMMET12201/07/25 08:53:02 METAR KCDW 071353Z 30017G25KT 10SM BKN041 M05/M14 A2984 RMK AO2 PK WND 32026/1332 SLP113 T10501139 (CDW)
0286724094547432025010714537+40876-074283FM-15+0053KCDW V0209999V003152200059N0160935N5-00395-01285101175ADDAA101000095GA1025+012805999GD11991+0128059GE19AGL   +99999+99999GF102995999999012801999999MA1101085100455MD1390159+9999OC101185REMMET12801/07/25 09:53:02 METAR KCDW 071453Z VRB06G23KT 10SM FEW042 M04/M13 A2985 RMK AO2 PK WND 31031/1424 SLP117 T10391128 53015 (CDW)EQDD01      0ADE726
0266724094547432025010715537+40876-074283FM-15+0053KCDW V0203305N006252200059N0160935N5-00285-01285101105ADDAA101000095GA1045+013115999GD12991+0131159GE19AGL   +99999+99999GF104995999999013111999999MA1101025100385OC101185REMMET12201/07/25 10:53:02 METAR KCDW 071553Z 33012G23KT 10SM SCT043 M03/M13 A2983 RMK AO2 PK WND 29032/1534 SLP110 T10281128 (CDW)EQDD01      0ADE726
0266724094547432025010716537+40876-074283FM-15+0053KCDW V0203105N007752200059N0160935N5-00175-01175101025ADDAA101000095GA1025+014025999GD11991+0140259GE19AGL   +99999+99999GF102995999999014021999999MA1100955100315OC101345REMMET12201/07/25 11:53:02 METAR KCDW 071653Z 31015G26KT 10SM FEW046 M02/M12 A2981 RMK AO2 PK WND 32034/1633 SLP102 T10171117 (CDW)EQDD01      0ADE726
0294724094547432025010717537+40876-074283FM-15+0053KCDW V0203105N006752200059N0160935N5-00065-01115100995ADDAA101000095GA1005+999999999GD10991+9999999GF100991999999999999999999KA1060M-00061KA2060N-00561MA1100915100285MD1690189+9999OC101705OD149901851290REMMET13701/07/25 12:53:02 METAR KCDW 071753Z 31013G33KT 10SM CLR M01/M11 A2980 RMK AO2 PK WND 29036/1659 SLP099 T10061111 11006 21056 56018 (CDW)
0279724094547432025010718537+40876-074283FM-15+0053KCDW V0203105N008252200059N0160935N5+00065-01115101035ADDAA101000095GA1025+014945999GD11991+0149459GE19AGL   +99999+99999GF102995999999014941999999MA1100985100355OC101545OD149901691310REMMET12101/07/25 13:53:02 METAR KCDW 071853Z 31016G30KT 10SM FEW049 01/M11 A2982 RMK AO2 PK WND 31033/1814 SLP103 T00061111 (CDW)EQDD01      0ADE726
0279724094547432025010719537+40876-074283FM-15+0053KCDW V0203105N009352200059N0160935N5+00065-01115101065ADDAA101000095GA1025+015245999GD11991+0152459GE19AGL   +99999+99999GF102995999999015241999999MA1100985100355OC101755OD149901751300REMMET12101/07/25 14:53:02 METAR KCDW 071953Z 31018G34KT 10SM FEW050 01/M11 A2982 RMK AO2 PK WND 30034/1951 SLP106 T00061111 (CDW)EQDD01      0ADE726
0210724094547432025010720536+40876-074283FM-15+0053KCDW V0203205N009352200059N0160935N5-00065-01175101225ADDAA101000095GA1005+999999999GD10991+9999999MA1101155100525MD1390249+9999OC101855REMMET11901/07/25 15:53:02 METAR KCDW 072053Z 32018G36KT 10SM CLR M01/M12 A2987 RMK AO2 PK WND 31036/2048 SLP122 T10061117 53024
0236724094547432025010721537+40876-074283FM-15+0053KCDW V0203105N007752200059N0160935N5-00115-01175101355ADDAA101000095GA1005+999999999GD10991+9999999GF100991999999999999999999MA1101295100655OC101545OD149901641300REMMET11901/07/25 16:53:02 METAR KCDW 072153Z 31015G30KT 10SM CLR M01/M12 A2991 RMK AO2 PK WND 30032/2110 SLP135 T10111117 (CDW)
0266724094547432025010722537+40876-074283FM-15+0053KCDW V0203105N008252200059N0160935N5-00225-01175101485ADDAA101000095GA1025+014025999GD11991+0140259GE19AGL   +99999+99999GF102995999999014021999999MA1101425100795OC101755REMMET12201/07/25 17:53:02 METAR KCDW 072253Z 31016G34KT 10SM FEW046 M02/M12 A2995 RMK AO2 PK WND 30034/2244 SLP148 T10221117 (CDW)EQDD01      0ADE726
0324724094547432025010723537+40876-074283FM-15+0053KCDW V0203105N003152200059N0160935N5-00285-01175101545ADDAA101000095GA1025+012805999GD11991+0128059GE19AGL   +99999+99999GF102995999999012801999999KA1060M+00061KA2060N-00281MA1101465100825MD1190319+9999OC100935REMMET14001/07/25 18:53:02 METAR KCDW 072353Z 31006G18KT 10SM FEW042 M03/M12 A2996 RMK AO2 PK WND 32028/2324 SLP154 T10281117 10006 21028 51031 (CDW)EQDD01      0ADE726
0241724094547432025010800537+40876-074283FM-15+0053KCDW V0203205N00465013115MN0160935N5-00285-01115101575ADDAA101000095GA1085+013115999GD14991+0131159GE19AGL   +99999+99999GF199999999999013111999999MA1101495100855OC101135REMMET11601/07/25 19:53:01 METAR KCDW 080053Z 32009G22KT 10SM OVC043 M03/M11 A2997 RMK AO2 PK WND 33029/0024 SLP157 T10281111
0241724094547432025010801537+40876-074283FM-15+0053KCDW V0203205N00725012505MN0160935N5-00285-01175101585ADDAA101000095GA1075+012505999GD13991+0125059GE19AGL   +99999+99999GF199999999999012501999999MA1101495100855OC101295REMMET11601/07/25 20:53:01 METAR KCDW 080153Z 32014G25KT 10SM BKN041 M03/M12 A2997 RMK AO2 PK WND 31029/0135 SLP158 T10281117
0261724094547432025010802537+40876-074283FM-15+0053KCDW V0203305N00885012505MN0160935N5-00285-01115101605ADDAA101000095GA1075+012505999GD13991+0125059GE19AGL   +99999+99999GF199999999999012501999999MA1101525100895MD1190079+9999OC101445REMMET12201/07/25 21:53:01 METAR KCDW 080253Z 33017G28KT 10SM BKN041 M03/M11 A2998 RMK AO2 PK WND 32035/0156 SLP160 T10281111 51007
0241724094547432025010803537+40876-074283FM-15+0053KCDW V0203205N00935012195MN0160935N5-00285-01175101625ADDAA101000095GA1075+012195999GD13991+0121959GE19AGL   +99999+99999GF199999999999012191999999MA1101565100925OC101445REMMET11601/07/25 22:53:02 METAR KCDW 080353Z 32018G28KT 10SM BKN040 M03/M12 A2999 RMK AO2 PK WND 33028/0351 SLP162 T10281117
0296724094547432025010804537+40876-074283FM-15+0053KCDW V0203205N007252200059N0160935N5-00335-01225101635ADDAA101000095GA1045+012805999GD12991+0128059GE19AGL   +99999+99999GF104995999999012801999999KA1240M+00061KA2240N-00781MA1101565100925OC101495REMMET12601/07/25 23:53:02 METAR KCDW 080453Z 32014G29KT 10SM SCT042 M03/M12 A2999 RMK AO2 PK WND 30036/0412 SLP163 T10331122 400061078EQDD01      0ADE726
0886724094547432025010804596+40876-074283SOD  +0053KCDW V020999999999999999999999999999+99999+99999999999ADDAA124000095KA1240M+00065KA2240N-00775MG1100374100814OE11240187830023125OE22240129632023125OE33240068099999995REMSOD73024 HR PRECIPITATION (IN):0.00  24 HR MAX TEMP (F):33 24 HR MAX TEMP TIME (LST):1516 24 HR MIN TEMP (F):18 24 HR MIN TEMP TIME (LST):0045 AVERAGE STATION PRESSURE:29.640 MINIMUM SEA LEVEL PRESSURE:29.77 TIME OF OCCURRENCE:0140 PEAK WIND SPEED (MPH):42  PEAK WIND DIR (DEG):300 PEAK WIND TIME (LST):2312  FASTEST 2MIN SPEED (MPH):29 FASTEST 2MIN DIR (DEG):320 FASTEST 2MIN TIME (LST):2312 AVERAGE WIND SPEED (MPH):15.2 24 HR AVG TEMP (F):26 HEATING DEGREE DAYS:39  COOLING DEGREE DAYS:0   LATEST DAY MAX TEMP (0700-1900 LST):33  LATEST NIGHT MIN TEMP(1900-0800 LST):18 HOURLY INCREMENTAL PRECIPITATION VALUES (IN):.00 0.00 0.00 0.00 0.00 0.00 0.00 0.00 0.00 0.00 0.00 0.00 0.00 0.00 0.00 0.00 0.00 0.00 0.00 0.00 0.00 0.00 0.00 0.00EQDR01     N7GJS072R02     N7GKS075
0324724094547432025010805537+40876-074283FM-15+0053KCDW V0203205N008252200059N0160935N5-00335-01335101625ADDAA101000095GA1045+013725999GD12991+0137259GE19AGL   +99999+99999GF104995999999013721999999KA1060M-00281KA2060N-00331MA1101565100925MD1090039+9999OC101605REMMET14001/08/25 00:53:02 METAR KCDW 080553Z 32016G31KT 10SM SCT045 M03/M13 A2999 RMK AO2 PK WND 30037/0501 SLP162 T10331133 11028 21033 50003 (CDW)EQDD01      0ADE726
0274724094547432025010806537+40876-074283FM-15+0053KCDW V0203305N005152200059N0160935N5-00335-01285101645ADDAA101000095GA1025+014945999GD11991+0149459GE19AGL   +99999+99999GF102995999999014941999999MA1101565100925OC101185OD149901441300REMMET11601/08/25 01:53:02 METAR KCDW 080653Z 33010G23KT 10SM FEW049 M03/M13 A2999 RMK AO2 PK WND 30028/0555 SLP164 T10331128EQDD01      0ADE726
0230724094547432025010807537+40876-074283FM-15+0053KCDW V0203005N00575013415MN0160935N5-00335-01285101645ADDAA101000095GA1085+013415999GD14991+0134159GE19AGL   +99999+99999GF199999999999013411999999MA1101565100925REMMET11301/08/25 02:53:02 METAR KCDW 080753Z 30011KT 10SM OVC044 M03/M13 A2999 RMK AO2 PK WND 30028/0735 SLP164 T10331128
0275724094547432025010808537+40876-074283FM-15+0053KCDW V0203205N00775014635MN0160935N5-00335-01395101625ADDAA101000095GA1075+014635999GD13991+0146359GE19AGL   +99999+99999GF199999999999014631999999MA1101565100925MD1890019+9999OC101245OD149901331310REMMET12201/08/25 03:53:02 METAR KCDW 080853Z 32015G24KT 10SM BKN048 M03/M14 A2999 RMK AO2 PK WND 31026/0812 SLP162 T10331139 58001
0274724094547432025010809537+40876-074283FM-15+0053KCDW V0203205N005752200059N0160935N5-00395-01395101625ADDAA101000095GA1045+015245999GD12991+0152459GE19AGL   +99999+99999GF104995999999015241999999MA1101565100925OC101245OD149901331340REMMET11601/08/25 04:53:02 METAR KCDW 080953Z 32011G24KT 10SM SCT050 M04/M14 A2999 RMK AO2 PK WND 34026/0919 SLP162 T10391139EQDD01      0ADE726
0242724094547432025010810537+40876-074283FM-15+0053KCDW V0203205N005152200059N0160935N5-00445-01395101635ADDAA101000095GA1025+015245999GD11991+0152459GE19AGL   +99999+99999GF102995999999015241999999MA1101565100925OC100935REMMET09801/08/25 05:53:02 METAR KCDW 081053Z 32010G18KT 10SM FEW050 M04/M14 A2999 RMK AO2 SLP163 T10441139EQDD01      0ADE726
0294724094547432025010811537+40876-074283FM-15+0053KCDW V0203105N006252200059N0160935N5-00505-01565101655ADDAA101000095GA1005+999999999GD10991+9999999GF100991999999999999999999KA1060M-00331KA2060N-00501MA1101565100925MD1390029+9999OC101245OD149901491350REMMET13701/08/25 06:53:02 METAR KCDW 081153Z 31012G24KT 10SM CLR M05/M16 A2999 RMK AO2 PK WND 35029/1135 SLP165 T10501156 11033 21050 53002 (CDW)
0204724094547432025010812537+40876-074283FM-15+0053KCDW V0203305N006252200059N0160935N5-00505-01395101655ADDAA101000095GA1005+999999999GD10991+9999999GF100991999999999999999999MA1101595100955OC100825REMMET10101/08/25 07:53:02 METAR KCDW 081253Z 33012G16KT 10SM CLR M05/M14 A3000 RMK AO2 SLP165 T10501139 (CDW)
0229724094547432025010813537+40876-074283FM-15+0053KCDW V0203005N00575012505MN0160935N5-00395-01335101605ADDAA101000095GA1075+012505999GD13991+0125059GE19AGL   +99999+99999GF199999999999012501999999MA1101525100895OC100885REMMET10401/08/25 08:53:02 METAR KCDW 081353Z 30011G17KT 10SM BKN041 M04/M13 A2998 RMK AO2 SLP160 T10391133 (CDW)
0308724094547432025010814537+40876-074283FM-15+0053KCDW V0203005N00625014945MN0160935N5-00285-01335101565ADDAA101000095GA1075+014945999GA2075+016765999GD13991+0149459GD23991+0167659GE19AGL   +99999+99999GF199999999999014941999999MA1101495100855MD1890089+9999OD149901641310REMMET13201/08/25 09:53:02 METAR KCDW 081453Z 30012KT 10SM BKN049 BKN055 M03/M13 A2997 RMK AO2 PK WND 31032/1425 SLP156 T10281133 58008 (CDW)
0247724094547432025010815537+40876-074283FM-15+0053KCDW V0203005N00985015245MN0160935N5-00225-01395101515ADDAA101000095GA1085+015245999GD14991+0152459GE19AGL   +99999+99999GF199999999999015241999999MA1101465100825OC101395REMMET12201/08/25 10:53:02 METAR KCDW 081553Z 30019G27KT 10SM OVC050 M02/M14 A2996 RMK AO2 PK WND 30030/1510 SLP151 T10221139 (CDW)
0247724094547432025010816537+40876-074283FM-15+0053KCDW V0203205N00775016765MN0160935N5-00175-01505101375ADDAA101000095GA1075+016765999GD13991+0167659GE19AGL   +99999+99999GF199999999999016761999999MA1101325100695OC101395REMMET12201/08/25 11:53:02 METAR KCDW 081653Z 32015G27KT 10SM BKN055 M02/M15 A2992 RMK AO2 PK WND 32031/1642 SLP137 T10171150 (CDW)
0324724094547432025010817537+40876-074283FM-15+0053KCDW V0203105N008852200059N0160935N5-00175-01615101285ADDAA101000095GA1045+018295999GD12991+0182959GE19AGL   +99999+99999GF104995999999018291999999KA1060M-00111KA2060N-00501MA1101225100585MD1890289+9999OC101545REMMET14001/08/25 12:53:02 METAR KCDW 081753Z 31017G30KT 10SM SCT060 M02/M16 A2989 RMK AO2 PK WND 30030/1750 SLP128 T10171161 11011 21050 58028 (CDW)EQDD01      0ADE726
0247724094547432025010818537+40876-074283FM-15+0053KCDW V0203005N00575018295MN0160935N5-00175-01505101205ADDAA101000095GA1085+018295999GD14991+0182959GE19AGL   +99999+99999GF199999999999018291999999MA1101155100525OC101185REMMET12201/08/25 13:53:02 METAR KCDW 081853Z 30011G23KT 10SM OVC060 M02/M15 A2987 RMK AO2 PK WND 31029/1755 SLP120 T10171150 (CDW)
0266724094547432025010819537+40876-074283FM-15+0053KCDW V0203105N007252200059N0160935N5-00225-01615101145ADDAA101000095GA1025+018295999GD11991+0182959GE19AGL   +99999+99999GF102995999999018291999999MA1101085100455OC101445REMMET12201/08/25 14:53:02 METAR KCDW 081953Z 31014G28KT 10SM FEW060 M02/M16 A2985 RMK AO2 PK WND 30032/1941 SLP114 T10221161 (CDW)EQDD01      0ADE726
0256724094547432025010820537+40876-074283FM-15+0053KCDW V0203005N009352200059N0160935N5-00285-01565101145ADDAA101000095GA1005+999999999GD10991+9999999GF100991999999999999999999MA1101085100455MD1590139+9999OC101605OD149901691320REMMET12501/08/25 15:53:02 METAR KCDW 082053Z 30018G31KT 10SM CLR M03/M16 A2985 RMK AO2 PK WND 32033/2024 SLP114 T10281156 55013 (CDW)
0236724094547432025010821537+40876-074283FM-15+0053KCDW V0203205N008852200059N0160935N5-00395-01615101195ADDAA101000095GA1005+999999999GD10991+9999999GF100991999999999999999999MA1101125100485OC101445OD149901641300REMMET11901/08/25 16:53:02 METAR KCDW 082153Z 32017G28KT 10SM CLR M04/M16 A2986 RMK AO2 PK WND 30032/2058 SLP119 T10391161 (CDW)
0236724094547432025010822537+40876-074283FM-15+0053KCDW V0203205N009352200059N0160935N5-00505-01675101215ADDAA101000095GA1005+999999999GD10991+9999999GF100991999999999999999999MA1101155100525OC101755OD149901751300REMMET11901/08/25 17:53:02 METAR KCDW 082253Z 32018G34KT 10SM CLR M05/M17 A2987 RMK AO2 PK WND 30034/2251 SLP121 T10501167 (CDW)
0324724094547432025010823537+40876-074283FM-15+0053KCDW V0203105N005752200059N0160935N5-00565-01505101175ADDAA101000095GA1025+014335999GD11991+0143359GE19AGL   +99999+99999GF102995999999014331999999KA1060M-00111KA2060N-00561MA1101085100455MD1090029+9999OC101035REMMET14001/08/25 18:53:02 METAR KCDW 082353Z 31011G20KT 10SM FEW047 M06/M15 A2985 RMK AO2 PK WND 35027/2333 SLP117 T10561150 11011 21056 50002 (CDW)EQDD01      0ADE726
0223724094547432025010900537+40876-074283FM-15+0053KCDW V0203005N00625014635MN0160935N5-00505-01505101175ADDAA101000095GA1075+014635999GD13991+0146359GE19AGL   +99999+99999GF199999999999014631999999MA1101085100455OC101245REMMET09801/08/25 19:53:01 METAR KCDW 090053Z 30012G24KT 10SM BKN048 M05/M15 A2985 RMK AO2 SLP117 T10501150
0241724094547432025010901537+40876-074283FM-15+0053KCDW V0203205N00675014025MN0160935N5-00505-01445101145ADDAA101000095GA1075+014025999GD13991+0140259GE19AGL   +99999+99999GF199999999999014021999999MA1101085100455OC101185REMMET11601/08/25 20:53:01 METAR KCDW 090153Z 32013G23KT 10SM BKN046 M05/M14 A2985 RMK AO2 PK WND 30032/0126 SLP114 T10501144
0280724094547432025010902537+40876-074283FM-15+0053KCDW V0203205N007252200059N0160935N5-00505-01445101085ADDAA101000095GA1045+013725999GD12991+0137259GE19AGL   +99999+99999GF104995999999013721999999MA1101025100385MD1890109+9999OC101185REMMET12201/08/25 21:53:01 METAR KCDW 090253Z 32014G23KT 10SM SCT045 M05/M14 A2983 RMK AO2 PK WND 32027/0221 SLP108 T10501144 58010EQDD01      0ADE726
0260724094547432025010903537+40876-074283FM-15+0053KCDW V0203105N006252200059N0160935N5-00565-01445101045ADDAA101000095GA1025+013415999GD11991+0134159GE19AGL   +99999+99999GF102995999999013411999999MA1100985100355OC101085REMMET11601/08/25 22:53:02 METAR KCDW 090353Z 31012G21KT 10SM FEW044 M06/M14 A2982 RMK AO2 PK WND 31031/0340 SLP104 T10561144EQDD01      0ADE726
0310724094547432025010904537+40876-074283FM-15+0053KCDW V0202905V005752200059N0160935N5-00565-01445100975ADDAA101000095GA1045+013725999GD12991+0137259GE19AGL   +99999+99999GF104995999999013721999999KA1240M-00111KA2240N-00561MA1100915100285OC101035OD149901331280REMMET12601/08/25 23:53:02 METAR KCDW 090453Z 29011G20KT 10SM SCT045 M06/M14 A2980 RMK AO2 PK WND 28026/0415 SLP097 T10561144 410111056EQDD01      0ADE726
0886724094547432025010904596+40876-074283SOD  +0053KCDW V020999999999999999999999999999+99999+99999999999ADDAA124000095KA1240M-00105KA2240N-00555MG1100714100984OE11240187830000015OE22240111831017505OE33240068899999995REMSOD73024 HR PRECIPITATION (IN):0.00  24 HR MAX TEMP (F):30 24 HR MAX TEMP TIME (LST):1345 24 HR MIN TEMP (F):22 24 HR MIN TEMP TIME (LST):2359 AVERAGE STATION PRESSURE:29.740 MINIMUM SEA LEVEL PRESSURE:29.82 TIME OF OCCURRENCE:2359 PEAK WIND SPEED (MPH):42  PEAK WIND DIR (DEG):300 PEAK WIND TIME (LST):0001  FASTEST 2MIN SPEED (MPH):25 FASTEST 2MIN DIR (DEG):310 FASTEST 2MIN TIME (LST):1750 AVERAGE WIND SPEED (MPH):15.4 24 HR AVG TEMP (F):26 HEATING DEGREE DAYS:39  COOLING DEGREE DAYS:0   LATEST DAY MAX TEMP (0700-1900 LST):30  LATEST NIGHT MIN TEMP(1900-0800 LST):23 HOURLY INCREMENTAL PRECIPITATION VALUES (IN):.00 0.00 0.00 0.00 0.00 0.00 0.00 0.00 0.00 0.00 0.00 0.00 0.00 0.00 0.00 0.00 0.00 0.00 0.00 0.00 0.00 0.00 0.00 0.00EQDR01     N7GJS072R02     N7GKS075
0319724094547432025010905537+40876-074283FM-15+0053KCDW V0203105V00465033535MN0160935N5-00565-01395100905ADDAA101000095GA1025+013415999GA2085+033535999GD11991+0134159GD24991+0335359GE19AGL   +99999+99999GF199999999999013411999999KA1060M-00501KA2060N-00561MA1100855100215MD1890169+9999OC101135REMMET12301/09/25 00:53:02 METAR KCDW 090553Z 31009G22KT 10SM FEW044 OVC110 M06/M14 A2978 RMK AO2 SLP090 T10561139 11050 21056 58016
0293724094547432025010906537+40876-074283FM-15+0053KCDW V0203005N00825036585MN0160935N5-00505-01445100895ADDAA101000095GA1025+013415999GA2075+036585999GD11991+0134159GD23991+0365859GE19AGL   +99999+99999GF199999999999013411999999MA1100815100185OC101295OD149901491300REMMET12301/09/25 01:53:02 METAR KCDW 090653Z 30016G25KT 10SM FEW044 BKN120 M05/M14 A2977 RMK AO2 PK WND 30029/0604 SLP089 T10501144
0312724094547432025010907537+40876-074283FM-15+0053KCDW V0203105N006252200059N0160935N5-00505-01445100845ADDAA101000095GA1025+014025999GA2025+030485999GD11991+0140259GD21991+0304859GE19AGL   +99999+99999GF102995999999014021999999MA1100785100155OC101035OD149901491300REMMET12301/09/25 02:53:02 METAR KCDW 090753Z 31012G20KT 10SM FEW046 FEW100 M05/M14 A2976 RMK AO2 PK WND 30029/0727 SLP084 T10501144EQDD01      0ADE726
0294724094547432025010908537+40876-074283FM-15+0053KCDW V0203205N009352200059N0160935N5-00505-01395100825ADDAA101000095GA1025+036585999GD11991+0365859GE19AGL   +99999+99999GF102995999999036581999999MA1100755100115MD1890099+9999OC101445OD149901541300REMMET12201/09/25 03:53:02 METAR KCDW 090853Z 32018G28KT 10SM FEW120 M05/M14 A2975 RMK AO2 PK WND 30030/0833 SLP082 T10501139 58009EQDD01      0ADE726
0274724094547432025010909537+40876-074283FM-15+0053KCDW V0203105V008252200059N0160935N5-00505-01395100795ADDAA101000095GA1025+012505999GD11991+0125059GE19AGL   +99999+99999GF102995999999012501999999MA1100715100085OC101245OD149901441300REMMET11601/09/25 04:53:02 METAR KCDW 090953Z 31016G24KT 10SM FEW041 M05/M14 A2974 RMK AO2 PK WND 30028/0941 SLP079 T10501139EQDD01      0ADE726
0216724094547432025010910537+40876-074283FM-15+0053KCDW V0203205N009352200059N0160935N5-00565-01395100795ADDAA101000095GA1005+999999999GD10991+9999999GF100991999999999999999999MA1100715100085OC101755REMMET11301/09/25 05:53:02 METAR KCDW 091053Z 32018G34KT 10SM CLR M06/M14 A2974 RMK AO2 PK WND 32036/1037 SLP079 T10561139
0294724094547432025010911537+40876-074283FM-15+0053KCDW V0203205N008252200059N0160935N5-00565-01445100845ADDAA101000095GA1005+999999999GD10991+9999999GF100991999999999999999999KA1060M-00501KA2060N-00561MA1100785100155MD1390029+9999OC101395OD149901491290REMMET13701/09/25 06:53:02 METAR KCDW 091153Z 32016G27KT 10SM CLR M06/M14 A2976 RMK AO2 PK WND 29029/1100 SLP084 T10561144 11050 21056 53002 (CDW)
