0154724077547792025010100547+41009-074736FM-15+0178K12N V0200405N002159999999N9999997N5+00785+00335100485ADDAA101000095MA1100415098305REMMET08112/31/24 19:54:03 METAR K12N 010054Z 04004KT 08/03 A2965 RMK AO1 SLP048 T00780033EQDR01      7SKY009R02      7GAS009
0160724077547792025010101547+41009-074736FM-15+0178K12N V0203605N002159999999N9999997N5+00615+00395100385ADDAA101002395MA1100305098205REMMET08712/31/24 20:54:03 METAR K12N 010154Z 36004KT 06/04 A2962 RMK AO1 SLP038 P0008 T00610039EQDR01      7SKY009R02      7GAS009
0213724077547792025010102547+41009-074736FM-15+0178K12N V0200205N003159999999N9999997N5+00615+00505100115ADDAA101004195AA203005891MA1100075097975MD1890529+9999REMMET09912/31/24 21:54:03 METAR K12N 010254Z 02006KT 06/05 A2955 RMK AO1 SLP011 P0015 60023 T00610050 58052EQDQ01  00588PRCP03R01      7SKY009R02      7GAS009
0160724077547792025010103547+41009-074736FM-15+0178K12N V0200305N002659999999N9999997N5+00675+00505099915ADDAA101001395MA1099865097775REMMET08712/31/24 22:54:03 METAR K12N 010354Z 03005KT 07/05 A2949 RMK AO1 SLP991 P0007 T00670050EQDR01      7SKY009R02      7GAS009
0196724077547792025010104547+41009-074736FM-15+0178K12N V0209999V002159999999N9999997N5+00615+00505099885ADDAA101000895KA1240M+01221KA2240N-00281MA1099865097775REMMET09712/31/24 23:54:03 METAR K12N 010454Z VRB04KT 06/05 A2949 RMK AO1 SLP988 P0002 T00610050 401221028EQDR01      7SKY009R02      7GAS009
0902724077547792025010104596+41009-074736SOD  +0178K12N V020999999999999999999999999999+99999+99999999999ADDAA124008496KA1240M+01225KA2240N-00275MG1098834099864OE11240076015014495OE22240044703021425OE33240011299999995REMSOD73024 HR PRECIPITATION (IN):0.33  24 HR MAX TEMP (F):54 24 HR MAX TEMP TIME (LST):1428 24 HR MIN TEMP (F):27 24 HR MIN TEMP TIME (LST):0809 AVERAGE STATION PRESSURE:29.185 MINIMUM SEA LEVEL PRESSURE:29.49 TIME OF OCCURRENCE:2359 PEAK WIND SPEED (MPH):17  PEAK WIND DIR (DEG):150 PEAK WIND TIME (LST):1449  FASTEST 2MIN SPEED (MPH):10 FASTEST 2MIN DIR (DEG):30  FASTEST 2MIN TIME (LST):2142 AVERAGE WIND SPEED (MPH):2.5  24 HR AVG TEMP (F):41 HEATING DEGREE DAYS:24  COOLING DEGREE DAYS:0   LATEST DAY MAX TEMP (0700-1900 LST):54  LATEST NIGHT MIN TEMP(1900-0800 LST):27 HOURLY INCREMENTAL PRECIPITATION VALUES (IN):.00 0.00 0.00 0.00 0.00 0.00 0.00 0.00 0.00 0.00 0.00 0.00 0.00 0.00 0.00 0.00 0.00 0.00 0.00 0.00 0.09 0.16 0.05 0.03EQDR01  0.337AAP092R02     N7GJS072R03     N7GKS075
1324724077547792025010104596+41009-074736SOM  +0178K12N V020999999999999999999999999999+99999+99999999999ADDAB10121496AD10050891011999999996AE1166126015015AH1005004191114025AH2010005391114025AH3015005891114095AH4020006491117215AH5030008191117265AH6045010291117235AI1060013091117235AI2080016591117235AI3100018391117375AI4120019691117485AI5150020891118185AI6180021691118455KB1744N-05175KB2744M+04675KB3744A-00225KC1N9-01882399995KC2M9+01611199995KD1744H10296KD2744C00005KE1055005276015MH1099984102244MK1104981409535099531117015REMSOM796PCP MTOT:4.78 PCP GT 24HRS:2.00 DATE(S):10-11 DAYS W/PCP >=.01:16 DAYS W/PCP >=.10:12 DAYS W/ PCP >=.50:1 DAYS W/PCP >=1.00:1 MSDP AMTS W/DATE-TIME TAGS:MIN:5 0.16  11/1402 MIN:10 0.21  11/1402 MIN:15 0.23  11/1409 MIN:20 0.25  11/1721 MIN:30 0.32  11/1726 MIN:45 0.40  11/1723 MIN:60 0.51  11/1723 MIN:80 0.65  11/1723 MIN:100 0.72  11/1737 MIN:120 0.77  11/1748 MIN:150 0.82  11/1818 MIN:180 0.85  11/1845 AVG DLY MIN:22.7  AVG DLY MAX:40.4  AVG MLY TMP:31.6  MIN TMP:-2 DATE(S):23 MAX TMP:61  DATE(S):11 DAYS MAX <=32:5 DAYS MAX >=90:0  DAYS MIN <=32:27 DAYS MIN  <=0:1  AVG STP:29.525 LWST SLP:29.39 DATE/TIME:111701 HGST SLP:31.00 DATE/TIME:140953 HDD MTH TOT:1029 DEP NORM:-2553 SEASON(JUL 1-JUN 30):1977 DEP NORM:-25536 CDD MTH TOT:0 DEP NORM:-2553 SEASON(JAN 1-DEC 31):802 DEP NORM:-25536EQDR01  4.787ABP070R02  2.007ADP081R03    167AE1100R04    1 7AE2103R05  10297KDH045R06    277KE3038
0251724077547792025010105547+41009-074736FM-15+0178K12N V0203605N001559999999N9999997N5+00565+00445099835ADDAA101000595AA206008991KA1060M+00831KA2060N+00561MA1099805097705MD1690259+9999REMMET11101/01/25 00:54:02 METAR K12N 010554Z 36003KT 06/04 A2947 RMK AO1 SLP983 P0003 60035 T00560044 10083 20056 56025EQDQ01  00888PRCP06R01      7SKY009R02      7GAS009
0160724077547792025010106547+41009-074736FM-15+0178K12N V0200205N002159999999N9999997N5+00505+00395099855ADDAA101000395MA1099835097735REMMET08701/01/25 01:54:02 METAR K12N 010654Z 02004KT 05/04 A2948 RMK AO1 SLP985 P0001 T00500039EQDR01      7SKY009R02      7GAS009
0154724077547792025010107547+41009-074736FM-15+0178K12N V0209999C000059999999N9999997N5+00505+00445099855ADDAA101000095MA1099835097735REMMET08101/01/25 02:54:02 METAR K12N 010754Z 00000KT 05/04 A2948 RMK AO1 SLP985 T00500044EQDR01      7SKY009R02      7GAS009
0191724077547792025010108547+41009-074736FM-15+0178K12N V0209999C000059999999N9999997N5+00505+00445099895ADDAA101000095AA203000391MA1099865097775MD1390069+9999REMMET09301/01/25 03:54:02 METAR K12N 010854Z 00000KT 05/04 A2949 RMK AO1 SLP989 60001 T00500044 53006EQDR01      7SKY009R02      7GAS009
0154724077547792025010109547+41009-074736FM-15+0178K12N V0209999C000059999999N9999997N5+00505+00395099915ADDAA101000095MA1099865097775REMMET08101/01/25 04:54:02 METAR K12N 010954Z 00000KT 05/04 A2949 RMK AO1 SLP991 T00500039EQDR01      7SKY009R02      7GAS009
0154724077547792025010110547+41009-074736FM-15+0178K12N V0209999C000059999999N9999997N5+00505+00445099945ADDAA101000095MA1099905097805REMMET08101/01/25 05:54:02 METAR K12N 011054Z 00000KT 05/04 A2950 RMK AO1 SLP994 T00500044EQDR01      7SKY009R02      7GAS009
0262724077547792025010111547+41009-074736FM-15+0178K12N V0201905N001559999999N9999997N5+00505+00445099945ADDAA101000095AA206000391AA324009191KA1060M+00561KA2060N+00441MA1099905097805MD1190049+9999REMMET11101/01/25 06:54:02 METAR K12N 011154Z 19003KT 05/04 A2950 RMK AO1 SLP994 60001 70036 T00500044 10056 20044 51004EQDQ01  00918PRCP24R01      7SKY009R02      7GAS009
0154724077547792025010112547+41009-074736FM-15+0178K12N V0209999C000059999999N9999997N5+00565+00505099935ADDAA101000095MA1099905097805REMMET08101/01/25 07:54:02 METAR K12N 011254Z 00000KT 06/05 A2950 RMK AO1 SLP993 T00560050EQDR01      7SKY009R02      7GAS009
0154724077547792025010114547+41009-074736FM-15+0178K12N V0209999V001559999999N9999997N5+00725+00565100015ADDAA101000095MA1099975097875REMMET08101/01/25 09:54:02 METAR K12N 011454Z VRB03KT 07/06 A2952 RMK AO1 SLP001 T00720056EQDR01      7SKY009R02      7GAS009
0165724077547792025010115547+41009-074736FM-15+0178K12N V0202205V003659999999N9999997N5+00725+00445100045ADDAA101000095MA1100005097905OC100825REMMET08401/01/25 10:54:02 METAR K12N 011554Z 22007G16KT 07/04 A2953 RMK AO1 SLP004 T00720044EQDR01      7SKY009R02      7GAS009
0154724077547792025010116547+41009-074736FM-15+0178K12N V0202405V004159999999N9999997N5+00675+00285100075ADDAA101000095MA1100035097935REMMET08101/01/25 11:54:02 METAR K12N 011654Z 24008KT 07/03 A2954 RMK AO1 SLP007 T00670028EQDR01      7SKY009R02      7GAS009
0190724077547792025010117546+41009-074736FM-15+0178K12N V0201905N002159999999N9999997N5+00565+00225100105ADDAA101000095MA1100075097975MD1190089+9999REMMET10301/01/25 12:54:02 METAR K12N 011754Z 19004KT 06/02 A2955 RMK AO1 SLP010 T00560022 10083 20044 51008 RTXEQDR01      7SKY009R02      7GAS009
0158724077547792025010118546+41009-074736FM-15+0178K12N V0209999V002659999999N9999997N5+00565+00115100195ADDAA101000095MA1100145098035REMMET08501/01/25 13:54:02 METAR K12N 011854Z VRB05KT 06/01 A2957 RMK AO1 SLP019 T00560011 RTXEQDR01      7SKY009R02      7GAS009
0158724077547792025010119546+41009-074736FM-15+0178K12N V02099999999999999999N9999997N5+00505+00115100335ADDAA101000395MA1100275098175REMMET08501/01/25 14:54:02 METAR K12N 011954Z      KT 05/01 A2961 RMK AO1 SLP033 T00500011 RTXEQDR01      7SKY009R02      7GAS009
0212724077547792025010120546+41009-074736FM-15+0178K12N V0209999V001559999999N9999997N5+00445+00065100455ADDAA101000095AA203000391MA1100415098305MD1390349+9999OC100775REMMET10601/01/25 15:54:02 METAR K12N 012054Z VRB03G15KT 04/01 A2965 RMK AO1 SLP045 P0001 60001 T00440006 53034 RTXEQDR01      7SKY009R02      7GAS009
0170724077547792025010121546+41009-074736FM-15+0178K12N V0202905V004159999999N9999997N5+00445-00115100525ADDAA101000095MA1100475098375OC101035REMMET08901/01/25 16:54:02 METAR K12N 012154Z 29008G20KT 04/M01 A2967 RMK AO1 SLP052 T00441011 RTXEQDR01      7SKY009R02      7GAS009
0159724077547792025010122546+41009-074736FM-15+0178K12N V02099999999999999999N9999997N5+00395-00175100565ADDAA101000095MA1100515098405REMMET08601/01/25 17:54:02 METAR K12N 012254Z      KT 04/M02 A2968 RMK AO1 SLP056 T00391017 RTXEQDR01      7SKY009R02      7GAS009
0208724077547792025010123546+41009-074736FM-15+0178K12N V0209999V002659999999N9999997N5+00395-00225100655ADDAA101000095AA206000391MA1100585098475MD1390199+9999REMMET11001/01/25 18:54:02 METAR K12N 012354Z VRB05KT 04/M02 A2970 RMK AO1 SLP065 60001 T00391022 10056 20039 53019 RTXEQDR01      7SKY009R02      7GAS009
0166724077547792025010200547+41009-074736FM-15+0178K12N V0203005V004159999999N9999997N5+00395-00445100775ADDAA101000095MA1100715098605OC101135REMMET08501/01/25 19:54:01 METAR K12N 020054Z 30008G22KT 04/M04 A2974 RMK AO1 SLP077 T00391044EQDR01      7SKY009R02      7GAS009
0154724077547792025010201547+41009-074736FM-15+0178K12N V0209999V003159999999N9999997N5+00335-00505999999ADDAA101000095MA1100755098635REMMET08101/01/25 20:54:01 METAR K12N 020154Z VRB06KT 03/M05 A2975 RMK AO1 SLPNO T00331050EQDR01      7SKY009R02      7GAS009
0175724077547792025010202547+41009-074736FM-15+0178K12N V0209999N999999999999N9999997N5+00285-00445100835ADDAA101000095MA1100785098675MD1190199+9999REMMET08801/01/25 21:54:01 METAR K12N 020254Z      KT 03/M04 A2976 RMK AO1 SLP083 T00281044 51019EQDR01      7SKY009R02      7GAS009
0155724077547792025010203547+41009-074736FM-15+0178K12N V0209999N999999999999N9999997N5+00225-00395100865ADDAA101000095MA1100815098705REMMET08201/01/25 22:54:02 METAR K12N 020354Z      KT 02/M04 A2977 RMK AO1 SLP086 T00221039EQDR01      7SKY009R02      7GAS009
0191724077547792025010204547+41009-074736FM-15+0178K12N V0202605N002659999999N9999997N5+00225-00445100905ADDAA101000095KA1240M+00831KA2240N+00221MA1100855098735REMMET09201/01/25 23:54:02 METAR K12N 020454Z 26005KT 02/M04 A2978 RMK AO1 SLP090 T00221044 400830022EQDR01      7SKY009R02      7GAS009
0902724077547792025010204596+41009-074736SOD  +0178K12N V020999999999999999999999999999+99999+99999999999ADDAA124001096KA1240M+00835KA2240N+00225MG1097974099804OE11240129624016175OE22240062628020305OE33240018399999995REMSOD73024 HR PRECIPITATION (IN):0.04  24 HR MAX TEMP (F):47 24 HR MAX TEMP TIME (LST):1015 24 HR MIN TEMP (F):36 24 HR MIN TEMP TIME (LST):2359 AVERAGE STATION PRESSURE:28.930 MINIMUM SEA LEVEL PRESSURE:29.47 TIME OF OCCURRENCE:0030 PEAK WIND SPEED (MPH):29  PEAK WIND DIR (DEG):240 PEAK WIND TIME (LST):1617  FASTEST 2MIN SPEED (MPH):14 FASTEST 2MIN DIR (DEG):280 FASTEST 2MIN TIME (LST):2030 AVERAGE WIND SPEED (MPH):4.1  24 HR AVG TEMP (F):42 HEATING DEGREE DAYS:23  COOLING DEGREE DAYS:0   LATEST DAY MAX TEMP (0700-1900 LST):47  LATEST NIGHT MIN TEMP(1900-0800 LST):40 HOURLY INCREMENTAL PRECIPITATION VALUES (IN):.02 0.01 0.00 0.00 0.00 0.00 0.00 0.00 0.00 0.00 0.00 0.00 0.00 0.00 0.01 0.00 0.00 0.00 0.00 0.00 0.00 0.00 0.00 0.00EQDR01  0.047AAP092R02     N7GJS072R03     N7GKS075
0213724077547792025010205547+41009-074736FM-15+0178K12N V0209999V002159999999N9999997N5+00225-00445100935ADDAA101000095KA1060M+00441KA2060N+00221MA1100885098775MD1290089+9999REMMET10001/02/25 00:54:02 METAR K12N 020554Z VRB04KT 02/M04 A2979 RMK AO1 SLP093 T00221044 10044 20022 52008EQDR01      7SKY009R02      7GAS009
0155724077547792025010206547+41009-074736FM-15+0178K12N V0209999V002159999999N9999997N5+00225-00335100985ADDAA101000095MA1100915098805REMMET08201/02/25 01:54:02 METAR K12N 020654Z VRB04KT 02/M03 A2980 RMK AO1 SLP098 T00221033EQDR01      7SKY009R02      7GAS009
0155724077547792025010207547+41009-074736FM-15+0178K12N V0209999N999999999999N9999997N5+00225-00285101055ADDAA101000095MA1100985098875REMMET08201/02/25 02:54:02 METAR K12N 020754Z      KT 02/M03 A2982 RMK AO1 SLP105 T00221028EQDR01      7SKY009R02      7GAS009
0175724077547792025010208547+41009-074736FM-15+0178K12N V0202205N003659999999N9999997N5+00175-00335101085ADDAA101000095MA1101025098905MD1190139+9999REMMET08801/02/25 03:54:02 METAR K12N 020854Z 22007KT 02/M03 A2983 RMK AO1 SLP108 T00171033 51013EQDR01      7SKY009R02      7GAS009
0159724077547792025010209546+41009-074736FM-15+0178K12N V0202405N002659999999N9999997N5+00175-00505101115ADDAA101000095MA1101025098905REMMET08601/02/25 04:54:02 METAR K12N 020954Z 24005KT 02/M05 A2983 RMK AO1 SLP111 T00171050 RTXEQDR01      7SKY009R02      7GAS009
0159724077547792025010210546+41009-074736FM-15+0178K12N V0209999V002659999999N9999997N5+00115-00565101195ADDAA101000095MA1101125099005REMMET08601/02/25 05:54:02 METAR K12N 021054Z VRB05KT 01/M06 A2986 RMK AO1 SLP119 T00111056 RTXEQDR01      7SKY009R02      7GAS009
0230724077547792025010211547+41009-074736FM-15+0178K12N V0209999V002659999999N9999997N5+00065-00615101225ADDAA101000095AA224000391KA1060M+00221KA2060N+00061MA1101155099035MD1190139+9999REMMET10601/02/25 06:54:02 METAR K12N 021154Z VRB05KT 01/M06 A2987 RMK AO1 SLP122 70001 T00061061 10022 20006 51013EQDR01      7SKY009R02      7GAS009
0155724077547792025010212547+41009-074736FM-15+0178K12N V0202305N003659999999N9999997N5+00065-00615101305ADDAA101000095MA1101225099105REMMET08201/02/25 07:54:02 METAR K12N 021254Z 23007KT 01/M06 A2989 RMK AO1 SLP130 T00061061EQDR01      7SKY009R02      7GAS009
0166724077547792025010213547+41009-074736FM-15+0178K12N V0209999V001559999999N9999997N5+00175-00565101365ADDAA101000095MA1101295099175OC100775REMMET08501/02/25 08:54:02 METAR K12N 021354Z VRB03G15KT 02/M06 A2991 RMK AO1 SLP136 T00171056EQDR01      7SKY009R02      7GAS009
0175724077547792025010214547+41009-074736FM-15+0178K12N V0209999V003159999999N9999997N5+00225-00565101445ADDAA101000095MA1101355099235MD1390239+9999REMMET08801/02/25 09:54:02 METAR K12N 021454Z VRB06KT 02/M06 A2993 RMK AO1 SLP144 T00221056 53023EQDR01      7SKY009R02      7GAS009
0166724077547792025010215547+41009-074736FM-15+0178K12N V0202705V004659999999N9999997N5+00335-00565101435ADDAA101000095MA1101355099235OC101135REMMET08501/02/25 10:54:02 METAR K12N 021554Z 27009G22KT 03/M06 A2993 RMK AO1 SLP143 T00331056EQDR01      7SKY009R02      7GAS009
0184724077547792025010216547+41009-074736FM-15+0178K12N V0202905V005159999999N9999997N5+00395-00675101355ADDAA101000095MA1101295099175OC101035REMMET10301/02/25 11:54:02 METAR K12N 021654Z 29010G20KT 04/M07 A2991 RMK AO1 PK WND 29027/1637 SLP135 T00391067EQDR01      7SKY009R02      7GAS009
0200724077547792025010217547+41009-074736FM-15+0178K12N V0209999N999999999999N9999997N5+00395-00785101365ADDAA101000095KA1060M+00391MA1101295099175MD1590089+9999REMMET10001/02/25 12:54:02 METAR K12N 021754Z      KT 04/M08 A2991 RMK AO1 SLP136 T00391078 10039 20006 55008EQDR01      7SKY009R02      7GAS009
0155724077547792025010218547+41009-074736FM-15+0178K12N V0209999V003159999999N9999997N5+00335-00725101365ADDAA101000095MA1101295099175REMMET08201/02/25 13:54:02 METAR K12N 021854Z VRB06KT 03/M07 A2991 RMK AO1 SLP136 T00331072EQDR01      7SKY009R02      7GAS009
0155724077547792025010219547+41009-074736FM-15+0178K12N V0209999N999999999999N9999997N5+00225-00725101405ADDAA101000095MA1101325099205REMMET08201/02/25 14:54:02 METAR K12N 021954Z      KT 02/M07 A2992 RMK AO1 SLP140 T00221072EQDR01      7SKY009R02      7GAS009
0175724077547792025010220547+41009-074736FM-15+0178K12N V0209999V002159999999N9999997N5+00175-00725101475ADDAA101000095MA1101395099275MD1390099+9999REMMET08801/02/25 15:54:02 METAR K12N 022054Z VRB04KT 02/M07 A2994 RMK AO1 SLP147 T00171072 53009EQDR01      7SKY009R02      7GAS009
0155724077547792025010221547+41009-074736FM-15+0178K12N V0209999V002659999999N9999997N5+00115-00785101515ADDAA101000095MA1101425099305REMMET08201/02/25 16:54:02 METAR K12N 022154Z VRB05KT 01/M08 A2995 RMK AO1 SLP151 T00111078EQDR01      7SKY009R02      7GAS009
0155724077547792025010222547+41009-074736FM-15+0178K12N V0202305N004159999999N9999997N5+00115-00785101525ADDAA101000095MA1101425099305REMMET08201/02/25 17:54:02 METAR K12N 022254Z 23008KT 01/M08 A2995 RMK AO1 SLP152 T00111078EQDR01      7SKY009R02      7GAS009
0213724077547792025010223547+41009-074736FM-15+0178K12N V0209999V002659999999N9999997N5+00065-00785101575ADDAA101000095KA1060M+00391KA2060N+00061MA1101495099375MD1390099+9999REMMET10001/02/25 18:54:02 METAR K12N 022354Z VRB05KT 01/M08 A2997 RMK AO1 SLP157 T00061078 10039 20006 53009EQDR01      7SKY009R02      7GAS009
0159724077547792025010300546+41009-074736FM-15+0178K12N V0209999V003159999999N9999997N5+00005-00835101595ADDAA101000095MA1101495099375REMMET08601/02/25 19:54:03 METAR K12N 030054Z VRB06KT 00/M08 A2997 RMK AO1 SLP159 T00001083 RTXEQDR01      7SKY009R02      7GAS009
0159724077547792025010301546+41009-074736FM-15+0178K12N V0209999V002159999999N9999997N5+00005-00835101555ADDAA101000095MA1101465099335REMMET08601/02/25 20:54:03 METAR K12N 030154Z VRB04KT 00/M08 A2996 RMK AO1 SLP155 T00001083 RTXEQDR01      7SKY009R02      7GAS009
0175724077547792025010302547+41009-074736FM-15+0178K12N V0209999V002159999999N9999997N5+00005-00835101555ADDAA101000095MA1101465099335MD1890029+9999REMMET08801/02/25 21:54:01 METAR K12N 030254Z VRB04KT 00/M08 A2996 RMK AO1 SLP155 T00001083 58002EQDR01      7SKY009R02      7GAS009
0156724077547792025010303547+41009-074736FM-15+0178K12N V0209999V003159999999N9999997N5-00065-00785101545ADDAA101000095MA1101465099335REMMET08301/02/25 22:54:02 METAR K12N 030354Z VRB06KT M01/M08 A2996 RMK AO1 SLP154 T10061078EQDR01      7SKY009R02      7GAS009
0192724077547792025010304547+41009-074736FM-15+0178K12N V0209999N999999999999N9999997N5-00115-00725101575ADDAA101000095KA1240M+00391KA2240N-00111MA1101495099375REMMET09301/02/25 23:54:02 METAR K12N 030454Z      KT M01/M07 A2997 RMK AO1 SLP157 T10111072 400391011EQDR01      7SKY009R02      7GAS009
0886724077547792025010304596+41009-074736SOD  +0178K12N V020999999999999999999999999999+99999+99999999999ADDAA124000095KA1240M+00395KA2240N-00105MG1099074100914OE11240134129011375OE22240076030011345OE33240029199999995REMSOD73024 HR PRECIPITATION (IN):0.00  24 HR MAX TEMP (F):39 24 HR MAX TEMP TIME (LST):1303 24 HR MIN TEMP (F):30 24 HR MIN TEMP TIME (LST):2359 AVERAGE STATION PRESSURE:29.255 MINIMUM SEA LEVEL PRESSURE:29.80 TIME OF OCCURRENCE:0102 PEAK WIND SPEED (MPH):30  PEAK WIND DIR (DEG):290 PEAK WIND TIME (LST):1137  FASTEST 2MIN SPEED (MPH):17 FASTEST 2MIN DIR (DEG):300 FASTEST 2MIN TIME (LST):1134 AVERAGE WIND SPEED (MPH):6.5  24 HR AVG TEMP (F):35 HEATING DEGREE DAYS:30  COOLING DEGREE DAYS:0   LATEST DAY MAX TEMP (0700-1900 LST):39  LATEST NIGHT MIN TEMP(1900-0800 LST):33 HOURLY INCREMENTAL PRECIPITATION VALUES (IN):.00 0.00 0.00 0.00 0.00 0.00 0.00 0.00 0.00 0.00 0.00 0.00 0.00 0.00 0.00 0.00 0.00 0.00 0.00 0.00 0.00 0.00 0.00 0.00EQDR01     N7GJS072R02     N7GKS075
0214724077547792025010305547+41009-074736FM-15+0178K12N V0209999V001559999999N9999997N5-00115-00725101535ADDAA101000095KA1060M+00061KA2060N-00111MA1101465099335MD1890019+9999REMMET10101/03/25 00:54:02 METAR K12N 030554Z VRB03KT M01/M07 A2996 RMK AO1 SLP153 T10111072 10006 21011 58001EQDR01      7SKY009R02      7GAS009
0156724077547792025010306547+41009-074736FM-15+0178K12N V0209999V003159999999N9999997N5-00065-00835101545ADDAA101000095MA1101465099335REMMET08301/03/25 01:54:02 METAR K12N 030654Z VRB06KT M01/M08 A2996 RMK AO1 SLP154 T10061083EQDR01      7SKY009R02      7GAS009
0167724077547792025010307547+41009-074736FM-15+0178K12N V0202905V004159999999N9999997N5-00065-01005101555ADDAA101000095MA1101465099335OC100985REMMET08601/03/25 02:54:02 METAR K12N 030754Z 29008G19KT M01/M10 A2996 RMK AO1 SLP155 T10061100EQDR01      7SKY009R02      7GAS009
0176724077547792025010308547+41009-074736FM-15+0178K12N V0209999V001559999999N9999997N5-00065-00945101555ADDAA101000095MA1101465099335MD1190019+9999REMMET08901/03/25 03:54:02 METAR K12N 030854Z VRB03KT M01/M09 A2996 RMK AO1 SLP155 T10061094 51001EQDR01      7SKY009R02      7GAS009
0156724077547792025010309547+41009-074736FM-15+0178K12N V0209999V002659999999N9999997N5-00065-00785101535ADDAA101000095MA1101425099305REMMET08301/03/25 04:54:02 METAR K12N 030954Z VRB05KT M01/M08 A2995 RMK AO1 SLP153 T10061078EQDR01      7SKY009R02      7GAS009
0156724077547792025010310547+41009-074736FM-15+0178K12N V0202505N002659999999N9999997N5-00115-00725101515ADDAA101000095MA1101395099275REMMET08301/03/25 05:54:02 METAR K12N 031054Z 25005KT M01/M07 A2994 RMK AO1 SLP151 T10111072EQDR01      7SKY009R02      7GAS009
0214724077547792025010311547+41009-074736FM-15+0178K12N V0202305N003659999999N9999997N5-00115-00785101485ADDAA101000095KA1060M-00061KA2060N-00111MA1101355099235MD1890089+9999REMMET10101/03/25 06:54:02 METAR K12N 031154Z 23007KT M01/M08 A2993 RMK AO1 SLP148 T10111078 11006 21011 58008EQDR01      7SKY009R02      7GAS009
0156724077547792025010312547+41009-074736FM-15+0178K12N V0202105N003159999999N9999997N5-00115-00835101425ADDAA101000095MA1101325099205REMMET08301/03/25 07:54:02 METAR K12N 031254Z 21006KT M01/M08 A2992 RMK AO1 SLP142 T10111083EQDR01      7SKY009R02      7GAS009
0156724077547792025010313547+41009-074736FM-15+0178K12N V0209999V003159999999N9999997N5-00065-00835101425ADDAA101000095MA1101325099205REMMET08301/03/25 08:54:02 METAR K12N 031354Z VRB06KT M01/M08 A2992 RMK AO1 SLP142 T10061083EQDR01      7SKY009R02      7GAS009
0175724077547792025010314547+41009-074736FM-15+0178K12N V0202505V004659999999N9999997N5+00065-00835101385ADDAA101000095MA1101295099175MD1690099+9999REMMET08801/03/25 09:54:02 METAR K12N 031454Z 25009KT 01/M08 A2991 RMK AO1 SLP138 T00061083 56009EQDR01      7SKY009R02      7GAS009
0166724077547792025010315547+41009-074736FM-15+0178K12N V0209999V001559999999N9999997N5+00065-00835101305ADDAA101000095MA1101195099075OC100885REMMET08501/03/25 10:54:02 METAR K12N 031554Z VRB03G17KT 01/M08 A2988 RMK AO1 SLP130 T00061083EQDR01      7SKY009R02      7GAS009
0155724077547792025010316547+41009-074736FM-15+0178K12N V0202505V003659999999N9999997N5+00115-00835101135ADDAA101000095MA1101025098905REMMET08201/03/25 11:54:02 METAR K12N 031654Z 25007KT 01/M08 A2983 RMK AO1 SLP113 T00111083EQDR01      7SKY009R02      7GAS009
0213724077547792025010317547+41009-074736FM-15+0178K12N V0209999V003159999999N9999997N5+00175-00835100995ADDAA101000095KA1060M+00221KA2060N-00111MA1100885098775MD1890389+9999REMMET10001/03/25 12:54:02 METAR K12N 031754Z VRB06KT 02/M08 A2979 RMK AO1 SLP099 T00171083 10022 21011 58038EQDR01      7SKY009R02      7GAS009
0159724077547792025010318546+41009-074736FM-15+0178K12N V0202405N003159999999N9999997N5+00175-00835100935ADDAA101000095MA1100855098735REMMET08601/03/25 13:54:02 METAR K12N 031854Z 24006KT 02/M08 A2978 RMK AO1 SLP093 T00171083 RTXEQDR01      7SKY009R02      7GAS009
0155724077547792025010319547+41009-074736FM-15+0178K12N V0209999V002159999999N9999997N5+00175-00895100935ADDAA101000095MA1100855098735REMMET08201/03/25 14:54:02 METAR K12N 031954Z VRB04KT 02/M09 A2978 RMK AO1 SLP093 T00171089EQDR01      7SKY009R02      7GAS009
0155724077547792025010320547+41009-074736FM-15+0178K12N V0209999N999999999999N9999997N5+00065-00895100975ADDAA101000095MA1100855098735REMMET08201/03/25 15:54:02 METAR K12N 032054Z      KT 01/M09 A2978 RMK AO1 SLP097 T00061089EQDR01      7SKY009R02      7GAS009
0155724077547792025010321547+41009-074736FM-15+0178K12N V0209999C000059999999N9999997N5+00005-00835100985ADDAA101000095MA1100885098775REMMET08201/03/25 16:54:02 METAR K12N 032154Z 00000KT 00/M08 A2979 RMK AO1 SLP098 T00001083EQDR01      7SKY009R02      7GAS009
0160724077547792025010322546+41009-074736FM-15+0178K12N V0209999C000059999999N9999997N5-00065-00835101005ADDAA101000095MA1100915098805REMMET08701/03/25 17:54:02 METAR K12N 032254Z 00000KT M01/M08 A2980 RMK AO1 SLP100 T10061083 RTXEQDR01      7SKY009R02      7GAS009
0192724077547792025010323546+41009-074736FM-15+0178K12N V0209999C000059999999N9999997N5-00225-00895100965ADDAA101000095MA1100855098735MD1890029+9999REMMET10501/03/25 18:54:02 METAR K12N 032354Z 00000KT M02/M09 A2978 RMK AO1 SLP096 T10221089 10022 21022 58002 RTXEQDR01      7SKY009R02      7GAS009
0160724077547792025010400546+41009-074736FM-15+0178K12N V0209999C000059999999N9999997N5-00335-00785100965ADDAA101000095MA1100855098735REMMET08701/03/25 19:54:03 METAR K12N 040054Z 00000KT M03/M08 A2978 RMK AO1 SLP096 T10331078 RTXEQDR01      7SKY009R02      7GAS009
0160724077547792025010401546+41009-074736FM-15+0178K12N V0201805N001559999999N9999997N5-00335-00785100935ADDAA101000095MA1100815098705REMMET08701/03/25 20:54:03 METAR K12N 040154Z 18003KT M03/M08 A2977 RMK AO1 SLP093 T10331078 RTXEQDR01      7SKY009R02      7GAS009
0180724077547792025010402546+41009-074736FM-15+0178K12N V0209999C000059999999N9999997N5-00285-00785100925ADDAA101000095MA1100815098705MD1590029+9999REMMET09301/03/25 21:54:03 METAR K12N 040254Z 00000KT M03/M08 A2977 RMK AO1 SLP092 T10281078 55002 RTXEQDR01      7SKY009R02      7GAS009
0160724077547792025010403546+41009-074736FM-15+0178K12N V02099999999999999999N9999997N5-00285-00895100915ADDAA101000095MA1100815098705REMMET08701/03/25 22:54:03 METAR K12N 040354Z      KT M03/M09 A2977 RMK AO1 SLP091 T10281089 RTXEQDR01      7SKY009R02      7GAS009
0192724077547792025010404547+41009-074736FM-15+0178K12N V0209999V003159999999N9999997N5-00285-01005100895ADDAA101000095KA1240M+00221KA2240N-00391MA1100785098675REMMET09301/03/25 23:54:02 METAR K12N 040454Z VRB06KT M03/M10 A2976 RMK AO1 SLP089 T10281100 400221039EQDR01      7SKY009R02      7GAS009
0886724077547792025010404596+41009-074736SOD  +0178K12N V020999999999999999999999999999+99999+99999999999ADDAA124000095KA1240M+00225KA2240N-00385MG1099004100884OE11240107334002375OE22240058123011165OE33240021999999995REMSOD73024 HR PRECIPITATION (IN):0.00  24 HR MAX TEMP (F):36 24 HR MAX TEMP TIME (LST):1323 24 HR MIN TEMP (F):25 24 HR MIN TEMP TIME (LST):2045 AVERAGE STATION PRESSURE:29.235 MINIMUM SEA LEVEL PRESSURE:29.79 TIME OF OCCURRENCE:2359 PEAK WIND SPEED (MPH):24  PEAK WIND DIR (DEG):340 PEAK WIND TIME (LST):0237  FASTEST 2MIN SPEED (MPH):13 FASTEST 2MIN DIR (DEG):230 FASTEST 2MIN TIME (LST):1116 AVERAGE WIND SPEED (MPH):4.9  24 HR AVG TEMP (F):31 HEATING DEGREE DAYS:34  COOLING DEGREE DAYS:0   LATEST DAY MAX TEMP (0700-1900 LST):36  LATEST NIGHT MIN TEMP(1900-0800 LST):30 HOURLY INCREMENTAL PRECIPITATION VALUES (IN):.00 0.00 0.00 0.00 0.00 0.00 0.00 0.00 0.00 0.00 0.00 0.00 0.00 0.00 0.00 0.00 0.00 0.00 0.00 0.00 0.00 0.00 0.00 0.00EQDR01     N7GJS072R02     N7GKS075
0192724077547792025010405546+41009-074736FM-15+0178K12N V0209999V002159999999N9999997N5-00225-01005100855ADDAA101000095MA1100755098635MD1890079+9999REMMET10501/04/25 00:54:02 METAR K12N 040554Z VRB04KT M02/M10 A2975 RMK AO1 SLP085 T10221100 11017 21039 58007 RTXEQDR01      7SKY009R02      7GAS009
0160724077547792025010406546+41009-074736FM-15+0178K12N V0209999V001559999999N9999997N5-00225-01005100865ADDAA101000095MA1100755098635REMMET08701/04/25 01:54:02 METAR K12N 040654Z VRB03KT M02/M10 A2975 RMK AO1 SLP086 T10221100 RTXEQDR01      7SKY009R02      7GAS009
0156724077547792025010407547+41009-074736FM-15+0178K12N V0203405V004159999999N9999997N5-00225-01005100935ADDAA101000095MA1100815098705REMMET08301/04/25 02:54:02 METAR K12N 040754Z 34008KT M02/M10 A2977 RMK AO1 SLP093 T10221100EQDR01      7SKY009R02      7GAS009
0187724077547792025010408547+41009-074736FM-15+0178K12N V0209999V003159999999N9999997N5-00285-01175101005ADDAA101000095MA1100915098805MD1390159+9999OC100825REMMET09201/04/25 03:54:02 METAR K12N 040854Z VRB06G16KT M03/M12 A2980 RMK AO1 SLP100 T10281117 53015EQDR01      7SKY009R02      7GAS009
0167724077547792025010409547+41009-074736FM-15+0178K12N V0203005V004159999999N9999997N5-00285-01115101015ADDAA101000095MA1100915098805OC100885REMMET08601/04/25 04:54:02 METAR K12N 040954Z 30008G17KT M03/M11 A2980 RMK AO1 SLP101 T10281111EQDR01      7SKY009R02      7GAS009
0167724077547792025010410547+41009-074736FM-15+0178K12N V0203405N006259999999N9999997N5-00225-01225101065ADDAA101000095MA1100955098835OC101035REMMET08601/04/25 05:54:02 METAR K12N 041054Z 34012G20KT M02/M12 A2981 RMK AO1 SLP106 T10221122EQDR01      7SKY009R02      7GAS009
0201724077547792025010411547+41009-074736FM-15+0178K12N V0209999N999999999999N9999997N5-00285-01225101115ADDAA101000095KA1060M-00221MA1100985098875MD1390099+9999REMMET10101/04/25 06:54:02 METAR K12N 041154Z      KT M03/M12 A2982 RMK AO1 SLP111 T10281122 11022 21033 53009EQDR01      7SKY009R02      7GAS009
0167724077547792025010412547+41009-074736FM-15+0178K12N V0203005V003659999999N9999997N5-00225-01335101175ADDAA101000095MA1101055098935OC100885REMMET08601/04/25 07:54:02 METAR K12N 041254Z 30007G17KT M02/M13 A2984 RMK AO1 SLP117 T10221133EQDR01      7SKY009R02      7GAS009
0156724077547792025010413547+41009-074736FM-15+0178K12N V0209999N999999999999N9999997N5-00225-01225101255ADDAA101000095MA1101125099005REMMET08301/04/25 08:54:02 METAR K12N 041354Z      KT M02/M12 A2986 RMK AO1 SLP125 T10221122EQDR01      7SKY009R02      7GAS009
0208724077547792025010414547+41009-074736FM-15+0178K12N V0209999N999999999999N9999997N5-00225-01225101315ADDAA101000095MA1101195099075MD1390209+9999OD149901331320REMMET10701/04/25 09:54:02 METAR K12N 041454Z      KT M02/M12 A2988 RMK AO1 PK WND 32026/1412 SLP131 T10221122 53020EQDR01      7SKY009R02      7GAS009
0171724077547792025010415546+41009-074736FM-15+0178K12N V0203005V005759999999N9999997N5-00175-01285101325ADDAA101000095MA1101225099105OC100885REMMET09001/04/25 10:54:02 METAR K12N 041554Z 30011G17KT M02/M13 A2989 RMK AO1 SLP132 T10171128 RTXEQDR01      7SKY009R02      7GAS009
0185724077547792025010416547+41009-074736FM-15+0178K12N V0203405V004159999999N9999997N5-00175-01395101275ADDAA101000095MA1101155099035OC101035REMMET10401/04/25 11:54:02 METAR K12N 041654Z 34008G20KT M02/M14 A2987 RMK AO1 PK WND 28026/1634 SLP127 T10171139EQDR01      7SKY009R02      7GAS009
0225724077547792025010417547+41009-074736FM-15+0178K12N V0203305V003659999999N9999997N5-00225-01225101245ADDAA101000095KA1060M-00111KA2060N-00281MA1101125099005MD1890079+9999OC100885REMMET10401/04/25 12:54:02 METAR K12N 041754Z 33007G17KT M02/M12 A2986 RMK AO1 SLP124 T10221122 11011 21028 58007EQDR01      7SKY009R02      7GAS009
0156724077547792025010418547+41009-074736FM-15+0178K12N V0209999N999999999999N9999997N5-00175-01395101235ADDAA101000095MA1101125099005REMMET08301/04/25 13:54:02 METAR K12N 041854Z      KT M02/M14 A2986 RMK AO1 SLP123 T10171139EQDR01      7SKY009R02      7GAS009
0171724077547792025010419546+41009-074736FM-15+0178K12N V0203105V004159999999N9999997N5-00175-01395101285ADDAA101000095MA1101155099035OC100935REMMET09001/04/25 14:54:02 METAR K12N 041954Z 31008G18KT M02/M14 A2987 RMK AO1 SLP128 T10171139 RTXEQDR01      7SKY009R02      7GAS009
0187724077547792025010420547+41009-074736FM-15+0178K12N V0203005N004659999999N9999997N5-00225-01505101345ADDAA101000095MA1101225099105MD1390109+9999OC101085REMMET09201/04/25 15:54:02 METAR K12N 042054Z 30009G21KT M02/M15 A2989 RMK AO1 SLP134 T10221150 53010EQDR01      7SKY009R02      7GAS009
0156724077547792025010421547+41009-074736FM-15+0178K12N V0209999V003159999999N9999997N5-00285-01505101405ADDAA101000095MA1101255099135REMMET08301/04/25 16:54:02 METAR K12N 042154Z VRB06KT M03/M15 A2990 RMK AO1 SLP140 T10281150EQDR01      7SKY009R02      7GAS009
0160724077547792025010422546+41009-074736FM-15+0178K12N V02099999999999999999N9999997N5-00225-01445101445ADDAA101000095MA1101325099205REMMET08701/04/25 17:54:02 METAR K12N 042254Z      KT M02/M14 A2992 RMK AO1 SLP144 T10221144 RTXEQDR01      7SKY009R02      7GAS009
0201724077547792025010423547+41009-074736FM-15+0178K12N V0209999N999999999999N9999997N5-00285-01445101445ADDAA101000095KA1060M-00111MA1101325099205MD1090109+9999REMMET10101/04/25 18:54:02 METAR K12N 042354Z      KT M03/M14 A2992 RMK AO1 SLP144 T10281144 11011 21028 50010EQDR01      7SKY009R02      7GAS009
0156724077547792025010500547+41009-074736FM-15+0178K12N V0209999V002659999999N9999997N5-00285-01445101505ADDAA101000095MA1101395099275REMMET08301/04/25 19:54:01 METAR K12N 050054Z VRB05KT M03/M14 A2994 RMK AO1 SLP150 T10281144EQDR01      7SKY009R02      7GAS009
0156724077547792025010501547+41009-074736FM-15+0178K12N V0209999V003159999999N9999997N5-00335-01445101525ADDAA101000095MA1101395099275REMMET08301/04/25 20:54:01 METAR K12N 050154Z VRB06KT M03/M14 A2994 RMK AO1 SLP152 T10331144EQDR01      7SKY009R02      7GAS009
0176724077547792025010502547+41009-074736FM-15+0178K12N V0209999V002159999999N9999997N5-00395-01395101545ADDAA101000095MA1101425099305MD1190099+9999REMMET08901/04/25 21:54:01 METAR K12N 050254Z VRB04KT M04/M14 A2995 RMK AO1 SLP154 T10391139 51009EQDR01      7SKY009R02      7GAS009
0156724077547792025010503547+41009-074736FM-15+0178K12N V0209999V002659999999N9999997N5-00395-01335101555ADDAA101000095MA1101425099305REMMET08301/04/25 22:54:02 METAR K12N 050354Z VRB05KT M04/M13 A2995 RMK AO1 SLP155 T10391133EQDR01      7SKY009R02      7GAS009
0192724077547792025010504547+41009-074736FM-15+0178K12N V0209999V001559999999N9999997N5-00335-01335101575ADDAA101000095KA1240M-00111KA2240N-00391MA1101465099335REMMET09301/04/25 23:54:02 METAR K12N 050454Z VRB03KT M03/M13 A2996 RMK AO1 SLP157 T10331133 410111039EQDR01      7SKY009R02      7GAS009
0886724077547792025010504596+41009-074736SOD  +0178K12N V020999999999999999999999999999+99999+99999999999ADDAA124000095KA1240M-00105KA2240N-00385MG1098924100814OE11240134128011345OE22240076029012345OE33240034499999995REMSOD73024 HR PRECIPITATION (IN):0.00  24 HR MAX TEMP (F):30 24 HR MAX TEMP TIME (LST):1341 24 HR MIN TEMP (F):25 24 HR MIN TEMP TIME (LST):2309 AVERAGE STATION PRESSURE:29.210 MINIMUM SEA LEVEL PRESSURE:29.77 TIME OF OCCURRENCE:0136 PEAK WIND SPEED (MPH):30  PEAK WIND DIR (DEG):280 PEAK WIND TIME (LST):1134  FASTEST 2MIN SPEED (MPH):17 FASTEST 2MIN DIR (DEG):290 FASTEST 2MIN TIME (LST):1234 AVERAGE WIND SPEED (MPH):7.7  24 HR AVG TEMP (F):28 HEATING DEGREE DAYS:37  COOLING DEGREE DAYS:0   LATEST DAY MAX TEMP (0700-1900 LST):30  LATEST NIGHT MIN TEMP(1900-0800 LST):25 HOURLY INCREMENTAL PRECIPITATION VALUES (IN):.00 0.00 0.00 0.00 0.00 0.00 0.00 0.00 0.00 0.00 0.00 0.00 0.00 0.00 0.00 0.00 0.00 0.00 0.00 0.00 0.00 0.00 0.00 0.00EQDR01     N7GJS072R02     N7GKS075
0214724077547792025010505547+41009-074736FM-15+0178K12N V0209999V001559999999N9999997N5-00335-01285101605ADDAA101000095KA1060M-00281KA2060N-00391MA1101465099335MD1390069+9999REMMET10101/05/25 00:54:02 METAR K12N 050554Z VRB03KT M03/M13 A2996 RMK AO1 SLP160 T10331128 11028 21039 53006EQDR01      7SKY009R02      7GAS009
0156724077547792025010506547+41009-074736FM-15+0178K12N V0209999V001559999999N9999997N5-00395-01285101635ADDAA101000095MA1101495099375REMMET08301/05/25 01:54:02 METAR K12N 050654Z VRB03KT M04/M13 A2997 RMK AO1 SLP163 T10391128EQDR01      7SKY009R02      7GAS009
0156724077547792025010507547+41009-074736FM-15+0178K12N V0209999V001559999999N9999997N5-00395-01225101645ADDAA101000095MA1101525099405REMMET08301/05/25 02:54:02 METAR K12N 050754Z VRB03KT M04/M12 A2998 RMK AO1 SLP164 T10391122EQDR01      7SKY009R02      7GAS009
0176724077547792025010508547+41009-074736FM-15+0178K12N V0209999V001559999999N9999997N5-00395-01175101625ADDAA101000095MA1101495099375MD1090029+9999REMMET08901/05/25 03:54:02 METAR K12N 050854Z VRB03KT M04/M12 A2997 RMK AO1 SLP162 T10391117 50002EQDR01      7SKY009R02      7GAS009
0156724077547792025010509547+41009-074736FM-15+0178K12N V0209999V002159999999N9999997N5-00395-01115101635ADDAA101000095MA1101495099375REMMET08301/05/25 04:54:02 METAR K12N 050954Z VRB04KT M04/M11 A2997 RMK AO1 SLP163 T10391111EQDR01      7SKY009R02      7GAS009
0156724077547792025010510547+41009-074736FM-15+0178K12N V0209999C000059999999N9999997N5-00395-01175101685ADDAA101000095MA1101565099435REMMET08301/05/25 05:54:02 METAR K12N 051054Z 00000KT M04/M12 A2999 RMK AO1 SLP168 T10391117EQDR01      7SKY009R02      7GAS009
0214724077547792025010511547+41009-074736FM-15+0178K12N V0209999V001559999999N9999997N5-00395-01175101695ADDAA101000095KA1060M-00331KA2060N-00391MA1101565099435MD1390069+9999REMMET10101/05/25 06:54:02 METAR K12N 051154Z VRB03KT M04/M12 A2999 RMK AO1 SLP169 T10391117 11033 21039 53006EQDR01      7SKY009R02      7GAS009
0156724077547792025010512547+41009-074736FM-15+0178K12N V0202305N002659999999N9999997N5-00445-01175101715ADDAA101000095MA1101595099475REMMET08301/05/25 07:54:02 METAR K12N 051254Z 23005KT M04/M12 A3000 RMK AO1 SLP171 T10441117EQDR01      7SKY009R02      7GAS009
0156724077547792025010513547+41009-074736FM-15+0178K12N V0209999V002159999999N9999997N5-00395-01115101765ADDAA101000095MA1101635099505REMMET08301/05/25 08:54:02 METAR K12N 051354Z VRB04KT M04/M11 A3001 RMK AO1 SLP176 T10391111EQDR01      7SKY009R02      7GAS009
0187724077547792025010514547+41009-074736FM-15+0178K12N V0202305V004659999999N9999997N5-00285-01115101805ADDAA101000095MA1101665099535MD1390119+9999OC100935REMMET09201/05/25 09:54:02 METAR K12N 051454Z 23009G18KT M03/M11 A3002 RMK AO1 SLP180 T10281111 53011EQDR01      7SKY009R02      7GAS009
0156724077547792025010515547+41009-074736FM-15+0178K12N V0203005V003659999999N9999997N5-00225-01175101785ADDAA101000095MA1101665099535REMMET08301/05/25 10:54:02 METAR K12N 051554Z 30007KT M02/M12 A3002 RMK AO1 SLP178 T10221117EQDR01      7SKY009R02      7GAS009
0167724077547792025010516547+41009-074736FM-15+0178K12N V0202705V004159999999N9999997N5-00175-01225101685ADDAA101000095MA1101565099435OC100825REMMET08601/05/25 11:54:02 METAR K12N 051654Z 27008G16KT M02/M12 A2999 RMK AO1 SLP168 T10171122EQDR01      7SKY009R02      7GAS009
0225724077547792025010517547+41009-074736FM-15+0178K12N V0203405V003659999999N9999997N5-00175-01225101685ADDAA101000095KA1060M-00111KA2060N-00441MA1101565099435MD1690119+9999OC100825REMMET10401/05/25 12:54:02 METAR K12N 051754Z 34007G16KT M02/M12 A2999 RMK AO1 SLP168 T10171122 11011 21044 56011EQDR01      7SKY009R02      7GAS009
0167724077547792025010518547+41009-074736FM-15+0178K12N V0203205N003659999999N9999997N5-00175-01225101725ADDAA101000095MA1101595099475OC100825REMMET08601/05/25 13:54:02 METAR K12N 051854Z 32007G16KT M02/M12 A3000 RMK AO1 SLP172 T10171122EQDR01      7SKY009R02      7GAS009
0167724077547792025010519547+41009-074736FM-15+0178K12N V0209999V002159999999N9999997N5-00065-01225101735ADDAA101000095MA1101635099505OC100935REMMET08601/05/25 14:54:02 METAR K12N 051954Z VRB04G18KT M01/M12 A3001 RMK AO1 SLP173 T10061122EQDR01      7SKY009R02      7GAS009
0176724077547792025010520547+41009-074736FM-15+0178K12N V0209999V003159999999N9999997N5-00175-01225101805ADDAA101000095MA1101665099535MD1390119+9999REMMET08901/05/25 15:54:02 METAR K12N 052054Z VRB06KT M02/M12 A3002 RMK AO1 SLP180 T10171122 53011EQDR01      7SKY009R02      7GAS009
0156724077547792025010521547+41009-074736FM-15+0178K12N V0209999C000059999999N9999997N5-00225-01225101815ADDAA101000095MA1101695099575REMMET08301/05/25 16:54:02 METAR K12N 052154Z 00000KT M02/M12 A3003 RMK AO1 SLP181 T10221122EQDR01      7SKY009R02      7GAS009
0156724077547792025010522547+41009-074736FM-15+0178K12N V0209999C000059999999N9999997N5-00225-01175101905ADDAA101000095MA1101765099635REMMET08301/05/25 17:54:02 METAR K12N 052254Z 00000KT M02/M12 A3005 RMK AO1 SLP190 T10221117EQDR01      7SKY009R02      7GAS009
0192724077547792025010523546+41009-074736FM-15+0178K12N V0209999C000059999999N9999997N5-00335-01175101875ADDAA101000095MA1101765099635MD1090079+9999REMMET10501/05/25 18:54:02 METAR K12N 052354Z 00000KT M03/M12 A3005 RMK AO1 SLP187 T10331117 10000 21033 50007 RTXEQDR01      7SKY009R02      7GAS009
0156724077547792025010600547+41009-074736FM-15+0178K12N V0209999V002159999999N9999997N5-00335-01115101895ADDAA101000095MA1101765099635REMMET08301/05/25 19:54:01 METAR K12N 060054Z VRB04KT M03/M11 A3005 RMK AO1 SLP189 T10331111EQDR01      7SKY009R02      7GAS009
0156724077547792025010601547+41009-074736FM-15+0178K12N V0209999C000059999999N9999997N5-00395-01115101845ADDAA101000095MA1101695099575REMMET08301/05/25 20:54:01 METAR K12N 060154Z 00000KT M04/M11 A3003 RMK AO1 SLP184 T10391111EQDR01      7SKY009R02      7GAS009
0176724077547792025010602547+41009-074736FM-15+0178K12N V0202105N001559999999N9999997N5-00395-01005101845ADDAA101000095MA1101695099575MD1890049+9999REMMET08901/05/25 21:54:01 METAR K12N 060254Z 21003KT M04/M10 A3003 RMK AO1 SLP184 T10391100 58004EQDR01      7SKY009R02      7GAS009
0156724077547792025010603547+41009-074736FM-15+0178K12N V0201705N001559999999N9999997N5-00335-01005101835ADDAA101000095MA1101695099575REMMET08301/05/25 22:54:02 METAR K12N 060354Z 17003KT M03/M10 A3003 RMK AO1 SLP183 T10331100EQDR01      7SKY009R02      7GAS009
0192724077547792025010604547+41009-074736FM-15+0178K12N V0209999V002159999999N9999997N5-00335-00945101755ADDAA101000095KA1240M+00001KA2240N-00441MA1101635099505REMMET09301/05/25 23:54:02 METAR K12N 060454Z VRB04KT M03/M09 A3001 RMK AO1 SLP175 T10331094 400001044EQDR01      7SKY009R02      7GAS009
0886724077547792025010604596+41009-074736SOD  +0178K12N V020999999999999999999999999999+99999+99999999999ADDAA124000095KA1240M+00005KA2240N-00435MG1099444101564OE11240107335014215OE22240058130015055OE33240019299999995REMSOD73024 HR PRECIPITATION (IN):0.00  24 HR MAX TEMP (F):32 24 HR MAX TEMP TIME (LST):1414 24 HR MIN TEMP (F):24 24 HR MIN TEMP TIME (LST):2221 AVERAGE STATION PRESSURE:29.365 MINIMUM SEA LEVEL PRESSURE:29.99 TIME OF OCCURRENCE:0033 PEAK WIND SPEED (MPH):24  PEAK WIND DIR (DEG):350 PEAK WIND TIME (LST):1421  FASTEST 2MIN SPEED (MPH):13 FASTEST 2MIN DIR (DEG):300 FASTEST 2MIN TIME (LST):1505 AVERAGE WIND SPEED (MPH):4.3  24 HR AVG TEMP (F):28 HEATING DEGREE DAYS:37  COOLING DEGREE DAYS:0   LATEST DAY MAX TEMP (0700-1900 LST):32  LATEST NIGHT MIN TEMP(1900-0800 LST):24 HOURLY INCREMENTAL PRECIPITATION VALUES (IN):.00 0.00 0.00 0.00 0.00 0.00 0.00 0.00 0.00 0.00 0.00 0.00 0.00 0.00 0.00 0.00 0.00 0.00 0.00 0.00 0.00 0.00 0.00 0.00EQDR01     N7GJS072R02     N7GKS075
0192724077547792025010605546+41009-074736FM-15+0178K12N V0209999C000059999999N9999997N5-00335-00945101745ADDAA101000095MA1101635099505MD1790089+9999REMMET10501/06/25 00:54:02 METAR K12N 060554Z 00000KT M03/M09 A3001 RMK AO1 SLP174 T10331094 11033 21044 57008 RTXEQDR01      7SKY009R02      7GAS009
0160724077547792025010606547+41009-074736FM-15+0178K12N V0209999C000059999999N9999997N5-00335-00895101715ADDAA101000095MA1101595099475REMMET08701/06/25 01:54:02 METAR K12N 060654Z 00000KT M03/M09 A3000 RMK AO1 SLP171 T10331089 RTXEQDR01      7SKY009R02      7GAS009
0156724077547792025010607547+41009-074736FM-15+0178K12N V0209999C000059999999N9999997N5-00335-00835101745ADDAA101000095MA1101635099505REMMET08301/06/25 02:54:02 METAR K12N 060754Z 00000KT M03/M08 A3001 RMK AO1 SLP174 T10331083EQDR01      7SKY009R02      7GAS009
0176724077547792025010608546+41009-074736FM-15+0178K12N V0209999C000059999999N9999997N5-00335-00835101635ADDAA101000095MA1101525099405MD1890119+9999REMMET08901/06/25 03:54:02 METAR K12N 060854Z 00000KT M03/M08 A2998 RMK AO1 SLP163 T10331083 58011EQDR01      7SKY009R02      7GAS009
0156724077547792025010609547+41009-074736FM-15+0178K12N V0209999C000059999999N9999997N5-00285-00785101515ADDAA101000095MA1101395099275REMMET08301/06/25 04:54:02 METAR K12N 060954Z 00000KT M03/M08 A2994 RMK AO1 SLP151 T10281078EQDR01      7SKY009R02      7GAS009
0160724077547792025010610546+41009-074736FM-15+0178K12N V0209999C000059999999N9999997N5-00285-00835101525ADDAA101000095MA1101425099305REMMET08701/06/25 05:54:02 METAR K12N 061054Z 00000KT M03/M08 A2995 RMK AO1 SLP152 T10281083 RTXEQDR01      7SKY009R02      7GAS009
0172724077547792025010611546+41009-074736FM-15+0178K12N V0209999C000059999999N9999997N5-00335-00785101465ADDAA101000095MA1101325099205REMMET09901/06/25 06:54:02 METAR K12N 061154Z 00000KT M03/M08 A2992 RMK AO1 SLP146 T10331078 11028 21039 RTXEQDR01      7SKY009R02      7GAS009
0156724077547792025010612547+41009-074736FM-15+0178K12N V0202105N001559999999N9999997N5-00335-00785101475ADDAA101000095MA1101355099235REMMET08301/06/25 07:54:02 METAR K12N 061254Z 21003KT M03/M08 A2993 RMK AO1 SLP147 T10331078EQDR01      7SKY009R02      7GAS009
0160724077547792025010613546+41009-074736FM-15+0178K12N V0202105N001559999999N9999997N5-00335-00835101385ADDAA101000095MA1101255099135REMMET08701/06/25 08:54:02 METAR K12N 061354Z 21003KT M03/M08 A2990 RMK AO1 SLP138 T10331083 RTXEQDR01      7SKY009R02      7GAS009
0180724077547792025010614546+41009-074736FM-15+0178K12N V0209999C000059999999N9999997N5-00335-00725101285ADDAA101000095MA1101155099035MD1890179+9999REMMET09301/06/25 09:54:02 METAR K12N 061454Z 00000KT M03/M07 A2987 RMK AO1 SLP128 T10331072 58017 RTXEQDR01      7SKY009R02      7GAS009
0173724077547792025010615546+41009-074736FM-15+0178K12N V0209999C000059999999N9999997N5-00335-00615101165ADDAA101000395MA1101055098935REMMET10001/06/25 10:54:02 METAR K12N 061554Z 00000KT M03/M06 A2984 RMK AO1 PRESFR SLP116 P0001 T10331061 RTXEQDR01      7SKY009R02      7GAS009
0166724077547792025010616546+41009-074736FM-15+0178K12N V0200305N002159999999N9999997N5-00285-00565101025ADDAA101000895MA1100885098775REMMET09301/06/25 11:54:02 METAR K12N 061654Z 03004KT M03/M06 A2979 RMK AO1 SLP102 P0002 T10281056 RTXEQDR01      7SKY009R02      7GAS009
0215724077547792025010617546+41009-074736FM-15+0178K12N V0209999V001559999999N9999997N5-00225-00615100895ADDAA101000095AA206001091MA1100785098675MD1890399+9999REMMET11701/06/25 12:54:02 METAR K12N 061754Z VRB03KT M02/M06 A2976 RMK AO1 SLP089 P0001 60004 T10221061 11022 21039 58039 RTXEQDR01      7SKY009R02      7GAS009
0160724077547792025010618546+41009-074736FM-15+0178K12N V0200505N001559999999N9999997N5-00225-00615100785ADDAA101000095MA1100645098535REMMET08701/06/25 13:54:02 METAR K12N 061854Z 05003KT M02/M06 A2972 RMK AO1 SLP078 T10221061 RTXEQDR01      7SKY009R02      7GAS009
0160724077547792025010619546+41009-074736FM-15+0178K12N V0200205N002659999999N9999997N5-00225-00565100695ADDAA101000095MA1100585098475REMMET08701/06/25 14:54:02 METAR K12N 061954Z 02005KT M02/M06 A2970 RMK AO1 SLP069 T10221056 RTXEQDR01      7SKY009R02      7GAS009
0180724077547792025010620546+41009-074736FM-15+0178K12N V0200305N002659999999N9999997N5-00225-00565100625ADDAA101000095MA1100515098405MD1690269+9999REMMET09301/06/25 15:54:02 METAR K12N 062054Z 03005KT M02/M06 A2968 RMK AO1 SLP062 T10221056 56026 RTXEQDR01      7SKY009R02      7GAS009
0156724077547792025010621547+41009-074736FM-15+0178K12N V0209999V001559999999N9999997N5-00225-00565100595ADDAA101000095MA1100475098375REMMET08301/06/25 16:54:02 METAR K12N 062154Z VRB03KT M02/M06 A2967 RMK AO1 SLP059 T10221056EQDR01      7SKY009R02      7GAS009
0156724077547792025010622547+41009-074736FM-15+0178K12N V0209999V003159999999N9999997N5-00225-00725100585ADDAA101000095MA1100475098375REMMET08301/06/25 17:54:02 METAR K12N 062254Z VRB06KT M02/M07 A2967 RMK AO1 SLP058 T10221072EQDR01      7SKY009R02      7GAS009
0203724077547792025010623546+41009-074736FM-15+0178K12N V0203505N005159999999N9999997N5-00285-00835100555ADDAA101000095MA1100445098335MD1890079+9999OC100885REMMET10801/06/25 18:54:02 METAR K12N 062354Z 35010G17KT M03/M08 A2966 RMK AO1 SLP055 T10281083 11017 21028 58007 RTXEQDR01      7SKY009R02      7GAS009
0167724077547792025010700547+41009-074736FM-15+0178K12N V0203505N007259999999N9999997N5-00395-01065100545ADDAA101000095MA1100415098305OC101135REMMET08601/06/25 19:54:01 METAR K12N 070054Z 35014G22KT M04/M11 A2965 RMK AO1 SLP054 T10391106EQDR01      7SKY009R02      7GAS009
0171724077547792025010701546+41009-074736FM-15+0178K12N V0203505N004659999999N9999997N5-00445-01115100545ADDAA101000095MA1100415098305OC100885REMMET09001/06/25 20:54:03 METAR K12N 070154Z 35009G17KT M04/M11 A2965 RMK AO1 SLP054 T10441111 RTXEQDR01      7SKY009R02      7GAS009
0187724077547792025010702547+41009-074736FM-15+0178K12N V0203605V005159999999N9999997N5-00615-01285100685ADDAA101000095MA1100545098435MD1390129+9999OC101085REMMET09201/06/25 21:54:01 METAR K12N 070254Z 36010G21KT M06/M13 A2969 RMK AO1 SLP068 T10611128 53012EQDR01      7SKY009R02      7GAS009
0167724077547792025010703547+41009-074736FM-15+0178K12N V0203505N005159999999N9999997N5-00835-01505100855ADDAA101000095MA1100715098605OC101295REMMET08601/06/25 22:54:02 METAR K12N 070354Z 35010G25KT M08/M15 A2974 RMK AO1 SLP085 T10831150EQDR01      7SKY009R02      7GAS009
0203724077547792025010704547+41009-074736FM-15+0178K12N V0203405N006759999999N9999997N5-00945-01505100955ADDAA101000095KA1240M-00171KA2240N-00941MA1100815098705OC100985REMMET09601/06/25 23:54:02 METAR K12N 070454Z 34013G19KT M09/M15 A2977 RMK AO1 SLP095 T10941150 410171094EQDR01      7SKY009R02      7GAS009
0918724077547792025010704596+41009-074736SOD  +0178K12N V020999999999999999999999999999+99999+99999999999ADDAA124001096KA1240M-00165KA2240N-00935MG1098924100544OE11240125236022496OE22240080534021095OE33240021599999995REMSOD73024 HR PRECIPITATION (IN):0.04  24 HR MAX TEMP (F):29 24 HR MAX TEMP TIME (LST):1719 24 HR MIN TEMP (F):15 24 HR MIN TEMP TIME (LST):2356 AVERAGE STATION PRESSURE:29.210 MINIMUM SEA LEVEL PRESSURE:29.69 TIME OF OCCURRENCE:2104 PEAK WIND SPEED (MPH):28  PEAK WIND DIR (DEG):360 PEAK WIND TIME (LST):2249  FASTEST 2MIN SPEED (MPH):18 FASTEST 2MIN DIR (DEG):340 FASTEST 2MIN TIME (LST):2109 AVERAGE WIND SPEED (MPH):4.8  24 HR AVG TEMP (F):22 HEATING DEGREE DAYS:43  COOLING DEGREE DAYS:0   LATEST DAY MAX TEMP (0700-1900 LST):29  LATEST NIGHT MIN TEMP(1900-0800 LST):24 HOURLY INCREMENTAL PRECIPITATION VALUES (IN):.00 0.00 0.00 0.00 0.00 0.00 0.00 0.00 0.00 0.00 0.01 0.03 0.00 0.00 0.00 0.00 0.00 0.00 0.00 0.00 0.00 0.00 0.00 0.00EQDR01  0.047AAP092R02     N7GJS072R03     N7GKS075R04    287OES063
0156724077547792025010706547+41009-074736FM-15+0178K12N V0203505V004159999999N9999997N5-00785-01445100955ADDMA1100815098705OC101295REMMET08601/07/25 01:54:02 METAR K12N 070654Z 35008G25KT M08/M14 A2977 RMK AO1 SLP095 T10781144EQDR01      7SKY009R02      7GAS009
0188724077547792025010707547+41009-074736FM-15+0178K12N V0203505N004659999999N9999997N5-00785-01445100975ADDMA1100815098705OC101245OD149901391360REMMET10401/07/25 02:54:02 METAR K12N 070754Z 35009G24KT M08/M14 A2977 RMK AO1 PK WND 36027/0708 SLP097 T10781144EQDR01      7SKY009R02      7GAS009
0197724077547792025010708547+41009-074736FM-15+0178K12N V0203505N002659999999N9999997N5-00675-01335100955ADDMA1100815098705MD1090019+9999OD149901441340REMMET10701/07/25 03:54:02 METAR K12N 070854Z 35005KT M07/M13 A2977 RMK AO1 PK WND 34028/0756 SLP095 T10671133 50001EQDR01      7SKY009R02      7GAS009
0145724077547792025010709547+41009-074736FM-15+0178K12N V0209999N999999999999N9999997N5-00675-01395100965ADDMA1100855098735REMMET08301/07/25 04:54:02 METAR K12N 070954Z      KT M07/M14 A2978 RMK AO1 SLP096 T10671139EQDR01      7SKY009R02      7GAS009
0156724077547792025010710547+41009-074736FM-15+0178K12N V0203305V005159999999N9999997N5-00615-01395101005ADDMA1100885098775OC100935REMMET08601/07/25 05:54:02 METAR K12N 071054Z 33010G18KT M06/M14 A2979 RMK AO1 SLP100 T10611139EQDR01      7SKY009R02      7GAS009
0247724077547792025010711547+41009-074736FM-15+0178K12N V0203405V004659999999N9999997N5-00615-01335101055ADDAA124001091KA1060M-00611KA2060N-00831MA1100915098805MD1390109+9999OC101035REMMET11001/07/25 06:54:01 METAR K12N 071154Z 34009G20KT M06/M13 A2980 RMK AO1 SLP105 70004 T10611133 11061 21083 53010EQDQ01  00108PRCP24R01      7SKY009R02      7GAS009
0156724077547792025010712547+41009-074736FM-15+0178K12N V0203405V004659999999N9999997N5-00725-01505101135ADDMA1100985098875OC100935REMMET08601/07/25 07:54:01 METAR K12N 071254Z 34009G18KT M07/M15 A2982 RMK AO1 SLP113 T10721150EQDR01      7SKY009R02      7GAS009
0156724077547792025010713547+41009-074736FM-15+0178K12N V0203205V005759999999N9999997N5-00675-01445101225ADDMA1101085098975OC101035REMMET08601/07/25 08:54:02 METAR K12N 071354Z 32011G20KT M07/M14 A2985 RMK AO1 SLP122 T10671144EQDR01      7SKY009R02      7GAS009
0176724077547792025010714547+41009-074736FM-15+0178K12N V0203405V008259999999N9999997N5-00565-01335101225ADDMA1101085098975MD1190169+9999OC101295REMMET09201/07/25 09:54:02 METAR K12N 071454Z 34016G25KT M06/M13 A2985 RMK AO1 SLP122 T10561133 51016EQDR01      7SKY009R02      7GAS009
0174724077547792025010715547+41009-074736FM-15+0178K12N V0203405V003659999999N9999997N5-00445-01225101215ADDMA1101055098935OC101185REMMET10401/07/25 10:54:02 METAR K12N 071554Z 34007G23KT M04/M12 A2984 RMK AO1 PK WND 34029/1509 SLP121 T10441122EQDR01      7SKY009R02      7GAS009
0174724077547792025010716547+41009-074736FM-15+0178K12N V0203305V004659999999N9999997N5-00285-01175101165ADDMA1101025098905OC101345REMMET10401/07/25 11:54:02 METAR K12N 071654Z 33009G26KT M03/M12 A2983 RMK AO1 PK WND 35027/1601 SLP116 T10281117EQDR01      7SKY009R02      7GAS009
0232724077547792025010717547+41009-074736FM-15+0178K12N V0203205V006259999999N9999997N5-00175-01115101125ADDKA1060M-00111KA2060N-00721MA1100985098875MD1790109+9999OC101185REMMET12201/07/25 12:54:02 METAR K12N 071754Z 32012G23KT M02/M11 A2982 RMK AO1 PK WND 35027/1737 SLP112 T10171111 11011 21072 57010EQDR01      7SKY009R02      7GAS009
0188724077547792025010718547+41009-074736FM-15+0178K12N V0203305N005159999999N9999997N5-00065-01115101155ADDMA1101025098905OC101135OD149901441340REMMET10401/07/25 13:54:02 METAR K12N 071854Z 33010G22KT M01/M11 A2983 RMK AO1 PK WND 34028/1813 SLP115 T10061111EQDR01      7SKY009R02      7GAS009
0174724077547792025010720546+41009-074736FM-15+0178K12N V0203305V003659999999N9999997N5-00175-01175101335ADDMA1101195099075OC101245REMMET10401/07/25 15:54:02 METAR K12N 072054Z 33007G24KT M02/M12 A2988 RMK AO1 PK WND 36031/2017 SLP133 T10171117EQDR01      7SKY009R02      7GAS009
0156724077547792025010721547+41009-074736FM-15+0178K12N V0203105V005759999999N9999997N5-00335-01225101475ADDMA1101325099205OC101135REMMET08601/07/25 16:54:02 METAR K12N 072154Z 31011G22KT M03/M12 A2992 RMK AO1 SLP147 T10331122EQDR01      7SKY009R02      7GAS009
0214724077547792025010723547+41009-074736FM-15+0178K12N V0203105V004659999999N9999997N5-00395-01225101625ADDKA1060M-00061KA2060N-00391MA1101465099335MD1190289+9999OC100825REMMET10401/07/25 18:54:02 METAR K12N 072354Z 31009G16KT M04/M12 A2996 RMK AO1 SLP162 T10391122 11006 21039 51028EQDR01      7SKY009R02      7GAS009
0156724077547792025010800547+41009-074736FM-15+0178K12N V0203205V005159999999N9999997N5-00395-01225101665ADDMA1101525099405OC101085REMMET08601/07/25 19:54:01 METAR K12N 080054Z 32010G21KT M04/M12 A2998 RMK AO1 SLP166 T10391122EQDR01      7SKY009R02      7GAS009
0145724077547792025010801547+41009-074736FM-15+0178K12N V0209999N999999999999N9999997N5-00395-01225101675ADDMA1101525099405REMMET08301/07/25 20:54:01 METAR K12N 080154Z      KT M04/M12 A2998 RMK AO1 SLP167 T10391122EQDR01      7SKY009R02      7GAS009
0194724077547792025010805547+41009-074736FM-15+0178K12N V0209999V001559999999N9999997N5-00445-01395101665ADDKA1060M-00391KA2060N-00441MA1101525099405OC100885REMMET09801/08/25 00:54:02 METAR K12N 080554Z VRB03G17KT M04/M14 A2998 RMK AO1 SLP166 T10441139 11039 21044EQDR01      7SKY009R02      7GAS009
0156724077547792025010806547+41009-074736FM-15+0178K12N V0203305V004159999999N9999997N5-00445-01225101635ADDMA1101525099405OC101185REMMET08601/08/25 01:54:02 METAR K12N 080654Z 33008G23KT M04/M12 A2998 RMK AO1 SLP163 T10441122EQDR01      7SKY009R02      7GAS009
0145724077547792025010807547+41009-074736FM-15+0178K12N V0203005V003659999999N9999997N5-00505-01335101655ADDMA1101525099405REMMET08301/08/25 02:54:02 METAR K12N 080754Z 30007KT M05/M13 A2998 RMK AO1 SLP165 T10501133EQDR01      7SKY009R02      7GAS009
0176724077547792025010808547+41009-074736FM-15+0178K12N V0203305V005159999999N9999997N5-00505-01445101645ADDMA1101525099405MD1690029+9999OC101035REMMET09201/08/25 03:54:02 METAR K12N 080854Z 33010G20KT M05/M14 A2998 RMK AO1 SLP164 T10501144 56002EQDR01      7SKY009R02      7GAS009
0174724077547792025010815547+41009-074736FM-15+0178K12N V0203005V003659999999N9999997N5-00445-01505101545ADDMA1101425099305OC101345REMMET10401/08/25 10:54:02 METAR K12N 081554Z 30007G26KT M04/M15 A2995 RMK AO1 PK WND 32026/1547 SLP154 T10441150EQDR01      7SKY009R02      7GAS009
0188724077547792025010818547+41009-074736FM-15+0178K12N V0203005N006259999999N9999997N5-00335-01565101235ADDMA1101085098975OC101295OD149901641350REMMET10401/08/25 13:54:02 METAR K12N 081854Z 30012G25KT M03/M16 A2985 RMK AO1 PK WND 35032/1813 SLP123 T10331156EQDR01      7SKY009R02      7GAS009
0156724077547792025010819547+41009-074736FM-15+0178K12N V0203205V004159999999N9999997N5-00335-01615101195ADDMA1101055098935OC101135REMMET08601/08/25 14:54:02 METAR K12N 081954Z 32008G22KT M03/M16 A2984 RMK AO1 SLP119 T10331161EQDR01      7SKY009R02      7GAS009
0176724077547792025010820547+41009-074736FM-15+0178K12N V0203505N004659999999N9999997N5-00395-01565101215ADDMA1101085098975MD1590099+9999OC100985REMMET09201/08/25 15:54:02 METAR K12N 082054Z 35009G19KT M04/M16 A2985 RMK AO1 SLP121 T10391156 55009EQDR01      7SKY009R02      7GAS009
0174724077547792025010821547+41009-074736FM-15+0178K12N V0203205V004159999999N9999997N5-00565-01675101245ADDMA1101085098975OC101345REMMET10401/08/25 16:54:02 METAR K12N 082154Z 32008G26KT M06/M17 A2985 RMK AO1 PK WND 36026/2148 SLP124 T10561167EQDR01      7SKY009R02      7GAS009
0177724077547792025010822547+41009-074736FM-15+0178K12N V0209999V002659999999N9999997N5-00675-01615101275ADDMA1101125099005OD149901391340REMMET10101/08/25 17:54:02 METAR K12N 082254Z VRB05KT M07/M16 A2986 RMK AO1 PK WND 34027/2203 SLP127 T10671161EQDR01      7SKY009R02      7GAS009
0214724077547792025010823547+41009-074736FM-15+0178K12N V0209999V002159999999N9999997N5-00675-01615101285ADDKA1060M-00281KA2060N-00671MA1101125099005MD1190049+9999OC101035REMMET10401/08/25 18:54:02 METAR K12N 082354Z VRB04G20KT M07/M16 A2986 RMK AO1 SLP128 T10671161 11028 21067 51004EQDR01      7SKY009R02      7GAS009
0156724077547792025010900547+41009-074736FM-15+0178K12N V0209999V003159999999N9999997N5-00675-01565101235ADDMA1101085098975OC100885REMMET08601/08/25 19:54:01 METAR K12N 090054Z VRB06G17KT M07/M16 A2985 RMK AO1 SLP123 T10671156EQDR01      7SKY009R02      7GAS009
0156724077547792025010901547+41009-074736FM-15+0178K12N V0203205V004159999999N9999997N5-00675-01565101195ADDMA1101055098935OC101295REMMET08601/08/25 20:54:01 METAR K12N 090154Z 32008G25KT M07/M16 A2984 RMK AO1 SLP119 T10671156EQDR01      7SKY009R02      7GAS009
0181724077547792025010904547+41009-074736FM-15+0178K12N V0209999N999999999999N9999997N5-00725-01505101055ADDKA1240M-00281KA2240N-00721MA1100915098805REMMET09301/08/25 23:54:02 METAR K12N 090454Z      KT M07/M15 A2980 RMK AO1 SLP105 T10721150 410281072EQDR01      7SKY009R02      7GAS009
0214724077547792025010905547+41009-074736FM-15+0178K12N V0209999V003159999999N9999997N5-00675-01445100975ADDKA1060M-00671KA2060N-00721MA1100855098735MD1890199+9999OC100825REMMET10401/09/25 00:54:02 METAR K12N 090554Z VRB06G16KT M07/M14 A2978 RMK AO1 SLP097 T10671144 11067 21072 58019EQDR01      7SKY009R02      7GAS009
0145724077547792025010906547+41009-074736FM-15+0178K12N V0209999N999999999999N9999997N5-00675-01445100945ADDMA1100815098705REMMET08301/09/25 01:54:02 METAR K12N 090654Z      KT M07/M14 A2977 RMK AO1 SLP094 T10671144EQDR01      7SKY009R02      7GAS009
0176724077547792025010908547+41009-074736FM-15+0178K12N V0203505V005159999999N9999997N5-00675-01445100925ADDMA1100785098675MD1790059+9999OC101085REMMET09201/09/25 03:54:02 METAR K12N 090854Z 35010G21KT M07/M14 A2976 RMK AO1 SLP092 T10671144 57005EQDR01      7SKY009R02      7GAS009
0156724077547792025010910547+41009-074736FM-15+0178K12N V0203405V003659999999N9999997N5-00675-01505101005ADDMA1100855098735OC100725REMMET08601/09/25 05:54:02 METAR K12N 091054Z 34007G14KT M07/M15 A2978 RMK AO1 SLP100 T10671150EQDR01      7SKY009R02      7GAS009
0214724077547792025010911547+41009-074736FM-15+0178K12N V0203205V005159999999N9999997N5-00675-01505101025ADDKA1060M-00611KA2060N-00671MA1100885098775MD1390099+9999OC100985REMMET10401/09/25 06:54:02 METAR K12N 091154Z 32010G19KT M07/M15 A2979 RMK AO1 SLP102 T10671150 11061 21067 53009EQDR01      7SKY009R02      7GAS009
0188724077547792025010912547+41009-074736FM-15+0178K12N V0209999V002659999999N9999997N5-00675-01505101045ADDMA1100885098775OC100885OD149901331340REMMET10401/09/25 07:54:02 METAR K12N 091254Z VRB05G17KT M07/M15 A2979 RMK AO1 PK WND 34026/1204 SLP104 T10671150EQDR01      7SKY009R02      7GAS009
0156724077547792025010913547+41009-074736FM-15+0178K12N V0203305N006759999999N9999997N5-00565-01395101045ADDMA1100885098775OC101085REMMET08601/09/25 08:54:02 METAR K12N 091354Z 33013G21KT M06/M14 A2979 RMK AO1 SLP104 T10561139EQDR01      7SKY009R02      7GAS009
0208724077547792025010914547+41009-074736FM-15+0178K12N V0203405N005159999999N9999997N5-00505-01445101115ADDMA1100955098835MD1390099+9999OC101345OD149901331350REMMET11001/09/25 09:54:02 METAR K12N 091454Z 34010G26KT M05/M14 A2981 RMK AO1 PK WND 35026/1449 SLP111 T10501144 53009EQDR01      7SKY009R02      7GAS009
0174724077547792025010915547+41009-074736FM-15+0178K12N V0203305V004659999999N9999997N5-00285-01335101105ADDMA1100955098835OC101245REMMET10401/09/25 10:54:02 METAR K12N 091554Z 33009G24KT M03/M13 A2981 RMK AO1 PK WND 33028/1510 SLP110 T10281133EQDR01      7SKY009R02      7GAS009
0156724077547792025010918547+41009-074736FM-15+0178K12N V0202905N005759999999N9999997N5-00175-01175100995ADDMA1100855098735OC101035REMMET08601/09/25 13:54:02 METAR K12N 091854Z 29011G20KT M02/M12 A2978 RMK AO1 SLP099 T10171117EQDR01      7SKY009R02      7GAS009
0174724077547792025010919547+41009-074736FM-15+0178K12N V0203405V006259999999N9999997N5-00115-01065101025ADDMA1100885098775OC101345REMMET10401/09/25 14:54:02 METAR K12N 091954Z 34012G26KT M01/M11 A2979 RMK AO1 PK WND 30026/1946 SLP102 T10111106EQDR01      7SKY009R02      7GAS009
0194724077547792025010920546+41009-074736FM-15+0178K12N V0203505V004659999999N9999997N5-00175-01065101105ADDMA1100955098835MD1390099+9999OC101295REMMET11001/09/25 15:54:02 METAR K12N 092054Z 35009G25KT M02/M11 A2981 RMK AO1 PK WND 36027/2032 SLP110 T10171106 53009EQDR01      7SKY009R02      7GAS009
0156724077547792025010921547+41009-074736FM-15+0178K12N V0203405N004159999999N9999997N5-00285-01065101195ADDMA1101055098935OC101035REMMET08601/09/25 16:54:02 METAR K12N 092154Z 34008G20KT M03/M11 A2984 RMK AO1 SLP119 T10281106EQDR01      7SKY009R02      7GAS009
0156724077547792025010922547+41009-074736FM-15+0178K12N V0203405V003659999999N9999997N5-00335-01005101235ADDMA1101085098975OC100935REMMET08601/09/25 17:54:02 METAR K12N 092254Z 34007G18KT M03/M10 A2985 RMK AO1 SLP123 T10331100EQDR01      7SKY009R02      7GAS009
0190724077547792025010923547+41009-074736FM-15+0178K12N V0209999N999999999999N9999997N5-00335-01005101275ADDKA1060M-00061MA1101125099005MD1190169+9999REMMET10101/09/25 18:54:02 METAR K12N 092354Z      KT M03/M10 A2986 RMK AO1 SLP127 T10331100 11006 21033 51016EQDR01      7SKY009R02      7GAS009
0156724077547792025011000547+41009-074736FM-15+0178K12N V0203305N004159999999N9999997N5-00395-01005101375ADDMA1101225099105OC100825REMMET08601/09/25 19:54:01 METAR K12N 100054Z 33008G16KT M04/M10 A2989 RMK AO1 SLP137 T10391100EQDR01      7SKY009R02      7GAS009
0176724077547792025011002547+41009-074736FM-15+0178K12N V0203405N004659999999N9999997N5-00395-01065101465ADDMA1101325099205MD1190199+9999OC101035REMMET09201/09/25 21:54:01 METAR K12N 100254Z 34009G20KT M04/M11 A2992 RMK AO1 SLP146 T10391106 51019EQDR01      7SKY009R02      7GAS009
0214724077547792025011005547+41009-074736FM-15+0178K12N V0203505N005159999999N9999997N5-00445-01115101475ADDKA1060M-00331KA2060N-00441MA1101355099235MD1090029+9999OC100935REMMET10401/10/25 00:54:02 METAR K12N 100554Z 35010G18KT M04/M11 A2993 RMK AO1 SLP147 T10441111 11033 21044 50002EQDR01      7SKY009R02      7GAS009
0145724077547792025011006547+41009-074736FM-15+0178K12N V0203405N003159999999N9999997N5-00445-01115101605ADDMA1101465099335REMMET08301/10/25 01:54:02 METAR K12N 100654Z 34006KT M04/M11 A2996 RMK AO1 SLP160 T10441111EQDR01      7SKY009R02      7GAS009
0165724077547792025011008547+41009-074736FM-15+0178K12N V0209999V002659999999N9999997N5-00505-01115101535ADDMA1101395099275MD1090069+9999REMMET08901/10/25 03:54:02 METAR K12N 100854Z VRB05KT M05/M11 A2994 RMK AO1 SLP153 T10501111 50006EQDR01      7SKY009R02      7GAS009
0203724077547792025011011547+41009-074736FM-15+0178K12N V0209999V001559999999N9999997N5-00565-01175101815ADDKA1060M-00441KA2060N-00561MA1101665099535MD1390269+9999REMMET10101/10/25 06:54:02 METAR K12N 101154Z VRB03KT M06/M12 A3002 RMK AO1 SLP181 T10561117 11044 21056 53026EQDR01      7SKY009R02      7GAS009
0145724077547792025011012547+41009-074736FM-15+0178K12N V0209999V002659999999N9999997N5-00565-01115101855ADDMA1101695099575REMMET08301/10/25 07:54:02 METAR K12N 101254Z VRB05KT M06/M11 A3003 RMK AO1 SLP185 T10561111EQDR01      7SKY009R02      7GAS009
0145724077547792025011013547+41009-074736FM-15+0178K12N V0203605N003659999999N9999997N5-00395-01065101775ADDMA1101635099505REMMET08301/10/25 08:54:02 METAR K12N 101354Z 36007KT M04/M11 A3001 RMK AO1 SLP177 T10391106EQDR01      7SKY009R02      7GAS009
0165724077547792025011014547+41009-074736FM-15+0178K12N V0203605N002659999999N9999997N5-00225-01005101775ADDMA1101665099535MD1890039+9999REMMET08901/10/25 09:54:02 METAR K12N 101454Z 36005KT M02/M10 A3002 RMK AO1 SLP177 T10221100 58003EQDR01      7SKY009R02      7GAS009
0156724077547792025011015547+41009-074736FM-15+0178K12N V0203605N003159999999N9999997N5-00065-01005101695ADDMA1101565099435OC100725REMMET08601/10/25 10:54:02 METAR K12N 101554Z 36006G14KT M01/M10 A2999 RMK AO1 SLP169 T10061100EQDR01      7SKY009R02      7GAS009
0144724077547792025011016547+41009-074736FM-15+0178K12N V0209999V002659999999N9999997N5+00065-00945101545ADDMA1101425099305REMMET08201/10/25 11:54:02 METAR K12N 101654Z VRB05KT 01/M09 A2995 RMK AO1 SLP154 T00061094EQDR01      7SKY009R02      7GAS009
0202724077547792025011017547+41009-074736FM-15+0178K12N V0200205N003159999999N9999997N5+00175-00895101415ADDKA1060M+00171KA2060N-00611MA1101295099175MD1890349+9999REMMET10001/10/25 12:54:02 METAR K12N 101754Z 02006KT 02/M09 A2991 RMK AO1 SLP141 T00171089 10017 21061 58034EQDR01      7SKY009R02      7GAS009
0144724077547792025011018547+41009-074736FM-15+0178K12N V0203605N003659999999N9999997N5+00285-00895101325ADDMA1101225099105REMMET08201/10/25 13:54:02 METAR K12N 101854Z 36007KT 03/M09 A2989 RMK AO1 SLP132 T00281089EQDR01      7SKY009R02      7GAS009
0144724077547792025011019547+41009-074736FM-15+0178K12N V0209999V001559999999N9999997N5+00175-00945101355ADDMA1101225099105REMMET08201/10/25 14:54:02 METAR K12N 101954Z VRB03KT 02/M09 A2989 RMK AO1 SLP135 T00171094EQDR01      7SKY009R02      7GAS009
0164724077547792025011020547+41009-074736FM-15+0178K12N V0203405N003159999999N9999997N5+00115-00945101265ADDMA1101155099035MD1790169+9999REMMET08801/10/25 15:54:02 METAR K12N 102054Z 34006KT 01/M09 A2987 RMK AO1 SLP126 T00111094 57016EQDR01      7SKY009R02      7GAS009
0144724077547792025011021547+41009-074736FM-15+0178K12N V0203305N001559999999N9999997N5+00065-00945101245ADDMA1101125099005REMMET08201/10/25 16:54:02 METAR K12N 102154Z 33003KT 01/M09 A2986 RMK AO1 SLP124 T00061094EQDR01      7SKY009R02      7GAS009
0151724077547792025011022547+41009-074736FM-15+0178K12N V0203605N001559999999N9999997N5+00005-00945101165ADDMA1101055098935REMMET08901/10/25 17:54:02 METAR K12N 102254Z 36003KT 00/M09 A2984 RMK AO1 PRESFR SLP116 T00001094EQDR01      7SKY009R02      7GAS009
0145724077547792025011100547+41009-074736FM-15+0178K12N V0209999C000059999999N9999997N5-00065-00945101065ADDMA1100955098835REMMET08301/10/25 19:54:01 METAR K12N 110054Z 00000KT M01/M09 A2981 RMK AO1 SLP106 T10061094EQDR01      7SKY009R02      7GAS009
0145724077547792025011101547+41009-074736FM-15+0178K12N V0209999C000059999999N9999997N5-00115-00945101035ADDMA1100915098805REMMET08301/10/25 20:54:01 METAR K12N 110154Z 00000KT M01/M09 A2980 RMK AO1 SLP103 T10111094EQDR01      7SKY009R02      7GAS009
0165724077547792025011102547+41009-074736FM-15+0178K12N V0209999C000059999999N9999997N5-00175-00895100885ADDMA1100785098675MD1890289+9999REMMET08901/10/25 21:54:01 METAR K12N 110254Z 00000KT M02/M09 A2976 RMK AO1 SLP088 T10171089 58028EQDR01      7SKY009R02      7GAS009
0145724077547792025011103547+41009-074736FM-15+0178K12N V0209999C000059999999N9999997N5-00115-00945100755ADDMA1100645098535REMMET08301/10/25 22:54:02 METAR K12N 110354Z 00000KT M01/M09 A2972 RMK AO1 SLP075 T10111094EQDR01      7SKY009R02      7GAS009
0181724077547792025011104547+41009-074736FM-15+0178K12N V0209999C000059999999N9999997N5-00175-00945100735ADDKA1240M+00281KA2240N-00611MA1100645098535REMMET09301/10/25 23:54:02 METAR K12N 110454Z 00000KT M02/M09 A2972 RMK AO1 SLP073 T10171094 400281061EQDR01      7SKY009R02      7GAS009
0203724077547792025011105547+41009-074736FM-15+0178K12N V0209999C000059999999N9999997N5-00175-00895100655ADDKA1060M+00001KA2060N-00221MA1100545098435MD1690229+9999REMMET10101/11/25 00:54:02 METAR K12N 110554Z 00000KT M02/M09 A2969 RMK AO1 SLP065 T10171089 10000 21022 56022EQDR01      7SKY009R02      7GAS009
0145724077547792025011106547+41009-074736FM-15+0178K12N V0209999C000059999999N9999997N5-00175-00945100525ADDMA1100445098335REMMET08301/11/25 01:54:02 METAR K12N 110654Z 00000KT M02/M09 A2966 RMK AO1 SLP052 T10171094EQDR01      7SKY009R02      7GAS009
0215724077547792025011108547+41009-074736FM-15+0178K12N V0209999C000059999999N9999997N5-00335-00615100365ADDAA101000395AA203000391MA1100275098175MD1690289+9999REMMET10101/11/25 03:54:02 METAR K12N 110854Z 00000KT M03/M06 A2961 RMK AO1 SLP036 P0001 60001 T10331061 56028EQDQ01  00028PRCP03R01      7SKY009R02      7GAS009
0162724077547792025011109547+41009-074736FM-15+0178K12N V0209999C000059999999N9999997N5-00395-00565100245ADDAA101000395MA1100145098035REMMET08901/11/25 04:54:02 METAR K12N 110954Z 00000KT M04/M06 A2957 RMK AO1 SLP024 P0001 T10391056EQDR01      7SKY009R02      7GAS009
0162724077547792025011110547+41009-074736FM-15+0178K12N V0209999C000059999999N9999997N5-00395-00565100135ADDAA101000595MA1100005097905REMMET08901/11/25 05:54:02 METAR K12N 111054Z 00000KT M04/M06 A2953 RMK AO1 SLP013 P0002 T10391056EQDR01      7SKY009R02      7GAS009
0269724077547792025011111547+41009-074736FM-15+0178K12N V0209999C000059999999N9999997N5-00395-00615100105ADDAA106001091AA224001091KA1060M-00171KA2060N-00391MA1100005097905MD1690269+9999REMMET11301/11/25 06:54:02 METAR K12N 111154Z 00000KT M04/M06 A2953 RMK AO1 SLP010 60004 70004 T10391061 11017 21039 56026EQDQ01  00108PRCP06Q02  00108PRCP24R01      7SKY009R02      7GAS009
0162724077547792025011112547+41009-074736FM-15+0178K12N V0209999C000059999999N9999997N5-00445-00615100065ADDAA101000395MA1099975097875REMMET08901/11/25 07:54:02 METAR K12N 111254Z 00000KT M04/M06 A2952 RMK AO1 SLP006 P0001 T10441061EQDR01      7SKY009R02      7GAS009
0145724077547792025011113547+41009-074736FM-15+0178K12N V0203405N001559999999N9999997N5-00335-00615100035ADDMA1099935097835REMMET08301/11/25 08:54:02 METAR K12N 111354Z 34003KT M03/M06 A2951 RMK AO1 SLP003 T10331061EQDR01      7SKY009R02      7GAS009
0198724077547792025011114547+41009-074736FM-15+0178K12N V0203405N002159999999N9999997N5-00285-00675100055ADDAA103000391MA1099935097835MD1590049+9999REMMET09501/11/25 09:54:02 METAR K12N 111454Z 34004KT M03/M07 A2951 RMK AO1 SLP005 60001 T10281067 55004EQDQ01  00028PRCP03R01      7SKY009R02      7GAS009
0145724077547792025011115547+41009-074736FM-15+0178K12N V0203505N002159999999N9999997N5-00175-00675099995ADDMA1099905097805REMMET08301/11/25 10:54:02 METAR K12N 111554Z 35004KT M02/M07 A2950 RMK AO1 SLP999 T10171067EQDR01      7SKY009R02      7GAS009
0145724077547792025011116547+41009-074736FM-15+0178K12N V0203205N001559999999N9999997N5-00065-00615099915ADDMA1099805097705REMMET08301/11/25 11:54:02 METAR K12N 111654Z 32003KT M01/M06 A2947 RMK AO1 SLP991 T10061061EQDR01      7SKY009R02      7GAS009
0235724077547792025011117547+41009-074736FM-15+0178K12N V0209999V002159999999N9999997N5+00005-00675099875ADDAA106000391KA1060M+00001KA2060N-00441MA1099765097675MD1690179+9999REMMET10601/11/25 12:54:02 METAR K12N 111754Z VRB04KT 00/M07 A2946 RMK AO1 SLP987 60001 T00001067 10000 21044 56017EQDQ01  00028PRCP06R01      7SKY009R02      7GAS009
0155724077547792025011118547+41009-074736FM-15+0178K12N V0203005N004159999999N9999997N5+00065-00725099925ADDMA1099835097735OC100725REMMET08501/11/25 13:54:02 METAR K12N 111854Z 30008G14KT 01/M07 A2948 RMK AO1 SLP992 T00061072EQDR01      7SKY009R02      7GAS009
0176724077547792025011120547+41009-074736FM-15+0178K12N V0203305V004659999999N9999997N5-00065-00835100215ADDMA1100105098005MD1390339+9999OC100825REMMET09201/11/25 15:54:02 METAR K12N 112054Z 33009G16KT M01/M08 A2956 RMK AO1 SLP021 T10061083 53033EQDR01      7SKY009R02      7GAS009
0156724077547792025011122547+41009-074736FM-15+0178K12N V0203305N004159999999N9999997N5-00175-00895100545ADDMA1100415098305OC100885REMMET08601/11/25 17:54:02 METAR K12N 112254Z 33008G17KT M02/M09 A2965 RMK AO1 SLP054 T10171089EQDR01      7SKY009R02      7GAS009
0145724077547792025011200547+41009-074736FM-15+0178K12N V0209999V002159999999N9999997N5-00175-00895100765ADDMA1100645098535REMMET08301/11/25 19:54:01 METAR K12N 120054Z VRB04KT M02/M09 A2972 RMK AO1 SLP076 T10171089EQDR01      7SKY009R02      7GAS009
0145724077547792025011203547+41009-074736FM-15+0178K12N V0209999V002159999999N9999997N5-00285-00785101005ADDMA1100885098775REMMET08301/11/25 22:54:02 METAR K12N 120354Z VRB04KT M03/M08 A2979 RMK AO1 SLP100 T10281078EQDR01      7SKY009R02      7GAS009
0181724077547792025011204547+41009-074736FM-15+0178K12N V0209999C000059999999N9999997N5-00225-00725101025ADDKA1240M+00061KA2240N-00441MA1100915098805REMMET09301/11/25 23:54:02 METAR K12N 120454Z 00000KT M02/M07 A2980 RMK AO1 SLP102 T10221072 400061044EQDR01      7SKY009R02      7GAS009
0203724077547792025011205547+41009-074736FM-15+0178K12N V0209999C000059999999N9999997N5-00175-00675101085ADDKA1060M-00111KA2060N-00281MA1100985098875MD1190189+9999REMMET10101/12/25 00:54:02 METAR K12N 120554Z 00000KT M02/M07 A2982 RMK AO1 SLP108 T10171067 11011 21028 51018EQDR01      7SKY009R02      7GAS009
0145724077547792025011206547+41009-074736FM-15+0178K12N V0203205N002659999999N9999997N5-00065-00675101105ADDMA1100985098875REMMET08301/12/25 01:54:02 METAR K12N 120654Z 32005KT M01/M07 A2982 RMK AO1 SLP110 T10061067EQDR01      7SKY009R02      7GAS009
0145724077547792025011207547+41009-074736FM-15+0178K12N V0200105N002159999999N9999997N5-00065-00675101245ADDMA1101125099005REMMET08301/12/25 02:54:02 METAR K12N 120754Z 01004KT M01/M07 A2986 RMK AO1 SLP124 T10061067EQDR01      7SKY009R02      7GAS009
0145724077547792025011209547+41009-074736FM-15+0178K12N V0203505N002659999999N9999997N5-00065-00725101425ADDMA1101325099205REMMET08301/12/25 04:54:02 METAR K12N 120954Z 35005KT M01/M07 A2992 RMK AO1 SLP142 T10061072EQDR01      7SKY009R02      7GAS009
0145724077547792025011212547+41009-074736FM-15+0178K12N V0209999C000059999999N9999997N5-00175-00615101545ADDMA1101425099305REMMET08301/12/25 07:54:02 METAR K12N 121254Z 00000KT M02/M06 A2995 RMK AO1 SLP154 T10171061EQDR01      7SKY009R02      7GAS009
0144724077547792025011213547+41009-074736FM-15+0178K12N V0209999C000059999999N9999997N5+00065-00565101605ADDMA1101495099375REMMET08201/12/25 08:54:02 METAR K12N 121354Z 00000KT 01/M06 A2997 RMK AO1 SLP160 T00061056EQDR01      7SKY009R02      7GAS009
0175724077547792025011214547+41009-074736FM-15+0178K12N V0203405N004159999999N9999997N5+00175-00565101675ADDMA1101565099435MD1390199+9999OC100725REMMET09101/12/25 09:54:02 METAR K12N 121454Z 34008G14KT 02/M06 A2999 RMK AO1 SLP167 T00171056 53019EQDR01      7SKY009R02      7GAS009
0144724077547792025011215547+41009-074736FM-15+0178K12N V0203505N003659999999N9999997N5+00285-00505101695ADDMA1101595099475REMMET08201/12/25 10:54:02 METAR K12N 121554Z 35007KT 03/M05 A3000 RMK AO1 SLP169 T00281050EQDR01      7SKY009R02      7GAS009
0144724077547792025011216547+41009-074736FM-15+0178K12N V0203205N003159999999N9999997N5+00395-00505101645ADDMA1101565099435REMMET08201/12/25 11:54:02 METAR K12N 121654Z 32006KT 04/M05 A2999 RMK AO1 SLP164 T00391050EQDR01      7SKY009R02      7GAS009
0144724077547792025011219547+41009-074736FM-15+0178K12N V0209999V001559999999N9999997N5+00335-00615101625ADDMA1101525099405REMMET08201/12/25 14:54:02 METAR K12N 121954Z VRB03KT 03/M06 A2998 RMK AO1 SLP162 T00331061EQDR01      7SKY009R02      7GAS009
0164724077547792025011220547+41009-074736FM-15+0178K12N V0209999C000059999999N9999997N5+00285-00565101655ADDMA1101565099435MD1190049+9999REMMET08801/12/25 15:54:02 METAR K12N 122054Z 00000KT 03/M06 A2999 RMK AO1 SLP165 T00281056 51004EQDR01      7SKY009R02      7GAS009
0144724077547792025011221547+41009-074736FM-15+0178K12N V0209999C000059999999N9999997N5+00175-00505101695ADDMA1101595099475REMMET08201/12/25 16:54:02 METAR K12N 122154Z 00000KT 02/M05 A3000 RMK AO1 SLP169 T00171050EQDR01      7SKY009R02      7GAS009
0145724077547792025011222547+41009-074736FM-15+0178K12N V0209999C000059999999N9999997N5-00115-00615101745ADDMA1101635099505REMMET08301/12/25 17:54:02 METAR K12N 122254Z 00000KT M01/M06 A3001 RMK AO1 SLP174 T10111061EQDR01      7SKY009R02      7GAS009
0145724077547792025011301547+41009-074736FM-15+0178K12N V0209999C000059999999N9999997N5-00285-00565101815ADDMA1101695099575REMMET08301/12/25 20:54:01 METAR K12N 130154Z 00000KT M03/M06 A3003 RMK AO1 SLP181 T10281056EQDR01      7SKY009R02      7GAS009
0165724077547792025011302547+41009-074736FM-15+0178K12N V0209999C000059999999N9999997N5-00225-00505101795ADDMA1101695099575MD1090079+9999REMMET08901/12/25 21:54:02 METAR K12N 130254Z 00000KT M02/M05 A3003 RMK AO1 SLP179 T10221050 50007EQDR01      7SKY009R02      7GAS009
0145724077547792025011303547+41009-074736FM-15+0178K12N V0209999C000059999999N9999997N5-00175-00445101755ADDMA1101665099535REMMET08301/12/25 22:54:02 METAR K12N 130354Z 00000KT M02/M04 A3002 RMK AO1 SLP175 T10171044EQDR01      7SKY009R02      7GAS009
0181724077547792025011304547+41009-074736FM-15+0178K12N V0209999C000059999999N9999997N5-00115-00565101735ADDKA1240M+00391KA2240N-00331MA1101635099505REMMET09301/12/25 23:54:02 METAR K12N 130454Z 00000KT M01/M06 A3001 RMK AO1 SLP173 T10111056 400391033EQDR01      7SKY009R02      7GAS009
0203724077547792025011305547+41009-074736FM-15+0178K12N V0209999C000059999999N9999997N5-00175-00505101705ADDKA1060M-00111KA2060N-00331MA1101595099475MD1890079+9999REMMET10101/13/25 00:54:02 METAR K12N 130554Z 00000KT M02/M05 A3000 RMK AO1 SLP170 T10171050 11011 21033 58007EQDR01      7SKY009R02      7GAS009
0145724077547792025011306547+41009-074736FM-15+0178K12N V0209999C000059999999N9999997N5-00225-00505101655ADDMA1101565099435REMMET08301/13/25 01:54:02 METAR K12N 130654Z 00000KT M02/M05 A2999 RMK AO1 SLP165 T10221050EQDR01      7SKY009R02      7GAS009
0145724077547792025011307547+41009-074736FM-15+0178K12N V0202005N001559999999N9999997N5-00225-00505101625ADDMA1101525099405REMMET08301/13/25 02:54:02 METAR K12N 130754Z 20003KT M02/M05 A2998 RMK AO1 SLP162 T10221050EQDR01      7SKY009R02      7GAS009
0145724077547792025011310547+41009-074736FM-15+0178K12N V0209999C000059999999N9999997N5-00565-00725101595ADDMA1101465099335REMMET08301/13/25 05:54:02 METAR K12N 131054Z 00000KT M06/M07 A2996 RMK AO1 SLP159 T10561072EQDR01      7SKY009R02      7GAS009
0235724077547792025011311547+41009-074736FM-15+0178K12N V0201905N001559999999N9999997N5-00395-00615101605ADDKA1060M-00111KA2060N-00561MA1101495099375MD1390009+9999REMMET10101/13/25 06:54:02 METAR K12N 131154Z 19003KT M04/M06 A2997 RMK AO1 SLP160 T10391061 11011 21056 53000EQDQ013     3APCTENQ020     3APC3  R01      7SKY009R02      7GAS009
0145724077547792025011313547+41009-074736FM-15+0178K12N V0201805N001559999999N9999997N5-00065-00675101575ADDMA1101465099335REMMET08301/13/25 08:54:02 METAR K12N 131354Z 18003KT M01/M07 A2996 RMK AO1 SLP157 T10061067EQDR01      7SKY009R02      7GAS009
0164724077547792025011314547+41009-074736FM-15+0178K12N V0209999V002159999999N9999997N5+00065-00615101565ADDMA1101465099335MD1590029+9999REMMET08801/13/25 09:54:02 METAR K12N 131454Z VRB04KT 01/M06 A2996 RMK AO1 SLP156 T00061061 55002EQDR01      7SKY009R02      7GAS009
0144724077547792025011315547+41009-074736FM-15+0178K12N V0209999C000059999999N9999997N5+00115-00615101535ADDMA1101425099305REMMET08201/13/25 10:54:02 METAR K12N 131554Z 00000KT 01/M06 A2995 RMK AO1 SLP153 T00111061EQDR01      7SKY009R02      7GAS009
0144724077547792025011316547+41009-074736FM-15+0178K12N V0201905N001559999999N9999997N5+00175-00565101405ADDMA1101295099175REMMET08201/13/25 11:54:02 METAR K12N 131654Z 19003KT 02/M06 A2991 RMK AO1 SLP140 T00171056EQDR01      7SKY009R02      7GAS009
0202724077547792025011317547+41009-074736FM-15+0178K12N V0202005N002659999999N9999997N5+00225-00565101295ADDKA1060M+00221KA2060N-00391MA1101195099075MD1890269+9999REMMET10001/13/25 12:54:02 METAR K12N 131754Z 20005KT 02/M06 A2988 RMK AO1 SLP129 T00221056 10022 21039 58026EQDR01      7SKY009R02      7GAS009
0155724077547792025011318547+41009-074736FM-15+0178K12N V0202205N003659999999N9999997N5+00395-00565101225ADDMA1101125099005OC100935REMMET08501/13/25 13:54:02 METAR K12N 131854Z 22007G18KT 04/M06 A2986 RMK AO1 SLP122 T00391056EQDR01      7SKY009R02      7GAS009
0144724077547792025011319547+41009-074736FM-15+0178K12N V0202205N003159999999N9999997N5+00395-00565101195ADDMA1101085098975REMMET08201/13/25 14:54:02 METAR K12N 131954Z 22006KT 04/M06 A2985 RMK AO1 SLP119 T00391056EQDR01      7SKY009R02      7GAS009
0164724077547792025011320547+41009-074736FM-15+0178K12N V0202605N004159999999N9999997N5+00445-00725101235ADDMA1101125099005MD1590069+9999REMMET08801/13/25 15:54:02 METAR K12N 132054Z 26008KT 04/M07 A2986 RMK AO1 SLP123 T00441072 55006EQDR01      7SKY009R02      7GAS009
0144724077547792025011321547+41009-074736FM-15+0178K12N V0209999C000059999999N9999997N5+00285-00675101295ADDMA1101195099075REMMET08201/13/25 16:54:02 METAR K12N 132154Z 00000KT 03/M07 A2988 RMK AO1 SLP129 T00281067EQDR01      7SKY009R02      7GAS009
0203724077547792025011323547+41009-074736FM-15+0178K12N V0209999C000059999999N9999997N5-00285-00675101405ADDKA1060M+00501KA2060N-00331MA1101255099135MD1390149+9999REMMET10101/13/25 18:54:02 METAR K12N 132354Z 00000KT M03/M07 A2990 RMK AO1 SLP140 T10281067 10050 21033 53014EQDR01      7SKY009R02      7GAS009
0164724077547792025011402547+41009-074736FM-15+0178K12N V0209999V001559999999N9999997N5+00005-00835101425ADDMA1101325099205MD1390059+9999REMMET08801/13/25 21:54:01 METAR K12N 140254Z VRB03KT 00/M08 A2992 RMK AO1 SLP142 T00001083 53005EQDR01      7SKY009R02      7GAS009
0145724077547792025011403547+41009-074736FM-15+0178K12N V0209999C000059999999N9999997N5-00335-00835101455ADDMA1101355099235REMMET08301/13/25 22:54:02 METAR K12N 140354Z 00000KT M03/M08 A2993 RMK AO1 SLP145 T10331083EQDR01      7SKY009R02      7GAS009
0181724077547792025011404547+41009-074736FM-15+0178K12N V0209999V001559999999N9999997N5-00565-00945101465ADDKA1240M+00501KA2240N-00561MA1101355099235REMMET09301/13/25 23:54:02 METAR K12N 140454Z VRB03KT M06/M09 A2993 RMK AO1 SLP146 T10561094 400501056EQDR01      7SKY009R02      7GAS009
0145724077547792025011406547+41009-074736FM-15+0178K12N V0209999C000059999999N9999997N5-00445-00895101525ADDMA1101425099305REMMET08301/14/25 01:54:02 METAR K12N 140654Z 00000KT M04/M09 A2995 RMK AO1 SLP152 T10441089EQDR01      7SKY009R02      7GAS009
0145724077547792025011407547+41009-074736FM-15+0178K12N V0209999C000059999999N9999997N5-00335-00835101525ADDMA1101425099305REMMET08301/14/25 02:54:02 METAR K12N 140754Z 00000KT M03/M08 A2995 RMK AO1 SLP152 T10331083EQDR01      7SKY009R02      7GAS009
0165724077547792025011408547+41009-074736FM-15+0178K12N V0209999V001559999999N9999997N5-00285-01115101505ADDMA1101395099275MD1090059+9999REMMET08901/14/25 03:54:02 METAR K12N 140854Z VRB03KT M03/M11 A2994 RMK AO1 SLP150 T10281111 50005EQDR01      7SKY009R02      7GAS009
0156724077547792025011409547+41009-074736FM-15+0178K12N V0203105V004659999999N9999997N5-00285-01225101615ADDMA1101495099375OC101135REMMET08601/14/25 04:54:02 METAR K12N 140954Z 31009G22KT M03/M12 A2997 RMK AO1 SLP161 T10281122EQDR01      7SKY009R02      7GAS009
0145724077547792025011410547+41009-074736FM-15+0178K12N V0209999V001559999999N9999997N5-00395-01445101675ADDMA1101565099435REMMET08301/14/25 05:54:02 METAR K12N 141054Z VRB03KT M04/M14 A2999 RMK AO1 SLP167 T10391144EQDR01      7SKY009R02      7GAS009
0156724077547792025011413547+41009-074736FM-15+0178K12N V0203105N005759999999N9999997N5-00395-01445101845ADDMA1101735099605OC100985REMMET08601/14/25 08:54:02 METAR K12N 141354Z 31011G19KT M04/M14 A3004 RMK AO1 SLP184 T10391144EQDR01      7SKY009R02      7GAS009
0165724077547792025011414547+41009-074736FM-15+0178K12N V0202905V004159999999N9999997N5-00335-01335101905ADDMA1101795099675MD1390189+9999REMMET08901/14/25 09:54:02 METAR K12N 141454Z 29008KT M03/M13 A3006 RMK AO1 SLP190 T10331133 53018EQDR01      7SKY009R02      7GAS009
0156724077547792025011415547+41009-074736FM-15+0178K12N V0209999V002659999999N9999997N5-00225-01335101905ADDMA1101765099635OC100725REMMET08601/14/25 10:54:02 METAR K12N 141554Z VRB05G14KT M02/M13 A3005 RMK AO1 SLP190 T10221133EQDR01      7SKY009R02      7GAS009
0145724077547792025011416547+41009-074736FM-15+0178K12N V0209999V003159999999N9999997N5-00225-01445101775ADDMA1101635099505REMMET08301/14/25 11:54:02 METAR K12N 141654Z VRB06KT M02/M14 A3001 RMK AO1 SLP177 T10221144EQDR01      7SKY009R02      7GAS009
0203724077547792025011417547+41009-074736FM-15+0178K12N V0209999V002159999999N9999997N5-00175-01395101675ADDKA1060M-00111KA2060N-00501MA1101525099405MD1890259+9999REMMET10101/14/25 12:54:02 METAR K12N 141754Z VRB04KT M02/M14 A2998 RMK AO1 SLP167 T10171139 11011 21050 58025EQDR01      7SKY009R02      7GAS009
0165724077547792025011420547+41009-074736FM-15+0178K12N V0209999V002659999999N9999997N5-00225-01445101535ADDMA1101425099305MD1690119+9999REMMET08901/14/25 15:54:02 METAR K12N 142054Z VRB05KT M02/M14 A2995 RMK AO1 SLP153 T10221144 56011EQDR01      7SKY009R02      7GAS009
0145724077547792025011421547+41009-074736FM-15+0178K12N V0209999N999999999999N9999997N5-00285-01395101635ADDMA1101495099375REMMET08301/14/25 16:54:02 METAR K12N 142154Z      KT M03/M14 A2997 RMK AO1 SLP163 T10281139EQDR01      7SKY009R02      7GAS009
0145724077547792025011422547+41009-074736FM-15+0178K12N V0202305N002659999999N9999997N5-00335-01445101655ADDMA1101525099405REMMET08301/14/25 17:54:02 METAR K12N 142254Z 23005KT M03/M14 A2998 RMK AO1 SLP165 T10331144EQDR01      7SKY009R02      7GAS009
0203724077547792025011423547+41009-074736FM-15+0178K12N V0209999V002659999999N9999997N5-00335-01395101715ADDKA1060M+00001KA2060N-00331MA1101565099435MD1190169+9999REMMET10101/14/25 18:54:02 METAR K12N 142354Z VRB05KT M03/M14 A2999 RMK AO1 SLP171 T10331139 10000 21033 51016EQDR01      7SKY009R02      7GAS009
0145724077547792025011500547+41009-074736FM-15+0178K12N V0209999V002659999999N9999997N5-00395-01285101755ADDMA1101635099505REMMET08301/14/25 19:54:01 METAR K12N 150054Z VRB05KT M04/M13 A3001 RMK AO1 SLP175 T10391128EQDR01      7SKY009R02      7GAS009
0165724077547792025011502547+41009-074736FM-15+0178K12N V0209999V001559999999N9999997N5-00565-01115101835ADDMA1101695099575MD1390129+9999REMMET08901/14/25 21:54:01 METAR K12N 150254Z VRB03KT M06/M11 A3003 RMK AO1 SLP183 T10561111 53012EQDR01      7SKY009R02      7GAS009
0145724077547792025011503547+41009-074736FM-15+0178K12N V0209999N999999999999N9999997N5-00615-01225101865ADDMA1101735099605REMMET08301/14/25 22:54:01 METAR K12N 150354Z      KT M06/M12 A3004 RMK AO1 SLP186 T10611122EQDR01      7SKY009R02      7GAS009
0181724077547792025011504547+41009-074736FM-15+0178K12N V0209999V001559999999N9999997N5-00615-01445101875ADDKA1240M+00001KA2240N-00671MA1101735099605REMMET09301/14/25 23:54:01 METAR K12N 150454Z VRB03KT M06/M14 A3004 RMK AO1 SLP187 T10611144 400001067EQDR01      7SKY009R02      7GAS009
0203724077547792025011505547+41009-074736FM-15+0178K12N V0209999V001559999999N9999997N5-00675-01505101895ADDKA1060M-00331KA2060N-00671MA1101765099635MD1190069+9999REMMET10101/15/25 00:54:01 METAR K12N 150554Z VRB03KT M07/M15 A3005 RMK AO1 SLP189 T10671150 11033 21067 51006EQDR01      7SKY009R02      7GAS009
0145724077547792025011506547+41009-074736FM-15+0178K12N V0209999C000059999999N9999997N5-00725-01565101925ADDMA1101795099675REMMET08301/15/25 01:54:01 METAR K12N 150654Z 00000KT M07/M16 A3006 RMK AO1 SLP192 T10721156EQDR01      7SKY009R02      7GAS009
0145724077547792025011507547+41009-074736FM-15+0178K12N V0209999C000059999999N9999997N5-00725-01505101965ADDMA1101835099705REMMET08301/15/25 02:54:01 METAR K12N 150754Z 00000KT M07/M15 A3007 RMK AO1 SLP196 T10721150EQDR01      7SKY009R02      7GAS009
0165724077547792025011508547+41009-074736FM-15+0178K12N V0209999V002659999999N9999997N5-00725-01445102005ADDMA1101865099735MD1390119+9999REMMET08901/15/25 03:54:01 METAR K12N 150854Z VRB05KT M07/M14 A3008 RMK AO1 SLP200 T10721144 53011EQDR01      7SKY009R02      7GAS009
0203724077547792025011511547+41009-074736FM-15+0178K12N V0209999V002159999999N9999997N5-00615-01285102135ADDKA1060M-00611KA2060N-00781MA1102005099875MD1390139+9999REMMET10101/15/25 06:54:02 METAR K12N 151154Z VRB04KT M06/M13 A3012 RMK AO1 SLP213 T10611128 11061 21078 53013EQDR01      7SKY009R02      7GAS009
0156724077547792025011512547+41009-074736FM-15+0178K12N V0209999V003159999999N9999997N5-00565-01285102195ADDMA1102035099905OC100825REMMET08601/15/25 07:54:02 METAR K12N 151254Z VRB06G16KT M06/M13 A3013 RMK AO1 SLP219 T10561128EQDR01      7SKY009R02      7GAS009
0156724077547792025011513547+41009-074736FM-15+0178K12N V0209999V002659999999N9999997N5-00445-01225102245ADDMA1102105099965OC100775REMMET08601/15/25 08:54:02 METAR K12N 151354Z VRB05G15KT M04/M12 A3015 RMK AO1 SLP224 T10441122EQDR01      7SKY009R02      7GAS009
0208724077547792025011514547+41009-074736FM-15+0178K12N V0203305N005159999999N9999997N5-00395-01225102335ADDMA1102205100065MD1390199+9999OC100935OD149901391360REMMET11001/15/25 09:54:02 METAR K12N 151454Z 33010G18KT M04/M12 A3018 RMK AO1 PK WND 36027/1426 SLP233 T10391122 53019EQDR01      7SKY009R02      7GAS009
0156724077547792025011515547+41009-074736FM-15+0178K12N V0203605V004159999999N9999997N5-00285-01285102325ADDMA1102175100035OC101085REMMET08601/15/25 10:54:02 METAR K12N 151554Z 36008G21KT M03/M13 A3017 RMK AO1 SLP232 T10281128EQDR01      7SKY009R02      7GAS009
0214724077547792025011517547+41009-074736FM-15+0178K12N V0203105V005159999999N9999997N5-00175-01335102145ADDKA1060M-00061KA2060N-00611MA1102005099875MD1890199+9999OC101035REMMET10401/15/25 12:54:02 METAR K12N 151754Z 31010G20KT M02/M13 A3012 RMK AO1 SLP214 T10171133 11006 21061 58019EQDR01      7SKY009R02      7GAS009
0145724077547792025011518547+41009-074736FM-15+0178K12N V0203105V003659999999N9999997N5-00065-01335102065ADDMA1101935099805REMMET08301/15/25 13:54:02 METAR K12N 151854Z 31007KT M01/M13 A3010 RMK AO1 SLP206 T10061133EQDR01      7SKY009R02      7GAS009
0156724077547792025011519547+41009-074736FM-15+0178K12N V0203505V004159999999N9999997N5-00175-01335102095ADDMA1101935099805OC101035REMMET08601/15/25 14:54:02 METAR K12N 151954Z 35008G20KT M02/M13 A3010 RMK AO1 SLP209 T10171133EQDR01      7SKY009R02      7GAS009
0208724077547792025011520547+41009-074736FM-15+0178K12N V0203405N006259999999N9999997N5-00225-01335102165ADDMA1102035099905MD1390039+9999OC101445OD149901441340REMMET11001/15/25 15:54:02 METAR K12N 152054Z 34012G28KT M02/M13 A3013 RMK AO1 PK WND 34028/2054 SLP216 T10221133 53003EQDR01      7SKY009R02      7GAS009
0145724077547792025011521547+41009-074736FM-15+0178K12N V0209999V002159999999N9999997N5-00335-01335102215ADDMA1102075099935REMMET08301/15/25 16:54:02 METAR K12N 152154Z VRB04KT M03/M13 A3014 RMK AO1 SLP221 T10331133EQDR01      7SKY009R02      7GAS009
0145724077547792025011522547+41009-074736FM-15+0178K12N V0203405N001559999999N9999997N5-00395-01335102255ADDMA1102105099965REMMET08301/15/25 17:54:02 METAR K12N 152254Z 34003KT M04/M13 A3015 RMK AO1 SLP225 T10391133EQDR01      7SKY009R02      7GAS009
0145724077547792025011601547+41009-074736FM-15+0178K12N V0209999C000059999999N9999997N5-00395-01335102205ADDMA1102075099935REMMET08301/15/25 20:54:01 METAR K12N 160154Z 00000KT M04/M13 A3014 RMK AO1 SLP220 T10391133EQDR01      7SKY009R02      7GAS009
0165724077547792025011602547+41009-074736FM-15+0178K12N V0209999C000059999999N9999997N5-00395-01225102185ADDMA1102035099905MD1890059+9999REMMET08901/15/25 21:54:01 METAR K12N 160254Z 00000KT M04/M12 A3013 RMK AO1 SLP218 T10391122 58005EQDR01      7SKY009R02      7GAS009
0181724077547792025011604547+41009-074736FM-15+0178K12N V0209999C000059999999N9999997N5-00785-01225102085ADDKA1240M+00001KA2240N-00781MA1101935099805REMMET09301/15/25 23:54:01 METAR K12N 160454Z 00000KT M08/M12 A3010 RMK AO1 SLP208 T10781122 400001078EQDR01      7SKY009R02      7GAS009
0203724077547792025011605547+41009-074736FM-15+0178K12N V0209999C000059999999N9999997N5-00785-01115102035ADDKA1060M-00391KA2060N-00831MA1101905099775MD1890159+9999REMMET10101/16/25 00:54:01 METAR K12N 160554Z 00000KT M08/M11 A3009 RMK AO1 SLP203 T10781111 11039 21083 58015EQDR01      7SKY009R02      7GAS009
0145724077547792025011606547+41009-074736FM-15+0178K12N V0202005N002159999999N9999997N5-00505-01005102005ADDMA1101865099735REMMET08301/16/25 01:54:01 METAR K12N 160654Z 20004KT M05/M10 A3008 RMK AO1 SLP200 T10501100EQDR01      7SKY009R02      7GAS009
0145724077547792025011607547+41009-074736FM-15+0178K12N V0209999V001559999999N9999997N5-00505-01115102025ADDMA1101905099775REMMET08301/16/25 02:54:01 METAR K12N 160754Z VRB03KT M05/M11 A3009 RMK AO1 SLP202 T10501111EQDR01      7SKY009R02      7GAS009
0165724077547792025011608547+41009-074736FM-15+0178K12N V0202105N002659999999N9999997N5-00505-01175101965ADDMA1101835099705MD1890059+9999REMMET08901/16/25 03:54:01 METAR K12N 160854Z 21005KT M05/M12 A3007 RMK AO1 SLP196 T10501117 58005EQDR01      7SKY009R02      7GAS009
0145724077547792025011609547+41009-074736FM-15+0178K12N V0209999V001559999999N9999997N5-00675-01335101935ADDMA1101765099635REMMET08301/16/25 04:54:02 METAR K12N 160954Z VRB03KT M07/M13 A3005 RMK AO1 SLP193 T10671133EQDR01      7SKY009R02      7GAS009
0145724077547792025011612547+41009-074736FM-15+0178K12N V0209999C000059999999N9999997N5-01005-01285101835ADDMA1101665099535REMMET08301/16/25 07:54:02 METAR K12N 161254Z 00000KT M10/M13 A3002 RMK AO1 SLP183 T11001128EQDR01      7SKY009R02      7GAS009
0145724077547792025011613547+41009-074736FM-15+0178K12N V0209999C000059999999N9999997N5-00675-01175101775ADDMA1101635099505REMMET08301/16/25 08:54:02 METAR K12N 161354Z 00000KT M07/M12 A3001 RMK AO1 SLP177 T10671117EQDR01      7SKY009R02      7GAS009
0165724077547792025011614547+41009-074736FM-15+0178K12N V0209999C000059999999N9999997N5-00615-01225101695ADDMA1101525099405MD1890199+9999REMMET08901/16/25 09:54:02 METAR K12N 161454Z 00000KT M06/M12 A2998 RMK AO1 SLP169 T10611122 58019EQDR01      7SKY009R02      7GAS009
0145724077547792025011615547+41009-074736FM-15+0178K12N V0202005N003159999999N9999997N5-00565-01225101595ADDMA1101465099335REMMET08301/16/25 10:54:02 METAR K12N 161554Z 20006KT M06/M12 A2996 RMK AO1 SLP159 T10561122EQDR01      7SKY009R02      7GAS009
0145724077547792025011616547+41009-074736FM-15+0178K12N V0202305N003659999999N9999997N5-00445-01225101435ADDMA1101295099175REMMET08301/16/25 11:54:02 METAR K12N 161654Z 23007KT M04/M12 A2991 RMK AO1 SLP143 T10441122EQDR01      7SKY009R02      7GAS009
0203724077547792025011617547+41009-074736FM-15+0178K12N V0202205N003659999999N9999997N5-00565-01065101285ADDKA1060M-00441KA2060N-01001MA1101125099005MD1890419+9999REMMET10101/16/25 12:54:02 METAR K12N 161754Z 22007KT M06/M11 A2986 RMK AO1 SLP128 T10561106 11044 21100 58041EQDR01      7SKY009R02      7GAS009
0145724077547792025011618547+41009-074736FM-15+0178K12N V0202105N004159999999N9999997N5-00505-00945101165ADDMA1101025098905REMMET08301/16/25 13:54:02 METAR K12N 161854Z 21008KT M05/M09 A2983 RMK AO1 SLP116 T10501094EQDR01      7SKY009R02      7GAS009
0165724077547792025011620547+41009-074736FM-15+0178K12N V0202105N004159999999N9999997N5-00395-00785101015ADDMA1100885098775MD1690249+9999REMMET08901/16/25 15:54:02 METAR K12N 162054Z 21008KT M04/M08 A2979 RMK AO1 SLP101 T10391078 56024EQDR01      7SKY009R02      7GAS009
0145724077547792025011621547+41009-074736FM-15+0178K12N V0209999V002159999999N9999997N5-00445-00725101025ADDMA1100885098775REMMET08301/16/25 16:54:02 METAR K12N 162154Z VRB04KT M04/M07 A2979 RMK AO1 SLP102 T10441072EQDR01      7SKY009R02      7GAS009
0203724077547792025011623547+41009-074736FM-15+0178K12N V0202105N001559999999N9999997N5-00505-00725101095ADDKA1060M-00391KA2060N-00561MA1100915098805MD1390059+9999REMMET10101/16/25 18:54:02 METAR K12N 162354Z 21003KT M05/M07 A2980 RMK AO1 SLP109 T10501072 11039 21056 53005EQDR01      7SKY009R02      7GAS009
0145724077547792025011700547+41009-074736FM-15+0178K12N V0202005N002159999999N9999997N5-00505-00675101105ADDMA1100955098835REMMET08301/16/25 19:54:01 METAR K12N 170054Z 20004KT M05/M07 A2981 RMK AO1 SLP110 T10501067EQDR01      7SKY009R02      7GAS009
0165724077547792025011702547+41009-074736FM-15+0178K12N V0209999C000059999999N9999997N5-00565-00785101145ADDMA1100985098875MD1390069+9999REMMET08901/16/25 21:54:01 METAR K12N 170254Z 00000KT M06/M08 A2982 RMK AO1 SLP114 T10561078 53006EQDR01      7SKY009R02      7GAS009
0145724077547792025011703547+41009-074736FM-15+0178K12N V0201805N001559999999N9999997N5-00615-00835101155ADDMA1101025098905REMMET08301/16/25 22:54:01 METAR K12N 170354Z 18003KT M06/M08 A2983 RMK AO1 SLP115 T10611083EQDR01      7SKY009R02      7GAS009
0181724077547792025011704547+41009-074736FM-15+0178K12N V0209999C000059999999N9999997N5-00835-01005101195ADDKA1240M-00391KA2240N-01001MA1101055098935REMMET09301/16/25 23:54:01 METAR K12N 170454Z 00000KT M08/M10 A2984 RMK AO1 SLP119 T10831100 410391100EQDR01      7SKY009R02      7GAS009
0203724077547792025011705547+41009-074736FM-15+0178K12N V0209999C000059999999N9999997N5-00835-01005101235ADDKA1060M-00501KA2060N-00831MA1101085098975MD1390089+9999REMMET10101/17/25 00:54:01 METAR K12N 170554Z 00000KT M08/M10 A2985 RMK AO1 SLP123 T10831100 11050 21083 53008EQDR01      7SKY009R02      7GAS009
0145724077547792025011706547+41009-074736FM-15+0178K12N V0209999C000059999999N9999997N5-00945-01115101315ADDMA1101155099035REMMET08301/17/25 01:54:01 METAR K12N 170654Z 00000KT M09/M11 A2987 RMK AO1 SLP131 T10941111EQDR01      7SKY009R02      7GAS009
0145724077547792025011707547+41009-074736FM-15+0178K12N V0209999C000059999999N9999997N5-00945-01225101395ADDMA1101225099105REMMET08301/17/25 02:54:01 METAR K12N 170754Z 00000KT M09/M12 A2989 RMK AO1 SLP139 T10941122EQDR01      7SKY009R02      7GAS009
0165724077547792025011708547+41009-074736FM-15+0178K12N V0209999C000059999999N9999997N5-00895-01115101435ADDMA1101295099175MD1190199+9999REMMET08901/17/25 03:54:01 METAR K12N 170854Z 00000KT M09/M11 A2991 RMK AO1 SLP143 T10891111 51019EQDR01      7SKY009R02      7GAS009
0145724077547792025011709547+41009-074736FM-15+0178K12N V0209999C000059999999N9999997N5-01005-01225101535ADDMA1101355099235REMMET08301/17/25 04:54:02 METAR K12N 170954Z 00000KT M10/M12 A2993 RMK AO1 SLP153 T11001122EQDR01      7SKY009R02      7GAS009
0145724077547792025011710547+41009-074736FM-15+0178K12N V0209999C000059999999N9999997N5-00945-01225101605ADDMA1101465099335REMMET08301/17/25 05:54:02 METAR K12N 171054Z 00000KT M09/M12 A2996 RMK AO1 SLP160 T10941122EQDR01      7SKY009R02      7GAS009
0203724077547792025011711547+41009-074736FM-15+0178K12N V0209999C000059999999N9999997N5-00835-01005101695ADDKA1060M-00781KA2060N-01061MA1101525099405MD1390269+9999REMMET10101/17/25 06:54:02 METAR K12N 171154Z 00000KT M08/M10 A2998 RMK AO1 SLP169 T10831100 11078 21106 53026EQDR01      7SKY009R02      7GAS009
