0155724077547792021010100547+41009-074736FM-15+0178K12N V0209999V001559999999N9999997N5+00115-00505102795ADDAA101000095MA1102715100565REMMET08212/31/20 19:54:03 METAR K12N 010054Z VRB03KT 01/M05 A3033 RMK AO1 SLP279 T00111050EQDR01      7SKY009R02      7GAS009
0155724077547792021010101547+41009-074736FM-15+0178K12N V0203405N002159999999N9999997N5+00005-00505102865ADDAA101000095MA1102785100635REMMET08212/31/20 20:54:03 METAR K12N 010154Z 34004KT 00/M05 A3035 RMK AO1 SLP286 T00001050EQDR01      7SKY009R02      7GAS009
0176724077547792021010102547+41009-074736FM-15+0178K12N V0209999C000059999999N9999997N5-00175-00395102975ADDAA101000095MA1102885100735MD1390229+9999REMMET08912/31/20 21:54:03 METAR K12N 010254Z 00000KT M02/M04 A3038 RMK AO1 SLP297 T10171039 53022EQDR01      7SKY009R02      7GAS009
0156724077547792021010103547+41009-074736FM-15+0178K12N V0209999C000059999999N9999997N5-00285-00505103025ADDAA101000095MA1102915100765REMMET08312/31/20 22:54:03 METAR K12N 010354Z 00000KT M03/M05 A3039 RMK AO1 SLP302 T10281050EQDR01      7SKY009R02      7GAS009
0192724077547792021010104547+41009-074736FM-15+0178K12N V0209999C000059999999N9999997N5-00335-00505103045ADDAA101000095KA1240M+00501KA2240N-00331MA1102955100805REMMET09312/31/20 23:54:03 METAR K12N 010454Z 00000KT M03/M05 A3040 RMK AO1 SLP304 T10331050 400501033EQDR01      7SKY009R02      7GAS009
0902724077547792021010104596+41009-074736SOD  +0178K12N V020999999999999999999999999999+99999+99999999999ADDAA124005696KA1240M+00505KA2240N-00385MG1099804101424OE11240062602013145OE22240044735014035OE33240013999999995REMSOD73024 HR PRECIPITATION (IN):0.22  24 HR MAX TEMP (F):41 24 HR MAX TEMP TIME (LST):1258 24 HR MIN TEMP (F):25 24 HR MIN TEMP TIME (LST):2359 AVERAGE STATION PRESSURE:29.470 MINIMUM SEA LEVEL PRESSURE:29.95 TIME OF OCCURRENCE:0437 PEAK WIND SPEED (MPH):14  PEAK WIND DIR (DEG):20  PEAK WIND TIME (LST):1314  FASTEST 2MIN SPEED (MPH):10 FASTEST 2MIN DIR (DEG):350 FASTEST 2MIN TIME (LST):1403 AVERAGE WIND SPEED (MPH):3.1  24 HR AVG TEMP (F):33 HEATING DEGREE DAYS:32  COOLING DEGREE DAYS:0   LATEST DAY MAX TEMP (0700-1900 LST):41  LATEST NIGHT MIN TEMP(1900-0800 LST):36 HOURLY INCREMENTAL PRECIPITATION VALUES (IN):.00 0.00 0.02 0.05 0.06 0.01 0.01 0.05 0.02 0.00 0.00 0.00 0.00 0.00 0.00 0.00 0.00 0.00 0.00 0.00 0.00 0.00 0.00 0.00EQDR01  0.227AAP092R02     N7GJS072R03     N7GKS075
1259724077547792021010104596+41009-074736SOM  +0178K12N V020999999999999999999999999999+99999+99999999999ADDAB10136196AD10063592425999999996AE1105095055025AH1005002392422095AH2010003692500465AH3015004692500025AH4020005892500045AH5030008192500175AH6045011492500425AI1060015592500465AI2080018892501025AI3100021892501025AI4120024692501075AI5150029592500525AI6180035392501045KB1744N-03615KB2744M+05835KB3744A+01115KC1N9-01501999995KC2M9+01772599995KD1744H09545KD2744C00005KE1035005265005MH1099484101734MK1103563002275099422511525REMSOM795PCP MTOT:5.36 PCP GT 24HRS:2.50 DATE(S):24-25 DAYS W/PCP >=.01:10 DAYS W/PCP >=.10:9  DAYS W/ PCP >=.50:5 DAYS W/PCP >=1.00:2 MSDP AMTS W/DATE-TIME TAGS:MIN:5 0.09  24/2209 MIN:10 0.14  25/0046 MIN:15 0.18  25/0002 MIN:20 0.23  25/0004 MIN:30 0.32  25/0017 MIN:45 0.45  25/0042 MIN:60 0.61  25/0046 MIN:80 0.74  25/0102 MIN:100 0.86  25/0102 MIN:120 0.97  25/0107 MIN:150 1.16  25/0052 MIN:180 1.39  25/0104 AVG DLY MIN:25.5  AVG DLY MAX:42.5  AVG MLY TMP:34.0  MIN TMP:5  DATE(S):19 MAX TMP:64  DATE(S):25 DAYS MAX <=32:3 DAYS MAX >=90:0  DAYS MIN <=32:26 DAYS MIN  <=0:0  AVG STP:29.375 LWST SLP:29.36 DATE/TIME:251152 HGST SLP:30.58 DATE/TIME:300227 HDD MTH TOT:954 DEP NORM:-2553 SEASON(JUL 1-JUN 30):1930 DEP NORM:-25536 CDD MTH TOT:0 DEP NORM:-2553 SEASON(JAN 1-DEC 31):959 DEP NORM:-25536EQDR01  5.367ABP070R02  2.507ADP081
0214724077547792021010105547+41009-074736FM-15+0178K12N V0209999C000059999999N9999997N5-00395-00505103135ADDAA101000095KA1060M+00221KA2060N-00391MA1103015100865MD1390159+9999REMMET10101/01/21 00:54:02 METAR K12N 010554Z 00000KT M04/M05 A3042 RMK AO1 SLP313 T10391050 10022 21039 53015EQDR01      7SKY009R02      7GAS009
0156724077547792021010106547+41009-074736FM-15+0178K12N V0209999C000059999999N9999997N5-00395-00505103215ADDAA101000095MA1103085100935REMMET08301/01/21 01:54:02 METAR K12N 010654Z 00000KT M04/M05 A3044 RMK AO1 SLP321 T10391050EQDR01      7SKY009R02      7GAS009
0156724077547792021010107547+41009-074736FM-15+0178K12N V0209999C000059999999N9999997N5-00505-00675103235ADDAA101000095MA1103125100965REMMET08301/01/21 02:54:02 METAR K12N 010754Z 00000KT M05/M07 A3045 RMK AO1 SLP323 T10501067EQDR01      7SKY009R02      7GAS009
0176724077547792021010108547+41009-074736FM-15+0178K12N V0209999C000059999999N9999997N5-00445-00615103255ADDAA101000095MA1103125100965MD1190109+9999REMMET08901/01/21 03:54:02 METAR K12N 010854Z 00000KT M04/M06 A3045 RMK AO1 SLP325 T10441061 51010EQDR01      7SKY009R02      7GAS009
0156724077547792021010109547+41009-074736FM-15+0178K12N V0209999C000059999999N9999997N5-00505-00675103285ADDAA101000095MA1103155101005REMMET08301/01/21 04:54:02 METAR K12N 010954Z 00000KT M05/M07 A3046 RMK AO1 SLP328 T10501067EQDR01      7SKY009R02      7GAS009
0156724077547792021010110547+41009-074736FM-15+0178K12N V0209999C000059999999N9999997N5-00565-00725103275ADDAA101000095MA1103155101005REMMET08301/01/21 05:54:02 METAR K12N 011054Z 00000KT M06/M07 A3046 RMK AO1 SLP327 T10561072EQDR01      7SKY009R02      7GAS009
0231724077547792021010111547+41009-074736FM-15+0178K12N V0209999C000059999999N9999997N5-00565-00725103395ADDAA101000095AA224001891KA1060M-00331KA2060N-00611MA1103255101105MD1390139+9999REMMET10701/01/21 06:54:02 METAR K12N 011154Z 00000KT M06/M07 A3049 RMK AO1 SLP339 70007 T10561072 11033 21061 53013EQDR01      7SKY009R02      7GAS009
0156724077547792021010112547+41009-074736FM-15+0178K12N V0209999C000059999999N9999997N5-00565-00785103385ADDAA101000095MA1103255101105REMMET08301/01/21 07:54:02 METAR K12N 011254Z 00000KT M06/M08 A3049 RMK AO1 SLP338 T10561078EQDR01      7SKY009R02      7GAS009
0156724077547792021010113547+41009-074736FM-15+0178K12N V0209999C000059999999N9999997N5-00335-00505103405ADDAA101000095MA1103285101135REMMET08301/01/21 08:54:02 METAR K12N 011354Z 00000KT M03/M05 A3050 RMK AO1 SLP340 T10331050EQDR01      7SKY009R02      7GAS009
0176724077547792021010114547+41009-074736FM-15+0178K12N V0209999C000059999999N9999997N5-00115-00285103455ADDAA101000095MA1103325101165MD1390069+9999REMMET08901/01/21 09:54:02 METAR K12N 011454Z 00000KT M01/M03 A3051 RMK AO1 SLP345 T10111028 53006EQDR01      7SKY009R02      7GAS009
0155724077547792021010115547+41009-074736FM-15+0178K12N V0209999C000059999999N9999997N5+00065-00225103365ADDAA101000095MA1103255101105REMMET08201/01/21 10:54:02 METAR K12N 011554Z 00000KT 01/M02 A3049 RMK AO1 SLP336 T00061022EQDR01      7SKY009R02      7GAS009
0155724077547792021010116547+41009-074736FM-15+0178K12N V0209999C000059999999N9999997N5+00115-00285103155ADDAA101000095MA1103055100905REMMET08201/01/21 11:54:02 METAR K12N 011654Z 00000KT 01/M03 A3043 RMK AO1 SLP315 T00111028EQDR01      7SKY009R02      7GAS009
0213724077547792021010117547+41009-074736FM-15+0178K12N V0209999C000059999999N9999997N5+00175-00285103095ADDAA101000095KA1060M+00221KA2060N-00611MA1102985100835MD1690359+9999REMMET10001/01/21 12:54:02 METAR K12N 011754Z 00000KT 02/M03 A3041 RMK AO1 SLP309 T00171028 10022 21061 56035EQDR01      7SKY009R02      7GAS009
0155724077547792021010118547+41009-074736FM-15+0178K12N V0201505N001559999999N9999997N5+00175-00615103015ADDAA101000095MA1102915100765REMMET08201/01/21 13:54:02 METAR K12N 011854Z 15003KT 02/M06 A3039 RMK AO1 SLP301 T00171061EQDR01      7SKY009R02      7GAS009
0155724077547792021010119547+41009-074736FM-15+0178K12N V0209999C000059999999N9999997N5+00175-00505102915ADDAA101000095MA1102785100635REMMET08201/01/21 14:54:02 METAR K12N 011954Z 00000KT 02/M05 A3035 RMK AO1 SLP291 T00171050EQDR01      7SKY009R02      7GAS009
0175724077547792021010120547+41009-074736FM-15+0178K12N V0209999C000059999999N9999997N5+00175-00505102855ADDAA101000095MA1102745100605MD1690239+9999REMMET08801/01/21 15:54:02 METAR K12N 012054Z 00000KT 02/M05 A3034 RMK AO1 SLP285 T00171050 56023EQDR01      7SKY009R02      7GAS009
0161724077547792021010121547+41009-074736FM-15+0178K12N V0209999C000059999999N9999997N5+00065-00285102785ADDAA101001095MA1102645100505REMMET08801/01/21 16:54:02 METAR K12N 012154Z 00000KT 01/M03 A3031 RMK AO1 SLP278 P0004 T00061028EQDR01      7SKY009R02      7GAS009
0161724077547792021010122547+41009-074736FM-15+0178K12N V0202605N001559999999N9999997N5+00065-00225102725ADDAA101000895MA1102615100465REMMET08801/01/21 17:54:02 METAR K12N 012254Z 26003KT 01/M02 A3030 RMK AO1 SLP272 P0002 T00061022EQDR01      7SKY009R02      7GAS009
0252724077547792021010123547+41009-074736FM-15+0178K12N V0209999C000059999999N9999997N5+00065-00115102525ADDAA101001895AA206003691KA1060M+00221KA2060N+00061MA1102405100265MD1890349+9999REMMET11201/01/21 18:54:02 METAR K12N 012354Z 00000KT 01/M01 A3024 RMK AO1 SLP252 P0008 60014 T00061011 10022 20006 58034EQDQ01  00358PRCP06R01      7SKY009R02      7GAS009
0168724077547792021010200547+41009-074736FM-15+0178K12N V0209999V001559999999N9999997N5+00065-00065102305ADDAA101001895MA1102175100035REMMET09501/01/21 19:54:01 METAR K12N 020054Z VRB03KT 01/M01 A3017 RMK AO1 PRESFR SLP230 P0007 T00061006EQDR01      7SKY009R02      7GAS009
0161724077547792021010201547+41009-074736FM-15+0178K12N V0203105N002659999999N9999997N5+00115-00065102295ADDAA101001895MA1102175100035REMMET08801/01/21 20:54:01 METAR K12N 020154Z 31005KT 01/M01 A3017 RMK AO1 SLP229 P0006 T00111006EQDR01      7SKY009R02      7GAS009
0213724077547792021010202547+41009-074736FM-15+0178K12N V0209999V002159999999N9999997N5+00115+00005102015ADDAA101002595AA203006191MA1101905099775MD1890489+9999REMMET09901/01/21 21:54:01 METAR K12N 020254Z VRB04KT 01/00 A3009 RMK AO1 SLP201 P0011 60024 T00110000 58048EQDQ01  00608PRCP03R01      7SKY009R02      7GAS009
0160724077547792021010203547+41009-074736FM-15+0178K12N V0200405N002659999999N9999997N5+00115+00005101855ADDAA101000895MA1101765099635REMMET08701/01/21 22:54:01 METAR K12N 020354Z 04005KT 01/00 A3005 RMK AO1 SLP185 P0003 T00110000EQDR01      7SKY009R02      7GAS009
0196724077547792021010204547+41009-074736FM-15+0178K12N V0200205N002659999999N9999997N5+00065+00005101665ADDAA101001095KA1240M+00221KA2240N-00611MA1101565099435REMMET09701/01/21 23:54:02 METAR K12N 020454Z 02005KT 01/00 A2999 RMK AO1 SLP166 P0004 T00060000 400221061EQDR01      7SKY009R02      7GAS009
0902724077547792021010204596+41009-074736SOD  +0178K12N V020999999999999999999999999999+99999+99999999999ADDAA124011496KA1240M+00225KA2240N-00605MG1100764101664OE11240080529021355OE22240053632021365OE33240005899999995REMSOD73024 HR PRECIPITATION (IN):0.45  24 HR MAX TEMP (F):36 24 HR MAX TEMP TIME (LST):1422 24 HR MIN TEMP (F):21 24 HR MIN TEMP TIME (LST):0745 AVERAGE STATION PRESSURE:29.755 MINIMUM SEA LEVEL PRESSURE:30.02 TIME OF OCCURRENCE:2359 PEAK WIND SPEED (MPH):18  PEAK WIND DIR (DEG):290 PEAK WIND TIME (LST):2135  FASTEST 2MIN SPEED (MPH):12 FASTEST 2MIN DIR (DEG):320 FASTEST 2MIN TIME (LST):2136 AVERAGE WIND SPEED (MPH):1.3  24 HR AVG TEMP (F):29 HEATING DEGREE DAYS:36  COOLING DEGREE DAYS:0   LATEST DAY MAX TEMP (0700-1900 LST):36  LATEST NIGHT MIN TEMP(1900-0800 LST):21 HOURLY INCREMENTAL PRECIPITATION VALUES (IN):.00 0.00 0.00 0.00 0.00 0.00 0.00 0.00 0.00 0.00 0.00 0.00 0.00 0.00 0.00 0.00 0.04 0.03 0.07 0.07 0.07 0.10 0.03 0.04EQDR01  0.457AAP092R02     N7GJS072R03     N7GKS075
0258724077547792021010205547+41009-074736FM-15+0178K12N V0200305N003159999999N9999997N5+00065+00005101505ADDAA101000595AA206008191KA1060M+00171KA2060N+00061MA1101395099275MD1890499+9999REMMET11801/02/21 00:54:02 METAR K12N 020554Z 03006KT 01/00 A2994 RMK AO1 PRESFR SLP150 P0001 60032 T00060000 10017 20006 58049EQDQ01  00818PRCP06R01      7SKY009R02      7GAS009
0160724077547792021010206547+41009-074736FM-15+0178K12N V0200205N002659999999N9999997N5+00065+00005101295ADDAA101000395MA1101195099075REMMET08701/02/21 01:54:02 METAR K12N 020654Z 02005KT 01/00 A2988 RMK AO1 SLP129 P0002 T00060000EQDR01      7SKY009R02      7GAS009
0160724077547792021010207547+41009-074736FM-15+0178K12N V0209999V002159999999N9999997N5+00065+00005101145ADDAA101000395MA1101055098935REMMET08701/02/21 02:54:02 METAR K12N 020754Z VRB04KT 01/00 A2984 RMK AO1 SLP114 P0001 T00060000EQDR01      7SKY009R02      7GAS009
0213724077547792021010208547+41009-074736FM-15+0178K12N V0209999V001559999999N9999997N5+00065+00005101005ADDAA101000395AA203001091MA1100915098805MD1690499+9999REMMET09901/02/21 03:54:02 METAR K12N 020854Z VRB03KT 01/00 A2980 RMK AO1 SLP100 P0001 60004 T00060000 56049EQDQ01  00108PRCP03R01      7SKY009R02      7GAS009
0154724077547792021010209547+41009-074736FM-15+0178K12N V0200605N002159999999N9999997N5+00065+00005100845ADDAA101000095MA1100755098635REMMET08101/02/21 04:54:02 METAR K12N 020954Z 06004KT 01/00 A2975 RMK AO1 SLP084 T00060000EQDR01      7SKY009R02      7GAS009
0155724077547792021010210547+41009-074736FM-15+0178K12N V0209999C000059999999N9999997N5+00065-00065100895ADDAA101000095MA1100815098705REMMET08201/02/21 05:54:02 METAR K12N 021054Z 00000KT 01/M01 A2977 RMK AO1 SLP089 T00061006EQDR01      7SKY009R02      7GAS009
0262724077547792021010211547+41009-074736FM-15+0178K12N V0209999C000059999999N9999997N5+00065+00005100865ADDAA101000095AA206001091AA324012791KA1060M+00061KA2060N+00061MA1100785098675MD1690149+9999REMMET11101/02/21 06:54:02 METAR K12N 021154Z 00000KT 01/00 A2976 RMK AO1 SLP086 60004 70050 T00060000 10006 20006 56014EQDQ01  01278PRCP24R01      7SKY009R02      7GAS009
0154724077547792021010212547+41009-074736FM-15+0178K12N V0209999V002159999999N9999997N5+00065+00005100955ADDAA101000095MA1100855098735REMMET08101/02/21 07:54:02 METAR K12N 021254Z VRB04KT 01/00 A2978 RMK AO1 SLP095 T00060000EQDR01      7SKY009R02      7GAS009
0154724077547792021010213547+41009-074736FM-15+0178K12N V0209999V002159999999N9999997N5+00175+00115100995ADDAA101000095MA1100915098805REMMET08101/02/21 08:54:02 METAR K12N 021354Z VRB04KT 02/01 A2980 RMK AO1 SLP099 T00170011EQDR01      7SKY009R02      7GAS009
0174724077547792021010214547+41009-074736FM-15+0178K12N V0202105N003159999999N9999997N5+00285+00175101045ADDAA101000095MA1100955098835MD1190199+9999REMMET08701/02/21 09:54:02 METAR K12N 021454Z 21006KT 03/02 A2981 RMK AO1 SLP104 T00280017 51019EQDR01      7SKY009R02      7GAS009
0154724077547792021010215547+41009-074736FM-15+0178K12N V0202205N004159999999N9999997N5+00565+00335101055ADDAA101000095MA1100985098875REMMET08101/02/21 10:54:02 METAR K12N 021554Z 22008KT 06/03 A2982 RMK AO1 SLP105 T00560033EQDR01      7SKY009R02      7GAS009
0154724077547792021010216547+41009-074736FM-15+0178K12N V0209999C000059999999N9999997N5+00615+00395101045ADDAA101000095MA1100955098835REMMET08101/02/21 11:54:02 METAR K12N 021654Z 00000KT 06/04 A2981 RMK AO1 SLP104 T00610039EQDR01      7SKY009R02      7GAS009
0223724077547792021010217547+41009-074736FM-15+0178K12N V0209999V003159999999N9999997N5+00835+00225101135ADDAA101000095KA1060M+00831KA2060N+00061MA1101055098935MD1390109+9999OC100725REMMET10201/02/21 12:54:02 METAR K12N 021754Z VRB06G14KT 08/02 A2984 RMK AO1 SLP113 T00830022 10083 20006 53010EQDR01      7SKY009R02      7GAS009
0154724077547792021010218547+41009-074736FM-15+0178K12N V0203405V004659999999N9999997N5+00835+00175101285ADDAA101000095MA1101225099105REMMET08101/02/21 13:54:02 METAR K12N 021854Z 34009KT 08/02 A2989 RMK AO1 SLP128 T00830017EQDR01      7SKY009R02      7GAS009
0165724077547792021010219547+41009-074736FM-15+0178K12N V0203605N006259999999N9999997N5+00725+00005101455ADDAA101000095MA1101395099275OC100935REMMET08401/02/21 14:54:02 METAR K12N 021954Z 36012G18KT 07/00 A2994 RMK AO1 SLP145 T00720000EQDR01      7SKY009R02      7GAS009
0186724077547792021010220547+41009-074736FM-15+0178K12N V0209999V003159999999N9999997N5+00565-00175101675ADDAA101000095MA1101595099475MD1390529+9999OC100885REMMET09101/02/21 15:54:02 METAR K12N 022054Z VRB06G17KT 06/M02 A3000 RMK AO1 SLP167 T00561017 53052EQDR01      7SKY009R02      7GAS009
0155724077547792021010221547+41009-074736FM-15+0178K12N V0203505N003659999999N9999997N5+00445-00175101735ADDAA101000095MA1101665099535REMMET08201/02/21 16:54:02 METAR K12N 022154Z 35007KT 04/M02 A3002 RMK AO1 SLP173 T00441017EQDR01      7SKY009R02      7GAS009
0155724077547792021010222547+41009-074736FM-15+0178K12N V0203305N002659999999N9999997N5+00335-00225101845ADDAA101000095MA1101765099635REMMET08201/02/21 17:54:02 METAR K12N 022254Z 33005KT 03/M02 A3005 RMK AO1 SLP184 T00331022EQDR01      7SKY009R02      7GAS009
0213724077547792021010223547+41009-074736FM-15+0178K12N V0209999V001559999999N9999997N5+00225-00225101855ADDAA101000095KA1060M+00891KA2060N+00221MA1101765099635MD1190179+9999REMMET10001/02/21 18:54:02 METAR K12N 022354Z VRB03KT 02/M02 A3005 RMK AO1 SLP185 T00221022 10089 20022 51017EQDR01      7SKY009R02      7GAS009
0159724077547792021010300547+41009-074736FM-15+0178K12N V0209999C000059999999N9999997N5+00005-00225101995ADDAA101000095MA1101905099775REMMET08601/02/21 19:54:01 METAR K12N 030054Z 00000KT 00/M02 A3009 RMK AO1 SLP199 T00001022 PNOEQDR01      7SKY009R02      7GAS009
0156724077547792021010301547+41009-074736FM-15+0178K12N V0209999C000059999999N9999997N5-00115-00285102015ADDAA101000095MA1101905099775REMMET08301/02/21 20:54:01 METAR K12N 030154Z 00000KT M01/M03 A3009 RMK AO1 SLP201 T10111028EQDR01      7SKY009R02      7GAS009
0182724077547792021010302547+41009-074736FM-15+0178K12N V0209999C000059999999N9999997N5-00115-00335102075ADDAA101000095MA1101965099835MD1190209+9999REMMET09501/02/21 21:54:01 METAR K12N 030254Z 00000KT M01/M03 A3011 RMK AO1 SLP207 6//// T10111033 51020EQDR01      7SKY009R02      7GAS009
0156724077547792021010303547+41009-074736FM-15+0178K12N V0209999C000059999999N9999997N5-00175-00285102015ADDAA101000095MA1101935099805REMMET08301/02/21 22:54:01 METAR K12N 030354Z 00000KT M02/M03 A3010 RMK AO1 SLP201 T10171028EQDR01      7SKY009R02      7GAS009
0192724077547792021010304547+41009-074736FM-15+0178K12N V0209999C000059999999N9999997N5-00175-00335102075ADDAA101000095KA1240M+00891KA2240N-00281MA1101965099835REMMET09301/02/21 23:54:02 METAR K12N 030454Z 00000KT M02/M03 A3011 RMK AO1 SLP207 T10171033 400891028EQDR01      7SKY009R02      7GAS009
0902724077547792021010304596+41009-074736SOD  +0178K12N V020999999999999999999999999999+99999+99999999999ADDAA124001396KA1240M+00895KA2240N-00275MG1099124100854OE11240102835016245OE22240067136014535OE33240019799999995REMSOD73024 HR PRECIPITATION (IN):0.05  24 HR MAX TEMP (F):48 24 HR MAX TEMP TIME (LST):1352 24 HR MIN TEMP (F):27 24 HR MIN TEMP TIME (LST):2349 AVERAGE STATION PRESSURE:29.270 MINIMUM SEA LEVEL PRESSURE:29.78 TIME OF OCCURRENCE:0702 PEAK WIND SPEED (MPH):23  PEAK WIND DIR (DEG):350 PEAK WIND TIME (LST):1624  FASTEST 2MIN SPEED (MPH):15 FASTEST 2MIN DIR (DEG):360 FASTEST 2MIN TIME (LST):1453 AVERAGE WIND SPEED (MPH):4.4  24 HR AVG TEMP (F):38 HEATING DEGREE DAYS:27  COOLING DEGREE DAYS:0   LATEST DAY MAX TEMP (0700-1900 LST):48  LATEST NIGHT MIN TEMP(1900-0800 LST):33 HOURLY INCREMENTAL PRECIPITATION VALUES (IN):.02 0.01 0.01 0.01 0.00 0.00 0.00 0.00 0.00 0.00 0.00 0.00 0.00 0.00 0.00 0.00 0.00 0.00 0.00 0.00 0.00 0.00 0.00 0.00EQDR01  0.057AAP092R02     N7GJS072R03     N7GKS075
0220724077547792021010305547+41009-074736FM-15+0178K12N V0209999C000059999999N9999997N5-00225-00335102075ADDAA101000095KA1060M+00281KA2060N-00281MA1102005099875MD1390029+9999REMMET10701/03/21 00:54:02 METAR K12N 030554Z 00000KT M02/M03 A3012 RMK AO1 SLP207 6//// T10221033 10028 21028 53002EQDR01      7SKY009R02      7GAS009
0156724077547792021010306547+41009-074736FM-15+0178K12N V0209999C000059999999N9999997N5-00175-00335102045ADDAA101000095MA1101965099835REMMET08301/03/21 01:54:02 METAR K12N 030654Z 00000KT M02/M03 A3011 RMK AO1 SLP204 T10171033EQDR01      7SKY009R02      7GAS009
0156724077547792021010307547+41009-074736FM-15+0178K12N V0209999C000059999999N9999997N5-00225-00335102005ADDAA101000095MA1101935099805REMMET08301/03/21 02:54:02 METAR K12N 030754Z 00000KT M02/M03 A3010 RMK AO1 SLP200 T10221033EQDR01      7SKY009R02      7GAS009
0176724077547792021010308547+41009-074736FM-15+0178K12N V0209999C000059999999N9999997N5-00225-00335102005ADDAA101000095MA1101905099775MD1690089+9999REMMET08901/03/21 03:54:02 METAR K12N 030854Z 00000KT M02/M03 A3009 RMK AO1 SLP200 T10221033 56008EQDR01      7SKY009R02      7GAS009
0156724077547792021010309547+41009-074736FM-15+0178K12N V0200405N003659999999N9999997N5-00175-00285101905ADDAA101000095MA1101795099675REMMET08301/03/21 04:54:02 METAR K12N 030954Z 04007KT M02/M03 A3006 RMK AO1 SLP190 T10171028EQDR01      7SKY009R02      7GAS009
0163724077547792021010310547+41009-074736FM-15+0178K12N V0209999V001559999999N9999997N5-00115-00225101975ADDAA101000095MA1101865099735REMMET09001/03/21 05:54:02 METAR K12N 031054Z VRB03KT M01/M02 A3008 RMK AO1 PRESRR SLP197 T10111022EQDR01      7SKY009R02      7GAS009
0220724077547792021010311547+41009-074736FM-15+0178K12N V0209999C000059999999N9999997N5-00065-00225102185ADDAA101000095KA1060M-00061KA2060N-00281MA1102075099935MD1390179+9999REMMET10701/03/21 06:54:02 METAR K12N 031154Z 00000KT M01/M02 A3014 RMK AO1 SLP218 7//// T10061022 11006 21028 53017EQDR01      7SKY009R02      7GAS009
0156724077547792021010312547+41009-074736FM-15+0178K12N V0200505N002159999999N9999997N5-00065-00285102105ADDAA101000095MA1102005099875REMMET08301/03/21 07:54:02 METAR K12N 031254Z 05004KT M01/M03 A3012 RMK AO1 SLP210 T10061028EQDR01      7SKY009R02      7GAS009
0156724077547792021010313547+41009-074736FM-15+0178K12N V0203305N001559999999N9999997N5-00065-00285102195ADDAA101000095MA1102075099935REMMET08301/03/21 08:54:02 METAR K12N 031354Z 33003KT M01/M03 A3014 RMK AO1 SLP219 T10061028EQDR01      7SKY009R02      7GAS009
0215724077547792021010314547+41009-074736FM-15+0178K12N V0200305N002659999999N9999997N5-00065-00225102055ADDAA101000595AA203000591MA1101935099805MD1890149+9999REMMET10101/03/21 09:54:02 METAR K12N 031454Z 03005KT M01/M02 A3010 RMK AO1 SLP205 P0002 60002 T10061022 58014EQDQ01  00058PRCP03R01      7SKY009R02      7GAS009
0162724077547792021010315547+41009-074736FM-15+0178K12N V0209999V001559999999N9999997N5-00065-00225101825ADDAA101000395MA1101735099605REMMET08901/03/21 10:54:02 METAR K12N 031554Z VRB03KT M01/M02 A3004 RMK AO1 SLP182 P0001 T10061022EQDR01      7SKY009R02      7GAS009
0155724077547792021010316547+41009-074736FM-15+0178K12N V0209999V002159999999N9999997N5+00005-00225101675ADDAA101000095MA1101565099435REMMET08201/03/21 11:54:02 METAR K12N 031654Z VRB04KT 00/M02 A2999 RMK AO1 SLP167 T00001022EQDR01      7SKY009R02      7GAS009
0230724077547792021010317547+41009-074736FM-15+0178K12N V0200305N002159999999N9999997N5+00005-00225101585ADDAA101000095AA206000891KA1060M+00001KA2060N-00111MA1101465099335MD1690469+9999REMMET10601/03/21 12:54:02 METAR K12N 031754Z 03004KT 00/M02 A2996 RMK AO1 SLP158 60003 T00001022 10000 21011 56046EQDR01      7SKY009R02      7GAS009
0155724077547792021010318547+41009-074736FM-15+0178K12N V0209999V001559999999N9999997N5+00005-00115101535ADDAA101000395MA1101425099305REMMET08201/03/21 13:54:02 METAR K12N 031854Z VRB03KT 00/M01 A2995 RMK AO1 SLP153 T00001011EQDR01      7SKY009R02      7GAS009
0161724077547792021010319547+41009-074736FM-15+0178K12N V0209999V002159999999N9999997N5+00005-00115101475ADDAA101000395MA1101355099235REMMET08801/03/21 14:54:02 METAR K12N 031954Z VRB04KT 00/M01 A2993 RMK AO1 SLP147 P0002 T00001011EQDR01      7SKY009R02      7GAS009
0192724077547792021010320547+41009-074736FM-15+0178K12N V0209999V001559999999N9999997N5+00005-00065101475ADDAA101000095AA203000591MA1101355099235MD1590109+9999REMMET09401/03/21 15:54:02 METAR K12N 032054Z VRB03KT 00/M01 A2993 RMK AO1 SLP147 60002 T00001006 55010EQDR01      7SKY009R02      7GAS009
0161724077547792021010321547+41009-074736FM-15+0178K12N V0203505N003159999999N9999997N5+00065-00065101545ADDAA101000395MA1101425099305REMMET08801/03/21 16:54:02 METAR K12N 032154Z 35006KT 01/M01 A2995 RMK AO1 SLP154 P0001 T00061006EQDR01      7SKY009R02      7GAS009
0161724077547792021010322547+41009-074736FM-15+0178K12N V0200305N002659999999N9999997N5+00005-00065101565ADDAA101001395MA1101465099335REMMET08801/03/21 17:54:02 METAR K12N 032254Z 03005KT 00/M01 A2996 RMK AO1 SLP156 P0004 T00001006EQDR01      7SKY009R02      7GAS009
0252724077547792021010323547+41009-074736FM-15+0178K12N V0200305N003159999999N9999997N5+00005-00065101575ADDAA101000895AA206002891KA1060M+00061KA2060N+00001MA1101465099335MD1190099+9999REMMET11201/03/21 18:54:02 METAR K12N 032354Z 03006KT 00/M01 A2996 RMK AO1 SLP157 P0004 60011 T00001006 10006 20000 51009EQDQ01  00278PRCP06R01      7SKY009R02      7GAS009
0161724077547792021010400547+41009-074736FM-15+0178K12N V0200305N003159999999N9999997N5+00005-00115101545ADDAA101000595MA1101425099305REMMET08801/03/21 19:54:01 METAR K12N 040054Z 03006KT 00/M01 A2995 RMK AO1 SLP154 P0002 T00001011EQDR01      7SKY009R02      7GAS009
0161724077547792021010401547+41009-074736FM-15+0178K12N V0200405N002659999999N9999997N5+00005-00065101515ADDAA101000395MA1101395099275REMMET08801/03/21 20:54:01 METAR K12N 040154Z 04005KT 00/M01 A2994 RMK AO1 SLP151 P0001 T00001006EQDR01      7SKY009R02      7GAS009
0192724077547792021010402547+41009-074736FM-15+0178K12N V0200305N001559999999N9999997N5+00065-00065101485ADDAA101000095AA203000891MA1101395099275MD1890089+9999REMMET09401/03/21 21:54:01 METAR K12N 040254Z 03003KT 01/M01 A2994 RMK AO1 SLP148 60003 T00061006 58008EQDR01      7SKY009R02      7GAS009
0155724077547792021010403547+41009-074736FM-15+0178K12N V0209999V001559999999N9999997N5+00065-00065101515ADDAA101000095MA1101395099275REMMET08201/03/21 22:54:01 METAR K12N 040354Z VRB03KT 01/M01 A2994 RMK AO1 SLP151 T00061006EQDR01      7SKY009R02      7GAS009
0191724077547792021010404547+41009-074736FM-15+0178K12N V0209999V001559999999N9999997N5+00065-00065101505ADDAA101000095KA1240M+00061KA2240N-00281MA1101395099275REMMET09201/03/21 23:54:02 METAR K12N 040454Z VRB03KT 01/M01 A2994 RMK AO1 SLP150 T00061006 400061028EQDR01      7SKY009R02      7GAS009
0902724077547792021010404596+41009-074736SOD  +0178K12N V020999999999999999999999999999+99999+99999999999ADDAA124004396KA1240M+00065KA2240N-00275MG1099614101464OE11240080503004255OE22240058103004275OE33240017099999995REMSOD73024 HR PRECIPITATION (IN):0.17  24 HR MAX TEMP (F):33 24 HR MAX TEMP TIME (LST):2359 24 HR MIN TEMP (F):27 24 HR MIN TEMP TIME (LST):0118 AVERAGE STATION PRESSURE:29.415 MINIMUM SEA LEVEL PRESSURE:29.96 TIME OF OCCURRENCE:1613 PEAK WIND SPEED (MPH):18  PEAK WIND DIR (DEG):30  PEAK WIND TIME (LST):0425  FASTEST 2MIN SPEED (MPH):13 FASTEST 2MIN DIR (DEG):30  FASTEST 2MIN TIME (LST):0427 AVERAGE WIND SPEED (MPH):3.8  24 HR AVG TEMP (F):30 HEATING DEGREE DAYS:35  COOLING DEGREE DAYS:0   LATEST DAY MAX TEMP (0700-1900 LST):33  LATEST NIGHT MIN TEMP(1900-0800 LST):27 HOURLY INCREMENTAL PRECIPITATION VALUES (IN):.00 0.00 0.00 0.00 0.00 0.00 0.00 0.00 0.00 0.02 0.01 0.00 0.00 0.01 0.01 0.00 0.01 0.05 0.03 0.02 0.01 0.00 0.00 0.00EQDR01  0.177AAP092R02     N7GJS072R03     N7GKS075
0252724077547792021010405547+41009-074736FM-15+0178K12N V0203505N001559999999N9999997N5+00065-00065101535ADDAA101000395AA206001091KA1060M+00061KA2060N+00001MA1101425099305MD1290059+9999REMMET11201/04/21 00:54:02 METAR K12N 040554Z 35003KT 01/M01 A2995 RMK AO1 SLP153 P0001 60004 T00061006 10006 20000 52005EQDQ01  00108PRCP06R01      7SKY009R02      7GAS009
0161724077547792021010406547+41009-074736FM-15+0178K12N V0200305N002159999999N9999997N5+00065-00065101535ADDAA101000395MA1101425099305REMMET08801/04/21 01:54:02 METAR K12N 040654Z 03004KT 01/M01 A2995 RMK AO1 SLP153 P0001 T00061006EQDR01      7SKY009R02      7GAS009
0155724077547792021010407547+41009-074736FM-15+0178K12N V0200305N001559999999N9999997N5+00065-00065101545ADDAA101000095MA1101465099335REMMET08201/04/21 02:54:02 METAR K12N 040754Z 03003KT 01/M01 A2996 RMK AO1 SLP154 T00061006EQDR01      7SKY009R02      7GAS009
0192724077547792021010408547+41009-074736FM-15+0178K12N V0200305N001559999999N9999997N5+00065-00065101515ADDAA101000095AA203000391MA1101425099305MD1890029+9999REMMET09401/04/21 03:54:02 METAR K12N 040854Z 03003KT 01/M01 A2995 RMK AO1 SLP151 60001 T00061006 58002EQDR01      7SKY009R02      7GAS009
0155724077547792021010409547+41009-074736FM-15+0178K12N V0209999V001559999999N9999997N5+00065-00065101535ADDAA101000095MA1101425099305REMMET08201/04/21 04:54:02 METAR K12N 040954Z VRB03KT 01/M01 A2995 RMK AO1 SLP153 T00061006EQDR01      7SKY009R02      7GAS009
0155724077547792021010410547+41009-074736FM-15+0178K12N V0203405N001559999999N9999997N5+00065-00065101595ADDAA101000095MA1101495099375REMMET08201/04/21 05:54:02 METAR K12N 041054Z 34003KT 01/M01 A2997 RMK AO1 SLP159 T00061006EQDR01      7SKY009R02      7GAS009
0263724077547792021010411547+41009-074736FM-15+0178K12N V0209999C000059999999N9999997N5+00065-00065101655ADDAA101000095AA206000391AA324004891KA1060M+00061KA2060N+00061MA1101565099435MD1390149+9999REMMET11201/04/21 06:54:02 METAR K12N 041154Z 00000KT 01/M01 A2999 RMK AO1 SLP165 60001 70019 T00061006 10006 20006 53014EQDQ01  00488PRCP24R01      7SKY009R02      7GAS009
0155724077547792021010412547+41009-074736FM-15+0178K12N V0200505N001559999999N9999997N5+00065-00065101685ADDAA101000095MA1101595099475REMMET08201/04/21 07:54:02 METAR K12N 041254Z 05003KT 01/M01 A3000 RMK AO1 SLP168 T00061006EQDR01      7SKY009R02      7GAS009
0154724077547792021010413547+41009-074736FM-15+0178K12N V0209999C000059999999N9999997N5+00115+00005101745ADDAA101000095MA1101635099505REMMET08101/04/21 08:54:02 METAR K12N 041354Z 00000KT 01/00 A3001 RMK AO1 SLP174 T00110000EQDR01      7SKY009R02      7GAS009
0174724077547792021010414547+41009-074736FM-15+0178K12N V0209999V001559999999N9999997N5+00175+00005101735ADDAA101000095MA1101635099505MD1090089+9999REMMET08701/04/21 09:54:02 METAR K12N 041454Z VRB03KT 02/00 A3001 RMK AO1 SLP173 T00170000 50008EQDR01      7SKY009R02      7GAS009
0154724077547792021010415547+41009-074736FM-15+0178K12N V0209999V001559999999N9999997N5+00335+00065101655ADDAA101000095MA1101565099435REMMET08101/04/21 10:54:02 METAR K12N 041554Z VRB03KT 03/01 A2999 RMK AO1 SLP165 T00330006EQDR01      7SKY009R02      7GAS009
0154724077547792021010416547+41009-074736FM-15+0178K12N V0209999V001559999999N9999997N5+00445+00065101545ADDAA101000095MA1101465099335REMMET08101/04/21 11:54:02 METAR K12N 041654Z VRB03KT 04/01 A2996 RMK AO1 SLP154 T00440006EQDR01      7SKY009R02      7GAS009
0212724077547792021010417547+41009-074736FM-15+0178K12N V0209999C000059999999N9999997N5+00395+00065101495ADDAA101000095KA1060M+00441KA2060N+00061MA1101395099275MD1690229+9999REMMET09901/04/21 12:54:02 METAR K12N 041754Z 00000KT 04/01 A2994 RMK AO1 SLP149 T00390006 10044 20006 56022EQDR01      7SKY009R02      7GAS009
0155724077547792021010418547+41009-074736FM-15+0178K12N V0203605N003159999999N9999997N5+00445-00065101455ADDAA101000095MA1101395099275REMMET08201/04/21 13:54:02 METAR K12N 041854Z 36006KT 04/M01 A2994 RMK AO1 SLP145 T00441006EQDR01      7SKY009R02      7GAS009
0155724077547792021010419547+41009-074736FM-15+0178K12N V0209999V002659999999N9999997N5+00445-00115101505ADDAA101000095MA1101425099305REMMET08201/04/21 14:54:02 METAR K12N 041954Z VRB05KT 04/M01 A2995 RMK AO1 SLP150 T00441011EQDR01      7SKY009R02      7GAS009
0175724077547792021010420547+41009-074736FM-15+0178K12N V0203405N001559999999N9999997N5+00395-00115101505ADDAA101000095MA1101425099305MD1390019+9999REMMET08801/04/21 15:54:02 METAR K12N 042054Z 34003KT 04/M01 A2995 RMK AO1 SLP150 T00391011 53001EQDR01      7SKY009R02      7GAS009
0155724077547792021010421547+41009-074736FM-15+0178K12N V0203205N001559999999N9999997N5+00285-00065101535ADDAA101000095MA1101465099335REMMET08201/04/21 16:54:02 METAR K12N 042154Z 32003KT 03/M01 A2996 RMK AO1 SLP153 T00281006EQDR01      7SKY009R02      7GAS009
0155724077547792021010422547+41009-074736FM-15+0178K12N V0209999C000059999999N9999997N5+00285-00065101525ADDAA101000095MA1101425099305REMMET08201/04/21 17:54:02 METAR K12N 042254Z 00000KT 03/M01 A2995 RMK AO1 SLP152 T00281006EQDR01      7SKY009R02      7GAS009
0212724077547792021010423547+41009-074736FM-15+0178K12N V0209999C000059999999N9999997N5+00225+00065101525ADDAA101000095KA1060M+00441KA2060N+00221MA1101425099305MD1190029+9999REMMET09901/04/21 18:54:02 METAR K12N 042354Z 00000KT 02/01 A2995 RMK AO1 SLP152 T00220006 10044 20022 51002EQDR01      7SKY009R02      7GAS009
0154724077547792021010500547+41009-074736FM-15+0178K12N V0209999C000059999999N9999997N5+00225+00005101495ADDAA101000095MA1101395099275REMMET08101/04/21 19:54:01 METAR K12N 050054Z 00000KT 02/00 A2994 RMK AO1 SLP149 T00220000EQDR01      7SKY009R02      7GAS009
0154724077547792021010501547+41009-074736FM-15+0178K12N V0209999C000059999999N9999997N5+00175+00005101475ADDAA101000095MA1101395099275REMMET08101/04/21 20:54:01 METAR K12N 050154Z 00000KT 02/00 A2994 RMK AO1 SLP147 T00170000EQDR01      7SKY009R02      7GAS009
0174724077547792021010502547+41009-074736FM-15+0178K12N V0209999C000059999999N9999997N5+00175+00005101475ADDAA101000095MA1101395099275MD1590059+9999REMMET08701/04/21 21:54:01 METAR K12N 050254Z 00000KT 02/00 A2994 RMK AO1 SLP147 T00170000 55005EQDR01      7SKY009R02      7GAS009
0154724077547792021010503547+41009-074736FM-15+0178K12N V0209999C000059999999N9999997N5+00175+00005101445ADDAA101000095MA1101355099235REMMET08101/04/21 22:54:01 METAR K12N 050354Z 00000KT 02/00 A2993 RMK AO1 SLP144 T00170000EQDR01      7SKY009R02      7GAS009
0190724077547792021010504547+41009-074736FM-15+0178K12N V0200305N002159999999N9999997N5+00175+00005101415ADDAA101000095KA1240M+00441KA2240N+00061MA1101325099205REMMET09101/04/21 23:54:02 METAR K12N 050454Z 03004KT 02/00 A2992 RMK AO1 SLP141 T00170000 400440006EQDR01      7SKY009R02      7GAS009
0902724077547792021010504596+41009-074736SOD  +0178K12N V020999999999999999999999999999+99999+99999999999ADDAA124000596KA1240M+00445KA2240N+00065MG1099324101394OE11240067134013545OE22240040202013475OE33240011299999995REMSOD73024 HR PRECIPITATION (IN):0.02  24 HR MAX TEMP (F):40 24 HR MAX TEMP TIME (LST):1509 24 HR MIN TEMP (F):33 24 HR MIN TEMP TIME (LST):0835 AVERAGE STATION PRESSURE:29.330 MINIMUM SEA LEVEL PRESSURE:29.94 TIME OF OCCURRENCE:2343 PEAK WIND SPEED (MPH):15  PEAK WIND DIR (DEG):340 PEAK WIND TIME (LST):1354  FASTEST 2MIN SPEED (MPH):9  FASTEST 2MIN DIR (DEG):20  FASTEST 2MIN TIME (LST):1347 AVERAGE WIND SPEED (MPH):2.5  24 HR AVG TEMP (F):37 HEATING DEGREE DAYS:28  COOLING DEGREE DAYS:0   LATEST DAY MAX TEMP (0700-1900 LST):40  LATEST NIGHT MIN TEMP(1900-0800 LST):32 HOURLY INCREMENTAL PRECIPITATION VALUES (IN):.01 0.01 0.00 0.00 0.00 0.00 0.00 0.00 0.00 0.00 0.00 0.00 0.00 0.00 0.00 0.00 0.00 0.00 0.00 0.00 0.00 0.00 0.00 0.00EQDR01  0.027AAP092R02     N7GJS072R03     N7GKS075
0212724077547792021010505547+41009-074736FM-15+0178K12N V0209999C000059999999N9999997N5+00115+00065101365ADDAA101000095KA1060M+00221KA2060N+00111MA1101295099175MD1890109+9999REMMET09901/05/21 00:54:02 METAR K12N 050554Z 00000KT 01/01 A2991 RMK AO1 SLP136 T00110006 10022 20011 58010EQDR01      7SKY009R02      7GAS009
0154724077547792021010506547+41009-074736FM-15+0178K12N V0209999V001559999999N9999997N5+00115+00005101395ADDAA101000095MA1101325099205REMMET08101/05/21 01:54:02 METAR K12N 050654Z VRB03KT 01/00 A2992 RMK AO1 SLP139 T00110000EQDR01      7SKY009R02      7GAS009
0154724077547792021010507547+41009-074736FM-15+0178K12N V0200405N002159999999N9999997N5+00115+00005101395ADDAA101000095MA1101325099205REMMET08101/05/21 02:54:02 METAR K12N 050754Z 04004KT 01/00 A2992 RMK AO1 SLP139 T00110000EQDR01      7SKY009R02      7GAS009
0175724077547792021010508547+41009-074736FM-15+0178K12N V0200305N001559999999N9999997N5+00115-00065101385ADDAA101000095MA1101295099175MD1090029+9999REMMET08801/05/21 03:54:02 METAR K12N 050854Z 03003KT 01/M01 A2991 RMK AO1 SLP138 T00111006 50002EQDR01      7SKY009R02      7GAS009
0155724077547792021010509547+41009-074736FM-15+0178K12N V0200305N002159999999N9999997N5+00065-00065101375ADDAA101000095MA1101295099175REMMET08201/05/21 04:54:02 METAR K12N 050954Z 03004KT 01/M01 A2991 RMK AO1 SLP137 T00061006EQDR01      7SKY009R02      7GAS009
0155724077547792021010510547+41009-074736FM-15+0178K12N V0209999C000059999999N9999997N5+00065-00065101405ADDAA101000095MA1101325099205REMMET08201/05/21 05:54:02 METAR K12N 051054Z 00000KT 01/M01 A2992 RMK AO1 SLP140 T00061006EQDR01      7SKY009R02      7GAS009
0213724077547792021010511547+41009-074736FM-15+0178K12N V0209999V001559999999N9999997N5+00065-00065101405ADDAA101000095KA1060M+00171KA2060N+00061MA1101325099205MD1390019+9999REMMET10001/05/21 06:54:02 METAR K12N 051154Z VRB03KT 01/M01 A2992 RMK AO1 SLP140 T00061006 10017 20006 53001EQDR01      7SKY009R02      7GAS009
0155724077547792021010512547+41009-074736FM-15+0178K12N V0200405N002159999999N9999997N5+00065-00065101445ADDAA101000095MA1101355099235REMMET08201/05/21 07:54:02 METAR K12N 051254Z 04004KT 01/M01 A2993 RMK AO1 SLP144 T00061006EQDR01      7SKY009R02      7GAS009
0155724077547792021010513547+41009-074736FM-15+0178K12N V0200305N001559999999N9999997N5+00115-00065101475ADDAA101000095MA1101395099275REMMET08201/05/21 08:54:02 METAR K12N 051354Z 03003KT 01/M01 A2994 RMK AO1 SLP147 T00111006EQDR01      7SKY009R02      7GAS009
0175724077547792021010514547+41009-074736FM-15+0178K12N V0209999C000059999999N9999997N5+00115-00065101445ADDAA101000095MA1101355099235MD1090049+9999REMMET08801/05/21 09:54:02 METAR K12N 051454Z 00000KT 01/M01 A2993 RMK AO1 SLP144 T00111006 50004EQDR01      7SKY009R02      7GAS009
0155724077547792021010515547+41009-074736FM-15+0178K12N V0209999C000059999999N9999997N5+00175-00065101395ADDAA101000095MA1101295099175REMMET08201/05/21 10:54:02 METAR K12N 051554Z 00000KT 02/M01 A2991 RMK AO1 SLP139 T00171006EQDR01      7SKY009R02      7GAS009
0155724077547792021010516547+41009-074736FM-15+0178K12N V0209999C000059999999N9999997N5+00225-00065101325ADDAA101000095MA1101225099105REMMET08201/05/21 11:54:02 METAR K12N 051654Z 00000KT 02/M01 A2989 RMK AO1 SLP132 T00221006EQDR01      7SKY009R02      7GAS009
0213724077547792021010517547+41009-074736FM-15+0178K12N V0200405N001559999999N9999997N5+00225-00115101265ADDAA101000095KA1060M+00221KA2060N+00061MA1101195099075MD1890189+9999REMMET10001/05/21 12:54:02 METAR K12N 051754Z 04003KT 02/M01 A2988 RMK AO1 SLP126 T00221011 10022 20006 58018EQDR01      7SKY009R02      7GAS009
0155724077547792021010518547+41009-074736FM-15+0178K12N V0203305N001559999999N9999997N5+00285-00115101255ADDAA101000095MA1101155099035REMMET08201/05/21 13:54:02 METAR K12N 051854Z 33003KT 03/M01 A2987 RMK AO1 SLP125 T00281011EQDR01      7SKY009R02      7GAS009
0155724077547792021010519547+41009-074736FM-15+0178K12N V0209999C000059999999N9999997N5+00285-00065101285ADDAA101000095MA1101195099075REMMET08201/05/21 14:54:02 METAR K12N 051954Z 00000KT 03/M01 A2988 RMK AO1 SLP128 T00281006EQDR01      7SKY009R02      7GAS009
0175724077547792021010520547+41009-074736FM-15+0178K12N V0203405N001559999999N9999997N5+00285-00115101305ADDAA101000095MA1101225099105MD1390049+9999REMMET08801/05/21 15:54:02 METAR K12N 052054Z 34003KT 03/M01 A2989 RMK AO1 SLP130 T00281011 53004EQDR01      7SKY009R02      7GAS009
0155724077547792021010521547+41009-074736FM-15+0178K12N V0203505N001559999999N9999997N5+00225-00115101355ADDAA101000095MA1101255099135REMMET08201/05/21 16:54:02 METAR K12N 052154Z 35003KT 02/M01 A2990 RMK AO1 SLP135 T00221011EQDR01      7SKY009R02      7GAS009
0155724077547792021010522547+41009-074736FM-15+0178K12N V0209999C000059999999N9999997N5+00115-00065101415ADDAA101000095MA1101325099205REMMET08201/05/21 17:54:02 METAR K12N 052254Z 00000KT 01/M01 A2992 RMK AO1 SLP141 T00111006EQDR01      7SKY009R02      7GAS009
0212724077547792021010523547+41009-074736FM-15+0178K12N V0209999C000059999999N9999997N5+00115+00005101455ADDAA101000095KA1060M+00281KA2060N+00061MA1101355099235MD1190149+9999REMMET09901/05/21 18:54:02 METAR K12N 052354Z 00000KT 01/00 A2993 RMK AO1 SLP145 T00110000 10028 20006 51014EQDR01      7SKY009R02      7GAS009
0154724077547792021010600547+41009-074736FM-15+0178K12N V0209999C000059999999N9999997N5+00115+00005101465ADDAA101000095MA1101355099235REMMET08101/05/21 19:54:01 METAR K12N 060054Z 00000KT 01/00 A2993 RMK AO1 SLP146 T00110000EQDR01      7SKY009R02      7GAS009
0155724077547792021010601547+41009-074736FM-15+0178K12N V0203505N001559999999N9999997N5+00225-00065101455ADDAA101000095MA1101355099235REMMET08201/05/21 20:54:01 METAR K12N 060154Z 35003KT 02/M01 A2993 RMK AO1 SLP145 T00221006EQDR01      7SKY009R02      7GAS009
0175724077547792021010602547+41009-074736FM-15+0178K12N V0209999C000059999999N9999997N5+00175-00065101445ADDAA101000095MA1101355099235MD1890019+9999REMMET08801/05/21 21:54:01 METAR K12N 060254Z 00000KT 02/M01 A2993 RMK AO1 SLP144 T00171006 58001EQDR01      7SKY009R02      7GAS009
0155724077547792021010603547+41009-074736FM-15+0178K12N V0209999C000059999999N9999997N5+00115-00065101435ADDAA101000095MA1101355099235REMMET08201/05/21 22:54:01 METAR K12N 060354Z 00000KT 01/M01 A2993 RMK AO1 SLP143 T00111006EQDR01      7SKY009R02      7GAS009
0192724077547792021010604547+41009-074736FM-15+0178K12N V0209999C000059999999N9999997N5-00065-00175101445ADDAA101000095KA1240M+00281KA2240N-00061MA1101355099235REMMET09301/05/21 23:54:02 METAR K12N 060454Z 00000KT M01/M02 A2993 RMK AO1 SLP144 T10061017 400281006EQDR01      7SKY009R02      7GAS009
0886724077547792021010604596+41009-074736SOD  +0178K12N V020999999999999999999999999999+99999+99999999999ADDAA124000095KA1240M+00285KA2240N-00055MG1099154101254OE11240040204002435OE22240026835015365OE33240008599999995REMSOD73024 HR PRECIPITATION (IN):0.00  24 HR MAX TEMP (F):37 24 HR MAX TEMP TIME (LST):1634 24 HR MIN TEMP (F):31 24 HR MIN TEMP TIME (LST):2359 AVERAGE STATION PRESSURE:29.280 MINIMUM SEA LEVEL PRESSURE:29.90 TIME OF OCCURRENCE:1439 PEAK WIND SPEED (MPH):9   PEAK WIND DIR (DEG):40  PEAK WIND TIME (LST):0243  FASTEST 2MIN SPEED (MPH):6  FASTEST 2MIN DIR (DEG):350 FASTEST 2MIN TIME (LST):1536 AVERAGE WIND SPEED (MPH):1.9  24 HR AVG TEMP (F):34 HEATING DEGREE DAYS:31  COOLING DEGREE DAYS:0   LATEST DAY MAX TEMP (0700-1900 LST):37  LATEST NIGHT MIN TEMP(1900-0800 LST):33 HOURLY INCREMENTAL PRECIPITATION VALUES (IN):.00 0.00 0.00 0.00 0.00 0.00 0.00 0.00 0.00 0.00 0.00 0.00 0.00 0.00 0.00 0.00 0.00 0.00 0.00 0.00 0.00 0.00 0.00 0.00EQDR01     N7GJS072R02     N7GKS075
0213724077547792021010605547+41009-074736FM-15+0178K12N V0209999C000059999999N9999997N5+00115-00115101445ADDAA101000095KA1060M+00221KA2060N-00061MA1101355099235MD1590009+9999REMMET10001/06/21 00:54:02 METAR K12N 060554Z 00000KT 01/M01 A2993 RMK AO1 SLP144 T00111011 10022 21006 55000EQDR01      7SKY009R02      7GAS009
0155724077547792021010606547+41009-074736FM-15+0178K12N V0203505N001559999999N9999997N5+00225-00175101465ADDAA101000095MA1101395099275REMMET08201/06/21 01:54:02 METAR K12N 060654Z 35003KT 02/M02 A2994 RMK AO1 SLP146 T00221017EQDR01      7SKY009R02      7GAS009
0155724077547792021010607547+41009-074736FM-15+0178K12N V0209999V002659999999N9999997N5+00225-00175101505ADDAA101000095MA1101425099305REMMET08201/06/21 02:54:02 METAR K12N 060754Z VRB05KT 02/M02 A2995 RMK AO1 SLP150 T00221017EQDR01      7SKY009R02      7GAS009
0175724077547792021010608547+41009-074736FM-15+0178K12N V0209999V001559999999N9999997N5+00175-00285101535ADDAA101000095MA1101425099305MD1190099+9999REMMET08801/06/21 03:54:02 METAR K12N 060854Z VRB03KT 02/M03 A2995 RMK AO1 SLP153 T00171028 51009EQDR01      7SKY009R02      7GAS009
0155724077547792021010609547+41009-074736FM-15+0178K12N V0203505N002159999999N9999997N5+00175-00285101555ADDAA101000095MA1101465099335REMMET08201/06/21 04:54:02 METAR K12N 060954Z 35004KT 02/M03 A2996 RMK AO1 SLP155 T00171028EQDR01      7SKY009R02      7GAS009
0155724077547792021010610547+41009-074736FM-15+0178K12N V0203305N002659999999N9999997N5+00175-00335101565ADDAA101000095MA1101465099335REMMET08201/06/21 05:54:02 METAR K12N 061054Z 33005KT 02/M03 A2996 RMK AO1 SLP156 T00171033EQDR01      7SKY009R02      7GAS009
0213724077547792021010611547+41009-074736FM-15+0178K12N V0209999V002159999999N9999997N5+00175-00335101585ADDAA101000095KA1060M+00221KA2060N+00061MA1101495099375MD1290059+9999REMMET10001/06/21 06:54:02 METAR K12N 061154Z VRB04KT 02/M03 A2997 RMK AO1 SLP158 T00171033 10022 20006 52005EQDR01      7SKY009R02      7GAS009
0155724077547792021010612547+41009-074736FM-15+0178K12N V0203505N004159999999N9999997N5+00175-00335101655ADDAA101000095MA1101565099435REMMET08201/06/21 07:54:02 METAR K12N 061254Z 35008KT 02/M03 A2999 RMK AO1 SLP165 T00171033EQDR01      7SKY009R02      7GAS009
0166724077547792021010613547+41009-074736FM-15+0178K12N V0203405V006259999999N9999997N5+00115-00445101735ADDAA101000095MA1101635099505OC100985REMMET08501/06/21 08:54:02 METAR K12N 061354Z 34012G19KT 01/M04 A3001 RMK AO1 SLP173 T00111044EQDR01      7SKY009R02      7GAS009
0175724077547792021010614547+41009-074736FM-15+0178K12N V0200105V003659999999N9999997N5+00175-00445101725ADDAA101000095MA1101635099505MD1090149+9999REMMET08801/06/21 09:54:02 METAR K12N 061454Z 01007KT 02/M04 A3001 RMK AO1 SLP172 T00171044 50014EQDR01      7SKY009R02      7GAS009
0166724077547792021010615547+41009-074736FM-15+0178K12N V0203405N006259999999N9999997N5+00225-00445101725ADDAA101000095MA1101635099505OC100985REMMET08501/06/21 10:54:02 METAR K12N 061554Z 34012G19KT 02/M04 A3001 RMK AO1 SLP172 T00221044EQDR01      7SKY009R02      7GAS009
0166724077547792021010616547+41009-074736FM-15+0178K12N V0203405V006759999999N9999997N5+00225-00445101725ADDAA101000095MA1101635099505OC100985REMMET08501/06/21 11:54:02 METAR K12N 061654Z 34013G19KT 02/M04 A3001 RMK AO1 SLP172 T00221044EQDR01      7SKY009R02      7GAS009
0224724077547792021010617547+41009-074736FM-15+0178K12N V0203405N005759999999N9999997N5+00225-00445101665ADDAA101000095KA1060M+00331KA2060N+00111MA1101565099435MD1890069+9999OC100935REMMET10301/06/21 12:54:02 METAR K12N 061754Z 34011G18KT 02/M04 A2999 RMK AO1 SLP166 T00221044 10033 20011 58006EQDR01      7SKY009R02      7GAS009
0166724077547792021010618547+41009-074736FM-15+0178K12N V0203605V003659999999N9999997N5+00225-00395101675ADDAA101000095MA1101595099475OC100775REMMET08501/06/21 13:54:02 METAR K12N 061854Z 36007G15KT 02/M04 A3000 RMK AO1 SLP167 T00221039EQDR01      7SKY009R02      7GAS009
0166724077547792021010619547+41009-074736FM-15+0178K12N V0203405N005159999999N9999997N5+00225-00395101735ADDAA101000095MA1101665099535OC100935REMMET08501/06/21 14:54:02 METAR K12N 061954Z 34010G18KT 02/M04 A3002 RMK AO1 SLP173 T00221039EQDR01      7SKY009R02      7GAS009
0186724077547792021010620547+41009-074736FM-15+0178K12N V0203505N006259999999N9999997N5+00175-00395101785ADDAA101000095MA1101695099575MD1390129+9999OC101135REMMET09101/06/21 15:54:02 METAR K12N 062054Z 35012G22KT 02/M04 A3003 RMK AO1 SLP178 T00171039 53012EQDR01      7SKY009R02      7GAS009
0155724077547792021010621547+41009-074736FM-15+0178K12N V0203505N004159999999N9999997N5+00175-00395101835ADDAA101000095MA1101735099605REMMET08201/06/21 16:54:02 METAR K12N 062154Z 35008KT 02/M04 A3004 RMK AO1 SLP183 T00171039EQDR01      7SKY009R02      7GAS009
0166724077547792021010622547+41009-074736FM-15+0178K12N V0203505N004659999999N9999997N5+00175-00395101845ADDAA101000095MA1101765099635OC100775REMMET08501/06/21 17:54:02 METAR K12N 062254Z 35009G15KT 02/M04 A3005 RMK AO1 SLP184 T00171039EQDR01      7SKY009R02      7GAS009
0224724077547792021010623547+41009-074736FM-15+0178K12N V0203505V005159999999N9999997N5+00175-00395101885ADDAA101000095KA1060M+00281KA2060N+00171MA1101795099675MD1190109+9999OC100825REMMET10301/06/21 18:54:02 METAR K12N 062354Z 35010G16KT 02/M04 A3006 RMK AO1 SLP188 T00171039 10028 20017 51010EQDR01      7SKY009R02      7GAS009
0155724077547792021010700547+41009-074736FM-15+0178K12N V0203405N002659999999N9999997N5+00175-00395101915ADDAA101000095MA1101835099705REMMET08201/06/21 19:54:01 METAR K12N 070054Z 34005KT 02/M04 A3007 RMK AO1 SLP191 T00171039EQDR01      7SKY009R02      7GAS009
0166724077547792021010701547+41009-074736FM-15+0178K12N V0203305V004159999999N9999997N5+00115-00445101905ADDAA101000095MA1101795099675OC100825REMMET08501/06/21 20:54:01 METAR K12N 070154Z 33008G16KT 01/M04 A3006 RMK AO1 SLP190 T00111044EQDR01      7SKY009R02      7GAS009
0186724077547792021010702547+41009-074736FM-15+0178K12N V0203505V004159999999N9999997N5+00065-00505101885ADDAA101000095MA1101765099635MD1890029+9999OC100935REMMET09101/06/21 21:54:01 METAR K12N 070254Z 35008G18KT 01/M05 A3005 RMK AO1 SLP188 T00061050 58002EQDR01      7SKY009R02      7GAS009
0166724077547792021010703547+41009-074736FM-15+0178K12N V0203605V004159999999N9999997N5+00065-00505101865ADDAA101000095MA1101765099635OC100935REMMET08501/06/21 22:54:01 METAR K12N 070354Z 36008G18KT 01/M05 A3005 RMK AO1 SLP186 T00061050EQDR01      7SKY009R02      7GAS009
0191724077547792021010704547+41009-074736FM-15+0178K12N V0203505N003159999999N9999997N5+00005-00505101885ADDAA101000095KA1240M+00331KA2240N-00061MA1101795099675REMMET09201/06/21 23:54:02 METAR K12N 070454Z 35006KT 00/M05 A3006 RMK AO1 SLP188 T00001050 400331006EQDR01      7SKY009R02      7GAS009
0886724077547792021010704596+41009-074736SOD  +0178K12N V020999999999999999999999999999+99999+99999999999ADDAA124000095KA1240M+00335KA2240N-00055MG1099414101424OE11240120734015245OE22240076034010225OE33240038099999995REMSOD73024 HR PRECIPITATION (IN):0.00  24 HR MAX TEMP (F):38 24 HR MAX TEMP TIME (LST):1112 24 HR MIN TEMP (F):31 24 HR MIN TEMP TIME (LST):0033 AVERAGE STATION PRESSURE:29.355 MINIMUM SEA LEVEL PRESSURE:29.95 TIME OF OCCURRENCE:0056 PEAK WIND SPEED (MPH):27  PEAK WIND DIR (DEG):340 PEAK WIND TIME (LST):1524  FASTEST 2MIN SPEED (MPH):17 FASTEST 2MIN DIR (DEG):340 FASTEST 2MIN TIME (LST):1022 AVERAGE WIND SPEED (MPH):8.5  24 HR AVG TEMP (F):35 HEATING DEGREE DAYS:30  COOLING DEGREE DAYS:0   LATEST DAY MAX TEMP (0700-1900 LST):38  LATEST NIGHT MIN TEMP(1900-0800 LST):31 HOURLY INCREMENTAL PRECIPITATION VALUES (IN):.00 0.00 0.00 0.00 0.00 0.00 0.00 0.00 0.00 0.00 0.00 0.00 0.00 0.00 0.00 0.00 0.00 0.00 0.00 0.00 0.00 0.00 0.00 0.00EQDR01     N7GJS072R02     N7GKS075
0213724077547792021010705547+41009-074736FM-15+0178K12N V0203205N003159999999N9999997N5+00005-00505101895ADDAA101000095KA1060M+00171KA2060N+00001MA1101795099675MD1390019+9999REMMET10001/07/21 00:54:02 METAR K12N 070554Z 32006KT 00/M05 A3006 RMK AO1 SLP189 T00001050 10017 20000 53001EQDR01      7SKY009R02      7GAS009
0155724077547792021010706547+41009-074736FM-15+0178K12N V0203305V004159999999N9999997N5+00005-00565101925ADDAA101000095MA1101835099705REMMET08201/07/21 01:54:02 METAR K12N 070654Z 33008KT 00/M06 A3007 RMK AO1 SLP192 T00001056EQDR01      7SKY009R02      7GAS009
0166724077547792021010707547+41009-074736FM-15+0178K12N V0203505V005159999999N9999997N5+00005-00565101935ADDAA101000095MA1101835099705OC100885REMMET08501/07/21 02:54:02 METAR K12N 070754Z 35010G17KT 00/M06 A3007 RMK AO1 SLP193 T00001056EQDR01      7SKY009R02      7GAS009
0176724077547792021010708547+41009-074736FM-15+0178K12N V0209999V002659999999N9999997N5-00065-00565101885ADDAA101000095MA1101795099675MD1890019+9999REMMET08901/07/21 03:54:02 METAR K12N 070854Z VRB05KT M01/M06 A3006 RMK AO1 SLP188 T10061056 58001EQDR01      7SKY009R02      7GAS009
0156724077547792021010709547+41009-074736FM-15+0178K12N V0209999V003159999999N9999997N5-00065-00615101925ADDAA101000095MA1101835099705REMMET08301/07/21 04:54:02 METAR K12N 070954Z VRB06KT M01/M06 A3007 RMK AO1 SLP192 T10061061EQDR01      7SKY009R02      7GAS009
0156724077547792021010710547+41009-074736FM-15+0178K12N V0209999V002659999999N9999997N5-00065-00615101985ADDAA101000095MA1101865099735REMMET08301/07/21 05:54:02 METAR K12N 071054Z VRB05KT M01/M06 A3008 RMK AO1 SLP198 T10061061EQDR01      7SKY009R02      7GAS009
0214724077547792021010711547+41009-074736FM-15+0178K12N V0203505N003159999999N9999997N5-00115-00615102045ADDAA101000095KA1060M+00001KA2060N-00111MA1101935099805MD1390159+9999REMMET10101/07/21 06:54:02 METAR K12N 071154Z 35006KT M01/M06 A3010 RMK AO1 SLP204 T10111061 10000 21011 53015EQDR01      7SKY009R02      7GAS009
0156724077547792021010712547+41009-074736FM-15+0178K12N V0203605N003659999999N9999997N5-00115-00615102125ADDAA101000095MA1102035099905REMMET08301/07/21 07:54:02 METAR K12N 071254Z 36007KT M01/M06 A3013 RMK AO1 SLP212 T10111061EQDR01      7SKY009R02      7GAS009
0156724077547792021010713547+41009-074736FM-15+0178K12N V0203505N003659999999N9999997N5-00065-00675102185ADDAA101000095MA1102075099935REMMET08301/07/21 08:54:02 METAR K12N 071354Z 35007KT M01/M07 A3014 RMK AO1 SLP218 T10061067EQDR01      7SKY009R02      7GAS009
0175724077547792021010714547+41009-074736FM-15+0178K12N V0203505N004159999999N9999997N5+00065-00675102175ADDAA101000095MA1102075099935MD1090139+9999REMMET08801/07/21 09:54:02 METAR K12N 071454Z 35008KT 01/M07 A3014 RMK AO1 SLP217 T00061067 50013EQDR01      7SKY009R02      7GAS009
0166724077547792021010715547+41009-074736FM-15+0178K12N V0209999V003159999999N9999997N5+00115-00675102105ADDAA101000095MA1102005099875OC101035REMMET08501/07/21 10:54:02 METAR K12N 071554Z VRB06G20KT 01/M07 A3012 RMK AO1 SLP210 T00111067EQDR01      7SKY009R02      7GAS009
0166724077547792021010716547+41009-074736FM-15+0178K12N V0203505N005759999999N9999997N5+00225-00675102035ADDAA101000095MA1101935099805OC100775REMMET08501/07/21 11:54:02 METAR K12N 071654Z 35011G15KT 02/M07 A3010 RMK AO1 SLP203 T00221067EQDR01      7SKY009R02      7GAS009
0200724077547792021010717547+41009-074736FM-15+0178K12N V0209999N999999999999N9999997N5+00335-00615101975ADDAA101000095KA1060M+00331MA1101865099735MD1690199+9999REMMET10001/07/21 12:54:02 METAR K12N 071754Z      KT 03/M06 A3008 RMK AO1 SLP197 T00331061 10033 21011 56019EQDR01      7SKY009R02      7GAS009
0166724077547792021010718547+41009-074736FM-15+0178K12N V0203405N004659999999N9999997N5+00395-00615101945ADDAA101000095MA1101865099735OC100885REMMET08501/07/21 13:54:02 METAR K12N 071854Z 34009G17KT 04/M06 A3008 RMK AO1 SLP194 T00391061EQDR01      7SKY009R02      7GAS009
0166724077547792021010719547+41009-074736FM-15+0178K12N V0203605N003659999999N9999997N5+00335-00615101965ADDAA101000095MA1101865099735OC100825REMMET08501/07/21 14:54:02 METAR K12N 071954Z 36007G16KT 03/M06 A3008 RMK AO1 SLP196 T00331061EQDR01      7SKY009R02      7GAS009
0186724077547792021010720547+41009-074736FM-15+0178K12N V0203505N006259999999N9999997N5+00285-00615102035ADDAA101000095MA1101935099805MD1390059+9999OC100985REMMET09101/07/21 15:54:02 METAR K12N 072054Z 35012G19KT 03/M06 A3010 RMK AO1 SLP203 T00281061 53005EQDR01      7SKY009R02      7GAS009
0155724077547792021010721547+41009-074736FM-15+0178K12N V0203305N001559999999N9999997N5+00115-00675102105ADDAA101000095MA1102005099875REMMET08201/07/21 16:54:02 METAR K12N 072154Z 33003KT 01/M07 A3012 RMK AO1 SLP210 T00111067EQDR01      7SKY009R02      7GAS009
0155724077547792021010722547+41009-074736FM-15+0178K12N V0203505N003159999999N9999997N5+00005-00615102135ADDAA101000095MA1102035099905REMMET08201/07/21 17:54:02 METAR K12N 072254Z 35006KT 00/M06 A3013 RMK AO1 SLP213 T00001061EQDR01      7SKY009R02      7GAS009
0214724077547792021010723547+41009-074736FM-15+0178K12N V0209999V002659999999N9999997N5-00115-00615102135ADDAA101000095KA1060M+00391KA2060N-00111MA1102035099905MD1190089+9999REMMET10101/07/21 18:54:02 METAR K12N 072354Z VRB05KT M01/M06 A3013 RMK AO1 SLP213 T10111061 10039 21011 51008EQDR01      7SKY009R02      7GAS009
0156724077547792021010800547+41009-074736FM-15+0178K12N V0203505N002659999999N9999997N5-00115-00615102125ADDAA101000095MA1102005099875REMMET08301/07/21 19:54:01 METAR K12N 080054Z 35005KT M01/M06 A3012 RMK AO1 SLP212 T10111061EQDR01      7SKY009R02      7GAS009
0156724077547792021010801547+41009-074736FM-15+0178K12N V0203505N003159999999N9999997N5-00175-00615102135ADDAA101000095MA1102035099905REMMET08301/07/21 20:54:01 METAR K12N 080154Z 35006KT M02/M06 A3013 RMK AO1 SLP213 T10171061EQDR01      7SKY009R02      7GAS009
0176724077547792021010802547+41009-074736FM-15+0178K12N V0203605N002159999999N9999997N5-00175-00615102085ADDAA101000095MA1101965099835MD1890049+9999REMMET08901/07/21 21:54:01 METAR K12N 080254Z 36004KT M02/M06 A3011 RMK AO1 SLP208 T10171061 58004EQDR01      7SKY009R02      7GAS009
0156724077547792021010803547+41009-074736FM-15+0178K12N V0203505N003159999999N9999997N5-00225-00615102075ADDAA101000095MA1101965099835REMMET08301/07/21 22:54:01 METAR K12N 080354Z 35006KT M02/M06 A3011 RMK AO1 SLP207 T10221061EQDR01      7SKY009R02      7GAS009
0192724077547792021010804547+41009-074736FM-15+0178K12N V0203605N002159999999N9999997N5-00225-00615102005ADDAA101000095KA1240M+00391KA2240N-00221MA1101905099775REMMET09301/07/21 23:54:02 METAR K12N 080454Z 36004KT M02/M06 A3009 RMK AO1 SLP200 T10221061 400391022EQDR01      7SKY009R02      7GAS009
0886724077547792021010804596+41009-074736SOD  +0178K12N V020999999999999999999999999999+99999+99999999999ADDAA124000095KA1240M+00395KA2240N-00215MG1099764101864OE11240107336008325OE22240067135010485OE33240034099999995REMSOD73024 HR PRECIPITATION (IN):0.00  24 HR MAX TEMP (F):39 24 HR MAX TEMP TIME (LST):1448 24 HR MIN TEMP (F):28 24 HR MIN TEMP TIME (LST):2359 AVERAGE STATION PRESSURE:29.460 MINIMUM SEA LEVEL PRESSURE:30.08 TIME OF OCCURRENCE:0353 PEAK WIND SPEED (MPH):24  PEAK WIND DIR (DEG):360 PEAK WIND TIME (LST):0832  FASTEST 2MIN SPEED (MPH):15 FASTEST 2MIN DIR (DEG):350 FASTEST 2MIN TIME (LST):1048 AVERAGE WIND SPEED (MPH):7.6  24 HR AVG TEMP (F):34 HEATING DEGREE DAYS:31  COOLING DEGREE DAYS:0   LATEST DAY MAX TEMP (0700-1900 LST):39  LATEST NIGHT MIN TEMP(1900-0800 LST):30 HOURLY INCREMENTAL PRECIPITATION VALUES (IN):.00 0.00 0.00 0.00 0.00 0.00 0.00 0.00 0.00 0.00 0.00 0.00 0.00 0.00 0.00 0.00 0.00 0.00 0.00 0.00 0.00 0.00 0.00 0.00EQDR01     N7GJS072R02     N7GKS075
0214724077547792021010805547+41009-074736FM-15+0178K12N V0203505N003659999999N9999997N5-00285-00675102005ADDAA101000095KA1060M-00061KA2060N-00281MA1101905099775MD1590079+9999REMMET10101/08/21 00:54:02 METAR K12N 080554Z 35007KT M03/M07 A3009 RMK AO1 SLP200 T10281067 11006 21028 55007EQDR01      7SKY009R02      7GAS009
0156724077547792021010806547+41009-074736FM-15+0178K12N V0203505N002159999999N9999997N5-00285-00675101965ADDAA101000095MA1101865099735REMMET08301/08/21 01:54:02 METAR K12N 080654Z 35004KT M03/M07 A3008 RMK AO1 SLP196 T10281067EQDR01      7SKY009R02      7GAS009
0156724077547792021010807547+41009-074736FM-15+0178K12N V0200305N001559999999N9999997N5-00335-00675101945ADDAA101000095MA1101835099705REMMET08301/08/21 02:54:02 METAR K12N 080754Z 03003KT M03/M07 A3007 RMK AO1 SLP194 T10331067EQDR01      7SKY009R02      7GAS009
0176724077547792021010808547+41009-074736FM-15+0178K12N V0203505N002159999999N9999997N5-00395-00725101905ADDAA101000095MA1101795099675MD1890109+9999REMMET08901/08/21 03:54:02 METAR K12N 080854Z 35004KT M04/M07 A3006 RMK AO1 SLP190 T10391072 58010EQDR01      7SKY009R02      7GAS009
0156724077547792021010809547+41009-074736FM-15+0178K12N V0203505N002159999999N9999997N5-00445-00725101905ADDAA101000095MA1101795099675REMMET08301/08/21 04:54:02 METAR K12N 080954Z 35004KT M04/M07 A3006 RMK AO1 SLP190 T10441072EQDR01      7SKY009R02      7GAS009
0156724077547792021010810547+41009-074736FM-15+0178K12N V0209999V002159999999N9999997N5-00395-00725101885ADDAA101000095MA1101765099635REMMET08301/08/21 05:54:02 METAR K12N 081054Z VRB04KT M04/M07 A3005 RMK AO1 SLP188 T10391072EQDR01      7SKY009R02      7GAS009
0214724077547792021010811547+41009-074736FM-15+0178K12N V0200305N001559999999N9999997N5-00395-00725101865ADDAA101000095KA1060M-00281KA2060N-00441MA1101735099605MD1890059+9999REMMET10101/08/21 06:54:02 METAR K12N 081154Z 03003KT M04/M07 A3004 RMK AO1 SLP186 T10391072 11028 21044 58005EQDR01      7SKY009R02      7GAS009
0156724077547792021010812547+41009-074736FM-15+0178K12N V0200305N003159999999N9999997N5-00445-00725101855ADDAA101000095MA1101735099605REMMET08301/08/21 07:54:02 METAR K12N 081254Z 03006KT M04/M07 A3004 RMK AO1 SLP185 T10441072EQDR01      7SKY009R02      7GAS009
0156724077547792021010813547+41009-074736FM-15+0178K12N V0200305N003159999999N9999997N5-00335-00675101835ADDAA101000095MA1101735099605REMMET08301/08/21 08:54:02 METAR K12N 081354Z 03006KT M03/M07 A3004 RMK AO1 SLP183 T10331067EQDR01      7SKY009R02      7GAS009
0176724077547792021010814547+41009-074736FM-15+0178K12N V0200305N001559999999N9999997N5-00225-00675101845ADDAA101000095MA1101735099605MD1590029+9999REMMET08901/08/21 09:54:02 METAR K12N 081454Z 03003KT M02/M07 A3004 RMK AO1 SLP184 T10221067 55002EQDR01      7SKY009R02      7GAS009
0155724077547792021010815547+41009-074736FM-15+0178K12N V0209999V002659999999N9999997N5+00065-00615101715ADDAA101000095MA1101595099475REMMET08201/08/21 10:54:02 METAR K12N 081554Z VRB05KT 01/M06 A3000 RMK AO1 SLP171 T00061061EQDR01      7SKY009R02      7GAS009
0155724077547792021010816547+41009-074736FM-15+0178K12N V0200305N001559999999N9999997N5+00225-00675101645ADDAA101000095MA1101525099405REMMET08201/08/21 11:54:02 METAR K12N 081654Z 03003KT 02/M07 A2998 RMK AO1 SLP164 T00221067EQDR01      7SKY009R02      7GAS009
0213724077547792021010817547+41009-074736FM-15+0178K12N V0209999V002159999999N9999997N5+00225-00565101535ADDAA101000095KA1060M+00221KA2060N-00441MA1101425099305MD1690299+9999REMMET10001/08/21 12:54:02 METAR K12N 081754Z VRB04KT 02/M06 A2995 RMK AO1 SLP153 T00221056 10022 21044 56029EQDR01      7SKY009R02      7GAS009
0155724077547792021010818547+41009-074736FM-15+0178K12N V0203605N001559999999N9999997N5+00285-00615101435ADDAA101000095MA1101325099205REMMET08201/08/21 13:54:02 METAR K12N 081854Z 36003KT 03/M06 A2992 RMK AO1 SLP143 T00281061EQDR01      7SKY009R02      7GAS009
0155724077547792021010819547+41009-074736FM-15+0178K12N V0200305N002159999999N9999997N5+00225-00565101415ADDAA101000095MA1101295099175REMMET08201/08/21 14:54:02 METAR K12N 081954Z 03004KT 02/M06 A2991 RMK AO1 SLP141 T00221056EQDR01      7SKY009R02      7GAS009
0175724077547792021010820547+41009-074736FM-15+0178K12N V0203505N002659999999N9999997N5+00175-00615101415ADDAA101000095MA1101295099175MD1690129+9999REMMET08801/08/21 15:54:02 METAR K12N 082054Z 35005KT 02/M06 A2991 RMK AO1 SLP141 T00171061 56012EQDR01      7SKY009R02      7GAS009
0155724077547792021010821547+41009-074736FM-15+0178K12N V0203405N002159999999N9999997N5+00065-00725101445ADDAA101000095MA1101325099205REMMET08201/08/21 16:54:02 METAR K12N 082154Z 34004KT 01/M07 A2992 RMK AO1 SLP144 T00061072EQDR01      7SKY009R02      7GAS009
0155724077547792021010822547+41009-074736FM-15+0178K12N V0209999V001559999999N9999997N5+00005-00675101425ADDAA101000095MA1101295099175REMMET08201/08/21 17:54:02 METAR K12N 082254Z VRB03KT 00/M07 A2991 RMK AO1 SLP142 T00001067EQDR01      7SKY009R02      7GAS009
0229724077547792021010823547+41009-074736FM-15+0178K12N V0203605N002159999999N9999997N5+00005-00785101425ADDAA101000095KA1060M+00281KA2060N+00001MA1101295099175MD1890009+9999REMMET10001/08/21 18:54:02 METAR K12N 082354Z 36004KT 00/M08 A2991 RMK AO1 SLP142 T00001078 10028 20000 58000EQDQ010     3APC3  R01      7SKY009R02      7GAS009
0156724077547792021010900547+41009-074736FM-15+0178K12N V0203505N002659999999N9999997N5-00065-00835101405ADDAA101000095MA1101295099175REMMET08301/08/21 19:54:01 METAR K12N 090054Z 35005KT M01/M08 A2991 RMK AO1 SLP140 T10061083EQDR01      7SKY009R02      7GAS009
0156724077547792021010901547+41009-074736FM-15+0178K12N V0203605N002159999999N9999997N5-00115-00835101405ADDAA101000095MA1101295099175REMMET08301/08/21 20:54:01 METAR K12N 090154Z 36004KT M01/M08 A2991 RMK AO1 SLP140 T10111083EQDR01      7SKY009R02      7GAS009
0176724077547792021010902547+41009-074736FM-15+0178K12N V0203605N001559999999N9999997N5-00225-00835101385ADDAA101000095MA1101255099135MD1890049+9999REMMET08901/08/21 21:54:01 METAR K12N 090254Z 36003KT M02/M08 A2990 RMK AO1 SLP138 T10221083 58004EQDR01      7SKY009R02      7GAS009
0156724077547792021010903547+41009-074736FM-15+0178K12N V0200305N002159999999N9999997N5-00335-00895101325ADDAA101000095MA1101225099105REMMET08301/08/21 22:54:01 METAR K12N 090354Z 03004KT M03/M09 A2989 RMK AO1 SLP132 T10331089EQDR01      7SKY009R02      7GAS009
0192724077547792021010904547+41009-074736FM-15+0178K12N V0203605N003159999999N9999997N5-00335-01065101295ADDAA101000095KA1240M+00281KA2240N-00441MA1101195099075REMMET09301/08/21 23:54:02 METAR K12N 090454Z 36006KT M03/M11 A2988 RMK AO1 SLP129 T10331106 400281044EQDR01      7SKY009R02      7GAS009
0886724077547792021010904596+41009-074736SOD  +0178K12N V020999999999999999999999999999+99999+99999999999ADDAA124000095KA1240M+00285KA2240N-00435MG1099464101294OE11240062635023505OE22240040235019485OE33240021599999995REMSOD73024 HR PRECIPITATION (IN):0.00  24 HR MAX TEMP (F):37 24 HR MAX TEMP TIME (LST):1440 24 HR MIN TEMP (F):24 24 HR MIN TEMP TIME (LST):0825 AVERAGE STATION PRESSURE:29.370 MINIMUM SEA LEVEL PRESSURE:29.91 TIME OF OCCURRENCE:2359 PEAK WIND SPEED (MPH):14  PEAK WIND DIR (DEG):350 PEAK WIND TIME (LST):2350  FASTEST 2MIN SPEED (MPH):9  FASTEST 2MIN DIR (DEG):350 FASTEST 2MIN TIME (LST):1948 AVERAGE WIND SPEED (MPH):4.8  24 HR AVG TEMP (F):31 HEATING DEGREE DAYS:34  COOLING DEGREE DAYS:0   LATEST DAY MAX TEMP (0700-1900 LST):37  LATEST NIGHT MIN TEMP(1900-0800 LST):24 HOURLY INCREMENTAL PRECIPITATION VALUES (IN):.00 0.00 0.00 0.00 0.00 0.00 0.00 0.00 0.00 0.00 0.00 0.00 0.00 0.00 0.00 0.00 0.00 0.00 0.00 0.00 0.00 0.00 0.00 0.00EQDR01     N7GJS072R02     N7GKS075
0214724077547792021010905547+41009-074736FM-15+0178K12N V0203505N002659999999N9999997N5-00445-01115101275ADDAA101000095KA1060M+00001KA2060N-00441MA1101155099035MD1690099+9999REMMET10101/09/21 00:54:02 METAR K12N 090554Z 35005KT M04/M11 A2987 RMK AO1 SLP127 T10441111 10000 21044 56009EQDR01      7SKY009R02      7GAS009
0156724077547792021010906547+41009-074736FM-15+0178K12N V0203605N003159999999N9999997N5-00565-01115101305ADDAA101000095MA1101195099075REMMET08301/09/21 01:54:02 METAR K12N 090654Z 36006KT M06/M11 A2988 RMK AO1 SLP130 T10561111EQDR01      7SKY009R02      7GAS009
0156724077547792021010907547+41009-074736FM-15+0178K12N V0209999V002159999999N9999997N5-00565-01065101295ADDAA101000095MA1101195099075REMMET08301/09/21 02:54:02 METAR K12N 090754Z VRB04KT M06/M11 A2988 RMK AO1 SLP129 T10561106EQDR01      7SKY009R02      7GAS009
0176724077547792021010908547+41009-074736FM-15+0178K12N V0203505N003659999999N9999997N5-00565-01115101265ADDAA101000095MA1101155099035MD1890029+9999REMMET08901/09/21 03:54:02 METAR K12N 090854Z 35007KT M06/M11 A2987 RMK AO1 SLP126 T10561111 58002EQDR01      7SKY009R02      7GAS009
0156724077547792021010909547+41009-074736FM-15+0178K12N V0209999V002159999999N9999997N5-00615-01175101275ADDAA101000095MA1101155099035REMMET08301/09/21 04:54:02 METAR K12N 090954Z VRB04KT M06/M12 A2987 RMK AO1 SLP127 T10611117EQDR01      7SKY009R02      7GAS009
0156724077547792021010910547+41009-074736FM-15+0178K12N V0200105N002659999999N9999997N5-00615-01225101285ADDAA101000095MA1101155099035REMMET08301/09/21 05:54:02 METAR K12N 091054Z 01005KT M06/M12 A2987 RMK AO1 SLP128 T10611122EQDR01      7SKY009R02      7GAS009
0214724077547792021010911547+41009-074736FM-15+0178K12N V0203505N002659999999N9999997N5-00615-01285101315ADDAA101000095KA1060M-00441KA2060N-00671MA1101195099075MD1390049+9999REMMET10101/09/21 06:54:02 METAR K12N 091154Z 35005KT M06/M13 A2988 RMK AO1 SLP131 T10611128 11044 21067 53004EQDR01      7SKY009R02      7GAS009
0156724077547792021010912547+41009-074736FM-15+0178K12N V0209999V003159999999N9999997N5-00615-01335101355ADDAA101000095MA1101225099105REMMET08301/09/21 07:54:02 METAR K12N 091254Z VRB06KT M06/M13 A2989 RMK AO1 SLP135 T10611133EQDR01      7SKY009R02      7GAS009
0156724077547792021010913547+41009-074736FM-15+0178K12N V0200205N001559999999N9999997N5-00445-01285101425ADDAA101000095MA1101295099175REMMET08301/09/21 08:54:02 METAR K12N 091354Z 02003KT M04/M13 A2991 RMK AO1 SLP142 T10441128EQDR01      7SKY009R02      7GAS009
0187724077547792021010914547+41009-074736FM-15+0178K12N V0209999V003159999999N9999997N5-00285-01225101445ADDAA101000095MA1101325099205MD1190149+9999OC100775REMMET09201/09/21 09:54:02 METAR K12N 091454Z VRB06G15KT M03/M12 A2992 RMK AO1 SLP144 T10281122 51014EQDR01      7SKY009R02      7GAS009
0167724077547792021010915547+41009-074736FM-15+0178K12N V0209999V003159999999N9999997N5-00115-01175101365ADDAA101000095MA1101255099135OC100885REMMET08601/09/21 10:54:02 METAR K12N 091554Z VRB06G17KT M01/M12 A2990 RMK AO1 SLP136 T10111117EQDR01      7SKY009R02      7GAS009
0166724077547792021010916547+41009-074736FM-15+0178K12N V0200105V004159999999N9999997N5+00005-00945101285ADDAA101000095MA1101155099035OC100935REMMET08501/09/21 11:54:02 METAR K12N 091654Z 01008G18KT 00/M09 A2987 RMK AO1 SLP128 T00001094EQDR01      7SKY009R02      7GAS009
0224724077547792021010917547+41009-074736FM-15+0178K12N V0203505N003659999999N9999997N5+00065-01065101225ADDAA101000095KA1060M+00061KA2060N-00671MA1101125099005MD1690219+9999OC100775REMMET10301/09/21 12:54:02 METAR K12N 091754Z 35007G15KT 01/M11 A2986 RMK AO1 SLP122 T00061106 10006 21067 56021EQDR01      7SKY009R02      7GAS009
0166724077547792021010918547+41009-074736FM-15+0178K12N V0203605V003659999999N9999997N5+00115-01175101245ADDAA101000095MA1101125099005OC100825REMMET08501/09/21 13:54:02 METAR K12N 091854Z 36007G16KT 01/M12 A2986 RMK AO1 SLP124 T00111117EQDR01      7SKY009R02      7GAS009
0166724077547792021010919547+41009-074736FM-15+0178K12N V0203505N005759999999N9999997N5+00175-01225101305ADDAA101000095MA1101195099075OC100725REMMET08501/09/21 14:54:02 METAR K12N 091954Z 35011G14KT 02/M12 A2988 RMK AO1 SLP130 T00171122EQDR01      7SKY009R02      7GAS009
0175724077547792021010920547+41009-074736FM-15+0178K12N V0203605N002659999999N9999997N5+00175-01115101355ADDAA101000095MA1101225099105MD1390129+9999REMMET08801/09/21 15:54:02 METAR K12N 092054Z 36005KT 02/M11 A2989 RMK AO1 SLP135 T00171111 53012EQDR01      7SKY009R02      7GAS009
0155724077547792021010921547+41009-074736FM-15+0178K12N V0203405V004159999999N9999997N5+00225-00895101405ADDAA101000095MA1101295099175REMMET08201/09/21 16:54:02 METAR K12N 092154Z 34008KT 02/M09 A2991 RMK AO1 SLP140 T00221089EQDR01      7SKY009R02      7GAS009
0155724077547792021010922547+41009-074736FM-15+0178K12N V0203505N004159999999N9999997N5+00225-00835101445ADDAA101000095MA1101325099205REMMET08201/09/21 17:54:02 METAR K12N 092254Z 35008KT 02/M08 A2992 RMK AO1 SLP144 T00221083EQDR01      7SKY009R02      7GAS009
0224724077547792021010923547+41009-074736FM-15+0178K12N V0203505N004159999999N9999997N5+00175-00835101495ADDAA101000095KA1060M+00221KA2060N+00061MA1101355099235MD1290149+9999OC100725REMMET10301/09/21 18:54:02 METAR K12N 092354Z 35008G14KT 02/M08 A2993 RMK AO1 SLP149 T00171083 10022 20006 52014EQDR01      7SKY009R02      7GAS009
0166724077547792021011000547+41009-074736FM-15+0178K12N V0203405N005159999999N9999997N5+00175-00785101565ADDAA101000095MA1101465099335OC100985REMMET08501/09/21 19:54:01 METAR K12N 100054Z 34010G19KT 02/M08 A2996 RMK AO1 SLP156 T00171078EQDR01      7SKY009R02      7GAS009
0166724077547792021011001547+41009-074736FM-15+0178K12N V0203505N006259999999N9999997N5+00115-00785101625ADDAA101000095MA1101495099375OC100985REMMET08501/09/21 20:54:01 METAR K12N 100154Z 35012G19KT 01/M08 A2997 RMK AO1 SLP162 T00111078EQDR01      7SKY009R02      7GAS009
0186724077547792021011002547+41009-074736FM-15+0178K12N V0203505V004659999999N9999997N5+00005-00835101705ADDAA101000095MA1101595099475MD1390229+9999OC100775REMMET09101/09/21 21:54:01 METAR K12N 100254Z 35009G15KT 00/M08 A3000 RMK AO1 SLP170 T00001083 53022EQDR01      7SKY009R02      7GAS009
0156724077547792021011003547+41009-074736FM-15+0178K12N V0209999V002159999999N9999997N5-00065-00835101755ADDAA101000095MA1101635099505REMMET08301/09/21 22:54:01 METAR K12N 100354Z VRB04KT M01/M08 A3001 RMK AO1 SLP175 T10061083EQDR01      7SKY009R02      7GAS009
0192724077547792021011004547+41009-074736FM-15+0178K12N V0203605N003659999999N9999997N5-00115-00895101765ADDAA101000095KA1240M+00221KA2240N-00671MA1101665099535REMMET09301/09/21 23:54:02 METAR K12N 100454Z 36007KT M01/M09 A3002 RMK AO1 SLP176 T10111089 400221067EQDR01      7SKY009R02      7GAS009
0886724077547792021011004596+41009-074736SOD  +0178K12N V020999999999999999999999999999+99999+99999999999ADDAA124000095KA1240M+00225KA2240N-00665MG1099074101224OE11240107335012195OE22240071535010155OE33240034499999995REMSOD73024 HR PRECIPITATION (IN):0.00  24 HR MAX TEMP (F):36 24 HR MAX TEMP TIME (LST):1851 24 HR MIN TEMP (F):20 24 HR MIN TEMP TIME (LST):0714 AVERAGE STATION PRESSURE:29.255 MINIMUM SEA LEVEL PRESSURE:29.89 TIME OF OCCURRENCE:1352 PEAK WIND SPEED (MPH):24  PEAK WIND DIR (DEG):350 PEAK WIND TIME (LST):1219  FASTEST 2MIN SPEED (MPH):16 FASTEST 2MIN DIR (DEG):350 FASTEST 2MIN TIME (LST):1015 AVERAGE WIND SPEED (MPH):7.7  24 HR AVG TEMP (F):28 HEATING DEGREE DAYS:37  COOLING DEGREE DAYS:0   LATEST DAY MAX TEMP (0700-1900 LST):36  LATEST NIGHT MIN TEMP(1900-0800 LST):20 HOURLY INCREMENTAL PRECIPITATION VALUES (IN):.00 0.00 0.00 0.00 0.00 0.00 0.00 0.00 0.00 0.00 0.00 0.00 0.00 0.00 0.00 0.00 0.00 0.00 0.00 0.00 0.00 0.00 0.00 0.00EQDR01     N7GJS072R02     N7GKS075
0225724077547792021011005547+41009-074736FM-15+0178K12N V0203505V004659999999N9999997N5-00115-00945101805ADDAA101000095KA1060M+00171KA2060N-00111MA1101695099575MD1190109+9999OC100825REMMET10401/10/21 00:54:02 METAR K12N 100554Z 35009G16KT M01/M09 A3003 RMK AO1 SLP180 T10111094 10017 21011 51010EQDR01      7SKY009R02      7GAS009
0156724077547792021011006547+41009-074736FM-15+0178K12N V0203505N003159999999N9999997N5-00115-00895101875ADDAA101000095MA1101765099635REMMET08301/10/21 01:54:02 METAR K12N 100654Z 35006KT M01/M09 A3005 RMK AO1 SLP187 T10111089EQDR01      7SKY009R02      7GAS009
0156724077547792021011007547+41009-074736FM-15+0178K12N V0203505N002659999999N9999997N5-00115-00945101955ADDAA101000095MA1101865099735REMMET08301/10/21 02:54:02 METAR K12N 100754Z 35005KT M01/M09 A3008 RMK AO1 SLP195 T10111094EQDR01      7SKY009R02      7GAS009
0176724077547792021011008547+41009-074736FM-15+0178K12N V0203405N002659999999N9999997N5-00175-00945101985ADDAA101000095MA1101865099735MD1190179+9999REMMET08901/10/21 03:54:02 METAR K12N 100854Z 34005KT M02/M09 A3008 RMK AO1 SLP198 T10171094 51017EQDR01      7SKY009R02      7GAS009
0156724077547792021011009547+41009-074736FM-15+0178K12N V0203505N002659999999N9999997N5-00225-00895101975ADDAA101000095MA1101865099735REMMET08301/10/21 04:54:02 METAR K12N 100954Z 35005KT M02/M09 A3008 RMK AO1 SLP197 T10221089EQDR01      7SKY009R02      7GAS009
0156724077547792021011010547+41009-074736FM-15+0178K12N V0203405N002659999999N9999997N5-00285-00895102065ADDAA101000095MA1101965099835REMMET08301/10/21 05:54:02 METAR K12N 101054Z 34005KT M03/M09 A3011 RMK AO1 SLP206 T10281089EQDR01      7SKY009R02      7GAS009
0214724077547792021011011547+41009-074736FM-15+0178K12N V0209999C000059999999N9999997N5-00285-00895102135ADDAA101000095KA1060M-00111KA2060N-00281MA1102035099905MD1390159+9999REMMET10101/10/21 06:54:02 METAR K12N 101154Z 00000KT M03/M09 A3013 RMK AO1 SLP213 T10281089 11011 21028 53015EQDR01      7SKY009R02      7GAS009
0156724077547792021011012547+41009-074736FM-15+0178K12N V0203605N001559999999N9999997N5-00285-00895102235ADDAA101000095MA1102135100005REMMET08301/10/21 07:54:02 METAR K12N 101254Z 36003KT M03/M09 A3016 RMK AO1 SLP223 T10281089EQDR01      7SKY009R02      7GAS009
0156724077547792021011013547+41009-074736FM-15+0178K12N V0209999V003159999999N9999997N5-00115-00835102365ADDAA101000095MA1102245100105REMMET08301/10/21 08:54:02 METAR K12N 101354Z VRB06KT M01/M08 A3019 RMK AO1 SLP236 T10111083EQDR01      7SKY009R02      7GAS009
0186724077547792021011014547+41009-074736FM-15+0178K12N V0203505V004159999999N9999997N5+00005-00785102455ADDAA101000095MA1102345100205MD1190319+9999OC100825REMMET09101/10/21 09:54:02 METAR K12N 101454Z 35008G16KT 00/M08 A3022 RMK AO1 SLP245 T00001078 51031EQDR01      7SKY009R02      7GAS009
0155724077547792021011015547+41009-074736FM-15+0178K12N V0203505N003659999999N9999997N5+00065-00725102475ADDAA101000095MA1102375100235REMMET08201/10/21 10:54:02 METAR K12N 101554Z 35007KT 01/M07 A3023 RMK AO1 SLP247 T00061072EQDR01      7SKY009R02      7GAS009
0155724077547792021011016547+41009-074736FM-15+0178K12N V0209999V003159999999N9999997N5+00175-00725102405ADDAA101000095MA1102305100165REMMET08201/10/21 11:54:02 METAR K12N 101654Z VRB06KT 02/M07 A3021 RMK AO1 SLP240 T00171072EQDR01      7SKY009R02      7GAS009
0213724077547792021011017547+41009-074736FM-15+0178K12N V0200305V003659999999N9999997N5+00285-00725102355ADDAA101000095KA1060M+00331KA2060N-00331MA1102245100105MD1890099+9999REMMET10001/10/21 12:54:02 METAR K12N 101754Z 03007KT 03/M07 A3019 RMK AO1 SLP235 T00281072 10033 21033 58009EQDR01      7SKY009R02      7GAS009
0155724077547792021011018547+41009-074736FM-15+0178K12N V0209999V002659999999N9999997N5+00445-00725102335ADDAA101000095MA1102245100105REMMET08201/10/21 13:54:02 METAR K12N 101854Z VRB05KT 04/M07 A3019 RMK AO1 SLP233 T00441072EQDR01      7SKY009R02      7GAS009
0155724077547792021011019547+41009-074736FM-15+0178K12N V0200105N002159999999N9999997N5+00565-00785102335ADDAA101000095MA1102245100105REMMET08201/10/21 14:54:02 METAR K12N 101954Z 01004KT 06/M08 A3019 RMK AO1 SLP233 T00561078EQDR01      7SKY009R02      7GAS009
0175724077547792021011020547+41009-074736FM-15+0178K12N V0209999N999999999999N9999997N5+00505-00835102405ADDAA101000095MA1102305100165MD1390069+9999REMMET08801/10/21 15:54:02 METAR K12N 102054Z      KT 05/M08 A3021 RMK AO1 SLP240 T00501083 53006EQDR01      7SKY009R02      7GAS009
0155724077547792021011021547+41009-074736FM-15+0178K12N V0209999C000059999999N9999997N5+00115-00835102505ADDAA101000095MA1102405100265REMMET08201/10/21 16:54:02 METAR K12N 102154Z 00000KT 01/M08 A3024 RMK AO1 SLP250 T00111083EQDR01      7SKY009R02      7GAS009
0156724077547792021011022547+41009-074736FM-15+0178K12N V0209999C000059999999N9999997N5-00175-00725102575ADDAA101000095MA1102445100305REMMET08301/10/21 17:54:02 METAR K12N 102254Z 00000KT M02/M07 A3025 RMK AO1 SLP257 T10171072EQDR01      7SKY009R02      7GAS009
0214724077547792021011023547+41009-074736FM-15+0178K12N V0209999C000059999999N9999997N5-00335-00725102635ADDAA101000095KA1060M+00561KA2060N-00331MA1102515100365MD1190199+9999REMMET10101/10/21 18:54:02 METAR K12N 102354Z 00000KT M03/M07 A3027 RMK AO1 SLP263 T10331072 10056 21033 51019EQDR01      7SKY009R02      7GAS009
0156724077547792021011100547+41009-074736FM-15+0178K12N V0209999C000059999999N9999997N5-00335-00675102685ADDAA101000095MA1102545100405REMMET08301/10/21 19:54:01 METAR K12N 110054Z 00000KT M03/M07 A3028 RMK AO1 SLP268 T10331067EQDR01      7SKY009R02      7GAS009
0156724077547792021011101547+41009-074736FM-15+0178K12N V0209999C000059999999N9999997N5-00445-00675102745ADDAA101000095MA1102615100465REMMET08301/10/21 20:54:01 METAR K12N 110154Z 00000KT M04/M07 A3030 RMK AO1 SLP274 T10441067EQDR01      7SKY009R02      7GAS009
0176724077547792021011102547+41009-074736FM-15+0178K12N V0209999C000059999999N9999997N5-00505-00725102755ADDAA101000095MA1102645100505MD1190139+9999REMMET08901/10/21 21:54:01 METAR K12N 110254Z 00000KT M05/M07 A3031 RMK AO1 SLP275 T10501072 51013EQDR01      7SKY009R02      7GAS009
0156724077547792021011103547+41009-074736FM-15+0178K12N V0209999C000059999999N9999997N5-00565-00725102725ADDAA101000095MA1102615100465REMMET08301/10/21 22:54:01 METAR K12N 110354Z 00000KT M06/M07 A3030 RMK AO1 SLP272 T10561072EQDR01      7SKY009R02      7GAS009
0192724077547792021011104547+41009-074736FM-15+0178K12N V0209999C000059999999N9999997N5-00505-00725102745ADDAA101000095KA1240M+00561KA2240N-00561MA1102615100465REMMET09301/10/21 23:54:02 METAR K12N 110454Z 00000KT M05/M07 A3030 RMK AO1 SLP274 T10501072 400561056EQDR01      7SKY009R02      7GAS009
0886724077547792021011104596+41009-074736SOD  +0178K12N V020999999999999999999999999999+99999+99999999999ADDAA124000095KA1240M+00565KA2240N-00555MG1099974101764OE11240084935010235OE22240062634009445OE33240018399999995REMSOD73024 HR PRECIPITATION (IN):0.00  24 HR MAX TEMP (F):42 24 HR MAX TEMP TIME (LST):1534 24 HR MIN TEMP (F):22 24 HR MIN TEMP TIME (LST):2335 AVERAGE STATION PRESSURE:29.520 MINIMUM SEA LEVEL PRESSURE:30.05 TIME OF OCCURRENCE:0022 PEAK WIND SPEED (MPH):19  PEAK WIND DIR (DEG):350 PEAK WIND TIME (LST):1023  FASTEST 2MIN SPEED (MPH):14 FASTEST 2MIN DIR (DEG):340 FASTEST 2MIN TIME (LST):0944 AVERAGE WIND SPEED (MPH):4.1  24 HR AVG TEMP (F):32 HEATING DEGREE DAYS:33  COOLING DEGREE DAYS:0   LATEST DAY MAX TEMP (0700-1900 LST):42  LATEST NIGHT MIN TEMP(1900-0800 LST):26 HOURLY INCREMENTAL PRECIPITATION VALUES (IN):.00 0.00 0.00 0.00 0.00 0.00 0.00 0.00 0.00 0.00 0.00 0.00 0.00 0.00 0.00 0.00 0.00 0.00 0.00 0.00 0.00 0.00 0.00 0.00EQDR01     N7GJS072R02     N7GKS075
0214724077547792021011105547+41009-074736FM-15+0178K12N V0209999C000059999999N9999997N5-00675-00835102745ADDAA101000095KA1060M-00331KA2060N-00671MA1102615100465MD1690019+9999REMMET10101/11/21 00:54:02 METAR K12N 110554Z 00000KT M07/M08 A3030 RMK AO1 SLP274 T10671083 11033 21067 56001EQDR01      7SKY009R02      7GAS009
0156724077547792021011106547+41009-074736FM-15+0178K12N V0209999C000059999999N9999997N5-00615-00835102775ADDAA101000095MA1102645100505REMMET08301/11/21 01:54:02 METAR K12N 110654Z 00000KT M06/M08 A3031 RMK AO1 SLP277 T10611083EQDR01      7SKY009R02      7GAS009
0156724077547792021011107547+41009-074736FM-15+0178K12N V0200305N001559999999N9999997N5-00615-00835102745ADDAA101000095MA1102645100505REMMET08301/11/21 02:54:02 METAR K12N 110754Z 03003KT M06/M08 A3031 RMK AO1 SLP274 T10611083EQDR01      7SKY009R02      7GAS009
0176724077547792021011108547+41009-074736FM-15+0178K12N V0209999C000059999999N9999997N5-00675-00895102705ADDAA101000095MA1102575100435MD1890029+9999REMMET08901/11/21 03:54:02 METAR K12N 110854Z 00000KT M07/M09 A3029 RMK AO1 SLP270 T10671089 58002EQDR01      7SKY009R02      7GAS009
0156724077547792021011109547+41009-074736FM-15+0178K12N V0209999C000059999999N9999997N5-00725-00895102805ADDAA101000095MA1102685100535REMMET08301/11/21 04:54:02 METAR K12N 110954Z 00000KT M07/M09 A3032 RMK AO1 SLP280 T10721089EQDR01      7SKY009R02      7GAS009
0156724077547792021011110547+41009-074736FM-15+0178K12N V0209999C000059999999N9999997N5-00565-00725102805ADDAA101000095MA1102685100535REMMET08301/11/21 05:54:02 METAR K12N 111054Z 00000KT M06/M07 A3032 RMK AO1 SLP280 T10561072EQDR01      7SKY009R02      7GAS009
0214724077547792021011111547+41009-074736FM-15+0178K12N V0209999C000059999999N9999997N5-00565-00785102755ADDAA101000095KA1060M-00501KA2060N-00721MA1102615100465MD1090029+9999REMMET10101/11/21 06:54:02 METAR K12N 111154Z 00000KT M06/M08 A3030 RMK AO1 SLP275 T10561078 11050 21072 50002EQDR01      7SKY009R02      7GAS009
0156724077547792021011112547+41009-074736FM-15+0178K12N V0209999C000059999999N9999997N5-00565-00785102795ADDAA101000095MA1102645100505REMMET08301/11/21 07:54:02 METAR K12N 111254Z 00000KT M06/M08 A3031 RMK AO1 SLP279 T10561078EQDR01      7SKY009R02      7GAS009
0156724077547792021011113547+41009-074736FM-15+0178K12N V0209999C000059999999N9999997N5-00445-00725102815ADDAA101000095MA1102685100535REMMET08301/11/21 08:54:02 METAR K12N 111354Z 00000KT M04/M07 A3032 RMK AO1 SLP281 T10441072EQDR01      7SKY009R02      7GAS009
0176724077547792021011114547+41009-074736FM-15+0178K12N V0209999C000059999999N9999997N5-00395-00675102845ADDAA101000095MA1102715100565MD1190099+9999REMMET08901/11/21 09:54:02 METAR K12N 111454Z 00000KT M04/M07 A3033 RMK AO1 SLP284 T10391067 51009EQDR01      7SKY009R02      7GAS009
0156724077547792021011115547+41009-074736FM-15+0178K12N V0200405N002659999999N9999997N5-00335-00675102745ADDAA101000095MA1102615100465REMMET08301/11/21 10:54:02 METAR K12N 111554Z 04005KT M03/M07 A3030 RMK AO1 SLP274 T10331067EQDR01      7SKY009R02      7GAS009
0156724077547792021011116547+41009-074736FM-15+0178K12N V0209999C000059999999N9999997N5-00175-00505102575ADDAA101000095MA1102445100305REMMET08301/11/21 11:54:02 METAR K12N 111654Z 00000KT M02/M05 A3025 RMK AO1 SLP257 T10171050EQDR01      7SKY009R02      7GAS009
0214724077547792021011117547+41009-074736FM-15+0178K12N V0209999C000059999999N9999997N5-00115-00505102555ADDAA101000095KA1060M-00061KA2060N-00561MA1102405100265MD1690299+9999REMMET10101/11/21 12:54:02 METAR K12N 111754Z 00000KT M01/M05 A3024 RMK AO1 SLP255 T10111050 11006 21056 56029EQDR01      7SKY009R02      7GAS009
0155724077547792021011118547+41009-074736FM-15+0178K12N V0209999C000059999999N9999997N5+00005-00505102455ADDAA101000095MA1102345100205REMMET08201/11/21 13:54:02 METAR K12N 111854Z 00000KT 00/M05 A3022 RMK AO1 SLP245 T00001050EQDR01      7SKY009R02      7GAS009
0155724077547792021011119547+41009-074736FM-15+0178K12N V0209999C000059999999N9999997N5+00115-00505102385ADDAA101000095MA1102275100135REMMET08201/11/21 14:54:02 METAR K12N 111954Z 00000KT 01/M05 A3020 RMK AO1 SLP238 T00111050EQDR01      7SKY009R02      7GAS009
0175724077547792021011120547+41009-074736FM-15+0178K12N V0209999C000059999999N9999997N5+00115-00505102345ADDAA101000095MA1102205100065MD1690199+9999REMMET08801/11/21 15:54:02 METAR K12N 112054Z 00000KT 01/M05 A3018 RMK AO1 SLP234 T00111050 56019EQDR01      7SKY009R02      7GAS009
0156724077547792021011121547+41009-074736FM-15+0178K12N V0209999C000059999999N9999997N5-00065-00505102345ADDAA101000095MA1102205100065REMMET08301/11/21 16:54:02 METAR K12N 112154Z 00000KT M01/M05 A3018 RMK AO1 SLP234 T10061050EQDR01      7SKY009R02      7GAS009
0156724077547792021011122547+41009-074736FM-15+0178K12N V0209999C000059999999N9999997N5-00285-00505102315ADDAA101000095MA1102175100035REMMET08301/11/21 17:54:02 METAR K12N 112254Z 00000KT M03/M05 A3017 RMK AO1 SLP231 T10281050EQDR01      7SKY009R02      7GAS009
0214724077547792021011123547+41009-074736FM-15+0178K12N V0209999C000059999999N9999997N5-00335-00565102355ADDAA101000095KA1060M+00111KA2060N-00331MA1102205100065MD1590019+9999REMMET10101/11/21 18:54:02 METAR K12N 112354Z 00000KT M03/M06 A3018 RMK AO1 SLP235 T10331056 10011 21033 55001EQDR01      7SKY009R02      7GAS009
0156724077547792021011200547+41009-074736FM-15+0178K12N V0209999C000059999999N9999997N5-00395-00675102325ADDAA101000095MA1102175100035REMMET08301/11/21 19:54:01 METAR K12N 120054Z 00000KT M04/M07 A3017 RMK AO1 SLP232 T10391067EQDR01      7SKY009R02      7GAS009
0156724077547792021011201547+41009-074736FM-15+0178K12N V0209999C000059999999N9999997N5-00505-00675102285ADDAA101000095MA1102135100005REMMET08301/11/21 20:54:01 METAR K12N 120154Z 00000KT M05/M07 A3016 RMK AO1 SLP228 T10501067EQDR01      7SKY009R02      7GAS009
0176724077547792021011202547+41009-074736FM-15+0178K12N V0209999C000059999999N9999997N5-00565-00725102265ADDAA101000095MA1102135100005MD1790089+9999REMMET08901/11/21 21:54:01 METAR K12N 120254Z 00000KT M06/M07 A3016 RMK AO1 SLP226 T10561072 57008EQDR01      7SKY009R02      7GAS009
0156724077547792021011203547+41009-074736FM-15+0178K12N V0209999C000059999999N9999997N5-00615-00725102255ADDAA101000095MA1102105099965REMMET08301/11/21 22:54:01 METAR K12N 120354Z 00000KT M06/M07 A3015 RMK AO1 SLP225 T10611072EQDR01      7SKY009R02      7GAS009
0192724077547792021011204547+41009-074736FM-15+0178K12N V0202105N001559999999N9999997N5-00675-00785102215ADDAA101000095KA1240M+00111KA2240N-00721MA1102075099935REMMET09301/11/21 23:54:02 METAR K12N 120454Z 21003KT M07/M08 A3014 RMK AO1 SLP221 T10671078 400111072EQDR01      7SKY009R02      7GAS009
0886724077547792021011204596+41009-074736SOD  +0178K12N V020999999999999999999999999999+99999+99999999999ADDAA124000095KA1240M+00115KA2240N-00715MG1100304102204OE11240035804010455OE22240026804010555OE33240002299999995REMSOD73024 HR PRECIPITATION (IN):0.00  24 HR MAX TEMP (F):34 24 HR MAX TEMP TIME (LST):1609 24 HR MIN TEMP (F):19 24 HR MIN TEMP TIME (LST):0456 AVERAGE STATION PRESSURE:29.620 MINIMUM SEA LEVEL PRESSURE:30.18 TIME OF OCCURRENCE:2359 PEAK WIND SPEED (MPH):8   PEAK WIND DIR (DEG):40  PEAK WIND TIME (LST):1045  FASTEST 2MIN SPEED (MPH):6  FASTEST 2MIN DIR (DEG):40  FASTEST 2MIN TIME (LST):1055 AVERAGE WIND SPEED (MPH):0.5  24 HR AVG TEMP (F):27 HEATING DEGREE DAYS:38  COOLING DEGREE DAYS:0   LATEST DAY MAX TEMP (0700-1900 LST):34  LATEST NIGHT MIN TEMP(1900-0800 LST):19 HOURLY INCREMENTAL PRECIPITATION VALUES (IN):.00 0.00 0.00 0.00 0.00 0.00 0.00 0.00 0.00 0.00 0.00 0.00 0.00 0.00 0.00 0.00 0.00 0.00 0.00 0.00 0.00 0.00 0.00 0.00EQDR01     N7GJS072R02     N7GKS075
0214724077547792021011205547+41009-074736FM-15+0178K12N V0209999C000059999999N9999997N5-00675-00785102185ADDAA101000095KA1060M-00331KA2060N-00671MA1102035099905MD1890089+9999REMMET10101/12/21 00:54:02 METAR K12N 120554Z 00000KT M07/M08 A3013 RMK AO1 SLP218 T10671078 11033 21067 58008EQDR01      7SKY009R02      7GAS009
0156724077547792021011206547+41009-074736FM-15+0178K12N V0209999C000059999999N9999997N5-00675-00785102185ADDAA101000095MA1102075099935REMMET08301/12/21 01:54:02 METAR K12N 120654Z 00000KT M07/M08 A3014 RMK AO1 SLP218 T10671078EQDR01      7SKY009R02      7GAS009
0156724077547792021011207547+41009-074736FM-15+0178K12N V0202005N001559999999N9999997N5-00675-00835102175ADDAA101000095MA1102035099905REMMET08301/12/21 02:54:02 METAR K12N 120754Z 20003KT M07/M08 A3013 RMK AO1 SLP217 T10671083EQDR01      7SKY009R02      7GAS009
0176724077547792021011208547+41009-074736FM-15+0178K12N V0209999C000059999999N9999997N5-00725-00945102135ADDAA101000095MA1102005099875MD1890049+9999REMMET08901/12/21 03:54:02 METAR K12N 120854Z 00000KT M07/M09 A3012 RMK AO1 SLP213 T10721094 58004EQDR01      7SKY009R02      7GAS009
0156724077547792021011209547+41009-074736FM-15+0178K12N V0209999C000059999999N9999997N5-00785-00945102135ADDAA101000095MA1102005099875REMMET08301/12/21 04:54:02 METAR K12N 120954Z 00000KT M08/M09 A3012 RMK AO1 SLP213 T10781094EQDR01      7SKY009R02      7GAS009
0156724077547792021011210547+41009-074736FM-15+0178K12N V0209999C000059999999N9999997N5-00785-00945102175ADDAA101000095MA1102035099905REMMET08301/12/21 05:54:02 METAR K12N 121054Z 00000KT M08/M09 A3013 RMK AO1 SLP217 T10781094EQDR01      7SKY009R02      7GAS009
0214724077547792021011211547+41009-074736FM-15+0178K12N V0209999C000059999999N9999997N5-00785-01005102165ADDAA101000095KA1060M-00671KA2060N-00831MA1102005099875MD1290029+9999REMMET10101/12/21 06:54:02 METAR K12N 121154Z 00000KT M08/M10 A3012 RMK AO1 SLP216 T10781100 11067 21083 52002EQDR01      7SKY009R02      7GAS009
0156724077547792021011212547+41009-074736FM-15+0178K12N V0209999C000059999999N9999997N5-00725-00945102175ADDAA101000095MA1102035099905REMMET08301/12/21 07:54:02 METAR K12N 121254Z 00000KT M07/M09 A3013 RMK AO1 SLP217 T10721094EQDR01      7SKY009R02      7GAS009
0156724077547792021011213547+41009-074736FM-15+0178K12N V0209999C000059999999N9999997N5-00445-00505102225ADDAA101000095MA1102075099935REMMET08301/12/21 08:54:02 METAR K12N 121354Z 00000KT M04/M05 A3014 RMK AO1 SLP222 T10441050EQDR01      7SKY009R02      7GAS009
0180724077547792021011214547+41009-074736FM-15+0178K12N V0209999C000059999999N9999997N5-00065-00335102225ADDAA101000095MA1102105099965MD1390089+9999REMMET09301/12/21 09:54:02 METAR K12N 121454Z 00000KT M01/M03 A3015 RMK AO1 SLP222 T10061033 53008 RTXEQDR01      7SKY009R02      7GAS009
0157724077547792021011216547+41009-074736FM-15+0178K12N V0200205N002159999999N9999997N5+00395-00445102035ADDAA101000095MA1101935099805REMMET08401/12/21 11:54:02 METAR K12N 121654Z 02004KT 04/M04 A3010 RMK AO1 SLP203 T00391044 $EQDR01      7SKY009R02      7GAS009
0195724077547792021011217547+41009-074736FM-15+0178K12N V0209999V001559999999N9999997N5+00505-00505101965ADDAA101000095KA1060M+00561KA2060N-00831MA1101865099735REMMET09601/12/21 12:54:02 METAR K12N 121754Z VRB03KT 05/M05 A3008 RMK AO1 SLP196 T00501050 10056 21083 $EQDR01      7SKY009R02      7GAS009
0155724077547792021011218547+41009-074736FM-15+0178K12N V0200305N002659999999N9999997N5+00505-00505101915ADDAA101000095MA1101795099675REMMET08201/12/21 13:54:02 METAR K12N 121854Z 03005KT 05/M05 A3006 RMK AO1 SLP191 T00501050EQDR01      7SKY009R02      7GAS009
0155724077547792021011219547+41009-074736FM-15+0178K12N V0209999C000059999999N9999997N5+00615-00505101875ADDAA101000095MA1101765099635REMMET08201/12/21 14:54:02 METAR K12N 121954Z 00000KT 06/M05 A3005 RMK AO1 SLP187 T00611050EQDR01      7SKY009R02      7GAS009
0175724077547792021011220547+41009-074736FM-15+0178K12N V0209999C000059999999N9999997N5+00565-00565101835ADDAA101000095MA1101735099605MD1690139+9999REMMET08801/12/21 15:54:02 METAR K12N 122054Z 00000KT 06/M06 A3004 RMK AO1 SLP183 T00561056 56013EQDR01      7SKY009R02      7GAS009
0155724077547792021011221547+41009-074736FM-15+0178K12N V0209999C000059999999N9999997N5+00175-00505101865ADDAA101000095MA1101735099605REMMET08201/12/21 16:54:02 METAR K12N 122154Z 00000KT 02/M05 A3004 RMK AO1 SLP186 T00171050EQDR01      7SKY009R02      7GAS009
0155724077547792021011222547+41009-074736FM-15+0178K12N V0209999C000059999999N9999997N5+00005-00445101925ADDAA101000095MA1101795099675REMMET08201/12/21 17:54:02 METAR K12N 122254Z 00000KT 00/M04 A3006 RMK AO1 SLP192 T00001044EQDR01      7SKY009R02      7GAS009
0214724077547792021011223547+41009-074736FM-15+0178K12N V0209999C000059999999N9999997N5-00175-00445101975ADDAA101000095KA1060M+00611KA2060N-00171MA1101835099705MD1390119+9999REMMET10101/12/21 18:54:02 METAR K12N 122354Z 00000KT M02/M04 A3007 RMK AO1 SLP197 T10171044 10061 21017 53011EQDR01      7SKY009R02      7GAS009
0156724077547792021011300547+41009-074736FM-15+0178K12N V0209999C000059999999N9999997N5-00115-00445101955ADDAA101000095MA1101835099705REMMET08301/12/21 19:54:01 METAR K12N 130054Z 00000KT M01/M04 A3007 RMK AO1 SLP195 T10111044EQDR01      7SKY009R02      7GAS009
0156724077547792021011301547+41009-074736FM-15+0178K12N V0209999C000059999999N9999997N5-00115-00445101995ADDAA101000095MA1101865099735REMMET08301/12/21 20:54:01 METAR K12N 130154Z 00000KT M01/M04 A3008 RMK AO1 SLP199 T10111044EQDR01      7SKY009R02      7GAS009
0176724077547792021011302547+41009-074736FM-15+0178K12N V0209999C000059999999N9999997N5-00335-00505101975ADDAA101000095MA1101865099735MD1390029+9999REMMET08901/12/21 21:54:01 METAR K12N 130254Z 00000KT M03/M05 A3008 RMK AO1 SLP197 T10331050 53002EQDR01      7SKY009R02      7GAS009
0155724077547792021011303547+41009-074736FM-15+0178K12N V0209999C000059999999N9999997N5-00285-00445999999ADDAA101000095MA1101905099775REMMET08201/12/21 22:54:01 METAR K12N 130354Z 00000KT M03/M04 A3009 RMK AO1 SLPNO T10281044EQDR01      7SKY009R02      7GAS009
0192724077547792021011304547+41009-074736FM-15+0178K12N V0209999C000059999999N9999997N5-00175-00395101935ADDAA101000095KA1240M+00611KA2240N-00831MA1101835099705REMMET09301/12/21 23:54:02 METAR K12N 130454Z 00000KT M02/M04 A3007 RMK AO1 SLP193 T10171039 400611083EQDR01      7SKY009R02      7GAS009
0886724077547792021011304596+41009-074736SOD  +0178K12N V020999999999999999999999999999+99999+99999999999ADDAA124000095KA1240M+00615KA2240N-00825MG1099804101834OE11240053603016115OE22240035803016145OE33240003199999995REMSOD73024 HR PRECIPITATION (IN):0.00  24 HR MAX TEMP (F):43 24 HR MAX TEMP TIME (LST):1542 24 HR MIN TEMP (F):17 24 HR MIN TEMP TIME (LST):0744 AVERAGE STATION PRESSURE:29.470 MINIMUM SEA LEVEL PRESSURE:30.07 TIME OF OCCURRENCE:1640 PEAK WIND SPEED (MPH):12  PEAK WIND DIR (DEG):30  PEAK WIND TIME (LST):1611  FASTEST 2MIN SPEED (MPH):8  FASTEST 2MIN DIR (DEG):30  FASTEST 2MIN TIME (LST):1614 AVERAGE WIND SPEED (MPH):0.7  24 HR AVG TEMP (F):30 HEATING DEGREE DAYS:35  COOLING DEGREE DAYS:0   LATEST DAY MAX TEMP (0700-1900 LST):43  LATEST NIGHT MIN TEMP(1900-0800 LST):17 HOURLY INCREMENTAL PRECIPITATION VALUES (IN):.00 0.00 0.00 0.00 0.00 0.00 0.00 0.00 0.00 0.00 0.00 0.00 0.00 0.00 0.00 0.00 0.00 0.00 0.00 0.00 0.00 0.00 0.00 0.00EQDR01     N7GJS072R02     N7GKS075
0214724077547792021011305547+41009-074736FM-15+0178K12N V0209999C000059999999N9999997N5-00175-00445101885ADDAA101000095KA1060M-00111KA2060N-00391MA1101795099675MD1890069+9999REMMET10101/13/21 00:54:02 METAR K12N 130554Z 00000KT M02/M04 A3006 RMK AO1 SLP188 T10171044 11011 21039 58006EQDR01      7SKY009R02      7GAS009
0156724077547792021011306547+41009-074736FM-15+0178K12N V0209999C000059999999N9999997N5-00115-00395101875ADDAA101000095MA1101795099675REMMET08301/13/21 01:54:02 METAR K12N 130654Z 00000KT M01/M04 A3006 RMK AO1 SLP187 T10111039EQDR01      7SKY009R02      7GAS009
0156724077547792021011307547+41009-074736FM-15+0178K12N V0209999C000059999999N9999997N5-00115-00395101855ADDAA101000095MA1101765099635REMMET08301/13/21 02:54:02 METAR K12N 130754Z 00000KT M01/M04 A3005 RMK AO1 SLP185 T10111039EQDR01      7SKY009R02      7GAS009
0176724077547792021011308547+41009-074736FM-15+0178K12N V0209999C000059999999N9999997N5-00115-00395101835ADDAA101000095MA1101765099635MD1890059+9999REMMET08901/13/21 03:54:02 METAR K12N 130854Z 00000KT M01/M04 A3005 RMK AO1 SLP183 T10111039 58005EQDR01      7SKY009R02      7GAS009
0156724077547792021011309547+41009-074736FM-15+0178K12N V0209999C000059999999N9999997N5-00065-00395101815ADDAA101000095MA1101735099605REMMET08301/13/21 04:54:02 METAR K12N 130954Z 00000KT M01/M04 A3004 RMK AO1 SLP181 T10061039EQDR01      7SKY009R02      7GAS009
0156724077547792021011310547+41009-074736FM-15+0178K12N V0209999C000059999999N9999997N5-00065-00335101855ADDAA101000095MA1101735099605REMMET08301/13/21 05:54:02 METAR K12N 131054Z 00000KT M01/M03 A3004 RMK AO1 SLP185 T10061033EQDR01      7SKY009R02      7GAS009
0214724077547792021011311547+41009-074736FM-15+0178K12N V0209999C000059999999N9999997N5-00065-00395101835ADDAA101000095KA1060M-00061KA2060N-00171MA1101735099605MD1690029+9999REMMET10101/13/21 06:54:02 METAR K12N 131154Z 00000KT M01/M04 A3004 RMK AO1 SLP183 T10061039 11006 21017 56002EQDR01      7SKY009R02      7GAS009
0156724077547792021011312547+41009-074736FM-15+0178K12N V0209999C000059999999N9999997N5-00065-00335101845ADDAA101000095MA1101735099605REMMET08301/13/21 07:54:02 METAR K12N 131254Z 00000KT M01/M03 A3004 RMK AO1 SLP184 T10061033EQDR01      7SKY009R02      7GAS009
0155724077547792021011313547+41009-074736FM-15+0178K12N V0209999C000059999999N9999997N5+00005-00335101865ADDAA101000095MA1101765099635REMMET08201/13/21 08:54:02 METAR K12N 131354Z 00000KT 00/M03 A3005 RMK AO1 SLP186 T00001033EQDR01      7SKY009R02      7GAS009
0175724077547792021011314547+41009-074736FM-15+0178K12N V0209999C000059999999N9999997N5+00115-00335101845ADDAA101000095MA1101735099605MD1090019+9999REMMET08801/13/21 09:54:02 METAR K12N 131454Z 00000KT 01/M03 A3004 RMK AO1 SLP184 T00111033 50001EQDR01      7SKY009R02      7GAS009
0155724077547792021011315547+41009-074736FM-15+0178K12N V0202305N002659999999N9999997N5+00225-00445101735ADDAA101000095MA1101635099505REMMET08201/13/21 10:54:02 METAR K12N 131554Z 23005KT 02/M04 A3001 RMK AO1 SLP173 T00221044EQDR01      7SKY009R02      7GAS009
0155724077547792021011316547+41009-074736FM-15+0178K12N V0202405N003159999999N9999997N5+00335-00445101635ADDAA101000095MA1101525099405REMMET08201/13/21 11:54:02 METAR K12N 131654Z 24006KT 03/M04 A2998 RMK AO1 SLP163 T00331044EQDR01      7SKY009R02      7GAS009
0213724077547792021011317547+41009-074736FM-15+0178K12N V0202105N002659999999N9999997N5+00285-00445101545ADDAA101000095KA1060M+00391KA2060N-00061MA1101465099335MD1690289+9999REMMET10001/13/21 12:54:02 METAR K12N 131754Z 21005KT 03/M04 A2996 RMK AO1 SLP154 T00281044 10039 21006 56028EQDR01      7SKY009R02      7GAS009
0155724077547792021011318547+41009-074736FM-15+0178K12N V0202005N002659999999N9999997N5+00285-00395101485ADDAA101000095MA1101395099275REMMET08201/13/21 13:54:02 METAR K12N 131854Z 20005KT 03/M04 A2994 RMK AO1 SLP148 T00281039EQDR01      7SKY009R02      7GAS009
0155724077547792021011319547+41009-074736FM-15+0178K12N V0202105V003659999999N9999997N5+00285-00395101455ADDAA101000095MA1101355099235REMMET08201/13/21 14:54:02 METAR K12N 131954Z 21007KT 03/M04 A2993 RMK AO1 SLP145 T00281039EQDR01      7SKY009R02      7GAS009
