0287725025947412023010100187+40859-074056FM-16+0002KTEB V0209999C00005001225WN0016095N5+00945+00835999999ADDAA101000021AU110020015AU200001015AW1105AW2615ED106U07329GA1095+001225999GD15991+0012259GE19AGL   +99999+99999GF109991999999001221999999MA1101025100995MW1615REMMET11912/31/22 19:18:03 SPECI KTEB 010018Z 00000KT 1SM R06/2400VP6000FT -RA BR VV004 09/08 A2983 RMK AO2 P0000 T00940083 (VO)
0288725025947412023010100357+40859-074056FM-16+0002KTEB V0209999C00005000915WN0004025N5+00945+00835999999ADDAA101000231AU110020015AU200002015AW1305AW2615ED106U04279GA1095+000915999GD15991+0009159GE19AGL   +99999+99999GF109991999999000911999999MA1101025100995MW1615REMMET12012/31/22 19:35:03 SPECI KTEB 010035Z 00000KT 1/4SM R06/1400V1800FT -RA FG VV003 09/08 A2983 RMK AO2 P0001 T00940083 (VO)
0295725025947412023010100517+40859-074056FM-15+0002KTEB V0209999C00005000915WN0004025N5+00945+00835100985ADDAA101000595AU110020015AU200002015AW1305AW2615ED106U03669GA1095+000915999GD15991+0009159GE19AGL   +99999+99999GF109991999999000911999999MA1100985100965MW1615REMMET12712/31/22 19:51:03 METAR KTEB 010051Z 00000KT 1/4SM R06/1200V1400FT -RA FG VV003 09/08 A2982 RMK AO2 SLP098 P0002 T00940083 (VO)
0225725025947412023010101496+40859-074056FM-16+0002KTEB V0209999C00005000915WN0008055N5+01005+00805999999ADDAU110020015AU200002015AW1305AW2615ED106U04279GA1095+000915999GD15991+0009159MA1100855100825MW1615REMMET11612/31/22 20:49:03 SPECI KTEB 010149Z 00000KT 1/2SM R06/1400VP6000FT -RA FG VV003 10/08 A2978 RMK AO2 P0003 FIBI (VO)
0296725025947412023010101517+40859-074056FM-15+0002KTEB V0209999C00005001225WN0008055N5+01005+00835100835ADDAA101001095AU110020015AU200002015AW1305AW2615ED106U04889GA1095+001225999GD15991+0012259GE19AGL   +99999+99999GF109991999999001221999999MA1100855100825MW1615REMMET12812/31/22 20:51:03 METAR KTEB 010151Z 00000KT 1/2SM R06/1600VP6000FT -RA FG VV004 10/08 A2978 RMK AO2 SLP083 P0003 T01000083 (VO)
0288725025947412023010102087+40859-074056FM-16+0002KTEB V0202105N00155000915WN0004025N5+00895+00835999999ADDAA101000531AU110020015AU200002015AW1305AW2615ED106U05499GA1095+000915999GD15991+0009159GE19AGL   +99999+99999GF109991999999000911999999MA1100855100825MW1615REMMET12012/31/22 21:08:03 SPECI KTEB 010208Z 21003KT 1/4SM R06/1800V2600FT -RA FG VV003 09/08 A2978 RMK AO2 P0002 T00890083 (VO)
0287725025947412023010102247+40859-074056FM-16+0002KTEB V0202305N00215000915WN0008055N5+00945+00835999999ADDAA101001031AU120020015AU200002015AW1305AW2625ED106U07329GA1095+000915999GD15991+0009159GE19AGL   +99999+99999GF109991999999000911999999MA1100885100865MW1655REMMET11912/31/22 21:24:03 SPECI KTEB 010224Z 23004KT 1/2SM R06/2400V4500FT RA FG VV003 09/08 A2979 RMK AO2 P0004 T00940083 (VO)
0330725025947412023010102367+40859-074056FM-16+0002KTEB V0202405N00215000915MN0024145N5+01005+00895999999ADDAA101001731AU130020015AU200001015AW1105AW2635ED106U10679GA1075+000915999GA2085+002445999GD13991+0009159GD24991+0024459GE19AGL   +99999+99999GF199999999999000911999999MA1100885100865MW1635REMMET13112/31/22 21:36:03 SPECI KTEB 010236Z 24004KT 1 1/2SM R06/3500VP6000FT +RA BR BKN003 OVC008 10/09 A2979 RMK AO2 P0007 T01000089 (VO)
0430725025947412023010102517+40859-074056FM-15+0002KTEB V0209999C00005000915MN0020125N5+01005+00895100835ADDAA101003395AA203004691AU120020015AU200001015AW1105AW2625ED106U18299GA1075+000915999GA2075+003055999GA3085+006715999GD13991+0009159GD23991+0030559GD34991+0067159GE19AGL   +99999+99999GF199999999999000911999999MA1100855100825MD1690209+9999MW1655REMMET15612/31/22 21:51:03 METAR KTEB 010251Z 00000KT 1 1/4SM R06/6000VP6000FT RA BR BKN003 BKN010 OVC022 10/09 A2978 RMK AO2 SLP083 P0013 60018 T01000089 56020 (VO)EQDQ01  00458PRCP03
0361725025947412023010103077+40859-074056FM-16+0002KTEB V0201405N00215000915MN0008055N5+01005+00895999999ADDAA101000531AU110020015AU200002015AW1305AW2615ED106U18299GA1075+000915999GA2075+009455999GA3085+015245999GD13991+0009159GD23991+0094559GD34991+0152459GE19AGL   +99999+99999GF199999999999000911999999MA1100785100765MW1615REMMET13112/31/22 22:07:03 SPECI KTEB 010307Z 14004KT 1/2SM R06/P6000FT -RA FG BKN003 BKN031 OVC050 10/09 A2976 RMK AO2 P0002 T01000089 (VO)
0368725025947412023010103517+40859-074056FM-15+0002KTEB V0209999C00005000915MN0008055N5+01005+00895100785ADDAA101000595AU110020015AU200002015AW1305AW2615ED106U18299GA1075+000915999GA2075+009455999GA3085+015245999GD13991+0009159GD23991+0094559GD34991+0152459GE19AGL   +99999+99999GF199999999999000911999999MA1100785100765MW1615REMMET13812/31/22 22:51:03 METAR KTEB 010351Z 00000KT 1/2SM R06/P6000FT -RA FG BKN003 BKN031 OVC050 10/09 A2976 RMK AO2 SLP078 P0003 T01000089 (VO)
0302725025947412023010104197+40859-074056FM-16+0002KTEB V0201905N00215000915MN0028165N5+01005+00895999999ADDAA101000231AU110020015AU200001015AW1105AW2615GA1075+000915999GA2085+003055999GD13991+0009159GD24991+0030559GE19AGL   +99999+99999GF199999999999000911999999MA1100815100795MW1615REMMET11412/31/22 23:19:03 SPECI KTEB 010419Z 19004KT 1 3/4SM -RA BR BKN003 OVC010 10/09 A2977 RMK AO2 P0001 T01000089 (VO)
0340725025947412023010104217+40859-074056FM-16+0002KTEB V0202005N00215025915MN0040235N5+01005+00895999999ADDAA101000231AU110020015AU200001015AW1105AW2615GA1025+000915999GA2045+009755999GA3085+025915999GD11991+0009159GD22991+0097559GD34991+0259159GE19AGL   +99999+99999GF199999999999000911999999MA1100815100795MW1615REMMET12112/31/22 23:21:03 SPECI KTEB 010421Z 20004KT 2 1/2SM -RA BR FEW003 SCT032 OVC085 10/09 A2977 RMK AO2 P0001 T01000089 (VO)
0202725025947412023010104496+40859-074056FM-16+0002KTEB V0201305N00215025915MN0080475N5+01005+00905999999ADDAU120020015AU200001015AW1105AW2625GA1085+025915999GD14991+0259159MA1100685100655MW1655REMMET10412/31/22 23:49:03 SPECI KTEB 010449Z 13004KT 5SM RA BR OVC085 10/09 A2973 RMK AO2 PRESFR P0002 FIBI (VO)
0309725025947412023010104517+40859-074056FM-15+0002KTEB V0201405N00215027435MN0096565N5+01005+00895100675ADDAA101000595AU120020015AU200001015AW1105AW2625GA1085+027435999GD14991+0274359GE19AGL   +99999+99999GF199999999999027431999999KA1240M+01111KA2240N+00281MA1100685100655MW1655REMMET12612/31/22 23:51:03 METAR KTEB 010451Z 14004KT 6SM RA BR OVC090 10/09 A2973 RMK AO2 PRESFR SLP067 P0002 T01000089 401110028 (VO)
0934725025947412023010104596+40859-074056SOD  +0002KTEB V020999999999999999999999999999+99999+99999999999ADDAA124007195AT1AU16RA  5AT2AU14DZ  5AT3AU01FG  5AT4AU13BR  5KA1240M+01115KA2240N+00285MG1101614100644OE11240044712009515OE22240026814023485OE33240003199999995REMSOD73024 HR PRECIPITATION (IN):0.28  24 HR MAX TEMP (F):52 24 HR MAX TEMP TIME (LST):1530 24 HR MIN TEMP (F):37 24 HR MIN TEMP TIME (LST):0143 AVERAGE STATION PRESSURE:30.005 MINIMUM SEA LEVEL PRESSURE:29.72 TIME OF OCCURRENCE:2359 PEAK WIND SPEED (MPH):10  PEAK WIND DIR (DEG):120 PEAK WIND TIME (LST):0951  FASTEST 2MIN SPEED (MPH):6  FASTEST 2MIN DIR (DEG):140 FASTEST 2MIN TIME (LST):2348 AVERAGE WIND SPEED (MPH):0.7  24 HR AVG TEMP (F):45 HEATING DEGREE DAYS:20  COOLING DEGREE DAYS:0   LATEST DAY MAX TEMP (0700-1900 LST):52  LATEST NIGHT MIN TEMP(1900-0800 LST):37 HOURLY INCREMENTAL PRECIPITATION VALUES (IN):.00 0.00 0.00 0.00 0.00 0.00 0.00 T    0.00 0.00 0.00 0.00 T    0.01 0.01 0.01 0.01 0.01 T    0.02 0.04 0.13 0.02 0.02EQDR01     N7GJS072R02     N7GKS075
1324725025947412023010104596+40859-074056SOM  +0002KTEB V020999999999999999999999999999+99999+99999999999ADDAB10148696AD10051892223999999996AE1076066036006AH1005006992303565AH2010012492303565AH3015014292304005AH4020015592304055AH5030017892304175AH6045022492304325AI1060027992304425AI2080031092304395AI3100033092304465AI4120033392305035AI5150035392304465AI6180036692305225KB1744N-02115KB2744M+06725KB3744A+02335KC1N9-01442499995KC2M9+01660799995KD1744H08865KD2744C00005KE1035005255005MH1102014102034MK1103490210265098142312355REMSOM796PCP MTOT:5.85 PCP GT 24HRS:2.04 DATE(S):22-23 DAYS W/PCP >=.01:7  DAYS W/PCP >=.10:6  DAYS W/ PCP >=.50:3 DAYS W/PCP >=1.00:0 MSDP AMTS W/DATE-TIME TAGS:MIN:5 0.27  23/0356 MIN:10 0.49  23/0356 MIN:15 0.56  23/0400 MIN:20 0.61  23/0405 MIN:30 0.70  23/0417 MIN:45 0.88  23/0432 MIN:60 1.10  23/0442 MIN:80 1.22  23/0439 MIN:100 1.30  23/0446 MIN:120 1.31  23/0503 MIN:150 1.39  23/0446 MIN:180 1.44  23/0522 AVG DLY MIN:28.2  AVG DLY MAX:44.1  AVG MLY TMP:36.2  MIN TMP:6  DATE(S):24 MAX TMP:62  DATE(S):07 DAYS MAX <=32:3 DAYS MAX >=90:0  DAYS MIN <=32:25 DAYS MIN  <=0:0  AVG STP:30.125 LWST SLP:28.98 DATE/TIME:231235 HGST SLP:30.56 DATE/TIME:021026 HDD MTH TOT:886 DEP NORM:-2553 SEASON(JUL 1-JUN 30):1669 DEP NORM:-25536 CDD MTH TOT:0 DEP NORM:-2553 SEASON(JAN 1-DEC 31):1182 DEP NORM:-25536EQDR01  5.857ABP070R02  2.047ADP081R03     77AE1100R04     37AE2103R05     37AE3106R06     07AE4109
0336725025947412023010105147+40859-074056FM-16+0002KTEB V0201605N00155027435MN0032195N5+01005+00945999999ADDAA101000231AU110020015AU200001015AW1105AW2615GA1025+000915999GA2075+027435999GA3085+033535999GD11991+0009159GD23991+0274359GD34991+0335359GE19AGL   +99999+99999GF199999999999000911999999MA1100645100625MW1615REMMET11701/01/23 00:14:02 SPECI KTEB 010514Z 16003KT 2SM -RA BR FEW003 BKN090 OVC110 10/09 A2972 RMK AO2 P0001 T01000094 (VO)
0288725025947412023010105247+40859-074056FM-16+0002KTEB V0202305N00265000915MN0016095N5+00945+00895999999ADDAA101000231AU110020015AU200001015AW1105AW2615ED106U10679GA1085+000915999GD14991+0009159GE19AGL   +99999+99999GF199999999999000911999999MA1100645100625MW1615REMMET12001/01/23 00:24:02 SPECI KTEB 010524Z 23005KT 1SM R06/3500VP6000FT -RA BR OVC003 09/09 A2972 RMK AO2 P0001 T00940089 (VO)
0384725025947412023010105517+40859-074056FM-15+0002KTEB V0202005N00265000915MN0016095N5+00945+00835100705ADDAA101000395AA206006191AU110020015AU200001015AW1105AW2615ED106U18299GA1085+000915999GD14991+0009159GE19AGL   +99999+99999GF199999999999000911999999KA1060M+01061KA2060N+00891MA1100715100695MD1590129+9999MW1615REMMET14601/01/23 00:51:02 METAR KTEB 010551Z 20005KT 1SM R06/P6000FT -RA BR OVC003 09/08 A2974 RMK AO2 SLP070 P0001 60024 T00940083 10106 20089 55012 (VO)EQDQ01  00608PRCP06
0336725025947412023010105567+40859-074056FM-16+0002KTEB V0201905N00215025915MN0048285N5+00945+00895999999ADDAA101000021AU110020015AU200001015AW1105AW2615GA1045+014945999GA2045+019815999GA3085+025915999GD12991+0149459GD22991+0198159GD34991+0259159GE19AGL   +99999+99999GF199999999999014941999999MA1100685100655MW1615REMMET11701/01/23 00:56:02 SPECI KTEB 010556Z 19004KT 3SM -RA BR SCT049 SCT065 OVC085 09/09 A2973 RMK AO2 P0000 T00940089 (VO)
0302725025947412023010106147+40859-074056FM-16+0002KTEB V0201805N00155025915MN0028165N5+00945+00835999999ADDAA101000021AU110020015AU200001015AW1105AW2615GA1075+025915999GA2085+036585999GD13991+0259159GD24991+0365859GE19AGL   +99999+99999GF199999999999025911999999MA1100645100625MW1615REMMET11401/01/23 01:14:02 SPECI KTEB 010614Z 18003KT 1 3/4SM -RA BR BKN085 OVC120 09/08 A2972 RMK AO2 P0000 T00940083 (VO)
0361725025947412023010106267+40859-074056FM-16+0002KTEB V0209999C00005025915MN0008055N5+00945+00785999999ADDAA101000021AU110020015AU200002015AW1305AW2615ED106U18299GA1025+005495999GA2075+025915999GA3085+033535999GD11991+0054959GD23991+0259159GD34991+0335359GE19AGL   +99999+99999GF199999999999005491999999MA1100645100625MW1615REMMET13101/01/23 01:26:02 SPECI KTEB 010626Z 00000KT 1/2SM R06/P6000FT -RA FG FEW018 BKN085 OVC110 09/08 A2972 RMK AO2 P0000 T00940078 (VO)
0366725025947412023010106407+40859-074056FM-16+0002KTEB V0202005N00215002135MN0008055N5+00945+00785999999ADDAA101000021AU110020015AU200002015AW1305AW2615ED106U06719GA1075+002135999GA2075+027435999GA3075+033535999GD13991+0021359GD23991+0274359GD33991+0335359GE19AGL   +99999+99999GF199999999999002131999999MA1100645100625MW1615REMMET13601/01/23 01:40:02 SPECI KTEB 010640Z 20004KT 1/2SM R06/2200VP6000FT -RA FG BKN007 BKN090 BKN110 09/08 A2972 RMK AO2 P0000 T00940078 (VO)
0225725025947412023010106496+40859-074056FM-16+0002KTEB V0202505N00215001225WN0008055N5+00805+00805999999ADDAU110020015AU200002015AW1305AW2615ED106U10679GA1095+001225999GD15991+0012259MA1100685100655MW1615REMMET11601/01/23 01:49:02 SPECI KTEB 010649Z 25004KT 1/2SM R06/3500VP6000FT -RA FG VV004 08/08 A2973 RMK AO2 P0000 FIBI (VO)
0296725025947412023010106517+40859-074056FM-15+0002KTEB V0202405N00215001225WN0008055N5+00835+00725100675ADDAA101000025AU110020015AU200002015AW1305AW2615ED106U12199GA1095+001225999GD15991+0012259GE19AGL   +99999+99999GF109991999999001221999999MA1100685100655MW1615REMMET12801/01/23 01:51:02 METAR KTEB 010651Z 24004KT 1/2SM R06/4000VP6000FT -RA FG VV004 08/07 A2973 RMK AO2 SLP067 P0000 T00830072 (VO)
0194725025947412023010107267+40859-074056FM-16+0002KTEB V0202605N003152200059N0128755N5+01005+00895999999ADDAA101000021GA1005+999999999GD10991+9999999GF100991999999999999999999MA1100755100725REMMET09901/01/23 02:26:02 SPECI KTEB 010726Z 26006KT 8SM CLR 10/09 A2975 RMK AO2 RAE22 P0000 T01000089 (VO)
0201725025947412023010107517+40859-074056FM-15+0002KTEB V0202505N003652200059N0128755N5+01005+00895100755ADDAA101000025GA1005+999999999GD10991+9999999GF100991999999999999999999MA1100755100725REMMET10601/01/23 02:51:02 METAR KTEB 010751Z 25007KT 8SM CLR 10/09 A2975 RMK AO2 RAE22 SLP075 P0000 T01000089 (VO)
0227725025947412023010108517+40859-074056FM-15+0002KTEB V0202805N003152200059N0160935N5+01005+00835100795ADDAA101000095AA203000021GA1005+999999999GD10991+9999999GF100991999999999999999999MA1100785100765MD1390089+9999REMMET10701/01/23 03:51:02 METAR KTEB 010851Z 28006KT 10SM CLR 10/08 A2976 RMK AO2 SLP079 60000 T01000083 53008 (VO)
0190725025947412023010109517+40859-074056FM-15+0002KTEB V0202705N003152200059N0160935N5+00945+00785100835ADDAA101000095GA1005+999999999GD10991+9999999GF100991999999999999999999MA1100855100825REMMET09501/01/23 04:51:02 METAR KTEB 010951Z 27006KT 10SM CLR 09/08 A2978 RMK AO2 SLP083 T00940078 (VO)
0211725025947412023010110517+40859-074056FM-15+0002KTEB V0209999C000052200059N0128755N5+00725+00615100935ADDAA101000095AU101002015AW1311GA1005+999999999GD10991+9999999GF100991999999999999999999MA1100955100925REMMET09901/01/23 05:51:02 METAR KTEB 011051Z 00000KT 8SM MIFG CLR 07/06 A2981 RMK AO2 SLP093 T00720061 (VO)
0235725025947412023010111027+40859-074056FM-16+0002KTEB V0209999C000052200059N0028165V5+00615+00505999999ADDAU101002015AW1311ED106U12199GA1005+999999999GD10991+9999999GF100991999999999999999999MA1100985100965REMMET12301/01/23 06:02:02 SPECI KTEB 011102Z 00000KT 1 3/4SM R06/4000VP6000FT MIFG CLR 06/05 A2982 RMK AO2 VIS 1/2V5 T00610050 (VO)
0222725025947412023010111107+40859-074056FM-16+0002KTEB V0202305N001552200059N0160935N5+00565+00445999999ADDAU101002015AW1311ED106U09149GA1005+999999999GD10991+9999999GF100991999999999999999999MA1100985100965REMMET11001/01/23 06:10:02 SPECI KTEB 011110Z 23003KT 10SM R06/3000VP6000FT MIFG CLR 06/04 A2982 RMK AO2 T00560044 (VO)
0323725025947412023010111517+40859-074056FM-15+0002KTEB V0202005N001552200059N0160935N5+00615+00505101025ADDAA101000095AA206000021AA324007491AU101002015AW1311GA1005+999999999GD10991+9999999GF100991999999999999999999KA1060M+01061KA2060N+00441MA1101025100995MD1390239+9999REMMET13001/01/23 06:51:02 METAR KTEB 011151Z 20003KT 10SM MIFG CLR 06/05 A2983 RMK AO2 SLP102 60000 70029 T00610050 10106 20044 53023 (VO)EQDQ01  00738PRCP24
0212725025947412023010112517+40859-074056FM-15+0002KTEB V0203305N003152200059N0160935N5+00785+00615101045ADDAA101000095AU101002015AW1311GA1005+999999999GD10991+9999999GF100991999999999999999999MA1101055101035REMMET10001/01/23 07:51:02 METAR KTEB 011251Z 33006KT 10SM MIFG CLR 08/06 A2984 RMK AO2 SLP104 T00780061 (BR)
0190725025947412023010113517+40859-074056FM-15+0002KTEB V0203205N003652200059N0160935N5+01005+00675101145ADDAA101000095GA1005+999999999GD10991+9999999GF100991999999999999999999MA1101155101135REMMET09501/01/23 08:51:02 METAR KTEB 011351Z 32007KT 10SM CLR 10/07 A2987 RMK AO2 SLP114 T01000067 (BR)
0210725025947412023010114517+40859-074056FM-15+0002KTEB V0203205N004652200059N0160935N5+01115+00505101305ADDAA101000095GA1005+999999999GD10991+9999999GF100991999999999999999999MA1101325101305MD1390299+9999REMMET10101/01/23 09:51:02 METAR KTEB 011451Z 32009KT 10SM CLR 11/05 A2992 RMK AO2 SLP130 T01110050 53029 (BR)
0245725025947412023010115517+40859-074056FM-15+0002KTEB V0203005N004652200059N0160935N5+01065+00395101395ADDAA101000095GA1025+010675999GD11991+0106759GE19AGL   +99999+99999GF102995999999010671999999MA1101395101365OC100825REMMET10101/01/23 10:51:02 METAR KTEB 011551Z 30009G16KT 10SM FEW035 11/04 A2994 RMK AO2 SLP139 T01060039 (BR)EQDD01      0ADE726
0190725025947412023010116517+40859-074056FM-15+0002KTEB V0203105N006252200059N0160935N5+01115+00285101315ADDAA101000095GA1005+999999999GD10991+9999999GF100991999999999999999999MA1101325101305REMMET09501/01/23 11:51:02 METAR KTEB 011651Z 31012KT 10SM CLR 11/03 A2992 RMK AO2 SLP131 T01110028 (BR)
0248725025947412023010117517+40859-074056FM-15+0002KTEB V0202905N005152200059N0160935N5+01175+00285101345ADDAA101000095GA1005+999999999GD10991+9999999GF100991999999999999999999KA1060M+01171KA2060N+00561MA1101355101335MD1190039+9999REMMET11301/01/23 12:51:02 METAR KTEB 011751Z 29010KT 10SM CLR 12/03 A2993 RMK AO2 SLP134 T01170028 10117 20056 51003 (BR)
0190725025947412023010118517+40859-074056FM-15+0002KTEB V0203005N004152200059N0160935N5+01175+00115101305ADDAA101000095GA1005+999999999GD10991+9999999GF100991999999999999999999MA1101325101305REMMET09501/01/23 13:51:02 METAR KTEB 011851Z 30008KT 10SM CLR 12/01 A2992 RMK AO2 SLP130 T01170011 (BR)
0190725025947412023010119517+40859-074056FM-15+0002KTEB V0203005N004152200059N0160935N5+01175+00065101335ADDAA101000095GA1005+999999999GD10991+9999999GF100991999999999999999999MA1101355101335REMMET09501/01/23 14:51:02 METAR KTEB 011951Z 30008KT 10SM CLR 12/01 A2993 RMK AO2 SLP133 T01170006 (BR)
0210725025947412023010120517+40859-074056FM-15+0002KTEB V0203305N003152200059N0160935N5+01115+00065101395ADDAA101000095GA1005+999999999GD10991+9999999GF100991999999999999999999MA1101395101365MD1390059+9999REMMET10101/01/23 15:51:02 METAR KTEB 012051Z 33006KT 10SM CLR 11/01 A2994 RMK AO2 SLP139 T01110006 53005 (MC)
0215725025947412023010121517+40859-074056FM-15+0002KTEB V0200205N00155036585MN0160935N5+01115+00005101405ADDAA101000095GA1085+036585999GD14991+0365859GE19AGL   +99999+99999GF199999999999036581999999MA1101425101405REMMET09801/01/23 16:51:02 METAR KTEB 012151Z 02003KT 10SM OVC120 11/00 A2995 RMK AO2 SLP140 T01110000 (MC)
0190725025947412023010122517+40859-074056FM-15+0002KTEB V0209999C000052200059N0160935N5+00945+00005101435ADDAA101000095GA1005+999999999GD10991+9999999GF100991999999999999999999MA1101425101405REMMET09501/01/23 17:51:02 METAR KTEB 012251Z 00000KT 10SM CLR 09/00 A2995 RMK AO2 SLP143 T00940000 (MC)
0248725025947412023010123517+40859-074056FM-15+0002KTEB V0203205N001552200059N0160935N5+00785+00005101565ADDAA101000095GA1005+999999999GD10991+9999999GF100991999999999999999999KA1060M+01221KA2060N+00781MA1101565101535MD1390179+9999REMMET11301/01/23 18:51:02 METAR KTEB 012351Z 32003KT 10SM CLR 08/00 A2999 RMK AO2 SLP156 T00780000 10122 20078 53017 (MC)
0185725025947412023010200517+40859-074056FM-15+0002KTEB V0209999C000052200059N0160935N5+00615+00005101595ADDAA101000095GA1005+999999999GD10991+9999999GF100991999999999999999999MA1101595101575REMMET09001/01/23 19:51:01 METAR KTEB 020051Z 00000KT 10SM CLR 06/00 A3000 RMK AO2 SLP159 T00610000
0248725025947412023010201517+40859-074056FM-15+0002KTEB V0209999C00005016765MN0160935N5+00615+00115101655ADDAA101000095GA1075+016765999GA2085+022865999GD13991+0167659GD24991+0228659GE19AGL   +99999+99999GF199999999999016761999999MA1101665101645REMMET10001/01/23 20:51:01 METAR KTEB 020151Z 00000KT 10SM BKN055 OVC075 06/01 A3002 RMK AO2 SLP165 T00610011
0230725025947412023010202517+40859-074056FM-15+0002KTEB V0209999C00005018295MN0160935N5+00675+00175101675ADDAA101000095GA1085+018295999GD14991+0182959GE19AGL   +99999+99999GF199999999999018291999999MA1101665101645MD1190109+9999REMMET09901/01/23 21:51:01 METAR KTEB 020251Z 00000KT 10SM OVC060 07/02 A3002 RMK AO2 SLP167 T00670017 51010
0210725025947412023010203517+40859-074056FM-15+0002KTEB V0203205N00155015245MN0160935N5+00835+00225101695ADDAA101000095GA1085+015245999GD14991+0152459GE19AGL   +99999+99999GF199999999999015241999999MA1101695101675REMMET09301/01/23 22:51:02 METAR KTEB 020351Z 32003KT 10SM OVC050 08/02 A3003 RMK AO2 SLP169 T00830022
0284725025947412023010204517+40859-074056FM-15+0002KTEB V0203005N00215014945MN0160935N5+00835+00175101655ADDAA101000095GA1075+014945999GA2085+019815999GD13991+0149459GD24991+0198159GE19AGL   +99999+99999GF199999999999014941999999KA1240M+01221KA2240N+00441MA1101665101645REMMET11001/01/23 23:51:02 METAR KTEB 020451Z 30004KT 10SM BKN049 OVC065 08/02 A3002 RMK AO2 SLP165 T00830017 401220044
0934725025947412023010204596+40859-074056SOD  +0002KTEB V020999999999999999999999999999+99999+99999999999ADDAA124000395AT1AU16RA  5AT2AU01FG  5AT3AU21MIFG5AT4AU13BR  5KA1240M+01225KA2240N+00445MG1101124100584OE11240093931012355OE22240076030012185OE33240025599999995REMSOD73024 HR PRECIPITATION (IN):0.01  24 HR MAX TEMP (F):54 24 HR MAX TEMP TIME (LST):1348 24 HR MIN TEMP (F):40 24 HR MIN TEMP TIME (LST):0630 AVERAGE STATION PRESSURE:29.860 MINIMUM SEA LEVEL PRESSURE:29.70 TIME OF OCCURRENCE:0006 PEAK WIND SPEED (MPH):21  PEAK WIND DIR (DEG):310 PEAK WIND TIME (LST):1235  FASTEST 2MIN SPEED (MPH):17 FASTEST 2MIN DIR (DEG):300 FASTEST 2MIN TIME (LST):1218 AVERAGE WIND SPEED (MPH):5.7  24 HR AVG TEMP (F):47 HEATING DEGREE DAYS:18  COOLING DEGREE DAYS:0   LATEST DAY MAX TEMP (0700-1900 LST):54  LATEST NIGHT MIN TEMP(1900-0800 LST):40 HOURLY INCREMENTAL PRECIPITATION VALUES (IN):.01 T    T    0.00 0.00 0.00 0.00 0.00 0.00 0.00 0.00 0.00 0.00 0.00 0.00 0.00 0.00 0.00 0.00 0.00 0.00 0.00 0.00 0.00EQDR01     N7GJS072R02     N7GKS075
0287725025947412023010205517+40859-074056FM-15+0002KTEB V0202605N002152200059N0160935N5+00785+00175101645ADDAA101000095GA1045+016765999GD12991+0167659GE19AGL   +99999+99999GF104995999999016761999999KA1060M+00891KA2060N+00561MA1101665101645MD1890039+9999REMMET11101/02/23 00:51:02 METAR KTEB 020551Z 26004KT 10SM SCT055 08/02 A3002 RMK AO2 SLP164 T00780017 10089 20056 58003EQDD01      0ADE726
0190725025947412023010206517+40859-074056FM-15+0002KTEB V0209999C000052200059N0160935N5+00725+00175101685ADDAA101000095GA1005+999999999GD10991+9999999GF100991999999999999999999MA1101695101675REMMET09501/02/23 01:51:02 METAR KTEB 020651Z 00000KT 10SM CLR 07/02 A3003 RMK AO2 SLP168 T00720017 (SW)
0190725025947412023010207517+40859-074056FM-15+0002KTEB V0202605N002152200059N0160935N5+00565+00065101785ADDAA101000095GA1005+999999999GD10991+9999999GF100991999999999999999999MA1101795101775REMMET09501/02/23 02:51:02 METAR KTEB 020751Z 26004KT 10SM CLR 06/01 A3006 RMK AO2 SLP178 T00560006 (SW)
0210725025947412023010208517+40859-074056FM-15+0002KTEB V0209999C000052200059N0160935N5+00445+00115101785ADDAA101000095GA1005+999999999GD10991+9999999GF100991999999999999999999MA1101795101775MD1090149+9999REMMET10101/02/23 03:51:02 METAR KTEB 020851Z 00000KT 10SM CLR 04/01 A3006 RMK AO2 SLP178 T00440011 50014 (SW)
0190725025947412023010209517+40859-074056FM-15+0002KTEB V0209999C000052200059N0160935N5+00335+00065101825ADDAA101000095GA1005+999999999GD10991+9999999GF100991999999999999999999MA1101835101805REMMET09501/02/23 04:51:02 METAR KTEB 020951Z 00000KT 10SM CLR 03/01 A3007 RMK AO2 SLP182 T00330006 (SW)
0190725025947412023010210517+40859-074056FM-15+0002KTEB V0209999C000052200059N0160935N5+00395+00115101825ADDAA101000095GA1005+999999999GD10991+9999999GF100991999999999999999999MA1101835101805REMMET09501/02/23 05:51:02 METAR KTEB 021051Z 00000KT 10SM CLR 04/01 A3007 RMK AO2 SLP182 T00390011 (SW)
0248725025947412023010211517+40859-074056FM-15+0002KTEB V0209999C000052200059N0160935N5+00225+00065101915ADDAA101000095GA1005+999999999GD10991+9999999GF100991999999999999999999KA1060M+00781KA2060N+00221MA1101935101915MD1390139+9999REMMET11301/02/23 06:51:02 METAR KTEB 021151Z 00000KT 10SM CLR 02/01 A3010 RMK AO2 SLP191 T00220006 10078 20022 53013 (SW)
0215725025947412023010212517+40859-074056FM-15+0002KTEB V0209999C00005042675MN0160935N5+00445+00225101985ADDAA101000095GA1075+042675999GD13991+0426759GE19AGL   +99999+99999GF199999999999042671999999MA1102005101975REMMET09801/02/23 07:51:02 METAR KTEB 021251Z 00000KT 10SM BKN140 04/02 A3012 RMK AO2 SLP198 T00440022 (AB)
0190725025947412023010213517+40859-074056FM-15+0002KTEB V0209999C000052200059N0160935N5+00565+00285102045ADDAA101000095GA1005+999999999GD10991+9999999GF100991999999999999999999MA1102035102015REMMET09501/02/23 08:51:02 METAR KTEB 021351Z 00000KT 10SM CLR 06/03 A3013 RMK AO2 SLP204 T00560028 (AB)
0277725025947412023010214517+40859-074056FM-15+0002KTEB V0200105N001552200059N0160935N5+00785+00395102055ADDAA101000025AA203000021GA1005+999999999GD10991+9999999GF100991999999999999999999MA1102075102045MD1190149+9999REMMET12201/02/23 09:51:02 METAR KTEB 021451Z 01003KT 10SM CLR 08/04 A3014 RMK AO2 RAB48E51 SLP205 P0000 60000 T00780039 51014 (WL)EQDQ01  00002PRCP03Q02  00008PRCP03
0215725025947412023010215517+40859-074056FM-15+0002KTEB V0209999C00005051825MN0160935N5+00895+00395102015ADDAA101000095GA1075+051825999GD13991+0518259GE19AGL   +99999+99999GF199999999999051821999999MA1102035102015REMMET09801/02/23 10:51:02 METAR KTEB 021551Z 00000KT 10SM BKN170 09/04 A3013 RMK AO2 SLP201 T00890039 (WL)
0190725025947412023010216517+40859-074056FM-15+0002KTEB V0209999C000052200059N0160935N5+01005+00505101935ADDAA101000095GA1005+999999999GD10991+9999999GF100991999999999999999999MA1101935101915REMMET09501/02/23 11:51:02 METAR KTEB 021651Z 00000KT 10SM CLR 10/05 A3010 RMK AO2 SLP193 T01000050 (WL)
0265725025947412023010217517+40859-074056FM-15+0002KTEB V0209999V001552200059N0160935N5+01225+00505101875ADDAA101000095AA206000021GA1005+999999999GD10991+9999999GF100991999999999999999999KA1060M+01221KA2060N+00171MA1101865101845MD1890189+9999REMMET11901/02/23 12:51:02 METAR KTEB 021751Z VRB03KT 10SM CLR 12/05 A3008 RMK AO2 SLP187 60000 T01220050 10122 20017 58018 (WL)
0190725025947412023010218517+40859-074056FM-15+0002KTEB V0202205N002652200059N0160935N5+01285+00505101875ADDAA101000095GA1005+999999999GD10991+9999999GF100991999999999999999999MA1101905101875REMMET09501/02/23 13:51:02 METAR KTEB 021851Z 22005KT 10SM CLR 13/05 A3009 RMK AO2 SLP187 T01280050 (WL)
0234725025947412023010219517+40859-074056FM-15+0002KTEB V0202405N004152200059N0160935N5+01225+00505101905ADDAA101000095GA1025+033535999GD11991+0335359GE19AGL   +99999+99999GF102995999999033531999999MA1101905101875REMMET09801/02/23 14:51:02 METAR KTEB 021951Z 24008KT 10SM FEW110 12/05 A3009 RMK AO2 SLP190 T01220050 (WL)EQDD01      0ADE726
0235725025947412023010220517+40859-074056FM-15+0002KTEB V0202405N00365030485MN0160935N5+01225+00565101915ADDAA101000095GA1085+030485999GD14991+0304859GE19AGL   +99999+99999GF199999999999030481999999MA1101935101915MD1390049+9999REMMET10401/02/23 15:51:02 METAR KTEB 022051Z 24007KT 10SM OVC100 12/06 A3010 RMK AO2 SLP191 T01220056 53004 (DK)
0215725025947412023010221517+40859-074056FM-15+0002KTEB V0202305N00315030485MN0160935N5+01225+00615101945ADDAA101000095GA1085+030485999GD14991+0304859GE19AGL   +99999+99999GF199999999999030481999999MA1101965101945REMMET09801/02/23 16:51:02 METAR KTEB 022151Z 23006KT 10SM OVC100 12/06 A3011 RMK AO2 SLP194 T01220061 (MC)
0253725025947412023010222517+40859-074056FM-15+0002KTEB V0209999V00215030485MN0160935N5+01175+00615101975ADDAA101000095GA1075+030485999GA2085+033535999GD13991+0304859GD24991+0335359GE19AGL   +99999+99999GF199999999999030481999999MA1101965101945REMMET10501/02/23 17:51:02 METAR KTEB 022251Z VRB04KT 10SM BKN100 OVC110 12/06 A3011 RMK AO2 SLP197 T01170061 (MC)
0311725025947412023010223517+40859-074056FM-15+0002KTEB V0202305N00315022865MN0160935N5+01115+00675102015ADDAA101000095GA1025+011285999GA2085+022865999GD11991+0112859GD24991+0228659GE19AGL   +99999+99999GF199999999999011281999999KA1060M+01331KA2060N+01111MA1102035102015MD1390109+9999REMMET12301/02/23 18:51:02 METAR KTEB 022351Z 23006KT 10SM FEW037 OVC075 11/07 A3013 RMK AO2 SLP201 T01110067 10133 20111 53010 (MC)
0210725025947412023010300517+40859-074056FM-15+0002KTEB V0202205N00315012195MN0160935N5+01115+00675102045ADDAA101000095GA1085+012195999GD14991+0121959GE19AGL   +99999+99999GF199999999999012191999999MA1102035102015REMMET09301/02/23 19:51:01 METAR KTEB 030051Z 22006KT 10SM OVC040 11/07 A3013 RMK AO2 SLP204 T01110067
0248725025947412023010301517+40859-074056FM-15+0002KTEB V0202005N00265009755MN0160935N5+01115+00675102055ADDAA101000095GA1075+009755999GA2085+011895999GD13991+0097559GD24991+0118959GE19AGL   +99999+99999GF199999999999009751999999MA1102075102045REMMET10001/02/23 20:51:01 METAR KTEB 030151Z 20005KT 10SM BKN032 OVC039 11/07 A3014 RMK AO2 SLP205 T01110067
0229725025947412023010302496+40859-074056FM-16+0002KTEB V0202305N00265007925MN0160935N5+01005+00805999999ADDAU110020015AW1615GA1075+007925999GA2085+013415999GD13991+0079259GD24991+0134159MA1102075102045MW1615REMMET11701/02/23 21:49:03 SPECI KTEB 030249Z 23005KT 10SM -RA BKN026 OVC044 10/08 A3014 RMK AO2 DZB02E39RAB44 P0000 FIBI (MC)
0351725025947412023010302517+40859-074056FM-15+0002KTEB V0202305N00265007925MN0160935N5+01005+00785102065ADDAA101000025AA203000021AU110020015AW1615GA1075+007925999GA2085+013415999GD13991+0079259GD24991+0134159GE19AGL   +99999+99999GF199999999999007921999999MA1102075102045MD1190059+9999MW1615REMMET13601/02/23 21:51:01 METAR KTEB 030251Z 23005KT 10SM -RA BKN026 OVC044 10/08 A3014 RMK AO2 DZB02E39RAB44 SLP206 P0000 60000 T01000078 51005EQDQ01  00008PRCP03
0235725025947412023010303297+40859-074056FM-16+0002KTEB V0209999C00005014635MN0112655N5+01005+00785999999ADDAA101000021AU110020015AW1615GA1085+014635999GD14991+0146359GE19AGL   +99999+99999GF199999999999014631999999MA1102075102045MW1615REMMET09501/02/23 22:29:01 SPECI KTEB 030329Z 00000KT 7SM -RA OVC048 10/08 A3014 RMK AO2 P0000 T01000078
0242725025947412023010303517+40859-074056FM-15+0002KTEB V0209999C00005014635MN0112655N5+00945+00785102055ADDAA101000395AU110020015AW1615GA1085+014635999GD14991+0146359GE19AGL   +99999+99999GF199999999999014631999999MA1102075102045MW1615REMMET10201/02/23 22:51:01 METAR KTEB 030351Z 00000KT 7SM -RA OVC048 09/08 A3014 RMK AO2 SLP205 P0001 T00940078
0277725025947412023010304517+40859-074056FM-15+0002KTEB V0209999C00005013415MN0080475N5+00895+00785102005ADDAA101000025AU100001015AW1105GA1085+013415999GD14991+0134159GE19AGL   +99999+99999GF199999999999013411999999KA1240M+01331KA2240N+00171MA1102005101975REMMET11701/02/23 23:51:02 METAR KTEB 030451Z 00000KT 5SM BR OVC044 09/08 A3012 RMK AO2 RAE18 SLP200 P0000 T00890078 401330017
0907725025947412023010304596+40859-074056SOD  +0002KTEB V020999999999999999999999999999+99999+99999999999ADDAA124000395AT1AU16RA  5AT2AU13BR  5KA1240M+01335KA2240N+00175MG1101834101634OE11240076013009475OE22240044723015105OE33240014399999995REMSOD72724 HR PRECIPITATION (IN):0.01  24 HR MAX TEMP (F):56 24 HR MAX TEMP TIME (LST):1254 24 HR MIN TEMP (F):35 24 HR MIN TEMP TIME (LST):0653 AVERAGE STATION PRESSURE:30.070 MINIMUM SEA LEVEL PRESSURE:30.01 TIME OF OCCURRENCE:0053 PEAK WIND SPEED (MPH):17  PEAK WIND DIR (DEG):130 PEAK WIND TIME (LST):0947  FASTEST 2MIN SPEED (MPH):10 FASTEST 2MIN DIR (DEG):230 FASTEST 2MIN TIME (LST):1510 AVERAGE WIND SPEED (MPH):3.2  24 HR AVG TEMP (F):46 HEATING DEGREE DAYS:19  COOLING DEGREE DAYS:0   LATEST DAY MAX TEMP (0700-1900 LST):56  LATEST NIGHT MIN TEMP(1900-0800 LST):35 HOURLY INCREMENTAL PRECIPITATION VALUES (IN):.00 0.00 0.00 0.00 0.00 0.00 0.00 0.00 0.00 T    0.00 0.00 0.00 0.00 0.00 0.00 0.00 0.00 0.00 0.00 0.00 T    0.01 TEQDR01     N7GJS072R02     N7GKS075
0289725025947412023010305517+40859-074056FM-15+0002KTEB V0209999C00005014025MN0128755N5+00945+00835101975ADDAA101000095AA206000391GA1085+014025999GD14991+0140259GE19AGL   +99999+99999GF199999999999014021999999KA1060M+01281KA2060N+00891MA1101965101945MD1890099+9999REMMET12101/03/23 00:51:02 METAR KTEB 030551Z 00000KT 8SM OVC046 09/08 A3011 RMK AO2 SLP197 60001 T00940083 10128 20089 58009 (SW)
0214725025947412023010306517+40859-074056FM-15+0002KTEB V0200105N00155016765MN0144845N5+01005+00835101925ADDAA101000095GA1085+016765999GD14991+0167659GE19AGL   +99999+99999GF199999999999016761999999MA1101935101915REMMET09701/03/23 01:51:02 METAR KTEB 030651Z 01003KT 9SM OVC055 10/08 A3010 RMK AO2 SLP192 T01000083 (SW)
0215725025947412023010307517+40859-074056FM-15+0002KTEB V0200405N00155015245MN0160935N5+01005+00835101945ADDAA101000095GA1085+015245999GD14991+0152459GE19AGL   +99999+99999GF199999999999015241999999MA1101935101915REMMET09801/03/23 02:51:02 METAR KTEB 030751Z 04003KT 10SM OVC050 10/08 A3010 RMK AO2 SLP194 T01000083 (SW)
0311725025947412023010308517+40859-074056FM-15+0002KTEB V0201205N00155021345MN0160935N5+01005+00785101895ADDAA101000095GA1045+014025999GA2075+021345999GA3085+027435999GD12991+0140259GD23991+0213459GD34991+0274359GE19AGL   +99999+99999GF199999999999014021999999MA1101905101875MD1790089+9999REMMET11801/03/23 03:51:02 METAR KTEB 030851Z 12003KT 10SM SCT046 BKN070 OVC090 10/08 A3009 RMK AO2 SLP189 T01000078 57008 (SW)
0215725025947412023010309517+40859-074056FM-15+0002KTEB V0200705N00155018295MN0160935N5+00945+00725101855ADDAA101000095GA1085+018295999GD14991+0182959GE19AGL   +99999+99999GF199999999999018291999999MA1101865101845REMMET09801/03/23 04:51:02 METAR KTEB 030951Z 07003KT 10SM OVC060 09/07 A3008 RMK AO2 SLP185 T00940072 (SW)
0254725025947412023010310517+40859-074056FM-15+0002KTEB V0209999C00005019815MN0160935N5+00895+00675101815ADDAA101000025AU110020015AW1615GA1085+019815999GD14991+0198159GE19AGL   +99999+99999GF199999999999019811999999MA1101835101805MW1615REMMET11401/03/23 05:51:02 METAR KTEB 031051Z 00000KT 10SM -RA OVC065 09/07 A3007 RMK AO2 RAB44 SLP181 P0000 T00890067 (CG)
0470725025947412023010311517+40859-074056FM-15+0002KTEB V0200305N00215022865MN0080475N5+00835+00675101765ADDAA101000596AA206000392AA324000591AU110020015AU200001015AW1105AW2615GA1025+003055999GA2075+022865999GA3085+027435999GD11991+0030559GD23991+0228659GD34991+0274359GE19AGL   +99999+99999GF199999999999003051999999KA1060M+01001KA2060N+00831MA1101765101745MD1890139+9999MW1615REMMET15401/03/23 06:51:02 METAR KTEB 031151Z 03004KT 5SM -RA BR FEW010 BKN075 OVC090 08/07 A3005 RMK AO2 SLP176 P0001 60001 70002 T00830067 10100 20083 58013 (CG)EQDQ01  00028PRCP06Q02  00058PRCP24
0260725025947412023010312337+40859-074056FM-16+0002KTEB V0209999C00005002135MN0048285N5+00835+00675999999ADDAA101000731AU110020015AU200001015AW1105AW2615GA1085+002135999GD14991+0021359GE19AGL   +99999+99999GF199999999999002131999999MA1101695101675MW1615REMMET10301/03/23 07:33:02 SPECI KTEB 031233Z 00000KT 3SM -RA BR OVC007 08/07 A3003 RMK AO2 P0003 T00830067 (WL)
0267725025947412023010312517+40859-074056FM-15+0002KTEB V0209999C00005002135MN0048285N5+00835+00675101675ADDAA101000595AU110020015AU200001015AW1105AW2615GA1085+002135999GD14991+0021359GE19AGL   +99999+99999GF199999999999002131999999MA1101695101675MW1615REMMET11001/03/23 07:51:02 METAR KTEB 031251Z 00000KT 3SM -RA BR OVC007 08/07 A3003 RMK AO2 SLP167 P0003 T00830067 (WL)
0248725025947412023010313517+40859-074056FM-15+0002KTEB V0203605N00215001835MN0048285N5+00835+00675101645ADDAA101000095AU100001015AW1105GA1085+001835999GD14991+0018359GE19AGL   +99999+99999GF199999999999001831999999MA1101665101645REMMET11401/03/23 08:51:02 METAR KTEB 031351Z 36004KT 3SM BR OVC006 08/07 A3002 RMK AO2 RAE1255 SLP164 P0000 T00830067 (WL)
0216725025947412023010314227+40859-074056FM-16+0002KTEB V0200105N00265001225MN0048285N5+00835+00725999999ADDAU100001015AW1105GA1085+001225999GD14991+0012259GE19AGL   +99999+99999GF199999999999001221999999MA1101635101605REMMET09301/03/23 09:22:02 SPECI KTEB 031422Z 01005KT 3SM BR OVC004 08/07 A3001 RMK AO2 T00830072 (WL)
0206725025947412023010314496+40859-074056FM-16+0002KTEB V0200205N00215001225MN0040235N5+00805+00705999999ADDAU110020015AU200001015AW1105AW2615GA1085+001225999GD14991+0012259MA1101565101535MW1615REMMET10801/03/23 09:49:02 SPECI KTEB 031449Z 02004KT 2 1/2SM -RA BR OVC004 08/07 A2999 RMK AO2 RAB47 P0000 FIBI (WL)
0333725025947412023010314517+40859-074056FM-15+0002KTEB V0200205N00215001225MN0040235N5+00835+00675101565ADDAA101000025AA203000891AU110020015AU200001015AW1105AW2615GA1085+001225999GD14991+0012259GE19AGL   +99999+99999GF199999999999001221999999MA1101565101535MD1690209+9999MW1615REMMET13201/03/23 09:51:02 METAR KTEB 031451Z 02004KT 2 1/2SM -RA BR OVC004 08/07 A2999 RMK AO2 RAB47 SLP156 P0000 60003 T00830067 56020 (WL)EQDQ01  00078PRCP03
0291725025947412023010315307+40859-074056FM-16+0002KTEB V0203205N00315001225MN0024145N5+00835+00675999999ADDAA101000531AU120020015AU200001015AW1105AW2625ED106U16769GA1085+001225999GD14991+0012259GE19AGL   +99999+99999GF199999999999001221999999MA1101635101605MW1655REMMET12301/03/23 10:30:02 SPECI KTEB 031530Z 32006KT 1 1/2SM R06/5500VP6000FT RA BR OVC004 08/07 A3001 RMK AO2 P0002 T00830067 (WL)
0294725025947412023010315517+40859-074056FM-15+0002KTEB V0209999V00155000915MN0016095N5+00835+00675101595ADDAA101003695AU120020015AU200001015AW1105AW2625ED106U12199GA1085+000915999GD14991+0009159GE19AGL   +99999+99999GF199999999999000911999999MA1101595101575MW1655REMMET12601/03/23 10:51:02 METAR KTEB 031551Z VRB03KT 1SM R06/4000VP6000FT RA BR OVC003 08/07 A3000 RMK AO2 SLP159 P0011 T00830067 (WL)
0367725025947412023010316017+40859-074056FM-16+0002KTEB V0209999C00005012505MN0024145N5+00835+00675999999ADDAA101001231AU120020015AU200001015AW1105AW2625ED106U10679GA1025+001225999GA2075+012505999GA3085+018295999GD11991+0012259GD23991+0125059GD34991+0182959GE19AGL   +99999+99999GF199999999999001221999999MA1101565101535MW1655REMMET13701/03/23 11:01:02 SPECI KTEB 031601Z 00000KT 1 1/2SM R06/3500VP6000FT RA BR FEW004 BKN041 OVC060 08/07 A2999 RMK AO2 P0005 T00830067 (WL)
0291725025947412023010316177+40859-074056FM-16+0002KTEB V0209999C00005000915MN0024145N5+00835+00675999999ADDAA101003331AU120020015AU200001015AW1105AW2625ED106U09149GA1085+000915999GD14991+0009159GE19AGL   +99999+99999GF199999999999000911999999MA1101495101475MW1655REMMET12301/03/23 11:17:02 SPECI KTEB 031617Z 00000KT 1 1/2SM R06/3000VP6000FT RA BR OVC003 08/07 A2997 RMK AO2 P0013 T00830067 (WL)
0287725025947412023010316297+40859-074056FM-16+0002KTEB V0203205N00155000915MN0032195N5+00835+00725999999ADDAA101004031AU120020015AU200001015AW1105AW2625ED106U03669GA1085+000915999GD14991+0009159GE19AGL   +99999+99999GF199999999999000911999999MA1101525101505MW1655REMMET11901/03/23 11:29:02 SPECI KTEB 031629Z 32003KT 2SM R06/1200VP6000FT RA BR OVC003 08/07 A2998 RMK AO2 P0016 T00830072 (WL)
0298725025947412023010316387+40859-074056FM-16+0002KTEB V0200905N00155000915MN0028165N5+00835+00725999999ADDAA101005031AU120020015AU200001015AW1105AW2625ED106U13729GA1085+000915999GD14991+0009159GE19AGL   +99999+99999GF199999999999000911999999MA1101425101405MW1655REMMET13001/03/23 11:38:02 SPECI KTEB 031638Z 09003KT 1 3/4SM R06/4500VP6000FT RA BR OVC003 08/07 A2995 RMK AO2 PRESFR P0020 T00830072 (WL)
0270725025947412023010316517+40859-074056FM-15+0002KTEB V0209999C00005000915MN0024145N5+00835+00725101395ADDAA101004895AU120020015AU200001015AW1105AW2625GA1085+000915999GD14991+0009159GE19AGL   +99999+99999GF199999999999000911999999MA1101395101365MW1655REMMET11301/03/23 11:51:02 METAR KTEB 031651Z 00000KT 1 1/2SM RA BR OVC003 08/07 A2994 RMK AO2 SLP139 P0021 T00830072 (WL)
0364725025947412023010317517+40859-074056FM-15+0002KTEB V0209999C00005000915MN0024145N5+00835+00725101235ADDAA101001095AA206010291AU120020015AU200001015AW1105AW2625GA1085+000915999GD14991+0009159GE19AGL   +99999+99999GF199999999999000911999999KA1060M+00941KA2060N+00781MA1101255101235MD1890339+9999MW1655REMMET13701/03/23 12:51:02 METAR KTEB 031751Z 00000KT 1 1/2SM RA BR OVC003 08/07 A2990 RMK AO2 SLP123 P0005 60040 T00830072 10094 20078 58033 (WL)EQDQ01  01018PRCP06
0270725025947412023010318517+40859-074056FM-15+0002KTEB V0202205N00215001225MN0028165N5+00945+00835101195ADDAA101000395AU120020015AU200001015AW1105AW2625GA1085+001225999GD14991+0012259GE19AGL   +99999+99999GF199999999999001221999999MA1101195101165MW1655REMMET11301/03/23 13:51:02 METAR KTEB 031851Z 22004KT 1 3/4SM RA BR OVC004 09/08 A2988 RMK AO2 SLP119 P0001 T00940083 (WL)
0270725025947412023010319517+40859-074056FM-15+0002KTEB V0209999C00005001225MN0028165N5+01005+00895101065ADDAA101000395AU120020015AU200001015AW1105AW2625GA1085+001225999GD14991+0012259GE19AGL   +99999+99999GF199999999999001221999999MA1101085101065MW1655REMMET11301/03/23 14:51:02 METAR KTEB 031951Z 00000KT 1 3/4SM RA BR OVC004 10/09 A2985 RMK AO2 SLP106 P0001 T01000089 (WL)
0306725025947412023010320517+40859-074056FM-15+0002KTEB V0202005N00465001225MN0028165N5+01115+01005101005ADDAA101000025AA203000591AU100001015AW1105GA1085+001225999GD14991+0012259GE19AGL   +99999+99999GF199999999999001221999999MA1101025100995MD1890239+9999REMMET12801/03/23 15:51:02 METAR KTEB 032051Z 20009KT 1 3/4SM BR OVC004 11/10 A2983 RMK AO2 RAE43 SLP100 P0000 60002 T01110100 58023 (MC)EQDQ01  00058PRCP03
0238725025947412023010321517+40859-074056FM-15+0002KTEB V0202105N00265001225MN0028165N5+01175+01065100955ADDAA101000095AU100001015AW1105GA1085+001225999GD14991+0012259GE19AGL   +99999+99999GF199999999999001221999999MA1100955100925REMMET10401/03/23 16:51:02 METAR KTEB 032151Z 21005KT 1 3/4SM BR OVC004 12/11 A2981 RMK AO2 SLP095 T01170106 (MC)
0216725025947412023010321537+40859-074056FM-16+0002KTEB V0202005N00215001835MN0032195N5+01175+01065999999ADDAU100001015AW1105GA1085+001835999GD14991+0018359GE19AGL   +99999+99999GF199999999999001831999999MA1100955100925REMMET09301/03/23 16:53:02 SPECI KTEB 032153Z 20004KT 2SM BR OVC006 12/11 A2981 RMK AO2 T01170106 (MC)
0201725025947412023010322496+40859-074056FM-16+0002KTEB V0202405N00265022865MN0048285N5+01205+01105999999ADDAU100001015AW1105GA1045+002445999GA2075+022865999GD12991+0024459GD23991+0228659MA1100985100965REMMET09501/03/23 17:49:02 SPECI KTEB 032249Z 24005KT 3SM BR SCT008 BKN075 12/11 A2982 RMK AO2 FIBI (MC)
0310725025947412023010322517+40859-074056FM-15+0002KTEB V0202505N00315022865MN0048285N5+01225+01115100985ADDAA101000095AU100001015AW1105GA1045+002445999GA2045+006405999GA3085+022865999GD12991+0024459GD22991+0064059GD34991+0228659GE19AGL   +99999+99999GF199999999999002441999999MA1100985100965REMMET11401/03/23 17:51:02 METAR KTEB 032251Z 25006KT 3SM BR SCT008 SCT021 OVC075 12/11 A2982 RMK AO2 SLP098 T01220111 (MC)
0292725025947412023010322597+40859-074056FM-16+0002KTEB V0202705N00265006405MN0048285N5+01225+01115999999ADDAU100001015AW1105GA1025+002745999GA2075+006405999GA3085+022865999GD11991+0027459GD23991+0064059GD34991+0228659GE19AGL   +99999+99999GF199999999999002741999999MA1100985100965REMMET10701/03/23 17:59:02 SPECI KTEB 032259Z 27005KT 3SM BR FEW009 BKN021 OVC075 12/11 A2982 RMK AO2 T01220111 (MC)
0216725025947412023010323197+40859-074056FM-16+0002KTEB V0202805N00265002135MN0032195N5+01225+01115999999ADDAU100001015AW1105GA1085+002135999GD14991+0021359GE19AGL   +99999+99999GF199999999999002131999999MA1101025100995REMMET09301/03/23 18:19:02 SPECI KTEB 032319Z 28005KT 2SM BR OVC007 12/11 A2983 RMK AO2 T01220111 (MC)
0216725025947412023010323447+40859-074056FM-16+0002KTEB V0202105N00215003665MN0032195N5+01285+01115999999ADDAU100001015AW1105GA1085+003665999GD14991+0036659GE19AGL   +99999+99999GF199999999999003661999999MA1100985100965REMMET09301/03/23 18:44:02 SPECI KTEB 032344Z 21004KT 2SM BR OVC012 13/11 A2982 RMK AO2 T01280111 (MC)
0163725025947412023010323496+40859-074056FM-16+0002KTEB V0202205N00215003665MN0064375N5+01305+01105999999ADDAU100001015AW1105GA1085+003665999GD14991+0036659MA1100985100965REMMET08801/03/23 18:49:02 SPECI KTEB 032349Z 22004KT 4SM BR OVC012 13/11 A2982 RMK AO2 FIBI (MC)
0309725025947412023010323517+40859-074056FM-15+0002KTEB V0202205N00265003665MN0064375N5+01285+01115100995ADDAA101000095AA206000591AU100001015AW1105GA1085+003665999GD14991+0036659GE19AGL   +99999+99999GF199999999999003661999999KA1060M+01281KA2060N+00831MA1100985100965MD1590019+9999REMMET12401/03/23 18:51:02 METAR KTEB 032351Z 22005KT 4SM BR OVC012 13/11 A2982 RMK AO2 SLP099 60002 T01280111 10128 20083 55001 (MC)
0163725025947412023010400496+40859-074056FM-16+0002KTEB V0209999C000052200059N0064375N5+01105+01005999999ADDAU100001015AW1105GA1025+036585999GD11991+0365859MA1100955100925REMMET08801/03/23 19:49:03 SPECI KTEB 040049Z 00000KT 4SM BR FEW120 11/10 A2981 RMK AO2 FIBI (MC)
0248725025947412023010400517+40859-074056FM-15+0002KTEB V0209999C000052200059N0064375N5+01115+01005100965ADDAA101000095AU100001015AW1105GA1025+036585999GD11991+0365859GE19AGL   +99999+99999GF102995999999036581999999MA1100955100925REMMET09501/03/23 19:51:01 METAR KTEB 040051Z 00000KT 4SM BR FEW120 11/10 A2981 RMK AO2 SLP096 T01110100EQDD01      0ADE726
0204725025947412023010401517+40859-074056FM-15+0002KTEB V0202105N001552200059N0064375N5+01115+01005100925ADDAA101000095AU100001015AW1105GA1005+999999999GD10991+9999999GF100991999999999999999999MA1100915100895REMMET09201/03/23 20:51:01 METAR KTEB 040151Z 21003KT 4SM BR CLR 11/10 A2980 RMK AO2 SLP092 T01110100
0211725025947412023010402087+40859-074056FM-16+0002KTEB V0202205N00215005185MN0064375N5+01115+01065999999ADDAU100001015AW1105GA1085+005185999GD14991+0051859GE19AGL   +99999+99999GF199999999999005181999999MA1100915100895REMMET08801/03/23 21:08:01 SPECI KTEB 040208Z 22004KT 4SM BR OVC017 11/11 A2980 RMK AO2 T01110106
0177725025947412023010402496+40859-074056FM-16+0002KTEB V0209999C00005005185MN0040235N5+01105+01005999999ADDAU100001015AW1105GA1085+005185999GD14991+0051859MA1100915100895REMMET10201/03/23 21:49:03 SPECI KTEB 040249Z 00000KT 2 1/2SM BR OVC017 11/10 A2980 RMK AO2 TWR VIS 4 FIBI (MC)
0263725025947412023010402517+40859-074056FM-15+0002KTEB V0209999C00005005185MN0040235N5+01115+01005100925ADDAA101000095AU100001015AW1105GA1085+005185999GD14991+0051859GE19AGL   +99999+99999GF199999999999005181999999MA1100915100895MD1690079+9999REMMET11501/03/23 21:51:01 METAR KTEB 040251Z 00000KT 2 1/2SM BR OVC017 11/10 A2980 RMK AO2 TWR VIS 4 SLP092 T01110100 56007
0239725025947412023010403517+40859-074056FM-15+0002KTEB V0202105N00155004885MN0032195N5+01065+00945100915ADDAA101000095AU100001015AW1105GA1085+004885999GD14991+0048859GE19AGL   +99999+99999GF199999999999004881999999MA1100915100895REMMET10501/03/23 22:51:01 METAR KTEB 040351Z 21003KT 2SM BR OVC016 11/09 A2980 RMK AO2 TWR VIS 4 SLP091 T01060094
0211725025947412023010404197+40859-074056FM-16+0002KTEB V0209999C00005001225MN0032195N5+01065+00945999999ADDAU100001015AW1105GA1085+001225999GD14991+0012259GE19AGL   +99999+99999GF199999999999001221999999MA1100855100825REMMET08801/03/23 23:19:01 SPECI KTEB 040419Z 00000KT 2SM BR OVC004 11/09 A2978 RMK AO2 T01060094
0239725025947412023010404397+40859-074056FM-16+0002KTEB V0209999C00005001225MN0016095N5+01065+00945999999ADDAU100001015AW1105ED106U04889GA1085+001225999GD14991+0012259GE19AGL   +99999+99999GF199999999999001221999999MA1100785100765REMMET10501/03/23 23:39:01 SPECI KTEB 040439Z 00000KT 1SM R06/1600VP6000FT BR OVC004 11/09 A2976 RMK AO2 T01060094
0295725025947412023010404517+40859-074056FM-15+0002KTEB V0209999C00005000915MN0012075N5+01005+00945100805ADDAA101000095AU100001015AW1105ED106U09149GA1085+000915999GD14991+0009159GE19AGL   +99999+99999GF199999999999000911999999KA1240M+01281KA2240N+00781MA1100815100795REMMET12401/03/23 23:51:01 METAR KTEB 040451Z 00000KT 3/4SM R06/3000VP6000FT BR OVC003 10/09 A2977 RMK AO2 SLP080 T01000094 401280078
0910725025947412023010404596+40859-074056SOD  +0002KTEB V020999999999999999999999999999+99999+99999999999ADDAA124010995AT1AU16RA  5AT2AU13BR  5KA1240M+01285KA2240N+00785MG1101464100784OE11240071516013275OE22240044722016125OE33240013499999995REMSOD73024 HR PRECIPITATION (IN):0.43  24 HR MAX TEMP (F):55 24 HR MAX TEMP TIME (LST):1856 24 HR MIN TEMP (F):46 24 HR MIN TEMP TIME (LST):1047 AVERAGE STATION PRESSURE:29.960 MINIMUM SEA LEVEL PRESSURE:29.76 TIME OF OCCURRENCE:2359 PEAK WIND SPEED (MPH):16  PEAK WIND DIR (DEG):160 PEAK WIND TIME (LST):1327  FASTEST 2MIN SPEED (MPH):10 FASTEST 2MIN DIR (DEG):220 FASTEST 2MIN TIME (LST):1612 AVERAGE WIND SPEED (MPH):3.0  24 HR AVG TEMP (F):51 HEATING DEGREE DAYS:14  COOLING DEGREE DAYS:0   LATEST DAY MAX TEMP (0700-1900 LST):55  LATEST NIGHT MIN TEMP(1900-0800 LST):46 HOURLY INCREMENTAL PRECIPITATION VALUES (IN):.00 0.00 0.00 0.00 0.00 T    0.02 0.02 0.00 T    0.14 0.19 0.04 0.01 0.01 T    0.00 0.00 0.00 0.00 0.00 0.00 0.00 0.00EQDR01     N7GJS072R02     N7GKS075
0322725025947412023010405517+40859-074056FM-15+0002KTEB V0202005N00215000915MN0008055N5+01005+00945100815ADDAA101000095AU100002015AW1305ED106U08539GA1085+000915999GD14991+0009159GE19AGL   +99999+99999GF199999999999000911999999KA1060M+01281KA2060N+01001MA1100815100795MD1590109+9999REMMET13701/04/23 00:51:02 METAR KTEB 040551Z 20004KT 1/2SM R06/2800VP6000FT FG OVC003 10/09 A2977 RMK AO2 SLP081 T01000094 10128 20100 55010 (SW)
0244725025947412023010405537+40859-074056FM-16+0002KTEB V0202105N00215000915MN0016095N5+01005+00945999999ADDAU100001015AW1105ED106U10679GA1085+000915999GD14991+0009159GE19AGL   +99999+99999GF199999999999000911999999MA1100815100795REMMET11001/04/23 00:53:02 SPECI KTEB 040553Z 21004KT 1SM R06/3500VP6000FT BR OVC003 10/09 A2977 RMK AO2 T01000094 (SW)
0201725025947412023010406496+40859-074056FM-16+0002KTEB V0202405N00215002745MN0080475N5+01105+00905999999ADDAU100001015AW1105GA1045+001525999GA2085+002745999GD12991+0015259GD24991+0027459MA1100855100825REMMET09501/04/23 01:49:02 SPECI KTEB 040649Z 24004KT 5SM BR SCT005 OVC009 11/09 A2978 RMK AO2 FIBI (SW)
0272725025947412023010406517+40859-074056FM-15+0002KTEB V0202505N00155002745MN0080475N5+01065+00945100845ADDAA101000095AU100001015AW1105GA1045+001525999GA2085+002745999GD12991+0015259GD24991+0027459GE19AGL   +99999+99999GF199999999999001521999999MA1100855100825REMMET10701/04/23 01:51:02 METAR KTEB 040651Z 25003KT 5SM BR SCT005 OVC009 11/09 A2978 RMK AO2 SLP084 T01060094 (SW)
0254725025947412023010407087+40859-074056FM-16+0002KTEB V0209999C00005028965MN0096565N5+01065+00945999999ADDAU100001015AW1105GA1025+021345999GA2085+028965999GD11991+0213459GD24991+0289659GE19AGL   +99999+99999GF199999999999021341999999MA1100885100865REMMET10001/04/23 02:08:02 SPECI KTEB 040708Z 00000KT 6SM BR FEW070 OVC095 11/09 A2979 RMK AO2 T01060094 (SW)
0254725025947412023010407287+40859-074056FM-16+0002KTEB V0201805N00265007925MN0096565N5+01065+00945999999ADDAU100001015AW1105GA1075+007925999GA2085+028965999GD13991+0079259GD24991+0289659GE19AGL   +99999+99999GF199999999999007921999999MA1100885100865REMMET10001/04/23 02:28:02 SPECI KTEB 040728Z 18005KT 6SM BR BKN026 OVC095 11/09 A2979 RMK AO2 T01060094 (SW)
0260725025947412023010407517+40859-074056FM-15+0002KTEB V0201505N00155007015MN0160935N5+01115+01005100845ADDAA101000095GA1075+007015999GA2085+030485999GD13991+0070159GD24991+0304859GE19AGL   +99999+99999GF199999999999007011999999MA1100855100825REMMET11201/04/23 02:51:02 METAR KTEB 040751Z 15003KT 10SM BKN023 OVC100 11/10 A2978 RMK AO2 PRESFR SLP084 T01110100 (SW)
0235725025947412023010408517+40859-074056FM-15+0002KTEB V0202205N00315005795MN0160935N5+01065+00945100825ADDAA101000095GA1075+005795999GD13991+0057959GE19AGL   +99999+99999GF199999999999005791999999MA1100815100795MD1090019+9999REMMET10401/04/23 03:51:02 METAR KTEB 040851Z 22006KT 10SM BKN019 11/09 A2977 RMK AO2 SLP082 T01060094 50001 (SW)
0141725025947412023010409496+40859-074056FM-16+0002KTEB V0202305N001552200059N0160935N5+01005+00905999999ADDGA1005+999999999GD10991+9999999MA1100855100825REMMET08301/04/23 04:49:02 SPECI KTEB 040949Z 23003KT 10SM CLR 10/09 A2978 RMK AO2 FIBI (SW)
0190725025947412023010409517+40859-074056FM-15+0002KTEB V0202205N001552200059N0160935N5+01005+00895100845ADDAA101000095GA1005+999999999GD10991+9999999GF100991999999999999999999MA1100855100825REMMET09501/04/23 04:51:02 METAR KTEB 040951Z 22003KT 10SM CLR 10/09 A2978 RMK AO2 SLP084 T01000089 (SW)
0189725025947412023010410517+40859-074056FM-15+0002KTEB V0209999C000052200059N0128755N5+01065+00895100925ADDAA101000095GA1005+999999999GD10991+9999999GF100991999999999999999999MA1100915100895REMMET09401/04/23 05:51:02 METAR KTEB 041051Z 00000KT 8SM CLR 11/09 A2980 RMK AO2 SLP092 T01060089 (SW)
0309725025947412023010411517+40859-074056FM-15+0002KTEB V0209999C00005028965MN0096565N5+01005+00835101015ADDAA101000095AA224010791AU100001015AW1105GA1075+028965999GD13991+0289659GE19AGL   +99999+99999GF199999999999028961999999KA1060M+01111KA2060N+00941MA1101025100995MD1390199+9999REMMET12401/04/23 06:51:02 METAR KTEB 041151Z 00000KT 6SM BR BKN095 10/08 A2983 RMK AO2 SLP101 70042 T01000083 10111 20094 53019 (AB)
0211725025947412023010412517+40859-074056FM-15+0002KTEB V0209999C000052200059N0128755N5+01005+00895101085ADDAA101000095AU101002015AW1311GA1005+999999999GD10991+9999999GF100991999999999999999999MA1101085101065REMMET09901/04/23 07:51:02 METAR KTEB 041251Z 00000KT 8SM MIFG CLR 10/09 A2985 RMK AO2 SLP108 T01000089 (BR)
0211725025947412023010413517+40859-074056FM-15+0002KTEB V0202205N005152200059N0096565N5+01285+01115101185ADDAA101000095AU101002015AW1311GA1005+999999999GD10991+9999999GF100991999999999999999999MA1101195101165REMMET09901/04/23 08:51:02 METAR KTEB 041351Z 22010KT 6SM MIFG CLR 13/11 A2988 RMK AO2 SLP118 T01280111 (BR)
0231725025947412023010414517+40859-074056FM-15+0002KTEB V0209999V002652200059N0128755N5+01445+01285101185ADDAA101000095AU101002015AW1311GA1005+999999999GD10991+9999999GF100991999999999999999999MA1101195101165MD1190179+9999REMMET10501/04/23 09:51:02 METAR KTEB 041451Z VRB05KT 8SM MIFG CLR 14/13 A2988 RMK AO2 SLP118 T01440128 51017 (BR)
0211725025947412023010415517+40859-074056FM-15+0002KTEB V0202005N002652200059N0112655N5+01505+01285101165ADDAA101000095AU101002015AW1311GA1005+999999999GD10991+9999999GF100991999999999999999999MA1101155101135REMMET09901/04/23 10:51:02 METAR KTEB 041551Z 20005KT 7SM MIFG CLR 15/13 A2987 RMK AO2 SLP116 T01500128 (BR)
0189725025947412023010416517+40859-074056FM-15+0002KTEB V0201805N002652200059N0128755N5+01615+01335101115ADDAA101000095GA1005+999999999GD10991+9999999GF100991999999999999999999MA1101125101095REMMET09401/04/23 11:51:02 METAR KTEB 041651Z 18005KT 8SM CLR 16/13 A2986 RMK AO2 SLP111 T01610133 (BR)
0248725025947412023010417517+40859-074056FM-15+0002KTEB V0202005N002652200059N0160935N5+01725+01395101015ADDAA101000095GA1005+999999999GD10991+9999999GF100991999999999999999999KA1060M+01721KA2060N+00941MA1101025100995MD1890179+9999REMMET11301/04/23 12:51:02 METAR KTEB 041751Z 20005KT 10SM CLR 17/14 A2983 RMK AO2 SLP101 T01720139 10172 20094 58017 (BR)
0190725025947412023010418517+40859-074056FM-15+0002KTEB V0202005N004652200059N0160935N5+01785+01335100985ADDAA101000095GA1005+999999999GD10991+9999999GF100991999999999999999999MA1100985100965REMMET09501/04/23 13:51:02 METAR KTEB 041851Z 20009KT 10SM CLR 18/13 A2982 RMK AO2 SLP098 T01780133 (BR)
0190725025947412023010419517+40859-074056FM-15+0002KTEB V0201905N003152200059N0160935N5+01725+01335100975ADDAA101000095GA1005+999999999GD10991+9999999GF100991999999999999999999MA1100985100965REMMET09501/04/23 14:51:02 METAR KTEB 041951Z 19006KT 10SM CLR 17/13 A2982 RMK AO2 SLP097 T01720133 (BR)
0210725025947412023010420517+40859-074056FM-15+0002KTEB V0209999C000052200059N0160935N5+01675+01335100965ADDAA101000095GA1005+999999999GD10991+9999999GF100991999999999999999999MA1100985100965MD1690059+9999REMMET10101/04/23 15:51:02 METAR KTEB 042051Z 00000KT 10SM CLR 17/13 A2982 RMK AO2 SLP096 T01670133 56005 (KM)
0230725025947412023010421517+40859-074056FM-15+0002KTEB V0200705N00215030485MN0160935N5+01615+01335100955ADDAA101000025GA1085+030485999GD14991+0304859GE19AGL   +99999+99999GF199999999999030481999999MA1100955100925REMMET11301/04/23 16:51:02 METAR KTEB 042151Z 07004KT 10SM OVC100 16/13 A2981 RMK AO2 RAB10E36 SLP095 P0000 T01610133 (KM)
0215725025947412023010422517+40859-074056FM-15+0002KTEB V0201205N00315012805MN0160935N5+01565+01285100905ADDAA101000095GA1085+012805999GD14991+0128059GE19AGL   +99999+99999GF199999999999012801999999MA1100915100895REMMET09801/04/23 17:51:02 METAR KTEB 042251Z 12006KT 10SM OVC042 16/13 A2980 RMK AO2 SLP090 T01560128 (KM)
0220725025947412023010423496+40859-074056FM-16+0002KTEB V0201705N00215008845MN0160935N5+01405+01305999999ADDGA1075+008845999GA2075+010365999GA3085+024385999GD13991+0088459GD23991+0103659GD34991+0243859MA1100955100925REMMET10001/04/23 18:49:02 SPECI KTEB 042349Z 17004KT 10SM BKN029 BKN034 OVC080 14/13 A2981 RMK AO2 FIBI (KM)
0366725025947412023010423517+40859-074056FM-15+0002KTEB V0201605N00215008845MN0160935N5+01445+01285100945ADDAA101000095AA206000021GA1075+008845999GA2075+010365999GA3085+025915999GD13991+0088459GD23991+0103659GD34991+0259159GE19AGL   +99999+99999GF199999999999008841999999KA1060M+01781KA2060N+01441MA1100955100925MD1590029+9999REMMET13601/04/23 18:51:02 METAR KTEB 042351Z 16004KT 10SM BKN029 BKN034 OVC085 14/13 A2981 RMK AO2 SLP094 60000 T01440128 10178 20144 55002 (KM)
0210725025947412023010500517+40859-074056FM-15+0002KTEB V0201205N00315006405MN0160935N5+01335+01175100905ADDAA101000095GA1085+006405999GD14991+0064059GE19AGL   +99999+99999GF199999999999006401999999MA1100915100895REMMET09301/04/23 19:51:01 METAR KTEB 050051Z 12006KT 10SM OVC021 13/12 A2980 RMK AO2 SLP090 T01330117
0247725025947412023010501517+40859-074056FM-15+0002KTEB V0200905N00215005495MN0144845N5+01285+01115100895ADDAA101000095GA1075+005495999GA2085+007625999GD13991+0054959GD24991+0076259GE19AGL   +99999+99999GF199999999999005491999999MA1100885100865REMMET09901/04/23 20:51:01 METAR KTEB 050151Z 09004KT 9SM BKN018 OVC025 13/11 A2979 RMK AO2 SLP089 T01280111
0219725025947412023010502497+40859-074056FM-16+0002KTEB V0201305N00265004885MN0112655N5+01205+01005999999ADDGA1025+002445999GA2085+004885999GD11991+0024459GD24991+0048859GE19AGL   +99999+99999GF199999999999002441999999MA1100915100895REMMET08201/04/23 21:49:01 SPECI KTEB 050249Z 13005KT 7SM FEW008 OVC016 12/10 A2980 RMK AO2
0267725025947412023010502517+40859-074056FM-15+0002KTEB V0201205N00215004885MN0112655N5+01175+01005100925ADDAA101000095GA1025+002445999GA2085+004885999GD11991+0024459GD24991+0048859GE19AGL   +99999+99999GF199999999999002441999999MA1100915100895MD1390029+9999REMMET10501/04/23 21:51:01 METAR KTEB 050251Z 12004KT 7SM FEW008 OVC016 12/10 A2980 RMK AO2 SLP092 T01170100 53002
0249725025947412023010503007+40859-074056FM-16+0002KTEB V0209999C00005004275MN0096565N5+01175+01005999999ADDAU100001015AW1105GA1045+002445999GA2085+004275999GD12991+0024459GD24991+0042759GE19AGL   +99999+99999GF199999999999002441999999MA1100955100925REMMET09501/04/23 22:00:01 SPECI KTEB 050300Z 00000KT 6SM BR SCT008 OVC014 12/10 A2981 RMK AO2 T01170100
0287725025947412023010503097+40859-074056FM-16+0002KTEB V0209999C00005002135MN0096565N5+01175+01005999999ADDAU100001015AW1105GA1075+002135999GA2075+004275999GA3085+007325999GD13991+0021359GD23991+0042759GD34991+0073259GE19AGL   +99999+99999GF199999999999002131999999MA1100955100925REMMET10201/04/23 22:09:01 SPECI KTEB 050309Z 00000KT 6SM BR BKN007 BKN014 OVC024 12/10 A2981 RMK AO2 T01170100
0211725025947412023010503167+40859-074056FM-16+0002KTEB V0200505N00265001225MN0096565N5+01115+01005999999ADDAU100001015AW1105GA1085+001225999GD14991+0012259GE19AGL   +99999+99999GF199999999999001221999999MA1100915100895REMMET08801/04/23 22:16:01 SPECI KTEB 050316Z 05005KT 6SM BR OVC004 11/10 A2980 RMK AO2 T01110100
0229725025947412023010503517+40859-074056FM-15+0002KTEB V0201005N00215001225MN0096565N5+01065+00945100885ADDAA101000095AU100001015AW1105GA1085+001225999GD14991+0012259GE19AGL   +99999+99999GF199999999999001221999999MA1100885100865REMMET09501/04/23 22:51:01 METAR KTEB 050351Z 10004KT 6SM BR OVC004 11/09 A2979 RMK AO2 SLP088 T01060094
0206725025947412023010504496+40859-074056FM-16+0002KTEB V0200605N00215000915MN0024145N5+01005+00905999999ADDAU110010015AU200001015AW1105AW2515GA1085+000915999GD14991+0009159MA1100915100895MW1515REMMET10801/04/23 23:49:03 SPECI KTEB 050449Z 06004KT 1 1/2SM -DZ BR OVC003 10/09 A2980 RMK AO2 DZB42 P0000 FIBI (RK)
0308725025947412023010504517+40859-074056FM-15+0002KTEB V0200705N00215000915MN0024145N5+01005+00895100915ADDAA101000395AU110010015AU200001015AW1105AW2515GA1085+000915999GD14991+0009159GE19AGL   +99999+99999GF199999999999000911999999KA1240M+01781KA2240N+00941MA1100915100895MW1515REMMET12501/04/23 23:51:02 METAR KTEB 050451Z 07004KT 1 1/2SM -DZ BR OVC003 10/09 A2980 RMK AO2 DZB42 SLP091 P0001 T01000089 401780094
0934725025947412023010504596+40859-074056SOD  +0002KTEB V020999999999999999999999999999+99999+99999999999ADDAA124000395AT1AU14DZ  5AT2AU01FG  5AT3AU21MIFG5AT4AU13BR  5KA1240M+01785KA2240N+00945MG1100914100784OE11240089422009165OE22240058119014235OE33240021599999995REMSOD73024 HR PRECIPITATION (IN):0.01  24 HR MAX TEMP (F):64 24 HR MAX TEMP TIME (LST):1644 24 HR MIN TEMP (F):49 24 HR MIN TEMP TIME (LST):0726 AVERAGE STATION PRESSURE:29.800 MINIMUM SEA LEVEL PRESSURE:29.76 TIME OF OCCURRENCE:0132 PEAK WIND SPEED (MPH):20  PEAK WIND DIR (DEG):220 PEAK WIND TIME (LST):0916  FASTEST 2MIN SPEED (MPH):13 FASTEST 2MIN DIR (DEG):190 FASTEST 2MIN TIME (LST):1423 AVERAGE WIND SPEED (MPH):4.8  24 HR AVG TEMP (F):57 HEATING DEGREE DAYS:8   COOLING DEGREE DAYS:0   LATEST DAY MAX TEMP (0700-1900 LST):64  LATEST NIGHT MIN TEMP(1900-0800 LST):49 HOURLY INCREMENTAL PRECIPITATION VALUES (IN):.00 0.00 0.00 0.00 0.00 0.00 0.00 0.00 0.00 0.00 0.00 0.00 0.00 0.00 0.00 0.00 T    0.00 0.00 0.00 0.00 0.00 0.00 0.01EQDR01     N7GJS072R02     N7GKS075
0260725025947412023010505137+40859-074056FM-16+0002KTEB V0200605N00215001525MN0032195N5+01005+00835999999ADDAA101000021AU110010015AU200001015AW1105AW2515GA1085+001525999GD14991+0015259GE19AGL   +99999+99999GF199999999999001521999999MA1100915100895MW1515REMMET10301/05/23 00:13:02 SPECI KTEB 050513Z 06004KT 2SM -DZ BR OVC005 10/08 A2980 RMK AO2 P0000 T01000083 (RK)
0196725025947412023010505496+40859-074056FM-16+0002KTEB V0209999C00005001525MN0048285N5+01005+00805999999ADDAU110010015AU200001015AW1105AW2515GA1085+001525999GD14991+0015259MA1100955100925MW1515REMMET09801/05/23 00:49:02 SPECI KTEB 050549Z 00000KT 3SM -DZ BR OVC005 10/08 A2981 RMK AO2 P0000 FIBI (RK)
0361725025947412023010505517+40859-074056FM-15+0002KTEB V0209999C00005001525MN0048285N5+01005+00835100945ADDAA101000025AA206000391AU110010015AU200001015AW1105AW2515GA1085+001525999GD14991+0015259GE19AGL   +99999+99999GF199999999999001521999999KA1060M+01721KA2060N+00941MA1100955100925MD1390029+9999MW1515REMMET13401/05/23 00:51:02 METAR KTEB 050551Z 00000KT 3SM -DZ BR OVC005 10/08 A2981 RMK AO2 SLP094 P0000 60001 T01000083 10172 20094 53002 (RK)EQDQ01  00028PRCP06
0260725025947412023010506137+40859-074056FM-16+0002KTEB V0209999C00005001225MN0048285N5+01005+00835999999ADDAA101000021AU110010015AU200001015AW1105AW2515GA1085+001225999GD14991+0012259GE19AGL   +99999+99999GF199999999999001221999999MA1100985100965MW1515REMMET10301/05/23 01:13:02 SPECI KTEB 050613Z 00000KT 3SM -DZ BR OVC004 10/08 A2982 RMK AO2 P0000 T01000083 (RK)
0200725025947412023010506496+40859-074056FM-16+0002KTEB V0200805N00315001225MN0040235N5+00905+00805999999ADDAU110010015AU200001015AW1105AW2515GA1085+001225999GD14991+0012259MA1101025100995MW1515REMMET10201/05/23 01:49:02 SPECI KTEB 050649Z 08006KT 2 1/2SM -DZ BR OVC004 09/08 A2983 RMK AO2 P0000 FIBI (RK)
0271725025947412023010506517+40859-074056FM-15+0002KTEB V0200705N00265001225MN0040235N5+00945+00785101015ADDAA101000025AU110010015AU200001015AW1105AW2515GA1085+001225999GD14991+0012259GE19AGL   +99999+99999GF199999999999001221999999MA1101025100995MW1515REMMET11401/05/23 01:51:02 METAR KTEB 050651Z 07005KT 2 1/2SM -DZ BR OVC004 09/08 A2983 RMK AO2 SLP101 P0000 T00940078 (RK)
0264725025947412023010507177+40859-074056FM-16+0002KTEB V0200505N00155001525MN0040235N5+00895+00785999999ADDAA101000231AU110010015AU200001015AW1105AW2515GA1085+001525999GD14991+0015259GE19AGL   +99999+99999GF199999999999001521999999MA1101055101035MW1515REMMET10701/05/23 02:17:02 SPECI KTEB 050717Z 05003KT 2 1/2SM -DZ BR OVC005 09/08 A2984 RMK AO2 P0001 T00890078 (RK)
0271725025947412023010507517+40859-074056FM-15+0002KTEB V0209999C00005001525MN0040235N5+00945+00785101105ADDAA101000395AU110010015AU200001015AW1105AW2515GA1085+001525999GD14991+0015259GE19AGL   +99999+99999GF199999999999001521999999MA1101125101095MW1515REMMET11401/05/23 02:51:02 METAR KTEB 050751Z 00000KT 2 1/2SM -DZ BR OVC005 09/08 A2986 RMK AO2 SLP110 P0001 T00940078 (RK)
0260725025947412023010508137+40859-074056FM-16+0002KTEB V0200405N00265001835MN0064375N5+00945+00835999999ADDAA101000021AU110010015AU200001015AW1105AW2515GA1085+001835999GD14991+0018359GE19AGL   +99999+99999GF199999999999001831999999MA1101155101135MW1515REMMET10301/05/23 03:13:02 SPECI KTEB 050813Z 04005KT 4SM -DZ BR OVC006 09/08 A2987 RMK AO2 P0000 T00940083 (RK)
0302725025947412023010508517+40859-074056FM-15+0002KTEB V0201305N00155002135MN0080475N5+00945+00835101135ADDAA101000025AA203000391AU100001015AW1105GA1085+002135999GD14991+0021359GE19AGL   +99999+99999GF199999999999002131999999MA1101155101135MD1190199+9999REMMET12401/05/23 03:51:02 METAR KTEB 050851Z 13003KT 5SM BR OVC007 09/08 A2987 RMK AO2 DZE47 SLP113 P0000 60001 T00940083 51019 (RK)EQDQ01  00028PRCP03
0234725025947412023010509517+40859-074056FM-15+0002KTEB V0209999C00005001835MN0080475N5+00945+00785101185ADDAA101000095AU100001015AW1105GA1085+001835999GD14991+0018359GE19AGL   +99999+99999GF199999999999001831999999MA1101195101165REMMET10001/05/23 04:51:02 METAR KTEB 050951Z 00000KT 5SM BR OVC006 09/08 A2988 RMK AO2 SLP118 T00940078 (RK)
0216725025947412023010510387+40859-074056FM-16+0002KTEB V0209999C00005000915MN0032195N5+00945+00835999999ADDAU100001015AW1105GA1085+000915999GD14991+0009159GE19AGL   +99999+99999GF199999999999000911999999MA1101255101235REMMET09301/05/23 05:38:02 SPECI KTEB 051038Z 00000KT 2SM BR OVC003 09/08 A2990 RMK AO2 T00940083 (RK)
0167725025947412023010510496+40859-074056FM-16+0002KTEB V0209999C00005000915MN0024145N5+00905+00805999999ADDAU100001015AW1105GA1085+000915999GD14991+0009159MA1101255101235REMMET09201/05/23 05:49:02 SPECI KTEB 051049Z 00000KT 1 1/2SM BR OVC003 09/08 A2990 RMK AO2 FIBI (RK)
0266725025947412023010510517+40859-074056FM-15+0002KTEB V0200205N00155000915MN0024145N5+00945+00835101245ADDAA101000095AU100001015AW1105ED106U07929GA1085+000915999GD14991+0009159GE19AGL   +99999+99999GF199999999999000911999999MA1101255101235REMMET12101/05/23 05:51:02 METAR KTEB 051051Z 02003KT 1 1/2SM R06/2600VP6000FT BR OVC003 09/08 A2990 RMK AO2 SLP124 T00940083 (RK)
0246725025947412023010511077+40859-074056FM-16+0002KTEB V0200505N00155000915MN0008055N5+00945+00835999999ADDAU100002015AW1305ED106U15249GA1085+000915999GD14991+0009159GE19AGL   +99999+99999GF199999999999000911999999MA1101295101265REMMET11201/05/23 06:07:02 SPECI KTEB 051107Z 05003KT 1/2SM R06/5000VP6000FT FG OVC003 09/08 A2991 RMK AO2 T00940083 (RK)
0374725025947412023010511517+40859-074056FM-15+0002KTEB V0200605N00215000615MN0008055N5+00945+00835101305ADDAA101000095AA206000391AA324000591AU100002015AW1305ED106U06719GA1085+000615999GD14991+0006159GE19AGL   +99999+99999GF199999999999000611999999KA1060M+01001KA2060N+00891MA1101325101305MD1290129+9999REMMET14801/05/23 06:51:02 METAR KTEB 051151Z 06004KT 1/2SM R06/2200V2600FT FG OVC002 09/08 A2992 RMK AO2 SLP130 60001 70002 T00940083 10100 20089 52012 (RK)EQDQ01  00058PRCP24
0262725025947412023010512517+40859-074056FM-15+0002KTEB V0200605N00215000615WN0008055N5+00895+00835101365ADDAA101000095AU100002015AW1305ED106U16769GA1095+000615999GD15991+0006159GE19AGL   +99999+99999GF109991999999000611999999MA1101355101335REMMET11701/05/23 07:51:02 METAR KTEB 051251Z 06004KT 1/2SM R06/5500V6000FT FG VV002 09/08 A2993 RMK AO2 SLP136 T00890083 (WL)
0243725025947412023010512547+40859-074056FM-16+0002KTEB V0209999C00005000915MN0032195N5+00895+00835999999ADDAU100001015AW1105ED106U16769GA1085+000915999GD14991+0009159GE19AGL   +99999+99999GF199999999999000911999999MA1101395101365REMMET10901/05/23 07:54:02 SPECI KTEB 051254Z 00000KT 2SM R06/5500V6000FT BR OVC003 09/08 A2994 RMK AO2 T00890083 (WL)
0239725025947412023010513057+40859-074056FM-16+0002KTEB V0201005N00265000915MN0016095N5+00895+00835999999ADDAU100001015AW1105ED106U18299GA1085+000915999GD14991+0009159GE19AGL   +99999+99999GF199999999999000911999999MA1101395101365REMMET10501/05/23 08:05:02 SPECI KTEB 051305Z 10005KT 1SM R06/P6000FT BR OVC003 09/08 A2994 RMK AO2 T00890083 (MV)
0257725025947412023010513517+40859-074056FM-15+0002KTEB V0201005N00265000915MN0016095N5+00895+00835101435ADDAA101000095AU100001015AW1105ED106U18299GA1085+000915999GD14991+0009159GE19AGL   +99999+99999GF199999999999000911999999MA1101425101405REMMET11201/05/23 08:51:02 METAR KTEB 051351Z 10005KT 1SM R06/P6000FT BR OVC003 09/08 A2995 RMK AO2 SLP143 T00890083 (MV)
0163725025947412023010514496+40859-074056FM-16+0002KTEB V0200705N00265000915MN0032195N5+00805+00805999999ADDAU100001015AW1105GA1085+000915999GD14991+0009159MA1101525101505REMMET08801/05/23 09:49:02 SPECI KTEB 051449Z 07005KT 2SM BR OVC003 08/08 A2998 RMK AO2 FIBI (MV)
0254725025947412023010514517+40859-074056FM-15+0002KTEB V0200805N00265000915MN0032195N5+00835+00785101535ADDAA101000095AU100001015AW1105GA1085+000915999GD14991+0009159GE19AGL   +99999+99999GF199999999999000911999999MA1101525101505MD1390239+9999REMMET10601/05/23 09:51:02 METAR KTEB 051451Z 08005KT 2SM BR OVC003 08/08 A2998 RMK AO2 SLP153 T00830078 53023 (MV)
0163725025947412023010515496+40859-074056FM-16+0002KTEB V0200805N00155001525MN0032195N5+00905+00805999999ADDAU100001015AW1105GA1085+001525999GD14991+0015259MA1101595101575REMMET08801/05/23 10:49:02 SPECI KTEB 051549Z 08003KT 2SM BR OVC005 09/08 A3000 RMK AO2 FIBI (MV)
0234725025947412023010515517+40859-074056FM-15+0002KTEB V0200805N00215001525MN0032195N5+00895+00785101575ADDAA101000095AU100001015AW1105GA1085+001525999GD14991+0015259GE19AGL   +99999+99999GF199999999999001521999999MA1101595101575REMMET10001/05/23 10:51:02 METAR KTEB 051551Z 08004KT 2SM BR OVC005 09/08 A3000 RMK AO2 SLP157 T00890078 (MV)
0163725025947412023010516496+40859-074056FM-16+0002KTEB V0201005N00315001225MN0064375N5+00905+00805999999ADDAU100001015AW1105GA1085+001225999GD14991+0012259MA1101495101475REMMET08801/05/23 11:49:02 SPECI KTEB 051649Z 10006KT 4SM BR OVC004 09/08 A2997 RMK AO2 FIBI (MV)
0234725025947412023010516517+40859-074056FM-15+0002KTEB V0200905N00365001225MN0064375N5+00945+00785101475ADDAA101000095AU100001015AW1105GA1085+001225999GD14991+0012259GE19AGL   +99999+99999GF199999999999001221999999MA1101495101475REMMET10001/05/23 11:51:02 METAR KTEB 051651Z 09007KT 4SM BR OVC004 09/08 A2997 RMK AO2 SLP147 T00940078 (MV)
0163725025947412023010517496+40859-074056FM-16+0002KTEB V0201005N00215001835MN0080475N5+00905+00705999999ADDAU100001015AW1105GA1085+001835999GD14991+0018359MA1101465101435REMMET08801/05/23 12:49:02 SPECI KTEB 051749Z 10004KT 5SM BR OVC006 09/07 A2996 RMK AO2 FIBI (MV)
0292725025947412023010517517+40859-074056FM-15+0002KTEB V0200805N00215001835MN0080475N5+00945+00725101465ADDAA101000095AU100001015AW1105GA1085+001835999GD14991+0018359GE19AGL   +99999+99999GF199999999999001831999999KA1060M+00941KA2060N+00831MA1101465101435MD1890079+9999REMMET11801/05/23 12:51:02 METAR KTEB 051751Z 08004KT 5SM BR OVC006 09/07 A2996 RMK AO2 SLP146 T00940072 10094 20083 58007 (MV)
0214725025947412023010518517+40859-074056FM-15+0002KTEB V0200905N00215003355MN0112655N5+00945+00725101405ADDAA101000095GA1085+003355999GD14991+0033559GE19AGL   +99999+99999GF199999999999003351999999MA1101425101405REMMET09701/05/23 13:51:02 METAR KTEB 051851Z 09004KT 7SM OVC011 09/07 A2995 RMK AO2 SLP140 T00940072 (MV)
0215725025947412023010519517+40859-074056FM-15+0002KTEB V0200705N00215003355MN0160935N5+00945+00675101355ADDAA101000095GA1085+003355999GD14991+0033559GE19AGL   +99999+99999GF199999999999003351999999MA1101355101335REMMET09801/05/23 14:51:02 METAR KTEB 051951Z 07004KT 10SM OVC011 09/07 A2993 RMK AO2 SLP135 T00940067 (MV)
0273725025947412023010520517+40859-074056FM-15+0002KTEB V0200805N00315003055MN0160935N5+00895+00675101355ADDAA101000095GA1075+003055999GA2085+004275999GD13991+0030559GD24991+0042759GE19AGL   +99999+99999GF199999999999003051999999MA1101355101335MD1690119+9999REMMET11101/05/23 15:51:02 METAR KTEB 052051Z 08006KT 10SM BKN010 OVC014 09/07 A2993 RMK AO2 SLP135 T00890067 56011 (KM)
0197725025947412023010521247+40859-074056FM-16+0002KTEB V0200905N00415002745MN0160935N5+00835+00675999999ADDGA1085+002745999GD14991+0027459GE19AGL   +99999+99999GF199999999999002741999999MA1101325101305REMMET09101/05/23 16:24:02 SPECI KTEB 052124Z 09008KT 10SM OVC009 08/07 A2992 RMK AO2 T00830067 (KM)
0215725025947412023010521517+40859-074056FM-15+0002KTEB V0201205N00315002745MN0160935N5+00835+00615101375ADDAA101000025GA1085+002745999GD14991+0027459GE19AGL   +99999+99999GF199999999999002741999999MA1101395101365REMMET09801/05/23 16:51:02 METAR KTEB 052151Z 12006KT 10SM OVC009 08/06 A2994 RMK AO2 SLP137 T00830061 (KM)
0237725025947412023010522496+40859-074056FM-16+0002KTEB V0200605N00155003665MN0160935N5+00805+00605999999ADDGA1075+003665999GA2075+005795999GA3085+024385999GD13991+0036659GD23991+0057959GD34991+0243859MA1101395101365REMMET11701/05/23 17:49:02 SPECI KTEB 052249Z 06003KT 10SM BKN012 BKN019 OVC080 08/06 A2994 RMK AO2 RAB2157E27 P0000 FIBI (KM)
0308725025947412023010522517+40859-074056FM-15+0002KTEB V0200605N00215005795MN0160935N5+00835+00615101395ADDAA101000025GA1045+003665999GA2075+005795999GA3085+024385999GD12991+0036659GD23991+0057959GD34991+0243859GE19AGL   +99999+99999GF199999999999003661999999MA1101395101365REMMET12901/05/23 17:51:02 METAR KTEB 052251Z 06004KT 10SM SCT012 BKN019 OVC080 08/06 A2994 RMK AO2 RAB2157E27 SLP139 P0000 T00830061 (KM)
0328725025947412023010523517+40859-074056FM-15+0002KTEB V0200705N00265005185MN0160935N5+00835+00615101455ADDAA101000095AA206000021GA1045+003665999GA2085+005185999GD12991+0036659GD24991+0051859GE19AGL   +99999+99999GF199999999999003661999999KA1060M+00941KA2060N+00831MA1101465101435MD1390109+9999REMMET12901/05/23 18:51:02 METAR KTEB 052351Z 07005KT 10SM SCT012 OVC017 08/06 A2996 RMK AO2 SLP145 60000 T00830061 10094 20083 53010 (KM)
0191725025947412023010600297+40859-074056FM-16+0002KTEB V0200905N00315003665MN0112655N5+00835+00615999999ADDGA1085+003665999GD14991+0036659GE19AGL   +99999+99999GF199999999999003661999999MA1101425101405REMMET08501/05/23 19:29:01 SPECI KTEB 060029Z 09006KT 7SM OVC012 08/06 A2995 RMK AO2 T00830061
0209725025947412023010600517+40859-074056FM-15+0002KTEB V0200905N00265003665MN0112655N5+00785+00615101425ADDAA101000095GA1085+003665999GD14991+0036659GE19AGL   +99999+99999GF199999999999003661999999MA1101425101405REMMET09201/05/23 19:51:01 METAR KTEB 060051Z 09005KT 7SM OVC012 08/06 A2995 RMK AO2 SLP142 T00780061
0191725025947412023010601067+40859-074056FM-16+0002KTEB V0200805N00265002445MN0112655N5+00785+00615999999ADDGA1085+002445999GD14991+0024459GE19AGL   +99999+99999GF199999999999002441999999MA1101425101405REMMET08501/05/23 20:06:01 SPECI KTEB 060106Z 08005KT 7SM OVC008 08/06 A2995 RMK AO2 T00780061
0209725025947412023010601517+40859-074056FM-15+0002KTEB V0200705N00215002745MN0112655N5+00785+00615101445ADDAA101000095GA1085+002745999GD14991+0027459GE19AGL   +99999+99999GF199999999999002741999999MA1101465101435REMMET09201/05/23 20:51:01 METAR KTEB 060151Z 07004KT 7SM OVC009 08/06 A2996 RMK AO2 SLP144 T00780061
0241725025947412023010602517+40859-074056FM-15+0002KTEB V0200905N00365002445MN0112655N5+00725+00565101465ADDAA101000095GA1085+002445999GD14991+0024451GE19AGL   +99999+99999GF199999999999002441999999MA1101465101435MD1390029+9999REMMET11001/05/23 21:51:01 METAR KTEB 060251Z 09007KT 7SM OVC008 07/06 A2996 RMK AO2 CIG 007V011 SLP146 T00720056 53002
0244725025947412023010603517+40859-074056FM-15+0002KTEB V0200605N00315002135MN0096565N5+00725+00505101475ADDAA101000025AU100001015AW1105GA1085+002135999GD14991+0021359GE19AGL   +99999+99999GF199999999999002131999999MA1101495101475REMMET11001/05/23 22:51:01 METAR KTEB 060351Z 06006KT 6SM BR OVC007 07/05 A2997 RMK AO2 RAB37E48 SLP147 P0000 T00720050
0181725025947412023010604496+40859-074056FM-16+0002KTEB V0201105N00365005185MN0112655N5+00705+00505999999ADDGA1045+002445999GA2085+005185999GD12991+0024459GD24991+0051859MA1101425101405REMMET09201/05/23 23:49:03 SPECI KTEB 060449Z 11007KT 7SM SCT008 OVC017 07/05 A2995 RMK AO2 FIBI (RK)
0283725025947412023010604517+40859-074056FM-15+0002KTEB V0201005N00415005185MN0112655N5+00675+00505101405ADDAA101000095GA1045+003055999GA2085+005185999GD12991+0030559GD24991+0051859GE19AGL   +99999+99999GF199999999999003051999999KA1240M+01001KA2240N+00671MA1101425101405REMMET10901/05/23 23:51:02 METAR KTEB 060451Z 10008KT 7SM SCT010 OVC017 07/05 A2995 RMK AO2 SLP140 T00670050 401000067
0922725025947412023010604596+40859-074056SOD  +0002KTEB V020999999999999999999999999999+99999+99999999999ADDAA124000395AT1AU14DZ  5AT2AU01FG  5AT3AU13BR  5KA1240M+01005KA2240N+00675MG1101254100914OE11240067111023445OE22240044709023535OE33240021999999995REMSOD73024 HR PRECIPITATION (IN):0.01  24 HR MAX TEMP (F):50 24 HR MAX TEMP TIME (LST):0133 24 HR MIN TEMP (F):44 24 HR MIN TEMP TIME (LST):2359 AVERAGE STATION PRESSURE:29.900 MINIMUM SEA LEVEL PRESSURE:29.80 TIME OF OCCURRENCE:0042 PEAK WIND SPEED (MPH):15  PEAK WIND DIR (DEG):110 PEAK WIND TIME (LST):2344  FASTEST 2MIN SPEED (MPH):10 FASTEST 2MIN DIR (DEG):90  FASTEST 2MIN TIME (LST):2353 AVERAGE WIND SPEED (MPH):4.9  24 HR AVG TEMP (F):47 HEATING DEGREE DAYS:18  COOLING DEGREE DAYS:0   LATEST DAY MAX TEMP (0700-1900 LST):49  LATEST NIGHT MIN TEMP(1900-0800 LST):48 HOURLY INCREMENTAL PRECIPITATION VALUES (IN):    T    0.01 T    0.00 0.00 0.00 0.00 0.00 0.00 0.00 0.00 0.00 0.00 0.00 0.00 T    T    0.00 0.00 0.00 0.00 T    0.00EQDR01     N7GJS072R02     N7GKS075
0196725025947412023010605017+40859-074056FM-16+0002KTEB V0201005N00465002445MN0112655N5+00675+00505999999ADDGA1085+002445999GD14991+0024459GE19AGL   +99999+99999GF199999999999002441999999MA1101425101405REMMET09001/06/23 00:01:02 SPECI KTEB 060501Z 10009KT 7SM OVC008 07/05 A2995 RMK AO2 T00670050 (RK)
0367725025947412023010605517+40859-074056FM-15+0002KTEB V0201105N00215002445MN0096565N5+00675+00445101415ADDAA101000025AA206000021AU110010015AU200001015AW1105AW2515GA1085+002445999GD14991+0024459GE19AGL   +99999+99999GF199999999999002441999999KA1060M+00831KA2060N+00671MA1101425101405MD1790059+9999MW1515REMMET14001/06/23 00:51:02 METAR KTEB 060551Z 11004KT 6SM -DZ BR OVC008 07/04 A2995 RMK AO2 DZB39 SLP141 P0000 60000 T00670044 10083 20067 57005 (RK)EQDQ01  00008PRCP06
0278725025947412023010606517+40859-074056FM-15+0002KTEB V0200305N00215002745MN0048285N5+00615+00445101465ADDAA101001895AU110020015AU200001015AW1105AW2615GA1085+002745999GD14991+0027459GE19AGL   +99999+99999GF199999999999002741999999MA1101465101435MW1615REMMET12101/06/23 01:51:02 METAR KTEB 060651Z 03004KT 3SM -RA BR OVC009 06/04 A2996 RMK AO2 DZE47RAB47 SLP146 P0006 T00610044 (RK)
0266725025947412023010607517+40859-074056FM-15+0002KTEB V0200505N00215002745MN0048285N5+00615+00445101535ADDAA101003695AU120020015AU200001015AW1105AW2625GA1085+002745999GD14991+0027459GE19AGL   +99999+99999GF199999999999002741999999MA1101525101505MW1655REMMET10901/06/23 02:51:02 METAR KTEB 060751Z 05004KT 3SM RA BR OVC009 06/04 A2998 RMK AO2 SLP153 P0014 T00610044 (RK)
0214725025947412023010608496+40859-074056FM-16+0002KTEB V0200405N00215006405MN0112655N5+00605+00405999999ADDAU110020015AW1615GA1045+001835999GA2085+006405999GD12991+0018359GD24991+0064059MA1101495101475MW1615REMMET10201/06/23 03:49:02 SPECI KTEB 060849Z 04004KT 7SM -RA SCT006 OVC021 06/04 A2997 RMK AO2 P0004 FIBI (RK)
0379725025947412023010608517+40859-074056FM-15+0002KTEB V0200405N00215005795MN0112655N5+00615+00445101475ADDAA101001095AA203006191AU110020015AW1615GA1025+001835999GA2075+005795999GA3085+007925999GD11991+0018359GD23991+0057959GD34991+0079259GE19AGL   +99999+99999GF199999999999001831999999MA1101495101475MD1090069+9999MW1615REMMET13301/06/23 03:51:02 METAR KTEB 060851Z 04004KT 7SM -RA FEW006 BKN019 OVC026 06/04 A2997 RMK AO2 SLP147 P0004 60024 T00610044 50006 (RK)EQDQ01  00608PRCP03
0317725025947412023010609167+40859-074056FM-16+0002KTEB V0200505N00215028965MN0160935N5+00565+00445999999ADDAA101000231AU110020015AW1615GA1045+007925999GA2045+013725999GA3085+028965999GD12991+0079259GD22991+0137259GD34991+0289659GE19AGL   +99999+99999GF199999999999007921999999MA1101465101435MW1615REMMET11501/06/23 04:16:02 SPECI KTEB 060916Z 05004KT 10SM -RA SCT026 SCT045 OVC095 06/04 A2996 RMK AO2 P0001 T00560044 (RK)
0303725025947412023010609517+40859-074056FM-15+0002KTEB V0209999C00005021345MN0160935N5+00565+00395101415ADDAA101000025GA1025+014335999GA2075+021345999GA3085+028965999GD11991+0143359GD23991+0213459GD34991+0289659GE19AGL   +99999+99999GF199999999999014331999999MA1101425101405REMMET12401/06/23 04:51:02 METAR KTEB 060951Z 00000KT 10SM FEW047 BKN070 OVC095 06/04 A2995 RMK AO2 RAE23 SLP141 P0001 T00560039 (RK)
0272725025947412023010610517+40859-074056FM-15+0002KTEB V0200905N002652200059N0160935N5+00565+00395101355ADDAA101000095GA1025+019815999GA2045+025915999GD11991+0198159GD22991+0259159GE19AGL   +99999+99999GF104995999999019811999999MA1101355101335REMMET10501/06/23 05:51:02 METAR KTEB 061051Z 09005KT 10SM FEW065 SCT085 06/04 A2993 RMK AO2 SLP135 T00560039 (RK)EQDD01      0ADE726
0143725025947412023010611496+40859-074056FM-16+0002KTEB V0209999C000052200059N0112655N5+00605+00405999999ADDGA1025+002445999GD11991+0024459MA1101425101405REMMET08501/06/23 06:49:02 SPECI KTEB 061149Z 00000KT 7SM FEW008 06/04 A2995 RMK AO2 FIBI (RK)
0341725025947412023010611517+40859-074056FM-15+0002KTEB V0209999C000052200059N0112655N5+00565+00395101435ADDAA101000095AA206006491AA324006491GA1045+002445999GD12991+0024459GE19AGL   +99999+99999GF104995999999002441999999KA1060M+00671KA2060N+00501MA1101465101435MD1390029+9999REMMET12701/06/23 06:51:02 METAR KTEB 061151Z 00000KT 7SM SCT008 06/04 A2996 RMK AO2 SLP143 60025 70025 T00560039 10067 20050 53002 (RK)EQDQ01  00638PRCP24D01      0ADE726
0216725025947412023010612027+40859-074056FM-16+0002KTEB V0209999C00005002745MN0080475N5+00565+00395999999ADDAU100001015AW1105GA1075+002745999GD13991+0027459GE19AGL   +99999+99999GF199999999999002741999999MA1101495101475REMMET09301/06/23 07:02:02 SPECI KTEB 061202Z 00000KT 5SM BR BKN009 06/04 A2997 RMK AO2 T00560039 (WL)
0253725025947412023010612517+40859-074056FM-15+0002KTEB V0209999C00005002445MN0080475N5+00615+00395101495ADDAA101000025AU110020015AW1615GA1085+002445999GD14991+0024459GE19AGL   +99999+99999GF199999999999002441999999MA1101495101475MW1615REMMET11301/06/23 07:51:02 METAR KTEB 061251Z 00000KT 5SM -RA OVC008 06/04 A2997 RMK AO2 RAB45 SLP149 P0000 T00610039 (WL)
0247725025947412023010613517+40859-074056FM-15+0002KTEB V0200305N00215002445MN0080475N5+00615+00445101485ADDAA101000025AU110020015AW1615GA1085+002445999GD14991+0024459GE19AGL   +99999+99999GF199999999999002441999999MA1101495101475MW1615REMMET10701/06/23 08:51:02 METAR KTEB 061351Z 03004KT 5SM -RA OVC008 06/04 A2997 RMK AO2 SLP148 P0000 T00610044 (WL)
0303725025947412023010614517+40859-074056FM-15+0002KTEB V0209999C00005001835MN0080475N5+00615+00445101555ADDAA101000025AA203000021AU110020015AW1615GA1085+001835999GD14991+0018359GE19AGL   +99999+99999GF199999999999001831999999MA1101565101535MD1390119+9999MW1615REMMET11901/06/23 09:51:02 METAR KTEB 061451Z 00000KT 5SM -RA OVC006 06/04 A2999 RMK AO2 SLP155 P0000 60000 T00610044 53011 (WL)EQDQ01  00008PRCP03
0247725025947412023010615517+40859-074056FM-15+0002KTEB V0209999V00265002445MN0080475N5+00675+00445101535ADDAA101000395AU110020015AW1615GA1085+002445999GD14991+0024459GE19AGL   +99999+99999GF199999999999002441999999MA1101525101505MW1615REMMET10701/06/23 10:51:02 METAR KTEB 061551Z VRB05KT 5SM -RA OVC008 07/04 A2998 RMK AO2 SLP153 P0001 T00670044 (WL)
0226725025947412023010616517+40859-074056FM-15+0002KTEB V0209999C00005001835MN0080475N5+00725+00505101445ADDAA101000025GA1085+001835999GD14991+0018359GE19AGL   +99999+99999GF199999999999001831999999MA1101465101435REMMET10901/06/23 11:51:02 METAR KTEB 061651Z 00000KT 5SM OVC006 07/05 A2996 RMK AO2 RAE01 SLP144 P0000 T00720050 (WL)
0246725025947412023010616587+40859-074056FM-16+0002KTEB V0209999C00005003055MN0080475N5+00785+00565999999ADDGA1075+003055999GA2085+006715999GD13991+0030551GD24991+0067159GE19AGL   +99999+99999GF199999999999003051999999MA1101465101435REMMET10901/06/23 11:58:02 SPECI KTEB 061658Z 00000KT 5SM BKN010 OVC022 08/06 A2996 RMK AO2 CIG 008V013 T00780056 (WL)
0272725025947412023010617247+40859-074056FM-16+0002KTEB V0209999C00005006405MN0080475N5+00785+00565999999ADDGA1045+003965999GA2075+006405999GA3075+018295999GD12991+0039659GD23991+0064059GD33991+0182959GE19AGL   +99999+99999GF199999999999003961999999MA1101425101405REMMET10401/06/23 12:24:02 SPECI KTEB 061724Z 00000KT 5SM SCT013 BKN021 BKN060 08/06 A2995 RMK AO2 T00780056 (WL)
0327725025947412023010617517+40859-074056FM-15+0002KTEB V0202905N00265006405MN0080475N5+00835+00445101365ADDAA101000095AA206000391GA1045+004575999GA2075+006405999GD12991+0045759GD23991+0064059GE19AGL   +99999+99999GF199999999999004571999999KA1060M+00831KA2060N+00561MA1101355101335MD1890189+9999REMMET12801/06/23 12:51:02 METAR KTEB 061751Z 29005KT 5SM SCT015 BKN021 08/04 A2993 RMK AO2 SLP136 60001 T00830044 10083 20056 58018 (SA)
0273725025947412023010617587+40859-074056FM-16+0002KTEB V0202705N00265014945MN0160935N5+00835+00445999999ADDGA1025+007015999GA2075+014945999GA3085+030485999GD11991+0070159GD23991+0149459GD34991+0304859GE19AGL   +99999+99999GF199999999999007011999999MA1101355101335REMMET10501/06/23 12:58:02 SPECI KTEB 061758Z 27005KT 10SM FEW023 BKN049 OVC100 08/04 A2993 RMK AO2 T00830044 (SA)
0215725025947412023010618517+40859-074056FM-15+0002KTEB V0202605N00265009145MN0160935N5+00895+00335101365ADDAA101000095GA1075+009145999GD13991+0091459GE19AGL   +99999+99999GF199999999999009141999999MA1101355101335REMMET09801/06/23 13:51:02 METAR KTEB 061851Z 26005KT 10SM BKN030 09/03 A2993 RMK AO2 SLP136 T00890033 (SA)
0253725025947412023010619517+40859-074056FM-15+0002KTEB V0202805N00315018295MN0160935N5+00895+00285101405ADDAA101000095GA1045+013415999GA2085+018295999GD12991+0134159GD24991+0182959GE19AGL   +99999+99999GF199999999999013411999999MA1101425101405REMMET10501/06/23 14:51:02 METAR KTEB 061951Z 28006KT 10SM SCT044 OVC060 09/03 A2995 RMK AO2 SLP140 T00890028 (SA)
0311725025947412023010620517+40859-074056FM-15+0002KTEB V0202705N00515018295MN0160935N5+00785+00285101485ADDAA101000095GA1025+009145999GA2075+018295999GA3085+021345999GD11991+0091459GD23991+0182959GD34991+0213459GE19AGL   +99999+99999GF199999999999009141999999MA1101495101475MD1390129+9999REMMET11801/06/23 15:51:02 METAR KTEB 062051Z 27010KT 10SM FEW030 BKN060 OVC070 08/03 A2997 RMK AO2 SLP148 T00780028 53012 (DK)
0215725025947412023010621517+40859-074056FM-15+0002KTEB V0202805N00465024385MN0160935N5+00725+00225101545ADDAA101000095GA1075+024385999GD13991+0243859GE19AGL   +99999+99999GF199999999999024381999999MA1101565101535REMMET09801/06/23 16:51:02 METAR KTEB 062151Z 28009KT 10SM BKN080 07/02 A2999 RMK AO2 SLP154 T00720022 (DK)
0302725025947412023010622517+40859-074056FM-15+0002KTEB V0203005N00315014025MN0160935N5+00675+00115101635ADDAA101000095GA1045+010675999GA2075+014025999GA3075+036585999GD12991+0106759GD23991+0140259GD33991+0365859GE19AGL   +99999+99999GF199999999999010671999999MA1101635101605OC100985REMMET11501/06/23 17:51:02 METAR KTEB 062251Z 30006G19KT 10SM SCT035 BKN046 BKN120 07/01 A3001 RMK AO2 SLP163 T00670011 (DK)
0330725025947412023010623517+40859-074056FM-15+0002KTEB V0203105N003152200059N0160935N5+00615+00005101745ADDAA101000095GA1025+022865999GA2045+033535999GD11991+0228659GD22991+0335359GE19AGL   +99999+99999GF104995999999022861999999KA1060M+01001KA2060N+00611MA1101765101745MD1390269+9999REMMET12301/06/23 18:51:02 METAR KTEB 062351Z 31006KT 10SM FEW075 SCT110 06/00 A3005 RMK AO2 SLP174 T00610000 10100 20061 53026 (DK)EQDD01      0ADE726
0211725025947412023010700517+40859-074056FM-15+0002KTEB V0203005N00575024385MN0160935N5+00565-00065101825ADDAA101000095GA1085+024385999GD14991+0243859GE19AGL   +99999+99999GF199999999999024381999999MA1101835101805REMMET09401/06/23 19:51:01 METAR KTEB 070051Z 30011KT 10SM OVC080 06/M01 A3007 RMK AO2 SLP182 T00561006
0230725025947412023010701517+40859-074056FM-15+0002KTEB V0203105N005752200059N0160935N5+00505-00115101905ADDAA101000095GA1045+027435999GD12991+0274359GE19AGL   +99999+99999GF104995999999027431999999MA1101905101875REMMET09401/06/23 20:51:01 METAR KTEB 070151Z 31011KT 10SM SCT090 05/M01 A3009 RMK AO2 SLP190 T00501011EQDD01      0ADE726
0231725025947412023010702517+40859-074056FM-15+0002KTEB V0203005N00265022865MN0160935N5+00445-00115101945ADDAA101000095GA1085+022865999GD14991+0228659GE19AGL   +99999+99999GF199999999999022861999999MA1101935101915MD1190209+9999REMMET10001/06/23 21:51:01 METAR KTEB 070251Z 30005KT 10SM OVC075 04/M01 A3010 RMK AO2 SLP194 T00441011 51020
0268725025947412023010703517+40859-074056FM-15+0002KTEB V0202705N003152200059N0160935N5+00395-00115101985ADDAA101000095GA1025+018295999GA2045+022865999GD11991+0182959GD22991+0228659GE19AGL   +99999+99999GF104995999999018291999999MA1102005101975REMMET10101/06/23 22:51:02 METAR KTEB 070351Z 27006KT 10SM FEW060 SCT075 04/M01 A3012 RMK AO2 SLP198 T00391011EQDD01      0ADE726
0222725025947412023010704517+40859-074056FM-15+0002KTEB V0202905N003152200059N0160935N5+00285-00175101955ADDAA101000095GA1005+999999999GD10991+9999999GF100991999999999999999999KA1240M+01001KA2240N+00281MA1101965101945REMMET10101/06/23 23:51:02 METAR KTEB 070451Z 29006KT 10SM CLR 03/M02 A3011 RMK AO2 SLP195 T00281017 401000028
0922725025947412023010704596+40859-074056SOD  +0002KTEB V020999999999999999999999999999+99999+99999999999ADDAA124006695AT1AU16RA  5AT2AU14DZ  5AT3AU13BR  5KA1240M+01005KA2240N+00285MG1101464101354OE11240098331017425OE22240071531018095OE33240025099999995REMSOD73024 HR PRECIPITATION (IN):0.26  24 HR MAX TEMP (F):50 24 HR MAX TEMP TIME (LST):1324 24 HR MIN TEMP (F):37 24 HR MIN TEMP TIME (LST):2359 AVERAGE STATION PRESSURE:29.960 MINIMUM SEA LEVEL PRESSURE:29.93 TIME OF OCCURRENCE:1405 PEAK WIND SPEED (MPH):22  PEAK WIND DIR (DEG):310 PEAK WIND TIME (LST):1742  FASTEST 2MIN SPEED (MPH):16 FASTEST 2MIN DIR (DEG):310 FASTEST 2MIN TIME (LST):1809 AVERAGE WIND SPEED (MPH):5.6  24 HR AVG TEMP (F):44 HEATING DEGREE DAYS:21  COOLING DEGREE DAYS:0   LATEST DAY MAX TEMP (0700-1900 LST):50  LATEST NIGHT MIN TEMP(1900-0800 LST):41 HOURLY INCREMENTAL PRECIPITATION VALUES (IN):    0.07 0.14 0.04 T    0.00 0.00 T    T    T    0.01 T    0.00 0.00 0.00 0.00 0.00 0.00 0.00 0.00 0.00 0.00 0.00 0.00EQDR01     N7GJS072R02     N7GKS075
0244725025947412023010705517+40859-074056FM-15+0002KTEB V0202705N002152200059N0160935N5+00175-00225101945ADDAA101000095GA1005+999999999GD10991+9999999GF100991999999999999999999KA1060M+00611KA2060N+00171MA1101935101915MD1090009+9999REMMET10901/07/23 00:51:02 METAR KTEB 070551Z 27004KT 10SM CLR 02/M02 A3010 RMK AO2 SLP194 T00171022 10061 20017 50000
0186725025947412023010706517+40859-074056FM-15+0002KTEB V0209999C000052200059N0160935N5+00115-00335101955ADDAA101000095GA1005+999999999GD10991+9999999GF100991999999999999999999MA1101965101945REMMET09101/07/23 01:51:02 METAR KTEB 070651Z 00000KT 10SM CLR 01/M03 A3011 RMK AO2 SLP195 T00111033
0191725025947412023010707517+40859-074056FM-15+0002KTEB V0202805N001552200059N0160935N5+00115-00285101955ADDAA101000095GA1005+999999999GD10991+9999999GF100991999999999999999999MA1101965101945REMMET09601/07/23 02:51:02 METAR KTEB 070751Z 28003KT 10SM CLR 01/M03 A3011 RMK AO2 SLP195 T00111028 (VO)
0211725025947412023010708517+40859-074056FM-15+0002KTEB V0202405N002152200059N0160935N5+00175-00225101955ADDAA101000095GA1005+999999999GD10991+9999999GF100991999999999999999999MA1101965101945MD1190019+9999REMMET10201/07/23 03:51:02 METAR KTEB 070851Z 24004KT 10SM CLR 02/M02 A3011 RMK AO2 SLP195 T00171022 51001 (VO)
0191725025947412023010709517+40859-074056FM-15+0002KTEB V0202705N002152200059N0160935N5+00115-00225101955ADDAA101000095GA1005+999999999GD10991+9999999GF100991999999999999999999MA1101965101945REMMET09601/07/23 04:51:02 METAR KTEB 070951Z 27004KT 10SM CLR 01/M02 A3011 RMK AO2 SLP195 T00111022 (VO)
0191725025947412023010710517+40859-074056FM-15+0002KTEB V0202705N001552200059N0160935N5+00115-00225101985ADDAA101000095GA1005+999999999GD10991+9999999GF100991999999999999999999MA1102005101975REMMET09601/07/23 05:51:02 METAR KTEB 071051Z 27003KT 10SM CLR 01/M02 A3012 RMK AO2 SLP198 T00111022 (VO)
0310725025947412023010711517+40859-074056FM-15+0002KTEB V0201305N001552200059N0160935N5+00065-00225102025ADDAA101000095AA224000391GA1025+019815999GD11991+0198159GE19AGL   +99999+99999GF102995999999019811999999KA1060M+00221KA2060N+00001MA1102035102015MD1390069+9999REMMET12301/07/23 06:51:02 METAR KTEB 071151Z 13003KT 10SM FEW065 01/M02 A3013 RMK AO2 SLP202 70001 T00061022 10022 20000 53006 (VO)EQDD01      0ADE726
0216725025947412023010712517+40859-074056FM-15+0002KTEB V0209999C00005021345MN0160935N5+00065-00175102045ADDAA101000095GA1085+021345999GD14991+0213459GE19AGL   +99999+99999GF199999999999021341999999MA1102075102045REMMET09901/07/23 07:51:02 METAR KTEB 071251Z 00000KT 10SM OVC070 01/M02 A3014 RMK AO2 SLP204 T00061017 (BR)
0216725025947412023010713517+40859-074056FM-15+0002KTEB V0209999C00005021345MN0160935N5+00225-00175102095ADDAA101000095GA1085+021345999GD14991+0213459GE19AGL   +99999+99999GF199999999999021341999999MA1102105102085REMMET09901/07/23 08:51:02 METAR KTEB 071351Z 00000KT 10SM OVC070 02/M02 A3015 RMK AO2 SLP209 T00221017 (BR)
0236725025947412023010714517+40859-074056FM-15+0002KTEB V0203205N00155021345MN0160935N5+00445-00175102135ADDAA101000095GA1085+021345999GD14991+0213459GE19AGL   +99999+99999GF199999999999021341999999MA1102135102115MD1390129+9999REMMET10501/07/23 09:51:02 METAR KTEB 071451Z 32003KT 10SM OVC070 04/M02 A3016 RMK AO2 SLP213 T00441017 53012 (BR)
0216725025947412023010715517+40859-074056FM-15+0002KTEB V0203405N00315021345MN0160935N5+00505-00175102085ADDAA101000095GA1085+021345999GD14991+0213459GE19AGL   +99999+99999GF199999999999021341999999MA1102105102085REMMET09901/07/23 10:51:02 METAR KTEB 071551Z 34006KT 10SM OVC070 05/M02 A3015 RMK AO2 SLP208 T00501017 (BR)
0216725025947412023010716517+40859-074056FM-15+0002KTEB V0203205N00575021345MN0160935N5+00565-00225101995ADDAA101000095GA1085+021345999GD14991+0213459GE19AGL   +99999+99999GF199999999999021341999999MA1102005101975REMMET09901/07/23 11:51:02 METAR KTEB 071651Z 32011KT 10SM OVC070 06/M02 A3012 RMK AO2 SLP199 T00561022 (BR)
0274725025947412023010717517+40859-074056FM-15+0002KTEB V0203105N00675021345MN0160935N5+00615-00175101955ADDAA101000095GA1085+021345999GD14991+0213459GE19AGL   +99999+99999GF199999999999021341999999KA1060M+00611KA2060N-00061MA1101965101945MD1690189+9999REMMET11701/07/23 12:51:02 METAR KTEB 071751Z 31013KT 10SM OVC070 06/M02 A3011 RMK AO2 SLP195 T00611017 10061 21006 56018 (BR)
0216725025947412023010718517+40859-074056FM-15+0002KTEB V0203205N00575022865MN0160935N5+00615-00175101965ADDAA101000095GA1085+022865999GD14991+0228659GE19AGL   +99999+99999GF199999999999022861999999MA1101965101945REMMET09901/07/23 13:51:02 METAR KTEB 071851Z 32011KT 10SM OVC075 06/M02 A3011 RMK AO2 SLP196 T00611017 (BR)
0254725025947412023010719517+40859-074056FM-15+0002KTEB V0203105N00415024385MN0160935N5+00615-00175101995ADDAA101000095GA1025+011585999GA2085+024385999GD11991+0115859GD24991+0243859GE19AGL   +99999+99999GF199999999999011581999999MA1102005101975REMMET10601/07/23 14:51:02 METAR KTEB 071951Z 31008KT 10SM FEW038 OVC080 06/M02 A3012 RMK AO2 SLP199 T00611017 (BR)
0236725025947412023010720517+40859-074056FM-15+0002KTEB V0203205N00365024385MN0160935N5+00615-00175102025ADDAA101000095GA1085+024385999GD14991+0243859GE19AGL   +99999+99999GF199999999999024381999999MA1102035102015MD1390069+9999REMMET10501/07/23 15:51:02 METAR KTEB 072051Z 32007KT 10SM OVC080 06/M02 A3013 RMK AO2 SLP202 T00611017 53006 (DK)
0191725025947412023010721517+40859-074056FM-15+0002KTEB V0202905N003152200059N0160935N5+00505-00175102045ADDAA101000095GA1005+999999999GD10991+9999999GF100991999999999999999999MA1102035102015REMMET09601/07/23 16:51:02 METAR KTEB 072151Z 29006KT 10SM CLR 05/M02 A3013 RMK AO2 SLP204 T00501017 (SA)
0191725025947412023010722517+40859-074056FM-15+0002KTEB V0202805N003152200059N0160935N5+00505-00225102155ADDAA101000095GA1005+999999999GD10991+9999999GF100991999999999999999999MA1102175102145REMMET09601/07/23 17:51:02 METAR KTEB 072251Z 28006KT 10SM CLR 05/M02 A3017 RMK AO2 SLP215 T00501022 (SA)
0249725025947412023010723517+40859-074056FM-15+0002KTEB V0202805N002652200059N0160935N5+00395-00285102215ADDAA101000095GA1005+999999999GD10991+9999999GF100991999999999999999999KA1060M+00611KA2060N+00391MA1102245102215MD1390199+9999REMMET11401/07/23 18:51:02 METAR KTEB 072351Z 28005KT 10SM CLR 04/M03 A3019 RMK AO2 SLP221 T00391028 10061 20039 53019 (SA)
0186725025947412023010800517+40859-074056FM-15+0002KTEB V0202905N002652200059N0160935N5+00395-00175102295ADDAA101000095GA1005+999999999GD10991+9999999GF100991999999999999999999MA1102305102285REMMET09101/07/23 19:51:01 METAR KTEB 080051Z 29005KT 10SM CLR 04/M02 A3021 RMK AO2 SLP229 T00391017
0186725025947412023010801517+40859-074056FM-15+0002KTEB V0203005N003652200059N0160935N5+00335-00225102325ADDAA101000095GA1005+999999999GD10991+9999999GF100991999999999999999999MA1102345102315REMMET09101/07/23 20:51:01 METAR KTEB 080151Z 30007KT 10SM CLR 03/M02 A3022 RMK AO2 SLP232 T00331022
0206725025947412023010802517+40859-074056FM-15+0002KTEB V0203005N002652200059N0160935N5+00335-00285102335ADDAA101000095GA1005+999999999GD10991+9999999GF100991999999999999999999MA1102345102315MD1190129+9999REMMET09701/07/23 21:51:01 METAR KTEB 080251Z 30005KT 10SM CLR 03/M03 A3022 RMK AO2 SLP233 T00331028 51012
0186725025947412023010803517+40859-074056FM-15+0002KTEB V0203205N005752200059N0160935N5+00335-00395102375ADDAA101000095GA1005+999999999GD10991+9999999GF100991999999999999999999MA1102375102355REMMET09101/07/23 22:51:02 METAR KTEB 080351Z 32011KT 10SM CLR 03/M04 A3023 RMK AO2 SLP237 T00331039
0222725025947412023010804517+40859-074056FM-15+0002KTEB V0203305N004152200059N0160935N5+00285-00395102395ADDAA101000095GA1005+999999999GD10991+9999999GF100991999999999999999999KA1240M+00611KA2240N-00061MA1102405102385REMMET10101/07/23 23:51:02 METAR KTEB 080451Z 33008KT 10SM CLR 03/M04 A3024 RMK AO2 SLP239 T00281039 400611006
0886725025947412023010804596+40859-074056SOD  +0002KTEB V020999999999999999999999999999+99999+99999999999ADDAA124000095KA1240M+00615KA2240N-00055MG1102004101934OE11240098330014225OE22240071530013485OE33240028699999995REMSOD73024 HR PRECIPITATION (IN):0.00  24 HR MAX TEMP (F):43 24 HR MAX TEMP TIME (LST):1552 24 HR MIN TEMP (F):31 24 HR MIN TEMP TIME (LST):0708 AVERAGE STATION PRESSURE:30.120 MINIMUM SEA LEVEL PRESSURE:30.10 TIME OF OCCURRENCE:0521 PEAK WIND SPEED (MPH):22  PEAK WIND DIR (DEG):300 PEAK WIND TIME (LST):1422  FASTEST 2MIN SPEED (MPH):16 FASTEST 2MIN DIR (DEG):300 FASTEST 2MIN TIME (LST):1348 AVERAGE WIND SPEED (MPH):6.4  24 HR AVG TEMP (F):37 HEATING DEGREE DAYS:28  COOLING DEGREE DAYS:0   LATEST DAY MAX TEMP (0700-1900 LST):43  LATEST NIGHT MIN TEMP(1900-0800 LST):31 HOURLY INCREMENTAL PRECIPITATION VALUES (IN):.00 0.00 0.00 0.00 0.00 0.00 0.00 0.00 0.00 0.00 0.00 0.00 0.00 0.00 0.00 0.00 0.00 0.00 0.00 0.00 0.00 0.00 0.00 0.00EQDR01     N7GJS072R02     N7GKS075
0249725025947412023010805517+40859-074056FM-15+0002KTEB V0203105N003152200059N0160935N5+00225-00395102415ADDAA101000095GA1005+999999999GD10991+9999999GF100991999999999999999999KA1060M+00391KA2060N+00221MA1102405102385MD1190089+9999REMMET11401/08/23 00:51:02 METAR KTEB 080551Z 31006KT 10SM CLR 02/M04 A3024 RMK AO2 SLP241 T00221039 10039 20022 51008 (VO)
0202725025947412023010806517+40859-074056FM-15+0002KTEB V0203205N005752200059N0160935N5+00225-00445102445ADDAA101000095GA1005+999999999GD10991+9999999GF100991999999999999999999MA1102445102415OC100825REMMET09901/08/23 01:51:02 METAR KTEB 080651Z 32011G16KT 10SM CLR 02/M04 A3025 RMK AO2 SLP244 T00221044 (VO)
