0216725025947412024010100517+40859-074056FM-15+0002KTEB V0202305N00315014945MN0160935N5+00505-00335101575ADDAA101000095GA1085+014945999GD14991+0149459GE19AGL   +99999+99999GF199999999999014941999999MA1101595101575REMMET09912/31/23 19:51:03 METAR KTEB 010051Z 23006KT 10SM OVC049 05/M03 A3000 RMK AO2 SLP157 T00501033 (BR)
0216725025947412024010101517+40859-074056FM-15+0002KTEB V0202405N00265015245MN0160935N5+00505-00285101565ADDAA101000095GA1085+015245999GD14991+0152459GE19AGL   +99999+99999GF199999999999015241999999MA1101565101535REMMET09912/31/23 20:51:03 METAR KTEB 010151Z 24005KT 10SM OVC050 05/M03 A2999 RMK AO2 SLP156 T00501028 (BR)
0236725025947412024010102517+40859-074056FM-15+0002KTEB V0202305N00265014945MN0160935N5+00445-00225101555ADDAA101000095GA1085+014945999GD14991+0149459GE19AGL   +99999+99999GF199999999999014941999999MA1101565101535MD1890019+9999REMMET10512/31/23 21:51:03 METAR KTEB 010251Z 23005KT 10SM OVC049 04/M02 A2999 RMK AO2 SLP155 T00441022 58001 (BR)
0216725025947412024010103517+40859-074056FM-15+0002KTEB V0202405N00315014635MN0160935N5+00505-00175101565ADDAA101000095GA1085+014635999GD14991+0146359GE19AGL   +99999+99999GF199999999999014631999999MA1101565101535REMMET09912/31/23 22:51:03 METAR KTEB 010351Z 24006KT 10SM OVC048 05/M02 A2999 RMK AO2 SLP156 T00501017 (BR)
0318725025947412024010104517+40859-074056FM-15+0002KTEB V0202505N00315021345MN0160935N5+00505-00225101585ADDAA101000095GA1045+016765999GA2085+021345999GD12991+0167659GD24991+0213459GE19AGL   +99999+99999GF199999999999016761999999KA1240M+00561KA2240N+00281MA1101595101575REMMET14412/31/23 23:51:03 METAR KTEB 010451Z 25006KT 10SM SCT055 OVC070 05/M02 A3000 RMK AO2 SLP158 HAPPY NEW YEAR FROM TEB OPS T00501022 400560028 (SA)
0886725025947412024010104596+40859-074056SOD  +0002KTEB V020999999999999999999999999999+99999+99999999999ADDAA124000095KA1240M+00565KA2240N+00285MG1101324101324OE11240098332005265OE22240067133005275OE33240033599999995REMSOD73024 HR PRECIPITATION (IN):0.00  24 HR MAX TEMP (F):42 24 HR MAX TEMP TIME (LST):1720 24 HR MIN TEMP (F):37 24 HR MIN TEMP TIME (LST):0001 AVERAGE STATION PRESSURE:29.920 MINIMUM SEA LEVEL PRESSURE:29.92 TIME OF OCCURRENCE:0037 PEAK WIND SPEED (MPH):22  PEAK WIND DIR (DEG):320 PEAK WIND TIME (LST):0526  FASTEST 2MIN SPEED (MPH):15 FASTEST 2MIN DIR (DEG):330 FASTEST 2MIN TIME (LST):0527 AVERAGE WIND SPEED (MPH):7.5  24 HR AVG TEMP (F):40 HEATING DEGREE DAYS:25  COOLING DEGREE DAYS:0   LATEST DAY MAX TEMP (0700-1900 LST):42  LATEST NIGHT MIN TEMP(1900-0800 LST):36 HOURLY INCREMENTAL PRECIPITATION VALUES (IN):.00 0.00 0.00 0.00 0.00 0.00 0.00 0.00 0.00 0.00 0.00 0.00 0.00 0.00 0.00 0.00 0.00 0.00 0.00 0.00 0.00 0.00 0.00 0.00EQDR01     N7GJS072R02     N7GKS075
1372725025947412024010104596+40859-074056SOM  +0002KTEB V020999999999999999999999999999+99999+99999999999ADDAB10002096AD10002092829999999996AE1016006006006AH1005000392903255AH2010000592809345AH3015000592809345AH4020000592809345AH5030000592809585AH6045000892809585AI1060001092809586AI2080001092809585AI3100001092809585AI4120001092809586AI5150001092809585AI6180001092809586KB1744N+00895KB2744M+09725KB3744A+05335KC1N9-01161799995KC2M9+01771899995KD1744H07205KD2744C00005KE1005005155005MH1101834101964MK1103931409455100201103125REMSOM796PCP MTOT:0.08 PCP GT 24HRS:0.08 DATE(S):28-29 DAYS W/PCP >=.01:1  DAYS W/PCP >=.10:0  DAYS W/ PCP >=.50:0 DAYS W/PCP >=1.00:0 MSDP AMTS W/DATE-TIME TAGS:MIN:5 0.01  29/0325 MIN:10 0.02  28/0934 MIN:15 0.02  28/0934 MIN:20 0.02  28/0934 MIN:30 0.02  28/0958 MIN:45 0.03  28/0958 MIN:60 0.04  28/0958 MIN:80 0.04  28/0958 MIN:100 0.04  28/0958 MIN:120 0.04  28/0958 MIN:150 0.04  28/0958 MIN:180 0.04  28/0958 AVG DLY MIN:33.6  AVG DLY MAX:49.5  AVG MLY TMP:41.6  MIN TMP:11 DATE(S):17 MAX TMP:64  DATE(S):18 DAYS MAX <=32:0 DAYS MAX >=90:0  DAYS MIN <=32:15 DAYS MIN  <=0:0  AVG STP:30.070 LWST SLP:29.59 DATE/TIME:110312 HGST SLP:30.69 DATE/TIME:140945 HDD MTH TOT:720 DEP NORM:-2553 SEASON(JUL 1-JUN 30):1540 DEP NORM:-25536 CDD MTH TOT:0 DEP NORM:-2553 SEASON(JAN 1-DEC 31):1116 DEP NORM:-25536EQDR01  0.087ABP070R02  0.087ADP081R03     17AE1100R04     07AE2103R05     07AE3106R06     07AE4109R07  0.047A07077R08  0.047A10078R09  0.047A12079
0387725025947412024010105517+40859-074056FM-15+0002KTEB V0209999V00215019815MN0160935N5+00445-00175101575ADDAA101000025AA206000021AU110020015AW1615GA1075+019815999GA2085+024385999GD13991+0198159GD24991+0243859GE19AGL   +99999+99999GF199999999999019811999999KA1060M+00501KA2060N+00441MA1101565101535MD1090019+9999MW1615REMMET14601/01/24 00:51:02 METAR KTEB 010551Z VRB04KT 10SM -RA BKN065 OVC080 04/M02 A2999 RMK AO2 RAB05 SLP157 P0000 60000 T00441017 10050 20044 50001 (SA)EQDQ01  00008PRCP06
0266725025947412024010106517+40859-074056FM-15+0002KTEB V0202705N00215019815MN0160935N5+00395-00175101555ADDAA101000025GA1025+012505999GA2085+019815999GD11991+0125059GD24991+0198159GE19AGL   +99999+99999GF199999999999012501999999MA1101565101535REMMET11801/01/24 01:51:02 METAR KTEB 010651Z 27004KT 10SM FEW041 OVC065 04/M02 A2999 RMK AO2 RAE23 SLP155 P0000 T00391017 (SA)
0216725025947412024010107517+40859-074056FM-15+0002KTEB V0202905N00265018295MN0160935N5+00395-00115101555ADDAA101000095GA1085+018295999GD14991+0182959GE19AGL   +99999+99999GF199999999999018291999999MA1101565101535REMMET09901/01/24 02:51:02 METAR KTEB 010751Z 29005KT 10SM OVC060 04/M01 A2999 RMK AO2 SLP155 T00391011 (SA)
0291725025947412024010108517+40859-074056FM-15+0002KTEB V0203105N00155033535MN0160935N5+00395-00065101505ADDAA101000095AA203000021GA1025+012805999GA2075+033535999GD11991+0128059GD23991+0335359GE19AGL   +99999+99999GF199999999999012801999999MA1101495101475MD1890079+9999REMMET11801/01/24 03:51:02 METAR KTEB 010851Z 31003KT 10SM FEW042 BKN110 04/M01 A2997 RMK AO2 SLP150 60000 T00391006 58007 (SA)
0254725025947412024010109517+40859-074056FM-15+0002KTEB V0202105N00155033535MN0160935N5+00335-00065101525ADDAA101000095GA1045+011285999GA2085+033535999GD12991+0112859GD24991+0335359GE19AGL   +99999+99999GF199999999999011281999999MA1101525101505REMMET10601/01/24 04:51:02 METAR KTEB 010951Z 21003KT 10SM SCT037 OVC110 03/M01 A2998 RMK AO2 SLP152 T00331006 (SA)
0215725025947412024010110517+40859-074056FM-15+0002KTEB V0202805N00155010675MN0160935N5+00395+00005101565ADDAA101000025GA1085+010675999GD14991+0106759GE19AGL   +99999+99999GF199999999999010671999999MA1101565101535REMMET09801/01/24 05:51:02 METAR KTEB 011051Z 28003KT 10SM OVC035 04/00 A2999 RMK AO2 SLP156 T00390000 (SA)
0287725025947412024010111297+40859-074056FM-16+0002KTEB V0202705N00155008535MN0160935N5+00335+00005999999ADDAA101000021AU110020015AW1615GA1075+008535999GA2085+011895999GD13991+0085359GD24991+0118959GE19AGL   +99999+99999GF199999999999008531999999MA1101595101575MW1615REMMET11601/01/24 06:29:02 SPECI KTEB 011129Z 27003KT 10SM -RA BKN028 OVC039 03/00 A3000 RMK AO2 RAB1053 P0000 T00330000 (SA)
0394725025947412024010111517+40859-074056FM-15+0002KTEB V0209999C00005007625MN0144845N5+00335+00065101595ADDAA101000025AA206000021AU120010015AW1525GA1075+007625999GA2085+009455999GD13991+0076259GD24991+0094559GE19AGL   +99999+99999GF199999999999007621999999KA1060M+00441KA2060N+00331MA1101595101575MD1390099+9999MW1555REMMET15301/01/24 06:51:02 METAR KTEB 011151Z 00000KT 9SM DZ BKN025 OVC031 03/01 A3000 RMK AO2 RAB1053E34DZB34 SLP159 P0000 60000 T00330006 10044 20033 53009 (SA)EQDQ01  00008PRCP06
0278725025947412024010112067+40859-074056FM-16+0002KTEB V0209999C00005009455MN0160935N5+00335+00065999999ADDAA101000021AU120010015AW1525GA1045+007625999GA2085+009455999GD12991+0076259GD24991+0094559GE19AGL   +99999+99999GF199999999999007621999999MA1101595101575MW1555REMMET10701/01/24 07:06:02 SPECI KTEB 011206Z 00000KT 10SM DZ SCT025 OVC031 03/01 A3000 RMK AO2 P0000 T00330006 (SA)
0240725025947412024010112307+40859-074056FM-16+0002KTEB V0202105N00215008845MN0160935N5+00335+00115999999ADDAA101000021AU120010015AW1525GA1085+008845999GD14991+0088459GE19AGL   +99999+99999GF199999999999008841999999MA1101635101605MW1555REMMET10001/01/24 07:30:02 SPECI KTEB 011230Z 21004KT 10SM DZ OVC029 03/01 A3001 RMK AO2 P0000 T00330011 (SA)
0240725025947412024010112407+40859-074056FM-16+0002KTEB V0202205N00215009145MN0160935N5+00335+00115999999ADDAA101000021AU120010015AW1525GA1085+009145999GD14991+0091459GE19AGL   +99999+99999GF199999999999009141999999MA1101635101605MW1555REMMET10001/01/24 07:40:02 SPECI KTEB 011240Z 22004KT 10SM DZ OVC030 03/01 A3001 RMK AO2 P0000 T00330011 (SA)
0259725025947412024010112517+40859-074056FM-15+0002KTEB V0202105N00215009145MN0160935N5+00335+00115101645ADDAA101000025AU110020015AW1615GA1085+009145999GD14991+0091459GE19AGL   +99999+99999GF199999999999009141999999MA1101665101645MW1615REMMET11901/01/24 07:51:02 METAR KTEB 011251Z 21004KT 10SM -RA OVC030 03/01 A3002 RMK AO2 DZE49RAB49 SLP164 P0000 T00330011 (SA)
0262725025947412024010113517+40859-074056FM-15+0002KTEB V0209999C00005010975MN0160935N5+00395+00115101705ADDAA101000095GA1075+010975999GA2085+018295999GD13991+0109759GD24991+0182959GE19AGL   +99999+99999GF199999999999010971999999MA1101695101675REMMET11401/01/24 08:51:02 METAR KTEB 011351Z 00000KT 10SM BKN036 OVC060 04/01 A3003 RMK AO2 RAE1255 SLP170 P0000 T00390011
0324725025947412024010114517+40859-074056FM-15+0002KTEB V0209999C00005022865MN0160935N5+00505+00115101705ADDAA101000025AA203000021GA1025+016765999GA2085+022865999GD11991+0167659GD24991+0228659GE19AGL   +99999+99999GF199999999999016761999999MA1101695101675MD1190119+9999REMMET13201/01/24 09:51:02 METAR KTEB 011451Z 00000KT 10SM FEW055 OVC075 05/01 A3003 RMK AO2 RAB01E15 SLP170 P0000 60000 T00500011 51011 (SW)EQDQ01  00008PRCP03
0190725025947412024010115517+40859-074056FM-15+0002KTEB V0209999C000052200059N0160935N5+00615+00005101675ADDAA101000095GA1005+999999999GD10991+9999999GF100991999999999999999999MA1101695101675REMMET09501/01/24 10:51:02 METAR KTEB 011551Z 00000KT 10SM CLR 06/00 A3003 RMK AO2 SLP167 T00610000 (SW)
0197725025947412024010116227+40859-074056FM-16+0002KTEB V0209999C00005007325MN0160935N5+00615+00065999999ADDGA1075+007325999GD13991+0073259GE19AGL   +99999+99999GF199999999999007321999999MA1101665101645REMMET09101/01/24 11:22:02 SPECI KTEB 011622Z 00000KT 10SM BKN024 06/01 A3002 RMK AO2 T00610006 (SW)
0217725025947412024010116427+40859-074056FM-16+0002KTEB V0200105N002652200059N0160935N5+00675-00065999999ADDGA1045+007625999GD12991+0076259GE19AGL   +99999+99999GF104995999999007621999999MA1101635101605REMMET09201/01/24 11:42:02 SPECI KTEB 011642Z 01005KT 10SM SCT025 07/M01 A3001 RMK AO2 T00671006 (SW)EQDD01      0ADE726
0235725025947412024010116517+40859-074056FM-15+0002KTEB V0209999C000052200059N0160935N5+00675-00065101625ADDAA101000095GA1025+008535999GD11991+0085359GE19AGL   +99999+99999GF102995999999008531999999MA1101635101605REMMET09901/01/24 11:51:02 METAR KTEB 011651Z 00000KT 10SM FEW028 07/M01 A3001 RMK AO2 SLP162 T00671006 (SW)EQDD01      0ADE726
0310725025947412024010117517+40859-074056FM-15+0002KTEB V0209999C000052200059N0160935N5+00725-00115101575ADDAA101000095AA206000021GA1045+010065999GD12991+0100659GE19AGL   +99999+99999GF104995999999010061999999KA1060M+00781KA2060N+00331MA1101595101575MD1890139+9999REMMET12301/01/24 12:51:02 METAR KTEB 011751Z 00000KT 10SM SCT033 07/M01 A3000 RMK AO2 SLP157 60000 T00721011 10078 20033 58013 (SW)EQDD01      0ADE726
0216725025947412024010118517+40859-074056FM-15+0002KTEB V0209999C00005011585MN0160935N5+00725-00115101565ADDAA101000095GA1085+011585999GD14991+0115859GE19AGL   +99999+99999GF199999999999011581999999MA1101565101535REMMET09901/01/24 13:51:02 METAR KTEB 011851Z 00000KT 10SM OVC038 07/M01 A2999 RMK AO2 SLP156 T00721011 (SW)
0216725025947412024010119517+40859-074056FM-15+0002KTEB V0203405N00215013725MN0160935N5+00835-00115101595ADDAA101000095GA1075+013725999GD13991+0137259GE19AGL   +99999+99999GF199999999999013721999999MA1101595101575REMMET09901/01/24 14:51:02 METAR KTEB 011951Z 34004KT 10SM BKN045 08/M01 A3000 RMK AO2 SLP159 T00831011 (SW)
0236725025947412024010120517+40859-074056FM-15+0002KTEB V0203305N00265013725MN0160935N5+00725-00175101635ADDAA101000095GA1085+013725999GD14991+0137259GE19AGL   +99999+99999GF199999999999013721999999MA1101635101605MD1390069+9999REMMET10501/01/24 15:51:02 METAR KTEB 012051Z 33005KT 10SM OVC045 07/M02 A3001 RMK AO2 SLP163 T00721017 53006 (BR)
0216725025947412024010121517+40859-074056FM-15+0002KTEB V0203305N00315013725MN0160935N5+00615-00225101675ADDAA101000095GA1085+013725999GD14991+0137259GE19AGL   +99999+99999GF199999999999013721999999MA1101665101645REMMET09901/01/24 16:51:02 METAR KTEB 012151Z 33006KT 10SM OVC045 06/M02 A3002 RMK AO2 SLP167 T00611022 (BR)
0235725025947412024010122517+40859-074056FM-15+0002KTEB V0203205N003152200059N0160935N5+00505-00175101725ADDAA101000095GA1025+014025999GD11991+0140259GE19AGL   +99999+99999GF102995999999014021999999MA1101735101705REMMET09901/01/24 17:51:02 METAR KTEB 012251Z 32006KT 10SM FEW046 05/M02 A3004 RMK AO2 SLP172 T00501017 (BR)EQDD01      0ADE726
0249725025947412024010123517+40859-074056FM-15+0002KTEB V0203205N004652200059N0160935N5+00445-00285101775ADDAA101000095GA1005+999999999GD10991+9999999GF100991999999999999999999KA1060M+00831KA2060N+00441MA1101795101775MD1390149+9999REMMET11401/01/24 18:51:02 METAR KTEB 012351Z 32009KT 10SM CLR 04/M03 A3006 RMK AO2 SLP177 T00441028 10083 20044 53014 (BR)
0186725025947412024010200517+40859-074056FM-15+0002KTEB V0203305N003152200059N0160935N5+00335-00285101805ADDAA101000095GA1005+999999999GD10991+9999999GF100991999999999999999999MA1101795101775REMMET09101/01/24 19:51:01 METAR KTEB 020051Z 33006KT 10SM CLR 03/M03 A3006 RMK AO2 SLP180 T00331028
0186725025947412024010201517+40859-074056FM-15+0002KTEB V0203205N003152200059N0160935N5+00285-00335101835ADDAA101000095GA1005+999999999GD10991+9999999GF100991999999999999999999MA1101835101805REMMET09101/01/24 20:51:01 METAR KTEB 020151Z 32006KT 10SM CLR 03/M03 A3007 RMK AO2 SLP183 T00281033
0206725025947412024010202517+40859-074056FM-15+0002KTEB V0203305N004152200059N0160935N5+00225-00395101865ADDAA101000095GA1005+999999999GD10991+9999999GF100991999999999999999999MA1101865101845MD1390089+9999REMMET09701/01/24 21:51:01 METAR KTEB 020251Z 33008KT 10SM CLR 02/M04 A3008 RMK AO2 SLP186 T00221039 53008
0186725025947412024010203517+40859-074056FM-15+0002KTEB V0203305N003152200059N0160935N5+00115-00335101885ADDAA101000095GA1005+999999999GD10991+9999999GF100991999999999999999999MA1101905101875REMMET09101/01/24 22:51:01 METAR KTEB 020351Z 33006KT 10SM CLR 01/M03 A3009 RMK AO2 SLP188 T00111033
0222725025947412024010204517+40859-074056FM-15+0002KTEB V0203405N003152200059N0160935N5+00065-00395101875ADDAA101000095GA1005+999999999GD10991+9999999GF100991999999999999999999KA1240M+00831KA2240N+00061MA1101865101845REMMET10101/01/24 23:51:02 METAR KTEB 020451Z 34006KT 10SM CLR 01/M04 A3008 RMK AO2 SLP187 T00061039 400830006
0910725025947412024010204596+40859-074056SOD  +0002KTEB V020999999999999999999999999999+99999+99999999999ADDAA124000025AT1AU16RA  5AT2AU14DZ  5KA1240M+00835KA2240N+00065MG1101594101494OE11240067132021195OE22240044734022575OE33240018899999995REMSOD73024 HR PRECIPITATION (IN):T     24 HR MAX TEMP (F):47 24 HR MAX TEMP TIME (LST):1503 24 HR MIN TEMP (F):33 24 HR MIN TEMP TIME (LST):2359 AVERAGE STATION PRESSURE:30.000 MINIMUM SEA LEVEL PRESSURE:29.97 TIME OF OCCURRENCE:0432 PEAK WIND SPEED (MPH):15  PEAK WIND DIR (DEG):320 PEAK WIND TIME (LST):2119  FASTEST 2MIN SPEED (MPH):10 FASTEST 2MIN DIR (DEG):340 FASTEST 2MIN TIME (LST):2257 AVERAGE WIND SPEED (MPH):4.2  24 HR AVG TEMP (F):40 HEATING DEGREE DAYS:25  COOLING DEGREE DAYS:0   LATEST DAY MAX TEMP (0700-1900 LST):47  LATEST NIGHT MIN TEMP(1900-0800 LST):38 HOURLY INCREMENTAL PRECIPITATION VALUES (IN):    T    0.00 0.00 0.00 T    T    T    0.00 T    0.00 0.00 0.00 0.00 0.00 0.00 0.00 0.00 0.00 0.00 0.00 0.00 0.00 0.00EQDR01     N7GJS072R02     N7GKS075
0268725025947412024010205517+40859-074056FM-15+0002KTEB V0203405N002652200059N0160935N5+00005-00335101865ADDAA101000095GA1005+999999999GD10991+9999999GF100991999999999999999999KA1060M+00441KA2060N-00061MA1101865101845MD1890009+9999REMMET11401/02/24 00:51:02 METAR KTEB 020551Z 34005KT 10SM CLR 00/M03 A3008 RMK AO2 SLP186 T00001033 10044 21006 58000 (AB)EQDQ018     3APCTEN
0192725025947412024010206517+40859-074056FM-15+0002KTEB V0203505N002152200059N0160935N5-00115-00505101865ADDAA101000095GA1005+999999999GD10991+9999999GF100991999999999999999999MA1101865101845REMMET09701/02/24 01:51:02 METAR KTEB 020651Z 35004KT 10SM CLR M01/M05 A3008 RMK AO2 SLP186 T10111050 (AB)
0192725025947412024010207517+40859-074056FM-15+0002KTEB V0203505N003652200059N0160935N5-00115-00565101875ADDAA101000095GA1005+999999999GD10991+9999999GF100991999999999999999999MA1101865101845REMMET09701/02/24 02:51:02 METAR KTEB 020751Z 35007KT 10SM CLR M01/M06 A3008 RMK AO2 SLP187 T10111056 (AB)
0212725025947412024010208517+40859-074056FM-15+0002KTEB V0203505N002652200059N0160935N5-00175-00615101895ADDAA101000095GA1005+999999999GD10991+9999999GF100991999999999999999999MA1101905101875MD1390039+9999REMMET10301/02/24 03:51:02 METAR KTEB 020851Z 35005KT 10SM CLR M02/M06 A3009 RMK AO2 SLP189 T10171061 53003 (AB)
0192725025947412024010209517+40859-074056FM-15+0002KTEB V0203505N002652200059N0160935N5-00225-00725101875ADDAA101000095GA1005+999999999GD10991+9999999GF100991999999999999999999MA1101865101845REMMET09701/02/24 04:51:02 METAR KTEB 020951Z 35005KT 10SM CLR M02/M07 A3008 RMK AO2 SLP187 T10221072 (AB)
0192725025947412024010210517+40859-074056FM-15+0002KTEB V0203505N002652200059N0160935N5-00225-00725101935ADDAA101000095GA1005+999999999GD10991+9999999GF100991999999999999999999MA1101935101915REMMET09701/02/24 05:51:02 METAR KTEB 021051Z 35005KT 10SM CLR M02/M07 A3010 RMK AO2 SLP193 T10221072 (AB)
0250725025947412024010211517+40859-074056FM-15+0002KTEB V0203405N002152200059N0160935N5-00285-00725101985ADDAA101000095GA1005+999999999GD10991+9999999GF100991999999999999999999KA1060M-00061KA2060N-00281MA1102005101975MD1390099+9999REMMET11501/02/24 06:51:02 METAR KTEB 021151Z 34004KT 10SM CLR M03/M07 A3012 RMK AO2 SLP198 T10281072 11006 21028 53009 (AB)
0192725025947412024010212517+40859-074056FM-15+0002KTEB V0203405N002152200059N0160935N5-00175-00725101995ADDAA101000095GA1005+999999999GD10991+9999999GF100991999999999999999999MA1102005101975REMMET09701/02/24 07:51:02 METAR KTEB 021251Z 34004KT 10SM CLR M02/M07 A3012 RMK AO2 SLP199 T10171072 (DS)
0192725025947412024010213517+40859-074056FM-15+0002KTEB V0203505N002652200059N0160935N5-00065-00725102025ADDAA101000095GA1005+999999999GD10991+9999999GF100991999999999999999999MA1102035102015REMMET09701/02/24 08:51:02 METAR KTEB 021351Z 35005KT 10SM CLR M01/M07 A3013 RMK AO2 SLP202 T10061072 (DS)
0211725025947412024010214517+40859-074056FM-15+0002KTEB V0203305N003152200059N0160935N5+00065-00675102025ADDAA101000095GA1005+999999999GD10991+9999999GF100991999999999999999999MA1102035102015MD1090049+9999REMMET10201/02/24 09:51:02 METAR KTEB 021451Z 33006KT 10SM CLR 01/M07 A3013 RMK AO2 SLP202 T00061067 50004 (DS)
0191725025947412024010215517+40859-074056FM-15+0002KTEB V0203405N002152200059N0160935N5+00175-00675101965ADDAA101000095GA1005+999999999GD10991+9999999GF100991999999999999999999MA1101965101945REMMET09601/02/24 10:51:02 METAR KTEB 021551Z 34004KT 10SM CLR 02/M07 A3011 RMK AO2 SLP196 T00171067 (DS)
0191725025947412024010216517+40859-074056FM-15+0002KTEB V0203205N004152200059N0160935N5+00335-00615101835ADDAA101000095GA1005+999999999GD10991+9999999GF100991999999999999999999MA1101835101805REMMET09601/02/24 11:51:02 METAR KTEB 021651Z 32008KT 10SM CLR 03/M06 A3007 RMK AO2 SLP183 T00331061 (DS)
0249725025947412024010217517+40859-074056FM-15+0002KTEB V0202905N003652200059N0160935N5+00445-00565101705ADDAA101000095GA1005+999999999GD10991+9999999GF100991999999999999999999KA1060M+00441KA2060N-00281MA1101735101705MD1890319+9999REMMET11401/02/24 12:51:02 METAR KTEB 021751Z 29007KT 10SM CLR 04/M06 A3004 RMK AO2 SLP170 T00441056 10044 21028 58031 (DS)
0191725025947412024010218517+40859-074056FM-15+0002KTEB V0209999V002652200059N0160935N5+00505-00505101615ADDAA101000095GA1005+999999999GD10991+9999999GF100991999999999999999999MA1101635101605REMMET09601/02/24 13:51:02 METAR KTEB 021851Z VRB05KT 10SM CLR 05/M05 A3001 RMK AO2 SLP161 T00501050 (DS)
0191725025947412024010219517+40859-074056FM-15+0002KTEB V0203105N002652200059N0160935N5+00565-00565101595ADDAA101000095GA1005+999999999GD10991+9999999GF100991999999999999999999MA1101595101575REMMET09601/02/24 14:51:02 METAR KTEB 021951Z 31005KT 10SM CLR 06/M06 A3000 RMK AO2 SLP159 T00561056 (MV)
0211725025947412024010220517+40859-074056FM-15+0002KTEB V0203005N003152200059N0160935N5+00565-00565101565ADDAA101000095GA1005+999999999GD10991+9999999GF100991999999999999999999MA1101565101535MD1690159+9999REMMET10201/02/24 15:51:02 METAR KTEB 022051Z 30006KT 10SM CLR 06/M06 A2999 RMK AO2 SLP156 T00561056 56015 (JL)
0191725025947412024010221517+40859-074056FM-15+0002KTEB V0203205N002152200059N0160935N5+00445-00565101595ADDAA101000095GA1005+999999999GD10991+9999999GF100991999999999999999999MA1101595101575REMMET09601/02/24 16:51:02 METAR KTEB 022151Z 32004KT 10SM CLR 04/M06 A3000 RMK AO2 SLP159 T00441056 (JL)
0191725025947412024010222517+40859-074056FM-15+0002KTEB V0209999V002152200059N0160935N5+00395-00565101625ADDAA101000095GA1005+999999999GD10991+9999999GF100991999999999999999999MA1101635101605REMMET09601/02/24 17:51:02 METAR KTEB 022251Z VRB04KT 10SM CLR 04/M06 A3001 RMK AO2 SLP162 T00391056 (JL)
0249725025947412024010223517+40859-074056FM-15+0002KTEB V0209999C000052200059N0160935N5+00395-00505101625ADDAA101000095GA1005+999999999GD10991+9999999GF100991999999999999999999KA1060M+00611KA2060N+00331MA1101635101605MD1190069+9999REMMET11401/02/24 18:51:02 METAR KTEB 022351Z 00000KT 10SM CLR 04/M05 A3001 RMK AO2 SLP162 T00391050 10061 20033 51006 (JL)
0186725025947412024010300517+40859-074056FM-15+0002KTEB V0202105N001552200059N0160935N5+00115-00505101645ADDAA101000095GA1005+999999999GD10991+9999999GF100991999999999999999999MA1101665101645REMMET09101/02/24 19:51:01 METAR KTEB 030051Z 21003KT 10SM CLR 01/M05 A3002 RMK AO2 SLP164 T00111050
0186725025947412024010301517+40859-074056FM-15+0002KTEB V0202505N002152200059N0160935N5+00285-00565101625ADDAA101000095GA1005+999999999GD10991+9999999GF100991999999999999999999MA1101635101605REMMET09101/02/24 20:51:01 METAR KTEB 030151Z 25004KT 10SM CLR 03/M06 A3001 RMK AO2 SLP162 T00281056
0206725025947412024010302517+40859-074056FM-15+0002KTEB V0202505N001552200059N0160935N5+00225-00565101635ADDAA101000095GA1005+999999999GD10991+9999999GF100991999999999999999999MA1101635101605MD1190019+9999REMMET09701/02/24 21:51:01 METAR KTEB 030251Z 25003KT 10SM CLR 02/M06 A3001 RMK AO2 SLP163 T00221056 51001
0186725025947412024010303517+40859-074056FM-15+0002KTEB V0202405N001552200059N0160935N5+00005-00505101635ADDAA101000095GA1005+999999999GD10991+9999999GF100991999999999999999999MA1101635101605REMMET09101/02/24 22:51:01 METAR KTEB 030351Z 24003KT 10SM CLR 00/M05 A3001 RMK AO2 SLP163 T00001050
0222725025947412024010304517+40859-074056FM-15+0002KTEB V0202705N003152200059N0160935N5+00065-00505101595ADDAA101000095GA1005+999999999GD10991+9999999GF100991999999999999999999KA1240M+00611KA2240N-00281MA1101595101575REMMET10101/02/24 23:51:02 METAR KTEB 030451Z 27006KT 10SM CLR 01/M05 A3000 RMK AO2 SLP159 T00061050 400611028
0886725025947412024010304596+40859-074056SOD  +0002KTEB V020999999999999999999999999999+99999+99999999999ADDAA124000095KA1240M+00615KA2240N-00275MG1101764101564OE11240067130012315OE22240058132010085OE33240024199999995REMSOD73024 HR PRECIPITATION (IN):0.00  24 HR MAX TEMP (F):43 24 HR MAX TEMP TIME (LST):1527 24 HR MIN TEMP (F):27 24 HR MIN TEMP TIME (LST):0735 AVERAGE STATION PRESSURE:30.050 MINIMUM SEA LEVEL PRESSURE:29.99 TIME OF OCCURRENCE:1618 PEAK WIND SPEED (MPH):15  PEAK WIND DIR (DEG):300 PEAK WIND TIME (LST):1231  FASTEST 2MIN SPEED (MPH):13 FASTEST 2MIN DIR (DEG):320 FASTEST 2MIN TIME (LST):1008 AVERAGE WIND SPEED (MPH):5.4  24 HR AVG TEMP (F):35 HEATING DEGREE DAYS:30  COOLING DEGREE DAYS:0   LATEST DAY MAX TEMP (0700-1900 LST):43  LATEST NIGHT MIN TEMP(1900-0800 LST):27 HOURLY INCREMENTAL PRECIPITATION VALUES (IN):.00 0.00 0.00 0.00 0.00 0.00 0.00 0.00 0.00 0.00 0.00 0.00 0.00 0.00 0.00 0.00 0.00 0.00 0.00 0.00 0.00 0.00 0.00 0.00EQDR01     N7GJS072R02     N7GKS075
0249725025947412024010305517+40859-074056FM-15+0002KTEB V0202705N002152200059N0160935N5+00005-00445101605ADDAA101000095GA1005+999999999GD10991+9999999GF100991999999999999999999KA1060M+00391KA2060N-00111MA1101595101575MD1590049+9999REMMET11401/03/24 00:51:02 METAR KTEB 030551Z 27004KT 10SM CLR 00/M04 A3000 RMK AO2 SLP160 T00001044 10039 21011 55004 (WL)
0191725025947412024010306517+40859-074056FM-15+0002KTEB V0209999C000052200059N0160935N5+00005-00445101585ADDAA101000095GA1005+999999999GD10991+9999999GF100991999999999999999999MA1101595101575REMMET09601/03/24 01:51:02 METAR KTEB 030651Z 00000KT 10SM CLR 00/M04 A3000 RMK AO2 SLP158 T00001044 (WL)
0191725025947412024010307517+40859-074056FM-15+0002KTEB V0202905N001552200059N0160935N5+00005-00445101595ADDAA101000095GA1005+999999999GD10991+9999999GF100991999999999999999999MA1101595101575REMMET09601/03/24 02:51:02 METAR KTEB 030751Z 29003KT 10SM CLR 00/M04 A3000 RMK AO2 SLP159 T00001044 (WL)
0211725025947412024010308517+40859-074056FM-15+0002KTEB V0203405N001552200059N0160935N5+00005-00445101595ADDAA101000095GA1005+999999999GD10991+9999999GF100991999999999999999999MA1101595101575MD1690019+9999REMMET10201/03/24 03:51:02 METAR KTEB 030851Z 34003KT 10SM CLR 00/M04 A3000 RMK AO2 SLP159 T00001044 56001 (WL)
0192725025947412024010309517+40859-074056FM-15+0002KTEB V0202905N002152200059N0160935N5-00115-00505101615ADDAA101000095GA1005+999999999GD10991+9999999GF100991999999999999999999MA1101635101605REMMET09701/03/24 04:51:02 METAR KTEB 030951Z 29004KT 10SM CLR M01/M05 A3001 RMK AO2 SLP161 T10111050 (WL)
0192725025947412024010310517+40859-074056FM-15+0002KTEB V0209999C000052200059N0160935N5-00115-00445101625ADDAA101000095GA1005+999999999GD10991+9999999GF100991999999999999999999MA1101635101605REMMET09701/03/24 05:51:02 METAR KTEB 031051Z 00000KT 10SM CLR M01/M04 A3001 RMK AO2 SLP162 T10111044 (WL)
0250725025947412024010311517+40859-074056FM-15+0002KTEB V0202005N001552200059N0160935N5-00175-00445101655ADDAA101000095GA1005+999999999GD10991+9999999GF100991999999999999999999KA1060M+00001KA2060N-00171MA1101665101645MD1290069+9999REMMET11501/03/24 06:51:02 METAR KTEB 031151Z 20003KT 10SM CLR M02/M04 A3002 RMK AO2 SLP165 T10171044 10000 21017 52006 (WL)
0191725025947412024010312517+40859-074056FM-15+0002KTEB V0202305N002152200059N0160935N5+00005-00445101735ADDAA101000095GA1005+999999999GD10991+9999999GF100991999999999999999999MA1101735101705REMMET09601/03/24 07:51:02 METAR KTEB 031251Z 23004KT 10SM CLR 00/M04 A3004 RMK AO2 SLP173 T00001044 (RC)
0216725025947412024010313517+40859-074056FM-15+0002KTEB V0202305N00265010365MN0160935N5+00115-00335101775ADDAA101000095GA1075+010365999GD13991+0103659GE19AGL   +99999+99999GF199999999999010361999999MA1101765101745REMMET09901/03/24 08:51:02 METAR KTEB 031351Z 23005KT 10SM BKN034 01/M03 A3005 RMK AO2 SLP177 T00111033 (RC)
0236725025947412024010314517+40859-074056FM-15+0002KTEB V0202805N00215009755MN0160935N5+00285-00395101775ADDAA101000095GA1085+009755999GD14991+0097559GE19AGL   +99999+99999GF199999999999009751999999MA1101765101745MD1090129+9999REMMET10501/03/24 09:51:02 METAR KTEB 031451Z 28004KT 10SM OVC032 03/M04 A3005 RMK AO2 SLP177 T00281039 50012 (RC)
0191725025947412024010315517+40859-074056FM-15+0002KTEB V0203305N002152200059N0160935N5+00445-00335101715ADDAA101000095GA1005+999999999GD10991+9999999GF100991999999999999999999MA1101735101705REMMET09601/03/24 10:51:02 METAR KTEB 031551Z 33004KT 10SM CLR 04/M03 A3004 RMK AO2 SLP171 T00441033 (DS)
0216725025947412024010316517+40859-074056FM-15+0002KTEB V0203305V00365010975MN0160935N5+00565-00335101615ADDAA101000095GA1085+010975999GD14991+0109759GE19AGL   +99999+99999GF199999999999010971999999MA1101635101605REMMET09901/03/24 11:51:02 METAR KTEB 031651Z 33007KT 10SM OVC036 06/M03 A3001 RMK AO2 SLP161 T00561033 (DS)
0274725025947412024010317517+40859-074056FM-15+0002KTEB V0203105N00465011585MN0160935N5+00565-00285101575ADDAA101000095GA1085+011585999GD14991+0115859GE19AGL   +99999+99999GF199999999999011581999999KA1060M+00561KA2060N-00171MA1101565101535MD1690209+9999REMMET11701/03/24 12:51:02 METAR KTEB 031751Z 31009KT 10SM OVC038 06/M03 A2999 RMK AO2 SLP157 T00561028 10056 21017 56020 (DS)
0216725025947412024010318517+40859-074056FM-15+0002KTEB V0202905N00515011585MN0160935N5+00505-00335101575ADDAA101000095GA1085+011585999GD14991+0115859GE19AGL   +99999+99999GF199999999999011581999999MA1101595101575REMMET09901/03/24 13:51:02 METAR KTEB 031851Z 29010KT 10SM OVC038 05/M03 A3000 RMK AO2 SLP157 T00501033 (DS)
0216725025947412024010319517+40859-074056FM-15+0002KTEB V0203005N00315011585MN0160935N5+00445-00335101545ADDAA101000095GA1085+011585999GD14991+0115859GE19AGL   +99999+99999GF199999999999011581999999MA1101565101535REMMET09901/03/24 14:51:02 METAR KTEB 031951Z 30006KT 10SM OVC038 04/M03 A2999 RMK AO2 SLP154 T00441033 (DS)
0236725025947412024010320517+40859-074056FM-15+0002KTEB V0203405N00365011285MN0160935N5+00395-00335101525ADDAA101000095GA1085+011285999GD14991+0112859GE19AGL   +99999+99999GF199999999999011281999999MA1101525101505MD1890059+9999REMMET10501/03/24 15:51:02 METAR KTEB 032051Z 34007KT 10SM OVC037 04/M03 A2998 RMK AO2 SLP152 T00391033 58005 (AB)
0216725025947412024010321517+40859-074056FM-15+0002KTEB V0203105N00215010975MN0160935N5+00395-00335101575ADDAA101000095GA1085+010975999GD14991+0109759GE19AGL   +99999+99999GF199999999999010971999999MA1101595101575REMMET09901/03/24 16:51:02 METAR KTEB 032151Z 31004KT 10SM OVC036 04/M03 A3000 RMK AO2 SLP157 T00391033 (AB)
0216725025947412024010322517+40859-074056FM-15+0002KTEB V0203205N00265010975MN0160935N5+00395-00335101605ADDAA101000095GA1085+010975999GD14991+0109759GE19AGL   +99999+99999GF199999999999010971999999MA1101635101605REMMET09901/03/24 17:51:02 METAR KTEB 032251Z 32005KT 10SM OVC036 04/M03 A3001 RMK AO2 SLP160 T00391033 (AB)
0274725025947412024010323517+40859-074056FM-15+0002KTEB V0202805N00265011285MN0160935N5+00395-00335101635ADDAA101000095GA1085+011285999GD14991+0112859GE19AGL   +99999+99999GF199999999999011281999999KA1060M+00501KA2060N+00391MA1101635101605MD1190109+9999REMMET11701/03/24 18:51:02 METAR KTEB 032351Z 28005KT 10SM OVC037 04/M03 A3001 RMK AO2 SLP163 T00391033 10050 20039 51010 (AB)
0211725025947412024010400517+40859-074056FM-15+0002KTEB V0203205N00265011285MN0160935N5+00395-00335101595ADDAA101000095GA1085+011285999GD14991+0112859GE19AGL   +99999+99999GF199999999999011281999999MA1101595101575REMMET09401/03/24 19:51:01 METAR KTEB 040051Z 32005KT 10SM OVC037 04/M03 A3000 RMK AO2 SLP159 T00391033
0213725025947412024010401517+40859-074056FM-15+0002KTEB V0203405N00215011285MN0160935N5+00395-00335101565ADDAA101000095GA1085+011285999GD14991+0112859GE19AGL   +99999+99999GF199999999999011281999999MA1101565101535REMMET09601/03/24 20:51:01 METAR KTEB 040151Z 34004KT 10SM OVC037 04/M03 A2999 RMK AO2 SLP156 T00391033 $
0233725025947412024010402517+40859-074056FM-15+0002KTEB V0203205N00155011285MN0160935N5+00335-00335101535ADDAA101000095GA1085+011285999GD14991+0112859GE19AGL   +99999+99999GF199999999999011281999999MA1101565101535MD1690099+9999REMMET10201/03/24 21:51:01 METAR KTEB 040251Z 32003KT 10SM OVC037 03/M03 A2999 RMK AO2 SLP153 T00331033 56009 $
0213725025947412024010403517+40859-074056FM-15+0002KTEB V0202805N00215012505MN0160935N5+00335-00395101545ADDAA101000095GA1085+012505999GD14991+0125059GE19AGL   +99999+99999GF199999999999012501999999MA1101565101535REMMET09601/03/24 22:51:01 METAR KTEB 040351Z 28004KT 10SM OVC041 03/M04 A2999 RMK AO2 SLP154 T00331039 $
0249725025947412024010404517+40859-074056FM-15+0002KTEB V0202605N00215013115MN0160935N5+00335-00335101565ADDAA101000095GA1085+013115999GD14991+0131159GE19AGL   +99999+99999GF199999999999013111999999KA1240M+00561KA2240N-00171MA1101565101535REMMET10601/03/24 23:51:02 METAR KTEB 040451Z 26004KT 10SM OVC043 03/M03 A2999 RMK AO2 SLP156 T00331033 400561017 $
0886725025947412024010404596+40859-074056SOD  +0002KTEB V020999999999999999999999999999+99999+99999999999ADDAA124000095KA1240M+00565KA2240N-00165MG1101574101494OE11240076032011565OE22240058131013345OE33240022899999995REMSOD73024 HR PRECIPITATION (IN):0.00  24 HR MAX TEMP (F):42 24 HR MAX TEMP TIME (LST):1251 24 HR MIN TEMP (F):29 24 HR MIN TEMP TIME (LST):0714 AVERAGE STATION PRESSURE:29.995 MINIMUM SEA LEVEL PRESSURE:29.97 TIME OF OCCURRENCE:1616 PEAK WIND SPEED (MPH):17  PEAK WIND DIR (DEG):320 PEAK WIND TIME (LST):1156  FASTEST 2MIN SPEED (MPH):13 FASTEST 2MIN DIR (DEG):310 FASTEST 2MIN TIME (LST):1334 AVERAGE WIND SPEED (MPH):5.1  24 HR AVG TEMP (F):36 HEATING DEGREE DAYS:29  COOLING DEGREE DAYS:0   LATEST DAY MAX TEMP (0700-1900 LST):42  LATEST NIGHT MIN TEMP(1900-0800 LST):29 HOURLY INCREMENTAL PRECIPITATION VALUES (IN):.00 0.00 0.00 0.00 0.00 0.00 0.00 0.00 0.00 0.00 0.00 0.00 0.00 0.00 0.00 0.00 0.00 0.00 0.00 0.00 0.00 0.00 0.00 0.00EQDR01     N7GJS072R02     N7GKS075
0276725025947412024010405517+40859-074056FM-15+0002KTEB V0209999C00005013725MN0160935N5+00335-00335101505ADDAA101000095GA1085+013725999GD14991+0137259GE19AGL   +99999+99999GF199999999999013721999999KA1060M+00391KA2060N+00281MA1101495101475MD1890049+9999REMMET11901/04/24 00:51:02 METAR KTEB 040551Z 00000KT 10SM OVC045 03/M03 A2997 RMK AO2 SLP150 T00331033 10039 20028 58004 $ (WL)
0218725025947412024010406517+40859-074056FM-15+0002KTEB V0202505N00155014635MN0160935N5+00285-00335101485ADDAA101000095GA1085+014635999GD14991+0146359GE19AGL   +99999+99999GF199999999999014631999999MA1101495101475REMMET10101/04/24 01:51:02 METAR KTEB 040651Z 25003KT 10SM OVC048 03/M03 A2997 RMK AO2 SLP148 T00281033 $ (WL)
0218725025947412024010407517+40859-074056FM-15+0002KTEB V0202105N00215015245MN0160935N5+00285-00285101455ADDAA101000095GA1085+015245999GD14991+0152459GE19AGL   +99999+99999GF199999999999015241999999MA1101465101435REMMET10101/04/24 02:51:02 METAR KTEB 040751Z 21004KT 10SM OVC050 03/M03 A2996 RMK AO2 SLP145 T00281028 $ (WL)
0238725025947412024010408517+40859-074056FM-15+0002KTEB V0202405N00215013415MN0160935N5+00335-00285101375ADDAA101000095GA1085+013415999GD14991+0134159GE19AGL   +99999+99999GF199999999999013411999999MA1101395101365MD1890129+9999REMMET10701/04/24 03:51:02 METAR KTEB 040851Z 24004KT 10SM OVC044 03/M03 A2994 RMK AO2 SLP137 T00331028 58012 $ (WL)
0218725025947412024010409517+40859-074056FM-15+0002KTEB V0202505N00155014335MN0160935N5+00335-00335101325ADDAA101000095GA1085+014335999GD14991+0143359GE19AGL   +99999+99999GF199999999999014331999999MA1101325101305REMMET10101/04/24 04:51:02 METAR KTEB 040951Z 25003KT 10SM OVC047 03/M03 A2992 RMK AO2 SLP132 T00331033 $ (WL)
0256725025947412024010410517+40859-074056FM-15+0002KTEB V0202605N00265018295MN0160935N5+00335-00285101345ADDAA101000095GA1075+018295999GA2085+022865999GD13991+0182959GD24991+0228659GE19AGL   +99999+99999GF199999999999018291999999MA1101355101335REMMET10801/04/24 05:51:02 METAR KTEB 041051Z 26005KT 10SM BKN060 OVC075 03/M03 A2993 RMK AO2 SLP134 T00331028 $ (WL)
0352725025947412024010411517+40859-074056FM-15+0002KTEB V0203005N00265021345MN0160935N5+00285-00225101335ADDAA101000095GA1025+014635999GA2075+021345999GA3085+025915999GD11991+0146359GD23991+0213459GD34991+0259159GE19AGL   +99999+99999GF199999999999014631999999KA1060M+00331KA2060N+00221MA1101355101335MD1690049+9999REMMET13301/04/24 06:51:02 METAR KTEB 041151Z 30005KT 10SM FEW048 BKN070 OVC085 03/M02 A2993 RMK AO2 SLP133 T00281022 10033 20022 56004 $ (WL)
0294725025947412024010412517+40859-074056FM-15+0002KTEB V0202605N00215021345MN0160935N5+00285-00175101385ADDAA101000095GA1045+013115999GA2075+021345999GA3085+027435999GD12991+0131159GD23991+0213459GD34991+0274359GE19AGL   +99999+99999GF199999999999013111999999MA1101395101365REMMET11501/04/24 07:51:02 METAR KTEB 041251Z 26004KT 10SM SCT043 BKN070 OVC090 03/M02 A2994 RMK AO2 SLP138 T00281017 $ (RC)
0216725025947412024010413517+40859-074056FM-15+0002KTEB V0202705N00265019815MN0160935N5+00335-00225101415ADDAA101000095GA1085+019815999GD14991+0198159GE19AGL   +99999+99999GF199999999999019811999999MA1101425101405REMMET09901/04/24 08:51:02 METAR KTEB 041351Z 27005KT 10SM OVC065 03/M02 A2995 RMK AO2 SLP141 T00331022 (MC)
0236725025947412024010414517+40859-074056FM-15+0002KTEB V0203205N00315021345MN0160935N5+00335-00175101465ADDAA101000095GA1085+021345999GD14991+0213459GE19AGL   +99999+99999GF199999999999021341999999MA1101465101435MD1390139+9999REMMET10501/04/24 09:51:02 METAR KTEB 041451Z 32006KT 10SM OVC070 03/M02 A2996 RMK AO2 SLP146 T00331017 53013 (MC)
0216725025947412024010415517+40859-074056FM-15+0002KTEB V0203105N00315021345MN0160935N5+00445-00175101445ADDAA101000095GA1085+021345999GD14991+0213459GE19AGL   +99999+99999GF199999999999021341999999MA1101465101435REMMET09901/04/24 10:51:02 METAR KTEB 041551Z 31006KT 10SM OVC070 04/M02 A2996 RMK AO2 SLP144 T00441017 (MC)
0216725025947412024010416517+40859-074056FM-15+0002KTEB V0203205N00575021345MN0160935N5+00615-00225101415ADDAA101000095GA1085+021345999GD14991+0213459GE19AGL   +99999+99999GF199999999999021341999999MA1101425101405REMMET09901/04/24 11:51:02 METAR KTEB 041651Z 32011KT 10SM OVC070 06/M02 A2995 RMK AO2 SLP141 T00611022 (MC)
0361725025947412024010417517+40859-074056FM-15+0002KTEB V0203205N00775012805MN0160935N5+00615-00285101365ADDAA101000095GA1075+012805999GA2075+014945999GA3085+022865999GD13991+0128059GD23991+0149459GD34991+0228659GE19AGL   +99999+99999GF199999999999012801999999KA1060M+00611KA2060N+00281MA1101355101335MD1890109+9999OC101085REMMET13401/04/24 12:51:02 METAR KTEB 041751Z 32015G21KT 10SM BKN042 BKN049 OVC075 06/M03 A2993 RMK AO2 SLP136 T00611028 10061 20028 58010 (MC)
0246725025947412024010418517+40859-074056FM-15+0002KTEB V0203505N006252200059N0160935N5+00675-00445101365ADDAA101000095GA1025+014025999GD11991+0140259GE19AGL   +99999+99999GF102995999999014021999999MA1101355101335OC101135REMMET10201/04/24 13:51:02 METAR KTEB 041851Z 35012G22KT 10SM FEW046 07/M04 A2993 RMK AO2 SLP136 T00671044 (MC)EQDD01      0ADE726
0259725025947412024010419517+40859-074056FM-15+0002KTEB V0203205N00675021345MN0160935N5+00565-00505101445ADDAA101000095GA1085+021345999GD14991+0213459GE19AGL   +99999+99999GF199999999999021341999999MA1101465101435OC101245OD149901391320REMMET12001/04/24 14:51:02 METAR KTEB 041951Z 32013G24KT 10SM OVC070 06/M05 A2996 RMK AO2 PK WND 32027/1931 SLP144 T00561050 (MC)
0254725025947412024010420517+40859-074056FM-15+0002KTEB V0203205N006752200059N0160935N5+00445-00615101555ADDAA101000095GA1005+999999999GD10991+9999999GF100991999999999999999999MA1101565101535MD1390209+9999OC101185OD149901441310REMMET12301/04/24 15:51:02 METAR KTEB 042051Z 32013G23KT 10SM CLR 04/M06 A2999 RMK AO2 PK WND 31028/2025 SLP155 T00441061 53020 (BR)
0234725025947412024010421517+40859-074056FM-15+0002KTEB V0203305N009352200059N0160935N5+00285-00785101695ADDAA101000095GA1005+999999999GD10991+9999999GF100991999999999999999999MA1101695101675OC101345OD149901331310REMMET11701/04/24 16:51:02 METAR KTEB 042151Z 33018G26KT 10SM CLR 03/M08 A3003 RMK AO2 PK WND 31026/2146 SLP169 T00281078 (BR)
0234725025947412024010422517+40859-074056FM-15+0002KTEB V0203205N006252200059N0160935N5+00175-00895101835ADDAA101000095GA1005+999999999GD10991+9999999GF100991999999999999999999MA1101835101805OC101085OD149901391330REMMET11701/04/24 17:51:02 METAR KTEB 042251Z 32012G21KT 10SM CLR 02/M09 A3007 RMK AO2 PK WND 33027/2212 SLP183 T00171089 (BR)
0260725025947412024010423517+40859-074056FM-15+0002KTEB V0203205N004652200059N0160935N5+00065-00945101975ADDAA101000095GA1005+999999999GD10991+9999999GF100991999999999999999999KA1060M+00721KA2060N+00061MA1101965101945MD1190419+9999OC101085REMMET11701/04/24 18:51:02 METAR KTEB 042351Z 32009G21KT 10SM CLR 01/M09 A3011 RMK AO2 SLP197 T00061094 10072 20006 51041 (BR)
0197725025947412024010500517+40859-074056FM-15+0002KTEB V0203305N005152200059N0160935N5+00005-01065102015ADDAA101000095GA1005+999999999GD10991+9999999GF100991999999999999999999MA1102035102015OC100935REMMET09401/04/24 19:51:01 METAR KTEB 050051Z 33010G18KT 10SM CLR 00/M11 A3013 RMK AO2 SLP201 T00001106
0198725025947412024010501517+40859-074056FM-15+0002KTEB V0203305N005152200059N0160935N5-00115-01175102115ADDAA101000095GA1005+999999999GD10991+9999999GF100991999999999999999999MA1102135102115OC100985REMMET09501/04/24 20:51:01 METAR KTEB 050151Z 33010G19KT 10SM CLR M01/M12 A3016 RMK AO2 SLP211 T10111117
0218725025947412024010502517+40859-074056FM-15+0002KTEB V0203205N006252200059N0160935N5-00175-01175102175ADDAA101000095GA1005+999999999GD10991+9999999GF100991999999999999999999MA1102175102145MD1390219+9999OC100985REMMET10101/04/24 21:51:02 METAR KTEB 050251Z 32012G19KT 10SM CLR M02/M12 A3017 RMK AO2 SLP217 T10171117 53021
0198725025947412024010503517+40859-074056FM-15+0002KTEB V0203205N006752200059N0160935N5-00225-01115102305ADDAA101000095GA1005+999999999GD10991+9999999GF100991999999999999999999MA1102305102285OC100985REMMET09501/04/24 22:51:02 METAR KTEB 050351Z 32013G19KT 10SM CLR M02/M11 A3021 RMK AO2 SLP230 T10221111
0223725025947412024010504517+40859-074056FM-15+0002KTEB V0203405N004652200059N0160935N5-00285-01115102325ADDAA101000095GA1005+999999999GD10991+9999999GF100991999999999999999999KA1240M+00721KA2240N-00281MA1102345102315REMMET10201/04/24 23:51:02 METAR KTEB 050451Z 34009KT 10SM CLR M03/M11 A3022 RMK AO2 SLP232 T10281111 400721028
0886725025947412024010504596+40859-074056SOD  +0002KTEB V020999999999999999999999999999+99999+99999999999ADDAA124000095KA1240M+00725KA2240N-00325MG1101514101324OE11240143131015255OE22240102832016565OE33240043499999995REMSOD73024 HR PRECIPITATION (IN):0.00  24 HR MAX TEMP (F):45 24 HR MAX TEMP TIME (LST):1416 24 HR MIN TEMP (F):26 24 HR MIN TEMP TIME (LST):2359 AVERAGE STATION PRESSURE:29.975 MINIMUM SEA LEVEL PRESSURE:29.92 TIME OF OCCURRENCE:0701 PEAK WIND SPEED (MPH):32  PEAK WIND DIR (DEG):310 PEAK WIND TIME (LST):1525  FASTEST 2MIN SPEED (MPH):23 FASTEST 2MIN DIR (DEG):320 FASTEST 2MIN TIME (LST):1656 AVERAGE WIND SPEED (MPH):9.7  24 HR AVG TEMP (F):36 HEATING DEGREE DAYS:29  COOLING DEGREE DAYS:0   LATEST DAY MAX TEMP (0700-1900 LST):45  LATEST NIGHT MIN TEMP(1900-0800 LST):36 HOURLY INCREMENTAL PRECIPITATION VALUES (IN):.00 0.00 0.00 0.00 0.00 0.00 0.00 0.00 0.00 0.00 0.00 0.00 0.00 0.00 0.00 0.00 0.00 0.00 0.00 0.00 0.00 0.00 0.00 0.00EQDR01     N7GJS072R02     N7GKS075
0261725025947412024010505517+40859-074056FM-15+0002KTEB V0203305N005752200059N0160935N5-00335-01115102335ADDAA101000095GA1005+999999999GD10991+9999999GF100991999999999999999999KA1060M+00061KA2060N-00331MA1102345102315MD1190169+9999OC100885REMMET11801/05/24 00:51:02 METAR KTEB 050551Z 33011G17KT 10SM CLR M03/M11 A3022 RMK AO2 SLP233 T10331111 10006 21033 51016 (WL)
0192725025947412024010506517+40859-074056FM-15+0002KTEB V0203305N003652200059N0160935N5-00395-01115102415ADDAA101000095GA1005+999999999GD10991+9999999GF100991999999999999999999MA1102405102385REMMET09701/05/24 01:51:02 METAR KTEB 050651Z 33007KT 10SM CLR M04/M11 A3024 RMK AO2 SLP241 T10391111 (WL)
0192725025947412024010507517+40859-074056FM-15+0002KTEB V0203405N004152200059N0160935N5-00395-01065102445ADDAA101000095GA1005+999999999GD10991+9999999GF100991999999999999999999MA1102445102415REMMET09701/05/24 02:51:02 METAR KTEB 050751Z 34008KT 10SM CLR M04/M11 A3025 RMK AO2 SLP244 T10391106 (WL)
0212725025947412024010508517+40859-074056FM-15+0002KTEB V0203205N002152200059N0160935N5-00395-01065102475ADDAA101000095GA1005+999999999GD10991+9999999GF100991999999999999999999MA1102475102455MD1190149+9999REMMET10301/05/24 03:51:02 METAR KTEB 050851Z 32004KT 10SM CLR M04/M11 A3026 RMK AO2 SLP247 T10391106 51014 (WL)
0192725025947412024010509517+40859-074056FM-15+0002KTEB V0202905N002652200059N0160935N5-00395-01005102475ADDAA101000095GA1005+999999999GD10991+9999999GF100991999999999999999999MA1102475102455REMMET09701/05/24 04:51:02 METAR KTEB 050951Z 29005KT 10SM CLR M04/M10 A3026 RMK AO2 SLP247 T10391100 (WL)
0194725025947412024010510517+40859-074056FM-15+0002KTEB V0202905N002152200059N0160935N5-00505-01065102495ADDAA101000095GA1005+999999999GD10991+9999999GF100991999999999999999999MA1102515102485REMMET09901/05/24 05:51:02 METAR KTEB 051051Z 29004KT 10SM CLR M05/M11 A3027 RMK AO2 SLP249 T10501106 $ (WL)
0252725025947412024010511517+40859-074056FM-15+0002KTEB V0202905N002152200059N0160935N5-00505-01005102565ADDAA101000095GA1005+999999999GD10991+9999999GF100991999999999999999999KA1060M-00331KA2060N-00561MA1102575102555MD1390099+9999REMMET11701/05/24 06:51:02 METAR KTEB 051151Z 29004KT 10SM CLR M05/M10 A3029 RMK AO2 SLP256 T10501100 11033 21056 53009 $ (WL)
0194725025947412024010512517+40859-074056FM-15+0002KTEB V0202905N002152200059N0160935N5-00335-00945102615ADDAA101000095GA1005+999999999GD10991+9999999GF100991999999999999999999MA1102615102585REMMET09901/05/24 07:51:02 METAR KTEB 051251Z 29004KT 10SM CLR M03/M09 A3030 RMK AO2 SLP261 T10331094 $ (JL)
0194725025947412024010513517+40859-074056FM-15+0002KTEB V0203205N003652200059N0160935N5-00225-01005102685ADDAA101000095GA1005+999999999GD10991+9999999GF100991999999999999999999MA1102685102655REMMET09901/05/24 08:51:02 METAR KTEB 051351Z 32007KT 10SM CLR M02/M10 A3032 RMK AO2 SLP268 T10221100 $ (JL)
0225725025947412024010514517+40859-074056FM-15+0002KTEB V0203205N005752200059N0160935N5-00065-01005102715ADDAA101000095GA1005+999999999GD10991+9999999GF100991999999999999999999MA1102715102685MD1190169+9999OC100825REMMET10801/05/24 09:51:02 METAR KTEB 051451Z 32011G16KT 10SM CLR M01/M10 A3033 RMK AO2 SLP271 T10061100 51016 $ (JL)
0193725025947412024010515517+40859-074056FM-15+0002KTEB V0203205N003652200059N0160935N5+00065-01005102635ADDAA101000095GA1005+999999999GD10991+9999999GF100991999999999999999999MA1102645102625REMMET09801/05/24 10:51:02 METAR KTEB 051551Z 32007KT 10SM CLR 01/M10 A3031 RMK AO2 SLP263 T00061100 $ (JL)
0204725025947412024010516517+40859-074056FM-15+0002KTEB V0202905N006752200059N0160935N5+00115-00895102505ADDAA101000095GA1005+999999999GD10991+9999999GF100991999999999999999999MA1102515102485OC100825REMMET10101/05/24 11:51:02 METAR KTEB 051651Z 29013G16KT 10SM CLR 01/M09 A3027 RMK AO2 SLP250 T00111089 $ (JL)
0251725025947412024010517517+40859-074056FM-15+0002KTEB V0202905N005152200059N0160935N5+00175-00945102425ADDAA101000095GA1005+999999999GD10991+9999999GF100991999999999999999999KA1060M+00221KA2060N-00501MA1102445102415MD1690309+9999REMMET11601/05/24 12:51:02 METAR KTEB 051751Z 29010KT 10SM CLR 02/M09 A3025 RMK AO2 SLP242 T00171094 10022 21050 56030 $ (JL)
0193725025947412024010518517+40859-074056FM-15+0002KTEB V0203105N004652200059N0160935N5+00285-00895102375ADDAA101000095GA1005+999999999GD10991+9999999GF100991999999999999999999MA1102375102355REMMET09801/05/24 13:51:02 METAR KTEB 051851Z 31009KT 10SM CLR 03/M09 A3023 RMK AO2 SLP237 T00281089 $ (JL)
0193725025947412024010519517+40859-074056FM-15+0002KTEB V0202905N003652200059N0160935N5+00285-00895102335ADDAA101000095GA1005+999999999GD10991+9999999GF100991999999999999999999MA1102345102315REMMET09801/05/24 14:51:02 METAR KTEB 051951Z 29007KT 10SM CLR 03/M09 A3022 RMK AO2 SLP233 T00281089 $ (JL)
0211725025947412024010520517+40859-074056FM-15+0002KTEB V0203005N005152200059N0160935N5+00225-00895102355ADDAA101000095GA1005+999999999GD10991+9999999GF100991999999999999999999MA1102375102355MD1590069+9999REMMET10201/05/24 15:51:02 METAR KTEB 052051Z 30010KT 10SM CLR 02/M09 A3023 RMK AO2 SLP235 T00221089 55006 (MC)
0191725025947412024010521517+40859-074056FM-15+0002KTEB V0202805N002652200059N0160935N5+00175-00895102325ADDAA101000095GA1005+999999999GD10991+9999999GF100991999999999999999999MA1102345102315REMMET09601/05/24 16:51:02 METAR KTEB 052151Z 28005KT 10SM CLR 02/M09 A3022 RMK AO2 SLP232 T00171089 (MC)
0191725025947412024010522517+40859-074056FM-15+0002KTEB V0209999V002152200059N0160935N5+00225-00835102345ADDAA101000095GA1005+999999999GD10991+9999999GF100991999999999999999999MA1102345102315REMMET09601/05/24 17:51:02 METAR KTEB 052251Z VRB04KT 10SM CLR 02/M08 A3022 RMK AO2 SLP234 T00221083 (MC)
0249725025947412024010523517+40859-074056FM-15+0002KTEB V0202405N003152200059N0160935N5+00065-00835102445ADDAA101000095GA1005+999999999GD10991+9999999GF100991999999999999999999KA1060M+00331KA2060N+00001MA1102445102415MD1390089+9999REMMET11401/05/24 18:51:02 METAR KTEB 052351Z 24006KT 10SM CLR 01/M08 A3025 RMK AO2 SLP244 T00061083 10033 20000 53008 (MC)
0187725025947412024010600517+40859-074056FM-15+0002KTEB V0202105N002652200059N0160935N5-00115-00785102375ADDAA101000095GA1005+999999999GD10991+9999999GF100991999999999999999999MA1102375102355REMMET09201/05/24 19:51:01 METAR KTEB 060051Z 21005KT 10SM CLR M01/M08 A3023 RMK AO2 SLP237 T10111078
0187725025947412024010601517+40859-074056FM-15+0002KTEB V0202205N002652200059N0160935N5-00065-00785102355ADDAA101000095GA1005+999999999GD10991+9999999GF100991999999999999999999MA1102375102355REMMET09201/05/24 20:51:01 METAR KTEB 060151Z 22005KT 10SM CLR M01/M08 A3023 RMK AO2 SLP235 T10061078
0206725025947412024010602517+40859-074056FM-15+0002KTEB V0202305N003652200059N0160935N5+00005-00785102355ADDAA101000095GA1005+999999999GD10991+9999999GF100991999999999999999999MA1102375102355MD1690099+9999REMMET09701/05/24 21:51:01 METAR KTEB 060251Z 23007KT 10SM CLR 00/M08 A3023 RMK AO2 SLP235 T00001078 56009
0187725025947412024010603517+40859-074056FM-15+0002KTEB V0202605N002652200059N0160935N5-00115-00725102295ADDAA101000095GA1005+999999999GD10991+9999999GF100991999999999999999999MA1102305102285REMMET09201/05/24 22:51:02 METAR KTEB 060351Z 26005KT 10SM CLR M01/M07 A3021 RMK AO2 SLP229 T10111072
0223725025947412024010604517+40859-074056FM-15+0002KTEB V0201705N001552200059N0160935N5-00225-00785102285ADDAA101000095GA1005+999999999GD10991+9999999GF100991999999999999999999KA1240M+00331KA2240N-00561MA1102305102285REMMET10201/05/24 23:51:02 METAR KTEB 060451Z 17003KT 10SM CLR M02/M08 A3021 RMK AO2 SLP228 T10221078 400331056
0886725025947412024010604596+40859-074056SOD  +0002KTEB V020999999999999999999999999999+99999+99999999999ADDAA124000095KA1240M+00335KA2240N-00555MG1102404102274OE11240089432001295OE22240067131012465OE33240034499999995REMSOD73024 HR PRECIPITATION (IN):0.00  24 HR MAX TEMP (F):38 24 HR MAX TEMP TIME (LST):1439 24 HR MIN TEMP (F):22 24 HR MIN TEMP TIME (LST):0638 AVERAGE STATION PRESSURE:30.240 MINIMUM SEA LEVEL PRESSURE:30.20 TIME OF OCCURRENCE:2359 PEAK WIND SPEED (MPH):20  PEAK WIND DIR (DEG):320 PEAK WIND TIME (LST):0129  FASTEST 2MIN SPEED (MPH):15 FASTEST 2MIN DIR (DEG):310 FASTEST 2MIN TIME (LST):1246 AVERAGE WIND SPEED (MPH):7.7  24 HR AVG TEMP (F):30 HEATING DEGREE DAYS:35  COOLING DEGREE DAYS:0   LATEST DAY MAX TEMP (0700-1900 LST):38  LATEST NIGHT MIN TEMP(1900-0800 LST):22 HOURLY INCREMENTAL PRECIPITATION VALUES (IN):.00 0.00 0.00 0.00 0.00 0.00 0.00 0.00 0.00 0.00 0.00 0.00 0.00 0.00 0.00 0.00 0.00 0.00 0.00 0.00 0.00 0.00 0.00 0.00EQDR01     N7GJS072R02     N7GKS075
0250725025947412024010605517+40859-074056FM-15+0002KTEB V0209999C000052200059N0160935N5-00285-00785102275ADDAA101000095GA1005+999999999GD10991+9999999GF100991999999999999999999KA1060M+00111KA2060N-00331MA1102275102245MD1690089+9999REMMET11501/06/24 00:51:02 METAR KTEB 060551Z 00000KT 10SM CLR M03/M08 A3020 RMK AO2 SLP227 T10281078 10011 21033 56008 (WL)
0192725025947412024010606517+40859-074056FM-15+0002KTEB V0202105N001552200059N0160935N5-00335-00785102345ADDAA101000095GA1005+999999999GD10991+9999999GF100991999999999999999999MA1102345102315REMMET09701/06/24 01:51:02 METAR KTEB 060651Z 21003KT 10SM CLR M03/M08 A3022 RMK AO2 SLP234 T10331078 (WL)
0194725025947412024010607517+40859-074056FM-15+0002KTEB V0209999C000052200059N0160935N5-00335-00725102305ADDAA101000095GA1005+999999999GD10991+9999999GF100991999999999999999999MA1102305102285REMMET09901/06/24 02:51:02 METAR KTEB 060751Z 00000KT 10SM CLR M03/M07 A3021 RMK AO2 SLP230 T10331072 $ (WL)
0214725025947412024010608517+40859-074056FM-15+0002KTEB V0209999C000052200059N0160935N5-00335-00725102275ADDAA101000095GA1005+999999999GD10991+9999999GF100991999999999999999999MA1102275102245MD1090009+9999REMMET10501/06/24 03:51:02 METAR KTEB 060851Z 00000KT 10SM CLR M03/M07 A3020 RMK AO2 SLP227 T10331072 50000 $ (WL)
0194725025947412024010609517+40859-074056FM-15+0002KTEB V0209999C000052200059N0160935N5-00285-00675102245ADDAA101000095GA1005+999999999GD10991+9999999GF100991999999999999999999MA1102245102215REMMET09901/06/24 04:51:02 METAR KTEB 060951Z 00000KT 10SM CLR M03/M07 A3019 RMK AO2 SLP224 T10281067 $ (WL)
0194725025947412024010610517+40859-074056FM-15+0002KTEB V0209999C000052200059N0160935N5-00285-00675102405ADDAA101000095GA1005+999999999GD10991+9999999GF100991999999999999999999MA1102345102315REMMET09901/06/24 05:51:02 METAR KTEB 061051Z 00000KT 10SM CLR M03/M07 A3022 RMK AO2 SLP240 T10281067 $ (WL)
0252725025947412024010611517+40859-074056FM-15+0002KTEB V0209999C000052200059N0160935N5-00335-00615102405ADDAA101000095GA1005+999999999GD10991+9999999GF100991999999999999999999KA1060M-00171KA2060N-00501MA1102345102315MD1390149+9999REMMET11701/06/24 06:51:02 METAR KTEB 061151Z 00000KT 10SM CLR M03/M06 A3022 RMK AO2 SLP240 T10331061 11017 21050 53014 $ (WL)
0194725025947412024010612517+40859-074056FM-15+0002KTEB V0209999C000052200059N0160935N5-00285-00615102405ADDAA101000095GA1005+999999999GD10991+9999999GF100991999999999999999999MA1102345102315REMMET09901/06/24 07:51:02 METAR KTEB 061251Z 00000KT 10SM CLR M03/M06 A3022 RMK AO2 SLP240 T10281061 $ (WL)
0194725025947412024010613517+40859-074056FM-15+0002KTEB V0200205N003152200059N0160935N5-00225-00565102405ADDAA101000095GA1005+999999999GD10991+9999999GF100991999999999999999999MA1102345102315REMMET09901/06/24 08:51:02 METAR KTEB 061351Z 02006KT 10SM CLR M02/M06 A3022 RMK AO2 SLP240 T10221056 $ (WL)
0214725025947412024010614517+40859-074056FM-15+0002KTEB V0203505N002652200059N0160935N5-00115-00505102405ADDAA101000095GA1005+999999999GD10991+9999999GF100991999999999999999999MA1102345102315MD1490009+9999REMMET10501/06/24 09:51:02 METAR KTEB 061451Z 35005KT 10SM CLR M01/M05 A3022 RMK AO2 SLP240 T10111050 54000 $ (RC)
0193725025947412024010615517+40859-074056FM-15+0002KTEB V0200305N003152200059N0160935N5+00005-00445102235ADDAA101000095GA1005+999999999GD10991+9999999GF100991999999999999999999MA1102175102145REMMET09801/06/24 10:51:02 METAR KTEB 061551Z 03006KT 10SM CLR 00/M04 A3017 RMK AO2 SLP223 T00001044 $ (RC)
0237725025947412024010616517+40859-074056FM-15+0002KTEB V0200305N002652200059N0160935N5+00115-00445102195ADDAA101000095GA1045+030485999GD12991+0304859GE19AGL   +99999+99999GF104995999999030481999999MA1102135102115REMMET10101/06/24 11:51:02 METAR KTEB 061651Z 03005KT 10SM SCT100 01/M04 A3016 RMK AO2 SLP219 T00111044 $ (RC)EQDD01      0ADE726
0314725025947412024010617517+40859-074056FM-15+0002KTEB V0200805N00365027435MN0160935N5+00225-00445101995ADDAA101000095GA1075+027435999GA2085+036585999GD13991+0274359GD24991+0365859GE19AGL   +99999+99999GF199999999999027431999999KA1060M+00221KA2060N-00331MA1101935101915MD1890419+9999REMMET12601/06/24 12:51:02 METAR KTEB 061751Z 08007KT 10SM BKN090 OVC120 02/M04 A3010 RMK AO2 SLP199 T00221044 10022 21033 58041 $ (RC)
0218725025947412024010618517+40859-074056FM-15+0002KTEB V0201105N00315024385MN0160935N5+00225-00395101825ADDAA101000095GA1085+024385999GD14991+0243859GE19AGL   +99999+99999GF199999999999024381999999MA1101765101745REMMET10101/06/24 13:51:02 METAR KTEB 061851Z 11006KT 10SM OVC080 02/M04 A3005 RMK AO2 SLP182 T00221039 $ (RC)
0223725025947412024010619496+40859-074056FM-16+0002KTEB V0200705N00365008535MN0144845N5+00205-00305999999ADDAU110030015AW1715GA1075+008535999GA2085+015245999GD13991+0085359GD24991+0152459MA1101695101675MW1715REMMET11101/06/24 14:49:02 SPECI KTEB 061949Z 07007KT 9SM -SN BKN028 OVC050 02/M03 A3003 RMK AO2 SNB31 P0000 $ FIBI (RC)
0294725025947412024010619517+40859-074056FM-15+0002KTEB V0200805N00365008535MN0144845N5+00225-00335101755ADDAA101000025AU110030015AW1715GA1075+008535999GA2085+015245999GD13991+0085359GD24991+0152459GE19AGL   +99999+99999GF199999999999008531999999MA1101695101675MW1715REMMET12301/06/24 14:51:02 METAR KTEB 061951Z 08007KT 9SM -SN BKN028 OVC050 02/M03 A3003 RMK AO2 SNB31 SLP175 P0000 T00221033 $ (RC)
0263725025947412024010620407+40859-074056FM-16+0002KTEB V0200705N00365002745MN0032195N5+00175-00225999999ADDAA101000021AU110030015AU200001015AW1105AW2715GA1085+002745999GD14991+0027459GE19AGL   +99999+99999GF199999999999002741999999MA1101635101605MW1715REMMET10601/06/24 15:40:02 SPECI KTEB 062040Z 07007KT 2SM -SN BR OVC009 02/M02 A3001 RMK AO2 P0000 T00171022 $ (BR)
0326725025947412024010620517+40859-074056FM-15+0002KTEB V0200605N00415002445MN0032195N5+00115-00175101695ADDAA101000025AA203000021AU110030015AU200001015AW1105AW2715GA1085+002445999GD14991+0024459GE19AGL   +99999+99999GF199999999999002441999999MA1101635101605MD1690309+9999MW1715REMMET12501/06/24 15:51:02 METAR KTEB 062051Z 06008KT 2SM -SN BR OVC008 01/M02 A3001 RMK AO2 SLP169 P0000 60000 T00111017 56030 $ (BR)EQDQ01  00008PRCP03
0248725025947412024010621517+40859-074056FM-15+0002KTEB V0200605N00365002445MN0032195N5+00115-00065999999ADDAA101000895AU110030015AU200001015AW1105AW2715GA1085+002445999GD14991+0024459GE19AGL   +99999+99999GF199999999999002441999999MW1715REMMET10601/06/24 16:51:02 METAR KTEB 062151Z 06007KT 2SM -SN BR OVC008 01/M01 RMK AO2 SLPNO P0003 T00111006 $ (BR)
0280725025947412024010621587+40859-074056FM-16+0002KTEB V0200605N00365005185MN0048285N5+00115-00065999999ADDAA101000021AU110030015AU200001015AW1105AW2715GA1045+003965999GA2085+005185999GD12991+0039659GD24991+0051859GE19AGL   +99999+99999GF199999999999003961999999MW1715REMMET10701/06/24 16:58:02 SPECI KTEB 062158Z 06007KT 3SM -SN BR SCT013 OVC017 01/M01 RMK AO2 P0000 T00111006 $ (BR)
0284725025947412024010622107+40859-074056FM-16+0002KTEB V0200605N00415003355MN0040235N5+00065-00065999999ADDAA101000531AU110030015AU200001015AW1105AW2715GA1075+003355999GA2085+005185999GD13991+0033559GD24991+0051859GE19AGL   +99999+99999GF199999999999003351999999MW1715REMMET11101/06/24 17:10:02 SPECI KTEB 062210Z 06008KT 2 1/2SM -SN BR BKN011 OVC017 01/M01 RMK AO2 P0002 T00061006 $ (BR)
0284725025947412024010622197+40859-074056FM-16+0002KTEB V0200605N00365002745MN0040235N5+00115-00065999999ADDAA101000731AU110030015AU200001015AW1105AW2715GA1075+002745999GA2085+005185999GD13991+0027459GD24991+0051859GE19AGL   +99999+99999GF199999999999002741999999MW1715REMMET11101/06/24 17:19:02 SPECI KTEB 062219Z 06007KT 2 1/2SM -SN BR BKN009 OVC017 01/M01 RMK AO2 P0003 T00111006 $ (BR)
0280725025947412024010622267+40859-074056FM-16+0002KTEB V0200505N00365002745MN0048285N5+00065-00065999999ADDAA101001031AU110030015AU200001015AW1105AW2715GA1075+002745999GA2085+005185999GD13991+0027459GD24991+0051859GE19AGL   +99999+99999GF199999999999002741999999MW1715REMMET10701/06/24 17:26:02 SPECI KTEB 062226Z 05007KT 3SM -SN BR BKN009 OVC017 01/M01 RMK AO2 P0004 T00061006 $ (BR)
0308725025947412024010622517+40859-074056FM-15+0002KTEB V0200705N00415002135MN0048285N5+00115-00065101485ADDAA101002095AU110030015AU200001015AW1105AW2715GA1075+002135999GA2085+005185999GD13991+0021359GD24991+0051859GE19AGL   +99999+99999GF199999999999002131999999MA1101425101405MW1715REMMET12001/06/24 17:51:02 METAR KTEB 062251Z 07008KT 3SM -SN BR BKN007 OVC017 01/M01 A2995 RMK AO2 SLP148 P0007 T00111006 $ (BR)
0274725025947412024010623177+40859-074056FM-16+0002KTEB V0200605N00315002445MN0032195N5+00115+00005999999ADDAA101001031AU110030015AU200001015AW1105AW2715GA1085+002445999GD14991+0024451GE19AGL   +99999+99999GF199999999999002441999999MA1101325101305MW1715REMMET11701/06/24 18:17:02 SPECI KTEB 062317Z 06006KT 2SM -SN BR OVC008 01/00 A2992 RMK AO2 CIG 007V012 P0004 T00110000 $ (BR)
0354725025947412024010623517+40859-074056FM-15+0002KTEB V0200705N00575002135MN0032195N5+00115+00005101385ADDAA101002895AA206005191AU110030015AU200001015AW1105AW2715GA1085+002135999GD14991+0021359GE19AGL   +99999+99999GF199999999999002131999999KA1060M+00281KA2060N+00061MA1101325101305MW1715OC100825REMMET13301/06/24 18:51:02 METAR KTEB 062351Z 07011G16KT 2SM -SN BR OVC007 01/00 A2992 RMK AO2 SLP138 P0010 60020 T00110000 10028 20006 $ (BR)EQDQ01  00508PRCP06
0275725025947412024010700517+40859-074056FM-15+0002KTEB V0200705N00675002135MN0032195N5+00175+00005101115ADDAA101002895AU110030015AU200001015AW1105AW2715GA1085+002135999GD14991+0021359GE19AGL   +99999+99999GF199999999999002131999999MA1101055101035MW1715OC100985REMMET11001/06/24 19:51:01 METAR KTEB 070051Z 07013G19KT 2SM -SN BR OVC007 02/00 A2984 RMK AO2 SLP111 P0013 T00170000 $
0240725025947412024010701496+40859-074056FM-16+0002KTEB V0200605N00575002745MN0048285N5+00205+00105999999ADDAU110020025AU220030035AU300001015AW1105AW2615AW3715GA1085+002745999GD14991+0027459MA1100855100825MW1615MW2715OC101035REMMET11101/06/24 20:49:03 SPECI KTEB 070149Z 06011G20KT 3SM -RASN BR OVC009 02/01 A2978 RMK AO2 RAB49 P0007 $ FIBI (WL)
0311725025947412024010701517+40859-074056FM-15+0002KTEB V0200605N00465002745MN0048285N5+00225+00065100915ADDAA101002395AU120020025AU220030035AU300001015AW1105AW2625AW3681AW4725GA1085+002745999GD14991+0027459GE19AGL   +99999+99999GF199999999999002741999999MA1100855100825MW1655MW2735OC101035REMMET11701/06/24 20:51:01 METAR KTEB 070151Z 06009G20KT 3SM RASN BR OVC009 02/01 A2978 RMK AO2 RAB49 SLP091 P0007 T00220006 $
0220725025947412024010702496+40859-074056FM-16+0002KTEB V0200405N00625002745MN0024145N5+00105-00105999999ADDAU110030015AU200001015AW1105AW2715GA1085+002745999GD14991+0027459MA1100645100625MW1715OC100885REMMET11401/06/24 21:49:03 SPECI KTEB 070249Z 04012G17KT 1 1/2SM -SN BR OVC009 01/M01 A2972 RMK AO2 RAE14 P0013 $ FIBI (WL)
0342725025947412024010702517+40859-074056FM-15+0002KTEB V0200405N00575002745MN0024145N5+00065-00065100705ADDAA101003395AA203008691AU110030015AU200001015AW1105AW2715GA1085+002745999GD14991+0027459GE19AGL   +99999+99999GF199999999999002741999999MA1100645100625MD1690689+9999MW1715OC100885REMMET13301/06/24 21:51:01 METAR KTEB 070251Z 04011G17KT 1 1/2SM -SN BR OVC009 01/M01 A2972 RMK AO2 RAE14 SLP070 P0014 60034 T00061006 56068 $EQDQ01  00868PRCP03
0210725025947412024010703496+40859-074056FM-16+0002KTEB V0200305N00365002745MN0048285N5+00105-00105999999ADDAU110030015AU200001015AW1105AW2715GA1085+002745999GD14991+0027459MA1100615100595MW1715OC100825REMMET10401/06/24 22:49:03 SPECI KTEB 070349Z 03007G16KT 3SM -SN BR OVC009 01/M01 A2971 RMK AO2 P0005 $ FIBI (WL)
0276725025947412024010703517+40859-074056FM-15+0002KTEB V0200305N00365002745MN0048285N5+00065-00065100675ADDAA101001095AU110030015AU200001015AW1105AW2715GA1085+002745999GD14991+0027459GE19AGL   +99999+99999GF199999999999002741999999MA1100615100595MW1715OC100825REMMET11101/06/24 22:51:02 METAR KTEB 070351Z 03007G16KT 3SM -SN BR OVC009 01/M01 A2971 RMK AO2 SLP067 P0005 T00061006 $
0210725025947412024010704496+40859-074056FM-16+0002KTEB V0200305N00365003665MN0064375N5+00105-00105999999ADDAU110030015AU200001015AW1105AW2715GA1085+003665999GD14991+0036659MA1100585100555MW1715OC100775REMMET10401/06/24 23:49:03 SPECI KTEB 070449Z 03007G15KT 4SM -SN BR OVC012 01/M01 A2970 RMK AO2 P0001 $ FIBI (WL)
0312725025947412024010704517+40859-074056FM-15+0002KTEB V0200305N00415003665MN0064375N5+00115-00065100645ADDAA101000395AU110030015AU200001015AW1105AW2715GA1085+003665999GD14991+0036659GE19AGL   +99999+99999GF199999999999003661999999KA1240M+00281KA2240N-00501MA1100585100555MW1715OC100775REMMET12101/06/24 23:51:02 METAR KTEB 070451Z 03008G15KT 4SM -SN BR OVC012 01/M01 A2970 RMK AO2 SLP064 P0001 T00111006 400281050 $
0922725025947412024010704596+40859-074056SOD  +0002KTEB V020999999999999999999999999999+99999+99999999999ADDAA124015295AT1AU16RA  5AT2AU18SN  5AT3AU13BR  5KA1240M+00285KA2240N-00495MG1101984102244OE11240111803022255OE22240076008019065OE33240027399999995REMSOD73024 HR PRECIPITATION (IN):0.60  24 HR MAX TEMP (F):37 24 HR MAX TEMP TIME (LST):1430 24 HR MIN TEMP (F):23 24 HR MIN TEMP TIME (LST):0323 AVERAGE STATION PRESSURE:30.115 MINIMUM SEA LEVEL PRESSURE:30.19 TIME OF OCCURRENCE:0551 PEAK WIND SPEED (MPH):25  PEAK WIND DIR (DEG):30  PEAK WIND TIME (LST):2225  FASTEST 2MIN SPEED (MPH):17 FASTEST 2MIN DIR (DEG):80  FASTEST 2MIN TIME (LST):1906 AVERAGE WIND SPEED (MPH):6.1  24 HR AVG TEMP (F):30 HEATING DEGREE DAYS:35  COOLING DEGREE DAYS:0   LATEST DAY MAX TEMP (0700-1900 LST):37  LATEST NIGHT MIN TEMP(1900-0800 LST):23 HOURLY INCREMENTAL PRECIPITATION VALUES (IN):.00 0.00 0.00 0.00 0.00 0.00 0.00 0.00 0.00 0.00 0.00 0.00 0.00 0.00 T    T    0.03 0.08 0.11 0.11 0.09 0.13 0.04 0.01EQDR01     N7GJS072R02     N7GKS075
0364725025947412024010705517+40859-074056FM-15+0002KTEB V0200205N00315003665MN0048285N5+00115-00065100645ADDAA101000895AA206010991AU110030015AU200001015AW1105AW2715GA1085+003665999GD14991+0036659GE19AGL   +99999+99999GF199999999999003661999999KA1060M+00221KA2060N+00061MA1100585100555MD1690079+9999MW1715REMMET13701/07/24 00:51:02 METAR KTEB 070551Z 02006KT 3SM -SN BR OVC012 01/M01 A2970 RMK AO2 SLP064 P0003 60043 T00111006 10022 20006 56007 $ (WL)EQDQ01  01098PRCP06
0280725025947412024010706517+40859-074056FM-15+0002KTEB V0200305N00575003665MN0048285N5+00115+00005100575ADDAA101000395AU110030015AU200001015AW1105AW2715GA1085+003665999GD14991+0036659GE19AGL   +99999+99999GF199999999999003661999999MA1100515100485MW1715OC100885REMMET11501/07/24 01:51:02 METAR KTEB 070651Z 03011G17KT 3SM -SN BR OVC012 01/00 A2968 RMK AO2 SLP057 P0001 T00110000 $ (WL)
0259725025947412024010707517+40859-074056FM-15+0002KTEB V0200405N00515003355MN0048285N5+00115+00005100505ADDAA101000025AU100001015AW1105GA1085+003355999GD14991+0033559GE19AGL   +99999+99999GF199999999999003351999999MA1100445100425OC100825REMMET11701/07/24 02:51:02 METAR KTEB 070751Z 04010G16KT 3SM BR OVC011 01/00 A2966 RMK AO2 SNE02 SLP050 P0000 T00110000 $ (WL)
0298725025947412024010708517+40859-074056FM-15+0002KTEB V0200305N00365003355MN0048285N5+00175+00065100435ADDAA101000395AA203000591AU100001015AW1105GA1085+003355999GD14991+0033559GE19AGL   +99999+99999GF199999999999003351999999MA1100375100355MD1790209+9999REMMET12001/07/24 03:51:02 METAR KTEB 070851Z 03007KT 3SM BR OVC011 02/01 A2964 RMK AO2 SLP043 P0001 60002 T00170006 57020 $ (WL)EQDQ01  00058PRCP03
0242725025947412024010709517+40859-074056FM-15+0002KTEB V0200205N00415003355MN0064375N5+00175+00065100435ADDAA101000395AU100001015AW1105GA1085+003355999GD14991+0033559GE19AGL   +99999+99999GF199999999999003351999999MA1100375100355REMMET10801/07/24 04:51:02 METAR KTEB 070951Z 02008KT 4SM BR OVC011 02/01 A2964 RMK AO2 SLP043 P0001 T00170006 $ (WL)
0254725025947412024010710517+40859-074056FM-15+0002KTEB V0200305N00315003355MN0048285N5+00175+00065100435ADDAA101000395AU100001015AW1105GA1085+003355999GD14991+0033551GE19AGL   +99999+99999GF199999999999003351999999MA1100375100355REMMET12001/07/24 05:51:02 METAR KTEB 071051Z 03006KT 3SM BR OVC011 02/01 A2964 RMK AO2 CIG 007V013 SLP043 P0001 T00170006 $ (WL)
0407725025947412024010711517+40859-074056FM-15+0002KTEB V0203605N00315002135MN0064375N5+00175+00065100435ADDAA101000595AA206001391AA324017391AU100001015AW1105GA1075+002135999GA2085+003965999GD13991+0021359GD24991+0039659GE19AGL   +99999+99999GF199999999999002131999999KA1060M+00171KA2060N+00111MA1100375100355MD1490009+9999REMMET14501/07/24 06:51:02 METAR KTEB 071151Z 36006KT 4SM BR BKN007 OVC013 02/01 A2964 RMK AO2 SLP043 P0001 60005 70068 T00170006 10017 20011 54000 $ (WL)EQDQ01  00128PRCP06Q02  01728PRCP24
0273725025947412024010712077+40859-074056FM-16+0002KTEB V0200105N00415002135MN0032195N5+00175+00065999999ADDAA101000231AU100001015AW1105GA1075+002135999GA2085+003965999GD13991+0021359GD24991+0039659GE19AGL   +99999+99999GF199999999999002131999999MA1100275100255REMMET10801/07/24 07:07:02 SPECI KTEB 071207Z 01008KT 2SM BR BKN007 OVC013 02/01 A2961 RMK AO2 P0001 T00170006 $ (WL)
0280725025947412024010712517+40859-074056FM-15+0002KTEB V0203605N00365002135MN0032195N5+00115+00065100335ADDAA101000595AU100001015AW1105GA1075+002135999GA2085+003965999GD13991+0021359GD24991+0039659GE19AGL   +99999+99999GF199999999999002131999999MA1100275100255REMMET11501/07/24 07:51:02 METAR KTEB 071251Z 36007KT 2SM BR BKN007 OVC013 01/01 A2961 RMK AO2 SLP033 P0002 T00110006 $ (WL)
0256725025947412024010712547+40859-074056FM-16+0002KTEB V0200105N00365003965MN0080475N5+00115+00065999999ADDAU100001015AW1105GA1045+002135999GA2085+003965999GD12991+0021359GD24991+0039659GE19AGL   +99999+99999GF199999999999002131999999MA1100245100215REMMET10201/07/24 07:54:02 SPECI KTEB 071254Z 01007KT 5SM BR SCT007 OVC013 01/01 A2960 RMK AO2 T00110006 $ (WL)
0273725025947412024010713137+40859-074056FM-16+0002KTEB V0200105N00415002135MN0080475N5+00115+00065999999ADDAA101000231AU100001015AW1105GA1075+002135999GA2085+004275999GD13991+0021359GD24991+0042759GE19AGL   +99999+99999GF199999999999002131999999MA1100245100215REMMET10801/07/24 08:13:02 SPECI KTEB 071313Z 01008KT 5SM BR BKN007 OVC014 01/01 A2960 RMK AO2 P0001 T00110006 $ (WL)
0311725025947412024010713207+40859-074056FM-16+0002KTEB V0203505N00315003665MN0096565N5+00115+00065999999ADDAA101000231AU100001015AW1105GA1045+001835999GA2075+003665999GA3085+005185999GD12991+0018359GD23991+0036659GD34991+0051859GE19AGL   +99999+99999GF199999999999001831999999MA1100245100215REMMET11501/07/24 08:20:02 SPECI KTEB 071320Z 35006KT 6SM BR SCT006 BKN012 OVC017 01/01 A2960 RMK AO2 P0001 T00110006 $ (WL)
0273725025947412024010713367+40859-074056FM-16+0002KTEB V0203505N00365002445MN0128755N5+00115+00065999999ADDAA101000231AU100001015AW1105GA1075+002445999GA2085+004575999GD13991+0024459GD24991+0045759GE19AGL   +99999+99999GF199999999999002441999999MA1100245100215REMMET10801/07/24 08:36:02 SPECI KTEB 071336Z 35007KT 8SM BR BKN008 OVC015 01/01 A2960 RMK AO2 P0001 T00110006 $ (WL)
0242725025947412024010713517+40859-074056FM-15+0002KTEB V0203605N00415002135MN0032195N5+00115+00065100305ADDAA101000395AU100001015AW1105GA1085+002135999GD14991+0021359GE19AGL   +99999+99999GF199999999999002131999999MA1100245100215REMMET10801/07/24 08:51:02 METAR KTEB 071351Z 36008KT 2SM BR OVC007 01/01 A2960 RMK AO2 SLP030 P0001 T00110006 $ (WL)
0336725025947412024010714517+40859-074056FM-15+0002KTEB V0203605N00365001835MN0032195N5+00175+00065100305ADDAA101000395AA203001391AU100001015AW1105GA1075+001835999GA2085+004275999GD13991+0018359GD24991+0042759GE19AGL   +99999+99999GF199999999999001831999999MA1100245100215MD1690149+9999REMMET12701/07/24 09:51:02 METAR KTEB 071451Z 36007KT 2SM BR BKN006 OVC014 02/01 A2960 RMK AO2 SLP030 P0002 60005 T00170006 56014 $ (WL)EQDQ01  00128PRCP03
0256725025947412024010714587+40859-074056FM-16+0002KTEB V0200105N00315001835MN0064375N5+00175+00065999999ADDAU100001015AW1105GA1075+001835999GA2085+004275999GD13991+0018359GD24991+0042759GE19AGL   +99999+99999GF199999999999001831999999MA1100245100215REMMET10201/07/24 09:58:02 SPECI KTEB 071458Z 01006KT 4SM BR BKN006 OVC014 02/01 A2960 RMK AO2 T00170006 $ (WL)
0313725025947412024010715517+40859-074056FM-15+0002KTEB V0203005N00415002135MN0064375N5+00115+00005100305ADDAA101000395AU110030015AU200001015AW1105AW2715GA1075+002135999GA2085+003665999GD13991+0021359GD24991+0036659GE19AGL   +99999+99999GF199999999999002131999999MA1100245100215MW1715REMMET12501/07/24 10:51:02 METAR KTEB 071551Z 30008KT 4SM -SN BR BKN007 OVC012 01/00 A2960 RMK AO2 SNB36 SLP030 P0001 T00110000 $ (WL)
0265725025947412024010716087+40859-074056FM-16+0002KTEB V0203005N00415001225MN0024145N5+00065+00005999999ADDAA101000231AU120030015AU200001015AW1105AW2725GA1085+001225999GD14991+0012259GE19AGL   +99999+99999GF199999999999001221999999MA1100245100215MW1735REMMET10801/07/24 11:08:02 SPECI KTEB 071608Z 30008KT 1 1/2SM SN BR OVC004 01/00 A2960 RMK AO2 P0001 T00060000 $ (WL)
0301725025947412024010716517+40859-074056FM-15+0002KTEB V0203105N00415001225MN0024145N5+00065-00065100305ADDAA101001595AU120030015AU200001015AW1105AW2725ED106U13729GA1085+001225999GD14991+0012259GE19AGL   +99999+99999GF199999999999001221999999MA1100245100215MW1735REMMET13301/07/24 11:51:02 METAR KTEB 071651Z 31008KT 1 1/2SM R06/4500VP6000FT SN BR OVC004 01/M01 A2960 RMK AO2 SLP030 P0006 T00061006 $ (AB)
0262725025947412024010717057+40859-074056FM-16+0002KTEB V0203105N00365001225MN0048285N5+00065+00005999999ADDAA101000231AU110030015AU200001015AW1105AW2715GA1085+001225999GD14991+0012259GE19AGL   +99999+99999GF199999999999001221999999MA1100305100285MW1715REMMET10501/07/24 12:05:02 SPECI KTEB 071705Z 31007KT 3SM -SN BR OVC004 01/00 A2962 RMK AO2 P0001 T00060000 $ (AB)
0262725025947412024010717127+40859-074056FM-16+0002KTEB V0203305N00365001225MN0032195N5+00065+00005999999ADDAA101000231AU110030015AU200001015AW1105AW2715GA1085+001225999GD14991+0012259GE19AGL   +99999+99999GF199999999999001221999999MA1100305100285MW1715REMMET10501/07/24 12:12:02 SPECI KTEB 071712Z 33007KT 2SM -SN BR OVC004 01/00 A2962 RMK AO2 P0001 T00060000 $ (AB)
0373725025947412024010717517+40859-074056FM-15+0002KTEB V0203405N00465001225MN0032195N5+00115+00005100375ADDAA101000595AA206003691AU120090015AU200001015AW1105AW2401AW3415GA1085+001225999GD14991+0012259GE19AGL   +99999+99999GF199999999999001221999999KA1060M+00171KA2060N+00061MA1100305100285MD1390079+9999REMMET14601/07/24 12:51:02 METAR KTEB 071751Z 34009KT 2SM UP BR OVC004 01/00 A2962 RMK AO2 UPB48SNE48 SLP037 P0002 60014 T00110000 10017 20006 53007 $ (AB)EQDQ01  00358PRCP06
0241725025947412024010717587+40859-074056FM-16+0002KTEB V0203405N00365002135MN0080475N5+00115+00005999999ADDAA101000021AU100001015AW1105GA1085+002135999GD14991+0021359GE19AGL   +99999+99999GF199999999999002131999999MA1100275100255REMMET10701/07/24 12:58:02 SPECI KTEB 071758Z 34007KT 5SM BR OVC007 01/00 A2961 RMK AO2 UPE55 P0000 T00110000 $ (AB)
0243725025947412024010718067+40859-074056FM-16+0002KTEB V0203505N00465003665MN0080475N5+00175+00065999999ADDAA101000021AU100001015AW1105GA1085+003665999GD14991+0036659GE19AGL   +99999+99999GF199999999999003661999999MA1100275100255REMMET10901/07/24 13:06:02 SPECI KTEB 071806Z 35009KT 5SM BR OVC012 02/01 A2961 RMK AO2 UPE1755 P0000 T00170006 $ (AB)
0319725025947412024010718187+40859-074056FM-16+0002KTEB V0203405N00465013415MN0080475N5+00225+00005999999ADDAA101000021AU100001015AW1105GA1025+002745999GA2045+010975999GA3085+013415999GD11991+0027459GD22991+0109759GD34991+0134159GE19AGL   +99999+99999GF199999999999002741999999MA1100275100255REMMET12301/07/24 13:18:02 SPECI KTEB 071818Z 34009KT 5SM BR FEW009 SCT036 OVC044 02/00 A2961 RMK AO2 UPE1755 P0000 T00220000 $ (AB)
0332725025947412024010718517+40859-074056FM-15+0002KTEB V0203605N00365009455MN0080475N5+00285+00005100335ADDAA101000095AU100007015AW1051GA1025+003665999GA2075+009455999GA3085+013115999GD11991+0036659GD23991+0094559GD34991+0131159GE19AGL   +99999+99999GF199999999999003661999999MA1100275100255MW1055REMMET13001/07/24 13:51:02 METAR KTEB 071851Z 36007KT 5SM HZ FEW012 BKN031 OVC043 03/00 A2961 RMK AO2 UPE1755 SLP033 P0000 T00280000 $ (AB)
0223725025947412024010719496+40859-074056FM-16+0002KTEB V0203505N00315006105MN0160935N5+00305-00105999999ADDGA1075+006105999GA2075+008845999GA3085+012505999GD13991+0061059GD23991+0088459GD34991+0125059MA1100375100355REMMET10301/07/24 14:49:02 SPECI KTEB 071949Z 35006KT 10SM BKN020 BKN029 OVC041 03/M01 A2964 RMK AO2 $ FIBI (AB)
0294725025947412024010719517+40859-074056FM-15+0002KTEB V0203505N00415006105MN0160935N5+00285-00065100435ADDAA101000095GA1075+006105999GA2075+008845999GA3085+012505999GD13991+0061059GD23991+0088459GD34991+0125059GE19AGL   +99999+99999GF199999999999006101999999MA1100375100355REMMET11501/07/24 14:51:02 METAR KTEB 071951Z 35008KT 10SM BKN020 BKN029 OVC041 03/M01 A2964 RMK AO2 SLP043 T00281006 $ (AB)
0185725025947412024010720496+40859-074056FM-16+0002KTEB V0203305N00365010365MN0160935N5+00205-00205999999ADDGA1045+008235999GA2085+010365999GD12991+0082359GD24991+0103659MA1100515100485REMMET09601/07/24 15:49:02 SPECI KTEB 072049Z 33007KT 10SM SCT027 OVC034 02/M02 A2968 RMK AO2 $ FIBI (BR)
0293725025947412024010720517+40859-074056FM-15+0002KTEB V0203305N00515010365MN0160935N5+00225-00175100575ADDAA101000095AA203000021GA1045+008235999GA2085+010365999GD12991+0082359GD24991+0103659GE19AGL   +99999+99999GF199999999999008231999999MA1100515100485MD1390209+9999REMMET12001/07/24 15:51:02 METAR KTEB 072051Z 33010KT 10SM SCT027 OVC034 02/M02 A2968 RMK AO2 SLP057 60000 T00221017 53020 $ (BR)
0217725025947412024010721327+40859-074056FM-16+0002KTEB V0203205N00415003665MN0160935N5+00175-00175999999ADDGA1075+003665999GA2085+010065999GD13991+0036659GD24991+0100659GE19AGL   +99999+99999GF199999999999003661999999REMMET09501/07/24 16:32:02 SPECI KTEB 072132Z 32008KT 10SM BKN012 OVC033 02/M02 RMK AO2 T00171017 $ (BR)
0281725025947412024010721517+40859-074056FM-15+0002KTEB V0203305N00365003665MN0080475N5+00175-00175100705ADDAA101000095AU100007015AW1051GA1075+003665999GA2085+010065999GD13991+0036659GD24991+0100659GE19AGL   +99999+99999GF199999999999003661999999MA1100645100625MW1055REMMET11001/07/24 16:51:02 METAR KTEB 072151Z 33007KT 5SM HZ BKN012 OVC033 02/M02 A2972 RMK AO2 SLP070 T00171017 $ (BR)
0204725025947412024010722017+40859-074056FM-16+0002KTEB V0203305N00365003665MN0080475N5+00175-00115999999ADDAU100007015AW1051GA1085+003665999GD14991+0036659GE19AGL   +99999+99999GF199999999999003661999999MW1055REMMET09001/07/24 17:01:02 SPECI KTEB 072201Z 33007KT 5SM HZ OVC012 02/M01 RMK AO2 T00171011 $ (BR)
0217725025947412024010722517+40859-074056FM-15+0002KTEB V0203205N00415003355MN0128755N5+00175-00175100875ADDAA101000095GA1085+003355999GD14991+0033559GE19AGL   +99999+99999GF199999999999003351999999MA1100815100795REMMET10001/07/24 17:51:02 METAR KTEB 072251Z 32008KT 8SM OVC011 02/M02 A2977 RMK AO2 SLP087 T00171017 $ (BR)
0238725025947412024010723496+40859-074056FM-16+0002KTEB V0203305N00315009455MN0160935N5+00105-00205999999ADDGA1025+007625999GA2075+009455999GA3085+012195999GD11991+0076259GD23991+0094559GD34991+0121959MA1100985100965REMMET11801/07/24 18:49:02 SPECI KTEB 072349Z 33006KT 10SM FEW025 BKN031 OVC040 01/M02 A2982 RMK AO2 SNB07E43 P0000 $ FIBI (BR)
0365725025947412024010723517+40859-074056FM-15+0002KTEB V0203305N00265012195MN0160935N5+00115-00175101045ADDAA101000025AA206000021GA1045+008845999GA2085+012195999GD12991+0088459GD24991+0121959GE19AGL   +99999+99999GF199999999999008841999999KA1060M+00281KA2060N+00111MA1100985100965MD1390479+9999REMMET14701/07/24 18:51:02 METAR KTEB 072351Z 33005KT 10SM SCT029 OVC040 01/M02 A2982 RMK AO2 SNB07E43 SLP104 P0000 60000 T00111017 10028 20011 53047 $ (BR)EQDQ01  00008PRCP06
0232725025947412024010800517+40859-074056FM-15+0002KTEB V0209999V002152200059N0160935N5+00115-00225101215ADDAA101000095GA1025+012505999GD11991+0125059GE19AGL   +99999+99999GF102995999999012501999999MA1101155101135REMMET09601/07/24 19:51:01 METAR KTEB 080051Z VRB04KT 10SM FEW041 01/M02 A2987 RMK AO2 SLP121 T00111022 $EQDD01      0ADE726
0199725025947412024010801517+40859-074056FM-15+0002KTEB V0203105N006252200059N0160935N5+00225-00395101355ADDAA101000095GA1005+999999999GD10991+9999999GF100991999999999999999999MA1101295101265OC101035REMMET09601/07/24 20:51:01 METAR KTEB 080151Z 31012G20KT 10SM CLR 02/M04 A2991 RMK AO2 SLP135 T00221039 $
0233725025947412024010802517+40859-074056FM-15+0002KTEB V0203105N00265010675MN0160935N5+00115-00335101455ADDAA101000095GA1075+010675999GD13991+0106759GE19AGL   +99999+99999GF199999999999010671999999MA1101395101365MD1190419+9999REMMET10201/07/24 21:51:01 METAR KTEB 080251Z 31005KT 10SM BKN035 01/M03 A2994 RMK AO2 SLP145 T00111033 51041 $
0224725025947412024010803517+40859-074056FM-15+0002KTEB V0203205N00515009145MN0160935N5+00175-00335101555ADDAA101000095GA1085+009145999GD14991+0091459GE19AGL   +99999+99999GF199999999999009141999999MA1101495101475OC101185REMMET09901/07/24 22:51:02 METAR KTEB 080351Z 32010G23KT 10SM OVC030 02/M03 A2997 RMK AO2 SLP155 T00171033 $
0227725025947412024010804517+40859-074056FM-15+0002KTEB V0203105N00365010365MN0160935N5+00175-00335999999ADDAA101000095GA1085+010365999GD14991+0103659GE19AGL   +99999+99999GF199999999999010361999999KA1240M+00281KA2240N+00061REMMET09901/07/24 23:51:02 METAR KTEB 080451Z 31007KT 10SM OVC034 02/M03 RMK AO2 SLPNO T00171033 400280006 $
0877725025947412024010804596+40859-074056SOD  +0002KTEB V020999999999999999999999999999+99999+99999999999ADDAA124005695AT1AU18SN  5AT2AU13BR  5AT3AU19UP  5AT4AU08HZ  5KA1240M+00285KA2240N+00065MG1100599999994OE11240116233022455OE22240076032022565OE33240039399999995REMSOD67324 HR PRECIPITATION (IN):0.22  24 HR MAX TEMP (F):37 24 HR MAX TEMP TIME (LST):1500 24 HR MIN TEMP (F):33 24 HR MIN TEMP TIME (LST):1918 AVERAGE STATION PRESSURE:29.705 PEAK WIND SPEED (MPH):26  PEAK WIND DIR (DEG):330 PEAK WIND TIME (LST):2245  FASTEST 2MIN SPEED (MPH):17 FASTEST 2MIN DIR (DEG):320 FASTEST 2MIN TIME (LST):2256 AVERAGE WIND SPEED (MPH):8.8  24 HR AVG TEMP (F):35 HEATING DEGREE DAYS:30  COOLING DEGREE DAYS:0   LATEST DAY MAX TEMP (0700-1900 LST):37  LATEST NIGHT MIN TEMP(1900-0800 LST):33 HOURLY INCREMENTAL PRECIPITATION VALUES (IN):.03 0.01 T    0.01 0.01 0.01 0.02 0.02 0.01 0.01 0.01 0.06 0.02 0.00 0.00 0.00 0.00 0.00 T    0.00 0.00 0.00 0.00 0.00EQDR01     N7GJS072R02     N7GKS075
0256725025947412024010805517+40859-074056FM-15+0002KTEB V0203305N00415009455MN0160935N5+00175-00335101725ADDAA101000095GA1085+009455999GD14991+0094559GE19AGL   +99999+99999GF199999999999009451999999KA1060M+00221KA2060N+00061MA1101665101645REMMET11301/08/24 00:51:02 METAR KTEB 080551Z 33008KT 10SM OVC031 02/M03 A3002 RMK AO2 SLP172 T00171033 10022 20006 $ (WL)
0196725025947412024010806517+40859-074056FM-15+0002KTEB V0203205N00465010365MN0160935N5+00175-00335999999ADDAA101000095GA1085+010365999GD14991+0103659GE19AGL   +99999+99999GF199999999999010361999999REMMET09401/08/24 01:51:02 METAR KTEB 080651Z 32009KT 10SM OVC034 02/M03 RMK AO2 SLPNO T00171033 $ (WL)
0207725025947412024010807517+40859-074056FM-15+0002KTEB V0203205N00825010975MN0160935N5+00225-00395999999ADDAA101000095GA1085+010975999GD14991+0109759GE19AGL   +99999+99999GF199999999999010971999999OC101245REMMET09701/08/24 02:51:02 METAR KTEB 080751Z 32016G24KT 10SM OVC036 02/M04 RMK AO2 SLPNO T00221039 $ (WL)
0171725025947412024010808517+40859-074056FM-15+0002KTEB V0203105N006752200059N0160935N5+00175-00445999999ADDAA101000095GA1005+999999999GD10991+9999999GF100991999999999999999999REMMET09101/08/24 03:51:02 METAR KTEB 080851Z 31013KT 10SM CLR 02/M04 RMK AO2 SLPNO T00171044 $ (WL)
0239725025947412024010809517+40859-074056FM-15+0002KTEB V0203405N00675011585MN0160935N5+00225-00505999999ADDAA101000095GA1075+011585999GD13991+0115859GE19AGL   +99999+99999GF199999999999011581999999OC101135OD149901391340REMMET11501/08/24 04:51:02 METAR KTEB 080951Z 34013G22KT 10SM BKN038 02/M05 RMK AO2 PK WND 34027/0938 SLPNO T00221050 $ (WL)
0298725025947412024010810517+40859-074056FM-15+0002KTEB V0203305N005752200059N0160935N5+00225-00505102195ADDAA101000095AU100003015AW1041AW2055GA1025+011585999GD11991+0115859GE19AGL   +99999+99999GF102995999999011581999999MA1102135102115MW1045OC101035REMMET12501/08/24 05:51:02 METAR KTEB 081051Z 33011G20KT 10SM FU FEW038 02/M05 A3016 RMK AO2 PK WND 33027/1019 SLP219 T00221050 $ (WL)EQDD01      0ADE726
0335725025947412024010811517+40859-074056FM-15+0002KTEB V0203105N004152200059N0160935N5+00175-00505102195ADDAA101000095AA224003691AU100003015AW1041AW2055GA1025+011895999GD11991+0118959GE19AGL   +99999+99999GF102995999999011891999999KA1060M+00221KA2060N+00171MA1102475102455MW1045OC100825REMMET12501/08/24 06:51:02 METAR KTEB 081151Z 31008G16KT 10SM FU FEW039 02/M05 A3026 RMK AO2 SLP219 70014 T00171050 10022 20017 $ (AB)EQDD01      0ADE726
0248725025947412024010812517+40859-074056FM-15+0002KTEB V0203405N005752200059N0160935N5+00225-00445102535ADDAA101000095GA1045+011895999GD12991+0118959GE19AGL   +99999+99999GF104995999999011891999999MA1102475102455OC100985REMMET10401/08/24 07:51:02 METAR KTEB 081251Z 34011G19KT 10SM SCT039 02/M04 A3026 RMK AO2 SLP253 T00221044 $ (AB)EQDD01      0ADE726
0211725025947412024010813517+40859-074056FM-15+0002KTEB V0203305N006252200059N0160935N5+00285-00445102745ADDAA101000095GA1005+999999999GD10991+9999999GF100991999999999999999999MA1102685102655OC101085REMMET10801/08/24 08:51:02 METAR KTEB 081351Z 33012G21KT 10SM CLR 03/M04 A3032 RMK AO2 PRESRR SLP274 T00281044 $ (AB)
0224725025947412024010814517+40859-074056FM-15+0002KTEB V0203205N005752200059N0160935N5+00395-00445102745ADDAA101000095GA1005+999999999GD10991+9999999GF100991999999999999999999MA1102785102755MD1190549+9999OC100985REMMET10701/08/24 09:51:02 METAR KTEB 081451Z 32011G19KT 10SM CLR 04/M04 A3035 RMK AO2 SLP274 T00391044 51054 $ (AB)
0193725025947412024010815517+40859-074056FM-15+0002KTEB V0203205N004652200059N0160935N5+00505-00445102845ADDAA101000095GA1005+999999999GD10991+9999999GF100991999999999999999999MA1102785102755REMMET09801/08/24 10:51:02 METAR KTEB 081551Z 32009KT 10SM CLR 05/M04 A3035 RMK AO2 SLP284 T00501044 $ (AB)
0204725025947412024010816517+40859-074056FM-15+0002KTEB V0203405N004652200059N0160935N5+00565-00445102915ADDAA101000095GA1005+999999999GD10991+9999999GF100991999999999999999999MA1102845102825OC100775REMMET10101/08/24 11:51:02 METAR KTEB 081651Z 34009G15KT 10SM CLR 06/M04 A3037 RMK AO2 SLP291 T00561044 $ (AB)
0251725025947412024010817517+40859-074056FM-15+0002KTEB V0203305N005152200059N0160935N5+00615-00445102915ADDAA101000095GA1005+999999999GD10991+9999999GF100991999999999999999999KA1060M+00611KA2060N+00171MA1102845102825MD1190179+9999REMMET11601/08/24 12:51:02 METAR KTEB 081751Z 33010KT 10SM CLR 06/M04 A3037 RMK AO2 SLP291 T00611044 10061 20017 51017 $ (AB)
0237725025947412024010818517+40859-074056FM-15+0002KTEB V0203005N004652200059N0160935N5+00615-00395102945ADDAA101000095GA1045+014335999GD12991+0143359GE19AGL   +99999+99999GF104995999999014331999999MA1102885102855REMMET10101/08/24 13:51:02 METAR KTEB 081851Z 30009KT 10SM SCT047 06/M04 A3038 RMK AO2 SLP294 T00611039 $ (AB)EQDD01      0ADE726
0237725025947412024010819517+40859-074056FM-15+0002KTEB V0203605N005152200059N0160935N5+00675-00445102945ADDAA101000095GA1045+014335999GD12991+0143359GE19AGL   +99999+99999GF104995999999014331999999MA1102885102855REMMET10101/08/24 14:51:02 METAR KTEB 081951Z 36010KT 10SM SCT047 07/M04 A3038 RMK AO2 SLP294 T00671044 $ (AB)EQDD01      0ADE726
0213725025947412024010820517+40859-074056FM-15+0002KTEB V0203205N004652200059N0160935N5+00565-00395103045ADDAA101000095GA1005+999999999GD10991+9999999GF100991999999999999999999MA1102985102965MD1390149+9999REMMET10401/08/24 15:51:02 METAR KTEB 082051Z 32009KT 10SM CLR 06/M04 A3041 RMK AO2 SLP304 T00561039 53014 $ (BR)
0193725025947412024010821517+40859-074056FM-15+0002KTEB V0203305N002652200059N0160935N5+00505-00445103045ADDAA101000095GA1005+999999999GD10991+9999999GF100991999999999999999999MA1102985102965REMMET09801/08/24 16:51:02 METAR KTEB 082151Z 33005KT 10SM CLR 05/M04 A3041 RMK AO2 SLP304 T00501044 $ (BR)
0167725025947412024010822516+40859-074056FM-15+0002KTEB V0202905N001552200059N0160935N5+00395-00445103185ADDAA101000095GA1005+999999999GD10991+9999999MA1103125103095REMMET09801/08/24 17:51:02 METAR KTEB 082251Z 29003KT 10SM CLR 04/M04 A3045 RMK AO2 SLP318 T00391044 $ (SW)
0251725025947412024010823517+40859-074056FM-15+0002KTEB V0209999C000052200059N0160935N5+00285-00395103215ADDAA101000095GA1005+999999999GD10991+9999999GF100991999999999999999999KA1060M+00721KA2060N+00281MA1103155103135MD1390179+9999REMMET11601/08/24 18:51:02 METAR KTEB 082351Z 00000KT 10SM CLR 03/M04 A3046 RMK AO2 SLP321 T00281039 10072 20028 53017 $ (SW)
0188725025947412024010900517+40859-074056FM-15+0002KTEB V0209999C000052200059N0160935N5+00115-00445103215ADDAA101000095GA1005+999999999GD10991+9999999GF100991999999999999999999MA1103155103135REMMET09301/08/24 19:51:01 METAR KTEB 090051Z 00000KT 10SM CLR 01/M04 A3046 RMK AO2 SLP321 T00111044 $
0188725025947412024010901517+40859-074056FM-15+0002KTEB V0209999C000052200059N0160935N5+00115-00335103185ADDAA101000095GA1005+999999999GD10991+9999999GF100991999999999999999999MA1103125103095REMMET09301/08/24 20:51:01 METAR KTEB 090151Z 00000KT 10SM CLR 01/M03 A3045 RMK AO2 SLP318 T00111033 $
0209725025947412024010902517+40859-074056FM-15+0002KTEB V0209999C000052200059N0160935N5-00115-00445103145ADDAA101000095GA1005+999999999GD10991+9999999GF100991999999999999999999MA1103085103065MD1890079+9999REMMET10001/08/24 21:51:01 METAR KTEB 090251Z 00000KT 10SM CLR M01/M04 A3044 RMK AO2 SLP314 T10111044 58007 $
0189725025947412024010903517+40859-074056FM-15+0002KTEB V0209999C000052200059N0160935N5-00175-00505103115ADDAA101000095GA1005+999999999GD10991+9999999GF100991999999999999999999MA1103055103025REMMET09401/08/24 22:51:02 METAR KTEB 090351Z 00000KT 10SM CLR M02/M05 A3043 RMK AO2 SLP311 T10171050 $
0225725025947412024010904517+40859-074056FM-15+0002KTEB V0209999C000052200059N0160935N5-00115-00395103085ADDAA101000095GA1005+999999999GD10991+9999999GF100991999999999999999999KA1240M+00721KA2240N-00221MA1103015102995REMMET10401/08/24 23:51:02 METAR KTEB 090451Z 00000KT 10SM CLR M01/M04 A3042 RMK AO2 SLP308 T10111039 400721022 $
0841725025947412024010904596+40859-074056SOD  +0002KTEB V020999999999999999999999999999+99999+99999999999ADDAA124000095AT1AW08HZ  1KA1240M+00725KA2240N-00215MG1102499999994OE11240138633005195OE22240107332005405OE33240037699999995REMSOD67324 HR PRECIPITATION (IN):0.00  24 HR MAX TEMP (F):45 24 HR MAX TEMP TIME (LST):1444 24 HR MIN TEMP (F):28 24 HR MIN TEMP TIME (LST):2249 AVERAGE STATION PRESSURE:30.265 PEAK WIND SPEED (MPH):31  PEAK WIND DIR (DEG):330 PEAK WIND TIME (LST):0519  FASTEST 2MIN SPEED (MPH):24 FASTEST 2MIN DIR (DEG):320 FASTEST 2MIN TIME (LST):0540 AVERAGE WIND SPEED (MPH):8.4  24 HR AVG TEMP (F):37 HEATING DEGREE DAYS:28  COOLING DEGREE DAYS:0   LATEST DAY MAX TEMP (0700-1900 LST):45  LATEST NIGHT MIN TEMP(1900-0800 LST):33 HOURLY INCREMENTAL PRECIPITATION VALUES (IN):.00 0.00 0.00 0.00 0.00 0.00 0.00 0.00 0.00 0.00 0.00 0.00 0.00 0.00 0.00 0.00 0.00 0.00 0.00 0.00 0.00 0.00 0.00 0.00EQDR01     N7GJS072R02     N7GKS075
0296725025947412024010905517+40859-074056FM-15+0002KTEB V0209999C000052200059N0160935N5-00175-00395103085ADDAA101000095GA1025+014025999GD11991+0140259GE19AGL   +99999+99999GF102995999999014021999999KA1060M+00281KA2060N-00221MA1103015102995MD1690079+9999REMMET12001/09/24 00:51:02 METAR KTEB 090551Z 00000KT 10SM FEW046 M02/M04 A3042 RMK AO2 SLP308 T10171039 10028 21022 56007 $ (WL)EQDD01      0ADE726
0194725025947412024010906517+40859-074056FM-15+0002KTEB V0209999C000052200059N0160935N5-00175-00395103085ADDAA101000095GA1005+999999999GD10991+9999999GF100991999999999999999999MA1103015102995REMMET09901/09/24 01:51:02 METAR KTEB 090651Z 00000KT 10SM CLR M02/M04 A3042 RMK AO2 SLP308 T10171039 $ (WL)
0194725025947412024010907517+40859-074056FM-15+0002KTEB V0209999C000052200059N0160935N5-00175-00445103145ADDAA101000095GA1005+999999999GD10991+9999999GF100991999999999999999999MA1103085103065REMMET09901/09/24 02:51:02 METAR KTEB 090751Z 00000KT 10SM CLR M02/M04 A3044 RMK AO2 SLP314 T10171044 $ (WL)
0214725025947412024010908517+40859-074056FM-15+0002KTEB V0209999C000052200059N0160935N5-00175-00395103015ADDAA101000095GA1005+999999999GD10991+9999999GF100991999999999999999999MA1102955102925MD1890079+9999REMMET10501/09/24 03:51:02 METAR KTEB 090851Z 00000KT 10SM CLR M02/M04 A3040 RMK AO2 SLP301 T10171039 58007 $ (WL)
0194725025947412024010909517+40859-074056FM-15+0002KTEB V0203205N001552200059N0160935N5-00225-00395103015ADDAA101000095GA1005+999999999GD10991+9999999GF100991999999999999999999MA1102955102925REMMET09901/09/24 04:51:02 METAR KTEB 090951Z 32003KT 10SM CLR M02/M04 A3040 RMK AO2 SLP301 T10221039 $ (WL)
0216725025947412024010910517+40859-074056FM-15+0002KTEB V0203505N002152200059N0160935N5-00115-00335999999ADDAA101000095GA1045+010975999GD12991+0109759GE19AGL   +99999+99999GF104995999999010971999999REMMET09501/09/24 05:51:02 METAR KTEB 091051Z 35004KT 10SM SCT036 M01/M03 RMK AO2 SLPNO T10111033 $ (WL)EQDD01      0ADE726
0257725025947412024010911517+40859-074056FM-15+0002KTEB V0200105N00215010975MN0160935N5-00115-00335102945ADDAA101000095GA1085+010975999GD14991+0109759GE19AGL   +99999+99999GF199999999999010971999999KA1060M-00111KA2060N-00221MA1102885102855REMMET11401/09/24 06:51:02 METAR KTEB 091151Z 01004KT 10SM OVC036 M01/M03 A3038 RMK AO2 SLP294 T10111033 11011 21022 $ (SA)
0193725025947412024010912517+40859-074056FM-15+0002KTEB V0200305N001552200059N0160935N5+00115-00225102775ADDAA101000095GA1005+999999999GD10991+9999999GF100991999999999999999999MA1102715102685REMMET09801/09/24 07:51:02 METAR KTEB 091251Z 03003KT 10SM CLR 01/M02 A3033 RMK AO2 SLP277 T00111022 $ (AB)
0193725025947412024010913517+40859-074056FM-15+0002KTEB V0200105N001552200059N0160935N5+00175-00175102745ADDAA101000095GA1005+999999999GD10991+9999999GF100991999999999999999999MA1102685102655REMMET09801/09/24 08:51:02 METAR KTEB 091351Z 01003KT 10SM CLR 02/M02 A3032 RMK AO2 SLP274 T00171017 $ (AB)
0257725025947412024010914517+40859-074056FM-15+0002KTEB V0200505N002152200059N0160935N5+00335-00065102675ADDAA101000095GA1025+010365999GD11991+0103659GE19AGL   +99999+99999GF102995999999010361999999MA1102615102585MD1690279+9999REMMET10701/09/24 09:51:02 METAR KTEB 091451Z 05004KT 10SM FEW034 03/M01 A3030 RMK AO2 SLP267 T00331006 56027 $ (AB)EQDD01      0ADE726
0254725025947412024010915517+40859-074056FM-15+0002KTEB V0201405N00315015245MN0160935N5+00565+00005999999ADDAA101000095GA1075+015245999GA2085+028965999GD13991+0152459GD24991+0289659GE19AGL   +99999+99999GF199999999999015241999999MA1102515102485REMMET10601/09/24 10:51:02 METAR KTEB 091551Z 14006KT 10SM BKN050 OVC095 06/00 A3027 RMK AO2 SLPNO T00560000 $ (AB)
0333725025947412024010916517+40859-074056FM-15+0002KTEB V0201105N00365009755MN0144845N5+00505+00175102335ADDAA101000395AU110020015AW1615GA1025+007625999GA2075+009755999GA3085+014025999GD11991+0076259GD23991+0097559GD34991+0140259GE19AGL   +99999+99999GF199999999999007621999999MA1102275102245MW1615REMMET13101/09/24 11:51:02 METAR KTEB 091651Z 11007KT 9SM -RA FEW025 BKN032 OVC046 05/02 A3020 RMK AO2 RAB01 PRESFR SLP233 P0001 T00500017 $
0313725025947412024010917477+40859-074056FM-16+0002KTEB V0201105N00415006715MN0160935N5+00605+00205999999ADDAA101000231AU110020015AW1615GA1075+006715999GA2075+013725999GA3085+018295999GD13991+0067159GD23991+0137259GD34991+0182959GE19AGL   +99999+99999GF199999999999006711999999MA1101935101915MW1615OC100775REMMET10301/09/24 12:47:02 SPECI KTEB 091747Z 11008G15KT 10SM -RA BKN022 BKN045 OVC060 06/02 A3010 RMK AO2 P0001
0404725025947412024010917517+40859-074056FM-15+0002KTEB V0201105N00675006715MN0160935N5+00565+00285101925ADDAA101000395AA206000591AU110020015AW1615GA1075+006715999GA2075+013725999GA3085+018295999GD13991+0067159GD23991+0137259GD34991+0182959GE19AGL   +99999+99999GF199999999999006711999999KA1060M+00611KA2060N-00111MA1101935101915MW1615OC100885REMMET13801/09/24 12:51:02 METAR KTEB 091751Z 11013G17KT 10SM -RA BKN022 BKN045 OVC060 06/03 A3010 RMK AO2 SLP192 P0001 60002 T00560028 10061 21011EQDQ01  00058PRCP06
0262725025947412024010918517+40859-074056FM-15+0002KTEB V0201105N00575005495MN0064375N5+00565+00335101715ADDAA101001395AU130020015AU200001015AW1105AW2635GA1085+005495999GD14991+0054959GE19AGL   +99999+99999GF199999999999005491999999MA1101735101705MW1635REMMET10501/09/24 13:51:02 METAR KTEB 091851Z 11011KT 4SM +RA BR OVC018 06/03 A3004 RMK AO2 SLP171 P0004 T00560033
0281725025947412024010919517+40859-074056FM-15+0002KTEB V0201105N00625004575MN0048285N5+00615+00395101465ADDAA101002095AU120020015AU200001015AW1105AW2625GA1085+004575999GD14991+0045759GE19AGL   +99999+99999GF199999999999004571999999MA1101465101435MW1655OC101085REMMET11601/09/24 14:51:02 METAR KTEB 091951Z 11012G21KT 3SM RA BR OVC015 06/04 A2996 RMK AO2 PRESFR SLP146 P0008 T00610039 $
0350725025947412024010920037+40859-074056FM-16+0002KTEB V0201105N00775003965MN0032195N5+00615+00445999999ADDAA101000231AU120020015AU200001015AW1105AW2625GA1075+003965999GA2075+006105999GA3085+014335999GD13991+0039659GD23991+0061059GD34991+0143359GE19AGL   +99999+99999GF199999999999003961999999MA1101425101405MW1655OC101085REMMET12301/09/24 15:03:02 SPECI KTEB 092003Z 11015G21KT 2SM RA BR BKN013 BKN020 OVC047 06/04 A2995 RMK AO2 PRESFR P0001 T00610044 $
0343725025947412024010920057+40859-074056FM-16+0002KTEB V0201105N00775005185MN0032195N5+00615+00445999999ADDAA101000231AU120020015AU200001015AW1105AW2625GA1025+003965999GA2075+005185999GA3085+014335999GD11991+0039659GD23991+0051859GD34991+0143359GE19AGL   +99999+99999GF199999999999003961999999MA1101425101405MW1655OC101085REMMET11601/09/24 15:05:02 SPECI KTEB 092005Z 11015G21KT 2SM RA BR FEW013 BKN017 OVC047 06/04 A2995 RMK AO2 P0001 T00610044 $
0350725025947412024010920107+40859-074056FM-16+0002KTEB V0201105N00825003665MN0032195N5+00615+00445999999ADDAA101000531AU120020015AU200001015AW1105AW2625GA1075+003665999GA2075+005185999GA3085+014335999GD13991+0036659GD23991+0051859GD34991+0143359GE19AGL   +99999+99999GF199999999999003661999999MA1101395101365MW1655OC101135REMMET12301/09/24 15:10:02 SPECI KTEB 092010Z 11016G22KT 2SM RA BR BKN012 BKN017 OVC047 06/04 A2994 RMK AO2 PRESFR P0002 T00610044 $
0413725025947412024010920517+40859-074056FM-15+0002KTEB V0201105N00825003665MN0032195N5+00725+00505101185ADDAA101001595AA203004891AU120020015AU200001015AW1105AW2625GA1075+003665999GA2075+005185999GA3085+014335999GD13991+0036659GD23991+0051859GD34991+0143359GE19AGL   +99999+99999GF199999999999003661999999MA1101195101165MD1890759+9999MW1655OC101245REMMET14201/09/24 15:51:02 METAR KTEB 092051Z 11016G24KT 2SM RA BR BKN012 BKN017 OVC047 07/05 A2988 RMK AO2 PRESFR SLP118 P0007 60019 T00720050 58075 $EQDQ01  00488PRCP03
0324725025947412024010920587+40859-074056FM-16+0002KTEB V0201105N00985004275MN0080475N5+00725+00505999999ADDAU120020015AU200001015AW1105AW2625GA1075+004275999GA2085+006105999GD13991+0042759GD24991+0061059GE19AGL   +99999+99999GF199999999999004271999999MA1101195101165MW1655OC101445OD149901441120REMMET12501/09/24 15:58:02 SPECI KTEB 092058Z 11019G28KT 5SM RA BR BKN014 OVC020 07/05 A2988 RMK AO2 PK WND 12028/2058 T00720050 PNO $
0271725025947412024010921496+40859-074056FM-16+0002KTEB V0201105N00885002745MN0064375N5+00805+00605999999ADDAU120020015AU200001015AW1105AW2625GA1075+002745999GA2085+006105999GD13991+0027459GD24991+0061059MA1100955100925MW1655OC101245REMMET13401/09/24 16:49:02 SPECI KTEB 092149Z 11017G24KT 4SM RA BR BKN009 OVC020 08/06 A2981 RMK AO2 PK WND 12028/2058 PRESFR P0008 $ FIBI (JL)
0344725025947412024010921517+40859-074056FM-15+0002KTEB V0201105N00725002745MN0064375N5+00785+00615100955ADDAA101002095AU120020015AU200001015AW1105AW2625GA1075+002745999GA2085+006105999GD13991+0027459GD24991+0061059GE19AGL   +99999+99999GF199999999999002741999999MA1100955100925MW1655OC101245OD149901441120REMMET13401/09/24 16:51:02 METAR KTEB 092151Z 11014G24KT 4SM RA BR BKN009 OVC020 08/06 A2981 RMK AO2 PK WND 12028/2058 SLP095 P0008 T00780061 $
0304725025947412024010922517+40859-074056FM-15+0002KTEB V0201205N00725002745MN0064375N5+00895+00725100655ADDAA101003395AU120020015AU200001015AW1105AW2625GA1085+002745999GD14991+0027459GE19AGL   +99999+99999GF199999999999002741999999MA1100645100625MW1655OC101245OD149901591110REMMET12501/09/24 17:51:02 METAR KTEB 092251Z 12014G24KT 4SM RA BR OVC009 09/07 A2972 RMK AO2 PK WND 11031/2212 SLP065 P0011 T00890072
0373725025947412024010923347+40859-074056FM-16+0002KTEB V0201305N01035003055MN0064375N5+01005+00835999999ADDAA101003831AU120020015AU200001015AW1105AW2625GA1075+003055999GA2075+006105999GA3085+010675999GD13991+0030559GD23991+0061059GD34991+0106759GE19AGL   +99999+99999GF199999999999003051999999MA1100445100425MW1655OC101655OD149901641130REMMET13201/09/24 18:34:02 SPECI KTEB 092334Z 13020G32KT 4SM RA BR BKN010 BKN020 OVC035 10/08 A2966 RMK AO2 PK WND 13032/2325 P0015 T01000083
