0274725025947412022010100517+40859-074056FM-15+0002KTEB V0201905N00155005795MN0080475N5+00945+00835101405ADDAA101000095AU100001015AW1105GA1025+003965999GA2085+005795999GD11991+0039659GD24991+0057959GE19AGL   +99999+99999GF199999999999003961999999MA1101425101405REMMET10912/31/21 19:51:03 METAR KTEB 010051Z 19003KT 5SM BR FEW013 OVC019 09/08 A2995 RMK AO2 SLP140 T00940083 $ (KM)
0256725025947412022010101047+40859-074056FM-16+0002KTEB V0201605N00215003965MN0096565N5+00945+00835999999ADDAU100001015AW1105GA1075+003965999GA2085+005795999GD13991+0039659GD24991+0057959GE19AGL   +99999+99999GF199999999999003961999999MA1101355101335REMMET10212/31/21 20:04:03 SPECI KTEB 010104Z 16004KT 6SM BR BKN013 OVC019 09/08 A2993 RMK AO2 T00940083 $ (KM)
0236725025947412022010101517+40859-074056FM-15+0002KTEB V0201805N00155003665MN0080475N5+00945+00835101345ADDAA101000095AU100001015AW1105GA1085+003665999GD14991+0036659GE19AGL   +99999+99999GF199999999999003661999999MA1101355101335REMMET10212/31/21 20:51:03 METAR KTEB 010151Z 18003KT 5SM BR OVC012 09/08 A2993 RMK AO2 SLP134 T00940083 $ (KM)
0203725025947412022010102496+40859-074056FM-16+0002KTEB V0209999C00005006715MN0096565N5+00905+00805999999ADDAU100001015AW1105GA1025+004275999GA2085+006715999GD11991+0042759GD24991+0067159MA1101355101335REMMET09712/31/21 21:49:03 SPECI KTEB 010249Z 00000KT 6SM BR FEW014 OVC022 09/08 A2993 RMK AO2 $ FIBI (KM)
0294725025947412022010102517+40859-074056FM-15+0002KTEB V0209999C00005006715MN0096565N5+00945+00835101345ADDAA101000095AU100001015AW1105GA1025+004275999GA2085+006715999GD11991+0042759GD24991+0067159GE19AGL   +99999+99999GF199999999999004271999999MA1101355101335MD1790069+9999REMMET11512/31/21 21:51:03 METAR KTEB 010251Z 00000KT 6SM BR FEW014 OVC022 09/08 A2993 RMK AO2 SLP134 T00940083 57006 $ (KM)
0236725025947412022010103517+40859-074056FM-15+0002KTEB V0202005N00155007325MN0096565N5+00945+00785101325ADDAA101000095AU100001015AW1105GA1085+007325999GD14991+0073259GE19AGL   +99999+99999GF199999999999007321999999MA1101325101305REMMET10212/31/21 22:51:03 METAR KTEB 010351Z 20003KT 6SM BR OVC024 09/08 A2992 RMK AO2 SLP132 T00940078 $ (KM)
0290725025947412022010104517+40859-074056FM-15+0002KTEB V0202105N00155006715MN0112655N5+00945+00785101245ADDAA101000095GA1025+004575999GA2085+006715999GD11991+0045759GD24991+0067159GE19AGL   +99999+99999GF199999999999004571999999KA1240M+01111KA2240N+00831MA1101255101235REMMET11612/31/21 23:51:03 METAR KTEB 010451Z 21003KT 7SM FEW015 OVC022 09/08 A2990 RMK AO2 SLP124 T00940078 401110083 $ (AZ)
0910725025947412022010104596+40859-074056SOD  +0002KTEB V020999999999999999999999999999+99999+99999999999ADDAA124000025AT1AU14DZ  5AT2AU13BR  5KA1240M+01115KA2240N+00835MG1101304101224OE11240067120012195OE22240058120012305OE33240020699999995REMSOD73024 HR PRECIPITATION (IN):T     24 HR MAX TEMP (F):52 24 HR MAX TEMP TIME (LST):1505 24 HR MIN TEMP (F):47 24 HR MIN TEMP TIME (LST):0827 AVERAGE STATION PRESSURE:29.915 MINIMUM SEA LEVEL PRESSURE:29.89 TIME OF OCCURRENCE:2359 PEAK WIND SPEED (MPH):15  PEAK WIND DIR (DEG):200 PEAK WIND TIME (LST):1219  FASTEST 2MIN SPEED (MPH):13 FASTEST 2MIN DIR (DEG):200 FASTEST 2MIN TIME (LST):1230 AVERAGE WIND SPEED (MPH):4.6  24 HR AVG TEMP (F):50 HEATING DEGREE DAYS:15  COOLING DEGREE DAYS:0   LATEST DAY MAX TEMP (0700-1900 LST):52  LATEST NIGHT MIN TEMP(1900-0800 LST):46 HOURLY INCREMENTAL PRECIPITATION VALUES (IN):.00 0.00 0.00 0.00 0.00 0.00 0.00 0.00 0.00 0.00 0.00 0.00 0.00 0.00 0.00 0.00 0.00 T    T    0.00 0.00 0.00 0.00 0.00EQDR01     N7GJS072R02     N7GKS075
1291725025947412022010104596+40859-074056SOM  +0002KTEB V020999999999999999999999999999+99999+99999999999ADDAB10027796AD10005190606999999995AE1116036005005AH1005001390603525AH2010001390603525AH3015001390603525AH4020001390603525AH5030001890604175AH6045001892206185AI1060002092206185AI2080002392206185AI3100003092206185AI4120003392206185AI5150003692901595AI6180003892901595KB1744N+01565KB2744M+09675KB3744A+05615KC1N9-00502120995KC2M9+02001199995KD1744H07096KD2744C00005KE1005005135005MH1101644101694MK1103861508105099762515055REMSOM795PCP MTOT:1.09 PCP GT 24HRS:0.20 DATE(S):6 DAYS W/PCP >=.01:11 DAYS W/PCP >=.10:3  DAYS W/ PCP >=.50:0 DAYS W/PCP >=1.00:0 MSDP AMTS W/DATE-TIME TAGS:MIN:5 0.05  06/0352 MIN:10 0.05  06/0352 MIN:15 0.05  06/0352 MIN:20 0.05  06/0352 MIN:30 0.07  06/0417 MIN:45 0.07  22/0618 MIN:60 0.08  22/0618 MIN:80 0.09  22/0618 MIN:100 0.12  22/0618 MIN:120 0.13  22/0618 MIN:150 0.14  29/0159 MIN:180 0.15  29/0159 AVG DLY MIN:34.8  AVG DLY MAX:49.4  AVG MLY TMP:42.1  MIN TMP:23 DATE(S):21 20 MAX TMP:68  DATE(S):11 DAYS MAX <=32:0 DAYS MAX >=90:0  DAYS MIN <=32:13 DAYS MIN  <=0:0  AVG STP:30.015 LWST SLP:29.46 DATE/TIME:251505 HGST SLP:30.67 DATE/TIME:150810 HDD MTH TOT:709 DEP NORM:-2553 SEASON(JUL 1-JUN 30):1463 DEP NORM:-25536 CDD MTH TOT:0 DEP NORM:-2553 SEASON(JAN 1-DEC 31):1237 DEP NORM:-25536EQDR01  1.097ABP070R02    117AE1100R03     07AE2103R04   7097KDH045
0221725025947412022010105496+40859-074056FM-16+0002KTEB V0201905N00265007625MN0112655N5+00905+00805999999ADDGA1025+002445999GA2045+003355999GA3085+007625999GD11991+0024459GD22991+0033559GD34991+0076259MA1101255101235REMMET10101/01/22 00:49:02 SPECI KTEB 010549Z 19005KT 7SM FEW008 SCT011 OVC025 09/08 A2990 RMK AO2 $ FIBI (AZ)
0350725025947412022010105517+40859-074056FM-15+0002KTEB V0201905N00215007325MN0112655N5+00945+00835101255ADDAA101000095GA1025+002445999GA2045+003355999GA3085+007325999GD11991+0024459GD22991+0033559GD34991+0073259GE19AGL   +99999+99999GF199999999999002441999999KA1060M+01001KA2060N+00891MA1101255101235MD1590099+9999REMMET13101/01/22 00:51:02 METAR KTEB 010551Z 19004KT 7SM FEW008 SCT011 OVC024 09/08 A2990 RMK AO2 SLP125 T00940083 10100 20089 55009 $ (AZ)
0274725025947412022010106047+40859-074056FM-16+0002KTEB V0201805N00215003665MN0112655N5+00945+00835999999ADDGA1045+002445999GA2075+003665999GA3085+007325999GD12991+0024459GD23991+0036659GD34991+0073259GE19AGL   +99999+99999GF199999999999002441999999MA1101225101205REMMET10601/01/22 01:04:02 SPECI KTEB 010604Z 18004KT 7SM SCT008 BKN012 OVC024 09/08 A2989 RMK AO2 T00940083 $ (AZ)
0312725025947412022010106517+40859-074056FM-15+0002KTEB V0201805N00215003665MN0096565N5+00945+00835101245ADDAA101000095AU100001015AW1105GA1045+002445999GA2075+003665999GA3085+007325999GD12991+0024459GD23991+0036659GD34991+0073259GE19AGL   +99999+99999GF199999999999002441999999MA1101255101235REMMET11601/01/22 01:51:02 METAR KTEB 010651Z 18004KT 6SM BR SCT008 BKN012 OVC024 09/08 A2990 RMK AO2 SLP124 T00940083 $ (AZ)
0210725025947412022010106587+40859-074056FM-16+0002KTEB V0201805N00155002135MN0112655N5+00945+00835999999ADDGA1085+002135999GD14991+0021351GE19AGL   +99999+99999GF199999999999002131999999MA1101255101235REMMET10401/01/22 01:58:02 SPECI KTEB 010658Z 18003KT 7SM OVC007 09/08 A2990 RMK AO2 CIG 006V011 T00940083 $ (AZ)
0145725025947412022010107496+40859-074056FM-16+0002KTEB V0201405N00155008535MN0144845N5+00905+00805999999ADDGA1085+008535999GD14991+0085359MA1101195101165REMMET08701/01/22 02:49:02 SPECI KTEB 010749Z 14003KT 9SM OVC028 09/08 A2988 RMK AO2 $ FIBI (AZ)
0216725025947412022010107517+40859-074056FM-15+0002KTEB V0201505N00155008535MN0144845N5+00945+00835101185ADDAA101000095GA1085+008535999GD14991+0085359GE19AGL   +99999+99999GF199999999999008531999999MA1101195101165REMMET09901/01/22 02:51:02 METAR KTEB 010751Z 15003KT 9SM OVC028 09/08 A2988 RMK AO2 SLP118 T00940083 $ (AZ)
0183725025947412022010108496+40859-074056FM-16+0002KTEB V0209999C00005003965MN0112655N5+00905+00805999999ADDGA1075+003965999GA2085+006105999GD13991+0039659GD24991+0061059MA1101085101065REMMET09401/01/22 03:49:02 SPECI KTEB 010849Z 00000KT 7SM BKN013 OVC020 09/08 A2985 RMK AO2 $ FIBI (AZ)
0274725025947412022010108517+40859-074056FM-15+0002KTEB V0209999C00005003965MN0112655N5+00945+00835101105ADDAA101000095GA1075+003965999GA2085+006105999GD13991+0039659GD24991+0061059GE19AGL   +99999+99999GF199999999999003961999999MA1101125101095MD1590149+9999REMMET11201/01/22 03:51:02 METAR KTEB 010851Z 00000KT 7SM BKN013 OVC020 09/08 A2986 RMK AO2 SLP110 T00940083 55014 $ (AZ)
0231725025947412022010109517+40859-074056FM-15+0002KTEB V0209999C00005003965MN0128755N5+01005+00835101085ADDAA101000395GA1075+003965999GD13991+0039659GE19AGL   +99999+99999GF199999999999003961999999MA1101085101065REMMET11401/01/22 04:51:02 METAR KTEB 010951Z 00000KT 8SM BKN013 10/08 A2985 RMK AO2 RAB10E26 SLP108 P0001 T01000083 $ (AZ)
0216725025947412022010110517+40859-074056FM-15+0002KTEB V0209999C00005003965MN0144845N5+01005+00895100995ADDAA101000095GA1085+003965999GD14991+0039659GE19AGL   +99999+99999GF199999999999003961999999MA1100985100965REMMET09901/01/22 05:51:02 METAR KTEB 011051Z 00000KT 9SM OVC013 10/09 A2982 RMK AO2 SLP099 T01000089 $ (AZ)
0204725025947412022010111496+40859-074056FM-16+0002KTEB V0209999C00005002135MN0096565N5+01005+00805999999ADDAU110020015AU200001015AW1105AW2615GA1085+002135999GD14991+0021359MA1100985100965MW1615REMMET10601/01/22 06:49:02 SPECI KTEB 011149Z 00000KT 6SM -RA BR OVC007 10/08 A2982 RMK AO2 RAB16 P0000 $ FIBI (AZ)
0402725025947412022010111517+40859-074056FM-15+0002KTEB V0209999C00005002135MN0096565N5+01005+00835100985ADDAA101000025AA206000391AA324000391AU110020015AU200001015AW1105AW2615GA1085+002135999GD14991+0021359GE19AGL   +99999+99999GF199999999999002131999999KA1060M+01001KA2060N+00941MA1100985100965MD1690129+9999MW1615REMMET14801/01/22 06:51:02 METAR KTEB 011151Z 00000KT 6SM -RA BR OVC007 10/08 A2982 RMK AO2 RAB16 SLP098 P0000 60001 70001 T01000083 10100 20094 56012 $ (CG)EQDQ01  00028PRCP06Q02  00028PRCP24
0285725025947412022010112167+40859-074056FM-16+0002KTEB V0209999C00005001835MN0016095N5+01005+00895999999ADDAA101000231AU110020015AU200001015AW1105AW2615ED106U18299GA1085+001835999GD14991+0018359GE19AGL   +99999+99999GF199999999999001831999999MA1101025100995MW1615REMMET11701/01/22 07:16:02 SPECI KTEB 011216Z 00000KT 1SM R06/P6000FT -RA BR OVC006 10/09 A2983 RMK AO2 P0001 T01000089 $ (DK)
0292725025947412022010112517+40859-074056FM-15+0002KTEB V0201805N00215002135MN0016095N5+01005+00895100915ADDAA101001895AU110020015AU200001015AW1105AW2615ED106U18299GA1085+002135999GD14991+0021359GE19AGL   +99999+99999GF199999999999002131999999MA1100915100895MW1615REMMET12401/01/22 07:51:02 METAR KTEB 011251Z 18004KT 1SM R06/P6000FT -RA BR OVC007 10/09 A2980 RMK AO2 SLP091 P0007 T01000089 $ (DK)
0292725025947412022010113517+40859-074056FM-15+0002KTEB V0202305N00215002135MN0016095N5+01005+00945100955ADDAA101000025AU110020015AU200001015AW1105AW2615ED106U18299GA1085+002135999GD14991+0021359GE19AGL   +99999+99999GF199999999999002131999999MA1100955100925MW1615REMMET12401/01/22 08:51:02 METAR KTEB 011351Z 23004KT 1SM R06/P6000FT -RA BR OVC007 10/09 A2981 RMK AO2 SLP095 P0000 T01000094 $ (DK)
0274725025947412022010113587+40859-074056FM-16+0002KTEB V0202605N00215002135MN0080475N5+01065+00945999999ADDAA101000021AU110020015AU200001015AW1105AW2615GA1085+002135999GD14991+0021351GE19AGL   +99999+99999GF199999999999002131999999MA1100985100965MW1615REMMET11701/01/22 08:58:02 SPECI KTEB 011358Z 26004KT 5SM -RA BR OVC007 11/09 A2982 RMK AO2 CIG 004V011 P0000 T01060094 $ (DK)
0334725025947412022010114517+40859-074056FM-15+0002KTEB V0202205N00155002135MN0080475N5+01005+00945101035ADDAA101000395AA203001891AU110020015AU200001015AW1105AW2615GA1085+002135999GD14991+0021359GE19AGL   +99999+99999GF199999999999002131999999MA1101055101035MD1390059+9999MW1615REMMET13301/01/22 09:51:02 METAR KTEB 011451Z 22003KT 5SM -RA BR OVC007 10/09 A2984 RMK AO2 RAE03B20 SLP103 P0000 60007 T01000094 53005 $ (CG)EQDQ01  00178PRCP03
0269725025947412022010115517+40859-074056FM-15+0002KTEB V0202005N00315001225MN0048285N5+01115+01005100895ADDAA101000025AU110020015AU200001015AW1105AW2615GA1085+001225999GD14991+0012259GE19AGL   +99999+99999GF199999999999001221999999MA1100885100865MW1615REMMET11201/01/22 10:51:02 METAR KTEB 011551Z 20006KT 3SM -RA BR OVC004 11/10 A2979 RMK AO2 SLP089 P0001 T01110100 $ (CG)
0278725025947412022010116517+40859-074056FM-15+0002KTEB V0202305N00415001225MN0048285N5+01175+01065100805ADDAA101000025AU110020015AU200001015AW1105AW2615GA1085+001225999GD14991+0012259GE19AGL   +99999+99999GF199999999999001221999999MA1100815100795MW1615REMMET12101/01/22 11:51:02 METAR KTEB 011651Z 23008KT 3SM -RA BR OVC004 12/11 A2977 RMK AO2 RAE02B26 SLP080 P0000 T01170106 $ (CG)
0262725025947412022010116587+40859-074056FM-16+0002KTEB V0202205N00415001835MN0048285N5+01175+01065999999ADDAA101000021AU110020015AU200001015AW1105AW2615GA1085+001835999GD14991+0018359GE19AGL   +99999+99999GF199999999999001831999999MA1100815100795MW1615REMMET10501/01/22 11:58:02 SPECI KTEB 011658Z 22008KT 3SM -RA BR OVC006 12/11 A2977 RMK AO2 P0000 T01170106 $ (CG)
0363725025947412022010117517+40859-074056FM-15+0002KTEB V0202105N00215001835MN0048285N5+01225+01115100735ADDAA101000395AA206002391AU110020015AU200001015AW1105AW2615GA1085+001835999GD14991+0018359GE19AGL   +99999+99999GF199999999999001831999999KA1060M+01281KA2060N+01001MA1100755100725MD1690319+9999MW1615REMMET13601/01/22 12:51:02 METAR KTEB 011751Z 21004KT 3SM -RA BR OVC006 12/11 A2975 RMK AO2 SLP073 P0001 60009 T01220111 10128 20100 56031 $ (CG)EQDQ01  00228PRCP06
0269725025947412022010118517+40859-074056FM-15+0002KTEB V0201905N00155001835MN0080475N5+01225+01175100665ADDAA101000025AU110020015AU200001015AW1105AW2615GA1085+001835999GD14991+0018359GE19AGL   +99999+99999GF199999999999001831999999MA1100685100655MW1615REMMET11201/01/22 13:51:02 METAR KTEB 011851Z 19003KT 5SM -RA BR OVC006 12/12 A2973 RMK AO2 SLP066 P0000 T01220117 $ (CG)
0269725025947412022010119517+40859-074056FM-15+0002KTEB V0201505N00265001835MN0080475N5+01225+01175100565ADDAA101000025AU110020015AU200001015AW1105AW2615GA1085+001835999GD14991+0018359GE19AGL   +99999+99999GF199999999999001831999999MA1100585100555MW1615REMMET11201/01/22 14:51:02 METAR KTEB 011951Z 15005KT 5SM -RA BR OVC006 12/12 A2970 RMK AO2 SLP056 P0000 T01220117 $ (CG)
0325725025947412022010120517+40859-074056FM-15+0002KTEB V0202105N00215001525MN0080475N5+01225+01175100565ADDAA101000025AA203000021AU110020015AU200001015AW1105AW2615GA1085+001525999GD14991+0015259GE19AGL   +99999+99999GF199999999999001521999999MA1100585100555MD1690179+9999MW1615REMMET12401/01/22 15:51:02 METAR KTEB 012051Z 21004KT 5SM -RA BR OVC005 12/12 A2970 RMK AO2 SLP056 P0000 60000 T01220117 56017 $ (CG)EQDQ01  00008PRCP03
0281725025947412022010121517+40859-074056FM-15+0002KTEB V0209999C00005002135MN0048285N5+01285+01175100595ADDAA101000025AU110020015AU200001015AW1105AW2615GA1085+002135999GD14991+0021351GE19AGL   +99999+99999GF199999999999002131999999MA1100615100595MW1615REMMET12401/01/22 16:51:02 METAR KTEB 012151Z 00000KT 3SM -RA BR OVC007 13/12 A2971 RMK AO2 CIG 005V010 SLP059 P0000 T01280117 $ (CG)
0269725025947412022010122517+40859-074056FM-15+0002KTEB V0209999C00005002135MN0048285N5+01225+01115100595ADDAA101000595AU110020015AU200001015AW1105AW2615GA1085+002135999GD14991+0021359GE19AGL   +99999+99999GF199999999999002131999999MA1100615100595MW1615REMMET11201/01/22 17:51:02 METAR KTEB 012251Z 00000KT 3SM -RA BR OVC007 12/11 A2971 RMK AO2 SLP059 P0001 T01220111 $ (CG)
0262725025947412022010123077+40859-074056FM-16+0002KTEB V0209999C00005001225MN0048285N5+01285+01175999999ADDAA101000531AU110020015AU200001015AW1105AW2615GA1085+001225999GD14991+0012259GE19AGL   +99999+99999GF199999999999001221999999MA1100615100595MW1615REMMET10501/01/22 18:07:02 SPECI KTEB 012307Z 00000KT 3SM -RA BR OVC004 13/12 A2971 RMK AO2 P0002 T01280117 $ (CG)
0363725025947412022010123517+40859-074056FM-15+0002KTEB V0209999C00005001225MN0048285N5+01225+01175100575ADDAA101001095AA206001591AU110020015AU200001015AW1105AW2615GA1085+001225999GD14991+0012259GE19AGL   +99999+99999GF199999999999001221999999KA1060M+01391KA2060N+01221MA1100585100555MD1090019+9999MW1615REMMET13601/01/22 18:51:02 METAR KTEB 012351Z 00000KT 3SM -RA BR OVC004 12/12 A2970 RMK AO2 SLP057 P0005 60006 T01220117 10139 20122 50001 $ (CG)EQDQ01  00158PRCP06
0264725025947412022010200517+40859-074056FM-15+0002KTEB V0201005N00155001225MN0048285N5+01225+01115100485ADDAA101001395AU110020015AU200001015AW1105AW2615GA1085+001225999GD14991+0012259GE19AGL   +99999+99999GF199999999999001221999999MA1100475100455MW1615REMMET10701/01/22 19:51:01 METAR KTEB 020051Z 10003KT 3SM -RA BR OVC004 12/11 A2967 RMK AO2 SLP048 P0004 T01220111 $
0257725025947412022010201057+40859-074056FM-16+0002KTEB V0209999N99999001525MN0064375N5+01225+01115999999ADDAA101000231AU110020015AU200001015AW1105AW2615GA1085+001525999GD14991+0015259GE19AGL   +99999+99999GF199999999999001521999999MA1100475100455MW1615REMMET10001/01/22 20:05:01 SPECI KTEB 020105Z      KT 4SM -RA BR OVC005 12/11 A2967 RMK AO2 P0001 T01220111 $
0264725025947412022010201517+40859-074056FM-15+0002KTEB V0200705N00215001525MN0064375N5+01175+01065100405ADDAA101001895AU110020015AU200001015AW1105AW2615GA1085+001525999GD14991+0015259GE19AGL   +99999+99999GF199999999999001521999999MA1100415100385MW1615REMMET10701/01/22 20:51:01 METAR KTEB 020151Z 07004KT 4SM -RA BR OVC005 12/11 A2965 RMK AO2 SLP040 P0007 T01170106 $
0320725025947412022010202517+40859-074056FM-15+0002KTEB V0200205N00315001835MN0064375N5+01175+01065100285ADDAA101005695AA203007191AU130020015AU200001015AW1105AW2635GA1085+001835999GD14991+0018359GE19AGL   +99999+99999GF199999999999001831999999MA1100305100285MD1890289+9999MW1635REMMET11901/01/22 21:51:01 METAR KTEB 020251Z 02006KT 4SM +RA BR OVC006 12/11 A2962 RMK AO2 SLP028 P0017 60028 T01170106 58028 $EQDQ01  00718PRCP03
0264725025947412022010203517+40859-074056FM-15+0002KTEB V0200405N00215003665MN0096565N5+01115+01065100195ADDAA101006995AU110020015AU200001015AW1105AW2615GA1085+003665999GD14991+0036659GE19AGL   +99999+99999GF199999999999003661999999MA1100205100185MW1615REMMET10701/01/22 22:51:01 METAR KTEB 020351Z 04004KT 6SM -RA BR OVC012 11/11 A2959 RMK AO2 SLP019 P0033 T01110106 $
0288725025947412022010204517+40859-074056FM-15+0002KTEB V0200305N00215003665MN0160935N5+01115+01005100065ADDAA101000895AU110020015AW1615GA1085+003665999GD14991+0036659GE19AGL   +99999+99999GF199999999999003661999999KA1240M+01391KA2240N+00891MA1100075100045MW1615REMMET12201/01/22 23:51:02 METAR KTEB 020451Z 03004KT 10SM -RA OVC012 11/10 A2955 RMK AO2 PRESFR SLP006 P0003 T01110100 401390089 $
0238725025947412022010204587+40859-074056FM-16+0002KTEB V0203605N00215002135MN0160935N5+01115+01005999999ADDAA101000021AU110020015AW1615GA1085+002135999GD14991+0021359GE19AGL   +99999+99999GF199999999999002131999999MA1100105100085MW1615REMMET09801/01/22 23:58:02 SPECI KTEB 020458Z 36004KT 10SM -RA OVC007 11/10 A2956 RMK AO2 P0000 T01110100 $
0926725025947412022010204596+40859-074056SOD  +0002KTEB V020999999999999999999999999999+99999+99999999999ADDAA124020395AT1AU16RA  5AT2AU13BR  5KA1240M+01395KA2240N+00896MG1100854100034OE11240076019011175OE22240058116007415OE33240015699999995REMSOD73024 HR PRECIPITATION (IN):0.80  24 HR MAX TEMP (F):57 24 HR MAX TEMP TIME (LST):1814 24 HR MIN TEMP (F):48 24 HR MIN TEMP TIME (LST):0027 AVERAGE STATION PRESSURE:29.780 MINIMUM SEA LEVEL PRESSURE:29.54 TIME OF OCCURRENCE:2354 PEAK WIND SPEED (MPH):17  PEAK WIND DIR (DEG):190 PEAK WIND TIME (LST):1117  FASTEST 2MIN SPEED (MPH):13 FASTEST 2MIN DIR (DEG):160 FASTEST 2MIN TIME (LST):0741 AVERAGE WIND SPEED (MPH):3.5  24 HR AVG TEMP (F):53 HEATING DEGREE DAYS:12  COOLING DEGREE DAYS:0   LATEST DAY MAX TEMP (0700-1900 LST):57  LATEST NIGHT MIN TEMP(1900-0800 LST):48 HOURLY INCREMENTAL PRECIPITATION VALUES (IN):.00 0.00 0.00 0.00 0.01 0.00 T    0.07 T    0.01 T    T    0.01 T    T    T    T    0.02 0.04 0.05 0.07 0.22 0.27 0.03EQDR01     N7GJS072R02     N7GKS075R03    487KAN014
0344725025947412022010205517+40859-074056FM-15+0002KTEB V0201005N00265001835MN0160935N5+01115+01005100025ADDAA101000395AA206016391AU110020015AW1615GA1085+001835999GD14991+0018359GE19AGL   +99999+99999GF199999999999001831999999KA1060M+01281KA2060N+01111MA1100035100015MD1690269+9999MW1615REMMET13401/02/22 00:51:02 METAR KTEB 020551Z 10005KT 10SM -RA OVC006 11/10 A2954 RMK AO2 SLP002 P0000 60064 T01110100 10128 20111 56026 $ (AZ)EQDQ01  01628PRCP06
0229725025947412022010206517+40859-074056FM-15+0002KTEB V0209999C00005001835MN0160935N5+01115+01005100015ADDAA101000025GA1085+001835999GD14991+0018359GE19AGL   +99999+99999GF199999999999001831999999MA1100005099985REMMET11201/02/22 01:51:02 METAR KTEB 020651Z 00000KT 10SM OVC006 11/10 A2953 RMK AO2 RAE16 SLP001 P0001 T01110100 $ (AZ)
0234725025947412022010207517+40859-074056FM-15+0002KTEB V0203405N00415001835MN0160935N5+01115+01065100075ADDAA101000025GA1085+001835999GD14991+0018359GE19AGL   +99999+99999GF199999999999001831999999MA1100075100045REMMET11701/02/22 02:51:02 METAR KTEB 020751Z 34008KT 10SM OVC006 11/11 A2955 RMK AO2 RAB0653E31 SLP007 P0000 T01110106 $ (AZ)
0273725025947412022010208517+40859-074056FM-15+0002KTEB V0203105N00215001525MN0064375N5+01115+01005100075ADDAA101000095AA203000391AU100001015AW1105GA1085+001525999GD14991+0015259GE19AGL   +99999+99999GF199999999999001521999999MA1100075100045MD1390059+9999REMMET11401/02/22 03:51:02 METAR KTEB 020851Z 31004KT 4SM BR OVC005 11/10 A2955 RMK AO2 SLP007 60001 T01110100 53005 $ (AZ)
0236725025947412022010209517+40859-074056FM-15+0002KTEB V0209999C00005001835MN0080475N5+01115+01005100045ADDAA101000095AU100001015AW1105GA1085+001835999GD14991+0018359GE19AGL   +99999+99999GF199999999999001831999999MA1100035100015REMMET10201/02/22 04:51:02 METAR KTEB 020951Z 00000KT 5SM BR OVC006 11/10 A2954 RMK AO2 SLP004 T01110100 $ (AZ)
0204725025947412022010210496+40859-074056FM-16+0002KTEB V0203505N00155003355MN0064375N5+01105+01105999999ADDAU110020015AU200001015AW1105AW2615GA1085+003355999GD14991+0033559MA1100075100045MW1615REMMET10601/02/22 05:49:02 SPECI KTEB 021049Z 35003KT 4SM -RA BR OVC011 11/11 A2955 RMK AO2 RAB01 P0001 $ FIBI (AZ)
0313725025947412022010210517+40859-074056FM-15+0002KTEB V0203305N00215002745MN0048285N5+01115+01005100125ADDAA101000395AU110020015AU200001015AW1105AW2615GA1075+002745999GA2085+003965999GD13991+0027459GD24991+0039659GE19AGL   +99999+99999GF199999999999002741999999MA1100145100115MW1615REMMET12501/02/22 05:51:02 METAR KTEB 021051Z 33004KT 3SM -RA BR BKN009 OVC013 11/10 A2957 RMK AO2 RAB01 SLP012 P0001 T01110100 $ (AZ)
0276725025947412022010211237+40859-074056FM-16+0002KTEB V0201105N00365001525MN0008055N5+01065+01005999999ADDAA101000021AU100002015AW1305ED106U15249GA1085+001525999GD14991+0015259GE19AGL   +99999+99999GF199999999999001521999999MA1099905099875REMMET13101/02/22 06:23:02 SPECI KTEB 021123Z 11007KT 1/2SM R06/5000VP6000FT FG OVC005 11/10 A2950 RMK AO2 RAE14 PRESFR P0000 T01060100 (AZ)
0267725025947412022010211317+40859-074056FM-16+0002KTEB V0209999C00005001525MN0032195N5+01065+01005999999ADDAA101000021AU100001015AW1105ED106U15249GA1085+001525999GD14991+0015259GE19AGL   +99999+99999GF199999999999001521999999MA1100105100085REMMET12201/02/22 06:31:02 SPECI KTEB 021131Z 00000KT 2SM R06/5000VP6000FT BR OVC005 11/10 A2956 RMK AO2 RAE14 P0000 T01060100 (AZ)
0175725025947412022010211496+40859-074056FM-16+0002KTEB V0202005N00155001525MN0048285N5+01105+01005999999ADDAU100001015AW1105GA1085+001525999GD14991+0015259MA1100075100045REMMET10001/02/22 06:49:02 SPECI KTEB 021149Z 20003KT 3SM BR OVC005 11/10 A2955 RMK AO2 RAE14 P0000 FIBI (AZ)
0373725025947412022010211517+40859-074056FM-15+0002KTEB V0202205N00155001525MN0064375N5+01065+01005100085ADDAA101000025AA206000591AA324020691AU100001015AW1105GA1085+001525999GD14991+0015259GE19AGL   +99999+99999GF199999999999001521999999KA1060M+01111KA2060N+01061MA1100105100085MD1290019+9999REMMET14201/02/22 06:51:02 METAR KTEB 021151Z 22003KT 4SM BR OVC005 11/10 A2956 RMK AO2 RAE14 SLP008 P0000 60002 70081 T01060100 10111 20106 52001 (AZ)EQDQ01  00058PRCP06Q02  02058PRCP24
0163725025947412022010212496+40859-074056FM-16+0002KTEB V0202205N00215001525MN0032195N5+01105+01005999999ADDAU100001015AW1105GA1085+001525999GD14991+0015259MA1100075100045REMMET08801/02/22 07:49:02 SPECI KTEB 021249Z 22004KT 2SM BR OVC005 11/10 A2955 RMK AO2 FIBI (BR)
0234725025947412022010212517+40859-074056FM-15+0002KTEB V0202005N00155001525MN0032195N5+01115+01005100065ADDAA101000095AU100001015AW1105GA1085+001525999GD14991+0015259GE19AGL   +99999+99999GF199999999999001521999999MA1100075100045REMMET10001/02/22 07:51:02 METAR KTEB 021251Z 20003KT 2SM BR OVC005 11/10 A2955 RMK AO2 SLP006 T01110100 (BR)
0220725025947412022010213127+40859-074056FM-16+0002KTEB V0202105N00315000615MN0024145N5+01115+01065999999ADDAU100001015AW1105GA1085+000615999GD14991+0006159GE19AGL   +99999+99999GF199999999999000611999999MA1100175100155REMMET09701/02/22 08:12:02 SPECI KTEB 021312Z 21006KT 1 1/2SM BR OVC002 11/11 A2958 RMK AO2 T01110106 (BR)
0216725025947412022010213397+40859-074056FM-16+0002KTEB V0202305N00215002135MN0032195N5+01115+01065999999ADDAU100001015AW1105GA1085+002135999GD14991+0021359GE19AGL   +99999+99999GF199999999999002131999999MA1100145100115REMMET09301/02/22 08:39:02 SPECI KTEB 021339Z 23004KT 2SM BR OVC007 11/11 A2957 RMK AO2 T01110106 (BR)
0234725025947412022010213517+40859-074056FM-15+0002KTEB V0202105N00155001835MN0032195N5+01115+01065100115ADDAA101000095AU100001015AW1105GA1085+001835999GD14991+0018359GE19AGL   +99999+99999GF199999999999001831999999MA1100145100115REMMET10001/02/22 08:51:02 METAR KTEB 021351Z 21003KT 2SM BR OVC006 11/11 A2957 RMK AO2 SLP011 T01110106 (BR)
0220725025947412022010214357+40859-074056FM-16+0002KTEB V0201905N00315000915MN0028165N5+01175+01115999999ADDAU100001015AW1105GA1085+000915999GD14991+0009159GE19AGL   +99999+99999GF199999999999000911999999MA1100205100185REMMET09701/02/22 09:35:02 SPECI KTEB 021435Z 19006KT 1 3/4SM BR OVC003 12/11 A2959 RMK AO2 T01170111 (BR)
0178725025947412022010214496+40859-074056FM-16+0002KTEB V0202005N00365000915MN0040235N5+01205+01105999999ADDAU100001015AW1105GA1085+000915999GD14991+0009159MA1100245100215OC100725REMMET09501/02/22 09:49:02 SPECI KTEB 021449Z 20007G14KT 2 1/2SM BR OVC003 12/11 A2960 RMK AO2 FIBI (BR)
0269725025947412022010214517+40859-074056FM-15+0002KTEB V0201905N00415000915MN0040235N5+01285+01175100225ADDAA101000095AU100001015AW1105GA1085+000915999GD14991+0009159GE19AGL   +99999+99999GF199999999999000911999999MA1100245100215MD1390149+9999OC100725REMMET11301/02/22 09:51:02 METAR KTEB 021451Z 19008G14KT 2 1/2SM BR OVC003 13/12 A2960 RMK AO2 SLP022 T01280117 53014 (BR)
0216725025947412022010215297+40859-074056FM-16+0002KTEB V0202305N00365001835MN0048285N5+01225+01175999999ADDAU100001015AW1105GA1085+001835999GD14991+0018359GE19AGL   +99999+99999GF199999999999001831999999MA1100275100255REMMET09301/02/22 10:29:02 SPECI KTEB 021529Z 23007KT 3SM BR OVC006 12/12 A2961 RMK AO2 T01220117 (BR)
0201725025947412022010215496+40859-074056FM-16+0002KTEB V0202305N00365003355MN0064375N5+01305+01205999999ADDAU100001015AW1105GA1075+003355999GA2085+015245999GD13991+0033559GD24991+0152459MA1100275100255REMMET09501/02/22 10:49:02 SPECI KTEB 021549Z 23007KT 4SM BR BKN011 OVC050 13/12 A2961 RMK AO2 FIBI (BR)
0272725025947412022010215517+40859-074056FM-15+0002KTEB V0202205N00365003355MN0064375N5+01285+01175100275ADDAA101000095AU100001015AW1105GA1075+003355999GA2085+015245999GD13991+0033559GD24991+0152459GE19AGL   +99999+99999GF199999999999003351999999MA1100275100255REMMET10701/02/22 10:51:02 METAR KTEB 021551Z 22007KT 4SM BR BKN011 OVC050 13/12 A2961 RMK AO2 SLP027 T01280117 (BR)
0215725025947412022010216517+40859-074056FM-15+0002KTEB V0202405N00415003055MN0160935N5+01335+01175100235ADDAA101000095GA1085+003055999GD14991+0030559GE19AGL   +99999+99999GF199999999999003051999999MA1100245100215REMMET09801/02/22 11:51:02 METAR KTEB 021651Z 24008KT 10SM OVC010 13/12 A2960 RMK AO2 SLP023 T01330117 (BR)
0349725025947412022010217517+40859-074056FM-15+0002KTEB V0202505N00465007015MN0160935N5+01395+01175100215ADDAA101000095GA1045+005185999GA2075+007015999GA3085+010975999GD12991+0051859GD23991+0070159GD34991+0109759GE19AGL   +99999+99999GF199999999999005181999999KA1060M+01391KA2060N+01061MA1100205100185MD1890029+9999REMMET13001/02/22 12:51:02 METAR KTEB 021751Z 25009KT 10SM SCT017 BKN023 OVC036 14/12 A2959 RMK AO2 SLP021 T01390117 10139 20106 58002 (BR)
0291725025947412022010218517+40859-074056FM-15+0002KTEB V0202805N00415008535MN0160935N5+01445+01175100275ADDAA101000095GA1045+006105999GA2075+008535999GA3085+010975999GD12991+0061059GD23991+0085359GD34991+0109759GE19AGL   +99999+99999GF199999999999006101999999MA1100275100255REMMET11201/02/22 13:51:02 METAR KTEB 021851Z 28008KT 10SM SCT020 BKN028 OVC036 14/12 A2961 RMK AO2 SLP027 T01440117 (BR)
0291725025947412022010219517+40859-074056FM-15+0002KTEB V0200105N00465008535MN0160935N5+01175+00895100385ADDAA101000095GA1045+006105999GA2075+008535999GA3085+010975999GD12991+0061059GD23991+0085359GD34991+0109759GE19AGL   +99999+99999GF199999999999006101999999MA1100415100385REMMET11201/02/22 14:51:02 METAR KTEB 021951Z 01009KT 10SM SCT020 BKN028 OVC036 12/09 A2965 RMK AO2 SLP038 T01170089 (BR)
0280725025947412022010220517+40859-074056FM-15+0002KTEB V0203505N00365008535MN0160935N5+01115+00835100515ADDAA101000095GA1045+006105999GA2075+008535999GD12991+0061059GD23991+0085359GE19AGL   +99999+99999GF199999999999006101999999MA1100515100485MD1390309+9999REMMET11801/02/22 15:51:02 METAR KTEB 022051Z 35007KT 10SM SCT020 BKN028 11/08 A2968 RMK AO2 PRESRR SLP051 T01110083 53030 (CG)
0226725025947412022010221517+40859-074056FM-15+0002KTEB V0203205N00575008535MN0160935N5+01005+00565100695ADDAA101000095GA1085+008535999GD14991+0085359GE19AGL   +99999+99999GF199999999999008531999999MA1100715100695OC100935REMMET10101/02/22 16:51:02 METAR KTEB 022151Z 32011G18KT 10SM OVC028 10/06 A2974 RMK AO2 SLP069 T01000056 (CG)
0233725025947412022010222517+40859-074056FM-15+0002KTEB V0203205N00775008535MN0160935N5+00835+00335100935ADDAA101000095GA1085+008535999GD14991+0085359GE19AGL   +99999+99999GF199999999999008531999999MA1100955100925OC101085REMMET10801/02/22 17:51:02 METAR KTEB 022251Z 32015G21KT 10SM OVC028 08/03 A2981 RMK AO2 PRESRR SLP093 T00830033 (CG)
0231725025947412022010223496+40859-074056FM-16+0002KTEB V0203505N00725009755MN0160935N5+00705+00205999999ADDGA1045+007925999GA2075+009755999GA3075+027435999GD12991+0079259GD23991+0097559GD33991+0274359MA1101085101065OC101035REMMET10301/02/22 18:49:02 SPECI KTEB 022349Z 35014G20KT 10SM SCT026 BKN032 BKN090 07/02 A2985 RMK AO2 FIBI (CG)
0360725025947412022010223517+40859-074056FM-15+0002KTEB V0203505N00775028965MN0160935N5+00615+00115101085ADDAA101000095GA1045+007925999GA2045+009755999GA3075+028965999GD12991+0079259GD22991+0097559GD33991+0289659GE19AGL   +99999+99999GF199999999999007921999999KA1060M+01501KA2060N+00611MA1101085101065MD1190579+9999OC101185REMMET13301/02/22 18:51:02 METAR KTEB 022351Z 35015G23KT 10SM SCT026 SCT032 BKN095 06/01 A2985 RMK AO2 SLP108 T00610011 10150 20061 51057 (CG)
0229725025947412022010300517+40859-074056FM-15+0002KTEB V0203305N006752200059N0160935N5+00335-00225101275ADDAA101000095GA1005+999999999GD10991+9999999GF100991999999999999999999MA1101295101265OC101135OD149901331340REMMET11201/02/22 19:51:01 METAR KTEB 030051Z 33013G22KT 10SM CLR 03/M02 A2991 RMK AO2 PK WND 34026/0022 SLP127 T00331022
0186725025947412022010301517+40859-074056FM-15+0002KTEB V0203205N003652200059N0160935N5+00285-00225101355ADDAA101000095GA1005+999999999GD10991+9999999GF100991999999999999999999MA1101355101335REMMET09101/02/22 20:51:01 METAR KTEB 030151Z 32007KT 10SM CLR 03/M02 A2993 RMK AO2 SLP135 T00281022
0145725025947412022010302496+40859-074056FM-16+0002KTEB V0203405N00315008535MN0160935N5+00305-00205999999ADDGA1075+008535999GD13991+0085359MA1101425101405REMMET08701/02/22 21:49:03 SPECI KTEB 030249Z 34006KT 10SM BKN028 03/M02 A2995 RMK AO2 FIBI (CG)
0231725025947412022010302517+40859-074056FM-15+0002KTEB V0203405N00215008535MN0160935N5+00285-00225101435ADDAA101000095GA1075+008535999GD13991+0085359GE19AGL   +99999+99999GF199999999999008531999999MA1101425101405MD1190359+9999REMMET10001/02/22 21:51:01 METAR KTEB 030251Z 34004KT 10SM BKN028 03/M02 A2995 RMK AO2 SLP143 T00281022 51035
0211725025947412022010303517+40859-074056FM-15+0002KTEB V0203305N00315008535MN0160935N5+00285-00285101535ADDAA101000095GA1075+008535999GD13991+0085359GE19AGL   +99999+99999GF199999999999008531999999MA1101525101505REMMET09401/02/22 22:51:01 METAR KTEB 030351Z 33006KT 10SM BKN028 03/M03 A2998 RMK AO2 SLP153 T00281028
0212725025947412022010303587+40859-074056FM-16+0002KTEB V0203505N002652200059N0160935N5+00285-00285999999ADDGA1025+028965999GD11991+0289659GE19AGL   +99999+99999GF102995999999028961999999MA1101525101505REMMET08701/02/22 22:58:02 SPECI KTEB 030358Z 35005KT 10SM FEW095 03/M03 A2998 RMK AO2 T00281028EQDD01      0ADE726
0266725025947412022010304517+40859-074056FM-15+0002KTEB V0203205N003152200059N0160935N5+00225-00335101625ADDAA101000095GA1045+009145999GD12991+0091459GE19AGL   +99999+99999GF104995999999009141999999KA1240M+01501KA2240N+00221MA1101635101605REMMET10401/02/22 23:51:02 METAR KTEB 030451Z 32006KT 10SM SCT030 02/M03 A3001 RMK AO2 SLP162 T00221033 401500022EQDD01      0ADE726
0922725025947412022010304596+40859-074056SOD  +0002KTEB V020999999999999999999999999999+99999+99999999999ADDAA124000595AT1AU16RA  5AT2AU01FG  5AT3AU13BR  5KA1240M+01505KA2240N+00175MG1100324099804OE11240134134019225OE22240102834019205OE33240034999999995REMSOD73024 HR PRECIPITATION (IN):0.02  24 HR MAX TEMP (F):59 24 HR MAX TEMP TIME (LST):1342 24 HR MIN TEMP (F):35 24 HR MIN TEMP TIME (LST):2359 AVERAGE STATION PRESSURE:29.625 MINIMUM SEA LEVEL PRESSURE:29.47 TIME OF OCCURRENCE:0222 PEAK WIND SPEED (MPH):30  PEAK WIND DIR (DEG):340 PEAK WIND TIME (LST):1922  FASTEST 2MIN SPEED (MPH):23 FASTEST 2MIN DIR (DEG):340 FASTEST 2MIN TIME (LST):1920 AVERAGE WIND SPEED (MPH):7.8  24 HR AVG TEMP (F):47 HEATING DEGREE DAYS:18  COOLING DEGREE DAYS:0   LATEST DAY MAX TEMP (0700-1900 LST):59  LATEST NIGHT MIN TEMP(1900-0800 LST):51 HOURLY INCREMENTAL PRECIPITATION VALUES (IN):.01 T    T    0.00 0.00 0.01 T    0.00 0.00 0.00 0.00 0.00 0.00 0.00 0.00 0.00 0.00 0.00 0.00 0.00 0.00 0.00 0.00 0.00EQDR01     N7GJS072R02     N7GKS075
0249725025947412022010305517+40859-074056FM-15+0002KTEB V0203305N004652200059N0160935N5+00175-00395101705ADDAA101000095GA1005+999999999GD10991+9999999GF100991999999999999999999KA1060M+00611KA2060N+00171MA1101695101675MD1190279+9999REMMET11401/03/22 00:51:02 METAR KTEB 030551Z 33009KT 10SM CLR 02/M04 A3003 RMK AO2 SLP170 T00171039 10061 20017 51027 (AZ)
0198725025947412022010306517+40859-074056FM-15+0002KTEB V0203205N003652200059N0160935N5+00175-00395101865ADDAA101000095GA1005+999999999GD10991+9999999GF100991999999999999999999MA1101865101845REMMET10301/03/22 01:51:02 METAR KTEB 030651Z 32007KT 10SM CLR 02/M04 A3008 RMK AO2 PRESRR SLP186 T00171039 (AZ)
0254725025947412022010307517+40859-074056FM-15+0002KTEB V0203405N00415033535MN0160935N5+00115-00505101905ADDAA101000095GA1045+009455999GA2085+033535999GD12991+0094559GD24991+0335359GE19AGL   +99999+99999GF199999999999009451999999MA1101905101875REMMET10601/03/22 02:51:02 METAR KTEB 030751Z 34008KT 10SM SCT031 OVC110 01/M05 A3009 RMK AO2 SLP190 T00111050 (AZ)
0274725025947412022010308517+40859-074056FM-15+0002KTEB V0200205N00365033535MN0160935N5+00065-00565101835ADDAA101000095GA1045+009455999GA2085+033535999GD12991+0094559GD24991+0335359GE19AGL   +99999+99999GF199999999999009451999999MA1101835101805MD1090149+9999REMMET11201/03/22 03:51:02 METAR KTEB 030851Z 02007KT 10SM SCT031 OVC110 01/M06 A3007 RMK AO2 SLP183 T00061056 50014 (AZ)
0235725025947412022010309517+40859-074056FM-15+0002KTEB V0200405N003652200059N0160935N5+00005-00615101905ADDAA101000095GA1045+009455999GD12991+0094559GE19AGL   +99999+99999GF104995999999009451999999MA1101905101875REMMET09901/03/22 04:51:02 METAR KTEB 030951Z 04007KT 10SM SCT031 00/M06 A3009 RMK AO2 SLP190 T00001061 (AZ)EQDD01      0ADE726
0192725025947412022010310517+40859-074056FM-15+0002KTEB V0200105N004152200059N0160935N5-00065-00615101985ADDAA101000095GA1005+999999999GD10991+9999999GF100991999999999999999999MA1102005101975REMMET09701/03/22 05:51:02 METAR KTEB 031051Z 01008KT 10SM CLR M01/M06 A3012 RMK AO2 SLP198 T10061061 (AZ)
0261725025947412022010311517+40859-074056FM-15+0002KTEB V0200205N004652200059N0160935N5-00115-00675101915ADDAA101000095GA1005+999999999GD10991+9999999GF100991999999999999999999KA1060M+00171KA2060N-00111MA1101935101915MD1090079+9999OC100935REMMET11801/03/22 06:51:02 METAR KTEB 031151Z 02009G18KT 10SM CLR M01/M07 A3010 RMK AO2 SLP191 T10111067 10017 21011 50007 (AZ)
0203725025947412022010312517+40859-074056FM-15+0002KTEB V0200205N005152200059N0160935N5-00115-00895101985ADDAA101000095GA1005+999999999GD10991+9999999GF100991999999999999999999MA1102005101975OC100985REMMET10001/03/22 07:51:02 METAR KTEB 031251Z 02010G19KT 10SM CLR M01/M09 A3012 RMK AO2 SLP198 T10111089 (DK)
0217725025947412022010313517+40859-074056FM-15+0002KTEB V0200205N00415036585MN0160935N5-00175-01175102065ADDAA101000095GA1075+036585999GD13991+0365859GE19AGL   +99999+99999GF199999999999036581999999MA1102075102045REMMET10001/03/22 08:51:02 METAR KTEB 031351Z 02008KT 10SM BKN120 M02/M12 A3014 RMK AO2 SLP206 T10171117 (DK)
0255725025947412022010314517+40859-074056FM-15+0002KTEB V0200105N00515036585MN0160935N5-00225-01335102105ADDAA101000095GA1075+036585999GD13991+0365859GE19AGL   +99999+99999GF199999999999036581999999MA1102105102085MD1190209+9999OC100985REMMET11601/03/22 09:51:02 METAR KTEB 031451Z 01010G19KT 10SM BKN120 M02/M13 A3015 RMK AO2 PRESRR SLP210 T10221133 51020 (DK)
0246725025947412022010315517+40859-074056FM-15+0002KTEB V0200205N00675033535MN0160935N5-00225-01395102065ADDAA101000095GA1085+033535999GD14991+0335359GE19AGL   +99999+99999GF199999999999033531999999MA1102075102045OC101085REMMET12101/03/22 10:51:02 METAR KTEB 031551Z 02013G21KT 10SM OVC110 M02/M14 A3014 RMK AO2 PK WND 03026/1521 SLP206 T10221139 (DK)
0228725025947412022010316517+40859-074056FM-15+0002KTEB V0200105N00675033535MN0160935N5-00225-01445101925ADDAA101000095GA1085+033535999GD14991+0335359GE19AGL   +99999+99999GF199999999999033531999999MA1101935101915OC100985REMMET10301/03/22 11:51:02 METAR KTEB 031651Z 01013G19KT 10SM OVC110 M02/M14 A3010 RMK AO2 SLP192 T10221144 (DK)
0293725025947412022010317517+40859-074056FM-15+0002KTEB V0200105N00725028965MN0160935N5-00285-01335101765ADDAA101000095GA1075+028965999GD13991+0289659GE19AGL   +99999+99999GF199999999999028961999999KA1060M-00111KA2060N-00281MA1101765101745MD1890359+9999OC101035REMMET12801/03/22 12:51:02 METAR KTEB 031751Z 01014G20KT 10SM BKN095 M03/M13 A3005 RMK AO2 PRESRR SLP176 T10281133 11011 21028 58035 (DK)
0228725025947412022010318517+40859-074056FM-15+0002KTEB V0200205N00725030485MN0160935N5-00285-01285101675ADDAA101000095GA1085+030485999GD14991+0304859GE19AGL   +99999+99999GF199999999999030481999999MA1101665101645OC101085REMMET10301/03/22 13:51:02 METAR KTEB 031851Z 02014G21KT 10SM OVC100 M03/M13 A3002 RMK AO2 SLP167 T10281128 (DK)
0235725025947412022010319517+40859-074056FM-15+0002KTEB V0200205N006252200059N0160935N5-00285-01335101735ADDAA101000095GA1005+999999999GD10991+9999999GF100991999999999999999999MA1101735101705OC100885OD149901441010REMMET11801/03/22 14:51:02 METAR KTEB 031951Z 02012G17KT 10SM CLR M03/M13 A3004 RMK AO2 PK WND 01028/1918 SLP173 T10281133 (DK)
0266725025947412022010320517+40859-074056FM-15+0002KTEB V0203505N00935010065MN0160935N5-00285-01445101785ADDAA101000095GA1085+010065999GD14991+0100659GE19AGL   +99999+99999GF199999999999010061999999MA1101795101775MD1390039+9999OC101445REMMET12701/03/22 15:51:02 METAR KTEB 032051Z 35018G28KT 10SM OVC033 M03/M14 A3006 RMK AO2 PK WND 36028/2050 SLP178 T10281144 53003 (CG)
0247725025947412022010321517+40859-074056FM-15+0002KTEB V0200105N006752200059N0160935N5-00335-01505101855ADDAA101000095GA1025+010675999GD11991+0106759GE19AGL   +99999+99999GF102995999999010671999999MA1101865101845OC101245REMMET10301/03/22 16:51:02 METAR KTEB 032151Z 01013G24KT 10SM FEW035 M03/M15 A3008 RMK AO2 SLP185 T10331150 (CG)EQDD01      0ADE726
0235725025947412022010322517+40859-074056FM-15+0002KTEB V0200105N004652200059N0160935N5-00335-01565101995ADDAA101000095GA1005+999999999GD10991+9999999GF100991999999999999999999MA1102005101975OC101085OD149901331350REMMET11801/03/22 17:51:02 METAR KTEB 032251Z 01009G21KT 10SM CLR M03/M16 A3012 RMK AO2 PK WND 35026/2159 SLP199 T10331156 (CG)
0261725025947412022010323517+40859-074056FM-15+0002KTEB V0203605N005752200059N0160935N5-00395-01615102115ADDAA101000095GA1005+999999999GD10991+9999999GF100991999999999999999999KA1060M-00221KA2060N-00391MA1102105102085MD1390339+9999OC101085REMMET11801/03/22 18:51:02 METAR KTEB 032351Z 36011G21KT 10SM CLR M04/M16 A3015 RMK AO2 SLP211 T10391161 11022 21039 53033 (CG)
0198725025947412022010400517+40859-074056FM-15+0002KTEB V0203605N005152200059N0160935N5-00445-01445102215ADDAA101000095GA1005+999999999GD10991+9999999GF100991999999999999999999MA1102245102215OC100935REMMET09501/03/22 19:51:01 METAR KTEB 040051Z 36010G18KT 10SM CLR M04/M14 A3019 RMK AO2 SLP221 T10441144
0187725025947412022010401517+40859-074056FM-15+0002KTEB V0203505N006252200059N0160935N5-00505-01335102295ADDAA101000095GA1005+999999999GD10991+9999999GF100991999999999999999999MA1102305102285REMMET09201/03/22 20:51:01 METAR KTEB 040151Z 35012KT 10SM CLR M05/M13 A3021 RMK AO2 SLP229 T10501133
0207725025947412022010402517+40859-074056FM-15+0002KTEB V0203605N004652200059N0160935N5-00565-01285102355ADDAA101000095GA1005+999999999GD10991+9999999GF100991999999999999999999MA1102375102355MD1190249+9999REMMET09801/03/22 21:51:01 METAR KTEB 040251Z 36009KT 10SM CLR M06/M13 A3023 RMK AO2 SLP235 T10561128 51024
0187725025947412022010403517+40859-074056FM-15+0002KTEB V0203505N004652200059N0160935N5-00615-01225102395ADDAA101000095GA1005+999999999GD10991+9999999GF100991999999999999999999MA1102405102385REMMET09201/03/22 22:51:02 METAR KTEB 040351Z 35009KT 10SM CLR M06/M12 A3024 RMK AO2 SLP239 T10611122
0223725025947412022010404517+40859-074056FM-15+0002KTEB V0203505N005152200059N0160935N5-00615-01225102465ADDAA101000095GA1005+999999999GD10991+9999999GF100991999999999999999999KA1240M+00221KA2240N-00611MA1102475102455REMMET10201/03/22 23:51:02 METAR KTEB 040451Z 35010KT 10SM CLR M06/M12 A3026 RMK AO2 SLP246 T10611122 400221061
0886725025947412022010404596+40859-074056SOD  +0002KTEB V020999999999999999999999999999+99999+99999999999ADDAA124000095KA1240M+00225KA2240N-00605MG1101834101594OE11240143101014185OE22240098335015505OE33240053699999995REMSOD73024 HR PRECIPITATION (IN):0.00  24 HR MAX TEMP (F):36 24 HR MAX TEMP TIME (LST):0020 24 HR MIN TEMP (F):21 24 HR MIN TEMP TIME (LST):2359 AVERAGE STATION PRESSURE:30.070 MINIMUM SEA LEVEL PRESSURE:30.00 TIME OF OCCURRENCE:0002 PEAK WIND SPEED (MPH):32  PEAK WIND DIR (DEG):10  PEAK WIND TIME (LST):1418  FASTEST 2MIN SPEED (MPH):22 FASTEST 2MIN DIR (DEG):350 FASTEST 2MIN TIME (LST):1550 AVERAGE WIND SPEED (MPH):12.0 24 HR AVG TEMP (F):29 HEATING DEGREE DAYS:36  COOLING DEGREE DAYS:0   LATEST DAY MAX TEMP (0700-1900 LST):30  LATEST NIGHT MIN TEMP(1900-0800 LST):30 HOURLY INCREMENTAL PRECIPITATION VALUES (IN):.00 0.00 0.00 0.00 0.00 0.00 0.00 0.00 0.00 0.00 0.00 0.00 0.00 0.00 0.00 0.00 0.00 0.00 0.00 0.00 0.00 0.00 0.00 0.00EQDR01     N7GJS072R02     N7GKS075
0250725025947412022010405517+40859-074056FM-15+0002KTEB V0203405N004152200059N0160935N5-00675-01395102525ADDAA101000095GA1005+999999999GD10991+9999999GF100991999999999999999999KA1060M-00391KA2060N-00671MA1102545102525MD1390179+9999REMMET11501/04/22 00:51:02 METAR KTEB 040551Z 34008KT 10SM CLR M07/M14 A3028 RMK AO2 SLP252 T10671139 11039 21067 53017 (AZ)
0192725025947412022010406517+40859-074056FM-15+0002KTEB V0203405N004152200059N0160935N5-00675-01445102625ADDAA101000095GA1005+999999999GD10991+9999999GF100991999999999999999999MA1102645102625REMMET09701/04/22 01:51:02 METAR KTEB 040651Z 34008KT 10SM CLR M07/M14 A3031 RMK AO2 SLP262 T10671144 (SW)
0192725025947412022010407517+40859-074056FM-15+0002KTEB V0203305N004152200059N0160935N5-00725-01445102675ADDAA101000095GA1005+999999999GD10991+9999999GF100991999999999999999999MA1102685102655REMMET09701/04/22 02:51:02 METAR KTEB 040751Z 33008KT 10SM CLR M07/M14 A3032 RMK AO2 SLP267 T10721144 (SW)
0212725025947412022010408517+40859-074056FM-15+0002KTEB V0203205N005752200059N0160935N5-00725-01445102765ADDAA101000095GA1005+999999999GD10991+9999999GF100991999999999999999999MA1102785102755MD1190249+9999REMMET10301/04/22 03:51:02 METAR KTEB 040851Z 32011KT 10SM CLR M07/M14 A3035 RMK AO2 SLP276 T10721144 51024 (SW)
0192725025947412022010409517+40859-074056FM-15+0002KTEB V0203105N002152200059N0160935N5-00785-01445102865ADDAA101000095GA1005+999999999GD10991+9999999GF100991999999999999999999MA1102885102855REMMET09701/04/22 04:51:02 METAR KTEB 040951Z 31004KT 10SM CLR M08/M14 A3038 RMK AO2 SLP286 T10781144 (SW)
0192725025947412022010410517+40859-074056FM-15+0002KTEB V0203405N003652200059N0160935N5-00785-01395102905ADDAA101000095GA1005+999999999GD10991+9999999GF100991999999999999999999MA1102915102895REMMET09701/04/22 05:51:02 METAR KTEB 041051Z 34007KT 10SM CLR M08/M14 A3039 RMK AO2 SLP290 T10781139 (SW)
0250725025947412022010411517+40859-074056FM-15+0002KTEB V0203505N003652200059N0160935N5-00785-01395103005ADDAA101000095GA1005+999999999GD10991+9999999GF100991999999999999999999KA1060M-00671KA2060N-00781MA1103015102995MD1290239+9999REMMET11501/04/22 06:51:02 METAR KTEB 041151Z 35007KT 10SM CLR M08/M14 A3042 RMK AO2 SLP300 T10781139 11067 21078 52023 (SW)
0192725025947412022010412517+40859-074056FM-15+0002KTEB V0203405N002152200059N0160935N5-00725-01335103025ADDAA101000095GA1005+999999999GD10991+9999999GF100991999999999999999999MA1103015102995REMMET09701/04/22 07:51:02 METAR KTEB 041251Z 34004KT 10SM CLR M07/M13 A3042 RMK AO2 SLP302 T10721133 (BR)
0192725025947412022010413517+40859-074056FM-15+0002KTEB V0203305N001552200059N0160935N5-00615-01285103085ADDAA101000095GA1005+999999999GD10991+9999999GF100991999999999999999999MA1103085103065REMMET09701/04/22 08:51:02 METAR KTEB 041351Z 33003KT 10SM CLR M06/M13 A3044 RMK AO2 SLP308 T10611128 (BR)
0212725025947412022010414517+40859-074056FM-15+0002KTEB V0209999C000052200059N0160935N5-00505-01285103095ADDAA101000095GA1005+999999999GD10991+9999999GF100991999999999999999999MA1103125103095MD1190099+9999REMMET10301/04/22 09:51:02 METAR KTEB 041451Z 00000KT 10SM CLR M05/M13 A3045 RMK AO2 SLP309 T10501128 51009 (BR)
0192725025947412022010415517+40859-074056FM-15+0002KTEB V0209999C000052200059N0160935N5-00335-01225103065ADDAA101000095GA1005+999999999GD10991+9999999GF100991999999999999999999MA1103055103025REMMET09701/04/22 10:51:02 METAR KTEB 041551Z 00000KT 10SM CLR M03/M12 A3043 RMK AO2 SLP306 T10331122 (BR)
0192725025947412022010416517+40859-074056FM-15+0002KTEB V0202905N003152200059N0160935N5-00115-01175102945ADDAA101000095GA1005+999999999GD10991+9999999GF100991999999999999999999MA1102955102925REMMET09701/04/22 11:51:02 METAR KTEB 041651Z 29006KT 10SM CLR M01/M12 A3040 RMK AO2 SLP294 T10111117 (BR)
0249725025947412022010417517+40859-074056FM-15+0002KTEB V0209999V003152200059N0160935N5+00005-01115102825ADDAA101000095GA1005+999999999GD10991+9999999GF100991999999999999999999KA1060M+00001KA2060N-00781MA1102815102795MD1890279+9999REMMET11401/04/22 12:51:02 METAR KTEB 041751Z VRB06KT 10SM CLR 00/M11 A3036 RMK AO2 SLP282 T00001111 10000 21078 58027 (BR)
0191725025947412022010418517+40859-074056FM-15+0002KTEB V0201705N002152200059N0160935N5+00005-01065102795ADDAA101000095GA1005+999999999GD10991+9999999GF100991999999999999999999MA1102785102755REMMET09601/04/22 13:51:02 METAR KTEB 041851Z 17004KT 10SM CLR 00/M11 A3035 RMK AO2 SLP279 T00001106 (BR)
0191725025947412022010419517+40859-074056FM-15+0002KTEB V0201905N003652200059N0160935N5+00065-01065102785ADDAA101000095GA1005+999999999GD10991+9999999GF100991999999999999999999MA1102785102755REMMET09601/04/22 14:51:02 METAR KTEB 041951Z 19007KT 10SM CLR 01/M11 A3035 RMK AO2 SLP278 T00061106 (BR)
0211725025947412022010420517+40859-074056FM-15+0002KTEB V0202105N003152200059N0160935N5+00175-01005102795ADDAA101000095GA1005+999999999GD10991+9999999GF100991999999999999999999MA1102815102795MD1590039+9999REMMET10201/04/22 15:51:02 METAR KTEB 042051Z 21006KT 10SM CLR 02/M10 A3036 RMK AO2 SLP279 T00171100 55003 (BR)
0191725025947412022010421517+40859-074056FM-15+0002KTEB V0202105N003152200059N0160935N5+00005-01005102795ADDAA101000095GA1005+999999999GD10991+9999999GF100991999999999999999999MA1102815102795REMMET09601/04/22 16:51:02 METAR KTEB 042151Z 21006KT 10SM CLR 00/M10 A3036 RMK AO2 SLP279 T00001100 (CG)
0192725025947412022010422517+40859-074056FM-15+0002KTEB V0202105N003152200059N0160935N5-00065-01005102805ADDAA101000095GA1005+999999999GD10991+9999999GF100991999999999999999999MA1102815102795REMMET09701/04/22 17:51:02 METAR KTEB 042251Z 21006KT 10SM CLR M01/M10 A3036 RMK AO2 SLP280 T10061100 (CG)
0250725025947412022010423517+40859-074056FM-15+0002KTEB V0202005N001552200059N0160935N5-00115-00945102795ADDAA101000095GA1005+999999999GD10991+9999999GF100991999999999999999999KA1060M+00171KA2060N-00111MA1102815102795MD1090009+9999REMMET11501/04/22 18:51:02 METAR KTEB 042351Z 20003KT 10SM CLR M01/M09 A3036 RMK AO2 SLP279 T10111094 10017 21011 50000 (CG)
0187725025947412022010500517+40859-074056FM-15+0002KTEB V0202105N002652200059N0160935N5-00175-00895102775ADDAA101000095GA1005+999999999GD10991+9999999GF100991999999999999999999MA1102785102755REMMET09201/04/22 19:51:01 METAR KTEB 050051Z 21005KT 10SM CLR M02/M09 A3035 RMK AO2 SLP277 T10171089
0187725025947412022010501517+40859-074056FM-15+0002KTEB V0202005N002152200059N0160935N5-00225-00895102725ADDAA101000095GA1005+999999999GD10991+9999999GF100991999999999999999999MA1102745102725REMMET09201/04/22 20:51:01 METAR KTEB 050151Z 20004KT 10SM CLR M02/M09 A3034 RMK AO2 SLP272 T10221089
0207725025947412022010502517+40859-074056FM-15+0002KTEB V0202105N001552200059N0160935N5-00175-00895102695ADDAA101000095GA1005+999999999GD10991+9999999GF100991999999999999999999MA1102715102685MD1890119+9999REMMET09801/04/22 21:51:01 METAR KTEB 050251Z 21003KT 10SM CLR M02/M09 A3033 RMK AO2 SLP269 T10171089 58011
0187725025947412022010503517+40859-074056FM-15+0002KTEB V0201905N002152200059N0160935N5-00285-00895102635ADDAA101000095GA1005+999999999GD10991+9999999GF100991999999999999999999MA1102645102625REMMET09201/04/22 22:51:02 METAR KTEB 050351Z 19004KT 10SM CLR M03/M09 A3031 RMK AO2 SLP263 T10281089
0223725025947412022010504517+40859-074056FM-15+0002KTEB V0201905N003652200059N0160935N5-00225-00835102565ADDAA101000095GA1005+999999999GD10991+9999999GF100991999999999999999999KA1240M+00171KA2240N-00781MA1102575102555REMMET10201/04/22 23:51:02 METAR KTEB 050451Z 19007KT 10SM CLR M02/M08 A3029 RMK AO2 SLP256 T10221083 400171078
0886725025947412022010504596+40859-074056SOD  +0002KTEB V020999999999999999999999999999+99999+99999999999ADDAA124000095KA1240M+00175KA2240N-00775MG1102744102474OE11240098315014415OE22240062634004075OE33240027399999995REMSOD73024 HR PRECIPITATION (IN):0.00  24 HR MAX TEMP (F):35 24 HR MAX TEMP TIME (LST):1553 24 HR MIN TEMP (F):18 24 HR MIN TEMP TIME (LST):0711 AVERAGE STATION PRESSURE:30.340 MINIMUM SEA LEVEL PRESSURE:30.26 TIME OF OCCURRENCE:0027 PEAK WIND SPEED (MPH):22  PEAK WIND DIR (DEG):150 PEAK WIND TIME (LST):1441  FASTEST 2MIN SPEED (MPH):14 FASTEST 2MIN DIR (DEG):340 FASTEST 2MIN TIME (LST):0407 AVERAGE WIND SPEED (MPH):6.1  24 HR AVG TEMP (F):27 HEATING DEGREE DAYS:38  COOLING DEGREE DAYS:0   LATEST DAY MAX TEMP (0700-1900 LST):35  LATEST NIGHT MIN TEMP(1900-0800 LST):18 HOURLY INCREMENTAL PRECIPITATION VALUES (IN):.00 0.00 0.00 0.00 0.00 0.00 0.00 0.00 0.00 0.00 0.00 0.00 0.00 0.00 0.00 0.00 0.00 0.00 0.00 0.00 0.00 0.00 0.00 0.00EQDR01     N7GJS072R02     N7GKS075
0250725025947412022010505517+40859-074056FM-15+0002KTEB V0201905N002152200059N0160935N5-00285-00835102475ADDAA101000095GA1005+999999999GD10991+9999999GF100991999999999999999999KA1060M-00111KA2060N-00331MA1102475102455MD1890219+9999REMMET11501/05/22 00:51:02 METAR KTEB 050551Z 19004KT 10SM CLR M03/M08 A3026 RMK AO2 SLP247 T10281083 11011 21033 58021 (SW)
0192725025947412022010506517+40859-074056FM-15+0002KTEB V0202005N002652200059N0160935N5-00335-00785102405ADDAA101000095GA1005+999999999GD10991+9999999GF100991999999999999999999MA1102405102385REMMET09701/05/22 01:51:02 METAR KTEB 050651Z 20005KT 10SM CLR M03/M08 A3024 RMK AO2 SLP240 T10331078 (SW)
0192725025947412022010507517+40859-074056FM-15+0002KTEB V0209999C000052200059N0160935N5-00285-00785102335ADDAA101000095GA1005+999999999GD10991+9999999GF100991999999999999999999MA1102345102315REMMET09701/05/22 02:51:02 METAR KTEB 050751Z 00000KT 10SM CLR M03/M08 A3022 RMK AO2 SLP233 T10281078 (SW)
0237725025947412022010508517+40859-074056FM-15+0002KTEB V0209999C00005019815MN0160935N5-00285-00675102225ADDAA101000095GA1075+019815999GD13991+0198159GE19AGL   +99999+99999GF199999999999019811999999MA1102245102215MD1890269+9999REMMET10601/05/22 03:51:02 METAR KTEB 050851Z 00000KT 10SM BKN065 M03/M07 A3019 RMK AO2 SLP222 T10281067 58026 (SW)
0339725025947412022010509517+40859-074056FM-15+0002KTEB V0209999C00005014335MN0144845N5-00175-00615102055ADDAA101000025AU110030015AW1715GA1075+014335999GA2075+016765999GA3085+021345999GD13991+0143359GD23991+0167659GD34991+0213459GE19AGL   +99999+99999GF199999999999014331999999MA1102075102045MW1715REMMET13701/05/22 04:51:02 METAR KTEB 050951Z 00000KT 9SM -SN BKN047 BKN055 OVC070 M02/M06 A3014 RMK AO2 UPB36E37SNB37 SLP205 P0000 T10171061 (SW)
0308725025947412022010510347+40859-074056FM-16+0002KTEB V0209999C00005005495MN0160935N5-00115-00565999999ADDAA101000021AU118020015AW1645GA1075+005495999GA2085+018295999GD13991+0054959GD24991+0182959GE19AGL   +99999+99999GF199999999999005491999999MA1102005101975REMMET14301/05/22 05:34:02 SPECI KTEB 051034Z 00000KT 10SM -FZRA BKN018 OVC060 M01/M06 A3012 RMK AO2 UPB27E33FZRAB0952E0955B33SNE04 P0000 T10111056 (SW)
0216725025947412022010510496+40859-074056FM-16+0002KTEB V0209999C00005004885MN0160935N5-00105-00505999999ADDAU110030015AW1715GA1085+004885999GD14991+0048859MA1101965101945MW1715REMMET13501/05/22 05:49:02 SPECI KTEB 051049Z 00000KT 10SM -SN OVC016 M01/M05 A3011 RMK AO2 UPB27E33FZRAB0952E0955B33E39SNE04B39 P0000 FIBI (SW)
0287725025947412022010510517+40859-074056FM-15+0002KTEB V0203205N00155004885MN0160935N5-00115-00505101975ADDAA101000025AU110030015AW1715GA1085+004885999GD14991+0048859GE19AGL   +99999+99999GF199999999999004881999999MA1101965101945MW1715REMMET14701/05/22 05:51:02 METAR KTEB 051051Z 32003KT 10SM -SN OVC016 M01/M05 A3011 RMK AO2 UPB27E33FZRAB0952E0955B33E39SNE04B39 SLP197 P0000 T10111050 (SW)
0221725025947412022010511496+40859-074056FM-16+0002KTEB V0209999C00005003965MN0128755N5-00105-00405999999ADDAU110020015AW1615GA1085+003965999GD14991+0039659MA1101835101805MW1615REMMET14001/05/22 06:49:02 SPECI KTEB 051149Z 00000KT 8SM -RA OVC013 M01/M04 A3007 RMK AO2 RAB1055E23B48DZB1059E09B39E48SNE1055B23E39 P0002 FIBI (SW)
0419725025947412022010511517+40859-074056FM-15+0002KTEB V0209999C00005003965MN0128755N5-00115-00395101825ADDAA101000896AA206000592AA324000591AU110020015AW1615GA1085+003965999GD14991+0039659GE19AGL   +99999+99999GF199999999999003961999999KA1060M-00111KA2060N-00331MA1101835101805MD1690409+9999MW1615REMMET18201/05/22 06:51:02 METAR KTEB 051151Z 00000KT 8SM -RA OVC013 M01/M04 A3007 RMK AO2 RAB1055E23B48DZB1059E09B39E48SNE1055B23E39 SLP182 P0002 60002 70002 T10111039 11011 21033 56040 (SW)EQDQ01  00058PRCP06Q02  00058PRCP24
0253725025947412022010512496+40859-074056FM-16+0002KTEB V0201405N00155018295MN0064375N5-00105-00305999999ADDAU100007015GA1025+006105999GA2045+007625999GA3085+018295999GD11991+0061059GD22991+0076259GD34991+0182959MA1101695101675MW1055REMMET11601/05/22 07:49:02 SPECI KTEB 051249Z 14003KT 4SM HZ FEW020 SCT025 OVC060 M01/M03 A3003 RMK AO2 RAE48 P0002 FIBI (DK)
0305725025947412022010512517+40859-074056FM-15+0002KTEB V0209999C00005019815MN0160935N5-00065-00285101675ADDAA101000395GA1025+006105999GA2045+007625999GA3085+019815999GD11991+0061059GD22991+0076259GD34991+0198159GE19AGL   +99999+99999GF199999999999006101999999MA1101665101645REMMET12601/05/22 07:51:02 METAR KTEB 051251Z 00000KT 10SM FEW020 SCT025 OVC065 M01/M03 A3002 RMK AO2 RAE48 SLP167 P0002 T10061028 (DK)
0323725025947412022010513367+40859-074056FM-16+0002KTEB V0209999C00005005795MN0128755N5+00005-00225999999ADDAA101000021AU110020015AW1615GA1075+005795999GA2075+008535999GA3085+011895999GD13991+0057959GD23991+0085359GD34991+0118959GE19AGL   +99999+99999GF199999999999005791999999MA1101635101605MW1615REMMET12101/05/22 08:36:02 SPECI KTEB 051336Z 00000KT 8SM -RA BKN019 BKN028 OVC039 00/M02 A3001 RMK AO2 RAB28 P0000 T00001022 (DK)
0326725025947412022010513517+40859-074056FM-15+0002KTEB V0209999C00005006405MN0096565N5+00005-00175101575ADDAA101000025AU100001015AW1105GA1075+006405999GA2075+007925999GA3085+024385999GD13991+0064059GD23991+0079259GD34991+0243859GE19AGL   +99999+99999GF199999999999006401999999MA1101595101575REMMET13001/05/22 08:51:02 METAR KTEB 051351Z 00000KT 6SM BR BKN021 BKN026 OVC080 00/M02 A3000 RMK AO2 RAB28E47 SLP157 P0000 T00001017 (DK)
0313725025947412022010514407+40859-074056FM-16+0002KTEB V0202205N00215003055MN0032195N5+00065-00115999999ADDAA101000021AU110020015AU200001015AW1105AW2615GA1075+003055999GA2085+005795999GD13991+0030559GD24991+0057959GE19AGL   +99999+99999GF199999999999003051999999MA1101595101575MW1615REMMET12501/05/22 09:40:02 SPECI KTEB 051440Z 22004KT 2SM -RA BR BKN010 OVC019 01/M01 A3000 RMK AO2 UPB05E14RAB37 P0000 T00061011 (DK)
0376725025947412022010514517+40859-074056FM-15+0002KTEB V0209999V00155003055MN0064375N5+00115-00065101525ADDAA101000895AA203000891AU110020015AU200001015AW1105AW2615GA1075+003055999GA2085+005795999GD13991+0030559GD24991+0057959GE19AGL   +99999+99999GF199999999999003051999999MA1101525101505MD1690309+9999MW1615REMMET14401/05/22 09:51:02 METAR KTEB 051451Z VRB03KT 4SM -RA BR BKN010 OVC019 01/M01 A2998 RMK AO2 UPB05E14RAB37 SLP152 P0001 60003 T00111006 56030 (DK)EQDQ01  00078PRCP03
0306725025947412022010514537+40859-074056FM-16+0002KTEB V0201205N00155003055MN0032195N5+00115-00065999999ADDAA101000231AU110020015AU200001015AW1105AW2615GA1075+003055999GA2085+005795999GD13991+0030559GD24991+0057959GE19AGL   +99999+99999GF199999999999003051999999MA1101495101475MW1615REMMET11801/05/22 09:53:02 SPECI KTEB 051453Z 12003KT 2SM -RA BR BKN010 OVC019 01/M01 A2997 RMK AO2 PRESFR P0001 T00111006 (DK)
0299725025947412022010515047+40859-074056FM-16+0002KTEB V0202405N00265003055MN0064375N5+00115-00065999999ADDAA101000531AU110020015AU200001015AW1105AW2615GA1075+003055999GA2085+005795999GD13991+0030559GD24991+0057959GE19AGL   +99999+99999GF199999999999003051999999MA1101565101535MW1615REMMET11101/05/22 10:04:02 SPECI KTEB 051504Z 24005KT 4SM -RA BR BKN010 OVC019 01/M01 A2999 RMK AO2 P0002 T00111006 (DK)
0261725025947412022010515177+40859-074056FM-16+0002KTEB V0201805N00215005795MN0048285N5+00115-00065999999ADDAA101000531AU110020015AU200001015AW1105AW2615GA1085+005795999GD14991+0057959GE19AGL   +99999+99999GF199999999999005791999999MA1101525101505MW1615REMMET10401/05/22 10:17:02 SPECI KTEB 051517Z 18004KT 3SM -RA BR OVC019 01/M01 A2998 RMK AO2 P0002 T00111006 (DK)
0336725025947412022010515317+40859-074056FM-16+0002KTEB V0201805N00215002445MN0048285N5+00115+00005999999ADDAA101001031AU110020015AU200001015AW1105AW2615GA1075+002445999GA2075+005495999GA3085+013415999GD13991+0024459GD23991+0054959GD34991+0134159GE19AGL   +99999+99999GF199999999999002441999999MA1101465101435MW1615REMMET11701/05/22 10:31:02 SPECI KTEB 051531Z 18004KT 3SM -RA BR BKN008 BKN018 OVC044 01/00 A2996 RMK AO2 P0004 T00110000 (DK)
0300725025947412022010515496+40859-074056FM-16+0002KTEB V0201905N00315002445MN0032195N5+00205+00005999999ADDAU110020015AU200001015AW1105AW2615ED106U18299GA1075+002445999GA2075+005495999GA3085+013415999GD13991+0024459GD23991+0054959GD34991+0134159MA1101425101405MW1615REMMET12901/05/22 10:49:02 SPECI KTEB 051549Z 19006KT 2SM R06/6000VP6000FT -RA BR BKN008 BKN018 OVC044 02/00 A2995 RMK AO2 P0005 FIBI (DK)
0370725025947412022010515517+40859-074056FM-15+0002KTEB V0201905N00315002445MN0032195N5+00175+00005101405ADDAA101001395AU120020015AU200001015AW1105AW2625ED106U18299GA1075+002445999GA2075+005495999GA3085+013415999GD13991+0024459GD23991+0054959GD34991+0134159GE19AGL   +99999+99999GF199999999999002441999999MA1101425101405MW1655REMMET14001/05/22 10:51:02 METAR KTEB 051551Z 19006KT 2SM R06/6000VP6000FT RA BR BKN008 BKN018 OVC044 02/00 A2995 RMK AO2 SLP140 P0005 T00170000 (DK)
0298725025947412022010516317+40859-074056FM-16+0002KTEB V0202005N00365006715MN0048285N5+00225+00065999999ADDAA101001031AU110020015AU200001015AW1105AW2615GA1075+006715999GA2085+007625999GD13991+0067159GD24991+0076259GE19AGL   +99999+99999GF199999999999006711999999MA1101295101265MW1615REMMET11001/05/22 11:31:02 SPECI KTEB 051631Z 20007KT 3SM -RA BR BKN022 OVC025 02/01 A2991 RMK AO2 P0004 T00220006 (DK)
0267725025947412022010516517+40859-074056FM-15+0002KTEB V0202105N00315005795MN0064375N5+00225+00065101245ADDAA101000895AU110020015AU200001015AW1105AW2615GA1085+005795999GD14991+0057959GE19AGL   +99999+99999GF199999999999005791999999MA1101255101235MW1615REMMET11001/05/22 11:51:02 METAR KTEB 051651Z 21006KT 4SM -RA BR OVC019 02/01 A2990 RMK AO2 SLP124 P0005 T00220006 (DK)
0321725025947412022010517517+40859-074056FM-15+0002KTEB V0202105N00315005185MN0160935N5+00395+00225101055ADDAA101000595AA206003891GA1085+005185999GD14991+0051859GE19AGL   +99999+99999GF199999999999005181999999KA1060M+00391KA2060N-00111MA1101055101035MD1890479+9999REMMET13401/05/22 12:51:02 METAR KTEB 051751Z 21006KT 10SM OVC017 04/02 A2984 RMK AO2 RAE33 SLP105 P0002 60015 T00390022 10039 21011 58047 (DK)EQDQ01  00388PRCP06
0144725025947412022010518496+40859-074056FM-16+0002KTEB V0202205N00265003665MN0160935N5+00505+00305999999ADDGA1085+003665999GD14991+0036659MA1100955100925REMMET08601/05/22 13:49:02 SPECI KTEB 051849Z 22005KT 10SM OVC012 05/03 A2981 RMK AO2 FIBI (DK)
0215725025947412022010518517+40859-074056FM-15+0002KTEB V0202305N00265003665MN0160935N5+00505+00335100935ADDAA101000095GA1085+003665999GD14991+0036659GE19AGL   +99999+99999GF199999999999003661999999MA1100955100925REMMET09801/05/22 13:51:02 METAR KTEB 051851Z 23005KT 10SM OVC012 05/03 A2981 RMK AO2 SLP093 T00500033 (DK)
0215725025947412022010519517+40859-074056FM-15+0002KTEB V0201905N00365004275MN0160935N5+00615+00445100795ADDAA101000095GA1075+004275999GD13991+0042759GE19AGL   +99999+99999GF199999999999004271999999MA1100815100795REMMET09801/05/22 14:51:02 METAR KTEB 051951Z 19007KT 10SM BKN014 06/04 A2977 RMK AO2 SLP079 T00610044 (AZ)
0144725025947412022010520496+40859-074056FM-16+0002KTEB V0202105N00215007015MN0160935N5+00705+00505999999ADDGA1085+007015999GD14991+0070159MA1100815100795REMMET08601/05/22 15:49:02 SPECI KTEB 052049Z 21004KT 10SM OVC023 07/05 A2977 RMK AO2 FIBI (AZ)
0235725025947412022010520517+40859-074056FM-15+0002KTEB V0202205N00155007015MN0160935N5+00675+00505100825ADDAA101000095GA1085+007015999GD14991+0070159GE19AGL   +99999+99999GF199999999999007011999999MA1100855100825MD1590239+9999REMMET10401/05/22 15:51:02 METAR KTEB 052051Z 22003KT 10SM OVC023 07/05 A2978 RMK AO2 SLP082 T00670050 55023 (AZ)
0216725025947412022010521437+40859-074056FM-16+0002KTEB V0202005N003652200059N0160935N5+00615+00445999999ADDGA1045+006405999GD12991+0064059GE19AGL   +99999+99999GF104995999999006401999999MA1100785100765REMMET09101/05/22 16:43:02 SPECI KTEB 052143Z 20007KT 10SM SCT021 06/04 A2976 RMK AO2 T00610044 (AZ)EQDD01      0ADE726
0234725025947412022010521517+40859-074056FM-15+0002KTEB V0202005N003652200059N0160935N5+00615+00445100765ADDAA101000095GA1025+006405999GD11991+0064059GE19AGL   +99999+99999GF102995999999006401999999MA1100785100765REMMET09801/05/22 16:51:02 METAR KTEB 052151Z 20007KT 10SM FEW021 06/04 A2976 RMK AO2 SLP076 T00610044 (AZ)EQDD01      0ADE726
0190725025947412022010522517+40859-074056FM-15+0002KTEB V0202005N002652200059N0160935N5+00565+00335100685ADDAA101000095GA1005+999999999GD10991+9999999GF100991999999999999999999MA1100685100655REMMET09501/05/22 17:51:02 METAR KTEB 052251Z 20005KT 10SM CLR 06/03 A2973 RMK AO2 SLP068 T00560033 (AZ)
0248725025947412022010523517+40859-074056FM-15+0002KTEB V0202105N001552200059N0160935N5+00445+00225100665ADDAA101000095GA1005+999999999GD10991+9999999GF100991999999999999999999KA1060M+00721KA2060N+00391MA1100685100655MD1690169+9999REMMET11301/05/22 18:51:02 METAR KTEB 052351Z 21003KT 10SM CLR 04/02 A2973 RMK AO2 SLP066 T00440022 10072 20039 56016 (AZ)
0229725025947412022010600517+40859-074056FM-15+0002KTEB V0202105N002652200059N0160935N5+00395+00175100715ADDAA101000095GA1045+004885999GD12991+0048859GE19AGL   +99999+99999GF104995999999004881999999MA1100715100695REMMET09301/05/22 19:51:01 METAR KTEB 060051Z 21005KT 10SM SCT016 04/02 A2974 RMK AO2 SLP071 T00390017EQDD01      0ADE726
0185725025947412022010601517+40859-074056FM-15+0002KTEB V0202105N002652200059N0160935N5+00335+00175100665ADDAA101000095GA1005+999999999GD10991+9999999GF100991999999999999999999MA1100685100655REMMET09001/05/22 20:51:01 METAR KTEB 060151Z 21005KT 10SM CLR 03/02 A2973 RMK AO2 SLP066 T00330017
0205725025947412022010602517+40859-074056FM-15+0002KTEB V0202105N001552200059N0160935N5+00225+00065100615ADDAA101000095GA1005+999999999GD10991+9999999GF100991999999999999999999MA1100615100595MD1890059+9999REMMET09601/05/22 21:51:01 METAR KTEB 060251Z 21003KT 10SM CLR 02/01 A2971 RMK AO2 SLP061 T00220006 58005
0184725025947412022010603517+40859-074056FM-15+0002KTEB V0202005N001552200059N0144845N5+00225+00065100545ADDAA101000095GA1005+999999999GD10991+9999999GF100991999999999999999999MA1100545100525REMMET08901/05/22 22:51:01 METAR KTEB 060351Z 20003KT 9SM CLR 02/01 A2969 RMK AO2 SLP054 T00220006
0221725025947412022010604517+40859-074056FM-15+0002KTEB V0202005N001552200059N0160935N5+00225+00065100545ADDAA101000095GA1005+999999999GD10991+9999999GF100991999999999999999999KA1240M+00721KA2240N-00331MA1100545100525REMMET10001/05/22 23:51:02 METAR KTEB 060451Z 20003KT 10SM CLR 02/01 A2969 RMK AO2 SLP054 T00220006 400721033
0946725025947412022010604596+40859-074056SOD  +0002KTEB V020999999999999999999999999999+99999+99999999999ADDAA124004395AT1AU16RA  5AT2AU17FZRA5AT3AU18SN  5AT4AU13BR  5AT5AU08HZ  5KA1240M+00725KA2240N-00325MG1101474100514OE11240093917013065OE22240053622014435OE33240017499999995REMSOD73024 HR PRECIPITATION (IN):0.17  24 HR MAX TEMP (F):45 24 HR MAX TEMP TIME (LST):1622 24 HR MIN TEMP (F):26 24 HR MIN TEMP TIME (LST):0327 AVERAGE STATION PRESSURE:29.965 MINIMUM SEA LEVEL PRESSURE:29.68 TIME OF OCCURRENCE:2310 PEAK WIND SPEED (MPH):21  PEAK WIND DIR (DEG):170 PEAK WIND TIME (LST):1306  FASTEST 2MIN SPEED (MPH):12 FASTEST 2MIN DIR (DEG):220 FASTEST 2MIN TIME (LST):1443 AVERAGE WIND SPEED (MPH):3.9  24 HR AVG TEMP (F):36 HEATING DEGREE DAYS:29  COOLING DEGREE DAYS:0   LATEST DAY MAX TEMP (0700-1900 LST):45  LATEST NIGHT MIN TEMP(1900-0800 LST):26 HOURLY INCREMENTAL PRECIPITATION VALUES (IN):.00 0.00 0.00 0.00 T    T    0.03 0.01 T    0.03 0.05 0.03 0.02 0.00 0.00 0.00 0.00 0.00 0.00 0.00 0.00 0.00 0.00 0.00EQDR01     N7GJS072R02     N7GKS075
0249725025947412022010605517+40859-074056FM-15+0002KTEB V0202305N002652200059N0160935N5+00115-00065100515ADDAA101000095GA1005+999999999GD10991+9999999GF100991999999999999999999KA1060M+00441KA2060N+00061MA1100515100485MD1690099+9999REMMET11401/06/22 00:51:02 METAR KTEB 060551Z 23005KT 10SM CLR 01/M01 A2968 RMK AO2 SLP051 T00111006 10044 20006 56009 (SW)
0191725025947412022010606517+40859-074056FM-15+0002KTEB V0202405N002152200059N0160935N5+00065-00065100615ADDAA101000095GA1005+999999999GD10991+9999999GF100991999999999999999999MA1100615100595REMMET09601/06/22 01:51:02 METAR KTEB 060651Z 24004KT 10SM CLR 01/M01 A2971 RMK AO2 SLP061 T00061006 (SW)
0191725025947412022010607517+40859-074056FM-15+0002KTEB V0209999C000052200059N0160935N5+00175-00065100645ADDAA101000095GA1005+999999999GD10991+9999999GF100991999999999999999999MA1100645100625REMMET09601/06/22 02:51:02 METAR KTEB 060751Z 00000KT 10SM CLR 02/M01 A2972 RMK AO2 SLP064 T00171006 (SW)
0212725025947412022010608517+40859-074056FM-15+0002KTEB V0202205N001552200059N0160935N5-00115-00285100695ADDAA101000095GA1005+999999999GD10991+9999999GF100991999999999999999999MA1100715100695MD1190189+9999REMMET10301/06/22 03:51:02 METAR KTEB 060851Z 22003KT 10SM CLR M01/M03 A2974 RMK AO2 SLP069 T10111028 51018 (SW)
0191725025947412022010609517+40859-074056FM-15+0002KTEB V0209999C000052200059N0160935N5+00005-00225100795ADDAA101000095GA1005+999999999GD10991+9999999GF100991999999999999999999MA1100815100795REMMET09601/06/22 04:51:02 METAR KTEB 060951Z 00000KT 10SM CLR 00/M02 A2977 RMK AO2 SLP079 T00001022 (SW)
0191725025947412022010610517+40859-074056FM-15+0002KTEB V0202805N004652200059N0160935N5+00225-00115100935ADDAA101000095GA1005+999999999GD10991+9999999GF100991999999999999999999MA1100955100925REMMET09601/06/22 05:51:02 METAR KTEB 061051Z 28009KT 10SM CLR 02/M01 A2981 RMK AO2 SLP093 T00221011 (SW)
0266725025947412022010611517+40859-074056FM-15+0002KTEB V0202605N004652200059N0160935N5+00175-00445101025ADDAA101000095AA224003891GA1005+999999999GD10991+9999999GF100991999999999999999999KA1060M+00281KA2060N-00111MA1101025100995MD1190339+9999REMMET12001/06/22 06:51:02 METAR KTEB 061151Z 26009KT 10SM CLR 02/M04 A2983 RMK AO2 SLP102 70015 T00171044 10028 21011 51033 (AZ)
0191725025947412022010612517+40859-074056FM-15+0002KTEB V0202805N004652200059N0160935N5+00175-00615101035ADDAA101000095GA1005+999999999GD10991+9999999GF100991999999999999999999MA1101055101035REMMET09601/06/22 07:51:02 METAR KTEB 061251Z 28009KT 10SM CLR 02/M06 A2984 RMK AO2 SLP103 T00171061 (AZ)
0202725025947412022010613517+40859-074056FM-15+0002KTEB V0202805N006752200059N0160935N5+00175-00675101175ADDAA101000095GA1005+999999999GD10991+9999999GF100991999999999999999999MA1101195101165OC101035REMMET09901/06/22 08:51:02 METAR KTEB 061351Z 28013G20KT 10SM CLR 02/M07 A2988 RMK AO2 SLP117 T00171067 (AZ)
0211725025947412022010614517+40859-074056FM-15+0002KTEB V0202905N005752200059N0160935N5+00175-00785101275ADDAA101000095GA1005+999999999GD10991+9999999GF100991999999999999999999MA1101295101265MD1390269+9999REMMET10201/06/22 09:51:02 METAR KTEB 061451Z 29011KT 10SM CLR 02/M08 A2991 RMK AO2 SLP127 T00171078 53026 (AZ)
0191725025947412022010615517+40859-074056FM-15+0002KTEB V0202705N005752200059N0160935N5+00225-00785101315ADDAA101000095GA1005+999999999GD10991+9999999GF100991999999999999999999MA1101325101305REMMET09601/06/22 10:51:02 METAR KTEB 061551Z 27011KT 10SM CLR 02/M08 A2992 RMK AO2 SLP131 T00221078 (AZ)
0191725025947412022010616517+40859-074056FM-15+0002KTEB V0202805N006752200059N0160935N5+00225-00895101295ADDAA101000095GA1005+999999999GD10991+9999999GF100991999999999999999999MA1101295101265REMMET09601/06/22 11:51:02 METAR KTEB 061651Z 28013KT 10SM CLR 02/M09 A2991 RMK AO2 SLP129 T00221089 (AZ)
0260725025947412022010617517+40859-074056FM-15+0002KTEB V0202605N006752200059N0160935N5+00285-00835101265ADDAA101000095GA1005+999999999GD10991+9999999GF100991999999999999999999KA1060M+00281KA2060N+00171MA1101295101265MD1890019+9999OC100885REMMET11701/06/22 12:51:02 METAR KTEB 061751Z 26013G17KT 10SM CLR 03/M08 A2991 RMK AO2 SLP126 T00281083 10028 20017 58001 (AZ)
0191725025947412022010618517+40859-074056FM-15+0002KTEB V0203105N004652200059N0160935N5+00335-00895101275ADDAA101000095GA1005+999999999GD10991+9999999GF100991999999999999999999MA1101295101265REMMET09601/06/22 13:51:02 METAR KTEB 061851Z 31009KT 10SM CLR 03/M09 A2991 RMK AO2 SLP127 T00331089 (AZ)
0191725025947412022010619517+40859-074056FM-15+0002KTEB V0203105N004152200059N0160935N5+00285-00895101295ADDAA101000095GA1005+999999999GD10991+9999999GF100991999999999999999999MA1101295101265REMMET09601/06/22 14:51:02 METAR KTEB 061951Z 31008KT 10SM CLR 03/M09 A2991 RMK AO2 SLP129 T00281089 (AZ)
0211725025947412022010620517+40859-074056FM-15+0002KTEB V0203005N001552200059N0160935N5+00225-00895101275ADDAA101000095GA1005+999999999GD10991+9999999GF100991999999999999999999MA1101295101265MD1090019+9999REMMET10201/06/22 15:51:02 METAR KTEB 062051Z 30003KT 10SM CLR 02/M09 A2991 RMK AO2 SLP127 T00221089 50001 (CG)
0191725025947412022010621517+40859-074056FM-15+0002KTEB V0202605N002652200059N0160935N5+00175-00895101395ADDAA101000095GA1005+999999999GD10991+9999999GF100991999999999999999999MA1101395101365REMMET09601/06/22 16:51:02 METAR KTEB 062151Z 26005KT 10SM CLR 02/M09 A2994 RMK AO2 SLP139 T00171089 (CG)
0191725025947412022010622517+40859-074056FM-15+0002KTEB V0203405N002652200059N0160935N5+00115-00895101465ADDAA101000095GA1005+999999999GD10991+9999999GF100991999999999999999999MA1101465101435REMMET09601/06/22 17:51:02 METAR KTEB 062251Z 34005KT 10SM CLR 01/M09 A2996 RMK AO2 SLP146 T00111089 (CG)
0249725025947412022010623517+40859-074056FM-15+0002KTEB V0209999C000052200059N0160935N5+00065-00945101495ADDAA101000095GA1005+999999999GD10991+9999999GF100991999999999999999999KA1060M+00331KA2060N+00061MA1101495101475MD1190229+9999REMMET11401/06/22 18:51:02 METAR KTEB 062351Z 00000KT 10SM CLR 01/M09 A2997 RMK AO2 SLP149 T00061094 10033 20006 51022 (CG)
0186725025947412022010700517+40859-074056FM-15+0002KTEB V0209999C000052200059N0160935N5+00115-00945101425ADDAA101000095GA1005+999999999GD10991+9999999GF100991999999999999999999MA1101425101405REMMET09101/06/22 19:51:01 METAR KTEB 070051Z 00000KT 10SM CLR 01/M09 A2995 RMK AO2 SLP142 T00111094
0249725025947412022010701517+40859-074056FM-15+0002KTEB V0209999V00155027435MN0160935N5+00115-00945101305ADDAA101000095GA1075+027435999GA2085+033535999GD13991+0274359GD24991+0335359GE19AGL   +99999+99999GF199999999999027431999999MA1101325101305REMMET10101/06/22 20:51:01 METAR KTEB 070151Z VRB03KT 10SM BKN090 OVC110 01/M09 A2992 RMK AO2 SLP130 T00111094
0307725025947412022010702517+40859-074056FM-15+0002KTEB V0203605N00155024385MN0160935N5+00065-00945101355ADDAA101000095GA1025+021345999GA2075+024385999GA3085+028965999GD11991+0213459GD23991+0243859GD34991+0289659GE19AGL   +99999+99999GF199999999999021341999999MA1101355101335MD1590149+9999REMMET11401/06/22 21:51:01 METAR KTEB 070251Z 36003KT 10SM FEW070 BKN080 OVC095 01/M09 A2993 RMK AO2 SLP135 T00061094 55014
0211725025947412022010703517+40859-074056FM-15+0002KTEB V0203605N00215015245MN0160935N5+00065-00895101315ADDAA101000095GA1085+015245999GD14991+0152459GE19AGL   +99999+99999GF199999999999015241999999MA1101325101305REMMET09401/06/22 22:51:01 METAR KTEB 070351Z 36004KT 10SM OVC050 01/M09 A2992 RMK AO2 SLP131 T00061089
0293725025947412022010704517+40859-074056FM-15+0002KTEB V0203405N00465008535MN0064375N5-00065-00675101245ADDAA101000025AU110030015AW1715GA1085+008535999GD14991+0085359GE19AGL   +99999+99999GF199999999999008531999999KA1240M+00331KA2240N-00111MA1101255101235MW1715REMMET12701/06/22 23:51:02 METAR KTEB 070451Z 34009KT 4SM -SN OVC028 M01/M07 A2990 RMK AO2 SNB35 PRESFR SLP124 P0000 T10061067 400331011
0933725025947412022010704596+40859-074056SOD  +0002KTEB V020999999999999999999999999999+99999+99999999999ADDAA124000025AJ100139599999999AT1AU18SN  5KA1240M+00335KA2240N-00105MG1101034100514OE11240102829008465OE22240076026012315OE33240031799999995REMSOD74824 HR PRECIPITATION (IN):T     SNOW DEPTH (IN):5    24 HR MAX TEMP (F):38 24 HR MAX TEMP TIME (LST):1419 24 HR MIN TEMP (F):30 24 HR MIN TEMP TIME (LST):2359 AVERAGE STATION PRESSURE:29.835 MINIMUM SEA LEVEL PRESSURE:29.68 TIME OF OCCURRENCE:0059 PEAK WIND SPEED (MPH):23  PEAK WIND DIR (DEG):290 PEAK WIND TIME (LST):0846  FASTEST 2MIN SPEED (MPH):17 FASTEST 2MIN DIR (DEG):260 FASTEST 2MIN TIME (LST):1231 AVERAGE WIND SPEED (MPH):7.1  24 HR AVG TEMP (F):34 HEATING DEGREE DAYS:31  COOLING DEGREE DAYS:0   LATEST DAY MAX TEMP (0700-1900 LST):38  LATEST NIGHT MIN TEMP(1900-0800 LST):30 HOURLY INCREMENTAL PRECIPITATION VALUES (IN):.00 0.00 0.00 0.00 0.00 0.00 0.00 0.00 0.00 0.00 0.00 0.00 0.00 0.00 0.00 0.00 0.00 0.00 0.00 0.00 0.00 0.00 0.00 TEQDR01     N7GJS072R02     N7GKS075
0336725025947412022010705297+40859-074056FM-16+0002KTEB V0200105N00625022865MN0128755N5-00175-00505999999ADDAA101000021AU110030015AW1715GA1025+002745999GA2045+006715999GA3085+022865999GD11991+0027459GD22991+0067159GD34991+0228659GE19AGL   +99999+99999GF199999999999002741999999MA1101055101035MW1715OC100885REMMET12601/07/22 00:29:02 SPECI KTEB 070529Z 01012G17KT 8SM -SN FEW009 SCT022 OVC075 M02/M05 A2984 RMK AO2 PRESFR P0000 T10171050 (SW)
0379725025947412022010705517+40859-074056FM-15+0002KTEB V0200105N00725021345MN0160935N5-00225-00445100955ADDAA101000025AA206000021GA1075+021345999GA2085+024385999GD13991+0213459GD24991+0243859GE19AGL   +99999+99999GF199999999999021341999999KA1060M+00171KA2060N-00221MA1100955100925MD1890409+9999OC100935REMMET15301/07/22 00:51:02 METAR KTEB 070551Z 01014G18KT 10SM BKN070 OVC080 M02/M04 A2981 RMK AO2 SNE44 PRESFR SLP095 P0000 60000 T10221044 10017 21022 58040 (SW)EQDQ01  00008PRCP06
0286725025947412022010706407+40859-074056FM-16+0002KTEB V0200505N00315004575MN0128755N5-00175-00445999999ADDAA101000021AU110030015AW1715GA1075+004575999GA2085+016765999GD13991+0045759GD24991+0167659GE19AGL   +99999+99999GF199999999999004571999999MA1100985100965MW1715REMMET11501/07/22 01:40:02 SPECI KTEB 070640Z 05006KT 8SM -SN BKN015 OVC055 M02/M04 A2982 RMK AO2 SNB37 P0000 T10171044 (SW)
0313725025947412022010706517+40859-074056FM-15+0002KTEB V0200405N00265004575MN0080475N5-00175-00445100965ADDAA101000025AU110030015AU200001015AW1105AW2715GA1075+004575999GA2085+016765999GD13991+0045759GD24991+0167659GE19AGL   +99999+99999GF199999999999004571999999MA1100985100965MW1715REMMET12501/07/22 01:51:02 METAR KTEB 070651Z 04005KT 5SM -SN BR BKN015 OVC055 M02/M04 A2982 RMK AO2 SNB37 SLP096 P0000 T10171044 (SW)
0300725025947412022010707257+40859-074056FM-16+0002KTEB V0200505N00315004575MN0032195N5-00175-00445999999ADDAA101000021AU110030015AU200001015AW1105AW2715GA1075+004575999GA2085+010975999GD13991+0045759GD24991+0109759GE19AGL   +99999+99999GF199999999999004571999999MA1100885100865MW1715REMMET11201/07/22 02:25:02 SPECI KTEB 070725Z 05006KT 2SM -SN BR BKN015 OVC036 M02/M04 A2979 RMK AO2 P0000 T10171044 (SW)
0312725025947412022010707407+40859-074056FM-16+0002KTEB V0200505N00265005495MN0024145N5-00175-00445999999ADDAA101000021AU110030015AW1715ED106U18299GA1045+003055999GA2085+005495999GD12991+0030559GD24991+0054959GE19AGL   +99999+99999GF199999999999003051999999MA1100885100865MW1715REMMET13001/07/22 02:40:02 SPECI KTEB 070740Z 05005KT 1 1/2SM R06/6000VP6000FT -SN SCT010 OVC018 M02/M04 A2979 RMK AO2 P0000 T10171044 (SW)
0225725025947412022010707496+40859-074056FM-16+0002KTEB V0200505N00265003055MN0016095N5-00205-00405999999ADDAU120030015AU200001015AW1105AW2725ED106U12199GA1085+003055999GD14991+0030559MA1100885100865MW1735REMMET11601/07/22 02:49:02 SPECI KTEB 070749Z 05005KT 1SM R06/4000VP6000FT SN BR OVC010 M02/M04 A2979 RMK AO2 P0001 FIBI (SW)
0296725025947412022010707517+40859-074056FM-15+0002KTEB V0200205N00155003055MN0016095N5-00225-00445100875ADDAA101000395AU120030015AU200001015AW1105AW2725ED106U12199GA1085+003055999GD14991+0030559GE19AGL   +99999+99999GF199999999999003051999999MA1100885100865MW1735REMMET12801/07/22 02:51:02 METAR KTEB 070751Z 02003KT 1SM R06/4000VP6000FT SN BR OVC010 M02/M04 A2979 RMK AO2 SLP087 P0001 T10221044 (SW)
0291725025947412022010708077+40859-074056FM-16+0002KTEB V0200105N00265003055MN0012075N5-00225-00395999999ADDAA101000231AU120030015AU200001015AW1105AW2725ED106U12199GA1085+003055999GD14991+0030559GE19AGL   +99999+99999GF199999999999003051999999MA1100815100795MW1735REMMET12301/07/22 03:07:02 SPECI KTEB 070807Z 01005KT 3/4SM R06/4000VP6000FT SN BR OVC010 M02/M04 A2977 RMK AO2 P0001 T10221039 (SW)
0293725025947412022010708277+40859-074056FM-16+0002KTEB V0200205N00265001225MN0008055N5-00225-00395999999ADDAA101001031AU120030015AU208002015AW1355AW2725ED106U12199GA1085+001225999GD14991+0012259GE19AGL   +99999+99999GF199999999999001221999999MA1100785100765MW1735REMMET12501/07/22 03:27:02 SPECI KTEB 070827Z 02005KT 1/2SM R06/4000VP6000FT SN FZFG OVC004 M02/M04 A2976 RMK AO2 P0004 T10221039 (SW)
0356725025947412022010708517+40859-074056FM-15+0002KTEB V0200105N00315001225MN0008055N5-00225-00395100725ADDAA101002095AA203002091AU120030015AU208002015AW1355AW2725ED106U10679GA1085+001225999GD14991+0012259GE19AGL   +99999+99999GF199999999999001221999999MA1100755100725MD1890239+9999MW1735REMMET14401/07/22 03:51:02 METAR KTEB 070851Z 01006KT 1/2SM R06/3500VP6000FT SN FZFG OVC004 M02/M04 A2975 RMK AO2 SLP072 P0007 60008 T10221039 58023 (SW)EQDQ01  00208PRCP03
0298725025947412022010709517+40859-074056FM-15+0002KTEB V0203405N00365001225MN0012075N5-00225-00395100755ADDAA101002095AU110030015AU200001015AW1105AW2715ED106U13729GA1085+001225999GD14991+0012259GE19AGL   +99999+99999GF199999999999001221999999MA1100755100725MW1715REMMET13001/07/22 04:51:02 METAR KTEB 070951Z 34007KT 3/4SM R06/4500V5500FT -SN BR OVC004 M02/M04 A2975 RMK AO2 SLP075 P0008 T10221039 (SW)
0290725025947412022010709587+40859-074056FM-16+0002KTEB V0203305N00365002745WN0012075N5-00225-00395999999ADDAA101000231AU110030015AU200001015AW1105AW2715ED106U12199GA1095+002745999GD15991+0027459GE19AGL   +99999+99999GF109991999999002741999999MA1100785100765MW1715REMMET12201/07/22 04:58:02 SPECI KTEB 070958Z 33007KT 3/4SM R06/4000V5500FT -SN BR VV009 M02/M04 A2976 RMK AO2 P0001 T10221039 (SW)
0297725025947412022010710517+40859-074056FM-15+0002KTEB V0203305N00365002745WN0012075N5-00285-00395100815ADDAA101001595AU110030015AU200001015AW1105AW2715ED106U12199GA1095+002745999GD15991+0027459GE19AGL   +99999+99999GF109991999999002741999999MA1100815100795MW1715REMMET12901/07/22 05:51:02 METAR KTEB 071051Z 33007KT 3/4SM R06/4000V6000FT -SN BR VV009 M03/M04 A2977 RMK AO2 SLP081 P0006 T10281039 (SW)
0426725025947412022010711517+40859-074056FM-15+0002KTEB V0203305N00415002745WN0008055N5-00285-00445100835ADDAA101001095AA206006991AA324006991AU120030015AU208002015AW1355AW2725ED106U18299GA1095+002745999GD15991+0027459GE19AGL   +99999+99999GF109991999999002741999999KA1060M-00171KA2060N-00281MA1100855100825MD1290119+9999MW1735REMMET16101/07/22 06:51:02 METAR KTEB 071151Z 33008KT 1/2SM R06/6000VP6000FT SN FZFG VV009 M03/M04 A2978 RMK AO2 SLP083 P0005 60027 70027 T10281044 11017 21028 52011 (CG)EQDQ01  00688PRCP06Q02  00688PRCP24
0294725025947412022010712517+40859-074056FM-15+0002KTEB V0203305N00575002745WN0008055N5-00285-00445100885ADDAA101000595AU120030015AU208002015AW1355AW2725ED106U18299GA1095+002745999GD15991+0027459GE19AGL   +99999+99999GF109991999999002741999999MA1100885100865MW1735REMMET12601/07/22 07:51:02 METAR KTEB 071251Z 33011KT 1/2SM R06/P6000FT SN FZFG VV009 M03/M04 A2979 RMK AO2 SLP088 P0002 T10281044 (CG)
0318725025947412022010712587+40859-074056FM-16+0002KTEB V0203205N00465009455MN0008055N5-00285-00445999999ADDAA101000021AJ100153100152099AU120030015AU208002015AW1355AW2725ED106U18299GA1085+009455999GD14991+0094559GE19AGL   +99999+99999GF199999999999009451999999MA1100915100895MW1735REMMET13301/07/22 07:58:02 SPECI KTEB 071258Z 32009KT 1/2SM R06/P6000FT SN FZFG OVC031 M03/M04 A2980 RMK AO2 4/006 931057 P0000 T10281044 (CG)
0209725025947412022010713496+40859-074056FM-16+0002KTEB V0203305N00315014945MN0160935N5-00205-00405999999ADDGA1075+014945999GA2085+019815999GD13991+0149459GD24991+0198159MA1100955100925REMMET12001/07/22 08:49:02 SPECI KTEB 071349Z 33006KT 10SM BKN049 OVC065 M02/M04 A2981 RMK AO2 SNE39 4/006 931057 P0000 FIBI (CG)
0297725025947412022010713517+40859-074056FM-15+0002KTEB V0203205N00365014945MN0160935N5-00225-00395100935ADDAA101000025AJ100159500152099GA1075+014945999GA2085+018295999GD13991+0149459GD24991+0182959GE19AGL   +99999+99999GF199999999999014941999999MA1100955100925REMMET13201/07/22 08:51:02 METAR KTEB 071351Z 32007KT 10SM BKN049 OVC060 M02/M04 A2981 RMK AO2 SNE39 SLP093 4/006 931057 P0000 T10221039 (CG)
0273725025947412022010714517+40859-074056FM-15+0002KTEB V0203205N004652200059N0160935N5-00115-00445100985ADDAA101000095AA203000591GA1025+005495999GD11991+0054959GE19AGL   +99999+99999GF102995999999005491999999MA1100985100965MD1290159+9999REMMET11201/07/22 09:51:02 METAR KTEB 071451Z 32009KT 10SM FEW018 M01/M04 A2982 RMK AO2 SLP098 60002 T10111044 52015 (CG)EQDD01      0ADE726
0202725025947412022010715517+40859-074056FM-15+0002KTEB V0203105N007252200059N0160935N5+00005-00505101035ADDAA101000095GA1005+999999999GD10991+9999999GF100991999999999999999999MA1101055101035OC100885REMMET09901/07/22 10:51:02 METAR KTEB 071551Z 31014G17KT 10SM CLR 00/M05 A2984 RMK AO2 SLP103 T00001050 (SW)
0278725025947412022010716517+40859-074056FM-15+0002KTEB V0203105N008852200059N0160935N5+00065-00725100935ADDAA101000095GA1025+011585999GD11991+0115859GE19AGL   +99999+99999GF102995999999011581999999MA1100955100925OC101395OD149901391320REMMET12001/07/22 11:51:02 METAR KTEB 071651Z 31017G27KT 10SM FEW038 01/M07 A2981 RMK AO2 PK WND 32027/1649 SLP093 T00061072 (AZ)EQDD01      0ADE726
0329725025947412022010717517+40859-074056FM-15+0002KTEB V0203105N00675013725MN0160935N5+00065-00785100995ADDAA101000095AA206000591GA1075+013725999GA2085+015245999GD13991+0137259GD24991+0152459GE19AGL   +99999+99999GF199999999999013721999999KA1060M+00111KA2060N-00281MA1100985100965MD1290019+9999REMMET13001/07/22 12:51:02 METAR KTEB 071751Z 31013KT 10SM BKN045 OVC050 01/M08 A2982 RMK AO2 SLP099 60002 T00061078 10011 21028 52001 (AZ)
0265725025947412022010718517+40859-074056FM-15+0002KTEB V0203205N00515016765MN0160935N5+00005-00785101025ADDAA101000095GA1045+014335999GA2075+016765999GD12991+0143359GD23991+0167659GE19AGL   +99999+99999GF199999999999014331999999MA1101025100995OC100825REMMET10901/07/22 13:51:02 METAR KTEB 071851Z 32010G16KT 10SM SCT047 BKN055 00/M08 A2983 RMK AO2 SLP102 T00001078 (AZ)
0227725025947412022010719517+40859-074056FM-15+0002KTEB V0203005N00825018295MN0160935N5+00005-00895101145ADDAA101000095GA1085+018295999GD14991+0182959GE19AGL   +99999+99999GF199999999999018291999999MA1101155101135OC101185REMMET10201/07/22 14:51:02 METAR KTEB 071951Z 30016G23KT 10SM OVC060 00/M09 A2987 RMK AO2 SLP114 T00001089 (AZ)
0236725025947412022010720517+40859-074056FM-15+0002KTEB V0203005N00675018295MN0160935N5+00005-01005101315ADDAA101000095GA1085+018295999GD14991+0182959GE19AGL   +99999+99999GF199999999999018291999999MA1101325101305MD1390329+9999REMMET10501/07/22 15:51:02 METAR KTEB 072051Z 30013KT 10SM OVC060 00/M10 A2992 RMK AO2 SLP131 T00001100 53032 (AZ)
0242725025947412022010721517+40859-074056FM-15+0002KTEB V0202905N008852200059N0160935N5-00115-01005101475ADDAA101000095GA1005+999999999GD10991+9999999GF100991999999999999999999MA1101465101435OC101655OD149901641280REMMET12501/07/22 16:51:02 METAR KTEB 072151Z 29017G32KT 10SM CLR M01/M10 A2996 RMK AO2 PK WND 28032/2149 PRESRR SLP147 T10111100 (AZ)
0317725025947412022010722517+40859-074056FM-15+0002KTEB V0203005N007252200059N0160935N5-00225-01005101655ADDAA101000095GA1025+015245999GA2045+018295999GD11991+0152459GD22991+0182959GE19AGL   +99999+99999GF104995999999015241999999MA1101665101645OC101245OD149901331280REMMET12801/07/22 17:51:02 METAR KTEB 072251Z 30014G24KT 10SM FEW050 SCT060 M02/M10 A3002 RMK AO2 PK WND 28026/2224 SLP165 T10221100 (AZ)EQDD01      0ADE726
0261725025947412022010723517+40859-074056FM-15+0002KTEB V0203105N006752200059N0160935N5-00285-01115101805ADDAA101000095GA1005+999999999GD10991+9999999GF100991999999999999999999KA1060M+00061KA2060N-00281MA1101795101775MD1190499+9999OC101035REMMET11801/07/22 18:51:02 METAR KTEB 072351Z 31013G20KT 10SM CLR M03/M11 A3006 RMK AO2 SLP180 T10281111 10006 21028 51049 (AZ)
0198725025947412022010800517+40859-074056FM-15+0002KTEB V0203105N006752200059N0160935N5-00335-01115101945ADDAA101000095GA1005+999999999GD10991+9999999GF100991999999999999999999MA1101935101915OC101185REMMET09501/07/22 19:51:01 METAR KTEB 080051Z 31013G23KT 10SM CLR M03/M11 A3010 RMK AO2 SLP194 T10331111
0242725025947412022010801517+40859-074056FM-15+0002KTEB V0203005N007252200059N0160935N5-00335-01175102025ADDAA101000095GA1025+014635999GD11991+0146359GE19AGL   +99999+99999GF102995999999014631999999MA1102035102015OC101085REMMET09801/07/22 20:51:01 METAR KTEB 080151Z 30014G21KT 10SM FEW048 M03/M12 A3013 RMK AO2 SLP202 T10331117EQDD01      0ADE726
0207725025947412022010802517+40859-074056FM-15+0002KTEB V0202905N006252200059N0160935N5-00395-01225102115ADDAA101000095GA1005+999999999GD10991+9999999GF100991999999999999999999MA1102135102115MD1190329+9999REMMET09801/07/22 21:51:01 METAR KTEB 080251Z 29012KT 10SM CLR M04/M12 A3016 RMK AO2 SLP211 T10391122 51032
0231725025947412022010803517+40859-074056FM-15+0002KTEB V0202905N003652200059N0160935N5-00445-01285102235ADDAA101000095GA1025+015245999GD11991+0152459GE19AGL   +99999+99999GF102995999999015241999999MA1102245102215REMMET09501/07/22 22:51:02 METAR KTEB 080351Z 29007KT 10SM FEW050 M04/M13 A3019 RMK AO2 SLP223 T10441128EQDD01      0ADE726
0277725025947412022010804517+40859-074056FM-15+0002KTEB V0203105N00625014945MN0160935N5-00445-01225102315ADDAA101000095GA1085+014945999GD14991+0149459GE19AGL   +99999+99999GF199999999999014941999999KA1240M+00111KA2240N-00441MA1102345102315OC100885REMMET12601/07/22 23:51:02 METAR KTEB 080451Z 31012G17KT 10SM OVC049 M04/M12 A3022 RMK AO2 PK WND 31026/0428 SLP231 T10441122 400111044
0934725025947412022010804596+40859-074056SOD  +0002KTEB V020999999999999999999999999999+99999+99999999999ADDAA124007495AT1AU18SN  5AT2AU22FZFG5AT3AU13BR  5AT4AW01FG  5KA1240M+00115KA2240N-00435MG1101104100714OE11240165428016495OE22240107330017255OE33240056399999995REMSOD73024 HR PRECIPITATION (IN):0.29  24 HR MAX TEMP (F):34 24 HR MAX TEMP TIME (LST):1213 24 HR MIN TEMP (F):24 24 HR MIN TEMP TIME (LST):2359 AVERAGE STATION PRESSURE:29.855 MINIMUM SEA LEVEL PRESSURE:29.74 TIME OF OCCURRENCE:0428 PEAK WIND SPEED (MPH):37  PEAK WIND DIR (DEG):280 PEAK WIND TIME (LST):1649  FASTEST 2MIN SPEED (MPH):24 FASTEST 2MIN DIR (DEG):300 FASTEST 2MIN TIME (LST):1725 AVERAGE WIND SPEED (MPH):12.6 24 HR AVG TEMP (F):29 HEATING DEGREE DAYS:36  COOLING DEGREE DAYS:0   LATEST DAY MAX TEMP (0700-1900 LST):34  LATEST NIGHT MIN TEMP(1900-0800 LST):27 HOURLY INCREMENTAL PRECIPITATION VALUES (IN):    T    0.01 0.08 0.08 0.06 0.04 0.02 T    0.00 0.00 0.00 0.00 0.00 0.00 0.00 0.00 0.00 0.00 0.00 0.00 0.00 0.00 0.00EQDR01     N7GJS072R02     N7GKS075
0282725025947412022010805517+40859-074056FM-15+0002KTEB V0203205N003652200059N0160935N5-00505-01335102395ADDAA101000095GA1005+999999999GD10991+9999999GF100991999999999999999999KA1060M-00281KA2060N-00501MA1102405102385MD1190289+9999OD149901391310REMMET13301/08/22 00:51:02 METAR KTEB 080551Z 32007KT 10SM CLR M05/M13 A3024 RMK AO2 PK WND 31027/0517 SLP239 T10501133 11028 21050 51028 (CG)
0247725025947412022010806517+40859-074056FM-15+0002KTEB V0203105N005152200059N0160935N5-00565-01335102525ADDAA101000095GA1025+014635999GD11991+0146359GE19AGL   +99999+99999GF102995999999014631999999MA1102545102525OC100935REMMET10301/08/22 01:51:02 METAR KTEB 080651Z 31010G18KT 10SM FEW048 M06/M13 A3028 RMK AO2 SLP252 T10561133 (CG)EQDD01      0ADE726
0235725025947412022010807517+40859-074056FM-15+0002KTEB V0203205N007252200059N0160935N5-00565-01335102675ADDAA101000095GA1005+999999999GD10991+9999999GF100991999999999999999999MA1102685102655OC101035OD149901391300REMMET11801/08/22 02:51:02 METAR KTEB 080751Z 32014G20KT 10SM CLR M06/M13 A3032 RMK AO2 PK WND 30027/0704 SLP267 T10561133 (CG)
0223725025947412022010808517+40859-074056FM-15+0002KTEB V0203505N005152200059N0160935N5-00615-01395102775ADDAA101000095GA1005+999999999GD10991+9999999GF100991999999999999999999MA1102785102755MD1190389+9999OC100775REMMET10601/08/22 03:51:02 METAR KTEB 080851Z 35010G15KT 10SM CLR M06/M14 A3035 RMK AO2 SLP277 T10611139 51038 (CG)
0192725025947412022010809517+40859-074056FM-15+0002KTEB V0203205N006252200059N0160935N5-00615-01395102955ADDAA101000095GA1005+999999999GD10991+9999999GF100991999999999999999999MA1102955102925REMMET09701/08/22 04:51:02 METAR KTEB 080951Z 32012KT 10SM CLR M06/M14 A3040 RMK AO2 SLP295 T10611139 (CG)
0192725025947412022010810517+40859-074056FM-15+0002KTEB V0203205N004152200059N0160935N5-00675-01395103125ADDAA101000095GA1005+999999999GD10991+9999999GF100991999999999999999999MA1103125103095REMMET09701/08/22 05:51:02 METAR KTEB 081051Z 32008KT 10SM CLR M07/M14 A3045 RMK AO2 SLP312 T10671139 (CG)
0267725025947412022010811517+40859-074056FM-15+0002KTEB V0203305N004652200059N0160935N5-00675-01445103235ADDAA101000095AA224000591GA1005+999999999GD10991+9999999GF100991999999999999999999KA1060M-00501KA2060N-00671MA1103255103235MD1190469+9999REMMET12101/08/22 06:51:02 METAR KTEB 081151Z 33009KT 10SM CLR M07/M14 A3049 RMK AO2 SLP323 70002 T10671144 11050 21067 51046 (CG)
0192725025947412022010812517+40859-074056FM-15+0002KTEB V0203205N004152200059N0160935N5-00725-01445103385ADDAA101000095GA1005+999999999GD10991+9999999GF100991999999999999999999MA1103395103365REMMET09701/08/22 07:51:02 METAR KTEB 081251Z 32008KT 10SM CLR M07/M14 A3053 RMK AO2 SLP338 T10721144 (AZ)
0192725025947412022010813517+40859-074056FM-15+0002KTEB V0203205N004652200059N0160935N5-00675-01395103485ADDAA101000095GA1005+999999999GD10991+9999999GF100991999999999999999999MA1103495103465REMMET09701/08/22 08:51:02 METAR KTEB 081351Z 32009KT 10SM CLR M07/M14 A3056 RMK AO2 SLP348 T10671139 (AZ)
0212725025947412022010814517+40859-074056FM-15+0002KTEB V0203005N004652200059N0160935N5-00505-01395103645ADDAA101000095GA1005+999999999GD10991+9999999GF100991999999999999999999MA1103665103635MD1390419+9999REMMET10301/08/22 09:51:02 METAR KTEB 081451Z 30009KT 10SM CLR M05/M14 A3061 RMK AO2 SLP364 T10501139 53041 (AZ)
0191725025947412022010815517+40859-074056FM-15+0002KTEB V0203305N002652200059N0144845N5-00445-01445103655ADDAA101000095GA1005+999999999GD10991+9999999GF100991999999999999999999MA1103665103635REMMET09601/08/22 10:51:02 METAR KTEB 081551Z 33005KT 9SM CLR M04/M14 A3061 RMK AO2 SLP365 T10441144 (AZ)
0192725025947412022010816517+40859-074056FM-15+0002KTEB V0203405N004152200059N0160935N5-00335-01445103605ADDAA101000095GA1005+999999999GD10991+9999999GF100991999999999999999999MA1103595103575REMMET09701/08/22 11:51:02 METAR KTEB 081651Z 34008KT 10SM CLR M03/M14 A3059 RMK AO2 SLP360 T10331144 (AZ)
0250725025947412022010817517+40859-074056FM-15+0002KTEB V0202905N002152200059N0160935N5-00225-01505103535ADDAA101000095GA1005+999999999GD10991+9999999GF100991999999999999999999KA1060M-00221KA2060N-00721MA1103565103535MD1890109+9999REMMET11501/08/22 12:51:02 METAR KTEB 081751Z 29004KT 10SM CLR M02/M15 A3058 RMK AO2 SLP353 T10221150 11022 21072 58010 (AZ)
0192725025947412022010818517+40859-074056FM-15+0002KTEB V0209999V002152200059N0160935N5-00175-01445103545ADDAA101000095GA1005+999999999GD10991+9999999GF100991999999999999999999MA1103565103535REMMET09701/08/22 13:51:02 METAR KTEB 081851Z VRB04KT 10SM CLR M02/M14 A3058 RMK AO2 SLP354 T10171144 (AZ)
0192725025947412022010819517+40859-074056FM-15+0002KTEB V0201105N001552200059N0160935N5-00225-01445103535ADDAA101000095GA1005+999999999GD10991+9999999GF100991999999999999999999MA1103525103505REMMET09701/08/22 14:51:02 METAR KTEB 081951Z 11003KT 10SM CLR M02/M14 A3057 RMK AO2 SLP353 T10221144 (AZ)
0212725025947412022010820517+40859-074056FM-15+0002KTEB V0201805N001552200059N0160935N5-00175-01565103565ADDAA101000095GA1005+999999999GD10991+9999999GF100991999999999999999999MA1103565103535MD1390039+9999REMMET10301/08/22 15:51:02 METAR KTEB 082051Z 18003KT 10SM CLR M02/M16 A3058 RMK AO2 SLP356 T10171156 53003 (KM)
0192725025947412022010821517+40859-074056FM-15+0002KTEB V0201405N001552200059N0160935N5-00225-01505103585ADDAA101000095GA1005+999999999GD10991+9999999GF100991999999999999999999MA1103595103575REMMET09701/08/22 16:51:02 METAR KTEB 082151Z 14003KT 10SM CLR M02/M15 A3059 RMK AO2 SLP358 T10221150 (KM)
0192725025947412022010822517+40859-074056FM-15+0002KTEB V0201705N001552200059N0160935N5-00285-01335103555ADDAA101000095GA1005+999999999GD10991+9999999GF100991999999999999999999MA1103565103535REMMET09701/08/22 17:51:02 METAR KTEB 082251Z 17003KT 10SM CLR M03/M13 A3058 RMK AO2 SLP355 T10281133 (KM)
0250725025947412022010823517+40859-074056FM-15+0002KTEB V0201605N002152200059N0160935N5-00335-01335103585ADDAA101000095GA1005+999999999GD10991+9999999GF100991999999999999999999KA1060M-00061KA2060N-00501MA1103595103575MD1390019+9999REMMET11501/08/22 18:51:02 METAR KTEB 082351Z 16004KT 10SM CLR M03/M13 A3059 RMK AO2 SLP358 T10331133 11006 21050 53001 (KM)
0187725025947412022010900517+40859-074056FM-15+0002KTEB V0201905N001552200059N0160935N5-00445-01225103605ADDAA101000095GA1005+999999999GD10991+9999999GF100991999999999999999999MA1103595103575REMMET09201/08/22 19:51:01 METAR KTEB 090051Z 19003KT 10SM CLR M04/M12 A3059 RMK AO2 SLP360 T10441122
0187725025947412022010901517+40859-074056FM-15+0002KTEB V0202305N002652200059N0160935N5-00565-01285103565ADDAA101000095GA1005+999999999GD10991+9999999GF100991999999999999999999MA1103565103535REMMET09201/08/22 20:51:01 METAR KTEB 090151Z 23005KT 10SM CLR M06/M13 A3058 RMK AO2 SLP356 T10561128
0207725025947412022010902517+40859-074056FM-15+0002KTEB V0201905N002152200059N0160935N5-00505-01225103515ADDAA101000095GA1005+999999999GD10991+9999999GF100991999999999999999999MA1103525103505MD1890079+9999REMMET09801/08/22 21:51:01 METAR KTEB 090251Z 19004KT 10SM CLR M05/M12 A3057 RMK AO2 SLP351 T10501122 58007
0187725025947412022010903517+40859-074056FM-15+0002KTEB V0202005N001552200059N0160935N5-00445-01225103385ADDAA101000095GA1005+999999999GD10991+9999999GF100991999999999999999999MA1103395103365REMMET09201/08/22 22:51:02 METAR KTEB 090351Z 20003KT 10SM CLR M04/M12 A3053 RMK AO2 SLP338 T10441122
0223725025947412022010904517+40859-074056FM-15+0002KTEB V0202105N002652200059N0160935N5-00565-01225103435ADDAA101000095GA1005+999999999GD10991+9999999GF100991999999999999999999KA1240M-00061KA2240N-00721MA1103455103435REMMET10201/08/22 23:51:02 METAR KTEB 090451Z 21005KT 10SM CLR M06/M12 A3055 RMK AO2 SLP343 T10561122 410061072
0886725025947412022010904596+40859-074056SOD  +0002KTEB V020999999999999999999999999999+99999+99999999999ADDAA124000095KA1240M-00055KA2240N-00715MG1103154102344OE11240138631000175OE22240080532003045OE33240032699999995REMSOD73024 HR PRECIPITATION (IN):0.00  24 HR MAX TEMP (F):31 24 HR MAX TEMP TIME (LST):1507 24 HR MIN TEMP (F):19 24 HR MIN TEMP TIME (LST):0810 AVERAGE STATION PRESSURE:30.460 MINIMUM SEA LEVEL PRESSURE:30.22 TIME OF OCCURRENCE:0034 PEAK WIND SPEED (MPH):31  PEAK WIND DIR (DEG):310 PEAK WIND TIME (LST):0017  FASTEST 2MIN SPEED (MPH):18 FASTEST 2MIN DIR (DEG):320 FASTEST 2MIN TIME (LST):0304 AVERAGE WIND SPEED (MPH):7.3  24 HR AVG TEMP (F):25 HEATING DEGREE DAYS:40  COOLING DEGREE DAYS:0   LATEST DAY MAX TEMP (0700-1900 LST):31  LATEST NIGHT MIN TEMP(1900-0800 LST):19 HOURLY INCREMENTAL PRECIPITATION VALUES (IN):.00 0.00 0.00 0.00 0.00 0.00 0.00 0.00 0.00 0.00 0.00 0.00 0.00 0.00 0.00 0.00 0.00 0.00 0.00 0.00 0.00 0.00 0.00 0.00EQDR01     N7GJS072R02     N7GKS075
0250725025947412022010905517+40859-074056FM-15+0002KTEB V0202205N002652200059N0160935N5-00445-01225103355ADDAA101000095GA1005+999999999GD10991+9999999GF100991999999999999999999KA1060M-00331KA2060N-00611MA1103355103335MD1690169+9999REMMET11501/09/22 00:51:02 METAR KTEB 090551Z 22005KT 10SM CLR M04/M12 A3052 RMK AO2 SLP335 T10441122 11033 21061 56016 (WL)
0192725025947412022010906517+40859-074056FM-15+0002KTEB V0201905N002652200059N0160935N5-00505-01225103345ADDAA101000095GA1005+999999999GD10991+9999999GF100991999999999999999999MA1103355103335REMMET09701/09/22 01:51:02 METAR KTEB 090651Z 19005KT 10SM CLR M05/M12 A3052 RMK AO2 SLP334 T10501122 (WL)
0217725025947412022010907517+40859-074056FM-15+0002KTEB V0202005N00265033535MN0160935N5-00395-01005103245ADDAA101000095GA1085+033535999GD14991+0335359GE19AGL   +99999+99999GF199999999999033531999999MA1103255103235REMMET10001/09/22 02:51:02 METAR KTEB 090751Z 20005KT 10SM OVC110 M04/M10 A3049 RMK AO2 SLP324 T10391100 (WL)
0237725025947412022010908517+40859-074056FM-15+0002KTEB V0202005N00365033535MN0160935N5-00335-00945103105ADDAA101000095GA1085+033535999GD14991+0335359GE19AGL   +99999+99999GF199999999999033531999999MA1103125103095MD1890249+9999REMMET10601/09/22 03:51:02 METAR KTEB 090851Z 20007KT 10SM OVC110 M03/M09 A3045 RMK AO2 SLP310 T10331094 58024 (WL)
