0193725025947412021010100517+40850-074061FM-15+0002KTEB V0203505N004152200059N0160935N5+00335-00395102715ADDAA101000095GA1005+999999999GD10991+9999999GF100991999999999999999999MA1102715102685REMMET09812/31/20 19:51:03 METAR KTEB 010051Z 35008KT 10SM CLR 03/M04 A3033 RMK AO2 SLP271 T00331039 $ (MK)
0193725025947412021010101517+40850-074061FM-15+0002KTEB V0203305N003152200059N0160935N5+00225-00445102755ADDAA101000095GA1005+999999999GD10991+9999999GF100991999999999999999999MA1102785102755REMMET09812/31/20 20:51:03 METAR KTEB 010151Z 33006KT 10SM CLR 02/M04 A3035 RMK AO2 SLP275 T00221044 $ (MK)
0213725025947412021010102517+40850-074061FM-15+0002KTEB V0203405N001552200059N0160935N5+00175-00445102865ADDAA101000095GA1005+999999999GD10991+9999999GF100991999999999999999999MA1102885102855MD1190279+9999REMMET10412/31/20 21:51:03 METAR KTEB 010251Z 34003KT 10SM CLR 02/M04 A3038 RMK AO2 SLP286 T00171044 51027 $ (MK)
0193725025947412021010103517+40850-074061FM-15+0002KTEB V0203505N001552200059N0160935N5+00115-00505102945ADDAA101000095GA1005+999999999GD10991+9999999GF100991999999999999999999MA1102955102925REMMET09812/31/20 22:51:03 METAR KTEB 010351Z 35003KT 10SM CLR 01/M05 A3040 RMK AO2 SLP294 T00111050 $ (MK)
0229725025947412021010104517+40850-074061FM-15+0002KTEB V0209999C000052200059N0160935N5+00065-00565102955ADDAA101000095GA1005+999999999GD10991+9999999GF100991999999999999999999KA1240M+00671KA2240N+00061MA1102955102925REMMET10812/31/20 23:51:03 METAR KTEB 010451Z 00000KT 10SM CLR 01/M06 A3040 RMK AO2 SLP295 T00061056 400670006 $ (SW)
0910725025947412021010104596+40850-074061SOD  +0002KTEB V020999999999999999999999999999+99999+99999999999ADDAA124007195AT1AU16RA  5AT2AU13BR  5KA1240M+00675KA2240N-00055MG1101914101394OE11240084934012435OE22240067134013565OE33240030899999995REMSOD73024 HR PRECIPITATION (IN):0.28  24 HR MAX TEMP (F):44 24 HR MAX TEMP TIME (LST):1347 24 HR MIN TEMP (F):31 24 HR MIN TEMP TIME (LST):2359 AVERAGE STATION PRESSURE:30.095 MINIMUM SEA LEVEL PRESSURE:29.94 TIME OF OCCURRENCE:0527 PEAK WIND SPEED (MPH):19  PEAK WIND DIR (DEG):340 PEAK WIND TIME (LST):1243  FASTEST 2MIN SPEED (MPH):15 FASTEST 2MIN DIR (DEG):340 FASTEST 2MIN TIME (LST):1356 AVERAGE WIND SPEED (MPH):6.9  24 HR AVG TEMP (F):38 HEATING DEGREE DAYS:27  COOLING DEGREE DAYS:0   LATEST DAY MAX TEMP (0700-1900 LST):44  LATEST NIGHT MIN TEMP(1900-0800 LST):37 HOURLY INCREMENTAL PRECIPITATION VALUES (IN):.00 0.00 0.00 T    0.03 0.05 0.06 0.06 0.06 0.02 T    T    0.00 0.00 0.00 0.00 0.00 0.00 0.00 0.00 0.00 0.00 0.00 0.00EQDR01     N7GJS072R02     N7GKS075
1292725025947412021010104596+40850-074061SOM  +0002KTEB V020999999999999999999999999999+99999+99999999999ADDAB10091796AD10030592425999999996AE1086056035005AH1005002392502115AH2010004192502105AH3015005392502155AH4020005892502185AH5030005892502185AH6045006490506535AI1060008190507025AI2080009190507135AI3100009990507325AI4120011490507025AI5150013290507135AI6180014590507415KB1744N-01615KB2744M+06785KB3744A+02615KC1N9-00881999995KC2M9+01722599995KD1744H08715KD2744C00005KE1055005215005MH1101614101634MK1103523002055099532512215REMSOM796PCP MTOT:3.61 PCP GT 24HRS:1.20 DATE(S):24-25 DAYS W/PCP >=.01:8  DAYS W/PCP >=.10:5  DAYS W/ PCP >=.50:3 DAYS W/PCP >=1.00:0 MSDP AMTS W/DATE-TIME TAGS:MIN:5 0.09  25/0211 MIN:10 0.16  25/0210 MIN:15 0.21  25/0215 MIN:20 0.23  25/0218 MIN:30 0.23  25/0218 MIN:45 0.25  05/0653 MIN:60 0.32  05/0702 MIN:80 0.36  05/0713 MIN:100 0.39  05/0732 MIN:120 0.45  05/0702 MIN:150 0.52  05/0713 MIN:180 0.57  05/0741 AVG DLY MIN:29.1  AVG DLY MAX:44.2  AVG MLY TMP:36.7  MIN TMP:16 DATE(S):19 MAX TMP:63  DATE(S):25 DAYS MAX <=32:5 DAYS MAX >=90:0  DAYS MIN <=32:21 DAYS MIN  <=0:0  AVG STP:30.005 LWST SLP:29.39 DATE/TIME:251221 HGST SLP:30.57 DATE/TIME:300205 HDD MTH TOT:871 DEP NORM:-2553 SEASON(JUL 1-JUN 30):1646 DEP NORM:-25536 CDD MTH TOT:0 DEP NORM:-2553 SEASON(JAN 1-DEC 31):1289 DEP NORM:-25536EQDR01  3.617ABP070R02  1.207ADP081R03     87AE1100R04     37AE2103
0251725025947412021010105517+40850-074061FM-15+0002KTEB V0203605N001552200059N0160935N5+00005-00505103025ADDAA101000095GA1005+999999999GD10991+9999999GF100991999999999999999999KA1060M+00391KA2060N-00061MA1103015102995MD1190169+9999REMMET11601/01/21 00:51:02 METAR KTEB 010551Z 36003KT 10SM CLR 00/M05 A3042 RMK AO2 SLP302 T00001050 10039 21006 51016 $ (SW)
0193725025947412021010106517+40850-074061FM-15+0002KTEB V0209999C000052200059N0160935N5+00005-00505103105ADDAA101000095GA1005+999999999GD10991+9999999GF100991999999999999999999MA1103125103095REMMET09801/01/21 01:51:02 METAR KTEB 010651Z 00000KT 10SM CLR 00/M05 A3045 RMK AO2 SLP310 T00001050 $ (SW)
0194725025947412021010107517+40850-074061FM-15+0002KTEB V0209999C000052200059N0160935N5-00115-00505103155ADDAA101000095GA1005+999999999GD10991+9999999GF100991999999999999999999MA1103155103135REMMET09901/01/21 02:51:02 METAR KTEB 010751Z 00000KT 10SM CLR M01/M05 A3046 RMK AO2 SLP315 T10111050 $ (SW)
0214725025947412021010108517+40850-074061FM-15+0002KTEB V0209999C000052200059N0160935N5-00335-00615103175ADDAA101000095GA1005+999999999GD10991+9999999GF100991999999999999999999MA1103185103165MD1190159+9999REMMET10501/01/21 03:51:02 METAR KTEB 010851Z 00000KT 10SM CLR M03/M06 A3047 RMK AO2 SLP317 T10331061 51015 $ (SW)
0194725025947412021010109517+40850-074061FM-15+0002KTEB V0209999C000052200059N0160935N5-00285-00565103215ADDAA101000095GA1005+999999999GD10991+9999999GF100991999999999999999999MA1103225103195REMMET09901/01/21 04:51:02 METAR KTEB 010951Z 00000KT 10SM CLR M03/M06 A3048 RMK AO2 SLP321 T10281056 $ (SW)
0194725025947412021010110517+40850-074061FM-15+0002KTEB V0209999C000052200059N0160935N5-00225-00505103235ADDAA101000095GA1005+999999999GD10991+9999999GF100991999999999999999999MA1103255103235REMMET09901/01/21 05:51:02 METAR KTEB 011051Z 00000KT 10SM CLR M02/M05 A3049 RMK AO2 SLP323 T10221050 $ (SW)
0269725025947412021010111517+40850-074061FM-15+0002KTEB V0209999C000052200059N0160935N5-00395-00615103295ADDAA101000095AA224003891GA1005+999999999GD10991+9999999GF100991999999999999999999KA1060M+00061KA2060N-00391MA1103285103265MD1390129+9999REMMET12301/01/21 06:51:02 METAR KTEB 011151Z 00000KT 10SM CLR M04/M06 A3050 RMK AO2 SLP329 70015 T10391061 10006 21039 53012 $ (AZ)
0194725025947412021010112517+40850-074061FM-15+0002KTEB V0200405N001552200059N0160935N5-00225-00505103345ADDAA101000095GA1005+999999999GD10991+9999999GF100991999999999999999999MA1103355103335REMMET09901/01/21 07:51:02 METAR KTEB 011251Z 04003KT 10SM CLR M02/M05 A3052 RMK AO2 SLP334 T10221050 $ (AZ)
0194725025947412021010113517+40850-074061FM-15+0002KTEB V0209999C000052200059N0160935N5-00115-00285103375ADDAA101000095GA1005+999999999GD10991+9999999GF100991999999999999999999MA1103395103365REMMET09901/01/21 08:51:02 METAR KTEB 011351Z 00000KT 10SM CLR M01/M03 A3053 RMK AO2 SLP337 T10111028 $ (AZ)
0213725025947412021010114517+40850-074061FM-15+0002KTEB V0209999C000052200059N0160935N5+00115-00395103395ADDAA101000095GA1005+999999999GD10991+9999999GF100991999999999999999999MA1103395103365MD1190109+9999REMMET10401/01/21 09:51:02 METAR KTEB 011451Z 00000KT 10SM CLR 01/M04 A3053 RMK AO2 SLP339 T00111039 51010 $ (AZ)
0193725025947412021010115517+40850-074061FM-15+0002KTEB V0209999C000052200059N0160935N5+00175-00445103335ADDAA101000095GA1005+999999999GD10991+9999999GF100991999999999999999999MA1103355103335REMMET09801/01/21 10:51:02 METAR KTEB 011551Z 00000KT 10SM CLR 02/M04 A3052 RMK AO2 SLP333 T00171044 $ (AZ)
0200725025947412021010116517+40850-074061FM-15+0002KTEB V0209999C000052200059N0160935N5+00225-00445103105ADDAA101000095GA1005+999999999GD10991+9999999GF100991999999999999999999MA1103125103095REMMET10501/01/21 11:51:02 METAR KTEB 011651Z 00000KT 10SM CLR 02/M04 A3045 RMK AO2 PRESFR SLP310 T00221044 $ (AZ)
0251725025947412021010117517+40850-074061FM-15+0002KTEB V0201005N002152200059N0160935N5+00285-00395103055ADDAA101000095GA1005+999999999GD10991+9999999GF100991999999999999999999KA1060M+00281KA2060N-00391MA1103055103025MD1690349+9999REMMET11601/01/21 12:51:02 METAR KTEB 011751Z 10004KT 10SM CLR 03/M04 A3043 RMK AO2 SLP305 T00281039 10028 21039 56034 $ (AZ)
0193725025947412021010118517+40850-074061FM-15+0002KTEB V0200705N002152200059N0160935N5+00335-00395102945ADDAA101000095GA1005+999999999GD10991+9999999GF100991999999999999999999MA1102955102925REMMET09801/01/21 13:51:02 METAR KTEB 011851Z 07004KT 10SM CLR 03/M04 A3040 RMK AO2 SLP294 T00331039 $ (AZ)
0237725025947412021010119517+40850-074061FM-15+0002KTEB V0209999C000052200059N0160935N5+00335-00335102915ADDAA101000095GA1045+036585999GD12991+0365859GE19AGL   +99999+99999GF104995999999036581999999MA1102915102895REMMET10101/01/21 14:51:02 METAR KTEB 011951Z 00000KT 10SM SCT120 03/M03 A3039 RMK AO2 SLP291 T00331033 $ (AZ)EQDD01      0ADE726
0314725025947412021010120517+40850-074061FM-15+0002KTEB V0209999C00005033535MN0160935N5+00335-00285102825ADDAA101000095GA1025+008535999GA2045+027435999GA3085+033535999GD11991+0085359GD22991+0274359GD34991+0335359GE19MSL   +99999+99999GF199999999999008531999999MA1102815102795MD1690239+9999REMMET12101/01/21 15:51:02 METAR KTEB 012051Z 00000KT 10SM FEW028 SCT090 OVC110 03/M03 A3036 RMK AO2 SLP282 T00331028 56023 $ (MK)
0287725025947412021010121167+40850-074061FM-16+0002KTEB V0200805N00215008535MN0160935N5+00335-00285999999ADDAA101000021AU120060015AW1755GA1075+008535999GA2085+027435999GD13991+0085359GD24991+0274359GE19MSL   +99999+99999GF199999999999008531999999MA1102815102795MW1795REMMET11601/01/21 16:16:02 SPECI KTEB 012116Z 08004KT 10SM PL BKN028 OVC090 03/M03 A3036 RMK AO2 PLB15 P0000 T00331028 $ (MK)
0257725025947412021010121517+40850-074061FM-15+0002KTEB V0200405N00155027435MN0160935N5+00285-00225102765ADDAA101000595AU120060025AU220020035AW1625AW2755GA1085+027435999GD14991+0274359MA1102785102755MW1655MW2795REMMET12301/01/21 16:51:02 METAR KTEB 012151Z 04003KT 10SM PLRA OVC090 03/M02 A3035 RMK AO2 RAB18PLB15 SLP276 P0001 T00281022 $ (MK)EQDD01      0ADE735
0239725025947412021010121587+40850-074061FM-16+0002KTEB V0200405N00155027435MN0160935N5+00285-00175999999ADDAA101000231AU120060025AU220020035AW1625AW2755GA1085+027435999GD14991+0274359MA1102745102725MW1655MW2795REMMET10501/01/21 16:58:02 SPECI KTEB 012158Z 04003KT 10SM PLRA OVC090 03/M02 A3034 RMK AO2 P0001 T00281017 $ (MK)EQDD01      0ADE735
0250725025947412021010122496+40850-074061FM-16+0002KTEB V0200505N00215008235MN0144845N5+00205-00105999999ADDAU120060025AU220020035AW1625AW2755GA1075+008235999GA2085+018295999GD13991+0082359GD24991+0182959MA1102645102625MW1655MW2795REMMET11501/01/21 17:49:02 SPECI KTEB 012249Z 05004KT 9SM PLRA BKN027 OVC060 02/M01 A3031 RMK AO2 UPB36E40 P0002 $ FIBI (MK)
0292725025947412021010122517+40850-074061FM-15+0002KTEB V0200405N00155008235MN0144845N5+00225-00115102645ADDAA101000395AU120060025AU220020035AW1625AW2755GA1075+008235999GA2085+018295999GD13991+0082359GD24991+0182959MA1102645102625MW1655MW2795REMMET12701/01/21 17:51:02 METAR KTEB 012251Z 04003KT 9SM PLRA BKN027 OVC060 02/M01 A3031 RMK AO2 UPB36E40 SLP264 P0002 T00221011 $ (MK)EQDD01      0ADE735
0199725025947412021010123496+40850-074061FM-16+0002KTEB V0200505N00265006715MN0128755N5+00205-00105999999ADDAU120020015AW1625GA1085+006715999GD14991+0067159MA1102515102485MW1655REMMET11801/01/21 18:49:02 SPECI KTEB 012349Z 05005KT 8SM RA OVC022 02/M01 A3027 RMK AO2 UPB12E15PLE47 PRESFR P0002 $ FIBI (MK)
0364725025947412021010123517+40850-074061FM-15+0002KTEB V0200505N00315006715MN0128755N5+00225-00065102485ADDAA101000595AA206001391AU120020015AW1625GA1085+006715999GD14991+0067159GE19MSL   +99999+99999GF199999999999006711999999KA1060M+00331KA2060N+00221MA1102515102485MD1890349+9999MW1655REMMET15401/01/21 18:51:02 METAR KTEB 012351Z 05006KT 8SM RA OVC022 02/M01 A3027 RMK AO2 UPB12E15PLE47 PRESFR SLP248 P0002 60005 T00221006 10033 20022 58034 $ (MK)EQDQ01  00128PRCP06
0197725025947412021010200496+40850-074061FM-16+0002KTEB V0200605N00265004275MN0080475N5+00205+00105999999ADDAU120020015AU200001015AW1105AW2625GA1085+004275999GD14991+0042759MA1102345102315MW1655REMMET09901/01/21 19:49:03 SPECI KTEB 020049Z 06005KT 5SM RA BR OVC014 02/01 A3022 RMK AO2 P0009 $ FIBI (MK)
0263725025947412021010200517+40850-074061FM-15+0002KTEB V0200605N00265004275MN0080475N5+00225+00065102345ADDAA101002595AU120020015AU200001015AW1105AW2625GA1085+004275999GD14991+0042759GE19MSL   +99999+99999GF199999999999004271999999MA1102345102315MW1655REMMET10601/01/21 19:51:01 METAR KTEB 020051Z 06005KT 5SM RA BR OVC014 02/01 A3022 RMK AO2 SLP234 P0009 T00220006 $
0263725025947412021010201517+40850-074061FM-15+0002KTEB V0200505N00265003355MN0064375N5+00225+00065102205ADDAA101003095AU120020015AU200001015AW1105AW2625GA1085+003355999GD14991+0033559GE19MSL   +99999+99999GF199999999999003351999999MA1102205102185MW1655REMMET10601/01/21 20:51:01 METAR KTEB 020151Z 05005KT 4SM RA BR OVC011 02/01 A3018 RMK AO2 SLP220 P0010 T00220006 $
0209725025947412021010202496+40850-074061FM-16+0002KTEB V0209999V00155002445MN0048285N5+00205+00105999999ADDAU120020015AU200001015AW1105AW2625GA1085+002445999GD14991+0024459MA1102075102045MW1655REMMET11101/01/21 21:49:03 SPECI KTEB 020249Z VRB03KT 3SM RA BR OVC008 02/01 A3014 RMK AO2 CIG 007V011 P0017 $ FIBI (MK)
0331725025947412021010202517+40850-074061FM-15+0002KTEB V0209999V00155002445MN0048285N5+00225+00065102115ADDAA101005195AA203009491AU120020015AU200001015AW1105AW2625GA1085+002445999GD14991+0024451GE19MSL   +99999+99999GF199999999999002441999999MA1102135102115MD1690379+9999MW1655REMMET13001/01/21 21:51:01 METAR KTEB 020251Z VRB03KT 3SM RA BR OVC008 02/01 A3016 RMK AO2 CIG 007V013 SLP211 P0018 60037 T00220006 56037 $EQDQ01  00938PRCP03
0275725025947412021010203517+40850-074061FM-15+0002KTEB V0200405N00315002445MN0064375N5+00285+00115101875ADDAA101003095AU120020015AU200001015AW1105AW2625GA1085+002445999GD14991+0024451GE19MSL   +99999+99999GF199999999999002441999999MA1101865101845MW1655REMMET11801/01/21 22:51:01 METAR KTEB 020351Z 04006KT 4SM RA BR OVC008 03/01 A3008 RMK AO2 CIG 007V012 SLP187 P0016 T00280011 $
0244725025947412021010204157+40850-074061FM-16+0002KTEB V0200605N00315003055MN0160935N5+00285+00115999999ADDAA101000531AU120020015AW1625GA1085+003055999GD14991+0030559GE19MSL   +99999+99999GF199999999999003051999999MA1101765101745MW1655REMMET10401/01/21 23:15:02 SPECI KTEB 020415Z 06006KT 10SM RA OVC010 03/01 A3005 RMK AO2 PRESFR P0002 T00280011 $
0299725025947412021010204517+40850-074061FM-15+0002KTEB V0203605N00315003055MN0080475N5+00285+00115101655ADDAA101000395AU120020015AU200001015AW1105AW2625GA1085+003055999GD14991+0030559GE19MSL   +99999+99999GF199999999999003051999999KA1240M+00331KA2240N-00391MA1101665101645MW1655REMMET11601/01/21 23:51:02 METAR KTEB 020451Z 36006KT 5SM RA BR OVC010 03/01 A3002 RMK AO2 SLP165 P0002 T00280011 400331039 $
0922725025947412021010204596+40850-074061SOD  +0002KTEB V020999999999999999999999999999+99999+99999999999ADDAA124015295AT1AU16RA  5AT2AU04PL  5AT3AU13BR  5KA1240M+00335KA2240N-00385MG1102934101594OE11240098314022095OE22240076013022105OE33240010799999995REMSOD73024 HR PRECIPITATION (IN):0.60  24 HR MAX TEMP (F):38 24 HR MAX TEMP TIME (LST):1629 24 HR MIN TEMP (F):25 24 HR MIN TEMP TIME (LST):0735 AVERAGE STATION PRESSURE:30.395 MINIMUM SEA LEVEL PRESSURE:30.00 TIME OF OCCURRENCE:2330 PEAK WIND SPEED (MPH):22  PEAK WIND DIR (DEG):140 PEAK WIND TIME (LST):2209  FASTEST 2MIN SPEED (MPH):17 FASTEST 2MIN DIR (DEG):130 FASTEST 2MIN TIME (LST):2210 AVERAGE WIND SPEED (MPH):2.4  24 HR AVG TEMP (F):32 HEATING DEGREE DAYS:33  COOLING DEGREE DAYS:0   LATEST DAY MAX TEMP (0700-1900 LST):38  LATEST NIGHT MIN TEMP(1900-0800 LST):25 HOURLY INCREMENTAL PRECIPITATION VALUES (IN):.00 0.00 0.00 0.00 0.00 0.00 0.00 0.00 0.00 0.00 0.00 0.00 0.00 0.00 0.00 0.00 0.02 0.01 0.02 0.10 0.12 0.20 0.12 0.01EQDR01     N7GJS072R02     N7GKS075
0198725025947412021010205496+40850-074061FM-16+0002KTEB V0200105N00265001525MN0048285N5+00205+00105999999ADDAU110020015AU200001015AW1105AW2615GA1085+001525999GD14991+0015259MA1101465101435MW1615REMMET10001/02/21 00:49:02 SPECI KTEB 020549Z 01005KT 3SM -RA BR OVC005 02/01 A2996 RMK AO2 P0003 $ FIBI (WL)
0363725025947412021010205517+40850-074061FM-15+0002KTEB V0200305N00315001525MN0064375N5+00175+00065101455ADDAA101000895AA206014791AU110020015AU200001015AW1105AW2615GA1085+001525999GD14991+0015259GE19MSL   +99999+99999GF199999999999001521999999KA1060M+00281KA2060N+00171MA1101465101435MD1690669+9999MW1615REMMET13601/02/21 00:51:02 METAR KTEB 020551Z 03006KT 4SM -RA BR OVC005 02/01 A2996 RMK AO2 SLP145 P0003 60058 T00170006 10028 20017 56066 $ (WL)EQDQ01  01478PRCP06
0269725025947412021010206517+40850-074061FM-15+0002KTEB V0203605N00315001835MN0048285N5+00175+00005101245ADDAA101000395AU110020015AU200001015AW1105AW2615GA1085+001835999GD14991+0018359GE19MSL   +99999+99999GF199999999999001831999999MA1101255101235MW1615REMMET11201/02/21 01:51:02 METAR KTEB 020651Z 36006KT 3SM -RA BR OVC006 02/00 A2990 RMK AO2 SLP124 P0001 T00170000 $ (WL)
0269725025947412021010207517+40850-074061FM-15+0002KTEB V0200305N00315001525MN0048285N5+00175+00065101065ADDAA101000395AU110020015AU200001015AW1105AW2615GA1085+001525999GD14991+0015259GE19MSL   +99999+99999GF199999999999001521999999MA1101055101035MW1615REMMET11201/02/21 02:51:02 METAR KTEB 020751Z 03006KT 3SM -RA BR OVC005 02/01 A2984 RMK AO2 SLP106 P0001 T00170006 $ (WL)
0209725025947412021010208496+40850-074061FM-16+0002KTEB V0200105N00215001225MN0064375N5+00205+00105999999ADDAU110010015AU200001015AW1105AW2515GA1085+001225999GD14991+0012259MA1100915100895MW1515REMMET11101/02/21 03:49:02 SPECI KTEB 020849Z 01004KT 4SM -DZ BR OVC004 02/01 A2980 RMK AO2 RAE47DZB47 P0001 $ FIBI (WL)
0336725025947412021010208517+40850-074061FM-15+0002KTEB V0200205N00155001225MN0064375N5+00175+00065100895ADDAA101000395AA203000891AU110010015AU200001015AW1105AW2515GA1085+001225999GD14991+0012259GE19MSL   +99999+99999GF199999999999001221999999MA1100885100865MD1690569+9999MW1515REMMET13501/02/21 03:51:02 METAR KTEB 020851Z 02003KT 4SM -DZ BR OVC004 02/01 A2979 RMK AO2 RAE47DZB47 SLP089 P0001 60003 T00170006 56056 $ (WL)EQDQ01  00078PRCP03
0262725025947412021010209377+40850-074061FM-16+0002KTEB V0203105N00215001525MN0080475N5+00175+00065999999ADDAA101000021AU110010015AU200001015AW1105AW2515GA1085+001525999GD14991+0015259GE19MSL   +99999+99999GF199999999999001521999999MA1100815100795MW1515REMMET10501/02/21 04:37:02 SPECI KTEB 020937Z 31004KT 5SM -DZ BR OVC005 02/01 A2977 RMK AO2 P0000 T00170006 $ (WL)
0269725025947412021010209517+40850-074061FM-15+0002KTEB V0203405N00155001525MN0064375N5+00225+00065100785ADDAA101000025AU110010015AU200001015AW1105AW2515GA1085+001525999GD14991+0015259GE19MSL   +99999+99999GF199999999999001521999999MA1100785100765MW1515REMMET11201/02/21 04:51:02 METAR KTEB 020951Z 34003KT 4SM -DZ BR OVC005 02/01 A2976 RMK AO2 SLP078 P0000 T00220006 $ (WL)
0269725025947412021010210517+40850-074061FM-15+0002KTEB V0209999V00215001525MN0048285N5+00225+00115100725ADDAA101000025AU110010015AU200001015AW1105AW2515GA1085+001525999GD14991+0015259GE19MSL   +99999+99999GF199999999999001521999999MA1100755100725MW1515REMMET11201/02/21 05:51:02 METAR KTEB 021051Z VRB04KT 3SM -DZ BR OVC005 02/01 A2975 RMK AO2 SLP072 P0000 T00220011 $ (WL)
0408725025947412021010211517+40850-074061FM-15+0002KTEB V0209999C00005002135MN0064375N5+00285+00115100755ADDAA101000025AA206000891AA324016891AU110010015AU200001015AW1105AW2515GA1085+002135999GD14991+0021351GE19MSL   +99999+99999GF199999999999002131999999KA1060M+00281KA2060N+00171MA1100755100725MD1590149+9999MW1515REMMET15401/02/21 06:51:02 METAR KTEB 021151Z 00000KT 4SM -DZ BR OVC007 03/01 A2975 RMK AO2 CIG 005V009 SLP075 P0000 60003 70066 T00280011 10028 20017 55014 $ (AZ)EQDQ01  00078PRCP06Q02  01678PRCP24
0210725025947412021010212496+40850-074061FM-16+0002KTEB V0202505N00155003355MN0048285N5+00305+00205999999ADDAU110010015AU200001015AW1105AW2515GA1085+003355999GD14991+0033559MA1100815100795MW1515REMMET11201/02/21 07:49:02 SPECI KTEB 021249Z 25003KT 3SM -DZ BR OVC011 03/02 A2977 RMK AO2 CIG 006V014 P0000 $ FIBI (AZ)
0281725025947412021010212517+40850-074061FM-15+0002KTEB V0202505N00155003355MN0048285N5+00285+00175100815ADDAA101000025AU110010015AU200001015AW1105AW2515GA1085+003355999GD14991+0033551GE19MSL   +99999+99999GF199999999999003351999999MA1100815100795MW1515REMMET12401/02/21 07:51:02 METAR KTEB 021251Z 25003KT 3SM -DZ BR OVC011 03/02 A2977 RMK AO2 CIG 006V013 SLP081 P0000 T00280017 $ (AZ)
0248725025947412021010213517+40850-074061FM-15+0002KTEB V0202305N002652200059N0160935N5+00505+00335100845ADDAA101000025GA1045+003355999GD12991+0033559GE19AGL   +99999+99999GF104995999999003351999999MA1100855100825REMMET11201/02/21 08:51:02 METAR KTEB 021351Z 23005KT 10SM SCT011 05/03 A2978 RMK AO2 DZE47 SLP084 P0000 T00500033 $ (AZ)EQDD01      0ADE726
0218725025947412021010213587+40850-074061FM-16+0002KTEB V0202705N002152200059N0160935N5+00505+00335999999ADDGA1025+002745999GD11991+0027459GE19AGL   +99999+99999GF102995999999002741999999MA1100885100865REMMET09301/02/21 08:58:02 SPECI KTEB 021358Z 27004KT 10SM FEW009 05/03 A2979 RMK AO2 T00500033 $ (AZ)EQDD01      0ADE726
0254725025947412021010214517+40850-074061FM-15+0002KTEB V0202605N00465011285MN0160935N5+00835+00565100875ADDAA101000095AA203000021GA1075+011285999GD13991+0112859GE19MSL   +99999+99999GF199999999999011281999999MA1100885100865MD1190129+9999REMMET11201/02/21 09:51:02 METAR KTEB 021451Z 26009KT 10SM BKN037 08/06 A2979 RMK AO2 SLP087 60000 T00830056 51012 $ (AZ)
0279725025947412021010215517+40850-074061FM-15+0002KTEB V0202905N007252200059N0160935N5+01005+00395100855ADDAA101000095GA1025+010675999GD11991+0106759GE19AGL   +99999+99999GF102995999999010671999999MA1100855100825OC101345OD149901331280REMMET12101/02/21 10:51:02 METAR KTEB 021551Z 29014G26KT 10SM FEW035 10/04 A2978 RMK AO2 PK WND 28026/1542 SLP085 T01000039 $ (AZ)EQDD01      0ADE726
0260725025947412021010216517+40850-074061FM-15+0002KTEB V0203105N00675011285MN0160935N5+01065+00395100885ADDAA101000095GA1075+011285999GD13991+0112859GE19MSL   +99999+99999GF199999999999011281999999MA1100885100865OC101085OD149901541290REMMET12101/02/21 11:51:02 METAR KTEB 021651Z 31013G21KT 10SM BKN037 11/04 A2979 RMK AO2 PK WND 29030/1556 SLP088 T01060039 $ (AZ)
0303725025947412021010217517+40850-074061FM-15+0002KTEB V0203105N00825011585MN0160935N5+01005+00335100925ADDAA101000095AA206000021GA1075+011585999GD13991+0115859GE19MSL   +99999+99999GF199999999999011581999999KA1060M+01061KA2060N+00281MA1100915100895MD1390059+9999OC101185REMMET12701/02/21 12:51:02 METAR KTEB 021751Z 31016G23KT 10SM BKN038 10/03 A2980 RMK AO2 SLP092 60000 T01000033 10106 20028 53005 $ (AZ)
0279725025947412021010218517+40850-074061FM-15+0002KTEB V0203105N009852200059N0160935N5+01005+00225101065ADDAA101000095GA1025+012195999GD11991+0121959GE19AGL   +99999+99999GF102995999999012191999999MA1101055101035OC101245OD149901391310REMMET12101/02/21 13:51:02 METAR KTEB 021851Z 31019G24KT 10SM FEW040 10/02 A2984 RMK AO2 PK WND 31027/1801 SLP106 T01000022 $ (AZ)EQDD01      0ADE726
0247725025947412021010219517+40850-074061FM-15+0002KTEB V0203305N007252200059N0160935N5+00895+00115101225ADDAA101000095GA1045+011285999GD12991+0112859GE19AGL   +99999+99999GF104995999999011281999999MA1101225101205OC101085REMMET10301/02/21 14:51:02 METAR KTEB 021951Z 33014G21KT 10SM SCT037 09/01 A2989 RMK AO2 SLP122 T00890011 $ (AZ)EQDD01      0ADE726
0263725025947412021010220517+40850-074061FM-15+0002KTEB V0203205N007252200059N0160935N5+00725-00065101375ADDAA101000095GA1005+999999999GD10991+9999999GF100991999999999999999999MA1101395101365MD1390459+9999OC101445OD149901591310REMMET13201/02/21 15:51:02 METAR KTEB 022051Z 32014G28KT 10SM CLR 07/M01 A2994 RMK AO2 PK WND 31031/2029 PRESRR SLP137 T00721006 53045 $ (MK)
0193725025947412021010221517+40850-074061FM-15+0002KTEB V0203305N004652200059N0160935N5+00675-00115101545ADDAA101000095GA1005+999999999GD10991+9999999GF100991999999999999999999MA1101565101535REMMET09801/02/21 16:51:02 METAR KTEB 022151Z 33009KT 10SM CLR 07/M01 A2999 RMK AO2 SLP154 T00671011 $ (MK)
0193725025947412021010222517+40850-074061FM-15+0002KTEB V0203105N004652200059N0160935N5+00505-00175101625ADDAA101000095GA1005+999999999GD10991+9999999GF100991999999999999999999MA1101635101605REMMET09801/02/21 17:51:02 METAR KTEB 022251Z 31009KT 10SM CLR 05/M02 A3001 RMK AO2 SLP162 T00501017 $ (MK)
0251725025947412021010223517+40850-074061FM-15+0002KTEB V0203205N003652200059N0160935N5+00445-00175101745ADDAA101000095GA1005+999999999GD10991+9999999GF100991999999999999999999KA1060M+01061KA2060N+00391MA1101765101745MD1190379+9999REMMET11601/02/21 18:51:02 METAR KTEB 022351Z 32007KT 10SM CLR 04/M02 A3005 RMK AO2 SLP174 T00441017 10106 20039 51037 $ (MK)
0188725025947412021010300517+40850-074061FM-15+0002KTEB V0203205N002652200059N0160935N5+00335-00225101835ADDAA101000095GA1005+999999999GD10991+9999999GF100991999999999999999999MA1101835101805REMMET09301/02/21 19:51:01 METAR KTEB 030051Z 32005KT 10SM CLR 03/M02 A3007 RMK AO2 SLP183 T00331022 $
0188725025947412021010301517+40850-074061FM-15+0002KTEB V0203305N001552200059N0160935N5+00335-00175101865ADDAA101000095GA1005+999999999GD10991+9999999GF100991999999999999999999MA1101865101845REMMET09301/02/21 20:51:01 METAR KTEB 030151Z 33003KT 10SM CLR 03/M02 A3008 RMK AO2 SLP186 T00331017 $
0208725025947412021010302517+40850-074061FM-15+0002KTEB V0209999C000052200059N0160935N5+00285-00225101905ADDAA101000095GA1005+999999999GD10991+9999999GF100991999999999999999999MA1101905101875MD1190169+9999REMMET09901/02/21 21:51:01 METAR KTEB 030251Z 00000KT 10SM CLR 03/M02 A3009 RMK AO2 SLP190 T00281022 51016 $
0188725025947412021010303517+40850-074061FM-15+0002KTEB V0200705N001552200059N0160935N5+00225-00225101955ADDAA101000095GA1005+999999999GD10991+9999999GF100991999999999999999999MA1101965101945REMMET09301/02/21 22:51:01 METAR KTEB 030351Z 07003KT 10SM CLR 02/M02 A3011 RMK AO2 SLP195 T00221022 $
0224725025947412021010304517+40850-074061FM-15+0002KTEB V0209999C000052200059N0160935N5+00175-00225101995ADDAA101000095GA1005+999999999GD10991+9999999GF100991999999999999999999KA1240M+01061KA2240N+00061MA1102005101975REMMET10301/02/21 23:51:02 METAR KTEB 030451Z 00000KT 10SM CLR 02/M02 A3012 RMK AO2 SLP199 T00171022 401060006 $
0922725025947412021010304596+40850-074061SOD  +0002KTEB V020999999999999999999999999999+99999+99999999999ADDAA124001595AT1AU16RA  5AT2AU14DZ  5AT3AU13BR  5KA1240M+01065KA2240N+00065MG1101194100644OE11240160931015295OE22240111832015435OE33240036799999995REMSOD73024 HR PRECIPITATION (IN):0.06  24 HR MAX TEMP (F):51 24 HR MAX TEMP TIME (LST):1337 24 HR MIN TEMP (F):33 24 HR MIN TEMP TIME (LST):2224 AVERAGE STATION PRESSURE:29.880 MINIMUM SEA LEVEL PRESSURE:29.72 TIME OF OCCURRENCE:0543 PEAK WIND SPEED (MPH):36  PEAK WIND DIR (DEG):310 PEAK WIND TIME (LST):1529  FASTEST 2MIN SPEED (MPH):25 FASTEST 2MIN DIR (DEG):320 FASTEST 2MIN TIME (LST):1543 AVERAGE WIND SPEED (MPH):8.2  24 HR AVG TEMP (F):42 HEATING DEGREE DAYS:23  COOLING DEGREE DAYS:0   LATEST DAY MAX TEMP (0700-1900 LST):51  LATEST NIGHT MIN TEMP(1900-0800 LST):35 HOURLY INCREMENTAL PRECIPITATION VALUES (IN):.03 0.01 0.01 0.01 T    T    T    T    T    0.00 0.00 0.00 0.00 0.00 0.00 0.00 0.00 0.00 0.00 0.00 0.00 0.00 0.00 0.00EQDR01     N7GJS072R02     N7GKS075
0251725025947412021010305517+40850-074061FM-15+0002KTEB V0203505N003152200059N0160935N5+00175-00225101975ADDAA101000095GA1005+999999999GD10991+9999999GF100991999999999999999999KA1060M+00441KA2060N+00061MA1101965101945MD1090069+9999REMMET11601/03/21 00:51:02 METAR KTEB 030551Z 35006KT 10SM CLR 02/M02 A3011 RMK AO2 SLP197 T00171022 10044 20006 50006 $ (BR)
0193725025947412021010306517+40850-074061FM-15+0002KTEB V0200605N001552200059N0160935N5+00115-00285102025ADDAA101000095GA1005+999999999GD10991+9999999GF100991999999999999999999MA1102035102015REMMET09801/03/21 01:51:02 METAR KTEB 030651Z 06003KT 10SM CLR 01/M03 A3013 RMK AO2 SLP202 T00111028 $ (BR)
0193725025947412021010307517+40850-074061FM-15+0002KTEB V0200105N002652200059N0160935N5+00065-00285101985ADDAA101000095GA1005+999999999GD10991+9999999GF100991999999999999999999MA1102005101975REMMET09801/03/21 02:51:02 METAR KTEB 030751Z 01005KT 10SM CLR 01/M03 A3012 RMK AO2 SLP198 T00061028 $ (BR)
0213725025947412021010308517+40850-074061FM-15+0002KTEB V0200105N002652200059N0160935N5+00005-00335101975ADDAA101000095GA1005+999999999GD10991+9999999GF100991999999999999999999MA1101965101945MD1090019+9999REMMET10401/03/21 03:51:02 METAR KTEB 030851Z 01005KT 10SM CLR 00/M03 A3011 RMK AO2 SLP197 T00001033 50001 $ (BR)
0200725025947412021010309517+40850-074061FM-15+0002KTEB V0200505N003152200059N0160935N5+00005-00335101875ADDAA101000095GA1005+999999999GD10991+9999999GF100991999999999999999999MA1101865101845REMMET10501/03/21 04:51:02 METAR KTEB 030951Z 05006KT 10SM CLR 00/M03 A3008 RMK AO2 PRESFR SLP187 T00001033 $ (BR)
0193725025947412021010310517+40850-074061FM-15+0002KTEB V0200205N002652200059N0160935N5+00065-00285101845ADDAA101000095GA1005+999999999GD10991+9999999GF100991999999999999999999MA1101835101805REMMET09801/03/21 05:51:02 METAR KTEB 031051Z 02005KT 10SM CLR 01/M03 A3007 RMK AO2 SLP184 T00061028 $ (BR)
0147725025947412021010311496+40850-074061FM-16+0002KTEB V0200705N00265005795MN0160935N5+00105-00305999999ADDGA1075+005795999GD13991+0057959MA1102005101975REMMET08901/03/21 06:49:02 SPECI KTEB 031149Z 07005KT 10SM BKN019 01/M03 A3012 RMK AO2 $ FIBI (BR)
0276725025947412021010311517+40850-074061FM-15+0002KTEB V0200505N00215005795MN0160935N5+00065-00285102025ADDAA101000095GA1075+005795999GD13991+0057959GE19MSL   +99999+99999GF199999999999005791999999KA1060M+00171KA2060N-00061MA1102035102015MD1390059+9999REMMET11901/03/21 06:51:02 METAR KTEB 031151Z 05004KT 10SM BKN019 01/M03 A3013 RMK AO2 SLP202 T00061028 10017 21006 53005 $ (BR)
0218725025947412021010312517+40850-074061FM-15+0002KTEB V0200405N00265004885MN0160935N5+00115-00285102035ADDAA101000095GA1085+004885999GD14991+0048859GE19MSL   +99999+99999GF199999999999004881999999MA1102035102015REMMET10101/03/21 07:51:02 METAR KTEB 031251Z 04005KT 10SM OVC016 01/M03 A3013 RMK AO2 SLP203 T00111028 $ (DK)
0218725025947412021010313517+40850-074061FM-15+0002KTEB V0200205N00215005495MN0160935N5+00115-00285102075ADDAA101000095GA1085+005495999GD14991+0054959GE19MSL   +99999+99999GF199999999999005491999999MA1102075102045REMMET10101/03/21 08:51:02 METAR KTEB 031351Z 02004KT 10SM OVC018 01/M03 A3014 RMK AO2 SLP207 T00111028 $ (DK)
0238725025947412021010314517+40850-074061FM-15+0002KTEB V0200405N00365005185MN0160935N5+00175-00225102025ADDAA101000025GA1085+005185999GD14991+0051859GE19MSL   +99999+99999GF199999999999005181999999MA1102035102015MD1890019+9999REMMET10701/03/21 09:51:02 METAR KTEB 031451Z 04007KT 10SM OVC017 02/M02 A3013 RMK AO2 SLP202 T00171022 58001 $ (DK)
0297725025947412021010314597+40850-074061FM-16+0002KTEB V0200305N00265001835MN0032195N5+00115-00225999999ADDAA101000021AU110030015AU200001015AW1105AW2715ED106U13729GA1085+001835999GD14991+0018359GE19MSL   +99999+99999GF199999999999001831999999MA1102005101975MW1715REMMET12901/03/21 09:59:02 SPECI KTEB 031459Z 03005KT 2SM R06/4500VP6000FT -SN BR OVC006 01/M02 A3012 RMK AO2 SNB52 P0000 T00111022 $ (DK)
0237725025947412021010315496+40850-074061FM-16+0002KTEB V0203605N00365001525MN0096565N5+00105-00205999999ADDAU110020025AU220030035AU300001015AW1105AW2615AW3715GA1085+001525999GD14991+0015259MA1101865101845MW1615MW2715REMMET11601/03/21 10:49:02 SPECI KTEB 031549Z 36007KT 6SM -RASN BR OVC005 01/M02 A3008 RMK AO2 RAB07SNB1452 P0005 $ FIBI (DK)
0314725025947412021010315517+40850-074061FM-15+0002KTEB V0203605N00315001525MN0096565N5+00065-00175101865ADDAA101001595AU110020025AU220030035AU300001015AW1105AW2615AW3671AW4715GA1085+001525999GD14991+0015259GE19MSL   +99999+99999GF199999999999001521999999MA1101865101845MW1615MW2715REMMET12801/03/21 10:51:02 METAR KTEB 031551Z 36006KT 6SM -RASN BR OVC005 01/M02 A3008 RMK AO2 RAB07SNB1452 SLP186 P0005 T00061017 $ (DK)
0301725025947412021010316037+40850-074061FM-16+0002KTEB V0200105N00365004275MN0096565N5+00065-00175999999ADDAA101000231AU110030025AU220020035AU300001015AW1105AW2615AW3671AW4715GA1085+004275999GD14991+0042759GE19MSL   +99999+99999GF199999999999004271999999MA1101795101775MW1615MW2715REMMET11501/03/21 11:03:02 SPECI KTEB 031603Z 01007KT 6SM -SNRA BR OVC014 01/M02 A3006 RMK AO2 PRESFR P0001 T00061017 $ (DK)
0234725025947412021010316517+40850-074061FM-15+0002KTEB V0200305N00265004275MN0128755N5+00065-00175101625ADDAA101000025GA1085+004275999GD14991+0042759GE19MSL   +99999+99999GF199999999999004271999999MA1101635101605REMMET11701/03/21 11:51:02 METAR KTEB 031651Z 03005KT 8SM OVC014 01/M02 A3001 RMK AO2 RAE17SNE09 SLP162 P0001 T00061017 $ (DK)
0291725025947412021010317517+40850-074061FM-15+0002KTEB V0200405N00265003355MN0160935N5+00175-00065101495ADDAA101000095AA206001591GA1085+003355999GD14991+0033559GE19MSL   +99999+99999GF199999999999003351999999KA1060M+00171KA2060N+00061MA1101495101475MD1690539+9999REMMET12301/03/21 12:51:02 METAR KTEB 031751Z 04005KT 10SM OVC011 02/M01 A2997 RMK AO2 SLP149 60006 T00171006 10017 20006 56053 (DK)
0216725025947412021010318517+40850-074061FM-15+0002KTEB V0209999V00215003965MN0160935N5+00175-00065101475ADDAA101000095GA1085+003965999GD14991+0039659GE19MSL   +99999+99999GF199999999999003961999999MA1101495101475REMMET09901/03/21 13:51:02 METAR KTEB 031851Z VRB04KT 10SM OVC013 02/M01 A2997 RMK AO2 SLP147 T00171006 (DK)
0234725025947412021010319517+40850-074061FM-15+0002KTEB V0200705N00365003665MN0096565N5+00285+00005101445ADDAA101000095AU100001015AW1105GA1085+003665999GD14991+0036659GE19MSL   +99999+99999GF199999999999003661999999MA1101465101435REMMET10001/03/21 14:51:02 METAR KTEB 031951Z 07007KT 6SM BR OVC012 03/00 A2996 RMK AO2 SLP144 T00280000 (DK)
0276725025947412021010320137+40850-074061FM-16+0002KTEB V0200505N00365003665MN0032195N5+00285+00005999999ADDAA101000021AU110020015AU200001015AW1105AW2615GA1085+003665999GD14991+0036659GE19MSL   +99999+99999GF199999999999003661999999MA1101395101365MW1615REMMET11901/03/21 15:13:02 SPECI KTEB 032013Z 05007KT 2SM -RA BR OVC012 03/00 A2994 RMK AO2 SFC VIS 4 RAB05 P0000 T00280000 (MK)
0252725025947412021010320387+40850-074061FM-16+0002KTEB V0200505N00215001835MN0032195N5+00285+00005999999ADDAA101000021AU100001015AW1105GA1085+001835999GD14991+0018359GE19MSL   +99999+99999GF199999999999001831999999MA1101425101405REMMET11801/03/21 15:38:02 SPECI KTEB 032038Z 05004KT 2SM BR OVC006 03/00 A2995 RMK AO2 SFC VIS 3 RAB05E29 P0000 T00280000 (MK)
0315725025947412021010320517+40850-074061FM-15+0002KTEB V0200405N00365001835MN0032195N5+00225+00005101415ADDAA101000025AA203000021AU100001015AW1105GA1085+001835999GD14991+0018359GE19MSL   +99999+99999GF199999999999001831999999MA1101425101405MD1890089+9999REMMET13701/03/21 15:51:02 METAR KTEB 032051Z 04007KT 2SM BR OVC006 02/00 A2995 RMK AO2 SFC VIS 3 RAB05E29 SLP141 P0000 60000 T00220000 58008 (MK)EQDQ01  00008PRCP03
0283725025947412021010321517+40850-074061FM-15+0002KTEB V0209999V00265002135MN0032195N5+00225+00065101395ADDAA101000395AU110020015AU200001015AW1105AW2615GA1085+002135999GD14991+0021359GE19MSL   +99999+99999GF199999999999002131999999MA1101395101365MW1615REMMET12601/03/21 16:51:02 METAR KTEB 032151Z VRB05KT 2SM -RA BR OVC007 02/01 A2994 RMK AO2 SFC VIS 4 RAB12 SLP139 P0001 T00220006 (MK)
0267725025947412021010322517+40850-074061FM-15+0002KTEB V0200305N00415002745MN0032195N5+00225+00065101405ADDAA101000595AU110020015AU200001015AW1105AW2615GA1085+002745999GD14991+0027459GE19MSL   +99999+99999GF199999999999002741999999MA1101425101405MW1615REMMET11001/03/21 17:51:02 METAR KTEB 032251Z 03008KT 2SM -RA BR OVC009 02/01 A2995 RMK AO2 SLP140 P0001 T00220006 (MK)
0361725025947412021010323517+40850-074061FM-15+0002KTEB V0203605N00315001525MN0032195N5+00175+00065101475ADDAA101001395AA206002091AU110020015AU200001015AW1105AW2615GA1085+001525999GD14991+0015259GE19MSL   +99999+99999GF199999999999001521999999KA1060M+00281KA2060N+00171MA1101495101475MD1390069+9999MW1615REMMET13401/03/21 18:51:02 METAR KTEB 032351Z 36006KT 2SM -RA BR OVC005 02/01 A2997 RMK AO2 SLP147 P0006 60008 T00170006 10028 20017 53006 (MK)EQDQ01  00208PRCP06
0197725025947412021010400496+40850-074061FM-16+0002KTEB V0200205N00365003965MN0064375N5+00105-00105999999ADDAU110020015AU200001015AW1105AW2615GA1085+003965999GD14991+0039659MA1101495101475MW1615REMMET09901/03/21 19:49:03 SPECI KTEB 040049Z 02007KT 4SM -RA BR OVC013 01/M01 A2997 RMK AO2 P0002 FIBI (MK)
0263725025947412021010400517+40850-074061FM-15+0002KTEB V0200105N00465003965MN0064375N5+00115-00065101465ADDAA101000895AU110020015AU200001015AW1105AW2615GA1085+003965999GD14991+0039659GE19MSL   +99999+99999GF199999999999003961999999MA1101465101435MW1615REMMET10601/03/21 19:51:01 METAR KTEB 040051Z 01009KT 4SM -RA BR OVC013 01/M01 A2996 RMK AO2 SLP146 P0002 T00111006
0256725025947412021010401347+40850-074061FM-16+0002KTEB V0200305N00315002135MN0064375N5+00115-00065999999ADDAA101000231AU110020015AU200001015AW1105AW2615GA1085+002135999GD14991+0021359GE19MSL   +99999+99999GF199999999999002131999999MA1101425101405MW1615REMMET09901/03/21 20:34:01 SPECI KTEB 040134Z 03006KT 4SM -RA BR OVC007 01/M01 A2995 RMK AO2 P0001 T00111006
0272725025947412021010401517+40850-074061FM-15+0002KTEB V0200105N00265002135MN0064375N5+00115-00065101435ADDAA101000025AU110020015AU200001015AW1105AW2615GA1085+002135999GD14991+0021359GE19MSL   +99999+99999GF199999999999002131999999MA1101425101405MW1615REMMET11501/03/21 20:51:01 METAR KTEB 040151Z 01005KT 4SM -RA BR OVC007 01/M01 A2995 RMK AO2 UPB39E40 SLP143 P0001 T00111006
0298725025947412021010402517+40850-074061FM-15+0002KTEB V0200105N00215002445MN0128755N5+00175+00005101415ADDAA101000395AA203000891AU110020015AW1615GA1085+002445999GD14991+0024459GE19MSL   +99999+99999GF199999999999002441999999MA1101425101405MD1890079+9999MW1615REMMET11401/03/21 21:51:01 METAR KTEB 040251Z 01004KT 8SM -RA OVC008 02/00 A2995 RMK AO2 SLP141 P0000 60003 T00170000 58007EQDQ01  00078PRCP03
0242725025947412021010403517+40850-074061FM-15+0002KTEB V0200205N00215002135MN0128755N5+00225+00005101395ADDAA101000025AU110020015AW1615GA1085+002135999GD14991+0021359GE19MSL   +99999+99999GF199999999999002131999999MA1101395101365MW1615REMMET10201/03/21 22:51:01 METAR KTEB 040351Z 02004KT 8SM -RA OVC007 02/00 A2994 RMK AO2 SLP139 P0001 T00220000
0310725025947412021010404517+40850-074061FM-15+0002KTEB V0203605N00315002745MN0080475N5+00115+00005101385ADDAA101000395AU110020015AU200001015AW1105AW2615GA1085+002745999GD14991+0027451GE19MSL   +99999+99999GF199999999999002741999999KA1240M+00281KA2240N-00061MA1101395101365MW1615REMMET12701/03/21 23:51:02 METAR KTEB 040451Z 36006KT 5SM -RA BR OVC009 01/00 A2994 RMK AO2 CIG 006V012 SLP138 P0000 T00110000 400281006
0922725025947412021010404596+40850-074061SOD  +0002KTEB V020999999999999999999999999999+99999+99999999999ADDAA124004895AT1AU16RA  5AT2AU18SN  5AT3AU13BR  5KA1240M+00285KA2240N-00055MG1101714101354OE11240071505015065OE22240044703019245OE33240028299999995REMSOD73024 HR PRECIPITATION (IN):0.19  24 HR MAX TEMP (F):37 24 HR MAX TEMP TIME (LST):1556 24 HR MIN TEMP (F):31 24 HR MIN TEMP TIME (LST):0435 AVERAGE STATION PRESSURE:30.035 MINIMUM SEA LEVEL PRESSURE:29.93 TIME OF OCCURRENCE:2338 PEAK WIND SPEED (MPH):16  PEAK WIND DIR (DEG):50  PEAK WIND TIME (LST):1506  FASTEST 2MIN SPEED (MPH):10 FASTEST 2MIN DIR (DEG):30  FASTEST 2MIN TIME (LST):1924 AVERAGE WIND SPEED (MPH):6.3  24 HR AVG TEMP (F):34 HEATING DEGREE DAYS:31  COOLING DEGREE DAYS:0   LATEST DAY MAX TEMP (0700-1900 LST):37  LATEST NIGHT MIN TEMP(1900-0800 LST):31 HOURLY INCREMENTAL PRECIPITATION VALUES (IN):.00 0.00 0.00 0.00 0.00 0.00 0.00 0.00 0.00 T    0.06 T    0.00 0.00 0.00 T    0.01 0.02 0.05 0.03 T    0.01 T    0.01EQDR01     N7GJS072R02     N7GKS075
0362725025947412021010405517+40850-074061FM-15+0002KTEB V0203405N00265002745MN0048285N5+00115-00065101405ADDAA101000595AA206001591AU110020015AU200001015AW1105AW2615GA1085+002745999GD14991+0027459GE19MSL   +99999+99999GF199999999999002741999999KA1060M+00221KA2060N+00111MA1101395101365MD1590019+9999MW1615REMMET13501/04/21 00:51:02 METAR KTEB 040551Z 34005KT 3SM -RA BR OVC009 01/M01 A2994 RMK AO2 SLP140 P0002 60006 T00111006 10022 20011 55001 (SW)EQDQ01  00158PRCP06
0250725025947412021010406496+40850-074061FM-16+0002KTEB V0203605N00315002135MN0040235N5+00105-00105999999ADDAU110030015AU200001015AW1105AW2715GA1075+002135999GA2085+010065999GD13991+0021359GD24991+0100659MA1101425101405MW1715REMMET12101/04/21 01:49:02 SPECI KTEB 040649Z 36006KT 2 1/2SM -SN BR BKN007 OVC033 01/M01 A2995 RMK AO2 RAE47SNB47 P0002 FIBI (SW)
0321725025947412021010406517+40850-074061FM-15+0002KTEB V0203505N00265002135MN0040235N5+00115-00065101425ADDAA101000395AU110030015AU200001015AW1105AW2715GA1075+002135999GA2085+010675999GD13991+0021359GD24991+0106759GE19MSL   +99999+99999GF199999999999002131999999MA1101425101405MW1715REMMET13301/04/21 01:51:02 METAR KTEB 040651Z 35005KT 2 1/2SM -SN BR BKN007 OVC035 01/M01 A2995 RMK AO2 RAE47SNB47 SLP142 P0002 T00111006 (SW)
0292725025947412021010407496+40850-074061FM-16+0002KTEB V0200105N00265027435MN0080475N5+00105-00105999999ADDAU110010015AU200001015AW1105AW2515GA1025+002135999GA2045+014945999GA3085+027435999GD11991+0021359GD22991+0149459GD34991+0274359MA1101465101435MW1515REMMET13201/04/21 02:49:02 SPECI KTEB 040749Z 01005KT 5SM -DZ BR FEW007 SCT049 OVC090 01/M01 A2996 RMK AO2 RAB15E47DZB47SNE15 P0000 FIBI (SW)
0363725025947412021010407517+40850-074061FM-15+0002KTEB V0200105N00215027435MN0080475N5+00115-00065101445ADDAA101000025AU110010015AU200001015AW1105AW2515GA1025+002135999GA2045+014335999GA3085+027435999GD11991+0021359GD22991+0143359GD34991+0274359GE19MSL   +99999+99999GF199999999999002131999999MA1101465101435MW1515REMMET14401/04/21 02:51:02 METAR KTEB 040751Z 01004KT 5SM -DZ BR FEW007 SCT047 OVC090 01/M01 A2996 RMK AO2 RAB15E47DZB47SNE15 SLP144 P0000 T00111006 (SW)
0303725025947412021010408517+40850-074061FM-15+0002KTEB V0203605N00265013725MN0096565N5+00115-00065101425ADDAA101000025AA203000591AU100001015AW1105GA1085+013725999GD14991+0137259GE19MSL   +99999+99999GF199999999999013721999999MA1101425101405MD1090039+9999REMMET12501/04/21 03:51:02 METAR KTEB 040851Z 36005KT 6SM BR OVC045 01/M01 A2995 RMK AO2 DZE48 SLP142 P0000 60002 T00111006 50003 (SW)EQDQ01  00058PRCP03
0254725025947412021010409517+40850-074061FM-15+0002KTEB V0203505N00315022865MN0160935N5+00115-00065101415ADDAA101000095GA1025+014335999GA2085+022865999GD11991+0143359GD24991+0228659GE19MSL   +99999+99999GF199999999999014331999999MA1101425101405REMMET10601/04/21 04:51:02 METAR KTEB 040951Z 35006KT 10SM FEW047 OVC075 01/M01 A2995 RMK AO2 SLP141 T00111006 (SW)
0216725025947412021010410517+40850-074061FM-15+0002KTEB V0203405N00215021345MN0160935N5+00115-00065101475ADDAA101000095GA1085+021345999GD14991+0213459GE19MSL   +99999+99999GF199999999999021341999999MA1101495101475REMMET09901/04/21 05:51:02 METAR KTEB 041051Z 34004KT 10SM OVC070 01/M01 A2997 RMK AO2 SLP147 T00111006 (SW)
0365725025947412021010411517+40850-074061FM-15+0002KTEB V0203205N00215014025MN0160935N5+00115-00065101555ADDAA101000095AA206000591AA324005691GA1075+014025999GA2085+021345999GD13991+0140259GD24991+0213459GE19MSL   +99999+99999GF199999999999014021999999KA1060M+00171KA2060N+00061MA1101565101535MD1390129+9999REMMET13601/04/21 06:51:02 METAR KTEB 041151Z 32004KT 10SM BKN046 OVC070 01/M01 A2999 RMK AO2 SLP155 60002 70022 T00111006 10017 20006 53012 (SW)EQDQ01  00558PRCP24
0198725025947412021010412297+40850-074061FM-16+0002KTEB V0203305N00155007625MN0160935N5+00175-00065999999ADDGA1085+007625999GD14991+0076259GE19MSL   +99999+99999GF199999999999007621999999MA1101595101575REMMET09201/04/21 07:29:02 SPECI KTEB 041229Z 33003KT 10SM OVC025 02/M01 A3000 RMK AO2 T00171006 (DK)
0183725025947412021010412496+40850-074061FM-16+0002KTEB V0203505N00215003965MN0160935N5+00205-00105999999ADDGA1075+003965999GA2085+011285999GD13991+0039659GD24991+0112859MA1101595101575REMMET09401/04/21 07:49:02 SPECI KTEB 041249Z 35004KT 10SM BKN013 OVC037 02/M01 A3000 RMK AO2 FIBI (DK)
0254725025947412021010412517+40850-074061FM-15+0002KTEB V0203505N00215003965MN0160935N5+00175-00065101605ADDAA101000095GA1075+003965999GA2085+011285999GD13991+0039659GD24991+0112859GE19MSL   +99999+99999GF199999999999003961999999MA1101635101605REMMET10601/04/21 07:51:02 METAR KTEB 041251Z 35004KT 10SM BKN013 OVC037 02/M01 A3001 RMK AO2 SLP160 T00171006 (DK)
0167725025947412021010413496+40850-074061FM-16+0002KTEB V0203305N00215011895MN0160935N5+00205+00005999999ADDGA1085+011895999GD14991+0118959MA1101665101645REMMET10901/04/21 08:49:02 SPECI KTEB 041349Z 33004KT 10SM OVC039 02/00 A3002 RMK AO2 UPB04E05RAB05E46 P0000 FIBI (DK)
0276725025947412021010413517+40850-074061FM-15+0002KTEB V0203205N00315011895MN0160935N5+00225+00005101665ADDAA101000025GA1045+003965999GA2085+011895999GD12991+0039659GD24991+0118959GE19MSL   +99999+99999GF199999999999003961999999MA1101665101645REMMET12801/04/21 08:51:02 METAR KTEB 041351Z 32006KT 10SM SCT013 OVC039 02/00 A3002 RMK AO2 UPB04E05RAB05E46 SLP166 P0000 T00220000 (DK)
0290725025947412021010414517+40850-074061FM-15+0002KTEB V0200205N00215018295MN0160935N5+00285+00005101615ADDAA101000095AA203000021GA1025+010065999GA2085+018295999GD11991+0100659GD24991+0182959GE19MSL   +99999+99999GF199999999999010061999999MA1101635101605MD1090069+9999REMMET11701/04/21 09:51:02 METAR KTEB 041451Z 02004KT 10SM FEW033 OVC060 03/00 A3001 RMK AO2 SLP161 60000 T00280000 50006 (DK)
0234725025947412021010415517+40850-074061FM-15+0002KTEB V0203605N003152200059N0160935N5+00445+00065101565ADDAA101000095GA1025+004575999GD11991+0045759GE19AGL   +99999+99999GF102995999999004571999999MA1101565101535REMMET09801/04/21 10:51:02 METAR KTEB 041551Z 36006KT 10SM FEW015 04/01 A2999 RMK AO2 SLP156 T00440006 (DK)EQDD01      0ADE726
0234725025947412021010416517+40850-074061FM-15+0002KTEB V0209999V001552200059N0160935N5+00565+00065101435ADDAA101000095GA1025+005795999GD11991+0057959GE19AGL   +99999+99999GF102995999999005791999999MA1101465101435REMMET09801/04/21 11:51:02 METAR KTEB 041651Z VRB03KT 10SM FEW019 06/01 A2996 RMK AO2 SLP143 T00560006 (DK)EQDD01      0ADE726
0144725025947412021010417496+40850-074061FM-16+0002KTEB V0200405N00265006715MN0160935N5+00605+00105999999ADDGA1075+006715999GD13991+0067159MA1101395101365REMMET08601/04/21 12:49:02 SPECI KTEB 041749Z 04005KT 10SM BKN022 06/01 A2994 RMK AO2 FIBI (DK)
0290725025947412021010417517+40850-074061FM-15+0002KTEB V0200405N00365006715MN0160935N5+00565+00065101395ADDAA101000095AA206000021GA1075+006715999GD13991+0067159GE19MSL   +99999+99999GF199999999999006711999999KA1060M+00611KA2060N+00111MA1101395101365MD1690229+9999REMMET12201/04/21 12:51:02 METAR KTEB 041751Z 04007KT 10SM BKN022 06/01 A2994 RMK AO2 SLP139 60000 T00560006 10061 20011 56022 (DK)
0215725025947412021010418517+40850-074061FM-15+0002KTEB V0200305N00315007625MN0160935N5+00505+00065101385ADDAA101000095GA1085+007625999GD14991+0076259GE19MSL   +99999+99999GF199999999999007621999999MA1101395101365REMMET09801/04/21 13:51:02 METAR KTEB 041851Z 03006KT 10SM OVC025 05/01 A2994 RMK AO2 SLP138 T00500006 (DK)
0182725025947412021010419496+40850-074061FM-16+0002KTEB V0203605N00315009455MN0160935N5+00405+00005999999ADDGA1045+007625999GA2085+009455999GD12991+0076259GD24991+0094559MA1101465101435REMMET09301/04/21 14:49:02 SPECI KTEB 041949Z 36006KT 10SM SCT025 OVC031 04/00 A2996 RMK AO2 FIBI (DK)
0253725025947412021010419517+40850-074061FM-15+0002KTEB V0203305N00315009455MN0160935N5+00505+00005101445ADDAA101000095GA1045+007625999GA2085+009455999GD12991+0076259GD24991+0094559GE19MSL   +99999+99999GF199999999999007621999999MA1101465101435REMMET10501/04/21 14:51:02 METAR KTEB 041951Z 33006KT 10SM SCT025 OVC031 05/00 A2996 RMK AO2 SLP144 T00500000 (DK)
0145725025947412021010420496+40850-074061FM-16+0002KTEB V0200205N00315008535MN0160935N5+00405-00105999999ADDGA1075+008535999GD13991+0085359MA1101425101405REMMET08701/04/21 15:49:02 SPECI KTEB 042049Z 02006KT 10SM BKN028 04/M01 A2995 RMK AO2 FIBI (MK)
0236725025947412021010420517+40850-074061FM-15+0002KTEB V0200205N00265008535MN0160935N5+00445-00065101435ADDAA101000095GA1075+008535999GD13991+0085359GE19MSL   +99999+99999GF199999999999008531999999MA1101425101405MD1390049+9999REMMET10501/04/21 15:51:02 METAR KTEB 042051Z 02005KT 10SM BKN028 04/M01 A2995 RMK AO2 SLP143 T00441006 53004 (MK)
0216725025947412021010421517+40850-074061FM-15+0002KTEB V0200205N00265008535MN0160935N5+00395-00065101455ADDAA101000095GA1075+008535999GD13991+0085359GE19MSL   +99999+99999GF199999999999008531999999MA1101465101435REMMET09901/04/21 16:51:02 METAR KTEB 042151Z 02005KT 10SM BKN028 04/M01 A2996 RMK AO2 SLP145 T00391006 (MK)
0145725025947412021010422496+40850-074061FM-16+0002KTEB V0200205N00215014335MN0160935N5+00405-00105999999ADDGA1085+014335999GD14991+0143359MA1101425101405REMMET08701/04/21 17:49:02 SPECI KTEB 042249Z 02004KT 10SM OVC047 04/M01 A2995 RMK AO2 FIBI (MK)
0216725025947412021010422517+40850-074061FM-15+0002KTEB V0200405N00215014335MN0160935N5+00395-00065101435ADDAA101000095GA1085+014335999GD14991+0143359GE19MSL   +99999+99999GF199999999999014331999999MA1101425101405REMMET09901/04/21 17:51:02 METAR KTEB 042251Z 04004KT 10SM OVC047 04/M01 A2995 RMK AO2 SLP143 T00391006 (MK)
0312725025947412021010423517+40850-074061FM-15+0002KTEB V0200105N00265014025MN0160935N5+00395-00065101465ADDAA101000095GA1025+009145999GA2085+014025999GD11991+0091459GD24991+0140259GE19MSL   +99999+99999GF199999999999009141999999KA1060M+00561KA2060N+00391MA1101465101435MD1390039+9999REMMET12401/04/21 18:51:02 METAR KTEB 042351Z 01005KT 10SM FEW030 OVC046 04/M01 A2996 RMK AO2 SLP146 T00391006 10056 20039 53003 (MK)
0211725025947412021010500517+40850-074061FM-15+0002KTEB V0200305N00155014025MN0160935N5+00335-00065101445ADDAA101000095GA1085+014025999GD14991+0140259GE19MSL   +99999+99999GF199999999999014021999999MA1101465101435REMMET09401/04/21 19:51:01 METAR KTEB 050051Z 03003KT 10SM OVC046 03/M01 A2996 RMK AO2 SLP144 T00331006
0211725025947412021010501517+40850-074061FM-15+0002KTEB V0200205N00315014025MN0160935N5+00335-00065101435ADDAA101000095GA1085+014025999GD14991+0140259GE19MSL   +99999+99999GF199999999999014021999999MA1101425101405REMMET09401/04/21 20:51:01 METAR KTEB 050151Z 02006KT 10SM OVC046 03/M01 A2995 RMK AO2 SLP143 T00331006
0269725025947412021010502517+40850-074061FM-15+0002KTEB V0200105N00315013725MN0160935N5+00285-00065101415ADDAA101000095GA1045+005185999GA2085+013725999GD12991+0051859GD24991+0137259GE19MSL   +99999+99999GF199999999999005181999999MA1101425101405MD1890049+9999REMMET10701/04/21 21:51:01 METAR KTEB 050251Z 01006KT 10SM SCT017 OVC045 03/M01 A2995 RMK AO2 SLP141 T00281006 58004
0211725025947412021010503517+40850-074061FM-15+0002KTEB V0203605N00215013725MN0160935N5+00285-00065101385ADDAA101000095GA1085+013725999GD14991+0137259GE19MSL   +99999+99999GF199999999999013721999999MA1101395101365REMMET09401/04/21 22:51:01 METAR KTEB 050351Z 36004KT 10SM OVC045 03/M01 A2994 RMK AO2 SLP138 T00281006
0247725025947412021010504517+40850-074061FM-15+0002KTEB V0203505N00265015245MN0160935N5+00285-00065101335ADDAA101000095GA1085+015245999GD14991+0152459GE19MSL   +99999+99999GF199999999999015241999999KA1240M+00611KA2240N+00061MA1101355101335REMMET10401/04/21 23:51:02 METAR KTEB 050451Z 35005KT 10SM OVC050 03/M01 A2993 RMK AO2 SLP133 T00281006 400610006
0934725025947412021010504596+40850-074061SOD  +0002KTEB V020999999999999999999999999999+99999+99999999999ADDAA124000895AT1AU16RA  5AT2AU14DZ  5AT3AU18SN  5AT4AU13BR  5KA1240M+00615KA2240N+00065MG1101414101324OE11240080536014095OE22240058135014105OE33240025599999995REMSOD73024 HR PRECIPITATION (IN):0.03  24 HR MAX TEMP (F):43 24 HR MAX TEMP TIME (LST):1240 24 HR MIN TEMP (F):33 24 HR MIN TEMP TIME (LST):0226 AVERAGE STATION PRESSURE:29.945 MINIMUM SEA LEVEL PRESSURE:29.92 TIME OF OCCURRENCE:2359 PEAK WIND SPEED (MPH):18  PEAK WIND DIR (DEG):360 PEAK WIND TIME (LST):1409  FASTEST 2MIN SPEED (MPH):13 FASTEST 2MIN DIR (DEG):350 FASTEST 2MIN TIME (LST):1410 AVERAGE WIND SPEED (MPH):5.7  24 HR AVG TEMP (F):38 HEATING DEGREE DAYS:27  COOLING DEGREE DAYS:0   LATEST DAY MAX TEMP (0700-1900 LST):43  LATEST NIGHT MIN TEMP(1900-0800 LST):33 HOURLY INCREMENTAL PRECIPITATION VALUES (IN):.02 0.01 T    T    0.00 0.00 0.00 0.00 T    0.00 0.00 0.00 0.00 0.00 0.00 0.00 0.00 0.00 0.00 0.00 0.00 0.00 0.00 0.00EQDR01     N7GJS072R02     N7GKS075
0312725025947412021010505517+40850-074061FM-15+0002KTEB V0203505N00265015245MN0160935N5+00285-00065101315ADDAA101000095GA1045+003965999GA2085+015245999GD12991+0039659GD24991+0152459GE19MSL   +99999+99999GF199999999999003961999999KA1060M+00391KA2060N+00281MA1101325101305MD1690109+9999REMMET12401/05/21 00:51:02 METAR KTEB 050551Z 35005KT 10SM SCT013 OVC050 03/M01 A2992 RMK AO2 SLP131 T00281006 10039 20028 56010 (BR)
0254725025947412021010506517+40850-074061FM-15+0002KTEB V0203605N00215012505MN0160935N5+00225-00115101325ADDAA101000095GA1075+012505999GA2085+015245999GD13991+0125059GD24991+0152459GE19MSL   +99999+99999GF199999999999012501999999MA1101325101305REMMET10601/05/21 01:51:02 METAR KTEB 050651Z 36004KT 10SM BKN041 OVC050 02/M01 A2992 RMK AO2 SLP132 T00221011 (BR)
0216725025947412021010507517+40850-074061FM-15+0002KTEB V0203505N00215012505MN0160935N5+00225-00115101345ADDAA101000095GA1085+012505999GD14991+0125059GE19MSL   +99999+99999GF199999999999012501999999MA1101355101335REMMET09901/05/21 02:51:02 METAR KTEB 050751Z 35004KT 10SM OVC041 02/M01 A2993 RMK AO2 SLP134 T00221011 (BR)
0236725025947412021010508517+40850-074061FM-15+0002KTEB V0200305N00155012505MN0160935N5+00225-00115101335ADDAA101000095GA1085+012505999GD14991+0125059GE19MSL   +99999+99999GF199999999999012501999999MA1101355101335MD1090029+9999REMMET10501/05/21 03:51:02 METAR KTEB 050851Z 03003KT 10SM OVC041 02/M01 A2993 RMK AO2 SLP133 T00221011 50002 (BR)
0216725025947412021010509517+40850-074061FM-15+0002KTEB V0200205N00265012195MN0160935N5+00225-00175101335ADDAA101000095GA1085+012195999GD14991+0121959GE19MSL   +99999+99999GF199999999999012191999999MA1101325101305REMMET09901/05/21 04:51:02 METAR KTEB 050951Z 02005KT 10SM OVC040 02/M02 A2992 RMK AO2 SLP133 T00221017 (BR)
0216725025947412021010510517+40850-074061FM-15+0002KTEB V0200105N00265011895MN0160935N5+00225-00175101355ADDAA101000095GA1085+011895999GD14991+0118959GE19MSL   +99999+99999GF199999999999011891999999MA1101355101335REMMET09901/05/21 05:51:02 METAR KTEB 051051Z 01005KT 10SM OVC039 02/M02 A2993 RMK AO2 SLP135 T00221017 (BR)
0276725025947412021010511517+40850-074061FM-15+0002KTEB V0200305N00265011895MN0160935N5+00225-00175101355ADDAA101000095GA1085+011895999GD14991+0118959GE19MSL   +99999+99999GF199999999999011891999999KA1060M+00281KA2060N+00171MA1101355101335MD1390029+9999REMMET11901/05/21 06:51:02 METAR KTEB 051151Z 03005KT 10SM OVC039 02/M02 A2993 RMK AO2 SLP135 T00221017 10028 20017 53002 $ (BR)
0218725025947412021010512517+40850-074061FM-15+0002KTEB V0200205N00315012195MN0160935N5+00225-00175101365ADDAA101000095GA1085+012195999GD14991+0121959GE19MSL   +99999+99999GF199999999999012191999999MA1101355101335REMMET10101/05/21 07:51:02 METAR KTEB 051251Z 02006KT 10SM OVC040 02/M02 A2993 RMK AO2 SLP136 T00221017 $ (DK)
0218725025947412021010513517+40850-074061FM-15+0002KTEB V0200205N00215013115MN0160935N5+00225-00175101395ADDAA101000095GA1085+013115999GD14991+0131159GE19MSL   +99999+99999GF199999999999013111999999MA1101395101365REMMET10101/05/21 08:51:02 METAR KTEB 051351Z 02004KT 10SM OVC043 02/M02 A2994 RMK AO2 SLP139 T00221017 $ (DK)
0276725025947412021010514517+40850-074061FM-15+0002KTEB V0200105N00265012805MN0160935N5+00285-00115101355ADDAA101000095GA1025+008535999GA2085+012805999GD11991+0085359GD24991+0128059GE19MSL   +99999+99999GF199999999999008531999999MA1101355101335MD1090009+9999REMMET11401/05/21 09:51:02 METAR KTEB 051451Z 01005KT 10SM FEW028 OVC042 03/M01 A2993 RMK AO2 SLP135 T00281011 50000 $ (DK)
0256725025947412021010515517+40850-074061FM-15+0002KTEB V0209999V00155013415MN0160935N5+00395-00115101305ADDAA101000095GA1025+010675999GA2085+013415999GD11991+0106759GD24991+0134159GE19MSL   +99999+99999GF199999999999010671999999MA1101325101305REMMET10801/05/21 10:51:02 METAR KTEB 051551Z VRB03KT 10SM FEW035 OVC044 04/M01 A2992 RMK AO2 SLP130 T00391011 $ (DK)
0185725025947412021010516496+40850-074061FM-16+0002KTEB V0209999V00155008535MN0160935N5+00405-00205999999ADDGA1075+008535999GA2085+010065999GD13991+0085359GD24991+0100659MA1101225101205REMMET09601/05/21 11:49:02 SPECI KTEB 051649Z VRB03KT 10SM BKN028 OVC033 04/M02 A2989 RMK AO2 $ FIBI (DK)
0256725025947412021010516517+40850-074061FM-15+0002KTEB V0200305N00155008535MN0160935N5+00445-00175101215ADDAA101000095GA1075+008535999GA2085+010065999GD13991+0085359GD24991+0100659GE19MSL   +99999+99999GF199999999999008531999999MA1101225101205REMMET10801/05/21 11:51:02 METAR KTEB 051651Z 03003KT 10SM BKN028 OVC033 04/M02 A2989 RMK AO2 SLP121 T00441017 $ (DK)
0147725025947412021010517496+40850-074061FM-16+0002KTEB V0203405N00215009145MN0160935N5+00405-00205999999ADDGA1085+009145999GD14991+0091459MA1101155101135REMMET08901/05/21 12:49:02 SPECI KTEB 051749Z 34004KT 10SM OVC030 04/M02 A2987 RMK AO2 $ FIBI (DK)
0276725025947412021010517517+40850-074061FM-15+0002KTEB V0203405N00265009145MN0160935N5+00445-00175101145ADDAA101000095GA1085+009145999GD14991+0091459GE19MSL   +99999+99999GF199999999999009141999999KA1060M+00441KA2060N+00221MA1101155101135MD1890219+9999REMMET11901/05/21 12:51:02 METAR KTEB 051751Z 34005KT 10SM OVC030 04/M02 A2987 RMK AO2 SLP114 T00441017 10044 20022 58021 $ (DK)
0256725025947412021010518517+40850-074061FM-15+0002KTEB V0200505N00315011285MN0160935N5+00445-00175101145ADDAA101000095GA1025+008845999GA2085+011285999GD11991+0088459GD24991+0112859GE19MSL   +99999+99999GF199999999999008841999999MA1101155101135REMMET10801/05/21 13:51:02 METAR KTEB 051851Z 05006KT 10SM FEW029 OVC037 04/M02 A2987 RMK AO2 SLP114 T00441017 $ (DK)
0218725025947412021010519517+40850-074061FM-15+0002KTEB V0203605N00215009755MN0160935N5+00445-00175101195ADDAA101000095GA1085+009755999GD14991+0097559GE19MSL   +99999+99999GF199999999999009751999999MA1101195101165REMMET10101/05/21 14:51:02 METAR KTEB 051951Z 36004KT 10SM OVC032 04/M02 A2988 RMK AO2 SLP119 T00441017 $ (DK)
0238725025947412021010520517+40850-074061FM-15+0002KTEB V0203305N00415010975MN0160935N5+00395-00175101225ADDAA101000095GA1085+010975999GD14991+0109759GE19MSL   +99999+99999GF199999999999010971999999MA1101225101205MD1390079+9999REMMET10701/05/21 15:51:02 METAR KTEB 052051Z 33008KT 10SM OVC036 04/M02 A2989 RMK AO2 SLP122 T00391017 53007 $ (CG)
0218725025947412021010521517+40850-074061FM-15+0002KTEB V0203405N00315008845MN0160935N5+00395-00175101265ADDAA101000095GA1085+008845999GD14991+0088459GE19MSL   +99999+99999GF199999999999008841999999MA1101255101235REMMET10101/05/21 16:51:02 METAR KTEB 052151Z 34006KT 10SM OVC029 04/M02 A2990 RMK AO2 SLP126 T00391017 $ (CG)
0200725025947412021010522377+40850-074061FM-16+0002KTEB V0200205N00265009145MN0160935N5+00395-00175999999ADDGA1085+009145999GD14991+0091459GE19MSL   +99999+99999GF199999999999009141999999MA1101325101305REMMET09401/05/21 17:37:02 SPECI KTEB 052237Z 02005KT 10SM OVC030 04/M02 A2992 RMK AO2 T00391017 $ (CG)
0218725025947412021010522517+40850-074061FM-15+0002KTEB V0200305N00315009755MN0160935N5+00395-00175101325ADDAA101000095GA1085+009755999GD14991+0097559GE19MSL   +99999+99999GF199999999999009751999999MA1101325101305REMMET10101/05/21 17:51:02 METAR KTEB 052251Z 03006KT 10SM OVC032 04/M02 A2992 RMK AO2 SLP132 T00391017 $ (CG)
0276725025947412021010523517+40850-074061FM-15+0002KTEB V0203405N00365010065MN0160935N5+00335-00115101365ADDAA101000095GA1085+010065999GD14991+0100659GE19MSL   +99999+99999GF199999999999010061999999KA1060M+00441KA2060N+00331MA1101355101335MD1290159+9999REMMET11901/05/21 18:51:02 METAR KTEB 052351Z 34007KT 10SM OVC033 03/M01 A2993 RMK AO2 SLP136 T00331011 10044 20033 52015 $ (CG)
0213725025947412021010600517+40850-074061FM-15+0002KTEB V0203405N00215010065MN0160935N5+00335-00115101385ADDAA101000095GA1085+010065999GD14991+0100659GE19MSL   +99999+99999GF199999999999010061999999MA1101395101365REMMET09601/05/21 19:51:01 METAR KTEB 060051Z 34004KT 10SM OVC033 03/M01 A2994 RMK AO2 SLP138 T00331011 $
0147725025947412021010601496+40850-074061FM-16+0002KTEB V0203605N00365008535MN0160935N5+00305-00205999999ADDGA1085+008535999GD14991+0085359MA1101355101335REMMET08901/05/21 20:49:03 SPECI KTEB 060149Z 36007KT 10SM OVC028 03/M02 A2993 RMK AO2 $ FIBI (CG)
0213725025947412021010601517+40850-074061FM-15+0002KTEB V0203505N00415008535MN0160935N5+00335-00175101365ADDAA101000095GA1085+008535999GD14991+0085359GE19MSL   +99999+99999GF199999999999008531999999MA1101355101335REMMET09601/05/21 20:51:01 METAR KTEB 060151Z 35008KT 10SM OVC028 03/M02 A2993 RMK AO2 SLP136 T00331017 $
0147725025947412021010602496+40850-074061FM-16+0002KTEB V0203605N00215010675MN0160935N5+00305-00205999999ADDGA1075+010675999GD13991+0106759MA1101355101335REMMET08901/05/21 21:49:03 SPECI KTEB 060249Z 36004KT 10SM BKN035 03/M02 A2993 RMK AO2 $ FIBI (CG)
0233725025947412021010602517+40850-074061FM-15+0002KTEB V0203505N00265010675MN0160935N5+00285-00225101345ADDAA101000095GA1075+010675999GD13991+0106759GE19MSL   +99999+99999GF199999999999010671999999MA1101355101335MD1890029+9999REMMET10201/05/21 21:51:01 METAR KTEB 060251Z 35005KT 10SM BKN035 03/M02 A2993 RMK AO2 SLP134 T00281022 58002 $
0213725025947412021010603517+40850-074061FM-15+0002KTEB V0203505N00365011285MN0160935N5+00225-00225101335ADDAA101000095GA1085+011285999GD14991+0112859GE19MSL   +99999+99999GF199999999999011281999999MA1101355101335REMMET09601/05/21 22:51:01 METAR KTEB 060351Z 35007KT 10SM OVC037 02/M02 A2993 RMK AO2 SLP133 T00221022 $
0306725025947412021010604517+40850-074061FM-15+0002KTEB V0203205N002152200059N0160935N5+00175-00225101335ADDAA101000095GA1045+006405999GA2045+011285999GD12991+0064059GD22991+0112859GE19AGL   +99999+99999GF104995999999006401999999KA1240M+00441KA2240N+00171MA1101355101335REMMET11301/05/21 23:51:02 METAR KTEB 060451Z 32004KT 10SM SCT021 SCT037 02/M02 A2993 RMK AO2 SLP133 T00171022 400440017 $EQDD01      0ADE726
0886725025947412021010604596+40850-074061SOD  +0002KTEB V020999999999999999999999999999+99999+99999999999ADDAA124000095KA1240M+00445KA2240N+00115MG1101254101124OE11240080535020305OE22240058136020315OE33240025999999995REMSOD73024 HR PRECIPITATION (IN):0.00  24 HR MAX TEMP (F):40 24 HR MAX TEMP TIME (LST):1528 24 HR MIN TEMP (F):34 24 HR MIN TEMP TIME (LST):2359 AVERAGE STATION PRESSURE:29.900 MINIMUM SEA LEVEL PRESSURE:29.86 TIME OF OCCURRENCE:1330 PEAK WIND SPEED (MPH):18  PEAK WIND DIR (DEG):350 PEAK WIND TIME (LST):2030  FASTEST 2MIN SPEED (MPH):13 FASTEST 2MIN DIR (DEG):360 FASTEST 2MIN TIME (LST):2031 AVERAGE WIND SPEED (MPH):5.8  24 HR AVG TEMP (F):37 HEATING DEGREE DAYS:28  COOLING DEGREE DAYS:0   LATEST DAY MAX TEMP (0700-1900 LST):40  LATEST NIGHT MIN TEMP(1900-0800 LST):35 HOURLY INCREMENTAL PRECIPITATION VALUES (IN):.00 0.00 0.00 0.00 0.00 0.00 0.00 0.00 0.00 0.00 0.00 0.00 0.00 0.00 0.00 0.00 0.00 0.00 0.00 0.00 0.00 0.00 0.00 0.00EQDR01     N7GJS072R02     N7GKS075
0314725025947412021010605517+40850-074061FM-15+0002KTEB V0203305N00155011285MN0160935N5+00175-00175101355ADDAA101000095GA1045+006405999GA2075+011285999GD12991+0064059GD23991+0112859GE19MSL   +99999+99999GF199999999999006401999999KA1060M+00331KA2060N+00111MA1101355101335MD1390019+9999REMMET12601/06/21 00:51:02 METAR KTEB 060551Z 33003KT 10SM SCT021 BKN037 02/M02 A2993 RMK AO2 SLP135 T00171017 10033 20011 53001 $ (SW)
0237725025947412021010606517+40850-074061FM-15+0002KTEB V0209999C000052200059N0160935N5+00115-00225101385ADDAA101000095GA1025+006105999GD11991+0061059GE19AGL   +99999+99999GF102995999999006101999999MA1101395101365REMMET10101/06/21 01:51:02 METAR KTEB 060651Z 00000KT 10SM FEW020 01/M02 A2994 RMK AO2 SLP138 T00111022 $ (SW)EQDD01      0ADE726
0200725025947412021010607177+40850-074061FM-16+0002KTEB V0209999C00005006715MN0160935N5+00065-00225999999ADDGA1075+006715999GD13991+0067159GE19MSL   +99999+99999GF199999999999006711999999MA1101395101365REMMET09401/06/21 02:17:02 SPECI KTEB 060717Z 00000KT 10SM BKN022 01/M02 A2994 RMK AO2 T00061022 $ (SW)
0228725025947412021010607467+40850-074061FM-16+0002KTEB V0203105N00215010975MN0160935N5+00105-00205999999ADDGA1045+007015999GA2085+010975999GD12991+0070159GD24991+0109759GE19MSL   +99999+99999GF199999999999007011999999MA1101395101365REMMET09101/06/21 02:46:02 SPECI KTEB 060746Z 31004KT 10SM SCT023 OVC036 01/M02 A2994 RMK AO2 $ (SW)
0256725025947412021010607517+40850-074061FM-15+0002KTEB V0203305N00155010975MN0160935N5+00115-00175101395ADDAA101000095GA1025+007325999GA2085+010975999GD11991+0073259GD24991+0109759GE19MSL   +99999+99999GF199999999999007321999999MA1101395101365REMMET10801/06/21 02:51:02 METAR KTEB 060751Z 33003KT 10SM FEW024 OVC036 01/M02 A2994 RMK AO2 SLP139 T00111017 $ (SW)
0238725025947412021010608517+40850-074061FM-15+0002KTEB V0203305N00215011895MN0160935N5+00115-00175101385ADDAA101000095GA1085+011895999GD14991+0118959GE19MSL   +99999+99999GF199999999999011891999999MA1101395101365MD1090009+9999REMMET10701/06/21 03:51:02 METAR KTEB 060851Z 33004KT 10SM OVC039 01/M02 A2994 RMK AO2 SLP138 T00111017 50000 $ (SW)
0256725025947412021010609517+40850-074061FM-15+0002KTEB V0203205N00215030485MN0160935N5+00115-00175101375ADDAA101000095GA1045+011895999GA2085+030485999GD12991+0118959GD24991+0304859GE19MSL   +99999+99999GF199999999999011891999999MA1101395101365REMMET10801/06/21 04:51:02 METAR KTEB 060951Z 32004KT 10SM SCT039 OVC100 01/M02 A2994 RMK AO2 SLP137 T00111017 $ (SW)
0218725025947412021010610517+40850-074061FM-15+0002KTEB V0203605N00155030485MN0160935N5+00115-00225101375ADDAA101000095GA1075+030485999GD13991+0304859GE19MSL   +99999+99999GF199999999999030481999999MA1101395101365REMMET10101/06/21 05:51:02 METAR KTEB 061051Z 36003KT 10SM BKN100 01/M02 A2994 RMK AO2 SLP137 T00111022 $ (SW)
0276725025947412021010611517+40850-074061FM-15+0002KTEB V0203505N00265030485MN0160935N5+00115-00175101415ADDAA101000095GA1075+030485999GD13991+0304859GE19MSL   +99999+99999GF199999999999030481999999KA1060M+00171KA2060N+00061MA1101425101405MD1390039+9999REMMET11901/06/21 06:51:02 METAR KTEB 061151Z 35005KT 10SM BKN100 01/M02 A2995 RMK AO2 SLP141 T00111017 10017 20006 53003 $ (SW)
0218725025947412021010612517+40850-074061FM-15+0002KTEB V0200105N00155009145MN0160935N5+00175-00175101485ADDAA101000095GA1085+009145999GD14991+0091459GE19MSL   +99999+99999GF199999999999009141999999MA1101495101475REMMET10101/06/21 07:51:02 METAR KTEB 061251Z 01003KT 10SM OVC030 02/M02 A2997 RMK AO2 SLP148 T00171017 $ (DK)
0229725025947412021010613517+40850-074061FM-15+0002KTEB V0203105N00725009145MN0160935N5+00285-00285101495ADDAA101000095GA1085+009145999GD14991+0091459GE19MSL   +99999+99999GF199999999999009141999999MA1101495101475OC101035REMMET10401/06/21 08:51:02 METAR KTEB 061351Z 31014G20KT 10SM OVC030 03/M03 A2997 RMK AO2 SLP149 T00281028 $ (AZ)
0285725025947412021010614517+40850-074061FM-15+0002KTEB V0203405N00415030485MN0160935N5+00395-00285101555ADDAA101000095GA1025+009145999GA2085+030485999GD11991+0091459GD24991+0304859GE19MSL   +99999+99999GF199999999999009141999999MA1101565101535MD1190149+9999OC100935REMMET11501/06/21 09:51:02 METAR KTEB 061451Z 34008G18KT 10SM FEW030 OVC100 04/M03 A2999 RMK AO2 SLP155 T00391028 51014 (AZ)
0216725025947412021010615517+40850-074061FM-15+0002KTEB V0203305N00625030485MN0160935N5+00395-00395101545ADDAA101000095GA1075+030485999GD13991+0304859GE19MSL   +99999+99999GF199999999999030481999999MA1101565101535REMMET09901/06/21 10:51:02 METAR KTEB 061551Z 33012KT 10SM BKN100 04/M04 A2999 RMK AO2 SLP154 T00391039 (AZ)
0227725025947412021010616517+40850-074061FM-15+0002KTEB V0203405N00725033535MN0160935N5+00395-00445101515ADDAA101000095GA1085+033535999GD14991+0335359GE19MSL   +99999+99999GF199999999999033531999999MA1101525101505OC101085REMMET10201/06/21 11:51:02 METAR KTEB 061651Z 34014G21KT 10SM OVC110 04/M04 A2998 RMK AO2 SLP151 T00391044 (AZ)
0260725025947412021010617517+40850-074061FM-15+0002KTEB V0203305N007752200059N0160935N5+00445-00395101455ADDAA101000095GA1005+999999999GD10991+9999999GF100991999999999999999999KA1060M+00441KA2060N+00111MA1101465101435MD1890109+9999OC101035REMMET11701/06/21 12:51:02 METAR KTEB 061751Z 33015G20KT 10SM CLR 04/M04 A2996 RMK AO2 SLP145 T00441039 10044 20011 58010 (AZ)
0191725025947412021010618517+40850-074061FM-15+0002KTEB V0203305N007752200059N0160935N5+00445-00395101455ADDAA101000095GA1005+999999999GD10991+9999999GF100991999999999999999999MA1101465101435REMMET09601/06/21 13:51:02 METAR KTEB 061851Z 33015KT 10SM CLR 04/M04 A2996 RMK AO2 SLP145 T00441039 (AZ)
0227725025947412021010619517+40850-074061FM-15+0002KTEB V0203205N00675011285MN0160935N5+00445-00395101515ADDAA101000095GA1075+011285999GD13991+0112859GE19MSL   +99999+99999GF199999999999011281999999MA1101525101505OC101085REMMET10201/06/21 14:51:02 METAR KTEB 061951Z 32013G21KT 10SM BKN037 04/M04 A2998 RMK AO2 SLP151 T00441039 (AZ)
0254725025947412021010620517+40850-074061FM-15+0002KTEB V0203305N005752200059N0160935N5+00335-00445101565ADDAA101000095GA1005+999999999GD10991+9999999GF100991999999999999999999MA1101565101535MD1390119+9999OC101395OD149901391320REMMET12301/06/21 15:51:02 METAR KTEB 062051Z 33011G27KT 10SM CLR 03/M04 A2999 RMK AO2 PK WND 32027/2047 SLP156 T00331044 53011 (BR)
0223725025947412021010621517+40850-074061FM-15+0002KTEB V0203305N004152200059N0160935N5+00225-00445101625ADDAA101000095GA1005+999999999GD10991+9999999GF100991999999999999999999MA1101635101605OD149901441340REMMET11401/06/21 16:51:02 METAR KTEB 062151Z 33008KT 10SM CLR 02/M04 A3001 RMK AO2 PK WND 34028/2054 SLP162 T00221044 (BR)
0202725025947412021010622517+40850-074061FM-15+0002KTEB V0203305N004152200059N0160935N5+00225-00445101695ADDAA101000095GA1005+999999999GD10991+9999999GF100991999999999999999999MA1101695101675OC100935REMMET09901/06/21 17:51:02 METAR KTEB 062251Z 33008G18KT 10SM CLR 02/M04 A3003 RMK AO2 SLP169 T00221044 (BR)
0304725025947412021010623517+40850-074061FM-15+0002KTEB V0203305N004652200059N0160935N5+00175-00445101715ADDAA101000095GA1045+033535999GD12991+0335359GE19AGL   +99999+99999GF104995999999033531999999KA1060M+00501KA2060N+00171MA1101735101705MD1190159+9999OC101035REMMET12001/06/21 18:51:02 METAR KTEB 062351Z 33009G20KT 10SM SCT110 02/M04 A3004 RMK AO2 SLP171 T00171044 10050 20017 51015 (BR)EQDD01      0ADE726
0197725025947412021010700517+40850-074061FM-15+0002KTEB V0203205N006252200059N0160935N5+00175-00445101705ADDAA101000095GA1005+999999999GD10991+9999999GF100991999999999999999999MA1101695101675OC100825REMMET09401/06/21 19:51:01 METAR KTEB 070051Z 32012G16KT 10SM CLR 02/M04 A3003 RMK AO2 SLP170 T00171044
0186725025947412021010701517+40850-074061FM-15+0002KTEB V0203505N004652200059N0160935N5+00225-00445101715ADDAA101000095GA1005+999999999GD10991+9999999GF100991999999999999999999MA1101735101705REMMET09101/06/21 20:51:01 METAR KTEB 070151Z 35009KT 10SM CLR 02/M04 A3004 RMK AO2 SLP171 T00221044
0217725025947412021010702517+40850-074061FM-15+0002KTEB V0203305N004652200059N0160935N5+00175-00445101685ADDAA101000095GA1005+999999999GD10991+9999999GF100991999999999999999999MA1101695101675MD1890029+9999OC100885REMMET10001/06/21 21:51:01 METAR KTEB 070251Z 33009G17KT 10SM CLR 02/M04 A3003 RMK AO2 SLP168 T00171044 58002
0186725025947412021010703517+40850-074061FM-15+0002KTEB V0203205N005152200059N0160935N5+00115-00445101685ADDAA101000095GA1005+999999999GD10991+9999999GF100991999999999999999999MA1101695101675REMMET09101/06/21 22:51:01 METAR KTEB 070351Z 32010KT 10SM CLR 01/M04 A3003 RMK AO2 SLP168 T00111044
0222725025947412021010704517+40850-074061FM-15+0002KTEB V0203305N004152200059N0160935N5+00115-00505101695ADDAA101000095GA1005+999999999GD10991+9999999GF100991999999999999999999KA1240M+00501KA2240N+00061MA1101695101675REMMET10101/06/21 23:51:02 METAR KTEB 070451Z 33008KT 10SM CLR 01/M05 A3003 RMK AO2 SLP169 T00111050 400500006
0886725025947412021010704596+40850-074061SOD  +0002KTEB V020999999999999999999999999999+99999+99999999999ADDAA124000095KA1240M+00505KA2240N+00065MG1101444101324OE11240143134015545OE22240098332015595OE33240042999999995REMSOD73024 HR PRECIPITATION (IN):0.00  24 HR MAX TEMP (F):41 24 HR MAX TEMP TIME (LST):1407 24 HR MIN TEMP (F):33 24 HR MIN TEMP TIME (LST):2348 AVERAGE STATION PRESSURE:29.955 MINIMUM SEA LEVEL PRESSURE:29.92 TIME OF OCCURRENCE:0003 PEAK WIND SPEED (MPH):32  PEAK WIND DIR (DEG):340 PEAK WIND TIME (LST):1554  FASTEST 2MIN SPEED (MPH):22 FASTEST 2MIN DIR (DEG):320 FASTEST 2MIN TIME (LST):1559 AVERAGE WIND SPEED (MPH):9.6  24 HR AVG TEMP (F):37 HEATING DEGREE DAYS:28  COOLING DEGREE DAYS:0   LATEST DAY MAX TEMP (0700-1900 LST):41  LATEST NIGHT MIN TEMP(1900-0800 LST):33 HOURLY INCREMENTAL PRECIPITATION VALUES (IN):.00 0.00 0.00 0.00 0.00 0.00 0.00 0.00 0.00 0.00 0.00 0.00 0.00 0.00 0.00 0.00 0.00 0.00 0.00 0.00 0.00 0.00 0.00 0.00EQDR01     N7GJS072R02     N7GKS075
0249725025947412021010705517+40850-074061FM-15+0002KTEB V0203405N005152200059N0160935N5+00065-00505101735ADDAA101000095GA1005+999999999GD10991+9999999GF100991999999999999999999KA1060M+00221KA2060N+00061MA1101735101705MD1390049+9999REMMET11401/07/21 00:51:02 METAR KTEB 070551Z 34010KT 10SM CLR 01/M05 A3004 RMK AO2 SLP173 T00061050 10022 20006 53004 (SW)
0191725025947412021010706517+40850-074061FM-15+0002KTEB V0203405V003652200059N0160935N5+00065-00505101765ADDAA101000095GA1005+999999999GD10991+9999999GF100991999999999999999999MA1101765101745REMMET09601/07/21 01:51:02 METAR KTEB 070651Z 34007KT 10SM CLR 01/M05 A3005 RMK AO2 SLP176 T00061050 (SW)
0191725025947412021010707517+40850-074061FM-15+0002KTEB V0203305N003152200059N0160935N5+00005-00565101765ADDAA101000095GA1005+999999999GD10991+9999999GF100991999999999999999999MA1101765101745REMMET09601/07/21 02:51:02 METAR KTEB 070751Z 33006KT 10SM CLR 00/M06 A3005 RMK AO2 SLP176 T00001056 (SW)
0211725025947412021010708517+40850-074061FM-15+0002KTEB V0203305N003652200059N0160935N5+00005-00565101775ADDAA101000095GA1005+999999999GD10991+9999999GF100991999999999999999999MA1101795101775MD1190049+9999REMMET10201/07/21 03:51:02 METAR KTEB 070851Z 33007KT 10SM CLR 00/M06 A3006 RMK AO2 SLP177 T00001056 51004 (SW)
0192725025947412021010709517+40850-074061FM-15+0002KTEB V0203505N002652200059N0160935N5-00065-00565101795ADDAA101000095GA1005+999999999GD10991+9999999GF100991999999999999999999MA1101795101775REMMET09701/07/21 04:51:02 METAR KTEB 070951Z 35005KT 10SM CLR M01/M06 A3006 RMK AO2 SLP179 T10061056 (SW)
0192725025947412021010710517+40850-074061FM-15+0002KTEB V0203405N004652200059N0160935N5-00065-00615101835ADDAA101000095GA1005+999999999GD10991+9999999GF100991999999999999999999MA1101835101805REMMET09701/07/21 05:51:02 METAR KTEB 071051Z 34009KT 10SM CLR M01/M06 A3007 RMK AO2 SLP183 T10061061 (SW)
0250725025947412021010711517+40850-074061FM-15+0002KTEB V0203405N003652200059N0160935N5-00115-00675101885ADDAA101000095GA1005+999999999GD10991+9999999GF100991999999999999999999KA1060M+00061KA2060N-00111MA1101905101875MD1390119+9999REMMET11501/07/21 06:51:02 METAR KTEB 071151Z 34007KT 10SM CLR M01/M07 A3009 RMK AO2 SLP188 T10111067 10006 21011 53011 (SW)
0192725025947412021010712517+40850-074061FM-15+0002KTEB V0203405N004652200059N0160935N5-00115-00675101955ADDAA101000095GA1005+999999999GD10991+9999999GF100991999999999999999999MA1101965101945REMMET09701/07/21 07:51:02 METAR KTEB 071251Z 34009KT 10SM CLR M01/M07 A3011 RMK AO2 SLP195 T10111067 (AA)
0191725025947412021010713517+40850-074061FM-15+0002KTEB V0203505N005752200059N0160935N5+00005-00675101995ADDAA101000095GA1005+999999999GD10991+9999999GF100991999999999999999999MA1102005101975REMMET09601/07/21 08:51:02 METAR KTEB 071351Z 35011KT 10SM CLR 00/M07 A3012 RMK AO2 SLP199 T00001067 (AA)
0211725025947412021010714517+40850-074061FM-15+0002KTEB V0203405N005752200059N0160935N5+00115-00675102005ADDAA101000095GA1005+999999999GD10991+9999999GF100991999999999999999999MA1102005101975MD1190129+9999REMMET10201/07/21 09:51:02 METAR KTEB 071451Z 34011KT 10SM CLR 01/M07 A3012 RMK AO2 SLP200 T00111067 51012 (AA)
0191725025947412021010715517+40850-074061FM-15+0002KTEB V0203205N004652200059N0160935N5+00225-00675101925ADDAA101000095GA1005+999999999GD10991+9999999GF100991999999999999999999MA1101935101915REMMET09601/07/21 10:51:02 METAR KTEB 071551Z 32009KT 10SM CLR 02/M07 A3010 RMK AO2 SLP192 T00221067 (AA)
0191725025947412021010716517+40850-074061FM-15+0002KTEB V0203405N005152200059N0160935N5+00335-00675101855ADDAA101000095GA1005+999999999GD10991+9999999GF100991999999999999999999MA1101865101845REMMET09601/07/21 11:51:02 METAR KTEB 071651Z 34010KT 10SM CLR 03/M07 A3008 RMK AO2 SLP185 T00331067 (AA)
0249725025947412021010717517+40850-074061FM-15+0002KTEB V0203205N006252200059N0160935N5+00395-00615101795ADDAA101000095GA1005+999999999GD10991+9999999GF100991999999999999999999KA1060M+00391KA2060N-00111MA1101795101775MD1690219+9999REMMET11401/07/21 12:51:02 METAR KTEB 071751Z 32012KT 10SM CLR 04/M06 A3006 RMK AO2 SLP179 T00391061 10039 21011 56021 (AA)
0202725025947412021010718517+40850-074061FM-15+0002KTEB V0203105N004652200059N0160935N5+00445-00615101765ADDAA101000095GA1005+999999999GD10991+9999999GF100991999999999999999999MA1101765101745OC100935REMMET09901/07/21 13:51:02 METAR KTEB 071851Z 31009G18KT 10SM CLR 04/M06 A3005 RMK AO2 SLP176 T00441061 (AA)
0191725025947412021010719517+40850-074061FM-15+0002KTEB V0203305N005752200059N0160935N5+00505-00565101775ADDAA101000095GA1005+999999999GD10991+9999999GF100991999999999999999999MA1101765101745REMMET09601/07/21 14:51:02 METAR KTEB 071951Z 33011KT 10SM CLR 05/M06 A3005 RMK AO2 SLP177 T00501056 (AA)
0211725025947412021010720517+40850-074061FM-15+0002KTEB V0203305N003652200059N0160935N5+00445-00615101855ADDAA101000095GA1005+999999999GD10991+9999999GF100991999999999999999999MA1101865101845MD1390069+9999REMMET10201/07/21 15:51:02 METAR KTEB 072051Z 33007KT 10SM CLR 04/M06 A3008 RMK AO2 SLP185 T00441061 53006 (MK)
0202725025947412021010721517+40850-074061FM-15+0002KTEB V0203405N006252200059N0160935N5+00285-00615101915ADDAA101000095GA1005+999999999GD10991+9999999GF100991999999999999999999MA1101935101915OC100935REMMET09901/07/21 16:51:02 METAR KTEB 072151Z 34012G18KT 10SM CLR 03/M06 A3010 RMK AO2 SLP191 T00281061 (MK)
0191725025947412021010722517+40850-074061FM-15+0002KTEB V0203205N004652200059N0160935N5+00175-00615101945ADDAA101000095GA1005+999999999GD10991+9999999GF100991999999999999999999MA1101935101915REMMET09601/07/21 17:51:02 METAR KTEB 072251Z 32009KT 10SM CLR 02/M06 A3010 RMK AO2 SLP194 T00171061 (MK)
0249725025947412021010723517+40850-074061FM-15+0002KTEB V0203305N005152200059N0160935N5+00115-00615101955ADDAA101000095GA1005+999999999GD10991+9999999GF100991999999999999999999KA1060M+00561KA2060N+00111MA1101965101945MD1190099+9999REMMET11401/07/21 18:51:02 METAR KTEB 072351Z 33010KT 10SM CLR 01/M06 A3011 RMK AO2 SLP195 T00111061 10056 20011 51009 (MK)
0197725025947412021010800517+40850-074061FM-15+0002KTEB V0203505N006252200059N0160935N5+00065-00615101945ADDAA101000095GA1005+999999999GD10991+9999999GF100991999999999999999999MA1101965101945OC100935REMMET09401/07/21 19:51:01 METAR KTEB 080051Z 35012G18KT 10SM CLR 01/M06 A3011 RMK AO2 SLP194 T00061061
0186725025947412021010801517+40850-074061FM-15+0002KTEB V0203305N004152200059N0160935N5+00005-00615101955ADDAA101000095GA1005+999999999GD10991+9999999GF100991999999999999999999MA1101965101945REMMET09101/07/21 20:51:01 METAR KTEB 080151Z 33008KT 10SM CLR 00/M06 A3011 RMK AO2 SLP195 T00001061
0207725025947412021010802517+40850-074061FM-15+0002KTEB V0203505N003652200059N0160935N5-00065-00615101945ADDAA101000095GA1005+999999999GD10991+9999999GF100991999999999999999999MA1101935101915MD1890019+9999REMMET09801/07/21 21:51:01 METAR KTEB 080251Z 35007KT 10SM CLR M01/M06 A3010 RMK AO2 SLP194 T10061061 58001
0198725025947412021010803517+40850-074061FM-15+0002KTEB V0203305N004152200059N0160935N5-00065-00675101925ADDAA101000095GA1005+999999999GD10991+9999999GF100991999999999999999999MA1101935101915OC100825REMMET09501/07/21 22:51:01 METAR KTEB 080351Z 33008G16KT 10SM CLR M01/M07 A3010 RMK AO2 SLP192 T10061067
0223725025947412021010804517+40850-074061FM-15+0002KTEB V0203605N004652200059N0160935N5-00115-00675101855ADDAA101000095GA1005+999999999GD10991+9999999GF100991999999999999999999KA1240M+00561KA2240N-00111MA1101865101845REMMET10201/07/21 23:51:02 METAR KTEB 080451Z 36009KT 10SM CLR M01/M07 A3008 RMK AO2 SLP185 T10111067 400561011
0886725025947412021010804596+40850-074061SOD  +0002KTEB V020999999999999999999999999999+99999+99999999999ADDAA124000095KA1240M+00565KA2240N-00105MG1101794101694OE11240107334009385OE22240080533009575OE33240046099999995REMSOD73024 HR PRECIPITATION (IN):0.00  24 HR MAX TEMP (F):42 24 HR MAX TEMP TIME (LST):1419 24 HR MIN TEMP (F):30 24 HR MIN TEMP TIME (LST):2359 AVERAGE STATION PRESSURE:30.060 MINIMUM SEA LEVEL PRESSURE:30.03 TIME OF OCCURRENCE:0009 PEAK WIND SPEED (MPH):24  PEAK WIND DIR (DEG):340 PEAK WIND TIME (LST):0938  FASTEST 2MIN SPEED (MPH):18 FASTEST 2MIN DIR (DEG):330 FASTEST 2MIN TIME (LST):0957 AVERAGE WIND SPEED (MPH):10.3 24 HR AVG TEMP (F):36 HEATING DEGREE DAYS:29  COOLING DEGREE DAYS:0   LATEST DAY MAX TEMP (0700-1900 LST):42  LATEST NIGHT MIN TEMP(1900-0800 LST):30 HOURLY INCREMENTAL PRECIPITATION VALUES (IN):.00 0.00 0.00 0.00 0.00 0.00 0.00 0.00 0.00 0.00 0.00 0.00 0.00 0.00 0.00 0.00 0.00 0.00 0.00 0.00 0.00 0.00 0.00 0.00EQDR01     N7GJS072R02     N7GKS075
0250725025947412021010805517+40850-074061FM-15+0002KTEB V0203305N001552200059N0160935N5-00175-00675101905ADDAA101000095GA1005+999999999GD10991+9999999GF100991999999999999999999KA1060M+00111KA2060N-00171MA1101905101875MD1590049+9999REMMET11501/08/21 00:51:02 METAR KTEB 080551Z 33003KT 10SM CLR M02/M07 A3009 RMK AO2 SLP190 T10171067 10011 21017 55004 (SW)
0192725025947412021010806517+40850-074061FM-15+0002KTEB V0203505N006252200059N0160935N5-00175-00675101835ADDAA101000095GA1005+999999999GD10991+9999999GF100991999999999999999999MA1101835101805REMMET09701/08/21 01:51:02 METAR KTEB 080651Z 35012KT 10SM CLR M02/M07 A3007 RMK AO2 SLP183 T10171067 (SW)
0192725025947412021010807517+40850-074061FM-15+0002KTEB V0203605N003652200059N0160935N5-00225-00675101815ADDAA101000095GA1005+999999999GD10991+9999999GF100991999999999999999999MA1101835101805REMMET09701/08/21 02:51:02 METAR KTEB 080751Z 36007KT 10SM CLR M02/M07 A3007 RMK AO2 SLP181 T10221067 (SW)
0212725025947412021010808517+40850-074061FM-15+0002KTEB V0203505N003652200059N0160935N5-00225-00725101775ADDAA101000095GA1005+999999999GD10991+9999999GF100991999999999999999999MA1101795101775MD1690129+9999REMMET10301/08/21 03:51:02 METAR KTEB 080851Z 35007KT 10SM CLR M02/M07 A3006 RMK AO2 SLP177 T10221072 56012 (SW)
0192725025947412021010809517+40850-074061FM-15+0002KTEB V0203405N003152200059N0160935N5-00285-00725101765ADDAA101000095GA1005+999999999GD10991+9999999GF100991999999999999999999MA1101765101745REMMET09701/08/21 04:51:02 METAR KTEB 080951Z 34006KT 10SM CLR M03/M07 A3005 RMK AO2 SLP176 T10281072 (SW)
0192725025947412021010810517+40850-074061FM-15+0002KTEB V0203405N002652200059N0160935N5-00285-00725101765ADDAA101000095GA1005+999999999GD10991+9999999GF100991999999999999999999MA1101765101745REMMET09701/08/21 05:51:02 METAR KTEB 081051Z 34005KT 10SM CLR M03/M07 A3005 RMK AO2 SLP176 T10281072 (SW)
0250725025947412021010811517+40850-074061FM-15+0002KTEB V0203505N004152200059N0160935N5-00285-00725101755ADDAA101000095GA1005+999999999GD10991+9999999GF100991999999999999999999KA1060M-00171KA2060N-00281MA1101765101745MD1790029+9999REMMET11501/08/21 06:51:02 METAR KTEB 081151Z 35008KT 10SM CLR M03/M07 A3005 RMK AO2 SLP175 T10281072 11017 21028 57002 (SW)
0192725025947412021010812517+40850-074061FM-15+0002KTEB V0203605N004152200059N0160935N5-00285-00785101715ADDAA101000095GA1005+999999999GD10991+9999999GF100991999999999999999999MA1101735101705REMMET09701/08/21 07:51:02 METAR KTEB 081251Z 36008KT 10SM CLR M03/M08 A3004 RMK AO2 SLP171 T10281078 (AZ)
0192725025947412021010813517+40850-074061FM-15+0002KTEB V0203605N003152200059N0160935N5-00175-00725101745ADDAA101000095GA1005+999999999GD10991+9999999GF100991999999999999999999MA1101765101745REMMET09701/08/21 08:51:02 METAR KTEB 081351Z 36006KT 10SM CLR M02/M07 A3005 RMK AO2 SLP174 T10171072 (AZ)
0212725025947412021010814517+40850-074061FM-15+0002KTEB V0203305N003652200059N0160935N5-00115-00725101735ADDAA101000095GA1005+999999999GD10991+9999999GF100991999999999999999999MA1101735101705MD1690029+9999REMMET10301/08/21 09:51:02 METAR KTEB 081451Z 33007KT 10SM CLR M01/M07 A3004 RMK AO2 SLP173 T10111072 56002 (AZ)
0191725025947412021010815517+40850-074061FM-15+0002KTEB V0203405N005152200059N0160935N5+00065-00675101595ADDAA101000095GA1005+999999999GD10991+9999999GF100991999999999999999999MA1101595101575REMMET09601/08/21 10:51:02 METAR KTEB 081551Z 34010KT 10SM CLR 01/M07 A3000 RMK AO2 SLP159 T00061067 (AZ)
0191725025947412021010816517+40850-074061FM-15+0002KTEB V0209999V002652200059N0160935N5+00115-00675101605ADDAA101000095GA1005+999999999GD10991+9999999GF100991999999999999999999MA1101595101575REMMET09601/08/21 11:51:02 METAR KTEB 081651Z VRB05KT 10SM CLR 01/M07 A3000 RMK AO2 SLP160 T00111067 (AZ)
0249725025947412021010817517+40850-074061FM-15+0002KTEB V0203405N003652200059N0160935N5+00225-00675101455ADDAA101000095GA1005+999999999GD10991+9999999GF100991999999999999999999KA1060M+00221KA2060N-00281MA1101465101435MD1890289+9999REMMET11401/08/21 12:51:02 METAR KTEB 081751Z 34007KT 10SM CLR 02/M07 A2996 RMK AO2 SLP145 T00221067 10022 21028 58028 (AZ)
0191725025947412021010818517+40850-074061FM-15+0002KTEB V0203505N003652200059N0160935N5+00225-00675101305ADDAA101000095GA1005+999999999GD10991+9999999GF100991999999999999999999MA1101325101305REMMET09601/08/21 13:51:02 METAR KTEB 081851Z 35007KT 10SM CLR 02/M07 A2992 RMK AO2 SLP130 T00221067 (AZ)
0191725025947412021010819517+40850-074061FM-15+0002KTEB V0203505N002652200059N0160935N5+00285-00675101335ADDAA101000095GA1005+999999999GD10991+9999999GF100991999999999999999999MA1101325101305REMMET09601/08/21 14:51:02 METAR KTEB 081951Z 35005KT 10SM CLR 03/M07 A2992 RMK AO2 SLP133 T00281067 (AZ)
0211725025947412021010820517+40850-074061FM-15+0002KTEB V0203505N004152200059N0160935N5+00225-00675101285ADDAA101000095GA1005+999999999GD10991+9999999GF100991999999999999999999MA1101295101265MD1690179+9999REMMET10201/08/21 15:51:02 METAR KTEB 082051Z 35008KT 10SM CLR 02/M07 A2991 RMK AO2 SLP128 T00221067 56017 (KM)
0191725025947412021010821517+40850-074061FM-15+0002KTEB V0203305N004152200059N0160935N5+00175-00615101305ADDAA101000095GA1005+999999999GD10991+9999999GF100991999999999999999999MA1101325101305REMMET09601/08/21 16:51:02 METAR KTEB 082151Z 33008KT 10SM CLR 02/M06 A2992 RMK AO2 SLP130 T00171061 (KM)
0191725025947412021010822517+40850-074061FM-15+0002KTEB V0200305N002652200059N0160935N5+00115-00615101315ADDAA101000095GA1005+999999999GD10991+9999999GF100991999999999999999999MA1101325101305REMMET09601/08/21 17:51:02 METAR KTEB 082251Z 03005KT 10SM CLR 01/M06 A2992 RMK AO2 SLP131 T00111061 (KM)
0249725025947412021010823517+40850-074061FM-15+0002KTEB V0200305N002152200059N0160935N5+00005-00615101295ADDAA101000095GA1005+999999999GD10991+9999999GF100991999999999999999999KA1060M+00331KA2060N+00001MA1101295101265MD1090019+9999REMMET11401/08/21 18:51:02 METAR KTEB 082351Z 03004KT 10SM CLR 00/M06 A2991 RMK AO2 SLP129 T00001061 10033 20000 50001 (KM)
0186725025947412021010900517+40850-074061FM-15+0002KTEB V0200205N003652200059N0160935N5+00005-00675101275ADDAA101000095GA1005+999999999GD10991+9999999GF100991999999999999999999MA1101295101265REMMET09101/08/21 19:51:01 METAR KTEB 090051Z 02007KT 10SM CLR 00/M07 A2991 RMK AO2 SLP127 T00001067
0187725025947412021010901517+40850-074061FM-15+0002KTEB V0203605N004152200059N0160935N5-00065-00725101265ADDAA101000095GA1005+999999999GD10991+9999999GF100991999999999999999999MA1101295101265REMMET09201/08/21 20:51:01 METAR KTEB 090151Z 36008KT 10SM CLR M01/M07 A2991 RMK AO2 SLP126 T10061072
0218725025947412021010902517+40850-074061FM-15+0002KTEB V0203505N006252200059N0160935N5-00115-00785101225ADDAA101000095GA1005+999999999GD10991+9999999GF100991999999999999999999MA1101225101205MD1890079+9999OC100885REMMET10101/08/21 21:51:01 METAR KTEB 090251Z 35012G17KT 10SM CLR M01/M08 A2989 RMK AO2 SLP122 T10111078 58007
0198725025947412021010903517+40850-074061FM-15+0002KTEB V0203605N005152200059N0160935N5-00115-00895101145ADDAA101000095GA1005+999999999GD10991+9999999GF100991999999999999999999MA1101155101135OC100935REMMET09501/08/21 22:51:01 METAR KTEB 090351Z 36010G18KT 10SM CLR M01/M09 A2987 RMK AO2 SLP114 T10111089
0223725025947412021010904517+40850-074061FM-15+0002KTEB V0203605N004152200059N0160935N5-00175-00895101125ADDAA101000095GA1005+999999999GD10991+9999999GF100991999999999999999999KA1240M+00331KA2240N-00281MA1101125101095REMMET10201/08/21 23:51:02 METAR KTEB 090451Z 36008KT 10SM CLR M02/M09 A2986 RMK AO2 SLP112 T10171089 400331028
0902725025947412021010904596+40850-074061SOD  +0002KTEB V020999999999999999999999999999+99999+99999999999ADDAA124000095KA1240M+00335KA2240N-00275MG1101564101124OE11240089436022486OE22240067136022495OE33240037199999995REMSOD73024 HR PRECIPITATION (IN):0.00  24 HR MAX TEMP (F):38 24 HR MAX TEMP TIME (LST):1508 24 HR MIN TEMP (F):27 24 HR MIN TEMP TIME (LST):0808 AVERAGE STATION PRESSURE:29.990 MINIMUM SEA LEVEL PRESSURE:29.86 TIME OF OCCURRENCE:2359 PEAK WIND SPEED (MPH):20  PEAK WIND DIR (DEG):360 PEAK WIND TIME (LST):2248  FASTEST 2MIN SPEED (MPH):15 FASTEST 2MIN DIR (DEG):360 FASTEST 2MIN TIME (LST):2249 AVERAGE WIND SPEED (MPH):8.3  24 HR AVG TEMP (F):33 HEATING DEGREE DAYS:32  COOLING DEGREE DAYS:0   LATEST DAY MAX TEMP (0700-1900 LST):38  LATEST NIGHT MIN TEMP(1900-0800 LST):27 HOURLY INCREMENTAL PRECIPITATION VALUES (IN):.00 0.00 0.00 0.00 0.00 0.00 0.00 0.00 0.00 0.00 0.00 0.00 0.00 0.00 0.00 0.00 0.00 0.00 0.00 0.00 0.00 0.00 0.00 0.00EQDR01     N7GJS072R02     N7GKS075R03    207OES063
0250725025947412021010905517+40850-074061FM-15+0002KTEB V0200105N003652200059N0160935N5-00225-00895101125ADDAA101000095GA1005+999999999GD10991+9999999GF100991999999999999999999KA1060M+00001KA2060N-00221MA1101125101095MD1590109+9999REMMET11501/09/21 00:51:02 METAR KTEB 090551Z 01007KT 10SM CLR M02/M09 A2986 RMK AO2 SLP112 T10221089 10000 21022 55010 (BR)
0192725025947412021010906517+40850-074061FM-15+0002KTEB V0200105N004152200059N0160935N5-00285-00945101175ADDAA101000095GA1005+999999999GD10991+9999999GF100991999999999999999999MA1101195101165REMMET09701/09/21 01:51:02 METAR KTEB 090651Z 01008KT 10SM CLR M03/M09 A2988 RMK AO2 SLP117 T10281094 (BR)
0192725025947412021010907517+40850-074061FM-15+0002KTEB V0203505N004152200059N0160935N5-00335-00945101175ADDAA101000095GA1005+999999999GD10991+9999999GF100991999999999999999999MA1101195101165REMMET09701/09/21 02:51:02 METAR KTEB 090751Z 35008KT 10SM CLR M03/M09 A2988 RMK AO2 SLP117 T10331094 (BR)
0212725025947412021010908517+40850-074061FM-15+0002KTEB V0203605N005152200059N0160935N5-00395-00945101165ADDAA101000095GA1005+999999999GD10991+9999999GF100991999999999999999999MA1101195101165MD1090049+9999REMMET10301/09/21 03:51:02 METAR KTEB 090851Z 36010KT 10SM CLR M04/M09 A2988 RMK AO2 SLP116 T10391094 50004 (BR)
0192725025947412021010909517+40850-074061FM-15+0002KTEB V0203305N003152200059N0160935N5-00445-00945101125ADDAA101000095GA1005+999999999GD10991+9999999GF100991999999999999999999MA1101125101095REMMET09701/09/21 04:51:02 METAR KTEB 090951Z 33006KT 10SM CLR M04/M09 A2986 RMK AO2 SLP112 T10441094 (BR)
0192725025947412021010910517+40850-074061FM-15+0002KTEB V0203405N003152200059N0160935N5-00505-01005101135ADDAA101000095GA1005+999999999GD10991+9999999GF100991999999999999999999MA1101155101135REMMET09701/09/21 05:51:02 METAR KTEB 091051Z 34006KT 10SM CLR M05/M10 A2987 RMK AO2 SLP113 T10501100 (BR)
0250725025947412021010911517+40850-074061FM-15+0002KTEB V0203405N003152200059N0160935N5-00505-01005101165ADDAA101000095GA1005+999999999GD10991+9999999GF100991999999999999999999KA1060M-00221KA2060N-00501MA1101155101135MD1590019+9999REMMET11501/09/21 06:51:02 METAR KTEB 091151Z 34006KT 10SM CLR M05/M10 A2987 RMK AO2 SLP116 T10501100 11022 21050 55001 (BR)
0192725025947412021010912517+40850-074061FM-15+0002KTEB V0203305N003152200059N0160935N5-00445-01005101235ADDAA101000095GA1005+999999999GD10991+9999999GF100991999999999999999999MA1101255101235REMMET09701/09/21 07:51:02 METAR KTEB 091251Z 33006KT 10SM CLR M04/M10 A2990 RMK AO2 SLP123 T10441100 (CG)
0192725025947412021010913517+40850-074061FM-15+0002KTEB V0203405N005152200059N0160935N5-00335-01065101285ADDAA101000095GA1005+999999999GD10991+9999999GF100991999999999999999999MA1101295101265REMMET09701/09/21 08:51:02 METAR KTEB 091351Z 34010KT 10SM CLR M03/M11 A2991 RMK AO2 SLP128 T10331106 (CG)
0212725025947412021010914517+40850-074061FM-15+0002KTEB V0203305N005752200059N0160935N5-00225-01115101295ADDAA101000095GA1005+999999999GD10991+9999999GF100991999999999999999999MA1101295101265MD1190149+9999REMMET10301/09/21 09:51:02 METAR KTEB 091451Z 33011KT 10SM CLR M02/M11 A2991 RMK AO2 SLP129 T10221111 51014 (CG)
0236725025947412021010915517+40850-074061FM-15+0002KTEB V0203505N006252200059N0160935N5-00065-01115101205ADDAA101000095GA1025+012805999GD11991+0128059GE19AGL   +99999+99999GF102995999999012801999999MA1101225101205REMMET10001/09/21 10:51:02 METAR KTEB 091551Z 35012KT 10SM FEW042 M01/M11 A2989 RMK AO2 SLP120 T10061111 (CG)EQDD01      0ADE726
0322725025947412021010916517+40850-074061FM-15+0002KTEB V0203305N006252200059N0160935N5+00005-01005101135ADDAA101000095GA1025+011585999GA2045+028965999GA3045+036585999GD11991+0115859GD22991+0289659GD32991+0365859GE19AGL   +99999+99999GF104995999999011581999999MA1101155101135OC100885REMMET11601/09/21 11:51:02 METAR KTEB 091651Z 33012G17KT 10SM FEW038 SCT095 SCT120 00/M10 A2987 RMK AO2 SLP113 T00001100 (CG)EQDD01      0ADE726
0293725025947412021010917517+40850-074061FM-15+0002KTEB V0203505N006252200059N0160935N5+00115-00945101085ADDAA101000095GA1045+011585999GD12991+0115859GE19AGL   +99999+99999GF104995999999011581999999KA1060M+00111KA2060N-00501MA1101085101065MD1690229+9999REMMET11701/09/21 12:51:02 METAR KTEB 091751Z 35012KT 10SM SCT038 01/M09 A2985 RMK AO2 SLP108 T00111094 10011 21050 56022 (CG)EQDD01      0ADE726
0254725025947412021010918517+40850-074061FM-15+0002KTEB V0203605N00575013725MN0160935N5+00175-00895101125ADDAA101000095GA1075+013725999GA2075+033535999GD13991+0137259GD23991+0335359GE19MSL   +99999+99999GF199999999999013721999999MA1101125101095REMMET10601/09/21 13:51:02 METAR KTEB 091851Z 36011KT 10SM BKN045 BKN110 02/M09 A2986 RMK AO2 SLP112 T00171089 (CG)
0227725025947412021010919517+40850-074061FM-15+0002KTEB V0203505N00885014335MN0160935N5+00175-00895101185ADDAA101000095GA1085+014335999GD14991+0143359GE19MSL   +99999+99999GF199999999999014331999999MA1101195101165OC101185REMMET10201/09/21 14:51:02 METAR KTEB 091951Z 35017G23KT 10SM OVC047 02/M09 A2988 RMK AO2 SLP118 T00171089 (CG)
0247725025947412021010920517+40850-074061FM-15+0002KTEB V0203505N00885016765MN0160935N5+00175-00895101205ADDAA101000095GA1085+016765999GD14991+0167659GE19MSL   +99999+99999GF199999999999016761999999MA1101225101205MD1190139+9999OC101185REMMET10801/09/21 15:51:02 METAR KTEB 092051Z 35017G23KT 10SM OVC055 02/M09 A2989 RMK AO2 SLP120 T00171089 51013 (MK)
0292725025947412021010921517+40850-074061FM-15+0002KTEB V0203605N00215022865MN0160935N5+00175-00895101245ADDAA101000095GA1025+016765999GA2075+022865999GA3085+030485999GD11991+0167659GD23991+0228659GD34991+0304859GE19MSL   +99999+99999GF199999999999016761999999MA1101255101235REMMET11301/09/21 16:51:02 METAR KTEB 092151Z 36004KT 10SM FEW055 BKN075 OVC100 02/M09 A2990 RMK AO2 SLP124 T00171089 (MK)
0254725025947412021010922517+40850-074061FM-15+0002KTEB V0203505N00265030485MN0160935N5+00175-00895101295ADDAA101000095GA1025+021345999GA2085+030485999GD11991+0213459GD24991+0304859GE19MSL   +99999+99999GF199999999999021341999999MA1101295101265REMMET10601/09/21 17:51:02 METAR KTEB 092251Z 35005KT 10SM FEW070 OVC100 02/M09 A2991 RMK AO2 SLP129 T00171089 (MK)
0312725025947412021010923517+40850-074061FM-15+0002KTEB V0203505N00415024385MN0160935N5+00175-00895101335ADDAA101000095GA1075+024385999GA2085+030485999GD13991+0243859GD24991+0304859GE19MSL   +99999+99999GF199999999999024381999999KA1060M+00221KA2060N+00111MA1101325101305MD1190129+9999REMMET12401/09/21 18:51:02 METAR KTEB 092351Z 35008KT 10SM BKN080 OVC100 02/M09 A2992 RMK AO2 SLP133 T00171089 10022 20011 51012 (MK)
0211725025947412021011000517+40850-074061FM-15+0002KTEB V0200205N00265024385MN0160935N5+00175-00895101405ADDAA101000095GA1085+024385999GD14991+0243859GE19MSL   +99999+99999GF199999999999024381999999MA1101425101405REMMET09401/09/21 19:51:01 METAR KTEB 100051Z 02005KT 10SM OVC080 02/M09 A2995 RMK AO2 SLP140 T00171089
0230725025947412021011001517+40850-074061FM-15+0002KTEB V0200205N002652200059N0160935N5+00115-00945101455ADDAA101000095GA1025+025915999GD11991+0259159GE19AGL   +99999+99999GF102995999999025911999999MA1101465101435REMMET09401/09/21 20:51:01 METAR KTEB 100151Z 02005KT 10SM FEW085 01/M09 A2996 RMK AO2 SLP145 T00111094EQDD01      0ADE726
0206725025947412021011002517+40850-074061FM-15+0002KTEB V0203505N002152200059N0160935N5+00005-00835101525ADDAA101000095GA1005+999999999GD10991+9999999GF100991999999999999999999MA1101525101505MD1190199+9999REMMET09701/09/21 21:51:01 METAR KTEB 100251Z 35004KT 10SM CLR 00/M08 A2998 RMK AO2 SLP152 T00001083 51019
0187725025947412021011003517+40850-074061FM-15+0002KTEB V0203405N002652200059N0160935N5-00065-00835101595ADDAA101000095GA1005+999999999GD10991+9999999GF100991999999999999999999MA1101595101575REMMET09201/09/21 22:51:01 METAR KTEB 100351Z 34005KT 10SM CLR M01/M08 A3000 RMK AO2 SLP159 T10061083
0223725025947412021011004517+40850-074061FM-15+0002KTEB V0203405N003152200059N0160935N5-00115-00785101635ADDAA101000095GA1005+999999999GD10991+9999999GF100991999999999999999999KA1240M+00221KA2240N-00501MA1101635101605REMMET10201/09/21 23:51:02 METAR KTEB 100451Z 34006KT 10SM CLR M01/M08 A3001 RMK AO2 SLP163 T10111078 400221050
0886725025947412021011004596+40850-074061SOD  +0002KTEB V020999999999999999999999999999+99999+99999999999ADDAA124000095KA1240M+00225KA2240N-00495MG1101134101084OE11240116235014535OE22240089435014535OE33240042999999995REMSOD73024 HR PRECIPITATION (IN):0.00  24 HR MAX TEMP (F):36 24 HR MAX TEMP TIME (LST):1329 24 HR MIN TEMP (F):23 24 HR MIN TEMP TIME (LST):0739 AVERAGE STATION PRESSURE:29.865 MINIMUM SEA LEVEL PRESSURE:29.85 TIME OF OCCURRENCE:1339 PEAK WIND SPEED (MPH):26  PEAK WIND DIR (DEG):350 PEAK WIND TIME (LST):1453  FASTEST 2MIN SPEED (MPH):20 FASTEST 2MIN DIR (DEG):350 FASTEST 2MIN TIME (LST):1453 AVERAGE WIND SPEED (MPH):9.6  24 HR AVG TEMP (F):30 HEATING DEGREE DAYS:35  COOLING DEGREE DAYS:0   LATEST DAY MAX TEMP (0700-1900 LST):36  LATEST NIGHT MIN TEMP(1900-0800 LST):23 HOURLY INCREMENTAL PRECIPITATION VALUES (IN):.00 0.00 0.00 0.00 0.00 0.00 0.00 0.00 0.00 0.00 0.00 0.00 0.00 0.00 0.00 0.00 0.00 0.00 0.00 0.00 0.00 0.00 0.00 0.00EQDR01     N7GJS072R02     N7GKS075
0250725025947412021011005517+40850-074061FM-15+0002KTEB V0203505N004152200059N0160935N5-00065-00785101655ADDAA101000095GA1005+999999999GD10991+9999999GF100991999999999999999999KA1060M+00171KA2060N-00111MA1101665101645MD1190149+9999REMMET11501/10/21 00:51:02 METAR KTEB 100551Z 35008KT 10SM CLR M01/M08 A3002 RMK AO2 SLP165 T10061078 10017 21011 51014 (BR)
0192725025947412021011006517+40850-074061FM-15+0002KTEB V0203405N003652200059N0160935N5-00115-00785101765ADDAA101000095GA1005+999999999GD10991+9999999GF100991999999999999999999MA1101765101745REMMET09701/10/21 01:51:02 METAR KTEB 100651Z 34007KT 10SM CLR M01/M08 A3005 RMK AO2 SLP176 T10111078 (BR)
0192725025947412021011007517+40850-074061FM-15+0002KTEB V0203305N002652200059N0160935N5-00115-00835101845ADDAA101000095GA1005+999999999GD10991+9999999GF100991999999999999999999MA1101835101805REMMET09701/10/21 02:51:02 METAR KTEB 100751Z 33005KT 10SM CLR M01/M08 A3007 RMK AO2 SLP184 T10111083 (BR)
