0215725025947412025010100517+40859-074056FM-15+0002KTEB V0200705N00315014635MN0160935N5+00835+00395100535ADDAA101000095GA1085+014635999GD14991+0146359GE19AGL   +99999+99999GF199999999999014631999999MA1100545100525REMMET09812/31/24 19:51:03 METAR KTEB 010051Z 07006KT 10SM OVC048 08/04 A2969 RMK AO2 SLP053 T00830039 (BR)
0290725025947412025010101517+40859-074056FM-15+0002KTEB V0209999C00005018295MN0064375N5+00785+00445100395ADDAA101002095AU120020015AW1625GA1025+012805999GA2085+018295999GD11991+0128059GD24991+0182959GE19AGL   +99999+99999GF199999999999012801999999MA1100415100385MW1655REMMET11912/31/24 20:51:03 METAR KTEB 010151Z 00000KT 4SM RA FEW042 OVC060 08/04 A2965 RMK AO2 RAB26 SLP039 P0005 T00780044 (BR)
0354725025947412025010102077+40859-074056FM-16+0002KTEB V0200505N00465011285MN0032195N5+00725+00505999999ADDAA101004031AU120020015AU200001015AW1105AW2625ED106U12199GA1075+011285999GA2085+018295999GD13991+0112859GD24991+0182959GE19AGL   +99999+99999GF199999999999011281999999MA1100275100255MW1655OC100725REMMET14712/31/24 21:07:03 SPECI KTEB 010207Z 05009G14KT 2SM R06/4000VP6000FT RA BR BKN037 OVC060 07/05 A2961 RMK AO2 LTG DSNT S PRESFR P0016 T00720050 (BR)
0344725025947412025010102177+40859-074056FM-16+0002KTEB V0200505N00365010675MN0128755N5+00725+00505999999ADDAA101005831AU120020015AW1625GA1075+010675999GA2075+013115999GA3085+018295999GD13991+0106759GD23991+0131159GD34991+0182959GE19AGL   +99999+99999GF199999999999010671999999MA1100205100185MW1655OC100935REMMET13412/31/24 21:17:03 SPECI KTEB 010217Z 05007G18KT 8SM RA BKN035 BKN043 OVC060 07/05 A2959 RMK AO2 LTG DSNT SE AND S P0023 T00720050 (BR)
0322725025947412025010102447+40859-074056FM-16+0002KTEB V0200505N00365010065MN0160935N5+00725+00505999999ADDAA101006031AU147000015AU210020015AW1121AW2615GA1075+010065999GA2085+014025999GD13991+0100659GD24991+0140259GE19AGL   +99999+99999GF199999999999010061999999MA1100205100185MV1015MW1615REMMET12812/31/24 21:44:03 SPECI KTEB 010244Z 05007KT 10SM VCTS -RA BKN033 OVC046 07/05 A2959 RMK AO2 LTG DSNT SE-SW P0024 T00720050 (BR)
0412725025947412025010102517+40859-074056FM-15+0002KTEB V0200705N00155010065MN0080475N5+00725+00505100225ADDAA101007495AA203007991AU147000015AU220020015AU300001015AW1105AW2121AW3625GA1045+008235999GA2085+010065999GD12991+0082359GD24991+0100659GE19AGL   +99999+99999GF199999999999008231999999MA1100245100215MD1890459+9999MV1015MW1655REMMET15712/31/24 21:51:03 METAR KTEB 010251Z 07003KT 5SM VCTS RA BR SCT027 OVC033 07/05 A2960 RMK AO2 LTG DSNT N AND SE AND S SLP022 P0026 60031 T00720050 58045 (BR)EQDQ01  00788PRCP03
0394725025947412025010103037+40859-074056FM-16+0002KTEB V0200605N00365007625MN0032195N5+00725+00505999999ADDAA101003531AU107000025AU230020035AU300001015AW1105AW2635AW3905AW4951ED106U13729GA1075+007625999GA2085+010065999GD13991+0076259GD24991+0100659GE19AGL   +99999+99999GF199999999999007621999999MA1100205100185MW1635REMMET17212/31/24 22:03:03 SPECI KTEB 010303Z 06007KT 2SM R06/4500VP6000FT +TSRA BR BKN025 OVC033 07/05 A2959 RMK AO2 LTG DSNT N AND SE TSB0257 FRQ LTG CGICCCCA P0014 T00720050 (BR)
0404725025947412025010103317+40859-074056FM-16+0002KTEB V0200605N00365006105MN0048285N5+00725+00565999999ADDAA101006831AU147000015AU210020015AU300001015AW1105AW2121AW3615GA1045+003055999GA2075+006105999GA3085+018295999GD12991+0030559GD23991+0061059GD34991+0182959GE19AGL   +99999+99999GF199999999999003051999999MA1100075100045MV1015MW1615OC100935REMMET15412/31/24 22:31:03 SPECI KTEB 010331Z 06007G18KT 3SM VCTS -RA BR SCT010 BKN020 OVC060 07/06 A2955 RMK AO2 LTG DSNT E AND SE TSB0257E30 P0027 T00720056 (BR)
0393725025947412025010103387+40859-074056FM-16+0002KTEB V0200605N00265003055MN0048285N5+00725+00565999999ADDAA101007131AU107000025AU230020035AU300001015AW1105AW2635AW3905AW4951GA1075+003055999GA2075+014945999GA3085+018295999GD13991+0030559GD23991+0149459GD34991+0182959GE19AGL   +99999+99999GF199999999999003051999999MA1100075100045MW1635REMMET15112/31/24 22:38:03 SPECI KTEB 010338Z 06005KT 3SM +TSRA BR BKN010 BKN049 OVC060 07/06 A2955 RMK AO2 LTG DSNT E AND SE TSB0257E30B36 P0028 T00720056 (BR)
0326725025947412025010103496+40859-074056FM-16+0002KTEB V0200405N00415002445MN0064375N5+00705+00605999999ADDAU107000025AU210020035AU300001015AW1105AW2615AW3905GA1075+002445999GA2075+004575999GA3085+016765999GD13991+0024459GD23991+0045759GD34991+0167659MA1099935099915MW1615REMMET14912/31/24 22:49:03 SPECI KTEB 010349Z 04008KT 4SM -TSRA BR BKN008 BKN015 OVC055 07/06 A2951 RMK AO2 LTG DSNT N-SE TSB0257E30B36 PRESFR P0034 FIBI (BR)
0391725025947412025010103517+40859-074056FM-15+0002KTEB V0200305N00575002445MN0064375N5+00725+00565099905ADDAA101007195AU110020015AU200001015AW1105AW2615GA1075+002445999GA2075+004575999GA3085+016765999GD13991+0024459GD23991+0045759GD34991+0167659GE19AGL   +99999+99999GF199999999999002441999999MA1099905099875MW1615OC100825REMMET16412/31/24 22:51:03 METAR KTEB 010351Z 03011G16KT 4SM -RA BR BKN008 BKN015 OVC055 07/06 A2950 RMK AO2 LTG DSNT N-E TSB0257E30B36E51 PRESFR SLP990 P0034 T00720056 (BR)
0263725025947412025010104517+40859-074056FM-15+0002KTEB V0201005N00315002135MN0160935N5+00785+00675099875ADDAA101000025GA1085+002135999GD14991+0021359GE19AGL   +99999+99999GF199999999999002131999999KA1240M+01221KA2240N+00001MA1099865099845REMMET12012/31/24 23:51:03 METAR KTEB 010451Z 10006KT 10SM OVC007 08/07 A2949 RMK AO2 RAE06 SLP987 P0000 T00780067 401220000 (AZ)
0919725025947412025010104596+40859-074056SOD  +0002KTEB V020999999999999999999999999999+99999+99999999999ADDAA124016595AT1AU03TS  5AT2AU16RA  5AT3AU13BR  5KA1240M+01225KA2240N+00005MG1100984099834OE11240102807022585OE22240062607022585OE33240022499999995REMSOD72724 HR PRECIPITATION (IN):0.65  24 HR MAX TEMP (F):54 24 HR MAX TEMP TIME (LST):1312 24 HR MIN TEMP (F):32 24 HR MIN TEMP TIME (LST):0635 AVERAGE STATION PRESSURE:29.820 MINIMUM SEA LEVEL PRESSURE:29.48 TIME OF OCCURRENCE:2359 PEAK WIND SPEED (MPH):23  PEAK WIND DIR (DEG):70  PEAK WIND TIME (LST):2258  FASTEST 2MIN SPEED (MPH):14 FASTEST 2MIN DIR (DEG):70  FASTEST 2MIN TIME (LST):2258 AVERAGE WIND SPEED (MPH):5.0  24 HR AVG TEMP (F):43 HEATING DEGREE DAYS:22  COOLING DEGREE DAYS:0   LATEST DAY MAX TEMP (0700-1900 LST):54  LATEST NIGHT MIN TEMP(1900-0800 LST):32 HOURLY INCREMENTAL PRECIPITATION VALUES (IN):.00 0.00 0.00 0.00 0.00 0.00 0.00 0.00 0.00 0.00 0.00 0.00 0.00 0.00 0.00 0.00 0.00 0.00 0.00 0.00 0.08 0.29 0.28 TEQDR01     N7GJS072R02     N7GKS075
1260725025947412025010104596+40859-074056SOM  +0002KTEB V020999999999999999999999999999+99999+99999999999ADDAB10120996AD10031891011999999996AE1175105045015AH1005002893122035AH2010004693121105AH3015005693121115AH4020005893121115AH5030006993121115AH6045007493122435AI1060008993122465AI2080011993122195AI3100014093122245AI4120015793122445AI5150016593122465AI6180016593122465KB1744N-02065KB2744M+06335KB3744A+02175KC1N9-01272399995KC2M9+01771199995KD1744H08955KD2744C00005KE1035005225005MH1102174102244MK1104911409395099561118145REMSOM796PCP MTOT:4.76 PCP GT 24HRS:1.25 DATE(S):10-11 DAYS W/PCP >=.01:17 DAYS W/PCP >=.10:10 DAYS W/ PCP >=.50:4 DAYS W/PCP >=1.00:1 MSDP AMTS W/DATE-TIME TAGS:MIN:5 0.11  31/2203 MIN:10 0.18  31/2110 MIN:15 0.22  31/2111 MIN:20 0.23  31/2111 MIN:30 0.27  31/2111 MIN:45 0.29  31/2243 MIN:60 0.35  31/2246 MIN:80 0.47  31/2219 MIN:100 0.55  31/2224 MIN:120 0.62  31/2244 MIN:150 0.65  31/2246 MIN:180 0.65  31/2246 AVG DLY MIN:28.3  AVG DLY MAX:43.4  AVG MLY TMP:35.9  MIN TMP:9  DATE(S):23 MAX TMP:64  DATE(S):11 DAYS MAX <=32:3 DAYS MAX >=90:0  DAYS MIN <=32:22 DAYS MIN  <=0:0  AVG STP:30.170 LWST SLP:29.40 DATE/TIME:111814 HGST SLP:30.98 DATE/TIME:140939 HDD MTH TOT:895 DEP NORM:-2553 SEASON(JUL 1-JUN 30):1498 DEP NORM:-25536 CDD MTH TOT:0 DEP NORM:-2553 SEASON(JAN 1-DEC 31):1369 DEP NORM:-25536EQDR01  4.767ABP070R02  1.257ADP081
0273725025947412025010105187+40859-074056FM-16+0002KTEB V0200905N00415006105MN0160935N5+00785+00615999999ADDGA1045+002135999GA2075+006105999GA3085+008235999GD12991+0021359GD23991+0061059GD34991+0082359GE19AGL   +99999+99999GF199999999999002131999999MA1099805099775REMMET10501/01/25 00:18:02 SPECI KTEB 010518Z 09008KT 10SM SCT007 BKN020 OVC027 08/06 A2947 RMK AO2 T00780061 (AZ)
0328725025947412025010105517+40859-074056FM-15+0002KTEB V0201005N00365006105MN0160935N5+00785+00615099795ADDAA101000095AA206016591GA1025+002745999GA2085+006105999GD11991+0027459GD24991+0061059GE19AGL   +99999+99999GF199999999999002741999999KA1060M+00891KA2060N+00721MA1099805099775MD1690439+9999REMMET12901/01/25 00:51:02 METAR KTEB 010551Z 10007KT 10SM FEW009 OVC020 08/06 A2947 RMK AO2 SLP979 60065 T00780061 10089 20072 56043 (AZ)
0253725025947412025010106517+40859-074056FM-15+0002KTEB V0200905N00155004575MN0160935N5+00785+00565099785ADDAA101000095GA1025+002135999GA2085+004575999GD11991+0021359GD24991+0045759GE19AGL   +99999+99999GF199999999999002131999999MA1099805099775REMMET10501/01/25 01:51:02 METAR KTEB 010651Z 09003KT 10SM FEW007 OVC015 08/06 A2947 RMK AO2 SLP978 T00780056 (AZ)
0235725025947412025010107177+40859-074056FM-16+0002KTEB V0209999C00005004275MN0160935N5+00785+00615999999ADDGA1075+004275999GA2085+008845999GD13991+0042759GD24991+0088459GE19AGL   +99999+99999GF199999999999004271999999MA1099805099775REMMET09801/01/25 02:17:02 SPECI KTEB 010717Z 00000KT 10SM BKN014 OVC029 08/06 A2947 RMK AO2 T00780061 (AZ)
0273725025947412025010107337+40859-074056FM-16+0002KTEB V0209999C00005010975MN0160935N5+00785+00615999999ADDGA1045+003965999GA2045+008845999GA3085+010975999GD12991+0039659GD22991+0088459GD34991+0109759GE19AGL   +99999+99999GF199999999999003961999999MA1099805099775REMMET10501/01/25 02:33:02 SPECI KTEB 010733Z 00000KT 10SM SCT013 SCT029 OVC036 08/06 A2947 RMK AO2 T00780061 (AZ)
0291725025947412025010107517+40859-074056FM-15+0002KTEB V0209999C00005011585MN0160935N5+00725+00615099805ADDAA101000095GA1045+003965999GA2045+007325999GA3085+011585999GD12991+0039659GD22991+0073259GD34991+0115859GE19AGL   +99999+99999GF199999999999003961999999MA1099805099775REMMET11201/01/25 02:51:02 METAR KTEB 010751Z 00000KT 10SM SCT013 SCT024 OVC038 07/06 A2947 RMK AO2 SLP980 T00720061 (AZ)
0273725025947412025010107587+40859-074056FM-16+0002KTEB V0209999C00005003355MN0160935N5+00725+00615999999ADDGA1075+003355999GA2075+004885999GA3085+011585999GD13991+0033559GD23991+0048859GD34991+0115859GE19AGL   +99999+99999GF199999999999003351999999MA1099805099775REMMET10501/01/25 02:58:02 SPECI KTEB 010758Z 00000KT 10SM BKN011 BKN016 OVC038 07/06 A2947 RMK AO2 T00720061 (AZ)
0219725025947412025010108327+40859-074056FM-16+0002KTEB V0202105N00155002745MN0160935N5+00725+00615999999ADDAU101002015AW1311GA1085+002745999GD14991+0027459GE19AGL   +99999+99999GF199999999999002741999999MA1099835099815REMMET09601/01/25 03:32:02 SPECI KTEB 010832Z 21003KT 10SM MIFG OVC009 07/06 A2948 RMK AO2 T00720061 (AZ)
0256725025947412025010108517+40859-074056FM-15+0002KTEB V0209999C00005002445MN0096565N5+00725+00675099815ADDAA101000095AU101002015AW1311GA1085+002445999GD14991+0024459GE19AGL   +99999+99999GF199999999999002441999999MA1099805099775MD1390019+9999REMMET10801/01/25 03:51:02 METAR KTEB 010851Z 00000KT 6SM MIFG OVC008 07/07 A2947 RMK AO2 SLP981 T00720067 53001 (AZ)
0236725025947412025010109517+40859-074056FM-15+0002KTEB V0202305N00215002445MN0128755N5+00785+00675099825ADDAA101000095AU101002015AW1311GA1085+002445999GD14991+0024459GE19AGL   +99999+99999GF199999999999002441999999MA1099835099815REMMET10201/01/25 04:51:02 METAR KTEB 010951Z 23004KT 8SM MIFG OVC008 08/07 A2948 RMK AO2 SLP982 T00780067 (AZ)
0274725025947412025010110517+40859-074056FM-15+0002KTEB V0202405N00155002135MN0080475N5+00785+00675099865ADDAA101000095AU101002015AW1311GA1075+002135999GA2085+010365999GD13991+0021359GD24991+0103659GE19AGL   +99999+99999GF199999999999002131999999MA1099865099845REMMET10901/01/25 05:51:02 METAR KTEB 011051Z 24003KT 5SM MIFG BKN007 OVC034 08/07 A2949 RMK AO2 SLP986 T00780067 (WL)
0256725025947412025010110587+40859-074056FM-16+0002KTEB V0202605N00155003055MN0080475N5+00785+00615999999ADDAU101002015AW1311GA1075+003055999GA2085+010365999GD13991+0030559GD24991+0103659GE19AGL   +99999+99999GF199999999999003051999999MA1099865099845REMMET10201/01/25 05:58:02 SPECI KTEB 011058Z 26003KT 5SM MIFG BKN010 OVC034 08/06 A2949 RMK AO2 T00780061 (WL)
0256725025947412025010111337+40859-074056FM-16+0002KTEB V0202505N00315018295MN0080475N5+00785+00615999999ADDAU101002015AW1311GA1045+003355999GA2085+018295999GD12991+0033559GD24991+0182959GE19AGL   +99999+99999GF199999999999003351999999MA1099865099845REMMET10201/01/25 06:33:02 SPECI KTEB 011133Z 25006KT 5SM MIFG SCT011 OVC060 08/06 A2949 RMK AO2 T00780061 (WL)
0387725025947412025010111517+40859-074056FM-15+0002KTEB V0202505N00315018295MN0080475N5+00785+00615099875ADDAA101000095AA224016591AU101002015AW1311GA1025+003355999GA2075+018295999GA3085+024385999GD11991+0033559GD23991+0182959GD34991+0243859GE19AGL   +99999+99999GF199999999999003351999999KA1060M+00781KA2060N+00671MA1099865099845MD1190069+9999REMMET14001/01/25 06:51:02 METAR KTEB 011151Z 25006KT 5SM MIFG FEW011 BKN060 OVC080 08/06 A2949 RMK AO2 SLP987 70065 T00780061 10078 20067 51006 (WL)
0253725025947412025010112517+40859-074056FM-15+0002KTEB V0202705N00365022865MN0160935N5+00725+00565099865ADDAA101000095GA1045+003665999GA2075+022865999GD12991+0036659GD23991+0228659GE19AGL   +99999+99999GF199999999999003661999999MA1099865099845REMMET10501/01/25 07:51:02 METAR KTEB 011251Z 27007KT 10SM SCT012 BKN075 07/06 A2949 RMK AO2 SLP986 T00720056 (MB)
0190725025947412025010113517+40859-074056FM-15+0002KTEB V0202405N003152200059N0160935N5+00835+00615099905ADDAA101000095GA1005+999999999GD10991+9999999GF100991999999999999999999MA1099905099875REMMET09501/01/25 08:51:02 METAR KTEB 011351Z 24006KT 10SM CLR 08/06 A2950 RMK AO2 SLP990 T00830061 (MB)
0254725025947412025010114517+40859-074056FM-15+0002KTEB V0202405N004152200059N0160935N5+01005+00615099965ADDAA101000095GA1045+015245999GD12991+0152459GE19AGL   +99999+99999GF104995999999015241999999MA1099975099945MD1390099+9999REMMET10401/01/25 09:51:02 METAR KTEB 011451Z 24008KT 10SM SCT050 10/06 A2952 RMK AO2 SLP996 T01000061 53009 (MB)EQDD01      0ADE726
0197725025947412025010115287+40859-074056FM-16+0002KTEB V0202305N00415007325MN0160935N5+01005+00615999999ADDGA1075+007325999GD13991+0073259GE19AGL   +99999+99999GF199999999999007321999999MA1099975099945REMMET09101/01/25 10:28:02 SPECI KTEB 011528Z 23008KT 10SM BKN024 10/06 A2952 RMK AO2 T01000061 (MB)
0264725025947412025010115517+40859-074056FM-15+0002KTEB V0202605N00575006715MN0160935N5+01005+00565099975ADDAA101000095GA1075+006715999GA2085+008845999GD13991+0067159GD24991+0088459GE19AGL   +99999+99999GF199999999999006711999999MA1099975099945OC100885REMMET10801/01/25 10:51:02 METAR KTEB 011551Z 26011G17KT 10SM BKN022 OVC029 10/06 A2952 RMK AO2 SLP997 T01000056 (MB)
0246725025947412025010116267+40859-074056FM-16+0002KTEB V0202605N00575009145MN0160935N5+00945+00505999999ADDGA1025+007015999GA2085+009145999GD11991+0070159GD24991+0091459GE19AGL   +99999+99999GF199999999999007011999999MA1099975099945OC100935REMMET10101/01/25 11:26:02 SPECI KTEB 011626Z 26011G18KT 10SM FEW023 OVC030 09/05 A2952 RMK AO2 T00940050 (MB)
0208725025947412025010116377+40859-074056FM-16+0002KTEB V0202505N00725008535MN0160935N5+00945+00505999999ADDGA1085+008535999GD14991+0085359GE19AGL   +99999+99999GF199999999999008531999999MA1099975099945OC101035REMMET09401/01/25 11:37:02 SPECI KTEB 011637Z 25014G20KT 10SM OVC028 09/05 A2952 RMK AO2 T00940050 (MB)
0226725025947412025010116517+40859-074056FM-15+0002KTEB V0202605N00515008845MN0160935N5+01005+00505099945ADDAA101000095GA1085+008845999GD14991+0088459GE19AGL   +99999+99999GF199999999999008841999999MA1099935099915OC100935REMMET10101/01/25 11:51:02 METAR KTEB 011651Z 26010G18KT 10SM OVC029 10/05 A2951 RMK AO2 SLP994 T01000050 (MB)
0411725025947412025010117517+40859-074056FM-15+0002KTEB V0202805N00575008235MN0160935N5+00895+00285099965ADDAA101000095GA1075+008235999GA2075+018295999GA3085+022865999GD13991+0082359GD23991+0182959GD34991+0228659GE19AGL   +99999+99999GF199999999999008231999999KA1060M+01001KA2060N+00721MA1099975099945MD1290009+9999OC101395OD149901391270REMMET15101/01/25 12:51:02 METAR KTEB 011751Z 28011G27KT 10SM BKN027 BKN060 OVC075 09/03 A2952 RMK AO2 PK WND 27027/1742 SLP996 T00890028 10100 20072 52000 (MB)EQDQ012     3APCTEN
0284725025947412025010118037+40859-074056FM-16+0002KTEB V0202805N00625009455MN0160935N5+00835+00285999999ADDGA1025+008235999GA2075+009455999GA3085+021345999GD11991+0082359GD23991+0094559GD34991+0213459GE19AGL   +99999+99999GF199999999999008231999999MA1099975099945OC101135REMMET10801/01/25 13:03:02 SPECI KTEB 011803Z 28012G22KT 10SM FEW027 BKN031 OVC070 08/03 A2952 RMK AO2 T00830028 (MB)
0264725025947412025010118517+40859-074056FM-15+0002KTEB V0202605N00675016765MN0160935N5+00785+00225100005ADDAA101000095GA1025+010065999GA2085+016765999GD11991+0100659GD24991+0167659GE19AGL   +99999+99999GF199999999999010061999999MA1100005099985OC101085REMMET10801/01/25 13:51:02 METAR KTEB 011851Z 26013G21KT 10SM FEW033 OVC055 08/02 A2953 RMK AO2 SLP000 T00780022 (MB)
0335725025947412025010119517+40859-074056FM-15+0002KTEB V0202705N00885010065MN0160935N5+00725+00175100135ADDAA101000025AU110020015AW1615GA1075+010065999GA2085+019815999GD13991+0100659GD24991+0198159GE19AGL   +99999+99999GF199999999999010061999999MA1100145100115MW1615OC101395OD149901391270REMMET14201/01/25 14:51:02 METAR KTEB 011951Z 27017G27KT 10SM -RA BKN033 OVC065 07/02 A2957 RMK AO2 PK WND 27027/1946 RAB47 SLP013 P0000 T00720017 (MB)
0402725025947412025010120517+40859-074056FM-15+0002KTEB V0202905N00625022865MN0160935N5+00675+00065100295ADDAA101000025AA203000021GA1045+010675999GA2075+022865999GA3085+028965999GD12991+0106759GD23991+0228659GD34991+0289659GE19AGL   +99999+99999GF199999999999010671999999MA1100305100285MD1390339+9999OC101245OD149901751300REMMET15701/01/25 15:51:02 METAR KTEB 012051Z 29012G24KT 10SM SCT035 BKN075 OVC095 07/01 A2962 RMK AO2 PK WND 30034/2026 RAE34 SLP029 P0000 60000 T00670006 53033 (BR)EQDQ01  00008PRCP03
0311725025947412025010121517+40859-074056FM-15+0002KTEB V0202805N00775012195MN0160935N5+00615+00065100385ADDAA101000025GA1025+008845999GA2085+012195999GD11991+0088459GD24991+0121959GE19AGL   +99999+99999GF199999999999008841999999MA1100375100355OC101545OD149901591300REMMET14101/01/25 16:51:02 METAR KTEB 012151Z 28015G30KT 10SM FEW029 OVC040 06/01 A2964 RMK AO2 PK WND 30031/2110 RAB19E49 SLP038 P0000 T00610006 (BR)
0297725025947412025010122517+40859-074056FM-15+0002KTEB V0202905N00985030485MN0160935N5+00565-00175100455ADDAA101000095GA1045+012505999GA2075+030485999GD12991+0125059GD23991+0304859GE19AGL   +99999+99999GF199999999999012501999999MA1100445100425OC101445OD149901491280REMMET12701/01/25 17:51:02 METAR KTEB 012251Z 29019G28KT 10SM SCT041 BKN100 06/M02 A2966 RMK AO2 PK WND 28029/2234 SLP045 T00561017 (BR)
0353725025947412025010123517+40859-074056FM-15+0002KTEB V0202905N008252200059N0160935N5+00565-00175100515ADDAA101000095AA206000021GA1045+013415999GD12991+0134159GE19AGL   +99999+99999GF104995999999013411999999KA1060M+00891KA2060N+00561MA1100515100485MD1190229+9999OC101495OD149901541280REMMET14401/01/25 18:51:02 METAR KTEB 012351Z 29016G29KT 10SM SCT044 06/M02 A2968 RMK AO2 PK WND 28030/2302 SLP051 60000 T00561017 10089 20056 51022 (SW)EQDD01      0ADE726
0273725025947412025010200517+40859-074056FM-15+0002KTEB V0202805N005152200059N0160935N5+00505-00225100605ADDAA101000095GA1045+014335999GD12991+0143359GE19AGL   +99999+99999GF104995999999014331999999MA1100615100595OC101085OD149901441290REMMET11501/01/25 19:51:01 METAR KTEB 020051Z 28010G21KT 10SM SCT047 05/M02 A2971 RMK AO2 PK WND 29028/0038 SLP060 T00501022EQDD01      0ADE726
0273725025947412025010201517+40859-074056FM-15+0002KTEB V0203105N008252200059N0160935N5+00505-00565100675ADDAA101000095GA1025+014945999GD11991+0149459GE19AGL   +99999+99999GF102995999999014941999999MA1100685100655OC101855OD149901851330REMMET11501/01/25 20:51:01 METAR KTEB 020151Z 31016G36KT 10SM FEW049 05/M06 A2973 RMK AO2 PK WND 33036/0148 SLP067 T00501056EQDD01      0ADE726
0293725025947412025010202517+40859-074056FM-15+0002KTEB V0202905N006752200059N0160935N5+00445-00615100745ADDAA101000095GA1045+016765999GD12991+0167659GE19AGL   +99999+99999GF104995999999016761999999MA1100755100725MD1190239+9999OC101545OD149901541290REMMET12101/01/25 21:51:01 METAR KTEB 020251Z 29013G30KT 10SM SCT055 04/M06 A2975 RMK AO2 PK WND 29030/0244 SLP074 T00441061 51023EQDD01      0ADE726
0254725025947412025010203517+40859-074056FM-15+0002KTEB V0202805N00515016765MN0160935N5+00445-00505100775ADDAA101000095GA1075+016765999GD13991+0167659GE19AGL   +99999+99999GF199999999999016761999999MA1100785100765OC101135OD149901541260REMMET11501/01/25 22:51:02 METAR KTEB 020351Z 28010G22KT 10SM BKN055 04/M05 A2976 RMK AO2 PK WND 26030/0255 SLP077 T00441050
0277725025947412025010204517+40859-074056FM-15+0002KTEB V0202605V005152200059N0160935N5+00335-00395100795ADDAA101000095GA1025+016765999GD11991+0167659GE19AGL   +99999+99999GF102995999999016761999999KA1240M+01001KA2240N+00331MA1100815100795OC100935REMMET10701/01/25 23:51:02 METAR KTEB 020451Z 26010G18KT 10SM FEW055 03/M04 A2977 RMK AO2 SLP079 T00331039 401000033EQDD01      0ADE726
0922725025947412025010204596+40859-074056SOD  +0002KTEB V020999999999999999999999999999+99999+99999999999ADDAA124000025AT1AU16RA  5AT2AU21MIFG5AT3AW01FG  1KA1240M+01005KA2240N+00335MG1100004099764OE11240183333020485OE22240116230015215OE33240048799999995REMSOD73024 HR PRECIPITATION (IN):T     24 HR MAX TEMP (F):50 24 HR MAX TEMP TIME (LST):1155 24 HR MIN TEMP (F):38 24 HR MIN TEMP TIME (LST):2359 AVERAGE STATION PRESSURE:29.530 MINIMUM SEA LEVEL PRESSURE:29.46 TIME OF OCCURRENCE:0200 PEAK WIND SPEED (MPH):41  PEAK WIND DIR (DEG):330 PEAK WIND TIME (LST):2048  FASTEST 2MIN SPEED (MPH):26 FASTEST 2MIN DIR (DEG):300 FASTEST 2MIN TIME (LST):1521 AVERAGE WIND SPEED (MPH):10.9 24 HR AVG TEMP (F):44 HEATING DEGREE DAYS:21  COOLING DEGREE DAYS:0   LATEST DAY MAX TEMP (0700-1900 LST):50  LATEST NIGHT MIN TEMP(1900-0800 LST):44 HOURLY INCREMENTAL PRECIPITATION VALUES (IN):.00 0.00 0.00 0.00 0.00 0.00 0.00 0.00 0.00 0.00 0.00 0.00 0.00 0.00 T    T    T    0.00 0.00 0.00 0.00 0.00 0.00 0.00EQDR01     N7GJS072R02     N7GKS075
0304725025947412025010205517+40859-074056FM-15+0002KTEB V0202605N004652200059N0160935N5+00335-00445100835ADDAA101000095GA1025+015245999GD11991+0152459GE19AGL   +99999+99999GF102995999999015241999999KA1060M+00561KA2060N+00331MA1100855100825MD1390099+9999OC101035REMMET12001/02/25 00:51:02 METAR KTEB 020551Z 26009G20KT 10SM FEW050 03/M04 A2978 RMK AO2 SLP083 T00331044 10056 20033 53009 (AB)EQDD01      0ADE726
0216725025947412025010206517+40859-074056FM-15+0002KTEB V0202705N00415016765MN0160935N5+00335-00445100905ADDAA101000095GA1075+016765999GD13991+0167659GE19AGL   +99999+99999GF199999999999016761999999MA1100915100895REMMET09901/02/25 01:51:02 METAR KTEB 020651Z 27008KT 10SM BKN055 03/M04 A2980 RMK AO2 SLP090 T00331044 (AB)
0191725025947412025010207517+40859-074056FM-15+0002KTEB V0202605N004652200059N0160935N5+00285-00335100955ADDAA101000095GA1005+999999999GD10991+9999999GF100991999999999999999999MA1100955100925REMMET09601/02/25 02:51:02 METAR KTEB 020751Z 26009KT 10SM CLR 03/M03 A2981 RMK AO2 SLP095 T00281033 (AB)
0285725025947412025010208517+40859-074056FM-15+0002KTEB V0202605N00625019815MN0160935N5+00335-00335100995ADDAA101000095GA1025+013115999GA2085+019815999GD11991+0131159GD24991+0198159GE19AGL   +99999+99999GF199999999999013111999999MA1100985100965MD1190169+9999OC101035REMMET11501/02/25 03:51:02 METAR KTEB 020851Z 26012G20KT 10SM FEW043 OVC065 03/M03 A2982 RMK AO2 SLP099 T00331033 51016 (AB)
0312725025947412025010209517+40859-074056FM-15+0002KTEB V0202605N00465015245MN0160935N5+00335-00335101025ADDAA101000025GA1075+015245999GA2085+021345999GD13991+0152459GD24991+0213459GE19AGL   +99999+99999GF199999999999015241999999MA1101025100995OC101245OD149901391270REMMET14201/02/25 04:51:02 METAR KTEB 020951Z 26009G24KT 10SM BKN050 OVC070 03/M03 A2983 RMK AO2 PK WND 27027/0914 SNB29E38 SLP102 P0000 T00331033 (AB)
0227725025947412025010210517+40859-074056FM-15+0002KTEB V0202605N00675015245MN0160935N5+00285-00505101115ADDAA101000095GA1085+015245999GD14991+0152459GE19AGL   +99999+99999GF199999999999015241999999MA1101125101095OC101035REMMET10201/02/25 05:51:02 METAR KTEB 021051Z 26013G20KT 10SM OVC050 03/M05 A2986 RMK AO2 SLP111 T00281050 (AB)
0277725025947412025010211517+40859-074056FM-15+0002KTEB V0202505N005752200059N0160935N5+00225-00565101165ADDAA101000095AA206000021GA1005+999999999GD10991+9999999GF100991999999999999999999KA1060M+00331KA2060N+00221MA1101155101135MD1390179+9999OC100885REMMET12301/02/25 06:51:02 METAR KTEB 021151Z 25011G17KT 10SM CLR 02/M06 A2987 RMK AO2 SLP116 60000 T00221056 10033 20022 53017 (AB)
0202725025947412025010212517+40859-074056FM-15+0002KTEB V0202605N004652200059N0160935N5+00225-00615101225ADDAA101000095GA1005+999999999GD10991+9999999GF100991999999999999999999MA1101225101205OC100825REMMET09901/02/25 07:51:02 METAR KTEB 021251Z 26009G16KT 10SM CLR 02/M06 A2989 RMK AO2 SLP122 T00221061 (DI)
0227725025947412025010213517+40859-074056FM-15+0002KTEB V0202605N00775016765MN0160935N5+00335-00565101315ADDAA101000095GA1085+016765999GD14991+0167659GE19AGL   +99999+99999GF199999999999016761999999MA1101325101305OC101135REMMET10201/02/25 08:51:02 METAR KTEB 021351Z 26015G22KT 10SM OVC055 03/M06 A2992 RMK AO2 SLP131 T00331056 (DI)
0247725025947412025010214517+40859-074056FM-15+0002KTEB V0202705N00825016765MN0160935N5+00445-00505101385ADDAA101000095GA1085+016765999GD14991+0167659GE19AGL   +99999+99999GF199999999999016761999999MA1101395101365MD1390229+9999OC101245REMMET10801/02/25 09:51:02 METAR KTEB 021451Z 27016G24KT 10SM OVC055 04/M05 A2994 RMK AO2 SLP138 T00441050 53022 (DI)
0259725025947412025010215517+40859-074056FM-15+0002KTEB V0202905N00675014945MN0160935N5+00445-00565101375ADDAA101000095GA1085+014945999GD14991+0149459GE19AGL   +99999+99999GF199999999999014941999999MA1101395101365OC101245OD149901491280REMMET12001/02/25 10:51:02 METAR KTEB 021551Z 29013G24KT 10SM OVC049 04/M06 A2994 RMK AO2 PK WND 28029/1507 SLP137 T00441056 (DI)
0265725025947412025010216517+40859-074056FM-15+0002KTEB V0202705N00725015245MN0160935N5+00505-00565101285ADDAA101000095GA1075+015245999GA2085+018295999GD13991+0152459GD24991+0182959GE19AGL   +99999+99999GF199999999999015241999999MA1101295101265OC101185REMMET10901/02/25 11:51:02 METAR KTEB 021651Z 27014G23KT 10SM BKN050 OVC060 05/M06 A2991 RMK AO2 SLP128 T00501056 (DI)
0317725025947412025010217517+40859-074056FM-15+0002KTEB V0202905N00625018295MN0160935N5+00505-00675101265ADDAA101000095GA1075+018295999GD13991+0182959GE19AGL   +99999+99999GF199999999999018291999999KA1060M+00561KA2060N+00221MA1101255101235MD1890129+9999OC101185OD149901391290REMMET13801/02/25 12:51:02 METAR KTEB 021751Z 29012G23KT 10SM BKN060 05/M07 A2990 RMK AO2 PK WND 29027/1726 SLP126 T00501067 10056 20022 58012 (DI)
0259725025947412025010218517+40859-074056FM-15+0002KTEB V0202705N00725019815MN0160935N5+00505-00725101255ADDAA101000095GA1085+019815999GD14991+0198159GE19AGL   +99999+99999GF199999999999019811999999MA1101255101235OC101345OD149901491280REMMET12001/02/25 13:51:02 METAR KTEB 021851Z 27014G26KT 10SM OVC065 05/M07 A2990 RMK AO2 PK WND 28029/1758 SLP125 T00501072 (DI)
0259725025947412025010219517+40859-074056FM-15+0002KTEB V0202705N00825021345MN0160935N5+00445-00725101265ADDAA101000095GA1085+021345999GD14991+0213459GE19AGL   +99999+99999GF199999999999021341999999MA1101255101235OC101245OD149901491260REMMET12001/02/25 14:51:02 METAR KTEB 021951Z 27016G24KT 10SM OVC070 04/M07 A2990 RMK AO2 PK WND 26029/1923 SLP126 T00441072 (DI)
0279725025947412025010220517+40859-074056FM-15+0002KTEB V0202705N00575021345MN0160935N5+00395-00725101365ADDAA101000095GA1085+021345999GD14991+0213459GE19AGL   +99999+99999GF199999999999021341999999MA1101355101335MD1390109+9999OC101345OD149901691250REMMET12601/02/25 15:51:02 METAR KTEB 022051Z 27011G26KT 10SM OVC070 04/M07 A2993 RMK AO2 PK WND 25033/2001 SLP136 T00391072 53010 (BR)
0283725025947412025010221517+40859-074056FM-15+0002KTEB V0202705N00825022865MN0144845N5+00285-00785101415ADDAA101000025AU110030015AW1715GA1075+022865999GD13991+0228659GE19AGL   +99999+99999GF199999999999022861999999MA1101425101405MW1715OC101345REMMET13501/02/25 16:51:02 METAR KTEB 022151Z 27016G26KT 9SM -SN BKN075 03/M08 A2995 RMK AO2 PK WND 27031/2106 SNB11 SLP141 P0000 T00281078 (BR)
0309725025947412025010222517+40859-074056FM-15+0002KTEB V0202705N00725022865MN0160935N5+00285-00785101425ADDAA101000025GA1025+016765999GA2075+022865999GD11991+0167659GD23991+0228659GE19AGL   +99999+99999GF199999999999016761999999MA1101425101405OC101295OD149901441270REMMET13901/02/25 17:51:02 METAR KTEB 022251Z 27014G25KT 10SM FEW055 BKN075 03/M08 A2995 RMK AO2 PK WND 27028/2241 SNE27 SLP142 P0000 T00281078 (SW)
0309725025947412025010223517+40859-074056FM-15+0002KTEB V0202805N007752200059N0160935N5+00225-00785101465ADDAA101000095AA206000021GA1005+999999999GD10991+9999999GF100991999999999999999999KA1060M+00611KA2060N+00221MA1101465101435MD1190099+9999OC101135OD149901391310REMMET14101/02/25 18:51:02 METAR KTEB 022351Z 28015G22KT 10SM CLR 02/M08 A2996 RMK AO2 PK WND 31027/2306 SLP146 60000 T00221078 10061 20022 51009 (SW)
0241725025947412025010300517+40859-074056FM-15+0002KTEB V0202405N006252200059N0160935N5+00175-00785101495ADDAA101000095GA1045+021345999GD12991+0213459GE19AGL   +99999+99999GF104995999999021341999999MA1101495101475OC101185REMMET09701/02/25 19:51:01 METAR KTEB 030051Z 24012G23KT 10SM SCT070 02/M08 A2997 RMK AO2 SLP149 T00171078EQDD01      0ADE726
0254725025947412025010301517+40859-074056FM-15+0002KTEB V0202605N00515021345MN0160935N5+00115-00835101475ADDAA101000095GA1075+021345999GD13991+0213459GE19AGL   +99999+99999GF199999999999021341999999MA1101495101475OC100885OD149901331250REMMET11501/02/25 20:51:01 METAR KTEB 030151Z 26010G17KT 10SM BKN070 01/M08 A2997 RMK AO2 PK WND 25026/0117 SLP147 T00111083
0231725025947412025010302517+40859-074056FM-15+0002KTEB V0202605N00515021345MN0160935N5+00115-00835101475ADDAA101000095GA1075+021345999GD13991+0213459GE19AGL   +99999+99999GF199999999999021341999999MA1101495101475MD1090019+9999REMMET10001/02/25 21:51:01 METAR KTEB 030251Z 26010KT 10SM BKN070 01/M08 A2997 RMK AO2 SLP147 T00111083 50001
0241725025947412025010303517+40859-074056FM-15+0002KTEB V0202605N004652200059N0160935N5+00065-00835101465ADDAA101000095GA1025+019815999GD11991+0198159GE19AGL   +99999+99999GF102995999999019811999999MA1101465101435OC101085REMMET09701/02/25 22:51:02 METAR KTEB 030351Z 26009G21KT 10SM FEW065 01/M08 A2996 RMK AO2 SLP146 T00061083EQDD01      0ADE726
0334725025947412025010304517+40859-074056FM-15+0002KTEB V0202705N00515015245MN0160935N5+00065-00785101465ADDAA101000095GA1045+012505999GA2075+015245999GA3075+018295999GD12991+0125059GD23991+0152459GD33991+0182959GE19AGL   +99999+99999GF199999999999012501999999KA1240M+00611KA2240N+00061MA1101465101435OC101085REMMET12101/02/25 23:51:02 METAR KTEB 030451Z 27010G21KT 10SM SCT041 BKN050 BKN060 01/M08 A2996 RMK AO2 SLP146 T00061078 400610006
0898725025947412025010304596+40859-074056SOD  +0002KTEB V020999999999999999999999999999+99999+99999999999ADDAA124000025AT1AU18SN  5KA1240M+00615KA2240N+00065MG1101134100814OE11240165425015015OE22240107326016115OE33240061799999995REMSOD73024 HR PRECIPITATION (IN):T     24 HR MAX TEMP (F):43 24 HR MAX TEMP TIME (LST):1311 24 HR MIN TEMP (F):33 24 HR MIN TEMP TIME (LST):2359 AVERAGE STATION PRESSURE:29.865 MINIMUM SEA LEVEL PRESSURE:29.77 TIME OF OCCURRENCE:0047 PEAK WIND SPEED (MPH):37  PEAK WIND DIR (DEG):250 PEAK WIND TIME (LST):1501  FASTEST 2MIN SPEED (MPH):24 FASTEST 2MIN DIR (DEG):260 FASTEST 2MIN TIME (LST):1611 AVERAGE WIND SPEED (MPH):13.8 24 HR AVG TEMP (F):38 HEATING DEGREE DAYS:27  COOLING DEGREE DAYS:0   LATEST DAY MAX TEMP (0700-1900 LST):43  LATEST NIGHT MIN TEMP(1900-0800 LST):36 HOURLY INCREMENTAL PRECIPITATION VALUES (IN):.00 0.00 0.00 0.00 T    0.00 0.00 0.00 0.00 0.00 0.00 0.00 0.00 0.00 0.00 0.00 T    T    0.00 0.00 0.00 0.00 0.00 0.00EQDR01     N7GJS072R02     N7GKS075
0331725025947412025010305517+40859-074056FM-15+0002KTEB V0202605N00575019815MN0160935N5+00065-00785101475ADDAA101000095GA1025+015245999GA2075+019815999GD11991+0152459GD23991+0198159GE19AGL   +99999+99999GF199999999999015241999999KA1060M+00221KA2060N+00001MA1101495101475MD1390009+9999REMMET12401/03/25 00:51:02 METAR KTEB 030551Z 26011KT 10SM FEW050 BKN065 01/M08 A2997 RMK AO2 SLP147 T00061078 10022 20000 53000 (AB)EQDQ013     3APCTEN
0265725025947412025010306517+40859-074056FM-15+0002KTEB V0202905N00775018295MN0160935N5+00065-00725101495ADDAA101000095GA1025+013115999GA2085+018295999GD11991+0131159GD24991+0182959GE19AGL   +99999+99999GF199999999999013111999999MA1101495101475OC101135REMMET10901/03/25 01:51:02 METAR KTEB 030651Z 29015G22KT 10SM FEW043 OVC060 01/M07 A2997 RMK AO2 SLP149 T00061072 (AB)
0227725025947412025010307517+40859-074056FM-15+0002KTEB V0203005N00725015245MN0160935N5+00065-00785101515ADDAA101000095GA1085+015245999GD14991+0152459GE19AGL   +99999+99999GF199999999999015241999999MA1101525101505OC101185REMMET10201/03/25 02:51:02 METAR KTEB 030751Z 30014G23KT 10SM OVC050 01/M08 A2998 RMK AO2 SLP151 T00061078 (AB)
0247725025947412025010308517+40859-074056FM-15+0002KTEB V0203005V00365015245MN0160935N5+00065-00835101505ADDAA101000095GA1085+015245999GD14991+0152459GE19AGL   +99999+99999GF199999999999015241999999MA1101495101475MD1090039+9999OC100935REMMET10801/03/25 03:51:02 METAR KTEB 030851Z 30007G18KT 10SM OVC050 01/M08 A2997 RMK AO2 SLP150 T00061083 50003 (AB)
0227725025947412025010309517+40859-074056FM-15+0002KTEB V0203005N00465016765MN0160935N5+00115-00945101485ADDAA101000095GA1085+016765999GD14991+0167659GE19AGL   +99999+99999GF199999999999016761999999MA1101495101475OC101035REMMET10201/03/25 04:51:02 METAR KTEB 030951Z 30009G20KT 10SM OVC055 01/M09 A2997 RMK AO2 SLP148 T00111094 (AB)
0216725025947412025010310517+40859-074056FM-15+0002KTEB V0202705N00515015245MN0160935N5+00065-00785101455ADDAA101000095GA1085+015245999GD14991+0152459GE19AGL   +99999+99999GF199999999999015241999999MA1101465101435REMMET09901/03/25 05:51:02 METAR KTEB 031051Z 27010KT 10SM OVC050 01/M08 A2996 RMK AO2 SLP145 T00061078 (AB)
0274725025947412025010311517+40859-074056FM-15+0002KTEB V0202705N00415015245MN0160935N5+00065-00725101435ADDAA101000095GA1085+015245999GD14991+0152459GE19AGL   +99999+99999GF199999999999015241999999KA1060M+00111KA2060N+00061MA1101425101405MD1890079+9999REMMET11701/03/25 06:51:02 METAR KTEB 031151Z 27008KT 10SM OVC050 01/M07 A2995 RMK AO2 SLP143 T00061072 10011 20006 58007 (AB)
0216725025947412025010312517+40859-074056FM-15+0002KTEB V0202605N00315015245MN0160935N5+00065-00785101385ADDAA101000095GA1075+015245999GD13991+0152459GE19AGL   +99999+99999GF199999999999015241999999MA1101395101365REMMET09901/03/25 07:51:02 METAR KTEB 031251Z 26006KT 10SM BKN050 01/M08 A2994 RMK AO2 SLP138 T00061078 (MB)
0216725025947412025010313517+40859-074056FM-15+0002KTEB V0202405N00465014945MN0160935N5+00115-00785101395ADDAA101000095GA1075+014945999GD13991+0149459GE19AGL   +99999+99999GF199999999999014941999999MA1101395101365REMMET09901/03/25 08:51:02 METAR KTEB 031351Z 24009KT 10SM BKN049 01/M08 A2994 RMK AO2 SLP139 T00111078 (MB)
0247725025947412025010314517+40859-074056FM-15+0002KTEB V0202905N00775014635MN0160935N5+00225-00835101335ADDAA101000095GA1075+014635999GD13991+0146359GE19AGL   +99999+99999GF199999999999014631999999MA1101355101335MD1890109+9999OC101035REMMET10801/03/25 09:51:02 METAR KTEB 031451Z 29015G20KT 10SM BKN048 02/M08 A2993 RMK AO2 SLP133 T00221083 58010 (MB)
0246725025947412025010315517+40859-074056FM-15+0002KTEB V0202805N006752200059N0160935N5+00225-00835101255ADDAA101000095GA1025+014335999GD11991+0143359GE19AGL   +99999+99999GF102995999999014331999999MA1101255101235OC101085REMMET10201/03/25 10:51:02 METAR KTEB 031551Z 28013G21KT 10SM FEW047 02/M08 A2990 RMK AO2 SLP125 T00221083 (MB)EQDD01      0ADE726
0227725025947412025010316517+40859-074056FM-15+0002KTEB V0202905N00625015245MN0160935N5+00285-00835101095ADDAA101000095GA1075+015245999GD13991+0152459GE19AGL   +99999+99999GF199999999999015241999999MA1101085101065OC100985REMMET10201/03/25 11:51:02 METAR KTEB 031651Z 29012G19KT 10SM BKN050 03/M08 A2985 RMK AO2 SLP109 T00281083 (MB)
0304725025947412025010317517+40859-074056FM-15+0002KTEB V0202605N007252200059N0160935N5+00335-00785100955ADDAA101000095GA1045+014945999GD12991+0149459GE19AGL   +99999+99999GF104995999999014941999999KA1060M+00331KA2060N+00061MA1100955100925MD1890389+9999OC101135REMMET12001/03/25 12:51:02 METAR KTEB 031751Z 26014G22KT 10SM SCT049 03/M08 A2981 RMK AO2 SLP095 T00331078 10033 20006 58038 (MB)EQDD01      0ADE726
0235725025947412025010318517+40859-074056FM-15+0002KTEB V0202905N004652200059N0160935N5+00335-00725100875ADDAA101000095GA1045+014025999GD12991+0140259GE19AGL   +99999+99999GF104995999999014021999999MA1100885100865REMMET09901/03/25 13:51:02 METAR KTEB 031851Z 29009KT 10SM SCT046 03/M07 A2979 RMK AO2 SLP087 T00331072 (MB)EQDD01      0ADE726
0246725025947412025010319517+40859-074056FM-15+0002KTEB V0202905N003652200059N0160935N5+00335-00785100845ADDAA101000095GA1045+015245999GD12991+0152459GE19AGL   +99999+99999GF104995999999015241999999MA1100855100825OC100935REMMET10201/03/25 14:51:02 METAR KTEB 031951Z 29007G18KT 10SM SCT050 03/M08 A2978 RMK AO2 SLP084 T00331078 (MB)EQDD01      0ADE726
0236725025947412025010320517+40859-074056FM-15+0002KTEB V0202505N00675015245MN0160935N5+00285-00785100875ADDAA101000095GA1085+015245999GD14991+0152459GE19AGL   +99999+99999GF199999999999015241999999MA1100885100865MD1590089+9999REMMET10501/03/25 15:51:02 METAR KTEB 032051Z 25013KT 10SM OVC050 03/M08 A2979 RMK AO2 SLP087 T00281078 55008 (BR)
0265725025947412025010321517+40859-074056FM-15+0002KTEB V0202805N00575019815MN0160935N5+00225-00835100885ADDAA101000095GA1045+015245999GA2085+019815999GD12991+0152459GD24991+0198159GE19AGL   +99999+99999GF199999999999015241999999MA1100885100865OC100825REMMET10901/03/25 16:51:02 METAR KTEB 032151Z 28011G16KT 10SM SCT050 OVC065 02/M08 A2979 RMK AO2 SLP088 T00221083 (WL)
0216725025947412025010322517+40859-074056FM-15+0002KTEB V0203005N00575019815MN0160935N5+00115-00785100925ADDAA101000095GA1085+019815999GD14991+0198159GE19AGL   +99999+99999GF199999999999019811999999MA1100915100895REMMET09901/03/25 17:51:02 METAR KTEB 032251Z 30011KT 10SM OVC065 01/M08 A2980 RMK AO2 SLP092 T00111078 (WL)
0331725025947412025010323517+40859-074056FM-15+0002KTEB V0202805N004652200059N0160935N5+00065-00785100895ADDAA101000095GA1025+018295999GA2045+036585999GD11991+0182959GD22991+0365859GE19AGL   +99999+99999GF104995999999018291999999KA1060M+00391KA2060N+00061MA1100885100865MD1090029+9999REMMET12401/03/25 18:51:02 METAR KTEB 032351Z 28009KT 10SM FEW060 SCT120 01/M08 A2979 RMK AO2 SLP089 T00061078 10039 20006 50002 (WL)EQDD01      0ADE726
0186725025947412025010400517+40859-074056FM-15+0002KTEB V0202605N002652200059N0160935N5+00005-00785100885ADDAA101000095GA1005+999999999GD10991+9999999GF100991999999999999999999MA1100885100865REMMET09101/03/25 19:51:01 METAR KTEB 040051Z 26005KT 10SM CLR 00/M08 A2979 RMK AO2 SLP088 T00001078
0187725025947412025010401517+40859-074056FM-15+0002KTEB V0202505N002652200059N0160935N5-00115-00615100855ADDAA101000095GA1005+999999999GD10991+9999999GF100991999999999999999999MA1100855100825REMMET09201/03/25 20:51:01 METAR KTEB 040151Z 25005KT 10SM CLR M01/M06 A2978 RMK AO2 SLP085 T10111061
0207725025947412025010402517+40859-074056FM-15+0002KTEB V0202505N003152200059N0160935N5-00115-00675100835ADDAA101000095GA1005+999999999GD10991+9999999GF100991999999999999999999MA1100855100825MD1890069+9999REMMET09801/03/25 21:51:01 METAR KTEB 040251Z 25006KT 10SM CLR M01/M07 A2978 RMK AO2 SLP083 T10111067 58006
0187725025947412025010403517+40859-074056FM-15+0002KTEB V0202805N002652200059N0160935N5-00115-00675100815ADDAA101000095GA1005+999999999GD10991+9999999GF100991999999999999999999MA1100815100795REMMET09201/03/25 22:51:02 METAR KTEB 040351Z 28005KT 10SM CLR M01/M07 A2977 RMK AO2 SLP081 T10111067
0234725025947412025010404517+40859-074056FM-15+0002KTEB V0203105N004152200059N0160935N5-00115-00835100775ADDAA101000095GA1005+999999999GD10991+9999999GF100991999999999999999999KA1240M+00391KA2240N-00171MA1100785100765OC100825REMMET10501/03/25 23:51:02 METAR KTEB 040451Z 31008G16KT 10SM CLR M01/M08 A2976 RMK AO2 SLP077 T10111083 400391017
0886725025947412025010404596+40859-074056SOD  +0002KTEB V020999999999999999999999999999+99999+99999999999ADDAA124000095KA1240M+00395KA2240N-00165MG1101154100784OE11240125231004175OE22240080527011575OE33240049699999995REMSOD73024 HR PRECIPITATION (IN):0.00  24 HR MAX TEMP (F):39 24 HR MAX TEMP TIME (LST):1436 24 HR MIN TEMP (F):29 24 HR MIN TEMP TIME (LST):2238 AVERAGE STATION PRESSURE:29.870 MINIMUM SEA LEVEL PRESSURE:29.76 TIME OF OCCURRENCE:2359 PEAK WIND SPEED (MPH):28  PEAK WIND DIR (DEG):310 PEAK WIND TIME (LST):0417  FASTEST 2MIN SPEED (MPH):18 FASTEST 2MIN DIR (DEG):270 FASTEST 2MIN TIME (LST):1157 AVERAGE WIND SPEED (MPH):11.1 24 HR AVG TEMP (F):34 HEATING DEGREE DAYS:31  COOLING DEGREE DAYS:0   LATEST DAY MAX TEMP (0700-1900 LST):39  LATEST NIGHT MIN TEMP(1900-0800 LST):32 HOURLY INCREMENTAL PRECIPITATION VALUES (IN):.00 0.00 0.00 0.00 0.00 0.00 0.00 0.00 0.00 0.00 0.00 0.00 0.00 0.00 0.00 0.00 0.00 0.00 0.00 0.00 0.00 0.00 0.00 0.00EQDR01     N7GJS072R02     N7GKS075
0261725025947412025010405517+40859-074056FM-15+0002KTEB V0202905N005752200059N0160935N5-00175-01005100765ADDAA101000095GA1005+999999999GD10991+9999999GF100991999999999999999999KA1060M+00061KA2060N-00171MA1100785100765MD1690079+9999OC100985REMMET11801/04/25 00:51:02 METAR KTEB 040551Z 29011G19KT 10SM CLR M02/M10 A2976 RMK AO2 SLP076 T10171100 10006 21017 56007 (DA)
0203725025947412025010406517+40859-074056FM-15+0002KTEB V0203005N004152200059N0160935N5-00175-01065100775ADDAA101000095GA1005+999999999GD10991+9999999GF100991999999999999999999MA1100785100765OC100825REMMET10001/04/25 01:51:02 METAR KTEB 040651Z 30008G16KT 10SM CLR M02/M11 A2976 RMK AO2 SLP077 T10171106 (DA)
0217725025947412025010407517+40859-074056FM-15+0002KTEB V0202905N00415018295MN0160935N5-00115-01005100815ADDAA101000095GA1075+018295999GD13991+0182959GE19AGL   +99999+99999GF199999999999018291999999MA1100815100795REMMET10001/04/25 02:51:02 METAR KTEB 040751Z 29008KT 10SM BKN060 M01/M10 A2977 RMK AO2 SLP081 T10111100 (DA)
0223725025947412025010408517+40859-074056FM-15+0002KTEB V0203105N007752200059N0160935N5-00115-01065100855ADDAA101000095GA1005+999999999GD10991+9999999GF100991999999999999999999MA1100855100825MD1390089+9999OC101245REMMET10601/04/25 03:51:02 METAR KTEB 040851Z 31015G24KT 10SM CLR M01/M11 A2978 RMK AO2 SLP085 T10111106 53008 (DA)
0265725025947412025010409517+40859-074056FM-15+0002KTEB V0203105N005752200059N0160935N5-00175-01175100935ADDAA101000095GA1045+016765999GD12991+0167659GE19AGL   +99999+99999GF104995999999016761999999MA1100955100925OC101395REMMET12101/04/25 04:51:02 METAR KTEB 040951Z 31011G27KT 10SM SCT055 M02/M12 A2981 RMK AO2 PK WND 32027/0943 SLP093 T10171117 (DA)EQDD01      0ADE726
0217725025947412025010410517+40859-074056FM-15+0002KTEB V0202805N00575018295MN0160935N5-00175-01175101005ADDAA101000095GA1075+018295999GD13991+0182959GE19AGL   +99999+99999GF199999999999018291999999MA1101025100995REMMET10001/04/25 05:51:02 METAR KTEB 041051Z 28011KT 10SM BKN060 M02/M12 A2983 RMK AO2 SLP100 T10171117 (SA)
0286725025947412025010411517+40859-074056FM-15+0002KTEB V0203005N00515018295MN0160935N5-00175-01005101055ADDAA101000095GA1075+018295999GD13991+0182959GE19AGL   +99999+99999GF199999999999018291999999KA1060M-00111KA2060N-00171MA1101055101035MD1190209+9999OC101035REMMET12101/04/25 06:51:02 METAR KTEB 041151Z 30010G20KT 10SM BKN060 M02/M10 A2984 RMK AO2 SLP105 T10171100 11011 21017 51020 (SA)
0228725025947412025010412517+40859-074056FM-15+0002KTEB V0203005N00675018295MN0160935N5-00115-01225101065ADDAA101000095GA1085+018295999GD14991+0182959GE19AGL   +99999+99999GF199999999999018291999999MA1101085101065OC101135REMMET10301/04/25 07:51:02 METAR KTEB 041251Z 30013G22KT 10SM OVC060 M01/M12 A2985 RMK AO2 SLP106 T10111122 (MB)
0246725025947412025010413517+40859-074056FM-15+0002KTEB V0203005N00675018295MN0160935N5-00115-01335101135ADDAA101000095GA1075+018295999GD13991+0182959GE19AGL   +99999+99999GF199999999999018291999999MA1101155101135OC101345REMMET12101/04/25 08:51:02 METAR KTEB 041351Z 30013G26KT 10SM BKN060 M01/M13 A2987 RMK AO2 PK WND 29026/1345 SLP113 T10111133 (MB)
0279725025947412025010414517+40859-074056FM-15+0002KTEB V0203105N00625018295MN0160935N5+00005-01225101205ADDAA101000095GA1085+018295999GD14991+0182959GE19AGL   +99999+99999GF199999999999018291999999MA1101225101205MD1390159+9999OC101035OD149901691300REMMET12601/04/25 09:51:02 METAR KTEB 041451Z 31012G20KT 10SM OVC060 00/M12 A2989 RMK AO2 PK WND 30033/1428 SLP120 T00001122 53015 (MB)
0274725025947412025010415517+40859-074056FM-15+0002KTEB V0202905N01035018295MN0144845N5-00065-01335101195ADDAA101000025GA1075+018295999GD13991+0182959GE19AGL   +99999+99999GF199999999999018291999999MA1101195101165OC101805OD149901901320REMMET13501/04/25 10:51:02 METAR KTEB 041551Z 29020G35KT 9SM BKN060 M01/M13 A2988 RMK AO2 PK WND 32037/1528 SNB36E51 SLP119 P0000 T10061133 (MB)
0293725025947412025010416517+40859-074056FM-15+0002KTEB V0203005N011352200059N0160935N5+00005-01395101125ADDAA101000025GA1025+018295999GD11991+0182959GE19AGL   +99999+99999GF102995999999018291999999MA1101125101095OC101805OD149902001310REMMET13501/04/25 11:51:02 METAR KTEB 041651Z 30022G35KT 10SM FEW060 00/M14 A2986 RMK AO2 PK WND 31039/1618 SNB20E47 SLP112 P0000 T00001139 (MB)EQDD01      0ADE726
0334725025947412025010417517+40859-074056FM-15+0002KTEB V0202905N00885018295MN0160935N5+00065-01225101065ADDAA101000095AA206000021GA1075+018295999GD13991+0182959GE19AGL   +99999+99999GF199999999999018291999999KA1060M+00061KA2060N-00171MA1101085101065MD1890149+9999OC101445OD149901641280REMMET14401/04/25 12:51:02 METAR KTEB 041751Z 29017G28KT 10SM BKN060 01/M12 A2985 RMK AO2 PK WND 28032/1741 SLP106 60000 T00061122 10006 21017 58014 (MB)
0278725025947412025010418517+40859-074056FM-15+0002KTEB V0203105N008252200059N0160935N5+00005-01285101095ADDAA101000095GA1045+018295999GD12991+0182959GE19AGL   +99999+99999GF104995999999018291999999MA1101085101065OC101545OD149901541290REMMET12001/04/25 13:51:02 METAR KTEB 041851Z 31016G30KT 10SM SCT060 00/M13 A2985 RMK AO2 PK WND 29030/1807 SLP109 T00001128 (MB)EQDD01      0ADE726
0246725025947412025010419517+40859-074056FM-15+0002KTEB V0203005N00625019815MN0160935N5-00065-01395101175ADDAA101000095GA1075+019815999GD13991+0198159GE19AGL   +99999+99999GF199999999999019811999999MA1101195101165OC101495REMMET12101/04/25 14:51:02 METAR KTEB 041951Z 30012G29KT 10SM BKN065 M01/M14 A2988 RMK AO2 PK WND 32034/1926 SLP117 T10061139 (MB)
0266725025947412025010420517+40859-074056FM-15+0002KTEB V0203105N00675019815MN0160935N5-00065-01395101245ADDAA101000095GA1085+019815999GD14991+0198159GE19AGL   +99999+99999GF199999999999019811999999MA1101255101235MD1390179+9999OC101545REMMET12701/04/25 15:51:02 METAR KTEB 042051Z 31013G30KT 10SM OVC065 M01/M14 A2990 RMK AO2 PK WND 29031/2020 SLP124 T10061139 53017 (BR)
0228725025947412025010421517+40859-074056FM-15+0002KTEB V0202905N00625019815MN0160935N5-00115-01445101295ADDAA101000095GA1085+019815999GD14991+0198159GE19AGL   +99999+99999GF199999999999019811999999MA1101295101265OC101135REMMET10301/04/25 16:51:02 METAR KTEB 042151Z 29012G22KT 10SM OVC065 M01/M14 A2991 RMK AO2 SLP129 T10111144 (BR)
0246725025947412025010422517+40859-074056FM-15+0002KTEB V0202805N00725021345MN0160935N5-00115-01445101345ADDAA101000095GA1075+021345999GD13991+0213459GE19AGL   +99999+99999GF199999999999021341999999MA1101355101335OC101245REMMET12101/04/25 17:51:02 METAR KTEB 042251Z 28014G24KT 10SM BKN070 M01/M14 A2993 RMK AO2 PK WND 28026/2152 SLP134 T10111144 (BR)
0275725025947412025010423517+40859-074056FM-15+0002KTEB V0202605N00625022865MN0160935N5-00115-01395101355ADDAA101000095GA1085+022865999GD14991+0228659GE19AGL   +99999+99999GF199999999999022861999999KA1060M+00061KA2060N-00111MA1101355101335MD1190119+9999REMMET11801/04/25 18:51:02 METAR KTEB 042351Z 26012KT 10SM OVC075 M01/M14 A2993 RMK AO2 SLP135 T10111139 10006 21011 51011 (BR)
0223725025947412025010500517+40859-074056FM-15+0002KTEB V0202905N00775022865MN0160935N5-00115-01395101375ADDAA101000095GA1085+022865999GD14991+0228659GE19AGL   +99999+99999GF199999999999022861999999MA1101395101365OC101185REMMET09801/04/25 19:51:01 METAR KTEB 050051Z 29015G23KT 10SM OVC075 M01/M14 A2994 RMK AO2 SLP137 T10111139
0231725025947412025010501517+40859-074056FM-15+0002KTEB V0202705N006252200059N0160935N5-00175-01395101425ADDAA101000095GA1025+016765999GD11991+0167659GE19AGL   +99999+99999GF102995999999016761999999MA1101425101405REMMET09501/04/25 20:51:01 METAR KTEB 050151Z 27012KT 10SM FEW055 M02/M14 A2995 RMK AO2 SLP142 T10171139EQDD01      0ADE726
0281725025947412025010502517+40859-074056FM-15+0002KTEB V0202905N00465018295MN0160935N5-00175-01395101455ADDAA101000095GA1025+014945999GA2075+018295999GD11991+0149459GD23991+0182959GE19AGL   +99999+99999GF199999999999014941999999MA1101465101435MD1390109+9999OC101035REMMET11101/04/25 21:51:01 METAR KTEB 050251Z 29009G20KT 10SM FEW049 BKN060 M02/M14 A2996 RMK AO2 SLP145 T10171139 53010
0223725025947412025010503517+40859-074056FM-15+0002KTEB V0202805N00515018295MN0160935N5-00225-01335101505ADDAA101000095GA1075+018295999GD13991+0182959GE19AGL   +99999+99999GF199999999999018291999999MA1101525101505OC101035REMMET09801/04/25 22:51:02 METAR KTEB 050351Z 28010G20KT 10SM BKN060 M02/M13 A2998 RMK AO2 SLP150 T10221133
0259725025947412025010504517+40859-074056FM-15+0002KTEB V0202605N00625015245MN0160935N5-00225-01335101495ADDAA101000095GA1085+015245999GD14991+0152459GE19AGL   +99999+99999GF199999999999015241999999KA1240M+00061KA2240N-00221MA1101495101475OC100985REMMET10801/04/25 23:51:02 METAR KTEB 050451Z 26012G19KT 10SM OVC050 M02/M13 A2997 RMK AO2 SLP149 T10221133 400061022
0886725025947412025010504596+40859-074056SOD  +0002KTEB V020999999999999999999999999999+99999+99999999999ADDAA124000025KA1240M+00065KA2240N-00215MG1101024100754OE11240201231011185OE22240129631011425OE33240066299999995REMSOD73024 HR PRECIPITATION (IN):T     24 HR MAX TEMP (F):33 24 HR MAX TEMP TIME (LST):1328 24 HR MIN TEMP (F):28 24 HR MIN TEMP TIME (LST):2359 AVERAGE STATION PRESSURE:29.830 MINIMUM SEA LEVEL PRESSURE:29.75 TIME OF OCCURRENCE:0141 PEAK WIND SPEED (MPH):45  PEAK WIND DIR (DEG):310 PEAK WIND TIME (LST):1118  FASTEST 2MIN SPEED (MPH):29 FASTEST 2MIN DIR (DEG):310 FASTEST 2MIN TIME (LST):1142 AVERAGE WIND SPEED (MPH):14.8 24 HR AVG TEMP (F):31 HEATING DEGREE DAYS:34  COOLING DEGREE DAYS:0   LATEST DAY MAX TEMP (0700-1900 LST):33  LATEST NIGHT MIN TEMP(1900-0800 LST):29 HOURLY INCREMENTAL PRECIPITATION VALUES (IN):.00 0.00 0.00 0.00 0.00 0.00 0.00 0.00 0.00 0.00 T    T    0.00 0.00 0.00 0.00 0.00 0.00 0.00 0.00 0.00 0.00 0.00 0.00EQDR01     N7GJS072R02     N7GKS075
0275725025947412025010505517+40859-074056FM-15+0002KTEB V0202605N00515019815MN0160935N5-00225-01225101495ADDAA101000095GA1075+019815999GD13991+0198159GE19AGL   +99999+99999GF199999999999019811999999KA1060M-00111KA2060N-00221MA1101495101475MD1190049+9999REMMET11801/05/25 00:51:02 METAR KTEB 050551Z 26010KT 10SM BKN065 M02/M12 A2997 RMK AO2 SLP149 T10221122 11011 21022 51004 (DA)
0228725025947412025010506517+40859-074056FM-15+0002KTEB V0202705N00575015245MN0160935N5-00225-01225101545ADDAA101000095GA1085+015245999GD14991+0152459GE19AGL   +99999+99999GF199999999999015241999999MA1101565101535OC101085REMMET10301/05/25 01:51:02 METAR KTEB 050651Z 27011G21KT 10SM OVC050 M02/M12 A2999 RMK AO2 SLP154 T10221122 (DA)
0228725025947412025010507517+40859-074056FM-15+0002KTEB V0202805N00575014945MN0160935N5-00225-01225101555ADDAA101000095GA1085+014945999GD14991+0149459GE19AGL   +99999+99999GF199999999999014941999999MA1101565101535OC100935REMMET10301/05/25 02:51:02 METAR KTEB 050751Z 28011G18KT 10SM OVC049 M02/M12 A2999 RMK AO2 SLP155 T10221122 (DA)
0248725025947412025010508517+40859-074056FM-15+0002KTEB V0202805N00465014335MN0160935N5-00225-01225101545ADDAA101000095GA1085+014335999GD14991+0143359GE19AGL   +99999+99999GF199999999999014331999999MA1101565101535MD1090059+9999OC101085REMMET10901/05/25 03:51:02 METAR KTEB 050851Z 28009G21KT 10SM OVC047 M02/M12 A2999 RMK AO2 SLP154 T10221122 50005 (DA)
0217725025947412025010509517+40859-074056FM-15+0002KTEB V0202705N00415014025MN0160935N5-00225-01115101565ADDAA101000095GA1085+014025999GD14991+0140259GE19AGL   +99999+99999GF199999999999014021999999MA1101565101535REMMET10001/05/25 04:51:02 METAR KTEB 050951Z 27008KT 10SM OVC046 M02/M11 A2999 RMK AO2 SLP156 T10221111 (DA)
0217725025947412025010510517+40859-074056FM-15+0002KTEB V0202605N00465014335MN0160935N5-00285-01115101605ADDAA101000095GA1085+014335999GD14991+0143359GE19AGL   +99999+99999GF199999999999014331999999MA1101595101575REMMET10001/05/25 05:51:02 METAR KTEB 051051Z 26009KT 10SM OVC047 M03/M11 A3000 RMK AO2 SLP160 T10281111 (DA)
0275725025947412025010511517+40859-074056FM-15+0002KTEB V0202705N00365014335MN0160935N5-00285-01115101645ADDAA101000095GA1085+014335999GD14991+0143359GE19AGL   +99999+99999GF199999999999014331999999KA1060M-00221KA2060N-00281MA1101635101605MD1390099+9999REMMET11801/05/25 06:51:02 METAR KTEB 051151Z 27007KT 10SM OVC047 M03/M11 A3001 RMK AO2 SLP164 T10281111 11022 21028 53009 (DA)
0217725025947412025010512517+40859-074056FM-15+0002KTEB V0202505N00415014335MN0160935N5-00285-01115101655ADDAA101000095GA1085+014335999GD14991+0143359GE19AGL   +99999+99999GF199999999999014331999999MA1101665101645REMMET10001/05/25 07:51:02 METAR KTEB 051251Z 25008KT 10SM OVC047 M03/M11 A3002 RMK AO2 SLP165 T10281111 (DI)
0217725025947412025010513517+40859-074056FM-15+0002KTEB V0202705N00515014635MN0160935N5-00225-01115101705ADDAA101000095GA1085+014635999GD14991+0146359GE19AGL   +99999+99999GF199999999999014631999999MA1101695101675REMMET10001/05/25 08:51:02 METAR KTEB 051351Z 27010KT 10SM OVC048 M02/M11 A3003 RMK AO2 SLP170 T10221111 (DI)
0248725025947412025010514517+40859-074056FM-15+0002KTEB V0202605N00625015245MN0160935N5-00175-01115101725ADDAA101000095GA1085+015245999GD14991+0152459GE19AGL   +99999+99999GF199999999999015241999999MA1101735101705MD1290089+9999OC100935REMMET10901/05/25 09:51:02 METAR KTEB 051451Z 26012G18KT 10SM OVC050 M02/M11 A3004 RMK AO2 SLP172 T10171111 52008 (DI)
0228725025947412025010515517+40859-074056FM-15+0002KTEB V0202705N00775015245MN0160935N5-00115-01065101695ADDAA101000095GA1085+015245999GD14991+0152459GE19AGL   +99999+99999GF199999999999015241999999MA1101695101675OC101185REMMET10301/05/25 10:51:02 METAR KTEB 051551Z 27015G23KT 10SM OVC050 M01/M11 A3003 RMK AO2 SLP169 T10111106 (DI)
0228725025947412025010516517+40859-074056FM-15+0002KTEB V0202805N00675014335MN0160935N5-00115-01115101625ADDAA101000095GA1085+014335999GD14991+0143359GE19AGL   +99999+99999GF199999999999014331999999MA1101635101605OC101035REMMET10301/05/25 11:51:02 METAR KTEB 051651Z 28013G20KT 10SM OVC047 M01/M11 A3001 RMK AO2 SLP162 T10111111 (DI)
0317725025947412025010517517+40859-074056FM-15+0002KTEB V0203005N00985014945MN0160935N5+00005-01175101575ADDAA101000095GA1085+014945999GD14991+0149459GE19AGL   +99999+99999GF199999999999014941999999KA1060M+00001KA2060N-00281MA1101595101575MD1890159+9999OC101445OD149901441300REMMET13801/05/25 12:51:02 METAR KTEB 051751Z 30019G28KT 10SM OVC049 00/M12 A3000 RMK AO2 PK WND 30028/1751 SLP157 T00001117 10000 21028 58015 (DI)
0278725025947412025010518517+40859-074056FM-15+0002KTEB V0203005N009852200059N0160935N5+00005-01115101585ADDAA101000095GA1045+014635999GD12991+0146359GE19AGL   +99999+99999GF104995999999014631999999MA1101595101575OC101445OD149901441320REMMET12001/05/25 13:51:02 METAR KTEB 051851Z 30019G28KT 10SM SCT048 00/M11 A3000 RMK AO2 PK WND 32028/1848 SLP158 T00001111 (DI)EQDD01      0ADE726
0234725025947412025010519517+40859-074056FM-15+0002KTEB V0203105N006752200059N0160935N5+00005-01115101635ADDAA101000095GA1005+999999999GD10991+9999999GF100991999999999999999999MA1101635101605OC101445OD149901441320REMMET11701/05/25 14:51:02 METAR KTEB 051951Z 31013G28KT 10SM CLR 00/M11 A3001 RMK AO2 PK WND 32028/1942 SLP163 T00001111 (DI)
0255725025947412025010520517+40859-074056FM-15+0002KTEB V0203305N007752200059N0160935N5-00065-01175101695ADDAA101000095GA1005+999999999GD10991+9999999GF100991999999999999999999MA1101695101675MD1390129+9999OC101035OD149901391320REMMET12401/05/25 15:51:02 METAR KTEB 052051Z 33015G20KT 10SM CLR M01/M12 A3003 RMK AO2 PK WND 32027/2024 SLP169 T10061117 53012 (SA)
0247725025947412025010521517+40859-074056FM-15+0002KTEB V0203105N004652200059N0160935N5-00115-01175101725ADDAA101000095GA1025+013115999GD11991+0131159GE19AGL   +99999+99999GF102995999999013111999999MA1101735101705OC101185REMMET10301/05/25 16:51:02 METAR KTEB 052151Z 31009G23KT 10SM FEW043 M01/M12 A3004 RMK AO2 SLP172 T10111117 (SA)EQDD01      0ADE726
0203725025947412025010522517+40859-074056FM-15+0002KTEB V0203005N005752200059N0160935N5-00115-01175101735ADDAA101000095GA1005+999999999GD10991+9999999GF100991999999999999999999MA1101735101705OC101135REMMET10001/05/25 17:51:02 METAR KTEB 052251Z 30011G22KT 10SM CLR M01/M12 A3004 RMK AO2 SLP173 T10111117 (SA)
0261725025947412025010523517+40859-074056FM-15+0002KTEB V0202905N005752200059N0160935N5-00115-01115101745ADDAA101000095GA1005+999999999GD10991+9999999GF100991999999999999999999KA1060M+00061KA2060N-00111MA1101735101705MD1190059+9999OC100985REMMET11801/05/25 18:51:02 METAR KTEB 052351Z 29011G19KT 10SM CLR M01/M11 A3004 RMK AO2 SLP174 T10111111 10006 21011 51005 (SA)
0187725025947412025010600517+40859-074056FM-15+0002KTEB V0202905N005752200059N0160935N5-00175-01115101745ADDAA101000095GA1005+999999999GD10991+9999999GF100991999999999999999999MA1101735101705REMMET09201/05/25 19:51:01 METAR KTEB 060051Z 29011KT 10SM CLR M02/M11 A3004 RMK AO2 SLP174 T10171111
0187725025947412025010601517+40859-074056FM-15+0002KTEB V0202605N003652200059N0160935N5-00175-01065101725ADDAA101000095GA1005+999999999GD10991+9999999GF100991999999999999999999MA1101735101705REMMET09201/05/25 20:51:01 METAR KTEB 060151Z 26007KT 10SM CLR M02/M11 A3004 RMK AO2 SLP172 T10171106
0207725025947412025010602517+40859-074056FM-15+0002KTEB V0202605N001552200059N0160935N5-00225-01005101735ADDAA101000095GA1005+999999999GD10991+9999999GF100991999999999999999999MA1101735101705MD1590009+9999REMMET09801/05/25 21:51:01 METAR KTEB 060251Z 26003KT 10SM CLR M02/M10 A3004 RMK AO2 SLP173 T10221100 55000
0187725025947412025010603517+40859-074056FM-15+0002KTEB V0202705N002652200059N0160935N5-00225-00945101735ADDAA101000095GA1005+999999999GD10991+9999999GF100991999999999999999999MA1101735101705REMMET09201/05/25 22:51:02 METAR KTEB 060351Z 27005KT 10SM CLR M02/M09 A3004 RMK AO2 SLP173 T10221094
0223725025947412025010604517+40859-074056FM-15+0002KTEB V0202305N003152200059N0160935N5-00335-00945101735ADDAA101000095GA1005+999999999GD10991+9999999GF100991999999999999999999KA1240M+00061KA2240N-00331MA1101735101705REMMET10201/05/25 23:51:02 METAR KTEB 060451Z 23006KT 10SM CLR M03/M09 A3004 RMK AO2 SLP173 T10331094 400061033
0886725025947412025010604596+40859-074056SOD  +0002KTEB V020999999999999999999999999999+99999+99999999999ADDAA124000095KA1240M+00065KA2240N-00325MG1101574101464OE11240143132014425OE22240107330013505OE33240054199999995REMSOD73024 HR PRECIPITATION (IN):0.00  24 HR MAX TEMP (F):33 24 HR MAX TEMP TIME (LST):1341 24 HR MIN TEMP (F):26 24 HR MIN TEMP TIME (LST):2357 AVERAGE STATION PRESSURE:29.995 MINIMUM SEA LEVEL PRESSURE:29.96 TIME OF OCCURRENCE:0034 PEAK WIND SPEED (MPH):32  PEAK WIND DIR (DEG):320 PEAK WIND TIME (LST):1442  FASTEST 2MIN SPEED (MPH):24 FASTEST 2MIN DIR (DEG):300 FASTEST 2MIN TIME (LST):1350 AVERAGE WIND SPEED (MPH):12.1 24 HR AVG TEMP (F):30 HEATING DEGREE DAYS:35  COOLING DEGREE DAYS:0   LATEST DAY MAX TEMP (0700-1900 LST):33  LATEST NIGHT MIN TEMP(1900-0800 LST):27 HOURLY INCREMENTAL PRECIPITATION VALUES (IN):.00 0.00 0.00 0.00 0.00 0.00 0.00 0.00 0.00 0.00 0.00 0.00 0.00 0.00 0.00 0.00 0.00 0.00 0.00 0.00 0.00 0.00 0.00 0.00EQDR01     N7GJS072R02     N7GKS075
0294725025947412025010605517+40859-074056FM-15+0002KTEB V0202505N003652200059N0160935N5-00285-01005101715ADDAA101000095GA1025+010975999GD11991+0109759GE19AGL   +99999+99999GF102995999999010971999999KA1060M-00111KA2060N-00391MA1101735101705MD1890029+9999REMMET11801/06/25 00:51:02 METAR KTEB 060551Z 25007KT 10SM FEW036 M03/M10 A3004 RMK AO2 SLP171 T10281100 11011 21039 58002 (AB)EQDD01      0ADE726
0192725025947412025010606517+40859-074056FM-15+0002KTEB V0202305N002652200059N0160935N5-00285-00945101705ADDAA101000095GA1005+999999999GD10991+9999999GF100991999999999999999999MA1101735101705REMMET09701/06/25 01:51:02 METAR KTEB 060651Z 23005KT 10SM CLR M03/M09 A3004 RMK AO2 SLP170 T10281094 (AB)
0192725025947412025010607517+40859-074056FM-15+0002KTEB V0202405N003152200059N0160935N5-00285-00945101705ADDAA101000095GA1005+999999999GD10991+9999999GF100991999999999999999999MA1101695101675REMMET09701/06/25 02:51:02 METAR KTEB 060751Z 24006KT 10SM CLR M03/M09 A3003 RMK AO2 SLP170 T10281094 (AB)
0212725025947412025010608517+40859-074056FM-15+0002KTEB V0202705N001552200059N0160935N5-00225-00895101585ADDAA101000095GA1005+999999999GD10991+9999999GF100991999999999999999999MA1101595101575MD1890139+9999REMMET10301/06/25 03:51:02 METAR KTEB 060851Z 27003KT 10SM CLR M02/M09 A3000 RMK AO2 SLP158 T10221089 58013 (AB)
0192725025947412025010609517+40859-074056FM-15+0002KTEB V0201505N001552200059N0160935N5-00285-00895101505ADDAA101000095GA1005+999999999GD10991+9999999GF100991999999999999999999MA1101495101475REMMET09701/06/25 04:51:02 METAR KTEB 060951Z 15003KT 10SM CLR M03/M09 A2997 RMK AO2 SLP150 T10281089 (AB)
0192725025947412025010610517+40859-074056FM-15+0002KTEB V0201905N001552200059N0160935N5-00285-00835101535ADDAA101000095GA1005+999999999GD10991+9999999GF100991999999999999999999MA1101525101505REMMET09701/06/25 05:51:02 METAR KTEB 061051Z 19003KT 10SM CLR M03/M08 A2998 RMK AO2 SLP153 T10281083 (AB)
0250725025947412025010611517+40859-074056FM-15+0002KTEB V0202005N002152200059N0160935N5-00225-00835101445ADDAA101000095GA1005+999999999GD10991+9999999GF100991999999999999999999KA1060M-00221KA2060N-00331MA1101465101435MD1890159+9999REMMET11501/06/25 06:51:02 METAR KTEB 061151Z 20004KT 10SM CLR M02/M08 A2996 RMK AO2 SLP144 T10221083 11022 21033 58015 (AB)
0236725025947412025010612517+40859-074056FM-15+0002KTEB V0202005N002152200059N0160935N5-00175-00835101405ADDAA101000095GA1025+036585999GD11991+0365859GE19AGL   +99999+99999GF102995999999036581999999MA1101425101405REMMET10001/06/25 07:51:02 METAR KTEB 061251Z 20004KT 10SM FEW120 M02/M08 A2995 RMK AO2 SLP140 T10171083 (DI)EQDD01      0ADE726
0217725025947412025010613517+40859-074056FM-15+0002KTEB V0209999C00005028965MN0160935N5-00175-00835101305ADDAA101000095GA1085+028965999GD14991+0289659GE19AGL   +99999+99999GF199999999999028961999999MA1101325101305REMMET10001/06/25 08:51:02 METAR KTEB 061351Z 00000KT 10SM OVC095 M02/M08 A2992 RMK AO2 SLP130 T10171083 (DI)
0274725025947412025010614517+40859-074056FM-15+0002KTEB V0209999C00005018295MN0128755N5-00115-00785101265ADDAA101000095GA1075+018295999GA2085+022865999GD13991+0182959GD24991+0228659GE19AGL   +99999+99999GF199999999999018291999999MA1101255101235MD1890189+9999REMMET11201/06/25 09:51:02 METAR KTEB 061451Z 00000KT 8SM BKN060 OVC075 M01/M08 A2990 RMK AO2 SLP126 T10111078 58018 (AZ)
0335725025947412025010615517+40859-074056FM-15+0002KTEB V0209999C00005009145MN0040235N5-00175-00615101165ADDAA101000025AU110030015AW1715GA1075+009145999GA2075+010975999GA3085+014945999GD13991+0091459GD23991+0109759GD34991+0149459GE19AGL   +99999+99999GF199999999999009141999999MA1101155101135MW1715REMMET13301/06/25 10:51:02 METAR KTEB 061551Z 00000KT 2 1/2SM -SN BKN030 BKN036 OVC049 M02/M06 A2987 RMK AO2 SNB11 SLP116 P0000 T10171061 (SW)
0280725025947412025010616007+40859-074056FM-16+0002KTEB V0209999C00005008535MN0032195N5-00175-00615999999ADDAA101000021AU110030015AW1715GA1075+008535999GA2085+010975999GD13991+0085359GD24991+0109759GE19AGL   +99999+99999GF199999999999008531999999MA1101155101135MW1715REMMET10901/06/25 11:00:02 SPECI KTEB 061600Z 00000KT 2SM -SN BKN028 OVC036 M02/M06 A2987 RMK AO2 P0000 T10171061 (SW)
0325725025947412025010616247+40859-074056FM-16+0002KTEB V0200105N00265010365MN0032195N5-00175-00615999999ADDAA101000021AU110030015AW1715GA1075+010365999GA2075+014635999GA3085+021345999GD13991+0103659GD23991+0146359GD34991+0213459GE19AGL   +99999+99999GF199999999999010361999999MA1101055101035MW1715REMMET12301/06/25 11:24:02 SPECI KTEB 061624Z 01005KT 2SM -SN BKN034 BKN048 OVC070 M02/M06 A2984 RMK AO2 PRESFR P0000 T10171061 (SW)
0318725025947412025010616317+40859-074056FM-16+0002KTEB V0209999V00265014635MN0064375N5-00175-00565999999ADDAA101000021AU110030015AW1715GA1045+010975999GA2075+014635999GA3085+022865999GD12991+0109759GD23991+0146359GD34991+0228659GE19AGL   +99999+99999GF199999999999010971999999MA1101025100995MW1715REMMET11601/06/25 11:31:02 SPECI KTEB 061631Z VRB05KT 4SM -SN SCT036 BKN048 OVC075 M02/M06 A2983 RMK AO2 P0000 T10171056 (SW)
0325725025947412025010616517+40859-074056FM-15+0002KTEB V0200105N00215016765MN0048285N5-00175-00565101015ADDAA101000025AU110030015AW1715GA1045+013725999GA2075+016765999GA3085+022865999GD12991+0137259GD23991+0167659GD34991+0228659GE19AGL   +99999+99999GF199999999999013721999999MA1101025100995MW1715REMMET12301/06/25 11:51:02 METAR KTEB 061651Z 01004KT 3SM -SN SCT045 BKN055 OVC075 M02/M06 A2983 RMK AO2 SLP101 P0000 T10171056 (SW)
0354725025947412025010617357+40859-074056FM-16+0002KTEB V0203605N00215010365MN0028165N5-00225-00505999999ADDAA101000231AU110030015AW1715GA1025+007325999GA2075+010365999GA3085+018295999GD11991+0073259GD23991+0103659GD34991+0182959GE19AGL   +99999+99999GF199999999999007321999999MA1100915100895MW1715OD149901331120REMMET13801/06/25 12:35:02 SPECI KTEB 061735Z 36004KT 1 3/4SM -SN FEW024 BKN034 OVC060 M02/M05 A2980 RMK AO2 PK WND 12026/1707 P0001 T10221050 (SW)
0458725025947412025010617517+40859-074056FM-15+0002KTEB V0200105N00215010365MN0032195N5-00225-00505100855ADDAA101000395AA206000391AU110030015AW1715GA1025+007625999GA2075+010365999GA3085+016765999GD11991+0076259GD23991+0103659GD34991+0167659GE19AGL   +99999+99999GF199999999999007621999999KA1060M+00111KA2060N-00221MA1100855100825MD1890419+9999MW1715OD149901331120REMMET17201/06/25 12:51:02 METAR KTEB 061751Z 01004KT 2SM -SN FEW025 BKN034 OVC055 M02/M05 A2978 RMK AO2 PK WND 12026/1707 PRESFR SLP085 P0001 60001 T10221050 10011 21022 58041 (SW)EQDQ01  00028PRCP06
0338725025947412025010618027+40859-074056FM-16+0002KTEB V0200105N00215012505MN0048285N5-00225-00445999999ADDAA101000021AU110030015AU200001015AW1105AW2715GA1025+007625999GA2075+012505999GA3085+021345999GD11991+0076259GD23991+0125059GD34991+0213459GE19AGL   +99999+99999GF199999999999007621999999MA1100855100825MW1715REMMET11901/06/25 13:02:02 SPECI KTEB 061802Z 01004KT 3SM -SN BR FEW025 BKN041 OVC070 M02/M04 A2978 RMK AO2 P0000 T10221044 (SW)
0242725025947412025010618237+40859-074056FM-16+0002KTEB V0203505N00315004575MN0048285N5-00225-00505999999ADDAA101000231AU110030015AW1715GA1085+004575999GD14991+0045759GE19AGL   +99999+99999GF199999999999004571999999MA1100815100795MW1715REMMET10201/06/25 13:23:02 SPECI KTEB 061823Z 35006KT 3SM -SN OVC015 M02/M05 A2977 RMK AO2 P0001 T10221050 (SW)
0242725025947412025010618387+40859-074056FM-16+0002KTEB V0209999V00265003665MN0048285N5-00175-00505999999ADDAA101000231AU110030015AW1715GA1085+003665999GD14991+0036659GE19AGL   +99999+99999GF199999999999003661999999MA1100815100795MW1715REMMET10201/06/25 13:38:02 SPECI KTEB 061838Z VRB05KT 3SM -SN OVC012 M02/M05 A2977 RMK AO2 P0001 T10171050 (SW)
0256725025947412025010618517+40859-074056FM-15+0002KTEB V0200405N00265003665MN0048285N5-00175-00445100735ADDAA101000395AU110030015AW1715GA1085+003665999GD14991+0036659GE19AGL   +99999+99999GF199999999999003661999999MA1100755100725MW1715REMMET11601/06/25 13:51:02 METAR KTEB 061851Z 04005KT 3SM -SN OVC012 M02/M04 A2975 RMK AO2 PRESFR SLP073 P0001 T10171044 (SW)
0287725025947412025010618587+40859-074056FM-16+0002KTEB V0200205N00315019815MN0128755N5-00175-00505999999ADDAA101000021AU110030015AW1715GA1045+003665999GA2085+019815999GD12991+0036659GD24991+0198159GE19AGL   +99999+99999GF199999999999003661999999MA1100685100655MW1715REMMET11601/06/25 13:58:02 SPECI KTEB 061858Z 02006KT 8SM -SN SCT012 OVC065 M02/M05 A2973 RMK AO2 PRESFR P0000 T10171050 (SW)
0305725025947412025010619517+40859-074056FM-15+0002KTEB V0200105N00415018295MN0160935N5-00175-00505100655ADDAA101000025GA1025+003965999GA2075+018295999GA3085+027435999GD11991+0039659GD23991+0182959GD34991+0274359GE19AGL   +99999+99999GF199999999999003961999999MA1100685100655REMMET12601/06/25 14:51:02 METAR KTEB 061951Z 01008KT 10SM FEW013 BKN060 OVC090 M02/M05 A2973 RMK AO2 SNE12 SLP065 P0000 T10171050 (SW)
0292725025947412025010620517+40859-074056FM-15+0002KTEB V0200305N00315018295MN0160935N5-00115-00505100565ADDAA101000095AA203000391GA1025+004885999GA2085+018295999GD11991+0048859GD24991+0182959GE19AGL   +99999+99999GF199999999999004881999999MA1100585100555MD1690289+9999REMMET11901/06/25 15:51:02 METAR KTEB 062051Z 03006KT 10SM FEW016 OVC060 M01/M05 A2970 RMK AO2 SLP056 60001 T10111050 56028 (AZ)
0255725025947412025010621517+40859-074056FM-15+0002KTEB V0200305N00265018295MN0160935N5-00175-00565100535ADDAA101000095GA1075+018295999GA2085+024385999GD13991+0182959GD24991+0243859GE19AGL   +99999+99999GF199999999999018291999999MA1100545100525REMMET10701/06/25 16:51:02 METAR KTEB 062151Z 03005KT 10SM BKN060 OVC080 M02/M06 A2969 RMK AO2 SLP053 T10171056 (AZ)
0255725025947412025010622517+40859-074056FM-15+0002KTEB V0200205N00415033535MN0160935N5-00225-00615100495ADDAA101000095GA1025+027435999GA2075+033535999GD11991+0274359GD23991+0335359GE19AGL   +99999+99999GF199999999999027431999999MA1100515100485REMMET10701/06/25 17:51:02 METAR KTEB 062251Z 02008KT 10SM FEW090 BKN110 M02/M06 A2968 RMK AO2 SLP049 T10221061 (MV)
0330725025947412025010623517+40859-074056FM-15+0002KTEB V0200305N00315027435MN0160935N5-00285-00675100435ADDAA101000095AA206000391GA1075+027435999GA2075+033535999GD13991+0274359GD23991+0335359GE19AGL   +99999+99999GF199999999999027431999999KA1060M-00111KA2060N-00281MA1100445100425MD1890139+9999REMMET13101/06/25 18:51:02 METAR KTEB 062351Z 03006KT 10SM BKN090 BKN110 M03/M07 A2966 RMK AO2 SLP043 60001 T10281067 11011 21028 58013 (MV)
0250725025947412025010700517+40859-074056FM-15+0002KTEB V0203505N00415033535MN0160935N5-00285-00725100395ADDAA101000095GA1045+030485999GA2075+033535999GD12991+0304859GD23991+0335359GE19AGL   +99999+99999GF199999999999030481999999MA1100415100385REMMET10201/06/25 19:51:01 METAR KTEB 070051Z 35008KT 10SM SCT100 BKN110 M03/M07 A2965 RMK AO2 SLP039 T10281072
0223725025947412025010701517+40859-074056FM-15+0002KTEB V0203505N00675030485MN0160935N5-00445-00945100385ADDAA101000095GA1085+030485999GD14991+0304859GE19AGL   +99999+99999GF199999999999030481999999MA1100375100355OC101085REMMET09801/06/25 20:51:01 METAR KTEB 070151Z 35013G21KT 10SM OVC100 M04/M09 A2964 RMK AO2 SLP038 T10441094
0261725025947412025010702517+40859-074056FM-15+0002KTEB V0203405N00625033535MN0160935N5-00505-01115100465ADDAA101000095GA1085+033535999GD14991+0335359GE19AGL   +99999+99999GF199999999999033531999999MA1100475100455MD1390039+9999OC101185REMMET12201/06/25 21:51:01 METAR KTEB 070251Z 34012G23KT 10SM OVC110 M05/M11 A2967 RMK AO2 PK WND 33028/0223 SLP046 T10501111 53003
0223725025947412025010703517+40859-074056FM-15+0002KTEB V0203405V00515028965MN0160935N5-00505-01225100555ADDAA101000095GA1085+028965999GD14991+0289659GE19AGL   +99999+99999GF199999999999028961999999MA1100585100555OC100885REMMET09801/06/25 22:51:02 METAR KTEB 070351Z 34010G17KT 10SM OVC095 M05/M12 A2970 RMK AO2 SLP055 T10501122
0277725025947412025010704517+40859-074056FM-15+0002KTEB V0203305N00625030485MN0160935N5-00615-01395100645ADDAA101000095GA1085+030485999GD14991+0304859GE19AGL   +99999+99999GF199999999999030481999999KA1240M+00111KA2240N-00611MA1100645100625OC101445REMMET12601/06/25 23:51:02 METAR KTEB 070451Z 33012G28KT 10SM OVC100 M06/M14 A2972 RMK AO2 PK WND 31028/0448 SLP064 T10611139 400111061
0910725025947412025010704596+40859-074056SOD  +0002KTEB V020999999999999999999999999999+99999+99999999999ADDAA124000595AT1AU18SN  5AT2AU13BR  5KA1240M+00115KA2240N-00665MG1101074100374OE11240143133021235OE22240098332023485OE33240029199999995REMSOD73024 HR PRECIPITATION (IN):0.02  24 HR MAX TEMP (F):34 24 HR MAX TEMP TIME (LST):1210 24 HR MIN TEMP (F):20 24 HR MIN TEMP TIME (LST):2359 AVERAGE STATION PRESSURE:29.845 MINIMUM SEA LEVEL PRESSURE:29.64 TIME OF OCCURRENCE:2120 PEAK WIND SPEED (MPH):32  PEAK WIND DIR (DEG):330 PEAK WIND TIME (LST):2123  FASTEST 2MIN SPEED (MPH):22 FASTEST 2MIN DIR (DEG):320 FASTEST 2MIN TIME (LST):2348 AVERAGE WIND SPEED (MPH):6.5  24 HR AVG TEMP (F):27 HEATING DEGREE DAYS:38  COOLING DEGREE DAYS:0   LATEST DAY MAX TEMP (0700-1900 LST):34  LATEST NIGHT MIN TEMP(1900-0800 LST):25 HOURLY INCREMENTAL PRECIPITATION VALUES (IN):.00 0.00 0.00 0.00 0.00 0.00 0.00 0.00 0.00 0.00 T    T    0.01 0.01 T    0.00 0.00 0.00 0.00 0.00 0.00 0.00 0.00 0.00EQDR01     N7GJS072R02     N7GKS075
0293725025947412025010705517+40859-074056FM-15+0002KTEB V0203305N007752200059N0160935N5-00725-01505100725ADDAA101000095GA1005+999999999GD10991+9999999GF100991999999999999999999KA1060M-00281KA2060N-00721MA1100715100695MD1190259+9999OC101085OD149901441320REMMET13601/07/25 00:51:02 METAR KTEB 070551Z 33015G21KT 10SM CLR M07/M15 A2974 RMK AO2 PK WND 32028/0525 SLP072 T10721150 11028 21072 51025 (AB)
0235725025947412025010706517+40859-074056FM-15+0002KTEB V0203505N005152200059N0160935N5-00725-01445100705ADDAA101000095GA1005+999999999GD10991+9999999GF100991999999999999999999MA1100715100695OC101035OD149901391330REMMET11801/07/25 01:51:02 METAR KTEB 070651Z 35010G20KT 10SM CLR M07/M14 A2974 RMK AO2 PK WND 33027/0559 SLP070 T10721144 (AB)
0235725025947412025010707517+40859-074056FM-15+0002KTEB V0203305N010352200059N0160935N5-00675-01395100735ADDAA101000095GA1005+999999999GD10991+9999999GF100991999999999999999999MA1100755100725OC101545OD149901541330REMMET11801/07/25 02:51:02 METAR KTEB 070751Z 33020G30KT 10SM CLR M07/M14 A2975 RMK AO2 PK WND 33030/0750 SLP073 T10671139 (AB)
0266725025947412025010708517+40859-074056FM-15+0002KTEB V0203205N00675010975MN0160935N5-00615-01395100765ADDAA101000095GA1075+010975999GD13991+0109759GE19AGL   +99999+99999GF199999999999010971999999MA1100785100765MD1390049+9999OC101135REMMET12701/07/25 03:51:02 METAR KTEB 070851Z 32013G22KT 10SM BKN036 M06/M14 A2976 RMK AO2 PK WND 33027/0802 SLP076 T10611139 53004 (AB)
0246725025947412025010709517+40859-074056FM-15+0002KTEB V0203305N00465010975MN0160935N5-00615-01335100785ADDAA101000095GA1075+010975999GD13991+0109759GE19AGL   +99999+99999GF199999999999010971999999MA1100785100765OC101295REMMET12101/07/25 04:51:02 METAR KTEB 070951Z 33009G25KT 10SM BKN036 M06/M13 A2976 RMK AO2 PK WND 29028/0920 SLP078 T10611133 (AB)
0247725025947412025010710517+40859-074056FM-15+0002KTEB V0203105N007752200059N0160935N5-00565-01335100845ADDAA101000095GA1045+011285999GD12991+0112859GE19AGL   +99999+99999GF104995999999011281999999MA1100855100825OC101245REMMET10301/07/25 05:51:02 METAR KTEB 071051Z 31015G24KT 10SM SCT037 M06/M13 A2978 RMK AO2 SLP084 T10561133 (AB)EQDD01      0ADE726
0310725025947412025010711517+40859-074056FM-15+0002KTEB V0203305N008252200059N0160935N5-00565-01395100895ADDAA101000095AA224000591GA1005+999999999GD10991+9999999GF100991999999999999999999KA1060M-00561KA2060N-00721MA1100915100895MD1390149+9999OC101295OD149901331340REMMET14201/07/25 06:51:02 METAR KTEB 071151Z 33016G25KT 10SM CLR M06/M14 A2980 RMK AO2 PK WND 34026/1129 SLP089 70002 T10561139 11056 21072 53014 (AB)
0235725025947412025010712517+40859-074056FM-15+0002KTEB V0203205N005752200059N0160935N5-00505-01335100905ADDAA101000095GA1005+999999999GD10991+9999999GF100991999999999999999999MA1100915100895OC101085OD149901391310REMMET11801/07/25 07:51:02 METAR KTEB 071251Z 32011G21KT 10SM CLR M05/M13 A2980 RMK AO2 PK WND 31027/1159 SLP090 T10501133 (MB)
0235725025947412025010713517+40859-074056FM-15+0002KTEB V0203105N009352200059N0160935N5-00445-01395100935ADDAA101000095GA1005+999999999GD10991+9999999GF100991999999999999999999MA1100955100925OC101605OD149901591330REMMET11801/07/25 08:51:02 METAR KTEB 071351Z 31018G31KT 10SM CLR M04/M14 A2981 RMK AO2 PK WND 33031/1344 SLP093 T10441139 (MB)
0321725025947412025010714517+40859-074056FM-15+0002KTEB V0203205N008252200059N0144845N5-00395-01395100985ADDAA101000025AA203000021GA1005+999999999GD10991+9999999GF100991999999999999999999MA1100985100965MD1390099+9999OC101605OD149901691320REMMET14401/07/25 09:51:02 METAR KTEB 071451Z 32016G31KT 9SM CLR M04/M14 A2982 RMK AO2 PK WND 32033/1433 SNB44E51 SLP098 P0000 60000 T10391139 53009 (MB)EQDQ01  00002PRCP03Q02  00008PRCP03
0255725025947412025010715517+40859-074056FM-15+0002KTEB V0203205N009352200059N0144845N5-00285-01285100975ADDAA101000025GA1005+999999999GD10991+9999999GF100991999999999999999999MA1100985100965OC101495OD149901801300REMMET13801/07/25 10:51:02 METAR KTEB 071551Z 32018G29KT 9SM CLR M03/M13 A2982 RMK AO2 PK WND 30035/1530 SNB00E10B38E46 SLP097 P0000 T10281128 (DI)
0325725025947412025010716517+40859-074056FM-15+0002KTEB V0203105N007252200059N0144845N5-00115-01175100875ADDAA101000025AU110030015AW1715GA1025+013415999GD11991+0134159GE19AGL   +99999+99999GF102995999999013411999999MA1100885100865MW1715OC101705OD149901901310REMMET14401/07/25 11:51:02 METAR KTEB 071651Z 31014G33KT 9SM -SN FEW044 M01/M12 A2979 RMK AO2 PK WND 31037/1636 SNB1556E13B41 SLP087 P0000 T10111117 (DI)EQDD01      0ADE726
0341725025947412025010717517+40859-074056FM-15+0002KTEB V0203105N011852200059N0160935N5-00065-01175100825ADDAA101000025AA206000021GA1005+999999999GD10991+9999999GF100991999999999999999999KA1060M-00061KA2060N-00561MA1100855100825MD1890169+9999OC101755OD149901801300REMMET15401/07/25 12:51:02 METAR KTEB 071751Z 31023G34KT 10SM CLR M01/M12 A2978 RMK AO2 PK WND 30035/1726 SNE13 SLP082 P0000 60000 T10061117 11006 21056 58016 (DI)EQDQ01  00008PRCP06
0240725025947412025010718517+40859-074056FM-15+0002KTEB V0203005N010352200059N0160935N5+00005-01175100885ADDAA101000025GA1005+999999999GD10991+9999999GF100991999999999999999999MA1100885100865OC101855REMMET13701/07/25 13:51:02 METAR KTEB 071851Z 30020G36KT 10SM CLR 00/M12 A2979 RMK AO2 PK WND 31037/1752 SNB1753E22B47 SLP088 P0000 T00001117 (SW)
0254725025947412025010719517+40859-074056FM-15+0002KTEB V0203105N011852200059N0160935N5+00065-01115100895ADDAA101000025GA1005+999999999GD10991+9999999GF100991999999999999999999MA1100915100895OC101965OD149902111330REMMET13701/07/25 14:51:02 METAR KTEB 071951Z 31023G38KT 10SM CLR 01/M11 A2980 RMK AO2 PK WND 33041/1911 SNE1858B22E39 SLP089 P0000 T00061111 (SW)
0272725025947412025010720517+40859-074056FM-15+0002KTEB V0203205N009852200059N0160935N5-00065-01175101055ADDAA101000095AA203000021GA1005+999999999GD10991+9999999GF100991999999999999999999MA1101055101035MD1390239+9999OC101855OD149902051300REMMET13001/07/25 15:51:02 METAR KTEB 072051Z 32019G36KT 10SM CLR M01/M12 A2984 RMK AO2 PK WND 30040/2001 SLP105 60000 T10061117 53023 (BR)
0195725025947412025010721516+40859-074056FM-15+0002KTEB V0203105N008852200059N0160935N5-00175-01175101215ADDAA101000095GA1005+999999999GD10991+9999999MA1101225101205OC101965REMMET11801/07/25 16:51:02 METAR KTEB 072151Z 31017G38KT 10SM CLR M02/M12 A2989 RMK AO2 PK WND 31038/2147 SLP121 T10171117 (BR)
0284725025947412025010722517+40859-074056FM-15+0002KTEB V0203205N009852200059N0144845N5-00225-01225101335ADDAA101000025GA1025+013725999GD11991+0137259GE19AGL   +99999+99999GF102995999999013721999999MA1101325101305OC101755OD149902161280REMMET12601/07/25 17:51:02 METAR KTEB 072251Z 32019G34KT 9SM FEW045 M02/M12 A2992 RMK AO2 PK WND 28042/2201 SLP133 P0000 T10221122 (BR)EQDD01      0ADE726
0340725025947412025010723517+40859-074056FM-15+0002KTEB V0203105N008852200059N0160935N5-00285-01225101395ADDAA101000095AA206000021GA1025+012195999GD11991+0121959GE19AGL   +99999+99999GF102995999999012191999999KA1060M+00061KA2060N-00281MA1101395101365MD1190349+9999OC101705REMMET14501/07/25 18:51:02 METAR KTEB 072351Z 31017G33KT 10SM FEW040 M03/M12 A2994 RMK AO2 PK WND 32035/2326 SLP139 60000 T10281122 10006 21028 51034 (BR)EQDD01      0ADE726
0260725025947412025010800517+40859-074056FM-15+0002KTEB V0203205N005752200059N0160935N5-00335-01225101425ADDAA101000095GA1025+012805999GD11991+0128059GE19AGL   +99999+99999GF102995999999012801999999MA1101425101405OC101185REMMET11601/07/25 19:51:01 METAR KTEB 080051Z 32011G23KT 10SM FEW042 M03/M12 A2995 RMK AO2 PK WND 30037/2353 SLP142 T10331122EQDD01      0ADE726
0241725025947412025010801517+40859-074056FM-15+0002KTEB V0203205N00625013115MN0160935N5-00335-01225101495ADDAA101000095GA1085+013115999GD14991+0131159GE19AGL   +99999+99999GF199999999999013111999999MA1101495101475OC101245REMMET11601/07/25 20:51:01 METAR KTEB 080151Z 32012G24KT 10SM OVC043 M03/M12 A2997 RMK AO2 PK WND 30028/0130 SLP149 T10331122
0261725025947412025010802517+40859-074056FM-15+0002KTEB V0203205N00725013115MN0160935N5-00335-01175101505ADDAA101000095GA1075+013115999GD13991+0131159GE19AGL   +99999+99999GF199999999999013111999999MA1101525101505MD1190129+9999OC101135REMMET12201/07/25 21:51:01 METAR KTEB 080251Z 32014G22KT 10SM BKN043 M03/M12 A2998 RMK AO2 PK WND 32026/0153 SLP150 T10331117 51012
0241725025947412025010803517+40859-074056FM-15+0002KTEB V0203305N00625013115MN0160935N5-00285-01225101525ADDAA101000095GA1085+013115999GD14991+0131159GE19AGL   +99999+99999GF199999999999013111999999MA1101525101505OC101345REMMET11601/07/25 22:51:02 METAR KTEB 080351Z 33012G26KT 10SM OVC043 M03/M12 A2998 RMK AO2 PK WND 34033/0340 SLP152 T10281122
0296725025947412025010804517+40859-074056FM-15+0002KTEB V0203105N006752200059N0160935N5-00335-01285101465ADDAA101000095GA1025+013415999GD11991+0134159GE19AGL   +99999+99999GF102995999999013411999999KA1240M+00061KA2240N-00721MA1101465101435OC101545REMMET12601/07/25 23:51:02 METAR KTEB 080451Z 31013G30KT 10SM FEW044 M03/M13 A2996 RMK AO2 PK WND 32032/0439 SLP146 T10331128 400061072EQDD01      0ADE726
0898725025947412025010804596+40859-074056SOD  +0002KTEB V020999999999999999999999999999+99999+99999999999ADDAA124000025AT1AU18SN  5KA1240M+00065KA2240N-00715MG1100914100644OE11240219028017015OE22240138632015025OE33240080599999995REMSOD73024 HR PRECIPITATION (IN):T     24 HR MAX TEMP (F):33 24 HR MAX TEMP TIME (LST):1511 24 HR MIN TEMP (F):19 24 HR MIN TEMP TIME (LST):0215 AVERAGE STATION PRESSURE:29.800 MINIMUM SEA LEVEL PRESSURE:29.72 TIME OF OCCURRENCE:0008 PEAK WIND SPEED (MPH):49  PEAK WIND DIR (DEG):280 PEAK WIND TIME (LST):1701  FASTEST 2MIN SPEED (MPH):31 FASTEST 2MIN DIR (DEG):320 FASTEST 2MIN TIME (LST):1502 AVERAGE WIND SPEED (MPH):18.0 24 HR AVG TEMP (F):26 HEATING DEGREE DAYS:39  COOLING DEGREE DAYS:0   LATEST DAY MAX TEMP (0700-1900 LST):33  LATEST NIGHT MIN TEMP(1900-0800 LST):19 HOURLY INCREMENTAL PRECIPITATION VALUES (IN):.00 0.00 0.00 0.00 0.00 0.00 0.00 0.00 0.00 T    T    T    T    T    T    0.00 0.00 T    0.00 0.00 0.00 0.00 0.00 0.00EQDR01     N7GJS072R02     N7GKS075
0293725025947412025010805517+40859-074056FM-15+0002KTEB V0203105N007252200059N0160935N5-00335-01335101485ADDAA101000095GA1005+999999999GD10991+9999999GF100991999999999999999999KA1060M-00281KA2060N-00331MA1101495101475MD1590029+9999OC101605OD149901751300REMMET13601/08/25 00:51:02 METAR KTEB 080551Z 31014G31KT 10SM CLR M03/M13 A2997 RMK AO2 PK WND 30034/0511 SLP148 T10331133 11028 21033 55002 (AB)
0235725025947412025010806517+40859-074056FM-15+0002KTEB V0203105N007252200059N0160935N5-00395-01395101485ADDAA101000095GA1005+999999999GD10991+9999999GF100991999999999999999999MA1101495101475OC101295OD149901851310REMMET11801/08/25 01:51:02 METAR KTEB 080651Z 31014G25KT 10SM CLR M04/M14 A2997 RMK AO2 PK WND 31036/0603 SLP148 T10391139 (AB)
0246725025947412025010807517+40859-074056FM-15+0002KTEB V0203205N00625014635MN0160935N5-00335-01335101515ADDAA101000095GA1075+014635999GD13991+0146359GE19AGL   +99999+99999GF199999999999014631999999MA1101525101505OC101185REMMET12101/08/25 02:51:02 METAR KTEB 080751Z 32012G23KT 10SM BKN048 M03/M13 A2998 RMK AO2 PK WND 33033/0711 SLP151 T10331133 (AB)
0285725025947412025010808517+40859-074056FM-15+0002KTEB V0203005N01035014025MN0160935N5-00395-01335101485ADDAA101000095GA1075+014025999GD13991+0140259GE19AGL   +99999+99999GF199999999999014021999999MA1101495101475MD1890009+9999OC101395REMMET12701/08/25 03:51:02 METAR KTEB 080851Z 30020G27KT 10SM BKN046 M04/M13 A2997 RMK AO2 PK WND 30027/0851 SLP148 T10391133 58000 (AB)EQDQ018     3APCTEN
0246725025947412025010809517+40859-074056FM-15+0002KTEB V0203005N00575015245MN0160935N5-00395-01445101505ADDAA101000095GA1075+015245999GD13991+0152459GE19AGL   +99999+99999GF199999999999015241999999MA1101525101505OC101135REMMET12101/08/25 04:51:02 METAR KTEB 080951Z 30011G22KT 10SM BKN050 M04/M14 A2998 RMK AO2 PK WND 31027/0927 SLP150 T10391144 (AB)
0247725025947412025010810517+40859-074056FM-15+0002KTEB V0203405N004652200059N0160935N5-00445-01335101535ADDAA101000095GA1045+015245999GD12991+0152459GE19AGL   +99999+99999GF104995999999015241999999MA1101525101505OC100935REMMET10301/08/25 05:51:02 METAR KTEB 081051Z 34009G18KT 10SM SCT050 M04/M13 A2998 RMK AO2 SLP153 T10441133 (AB)EQDD01      0ADE726
0293725025947412025010811517+40859-074056FM-15+0002KTEB V0203205N008852200059N0160935N5-00505-01505101535ADDAA101000095GA1005+999999999GD10991+9999999GF100991999999999999999999KA1060M-00331KA2060N-00501MA1101525101505MD1190059+9999OC101245OD149901541320REMMET13601/08/25 06:51:02 METAR KTEB 081151Z 32017G24KT 10SM CLR M05/M15 A2998 RMK AO2 PK WND 32030/1134 SLP153 T10501150 11033 21050 51005 (AB)
0235725025947412025010812517+40859-074056FM-15+0002KTEB V0203105N009352200059N0160935N5-00505-01505101545ADDAA101000095GA1005+999999999GD10991+9999999GF100991999999999999999999MA1101565101535OC101395OD149901391320REMMET11801/08/25 07:51:02 METAR KTEB 081251Z 31018G27KT 10SM CLR M05/M15 A2999 RMK AO2 PK WND 32027/1250 SLP154 T10501150 (MB)
0265725025947412025010813517+40859-074056FM-15+0002KTEB V0203005N007752200059N0160935N5-00395-01445101515ADDAA101000095GA1025+014025999GD11991+0140259GE19AGL   +99999+99999GF102995999999014021999999MA1101525101505OC101185REMMET12101/08/25 08:51:02 METAR KTEB 081351Z 30015G23KT 10SM FEW046 M04/M14 A2998 RMK AO2 PK WND 29030/1306 SLP151 T10391144 (DI)EQDD01      0ADE726
0285725025947412025010814517+40859-074056FM-15+0002KTEB V0203005N005752200059N0160935N5-00285-01395101485ADDAA101000095GA1045+015245999GD12991+0152459GE19AGL   +99999+99999GF104995999999015241999999MA1101495101475MD1890059+9999OC101185REMMET12701/08/25 09:51:02 METAR KTEB 081451Z 30011G23KT 10SM SCT050 M03/M14 A2997 RMK AO2 PK WND 29030/1429 SLP148 T10281139 58005 (DI)EQDD01      0ADE726
0246725025947412025010815517+40859-074056FM-15+0002KTEB V0203005N00825015245MN0160935N5-00225-01395101425ADDAA101000095GA1075+015245999GD13991+0152459GE19AGL   +99999+99999GF199999999999015241999999MA1101425101405OC101705REMMET12101/08/25 10:51:02 METAR KTEB 081551Z 30016G33KT 10SM BKN050 M02/M14 A2995 RMK AO2 PK WND 27033/1545 SLP142 T10221139 (DI)
0265725025947412025010816517+40859-074056FM-15+0002KTEB V0202905N008252200059N0160935N5-00225-01505101265ADDAA101000095GA1045+016765999GD12991+0167659GE19AGL   +99999+99999GF104995999999016761999999MA1101255101235OC101445REMMET12101/08/25 11:51:02 METAR KTEB 081651Z 29016G28KT 10SM SCT055 M02/M15 A2990 RMK AO2 PK WND 33032/1641 SLP126 T10221150 (DI)EQDD01      0ADE726
0323725025947412025010817517+40859-074056FM-15+0002KTEB V0203005N008252200059N0160935N5-00175-01505101145ADDAA101000095GA1025+016765999GD11991+0167659GE19AGL   +99999+99999GF102995999999016761999999KA1060M-00171KA2060N-00561MA1101155101135MD1890349+9999OC101605REMMET13901/08/25 12:51:02 METAR KTEB 081751Z 30016G31KT 10SM FEW055 M02/M15 A2987 RMK AO2 PK WND 28033/1729 SLP114 T10171150 11017 21056 58034 (DI)EQDD01      0ADE726
0265725025947412025010818517+40859-074056FM-15+0002KTEB V0202905N009352200059N0160935N5-00115-01615101055ADDAA101000095GA1025+018295999GD11991+0182959GE19AGL   +99999+99999GF102995999999018291999999MA1101055101035OC101605REMMET12101/08/25 13:51:02 METAR KTEB 081851Z 29018G31KT 10SM FEW060 M01/M16 A2984 RMK AO2 PK WND 30031/1829 SLP105 T10111161 (DI)EQDD01      0ADE726
0265725025947412025010819517+40859-074056FM-15+0002KTEB V0203105N009352200059N0160935N5-00225-01565101015ADDAA101000095GA1025+018295999GD11991+0182959GE19AGL   +99999+99999GF102995999999018291999999MA1101025100995OC101445REMMET12101/08/25 14:51:02 METAR KTEB 081951Z 31018G28KT 10SM FEW060 M02/M16 A2983 RMK AO2 PK WND 29032/1939 SLP101 T10221156 (DI)EQDD01      0ADE726
0285725025947412025010820517+40859-074056FM-15+0002KTEB V0203005N008852200059N0160935N5-00285-01565101035ADDAA101000095GA1025+018295999GD11991+0182959GE19AGL   +99999+99999GF102995999999018291999999MA1101055101035MD1590119+9999OC101445REMMET12701/08/25 15:51:02 METAR KTEB 082051Z 30017G28KT 10SM FEW060 M03/M16 A2984 RMK AO2 PK WND 30035/2001 SLP103 T10281156 55011 (BR)EQDD01      0ADE726
0265725025947412025010821517+40859-074056FM-15+0002KTEB V0203005N008252200059N0160935N5-00395-01565101045ADDAA101000095GA1025+016765999GD11991+0167659GE19AGL   +99999+99999GF102995999999016761999999MA1101055101035OC101495REMMET12101/08/25 16:51:02 METAR KTEB 082151Z 30016G29KT 10SM FEW055 M04/M16 A2984 RMK AO2 PK WND 31034/2059 SLP104 T10391156 (BR)EQDD01      0ADE726
0235725025947412025010822517+40859-074056FM-15+0002KTEB V0203005N008852200059N0160935N5-00445-01615101045ADDAA101000095GA1005+999999999GD10991+9999999GF100991999999999999999999MA1101055101035OC101495OD149901491290REMMET11801/08/25 17:51:02 METAR KTEB 082251Z 30017G29KT 10SM CLR M04/M16 A2984 RMK AO2 PK WND 29029/2246 SLP104 T10441161 (WL)
0293725025947412025010823517+40859-074056FM-15+0002KTEB V0203005N006752200059N0160935N5-00565-01565101055ADDAA101000095GA1005+999999999GD10991+9999999GF100991999999999999999999KA1060M-00111KA2060N-00561MA1101055101035MD1290019+9999OC101445OD149901691300REMMET13601/08/25 18:51:02 METAR KTEB 082351Z 30013G28KT 10SM CLR M06/M16 A2984 RMK AO2 PK WND 30033/2319 SLP105 T10561156 11011 21056 52001 (WL)
0260725025947412025010900517+40859-074056FM-15+0002KTEB V0203005N007752200059N0160935N5-00505-01505101035ADDAA101000095GA1025+014945999GD11991+0149459GE19AGL   +99999+99999GF102995999999014941999999MA1101055101035OC101855REMMET11601/08/25 19:51:01 METAR KTEB 090051Z 30015G36KT 10SM FEW049 M05/M15 A2984 RMK AO2 PK WND 30036/0047 SLP103 T10501150EQDD01      0ADE726
0241725025947412025010901517+40859-074056FM-15+0002KTEB V0203105N00775014635MN0160935N5-00505-01505100995ADDAA101000095GA1075+014635999GD13991+0146359GE19AGL   +99999+99999GF199999999999014631999999MA1101025100995OC101545REMMET11601/08/25 20:51:01 METAR KTEB 090151Z 31015G30KT 10SM BKN048 M05/M15 A2983 RMK AO2 PK WND 33030/0148 SLP099 T10501150
0261725025947412025010902517+40859-074056FM-15+0002KTEB V0203105N00725014635MN0160935N5-00505-01505100955ADDAA101000095GA1075+014635999GD13991+0146359GE19AGL   +99999+99999GF199999999999014631999999MA1100955100925MD1890099+9999OC101345REMMET12201/08/25 21:51:01 METAR KTEB 090251Z 31014G26KT 10SM BKN048 M05/M15 A2981 RMK AO2 PK WND 32034/0158 SLP095 T10501150 58009
0260725025947412025010903517+40859-074056FM-15+0002KTEB V0203105N006752200059N0160935N5-00565-01505100905ADDAA101000095GA1045+014335999GD12991+0143359GE19AGL   +99999+99999GF104995999999014331999999MA1100915100895OC101295REMMET11601/08/25 22:51:02 METAR KTEB 090351Z 31013G25KT 10SM SCT047 M06/M15 A2980 RMK AO2 PK WND 30031/0301 SLP090 T10561150EQDD01      0ADE726
0296725025947412025010904517+40859-074056FM-15+0002KTEB V0203105N008252200059N0160935N5-00565-01505100855ADDAA101000095GA1025+014635999GD11991+0146359GE19AGL   +99999+99999GF102995999999014631999999KA1240M-00111KA2240N-00561MA1100855100825OC101295REMMET12601/08/25 23:51:02 METAR KTEB 090451Z 31016G25KT 10SM FEW048 M06/M15 A2978 RMK AO2 PK WND 30028/0405 SLP085 T10561150 410111056EQDD01      0ADE726
0886725025947412025010904596+40859-074056SOD  +0002KTEB V020999999999999999999999999999+99999+99999999999ADDAA124000095KA1240M-00105KA2240N-00555MG1101274100854OE11240187831001035OE22240129630015585OE33240077399999995REMSOD73024 HR PRECIPITATION (IN):0.00  24 HR MAX TEMP (F):30 24 HR MAX TEMP TIME (LST):1420 24 HR MIN TEMP (F):22 24 HR MIN TEMP TIME (LST):2359 AVERAGE STATION PRESSURE:29.905 MINIMUM SEA LEVEL PRESSURE:29.78 TIME OF OCCURRENCE:2359 PEAK WIND SPEED (MPH):42  PEAK WIND DIR (DEG):310 PEAK WIND TIME (LST):0103  FASTEST 2MIN SPEED (MPH):29 FASTEST 2MIN DIR (DEG):300 FASTEST 2MIN TIME (LST):1558 AVERAGE WIND SPEED (MPH):17.3 24 HR AVG TEMP (F):26 HEATING DEGREE DAYS:39  COOLING DEGREE DAYS:0   LATEST DAY MAX TEMP (0700-1900 LST):30  LATEST NIGHT MIN TEMP(1900-0800 LST):22 HOURLY INCREMENTAL PRECIPITATION VALUES (IN):.00 0.00 0.00 0.00 0.00 0.00 0.00 0.00 0.00 0.00 0.00 0.00 0.00 0.00 0.00 0.00 0.00 0.00 0.00 0.00 0.00 0.00 0.00 0.00EQDR01     N7GJS072R02     N7GKS075
0356725025947412025010905517+40859-074056FM-15+0002KTEB V0203105N00675021345MN0160935N5-00565-01445100775ADDAA101000095GA1025+014635999GA2075+021345999GD11991+0146359GD23991+0213459GE19AGL   +99999+99999GF199999999999014631999999KA1060M-00501KA2060N-00561MA1100785100765MD1890189+9999OC101295OD149901591290REMMET14601/09/25 00:51:02 METAR KTEB 090551Z 31013G25KT 10SM FEW048 BKN070 M06/M14 A2976 RMK AO2 PK WND 29031/0503 SLP077 T10561144 11050 21056 58018 (WL)
0336725025947412025010906517+40859-074056FM-15+0002KTEB V0203005N00675033535MN0160935N5-00505-01445100735ADDAA101000095GA1025+014025999GA2045+024385999GA3085+033535999GD11991+0140259GD22991+0243859GD34991+0335359GE19AGL   +99999+99999GF199999999999014021999999MA1100755100725OC101035OD149901641320REMMET13501/09/25 01:51:02 METAR KTEB 090651Z 30013G20KT 10SM FEW046 SCT080 OVC110 M05/M14 A2975 RMK AO2 PK WND 32032/0628 SLP073 T10501144 (WL)
0265725025947412025010907517+40859-074056FM-15+0002KTEB V0203105N008852200059N0160935N5-00505-01445100705ADDAA101000095GA1045+036585999GD12991+0365859GE19AGL   +99999+99999GF104995999999036581999999MA1100715100695OC101395REMMET12101/09/25 02:51:02 METAR KTEB 090751Z 31017G27KT 10SM SCT120 M05/M14 A2974 RMK AO2 PK WND 31027/0718 SLP070 T10501144 (WL)EQDD01      0ADE726
0266725025947412025010908517+40859-074056FM-15+0002KTEB V0203105N00935033535MN0160935N5-00505-01505100655ADDAA101000095GA1085+033535999GD14991+0335359GE19AGL   +99999+99999GF199999999999033531999999MA1100645100625MD1890129+9999OC101855REMMET12701/09/25 03:51:02 METAR KTEB 090851Z 31018G36KT 10SM OVC110 M05/M15 A2972 RMK AO2 PK WND 31036/0845 SLP065 T10501150 58012 (WL)
0235725025947412025010909517+40859-074056FM-15+0002KTEB V0203105N007252200059N0160935N5-00505-01445100635ADDAA101000095GA1005+999999999GD10991+9999999GF100991999999999999999999MA1100645100625OC101545OD149901691300REMMET11801/09/25 04:51:02 METAR KTEB 090951Z 31014G30KT 10SM CLR M05/M14 A2972 RMK AO2 PK WND 30033/0938 SLP063 T10501144 (WL)
0235725025947412025010910517+40859-074056FM-15+0002KTEB V0203105N006252200059N0160935N5-00565-01395100685ADDAA101000095GA1005+999999999GD10991+9999999GF100991999999999999999999MA1100685100655OC101395OD149901751320REMMET11801/09/25 05:51:02 METAR KTEB 091051Z 31012G27KT 10SM CLR M06/M14 A2973 RMK AO2 PK WND 32034/1016 SLP068 T10561139 (WL)
0293725025947412025010911517+40859-074056FM-15+0002KTEB V0203105N008252200059N0160935N5-00565-01445100695ADDAA101000095GA1005+999999999GD10991+9999999GF100991999999999999999999KA1060M-00501KA2060N-00561MA1100715100695MD1390039+9999OC101545OD149901541300REMMET13601/09/25 06:51:02 METAR KTEB 091151Z 31016G30KT 10SM CLR M06/M14 A2974 RMK AO2 PK WND 30030/1124 SLP069 T10561144 11050 21056 53003 (WL)
0235725025947412025010912517+40859-074056FM-15+0002KTEB V0203205N008852200059N0160935N5-00505-01395100725ADDAA101000095GA1005+999999999GD10991+9999999GF100991999999999999999999MA1100755100725OC101655OD149901641300REMMET11801/09/25 07:51:02 METAR KTEB 091251Z 32017G32KT 10SM CLR M05/M14 A2975 RMK AO2 PK WND 30032/1205 SLP072 T10501139 (DI)
0235725025947412025010913517+40859-074056FM-15+0002KTEB V0203205V005752200059N0160935N5-00395-01395100775ADDAA101000095GA1005+999999999GD10991+9999999GF100991999999999999999999MA1100785100765OC101135OD149901441330REMMET11801/09/25 08:51:02 METAR KTEB 091351Z 32011G22KT 10SM CLR M04/M14 A2976 RMK AO2 PK WND 33028/1331 SLP077 T10391139 (DI)
0255725025947412025010914517+40859-074056FM-15+0002KTEB V0203205N009852200059N0160935N5-00285-01335100765ADDAA101000095GA1005+999999999GD10991+9999999GF100991999999999999999999MA1100785100765MD1090079+9999OC101445OD149901751320REMMET12401/09/25 09:51:02 METAR KTEB 091451Z 32019G28KT 10SM CLR M03/M13 A2976 RMK AO2 PK WND 32034/1418 SLP076 T10281133 50007 (DI)
0235725025947412025010915517+40859-074056FM-15+0002KTEB V0203205N014952200059N0160935N5-00175-01285100715ADDAA101000095GA1005+999999999GD10991+9999999GF100991999999999999999999MA1100715100695OC102215OD149902211320REMMET11801/09/25 10:51:02 METAR KTEB 091551Z 32029G43KT 10SM CLR M02/M13 A2974 RMK AO2 PK WND 32043/1550 SLP071 T10171128 (DI)
0235725025947412025010916517+40859-074056FM-15+0002KTEB V0203005N009852200059N0160935N5-00115-01225100695ADDAA101000095GA1005+999999999GD10991+9999999GF100991999999999999999999MA1100715100695OC101705OD149902261330REMMET11801/09/25 11:51:02 METAR KTEB 091651Z 30019G33KT 10SM CLR M01/M12 A2974 RMK AO2 PK WND 33044/1557 SLP069 T10111122 (DI)
0293725025947412025010917517+40859-074056FM-15+0002KTEB V0203105N012452200059N0160935N5-00065-01175100655ADDAA101000095GA1005+999999999GD10991+9999999GF100991999999999999999999KA1060M+00001KA2060N-00561MA1100645100625MD1690119+9999OC101965OD149902001330REMMET13601/09/25 12:51:02 METAR KTEB 091751Z 31024G38KT 10SM CLR M01/M12 A2972 RMK AO2 PK WND 33039/1730 SLP065 T10061117 10000 21056 56011 (DI)
0234725025947412025010918517+40859-074056FM-15+0002KTEB V0203205N009352200059N0160935N5+00065-01065100685ADDAA101000095GA1005+999999999GD10991+9999999GF100991999999999999999999MA1100685100655OC101655OD149901901290REMMET11701/09/25 13:51:02 METAR KTEB 091851Z 32018G32KT 10SM CLR 01/M11 A2973 RMK AO2 PK WND 29037/1812 SLP068 T00061106 (SW)
0234725025947412025010919517+40859-074056FM-15+0002KTEB V0203105N009352200059N0160935N5+00065-01065100725ADDAA101000095GA1005+999999999GD10991+9999999GF100991999999999999999999MA1100715100695OC101805OD149901901290REMMET11701/09/25 14:51:02 METAR KTEB 091951Z 31018G35KT 10SM CLR 01/M11 A2974 RMK AO2 PK WND 29037/1938 SLP072 T00061106 (SW)
0214725025947412025010920516+40859-074056FM-15+0002KTEB V0203305N006752200059N0160935N5+00005-01065100855ADDAA101000095GA1005+999999999GD10991+9999999MA1100855100825MD1390209+9999OC101705REMMET12301/09/25 15:51:02 METAR KTEB 092051Z 33013G33KT 10SM CLR 00/M11 A2978 RMK AO2 PK WND 32038/2000 SLP085 T00001106 53020 (BR)
0235725025947412025010921517+40859-074056FM-15+0002KTEB V0203205N006752200059N0160935N5-00115-01005100915ADDAA101000095GA1005+999999999GD10991+9999999GF100991999999999999999999MA1100915100895OC101445OD149901591290REMMET11801/09/25 16:51:02 METAR KTEB 092151Z 32013G28KT 10SM CLR M01/M10 A2980 RMK AO2 PK WND 29031/2059 SLP091 T10111100 (BR)
0235725025947412025010922517+40859-074056FM-15+0002KTEB V0203205N010352200059N0160935N5-00225-01005100945ADDAA101000095GA1005+999999999GD10991+9999999GF100991999999999999999999MA1100955100925OC101705OD149901851310REMMET11801/09/25 17:51:02 METAR KTEB 092251Z 32020G33KT 10SM CLR M02/M10 A2981 RMK AO2 PK WND 31036/2154 SLP094 T10221100 (WL)
