0211725020147342025010100004+40700-074167FM-12+000999999V0200601N004119999999N016000199+01001+00501100631ADDGA1999+017501999GE19AGL   +99999+99999GF106991999999017501999999KA1120M+01221KA2120N+00391MA1999999100551MD1810301+9999REMSYN08072502 32766 60608 10100 20050 30055 40063 58030 92351 333 10122 20039 555 90100=
0260725020147342025010100517+40683-074169FM-15+0009KEWR V0300405N00465013115MN0160935N5+01005+00445100465ADDAA101000095GA1075+013115999GA2085+019815999GD13991+0131159GD24991+0198159GE19AGL   +99999+99999GF199999999999013111999999MA1100475100375REMMET11212/31/24 19:51:03 METAR KEWR 010051Z 04009KT 10SM BKN043 OVC065 10/04 A2967 RMK AO2 PRESFR SLP046 T01000044 (DH)
0384725020147342025010101517+40683-074169FM-15+0009KEWR V0300205N00625011285MN0048285N5+00835+00615100295ADDAA101004895AU120020015AU200001015AW1105AW2625ED104R99999GA1045+008535999GA2075+011285999GA3085+014635999GD12991+0085359GD23991+0112859GD34991+0146359GE19AGL   +99999+99999GF199999999999008531999999MA1100305100205MW1655REMMET15412/31/24 20:51:03 METAR KEWR 010151Z 02012KT 3SM R04R/6000VP6000FT RA BR SCT028 BKN037 OVC048 08/06 A2962 RMK AO2 RAB15 PRESFR SLP029 P0019 T00830061 (DH)
0279725020147342025010102207+40683-074169FM-16+0009KEWR V0300205N00725007625MN0160935N5+00785+00565999999ADDAA101000021AU110020015AW1615GA1075+007625999GA2085+010675999GD13991+0076259GD24991+0106759GE19AGL   +99999+99999GF199999999999007621999999MA1100205100105MW1615REMMET10812/31/24 21:20:03 SPECI KEWR 010220Z 02014KT 10SM -RA BKN025 OVC035 08/06 A2959 RMK AO2 P0000 T00780056 (DH)
0360725020147342025010102287+40683-074169FM-16+0009KEWR V0300205N00415007625MN0096565N5+00785+00565999999ADDAA101000021AU107000025AU210020035AU300001015AW1105AW2615AW3905GA1075+007625095GA2085+010675999GD13991+0076259GD24991+0106759GE19AGL   +99999+99999GF199999999999007621999999MA1100245100135MW1615REMMET15512/31/24 21:28:03 SPECI KEWR 010228Z 02008KT 6SM -TSRA BR BKN025CB OVC035 08/06 A2960 RMK AO2 TSB25 OCNL LTGICCG VC SE TS VC SE MOV NE P0000 T00780056 (DH)
0411725020147342025010102397+40683-074169FM-16+0009KEWR V0300305N00625007625MN0024145N5+00785+00565999999ADDAA101004531AU107000025AU230020035AU300001015AW1105AW2635AW3905AW4951ED104R99999GA1075+007625095GA2085+010675999GD13991+0076259GD24991+0106759GE19AGL   +99999+99999GF199999999999007621999999MA1100245100135MW1635REMMET18912/31/24 21:39:03 SPECI KEWR 010239Z 03012KT 1 1/2SM R04R/2400VP6000FT +TSRA BR BKN025CB OVC035 08/06 A2960 RMK AO2 SFC VIS 2 TSB36 TSB25 OCNL LTGICCG OHD TS OHD MOV NE P0018 T00780056 (DH)
0411725020147342025010102427+40683-074169FM-16+0009KEWR V0300305N00675007625MN0024145N5+00785+00565999999ADDAA101007631AU107000025AU230020035AU300001015AW1105AW2635AW3905AW4951ED104R99999GA1075+007625095GA2085+010675999GD13991+0076259GD24991+0106759GE19AGL   +99999+99999GF199999999999007621999999MA1100245100135MW1635REMMET18912/31/24 21:42:03 SPECI KEWR 010242Z 03013KT 1 1/2SM R04R/2400VP6000FT +TSRA BR BKN025CB OVC035 08/06 A2960 RMK AO2 SFC VIS 2 TSB36 TSB25 OCNL LTGICCG OHD TS OHD MOV NE P0030 T00780056 (DH)
0451725020147342025010102517+40683-074169FM-15+0009KEWR V0300405N00575006715MN0024145N5+00785+00615100145ADDAA101009995AA203014291AU107000025AU220020035AU300001015AW1105AW2625AW3905AW4921GA1075+006715095GA2085+010675999GD13991+0067159GD24991+0106759GE19AGL   +99999+99999GF199999999999006711999999MA1100145100035MD1690509+9999MW1655REMMET19612/31/24 21:51:03 METAR KEWR 010251Z 04011KT 1 1/2SM TSRA BR BKN022CB OVC035 08/06 A2957 RMK AO2 SFC VIS 2 TSB36 PRESFR SLP014 TSB25 OCNL LTGICCG OHD TS OHD MOV NE P0037 60056 T00780061 56050 (DH)EQDQ01  01428PRCP03
0208725020147342025010103004+40700-074167FM-12+000999999V0200401N005719999999N002400199+00781+00611100141ADDAA103014031GA1999+008001999GE19AGL   +99999+99999GF108991999999008001999999MA1999999100051MD1610501+9999MW1951REMSYN08672502 11524 80411 10078 20061 30005 40014 56050 60147 795// 90251 333 96010 555 90103=
0455725020147342025010103057+40683-074169FM-16+0009KEWR V0300405N00465008535MN0048285N5+00785+00615999999ADDAA101001231AU107000025AU210020035AU300001015AW1105AW2615AW3905AW4921ED104R99999GA1025+004275999GA2075+008535095GA3085+012805999GD11991+0042759GD23991+0085359GD34991+0128059GE19AGL   +99999+99999GF199999999999004271999999MA1100075099965MW1615OC100985REMMET19412/31/24 22:05:03 SPECI KEWR 010305Z 04009G19KT 3SM R04R/6000VP6000FT -TSRA BR FEW014 BKN028CB OVC042 08/06 A2955 RMK AO2 SFC VIS 6 PRESFR OCNL LTGICCG VC NE TS VC NE MOV NE P0005 T00780061 (DH)
0330725020147342025010103517+40683-074169FM-15+0009KEWR V0300405N00575003055MN0160935N5+00785+00615099945ADDAA101003395AU110020015AW1615GA1075+003055999GA2075+004575999GA3085+010675999GD13991+0030559GD23991+0045759GD34991+0106759GE19AGL   +99999+99999GF199999999999003051999999MA1099935099835MW1615REMMET12812/31/24 22:51:03 METAR KEWR 010351Z 04011KT 10SM -RA BKN010 BKN015 OVC035 08/06 A2951 RMK AO2 TSE51 SLP994 P0015 T00780061 (DH)
0220725020147342025010104267+40683-074169FM-16+0009KEWR V0303505N00215002745MN0160935N5+00835+00675999999ADDAA101000021GA1085+002745999GD14991+0027459GE19AGL   +99999+99999GF199999999999002741999999MA1099935099835REMMET10312/31/24 23:26:03 SPECI KEWR 010426Z 35004KT 10SM OVC009 08/07 A2951 RMK AO2 RAE04 P0000 T00830067 (JG)
0301725020147342025010104517+40683-074169FM-15+0009KEWR V0309999V00215002745MN0160935N5+00895+00675099835ADDAA101000025GA1075+002745999GA2075+005795999GD13991+0027459GD23991+0057959GE19AGL   +99999+99999GF199999999999002741999999KA1240M+01221KA2240N+00331MA1099835099725REMMET12712/31/24 23:51:03 METAR KEWR 010451Z VRB04KT 10SM BKN009 BKN019 09/07 A2948 RMK AO2 RAE04 SLP983 P0000 T00890067 401220033 (JG)
1074725020147342025010104596+40683-074169SOD  +0009KEWR V030999999999999999999999999999+99999+99999999999ADDAA124018095AJ100009599999999AN1024000095AT1AU03TS  5AT2AU16RA  5AT3AU13BR  5KA1240M+01225KA2240N+00335KG1024W+0056D4KG2024D+0022D4MF1100914100914MG1100914099834OE11240098303021585OE22240076002021195OE33240029199999995RH1024X089D4RH2024N043D4RH3024M066D4REMSOD77424 HR PRECIPITATION (IN):0.71  SNOW DEPTH (IN):0     24 HR SNOWFALL (IN):0.0  24 HR MAX TEMP (F):54 24 HR MAX TEMP TIME (LST):1157 24 HR MIN TEMP (F):38 24 HR MIN TEMP TIME (LST):0422 AVERAGE STATION PRESSURE:29.800 MINIMUM SEA LEVEL PRESSURE:29.48 TIME OF OCCURRENCE:2359 PEAK WIND SPEED (MPH):22  PEAK WIND DIR (DEG):30  PEAK WIND TIME (LST):2158  FASTEST 2MIN SPEED (MPH):17 FASTEST 2MIN DIR (DEG):20  FASTEST 2MIN TIME (LST):2119 AVERAGE WIND SPEED (MPH):6.5  24 HR AVG TEMP (F):46 HEATING DEGREE DAYS:19  COOLING DEGREE DAYS:0   LATEST DAY MAX TEMP (0700-1900 LST):54  LATEST NIGHT MIN TEMP(1900-0800 LST):38 HOURLY INCREMENTAL PRECIPITATION VALUES (IN):.00 0.00 0.00 0.00 0.00 0.00 0.00 0.00 0.00 0.00 0.00 0.00 0.00 0.00 0.00 0.00 0.00 0.00 0.00 0.00 0.19 0.39 0.13 TEQDR01     N7GJS072R02     N7GKS075
1337725020147342025010104596+40683-074169SOM  +0009KEWR V030999999999999999999999999999+99999+99999999999ADDAB1011159UAD1002269101199999999UAE117U09U04U00UAH1005004693121435AH2010007193121445AH3015008693121465AH4020009193121495AH5030009993122005AH6045010993122115AI1060013093122295AI2080013293122295AI3100015093122055AI4120017093122295AI5150018093122295AI6180018093122295AK100059219999IAM100569212199999999IAN102400899IKB1744N-00725KB2744M+07225KB3744A+03285KC1N9-01162399995KC2M9+01832999995KD1744H08335KD2744C00005KE102U00U18U00UMH110210U10220UMK110488141051U09959111751UREMSOM793PCP MTOT:3.96 PCP GT 24HRS:0.86 DATE(S):16 DAYS W/PCP >=.01:12 DAYS W/PCP >=.10:6  DAYS W/ PCP >=.50:3 DAYS W/PCP >=1.00:0 MSDP AMTS W/DATE-TIME TAGS:MIN:5 0.18  31/2143 MIN:10 0.28  31/2144 MIN:15 0.34  31/2146 MIN:20 0.36  31/2149 MIN:30 0.39  31/2200 MIN:45 0.43  31/2211 MIN:60 0.51  31/2229 MIN:80 0.52  31/2229 MIN:100 0.59  31/2205 MIN:120 0.67  31/2229 MIN:150 0.71  31/2229 MIN:180 0.71  31/2229 AVG DLY MIN:30.7  AVG DLY MAX:45.0  AVG MLY TMP:37.9  MIN TMP:11 DATE(S):23 MAX TMP:65  DATE(S):29 DAYS MAX <=32:2 DAYS MAX >=90:0  DAYS MIN <=32:18 DAYS MIN  <=0:0  AVG STP:30.150 LWST SLP:29.40 DATE/TIME:111806 HGST SLP:30.97 DATE/TIME:141051 HDD MTH TOT:833 DEP NORM:-2553 SEASON(JUL 1-JUN 30):1367 DEP NORM:-25536 CDD MTH TOT:0 DEP NORM:-2553 SEASON(JAN 1-DEC 31):1610 DEP NORM:-25536EQDR01  3.967ABP070R02    127AE1100R03     37AE2103R04     37AE3106
0273725020147342025010105337+40683-074169FM-16+0009KEWR V0201005N00215004885MN0160935N5+00945+00725999999ADDGA1045+002745999GA2075+004885999GA3085+007925999GD12991+0027459GD23991+0048859GD34991+0079259GE19AGL   +99999+99999GF199999999999002741999999MA1099805099695REMMET10501/01/25 00:33:02 SPECI KEWR 010533Z 10004KT 10SM SCT009 BKN016 OVC026 09/07 A2947 RMK AO2 T00940072 (JG)
0365725020147342025010105517+40683-074169FM-15+0009KEWR V0209999C00005004885MN0128755N5+00945+00725099795ADDAA101000095AA206018091GA1025+002745999GA2075+004885999GA3085+007925999GD11991+0027459GD23991+0048859GD34991+0079259GE19AGL   +99999+99999GF199999999999002741999999KA1060M+01061KA2060N+00781MA1099805099695MD1690359+9999REMMET13501/01/25 00:51:02 METAR KEWR 010551Z 00000KT 8SM FEW009 BKN016 OVC026 09/07 A2947 RMK AO2 SLP979 60071 T00940072 10106 20078 56035 (JG)
0228725020147342025010106004+40700-074167FM-12+000999999V0209999C000019999999N012000199+00941+00721099791ADDAA106018031GA1999+002501999GE19AGL   +99999+99999GF108991999999002501999999KA1240M+01221KA2240N+00391MA1999999099711MD1610351+9999REMSYN08672502 12362 80000 10094 20072 39971 49979 56035 60181 90551 333 10122 20039 555 90106=
0290725020147342025010106517+40683-074169FM-15+0009KEWR V0203405N00155007325MN0128755N5+00895+00725099805ADDAA101000095GA1025+002745999GA2045+004885999GA3085+007325999GD11991+0027459GD22991+0048859GD34991+0073259GE19AGL   +99999+99999GF199999999999002741999999MA1099805099695REMMET11101/01/25 01:51:02 METAR KEWR 010651Z 34003KT 8SM FEW009 SCT016 OVC024 09/07 A2947 RMK AO2 SLP980 T00890072 (JG)
0292725020147342025010107437+40683-074169FM-16+0009KEWR V0209999C00005002445MN0048285N5+00895+00725999999ADDAU100001015AW1105GA1075+002445999GA2075+004575999GA3085+006405999GD13991+0024459GD23991+0045759GD34991+0064059GE19AGL   +99999+99999GF199999999999002441999999MA1099835099725REMMET10701/01/25 02:43:02 SPECI KEWR 010743Z 00000KT 3SM BR BKN008 BKN015 OVC021 09/07 A2948 RMK AO2 T00890072 (JG)
0310725020147342025010107517+40683-074169FM-15+0009KEWR V0209999C00005002445MN0048285N5+00835+00675099835ADDAA101000095AU100001015AW1105GA1075+002445999GA2075+004575999GA3085+006405999GD13991+0024459GD23991+0045759GD34991+0064059GE19AGL   +99999+99999GF199999999999002441999999MA1099835099725REMMET11401/01/25 02:51:02 METAR KEWR 010751Z 00000KT 3SM BR BKN008 BKN015 OVC021 08/07 A2948 RMK AO2 SLP983 T00830067 (JG)
0292725020147342025010108517+40683-074169FM-15+0009KEWR V0202505N00365006405MN0080475N5+00895+00675099825ADDAA101000095AU100001015AW1105GA1045+002445999GA2085+006405999GD12991+0024459GD24991+0064059GE19AGL   +99999+99999GF199999999999002441999999MA1099835099725MD1090049+9999REMMET11301/01/25 03:51:02 METAR KEWR 010851Z 25007KT 5SM BR SCT008 OVC021 09/07 A2948 RMK AO2 SLP982 T00890067 50004 (JG)
0181725020147342025010109004+40700-074167FM-12+000999999V0202501N003619999999N008000199+00891+00671099821ADDGA1999+002501999GE19AGL   +99999+99999GF108991999999002501999999MA1999999099741MD1990041+9999MW1101REMSYN07072502 31358 82507 10089 20067 39974 49982 50004 710// 90851 555 90109=
0272725020147342025010109517+40683-074169FM-15+0009KEWR V0202505N00515008535MN0064375N5+00895+00675099865ADDAA101000095AU100001015AW1105GA1045+001835999GA2085+008535999GD12991+0018359GD24991+0085359GE19AGL   +99999+99999GF199999999999001831999999MA1099865099765REMMET10701/01/25 04:51:02 METAR KEWR 010951Z 25010KT 4SM BR SCT006 OVC028 09/07 A2949 RMK AO2 SLP986 T00890067 (JG)
0254725020147342025010110197+40683-074169FM-16+0009KEWR V0202405N00515001835MN0080475N5+00895+00675999999ADDAU100001015AW1105GA1075+001835999GA2085+007625999GD13991+0018359GD24991+0076259GE19AGL   +99999+99999GF199999999999001831999999MA1099865099765REMMET10001/01/25 05:19:02 SPECI KEWR 011019Z 24010KT 5SM BR BKN006 OVC025 09/07 A2949 RMK AO2 T00890067 (JG)
0310725020147342025010110517+40683-074169FM-15+0009KEWR V0202505N00365002445MN0096565N5+00835+00615099895ADDAA101000095AU100001015AW1105GA1075+002445999GA2075+003965999GA3085+022865999GD13991+0024459GD23991+0039659GD34991+0228659GE19AGL   +99999+99999GF199999999999002441999999MA1099905099795REMMET11401/01/25 05:51:02 METAR KEWR 011051Z 25007KT 6SM BR BKN008 BKN013 OVC075 08/06 A2950 RMK AO2 SLP989 T00830061 (JG)
0289725020147342025010111517+40683-074169FM-15+0009KEWR V0202205N00265002745MN0128755N5+00835+00615099905ADDAA101000095AA224018091GA1085+002745999GD14991+0027459GE19AGL   +99999+99999GF199999999999002741999999KA1060M+00941KA2060N+00831MA1099905099795MD1190089+9999REMMET12101/01/25 06:51:02 METAR KEWR 011151Z 22005KT 8SM OVC009 08/06 A2950 RMK AO2 SLP990 70071 T00830061 10094 20083 51008 (JG)
0228725020147342025010112004+40700-074167FM-12+000999999V0202201N002619999999N012000199+00831+00611099901ADDAA124018031GA1999+002501999GE19AGL   +99999+99999GF108991999999002501999999KA1240M+01221KA2240N+00781MA1999999099811MD1110081+9999REMSYN08672502 32362 82205 10083 20061 39981 49990 51008 91151 333 10122 20078 70180 555 90112=
0310725020147342025010112517+40683-074169FM-15+0009KEWR V0202405N00515002745MN0096565N5+00835+00615099895ADDAA101000095AU100001015AW1105GA1075+002745999GA2075+022865999GA3075+042675999GD13991+0027459GD23991+0228659GD33991+0426759GE19AGL   +99999+99999GF199999999999002741999999MA1099905099795REMMET11401/01/25 07:51:02 METAR KEWR 011251Z 24010KT 6SM BR BKN009 BKN075 BKN140 08/06 A2950 RMK AO2 SLP989 T00830061 (JG)
0292725020147342025010113057+40683-074169FM-16+0009KEWR V0202405N00465022865MN0096565N5+00835+00615999999ADDAU100001015AW1105GA1045+002745999GA2075+022865999GA3075+042675999GD12991+0027459GD23991+0228659GD33991+0426759GE19AGL   +99999+99999GF199999999999002741999999MA1099905099795REMMET10701/01/25 08:05:02 SPECI KEWR 011305Z 24009KT 6SM BR SCT009 BKN075 BKN140 08/06 A2950 RMK AO2 T00830061 (JG)
0292725020147342025010113517+40683-074169FM-15+0009KEWR V0202205N00625042675MN0160935N5+00895+00615099965ADDAA101000095GA1025+003665999GA2045+021345999GA3075+042675999GD11991+0036659GD22991+0213459GD33991+0426759GE19AGL   +99999+99999GF199999999999003661999999MA1099975099865REMMET11301/01/25 08:51:02 METAR KEWR 011351Z 22012KT 10SM FEW012 SCT070 BKN140 09/06 A2952 RMK AO2 SLP996 T00890061 (DHA)
0288725020147342025010113577+40683-074169FM-16+0009KEWR V0202305N00725021345MN0144845N5+00895+00615999999ADDGA1025+002445999GA2045+003665999GA3075+021345999GD11991+0024459GD22991+0036659GD33991+0213459GD43991+0426719GE19AGL   +99999+99999GF199999999999002441999999MA1099975099865REMMET10501/01/25 08:57:02 SPECI KEWR 011357Z 23014KT 9SM FEW008 SCT012 BKN070 09/06 A2952 RMK AO2 T00890061 (DHA)
0289725020147342025010114237+40683-074169FM-16+0009KEWR V0202305N00625004275MN0160935N5+00895+00615999999ADDGA1045+002445999GA2075+004275999GA3075+021345999GD12991+0024459GD23991+0042759GD33991+0213459GD43991+0426719GE19AGL   +99999+99999GF199999999999002441999999MA1100005099895REMMET10601/01/25 09:23:02 SPECI KEWR 011423Z 23012KT 10SM SCT008 BKN014 BKN070 09/06 A2953 RMK AO2 T00890061 (DHA)
0312725020147342025010114517+40683-074169FM-15+0009KEWR V0202505N00675004275MN0160935N5+00945+00675100025ADDAA101000095GA1025+002445999GA2075+004275999GA3075+021345999GD11991+0024459GD23991+0042759GD33991+0213459GE19AGL   +99999+99999GF199999999999002441999999MA1100035099935MD1390119+9999REMMET11901/01/25 09:51:02 METAR KEWR 011451Z 25013KT 10SM FEW008 BKN014 BKN070 09/07 A2954 RMK AO2 SLP002 T00940067 53011 (DHA)
0169725020147342025010115004+40700-074167FM-12+000999999V0202501N006719999999N016000199+00941+00671100021ADDGA1999+002501999GE19AGL   +99999+99999GF106991999999002501999999MA1999999099951MD1310111+9999REMSYN06472502 32366 62513 10094 20067 39995 40002 53011 91451 555 90115=
0232725020147342025010115496+40683-074169FM-16+0009KEWR V0202705N00885004885MN0160935N5+01105+00605999999ADDGA1075+004885999GA2075+024385999GA3075+036585999GD13991+0048859GD23991+0243859GD33991+0365859MA1100035099935OC101185REMMET10401/01/25 10:49:02 SPECI KEWR 011549Z 27017G23KT 10SM BKN016 BKN080 BKN120 11/06 A2954 RMK AO2 FIBI (DHA)
0303725020147342025010115517+40683-074169FM-15+0009KEWR V0202605N00825004885MN0160935N5+01065+00565100015ADDAA101000095GA1075+004885999GA2075+022865999GA3075+036585999GD13991+0048859GD23991+0228659GD33991+0365859GE19AGL   +99999+99999GF199999999999004881999999MA1100035099935OC101185REMMET11601/01/25 10:51:02 METAR KEWR 011551Z 26016G23KT 10SM BKN016 BKN075 BKN120 11/06 A2954 RMK AO2 SLP001 T01060056 (DHA)
0317725020147342025010116147+40683-074169FM-16+0009KEWR V0202605N00985024385MN0160935N5+01065+00445999999ADDGA1045+006105999GA2075+024385999GA3075+036585999GD12991+0061059GD23991+0243859GD33991+0365859GE19AGL   +99999+99999GF199999999999006101999999MA1100035099935OC101395OD149901391260REMMET12701/01/25 11:14:02 SPECI KEWR 011614Z 26019G27KT 10SM SCT020 BKN080 BKN120 11/04 A2954 RMK AO2 PK WND 26027/1611 T01060044 (DHA)
0335725020147342025010116517+40683-074169FM-15+0009KEWR V0202705N00935025915MN0160935N5+01115+00335099985ADDAA101000095GA1025+006715999GA2075+025915999GA3075+033535999GD11991+0067159GD23991+0259159GD33991+0335359GE19AGL   +99999+99999GF199999999999006711999999MA1100005099895OC101395OD149901391280REMMET13401/01/25 11:51:02 METAR KEWR 011651Z 27018G27KT 10SM FEW022 BKN085 BKN110 11/03 A2953 RMK AO2 PK WND 28027/1646 SLP998 T01110033 (DHA)
0408725020147342025010117517+40683-074169FM-15+0009KEWR V0202705N01135018295MN0160935N5+00945+00175100015ADDAA101000095GA1025+007625999GA2075+018295999GA3075+022865999GD11991+0076259GD23991+0182959GD33991+0228659GD43991+0396219GE19AGL   +99999+99999GF199999999999007621999999KA1060M+01111KA2060N+00831MA1100035099935MD1590019+9999OC101655OD149901691280REMMET15201/01/25 12:51:02 METAR KEWR 011751Z 27022G32KT 10SM FEW025 BKN060 BKN075 09/02 A2954 RMK AO2 PK WND 28033/1718 SLP001 T00940017 10111 20083 55001 (DHA)
0231725020147342025010118004+40700-074167FM-12+000999999V0202701N011319999999N016000199+00941+00171100011ADDGA1999+008001999GE19AGL   +99999+99999GF106991999999008001999999KA1120M+01111KA2120N+00831MA1999999099951MD1510011+9999OD149901651999REMSYN08672502 32566 62722 10094 20017 39995 40001 55001 91751 333 10111 20083 91032 555 90118=
0374725020147342025010118517+40683-074169FM-15+0009KEWR V0202605N01035016765MN0160935N5+00835+00175100065ADDAA101000025AU110020015AW1615GA1025+008535999GA2075+016765999GA3075+030485999GD11991+0085359GD23991+0167659GD33991+0304859GE19AGL   +99999+99999GF199999999999008531999999MA1100075099965MW1615OC101605OD149901901260REMMET15001/01/25 13:51:02 METAR KEWR 011851Z 26020G31KT 10SM -RA FEW028 BKN055 BKN100 08/02 A2955 RMK AO2 PK WND 26037/1841 RAB36 SLP006 P0000 T00830017 (DHA)
0352725020147342025010119517+40683-074169FM-15+0009KEWR V0202705N01185018295MN0160935N5+00835+00065100175ADDAA101000025GA1045+010675999GA2075+018295999GA3075+030485999GD12991+0106759GD23991+0182959GD33991+0304859GE19AGL   +99999+99999GF199999999999010671999999MA1100175100065OC101495OD149901641270REMMET15101/01/25 14:51:02 METAR KEWR 011951Z 27023G29KT 10SM SCT035 BKN060 BKN100 08/01 A2958 RMK AO2 PK WND 27032/1927 RAE00 SLP017 VCSH P0000 T00830006 (DHA)
0408725020147342025010120517+40683-074169FM-15+0009KEWR V0202805N00725010675MN0160935N5+00785+00005100365ADDAA101000025AA203000021GA1075+010675999GA2075+013115999GA3075+030485999GD13991+0106759GD23991+0131159GD33991+0304859GE19AGL   +99999+99999GF199999999999010671999999MA1100375100275MD1390359+9999OC101655OD149901641280REMMET16301/01/25 15:51:02 METAR KEWR 012051Z 28014G32KT 10SM BKN035 BKN043 BKN100 08/00 A2964 RMK AO2 PK WND 28032/2044 RAB1956E05 SLP036 P0000 60000 T00780000 53035 (DHA)EQDQ01  00008PRCP03
0210725020147342025010121004+40700-074167FM-12+000999999V0202801N007219999999N016000199+00781+00001100361ADDAA103000021GA1999+012501999GE19AGL   +99999+99999GF106991999999012501999999MA1999999100281MD1310351+9999OD149901651999REMSYN08072502 12666 62814 10078 20000 30028 40036 53035 69907 92051 333 91032 555 90121=
0335725020147342025010121517+40683-074169FM-15+0009KEWR V0202805N01085010365MN0160935N5+00675-00115100445ADDAA101000095GA1075+010365999GA2075+013415999GA3075+028965999GD13991+0103659GD23991+0134159GD33991+0289659GE19AGL   +99999+99999GF199999999999010361999999MA1100445100335OC101755OD149901751290REMMET13401/01/25 16:51:02 METAR KEWR 012151Z 28021G34KT 10SM BKN034 BKN044 BKN095 07/M01 A2966 RMK AO2 PK WND 29034/2150 SLP044 T00671011 (BS)
0335725020147342025010122517+40683-074169FM-15+0009KEWR V0202705N00935028965MN0160935N5+00675-00175100515ADDAA101000095GA1045+012195999GA2045+015245999GA3075+028965999GD12991+0121959GD22991+0152459GD33991+0289659GE19AGL   +99999+99999GF199999999999012191999999MA1100515100405OC101395OD149901801290REMMET13401/01/25 17:51:02 METAR KEWR 012251Z 27018G27KT 10SM SCT040 SCT050 BKN095 07/M02 A2968 RMK AO2 PK WND 29035/2207 SLP051 T00671017 (BS)
0391725020147342025010123517+40683-074169FM-15+0009KEWR V0202805N007252200059N0160935N5+00615-00175100555ADDAA101000095AA206000021GA1025+013725999GA2045+028965999GD11991+0137259GD22991+0289659GE19AGL   +99999+99999GF104995999999013721999999KA1060M+00941KA2060N+00611MA1100585100475MD1190199+9999OC101295OD149901751270REMMET15101/01/25 18:51:02 METAR KEWR 012351Z 28014G25KT 10SM FEW045 SCT095 06/M02 A2970 RMK AO2 PK WND 27034/2252 SLP055 60000 T00611017 10094 20061 51019 (BS)EQDD01      0ADE726
0248725020147342025010200004+40700-074167FM-12+000999999V0202801N007212200019N016000199+00611-00171100551ADDAA106000021GA1999+012501999GE19AGL   +99999+99999GF104991999999012501999999KA1120M+01111KA2120N+00611MA1999999100491MD1110191+9999OD149901291999REMSYN09272502 12666 42814 10061 21017 30049 40055 51019 69901 92351 333 10111 20061 91025 555 90200=
0254725020147342025010200517+40683-074169FM-15+0009KEWR V0202805N01085015245MN0160935N5+00675-00285100655ADDAA101000095GA1075+015245999GD13991+0152459GE19AGL   +99999+99999GF199999999999015241999999MA1100685100575OC101755OD149901751300REMMET11501/01/25 19:51:01 METAR KEWR 020051Z 28021G34KT 10SM BKN050 07/M03 A2973 RMK AO2 PK WND 30034/0051 SLP065 T00671028
0273725020147342025010201517+40683-074169FM-15+0009KEWR V0202905N010852200059N0160935N5+00565-00615100705ADDAA101000095GA1025+015245999GD11991+0152459GE19AGL   +99999+99999GF102995999999015241999999MA1100715100605OC101545OD149901951290REMMET11501/01/25 20:51:01 METAR KEWR 020151Z 29021G30KT 10SM FEW050 06/M06 A2974 RMK AO2 PK WND 29038/0136 SLP070 T00561061EQDD01      0ADE726
0293725020147342025010202517+40683-074169FM-15+0009KEWR V0202705N005152200059N0160935N5+00565-00565100815ADDAA101000095GA1045+016765999GD12991+0167659GE19AGL   +99999+99999GF104995999999016761999999MA1100815100715MD1390269+9999OC101035OD149901641280REMMET12101/01/25 21:51:01 METAR KEWR 020251Z 27010G20KT 10SM SCT055 06/M06 A2977 RMK AO2 PK WND 28032/0155 SLP081 T00561056 53026EQDD01      0ADE726
0193725020147342025010203004+40700-074167FM-12+000999999V0202701N005112200019N016000199+00561-00561100811ADDGA1999+017501999GE19AGL   +99999+99999GF104991999999017501999999MA1999999100721MD1310261+9999OD149901031999REMSYN07472502 32766 42710 10056 21056 30072 40081 53026 90251 333 91020 555 90203=
0230725020147342025010203517+40683-074169FM-15+0009KEWR V0202605N006752200059N0160935N5+00505-00445100835ADDAA101000095GA1045+015245999GD12991+0152459GE19AGL   +99999+99999GF104995999999015241999999MA1100855100745REMMET09401/01/25 22:51:02 METAR KEWR 020351Z 26013KT 10SM SCT050 05/M04 A2978 RMK AO2 SLP083 T00501044EQDD01      0ADE726
0277725020147342025010204517+40683-074169FM-15+0009KEWR V0202605N007752200059N0160935N5+00445-00395100865ADDAA101000095GA1045+015245999GD12991+0152459GE19AGL   +99999+99999GF104995999999015241999999KA1240M+01111KA2240N+00441MA1100885100775OC101245REMMET10701/01/25 23:51:02 METAR KEWR 020451Z 26015G24KT 10SM SCT050 04/M04 A2979 RMK AO2 SLP086 T00441039 401110044EQDD01      0ADE726
0996725020147342025010204596+40683-074169SOD  +0009KEWR V020999999999999999999999999999+99999+99999999999ADDAA124000025AJ100009599999999AL12400095AN1024000095AT1AU16RA  5AT2AU13BR  5KA1240M+01115KA2240N+00445MG1099954099764OE11240192229020365OE22240134129020375OE33240067199999995REMSOD77724 HR PRECIPITATION (IN):T     SNOW DEPTH (IN):0     24 HR SNOWFALL (IN):0.0  24 HR MAX TEMP (F):52 24 HR MAX TEMP TIME (LST):1151 24 HR MIN TEMP (F):40 24 HR MIN TEMP TIME (LST):2359 AVERAGE STATION PRESSURE:29.515 MINIMUM SEA LEVEL PRESSURE:29.46 TIME OF OCCURRENCE:0140 PEAK WIND SPEED (MPH):43  PEAK WIND DIR (DEG):290 PEAK WIND TIME (LST):2036  FASTEST 2MIN SPEED (MPH):30 FASTEST 2MIN DIR (DEG):290 FASTEST 2MIN TIME (LST):2037 AVERAGE WIND SPEED (MPH):15.0 24 HR AVG TEMP (F):46 HEATING DEGREE DAYS:19  COOLING DEGREE DAYS:0   LATEST DAY MAX TEMP (0700-1900 LST):52  LATEST NIGHT MIN TEMP(1900-0800 LST):46 HOURLY INCREMENTAL PRECIPITATION VALUES (IN):.00 0.00 0.00 0.00 0.00 0.00 0.00 0.00 0.00 0.00 0.00 0.00 0.00 T    T    T    0.00 0.00 0.00 0.00 0.00 0.00 0.00 0.00EQDR01     N7GJS072R02     N7GKS075
0304725020147342025010205517+40683-074169FM-15+0009KEWR V0202505N006252200059N0160935N5+00395-00445100895ADDAA101000095GA1025+015245999GD11991+0152459GE19AGL   +99999+99999GF102995999999015241999999KA1060M+00671KA2060N+00391MA1100915100815MD1390089+9999OC101085REMMET12001/02/25 00:51:02 METAR KEWR 020551Z 25012G21KT 10SM FEW050 04/M04 A2980 RMK AO2 SLP089 T00391044 10067 20039 53008 (DH)EQDD01      0ADE726
0231725020147342025010206004+40700-074167FM-12+000999999V0202501N006212200019N016000199+00391-00441100891ADDGA1999+017501999GE19AGL   +99999+99999GF102991999999017501999999KA1240M+00941KA2240N+00391MA1999999100831MD1310081+9999OD149901081999REMSYN08672502 32766 22512 10039 21044 30083 40089 53008 90551 333 10094 20039 91021 555 90206=
0235725020147342025010206517+40683-074169FM-15+0009KEWR V0202605N007752200059N0160935N5+00395-00395100945ADDAA101000095GA1025+015245999GD11991+0152459GE19AGL   +99999+99999GF102995999999015241999999MA1100955100845REMMET09901/02/25 01:51:02 METAR KEWR 020651Z 26015KT 10SM FEW050 04/M04 A2981 RMK AO2 SLP094 T00391039 (DH)EQDD01      0ADE726
0278725020147342025010207517+40683-074169FM-15+0009KEWR V0202605N009852200059N0160935N5+00395-00285101025ADDAA101000095GA1025+015245999GD11991+0152459GE19AGL   +99999+99999GF102995999999015241999999MA1101025100915OC101345OD149901331250REMMET12001/02/25 02:51:02 METAR KEWR 020751Z 26019G26KT 10SM FEW050 04/M03 A2983 RMK AO2 PK WND 25026/0747 SLP102 T00391028 (DH)EQDD01      0ADE726
0298725020147342025010208517+40683-074169FM-15+0009KEWR V0202605N007752200059N0160935N5+00445-00395101045ADDAA101000095GA1025+015245999GD11991+0152459GE19AGL   +99999+99999GF102995999999015241999999MA1101055100945MD1190169+9999OC101345OD149901491260REMMET12601/02/25 03:51:02 METAR KEWR 020851Z 26015G26KT 10SM FEW050 04/M04 A2984 RMK AO2 PK WND 26029/0800 SLP104 T00441039 51016 (DH)EQDD01      0ADE726
0193725020147342025010209004+40700-074167FM-12+000999999V0202601N007712200019N016000199+00441-00391101041ADDGA1999+017501999GE19AGL   +99999+99999GF102991999999017501999999MA1999999100961MD1110161+9999OD149901341999REMSYN07472502 32766 22615 10044 21039 30096 40104 51016 90851 333 91026 555 90209=
0246725020147342025010209517+40683-074169FM-15+0009KEWR V0202505N007252200059N0160935N5+00395-00565101085ADDAA101000095GA1025+015245999GD11991+0152459GE19AGL   +99999+99999GF102995999999015241999999MA1101085100985OC101245REMMET10201/02/25 04:51:02 METAR KEWR 020951Z 25014G24KT 10SM FEW050 04/M06 A2985 RMK AO2 SLP108 T00391056 (DH)EQDD01      0ADE726
0278725020147342025010210517+40683-074169FM-15+0009KEWR V0202605N007752200059N0160935N5+00335-00565101185ADDAA101000095GA1045+016765999GD12991+0167659GE19AGL   +99999+99999GF104995999999016761999999MA1101195101085OC101395OD149901441250REMMET12001/02/25 05:51:02 METAR KEWR 021051Z 26015G27KT 10SM SCT055 03/M06 A2988 RMK AO2 PK WND 25028/1020 SLP118 T00331056 (DH)EQDD01      0ADE726
0336725020147342025010211517+40683-074169FM-15+0009KEWR V0202605N009352200059N0160935N5+00285-00615101205ADDAA101000095GA1025+016765999GD11991+0167659GE19AGL   +99999+99999GF102995999999016761999999KA1060M+00441KA2060N+00281MA1101225101115MD1190169+9999OC101245OD149901441250REMMET13801/02/25 06:51:02 METAR KEWR 021151Z 26018G24KT 10SM FEW055 03/M06 A2989 RMK AO2 PK WND 25028/1127 SLP120 T00281061 10044 20028 51016 (DH)EQDD01      0ADE726
0231725020147342025010212004+40700-074167FM-12+000999999V0202601N009312200019N016000199+00281-00611101201ADDGA1999+017501999GE19AGL   +99999+99999GF102991999999017501999999KA1240M+01111KA2240N+00281MA1999999101131MD1110161+9999OD149901241999REMSYN08672502 32766 22618 10028 21061 30113 40120 51016 91151 333 10111 20028 91024 555 90212=
0273725020147342025010212517+40683-074169FM-15+0009KEWR V0202705N007252200059N0160935N5+00285-00675101265ADDAA101000095GA1025+016765999GD11991+0167659GE19AGL   +99999+99999GF102995999999016761999999MA1101255101145OC101185OD149901391250REMMET11501/02/25 07:51:02 METAR KEWR 021251Z 27014G23KT 10SM FEW055 03/M07 A2990 RMK AO2 PK WND 25027/1210 SLP126 T00281067EQDD01      0ADE726
0278725020147342025010213517+40683-074169FM-15+0009KEWR V0202605N008252200059N0160935N5+00395-00615101375ADDAA101000095GA1045+016765999GD12991+0167659GE19AGL   +99999+99999GF104995999999016761999999MA1101395101285OC101395OD149901591260REMMET12001/02/25 08:51:02 METAR KEWR 021351Z 26016G27KT 10SM SCT055 04/M06 A2994 RMK AO2 PK WND 26031/1314 SLP137 T00391061 (IZ)EQDD01      0ADE726
0298725020147342025010214517+40683-074169FM-15+0009KEWR V0202605N008852200059N0160935N5+00565-00615101445ADDAA101000095GA1045+013725999GD12991+0137259GE19AGL   +99999+99999GF104995999999013721999999MA1101465101355MD1390239+9999OC101345OD149901591250REMMET12601/02/25 09:51:02 METAR KEWR 021451Z 26017G26KT 10SM SCT045 06/M06 A2996 RMK AO2 PK WND 25031/1437 SLP144 T00561061 53023 (IZ)EQDD01      0ADE726
0193725020147342025010215004+40700-074167FM-12+000999999V0202601N008812200019N016000199+00561-00611101441ADDGA1999+012501999GE19AGL   +99999+99999GF104991999999012501999999MA1999999101371MD1310231+9999OD149901341999REMSYN07472502 32666 42617 10056 21061 30137 40144 53023 91451 333 91026 555 90215=
0259725020147342025010215517+40683-074169FM-15+0009KEWR V0202705N01245015245MN0160935N5+00615-00675101435ADDAA101000095GA1075+015245999GD13991+0152459GE19AGL   +99999+99999GF199999999999015241999999MA1101425101315OC101655OD149901691270REMMET12001/02/25 10:51:02 METAR KEWR 021551Z 27024G32KT 10SM BKN050 06/M07 A2995 RMK AO2 PK WND 27033/1529 SLP143 T00611067 (IZ)
0259725020147342025010216517+40683-074169FM-15+0009KEWR V0202805N01135015245MN0160935N5+00675-00725101345ADDAA101000095GA1075+015245999GD13991+0152459GE19AGL   +99999+99999GF199999999999015241999999MA1101355101255OC101605OD149901801270REMMET12001/02/25 11:51:02 METAR KEWR 021651Z 28022G31KT 10SM BKN050 07/M07 A2993 RMK AO2 PK WND 27035/1623 SLP134 T00671072 (IZ)
0317725020147342025010217517+40683-074169FM-15+0009KEWR V0202805N01245015245MN0160935N5+00615-00785101315ADDAA101000095GA1075+015245999GD13991+0152459GE19AGL   +99999+99999GF199999999999015241999999KA1060M+00671KA2060N+00281MA1101325101215MD1890129+9999OC101655OD149901751270REMMET13801/02/25 12:51:02 METAR KEWR 021751Z 28024G32KT 10SM BKN050 06/M08 A2992 RMK AO2 PK WND 27034/1706 SLP131 T00611078 10067 20028 58012 (IZ)
0231725020147342025010218004+40700-074167FM-12+000999999V0202801N012419999999N016000199+00611-00781101311ADDGA1999+017501999GE19AGL   +99999+99999GF106991999999017501999999KA1120M+00671KA2120N+00281MA1999999101231MD1810121+9999OD149901651999REMSYN08672502 32766 62824 10061 21078 30123 40131 58012 91751 333 10067 20028 91032 555 90218=
0259725020147342025010218517+40683-074169FM-15+0009KEWR V0202605N01085018295MN0160935N5+00615-00835101315ADDAA101000095GA1075+018295999GD13991+0182959GE19AGL   +99999+99999GF199999999999018291999999MA1101325101215OC101545OD149901851280REMMET12001/02/25 13:51:02 METAR KEWR 021851Z 26021G30KT 10SM BKN060 06/M08 A2992 RMK AO2 PK WND 28036/1820 SLP131 T00611083 (IZ)
0265725020147342025010219517+40683-074169FM-15+0009KEWR V0202605N01035018295MN0160935N5+00565-00835101355ADDAA101000095GA1075+018295999GD13991+0182959GE19AGL   +99999+99999GF199999999999018291999999MA1101355101255OC101545OD149901851270REMMET12601/02/25 14:51:02 METAR KEWR 021951Z 26020G30KT 10SM BKN060 06/M08 A2993 RMK AO2 PK WND 27036/1857 SLP135 VIRGA T00561083 (BS)
0323725020147342025010220517+40683-074169FM-15+0009KEWR V0202705N00985018295MN0160935N5+00505-00895101425ADDAA101000095GA1075+018295999GA2075+060965999GD13991+0182959GD23991+0609659GE19AGL   +99999+99999GF199999999999018291999999MA1101425101315MD1390109+9999OC101705OD149901691260REMMET13901/02/25 15:51:02 METAR KEWR 022051Z 27019G33KT 10SM BKN060 BKN200 05/M09 A2995 RMK AO2 PK WND 26033/2040 SLP142 VIRGA T00501089 53010 (BS)
0193725020147342025010221004+40700-074167FM-12+000999999V0202701N009819999999N016000199+00501-00891101421ADDGA1999+017501999GE19AGL   +99999+99999GF106991999999017501999999MA1999999101331MD1310101+9999OD149901701999REMSYN07472502 32766 62719 10050 21089 30133 40142 53010 92051 333 91033 555 90221=
0350725020147342025010221517+40683-074169FM-15+0009KEWR V0202705N01035019815MN0160935N5+00395-00895101475ADDAA101000095GA1025+015245999GA2075+019815999GA3075+060965999GD11991+0152459GD23991+0198159GD33991+0609659GD43991+0762019GE19AGL   +99999+99999GF199999999999015241999999MA1101495101385OC101495OD149901641260REMMET13401/02/25 16:51:02 METAR KEWR 022151Z 27020G29KT 10SM FEW050 BKN065 BKN200 04/M09 A2997 RMK AO2 PK WND 26032/2107 SLP147 T00391089 (BS)
0335725020147342025010222517+40683-074169FM-15+0009KEWR V0202505N00825076205MN0160935N5+00335-00895101475ADDAA101000095GA1025+016765999GA2045+021345999GA3075+076205999GD11991+0167659GD22991+0213459GD33991+0762059GE19AGL   +99999+99999GF199999999999016761999999MA1101495101385OC101135OD149901331270REMMET13401/02/25 17:51:02 METAR KEWR 022251Z 25016G22KT 10SM FEW055 SCT070 BKN250 03/M09 A2997 RMK AO2 PK WND 27026/2237 SLP147 T00331089 (BS)
0393725020147342025010223517+40683-074169FM-15+0009KEWR V0202605N00885076205MN0160935N5+00285-00835101515ADDAA101000095GA1025+016765999GA2045+021345999GA3075+076205999GD11991+0167659GD22991+0213459GD33991+0762059GE19AGL   +99999+99999GF199999999999016761999999KA1060M+00671KA2060N+00281MA1101525101425MD1190099+9999OC101605OD149901591270REMMET15201/02/25 18:51:02 METAR KEWR 022351Z 26017G31KT 10SM FEW055 SCT070 BKN250 03/M08 A2998 RMK AO2 PK WND 27031/2345 SLP151 T00281083 10067 20028 51009 (BS)
0231725020147342025010300004+40700-074167FM-12+000999999V0202601N008819999999N016000199+00281-00831101511ADDGA1999+017501999GE19AGL   +99999+99999GF106991999999017501999999KA1120M+00671KA2120N+00281MA1999999101431MD1110091+9999OD149901601999REMSYN08672502 32766 62617 10028 21083 30143 40151 51009 92351 333 10067 20028 91031 555 90300=
0311725020147342025010300517+40683-074169FM-15+0009KEWR V0202605N007752200059N0160935N5+00225-00895101545ADDAA101000095GA1045+019815999GA2045+076205999GD12991+0198159GD22991+0762059GE19AGL   +99999+99999GF104995999999019811999999MA1101565101455OC101395OD149901491260REMMET12201/02/25 19:51:01 METAR KEWR 030051Z 26015G27KT 10SM SCT065 SCT250 02/M09 A2999 RMK AO2 PK WND 26029/0017 SLP154 T00221089EQDD01      0ADE726
0273725020147342025010301517+40683-074169FM-15+0009KEWR V0202505N007752200059N0160935N5+00175-00895101525ADDAA101000095GA1045+019815999GD12991+0198159GE19AGL   +99999+99999GF104995999999019811999999MA1101525101425OC101185OD149901331250REMMET11501/02/25 20:51:01 METAR KEWR 030151Z 25015G23KT 10SM SCT065 02/M09 A2998 RMK AO2 PK WND 25026/0112 SLP152 T00171089EQDD01      0ADE726
0320725020147342025010302517+40683-074169FM-15+0009KEWR V0202605N007752200059N0160935N5+00115-00835101525ADDAA101000095GA1025+015245999GA2045+019815999GD11991+0152459GD22991+0198159GE19AGL   +99999+99999GF104995999999015241999999MA1101525101425MD1190019+9999OD149901331250REMMET12501/02/25 21:51:01 METAR KEWR 030251Z 26015KT 10SM FEW050 SCT065 01/M08 A2998 RMK AO2 PK WND 25026/0206 SLP152 T00111083 51001EQDD01      0ADE726
0169725020147342025010303004+40700-074167FM-12+000999999V0202601N007712200019N016000199+00111-00831101521ADDGA1999+017501999GE19AGL   +99999+99999GF104991999999017501999999MA1999999101431MD1110011+9999REMSYN06472502 32766 42615 10011 21083 30143 40152 51001 90251 555 90303=
0222725020147342025010303517+40683-074169FM-15+0009KEWR V0202605N00825019815MN0160935N5+00115-00895101505ADDAA101000095GA1075+019815999GD13991+0198159GE19AGL   +99999+99999GF199999999999019811999999MA1101525101425OC101295REMMET09701/02/25 22:51:02 METAR KEWR 030351Z 26016G25KT 10SM BKN065 01/M09 A2998 RMK AO2 SLP150 T00111089
0309725020147342025010304517+40683-074169FM-15+0009KEWR V0202605N006752200059N0160935N5+00115-00895101535ADDAA101000095GA1025+019815999GD11991+0198159GE19AGL   +99999+99999GF102995999999019811999999KA1240M+00671KA2240N+00111MA1101565101455OC101345OD149901331250REMMET12501/02/25 23:51:02 METAR KEWR 030451Z 26013G26KT 10SM FEW065 01/M09 A2999 RMK AO2 PK WND 25026/0442 SLP153 T00111089 400670011EQDD01      0ADE726
0972725020147342025010304596+40683-074169SOD  +0009KEWR V020999999999999999999999999999+99999+99999999999ADDAA124000095AJ100009599999999AL12400095AN1024000095KA1240M+00675KA2240N+00115MG1101124100854OE11240187828013205OE22240138628013585OE33240088199999995REMSOD77724 HR PRECIPITATION (IN):0.00  SNOW DEPTH (IN):0     24 HR SNOWFALL (IN):0.0  24 HR MAX TEMP (F):44 24 HR MAX TEMP TIME (LST):1319 24 HR MIN TEMP (F):34 24 HR MIN TEMP TIME (LST):2359 AVERAGE STATION PRESSURE:29.860 MINIMUM SEA LEVEL PRESSURE:29.78 TIME OF OCCURRENCE:0014 PEAK WIND SPEED (MPH):42  PEAK WIND DIR (DEG):280 PEAK WIND TIME (LST):1320  FASTEST 2MIN SPEED (MPH):31 FASTEST 2MIN DIR (DEG):280 FASTEST 2MIN TIME (LST):1358 AVERAGE WIND SPEED (MPH):19.7 24 HR AVG TEMP (F):39 HEATING DEGREE DAYS:26  COOLING DEGREE DAYS:0   LATEST DAY MAX TEMP (0700-1900 LST):44  LATEST NIGHT MIN TEMP(1900-0800 LST):37 HOURLY INCREMENTAL PRECIPITATION VALUES (IN):.00 0.00 0.00 0.00 0.00 0.00 0.00 0.00 0.00 0.00 0.00 0.00 0.00 0.00 0.00 0.00 0.00 0.00 0.00 0.00 0.00 0.00 0.00 0.00EQDR01     N7GJS072R02     N7GKS075
0304725020147342025010305517+40683-074169FM-15+0009KEWR V0202605N008852200059N0160935N5+00115-00895101505ADDAA101000095GA1045+018295999GD12991+0182959GE19AGL   +99999+99999GF104995999999018291999999KA1060M+00281KA2060N+00111MA1101525101425MD1890029+9999OC101135REMMET12001/03/25 00:51:02 METAR KEWR 030551Z 26017G22KT 10SM SCT060 01/M09 A2998 RMK AO2 SLP150 T00111089 10028 20011 58002 (DH)EQDD01      0ADE726
0231725020147342025010306004+40700-074167FM-12+000999999V0202601N008812200019N016000199+00111-00891101501ADDGA1999+017501999GE19AGL   +99999+99999GF104991999999017501999999KA1240M+00441KA2240N+00111MA1999999101431MD1810021+9999OD149901131999REMSYN08672502 32766 42617 10011 21089 30143 40150 58002 90551 333 10044 20011 91022 555 90306=
0246725020147342025010306517+40683-074169FM-15+0009KEWR V0202705N006752200059N0160935N5+00065-00945101525ADDAA101000095GA1045+018295999GD12991+0182959GE19AGL   +99999+99999GF104995999999018291999999MA1101525101425OC101035REMMET10201/03/25 01:51:02 METAR KEWR 030651Z 27013G20KT 10SM SCT060 01/M09 A2998 RMK AO2 SLP152 T00061094 (DH)EQDD01      0ADE726
0216725020147342025010307517+40683-074169FM-15+0009KEWR V0202805N00575016765MN0160935N5+00115-00895101545ADDAA101000095GA1075+016765999GD13991+0167659GE19AGL   +99999+99999GF199999999999016761999999MA1101565101455REMMET09901/03/25 02:51:02 METAR KEWR 030751Z 28011KT 10SM BKN055 01/M09 A2999 RMK AO2 SLP154 T00111089 (DH)
0236725020147342025010308517+40683-074169FM-15+0009KEWR V0202705N00575016765MN0160935N5+00115-00895101555ADDAA101000095GA1075+016765999GD13991+0167659GE19AGL   +99999+99999GF199999999999016761999999MA1101565101455MD1190049+9999REMMET10501/03/25 03:51:02 METAR KEWR 030851Z 27011KT 10SM BKN055 01/M09 A2999 RMK AO2 SLP155 T00111089 51004 (DH)
0169725020147342025010309004+40700-074167FM-12+000999999V0202701N005719999999N016000199+00111-00891101551ADDGA1999+017501999GE19AGL   +99999+99999GF106991999999017501999999MA1999999101471MD1110041+9999REMSYN06472502 32766 62711 10011 21089 30147 40155 51004 90851 555 90309=
0227725020147342025010309517+40683-074169FM-15+0009KEWR V0202705N00825016765MN0160935N5+00115-00785101535ADDAA101000095GA1075+016765999GD13991+0167659GE19AGL   +99999+99999GF199999999999016761999999MA1101525101425OC101135REMMET10201/03/25 04:51:02 METAR KEWR 030951Z 27016G22KT 10SM BKN055 01/M08 A2998 RMK AO2 SLP153 T00111078 (DH)
0216725020147342025010310517+40683-074169FM-15+0009KEWR V0202705N00575015245MN0160935N5+00115-00835101515ADDAA101000095GA1075+015245999GD13991+0152459GE19AGL   +99999+99999GF199999999999015241999999MA1101525101425REMMET09901/03/25 05:51:02 METAR KEWR 031051Z 27011KT 10SM BKN050 01/M08 A2998 RMK AO2 SLP151 T00111083 (DH)
0275725020147342025010311517+40683-074169FM-15+0009KEWR V0202505N00515015245MN0160935N5+00115-00835101475ADDAA101000095GA1075+015245999GD13991+0152459GE19AGL   +99999+99999GF199999999999015241999999KA1060M+00111KA2060N+00061MA1101495101385MD1890079+9999REMMET11801/03/25 06:51:02 METAR KEWR 031151Z 25010KT 10SM BKN050 01/M08 A2997 RMK AO2 SLP147 T00111083 10011 20006 58007 (MVC)
0211725020147342025010312004+40700-074167FM-12+000999999V0202501N005119999999N016000199+00111-00831101471ADDGA1999+017501999GE19AGL   +99999+99999GF106991999999017501999999KA1240M+00671KA2240N+00061MA1999999101401MD1810071+9999REMSYN08072502 32766 62510 10011 21083 30140 40147 58007 91151 333 10067 20006 555 90312=
0312725020147342025010312517+40683-074169FM-15+0009KEWR V0202405N004652200059N0160935N5+00065-00835101435ADDAA101000095GA1025+015245999GA2025+036585999GA3045+076205999GD11991+0152459GD21991+0365859GD32991+0762059GE19AGL   +99999+99999GF104995999999015241999999MA1101425101315REMMET11401/03/25 07:51:02 METAR KEWR 031251Z 24009KT 10SM FEW050 FEW120 SCT250 01/M08 A2995 RMK AO2 SLP143 T00061083 (MVC)EQDD01      0ADE726
0312725020147342025010313517+40683-074169FM-15+0009KEWR V0202505N005152200059N0160935N5+00175-00835101425ADDAA101000095GA1025+015245999GA2025+036585999GA3025+076205999GD11991+0152459GD21991+0365859GD31991+0762059GE19AGL   +99999+99999GF102995999999015241999999MA1101425101315REMMET11401/03/25 08:51:02 METAR KEWR 031351Z 25010KT 10SM FEW050 FEW120 FEW250 02/M08 A2995 RMK AO2 SLP142 T00171083 (MVC)EQDD01      0ADE726
0275725020147342025010314517+40683-074169FM-15+0009KEWR V0202605N00675014335MN0160935N5+00335-00895101395ADDAA101000095GA1075+014335999GA2075+076205999GD13991+0143359GD23991+0762059GE19AGL   +99999+99999GF199999999999014331999999MA1101425101315MD1690089+9999REMMET11301/03/25 09:51:02 METAR KEWR 031451Z 26013KT 10SM BKN047 BKN250 03/M09 A2995 RMK AO2 SLP139 T00331089 56008 (MVC)
0169725020147342025010315004+40700-074167FM-12+000999999V0202601N006719999999N016000199+00331-00891101391ADDGA1999+012501999GE19AGL   +99999+99999GF106991999999012501999999MA1999999101331MD1610081+9999REMSYN06472502 32666 62613 10033 21089 30133 40139 56008 91451 555 90315=
0266725020147342025010315517+40683-074169FM-15+0009KEWR V0202805N00625076205MN0160935N5+00395-00895101295ADDAA101000095GA1045+014025999GA2075+076205999GD12991+0140259GD23991+0762059GE19AGL   +99999+99999GF199999999999014021999999MA1101325101215OC101085REMMET11001/03/25 10:51:02 METAR KEWR 031551Z 28012G21KT 10SM SCT046 BKN250 04/M09 A2992 RMK AO2 SLP129 T00391089 (MVC)
0266725020147342025010316517+40683-074169FM-15+0009KEWR V0202605N00575076205MN0160935N5+00445-00895101135ADDAA101000095GA1045+013725999GA2075+076205999GD12991+0137259GD23991+0762059GE19AGL   +99999+99999GF199999999999013721999999MA1101155101045OC101035REMMET11001/03/25 11:51:02 METAR KEWR 031651Z 26011G20KT 10SM SCT045 BKN250 04/M09 A2987 RMK AO2 SLP113 T00441089 (MVC)
0362725020147342025010317517+40683-074169FM-15+0009KEWR V0202505N00725076205MN0160935N5+00445-00835101005ADDAA101000095GA1045+014025999GA2045+045725999GA3075+076205999GD12991+0140259GD22991+0457259GD33991+0762059GE19AGL   +99999+99999GF199999999999014021999999KA1060M+00501KA2060N+00061MA1101025100915MD1890409+9999OC101035REMMET13501/03/25 12:51:02 METAR KEWR 031751Z 25014G20KT 10SM SCT046 SCT150 BKN250 04/M08 A2983 RMK AO2 SLP100 T00441083 10050 20006 58040 (MVC)
0231725020147342025010318004+40700-074167FM-12+000999999V0202501N007219999999N016000199+00441-00831101001ADDGA1999+012501999GE19AGL   +99999+99999GF106991999999012501999999KA1120M+00501KA2120N+00061MA1999999100931MD1810401+9999OD149901031999REMSYN08672502 32666 62514 10044 21083 30093 40100 58040 91751 333 10050 20006 91020 555 90318=
0304725020147342025010318517+40683-074169FM-15+0009KEWR V0202605N00675076205MN0160935N5+00395-00835100925ADDAA101000095GA1045+014335999GA2045+045725999GA3075+076205999GD12991+0143359GD22991+0457259GD33991+0762059GE19AGL   +99999+99999GF199999999999014331999999MA1100955100845OC101085REMMET11701/03/25 13:51:02 METAR KEWR 031851Z 26013G21KT 10SM SCT047 SCT150 BKN250 04/M08 A2981 RMK AO2 SLP092 T00391083 (MVC)
0303725020147342025010319517+40683-074169FM-15+0009KEWR V0202505N00775076205MN0160935N5+00395-00895100885ADDAA101000095GA1045+014945999GA2045+045725999GA3075+076205999GD12991+0149459GD22991+0457259GD33991+0762059GE19AGL   +99999+99999GF199999999999014941999999MA1100885100775OC101185REMMET11601/03/25 14:51:02 METAR KEWR 031951Z 25015G23KT 10SM SCT049 SCT150 BKN250 04/M09 A2979 RMK AO2 SLP088 T00391089 (BS)
0323725020147342025010320517+40683-074169FM-15+0009KEWR V0202605N00775016765MN0160935N5+00335-00895100915ADDAA101000095GA1075+016765999GA2075+045725999GA3075+076205999GD13991+0167659GD23991+0457259GD33991+0762059GE19AGL   +99999+99999GF199999999999016761999999MA1100915100815MD1590089+9999OC101035REMMET12201/03/25 15:51:02 METAR KEWR 032051Z 26015G20KT 10SM BKN055 BKN150 BKN250 03/M09 A2980 RMK AO2 SLP091 T00331089 55008 (BS)
0193725020147342025010321004+40700-074167FM-12+000999999V0202601N007719999999N016000199+00331-00891100911ADDGA1999+017501999GE19AGL   +99999+99999GF106991999999017501999999MA1999999100831MD1510081+9999OD149901031999REMSYN07472502 32766 62615 10033 21089 30083 40091 55008 92051 333 91020 555 90321=
0313725020147342025010321517+40683-074169FM-15+0009KEWR V0202605N00515021345MN0160935N5+00225-00785100925ADDAA101000095GA1045+015245999GA2075+021345999GA3075+036585999GD12991+0152459GD23991+0213459GD33991+0365859GD43991+0762019GE19AGL   +99999+99999GF199999999999015241999999MA1100955100845REMMET11901/03/25 16:51:02 METAR KEWR 032151Z 26010KT 10SM SCT050 BKN070 BKN120 02/M08 A2981 RMK AO2 SLP092 VIRGA T00221078 (BS)
0307725020147342025010322517+40683-074169FM-15+0009KEWR V0202505N00675021345MN0160935N5+00175-00675100965ADDAA101000095GA1045+014945999GA2075+021345999GA3075+033535999GD12991+0149459GD23991+0213459GD33991+0335359GD43991+0762019GE19AGL   +99999+99999GF199999999999014941999999MA1100985100875REMMET11301/03/25 17:51:02 METAR KEWR 032251Z 25013KT 10SM SCT049 BKN070 BKN110 02/M07 A2982 RMK AO2 SLP096 T00171067 (BS)
0376725020147342025010323517+40683-074169FM-15+0009KEWR V0202505N00515045725MN0160935N5+00065-00615100925ADDAA101000095GA1025+019815999GA2045+033535999GA3075+045725999GD11991+0198159GD22991+0335359GD33991+0457259GD43991+0762019GE19AGL   +99999+99999GF199999999999019811999999KA1060M+00441KA2060N+00061MA1100955100845MD1090019+9999OC100885REMMET13401/03/25 18:51:02 METAR KEWR 032351Z 25010G17KT 10SM FEW065 SCT110 BKN150 01/M06 A2981 RMK AO2 SLP092 T00061061 10044 20006 50001 (BS)
0231725020147342025010400004+40700-074167FM-12+000999999V0202501N005119999999N016000199+00061-00611100921ADDGA1999+017501999GE19AGL   +99999+99999GF106991999999017501999999KA1120M+00501KA2120N+00061MA1999999100861MD1990011+9999OD149900881999REMSYN08672502 32766 62510 10006 21061 30086 40092 50001 92351 333 10050 20006 91017 555 90400=
0313725020147342025010400517+40683-074169FM-15+0009KEWR V0202505N00515042675MN0160935N5+00005-00615100925ADDAA101000095GA1025+013725999GA2025+019815999GA3075+042675999GD11991+0137259GD21991+0198159GD33991+0426759GD43991+0762019GE19AGL   +99999+99999GF199999999999013721999999MA1100915100815OC100885REMMET11101/03/25 19:51:01 METAR KEWR 040051Z 25010G17KT 10SM FEW045 FEW065 BKN140 00/M06 A2980 RMK AO2 SLP092 T00001061
0287725020147342025010401517+40683-074169FM-15+0009KEWR V0202605N00465042675MN0160935N5+00005-00615100895ADDAA101000095GA1025+021345999GA2075+042675999GA3075+076205999GD11991+0213459GD23991+0426759GD33991+0762059GE19AGL   +99999+99999GF199999999999021341999999MA1100915100815REMMET10801/03/25 20:51:01 METAR KEWR 040151Z 26009KT 10SM FEW070 BKN140 BKN250 00/M06 A2980 RMK AO2 SLP089 T00001061
0307725020147342025010402517+40683-074169FM-15+0009KEWR V0202605N00465076205MN0160935N5+00005-00675100875ADDAA101000095GA1025+036585999GA2045+048775999GA3075+076205999GD11991+0365859GD22991+0487759GD33991+0762059GE19AGL   +99999+99999GF199999999999036581999999MA1100885100775MD1890059+9999REMMET11401/03/25 21:51:01 METAR KEWR 040251Z 26009KT 10SM FEW120 SCT160 BKN250 00/M07 A2979 RMK AO2 SLP087 T00001067 58005
0153725020147342025010403004+40700-074167FM-12+000999999V0202601N004619999999N016000199+00001-00671100871ADDGE19AGL   +99999+99999GF106991999999999999999999MA1999999100791MD1810051+9999REMSYN06472502 32966 62609 10000 21067 30079 40087 58005 90251 555 90403=
0288725020147342025010403517+40683-074169FM-15+0009KEWR V0202505N00415076205MN0160935N5-00065-00675100855ADDAA101000095GA1025+036585999GA2025+048775999GA3075+076205999GD11991+0365859GD21991+0487759GD33991+0762059GE19AGL   +99999+99999GF199999999999036581999999MA1100885100775REMMET10901/03/25 22:51:02 METAR KEWR 040351Z 25008KT 10SM FEW120 FEW160 BKN250 M01/M07 A2979 RMK AO2 SLP085 T10061067
0305725020147342025010404517+40683-074169FM-15+0009KEWR V0202905N006752200059N0160935N5-00065-00895100815ADDAA101000095GA1025+033535999GA2045+076205999GD11991+0335359GD22991+0762059GE19AGL   +99999+99999GF104995999999033531999999KA1240M+00501KA2240N-00111MA1100815100715REMMET11201/03/25 23:51:02 METAR KEWR 040451Z 29013KT 10SM FEW110 SCT250 M01/M09 A2977 RMK AO2 SLP081 T10061089 400501011EQDD01      0ADE726
0972725020147342025010404596+40683-074169SOD  +0009KEWR V020999999999999999999999999999+99999+99999999999ADDAA124000095AJ100009599999999AL12400095AN1024000095KA1240M+00505KA2240N-00105MG1101104100814OE11240129625010285OE22240098326014545OE33240060899999995REMSOD77724 HR PRECIPITATION (IN):0.00  SNOW DEPTH (IN):0     24 HR SNOWFALL (IN):0.0  24 HR MAX TEMP (F):41 24 HR MAX TEMP TIME (LST):1230 24 HR MIN TEMP (F):30 24 HR MIN TEMP TIME (LST):2337 AVERAGE STATION PRESSURE:29.855 MINIMUM SEA LEVEL PRESSURE:29.77 TIME OF OCCURRENCE:2359 PEAK WIND SPEED (MPH):29  PEAK WIND DIR (DEG):250 PEAK WIND TIME (LST):1028  FASTEST 2MIN SPEED (MPH):22 FASTEST 2MIN DIR (DEG):260 FASTEST 2MIN TIME (LST):1454 AVERAGE WIND SPEED (MPH):13.6 24 HR AVG TEMP (F):36 HEATING DEGREE DAYS:29  COOLING DEGREE DAYS:0   LATEST DAY MAX TEMP (0700-1900 LST):41  LATEST NIGHT MIN TEMP(1900-0800 LST):33 HOURLY INCREMENTAL PRECIPITATION VALUES (IN):.00 0.00 0.00 0.00 0.00 0.00 0.00 0.00 0.00 0.00 0.00 0.00 0.00 0.00 0.00 0.00 0.00 0.00 0.00 0.00 0.00 0.00 0.00 0.00EQDR01     N7GJS072R02     N7GKS075
0343725020147342025010405517+40683-074169FM-15+0009KEWR V0202905N006752200059N0160935N5-00065-01005100815ADDAA101000095GA1025+033535999GA2045+076205999GD11991+0335359GD22991+0762059GE19AGL   +99999+99999GF104995999999033531999999KA1060M+00061KA2060N-00111MA1100815100715MD1690069+9999OC101135REMMET12801/04/25 00:51:02 METAR KEWR 040551Z 29013G22KT 10SM FEW110 SCT250 M01/M10 A2977 RMK AO2 SLP081 T10061100 10006 21011 56006 (DH)EQDD01      0ADE726
0215725020147342025010406004+40700-074167FM-12+000999999V0202901N006712200019N016000199-00061-01001100811ADDGE19AGL   +99999+99999GF104991999999999999999999KA1240M+00111KA2240N-00111MA1999999100721MD1610061+9999OD149901131999REMSYN08672502 32966 42913 11006 21100 30072 40081 56006 90551 333 10011 21011 91022 555 90406=
0306725020147342025010406517+40683-074169FM-15+0009KEWR V0202705N005152200059N0160935N5-00065-01065100825ADDAA101000095GA1025+033535999GA2045+076205999GD11991+0335359GD22991+0762059GE19AGL   +99999+99999GF104995999999033531999999MA1100815100715OD149901391310REMMET12501/04/25 01:51:02 METAR KEWR 040651Z 27010KT 10SM FEW110 SCT250 M01/M11 A2977 RMK AO2 PK WND 31027/0627 SLP082 T10061106 (DH)EQDD01      0ADE726
0217725020147342025010407517+40683-074169FM-15+0009KEWR V0202605N00465018295MN0160935N5-00115-01005100855ADDAA101000095GA1075+018295999GD13991+0182959GE19AGL   +99999+99999GF199999999999018291999999MA1100885100775REMMET10001/04/25 02:51:02 METAR KEWR 040751Z 26009KT 10SM BKN060 M01/M10 A2979 RMK AO2 SLP085 T10111100 (DH)
0269725020147342025010408517+40683-074169FM-15+0009KEWR V0202905N00675016765MN0160935N5-00065-01115100895ADDAA101000095GA1085+016765999GD14991+0167659GE19AGL   +99999+99999GF199999999999016761999999MA1100915100815MD1390089+9999OD149901691290REMMET12401/04/25 03:51:02 METAR KEWR 040851Z 29013KT 10SM OVC055 M01/M11 A2980 RMK AO2 PK WND 29033/0830 SLP089 T10061111 53008 (DH)
0169725020147342025010409004+40700-074167FM-12+000999999V0202901N006719999999N016000199-00061-01111100891ADDGA1999+017501999GE19AGL   +99999+99999GF108991999999017501999999MA1999999100831MD1310081+9999REMSYN06472502 32766 82913 11006 21111 30083 40089 53008 90851 555 90409=
0317725020147342025010409517+40683-074169FM-15+0009KEWR V0203105N006752200059N0160935N5-00115-01225100985ADDAA101000095GA1045+015245999GA2045+036585999GD12991+0152459GD22991+0365859GE19AGL   +99999+99999GF104995999999015241999999MA1100985100875OC101495OD149901491310REMMET12801/04/25 04:51:02 METAR KEWR 040951Z 31013G29KT 10SM SCT050 SCT120 M01/M12 A2982 RMK AO2 PK WND 31029/0945 SLP098 T10111122 (DH)EQDD01      0ADE726
0249725020147342025010410517+40683-074169FM-15+0009KEWR V0202805N00365016765MN0160935N5-00115-01175101055ADDAA101000095GA1075+016765999GD13991+0167659GE19AGL   +99999+99999GF199999999999016761999999MA1101055100945OD149901541320REMMET11801/04/25 05:51:02 METAR KEWR 041051Z 28007KT 10SM BKN055 M01/M12 A2984 RMK AO2 PK WND 32030/0954 SLP105 T10111117 (DH)
0325725020147342025010411517+40683-074169FM-15+0009KEWR V0203005N00625018295MN0160935N5-00065-01285101095ADDAA101000095GA1075+018295999GA2075+036585999GD13991+0182959GD23991+0365859GE19AGL   +99999+99999GF199999999999018291999999KA1060M+00001KA2060N-00171MA1101125101015MD1190209+9999OC101245REMMET12901/04/25 06:51:02 METAR KEWR 041151Z 30012G24KT 10SM BKN060 BKN120 M01/M13 A2986 RMK AO2 SLP109 T10061128 10000 21017 51020 (MVC)
0231725020147342025010412004+40700-074167FM-12+000999999V0203001N006219999999N016000199-00061-01281101091ADDGA1999+017501999GE19AGL   +99999+99999GF106991999999017501999999KA1240M+00501KA2240N-00171MA1999999101031MD1110201+9999OD149901241999REMSYN08672502 32766 63012 11006 21128 30103 40109 51020 91151 333 10050 21017 91024 555 90412=
0356725020147342025010412517+40683-074169FM-15+0009KEWR V0202905N008852200059N0160935N5-00065-01335101115ADDAA101000095GA1045+018295999GA2045+039625999GA3045+070105999GD12991+0182959GD22991+0396259GD32991+0701059GE19AGL   +99999+99999GF104995999999018291999999MA1101125101015OC101445OD149901541300REMMET13601/04/25 07:51:02 METAR KEWR 041251Z 29017G28KT 10SM SCT060 SCT130 SCT230 M01/M13 A2986 RMK AO2 PK WND 30030/1237 SLP111 T10061133 (MVC)EQDD01      0ADE726
0298725020147342025010413517+40683-074169FM-15+0009KEWR V0202905N00935016765MN0160935N5+00005-01335101185ADDAA101000095GA1075+016765999GA2075+045725999GD13991+0167659GD23991+0457259GE19AGL   +99999+99999GF199999999999016761999999MA1101195101085OC101395OD149901591280REMMET12801/04/25 08:51:02 METAR KEWR 041351Z 29018G27KT 10SM BKN055 BKN150 00/M13 A2988 RMK AO2 PK WND 28031/1315 SLP118 T00001133 (MVC)
0280725020147342025010414517+40683-074169FM-15+0009KEWR V0203005N00675016765MN0160935N5+00175-01285101245ADDAA101000095GA1075+016765999GD13991+0167659GE19AGL   +99999+99999GF199999999999016761999999MA1101255101145MD1390159+9999OC101395OD149901541310REMMET12701/04/25 09:51:02 METAR KEWR 041451Z 30013G27KT 10SM BKN055 02/M13 A2990 RMK AO2 PK WND 31030/1426 SLP124 T00171128 53015 (MVC)
0193725020147342025010415004+40700-074167FM-12+000999999V0203001N006719999999N016000199+00171-01281101241ADDGA1999+017501999GE19AGL   +99999+99999GF106991999999017501999999MA1999999101161MD1310151+9999OD149901391999REMSYN07472502 32766 63013 10017 21128 30116 40124 53015 91451 333 91027 555 90415=
0260725020147342025010415517+40683-074169FM-15+0009KEWR V0202805N01085016765MN0160935N5+00065-01335101245ADDAA101000095GA1075+016765999GD13991+0167659GE19AGL   +99999+99999GF199999999999016761999999MA1101255101145OC101705OD149901851280REMMET12101/04/25 10:51:02 METAR KEWR 041551Z 28021G33KT 10SM BKN055 01/M13 A2990 RMK AO2 PK WND 28036/1521 SLP124 T00061133 (MVC)
0260725020147342025010416517+40683-074169FM-15+0009KEWR V0203105N00885018295MN0160935N5+00115-01395101175ADDAA101000095GA1075+018295999GD13991+0182959GE19AGL   +99999+99999GF199999999999018291999999MA1101195101085OC101445OD149901851290REMMET12101/04/25 11:51:02 METAR KEWR 041651Z 31017G28KT 10SM BKN060 01/M14 A2988 RMK AO2 PK WND 29036/1609 SLP117 T00111139 (MVC)
0318725020147342025010417517+40683-074169FM-15+0009KEWR V0203005N01135018295MN0160935N5+00175-01395101125ADDAA101000095GA1075+018295999GD13991+0182959GE19AGL   +99999+99999GF199999999999018291999999KA1060M+00221KA2060N-00061MA1101155101045MD1890119+9999OC101855OD149901851280REMMET13901/04/25 12:51:02 METAR KEWR 041751Z 30022G36KT 10SM BKN060 02/M14 A2987 RMK AO2 PK WND 28036/1742 SLP112 T00171139 10022 21006 58011 (MVC)
0231725020147342025010418004+40700-074167FM-12+000999999V0203001N011319999999N016000199+00171-01391101121ADDGA1999+017501999GE19AGL   +99999+99999GF106991999999017501999999KA1120M+00221KA2120N-00061MA1999999101061MD1810111+9999OD149901851999REMSYN08672502 32766 63022 10017 21139 30106 40112 58011 91751 333 10022 21006 91036 555 90418=
0260725020147342025010418517+40683-074169FM-15+0009KEWR V0203005N00985018295MN0160935N5+00115-01445101145ADDAA101000095GA1075+018295999GD13991+0182959GE19AGL   +99999+99999GF199999999999018291999999MA1101155101045OC101545OD149902001280REMMET12101/04/25 13:51:02 METAR KEWR 041851Z 30019G30KT 10SM BKN060 01/M14 A2987 RMK AO2 PK WND 28039/1809 SLP114 T00111144 (MVC)
0260725020147342025010419517+40683-074169FM-15+0009KEWR V0203005N00935018295MN0160935N5+00065-01445101205ADDAA101000095GA1075+018295999GD13991+0182959GE19AGL   +99999+99999GF199999999999018291999999MA1101225101115OC101605OD149901591290REMMET12101/04/25 14:51:02 METAR KEWR 041951Z 30018G31KT 10SM BKN060 01/M14 A2989 RMK AO2 PK WND 29031/1946 SLP120 T00061144 (MVC)
0280725020147342025010420517+40683-074169FM-15+0009KEWR V0202905N00725019815MN0160935N5+00065-01445101295ADDAA101000095GA1075+019815999GD13991+0198159GE19AGL   +99999+99999GF199999999999019811999999MA1101295101185MD1390169+9999OC101295OD149901491270REMMET12701/04/25 15:51:02 METAR KEWR 042051Z 29014G25KT 10SM BKN065 01/M14 A2991 RMK AO2 PK WND 27029/2033 SLP129 T00061144 53016 (MVC)
0193725020147342025010421004+40700-074167FM-12+000999999V0202901N007219999999N016000199+00061-01441101291ADDGA1999+017501999GE19AGL   +99999+99999GF106991999999017501999999MA1999999101201MD1310161+9999OD149901291999REMSYN07472502 32766 62914 10006 21144 30120 40129 53016 92051 333 91025 555 90421=
0260725020147342025010421517+40683-074169FM-15+0009KEWR V0202905N00935021345MN0160935N5+00005-01565101355ADDAA101000095GA1075+021345999GD13991+0213459GE19AGL   +99999+99999GF199999999999021341999999MA1101355101255OC101395OD149901541300REMMET12101/04/25 16:51:02 METAR KEWR 042151Z 29018G27KT 10SM BKN070 00/M16 A2993 RMK AO2 PK WND 30030/2130 SLP135 T00001156 (MVC)
0247725020147342025010422517+40683-074169FM-15+0009KEWR V0202905N00625021345MN0160935N5-00065-01565101395ADDAA101000095GA1075+021345999GD13991+0213459GE19AGL   +99999+99999GF199999999999021341999999MA1101425101315OC101185REMMET12201/04/25 17:51:02 METAR KEWR 042251Z 29012G23KT 10SM BKN070 M01/M16 A2995 RMK AO2 PK WND 28027/2154 SLP139 T10061156 (MVC)
0305725020147342025010423517+40683-074169FM-15+0009KEWR V0202605N00825019815MN0160935N5-00065-01445101415ADDAA101000095GA1075+019815999GD13991+0198159GE19AGL   +99999+99999GF199999999999019811999999KA1060M+00221KA2060N-00061MA1101425101315MD1190129+9999OC101185REMMET14001/04/25 18:51:02 METAR KEWR 042351Z 26016G23KT 10SM BKN065 M01/M14 A2995 RMK AO2 PK WND 25027/2314 SLP141 T10061144 10022 21006 51012 (MVC)
0231725020147342025010500004+40700-074167FM-12+000999999V0202601N008219999999N016000199-00061-01441101411ADDGA1999+017501999GE19AGL   +99999+99999GF106991999999017501999999KA1120M+00221KA2120N-00171MA1999999101331MD1110121+9999OD149901181999REMSYN08672502 32766 62616 11006 21144 30133 40141 51012 92351 333 10022 21017 91023 555 90500=
0226725020147342025010500397+40683-074169FM-16+0009KEWR V0202705N007252200059N0160935N5-00115-01505999999ADDGA1045+019815999GD12991+0198159GE19AGL   +99999+99999GF104995999999019811999999MA1101465101355OC101135REMMET09301/04/25 19:39:01 SPECI KEWR 050039Z 27014G22KT 10SM SCT065 M01/M15 A2996 RMK AO2 T10111150 $EQDD01      0ADE726
0214725020147342025010500517+40683-074169FM-15+0009KEWR V0202805N00775021345MN0160935N5-00115-01505101435ADDAA101000095GA1075+021345999GD13991+0213459GE19AGL   +99999+99999GF199999999999021341999999MA1101465101355REMMET09701/04/25 19:51:01 METAR KEWR 050051Z 28015KT 10SM BKN070 M01/M15 A2996 RMK AO2 SLP143 T10111150 $
0244725020147342025010501517+40683-074169FM-15+0009KEWR V0202705N006752200059N0160935N5-00115-01505101465ADDAA101000095GA1045+021345999GD12991+0213459GE19AGL   +99999+99999GF104995999999021341999999MA1101495101385OC101085REMMET10001/04/25 20:51:01 METAR KEWR 050151Z 27013G21KT 10SM SCT070 M01/M15 A2997 RMK AO2 SLP146 T10111150 $EQDD01      0ADE726
0262725020147342025010502517+40683-074169FM-15+0009KEWR V0202705N005152200059N0160935N5-00175-01445101505ADDAA101000095GA1045+018295999GD12991+0182959GE19AGL   +99999+99999GF104995999999018291999999MA1101525101425OC101035REMMET11801/04/25 21:51:01 METAR KEWR 050251Z 27010G20KT 10SM SCT060 M02/M14 A2998 RMK AO2 PK WND 27026/0222 SLP150 T10171144 $EQDD01      0ADE726
0173725020147342025010503004+40700-074167FM-12+000999999V0202701N005112200019N016000199-00171-01441101501ADDGA1999+017501999GE19AGL   +99999+99999GF104991999999017501999999MA1999999101431OD149901031999REMSYN06872502 32766 42710 11017 21144 30143 40150 90251 333 91020 555 90503=
0244725020147342025010503517+40683-074169FM-15+0009KEWR V0202505N005152200059N0160935N5-00225-01395101555ADDAA101000095GA1045+018295999GD12991+0182959GE19AGL   +99999+99999GF104995999999018291999999MA1101565101455OC101085REMMET10001/04/25 22:51:02 METAR KEWR 050351Z 25010G21KT 10SM SCT060 M02/M14 A2999 RMK AO2 SLP155 T10221139 $EQDD01      0ADE726
0261725020147342025010504517+40683-074169FM-15+0009KEWR V0202605N00725016765MN0160935N5-00175-01395101575ADDAA101000095GA1075+016765999GD13991+0167659GE19AGL   +99999+99999GF199999999999016761999999KA1240M+00221KA2240N-00221MA1101595101485OC101085REMMET11001/04/25 23:51:02 METAR KEWR 050451Z 26014G21KT 10SM BKN055 M02/M14 A3000 RMK AO2 SLP157 T10171139 400221022 $
0972725020147342025010504596+40683-074169SOD  +0009KEWR V020999999999999999999999999999+99999+99999999999ADDAA124000095AJ100009599999999AL12400095AN1024000095KA1240M+00225KA2240N-00215MG1101004100784OE11240201228013095OE22240143129013085OE33240073899999995REMSOD77724 HR PRECIPITATION (IN):0.00  SNOW DEPTH (IN):0     24 HR SNOWFALL (IN):0.0  24 HR MAX TEMP (F):36 24 HR MAX TEMP TIME (LST):1338 24 HR MIN TEMP (F):28 24 HR MIN TEMP TIME (LST):2300 AVERAGE STATION PRESSURE:29.825 MINIMUM SEA LEVEL PRESSURE:29.76 TIME OF OCCURRENCE:0023 PEAK WIND SPEED (MPH):45  PEAK WIND DIR (DEG):280 PEAK WIND TIME (LST):1309  FASTEST 2MIN SPEED (MPH):32 FASTEST 2MIN DIR (DEG):290 FASTEST 2MIN TIME (LST):1308 AVERAGE WIND SPEED (MPH):16.5 24 HR AVG TEMP (F):32 HEATING DEGREE DAYS:33  COOLING DEGREE DAYS:0   LATEST DAY MAX TEMP (0700-1900 LST):36  LATEST NIGHT MIN TEMP(1900-0800 LST):29 HOURLY INCREMENTAL PRECIPITATION VALUES (IN):.00 0.00 0.00 0.00 0.00 0.00 0.00 0.00 0.00 0.00 0.00 0.00 0.00 0.00 0.00 0.00 0.00 0.00 0.00 0.00 0.00 0.00 0.00 0.00EQDR01     N7GJS072R02     N7GKS075
0277725020147342025010505517+40683-074169FM-15+0009KEWR V0202605N00725015245MN0160935N5-00175-01335101585ADDAA101000095GA1085+015245999GD14991+0152459GE19AGL   +99999+99999GF199999999999015241999999KA1060M-00061KA2060N-00221MA1101595101485MD1190089+9999REMMET12001/05/25 00:51:02 METAR KEWR 050551Z 26014KT 10SM OVC050 M02/M13 A3000 RMK AO2 SLP158 T10171133 11006 21022 51008 $ (JG)
0211725020147342025010506004+40700-074167FM-12+000999999V0202601N007219999999N016000199-00171-01331101581ADDGA1999+017501999GE19AGL   +99999+99999GF108991999999017501999999KA1240M+00001KA2240N-00221MA1999999101501MD1110081+9999REMSYN08072502 32766 82614 11017 21133 30150 40158 51008 90551 333 10000 21022 555 90506=
0219725020147342025010506517+40683-074169FM-15+0009KEWR V0202705N00675015245MN0160935N5-00175-01285101615ADDAA101000095GA1085+015245999GD14991+0152459GE19AGL   +99999+99999GF199999999999015241999999MA1101635101525REMMET10201/05/25 01:51:02 METAR KEWR 050651Z 27013KT 10SM OVC050 M02/M13 A3001 RMK AO2 SLP161 T10171128 $ (JG)
0219725020147342025010507517+40683-074169FM-15+0009KEWR V0202605N00515015245MN0160935N5-00175-01285101615ADDAA101000095GA1085+015245999GD14991+0152459GE19AGL   +99999+99999GF199999999999015241999999MA1101635101525REMMET10201/05/25 02:51:02 METAR KEWR 050751Z 26010KT 10SM OVC050 M02/M13 A3001 RMK AO2 SLP161 T10171128 $ (JG)
0239725020147342025010508517+40683-074169FM-15+0009KEWR V0202605N00575014635MN0160935N5-00225-01225101595ADDAA101000095GA1085+014635999GD14991+0146359GE19AGL   +99999+99999GF199999999999014631999999MA1101595101485MD1090019+9999REMMET10801/05/25 03:51:02 METAR KEWR 050851Z 26011KT 10SM OVC048 M02/M12 A3000 RMK AO2 SLP159 T10221122 50001 $ (JG)
0169725020147342025010509004+40700-074167FM-12+000999999V0202601N005719999999N016000199-00221-01221101591ADDGA1999+012501999GE19AGL   +99999+99999GF108991999999012501999999MA1999999101501MD1990011+9999REMSYN06472502 32666 82611 11022 21122 30150 40159 50001 90851 555 90509=
0219725020147342025010509517+40683-074169FM-15+0009KEWR V0202505N00725014635MN0160935N5-00225-01175101625ADDAA101000095GA1085+014635999GD14991+0146359GE19AGL   +99999+99999GF199999999999014631999999MA1101635101525REMMET10201/05/25 04:51:02 METAR KEWR 050951Z 25014KT 10SM OVC048 M02/M12 A3001 RMK AO2 SLP162 T10221117 $ (JG)
0219725020147342025010510517+40683-074169FM-15+0009KEWR V0202505N00575014635MN0160935N5-00225-01175101665ADDAA101000095GA1085+014635999GD14991+0146359GE19AGL   +99999+99999GF199999999999014631999999MA1101665101555REMMET10201/05/25 05:51:02 METAR KEWR 051051Z 25011KT 10SM OVC048 M02/M12 A3002 RMK AO2 SLP166 T10221117 $ (JG)
0277725020147342025010511517+40683-074169FM-15+0009KEWR V0202605N00515014635MN0160935N5-00225-01175101695ADDAA101000095GA1085+014635999GD14991+0146359GE19AGL   +99999+99999GF199999999999014631999999KA1060M-00171KA2060N-00221MA1101695101585MD1390099+9999REMMET12001/05/25 06:51:02 METAR KEWR 051151Z 26010KT 10SM OVC048 M02/M12 A3003 RMK AO2 SLP169 T10221117 11017 21022 53009 $ (JG)
0211725020147342025010512004+40700-074167FM-12+000999999V0202601N005119999999N016000199-00221-01171101691ADDGA1999+012501999GE19AGL   +99999+99999GF108991999999012501999999KA1240M+00221KA2240N-00221MA1999999101601MD1310091+9999REMSYN08072502 32666 82610 11022 21117 30160 40169 53009 91151 333 10022 21022 555 90512=
0230725020147342025010512517+40683-074169FM-15+0009KEWR V0202505N00675014945MN0160935N5-00225-01225101715ADDAA101000095GA1075+014945999GD13991+0149459GE19AGL   +99999+99999GF199999999999014941999999MA1101735101625OC100935REMMET10501/05/25 07:51:02 METAR KEWR 051251Z 25013G18KT 10SM BKN049 M02/M12 A3004 RMK AO2 SLP171 T10221122 $ (JG)
0219725020147342025010513517+40683-074169FM-15+0009KEWR V0202605N00985014945MN0160935N5-00115-01225101745ADDAA101000095GA1075+014945999GD13991+0149459GE19AGL   +99999+99999GF199999999999014941999999MA1101765101655REMMET10201/05/25 08:51:02 METAR KEWR 051351Z 26019KT 10SM BKN049 M01/M12 A3005 RMK AO2 SLP174 T10111122 $ (DH)
0268725020147342025010514517+40683-074169FM-15+0009KEWR V0202605N00825014335MN0160935N5-00065-01175101785ADDAA101000095GA1075+014335999GD13991+0143359GE19AGL   +99999+99999GF199999999999014331999999MA1101795101695MD1390099+9999OC101245REMMET12901/05/25 09:51:02 METAR KEWR 051451Z 26016G24KT 10SM BKN047 M01/M12 A3006 RMK AO2 PK WND 26026/1408 SLP178 T10061117 53009 $ (DH)
0193725020147342025010515004+40700-074167FM-12+000999999V0202601N008219999999N016000199-00061-01171101781ADDGA1999+012501999GE19AGL   +99999+99999GF106991999999012501999999MA1999999101711MD1310091+9999OD149901241999REMSYN07472502 32666 62616 11006 21117 30171 40178 53009 91451 333 91024 555 90515=
0250725020147342025010515517+40683-074169FM-15+0009KEWR V0202605N00825014635MN0160935N5+00005-01175101745ADDAA101000095GA1075+014635999GD13991+0146359GE19AGL   +99999+99999GF199999999999014631999999MA1101765101655OD149901331260REMMET11901/05/25 10:51:02 METAR KEWR 051551Z 26016KT 10SM BKN048 00/M12 A3005 RMK AO2 PK WND 26026/1455 SLP174 T00001117 $ (DH)
0261725020147342025010516517+40683-074169FM-15+0009KEWR V0202805N00675014025MN0160935N5+00065-01225101645ADDAA101000095GA1075+014025999GD13991+0140259GE19AGL   +99999+99999GF199999999999014021999999MA1101665101555OC101245OD149901441270REMMET12201/05/25 11:51:02 METAR KEWR 051651Z 28013G24KT 10SM BKN046 01/M12 A3002 RMK AO2 PK WND 27028/1616 SLP164 T00061122 $ (DH)
0319725020147342025010517517+40683-074169FM-15+0009KEWR V0202705N00825014335MN0160935N5+00065-01175101615ADDAA101000095GA1075+014335999GD13991+0143359GE19AGL   +99999+99999GF199999999999014331999999KA1060M+00111KA2060N-00221MA1101635101525MD1790179+9999OC101135OD149901441280REMMET14001/05/25 12:51:02 METAR KEWR 051751Z 27016G22KT 10SM BKN047 01/M12 A3001 RMK AO2 PK WND 28028/1736 SLP161 T00061117 10011 21022 57017 $ (DH)
0231725020147342025010518004+40700-074167FM-12+000999999V0202701N008219999999N016000199+00061-01171101611ADDGA1999+012501999GE19AGL   +99999+99999GF106991999999012501999999KA1120M+00111KA2120N-00221MA1999999101541MD1710171+9999OD149901131999REMSYN08672502 32666 62716 10006 21117 30154 40161 57017 91751 333 10011 21022 91022 555 90518=
0229725020147342025010518517+40683-074169FM-15+0009KEWR V0202905N00775014635MN0160935N5+00175-01225101605ADDAA101000095GA1075+014635999GD13991+0146359GE19AGL   +99999+99999GF199999999999014631999999MA1101635101525OC101185REMMET10401/05/25 13:51:02 METAR KEWR 051851Z 29015G23KT 10SM BKN048 02/M12 A3001 RMK AO2 SLP160 T00171122 $ (DH)
0286725020147342025010519517+40683-074169FM-15+0009KEWR V0202805N007752200059N0160935N5+00175-01225101635ADDAA101000095GA1045+016765999GA2045+076205999GD12991+0167659GD22991+0762059GE19AGL   +99999+99999GF104995999999016761999999MA1101665101555OC101295REMMET11101/05/25 14:51:02 METAR KEWR 051951Z 28015G25KT 10SM SCT055 SCT250 02/M12 A3002 RMK AO2 SLP163 T00171122 $ (DH)EQDD01      0ADE726
0338725020147342025010520517+40683-074169FM-15+0009KEWR V0203005N007252200059N0160935N5+00115-01225101705ADDAA101000095GA1045+016765999GA2045+076205999GD12991+0167659GD22991+0762059GE19AGL   +99999+99999GF104995999999016761999999MA1101735101625MD1390099+9999OC101185OD149901331280REMMET13501/05/25 15:51:02 METAR KEWR 052051Z 30014G23KT 10SM SCT055 SCT250 01/M12 A3004 RMK AO2 PK WND 28026/2040 SLP170 T00111122 53009 $ (DH)EQDD01      0ADE726
0193725020147342025010521004+40700-074167FM-12+000999999V0203001N007212200019N016000199+00111-01221101701ADDGA1999+017501999GE19AGL   +99999+99999GF104991999999017501999999MA1999999101641MD1310091+9999OD149901181999REMSYN07472502 32766 43014 10011 21122 30164 40170 53009 92051 333 91023 555 90521=
0286725020147342025010521517+40683-074169FM-15+0009KEWR V0203205N005152200059N0160935N5+00005-01225101755ADDAA101000095GA1045+015245999GA2045+076205999GD12991+0152459GD22991+0762059GE19AGL   +99999+99999GF104995999999015241999999MA1101765101655OC101035REMMET11101/05/25 16:51:02 METAR KEWR 052151Z 32010G20KT 10SM SCT050 SCT250 00/M12 A3005 RMK AO2 SLP175 T00001122 $ (DH)EQDD01      0ADE726
0276725020147342025010522517+40683-074169FM-15+0009KEWR V0203105N003652200059N0160935N5-00065-01225101815ADDAA101000095GA1025+015245999GA2045+076205999GD11991+0152459GD22991+0762059GE19AGL   +99999+99999GF104995999999015241999999MA1101835101725REMMET10901/05/25 17:51:02 METAR KEWR 052251Z 31007KT 10SM FEW050 SCT250 M01/M12 A3007 RMK AO2 SLP181 T10061122 $ (DH)EQDD01      0ADE726
0334725020147342025010523517+40683-074169FM-15+0009KEWR V0202905N005752200059N0160935N5-00065-01175101795ADDAA101000095GA1025+015245999GA2045+076205999GD11991+0152459GD22991+0762059GE19AGL   +99999+99999GF104995999999015241999999KA1060M+00221KA2060N-00061MA1101795101695MD1090099+9999REMMET12701/05/25 18:51:02 METAR KEWR 052351Z 29011KT 10SM FEW050 SCT250 M01/M12 A3006 RMK AO2 SLP179 T10061117 10022 21006 50009 $ (JG)EQDD01      0ADE726
0211725020147342025010600004+40700-074167FM-12+000999999V0202901N005712200019N016000199-00061-01171101791ADDGA1999+017501999GE19AGL   +99999+99999GF104991999999017501999999KA1120M+00221KA2120N-00221MA1999999101711MD1990091+9999REMSYN08072502 32766 42911 11006 21117 30171 40179 50009 92351 333 10022 21022 555 90600=
0282725020147342025010600517+40683-074169FM-15+0009KEWR V0202805N005152200059N0160935N5-00065-01175101795ADDAA101000095GA1025+015245999GA2045+076205999GD11991+0152459GD22991+0762059GE19AGL   +99999+99999GF104995999999015241999999MA1101795101695OC100985REMMET10701/05/25 19:51:01 METAR KEWR 060051Z 28010G19KT 10SM FEW050 SCT250 M01/M12 A3006 RMK AO2 SLP179 T10061117 $EQDD01      0ADE726
0271725020147342025010601517+40683-074169FM-15+0009KEWR V0202705N004152200059N0160935N5-00115-01115101795ADDAA101000095GA1025+015245999GA2045+076205999GD11991+0152459GD22991+0762059GE19AGL   +99999+99999GF104995999999015241999999MA1101795101695REMMET10401/05/25 20:51:01 METAR KEWR 060151Z 27008KT 10SM FEW050 SCT250 M01/M11 A3006 RMK AO2 SLP179 T10111111 $EQDD01      0ADE726
0291725020147342025010602517+40683-074169FM-15+0009KEWR V0202405N003652200059N0160935N5-00115-01115101765ADDAA101000095GA1025+015245999GA2045+076205999GD11991+0152459GD22991+0762059GE19AGL   +99999+99999GF104995999999015241999999MA1101765101655MD1890039+9999REMMET11001/05/25 21:51:01 METAR KEWR 060251Z 24007KT 10SM FEW050 SCT250 M01/M11 A3005 RMK AO2 SLP176 T10111111 58003 $EQDD01      0ADE726
0169725020147342025010603004+40700-074167FM-12+000999999V0202401N003612200019N016000199-00111-01111101761ADDGA1999+017501999GE19AGL   +99999+99999GF104991999999017501999999MA1999999101671MD1810031+9999REMSYN06472502 32766 42407 11011 21111 30167 40176 58003 90251 555 90603=
0271725020147342025010603517+40683-074169FM-15+0009KEWR V0202705N003652200059N0160935N5-00175-01115101765ADDAA101000095GA1025+015245999GA2045+076205999GD11991+0152459GD22991+0762059GE19AGL   +99999+99999GF104995999999015241999999MA1101765101655REMMET10401/05/25 22:51:02 METAR KEWR 060351Z 27007KT 10SM FEW050 SCT250 M02/M11 A3005 RMK AO2 SLP176 T10171111 $EQDD01      0ADE726
0288725020147342025010604517+40683-074169FM-15+0009KEWR V0202305N00415076205MN0160935N5-00225-01065101795ADDAA101000095GA1045+011585999GA2075+076205999GD12991+0115859GD23991+0762059GE19AGL   +99999+99999GF199999999999011581999999KA1240M+00221KA2240N-00221MA1101795101695REMMET11401/05/25 23:51:02 METAR KEWR 060451Z 23008KT 10SM SCT038 BKN250 M02/M11 A3006 RMK AO2 SLP179 T10221106 400221022 $
0972725020147342025010604596+40683-074169SOD  +0009KEWR V020999999999999999999999999999+99999+99999999999ADDAA124000095AJ100009599999999AL12400095AN1024000095KA1240M+00225KA2240N-00215MG1101564101564OE11240147528012365OE22240102827011235OE33240061799999995REMSOD77724 HR PRECIPITATION (IN):0.00  SNOW DEPTH (IN):0     24 HR SNOWFALL (IN):0.0  24 HR MAX TEMP (F):36 24 HR MAX TEMP TIME (LST):1447 24 HR MIN TEMP (F):28 24 HR MIN TEMP TIME (LST):2359 AVERAGE STATION PRESSURE:29.990 MINIMUM SEA LEVEL PRESSURE:29.99 TIME OF OCCURRENCE:0028 PEAK WIND SPEED (MPH):33  PEAK WIND DIR (DEG):280 PEAK WIND TIME (LST):1236  FASTEST 2MIN SPEED (MPH):23 FASTEST 2MIN DIR (DEG):270 FASTEST 2MIN TIME (LST):1123 AVERAGE WIND SPEED (MPH):13.8 24 HR AVG TEMP (F):32 HEATING DEGREE DAYS:33  COOLING DEGREE DAYS:0   LATEST DAY MAX TEMP (0700-1900 LST):36  LATEST NIGHT MIN TEMP(1900-0800 LST):28 HOURLY INCREMENTAL PRECIPITATION VALUES (IN):.00 0.00 0.00 0.00 0.00 0.00 0.00 0.00 0.00 0.00 0.00 0.00 0.00 0.00 0.00 0.00 0.00 0.00 0.00 0.00 0.00 0.00 0.00 0.00EQDR01     N7GJS072R02     N7GKS075
0353725020147342025010605517+40683-074169FM-15+0009KEWR V0202505N00415067065MN0160935N5-00225-01065101745ADDAA101000095GA1025+010675999GA2075+067065999GA3075+076205999GD11991+0106759GD23991+0670659GD33991+0762059GE19AGL   +99999+99999GF199999999999010671999999KA1060M-00061KA2060N-00281MA1101765101655MD1890039+9999REMMET13401/06/25 00:51:02 METAR KEWR 060551Z 25008KT 10SM FEW035 BKN220 BKN250 M02/M11 A3005 RMK AO2 SLP174 T10221106 11006 21028 58003 $ (JG)
0211725020147342025010606004+40700-074167FM-12+000999999V0202501N004119999999N016000199-00221-01061101741ADDGA1999+012501999GE19AGL   +99999+99999GF106991999999012501999999KA1240M-00061KA2240N-00281MA1999999101671MD1810031+9999REMSYN08072502 32666 62508 11022 21106 30167 40174 58003 90551 333 11006 21028 555 90606=
0310725020147342025010606517+40683-074169FM-15+0009KEWR V0202405N00365067065MN0160935N5-00225-01065101745ADDAA101000095GA1025+010675999GA2045+057915999GA3075+067065999GD11991+0106759GD22991+0579159GD33991+0670659GD43991+0762019GE19AGL   +99999+99999GF199999999999010671999999MA1101765101655REMMET11601/06/25 01:51:02 METAR KEWR 060651Z 24007KT 10SM FEW035 SCT190 BKN220 M02/M11 A3005 RMK AO2 SLP174 T10221106 $ (JG)
0310725020147342025010607517+40683-074169FM-15+0009KEWR V0202605N00515067065MN0160935N5-00225-01065101735ADDAA101000095GA1025+010675999GA2045+057915999GA3075+067065999GD11991+0106759GD22991+0579159GD33991+0670659GD43991+0762019GE19AGL   +99999+99999GF199999999999010671999999MA1101735101625REMMET11601/06/25 02:51:02 METAR KEWR 060751Z 26010KT 10SM FEW035 SCT190 BKN220 M02/M11 A3004 RMK AO2 SLP173 T10221106 $ (JG)
0315725020147342025010608517+40683-074169FM-15+0009KEWR V0202605N00365051825MN0160935N5-00225-01005101615ADDAA101000095GA1025+010675999GA2075+051825999GA3085+076205999GD11991+0106759GD23991+0518259GD34991+0762059GE19AGL   +99999+99999GF199999999999010671999999MA1101635101525MD1890139+9999REMMET12201/06/25 03:51:02 METAR KEWR 060851Z 26007KT 10SM FEW035 BKN170 OVC250 M02/M10 A3001 RMK AO2 SLP161 T10221100 58013 $ (JG)
0169725020147342025010609004+40700-074167FM-12+000999999V0202601N003619999999N016000199-00221-01001101611ADDGA1999+012501999GE19AGL   +99999+99999GF108991999999012501999999MA1999999101541MD1810131+9999REMSYN06472502 32666 82607 11022 21100 30154 40161 58013 90851 555 90609=
0295725020147342025010609517+40683-074169FM-15+0009KEWR V0202605N00215045725MN0160935N5-00175-01005101535ADDAA101000095GA1025+010675999GA2075+045725999GA3075+076205999GD11991+0106759GD23991+0457259GD33991+0762059GE19AGL   +99999+99999GF199999999999010671999999MA1101525101425REMMET11601/06/25 04:51:02 METAR KEWR 060951Z 26004KT 10SM FEW035 BKN150 BKN250 M02/M10 A2998 RMK AO2 SLP153 T10171100 $ (JG)
0296725020147342025010610517+40683-074169FM-15+0009KEWR V0202505N00365042675MN0160935N5-00225-01005101555ADDAA101000095GA1025+013725999GA2075+042675999GA3085+060965999GD11991+0137259GD23991+0426759GD34991+0609659GE19AGL   +99999+99999GF199999999999013721999999MA1101565101455REMMET11701/06/25 05:51:02 METAR KEWR 061051Z 25007KT 10SM FEW045 BKN140 OVC200 M02/M10 A2999 RMK AO2 SLP155 T10221100 $ (DHA)
0354725020147342025010611517+40683-074169FM-15+0009KEWR V0202405N00315033535MN0160935N5-00225-00945101465ADDAA101000095GA1025+015245999GA2075+033535999GA3085+060965999GD11991+0152459GD23991+0335359GD34991+0609659GE19AGL   +99999+99999GF199999999999015241999999KA1060M-00171KA2060N-00281MA1101495101385MD1890159+9999REMMET13501/06/25 06:51:02 METAR KEWR 061151Z 24006KT 10SM FEW050 BKN110 OVC200 M02/M09 A2997 RMK AO2 SLP146 T10221094 11017 21028 58015 $ (DHA)
0211725020147342025010612004+40700-074167FM-12+000999999V0202401N003119999999N016000199-00221-00941101461ADDGA1999+017501999GE19AGL   +99999+99999GF108991999999017501999999KA1240M+00221KA2240N-00281MA1999999101401MD1810151+9999REMSYN08072502 32766 82406 11022 21094 30140 40146 58015 91151 333 10022 21028 555 90612=
0296725020147342025010612517+40683-074169FM-15+0009KEWR V0202305N00315033535MN0160935N5-00175-00945101445ADDAA101000095GA1025+012195999GA2075+033535999GA3085+060965999GD11991+0121959GD23991+0335359GD34991+0609659GE19AGL   +99999+99999GF199999999999012191999999MA1101465101355REMMET11701/06/25 07:51:02 METAR KEWR 061251Z 23006KT 10SM FEW040 BKN110 OVC200 M02/M09 A2996 RMK AO2 SLP144 T10171094 $ (DHA)
0294725020147342025010613517+40683-074169FM-15+0009KEWR V0209999C00005024385MN0160935N5-00115-00895101315ADDAA101000095GA1025+012195999GA2075+024385999GA3085+033535999GD11991+0121959GD23991+0243859GD34991+0335359GE19AGL   +99999+99999GF199999999999012191999999MA1101325101215REMMET11501/06/25 08:51:02 METAR KEWR 061351Z 00000KT 10SM FEW040 BKN080 OVC110 M01/M09 A2992 RMK AO2 SLP131 T10111089 (DHA)
0287725020147342025010614307+40683-074169FM-16+0009KEWR V0202705N00215013725MN0144845N5-00115-00895999999ADDAA101000021AU110030015AW1715GA1075+013725999GA2085+019815999GD13991+0137259GD24991+0198159GE19AGL   +99999+99999GF199999999999013721999999MA1101325101215MW1715REMMET11601/06/25 09:30:02 SPECI KEWR 061430Z 27004KT 9SM -SN BKN045 OVC065 M01/M09 A2992 RMK AO2 SNB30 P0000 T10111089 (DHA)
0398725020147342025010614517+40683-074169FM-15+0009KEWR V0209999V00215012195MN0048285N5-00115-00785101295ADDAA101000025AA203000021AU110030015AW1715GA1025+007625999GA2075+012195999GA3085+019815999GD11991+0076259GD23991+0121959GD34991+0198159GE19AGL   +99999+99999GF199999999999007621999999MA1101295101185MD1890189+9999MW1715REMMET15201/06/25 09:51:02 METAR KEWR 061451Z VRB04KT 3SM -SN FEW025 BKN040 OVC065 M01/M08 A2991 RMK AO2 SFC VIS 4 SNB30 SLP129 P0000 60000 T10111078 58018 (DHA)EQDQ01  00008PRCP03
0198725020147342025010615004+40700-074167FM-12+000999999V0209999N002119999999N004800199-00111-00781101291ADDAA103000021GA1999+008001999GE19AGL   +99999+99999GF108991999999008001999999MA1999999101201MD1810181+9999MW1711REMSYN07672502 11548 8//04 11011 21078 30120 40129 58018 69907 771// 91451 555 90615=
0291725020147342025010615017+40683-074169FM-16+0009KEWR V0202105N00215007625MN0032195N5-00175-00725999999ADDAA101000021AU110030015AW1715GA1075+007625999GA2085+012195999GD13991+0076259GD24991+0121959GE19AGL   +99999+99999GF199999999999007621999999MA1101295101185MW1715REMMET12001/06/25 10:01:02 SPECI KEWR 061501Z 21004KT 2SM -SN BKN025 OVC040 M02/M07 A2991 RMK AO2 SFC VIS 3 P0000 T10171072 (DHA)
0324725020147342025010615297+40683-074169FM-16+0009KEWR V0209999C00005004575MN0024145N5-00225-00565999999ADDAA101000231AU110030015AW1715ED104R99999GA1075+004575999GA2085+009755999GD13991+0045759GD24991+0097559GE19AGL   +99999+99999GF199999999999004571999999MA1101255101145MW1715REMMET14201/06/25 10:29:02 SPECI KEWR 061529Z 00000KT 1 1/2SM R04R/4500VP6000FT -SN BKN015 OVC032 M02/M06 A2990 RMK AO2 TWR VIS 2 P0001 T10221056 (DHA)
0352725020147342025010615487+40683-074169FM-16+0009KEWR V0209999C00005004275MN0020125N5-00205-00505999999ADDAA101000531AU110030015AW1715ED104R99999GA1025+002135999GA2075+004275999GA3085+009145999GD11991+0021359GD23991+0042759GD34991+0091459GE19AGL   +99999+99999GF199999999999002131999999MA1101195101085MW1715REMMET13901/06/25 10:48:02 SPECI KEWR 061548Z 00000KT 1 1/4SM R04R/4500VP6000FT -SN FEW007 BKN014 OVC030 M02/M05 A2988 RMK AO2 TWR VIS 2 P0002 (DHA)
0376725020147342025010615517+40683-074169FM-15+0009KEWR V0209999C00005004275MN0020125N5-00225-00505101155ADDAA101000595AU110030015AW1715ED104R99999GA1025+002135999GA2075+004275999GA3085+007625999GD11991+0021359GD23991+0042759GD34991+0076259GE19AGL   +99999+99999GF199999999999002131999999MA1101155101045MW1715REMMET16301/06/25 10:51:02 METAR KEWR 061551Z 00000KT 1 1/4SM R04R/4500VP6000FT -SN FEW007 BKN014 OVC025 M02/M05 A2987 RMK AO2 TWR VIS 2 PRESFR SLP115 P0002 T10221050 (DHA)
0319725020147342025010616097+40683-074169FM-16+0009KEWR V0203305N00265004275MN0032195N5-00225-00505999999ADDAA101000021AU110030015AW1715GA1045+002135999GA2075+004275999GA3085+009145999GD12991+0021359GD23991+0042759GD34991+0091459GE19AGL   +99999+99999GF199999999999002131999999MA1101125101015MW1715REMMET11701/06/25 11:09:02 SPECI KEWR 061609Z 33005KT 2SM -SN SCT007 BKN014 OVC030 M02/M05 A2986 RMK AO2 P0000 T10221050 (DHA)
0369725020147342025010616517+40683-074169FM-15+0009KEWR V0200305N00215005185MN0024145N5-00175-00505101045ADDAA101000395AU110030015AW1715ED104R99999GA1045+002135999GA2075+005185999GA3085+008535999GD12991+0021359GD23991+0051859GD34991+0085359GE19AGL   +99999+99999GF199999999999002131999999MA1101055100945MW1715REMMET15601/06/25 11:51:02 METAR KEWR 061651Z 03004KT 1 1/2SM R04R/4500VP6000FT -SN SCT007 BKN017 OVC028 M02/M05 A2984 RMK AO2 TWR VIS 2 SLP104 P0001 T10171050 (DHA)
0506725020147342025010617517+40683-074169FM-15+0009KEWR V0200105N00315005185MN0016095N5-00175-00395100895ADDAA101000895AA206001391AJ100039500025099AU110030015AU200001015AW1105AW2715ED104R99999GA1025+002135999GA2075+005185999GA3085+015245999GD11991+0021359GD23991+0051859GD34991+0152459GE19AGL   +99999+99999GF199999999999002131999999KA1060M-00111KA2060N-00221MA1100915100815MD1890409+9999MW1715REMMET18901/06/25 12:51:02 METAR KEWR 061751Z 01006KT 1SM R04R/4500VP6000FT -SN BR FEW007 BKN017 OVC050 M02/M04 A2980 RMK AO2 SFC VIS 1 1/4 SLP089 4/001 P0002 60005 T10171039 11011 21022 58040 (DHA)EQDQ01  00128PRCP06
0269725020147342025010618004+40700-074167FM-12+000999999V0200101N003119999999N001600199-00171-00391100891ADDAA106001031AJ100033100030099GA1999+002501999GE19AGL   +99999+99999GF108991999999002501999999KA1120M-00111KA2120N-00221MA1999999100831MD1810401+9999MW1711REMSYN10472502 11316 80106 11017 21039 30083 40089 58040 60011 771// 91751 333 11011 21022 4/003 96010 555 90618=
0255725020147342025010618496+40683-074169FM-16+0009KEWR V0200205N00415007325MN0064375N5-00105-00405999999ADDAU110030015AW1715GA1045+002445999GA2075+007325999GA3085+015245999GD12991+0024459GD23991+0073259GD34991+0152459MA1100755100645MW1715REMMET11201/06/25 13:49:02 SPECI KEWR 061849Z 02008KT 4SM -SN SCT008 BKN024 OVC050 M01/M04 A2975 RMK AO2 P0001 FIBI (DHA)
0333725020147342025010618517+40683-074169FM-15+0009KEWR V0200205N00515007325MN0064375N5-00115-00395100715ADDAA101000025AU110030015AW1715GA1045+002445999GA2075+007325999GA3085+015245999GD12991+0024459GD23991+0073259GD34991+0152459GE19AGL   +99999+99999GF199999999999002441999999MA1100715100605MW1715REMMET13101/06/25 13:51:02 METAR KEWR 061851Z 02010KT 4SM -SN SCT008 BKN024 OVC050 M01/M04 A2974 RMK AO2 PRESFR SLP071 P0001 T10111039 (DHA)
0297725020147342025010619177+40683-074169FM-16+0009KEWR V0200105N00415010365MN0144845N5-00115-00445999999ADDAA101000021GA1045+003355999GA2075+010365999GA3085+025915999GD12991+0033559GD23991+0103659GD34991+0259159GE19AGL   +99999+99999GF199999999999003351999999MA1100715100605REMMET11801/06/25 14:17:02 SPECI KEWR 061917Z 01008KT 9SM SCT011 BKN034 OVC085 M01/M04 A2974 RMK AO2 SNE16 P0000 T10111044 (BS)
0305725020147342025010619517+40683-074169FM-15+0009KEWR V0200205N00575010675MN0160935N5-00065-00445100625ADDAA101000025GA1045+004275999GA2075+010675999GA3075+027435999GD12991+0042759GD23991+0106759GD33991+0274359GE19AGL   +99999+99999GF199999999999004271999999MA1100645100545REMMET12601/06/25 14:51:02 METAR KEWR 061951Z 02011KT 10SM SCT014 BKN035 BKN090 M01/M04 A2972 RMK AO2 SNE16 SLP062 P0000 T10061044 (BS)
0330725020147342025010620517+40683-074169FM-15+0009KEWR V0203605N00465005795MN0160935N5-00065-00445100575ADDAA101000095AA203000391GA1075+005795999GA2075+028965999GA3075+039625999GD13991+0057959GD23991+0289659GD33991+0396259GE19AGL   +99999+99999GF199999999999005791999999MA1100585100475MD1690319+9999REMMET12601/06/25 15:51:02 METAR KEWR 062051Z 36009KT 10SM BKN019 BKN095 BKN130 M01/M04 A2970 RMK AO2 SLP057 60001 T10061044 56031 (BS)
0186725020147342025010621004+40700-074167FM-12+000999999V0203601N004619999999N016000199-00061-00441100571ADDAA103000331GA1999+004501999GE19AGL   +99999+99999GF106991999999004501999999MA1999999100491MD1610311+9999REMSYN07072502 12466 63609 11006 21044 30049 40057 56031 69937 92051 555 90621=
0290725020147342025010621297+40683-074169FM-16+0009KEWR V0200105N00515018295MN0160935N5-00065-00505999999ADDGA1045+005795999GA2075+018295999GA3075+025915999GD12991+0057959GD23991+0182959GD33991+0259159GD43991+0396219GE19AGL   +99999+99999GF199999999999005791999999MA1100545100435REMMET10701/06/25 16:29:02 SPECI KEWR 062129Z 01010KT 10SM SCT019 BKN060 BKN085 M01/M05 A2969 RMK AO2 T10061050 (BS)
0308725020147342025010621517+40683-074169FM-15+0009KEWR V0200105N00465018295MN0160935N5-00065-00565100535ADDAA101000095GA1025+005795999GA2075+018295999GA3075+025915999GD11991+0057959GD23991+0182959GD33991+0259159GD44991+0396219GE19AGL   +99999+99999GF199999999999005791999999MA1100545100435REMMET11401/06/25 16:51:02 METAR KEWR 062151Z 01009KT 10SM FEW019 BKN060 BKN085 M01/M06 A2969 RMK AO2 SLP053 T10061056 (BS)
0329725020147342025010622367+40683-074169FM-16+0009KEWR V0203605N00625021345MN0160935N5-00065-00615999999ADDAA101000021AW1711GA1025+006105999GA2075+021345999GA3075+027435999GD11991+0061059GD23991+0213459GD33991+0274359GD44991+0396219GE19AGL   +99999+99999GF199999999999006101999999MA1100515100405MW1715REMMET12301/06/25 17:36:02 SPECI KEWR 062236Z 36012KT 10SM -SN FEW020 BKN070 BKN090 M01/M06 A2968 RMK AO2 SNB35 P0000 T10061061 (BS)
0375725020147342025010622517+40683-074169FM-15+0009KEWR V0200105N00625024385MN0160935N5-00065-00615100495ADDAA101000025AU110030015AW1715GA1025+006105999GA2075+024385999GA3085+030485999GD11991+0061059GD23991+0243859GD34991+0304859GE19AGL   +99999+99999GF199999999999006101999999MA1100515100405MW1715OC101345OD149901331330REMMET15101/06/25 17:51:02 METAR KEWR 062251Z 01012G26KT 10SM -SN FEW020 BKN080 OVC100 M01/M06 A2968 RMK AO2 PK WND 33026/2246 SNB35 SLP049 P0000 T10061061 (BS)
0433725020147342025010623517+40683-074169FM-15+0009KEWR V0203505N00935019815MN0160935N5-00065-00565100395ADDAA101000025AA206000391AJ100039500025099GA1025+006105999GA2075+019815999GA3075+027435999GD11991+0061059GD23991+0198159GD33991+0274359GE19AGL   +99999+99999GF199999999999006101999999KA1060M-00061KA2060N-00171MA1100415100305MD1890189+9999OC101295REMMET15901/06/25 18:51:02 METAR KEWR 062351Z 35018G25KT 10SM FEW020 BKN065 BKN090 M01/M06 A2965 RMK AO2 SNE51 SLP039 4/001 P0000 60001 T10061056 11006 21017 58018 (BS)EQDQ01  00028PRCP06
0271725020147342025010700004+40700-074167FM-12+000999999V0203501N009319999999N016000199-00061-00561100391ADDAA106000331AJ100033100030099GA1999+008001999GE19AGL   +99999+99999GF106991999999008001999999KA1120M-00061KA2120N-00281MA1999999100321MD1810181+9999OD149901291999REMSYN09872502 12566 63518 11006 21056 30032 40039 58018 69931 92351 333 11006 21028 4/003 91025 555 90700=
0314725020147342025010700517+40683-074169FM-15+0009KEWR V0203505N00675033535MN0160935N5-00115-00615100395ADDAA101000095GA1025+006715999GA2045+025915999GA3075+033535999GD11991+0067159GD22991+0259159GD33991+0335359GD43991+0426719GE19AGL   +99999+99999GF199999999999006711999999MA1100415100305OC101035REMMET11201/06/25 19:51:01 METAR KEWR 070051Z 35013G20KT 10SM FEW022 SCT085 BKN110 M01/M06 A2965 RMK AO2 SLP039 T10111061
0335725020147342025010701167+40683-074169FM-16+0009KEWR V0203505N00675033535MN0160935N5-00175-00675999999ADDAA101000021AW1711GA1025+006715999GA2045+027435999GA3075+033535999GD11991+0067159GD22991+0274359GD33991+0335359GD43991+0426719GE19AGL   +99999+99999GF199999999999006711999999MA1100415100305MW1715OC101185REMMET12101/06/25 20:16:01 SPECI KEWR 070116Z 35013G23KT 10SM -SN FEW022 SCT090 BKN110 M02/M07 A2965 RMK AO2 SNB15 P0000 T10171067
0374725020147342025010701517+40683-074169FM-15+0009KEWR V0203505N00985028965MN0160935N5-00225-00835100365ADDAA101000025AW1711GA1025+006715999GA2045+024385999GA3075+028965999GD11991+0067159GD22991+0243859GD33991+0289659GD44991+0426719GE19AGL   +99999+99999GF199999999999006711999999MA1100375100275MW1715OC101395OD149901391350REMMET14601/06/25 20:51:01 METAR KEWR 070151Z 35019G27KT 10SM -SN FEW022 SCT080 BKN095 M02/M08 A2964 RMK AO2 PK WND 35027/0146 SNB15 SLP036 P0000 T10221083
0336725020147342025010702107+40683-074169FM-16+0009KEWR V0203505N00885027435MN0160935N5-00285-00835999999ADDAA101000021GA1025+006715999GA2075+027435999GA3085+042675999GD11991+0067159GD23991+0274359GD34991+0426759GE19AGL   +99999+99999GF199999999999006711999999MA1100375100275OC101295OD149901441340REMMET13501/06/25 21:10:01 SPECI KEWR 070210Z 35017G25KT 10SM FEW022 BKN090 OVC140 M03/M08 A2964 RMK AO2 PK WND 34028/0200 SNE10 P0000 T10281083
0388725020147342025010702517+40683-074169FM-15+0009KEWR V0203405N00675030485MN0160935N5-00285-00895100465ADDAA101000025AA203000021GA1025+006715999GA2075+030485999GA3085+042675999GD11991+0067159GD23991+0304859GD34991+0426759GE19AGL   +99999+99999GF199999999999006711999999MA1100475100375MD1390069+9999OD149901441340REMMET15101/06/25 21:51:01 METAR KEWR 070251Z 34013KT 10SM FEW022 BKN100 OVC140 M03/M09 A2967 RMK AO2 PK WND 34028/0200 SNE10 SLP046 P0000 60000 T10281089 53006EQDQ01  00008PRCP03
0186725020147342025010703004+40700-074167FM-12+000999999V0203401N006719999999N016000199-00281-00891100461ADDAA103000021GA1999+008001999GE19AGL   +99999+99999GF108991999999008001999999MA1999999100391MD1310061+9999REMSYN07072502 12566 83413 11028 21089 30039 40046 53006 69907 90251 555 90703=
0320725020147342025010703517+40683-074169FM-15+0009KEWR V0203405N00675024385MN0160935N5-00335-01175100555ADDAA101000095GA1025+007625999GA2075+024385999GA3085+042675999GD11991+0076259GD23991+0243859GD34991+0426759GE19AGL   +99999+99999GF199999999999007621999999MA1100585100475OD149901541320REMMET12701/06/25 22:51:02 METAR KEWR 070351Z 34013KT 10SM FEW025 BKN080 OVC140 M03/M12 A2970 RMK AO2 PK WND 32030/0326 SLP055 T10331117
0382725020147342025010704517+40683-074169FM-15+0009KEWR V0203105N00825030485MN0160935N5-00505-01285100665ADDAA101000095GA1025+009145999GA2045+024385999GA3075+030485999GD11991+0091459GD22991+0243859GD33991+0304859GD44991+0426719GE19AGL   +99999+99999GF199999999999009141999999KA1240M-00061KA2240N-00501MA1100685100575OC101245OD149901441300REMMET14001/06/25 23:51:02 METAR KEWR 070451Z 31016G24KT 10SM FEW030 SCT080 BKN100 M05/M13 A2973 RMK AO2 PK WND 30028/0414 SLP066 T10501128 410061050
0996725020147342025010704596+40683-074169SOD  +0009KEWR V020999999999999999999999999999+99999+99999999999ADDAA124001595AJ100009599999999AL12402095AN1024002095AT1AU18SN  5AT2AU13BR  5KA1240M-00055KA2240N-00555MG1101004100374OE11240152032022265OE22240116235020545OE33240045699999995REMSOD77724 HR PRECIPITATION (IN):0.06  SNOW DEPTH (IN):0     24 HR SNOWFALL (IN):0.8  24 HR MAX TEMP (F):31 24 HR MAX TEMP TIME (LST):1921 24 HR MIN TEMP (F):22 24 HR MIN TEMP TIME (LST):2359 AVERAGE STATION PRESSURE:29.825 MINIMUM SEA LEVEL PRESSURE:29.64 TIME OF OCCURRENCE:2123 PEAK WIND SPEED (MPH):34  PEAK WIND DIR (DEG):320 PEAK WIND TIME (LST):2226  FASTEST 2MIN SPEED (MPH):26 FASTEST 2MIN DIR (DEG):350 FASTEST 2MIN TIME (LST):2054 AVERAGE WIND SPEED (MPH):10.2 24 HR AVG TEMP (F):27 HEATING DEGREE DAYS:38  COOLING DEGREE DAYS:0   LATEST DAY MAX TEMP (0700-1900 LST):31  LATEST NIGHT MIN TEMP(1900-0800 LST):27 HOURLY INCREMENTAL PRECIPITATION VALUES (IN):.00 0.00 0.00 0.00 0.00 0.00 0.00 0.00 0.00 T    0.02 0.01 0.03 T    T    0.00 0.00 T    T    0.00 T    T    0.00 0.00EQDR01     N7GJS072R02     N7GKS075
0421725020147342025010705517+40683-074169FM-15+0009KEWR V0203205N00725076205MN0160935N5-00675-01445100765ADDAA101000095AA206000021AJ100039500025099GA1025+028965999GA2045+042675999GA3075+076205999GD11991+0289659GD22991+0426759GD33991+0762059GE19AGL   +99999+99999GF199999999999028961999999KA1060M-00061MA1100785100675MD1390309+9999OC101185OD149901591300REMMET16501/07/25 00:51:02 METAR KEWR 070551Z 32014G23KT 10SM FEW095 SCT140 BKN250 M07/M14 A2976 RMK AO2 PK WND 30031/0505 SLP076 4/001 60000 T10671144 11006 21067 53030 (JG)
0255725020147342025010706004+40700-074167FM-12+000999999V0203201N007219999999N016000199-00671-01441100761ADDAA106000021AJ100033100030099GE19AGL   +99999+99999GF106991999999999999999999KA1240M-00061KA2240N-00671MA1999999100691MD1310301+9999OD149901181999REMSYN09872502 12966 63214 11067 21144 30069 40076 53030 69901 90551 333 11006 21067 4/003 91023 555 90706=
0336725020147342025010706517+40683-074169FM-15+0009KEWR V0203205N00775076205MN0160935N5-00675-01445100765ADDAA101000095GA1025+028965999GA2045+042675999GA3075+076205999GD11991+0289659GD22991+0426759GD33991+0762059GE19AGL   +99999+99999GF199999999999028961999999MA1100785100675OC101295OD149901591340REMMET13501/07/25 01:51:02 METAR KEWR 070651Z 32015G25KT 10SM FEW095 SCT140 BKN250 M07/M14 A2976 RMK AO2 PK WND 34031/0601 SLP076 T10671144 (JG)
0317725020147342025010707517+40683-074169FM-15+0009KEWR V0203105N007252200059N0160935N5-00675-01395100775ADDAA101000095GA1025+045725999GA2045+076205999GD11991+0457259GD22991+0762059GE19AGL   +99999+99999GF104995999999045721999999MA1100785100675OC101295OD149901491310REMMET12801/07/25 02:51:02 METAR KEWR 070751Z 31014G25KT 10SM FEW150 SCT250 M07/M14 A2976 RMK AO2 PK WND 31029/0739 SLP077 T10671139 (JG)EQDD01      0ADE726
0356725020147342025010708517+40683-074169FM-15+0009KEWR V0203205N00775076205MN0160935N5-00615-01395100805ADDAA101000095GA1045+010675999GA2045+045725999GA3075+076205999GD12991+0106759GD22991+0457259GD33991+0762059GE19AGL   +99999+99999GF199999999999010671999999MA1100815100715MD1390049+9999OC101395OD149901491320REMMET14101/07/25 03:51:02 METAR KEWR 070851Z 32015G27KT 10SM SCT035 SCT150 BKN250 M06/M14 A2977 RMK AO2 PK WND 32029/0805 SLP080 T10611139 53004 (JG)
0193725020147342025010709004+40700-074167FM-12+000999999V0203201N007719999999N016000199-00611-01391100801ADDGA1999+012501999GE19AGL   +99999+99999GF106991999999012501999999MA1999999100721MD1310041+9999OD149901391999REMSYN07472502 32666 63215 11061 21139 30072 40080 53004 90851 333 91027 555 90709=
0336725020147342025010709517+40683-074169FM-15+0009KEWR V0203305N00775076205MN0160935N5-00565-01395100845ADDAA101000095GA1045+010675999GA2045+045725999GA3075+076205999GD12991+0106759GD22991+0457259GD33991+0762059GE19AGL   +99999+99999GF199999999999010671999999MA1100855100745OC101905OD149901901290REMMET13501/07/25 04:51:02 METAR KEWR 070951Z 33015G37KT 10SM SCT035 SCT150 BKN250 M06/M14 A2978 RMK AO2 PK WND 29037/0947 SLP084 T10561139 (JG)
0355725020147342025010710517+40683-074169FM-15+0009KEWR V0203105N007752200059N0160935N5-00505-01335100865ADDAA101000095GA1025+010675999GA2025+045725999GA3045+076205999GD11991+0106759GD21991+0457259GD32991+0762059GE19AGL   +99999+99999GF104995999999010671999999MA1100885100775OC101805OD149901851310REMMET13501/07/25 05:51:02 METAR KEWR 071051Z 31015G35KT 10SM FEW035 FEW150 SCT250 M05/M13 A2979 RMK AO2 PK WND 31036/1033 SLP086 T10501133 (JG)EQDD01      0ADE726
0402725020147342025010711517+40683-074169FM-15+0009KEWR V0203105N009852200059N0160935N5-00505-01395100945ADDAA101000095AA224001591AJ100039500025099GA1025+010675999GA2025+076205999GD11991+0106759GD21991+0762059GE19AGL   +99999+99999GF102995999999010671999999KA1060M-00501MA1100955100845MD1390149+9999OC101655OD149901641310REMMET15801/07/25 06:51:02 METAR KEWR 071151Z 31019G32KT 10SM FEW035 FEW250 M05/M14 A2981 RMK AO2 PK WND 31032/1145 SLP094 4/001 70006 T10501139 11050 21072 53014 (JG)EQDD01      0ADE726
