0225725165947372022010100134+43529-072950FM-16+024099999V0201401N003110112819N016093199+00301+00301999999ADDAA101000021GD11991+0045719GD23991+0112819GD34991+0167619GE19AGL   +99999+99999GF199999999999004571999999MA1101251999999REMMET094SPECI KRUT 010013Z AUTO 14006KT 10SM FEW015 BKN037 OVC055 03/03 A2990 RMK AO2 RAE2358 P0000 $=
0228725165947372022010100564+43529-072950FM-15+024099999V0201401N001510039619N004828199+00281+00281101291ADDAA101000021AW1101GD13991+0039619GD24991+0182919GE19AGL   +99999+99999GF199999999999003961999999MA1101291999999REMMET106METAR KRUT 010056Z AUTO 14003KT 3SM BR BKN013 OVC060 03/03 A2991 RMK AO2 RAE2358 SLP129 P0000 T00280028 $=
0193725165947372022010100594+43529-072950FM-16+024099999V0201401N002610039619N001609199+00201+00201999999ADDAW1101GD13991+0039619GD24991+0182919GE19AGL   +99999+99999GF199999999999003961999999MA1101291999999REMMET082SPECI KRUT 010059Z AUTO 14005KT 1SM BR BKN013 OVC060 02/02 A2991 RMK AO2 FZRANO $=
0174725165947372022010101084+43529-072950FM-16+024099999V0201301N002610039619N003219199+00301+00301999999ADDAW1101GD14991+0039619GE19AGL   +99999+99999GF199999999999003961999999MA1101291999999REMMET078SPECI KRUT 010108Z AUTO 13005KT 2SM BR OVC013 03/03 A2991 RMK AO2 VIS 1/2V5 $=
0185725165947372022010101204+43529-072950FM-16+024099999V0201401N003110039619N016093199+00201+00201999999ADDGD13991+0039619GD24991+0143319GE19AGL   +99999+99999GF199999999999003961999999MA1101251999999REMMET080SPECI KRUT 010120Z AUTO 14006KT 10SM BKN013 OVC047 02/02 A2990 RMK AO2 FZRANO $=
0207725165947372022010101434+43529-072950FM-16+024099999V0201601N002610131119N016093199+00201+00201999999ADDGD11991+0039619GD23991+0131119GD34991+0152419GE19AGL   +99999+99999GF199999999999003961999999MA1101291999999REMMET087SPECI KRUT 010143Z AUTO 16005KT 10SM FEW013 BKN043 OVC050 02/02 A2991 RMK AO2 FZRANO $=
0201725165947372022010101564+43529-072950FM-15+024099999V0200301N002110137219N014484199+00171+00171101321ADDGD11991+0039619GD24991+0137219GE19AGL   +99999+99999GF199999999999003961999999MA1101291999999REMMET096METAR KRUT 010156Z AUTO 03004KT 9SM FEW013 OVC045 02/02 A2991 RMK AO2 SLP132 T00170017 FZRANO $=
0273725165947372022010102564+43529-072950FM-15+024099999V0209999C000010149419N014484199+00171+00171101321ADDAA103000021GD11991+0039619GD24991+0149419GE19AGL   +99999+99999GF199999999999003961999999MA1101321999999MD1310031+9999REMMET108METAR KRUT 010256Z AUTO 00000KT 9SM FEW013 OVC049 02/02 A2992 RMK AO2 SLP132 60000 T00170017 53003 FZRANO $=EQDQ01  00002PRCP03Q02  00008PRCP03
0185725165947372022010103324+43529-072950FM-16+024099999V0201401N003110137219N016093199+00201+00201999999ADDGD12991+0021319GD24991+0137219GE19AGL   +99999+99999GF199999999999002131999999MA1101321999999REMMET080SPECI KRUT 010332Z AUTO 14006KT 10SM SCT007 OVC045 02/02 A2992 RMK AO2 FZRANO $=
0201725165947372022010103564+43529-072950FM-15+024099999V0201301N003610143319N014484199+00221+00221101301ADDGD11991+0021319GD24991+0143319GE19AGL   +99999+99999GF199999999999002131999999MA1101291999999REMMET096METAR KRUT 010356Z AUTO 13007KT 9SM FEW007 OVC047 02/02 A2991 RMK AO2 SLP130 T00220022 FZRANO $=
0173725165947372022010104364+43529-072950FM-16+024099999V0201501N002110131119N000805199+00201+00201999999ADDAW1301GD13991+0131119GE19AGL   +99999+99999GF199999999999013111999999MA1101251999999REMMET077SPECI KRUT 010436Z AUTO 15004KT 1/2SM FG BKN043 02/02 A2990 RMK AO2 FZRANO $=
0195725165947372022010104434+43529-072950FM-16+024099999V0201401N003110131119N000402199+00201+00201999999ADDAW1301GD11991+0003019GD24991+0131119GE19AGL   +99999+99999GF199999999999000301999999MA1101251999999REMMET084SPECI KRUT 010443Z AUTO 14006KT 1/4SM FG FEW001 OVC043 02/02 A2990 RMK AO2 FZRANO $=
0231725165947372022010104484+43529-072950FM-16+024099999V0201301N003110131119N001207199+00201+00201999999ADDAW1101GD12991+0003019GD24991+0131119GE19AGL   +99999+99999GF199999999999000301999999KA1240M+00561KA2240N+00111MA1101251999999REMMET094SPECI KRUT 010448Z AUTO 13006KT 3/4SM BR SCT001 OVC043 02/02 A2990 RMK AO2 400560011 FZRANO $=
0229725165947372022010104504+43529-072950FM-16+024099999V0201301N002610131119N004828199+00201+00201999999ADDAW1101GD12991+0003019GD24991+0131119GE19AGL   +99999+99999GF199999999999000301999999KA1240M+00561KA2240N+00111MA1101251999999REMMET092SPECI KRUT 010450Z AUTO 13005KT 3SM BR SCT001 OVC043 02/02 A2990 RMK AO2 400560011 FZRANO $=
0282725165947372022010104567+43533-072950FM-15+0240KRUT V0201305N00315000305MN0160935N5+00225+00225101265ADDGA1075+000305999GA2085+012505999GD13991+0003059GD24991+0125059GE19AGL   +99999+99999GF199999999999000301999999KA1240M+00561KA2240N+00111MA1101255098405REMMET11912/31/21 23:56:02 METAR KRUT 010456Z 13006KT 10SM BKN001 OVC041 02/02 A2990 RMK AO2 SLP126 T00220022 400560011 FZRANO $
0549725165947372022010104596+43533-072950SOD  +0240KRUT V020999999999999999999999999999+99999+99999999999ADDAA124000595AT1AU16RA  5AT2AU01FG  5AT3AU13BR  5AX1016246AX2026246KA1240M+00565KA2240N+00115MG1098469999994OE11249999999999997OE22240044714099995OE33240015699999995REMSOD33924 HR PRECIPITATION (IN): 0.02 WEATHER(CODE):12  24 HR MAX TEMP (F): 4224 HR MIN TEMP (F): 34AVERAGE STATION PRESSURE(D):29.075  FASTEST 2MIN SPEED (MPH): 10FASTEST 2MIN DIR (DEG):140 FASTEST 2MIN TIME (LST):     AVERAGE WIND SPEED (MPH): 3.5 24 HR AVG TEMP (F): 38SKY COVER SR-SS (TENTHS): 1HEATING DEGREE DAYS: 27 COOLING DEGREE DAYS:  0EQDR01    127AXW090R02    127AXW090
0228725165947372022010105337+43533-072950FM-15+0240KRUT V0201405N00365010675MN0144845N5+00205+00205999999ADDGA1025+000305999GA2075+010675999GD11991+0003059GD23991+0106759GE19AGL   +99999+99999GF199999999999000301999999MA1101255098405REMMET09101/01/22 00:33:02 METAR KRUT 010533Z 14007KT 9SM FEW001 BKN035 02/02 A2990 RMK AO2 FZRANO $
0224725165947372022010105437+43533-072950FM-15+0240KRUT V0201605N00265010675MN0028165V5+00205+00205999999ADDAU100001015AW1105GA1075+010675999GD13991+0106759GE19AGL   +99999+99999GF199999999999010671999999MA1101255098405REMMET10101/01/22 00:43:02 METAR KRUT 010543Z 16005KT 1 3/4SM BR BKN035 02/02 A2990 RMK AO2 VIS 1/2V5 FZRANO $
0212725165947372022010105487+43533-072950FM-15+0240KRUT V0201705N00265010675MN0012075N5+00205+00205999999ADDAU100001015AW1105GA1085+010675999GD14991+0106759GE19AGL   +99999+99999GF199999999999010671999999MA1101255098405REMMET08901/01/22 00:48:02 METAR KRUT 010548Z 17005KT 3/4SM BR OVC035 02/02 A2990 RMK AO2 FZRANO $
0224725165947372022010105547+43533-072950FM-15+0240KRUT V0201405N00415010675MN0020125V5+00205+00205999999ADDAU100001015AW1105GA1085+010675999GD14991+0106759GE19AGL   +99999+99999GF199999999999010671999999MA1101225098375REMMET10101/01/22 00:54:02 METAR KRUT 010554Z 14008KT 1 1/4SM BR OVC035 02/02 A2989 RMK AO2 VIS 1/2V5 FZRANO $
0347725165947372022010105567+43533-072950FM-15+0240KRUT V0201405N00465010675MN0032195V5+00225+00225101225ADDAA106000021AU100001015AW1105GA1085+010675999GD14991+0106759GE19AGL   +99999+99999GF199999999999010671999999KA1060M+00391KA2060N+00111MA1101225098375MD1890089+9999REMMET13801/01/22 00:56:02 METAR KRUT 010556Z 14009KT 2SM BR OVC035 02/02 A2989 RMK AO2 VIS 1/2V5 SLP122 60000 T00220022 10039 20011 58008 FZRANO $EQDQ01  00002PRCP06Q02  00008PRCP06
0184725165947372022010106087+43533-072950FM-15+0240KRUT V0201505N00415010065MN0160935N5+00305+00305999999ADDGA1085+010065999GD14991+0100659GE19AGL   +99999+99999GF199999999999010061999999MA1101225098375REMMET07801/01/22 01:08:02 METAR KRUT 010608Z 15008KT 10SM OVC033 03/03 A2989 RMK AO2 $
0208725165947372022010106567+43533-072950FM-15+0240KRUT V0201405N00265010675MN0160935N5+00225+00225101205ADDGA1085+010675999GD14991+0106759GE19AGL   +99999+99999GF199999999999010671999999MA1101225098375REMMET10201/01/22 01:56:02 METAR KRUT 010656Z 14005KT 10SM OVC035 02/02 A2989 RMK AO2 SLP120 T00220022 FZRANO $
0201725165947372022010107567+43533-072950FM-15+0240KRUT V0201405N00315010065MN0160935N5+00285+00285101205ADDGA1085+010065999GD14991+0100659GE19AGL   +99999+99999GF199999999999010061999999MA1101195098345REMMET09501/01/22 02:56:02 METAR KRUT 010756Z 14006KT 10SM OVC033 03/03 A2988 RMK AO2 SLP120 T00280028 $
0221725165947372022010108567+43533-072950FM-15+0240KRUT V0209999V00265010065MN0160935N5+00445+00285101145ADDGA1085+010065999GD14991+0100659GE19AGL   +99999+99999GF199999999999010061999999MA1101155098305MD1890089+9999REMMET10101/01/22 03:56:02 METAR KRUT 010856Z VRB05KT 10SM OVC033 04/03 A2987 RMK AO2 SLP114 T00440028 58008 $
0201725165947372022010109567+43533-072950FM-15+0240KRUT V0209999V00155009455MN0160935N5+00445+00335101035ADDGA1085+009455999GD14991+0094559GE19AGL   +99999+99999GF199999999999009451999999MA1101025098175REMMET09501/01/22 04:56:02 METAR KRUT 010956Z VRB03KT 10SM OVC031 04/03 A2983 RMK AO2 SLP103 T00440033 $
0222725165947372022010110337+43533-072950FM-15+0240KRUT V0201605N00265008845MN0160935N5+00505+00405999999ADDGA1045+006405999GA2085+008845999GD12991+0064059GD24991+0088459GE19AGL   +99999+99999GF199999999999006401999999MA1100985098145REMMET08501/01/22 05:33:02 METAR KRUT 011033Z 16005KT 10SM SCT021 OVC029 05/04 A2982 RMK AO2 $
0201725165947372022010110567+43533-072950FM-15+0240KRUT V0201705N00265006405MN0160935N5+00615+00445100995ADDGA1085+006405999GD14991+0064059GE19AGL   +99999+99999GF199999999999006401999999MA1100985098145REMMET09501/01/22 05:56:02 METAR KRUT 011056Z 17005KT 10SM OVC021 06/04 A2982 RMK AO2 SLP099 T00610044 $
0416725165947372022010111567+43533-072950FM-15+0240KRUT V0201205N00365005795MN0160935N5+00505+00505101005ADDAA101000595AA206000591AA324001091AU110020015AW1615GA1075+005795999GA2085+016765999GD13991+0057959GD24991+0167659GE19AGL   +99999+99999GF199999999999005791999999KA1060M+00611KA2060N+00221MA1100985098145MD1690159+9999MW1615REMMET14801/01/22 06:56:02 METAR KRUT 011156Z 12007KT 10SM -RA BKN019 OVC055 05/05 A2982 RMK AO2 RAB16 SLP100 P0002 60002 70004 T00500050 10061 20022 56015 $EQDQ01  00058PRCP06Q02  00108PRCP24
0304725165947372022010112347+43533-072950FM-15+0240KRUT V0201405N00365014335MN0160935N5+00605+00605999999ADDAA101000395AU110020015AW1615GA1025+005795999GA2075+014335999GA3085+021345999GD11991+0057959GD23991+0143359GD34991+0213459GE19AGL   +99999+99999GF199999999999005791999999MA1100915098075MW1615REMMET10201/01/22 07:34:02 METAR KRUT 011234Z 14007KT 10SM -RA FEW019 BKN047 OVC070 06/06 A2980 RMK AO2 P0001 $
0321725165947372022010112567+43533-072950FM-15+0240KRUT V0201205N00515014025MN0160935N5+00615+00565100895ADDAA101000395AU110020015AW1615GA1045+005795999GA2075+014025999GA3085+016765999GD12991+0057959GD23991+0140259GD34991+0167659GE19AGL   +99999+99999GF199999999999005791999999MA1100885098045MW1615REMMET11901/01/22 07:56:02 METAR KRUT 011256Z 12010KT 10SM -RA SCT019 BKN046 OVC055 06/06 A2979 RMK AO2 SLP089 P0001 T00610056 $
0262725165947372022010113567+43533-072950FM-15+0240KRUT V0201705N00365011285MN0160935N5+00675+00565100925ADDAA101000021GA1045+009145999GA2085+011285999GD12991+0091459GD24991+0112859GE19AGL   +99999+99999GF199999999999009141999999MA1100915098075REMMET11401/01/22 08:56:02 METAR KRUT 011356Z 17007KT 10SM SCT030 OVC037 07/06 A2980 RMK AO2 RAE44 SLP092 P0000 T00670056 $
0233725165947372022010114117+43533-072950FM-15+0240KRUT V0201405N00575008535MN0160935N5+00705+00605999999ADDGA1075+008535999GA2085+010675999GD13991+0085359GD24991+0106759GE19AGL   +99999+99999GF199999999999008531999999MA1100885098045OC100775REMMET08801/01/22 09:11:02 METAR KRUT 011411Z 14011G15KT 10SM BKN028 OVC035 07/06 A2979 RMK AO2 $
0257725165947372022010114567+43533-072950FM-15+0240KRUT V0201405N00315007925MN0160935N5+00725+00615100895ADDAA103000391GA1085+007925999GD14991+0079259GE19AGL   +99999+99999GF199999999999007921999999MA1100885098045MD1690109+9999REMMET10701/01/22 09:56:02 METAR KRUT 011456Z 14006KT 10SM OVC026 07/06 A2979 RMK AO2 SLP089 60001 T00720061 56010 $EQDQ01  00028PRCP03
0201725165947372022010115567+43533-072950FM-15+0240KRUT V0201505V00415007325MN0160935N5+00725+00615100805ADDGA1085+007325999GD14991+0073259GE19AGL   +99999+99999GF199999999999007321999999MA1100785097945REMMET09501/01/22 10:56:02 METAR KRUT 011556Z 15008KT 10SM OVC024 07/06 A2976 RMK AO2 SLP080 T00720061 $
0201725165947372022010116567+43533-072950FM-15+0240KRUT V0201705N00365006105MN0160935N5+00785+00615100745ADDGA1085+006105999GD14991+0061059GE19AGL   +99999+99999GF199999999999006101999999MA1100755097915REMMET09501/01/22 11:56:02 METAR KRUT 011656Z 17007KT 10SM OVC020 08/06 A2975 RMK AO2 SLP074 T00780061 $
0345725165947372022010117567+43533-072950FM-15+0240KRUT V0201405N00415004885MN0160935N5+00785+00675100665ADDAA101000021AA206000391AU110020015AW1615GA1085+004885999GD14991+0048859GE19AGL   +99999+99999GF199999999999004881999999KA1060M+00781KA2060N+00501MA1100645097815MD1690229+9999MW1615REMMET13501/01/22 12:56:02 METAR KRUT 011756Z 14008KT 10SM -RA OVC016 08/07 A2972 RMK AO2 RAB46 SLP066 P0000 60001 T00780067 10078 20050 56022 $EQDQ01  00028PRCP06
0226725165947372022010118567+43533-072950FM-15+0240KRUT V0209999C00005004885MN0160935N5+00785+00725100595ADDAA101000021GA1085+004885999GD14991+0048859GE19AGL   +99999+99999GF199999999999004881999999MA1100585097745REMMET10901/01/22 13:56:02 METAR KRUT 011856Z 00000KT 10SM OVC016 08/07 A2970 RMK AO2 RAE1759 SLP059 P0000 T00780072 $
0184725165947372022010119147+43533-072950FM-15+0240KRUT V0201405N00155004275MN0160935N5+00805+00705999999ADDGA1085+004275999GD14991+0042759GE19AGL   +99999+99999GF199999999999004271999999MA1100585097745REMMET07801/01/22 14:14:02 METAR KRUT 011914Z 14003KT 10SM OVC014 08/07 A2970 RMK AO2 $
0201725165947372022010119567+43533-072950FM-15+0240KRUT V0201205N00265004275MN0160935N5+00785+00675100555ADDGA1085+004275999GD14991+0042759GE19AGL   +99999+99999GF199999999999004271999999MA1100545097715REMMET09501/01/22 14:56:02 METAR KRUT 011956Z 12005KT 10SM OVC014 08/07 A2969 RMK AO2 SLP055 T00780067 $
0257725165947372022010120567+43533-072950FM-15+0240KRUT V0209999C00005003665MN0160935N5+00725+00675100615ADDAA103000021GA1085+003665999GD14991+0036659GE19AGL   +99999+99999GF199999999999003661999999MA1100615097775MD1590049+9999REMMET10701/01/22 15:56:02 METAR KRUT 012056Z 00000KT 10SM OVC012 07/07 A2971 RMK AO2 SLP061 60000 T00720067 55004 $EQDQ01  00008PRCP03
0201725165947372022010121567+43533-072950FM-15+0240KRUT V0201305N00215003665MN0160935N5+00675+00615100615ADDGA1085+003665999GD14991+0036659GE19AGL   +99999+99999GF199999999999003661999999MA1100615097775REMMET09501/01/22 16:56:02 METAR KRUT 012156Z 13004KT 10SM OVC012 07/06 A2971 RMK AO2 SLP061 T00670061 $
0201725165947372022010122567+43533-072950FM-15+0240KRUT V0201105N00155004275MN0160935N5+00615+00615100605ADDGA1085+004275999GD14991+0042759GE19AGL   +99999+99999GF199999999999004271999999MA1100615097775REMMET09501/01/22 17:56:02 METAR KRUT 012256Z 11003KT 10SM OVC014 06/06 A2971 RMK AO2 SLP060 T00610061 $
0311725165947372022010123567+43533-072950FM-15+0240KRUT V0201405N003152200059N0160935N5+00505+00505100595ADDAA106000021GA1025+004275999GD11991+0042759GE19AGL   +99999+99999GF102995999999004271999999KA1060M+00781KA2060N+00501MA1100585097745MD1890039+9999REMMET11901/01/22 18:56:02 METAR KRUT 012356Z 14006KT 10SM FEW014 05/05 A2970 RMK AO2 SLP059 60000 T00500050 10078 20050 58003 $EQDQ01  00008PRCP06D01      0ADE726
0201725165947372022010200567+43533-072950FM-15+0240KRUT V0201405N00315036585MN0160935N5+00505+00505100505ADDGA1075+036585999GD13991+0365859GE19AGL   +99999+99999GF199999999999036581999999MA1100515097675REMMET09501/01/22 19:56:01 METAR KRUT 020056Z 14006KT 10SM BKN120 05/05 A2968 RMK AO2 SLP050 T00500050 $
0222725165947372022010201367+43533-072950FM-15+0240KRUT V0201205N00265004885MN0160935N5+00505+00505999999ADDGA1025+000915999GA2075+004885999GD11991+0009159GD23991+0048859GE19AGL   +99999+99999GF199999999999000911999999MA1100515097675REMMET08501/01/22 20:36:01 METAR KRUT 020136Z 12005KT 10SM FEW003 BKN016 05/05 A2968 RMK AO2 $
0239725165947372022010201567+43533-072950FM-15+0240KRUT V0201005N00265004885MN0160935N5+00565+00565100485ADDGA1025+000915999GA2085+004885999GD11991+0009159GD24991+0048859GE19AGL   +99999+99999GF199999999999000911999999MA1100515097675REMMET10201/01/22 20:56:01 METAR KRUT 020156Z 10005KT 10SM FEW003 OVC016 06/06 A2968 RMK AO2 SLP048 T00560056 $
0184725165947372022010202087+43533-072950FM-15+0240KRUT V0201205N00265004275MN0160935N5+00505+00505999999ADDGA1085+004275999GD14991+0042759GE19AGL   +99999+99999GF199999999999004271999999MA1100475097645REMMET07801/01/22 21:08:01 METAR KRUT 020208Z 12005KT 10SM OVC014 05/05 A2967 RMK AO2 $
0307725165947372022010202567+43533-072950FM-15+0240KRUT V0201105N00215003665MN0160935N5+00565+00565100475ADDAA101000021AA203000021AU110020015AW1615GA1085+003665999GD14991+0036659GE19AGL   +99999+99999GF199999999999003661999999MA1100475097645MD1690099+9999MW1615REMMET12301/01/22 21:56:01 METAR KRUT 020256Z 11004KT 10SM -RA OVC012 06/06 A2967 RMK AO2 RAB51 SLP047 P0000 60000 T00560056 56009 $EQDQ01  00008PRCP03
0265725165947372022010203187+43533-072950FM-15+0240KRUT V0209999V00155003665MN0144845N5+00605+00605999999ADDAA101000021AU110020015AW1615GA1045+002135999GA2085+003665999GD12991+0021359GD24991+0036659GE19AGL   +99999+99999GF199999999999002131999999MA1100445097615MW1615REMMET09401/01/22 22:18:01 METAR KRUT 020318Z VRB03KT 9SM -RA SCT007 OVC012 06/06 A2966 RMK AO2 P0000 $
0265725165947372022010203317+43533-072950FM-15+0240KRUT V0203505N00215002135MN0112655N5+00505+00505999999ADDAA101000395AU110020015AW1615GA1075+002135999GA2085+003665999GD13991+0021359GD24991+0036659GE19AGL   +99999+99999GF199999999999002131999999MA1100475097645MW1615REMMET09401/01/22 22:31:01 METAR KRUT 020331Z 35004KT 7SM -RA BKN007 OVC012 05/05 A2967 RMK AO2 P0001 $
0285725165947372022010203447+43533-072950FM-15+0240KRUT V0203605N00215000915MN0080475N5+00605+00605999999ADDAA101000595AU110020015AU200001015AW1105AW2615GA1075+000915999GA2085+002135999GD13991+0009159GD24991+0021359GE19AGL   +99999+99999GF199999999999000911999999MA1100445097615MW1615REMMET09701/01/22 22:44:01 METAR KRUT 020344Z 36004KT 5SM -RA BR BKN003 OVC007 06/06 A2966 RMK AO2 P0002 $
0289725165947372022010203527+43533-072950FM-15+0240KRUT V0203405N00155000915MN0028165N5+00605+00605999999ADDAA101000895AU110020015AU200001015AW1105AW2615GA1075+000915999GA2085+002135999GD13991+0009159GD24991+0021359GE19AGL   +99999+99999GF199999999999000911999999MA1100415097585MW1615REMMET10101/01/22 22:52:01 METAR KRUT 020352Z 34003KT 1 3/4SM -RA BR BKN003 OVC007 06/06 A2965 RMK AO2 P0003 $
0275725165947372022010203567+43533-072950FM-15+0240KRUT V0203305N00155000915MN0020125N5+00565+00565100365ADDAA101000895AU110020015AU200001015AW1105AW2615GA1085+000915999GD14991+0009159GE19AGL   +99999+99999GF199999999999000911999999MA1100375097545MW1615REMMET11801/01/22 22:56:01 METAR KRUT 020356Z 33003KT 1 1/4SM -RA BR OVC003 06/06 A2964 RMK AO2 PRESFR SLP036 P0003 T00560056 $
0249725165947372022010204087+43533-072950FM-15+0240KRUT V0203305N00215000915MN0012075N5+00505+00505999999ADDAA101000021AU110020015AU200001015AW1105AW2615GA1085+000915999GD14991+0009159GE19AGL   +99999+99999GF199999999999000911999999MA1100345097515MW1615REMMET09201/01/22 23:08:02 METAR KRUT 020408Z 33004KT 3/4SM -RA BR OVC003 05/05 A2963 RMK AO2 P0000 $
0249725165947372022010204257+43533-072950FM-15+0240KRUT V0203505N00365000915MN0008055N5+00505+00505999999ADDAA101000395AU110020015AU200002015AW1305AW2615GA1085+000915999GD14991+0009159GE19AGL   +99999+99999GF199999999999000911999999MA1100375097545MW1615REMMET09201/01/22 23:25:02 METAR KRUT 020425Z 35007KT 1/2SM -RA FG OVC003 05/05 A2964 RMK AO2 P0001 $
0247725165947372022010204377+43533-072950FM-15+0240KRUT V0200105N00465000915MN0016095N5+00405+00405999999ADDAA101000395AU110020015AU200001015AW1105AW2615GA1085+000915999GD14991+0009159GE19AGL   +99999+99999GF199999999999000911999999MA1100375097545MW1615REMMET09001/01/22 23:37:02 METAR KRUT 020437Z 01009KT 1SM -RA BR OVC003 04/04 A2964 RMK AO2 P0001 $
0255725165947372022010204437+43533-072950FM-15+0240KRUT V0203605N00465000915MN0032195V5+00405+00405999999ADDAA101000395AU110020015AU200001015AW1105AW2615GA1085+000915999GD14991+0009159GE19AGL   +99999+99999GF199999999999000911999999MA1100345097515MW1615REMMET09801/01/22 23:43:02 METAR KRUT 020443Z 36009KT 2SM -RA BR OVC003 04/04 A2963 RMK AO2 VIS 1V4 P0001 $
0300725165947372022010204567+43533-072950FM-15+0240KRUT V0203505N00415000915MN0032195N5+00335+00335100305ADDAA101000395AU110020015AU200001015AW1105AW2615GA1085+000915999GD14991+0009159GE19AGL   +99999+99999GF199999999999000911999999KA1240M+00781KA2240N+00171MA1100305097485MW1615REMMET11701/01/22 23:56:02 METAR KRUT 020456Z 35008KT 2SM -RA BR OVC003 03/03 A2962 RMK AO2 SLP030 P0001 T00330033 400780017 $
0580725165947372022010204596+43533-072950SOD  +0240KRUT V020999999999999999999999999999+99999+99999999999ADDAA124001895AT1AU16RA  5AT2AU01FG  5AT3AU13BR  5AX1015245KA1240M+00785KA2240N+00175MG1097919999994OE11240076014099995OE22240058114099995OE33240027399999995REMSOD41424 HR PRECIPITATION (IN): 0.07 WEATHER(CODE):1  24 HR MAX TEMP (F): 4624 HR MIN TEMP (F): 35AVERAGE STATION PRESSURE(D):28.912 PEAK WIND SPEED (MPH): 17 PEAK WIND DIR (DEG):140 PEAK WIND TIME (LST):      FASTEST 2MIN SPEED (MPH): 13FASTEST 2MIN DIR (DEG):140 FASTEST 2MIN TIME (LST):     AVERAGE WIND SPEED (MPH): 6.1 24 HR AVG TEMP (F): 41SKY COVER SR-SS (TENTHS): 1HEATING DEGREE DAYS: 24 COOLING DEGREE DAYS:  0
0254725165947372022010205467+43533-072950FM-15+0240KRUT V0203505N00465000915MN0080475N5+00205+00205999999ADDAA101000395AU110020015AU200001015AW1105AW2615GA1085+000915999GD14991+0009159GE19AGL   +99999+99999GF199999999999000911999999MA1100375097545MW1615REMMET09701/02/22 00:46:02 METAR KRUT 020546Z 35009KT 5SM -RA BR OVC003 02/02 A2964 RMK AO2 P0001 FZRANO $
0376725165947372022010205567+43533-072950FM-15+0240KRUT V0203405N00575000915MN0096565N5+00175+00175100445ADDAA101000395AA206001391AU110020015AU200001015AW1105AW2615GA1085+000915999GD14991+0009159GE19AGL   +99999+99999GF199999999999000911999999KA1060M+00561KA2060N+00171MA1100445097615MD1390069+9999MW1615OC100885REMMET14101/02/22 00:56:02 METAR KRUT 020556Z 34011G17KT 6SM -RA BR OVC003 02/02 A2966 RMK AO2 SLP044 P0001 60005 T00170017 10056 20017 53006 FZRANO $EQDQ01  00128PRCP06
0280725165947372022010206567+43533-072950FM-15+0240KRUT V0203505N00155000915MN0064375N5+00115+00115100455ADDAA101000895AU110020015AU200001015AW1105AW2615GA1085+000915999GD14991+0009159GE19AGL   +99999+99999GF199999999999000911999999MA1100445097615MW1615REMMET12301/02/22 01:56:02 METAR KRUT 020656Z 35003KT 4SM -RA BR OVC003 01/01 A2966 RMK AO2 UPB21E26 SLP045 P0003 T00110011 FZRANO $
0251725165947372022010207567+43533-072950FM-15+0240KRUT V0203205N00265000915MN0112655N5+00065+00065100415ADDAA101000595AU110020015AW1615GA1085+000915999GD14991+0009159GE19AGL   +99999+99999GF199999999999000911999999MA1100415097585MW1615REMMET11101/02/22 02:56:02 METAR KRUT 020756Z 32005KT 7SM -RA OVC003 01/01 A2965 RMK AO2 SLP041 P0002 T00060006 FZRANO $
0267725165947372022010208507+43533-072950FM-15+0240KRUT V0203405N00315000915MN0028165N5+00105+00105999999ADDAA101000021AU110020015AU200001015AW1105AW2615GA1085+000915999GD14991+0009159GE19AGL   +99999+99999GF199999999999000911999999MA1100345097515MW1615REMMET11001/02/22 03:50:02 METAR KRUT 020850Z 34006KT 1 3/4SM -RA BR OVC003 01/01 A2963 RMK AO2 UPB07E18 P0000 FZRANO $
0340725165947372022010208567+43533-072950FM-15+0240KRUT V0203405N00265000915MN0020125N5+00065+00065100325ADDAA101000021AA203001391AU110020015AU200001015AW1105AW2615GA1085+000915999GD14991+0009159GE19AGL   +99999+99999GF199999999999000911999999MA1100345097515MD1890119+9999MW1615REMMET13901/02/22 03:56:02 METAR KRUT 020856Z 34005KT 1 1/4SM -RA BR OVC003 01/01 A2963 RMK AO2 UPB07E18 SLP032 P0000 60005 T00060006 58011 FZRANO $EQDQ01  00128PRCP03
0268725165947372022010209347+43533-072950FM-15+0240KRUT V0203505N00265000915MN0040235N5+00005+00005999999ADDAA101000595AU120090015AU200001015AW1105AW2401AW3415GA1085+000915999GD14991+0009159GE19AGL   +99999+99999GF199999999999000911999999MA1100305097485REMMET11101/02/22 04:34:02 METAR KRUT 020934Z 35005KT 2 1/2SM UP BR OVC003 00/00 A2962 RMK AO2 RAE22UPB22 P0002 FZRANO $
0281725165947372022010209567+43533-072950FM-15+0240KRUT V0203305N00215000915MN0048285N5+00005+00005100345ADDAA101001095AU120090015AU200001015AW1105AW2401AW3415GA1085+000915999GD14991+0009159GE19AGL   +99999+99999GF199999999999000911999999MA1100345097515REMMET12401/02/22 04:56:02 METAR KRUT 020956Z 33004KT 3SM UP BR OVC003 00/00 A2963 RMK AO2 RAE22UPB22 SLP034 P0004 T00000000 FZRANO $
0252725165947372022010210567+43533-072950FM-15+0240KRUT V0203305N00415000915MN0128755N5-00065-00065100325ADDAA101000595AU120090015AW1401AW2415GA1085+000915999GD14991+0009159GE19AGL   +99999+99999GF199999999999000911999999MA1100345097515REMMET11201/02/22 05:56:02 METAR KRUT 021056Z 33008KT 8SM UP OVC003 M01/M01 A2963 RMK AO2 SLP032 P0002 T10061006 FZRANO $
0398725165947372022010211567+43533-072950FM-15+0240KRUT V0203505N00315000915MN0048285N5-00115-00115100325ADDAA101000595AA206003391AA324004891AU110030015AU200001015AW1105AW2715GA1085+000915999GD14991+0009159GE19AGL   +99999+99999GF199999999999000911999999KA1060M+00171MA1100305097485MD1890029+9999MW1715REMMET15701/02/22 06:56:02 METAR KRUT 021156Z 35006KT 3SM -SN BR OVC003 M01/M01 A2962 RMK AO2 UPE54SNB54 SLP032 P0002 60013 70019 T10111011 10017 21011 58002 FZRANO $EQDQ01  00338PRCP06Q02  00488PRCP24
0260725165947372022010212147+43533-072950FM-15+0240KRUT V0203205N00365000915MN0040235N5-00105-00105999999ADDAA101000021AU110030015AU200001015AW1105AW2715GA1085+000915999GD14991+0009159GE19AGL   +99999+99999GF199999999999000911999999MA1100305097485MW1715REMMET10301/02/22 07:14:02 METAR KRUT 021214Z 32007KT 2 1/2SM -SN BR OVC003 M01/M01 A2962 RMK AO2 P0000 FZRANO $
0283725165947372022010212567+43533-072950FM-15+0240KRUT V0203405N00265000915MN0032195N5-00175-00175100325ADDAA101000021AU120090015AU200001015AW1105AW2401AW3415GA1085+000915999GD14991+0009159GE19AGL   +99999+99999GF199999999999000911999999MA1100305097485REMMET12601/02/22 07:56:02 METAR KRUT 021256Z 34005KT 2SM UP BR OVC003 M02/M02 A2962 RMK AO2 UPB41SNE41 SLP032 P0000 T10171017 FZRANO $
0271725165947372022010213137+43533-072950FM-15+0240KRUT V0209999V00265000915MN0024145N5-00205-00205999999ADDAA101000021AU120090015AU200001015AW1105AW2401AW3415GA1085+000915999GD14991+0009151GE19AGL   +99999+99999GF199999999999000911999999MA1100345097515REMMET11401/02/22 08:13:02 METAR KRUT 021313Z VRB05KT 1 1/2SM UP BR OVC003 M02/M02 A2963 RMK AO2 CIG 003V007 P0000 FZRANO $
0300725165947372022010213567+43533-072950FM-15+0240KRUT V0203405N00315000915MN0028165N5-00175-00175100405ADDAA101000395AU110030015AU200001015AW1105AW2715GA1085+000915999GD14991+0009159GE19AGL   +99999+99999GF199999999999000911999999MA1100375097545MW1715REMMET14301/02/22 08:56:02 METAR KRUT 021356Z 34006KT 1 3/4SM -SN BR OVC003 M02/M02 A2964 RMK AO2 UPE24B44E56SNB24E44B56 SLP040 P0001 T10171017 FZRANO $
0266725165947372022010214097+43533-072950FM-15+0240KRUT V0203505N00415000915MN0032195N5-00205-00205999999ADDAA101000021AU120090015AU200001015AW1105AW2401AW3415GA1085+000915999GD14991+0009159GE19AGL   +99999+99999GF199999999999000911999999MA1100445097615REMMET10901/02/22 09:09:02 METAR KRUT 021409Z 35008KT 2SM UP BR OVC003 M02/M02 A2966 RMK AO2 UPB08SNE08 P0000 FZRANO $
0273725165947372022010214377+43533-072950FM-15+0240KRUT V0203505N00465001525MN0032195N5-00305-00305999999ADDAA101000021AU110030015AU200001015AW1105AW2715GA1085+001525999GD14991+0015259GE19AGL   +99999+99999GF199999999999001521999999MA1100445097615MW1715REMMET11601/02/22 09:37:02 METAR KRUT 021437Z 35009KT 2SM -SN BR OVC005 M03/M03 A2966 RMK AO2 UPB08E22SNE08B22 P0000 FZRANO $
0355725165947372022010214567+43533-072950FM-15+0240KRUT V0203305N00415001525MN0028165N5-00285-00285100475ADDAA101000021AA203000391AU120090015AU200001015AW1105AW2401AW3415GA1085+001525999GD14991+0015259GE19AGL   +99999+99999GF199999999999001521999999MA1100475097645MD1190159+9999REMMET15401/02/22 09:56:02 METAR KRUT 021456Z 33008KT 1 3/4SM UP BR OVC005 M03/M03 A2967 RMK AO2 UPB08E22B49SNE08B22E49 SLP047 P0000 60001 T10281028 51015 FZRANO $EQDQ01  00028PRCP03
0297725165947372022010215567+43533-072950FM-15+0240KRUT V0203105N00315001525MN0028165N5-00285-00285100565ADDAA101000021AU120090015AU200001015AW1105AW2401AW3415GA1085+001525999GD14991+0015259GE19AGL   +99999+99999GF199999999999001521999999MA1100545097715REMMET14001/02/22 10:56:02 METAR KRUT 021556Z 31006KT 1 3/4SM UP BR OVC005 M03/M03 A2969 RMK AO2 UPE1459B15SNB1459E15 SLP056 P0000 T10281028 FZRANO $
0255725165947372022010216037+43533-072950FM-15+0240KRUT V0203605N00265000915MN0032195N5-00305-00305999999ADDAA101000021AU120090015AU200001015AW1105AW2401AW3415GA1085+000915999GD14991+0009159GE19AGL   +99999+99999GF199999999999000911999999MA1100515097675REMMET09801/02/22 11:03:02 METAR KRUT 021603Z 36005KT 2SM UP BR OVC003 M03/M03 A2968 RMK AO2 P0000 FZRANO $
0271725165947372022010216237+43533-072950FM-15+0240KRUT V0203205N00315000915MN0024145N5-00305-00305999999ADDAA101000021AU110030015AU200001015AW1105AW2715GA1085+000915999GD14991+0009159GE19AGL   +99999+99999GF199999999999000911999999MA1100475097645MW1715REMMET11401/02/22 11:23:02 METAR KRUT 021623Z 32006KT 1 1/2SM -SN BR OVC003 M03/M03 A2967 RMK AO2 UPE05SNB05 P0000 FZRANO $
0283725165947372022010216447+43533-072950FM-15+0240KRUT V0203405N00465001525MN0040235N5-00405-00405999999ADDAA101000021AU110030015AU200001015AW1105AW2715GA1085+001525999GD14991+0015251GE19AGL   +99999+99999GF199999999999001521999999MA1100515097675MW1715REMMET12601/02/22 11:44:02 METAR KRUT 021644Z 34009KT 2 1/2SM -SN BR OVC005 M04/M04 A2968 RMK AO2 UPE05SNB05 CIG 004V008 P0000 FZRANO $
0300725165947372022010216567+43533-072950FM-15+0240KRUT V0203205N00365001525MN0040235N5-00395-00395100545ADDAA101000021AU110030015AU200001015AW1105AW2715GA1085+001525999GD14991+0015251GE19AGL   +99999+99999GF199999999999001521999999MA1100515097675MW1715REMMET14301/02/22 11:56:02 METAR KRUT 021656Z 32007KT 2 1/2SM -SN BR OVC005 M04/M04 A2968 RMK AO2 UPE05SNB05 CIG 004V008 SLP054 P0000 T10391039 FZRANO $
0310725165947372022010217207+43533-072950FM-15+0240KRUT V0203405N00315001525MN0024145N5-00405-00405999999ADDAA101000021AU110030015AU200001015AW1105AW2715GA1075+001525999GA2085+003965999GD13991+0015251GD24991+0039659GE19AGL   +99999+99999GF199999999999001521999999MA1100545097715MW1715REMMET12201/02/22 12:20:02 METAR KRUT 021720Z 34006KT 1 1/2SM -SN BR BKN005 OVC013 M04/M04 A2969 RMK AO2 CIG 004V008 P0000 FZRANO $
0344725165947372022010217337+43533-072950FM-15+0240KRUT V0203405N00415002135MN0016095N5-00405-00405999999ADDAA101000021AU110030015AU200001015AW1105AW2715GA1075+002135999GA2075+003055999GA3085+003965999GD13991+0021351GD23991+0030559GD34991+0039659GE19AGL   +99999+99999GF199999999999002131999999MA1100585097745MW1715REMMET12501/02/22 12:33:02 METAR KRUT 021733Z 34008KT 1SM -SN BR BKN007 BKN010 OVC013 M04/M04 A2970 RMK AO2 CIG 004V008 P0000 FZRANO $
0383725165947372022010217567+43533-072950FM-15+0240KRUT V0203405N00465002135MN0028165N5-00445-00445100635ADDAA101000021AA206000391AU110030015AU200001015AW1105AW2715GA1085+002135999GD14991+0021351GE19AGL   +99999+99999GF199999999999002131999999KA1060M-00111KA2060N-00441MA1100585097745MD1190129+9999MW1715REMMET15601/02/22 12:56:02 METAR KRUT 021756Z 34009KT 1 3/4SM -SN BR OVC007 M04/M04 A2970 RMK AO2 CIG 005V011 SLP063 P0000 60001 T10441044 11011 21044 51012 FZRANO $EQDQ01  00028PRCP06
0332725165947372022010218087+43533-072950FM-15+0240KRUT V0203405N00365002135MN0048285N5-00405-00405999999ADDAA101000021AU110030015AU200001015AW1105AW2715GA1075+002135999GA2075+003355999GA3085+004885999GD13991+0021359GD23991+0033559GD34991+0048859GE19AGL   +99999+99999GF199999999999002131999999MA1100585097745MW1715REMMET11301/02/22 13:08:02 METAR KRUT 021808Z 34007KT 3SM -SN BR BKN007 BKN011 OVC016 M04/M04 A2970 RMK AO2 P0000 FZRANO $
0344725165947372022010218377+43533-072950FM-15+0240KRUT V0203505N00415002135MN0032195V5-00505-00505999999ADDAA101000021AU110030015AU200001015AW1105AW2715GA1075+002135999GA2075+004885999GA3085+011285999GD13991+0021359GD23991+0048859GD34991+0112859GE19AGL   +99999+99999GF199999999999002131999999MA1100545097715MW1715REMMET12501/02/22 13:37:02 METAR KRUT 021837Z 35008KT 2SM -SN BR BKN007 BKN016 OVC037 M05/M05 A2969 RMK AO2 VIS 1 3/4V3 P0000 FZRANO $
0349725165947372022010218567+43533-072950FM-15+0240KRUT V0203405N00415002135MN0048285N5-00505-00505100605ADDAA101000021AU110030015AU200001015AW1105AW2715GA1075+002135999GA2075+007325999GA3085+011285999GD13991+0021359GD23991+0073259GD34991+0112859GE19AGL   +99999+99999GF199999999999002131999999MA1100585097745MW1715REMMET13001/02/22 13:56:02 METAR KRUT 021856Z 34008KT 3SM -SN BR BKN007 BKN024 OVC037 M05/M05 A2970 RMK AO2 SLP060 P0000 T10501050 FZRANO $
0332725165947372022010219027+43533-072950FM-15+0240KRUT V0203405N00415011895MN0064375N5-00505-00505999999ADDAA101000021AU110030015AU200001015AW1105AW2715GA1045+002135999GA2045+007325999GA3085+011895999GD12991+0021359GD22991+0073259GD34991+0118959GE19AGL   +99999+99999GF199999999999002131999999MA1100545097715MW1715REMMET11301/02/22 14:02:02 METAR KRUT 021902Z 34008KT 4SM -SN BR SCT007 SCT024 OVC039 M05/M05 A2969 RMK AO2 P0000 FZRANO $
0312725165947372022010219397+43533-072950FM-15+0240KRUT V0203205N00315004885MN0112655N5-00405-00405999999ADDAA101000021AU110030015AW1715GA1045+002745999GA2075+004885999GA3085+010065999GD12991+0027459GD23991+0048859GD34991+0100659GE19AGL   +99999+99999GF199999999999002741999999MA1100615097775MW1715REMMET11001/02/22 14:39:02 METAR KRUT 021939Z 32006KT 7SM -SN SCT009 BKN016 OVC033 M04/M04 A2971 RMK AO2 P0000 FZRANO $
0322725165947372022010219507+43533-072950FM-15+0240KRUT V0203305N00265003355MN0040235V5-00405-00405999999ADDAA101000021AU110030015AU200001015AW1105AW2715GA1075+003355999GA2085+004885999GD13991+0033551GD24991+0048859GE19AGL   +99999+99999GF199999999999003351999999MA1100615097775MW1715REMMET13401/02/22 14:50:02 METAR KRUT 021950Z 33005KT 2 1/2SM -SN BR BKN011 OVC016 M04/M04 A2971 RMK AO2 VIS 1 1/2V4 CIG 008V014 P0000 FZRANO $
0327725165947372022010219567+43533-072950FM-15+0240KRUT V0203205N00365002745MN0028165N5-00445-00445100695ADDAA101000021AU110030015AU200001015AW1105AW2715GA1075+002745999GA2085+004885999GD13991+0027451GD24991+0048859GE19AGL   +99999+99999GF199999999999002741999999MA1100685097845MW1715REMMET13901/02/22 14:56:02 METAR KRUT 021956Z 32007KT 1 3/4SM -SN BR BKN009 OVC016 M04/M04 A2973 RMK AO2 CIG 007V012 SLP069 P0000 T10441044 FZRANO $
0313725165947372022010220067+43533-072950FM-15+0240KRUT V0203405N00465003355MN0048285N5-00505-00505999999ADDAA101000021AU110030015AU200001015AW1105AW2715GA1075+003355999GA2085+005495999GD13991+0033551GD24991+0054959GE19AGL   +99999+99999GF199999999999003351999999MA1100755097915MW1715REMMET12501/02/22 15:06:02 METAR KRUT 022006Z 34009KT 3SM -SN BR BKN011 OVC018 M05/M05 A2975 RMK AO2 CIG 007V014 PRESRR P0000 FZRANO $
0294725165947372022010220217+43533-072950FM-15+0240KRUT V0203405N00415006105MN0080475N5-00505-00505999999ADDAA101000021AU110030015AU200001015AW1105AW2715GA1025+003055999GA2085+006105999GD11991+0030559GD24991+0061059GE19AGL   +99999+99999GF199999999999003051999999MA1100715097875MW1715REMMET10601/02/22 15:21:02 METAR KRUT 022021Z 34008KT 5SM -SN BR FEW010 OVC020 M05/M05 A2974 RMK AO2 P0000 FZRANO $
0301725165947372022010220517+43533-072950FM-15+0240KRUT V0203305N00265003055MN0064375N5-00505-00505999999ADDAA101000021AU110030015AU200001015AW1105AW2715GA1075+003055999GA2085+006715999GD13991+0030559GD24991+0067159GE19AGL   +99999+99999GF199999999999003051999999MA1100885098045MW1715REMMET11301/02/22 15:51:02 METAR KRUT 022051Z 33005KT 4SM -SN BR BKN010 OVC022 M05/M05 A2979 RMK AO2 PRESRR P0000 FZRANO $
0309725165947372022010220567+43533-072950FM-15+0240KRUT V0203405N00315003055MN0112655N5-00505-00505100895ADDAA101000021AA203000021AU110030015AW1715GA1085+003055999GD14991+0030559GE19AGL   +99999+99999GF199999999999003051999999MA1100855098015MD1090279+9999MW1715REMMET12501/02/22 15:56:02 METAR KRUT 022056Z 34006KT 7SM -SN OVC010 M05/M05 A2978 RMK AO2 SLP089 P0000 60000 T10501050 50027 FZRANO $EQDQ01  00008PRCP03
0312725165947372022010221227+43533-072950FM-15+0240KRUT V0203505N00365006715MN0144845N5-00505-00505999999ADDAA101000021AU110030015AW1715GA1025+003665999GA2075+006715999GA3085+018295999GD11991+0036659GD23991+0067159GD34991+0182959GE19AGL   +99999+99999GF199999999999003661999999MA1100815097975MW1715REMMET11001/02/22 16:22:02 METAR KRUT 022122Z 35007KT 9SM -SN FEW012 BKN022 OVC060 M05/M05 A2977 RMK AO2 P0000 FZRANO $
0336725165947372022010221567+43533-072950FM-15+0240KRUT V0203205N00315004275MN0144845N5-00565-00565101015ADDAA101000021AU110030015AW1715GA1075+004275999GA2075+015245999GA3085+021345999GD13991+0042759GD23991+0152459GD34991+0213459GE19AGL   +99999+99999GF199999999999004271999999MA1100985098145MW1715REMMET13401/02/22 16:56:02 METAR KRUT 022156Z 32006KT 9SM -SN BKN014 BKN050 OVC070 M06/M06 A2982 RMK AO2 PRESRR SLP101 P0000 T10561056 FZRANO $
0292725165947372022010222147+43533-072950FM-15+0240KRUT V0203205N00315022865MN0160935N5-00605-00605999999ADDAA101000021GA1025+004275999GA2045+015245999GA3085+022865999GD11991+0042759GD22991+0152459GD34991+0228659GE19AGL   +99999+99999GF199999999999004271999999MA1101025098175REMMET11301/02/22 17:14:02 METAR KRUT 022214Z 32006KT 10SM FEW014 SCT050 OVC075 M06/M06 A2983 RMK AO2 SNE05 P0000 FZRANO $
0269725165947372022010222567+43533-072950FM-15+0240KRUT V0203205N00415012195MN0144845N5-00565-00565101225ADDAA101000021AU110030015AW1715GA1085+012195999GD14991+0121959GE19AGL   +99999+99999GF199999999999012191999999MA1101195098345MW1715REMMET12901/02/22 17:56:02 METAR KRUT 022256Z 32008KT 9SM -SN OVC040 M06/M06 A2988 RMK AO2 SNE05B37 PRESRR SLP122 P0000 T10561056 FZRANO $
0423725165947372022010223567+43533-072950FM-15+0240KRUT V0209999V00265006715MN0112655N5-00565-00615101385ADDAA101000021AA206000021AU110030015AW1715GA1075+006715999GA2075+010975999GA3085+013115999GD13991+0067159GD23991+0109759GD34991+0131159GE19AGL   +99999+99999GF199999999999006711999999KA1060M-00441KA2060N-00561MA1101355098505MD1390469+9999MW1715REMMET15101/02/22 18:56:02 METAR KRUT 022356Z VRB05KT 7SM -SN BKN022 BKN036 OVC043 M06/M06 A2993 RMK AO2 SLP138 P0000 60000 T10561061 11044 21056 53046 FZRANO $EQDQ01  00008PRCP06
0312725165947372022010300117+43533-072950FM-15+0240KRUT V0203005N00265013115MN0144845N5-00605-00605999999ADDAA101000021AU110030015AW1715GA1045+006715999GA2075+013115999GA3085+016765999GD12991+0067159GD23991+0131159GD34991+0167659GE19AGL   +99999+99999GF199999999999006711999999MA1101355098505MW1715REMMET11001/02/22 19:11:01 METAR KRUT 030011Z 30005KT 9SM -SN SCT022 BKN043 OVC055 M06/M06 A2993 RMK AO2 P0000 FZRANO $
0329725165947372022010300567+43533-072950FM-15+0240KRUT V0203305N00215018295MN0144845N5-00615-00675101475ADDAA101000021AU110030015AW1715GA1045+003665999GA2045+011895999GA3085+018295999GD12991+0036659GD22991+0118959GD34991+0182959GE19AGL   +99999+99999GF199999999999003661999999MA1101425098575MW1715REMMET12701/02/22 19:56:01 METAR KRUT 030056Z 33004KT 9SM -SN SCT012 SCT039 OVC060 M06/M07 A2995 RMK AO2 SLP147 P0000 T10611067 FZRANO $
0312725165947372022010301157+43533-072950FM-15+0240KRUT V0203405N00155003665MN0144845N5-00705-00705999999ADDAA101000021AU110030015AW1715GA1075+003665999GA2075+006105999GA3075+011585999GD13991+0036659GD23991+0061059GD33991+0115859GE19AGL   +99999+99999GF199999999999003661999999MA1101465098605MW1715REMMET11001/02/22 20:15:01 METAR KRUT 030115Z 34003KT 9SM -SN BKN012 BKN020 BKN038 M07/M07 A2996 RMK AO2 P0000 FZRANO $
0233725165947372022010301567+43533-072950FM-15+0240KRUT V0203605N00315003055MN0160935N5-00725-00785101545ADDAA101000021GA1085+003055999GD14991+0030559GE19AGL   +99999+99999GF199999999999003051999999MA1101495098635REMMET11601/02/22 20:56:01 METAR KRUT 030156Z 36006KT 10SM OVC010 M07/M08 A2997 RMK AO2 SNE42 SLP154 P0000 T10721078 FZRANO $
0193725165947372022010302347+43533-072950FM-15+0240KRUT V0203405N00315002445MN0160935N5-00705-00805999999ADDGA1085+002445999GD14991+0024459GE19AGL   +99999+99999GF199999999999002441999999MA1101495098635REMMET08701/02/22 21:34:01 METAR KRUT 030234Z 34006KT 10SM OVC008 M07/M08 A2997 RMK AO2 FZRANO $
0266725165947372022010302567+43533-072950FM-15+0240KRUT V0203305N00315003665MN0160935N5-00725-00785101615ADDAA103000021GA1085+003665999GD14991+0036659GE19AGL   +99999+99999GF199999999999003661999999MA1101565098705MD1190209+9999REMMET11601/02/22 21:56:01 METAR KRUT 030256Z 33006KT 10SM OVC012 M07/M08 A2999 RMK AO2 SLP161 60000 T10721078 51020 FZRANO $EQDQ01  00008PRCP03
0297725165947372022010303567+43533-072950FM-15+0240KRUT V0203205N00365004275MN0144845N5-00725-00785101725ADDAA101000021AU110030015AW1715GA1075+004275999GA2085+005795999GD13991+0042759GD24991+0057959GE19AGL   +99999+99999GF199999999999004271999999MA1101665098805MW1715REMMET12601/02/22 22:56:02 METAR KRUT 030356Z 32007KT 9SM -SN BKN014 OVC019 M07/M08 A3002 RMK AO2 SNB47 SLP172 P0000 T10721078 FZRANO $
0300725165947372022010304567+43533-072950FM-15+0240KRUT V0203305N00415004275MN0144845N5-00725-00835101755ADDAA101000021AU110030015AW1715GA1085+004275999GD14991+0042759GE19AGL   +99999+99999GF199999999999004271999999KA1240M+00281KA2240N-00721MA1101665098805MW1715REMMET13401/02/22 23:56:02 METAR KRUT 030456Z 33008KT 9SM -SN OVC014 M07/M08 A3002 RMK AO2 SNE0359B47 SLP175 P0000 T10721083 400281072 FZRANO $
0592725165947372022010304596+43533-072950SOD  +0240KRUT V020999999999999999999999999999+99999+99999999999ADDAA124003895AT1AU16RA  5AT2AU18SN  5AT3AU13BR  5AT4AU19UP  5AX1015245KA1240M+00285KA2240N-00715MG1097889999994OE11240089434099995OE22240058134099995OE33240033199999995REMSOD41424 HR PRECIPITATION (IN): 0.15 WEATHER(CODE):1  24 HR MAX TEMP (F): 3724 HR MIN TEMP (F): 19AVERAGE STATION PRESSURE(D):28.905 PEAK WIND SPEED (MPH): 20 PEAK WIND DIR (DEG):340 PEAK WIND TIME (LST):      FASTEST 2MIN SPEED (MPH): 13FASTEST 2MIN DIR (DEG):340 FASTEST 2MIN TIME (LST):     AVERAGE WIND SPEED (MPH): 7.4 24 HR AVG TEMP (F): 28SKY COVER SR-SS (TENTHS): 1HEATING DEGREE DAYS: 37 COOLING DEGREE DAYS:  0
0236725165947372022010305347+43533-072950FM-15+0240KRUT V0203205N00415004885MN0144845N5-00805-00805999999ADDAA101000021AU110030015AW1715GA1085+004885999GD14991+0048859GE19AGL   +99999+99999GF199999999999004881999999MA1101735098875MW1715REMMET09601/03/22 00:34:02 METAR KRUT 030534Z 32008KT 9SM -SN OVC016 M08/M08 A3004 RMK AO2 P0000 FZRANO $
0334725165947372022010305567+43533-072950FM-15+0240KRUT V0203205N00415004885MN0160935N5-00785-00895101875ADDAA101000021AA206000021GA1085+004885999GD14991+0048859GE19AGL   +99999+99999GF199999999999004881999999KA1060M-00561KA2060N-00781MA1101795098935MD1390259+9999REMMET14701/03/22 00:56:02 METAR KRUT 030556Z 32008KT 10SM OVC016 M08/M09 A3006 RMK AO2 SNE42 PRESRR SLP187 P0000 60000 T10781089 11056 21078 53025 FZRANO $EQDQ01  00008PRCP06
0261725165947372022010306567+43533-072950FM-15+0240KRUT V0203005N00365006105MN0144845N5-00895-01005102055ADDAA101000021AU110030015AW1715GA1075+006105999GD13991+0061059GE19AGL   +99999+99999GF199999999999006101999999MA1101965099105MW1715REMMET12101/03/22 01:56:02 METAR KRUT 030656Z 30007KT 9SM -SN BKN020 M09/M10 A3011 RMK AO2 SNB0559 SLP205 P0000 T10891100 FZRANO $
0235725165947372022010307167+43533-072950FM-15+0240KRUT V0209999V001552200059N0160935N5-00905-01105999999ADDAA101000021GA1045+006715999GD12991+0067159GE19AGL   +99999+99999GF104995999999006711999999MA1101965099105REMMET09901/03/22 02:16:02 METAR KRUT 030716Z VRB03KT 10SM SCT022 M09/M11 A3011 RMK AO2 SNE01 P0000 FZRANO $EQDD01      0ADE726
0208725165947372022010307567+43533-072950FM-15+0240KRUT V0209999C000052200059N0160935N5-01005-01175102105ADDAA101000021GA1005+999999999GD10991+9999999GF100991999999999999999999MA1102035099165REMMET11301/03/22 02:56:02 METAR KRUT 030756Z 00000KT 10SM CLR M10/M12 A3013 RMK AO2 SNE01 SLP210 P0000 T11001117 FZRANO $
0241725165947372022010308567+43533-072950FM-15+0240KRUT V0203505N002652200059N0160935N5-01115-01225102195ADDAA103000021GA1005+999999999GD10991+9999999GF100991999999999999999999MA1102105099235MD1190309+9999REMMET11301/03/22 03:56:02 METAR KRUT 030856Z 35005KT 10SM CLR M11/M12 A3015 RMK AO2 SLP219 60000 T11111122 51030 FZRANO $EQDQ01  00008PRCP03
0185725165947372022010309567+43533-072950FM-15+0240KRUT V0203505N003652200059N0160935N5-01175-01285102345ADDGA1005+999999999GD10991+9999999GF100991999999999999999999MA1102275099405REMMET10101/03/22 04:56:02 METAR KRUT 030956Z 35007KT 10SM CLR M12/M13 A3020 RMK AO2 SLP234 T11171128 FZRANO $
0229725165947372022010310567+43533-072950FM-15+0240KRUT V0203105N002652200059N0160935N5-01225-01335102335ADDGA1025+006715999GD11991+0067159GE19AGL   +99999+99999GF102995999999006711999999MA1102245099365REMMET10401/03/22 05:56:02 METAR KRUT 031056Z 31005KT 10SM FEW022 M12/M13 A3019 RMK AO2 SLP233 T11221133 FZRANO $EQDD01      0ADE726
0312725165947372022010311567+43533-072950FM-15+0240KRUT V0203205N002152200059N0160935N5-01225-01335102355ADDAA106000021AA224000391GA1005+999999999GD10991+9999999GF100991999999999999999999KA1060M-00781KA2060N-01221MA1102275099405MD1190159+9999REMMET13101/03/22 06:56:02 METAR KRUT 031156Z 32004KT 10SM CLR M12/M13 A3020 RMK AO2 SLP235 60000 70001 T11221133 11078 21122 51015 FZRANO $EQDQ01  00008PRCP06Q02  00028PRCP24
0185725165947372022010312567+43533-072950FM-15+0240KRUT V0203505N002152200059N0160935N5-01225-01335102385ADDGA1005+999999999GD10991+9999999GF100991999999999999999999MA1102305099435REMMET10101/03/22 07:56:02 METAR KRUT 031256Z 35004KT 10SM CLR M12/M13 A3021 RMK AO2 SLP238 T11221133 FZRANO $
0185725165947372022010313567+43533-072950FM-15+0240KRUT V0203205N004152200059N0160935N5-01175-01285102475ADDGA1005+999999999GD10991+9999999GF100991999999999999999999MA1102375099495REMMET10101/03/22 08:56:02 METAR KRUT 031356Z 32008KT 10SM CLR M12/M13 A3023 RMK AO2 SLP247 T11171128 FZRANO $
0205725165947372022010314567+43533-072950FM-15+0240KRUT V0203505N003152200059N0160935N5-01175-01335102565ADDGA1005+999999999GD10991+9999999GF100991999999999999999999MA1102475099595MD1390209+9999REMMET10701/03/22 09:56:02 METAR KRUT 031456Z 35006KT 10SM CLR M12/M13 A3026 RMK AO2 SLP256 T11171133 53020 FZRANO $
0185725165947372022010315567+43533-072950FM-15+0240KRUT V0203405N002152200059N0160935N5-01115-01335102445ADDGA1005+999999999GD10991+9999999GF100991999999999999999999MA1102345099465REMMET10101/03/22 10:56:02 METAR KRUT 031556Z 34004KT 10SM CLR M11/M13 A3022 RMK AO2 SLP244 T11111133 FZRANO $
0193725165947372022010316257+43533-072950FM-15+0240KRUT V0203405N00315004885MN0160935N5-01105-01305999999ADDGA1075+004885999GD13991+0048859GE19AGL   +99999+99999GF199999999999004881999999MA1102305099435REMMET08701/03/22 11:25:02 METAR KRUT 031625Z 34006KT 10SM BKN016 M11/M13 A3021 RMK AO2 FZRANO $
0229725165947372022010316567+43533-072950FM-15+0240KRUT V0203605N004152200059N0160935N5-01115-01335102385ADDGA1045+004275999GD12991+0042759GE19AGL   +99999+99999GF104995999999004271999999MA1102305099435REMMET10401/03/22 11:56:02 METAR KRUT 031656Z 36008KT 10SM SCT014 M11/M13 A3021 RMK AO2 SLP238 T11111133 FZRANO $EQDD01      0ADE726
0193725165947372022010317107+43533-072950FM-15+0240KRUT V0203505N00315004275MN0160935N5-01205-01305999999ADDGA1075+004275999GD13991+0042759GE19AGL   +99999+99999GF199999999999004271999999MA1102275099405REMMET08701/03/22 12:10:02 METAR KRUT 031710Z 35006KT 10SM BKN014 M12/M13 A3020 RMK AO2 FZRANO $
0268725165947372022010317567+43533-072950FM-15+0240KRUT V0203505N00365004275MN0160935N5-01175-01335102305ADDGA1085+004275999GD14991+0042759GE19AGL   +99999+99999GF199999999999004271999999KA1060M-01111KA2060N-01221MA1102205099335MD1690269+9999REMMET12201/03/22 12:56:02 METAR KRUT 031756Z 35007KT 10SM OVC014 M12/M13 A3018 RMK AO2 SLP230 T11171133 11111 21122 56026 FZRANO $
0259725165947372022010318567+43533-072950FM-15+0240KRUT V0203305N00415004275MN0144845N5-01175-01335102235ADDAA101000021AU110030015AW1715GA1085+004275999GD14991+0042759GE19AGL   +99999+99999GF199999999999004271999999MA1102135099265MW1715REMMET11901/03/22 13:56:02 METAR KRUT 031856Z 33008KT 9SM -SN OVC014 M12/M13 A3016 RMK AO2 SNB22 SLP223 P0000 T11171133 FZRANO $
0253725165947372022010319567+43533-072950FM-15+0240KRUT V0203105N00265004275MN0144845N5-01175-01335102295ADDAA101000021AU110030015AW1715GA1085+004275999GD14991+0042759GE19AGL   +99999+99999GF199999999999004271999999MA1102175099305MW1715REMMET11301/03/22 14:56:02 METAR KRUT 031956Z 31005KT 9SM -SN OVC014 M12/M13 A3017 RMK AO2 SLP229 P0000 T11171133 FZRANO $
0309725165947372022010320567+43533-072950FM-15+0240KRUT V0203505N00315004275MN0144845N5-01225-01395102265ADDAA101000021AA203000021AU110030015AW1715GA1085+004275999GD14991+0042759GE19AGL   +99999+99999GF199999999999004271999999MA1102135099265MD1690069+9999MW1715REMMET12501/03/22 15:56:02 METAR KRUT 032056Z 35006KT 9SM -SN OVC014 M12/M14 A3016 RMK AO2 SLP226 P0000 60000 T11221139 56006 FZRANO $EQDQ01  00008PRCP03
0233725165947372022010321567+43533-072950FM-15+0240KRUT V0203305N00265004275MN0160935N5-01225-01395102295ADDAA101000021GA1085+004275999GD14991+0042759GE19AGL   +99999+99999GF199999999999004271999999MA1102175099305REMMET11601/03/22 16:56:02 METAR KRUT 032156Z 33005KT 10SM OVC014 M12/M14 A3017 RMK AO2 SNE49 SLP229 P0000 T11221139 FZRANO $
0193725165947372022010322447+43533-072950FM-15+0240KRUT V0209999C00005004885MN0160935N5-01305-01405999999ADDGA1075+004885999GD13991+0048859GE19AGL   +99999+99999GF199999999999004881999999MA1102205099335REMMET08701/03/22 17:44:02 METAR KRUT 032244Z 00000KT 10SM BKN016 M13/M14 A3018 RMK AO2 FZRANO $
0229725165947372022010322567+43533-072950FM-15+0240KRUT V0203305N001552200059N0160935N5-01285-01445102365ADDGA1045+004885999GD12991+0048859GE19AGL   +99999+99999GF104995999999004881999999MA1102245099365REMMET10401/03/22 17:56:02 METAR KRUT 032256Z 33003KT 10SM SCT016 M13/M14 A3019 RMK AO2 SLP236 T11281144 FZRANO $EQDD01      0ADE726
0279725165947372022010323567+43533-072950FM-15+0240KRUT V0203205N003152200059N0160935N5-01285-01505102395ADDAA106000021GA1005+999999999GD10991+9999999GF100991999999999999999999KA1060M-01111KA2060N-01281MA1102275099405MD1190129+9999REMMET12501/03/22 18:56:02 METAR KRUT 032356Z 32006KT 10SM CLR M13/M15 A3020 RMK AO2 SLP239 60000 T11281150 11111 21128 51012 FZRANO $EQDQ01  00008PRCP06
0185725165947372022010400567+43533-072950FM-15+0240KRUT V0209999C000052200059N0160935N5-01395-01615102455ADDGA1005+999999999GD10991+9999999GF100991999999999999999999MA1102345099465REMMET10101/03/22 19:56:01 METAR KRUT 040056Z 00000KT 10SM CLR M14/M16 A3022 RMK AO2 SLP245 T11391161 FZRANO $
0185725165947372022010401567+43533-072950FM-15+0240KRUT V0203605N002152200059N0160935N5-01505-01725102505ADDGA1005+999999999GD10991+9999999GF100991999999999999999999MA1102375099495REMMET10101/03/22 20:56:01 METAR KRUT 040156Z 36004KT 10SM CLR M15/M17 A3023 RMK AO2 SLP250 T11501172 FZRANO $
0205725165947372022010402567+43533-072950FM-15+0240KRUT V0203305N002152200059N0160935N5-01565-01725102535ADDGA1005+999999999GD10991+9999999GF100991999999999999999999MA1102405099535MD1190159+9999REMMET10701/03/22 21:56:01 METAR KRUT 040256Z 33004KT 10SM CLR M16/M17 A3024 RMK AO2 SLP253 T11561172 51015 FZRANO $
0185725165947372022010403567+43533-072950FM-15+0240KRUT V0200105N001552200059N0160935N5-01565-01785102555ADDGA1005+999999999GD10991+9999999GF100991999999999999999999MA1102445099565REMMET10101/03/22 22:56:02 METAR KRUT 040356Z 01003KT 10SM CLR M16/M18 A3025 RMK AO2 SLP255 T11561178 FZRANO $
0221725165947372022010404567+43533-072950FM-15+0240KRUT V0209999C000052200059N0160935N5-01615-01835102575ADDGA1005+999999999GD10991+9999999GF100991999999999999999999KA1240M-00721KA2240N-01611MA1102445099565REMMET11101/03/22 23:56:02 METAR KRUT 040456Z 00000KT 10SM CLR M16/M18 A3025 RMK AO2 SLP257 T11611183 410721161 FZRANO $
0427725165947372022010404596+43533-072950SOD  +0240KRUT V020999999999999999999999999999+99999+99999999999ADDAA124000025AT1AU18SN  5KA1240M-00715KA2240N-01605MG1099349999994OE11249999999999997OE22240040233099995OE33240026899999995REMSOD29424 HR PRECIPITATION (IN):    T 24 HR MAX TEMP (F): 1924 HR MIN TEMP (F):  3AVERAGE STATION PRESSURE(D):29.336  FASTEST 2MIN SPEED (MPH):  9FASTEST 2MIN DIR (DEG):330 FASTEST 2MIN TIME (LST):     AVERAGE WIND SPEED (MPH): 6.0 24 HR AVG TEMP (F): 11HEATING DEGREE DAYS: 54 COOLING DEGREE DAYS:  0
0243725165947372022010405567+43533-072950FM-15+0240KRUT V0203505N001552200059N0160935N5-01675-01835102615ADDGA1005+999999999GD10991+9999999GF100991999999999999999999KA1060M-01281KA2060N-01671MA1102475099595MD1390079+9999REMMET11901/04/22 00:56:02 METAR KRUT 040556Z 35003KT 10SM CLR M17/M18 A3026 RMK AO2 SLP261 T11671183 11128 21167 53007 FZRANO $
0185725165947372022010406567+43533-072950FM-15+0240KRUT V0209999C000052200059N0160935N5-01675-01835102695ADDGA1005+999999999GD10991+9999999GF100991999999999999999999MA1102575099695REMMET10101/04/22 01:56:02 METAR KRUT 040656Z 00000KT 10SM CLR M17/M18 A3029 RMK AO2 SLP269 T11671183 FZRANO $
0185725165947372022010407567+43533-072950FM-15+0240KRUT V0209999C000052200059N0160935N5-01675-01835102695ADDGA1005+999999999GD10991+9999999GF100991999999999999999999MA1102575099695REMMET10101/04/22 02:56:02 METAR KRUT 040756Z 00000KT 10SM CLR M17/M18 A3029 RMK AO2 SLP269 T11671183 FZRANO $
0205725165947372022010408567+43533-072950FM-15+0240KRUT V0209999C000052200059N0160935N5-01675-01895102725ADDGA1005+999999999GD10991+9999999GF100991999999999999999999MA1102615099735MD1190119+9999REMMET10701/04/22 03:56:01 METAR KRUT 040856Z 00000KT 10SM CLR M17/M19 A3030 RMK AO2 SLP272 T11671189 51011 FZRANO $
0185725165947372022010409567+43533-072950FM-15+0240KRUT V0209999C000052200059N0160935N5-01725-01895102795ADDGA1005+999999999GD10991+9999999GF100991999999999999999999MA1102645099765REMMET10101/04/22 04:56:01 METAR KRUT 040956Z 00000KT 10SM CLR M17/M19 A3031 RMK AO2 SLP279 T11721189 FZRANO $
0185725165947372022010410567+43533-072950FM-15+0240KRUT V0201505N002152200059N0160935N5-01675-01835102845ADDGA1005+999999999GD10991+9999999GF100991999999999999999999MA1102715099835REMMET10101/04/22 05:56:01 METAR KRUT 041056Z 15004KT 10SM CLR M17/M18 A3033 RMK AO2 SLP284 T11671183 FZRANO $
0243725165947372022010411567+43533-072950FM-15+0240KRUT V0201705N001552200059N0160935N5-01675-01785102765ADDGA1005+999999999GD10991+9999999GF100991999999999999999999KA1060M-01611KA2060N-01721MA1102645099765MD1090039+9999REMMET11901/04/22 06:56:01 METAR KRUT 041156Z 17003KT 10SM CLR M17/M18 A3031 RMK AO2 SLP276 T11671178 11161 21172 50003 FZRANO $
0185725165947372022010412567+43533-072950FM-15+0240KRUT V0201105N002152200059N0160935N5-01615-01725102845ADDGA1005+999999999GD10991+9999999GF100991999999999999999999MA1102715099835REMMET10101/04/22 07:56:01 METAR KRUT 041256Z 11004KT 10SM CLR M16/M17 A3033 RMK AO2 SLP284 T11611172 FZRANO $
0185725165947372022010413567+43533-072950FM-15+0240KRUT V0201205N002652200059N0160935N5-01285-01505102825ADDGA1005+999999999GD10991+9999999GF100991999999999999999999MA1102685099795REMMET10101/04/22 08:56:01 METAR KRUT 041356Z 12005KT 10SM CLR M13/M15 A3032 RMK AO2 SLP282 T11281150 FZRANO $
0205725165947372022010414567+43533-072950FM-15+0240KRUT V0209999C000052200059N0160935N5-00895-01285102825ADDGA1005+999999999GD10991+9999999GF100991999999999999999999MA1102685099795MD1090069+9999REMMET10701/04/22 09:56:01 METAR KRUT 041456Z 00000KT 10SM CLR M09/M13 A3032 RMK AO2 SLP282 T10891128 50006 FZRANO $
0185725165947372022010415567+43533-072950FM-15+0240KRUT V0209999C000052200059N0160935N5-00565-01065102775ADDGA1005+999999999GD10991+9999999GF100991999999999999999999MA1102685099795REMMET10101/04/22 10:56:01 METAR KRUT 041556Z 00000KT 10SM CLR M06/M11 A3032 RMK AO2 SLP277 T10561106 FZRANO $
0210725165947372022010416567+43533-072950FM-15+0240KRUT V0201805N00265011895MN0160935N5-00445-00945102625ADDGA1085+011895999GD14991+0118959GE19AGL   +99999+99999GF199999999999011891999999MA1102515099635REMMET10401/04/22 11:56:01 METAR KRUT 041656Z 18005KT 10SM OVC039 M04/M09 A3027 RMK AO2 SLP262 T10441094 FZRANO $
0268725165947372022010417567+43533-072950FM-15+0240KRUT V0201205N00155011285MN0160935N5-00505-00945102605ADDGA1085+011285999GD14991+0112859GE19AGL   +99999+99999GF199999999999011281999999KA1060M-00441KA2060N-01671MA1102515099635MD1790199+9999REMMET12201/04/22 12:56:01 METAR KRUT 041756Z 12003KT 10SM OVC037 M05/M09 A3027 RMK AO2 SLP260 T10501094 11044 21167 57019 FZRANO $
0210725165947372022010418567+43533-072950FM-15+0240KRUT V0200805N00215009455MN0160935N5-00445-00725102535ADDGA1085+009455999GD14991+0094559GE19AGL   +99999+99999GF199999999999009451999999MA1102445099565REMMET10401/04/22 13:56:01 METAR KRUT 041856Z 08004KT 10SM OVC031 M04/M07 A3025 RMK AO2 SLP253 T10441072 FZRANO $
0193725165947372022010419137+43533-072950FM-15+0240KRUT V0209999C00005008845MN0160935N5-00405-00705999999ADDGA1085+008845999GD14991+0088459GE19AGL   +99999+99999GF199999999999008841999999MA1102445099565REMMET08701/04/22 14:13:01 METAR KRUT 041913Z 00000KT 10SM OVC029 M04/M07 A3025 RMK AO2 FZRANO $
0210725165947372022010419567+43533-072950FM-15+0240KRUT V0202105N00215008845MN0160935N5-00395-00675102515ADDGA1085+008845999GD14991+0088459GE19AGL   +99999+99999GF199999999999008841999999MA1102405099535REMMET10401/04/22 14:56:01 METAR KRUT 041956Z 21004KT 10SM OVC029 M04/M07 A3024 RMK AO2 SLP251 T10391067 FZRANO $
0230725165947372022010420567+43533-072950FM-15+0240KRUT V0201905N00215008845MN0160935N5-00445-00725102535ADDGA1075+008845999GD13991+0088459GE19AGL   +99999+99999GF199999999999008841999999MA1102405099535MD1590079+9999REMMET11001/04/22 15:56:01 METAR KRUT 042056Z 19004KT 10SM BKN029 M04/M07 A3024 RMK AO2 SLP253 T10441072 55007 FZRANO $
0210725165947372022010421567+43533-072950FM-15+0240KRUT V0209999C00005007625MN0160935N5-00445-00675102545ADDGA1085+007625999GD14991+0076259GE19AGL   +99999+99999GF199999999999007621999999MA1102445099565REMMET10401/04/22 16:56:01 METAR KRUT 042156Z 00000KT 10SM OVC025 M04/M07 A3025 RMK AO2 SLP254 T10441067 FZRANO $
0210725165947372022010422567+43533-072950FM-15+0240KRUT V0209999C00005007625MN0160935N5-00445-00615102555ADDGA1085+007625999GD14991+0076259GE19AGL   +99999+99999GF199999999999007621999999MA1102445099565REMMET10401/04/22 17:56:01 METAR KRUT 042256Z 00000KT 10SM OVC025 M04/M06 A3025 RMK AO2 SLP255 T10441061 FZRANO $
0212725165947372022010423407+43533-072950FM-15+0240KRUT V0201105N001552200059N0160935N5-00605-00805999999ADDGA1025+008235999GD11991+0082359GE19AGL   +99999+99999GF102995999999008231999999MA1102405099535REMMET08701/04/22 18:40:02 METAR KRUT 042340Z 11003KT 10SM FEW027 M06/M08 A3024 RMK AO2 FZRANO $EQDD01      0ADE726
0243725165947372022010423567+43533-072950FM-15+0240KRUT V0201205N002652200059N0160935N5-00615-00785102515ADDGA1005+999999999GD10991+9999999GF100991999999999999999999KA1060M-00331KA2060N-00671MA1102405099535MD1890039+9999REMMET11901/04/22 18:56:01 METAR KRUT 042356Z 12005KT 10SM CLR M06/M08 A3024 RMK AO2 SLP251 T10611078 11033 21067 58003 FZRANO $
0185725165947372022010500567+43533-072950FM-15+0240KRUT V0201305N004152200059N0160935N5-00615-00675102515ADDGA1005+999999999GD10991+9999999GF100991999999999999999999MA1102405099535REMMET10101/04/22 19:56:01 METAR KRUT 050056Z 13008KT 10SM CLR M06/M07 A3024 RMK AO2 SLP251 T10611067 FZRANO $
0185725165947372022010501567+43533-072950FM-15+0240KRUT V0201305N004152200059N0160935N5-00675-00725102425ADDGA1005+999999999GD10991+9999999GF100991999999999999999999MA1102345099465REMMET10101/04/22 20:56:01 METAR KRUT 050156Z 13008KT 10SM CLR M07/M07 A3022 RMK AO2 SLP242 T10671072 FZRANO $
0205725165947372022010502567+43533-072950FM-15+0240KRUT V0201205N004152200059N0160935N5-00675-00785102335ADDGA1005+999999999GD10991+9999999GF100991999999999999999999MA1102245099365MD1890149+9999REMMET10701/04/22 21:56:01 METAR KRUT 050256Z 12008KT 10SM CLR M07/M08 A3019 RMK AO2 SLP233 T10671078 58014 FZRANO $
0185725165947372022010503567+43533-072950FM-15+0240KRUT V0201005N003152200059N0160935N5-00725-00835102285ADDGA1005+999999999GD10991+9999999GF100991999999999999999999MA1102205099335REMMET10101/04/22 22:56:02 METAR KRUT 050356Z 10006KT 10SM CLR M07/M08 A3018 RMK AO2 SLP228 T10721083 FZRANO $
0228725165947372022010504567+43533-072950FM-15+0240KRUT V0201305N005152200059N0160935N5-00725-00785102125ADDGA1005+999999999GD10991+9999999GF100991999999999999999999KA1240M-00331KA2240N-01721MA1102035099165REMMET11801/04/22 23:56:02 METAR KRUT 050456Z 13010KT 10SM CLR M07/M08 A3013 RMK AO2 PRESFR SLP212 T10721078 410331172 FZRANO $
0434725165947372022010504596+43533-072950SOD  +0240KRUT V020999999999999999999999999999+99999+99999999999ADDAA124000095KA1240M-00325KA2240N-01715MG1099609999994OE11249999999999997OE22240040212099996OE33240015699999995REMSOD29424 HR PRECIPITATION (IN): 0.00 24 HR MAX TEMP (F): 2624 HR MIN TEMP (F):  1AVERAGE STATION PRESSURE(D):29.414  FASTEST 2MIN SPEED (MPH):  9FASTEST 2MIN DIR (DEG):120 FASTEST 2MIN TIME (LST):     AVERAGE WIND SPEED (MPH): 3.5 24 HR AVG TEMP (F): 14HEATING DEGREE DAYS: 51 COOLING DEGREE DAYS:  0EQDR01     97SOE079
0243725165947372022010505567+43533-072950FM-15+0240KRUT V0201605N002652200059N0160935N5-00725-00785102055ADDGA1005+999999999GD10991+9999999GF100991999999999999999999KA1060M-00561KA2060N-00781MA1101965099105MD1890279+9999REMMET11901/05/22 00:56:02 METAR KRUT 050556Z 16005KT 10SM CLR M07/M08 A3011 RMK AO2 SLP205 T10721078 11056 21078 58027 FZRANO $
0185725165947372022010506567+43533-072950FM-15+0240KRUT V0201405N003152200059N0160935N5-00675-00785101925ADDGA1005+999999999GD10991+9999999GF100991999999999999999999MA1101865099005REMMET10101/05/22 01:56:02 METAR KRUT 050656Z 14006KT 10SM CLR M07/M08 A3008 RMK AO2 SLP192 T10671078 FZRANO $
0185725165947372022010507567+43533-072950FM-15+0240KRUT V0201405N001552200059N0160935N5-00725-00785101885ADDGA1005+999999999GD10991+9999999GF100991999999999999999999MA1101795098935REMMET10101/05/22 02:56:02 METAR KRUT 050756Z 14003KT 10SM CLR M07/M08 A3006 RMK AO2 SLP188 T10721078 FZRANO $
0204725165947372022010508567+43533-072950FM-15+0240KRUT V0202605N001552200059N0144845N5-00725-00835101755ADDGA1005+999999999GD10991+9999999GF100991999999999999999999MA1101665098805MD1790299+9999REMMET10601/05/22 03:56:02 METAR KRUT 050856Z 26003KT 9SM CLR M07/M08 A3002 RMK AO2 SLP175 T10721083 57029 FZRANO $
0185725165947372022010509567+43533-072950FM-15+0240KRUT V0201305N004652200059N0160935N5-00505-00725101535ADDGA1005+999999999GD10991+9999999GF100991999999999999999999MA1101495098635REMMET10101/05/22 04:56:02 METAR KRUT 050956Z 13009KT 10SM CLR M05/M07 A2997 RMK AO2 SLP153 T10501072 FZRANO $
0185725165947372022010510567+43533-072950FM-15+0240KRUT V0201305N005152200059N0160935N5-00395-00785101435ADDGA1005+999999999GD10991+9999999GF100991999999999999999999MA1101395098545REMMET10101/05/22 05:56:02 METAR KRUT 051056Z 13010KT 10SM CLR M04/M08 A2994 RMK AO2 SLP143 T10391078 FZRANO $
0243725165947372022010511567+43533-072950FM-15+0240KRUT V0201105N006252200059N0160935N5-00395-00835101385ADDGA1005+999999999GD10991+9999999GF100991999999999999999999KA1060M-00391KA2060N-00781MA1101325098475MD1690369+9999REMMET11901/05/22 06:56:02 METAR KRUT 051156Z 11012KT 10SM CLR M04/M08 A2992 RMK AO2 SLP138 T10391083 11039 21078 56036 FZRANO $
0185725165947372022010512567+43533-072950FM-15+0240KRUT V0201205N004652200059N0160935N5-00395-00785101355ADDGA1005+999999999GD10991+9999999GF100991999999999999999999MA1101295098445REMMET10101/05/22 07:56:02 METAR KRUT 051256Z 12009KT 10SM CLR M04/M08 A2991 RMK AO2 SLP135 T10391078 FZRANO $
0210725165947372022010513567+43533-072950FM-15+0240KRUT V0201405N00365015245MN0160935N5-00115-00505101205ADDGA1075+015245999GD13991+0152459GE19AGL   +99999+99999GF199999999999015241999999MA1101155098305REMMET10401/05/22 08:56:02 METAR KRUT 051356Z 14007KT 10SM BKN050 M01/M05 A2987 RMK AO2 SLP120 T10111050 FZRANO $
0204725165947372022010514567+43533-072950FM-15+0240KRUT V0201705N003652200059N0160935N5+00115-00335101155ADDGA1005+999999999GD10991+9999999GF100991999999999999999999MA1101125098275MD1890209+9999REMMET10601/05/22 09:56:02 METAR KRUT 051456Z 17007KT 10SM CLR 01/M03 A2986 RMK AO2 SLP115 T00111033 58020 FZRANO $
0177725165947372022010515567+43533-072950FM-15+0240KRUT V0201505N003152200059N0160935N5+00335-00065100925ADDGA1005+999999999GD10991+9999999GF100991999999999999999999MA1100915098075REMMET09301/05/22 10:56:02 METAR KRUT 051556Z 15006KT 10SM CLR 03/M01 A2980 RMK AO2 SLP092 T00331006 $
0176725165947372022010516567+43533-072950FM-15+0240KRUT V0201405N004152200059N0160935N5+00505+00065100745ADDGA1005+999999999GD10991+9999999GF100991999999999999999999MA1100715097875REMMET09201/05/22 11:56:02 METAR KRUT 051656Z 14008KT 10SM CLR 05/01 A2974 RMK AO2 SLP074 T00500006 $
0278725165947372022010517567+43533-072950FM-15+0240KRUT V0202605N002152200059N0160935N5+00505+00065100755ADDGA1025+011285999GD11991+0112859GE19AGL   +99999+99999GF102995999999011281999999KA1060M+00561KA2060N-00391MA1100715097875MD1590399+9999REMMET11301/05/22 12:56:02 METAR KRUT 051756Z 26004KT 10SM FEW037 05/01 A2974 RMK AO2 SLP075 T00500006 10056 21039 55039 $EQDD01      0ADE726
0176725165947372022010518567+43533-072950FM-15+0240KRUT V0209999C000052200059N0160935N5+00565+00065100655ADDGA1005+999999999GD10991+9999999GF100991999999999999999999MA1100615097775REMMET09201/05/22 13:56:02 METAR KRUT 051856Z 00000KT 10SM CLR 06/01 A2971 RMK AO2 SLP065 T00560006 $
0176725165947372022010519567+43533-072950FM-15+0240KRUT V0209999C000052200059N0160935N5+00445+00175100595ADDGA1005+999999999GD10991+9999999GF100991999999999999999999MA1100545097715REMMET09201/05/22 14:56:02 METAR KRUT 051956Z 00000KT 10SM CLR 04/02 A2969 RMK AO2 SLP059 T00440017 $
0196725165947372022010520567+43533-072950FM-15+0240KRUT V0209999C000052200059N0160935N5+00335+00175100525ADDGA1005+999999999GD10991+9999999GF100991999999999999999999MA1100515097675MD1690219+9999REMMET09801/05/22 15:56:02 METAR KRUT 052056Z 00000KT 10SM CLR 03/02 A2968 RMK AO2 SLP052 T00330017 56021 $
0183725165947372022010521567+43533-072950FM-15+0240KRUT V0200705N001552200059N0160935N5+00065+00065100535ADDGA1005+999999999GD10991+9999999GF100991999999999999999999MA1100515097675REMMET09901/05/22 16:56:02 METAR KRUT 052156Z 07003KT 10SM CLR 01/01 A2968 RMK AO2 SLP053 T00060006 FZRANO $
0185725165947372022010522567+43533-072950FM-15+0240KRUT V0201305N002152200059N0160935N5-00115-00115100505ADDGA1005+999999999GD10991+9999999GF100991999999999999999999MA1100475097645REMMET10101/05/22 17:56:02 METAR KRUT 052256Z 13004KT 10SM CLR M01/M01 A2967 RMK AO2 SLP050 T10111011 FZRANO $
0243725165947372022010523567+43533-072950FM-15+0240KRUT V0201205N002152200059N0160935N5-00065-00065100485ADDGA1005+999999999GD10991+9999999GF100991999999999999999999KA1060M+00561KA2060N-00111MA1100445097615MD1890049+9999REMMET11901/05/22 18:56:02 METAR KRUT 052356Z 12004KT 10SM CLR M01/M01 A2966 RMK AO2 SLP048 T10061006 10056 21011 58004 FZRANO $
0210725165947372022010600567+43533-072950FM-15+0240KRUT V0201205N00365016765MN0160935N5-00065-00065100445ADDGA1075+016765999GD13991+0167659GE19AGL   +99999+99999GF199999999999016761999999MA1100415097585REMMET10401/05/22 19:56:01 METAR KRUT 060056Z 12007KT 10SM BKN055 M01/M01 A2965 RMK AO2 SLP044 T10061006 FZRANO $
0183725165947372022010601567+43533-072950FM-15+0240KRUT V0201305N003152200059N0160935N5+00065+00065100345ADDGA1005+999999999GD10991+9999999GF100991999999999999999999MA1100305097485REMMET09901/05/22 20:56:01 METAR KRUT 060156Z 13006KT 10SM CLR 01/01 A2962 RMK AO2 SLP034 T00060006 FZRANO $
0203725165947372022010602567+43533-072950FM-15+0240KRUT V0209999V002652200059N0160935N5+00175+00005100295ADDGA1005+999999999GD10991+9999999GF100991999999999999999999MA1100275097445MD1690179+9999REMMET10501/05/22 21:56:01 METAR KRUT 060256Z VRB05KT 10SM CLR 02/00 A2961 RMK AO2 SLP029 T00170000 56017 FZRANO $
0228725165947372022010603567+43533-072950FM-15+0240KRUT V0201105N002152200059N0160935N5+00115-00065100255ADDGA1045+018295999GD12991+0182959GE19AGL   +99999+99999GF104995999999018291999999MA1100245097415REMMET10301/05/22 22:56:01 METAR KRUT 060356Z 11004KT 10SM SCT060 01/M01 A2960 RMK AO2 SLP025 T00111006 FZRANO $EQDD01      0ADE726
0221725165947372022010604567+43533-072950FM-15+0240KRUT V0201105N001552200059N0160935N5-00065-00175100215ADDGA1005+999999999GD10991+9999999GF100991999999999999999999KA1240M+00561KA2240N-00781MA1100205097385REMMET11101/05/22 23:56:02 METAR KRUT 060456Z 11003KT 10SM CLR M01/M02 A2959 RMK AO2 SLP021 T10061017 400561078 FZRANO $
0415725165947372022010604596+43533-072950SOD  +0240KRUT V020999999999999999999999999999+99999+99999999999ADDAA124000095KA1240M+00565KA2240N-00775MG1098079999994OE11249999999999997OE22240062611099995OE33240028299999995REMSOD29424 HR PRECIPITATION (IN): 0.00 24 HR MAX TEMP (F): 4224 HR MIN TEMP (F): 18AVERAGE STATION PRESSURE(D):28.960  FASTEST 2MIN SPEED (MPH): 14FASTEST 2MIN DIR (DEG):110 FASTEST 2MIN TIME (LST):     AVERAGE WIND SPEED (MPH): 6.3 24 HR AVG TEMP (F): 30HEATING DEGREE DAYS: 35 COOLING DEGREE DAYS:  0
0287725165947372022010605567+43533-072950FM-15+0240KRUT V0201305N002652200059N0160935N5-00115-00175100225ADDGA1025+036585999GD11991+0365859GE19AGL   +99999+99999GF102995999999036581999999KA1060M+00171KA2060N-00111MA1100205097385MD1590079+9999REMMET12201/06/22 00:56:02 METAR KRUT 060556Z 13005KT 10SM FEW120 M01/M02 A2959 RMK AO2 SLP022 T10111017 10017 21011 55007 FZRANO $EQDD01      0ADE726
0202725165947372022010606567+43533-072950FM-15+0240KRUT V0202405N00315033535MN0160935N5+00285-00115100255ADDGA1075+033535999GD13991+0335359GE19AGL   +99999+99999GF199999999999033531999999MA1100245097415REMMET09601/06/22 01:56:02 METAR KRUT 060656Z 24006KT 10SM BKN110 03/M01 A2960 RMK AO2 SLP025 T00281011 $
0209725165947372022010607567+43533-072950FM-15+0240KRUT V0202605N00265030485MN0160935N5+00175-00175100235ADDGA1075+030485999GD13991+0304859GE19AGL   +99999+99999GF199999999999030481999999MA1100245097415REMMET10301/06/22 02:56:02 METAR KRUT 060756Z 26005KT 10SM BKN100 02/M02 A2960 RMK AO2 SLP023 T00171017 FZRANO $
0372725165947372022010608447+43533-072950FM-15+0240KRUT V0202405N00515007325MN0040235V5+00105-00105999999ADDAA101000021AU110030015AU200001015AW1105AW2715GA1045+004275999GA2075+007325999GA3085+010065999GD12991+0042759GD23991+0073259GD34991+0100659GE19AGL   +99999+99999GF199999999999004271999999MA1100345097515MW1715OC101035REMMET14501/06/22 03:44:02 METAR KRUT 060844Z 24010G20KT 2 1/2SM -SN BR SCT014 BKN024 OVC033 01/M01 A2963 RMK AO2 VIS 2 1/2V4 RAB24E43SNB43 P0000 FZRANO $
0391725165947372022010608567+43533-072950FM-15+0240KRUT V0202405V00625004575MN0064375N5+00065-00175100385ADDAA101000021AA203000021AU110030015AU200001015AW1105AW2715GA1075+004575999GA2085+006405999GD13991+0045759GD24991+0064059GE19AGL   +99999+99999GF199999999999004571999999MA1100375097545MD1390169+9999MW1715OC101135REMMET15101/06/22 03:56:02 METAR KRUT 060856Z 24012G22KT 4SM -SN BR BKN015 OVC021 01/M02 A2964 RMK AO2 RAB24E43SNB43 SLP038 P0000 60000 T00061017 53016 FZRANO $EQDQ01  00008PRCP03
0320725165947372022010609137+43533-072950FM-15+0240KRUT V0201905N00265003965MN0040235V5+00005-00105999999ADDAA101000021AU110030015AU200001015AW1105AW2715GA1075+003965999GA2085+006405999GD13991+0039659GD24991+0064059GE19AGL   +99999+99999GF199999999999003961999999MA1100375097545MW1715OC100885REMMET12401/06/22 04:13:02 METAR KRUT 060913Z 19005G17KT 2 1/2SM -SN BR BKN013 OVC021 00/M01 A2964 RMK AO2 VIS 1 1/2V3 P0000 FZRANO $
0331725165947372022010609217+43533-072950FM-15+0240KRUT V0209999V00215005185MN0048285N5+00005-00205999999ADDAA101000021AU110030015AU200001015AW1105AW2715GA1025+001225999GA2075+005185999GA3085+015245999GD11991+0012259GD23991+0051859GD34991+0152459GE19AGL   +99999+99999GF199999999999001221999999MA1100375097545MW1715REMMET11201/06/22 04:21:02 METAR KRUT 060921Z VRB04KT 3SM -SN BR FEW004 BKN017 OVC050 00/M02 A2964 RMK AO2 P0000 FZRANO $
0312725165947372022010609347+43533-072950FM-15+0240KRUT V0209999V00265016765MN0144845N5-00105-00205999999ADDAA101000021AU110030015AW1715GA1025+001525999GA2045+004885999GA3075+016765999GD11991+0015259GD22991+0048859GD33991+0167659GE19AGL   +99999+99999GF199999999999001521999999MA1100375097545MW1715REMMET11001/06/22 04:34:02 METAR KRUT 060934Z VRB05KT 9SM -SN FEW005 SCT016 BKN055 M01/M02 A2964 RMK AO2 P0000 FZRANO $
0252725165947372022010609567+43533-072950FM-15+0240KRUT V0202005N001552200059N0160935N5-00175-00225100435ADDAA101000021GA1025+019815999GD11991+0198159GE19AGL   +99999+99999GF102995999999019811999999MA1100415097585REMMET11601/06/22 04:56:02 METAR KRUT 060956Z 20003KT 10SM FEW065 M02/M02 A2965 RMK AO2 SNE36 SLP043 P0000 T10171022 FZRANO $EQDD01      0ADE726
0259725165947372022010610567+43533-072950FM-15+0240KRUT V0202305N00625010065MN0160935N5-00065-00445100535ADDGA1075+010065999GA2075+013415999GD13991+0100659GD23991+0134159GE19AGL   +99999+99999GF199999999999010061999999MA1100515097675OC101035REMMET11401/06/22 05:56:02 METAR KRUT 061056Z 23012G20KT 10SM BKN033 BKN044 M01/M04 A2968 RMK AO2 SLP053 T10061044 FZRANO $
0431725165947372022010611567+43533-072950FM-15+0240KRUT V0202605N00625015245MN0160935N5-00115-00675100675ADDAA101000021AA206000021GA1045+009755999GA2045+012805999GA3085+015245999GD12991+0097559GD22991+0128059GD34991+0152459GE19AGL   +99999+99999GF199999999999009751999999KA1060M+00331KA2060N-00171MA1100645097815MD1390259+9999OC100825REMMET17401/06/22 06:56:02 METAR KRUT 061156Z 26012G16KT 10SM SCT032 SCT042 OVC050 M01/M07 A2972 RMK AO2 UPB22E25B43E46SNB25E43 SLP067 P0000 60000 T10111067 10033 21017 53025 FZRANO $EQDQ01  00008PRCP06
0259725165947372022010612567+43533-072950FM-15+0240KRUT V0202905N00465014945MN0144845N5-00115-00835100725ADDAA101000021AU110030015AW1715GA1085+014945999GD14991+0149459GE19AGL   +99999+99999GF199999999999014941999999MA1100685097845MW1715REMMET11901/06/22 07:56:02 METAR KRUT 061256Z 29009KT 9SM -SN OVC049 M01/M08 A2973 RMK AO2 SNB41 SLP072 P0000 T10111083 FZRANO $
0273725165947372022010613567+43533-072950FM-15+0240KRUT V0202605N00625013415MN0144845N5-00175-00725100845ADDAA101000021AU110030015AW1715GA1085+013415999GD14991+0134159GE19AGL   +99999+99999GF199999999999013411999999MA1100815097975MW1715OC100885REMMET12501/06/22 08:56:02 METAR KRUT 061356Z 26012G17KT 9SM -SN OVC044 M02/M07 A2977 RMK AO2 SNE03B49 SLP084 P0000 T10171072 FZRANO $
0358725165947372022010614567+43533-072950FM-15+0240KRUT V0202505N00625014025MN0144845N5-00175-00675100935ADDAA101000021AA203000021AU110030015AW1715GA1045+010675999GA2085+014025999GD12991+0106759GD24991+0140259GE19AGL   +99999+99999GF199999999999010671999999MA1100885098045MD1390269+9999MW1715OC100935REMMET13501/06/22 09:56:02 METAR KRUT 061456Z 25012G18KT 9SM -SN SCT035 OVC046 M02/M07 A2979 RMK AO2 SLP093 P0000 60000 T10171067 53026 FZRANO $EQDQ01  00008PRCP03
0239725165947372022010615567+43533-072950FM-15+0240KRUT V0202505N005152200059N0144845N5-00115-00675100915ADDAA101000021AU110030015AW1715GA1005+999999999GD10991+9999999GF100991999999999999999999MA1100885098045MW1715OC101135REMMET11301/06/22 10:56:02 METAR KRUT 061556Z 25010G22KT 9SM -SN CLR M01/M07 A2979 RMK AO2 SLP091 P0000 T10111067 FZRANO $
0288725165947372022010616567+43533-072950FM-15+0240KRUT V0202505N00675009755MN0160935N5-00065-00675100975ADDAA101000021GA1075+009755999GA2085+016765999GD13991+0097559GD24991+0167659GE19AGL   +99999+99999GF199999999999009751999999MA1100915098075OC100885REMMET13201/06/22 11:56:02 METAR KRUT 061656Z 25013G17KT 10SM BKN032 OVC055 M01/M07 A2980 RMK AO2 SNE19B37E49 SLP097 P0000 T10061067 FZRANO $
0391725165947372022010617567+43533-072950FM-15+0240KRUT V0202605N00515010975MN0160935N5-00115-00725101025ADDAA106000021GA1075+010975999GA2075+013415999GA3085+019815999GD13991+0109759GD23991+0134159GD34991+0198159GE19AGL   +99999+99999GF199999999999010971999999KA1060M+00001KA2060N-00171MA1100985098145MD1390089+9999OC100775REMMET14501/06/22 12:56:02 METAR KRUT 061756Z 26010G15KT 10SM BKN036 BKN044 OVC065 M01/M07 A2982 RMK AO2 SLP102 60000 T10111072 10000 21017 53008 FZRANO $EQDQ01  00008PRCP06
0308725165947372022010618567+43533-072950FM-15+0240KRUT V0202305N00625010365MN0144845N5-00175-00675101075ADDAA101000021AU110030015AW1715GA1075+010365999GA2085+013115999GD13991+0103659GD24991+0131159GE19AGL   +99999+99999GF199999999999010361999999MA1101055098205MW1715OC100885REMMET12901/06/22 13:56:02 METAR KRUT 061856Z 23012G17KT 9SM -SN BKN034 OVC043 M02/M07 A2984 RMK AO2 SNB15 SLP107 P0000 T10171067 FZRANO $
0291725165947372022010619567+43533-072950FM-15+0240KRUT V0202105N00315009755MN0144845N5-00175-00675101185ADDAA101000021AU110030015AW1715GA1075+009755999GA2085+013115999GD13991+0097559GD24991+0131159GE19AGL   +99999+99999GF199999999999009751999999MA1101155098305MW1715REMMET12001/06/22 14:56:02 METAR KRUT 061956Z 21006KT 9SM -SN BKN032 OVC043 M02/M07 A2987 RMK AO2 SLP118 P0000 T10171067 FZRANO $
0291725165947372022010620567+43533-072950FM-15+0240KRUT V0209999V00215012805MN0160935N5-00115-00785101125ADDAA101000021AA203000021GA1085+012805999GD14991+0128059GE19AGL   +99999+99999GF199999999999012801999999MA1101085098245MD1090109+9999REMMET13001/06/22 15:56:02 METAR KRUT 062056Z VRB04KT 10SM OVC042 M01/M08 A2985 RMK AO2 SNE1959 SLP112 P0000 60000 T10111078 50010 FZRANO $EQDQ01  00008PRCP03
0229725165947372022010621567+43533-072950FM-15+0240KRUT V0202405N002652200059N0160935N5-00225-00835101165ADDGA1045+012805999GD12991+0128059GE19AGL   +99999+99999GF104995999999012801999999MA1101155098305REMMET10401/06/22 16:56:02 METAR KRUT 062156Z 24005KT 10SM SCT042 M02/M08 A2987 RMK AO2 SLP116 T10221083 FZRANO $EQDD01      0ADE726
0185725165947372022010622567+43533-072950FM-15+0240KRUT V0202305N003652200059N0160935N5-00285-00785101285ADDGA1005+999999999GD10991+9999999GF100991999999999999999999MA1101255098405REMMET10101/06/22 17:56:02 METAR KRUT 062256Z 23007KT 10SM CLR M03/M08 A2990 RMK AO2 SLP128 T10281078 FZRANO $
0279725165947372022010623567+43533-072950FM-15+0240KRUT V0202405N004152200059N0160935N5-00285-00835101275ADDAA106000021GA1005+999999999GD10991+9999999GF100991999999999999999999KA1060M-00111KA2060N-00281MA1101255098405MD1090159+9999REMMET12501/06/22 18:56:02 METAR KRUT 062356Z 24008KT 10SM CLR M03/M08 A2990 RMK AO2 SLP127 60000 T10281083 11011 21028 50015 FZRANO $EQDQ01  00008PRCP06
0185725165947372022010700567+43533-072950FM-15+0240KRUT V0209999C000052200059N0160935N5-00335-00835101305ADDGA1005+999999999GD10991+9999999GF100991999999999999999999MA1101255098405REMMET10101/06/22 19:56:01 METAR KRUT 070056Z 00000KT 10SM CLR M03/M08 A2990 RMK AO2 SLP130 T10331083 FZRANO $
0229725165947372022010701567+43533-072950FM-15+0240KRUT V0201905N001552200059N0160935N5-00395-00835101325ADDGA1025+036585999GD11991+0365859GE19AGL   +99999+99999GF102995999999036581999999MA1101295098445REMMET10401/06/22 20:56:01 METAR KRUT 070156Z 19003KT 10SM FEW120 M04/M08 A2991 RMK AO2 SLP132 T10391083 FZRANO $EQDD01      0ADE726
0249725165947372022010702567+43533-072950FM-15+0240KRUT V0202505N001552200059N0160935N5-00395-00785101315ADDGA1045+036585999GD12991+0365859GE19AGL   +99999+99999GF104995999999036581999999MA1101255098405MD1090029+9999REMMET11001/06/22 21:56:01 METAR KRUT 070256Z 25003KT 10SM SCT120 M04/M08 A2990 RMK AO2 SLP131 T10391078 50002 FZRANO $EQDD01      0ADE726
0210725165947372022010703567+43533-072950FM-15+0240KRUT V0202505N00215030485MN0160935N5-00445-00725101235ADDGA1085+030485999GD14991+0304859GE19AGL   +99999+99999GF199999999999030481999999MA1101195098345REMMET10401/06/22 22:56:02 METAR KRUT 070356Z 25004KT 10SM OVC100 M04/M07 A2988 RMK AO2 SLP123 T10441072 FZRANO $
0246725165947372022010704567+43533-072950FM-15+0240KRUT V0201305N00155025915MN0160935N5-00395-00725101275ADDGA1085+025915999GD14991+0259159GE19AGL   +99999+99999GF199999999999025911999999KA1240M+00331KA2240N-00441MA1101225098375REMMET11401/06/22 23:56:02 METAR KRUT 070456Z 13003KT 10SM OVC085 M04/M07 A2989 RMK AO2 SLP127 T10391072 400331044 FZRANO $
0541725165947372022010704596+43533-072950SOD  +0240KRUT V020999999999999999999999999999+99999+99999999999ADDAA124000025AT1AU18SN  5AT2AU13BR  5AX1015245KA1240M+00335KA2240N-00435MG1097969999994OE11240111824099995OE22240067125099995OE33240037699999995REMSOD38724 HR PRECIPITATION (IN):    T WEATHER(CODE):1  24 HR MAX TEMP (F): 3824 HR MIN TEMP (F): 24AVERAGE STATION PRESSURE(D):28.928 PEAK WIND SPEED (MPH): 25 PEAK WIND DIR (DEG):240 PEAK WIND TIME (LST):      FASTEST 2MIN SPEED (MPH): 15FASTEST 2MIN DIR (DEG):250 FASTEST 2MIN TIME (LST):     AVERAGE WIND SPEED (MPH): 8.4 24 HR AVG TEMP (F): 31HEATING DEGREE DAYS: 34 COOLING DEGREE DAYS:  0
0344725165947372022010705567+43533-072950FM-15+0240KRUT V0209999C00005013415MN0160935N5-00395-00725101255ADDGA1045+009755999GA2075+013415999GA3085+016765999GD12991+0097559GD23991+0134159GD34991+0167659GE19AGL   +99999+99999GF199999999999009751999999KA1060M-00281KA2060N-00441MA1101225098375MD1690059+9999REMMET13601/07/22 00:56:02 METAR KRUT 070556Z 00000KT 10SM SCT032 BKN044 OVC055 M04/M07 A2989 RMK AO2 SLP125 T10391072 11028 21044 56005 FZRANO $
0282725165947372022010706167+43533-072950FM-15+0240KRUT V0202505N00155007625MN0064375N5-00405-00705999999ADDAA101000021AU110030015AW1715GA1075+007625999GA2085+010065999GD13991+0076259GD24991+0100659GE19AGL   +99999+99999GF199999999999007621999999MA1101225098375MW1715REMMET11101/07/22 01:16:02 METAR KRUT 070616Z 25003KT 4SM -SN BKN025 OVC033 M04/M07 A2989 RMK AO2 SNB0558 P0000 FZRANO $
0319725165947372022010706567+43533-072950FM-15+0240KRUT V0209999C00005012805MN0096565N5-00445-00675101205ADDAA101000021AU110030015AU200001015AW1105AW2715GA1025+007625999GA2085+012805999GD11991+0076259GD24991+0128059GE19AGL   +99999+99999GF199999999999007621999999MA1101155098305MW1715REMMET13101/07/22 01:56:02 METAR KRUT 070656Z 00000KT 6SM -SN BR FEW025 OVC042 M04/M07 A2987 RMK AO2 SNB0558 SLP120 P0000 T10441067 FZRANO $
0271725165947372022010707567+43533-072950FM-15+0240KRUT V0209999C00005021345MN0160935N5-00505-00725101135ADDAA101000021GA1075+021345999GA2085+027435999GD13991+0213459GD24991+0274359GE19AGL   +99999+99999GF199999999999021341999999MA1101085098245REMMET12301/07/22 02:56:02 METAR KRUT 070756Z 00000KT 10SM BKN070 OVC090 M05/M07 A2985 RMK AO2 SNE29 SLP113 P0000 T10501072 FZRANO $
0335725165947372022010708567+43533-072950FM-15+0240KRUT V0209999C00005013415MN0096565N5-00505-00725101015ADDAA101000021AA203000021AU110030015AU200001015AW1105AW2715GA1085+013415999GD14991+0134159GE19AGL   +99999+99999GF199999999999013411999999MA1100985098145MD1890189+9999MW1715REMMET13401/07/22 03:56:02 METAR KRUT 070856Z 00000KT 6SM -SN BR OVC044 M05/M07 A2982 RMK AO2 SNB31 SLP101 P0000 60000 T10501072 58018 FZRANO $EQDQ01  00008PRCP03
0298725165947372022010709547+43533-072950FM-15+0240KRUT V0209999C00005008535MN0040235N5-00505-00705999999ADDAA101000021AU110030015AU200001015AW1105AW2715GA1075+008535999GA2085+010065999GD13991+0085359GD24991+0100659GE19AGL   +99999+99999GF199999999999008531999999MA1100855098015MW1715REMMET11001/07/22 04:54:02 METAR KRUT 070954Z 00000KT 2 1/2SM -SN BR BKN028 OVC033 M05/M07 A2978 RMK AO2 P0000 FZRANO $
0315725165947372022010709567+43533-072950FM-15+0240KRUT V0203405N00155007925MN0040235N5-00505-00675100905ADDAA101000021AU110030015AU200001015AW1105AW2715GA1075+007925999GA2085+010065999GD13991+0079259GD24991+0100659GE19AGL   +99999+99999GF199999999999007921999999MA1100855098015MW1715REMMET12701/07/22 04:56:02 METAR KRUT 070956Z 34003KT 2 1/2SM -SN BR BKN026 OVC033 M05/M07 A2978 RMK AO2 SLP090 P0000 T10501067 FZRANO $
0260725165947372022010710507+43533-072950FM-15+0240KRUT V0203405N00265006405MN0028165N5-00505-00605999999ADDAA101000021AU110030015AU200001015AW1105AW2715GA1085+006405999GD14991+0064059GE19AGL   +99999+99999GF199999999999006401999999MA1100785097945MW1715REMMET10301/07/22 05:50:02 METAR KRUT 071050Z 34005KT 1 3/4SM -SN BR OVC021 M05/M06 A2976 RMK AO2 P0000 FZRANO $
0277725165947372022010710567+43533-072950FM-15+0240KRUT V0203505N00265006405MN0028165N5-00505-00615100815ADDAA101000021AU110030015AU200001015AW1105AW2715GA1085+006405999GD14991+0064059GE19AGL   +99999+99999GF199999999999006401999999MA1100755097915MW1715REMMET12001/07/22 05:56:02 METAR KRUT 071056Z 35005KT 1 3/4SM -SN BR OVC021 M05/M06 A2975 RMK AO2 SLP081 P0000 T10501061 FZRANO $
0294725165947372022010711247+43533-072950FM-15+0240KRUT V0203305N00215006405MN0032195N5-00505-00605999999ADDAA101000021AU110030015AU200001015AW1105AW2715GA1025+002745999GA2085+006405999GD11991+0027459GD24991+0064059GE19AGL   +99999+99999GF199999999999002741999999MA1100785097945MW1715REMMET10601/07/22 06:24:02 METAR KRUT 071124Z 33004KT 2SM -SN BR FEW009 OVC021 M05/M06 A2976 RMK AO2 P0000 FZRANO $
0336725165947372022010711527+43533-072950FM-15+0240KRUT V0209999C00005005795MN0028165N5-00505-00605999999ADDAA101000021AU110030015AU200001015AW1105AW2715GA1025+002745999GA2045+003665999GA3085+005795999GD11991+0027459GD22991+0036659GD34991+0057959GE19AGL   +99999+99999GF199999999999002741999999MA1100815097975MW1715REMMET11701/07/22 06:52:02 METAR KRUT 071152Z 00000KT 1 3/4SM -SN BR FEW009 SCT012 OVC019 M05/M06 A2977 RMK AO2 P0000 FZRANO $
0434725165947372022010711567+43533-072950FM-15+0240KRUT V0203205N00155005795MN0028165N5-00505-00615100865ADDAA101000021AA206000021AU110030015AU200001015AW1105AW2715GA1045+002745999GA2045+003665999GA3085+005795999GD12991+0027459GD22991+0036659GD34991+0057959GE19AGL   +99999+99999GF199999999999002741999999KA1060M-00391MA1100815097975MD1090059+9999MW1715REMMET15801/07/22 06:56:02 METAR KRUT 071156Z 32003KT 1 3/4SM -SN BR SCT009 SCT012 OVC019 M05/M06 A2977 RMK AO2 SLP086 P0000 60000 T10501061 11039 21050 50005 FZRANO $EQDQ01  00008PRCP06
0332725165947372022010712007+43533-072950FM-15+0240KRUT V0203205N00155003665MN0032195N5-00505-00605999999ADDAA101000021AU110030015AU200001015AW1105AW2715GA1045+002745999GA2075+003665999GA3085+005795999GD12991+0027459GD23991+0036659GD34991+0057959GE19AGL   +99999+99999GF199999999999002741999999MA1100855098015MW1715REMMET11301/07/22 07:00:02 METAR KRUT 071200Z 32003KT 2SM -SN BR SCT009 BKN012 OVC019 M05/M06 A2978 RMK AO2 P0000 FZRANO $
0336725165947372022010712197+43533-072950FM-15+0240KRUT V0203405N00265004575MN0028165N5-00505-00605999999ADDAA101000021AU110030015AU200001015AW1105AW2715GA1025+002135999GA2075+004575999GA3085+006405999GD11991+0021359GD23991+0045759GD34991+0064059GE19AGL   +99999+99999GF199999999999002131999999MA1100815097975MW1715REMMET11701/07/22 07:19:02 METAR KRUT 071219Z 34005KT 1 3/4SM -SN BR FEW007 BKN015 OVC021 M05/M06 A2977 RMK AO2 P0000 FZRANO $
0296725165947372022010712287+43533-072950FM-15+0240KRUT V0203405N00155004575MN0012075N5-00505-00605999999ADDAA101000021AU110030015AU200001015AW1105AW2715GA1075+004575999GA2085+006405999GD13991+0045759GD24991+0064059GE19AGL   +99999+99999GF199999999999004571999999MA1100815097975MW1715REMMET10801/07/22 07:28:02 METAR KRUT 071228Z 34003KT 3/4SM -SN BR BKN015 OVC021 M05/M06 A2977 RMK AO2 P0000 FZRANO $
0297725165947372022010712357+43533-072950FM-15+0240KRUT V0203505N00155003965MN0008055N5-00505-00605999999ADDAA101000021AU120030015AU208002015AW1355AW2725GA1075+003965999GA2085+005795999GD13991+0039659GD24991+0057959GE19AGL   +99999+99999GF199999999999003961999999MA1100815097975MW1735REMMET10901/07/22 07:35:02 METAR KRUT 071235Z 35003KT 1/2SM SN FZFG BKN013 OVC019 M05/M06 A2977 RMK AO2 P0000 FZRANO $
0258725165947372022010712537+43533-072950FM-15+0240KRUT V0203405N00155003965MN0012075N5-00505-00605999999ADDAA101000021AU110030015AU200001015AW1105AW2715GA1085+003965999GD14991+0039659GE19AGL   +99999+99999GF199999999999003961999999MA1100785097945MW1715REMMET10101/07/22 07:53:02 METAR KRUT 071253Z 34003KT 3/4SM -SN BR OVC013 M05/M06 A2976 RMK AO2 P0000 FZRANO $
0313725165947372022010712567+43533-072950FM-15+0240KRUT V0209999C00005003965MN0012075N5-00505-00565100825ADDAA101000021AU110030015AU200001015AW1105AW2715GA1025+001835999GA2085+003965999GD11991+0018359GD24991+0039659GE19AGL   +99999+99999GF199999999999001831999999MA1100785097945MW1715REMMET12501/07/22 07:56:02 METAR KRUT 071256Z 00000KT 3/4SM -SN BR FEW006 OVC013 M05/M06 A2976 RMK AO2 SLP082 P0000 T10501056 FZRANO $
0294725165947372022010713077+43533-072950FM-15+0240KRUT V0203205N00155004575MN0016095N5-00505-00605999999ADDAA101000021AU110030015AU200001015AW1105AW2715GA1045+001835999GA2085+004575999GD12991+0018359GD24991+0045759GE19AGL   +99999+99999GF199999999999001831999999MA1100755097915MW1715REMMET10601/07/22 08:07:02 METAR KRUT 071307Z 32003KT 1SM -SN BR SCT006 OVC015 M05/M06 A2975 RMK AO2 P0000 FZRANO $
0311725165947372022010713567+43533-072950FM-15+0240KRUT V0203305N00265005795MN0016095N5-00505-00565100895ADDAA101000021AU110030015AU200001015AW1105AW2715GA1025+001835999GA2085+005795999GD11991+0018359GD24991+0057959GE19AGL   +99999+99999GF199999999999001831999999MA1100855098015MW1715REMMET12301/07/22 08:56:02 METAR KRUT 071356Z 33005KT 1SM -SN BR FEW006 OVC019 M05/M06 A2978 RMK AO2 SLP089 P0000 T10501056 FZRANO $
0258725165947372022010714297+43533-072950FM-15+0240KRUT V0203205N00315003665MN0012075N5-00505-00505999999ADDAA101000021AU110030015AU200001015AW1105AW2715GA1085+003665999GD14991+0036659GE19AGL   +99999+99999GF199999999999003661999999MA1100815097975MW1715REMMET10101/07/22 09:29:02 METAR KRUT 071429Z 32006KT 3/4SM -SN BR OVC012 M05/M05 A2977 RMK AO2 P0000 FZRANO $
0331725165947372022010714567+43533-072950FM-15+0240KRUT V0203305N00415004275MN0012075N5-00445-00505100845ADDAA101000021AA203000021AU110030015AU200001015AW1105AW2715GA1085+004275999GD14991+0042759GE19AGL   +99999+99999GF199999999999004271999999MA1100785097945MD1890029+9999MW1715REMMET13001/07/22 09:56:02 METAR KRUT 071456Z 33008KT 3/4SM -SN BR OVC014 M04/M05 A2976 RMK AO2 SLP084 P0000 60000 T10441050 58002 FZRANO $EQDQ01  00008PRCP03
0256725165947372022010715067+43533-072950FM-15+0240KRUT V0203305N00365004885MN0016095N5-00405-00505999999ADDAA101000021AU110030015AU200001015AW1105AW2715GA1085+004885999GD14991+0048859GE19AGL   +99999+99999GF199999999999004881999999MA1100785097945MW1715REMMET09901/07/22 10:06:02 METAR KRUT 071506Z 33007KT 1SM -SN BR OVC016 M04/M05 A2976 RMK AO2 P0000 FZRANO $
0332725165947372022010715247+43533-072950FM-15+0240KRUT V0203205N00365004885MN0016095N5-00405-00405999999ADDAA101000021AU110030015AU200001015AW1105AW2715GA1025+002135999GA2045+003355999GA3085+004885999GD11991+0021359GD22991+0033559GD34991+0048859GE19AGL   +99999+99999GF199999999999002131999999MA1100785097945MW1715REMMET11301/07/22 10:24:02 METAR KRUT 071524Z 32007KT 1SM -SN BR FEW007 SCT011 OVC016 M04/M04 A2976 RMK AO2 P0000 FZRANO $
0348725165947372022010715447+43533-072950FM-15+0240KRUT V0203205N00365002745MN0020125N5-00405-00405999999ADDAA101000021AU110030015AU200001015AW1105AW2715GA1075+002745999GA2075+005495999GA3085+007925999GD13991+0027451GD23991+0054959GD34991+0079259GE19AGL   +99999+99999GF199999999999002741999999MA1100755097915MW1715REMMET12901/07/22 10:44:02 METAR KRUT 071544Z 32007KT 1 1/4SM -SN BR BKN009 BKN018 OVC026 M04/M04 A2975 RMK AO2 CIG 005V014 P0000 FZRANO $
0365725165947372022010715567+43533-072950FM-15+0240KRUT V0203305N00415003055MN0020125N5-00395-00445100785ADDAA101000021AU110030015AU200001015AW1105AW2715GA1075+003055999GA2075+004575999GA3085+006105999GD13991+0030551GD23991+0045759GD34991+0061059GE19AGL   +99999+99999GF199999999999003051999999MA1100755097915MW1715REMMET14601/07/22 10:56:02 METAR KRUT 071556Z 33008KT 1 1/4SM -SN BR BKN010 BKN015 OVC020 M04/M04 A2975 RMK AO2 CIG 007V012 SLP078 P0000 T10391044 FZRANO $
0318725165947372022010716307+43533-072950FM-15+0240KRUT V0203205N00415003055MN0040235V5-00305-00405999999ADDAA101000021AU110030015AU200001015AW1105AW2715GA1075+003055999GA2085+004885999GD13991+0030551GD24991+0048859GE19AGL   +99999+99999GF199999999999003051999999MA1100715097875MW1715REMMET13001/07/22 11:30:02 METAR KRUT 071630Z 32008KT 2 1/2SM -SN BR BKN010 OVC016 M03/M04 A2974 RMK AO2 VIS 2V4 CIG 006V012 P0000 FZRANO $
0343725165947372022010716337+43533-072950FM-15+0240KRUT V0203205N00625003665MN0048285N5-00305-00405999999ADDAA101000021AU110030015AU200001015AW1105AW2715GA1025+002445999GA2075+003665999GA3085+004885999GD11991+0024459GD23991+0036659GD34991+0048859GE19AGL   +99999+99999GF199999999999002441999999MA1100685097845MW1715OC100825REMMET11601/07/22 11:33:02 METAR KRUT 071633Z 32012G16KT 3SM -SN BR FEW008 BKN012 OVC016 M03/M04 A2973 RMK AO2 P0000 FZRANO $
0273725165947372022010716567+43533-072950FM-15+0240KRUT V0203305N00465004275MN0080475N5-00395-00445100725ADDAA101000021AU110030015AU200001015AW1105AW2715GA1085+004275999GD14991+0042759GE19AGL   +99999+99999GF199999999999004271999999MA1100685097845MW1715REMMET11601/07/22 11:56:02 METAR KRUT 071656Z 33009KT 5SM -SN BR OVC014 M04/M04 A2973 RMK AO2 SLP072 P0000 T10391044 FZRANO $
0271725165947372022010717167+43533-072950FM-15+0240KRUT V0203405N00675004885MN0040235N5-00305-00405999999ADDAA101000021AU110030015AU200001015AW1105AW2715GA1085+004885999GD14991+0048859GE19AGL   +99999+99999GF199999999999004881999999MA1100645097815MW1715OC100985REMMET10601/07/22 12:16:02 METAR KRUT 071716Z 34013G19KT 2 1/2SM -SN BR OVC016 M03/M04 A2972 RMK AO2 P0000 FZRANO $
0271725165947372022010717327+43533-072950FM-15+0240KRUT V0203305N00415005495MN0020125N5-00305-00405999999ADDAA101000021AU110030015AU200001015AW1105AW2715GA1085+005495999GD14991+0054959GE19AGL   +99999+99999GF199999999999005491999999MA1100645097815MW1715OC100825REMMET10601/07/22 12:32:02 METAR KRUT 071732Z 33008G16KT 1 1/4SM -SN BR OVC018 M03/M04 A2972 RMK AO2 P0000 FZRANO $
0409725165947372022010717567+43533-072950FM-15+0240KRUT V0203205N00465007925MN0024145N5-00335-00445100715ADDAA101000021AA206000021AU110030015AU200001015AW1105AW2715GA1045+005795999GA2085+007925999GD12991+0057959GD24991+0079259GE19AGL   +99999+99999GF199999999999005791999999KA1060M-00331KA2060N-00501MA1100685097845MD1690129+9999MW1715REMMET15101/07/22 12:56:02 METAR KRUT 071756Z 32009KT 1 1/2SM -SN BR SCT019 OVC026 M03/M04 A2973 RMK AO2 SLP071 P0000 60000 T10331044 11033 21050 56012 FZRANO $EQDQ01  00008PRCP06
0332725165947372022010718197+43533-072950FM-15+0240KRUT V0203305N00465004575MN0016095N5-00305-00505999999ADDAA101000021AU110030015AU200001015AW1105AW2715GA1075+004575999GA2075+006105999GA3085+007925999GD13991+0045759GD23991+0061059GD34991+0079259GE19AGL   +99999+99999GF199999999999004571999999MA1100685097845MW1715REMMET11301/07/22 13:19:02 METAR KRUT 071819Z 33009KT 1SM -SN BR BKN015 BKN020 OVC026 M03/M05 A2973 RMK AO2 P0000 FZRANO $
0311725165947372022010718567+43533-072950FM-15+0240KRUT V0203305N00365003055MN0016095N5-00335-00445100735ADDAA101000021AU110030015AU200001015AW1105AW2715GA1075+003055999GA2085+004575999GD13991+0030559GD24991+0045759GE19AGL   +99999+99999GF199999999999003051999999MA1100685097845MW1715REMMET12301/07/22 13:56:02 METAR KRUT 071856Z 33007KT 1SM -SN BR BKN010 OVC015 M03/M04 A2973 RMK AO2 SLP073 P0000 T10331044 FZRANO $
0296725165947372022010719007+43533-072950FM-15+0240KRUT V0203305N00365002445MN0012075N5-00305-00405999999ADDAA101000021AU110030015AU200001015AW1105AW2715GA1075+002445999GA2085+004575999GD13991+0024459GD24991+0045759GE19AGL   +99999+99999GF199999999999002441999999MA1100685097845MW1715REMMET10801/07/22 14:00:02 METAR KRUT 071900Z 33007KT 3/4SM -SN BR BKN008 OVC015 M03/M04 A2973 RMK AO2 P0000 FZRANO $
0294725165947372022010719137+43533-072950FM-15+0240KRUT V0203305N00415004575MN0016095N5-00305-00405999999ADDAA101000021AU110030015AU200001015AW1105AW2715GA1045+002445999GA2085+004575999GD12991+0024459GD24991+0045759GE19AGL   +99999+99999GF199999999999002441999999MA1100685097845MW1715REMMET10601/07/22 14:13:02 METAR KRUT 071913Z 33008KT 1SM -SN BR SCT008 OVC015 M03/M04 A2973 RMK AO2 P0000 FZRANO $
0294725165947372022010719267+43533-072950FM-15+0240KRUT V0203205N00415004575MN0032195N5-00405-00505999999ADDAA101000021AU110030015AU200001015AW1105AW2715GA1025+002445999GA2085+004575999GD11991+0024459GD24991+0045759GE19AGL   +99999+99999GF199999999999002441999999MA1100715097875MW1715REMMET10601/07/22 14:26:02 METAR KRUT 071926Z 32008KT 2SM -SN BR FEW008 OVC015 M04/M05 A2974 RMK AO2 P0000 FZRANO $
0324725165947372022010719357+43533-072950FM-15+0240KRUT V0203305N00315003055MN0024145V5-00405-00505999999ADDAA101000021AU110030015AU200001015AW1105AW2715GA1075+003055999GA2085+004575999GD13991+0030551GD24991+0045759GE19AGL   +99999+99999GF199999999999003051999999MA1100715097875MW1715REMMET13601/07/22 14:35:02 METAR KRUT 071935Z 33006KT 1 1/2SM -SN BR BKN010 OVC015 M04/M05 A2974 RMK AO2 VIS 3/4V2 1/2 CIG 007V013 P0000 FZRANO $
0315725165947372022010719567+43533-072950FM-15+0240KRUT V0203105N00315003665MN0024145N5-00395-00505100815ADDAA101000021AU110030015AU200001015AW1105AW2715GA1075+003665999GA2085+005185999GD13991+0036659GD24991+0051859GE19AGL   +99999+99999GF199999999999003661999999MA1100785097945MW1715REMMET12701/07/22 14:56:02 METAR KRUT 071956Z 31006KT 1 1/2SM -SN BR BKN012 OVC017 M04/M05 A2976 RMK AO2 SLP081 P0000 T10391050 FZRANO $
0308725165947372022010720067+43533-072950FM-15+0240KRUT V0203205N00415003055MN0012075N5-00405-00505999999ADDAA101000021AU110030015AU200001015AW1105AW2715GA1075+003055999GA2085+004885999GD13991+0030551GD24991+0048859GE19AGL   +99999+99999GF199999999999003051999999MA1100785097945MW1715REMMET12001/07/22 15:06:02 METAR KRUT 072006Z 32008KT 3/4SM -SN BR BKN010 OVC016 M04/M05 A2976 RMK AO2 CIG 007V012 P0000 FZRANO $
0260725165947372022010720227+43533-072950FM-15+0240KRUT V0203205N00315003055MN0020125N5-00405-00505999999ADDAA101000021AU110030015AU200001015AW1105AW2715GA1085+003055999GD14991+0030559GE19AGL   +99999+99999GF199999999999003051999999MA1100815097975MW1715REMMET10301/07/22 15:22:02 METAR KRUT 072022Z 32006KT 1 1/4SM -SN BR OVC010 M04/M05 A2977 RMK AO2 P0000 FZRANO $
0371725165947372022010720567+43533-072950FM-15+0240KRUT V0203205N00265003665MN0028165N5-00445-00505100935ADDAA101000021AA203000021AU110030015AU200001015AW1105AW2715GA1075+003665999GA2085+006405999GD13991+0036659GD24991+0064059GE19AGL   +99999+99999GF199999999999003661999999MA1100885098045MD1290139+9999MW1715REMMET13901/07/22 15:56:02 METAR KRUT 072056Z 32005KT 1 3/4SM -SN BR BKN012 OVC021 M04/M05 A2979 RMK AO2 SLP093 P0000 60000 T10441050 52013 FZRANO $EQDQ01  00008PRCP03
0294725165947372022010721147+43533-072950FM-15+0240KRUT V0203205N00265005185MN0016095N5-00405-00505999999ADDAA101000021AU110030015AU200001015AW1105AW2715GA1045+003055999GA2085+005185999GD12991+0030559GD24991+0051859GE19AGL   +99999+99999GF199999999999003051999999MA1100915098075MW1715REMMET10601/07/22 16:14:02 METAR KRUT 072114Z 32005KT 1SM -SN BR SCT010 OVC017 M04/M05 A2980 RMK AO2 P0000 FZRANO $
0308725165947372022010721207+43533-072950FM-15+0240KRUT V0203205N00265003055MN0012075N5-00405-00505999999ADDAA101000021AU110030015AU200001015AW1105AW2715GA1075+003055999GA2085+005185999GD13991+0030551GD24991+0051859GE19AGL   +99999+99999GF199999999999003051999999MA1100915098075MW1715REMMET12001/07/22 16:20:02 METAR KRUT 072120Z 32005KT 3/4SM -SN BR BKN010 OVC017 M04/M05 A2980 RMK AO2 CIG 007V013 P0000 FZRANO $
0344725165947372022010721227+43533-072950FM-15+0240KRUT V0209999V00155002445MN0016095N5-00405-00505999999ADDAA101000021AU110030015AU200001015AW1105AW2715GA1075+002445999GA2075+004575999GA3085+006405999GD13991+0024451GD23991+0045759GD34991+0064059GE19AGL   +99999+99999GF199999999999002441999999MA1100915098075MW1715REMMET12501/07/22 16:22:02 METAR KRUT 072122Z VRB03KT 1SM -SN BR BKN008 BKN015 OVC021 M04/M05 A2980 RMK AO2 CIG 007V013 P0000 FZRANO $
0350725165947372022010721267+43533-072950FM-15+0240KRUT V0203205N00415004275MN0020125V5-00405-00505999999ADDAA101000021AU110030015AU200001015AW1105AW2715GA1045+002445999GA2075+004275999GA3085+005495999GD12991+0024459GD23991+0042759GD34991+0054959GE19AGL   +99999+99999GF199999999999002441999999MA1100915098075MW1715REMMET13101/07/22 16:26:02 METAR KRUT 072126Z 32008KT 1 1/4SM -SN BR SCT008 BKN014 OVC018 M04/M05 A2980 RMK AO2 VIS 3/4V1 3/4 P0000 FZRANO $
