0145725165947372025010100564+43529-072950FM-15+024099999V0201901N004612200019N016093199+00611-00111100921ADDGF100991999999999999999999MA1100911999999OC100771REMMET084METAR KRUT 010056Z AUTO 19009G15KT 10SM CLR 06/M01 A2980 RMK AO2 SLP092 T00611011 $=
0193725165947372025010101564+43529-072950FM-15+024099999V0201601N003612200059N016093199+00561-00111100821ADDGD12991+0335319GE19AGL   +99999+99999GF104995999999033531999999MA1100811999999REMMET084METAR KRUT 010156Z AUTO 16007KT 10SM SCT110 06/M01 A2977 RMK AO2 SLP082 T00561011 $=EQDD01      0ADE726
0213725165947372025010102564+43529-072950FM-15+024099999V0209999V003112200059N016093199+00561-00111100651ADDGD11991+0335319GE19AGL   +99999+99999GF102995999999033531999999MA1100641999999MD1810281+9999REMMET090METAR KRUT 010256Z AUTO VRB06KT 10SM FEW110 06/M01 A2972 RMK AO2 SLP065 T00561011 58028 $=EQDD01      0ADE726
0174725165947372025010103564+43529-072950FM-15+024099999V0209999V003110335319N016093199+00561-00111100511ADDGD13991+0335399GE19AGL   +99999+99999GF199999999999033531999999MA1100511999999REMMET084METAR KRUT 010356Z AUTO VRB06KT 10SM BKN110 06/M01 A2968 RMK AO2 SLP051 T00561011 $=
0170725165947372025010104564+43529-072950FM-15+024099999V0201601N004112200019N016093199+00501-00111100411ADDGF100991999999999999999999KA1240M+00831KA2240N+00391MA1100411999999REMMET091METAR KRUT 010456Z AUTO 16008KT 10SM CLR 05/M01 A2965 RMK AO2 SLP041 T00501011 400830039 $=
0855725165947372025010104596+43533-072950SOD  +0240KRUT V020999999999999999999999999999+99999+99999999999ADDAA124000095KA1240M+00835KA2240N+00395MG1098024100414OE11240129620000125OE22240071523003045OE33240036299999995REMSOD73424 HR PRECIPITATION (IN): 0.00 24 HR MAX TEMP (F):47 24 HR MAX TEMP TIME (LST):1527 24 HR MIN TEMP (F):39 24 HR MIN TEMP TIME (LST):0709 AVERAGE STATION PRESSURE(D):28.946 MINIMUM SEA LEVEL PRESSURE:29.65 TIME OF OCCURRENCE:2359 PEAK WIND SPEED (MPH):29  PEAK WIND DIR (DEG):200 PEAK WIND TIME (LST):0012  FASTEST 2MIN SPEED (MPH):16 FASTEST 2MIN DIR (DEG):230 FASTEST 2MIN TIME (LST):0304 AVERAGE WIND SPEED (MPH): 8.1 24 HR AVG TEMP (F):43 HEATING DEGREE DAYS: 22 COOLING DEGREE DAYS:  0 LATEST DAY MAX TEMP (0700-1900 LST): 47 LATEST NIGHT MIN TEMP(1900-0800 LST):39 HOURLY INCREMENTAL PRECIPITATION VALUES (IN):0.00 0.00 0.00 0.00 0.00 0.00 0.00 0.00 0.00 0.00 0.00 0.00 0.00 0.00 0.00 0.00 0.00 0.00 0.00 0.00 0.00 0.00 0.00 0.00
0282725165947372025010105567+43533-072950FM-15+0240KRUT V0201705V00625033535MN0160935N5+00565-00175100295ADDAA101000095GA1085+033535999GD14991+0335359GE19AGL   +99999+99999GF199999999999033531999999KA1060M+00611KA2060N+00441MA1100305097485MD1690349+9999OC100775REMMET11701/01/25 00:56:02 METAR KRUT 010556Z 17012G15KT 10SM OVC110 06/M02 A2962 RMK AO2 SLP029 T00561017 10061 20044 56034 $
0251725165947372025010106567+43533-072950FM-15+0240KRUT V0201205N00415030485MN0160935N5+00505-00115100275ADDAA101000095GA1025+012505999GA2085+030485999GD11991+0125059GD24991+0304859GE19AGL   +99999+99999GF199999999999012501999999MA1100275097445REMMET10301/01/25 01:56:02 METAR KRUT 010656Z 12008KT 10SM FEW041 OVC100 05/M01 A2961 RMK AO2 SLP027 T00501011 $
0244725165947372025010107567+43533-072950FM-15+0240KRUT V0201205N00575016765MN0160935N5+00285+00065100125ADDAA101001395AU120020015AW1625GA1085+016765999GD14991+0167659GE19AGL   +99999+99999GF199999999999016761999999MA1100145097315MW1655REMMET10401/01/25 02:56:02 METAR KRUT 010756Z 12011KT 10SM RA OVC055 03/01 A2957 RMK AO2 RAB06 SLP012 T00280006 $
0363725165947372025010108157+43533-072950FM-15+0240KRUT V0201205N00575004275MN0064375N5+00205+00105999999ADDAA101001395AU110030015AU200001015AW1105AW2715GA1075+004275999GA2075+007015999GA3085+016765999GD13991+0042759GD23991+0070159GD34991+0167659GE19AGL   +99999+99999GF199999999999004271999999MA1100145097315MW1715OC101035REMMET13601/01/25 03:15:02 METAR KRUT 010815Z 12011G20KT 4SM -SN BR BKN014 BKN023 OVC055 02/01 A2957 RMK AO2 LTG DSNT E RAE15SNB15 P0007 FZRANO $
0280725165947372025010108407+43533-072950FM-15+0240KRUT V0201105N00725003665MN0040235N5+00105+00105999999ADDAA101007195AU110030015AU200001015AW1105AW2715GA1085+003665999GD14991+0036659GE19AGL   +99999+99999GF199999999999003661999999MA1100035097215MW1715OC101085REMMET11501/01/25 03:40:02 METAR KRUT 010840Z 11014G21KT 2 1/2SM -SN BR OVC012 01/01 A2954 RMK AO2 RAE15SNB15 P0022 FZRANO $
0276725165947372025010108477+43533-072950FM-15+0240KRUT V0201105V00415003665MN0048285N5+00205+00105999999ADDAA101007195AU110030015AU200001015AW1105AW2715GA1085+003665999GD14991+0036659GE19AGL   +99999+99999GF199999999999003661999999MA1100035097215MW1715OC100885REMMET11101/01/25 03:47:02 METAR KRUT 010847Z 11008G17KT 3SM -SN BR OVC012 02/01 A2954 RMK AO2 RAE15SNB15 P0025 FZRANO $
0346725165947372025010108567+43533-072950FM-15+0240KRUT V0209999V00265003665MN0048285N5+00175+00065100045ADDAA101007195AU110030015AU200001015AW1105AW2715GA1075+003665999GA2085+005185999GD13991+0036659GD24991+0051859GE19AGL   +99999+99999GF199999999999003661999999MA1100035097215MD1890279+9999MW1715REMMET14401/01/25 03:56:02 METAR KRUT 010856Z VRB05KT 3SM -SN BR BKN012 OVC017 02/01 A2954 RMK AO2 RAE15SNB15 SLP004 P0027 6//// T00170006 58027 FZRANO $
0292725165947372025010109087+43533-072950FM-15+0240KRUT V0201405N00365004575MN0080475N5+00205+00105999999ADDAA101007195AU110030015AU200001015AW1105AW2715GA1075+004575999GA2085+007625999GD13991+0045759GD24991+0076259GE19AGL   +99999+99999GF199999999999004571999999MA1100035097215MW1715REMMET10401/01/25 04:08:02 METAR KRUT 010908Z 14007KT 5SM -SN BR BKN015 OVC025 02/01 A2954 RMK AO2 P0002 FZRANO $
0341725165947372025010109427+43533-072950FM-15+0240KRUT V0201305N00515010975MN0160935N5+00205+00105999999ADDAA101000895AU110020015AW1615GA1045+007925999GA2075+010975999GA3085+022865999GD12991+0079259GD23991+0109759GD34991+0228659GE19AGL   +99999+99999GF199999999999007921999999MA1099935097115MW1615OC100725REMMET13101/01/25 04:42:02 METAR KRUT 010942Z 13010G14KT 10SM -RA SCT026 BKN036 OVC075 02/01 A2951 RMK AO2 UPB14E21RAB21SNE14 P0003 FZRANO $
0365725165947372025010109567+43533-072950FM-15+0240KRUT V0201205N00625009145MN0160935N5+00225+00065099855ADDAA101000895AU110020015AW1615GA1045+007325999GA2075+009145999GA3085+022865999GD12991+0073259GD23991+0091459GD34991+0228659GE19AGL   +99999+99999GF199999999999007321999999MA1099865097055MW1615OC100885REMMET15501/01/25 04:56:02 METAR KRUT 010956Z 12012G17KT 10SM -RA SCT024 BKN030 OVC075 02/01 A2949 RMK AO2 UPB14E21RAB21SNE14 PRESFR SLP985 P0004 T00220006 FZRANO $
0322725165947372025010110087+43533-072950FM-15+0240KRUT V0201205V00465007325MN0160935N5+00205+00105999999ADDAA101000895AU110020015AW1615GA1075+007325999GA2075+010065999GA3085+021345999GD13991+0073259GD23991+0100659GD34991+0213459GE19AGL   +99999+99999GF199999999999007321999999MA1099865097055MW1615OC100725REMMET11201/01/25 05:08:02 METAR KRUT 011008Z 12009G14KT 10SM -RA BKN024 BKN033 OVC070 02/01 A2949 RMK AO2 P0000 FZRANO $
0277725165947372025010110267+43533-072950FM-15+0240KRUT V0201405N00465019815MN0160935N5+00305+00105999999ADDAA101000895AU110020015AW1615GA1025+007325999GA2085+019815999GD11991+0073259GD24991+0198159GE19AGL   +99999+99999GF199999999999007321999999MA1099865097055MW1615OC100985REMMET09801/01/25 05:26:02 METAR KRUT 011026Z 14009G19KT 10SM -RA FEW024 OVC065 03/01 A2949 RMK AO2 P0000 $
0256725165947372025010110567+43533-072950FM-15+0240KRUT V0201805N00415018295MN0160935N5+00285+00065099855ADDAA101000025AU110020015AW1615GA1085+018295999GD14991+0182959GE19AGL   +99999+99999GF199999999999018291999999MA1099835097015MW1615OC100775REMMET10801/01/25 05:56:02 METAR KRUT 011056Z 18008G15KT 10SM -RA OVC060 03/01 A2948 RMK AO2 SLP985 P0000 T00280006 $
0266725165947372025010111377+43533-072950FM-15+0240KRUT V0209999V00315007625MN0160935N5+00305+00105999999ADDAA101000395AU110020015AW1615GA1075+007625999GA2085+016765999GD13991+0076259GD24991+0167659GE19AGL   +99999+99999GF199999999999007621999999MA1099835097015MW1615REMMET09501/01/25 06:37:02 METAR KRUT 011137Z VRB06KT 10SM -RA BKN025 OVC055 03/01 A2948 RMK AO2 P0001 $
0364725165947372025010111567+43533-072950FM-15+0240KRUT V0201905N00215006405MN0160935N5+00285+00115099845ADDAA101000395AA224999919AU110020015AW1615GA1025+004275999GA2085+006405999GD11991+0042759GD24991+0064059GE19AGL   +99999+99999GF199999999999004271999999KA1060M+00561KA2060N+00111MA1099835097015MD1690199+9999MW1615REMMET14201/01/25 06:56:02 METAR KRUT 011156Z 19004KT 10SM -RA FEW014 OVC021 03/01 A2948 RMK AO2 SLP984 P0001 6//// 7//// T00280011 10056 20011 56019 $
0282725165947372025010112567+43533-072950FM-15+0240KRUT V0201905N00215007015MN0144845N5+00285+00115099845ADDAA101000025AU110020015AW1615GA1045+003665999GA2085+007015999GD12991+0036659GD24991+0070159GE19AGL   +99999+99999GF199999999999003661999999MA1099835097015MW1615REMMET11101/01/25 07:56:02 METAR KRUT 011256Z 19004KT 9SM -RA SCT012 OVC023 03/01 A2948 RMK AO2 SLP984 P0000 T00280011 $
0266725165947372025010113317+43533-072950FM-15+0240KRUT V0209999C00005010365MN0160935N5+00305+00205999999ADDAA101000395AU110020015AW1615GA1025+006715999GA2085+010365999GD11991+0067159GD24991+0103659GE19AGL   +99999+99999GF199999999999006711999999MA1099805096985MW1615REMMET09501/01/25 08:31:02 METAR KRUT 011331Z 00000KT 10SM -RA FEW022 OVC034 03/02 A2947 RMK AO2 P0001 $
0283725165947372025010113567+43533-072950FM-15+0240KRUT V0201905N00365003355MN0160935N5+00285+00175099815ADDAA101000395AU110020015AW1615GA1075+003355999GA2085+010365999GD13991+0033559GD24991+0103659GE19AGL   +99999+99999GF199999999999003351999999MA1099805096985MW1615REMMET11201/01/25 08:56:02 METAR KRUT 011356Z 19007KT 10SM -RA BKN011 OVC034 03/02 A2947 RMK AO2 SLP981 P0001 T00280017 $
0245725165947372025010114347+43533-072950FM-15+0240KRUT V0209999V00265009145MN0160935N5+00305+00205999999ADDAA101000025GA1045+003965999GA2085+009145999GD12991+0039659GD24991+0091459GE19AGL   +99999+99999GF199999999999003961999999MA1099835097015REMMET09701/01/25 09:34:02 METAR KRUT 011434Z VRB05KT 10SM SCT013 OVC030 03/02 A2948 RMK AO2 RAE17 P0000 $
0318725165947372025010114567+43533-072950FM-15+0240KRUT V0201305N00365009145MN0160935N5+00335+00175099845ADDAA101000025AA203000391GA1025+003965999GA2085+009145999GD11991+0039659GD24991+0091459GE19AGL   +99999+99999GF199999999999003961999999MA1099835097015MD1590009+9999REMMET12601/01/25 09:56:02 METAR KRUT 011456Z 13007KT 10SM FEW013 OVC030 03/02 A2948 RMK AO2 RAE17 SLP984 P0000 60001 T00330017 55000 $EQDQ01  00028PRCP03
0195725165947372025010115197+43533-072950FM-15+0240KRUT V0201505N00215008535MN0160935N5+00405+00205999999ADDAA101000025GA1085+008535999GD14991+0085359GE19AGL   +99999+99999GF199999999999008531999999MA1099835097015REMMET07801/01/25 10:19:02 METAR KRUT 011519Z 15004KT 10SM OVC028 04/02 A2948 RMK AO2 $
0212725165947372025010115567+43533-072950FM-15+0240KRUT V0201305N00465008535MN0160935N5+00395+00175099755ADDAA101000095GA1085+008535999GD14991+0085359GE19AGL   +99999+99999GF199999999999008531999999MA1099765096955REMMET09501/01/25 10:56:02 METAR KRUT 011556Z 13009KT 10SM OVC028 04/02 A2946 RMK AO2 SLP975 T00390017 $
0233725165947372025010116477+43533-072950FM-15+0240KRUT V0201405N00415010975MN0160935N5+00405+00205999999ADDAA101000095GA1045+007325999GA2085+010975999GD12991+0073259GD24991+0109759GE19AGL   +99999+99999GF199999999999007321999999MA1099665096855REMMET08501/01/25 11:47:02 METAR KRUT 011647Z 14008KT 10SM SCT024 OVC036 04/02 A2943 RMK AO2 $
0250725165947372025010116567+43533-072950FM-15+0240KRUT V0201505N00365011585MN0160935N5+00445+00225099655ADDAA101000095GA1025+007325999GA2085+011585999GD11991+0073259GD24991+0115859GE19AGL   +99999+99999GF199999999999007321999999MA1099665096855REMMET10201/01/25 11:56:02 METAR KRUT 011656Z 15007KT 10SM FEW024 OVC038 04/02 A2943 RMK AO2 SLP965 T00440022 $
0271725165947372025010117537+43533-072950FM-15+0240KRUT V0201405N00315006715MN0160935N5+00405+00205999999ADDAA101000095GA1075+006715999GA2075+008235999GA3085+010975999GD13991+0067159GD23991+0082359GD34991+0109759GE19AGL   +99999+99999GF199999999999006711999999MA1099595096785REMMET09201/01/25 12:53:02 METAR KRUT 011753Z 14006KT 10SM BKN022 BKN027 OVC036 04/02 A2941 RMK AO2 $
0363725165947372025010117567+43533-072950FM-15+0240KRUT V0201305N00315006715MN0160935N5+00445+00225099605ADDAA101000095AA206000391GA1075+006715999GA2075+008235999GA3085+010365999GD13991+0067159GD23991+0082359GD34991+0103659GE19AGL   +99999+99999GF199999999999006711999999KA1060M+00441KA2060N+00221MA1099595096785MD1590159+9999REMMET13301/01/25 12:56:02 METAR KRUT 011756Z 13006KT 10SM BKN022 BKN027 OVC034 04/02 A2941 RMK AO2 SLP960 60001 T00440022 10044 20022 55015 $
0195725165947372025010118307+43533-072950FM-15+0240KRUT V0201205N00315004275MN0160935N5+00405+00305999999ADDAA101000095GA1085+004275999GD14991+0042759GE19AGL   +99999+99999GF199999999999004271999999MA1099595096785REMMET07801/01/25 13:30:02 METAR KRUT 011830Z 12006KT 10SM OVC014 04/03 A2941 RMK AO2 $
0212725165947372025010118567+43533-072950FM-15+0240KRUT V0201205N00265004275MN0160935N5+00445+00285099595ADDAA101000095GA1085+004275999GD14991+0042759GE19AGL   +99999+99999GF199999999999004271999999MA1099595096785REMMET09501/01/25 13:56:02 METAR KRUT 011856Z 12005KT 10SM OVC014 04/03 A2941 RMK AO2 SLP959 T00440028 $
0223725165947372025010119567+43533-072950FM-15+0240KRUT V0202505N00465004275MN0160935N5+00505+00285099615ADDAA101000095GA1085+004275999GD14991+0042759GE19AGL   +99999+99999GF199999999999004271999999MA1099635096815OC100775REMMET09801/01/25 14:56:02 METAR KRUT 011956Z 25009G15KT 10SM OVC014 05/03 A2942 RMK AO2 SLP961 T00500028 $
0312725165947372025010120567+43533-072950FM-15+0240KRUT V0202505N00515004275MN0144845N5+00445+00225099665ADDAA101000025AA203000021AU110020015AW1615GA1085+004275999GD14991+0042759GE19AGL   +99999+99999GF199999999999004271999999MA1099665096855MD1390079+9999MW1615REMMET12801/01/25 15:56:02 METAR KRUT 012056Z 25010KT 9SM -RA OVC014 04/02 A2943 RMK AO2 RAB08E23B54 SLP966 P0000 60000 T00440022 53007 $EQDQ01  00008PRCP03
0207725165947372025010121097+43533-072950FM-15+0240KRUT V0202405N00265004885MN0160935N5+00405+00205999999ADDAA101000025GA1085+004885999GD14991+0048859GE19AGL   +99999+99999GF199999999999004881999999MA1099705096885REMMET09001/01/25 16:09:02 METAR KRUT 012109Z 24005KT 10SM OVC016 04/02 A2944 RMK AO2 RAE07 P0000 $
0251725165947372025010121447+43533-072950FM-15+0240KRUT V0202505N00315012195MN0160935N5+00405+00205999999ADDAA101000025GA1045+005185999GA2085+012195999GD12991+0051859GD24991+0121959GE19AGL   +99999+99999GF199999999999005181999999MA1099705096885REMMET10301/01/25 16:44:02 METAR KRUT 012144Z 25006KT 10SM SCT017 OVC040 04/02 A2944 RMK AO2 RAE07B25E41 P0000 $
0289725165947372025010121517+43533-072950FM-15+0240KRUT V0202505N00365005185MN0160935N5+00405+00205999999ADDAA101000025GA1075+005185999GA2075+010975999GA3085+013115999GD13991+0051859GD23991+0109759GD34991+0131159GE19AGL   +99999+99999GF199999999999005181999999MA1099735096915REMMET11001/01/25 16:51:02 METAR KRUT 012151Z 25007KT 10SM BKN017 BKN036 OVC043 04/02 A2945 RMK AO2 RAE07B25E41 P0000 $
0330725165947372025010121567+43533-072950FM-15+0240KRUT V0202505N00465005185MN0160935N5+00395+00225099705ADDAA101000025AU110020015AW1615GA1075+005185999GA2075+010975999GA3085+013115999GD13991+0051859GD23991+0109759GD34991+0131159GE19AGL   +99999+99999GF199999999999005181999999MA1099705096885MW1615REMMET12801/01/25 16:56:02 METAR KRUT 012156Z 25009KT 10SM -RA BKN017 BKN036 OVC043 04/02 A2944 RMK AO2 RAE07B25 SLP970 P0000 T00390022 $
0300725165947372025010122567+43533-072950FM-15+0240KRUT V0202505N00365015245MN0160935N5+00395+00115099695ADDAA101000025GA1045+005185999GA2045+007325999GA3085+015245999GD12991+0051859GD22991+0073259GD34991+0152459GE19AGL   +99999+99999GF199999999999005181999999MA1099705096885REMMET12101/01/25 17:56:02 METAR KRUT 012256Z 25007KT 10SM SCT017 SCT024 OVC050 04/01 A2944 RMK AO2 RAE33 SLP969 P0000 T00390011 $
0282725165947372025010123037+43533-072950FM-15+0240KRUT V0202505V00415006405MN0160935N5+00405+00105999999ADDAA101000025GA1075+006405999GA2075+007925999GA3085+015245999GD13991+0064059GD23991+0079259GD34991+0152459GE19AGL   +99999+99999GF199999999999006401999999MA1099705096885OC100775REMMET09501/01/25 18:03:02 METAR KRUT 012303Z 25008G15KT 10SM BKN021 BKN026 OVC050 04/01 A2944 RMK AO2 $
0350725165947372025010123567+43533-072950FM-15+0240KRUT V0202405N00465005185MN0160935N5+00285+00115099765ADDAA101000395AU110020015AW1615GA1085+005185999GD14991+0051859GE19AGL   +99999+99999GF199999999999005181999999KA1060M+00501KA2060N+00281MA1099765096955MD1390059+9999MW1615REMMET13501/01/25 18:56:02 METAR KRUT 012356Z 24009KT 10SM -RA OVC017 03/01 A2946 RMK AO2 RAB12 SLP976 P0000 60000 T00280011 10050 20028 53005 $EQDQ01  00008PRCP06Q02  00002PRCP06
0273725165947372025010200087+43533-072950FM-15+0240KRUT V0202805N00315003965MN0160935N5+00205+00105999999ADDAA101000395AU110020015AW1615GA1025+002745999GA2085+003965999GD11991+0027459GD24991+0039659GE19AGL   +99999+99999GF199999999999002741999999MA1099805096985MW1615REMMET10201/01/25 19:08:01 METAR KRUT 020008Z 28006KT 10SM -RA FEW009 OVC013 02/01 A2947 RMK AO2 P0001 FZRANO $
0311725165947372025010200327+43533-072950FM-15+0240KRUT V0202905N00315007015MN0160935N5+00205+00105999999ADDAA101000595AU110020015AW1615GA1045+003665999GA2075+007015999GA3085+009455999GD12991+0036659GD23991+0070159GD34991+0094559GE19AGL   +99999+99999GF199999999999003661999999MA1099835097015MW1615REMMET10901/01/25 19:32:01 METAR KRUT 020032Z 29006KT 10SM -RA SCT012 BKN023 OVC031 02/01 A2948 RMK AO2 P0002 FZRANO $
0310725165947372025010200547+43533-072950FM-15+0240KRUT V0202805N00465003665MN0112655N5+00205+00105999999ADDAA101000595AU110020015AW1615GA1075+003665999GA2075+005185999GA3085+008845999GD13991+0036659GD23991+0051859GD34991+0088459GE19AGL   +99999+99999GF199999999999003661999999MA1099835097015MW1615REMMET10801/01/25 19:54:01 METAR KRUT 020054Z 28009KT 7SM -RA BKN012 BKN017 OVC029 02/01 A2948 RMK AO2 P0003 FZRANO $
0327725165947372025010200567+43533-072950FM-15+0240KRUT V0202905N00315003665MN0112655N5+00175+00005099855ADDAA101000595AU110020015AW1615GA1075+003665999GA2075+005185999GA3085+008845999GD13991+0036659GD23991+0051859GD34991+0088459GE19AGL   +99999+99999GF199999999999003661999999MA1099835097015MW1615REMMET12501/01/25 19:56:01 METAR KRUT 020056Z 29006KT 7SM -RA BKN012 BKN017 OVC029 02/00 A2948 RMK AO2 SLP985 P0003 T00170000 FZRANO $
0294725165947372025010201567+43533-072950FM-15+0240KRUT V0202705N00365004275MN0064375N5+00115+00005099865ADDAA101000895AU110030015AU200001015AW1105AW2715GA1085+004275999GD14991+0042759GE19AGL   +99999+99999GF199999999999004271999999MA1099865097055MW1715REMMET13701/01/25 20:56:01 METAR KRUT 020156Z 27007KT 4SM -SN BR OVC014 01/00 A2949 RMK AO2 RAE0058UPB0058E05SNB05 SLP986 P0003 T00110000 FZRANO $
0258725165947372025010202387+43533-072950FM-15+0240KRUT V0209999C00005003665MN0040235N5+00105+00005999999ADDAA101001095AU110030015AU200001015AW1105AW2715GA1085+003665999GD14991+0036659GE19AGL   +99999+99999GF199999999999003661999999MA1099865097055MW1715REMMET10101/01/25 21:38:01 METAR KRUT 020238Z 00000KT 2 1/2SM -SN BR OVC012 01/00 A2949 RMK AO2 P0002 FZRANO $
0347725165947372025010202567+43533-072950FM-15+0240KRUT V0209999C00005003055MN0028165V5+00065+00005099875ADDAA101001095AA203002591AU110030015AU200001015AW1105AW2715GA1085+003055999GD14991+0030559GE19AGL   +99999+99999GF199999999999003051999999MA1099865097055MD1390039+9999MW1715REMMET14601/01/25 21:56:01 METAR KRUT 020256Z 00000KT 1 3/4SM -SN BR OVC010 01/00 A2949 RMK AO2 VIS 1 1/4V2 1/2 SLP987 P0004 60010 T00060000 53003 FZRANO $EQDQ01  00258PRCP03
0266725165947372025010203237+43533-072950FM-15+0240KRUT V0209999C00005003055MN0032195V5+00105+00005999999ADDAA101001095AU110030015AU200001015AW1105AW2715GA1085+003055999GD14991+0030559GE19AGL   +99999+99999GF199999999999003051999999MA1099865097055MW1715REMMET10901/01/25 22:23:02 METAR KRUT 020323Z 00000KT 2SM -SN BR OVC010 01/00 A2949 RMK AO2 VIS 1 1/2V4 P0002 FZRANO $
0283725165947372025010203567+43533-072950FM-15+0240KRUT V0202705N00265003665MN0032195V5+00065+00005099895ADDAA101000895AU110030015AU200001015AW1105AW2715GA1085+003665999GD14991+0036659GE19AGL   +99999+99999GF199999999999003661999999MA1099905097085MW1715REMMET12601/01/25 22:56:02 METAR KRUT 020356Z 27005KT 2SM -SN BR OVC012 01/00 A2950 RMK AO2 VIS 1 1/4V3 SLP989 P0003 T00060000 FZRANO $
0270725165947372025010204207+43533-072950FM-15+0240KRUT V0202605N00215003055MN0028165N5+00005+00005999999ADDAA101000895AU110030015AU200001015AW1105AW2715GA1085+003055999GD14991+0030551GE19AGL   +99999+99999GF199999999999003051999999MA1099905097085MW1715REMMET11301/01/25 23:20:02 METAR KRUT 020420Z 26004KT 1 3/4SM -SN BR OVC010 00/00 A2950 RMK AO2 CIG 007V013 P0001 FZRANO $
0320725165947372025010204567+43533-072950FM-15+0240KRUT V0202805N00465003055MN0032195N5+00005-00065099925ADDAA101000895AU110030015AU200001015AW1105AW2715GA1085+003055999GD14991+0030551GE19AGL   +99999+99999GF199999999999003051999999KA1240M+00561KA2240N+00001MA1099905097085MW1715REMMET13701/01/25 23:56:02 METAR KRUT 020456Z 28009KT 2SM -SN BR OVC010 00/M01 A2950 RMK AO2 CIG 005V014 SLP992 P0003 T00001006 400560000 FZRANO $
0952725165947372025010204596+43533-072950SOD  +0240KRUT V020999999999999999999999999999+99999+99999999999ADDAA124013795AT1AU16RA  5AT2AU18SN  5AT3AU13BR  5AX1015245KA1240M+00565KA2240N+00005MG1097024099594OE11240107312003375OE22240080511003375OE33240036799999995REMSOD75124 HR PRECIPITATION (IN): 0.54 WEATHER(CODE):1  24 HR MAX TEMP (F):42 24 HR MAX TEMP TIME (LST):0119 24 HR MIN TEMP (F):32 24 HR MIN TEMP TIME (LST):2359 AVERAGE STATION PRESSURE(D):28.650 MINIMUM SEA LEVEL PRESSURE:29.41 TIME OF OCCURRENCE:1505 PEAK WIND SPEED (MPH):24  PEAK WIND DIR (DEG):120 PEAK WIND TIME (LST):0337  FASTEST 2MIN SPEED (MPH):18 FASTEST 2MIN DIR (DEG):110 FASTEST 2MIN TIME (LST):0337 AVERAGE WIND SPEED (MPH): 8.2 24 HR AVG TEMP (F):37 HEATING DEGREE DAYS: 28 COOLING DEGREE DAYS:  0 LATEST DAY MAX TEMP (0700-1900 LST): 41 LATEST NIGHT MIN TEMP(1900-0800 LST):34 HOURLY INCREMENTAL PRECIPITATION VALUES (IN):0.00 0.00 0.05 0.28 0.03T     0.01T     0.01T     0.00 0.00 0.00 0.00 0.00T    T    T     0.01 0.02 0.03 0.04 0.03 0.03EQDR01     N7GJS072R02     N7GKS075
0381725165947372025010205567+43533-072950FM-15+0240KRUT V0202705V00415004885MN0040235N5+00005-00115099985ADDAA101000395AA206004391AU110030015AU200001015AW1105AW2715GA1085+004885999GD14991+0048859GE19AGL   +99999+99999GF199999999999004881999999KA1060M+00281KA2060N+00001MA1099975097155MD1390109+9999MW1715OC101135REMMET14601/02/25 00:56:02 METAR KRUT 020556Z 27008G22KT 2 1/2SM -SN BR OVC016 00/M01 A2952 RMK AO2 SLP998 P0001 60017 T00001011 10028 20000 53010 FZRANO $EQDQ01  00438PRCP06
0255725165947372025010206097+43533-072950FM-15+0240KRUT V0209999V00265005495MN0048285N5+00005-00105999999ADDAA101000395AU110030015AU200001015AW1105AW2715GA1085+005495999GD14991+0054959GE19AGL   +99999+99999GF199999999999005491999999MA1099975097155MW1715REMMET09801/02/25 01:09:02 METAR KRUT 020609Z VRB05KT 3SM -SN BR OVC018 00/M01 A2952 RMK AO2 P0000 FZRANO $
0304725165947372025010206547+43533-072950FM-15+0240KRUT V0202705N00465010365MN0080475N5+00005-00205999999ADDAA101000025AU110030015AU200001015AW1105AW2715GA1045+007015999GA2085+010365999GD12991+0070159GD24991+0103659GE19AGL   +99999+99999GF199999999999007011999999MA1100005097185MW1715OC100885REMMET10801/02/25 01:54:02 METAR KRUT 020654Z 27009G17KT 5SM -SN BR SCT023 OVC034 00/M02 A2953 RMK AO2 P0000 FZRANO $
0321725165947372025010206567+43533-072950FM-15+0240KRUT V0202605V00515010365MN0080475N5+00005-00225100025ADDAA101000025AU110030015AU200001015AW1105AW2715GA1045+007015999GA2085+010365999GD12991+0070159GD24991+0103659GE19AGL   +99999+99999GF199999999999007011999999MA1100005097185MW1715OC100885REMMET12501/02/25 01:56:02 METAR KRUT 020656Z 26010G17KT 5SM -SN BR SCT023 OVC034 00/M02 A2953 RMK AO2 SLP002 P0000 T00001022 FZRANO $
0343725165947372025010207327+43533-072950FM-15+0240KRUT V0209999V00265008845MN0080475N5-00105-00205999999ADDAA101000025AU110030015AU200001015AW1105AW2715GA1045+007015999GA2075+008845999GA3085+010975999GD12991+0070159GD23991+0088459GD34991+0109759GE19AGL   +99999+99999GF199999999999007011999999MA1100075097245MW1715OC100985REMMET11601/02/25 02:32:02 METAR KRUT 020732Z VRB05G19KT 5SM -SN BR SCT023 BKN029 OVC036 M01/M02 A2955 RMK AO2 P0000 FZRANO $
0332725165947372025010207397+43533-072950FM-15+0240KRUT V0202805N00365009455MN0096565N5-00105-00205999999ADDAA101000025AU110030015AU200001015AW1105AW2715GA1045+007625999GA2075+009455999GA3085+011585999GD12991+0076259GD23991+0094559GD34991+0115859GE19AGL   +99999+99999GF199999999999007621999999MA1100075097245MW1715REMMET11301/02/25 02:39:02 METAR KRUT 020739Z 28007KT 6SM -SN BR SCT025 BKN031 OVC038 M01/M02 A2955 RMK AO2 P0000 FZRANO $
0302725165947372025010207567+43533-072950FM-15+0240KRUT V0202905V00365010365MN0128755N5-00065-00285100085ADDAA101000025AU110030015AW1715GA1045+007625999GA2085+010365999GD12991+0076259GD24991+0103659GE19AGL   +99999+99999GF199999999999007621999999MA1100075097245MW1715OC100725REMMET12301/02/25 02:56:02 METAR KRUT 020756Z 29007G14KT 8SM -SN SCT025 OVC034 M01/M03 A2955 RMK AO2 SLP008 P0000 T10061028 FZRANO $
0358725165947372025010208567+43533-072950FM-15+0240KRUT V0202505N00575010975MN0144845N5-00115-00335100095ADDAA101000025AA203000021AU110030015AW1715GA1045+009145999GA2085+010975999GD12991+0091459GD24991+0109759GE19AGL   +99999+99999GF199999999999009141999999MA1100075097245MD1390079+9999MW1715OC100985REMMET13501/02/25 03:56:02 METAR KRUT 020856Z 25011G19KT 9SM -SN SCT030 OVC036 M01/M03 A2955 RMK AO2 SLP009 P0000 60000 T10111033 53007 FZRANO $EQDQ01  00008PRCP03
0296725165947372025010209567+43533-072950FM-15+0240KRUT V0202805N00625012195MN0112655N5-00115-00445100165ADDAA101000025AU110030015AW1715GA1085+012195999GD14991+0121959GE19AGL   +99999+99999GF199999999999012191999999MA1100145097315MW1715OC101445OD149901441260REMMET13401/02/25 04:56:02 METAR KRUT 020956Z 28012G28KT 7SM -SN OVC040 M01/M04 A2957 RMK AO2 PK WND 26028/0952 SLP016 P0000 T10111044 FZRANO $
0334725165947372025010210567+43533-072950FM-15+0240KRUT V0202705N00775010975MN0096565N5-00115-00505100205ADDAA101000025AU110030015AW1715GA1025+008535999GA2085+010975999GD11991+0085359GD24991+0109759GE19AGL   +99999+99999GF199999999999008531999999MA1100205097385MW1715OC101185OD149901331260REMMET14101/02/25 05:56:02 METAR KRUT 021056Z 27015G23KT 6SM -SN FEW028 OVC036 M01/M05 A2959 RMK AO2 PK WND 26026/1043 SLP020 P0000 T10111050 FZRANO $
0429725165947372025010211567+43533-072950FM-15+0240KRUT V0202705N00825012195MN0144845N5-00115-00565100275ADDAA101000025AA206000021AA324004691AU110030015AW1715GA1075+012195999GA2085+014635999GD13991+0121959GD24991+0146359GE19AGL   +99999+99999GF199999999999012191999999KA1060M+00001KA2060N-00111MA1100245097415MD1190169+9999MW1715OC101185REMMET15301/02/25 06:56:02 METAR KRUT 021156Z 27016G23KT 9SM -SN BKN040 OVC048 M01/M06 A2960 RMK AO2 SLP027 P0000 60000 70018 T10111056 10000 21011 51016 FZRANO $EQDQ01  00008PRCP06Q02  00458PRCP24
0334725165947372025010212567+43533-072950FM-15+0240KRUT V0202805N00675016765MN0144845N5-00115-00615100355ADDAA101000025AU110030015AW1715GA1045+012805999GA2085+016765999GD12991+0128059GD24991+0167659GE19AGL   +99999+99999GF199999999999012801999999MA1100345097515MW1715OC101295OD149901441290REMMET14101/02/25 07:56:02 METAR KRUT 021256Z 28013G25KT 9SM -SN SCT042 OVC055 M01/M06 A2963 RMK AO2 PK WND 29028/1217 SLP035 P0000 T10111061 FZRANO $
0313725165947372025010213567+43533-072950FM-15+0240KRUT V0202805V00575021345MN0144845N5-00065-00615100425ADDAA101000025GA1045+013725999GA2085+021345999GD12991+0137259GD24991+0213459GE19AGL   +99999+99999GF199999999999013721999999MA1100415097585OC101035OD149901331290REMMET14301/02/25 08:56:02 METAR KRUT 021356Z 28011G20KT 9SM SCT045 OVC070 M01/M06 A2965 RMK AO2 PK WND 29026/1324 SNE51 SLP042 P0000 T10061061 FZRANO $
0401725165947372025010214567+43533-072950FM-15+0240KRUT V0202705N00775013115MN0160935N5+00005-00615100515ADDAA101000025AA203000021AU120090015AW1401AW2415GA1075+013115999GA2075+027435999GD13991+0131159GD23991+0274359GE19AGL   +99999+99999GF199999999999013111999999MA1100475097645MD1390239+9999OC101395OD149901391260REMMET16401/02/25 09:56:02 METAR KRUT 021456Z 27015G27KT 10SM UP BKN043 BKN090 00/M06 A2967 RMK AO2 PK WND 26027/1451 UPB07E20B51 SLP051 P0000 60000 T00001061 53023 FZRANO $EQDQ01  00008PRCP03
0275725165947372025010215567+43533-072950FM-15+0240KRUT V0202605N00985014335MN0160935N5+00115-00725100495ADDAA101000025GA1075+014335999GD13991+0143359GE19AGL   +99999+99999GF199999999999014331999999MA1100475097645OC101295OD149901331270REMMET13601/02/25 10:56:02 METAR KRUT 021556Z 26019G25KT 10SM BKN047 01/M07 A2967 RMK AO2 PK WND 27026/1512 UPE02 SLP049 P0000 T00111072 FZRANO $
0301725165947372025010216567+43533-072950FM-15+0240KRUT V0202805N00725013725MN0160935N5+00115-00785100525ADDAA101000095GA1075+013725999GA2075+016765999GD13991+0137259GD23991+0167659GE19AGL   +99999+99999GF199999999999013721999999MA1100515097675OC101445OD149901441270REMMET13101/02/25 11:56:02 METAR KRUT 021656Z 28014G28KT 10SM BKN045 BKN055 01/M08 A2968 RMK AO2 PK WND 27028/1647 SLP052 T00111078 FZRANO $
0376725165947372025010217567+43533-072950FM-15+0240KRUT V0202805N00775015245MN0160935N5+00175-00835100465ADDAA101000095AA206000021GA1075+015245999GA2075+018295999GD13991+0152459GD23991+0182959GE19AGL   +99999+99999GF199999999999015241999999KA1060M+00171KA2060N-00111MA1100445097615MD1890049+9999OC101295OD149901541260REMMET15501/02/25 12:56:02 METAR KRUT 021756Z 28015G25KT 10SM BKN050 BKN060 02/M08 A2966 RMK AO2 PK WND 26030/1736 SLP046 60000 T00171083 10017 21011 58004 FZRANO $
0282725165947372025010218567+43533-072950FM-15+0240KRUT V0202705N008252200059N0160935N5+00115-00945100495ADDAA101000095GA1025+015245999GD11991+0152459GE19AGL   +99999+99999GF102995999999015241999999MA1100475097645OC101445OD149901591260REMMET12401/02/25 13:56:02 METAR KRUT 021856Z 27016G28KT 10SM FEW050 01/M09 A2967 RMK AO2 PK WND 26031/1844 SLP049 T00111094 FZRANO $EQDD01      0ADE726
0282725165947372025010219567+43533-072950FM-15+0240KRUT V0202705N006252200059N0160935N5+00175-00895100495ADDAA101000095GA1045+016765999GD12991+0167659GE19AGL   +99999+99999GF104995999999016761999999MA1100475097645OC100985OD149901591280REMMET12401/02/25 14:56:02 METAR KRUT 021956Z 27012G19KT 10SM SCT055 02/M09 A2967 RMK AO2 PK WND 28031/1905 SLP049 T00171089 FZRANO $EQDD01      0ADE726
0270725165947372025010220567+43533-072950FM-15+0240KRUT V0202705N008252200059N0160935N5+00065-00945100525ADDAA101000095GA1045+016765999GD12991+0167659GE19AGL   +99999+99999GF104995999999016761999999MA1100475097645MD1290059+9999OC101245REMMET11201/02/25 15:56:02 METAR KRUT 022056Z 27016G24KT 10SM SCT055 01/M09 A2967 RMK AO2 SLP052 T00061094 52005 FZRANO $EQDD01      0ADE726
0263725165947372025010221567+43533-072950FM-15+0240KRUT V0202705N00575016765MN0160935N5+00005-00945100595ADDAA101000095GA1085+016765999GD14991+0167659GE19AGL   +99999+99999GF199999999999016761999999MA1100545097715OC101035OD149901491290REMMET12401/02/25 16:56:02 METAR KRUT 022156Z 27011G20KT 10SM OVC055 00/M09 A2969 RMK AO2 PK WND 29029/2120 SLP059 T00001094 FZRANO $
0353725165947372025010222567+43533-072950FM-15+0240KRUT V0202805N01135025915MN0160935N5+00065-00895100575ADDAA101000025AU120090015AW1401AW2415GA1025+018295999GA2075+025915999GD11991+0182959GD23991+0259159GE19AGL   +99999+99999GF199999999999018291999999MA1100545097715OC101605OD149901591290REMMET16001/02/25 17:56:02 METAR KRUT 022256Z 28022G31KT 10SM UP FEW060 BKN085 01/M09 A2969 RMK AO2 PK WND 29031/2255 UPB24E35B55RAB25E36 SLP057 P0000 T00061089 FZRANO $
0461725165947372025010223567+43533-072950FM-15+0240KRUT V0202905N00515013115MN0144845N5-00065-00615100645ADDAA101000025AA206000021AU110030015AW1715GA1025+010365999GA2075+013115999GA3085+015245999GD11991+0103659GD23991+0131159GD34991+0152459GE19AGL   +99999+99999GF199999999999010361999999KA1060M+00171KA2060N-00061MA1100615097775MD1390119+9999MW1715OC101245REMMET18101/02/25 18:56:02 METAR KRUT 022356Z 29010G24KT 9SM -SN FEW034 BKN043 OVC050 M01/M06 A2971 RMK AO2 UPE2259B37E48SNB2259E37B48 SLP064 P0000 60000 T10061061 10017 21006 53011 FZRANO $EQDQ01  00008PRCP06
0350725165947372025010300567+43533-072950FM-15+0240KRUT V0202705N00885016765MN0144845N5+00005-00785100625ADDAA101000025AU110030015AW1715GA1025+013415999GA2085+016765999GD11991+0134159GD24991+0167659GE19AGL   +99999+99999GF199999999999013411999999MA1100585097745MW1715OC101245OD149901491290REMMET15701/02/25 19:56:01 METAR KRUT 030056Z 27017G24KT 9SM -SN FEW044 OVC055 00/M08 A2970 RMK AO2 PK WND 29029/0045 UPB20E48SNE20B48 SLP062 P0000 T00001078 FZRANO $
0325725165947372025010301567+43533-072950FM-15+0240KRUT V0202905N00725014635MN0160935N5+00005-00785100575ADDAA101000025GA1075+014635999GA2085+018295999GD13991+0146359GD24991+0182959GE19AGL   +99999+99999GF199999999999014631999999MA1100545097715OC101135OD149901751280REMMET15501/02/25 20:56:01 METAR KRUT 030156Z 29014G22KT 10SM BKN048 OVC060 00/M08 A2969 RMK AO2 PK WND 28034/0109 UPB0057E01SNE0057 SLP057 P0000 T00001078 FZRANO $
0338725165947372025010302567+43533-072950FM-15+0240KRUT V0202805N00725014025MN0160935N5+00005-00785100555ADDAA101000095AA203000021GA1075+014025999GA2085+018295999GD13991+0140259GD24991+0182959GE19AGL   +99999+99999GF199999999999014021999999MA1100515097675MD1790089+9999OC101495OD149901491280REMMET14301/02/25 21:56:01 METAR KRUT 030256Z 28014G29KT 10SM BKN046 OVC060 00/M08 A2968 RMK AO2 PK WND 28029/0253 SLP055 60000 T00001078 57008 FZRANO $
0279725165947372025010303567+43533-072950FM-15+0240KRUT V0202705V00465012505MN0160935N5-00065-00615100565ADDAA101000025GA1085+012505999GD14991+0125059GE19AGL   +99999+99999GF199999999999012501999999MA1100545097715OC101185OD149901331310REMMET14001/02/25 22:56:02 METAR KRUT 030356Z 27009G23KT 10SM OVC041 M01/M06 A2969 RMK AO2 PK WND 31026/0258 UPB16E31 SLP056 P0000 T10061061 FZRANO $
0320725165947372025010304567+43533-072950FM-15+0240KRUT V0202605N00515012195MN0144845N5-00115-00615100575ADDAA101000025GA1075+012195999GA2085+014945999GD13991+0121959GD24991+0149459GE19AGL   +99999+99999GF199999999999012191999999KA1240M+00171KA2240N-00111MA1100545097715OC100935REMMET13801/02/25 23:56:02 METAR KRUT 030456Z 26010G18KT 9SM BKN040 OVC049 M01/M06 A2969 RMK AO2 SNB40E51 SLP057 P0000 T10111061 400171011 FZRANO $
0913725165947372025010304596+43533-072950SOD  +0240KRUT V020999999999999999999999999999+99999+99999999999ADDAA124000395AT1AU18SN  5AT2AU13BR  5AT3AU19UP  5AX1015245KA1240M+00175KA2240N-00105MG1097504099934OE11240174328020095OE22240116227020115OE33240068099999995REMSOD74724 HR PRECIPITATION (IN): 0.01 WEATHER(CODE):1  24 HR MAX TEMP (F):35 24 HR MAX TEMP TIME (LST):1513 24 HR MIN TEMP (F):30 24 HR MIN TEMP TIME (LST):2359 AVERAGE STATION PRESSURE(D):28.793 MINIMUM SEA LEVEL PRESSURE:29.51 TIME OF OCCURRENCE:0037 PEAK WIND SPEED (MPH):39  PEAK WIND DIR (DEG):280 PEAK WIND TIME (LST):2009  FASTEST 2MIN SPEED (MPH):26 FASTEST 2MIN DIR (DEG):270 FASTEST 2MIN TIME (LST):2011 AVERAGE WIND SPEED (MPH):15.2 24 HR AVG TEMP (F):33 HEATING DEGREE DAYS: 32 COOLING DEGREE DAYS:  0 LATEST DAY MAX TEMP (0700-1900 LST): 35 LATEST NIGHT MIN TEMP(1900-0800 LST):30 HOURLY INCREMENTAL PRECIPITATION VALUES (IN):0.01T    T    T    T    T    T    T    T    T    T     0.00 0.00 0.00 0.00 0.00 0.00T    T    T    T     0.00T    T
0411725165947372025010305567+43533-072950FM-15+0240KRUT V0202805N00885013725MN0160935N5-00115-00835100525ADDAA101000025AA206000021GA1075+013725999GA2085+016765999GD13991+0137259GD24991+0167659GE19AGL   +99999+99999GF199999999999013721999999KA1060M+00001KA2060N-00111MA1100515097675MD1890029+9999OC101345OD149901441260REMMET17101/03/25 00:56:02 METAR KRUT 030556Z 28017G26KT 10SM BKN045 OVC055 M01/M08 A2968 RMK AO2 PK WND 26028/0544 SNB00E41 SLP052 P0000 60000 T10111083 10000 21011 58002 FZRANO $EQDQ01  00008PRCP06
0302725165947372025010306567+43533-072950FM-15+0240KRUT V0202705N00775014945MN0160935N5-00115-00945100575ADDAA101000095GA1075+014945999GA2085+030485999GD13991+0149459GD24991+0304859GE19AGL   +99999+99999GF199999999999014941999999MA1100545097715OC101295OD149901441240REMMET13201/03/25 01:56:02 METAR KRUT 030656Z 27015G25KT 10SM BKN049 OVC100 M01/M09 A2969 RMK AO2 PK WND 24028/0628 SLP057 T10111094 FZRANO $
0264725165947372025010307567+43533-072950FM-15+0240KRUT V0202605N00775014945MN0160935N5-00175-00895100625ADDAA101000095GA1085+014945999GD14991+0149459GE19AGL   +99999+99999GF199999999999014941999999MA1100615097775OC101395OD149901391260REMMET12501/03/25 02:56:02 METAR KRUT 030756Z 26015G27KT 10SM OVC049 M02/M09 A2971 RMK AO2 PK WND 26027/0753 SLP062 T10171089 FZRANO $
0367725165947372025010308567+43533-072950FM-15+0240KRUT V0202705N010352200059N0160935N5-00225-01115100675ADDAA101000025AA203000021GA1045+015245999GD12991+0152459GE19AGL   +99999+99999GF104995999999015241999999MA1100645097815MD1290129+9999OC101395OD149901491260REMMET15201/03/25 03:56:02 METAR KRUT 030856Z 27020G27KT 10SM SCT050 M02/M11 A2972 RMK AO2 PK WND 26029/0828 SNB11E21 SLP067 P0000 60000 T10221111 52012 FZRANO $EQDQ01  00002PRCP03Q02  00008PRCP03D01      0ADE726
0302725165947372025010309567+43533-072950FM-15+0240KRUT V0202905N00625014025MN0144845N5-00225-00945100695ADDAA101000025AU110030015AW1715GA1085+014025999GD14991+0140259GE19AGL   +99999+99999GF199999999999014021999999MA1100645097815MW1715OC101185OD149901491290REMMET14001/03/25 04:56:02 METAR KRUT 030956Z 29012G23KT 9SM -SN OVC046 M02/M09 A2972 RMK AO2 PK WND 29029/0859 SNB32 SLP069 P0000 T10221094 FZRANO $
0334725165947372025010310567+43533-072950FM-15+0240KRUT V0202705N00775014335MN0144845N5-00175-00895100675ADDAA101000025AU110030015AW1715GA1075+014335999GA2085+016765999GD13991+0143359GD24991+0167659GE19AGL   +99999+99999GF199999999999014331999999MA1100615097775MW1715OC101085OD149901391310REMMET14101/03/25 05:56:02 METAR KRUT 031056Z 27015G21KT 9SM -SN BKN047 OVC055 M02/M09 A2971 RMK AO2 PK WND 31027/0958 SLP067 P0000 T10171089 FZRANO $
0415725165947372025010311567+43533-072950FM-15+0240KRUT V0203105N00625013415MN0128755N5-00225-00835100695ADDAA101000025AA206000021AU110030015AW1715GA1075+013415999GA2085+018295999GD13991+0134159GD24991+0182959GE19AGL   +99999+99999GF199999999999013411999999KA1060M-00111MA1100645097815MD1390029+9999MW1715OC100885OD149901391280REMMET16501/03/25 06:56:02 METAR KRUT 031156Z 31012G17KT 8SM -SN BKN044 OVC060 M02/M08 A2972 RMK AO2 PK WND 28027/1112 SLP069 P0000 60000 T10221083 11011 21022 53002 FZRANO $EQDQ01  00008PRCP06
0340725165947372025010312567+43533-072950FM-15+0240KRUT V0202905N00575010365MN0048285N5-00285-00725100675ADDAA101000025AU110030015AW1715GA1045+007325999GA2075+010365999GA3085+015245999GD12991+0073259GD23991+0103659GD34991+0152459GE19AGL   +99999+99999GF199999999999007321999999MA1100645097815MW1715OC101035REMMET13001/03/25 07:56:02 METAR KRUT 031256Z 29011G20KT 3SM -SN SCT024 BKN034 OVC050 M03/M07 A2972 RMK AO2 SLP067 P0000 T10281072 FZRANO $
0327725165947372025010313007+43533-072950FM-15+0240KRUT V0202905N00725009145MN0040235N5-00305-00705999999ADDAA101000025AU110030015AW1715GA1025+003965999GA2075+009145999GA3085+011285999GD11991+0039659GD23991+0091459GD34991+0112859GE19AGL   +99999+99999GF199999999999003961999999MA1100645097815MW1715OC100985REMMET11701/03/25 08:00:02 METAR KRUT 031300Z 29014G19KT 2 1/2SM -SN FEW013 BKN030 OVC037 M03/M07 A2972 RMK AO2 P0000 FZRANO $
0327725165947372025010313027+43533-072950FM-15+0240KRUT V0202805N00675008235MN0028165N5-00305-00705999999ADDAA101000025AU110030015AW1715GA1025+003055999GA2075+008235999GA3085+011285999GD11991+0030559GD23991+0082359GD34991+0112859GE19AGL   +99999+99999GF199999999999003051999999MA1100645097815MW1715OC100985REMMET11701/03/25 08:02:02 METAR KRUT 031302Z 28013G19KT 1 3/4SM -SN FEW010 BKN027 OVC037 M03/M07 A2972 RMK AO2 P0000 FZRANO $
0323725165947372025010313117+43533-072950FM-15+0240KRUT V0202805N00575007925MN0048285N5-00305-00705999999ADDAA101000025AU110030015AW1715GA1025+003055999GA2075+007925999GA3085+010975999GD11991+0030559GD23991+0079259GD34991+0109759GE19AGL   +99999+99999GF199999999999003051999999MA1100645097815MW1715OC100985REMMET11301/03/25 08:11:02 METAR KRUT 031311Z 28011G19KT 3SM -SN FEW010 BKN026 OVC036 M03/M07 A2972 RMK AO2 P0000 FZRANO $
0323725165947372025010313277+43533-072950FM-15+0240KRUT V0202805N00725009145MN0128755N5-00305-00805999999ADDAA101000025AU110030015AW1715GA1025+002745999GA2075+009145999GA3085+015245999GD11991+0027459GD23991+0091459GD34991+0152459GE19AGL   +99999+99999GF199999999999002741999999MA1100645097815MW1715OC100935REMMET11301/03/25 08:27:02 METAR KRUT 031327Z 28014G18KT 8SM -SN FEW009 BKN030 OVC050 M03/M08 A2972 RMK AO2 P0000 FZRANO $
0333725165947372025010313567+43533-072950FM-15+0240KRUT V0202805N009352200059N0160935N5-00225-00895100675ADDAA101000025GA1025+011895999GA2045+014945999GD11991+0118959GD22991+0149459GE19AGL   +99999+99999GF104995999999011891999999MA1100645097815OC101345OD149901331280REMMET14401/03/25 08:56:02 METAR KRUT 031356Z 28018G26KT 10SM FEW039 SCT049 M02/M09 A2972 RMK AO2 PK WND 28026/1356 SNE49 SLP067 P0000 T10221089 FZRANO $EQDD01      0ADE726
0434725165947372025010314567+43533-072950FM-15+0240KRUT V0202805N00725015245MN0144845N5-00175-00945100665ADDAA101000025AA203000021AU110030015AW1715GA1045+013115999GA2075+015245999GA3075+018295999GD12991+0131159GD23991+0152459GD33991+0182959GE19AGL   +99999+99999GF199999999999013111999999MA1100615097775MD1790039+9999MW1715OC101035OD149901331300REMMET16601/03/25 09:56:02 METAR KRUT 031456Z 28014G20KT 9SM -SN SCT043 BKN050 BKN060 M02/M09 A2971 RMK AO2 PK WND 30026/1424 SNB43 SLP066 P0000 60000 T10171094 57003 FZRANO $EQDQ01  00008PRCP03
0345725165947372025010315567+43533-072950FM-15+0240KRUT V0202505N00675011285MN0160935N5-00115-00675100555ADDAA101000025AU120090015AW1401AW2415GA1075+011285999GA2085+013725999GD13991+0112859GD24991+0137259GE19AGL   +99999+99999GF199999999999011281999999MA1100515097675OC100985OD149901391290REMMET15201/03/25 10:56:02 METAR KRUT 031556Z 25013G19KT 10SM UP BKN037 OVC045 M01/M07 A2968 RMK AO2 PK WND 29027/1508 UPB49SNE03 SLP055 P0000 T10111067 FZRANO $
0334725165947372025010316517+43533-072950FM-15+0240KRUT V0202605N00465008235MN0128755N5-00205-00605999999ADDAA101000025AU110030015AW1715GA1025+006715999GA2075+008235999GA3085+015245999GD11991+0067159GD23991+0082359GD34991+0152459GE19AGL   +99999+99999GF199999999999006711999999MA1100475097645MW1715OC100825REMMET12401/03/25 11:51:02 METAR KRUT 031651Z 26009G16KT 8SM -SN FEW022 BKN027 OVC050 M02/M06 A2967 RMK AO2 UPE00SNB17 P0000 FZRANO $
0351725165947372025010316567+43533-072950FM-15+0240KRUT V0202505N00675007625MN0128755N5-00115-00615100485ADDAA101000025AU110030015AW1715GA1075+007625999GA2075+009145999GA3085+015245999GD13991+0076259GD23991+0091459GD34991+0152459GE19AGL   +99999+99999GF199999999999007621999999MA1100445097615MW1715OC100935REMMET14101/03/25 11:56:02 METAR KRUT 031656Z 25013G18KT 8SM -SN BKN025 BKN030 OVC050 M01/M06 A2966 RMK AO2 UPE00SNB17 SLP048 P0000 T10111061 FZRANO $
0385725165947372025010317567+43533-072950FM-15+0240KRUT V0202705N00465006715MN0048285N5-00225-00565100425ADDAA101000025AA206000021AU110030015AW1715GA1075+006715999GA2085+008535999GD13991+0067159GD24991+0085359GE19AGL   +99999+99999GF199999999999006711999999KA1060M-00111KA2060N-00331MA1100415097585MD1690109+9999MW1715REMMET14401/03/25 12:56:02 METAR KRUT 031756Z 27009KT 3SM -SN BKN022 OVC028 M02/M06 A2965 RMK AO2 SLP042 P0000 60000 T10221056 11011 21033 56010 FZRANO $EQDQ01  00008PRCP06
0329725165947372025010318567+43533-072950FM-15+0240KRUT V0209999V00155008845MN0144845N5-00175-00615100405ADDAA101000025AU110030015AW1715GA1075+008845999GA2075+011895999GA3085+014025999GD13991+0088459GD23991+0118959GD34991+0140259GE19AGL   +99999+99999GF199999999999008841999999MA1100375097545MW1715REMMET12701/03/25 13:56:02 METAR KRUT 031856Z VRB03KT 9SM -SN BKN029 BKN039 OVC046 M02/M06 A2964 RMK AO2 SLP040 P0000 T10171061 FZRANO $
0323725165947372025010319057+43533-072950FM-15+0240KRUT V0202505N00675011585MN0144845N5-00205-00705999999ADDAA101000025AU110030015AW1715GA1045+008845999GA2075+011585999GA3085+013415999GD12991+0088459GD23991+0115859GD34991+0134159GE19AGL   +99999+99999GF199999999999008841999999MA1100345097515MW1715OC100885REMMET11301/03/25 14:05:02 METAR KRUT 031905Z 25013G17KT 9SM -SN SCT029 BKN038 OVC044 M02/M07 A2963 RMK AO2 P0000 FZRANO $
0302725165947372025010319567+43533-072950FM-15+0240KRUT V0202605N00365009755MN0128755N5-00175-00675100375ADDAA101000025AU110030015AW1715GA1075+009755999GA2085+011895999GD13991+0097559GD24991+0118959GE19AGL   +99999+99999GF199999999999009751999999MA1100345097515MW1715OC100985REMMET12301/03/25 14:56:02 METAR KRUT 031956Z 26007G19KT 8SM -SN BKN032 OVC039 M02/M07 A2963 RMK AO2 SLP037 P0000 T10171067 FZRANO $
0396725165947372025010320567+43533-072950FM-15+0240KRUT V0202505N00725021345MN0144845N5-00175-00725100365ADDAA101000025AA203000021AU110030015AW1715GA1025+006105999GA2045+010365999GA3085+021345999GD11991+0061059GD22991+0103659GD34991+0213459GE19AGL   +99999+99999GF199999999999006101999999MA1100345097515MD1690079+9999MW1715OC101185REMMET14201/03/25 15:56:02 METAR KRUT 032056Z 25014G23KT 9SM -SN FEW020 SCT034 OVC070 M02/M07 A2963 RMK AO2 SLP036 P0000 60000 T10171072 56007 FZRANO $EQDQ01  00008PRCP03
0282725165947372025010321567+43533-072950FM-15+0240KRUT V0202605N00675010365MN0160935N5-00225-00725100405ADDAA101000025GA1075+010365999GA2085+021345999GD13991+0103659GD24991+0213459GE19AGL   +99999+99999GF199999999999010361999999MA1100375097545OC100885REMMET12601/03/25 16:56:02 METAR KRUT 032156Z 26013G17KT 10SM BKN034 OVC070 M02/M07 A2964 RMK AO2 SNE37 SLP040 P0000 T10221072 FZRANO $
0333725165947372025010322327+43533-072950FM-15+0240KRUT V0202405N00465007925MN0040235N5-00305-00605999999ADDAA101000025AU110030015AW1715GA1045+005495999GA2075+007925999GA3085+018295999GD12991+0054959GD23991+0079259GD34991+0182959GE19AGL   +99999+99999GF199999999999005491999999MA1100415097585MW1715OC100935REMMET12301/03/25 17:32:02 METAR KRUT 032232Z 24009G18KT 2 1/2SM -SN SCT018 BKN026 OVC060 M03/M06 A2965 RMK AO2 SNB09 P0000 FZRANO $
0318725165947372025010322457+43533-072950FM-15+0240KRUT V0202405V00365007625MN0096565N5-00305-00605999999ADDAA101000025AU110030015AW1715GA1045+005185999GA2075+007625999GA3085+014335999GD12991+0051859GD23991+0076259GD34991+0143359GE19AGL   +99999+99999GF199999999999005181999999MA1100415097585MW1715REMMET11601/03/25 17:45:02 METAR KRUT 032245Z 24007KT 6SM -SN SCT017 BKN025 OVC047 M03/M06 A2965 RMK AO2 SNB09 P0000 FZRANO $
0297725165947372025010322567+43533-072950FM-15+0240KRUT V0202305N00465007015MN0128755N5-00285-00615100435ADDAA101000025AU110030015AW1715GA1045+005185999GA2085+007015999GD12991+0051859GD24991+0070159GE19AGL   +99999+99999GF199999999999005181999999MA1100415097585MW1715REMMET12601/03/25 17:56:02 METAR KRUT 032256Z 23009KT 8SM -SN SCT017 OVC023 M03/M06 A2965 RMK AO2 SNB09 SLP043 P0000 T10281061 FZRANO $
0385725165947372025010323567+43533-072950FM-15+0240KRUT V0202205N00265006715MN0128755N5-00335-00565100445ADDAA101000025AA206000021AU110030015AW1715GA1025+004275999GA2085+006715999GD11991+0042759GD24991+0067159GE19AGL   +99999+99999GF199999999999004271999999KA1060M-00111KA2060N-00331MA1100415097585MD1090069+9999MW1715REMMET14401/03/25 18:56:02 METAR KRUT 032356Z 22005KT 8SM -SN FEW014 OVC022 M03/M06 A2965 RMK AO2 SLP044 P0000 60000 T10331056 11011 21033 50006 FZRANO $EQDQ01  00008PRCP06
0309725165947372025010400567+43533-072950FM-15+0240KRUT V0202505N00365009755MN0160935N5-00335-00725100415ADDAA101000025GA1045+007625999GA2075+009755999GA3085+030485999GD12991+0076259GD23991+0097559GD34991+0304859GE19AGL   +99999+99999GF199999999999007621999999MA1100375097545REMMET13001/03/25 19:56:01 METAR KRUT 040056Z 25007KT 10SM SCT025 BKN032 OVC100 M03/M07 A2964 RMK AO2 SNE30 SLP041 P0000 T10331072 FZRANO $
0280725165947372025010401037+43533-072950FM-15+0240KRUT V0202405N00315008235MN0160935N5-00305-00705999999ADDAA101000025GA1075+008235999GA2075+009755999GA3085+030485999GD13991+0082359GD23991+0097559GD34991+0304859GE19AGL   +99999+99999GF199999999999008231999999MA1100375097545REMMET10101/03/25 20:03:01 METAR KRUT 040103Z 24006KT 10SM BKN027 BKN032 OVC100 M03/M07 A2964 RMK AO2 FZRANO $
0297725165947372025010401567+43533-072950FM-15+0240KRUT V0202705N00315008845MN0160935N5-00335-00725100385ADDAA101000095GA1075+008845999GA2075+011895999GA3085+014025999GD13991+0088459GD23991+0118959GD34991+0140259GE19AGL   +99999+99999GF199999999999008841999999MA1100345097515REMMET11801/03/25 20:56:01 METAR KRUT 040156Z 27006KT 10SM BKN029 BKN039 OVC046 M03/M07 A2963 RMK AO2 SLP038 T10331072 FZRANO $
0280725165947372025010402137+43533-072950FM-15+0240KRUT V0202705N00415014635MN0160935N5-00305-00805999999ADDAA101000095GA1025+008235999GA2045+011585999GA3085+014635999GD11991+0082359GD22991+0115859GD34991+0146359GE19AGL   +99999+99999GF199999999999008231999999MA1100345097515REMMET10101/03/25 21:13:01 METAR KRUT 040213Z 27008KT 10SM FEW027 SCT038 OVC048 M03/M08 A2963 RMK AO2 FZRANO $
0296725165947372025010402567+43533-072950FM-15+0240KRUT V0202905N00265011895MN0160935N5-00395-00835100375ADDAA101000095AA203000021GA1025+009145999GA2085+011895999GD11991+0091459GD24991+0118959GE19AGL   +99999+99999GF199999999999009141999999MA1100345097515MD1690079+9999REMMET12301/03/25 21:56:01 METAR KRUT 040256Z 29005KT 10SM FEW030 OVC039 M04/M08 A2963 RMK AO2 SLP037 60000 T10391083 56007 FZRANO $
0240725165947372025010403567+43533-072950FM-15+0240KRUT V0202805N004652200059N0160935N5-00445-00945100355ADDAA101000095GA1045+012505999GD12991+0125059GE19AGL   +99999+99999GF104995999999012501999999MA1100305097485REMMET10401/03/25 22:56:02 METAR KRUT 040356Z 28009KT 10SM SCT041 M04/M09 A2962 RMK AO2 SLP035 T10441094 FZRANO $EQDD01      0ADE726
0287725165947372025010404567+43533-072950FM-15+0240KRUT V0202805N005152200059N0160935N5-00505-01065100315ADDAA101000095GA1045+015245999GD12991+0152459GE19AGL   +99999+99999GF104995999999015241999999KA1240M-00061KA2240N-00501MA1100275097445OC100885REMMET11701/03/25 23:56:02 METAR KRUT 040456Z 28010G17KT 10SM SCT050 M05/M11 A2961 RMK AO2 SLP031 T10501106 410061050 FZRANO $EQDD01      0ADE726
0924725165947372025010404596+43533-072950SOD  +0240KRUT V020999999999999999999999999999+99999+99999999999ADDAA124000025AT1AU18SN  5AT2AU19UP  5AX1016246KA1240M-00055KA2240N-00495MG1097644100304OE11240147529003595OE22240116226004015OE33240058199999995REMSOD75124 HR PRECIPITATION (IN):T     WEATHER(CODE):1  24 HR MAX TEMP (F):31 24 HR MAX TEMP TIME (LST):0051 24 HR MIN TEMP (F):23 24 HR MIN TEMP TIME (LST):2359 AVERAGE STATION PRESSURE(D):28.835 MINIMUM SEA LEVEL PRESSURE:29.62 TIME OF OCCURRENCE:2359 PEAK WIND SPEED (MPH):33  PEAK WIND DIR (DEG):290 PEAK WIND TIME (LST):0359  FASTEST 2MIN SPEED (MPH):26 FASTEST 2MIN DIR (DEG):260 FASTEST 2MIN TIME (LST):0401 AVERAGE WIND SPEED (MPH):13.0 24 HR AVG TEMP (F):27 HEATING DEGREE DAYS: 38 COOLING DEGREE DAYS:  0 LATEST DAY MAX TEMP (0700-1900 LST): 30 LATEST NIGHT MIN TEMP(1900-0800 LST):27 HOURLY INCREMENTAL PRECIPITATION VALUES (IN):     0.00 0.00T    T    T    T    T    T    T    T    T    T    T    T    T    T    T    T    T     0.00 0.00 0.00 0.00EQDR01     17AXW093
0307725165947372025010405567+43533-072950FM-15+0240KRUT V0202805N00465014025MN0160935N5-00505-01115100255ADDAA101000095AA206000021GA1085+014025999GD14991+0140259GE19AGL   +99999+99999GF199999999999014021999999KA1060M-00331KA2060N-00501MA1100205097385MD1890119+9999OC100935REMMET13101/04/25 00:56:02 METAR KRUT 040556Z 28009G18KT 10SM OVC046 M05/M11 A2959 RMK AO2 SLP025 60000 T10501111 11033 21050 58011 FZRANO $
0335725165947372025010406567+43533-072950FM-15+0240KRUT V0203405N00365010365MN0064375N5-00615-00895100335ADDAA101000025AU110030015AW1715GA1025+004885999GA2045+007925999GA3085+010365999GD11991+0048859GD22991+0079259GD34991+0103659GE19AGL   +99999+99999GF199999999999004881999999MA1100275097445MW1715REMMET13301/04/25 01:56:02 METAR KRUT 040656Z 34007KT 4SM -SN FEW016 SCT026 OVC034 M06/M09 A2961 RMK AO2 SNB43 SLP033 P0000 T10611089 FZRANO $
0328725165947372025010406597+43533-072950FM-15+0240KRUT V0203405N00415007925MN0040235V5-00605-00905999999ADDAA101000025AU110030015AW1715GA1045+003965999GA2075+007925999GA3085+010365999GD12991+0039659GD23991+0079259GD34991+0103659GE19AGL   +99999+99999GF199999999999003961999999MA1100305097485MW1715REMMET12601/04/25 01:59:02 METAR KRUT 040659Z 34008KT 2 1/2SM -SN SCT013 BKN026 OVC034 M06/M09 A2962 RMK AO2 VIS 1 1/2V5 P0000 FZRANO $
0312725165947372025010407257+43533-072950FM-15+0240KRUT V0203105N00415005185MN0064375N5-00705-00905999999ADDAA101000025AU110030015AW1715GA1045+003665999GA2075+005185999GA3085+007325999GD12991+0036659GD23991+0051859GD34991+0073259GE19AGL   +99999+99999GF199999999999003661999999MA1100345097515MW1715REMMET11001/04/25 02:25:02 METAR KRUT 040725Z 31008KT 4SM -SN SCT012 BKN017 OVC024 M07/M09 A2963 RMK AO2 P0000 FZRANO $
0323725165947372025010407517+43533-072950FM-15+0240KRUT V0203105N00575007015MN0032195N5-00705-01105999999ADDAA101000025AU110030015AW1715GA1045+005495999GA2075+007015999GA3085+009145999GD12991+0054959GD23991+0070159GD34991+0091459GE19AGL   +99999+99999GF199999999999005491999999MA1100375097545MW1715OC100935REMMET11301/04/25 02:51:02 METAR KRUT 040751Z 31011G18KT 2SM -SN SCT018 BKN023 OVC030 M07/M11 A2964 RMK AO2 P0000 FZRANO $
0364725165947372025010407567+43533-072950FM-15+0240KRUT V0203005N00625004885MN0028165N5-00785-01005100425ADDAA101000025AU110030015AU200001015AW1105AW2715GA1075+004885999GA2075+007015999GA3085+009145999GD13991+0048859GD23991+0070159GD34991+0091459GE19AGL   +99999+99999GF199999999999004881999999MA1100375097545MW1715OC100885REMMET13701/04/25 02:56:02 METAR KRUT 040756Z 30012G17KT 1 3/4SM -SN BR BKN016 BKN023 OVC030 M08/M10 A2964 RMK AO2 SLP042 P0000 T10781100 FZRANO $
0256725165947372025010408107+43533-072950FM-15+0240KRUT V0203105N00315005495MN0032195N5-00805-00905999999ADDAA101000025AU110030015AU200001015AW1105AW2715GA1085+005495999GD14991+0054959GE19AGL   +99999+99999GF199999999999005491999999MA1100375097545MW1715REMMET09901/04/25 03:10:02 METAR KRUT 040810Z 31006KT 2SM -SN BR OVC018 M08/M09 A2964 RMK AO2 P0000 FZRANO $
0274725165947372025010408347+43533-072950FM-15+0240KRUT V0203105N00315006105MN0048285N5-00805-01105999999ADDAA101000025AU110030015AW1715GA1075+006105999GA2085+007925999GD13991+0061059GD24991+0079259GE19AGL   +99999+99999GF199999999999006101999999MA1100415097585MW1715REMMET10301/04/25 03:34:02 METAR KRUT 040834Z 31006KT 3SM -SN BKN020 OVC026 M08/M11 A2965 RMK AO2 P0000 FZRANO $
0278725165947372025010408427+43533-072950FM-15+0240KRUT V0209999V00265006105MN0040235N5-00805-01105999999ADDAA101000025AU110030015AW1715GA1075+006105999GA2085+007925999GD13991+0061059GD24991+0079259GE19AGL   +99999+99999GF199999999999006101999999MA1100415097585MW1715REMMET10701/04/25 03:42:02 METAR KRUT 040842Z VRB05KT 2 1/2SM -SN BKN020 OVC026 M08/M11 A2965 RMK AO2 P0000 FZRANO $
0378725165947372025010408567+43533-072950FM-15+0240KRUT V0203205V00515005185MN0032195N5-00835-01065100465ADDAA101000025AA203000021AU110030015AU200001015AW1105AW2715GA1075+005185999GA2085+007325999GD13991+0051859GD24991+0073259GE19AGL   +99999+99999GF199999999999005181999999MA1100415097585MD1190129+9999MW1715OC100825REMMET13801/04/25 03:56:02 METAR KRUT 040856Z 32010G16KT 2SM -SN BR BKN017 OVC024 M08/M11 A2965 RMK AO2 SLP046 P0000 60000 T10831106 51012 FZRANO $EQDQ01  00008PRCP03
0274725165947372025010409147+43533-072950FM-15+0240KRUT V0203205N00315007925MN0064375N5-00805-01105999999ADDAA101000025AU110030015AW1715GA1045+005185999GA2085+007925999GD12991+0051859GD24991+0079259GE19AGL   +99999+99999GF199999999999005181999999MA1100415097585MW1715REMMET10301/04/25 04:14:02 METAR KRUT 040914Z 32006KT 4SM -SN SCT017 OVC026 M08/M11 A2965 RMK AO2 P0000 FZRANO $
0274725165947372025010409497+43533-072950FM-15+0240KRUT V0203105N00365011285MN0096565N5-00905-01205999999ADDAA101000025AU110030015AW1715GA1045+008845999GA2085+011285999GD12991+0088459GD24991+0112859GE19AGL   +99999+99999GF199999999999008841999999MA1100445097615MW1715REMMET10301/04/25 04:49:02 METAR KRUT 040949Z 31007KT 6SM -SN SCT029 OVC037 M09/M12 A2966 RMK AO2 P0000 FZRANO $
0291725165947372025010409567+43533-072950FM-15+0240KRUT V0203205N00365010675MN0096565N5-00895-01285100535ADDAA101000025AU110030015AW1715GA1025+008235999GA2085+010675999GD11991+0082359GD24991+0106759GE19AGL   +99999+99999GF199999999999008231999999MA1100475097645MW1715REMMET12001/04/25 04:56:02 METAR KRUT 040956Z 32007KT 6SM -SN FEW027 OVC035 M09/M13 A2967 RMK AO2 SLP053 P0000 T10891128 FZRANO $
0336725165947372025010410177+43533-072950FM-15+0240KRUT V0203405N00265008535MN0040235N5-00905-01205999999ADDAA101000025AU110030015AU200001015AW1105AW2715GA1045+006105999GA2075+008535999GA3085+010365999GD12991+0061059GD23991+0085359GD34991+0103659GE19AGL   +99999+99999GF199999999999006101999999MA1100515097675MW1715REMMET11701/04/25 05:17:02 METAR KRUT 041017Z 34005KT 2 1/2SM -SN BR SCT020 BKN028 OVC034 M09/M12 A2968 RMK AO2 P0000 FZRANO $
0312725165947372025010410397+43533-072950FM-15+0240KRUT V0203405N00415006715MN0048285N5-00905-01205999999ADDAA101000025AU110030015AW1715GA1075+006715999GA2075+007925999GA3085+009755999GD13991+0067159GD23991+0079259GD34991+0097559GE19AGL   +99999+99999GF199999999999006711999999MA1100515097675MW1715REMMET11001/04/25 05:39:02 METAR KRUT 041039Z 34008KT 3SM -SN BKN022 BKN026 OVC032 M09/M12 A2968 RMK AO2 P0000 FZRANO $
0316725165947372025010410487+43533-072950FM-15+0240KRUT V0203205N00315006715MN0040235N5-00905-01205999999ADDAA101000025AU110030015AW1715GA1075+006715999GA2075+008845999GA3085+010365999GD13991+0067159GD23991+0088459GD34991+0103659GE19AGL   +99999+99999GF199999999999006711999999MA1100545097715MW1715REMMET11401/04/25 05:48:02 METAR KRUT 041048Z 32006KT 2 1/2SM -SN BKN022 BKN029 OVC034 M09/M12 A2969 RMK AO2 P0000 FZRANO $
0329725165947372025010410567+43533-072950FM-15+0240KRUT V0203405N00315007925MN0064375N5-00945-01225100615ADDAA101000025AU110030015AW1715GA1045+006715999GA2075+007925999GA3085+010365999GD12991+0067159GD23991+0079259GD34991+0103659GE19AGL   +99999+99999GF199999999999006711999999MA1100545097715MW1715REMMET12701/04/25 05:56:02 METAR KRUT 041056Z 34006KT 4SM -SN SCT022 BKN026 OVC034 M09/M12 A2969 RMK AO2 SLP061 P0000 T10941122 FZRANO $
0274725165947372025010411087+43533-072950FM-15+0240KRUT V0203305N00265009755MN0096565N5-00905-01205999999ADDAA101000025AU110030015AW1715GA1025+006715999GA2085+009755999GD11991+0067159GD24991+0097559GE19AGL   +99999+99999GF199999999999006711999999MA1100585097745MW1715REMMET10301/04/25 06:08:02 METAR KRUT 041108Z 33005KT 6SM -SN FEW022 OVC032 M09/M12 A2970 RMK AO2 P0000 FZRANO $
0274725165947372025010411197+43533-072950FM-15+0240KRUT V0203305N00315008845MN0128755N5-00905-01305999999ADDAA101000025AU110030015AW1715GA1075+008845999GA2085+010675999GD13991+0088459GD24991+0106759GE19AGL   +99999+99999GF199999999999008841999999MA1100585097745MW1715REMMET10301/04/25 06:19:02 METAR KRUT 041119Z 33006KT 8SM -SN BKN029 OVC035 M09/M13 A2970 RMK AO2 P0000 FZRANO $
0236725165947372025010411287+43533-072950FM-15+0240KRUT V0203005N00315009755MN0112655N5-00905-01305999999ADDAA101000025AU110030015AW1715GA1085+009755999GD14991+0097559GE19AGL   +99999+99999GF199999999999009751999999MA1100615097775MW1715REMMET09601/04/25 06:28:02 METAR KRUT 041128Z 30006KT 7SM -SN OVC032 M09/M13 A2971 RMK AO2 P0000 FZRANO $
0423725165947372025010411567+43533-072950FM-15+0240KRUT V0203005N00265009755MN0144845N5-00945-01335100675ADDAA101000025AA206000021AU110030015AW1715GA1075+009755999GA2075+012805999GA3085+019815999GD13991+0097559GD23991+0128059GD34991+0198159GE19AGL   +99999+99999GF199999999999009751999999KA1060M-00501KA2060N-00941MA1100615097775MD1390209+9999MW1715REMMET15101/04/25 06:56:02 METAR KRUT 041156Z 30005KT 9SM -SN BKN032 BKN042 OVC065 M09/M13 A2971 RMK AO2 SLP067 P0000 60000 T10941133 11050 21094 53020 FZRANO $EQDQ01  00008PRCP06
0253725165947372025010412567+43533-072950FM-15+0240KRUT V0203105N00155009145MN0112655N5-00945-01395100725ADDAA101000025AU110030015AW1715GA1085+009145999GD14991+0091459GE19AGL   +99999+99999GF199999999999009141999999MA1100645097815MW1715REMMET11301/04/25 07:56:02 METAR KRUT 041256Z 31003KT 7SM -SN OVC030 M09/M14 A2972 RMK AO2 SLP072 P0000 T10941139 FZRANO $
0233725165947372025010413567+43533-072950FM-15+0240KRUT V0203005N00215009755MN0160935N5-00895-01395100765ADDAA101000025GA1085+009755999GD14991+0097559GE19AGL   +99999+99999GF199999999999009751999999MA1100715097875REMMET11601/04/25 08:56:02 METAR KRUT 041356Z 30004KT 10SM OVC032 M09/M14 A2974 RMK AO2 SNE47 SLP076 P0000 T10891139 FZRANO $
0333725165947372025010414567+43533-072950FM-15+0240KRUT V0202805N00365015245MN0144845N5-00835-01445100755ADDAA101000095AA203000021GA1045+009755999GA2075+015245999GA3075+021345999GD12991+0097559GD23991+0152459GD33991+0213459GE19AGL   +99999+99999GF199999999999009751999999MA1100685097845MD1090079+9999REMMET12901/04/25 09:56:02 METAR KRUT 041456Z 28007KT 9SM SCT032 BKN050 BKN070 M08/M14 A2973 RMK AO2 SLP075 60000 T10831144 50007 FZRANO $
0308725165947372025010415567+43533-072950FM-15+0240KRUT V0202705N00465013415MN0160935N5-00725-01335100705ADDAA101000025GA1025+008845999GA2075+013415999GA3085+015245999GD11991+0088459GD23991+0134159GD34991+0152459GE19AGL   +99999+99999GF199999999999008841999999MA1100645097815OC100985REMMET12101/04/25 10:56:02 METAR KRUT 041556Z 27009G19KT 10SM FEW029 BKN044 OVC050 M07/M13 A2972 RMK AO2 SLP070 T10721133 FZRANO $
0249725165947372025010416567+43533-072950FM-15+0240KRUT V0202905N00465010675MN0160935N5-00725-01335100655ADDAA101000025GA1085+010675999GD14991+0106759GE19AGL   +99999+99999GF199999999999010671999999MA1100585097745OC100825REMMET12401/04/25 11:56:02 METAR KRUT 041656Z 29009G16KT 10SM OVC035 M07/M13 A2970 RMK AO2 SNB1559E42 SLP065 P0000 T10721133 FZRANO $
0345725165947372025010417567+43533-072950FM-15+0240KRUT V0202605N00625013115MN0160935N5-00725-01285100625ADDAA101000095AA206000021GA1045+010065999GA2085+013115999GD12991+0100659GD24991+0131159GE19AGL   +99999+99999GF199999999999010061999999KA1060M-00721KA2060N-00941MA1100545097715MD1690129+9999OC100885REMMET13801/04/25 12:56:02 METAR KRUT 041756Z 26012G17KT 10SM SCT033 OVC043 M07/M13 A2969 RMK AO2 SLP062 60000 T10721128 11072 21094 56012 FZRANO $
0232725165947372025010418567+43533-072950FM-15+0240KRUT V0202805N00465013115MN0160935N5-00675-01335100615ADDAA101000095GA1085+013115999GD14991+0131159GE19AGL   +99999+99999GF199999999999013111999999MA1100545097715OC100725REMMET10701/04/25 13:56:02 METAR KRUT 041856Z 28009G14KT 10SM OVC043 M07/M13 A2969 RMK AO2 SLP061 T10671133 FZRANO $
0221725165947372025010419567+43533-072950FM-15+0240KRUT V0202805N00465013115MN0160935N5-00565-01335100645ADDAA101000095GA1085+013115999GD14991+0131159GE19AGL   +99999+99999GF199999999999013111999999MA1100585097745REMMET10401/04/25 14:56:02 METAR KRUT 041956Z 28009KT 10SM OVC043 M06/M13 A2970 RMK AO2 SLP064 T10561133 FZRANO $
0252725165947372025010420567+43533-072950FM-15+0240KRUT V0202705N00575013115MN0160935N5-00565-01285100665ADDAA101000095GA1085+013115999GD14991+0131159GE19AGL   +99999+99999GF199999999999013111999999MA1100585097745MD1390029+9999OC100885REMMET11301/04/25 15:56:02 METAR KRUT 042056Z 27011G17KT 10SM OVC043 M06/M13 A2970 RMK AO2 SLP066 T10561128 53002 FZRANO $
0264725165947372025010421567+43533-072950FM-15+0240KRUT V0202905N00885012505MN0160935N5-00505-01225100675ADDAA101000095GA1085+012505999GD14991+0125059GE19AGL   +99999+99999GF199999999999012501999999MA1100585097745OC101395OD149901391280REMMET12501/04/25 16:56:02 METAR KRUT 042156Z 29017G27KT 10SM OVC041 M05/M12 A2970 RMK AO2 PK WND 28027/2150 SLP067 T10501122 FZRANO $
0279725165947372025010422567+43533-072950FM-15+0240KRUT V0202805N00625012505MN0160935N5-00505-01175100665ADDAA101000025GA1085+012505999GD14991+0125059GE19AGL   +99999+99999GF199999999999012501999999MA1100615097775OC100825OD149901541260REMMET14001/04/25 17:56:02 METAR KRUT 042256Z 28012G16KT 10SM OVC041 M05/M12 A2971 RMK AO2 PK WND 26030/2209 SNB14E33 SLP066 P0000 T10501117 FZRANO $
0307725165947372025010423567+43533-072950FM-15+0240KRUT V0202905N00575012505MN0160935N5-00445-01115100705ADDAA101000095AA206000021GA1085+012505999GD14991+0125059GE19AGL   +99999+99999GF199999999999012501999999KA1060M-00441KA2060N-00721MA1100615097775MD1390049+9999OC100825REMMET13101/04/25 18:56:02 METAR KRUT 042356Z 29011G16KT 10SM OVC041 M04/M11 A2971 RMK AO2 SLP070 60000 T10441111 11044 21072 53004 FZRANO $
0259725165947372025010500567+43533-072950FM-15+0240KRUT V0202705N00415012505MN0144845N5-00505-01005100715ADDAA101000025AU110030015AW1715GA1085+012505999GD14991+0125059GE19AGL   +99999+99999GF199999999999012501999999MA1100645097815MW1715REMMET11901/04/25 19:56:01 METAR KRUT 050056Z 27008KT 9SM -SN OVC041 M05/M10 A2972 RMK AO2 SNB26 SLP071 P0000 T10501100 FZRANO $
0244725165947372025010501567+43533-072950FM-15+0240KRUT V0202905N00625012505MN0160935N5-00445-01115100715ADDAA101000025GA1085+012505999GD14991+0125059GE19AGL   +99999+99999GF199999999999012501999999MA1100645097815OC101085REMMET11901/04/25 20:56:01 METAR KRUT 050156Z 29012G21KT 10SM OVC041 M04/M11 A2972 RMK AO2 SNE20 SLP071 P0000 T10441111 FZRANO $
0326725165947372025010502567+43533-072950FM-15+0240KRUT V0203005N00415011895MN0144845N5-00445-01115100755ADDAA101000025AA203000021AU110030015AW1715GA1085+011895999GD14991+0118959GE19AGL   +99999+99999GF199999999999011891999999MA1100685097845MD1390059+9999MW1715OC100825REMMET13401/04/25 21:56:01 METAR KRUT 050256Z 30008G16KT 9SM -SN OVC039 M04/M11 A2973 RMK AO2 SNB27 SLP075 P0000 60000 T10441111 53005 FZRANO $EQDQ01  00008PRCP03
0277725165947372025010503567+43533-072950FM-15+0240KRUT V0202605N00415012505MN0160935N5-00445-01065100795ADDAA101000025GA1075+012505999GA2085+018295999GD13991+0125059GD24991+0182959GE19AGL   +99999+99999GF199999999999012501999999MA1100715097875REMMET12901/04/25 22:56:02 METAR KRUT 050356Z 26008KT 10SM BKN041 OVC060 M04/M11 A2974 RMK AO2 SNE03B25E50 SLP079 P0000 T10441106 FZRANO $
0306725165947372025010504567+43533-072950FM-15+0240KRUT V0202905N00465010675MN0144845N5-00445-00945100805ADDAA101000025AU110030015AW1715GA1085+010675999GD14991+0106759GE19AGL   +99999+99999GF199999999999010671999999KA1240M-00441KA2240N-00941MA1100755097915MW1715OC100825REMMET13201/04/25 23:56:02 METAR KRUT 050456Z 29009G16KT 9SM -SN OVC035 M04/M09 A2975 RMK AO2 SNB46 SLP080 P0000 T10441094 410441094 FZRANO $
0947725165947372025010504596+43533-072950SOD  +0240KRUT V020999999999999999999999999999+99999+99999999999ADDAA124000025AT1AU18SN  5AT2AU13BR  5AX1016246AX2086246KA1240M-00435KA2240N-00935MG1097694100244OE11240156526017095OE22240102830016205OE33240046099999995REMSOD74924 HR PRECIPITATION (IN):T     WEATHER(CODE):1,8  24 HR MAX TEMP (F):24 24 HR MAX TEMP TIME (LST):2357 24 HR MIN TEMP (F):15 24 HR MIN TEMP TIME (LST):0831 AVERAGE STATION PRESSURE(D):28.849 MINIMUM SEA LEVEL PRESSURE:29.60 TIME OF OCCURRENCE:0058 PEAK WIND SPEED (MPH):35  PEAK WIND DIR (DEG):260 PEAK WIND TIME (LST):1709  FASTEST 2MIN SPEED (MPH):23 FASTEST 2MIN DIR (DEG):300 FASTEST 2MIN TIME (LST):1620 AVERAGE WIND SPEED (MPH):10.3 24 HR AVG TEMP (F):20 HEATING DEGREE DAYS: 45 COOLING DEGREE DAYS:  0 LATEST DAY MAX TEMP (0700-1900 LST): 24 LATEST NIGHT MIN TEMP(1900-0800 LST):15 HOURLY INCREMENTAL PRECIPITATION VALUES (IN):0.00T    T    T    T    T    T    T    T     0.00T    T     0.00 0.00 0.00 0.00 0.00T     0.00T    T    T    T    TEQDR01   1,87AXW093R02   1,87AXW093
0312725165947372025010505257+43533-072950FM-15+0240KRUT V0203505N00465007325MN0128755N5-00605-00905999999ADDAA101000021AU110030015AW1715GA1075+007325999GA2075+009755999GA3085+012195999GD13991+0073259GD23991+0097559GD34991+0121959GE19AGL   +99999+99999GF199999999999007321999999MA1100755097915MW1715REMMET11001/05/25 00:25:02 METAR KRUT 050525Z 35009KT 8SM -SN BKN024 BKN032 OVC040 M06/M09 A2975 RMK AO2 P0000 FZRANO $
0312725165947372025010505377+43533-072950FM-15+0240KRUT V0203605N00575011285MN0144845N5-00705-01005999999ADDAA101000025AU110030015AW1715GA1045+007325999GA2075+011285999GA3085+021345999GD12991+0073259GD23991+0112859GD34991+0213459GE19AGL   +99999+99999GF199999999999007321999999MA1100755097915MW1715REMMET11001/05/25 00:37:02 METAR KRUT 050537Z 36011KT 9SM -SN SCT024 BKN037 OVC070 M07/M10 A2975 RMK AO2 P0000 FZRANO $
0403725165947372025010505567+43533-072950FM-15+0240KRUT V0203605N00515015245MN0160935N5-00785-01005100825ADDAA101000025AA206000021GA1025+010975999GA2075+015245999GA3085+021345999GD11991+0109759GD23991+0152459GD34991+0213459GE19AGL   +99999+99999GF199999999999010971999999KA1060M-00441KA2060N-00781MA1100785097945MD1190089+9999REMMET15401/05/25 00:56:02 METAR KRUT 050556Z 36010KT 10SM FEW036 BKN050 OVC070 M08/M10 A2976 RMK AO2 SNE47 SLP082 P0000 60000 T10781100 11044 21078 51008 FZRANO $EQDQ01  00008PRCP06
0335725165947372025010506567+43533-072950FM-15+0240KRUT V0203505N00315024385MN0144845N5-00895-01065100925ADDAA101000025AU110030015AW1715GA1025+010975999GA2045+014025999GA3075+024385999GD11991+0109759GD22991+0140259GD33991+0243859GE19AGL   +99999+99999GF199999999999010971999999MA1100855098015MW1715REMMET13301/05/25 01:56:02 METAR KRUT 050656Z 35006KT 9SM -SN FEW036 SCT046 BKN080 M09/M11 A2978 RMK AO2 SNB15 SLP092 P0000 T10891106 FZRANO $
0271725165947372025010507567+43533-072950FM-15+0240KRUT V0209999V00215016765MN0160935N5-00895-01115100945ADDAA101000025GA1025+013725999GA2085+016765999GD11991+0137259GD24991+0167659GE19AGL   +99999+99999GF199999999999013721999999MA1100885098045REMMET12301/05/25 02:56:02 METAR KRUT 050756Z VRB04KT 10SM FEW045 OVC055 M09/M11 A2979 RMK AO2 SNE33 SLP094 P0000 T10891111 FZRANO $
0315725165947372025010508567+43533-072950FM-15+0240KRUT V0203005N00155013725MN0144845N5-00895-01065100935ADDAA101000025AA203000021AU110030015AW1715GA1085+013725999GD14991+0137259GE19AGL   +99999+99999GF199999999999013721999999MA1100885098045MD1090109+9999MW1715REMMET13101/05/25 03:56:02 METAR KRUT 050856Z 30003KT 9SM -SN OVC045 M09/M11 A2979 RMK AO2 SNB01 SLP093 P0000 60000 T10891106 50010 FZRANO $EQDQ01  00008PRCP03
0329725165947372025010509567+43533-072950FM-15+0240KRUT V0203105N00155014335MN0144845N5-00895-01005100935ADDAA101000025AU110030015AW1715GA1025+009145999GA2045+011285999GA3085+014335999GD11991+0091459GD22991+0112859GD34991+0143359GE19AGL   +99999+99999GF199999999999009141999999MA1100855098015MW1715REMMET12701/05/25 04:56:02 METAR KRUT 050956Z 31003KT 9SM -SN FEW030 SCT037 OVC047 M09/M10 A2978 RMK AO2 SLP093 P0000 T10891100 FZRANO $
0332725165947372025010510117+43533-072950FM-15+0240KRUT V0203205N00155007625MN0080475N5-00805-01005999999ADDAA101000025AU110030015AU200001015AW1105AW2715GA1045+005495999GA2075+007625999GA3085+013725999GD12991+0054959GD23991+0076259GD34991+0137259GE19AGL   +99999+99999GF199999999999005491999999MA1100855098015MW1715REMMET11301/05/25 05:11:02 METAR KRUT 051011Z 32003KT 5SM -SN BR SCT018 BKN025 OVC045 M08/M10 A2978 RMK AO2 P0000 FZRANO $
0310725165947372025010510257+43533-072950FM-15+0240KRUT V0203405N00265005495MN0040235V5-00805-01005999999ADDAA101000025AU110030015AU200001015AW1105AW2715GA1075+005495999GA2085+008535999GD13991+0054959GD24991+0085359GE19AGL   +99999+99999GF199999999999005491999999MA1100855098015MW1715REMMET12201/05/25 05:25:02 METAR KRUT 051025Z 34005KT 2 1/2SM -SN BR BKN018 OVC028 M08/M10 A2978 RMK AO2 VIS 1 1/4V5 P0000 FZRANO $
0332725165947372025010510347+43533-072950FM-15+0240KRUT V0200105N00155007625MN0080475N5-00805-01005999999ADDAA101000025AU110030015AU200001015AW1105AW2715GA1045+005495999GA2075+007625999GA3085+012505999GD12991+0054959GD23991+0076259GD34991+0125059GE19AGL   +99999+99999GF199999999999005491999999MA1100855098015MW1715REMMET11301/05/25 05:34:02 METAR KRUT 051034Z 01003KT 5SM -SN BR SCT018 BKN025 OVC041 M08/M10 A2978 RMK AO2 P0000 FZRANO $
0349725165947372025010510567+43533-072950FM-15+0240KRUT V0209999C00005007325MN0064375N5-00835-01005100925ADDAA101000025AU110030015AU200001015AW1105AW2715GA1075+007325999GA2075+009145999GA3085+011585999GD13991+0073259GD23991+0091459GD34991+0115859GE19AGL   +99999+99999GF199999999999007321999999MA1100855098015MW1715REMMET13001/05/25 05:56:02 METAR KRUT 051056Z 00000KT 4SM -SN BR BKN024 BKN030 OVC038 M08/M10 A2978 RMK AO2 SLP092 P0000 T10831100 FZRANO $
0306725165947372025010511107+43533-072950FM-15+0240KRUT V0203105N00215006405MN0032195V5-00805-00905999999ADDAA101000025AU110030015AU200001015AW1105AW2715GA1045+003965999GA2085+006405999GD12991+0039659GD24991+0064059GE19AGL   +99999+99999GF199999999999003961999999MA1100855098015MW1715REMMET11801/05/25 06:10:02 METAR KRUT 051110Z 31004KT 2SM -SN BR SCT013 OVC021 M08/M09 A2978 RMK AO2 VIS 1 1/2V3 P0000 FZRANO $
0298725165947372025010511217+43533-072950FM-15+0240KRUT V0203305N00265004885MN0028165N5-00805-00905999999ADDAA101000025AU110030015AU200001015AW1105AW2715GA1075+004885999GA2085+006405999GD13991+0048859GD24991+0064059GE19AGL   +99999+99999GF199999999999004881999999MA1100855098015MW1715REMMET11001/05/25 06:21:02 METAR KRUT 051121Z 33005KT 1 3/4SM -SN BR BKN016 OVC021 M08/M09 A2978 RMK AO2 P0000 FZRANO $
0298725165947372025010511407+43533-072950FM-15+0240KRUT V0209999C00005005495MN0040235N5-00805-00905999999ADDAA101000025AU110030015AU200001015AW1105AW2715GA1075+005495999GA2085+006715999GD13991+0054959GD24991+0067159GE19AGL   +99999+99999GF199999999999005491999999MA1100885098045MW1715REMMET11001/05/25 06:40:02 METAR KRUT 051140Z 00000KT 2 1/2SM -SN BR BKN018 OVC022 M08/M09 A2979 RMK AO2 P0000 FZRANO $
0294725165947372025010511517+43533-072950FM-15+0240KRUT V0203305N00265005495MN0048285N5-00805-00905999999ADDAA101000025AU110030015AU200001015AW1105AW2715GA1075+005495999GA2085+008535999GD13991+0054959GD24991+0085359GE19AGL   +99999+99999GF199999999999005491999999MA1100915098075MW1715REMMET10601/05/25 06:51:02 METAR KRUT 051151Z 33005KT 3SM -SN BR BKN018 OVC028 M08/M09 A2980 RMK AO2 P0000 FZRANO $
0406725165947372025010511567+43533-072950FM-15+0240KRUT V0203405N00265005495MN0028165V5-00835-00945100975ADDAA101000025AA206000021AU110030015AU200001015AW1105AW2715GA1025+003055999GA2085+005495999GD11991+0030559GD24991+0054959GE19AGL   +99999+99999GF199999999999003051999999KA1060M-00781MA1100915098075MD1390059+9999MW1715REMMET16101/05/25 06:56:02 METAR KRUT 051156Z 34005KT 1 3/4SM -SN BR FEW010 OVC018 M08/M09 A2980 RMK AO2 VIS 3/4V4 SLP097 P0000 60000 T10831094 11078 21094 53005 FZRANO $EQDQ01  00008PRCP06
0336725165947372025010512087+43533-072950FM-15+0240KRUT V0203505N00265004275MN0020125N5-00805-00905999999ADDAA101000025AU110030015AU200001015AW1105AW2715GA1075+004275999GA2075+006105999GA3085+008235999GD13991+0042759GD23991+0061059GD34991+0082359GE19AGL   +99999+99999GF199999999999004271999999MA1100915098075MW1715REMMET11701/05/25 07:08:02 METAR KRUT 051208Z 35005KT 1 1/4SM -SN BR BKN014 BKN020 OVC027 M08/M09 A2980 RMK AO2 P0000 FZRANO $
0340725165947372025010512157+43533-072950FM-15+0240KRUT V0203605N00265005185MN0032195V5-00805-00905999999ADDAA101000025AU110030015AU200001015AW1105AW2715GA1025+003355999GA2075+005185999GA3085+007325999GD11991+0033559GD23991+0051859GD34991+0073259GE19AGL   +99999+99999GF199999999999003351999999MA1100915098075MW1715REMMET12101/05/25 07:15:02 METAR KRUT 051215Z 36005KT 2SM -SN BR FEW011 BKN017 OVC024 M08/M09 A2980 RMK AO2 VIS 1V3 P0000 FZRANO $
0332725165947372025010512257+43533-072950FM-15+0240KRUT V0203505N00315006405MN0064375N5-00805-00905999999ADDAA101000025AU110030015AU200001015AW1105AW2715GA1025+003965999GA2075+006405999GA3085+008235999GD11991+0039659GD23991+0064059GD34991+0082359GE19AGL   +99999+99999GF199999999999003961999999MA1100915098075MW1715REMMET11301/05/25 07:25:02 METAR KRUT 051225Z 35006KT 4SM -SN BR FEW013 BKN021 OVC027 M08/M09 A2980 RMK AO2 P0000 FZRANO $
0310725165947372025010512367+43533-072950FM-15+0240KRUT V0203405N00215006105MN0040235V5-00805-00905999999ADDAA101000025AU110030015AU200001015AW1105AW2715GA1075+006105999GA2085+008235999GD13991+0061059GD24991+0082359GE19AGL   +99999+99999GF199999999999006101999999MA1100915098075MW1715REMMET12201/05/25 07:36:02 METAR KRUT 051236Z 34004KT 2 1/2SM -SN BR BKN020 OVC027 M08/M09 A2980 RMK AO2 VIS 1 1/2V4 P0000 FZRANO $
0285725165947372025010512567+43533-072950FM-15+0240KRUT V0203405N00415005495MN0040235V5-00785-00945101015ADDAA101000025AU110030015AU200001015AW1105AW2715GA1085+005495999GD14991+0054959GE19AGL   +99999+99999GF199999999999005491999999MA1100955098105MW1715REMMET12801/05/25 07:56:02 METAR KRUT 051256Z 34008KT 2 1/2SM -SN BR OVC018 M08/M09 A2981 RMK AO2 VIS 2V4 SLP101 P0000 T10781094 FZRANO $
0256725165947372025010513087+43533-072950FM-15+0240KRUT V0203505N00315004885MN0016095N5-00805-00905999999ADDAA101000025AU110030015AU200001015AW1105AW2715GA1085+004885999GD14991+0048859GE19AGL   +99999+99999GF199999999999004881999999MA1100955098105MW1715REMMET09901/05/25 08:08:02 METAR KRUT 051308Z 35006KT 1SM -SN BR OVC016 M08/M09 A2981 RMK AO2 P0000 FZRANO $
0304725165947372025010513287+43533-072950FM-15+0240KRUT V0203305N00365004885MN0032195V5-00805-00905999999ADDAA101000025AU110030015AU200001015AW1105AW2715GA1075+004885999GA2085+007015999GD13991+0048859GD24991+0070159GE19AGL   +99999+99999GF199999999999004881999999MA1100985098145MW1715REMMET11601/05/25 08:28:02 METAR KRUT 051328Z 33007KT 2SM -SN BR BKN016 OVC023 M08/M09 A2982 RMK AO2 VIS 3/4V4 P0000 FZRANO $
0332725165947372025010513377+43533-072950FM-15+0240KRUT V0203505N00365007015MN0048285N5-00805-00905999999ADDAA101000025AU110030015AU200001015AW1105AW2715GA1045+005495999GA2075+007015999GA3085+010975999GD12991+0054959GD23991+0070159GD34991+0109759GE19AGL   +99999+99999GF199999999999005491999999MA1101025098175MW1715REMMET11301/05/25 08:37:02 METAR KRUT 051337Z 35007KT 3SM -SN BR SCT018 BKN023 OVC036 M08/M09 A2983 RMK AO2 P0000 FZRANO $
0294725165947372025010513477+43533-072950FM-15+0240KRUT V0203505N00265010365MN0048285N5-00805-00905999999ADDAA101000025AU110030015AU200001015AW1105AW2715GA1025+004885999GA2085+010365999GD11991+0048859GD24991+0103659GE19AGL   +99999+99999GF199999999999004881999999MA1101025098175MW1715REMMET10601/05/25 08:47:02 METAR KRUT 051347Z 35005KT 3SM -SN BR FEW016 OVC034 M08/M09 A2983 RMK AO2 P0000 FZRANO $
0311725165947372025010513567+43533-072950FM-15+0240KRUT V0203405N00315010365MN0048285N5-00835-00945101095ADDAA101000025AU110030015AU200001015AW1105AW2715GA1075+010365999GA2085+012505999GD13991+0103659GD24991+0125059GE19AGL   +99999+99999GF199999999999010361999999MA1101025098175MW1715REMMET12301/05/25 08:56:02 METAR KRUT 051356Z 34006KT 3SM -SN BR BKN034 OVC041 M08/M09 A2983 RMK AO2 SLP109 P0000 T10831094 FZRANO $
0298725165947372025010514367+43533-072950FM-15+0240KRUT V0203405N00515003355MN0040235N5-00805-01005999999ADDAA101000025AU110030015AU200001015AW1105AW2715GA1075+003355999GA2085+013415999GD13991+0033559GD24991+0134159GE19AGL   +99999+99999GF199999999999003351999999MA1101085098245MW1715REMMET11001/05/25 09:36:02 METAR KRUT 051436Z 34010KT 2 1/2SM -SN BR BKN011 OVC044 M08/M10 A2985 RMK AO2 P0000 FZRANO $
0336725165947372025010514457+43533-072950FM-15+0240KRUT V0203405N00465003965MN0020125N5-00805-01005999999ADDAA101000025AU110030015AU200001015AW1105AW2715GA1075+003965999GA2075+007925999GA3085+013415999GD13991+0039659GD23991+0079259GD34991+0134159GE19AGL   +99999+99999GF199999999999003961999999MA1101125098275MW1715REMMET11701/05/25 09:45:02 METAR KRUT 051445Z 34009KT 1 1/4SM -SN BR BKN013 BKN026 OVC044 M08/M10 A2986 RMK AO2 P0000 FZRANO $
0420725165947372025010514567+43533-072950FM-15+0240KRUT V0203405N00515003965MN0020125N5-00835-01005101185ADDAA101000025AA203000021AU110030015AU200001015AW1105AW2715GA1075+003965999GA2075+005495999GA3085+007925999GD13991+0039659GD23991+0054959GD34991+0079259GE19AGL   +99999+99999GF199999999999003961999999MA1101125098275MD1390179+9999MW1715OC100775REMMET14901/05/25 09:56:02 METAR KRUT 051456Z 34010G15KT 1 1/4SM -SN BR BKN013 BKN018 OVC026 M08/M10 A2986 RMK AO2 SLP118 P0000 60000 T10831100 53017 FZRANO $EQDQ01  00008PRCP03
0305725165947372025010515037+43533-072950FM-15+0240KRUT V0203405N00515007925MN0032195N5-00805-01005999999ADDAA101000025AU110030015AU200001015AW1105AW2715GA1045+003965999GA2085+007925999GD12991+0039659GD24991+0079259GE19AGL   +99999+99999GF199999999999003961999999MA1101125098275MW1715OC100775REMMET10901/05/25 10:03:02 METAR KRUT 051503Z 34010G15KT 2SM -SN BR SCT013 OVC026 M08/M10 A2986 RMK AO2 P0000 FZRANO $
0312725165947372025010515547+43533-072950FM-15+0240KRUT V0203305N00365008235MN0048285N5-00805-01105999999ADDAA101000025AU110030015AW1715GA1045+006405999GA2075+008235999GA3085+013115999GD12991+0064059GD23991+0082359GD34991+0131159GE19AGL   +99999+99999GF199999999999006401999999MA1101125098275MW1715REMMET11001/05/25 10:54:02 METAR KRUT 051554Z 33007KT 3SM -SN SCT021 BKN027 OVC043 M08/M11 A2986 RMK AO2 P0000 FZRANO $
0329725165947372025010515567+43533-072950FM-15+0240KRUT V0203305N00365008235MN0048285N5-00835-01115101195ADDAA101000025AU110030015AW1715GA1045+006405999GA2075+008235999GA3085+013115999GD12991+0064059GD23991+0082359GD34991+0131159GE19AGL   +99999+99999GF199999999999006401999999MA1101125098275MW1715REMMET12701/05/25 10:56:02 METAR KRUT 051556Z 33007KT 3SM -SN SCT021 BKN027 OVC043 M08/M11 A2986 RMK AO2 SLP119 P0000 T10831111 FZRANO $
0312725165947372025010516097+43533-072950FM-15+0240KRUT V0203405N00515013115MN0064375N5-00805-01105999999ADDAA101000025AU110030015AW1715GA1025+006405999GA2045+008235999GA3085+013115999GD11991+0064059GD22991+0082359GD34991+0131159GE19AGL   +99999+99999GF199999999999006401999999MA1101125098275MW1715REMMET11001/05/25 11:09:02 METAR KRUT 051609Z 34010KT 4SM -SN FEW021 SCT027 OVC043 M08/M11 A2986 RMK AO2 P0000 FZRANO $
0328725165947372025010516537+43533-072950FM-15+0240KRUT V0203305N00415008845MN0040235V5-00805-01205999999ADDAA101000025AU110030015AW1715GA1045+006405999GA2075+008845999GA3085+013115999GD12991+0064059GD23991+0088459GD34991+0131159GE19AGL   +99999+99999GF199999999999006401999999MA1101125098275MW1715REMMET12601/05/25 11:53:02 METAR KRUT 051653Z 33008KT 2 1/2SM -SN SCT021 BKN029 OVC043 M08/M12 A2986 RMK AO2 VIS 1 3/4V4 P0000 FZRANO $
0329725165947372025010516567+43533-072950FM-15+0240KRUT V0203305N00365006405MN0048285N5-00835-01175101205ADDAA101000025AU110030015AW1715GA1075+006405999GA2075+008845999GA3085+013115999GD13991+0064059GD23991+0088459GD34991+0131159GE19AGL   +99999+99999GF199999999999006401999999MA1101125098275MW1715REMMET12701/05/25 11:56:02 METAR KRUT 051656Z 33007KT 3SM -SN BKN021 BKN029 OVC043 M08/M12 A2986 RMK AO2 SLP120 P0000 T10831117 FZRANO $
0286725165947372025010517197+43533-072950FM-15+0240KRUT V0203405N00465005185MN0040235V5-00805-01105999999ADDAA101000025AU110030015AW1715GA1075+005185999GA2085+007925999GD13991+0051859GD24991+0079259GE19AGL   +99999+99999GF199999999999005181999999MA1101125098275MW1715REMMET11501/05/25 12:19:02 METAR KRUT 051719Z 34009KT 2 1/2SM -SN BKN017 OVC026 M08/M11 A2986 RMK AO2 VIS 2V4 P0000 FZRANO $
0397725165947372025010517567+43533-072950FM-15+0240KRUT V0203505N00515004575MN0028165V5-00895-01175101205ADDAA101000025AA206000021AU110030015AW1715GA1075+004575999GA2085+007325999GD13991+0045759GD24991+0073259GE19AGL   +99999+99999GF199999999999004571999999KA1060M-00781KA2060N-00891MA1101125098275MD1090009+9999MW1715REMMET15601/05/25 12:56:02 METAR KRUT 051756Z 35010KT 1 3/4SM -SN BKN015 OVC024 M09/M12 A2986 RMK AO2 VIS 1V3 SLP120 P0000 60000 T10891117 11078 21089 50000 FZRANO $EQDQ01  00008PRCP06
0286725165947372025010518067+43533-072950FM-15+0240KRUT V0203405N00315005185MN0032195V5-00905-01205999999ADDAA101000025AU110030015AW1715GA1075+005185999GA2085+007325999GD13991+0051859GD24991+0073259GE19AGL   +99999+99999GF199999999999005181999999MA1101125098275MW1715REMMET11501/05/25 13:06:02 METAR KRUT 051806Z 34006KT 2SM -SN BKN017 OVC024 M09/M12 A2986 RMK AO2 VIS 1 1/2V3 P0000 FZRANO $
0274725165947372025010518227+43533-072950FM-15+0240KRUT V0203505N00465007325MN0048285N5-00805-01205999999ADDAA101000025AU110030015AW1715GA1045+004575999GA2085+007325999GD12991+0045759GD24991+0073259GE19AGL   +99999+99999GF199999999999004571999999MA1101125098275MW1715REMMET10301/05/25 13:22:02 METAR KRUT 051822Z 35009KT 3SM -SN SCT015 OVC024 M08/M12 A2986 RMK AO2 P0000 FZRANO $
0302725165947372025010518567+43533-072950FM-15+0240KRUT V0203605N00625005795MN0064375N5-00945-01225101235ADDAA101000025AU110030015AW1715GA1075+005795999GA2085+007625999GD13991+0057959GD24991+0076259GE19AGL   +99999+99999GF199999999999005791999999MA1101155098305MW1715OC100825REMMET12301/05/25 13:56:02 METAR KRUT 051856Z 36012G16KT 4SM -SN BKN019 OVC025 M09/M12 A2987 RMK AO2 SLP123 P0000 T10941122 FZRANO $
0323725165947372025010519427+43533-072950FM-15+0240KRUT V0203405N00415015245MN0144845N5-00905-01305999999ADDAA101000025AU110030015AW1715GA1025+005795999GA2075+015245999GA3085+019815999GD11991+0057959GD23991+0152459GD34991+0198159GE19AGL   +99999+99999GF199999999999005791999999MA1101255098405MW1715OC100935REMMET11301/05/25 14:42:02 METAR KRUT 051942Z 34008G18KT 9SM -SN FEW019 BKN050 OVC065 M09/M13 A2990 RMK AO2 P0000 FZRANO $
0253725165947372025010519567+43533-072950FM-15+0240KRUT V0203405N00465015245MN0144845N5-00945-01335101355ADDAA101000025AU110030015AW1715GA1085+015245999GD14991+0152459GE19AGL   +99999+99999GF199999999999015241999999MA1101255098405MW1715REMMET11301/05/25 14:56:02 METAR KRUT 051956Z 34009KT 9SM -SN OVC050 M09/M13 A2990 RMK AO2 SLP135 P0000 T10941133 FZRANO $
0309725165947372025010520567+43533-072950FM-15+0240KRUT V0203505N00515014635MN0144845N5-01005-01395101435ADDAA101000025AA203000021AU110030015AW1715GA1085+014635999GD14991+0146359GE19AGL   +99999+99999GF199999999999014631999999MA1101355098505MD1390219+9999MW1715REMMET12501/05/25 15:56:02 METAR KRUT 052056Z 35010KT 9SM -SN OVC048 M10/M14 A2993 RMK AO2 SLP143 P0000 60000 T11001139 53021 FZRANO $EQDQ01  00008PRCP03
0233725165947372025010521567+43533-072950FM-15+0240KRUT V0203405N00465012195MN0160935N5-01115-01445101535ADDAA101000025GA1085+012195999GD14991+0121959GE19AGL   +99999+99999GF199999999999012191999999MA1101425098575REMMET11601/05/25 16:56:02 METAR KRUT 052156Z 34009KT 10SM OVC040 M11/M14 A2995 RMK AO2 SNE50 SLP153 P0000 T11111144 FZRANO $
0255725165947372025010522567+43533-072950FM-15+0240KRUT V0203205N002652200059N0160935N5-01225-01505101615ADDAA101000025GA1045+010975999GD12991+0109759GE19AGL   +99999+99999GF104995999999010971999999MA1101525098675REMMET11901/05/25 17:56:02 METAR KRUT 052256Z 32005KT 10SM SCT036 M12/M15 A2998 RMK AO2 SNB09E46 SLP161 P0000 T11221150 FZRANO $EQDD01      0ADE726
0204725165947372025010523367+43533-072950FM-15+0240KRUT V0203205N00315008845MN0160935N5-01205-01505999999ADDAA101000025GA1085+008845999GD14991+0088459GE19AGL   +99999+99999GF199999999999008841999999MA1101565098705REMMET08701/05/25 18:36:02 METAR KRUT 052336Z 32006KT 10SM OVC029 M12/M15 A2999 RMK AO2 FZRANO $
0296725165947372025010523567+43533-072950FM-15+0240KRUT V0203105N00215007925MN0160935N5-01225-01505101685ADDAA101000025AA206000021GA1085+007925999GD14991+0079259GE19AGL   +99999+99999GF199999999999007921999999KA1060M-00831KA2060N-01221MA1101595098735MD1190249+9999REMMET12801/05/25 18:56:02 METAR KRUT 052356Z 31004KT 10SM OVC026 M12/M15 A3000 RMK AO2 SLP168 60000 T11221150 11083 21122 51024 FZRANO $
0237725165947372025010600567+43533-072950FM-15+0240KRUT V0203005N00265007325MN0144845N5-01225-01505101735ADDAA101000025GA1085+007325999GD14991+0073259GE19AGL   +99999+99999GF199999999999007321999999MA1101635098775REMMET12001/05/25 19:56:01 METAR KRUT 060056Z 30005KT 9SM OVC024 M12/M15 A3001 RMK AO2 SNB2358E54 SLP173 P0000 T11221150 FZRANO $
0255725165947372025010601567+43533-072950FM-15+0240KRUT V0203305N002152200059N0160935N5-01335-01615101785ADDAA101000025GA1045+007325999GD12991+0073259GE19AGL   +99999+99999GF104995999999007321999999MA1101695098835REMMET11901/05/25 20:56:01 METAR KRUT 060156Z 33004KT 10SM SCT024 M13/M16 A3003 RMK AO2 SNB04E42 SLP178 P0000 T11331161 FZRANO $EQDD01      0ADE726
0233725165947372025010602567+43533-072950FM-15+0240KRUT V0203605N002152200059N0160935N5-01445-01675101745ADDAA101000095AA203000021GA1005+999999999GD10991+9999999GF100991999999999999999999MA1101635098775MD1090049+9999REMMET11301/05/25 21:56:01 METAR KRUT 060256Z 36004KT 10SM CLR M14/M17 A3001 RMK AO2 SLP174 60000 T11441167 50004 FZRANO $
0234725165947372025010603567+43533-072950FM-15+0240KRUT V0209999C000052200059N0144845N5-01505-01725101765ADDAA101000025AU110030015AW1715GA1005+999999999GD10991+9999999GF100991999999999999999999MA1101665098805MW1715REMMET11601/05/25 22:56:02 METAR KRUT 060356Z 00000KT 9SM -SN CLR M15/M17 A3002 RMK AO2 SNB10 SLP176 P0000 T11501172 FZRANO $
0240725165947372025010604567+43533-072950FM-15+0240KRUT V0209999C000052200059N0160935N5-01615-01835101795ADDAA101000095GA1005+999999999GD10991+9999999GF100991999999999999999999KA1240M-00501KA2240N-01611MA1101665098805REMMET11901/05/25 23:56:02 METAR KRUT 060456Z 00000KT 10SM CLR M16/M18 A3002 RMK AO2 SNE0357 SLP179 T11611183 410501161 FZRANO $
0905725165947372025010604596+43533-072950SOD  +0240KRUT V020999999999999999999999999999+99999+99999999999ADDAA124000025AT1AU18SN  5AT2AU13BR  5AX1015245KA1240M-00495KA2240N-01605MG1098254100814OE11240093936014335OE22240076036015135OE33240030499999995REMSOD75124 HR PRECIPITATION (IN):T     WEATHER(CODE):1  24 HR MAX TEMP (F):23 24 HR MAX TEMP TIME (LST):0023 24 HR MIN TEMP (F):03 24 HR MIN TEMP TIME (LST):2359 AVERAGE STATION PRESSURE(D):29.013 MINIMUM SEA LEVEL PRESSURE:29.77 TIME OF OCCURRENCE:0102 PEAK WIND SPEED (MPH):21  PEAK WIND DIR (DEG):360 PEAK WIND TIME (LST):1433  FASTEST 2MIN SPEED (MPH):17 FASTEST 2MIN DIR (DEG):360 FASTEST 2MIN TIME (LST):1513 AVERAGE WIND SPEED (MPH): 6.8 24 HR AVG TEMP (F):13 HEATING DEGREE DAYS: 52 COOLING DEGREE DAYS:  0 LATEST DAY MAX TEMP (0700-1900 LST): 18 LATEST NIGHT MIN TEMP(1900-0800 LST):15 HOURLY INCREMENTAL PRECIPITATION VALUES (IN):    T    T    T    T    T    T    T    T    T    T    T    T    T    T    T    T    T    T    T    T     0.00T     0.00
0271725165947372025010605567+43533-072950FM-15+0240KRUT V0209999C000052200059N0160935N5-01675-01895101695ADDAA101000095AA206000021GA1005+999999999GD10991+9999999GF100991999999999999999999KA1060M-01221KA2060N-01671MA1101595098735MD1890049+9999REMMET12501/06/25 00:56:02 METAR KRUT 060556Z 00000KT 10SM CLR M17/M19 A3000 RMK AO2 SLP169 60000 T11671189 11122 21167 58004 FZRANO $
0221725165947372025010606567+43533-072950FM-15+0240KRUT V0209999C00005009455MN0160935N5-01445-01615101705ADDAA101000095GA1085+009455999GD14991+0094559GE19AGL   +99999+99999GF199999999999009451999999MA1101595098735REMMET10401/06/25 01:56:02 METAR KRUT 060656Z 00000KT 10SM OVC031 M14/M16 A3000 RMK AO2 SLP170 T11441161 FZRANO $
0204725165947372025010607217+43533-072950FM-15+0240KRUT V0209999C00005008845MN0160935N5-01405-01605999999ADDAA101000095GA1085+008845999GD14991+0088459GE19AGL   +99999+99999GF199999999999008841999999MA1101595098735REMMET08701/06/25 02:21:02 METAR KRUT 060721Z 00000KT 10SM OVC029 M14/M16 A3000 RMK AO2 FZRANO $
0259725165947372025010607567+43533-072950FM-15+0240KRUT V0209999C00005008235MN0144845N5-01505-01725101745ADDAA101000025AU110030015AW1715GA1075+008235999GD13991+0082359GE19AGL   +99999+99999GF199999999999008231999999MA1101635098775MW1715REMMET11901/06/25 02:56:02 METAR KRUT 060756Z 00000KT 9SM -SN BKN027 M15/M17 A3001 RMK AO2 SNB34 SLP174 P0000 T11501172 FZRANO $
0293725165947372025010608117+43533-072950FM-15+0240KRUT V0209999C000052200059N0144845N5-01505-01705999999ADDAA101000025AU110030015AW1715GA1025+005185999GA2045+008235999GD11991+0051859GD22991+0082359GE19AGL   +99999+99999GF104995999999005181999999MA1101635098775MW1715REMMET10301/06/25 03:11:02 METAR KRUT 060811Z 00000KT 9SM -SN FEW017 SCT027 M15/M17 A3001 RMK AO2 P0000 FZRANO $EQDD01      0ADE726
0215725165947372025010608317+43533-072950FM-15+0240KRUT V0209999C00005005185MN0144845N5-01505-01705999999ADDAA101000025GA1075+005185999GD13991+0051859GE19AGL   +99999+99999GF199999999999005181999999MA1101595098735REMMET09801/06/25 03:31:02 METAR KRUT 060831Z 00000KT 9SM BKN017 M15/M17 A3000 RMK AO2 SNE29 P0000 FZRANO $
0289725165947372025010608567+43533-072950FM-15+0240KRUT V0202905N00155005185MN0160935N5-01505-01615101705ADDAA101000025AA203000021GA1075+005185999GD13991+0051859GE19AGL   +99999+99999GF199999999999005181999999MA1101565098705MD1890019+9999REMMET12801/06/25 03:56:02 METAR KRUT 060856Z 29003KT 10SM BKN017 M15/M16 A2999 RMK AO2 SNE29 SLP170 P0000 60000 T11501161 58001 FZRANO $EQDQ01  00008PRCP03
0223725165947372025010609047+43533-072950FM-15+0240KRUT V0202805N001552200059N0160935N5-01505-01705999999ADDAA101000025GA1045+005185999GD12991+0051859GE19AGL   +99999+99999GF104995999999005181999999MA1101565098705REMMET08701/06/25 04:04:02 METAR KRUT 060904Z 28003KT 10SM SCT017 M15/M17 A2999 RMK AO2 FZRANO $EQDD01      0ADE726
0240725165947372025010609567+43533-072950FM-15+0240KRUT V0209999C000052200059N0160935N5-01505-01675101585ADDAA101000095GA1025+004885999GD11991+0048859GE19AGL   +99999+99999GF102995999999004881999999MA1101495098635REMMET10401/06/25 04:56:02 METAR KRUT 060956Z 00000KT 10SM FEW016 M15/M17 A2997 RMK AO2 SLP158 T11501167 FZRANO $EQDD01      0ADE726
0196725165947372025010610567+43533-072950FM-15+0240KRUT V0209999C000052200059N0160935N5-01565-01725101585ADDAA101000095GA1005+999999999GD10991+9999999GF100991999999999999999999MA1101465098605REMMET10101/06/25 05:56:02 METAR KRUT 061056Z 00000KT 10SM CLR M16/M17 A2996 RMK AO2 SLP158 T11561172 FZRANO $
0271725165947372025010611567+43533-072950FM-15+0240KRUT V0209999C000052200059N0160935N5-01505-01675101625ADDAA101000095AA206000021GA1005+999999999GD10991+9999999GF100991999999999999999999KA1060M-01441KA2060N-01671MA1101525098675MD1590069+9999REMMET12501/06/25 06:56:02 METAR KRUT 061156Z 00000KT 10SM CLR M15/M17 A2998 RMK AO2 SLP162 60000 T11501167 11144 21167 55006 FZRANO $
0196725165947372025010612567+43533-072950FM-15+0240KRUT V0209999C000052200059N0160935N5-01565-01675101605ADDAA101000095GA1005+999999999GD10991+9999999GF100991999999999999999999MA1101495098635REMMET10101/06/25 07:56:02 METAR KRUT 061256Z 00000KT 10SM CLR M16/M17 A2997 RMK AO2 SLP160 T11561167 FZRANO $
0196725165947372025010613567+43533-072950FM-15+0240KRUT V0203405N002152200059N0160935N5-01445-01565101565ADDAA101000095GA1005+999999999GD10991+9999999GF100991999999999999999999MA1101425098575REMMET10101/06/25 08:56:02 METAR KRUT 061356Z 34004KT 10SM CLR M14/M16 A2995 RMK AO2 SLP156 T11441156 FZRANO $
0267725165947372025010614567+43533-072950FM-15+0240KRUT V0203405N002152200059N0160935N5-01335-01505101435ADDAA101000095GA1045+003665999GD12991+0036659GE19AGL   +99999+99999GF104995999999003661999999MA1101325098475MD1890209+9999REMMET11701/06/25 09:56:02 METAR KRUT 061456Z 34004KT 10SM SCT012 M13/M15 A2992 RMK AO2 PRESFR SLP143 T11331150 58020 FZRANO $EQDD01      0ADE726
0196725165947372025010615567+43533-072950FM-15+0240KRUT V0203005N003152200059N0160935N5-01225-01505101425ADDAA101000095GA1005+999999999GD10991+9999999GF100991999999999999999999MA1101325098475REMMET10101/06/25 10:56:02 METAR KRUT 061556Z 30006KT 10SM CLR M12/M15 A2992 RMK AO2 SLP142 T11221150 FZRANO $
0196725165947372025010616567+43533-072950FM-15+0240KRUT V0203505N004152200059N0160935N5-01005-01505101195ADDAA101000095GA1005+999999999GD10991+9999999GF100991999999999999999999MA1101085098245REMMET10101/06/25 11:56:02 METAR KRUT 061656Z 35008KT 10SM CLR M10/M15 A2985 RMK AO2 SLP119 T11001150 FZRANO $
0254725165947372025010617567+43533-072950FM-15+0240KRUT V0203205N005152200059N0160935N5-01005-01505101085ADDAA101000095GA1005+999999999GD10991+9999999GF100991999999999999999999KA1060M-00941KA2060N-01561MA1100985098145MD1890339+9999REMMET11901/06/25 12:56:02 METAR KRUT 061756Z 32010KT 10SM CLR M10/M15 A2982 RMK AO2 SLP108 T11001150 11094 21156 58033 FZRANO $
0196725165947372025010618567+43533-072950FM-15+0240KRUT V0203305N004652200059N0160935N5-00895-01615100965ADDAA101000095GA1005+999999999GD10991+9999999GF100991999999999999999999MA1100855098015REMMET10101/06/25 13:56:02 METAR KRUT 061856Z 33009KT 10SM CLR M09/M16 A2978 RMK AO2 SLP096 T10891161 FZRANO $
0196725165947372025010619567+43533-072950FM-15+0240KRUT V0203105N004652200059N0160935N5-00895-01565100945ADDAA101000095GA1005+999999999GD10991+9999999GF100991999999999999999999MA1100855098015REMMET10101/06/25 14:56:02 METAR KRUT 061956Z 31009KT 10SM CLR M09/M16 A2978 RMK AO2 SLP094 T10891156 FZRANO $
0227725165947372025010620567+43533-072950FM-15+0240KRUT V0203305N004652200059N0160935N5-01115-01675100875ADDAA101000095GA1005+999999999GD10991+9999999GF100991999999999999999999MA1100785097945MD1690209+9999OC100775REMMET11001/06/25 15:56:02 METAR KRUT 062056Z 33009G15KT 10SM CLR M11/M17 A2976 RMK AO2 SLP087 T11111167 56020 FZRANO $
0196725165947372025010621567+43533-072950FM-15+0240KRUT V0203105N003152200059N0160935N5-01225-01675100865ADDAA101000095GA1005+999999999GD10991+9999999GF100991999999999999999999MA1100755097915REMMET10101/06/25 16:56:02 METAR KRUT 062156Z 31006KT 10SM CLR M12/M17 A2975 RMK AO2 SLP086 T11221167 FZRANO $
0204725165947372025010622457+43533-072950FM-15+0240KRUT V0203105N00265008235MN0160935N5-01305-01705999999ADDAA101000095GA1075+008235999GD13991+0082359GE19AGL   +99999+99999GF199999999999008231999999MA1100755097915REMMET08701/06/25 17:45:02 METAR KRUT 062245Z 31005KT 10SM BKN027 M13/M17 A2975 RMK AO2 FZRANO $
0221725165947372025010622567+43533-072950FM-15+0240KRUT V0203105N00315008235MN0160935N5-01285-01615100855ADDAA101000095GA1085+008235999GD14991+0082359GE19AGL   +99999+99999GF199999999999008231999999MA1100755097915REMMET10401/06/25 17:56:02 METAR KRUT 062256Z 31006KT 10SM OVC027 M13/M16 A2975 RMK AO2 SLP085 T11281161 FZRANO $
0353725165947372025010623567+43533-072950FM-15+0240KRUT V0203105N00365006405MN0144845N5-01175-01505100785ADDAA101000025AA206000021AU110030015AW1715GA1085+006405999GD14991+0064059GE19AGL   +99999+99999GF199999999999006401999999KA1060M-00831KA2060N-01281MA1100685097845MD1890109+9999MW1715REMMET14301/06/25 18:56:02 METAR KRUT 062356Z 31007KT 9SM -SN OVC021 M12/M15 A2973 RMK AO2 SNB39 SLP078 P0000 60000 T11171150 11083 21128 58010 FZRANO $EQDQ01  00008PRCP06
0253725165947372025010700567+43533-072950FM-15+0240KRUT V0203405N00465006405MN0144845N5-01175-01505100735ADDAA101000025AU110030015AW1715GA1085+006405999GD14991+0064059GE19AGL   +99999+99999GF199999999999006401999999MA1100615097775MW1715REMMET11301/06/25 19:56:01 METAR KRUT 070056Z 34009KT 9SM -SN OVC021 M12/M15 A2971 RMK AO2 SLP073 P0000 T11171150 FZRANO $
0264725165947372025010701567+43533-072950FM-15+0240KRUT V0203105N00465006405MN0144845N5-01115-01445100685ADDAA101000025AU110030015AW1715GA1085+006405999GD14991+0064059GE19AGL   +99999+99999GF199999999999006401999999MA1100585097745MW1715OC100725REMMET11601/06/25 20:56:01 METAR KRUT 070156Z 31009G14KT 9SM -SN OVC021 M11/M14 A2970 RMK AO2 SLP068 P0000 T11111144 FZRANO $
0320725165947372025010702567+43533-072950FM-15+0240KRUT V0203205N00515007015MN0144845N5-01175-01445100665ADDAA101000025AA203000021AU110030015AW1715GA1085+007015999GD14991+0070159GE19AGL   +99999+99999GF199999999999007011999999MA1100545097715MD1690139+9999MW1715OC101035REMMET12801/06/25 21:56:01 METAR KRUT 070256Z 32010G20KT 9SM -SN OVC023 M12/M14 A2969 RMK AO2 SLP066 P0000 60000 T11171144 56013 FZRANO $EQDQ01  00008PRCP03
0253725165947372025010703567+43533-072950FM-15+0240KRUT V0203105N00365007325MN0144845N5-01175-01445100665ADDAA101000025AU110030015AW1715GA1085+007325999GD14991+0073259GE19AGL   +99999+99999GF199999999999007321999999MA1100545097715MW1715REMMET11301/06/25 22:56:02 METAR KRUT 070356Z 31007KT 9SM -SN OVC024 M12/M14 A2969 RMK AO2 SLP066 P0000 T11171144 FZRANO $
0289725165947372025010704567+43533-072950FM-15+0240KRUT V0202905N00315006715MN0064375N5-01175-01445100635ADDAA101000025AU110030015AW1715GA1085+006715999GD14991+0067159GE19AGL   +99999+99999GF199999999999006711999999KA1240M-00831KA2240N-01671MA1100545097715MW1715REMMET12301/06/25 23:56:02 METAR KRUT 070456Z 29006KT 4SM -SN OVC022 M12/M14 A2969 RMK AO2 SLP063 P0000 T11171144 410831167 FZRANO $
