0142725165947372021010100564+43529-072950FM-15+024099999V0203501N001512200019N016093199-00061-00561102531ADDGF100991999999999999999999MA1102511999999REMMET089METAR KRUT 010056Z AUTO 35003KT 10SM CLR M01/M06 A3027 RMK AO2 SLP253 T10061056 FZRANO $=
0142725165947372021010101564+43529-072950FM-15+024099999V0209999C000012200019N016093199-00111-00561102611ADDGF100991999999999999999999MA1102571999999REMMET089METAR KRUT 010156Z AUTO 00000KT 10SM CLR M01/M06 A3029 RMK AO2 SLP261 T10111056 FZRANO $=
0162725165947372021010102564+43529-072950FM-15+024099999V0209999C000012200019N016093199-00281-00501102731ADDGF100991999999999999999999MA1102671999999MD1210291+9999REMMET095METAR KRUT 010256Z AUTO 00000KT 10SM CLR M03/M05 A3032 RMK AO2 SLP273 T10281050 52029 FZRANO $=
0142725165947372021010103564+43529-072950FM-15+024099999V0209999C000012200019N016093199-00281-00561102821ADDGF100991999999999999999999MA1102781999999REMMET089METAR KRUT 010356Z AUTO 00000KT 10SM CLR M03/M06 A3035 RMK AO2 SLP282 T10281056 FZRANO $=
0218725165947372021010104564+43529-072950FM-15+024099999V0201301N001510106719N016093199-00331-00501102921ADDGD14991+0106719GE19MSL   +99999+99999GF199999999999010671999999KA1240M+00611KA2240N-00391MA1102881999999REMMET102METAR KRUT 010456Z AUTO 13003KT 10SM OVC035 M03/M05 A3038 RMK AO2 SLP292 T10331050 400611039 FZRANO $=
0484725165947372021010104596+43533-072950SOD  +0240KRUT V020999999999999999999999999999+99999+99999999999ADDAA124000595AT1AU16RA  5AT2AU19UP  5KA1240M+00615KA2240N-00386OE11240134122099995OE22240089423099995OE33240038099999995REMSOD33524 HR PRECIPITATION (IN): 0.02 24 HR MAX TEMP (F): 4324 HR MIN TEMP (F): 25PEAK WIND SPEED (MPH): 30 PEAK WIND DIR (DEG):220 PEAK WIND TIME (LST):      FASTEST 2MIN SPEED (MPH): 20FASTEST 2MIN DIR (DEG):230 FASTEST 2MIN TIME (LST):     AVERAGE WIND SPEED (MPH): 8.5 24 HR AVG TEMP (F): 34HEATING DEGREE DAYS: 31 COOLING DEGREE DAYS:  0EQDR01    257KAN011
0268725165947372021010105567+43533-072950FM-15+0240KRUT V0203405N00215010675MN0160935N5-00285-00505102995ADDGA1085+010675999GD14991+0106759GE19MSL   +99999+99999GF199999999999010671999999KA1060M+00111KA2060N-00391MA1102955100065MD1190259+9999REMMET12201/01/21 00:56:02 METAR KRUT 010556Z 34004KT 10SM OVC035 M03/M05 A3040 RMK AO2 SLP299 T10281050 10011 21039 51025 FZRANO $
0210725165947372021010106567+43533-072950FM-15+0240KRUT V0203505N00265009455MN0160935N5-00285-00505103055ADDGA1085+009455999GD14991+0094559GE19MSL   +99999+99999GF199999999999009451999999MA1103015100125REMMET10401/01/21 01:56:02 METAR KRUT 010656Z 35005KT 10SM OVC031 M03/M05 A3042 RMK AO2 SLP305 T10281050 FZRANO $
0210725165947372021010107567+43533-072950FM-15+0240KRUT V0203505N00155009455MN0160935N5-00335-00505103135ADDGA1085+009455999GD14991+0094559GE19MSL   +99999+99999GF199999999999009451999999MA1103085100195REMMET10401/01/21 02:56:02 METAR KRUT 010756Z 35003KT 10SM OVC031 M03/M05 A3044 RMK AO2 SLP313 T10331050 FZRANO $
0193725165947372021010108397+43533-072950FM-15+0240KRUT V0209999C00005008845MN0160935N5-00305-00605999999ADDGA1085+008845999GD14991+0088459GE19MSL   +99999+99999GF199999999999008841999999MA1103085100195REMMET08701/01/21 03:39:02 METAR KRUT 010839Z 00000KT 10SM OVC029 M03/M06 A3044 RMK AO2 FZRANO $
0230725165947372021010108567+43533-072950FM-15+0240KRUT V0209999C00005008845MN0160935N5-00335-00565103145ADDGA1085+008845999GD14991+0088459GE19MSL   +99999+99999GF199999999999008841999999MA1103085100195MD1190139+9999REMMET11001/01/21 03:56:02 METAR KRUT 010856Z 00000KT 10SM OVC029 M03/M06 A3044 RMK AO2 SLP314 T10331056 51013 FZRANO $
0210725165947372021010109567+43533-072950FM-15+0240KRUT V0209999C00005008845MN0160935N5-00335-00565103215ADDGA1085+008845999GD14991+0088459GE19MSL   +99999+99999GF199999999999008841999999MA1103155100265REMMET10401/01/21 04:56:02 METAR KRUT 010956Z 00000KT 10SM OVC029 M03/M06 A3046 RMK AO2 SLP321 T10331056 FZRANO $
0210725165947372021010110567+43533-072950FM-15+0240KRUT V0209999C00005008235MN0160935N5-00335-00565103265ADDGA1085+008235999GD14991+0082359GE19MSL   +99999+99999GF199999999999008231999999MA1103225100325REMMET10401/01/21 05:56:02 METAR KRUT 011056Z 00000KT 10SM OVC027 M03/M06 A3048 RMK AO2 SLP326 T10331056 FZRANO $
0304725165947372021010111567+43533-072950FM-15+0240KRUT V0209999C00005008235MN0160935N5-00335-00615103275ADDAA124000391GA1085+008235999GD14991+0082359GE19MSL   +99999+99999GF199999999999008231999999KA1060M-00281KA2060N-00331MA1103225100325MD1190129+9999REMMET12801/01/21 06:56:02 METAR KRUT 011156Z 00000KT 10SM OVC027 M03/M06 A3048 RMK AO2 SLP327 70001 T10331061 11028 21033 51012 FZRANO $EQDQ01  00028PRCP24
0229725165947372021010112567+43533-072950FM-15+0240KRUT V0209999C000052200059N0160935N5-00445-00615103255ADDGA1045+008845999GD12991+0088459GE19AGL   +99999+99999GF104995999999008841999999MA1103225100325REMMET10401/01/21 07:56:02 METAR KRUT 011256Z 00000KT 10SM SCT029 M04/M06 A3048 RMK AO2 SLP325 T10441061 FZRANO $EQDD01      0ADE726
0185725165947372021010113567+43533-072950FM-15+0240KRUT V0209999C000052200059N0160935N5-00335-00615103315ADDGA1005+999999999GD10991+9999999GF100991999999999999999999MA1103285100395REMMET10101/01/21 08:56:02 METAR KRUT 011356Z 00000KT 10SM CLR M03/M06 A3050 RMK AO2 SLP331 T10331061 FZRANO $
0205725165947372021010114567+43533-072950FM-15+0240KRUT V0200505N001552200059N0160935N5-00225-00615103345ADDGA1005+999999999GD10991+9999999GF100991999999999999999999MA1103285100395MD1390089+9999REMMET10701/01/21 09:56:02 METAR KRUT 011456Z 05003KT 10SM CLR M02/M06 A3050 RMK AO2 SLP334 T10221061 53008 FZRANO $
0185725165947372021010115567+43533-072950FM-15+0240KRUT V0209999C000052200059N0160935N5-00115-00675103185ADDGA1005+999999999GD10991+9999999GF100991999999999999999999MA1103155100265REMMET10101/01/21 10:56:02 METAR KRUT 011556Z 00000KT 10SM CLR M01/M07 A3046 RMK AO2 SLP318 T10111067 FZRANO $
0185725165947372021010116567+43533-072950FM-15+0240KRUT V0200705N001552200059N0160935N5-00065-00675103095ADDGA1005+999999999GD10991+9999999GF100991999999999999999999MA1103055100165REMMET10101/01/21 11:56:02 METAR KRUT 011656Z 07003KT 10SM CLR M01/M07 A3043 RMK AO2 SLP309 T10061067 FZRANO $
0243725165947372021010117567+43533-072950FM-15+0240KRUT V0203605N002152200059N0160935N5-00065-00675103025ADDGA1005+999999999GD10991+9999999GF100991999999999999999999KA1060M-00061KA2060N-00441MA1102985100095MD1690319+9999REMMET11901/01/21 12:56:02 METAR KRUT 011756Z 36004KT 10SM CLR M01/M07 A3041 RMK AO2 SLP302 T10061067 11006 21044 56031 FZRANO $
0185725165947372021010118567+43533-072950FM-15+0240KRUT V0209999C000052200059N0160935N5-00065-00675102925ADDGA1005+999999999GD10991+9999999GF100991999999999999999999MA1102885099995REMMET10101/01/21 13:56:02 METAR KRUT 011856Z 00000KT 10SM CLR M01/M07 A3038 RMK AO2 SLP292 T10061067 FZRANO $
0185725165947372021010119567+43533-072950FM-15+0240KRUT V0203305N002152200059N0160935N5-00115-00675102925ADDGA1005+999999999GD10991+9999999GF100991999999999999999999MA1102885099995REMMET10101/01/21 14:56:02 METAR KRUT 011956Z 33004KT 10SM CLR M01/M07 A3038 RMK AO2 SLP292 T10111067 FZRANO $
0205725165947372021010120567+43533-072950FM-15+0240KRUT V0200105N002152200059N0160935N5-00115-00615102845ADDGA1005+999999999GD10991+9999999GF100991999999999999999999MA1102815099925MD1690189+9999REMMET10701/01/21 15:56:02 METAR KRUT 012056Z 01004KT 10SM CLR M01/M06 A3036 RMK AO2 SLP284 T10111061 56018 FZRANO $
0185725165947372021010121567+43533-072950FM-15+0240KRUT V0203305N001552200059N0160935N5-00175-00615102745ADDGA1005+999999999GD10991+9999999GF100991999999999999999999MA1102715099835REMMET10101/01/21 16:56:02 METAR KRUT 012156Z 33003KT 10SM CLR M02/M06 A3033 RMK AO2 SLP274 T10171061 FZRANO $
0185725165947372021010122567+43533-072950FM-15+0240KRUT V0203205N001552200059N0160935N5-00225-00615102655ADDGA1005+999999999GD10991+9999999GF100991999999999999999999MA1102615099735REMMET10101/01/21 17:56:02 METAR KRUT 012256Z 32003KT 10SM CLR M02/M06 A3030 RMK AO2 SLP265 T10221061 FZRANO $
0268725165947372021010123567+43533-072950FM-15+0240KRUT V0203005N00155033535MN0160935N5-00225-00615102585ADDGA1075+033535999GD13991+0335359GE19MSL   +99999+99999GF199999999999033531999999KA1060M-00061KA2060N-00221MA1102545099665MD1690269+9999REMMET12201/01/21 18:56:02 METAR KRUT 012356Z 30003KT 10SM BKN110 M02/M06 A3028 RMK AO2 SLP258 T10221061 11006 21022 56026 FZRANO $
0248725165947372021010200567+43533-072950FM-15+0240KRUT V0202205N00155027435MN0160935N5-00115-00565102615ADDGA1075+027435999GA2085+033535999GD13991+0274359GD24991+0335359GE19MSL   +99999+99999GF199999999999027431999999MA1102575099695REMMET11101/01/21 19:56:01 METAR KRUT 020056Z 22003KT 10SM BKN090 OVC110 M01/M06 A3029 RMK AO2 SLP261 T10111056 FZRANO $
0313725165947372021010201567+43533-072950FM-15+0240KRUT V0201105N00575018295MN0160935N5-00115-00565102335ADDAA101000021AU110030015AW1715GA1075+018295999GA2085+022865999GD13991+0182959GD24991+0228659GE19MSL   +99999+99999GF199999999999018291999999MA1102305099435MW1715REMMET14201/01/21 20:56:01 METAR KRUT 020156Z 11011KT 10SM -SN BKN060 OVC075 M01/M06 A3021 RMK AO2 UPB20E54SNB56 PRESFR SLP233 P0000 T10111056 FZRANO $
0373725165947372021010202567+43533-072950FM-15+0240KRUT V0201605N00575014635MN0160935N5-00115-00505102115ADDAA101000021AA203000021GA1045+010975999GA2075+014635999GA3085+019815999GD12991+0109759GD23991+0146359GD34991+0198159GE19MSL   +99999+99999GF199999999999010971999999MA1102075099205MD1890449+9999REMMET15001/01/21 21:56:01 METAR KRUT 020256Z 16011KT 10SM SCT036 BKN048 OVC065 M01/M05 A3014 RMK AO2 UPB37E52SNE37 SLP211 P0000 60000 T10111050 58044 FZRANO $EQDQ01  00008PRCP03
0346725165947372021010203567+43533-072950FM-15+0240KRUT V0201205N00725011285MN0112655N5-00115-00445102005ADDAA101000021AU110030015AW1715GA1045+007925999GA2075+011285999GA3085+015245999GD12991+0079259GD23991+0112859GD34991+0152459GE19MSL   +99999+99999GF199999999999007921999999MA1101965099105MW1715OC100935REMMET13601/01/21 22:56:01 METAR KRUT 020356Z 12014G18KT 7SM -SN SCT026 BKN037 OVC050 M01/M04 A3011 RMK AO2 SNB40 SLP200 P0000 T10111044 FZRANO $
0294725165947372021010204107+43533-072950FM-15+0240KRUT V0201205N00575007925MN0048285N5-00205-00405999999ADDAA101000021AU110030015AU200001015AW1105AW2715GA1075+007925999GA2085+011285999GD13991+0079259GD24991+0112859GE19MSL   +99999+99999GF199999999999007921999999MA1101935099065MW1715REMMET10601/01/21 23:10:02 METAR KRUT 020410Z 12011KT 3SM -SN BR BKN026 OVC037 M02/M04 A3010 RMK AO2 P0000 FZRANO $
0309725165947372021010204567+43533-072950FM-15+0240KRUT V0201305N00415007925MN0048285N5-00175-00285101875ADDAA101000021AU110030015AU200001015AW1105AW2715GA1085+007925999GD14991+0079259GE19MSL   +99999+99999GF199999999999007921999999KA1240M-00061KA2240N-00441MA1101835098975MW1715REMMET12601/01/21 23:56:02 METAR KRUT 020456Z 13008KT 3SM -SN BR OVC026 M02/M03 A3007 RMK AO2 SLP187 P0000 T10171028 410061044 FZRANO $
0576725165947372021010204596+43533-072950SOD  +0240KRUT V020999999999999999999999999999+99999+99999999999ADDAA124000096AT1AU18SN  5AT2AU13BR  5AX1016246KA1240M-00055KA2240N-00435MG1099929999994OE11240093912099995OE22240071512099995OE33240017499999995REMSOD38724 HR PRECIPITATION (IN): 0.00 WEATHER(CODE):1  24 HR MAX TEMP (F): 3124 HR MIN TEMP (F): 24AVERAGE STATION PRESSURE(D):29.506 PEAK WIND SPEED (MPH): 21 PEAK WIND DIR (DEG):120 PEAK WIND TIME (LST):      FASTEST 2MIN SPEED (MPH): 16FASTEST 2MIN DIR (DEG):120 FASTEST 2MIN TIME (LST):     AVERAGE WIND SPEED (MPH): 3.9 24 HR AVG TEMP (F): 28HEATING DEGREE DAYS: 37 COOLING DEGREE DAYS:  0EQDR01  0.007AAP092R02     17AXW092
0312725165947372021010205467+43533-072950FM-15+0240KRUT V0201405N00365014945MN0112655N5-00205-00205999999ADDAA101000021AU110030015AW1715GA1025+008535999GA2045+010675999GA3085+014945999GD11991+0085359GD22991+0106759GD34991+0149459GE19MSL   +99999+99999GF199999999999008531999999MA1101695098835MW1715REMMET11001/02/21 00:46:02 METAR KRUT 020546Z 14007KT 7SM -SN FEW028 SCT035 OVC049 M02/M02 A3003 RMK AO2 P0000 FZRANO $
0385725165947372021010205567+43533-072950FM-15+0240KRUT V0201505N00415014025MN0112655N5-00175-00225101705ADDAA101000021AA206000021AU110030015AW1715GA1025+009755999GA2085+014025999GD11991+0097559GD24991+0140259GE19MSL   +99999+99999GF199999999999009751999999KA1060M-00061KA2060N-00221MA1101665098805MD1690209+9999MW1715REMMET14401/02/21 00:56:02 METAR KRUT 020556Z 15008KT 7SM -SN FEW032 OVC046 M02/M02 A3002 RMK AO2 SLP170 P0000 60000 T10171022 11006 21022 56020 FZRANO $EQDQ01  00008PRCP06
0284725165947372021010206567+43533-072950FM-15+0240KRUT V0201605N00625011285MN0096565N5-00175-00225101535ADDAA101000395AU110030015AU200001015AW1105AW2715GA1085+011285999GD14991+0112859GE19MSL   +99999+99999GF199999999999011281999999MA1101495098635MW1715OC100825REMMET11901/02/21 01:56:02 METAR KRUT 020656Z 16012G16KT 6SM -SN BR OVC037 M02/M02 A2997 RMK AO2 SLP153 P0001 T10171022 FZRANO $
0346725165947372021010207567+43533-072950FM-15+0240KRUT V0201605N00675010675MN0080475N5-00115-00115101315ADDAA101000395AU110030015AU200001015AW1105AW2715GA1025+004575999GA2085+010675999GD11991+0045759GD24991+0106759GE19MSL   +99999+99999GF199999999999004571999999MA1101295098445MW1715OC100885REMMET15001/02/21 02:56:02 METAR KRUT 020756Z 16013G17KT 5SM -SN BR FEW015 OVC035 M01/M01 A2991 RMK AO2 UPB42E50SNE42B50 PRESFR SLP131 P0001 T10111011 FZRANO $
0281725165947372021010208177+43533-072950FM-15+0240KRUT V0201805N00575005185MN0112655N5-00105-00105999999ADDAA101000021AU110030015AW1715GA1075+005185999GA2085+010675999GD13991+0051859GD24991+0106759GE19MSL   +99999+99999GF199999999999005181999999MA1101155098305MW1715REMMET11001/02/21 03:17:02 METAR KRUT 020817Z 18011KT 7SM -SN BKN017 OVC035 M01/M01 A2987 RMK AO2 PRESFR P0000 FZRANO $
0350725165947372021010208567+43533-072950FM-15+0240KRUT V0201505N00725005185MN0112655N5-00065-00065101005ADDAA101000395AA203000891AU110030015AW1715GA1085+005185999GD14991+0051859GE19MSL   +99999+99999GF199999999999005181999999MA1100955098105MD1890689+9999MW1715OC101185REMMET15801/02/21 03:56:02 METAR KRUT 020856Z 15014G23KT 7SM -SN OVC017 M01/M01 A2981 RMK AO2 UPB21E54SNE21B27E36B54 PRESFR SLP100 P0001 60003 T10061006 58068 FZRANO $EQDQ01  00078PRCP03
0342725165947372021010209567+43533-072950FM-15+0240KRUT V0201705N00575004575MN0096565N5+00005+00005100775ADDAA101001395AU120090015AU200001015AW1105AW2401AW3415GA1075+004575999GA2085+010975999GD13991+0045759GD24991+0109759GE19MSL   +99999+99999GF199999999999004571999999MA1100715097875OC101135REMMET14601/02/21 04:56:02 METAR KRUT 020956Z 17011G22KT 6SM UP BR BKN015 OVC036 00/00 A2974 RMK AO2 UPB19SNE19B23E34B44E55 SLP077 P0005 T00000000 FZRANO $
0309725165947372021010210107+43533-072950FM-15+0240KRUT V0201605N00775003965MN0080475N5+00005+00005999999ADDAA101001095AU120090015AU200001015AW1105AW2401AW3415GA1075+003965999GA2085+011585999GD13991+0039659GD24991+0115859GE19MSL   +99999+99999GF199999999999003961999999MA1100645097815OC101185REMMET11301/02/21 05:10:02 METAR KRUT 021010Z 16015G23KT 5SM UP BR BKN013 OVC038 00/00 A2972 RMK AO2 PRESFR P0004 FZRANO $
0290725165947372021010210337+43533-072950FM-15+0240KRUT V0201805V00515012195MN0160935N5+00005+00005999999ADDAA101001595AU120090015AW1401AW2415GA1045+004575999GA2085+012195999GD12991+0045759GD24991+0121959GE19MSL   +99999+99999GF199999999999004571999999MA1100585097745OC101035REMMET11101/02/21 05:33:02 METAR KRUT 021033Z 18010G20KT 10SM UP SCT015 OVC040 00/00 A2970 RMK AO2 PRESFR P0006 FZRANO $
0300725165947372021010210567+43533-072950FM-15+0240KRUT V0201705V00465004575MN0160935N5+00005+00005100615ADDAA101001895AU120090015AW1401AW2415GA1075+004575999GA2085+011585999GD13991+0045759GD24991+0115859GE19MSL   +99999+99999GF199999999999004571999999MA1100585097745OC100725REMMET12101/02/21 05:56:02 METAR KRUT 021056Z 17009G14KT 10SM UP BKN015 OVC038 00/00 A2970 RMK AO2 SLP061 P0007 T00000000 FZRANO $
0256725165947372021010211397+43533-072950FM-15+0240KRUT V0201705N00675003965MN0112655N5+00005+00005999999ADDAA101000895AU110030015AW1715GA1085+003965999GD14991+0039659GE19MSL   +99999+99999GF199999999999003961999999MA1100476097646MW1715OC100885REMMET10801/02/21 06:39:02 METAR KRUT 021139Z 17013G17KT 7SM -SN OVC013 00/00 A2967 RMK AO2 UPE38SNB38 P0003 FZRANO $
0473725165947372021010211567+43533-072950FM-15+0240KRUT V0201705V00515003965MN0128755N5+00005+00005100536ADDAA101001095AA206004891AA324004891AU120090015AW1401AW2415GA1075+003965999GA2075+005495999GA3085+010065999GD13991+0039659GD23991+0054959GD34991+0100659GE19MSL   +99999+99999GF199999999999003961999999KA1060M+00001KA2060N-00171MA1100515097675MD1690459+9999OC100885REMMET16601/02/21 06:56:02 METAR KRUT 021156Z 17010G17KT 8SM UP BKN013 BKN018 OVC033 00/00 A2968 RMK AO2 SNB38E48 SLP053 P0004 60019 70019 T00000000 10000 21017 56045 FZRANO $EQDQ01  00488PRCP06Q02  00488PRCP24
0333725165947372021010212537+43533-072950FM-15+0240KRUT V0201605N00465009145MN0160935N5+00105+00105999999ADDAA101000895AU110020015AW1615GA1045+003965999GA2075+009145999GA3085+011285999GD12991+0039659GD23991+0091459GD34991+0112859GE19MSL   +99999+99999GF199999999999003961999999MA1100515097675MW1615OC100825REMMET12301/02/21 07:53:02 METAR KRUT 021253Z 16009G16KT 10SM -RA SCT013 BKN030 OVC037 01/01 A2968 RMK AO2 UPE29RAB29 P0003 FZRANO $
0339725165947372021010212567+43533-072950FM-15+0240KRUT V0201805V00415009145MN0160935N5+00065+00065100546ADDAA101000895AU110020015AW1615GA1025+003965999GA2075+009145999GA3085+011285999GD11991+0039659GD23991+0091459GD34991+0112859GE19MSL   +99999+99999GF199999999999003961999999MA1100515097675MW1615REMMET13701/02/21 07:56:02 METAR KRUT 021256Z 18008KT 10SM -RA FEW013 BKN030 OVC037 01/01 A2968 RMK AO2 UPE29RAB29 SLP054 P0003 T00060006 FZRANO $
0311725165947372021010213177+43533-072950FM-15+0240KRUT V0201605N00465006405MN0160935N5+00105+00105999999ADDAA101000395AU110020015AW1615GA1025+003965999GA2075+006405999GA3085+008535999GD11991+0039659GD23991+0064059GD34991+0085359GE19MSL   +99999+99999GF199999999999003961999999MA1100585097745MW1615REMMET10901/02/21 08:17:02 METAR KRUT 021317Z 16009KT 10SM -RA FEW013 BKN021 OVC028 01/01 A2970 RMK AO2 P0001 FZRANO $
0276725165947372021010213567+43533-072950FM-15+0240KRUT V0201405N00415005495MN0112655N5+00065+00065100565ADDAA101000895AU110020015AW1615GA1085+005495999GD14991+0054959GE19MSL   +99999+99999GF199999999999005491999999MA1100545097715MW1615REMMET13601/02/21 08:56:02 METAR KRUT 021356Z 14008KT 7SM -RA OVC018 01/01 A2969 RMK AO2 RAE20B50UPB48E50SNB20E48 SLP056 P0003 T00060006 FZRANO $
0351725165947372021010214317+43533-072950FM-15+0240KRUT V0201705N00415006105MN0160935N5+00105+00105999999ADDAA101000595AU110020015AW1615GA1025+002135999GA2045+003665999GA3085+006105999GD11991+0021359GD22991+0036659GD34991+0061059GE19MSL   +99999+99999GF199999999999002131999999MA1100475097645MW1615OC100725REMMET14101/02/21 09:31:02 METAR KRUT 021431Z 17008G14KT 10SM -RA FEW007 SCT012 OVC020 01/01 A2967 RMK AO2 RAE1359B17UPB1359E02SNB02E17 P0002 FZRANO $
0375725165947372021010214567+43533-072950FM-15+0240KRUT V0201805N00155005795MN0160935N5+00115+00115100565ADDAA101000595AA203002091AU110020015AW1615GA1025+003965999GA2085+005795999GD11991+0039659GD24991+0057959GE19MSL   +99999+99999GF199999999999003961999999MA1100545097715MD1090039+9999MW1615REMMET16001/02/21 09:56:02 METAR KRUT 021456Z 18003KT 10SM -RA FEW013 OVC019 01/01 A2969 RMK AO2 RAE1359B17UPB1359E02SNB02E17 SLP056 P0002 60008 T00110011 50003 FZRANO $EQDQ01  00208PRCP03
0272725165947372021010215477+43533-072950FM-15+0240KRUT V0203505N00155003055MN0160935N5+00105+00105999999ADDAA101000021GA1075+003055999GA2085+003965999GD13991+0030551GD24991+0039659GE19MSL   +99999+99999GF199999999999003051999999MA1100585097745REMMET12401/02/21 10:47:02 METAR KRUT 021547Z 35003KT 10SM BKN010 OVC013 01/01 A2970 RMK AO2 RAE03UPB03E31 CIG 010V013 P0000 FZRANO $
0251725165947372021010215567+43533-072950FM-15+0240KRUT V0203605N00215003055MN0160935N5+00115+00115100615ADDAA101000021GA1085+003055999GD14991+0030551GE19MSL   +99999+99999GF199999999999003051999999MA1100585097745REMMET13401/02/21 10:56:02 METAR KRUT 021556Z 36004KT 10SM OVC010 01/01 A2970 RMK AO2 RAE03UPB03E31 CIG 009V013 SLP061 P0000 T00110011 FZRANO $
0203725165947372021010216387+43533-072950FM-15+0240KRUT V0200305N00265002445MN0160935N5+00105+00105999999ADDGA1085+002445999GD14991+0024451GE19MSL   +99999+99999GF199999999999002441999999MA1100515097675REMMET09701/02/21 11:38:02 METAR KRUT 021638Z 03005KT 10SM OVC008 01/01 A2968 RMK AO2 CIG 003V010 FZRANO $
0220725165947372021010216567+43533-072950FM-15+0240KRUT V0203205N00265002445MN0160935N5+00175+00175100565ADDGA1085+002445999GD14991+0024451GE19MSL   +99999+99999GF199999999999002441999999MA1100545097715REMMET11401/02/21 11:56:02 METAR KRUT 021656Z 32005KT 10SM OVC008 02/02 A2969 RMK AO2 CIG 006V013 SLP056 T00170017 FZRANO $
0229725165947372021010217117+43533-072950FM-15+0240KRUT V0202905N00315005795MN0160935N5+00205+00205999999ADDGA1045+003055999GA2085+005795999GD12991+0030559GD24991+0057959GE19MSL   +99999+99999GF199999999999003051999999MA1100585097745REMMET09201/02/21 12:11:02 METAR KRUT 021711Z 29006KT 10SM SCT010 OVC019 02/02 A2970 RMK AO2 FZRANO $
0291725165947372021010217417+43533-072950FM-15+0240KRUT V0203005N00465003055MN0160935N5+00205+00205999999ADDAA101000021AU110020015AW1615GA1075+003055999GA2085+004885999GD13991+0030551GD24991+0048859GE19MSL   +99999+99999GF199999999999003051999999MA1100685097845MW1615REMMET12001/02/21 12:41:02 METAR KRUT 021741Z 30009KT 10SM -RA BKN010 OVC016 02/02 A2973 RMK AO2 RAB33 CIG 008V013 P0000 FZRANO $
0366725165947372021010217567+43533-072950FM-15+0240KRUT V0203005N00265003055MN0160935N5+00225+00225100745ADDAA101000021AA206002091GA1075+003055999GA2085+004885999GD13991+0030559GD24991+0048859GE19MSL   +99999+99999GF199999999999003051999999KA1060M+00221KA2060N+00001MA1100715097875MD1390159+9999REMMET14801/02/21 12:56:02 METAR KRUT 021756Z 30005KT 10SM BKN010 OVC016 02/02 A2974 RMK AO2 RAB33E51 SLP074 P0000 60008 T00220022 10022 20000 53015 FZRANO $EQDQ01  00208PRCP06
0335725165947372021010218427+43533-072950FM-15+0240KRUT V0203505N00415003055MN0144845N5+00105+00105999999ADDAA101000021AU110020015AW1615GA1045+001225999GA2075+003055999GA3085+003965999GD12991+0012251GD23991+0030559GD34991+0039659GE19MSL   +99999+99999GF199999999999001221999999MA1100885098045MW1615REMMET13301/02/21 13:42:02 METAR KRUT 021842Z 35008KT 9SM -RA SCT004 BKN010 OVC013 01/01 A2979 RMK AO2 RAB12 CIG 008V011 PRESRR P0000 FZRANO $
0310725165947372021010218567+43533-072950FM-15+0240KRUT V0203405N00515001225MN0144845N5+00065+00065101005ADDAA101000021AU110020015AW1615GA1075+001225999GA2085+003055999GD13991+0012259GD24991+0030559GE19MSL   +99999+99999GF199999999999001221999999MA1100955098105MW1615REMMET13901/02/21 13:56:02 METAR KRUT 021856Z 34010KT 9SM -RA BKN004 OVC010 01/01 A2981 RMK AO2 RAB12UPB48E50 PRESRR SLP100 P0000 T00060006 FZRANO $
0322725165947372021010219447+43533-072950FM-15+0240KRUT V0203205N00725004575MN0144845N5+00005+00005999999ADDAA101000021GA1045+001225999GA2075+004575999GA3085+009145999GD12991+0012259GD23991+0045759GD34991+0091459GE19MSL   +99999+99999GF199999999999001221999999MA1101195098345OC101035REMMET13501/02/21 14:44:02 METAR KRUT 021944Z 32014G20KT 9SM SCT004 BKN015 OVC030 00/00 A2988 RMK AO2 RAE21UPB21E22B40E43SNB22E40 P0000 FZRANO $
0329725165947372021010219567+43533-072950FM-15+0240KRUT V0203305N00465009145MN0160935N5+00005+00005101255ADDAA101000021GA1025+001835999GA2045+003965999GA3085+009145999GD11991+0018359GD22991+0039659GD34991+0091459GE19MSL   +99999+99999GF199999999999001831999999MA1101225098375REMMET15001/02/21 14:56:02 METAR KRUT 021956Z 33009KT 10SM FEW006 SCT013 OVC030 00/00 A2989 RMK AO2 RAE21UPB21E22B40E43SNB22E40 SLP125 P0000 T00000000 FZRANO $
0277725165947372021010220567+43533-072950FM-15+0240KRUT V0203305N00725009145MN0160935N5-00065-00065101415ADDAA103000021GA1085+009145999GD14991+0091459GE19MSL   +99999+99999GF199999999999009141999999MA1101355098505MD1390409+9999OC100935REMMET11901/02/21 15:56:02 METAR KRUT 022056Z 33014G18KT 10SM OVC030 M01/M01 A2993 RMK AO2 SLP141 60000 T10061006 53040 FZRANO $EQDQ01  00008PRCP03
0217725165947372021010221567+43533-072950FM-15+0240KRUT V0203305N00265009145MN0160935N5-00175-00175101545ADDGA1075+009145999GD13991+0091459GE19MSL   +99999+99999GF199999999999009141999999MA1101495098635REMMET11101/02/21 16:56:02 METAR KRUT 022156Z 33005KT 10SM BKN030 M02/M02 A2997 RMK AO2 PRESRR SLP154 T10171017 FZRANO $
0231725165947372021010222277+43533-072950FM-15+0240KRUT V0203305N00215006715MN0160935N5-00205-00205999999ADDGA1075+006715999GA2085+009145999GD13991+0067159GD24991+0091459GE19MSL   +99999+99999GF199999999999006711999999MA1101595098735REMMET09401/02/21 17:27:02 METAR KRUT 022227Z 33004KT 10SM BKN022 OVC030 M02/M02 A3000 RMK AO2 FZRANO $
0248725165947372021010222567+43533-072950FM-15+0240KRUT V0203105N00265009145MN0160935N5-00175-00175101695ADDGA1025+005185999GA2085+009145999GD11991+0051859GD24991+0091459GE19MSL   +99999+99999GF199999999999005181999999MA1101665098805REMMET11101/02/21 17:56:02 METAR KRUT 022256Z 31005KT 10SM FEW017 OVC030 M02/M02 A3002 RMK AO2 SLP169 T10171017 FZRANO $
0231725165947372021010223387+43533-072950FM-15+0240KRUT V0202905N00155006405MN0160935N5-00205-00205999999ADDGA1075+006405999GA2085+009145999GD13991+0064059GD24991+0091459GE19MSL   +99999+99999GF199999999999006401999999MA1101695098835REMMET09401/02/21 18:38:02 METAR KRUT 022338Z 29003KT 10SM BKN021 OVC030 M02/M02 A3003 RMK AO2 FZRANO $
0342725165947372021010223567+43533-072950FM-15+0240KRUT V0202905N00215007015MN0160935N5-00285-00285101815ADDAA106000021GA1075+007015999GA2085+008535999GD13991+0070159GD24991+0085359GE19MSL   +99999+99999GF199999999999007011999999KA1060M+00221KA2060N-00281MA1101765098905MD1190399+9999REMMET13501/02/21 18:56:02 METAR KRUT 022356Z 29004KT 10SM BKN023 OVC028 M03/M03 A3005 RMK AO2 SLP181 60000 T10281028 10022 21028 51039 FZRANO $EQDQ01  00008PRCP06
0248725165947372021010300567+43533-072950FM-15+0240KRUT V0203505N00215004575MN0160935N5-00225-00225101915ADDGA1075+004575999GA2085+007015999GD13991+0045759GD24991+0070159GE19MSL   +99999+99999GF199999999999004571999999MA1101865099005REMMET11101/02/21 19:56:01 METAR KRUT 030056Z 35004KT 10SM BKN015 OVC023 M02/M02 A3008 RMK AO2 SLP191 T10221022 FZRANO $
0210725165947372021010301567+43533-072950FM-15+0240KRUT V0203405N00155005185MN0160935N5-00285-00285101965ADDGA1085+005185999GD14991+0051859GE19MSL   +99999+99999GF199999999999005181999999MA1101905099035REMMET10401/02/21 20:56:01 METAR KRUT 030156Z 34003KT 10SM OVC017 M03/M03 A3009 RMK AO2 SLP196 T10281028 FZRANO $
0193725165947372021010302207+43533-072950FM-15+0240KRUT V0209999C00005003665MN0160935N5-00305-00305999999ADDGA1085+003665999GD14991+0036659GE19MSL   +99999+99999GF199999999999003661999999MA1101965099105REMMET08701/02/21 21:20:01 METAR KRUT 030220Z 00000KT 10SM OVC012 M03/M03 A3011 RMK AO2 FZRANO $
0230725165947372021010302567+43533-072950FM-15+0240KRUT V0203505N00215003665MN0160935N5-00285-00285101985ADDGA1085+003665999GD14991+0036659GE19MSL   +99999+99999GF199999999999003661999999MA1101935099065MD1190179+9999REMMET11001/02/21 21:56:01 METAR KRUT 030256Z 35004KT 10SM OVC012 M03/M03 A3010 RMK AO2 SLP198 T10281028 51017 FZRANO $
0210725165947372021010303567+43533-072950FM-15+0240KRUT V0203405N00155004275MN0160935N5-00285-00285102045ADDGA1085+004275999GD14991+0042759GE19MSL   +99999+99999GF199999999999004271999999MA1102005099135REMMET10401/02/21 22:56:01 METAR KRUT 030356Z 34003KT 10SM OVC014 M03/M03 A3012 RMK AO2 SLP204 T10281028 FZRANO $
0193725165947372021010304177+43533-072950FM-15+0240KRUT V0203605N00155004885MN0160935N5-00305-00305999999ADDGA1085+004885999GD14991+0048859GE19MSL   +99999+99999GF199999999999004881999999MA1102005099135REMMET08701/02/21 23:17:02 METAR KRUT 030417Z 36003KT 10SM OVC016 M03/M03 A3012 RMK AO2 FZRANO $
0246725165947372021010304567+43533-072950FM-15+0240KRUT V0209999C00005005495MN0160935N5-00285-00285102035ADDGA1085+005495999GD14991+0054959GE19MSL   +99999+99999GF199999999999005491999999KA1240M+00221KA2240N-00281MA1102005099135REMMET11401/02/21 23:56:02 METAR KRUT 030456Z 00000KT 10SM OVC018 M03/M03 A3012 RMK AO2 SLP203 T10281028 400221028 FZRANO $
0592725165947372021010304596+43533-072950SOD  +0240KRUT V020999999999999999999999999999+99999+99999999999ADDAA124006995AT1AU16RA  5AT2AU18SN  5AT3AU13BR  5AT4AU19UP  5AX1015245KA1240M+00225KA2240N-00275MG1098269999994OE11240116215099995OE22240076016099995OE33240038499999995REMSOD41424 HR PRECIPITATION (IN): 0.27 WEATHER(CODE):1  24 HR MAX TEMP (F): 3624 HR MIN TEMP (F): 27AVERAGE STATION PRESSURE(D):29.016 PEAK WIND SPEED (MPH): 26 PEAK WIND DIR (DEG):150 PEAK WIND TIME (LST):      FASTEST 2MIN SPEED (MPH): 17FASTEST 2MIN DIR (DEG):160 FASTEST 2MIN TIME (LST):     AVERAGE WIND SPEED (MPH): 8.6 24 HR AVG TEMP (F): 32SKY COVER SR-SS (TENTHS): 1HEATING DEGREE DAYS: 33 COOLING DEGREE DAYS:  0
0268725165947372021010305567+43533-072950FM-15+0240KRUT V0209999C00005006105MN0160935N5-00285-00285102035ADDGA1085+006105999GD14991+0061059GE19MSL   +99999+99999GF199999999999006101999999KA1060M-00221KA2060N-00281MA1102005099135MD1190059+9999REMMET12201/03/21 00:56:02 METAR KRUT 030556Z 00000KT 10SM OVC020 M03/M03 A3012 RMK AO2 SLP203 T10281028 11022 21028 51005 FZRANO $
0248725165947372021010306567+43533-072950FM-15+0240KRUT V0209999C00005006105MN0160935N5-00285-00285102125ADDGA1045+003355999GA2085+006105999GD12991+0033559GD24991+0061059GE19MSL   +99999+99999GF199999999999003351999999MA1102075099205REMMET11101/03/21 01:56:02 METAR KRUT 030656Z 00000KT 10SM SCT011 OVC020 M03/M03 A3014 RMK AO2 SLP212 T10281028 FZRANO $
0210725165947372021010307567+43533-072950FM-15+0240KRUT V0209999C00005006105MN0160935N5-00285-00285102145ADDGA1085+006105999GD14991+0061059GE19MSL   +99999+99999GF199999999999006101999999MA1102105099235REMMET10401/03/21 02:56:02 METAR KRUT 030756Z 00000KT 10SM OVC020 M03/M03 A3015 RMK AO2 SLP214 T10281028 FZRANO $
0230725165947372021010308567+43533-072950FM-15+0240KRUT V0209999C00005004885MN0160935N5-00285-00285102075ADDGA1085+004885999GD14991+0048859GE19MSL   +99999+99999GF199999999999004881999999MA1102035099165MD1090059+9999REMMET11001/03/21 03:56:02 METAR KRUT 030856Z 00000KT 10SM OVC016 M03/M03 A3013 RMK AO2 SLP207 T10281028 50005 FZRANO $
0210725165947372021010309567+43533-072950FM-15+0240KRUT V0209999C00005004885MN0160935N5-00225-00225102025ADDGA1085+004885999GD14991+0048859GE19MSL   +99999+99999GF199999999999004881999999MA1102005099135REMMET10401/03/21 04:56:02 METAR KRUT 030956Z 00000KT 10SM OVC016 M02/M02 A3012 RMK AO2 SLP202 T10221022 FZRANO $
0217725165947372021010310567+43533-072950FM-15+0240KRUT V0201605N00265004885MN0160935N5-00225-00285102075ADDGA1085+004885999GD14991+0048859GE19MSL   +99999+99999GF199999999999004881999999MA1102035099165REMMET11101/03/21 05:56:02 METAR KRUT 031056Z 16005KT 10SM OVC016 M02/M03 A3013 RMK AO2 PRESRR SLP207 T10221028 FZRANO $
0304725165947372021010311567+43533-072950FM-15+0240KRUT V0201205N00215004885MN0160935N5-00285-00285102015ADDAA124002091GA1085+004885999GD14991+0048859GE19MSL   +99999+99999GF199999999999004881999999KA1060M-00221KA2060N-00281MA1101965099105MD1890079+9999REMMET12801/03/21 06:56:02 METAR KRUT 031156Z 12004KT 10SM OVC016 M03/M03 A3011 RMK AO2 SLP201 70008 T10281028 11022 21028 58007 FZRANO $EQDQ01  00208PRCP24
0212725165947372021010312467+43533-072950FM-15+0240KRUT V0201705N003652200059N0160935N5-00405-00405999999ADDGA1025+003965999GD11991+0039659GE19AGL   +99999+99999GF102995999999003961999999MA1102005099135REMMET08701/03/21 07:46:02 METAR KRUT 031246Z 17007KT 10SM FEW013 M04/M04 A3012 RMK AO2 FZRANO $EQDD01      0ADE726
0229725165947372021010312567+43533-072950FM-15+0240KRUT V0201605N004152200059N0160935N5-00395-00445102055ADDGA1025+003965999GD11991+0039659GE19AGL   +99999+99999GF102995999999003961999999MA1102005099135REMMET10401/03/21 07:56:02 METAR KRUT 031256Z 16008KT 10SM FEW013 M04/M04 A3012 RMK AO2 SLP205 T10391044 FZRANO $EQDD01      0ADE726
0211725165947372021010313137+43533-072950FM-15+0240KRUT V0201405N002152200059N0144845N5-00305-00405999999ADDGA1025+002445999GD11991+0024459GE19AGL   +99999+99999GF102995999999002441999999MA1102005099135REMMET08601/03/21 08:13:02 METAR KRUT 031313Z 14004KT 9SM FEW008 M03/M04 A3012 RMK AO2 FZRANO $EQDD01      0ADE726
0193725165947372021010313327+43533-072950FM-15+0240KRUT V0209999V00265004575MN0160935N5-00305-00405999999ADDGA1075+004575999GD13991+0045759GE19MSL   +99999+99999GF199999999999004571999999MA1102075099205REMMET08701/03/21 08:32:02 METAR KRUT 031332Z VRB05KT 10SM BKN015 M03/M04 A3014 RMK AO2 FZRANO $
0229725165947372021010313567+43533-072950FM-15+0240KRUT V0201505V003652200059N0160935N5-00285-00395102135ADDGA1025+005185999GD11991+0051859GE19AGL   +99999+99999GF102995999999005181999999MA1102075099205REMMET10401/03/21 08:56:02 METAR KRUT 031356Z 15007KT 10SM FEW017 M03/M04 A3014 RMK AO2 SLP213 T10281039 FZRANO $EQDD01      0ADE726
0193725165947372021010314517+43533-072950FM-15+0240KRUT V0201705N00315006105MN0160935N5-00205-00405999999ADDGA1075+006105999GD13991+0061059GE19MSL   +99999+99999GF199999999999006101999999MA1102105099235REMMET08701/03/21 09:51:02 METAR KRUT 031451Z 17006KT 10SM BKN020 M02/M04 A3015 RMK AO2 FZRANO $
0230725165947372021010314567+43533-072950FM-15+0240KRUT V0201505N00365005495MN0160935N5-00225-00395102125ADDGA1085+005495999GD14991+0054959GE19MSL   +99999+99999GF199999999999005491999999MA1102075099205MD1090079+9999REMMET11001/03/21 09:56:02 METAR KRUT 031456Z 15007KT 10SM OVC018 M02/M04 A3014 RMK AO2 SLP212 T10221039 50007 FZRANO $
0212725165947372021010315427+43533-072950FM-15+0240KRUT V0201205N006252200059N0160935N5-00205-00405999999ADDGA1025+005495999GD11991+0054959GE19AGL   +99999+99999GF102995999999005491999999MA1101935099065REMMET08701/03/21 10:42:02 METAR KRUT 031542Z 12012KT 10SM FEW018 M02/M04 A3010 RMK AO2 FZRANO $EQDD01      0ADE726
0203725165947372021010315567+43533-072950FM-15+0240KRUT V0201305N007252200059N0160935N5-00115-00395101895ADDGA1005+999999999GD10991+9999999GF100991999999999999999999MA1101865099005OC101135REMMET11101/03/21 10:56:02 METAR KRUT 031556Z 13014G22KT 10SM CLR M01/M04 A3008 RMK AO2 PRESFR SLP189 T10111039 FZRANO $
0185725165947372021010316567+43533-072950FM-15+0240KRUT V0201105N005752200059N0160935N5-00115-00335101795ADDGA1005+999999999GD10991+9999999GF100991999999999999999999MA1101765098905REMMET10101/03/21 11:56:02 METAR KRUT 031656Z 11011KT 10SM CLR M01/M03 A3005 RMK AO2 SLP179 T10111033 FZRANO $
0298725165947372021010317567+43533-072950FM-15+0240KRUT V0201205N006252200059N0160935N5-00115-00335101695ADDGA1045+004885999GD12991+0048859GE19AGL   +99999+99999GF104995999999004881999999KA1060M-00111KA2060N-00391MA1101665098805MD1690409+9999OC100935REMMET12501/03/21 12:56:02 METAR KRUT 031756Z 12012G18KT 10SM SCT016 M01/M03 A3002 RMK AO2 SLP169 T10111033 11011 21039 56040 FZRANO $EQDD01      0ADE726
0297725165947372021010318567+43533-072950FM-15+0240KRUT V0201305N00625007015MN0160935N5-00175-00335101695ADDGA1045+005495999GA2075+007015999GA3085+024385999GD12991+0054959GD23991+0070159GD34991+0243859GE19MSL   +99999+99999GF199999999999005491999999MA1101665098805OC100825REMMET12101/03/21 13:56:02 METAR KRUT 031856Z 13012G16KT 10SM SCT018 BKN023 OVC080 M02/M03 A3002 RMK AO2 SLP169 T10171033 FZRANO $
0269725165947372021010319207+43533-072950FM-15+0240KRUT V0201105N00575021345MN0160935N5-00205-00305999999ADDGA1045+006405999GA2075+021345999GA3085+033535999GD12991+0064059GD23991+0213459GD34991+0335359GE19MSL   +99999+99999GF199999999999006401999999MA1101635098775REMMET10101/03/21 14:20:02 METAR KRUT 031920Z 11011KT 10SM SCT021 BKN070 OVC110 M02/M03 A3001 RMK AO2 FZRANO $
0335725165947372021010319567+43533-072950FM-15+0240KRUT V0201305N00515025915MN0144845N5-00175-00335101665ADDAA101000021AU110030015AW1715GA1025+006405999GA2045+018295999GA3085+025915999GD11991+0064059GD22991+0182959GD34991+0259159GE19MSL   +99999+99999GF199999999999006401999999MA1101635098775MW1715REMMET13301/03/21 14:56:02 METAR KRUT 031956Z 13010KT 9SM -SN FEW021 SCT060 OVC085 M02/M03 A3001 RMK AO2 SNB50 SLP166 P0000 T10171033 FZRANO $
0401725165947372021010320567+43533-072950FM-15+0240KRUT V0201205N00465016765MN0144845N5-00175-00335101715ADDAA101000021AA203000021AU110030015AW1715GA1025+006105999GA2075+016765999GA3085+021345999GD11991+0061059GD23991+0167659GD34991+0213459GE19MSL   +99999+99999GF199999999999006101999999MA1101665098805MD1390009+9999MW1715REMMET13901/03/21 15:56:02 METAR KRUT 032056Z 12009KT 9SM -SN FEW020 BKN055 OVC070 M02/M03 A3002 RMK AO2 SLP171 P0000 60000 T10171033 53000 FZRANO $EQDQ010     3APC3  Q02  00008PRCP03
0336725165947372021010321197+43533-072950FM-15+0240KRUT V0201105N00365008535MN0040235N5-00205-00305999999ADDAA101000021AU110030015AU200001015AW1105AW2715GA1025+006405999GA2075+008535999GA3085+016765999GD11991+0064059GD23991+0085359GD34991+0167659GE19MSL   +99999+99999GF199999999999006401999999MA1101695098835MW1715REMMET11701/03/21 16:19:02 METAR KRUT 032119Z 11007KT 2 1/2SM -SN BR FEW021 BKN028 OVC055 M02/M03 A3003 RMK AO2 P0000 FZRANO $
0311725165947372021010321567+43533-072950FM-15+0240KRUT V0201205N00365006405MN0080475N5-00175-00225101735ADDAA101000021AU110030015AU200001015AW1105AW2715GA1075+006405999GA2085+008845999GD13991+0064059GD24991+0088459GE19MSL   +99999+99999GF199999999999006401999999MA1101695098835MW1715REMMET12301/03/21 16:56:02 METAR KRUT 032156Z 12007KT 5SM -SN BR BKN021 OVC029 M02/M02 A3003 RMK AO2 SLP173 P0000 T10171022 FZRANO $
0349725165947372021010322567+43533-072950FM-15+0240KRUT V0201805N00155007015MN0080475N5-00175-00225101705ADDAA101000021AU110030015AU200001015AW1105AW2715GA1045+005185999GA2075+007015999GA3085+010675999GD12991+0051859GD23991+0070159GD34991+0106759GE19MSL   +99999+99999GF199999999999005181999999MA1101665098805MW1715REMMET13001/03/21 17:56:02 METAR KRUT 032256Z 18003KT 5SM -SN BR SCT017 BKN023 OVC035 M02/M02 A3002 RMK AO2 SLP170 P0000 T10171022 FZRANO $
0310725165947372021010323147+43533-072950FM-15+0240KRUT V0201705N00215005185MN0040235V5-00205-00205999999ADDAA101000021AU110030015AU200001015AW1105AW2715GA1075+005185999GA2085+007325999GD13991+0051859GD24991+0073259GE19MSL   +99999+99999GF199999999999005181999999MA1101665098805MW1715REMMET12201/03/21 18:14:02 METAR KRUT 032314Z 17004KT 2 1/2SM -SN BR BKN017 OVC024 M02/M02 A3002 RMK AO2 VIS 1 3/4V5 P0000 FZRANO $
0260725165947372021010323287+43533-072950FM-15+0240KRUT V0201405N00265003965MN0028165N5-00205-00205999999ADDAA101000021AU110030015AU200001015AW1105AW2715GA1085+003965999GD14991+0039659GE19MSL   +99999+99999GF199999999999003961999999MA1101665098805MW1715REMMET10301/03/21 18:28:02 METAR KRUT 032328Z 14005KT 1 3/4SM -SN BR OVC013 M02/M02 A3002 RMK AO2 P0000 FZRANO $
0332725165947372021010323457+43533-072950FM-15+0240KRUT V0201805N00315003965MN0048285N5-00205-00205999999ADDAA101000021AU110030015AU200001015AW1105AW2715GA1075+003965999GA2075+007015999GA3085+008235999GD13991+0039659GD23991+0070159GD34991+0082359GE19MSL   +99999+99999GF199999999999003961999999MA1101665098805MW1715REMMET11301/03/21 18:45:02 METAR KRUT 032345Z 18006KT 3SM -SN BR BKN013 BKN023 OVC027 M02/M02 A3002 RMK AO2 P0000 FZRANO $
0385725165947372021010323567+43533-072950FM-15+0240KRUT V0201705N00415008845MN0112655N5-00175-00175101705ADDAA101000021AA206000021AU110030015AW1715GA1045+003965999GA2085+008845999GD12991+0039659GD24991+0088459GE19MSL   +99999+99999GF199999999999003961999999KA1060M-00111KA2060N-00171MA1101665098805MD1890019+9999MW1715REMMET14401/03/21 18:56:02 METAR KRUT 032356Z 17008KT 7SM -SN SCT013 OVC029 M02/M02 A3002 RMK AO2 SLP170 P0000 60000 T10171017 11011 21017 58001 FZRANO $EQDQ01  00008PRCP06
0348725165947372021010400117+43533-072950FM-15+0240KRUT V0201705N00365008235MN0040235V5-00205-00205999999ADDAA101000021AU110030015AU200001015AW1105AW2715GA1025+002745999GA2045+004575999GA3085+008235999GD11991+0027459GD22991+0045759GD34991+0082359GE19MSL   +99999+99999GF199999999999002741999999MA1101665098805MW1715REMMET12901/03/21 19:11:01 METAR KRUT 040011Z 17007KT 2 1/2SM -SN BR FEW009 SCT015 OVC027 M02/M02 A3002 RMK AO2 VIS 1 3/4V3 P0000 FZRANO $
0314725165947372021010400197+43533-072950FM-15+0240KRUT V0201805N00465003665MN0028165V5-00205-00205999999ADDAA101000021AU110030015AU200001015AW1105AW2715GA1075+003665999GA2085+008235999GD13991+0036659GD24991+0082359GE19MSL   +99999+99999GF199999999999003661999999MA1101665098805MW1715REMMET12601/03/21 19:19:01 METAR KRUT 040019Z 18009KT 1 3/4SM -SN BR BKN012 OVC027 M02/M02 A3002 RMK AO2 VIS 1 1/4V2 1/2 P0000 FZRANO $
0306725165947372021010400347+43533-072950FM-15+0240KRUT V0201705N00365002445MN0016095N5-00205-00205999999ADDAA101000021AU110030015AU200001015AW1105AW2715GA1075+002445999GA2085+003965999GD13991+0024451GD24991+0039659GE19MSL   +99999+99999GF199999999999002441999999MA1101665098805MW1715REMMET11801/03/21 19:34:01 METAR KRUT 040034Z 17007KT 1SM -SN BR BKN008 OVC013 M02/M02 A3002 RMK AO2 CIG 006V010 P0000 FZRANO $
0287725165947372021010400567+43533-072950FM-15+0240KRUT V0209999V00315001835MN0012075N5-00225-00225101715ADDAA101000021AU110030015AU200001015AW1105AW2715GA1085+001835999GD14991+0018351GE19MSL   +99999+99999GF199999999999001831999999MA1101665098805MW1715REMMET13001/03/21 19:56:01 METAR KRUT 040056Z VRB06KT 3/4SM -SN BR OVC006 M02/M02 A3002 RMK AO2 CIG 004V008 SLP171 P0000 T10221022 FZRANO $
0272725165947372021010401117+43533-072950FM-15+0240KRUT V0201905N00415001835MN0020125N5-00205-00205999999ADDAA101000021AU110030015AU200001015AW1105AW2715GA1085+001835999GD14991+0018351GE19MSL   +99999+99999GF199999999999001831999999MA1101665098805MW1715REMMET11501/03/21 20:11:01 METAR KRUT 040111Z 19008KT 1 1/4SM -SN BR OVC006 M02/M02 A3002 RMK AO2 CIG 003V007 P0000 FZRANO $
0315725165947372021010401567+43533-072950FM-15+0240KRUT V0201705N00365003055MN0028165N5-00225-00225101685ADDAA101000021AU110030015AU200001015AW1105AW2715GA1025+002135999GA2085+003055999GD11991+0021359GD24991+0030559GE19MSL   +99999+99999GF199999999999002131999999MA1101665098805MW1715REMMET12701/03/21 20:56:01 METAR KRUT 040156Z 17007KT 1 3/4SM -SN BR FEW007 OVC010 M02/M02 A3002 RMK AO2 SLP168 P0000 T10221022 FZRANO $
0294725165947372021010402517+43533-072950FM-15+0240KRUT V0201805N00365005495MN0032195N5-00205-00205999999ADDAA101000021AU110030015AU200001015AW1105AW2715GA1045+004275999GA2085+005495999GD12991+0042759GD24991+0054959GE19MSL   +99999+99999GF199999999999004271999999MA1101595098735MW1715REMMET10601/03/21 21:51:01 METAR KRUT 040251Z 18007KT 2SM -SN BR SCT014 OVC018 M02/M02 A3000 RMK AO2 P0000 FZRANO $
0333725165947372021010402567+43533-072950FM-15+0240KRUT V0201805N00415004885MN0040235N5-00175-00175101605ADDAA101000021AA203000021AU110030015AU200001015AW1105AW2715GA1085+004885999GD14991+0048859GE19MSL   +99999+99999GF199999999999004881999999MA1101595098735MD1890089+9999MW1715REMMET13201/03/21 21:56:01 METAR KRUT 040256Z 18008KT 2 1/2SM -SN BR OVC016 M02/M02 A3000 RMK AO2 SLP160 P0000 60000 T10171017 58008 FZRANO $EQDQ01  00008PRCP03
0294725165947372021010403227+43533-072950FM-15+0240KRUT V0201805N00465007015MN0064375N5-00205-00205999999ADDAA101000021AU110030015AU200001015AW1105AW2715GA1075+007015999GA2085+018295999GD13991+0070159GD24991+0182959GE19MSL   +99999+99999GF199999999999007011999999MA1101565098705MW1715REMMET10601/03/21 22:22:01 METAR KRUT 040322Z 18009KT 4SM -SN BR BKN023 OVC060 M02/M02 A2999 RMK AO2 P0000 FZRANO $
0274725165947372021010403367+43533-072950FM-15+0240KRUT V0201805N00365018295MN0112655N5-00205-00205999999ADDAA101000021AU110030015AW1715GA1025+007625999GA2085+018295999GD11991+0076259GD24991+0182959GE19MSL   +99999+99999GF199999999999007621999999MA1101565098705MW1715REMMET10301/03/21 22:36:01 METAR KRUT 040336Z 18007KT 7SM -SN FEW025 OVC060 M02/M02 A2999 RMK AO2 P0000 FZRANO $
0253725165947372021010403567+43533-072950FM-15+0240KRUT V0201805N00365018295MN0144845N5-00175-00175101585ADDAA101000021AU110030015AW1715GA1085+018295999GD14991+0182959GE19MSL   +99999+99999GF199999999999018291999999MA1101525098675MW1715REMMET11301/03/21 22:56:01 METAR KRUT 040356Z 18007KT 9SM -SN OVC060 M02/M02 A2998 RMK AO2 SLP158 P0000 T10171017 FZRANO $
0269725165947372021010404567+43533-072950FM-15+0240KRUT V0201605N00415016765MN0160935N5-00175-00175101535ADDAA101000021GA1085+016765999GD14991+0167659GE19MSL   +99999+99999GF199999999999016761999999KA1240M-00111KA2240N-00391MA1101495098635REMMET12601/03/21 23:56:02 METAR KRUT 040456Z 16008KT 10SM OVC055 M02/M02 A2997 RMK AO2 SNE22 SLP153 P0000 T10171017 410111039 FZRANO $
0541725165947372021010404596+43533-072950SOD  +0240KRUT V020999999999999999999999999999+99999+99999999999ADDAA124000025AT1AU18SN  5AT2AU13BR  5AX1015245KA1240M-00105KA2240N-00385MG1098929999994OE11240111813099995OE22240071513099995OE33240031399999995REMSOD38724 HR PRECIPITATION (IN):    T WEATHER(CODE):1  24 HR MAX TEMP (F): 3024 HR MIN TEMP (F): 25AVERAGE STATION PRESSURE(D):29.213 PEAK WIND SPEED (MPH): 25 PEAK WIND DIR (DEG):130 PEAK WIND TIME (LST):      FASTEST 2MIN SPEED (MPH): 16FASTEST 2MIN DIR (DEG):130 FASTEST 2MIN TIME (LST):     AVERAGE WIND SPEED (MPH): 7.0 24 HR AVG TEMP (F): 28HEATING DEGREE DAYS: 37 COOLING DEGREE DAYS:  0
0304725165947372021010405567+43533-072950FM-15+0240KRUT V0201205N00155015245MN0160935N5-00175-00175101535ADDAA106000021GA1085+015245999GD14991+0152459GE19MSL   +99999+99999GF199999999999015241999999KA1060M-00111KA2060N-00221MA1101495098635MD1690099+9999REMMET12801/04/21 00:56:02 METAR KRUT 040556Z 12003KT 10SM OVC050 M02/M02 A2997 RMK AO2 SLP153 60000 T10171017 11011 21022 56009 FZRANO $EQDQ01  00008PRCP06
0227725165947372021010406567+43533-072950FM-15+0240KRUT V0201305N00155014635MN0160935N5-00175-00175101525ADDAA101000595GA1085+014635999GD14991+0146359GE19MSL   +99999+99999GF199999999999014631999999MA1101495098635REMMET11001/04/21 01:56:02 METAR KRUT 040656Z 13003KT 10SM OVC048 M02/M02 A2997 RMK AO2 SLP152 P0002 T10171017 FZRANO $
0265725165947372021010407567+43533-072950FM-15+0240KRUT V0201405N00155008845MN0160935N5-00175-00175101545ADDAA101000395GA1075+008845999GA2085+012805999GD13991+0088459GD24991+0128059GE19MSL   +99999+99999GF199999999999008841999999MA1101525098675REMMET11701/04/21 02:56:02 METAR KRUT 040756Z 14003KT 10SM BKN029 OVC042 M02/M02 A2998 RMK AO2 SLP154 P0001 T10171017 FZRANO $
0304725165947372021010408567+43533-072950FM-15+0240KRUT V0201305N00315008845MN0160935N5-00175-00175101505ADDAA103000891GA1075+008845999GA2085+010975999GD13991+0088459GD24991+0109759GE19MSL   +99999+99999GF199999999999008841999999MA1101495098635MD1890019+9999REMMET12301/04/21 03:56:02 METAR KRUT 040856Z 13006KT 10SM BKN029 OVC036 M02/M02 A2997 RMK AO2 SLP150 60003 T10171017 58001 FZRANO $EQDQ01  00078PRCP03
0231725165947372021010409087+43533-072950FM-15+0240KRUT V0209999V00155010975MN0160935N5-00205-00205999999ADDGA1025+008845999GA2085+010975999GD11991+0088459GD24991+0109759GE19MSL   +99999+99999GF199999999999008841999999MA1101495098635REMMET09401/04/21 04:08:02 METAR KRUT 040908Z VRB03KT 10SM FEW029 OVC036 M02/M02 A2997 RMK AO2 FZRANO $
0210725165947372021010409567+43533-072950FM-15+0240KRUT V0209999C00005012195MN0160935N5-00175-00175101515ADDGA1085+012195999GD14991+0121959GE19MSL   +99999+99999GF199999999999012191999999MA1101495098635REMMET10401/04/21 04:56:02 METAR KRUT 040956Z 00000KT 10SM OVC040 M02/M02 A2997 RMK AO2 SLP151 T10171017 FZRANO $
0210725165947372021010410367+43533-072950FM-15+0240KRUT V0209999C00005008535MN0160935N5-00205-00205999999ADDAA101000395GA1085+008535999GD14991+0085359GE19MSL   +99999+99999GF199999999999008531999999MA1101525098675REMMET09301/04/21 05:36:02 METAR KRUT 041036Z 00000KT 10SM OVC028 M02/M02 A2998 RMK AO2 P0001 FZRANO $
0297725165947372021010410567+43533-072950FM-15+0240KRUT V0209999C00005010675MN0160935N5-00175-00175101565ADDAA101000395AU120090015AW1401AW2415GA1045+008235999GA2085+010675999GD12991+0082359GD24991+0106759GE19MSL   +99999+99999GF199999999999008231999999MA1101525098675REMMET12601/04/21 05:56:02 METAR KRUT 041056Z 00000KT 10SM UP SCT027 OVC035 M02/M02 A2998 RMK AO2 UPB49 SLP156 P0001 T10171017 FZRANO $
0398725165947372021010411567+43533-072950FM-15+0240KRUT V0209999C00005011895MN0160935N5-00175-00175101585ADDAA101000395AA206001391AA324001391GA1045+008535999GA2085+011895999GD12991+0085359GD24991+0118959GE19MSL   +99999+99999GF199999999999008531999999KA1060M-00171KA2060N-00171MA1101565098705MD1390089+9999REMMET15301/04/21 06:56:02 METAR KRUT 041156Z 00000KT 10SM SCT028 OVC039 M02/M02 A2999 RMK AO2 UPE51 SLP158 P0001 60005 70005 T10171017 11017 21017 53008 FZRANO $EQDQ01  00128PRCP06Q02  00128PRCP24
0231725165947372021010412317+43533-072950FM-15+0240KRUT V0209999C00005008535MN0160935N5-00205-00205999999ADDGA1075+008535999GA2085+011285999GD13991+0085359GD24991+0112859GE19MSL   +99999+99999GF199999999999008531999999MA1101595098735REMMET09401/04/21 07:31:02 METAR KRUT 041231Z 00000KT 10SM BKN028 OVC037 M02/M02 A3000 RMK AO2 FZRANO $
0318725165947372021010412547+43533-072950FM-15+0240KRUT V0209999C00005010675MN0160935N5-00205-00205999999ADDAA101000021AU120090015AW1401AW2415GA1025+006105999GA2075+010675999GA3085+018295999GD11991+0061059GD23991+0106759GD34991+0182959GE19MSL   +99999+99999GF199999999999006101999999MA1101595098735REMMET11601/04/21 07:54:02 METAR KRUT 041254Z 00000KT 10SM UP FEW020 BKN035 OVC060 M02/M02 A3000 RMK AO2 UPB43 P0000 FZRANO $
0335725165947372021010412567+43533-072950FM-15+0240KRUT V0209999C00005010675MN0160935N5-00175-00175101605ADDAA101000021AU120090015AW1401AW2415GA1025+006105999GA2075+010675999GA3085+018295999GD11991+0061059GD23991+0106759GD34991+0182959GE19MSL   +99999+99999GF199999999999006101999999MA1101595098735REMMET13301/04/21 07:56:02 METAR KRUT 041256Z 00000KT 10SM UP FEW020 BKN035 OVC060 M02/M02 A3000 RMK AO2 UPB43 SLP160 P0000 T10171017 FZRANO $
0233725165947372021010413567+43533-072950FM-15+0240KRUT V0209999C00005021345MN0160935N5-00115-00115101625ADDAA101000021GA1085+021345999GD14991+0213459GE19MSL   +99999+99999GF199999999999021341999999MA1101595098735REMMET11601/04/21 08:56:02 METAR KRUT 041356Z 00000KT 10SM OVC070 M01/M01 A3000 RMK AO2 UPE13 SLP162 P0000 T10111011 FZRANO $
0340725165947372021010414567+43533-072950FM-15+0240KRUT V0201305N00155030485MN0160935N5+00065+00065101645ADDAA103000021GA1025+007625999GA2045+021345999GA3075+030485999GD11991+0076259GD22991+0213459GD33991+0304859GE19MSL   +99999+99999GF199999999999007621999999MA1101595098735MD1290029+9999REMMET12801/04/21 09:56:02 METAR KRUT 041456Z 13003KT 10SM FEW025 SCT070 BKN100 01/01 A3000 RMK AO2 SLP164 60000 T00060006 52002 FZRANO $EQDQ01  00008PRCP03
0191725165947372021010415217+43533-072950FM-15+0240KRUT V0209999C00005007625MN0160935N5+00205+00205999999ADDGA1075+007625999GD13991+0076259GE19MSL   +99999+99999GF199999999999007621999999MA1101635098775REMMET08501/04/21 10:21:02 METAR KRUT 041521Z 00000KT 10SM BKN025 02/02 A3001 RMK AO2 FZRANO $
0239725165947372021010415567+43533-072950FM-15+0240KRUT V0209999C00005004575MN0160935N5+00335+00285101635ADDGA1075+004575999GA2085+008235999GD13991+0045759GD24991+0082359GE19MSL   +99999+99999GF199999999999004571999999MA1101595098735REMMET10201/04/21 10:56:02 METAR KRUT 041556Z 00000KT 10SM BKN015 OVC027 03/03 A3000 RMK AO2 SLP163 T00330028 $
0229725165947372021010416437+43533-072950FM-15+0240KRUT V0209999C00005004275MN0160935N5+00205+00105999999ADDGA1075+004275999GA2085+006105999GD13991+0042759GD24991+0061059GE19MSL   +99999+99999GF199999999999004271999999MA1101565098705REMMET09201/04/21 11:43:02 METAR KRUT 041643Z 00000KT 10SM BKN014 OVC020 02/01 A2999 RMK AO2 FZRANO $
0208725165947372021010416567+43533-072950FM-15+0240KRUT V0209999C00005004275MN0160935N5+00175+00115101585ADDGA1085+004275999GD14991+0042759GE19MSL   +99999+99999GF199999999999004271999999MA1101565098705REMMET10201/04/21 11:56:02 METAR KRUT 041656Z 00000KT 10SM OVC014 02/01 A2999 RMK AO2 SLP158 T00170011 FZRANO $
0302725165947372021010417567+43533-072950FM-15+0240KRUT V0209999C00005003055MN0160935N5+00175+00175101505ADDAA106000021GA1085+003055999GD14991+0030559GE19MSL   +99999+99999GF199999999999003051999999KA1060M+00331KA2060N-00221MA1101465098605MD1890139+9999REMMET12601/04/21 12:56:02 METAR KRUT 041756Z 00000KT 10SM OVC010 02/02 A2996 RMK AO2 SLP150 60000 T00170017 10033 21022 58013 FZRANO $EQDQ01  00008PRCP06
0191725165947372021010418447+43533-072950FM-15+0240KRUT V0209999C00005002445MN0160935N5+00205+00205999999ADDGA1085+002445999GD14991+0024459GE19MSL   +99999+99999GF199999999999002441999999MA1101425098575REMMET08501/04/21 13:44:02 METAR KRUT 041844Z 00000KT 10SM OVC008 02/02 A2995 RMK AO2 FZRANO $
0208725165947372021010418567+43533-072950FM-15+0240KRUT V0202905N00155002445MN0160935N5+00175+00175101465ADDGA1085+002445999GD14991+0024459GE19MSL   +99999+99999GF199999999999002441999999MA1101425098575REMMET10201/04/21 13:56:02 METAR KRUT 041856Z 29003KT 10SM OVC008 02/02 A2995 RMK AO2 SLP146 T00170017 FZRANO $
0220725165947372021010419567+43533-072950FM-15+0240KRUT V0209999C00005003055MN0160935N5+00225+00065101455ADDGA1085+003055999GD14991+0030551GE19MSL   +99999+99999GF199999999999003051999999MA1101425098575REMMET11401/04/21 14:56:02 METAR KRUT 041956Z 00000KT 10SM OVC010 02/01 A2995 RMK AO2 CIG 007V013 SLP145 T00220006 FZRANO $
0240725165947372021010420567+43533-072950FM-15+0240KRUT V0203505N00215002445MN0160935N5+00115+00115101485ADDGA1085+002445999GD14991+0024451GE19MSL   +99999+99999GF199999999999002441999999MA1101465098605MD1590029+9999REMMET12001/04/21 15:56:02 METAR KRUT 042056Z 35004KT 10SM OVC008 01/01 A2996 RMK AO2 CIG 006V012 SLP148 T00110011 55002 FZRANO $
0191725165947372021010421427+43533-072950FM-15+0240KRUT V0203505N00265001225MN0160935N5+00105+00105999999ADDGA1085+001225999GD14991+0012259GE19MSL   +99999+99999GF199999999999001221999999MA1101465098605REMMET08501/04/21 16:42:02 METAR KRUT 042142Z 35005KT 10SM OVC004 01/01 A2996 RMK AO2 FZRANO $
0207725165947372021010421567+43533-072950FM-15+0240KRUT V0203405N00265001225MN0112655N5+00005+00005101515ADDGA1085+001225999GD14991+0012259GE19MSL   +99999+99999GF199999999999001221999999MA1101465098605REMMET10101/04/21 16:56:02 METAR KRUT 042156Z 34005KT 7SM OVC004 00/00 A2996 RMK AO2 SLP151 T00000000 FZRANO $
0210725165947372021010422527+43533-072950FM-15+0240KRUT V0203405N00215000615MN0048285N5+00005+00005999999ADDAU100001015AW1105GA1085+000615999GD14991+0006159GE19MSL   +99999+99999GF199999999999000611999999MA1101495098635REMMET08701/04/21 17:52:02 METAR KRUT 042252Z 34004KT 3SM BR OVC002 00/00 A2997 RMK AO2 FZRANO $
0227725165947372021010422567+43533-072950FM-15+0240KRUT V0203305N00215000615MN0048285N5+00005+00005101535ADDAU100001015AW1105GA1085+000615999GD14991+0006159GE19MSL   +99999+99999GF199999999999000611999999MA1101495098635REMMET10401/04/21 17:56:02 METAR KRUT 042256Z 33004KT 3SM BR OVC002 00/00 A2997 RMK AO2 SLP153 T00000000 FZRANO $
0214725165947372021010423547+43533-072950FM-15+0240KRUT V0203605N00265000615MN0028165N5+00005+00005999999ADDAU100001015AW1105GA1085+000615999GD14991+0006159GE19MSL   +99999+99999GF199999999999000611999999MA1101495098635REMMET09101/04/21 18:54:02 METAR KRUT 042354Z 36005KT 1 3/4SM BR OVC002 00/00 A2997 RMK AO2 FZRANO $
0289725165947372021010423567+43533-072950FM-15+0240KRUT V0203605N00215000615MN0024145N5+00005+00005101555ADDAU100001015AW1105GA1085+000615999GD14991+0006159GE19MSL   +99999+99999GF199999999999000611999999KA1060M+00221KA2060N+00001MA1101495098635MD1290049+9999REMMET12601/04/21 18:56:02 METAR KRUT 042356Z 36004KT 1 1/2SM BR OVC002 00/00 A2997 RMK AO2 SLP155 T00000000 10022 20000 52004 FZRANO $
0214725165947372021010500297+43533-072950FM-15+0240KRUT V0209999C00005000615MN0040235N5+00005+00005999999ADDAU100001015AW1105GA1085+000615999GD14991+0006159GE19MSL   +99999+99999GF199999999999000611999999MA1101495098635REMMET09101/04/21 19:29:01 METAR KRUT 050029Z 00000KT 2 1/2SM BR OVC002 00/00 A2997 RMK AO2 FZRANO $
0239725165947372021010500567+43533-072950FM-15+0240KRUT V0209999C00005000615MN0032195V5+00005+00005101515ADDAU100001015AW1105GA1085+000615999GD14991+0006159GE19MSL   +99999+99999GF199999999999000611999999MA1101465098605REMMET11601/04/21 19:56:01 METAR KRUT 050056Z 00000KT 2SM BR OVC002 00/00 A2996 RMK AO2 VIS 1 1/2V3 SLP151 T00000000 FZRANO $
0210725165947372021010501137+43533-072950FM-15+0240KRUT V0209999C00005000615MN0048285N5+00005+00005999999ADDAU100001015AW1105GA1085+000615999GD14991+0006159GE19MSL   +99999+99999GF199999999999000611999999MA1101465098605REMMET08701/04/21 20:13:01 METAR KRUT 050113Z 00000KT 3SM BR OVC002 00/00 A2996 RMK AO2 FZRANO $
0214725165947372021010501187+43533-072950FM-15+0240KRUT V0203605N00155000615MN0028165N5+00005+00005999999ADDAU100001015AW1105GA1085+000615999GD14991+0006159GE19MSL   +99999+99999GF199999999999000611999999MA1101465098605REMMET09101/04/21 20:18:01 METAR KRUT 050118Z 36003KT 1 3/4SM BR OVC002 00/00 A2996 RMK AO2 FZRANO $
0212725165947372021010501247+43533-072950FM-15+0240KRUT V0203605N00155000615MN0012075N5+00005+00005999999ADDAU100001015AW1105GA1085+000615999GD14991+0006159GE19MSL   +99999+99999GF199999999999000611999999MA1101465098605REMMET08901/04/21 20:24:01 METAR KRUT 050124Z 36003KT 3/4SM BR OVC002 00/00 A2996 RMK AO2 FZRANO $
0231725165947372021010501567+43533-072950FM-15+0240KRUT V0203405N00215000615MN0012075N5-00065-00065101495ADDAU100001015AW1105GA1085+000615999GD14991+0006159GE19MSL   +99999+99999GF199999999999000611999999MA1101465098605REMMET10801/04/21 20:56:01 METAR KRUT 050156Z 34004KT 3/4SM BR OVC002 M01/M01 A2996 RMK AO2 SLP149 T10061006 FZRANO $
0265725165947372021010502147+43533-072950FM-15+0240KRUT V0203505N00215000615MN0008055N5-00105-00105999999ADDAA101000021AU120090015AU208002015AW1355AW2401AW3415GA1085+000615999GD14991+0006159GE19MSL   +99999+99999GF199999999999000611999999MA1101425098575REMMET10801/04/21 21:14:01 METAR KRUT 050214Z 35004KT 1/2SM UP FZFG OVC002 M01/M01 A2995 RMK AO2 UPB13 P0000 FZRANO $
0240725165947372021010502347+43533-072950FM-15+0240KRUT V0209999C00005000615MN0012075N5-00105-00105999999ADDAA101000021AU100001015AW1105GA1085+000615999GD14991+0006159GE19MSL   +99999+99999GF199999999999000611999999MA1101425098575REMMET10601/04/21 21:34:01 METAR KRUT 050234Z 00000KT 3/4SM BR OVC002 M01/M01 A2995 RMK AO2 UPB13E32 P0000 FZRANO $
0265725165947372021010502437+43533-072950FM-15+0240KRUT V0203305N00155000615MN0020125N5-00105-00105999999ADDAA101000021AU120090015AU200001015AW1105AW2401AW3415GA1085+000615999GD14991+0006159GE19MSL   +99999+99999GF199999999999000611999999MA1101425098575REMMET10801/04/21 21:43:01 METAR KRUT 050243Z 33003KT 1 1/4SM UP BR OVC002 M01/M01 A2995 RMK AO2 UPB13 P0000 FZRANO $
0311725165947372021010502567+43533-072950FM-15+0240KRUT V0209999C00005000615MN0032195N5-00065-00065101445ADDAA101000021AA203000021AU100001015AW1105GA1085+000615999GD14991+0006159GE19MSL   +99999+99999GF199999999999000611999999MA1101395098545MD1690109+9999REMMET13301/04/21 21:56:01 METAR KRUT 050256Z 00000KT 2SM BR OVC002 M01/M01 A2994 RMK AO2 UPB13E55 SLP144 P0000 60000 T10061006 56010 FZRANO $EQDQ01  00008PRCP03
0240725165947372021010503347+43533-072950FM-15+0240KRUT V0203605N00155000615MN0016095N5-00105-00105999999ADDAA101000021AU100001015AW1105GA1085+000615999GD14991+0006159GE19MSL   +99999+99999GF199999999999000611999999MA1101395098545REMMET10601/04/21 22:34:01 METAR KRUT 050334Z 36003KT 1SM BR OVC002 M01/M01 A2994 RMK AO2 UPB0258E20 P0000 FZRANO $
0261725165947372021010503567+43533-072950FM-15+0240KRUT V0203605N00155000615MN0020125N5-00065-00065101395ADDAA101000021AU100001015AW1105GA1085+000615999GD14991+0006159GE19MSL   +99999+99999GF199999999999000611999999MA1101395098545REMMET12701/04/21 22:56:01 METAR KRUT 050356Z 36003KT 1 1/4SM BR OVC002 M01/M01 A2994 RMK AO2 UPB0258E20 SLP139 P0000 T10061006 FZRANO $
0212725165947372021010504177+43533-072950FM-15+0240KRUT V0203505N00155000615MN0048285N5-00105-00105999999ADDAU100001015AW1105GA1085+000615999GD14991+0006159GE19MSL   +99999+99999GF199999999999000611999999MA1101355098505REMMET08901/04/21 23:17:02 METAR KRUT 050417Z 35003KT 3SM BR OVC002 M01/M01 A2993 RMK AO2 FZRANO $
0216725165947372021010504357+43533-072950FM-15+0240KRUT V0203605N00155000615MN0040235N5-00105-00105999999ADDAU100001015AW1105GA1085+000615999GD14991+0006159GE19MSL   +99999+99999GF199999999999000611999999MA1101355098505REMMET09301/04/21 23:35:02 METAR KRUT 050435Z 36003KT 2 1/2SM BR OVC002 M01/M01 A2993 RMK AO2 FZRANO $
0269725165947372021010504567+43533-072950FM-15+0240KRUT V0209999C00005000615MN0040235N5-00065-00065101385ADDAU100001015AW1105GA1085+000615999GD14991+0006159GE19MSL   +99999+99999GF199999999999000611999999KA1240M+00331KA2240N-00221MA1101355098505REMMET12001/04/21 23:56:02 METAR KRUT 050456Z 00000KT 2 1/2SM BR OVC002 M01/M01 A2993 RMK AO2 SLP138 T10061006 400331022 FZRANO $
0551725165947372021010504596+43533-072950SOD  +0240KRUT V020999999999999999999999999999+99999+99999999999ADDAA124001396AT1AU22FZFG5AT2AU13BR  5AT3AU19UP  5AT4AW01FG  5AX1016246KA1240M+00335KA2240N-00215MG1098639999994OE11249999999999997OE22240040216099995OE33240011299999995REMSOD33824 HR PRECIPITATION (IN): 0.05 WEATHER(CODE):1  24 HR MAX TEMP (F): 3824 HR MIN TEMP (F): 28AVERAGE STATION PRESSURE(D):29.125  FASTEST 2MIN SPEED (MPH):  9FASTEST 2MIN DIR (DEG):160 FASTEST 2MIN TIME (LST):     AVERAGE WIND SPEED (MPH): 2.5 24 HR AVG TEMP (F): 33SKY COVER SR-SS (TENTHS): 1HEATING DEGREE DAYS: 32 COOLING DEGREE DAYS:  0EQDR01  0.057AAP092R02     17AXW092
0261725165947372021010505217+43533-072950FM-15+0240KRUT V0203505N00155000615MN0048285N5-00105-00105999999ADDAA101000021AU120090015AU200001015AW1105AW2401AW3415GA1085+000615999GD14991+0006159GE19MSL   +99999+99999GF199999999999000611999999MA1101355098505REMMET10401/05/21 00:21:02 METAR KRUT 050521Z 35003KT 3SM UP BR OVC002 M01/M01 A2993 RMK AO2 UPB05 P0000 FZRANO $
0265725165947372021010505437+43533-072950FM-15+0240KRUT V0203405N00155000615MN0040235N5-00105-00105999999ADDAA101000021AU120090015AU200001015AW1105AW2401AW3415GA1085+000615999GD14991+0006159GE19MSL   +99999+99999GF199999999999000611999999MA1101355098505REMMET10801/05/21 00:43:02 METAR KRUT 050543Z 34003KT 2 1/2SM UP BR OVC002 M01/M01 A2993 RMK AO2 UPB05 P0000 FZRANO $
0376725165947372021010505567+43533-072950FM-15+0240KRUT V0203505N00155000615MN0040235N5-00065-00065101375ADDAA101000021AA206000021AU120090015AU200001015AW1105AW2401AW3415GA1085+000615999GD14991+0006159GE19MSL   +99999+99999GF199999999999000611999999KA1060M+00001KA2060N-00061MA1101355098505MD1690059+9999REMMET14901/05/21 00:56:02 METAR KRUT 050556Z 35003KT 2 1/2SM UP BR OVC002 M01/M01 A2993 RMK AO2 UPB05 SLP137 P0000 60000 T10061006 10000 21006 56005 FZRANO $EQDQ01  00008PRCP06
0255725165947372021010506147+43533-072950FM-15+0240KRUT V0203505N00155000615MN0048285N5-00105-00105999999ADDAA101000021AU120090015AU200001015AW1105AW2401AW3415GA1085+000615999GD14991+0006159GE19MSL   +99999+99999GF199999999999000611999999MA1101355098505REMMET09801/05/21 01:14:02 METAR KRUT 050614Z 35003KT 3SM UP BR OVC002 M01/M01 A2993 RMK AO2 P0000 FZRANO $
0256725165947372021010506567+43533-072950FM-15+0240KRUT V0203505N00315000615MN0040235N5-00115-00115101395ADDAA101000021AU100001015AW1105GA1085+000615999GD14991+0006159GE19MSL   +99999+99999GF199999999999000611999999MA1101355098505REMMET12201/05/21 01:56:02 METAR KRUT 050656Z 35006KT 2 1/2SM BR OVC002 M01/M01 A2993 RMK AO2 UPE22 SLP139 P0000 T10111011 FZRANO $
0270725165947372021010507087+43533-072950FM-15+0240KRUT V0203405N00265000615MN0048285N5-00105-00105999999ADDAA101000021AU110030015AU200001015AW1105AW2715GA1085+000615999GD14991+0006159GE19MSL   +99999+99999GF199999999999000611999999MA1101355098505MW1715REMMET11301/05/21 02:08:02 METAR KRUT 050708Z 34005KT 3SM -SN BR OVC002 M01/M01 A2993 RMK AO2 UPB04E07SNB07 P0000 FZRANO $
0286725165947372021010507477+43533-072950FM-15+0240KRUT V0203205N00265000615MN0040235N5-00105-00105999999ADDAA101000021AU110030015AU200001015AW1105AW2715GA1085+000615999GD14991+0006159GE19MSL   +99999+99999GF199999999999000611999999MA1101355098505MW1715REMMET12901/05/21 02:47:02 METAR KRUT 050747Z 32005KT 2 1/2SM -SN BR OVC002 M01/M01 A2993 RMK AO2 UPB04E07B28E33SNB07E28B33 P0000 FZRANO $
0299725165947372021010507567+43533-072950FM-15+0240KRUT V0203205N00265000615MN0032195N5-00115-00115101375ADDAA101000021AU110030015AU200001015AW1105AW2715GA1085+000615999GD14991+0006159GE19MSL   +99999+99999GF199999999999000611999999MA1101355098505MW1715REMMET14201/05/21 02:56:02 METAR KRUT 050756Z 32005KT 2SM -SN BR OVC002 M01/M01 A2993 RMK AO2 UPB04E07B28E33SNB07E28B33 SLP137 P0000 T10111011 FZRANO $
0256725165947372021010508397+43533-072950FM-15+0240KRUT V0203405N00215000615MN0064375N5-00105-00105999999ADDAA101000021AU110030015AU200001015AW1105AW2715GA1085+000615999GD14991+0006159GE19MSL   +99999+99999GF199999999999000611999999MA1101325098475MW1715REMMET09901/05/21 03:39:02 METAR KRUT 050839Z 34004KT 4SM -SN BR OVC002 M01/M01 A2992 RMK AO2 P0000 FZRANO $
0308725165947372021010508567+43533-072950FM-15+0240KRUT V0209999C00005000615MN0048285N5-00115-00115101365ADDAA101000021AA203000021AU100001015AW1105GA1085+000615999GD14991+0006159GE19MSL   +99999+99999GF199999999999000611999999MA1101325098475MD1790049+9999REMMET13001/05/21 03:56:02 METAR KRUT 050856Z 00000KT 3SM BR OVC002 M01/M01 A2992 RMK AO2 SNE49 SLP136 P0000 60000 T10111011 57004 FZRANO $EQDQ01  00008PRCP03
0216725165947372021010509397+43533-072950FM-15+0240KRUT V0203605N00155000615MN0028165N5-00105-00105999999ADDAU100001015AW1105GA1085+000615999GD14991+0006159GE19MSL   +99999+99999GF199999999999000611999999MA1101325098475REMMET09301/05/21 04:39:02 METAR KRUT 050939Z 36003KT 1 3/4SM BR OVC002 M01/M01 A2992 RMK AO2 FZRANO $
0233725165947372021010509567+43533-072950FM-15+0240KRUT V0203605N00155000615MN0028165N5-00115-00115101385ADDAU100001015AW1105GA1085+000615999GD14991+0006159GE19MSL   +99999+99999GF199999999999000611999999MA1101355098505REMMET11001/05/21 04:56:02 METAR KRUT 050956Z 36003KT 1 3/4SM BR OVC002 M01/M01 A2993 RMK AO2 SLP138 T10111011 FZRANO $
0212725165947372021010510237+43533-072950FM-15+0240KRUT V0203605N00215000615MN0016095N5-00105-00105999999ADDAU100001015AW1105GA1085+000615999GD14991+0006159GE19MSL   +99999+99999GF199999999999000611999999MA1101355098505REMMET08901/05/21 05:23:02 METAR KRUT 051023Z 36004KT 1SM BR OVC002 M01/M01 A2993 RMK AO2 FZRANO $
0216725165947372021010510357+43533-072950FM-15+0240KRUT V0203405N00155000615MN0020125N5-00105-00105999999ADDAU100001015AW1105GA1085+000615999GD14991+0006159GE19MSL   +99999+99999GF199999999999000611999999MA1101355098505REMMET09301/05/21 05:35:02 METAR KRUT 051035Z 34003KT 1 1/4SM BR OVC002 M01/M01 A2993 RMK AO2 FZRANO $
0212725165947372021010510507+43533-072950FM-15+0240KRUT V0203505N00215000615MN0016095N5-00105-00105999999ADDAU100001015AW1105GA1085+000615999GD14991+0006159GE19MSL   +99999+99999GF199999999999000611999999MA1101355098505REMMET08901/05/21 05:50:02 METAR KRUT 051050Z 35004KT 1SM BR OVC002 M01/M01 A2993 RMK AO2 FZRANO $
0231725165947372021010510567+43533-072950FM-15+0240KRUT V0203605N00265000615MN0012075N5-00115-00115101415ADDAU100001015AW1105GA1085+000615999GD14991+0006159GE19MSL   +99999+99999GF199999999999000611999999MA1101355098505REMMET10801/05/21 05:56:02 METAR KRUT 051056Z 36005KT 3/4SM BR OVC002 M01/M01 A2993 RMK AO2 SLP141 T10111011 FZRANO $
0216725165947372021010511277+43533-072950FM-15+0240KRUT V0203305N00155000615MN0008055N5-00105-00105999999ADDAU108002015AW1355GA1085+000615999GD14991+0006159GE19MSL   +99999+99999GF199999999999000611999999MA1101355098505REMMET09301/05/21 06:27:02 METAR KRUT 051127Z 33003KT 1/2SM FZFG OVC002 M01/M01 A2993 RMK AO2 FZRANO $
0212725165947372021010511467+43533-072950FM-15+0240KRUT V0203205N00215000615MN0016095N5-00105-00105999999ADDAU100001015AW1105GA1085+000615999GD14991+0006159GE19MSL   +99999+99999GF199999999999000611999999MA1101355098505REMMET08901/05/21 06:46:02 METAR KRUT 051146Z 32004KT 1SM BR OVC002 M01/M01 A2993 RMK AO2 FZRANO $
0343725165947372021010511567+43533-072950FM-15+0240KRUT V0203205N00155000615MN0028165N5-00115-00115101385ADDAA106000021AU100001015AW1105GA1085+000615999GD14991+0006159GE19MSL   +99999+99999GF199999999999000611999999KA1060M-00061KA2060N-00111MA1101325098475MD1890009+9999REMMET13401/05/21 06:56:02 METAR KRUT 051156Z 32003KT 1 3/4SM BR OVC002 M01/M01 A2992 RMK AO2 SLP138 60000 T10111011 11006 21011 58000 FZRANO $EQDQ010     3APC3  Q02  00008PRCP06
0263725165947372021010512047+43533-072950FM-15+0240KRUT V0203205N00215000615MN0048285N5-00105-00105999999ADDAA101000021AU120090015AU200001015AW1105AW2401AW3415GA1085+000615999GD14991+0006159GE19MSL   +99999+99999GF199999999999000611999999MA1101325098475REMMET10601/05/21 07:04:02 METAR KRUT 051204Z 32004KT 3SM UP BR OVC002 M01/M01 A2992 RMK AO2 UPB1158 P0000 FZRANO $
0265725165947372021010512567+43533-072950FM-15+0240KRUT V0203205N00155000615MN0064375N5-00175-00175101415ADDAA101000021AU100001015AW1105GA1085+000615999GD14991+0006159GE19MSL   +99999+99999GF199999999999000611999999MA1101355098505REMMET13101/05/21 07:56:02 METAR KRUT 051256Z 32003KT 4SM BR OVC002 M02/M02 A2993 RMK AO2 UPB1158E25SNB12E21 SLP141 P0000 T10171017 FZRANO $
0212725165947372021010513247+43533-072950FM-15+0240KRUT V0203305N00155001225MN0080475N5-00205-00205999999ADDAU100001015AW1105GA1085+001225999GD14991+0012259GE19MSL   +99999+99999GF199999999999001221999999MA1101395098545REMMET08901/05/21 08:24:02 METAR KRUT 051324Z 33003KT 5SM BR OVC004 M02/M02 A2994 RMK AO2 FZRANO $
0229725165947372021010513567+43533-072950FM-15+0240KRUT V0203105N00215001225MN0080475N5-00175-00175101465ADDAU100001015AW1105GA1085+001225999GD14991+0012259GE19MSL   +99999+99999GF199999999999001221999999MA1101425098575REMMET10601/05/21 08:56:02 METAR KRUT 051356Z 31004KT 5SM BR OVC004 M02/M02 A2995 RMK AO2 SLP146 T10171017 FZRANO $
0285725165947372021010514567+43533-072950FM-15+0240KRUT V0200105N00265001225MN0048285N5-00115-00115101455ADDAA103000021AU100001015AW1105GA1085+001225999GD14991+0012259GE19MSL   +99999+99999GF199999999999001221999999MA1101425098575MD1090079+9999REMMET11801/05/21 09:56:02 METAR KRUT 051456Z 01005KT 3SM BR OVC004 M01/M01 A2995 RMK AO2 SLP145 60000 T10111011 50007 FZRANO $EQDQ01  00008PRCP03
0216725165947372021010515097+43533-072950FM-15+0240KRUT V0203405N00215001225MN0040235N5-00105-00105999999ADDAU100001015AW1105GA1085+001225999GD14991+0012259GE19MSL   +99999+99999GF199999999999001221999999MA1101395098545REMMET09301/05/21 10:09:02 METAR KRUT 051509Z 34004KT 2 1/2SM BR OVC004 M01/M01 A2994 RMK AO2 FZRANO $
0212725165947372021010515217+43533-072950FM-15+0240KRUT V0203505N00265001225MN0048285N5-00105-00105999999ADDAU100001015AW1105GA1085+001225999GD14991+0012259GE19MSL   +99999+99999GF199999999999001221999999MA1101395098545REMMET08901/05/21 10:21:02 METAR KRUT 051521Z 35005KT 3SM BR OVC004 M01/M01 A2994 RMK AO2 FZRANO $
0216725165947372021010515367+43533-072950FM-15+0240KRUT V0200205N00265001225MN0024145N5-00105-00105999999ADDAU100001015AW1105GA1085+001225999GD14991+0012259GE19MSL   +99999+99999GF199999999999001221999999MA1101395098545REMMET09301/05/21 10:36:02 METAR KRUT 051536Z 02005KT 1 1/2SM BR OVC004 M01/M01 A2994 RMK AO2 FZRANO $
0214725165947372021010515427+43533-072950FM-15+0240KRUT V0200205N00215001225MN0012075N5-00105-00105999999ADDAU100001015AW1105GA1085+001225999GD14991+0012259GE19MSL   +99999+99999GF199999999999001221999999MA1101395098545REMMET09101/05/21 10:42:02 METAR KRUT 051542Z 02004KT 3/4SM BR OVC004 M01/M01 A2994 RMK AO2 FZRANO $
0212725165947372021010515457+43533-072950FM-15+0240KRUT V0200105N00155000615MN0016095N5-00105-00105999999ADDAU100001015AW1105GA1085+000615999GD14991+0006159GE19MSL   +99999+99999GF199999999999000611999999MA1101395098545REMMET08901/05/21 10:45:02 METAR KRUT 051545Z 01003KT 1SM BR OVC002 M01/M01 A2994 RMK AO2 FZRANO $
0224725165947372021010515507+43533-072950FM-15+0240KRUT V0203605N00265000615MN0032195V5-00105-00105999999ADDAU100001015AW1105GA1085+000615999GD14991+0006159GE19MSL   +99999+99999GF199999999999000611999999MA1101355098505REMMET10101/05/21 10:50:02 METAR KRUT 051550Z 36005KT 2SM BR OVC002 M01/M01 A2993 RMK AO2 VIS 1 1/4V3 FZRANO $
0233725165947372021010515567+43533-072950FM-15+0240KRUT V0200105N00215000615MN0020125N5-00115-00115101405ADDAU100001015AW1105GA1085+000615999GD14991+0006159GE19MSL   +99999+99999GF199999999999000611999999MA1101355098505REMMET11001/05/21 10:56:02 METAR KRUT 051556Z 01004KT 1 1/4SM BR OVC002 M01/M01 A2993 RMK AO2 SLP140 T10111011 FZRANO $
0214725165947372021010515587+43533-072950FM-15+0240KRUT V0200105N00265000615MN0012075N5-00105-00105999999ADDAU100001015AW1105GA1085+000615999GD14991+0006159GE19MSL   +99999+99999GF199999999999000611999999MA1101355098505REMMET09101/05/21 10:58:02 METAR KRUT 051558Z 01005KT 3/4SM BR OVC002 M01/M01 A2993 RMK AO2 FZRANO $
0216725165947372021010516037+43533-072950FM-15+0240KRUT V0200105N00215000615MN0004025N5-00105-00105999999ADDAU108002015AW1355GA1085+000615999GD14991+0006159GE19MSL   +99999+99999GF199999999999000611999999MA1101355098505REMMET09301/05/21 11:03:02 METAR KRUT 051603Z 01004KT 1/4SM FZFG OVC002 M01/M01 A2993 RMK AO2 FZRANO $
0214725165947372021010516257+43533-072950FM-15+0240KRUT V0203505N00215000615MN0012075N5-00105-00105999999ADDAU100001015AW1105GA1085+000615999GD14991+0006159GE19MSL   +99999+99999GF199999999999000611999999MA1101325098475REMMET09101/05/21 11:25:02 METAR KRUT 051625Z 35004KT 3/4SM BR OVC002 M01/M01 A2992 RMK AO2 FZRANO $
0226725165947372021010516277+43533-072950FM-15+0240KRUT V0203405N00215000615MN0028165V5-00105-00105999999ADDAU100001015AW1105GA1085+000615999GD14991+0006159GE19MSL   +99999+99999GF199999999999000611999999MA1101325098475REMMET10301/05/21 11:27:02 METAR KRUT 051627Z 34004KT 1 3/4SM BR OVC002 M01/M01 A2992 RMK AO2 VIS 1/2V4 FZRANO $
0212725165947372021010516317+43533-072950FM-15+0240KRUT V0203605N00215000615MN0048285N5-00105-00105999999ADDAU100001015AW1105GA1085+000615999GD14991+0006159GE19MSL   +99999+99999GF199999999999000611999999MA1101325098475REMMET08901/05/21 11:31:02 METAR KRUT 051631Z 36004KT 3SM BR OVC002 M01/M01 A2992 RMK AO2 FZRANO $
0229725165947372021010516567+43533-072950FM-15+0240KRUT V0200105N00265001225MN0080475N5-00065-00065101335ADDAU100001015AW1105GA1085+001225999GD14991+0012259GE19MSL   +99999+99999GF199999999999001221999999MA1101295098445REMMET10601/05/21 11:56:02 METAR KRUT 051656Z 01005KT 5SM BR OVC004 M01/M01 A2991 RMK AO2 SLP133 T10061006 FZRANO $
0323725165947372021010517567+43533-072950FM-15+0240KRUT V0203605N00265001225MN0048285N5-00115-00115101295ADDAA106000021AU100001015AW1105GA1085+001225999GD14991+0012259GE19MSL   +99999+99999GF199999999999001221999999KA1060M-00061KA2060N-00171MA1101255098405MD1690169+9999REMMET13001/05/21 12:56:02 METAR KRUT 051756Z 36005KT 3SM BR OVC004 M01/M01 A2990 RMK AO2 SLP129 60000 T10111011 11006 21017 56016 FZRANO $EQDQ01  00008PRCP06
0229725165947372021010518567+43533-072950FM-15+0240KRUT V0203505N00365001225MN0080475N5-00115-00115101295ADDAU100001015AW1105GA1085+001225999GD14991+0012259GE19MSL   +99999+99999GF199999999999001221999999MA1101255098405REMMET10601/05/21 13:56:02 METAR KRUT 051856Z 35007KT 5SM BR OVC004 M01/M01 A2990 RMK AO2 SLP129 T10111011 FZRANO $
0229725165947372021010519567+43533-072950FM-15+0240KRUT V0203605N00465001225MN0096565N5-00175-00175101345ADDAU100001015AW1105GA1085+001225999GD14991+0012259GE19MSL   +99999+99999GF199999999999001221999999MA1101295098445REMMET10601/05/21 14:56:02 METAR KRUT 051956Z 36009KT 6SM BR OVC004 M02/M02 A2991 RMK AO2 SLP134 T10171017 FZRANO $
0249725165947372021010520567+43533-072950FM-15+0240KRUT V0203505N00265001225MN0064375N5-00225-00225101375ADDAU100001015AW1105GA1085+001225999GD14991+0012259GE19MSL   +99999+99999GF199999999999001221999999MA1101355098505MD1390109+9999REMMET11201/05/21 15:56:02 METAR KRUT 052056Z 35005KT 4SM BR OVC004 M02/M02 A2993 RMK AO2 SLP137 T10221022 53010 FZRANO $
0229725165947372021010521567+43533-072950FM-15+0240KRUT V0203505N00415001225MN0080475N5-00285-00285101435ADDAU100001015AW1105GA1085+001225999GD14991+0012259GE19MSL   +99999+99999GF199999999999001221999999MA1101395098545REMMET10601/05/21 16:56:02 METAR KRUT 052156Z 35008KT 5SM BR OVC004 M03/M03 A2994 RMK AO2 SLP143 T10281028 FZRANO $
0216725165947372021010522087+43533-072950FM-15+0240KRUT V0203405N00265000615MN0040235N5-00305-00305999999ADDAU100001015AW1105GA1085+000615999GD14991+0006159GE19MSL   +99999+99999GF199999999999000611999999MA1101425098575REMMET09301/05/21 17:08:02 METAR KRUT 052208Z 34005KT 2 1/2SM BR OVC002 M03/M03 A2995 RMK AO2 FZRANO $
0229725165947372021010522567+43533-072950FM-15+0240KRUT V0203305N00365000615MN0032195N5-00285-00285101465ADDAU100001015AW1105GA1085+000615999GD14991+0006159GE19MSL   +99999+99999GF199999999999000611999999MA1101465098605REMMET10601/05/21 17:56:02 METAR KRUT 052256Z 33007KT 2SM BR OVC002 M03/M03 A2996 RMK AO2 SLP146 T10281028 FZRANO $
0216725165947372021010523267+43533-072950FM-15+0240KRUT V0203405N00315000615MN0028165N5-00305-00305999999ADDAU100001015AW1105GA1085+000615999GD14991+0006159GE19MSL   +99999+99999GF199999999999000611999999MA1101425098575REMMET09301/05/21 18:26:02 METAR KRUT 052326Z 34006KT 1 3/4SM BR OVC002 M03/M03 A2995 RMK AO2 FZRANO $
0212725165947372021010523497+43533-072950FM-15+0240KRUT V0203205N00365000615MN0032195N5-00305-00305999999ADDAU100001015AW1105GA1085+000615999GD14991+0006159GE19MSL   +99999+99999GF199999999999000611999999MA1101465098605REMMET08901/05/21 18:49:02 METAR KRUT 052349Z 32007KT 2SM BR OVC002 M03/M03 A2996 RMK AO2 FZRANO $
0287725165947372021010523567+43533-072950FM-15+0240KRUT V0203305N00215000615MN0032195N5-00285-00285101475ADDAU100001015AW1105GA1085+000615999GD14991+0006159GE19MSL   +99999+99999GF199999999999000611999999KA1060M-00111KA2060N-00281MA1101465098605MD1190049+9999REMMET12401/05/21 18:56:02 METAR KRUT 052356Z 33004KT 2SM BR OVC002 M03/M03 A2996 RMK AO2 SLP147 T10281028 11011 21028 51004 FZRANO $
0216725165947372021010600367+43533-072950FM-15+0240KRUT V0203105N00315000615MN0028165N5-00305-00305999999ADDAU100001015AW1105GA1085+000615999GD14991+0006159GE19MSL   +99999+99999GF199999999999000611999999MA1101465098605REMMET09301/05/21 19:36:01 METAR KRUT 060036Z 31006KT 1 3/4SM BR OVC002 M03/M03 A2996 RMK AO2 FZRANO $
0233725165947372021010600567+43533-072950FM-15+0240KRUT V0203305N00315000615MN0040235N5-00285-00285101495ADDAU100001015AW1105GA1085+000615999GD14991+0006159GE19MSL   +99999+99999GF199999999999000611999999MA1101465098605REMMET11001/05/21 19:56:01 METAR KRUT 060056Z 33006KT 2 1/2SM BR OVC002 M03/M03 A2996 RMK AO2 SLP149 T10281028 FZRANO $
0212725165947372021010601227+43533-072950FM-15+0240KRUT V0203205N00265000615MN0048285N5-00305-00305999999ADDAU100001015AW1105GA1085+000615999GD14991+0006159GE19MSL   +99999+99999GF199999999999000611999999MA1101465098605REMMET08901/05/21 20:22:01 METAR KRUT 060122Z 32005KT 3SM BR OVC002 M03/M03 A2996 RMK AO2 FZRANO $
0229725165947372021010601567+43533-072950FM-15+0240KRUT V0203305N00365000615MN0096565N5-00335-00335101475ADDAU100001015AW1105GA1085+000615999GD14991+0006159GE19MSL   +99999+99999GF199999999999000611999999MA1101425098575REMMET10601/05/21 20:56:01 METAR KRUT 060156Z 33007KT 6SM BR OVC002 M03/M03 A2995 RMK AO2 SLP147 T10331033 FZRANO $
0192725165947372021010602307+43533-072950FM-15+0240KRUT V0203405N00315001225MN0128755N5-00305-00305999999ADDGA1085+001225999GD14991+0012259GE19MSL   +99999+99999GF199999999999001221999999MA1101425098575REMMET08601/05/21 21:30:01 METAR KRUT 060230Z 34006KT 8SM OVC004 M03/M03 A2995 RMK AO2 FZRANO $
0229725165947372021010602567+43533-072950FM-15+0240KRUT V0203505N00265001225MN0128755N5-00335-00335101475ADDGA1085+001225999GD14991+0012259GE19MSL   +99999+99999GF199999999999001221999999MA1101425098575MD1890019+9999REMMET10901/05/21 21:56:01 METAR KRUT 060256Z 35005KT 8SM OVC004 M03/M03 A2995 RMK AO2 SLP147 T10331033 58001 FZRANO $
0235725165947372021010603567+43533-072950FM-15+0240KRUT V0203205N00415001225MN0128755N5-00395-00395101465ADDAA101000021GA1085+001225999GD14991+0012259GE19MSL   +99999+99999GF199999999999001221999999MA1101425098575REMMET11801/05/21 22:56:01 METAR KRUT 060356Z 32008KT 8SM OVC004 M04/M04 A2995 RMK AO2 SNB05E17 SLP146 P0000 T10391039 FZRANO $
0295725165947372021010604567+43533-072950FM-15+0240KRUT V0203205N00415001225MN0128755N5-00395-00395101475ADDAA101000021AU110030015AW1715GA1085+001225999GD14991+0012259GE19MSL   +99999+99999GF199999999999001221999999KA1240M-00061KA2240N-00391MA1101425098575MW1715REMMET12901/05/21 23:56:02 METAR KRUT 060456Z 32008KT 8SM -SN OVC004 M04/M04 A2995 RMK AO2 SNB32 SLP147 P0000 T10391039 410061039 FZRANO $
0573725165947372021010604596+43533-072950SOD  +0240KRUT V020999999999999999999999999999+99999+99999999999ADDAA124000025AT1AU18SN  5AT2AU22FZFG5AT3AU13BR  5AT4AU19UP  5AT5AW01FG  5AX1016246AX2026246KA1240M-00055KA2240N-00385MG1098529999994OE11249999999999997OE22240044736099995OE33240025099999995REMSOD33924 HR PRECIPITATION (IN):    T WEATHER(CODE):12  24 HR MAX TEMP (F): 3124 HR MIN TEMP (F): 25AVERAGE STATION PRESSURE(D):29.093  FASTEST 2MIN SPEED (MPH): 10FASTEST 2MIN DIR (DEG):360 FASTEST 2MIN TIME (LST):     AVERAGE WIND SPEED (MPH): 5.6 24 HR AVG TEMP (F): 28SKY COVER SR-SS (TENTHS): 1HEATING DEGREE DAYS: 37 COOLING DEGREE DAYS:  0EQDR01    127AXW090R02    127AXW090
0356725165947372021010605567+43533-072950FM-15+0240KRUT V0203305N00465001225MN0144845N5-00395-00395101475ADDAA101000021AA206000021AU110030015AW1715GA1085+001225999GD14991+0012259GE19MSL   +99999+99999GF199999999999001221999999KA1060M-00281KA2060N-00391MA1101425098575MD1690019+9999MW1715REMMET14601/06/21 00:56:02 METAR KRUT 060556Z 33009KT 9SM -SN OVC004 M04/M04 A2995 RMK AO2 SNE25B51 SLP147 P0000 60000 T10391039 11028 21039 56001 FZRANO $EQDQ01  00008PRCP06
0253725165947372021010606567+43533-072950FM-15+0240KRUT V0203105N00415001225MN0144845N5-00445-00445101515ADDAA101000021AU110030015AW1715GA1085+001225999GD14991+0012259GE19MSL   +99999+99999GF199999999999001221999999MA1101465098605MW1715REMMET11301/06/21 01:56:02 METAR KRUT 060656Z 31008KT 9SM -SN OVC004 M04/M04 A2996 RMK AO2 SLP151 P0000 T10441044 FZRANO $
0233725165947372021010607567+43533-072950FM-15+0240KRUT V0203205N00515001835MN0160935N5-00445-00445101505ADDAA101000021GA1085+001835999GD14991+0018359GE19MSL   +99999+99999GF199999999999001831999999MA1101465098605REMMET11601/06/21 02:56:02 METAR KRUT 060756Z 32010KT 10SM OVC006 M04/M04 A2996 RMK AO2 SNE31 SLP150 P0000 T10441044 FZRANO $
0291725165947372021010608567+43533-072950FM-15+0240KRUT V0203205N00415001835MN0144845N5-00445-00445101505ADDAA101000021AA203000021GA1085+001835999GD14991+0018359GE19MSL   +99999+99999GF199999999999001831999999MA1101465098605MD1090029+9999REMMET13001/06/21 03:56:02 METAR KRUT 060856Z 32008KT 9SM OVC006 M04/M04 A2996 RMK AO2 SNB41E54 SLP150 P0000 60000 T10441044 50002 FZRANO $EQDQ01  00008PRCP03
0210725165947372021010609567+43533-072950FM-15+0240KRUT V0203205N00515001835MN0160935N5-00445-00445101535ADDGA1085+001835999GD14991+0018359GE19MSL   +99999+99999GF199999999999001831999999MA1101495098635REMMET10401/06/21 04:56:02 METAR KRUT 060956Z 32010KT 10SM OVC006 M04/M04 A2997 RMK AO2 SLP153 T10441044 FZRANO $
0221725165947372021010610567+43533-072950FM-15+0240KRUT V0203205N00365002445MN0160935N5-00445-00445101555ADDGA1085+002445999GD14991+0024459GE19MSL   +99999+99999GF199999999999002441999999MA1101495098635OC100775REMMET10701/06/21 05:56:02 METAR KRUT 061056Z 32007G15KT 10SM OVC008 M04/M04 A2997 RMK AO2 SLP155 T10441044 FZRANO $
0193725165947372021010611227+43533-072950FM-15+0240KRUT V0203205N00365003055MN0160935N5-00405-00405999999ADDGA1085+003055999GD14991+0030559GE19MSL   +99999+99999GF199999999999003051999999MA1101525098675REMMET08701/06/21 06:22:02 METAR KRUT 061122Z 32007KT 10SM OVC010 M04/M04 A2998 RMK AO2 FZRANO $
0364725165947372021010611567+43533-072950FM-15+0240KRUT V0203205N00465003055MN0144845N5-00445-00445101605ADDAA101000021AA206000021AU110030015AW1715GA1085+003055999GD14991+0030559GE19MSL   +99999+99999GF199999999999003051999999KA1060M-00391KA2060N-00441MA1101565098705MD1390109+9999MW1715OC100775REMMET14601/06/21 06:56:02 METAR KRUT 061156Z 32009G15KT 9SM -SN OVC010 M04/M04 A2999 RMK AO2 SNB34 SLP160 P0000 60000 T10441044 11039 21044 53010 FZRANO $EQDQ01  00008PRCP06
0273725165947372021010612567+43533-072950FM-15+0240KRUT V0203305N00415003665MN0080475N5-00445-00445101665ADDAA101000021AU110030015AU200001015AW1105AW2715GA1085+003665999GD14991+0036659GE19MSL   +99999+99999GF199999999999003661999999MA1101635098775MW1715REMMET11601/06/21 07:56:02 METAR KRUT 061256Z 33008KT 5SM -SN BR OVC012 M04/M04 A3001 RMK AO2 SLP166 P0000 T10441044 FZRANO $
0260725165947372021010613077+43533-072950FM-15+0240KRUT V0203205N00315003665MN0028165N5-00405-00405999999ADDAA101000021AU110030015AU200001015AW1105AW2715GA1085+003665999GD14991+0036659GE19MSL   +99999+99999GF199999999999003661999999MA1101635098775MW1715REMMET10301/06/21 08:07:02 METAR KRUT 061307Z 32006KT 1 3/4SM -SN BR OVC012 M04/M04 A3001 RMK AO2 P0000 FZRANO $
0306725165947372021010613237+43533-072950FM-15+0240KRUT V0203205N00315002745MN0032195N5-00405-00405999999ADDAA101000021AU110030015AU200001015AW1105AW2715GA1075+002745999GA2085+003665999GD13991+0027451GD24991+0036659GE19MSL   +99999+99999GF199999999999002741999999MA1101635098775MW1715REMMET11801/06/21 08:23:02 METAR KRUT 061323Z 32006KT 2SM -SN BR BKN009 OVC012 M04/M04 A3001 RMK AO2 CIG 007V011 P0000 FZRANO $
0306725165947372021010613287+43533-072950FM-15+0240KRUT V0203105N00415003055MN0048285N5-00405-00405999999ADDAA101000021AU110030015AU200001015AW1105AW2715GA1075+003055999GA2085+004275999GD13991+0030551GD24991+0042759GE19MSL   +99999+99999GF199999999999003051999999MA1101635098775MW1715REMMET11801/06/21 08:28:02 METAR KRUT 061328Z 31008KT 3SM -SN BR BKN010 OVC014 M04/M04 A3001 RMK AO2 CIG 007V011 P0000 FZRANO $
0244725165947372021010613567+43533-072950FM-15+0240KRUT V0203205N00315003055MN0144845N5-00395-00395101705ADDAA101000021GA1085+003055999GD14991+0030551GE19MSL   +99999+99999GF199999999999003051999999MA1101665098805REMMET12701/06/21 08:56:02 METAR KRUT 061356Z 32006KT 9SM OVC010 M04/M04 A3002 RMK AO2 SNE56 CIG 008V015 SLP170 P0000 T10391039 FZRANO $
0266725165947372021010614567+43533-072950FM-15+0240KRUT V0203205N00415004275MN0160935N5-00285-00335101705ADDAA103000021GA1085+004275999GD14991+0042759GE19MSL   +99999+99999GF199999999999004271999999MA1101665098805MD1190109+9999REMMET11601/06/21 09:56:02 METAR KRUT 061456Z 32008KT 10SM OVC014 M03/M03 A3002 RMK AO2 SLP170 60000 T10281033 51010 FZRANO $EQDQ01  00008PRCP03
0193725165947372021010615227+43533-072950FM-15+0240KRUT V0203205N00415004885MN0160935N5-00305-00305999999ADDGA1085+004885999GD14991+0048859GE19MSL   +99999+99999GF199999999999004881999999MA1101665098805REMMET08701/06/21 10:22:02 METAR KRUT 061522Z 32008KT 10SM OVC016 M03/M03 A3002 RMK AO2 FZRANO $
0221725165947372021010615567+43533-072950FM-15+0240KRUT V0203205N00625004885MN0160935N5-00285-00395101675ADDGA1085+004885999GD14991+0048859GE19MSL   +99999+99999GF199999999999004881999999MA1101635098775OC100825REMMET10701/06/21 10:56:02 METAR KRUT 061556Z 32012G16KT 10SM OVC016 M03/M04 A3001 RMK AO2 SLP167 T10281039 FZRANO $
0221725165947372021010616567+43533-072950FM-15+0240KRUT V0203205N00415004885MN0160935N5-00285-00445101645ADDGA1085+004885999GD14991+0048859GE19MSL   +99999+99999GF199999999999004881999999MA1101595098735OC100885REMMET10701/06/21 11:56:02 METAR KRUT 061656Z 32008G17KT 10SM OVC016 M03/M04 A3000 RMK AO2 SLP164 T10281044 FZRANO $
0315725165947372021010617567+43533-072950FM-15+0240KRUT V0203305N00625004885MN0160935N5-00285-00505101615ADDAA106000021GA1085+004885999GD14991+0048859GE19MSL   +99999+99999GF199999999999004881999999KA1060M-00281KA2060N-00441MA1101565098705MD1690099+9999OC100885REMMET13101/06/21 12:56:02 METAR KRUT 061756Z 33012G17KT 10SM OVC016 M03/M05 A2999 RMK AO2 SLP161 60000 T10281050 11028 21044 56009 FZRANO $EQDQ01  00008PRCP06
0221725165947372021010618567+43533-072950FM-15+0240KRUT V0203205N00575005495MN0160935N5-00225-00505101645ADDGA1085+005495999GD14991+0054959GE19MSL   +99999+99999GF199999999999005491999999MA1101595098735OC100825REMMET10701/06/21 13:56:02 METAR KRUT 061856Z 32011G16KT 10SM OVC018 M02/M05 A3000 RMK AO2 SLP164 T10221050 FZRANO $
0210725165947372021010619567+43533-072950FM-15+0240KRUT V0203305N00315005495MN0160935N5-00285-00505101705ADDGA1085+005495999GD14991+0054959GE19MSL   +99999+99999GF199999999999005491999999MA1101665098805REMMET10401/06/21 14:56:02 METAR KRUT 061956Z 33006KT 10SM OVC018 M03/M05 A3002 RMK AO2 SLP170 T10281050 FZRANO $
0241725165947372021010620567+43533-072950FM-15+0240KRUT V0203205N00515005495MN0160935N5-00285-00505101725ADDGA1085+005495999GD14991+0054959GE19MSL   +99999+99999GF199999999999005491999999MA1101665098805MD1190109+9999OC100725REMMET11301/06/21 15:56:02 METAR KRUT 062056Z 32010G14KT 10SM OVC018 M03/M05 A3002 RMK AO2 SLP172 T10281050 51010 FZRANO $
0221725165947372021010621567+43533-072950FM-15+0240KRUT V0203105N00415005495MN0160935N5-00285-00505101745ADDGA1085+005495999GD14991+0054959GE19MSL   +99999+99999GF199999999999005491999999MA1101695098835OC100775REMMET10701/06/21 16:56:02 METAR KRUT 062156Z 31008G15KT 10SM OVC018 M03/M05 A3003 RMK AO2 SLP174 T10281050 FZRANO $
0210725165947372021010622567+43533-072950FM-15+0240KRUT V0203205N00315005495MN0160935N5-00335-00505101805ADDGA1085+005495999GD14991+0054959GE19MSL   +99999+99999GF199999999999005491999999MA1101735098875REMMET10401/06/21 17:56:02 METAR KRUT 062256Z 32006KT 10SM OVC018 M03/M05 A3004 RMK AO2 SLP180 T10331050 FZRANO $
0268725165947372021010623567+43533-072950FM-15+0240KRUT V0203205N00415005495MN0160935N5-00335-00565101825ADDGA1085+005495999GD14991+0054959GE19MSL   +99999+99999GF199999999999005491999999KA1060M-00221KA2060N-00331MA1101765098905MD1390099+9999REMMET12201/06/21 18:56:02 METAR KRUT 062356Z 32008KT 10SM OVC018 M03/M06 A3005 RMK AO2 SLP182 T10331056 11022 21033 53009 FZRANO $
0210725165947372021010700567+43533-072950FM-15+0240KRUT V0203305N00365006105MN0160935N5-00395-00615101865ADDGA1085+006105999GD14991+0061059GE19MSL   +99999+99999GF199999999999006101999999MA1101795098935REMMET10401/06/21 19:56:01 METAR KRUT 070056Z 33007KT 10SM OVC020 M04/M06 A3006 RMK AO2 SLP186 T10391061 FZRANO $
0231725165947372021010701377+43533-072950FM-15+0240KRUT V0203305N00465033535MN0160935N5-00405-00605999999ADDGA1025+006105999GA2085+033535999GD11991+0061059GD24991+0335359GE19MSL   +99999+99999GF199999999999006101999999MA1101795098935REMMET09401/06/21 20:37:01 METAR KRUT 070137Z 33009KT 10SM FEW020 OVC110 M04/M06 A3006 RMK AO2 FZRANO $
0210725165947372021010701567+43533-072950FM-15+0240KRUT V0203205N00465033535MN0160935N5-00395-00675101855ADDGA1075+033535999GD13991+0335359GE19MSL   +99999+99999GF199999999999033531999999MA1101795098935REMMET10401/06/21 20:56:01 METAR KRUT 070156Z 32009KT 10SM BKN110 M04/M07 A3006 RMK AO2 SLP185 T10391067 FZRANO $
0205725165947372021010702567+43533-072950FM-15+0240KRUT V0203205N002652200059N0160935N5-00445-00615101855ADDGA1005+999999999GD10991+9999999GF100991999999999999999999MA1101795098935MD1190039+9999REMMET10701/06/21 21:56:01 METAR KRUT 070256Z 32005KT 10SM CLR M04/M06 A3006 RMK AO2 SLP185 T10441061 51003 FZRANO $
0231725165947372021010703537+43533-072950FM-15+0240KRUT V0203205N00265008235MN0160935N5-00405-00605999999ADDGA1045+005495999GA2075+008235999GD12991+0054959GD23991+0082359GE19MSL   +99999+99999GF199999999999005491999999MA1101795098935REMMET09401/06/21 22:53:01 METAR KRUT 070353Z 32005KT 10SM SCT018 BKN027 M04/M06 A3006 RMK AO2 FZRANO $
0248725165947372021010703567+43533-072950FM-15+0240KRUT V0203305N00265008235MN0160935N5-00445-00615101835ADDGA1045+005495999GA2075+008235999GD12991+0054959GD23991+0082359GE19MSL   +99999+99999GF199999999999005491999999MA1101795098935REMMET11101/06/21 22:56:01 METAR KRUT 070356Z 33005KT 10SM SCT018 BKN027 M04/M06 A3006 RMK AO2 SLP183 T10441061 FZRANO $
0246725165947372021010704567+43533-072950FM-15+0240KRUT V0203305N00265007015MN0160935N5-00505-00675101835ADDGA1075+007015999GD13991+0070159GE19MSL   +99999+99999GF199999999999007011999999KA1240M-00221KA2240N-00501MA1101765098905REMMET11401/06/21 23:56:02 METAR KRUT 070456Z 33005KT 10SM BKN023 M05/M07 A3005 RMK AO2 SLP183 T10501067 410221050 FZRANO $
0541725165947372021010704596+43533-072950SOD  +0240KRUT V020999999999999999999999999999+99999+99999999999ADDAA124000025AT1AU18SN  5AT2AU13BR  5AX1015245KA1240M-00215KA2240N-00495MG1098789999994OE11240089432099995OE22240062633099995OE33240042599999995REMSOD38724 HR PRECIPITATION (IN):    T WEATHER(CODE):1  24 HR MAX TEMP (F): 2824 HR MIN TEMP (F): 23AVERAGE STATION PRESSURE(D):29.169 PEAK WIND SPEED (MPH): 20 PEAK WIND DIR (DEG):320 PEAK WIND TIME (LST):      FASTEST 2MIN SPEED (MPH): 14FASTEST 2MIN DIR (DEG):330 FASTEST 2MIN TIME (LST):     AVERAGE WIND SPEED (MPH): 9.5 24 HR AVG TEMP (F): 26HEATING DEGREE DAYS: 39 COOLING DEGREE DAYS:  0
0212725165947372021010705097+43533-072950FM-15+0240KRUT V0209999V002152200059N0160935N5-00505-00705999999ADDGA1025+007015999GD11991+0070159GE19AGL   +99999+99999GF102995999999007011999999MA1101765098905REMMET08701/07/21 00:09:02 METAR KRUT 070509Z VRB04KT 10SM FEW023 M05/M07 A3005 RMK AO2 FZRANO $EQDD01      0ADE726
0193725165947372021010705537+43533-072950FM-15+0240KRUT V0203405N00265006715MN0160935N5-00605-00605999999ADDGA1075+006715999GD13991+0067159GE19MSL   +99999+99999GF199999999999006711999999MA1101795098935REMMET08701/07/21 00:53:02 METAR KRUT 070553Z 34005KT 10SM BKN022 M06/M06 A3006 RMK AO2 FZRANO $
0268725165947372021010705567+43533-072950FM-15+0240KRUT V0203305N00215006715MN0160935N5-00505-00615101865ADDGA1075+006715999GD13991+0067159GE19MSL   +99999+99999GF199999999999006711999999KA1060M-00331KA2060N-00561MA1101795098935MD1390029+9999REMMET12201/07/21 00:56:02 METAR KRUT 070556Z 33004KT 10SM BKN022 M05/M06 A3006 RMK AO2 SLP186 T10501061 11033 21056 53002 FZRANO $
0210725165947372021010706567+43533-072950FM-15+0240KRUT V0203305N00415006105MN0160935N5-00445-00565101885ADDGA1085+006105999GD14991+0061059GE19MSL   +99999+99999GF199999999999006101999999MA1101835098975REMMET10401/07/21 01:56:02 METAR KRUT 070656Z 33008KT 10SM OVC020 M04/M06 A3007 RMK AO2 SLP188 T10441056 FZRANO $
0221725165947372021010707567+43533-072950FM-15+0240KRUT V0203205N00415006105MN0160935N5-00445-00615101915ADDGA1085+006105999GD14991+0061059GE19MSL   +99999+99999GF199999999999006101999999MA1101865099005OC100825REMMET10701/07/21 02:56:02 METAR KRUT 070756Z 32008G16KT 10SM OVC020 M04/M06 A3008 RMK AO2 SLP191 T10441061 FZRANO $
0230725165947372021010708567+43533-072950FM-15+0240KRUT V0203205N00365005495MN0160935N5-00445-00675101945ADDGA1085+005495999GD14991+0054959GE19MSL   +99999+99999GF199999999999005491999999MA1101905099035MD1390099+9999REMMET11001/07/21 03:56:02 METAR KRUT 070856Z 32007KT 10SM OVC018 M04/M07 A3009 RMK AO2 SLP194 T10441067 53009 FZRANO $
0210725165947372021010709567+43533-072950FM-15+0240KRUT V0203205N00315006105MN0160935N5-00505-00725102015ADDGA1085+006105999GD14991+0061059GE19MSL   +99999+99999GF199999999999006101999999MA1101965099105REMMET10401/07/21 04:56:02 METAR KRUT 070956Z 32006KT 10SM OVC020 M05/M07 A3011 RMK AO2 SLP201 T10501072 FZRANO $
0229725165947372021010710567+43533-072950FM-15+0240KRUT V0203205N003152200059N0160935N5-00565-00785102045ADDGA1045+005495999GD12991+0054959GE19AGL   +99999+99999GF104995999999005491999999MA1101965099105REMMET10401/07/21 05:56:02 METAR KRUT 071056Z 32006KT 10SM SCT018 M06/M08 A3011 RMK AO2 SLP204 T10561078 FZRANO $EQDD01      0ADE726
0193725165947372021010711397+43533-072950FM-15+0240KRUT V0203305N00415005495MN0160935N5-00605-00805999999ADDGA1075+005495999GD13991+0054959GE19MSL   +99999+99999GF199999999999005491999999MA1102005099135REMMET08701/07/21 06:39:02 METAR KRUT 071139Z 33008KT 10SM BKN018 M06/M08 A3012 RMK AO2 FZRANO $
0279725165947372021010711567+43533-072950FM-15+0240KRUT V0203205N00415006105MN0160935N5-00615-00785102085ADDGA1075+006105999GD13991+0061059GE19MSL   +99999+99999GF199999999999006101999999KA1060M-00441KA2060N-00611MA1102035099165MD1190139+9999OC100775REMMET12501/07/21 06:56:02 METAR KRUT 071156Z 32008G15KT 10SM BKN020 M06/M08 A3013 RMK AO2 SLP208 T10611078 11044 21061 51013 FZRANO $
0210725165947372021010712567+43533-072950FM-15+0240KRUT V0203105N00215005495MN0160935N5-00675-00835102135ADDGA1075+005495999GD13991+0054959GE19MSL   +99999+99999GF199999999999005491999999MA1102075099205REMMET10401/07/21 07:56:02 METAR KRUT 071256Z 31004KT 10SM BKN018 M07/M08 A3014 RMK AO2 SLP213 T10671083 FZRANO $
0210725165947372021010713567+43533-072950FM-15+0240KRUT V0203205N00365005495MN0160935N5-00565-00785102165ADDGA1075+005495999GD13991+0054959GE19MSL   +99999+99999GF199999999999005491999999MA1102105099235REMMET10401/07/21 08:56:02 METAR KRUT 071356Z 32007KT 10SM BKN018 M06/M08 A3015 RMK AO2 SLP216 T10561078 FZRANO $
0230725165947372021010714567+43533-072950FM-15+0240KRUT V0203305N00465005495MN0160935N5-00395-00725102185ADDGA1085+005495999GD14991+0054959GE19MSL   +99999+99999GF199999999999005491999999MA1102135099265MD1190099+9999REMMET11001/07/21 09:56:02 METAR KRUT 071456Z 33009KT 10SM OVC018 M04/M07 A3016 RMK AO2 SLP218 T10391072 51009 FZRANO $
0221725165947372021010715567+43533-072950FM-15+0240KRUT V0203205N00515005495MN0160935N5-00395-00675102175ADDGA1085+005495999GD14991+0054959GE19MSL   +99999+99999GF199999999999005491999999MA1102105099235OC100885REMMET10701/07/21 10:56:02 METAR KRUT 071556Z 32010G17KT 10SM OVC018 M04/M07 A3015 RMK AO2 SLP217 T10391067 FZRANO $
0221725165947372021010716567+43533-072950FM-15+0240KRUT V0203205N00575004885MN0160935N5-00335-00675102085ADDGA1085+004885999GD14991+0048859GE19MSL   +99999+99999GF199999999999004881999999MA1102035099165OC100985REMMET10701/07/21 11:56:02 METAR KRUT 071656Z 32011G19KT 10SM OVC016 M03/M07 A3013 RMK AO2 SLP208 T10331067 FZRANO $
0279725165947372021010717567+43533-072950FM-15+0240KRUT V0203205N00515004885MN0160935N5-00335-00615102055ADDGA1085+004885999GD14991+0048859GE19MSL   +99999+99999GF199999999999004881999999KA1060M-00331KA2060N-00671MA1102005099135MD1890139+9999OC100935REMMET12501/07/21 12:56:02 METAR KRUT 071756Z 32010G18KT 10SM OVC016 M03/M06 A3012 RMK AO2 SLP205 T10331061 11033 21067 58013 FZRANO $
0210725165947372021010718567+43533-072950FM-15+0240KRUT V0203305N00465005495MN0160935N5-00335-00615102045ADDGA1085+005495999GD14991+0054959GE19MSL   +99999+99999GF199999999999005491999999MA1101965099105REMMET10401/07/21 13:56:02 METAR KRUT 071856Z 33009KT 10SM OVC018 M03/M06 A3011 RMK AO2 SLP204 T10331061 FZRANO $
0223725165947372021010719257+43533-072950FM-15+0240KRUT V0203105N005152200059N0160935N5-00305-00705999999ADDGA1025+005495999GD11991+0054959GE19AGL   +99999+99999GF102995999999005491999999MA1101965099105OC100825REMMET09001/07/21 14:25:02 METAR KRUT 071925Z 31010G16KT 10SM FEW018 M03/M07 A3011 RMK AO2 FZRANO $EQDD01      0ADE726
0210725165947372021010719567+43533-072950FM-15+0240KRUT V0203305N00315006405MN0160935N5-00335-00615102055ADDGA1075+006405999GD13991+0064059GE19MSL   +99999+99999GF199999999999006401999999MA1102005099135REMMET10401/07/21 14:56:02 METAR KRUT 071956Z 33006KT 10SM BKN021 M03/M06 A3012 RMK AO2 SLP205 T10331061 FZRANO $
0287725165947372021010720567+43533-072950FM-15+0240KRUT V0202905N003652200059N0160935N5-00395-00675102125ADDGA1025+006405999GA2045+008535999GD11991+0064059GD22991+0085359GE19AGL   +99999+99999GF104995999999006401999999MA1102075099205MD1390069+9999REMMET11701/07/21 15:56:02 METAR KRUT 072056Z 29007KT 10SM FEW021 SCT028 M04/M07 A3014 RMK AO2 SLP212 T10391067 53006 FZRANO $EQDD01      0ADE726
0231725165947372021010721247+43533-072950FM-15+0240KRUT V0202905N00365007015MN0160935N5-00405-00705999999ADDGA1075+007015999GA2075+008535999GD13991+0070159GD23991+0085359GE19MSL   +99999+99999GF199999999999007011999999MA1102105099235REMMET09401/07/21 16:24:02 METAR KRUT 072124Z 29007KT 10SM BKN023 BKN028 M04/M07 A3015 RMK AO2 FZRANO $
0210725165947372021010721567+43533-072950FM-15+0240KRUT V0203205N00265006405MN0160935N5-00335-00615102175ADDGA1085+006405999GD14991+0064059GE19MSL   +99999+99999GF199999999999006401999999MA1102105099235REMMET10401/07/21 16:56:02 METAR KRUT 072156Z 32005KT 10SM OVC021 M03/M06 A3015 RMK AO2 SLP217 T10331061 FZRANO $
