0182725165947372024010100564+43529-072950FM-15+024099999V0202801N001510088419N016093199-00281-00561101501ADDGD14991+0088419GE19AGL   +99999+99999GF199999999999008841999999MA1101461999999REMMET092METAR KRUT 010056Z AUTO 28003KT 10SM OVC029 M03/M06 A2996 RMK AO2 SLP150 T10281056 FZRANO $=
0182725165947372024010101564+43529-072950FM-15+024099999V0203401N001510076219N016093199-00281-00561101491ADDGD14991+0076219GE19AGL   +99999+99999GF199999999999007621999999MA1101461999999REMMET092METAR KRUT 010156Z AUTO 34003KT 10SM OVC025 M03/M06 A2996 RMK AO2 SLP149 T10281056 FZRANO $=
0221725165947372024010102564+43529-072950FM-15+024099999V0203401N002610076219N016093199-00281-00501101491ADDGD14991+0076219GE19AGL   +99999+99999GF199999999999007621999999MA1101461999999MD1490001+9999REMMET098METAR KRUT 010256Z AUTO 34005KT 10SM OVC025 M03/M05 A2996 RMK AO2 SLP149 T10281050 58000 FZRANO $=EQDQ018     3APCTEN
0182725165947372024010103564+43529-072950FM-15+024099999V0203501N001510076219N016093199-00281-00561101511ADDGD14991+0076219GE19AGL   +99999+99999GF199999999999007621999999MA1101461999999REMMET092METAR KRUT 010356Z AUTO 35003KT 10SM OVC025 M03/M06 A2996 RMK AO2 SLP151 T10281056 FZRANO $=
0223725165947372024010104504+43529-072950FM-16+024099999V0203201N002110094519N016093199-00301-00601999999ADDGD12991+0076219GD24991+0094519GE19AGL   +99999+99999GF199999999999007621999999KA1240M-00221KA2240N-00331MA1101461999999REMMET092SPECI KRUT 010450Z AUTO 32004KT 10SM SCT025 OVC031 M03/M06 A2996 RMK AO2 410221033 FZRANO $=
0284725165947372024010104567+43533-072950FM-15+0240KRUT V0203005N00155007625MN0160935N5-00335-00565101495ADDGA1075+007625999GA2085+009455999GD13991+0076259GD24991+0094559GE19AGL   +99999+99999GF199999999999007621999999KA1240M-00221KA2240N-00331MA1101465098605REMMET12112/31/23 23:56:02 METAR KRUT 010456Z 30003KT 10SM BKN025 OVC031 M03/M06 A2996 RMK AO2 SLP149 T10331056 410221033 FZRANO $
0454725165947372024010104596+43533-072950SOD  +0240KRUT V020999999999999999999999999999+99999+99999999999ADDAA124000025AT1AU18SN  5KA1240M-00215KA2240N-00325MG1098409999994OE11249999999999997OE22240031329099995OE33240022899999995REMSOD32124 HR PRECIPITATION (IN):    T 24 HR MAX TEMP (F): 2824 HR MIN TEMP (F): 26AVERAGE STATION PRESSURE(D):29.058  FASTEST 2MIN SPEED (MPH):  7FASTEST 2MIN DIR (DEG):290 FASTEST 2MIN TIME (LST):     AVERAGE WIND SPEED (MPH): 5.1 24 HR AVG TEMP (F): 27SKY COVER SR-SS (TENTHS): 1HEATING DEGREE DAYS: 38 COOLING DEGREE DAYS:  0
0268725165947372024010105567+43533-072950FM-15+0240KRUT V0203305N00215007015MN0160935N5-00335-00565101505ADDGA1085+007015999GD14991+0070159GE19AGL   +99999+99999GF199999999999007011999999KA1060M-00281KA2060N-00331MA1101465098605MD1590019+9999REMMET12201/01/24 00:56:02 METAR KRUT 010556Z 33004KT 10SM OVC023 M03/M06 A2996 RMK AO2 SLP150 T10331056 11028 21033 55001 FZRANO $
0248725165947372024010106567+43533-072950FM-15+0240KRUT V0203305N00315006405MN0160935N5-00335-00565101535ADDGA1045+005185999GA2085+006405999GD12991+0051859GD24991+0064059GE19AGL   +99999+99999GF199999999999005181999999MA1101495098635REMMET11101/01/24 01:56:02 METAR KRUT 010656Z 33006KT 10SM SCT017 OVC021 M03/M06 A2997 RMK AO2 SLP153 T10331056 FZRANO $
0210725165947372024010107567+43533-072950FM-15+0240KRUT V0203405N00215004885MN0160935N5-00335-00615101545ADDGA1085+004885999GD14991+0048859GE19AGL   +99999+99999GF199999999999004881999999MA1101495098635REMMET10401/01/24 02:56:02 METAR KRUT 010756Z 34004KT 10SM OVC016 M03/M06 A2997 RMK AO2 SLP154 T10331061 FZRANO $
0230725165947372024010108567+43533-072950FM-15+0240KRUT V0203305N00365004885MN0160935N5-00395-00615101575ADDGA1085+004885999GD14991+0048859GE19AGL   +99999+99999GF199999999999004881999999MA1101525098675MD1390079+9999REMMET11001/01/24 03:56:02 METAR KRUT 010856Z 33007KT 10SM OVC016 M04/M06 A2998 RMK AO2 SLP157 T10391061 53007 FZRANO $
0193725165947372024010109097+43533-072950FM-15+0240KRUT V0203205N00315004275MN0160935N5-00405-00605999999ADDGA1085+004275999GD14991+0042759GE19AGL   +99999+99999GF199999999999004271999999MA1101525098675REMMET08701/01/24 04:09:02 METAR KRUT 010909Z 32006KT 10SM OVC014 M04/M06 A2998 RMK AO2 FZRANO $
0210725165947372024010109567+43533-072950FM-15+0240KRUT V0203405N00415004275MN0160935N5-00445-00615101575ADDGA1085+004275999GD14991+0042759GE19AGL   +99999+99999GF199999999999004271999999MA1101525098675REMMET10401/01/24 04:56:02 METAR KRUT 010956Z 34008KT 10SM OVC014 M04/M06 A2998 RMK AO2 SLP157 T10441061 FZRANO $
0231725165947372024010110167+43533-072950FM-15+0240KRUT V0203205N00315005495MN0160935N5-00405-00605999999ADDGA1025+003355999GA2085+005495999GD11991+0033559GD24991+0054959GE19AGL   +99999+99999GF199999999999003351999999MA1101565098705REMMET09401/01/24 05:16:02 METAR KRUT 011016Z 32006KT 10SM FEW011 OVC018 M04/M06 A2999 RMK AO2 FZRANO $
0210725165947372024010110567+43533-072950FM-15+0240KRUT V0203205N00265005495MN0160935N5-00445-00615101635ADDGA1085+005495999GD14991+0054959GE19AGL   +99999+99999GF199999999999005491999999MA1101595098735REMMET10401/01/24 05:56:02 METAR KRUT 011056Z 32005KT 10SM OVC018 M04/M06 A3000 RMK AO2 SLP163 T10441061 FZRANO $
0306725165947372024010111567+43533-072950FM-15+0240KRUT V0203305N00315003665MN0160935N5-00505-00675101685ADDGA1075+003665999GA2085+005795999GD13991+0036659GD24991+0057959GE19AGL   +99999+99999GF199999999999003661999999KA1060M-00331KA2060N-00501MA1101635098775MD1390109+9999REMMET12901/01/24 06:56:02 METAR KRUT 011156Z 33006KT 10SM BKN012 OVC019 M05/M07 A3001 RMK AO2 SLP168 T10501067 11033 21050 53010 FZRANO $
0193725165947372024010112427+43533-072950FM-15+0240KRUT V0203105N00315004885MN0160935N5-00505-00705999999ADDGA1085+004885999GD14991+0048859GE19AGL   +99999+99999GF199999999999004881999999MA1101665098805REMMET08701/01/24 07:42:02 METAR KRUT 011242Z 31006KT 10SM OVC016 M05/M07 A3002 RMK AO2 FZRANO $
0210725165947372024010112567+43533-072950FM-15+0240KRUT V0203505N00465005495MN0160935N5-00505-00675101725ADDGA1085+005495999GD14991+0054959GE19AGL   +99999+99999GF199999999999005491999999MA1101665098805REMMET10401/01/24 07:56:02 METAR KRUT 011256Z 35009KT 10SM OVC018 M05/M07 A3002 RMK AO2 SLP172 T10501067 FZRANO $
0236725165947372024010113567+43533-072950FM-15+0240KRUT V0203505N00415005495MN0160935N5-00505-00785101815ADDAA101000021GA1085+005495999GD14991+0054959GE19AGL   +99999+99999GF199999999999005491999999MA1101765098905REMMET11901/01/24 08:56:02 METAR KRUT 011356Z 35008KT 10SM OVC018 M05/M08 A3005 RMK AO2 SNB24E44 SLP181 P0000 T10501078 FZRANO $
0282725165947372024010114567+43533-072950FM-15+0240KRUT V0203505N00365006105MN0160935N5-00505-00835101865ADDAA103000021GA1085+006105999GD14991+0061059GE19AGL   +99999+99999GF199999999999006101999999MA1101795098935MD1390189+9999REMMET11601/01/24 09:56:02 METAR KRUT 011456Z 35007KT 10SM OVC020 M05/M08 A3006 RMK AO2 SLP186 60000 T10501083 53018 FZRANO $EQDQ01  00002PRCP03Q02  00008PRCP03
0210725165947372024010115567+43533-072950FM-15+0240KRUT V0203205N00365006715MN0160935N5-00445-00835101865ADDGA1085+006715999GD14991+0067159GE19AGL   +99999+99999GF199999999999006711999999MA1101795098935REMMET10401/01/24 10:56:02 METAR KRUT 011556Z 32007KT 10SM OVC022 M04/M08 A3006 RMK AO2 SLP186 T10441083 FZRANO $
0210725165947372024010116567+43533-072950FM-15+0240KRUT V0203105N00365006715MN0160935N5-00445-00895101835ADDGA1085+006715999GD14991+0067159GE19AGL   +99999+99999GF199999999999006711999999MA1101765098905REMMET10401/01/24 11:56:02 METAR KRUT 011656Z 31007KT 10SM OVC022 M04/M09 A3005 RMK AO2 SLP183 T10441089 FZRANO $
0320725165947372024010117567+43533-072950FM-15+0240KRUT V0202905N00265007325MN0160935N5-00445-00895101795ADDAA106000021GA1085+007325999GD14991+0073259GE19AGL   +99999+99999GF199999999999007321999999KA1060M-00391KA2060N-00501MA1101735098875MD1890079+9999REMMET12801/01/24 12:56:02 METAR KRUT 011756Z 29005KT 10SM OVC024 M04/M09 A3004 RMK AO2 SLP179 60000 T10441089 11039 21050 58007 FZRANO $EQDQ01  00002PRCP06Q02  00008PRCP06
0210725165947372024010118567+43533-072950FM-15+0240KRUT V0203305N00315006715MN0160935N5-00445-00895101785ADDGA1085+006715999GD14991+0067159GE19AGL   +99999+99999GF199999999999006711999999MA1101735098875REMMET10401/01/24 13:56:02 METAR KRUT 011856Z 33006KT 10SM OVC022 M04/M09 A3004 RMK AO2 SLP178 T10441089 FZRANO $
0210725165947372024010119567+43533-072950FM-15+0240KRUT V0203605N00365006715MN0160935N5-00445-00835101805ADDGA1085+006715999GD14991+0067159GE19AGL   +99999+99999GF199999999999006711999999MA1101735098875REMMET10401/01/24 14:56:02 METAR KRUT 011956Z 36007KT 10SM OVC022 M04/M08 A3004 RMK AO2 SLP180 T10441083 FZRANO $
0230725165947372024010120567+43533-072950FM-15+0240KRUT V0200105N00365006715MN0160935N5-00505-00835101865ADDGA1085+006715999GD14991+0067159GE19AGL   +99999+99999GF199999999999006711999999MA1101795098935MD1390079+9999REMMET11001/01/24 15:56:02 METAR KRUT 012056Z 01007KT 10SM OVC022 M05/M08 A3006 RMK AO2 SLP186 T10501083 53007 FZRANO $
0210725165947372024010121567+43533-072950FM-15+0240KRUT V0200205N00215007325MN0160935N5-00505-00895101875ADDGA1085+007325999GD14991+0073259GE19AGL   +99999+99999GF199999999999007321999999MA1101795098935REMMET10401/01/24 16:56:02 METAR KRUT 012156Z 02004KT 10SM OVC024 M05/M09 A3006 RMK AO2 SLP187 T10501089 FZRANO $
0210725165947372024010122567+43533-072950FM-15+0240KRUT V0209999C00005007325MN0160935N5-00505-00895101885ADDGA1085+007325999GD14991+0073259GE19AGL   +99999+99999GF199999999999007321999999MA1101835098975REMMET10401/01/24 17:56:02 METAR KRUT 012256Z 00000KT 10SM OVC024 M05/M09 A3007 RMK AO2 SLP188 T10501089 FZRANO $
0268725165947372024010123567+43533-072950FM-15+0240KRUT V0209999C00005006715MN0160935N5-00505-00835101935ADDGA1085+006715999GD14991+0067159GE19AGL   +99999+99999GF199999999999006711999999KA1060M-00391KA2060N-00561MA1101865099005MD1390069+9999REMMET12201/01/24 18:56:02 METAR KRUT 012356Z 00000KT 10SM OVC022 M05/M08 A3008 RMK AO2 SLP193 T10501083 11039 21056 53006 FZRANO $
0210725165947372024010200567+43533-072950FM-15+0240KRUT V0203305N00155006715MN0160935N5-00565-00835101945ADDGA1085+006715999GD14991+0067159GE19AGL   +99999+99999GF199999999999006711999999MA1101865099005REMMET10401/01/24 19:56:01 METAR KRUT 020056Z 33003KT 10SM OVC022 M06/M08 A3008 RMK AO2 SLP194 T10561083 FZRANO $
0210725165947372024010201567+43533-072950FM-15+0240KRUT V0209999C00005006715MN0160935N5-00505-00785101935ADDGA1085+006715999GD14991+0067159GE19AGL   +99999+99999GF199999999999006711999999MA1101865099005REMMET10401/01/24 20:56:01 METAR KRUT 020156Z 00000KT 10SM OVC022 M05/M08 A3008 RMK AO2 SLP193 T10501078 FZRANO $
0249725165947372024010202567+43533-072950FM-15+0240KRUT V0209999C00005006105MN0160935N5-00505-00785101935ADDGA1085+006105999GD14991+0061059GE19AGL   +99999+99999GF199999999999006101999999MA1101865099005MD1890009+9999REMMET11001/01/24 21:56:01 METAR KRUT 020256Z 00000KT 10SM OVC020 M05/M08 A3008 RMK AO2 SLP193 T10501078 58000 FZRANO $EQDQ018     3APCTEN
0210725165947372024010203567+43533-072950FM-15+0240KRUT V0203405N00215006105MN0160935N5-00505-00785101935ADDGA1085+006105999GD14991+0061059GE19AGL   +99999+99999GF199999999999006101999999MA1101865099005REMMET10401/01/24 22:56:01 METAR KRUT 020356Z 34004KT 10SM OVC020 M05/M08 A3008 RMK AO2 SLP193 T10501078 FZRANO $
0246725165947372024010204567+43533-072950FM-15+0240KRUT V0203205N00365006105MN0160935N5-00505-00785101895ADDGA1085+006105999GD14991+0061059GE19AGL   +99999+99999GF199999999999006101999999KA1240M-00331KA2240N-00561MA1101835098975REMMET11401/01/24 23:56:02 METAR KRUT 020456Z 32007KT 10SM OVC020 M05/M08 A3007 RMK AO2 SLP189 T10501078 410331056 FZRANO $
0442725165947372024010204596+43533-072950SOD  +0240KRUT V020999999999999999999999999999+99999+99999999999ADDAA124000025KA1240M-00325KA2240N-00555MG1098849999994OE11249999999999997OE22240044735099995OE33240025099999995REMSOD32124 HR PRECIPITATION (IN):    T 24 HR MAX TEMP (F): 2624 HR MIN TEMP (F): 22AVERAGE STATION PRESSURE(D):29.188  FASTEST 2MIN SPEED (MPH): 10FASTEST 2MIN DIR (DEG):350 FASTEST 2MIN TIME (LST):     AVERAGE WIND SPEED (MPH): 5.6 24 HR AVG TEMP (F): 24SKY COVER SR-SS (TENTHS): 1HEATING DEGREE DAYS: 41 COOLING DEGREE DAYS:  0
0268725165947372024010205567+43533-072950FM-15+0240KRUT V0203205N00155006105MN0160935N5-00505-00785101885ADDGA1085+006105999GD14991+0061059GE19AGL   +99999+99999GF199999999999006101999999KA1060M-00501KA2060N-00561MA1101835098975MD1890039+9999REMMET12201/02/24 00:56:02 METAR KRUT 020556Z 32003KT 10SM OVC020 M05/M08 A3007 RMK AO2 SLP188 T10501078 11050 21056 58003 FZRANO $
0210725165947372024010206567+43533-072950FM-15+0240KRUT V0203505N00265006105MN0160935N5-00565-00835101895ADDGA1085+006105999GD14991+0061059GE19AGL   +99999+99999GF199999999999006101999999MA1101835098975REMMET10401/02/24 01:56:02 METAR KRUT 020656Z 35005KT 10SM OVC020 M06/M08 A3007 RMK AO2 SLP189 T10561083 FZRANO $
0210725165947372024010207567+43533-072950FM-15+0240KRUT V0203605N00315006715MN0160935N5-00615-00895101895ADDGA1085+006715999GD14991+0067159GE19AGL   +99999+99999GF199999999999006711999999MA1101835098975REMMET10401/02/24 02:56:02 METAR KRUT 020756Z 36006KT 10SM OVC022 M06/M09 A3007 RMK AO2 SLP189 T10611089 FZRANO $
0230725165947372024010208567+43533-072950FM-15+0240KRUT V0203305N00155006715MN0160935N5-00675-01005101895ADDGA1075+006715999GD13991+0067159GE19AGL   +99999+99999GF199999999999006711999999MA1101835098975MD1890019+9999REMMET11001/02/24 03:56:02 METAR KRUT 020856Z 33003KT 10SM BKN022 M07/M10 A3007 RMK AO2 SLP189 T10671100 58001 FZRANO $
0212725165947372024010209137+43533-072950FM-15+0240KRUT V0200105N002652200059N0160935N5-00705-00905999999ADDGA1025+007325999GD11991+0073259GE19AGL   +99999+99999GF102995999999007321999999MA1101795098935REMMET08701/02/24 04:13:02 METAR KRUT 020913Z 01005KT 10SM FEW024 M07/M09 A3006 RMK AO2 FZRANO $EQDD01      0ADE726
0229725165947372024010209567+43533-072950FM-15+0240KRUT V0209999C000052200059N0160935N5-00835-01115101875ADDGA1025+007625999GD11991+0076259GE19AGL   +99999+99999GF102995999999007621999999MA1101795098935REMMET10401/02/24 04:56:02 METAR KRUT 020956Z 00000KT 10SM FEW025 M08/M11 A3006 RMK AO2 SLP187 T10831111 FZRANO $EQDD01      0ADE726
0210725165947372024010210567+43533-072950FM-15+0240KRUT V0209999C00005007325MN0160935N5-00835-01065101915ADDGA1075+007325999GD13991+0073259GE19AGL   +99999+99999GF199999999999007321999999MA1101835098975REMMET10401/02/24 05:56:02 METAR KRUT 021056Z 00000KT 10SM BKN024 M08/M11 A3007 RMK AO2 SLP191 T10831106 FZRANO $
0211725165947372024010211237+43533-072950FM-15+0240KRUT V0209999C000052200059N0128755N5-00805-00905999999ADDGA1045+007325999GD12991+0073259GE19AGL   +99999+99999GF104995999999007321999999MA1101835098975REMMET08601/02/24 06:23:02 METAR KRUT 021123Z 00000KT 8SM SCT024 M08/M09 A3007 RMK AO2 FZRANO $EQDD01      0ADE726
0192725165947372024010211427+43533-072950FM-15+0240KRUT V0209999C00005007325MN0144845N5-00805-00905999999ADDGA1075+007325999GD13991+0073259GE19AGL   +99999+99999GF199999999999007321999999MA1101835098975REMMET08601/02/24 06:42:02 METAR KRUT 021142Z 00000KT 9SM BKN024 M08/M09 A3007 RMK AO2 FZRANO $
0268725165947372024010211567+43533-072950FM-15+0240KRUT V0209999C00005007325MN0160935N5-00785-00945101925ADDGA1085+007325999GD14991+0073259GE19AGL   +99999+99999GF199999999999007321999999KA1060M-00501KA2060N-00831MA1101835098975MD1390039+9999REMMET12201/02/24 06:56:02 METAR KRUT 021156Z 00000KT 10SM OVC024 M08/M09 A3007 RMK AO2 SLP192 T10781094 11050 21083 53003 FZRANO $
0210725165947372024010212567+43533-072950FM-15+0240KRUT V0201205N00215007325MN0160935N5-00785-00945101925ADDGA1075+007325999GD13991+0073259GE19AGL   +99999+99999GF199999999999007321999999MA1101835098975REMMET10401/02/24 07:56:02 METAR KRUT 021256Z 12004KT 10SM BKN024 M08/M09 A3007 RMK AO2 SLP192 T10781094 FZRANO $
0212725165947372024010213127+43533-072950FM-15+0240KRUT V0201105N001552200059N0160935N5-00805-00905999999ADDGA1045+006715999GD12991+0067159GE19AGL   +99999+99999GF104995999999006711999999MA1101835098975REMMET08701/02/24 08:12:02 METAR KRUT 021312Z 11003KT 10SM SCT022 M08/M09 A3007 RMK AO2 FZRANO $EQDD01      0ADE726
0193725165947372024010213517+43533-072950FM-15+0240KRUT V0201405N00155007325MN0160935N5-00605-00705999999ADDGA1075+007325999GD13991+0073259GE19AGL   +99999+99999GF199999999999007321999999MA1101835098975REMMET08701/02/24 08:51:02 METAR KRUT 021351Z 14003KT 10SM BKN024 M06/M07 A3007 RMK AO2 FZRANO $
0210725165947372024010213567+43533-072950FM-15+0240KRUT V0201505N00155007325MN0160935N5-00565-00675101905ADDGA1085+007325999GD14991+0073259GE19AGL   +99999+99999GF199999999999007321999999MA1101835098975REMMET10401/02/24 08:56:02 METAR KRUT 021356Z 15003KT 10SM OVC024 M06/M07 A3007 RMK AO2 SLP190 T10561067 FZRANO $
0249725165947372024010214567+43533-072950FM-15+0240KRUT V0209999C00005007325MN0160935N5-00175-00285101885ADDGA1085+007325999GD14991+0073259GE19AGL   +99999+99999GF199999999999007321999999MA1101835098975MD1290009+9999REMMET11001/02/24 09:56:02 METAR KRUT 021456Z 00000KT 10SM OVC024 M02/M03 A3007 RMK AO2 SLP188 T10171028 52000 FZRANO $EQDQ010     3APC3  
0228725165947372024010215567+43533-072950FM-15+0240KRUT V0209999C000052200059N0160935N5+00115-00565101775ADDGA1025+007325999GD11991+0073259GE19AGL   +99999+99999GF102995999999007321999999MA1101735098875REMMET10301/02/24 10:56:02 METAR KRUT 021556Z 00000KT 10SM FEW024 01/M06 A3004 RMK AO2 SLP177 T00111056 FZRANO $EQDD01      0ADE726
0184725165947372024010216567+43533-072950FM-15+0240KRUT V0201905N002152200059N0160935N5+00005-00615101665ADDGA1005+999999999GD10991+9999999GF100991999999999999999999MA1101635098775REMMET10001/02/24 11:56:02 METAR KRUT 021656Z 19004KT 10SM CLR 00/M06 A3001 RMK AO2 SLP166 T00001061 FZRANO $
0242725165947372024010217567+43533-072950FM-15+0240KRUT V0202405N004152200059N0160935N5+00065-00565101585ADDGA1005+999999999GD10991+9999999GF100991999999999999999999KA1060M+00111KA2060N-00831MA1101565098705MD1690299+9999REMMET11801/02/24 12:56:02 METAR KRUT 021756Z 24008KT 10SM CLR 01/M06 A2999 RMK AO2 SLP158 T00061056 10011 21083 56029 FZRANO $
0228725165947372024010218567+43533-072950FM-15+0240KRUT V0202305N003652200059N0160935N5+00065-00565101535ADDGA1025+007625999GD11991+0076259GE19AGL   +99999+99999GF102995999999007621999999MA1101495098635REMMET10301/02/24 13:56:02 METAR KRUT 021856Z 23007KT 10SM FEW025 01/M06 A2997 RMK AO2 SLP153 T00061056 FZRANO $EQDD01      0ADE726
0184725165947372024010219567+43533-072950FM-15+0240KRUT V0202205N003152200059N0160935N5+00065-00505101525ADDGA1005+999999999GD10991+9999999GF100991999999999999999999MA1101495098635REMMET10001/02/24 14:56:02 METAR KRUT 021956Z 22006KT 10SM CLR 01/M05 A2997 RMK AO2 SLP152 T00061050 FZRANO $
0204725165947372024010220567+43533-072950FM-15+0240KRUT V0201905N002652200059N0160935N5+00005-00445101515ADDGA1005+999999999GD10991+9999999GF100991999999999999999999MA1101465098605MD1690079+9999REMMET10601/02/24 15:56:02 METAR KRUT 022056Z 19005KT 10SM CLR 00/M04 A2996 RMK AO2 SLP151 T00001044 56007 FZRANO $
0185725165947372024010221567+43533-072950FM-15+0240KRUT V0209999C000052200059N0160935N5-00175-00505101545ADDGA1005+999999999GD10991+9999999GF100991999999999999999999MA1101465098605REMMET10101/02/24 16:56:02 METAR KRUT 022156Z 00000KT 10SM CLR M02/M05 A2996 RMK AO2 SLP154 T10171050 FZRANO $
0185725165947372024010222567+43533-072950FM-15+0240KRUT V0202405N003652200059N0160935N5-00065-00505101545ADDGA1005+999999999GD10991+9999999GF100991999999999999999999MA1101495098635REMMET10101/02/24 17:56:02 METAR KRUT 022256Z 24007KT 10SM CLR M01/M05 A2997 RMK AO2 SLP154 T10061050 FZRANO $
0243725165947372024010223567+43533-072950FM-15+0240KRUT V0202405N002652200059N0160935N5-00115-00505101545ADDGA1005+999999999GD10991+9999999GF100991999999999999999999KA1060M+00061KA2060N-00221MA1101495098635MD1190029+9999REMMET11901/02/24 18:56:02 METAR KRUT 022356Z 24005KT 10SM CLR M01/M05 A2997 RMK AO2 SLP154 T10111050 10006 21022 51002 FZRANO $
0185725165947372024010300567+43533-072950FM-15+0240KRUT V0209999C000052200059N0160935N5-00225-00505101555ADDGA1005+999999999GD10991+9999999GF100991999999999999999999MA1101495098635REMMET10101/02/24 19:56:01 METAR KRUT 030056Z 00000KT 10SM CLR M02/M05 A2997 RMK AO2 SLP155 T10221050 FZRANO $
0229725165947372024010301567+43533-072950FM-15+0240KRUT V0202605N001552200059N0160935N5-00175-00505101515ADDGA1025+007015999GD11991+0070159GE19AGL   +99999+99999GF102995999999007011999999MA1101465098605REMMET10401/02/24 20:56:01 METAR KRUT 030156Z 26003KT 10SM FEW023 M02/M05 A2996 RMK AO2 SLP151 T10171050 FZRANO $EQDD01      0ADE726
0249725165947372024010302567+43533-072950FM-15+0240KRUT V0203505N001552200059N0160935N5-00225-00505101455ADDGA1045+008535999GD12991+0085359GE19AGL   +99999+99999GF104995999999008531999999MA1101425098575MD1890059+9999REMMET11001/02/24 21:56:01 METAR KRUT 030256Z 35003KT 10SM SCT028 M02/M05 A2995 RMK AO2 SLP145 T10221050 58005 FZRANO $EQDD01      0ADE726
0193725165947372024010303137+43533-072950FM-15+0240KRUT V0200105N00155008535MN0160935N5-00305-00505999999ADDGA1075+008535999GD13991+0085359GE19AGL   +99999+99999GF199999999999008531999999MA1101425098575REMMET08701/02/24 22:13:01 METAR KRUT 030313Z 01003KT 10SM BKN028 M03/M05 A2995 RMK AO2 FZRANO $
0210725165947372024010303567+43533-072950FM-15+0240KRUT V0209999C00005008535MN0160935N5-00285-00505101475ADDGA1085+008535999GD14991+0085359GE19AGL   +99999+99999GF199999999999008531999999MA1101425098575REMMET10401/02/24 22:56:02 METAR KRUT 030356Z 00000KT 10SM OVC028 M03/M05 A2995 RMK AO2 SLP147 T10281050 FZRANO $
0246725165947372024010304567+43533-072950FM-15+0240KRUT V0209999C00005008535MN0160935N5-00175-00395101435ADDGA1085+008535999GD14991+0085359GE19AGL   +99999+99999GF199999999999008531999999KA1240M+00111KA2240N-00831MA1101395098545REMMET11401/02/24 23:56:02 METAR KRUT 030456Z 00000KT 10SM OVC028 M02/M04 A2994 RMK AO2 SLP143 T10171039 400111083 FZRANO $
0415725165947372024010304596+43533-072950SOD  +0240KRUT V020999999999999999999999999999+99999+99999999999ADDAA124000095KA1240M+00115KA2240N-00825MG1098809999994OE11249999999999997OE22240040224099995OE33240017099999995REMSOD29424 HR PRECIPITATION (IN): 0.00 24 HR MAX TEMP (F): 3424 HR MIN TEMP (F): 17AVERAGE STATION PRESSURE(D):29.176  FASTEST 2MIN SPEED (MPH):  9FASTEST 2MIN DIR (DEG):240 FASTEST 2MIN TIME (LST):     AVERAGE WIND SPEED (MPH): 3.8 24 HR AVG TEMP (F): 26HEATING DEGREE DAYS: 39 COOLING DEGREE DAYS:  0
0268725165947372024010305567+43533-072950FM-15+0240KRUT V0209999C00005008535MN0160935N5-00225-00395101425ADDGA1085+008535999GD14991+0085359GE19AGL   +99999+99999GF199999999999008531999999KA1060M-00111KA2060N-00331MA1101395098545MD1890059+9999REMMET12201/03/24 00:56:02 METAR KRUT 030556Z 00000KT 10SM OVC028 M02/M04 A2994 RMK AO2 SLP142 T10221039 11011 21033 58005 FZRANO $
0210725165947372024010306567+43533-072950FM-15+0240KRUT V0209999C00005008535MN0160935N5-00115-00395101415ADDGA1085+008535999GD14991+0085359GE19AGL   +99999+99999GF199999999999008531999999MA1101395098545REMMET10401/03/24 01:56:02 METAR KRUT 030656Z 00000KT 10SM OVC028 M01/M04 A2994 RMK AO2 SLP141 T10111039 FZRANO $
0209725165947372024010307567+43533-072950FM-15+0240KRUT V0202105N00155008535MN0160935N5+00005-00395101405ADDGA1085+008535999GD14991+0085359GE19AGL   +99999+99999GF199999999999008531999999MA1101395098545REMMET10301/03/24 02:56:02 METAR KRUT 030756Z 21003KT 10SM OVC028 00/M04 A2994 RMK AO2 SLP140 T00001039 FZRANO $
0229725165947372024010308567+43533-072950FM-15+0240KRUT V0209999C00005007925MN0160935N5+00005-00395101365ADDGA1085+007925999GD14991+0079259GE19AGL   +99999+99999GF199999999999007921999999MA1101325098475MD1890059+9999REMMET10901/03/24 03:56:02 METAR KRUT 030856Z 00000KT 10SM OVC026 00/M04 A2992 RMK AO2 SLP136 T00001039 58005 FZRANO $
0209725165947372024010309567+43533-072950FM-15+0240KRUT V0202305N00215007925MN0160935N5+00005-00395101395ADDGA1085+007925999GD14991+0079259GE19AGL   +99999+99999GF199999999999007921999999MA1101355098505REMMET10301/03/24 04:56:01 METAR KRUT 030956Z 23004KT 10SM OVC026 00/M04 A2993 RMK AO2 SLP139 T00001039 FZRANO $
0209725165947372024010310567+43533-072950FM-15+0240KRUT V0202505N00265007325MN0160935N5+00065-00395101405ADDGA1085+007325999GD14991+0073259GE19AGL   +99999+99999GF199999999999007321999999MA1101355098505REMMET10301/03/24 05:56:01 METAR KRUT 031056Z 25005KT 10SM OVC024 01/M04 A2993 RMK AO2 SLP140 T00061039 FZRANO $
0267725165947372024010311567+43533-072950FM-15+0240KRUT V0202405N00315008535MN0160935N5+00065-00395101395ADDGA1085+008535999GD14991+0085359GE19AGL   +99999+99999GF199999999999008531999999KA1060M+00061KA2060N-00221MA1101355098505MD1090039+9999REMMET12101/03/24 06:56:02 METAR KRUT 031156Z 24006KT 10SM OVC028 01/M04 A2993 RMK AO2 SLP139 T00061039 10006 21022 50003 FZRANO $
0209725165947372024010312567+43533-072950FM-15+0240KRUT V0202305N00265007925MN0160935N5+00065-00395101425ADDGA1085+007925999GD14991+0079259GE19AGL   +99999+99999GF199999999999007921999999MA1101395098545REMMET10301/03/24 07:56:02 METAR KRUT 031256Z 23005KT 10SM OVC026 01/M04 A2994 RMK AO2 SLP142 T00061039 FZRANO $
0209725165947372024010313567+43533-072950FM-15+0240KRUT V0209999C00005006715MN0160935N5+00065-00335101465ADDGA1085+006715999GD14991+0067159GE19AGL   +99999+99999GF199999999999006711999999MA1101425098575REMMET10301/03/24 08:56:02 METAR KRUT 031356Z 00000KT 10SM OVC022 01/M03 A2995 RMK AO2 SLP146 T00061033 FZRANO $
0229725165947372024010314567+43533-072950FM-15+0240KRUT V0209999C00005007925MN0160935N5+00065-00335101495ADDGA1085+007925999GD14991+0079259GE19AGL   +99999+99999GF199999999999007921999999MA1101465098605MD1390089+9999REMMET10901/03/24 09:56:02 METAR KRUT 031456Z 00000KT 10SM OVC026 01/M03 A2996 RMK AO2 SLP149 T00061033 53008 FZRANO $
0209725165947372024010315567+43533-072950FM-15+0240KRUT V0209999C00005005795MN0160935N5+00115-00285101455ADDGA1085+005795999GD14991+0057959GE19AGL   +99999+99999GF199999999999005791999999MA1101395098545REMMET10301/03/24 10:56:02 METAR KRUT 031556Z 00000KT 10SM OVC019 01/M03 A2994 RMK AO2 SLP145 T00111028 FZRANO $
0285725165947372024010316567+43533-072950FM-15+0240KRUT V0202205N00265007015MN0160935N5+00175-00285101375ADDGA1075+007015999GA2075+008845999GA3085+012505999GD13991+0070159GD23991+0088459GD34991+0125059GE19AGL   +99999+99999GF199999999999007011999999MA1101325098475REMMET11701/03/24 11:56:02 METAR KRUT 031656Z 22005KT 10SM BKN023 BKN029 OVC041 02/M03 A2992 RMK AO2 SLP137 T00171028 FZRANO $
0230725165947372024010317317+43533-072950FM-15+0240KRUT V0202305N00215011585MN0160935N5+00205-00205999999ADDGA1025+006405999GA2085+011585999GD11991+0064059GD24991+0115859GE19AGL   +99999+99999GF199999999999006401999999MA1101325098475REMMET09301/03/24 12:31:02 METAR KRUT 031731Z 23004KT 10SM FEW021 OVC038 02/M02 A2992 RMK AO2 FZRANO $
0267725165947372024010317567+43533-072950FM-15+0240KRUT V0202405N00365011585MN0160935N5+00175-00225101335ADDGA1085+011585999GD14991+0115859GE19AGL   +99999+99999GF199999999999011581999999KA1060M+00171KA2060N+00061MA1101295098445MD1890159+9999REMMET12101/03/24 12:56:02 METAR KRUT 031756Z 24007KT 10SM OVC038 02/M02 A2991 RMK AO2 SLP133 T00171022 10017 20006 58015 FZRANO $
0209725165947372024010318567+43533-072950FM-15+0240KRUT V0202205N00265012195MN0160935N5+00175-00225101265ADDGA1085+012195999GD14991+0121959GE19AGL   +99999+99999GF199999999999012191999999MA1101255098405REMMET10301/03/24 13:56:02 METAR KRUT 031856Z 22005KT 10SM OVC040 02/M02 A2990 RMK AO2 SLP126 T00171022 FZRANO $
0209725165947372024010319567+43533-072950FM-15+0240KRUT V0202205N00265013415MN0160935N5+00175-00225101315ADDGA1085+013415999GD14991+0134159GE19AGL   +99999+99999GF199999999999013411999999MA1101295098445REMMET10301/03/24 14:56:02 METAR KRUT 031956Z 22005KT 10SM OVC044 02/M02 A2991 RMK AO2 SLP131 T00171022 FZRANO $
0307725165947372024010320567+43533-072950FM-15+0240KRUT V0202205N00155011585MN0160935N5+00175-00225101335ADDAA101000021AA203000021GA1085+011585999GD14991+0115859GE19AGL   +99999+99999GF199999999999011581999999MA1101325098475MD1390029+9999REMMET13001/03/24 15:56:02 METAR KRUT 032056Z 22003KT 10SM OVC038 02/M02 A2992 RMK AO2 RAB44E55 SLP133 P0000 60000 T00171022 53002 FZRANO $EQDQ01  00002PRCP03Q02  00008PRCP03
0281725165947372024010321567+43533-072950FM-15+0240KRUT V0209999C00005012195MN0160935N5+00115-00225101345ADDAA101000021GA1025+005495999GA2085+012195999GD11991+0054959GD24991+0121959GE19AGL   +99999+99999GF199999999999005491999999MA1101325098475REMMET13301/03/24 16:56:02 METAR KRUT 032156Z 00000KT 10SM FEW018 OVC040 01/M02 A2992 RMK AO2 RAB05E14UPB14E16 SLP134 P0000 T00111022 FZRANO $
0230725165947372024010322297+43533-072950FM-15+0240KRUT V0209999C00005005495MN0160935N5+00105-00205999999ADDGA1075+005495999GA2085+012195999GD13991+0054959GD24991+0121959GE19AGL   +99999+99999GF199999999999005491999999MA1101295098445REMMET09301/03/24 17:29:02 METAR KRUT 032229Z 00000KT 10SM BKN018 OVC040 01/M02 A2991 RMK AO2 FZRANO $
0209725165947372024010322567+43533-072950FM-15+0240KRUT V0201105N00215005495MN0160935N5+00115-00175101305ADDGA1085+005495999GD14991+0054959GE19AGL   +99999+99999GF199999999999005491999999MA1101295098445REMMET10301/03/24 17:56:02 METAR KRUT 032256Z 11004KT 10SM OVC018 01/M02 A2991 RMK AO2 SLP130 T00111017 FZRANO $
0357725165947372024010323567+43533-072950FM-15+0240KRUT V0202005N00215011895MN0160935N5+00115-00175101365ADDAA106000021GA1025+005495999GA2085+011895999GD11991+0054959GD24991+0118959GE19AGL   +99999+99999GF199999999999005491999999KA1060M+00171KA2060N+00111MA1101325098475MD1390029+9999REMMET13401/03/24 18:56:02 METAR KRUT 032356Z 20004KT 10SM FEW018 OVC039 01/M02 A2992 RMK AO2 SLP136 60000 T00111017 10017 20011 53002 FZRANO $EQDQ01  00002PRCP06Q02  00008PRCP06
0209725165947372024010400567+43533-072950FM-15+0240KRUT V0202305N00315011895MN0160935N5+00175-00285101375ADDGA1085+011895999GD14991+0118959GE19AGL   +99999+99999GF199999999999011891999999MA1101355098505REMMET10301/03/24 19:56:01 METAR KRUT 040056Z 23006KT 10SM OVC039 02/M03 A2993 RMK AO2 SLP137 T00171028 FZRANO $
0209725165947372024010401567+43533-072950FM-15+0240KRUT V0202505N00265012505MN0160935N5+00175-00335101325ADDGA1085+012505999GD14991+0125059GE19AGL   +99999+99999GF199999999999012501999999MA1101295098445REMMET10301/03/24 20:56:01 METAR KRUT 040156Z 25005KT 10SM OVC041 02/M03 A2991 RMK AO2 SLP132 T00171033 FZRANO $
0229725165947372024010402567+43533-072950FM-15+0240KRUT V0202205N00315012505MN0160935N5+00175-00285101295ADDGA1085+012505999GD14991+0125059GE19AGL   +99999+99999GF199999999999012501999999MA1101255098405MD1890069+9999REMMET10901/03/24 21:56:01 METAR KRUT 040256Z 22006KT 10SM OVC041 02/M03 A2990 RMK AO2 SLP129 T00171028 58006 FZRANO $
0209725165947372024010403567+43533-072950FM-15+0240KRUT V0202305N00265012505MN0160935N5+00115-00285101275ADDGA1085+012505999GD14991+0125059GE19AGL   +99999+99999GF199999999999012501999999MA1101255098405REMMET10301/03/24 22:56:01 METAR KRUT 040356Z 23005KT 10SM OVC041 01/M03 A2990 RMK AO2 SLP127 T00111028 FZRANO $
0245725165947372024010404567+43533-072950FM-15+0240KRUT V0202205N00315013115MN0160935N5+00115-00285101195ADDGA1085+013115999GD14991+0131159GE19AGL   +99999+99999GF199999999999013111999999KA1240M+00171KA2240N-00221MA1101195098345REMMET11301/03/24 23:56:02 METAR KRUT 040456Z 22006KT 10SM OVC043 01/M03 A2988 RMK AO2 SLP119 T00111028 400171022 FZRANO $
0442725165947372024010404596+43533-072950SOD  +0240KRUT V020999999999999999999999999999+99999+99999999999ADDAA124000025KA1240M+00175KA2240N-00215MG1098489999994OE11249999999999997OE22240035824099995OE33240016599999995REMSOD32124 HR PRECIPITATION (IN):    T 24 HR MAX TEMP (F): 3524 HR MIN TEMP (F): 28AVERAGE STATION PRESSURE(D):29.081  FASTEST 2MIN SPEED (MPH):  8FASTEST 2MIN DIR (DEG):240 FASTEST 2MIN TIME (LST):     AVERAGE WIND SPEED (MPH): 3.7 24 HR AVG TEMP (F): 32SKY COVER SR-SS (TENTHS): 1HEATING DEGREE DAYS: 33 COOLING DEGREE DAYS:  0
0267725165947372024010405567+43533-072950FM-15+0240KRUT V0202205N00315014335MN0160935N5+00115-00335101195ADDGA1085+014335999GD14991+0143359GE19AGL   +99999+99999GF199999999999014331999999KA1060M+00171KA2060N+00111MA1101195098345MD1690099+9999REMMET12101/04/24 00:56:02 METAR KRUT 040556Z 22006KT 10SM OVC047 01/M03 A2988 RMK AO2 SLP119 T00111033 10017 20011 56009 FZRANO $
0209725165947372024010406567+43533-072950FM-15+0240KRUT V0202305N00315014945MN0160935N5+00115-00335101215ADDGA1085+014945999GD14991+0149459GE19AGL   +99999+99999GF199999999999014941999999MA1101195098345REMMET10301/04/24 01:56:02 METAR KRUT 040656Z 23006KT 10SM OVC049 01/M03 A2988 RMK AO2 SLP121 T00111033 FZRANO $
0209725165947372024010407567+43533-072950FM-15+0240KRUT V0209999V00315016765MN0160935N5+00115-00285101175ADDGA1085+016765999GD14991+0167659GE19AGL   +99999+99999GF199999999999016761999999MA1101155098305REMMET10301/04/24 02:56:02 METAR KRUT 040756Z VRB06KT 10SM OVC055 01/M03 A2987 RMK AO2 SLP117 T00111028 FZRANO $
0229725165947372024010408567+43533-072950FM-15+0240KRUT V0209999V00215018295MN0160935N5+00065-00285101135ADDGA1085+018295999GD14991+0182959GE19AGL   +99999+99999GF199999999999018291999999MA1101125098275MD1890069+9999REMMET10901/04/24 03:56:02 METAR KRUT 040856Z VRB04KT 10SM OVC060 01/M03 A2986 RMK AO2 SLP113 T00061028 58006 FZRANO $
0209725165947372024010409567+43533-072950FM-15+0240KRUT V0201705N00315019815MN0160935N5+00065-00285101075ADDGA1085+019815999GD14991+0198159GE19AGL   +99999+99999GF199999999999019811999999MA1101055098205REMMET10301/04/24 04:56:02 METAR KRUT 040956Z 17006KT 10SM OVC065 01/M03 A2984 RMK AO2 SLP107 T00061028 FZRANO $
0230725165947372024010410217+43533-072950FM-15+0240KRUT V0203005N00215005185MN0160935N5+00105-00205999999ADDGA1075+005185999GA2085+019815999GD13991+0051859GD24991+0198159GE19AGL   +99999+99999GF199999999999005181999999MA1101085098245REMMET09301/04/24 05:21:02 METAR KRUT 041021Z 30004KT 10SM BKN017 OVC065 01/M02 A2985 RMK AO2 FZRANO $
0247725165947372024010410567+43533-072950FM-15+0240KRUT V0209999V00155005185MN0160935N5+00065-00285101125ADDGA1075+005185999GA2085+021345999GD13991+0051859GD24991+0213459GE19AGL   +99999+99999GF199999999999005181999999MA1101085098245REMMET11001/04/24 05:56:02 METAR KRUT 041056Z VRB03KT 10SM BKN017 OVC070 01/M03 A2985 RMK AO2 SLP112 T00061028 FZRANO $
0385725165947372024010411567+43533-072950FM-15+0240KRUT V0209999C00005005795MN0160935N5+00065-00285101115ADDAA101000021AA206000021GA1075+005795999GA2085+015245999GD13991+0057959GD24991+0152459GE19AGL   +99999+99999GF199999999999005791999999KA1060M+00111KA2060N+00061MA1101085098245MD1690029+9999REMMET15101/04/24 06:56:02 METAR KRUT 041156Z 00000KT 10SM BKN019 OVC050 01/M03 A2985 RMK AO2 RAB1057E52 SLP111 P0000 60000 T00061028 10011 20006 56002 FZRANO $EQDQ01  00002PRCP06Q02  00008PRCP06
0235725165947372024010412567+43533-072950FM-15+0240KRUT V0209999C00005005795MN0160935N5+00065-00225101145ADDAA101000021GA1085+005795999GD14991+0057959GE19AGL   +99999+99999GF199999999999005791999999MA1101125098275REMMET11801/04/24 07:56:02 METAR KRUT 041256Z 00000KT 10SM OVC019 01/M02 A2986 RMK AO2 RAB34E44 SLP114 P0000 T00061022 FZRANO $
0285725165947372024010413567+43533-072950FM-15+0240KRUT V0209999C00005005795MN0160935N5+00115-00225101155ADDGA1075+005795999GA2075+009755999GA3085+024385999GD13991+0057959GD23991+0097559GD34991+0243859GE19AGL   +99999+99999GF199999999999005791999999MA1101155098305REMMET11701/04/24 08:56:02 METAR KRUT 041356Z 00000KT 10SM BKN019 BKN032 OVC080 01/M02 A2987 RMK AO2 SLP115 T00111022 FZRANO $
0235725165947372024010414567+43533-072950FM-15+0240KRUT V0203105N00265006405MN0160935N5+00115-00225101215ADDGA1085+006405999GD14991+0064059GE19AGL   +99999+99999GF199999999999006401999999MA1101195098345MD1390119+9999REMMET11501/04/24 09:56:02 METAR KRUT 041456Z 31005KT 10SM OVC021 01/M02 A2988 RMK AO2 SLP121 6//// T00111022 53011 FZRANO $
0321725165947372024010415537+43533-072950FM-15+0240KRUT V0203405N00625006405MN0040235N5+00105-00205999999ADDAA101000021AU110020015AW1615GA1025+002745999GA2045+003965999GA3085+006405999GD11991+0027459GD22991+0039659GD34991+0064059GE19AGL   +99999+99999GF199999999999002741999999MA1101225098375MW1615REMMET11901/04/24 10:53:02 METAR KRUT 041553Z 34012KT 2 1/2SM -RA FEW009 SCT013 OVC021 01/M02 A2989 RMK AO2 RAB44 P0000 FZRANO $
0373725165947372024010415567+43533-072950FM-15+0240KRUT V0203505N00935004275MN0016095N5+00065-00175101245ADDAA101000021AU110030015AU200001015AW1105AW2715GA1025+001525999GA2075+004275999GA3085+006405999GD11991+0015259GD23991+0042759GD34991+0064059GE19AGL   +99999+99999GF199999999999001521999999MA1101225098375MW1715OC101245REMMET14601/04/24 10:56:02 METAR KRUT 041556Z 35018G24KT 1SM -SN BR FEW005 BKN014 OVC021 01/M02 A2989 RMK AO2 RAB44E54SNB54 SLP124 P0000 T00061017 FZRANO $
0347725165947372024010416007+43533-072950FM-15+0240KRUT V0203405N00625004275MN0008055N5-00105-00205999999ADDAA101000021AU110030015AU208002015AW1355AW2715GA1045+002135999GA2075+004275999GA3085+006405999GD12991+0021359GD23991+0042759GD34991+0064059GE19AGL   +99999+99999GF199999999999002131999999MA1101255098405MW1715OC101245REMMET12001/04/24 11:00:02 METAR KRUT 041600Z 34012G24KT 1/2SM -SN FZFG SCT007 BKN014 OVC021 M01/M02 A2990 RMK AO2 P0000 FZRANO $
0343725165947372024010416067+43533-072950FM-15+0240KRUT V0203405N00415004275MN0016095N5-00105-00205999999ADDAA101000021AU110030015AU200001015AW1105AW2715GA1045+002745999GA2075+004275999GA3085+005795999GD12991+0027459GD23991+0042759GD34991+0057959GE19AGL   +99999+99999GF199999999999002741999999MA1101255098405MW1715OC100935REMMET11601/04/24 11:06:02 METAR KRUT 041606Z 34008G18KT 1SM -SN BR SCT009 BKN014 OVC019 M01/M02 A2990 RMK AO2 P0000 FZRANO $
0357725165947372024010416097+43533-072950FM-15+0240KRUT V0203305N00515004885MN0024145V5-00105-00205999999ADDAA101000021AU110030015AU200001015AW1105AW2715GA1025+001525999GA2045+003055999GA3085+004885999GD11991+0015259GD22991+0030559GD34991+0048859GE19AGL   +99999+99999GF199999999999001521999999MA1101255098405MW1715OC100935REMMET13001/04/24 11:09:02 METAR KRUT 041609Z 33010G18KT 1 1/2SM -SN BR FEW005 SCT010 OVC016 M01/M02 A2990 RMK AO2 VIS 3/4V3 P0000 FZRANO $
0343725165947372024010416137+43533-072950FM-15+0240KRUT V0203305N00515004885MN0048285N5-00105-00205999999ADDAA101000021AU110030015AU200001015AW1105AW2715GA1025+001525999GA2045+003055999GA3085+004885999GD11991+0015259GD22991+0030559GD34991+0048859GE19AGL   +99999+99999GF199999999999001521999999MA1101255098405MW1715OC100885REMMET11601/04/24 11:13:02 METAR KRUT 041613Z 33010G17KT 3SM -SN BR FEW005 SCT010 OVC016 M01/M02 A2990 RMK AO2 P0000 FZRANO $
0320725165947372024010416567+43533-072950FM-15+0240KRUT V0203305N00625010065MN0160935N5-00115-00445101345ADDAA101000021GA1025+006105999GA2075+010065999GA3085+012505999GD11991+0061059GD23991+0100659GD34991+0125059GE19AGL   +99999+99999GF199999999999006101999999MA1101325098475OC101085REMMET13301/04/24 11:56:02 METAR KRUT 041656Z 33012G21KT 10SM FEW020 BKN033 OVC041 M01/M04 A2992 RMK AO2 SNE44 SLP134 P0000 T10111044 FZRANO $
0341725165947372024010417567+43533-072950FM-15+0240KRUT V0203405N004152200059N0160935N5+00005-00725101385ADDGA1045+010675999GA2045+013725999GD12991+0106759GD22991+0137259GE19AGL   +99999+99999GF104995999999010671999999KA1060M+00171KA2060N-00111MA1101355098505MD1390169+9999OC101085REMMET13701/04/24 12:56:02 METAR KRUT 041756Z 34008G21KT 10SM SCT035 SCT045 00/M07 A2993 RMK AO2 SLP138 6//// T00001072 10017 21011 53016 FZRANO $EQDD01      0ADE726
0247725165947372024010418567+43533-072950FM-15+0240KRUT V0203405N00515013115MN0160935N5-00225-00895101495ADDAA101000021GA1075+013115999GD13991+0131159GE19AGL   +99999+99999GF199999999999013111999999MA1101465098605OC100775REMMET12201/04/24 13:56:02 METAR KRUT 041856Z 34010G15KT 10SM BKN043 M02/M09 A2996 RMK AO2 SNB25E36 SLP149 P0000 T10221089 FZRANO $
0221725165947372024010419567+43533-072950FM-15+0240KRUT V0203205N00675012505MN0160935N5-00225-01065101615ADDGA1085+012505999GD14991+0125059GE19AGL   +99999+99999GF199999999999012501999999MA1101565098705OC100985REMMET10701/04/24 14:56:02 METAR KRUT 041956Z 32013G19KT 10SM OVC041 M02/M11 A2999 RMK AO2 SLP161 T10221106 FZRANO $
0268725165947372024010420567+43533-072950FM-15+0240KRUT V0203205N007252200059N0160935N5-00445-01175101695ADDAA103000021GA1005+999999999GD10991+9999999GF100991999999999999999999MA1101665098805MD1390309+9999OC100935REMMET11601/04/24 15:56:02 METAR KRUT 042056Z 32014G18KT 10SM CLR M04/M12 A3002 RMK AO2 SLP169 60000 T10441117 53030 FZRANO $EQDQ01  00002PRCP03Q02  00008PRCP03
0196725165947372024010421567+43533-072950FM-15+0240KRUT V0203105N004652200059N0160935N5-00675-01225101845ADDGA1005+999999999GD10991+9999999GF100991999999999999999999MA1101795098935OC100775REMMET10401/04/24 16:56:02 METAR KRUT 042156Z 31009G15KT 10SM CLR M07/M12 A3006 RMK AO2 SLP184 T10671122 FZRANO $
0185725165947372024010422567+43533-072950FM-15+0240KRUT V0203005N003152200059N0160935N5-00785-01285101965ADDGA1005+999999999GD10991+9999999GF100991999999999999999999MA1101935099065REMMET10101/04/24 17:56:02 METAR KRUT 042256Z 30006KT 10SM CLR M08/M13 A3010 RMK AO2 SLP196 T10781128 FZRANO $
0295725165947372024010423567+43533-072950FM-15+0240KRUT V0203105N003652200059N0160935N5-00835-01285102035ADDAA106000021GA1005+999999999GD10991+9999999GF100991999999999999999999KA1060M-00061KA2060N-00831MA1101965099105MD1190309+9999REMMET12501/04/24 18:56:02 METAR KRUT 042356Z 31007KT 10SM CLR M08/M13 A3011 RMK AO2 SLP203 60000 T10831128 11006 21083 51030 FZRANO $EQDQ01  00002PRCP06Q02  00008PRCP06
0185725165947372024010500567+43533-072950FM-15+0240KRUT V0203105N002152200059N0160935N5-00895-01335102105ADDGA1005+999999999GD10991+9999999GF100991999999999999999999MA1102035099165REMMET10101/04/24 19:56:01 METAR KRUT 050056Z 31004KT 10SM CLR M09/M13 A3013 RMK AO2 SLP210 T10891133 FZRANO $
0185725165947372024010501567+43533-072950FM-15+0240KRUT V0203105N003152200059N0160935N5-00945-01335102135ADDGA1005+999999999GD10991+9999999GF100991999999999999999999MA1102075099205REMMET10101/04/24 20:56:02 METAR KRUT 050156Z 31006KT 10SM CLR M09/M13 A3014 RMK AO2 SLP213 T10941133 FZRANO $
0249725165947372024010502567+43533-072950FM-15+0240KRUT V0202905N002652200059N0160935N5-00945-01335102165ADDGA1045+009145999GD12991+0091459GE19AGL   +99999+99999GF104995999999009141999999MA1102105099235MD1190129+9999REMMET11001/04/24 21:56:02 METAR KRUT 050256Z 29005KT 10SM SCT030 M09/M13 A3015 RMK AO2 SLP216 T10941133 51012 FZRANO $EQDD01      0ADE726
0185725165947372024010503567+43533-072950FM-15+0240KRUT V0203005N003652200059N0160935N5-01005-01395102175ADDGA1005+999999999GD10991+9999999GF100991999999999999999999MA1102105099235REMMET10101/04/24 22:56:02 METAR KRUT 050356Z 30007KT 10SM CLR M10/M14 A3015 RMK AO2 SLP217 T11001139 FZRANO $
0193725165947372024010504277+43533-072950FM-15+0240KRUT V0203005N00265008235MN0160935N5-01005-01405999999ADDGA1075+008235999GD13991+0082359GE19AGL   +99999+99999GF199999999999008231999999MA1102105099235REMMET08701/04/24 23:27:02 METAR KRUT 050427Z 30005KT 10SM BKN027 M10/M14 A3015 RMK AO2 FZRANO $
0246725165947372024010504567+43533-072950FM-15+0240KRUT V0203005N00265008235MN0160935N5-00945-01335102175ADDGA1085+008235999GD14991+0082359GE19AGL   +99999+99999GF199999999999008231999999KA1240M+00171KA2240N-01001MA1102105099235REMMET11401/04/24 23:56:02 METAR KRUT 050456Z 30005KT 10SM OVC027 M09/M13 A3015 RMK AO2 SLP217 T10941133 400171100 FZRANO $
0577725165947372024010504596+43533-072950SOD  +0240KRUT V020999999999999999999999999999+99999+99999999999ADDAA124000025AT1AU16RA  5AT2AU18SN  5AT3AU22FZFG5AT4AU13BR  5AT5AW01FG  5AX1015245KA1240M+00175KA2240N-00995MG1098619999994OE11240125235099995OE22240093935099995OE33240034499999995REMSOD38724 HR PRECIPITATION (IN):    T WEATHER(CODE):1  24 HR MAX TEMP (F): 3524 HR MIN TEMP (F): 14AVERAGE STATION PRESSURE(D):29.120 PEAK WIND SPEED (MPH): 28 PEAK WIND DIR (DEG):350 PEAK WIND TIME (LST):      FASTEST 2MIN SPEED (MPH): 21FASTEST 2MIN DIR (DEG):350 FASTEST 2MIN TIME (LST):     AVERAGE WIND SPEED (MPH): 7.7 24 HR AVG TEMP (F): 25HEATING DEGREE DAYS: 40 COOLING DEGREE DAYS:  0
0268725165947372024010505567+43533-072950FM-15+0240KRUT V0203105N00265008235MN0160935N5-01005-01395102175ADDGA1075+008235999GD13991+0082359GE19AGL   +99999+99999GF199999999999008231999999KA1060M-00831KA2060N-01001MA1102105099235MD1090009+9999REMMET12201/05/24 00:56:02 METAR KRUT 050556Z 31005KT 10SM BKN027 M10/M14 A3015 RMK AO2 SLP217 T11001139 11083 21100 50000 FZRANO $
0212725165947372024010506387+43533-072950FM-15+0240KRUT V0203105N002152200059N0160935N5-01105-01405999999ADDGA1025+007625999GD11991+0076259GE19AGL   +99999+99999GF102995999999007621999999MA1102135099265REMMET08701/05/24 01:38:02 METAR KRUT 050638Z 31004KT 10SM FEW025 M11/M14 A3016 RMK AO2 FZRANO $EQDD01      0ADE726
0185725165947372024010506567+43533-072950FM-15+0240KRUT V0203005N002152200059N0160935N5-01115-01445102215ADDGA1005+999999999GD10991+9999999GF100991999999999999999999MA1102135099265REMMET10101/05/24 01:56:02 METAR KRUT 050656Z 30004KT 10SM CLR M11/M14 A3016 RMK AO2 SLP221 T11111144 FZRANO $
0185725165947372024010507567+43533-072950FM-15+0240KRUT V0202805N001552200059N0160935N5-01175-01505102265ADDGA1005+999999999GD10991+9999999GF100991999999999999999999MA1102175099305REMMET10101/05/24 02:56:02 METAR KRUT 050756Z 28003KT 10SM CLR M12/M15 A3017 RMK AO2 SLP226 T11171150 FZRANO $
0205725165947372024010508567+43533-072950FM-15+0240KRUT V0202905N002152200059N0160935N5-01175-01445102275ADDGA1005+999999999GD10991+9999999GF100991999999999999999999MA1102205099335MD1190099+9999REMMET10701/05/24 03:56:02 METAR KRUT 050856Z 29004KT 10SM CLR M12/M14 A3018 RMK AO2 SLP227 T11171144 51009 FZRANO $
0185725165947372024010509567+43533-072950FM-15+0240KRUT V0200205N001552200059N0160935N5-01285-01615102275ADDGA1005+999999999GD10991+9999999GF100991999999999999999999MA1102175099305REMMET10101/05/24 04:56:02 METAR KRUT 050956Z 02003KT 10SM CLR M13/M16 A3017 RMK AO2 SLP227 T11281161 FZRANO $
0193725165947372024010510377+43533-072950FM-15+0240KRUT V0209999C00005008235MN0160935N5-01205-01405999999ADDGA1075+008235999GD13991+0082359GE19AGL   +99999+99999GF199999999999008231999999MA1102205099335REMMET08701/05/24 05:37:02 METAR KRUT 051037Z 00000KT 10SM BKN027 M12/M14 A3018 RMK AO2 FZRANO $
0210725165947372024010510567+43533-072950FM-15+0240KRUT V0209999C00005008235MN0160935N5-01285-01505102335ADDGA1085+008235999GD14991+0082359GE19AGL   +99999+99999GF199999999999008231999999MA1102245099365REMMET10401/05/24 05:56:02 METAR KRUT 051056Z 00000KT 10SM OVC027 M13/M15 A3019 RMK AO2 SLP233 T11281150 FZRANO $
0212725165947372024010511427+43533-072950FM-15+0240KRUT V0209999C000052200059N0160935N5-01305-01505999999ADDGA1025+007625999GD11991+0076259GE19AGL   +99999+99999GF102995999999007621999999MA1102275099405REMMET08701/05/24 06:42:02 METAR KRUT 051142Z 00000KT 10SM FEW025 M13/M15 A3020 RMK AO2 FZRANO $EQDD01      0ADE726
0285725165947372024010511567+43533-072950FM-15+0240KRUT V0209999C00005013725MN0160935N5-01335-01505102385ADDAA124999919GA1075+013725999GD13991+0137259GE19AGL   +99999+99999GF199999999999013721999999KA1060M-01001KA2060N-01331MA1102275099405MD1390089+9999REMMET12801/05/24 06:56:02 METAR KRUT 051156Z 00000KT 10SM BKN045 M13/M15 A3020 RMK AO2 SLP238 7//// T11331150 11100 21133 53008 FZRANO $
0210725165947372024010512567+43533-072950FM-15+0240KRUT V0209999C00005014335MN0160935N5-01175-01335102395ADDGA1085+014335999GD14991+0143359GE19AGL   +99999+99999GF199999999999014331999999MA1102305099435REMMET10401/05/24 07:56:02 METAR KRUT 051256Z 00000KT 10SM OVC047 M12/M13 A3021 RMK AO2 SLP239 T11171133 FZRANO $
0210725165947372024010513567+43533-072950FM-15+0240KRUT V0200405N00155014945MN0160935N5-01005-01225102395ADDGA1085+014945999GD14991+0149459GE19AGL   +99999+99999GF199999999999014941999999MA1102305099435REMMET10401/05/24 08:56:02 METAR KRUT 051356Z 04003KT 10SM OVC049 M10/M12 A3021 RMK AO2 SLP239 T11001122 FZRANO $
0230725165947372024010514567+43533-072950FM-15+0240KRUT V0203405N00215014945MN0160935N5-00835-01115102415ADDGA1085+014945999GD14991+0149459GE19AGL   +99999+99999GF199999999999014941999999MA1102345099465MD1390059+9999REMMET11001/05/24 09:56:02 METAR KRUT 051456Z 34004KT 10SM OVC049 M08/M11 A3022 RMK AO2 SLP241 T10831111 53005 FZRANO $
0210725165947372024010515567+43533-072950FM-15+0240KRUT V0209999V00155014945MN0160935N5-00675-01005102345ADDGA1085+014945999GD14991+0149459GE19AGL   +99999+99999GF199999999999014941999999MA1102275099405REMMET10401/05/24 10:56:02 METAR KRUT 051556Z VRB03KT 10SM OVC049 M07/M10 A3020 RMK AO2 SLP234 T10671100 FZRANO $
0210725165947372024010516567+43533-072950FM-15+0240KRUT V0203205N00215013725MN0160935N5-00565-01065102265ADDGA1085+013725999GD14991+0137259GE19AGL   +99999+99999GF199999999999013721999999MA1102205099335REMMET10401/05/24 11:56:02 METAR KRUT 051656Z 32004KT 10SM OVC045 M06/M11 A3018 RMK AO2 SLP226 T10561106 FZRANO $
0353725165947372024010517567+43533-072950FM-15+0240KRUT V0209999V00315013115MN0144845N5-00505-01065102185ADDAA101000021AA206000021AU110030015AW1715GA1085+013115999GD14991+0131159GE19AGL   +99999+99999GF199999999999013111999999KA1060M-00501KA2060N-01331MA1102105099235MD1890219+9999MW1715REMMET14301/05/24 12:56:02 METAR KRUT 051756Z VRB06KT 9SM -SN OVC043 M05/M11 A3015 RMK AO2 SNB29 SLP218 P0000 60000 T10501106 11050 21133 58021 FZRANO $EQDQ01  00008PRCP06
0291725165947372024010518567+43533-072950FM-15+0240KRUT V0202905N00315013115MN0144845N5-00395-00945102115ADDAA101000021AU110030015AW1715GA1045+009455999GA2085+013115999GD12991+0094559GD24991+0131159GE19AGL   +99999+99999GF199999999999009451999999MA1102035099165MW1715REMMET12001/05/24 13:56:02 METAR KRUT 051856Z 29006KT 9SM -SN SCT031 OVC043 M04/M09 A3013 RMK AO2 SLP211 P0000 T10391094 FZRANO $
0263725165947372024010519567+43533-072950FM-15+0240KRUT V0202605N00365010975MN0160935N5-00335-00895102135ADDAA101000021AU110030015AW1715GA1085+010975999GD14991+0109759GE19AGL   +99999+99999GF199999999999010971999999MA1102075099205MW1715REMMET12301/05/24 14:56:02 METAR KRUT 051956Z 26007KT 10SM -SN OVC036 M03/M09 A3014 RMK AO2 SNE25B55 SLP213 P0000 T10331089 FZRANO $
0319725165947372024010520567+43533-072950FM-15+0240KRUT V0202505N00215010365MN0160935N5-00395-00835102135ADDAA101000021AA203000021AU110030015AW1715GA1085+010365999GD14991+0103659GE19AGL   +99999+99999GF199999999999010361999999MA1102075099205MD1690059+9999MW1715REMMET13501/05/24 15:56:02 METAR KRUT 052056Z 25004KT 10SM -SN OVC034 M04/M08 A3014 RMK AO2 SNE07B53 SLP213 P0000 60000 T10391083 56005 FZRANO $EQDQ01  00008PRCP03
0253725165947372024010521567+43533-072950FM-15+0240KRUT V0209999C00005009755MN0144845N5-00395-00785102145ADDAA101000021AU110030015AW1715GA1085+009755999GD14991+0097559GE19AGL   +99999+99999GF199999999999009751999999MA1102075099205MW1715REMMET11301/05/24 16:56:02 METAR KRUT 052156Z 00000KT 9SM -SN OVC032 M04/M08 A3014 RMK AO2 SLP214 P0000 T10391078 FZRANO $
0232725165947372024010522567+43533-072950FM-15+0240KRUT V0209999V00155007925MN0144845N5-00335-00675102075ADDAA101000021GA1085+007925999GD14991+0079259GE19AGL   +99999+99999GF199999999999007921999999MA1102005099135REMMET11501/05/24 17:56:02 METAR KRUT 052256Z VRB03KT 9SM OVC026 M03/M07 A3012 RMK AO2 SNE52 SLP207 P0000 T10331067 FZRANO $
0353725165947372024010523567+43533-072950FM-15+0240KRUT V0202505N00415006715MN0128755N5-00285-00615102145ADDAA101000021AA206000021AU110030015AW1715GA1085+006715999GD14991+0067159GE19AGL   +99999+99999GF199999999999006711999999KA1060M-00281KA2060N-00501MA1102075099205MD1390019+9999MW1715REMMET14301/05/24 18:56:02 METAR KRUT 052356Z 25008KT 8SM -SN OVC022 M03/M06 A3014 RMK AO2 SNB52 SLP214 P0000 60000 T10281061 11028 21050 53001 FZRANO $EQDQ01  00008PRCP06
0271725165947372024010600567+43533-072950FM-15+0240KRUT V0202505N00415007325MN0160935N5-00285-00615102155ADDAA101000021GA1075+007325999GA2085+008535999GD13991+0073259GD24991+0085359GE19AGL   +99999+99999GF199999999999007321999999MA1102075099205REMMET12301/05/24 19:56:01 METAR KRUT 060056Z 25008KT 10SM BKN024 OVC028 M03/M06 A3014 RMK AO2 SNE38 SLP215 P0000 T10281061 FZRANO $
0210725165947372024010601567+43533-072950FM-15+0240KRUT V0202405N00365008235MN0160935N5-00225-00675102125ADDGA1085+008235999GD14991+0082359GE19AGL   +99999+99999GF199999999999008231999999MA1102035099165REMMET10401/05/24 20:56:01 METAR KRUT 060156Z 24007KT 10SM OVC027 M02/M07 A3013 RMK AO2 SLP212 T10221067 FZRANO $
0266725165947372024010602567+43533-072950FM-15+0240KRUT V0202705N00315008235MN0160935N5-00225-00675102055ADDAA103000021GA1085+008235999GD14991+0082359GE19AGL   +99999+99999GF199999999999008231999999MA1101965099105MD1890089+9999REMMET11601/05/24 21:56:01 METAR KRUT 060256Z 27006KT 10SM OVC027 M02/M07 A3011 RMK AO2 SLP205 60000 T10221067 58008 FZRANO $EQDQ01  00008PRCP03
0260725165947372024010603567+43533-072950FM-15+0240KRUT V0202705N00465008235MN0160935N5-00225-00615102085ADDAA101000021AU110030015AW1715GA1085+008235999GD14991+0082359GE19AGL   +99999+99999GF199999999999008231999999MA1102035099165MW1715REMMET12001/05/24 22:56:02 METAR KRUT 060356Z 27009KT 10SM -SN OVC027 M02/M06 A3013 RMK AO2 SNB53 SLP208 P0000 T10221061 FZRANO $
0299725165947372024010604567+43533-072950FM-15+0240KRUT V0202605N00415007625MN0160935N5-00225-00615102075ADDAA101000021AU110030015AW1715GA1085+007625999GD14991+0076259GE19AGL   +99999+99999GF199999999999007621999999KA1240M-00221KA2240N-01331MA1102005099135MW1715REMMET13301/05/24 23:56:02 METAR KRUT 060456Z 26008KT 10SM -SN OVC025 M02/M06 A3012 RMK AO2 SNE37B53 SLP207 P0000 T10221061 410221133 FZRANO $
0427725165947372024010604596+43533-072950SOD  +0240KRUT V020999999999999999999999999999+99999+99999999999ADDAA124000025AT1AU18SN  5KA1240M-00215KA2240N-01325MG1099279999994OE11249999999999997OE22240044727099995OE33240021999999995REMSOD29424 HR PRECIPITATION (IN):    T 24 HR MAX TEMP (F): 2824 HR MIN TEMP (F):  8AVERAGE STATION PRESSURE(D):29.315  FASTEST 2MIN SPEED (MPH): 10FASTEST 2MIN DIR (DEG):270 FASTEST 2MIN TIME (LST):     AVERAGE WIND SPEED (MPH): 4.9 24 HR AVG TEMP (F): 18HEATING DEGREE DAYS: 47 COOLING DEGREE DAYS:  0
0347725165947372024010605567+43533-072950FM-15+0240KRUT V0202605N00365007625MN0144845N5-00175-00615102075ADDAA101000021AA206000021AU110030015AW1715GA1085+007625999GD14991+0076259GE19AGL   +99999+99999GF199999999999007621999999KA1060M-00171KA2060N-00281MA1102035099165MD1190059+9999MW1715REMMET13701/06/24 00:56:02 METAR KRUT 060556Z 26007KT 9SM -SN OVC025 M02/M06 A3013 RMK AO2 SLP207 P0000 60000 T10171061 11017 21028 51005 FZRANO $EQDQ01  00008PRCP06
0233725165947372024010606567+43533-072950FM-15+0240KRUT V0203105N00365007625MN0160935N5-00175-00615102045ADDAA101000021GA1085+007625999GD14991+0076259GE19AGL   +99999+99999GF199999999999007621999999MA1102005099135REMMET11601/06/24 01:56:02 METAR KRUT 060656Z 31007KT 10SM OVC025 M02/M06 A3012 RMK AO2 SNE22 SLP204 P0000 T10171061 FZRANO $
0193725165947372024010607487+43533-072950FM-15+0240KRUT V0202905N00365009455MN0160935N5-00205-00605999999ADDGA1085+009455999GD14991+0094559GE19AGL   +99999+99999GF199999999999009451999999MA1102005099135REMMET08701/06/24 02:48:02 METAR KRUT 060748Z 29007KT 10SM OVC031 M02/M06 A3012 RMK AO2 FZRANO $
0210725165947372024010607567+43533-072950FM-15+0240KRUT V0203005N00315009455MN0160935N5-00175-00615102075ADDGA1085+009455999GD14991+0094559GE19AGL   +99999+99999GF199999999999009451999999MA1102035099165REMMET10401/06/24 02:56:02 METAR KRUT 060756Z 30006KT 10SM OVC031 M02/M06 A3013 RMK AO2 SLP207 T10171061 FZRANO $
0193725165947372024010608137+43533-072950FM-15+0240KRUT V0203205N00265007925MN0160935N5-00205-00605999999ADDGA1085+007925999GD14991+0079259GE19AGL   +99999+99999GF199999999999007921999999MA1102035099165REMMET08701/06/24 03:13:02 METAR KRUT 060813Z 32005KT 10SM OVC026 M02/M06 A3013 RMK AO2 FZRANO $
0266725165947372024010608567+43533-072950FM-15+0240KRUT V0203305N00265007325MN0160935N5-00175-00565102095ADDAA103000021GA1085+007325999GD14991+0073259GE19AGL   +99999+99999GF199999999999007321999999MA1102035099165MD1190059+9999REMMET11601/06/24 03:56:02 METAR KRUT 060856Z 33005KT 10SM OVC024 M02/M06 A3013 RMK AO2 SLP209 60000 T10171056 51005 FZRANO $EQDQ01  00008PRCP03
0193725165947372024010609357+43533-072950FM-15+0240KRUT V0209999C00005009145MN0160935N5-00205-00605999999ADDGA1085+009145999GD14991+0091459GE19AGL   +99999+99999GF199999999999009141999999MA1102035099165REMMET08701/06/24 04:35:02 METAR KRUT 060935Z 00000KT 10SM OVC030 M02/M06 A3013 RMK AO2 FZRANO $
0210725165947372024010609567+43533-072950FM-15+0240KRUT V0209999C00005009145MN0160935N5-00225-00615102145ADDGA1085+009145999GD14991+0091459GE19AGL   +99999+99999GF199999999999009141999999MA1102105099235REMMET10401/06/24 04:56:02 METAR KRUT 060956Z 00000KT 10SM OVC030 M02/M06 A3015 RMK AO2 SLP214 T10221061 FZRANO $
0193725165947372024010610117+43533-072950FM-15+0240KRUT V0209999C00005008535MN0160935N5-00205-00605999999ADDGA1085+008535999GD14991+0085359GE19AGL   +99999+99999GF199999999999008531999999MA1102105099235REMMET08701/06/24 05:11:02 METAR KRUT 061011Z 00000KT 10SM OVC028 M02/M06 A3015 RMK AO2 FZRANO $
0210725165947372024010610567+43533-072950FM-15+0240KRUT V0200705N00155007925MN0160935N5-00225-00505102165ADDGA1085+007925999GD14991+0079259GE19AGL   +99999+99999GF199999999999007921999999MA1102105099235REMMET10401/06/24 05:56:02 METAR KRUT 061056Z 07003KT 10SM OVC026 M02/M05 A3015 RMK AO2 SLP216 T10221050 FZRANO $
0304725165947372024010611567+43533-072950FM-15+0240KRUT V0203505N00315007325MN0160935N5-00225-00565102165ADDAA106000021GA1085+007325999GD14991+0073259GE19AGL   +99999+99999GF199999999999007321999999KA1060M-00171KA2060N-00281MA1102135099265MD1190089+9999REMMET12801/06/24 06:56:02 METAR KRUT 061156Z 35006KT 10SM OVC024 M02/M06 A3016 RMK AO2 SLP216 60000 T10221056 11017 21028 51008 FZRANO $EQDQ01  00008PRCP06
0210725165947372024010612567+43533-072950FM-15+0240KRUT V0209999C00005007925MN0160935N5-00285-00565102255ADDGA1085+007925999GD14991+0079259GE19AGL   +99999+99999GF199999999999007921999999MA1102205099335REMMET10401/06/24 07:56:02 METAR KRUT 061256Z 00000KT 10SM OVC026 M03/M06 A3018 RMK AO2 SLP225 T10281056 FZRANO $
0210725165947372024010613567+43533-072950FM-15+0240KRUT V0209999C00005007925MN0160935N5-00285-00505102225ADDGA1085+007925999GD14991+0079259GE19AGL   +99999+99999GF199999999999007921999999MA1102175099305REMMET10401/06/24 08:56:02 METAR KRUT 061356Z 00000KT 10SM OVC026 M03/M05 A3017 RMK AO2 SLP222 T10281050 FZRANO $
0193725165947372024010614487+43533-072950FM-15+0240KRUT V0209999V00155009145MN0160935N5-00205-00505999999ADDGA1085+009145999GD14991+0091459GE19AGL   +99999+99999GF199999999999009141999999MA1102205099335REMMET08701/06/24 09:48:02 METAR KRUT 061448Z VRB03KT 10SM OVC030 M02/M05 A3018 RMK AO2 FZRANO $
0268725165947372024010614567+43533-072950FM-15+0240KRUT V0209999C00005008235MN0160935N5-00225-00505102285ADDGA1075+008235999GA2085+009755999GD13991+0082359GD24991+0097559GE19AGL   +99999+99999GF199999999999008231999999MA1102245099365MD1390049+9999REMMET11701/06/24 09:56:02 METAR KRUT 061456Z 00000KT 10SM BKN027 OVC032 M02/M05 A3019 RMK AO2 SLP228 T10221050 53004 FZRANO $
0210725165947372024010615567+43533-072950FM-15+0240KRUT V0202905N00155007625MN0160935N5-00225-00565102235ADDGA1085+007625999GD14991+0076259GE19AGL   +99999+99999GF199999999999007621999999MA1102205099335REMMET10401/06/24 10:56:02 METAR KRUT 061556Z 29003KT 10SM OVC025 M02/M06 A3018 RMK AO2 SLP223 T10221056 FZRANO $
0210725165947372024010616567+43533-072950FM-15+0240KRUT V0203605N00215008235MN0160935N5-00285-00615102145ADDGA1085+008235999GD14991+0082359GE19AGL   +99999+99999GF199999999999008231999999MA1102105099235REMMET10401/06/24 11:56:02 METAR KRUT 061656Z 36004KT 10SM OVC027 M03/M06 A3015 RMK AO2 SLP214 T10281061 FZRANO $
0268725165947372024010617567+43533-072950FM-15+0240KRUT V0203105N00315008235MN0160935N5-00335-00675101985ADDGA1085+008235999GD14991+0082359GE19AGL   +99999+99999GF199999999999008231999999KA1060M-00221KA2060N-00331MA1101935099065MD1890299+9999REMMET12201/06/24 12:56:02 METAR KRUT 061756Z 31006KT 10SM OVC027 M03/M07 A3010 RMK AO2 SLP198 T10331067 11022 21033 58029 FZRANO $
0210725165947372024010618567+43533-072950FM-15+0240KRUT V0203105N00265008235MN0160935N5-00335-00675101865ADDGA1085+008235999GD14991+0082359GE19AGL   +99999+99999GF199999999999008231999999MA1101835098975REMMET10401/06/24 13:56:02 METAR KRUT 061856Z 31005KT 10SM OVC027 M03/M07 A3007 RMK AO2 SLP186 T10331067 FZRANO $
0248725165947372024010619567+43533-072950FM-15+0240KRUT V0201205N00415008235MN0160935N5-00115-00675101775ADDGA1075+008235999GA2085+010975999GD13991+0082359GD24991+0109759GE19AGL   +99999+99999GF199999999999008231999999MA1101735098875REMMET11101/06/24 14:56:02 METAR KRUT 061956Z 12008KT 10SM BKN027 OVC036 M01/M07 A3004 RMK AO2 SLP177 T10111067 FZRANO $
0250725165947372024010620287+43533-072950FM-15+0240KRUT V0201205N006252200059N0160935N5-00105-00705999999ADDGA1025+006405999GA2045+009455999GD11991+0064059GD22991+0094559GE19AGL   +99999+99999GF104995999999006401999999MA1101665098805REMMET09401/06/24 15:28:02 METAR KRUT 062028Z 12012KT 10SM FEW021 SCT031 M01/M07 A3002 RMK AO2 FZRANO $EQDD01      0ADE726
0268725165947372024010620567+43533-072950FM-15+0240KRUT V0201305N00515033535MN0160935N5-00175-00675101715ADDGA1025+010065999GA2085+033535999GD11991+0100659GD24991+0335359GE19AGL   +99999+99999GF199999999999010061999999MA1101695098835MD1690259+9999REMMET11701/06/24 15:56:02 METAR KRUT 062056Z 13010KT 10SM FEW033 OVC110 M02/M07 A3003 RMK AO2 SLP171 T10171067 56025 FZRANO $
0259725165947372024010621567+43533-072950FM-15+0240KRUT V0201305N00575027435MN0160935N5-00115-00675101665ADDGA1075+027435999GA2085+033535999GD13991+0274359GD24991+0335359GE19AGL   +99999+99999GF199999999999027431999999MA1101635098775OC100885REMMET11401/06/24 16:56:02 METAR KRUT 062156Z 13011G17KT 10SM BKN090 OVC110 M01/M07 A3001 RMK AO2 SLP166 T10111067 FZRANO $
0248725165947372024010622567+43533-072950FM-15+0240KRUT V0201205N00575021345MN0160935N5-00115-00675101645ADDGA1075+021345999GA2085+024385999GD13991+0213459GD24991+0243859GE19AGL   +99999+99999GF199999999999021341999999MA1101635098775REMMET11101/06/24 17:56:02 METAR KRUT 062256Z 12011KT 10SM BKN070 OVC080 M01/M07 A3001 RMK AO2 SLP164 T10111067 FZRANO $
0242725165947372024010623477+43533-072950FM-15+0240KRUT V0201205N00675008235MN0160935N5-00105-00705999999ADDGA1075+008235999GA2085+021345999GD13991+0082359GD24991+0213459GE19AGL   +99999+99999GF199999999999008231999999MA1101525098675OC100885REMMET09701/06/24 18:47:02 METAR KRUT 062347Z 12013G17KT 10SM BKN027 OVC070 M01/M07 A2998 RMK AO2 FZRANO $
0279725165947372024010623567+43533-072950FM-15+0240KRUT V0201305N00675008235MN0160935N5-00115-00675101545ADDGA1085+008235999GD14991+0082359GE19AGL   +99999+99999GF199999999999008231999999KA1060M-00111KA2060N-00391MA1101525098675MD1690129+9999OC101035REMMET12501/06/24 18:56:02 METAR KRUT 062356Z 13013G20KT 10SM OVC027 M01/M07 A2998 RMK AO2 SLP154 T10111067 11011 21039 56012 FZRANO $
0355725165947372024010700437+43533-072950FM-15+0240KRUT V0201205N01035005795MN0028165V5-00205-00405999999ADDAA101000021AU110030015AU200001015AW1105AW2715GA1075+005795999GA2085+007625999GD13991+0057959GD24991+0076259GE19AGL   +99999+99999GF199999999999005791999999MA1101425098575MW1715OC101395OD149901391110REMMET14501/06/24 19:43:01 METAR KRUT 070043Z 12020G27KT 1 3/4SM -SN BR BKN019 OVC025 M02/M04 A2995 RMK AO2 PK WND 11027/0040 VIS 1V4 SNB09 P0000 FZRANO $
0326725165947372024010700567+43533-072950FM-15+0240KRUT V0201205N00825005185MN0028165N5-00175-00395101435ADDAA101000021AU110030015AU200001015AW1105AW2715GA1085+005185999GD14991+0051859GE19AGL   +99999+99999GF199999999999005181999999MA1101395098545MW1715OC101295OD149901391110REMMET14701/06/24 19:56:01 METAR KRUT 070056Z 12016G25KT 1 3/4SM -SN BR OVC017 M02/M04 A2994 RMK AO2 PK WND 11027/0040 SNB09 SLP143 P0000 T10171039 FZRANO $
0267725165947372024010701157+43533-072950FM-15+0240KRUT V0201205N00825005185MN0048285N5-00205-00405999999ADDAA101000021AU110030015AU200001015AW1105AW2715GA1085+005185999GD14991+0051859GE19AGL   +99999+99999GF199999999999005181999999MA1101395098545MW1715OC101135REMMET10201/06/24 20:15:01 METAR KRUT 070115Z 12016G22KT 3SM -SN BR OVC017 M02/M04 A2994 RMK AO2 P0000 FZRANO $
0303725165947372024010701407+43533-072950FM-15+0240KRUT V0201205N00935006405MN0040235N5-00205-00405999999ADDAA101000021AU110030015AU200001015AW1105AW2715GA1085+006405999GD14991+0064059GE19AGL   +99999+99999GF199999999999006401999999MA1101295098445MW1715OC101345OD149901331110REMMET12401/06/24 20:40:01 METAR KRUT 070140Z 12018G26KT 2 1/2SM -SN BR OVC021 M02/M04 A2991 RMK AO2 PK WND 11026/0136 P0000 FZRANO $
0337725165947372024010701517+43533-072950FM-15+0240KRUT V0201205N01035011585MN0048285N5-00205-00405999999ADDAA101000021AU110030015AU200001015AW1105AW2715GA1045+006405999GA2085+011585999GD12991+0064059GD24991+0115859GE19AGL   +99999+99999GF199999999999006401999999MA1101255098405MW1715OC101395OD149901391120REMMET12701/06/24 20:51:01 METAR KRUT 070151Z 12020G27KT 3SM -SN BR SCT021 OVC038 M02/M04 A2990 RMK AO2 PK WND 12027/0144 P0000 FZRANO $
0354725165947372024010701567+43533-072950FM-15+0240KRUT V0201105N01035012195MN0064375N5-00225-00395101305ADDAA101000021AU110030015AU200001015AW1105AW2715GA1045+007015999GA2085+012195999GD12991+0070159GD24991+0121959GE19AGL   +99999+99999GF199999999999007011999999MA1101255098405MW1715OC101445OD149901441100REMMET14401/06/24 20:56:01 METAR KRUT 070156Z 11020G28KT 4SM -SN BR SCT023 OVC040 M02/M04 A2990 RMK AO2 PK WND 10028/0155 SLP130 P0000 T10221039 FZRANO $
0321725165947372024010702297+43533-072950FM-15+0240KRUT V0201205N00935007925MN0040235N5-00205-00505999999ADDAA101000021AU110030015AW1715GA1075+007925999GA2085+010065999GD13991+0079259GD24991+0100659GE19AGL   +99999+99999GF199999999999007921999999MA1101155098305MW1715OC101495OD149901491100REMMET12801/06/24 21:29:01 METAR KRUT 070229Z 12018G29KT 2 1/2SM -SN BKN026 OVC033 M02/M05 A2987 RMK AO2 PK WND 10029/0220 P0000 FZRANO $
0372725165947372024010702567+43533-072950FM-15+0240KRUT V0201105N00935007325MN0032195N5-00285-00445101115ADDAA101000021AA203000021AU110030015AU200001015AW1105AW2715GA1085+007325999GD14991+0073259GE19AGL   +99999+99999GF199999999999007321999999MA1101085098245MD1890439+9999MW1715OC101395OD149901591110REMMET14901/06/24 21:56:01 METAR KRUT 070256Z 11018G27KT 2SM -SN BR OVC024 M03/M04 A2985 RMK AO2 PK WND 11031/0236 SLP111 P0000 60000 T10281044 58043 FZRANO $EQDQ01  00008PRCP03
0303725165947372024010703117+43533-072950FM-15+0240KRUT V0201205N01035006715MN0028165N5-00305-00505999999ADDAA101000021AU110030015AU200001015AW1105AW2715GA1085+006715999GD14991+0067159GE19AGL   +99999+99999GF199999999999006711999999MA1101085098245MW1715OC101805OD149901801100REMMET12401/06/24 22:11:01 METAR KRUT 070311Z 12020G35KT 1 3/4SM -SN BR OVC022 M03/M05 A2985 RMK AO2 PK WND 10035/0309 P0000 FZRANO $
0354725165947372024010703567+43533-072950FM-15+0240KRUT V0201205N01035006105MN0032195N5-00335-00445101075ADDAA101000021AU110030015AU200001015AW1105AW2715GA1075+006105999GA2085+007625999GD13991+0061059GD24991+0076259GE19AGL   +99999+99999GF199999999999006101999999MA1101025098175MW1715OC101295OD149901801100REMMET14401/06/24 22:56:02 METAR KRUT 070356Z 12020G25KT 2SM -SN BR BKN020 OVC025 M03/M04 A2983 RMK AO2 PK WND 10035/0309 SLP107 P0000 T10331044 FZRANO $
0303725165947372024010704407+43533-072950FM-15+0240KRUT V0201205N01035008235MN0024145N5-00305-00505999999ADDAA101000021AU110030015AU200001015AW1105AW2715GA1085+008235999GD14991+0082359GE19AGL   +99999+99999GF199999999999008231999999MA1100915098075MW1715OC101445OD149901491110REMMET12401/06/24 23:40:02 METAR KRUT 070440Z 12020G28KT 1 1/2SM -SN BR OVC027 M03/M05 A2980 RMK AO2 PK WND 11029/0407 P0000 FZRANO $
0352725165947372024010704567+43533-072950FM-15+0240KRUT V0201305N00935008235MN0032195N5-00335-00505100955ADDAA101000021AU110030015AU200001015AW1105AW2715GA1085+008235999GD14991+0082359GE19AGL   +99999+99999GF199999999999008231999999KA1240M-00111KA2240N-00391MA1100915098075MW1715OC101445OD149901491110REMMET14701/06/24 23:56:02 METAR KRUT 070456Z 13018G28KT 2SM -SN BR OVC027 M03/M05 A2980 RMK AO2 PK WND 11029/0407 SLP095 P0000 T10331050 410111039 FZRANO $
0568725165947372024010704596+43533-072950SOD  +0240KRUT V020999999999999999999999999999+99999+99999999999ADDAA124000025AT1AU18SN  5AT2AU13BR  5AX1015245KA1240M-00105KA2240N-00385MG1098859999994OE11240178810099995OE22240102812099995OE33240040299999995REMSOD41424 HR PRECIPITATION (IN):    T WEATHER(CODE):1  24 HR MAX TEMP (F): 3024 HR MIN TEMP (F): 25AVERAGE STATION PRESSURE(D):29.191 PEAK WIND SPEED (MPH): 40 PEAK WIND DIR (DEG):100 PEAK WIND TIME (LST):      FASTEST 2MIN SPEED (MPH): 23FASTEST 2MIN DIR (DEG):120 FASTEST 2MIN TIME (LST):     AVERAGE WIND SPEED (MPH): 9.0 24 HR AVG TEMP (F): 28SKY COVER SR-SS (TENTHS): 1HEATING DEGREE DAYS: 37 COOLING DEGREE DAYS:  0
0271725165947372024010705227+43533-072950FM-15+0240KRUT V0201205N00515007625MN0028165N5-00305-00505999999ADDAA101000021AU110030015AU200001015AW1105AW2715GA1085+007625999GD14991+0076259GE19AGL   +99999+99999GF199999999999007621999999MA1100955098105MW1715OC100985REMMET10601/07/24 00:22:02 METAR KRUT 070522Z 12010G19KT 1 3/4SM -SN BR OVC025 M03/M05 A2981 RMK AO2 P0000 FZRANO $
0267725165947372024010705347+43533-072950FM-15+0240KRUT V0201205N00725008235MN0032195N5-00305-00505999999ADDAA101000021AU110030015AU200001015AW1105AW2715GA1085+008235999GD14991+0082359GE19AGL   +99999+99999GF199999999999008231999999MA1100885098045MW1715OC101035REMMET10201/07/24 00:34:02 METAR KRUT 070534Z 12014G20KT 2SM -SN BR OVC027 M03/M05 A2979 RMK AO2 P0000 FZRANO $
0305725165947372024010705537+43533-072950FM-15+0240KRUT V0201305N00575009455MN0064375N5-00305-00505999999ADDAA101000021AU110030015AU200001015AW1105AW2715GA1075+009455999GA2085+018295999GD13991+0094559GD24991+0182959GE19AGL   +99999+99999GF199999999999009451999999MA1100885098045MW1715OC100935REMMET10901/07/24 00:53:02 METAR KRUT 070553Z 13011G18KT 4SM -SN BR BKN031 OVC060 M03/M05 A2979 RMK AO2 P0000 FZRANO $
0416725165947372024010705567+43533-072950FM-15+0240KRUT V0201305N00625009455MN0064375N5-00335-00505100935ADDAA101000021AA206000021AU110030015AU200001015AW1105AW2715GA1075+009455999GA2085+018295999GD13991+0094559GD24991+0182959GE19AGL   +99999+99999GF199999999999009451999999KA1060M-00111KA2060N-00331MA1100885098045MD1590149+9999MW1715OC100885REMMET15001/07/24 00:56:02 METAR KRUT 070556Z 13012G17KT 4SM -SN BR BKN031 OVC060 M03/M05 A2979 RMK AO2 SLP093 P0000 60000 T10331050 11011 21033 55014 FZRANO $EQDQ01  00008PRCP06
0340725165947372024010706567+43533-072950FM-15+0240KRUT V0201305N00825018295MN0144845N5-00335-00565100945ADDAA101000021AU110030015AW1715GA1025+008235999GA2075+018295999GA3085+025915999GD11991+0082359GD23991+0182959GD34991+0259159GE19AGL   +99999+99999GF199999999999008231999999MA1100885098045MW1715OC101185REMMET13001/07/24 01:56:02 METAR KRUT 070656Z 13016G23KT 9SM -SN FEW027 BKN060 OVC085 M03/M06 A2979 RMK AO2 SLP094 P0000 T10331056 FZRANO $
0355725165947372024010707417+43533-072950FM-15+0240KRUT V0201305N00675007015MN0040235V5-00305-00605999999ADDAA101000021AU110030015AU200001015AW1105AW2715GA1075+007015999GA2075+015245999GA3085+022865999GD13991+0070159GD23991+0152459GD34991+0228659GE19AGL   +99999+99999GF199999999999007011999999MA1100885098045MW1715OC101085REMMET12801/07/24 02:41:02 METAR KRUT 070741Z 13013G21KT 2 1/2SM -SN BR BKN023 BKN050 OVC075 M03/M06 A2979 RMK AO2 VIS 2V4 P0000 FZRANO $
0326725165947372024010707567+43533-072950FM-15+0240KRUT V0201405N00725005495MN0024145N5-00395-00565100885ADDAA101000021AU110030015AU200001015AW1105AW2715GA1075+005495999GA2085+007015999GD13991+0054959GD24991+0070159GE19AGL   +99999+99999GF199999999999005491999999MA1100855098015MW1715OC101035REMMET13001/07/24 02:56:02 METAR KRUT 070756Z 14014G20KT 1 1/2SM -SN BR BKN018 OVC023 M04/M06 A2978 RMK AO2 SLP088 P0000 T10391056 FZRANO $
0267725165947372024010708147+43533-072950FM-15+0240KRUT V0201305N00775004885MN0016095N5-00405-00605999999ADDAA101000021AU110030015AU200001015AW1105AW2715GA1085+004885999GD14991+0048859GE19AGL   +99999+99999GF199999999999004881999999MA1100815097975MW1715OC101085REMMET10201/07/24 03:14:02 METAR KRUT 070814Z 13015G21KT 1SM -SN BR OVC016 M04/M06 A2977 RMK AO2 P0000 FZRANO $
0271725165947372024010708307+43533-072950FM-15+0240KRUT V0201305N00625004885MN0024145N5-00405-00505999999ADDAA101000021AU110030015AU200001015AW1105AW2715GA1085+004885999GD14991+0048859GE19AGL   +99999+99999GF199999999999004881999999MA1100815097975MW1715OC100985REMMET10601/07/24 03:30:02 METAR KRUT 070830Z 13012G19KT 1 1/2SM -SN BR OVC016 M04/M05 A2977 RMK AO2 P0000 FZRANO $
0305725165947372024010708427+43533-072950FM-15+0240KRUT V0201305N00625004885MN0048285N5-00405-00505999999ADDAA101000021AU110030015AU200001015AW1105AW2715GA1075+004885999GA2085+016765999GD13991+0048859GD24991+0167659GE19AGL   +99999+99999GF199999999999004881999999MA1100815097975MW1715OC100985REMMET10901/07/24 03:42:02 METAR KRUT 070842Z 13012G19KT 3SM -SN BR BKN016 OVC055 M04/M05 A2977 RMK AO2 P0000 FZRANO $
0435725165947372024010708567+43533-072950FM-15+0240KRUT V0201305N00825018295MN0112655N5-00395-00505100755ADDAA101000021AA203000021AU110030015AW1715GA1045+005495999GA2075+018295999GA3085+036585999GD12991+0054959GD23991+0182959GD34991+0365859GE19AGL   +99999+99999GF199999999999005491999999MA1100715097875MD1890179+9999MW1715OC101395OD149901391130REMMET16701/07/24 03:56:02 METAR KRUT 070856Z 13016G27KT 7SM -SN SCT018 BKN060 OVC120 M04/M05 A2974 RMK AO2 PK WND 13027/0855 PRESFR SLP075 P0000 60000 T10391050 58017 FZRANO $EQDQ01  00008PRCP03
0366725165947372024010709567+43533-072950FM-15+0240KRUT V0201205N01135006715MN0040235V5-00395-00565100655ADDAA101000021AU110030015AU200001015AW1105AW2715GA1075+006715999GA2085+018295999GD13991+0067159GD24991+0182959GE19AGL   +99999+99999GF199999999999006711999999MA1100615097775MW1715OC101495OD149901541110REMMET15601/07/24 04:56:02 METAR KRUT 070956Z 12022G29KT 2 1/2SM -SN BR BKN022 OVC060 M04/M06 A2971 RMK AO2 PK WND 11030/0940 VIS 2V4 SLP065 P0000 T10391056 FZRANO $
0256725165947372024010710367+43533-072950FM-15+0240KRUT V0201205N00935007925MN0048285N5-00405-00605999999ADDAA101000021AU110030015AU200001015AW1105AW2715GA1085+007925999GD14991+0079259GE19AGL   +99999+99999GF199999999999007921999999MA1100645097815MW1715REMMET09901/07/24 05:36:02 METAR KRUT 071036Z 12018KT 3SM -SN BR OVC026 M04/M06 A2972 RMK AO2 P0000 FZRANO $
0354725165947372024010710567+43533-072950FM-15+0240KRUT V0201205N00935006105MN0048285N5-00395-00565100685ADDAA101000021AU110030015AU200001015AW1105AW2715GA1075+006105999GA2085+007925999GD13991+0061059GD24991+0079259GE19AGL   +99999+99999GF199999999999006101999999MA1100645097815MW1715OC101245OD149901331120REMMET14401/07/24 05:56:02 METAR KRUT 071056Z 12018G24KT 3SM -SN BR BKN020 OVC026 M04/M06 A2972 RMK AO2 PK WND 12026/1043 SLP068 P0000 T10391056 FZRANO $
0271725165947372024010711087+43533-072950FM-15+0240KRUT V0201205N00935005495MN0028165N5-00405-00605999999ADDAA101000021AU110030015AU200001015AW1105AW2715GA1085+005495999GD14991+0054959GE19AGL   +99999+99999GF199999999999005491999999MA1100645097815MW1715OC101295REMMET10601/07/24 06:08:02 METAR KRUT 071108Z 12018G25KT 1 3/4SM -SN BR OVC018 M04/M06 A2972 RMK AO2 P0000 FZRANO $
0337725165947372024010711377+43533-072950FM-15+0240KRUT V0201205N00885003665MN0016095N5-00405-00605999999ADDAA101000021AU110030015AU200001015AW1105AW2715GA1075+003665999GA2085+005795999GD13991+0036659GD24991+0057959GE19AGL   +99999+99999GF199999999999003661999999MA1100615097775MW1715OC101135OD149901331120REMMET12701/07/24 06:37:02 METAR KRUT 071137Z 12017G22KT 1SM -SN BR BKN012 OVC019 M04/M06 A2971 RMK AO2 PK WND 12026/1114 P0000 FZRANO $
0303725165947372024010711547+43533-072950FM-15+0240KRUT V0201105N00775003665MN0020125N5-00405-00605999999ADDAA101000021AU110030015AU200001015AW1105AW2715GA1085+003665999GD14991+0036659GE19AGL   +99999+99999GF199999999999003661999999MA1100585097745MW1715OC101085OD149901331120REMMET12401/07/24 06:54:02 METAR KRUT 071154Z 11015G21KT 1 1/4SM -SN BR OVC012 M04/M06 A2970 RMK AO2 PK WND 12026/1114 P0000 FZRANO $
0401725165947372024010711567+43533-072950FM-15+0240KRUT V0201205N00825004275MN0024145N5-00445-00565100615ADDAA101000021AA206000021AU110030015AU200001015AW1105AW2715GA1085+004275999GD14991+0042759GE19AGL   +99999+99999GF199999999999004271999999KA1060M-00331MA1100585097745MD1790089+9999MW1715OC101035OD149901331120REMMET16501/07/24 06:56:02 METAR KRUT 071156Z 12016G20KT 1 1/2SM -SN BR OVC014 M04/M06 A2970 RMK AO2 PK WND 12026/1114 SLP061 P0000 60000 T10441056 11033 21044 57008 FZRANO $EQDQ01  00008PRCP06
0260725165947372024010712177+43533-072950FM-15+0240KRUT V0201105N00515005795MN0028165N5-00405-00605999999ADDAA101000021AU110030015AU200001015AW1105AW2715GA1085+005795999GD14991+0057959GE19AGL   +99999+99999GF199999999999005791999999MA1100585097745MW1715REMMET10301/07/24 07:17:02 METAR KRUT 071217Z 11010KT 1 3/4SM -SN BR OVC019 M04/M06 A2970 RMK AO2 P0000 FZRANO $
0305725165947372024010712297+43533-072950FM-15+0240KRUT V0201205N00625008235MN0032195N5-00405-00605999999ADDAA101000021AU110030015AU200001015AW1105AW2715GA1045+005795999GA2085+008235999GD12991+0057959GD24991+0082359GE19AGL   +99999+99999GF199999999999005791999999MA1100585097745MW1715OC100985REMMET10901/07/24 07:29:02 METAR KRUT 071229Z 12012G19KT 2SM -SN BR SCT019 OVC027 M04/M06 A2970 RMK AO2 P0000 FZRANO $
0305725165947372024010712407+43533-072950FM-15+0240KRUT V0201305N00725014025MN0048285N5-00405-00605999999ADDAA101000021AU110030015AU200001015AW1105AW2715GA1045+008235999GA2085+014025999GD12991+0082359GD24991+0140259GE19AGL   +99999+99999GF199999999999008231999999MA1100585097745MW1715OC100935REMMET10901/07/24 07:40:02 METAR KRUT 071240Z 13014G18KT 3SM -SN BR SCT027 OVC046 M04/M06 A2970 RMK AO2 P0000 FZRANO $
0284725165947372024010712567+43533-072950FM-15+0240KRUT V0201405N00625013725MN0064375N5-00445-00565100635ADDAA101000021AU110030015AU200001015AW1105AW2715GA1085+013725999GD14991+0137259GE19AGL   +99999+99999GF199999999999013721999999MA1100585097745MW1715OC100935REMMET11901/07/24 07:56:02 METAR KRUT 071256Z 14012G18KT 4SM -SN BR OVC045 M04/M06 A2970 RMK AO2 SLP063 P0000 T10441056 FZRANO $
0310725165947372024010713227+43533-072950FM-15+0240KRUT V0201405N00365008235MN0040235V5-00405-00605999999ADDAA101000021AU110030015AU200001015AW1105AW2715GA1075+008235999GA2085+014635999GD13991+0082359GD24991+0146359GE19AGL   +99999+99999GF199999999999008231999999MA1100615097775MW1715REMMET12201/07/24 08:22:02 METAR KRUT 071322Z 14007KT 2 1/2SM -SN BR BKN027 OVC048 M04/M06 A2971 RMK AO2 VIS 1 1/2V5 P0000 FZRANO $
0334725165947372024010713567+43533-072950FM-15+0240KRUT V0201405N00415007625MN0040235V5-00395-00565100615ADDAA101000021AU110030015AU200001015AW1105AW2715GA1075+007625999GA2085+009145999GD13991+0076259GD24991+0091459GE19AGL   +99999+99999GF199999999999007621999999MA1100585097745MW1715OC100775REMMET13801/07/24 08:56:02 METAR KRUT 071356Z 14008G15KT 2 1/2SM -SN BR BKN025 OVC030 M04/M06 A2970 RMK AO2 VIS 2V5 SLP061 P0000 T10391056 FZRANO $
0272725165947372024010714207+43533-072950FM-15+0240KRUT V0201505V00415007015MN0024145V5-00405-00505999999ADDAA101000021AU110030015AU200001015AW1105AW2715GA1085+007015999GD14991+0070159GE19AGL   +99999+99999GF199999999999007011999999MA1100545097715MW1715REMMET11501/07/24 09:20:02 METAR KRUT 071420Z 15008KT 1 1/2SM -SN BR OVC023 M04/M05 A2969 RMK AO2 VIS 1 1/4V2 P0000 FZRANO $
0294725165947372024010714547+43533-072950FM-15+0240KRUT V0201405V00365008235MN0048285N5-00405-00505999999ADDAA101000021AU110030015AU200001015AW1105AW2715GA1045+006405999GA2085+008235999GD12991+0064059GD24991+0082359GE19AGL   +99999+99999GF199999999999006401999999MA1100515097675MW1715REMMET10601/07/24 09:54:02 METAR KRUT 071454Z 14007KT 3SM -SN BR SCT021 OVC027 M04/M05 A2968 RMK AO2 P0000 FZRANO $
0367725165947372024010714567+43533-072950FM-15+0240KRUT V0209999V00315008235MN0064375N5-00395-00505100565ADDAA101000021AA203000021AU110030015AU200001015AW1105AW2715GA1045+006405999GA2085+008235999GD12991+0064059GD24991+0082359GE19AGL   +99999+99999GF199999999999006401999999MA1100515097675MD1690079+9999MW1715REMMET13501/07/24 09:56:02 METAR KRUT 071456Z VRB06KT 4SM -SN BR SCT021 OVC027 M04/M05 A2968 RMK AO2 SLP056 P0000 60000 T10391050 56007 FZRANO $EQDQ01  00008PRCP03
0323725165947372024010715357+43533-072950FM-15+0240KRUT V0201305N00625014635MN0112655N5-00305-00605999999ADDAA101000021AU110030015AW1715GA1025+008845999GA2075+014635999GA3085+018295999GD11991+0088459GD23991+0146359GD34991+0182959GE19AGL   +99999+99999GF199999999999008841999999MA1100475097645MW1715OC100885REMMET11301/07/24 10:35:02 METAR KRUT 071535Z 13012G17KT 7SM -SN FEW029 BKN048 OVC060 M03/M06 A2967 RMK AO2 P0000 FZRANO $
0365725165947372024010715567+43533-072950FM-15+0240KRUT V0201305N00625010675MN0040235V5-00395-00565100525ADDAA101000021AU110030015AU200001015AW1105AW2715GA1025+009145999GA2075+010675999GA3085+018295999GD11991+0091459GD23991+0106759GD34991+0182959GE19AGL   +99999+99999GF199999999999009141999999MA1100475097645MW1715REMMET14601/07/24 10:56:02 METAR KRUT 071556Z 13012KT 2 1/2SM -SN BR FEW030 BKN035 OVC060 M04/M06 A2967 RMK AO2 VIS 1 3/4V5 SLP052 P0000 T10391056 FZRANO $
0347725165947372024010716067+43533-072950FM-15+0240KRUT V0201205N00415006105MN0024145N5-00405-00605999999ADDAA101000021AU110030015AU200001015AW1105AW2715GA1075+006105999GA2075+009145999GA3085+013725999GD13991+0061059GD23991+0091459GD34991+0137259GE19AGL   +99999+99999GF199999999999006101999999MA1100475097645MW1715OC100775REMMET12001/07/24 11:06:02 METAR KRUT 071606Z 12008G15KT 1 1/2SM -SN BR BKN020 BKN030 OVC045 M04/M06 A2967 RMK AO2 P0000 FZRANO $
0294725165947372024010716267+43533-072950FM-15+0240KRUT V0209999V00155003965MN0016095N5-00405-00605999999ADDAA101000021AU110030015AU200001015AW1105AW2715GA1075+003965999GA2085+005795999GD13991+0039659GD24991+0057959GE19AGL   +99999+99999GF199999999999003961999999MA1100515097675MW1715REMMET10601/07/24 11:26:02 METAR KRUT 071626Z VRB03KT 1SM -SN BR BKN013 OVC019 M04/M06 A2968 RMK AO2 P0000 FZRANO $
0260725165947372024010716377+43533-072950FM-15+0240KRUT V0201305N00155003965MN0008055N5-00405-00605999999ADDAA101000021AU110030015AU208002015AW1355AW2715GA1085+003965999GD14991+0039659GE19AGL   +99999+99999GF199999999999003961999999MA1100515097675MW1715REMMET10301/07/24 11:37:02 METAR KRUT 071637Z 13003KT 1/2SM -SN FZFG OVC013 M04/M06 A2968 RMK AO2 P0000 FZRANO $
0288725165947372024010716567+43533-072950FM-15+0240KRUT V0201105N00215002445MN0004025N5-00395-00565100525ADDAA101000021AU120030015AU208002015AW1355AW2725GA1085+002445999GD14991+0024451GE19AGL   +99999+99999GF199999999999002441999999MA1100475097645MW1735REMMET13101/07/24 11:56:02 METAR KRUT 071656Z 11004KT 1/4SM SN FZFG OVC008 M04/M06 A2967 RMK AO2 CIG 007V011 SLP052 P0000 T10391056 FZRANO $
0370725165947372024010717567+43533-072950FM-15+0240KRUT V0201305N00215002445MN0008055N5-00335-00505100475ADDAA101000395AA206000391AU120030015AU208002015AW1355AW2725GA1085+002445999GD14991+0024459GE19AGL   +99999+99999GF199999999999002441999999KA1060M-00331KA2060N-00441MA1100445097615MD1890089+9999MW1735REMMET14301/07/24 12:56:02 METAR KRUT 071756Z 13004KT 1/2SM SN FZFG OVC008 M03/M05 A2966 RMK AO2 SLP047 P0001 60001 T10331050 11033 21044 58008 FZRANO $EQDQ01  00028PRCP06
0259725165947372024010718237+43533-072950FM-15+0240KRUT V0201605N00215003055MN0008055N5-00305-00405999999ADDAA101000021AU120030015AU208002015AW1355AW2725GA1085+003055999GD14991+0030559GE19AGL   +99999+99999GF199999999999003051999999MA1100445097615MW1735REMMET10201/07/24 13:23:02 METAR KRUT 071823Z 16004KT 1/2SM SN FZFG OVC010 M03/M04 A2966 RMK AO2 P0000 FZRANO $
0258725165947372024010718357+43533-072950FM-15+0240KRUT V0201605N00215003665MN0012075N5-00305-00405999999ADDAA101000021AU110030015AU200001015AW1105AW2715GA1085+003665999GD14991+0036659GE19AGL   +99999+99999GF199999999999003661999999MA1100445097615MW1715REMMET10101/07/24 13:35:02 METAR KRUT 071835Z 16004KT 3/4SM -SN BR OVC012 M03/M04 A2966 RMK AO2 P0000 FZRANO $
0336725165947372024010718407+43533-072950FM-15+0240KRUT V0201705N00155003665MN0020125N5-00305-00405999999ADDAA101000021AU110030015AU200001015AW1105AW2715GA1075+003665999GA2075+007325999GA3085+008845999GD13991+0036659GD23991+0073259GD34991+0088459GE19AGL   +99999+99999GF199999999999003661999999MA1100445097615MW1715REMMET11701/07/24 13:40:02 METAR KRUT 071840Z 17003KT 1 1/4SM -SN BR BKN012 BKN024 OVC029 M03/M04 A2966 RMK AO2 P0000 FZRANO $
0332725165947372024010718497+43533-072950FM-15+0240KRUT V0209999C00005009455MN0032195N5-00305-00405999999ADDAA101000021AU110030015AU200001015AW1105AW2715GA1045+003665999GA2045+007325999GA3085+009455999GD12991+0036659GD22991+0073259GD34991+0094559GE19AGL   +99999+99999GF199999999999003661999999MA1100445097615MW1715REMMET11301/07/24 13:49:02 METAR KRUT 071849Z 00000KT 2SM -SN BR SCT012 SCT024 OVC031 M03/M04 A2966 RMK AO2 P0000 FZRANO $
0353725165947372024010718567+43533-072950FM-15+0240KRUT V0209999C00005009755MN0040235N5-00285-00395100485ADDAA101000021AU110030015AU200001015AW1105AW2715GA1025+004275999GA2075+009755999GA3085+011895999GD11991+0042759GD23991+0097559GD34991+0118959GE19AGL   +99999+99999GF199999999999004271999999MA1100445097615MW1715REMMET13401/07/24 13:56:02 METAR KRUT 071856Z 00000KT 2 1/2SM -SN BR FEW014 BKN032 OVC039 M03/M04 A2966 RMK AO2 SLP048 P0000 T10281039 FZRANO $
0294725165947372024010719117+43533-072950FM-15+0240KRUT V0209999C00005011285MN0048285N5-00305-00405999999ADDAA101000021AU110030015AU200001015AW1105AW2715GA1025+008845999GA2085+011285999GD11991+0088459GD24991+0112859GE19AGL   +99999+99999GF199999999999008841999999MA1100445097615MW1715REMMET10601/07/24 14:11:02 METAR KRUT 071911Z 00000KT 3SM -SN BR FEW029 OVC037 M03/M04 A2966 RMK AO2 P0000 FZRANO $
0306725165947372024010719317+43533-072950FM-15+0240KRUT V0203505N00155011285MN0032195V5-00305-00405999999ADDAA101000395AU110030015AU200001015AW1105AW2715GA1025+002135999GA2085+011285999GD11991+0021359GD24991+0112859GE19AGL   +99999+99999GF199999999999002131999999MA1100475097645MW1715REMMET11801/07/24 14:31:02 METAR KRUT 071931Z 35003KT 2SM -SN BR FEW007 OVC037 M03/M04 A2967 RMK AO2 VIS 1 1/2V4 P0001 FZRANO $
0336725165947372024010719387+43533-072950FM-15+0240KRUT V0200105N00155008845MN0024145N5-00305-00405999999ADDAA101000395AU110030015AU200001015AW1105AW2715GA1045+002135999GA2075+008845999GA3085+011285999GD12991+0021359GD23991+0088459GD34991+0112859GE19AGL   +99999+99999GF199999999999002131999999MA1100475097645MW1715REMMET11701/07/24 14:38:02 METAR KRUT 071938Z 01003KT 1 1/2SM -SN BR SCT007 BKN029 OVC037 M03/M04 A2967 RMK AO2 P0001 FZRANO $
0351725165947372024010719567+43533-072950FM-15+0240KRUT V0209999C00005006715MN0012075N5-00285-00445100535ADDAA101000595AU110030015AU200001015AW1105AW2715GA1025+002135999GA2075+006715999GA3085+008235999GD11991+0021359GD23991+0067159GD34991+0082359GE19AGL   +99999+99999GF199999999999002131999999MA1100475097645MW1715REMMET13201/07/24 14:56:02 METAR KRUT 071956Z 00000KT 3/4SM -SN BR FEW007 BKN022 OVC027 M03/M04 A2967 RMK AO2 SLP053 P0002 T10281044 FZRANO $
0298725165947372024010720337+43533-072950FM-15+0240KRUT V0209999C00005005795MN0020125N5-00305-00405999999ADDAA101000395AU110030015AU200001015AW1105AW2715GA1075+005795999GA2085+007625999GD13991+0057959GD24991+0076259GE19AGL   +99999+99999GF199999999999005791999999MA1100515097675MW1715REMMET11001/07/24 15:33:02 METAR KRUT 072033Z 00000KT 1 1/4SM -SN BR BKN019 OVC025 M03/M04 A2968 RMK AO2 P0001 FZRANO $
0367725165947372024010720567+43533-072950FM-15+0240KRUT V0209999C00005007015MN0032195N5-00335-00445100595ADDAA101000595AA203001091AU110030015AU200001015AW1105AW2715GA1025+004275999GA2085+007015999GD11991+0042759GD24991+0070159GE19AGL   +99999+99999GF199999999999004271999999MA1100545097715MD1390129+9999MW1715REMMET13501/07/24 15:56:02 METAR KRUT 072056Z 00000KT 2SM -SN BR FEW014 OVC023 M03/M04 A2969 RMK AO2 SLP059 P0002 60004 T10331044 53012 FZRANO $EQDQ01  00108PRCP03
0332725165947372024010721087+43533-072950FM-15+0240KRUT V0209999C00005007625MN0080475N5-00305-00505999999ADDAA101000395AU110030015AU200001015AW1105AW2715GA1025+001835999GA2045+003055999GA3085+007625999GD11991+0018359GD22991+0030559GD34991+0076259GE19AGL   +99999+99999GF199999999999001831999999MA1100585097745MW1715REMMET11301/07/24 16:08:02 METAR KRUT 072108Z 00000KT 5SM -SN BR FEW006 SCT010 OVC025 M03/M05 A2970 RMK AO2 P0001 FZRANO $
0324725165947372024010721177+43533-072950FM-15+0240KRUT V0209999C00005001835MN0112655N5-00405-00505999999ADDAA101000395AU110030015AW1715GA1075+001835999GA2075+005495999GA3085+007625999GD13991+0018351GD23991+0054959GD34991+0076259GE19AGL   +99999+99999GF199999999999001831999999MA1100585097745MW1715REMMET12201/07/24 16:17:02 METAR KRUT 072117Z 00000KT 7SM -SN BKN006 BKN018 OVC025 M04/M05 A2970 RMK AO2 CIG 005V011 P0001 FZRANO $
0274725165947372024010721377+43533-072950FM-15+0240KRUT V0209999C00005004575MN0144845N5-00405-00605999999ADDAA101000595AU110030015AW1715GA1045+001835999GA2085+004575999GD12991+0018359GD24991+0045759GE19AGL   +99999+99999GF199999999999001831999999MA1100615097775MW1715REMMET10301/07/24 16:37:02 METAR KRUT 072137Z 00000KT 9SM -SN SCT006 OVC015 M04/M06 A2971 RMK AO2 P0002 FZRANO $
0271725165947372024010721567+43533-072950FM-15+0240KRUT V0209999C00005004575MN0160935N5-00445-00565100665ADDAA101000895AU110030015AW1715GA1085+004575999GD14991+0045759GE19AGL   +99999+99999GF199999999999004571999999MA1100615097775MW1715REMMET13101/07/24 16:56:02 METAR KRUT 072156Z 00000KT 10SM -SN OVC015 M04/M06 A2971 RMK AO2 UPB46E53SNE46B53 SLP066 P0003 T10441056 FZRANO $
0246725165947372024010722217+43533-072950FM-15+0240KRUT V0209999C00005003965MN0144845N5-00405-00605999999ADDAA101000021AU120090015AW1401AW2415GA1085+003965999GD14991+0039659GE19AGL   +99999+99999GF199999999999003961999999MA1100645097815REMMET10601/07/24 17:21:02 METAR KRUT 072221Z 00000KT 9SM UP OVC013 M04/M06 A2972 RMK AO2 UPB20SNE20 P0000 FZRANO $
0224725165947372024010722507+43533-072950FM-15+0240KRUT V0209999C00005004575MN0160935N5-00405-00605999999ADDAA101000395GA1085+004575999GD14991+0045759GE19AGL   +99999+99999GF199999999999004571999999MA1100715097875REMMET10701/07/24 17:50:02 METAR KRUT 072250Z 00000KT 10SM OVC015 M04/M06 A2974 RMK AO2 UPB20E41SNE20 P0001 FZRANO $
0241725165947372024010722567+43533-072950FM-15+0240KRUT V0209999C00005003965MN0160935N5-00445-00565100775ADDAA101000395GA1085+003965999GD14991+0039659GE19AGL   +99999+99999GF199999999999003961999999MA1100715097875REMMET12401/07/24 17:56:02 METAR KRUT 072256Z 00000KT 10SM OVC013 M04/M06 A2974 RMK AO2 UPB20E41SNE20 SLP077 P0001 T10441056 FZRANO $
0391725165947372024010723567+43533-072950FM-15+0240KRUT V0209999C00005014945MN0144845N5-00445-00565100855ADDAA101000021AA206002091AU110030015AW1715GA1045+003665999GA2085+014945999GD12991+0036659GD24991+0149459GE19AGL   +99999+99999GF199999999999003661999999KA1060M-00281KA2060N-00441MA1100815097975MD1190199+9999MW1715REMMET15001/07/24 18:56:02 METAR KRUT 072356Z 00000KT 9SM -SN SCT012 OVC049 M04/M06 A2977 RMK AO2 SNB36 SLP085 P0000 60008 T10441056 11028 21044 51019 FZRANO $EQDQ01  00208PRCP06
0366725165947372024010800567+43533-072950FM-15+0240KRUT V0209999C00005013115MN0096565N5-00505-00565100955ADDAA101000021AU110030015AU200001015AW1105AW2715GA1025+010065999GA2075+013115999GA3085+014945999GD11991+0100659GD23991+0131159GD34991+0149459GE19AGL   +99999+99999GF199999999999010061999999MA1100915098075MW1715REMMET14701/07/24 19:56:01 METAR KRUT 080056Z 00000KT 6SM -SN BR FEW033 BKN043 OVC049 M05/M06 A2980 RMK AO2 UPB30E35SNE30B35 SLP095 P0000 T10501056 FZRANO $
0273725165947372024010801567+43533-072950FM-15+0240KRUT V0209999C00005010975MN0096565N5-00505-00615101045ADDAA101000021AU110030015AU200001015AW1105AW2715GA1085+010975999GD14991+0109759GE19AGL   +99999+99999GF199999999999010971999999MA1100985098145MW1715REMMET11601/07/24 20:56:01 METAR KRUT 080156Z 00000KT 6SM -SN BR OVC036 M05/M06 A2982 RMK AO2 SLP104 P0000 T10501061 FZRANO $
0306725165947372024010802197+43533-072950FM-15+0240KRUT V0209999C00005007925MN0040235V5-00505-00605999999ADDAA101000021AU110030015AU200001015AW1105AW2715GA1075+007925999GA2085+010065999GD13991+0079259GD24991+0100659GE19AGL   +99999+99999GF199999999999007921999999MA1101025098175MW1715REMMET11801/07/24 21:19:01 METAR KRUT 080219Z 00000KT 2 1/2SM -SN BR BKN026 OVC033 M05/M06 A2983 RMK AO2 VIS 2V5 P0000 FZRANO $
0256725165947372024010802427+43533-072950FM-15+0240KRUT V0209999C00005007925MN0096565N5-00505-00605999999ADDAA101000021AU110030015AU200001015AW1105AW2715GA1085+007925999GD14991+0079259GE19AGL   +99999+99999GF199999999999007921999999MA1101055098205MW1715REMMET09901/07/24 21:42:01 METAR KRUT 080242Z 00000KT 6SM -SN BR OVC026 M05/M06 A2984 RMK AO2 P0000 FZRANO $
0309725165947372024010802567+43533-072950FM-15+0240KRUT V0209999C00005007325MN0128755N5-00505-00615101125ADDAA101000021AA203000021AU110030015AW1715GA1085+007325999GD14991+0073259GE19AGL   +99999+99999GF199999999999007321999999MA1101085098245MD1190269+9999MW1715REMMET12501/07/24 21:56:01 METAR KRUT 080256Z 00000KT 8SM -SN OVC024 M05/M06 A2985 RMK AO2 SLP112 P0000 60000 T10501061 51026 FZRANO $EQDQ01  00008PRCP03
0253725165947372024010803567+43533-072950FM-15+0240KRUT V0209999C00005005495MN0144845N5-00505-00615101215ADDAA101000021AU110030015AW1715GA1085+005495999GD14991+0054959GE19AGL   +99999+99999GF199999999999005491999999MA1101155098305MW1715REMMET11301/07/24 22:56:02 METAR KRUT 080356Z 00000KT 9SM -SN OVC018 M05/M06 A2987 RMK AO2 SLP121 P0000 T10501061 FZRANO $
0236725165947372024010804397+43533-072950FM-15+0240KRUT V0209999C00005004275MN0128755N5-00505-00605999999ADDAA101000021AU110030015AW1715GA1085+004275999GD14991+0042759GE19AGL   +99999+99999GF199999999999004271999999MA1101225098375MW1715REMMET09601/07/24 23:39:02 METAR KRUT 080439Z 00000KT 8SM -SN OVC014 M05/M06 A2989 RMK AO2 P0000 FZRANO $
0289725165947372024010804567+43533-072950FM-15+0240KRUT V0209999C00005004275MN0144845N5-00505-00565101325ADDAA101000021AU110030015AW1715GA1085+004275999GD14991+0042759GE19AGL   +99999+99999GF199999999999004271999999KA1240M-00281KA2240N-00501MA1101255098405MW1715REMMET12301/07/24 23:56:02 METAR KRUT 080456Z 00000KT 9SM -SN OVC014 M05/M06 A2990 RMK AO2 SLP132 P0000 T10501056 410281050 FZRANO $
0649725165947372024010804596+43533-072950SOD  +0240KRUT V020999999999999999999999999999+99999+99999999999ADDAA124002395AT1AU18SN  5AT2AU22FZFG5AT3AU13BR  5AT4AU19UP  5AT5AW01FG  5AX1016246AX2026246KA1240M-00275KA2240N-00495MG1097849999994OE11240156511099995OE22240111812099995OE33240038099999995REMSOD41524 HR PRECIPITATION (IN): 0.09 WEATHER(CODE):12  24 HR MAX TEMP (F): 2724 HR MIN TEMP (F): 23AVERAGE STATION PRESSURE(D):28.892 PEAK WIND SPEED (MPH): 35 PEAK WIND DIR (DEG):110 PEAK WIND TIME (LST):      FASTEST 2MIN SPEED (MPH): 25FASTEST 2MIN DIR (DEG):120 FASTEST 2MIN TIME (LST):     AVERAGE WIND SPEED (MPH): 8.5 24 HR AVG TEMP (F): 25SKY COVER SR-SS (TENTHS): 1HEATING DEGREE DAYS: 40 COOLING DEGREE DAYS:  0EQDR01    127AXW090R02    127AXW090
0357725165947372024010805567+43533-072950FM-15+0240KRUT V0203405N00265003665MN0160935N5-00445-00505101445ADDAA101000021AA206000021AU110030015AW1715GA1085+003665999GD14991+0036659GE19AGL   +99999+99999GF199999999999003661999999KA1060M-00441KA2060N-00501MA1101395098545MD1390309+9999MW1715REMMET14701/08/24 00:56:02 METAR KRUT 080556Z 34005KT 10SM -SN OVC012 M04/M05 A2994 RMK AO2 SNE27B52 SLP144 P0000 60000 T10441050 11044 21050 53030 FZRANO $EQDQ01  00008PRCP06
0274725165947372024010806177+43533-072950FM-15+0240KRUT V0203405N00215001835MN0144845N5-00405-00505999999ADDAA101000021AU110030015AW1715GA1075+001835999GA2085+003055999GD13991+0018359GD24991+0030559GE19AGL   +99999+99999GF199999999999001831999999MA1101425098575MW1715REMMET10301/08/24 01:17:02 METAR KRUT 080617Z 34004KT 9SM -SN BKN006 OVC010 M04/M05 A2995 RMK AO2 P0000 FZRANO $
0274725165947372024010806537+43533-072950FM-15+0240KRUT V0203305N00465003665MN0144845N5-00405-00405999999ADDAA101000021AU110030015AW1715GA1025+001835999GA2085+003665999GD11991+0018359GD24991+0036659GE19AGL   +99999+99999GF199999999999001831999999MA1101525098675MW1715REMMET10301/08/24 01:53:02 METAR KRUT 080653Z 33009KT 9SM -SN FEW006 OVC012 M04/M04 A2998 RMK AO2 P0000 FZRANO $
0291725165947372024010806567+43533-072950FM-15+0240KRUT V0203305N00465003665MN0144845N5-00445-00445101585ADDAA101000021AU110030015AW1715GA1025+002135999GA2085+003665999GD11991+0021359GD24991+0036659GE19AGL   +99999+99999GF199999999999002131999999MA1101525098675MW1715REMMET12001/08/24 01:56:02 METAR KRUT 080656Z 33009KT 9SM -SN FEW007 OVC012 M04/M04 A2998 RMK AO2 SLP158 P0000 T10441044 FZRANO $
0236725165947372024010807437+43533-072950FM-15+0240KRUT V0203205N00365004885MN0144845N5-00405-00505999999ADDAA101000021AU110030015AW1715GA1085+004885999GD14991+0048859GE19AGL   +99999+99999GF199999999999004881999999MA1101665098805MW1715REMMET09601/08/24 02:43:02 METAR KRUT 080743Z 32007KT 9SM -SN OVC016 M04/M05 A3002 RMK AO2 P0000 FZRANO $
0253725165947372024010807567+43533-072950FM-15+0240KRUT V0203205N00415004885MN0144845N5-00445-00505101745ADDAA101000021AU110030015AW1715GA1085+004885999GD14991+0048859GE19AGL   +99999+99999GF199999999999004881999999MA1101695098835MW1715REMMET11301/08/24 02:56:02 METAR KRUT 080756Z 32008KT 9SM -SN OVC016 M04/M05 A3003 RMK AO2 SLP174 P0000 T10441050 FZRANO $
0236725165947372024010808527+43533-072950FM-15+0240KRUT V0203105N00265004275MN0144845N5-00505-00505999999ADDAA101000021AU110030015AW1715GA1085+004275999GD14991+0042759GE19AGL   +99999+99999GF199999999999004271999999MA1101835098975MW1715REMMET09601/08/24 03:52:02 METAR KRUT 080852Z 31005KT 9SM -SN OVC014 M05/M05 A3007 RMK AO2 P0000 FZRANO $
0309725165947372024010808567+43533-072950FM-15+0240KRUT V0203205N00265004275MN0144845N5-00505-00565101875ADDAA101000021AA203000021AU110030015AW1715GA1085+004275999GD14991+0042759GE19AGL   +99999+99999GF199999999999004271999999MA1101835098975MD1090289+9999MW1715REMMET12501/08/24 03:56:02 METAR KRUT 080856Z 32005KT 9SM -SN OVC014 M05/M06 A3007 RMK AO2 SLP187 P0000 60000 T10501056 50028 FZRANO $EQDQ01  00008PRCP03
0253725165947372024010809567+43533-072950FM-15+0240KRUT V0203305N00315004275MN0144845N5-00505-00565101985ADDAA101000021AU110030015AW1715GA1085+004275999GD14991+0042759GE19AGL   +99999+99999GF199999999999004271999999MA1101935099065MW1715REMMET11301/08/24 04:56:02 METAR KRUT 080956Z 33006KT 9SM -SN OVC014 M05/M06 A3010 RMK AO2 SLP198 P0000 T10501056 FZRANO $
0256725165947372024010810127+43533-072950FM-15+0240KRUT V0203105N00315005185MN0160935N5-00505-00605999999ADDAA101000021GA1025+003055999GA2085+005185999GD11991+0030559GD24991+0051859GE19AGL   +99999+99999GF199999999999003051999999MA1101965099105REMMET10801/08/24 05:12:02 METAR KRUT 081012Z 31006KT 10SM FEW010 OVC017 M05/M06 A3011 RMK AO2 SNE0958 P0000 FZRANO $
0264725165947372024010810567+43533-072950FM-15+0240KRUT V0203005N00265005185MN0144845N5-00505-00565102145ADDAA101000021AU110030015AW1715GA1085+005185999GD14991+0051859GE19AGL   +99999+99999GF199999999999005181999999MA1102105099235MW1715REMMET12401/08/24 05:56:02 METAR KRUT 081056Z 30005KT 9SM -SN OVC017 M05/M06 A3015 RMK AO2 SNE0958B18 SLP214 P0000 T10501056 FZRANO $
0380725165947372024010811567+43533-072950FM-15+0240KRUT V0203405N00365006405MN0144845N5-00505-00565102305ADDAA101000021AA206000021AA324002391AU110030015AW1715GA1085+006405999GD14991+0064059GE19AGL   +99999+99999GF199999999999006401999999KA1060M-00391KA2060N-00501MA1102245099365MD1390419+9999MW1715REMMET14301/08/24 06:56:02 METAR KRUT 081156Z 34007KT 9SM -SN OVC021 M05/M06 A3019 RMK AO2 SLP230 P0000 60000 70009 T10501056 11039 21050 53041 FZRANO $EQDQ01  00008PRCP06Q02  00228PRCP24
0253725165947372024010812567+43533-072950FM-15+0240KRUT V0209999C00005005795MN0144845N5-00505-00615102475ADDAA101000021AU110030015AW1715GA1085+005795999GD14991+0057959GE19AGL   +99999+99999GF199999999999005791999999MA1102405099535MW1715REMMET11301/08/24 07:56:02 METAR KRUT 081256Z 00000KT 9SM -SN OVC019 M05/M06 A3024 RMK AO2 SLP247 P0000 T10501061 FZRANO $
