0154726140547422022010100546+44420-072019FM-15+0212K1V4 V02099999999999999999N9999997N5+00285+00175101295ADDAA101000095MA1101225098705REMMET08112/31/21 19:54:03 METAR K1V4 010054Z      KT 03/02 A2989 RMK AO1 SLP129 T00280017EQDR01      7SKY009R02      7GAS009
0154726140547422022010101546+44420-072019FM-15+0212K1V4 V02099999999999999999N9999997N5+00285+00175101295ADDAA101000095MA1101225098705REMMET08112/31/21 20:54:03 METAR K1V4 010154Z      KT 03/02 A2989 RMK AO1 SLP129 T00280017EQDR01      7SKY009R02      7GAS009
0197726140547422022010102546+44420-072019FM-15+0212K1V4 V02099999999999999999N9999997N5+00175+00115101345ADDAA101000395AA203000391MA1101255098735MD1390079+9999REMMET09912/31/21 21:54:03 METAR K1V4 010254Z      KT 02/01 A2990 RMK AO1 SLP134 P0001 60001 T00170011 53007EQDR01      7SKY009R02      7GAS009
0154726140547422022010103546+44420-072019FM-15+0212K1V4 V02099999999999999999N9999997N5+00175+00065101325ADDAA101000095MA1101225098705REMMET08112/31/21 22:54:03 METAR K1V4 010354Z      KT 02/01 A2989 RMK AO1 SLP132 T00170006EQDR01      7SKY009R02      7GAS009
0164726140547422022010104546+44420-072019FM-15+0212K1V4 V02099999999999999999N9999997N5+00115+00065101325ADDAA101000095MA1101255098735REMMET09112/31/21 23:54:03 METAR K1V4 010454Z      KT 01/01 A2990 RMK AO1 SLP132 T00110006 400390000EQDR01      7SKY009R02      7GAS009
0622726140547422022010104596+44420-072019SOD  +0212K1V4 V020999999999999999999999999999+99999+99999999999ADDAA124000896KA1240M+00395KA2240N+00005MG1098684101194OE11249999999999997OE22249999999999997REMSOD50124 HR PRECIPITATION (IN): 0.03 24 HR MAX TEMP (F): 3924 HR MIN TEMP (F): 32AVERAGE STATION PRESSURE:29.140 MINIMUM SEA LEVEL PRESSURE:29.88 TIME OF OCCURRENCE:1624 24 HR AVG TEMP (F): 36DEPART FROM NORMAL: 17  HEATING DEGREE DAYS: 29 COOLING DEGREE DAYS:  0 LATEST DAY MAX TEMP (0700-1900 LST):39  LATEST NIGHT MIN TEMP(1900-0800 LST):32 HOURLY INCREMENTAL PRECIPITATION VALUES (IN):.00 0.00 0.00 0.00 0.00 0.00 0.00 0.00 0.00 0.00 0.00 0.00 0.00 0.00 0.00 0.00 0.02 0.00 0.00 0.00 0.00 0.01 0.00 0.00EQDR01  0.037AAP092
1263726140547422022010104596+44420-072019SOM  +0212K1V4 V020999999999999999999999999999+99999+99999999999ADDAB10069996AD10016591819999999995AE1205085025005AH1005001891122145AH2010002091122205AH3015002591122235AH4020002891122275AH5030003091122355AH6045003691122415AI1060003691122415AI2080004191110075AI3100005191110235AI4120005891110445AI5150006491110575AI6180006991110575KB1744N-06895KB2744M+02335KB3744A-02285KC1N9-01722423995KC2M9+01501799995KD1744H11426KD2744C00005KE1125005295005MH1098884101564MK1104131507295099051122015REMSOM799PCP MTOT:2.75 PCP GT 24HRS:0.65 DATE(S):18-19 DAYS W/PCP >=.01:20 DAYS W/PCP >=.10:8  DAYS W/ PCP >=.50:2 DAYS W/PCP >=1.00:0 MSDP AMTS W/DATE-TIME TAGS:MIN:5 0.07  11/2214 MIN:10 0.08  11/2220 MIN:15 0.10  11/2223 MIN:20 0.11  11/2227 MIN:30 0.12  11/2235 MIN:45 0.14  11/2241 MIN:60 0.14  11/2241 MIN:80 0.16  11/1007 MIN:100 0.20  11/1023 MIN:120 0.23  11/1044 MIN:150 0.25  11/1057 MIN:180 0.27  11/1057 AVG DLY MIN:19.6  AVG DLY MAX:36.2  AVG MLY TMP:27.9  MIN TMP:1  DATE(S):24 23 MAX TMP:59  DATE(S):17 DAYS MAX <=32:1 DAYS MAX >=90:0  DAYS MIN <=32:29 DAYS MIN  <=0:0  AVG STP:29.200 LWST SLP:29.25 DATE/TIME:112201 HGST SLP:30.75 DATE/TIME:150729 HDD MTH TOT:1142 DEP NORM:-2553 SEASON(JUL 1-JUN 30):2603 DEP NORM:-25536 CDD MTH TOT:0 DEP NORM:-2553 SEASON(JAN 1-DEC 31):452 DEP NORM:-25536EQDR01  2.757ABP070R02  11427KDH045
0203726140547422022010105546+44420-072019FM-15+0212K1V4 V02099999999999999999N9999997N5+00115+00065101335ADDAA101000095AA206000391MA1101255098735MD1590019+9999REMMET10501/01/22 00:54:02 METAR K1V4 010554Z      KT 01/01 A2990 RMK AO1 SLP133 60001 T00110006 10028 20011 55001EQDR01      7SKY009R02      7GAS009
0154726140547422022010106546+44420-072019FM-15+0212K1V4 V02099999999999999999N9999997N5+00115+00065101315ADDAA101000095MA1101255098735REMMET08101/01/22 01:54:02 METAR K1V4 010654Z      KT 01/01 A2990 RMK AO1 SLP131 T00110006EQDR01      7SKY009R02      7GAS009
0154726140547422022010107546+44420-072019FM-15+0212K1V4 V02099999999999999999N9999997N5+00115+00065101305ADDAA101000095MA1101225098705REMMET08101/01/22 02:54:02 METAR K1V4 010754Z      KT 01/01 A2989 RMK AO1 SLP130 T00110006EQDR01      7SKY009R02      7GAS009
0174726140547422022010108546+44420-072019FM-15+0212K1V4 V02099999999999999999N9999997N5+00115+00065101195ADDAA101000095MA1101125098605MD1890129+9999REMMET08701/01/22 03:54:02 METAR K1V4 010854Z      KT 01/01 A2986 RMK AO1 SLP119 T00110006 58012EQDR01      7SKY009R02      7GAS009
0154726140547422022010109546+44420-072019FM-15+0212K1V4 V02099999999999999999N9999997N5+00175+00115101185ADDAA101000095MA1101085098575REMMET08101/01/22 04:54:02 METAR K1V4 010954Z      KT 02/01 A2985 RMK AO1 SLP118 T00170011EQDR01      7SKY009R02      7GAS009
0154726140547422022010110546+44420-072019FM-15+0212K1V4 V02099999999999999999N9999997N5+00175+00115101155ADDAA101000095MA1101055098535REMMET08101/01/22 05:54:02 METAR K1V4 011054Z      KT 02/01 A2984 RMK AO1 SLP115 T00170011EQDR01      7SKY009R02      7GAS009
0203726140547422022010111546+44420-072019FM-15+0212K1V4 V02099999999999999999N9999997N5+00175+00115101175ADDAA101000095AA224000891MA1101085098575MD1590049+9999REMMET10501/01/22 06:54:02 METAR K1V4 011154Z      KT 02/01 A2985 RMK AO1 SLP117 70003 T00170011 10017 20011 55004EQDR01      7SKY009R02      7GAS009
0154726140547422022010112546+44420-072019FM-15+0212K1V4 V02099999999999999999N9999997N5+00175+00115101085ADDAA101000095MA1100985098475REMMET08101/01/22 07:54:02 METAR K1V4 011254Z      KT 02/01 A2982 RMK AO1 SLP108 T00170011EQDR01      7SKY009R02      7GAS009
0154726140547422022010113546+44420-072019FM-15+0212K1V4 V02099999999999999999N9999997N5+00175+00115101035ADDAA101000095MA1100955098435REMMET08101/01/22 08:54:02 METAR K1V4 011354Z      KT 02/01 A2981 RMK AO1 SLP103 T00170011EQDR01      7SKY009R02      7GAS009
0174726140547422022010114546+44420-072019FM-15+0212K1V4 V02099999999999999999N9999997N5+00225+00115100955ADDAA101000095MA1100885098375MD1690219+9999REMMET08701/01/22 09:54:02 METAR K1V4 011454Z      KT 02/01 A2979 RMK AO1 SLP095 T00220011 56021EQDR01      7SKY009R02      7GAS009
0154726140547422022010115546+44420-072019FM-15+0212K1V4 V02099999999999999999N9999997N5+00225+00115100915ADDAA101000095MA1100815098305REMMET08101/01/22 10:54:02 METAR K1V4 011554Z      KT 02/01 A2977 RMK AO1 SLP091 T00220011EQDR01      7SKY009R02      7GAS009
0154726140547422022010116546+44420-072019FM-15+0212K1V4 V02099999999999999999N9999997N5+00225+00175100845ADDAA101000095MA1100755098235REMMET08101/01/22 11:54:02 METAR K1V4 011654Z      KT 02/02 A2975 RMK AO1 SLP084 T00220017EQDR01      7SKY009R02      7GAS009
0186726140547422022010117546+44420-072019FM-15+0212K1V4 V02099999999999999999N9999997N5+00225+00175100795ADDAA101000095MA1100715098205MD1890169+9999REMMET09901/01/22 12:54:02 METAR K1V4 011754Z      KT 02/02 A2974 RMK AO1 SLP079 T00220017 10028 20017 58016EQDR01      7SKY009R02      7GAS009
0154726140547422022010118546+44420-072019FM-15+0212K1V4 V02099999999999999999N9999997N5+00285+00175100715ADDAA101000095MA1100645098135REMMET08101/01/22 13:54:02 METAR K1V4 011854Z      KT 03/02 A2972 RMK AO1 SLP071 T00280017EQDR01      7SKY009R02      7GAS009
0154726140547422022010119546+44420-072019FM-15+0212K1V4 V02099999999999999999N9999997N5+00285+00175100645ADDAA101000095MA1100545098045REMMET08101/01/22 14:54:02 METAR K1V4 011954Z      KT 03/02 A2969 RMK AO1 SLP064 T00280017EQDR01      7SKY009R02      7GAS009
0174726140547422022010120546+44420-072019FM-15+0212K1V4 V02099999999999999999N9999997N5+00225+00175100685ADDAA101000095MA1100615098105MD1590109+9999REMMET08701/01/22 15:54:02 METAR K1V4 012054Z      KT 02/02 A2971 RMK AO1 SLP068 T00220017 55010EQDR01      7SKY009R02      7GAS009
0154726140547422022010121546+44420-072019FM-15+0212K1V4 V02099999999999999999N9999997N5+00225+00175100675ADDAA101000095MA1100615098105REMMET08101/01/22 16:54:02 METAR K1V4 012154Z      KT 02/02 A2971 RMK AO1 SLP067 T00220017EQDR01      7SKY009R02      7GAS009
0154726140547422022010122546+44420-072019FM-15+0212K1V4 V02099999999999999999N9999997N5+00175+00115100685ADDAA101000095MA1100615098105REMMET08101/01/22 17:54:02 METAR K1V4 012254Z      KT 02/01 A2971 RMK AO1 SLP068 T00170011EQDR01      7SKY009R02      7GAS009
0186726140547422022010123546+44420-072019FM-15+0212K1V4 V02099999999999999999N9999997N5+00175+00115100675ADDAA101000095MA1100615098105MD1690019+9999REMMET09901/01/22 18:54:02 METAR K1V4 012354Z      KT 02/01 A2971 RMK AO1 SLP067 T00170011 10028 20017 56001EQDR01      7SKY009R02      7GAS009
0154726140547422022010200546+44420-072019FM-15+0212K1V4 V02099999999999999999N9999997N5+00175+00115100585ADDAA101000095MA1100515098005REMMET08101/01/22 19:54:01 METAR K1V4 020054Z      KT 02/01 A2968 RMK AO1 SLP058 T00170011EQDR01      7SKY009R02      7GAS009
0154726140547422022010201546+44420-072019FM-15+0212K1V4 V02099999999999999999N9999997N5+00115+00065100585ADDAA101000095MA1100515098005REMMET08101/01/22 20:54:01 METAR K1V4 020154Z      KT 01/01 A2968 RMK AO1 SLP058 T00110006EQDR01      7SKY009R02      7GAS009
0174726140547422022010202546+44420-072019FM-15+0212K1V4 V02099999999999999999N9999997N5+00175+00065100565ADDAA101000095MA1100475097975MD1690119+9999REMMET08701/01/22 21:54:01 METAR K1V4 020254Z      KT 02/01 A2967 RMK AO1 SLP056 T00170006 56011EQDR01      7SKY009R02      7GAS009
0154726140547422022010203546+44420-072019FM-15+0212K1V4 V02099999999999999999N9999997N5+00115+00115100525ADDAA101000095MA1100445097945REMMET08101/01/22 22:54:01 METAR K1V4 020354Z      KT 01/01 A2966 RMK AO1 SLP052 T00110011EQDR01      7SKY009R02      7GAS009
0164726140547422022010204546+44420-072019FM-15+0212K1V4 V02099999999999999999N9999997N5+00115+00065100455ADDAA101000095MA1100375097875REMMET09101/01/22 23:54:02 METAR K1V4 020454Z      KT 01/01 A2964 RMK AO1 SLP045 T00110006 400280011EQDR01      7SKY009R02      7GAS009
0603726140547422022010204596+44420-072019SOD  +0212K1V4 V020999999999999999999999999999+99999+99999999999ADDAA124000095KA1240M+00285KA2240N+00115MG1098374100414OE11249999999999997OE22249999999999997REMSOD50124 HR PRECIPITATION (IN): 0.00 24 HR MAX TEMP (F): 3724 HR MIN TEMP (F): 34AVERAGE STATION PRESSURE:29.050 MINIMUM SEA LEVEL PRESSURE:29.65 TIME OF OCCURRENCE:2344 24 HR AVG TEMP (F): 36DEPART FROM NORMAL: 17  HEATING DEGREE DAYS: 29 COOLING DEGREE DAYS:  0 LATEST DAY MAX TEMP (0700-1900 LST):37  LATEST NIGHT MIN TEMP(1900-0800 LST):34 HOURLY INCREMENTAL PRECIPITATION VALUES (IN):.00 0.00 0.00 0.00 0.00 0.00 0.00 0.00 0.00 0.00 0.00 0.00 0.00 0.00 0.00 0.00 0.00 0.00 0.00 0.00 0.00 0.00 0.00 0.00
0209726140547422022010205546+44420-072019FM-15+0212K1V4 V02099999999999999999N9999997N5+00115+00065100435ADDAA101000395AA206000391MA1100345097845MD1690139+9999REMMET11101/02/22 00:54:02 METAR K1V4 020554Z      KT 01/01 A2963 RMK AO1 SLP043 P0001 60001 T00110006 10017 20011 56013EQDR01      7SKY009R02      7GAS009
0154726140547422022010206546+44420-072019FM-15+0212K1V4 V02099999999999999999N9999997N5+00175+00065100435ADDAA101000095MA1100345097845REMMET08101/02/22 01:54:02 METAR K1V4 020654Z      KT 02/01 A2963 RMK AO1 SLP043 T00170006EQDR01      7SKY009R02      7GAS009
0154726140547422022010207546+44420-072019FM-15+0212K1V4 V02099999999999999999N9999997N5+00175+00115100385ADDAA101000095MA1100305097805REMMET08101/02/22 02:54:02 METAR K1V4 020754Z      KT 02/01 A2962 RMK AO1 SLP038 T00170011EQDR01      7SKY009R02      7GAS009
0174726140547422022010208546+44420-072019FM-15+0212K1V4 V02099999999999999999N9999997N5+00175+00065100345ADDAA101000095MA1100275097775MD1890089+9999REMMET08701/02/22 03:54:02 METAR K1V4 020854Z      KT 02/01 A2961 RMK AO1 SLP034 T00170006 58008EQDR01      7SKY009R02      7GAS009
0160726140547422022010209546+44420-072019FM-15+0212K1V4 V02099999999999999999N9999997N5+00115+00065100345ADDAA101000395MA1100275097775REMMET08701/02/22 04:54:02 METAR K1V4 020954Z      KT 01/01 A2961 RMK AO1 SLP034 P0001 T00110006EQDR01      7SKY009R02      7GAS009
0160726140547422022010210546+44420-072019FM-15+0212K1V4 V02099999999999999999N9999997N5+00065+00005100335ADDAA101000395MA1100245097745REMMET08701/02/22 05:54:02 METAR K1V4 021054Z      KT 01/00 A2960 RMK AO1 SLP033 P0001 T00060000EQDR01      7SKY009R02      7GAS009
0227726140547422022010211546+44420-072019FM-15+0212K1V4 V02099999999999999999N9999997N5+00065-00065100375ADDAA101000395AA206000891AA324001091MA1100275097775MD1390029+9999REMMET11801/02/22 06:54:02 METAR K1V4 021154Z      KT 01/M01 A2961 RMK AO1 SLP037 P0001 60003 70004 T00061006 10017 20006 53002EQDR01      7SKY009R02      7GAS009
0155726140547422022010212546+44420-072019FM-15+0212K1V4 V02099999999999999999N9999997N5+00005-00175100315ADDAA101000095MA1100245097745REMMET08201/02/22 07:54:02 METAR K1V4 021254Z      KT 00/M02 A2960 RMK AO1 SLP031 T00001017EQDR01      7SKY009R02      7GAS009
0156726140547422022010213546+44420-072019FM-15+0212K1V4 V02099999999999999999N9999997N5-00065-00175100365ADDAA101000095MA1100275097775REMMET08301/02/22 08:54:02 METAR K1V4 021354Z      KT M01/M02 A2961 RMK AO1 SLP036 T10061017EQDR01      7SKY009R02      7GAS009
0199726140547422022010214546+44420-072019FM-15+0212K1V4 V02099999999999999999N9999997N5-00065-00175100445ADDAA101000395AA203000391MA1100345097845MD1390069+9999REMMET10101/02/22 09:54:02 METAR K1V4 021454Z      KT M01/M02 A2963 RMK AO1 SLP044 P0001 60001 T10061017 53006EQDR01      7SKY009R02      7GAS009
0162726140547422022010215546+44420-072019FM-15+0212K1V4 V02099999999999999999N9999997N5-00115-00285100485ADDAA101000895MA1100375097875REMMET08901/02/22 10:54:02 METAR K1V4 021554Z      KT M01/M03 A2964 RMK AO1 SLP048 P0003 T10111028EQDR01      7SKY009R02      7GAS009
0162726140547422022010216546+44420-072019FM-15+0212K1V4 V02099999999999999999N9999997N5-00175-00335100495ADDAA101000895MA1100415097905REMMET08901/02/22 11:54:02 METAR K1V4 021654Z      KT M02/M03 A2965 RMK AO1 SLP049 P0003 T10171033EQDR01      7SKY009R02      7GAS009
0211726140547422022010217546+44420-072019FM-15+0212K1V4 V02099999999999999999N9999997N5-00175-00335100495ADDAA101000595AA206002391MA1100415097905MD1190049+9999REMMET11301/02/22 12:54:02 METAR K1V4 021754Z      KT M02/M03 A2965 RMK AO1 SLP049 P0002 60009 T10171033 10006 21017 51004EQDR01      7SKY009R02      7GAS009
0156726140547422022010218546+44420-072019FM-15+0212K1V4 V02099999999999999999N9999997N5-00175-00395100525ADDAA101000095MA1100445097945REMMET08301/02/22 13:54:02 METAR K1V4 021854Z      KT M02/M04 A2966 RMK AO1 SLP052 T10171039EQDR01      7SKY009R02      7GAS009
0156726140547422022010219546+44420-072019FM-15+0212K1V4 V02099999999999999999N9999997N5-00225-00505100565ADDAA101000095MA1100475097975REMMET08301/02/22 14:54:02 METAR K1V4 021954Z      KT M02/M05 A2967 RMK AO1 SLP056 T10221050EQDR01      7SKY009R02      7GAS009
0176726140547422022010220546+44420-072019FM-15+0212K1V4 V02099999999999999999N9999997N5-00335-00615100745ADDAA101000095MA1100645098135MD1390249+9999REMMET08901/02/22 15:54:02 METAR K1V4 022054Z      KT M03/M06 A2972 RMK AO1 SLP074 T10331061 53024EQDR01      7SKY009R02      7GAS009
0156726140547422022010221546+44420-072019FM-15+0212K1V4 V02099999999999999999N9999997N5-00505-00835100925ADDAA101000095MA1100815098305REMMET08301/02/22 16:54:02 METAR K1V4 022154Z      KT M05/M08 A2977 RMK AO1 SLP092 T10501083EQDR01      7SKY009R02      7GAS009
0156726140547422022010222546+44420-072019FM-15+0212K1V4 V02099999999999999999N9999997N5-00565-00945101175ADDAA101000095MA1101055098535REMMET08301/02/22 17:54:02 METAR K1V4 022254Z      KT M06/M09 A2984 RMK AO1 SLP117 T10561094EQDR01      7SKY009R02      7GAS009
0188726140547422022010223546+44420-072019FM-15+0212K1V4 V02099999999999999999N9999997N5-00675-01065101325ADDAA101000095MA1101195098675MD1190549+9999REMMET10101/02/22 18:54:02 METAR K1V4 022354Z      KT M07/M11 A2988 RMK AO1 SLP132 T10671106 11017 21067 51054EQDR01      7SKY009R02      7GAS009
0156726140547422022010300546+44420-072019FM-15+0212K1V4 V02099999999999999999N9999997N5-00725-01115101475ADDAA101000095MA1101325098805REMMET08301/02/22 19:54:01 METAR K1V4 030054Z      KT M07/M11 A2992 RMK AO1 SLP147 T10721111EQDR01      7SKY009R02      7GAS009
0156726140547422022010301546+44420-072019FM-15+0212K1V4 V02099999999999999999N9999997N5-00785-01175101575ADDAA101000095MA1101425098905REMMET08301/02/22 20:54:01 METAR K1V4 030154Z      KT M08/M12 A2995 RMK AO1 SLP157 T10781117EQDR01      7SKY009R02      7GAS009
0176726140547422022010302546+44420-072019FM-15+0212K1V4 V02099999999999999999N9999997N5-00895-01285101655ADDAA101000095MA1101495098965MD1190309+9999REMMET08901/02/22 21:54:01 METAR K1V4 030254Z      KT M09/M13 A2997 RMK AO1 SLP165 T10891128 51030EQDR01      7SKY009R02      7GAS009
0156726140547422022010303546+44420-072019FM-15+0212K1V4 V02099999999999999999N9999997N5-00895-01285101765ADDAA101000095MA1101595099065REMMET08301/02/22 22:54:01 METAR K1V4 030354Z      KT M09/M13 A3000 RMK AO1 SLP176 T10891128EQDR01      7SKY009R02      7GAS009
0166726140547422022010304546+44420-072019FM-15+0212K1V4 V02099999999999999999N9999997N5-00895-01285101845ADDAA101000095MA1101695099165REMMET09301/02/22 23:54:02 METAR K1V4 030454Z      KT M09/M13 A3003 RMK AO1 SLP184 T10891128 400171094EQDR01      7SKY009R02      7GAS009
0622726140547422022010304596+44420-072019SOD  +0212K1V4 V020999999999999999999999999999+99999+99999999999ADDAA124003396KA1240M+00175KA2240N-00935MG1098044100304OE11249999999999997OE22249999999999997REMSOD50124 HR PRECIPITATION (IN): 0.13 24 HR MAX TEMP (F): 3524 HR MIN TEMP (F): 15AVERAGE STATION PRESSURE:28.950 MINIMUM SEA LEVEL PRESSURE:29.62 TIME OF OCCURRENCE:0822 24 HR AVG TEMP (F): 25DEPART FROM NORMAL:  6  HEATING DEGREE DAYS: 40 COOLING DEGREE DAYS:  0 LATEST DAY MAX TEMP (0700-1900 LST):33  LATEST NIGHT MIN TEMP(1900-0800 LST):32 HOURLY INCREMENTAL PRECIPITATION VALUES (IN):.01 0.00 0.00 0.00 0.01 0.01 0.01 0.00 0.00 0.01 0.03 0.03 0.02 0.00 0.00 0.00 0.00 0.00 0.00 0.00 0.00 0.00 0.00 0.00EQDR01  0.137AAP092
0188726140547422022010305546+44420-072019FM-15+0212K1V4 V02099999999999999999N9999997N5-00945-01395101945ADDAA101000095MA1101795099265MD1190279+9999REMMET10101/03/22 00:54:02 METAR K1V4 030554Z      KT M09/M14 A3006 RMK AO1 SLP194 T10941139 11067 21094 51027EQDR01      7SKY009R02      7GAS009
0163726140547422022010306546+44420-072019FM-15+0212K1V4 V02099999999999999999N9999997N5-01065-01395102065ADDAA101000095MA1101905099365REMMET09001/03/22 01:54:02 METAR K1V4 030654Z      KT M11/M14 A3009 RMK AO1 PRESRR SLP206 T11061139EQDR01      7SKY009R02      7GAS009
0156726140547422022010307546+44420-072019FM-15+0212K1V4 V02099999999999999999N9999997N5-01115-01505102015ADDAA101000095MA1101835099305REMMET08301/03/22 02:54:02 METAR K1V4 030754Z      KT M11/M15 A3007 RMK AO1 SLP201 T11111150EQDR01      7SKY009R02      7GAS009
0176726140547422022010308546+44420-072019FM-15+0212K1V4 V02099999999999999999N9999997N5-01115-01445102215ADDAA101000095MA1102035099505MD1390259+9999REMMET08901/03/22 03:54:02 METAR K1V4 030854Z      KT M11/M14 A3013 RMK AO1 SLP221 T11111144 53025EQDR01      7SKY009R02      7GAS009
0156726140547422022010309546+44420-072019FM-15+0212K1V4 V02099999999999999999N9999997N5-01175-01505102415ADDAA101000095MA1102205099665REMMET08301/03/22 04:54:02 METAR K1V4 030954Z      KT M12/M15 A3018 RMK AO1 SLP241 T11171150EQDR01      7SKY009R02      7GAS009
0156726140547422022010310546+44420-072019FM-15+0212K1V4 V02099999999999999999N9999997N5-01175-01565102495ADDAA101000095MA1102305099765REMMET08301/03/22 05:54:02 METAR K1V4 031054Z      KT M12/M16 A3021 RMK AO1 SLP249 T11171156EQDR01      7SKY009R02      7GAS009
0205726140547422022010311546+44420-072019FM-15+0212K1V4 V02099999999999999999N9999997N5-01285-01615102515ADDAA101000095AA224002391MA1102305099765MD1190259+9999REMMET10701/03/22 06:54:02 METAR K1V4 031154Z      KT M13/M16 A3021 RMK AO1 SLP251 70009 T11281161 11094 21128 51025EQDR01      7SKY009R02      7GAS009
0156726140547422022010312546+44420-072019FM-15+0212K1V4 V02099999999999999999N9999997N5-01335-01615102535ADDAA101000095MA1102305099765REMMET08301/03/22 07:54:02 METAR K1V4 031254Z      KT M13/M16 A3021 RMK AO1 SLP253 T11331161EQDR01      7SKY009R02      7GAS009
0156726140547422022010313546+44420-072019FM-15+0212K1V4 V02099999999999999999N9999997N5-01335-01725102625ADDAA101000095MA1102405099865REMMET08301/03/22 08:54:02 METAR K1V4 031354Z      KT M13/M17 A3024 RMK AO1 SLP262 T11331172EQDR01      7SKY009R02      7GAS009
0176726140547422022010314546+44420-072019FM-15+0212K1V4 V02099999999999999999N9999997N5-01285-01675102725ADDAA101000095MA1102515099965MD1390209+9999REMMET08901/03/22 09:54:02 METAR K1V4 031454Z      KT M13/M17 A3027 RMK AO1 SLP272 T11281167 53020EQDR01      7SKY009R02      7GAS009
0156726140547422022010315546+44420-072019FM-15+0212K1V4 V02099999999999999999N9999997N5-01225-01675102635ADDAA101000095MA1102405099865REMMET08301/03/22 10:54:02 METAR K1V4 031554Z      KT M12/M17 A3024 RMK AO1 SLP263 T11221167EQDR01      7SKY009R02      7GAS009
0156726140547422022010316546+44420-072019FM-15+0212K1V4 V02099999999999999999N9999997N5-01175-01675102495ADDAA101000095MA1102275099735REMMET08301/03/22 11:54:02 METAR K1V4 031654Z      KT M12/M17 A3020 RMK AO1 SLP249 T11171167EQDR01      7SKY009R02      7GAS009
0188726140547422022010317546+44420-072019FM-15+0212K1V4 V02099999999999999999N9999997N5-01115-01615102425ADDAA101000095MA1102205099665MD1690289+9999REMMET10101/03/22 12:54:02 METAR K1V4 031754Z      KT M11/M16 A3018 RMK AO1 SLP242 T11111161 11111 21133 56028EQDR01      7SKY009R02      7GAS009
0156726140547422022010318546+44420-072019FM-15+0212K1V4 V02099999999999999999N9999997N5-01005-01675102395ADDAA101000095MA1102175099635REMMET08301/03/22 13:54:02 METAR K1V4 031854Z      KT M10/M17 A3017 RMK AO1 SLP239 T11001167EQDR01      7SKY009R02      7GAS009
0156726140547422022010319546+44420-072019FM-15+0212K1V4 V02099999999999999999N9999997N5-01065-01725102365ADDAA101000095MA1102135099595REMMET08301/03/22 14:54:02 METAR K1V4 031954Z      KT M11/M17 A3016 RMK AO1 SLP236 T11061172EQDR01      7SKY009R02      7GAS009
0176726140547422022010320546+44420-072019FM-15+0212K1V4 V02099999999999999999N9999997N5-01115-01675102405ADDAA101000095MA1102175099635MD1590049+9999REMMET08901/03/22 15:54:02 METAR K1V4 032054Z      KT M11/M17 A3017 RMK AO1 SLP240 T11111167 55004EQDR01      7SKY009R02      7GAS009
0156726140547422022010321546+44420-072019FM-15+0212K1V4 V02099999999999999999N9999997N5-01175-01725102395ADDAA101000095MA1102175099635REMMET08301/03/22 16:54:02 METAR K1V4 032154Z      KT M12/M17 A3017 RMK AO1 SLP239 T11171172EQDR01      7SKY009R02      7GAS009
0156726140547422022010322546+44420-072019FM-15+0212K1V4 V02099999999999999999N9999997N5-01285-01725102445ADDAA101000095MA1102205099665REMMET08301/03/22 17:54:02 METAR K1V4 032254Z      KT M13/M17 A3018 RMK AO1 SLP244 T11281172EQDR01      7SKY009R02      7GAS009
0188726140547422022010323546+44420-072019FM-15+0212K1V4 V02099999999999999999N9999997N5-01335-01725102535ADDAA101000095MA1102305099765MD1390119+9999REMMET10101/03/22 18:54:02 METAR K1V4 032354Z      KT M13/M17 A3021 RMK AO1 SLP253 T11331172 11100 21133 53011EQDR01      7SKY009R02      7GAS009
0156726140547422022010400546+44420-072019FM-15+0212K1V4 V02099999999999999999N9999997N5-01395-01835102585ADDAA101000095MA1102345099795REMMET08301/03/22 19:54:01 METAR K1V4 040054Z      KT M14/M18 A3022 RMK AO1 SLP258 T11391183EQDR01      7SKY009R02      7GAS009
0156726140547422022010401546+44420-072019FM-15+0212K1V4 V02099999999999999999N9999997N5-01445-01895102575ADDAA101000095MA1102305099765REMMET08301/03/22 20:54:01 METAR K1V4 040154Z      KT M14/M19 A3021 RMK AO1 SLP257 T11441189EQDR01      7SKY009R02      7GAS009
0176726140547422022010402546+44420-072019FM-15+0212K1V4 V02099999999999999999N9999997N5-01505-01945102625ADDAA101000095MA1102375099835MD1390089+9999REMMET08901/03/22 21:54:01 METAR K1V4 040254Z      KT M15/M19 A3023 RMK AO1 SLP262 T11501194 53008EQDR01      7SKY009R02      7GAS009
0156726140547422022010403546+44420-072019FM-15+0212K1V4 V02099999999999999999N9999997N5-01565-01835102625ADDAA101000095MA1102375099835REMMET08301/03/22 22:54:02 METAR K1V4 040354Z      KT M16/M18 A3023 RMK AO1 SLP262 T11561183EQDR01      7SKY009R02      7GAS009
0166726140547422022010404546+44420-072019FM-15+0212K1V4 V02099999999999999999N9999997N5-01675-01945102615ADDAA101000095MA1102345099795REMMET09301/03/22 23:54:02 METAR K1V4 040454Z      KT M17/M19 A3022 RMK AO1 SLP261 T11671194 410891167EQDR01      7SKY009R02      7GAS009
0603726140547422022010404596+44420-072019SOD  +0212K1V4 V020999999999999999999999999999+99999+99999999999ADDAA124000095KA1240M-00885KA2240N-01665MG1099594101834OE11249999999999997OE22249999999999997REMSOD50124 HR PRECIPITATION (IN): 0.00 24 HR MAX TEMP (F): 1624 HR MIN TEMP (F):  2AVERAGE STATION PRESSURE:29.410 MINIMUM SEA LEVEL PRESSURE:30.07 TIME OF OCCURRENCE:0014 24 HR AVG TEMP (F):  9DEPART FROM NORMAL:-10  HEATING DEGREE DAYS: 56 COOLING DEGREE DAYS:  0 LATEST DAY MAX TEMP (0700-1900 LST):14  LATEST NIGHT MIN TEMP(1900-0800 LST):8  HOURLY INCREMENTAL PRECIPITATION VALUES (IN):.00 0.00 0.00 0.00 0.00 0.00 0.00 0.00 0.00 0.00 0.00 0.00 0.00 0.00 0.00 0.00 0.00 0.00 0.00 0.00 0.00 0.00 0.00 0.00
0188726140547422022010405546+44420-072019FM-15+0212K1V4 V02099999999999999999N9999997N5-01725-02005102625ADDAA101000095MA1102375099835MD1590009+9999REMMET10101/04/22 00:54:02 METAR K1V4 040554Z      KT M17/M20 A3023 RMK AO1 SLP262 T11721200 11133 21178 55000EQDR01      7SKY009R02      7GAS009
0156726140547422022010406546+44420-072019FM-15+0212K1V4 V02099999999999999999N9999997N5-01785-02065102715ADDAA101000095MA1102445099895REMMET08301/04/22 01:54:02 METAR K1V4 040654Z      KT M18/M21 A3025 RMK AO1 SLP271 T11781206EQDR01      7SKY009R02      7GAS009
0156726140547422022010407546+44420-072019FM-15+0212K1V4 V02099999999999999999N9999997N5-01835-02115102775ADDAA101000095MA1102515099965REMMET08301/04/22 02:54:02 METAR K1V4 040754Z      KT M18/M21 A3027 RMK AO1 SLP277 T11831211EQDR01      7SKY009R02      7GAS009
0176726140547422022010408546+44420-072019FM-15+0212K1V4 V02099999999999999999N9999997N5-01945-02175102765ADDAA101000095MA1102475099935MD1090129+9999REMMET08901/04/22 03:54:02 METAR K1V4 040854Z      KT M19/M22 A3026 RMK AO1 SLP276 T11941217 50012EQDR01      7SKY009R02      7GAS009
0156726140547422022010409546+44420-072019FM-15+0212K1V4 V02099999999999999999N9999997N5-01945-02175102795ADDAA101000095MA1102515099965REMMET08301/04/22 04:54:02 METAR K1V4 040954Z      KT M19/M22 A3027 RMK AO1 SLP279 T11941217EQDR01      7SKY009R02      7GAS009
0156726140547422022010410546+44420-072019FM-15+0212K1V4 V02099999999999999999N9999997N5-01945-02285102875ADDAA101000095MA1102575100035REMMET08301/04/22 05:54:02 METAR K1V4 041054Z      KT M19/M23 A3029 RMK AO1 SLP287 T11941228EQDR01      7SKY009R02      7GAS009
0188726140547422022010411546+44420-072019FM-15+0212K1V4 V02099999999999999999N9999997N5-02005-02225102875ADDAA101000095MA1102575100035MD1090099+9999REMMET10101/04/22 06:54:02 METAR K1V4 041154Z      KT M20/M22 A3029 RMK AO1 SLP287 T12001222 11172 21200 50009EQDR01      7SKY009R02      7GAS009
0156726140547422022010412546+44420-072019FM-15+0212K1V4 V02099999999999999999N9999997N5-02005-02285102925ADDAA101000095MA1102645100095REMMET08301/04/22 07:54:02 METAR K1V4 041254Z      KT M20/M23 A3031 RMK AO1 SLP292 T12001228EQDR01      7SKY009R02      7GAS009
0156726140547422022010413546+44420-072019FM-15+0212K1V4 V02099999999999999999N9999997N5-01895-02175102905ADDAA101000095MA1102615100065REMMET08301/04/22 08:54:02 METAR K1V4 041354Z      KT M19/M22 A3030 RMK AO1 SLP290 T11891217EQDR01      7SKY009R02      7GAS009
0176726140547422022010414546+44420-072019FM-15+0212K1V4 V02099999999999999999N9999997N5-01615-01945102905ADDAA101000095MA1102615100065MD1190039+9999REMMET08901/04/22 09:54:02 METAR K1V4 041454Z      KT M16/M19 A3030 RMK AO1 SLP290 T11611194 51003EQDR01      7SKY009R02      7GAS009
0156726140547422022010415546+44420-072019FM-15+0212K1V4 V02099999999999999999N9999997N5-01395-01835102835ADDAA101000095MA1102575100035REMMET08301/04/22 10:54:02 METAR K1V4 041554Z      KT M14/M18 A3029 RMK AO1 SLP283 T11391183EQDR01      7SKY009R02      7GAS009
0156726140547422022010416546+44420-072019FM-15+0212K1V4 V02099999999999999999N9999997N5-01115-01725102735ADDAA101000095MA1102475099935REMMET08301/04/22 11:54:02 METAR K1V4 041654Z      KT M11/M17 A3026 RMK AO1 SLP273 T11111172EQDR01      7SKY009R02      7GAS009
0188726140547422022010417546+44420-072019FM-15+0212K1V4 V02099999999999999999N9999997N5-01005-01675102615ADDAA101000095MA1102375099835MD1890259+9999REMMET10101/04/22 12:54:02 METAR K1V4 041754Z      KT M10/M17 A3023 RMK AO1 SLP261 T11001167 11100 21200 58025EQDR01      7SKY009R02      7GAS009
0156726140547422022010418546+44420-072019FM-15+0212K1V4 V02099999999999999999N9999997N5-00835-01505102575ADDAA101000095MA1102345099795REMMET08301/04/22 13:54:02 METAR K1V4 041854Z      KT M08/M15 A3022 RMK AO1 SLP257 T10831150EQDR01      7SKY009R02      7GAS009
0156726140547422022010419546+44420-072019FM-15+0212K1V4 V02099999999999999999N9999997N5-00725-01445102535ADDAA101000095MA1102305099765REMMET08301/04/22 14:54:02 METAR K1V4 041954Z      KT M07/M14 A3021 RMK AO1 SLP253 T10721144EQDR01      7SKY009R02      7GAS009
0176726140547422022010420546+44420-072019FM-15+0212K1V4 V02099999999999999999N9999997N5-00725-01335102525ADDAA101000095MA1102275099735MD1690099+9999REMMET08901/04/22 15:54:02 METAR K1V4 042054Z      KT M07/M13 A3020 RMK AO1 SLP252 T10721133 56009EQDR01      7SKY009R02      7GAS009
0156726140547422022010421546+44420-072019FM-15+0212K1V4 V02099999999999999999N9999997N5-00725-01285102545ADDAA101000095MA1102305099765REMMET08301/04/22 16:54:02 METAR K1V4 042154Z      KT M07/M13 A3021 RMK AO1 SLP254 T10721128EQDR01      7SKY009R02      7GAS009
0156726140547422022010422546+44420-072019FM-15+0212K1V4 V02099999999999999999N9999997N5-00785-01285102565ADDAA101000095MA1102305099765REMMET08301/04/22 17:54:02 METAR K1V4 042254Z      KT M08/M13 A3021 RMK AO1 SLP256 T10781128EQDR01      7SKY009R02      7GAS009
0188726140547422022010423546+44420-072019FM-15+0212K1V4 V02099999999999999999N9999997N5-00785-01225102575ADDAA101000095MA1102305099765MD1090039+9999REMMET10101/04/22 18:54:02 METAR K1V4 042354Z      KT M08/M12 A3021 RMK AO1 SLP257 T10781122 11072 21094 50003EQDR01      7SKY009R02      7GAS009
0156726140547422022010500546+44420-072019FM-15+0212K1V4 V02099999999999999999N9999997N5-00895-01225102595ADDAA101000095MA1102345099795REMMET08301/04/22 19:54:01 METAR K1V4 050054Z      KT M09/M12 A3022 RMK AO1 SLP259 T10891122EQDR01      7SKY009R02      7GAS009
0156726140547422022010501546+44420-072019FM-15+0212K1V4 V02099999999999999999N9999997N5-01005-01225102545ADDAA101000095MA1102275099735REMMET08301/04/22 20:54:01 METAR K1V4 050154Z      KT M10/M12 A3020 RMK AO1 SLP254 T11001122EQDR01      7SKY009R02      7GAS009
0176726140547422022010502546+44420-072019FM-15+0212K1V4 V02099999999999999999N9999997N5-01065-01285102475ADDAA101000095MA1102245099695MD1890099+9999REMMET08901/04/22 21:54:01 METAR K1V4 050254Z      KT M11/M13 A3019 RMK AO1 SLP247 T11061128 58009EQDR01      7SKY009R02      7GAS009
0156726140547422022010503546+44420-072019FM-15+0212K1V4 V02099999999999999999N9999997N5-01115-01285102405ADDAA101000095MA1102175099635REMMET08301/04/22 22:54:02 METAR K1V4 050354Z      KT M11/M13 A3017 RMK AO1 SLP240 T11111128EQDR01      7SKY009R02      7GAS009
0166726140547422022010504546+44420-072019FM-15+0212K1V4 V02099999999999999999N9999997N5-01175-01395102355ADDAA101000095MA1102135099595REMMET09301/04/22 23:54:02 METAR K1V4 050454Z      KT M12/M14 A3016 RMK AO1 SLP235 T11171139 410721200EQDR01      7SKY009R02      7GAS009
0603726140547422022010504596+44420-072019SOD  +0212K1V4 V020999999999999999999999999999+99999+99999999999ADDAA124000095KA1240M-00715KA2240N-01995MG1099854102344OE11249999999999997OE22249999999999997REMSOD50124 HR PRECIPITATION (IN): 0.00 24 HR MAX TEMP (F): 1924 HR MIN TEMP (F): -4AVERAGE STATION PRESSURE:29.485 MINIMUM SEA LEVEL PRESSURE:30.22 TIME OF OCCURRENCE:2359 24 HR AVG TEMP (F):  8DEPART FROM NORMAL:-10  HEATING DEGREE DAYS: 57 COOLING DEGREE DAYS:  0 LATEST DAY MAX TEMP (0700-1900 LST):19  LATEST NIGHT MIN TEMP(1900-0800 LST):-4 HOURLY INCREMENTAL PRECIPITATION VALUES (IN):.00 0.00 0.00 0.00 0.00 0.00 0.00 0.00 0.00 0.00 0.00 0.00 0.00 0.00 0.00 0.00 0.00 0.00 0.00 0.00 0.00 0.00 0.00 0.00
0188726140547422022010505546+44420-072019FM-15+0212K1V4 V02099999999999999999N9999997N5-01115-01335102245ADDAA101000095MA1102035099505MD1890199+9999REMMET10101/05/22 00:54:02 METAR K1V4 050554Z      KT M11/M13 A3013 RMK AO1 SLP224 T11111133 11078 21117 58019EQDR01      7SKY009R02      7GAS009
0156726140547422022010506546+44420-072019FM-15+0212K1V4 V02099999999999999999N9999997N5-01115-01335102135ADDAA101000095MA1101935099405REMMET08301/05/22 01:54:02 METAR K1V4 050654Z      KT M11/M13 A3010 RMK AO1 SLP213 T11111133EQDR01      7SKY009R02      7GAS009
0156726140547422022010507546+44420-072019FM-15+0212K1V4 V02099999999999999999N9999997N5-01115-01285102025ADDAA101000095MA1101835099305REMMET08301/05/22 02:54:02 METAR K1V4 050754Z      KT M11/M13 A3007 RMK AO1 SLP202 T11111128EQDR01      7SKY009R02      7GAS009
0176726140547422022010508546+44420-072019FM-15+0212K1V4 V02099999999999999999N9999997N5-01115-01335101925ADDAA101000095MA1101735099205MD1690299+9999REMMET08901/05/22 03:54:02 METAR K1V4 050854Z      KT M11/M13 A3004 RMK AO1 SLP192 T11111133 56029EQDR01      7SKY009R02      7GAS009
0156726140547422022010509546+44420-072019FM-15+0212K1V4 V02099999999999999999N9999997N5-01115-01335101715ADDAA101000095MA1101525099005REMMET08301/05/22 04:54:02 METAR K1V4 050954Z      KT M11/M13 A2998 RMK AO1 SLP171 T11111133EQDR01      7SKY009R02      7GAS009
0156726140547422022010510546+44420-072019FM-15+0212K1V4 V02099999999999999999N9999997N5-01065-01225101625ADDAA101000095MA1101425098905REMMET08301/05/22 05:54:02 METAR K1V4 051054Z      KT M11/M12 A2995 RMK AO1 SLP162 T11061122EQDR01      7SKY009R02      7GAS009
0188726140547422022010511546+44420-072019FM-15+0212K1V4 V02099999999999999999N9999997N5-00615-01005101535ADDAA101000095MA1101355098835MD1690369+9999REMMET10101/05/22 06:54:02 METAR K1V4 051154Z      KT M06/M10 A2993 RMK AO1 SLP153 T10611100 11061 21117 56036EQDR01      7SKY009R02      7GAS009
0156726140547422022010512546+44420-072019FM-15+0212K1V4 V02099999999999999999N9999997N5-00505-01065101495ADDAA101000095MA1101325098805REMMET08301/05/22 07:54:02 METAR K1V4 051254Z      KT M05/M11 A2992 RMK AO1 SLP149 T10501106EQDR01      7SKY009R02      7GAS009
0156726140547422022010513546+44420-072019FM-15+0212K1V4 V02099999999999999999N9999997N5-00395-01065101425ADDAA101000095MA1101255098735REMMET08301/05/22 08:54:02 METAR K1V4 051354Z      KT M04/M11 A2990 RMK AO1 SLP142 T10391106EQDR01      7SKY009R02      7GAS009
0176726140547422022010514546+44420-072019FM-15+0212K1V4 V02099999999999999999N9999997N5-00285-01065101335ADDAA101000095MA1101155098635MD1890199+9999REMMET08901/05/22 09:54:02 METAR K1V4 051454Z      KT M03/M11 A2987 RMK AO1 SLP133 T10281106 58019EQDR01      7SKY009R02      7GAS009
0163726140547422022010515546+44420-072019FM-15+0212K1V4 V02099999999999999999N9999997N5-00115-00835101125ADDAA101000095MA1100955098435REMMET09001/05/22 10:54:02 METAR K1V4 051554Z      KT M01/M08 A2981 RMK AO1 PRESFR SLP112 T10111083EQDR01      7SKY009R02      7GAS009
0155726140547422022010516546+44420-072019FM-15+0212K1V4 V02099999999999999999N9999997N5+00005-00615100925ADDAA101000095MA1100755098235REMMET08201/05/22 11:54:02 METAR K1V4 051654Z      KT 00/M06 A2975 RMK AO1 SLP092 T00001061EQDR01      7SKY009R02      7GAS009
0187726140547422022010517546+44420-072019FM-15+0212K1V4 V02099999999999999999N9999997N5+00115-00395100805ADDAA101000095MA1100645098135MD1690509+9999REMMET10001/05/22 12:54:02 METAR K1V4 051754Z      KT 01/M04 A2972 RMK AO1 SLP080 T00111039 10011 21061 56050EQDR01      7SKY009R02      7GAS009
0155726140547422022010518546+44420-072019FM-15+0212K1V4 V02099999999999999999N9999997N5+00175-00285100685ADDAA101000095MA1100545098045REMMET08201/05/22 13:54:02 METAR K1V4 051854Z      KT 02/M03 A2969 RMK AO1 SLP068 T00171028EQDR01      7SKY009R02      7GAS009
0155726140547422022010519546+44420-072019FM-15+0212K1V4 V02099999999999999999N9999997N5+00285-00115100655ADDAA101000095MA1100515098005REMMET08201/05/22 14:54:02 METAR K1V4 051954Z      KT 03/M01 A2968 RMK AO1 SLP065 T00281011EQDR01      7SKY009R02      7GAS009
0175726140547422022010520546+44420-072019FM-15+0212K1V4 V02099999999999999999N9999997N5+00285-00065100605ADDAA101000095MA1100475097975MD1690189+9999REMMET08801/05/22 15:54:02 METAR K1V4 052054Z      KT 03/M01 A2967 RMK AO1 SLP060 T00281006 56018EQDR01      7SKY009R02      7GAS009
0155726140547422022010521546+44420-072019FM-15+0212K1V4 V02099999999999999999N9999997N5+00065-00175100575ADDAA101000095MA1100445097945REMMET08201/05/22 16:54:02 METAR K1V4 052154Z      KT 01/M02 A2966 RMK AO1 SLP057 T00061017EQDR01      7SKY009R02      7GAS009
0156726140547422022010522546+44420-072019FM-15+0212K1V4 V02099999999999999999N9999997N5-00115-00285100545ADDAA101000095MA1100375097875REMMET08301/05/22 17:54:02 METAR K1V4 052254Z      KT M01/M03 A2964 RMK AO1 SLP054 T10111028EQDR01      7SKY009R02      7GAS009
0188726140547422022010523546+44420-072019FM-15+0212K1V4 V02099999999999999999N9999997N5-00175-00335100495ADDAA101000095MA1100375097875MD1690109+9999REMMET10101/05/22 18:54:02 METAR K1V4 052354Z      KT M02/M03 A2964 RMK AO1 SLP049 T10171033 10028 21017 56010EQDR01      7SKY009R02      7GAS009
0156726140547422022010600546+44420-072019FM-15+0212K1V4 V02099999999999999999N9999997N5-00175-00285100465ADDAA101000095MA1100345097845REMMET08301/05/22 19:54:01 METAR K1V4 060054Z      KT M02/M03 A2963 RMK AO1 SLP046 T10171028EQDR01      7SKY009R02      7GAS009
0156726140547422022010601546+44420-072019FM-15+0212K1V4 V02099999999999999999N9999997N5-00225-00335100395ADDAA101000095MA1100275097775REMMET08301/05/22 20:54:01 METAR K1V4 060154Z      KT M02/M03 A2961 RMK AO1 SLP039 T10221033EQDR01      7SKY009R02      7GAS009
0175726140547422022010602546+44420-072019FM-15+0212K1V4 V02099999999999999999N9999997N5+00065-00065100325ADDAA101000095MA1100205097705MD1890149+9999REMMET08801/05/22 21:54:01 METAR K1V4 060254Z      KT 01/M01 A2959 RMK AO1 SLP032 T00061006 58014EQDR01      7SKY009R02      7GAS009
0155726140547422022010603546+44420-072019FM-15+0212K1V4 V02099999999999999999N9999997N5+00005-00115100285ADDAA101000095MA1100175097675REMMET08201/05/22 22:54:01 METAR K1V4 060354Z      KT 00/M01 A2958 RMK AO1 SLP028 T00001011EQDR01      7SKY009R02      7GAS009
0166726140547422022010604546+44420-072019FM-15+0212K1V4 V02099999999999999999N9999997N5-00175-00285100235ADDAA101000095MA1100145097645REMMET09301/05/22 23:54:02 METAR K1V4 060454Z      KT M02/M03 A2957 RMK AO1 SLP023 T10171028 400281117EQDR01      7SKY009R02      7GAS009
0603726140547422022010604596+44420-072019SOD  +0212K1V4 V020999999999999999999999999999+99999+99999999999ADDAA124000095KA1240M+00285KA2240N-01165MG1098564100244OE11249999999999997OE22249999999999997REMSOD50124 HR PRECIPITATION (IN): 0.00 24 HR MAX TEMP (F): 3724 HR MIN TEMP (F): 11AVERAGE STATION PRESSURE:29.105 MINIMUM SEA LEVEL PRESSURE:29.60 TIME OF OCCURRENCE:2359 24 HR AVG TEMP (F): 24DEPART FROM NORMAL:  6  HEATING DEGREE DAYS: 41 COOLING DEGREE DAYS:  0 LATEST DAY MAX TEMP (0700-1900 LST):37  LATEST NIGHT MIN TEMP(1900-0800 LST):11 HOURLY INCREMENTAL PRECIPITATION VALUES (IN):.00 0.00 0.00 0.00 0.00 0.00 0.00 0.00 0.00 0.00 0.00 0.00 0.00 0.00 0.00 0.00 0.00 0.00 0.00 0.00 0.00 0.00 0.00 0.00
0188726140547422022010605546+44420-072019FM-15+0212K1V4 V02099999999999999999N9999997N5-00285-00395100155ADDAA101000095MA1100075097575MD1890169+9999REMMET10101/06/22 00:54:02 METAR K1V4 060554Z      KT M03/M04 A2955 RMK AO1 SLP015 T10281039 10011 21028 58016EQDR01      7SKY009R02      7GAS009
0156726140547422022010606546+44420-072019FM-15+0212K1V4 V02099999999999999999N9999997N5-00285-00395100215ADDAA101000095MA1100105097605REMMET08301/06/22 01:54:02 METAR K1V4 060654Z      KT M03/M04 A2956 RMK AO1 SLP021 T10281039EQDR01      7SKY009R02      7GAS009
0156726140547422022010607546+44420-072019FM-15+0212K1V4 V02099999999999999999N9999997N5-00335-00445100195ADDAA101000095MA1100105097605REMMET08301/06/22 02:54:02 METAR K1V4 060754Z      KT M03/M04 A2956 RMK AO1 SLP019 T10331044EQDR01      7SKY009R02      7GAS009
0176726140547422022010608546+44420-072019FM-15+0212K1V4 V02099999999999999999N9999997N5-00395-00565100155ADDAA101000095MA1100075097575MD1090019+9999REMMET08901/06/22 03:54:02 METAR K1V4 060854Z      KT M04/M06 A2955 RMK AO1 SLP015 T10391056 50001EQDR01      7SKY009R02      7GAS009
0156726140547422022010609546+44420-072019FM-15+0212K1V4 V02099999999999999999N9999997N5-00445-00565100255ADDAA101000095MA1100145097645REMMET08301/06/22 04:54:02 METAR K1V4 060954Z      KT M04/M06 A2957 RMK AO1 SLP025 T10441056EQDR01      7SKY009R02      7GAS009
0156726140547422022010610546+44420-072019FM-15+0212K1V4 V02099999999999999999N9999997N5-00335-00445100365ADDAA101000095MA1100245097745REMMET08301/06/22 05:54:02 METAR K1V4 061054Z      KT M03/M04 A2960 RMK AO1 SLP036 T10331044EQDR01      7SKY009R02      7GAS009
0188726140547422022010611546+44420-072019FM-15+0212K1V4 V02099999999999999999N9999997N5-00285-00445100415ADDAA101000095MA1100305097805MD1190239+9999REMMET10101/06/22 06:54:02 METAR K1V4 061154Z      KT M03/M04 A2962 RMK AO1 SLP041 T10281044 11022 21044 51023EQDR01      7SKY009R02      7GAS009
0156726140547422022010612546+44420-072019FM-15+0212K1V4 V02099999999999999999N9999997N5-00225-00445100525ADDAA101000095MA1100415097905REMMET08301/06/22 07:54:02 METAR K1V4 061254Z      KT M02/M04 A2965 RMK AO1 SLP052 T10221044EQDR01      7SKY009R02      7GAS009
0156726140547422022010613546+44420-072019FM-15+0212K1V4 V02099999999999999999N9999997N5-00115-00505100625ADDAA101000095MA1100515098005REMMET08301/06/22 08:54:02 METAR K1V4 061354Z      KT M01/M05 A2968 RMK AO1 SLP062 T10111050EQDR01      7SKY009R02      7GAS009
0176726140547422022010614546+44420-072019FM-15+0212K1V4 V02099999999999999999N9999997N5-00065-00505100705ADDAA101000095MA1100615098105MD1190309+9999REMMET08901/06/22 09:54:02 METAR K1V4 061454Z      KT M01/M05 A2971 RMK AO1 SLP070 T10061050 51030EQDR01      7SKY009R02      7GAS009
0155726140547422022010615546+44420-072019FM-15+0212K1V4 V02099999999999999999N9999997N5+00005-00725100735ADDAA101000095MA1100645098135REMMET08201/06/22 10:54:02 METAR K1V4 061554Z      KT 00/M07 A2972 RMK AO1 SLP073 T00001072EQDR01      7SKY009R02      7GAS009
0155726140547422022010616546+44420-072019FM-15+0212K1V4 V02099999999999999999N9999997N5+00005-00675100755ADDAA101000095MA1100645098135REMMET08201/06/22 11:54:02 METAR K1V4 061654Z      KT 00/M07 A2972 RMK AO1 SLP075 T00001067EQDR01      7SKY009R02      7GAS009
0187726140547422022010617546+44420-072019FM-15+0212K1V4 V02099999999999999999N9999997N5+00005-00725100825ADDAA101000095MA1100715098205MD1390129+9999REMMET10001/06/22 12:54:02 METAR K1V4 061754Z      KT 00/M07 A2974 RMK AO1 SLP082 T00001072 10000 21033 53012EQDR01      7SKY009R02      7GAS009
0156726140547422022010618546+44420-072019FM-15+0212K1V4 V02099999999999999999N9999997N5-00065-00565100925ADDAA101000095MA1100815098305REMMET08301/06/22 13:54:02 METAR K1V4 061854Z      KT M01/M06 A2977 RMK AO1 SLP092 T10061056EQDR01      7SKY009R02      7GAS009
0156726140547422022010619546+44420-072019FM-15+0212K1V4 V02099999999999999999N9999997N5-00065-00615101025ADDAA101000095MA1100885098375REMMET08301/06/22 14:54:02 METAR K1V4 061954Z      KT M01/M06 A2979 RMK AO1 SLP102 T10061061EQDR01      7SKY009R02      7GAS009
0176726140547422022010620546+44420-072019FM-15+0212K1V4 V02099999999999999999N9999997N5-00115-00615101105ADDAA101000095MA1100985098475MD1190259+9999REMMET08901/06/22 15:54:02 METAR K1V4 062054Z      KT M01/M06 A2982 RMK AO1 SLP110 T10111061 51025EQDR01      7SKY009R02      7GAS009
0156726140547422022010621546+44420-072019FM-15+0212K1V4 V02099999999999999999N9999997N5-00175-00615101095ADDAA101000095MA1100955098435REMMET08301/06/22 16:54:02 METAR K1V4 062154Z      KT M02/M06 A2981 RMK AO1 SLP109 T10171061EQDR01      7SKY009R02      7GAS009
0156726140547422022010622546+44420-072019FM-15+0212K1V4 V02099999999999999999N9999997N5-00225-00615101215ADDAA101000095MA1101085098575REMMET08301/06/22 17:54:02 METAR K1V4 062254Z      KT M02/M06 A2985 RMK AO1 SLP121 T10221061EQDR01      7SKY009R02      7GAS009
0188726140547422022010623546+44420-072019FM-15+0212K1V4 V02099999999999999999N9999997N5-00285-00615101295ADDAA101000095MA1101155098635MD1390189+9999REMMET10101/06/22 18:54:02 METAR K1V4 062354Z      KT M03/M06 A2987 RMK AO1 SLP129 T10281061 10000 21033 53018EQDR01      7SKY009R02      7GAS009
0156726140547422022010700546+44420-072019FM-15+0212K1V4 V02099999999999999999N9999997N5-00395-00615101295ADDAA101000095MA1101155098635REMMET08301/06/22 19:54:01 METAR K1V4 070054Z      KT M04/M06 A2987 RMK AO1 SLP129 T10391061EQDR01      7SKY009R02      7GAS009
0156726140547422022010701546+44420-072019FM-15+0212K1V4 V02099999999999999999N9999997N5-00335-00615101285ADDAA101000095MA1101155098635REMMET08301/06/22 20:54:01 METAR K1V4 070154Z      KT M03/M06 A2987 RMK AO1 SLP128 T10331061EQDR01      7SKY009R02      7GAS009
0176726140547422022010702546+44420-072019FM-15+0212K1V4 V02099999999999999999N9999997N5-00395-00615101315ADDAA101000095MA1101195098675MD1390039+9999REMMET08901/06/22 21:54:01 METAR K1V4 070254Z      KT M04/M06 A2988 RMK AO1 SLP131 T10391061 53003EQDR01      7SKY009R02      7GAS009
0156726140547422022010703546+44420-072019FM-15+0212K1V4 V02099999999999999999N9999997N5-00445-00675101245ADDAA101000095MA1101125098605REMMET08301/06/22 22:54:01 METAR K1V4 070354Z      KT M04/M07 A2986 RMK AO1 SLP124 T10441067EQDR01      7SKY009R02      7GAS009
0166726140547422022010704546+44420-072019FM-15+0212K1V4 V02099999999999999999N9999997N5-00445-00675101225ADDAA101000095MA1101085098575REMMET09301/06/22 23:54:02 METAR K1V4 070454Z      KT M04/M07 A2985 RMK AO1 SLP122 T10441067 400001044EQDR01      7SKY009R02      7GAS009
0603726140547422022010704596+44420-072019SOD  +0212K1V4 V020999999999999999999999999999+99999+99999999999ADDAA124000095KA1240M+00005KA2240N-00435MG1098024100144OE11249999999999997OE22249999999999997REMSOD50124 HR PRECIPITATION (IN): 0.00 24 HR MAX TEMP (F): 3224 HR MIN TEMP (F): 24AVERAGE STATION PRESSURE:28.945 MINIMUM SEA LEVEL PRESSURE:29.57 TIME OF OCCURRENCE:0353 24 HR AVG TEMP (F): 28DEPART FROM NORMAL: 10  HEATING DEGREE DAYS: 37 COOLING DEGREE DAYS:  0 LATEST DAY MAX TEMP (0700-1900 LST):32  LATEST NIGHT MIN TEMP(1900-0800 LST):24 HOURLY INCREMENTAL PRECIPITATION VALUES (IN):.00 0.00 0.00 0.00 0.00 0.00 0.00 0.00 0.00 0.00 0.00 0.00 0.00 0.00 0.00 0.00 0.00 0.00 0.00 0.00 0.00 0.00 0.00 0.00
0188726140547422022010705546+44420-072019FM-15+0212K1V4 V02099999999999999999N9999997N5-00445-00675101265ADDAA101000095MA1101155098635MD1590049+9999REMMET10101/07/22 00:54:02 METAR K1V4 070554Z      KT M04/M07 A2987 RMK AO1 SLP126 T10441067 11028 21044 55004EQDR01      7SKY009R02      7GAS009
0156726140547422022010706546+44420-072019FM-15+0212K1V4 V02099999999999999999N9999997N5-00445-00725101275ADDAA101000095MA1101155098635REMMET08301/07/22 01:54:02 METAR K1V4 070654Z      KT M04/M07 A2987 RMK AO1 SLP127 T10441072EQDR01      7SKY009R02      7GAS009
0156726140547422022010707546+44420-072019FM-15+0212K1V4 V02099999999999999999N9999997N5-00505-00675101215ADDAA101000095MA1101085098575REMMET08301/07/22 02:54:02 METAR K1V4 070754Z      KT M05/M07 A2985 RMK AO1 SLP121 T10501067EQDR01      7SKY009R02      7GAS009
0176726140547422022010708546+44420-072019FM-15+0212K1V4 V02099999999999999999N9999997N5-00505-00675101095ADDAA101000095MA1100955098435MD1890189+9999REMMET08901/07/22 03:54:02 METAR K1V4 070854Z      KT M05/M07 A2981 RMK AO1 SLP109 T10501067 58018EQDR01      7SKY009R02      7GAS009
0156726140547422022010709546+44420-072019FM-15+0212K1V4 V02099999999999999999N9999997N5-00505-00675101045ADDAA101000095MA1100915098405REMMET08301/07/22 04:54:02 METAR K1V4 070954Z      KT M05/M07 A2980 RMK AO1 SLP104 T10501067EQDR01      7SKY009R02      7GAS009
0162726140547422022010710546+44420-072019FM-15+0212K1V4 V02099999999999999999N9999997N5-00505-00675100945ADDAA101000395MA1100815098305REMMET08901/07/22 05:54:02 METAR K1V4 071054Z      KT M05/M07 A2977 RMK AO1 SLP094 P0001 T10501067EQDR01      7SKY009R02      7GAS009
0222726140547422022010711546+44420-072019FM-15+0212K1V4 V02099999999999999999N9999997N5-00445-00675100875ADDAA101000095AA206000391AA324000391MA1100755098235MD1890219+9999REMMET11301/07/22 06:54:02 METAR K1V4 071154Z      KT M04/M07 A2975 RMK AO1 SLP087 60001 70001 T10441067 11044 21050 58021EQDR01      7SKY009R02      7GAS009
0162726140547422022010712546+44420-072019FM-15+0212K1V4 V02099999999999999999N9999997N5-00445-00615100905ADDAA101000595MA1100755098235REMMET08901/07/22 07:54:02 METAR K1V4 071254Z      KT M04/M06 A2975 RMK AO1 SLP090 P0002 T10441061EQDR01      7SKY009R02      7GAS009
0162726140547422022010713546+44420-072019FM-15+0212K1V4 V02099999999999999999N9999997N5-00445-00565100875ADDAA101000895MA1100755098235REMMET08901/07/22 08:54:02 METAR K1V4 071354Z      KT M04/M06 A2975 RMK AO1 SLP087 P0002 T10441056EQDR01      7SKY009R02      7GAS009
0199726140547422022010714546+44420-072019FM-15+0212K1V4 V02099999999999999999N9999997N5-00395-00565100835ADDAA101000595AA203001891MA1100685098175MD1890059+9999REMMET10101/07/22 09:54:02 METAR K1V4 071454Z      KT M04/M06 A2973 RMK AO1 SLP083 P0003 60007 T10391056 58005EQDR01      7SKY009R02      7GAS009
0162726140547422022010715546+44420-072019FM-15+0212K1V4 V02099999999999999999N9999997N5-00335-00505100745ADDAA101000395MA1100615098105REMMET08901/07/22 10:54:02 METAR K1V4 071554Z      KT M03/M05 A2971 RMK AO1 SLP074 P0001 T10331050EQDR01      7SKY009R02      7GAS009
0156726140547422022010716546+44420-072019FM-15+0212K1V4 V02099999999999999999N9999997N5-00285-00505100635ADDAA101000095MA1100515098005REMMET08301/07/22 11:54:02 METAR K1V4 071654Z      KT M03/M05 A2968 RMK AO1 SLP063 T10281050EQDR01      7SKY009R02      7GAS009
0211726140547422022010717546+44420-072019FM-15+0212K1V4 V02099999999999999999N9999997N5-00335-00615100635ADDAA101000395AA206002391MA1100475097975MD1690209+9999REMMET11301/07/22 12:54:02 METAR K1V4 071754Z      KT M03/M06 A2967 RMK AO1 SLP063 P0001 60009 T10331061 11028 21050 56020EQDR01      7SKY009R02      7GAS009
0156726140547422022010718546+44420-072019FM-15+0212K1V4 V02099999999999999999N9999997N5-00335-00725100665ADDAA101000095MA1100545098045REMMET08301/07/22 13:54:02 METAR K1V4 071854Z      KT M03/M07 A2969 RMK AO1 SLP066 T10331072EQDR01      7SKY009R02      7GAS009
0156726140547422022010719546+44420-072019FM-15+0212K1V4 V02099999999999999999N9999997N5-00335-00725100715ADDAA101000095MA1100585098075REMMET08301/07/22 14:54:02 METAR K1V4 071954Z      KT M03/M07 A2970 RMK AO1 SLP071 T10331072EQDR01      7SKY009R02      7GAS009
0176726140547422022010720546+44420-072019FM-15+0212K1V4 V02099999999999999999N9999997N5-00335-00725100825ADDAA101000095MA1100685098175MD1390199+9999REMMET08901/07/22 15:54:02 METAR K1V4 072054Z      KT M03/M07 A2973 RMK AO1 SLP082 T10331072 53019EQDR01      7SKY009R02      7GAS009
0156726140547422022010721546+44420-072019FM-15+0212K1V4 V02099999999999999999N9999997N5-00445-00895100945ADDAA101000095MA1100815098305REMMET08301/07/22 16:54:02 METAR K1V4 072154Z      KT M04/M09 A2977 RMK AO1 SLP094 T10441089EQDR01      7SKY009R02      7GAS009
0156726140547422022010722546+44420-072019FM-15+0212K1V4 V02099999999999999999N9999997N5-00565-00895101115ADDAA101000095MA1100955098435REMMET08301/07/22 17:54:02 METAR K1V4 072254Z      KT M06/M09 A2981 RMK AO1 SLP111 T10561089EQDR01      7SKY009R02      7GAS009
0188726140547422022010723546+44420-072019FM-15+0212K1V4 V02099999999999999999N9999997N5-00615-01065101245ADDAA101000095MA1101085098575MD1390409+9999REMMET10101/07/22 18:54:02 METAR K1V4 072354Z      KT M06/M11 A2985 RMK AO1 SLP124 T10611106 11028 21061 53040EQDR01      7SKY009R02      7GAS009
0156726140547422022010800546+44420-072019FM-15+0212K1V4 V02099999999999999999N9999997N5-00725-01175101365ADDAA101000095MA1101195098675REMMET08301/07/22 19:54:01 METAR K1V4 080054Z      KT M07/M12 A2988 RMK AO1 SLP136 T10721117EQDR01      7SKY009R02      7GAS009
0156726140547422022010801546+44420-072019FM-15+0212K1V4 V02099999999999999999N9999997N5-00835-01285101475ADDAA101000095MA1101325098805REMMET08301/07/22 20:54:01 METAR K1V4 080154Z      KT M08/M13 A2992 RMK AO1 SLP147 T10831128EQDR01      7SKY009R02      7GAS009
0176726140547422022010802546+44420-072019FM-15+0212K1V4 V02099999999999999999N9999997N5-00895-01395101605ADDAA101000095MA1101425098905MD1390349+9999REMMET08901/07/22 21:54:01 METAR K1V4 080254Z      KT M09/M14 A2995 RMK AO1 SLP160 T10891139 53034EQDR01      7SKY009R02      7GAS009
0156726140547422022010803546+44420-072019FM-15+0212K1V4 V02099999999999999999N9999997N5-00945-01395101725ADDAA101000095MA1101565099035REMMET08301/07/22 22:54:02 METAR K1V4 080354Z      KT M09/M14 A2999 RMK AO1 SLP172 T10941139EQDR01      7SKY009R02      7GAS009
0166726140547422022010804546+44420-072019FM-15+0212K1V4 V02099999999999999999N9999997N5-01065-01565101905ADDAA101000095MA1101735099205REMMET09301/07/22 23:54:02 METAR K1V4 080454Z      KT M11/M16 A3004 RMK AO1 SLP190 T11061156 410281106EQDR01      7SKY009R02      7GAS009
0622726140547422022010804596+44420-072019SOD  +0212K1V4 V020999999999999999999999999999+99999+99999999999ADDAA124002596KA1240M-00275KA2240N-01055MG1098344100614OE11249999999999997OE22249999999999997REMSOD50124 HR PRECIPITATION (IN): 0.10 24 HR MAX TEMP (F): 2724 HR MIN TEMP (F): 13AVERAGE STATION PRESSURE:29.040 MINIMUM SEA LEVEL PRESSURE:29.71 TIME OF OCCURRENCE:1329 24 HR AVG TEMP (F): 20DEPART FROM NORMAL:  2  HEATING DEGREE DAYS: 45 COOLING DEGREE DAYS:  0 LATEST DAY MAX TEMP (0700-1900 LST):27  LATEST NIGHT MIN TEMP(1900-0800 LST):23 HOURLY INCREMENTAL PRECIPITATION VALUES (IN):.00 0.00 0.00 0.00 0.00 0.01 0.00 0.02 0.03 0.02 0.01 0.00 0.01 0.00 0.00 0.00 0.00 0.00 0.00 0.00 0.00 0.00 0.00 0.00EQDR01  0.107AAP092
0188726140547422022010805546+44420-072019FM-15+0212K1V4 V02099999999999999999N9999997N5-01225-01785102105ADDAA101000095MA1101935099405MD1390479+9999REMMET10101/08/22 00:54:02 METAR K1V4 080554Z      KT M12/M18 A3010 RMK AO1 SLP210 T11221178 11061 21122 53047EQDR01      7SKY009R02      7GAS009
0156726140547422022010806546+44420-072019FM-15+0212K1V4 V02099999999999999999N9999997N5-01335-01835102305ADDAA101000095MA1102105099565REMMET08301/08/22 01:54:02 METAR K1V4 080654Z      KT M13/M18 A3015 RMK AO1 SLP230 T11331183EQDR01      7SKY009R02      7GAS009
0156726140547422022010807546+44420-072019FM-15+0212K1V4 V02099999999999999999N9999997N5-01395-01895102455ADDAA101000095MA1102245099695REMMET08301/08/22 02:54:02 METAR K1V4 080754Z      KT M14/M19 A3019 RMK AO1 SLP245 T11391189EQDR01      7SKY009R02      7GAS009
0183726140547422022010808546+44420-072019FM-15+0212K1V4 V02099999999999999999N9999997N5-01445-01945102645ADDAA101000095MA1102445099895MD1190519+9999REMMET09601/08/22 03:54:02 METAR K1V4 080854Z      KT M14/M19 A3025 RMK AO1 PRESRR SLP264 T11441194 51051EQDR01      7SKY009R02      7GAS009
0156726140547422022010809546+44420-072019FM-15+0212K1V4 V02099999999999999999N9999997N5-01505-01945102795ADDAA101000095MA1102575100035REMMET08301/08/22 04:54:02 METAR K1V4 080954Z      KT M15/M19 A3029 RMK AO1 SLP279 T11501194EQDR01      7SKY009R02      7GAS009
0156726140547422022010810546+44420-072019FM-15+0212K1V4 V02099999999999999999N9999997N5-01565-01945102965ADDAA101000095MA1102745100195REMMET08301/08/22 05:54:02 METAR K1V4 081054Z      KT M16/M19 A3034 RMK AO1 SLP296 T11561194EQDR01      7SKY009R02      7GAS009
0205726140547422022010811546+44420-072019FM-15+0212K1V4 V02099999999999999999N9999997N5-01675-01945103155ADDAA101000095AA224002391MA1102915100365MD1390469+9999REMMET10701/08/22 06:54:02 METAR K1V4 081154Z      KT M17/M19 A3039 RMK AO1 SLP315 70009 T11671194 11122 21167 53046EQDR01      7SKY009R02      7GAS009
0156726140547422022010812546+44420-072019FM-15+0212K1V4 V02099999999999999999N9999997N5-01785-02005103285ADDAA101000095MA1103055100495REMMET08301/08/22 07:54:02 METAR K1V4 081254Z      KT M18/M20 A3043 RMK AO1 SLP328 T11781200EQDR01      7SKY009R02      7GAS009
0156726140547422022010813546+44420-072019FM-15+0212K1V4 V02099999999999999999N9999997N5-01675-02005103425ADDAA101000095MA1103185100625REMMET08301/08/22 08:54:02 METAR K1V4 081354Z      KT M17/M20 A3047 RMK AO1 SLP342 T11671200EQDR01      7SKY009R02      7GAS009
0176726140547422022010814546+44420-072019FM-15+0212K1V4 V02099999999999999999N9999997N5-01445-02005103475ADDAA101000095MA1103255100695MD1190319+9999REMMET08901/08/22 09:54:02 METAR K1V4 081454Z      KT M14/M20 A3049 RMK AO1 SLP347 T11441200 51031EQDR01      7SKY009R02      7GAS009
0156726140547422022010815546+44420-072019FM-15+0212K1V4 V02099999999999999999N9999997N5-01285-01895103585ADDAA101000095MA1103355100795REMMET08301/08/22 10:54:02 METAR K1V4 081554Z      KT M13/M19 A3052 RMK AO1 SLP358 T11281189EQDR01      7SKY009R02      7GAS009
0156726140547422022010816546+44420-072019FM-15+0212K1V4 V02099999999999999999N9999997N5-01175-01835103595ADDAA101000095MA1103355100795REMMET08301/08/22 11:54:02 METAR K1V4 081654Z      KT M12/M18 A3052 RMK AO1 SLP359 T11171183EQDR01      7SKY009R02      7GAS009
0188726140547422022010817546+44420-072019FM-15+0212K1V4 V02099999999999999999N9999997N5-01065-01785103595ADDAA101000095MA1103355100795MD1190129+9999REMMET10101/08/22 12:54:02 METAR K1V4 081754Z      KT M11/M18 A3052 RMK AO1 SLP359 T11061178 11100 21178 51012EQDR01      7SKY009R02      7GAS009
0156726140547422022010818546+44420-072019FM-15+0212K1V4 V02099999999999999999N9999997N5-00945-01725103595ADDAA101000095MA1103355100795REMMET08301/08/22 13:54:02 METAR K1V4 081854Z      KT M09/M17 A3052 RMK AO1 SLP359 T10941172EQDR01      7SKY009R02      7GAS009
0156726140547422022010819546+44420-072019FM-15+0212K1V4 V02099999999999999999N9999997N5-00835-01725103485ADDAA101000095MA1103255100695REMMET08301/08/22 14:54:02 METAR K1V4 081954Z      KT M08/M17 A3049 RMK AO1 SLP348 T10831172EQDR01      7SKY009R02      7GAS009
0176726140547422022010820546+44420-072019FM-15+0212K1V4 V02099999999999999999N9999997N5-00895-01785103505ADDAA101000095MA1103255100695MD1590089+9999REMMET08901/08/22 15:54:02 METAR K1V4 082054Z      KT M09/M18 A3049 RMK AO1 SLP350 T10891178 55008EQDR01      7SKY009R02      7GAS009
0156726140547422022010821546+44420-072019FM-15+0212K1V4 V02099999999999999999N9999997N5-01115-01615103535ADDAA101000095MA1103285100725REMMET08301/08/22 16:54:02 METAR K1V4 082154Z      KT M11/M16 A3050 RMK AO1 SLP353 T11111161EQDR01      7SKY009R02      7GAS009
0156726140547422022010822546+44420-072019FM-15+0212K1V4 V02099999999999999999N9999997N5-01335-01675103505ADDAA101000095MA1103225100665REMMET08301/08/22 17:54:02 METAR K1V4 082254Z      KT M13/M17 A3048 RMK AO1 SLP350 T11331167EQDR01      7SKY009R02      7GAS009
0188726140547422022010823546+44420-072019FM-15+0212K1V4 V02099999999999999999N9999997N5-01395-01675103515ADDAA101000095MA1103255100695MD1890039+9999REMMET10101/08/22 18:54:02 METAR K1V4 082354Z      KT M14/M17 A3049 RMK AO1 SLP351 T11391167 11083 21144 58003EQDR01      7SKY009R02      7GAS009
0156726140547422022010900546+44420-072019FM-15+0212K1V4 V02099999999999999999N9999997N5-01445-01725103565ADDAA101000095MA1103285100725REMMET08301/08/22 19:54:01 METAR K1V4 090054Z      KT M14/M17 A3050 RMK AO1 SLP356 T11441172EQDR01      7SKY009R02      7GAS009
0156726140547422022010901546+44420-072019FM-15+0212K1V4 V02099999999999999999N9999997N5-01505-01725103515ADDAA101000095MA1103225100665REMMET08301/08/22 20:54:01 METAR K1V4 090154Z      KT M15/M17 A3048 RMK AO1 SLP351 T11501172EQDR01      7SKY009R02      7GAS009
0176726140547422022010902546+44420-072019FM-15+0212K1V4 V02099999999999999999N9999997N5-01565-01785103395ADDAA101000095MA1103125100565MD1890129+9999REMMET08901/08/22 21:54:01 METAR K1V4 090254Z      KT M16/M18 A3045 RMK AO1 SLP339 T11561178 58012EQDR01      7SKY009R02      7GAS009
0156726140547422022010903546+44420-072019FM-15+0212K1V4 V02099999999999999999N9999997N5-01565-01785103175ADDAA101000095MA1102915100365REMMET08301/08/22 22:54:02 METAR K1V4 090354Z      KT M16/M18 A3039 RMK AO1 SLP317 T11561178EQDR01      7SKY009R02      7GAS009
0166726140547422022010904546+44420-072019FM-15+0212K1V4 V02099999999999999999N9999997N5-01445-01725103095ADDAA101000095MA1102845100295REMMET09301/08/22 23:54:02 METAR K1V4 090454Z      KT M14/M17 A3037 RMK AO1 SLP309 T11441172 410831178EQDR01      7SKY009R02      7GAS009
0603726140547422022010904596+44420-072019SOD  +0212K1V4 V020999999999999999999999999999+99999+99999999999ADDAA124000095KA1240M-00825KA2240N-01775MG1100294101934OE11249999999999997OE22249999999999997REMSOD50124 HR PRECIPITATION (IN): 0.00 24 HR MAX TEMP (F): 1724 HR MIN TEMP (F):  0AVERAGE STATION PRESSURE:29.615 MINIMUM SEA LEVEL PRESSURE:30.10 TIME OF OCCURRENCE:0012 24 HR AVG TEMP (F):  9DEPART FROM NORMAL: -9  HEATING DEGREE DAYS: 56 COOLING DEGREE DAYS:  0 LATEST DAY MAX TEMP (0700-1900 LST):17  LATEST NIGHT MIN TEMP(1900-0800 LST):0  HOURLY INCREMENTAL PRECIPITATION VALUES (IN):.00 0.00 0.00 0.00 0.00 0.00 0.00 0.00 0.00 0.00 0.00 0.00 0.00 0.00 0.00 0.00 0.00 0.00 0.00 0.00 0.00 0.00 0.00 0.00
0195726140547422022010905546+44420-072019FM-15+0212K1V4 V02099999999999999999N9999997N5-01335-01675102955ADDAA101000095MA1102715100165MD1690399+9999REMMET10801/09/22 00:54:02 METAR K1V4 090554Z      KT M13/M17 A3033 RMK AO1 PRESFR SLP295 T11331167 11133 21156 56039EQDR01      7SKY009R02      7GAS009
0156726140547422022010906546+44420-072019FM-15+0212K1V4 V02099999999999999999N9999997N5-01225-01565102865ADDAA101000095MA1102645100095REMMET08301/09/22 01:54:02 METAR K1V4 090654Z      KT M12/M16 A3031 RMK AO1 SLP286 T11221156EQDR01      7SKY009R02      7GAS009
0156726140547422022010907546+44420-072019FM-15+0212K1V4 V02099999999999999999N9999997N5-01115-01445102725ADDAA101000095MA1102515099965REMMET08301/09/22 02:54:02 METAR K1V4 090754Z      KT M11/M14 A3027 RMK AO1 SLP272 T11111144EQDR01      7SKY009R02      7GAS009
0176726140547422022010908546+44420-072019FM-15+0212K1V4 V02099999999999999999N9999997N5-00835-01505102525ADDAA101000095MA1102345099795MD1890399+9999REMMET08901/09/22 03:54:02 METAR K1V4 090854Z      KT M08/M15 A3022 RMK AO1 SLP252 T10831150 58039EQDR01      7SKY009R02      7GAS009
0156726140547422022010909546+44420-072019FM-15+0212K1V4 V02099999999999999999N9999997N5-00725-01445102335ADDAA101000095MA1102135099595REMMET08301/09/22 04:54:02 METAR K1V4 090954Z      KT M07/M14 A3016 RMK AO1 SLP233 T10721144EQDR01      7SKY009R02      7GAS009
0156726140547422022010910546+44420-072019FM-15+0212K1V4 V02099999999999999999N9999997N5-00565-01505102205ADDAA101000095MA1102005099465REMMET08301/09/22 05:54:02 METAR K1V4 091054Z      KT M06/M15 A3012 RMK AO1 SLP220 T10561150EQDR01      7SKY009R02      7GAS009
0188726140547422022010911546+44420-072019FM-15+0212K1V4 V02099999999999999999N9999997N5-00565-01445102015ADDAA101000095MA1101795099265MD1890509+9999REMMET10101/09/22 06:54:02 METAR K1V4 091154Z      KT M06/M14 A3006 RMK AO1 SLP201 T10561144 11056 21133 58050EQDR01      7SKY009R02      7GAS009
0156726140547422022010912546+44420-072019FM-15+0212K1V4 V02099999999999999999N9999997N5-00505-01285101855ADDAA101000095MA1101665099135REMMET08301/09/22 07:54:02 METAR K1V4 091254Z      KT M05/M13 A3002 RMK AO1 SLP185 T10501128EQDR01      7SKY009R02      7GAS009
0156726140547422022010913546+44420-072019FM-15+0212K1V4 V02099999999999999999N9999997N5-00445-01225101735ADDAA101000095MA1101525099005REMMET08301/09/22 08:54:02 METAR K1V4 091354Z      KT M04/M12 A2998 RMK AO1 SLP173 T10441122EQDR01      7SKY009R02      7GAS009
0199726140547422022010914546+44420-072019FM-15+0212K1V4 V02099999999999999999N9999997N5-00395-00835101675ADDAA101000595AA203000591MA1101465098935MD1690339+9999REMMET10101/09/22 09:54:02 METAR K1V4 091454Z      KT M04/M08 A2996 RMK AO1 SLP167 P0002 60002 T10391083 56033EQDR01      7SKY009R02      7GAS009
0162726140547422022010915546+44420-072019FM-15+0212K1V4 V02099999999999999999N9999997N5-00335-00615101555ADDAA101001395MA1101355098835REMMET08901/09/22 10:54:02 METAR K1V4 091554Z      KT M03/M06 A2993 RMK AO1 SLP155 P0005 T10331061EQDR01      7SKY009R02      7GAS009
0162726140547422022010916546+44420-072019FM-15+0212K1V4 V02099999999999999999N9999997N5-00285-00505101355ADDAA101000895MA1101155098635REMMET08901/09/22 11:54:02 METAR K1V4 091654Z      KT M03/M05 A2987 RMK AO1 SLP135 P0003 T10281050EQDR01      7SKY009R02      7GAS009
0216726140547422022010917546+44420-072019FM-15+0212K1V4 V02099999999999999999N9999997N5-00225-00445101185ADDAA101000095AA206002591MA1100985098475MD1890469+9999REMMET11801/09/22 12:54:02 METAR K1V4 091754Z      KT M02/M04 A2982 RMK AO1 PRESFR SLP118 60010 T10221044 11022 21056 58046 RTXEQDR01      7SKY009R02      7GAS009
0156726140547422022010918546+44420-072019FM-15+0212K1V4 V02099999999999999999N9999997N5-00175-00335101075ADDAA101000095MA1100915098405REMMET08301/09/22 13:54:02 METAR K1V4 091854Z      KT M02/M03 A2980 RMK AO1 SLP107 T10171033EQDR01      7SKY009R02      7GAS009
0156726140547422022010919546+44420-072019FM-15+0212K1V4 V02099999999999999999N9999997N5-00115-00335100945ADDAA101000095MA1100785098275REMMET08301/09/22 14:54:02 METAR K1V4 091954Z      KT M01/M03 A2976 RMK AO1 SLP094 T10111033EQDR01      7SKY009R02      7GAS009
0176726140547422022010920546+44420-072019FM-15+0212K1V4 V02099999999999999999N9999997N5-00065-00285100825ADDAA101000095MA1100685098175MD1890309+9999REMMET08901/09/22 15:54:02 METAR K1V4 092054Z      KT M01/M03 A2973 RMK AO1 SLP082 T10061028 58030EQDR01      7SKY009R02      7GAS009
0155726140547422022010921546+44420-072019FM-15+0212K1V4 V02099999999999999999N9999997N5+00005-00225100745ADDAA101000095MA1100615098105REMMET08201/09/22 16:54:02 METAR K1V4 092154Z      KT 00/M02 A2971 RMK AO1 SLP074 T00001022EQDR01      7SKY009R02      7GAS009
0155726140547422022010922546+44420-072019FM-15+0212K1V4 V02099999999999999999N9999997N5+00065-00115100715ADDAA101000095MA1100585098075REMMET08201/09/22 17:54:02 METAR K1V4 092254Z      KT 01/M01 A2970 RMK AO1 SLP071 T00061011EQDR01      7SKY009R02      7GAS009
0187726140547422022010923546+44420-072019FM-15+0212K1V4 V02099999999999999999N9999997N5+00115-00115100665ADDAA101000095MA1100545098045MD1690149+9999REMMET10001/09/22 18:54:02 METAR K1V4 092354Z      KT 01/M01 A2969 RMK AO1 SLP066 T00111011 10011 21022 56014EQDR01      7SKY009R02      7GAS009
0161726140547422022011000546+44420-072019FM-15+0212K1V4 V02099999999999999999N9999997N5+00115-00065100655ADDAA101000395MA1100545098045REMMET08801/09/22 19:54:01 METAR K1V4 100054Z      KT 01/M01 A2969 RMK AO1 SLP065 P0001 T00111006EQDR01      7SKY009R02      7GAS009
0155726140547422022011001546+44420-072019FM-15+0212K1V4 V02099999999999999999N9999997N5+00225-00065100665ADDAA101000095MA1100545098045REMMET08201/09/22 20:54:01 METAR K1V4 100154Z      KT 02/M01 A2969 RMK AO1 SLP066 T00221006EQDR01      7SKY009R02      7GAS009
0192726140547422022011002546+44420-072019FM-15+0212K1V4 V02099999999999999999N9999997N5+00175-00335100765ADDAA101000095AA203000391MA1100645098135MD1390119+9999REMMET09401/09/22 21:54:01 METAR K1V4 100254Z      KT 02/M03 A2972 RMK AO1 SLP076 60001 T00171033 53011EQDR01      7SKY009R02      7GAS009
0155726140547422022011003546+44420-072019FM-15+0212K1V4 V02099999999999999999N9999997N5+00115-00675100845ADDAA101000095MA1100755098235REMMET08201/09/22 22:54:01 METAR K1V4 100354Z      KT 01/M07 A2975 RMK AO1 SLP084 T00111067EQDR01      7SKY009R02      7GAS009
0166726140547422022011004546+44420-072019FM-15+0212K1V4 V02099999999999999999N9999997N5-00115-00505100935ADDAA101000095MA1100815098305REMMET09301/09/22 23:54:02 METAR K1V4 100454Z      KT M01/M05 A2977 RMK AO1 SLP093 T10111050 400221144EQDR01      7SKY009R02      7GAS009
0622726140547422022011004596+44420-072019SOD  +0212K1V4 V020999999999999999999999999999+99999+99999999999ADDAA124002896KA1240M+00225KA2240N-01435MG1098974100644OE11249999999999997OE22249999999999997REMSOD50124 HR PRECIPITATION (IN): 0.11 24 HR MAX TEMP (F): 3624 HR MIN TEMP (F):  6AVERAGE STATION PRESSURE:29.225 MINIMUM SEA LEVEL PRESSURE:29.72 TIME OF OCCURRENCE:2043 24 HR AVG TEMP (F): 21DEPART FROM NORMAL:  3  HEATING DEGREE DAYS: 44 COOLING DEGREE DAYS:  0 LATEST DAY MAX TEMP (0700-1900 LST):34  LATEST NIGHT MIN TEMP(1900-0800 LST):4  HOURLY INCREMENTAL PRECIPITATION VALUES (IN):.00 0.00 0.00 0.00 0.00 0.00 0.00 0.00 0.00 0.02 0.05 0.03 0.00 0.00 0.00 0.00 0.00 0.00 0.00 0.01 0.00 0.00 0.00 0.00EQDR01  0.117AAP092
0211726140547422022011005546+44420-072019FM-15+0212K1V4 V02099999999999999999N9999997N5-00335-00835101085ADDAA101000395AA206000591MA1100955098435MD1390299+9999REMMET11301/10/22 00:54:02 METAR K1V4 100554Z      KT M03/M08 A2981 RMK AO1 SLP108 P0001 60002 T10331083 10022 21033 53029EQDR01      7SKY009R02      7GAS009
0156726140547422022011006546+44420-072019FM-15+0212K1V4 V02099999999999999999N9999997N5-00445-01175101195ADDAA101000095MA1101055098535REMMET08301/10/22 01:54:02 METAR K1V4 100654Z      KT M04/M12 A2984 RMK AO1 SLP119 T10441117EQDR01      7SKY009R02      7GAS009
0156726140547422022011007546+44420-072019FM-15+0212K1V4 V02099999999999999999N9999997N5-00565-01505101335ADDAA101000095MA1101195098675REMMET08301/10/22 02:54:02 METAR K1V4 100754Z      KT M06/M15 A2988 RMK AO1 SLP133 T10561150EQDR01      7SKY009R02      7GAS009
0176726140547422022011008546+44420-072019FM-15+0212K1V4 V02099999999999999999N9999997N5-00675-01615101385ADDAA101000095MA1101255098735MD1190309+9999REMMET08901/10/22 03:54:02 METAR K1V4 100854Z      KT M07/M16 A2990 RMK AO1 SLP138 T10671161 51030EQDR01      7SKY009R02      7GAS009
0156726140547422022011009546+44420-072019FM-15+0212K1V4 V02099999999999999999N9999997N5-00725-01395101425ADDAA101000095MA1101295098775REMMET08301/10/22 04:54:02 METAR K1V4 100954Z      KT M07/M14 A2991 RMK AO1 SLP142 T10721139EQDR01      7SKY009R02      7GAS009
0156726140547422022011010546+44420-072019FM-15+0212K1V4 V02099999999999999999N9999997N5-00835-01445101515ADDAA101000095MA1101355098835REMMET08301/10/22 05:54:02 METAR K1V4 101054Z      KT M08/M14 A2993 RMK AO1 SLP151 T10831144EQDR01      7SKY009R02      7GAS009
0205726140547422022011011546+44420-072019FM-15+0212K1V4 V02099999999999999999N9999997N5-00895-01565101615ADDAA101000095AA224003091MA1101465098935MD1390219+9999REMMET10701/10/22 06:54:02 METAR K1V4 101154Z      KT M09/M16 A2996 RMK AO1 SLP161 70012 T10891156 11033 21089 53021EQDR01      7SKY009R02      7GAS009
0156726140547422022011012546+44420-072019FM-15+0212K1V4 V02099999999999999999N9999997N5-01005-01675101645ADDAA101000095MA1101495098965REMMET08301/10/22 07:54:02 METAR K1V4 101254Z      KT M10/M17 A2997 RMK AO1 SLP164 T11001167EQDR01      7SKY009R02      7GAS009
0156726140547422022011013546+44420-072019FM-15+0212K1V4 V02099999999999999999N9999997N5-00945-01785101675ADDAA101000095MA1101525099005REMMET08301/10/22 08:54:02 METAR K1V4 101354Z      KT M09/M18 A2998 RMK AO1 SLP167 T10941178EQDR01      7SKY009R02      7GAS009
0176726140547422022011014546+44420-072019FM-15+0212K1V4 V02099999999999999999N9999997N5-00895-01725101685ADDAA101000095MA1101565099035MD1190089+9999REMMET08901/10/22 09:54:02 METAR K1V4 101454Z      KT M09/M17 A2999 RMK AO1 SLP168 T10891172 51008EQDR01      7SKY009R02      7GAS009
0156726140547422022011015546+44420-072019FM-15+0212K1V4 V02099999999999999999N9999997N5-00785-01675101655ADDAA101000095MA1101525099005REMMET08301/10/22 10:54:02 METAR K1V4 101554Z      KT M08/M17 A2998 RMK AO1 SLP165 T10781167EQDR01      7SKY009R02      7GAS009
0156726140547422022011016546+44420-072019FM-15+0212K1V4 V02099999999999999999N9999997N5-00835-01615101565ADDAA101000095MA1101425098905REMMET08301/10/22 11:54:02 METAR K1V4 101654Z      KT M08/M16 A2995 RMK AO1 SLP156 T10831161EQDR01      7SKY009R02      7GAS009
0188726140547422022011017546+44420-072019FM-15+0212K1V4 V02099999999999999999N9999997N5-00785-01335101545ADDAA101000095MA1101395098865MD1890179+9999REMMET10101/10/22 12:54:02 METAR K1V4 101754Z      KT M08/M13 A2994 RMK AO1 SLP154 T10781133 11072 21100 58017EQDR01      7SKY009R02      7GAS009
0156726140547422022011018546+44420-072019FM-15+0212K1V4 V02099999999999999999N9999997N5-00895-01395101555ADDAA101000095MA1101395098865REMMET08301/10/22 13:54:02 METAR K1V4 101854Z      KT M09/M14 A2994 RMK AO1 SLP155 T10891139EQDR01      7SKY009R02      7GAS009
0156726140547422022011019546+44420-072019FM-15+0212K1V4 V02099999999999999999N9999997N5-00835-01615101565ADDAA101000095MA1101395098865REMMET08301/10/22 14:54:02 METAR K1V4 101954Z      KT M08/M16 A2994 RMK AO1 SLP156 T10831161EQDR01      7SKY009R02      7GAS009
0176726140547422022011020546+44420-072019FM-15+0212K1V4 V02099999999999999999N9999997N5-00945-01505101605ADDAA101000095MA1101425098905MD1390049+9999REMMET08901/10/22 15:54:02 METAR K1V4 102054Z      KT M09/M15 A2995 RMK AO1 SLP160 T10941150 53004EQDR01      7SKY009R02      7GAS009
0156726140547422022011021546+44420-072019FM-15+0212K1V4 V02099999999999999999N9999997N5-01005-01615101665ADDAA101000095MA1101465098935REMMET08301/10/22 16:54:02 METAR K1V4 102154Z      KT M10/M16 A2996 RMK AO1 SLP166 T11001161EQDR01      7SKY009R02      7GAS009
0156726140547422022011022546+44420-072019FM-15+0212K1V4 V02099999999999999999N9999997N5-01115-01675101735ADDAA101000095MA1101525099005REMMET08301/10/22 17:54:02 METAR K1V4 102254Z      KT M11/M17 A2998 RMK AO1 SLP173 T11111167EQDR01      7SKY009R02      7GAS009
0188726140547422022011023546+44420-072019FM-15+0212K1V4 V02099999999999999999N9999997N5-01225-01675101805ADDAA101000095MA1101595099065MD1390179+9999REMMET10101/10/22 18:54:02 METAR K1V4 102354Z      KT M12/M17 A3000 RMK AO1 SLP180 T11221167 11078 21122 53017EQDR01      7SKY009R02      7GAS009
0156726140547422022011100546+44420-072019FM-15+0212K1V4 V02099999999999999999N9999997N5-01175-01725101865ADDAA101000095MA1101665099135REMMET08301/10/22 19:54:01 METAR K1V4 110054Z      KT M12/M17 A3002 RMK AO1 SLP186 T11171172EQDR01      7SKY009R02      7GAS009
0156726140547422022011101546+44420-072019FM-15+0212K1V4 V02099999999999999999N9999997N5-01285-01835101905ADDAA101000095MA1101665099135REMMET08301/10/22 20:54:01 METAR K1V4 110154Z      KT M13/M18 A3002 RMK AO1 SLP190 T11281183EQDR01      7SKY009R02      7GAS009
0176726140547422022011102546+44420-072019FM-15+0212K1V4 V02099999999999999999N9999997N5-01335-01895101965ADDAA101000095MA1101735099205MD1290159+9999REMMET08901/10/22 21:54:01 METAR K1V4 110254Z      KT M13/M19 A3004 RMK AO1 SLP196 T11331189 52015EQDR01      7SKY009R02      7GAS009
0156726140547422022011103546+44420-072019FM-15+0212K1V4 V02099999999999999999N9999997N5-01395-02115102025ADDAA101000095MA1101795099265REMMET08301/10/22 22:54:01 METAR K1V4 110354Z      KT M14/M21 A3006 RMK AO1 SLP202 T11391211EQDR01      7SKY009R02      7GAS009
0166726140547422022011104546+44420-072019FM-15+0212K1V4 V02099999999999999999N9999997N5-01445-02175102125ADDAA101000095MA1101905099365REMMET09301/10/22 23:54:02 METAR K1V4 110454Z      KT M14/M22 A3009 RMK AO1 SLP212 T11441217 410111144EQDR01      7SKY009R02      7GAS009
0622726140547422022011104596+44420-072019SOD  +0212K1V4 V020999999999999999999999999999+99999+99999999999ADDAA124000396KA1240M-00105KA2240N-01435MG1098804100954OE11249999999999997OE22249999999999997REMSOD50124 HR PRECIPITATION (IN): 0.01 24 HR MAX TEMP (F): 3024 HR MIN TEMP (F):  6AVERAGE STATION PRESSURE:29.175 MINIMUM SEA LEVEL PRESSURE:29.81 TIME OF OCCURRENCE:0013 24 HR AVG TEMP (F): 18DEPART FROM NORMAL:  1  HEATING DEGREE DAYS: 47 COOLING DEGREE DAYS:  0 LATEST DAY MAX TEMP (0700-1900 LST):19  LATEST NIGHT MIN TEMP(1900-0800 LST):14 HOURLY INCREMENTAL PRECIPITATION VALUES (IN):.01 0.00 0.00 0.00 0.00 0.00 0.00 0.00 0.00 0.00 0.00 0.00 0.00 0.00 0.00 0.00 0.00 0.00 0.00 0.00 0.00 0.00 0.00 0.00EQDR01  0.017AAP092
0188726140547422022011105546+44420-072019FM-15+0212K1V4 V02099999999999999999N9999997N5-01675-02175102225ADDAA101000095MA1102005099465MD1390249+9999REMMET10101/11/22 00:54:02 METAR K1V4 110554Z      KT M17/M22 A3012 RMK AO1 SLP222 T11671217 11117 21167 53024EQDR01      7SKY009R02      7GAS009
0156726140547422022011106546+44420-072019FM-15+0212K1V4 V02099999999999999999N9999997N5-01785-02285102415ADDAA101000095MA1102175099635REMMET08301/11/22 01:54:02 METAR K1V4 110654Z      KT M18/M23 A3017 RMK AO1 SLP241 T11781228EQDR01      7SKY009R02      7GAS009
0156726140547422022011107546+44420-072019FM-15+0212K1V4 V02099999999999999999N9999997N5-01835-02505102585ADDAA101000095MA1102345099795REMMET08301/11/22 02:54:02 METAR K1V4 110754Z      KT M18/M25 A3022 RMK AO1 SLP258 T11831250EQDR01      7SKY009R02      7GAS009
0176726140547422022011108546+44420-072019FM-15+0212K1V4 V02099999999999999999N9999997N5-02005-02505102735ADDAA101000095MA1102475099935MD1190479+9999REMMET08901/11/22 03:54:02 METAR K1V4 110854Z      KT M20/M25 A3026 RMK AO1 SLP273 T12001250 51047EQDR01      7SKY009R02      7GAS009
0156726140547422022011109546+44420-072019FM-15+0212K1V4 V02099999999999999999N9999997N5-02065-02565102885ADDAA101000095MA1102615100065REMMET08301/11/22 04:54:02 METAR K1V4 110954Z      KT M21/M26 A3030 RMK AO1 SLP288 T12061256EQDR01      7SKY009R02      7GAS009
0156726140547422022011110546+44420-072019FM-15+0212K1V4 V02099999999999999999N9999997N5-02115-02725103065ADDAA101000095MA1102785100235REMMET08301/11/22 05:54:02 METAR K1V4 111054Z      KT M21/M27 A3035 RMK AO1 SLP306 T12111272EQDR01      7SKY009R02      7GAS009
0188726140547422022011111546+44420-072019FM-15+0212K1V4 V02099999999999999999N9999997N5-02175-02785103235ADDAA101000095MA1102955100395MD1390469+9999REMMET10101/11/22 06:54:02 METAR K1V4 111154Z      KT M22/M28 A3040 RMK AO1 SLP323 T12171278 11167 21217 53046EQDR01      7SKY009R02      7GAS009
0156726140547422022011112546+44420-072019FM-15+0212K1V4 V02099999999999999999N9999997N5-02225-02835103305ADDAA101000095MA1103015100465REMMET08301/11/22 07:54:02 METAR K1V4 111254Z      KT M22/M28 A3042 RMK AO1 SLP330 T12221283EQDR01      7SKY009R02      7GAS009
0156726140547422022011113546+44420-072019FM-15+0212K1V4 V02099999999999999999N9999997N5-02225-02835103385ADDAA101000095MA1103085100525REMMET08301/11/22 08:54:02 METAR K1V4 111354Z      KT M22/M28 A3044 RMK AO1 SLP338 T12221283EQDR01      7SKY009R02      7GAS009
0176726140547422022011114546+44420-072019FM-15+0212K1V4 V02099999999999999999N9999997N5-02115-02835103445ADDAA101000095MA1103155100595MD1190209+9999REMMET08901/11/22 09:54:02 METAR K1V4 111454Z      KT M21/M28 A3046 RMK AO1 SLP344 T12111283 51020EQDR01      7SKY009R02      7GAS009
0156726140547422022011115546+44420-072019FM-15+0212K1V4 V02099999999999999999N9999997N5-02065-02785103435ADDAA101000095MA1103155100595REMMET08301/11/22 10:54:02 METAR K1V4 111554Z      KT M21/M28 A3046 RMK AO1 SLP343 T12061278EQDR01      7SKY009R02      7GAS009
0156726140547422022011116546+44420-072019FM-15+0212K1V4 V02099999999999999999N9999997N5-01895-02725103375ADDAA101000095MA1103085100525REMMET08301/11/22 11:54:02 METAR K1V4 111654Z      KT M19/M27 A3044 RMK AO1 SLP337 T11891272EQDR01      7SKY009R02      7GAS009
0188726140547422022011117546+44420-072019FM-15+0212K1V4 V02099999999999999999N9999997N5-01785-02725103365ADDAA101000095MA1103085100525MD1890079+9999REMMET10101/11/22 12:54:02 METAR K1V4 111754Z      KT M18/M27 A3044 RMK AO1 SLP336 T11781272 11172 21222 58007EQDR01      7SKY009R02      7GAS009
0156726140547422022011118546+44420-072019FM-15+0212K1V4 V02099999999999999999N9999997N5-01725-02725103305ADDAA101000095MA1103015100465REMMET08301/11/22 13:54:02 METAR K1V4 111854Z      KT M17/M27 A3042 RMK AO1 SLP330 T11721272EQDR01      7SKY009R02      7GAS009
0156726140547422022011119546+44420-072019FM-15+0212K1V4 V02099999999999999999N9999997N5-01725-02725103305ADDAA101000095MA1102985100425REMMET08301/11/22 14:54:02 METAR K1V4 111954Z      KT M17/M27 A3041 RMK AO1 SLP330 T11721272EQDR01      7SKY009R02      7GAS009
0176726140547422022011120546+44420-072019FM-15+0212K1V4 V02099999999999999999N9999997N5-01725-02725103345ADDAA101000095MA1103015100465MD1590049+9999REMMET08901/11/22 15:54:02 METAR K1V4 112054Z      KT M17/M27 A3042 RMK AO1 SLP334 T11721272 55004EQDR01      7SKY009R02      7GAS009
0156726140547422022011121546+44420-072019FM-15+0212K1V4 V02099999999999999999N9999997N5-01835-02615103385ADDAA101000095MA1103055100495REMMET08301/11/22 16:54:02 METAR K1V4 112154Z      KT M18/M26 A3043 RMK AO1 SLP338 T11831261EQDR01      7SKY009R02      7GAS009
0156726140547422022011122546+44420-072019FM-15+0212K1V4 V02099999999999999999N9999997N5-01945-02505103405ADDAA101000095MA1103085100525REMMET08301/11/22 17:54:02 METAR K1V4 112254Z      KT M19/M25 A3044 RMK AO1 SLP340 T11941250EQDR01      7SKY009R02      7GAS009
0188726140547422022011123546+44420-072019FM-15+0212K1V4 V02099999999999999999N9999997N5-02065-02565103395ADDAA101000095MA1103055100495MD1090029+9999REMMET10101/11/22 18:54:02 METAR K1V4 112354Z      KT M21/M26 A3043 RMK AO1 SLP339 T12061256 11167 21206 50002EQDR01      7SKY009R02      7GAS009
0156726140547422022011200546+44420-072019FM-15+0212K1V4 V02099999999999999999N9999997N5-02115-02615103335ADDAA101000095MA1102985100425REMMET08301/11/22 19:54:01 METAR K1V4 120054Z      KT M21/M26 A3041 RMK AO1 SLP333 T12111261EQDR01      7SKY009R02      7GAS009
0156726140547422022011201546+44420-072019FM-15+0212K1V4 V02099999999999999999N9999997N5-02285-02615103275ADDAA101000095MA1102915100365REMMET08301/11/22 20:54:01 METAR K1V4 120154Z      KT M23/M26 A3039 RMK AO1 SLP327 T12281261EQDR01      7SKY009R02      7GAS009
0176726140547422022011202546+44420-072019FM-15+0212K1V4 V02099999999999999999N9999997N5-02285-02615103195ADDAA101000095MA1102845100295MD1890209+9999REMMET08901/11/22 21:54:01 METAR K1V4 120254Z      KT M23/M26 A3037 RMK AO1 SLP319 T12281261 58020EQDR01      7SKY009R02      7GAS009
0156726140547422022011203546+44420-072019FM-15+0212K1V4 V02099999999999999999N9999997N5-02335-02675103155ADDAA101000095MA1102815100265REMMET08301/11/22 22:54:02 METAR K1V4 120354Z      KT M23/M27 A3036 RMK AO1 SLP315 T12331267EQDR01      7SKY009R02      7GAS009
0166726140547422022011204546+44420-072019FM-15+0212K1V4 V02099999999999999999N9999997N5-02335-02615102995ADDAA101000095MA1102645100095REMMET09301/11/22 23:54:02 METAR K1V4 120454Z      KT M23/M26 A3031 RMK AO1 SLP299 T12331261 411501239EQDR01      7SKY009R02      7GAS009
0622726140547422022011204596+44420-072019SOD  +0212K1V4 V020999999999999999999999999999+99999+99999999999ADDAA124000095KA1240M-01496KA2240N-02385MG1100194102134OE11249999999999997OE22249999999999997REMSOD50124 HR PRECIPITATION (IN): 0.00 24 HR MAX TEMP (F):  524 HR MIN TEMP (F):-11AVERAGE STATION PRESSURE:29.585 MINIMUM SEA LEVEL PRESSURE:30.16 TIME OF OCCURRENCE:0012 24 HR AVG TEMP (F): -3DEPART FROM NORMAL:-20  HEATING DEGREE DAYS: 68 COOLING DEGREE DAYS:  0 LATEST DAY MAX TEMP (0700-1900 LST):2   LATEST NIGHT MIN TEMP(1900-0800 LST):-8 HOURLY INCREMENTAL PRECIPITATION VALUES (IN):.00 0.00 0.00 0.00 0.00 0.00 0.00 0.00 0.00 0.00 0.00 0.00 0.00 0.00 0.00 0.00 0.00 0.00 0.00 0.00 0.00 0.00 0.00 0.00EQDR01     57KAX008
0188726140547422022011205546+44420-072019FM-15+0212K1V4 V02099999999999999999N9999997N5-02285-02615102855ADDAA101000095MA1102515099965MD1890319+9999REMMET10101/12/22 00:54:02 METAR K1V4 120554Z      KT M23/M26 A3027 RMK AO1 SLP285 T12281261 11206 21239 58031EQDR01      7SKY009R02      7GAS009
0156726140547422022011206546+44420-072019FM-15+0212K1V4 V02099999999999999999N9999997N5-02115-02505102715ADDAA101000095MA1102405099865REMMET08301/12/22 01:54:02 METAR K1V4 120654Z      KT M21/M25 A3024 RMK AO1 SLP271 T12111250EQDR01      7SKY009R02      7GAS009
0156726140547422022011207546+44420-072019FM-15+0212K1V4 V02099999999999999999N9999997N5-01945-02335102595ADDAA101000095MA1102275099735REMMET08301/12/22 02:54:02 METAR K1V4 120754Z      KT M19/M23 A3020 RMK AO1 SLP259 T11941233EQDR01      7SKY009R02      7GAS009
0176726140547422022011208546+44420-072019FM-15+0212K1V4 V02099999999999999999N9999997N5-01725-02285102385ADDAA101000095MA1102105099565MD1890429+9999REMMET08901/12/22 03:54:02 METAR K1V4 120854Z      KT M17/M23 A3015 RMK AO1 SLP238 T11721228 58042EQDR01      7SKY009R02      7GAS009
0156726140547422022011209546+44420-072019FM-15+0212K1V4 V02099999999999999999N9999997N5-01565-02225102215ADDAA101000095MA1101935099405REMMET08301/12/22 04:54:02 METAR K1V4 120954Z      KT M16/M22 A3010 RMK AO1 SLP221 T11561222EQDR01      7SKY009R02      7GAS009
0156726140547422022011210546+44420-072019FM-15+0212K1V4 V02099999999999999999N9999997N5-01445-02175102115ADDAA101000095MA1101835099305REMMET08301/12/22 05:54:02 METAR K1V4 121054Z      KT M14/M22 A3007 RMK AO1 SLP211 T11441217EQDR01      7SKY009R02      7GAS009
0188726140547422022011211546+44420-072019FM-15+0212K1V4 V02099999999999999999N9999997N5-01395-02065102045ADDAA101000095MA1101765099235MD1690339+9999REMMET10101/12/22 06:54:02 METAR K1V4 121154Z      KT M14/M21 A3005 RMK AO1 SLP204 T11391206 11139 21228 56033EQDR01      7SKY009R02      7GAS009
0156726140547422022011212546+44420-072019FM-15+0212K1V4 V02099999999999999999N9999997N5-01335-02005102025ADDAA101000095MA1101735099205REMMET08301/12/22 07:54:02 METAR K1V4 121254Z      KT M13/M20 A3004 RMK AO1 SLP202 T11331200EQDR01      7SKY009R02      7GAS009
0156726140547422022011213546+44420-072019FM-15+0212K1V4 V02099999999999999999N9999997N5-01285-01945101975ADDAA101000095MA1101665099135REMMET08301/12/22 08:54:02 METAR K1V4 121354Z      KT M13/M19 A3002 RMK AO1 SLP197 T11281194EQDR01      7SKY009R02      7GAS009
0176726140547422022011214546+44420-072019FM-15+0212K1V4 V02099999999999999999N9999997N5-01175-01895101935ADDAA101000095MA1101665099135MD1890109+9999REMMET08901/12/22 09:54:02 METAR K1V4 121454Z      KT M12/M19 A3002 RMK AO1 SLP193 T11171189 58010EQDR01      7SKY009R02      7GAS009
0156726140547422022011215546+44420-072019FM-15+0212K1V4 V02099999999999999999N9999997N5-01115-01785101835ADDAA101000095MA1101565099035REMMET08301/12/22 10:54:02 METAR K1V4 121554Z      KT M11/M18 A2999 RMK AO1 SLP183 T11111178EQDR01      7SKY009R02      7GAS009
0156726140547422022011216546+44420-072019FM-15+0212K1V4 V02099999999999999999N9999997N5-01005-01675101735ADDAA101000095MA1101465098935REMMET08301/12/22 11:54:02 METAR K1V4 121654Z      KT M10/M17 A2996 RMK AO1 SLP173 T11001167EQDR01      7SKY009R02      7GAS009
0188726140547422022011217546+44420-072019FM-15+0212K1V4 V02099999999999999999N9999997N5-00895-01565101645ADDAA101000095MA1101395098865MD1690279+9999REMMET10101/12/22 12:54:02 METAR K1V4 121754Z      KT M09/M16 A2994 RMK AO1 SLP164 T10891156 11089 21139 56027EQDR01      7SKY009R02      7GAS009
0156726140547422022011218546+44420-072019FM-15+0212K1V4 V02099999999999999999N9999997N5-00785-01505101605ADDAA101000095MA1101355098835REMMET08301/12/22 13:54:02 METAR K1V4 121854Z      KT M08/M15 A2993 RMK AO1 SLP160 T10781150EQDR01      7SKY009R02      7GAS009
0156726140547422022011219546+44420-072019FM-15+0212K1V4 V02099999999999999999N9999997N5-00725-01395101605ADDAA101000095MA1101355098835REMMET08301/12/22 14:54:02 METAR K1V4 121954Z      KT M07/M14 A2993 RMK AO1 SLP160 T10721139EQDR01      7SKY009R02      7GAS009
0176726140547422022011220546+44420-072019FM-15+0212K1V4 V02099999999999999999N9999997N5-00675-01335101635ADDAA101000095MA1101425098905MD1390049+9999REMMET08901/12/22 15:54:02 METAR K1V4 122054Z      KT M07/M13 A2995 RMK AO1 SLP163 T10671133 53004EQDR01      7SKY009R02      7GAS009
0156726140547422022011221546+44420-072019FM-15+0212K1V4 V02099999999999999999N9999997N5-00615-01285101645ADDAA101000095MA1101425098905REMMET08301/12/22 16:54:02 METAR K1V4 122154Z      KT M06/M13 A2995 RMK AO1 SLP164 T10611128EQDR01      7SKY009R02      7GAS009
0156726140547422022011222546+44420-072019FM-15+0212K1V4 V02099999999999999999N9999997N5-00615-01175101675ADDAA101000095MA1101465098935REMMET08301/12/22 17:54:02 METAR K1V4 122254Z      KT M06/M12 A2996 RMK AO1 SLP167 T10611117EQDR01      7SKY009R02      7GAS009
0188726140547422022011223546+44420-072019FM-15+0212K1V4 V02099999999999999999N9999997N5-00675-01115101705ADDAA101000095MA1101495098965MD1390089+9999REMMET10101/12/22 18:54:02 METAR K1V4 122354Z      KT M07/M11 A2997 RMK AO1 SLP170 T10671111 11061 21089 53008EQDR01      7SKY009R02      7GAS009
0156726140547422022011300546+44420-072019FM-15+0212K1V4 V02099999999999999999N9999997N5-00675-01115101745ADDAA101000095MA1101525099005REMMET08301/12/22 19:54:01 METAR K1V4 130054Z      KT M07/M11 A2998 RMK AO1 SLP174 T10671111EQDR01      7SKY009R02      7GAS009
0156726140547422022011301546+44420-072019FM-15+0212K1V4 V02099999999999999999N9999997N5-00615-01115101785ADDAA101000095MA1101595099065REMMET08301/12/22 20:54:01 METAR K1V4 130154Z      KT M06/M11 A3000 RMK AO1 SLP178 T10611111EQDR01      7SKY009R02      7GAS009
0176726140547422022011302546+44420-072019FM-15+0212K1V4 V02099999999999999999N9999997N5-00615-01065101755ADDAA101000095MA1101565099035MD1090069+9999REMMET08901/12/22 21:54:01 METAR K1V4 130254Z      KT M06/M11 A2999 RMK AO1 SLP175 T10611106 50006EQDR01      7SKY009R02      7GAS009
0156726140547422022011303546+44420-072019FM-15+0212K1V4 V02099999999999999999N9999997N5-00615-01065101805ADDAA101000095MA1101635099105REMMET08301/12/22 22:54:01 METAR K1V4 130354Z      KT M06/M11 A3001 RMK AO1 SLP180 T10611106EQDR01      7SKY009R02      7GAS009
0166726140547422022011304546+44420-072019FM-15+0212K1V4 V02099999999999999999N9999997N5-00615-01115101775ADDAA101000095MA1101595099065REMMET09301/12/22 23:54:02 METAR K1V4 130454Z      KT M06/M11 A3000 RMK AO1 SLP177 T10611111 410611233EQDR01      7SKY009R02      7GAS009
0603726140547422022011304596+44420-072019SOD  +0212K1V4 V020999999999999999999999999999+99999+99999999999ADDAA124000095KA1240M-00605KA2240N-02325MG1099244101594OE11249999999999997OE22249999999999997REMSOD50124 HR PRECIPITATION (IN): 0.00 24 HR MAX TEMP (F): 2124 HR MIN TEMP (F):-10AVERAGE STATION PRESSURE:29.305 MINIMUM SEA LEVEL PRESSURE:30.00 TIME OF OCCURRENCE:1509 24 HR AVG TEMP (F):  6DEPART FROM NORMAL:-11  HEATING DEGREE DAYS: 59 COOLING DEGREE DAYS:  0 LATEST DAY MAX TEMP (0700-1900 LST):21  LATEST NIGHT MIN TEMP(1900-0800 LST):-11HOURLY INCREMENTAL PRECIPITATION VALUES (IN):.00 0.00 0.00 0.00 0.00 0.00 0.00 0.00 0.00 0.00 0.00 0.00 0.00 0.00 0.00 0.00 0.00 0.00 0.00 0.00 0.00 0.00 0.00 0.00
0188726140547422022011305546+44420-072019FM-15+0212K1V4 V02099999999999999999N9999997N5-00615-01115101715ADDAA101000095MA1101525099005MD1890029+9999REMMET10101/13/22 00:54:02 METAR K1V4 130554Z      KT M06/M11 A2998 RMK AO1 SLP171 T10611111 11061 21067 58002EQDR01      7SKY009R02      7GAS009
0156726140547422022011306546+44420-072019FM-15+0212K1V4 V02099999999999999999N9999997N5-00565-01065101745ADDAA101000095MA1101565099035REMMET08301/13/22 01:54:02 METAR K1V4 130654Z      KT M06/M11 A2999 RMK AO1 SLP174 T10561106EQDR01      7SKY009R02      7GAS009
0156726140547422022011307546+44420-072019FM-15+0212K1V4 V02099999999999999999N9999997N5-00615-01005101725ADDAA101000095MA1101565099035REMMET08301/13/22 02:54:02 METAR K1V4 130754Z      KT M06/M10 A2999 RMK AO1 SLP172 T10611100EQDR01      7SKY009R02      7GAS009
0176726140547422022011308546+44420-072019FM-15+0212K1V4 V02099999999999999999N9999997N5-00565-01005101705ADDAA101000095MA1101525099005MD1890019+9999REMMET08901/13/22 03:54:02 METAR K1V4 130854Z      KT M06/M10 A2998 RMK AO1 SLP170 T10561100 58001EQDR01      7SKY009R02      7GAS009
0156726140547422022011309546+44420-072019FM-15+0212K1V4 V02099999999999999999N9999997N5-00565-01005101685ADDAA101000095MA1101525099005REMMET08301/13/22 04:54:02 METAR K1V4 130954Z      KT M06/M10 A2998 RMK AO1 SLP168 T10561100EQDR01      7SKY009R02      7GAS009
0156726140547422022011310546+44420-072019FM-15+0212K1V4 V02099999999999999999N9999997N5-00565-01005101685ADDAA101000095MA1101525099005REMMET08301/13/22 05:54:02 METAR K1V4 131054Z      KT M06/M10 A2998 RMK AO1 SLP168 T10561100EQDR01      7SKY009R02      7GAS009
0188726140547422022011311546+44420-072019FM-15+0212K1V4 V02099999999999999999N9999997N5-00565-00945101705ADDAA101000095MA1101525099005MD1390019+9999REMMET10101/13/22 06:54:02 METAR K1V4 131154Z      KT M06/M09 A2998 RMK AO1 SLP170 T10561094 11056 21061 53001EQDR01      7SKY009R02      7GAS009
0156726140547422022011312546+44420-072019FM-15+0212K1V4 V02099999999999999999N9999997N5-00565-00945101735ADDAA101000095MA1101565099035REMMET08301/13/22 07:54:02 METAR K1V4 131254Z      KT M06/M09 A2999 RMK AO1 SLP173 T10561094EQDR01      7SKY009R02      7GAS009
0156726140547422022011313546+44420-072019FM-15+0212K1V4 V02099999999999999999N9999997N5-00505-00895101735ADDAA101000095MA1101565099035REMMET08301/13/22 08:54:02 METAR K1V4 131354Z      KT M05/M09 A2999 RMK AO1 SLP173 T10501089EQDR01      7SKY009R02      7GAS009
0176726140547422022011314546+44420-072019FM-15+0212K1V4 V02099999999999999999N9999997N5-00445-00835101735ADDAA101000095MA1101595099065MD1190049+9999REMMET08901/13/22 09:54:02 METAR K1V4 131454Z      KT M04/M08 A3000 RMK AO1 SLP173 T10441083 51004EQDR01      7SKY009R02      7GAS009
0156726140547422022011315546+44420-072019FM-15+0212K1V4 V02099999999999999999N9999997N5-00395-00835101665ADDAA101000095MA1101525099005REMMET08301/13/22 10:54:02 METAR K1V4 131554Z      KT M04/M08 A2998 RMK AO1 SLP166 T10391083EQDR01      7SKY009R02      7GAS009
0156726140547422022011316546+44420-072019FM-15+0212K1V4 V02099999999999999999N9999997N5-00285-00725101565ADDAA101000095MA1101425098905REMMET08301/13/22 11:54:02 METAR K1V4 131654Z      KT M03/M07 A2995 RMK AO1 SLP156 T10281072EQDR01      7SKY009R02      7GAS009
0188726140547422022011317546+44420-072019FM-15+0212K1V4 V02099999999999999999N9999997N5-00225-00675101475ADDAA101000095MA1101325098805MD1890249+9999REMMET10101/13/22 12:54:02 METAR K1V4 131754Z      KT M02/M07 A2992 RMK AO1 SLP147 T10221067 11022 21056 58024EQDR01      7SKY009R02      7GAS009
0156726140547422022011318546+44420-072019FM-15+0212K1V4 V02099999999999999999N9999997N5-00115-00565101425ADDAA101000095MA1101295098775REMMET08301/13/22 13:54:02 METAR K1V4 131854Z      KT M01/M06 A2991 RMK AO1 SLP142 T10111056EQDR01      7SKY009R02      7GAS009
0155726140547422022011319546+44420-072019FM-15+0212K1V4 V02099999999999999999N9999997N5+00005-00505101365ADDAA101000095MA1101225098705REMMET08201/13/22 14:54:02 METAR K1V4 131954Z      KT 00/M05 A2989 RMK AO1 SLP136 T00001050EQDR01      7SKY009R02      7GAS009
0175726140547422022011320546+44420-072019FM-15+0212K1V4 V02099999999999999999N9999997N5+00005-00445101345ADDAA101000095MA1101225098705MD1690129+9999REMMET08801/13/22 15:54:02 METAR K1V4 132054Z      KT 00/M04 A2989 RMK AO1 SLP134 T00001044 56012EQDR01      7SKY009R02      7GAS009
0155726140547422022011321546+44420-072019FM-15+0212K1V4 V02099999999999999999N9999997N5+00005-00445101335ADDAA101000095MA1101195098675REMMET08201/13/22 16:54:02 METAR K1V4 132154Z      KT 00/M04 A2988 RMK AO1 SLP133 T00001044EQDR01      7SKY009R02      7GAS009
0156726140547422022011322546+44420-072019FM-15+0212K1V4 V02099999999999999999N9999997N5-00115-00445101335ADDAA101000095MA1101195098675REMMET08301/13/22 17:54:02 METAR K1V4 132254Z      KT M01/M04 A2988 RMK AO1 SLP133 T10111044EQDR01      7SKY009R02      7GAS009
0188726140547422022011323546+44420-072019FM-15+0212K1V4 V02099999999999999999N9999997N5-00175-00445101395ADDAA101000095MA1101255098735MD1390049+9999REMMET10101/13/22 18:54:02 METAR K1V4 132354Z      KT M02/M04 A2990 RMK AO1 SLP139 T10171044 10006 21022 53004EQDR01      7SKY009R02      7GAS009
0156726140547422022011400546+44420-072019FM-15+0212K1V4 V02099999999999999999N9999997N5-00175-00445101405ADDAA101000095MA1101255098735REMMET08301/13/22 19:54:01 METAR K1V4 140054Z      KT M02/M04 A2990 RMK AO1 SLP140 T10171044EQDR01      7SKY009R02      7GAS009
0156726140547422022011401546+44420-072019FM-15+0212K1V4 V02099999999999999999N9999997N5-00065-00395101315ADDAA101000095MA1101195098675REMMET08301/13/22 20:54:01 METAR K1V4 140154Z      KT M01/M04 A2988 RMK AO1 SLP131 T10061039EQDR01      7SKY009R02      7GAS009
0176726140547422022011402546+44420-072019FM-15+0212K1V4 V02099999999999999999N9999997N5-00065-00395101315ADDAA101000095MA1101195098675MD1790069+9999REMMET08901/13/22 21:54:01 METAR K1V4 140254Z      KT M01/M04 A2988 RMK AO1 SLP131 T10061039 57006EQDR01      7SKY009R02      7GAS009
0156726140547422022011403546+44420-072019FM-15+0212K1V4 V02099999999999999999N9999997N5-00065-00335101295ADDAA101000095MA1101195098675REMMET08301/13/22 22:54:01 METAR K1V4 140354Z      KT M01/M03 A2988 RMK AO1 SLP129 T10061033EQDR01      7SKY009R02      7GAS009
0166726140547422022011404546+44420-072019FM-15+0212K1V4 V02099999999999999999N9999997N5-00065-00395101245ADDAA101000095MA1101125098605REMMET09301/13/22 23:54:02 METAR K1V4 140454Z      KT M01/M04 A2986 RMK AO1 SLP124 T10061039 400061061EQDR01      7SKY009R02      7GAS009
0603726140547422022011404596+44420-072019SOD  +0212K1V4 V020999999999999999999999999999+99999+99999999999ADDAA124000095KA1240M+00065KA2240N-00605MG1098874101224OE11249999999999997OE22249999999999997REMSOD50124 HR PRECIPITATION (IN): 0.00 24 HR MAX TEMP (F): 3324 HR MIN TEMP (F): 21AVERAGE STATION PRESSURE:29.195 MINIMUM SEA LEVEL PRESSURE:29.89 TIME OF OCCURRENCE:2359 24 HR AVG TEMP (F): 27DEPART FROM NORMAL: 10  HEATING DEGREE DAYS: 38 COOLING DEGREE DAYS:  0 LATEST DAY MAX TEMP (0700-1900 LST):33  LATEST NIGHT MIN TEMP(1900-0800 LST):20 HOURLY INCREMENTAL PRECIPITATION VALUES (IN):.00 0.00 0.00 0.00 0.00 0.00 0.00 0.00 0.00 0.00 0.00 0.00 0.00 0.00 0.00 0.00 0.00 0.00 0.00 0.00 0.00 0.00 0.00 0.00
0188726140547422022011405546+44420-072019FM-15+0212K1V4 V02099999999999999999N9999997N5-00115-00395101225ADDAA101000095MA1101085098575MD1890099+9999REMMET10101/14/22 00:54:02 METAR K1V4 140554Z      KT M01/M04 A2985 RMK AO1 SLP122 T10111039 10006 21017 58009EQDR01      7SKY009R02      7GAS009
0156726140547422022011406546+44420-072019FM-15+0212K1V4 V02099999999999999999N9999997N5-00115-00395101235ADDAA101000095MA1101125098605REMMET08301/14/22 01:54:02 METAR K1V4 140654Z      KT M01/M04 A2986 RMK AO1 SLP123 T10111039EQDR01      7SKY009R02      7GAS009
0156726140547422022011407546+44420-072019FM-15+0212K1V4 V02099999999999999999N9999997N5-00115-00395101205ADDAA101000095MA1101125098605REMMET08301/14/22 02:54:02 METAR K1V4 140754Z      KT M01/M04 A2986 RMK AO1 SLP120 T10111039EQDR01      7SKY009R02      7GAS009
0176726140547422022011408546+44420-072019FM-15+0212K1V4 V02099999999999999999N9999997N5-00115-00335101235ADDAA101000095MA1101125098605MD1190039+9999REMMET08901/14/22 03:54:02 METAR K1V4 140854Z      KT M01/M03 A2986 RMK AO1 SLP123 T10111033 51003EQDR01      7SKY009R02      7GAS009
0156726140547422022011409546+44420-072019FM-15+0212K1V4 V02099999999999999999N9999997N5-00065-00335101275ADDAA101000095MA1101155098635REMMET08301/14/22 04:54:02 METAR K1V4 140954Z      KT M01/M03 A2987 RMK AO1 SLP127 T10061033EQDR01      7SKY009R02      7GAS009
0156726140547422022011410546+44420-072019FM-15+0212K1V4 V02099999999999999999N9999997N5-00065-00285101345ADDAA101000095MA1101255098735REMMET08301/14/22 05:54:02 METAR K1V4 141054Z      KT M01/M03 A2990 RMK AO1 SLP134 T10061028EQDR01      7SKY009R02      7GAS009
0188726140547422022011411546+44420-072019FM-15+0212K1V4 V02099999999999999999N9999997N5-00065-00335101435ADDAA101000095MA1101325098805MD1390189+9999REMMET10101/14/22 06:54:02 METAR K1V4 141154Z      KT M01/M03 A2992 RMK AO1 SLP143 T10061033 10000 21011 53018EQDR01      7SKY009R02      7GAS009
0156726140547422022011412546+44420-072019FM-15+0212K1V4 V02099999999999999999N9999997N5-00115-00395101485ADDAA101000095MA1101355098835REMMET08301/14/22 07:54:02 METAR K1V4 141254Z      KT M01/M04 A2993 RMK AO1 SLP148 T10111039EQDR01      7SKY009R02      7GAS009
