0186726166547812025010100547+42894-073249FM-15+0252KDDH V0200205N001552200059N0160935N5+00675-00175100865ADDAA101000095GA1005+999999999GD10991+9999999GF100991999999999999999999MA1100815097835REMMET09112/31/24 19:54:03 METAR KDDH 010054Z 02003KT 10SM CLR 07/M02 A2977 RMK AO2 SLP086 T00671017
0186726166547812025010101547+42894-073249FM-15+0252KDDH V0209999C000052200059N0160935N5+00675-00175100695ADDAA101000095GA1005+999999999GD10991+9999999GF100991999999999999999999MA1100645097675REMMET09112/31/24 20:54:03 METAR KDDH 010154Z 00000KT 10SM CLR 07/M02 A2972 RMK AO2 SLP069 T00671017
0206726166547812025010102547+42894-073249FM-15+0252KDDH V0200805N001552200059N0160935N5+00725-00175100495ADDAA101000095GA1005+999999999GD10991+9999999GF100991999999999999999999MA1100475097505MD1890409+9999REMMET09712/31/24 21:54:03 METAR KDDH 010254Z 08003KT 10SM CLR 07/M02 A2967 RMK AO2 SLP049 T00721017 58040
0197726166547812025010103547+42894-073249FM-15+0252KDDH V0201005N004652200059N0160935N5+00785-00225100325ADDAA101000095GA1005+999999999GD10991+9999999GF100991999999999999999999MA1100305097345OC100935REMMET09412/31/24 22:54:03 METAR KDDH 010354Z 10009G18KT 10SM CLR 08/M02 A2962 RMK AO2 SLP032 T00781022
0247726166547812025010104547+42894-073249FM-15+0252KDDH V0200905V00365030485MN0160935N5+00835-00335100235ADDAA101000095GA1075+030485999GD13991+0304859GE19AGL   +99999+99999GF199999999999030481999999KA1240M+01061KA2240N+00061MA1100205097245REMMET10412/31/24 23:54:03 METAR KDDH 010454Z 09007KT 10SM BKN100 08/M03 A2959 RMK AO2 SLP023 T00831033 401060006
0886726166547812025010104596+42894-073249SOD  +0252KDDH V020999999999999999999999999999+99999+99999999999ADDAA124000025KA1240M+01065KA2240N+00065MG1097904100244OE11240125211022425OE22240071511022415OE33240017499999995REMSOD73024 HR PRECIPITATION (IN):T     24 HR MAX TEMP (F):51 24 HR MAX TEMP TIME (LST):1459 24 HR MIN TEMP (F):33 24 HR MIN TEMP TIME (LST):0817 AVERAGE STATION PRESSURE:28.910 MINIMUM SEA LEVEL PRESSURE:29.60 TIME OF OCCURRENCE:2359 PEAK WIND SPEED (MPH):28  PEAK WIND DIR (DEG):110 PEAK WIND TIME (LST):2242  FASTEST 2MIN SPEED (MPH):16 FASTEST 2MIN DIR (DEG):110 FASTEST 2MIN TIME (LST):2241 AVERAGE WIND SPEED (MPH):3.9  24 HR AVG TEMP (F):42 HEATING DEGREE DAYS:23  COOLING DEGREE DAYS:0   LATEST DAY MAX TEMP (0700-1900 LST):51  LATEST NIGHT MIN TEMP(1900-0800 LST):38 HOURLY INCREMENTAL PRECIPITATION VALUES (IN):    0.00 0.00 0.00 0.00 0.00 0.00 0.00 0.00 0.00 0.00 0.00 0.00 0.00 0.00 0.00 0.00 0.00 0.00 0.00 0.00 0.00 0.00 0.00EQDR01     N7GJS072R02     N7GKS075
1260726166547812025010104596+42894-073249SOM  +0252KDDH V020999999999999999999999999999+99999+99999999999ADDAB10097096AD10045591112999999996AE1155085025015AH1005001590914495AH2010002590914525AH3015003090914575AH4020003890914525AH5030005190914575AH6045006690915075AI1060008490915235AI2080010490915145AI3100012490915335AI4120014290915525AI5150016890916195AI6180018390916445KB1744N-06445KB2744M+02565KB3744A-01945KC1N9-02052399995KC2M9+01551199995KD1744H11245KD2744C00005KE1135005255045MH1098974102074MK1104841410295099491117535REMSOM796PCP MTOT:3.82 PCP GT 24HRS:1.79 DATE(S):11-12 DAYS W/PCP >=.01:15 DAYS W/PCP >=.10:8  DAYS W/ PCP >=.50:2 DAYS W/PCP >=1.00:1 MSDP AMTS W/DATE-TIME TAGS:MIN:5 0.06  09/1449 MIN:10 0.10  09/1452 MIN:15 0.12  09/1457 MIN:20 0.15  09/1452 MIN:30 0.20  09/1457 MIN:45 0.26  09/1507 MIN:60 0.33  09/1523 MIN:80 0.41  09/1514 MIN:100 0.49  09/1533 MIN:120 0.56  09/1552 MIN:150 0.66  09/1619 MIN:180 0.72  09/1644 AVG DLY MIN:20.4  AVG DLY MAX:36.6  AVG MLY TMP:28.5  MIN TMP:-5 DATE(S):23 MAX TMP:60  DATE(S):11 DAYS MAX <=32:1 DAYS MAX >=90:0  DAYS MIN <=32:25 DAYS MIN  <=0:4  AVG STP:29.225 LWST SLP:29.38 DATE/TIME:111753 HGST SLP:30.96 DATE/TIME:141029 HDD MTH TOT:1124 DEP NORM:-2553 SEASON(JUL 1-JUN 30):2409 DEP NORM:-25536 CDD MTH TOT:0 DEP NORM:-2553 SEASON(JAN 1-DEC 31):552 DEP NORM:-25536EQDR01  3.827ABP070R02  1.797ADP081
0393726166547812025010105547+42894-073249FM-15+0252KDDH V0201205N00625016765MN0160935N5+00785-00285100175ADDAA101000025AA206000021AU110020015AW1615GA1075+016765999GA2085+022865999GD13991+0167659GD24991+0228659GE19AGL   +99999+99999GF199999999999016761999999KA1060M+00891KA2060N+00561MA1100145097175MD1690309+9999MW1615OC100935REMMET14401/01/25 00:54:02 METAR KDDH 010554Z 12012G18KT 10SM -RA BKN055 OVC075 08/M03 A2957 RMK AO2 RAB48 SLP017 P0000 60000 T00781028 10089 20056 56030EQDQ01  00008PRCP06
0274726166547812025010106377+42894-073249FM-16+0252KDDH V0201405N00775014635MN0144845N5+00565+00005999999ADDAA101001031AU147000015AU210020015AW1121AW2615GA1085+014635999GD14991+0146359GE19AGL   +99999+99999GF199999999999014631999999MA1100175097205MV1015MW1615OC101085REMMET10301/01/25 01:37:02 SPECI KDDH 010637Z 14015G21KT 9SM VCTS -RA OVC048 06/00 A2958 RMK AO2 P0004 T00560000
0248726166547812025010106517+42894-073249FM-16+0252KDDH V0201005N00315013415MN0128755N5+00505+00105999999ADDAA101001231AU110020015AW1615GA1085+013415999GD14991+0134159GE19AGL   +99999+99999GF199999999999013411999999MA1100145097175MW1615OC101035REMMET10001/01/25 01:51:02 SPECI KDDH 010651Z 10006G20KT 8SM -RA OVC044 05/01 A2957 RMK AO2 LTG DSNT SW P0005
0265726166547812025010106547+42894-073249FM-15+0252KDDH V0201105N00465013415MN0112655N5+00505+00065100135ADDAA101001395AU110020015AW1615GA1085+013415999GD14991+0134159GE19AGL   +99999+99999GF199999999999013411999999MA1100105097145MW1615OC101035REMMET11701/01/25 01:54:02 METAR KDDH 010654Z 11009G20KT 7SM -RA OVC044 05/01 A2956 RMK AO2 LTG DSNT SW SLP013 P0005 T00500006
0361726166547812025010107547+42894-073249FM-15+0252KDDH V0201405N00725010975MN0096565N5+00505+00115099706ADDAA101002895AU110020015AW1615GA1075+010975999GA2075+025915999GA3085+033535999GD13991+0109759GD23991+0259159GD34991+0335359GE19AGL   +99999+99999GF199999999999010971999999MA1099705096745MW1615OC101545OD149901541130REMMET13701/01/25 02:54:02 METAR KDDH 010754Z 14014G30KT 6SM -RA BKN036 BKN085 OVC110 05/01 A2944 RMK AO2 PK WND 13030/0751 SLP970 P0011 T00500011
0352726166547812025010108077+42894-073249FM-16+0252KDDH V0201805N00675019815MN0160935N5+00505+00115999999ADDAA101000021GA1025+009755999GA2075+019815999GA3075+025915999GD11991+0097559GD23991+0198159GD33991+0259159GE19AGL   +99999+99999GF199999999999009751999999MA1099765096815OC101655OD149901641160REMMET15101/01/25 03:07:02 SPECI KDDH 010807Z 18013G32KT 10SM FEW032 BKN065 BKN085 05/01 A2946 RMK AO2 PK WND 16032/0802 WSHFT 0747 RAE06 PRESRR P0000 T00500011
0414726166547812025010108547+42894-073249FM-15+0252KDDH V0201205V00725007625MN0160935N5+00505+00065099825ADDAA101000025AA203004191GA1075+007625999GA2075+015245999GA3085+024385999GD13991+0076259GD23991+0152459GD34991+0243859GE19AGL   +99999+99999GF199999999999007621999999MA1099805096845MD1590339+9999OC101245OD149901641160REMMET16901/01/25 03:54:02 METAR KDDH 010854Z 12014G24KT 10SM BKN025 BKN050 OVC080 05/01 A2947 RMK AO2 PK WND 16032/0802 WSHFT 0747 RAE06B41E50 SLP982 P0000 60016 T00500006 55033EQDQ01  00408PRCP03
0363726166547812025010109077+42894-073249FM-16+0252KDDH V0201205V00885015245MN0160935N5+00445+00065999999ADDAA101000021AU110020015AW1615GA1025+007325999GA2075+015245999GA3085+024385999GD11991+0073259GD23991+0152459GD34991+0243859GE19AGL   +99999+99999GF199999999999007321999999MA1099765096815MW1615OC101395OD149901391140REMMET13901/01/25 04:07:02 SPECI KDDH 010907Z 12017G27KT 10SM -RA FEW024 BKN050 OVC080 04/01 A2946 RMK AO2 PK WND 14027/0858 RAB0858 P0000 T00440006
0376726166547812025010109547+42894-073249FM-15+0252KDDH V0209999V00315014635MN0160935N5+00505+00115099785ADDAA101000395AU110020015AW1615GA1025+011585999GA2075+014635999GA3085+022865999GD11991+0115859GD23991+0146359GD34991+0228659GE19AGL   +99999+99999GF199999999999011581999999MA1099765096815MW1615OC100935OD149901441100REMMET15201/01/25 04:54:02 METAR KDDH 010954Z VRB06G18KT 10SM -RA FEW038 BKN048 OVC075 05/01 A2946 RMK AO2 PK WND 10028/0922 RAB0858E29B48 SLP978 P0000 T00500011
0253726166547812025010110547+42894-073249FM-15+0252KDDH V0201205N00415014335MN0128755N5+00505+00115099795ADDAA101000895AU110020015AW1615GA1085+014335999GD14991+0143359GE19AGL   +99999+99999GF199999999999014331999999MA1099765096815MW1615OC100935REMMET10501/01/25 05:54:02 METAR KDDH 011054Z 12008G18KT 8SM -RA OVC047 05/01 A2946 RMK AO2 SLP979 P0003 T00500011
0151726166547812025010111526+42894-073249FM-16+0252KDDH V0209999C00005008845MN0160935N5+00505+00205999999ADDGA1085+008845999GD14991+0088459MA1099735096775REMMET09301/01/25 06:52:02 SPECI KDDH 011152Z 00000KT 10SM OVC029 05/02 A2945 RMK AO2 RAE29 P0001 FIBI
0404726166547812025010111547+42894-073249FM-15+0252KDDH V0209999C00005008845MN0160935N5+00505+00175099765ADDAA101000025AA206005191AA324005191AU110020015AW1615GA1075+008845999GA2085+010365999GD13991+0088459GD24991+0103659GE19AGL   +99999+99999GF199999999999008841999999KA1060M+00781MA1099735096775MD1690069+9999MW1615REMMET14901/01/25 06:54:02 METAR KDDH 011154Z 00000KT 10SM -RA BKN029 OVC034 05/02 A2945 RMK AO2 RAE29B54 SLP976 P0001 60020 70020 T00500017 10078 20039 56006EQDQ01  00508PRCP06Q02  00508PRCP24
0215726166547812025010112107+42894-073249FM-16+0252KDDH V0209999C00005009145MN0160935N5+00395+00285999999ADDAA101000021GA1085+009145999GD14991+0091459GE19AGL   +99999+99999GF199999999999009141999999MA1099735096775REMMET09801/01/25 07:10:02 SPECI KDDH 011210Z 00000KT 10SM OVC030 04/03 A2945 RMK AO2 RAE03 P0000 T00390028
0215726166547812025010112197+42894-073249FM-16+0252KDDH V0209999C00005008535MN0160935N5+00395+00285999999ADDAA101000021GA1085+008535999GD14991+0085359GE19AGL   +99999+99999GF199999999999008531999999MA1099735096775REMMET09801/01/25 07:19:02 SPECI KDDH 011219Z 00000KT 10SM OVC028 04/03 A2945 RMK AO2 RAE03 P0000 T00390028
0259726166547812025010112547+42894-073249FM-15+0252KDDH V0209999C00005003965MN0112655N5+00395+00285099795ADDAA101000025GA1075+003965999GA2085+007015999GD13991+0039659GD24991+0070159GE19AGL   +99999+99999GF199999999999003961999999MA1099765096815REMMET11101/01/25 07:54:02 METAR KDDH 011254Z 00000KT 7SM BKN013 OVC023 04/03 A2946 RMK AO2 RAE03 SLP979 P0000 T00390028
0249726166547812025010113147+42894-073249FM-16+0252KDDH V0209999C00005003665MN0032195N5+00395+00285999999ADDAU100001015AW1105GA1075+003665999GA2085+006105999GD13991+0036659GD24991+0061059GE19AGL   +99999+99999GF199999999999003661999999MA1099765096815REMMET09501/01/25 08:14:02 SPECI KDDH 011314Z 00000KT 2SM BR BKN012 OVC020 04/03 A2946 RMK AO2 T00390028
0291726166547812025010113287+42894-073249FM-16+0252KDDH V0200805N00155007925MN0040235N5+00395+00285999999ADDAU100001015AW1105GA1045+003355999GA2075+007925999GA3085+011285999GD12991+0033559GD23991+0079259GD34991+0112859GE19AGL   +99999+99999GF199999999999003351999999MA1099765096815REMMET10601/01/25 08:28:02 SPECI KDDH 011328Z 08003KT 2 1/2SM BR SCT011 BKN026 OVC037 04/03 A2946 RMK AO2 T00390028
0287726166547812025010113337+42894-073249FM-16+0252KDDH V0200705N00265011895MN0064375N5+00395+00225999999ADDAU100001015AW1105GA1025+003355999GA2045+007925999GA3085+011895999GD11991+0033559GD22991+0079259GD34991+0118959GE19AGL   +99999+99999GF199999999999003351999999MA1099765096815REMMET10201/01/25 08:33:02 SPECI KDDH 011333Z 07005KT 4SM BR FEW011 SCT026 OVC039 04/02 A2946 RMK AO2 T00390022
0248726166547812025010113547+42894-073249FM-15+0252KDDH V0209999C00005012505MN0160935N5+00445+00225099805ADDAA101000095GA1045+007625999GA2085+012505999GD12991+0076259GD24991+0125059GE19AGL   +99999+99999GF199999999999007621999999MA1099765096815REMMET10001/01/25 08:54:02 METAR KDDH 011354Z 00000KT 10SM SCT025 OVC041 04/02 A2946 RMK AO2 SLP980 T00440022
0230726166547812025010114017+42894-073249FM-16+0252KDDH V0209999C00005007625MN0160935N5+00445+00225999999ADDGA1075+007625999GA2085+013115999GD13991+0076259GD24991+0131159GE19AGL   +99999+99999GF199999999999007621999999MA1099765096815REMMET09301/01/25 09:01:02 SPECI KDDH 011401Z 00000KT 10SM BKN025 OVC043 04/02 A2946 RMK AO2 T00440022
0247726166547812025010114547+42894-073249FM-15+0252KDDH V0209999C00005006715MN0160935N5+00505+00285099835ADDAA101000095AA203000021GA1085+006715999GD14991+0067159GE19AGL   +99999+99999GF199999999999006711999999MA1099805096845MD1390079+9999REMMET10501/01/25 09:54:02 METAR KDDH 011454Z 00000KT 10SM OVC022 05/03 A2947 RMK AO2 SLP983 60000 T00500028 53007
0210726166547812025010115547+42894-073249FM-15+0252KDDH V0209999C00005005495MN0160935N5+00565+00285099785ADDAA101000095GA1085+005495999GD14991+0054959GE19AGL   +99999+99999GF199999999999005491999999MA1099765096815REMMET09301/01/25 10:54:02 METAR KDDH 011554Z 00000KT 10SM OVC018 06/03 A2946 RMK AO2 SLP978 T00560028
0210726166547812025010116547+42894-073249FM-15+0252KDDH V0209999C00005006105MN0160935N5+00565+00335099715ADDAA101000095GA1085+006105999GD14991+0061059GE19AGL   +99999+99999GF199999999999006101999999MA1099705096745REMMET09301/01/25 11:54:02 METAR KDDH 011654Z 00000KT 10SM OVC020 06/03 A2944 RMK AO2 SLP971 T00560033
0249726166547812025010117207+42894-073249FM-16+0252KDDH V0209999C00005004275MN0096565N5+00565+00335999999ADDAU100001015AW1105GA1045+002135999GA2085+004275999GD12991+0021359GD24991+0042759GE19AGL   +99999+99999GF199999999999002131999999MA1099665096715REMMET09501/01/25 12:20:02 SPECI KDDH 011720Z 00000KT 6SM BR SCT007 OVC014 06/03 A2943 RMK AO2 T00560033
0229726166547812025010117277+42894-073249FM-16+0252KDDH V0209999C00005002135MN0144845N5+00565+00335999999ADDGA1075+002135999GA2085+004275999GD13991+0021359GD24991+0042759GE19AGL   +99999+99999GF199999999999002131999999MA1099665096715REMMET09201/01/25 12:27:02 SPECI KDDH 011727Z 00000KT 9SM BKN007 OVC014 06/03 A2943 RMK AO2 T00560033
0230726166547812025010117407+42894-073249FM-16+0252KDDH V0209999C00005003965MN0160935N5+00565+00395999999ADDGA1045+002135999GA2085+003965999GD12991+0021359GD24991+0039659GE19AGL   +99999+99999GF199999999999002131999999MA1099665096715REMMET09301/01/25 12:40:02 SPECI KDDH 011740Z 00000KT 10SM SCT007 OVC013 06/04 A2943 RMK AO2 T00560039
0189726166547812025010117526+42894-073249FM-16+0252KDDH V0209999C00005002745MN0160935N5+00605+00405999999ADDGA1075+002745999GA2085+004275999GD13991+0027459GD24991+0042759MA1099665096715REMMET10001/01/25 12:52:02 SPECI KDDH 011752Z 00000KT 10SM BKN009 OVC014 06/04 A2943 RMK AO2 CIG 007V012 FIBI
0335726166547812025010117547+42894-073249FM-15+0252KDDH V0209999C00005002745MN0160935N5+00565+00395099705ADDAA101000095AA206000021GA1075+002745999GA2085+004275999GD13991+0027451GD24991+0042759GE19AGL   +99999+99999GF199999999999002741999999KA1060M+00561KA2060N+00391MA1099665096715MD1590079+9999REMMET13601/01/25 12:54:02 METAR KDDH 011754Z 00000KT 10SM BKN009 OVC014 06/04 A2943 RMK AO2 CIG 007V012 SLP970 60000 T00560039 10056 20039 55007
0265726166547812025010118177+42894-073249FM-16+0252KDDH V0209999V00215002135MN0040235N5+00565+00335999999ADDAU100001015AW1105GA1075+002135999GA2085+003965999GD13991+0021351GD24991+0039659GE19AGL   +99999+99999GF199999999999002131999999MA1099705096745REMMET11101/01/25 13:17:02 SPECI KDDH 011817Z VRB04KT 2 1/2SM BR BKN007 OVC013 06/03 A2944 RMK AO2 CIG 007V010 T00560033
0277726166547812025010118297+42894-073249FM-16+0252KDDH V0209999V00215002445MN0028165N5+00505+00335999999ADDAA101000021AU110020015AU200001015AW1105AW2615GA1085+002445999GD14991+0024451GE19AGL   +99999+99999GF199999999999002441999999MA1099665096715MW1615REMMET12001/01/25 13:29:02 SPECI KDDH 011829Z VRB04KT 1 3/4SM -RA BR OVC008 05/03 A2943 RMK AO2 RAB20 CIG 005V010 P0000 T00500033
0311726166547812025010118427+42894-073249FM-16+0252KDDH V0209999V00215002135MN0032195N5+00505+00335999999ADDAA101000021AU110020015AU200001015AW1105AW2615GA1075+002135999GA2085+003355999GD13991+0021351GD24991+0033559GE19AGL   +99999+99999GF199999999999002131999999MA1099665096715MW1615REMMET12301/01/25 13:42:02 SPECI KDDH 011842Z VRB04KT 2SM -RA BR BKN007 OVC011 05/03 A2943 RMK AO2 RAB20 CIG 005V010 P0000 T00500033
0247726166547812025010118526+42894-073249FM-16+0252KDDH V0202305V00365001835MN0064375N5+00505+00305999999ADDAU110020015AU200001015AW1105AW2615GA1075+001835999GA2085+003055999GD13991+0018359GD24991+0030559MA1099705096745MW1615REMMET11801/01/25 13:52:02 SPECI KDDH 011852Z 23007KT 4SM -RA BR BKN006 OVC010 05/03 A2944 RMK AO2 RAB20 CIG 004V009 P0000 FIBI
0318726166547812025010118547+42894-073249FM-15+0252KDDH V0202405N00315001835MN0096565N5+00505+00335099725ADDAA101000025AU110020015AU200001015AW1105AW2615GA1075+001835999GA2085+003055999GD13991+0018351GD24991+0030559GE19AGL   +99999+99999GF199999999999001831999999MA1099705096745MW1615REMMET13001/01/25 13:54:02 METAR KDDH 011854Z 24006KT 6SM -RA BR BKN006 OVC010 05/03 A2944 RMK AO2 RAB20 CIG 004V008 SLP972 P0000 T00500033
0271726166547812025010119397+42894-073249FM-16+0252KDDH V0202405N00465003055MN0160935N5+00505+00285999999ADDAA101000231GA1075+003055999GA2085+004885999GD13991+0030551GD24991+0048859GE19AGL   +99999+99999GF199999999999003051999999MA1099735096775REMMET12301/01/25 14:39:02 SPECI KDDH 011939Z 24009KT 10SM BKN010 OVC016 05/03 A2945 RMK AO2 RAE00B19E38 CIG 006V012 P0001 T00500028
0239726166547812025010119547+42894-073249FM-15+0252KDDH V0202905N00465003055MN0160935N5+00445+00225099795ADDAA101000395GA1085+003055999GD14991+0030559GE19AGL   +99999+99999GF199999999999003051999999MA1099765096815OC100885REMMET11401/01/25 14:54:02 METAR KDDH 011954Z 29009G17KT 10SM OVC010 04/02 A2946 RMK AO2 RAE00B19E38 SLP979 P0001 T00440022
0229726166547812025010120526+42894-073249FM-16+0252KDDH V0209999V00315004885MN0160935N5+00405+00205999999ADDAU110020015AW1615GA1075+004885999GA2085+006405999GD13991+0048859GD24991+0064059MA1099835096875MW1615OC100935REMMET10901/01/25 15:52:02 SPECI KDDH 012052Z VRB06G18KT 10SM -RA BKN016 OVC021 04/02 A2948 RMK AO2 RAB1958 P0000 FIBI
0356726166547812025010120547+42894-073249FM-15+0252KDDH V0202605V00365004885MN0160935N5+00395+00175099875ADDAA101000025AA203000391AU110020015AW1615GA1075+004885999GA2085+006405999GD13991+0048859GD24991+0064059GE19AGL   +99999+99999GF199999999999004881999999MA1099835096875MD1390169+9999MW1615OC100825REMMET13301/01/25 15:54:02 METAR KDDH 012054Z 26007G16KT 10SM -RA BKN016 OVC021 04/02 A2948 RMK AO2 RAB1958 SLP987 P0000 60001 T00390017 53016EQDQ01  00028PRCP03
0274726166547812025010121057+42894-073249FM-16+0252KDDH V0202305N00465004275MN0160935N5+00395+00115999999ADDAA101000021AU110020015AW1615GA1075+004275999GA2085+006405999GD13991+0042759GD24991+0064059GE19AGL   +99999+99999GF199999999999004271999999MA1099865096915MW1615REMMET10301/01/25 16:05:02 SPECI KDDH 012105Z 23009KT 10SM -RA BKN014 OVC021 04/01 A2949 RMK AO2 P0000 T00390011
0323726166547812025010121217+42894-073249FM-16+0252KDDH V0202605V00365004575MN0160935N5+00395+00065999999ADDAA101000231AU110020015AW1615GA1075+004575999GA2075+005795999GA3085+008235999GD13991+0045759GD23991+0057959GD34991+0082359GE19AGL   +99999+99999GF199999999999004571999999MA1099865096915MW1615OC101245REMMET11301/01/25 16:21:02 SPECI KDDH 012121Z 26007G24KT 10SM -RA BKN015 BKN019 OVC027 04/01 A2949 RMK AO2 P0001 T00390006
0280726166547812025010121547+42894-073249FM-15+0252KDDH V0202505N00265004275MN0112655N5+00335+00115099915ADDAA101000895AU110020015AW1615GA1075+004275999GA2085+007925999GD13991+0042759GD24991+0079259GE19AGL   +99999+99999GF199999999999004271999999MA1099865096915MW1615REMMET10901/01/25 16:54:02 METAR KDDH 012154Z 25005KT 7SM -RA BKN014 OVC026 03/01 A2949 RMK AO2 SLP991 P0003 T00330011
0304726166547812025010122417+42894-073249FM-16+0252KDDH V0202505N00515005495MN0096565N5+00225+00005999999ADDAA101000731AU110020015AU200001015AW1105AW2615GA1045+003665999GA2085+005495999GD12991+0036659GD24991+0054959GE19AGL   +99999+99999GF199999999999003661999999MA1099905096945MW1615OC100885REMMET10801/01/25 17:41:02 SPECI KDDH 012241Z 25010G17KT 6SM -RA BR SCT012 OVC018 02/00 A2950 RMK AO2 P0003 T00220000
0291726166547812025010122547+42894-073249FM-15+0252KDDH V0209999V00215005495MN0144845N5+00225+00005099965ADDAA101001095AU110020015AW1615GA1045+003355999GA2085+005495999GD12991+0033559GD24991+0054959GE19AGL   +99999+99999GF199999999999003351999999MA1099935096975MW1615OC100725REMMET11201/01/25 17:54:02 METAR KDDH 012254Z VRB04G14KT 9SM -RA SCT011 OVC018 02/00 A2951 RMK AO2 SLP996 P0004 T00220000
0258726166547812025010123477+42894-073249FM-16+0252KDDH V0202405N00415004275MN0096565N5+00225-00065999999ADDAA101000731AU110030015AW1715GA1085+004275999GD14991+0042759GE19AGL   +99999+99999GF199999999999004271999999MA1099975097015MW1715OC100985REMMET11001/01/25 18:47:02 SPECI KDDH 012347Z 24008G19KT 6SM -SN OVC014 02/M01 A2952 RMK AO2 RAE17SNB17 P0003 T00221006
0359726166547812025010123547+42894-073249FM-15+0252KDDH V0202405V00415004275MN0112655N5+00225-00065100005ADDAA101001095AA206002891AU110030015AW1715GA1085+004275999GD14991+0042759GE19AGL   +99999+99999GF199999999999004271999999KA1060M+00501KA2060N+00221MA1099975097015MD1190119+9999MW1715OC100825REMMET14101/01/25 18:54:02 METAR KDDH 012354Z 24008G16KT 7SM -SN OVC014 02/M01 A2952 RMK AO2 RAE17SNB17 SLP000 P0003 60011 T00221006 10050 20022 51011EQDQ01  00278PRCP06
0305726166547812025010200377+42894-073249FM-16+0252KDDH V0202405V00575003055MN0032195N5+00115-00065999999ADDAA101000731AU110030015AU200001015AW1105AW2715GA1075+003055999GA2085+004275999GD13991+0030559GD24991+0042759GE19AGL   +99999+99999GF199999999999003051999999MA1100005097045MW1715OC101135REMMET10901/01/25 19:37:01 SPECI KDDH 020037Z 24011G22KT 2SM -SN BR BKN010 OVC014 01/M01 A2953 RMK AO2 P0003 T00111006
0301726166547812025010200547+42894-073249FM-15+0252KDDH V0202505N00415003055MN0032195N5+00115-00065100055ADDAA101000895AU110030015AU200001015AW1105AW2715GA1075+003055999GA2085+004575999GD13991+0030559GD24991+0045759GE19AGL   +99999+99999GF199999999999003051999999MA1100005097045MW1715REMMET11301/01/25 19:54:01 METAR KDDH 020054Z 25008KT 2SM -SN BR BKN010 OVC015 01/M01 A2953 RMK AO2 SLP005 P0004 T00111006
0309726166547812025010201137+42894-073249FM-16+0252KDDH V0202405N00465004575MN0040235N5+00115-00115999999ADDAA101000021AU110030015AU200001015AW1105AW2715GA1025+002745999GA2085+004575999GD11991+0027459GD24991+0045759GE19AGL   +99999+99999GF199999999999002741999999MA1100005097045MW1715OC100985REMMET11301/01/25 20:13:01 SPECI KDDH 020113Z 24009G19KT 2 1/2SM -SN BR FEW009 OVC015 01/M01 A2953 RMK AO2 P0000 T00111011
0267726166547812025010201457+42894-073249FM-16+0252KDDH V0202505V00415005185MN0048285N5+00115-00115999999ADDAA101000231AU110030015AU200001015AW1105AW2715GA1085+005185999GD14991+0051859GE19AGL   +99999+99999GF199999999999005181999999MA1100035097075MW1715OC101035REMMET10201/01/25 20:45:01 SPECI KDDH 020145Z 25008G20KT 3SM -SN BR OVC017 01/M01 A2954 RMK AO2 P0001 T00111011
0274726166547812025010201547+42894-073249FM-15+0252KDDH V0202405V00365005185MN0048285N5+00115-00115100095ADDAA101000395AU110030015AU200001015AW1105AW2715GA1085+005185999GD14991+0051859GE19AGL   +99999+99999GF199999999999005181999999MA1100035097075MW1715OC101035REMMET10901/01/25 20:54:01 METAR KDDH 020154Z 24007G20KT 3SM -SN BR OVC017 01/M01 A2954 RMK AO2 SLP009 P0001 T00111011
0285726166547812025010202107+42894-073249FM-16+0252KDDH V0202605N00625004885MN0032195N5+00115-00175999999ADDAA101000021AU110030015AW1715GA1075+004885999GA2085+006405999GD13991+0048859GD24991+0064059GE19AGL   +99999+99999GF199999999999004881999999MA1100075097115MW1715OC101185REMMET10601/01/25 21:10:01 SPECI KDDH 020210Z 26012G23KT 2SM -SN BKN016 OVC021 01/M02 A2955 RMK AO2 P0000 T00111017
0314726166547812025010202547+42894-073249FM-15+0252KDDH V0202605N00515005795MN0040235N5+00115-00175100145ADDAA101000395AA203001591AU110030015AW1715GA1085+005795999GD14991+0057959GE19AGL   +99999+99999GF199999999999005791999999MA1100105097145MD1390149+9999MW1715OC100825REMMET12201/01/25 21:54:01 METAR KDDH 020254Z 26010G16KT 2 1/2SM -SN OVC019 01/M02 A2956 RMK AO2 SLP014 P0001 60006 T00111017 53014EQDQ01  00158PRCP03
0247726166547812025010203037+42894-073249FM-16+0252KDDH V0202505V00515005795MN0048285N5+00115-00175999999ADDAA101000021AU110030015AW1715GA1085+005795999GD14991+0057959GE19AGL   +99999+99999GF199999999999005791999999MA1100105097145MW1715OC101035REMMET09901/01/25 22:03:01 SPECI KDDH 020303Z 25010G20KT 3SM -SN OVC019 01/M02 A2956 RMK AO2 P0000 T00111017
0271726166547812025010203547+42894-073249FM-15+0252KDDH V0202705V00575006715MN0144845N5+00115-00225100175ADDAA101000025GA1075+006715999GA2085+010065999GD13991+0067159GD24991+0100659GE19AGL   +99999+99999GF199999999999006711999999MA1100145097175OC101035REMMET11501/01/25 22:54:02 METAR KDDH 020354Z 27011G20KT 9SM BKN022 OVC033 01/M02 A2957 RMK AO2 SNE50 SLP017 P0000 T00111022
0372726166547812025010204547+42894-073249FM-15+0252KDDH V0202405V00465007015MN0080475N5+00065-00225100185ADDAA101000025AU110030015AW1715GA1045+005495999GA2075+007015999GA3085+010975999GD12991+0054959GD23991+0070159GD34991+0109759GE19AGL   +99999+99999GF199999999999005491999999KA1240M+00831KA2240N+00061MA1100145097175MW1715OC101085REMMET13601/01/25 23:54:02 METAR KDDH 020454Z 24009G21KT 5SM -SN SCT018 BKN023 OVC036 01/M02 A2957 RMK AO2 SNB08 SLP018 P0000 T00061022 400830006
0947726166547812025010204596+42894-073249SOD  +0252KDDH V020999999999999999999999999999+99999+99999999999ADDAA124009495AT1AU03TS  5AT2AU16RA  5AT3AU18SN  5AT4AU13BR  5KA1240M+00835KA2240N+00065MG1096904099704OE11240160916003026OE22240102816003155OE33240030499999995REMSOD72724 HR PRECIPITATION (IN):0.37  24 HR MAX TEMP (F):47 24 HR MAX TEMP TIME (LST):0046 24 HR MIN TEMP (F):33 24 HR MIN TEMP TIME (LST):2359 AVERAGE STATION PRESSURE:28.615 MINIMUM SEA LEVEL PRESSURE:29.44 TIME OF OCCURRENCE:1345 PEAK WIND SPEED (MPH):36  PEAK WIND DIR (DEG):160 PEAK WIND TIME (LST):0302  FASTEST 2MIN SPEED (MPH):23 FASTEST 2MIN DIR (DEG):160 FASTEST 2MIN TIME (LST):0315 AVERAGE WIND SPEED (MPH):6.8  24 HR AVG TEMP (F):40 HEATING DEGREE DAYS:25  COOLING DEGREE DAYS:0   LATEST DAY MAX TEMP (0700-1900 LST):42  LATEST NIGHT MIN TEMP(1900-0800 LST):39 HOURLY INCREMENTAL PRECIPITATION VALUES (IN):    0.05 0.11 T    0.01 0.03 T    T    0.00 0.00 0.00 0.00 0.00 T    0.01 T    0.03 0.04 0.04 0.03 0.01 0.01 T    TEQDR01     N7GJS072R02     N7GKS075R03    367OES063
0285726166547812025010205127+42894-073249FM-16+0252KDDH V0209999V00315005495MN0032195N5+00065-00225999999ADDAA101000021AU110030015AW1715GA1075+005495999GA2085+008235999GD13991+0054959GD24991+0082359GE19AGL   +99999+99999GF199999999999005491999999MA1100175097205MW1715OC100985REMMET10601/02/25 00:12:02 SPECI KDDH 020512Z VRB06G19KT 2SM -SN BKN018 OVC027 01/M02 A2958 RMK AO2 P0000 T00061022
0305726166547812025010205337+42894-073249FM-16+0252KDDH V0202605V00515005185MN0048285N5+00005-00225999999ADDAA101000021AU110030015AU200001015AW1105AW2715GA1075+005185999GA2085+007325999GD13991+0051859GD24991+0073259GE19AGL   +99999+99999GF199999999999005181999999MA1100175097205MW1715OC100935REMMET10901/02/25 00:33:02 SPECI KDDH 020533Z 26010G18KT 3SM -SN BR BKN017 OVC024 00/M02 A2958 RMK AO2 P0000 T00001022
0424726166547812025010205547+42894-073249FM-15+0252KDDH V0202605N00315007925MN0096565N5+00065-00285100215ADDAA101000025AA206001591AU110030015AW1715GA1045+005185999GA2075+007925999GA3085+010065999GD12991+0051859GD23991+0079259GD34991+0100659GE19AGL   +99999+99999GF199999999999005181999999KA1060M+00221KA2060N+00001MA1100175097205MD1290069+9999MW1715OC101135REMMET14401/02/25 00:54:02 METAR KDDH 020554Z 26006G22KT 6SM -SN SCT017 BKN026 OVC033 01/M03 A2958 RMK AO2 SLP021 P0000 60006 T00061028 10022 20000 52006EQDQ01  00158PRCP06
0302726166547812025010206077+42894-073249FM-16+0252KDDH V0202805V00515010675MN0144845N5+00065-00335999999ADDAA101000021GA1025+005185999GA2075+010675999GA3085+012805999GD11991+0051859GD23991+0106759GD34991+0128059GE19AGL   +99999+99999GF199999999999005181999999MA1100175097205OC101135REMMET11501/02/25 01:07:02 SPECI KDDH 020607Z 28010G22KT 9SM FEW017 BKN035 OVC042 01/M03 A2958 RMK AO2 SNE03 P0000 T00061033
0310726166547812025010206547+42894-073249FM-15+0252KDDH V0202805N00675010675MN0160935N5+00065-00445100285ADDAA101000025GA1045+008535999GA2075+010675999GA3085+012805999GD12991+0085359GD23991+0106759GD34991+0128059GE19AGL   +99999+99999GF199999999999008531999999MA1100245097275OC101295REMMET12301/02/25 01:54:02 METAR KDDH 020654Z 28013G25KT 10SM SCT028 BKN035 OVC042 01/M04 A2960 RMK AO2 SNE03 SLP028 P0000 T00061044
0292726166547812025010207547+42894-073249FM-15+0252KDDH V0202605N00575024385MN0160935N5+00065-00565100365ADDAA101000095GA1025+016765999GA2085+024385999GD11991+0167659GD24991+0243859GE19AGL   +99999+99999GF199999999999016761999999MA1100305097345OC101135OD149901491270REMMET12201/02/25 02:54:02 METAR KDDH 020754Z 26011G22KT 10SM FEW055 OVC080 01/M06 A2962 RMK AO2 PK WND 27029/0655 SLP036 T00061056
0297726166547812025010208547+42894-073249FM-15+0252KDDH V0202505N00515024385MN0160935N5+00005-00615100415ADDAA101000095AA203000021GA1025+015245999GA2085+024385999GD11991+0152459GD24991+0243859GE19AGL   +99999+99999GF199999999999015241999999MA1100375097405MD1190199+9999OC101035REMMET11601/02/25 03:54:02 METAR KDDH 020854Z 25010G20KT 10SM FEW050 OVC080 00/M06 A2964 RMK AO2 SLP041 60000 T00001061 51019
0222726166547812025010209547+42894-073249FM-15+0252KDDH V0202605N00675028965MN0160935N5+00005-00725100455ADDAA101000095GA1085+028965999GD14991+0289659GE19AGL   +99999+99999GF199999999999028961999999MA1100375097405OC101135REMMET09701/02/25 04:54:02 METAR KDDH 020954Z 26013G22KT 10SM OVC095 00/M07 A2964 RMK AO2 SLP045 T00001072
0223726166547812025010210547+42894-073249FM-15+0252KDDH V0202805V00465030485MN0160935N5-00065-00725100525ADDAA101000095GA1075+030485999GD13991+0304859GE19AGL   +99999+99999GF199999999999030481999999MA1100445097475OC100885REMMET09801/02/25 05:54:02 METAR KDDH 021054Z 28009G17KT 10SM BKN100 M01/M07 A2966 RMK AO2 SLP052 T10061072
0372726166547812025010211547+42894-073249FM-15+0252KDDH V0202605V00415036585MN0160935N5-00065-00725100625ADDAA101000095AA206000021AA324004391GA1045+014025999GA2085+036585999GD12991+0140259GD24991+0365859GE19AGL   +99999+99999GF199999999999014021999999KA1060M+00061KA2060N-00111MA1100545097575MD1390199+9999OC100775REMMET13501/02/25 06:54:02 METAR KDDH 021154Z 26008G15KT 10SM SCT046 OVC120 M01/M07 A2969 RMK AO2 SLP062 60000 70017 T10061072 10006 21011 53019EQDQ01  00438PRCP24
0242726166547812025010212547+42894-073249FM-15+0252KDDH V0202705N004652200059N0160935N5-00065-00725100655ADDAA101000095GA1025+013725999GD11991+0137259GE19AGL   +99999+99999GF102995999999013721999999MA1100585097605OC100885REMMET09801/02/25 07:54:02 METAR KDDH 021254Z 27009G17KT 10SM FEW045 M01/M07 A2970 RMK AO2 SLP065 T10061072EQDD01      0ADE726
0197726166547812025010213547+42894-073249FM-15+0252KDDH V0202805V004152200059N0160935N5+00005-00725100735ADDAA101000095GA1005+999999999GD10991+9999999GF100991999999999999999999MA1100645097675OC101185REMMET09401/02/25 08:54:02 METAR KDDH 021354Z 28008G23KT 10SM CLR 00/M07 A2972 RMK AO2 SLP073 T00001072
0235726166547812025010214547+42894-073249FM-15+0252KDDH V0202805N006752200059N0160935N5+00065-00725100825ADDAA101000095GA1005+999999999GD10991+9999999GF100991999999999999999999MA1100755097775MD1390209+9999OC101395REMMET11801/02/25 09:54:02 METAR KDDH 021454Z 28013G27KT 10SM CLR 01/M07 A2975 RMK AO2 PK WND 27027/1449 SLP082 T00061072 53020
0273726166547812025010215547+42894-073249FM-15+0252KDDH V0202805N006752200059N0160935N5+00175-00725100795ADDAA101000095GA1025+013725999GD11991+0137259GE19AGL   +99999+99999GF102995999999013721999999MA1100755097775OC101245OD149901641280REMMET11501/02/25 10:54:02 METAR KDDH 021554Z 28013G24KT 10SM FEW045 02/M07 A2975 RMK AO2 PK WND 28032/1530 SLP079 T00171072EQDD01      0ADE726
0273726166547812025010216547+42894-073249FM-15+0252KDDH V0203005V006252200059N0160935N5+00285-00675100705ADDAA101000095GA1025+015245999GD11991+0152459GE19AGL   +99999+99999GF102995999999015241999999MA1100645097675OC101295OD149901441270REMMET11501/02/25 11:54:02 METAR KDDH 021654Z 30012G25KT 10SM FEW050 03/M07 A2972 RMK AO2 PK WND 27028/1556 SLP070 T00281067EQDD01      0ADE726
0312726166547812025010217547+42894-073249FM-15+0252KDDH V0202705N01035019815MN0160935N5+00225-00725100655ADDAA101000095GA1075+019815999GD13991+0198159GE19AGL   +99999+99999GF199999999999019811999999KA1060M+00281KA2060N-00111MA1100615097635MD1890159+9999OC101755OD149901751280REMMET13301/02/25 12:54:02 METAR KDDH 021754Z 27020G34KT 10SM BKN065 02/M07 A2971 RMK AO2 PK WND 28034/1753 SLP065 T00221072 10028 21011 58015
0330726166547812025010218547+42894-073249FM-15+0252KDDH V0202405V00625022865MN0160935N5+00065-00395100715ADDAA101000095GA1045+018295999GA2075+022865999GA3075+030485999GD12991+0182959GD23991+0228659GD33991+0304859GE19AGL   +99999+99999GF199999999999018291999999MA1100645097675OC101135OD149901441280REMMET12901/02/25 13:54:02 METAR KDDH 021854Z 24012G22KT 10SM SCT060 BKN075 BKN100 01/M04 A2972 RMK AO2 PK WND 28028/1755 SLP071 T00061039
0340726166547812025010219547+42894-073249FM-15+0252KDDH V0202805N00625021345MN0040235N5+00005-00335100775ADDAA101000025AU110030015AW1715GA1025+004885999GA2075+021345999GA3085+028965999GD11991+0048859GD23991+0213459GD34991+0289659GE19AGL   +99999+99999GF199999999999004881999999MA1100715097735MW1715OC101035REMMET13001/02/25 14:54:02 METAR KDDH 021954Z 28012G20KT 2 1/2SM -SN FEW016 BKN070 OVC095 00/M03 A2974 RMK AO2 SNB48 SLP077 P0000 T00001033
0321726166547812025010220137+42894-073249FM-16+0252KDDH V0202705N00575004275MN0040235N5+00005-00335999999ADDAA101000021AU110030015AW1715GA1075+004275999GA2085+010675999GD13991+0042759GD24991+0106759GE19AGL   +99999+99999GF199999999999004271999999MA1100715097735MW1715OC101445OD149901441270REMMET12801/02/25 15:13:02 SPECI KDDH 022013Z 27011G28KT 2 1/2SM -SN BKN014 OVC035 00/M03 A2974 RMK AO2 PK WND 27028/2004 P0000 T00001033
0355726166547812025010220217+42894-073249FM-16+0252KDDH V0202505V00575003665MN0064375N5+00005-00335999999ADDAA101000021AU110030015AW1715GA1075+003665999GA2075+006715999GA3085+012505999GD13991+0036659GD23991+0067159GD34991+0125059GE19AGL   +99999+99999GF199999999999003661999999MA1100715097735MW1715OC101245OD149901441270REMMET13101/02/25 15:21:02 SPECI KDDH 022021Z 25011G24KT 4SM -SN BKN012 BKN022 OVC041 00/M03 A2974 RMK AO2 PK WND 27028/2004 P0000 T00001033
0311726166547812025010220367+42894-073249FM-16+0252KDDH V0202405V00365003665MN0028165N5-00065-00335999999ADDAA101000021AU110030015AW1715GA1075+003665999GA2085+007625999GD13991+0036659GD24991+0076259GE19AGL   +99999+99999GF199999999999003661999999MA1100715097735MW1715OD149901441270REMMET12601/02/25 15:36:02 SPECI KDDH 022036Z 24007KT 1 3/4SM -SN BKN012 OVC025 M01/M03 A2974 RMK AO2 PK WND 27028/2004 P0000 T10061033
0308726166547812025010220497+42894-073249FM-16+0252KDDH V0202705N00515003665MN0032195N5-00105-00305999999ADDAA101000021AU110030015AW1715GA1075+003665999GA2085+005185999GD13991+0036659GD24991+0051859GE19AGL   +99999+99999GF199999999999003661999999MA1100715097735MW1715OC101085OD149901441270REMMET11501/02/25 15:49:02 SPECI KDDH 022049Z 27010G21KT 2SM -SN BKN012 OVC017 M01/M03 A2974 RMK AO2 PK WND 27028/2004 P0000
0260726166547812025010220526+42894-073249FM-16+0252KDDH V0202405N00575003665MN0064375N5-00105-00305999999ADDAU110030015AU200001015AW1105AW2715GA1075+003665999GA2085+008535999GD13991+0036659GD24991+0085359MA1100715097735MW1715OC101085REMMET12301/02/25 15:52:02 SPECI KDDH 022052Z 24011G21KT 4SM -SN BR BKN012 OVC028 M01/M03 A2974 RMK AO2 PK WND 27028/2004 P0000 FIBI
0401726166547812025010220547+42894-073249FM-15+0252KDDH V0202405N00575003665MN0064375N5-00065-00285100805ADDAA101000025AA203000021AU110030015AU200001015AW1105AW2715GA1075+003665999GA2085+007015999GD13991+0036659GD24991+0070159GE19AGL   +99999+99999GF199999999999003661999999MA1100715097735MD1190129+9999MW1715OC101135OD149901441270REMMET14701/02/25 15:54:02 METAR KDDH 022054Z 24011G22KT 4SM -SN BR BKN012 OVC023 M01/M03 A2974 RMK AO2 PK WND 27028/2004 SLP080 P0000 60000 T10061028 51012EQDQ01  00008PRCP03
0344726166547812025010220597+42894-073249FM-16+0252KDDH V0202405N00365003355MN0032195N5-00065-00285999999ADDAA101000021AU110030015AU200001015AW1105AW2715GA1025+002445999GA2075+003355999GA3085+008235999GD11991+0024459GD23991+0033559GD34991+0082359GE19AGL   +99999+99999GF199999999999002441999999MA1100715097735MW1715OC101135REMMET11701/02/25 15:59:02 SPECI KDDH 022059Z 24007G22KT 2SM -SN BR FEW008 BKN011 OVC027 M01/M03 A2974 RMK AO2 P0000 T10061028
0290726166547812025010221067+42894-073249FM-16+0252KDDH V0202705V00575003355MN0024145N5-00065-00335999999ADDAA101000021AU110030015AW1715GA1075+003355999GA2085+006405999GD13991+0033559GD24991+0064059GE19AGL   +99999+99999GF199999999999003351999999MA1100715097735MW1715OC101295REMMET11101/02/25 16:06:02 SPECI KDDH 022106Z 27011G25KT 1 1/2SM -SN BKN011 OVC021 M01/M03 A2974 RMK AO2 P0000 T10061033
0286726166547812025010221107+42894-073249FM-16+0252KDDH V0202605V00515003355MN0048285N5-00065-00335999999ADDAA101000021AU110030015AW1715GA1075+003355999GA2085+024385999GD13991+0033559GD24991+0243859GE19AGL   +99999+99999GF199999999999003351999999MA1100715097735MW1715OC101295REMMET10701/02/25 16:10:02 SPECI KDDH 022110Z 26010G25KT 3SM -SN BKN011 OVC080 M01/M03 A2974 RMK AO2 P0000 T10061033
0267726166547812025010221547+42894-073249FM-15+0252KDDH V0202705V00575003665MN0160935N5-00115-00335100855ADDAA101000025GA1085+003665999GD14991+0036659GE19AGL   +99999+99999GF199999999999003661999999MA1100785097805OC101245OD149901391240REMMET12801/02/25 16:54:02 METAR KDDH 022154Z 27011G24KT 10SM OVC012 M01/M03 A2976 RMK AO2 PK WND 24027/2118 SNE17 SLP085 P0000 T10111033
0313726166547812025010222377+42894-073249FM-16+0252KDDH V0202605N00575004575MN0160935N5-00115-00445999999ADDGA1075+004575999GA2075+005795999GA3085+018295999GD13991+0045759GD23991+0057959GD34991+0182959GE19AGL   +99999+99999GF199999999999004571999999MA1100815097835OC101295OD149901491280REMMET12301/02/25 17:37:02 SPECI KDDH 022237Z 26011G25KT 10SM BKN015 BKN019 OVC060 M01/M04 A2977 RMK AO2 PK WND 28029/2201 T10111044
0292726166547812025010222547+42894-073249FM-15+0252KDDH V0202605N00775004275MN0144845N5-00115-00395100905ADDAA101000025GA1075+004275999GA2085+018295999GD13991+0042759GD24991+0182959GE19AGL   +99999+99999GF199999999999004271999999MA1100815097835OC101345OD149901491280REMMET12201/02/25 17:54:02 METAR KDDH 022254Z 26015G26KT 9SM BKN014 OVC060 M01/M04 A2977 RMK AO2 PK WND 28029/2201 SLP090 T10111039
0270726166547812025010223157+42894-073249FM-16+0252KDDH V0202805V00515004575MN0144845N5-00115-00445999999ADDAA101000021GA1075+004575999GA2085+007015999GD13991+0045759GD24991+0070159GE19AGL   +99999+99999GF199999999999004571999999MA1100815097835OC101245REMMET11401/02/25 18:15:02 SPECI KDDH 022315Z 28010G24KT 9SM BKN015 OVC023 M01/M04 A2977 RMK AO2 SNB2255E11 P0000 T10111044
0342726166547812025010223357+42894-073249FM-16+0252KDDH V0202305N00465004275MN0040235N5-00175-00445999999ADDAA101000021AU110030015AW1715GA1075+004275999GA2075+005795999GA3085+021345999GD13991+0042759GD23991+0057959GD34991+0213459GE19AGL   +99999+99999GF199999999999004271999999MA1100815097835MW1715OC101245REMMET13201/02/25 18:35:02 SPECI KDDH 022335Z 23009G24KT 2 1/2SM -SN BKN014 BKN019 OVC070 M02/M04 A2977 RMK AO2 SNB2255E11B17 P0000 T10171044
0362726166547812025010223427+42894-073249FM-16+0252KDDH V0202405V00515004275MN0020125N5-00175-00395999999ADDAA101000021AU110030015AU200001015AW1105AW2715GA1025+002745999GA2075+004275999GA3085+021345999GD11991+0027459GD23991+0042759GD34991+0213459GE19AGL   +99999+99999GF199999999999002741999999MA1100815097835MW1715OC101035REMMET13501/02/25 18:42:02 SPECI KDDH 022342Z 24010G20KT 1 1/4SM -SN BR FEW009 BKN014 OVC070 M02/M04 A2977 RMK AO2 SNB2255E11B17 P0000 T10171039
0312726166547812025010223527+42894-073249FM-16+0252KDDH V0202405N00515002445MN0012075N5-00205-00405999999ADDAA101000021AU110030015AU200001015AW1105AW2715GA1075+002445999GA2085+004275999GD13991+0024459GD24991+0042759GE19AGL   +99999+99999GF199999999999002441999999MA1100855097875MW1715OC101035REMMET11601/02/25 18:52:02 SPECI KDDH 022352Z 24010G20KT 3/4SM -SN BR BKN008 OVC014 M02/M04 A2978 RMK AO2 SNB2255E11B17 P0000
0424726166547812025010223537+42894-073249FM-15+0252KDDH V0202505N00515002445MN0008055N5-00175-00395100925ADDAA101000025AA206000021AU120030015AU208002015AW1355AW2725GA1075+002445999GA2085+004275999GD13991+0024459GD24991+0042759GE19AGL   +99999+99999GF199999999999002441999999KA1060M+00111KA2060N-00171MA1100855097875MD1190129+9999MW1735OC101035REMMET15801/02/25 18:53:02 METAR KDDH 022353Z 25010G20KT 1/2SM SN FZFG BKN008 OVC014 M02/M04 A2978 RMK AO2 SNB2255E11B17 SLP092 P0000 60000 T10171039 10011 21017 51012EQDQ01  00008PRCP06
0336726166547812025010300147+42894-073249FM-16+0252KDDH V0202505N00775001525MN0004025N5-00175-00395999999ADDAA101000231AU130030015AU208002015AW1355AW2735GA1075+001525999GA2085+002745999GD13991+0015259GD24991+0027459GE19AGL   +99999+99999GF199999999999001521999999MA1100855097875OC101655OD149901641240REMMET13201/02/25 19:14:01 SPECI KDDH 030014Z 25015G32KT 1/4SM +SN FZFG BKN005 OVC009 M02/M04 A2978 RMK AO2 PK WND 24032/0014 P0001 T10171039
0302726166547812025010300227+42894-073249FM-16+0252KDDH V0202805V00575001835WN0008055N5-00175-00395999999ADDAA101000231AU120030015AU208002015AW1355AW2725GA1095+001835999GD15991+0018359GE19AGL   +99999+99999GF109991999999001831999999MA1100855097875MW1735OC101655OD149901641240REMMET12301/02/25 19:22:01 SPECI KDDH 030022Z 28011G32KT 1/2SM SN FZFG VV006 M02/M04 A2978 RMK AO2 PK WND 24032/0014 P0001 T10171039
0341726166547812025010300337+42894-073249FM-16+0252KDDH V0202805N00515001525MN0008055N5-00175-00395999999ADDAA101000531AU120030015AU208002015AW1355AW2725GA1075+001525999GA2085+005185999GD13991+0015259GD24991+0051859GE19AGL   +99999+99999GF199999999999001521999999MA1100855097875MW1735OC101345OD149901641240REMMET13101/02/25 19:33:01 SPECI KDDH 030033Z 28010G26KT 1/2SM SN FZFG BKN005 OVC017 M02/M04 A2978 RMK AO2 PK WND 24032/0014 P0002 T10171039
0318726166547812025010300407+42894-073249FM-16+0252KDDH V0202405V00465001525MN0032195N5-00175-00445999999ADDAA101000531AU110030015AW1715GA1075+001525999GA2085+004575999GD13991+0015259GD24991+0045759GE19AGL   +99999+99999GF199999999999001521999999MA1100855097875MW1715OC100885OD149901641240REMMET12501/02/25 19:40:01 SPECI KDDH 030040Z 24009G17KT 2SM -SN BKN005 OVC015 M02/M04 A2978 RMK AO2 PK WND 24032/0014 P0002 T10171044
0329726166547812025010300547+42894-073249FM-15+0252KDDH V0202705V00515003355MN0020125N5-00175-00445100945ADDAA101000595AU110030015AW1715GA1075+003355999GA2085+005495999GD13991+0033559GD24991+0054959GE19AGL   +99999+99999GF199999999999003351999999MA1100855097875MW1715OC101295OD149901641240REMMET13601/02/25 19:54:01 METAR KDDH 030054Z 27010G25KT 1 1/4SM -SN BKN011 OVC018 M02/M04 A2978 RMK AO2 PK WND 24032/0014 SLP094 P0002 T10171044
0290726166547812025010301077+42894-073249FM-16+0252KDDH V0202605N00315006105MN0024145N5-00175-00505999999ADDAA101000021AU110030015AW1715GA1025+004575999GA2085+006105999GD11991+0045759GD24991+0061059GE19AGL   +99999+99999GF199999999999004571999999MA1100855097875MW1715OC101085REMMET11101/02/25 20:07:01 SPECI KDDH 030107Z 26006G21KT 1 1/2SM -SN FEW015 OVC020 M02/M05 A2978 RMK AO2 P0000 T10171050
0286726166547812025010301137+42894-073249FM-16+0252KDDH V0202705N00415006715MN0048285N5-00175-00505999999ADDAA101000021AU110030015AW1715GA1025+005185999GA2085+006715999GD11991+0051859GD24991+0067159GE19AGL   +99999+99999GF199999999999005181999999MA1100855097875MW1715OC100985REMMET10701/02/25 20:13:01 SPECI KDDH 030113Z 27008G19KT 3SM -SN FEW017 OVC022 M02/M05 A2978 RMK AO2 P0000 T10171050
0290726166547812025010301257+42894-073249FM-16+0252KDDH V0202705V00415007925MN0040235N5-00175-00565999999ADDAA101000021AU110030015AW1715GA1025+006405999GA2085+007925999GD11991+0064059GD24991+0079259GE19AGL   +99999+99999GF199999999999006401999999MA1100815097835MW1715OC101185REMMET11101/02/25 20:25:01 SPECI KDDH 030125Z 27008G23KT 2 1/2SM -SN FEW021 OVC026 M02/M06 A2977 RMK AO2 P0000 T10171056
0286726166547812025010301297+42894-073249FM-16+0252KDDH V0202805N00515009145MN0080475N5-00175-00565999999ADDAA101000021AU110030015AW1715GA1025+006715999GA2085+009145999GD11991+0067159GD24991+0091459GE19AGL   +99999+99999GF199999999999006711999999MA1100815097835MW1715OC101185REMMET10701/02/25 20:29:01 SPECI KDDH 030129Z 28010G23KT 5SM -SN FEW022 OVC030 M02/M06 A2977 RMK AO2 P0000 T10171056
0273726166547812025010301547+42894-073249FM-15+0252KDDH V0202705V00575010675MN0160935N5-00175-00615100905ADDAA101000025GA1045+008535999GA2085+010675999GD12991+0085359GD24991+0106759GE19AGL   +99999+99999GF199999999999008531999999MA1100815097835OC101135REMMET11701/02/25 20:54:01 METAR KDDH 030154Z 27011G22KT 10SM SCT028 OVC035 M02/M06 A2977 RMK AO2 SNE33 SLP090 P0000 T10171061
0313726166547812025010302287+42894-073249FM-16+0252KDDH V0202705V00465007625MN0160935N5-00175-00675999999ADDGA1075+007625999GA2075+012505999GA3085+018295999GD13991+0076259GD23991+0125059GD34991+0182959GE19AGL   +99999+99999GF199999999999007621999999MA1100815097835OC101295OD149901441250REMMET12301/02/25 21:28:01 SPECI KDDH 030228Z 27009G25KT 10SM BKN025 BKN041 OVC060 M02/M07 A2977 RMK AO2 PK WND 25028/0203 T10171067
0362726166547812025010302357+42894-073249FM-16+0252KDDH V0202605N00575014635MN0128755N5-00175-00675999999ADDAA101000021AU110030015AW1715GA1045+007015999GA2075+014635999GA3085+019815999GD12991+0070159GD23991+0146359GD34991+0198159GE19AGL   +99999+99999GF199999999999007011999999MA1100815097835MW1715OC101135OD149901441250REMMET13801/02/25 21:35:01 SPECI KDDH 030235Z 26011G22KT 8SM -SN SCT023 BKN048 OVC065 M02/M07 A2977 RMK AO2 PK WND 25028/0203 SNB34 P0000 T10171067
0402726166547812025010302547+42894-073249FM-15+0252KDDH V0202505V00415014335MN0160935N5-00175-00615100895ADDAA101000025AA203000591GA1025+007015999GA2075+014335999GA3085+018295999GD11991+0070159GD23991+0143359GD34991+0182959GE19AGL   +99999+99999GF199999999999007011999999MA1100815097835MD1890039+9999OC101345OD149901441250REMMET15701/02/25 21:54:01 METAR KDDH 030254Z 25008G26KT 10SM FEW023 BKN047 OVC060 M02/M06 A2977 RMK AO2 PK WND 25028/0203 SNB34E47 SLP089 P0000 60002 T10171061 58003EQDQ01  00058PRCP03
0299726166547812025010303547+42894-073249FM-15+0252KDDH V0202705N00515013725MN0160935N5-00225-00675100885ADDAA101000095GA1025+006105999GA2075+013725999GA3085+016765999GD11991+0061059GD23991+0137259GD34991+0167659GE19AGL   +99999+99999GF199999999999006101999999MA1100815097835OC101185REMMET11201/02/25 22:54:02 METAR KDDH 030354Z 27010G23KT 10SM FEW020 BKN045 OVC055 M02/M07 A2977 RMK AO2 SLP088 T10221067
0329726166547812025010304547+42894-073249FM-15+0252KDDH V0202505N00365015245MN0160935N5-00225-00675100875ADDAA101000095GA1045+006105999GA2085+015245999GD12991+0061059GD24991+0152459GE19AGL   +99999+99999GF199999999999006101999999KA1240M+00281KA2240N-00221MA1100815097835OC101135OD149901491280REMMET13301/02/25 23:54:02 METAR KDDH 030454Z 25007G22KT 10SM SCT020 OVC050 M02/M07 A2977 RMK AO2 PK WND 28029/0403 SLP087 T10221067 400281022
0934726166547812025010304596+42894-073249SOD  +0252KDDH V020999999999999999999999999999+99999+99999999999ADDAA124000595AT1AU18SN  5AT2AU22FZFG5AT3AU13BR  5AT4AW01FG  5KA1240M+00285KA2240N-00215MG1097544100204OE11240174328012535OE22240107328012535OE33240057299999995REMSOD73024 HR PRECIPITATION (IN):0.02  24 HR MAX TEMP (F):37 24 HR MAX TEMP TIME (LST):1323 24 HR MIN TEMP (F):28 24 HR MIN TEMP TIME (LST):2359 AVERAGE STATION PRESSURE:28.805 MINIMUM SEA LEVEL PRESSURE:29.59 TIME OF OCCURRENCE:0113 PEAK WIND SPEED (MPH):39  PEAK WIND DIR (DEG):280 PEAK WIND TIME (LST):1253  FASTEST 2MIN SPEED (MPH):24 FASTEST 2MIN DIR (DEG):280 FASTEST 2MIN TIME (LST):1253 AVERAGE WIND SPEED (MPH):12.8 24 HR AVG TEMP (F):33 HEATING DEGREE DAYS:32  COOLING DEGREE DAYS:0   LATEST DAY MAX TEMP (0700-1900 LST):37  LATEST NIGHT MIN TEMP(1900-0800 LST):30 HOURLY INCREMENTAL PRECIPITATION VALUES (IN):    T    0.00 0.00 0.00 0.00 0.00 0.00 0.00 0.00 0.00 0.00 0.00 0.00 T    T    T    T    T    0.02 T    T    0.00 0.00EQDR01     N7GJS072R02     N7GKS075
0409726166547812025010305547+42894-073249FM-15+0252KDDH V0202605V00465013725MN0160935N5-00225-00675100885ADDAA101000095AA206000591GA1025+006105999GA2075+013725999GA3085+015245999GD11991+0061059GD23991+0137259GD34991+0152459GE19AGL   +99999+99999GF199999999999006101999999KA1060M-00171KA2060N-00221MA1100815097835MD1690009+9999OC101085REMMET13601/03/25 00:54:02 METAR KDDH 030554Z 26009G21KT 10SM FEW020 BKN045 OVC050 M02/M07 A2977 RMK AO2 SLP088 60002 T10221067 11017 21022 56000EQDQ010     3APC3  Q026     3APCTEN
0261726166547812025010306547+42894-073249FM-15+0252KDDH V0202605V00625015245MN0160935N5-00225-00725100915ADDAA101000095GA1025+006405999GA2085+015245999GD11991+0064059GD24991+0152459GE19AGL   +99999+99999GF199999999999006401999999MA1100855097875OC101085REMMET10501/03/25 01:54:02 METAR KDDH 030654Z 26012G21KT 10SM FEW021 OVC050 M02/M07 A2978 RMK AO2 SLP091 T10221072
0343726166547812025010307547+42894-073249FM-15+0252KDDH V0202705N00575014025MN0080475N5-00225-00725100945ADDAA101000025AU110030015AW1715GA1025+006715999GA2075+014025999GA3085+016765999GD11991+0067159GD23991+0140259GD34991+0167659GE19AGL   +99999+99999GF199999999999006711999999MA1100855097875MW1715OC101245REMMET13301/03/25 02:54:02 METAR KDDH 030754Z 27011G24KT 5SM -SN FEW022 BKN046 OVC055 M02/M07 A2978 RMK AO2 SNB01E11B45 SLP094 P0000 T10221072
0324726166547812025010308077+42894-073249FM-16+0252KDDH V0202605V00625006105MN0048285N5-00285-00675999999ADDAA101000021AU110030015AW1715GA1075+006105999GA2075+007925999GA3085+014335999GD13991+0061059GD23991+0079259GD34991+0143359GE19AGL   +99999+99999GF199999999999006101999999MA1100885097905MW1715OC101295REMMET11401/03/25 03:07:02 SPECI KDDH 030807Z 26012G25KT 3SM -SN BKN020 BKN026 OVC047 M03/M07 A2979 RMK AO2 P0000 T10281067
0286726166547812025010308197+42894-073249FM-16+0252KDDH V0202605V00465014025MN0144845N5-00285-00725999999ADDAA101000021AU110030015AW1715GA1045+006105999GA2085+014025999GD12991+0061059GD24991+0140259GE19AGL   +99999+99999GF199999999999006101999999MA1100855097875MW1715OC101135REMMET10701/03/25 03:19:02 SPECI KDDH 030819Z 26009G22KT 9SM -SN SCT020 OVC046 M03/M07 A2978 RMK AO2 P0000 T10281072
0361726166547812025010308547+42894-073249FM-15+0252KDDH V0202505N00515015245MN0160935N5-00285-00725100925ADDAA101000025AA203000021GA1025+005795999GA2085+015245999GD11991+0057959GD24991+0152459GE19AGL   +99999+99999GF199999999999005791999999MA1100855097875MD1090039+9999OC101655OD149901641260REMMET14701/03/25 03:54:02 METAR KDDH 030854Z 25010G32KT 10SM FEW019 OVC050 M03/M07 A2978 RMK AO2 PK WND 26032/0851 SNE37 SLP092 P0000 60000 T10281072 50003EQDQ01  00008PRCP03
0299726166547812025010309547+42894-073249FM-15+0252KDDH V0202705V00465015245MN0160935N5-00285-00725100925ADDAA101000095GA1025+006715999GA2045+012505999GA3085+015245999GD11991+0067159GD22991+0125059GD34991+0152459GE19AGL   +99999+99999GF199999999999006711999999MA1100855097875OC101085REMMET11201/03/25 04:54:02 METAR KDDH 030954Z 27009G21KT 10SM FEW022 SCT041 OVC050 M03/M07 A2978 RMK AO2 SLP092 T10281072
0276726166547812025010310547+42894-073249FM-15+0252KDDH V0209999V00315015245MN0160935N5-00285-00725100935ADDAA101000025GA1045+007015999GA2085+015245999GD12991+0070159GD24991+0152459GE19AGL   +99999+99999GF199999999999007011999999MA1100855097875OC100935REMMET12001/03/25 05:54:02 METAR KDDH 031054Z VRB06G18KT 10SM SCT023 OVC050 M03/M07 A2978 RMK AO2 SNB07E35 SLP093 P0000 T10281072
0397726166547812025010311547+42894-073249FM-15+0252KDDH V0202705V00575010065MN0160935N5-00285-00725100925ADDAA101000095AA206000021AA324000591GA1025+006405999GA2075+010065999GA3085+014635999GD11991+0064059GD23991+0100659GD34991+0146359GE19AGL   +99999+99999GF199999999999006401999999KA1060M-00221MA1100855097875MD1490009+9999OC101085REMMET14201/03/25 06:54:02 METAR KDDH 031154Z 27011G21KT 10SM FEW021 BKN033 OVC048 M03/M07 A2978 RMK AO2 SLP092 60000 70002 T10281072 11022 21028 54000EQDQ01  00058PRCP24
0281726166547812025010312247+42894-073249FM-16+0252KDDH V0209999V00215008845MN0160935N5-00285-00725999999ADDGA1075+008845999GA2075+011895999GA3085+015245999GD13991+0088459GD23991+0118959GD34991+0152459GE19AGL   +99999+99999GF199999999999008841999999MA1100815097835OC100775REMMET10501/03/25 07:24:02 SPECI KDDH 031224Z VRB04G15KT 10SM BKN029 BKN039 OVC050 M03/M07 A2977 RMK AO2 T10281072
0261726166547812025010312547+42894-073249FM-15+0252KDDH V0202805N00625008535MN0160935N5-00285-00785100915ADDAA101000095GA1075+008535999GA2085+016765999GD13991+0085359GD24991+0167659GE19AGL   +99999+99999GF199999999999008531999999MA1100815097835OC101035REMMET10501/03/25 07:54:02 METAR KDDH 031254Z 28012G20KT 10SM BKN028 OVC055 M03/M08 A2977 RMK AO2 SLP091 T10281078
0281726166547812025010313297+42894-073249FM-16+0252KDDH V0202805N00515014025MN0160935N5-00225-00785999999ADDGA1045+008535999GA2075+014025999GA3085+018295999GD12991+0085359GD23991+0140259GD34991+0182959GE19AGL   +99999+99999GF199999999999008531999999MA1100815097835OC101295REMMET10501/03/25 08:29:02 SPECI KDDH 031329Z 28010G25KT 10SM SCT028 BKN046 OVC060 M02/M08 A2977 RMK AO2 T10221078
0261726166547812025010313547+42894-073249FM-15+0252KDDH V0202605V00365018295MN0160935N5-00225-00785100885ADDAA101000095GA1045+008845999GA2085+018295999GD12991+0088459GD24991+0182959GE19AGL   +99999+99999GF199999999999008841999999MA1100785097805OC101135REMMET10501/03/25 08:54:02 METAR KDDH 031354Z 26007G22KT 10SM SCT029 OVC060 M02/M08 A2976 RMK AO2 SLP088 T10221078
0418726166547812025010314547+42894-073249FM-15+0252KDDH V0202505V00625013725MN0160935N5-00225-00835100885ADDAA101000025AA203000021GA1045+010365999GA2075+013725999GA3085+018295999GD12991+0103659GD23991+0137259GD34991+0182959GE19AGL   +99999+99999GF199999999999010361999999MA1100785097805MD1690049+9999OC101445OD149901441280REMMET15701/03/25 09:54:02 METAR KDDH 031454Z 25012G28KT 10SM SCT034 BKN045 OVC060 M02/M08 A2976 RMK AO2 PK WND 28028/1447 SNB02E26 SLP088 P0000 60000 T10221083 56004EQDQ01  00002PRCP03Q02  00008PRCP03
0293726166547812025010315547+42894-073249FM-15+0252KDDH V0202905N00515010365MN0160935N5-00175-00835100805ADDAA101000095GA1075+010365999GA2085+018295999GD13991+0103659GD24991+0182959GE19AGL   +99999+99999GF199999999999010361999999MA1100715097735OC101085OD149901331280REMMET12301/03/25 10:54:02 METAR KDDH 031554Z 29010G21KT 10SM BKN034 OVC060 M02/M08 A2974 RMK AO2 PK WND 28026/1511 SLP080 T10171083
0293726166547812025010316547+42894-073249FM-15+0252KDDH V0202705N00515018295MN0160935N5-00115-00835100695ADDAA101000095GA1045+010975999GA2085+018295999GD12991+0109759GD24991+0182959GE19AGL   +99999+99999GF199999999999010971999999MA1100615097635OC101395OD149901391300REMMET12301/03/25 11:54:02 METAR KDDH 031654Z 27010G27KT 10SM SCT036 OVC060 M01/M08 A2971 RMK AO2 PK WND 30027/1652 SLP069 T10111083
0336726166547812025010317547+42894-073249FM-15+0252KDDH V0202605N00625018295MN0160935N5-00175-00835100655ADDAA101000095AA206000021GA1045+013415999GA2085+018295999GD12991+0134159GD24991+0182959GE19AGL   +99999+99999GF199999999999013411999999KA1060M-00111KA2060N-00281MA1100585097605MD1690229+9999OC100935REMMET12901/03/25 12:54:02 METAR KDDH 031754Z 26012G18KT 10SM SCT044 OVC060 M02/M08 A2970 RMK AO2 SLP065 60000 T10171083 11011 21028 56022
0250726166547812025010318547+42894-073249FM-15+0252KDDH V0203205N00465014635MN0160935N5-00115-00785100605ADDAA101000095GA1025+011585999GA2085+014635999GD11991+0115859GD24991+0146359GE19AGL   +99999+99999GF199999999999011581999999MA1100515097535REMMET10201/03/25 13:54:02 METAR KDDH 031854Z 32009KT 10SM FEW038 OVC048 M01/M08 A2968 RMK AO2 SLP060 T10111078
0264726166547812025010319547+42894-073249FM-15+0252KDDH V0203005N00315015245MN0144845N5-00115-00725100615ADDAA101000025GA1075+015245999GA2085+018295999GD13991+0152459GD24991+0182959GE19AGL   +99999+99999GF199999999999015241999999MA1100515097535REMMET11601/03/25 14:54:02 METAR KDDH 031954Z 30006KT 9SM BKN050 OVC060 M01/M07 A2968 RMK AO2 SNB40E50 SLP061 P0000 T10111072
0287726166547812025010320547+42894-073249FM-15+0252KDDH V0202805N00315015245MN0160935N5-00175-00785100585ADDAA101000095AA203000021GA1075+015245999GA2085+018295999GD13991+0152459GD24991+0182959GE19AGL   +99999+99999GF199999999999015241999999MA1100475097505MD1690079+9999REMMET11401/03/25 15:54:02 METAR KDDH 032054Z 28006KT 10SM BKN050 OVC060 M02/M08 A2967 RMK AO2 SLP058 60000 T10171078 56007
0250726166547812025010321547+42894-073249FM-15+0252KDDH V0209999V00315018295MN0160935N5-00225-00785100615ADDAA101000095GA1025+008845999GA2085+018295999GD11991+0088459GD24991+0182959GE19AGL   +99999+99999GF199999999999008841999999MA1100515097535REMMET10201/03/25 16:54:02 METAR KDDH 032154Z VRB06KT 10SM FEW029 OVC060 M02/M08 A2968 RMK AO2 SLP061 T10221078
0250726166547812025010322547+42894-073249FM-15+0252KDDH V0209999V00155016765MN0160935N5-00285-00785100635ADDAA101000095GA1075+016765999GA2085+022865999GD13991+0167659GD24991+0228659GE19AGL   +99999+99999GF199999999999016761999999MA1100545097575REMMET10201/03/25 17:54:02 METAR KDDH 032254Z VRB03KT 10SM BKN055 OVC075 M03/M08 A2969 RMK AO2 SLP063 T10281078
0325726166547812025010323547+42894-073249FM-15+0252KDDH V0202205N00155013725MN0160935N5-00285-00785100615ADDAA101000095AA206000021GA1075+013725999GA2085+019815999GD13991+0137259GD24991+0198159GE19AGL   +99999+99999GF199999999999013721999999KA1060M-00111KA2060N-00281MA1100515097535MD1090039+9999REMMET12601/03/25 18:54:02 METAR KDDH 032354Z 22003KT 10SM BKN045 OVC065 M03/M08 A2968 RMK AO2 SLP061 60000 T10281078 11011 21028 50003
0288726166547812025010400547+42894-073249FM-15+0252KDDH V0202705N00215011895MN0160935N5-00285-00895100585ADDAA101000095GA1075+011895999GA2075+013725999GA3085+019815999GD13991+0118959GD23991+0137259GD34991+0198159GE19AGL   +99999+99999GF199999999999011891999999MA1100515097535REMMET10901/03/25 19:54:01 METAR KDDH 040054Z 27004KT 10SM BKN039 BKN045 OVC065 M03/M09 A2968 RMK AO2 SLP058 T10281089
0212726166547812025010401547+42894-073249FM-15+0252KDDH V0209999V00215010365MN0160935N5-00285-00945100545ADDAA101000095GA1085+010365999GD14991+0103659GE19AGL   +99999+99999GF199999999999010361999999MA1100445097475REMMET09501/03/25 20:54:01 METAR KDDH 040154Z VRB04KT 10SM OVC034 M03/M09 A2966 RMK AO2 SLP054 T10281094
0382726166547812025010402547+42894-073249FM-15+0252KDDH V0209999V00265011285MN0080475N5-00335-00895100505ADDAA101000025AA203000021AU110030015AW1715GA1045+008845999GA2075+011285999GA3085+014335999GD12991+0088459GD23991+0112859GD34991+0143359GE19AGL   +99999+99999GF199999999999008841999999MA1100415097445MD1890109+9999MW1715REMMET13601/03/25 21:54:01 METAR KDDH 040254Z VRB05KT 5SM -SN SCT029 BKN037 OVC047 M03/M09 A2965 RMK AO2 SNB43 SLP050 P0000 60000 T10331089 58010EQDQ01  00008PRCP03
0273726166547812025010403547+42894-073249FM-15+0252KDDH V0202705N00465010975MN0160935N5-00395-00945100485ADDAA101000025GA1075+010975999GA2075+014945999GD13991+0109759GD23991+0149459GE19AGL   +99999+99999GF199999999999010971999999MA1100415097445OC100885REMMET11701/03/25 22:54:02 METAR KDDH 040354Z 27009G17KT 10SM BKN036 BKN049 M04/M09 A2965 RMK AO2 SNE01 SLP048 P0000 T10391094
0234726166547812025010404547+42894-073249FM-15+0252KDDH V0202505V003652200059N0160935N5-00445-01065100445ADDAA101000095GA1005+999999999GD10991+9999999GF100991999999999999999999KA1240M-00111KA2240N-00441MA1100345097375OC100725REMMET10501/03/25 23:54:02 METAR KDDH 040454Z 25007G14KT 10SM CLR M04/M11 A2963 RMK AO2 SLP044 T10441106 410111044
0914726166547812025010404596+42894-073249SOD  +0252KDDH V020999999999999999999999999999+99999+99999999999ADDAA124000025AT1AU18SN  5KA1240M-00105KA2240N-00495MG1097684100444OE11240160926003516OE22240080528010125OE33240041199999995REMSOD73024 HR PRECIPITATION (IN):T     24 HR MAX TEMP (F):30 24 HR MAX TEMP TIME (LST):1523 24 HR MIN TEMP (F):23 24 HR MIN TEMP TIME (LST):2359 AVERAGE STATION PRESSURE:28.845 MINIMUM SEA LEVEL PRESSURE:29.66 TIME OF OCCURRENCE:2359 PEAK WIND SPEED (MPH):36  PEAK WIND DIR (DEG):260 PEAK WIND TIME (LST):0351  FASTEST 2MIN SPEED (MPH):18 FASTEST 2MIN DIR (DEG):280 FASTEST 2MIN TIME (LST):1012 AVERAGE WIND SPEED (MPH):9.2  24 HR AVG TEMP (F):27 HEATING DEGREE DAYS:38  COOLING DEGREE DAYS:0   LATEST DAY MAX TEMP (0700-1900 LST):30  LATEST NIGHT MIN TEMP(1900-0800 LST):27 HOURLY INCREMENTAL PRECIPITATION VALUES (IN):.00 0.00 T    T    0.00 T    0.00 0.00 0.00 T    0.00 0.00 0.00 0.00 T    0.00 0.00 0.00 0.00 0.00 0.00 T    T    0.00EQDR01     N7GJS072R02     N7GKS075R03    367OES063
0325726166547812025010405547+42894-073249FM-15+0252KDDH V0202805N00365011585MN0160935N5-00445-01175100425ADDAA101000095AA206000021GA1075+011585999GA2085+014335999GD13991+0115859GD24991+0143359GE19AGL   +99999+99999GF199999999999011581999999KA1060M-00281KA2060N-00501MA1100345097375MD1790089+9999REMMET12601/04/25 00:54:02 METAR KDDH 040554Z 28007KT 10SM BKN038 OVC047 M04/M12 A2963 RMK AO2 SLP042 60000 T10441117 11028 21050 57008
0223726166547812025010406547+42894-073249FM-15+0252KDDH V0202805N00575010065MN0160935N5-00505-01065100465ADDAA101000095GA1085+010065999GD14991+0100659GE19AGL   +99999+99999GF199999999999010061999999MA1100375097405OC101085REMMET09801/04/25 01:54:02 METAR KDDH 040654Z 28011G21KT 10SM OVC033 M05/M11 A2964 RMK AO2 SLP046 T10501106
0261726166547812025010407547+42894-073249FM-15+0252KDDH V0202805N00675013115MN0144845N5-00505-01065100475ADDAA101000025AU110030015AW1715GA1085+013115999GD14991+0131159GE19AGL   +99999+99999GF199999999999013111999999MA1100375097405MW1715OC101085REMMET11301/04/25 02:54:02 METAR KDDH 040754Z 28013G21KT 9SM -SN OVC043 M05/M11 A2964 RMK AO2 SNB23 SLP047 P0000 T10501106
0238726166547812025010408507+42894-073249FM-16+0252KDDH V0202905N00515007925MN0048285N5-00605-01105999999ADDAA101000021AU110030015AW1715GA1085+007925999GD14991+0079259GE19AGL   +99999+99999GF199999999999007921999999MA1100415097445MW1715OC101185REMMET09001/04/25 03:50:02 SPECI KDDH 040850Z 29010G23KT 3SM -SN OVC026 M06/M11 A2965 RMK AO2 P0000
0315726166547812025010408547+42894-073249FM-15+0252KDDH V0202705N00365007925MN0040235N5-00615-01115100515ADDAA101000025AA203000021AU110030015AW1715GA1085+007925999GD14991+0079259GE19AGL   +99999+99999GF199999999999007921999999MA1100415097445MD1190049+9999MW1715OC101185REMMET12301/04/25 03:54:02 METAR KDDH 040854Z 27007G23KT 2 1/2SM -SN OVC026 M06/M11 A2965 RMK AO2 SLP051 P0000 60000 T10611111 51004EQDQ01  00008PRCP03
0252726166547812025010409227+42894-073249FM-16+0252KDDH V0202905N00415006715MN0024145N5-00675-01065999999ADDAA101000021AU110030015AW1715GA1085+006715999GD14991+0067159GE19AGL   +99999+99999GF199999999999006711999999MA1100445097475MW1715OC100885REMMET10401/04/25 04:22:02 SPECI KDDH 040922Z 29008G17KT 1 1/2SM -SN OVC022 M07/M11 A2966 RMK AO2 P0000 T10671106
0252726166547812025010409347+42894-073249FM-16+0252KDDH V0202705N00315007325MN0040235N5-00675-01065999999ADDAA101000021AU110030015AW1715GA1085+007325999GD14991+0073259GE19AGL   +99999+99999GF199999999999007321999999MA1100445097475MW1715OC100935REMMET10401/04/25 04:34:02 SPECI KDDH 040934Z 27006G18KT 2 1/2SM -SN OVC024 M07/M11 A2966 RMK AO2 P0000 T10671106
0231726166547812025010409507+42894-073249FM-16+0252KDDH V0202605N00265006105MN0020125N5-00705-01005999999ADDAA101000021AU110030015AW1715GA1085+006105999GD14991+0061059GE19AGL   +99999+99999GF199999999999006101999999MA1100445097475MW1715REMMET09101/04/25 04:50:02 SPECI KDDH 040950Z 26005KT 1 1/4SM -SN OVC020 M07/M10 A2966 RMK AO2 P0000
0248726166547812025010409547+42894-073249FM-15+0252KDDH V0202705N00465006105MN0020125N5-00675-01005100575ADDAA101000025AU110030015AW1715GA1085+006105999GD14991+0061059GE19AGL   +99999+99999GF199999999999006101999999MA1100475097505MW1715REMMET10801/04/25 04:54:02 METAR KDDH 040954Z 27009KT 1 1/4SM -SN OVC020 M07/M10 A2967 RMK AO2 SLP057 P0000 T10671100
0247726166547812025010410177+42894-073249FM-16+0252KDDH V0202705V00465004275WN0016095N5-00675-01065999999ADDAA101000021AU110030015AW1715GA1095+004275999GD15991+0042759GE19AGL   +99999+99999GF109991999999004271999999MA1100515097535MW1715OC100775REMMET09901/04/25 05:17:02 SPECI KDDH 041017Z 27009G15KT 1SM -SN VV014 M07/M11 A2968 RMK AO2 P0000 T10671106
0238726166547812025010410497+42894-073249FM-16+0252KDDH V0202805N00315004575MN0032195N5-00705-01105999999ADDAA101000231AU110030015AW1715GA1085+004575999GD14991+0045759GE19AGL   +99999+99999GF199999999999004571999999MA1100545097575MW1715OC100775REMMET09001/04/25 05:49:02 SPECI KDDH 041049Z 28006G15KT 2SM -SN OVC015 M07/M11 A2969 RMK AO2 P0001
0255726166547812025010410547+42894-073249FM-15+0252KDDH V0202805N00515005185MN0032195N5-00675-01115100655ADDAA101000395AU110030015AW1715GA1085+005185999GD14991+0051859GE19AGL   +99999+99999GF199999999999005181999999MA1100545097575MW1715OC100825REMMET10701/04/25 05:54:02 METAR KDDH 041054Z 28010G16KT 2SM -SN OVC017 M07/M11 A2969 RMK AO2 SLP065 P0001 T10671111
0286726166547812025010411097+42894-073249FM-16+0252KDDH V0202805N00625006405MN0112655N5-00675-01225999999ADDAA101000021AU110030015AW1715GA1075+006405999GA2085+009455999GD13991+0064059GD24991+0094559GE19AGL   +99999+99999GF199999999999006401999999MA1100585097605MW1715OC101085REMMET10701/04/25 06:09:02 SPECI KDDH 041109Z 28012G21KT 7SM -SN BKN021 OVC031 M07/M12 A2970 RMK AO2 P0000 T10671122
0286726166547812025010411217+42894-073249FM-16+0252KDDH V0202805N00415010675MN0128755N5-00725-01225999999ADDAA101000021AU110030015AW1715GA1045+007625999GA2085+010675999GD12991+0076259GD24991+0106759GE19AGL   +99999+99999GF199999999999007621999999MA1100585097605MW1715OC100885REMMET10701/04/25 06:21:02 SPECI KDDH 041121Z 28008G17KT 8SM -SN SCT025 OVC035 M07/M12 A2970 RMK AO2 P0000 T10721122
0400726166547812025010411547+42894-073249FM-15+0252KDDH V0202705N00465010065MN0160935N5-00725-01285100755ADDAA101000025AA206000391AA324000391GA1075+010065999GA2085+012505999GD13991+0100659GD24991+0125059GE19AGL   +99999+99999GF199999999999010061999999KA1060M-00441KA2060N-00721MA1100645097675MD1390199+9999OC100985REMMET14701/04/25 06:54:02 METAR KDDH 041154Z 27009G19KT 10SM BKN033 OVC041 M07/M13 A2972 RMK AO2 SNE47 SLP075 P0000 60001 70001 T10721128 11044 21072 53019EQDQ01  00028PRCP06Q02  00028PRCP24
0288726166547812025010412547+42894-073249FM-15+0252KDDH V0202705N00515028965MN0160935N5-00725-01285100805ADDAA101000095GA1025+005185999GA2025+014945999GA3085+028965999GD11991+0051859GD21991+0149459GD34991+0289659GE19AGL   +99999+99999GF199999999999005181999999MA1100685097705REMMET10901/04/25 07:54:02 METAR KDDH 041254Z 27010KT 10SM FEW017 FEW049 OVC095 M07/M13 A2973 RMK AO2 SLP080 T10721128
0288726166547812025010413547+42894-073249FM-15+0252KDDH V0209999N99999015245MN0160935N5-00785-01335100895ADDAA101000095GA1025+007625999GA2045+009755999GA3075+015245999GD11991+0076259GD22991+0097559GD33991+0152459GE19AGL   +99999+99999GF199999999999007621999999MA1100785097805REMMET10901/04/25 08:54:02 METAR KDDH 041354Z      KT 10SM FEW025 SCT032 BKN050 M08/M13 A2976 RMK AO2 SLP089 T10781133
0228726166547812025010414526+42894-073249FM-16+0252KDDH V0202905V00365008845MN0160935N5-00705-01405999999ADDGA1075+008845999GA2075+010975999GA3085+014335999GD13991+0088459GD23991+0109759GD34991+0143359MA1100815097835OC100825REMMET10001/04/25 09:52:02 SPECI KDDH 041452Z 29007G16KT 10SM BKN029 BKN036 OVC047 M07/M14 A2977 RMK AO2 FIBI
0319726166547812025010414547+42894-073249FM-15+0252KDDH V0202905N00575008845MN0160935N5-00725-01395100925ADDAA101000095GA1075+008845999GA2075+010975999GA3085+014335999GD13991+0088459GD23991+0109759GD34991+0143359GE19AGL   +99999+99999GF199999999999008841999999MA1100815097835MD1190169+9999OC101085REMMET11801/04/25 09:54:02 METAR KDDH 041454Z 29011G21KT 10SM BKN029 BKN036 OVC047 M07/M14 A2977 RMK AO2 SLP092 T10721139 51016
0281726166547812025010415177+42894-073249FM-16+0252KDDH V0202705N00725015245MN0160935N5-00675-01335999999ADDGA1045+008845999GA2045+011585999GA3085+015245999GD12991+0088459GD22991+0115859GD34991+0152459GE19AGL   +99999+99999GF199999999999008841999999MA1100815097835OC101085REMMET10501/04/25 10:17:02 SPECI KDDH 041517Z 27014G21KT 10SM SCT029 SCT038 OVC050 M07/M13 A2977 RMK AO2 T10671133
0223726166547812025010415547+42894-073249FM-15+0252KDDH V0202705N00515011895MN0160935N5-00615-01285100915ADDAA101000095GA1085+011895999GD14991+0118959GE19AGL   +99999+99999GF199999999999011891999999MA1100815097835OC100775REMMET09801/04/25 10:54:02 METAR KDDH 041554Z 27010G15KT 10SM OVC039 M06/M13 A2977 RMK AO2 SLP091 T10611128
0261726166547812025010416547+42894-073249FM-15+0252KDDH V0202705N00625010675MN0160935N5-00565-01285100815ADDAA101000095GA1075+010675999GA2085+012805999GD13991+0106759GD24991+0128059GE19AGL   +99999+99999GF199999999999010671999999MA1100715097735OC100985REMMET10501/04/25 11:54:02 METAR KDDH 041654Z 27012G19KT 10SM BKN035 OVC042 M06/M13 A2974 RMK AO2 SLP081 T10561128
0281726166547812025010417547+42894-073249FM-15+0252KDDH V0203005V00415010675MN0160935N5-00565-01285100775ADDAA101000095GA1085+010675999GD14991+0106759GE19AGL   +99999+99999GF199999999999010671999999KA1060M-00561KA2060N-00781MA1100645097675MD1890159+9999OC100985REMMET11601/04/25 12:54:02 METAR KDDH 041754Z 30008G19KT 10SM OVC035 M06/M13 A2972 RMK AO2 SLP077 T10561128 11056 21078 58015
0223726166547812025010418547+42894-073249FM-15+0252KDDH V0202705N00675011285MN0160935N5-00445-01175100755ADDAA101000095GA1085+011285999GD14991+0112859GE19AGL   +99999+99999GF199999999999011281999999MA1100645097675OC101035REMMET09801/04/25 13:54:02 METAR KDDH 041854Z 27013G20KT 10SM OVC037 M04/M12 A2972 RMK AO2 SLP075 T10441117
0261726166547812025010419547+42894-073249FM-15+0252KDDH V0202605N00575014025MN0160935N5-00505-01115100795ADDAA101000095GA1045+011895999GA2085+014025999GD12991+0118959GD24991+0140259GE19AGL   +99999+99999GF199999999999011891999999MA1100685097705OC101135REMMET10501/04/25 14:54:02 METAR KDDH 041954Z 26011G22KT 10SM SCT039 OVC046 M05/M11 A2973 RMK AO2 SLP079 T10501111
0288726166547812025010420547+42894-073249FM-15+0252KDDH V0209999N99999014335MN0160935N5-00505-01065100815ADDAA101000095GA1075+014335999GA2085+019815999GD13991+0143359GD24991+0198159GE19AGL   +99999+99999GF199999999999014331999999MA1100715097735MD1390049+9999REMMET12601/04/25 15:54:02 METAR KDDH 042054Z      KT 10SM BKN047 OVC065 M05/M11 A2974 RMK AO2 PK WND 28027/2019 SLP081 T10501106 53004
0223726166547812025010421547+42894-073249FM-15+0252KDDH V0202705V00415014025MN0160935N5-00445-01065100835ADDAA101000095GA1085+014025999GD14991+0140259GE19AGL   +99999+99999GF199999999999014021999999MA1100715097735OC100985REMMET09801/04/25 16:54:02 METAR KDDH 042154Z 27008G19KT 10SM OVC046 M04/M11 A2974 RMK AO2 SLP083 T10441106
0250726166547812025010422547+42894-073249FM-15+0252KDDH V0202805N00415013115MN0160935N5-00445-00945100855ADDAA101000095GA1025+007015999GA2085+013115999GD11991+0070159GD24991+0131159GE19AGL   +99999+99999GF199999999999007011999999MA1100755097775REMMET10201/04/25 17:54:02 METAR KDDH 042254Z 28008KT 10SM FEW023 OVC043 M04/M09 A2975 RMK AO2 SLP085 T10441094
0228726166547812025010423526+42894-073249FM-16+0252KDDH V0202605V00415007925MN0160935N5-00405-00905999999ADDGA1045+006405999GA2075+007925999GA3085+014335999GD12991+0064059GD23991+0079259GD34991+0143359MA1100785097805OC101035REMMET10001/04/25 18:52:02 SPECI KDDH 042352Z 26008G20KT 10SM SCT021 BKN026 OVC047 M04/M09 A2976 RMK AO2 FIBI
0357726166547812025010423547+42894-073249FM-15+0252KDDH V0202505V00515007925MN0160935N5-00445-00945100885ADDAA101000095GA1045+006405999GA2075+007925999GA3085+014335999GD12991+0064059GD23991+0079259GD34991+0143359GE19AGL   +99999+99999GF199999999999006401999999KA1060M-00441KA2060N-00561MA1100785097805MD1390079+9999OC101035REMMET13001/04/25 18:54:02 METAR KDDH 042354Z 25010G20KT 10SM SCT021 BKN026 OVC047 M04/M09 A2976 RMK AO2 SLP088 T10441094 11044 21056 53007
0331726166547812025010500547+42894-073249FM-15+0252KDDH V0202805N00515007015MN0160935N5-00445-00945100895ADDAA101000095GA1075+007015999GA2075+008845999GA3085+014945999GD13991+0070159GD23991+0088459GD34991+0149459GE19AGL   +99999+99999GF199999999999007011999999MA1100785097805OC101135OD149901331240REMMET13001/04/25 19:54:01 METAR KDDH 050054Z 28010G22KT 10SM BKN023 BKN029 OVC049 M04/M09 A2976 RMK AO2 PK WND 24026/0035 SLP089 T10441094
0261726166547812025010501547+42894-073249FM-15+0252KDDH V0202805N00315006715MN0160935N5-00445-00945100915ADDAA101000095GA1075+006715999GA2085+014025999GD13991+0067159GD24991+0140259GE19AGL   +99999+99999GF199999999999006711999999MA1100785097805OC101135REMMET10501/04/25 20:54:01 METAR KDDH 050154Z 28006G22KT 10SM BKN022 OVC046 M04/M09 A2976 RMK AO2 SLP091 T10441094
0243726166547812025010502177+42894-073249FM-16+0252KDDH V0202705N00415014025MN0160935N5-00445-00945999999ADDGA1045+007015999GA2085+014025999GD12991+0070159GD24991+0140259GE19AGL   +99999+99999GF199999999999007011999999MA1100785097805OC101135REMMET09801/04/25 21:17:01 SPECI KDDH 050217Z 27008G22KT 10SM SCT023 OVC046 M04/M09 A2976 RMK AO2 T10441094
0281726166547812025010502547+42894-073249FM-15+0252KDDH V0209999V00315014945MN0160935N5-00445-00945100935ADDAA101000095GA1025+007325999GA2085+014945999GD11991+0073259GD24991+0149459GE19AGL   +99999+99999GF199999999999007321999999MA1100815097835MD1390049+9999OC100885REMMET11101/04/25 21:54:01 METAR KDDH 050254Z VRB06G17KT 10SM FEW024 OVC049 M04/M09 A2977 RMK AO2 SLP093 T10441094 53004
0331726166547812025010503547+42894-073249FM-15+0252KDDH V0202505V00415018295MN0160935N5-00445-00945100945ADDAA101000095GA1025+007015999GA2025+014635999GA3085+018295999GD11991+0070159GD21991+0146359GD34991+0182959GE19AGL   +99999+99999GF199999999999007011999999MA1100855097875OC100935OD149901391290REMMET13001/04/25 22:54:02 METAR KDDH 050354Z 25008G18KT 10SM FEW023 FEW048 OVC060 M04/M09 A2978 RMK AO2 PK WND 29027/0333 SLP094 T10441094
0286726166547812025010504547+42894-073249FM-15+0252KDDH V0202405V00415013725MN0160935N5-00445-00945100965ADDAA101000095GA1025+006715999GA2085+013725999GD11991+0067159GD24991+0137259GE19AGL   +99999+99999GF199999999999006711999999KA1240M-00441KA2240N-00781MA1100855097875REMMET11201/04/25 23:54:02 METAR KDDH 050454Z 24008KT 10SM FEW022 OVC045 M04/M09 A2978 RMK AO2 SLP096 T10441094 410441078
0898726166547812025010504596+42894-073249SOD  +0252KDDH V020999999999999999999999999999+99999+99999999999ADDAA124000395AT1AU18SN  5KA1240M-00435KA2240N-00775MG1097614100414OE11240138629022335OE22240080527022335OE33240047899999995REMSOD73024 HR PRECIPITATION (IN):0.01  24 HR MAX TEMP (F):24 24 HR MAX TEMP TIME (LST):2359 24 HR MIN TEMP (F):18 24 HR MIN TEMP TIME (LST):0909 AVERAGE STATION PRESSURE:28.825 MINIMUM SEA LEVEL PRESSURE:29.65 TIME OF OCCURRENCE:0129 PEAK WIND SPEED (MPH):31  PEAK WIND DIR (DEG):290 PEAK WIND TIME (LST):2233  FASTEST 2MIN SPEED (MPH):18 FASTEST 2MIN DIR (DEG):270 FASTEST 2MIN TIME (LST):2233 AVERAGE WIND SPEED (MPH):10.7 24 HR AVG TEMP (F):21 HEATING DEGREE DAYS:44  COOLING DEGREE DAYS:0   LATEST DAY MAX TEMP (0700-1900 LST):24  LATEST NIGHT MIN TEMP(1900-0800 LST):19 HOURLY INCREMENTAL PRECIPITATION VALUES (IN):.00 0.00 T    T    T    0.01 T    0.00 0.00 0.00 0.00 0.00 0.00 0.00 0.00 0.00 0.00 0.00 0.00 0.00 0.00 0.00 0.00 0.00EQDR01     N7GJS072R02     N7GKS075
0431726166547812025010505547+42894-073249FM-15+0252KDDH V0202605N00515010365MN0064375N5-00505-00945100965ADDAA101000025AA206000021AU110030015AW1715GA1025+005795999GA2075+010365999GA3085+019815999GD11991+0057959GD23991+0103659GD34991+0198159GE19AGL   +99999+99999GF199999999999005791999999KA1060M-00441KA2060N-00501MA1100855097875MD1090039+9999MW1715OC100935REMMET15101/05/25 00:54:02 METAR KDDH 050554Z 26010G18KT 4SM -SN FEW019 BKN034 OVC065 M05/M09 A2978 RMK AO2 SNB03 SLP096 P0000 60000 T10501094 11044 21050 50003EQDQ01  00008PRCP06
0273726166547812025010506547+42894-073249FM-15+0252KDDH V0202905N00365021345MN0160935N5-00505-00945101005ADDAA101000025GA1045+016765999GA2085+021345999GD12991+0167659GD24991+0213459GE19AGL   +99999+99999GF199999999999016761999999MA1100885097905OC100935REMMET11701/05/25 01:54:02 METAR KDDH 050654Z 29007G18KT 10SM SCT055 OVC070 M05/M09 A2979 RMK AO2 SNE18 SLP100 P0000 T10501094
0281726166547812025010507127+42894-073249FM-16+0252KDDH V0209999V00265006405MN0160935N5-00505-00945999999ADDGA1075+006405999GA2075+015245999GA3085+021345999GD13991+0064059GD23991+0152459GD34991+0213459GE19AGL   +99999+99999GF199999999999006401999999MA1100885097905OC100885REMMET10501/05/25 02:12:02 SPECI KDDH 050712Z VRB05G17KT 10SM BKN021 BKN050 OVC070 M05/M09 A2979 RMK AO2 T10501094
0228726166547812025010507526+42894-073249FM-16+0252KDDH V0202805V00625009755MN0160935N5-00505-00905999999ADDGA1045+006405999GA2075+009755999GA3085+018295999GD12991+0064059GD23991+0097559GD34991+0182959MA1100915097935OC101135REMMET10001/05/25 02:52:02 SPECI KDDH 050752Z 28012G22KT 10SM SCT021 BKN032 OVC060 M05/M09 A2980 RMK AO2 FIBI
0299726166547812025010507547+42894-073249FM-15+0252KDDH V0202505V00465018295MN0160935N5-00505-00945101015ADDAA101000095GA1045+006405999GA2045+009755999GA3085+018295999GD12991+0064059GD22991+0097559GD34991+0182959GE19AGL   +99999+99999GF199999999999006401999999MA1100915097935OC101135REMMET11201/05/25 02:54:02 METAR KDDH 050754Z 25009G22KT 10SM SCT021 SCT032 OVC060 M05/M09 A2980 RMK AO2 SLP101 T10501094
0260726166547812025010508547+42894-073249FM-15+0252KDDH V0202805V00365018295MN0160935N5-00505-00945101045ADDAA101000095AA203000021GA1085+018295999GD14991+0182959GE19AGL   +99999+99999GF199999999999018291999999MA1100915097935MD1190079+9999OC100775REMMET11001/05/25 03:54:02 METAR KDDH 050854Z 28007G15KT 10SM OVC060 M05/M09 A2980 RMK AO2 SLP104 60000 T10501094 51007
0223726166547812025010509547+42894-073249FM-15+0252KDDH V0202705N00365018295MN0160935N5-00505-00945101025ADDAA101000095GA1075+018295999GD13991+0182959GE19AGL   +99999+99999GF199999999999018291999999MA1100915097935OC100885REMMET09801/05/25 04:54:02 METAR KDDH 050954Z 27007G17KT 10SM BKN060 M05/M09 A2980 RMK AO2 SLP102 T10501094
0261726166547812025010510547+42894-073249FM-15+0252KDDH V0202505V00365019815MN0160935N5-00505-01005101075ADDAA101000095GA1025+008535999GA2085+019815999GD11991+0085359GD24991+0198159GE19AGL   +99999+99999GF199999999999008531999999MA1100955097965OC100775REMMET10501/05/25 05:54:02 METAR KDDH 051054Z 25007G15KT 10SM FEW028 OVC065 M05/M10 A2981 RMK AO2 SLP107 T10501100
0233726166547812025010511527+42894-073249FM-16+0252KDDH V0202805V00415008235MN0160935N5-00505-01105999999ADDGA1075+008235999GA2085+016765999GD13991+0082359GD24991+0167659GE19AGL   +99999+99999GF199999999999008231999999MA1101025098035OC100825REMMET08801/05/25 06:52:02 SPECI KDDH 051152Z 28008G16KT 10SM BKN027 OVC055 M05/M11 A2983 RMK AO2
0336726166547812025010511547+42894-073249FM-15+0252KDDH V0202605N00365008235MN0160935N5-00505-01065101125ADDAA101000095AA206000021GA1075+008235999GA2085+016765999GD13991+0082359GD24991+0167659GE19AGL   +99999+99999GF199999999999008231999999KA1060M-00501KA2060N-00561MA1101025098035MD1190099+9999OC100825REMMET12901/05/25 06:54:02 METAR KDDH 051154Z 26007G16KT 10SM BKN027 OVC055 M05/M11 A2983 RMK AO2 SLP112 60000 T10501106 11050 21056 51009
0281726166547812025010512027+42894-073249FM-16+0252KDDH V0209999V00315015245MN0160935N5-00505-01065999999ADDGA1045+008235999GA2075+015245999GA3085+016765999GD12991+0082359GD23991+0152459GD34991+0167659GE19AGL   +99999+99999GF199999999999008231999999MA1101025098035OC101135REMMET10501/05/25 07:02:02 SPECI KDDH 051202Z VRB06G22KT 10SM SCT027 BKN050 OVC055 M05/M11 A2983 RMK AO2 T10501106
0261726166547812025010512547+42894-073249FM-15+0252KDDH V0202705V00575018295MN0160935N5-00445-01065101165ADDAA101000095GA1025+008235999GA2085+018295999GD11991+0082359GD24991+0182959GE19AGL   +99999+99999GF199999999999008231999999MA1101055098065OC100985REMMET10501/05/25 07:54:02 METAR KDDH 051254Z 27011G19KT 10SM FEW027 OVC060 M04/M11 A2984 RMK AO2 SLP116 T10441106
0255726166547812025010513547+42894-073249FM-15+0252KDDH V0202705N00515018295MN0160935N5-00445-01005101215ADDAA101000095GA1085+018295999GD14991+0182959GE19AGL   +99999+99999GF199999999999018291999999MA1101085098105OC101245OD149901441300REMMET11601/05/25 08:54:02 METAR KDDH 051354Z 27010G24KT 10SM OVC060 M04/M10 A2985 RMK AO2 PK WND 30028/1325 SLP121 T10441100
0243726166547812025010514547+42894-073249FM-15+0252KDDH V0202405N00365015245MN0160935N5-00445-01005101255ADDAA101000095GA1085+015245999GD14991+0152459GE19AGL   +99999+99999GF199999999999015241999999MA1101155098165MD1290139+9999OC100885REMMET10401/05/25 09:54:02 METAR KDDH 051454Z 24007G17KT 10SM OVC050 M04/M10 A2987 RMK AO2 SLP125 T10441100 52013
0223726166547812025010515547+42894-073249FM-15+0252KDDH V0202305N00515014945MN0160935N5-00395-00945101225ADDAA101000095GA1085+014945999GD14991+0149459GE19AGL   +99999+99999GF199999999999014941999999MA1101125098135OC101085REMMET09801/05/25 10:54:02 METAR KDDH 051554Z 23010G21KT 10SM OVC049 M04/M09 A2986 RMK AO2 SLP122 T10391094
0223726166547812025010516547+42894-073249FM-15+0252KDDH V0202705V00365014335MN0160935N5-00395-01005101185ADDAA101000095GA1085+014335999GD14991+0143359GE19AGL   +99999+99999GF199999999999014331999999MA1101085098105OC100825REMMET09801/05/25 11:54:02 METAR KDDH 051654Z 27007G16KT 10SM OVC047 M04/M10 A2985 RMK AO2 SLP118 T10391100
0319726166547812025010517547+42894-073249FM-15+0252KDDH V0202705N00625012805MN0160935N5-00395-00945101195ADDAA101000095GA1025+007925999GA2085+012805999GD11991+0079259GD24991+0128059GE19AGL   +99999+99999GF199999999999007921999999KA1060M-00391KA2060N-00501MA1101085098105MD1590059+9999OC101135REMMET12301/05/25 12:54:02 METAR KDDH 051754Z 27012G22KT 10SM FEW026 OVC042 M04/M09 A2985 RMK AO2 SLP119 T10391094 11039 21050 55005
0223726166547812025010518547+42894-073249FM-15+0252KDDH V0209999V00315014025MN0160935N5-00395-00945101215ADDAA101000095GA1085+014025999GD14991+0140259GE19AGL   +99999+99999GF199999999999014021999999MA1101125098135OC101295REMMET09801/05/25 13:54:02 METAR KDDH 051854Z VRB06G25KT 10SM OVC046 M04/M09 A2986 RMK AO2 SLP121 T10391094
0261726166547812025010519547+42894-073249FM-15+0252KDDH V0209999V00315013725MN0160935N5-00395-00945101255ADDAA101000095GA1025+008235999GA2085+013725999GD11991+0082359GD24991+0137259GE19AGL   +99999+99999GF199999999999008231999999MA1101155098165OC101035REMMET10501/05/25 14:54:02 METAR KDDH 051954Z VRB06G20KT 10SM FEW027 OVC045 M04/M09 A2987 RMK AO2 SLP125 T10391094
0393726166547812025010520547+42894-073249FM-15+0252KDDH V0202805N00515011585MN0048285N5-00395-00895101345ADDAA101000025AA203000021AU110030015AW1715GA1025+007325999GA2045+008845999GA3085+011585999GD11991+0073259GD22991+0088459GD34991+0115859GE19AGL   +99999+99999GF199999999999007321999999MA1101225098235MD1390149+9999MW1715OC101035REMMET13901/05/25 15:54:02 METAR KDDH 052054Z 28010G20KT 3SM -SN FEW024 SCT029 OVC038 M04/M09 A2989 RMK AO2 SNB00 SLP134 P0000 60000 T10391089 53014EQDQ01  00008PRCP03
0328726166547812025010521027+42894-073249FM-16+0252KDDH V0202905V00365008845MN0040235N5-00395-00895999999ADDAA101000021AU110030015AW1715GA1025+007325999GA2075+008845999GA3085+011895999GD11991+0073259GD23991+0088459GD34991+0118959GE19AGL   +99999+99999GF199999999999007321999999MA1101255098265MW1715OC100825REMMET11801/05/25 16:02:02 SPECI KDDH 052102Z 29007G16KT 2 1/2SM -SN FEW024 BKN029 OVC039 M04/M09 A2990 RMK AO2 P0000 T10391089
0317726166547812025010521427+42894-073249FM-16+0252KDDH V0203405N00415005495MN0028165N5-00565-00835999999ADDAA101000021AU110030015AW1715GA1025+003355999GA2075+005495999GA3085+007015999GD11991+0033559GD23991+0054959GD34991+0070159GE19AGL   +99999+99999GF199999999999003351999999MA1101325098335MW1715REMMET11501/05/25 16:42:02 SPECI KDDH 052142Z 34008KT 1 3/4SM -SN FEW011 BKN018 OVC023 M06/M08 A2992 RMK AO2 P0000 T10561083
0269726166547812025010521527+42894-073249FM-16+0252KDDH V0203405N00415004275MN0040235N5-00605-00805999999ADDAA101000021AU110030015AW1715GA1075+004275999GA2085+006105999GD13991+0042759GD24991+0061059GE19AGL   +99999+99999GF199999999999004271999999MA1101355098365MW1715REMMET09801/05/25 16:52:02 SPECI KDDH 052152Z 34008KT 2 1/2SM -SN BKN014 OVC020 M06/M08 A2993 RMK AO2 P0000
0286726166547812025010521547+42894-073249FM-15+0252KDDH V0203305N00415004275MN0040235N5-00565-00835101465ADDAA101000025AU110030015AW1715GA1075+004275999GA2085+006105999GD13991+0042759GD24991+0061059GE19AGL   +99999+99999GF199999999999004271999999MA1101355098365MW1715REMMET11501/05/25 16:54:02 METAR KDDH 052154Z 33008KT 2 1/2SM -SN BKN014 OVC020 M06/M08 A2993 RMK AO2 SLP146 P0000 T10561083
0295726166547812025010522247+42894-073249FM-16+0252KDDH V0203405N00315004575MN0048285N5-00615-00835999999ADDAA101000021AU110030015AU200001015AW1105AW2715GA1075+004575999GA2085+008845999GD13991+0045759GD24991+0088459GE19AGL   +99999+99999GF199999999999004571999999MA1101395098395MW1715REMMET10701/05/25 17:24:02 SPECI KDDH 052224Z 34006KT 3SM -SN BR BKN015 OVC029 M06/M08 A2994 RMK AO2 P0000 T10611083
0320726166547812025010522547+42894-073249FM-15+0252KDDH V0203405N00365005185MN0080475N5-00615-00945101525ADDAA101000025AU110030015AW1715GA1075+005185999GA2075+007325999GA3085+009145999GD13991+0051859GD23991+0073259GD34991+0091459GE19AGL   +99999+99999GF199999999999005181999999MA1101425098435MW1715REMMET11801/05/25 17:54:02 METAR KDDH 052254Z 34007KT 5SM -SN BKN017 BKN024 OVC030 M06/M09 A2995 RMK AO2 SLP152 P0000 T10611094
0292726166547812025010523167+42894-073249FM-16+0252KDDH V0203405N00465012805MN0144845N5-00615-01065999999ADDAA101000021GA1025+007015999GA2045+009145999GA3085+012805999GD11991+0070159GD22991+0091459GD34991+0128059GE19AGL   +99999+99999GF199999999999007011999999MA1101425098435REMMET11301/05/25 18:16:02 SPECI KDDH 052316Z 34009KT 9SM FEW023 SCT030 OVC042 M06/M11 A2995 RMK AO2 SNE13 P0000 T10611106
0318726166547812025010523547+42894-073249FM-15+0252KDDH V0203405N00265012505MN0160935N5-00675-01065101575ADDAA101000025AA206000021GA1085+012505999GD14991+0125059GE19AGL   +99999+99999GF199999999999012501999999KA1060M-00391KA2060N-00671MA1101465098465MD1390119+9999REMMET13101/05/25 18:54:02 METAR KDDH 052354Z 34005KT 10SM OVC041 M07/M11 A2996 RMK AO2 SNE13 SLP157 P0000 60000 T10671106 11039 21067 53011EQDQ01  00008PRCP06
0232726166547812025010600277+42894-073249FM-16+0252KDDH V0209999V00315008845MN0160935N5-00725-01175999999ADDGA1075+008845999GA2085+011285999GD13991+0088459GD24991+0112859GE19AGL   +99999+99999GF199999999999008841999999MA1101525098535REMMET09501/05/25 19:27:01 SPECI KDDH 060027Z VRB06KT 10SM BKN029 OVC037 M07/M12 A2998 RMK AO2 T10721117
0232726166547812025010600367+42894-073249FM-16+0252KDDH V0203205N00315011285MN0160935N5-00725-01225999999ADDGA1045+008845999GA2075+011285999GD12991+0088459GD23991+0112859GE19AGL   +99999+99999GF199999999999008841999999MA1101525098535REMMET09501/05/25 19:36:01 SPECI KDDH 060036Z 32006KT 10SM SCT029 BKN037 M07/M12 A2998 RMK AO2 T10721122
0187726166547812025010600547+42894-073249FM-15+0252KDDH V0203405N003152200059N0160935N5-00785-01285101665ADDAA101000095GA1005+999999999GD10991+9999999GF100991999999999999999999MA1101525098535REMMET09201/05/25 19:54:01 METAR KDDH 060054Z 34006KT 10SM CLR M08/M13 A2998 RMK AO2 SLP166 T10781128
0187726166547812025010601547+42894-073249FM-15+0252KDDH V0203205N002652200059N0160935N5-00835-01335101615ADDAA101000095GA1005+999999999GD10991+9999999GF100991999999999999999999MA1101495098495REMMET09201/05/25 20:54:01 METAR KDDH 060154Z 32005KT 10SM CLR M08/M13 A2997 RMK AO2 SLP161 T10831133
0207726166547812025010602547+42894-073249FM-15+0252KDDH V0203205N003152200059N0160935N5-00895-01395101645ADDAA101000095GA1005+999999999GD10991+9999999GF100991999999999999999999MA1101525098535MD1190059+9999REMMET09801/05/25 21:54:01 METAR KDDH 060254Z 32006KT 10SM CLR M09/M14 A2998 RMK AO2 SLP164 T10891139 51005
0187726166547812025010603547+42894-073249FM-15+0252KDDH V0202605N002652200059N0160935N5-01005-01445101705ADDAA101000095GA1005+999999999GD10991+9999999GF100991999999999999999999MA1101565098565REMMET09201/05/25 22:54:02 METAR KDDH 060354Z 26005KT 10SM CLR M10/M14 A2999 RMK AO2 SLP170 T11001144
0223726166547812025010604547+42894-073249FM-15+0252KDDH V0203105N002152200059N0160935N5-01005-01445101685ADDAA101000095GA1005+999999999GD10991+9999999GF100991999999999999999999KA1240M-00391KA2240N-01061MA1101565098565REMMET10201/05/25 23:54:02 METAR KDDH 060454Z 31004KT 10SM CLR M10/M14 A2999 RMK AO2 SLP168 T11001144 410391106
0910726166547812025010604596+42894-073249SOD  +0252KDDH V020999999999999999999999999999+99999+99999999999ADDAA124000025AT1AU18SN  5AT2AU13BR  5KA1240M-00385KA2240N-01055MG1098094100954OE11240143130008255OE22240080528008255OE33240038499999995REMSOD73024 HR PRECIPITATION (IN):T     24 HR MAX TEMP (F):25 24 HR MAX TEMP TIME (LST):1626 24 HR MIN TEMP (F):13 24 HR MIN TEMP TIME (LST):2349 AVERAGE STATION PRESSURE:28.965 MINIMUM SEA LEVEL PRESSURE:29.81 TIME OF OCCURRENCE:0129 PEAK WIND SPEED (MPH):32  PEAK WIND DIR (DEG):300 PEAK WIND TIME (LST):0825  FASTEST 2MIN SPEED (MPH):18 FASTEST 2MIN DIR (DEG):280 FASTEST 2MIN TIME (LST):0825 AVERAGE WIND SPEED (MPH):8.6  24 HR AVG TEMP (F):19 HEATING DEGREE DAYS:46  COOLING DEGREE DAYS:0   LATEST DAY MAX TEMP (0700-1900 LST):25  LATEST NIGHT MIN TEMP(1900-0800 LST):22 HOURLY INCREMENTAL PRECIPITATION VALUES (IN):    T    0.00 0.00 0.00 0.00 0.00 0.00 0.00 0.00 0.00 0.00 0.00 0.00 0.00 T    T    T    T    0.00 0.00 0.00 0.00 0.00EQDR01     N7GJS072R02     N7GKS075
0245726166547812025010605547+42894-073249FM-15+0252KDDH V0202805N002652200059N0160935N5-01115-01505101685ADDAA101000095GA1005+999999999GD10991+9999999GF100991999999999999999999KA1060M-00671KA2060N-01111MA1101565098565MD1090039+9999REMMET11001/06/25 00:54:02 METAR KDDH 060554Z 28005KT 10SM CLR M11/M15 A2999 RMK AO2 SLP168 T11111150 11067 21111 50003
0231726166547812025010606547+42894-073249FM-15+0252KDDH V0201905N002152200059N0160935N5-01175-01505101655ADDAA101000095GA1045+008845999GD12991+0088459GE19AGL   +99999+99999GF104995999999008841999999MA1101525098535REMMET09501/06/25 01:54:02 METAR KDDH 060654Z 19004KT 10SM SCT029 M12/M15 A2998 RMK AO2 SLP165 T11171150EQDD01      0ADE726
0194726166547812025010607017+42894-073249FM-16+0252KDDH V0201905N00215008845MN0160935N5-01175-01505999999ADDGA1075+008845999GD13991+0088459GE19AGL   +99999+99999GF199999999999008841999999MA1101495098495REMMET08801/06/25 02:01:02 SPECI KDDH 060701Z 19004KT 10SM BKN029 M12/M15 A2997 RMK AO2 T11171150
0212726166547812025010607547+42894-073249FM-15+0252KDDH V0202705N00155007925MN0160935N5-01175-01505101705ADDAA101000095GA1075+007925999GD13991+0079259GE19AGL   +99999+99999GF199999999999007921999999MA1101565098565REMMET09501/06/25 02:54:02 METAR KDDH 060754Z 27003KT 10SM BKN026 M12/M15 A2999 RMK AO2 SLP170 T11171150
0213726166547812025010608387+42894-073249FM-16+0252KDDH V0202205N002152200059N0160935N5-01175-01505999999ADDGA1045+007925999GD12991+0079259GE19AGL   +99999+99999GF104995999999007921999999MA1101525098535REMMET08801/06/25 03:38:02 SPECI KDDH 060838Z 22004KT 10SM SCT026 M12/M15 A2998 RMK AO2 T11171150EQDD01      0ADE726
0232726166547812025010608547+42894-073249FM-15+0252KDDH V0202305N00155007625MN0160935N5-01175-01505101665ADDAA101000095GA1075+007625999GD13991+0076259GE19AGL   +99999+99999GF199999999999007621999999MA1101525098535MD1890029+9999REMMET10101/06/25 03:54:02 METAR KDDH 060854Z 23003KT 10SM BKN025 M12/M15 A2998 RMK AO2 SLP166 T11171150 58002
0213726166547812025010609207+42894-073249FM-16+0252KDDH V0202805N002152200059N0160935N5-01115-01505999999ADDGA1045+007625999GD12991+0076259GE19AGL   +99999+99999GF104995999999007621999999MA1101465098465REMMET08801/06/25 04:20:02 SPECI KDDH 060920Z 28004KT 10SM SCT025 M11/M15 A2996 RMK AO2 T11111150EQDD01      0ADE726
0187726166547812025010609547+42894-073249FM-15+0252KDDH V0209999C000052200059N0160935N5-01115-01505101555ADDAA101000095GA1005+999999999GD10991+9999999GF100991999999999999999999MA1101425098435REMMET09201/06/25 04:54:02 METAR KDDH 060954Z 00000KT 10SM CLR M11/M15 A2995 RMK AO2 SLP155 T11111150
0187726166547812025010610547+42894-073249FM-15+0252KDDH V0202105N001552200059N0160935N5-01225-01505101565ADDAA101000095GA1005+999999999GD10991+9999999GF100991999999999999999999MA1101425098435REMMET09201/06/25 05:54:02 METAR KDDH 061054Z 21003KT 10SM CLR M12/M15 A2995 RMK AO2 SLP156 T11221150
0194726166547812025010611457+42894-073249FM-16+0252KDDH V0209999C00005007625MN0160935N5-01175-01445999999ADDGA1075+007625999GD13991+0076259GE19AGL   +99999+99999GF199999999999007621999999MA1101465098465REMMET08801/06/25 06:45:02 SPECI KDDH 061145Z 00000KT 10SM BKN025 M12/M14 A2996 RMK AO2 T11171144
0270726166547812025010611547+42894-073249FM-15+0252KDDH V0209999C00005007625MN0160935N5-01175-01445101575ADDAA101000095GA1085+007625999GD14991+0076259GE19AGL   +99999+99999GF199999999999007621999999KA1060M-01061KA2060N-01281MA1101425098435MD1590099+9999REMMET11301/06/25 06:54:02 METAR KDDH 061154Z 00000KT 10SM OVC025 M12/M14 A2995 RMK AO2 SLP157 T11171144 11106 21128 55009
0212726166547812025010612547+42894-073249FM-15+0252KDDH V0203405N00155006405MN0160935N5-01175-01505101465ADDAA101000095GA1085+006405999GD14991+0064059GE19AGL   +99999+99999GF199999999999006401999999MA1101325098335REMMET09501/06/25 07:54:02 METAR KDDH 061254Z 34003KT 10SM OVC021 M12/M15 A2992 RMK AO2 SLP146 T11171150
0213726166547812025010613247+42894-073249FM-16+0252KDDH V0209999C000052200059N0160935N5-01175-01505999999ADDGA1045+006105999GD12991+0061059GE19AGL   +99999+99999GF104995999999006101999999MA1101255098265REMMET08801/06/25 08:24:02 SPECI KDDH 061324Z 00000KT 10SM SCT020 M12/M15 A2990 RMK AO2 T11171150EQDD01      0ADE726
0141726166547812025010613526+42894-073249FM-16+0252KDDH V0209999C00005005795MN0160935N5-01105-01505999999ADDGA1075+005795999GD13991+0057959MA1101325098335REMMET08301/06/25 08:52:02 SPECI KDDH 061352Z 00000KT 10SM BKN019 M11/M15 A2992 RMK AO2 FIBI
0212726166547812025010613547+42894-073249FM-15+0252KDDH V0209999C00005005795MN0160935N5-01115-01445101455ADDAA101000095GA1075+005795999GD13991+0057959GE19AGL   +99999+99999GF199999999999005791999999MA1101325098335REMMET09501/06/25 08:54:02 METAR KDDH 061354Z 00000KT 10SM BKN019 M11/M14 A2992 RMK AO2 SLP145 T11111144
0232726166547812025010614547+42894-073249FM-15+0252KDDH V0209999C00005005795MN0160935N5-01065-01445101365ADDAA101000095GA1085+005795999GD14991+0057959GE19AGL   +99999+99999GF199999999999005791999999MA1101225098235MD1690219+9999REMMET10101/06/25 09:54:02 METAR KDDH 061454Z 00000KT 10SM OVC019 M11/M14 A2989 RMK AO2 SLP136 T11061144 56021
0212726166547812025010615547+42894-073249FM-15+0252KDDH V0202605N00215006105MN0160935N5-01065-01445101335ADDAA101000095GA1085+006105999GD14991+0061059GE19AGL   +99999+99999GF199999999999006101999999MA1101195098205REMMET09501/06/25 10:54:02 METAR KDDH 061554Z 26004KT 10SM OVC020 M11/M14 A2988 RMK AO2 SLP133 T11061144
0213726166547812025010616397+42894-073249FM-16+0252KDDH V0202505N002652200059N0160935N5-01005-01445999999ADDGA1045+006105999GD12991+0061059GE19AGL   +99999+99999GF104995999999006101999999MA1101025098035REMMET08801/06/25 11:39:02 SPECI KDDH 061639Z 25005KT 10SM SCT020 M10/M14 A2983 RMK AO2 T11001144EQDD01      0ADE726
0187726166547812025010616547+42894-073249FM-15+0252KDDH V0202605N002652200059N0160935N5-00945-01445101135ADDAA101000095GA1005+999999999GD10991+9999999GF100991999999999999999999MA1100985098005REMMET09201/06/25 11:54:02 METAR KDDH 061654Z 26005KT 10SM CLR M09/M14 A2982 RMK AO2 SLP113 T10941144
0245726166547812025010617547+42894-073249FM-15+0252KDDH V0202805N003652200059N0160935N5-00945-01445101045ADDAA101000095GA1005+999999999GD10991+9999999GF100991999999999999999999KA1060M-00891KA2060N-01171MA1100885097905MD1890329+9999REMMET11001/06/25 12:54:02 METAR KDDH 061754Z 28007KT 10SM CLR M09/M14 A2979 RMK AO2 SLP104 T10941144 11089 21117 58032
0231726166547812025010618547+42894-073249FM-15+0252KDDH V0202805N002652200059N0160935N5-00895-01505100905ADDAA101000095GA1025+036585999GD11991+0365859GE19AGL   +99999+99999GF102995999999036581999999MA1100755097775REMMET09501/06/25 13:54:02 METAR KDDH 061854Z 28005KT 10SM FEW120 M09/M15 A2975 RMK AO2 SLP090 T10891150EQDD01      0ADE726
0231726166547812025010619547+42894-073249FM-15+0252KDDH V0209999V003152200059N0160935N5-00895-01505100865ADDAA101000095GA1045+036585999GD12991+0365859GE19AGL   +99999+99999GF104995999999036581999999MA1100715097735REMMET09501/06/25 14:54:02 METAR KDDH 061954Z VRB06KT 10SM SCT120 M09/M15 A2974 RMK AO2 SLP086 T10891150EQDD01      0ADE726
0251726166547812025010620547+42894-073249FM-15+0252KDDH V0209999V002152200059N0160935N5-00945-01565100795ADDAA101000095GA1025+033535999GD11991+0335359GE19AGL   +99999+99999GF102995999999033531999999MA1100645097675MD1690249+9999REMMET10101/06/25 15:54:02 METAR KDDH 062054Z VRB04KT 10SM FEW110 M09/M16 A2972 RMK AO2 SLP079 T10941156 56024EQDD01      0ADE726
0212726166547812025010621547+42894-073249FM-15+0252KDDH V0209999V00215036585MN0160935N5-01005-01565100785ADDAA101000095GA1085+036585999GD14991+0365859GE19AGL   +99999+99999GF199999999999036581999999MA1100645097675REMMET09501/06/25 16:54:02 METAR KDDH 062154Z VRB04KT 10SM OVC120 M10/M16 A2972 RMK AO2 SLP078 T11001156
0231726166547812025010622547+42894-073249FM-15+0252KDDH V0203205N004152200059N0160935N5-01005-01565100755ADDAA101000095GA1025+036585999GD11991+0365859GE19AGL   +99999+99999GF102995999999036581999999MA1100615097635REMMET09501/06/25 17:54:02 METAR KDDH 062254Z 32008KT 10SM FEW120 M10/M16 A2971 RMK AO2 SLP075 T11001156EQDD01      0ADE726
0245726166547812025010623547+42894-073249FM-15+0252KDDH V0203205N002152200059N0160935N5-01115-01675100745ADDAA101000095GA1005+999999999GD10991+9999999GF100991999999999999999999KA1060M-00781KA2060N-01111MA1100615097635MD1690059+9999REMMET11001/06/25 18:54:02 METAR KDDH 062354Z 32004KT 10SM CLR M11/M17 A2971 RMK AO2 SLP074 T11111167 11078 21111 56005
0231726166547812025010700547+42894-073249FM-15+0252KDDH V0203005N003152200059N0160935N5-01115-01675100735ADDAA101000095GA1025+008235999GD11991+0082359GE19AGL   +99999+99999GF102995999999008231999999MA1100585097605REMMET09501/06/25 19:54:01 METAR KDDH 070054Z 30006KT 10SM FEW027 M11/M17 A2970 RMK AO2 SLP073 T11111167EQDD01      0ADE726
0194726166547812025010701397+42894-073249FM-16+0252KDDH V0203105N00315007325MN0160935N5-01175-01615999999ADDGA1075+007325999GD13991+0073259GE19AGL   +99999+99999GF199999999999007321999999MA1100585097605REMMET08801/06/25 20:39:01 SPECI KDDH 070139Z 31006KT 10SM BKN024 M12/M16 A2970 RMK AO2 T11171161
0212726166547812025010701547+42894-073249FM-15+0252KDDH V0203205N00415007625MN0160935N5-01175-01615100715ADDAA101000095GA1085+007625999GD14991+0076259GE19AGL   +99999+99999GF199999999999007621999999MA1100585097605REMMET09501/06/25 20:54:01 METAR KDDH 070154Z 32008KT 10SM OVC025 M12/M16 A2970 RMK AO2 SLP071 T11171161
0231726166547812025010702547+42894-073249FM-15+0252KDDH V0203305N00365007625MN0144845N5-01175-01565100715ADDAA101000095GA1085+007625999GD14991+0076259GE19AGL   +99999+99999GF199999999999007621999999MA1100585097605MD1690039+9999REMMET10001/06/25 21:54:01 METAR KDDH 070254Z 33007KT 9SM OVC025 M12/M16 A2970 RMK AO2 SLP071 T11171156 56003
0193726166547812025010703337+42894-073249FM-16+0252KDDH V0203205N00265009455MN0112655N5-01175-01565999999ADDGA1085+009455999GD14991+0094559GE19AGL   +99999+99999GF199999999999009451999999MA1100585097605REMMET08701/06/25 22:33:02 SPECI KDDH 070333Z 32005KT 7SM OVC031 M12/M16 A2970 RMK AO2 T11171156
0250726166547812025010703547+42894-073249FM-15+0252KDDH V0209999V00265009145MN0080475N5-01175-01505100735ADDAA101000025AU110030015AW1715GA1085+009145999GD14991+0091459GE19AGL   +99999+99999GF199999999999009141999999MA1100585097605MW1715REMMET11001/06/25 22:54:02 METAR KDDH 070354Z VRB05KT 5SM -SN OVC030 M12/M15 A2970 RMK AO2 SNB52 SLP073 P0000 T11171150
0275726166547812025010704147+42894-073249FM-16+0252KDDH V0209999C00005006715MN0064375N5-01175-01505999999ADDAA101000021AU110030015AW1715GA1075+006715999GA2085+009145999GD13991+0067159GD24991+0091459GE19AGL   +99999+99999GF199999999999006711999999MA1100585097605MW1715REMMET10401/06/25 23:14:02 SPECI KDDH 070414Z 00000KT 4SM -SN BKN022 OVC030 M12/M15 A2970 RMK AO2 P0000 T11171150
0259726166547812025010704547+42894-073249FM-15+0252KDDH V0202905N00265007925MN0128755N5-01175-01445100695ADDAA101000025GA1085+007925999GD14991+0079259GE19AGL   +99999+99999GF199999999999007921999999KA1240M-00781KA2240N-01281MA1100545097575REMMET11601/06/25 23:54:02 METAR KDDH 070454Z 29005KT 8SM OVC026 M12/M14 A2969 RMK AO2 SNE24 SLP069 P0000 T11171144 410781128
