0159726140547422025010100546+44420-072019FM-15+0212K1V4 V02099999999999999999N9999997N5+00005-00175101105ADDAA101000095MA1101025098505REMMET08612/31/24 19:54:03 METAR K1V4 010054Z      KT 00/M02 A2983 RMK AO1 SLP110 T00001017 RTXEQDR01      7SKY009R02      7GAS009
0165726140547422025010101546+44420-072019FM-15+0212K1V4 V02099999999999999999N9999997N5-00065-00225101055ADDAA101000095MA1100985098475REMMET09212/31/24 20:54:03 METAR K1V4 010154Z      KT M01/M02 A2982 RMK AO1 SLP105 T10061022 RTX FIBIEQDR01      7SKY009R02      7GAS009
0180726140547422025010102546+44420-072019FM-15+0212K1V4 V02099999999999999999N9999997N5-00065-00285100945ADDAA101000095MA1100855098335MD1890139+9999REMMET09312/31/24 21:54:03 METAR K1V4 010254Z      KT M01/M03 A2978 RMK AO1 SLP094 T10061028 58013 RTXEQDR01      7SKY009R02      7GAS009
0160726140547422025010103546+44420-072019FM-15+0212K1V4 V02099999999999999999N9999997N5-00115-00285100825ADDAA101000095MA1100755098235REMMET08712/31/24 22:54:03 METAR K1V4 010354Z      KT M01/M03 A2975 RMK AO1 SLP082 T10111028 RTXEQDR01      7SKY009R02      7GAS009
0175726140547422025010104546+44420-072019FM-15+0212K1V4 V02099999999999999999N9999997N5-00175-00335100735ADDAA101000095MA1100645098135REMMET10212/31/24 23:54:02 METAR K1V4 010454Z      KT M02/M03 A2972 RMK AO1 SLP073 T10171033 400831017 RTX FIBIEQDR01      7SKY009R02      7GAS009
0837726140547422025010104596+44420-072019SOD  +0212K1V4 V020999999999999999999999999999+99999+99999999999ADDAA124000095KA1240M+00835KA2240N-00165MG1098214100304OE11249999999999997OE22249999999999997REMSOD70024 HR PRECIPITATION (IN):0.00  24 HR MAX TEMP (F):47 24 HR MAX TEMP TIME (LST):1456 24 HR MIN TEMP (F):29 24 HR MIN TEMP TIME (LST):2359 AVERAGE STATION PRESSURE:29.000 MINIMUM SEA LEVEL PRESSURE:29.62 TIME OF OCCURRENCE:0118 PEAK WIND SPEED (MPH):M   PEAK WIND DIR (DEG):M   PEAK WIND TIME (LST):M     FASTEST 2MIN SPEED (MPH):M  FASTEST 2MIN DIR (DEG):M   FASTEST 2MIN TIME (LST):M    24 HR AVG TEMP (F):38 HEATING DEGREE DAYS:27  COOLING DEGREE DAYS:0   LATEST DAY MAX TEMP (0700-1900 LST):47  LATEST NIGHT MIN TEMP(1900-0800 LST):36 HOURLY INCREMENTAL PRECIPITATION VALUES (IN):.00 0.00 0.00 0.00 0.00 0.00 0.00 0.00 0.00 0.00 0.00 0.00 0.00 0.00 0.00 0.00 0.00 0.00 0.00 0.00 0.00 0.00 0.00 0.00EQDR01     N7GJS072R02     N7GKS075
1260726140547422025010104596+44420-072019SOM  +0212K1V4 V020999999999999999999999999999+99999+99999999999ADDAB10107296AD10057991112999999996AE1195105015015AH1005002091116285AH2010002891116285AH3015003391116335AH4020003691116365AH5030004691119425AH6045006191119495AI1060007991119425AI2080009491119495AI3100011291119425AI4120013291119495AI5150016091119495AI6180017591120075KB1744N-08285KB2744M+00115KB3744A-04065KC1N9-02222399995KC2M9+01051799995KD1744H12435KD2744C00005KE1175005275045MH1099364102074MK1104881419535099361120525REMSOM796PCP MTOT:4.22 PCP GT 24HRS:2.28 DATE(S):11-12 DAYS W/PCP >=.01:19 DAYS W/PCP >=.10:10 DAYS W/ PCP >=.50:1 DAYS W/PCP >=1.00:1 MSDP AMTS W/DATE-TIME TAGS:MIN:5 0.08  11/1628 MIN:10 0.11  11/1628 MIN:15 0.13  11/1633 MIN:20 0.14  11/1636 MIN:30 0.18  11/1942 MIN:45 0.24  11/1949 MIN:60 0.31  11/1942 MIN:80 0.37  11/1949 MIN:100 0.44  11/1942 MIN:120 0.52  11/1949 MIN:150 0.63  11/1949 MIN:180 0.69  11/2007 AVG DLY MIN:17.1  AVG DLY MAX:32.2  AVG MLY TMP:24.7  MIN TMP:-8 DATE(S):23 MAX TMP:51  DATE(S):17 DAYS MAX <=32:1 DAYS MAX >=90:0  DAYS MIN <=32:27 DAYS MIN  <=0:4  AVG STP:29.340 LWST SLP:29.34 DATE/TIME:112052 HGST SLP:30.97 DATE/TIME:141953 HDD MTH TOT:1243 DEP NORM:-2553 SEASON(JUL 1-JUN 30):2572 DEP NORM:-25536 CDD MTH TOT:0 DEP NORM:-2553 SEASON(JAN 1-DEC 31):598 DEP NORM:-25536EQDR01  4.227ABP070R02  2.287ADP081
0192726140547422025010105546+44420-072019FM-15+0212K1V4 V02099999999999999999N9999997N5-00115-00285100685ADDAA101000095MA1100615098105MD1690259+9999REMMET10501/01/25 00:54:02 METAR K1V4 010554Z      KT M01/M03 A2971 RMK AO1 SLP068 T10111028 10006 21017 56025 RTXEQDR01      7SKY009R02      7GAS009
0160726140547422025010106546+44420-072019FM-15+0212K1V4 V02099999999999999999N9999997N5-00115-00285100575ADDAA101000095MA1100515098005REMMET08701/01/25 01:54:02 METAR K1V4 010654Z      KT M01/M03 A2968 RMK AO1 SLP057 T10111028 RTXEQDR01      7SKY009R02      7GAS009
0160726140547422025010107546+44420-072019FM-15+0212K1V4 V02099999999999999999N9999997N5-00115-00285100485ADDAA101000095MA1100445097945REMMET08701/01/25 02:54:02 METAR K1V4 010754Z      KT M01/M03 A2966 RMK AO1 SLP048 T10111028 RTXEQDR01      7SKY009R02      7GAS009
0180726140547422025010108546+44420-072019FM-15+0212K1V4 V02099999999999999999N9999997N5-00065-00225100245ADDAA101000095MA1100175097675MD1890429+9999REMMET09301/01/25 03:54:02 METAR K1V4 010854Z      KT M01/M02 A2958 RMK AO1 SLP024 T10061022 58042 RTXEQDR01      7SKY009R02      7GAS009
0159726140547422025010109546+44420-072019FM-15+0212K1V4 V02099999999999999999N9999997N5+00005-00175100285ADDAA101000395MA1100205097705REMMET08601/01/25 04:54:02 METAR K1V4 010954Z      KT 00/M02 A2959 RMK AO1 SLP028 T00001017 RTXEQDR01      7SKY009R02      7GAS009
0165726140547422025010110546+44420-072019FM-15+0212K1V4 V02099999999999999999N9999997N5+00335-00065100125ADDAA101000595MA1100075097575REMMET09201/01/25 05:54:02 METAR K1V4 011054Z      KT 03/M01 A2955 RMK AO1 SLP012 P0003 T00331006 RTXEQDR01      7SKY009R02      7GAS009
0229726140547422025010111546+44420-072019FM-15+0212K1V4 V02099999999999999999N9999997N5+00395+00005100005ADDAA101000095AA206000891AA324000891MA1099935097445MD1890259+9999REMMET12001/01/25 06:54:02 METAR K1V4 011154Z      KT 04/00 A2951 RMK AO1 SLP000 60003 70003 T00390000 10039 21011 58025 RTX FIBIEQDR01      7SKY009R02      7GAS009
0158726140547422025010112546+44420-072019FM-15+0212K1V4 V02099999999999999999N9999997N5+00445+00005099935ADDAA101000095MA1099865097375REMMET08501/01/25 07:54:02 METAR K1V4 011254Z      KT 04/00 A2949 RMK AO1 SLP993 T00440000 RTXEQDR01      7SKY009R02      7GAS009
0163726140547422025010113546+44420-072019FM-15+0212K1V4 V02099999999999999999N9999997N5+00445+00005099865ADDAA101000395MA1099805097315REMMET09001/01/25 08:54:02 METAR K1V4 011354Z      KT 04/00 A2947 RMK AO1 SLP986 T00440000 RTX FIBIEQDR01      7SKY009R02      7GAS009
0201726140547422025010114546+44420-072019FM-15+0212K1V4 V02099999999999999999N9999997N5+00505+00065099845ADDAA101000095AA203000391MA1099765097275MD1690169+9999REMMET10301/01/25 09:54:02 METAR K1V4 011454Z      KT 05/01 A2946 RMK AO1 SLP984 P0001 60001 T00500006 56016 RTXEQDR01      7SKY009R02      7GAS009
0158726140547422025010115546+44420-072019FM-15+0212K1V4 V02099999999999999999N9999997N5+00395+00175099755ADDAA101000095MA1099705097215REMMET08501/01/25 10:54:02 METAR K1V4 011554Z      KT 04/02 A2944 RMK AO1 SLP975 T00390017 RTXEQDR01      7SKY009R02      7GAS009
0158726140547422025010116546+44420-072019FM-15+0212K1V4 V02099999999999999999N9999997N5+00445+00225099645ADDAA101000095MA1099565097075REMMET08501/01/25 11:54:02 METAR K1V4 011654Z      KT 04/02 A2940 RMK AO1 SLP964 T00440022 RTXEQDR01      7SKY009R02      7GAS009
0207726140547422025010117546+44420-072019FM-15+0212K1V4 V02099999999999999999N9999997N5+00505+00285099585ADDAA101000095AA206000391MA1099495097015MD1690269+9999REMMET10901/01/25 12:54:02 METAR K1V4 011754Z      KT 05/03 A2938 RMK AO1 SLP958 60001 T00500028 10050 20033 56026 RTXEQDR01      7SKY009R02      7GAS009
0158726140547422025010118546+44420-072019FM-15+0212K1V4 V02099999999999999999N9999997N5+00505+00225099535ADDAA101000095MA1099465096975REMMET08501/01/25 13:54:02 METAR K1V4 011854Z      KT 05/02 A2937 RMK AO1 SLP953 T00500022 RTXEQDR01      7SKY009R02      7GAS009
0158726140547422025010119546+44420-072019FM-15+0212K1V4 V02099999999999999999N9999997N5+00445+00225099565ADDAA101000095MA1099495097015REMMET08501/01/25 14:54:02 METAR K1V4 011954Z      KT 04/02 A2938 RMK AO1 SLP956 T00440022 RTXEQDR01      7SKY009R02      7GAS009
0174726140547422025010120546+44420-072019FM-15+0212K1V4 V02099999999999999999N9999997N5+00395+00225099545ADDAA101000095MA1099465096975MD1690049+9999REMMET08701/01/25 15:54:02 METAR K1V4 012054Z      KT 04/02 A2937 RMK AO1 SLP954 T00390022 56004EQDR01      7SKY009R02      7GAS009
0158726140547422025010121546+44420-072019FM-15+0212K1V4 V02099999999999999999N9999997N5+00395+00225099575ADDAA101000095MA1099495097015REMMET08501/01/25 16:54:02 METAR K1V4 012154Z      KT 04/02 A2938 RMK AO1 SLP957 T00390022 RTXEQDR01      7SKY009R02      7GAS009
0163726140547422025010122546+44420-072019FM-15+0212K1V4 V02099999999999999999N9999997N5+00335+00175099535ADDAA101000095MA1099465096975REMMET09001/01/25 17:54:02 METAR K1V4 012254Z      KT 03/02 A2937 RMK AO1 SLP953 T00330017 RTX FIBIEQDR01      7SKY009R02      7GAS009
0195726140547422025010123546+44420-072019FM-15+0212K1V4 V02099999999999999999N9999997N5+00285+00115099515ADDAA101000095MA1099465096975MD1890009+9999REMMET10801/01/25 18:54:02 METAR K1V4 012354Z      KT 03/01 A2937 RMK AO1 SLP951 T00280011 10056 20028 58000 RTX FIBIEQDR01      7SKY009R02      7GAS009
0154726140547422025010200546+44420-072019FM-15+0212K1V4 V02099999999999999999N9999997N5+00395+00005099525ADDAA101000095MA1099495097015REMMET08101/01/25 19:54:01 METAR K1V4 020054Z      KT 04/00 A2938 RMK AO1 SLP952 T00390000EQDR01      7SKY009R02      7GAS009
0163726140547422025010201546+44420-072019FM-15+0212K1V4 V02099999999999999999N9999997N5+00285+00005099555ADDAA101000095MA1099495097015REMMET09001/01/25 20:54:03 METAR K1V4 020154Z      KT 03/00 A2938 RMK AO1 SLP955 T00280000 RTX FIBIEQDR01      7SKY009R02      7GAS009
0175726140547422025010202546+44420-072019FM-15+0212K1V4 V02099999999999999999N9999997N5+00285-00065099575ADDAA101000095MA1099535097045MD1190059+9999REMMET08801/01/25 21:54:01 METAR K1V4 020254Z      KT 03/M01 A2939 RMK AO1 SLP957 T00281006 51005EQDR01      7SKY009R02      7GAS009
0164726140547422025010203546+44420-072019FM-15+0212K1V4 V02099999999999999999N9999997N5+00225-00065099555ADDAA101000095MA1099495097015REMMET09101/01/25 22:54:03 METAR K1V4 020354Z      KT 02/M01 A2938 RMK AO1 SLP955 T00221006 RTX FIBIEQDR01      7SKY009R02      7GAS009
0165726140547422025010204546+44420-072019FM-15+0212K1V4 V02099999999999999999N9999997N5+00225-00175099535ADDAA101000095MA1099465096975REMMET09201/01/25 23:54:02 METAR K1V4 020454Z      KT 02/M02 A2937 RMK AO1 SLP953 T00221017 400561017EQDR01      7SKY009R02      7GAS009
0853726140547422025010204596+44420-072019SOD  +0212K1V4 V020999999999999999999999999999+99999+99999999999ADDAA124001096KA1240M+00565KA2240N-00165MG1097364099494OE11249999999999997OE22249999999999997REMSOD70024 HR PRECIPITATION (IN):0.04  24 HR MAX TEMP (F):42 24 HR MAX TEMP TIME (LST):1327 24 HR MIN TEMP (F):29 24 HR MIN TEMP TIME (LST):0029 AVERAGE STATION PRESSURE:28.750 MINIMUM SEA LEVEL PRESSURE:29.38 TIME OF OCCURRENCE:1857 PEAK WIND SPEED (MPH):M   PEAK WIND DIR (DEG):M   PEAK WIND TIME (LST):M     FASTEST 2MIN SPEED (MPH):M  FASTEST 2MIN DIR (DEG):M   FASTEST 2MIN TIME (LST):M    24 HR AVG TEMP (F):36 HEATING DEGREE DAYS:29  COOLING DEGREE DAYS:0   LATEST DAY MAX TEMP (0700-1900 LST):42  LATEST NIGHT MIN TEMP(1900-0800 LST):29 HOURLY INCREMENTAL PRECIPITATION VALUES (IN):.00 0.00 0.00 0.00 0.01 0.02 0.00 0.00 0.01 0.00 0.00 0.00 0.00 0.00 0.00 0.00 0.00 0.00 0.00 0.00 0.00 0.00 0.00 0.00EQDR01  0.047AAP092R02     N7GJS072R03     N7GKS075
0191726140547422025010205546+44420-072019FM-15+0212K1V4 V02099999999999999999N9999997N5+00225-00225099535ADDAA101000095MA1099495097015MD1590049+9999REMMET10401/02/25 00:54:02 METAR K1V4 020554Z      KT 02/M02 A2938 RMK AO1 SLP953 T00221022 10039 20022 55004 RTXEQDR01      7SKY009R02      7GAS009
0164726140547422025010206546+44420-072019FM-15+0212K1V4 V02099999999999999999N9999997N5+00175-00285099595ADDAA101000095MA1099535097045REMMET09101/02/25 01:54:02 METAR K1V4 020654Z      KT 02/M03 A2939 RMK AO1 SLP959 T00171028 RTX FIBIEQDR01      7SKY009R02      7GAS009
0164726140547422025010207546+44420-072019FM-15+0212K1V4 V02099999999999999999N9999997N5+00115-00395099655ADDAA101000095MA1099595097115REMMET09101/02/25 02:54:02 METAR K1V4 020754Z      KT 01/M04 A2941 RMK AO1 SLP965 T00111039 RTX FIBIEQDR01      7SKY009R02      7GAS009
0179726140547422025010208546+44420-072019FM-15+0212K1V4 V02099999999999999999N9999997N5+00065-00505099725ADDAA101000095MA1099635097145MD1190169+9999REMMET09201/02/25 03:54:02 METAR K1V4 020854Z      KT 01/M05 A2942 RMK AO1 SLP972 T00061050 51016 RTXEQDR01      7SKY009R02      7GAS009
0159726140547422025010209546+44420-072019FM-15+0212K1V4 V02099999999999999999N9999997N5+00005-00505099765ADDAA101000095MA1099705097215REMMET08601/02/25 04:54:02 METAR K1V4 020954Z      KT 00/M05 A2944 RMK AO1 SLP976 T00001050 RTXEQDR01      7SKY009R02      7GAS009
0160726140547422025010210546+44420-072019FM-15+0212K1V4 V02099999999999999999N9999997N5-00065-00505099835ADDAA101000095MA1099765097275REMMET08701/02/25 05:54:02 METAR K1V4 021054Z      KT M01/M05 A2946 RMK AO1 SLP983 T10061050 RTXEQDR01      7SKY009R02      7GAS009
0232726140547422025010211546+44420-072019FM-15+0212K1V4 V02099999999999999999N9999997N5-00115-00445099895ADDAA101000395AA206000391AA324000591MA1099805097315MD1390169+9999REMMET12301/02/25 06:54:02 METAR K1V4 021154Z      KT M01/M04 A2947 RMK AO1 SLP989 P0001 60001 70002 T10111044 10022 21011 53016 RTXEQDR01      7SKY009R02      7GAS009
0165726140547422025010212546+44420-072019FM-15+0212K1V4 V02099999999999999999N9999997N5-00115-00505099965ADDAA101000095MA1099905097405REMMET09201/02/25 07:54:02 METAR K1V4 021254Z      KT M01/M05 A2950 RMK AO1 SLP996 T10111050 RTX FIBIEQDR01      7SKY009R02      7GAS009
0166726140547422025010213546+44420-072019FM-15+0212K1V4 V02099999999999999999N9999997N5-00115-00395100045ADDAA101000395MA1099975097475REMMET09301/02/25 08:54:02 METAR K1V4 021354Z      KT M01/M04 A2952 RMK AO1 SLP004 P0001 T10111039 RTXEQDR01      7SKY009R02      7GAS009
0203726140547422025010214546+44420-072019FM-15+0212K1V4 V02099999999999999999N9999997N5-00065-00445100125ADDAA101000395AA203000591MA1100035097545MD1290229+9999REMMET10501/02/25 09:54:02 METAR K1V4 021454Z      KT M01/M04 A2954 RMK AO1 SLP012 P0001 60002 T10061044 52022 RTXEQDR01      7SKY009R02      7GAS009
0166726140547422025010215546+44420-072019FM-15+0212K1V4 V02099999999999999999N9999997N5-00065-00445100115ADDAA101000395MA1100035097545REMMET09301/02/25 10:54:02 METAR K1V4 021554Z      KT M01/M04 A2954 RMK AO1 SLP011 P0001 T10061044 RTXEQDR01      7SKY009R02      7GAS009
0166726140547422025010216546+44420-072019FM-15+0212K1V4 V02099999999999999999N9999997N5-00115-00445100115ADDAA101000395MA1100035097545REMMET09301/02/25 11:54:02 METAR K1V4 021654Z      KT M01/M04 A2954 RMK AO1 SLP011 P0001 T10111044 RTXEQDR01      7SKY009R02      7GAS009
0220726140547422025010217546+44420-072019FM-15+0212K1V4 V02099999999999999999N9999997N5-00065-00505100135ADDAA101000395AA206001391MA1100035097545MD1390019+9999REMMET12201/02/25 12:54:02 METAR K1V4 021754Z      KT M01/M05 A2954 RMK AO1 SLP013 P0001 60005 T10061050 11006 21011 53001 RTX FIBIEQDR01      7SKY009R02      7GAS009
0165726140547422025010218546+44420-072019FM-15+0212K1V4 V02099999999999999999N9999997N5-00065-00505100155ADDAA101000095MA1100075097575REMMET09201/02/25 13:54:02 METAR K1V4 021854Z      KT M01/M05 A2955 RMK AO1 SLP015 T10061050 RTX FIBIEQDR01      7SKY009R02      7GAS009
0160726140547422025010219546+44420-072019FM-15+0212K1V4 V02099999999999999999N9999997N5-00065-00565100205ADDAA101000095MA1100105097605REMMET08701/02/25 14:54:02 METAR K1V4 021954Z      KT M01/M06 A2956 RMK AO1 SLP020 T10061056 RTXEQDR01      7SKY009R02      7GAS009
0203726140547422025010220546+44420-072019FM-15+0212K1V4 V02099999999999999999N9999997N5-00115-00505100245ADDAA101000395AA203000391MA1100145097645MD1390109+9999REMMET10501/02/25 15:54:02 METAR K1V4 022054Z      KT M01/M05 A2957 RMK AO1 SLP024 P0001 60001 T10111050 53010 RTXEQDR01      7SKY009R02      7GAS009
0160726140547422025010221546+44420-072019FM-15+0212K1V4 V02099999999999999999N9999997N5-00115-00615100245ADDAA101000095MA1100145097645REMMET08701/02/25 16:54:02 METAR K1V4 022154Z      KT M01/M06 A2957 RMK AO1 SLP024 T10111061 RTXEQDR01      7SKY009R02      7GAS009
0160726140547422025010222546+44420-072019FM-15+0212K1V4 V02099999999999999999N9999997N5-00115-00675100295ADDAA101000095MA1100205097705REMMET08701/02/25 17:54:02 METAR K1V4 022254Z      KT M01/M07 A2959 RMK AO1 SLP029 T10111067 RTXEQDR01      7SKY009R02      7GAS009
0220726140547422025010223546+44420-072019FM-15+0212K1V4 V02099999999999999999N9999997N5-00225-00565100335ADDAA101000395AA206000591MA1100205097705MD1390069+9999REMMET12201/02/25 18:54:02 METAR K1V4 022354Z      KT M02/M06 A2959 RMK AO1 SLP033 P0001 60002 T10221056 10000 21022 53006 RTX FIBIEQDR01      7SKY009R02      7GAS009
0165726140547422025010300546+44420-072019FM-15+0212K1V4 V02099999999999999999N9999997N5-00225-00615100345ADDAA101000095MA1100245097745REMMET09201/02/25 19:54:03 METAR K1V4 030054Z      KT M02/M06 A2960 RMK AO1 SLP034 T10221061 RTX FIBIEQDR01      7SKY009R02      7GAS009
0162726140547422025010301546+44420-072019FM-15+0212K1V4 V02099999999999999999N9999997N5-00225-00615100325ADDAA101000395MA1100205097705REMMET08901/02/25 20:54:01 METAR K1V4 030154Z      KT M02/M06 A2959 RMK AO1 SLP032 P0001 T10221061EQDR01      7SKY009R02      7GAS009
0193726140547422025010302546+44420-072019FM-15+0212K1V4 V02099999999999999999N9999997N5-00225-00785100335ADDAA101000095AA203000391MA1100245097745MD1390019+9999REMMET09501/02/25 21:54:01 METAR K1V4 030254Z      KT M02/M08 A2960 RMK AO1 SLP033 60001 T10221078 53001EQDR01      7SKY009R02      7GAS009
0156726140547422025010303546+44420-072019FM-15+0212K1V4 V02099999999999999999N9999997N5-00285-00785100355ADDAA101000095MA1100245097745REMMET08301/02/25 22:54:02 METAR K1V4 030354Z      KT M03/M08 A2960 RMK AO1 SLP035 T10281078EQDR01      7SKY009R02      7GAS009
0181726140547422025010304546+44420-072019FM-15+0212K1V4 V02099999999999999999N9999997N5-00285-00785100355ADDAA101000395MA1100245097745REMMET10801/02/25 23:54:02 METAR K1V4 030454Z      KT M03/M08 A2960 RMK AO1 SLP035 P0001 T10281078 400221033 RTX FIBIEQDR01      7SKY009R02      7GAS009
0853726140547422025010304596+44420-072019SOD  +0212K1V4 V020999999999999999999999999999+99999+99999999999ADDAA124002596KA1240M+00225KA2240N-00325MG1097384099534OE11249999999999997OE22249999999999997REMSOD70024 HR PRECIPITATION (IN):0.10  24 HR MAX TEMP (F):36 24 HR MAX TEMP TIME (LST):0152 24 HR MIN TEMP (F):26 24 HR MIN TEMP TIME (LST):2345 AVERAGE STATION PRESSURE:28.755 MINIMUM SEA LEVEL PRESSURE:29.39 TIME OF OCCURRENCE:0116 PEAK WIND SPEED (MPH):M   PEAK WIND DIR (DEG):M   PEAK WIND TIME (LST):M     FASTEST 2MIN SPEED (MPH):M  FASTEST 2MIN DIR (DEG):M   FASTEST 2MIN TIME (LST):M    24 HR AVG TEMP (F):31 HEATING DEGREE DAYS:34  COOLING DEGREE DAYS:0   LATEST DAY MAX TEMP (0700-1900 LST):32  LATEST NIGHT MIN TEMP(1900-0800 LST):30 HOURLY INCREMENTAL PRECIPITATION VALUES (IN):.00 0.00 0.00 0.00 0.00 0.00 0.01 0.00 0.01 0.01 0.01 0.01 0.01 0.00 0.00 0.01 0.00 0.00 0.01 0.00 0.01 0.00 0.00 0.01EQDR01  0.107AAP092R02     N7GJS072R03     N7GKS075
0209726140547422025010305546+44420-072019FM-15+0212K1V4 V02099999999999999999N9999997N5-00335-00785100345ADDAA101000095AA206000591MA1100245097745MD1090009+9999REMMET11101/03/25 00:54:02 METAR K1V4 030554Z      KT M03/M08 A2960 RMK AO1 SLP034 60002 T10331078 11017 21033 50000 RTXEQDR01      7SKY009R02      7GAS009
0166726140547422025010306546+44420-072019FM-15+0212K1V4 V02099999999999999999N9999997N5-00335-00835100375ADDAA101000395MA1100275097775REMMET09301/03/25 01:54:02 METAR K1V4 030654Z      KT M03/M08 A2961 RMK AO1 SLP037 P0001 T10331083 RTXEQDR01      7SKY009R02      7GAS009
0160726140547422025010307546+44420-072019FM-15+0212K1V4 V02099999999999999999N9999997N5-00395-00725100405ADDAA101000095MA1100275097775REMMET08701/03/25 02:54:02 METAR K1V4 030754Z      KT M04/M07 A2961 RMK AO1 SLP040 T10391072 RTXEQDR01      7SKY009R02      7GAS009
0202726140547422025010308546+44420-072019FM-15+0212K1V4 V02099999999999999999N9999997N5-00335-00725100415ADDAA101000095AA203000391MA1100305097805MD1190079+9999REMMET10401/03/25 03:54:02 METAR K1V4 030854Z      KT M03/M07 A2962 RMK AO1 SLP041 60001 T10331072 51007 RTX FIBIEQDR01      7SKY009R02      7GAS009
0165726140547422025010309546+44420-072019FM-15+0212K1V4 V02099999999999999999N9999997N5-00335-01005100425ADDAA101000095MA1100305097805REMMET09201/03/25 04:54:02 METAR K1V4 030954Z      KT M03/M10 A2962 RMK AO1 SLP042 T10331100 RTX FIBIEQDR01      7SKY009R02      7GAS009
0160726140547422025010310546+44420-072019FM-15+0212K1V4 V02099999999999999999N9999997N5-00395-01065100425ADDAA101000095MA1100305097805REMMET08701/03/25 05:54:02 METAR K1V4 031054Z      KT M04/M11 A2962 RMK AO1 SLP042 T10391106 RTXEQDR01      7SKY009R02      7GAS009
0226726140547422025010311546+44420-072019FM-15+0212K1V4 V02099999999999999999N9999997N5-00395-01065100465ADDAA101000095AA206000391AA324002591MA1100345097845MD1390049+9999REMMET11701/03/25 06:54:02 METAR K1V4 031154Z      KT M04/M11 A2963 RMK AO1 SLP046 60001 70010 T10391106 11033 21044 53004 RTXEQDR01      7SKY009R02      7GAS009
0160726140547422025010312546+44420-072019FM-15+0212K1V4 V02099999999999999999N9999997N5-00505-00945100465ADDAA101000095MA1100345097845REMMET08701/03/25 07:54:02 METAR K1V4 031254Z      KT M05/M09 A2963 RMK AO1 SLP046 T10501094 RTXEQDR01      7SKY009R02      7GAS009
0160726140547422025010313546+44420-072019FM-15+0212K1V4 V02099999999999999999N9999997N5-00505-00895100485ADDAA101000095MA1100345097845REMMET08701/03/25 08:54:02 METAR K1V4 031354Z      KT M05/M09 A2963 RMK AO1 SLP048 T10501089 RTXEQDR01      7SKY009R02      7GAS009
0180726140547422025010314546+44420-072019FM-15+0212K1V4 V02099999999999999999N9999997N5-00335-00895100435ADDAA101000095MA1100305097805MD1890039+9999REMMET09301/03/25 09:54:02 METAR K1V4 031454Z      KT M03/M09 A2962 RMK AO1 SLP043 T10331089 58003 RTXEQDR01      7SKY009R02      7GAS009
0160726140547422025010315546+44420-072019FM-15+0212K1V4 V02099999999999999999N9999997N5-00225-01175100375ADDAA101000095MA1100245097745REMMET08701/03/25 10:54:02 METAR K1V4 031554Z      KT M02/M12 A2960 RMK AO1 SLP037 T10221117 RTXEQDR01      7SKY009R02      7GAS009
0160726140547422025010316546+44420-072019FM-15+0212K1V4 V02099999999999999999N9999997N5-00175-01395100255ADDAA101000095MA1100145097645REMMET08701/03/25 11:54:02 METAR K1V4 031654Z      KT M02/M14 A2957 RMK AO1 SLP025 T10171139 RTXEQDR01      7SKY009R02      7GAS009
0192726140547422025010317546+44420-072019FM-15+0212K1V4 V02099999999999999999N9999997N5-00115-01335100185ADDAA101000095MA1100075097575MD1890249+9999REMMET10501/03/25 12:54:02 METAR K1V4 031754Z      KT M01/M13 A2955 RMK AO1 SLP018 T10111133 11006 21050 58024 RTXEQDR01      7SKY009R02      7GAS009
0159726140547422025010318546+44420-072019FM-15+0212K1V4 V02099999999999999999N9999997N5+00005-01445100155ADDAA101000095MA1100035097545REMMET08601/03/25 13:54:02 METAR K1V4 031854Z      KT 00/M14 A2954 RMK AO1 SLP015 T00001144 RTXEQDR01      7SKY009R02      7GAS009
0160726140547422025010319546+44420-072019FM-15+0212K1V4 V02099999999999999999N9999997N5-00065-01445100185ADDAA101000095MA1100075097575REMMET08701/03/25 14:54:02 METAR K1V4 031954Z      KT M01/M14 A2955 RMK AO1 SLP018 T10061144 RTXEQDR01      7SKY009R02      7GAS009
0180726140547422025010320546+44420-072019FM-15+0212K1V4 V02099999999999999999N9999997N5-00115-01445100195ADDAA101000095MA1100075097575MD1390019+9999REMMET09301/03/25 15:54:02 METAR K1V4 032054Z      KT M01/M14 A2955 RMK AO1 SLP019 T10111144 53001 RTXEQDR01      7SKY009R02      7GAS009
0160726140547422025010321546+44420-072019FM-15+0212K1V4 V02099999999999999999N9999997N5-00225-01445100235ADDAA101000095MA1100105097605REMMET08701/03/25 16:54:02 METAR K1V4 032154Z      KT M02/M14 A2956 RMK AO1 SLP023 T10221144 RTXEQDR01      7SKY009R02      7GAS009
0160726140547422025010322546+44420-072019FM-15+0212K1V4 V02099999999999999999N9999997N5-00285-01395100265ADDAA101000095MA1100145097645REMMET08701/03/25 17:54:02 METAR K1V4 032254Z      KT M03/M14 A2957 RMK AO1 SLP026 T10281139 RTXEQDR01      7SKY009R02      7GAS009
0192726140547422025010323546+44420-072019FM-15+0212K1V4 V02099999999999999999N9999997N5-00445-01335100355ADDAA101000095MA1100205097705MD1390149+9999REMMET10501/03/25 18:54:02 METAR K1V4 032354Z      KT M04/M13 A2959 RMK AO1 SLP035 T10441133 10000 21044 53014 RTXEQDR01      7SKY009R02      7GAS009
0156726140547422025010400546+44420-072019FM-15+0212K1V4 V02099999999999999999N9999997N5-00565-01285100375ADDAA101000095MA1100205097705REMMET08301/03/25 19:54:01 METAR K1V4 040054Z      KT M06/M13 A2959 RMK AO1 SLP037 T10561128EQDR01      7SKY009R02      7GAS009
0156726140547422025010401546+44420-072019FM-15+0212K1V4 V02099999999999999999N9999997N5-00615-01285100385ADDAA101000095MA1100245097745REMMET08301/03/25 20:54:01 METAR K1V4 040154Z      KT M06/M13 A2960 RMK AO1 SLP038 T10611128EQDR01      7SKY009R02      7GAS009
0176726140547422025010402546+44420-072019FM-15+0212K1V4 V02099999999999999999N9999997N5-00675-01285100365ADDAA101000095MA1100205097705MD1890009+9999REMMET08901/03/25 21:54:01 METAR K1V4 040254Z      KT M07/M13 A2959 RMK AO1 SLP036 T10671128 58000EQDR01      7SKY009R02      7GAS009
0156726140547422025010403546+44420-072019FM-15+0212K1V4 V02099999999999999999N9999997N5-00675-01285100355ADDAA101000095MA1100205097705REMMET08301/03/25 22:54:02 METAR K1V4 040354Z      KT M07/M13 A2959 RMK AO1 SLP035 T10671128EQDR01      7SKY009R02      7GAS009
0175726140547422025010404546+44420-072019FM-15+0212K1V4 V02099999999999999999N9999997N5-00725-01285100315ADDAA101000095MA1100175097675REMMET10201/03/25 23:54:02 METAR K1V4 040454Z      KT M07/M13 A2958 RMK AO1 SLP031 T10721128 400001072 RTX FIBIEQDR01      7SKY009R02      7GAS009
0853726140547422025010404596+44420-072019SOD  +0212K1V4 V020999999999999999999999999999+99999+99999999999ADDAA124000396KA1240M+00005KA2240N-00715MG1097704100144OE11249999999999997OE22249999999999997REMSOD70024 HR PRECIPITATION (IN):0.01  24 HR MAX TEMP (F):32 24 HR MAX TEMP TIME (LST):1427 24 HR MIN TEMP (F):19 24 HR MIN TEMP TIME (LST):2359 AVERAGE STATION PRESSURE:28.850 MINIMUM SEA LEVEL PRESSURE:29.57 TIME OF OCCURRENCE:1420 PEAK WIND SPEED (MPH):M   PEAK WIND DIR (DEG):M   PEAK WIND TIME (LST):M     FASTEST 2MIN SPEED (MPH):M  FASTEST 2MIN DIR (DEG):M   FASTEST 2MIN TIME (LST):M    24 HR AVG TEMP (F):26 HEATING DEGREE DAYS:39  COOLING DEGREE DAYS:0   LATEST DAY MAX TEMP (0700-1900 LST):32  LATEST NIGHT MIN TEMP(1900-0800 LST):23 HOURLY INCREMENTAL PRECIPITATION VALUES (IN):.00 0.01 0.00 0.00 0.00 0.00 0.00 0.00 0.00 0.00 0.00 0.00 0.00 0.00 0.00 0.00 0.00 0.00 0.00 0.00 0.00 0.00 0.00 0.00EQDR01  0.017AAP092R02     N7GJS072R03     N7GKS075
0197726140547422025010405546+44420-072019FM-15+0212K1V4 V02099999999999999999N9999997N5-00785-01395100295ADDAA101000095MA1100175097675MD1890069+9999REMMET11001/04/25 00:54:02 METAR K1V4 040554Z      KT M08/M14 A2958 RMK AO1 SLP029 T10781139 11044 21078 58006 RTX FIBIEQDR01      7SKY009R02      7GAS009
0160726140547422025010406546+44420-072019FM-15+0212K1V4 V02099999999999999999N9999997N5-00835-01395100325ADDAA101000095MA1100175097675REMMET08701/04/25 01:54:02 METAR K1V4 040654Z      KT M08/M14 A2958 RMK AO1 SLP032 T10831139 RTXEQDR01      7SKY009R02      7GAS009
0165726140547422025010407546+44420-072019FM-15+0212K1V4 V02099999999999999999N9999997N5-00835-01445100365ADDAA101000095MA1100245097745REMMET09201/04/25 02:54:02 METAR K1V4 040754Z      KT M08/M14 A2960 RMK AO1 SLP036 T10831144 RTX FIBIEQDR01      7SKY009R02      7GAS009
0185726140547422025010408546+44420-072019FM-15+0212K1V4 V02099999999999999999N9999997N5-00945-01565100405ADDAA101000095MA1100275097775MD1290099+9999REMMET09801/04/25 03:54:02 METAR K1V4 040854Z      KT M09/M16 A2961 RMK AO1 SLP040 T10941156 52009 RTX FIBIEQDR01      7SKY009R02      7GAS009
0160726140547422025010409546+44420-072019FM-15+0212K1V4 V02099999999999999999N9999997N5-00945-01565100455ADDAA101000095MA1100305097805REMMET08701/04/25 04:54:02 METAR K1V4 040954Z      KT M09/M16 A2962 RMK AO1 SLP045 T10941156 RTXEQDR01      7SKY009R02      7GAS009
0160726140547422025010410546+44420-072019FM-15+0212K1V4 V02099999999999999999N9999997N5-00945-01565100505ADDAA101000095MA1100345097845REMMET08701/04/25 05:54:02 METAR K1V4 041054Z      KT M09/M16 A2963 RMK AO1 SLP050 T10941156 RTXEQDR01      7SKY009R02      7GAS009
0192726140547422025010411546+44420-072019FM-15+0212K1V4 V02099999999999999999N9999997N5-01005-01675100565ADDAA101000095MA1100415097905MD1390149+9999REMMET10501/04/25 06:54:02 METAR K1V4 041154Z      KT M10/M17 A2965 RMK AO1 SLP056 T11001167 11078 21100 53014 RTXEQDR01      7SKY009R02      7GAS009
0160726140547422025010412546+44420-072019FM-15+0212K1V4 V02099999999999999999N9999997N5-01005-01615100635ADDAA101000095MA1100445097945REMMET08701/04/25 07:54:02 METAR K1V4 041254Z      KT M10/M16 A2966 RMK AO1 SLP063 T11001161 RTXEQDR01      7SKY009R02      7GAS009
0160726140547422025010413546+44420-072019FM-15+0212K1V4 V02099999999999999999N9999997N5-01065-01725100725ADDAA101000095MA1100545098045REMMET08701/04/25 08:54:02 METAR K1V4 041354Z      KT M11/M17 A2969 RMK AO1 SLP072 T11061172 RTXEQDR01      7SKY009R02      7GAS009
0180726140547422025010414546+44420-072019FM-15+0212K1V4 V02099999999999999999N9999997N5-01065-01725100725ADDAA101000095MA1100545098045MD1090139+9999REMMET09301/04/25 09:54:02 METAR K1V4 041454Z      KT M11/M17 A2969 RMK AO1 SLP072 T11061172 50013 RTXEQDR01      7SKY009R02      7GAS009
0165726140547422025010415546+44420-072019FM-15+0212K1V4 V02099999999999999999N9999997N5-01005-01725100675ADDAA101000095MA1100475097975REMMET09201/04/25 10:54:02 METAR K1V4 041554Z      KT M10/M17 A2967 RMK AO1 SLP067 T11001172 RTX FIBIEQDR01      7SKY009R02      7GAS009
0160726140547422025010416546+44420-072019FM-15+0212K1V4 V02099999999999999999N9999997N5-00895-01725100605ADDAA101000095MA1100415097905REMMET08701/04/25 11:54:02 METAR K1V4 041654Z      KT M09/M17 A2965 RMK AO1 SLP060 T10891172 RTXEQDR01      7SKY009R02      7GAS009
0192726140547422025010417546+44420-072019FM-15+0212K1V4 V02099999999999999999N9999997N5-00835-01615100565ADDAA101000095MA1100375097875MD1690149+9999REMMET10501/04/25 12:54:02 METAR K1V4 041754Z      KT M08/M16 A2964 RMK AO1 SLP056 T10831161 11072 21106 56014 RTXEQDR01      7SKY009R02      7GAS009
0160726140547422025010418546+44420-072019FM-15+0212K1V4 V02099999999999999999N9999997N5-00835-01615100595ADDAA101000095MA1100415097905REMMET08701/04/25 13:54:02 METAR K1V4 041854Z      KT M08/M16 A2965 RMK AO1 SLP059 T10831161 RTXEQDR01      7SKY009R02      7GAS009
0165726140547422025010419546+44420-072019FM-15+0212K1V4 V02099999999999999999N9999997N5-00785-01615100615ADDAA101000095MA1100445097945REMMET09201/04/25 14:54:02 METAR K1V4 041954Z      KT M08/M16 A2966 RMK AO1 SLP061 T10781161 RTX FIBIEQDR01      7SKY009R02      7GAS009
0180726140547422025010420546+44420-072019FM-15+0212K1V4 V02099999999999999999N9999997N5-00895-01615100655ADDAA101000095MA1100475097975MD1390089+9999REMMET09301/04/25 15:54:02 METAR K1V4 042054Z      KT M09/M16 A2967 RMK AO1 SLP065 T10891161 53008 RTXEQDR01      7SKY009R02      7GAS009
0160726140547422025010421546+44420-072019FM-15+0212K1V4 V02099999999999999999N9999997N5-00945-01615100715ADDAA101000095MA1100515098005REMMET08701/04/25 16:54:02 METAR K1V4 042154Z      KT M09/M16 A2968 RMK AO1 SLP071 T10941161 RTXEQDR01      7SKY009R02      7GAS009
0165726140547422025010422546+44420-072019FM-15+0212K1V4 V02099999999999999999N9999997N5-01005-01505100765ADDAA101000095MA1100585098075REMMET09201/04/25 17:54:02 METAR K1V4 042254Z      KT M10/M15 A2970 RMK AO1 SLP076 T11001150 RTX FIBIEQDR01      7SKY009R02      7GAS009
0192726140547422025010423546+44420-072019FM-15+0212K1V4 V02099999999999999999N9999997N5-01065-01445100795ADDAA101000095MA1100585098075MD1190129+9999REMMET10501/04/25 18:54:02 METAR K1V4 042354Z      KT M11/M14 A2970 RMK AO1 SLP079 T11061144 11078 21106 51012 RTXEQDR01      7SKY009R02      7GAS009
0165726140547422025010500546+44420-072019FM-15+0212K1V4 V02099999999999999999N9999997N5-01175-01445100825ADDAA101000095MA1100615098105REMMET09201/04/25 19:54:03 METAR K1V4 050054Z      KT M12/M14 A2971 RMK AO1 SLP082 T11171144 RTX FIBIEQDR01      7SKY009R02      7GAS009
0165726140547422025010501546+44420-072019FM-15+0212K1V4 V02099999999999999999N9999997N5-01115-01395100835ADDAA101000095MA1100645098135REMMET09201/04/25 20:54:03 METAR K1V4 050154Z      KT M11/M14 A2972 RMK AO1 SLP083 T11111139 RTX FIBIEQDR01      7SKY009R02      7GAS009
0176726140547422025010502546+44420-072019FM-15+0212K1V4 V02099999999999999999N9999997N5-00945-01505100895ADDAA101000095MA1100685098175MD1390109+9999REMMET08901/04/25 21:54:01 METAR K1V4 050254Z      KT M09/M15 A2973 RMK AO1 SLP089 T10941150 53010EQDR01      7SKY009R02      7GAS009
0156726140547422025010503546+44420-072019FM-15+0212K1V4 V02099999999999999999N9999997N5-01005-01505100905ADDAA101000095MA1100715098205REMMET08301/04/25 22:54:02 METAR K1V4 050354Z      KT M10/M15 A2974 RMK AO1 SLP090 T11001150EQDR01      7SKY009R02      7GAS009
0166726140547422025010504546+44420-072019FM-15+0212K1V4 V02099999999999999999N9999997N5-01065-01505100915ADDAA101000095MA1100715098205REMMET09301/04/25 23:54:02 METAR K1V4 050454Z      KT M11/M15 A2974 RMK AO1 SLP091 T11061150 410721117EQDR01      7SKY009R02      7GAS009
0837726140547422025010504596+44420-072019SOD  +0212K1V4 V020999999999999999999999999999+99999+99999999999ADDAA124000095KA1240M-00715KA2240N-01165MG1097874100304OE11249999999999997OE22249999999999997REMSOD70024 HR PRECIPITATION (IN):0.00  24 HR MAX TEMP (F):19 24 HR MAX TEMP TIME (LST):1218 24 HR MIN TEMP (F):11 24 HR MIN TEMP TIME (LST):2035 AVERAGE STATION PRESSURE:28.900 MINIMUM SEA LEVEL PRESSURE:29.62 TIME OF OCCURRENCE:0159 PEAK WIND SPEED (MPH):M   PEAK WIND DIR (DEG):M   PEAK WIND TIME (LST):M     FASTEST 2MIN SPEED (MPH):M  FASTEST 2MIN DIR (DEG):M   FASTEST 2MIN TIME (LST):M    24 HR AVG TEMP (F):15 HEATING DEGREE DAYS:50  COOLING DEGREE DAYS:0   LATEST DAY MAX TEMP (0700-1900 LST):19  LATEST NIGHT MIN TEMP(1900-0800 LST):14 HOURLY INCREMENTAL PRECIPITATION VALUES (IN):.00 0.00 0.00 0.00 0.00 0.00 0.00 0.00 0.00 0.00 0.00 0.00 0.00 0.00 0.00 0.00 0.00 0.00 0.00 0.00 0.00 0.00 0.00 0.00EQDR01     N7GJS072R02     N7GKS075
0192726140547422025010505546+44420-072019FM-15+0212K1V4 V02099999999999999999N9999997N5-01005-01565100895ADDAA101000095MA1100715098205MD1090019+9999REMMET10501/05/25 00:54:02 METAR K1V4 050554Z      KT M10/M16 A2974 RMK AO1 SLP089 T11001156 11094 21117 50001 RTXEQDR01      7SKY009R02      7GAS009
0165726140547422025010506546+44420-072019FM-15+0212K1V4 V02099999999999999999N9999997N5-00945-01615100935ADDAA101000095MA1100755098235REMMET09201/05/25 01:54:02 METAR K1V4 050654Z      KT M09/M16 A2975 RMK AO1 SLP093 T10941161 RTX FIBIEQDR01      7SKY009R02      7GAS009
0160726140547422025010507546+44420-072019FM-15+0212K1V4 V02099999999999999999N9999997N5-01005-01445100975ADDAA101000095MA1100785098275REMMET08701/05/25 02:54:02 METAR K1V4 050754Z      KT M10/M14 A2976 RMK AO1 SLP097 T11001144 RTXEQDR01      7SKY009R02      7GAS009
0180726140547422025010508546+44420-072019FM-15+0212K1V4 V02099999999999999999N9999997N5-00945-01565100965ADDAA101000095MA1100785098275MD1090079+9999REMMET09301/05/25 03:54:02 METAR K1V4 050854Z      KT M09/M16 A2976 RMK AO1 SLP096 T10941156 50007 RTXEQDR01      7SKY009R02      7GAS009
0165726140547422025010509546+44420-072019FM-15+0212K1V4 V02099999999999999999N9999997N5-00945-01505100955ADDAA101000095MA1100755098235REMMET09201/05/25 04:54:02 METAR K1V4 050954Z      KT M09/M15 A2975 RMK AO1 SLP095 T10941150 RTX FIBIEQDR01      7SKY009R02      7GAS009
0160726140547422025010510546+44420-072019FM-15+0212K1V4 V02099999999999999999N9999997N5-00945-01505100995ADDAA101000095MA1100785098275REMMET08701/05/25 05:54:02 METAR K1V4 051054Z      KT M09/M15 A2976 RMK AO1 SLP099 T10941150 RTXEQDR01      7SKY009R02      7GAS009
0197726140547422025010511546+44420-072019FM-15+0212K1V4 V02099999999999999999N9999997N5-01005-01505101045ADDAA101000095MA1100855098335MD1390079+9999REMMET11001/05/25 06:54:02 METAR K1V4 051154Z      KT M10/M15 A2978 RMK AO1 SLP104 T11001150 11094 21106 53007 RTX FIBIEQDR01      7SKY009R02      7GAS009
0166726140547422025010512546+44420-072019FM-15+0212K1V4 V02099999999999999999N9999997N5-01005-01445101075ADDAA101000395MA1100855098335REMMET09301/05/25 07:54:02 METAR K1V4 051254Z      KT M10/M14 A2978 RMK AO1 SLP107 P0001 T11001144 RTXEQDR01      7SKY009R02      7GAS009
0160726140547422025010513546+44420-072019FM-15+0212K1V4 V02099999999999999999N9999997N5-00945-01505101155ADDAA101000095MA1100955098435REMMET08701/05/25 08:54:02 METAR K1V4 051354Z      KT M09/M15 A2981 RMK AO1 SLP115 T10941150 RTXEQDR01      7SKY009R02      7GAS009
0197726140547422025010514546+44420-072019FM-15+0212K1V4 V02099999999999999999N9999997N5-00945-01445101215ADDAA101000095AA203000391MA1101025098505MD1390169+9999REMMET09901/05/25 09:54:02 METAR K1V4 051454Z      KT M09/M14 A2983 RMK AO1 SLP121 60001 T10941144 53016 RTXEQDR01      7SKY009R02      7GAS009
0160726140547422025010515546+44420-072019FM-15+0212K1V4 V02099999999999999999N9999997N5-01005-01395101245ADDAA101000095MA1101055098535REMMET08701/05/25 10:54:02 METAR K1V4 051554Z      KT M10/M14 A2984 RMK AO1 SLP124 T11001139 RTXEQDR01      7SKY009R02      7GAS009
0160726140547422025010516546+44420-072019FM-15+0212K1V4 V02099999999999999999N9999997N5-01005-01785101265ADDAA101000095MA1101055098535REMMET08701/05/25 11:54:02 METAR K1V4 051654Z      KT M10/M18 A2984 RMK AO1 SLP126 T11001178 RTXEQDR01      7SKY009R02      7GAS009
0209726140547422025010517546+44420-072019FM-15+0212K1V4 V02099999999999999999N9999997N5-01065-01785101275ADDAA101000095AA206000391MA1101085098575MD1190069+9999REMMET11101/05/25 12:54:02 METAR K1V4 051754Z      KT M11/M18 A2985 RMK AO1 SLP127 60001 T11061178 11089 21106 51006 RTXEQDR01      7SKY009R02      7GAS009
0160726140547422025010518546+44420-072019FM-15+0212K1V4 V02099999999999999999N9999997N5-01115-01785101335ADDAA101000095MA1101125098605REMMET08701/05/25 13:54:02 METAR K1V4 051854Z      KT M11/M18 A2986 RMK AO1 SLP133 T11111178 RTXEQDR01      7SKY009R02      7GAS009
0165726140547422025010519546+44420-072019FM-15+0212K1V4 V02099999999999999999N9999997N5-01115-01835101445ADDAA101000095MA1101225098705REMMET09201/05/25 14:54:02 METAR K1V4 051954Z      KT M11/M18 A2989 RMK AO1 SLP144 T11111183 RTX FIBIEQDR01      7SKY009R02      7GAS009
0185726140547422025010520546+44420-072019FM-15+0212K1V4 V02099999999999999999N9999997N5-01225-01835101525ADDAA101000095MA1101325098805MD1390239+9999REMMET09801/05/25 15:54:02 METAR K1V4 052054Z      KT M12/M18 A2992 RMK AO1 SLP152 T11221183 53023 RTX FIBIEQDR01      7SKY009R02      7GAS009
0160726140547422025010521546+44420-072019FM-15+0212K1V4 V02099999999999999999N9999997N5-01285-01785101615ADDAA101000095MA1101395098865REMMET08701/05/25 16:54:02 METAR K1V4 052154Z      KT M13/M18 A2994 RMK AO1 SLP161 T11281178 RTXEQDR01      7SKY009R02      7GAS009
0165726140547422025010522546+44420-072019FM-15+0212K1V4 V02099999999999999999N9999997N5-01335-01835101675ADDAA101000095MA1101465098935REMMET09201/05/25 17:54:02 METAR K1V4 052254Z      KT M13/M18 A2996 RMK AO1 SLP167 T11331183 RTX FIBIEQDR01      7SKY009R02      7GAS009
0192726140547422025010523546+44420-072019FM-15+0212K1V4 V02099999999999999999N9999997N5-01395-01945101735ADDAA101000095MA1101495098965MD1190209+9999REMMET10501/05/25 18:54:02 METAR K1V4 052354Z      KT M14/M19 A2997 RMK AO1 SLP173 T11391194 11106 21139 51020 RTXEQDR01      7SKY009R02      7GAS009
0156726140547422025010600546+44420-072019FM-15+0212K1V4 V02099999999999999999N9999997N5-01505-01945101805ADDAA101000095MA1101565099035REMMET08301/05/25 19:54:01 METAR K1V4 060054Z      KT M15/M19 A2999 RMK AO1 SLP180 T11501194EQDR01      7SKY009R02      7GAS009
0165726140547422025010601546+44420-072019FM-15+0212K1V4 V02099999999999999999N9999997N5-01505-01945101905ADDAA101000095MA1101665099135REMMET09201/05/25 20:54:03 METAR K1V4 060154Z      KT M15/M19 A3002 RMK AO1 SLP190 T11501194 RTX FIBIEQDR01      7SKY009R02      7GAS009
0176726140547422025010602546+44420-072019FM-15+0212K1V4 V02099999999999999999N9999997N5-01565-01945101855ADDAA101000095MA1101635099105MD1090119+9999REMMET08901/05/25 21:54:01 METAR K1V4 060254Z      KT M16/M19 A3001 RMK AO1 SLP185 T11561194 50011EQDR01      7SKY009R02      7GAS009
0156726140547422025010603546+44420-072019FM-15+0212K1V4 V02099999999999999999N9999997N5-01565-01895101905ADDAA101000095MA1101665099135REMMET08301/05/25 22:54:02 METAR K1V4 060354Z      KT M16/M19 A3002 RMK AO1 SLP190 T11561189EQDR01      7SKY009R02      7GAS009
0166726140547422025010604546+44420-072019FM-15+0212K1V4 V02099999999999999999N9999997N5-01565-01945101785ADDAA101000095MA1101565099035REMMET09301/05/25 23:54:02 METAR K1V4 060454Z      KT M16/M19 A2999 RMK AO1 SLP178 T11561194 410891161EQDR01      7SKY009R02      7GAS009
0853726140547422025010604596+44420-072019SOD  +0212K1V4 V020999999999999999999999999999+99999+99999999999ADDAA124000396KA1240M-00885KA2240N-01605MG1098494100884OE11249999999999997OE22249999999999997REMSOD70024 HR PRECIPITATION (IN):0.01  24 HR MAX TEMP (F):16 24 HR MAX TEMP TIME (LST):1043 24 HR MIN TEMP (F):3  24 HR MIN TEMP TIME (LST):2241 AVERAGE STATION PRESSURE:29.085 MINIMUM SEA LEVEL PRESSURE:29.79 TIME OF OCCURRENCE:0116 PEAK WIND SPEED (MPH):M   PEAK WIND DIR (DEG):M   PEAK WIND TIME (LST):M     FASTEST 2MIN SPEED (MPH):M  FASTEST 2MIN DIR (DEG):M   FASTEST 2MIN TIME (LST):M    24 HR AVG TEMP (F):10 HEATING DEGREE DAYS:55  COOLING DEGREE DAYS:0   LATEST DAY MAX TEMP (0700-1900 LST):16  LATEST NIGHT MIN TEMP(1900-0800 LST):11 HOURLY INCREMENTAL PRECIPITATION VALUES (IN):.00 0.00 0.00 0.00 0.00 0.00 0.00 0.01 0.00 0.00 0.00 0.00 0.00 0.00 0.00 0.00 0.00 0.00 0.00 0.00 0.00 0.00 0.00 0.00EQDR01  0.017AAP092R02     N7GJS072R03     N7GKS075
0192726140547422025010605546+44420-072019FM-15+0212K1V4 V02099999999999999999N9999997N5-01565-01945101815ADDAA101000095MA1101565099035MD1890049+9999REMMET10501/06/25 00:54:02 METAR K1V4 060554Z      KT M16/M19 A2999 RMK AO1 SLP181 T11561194 11139 21161 58004 RTXEQDR01      7SKY009R02      7GAS009
0165726140547422025010606546+44420-072019FM-15+0212K1V4 V02099999999999999999N9999997N5-01615-01945101765ADDAA101000095MA1101525099005REMMET09201/06/25 01:54:02 METAR K1V4 060654Z      KT M16/M19 A2998 RMK AO1 SLP176 T11611194 RTX FIBIEQDR01      7SKY009R02      7GAS009
0160726140547422025010607546+44420-072019FM-15+0212K1V4 V02099999999999999999N9999997N5-01675-01945101785ADDAA101000095MA1101525099005REMMET08701/06/25 02:54:02 METAR K1V4 060754Z      KT M17/M19 A2998 RMK AO1 SLP178 T11671194 RTXEQDR01      7SKY009R02      7GAS009
0180726140547422025010608546+44420-072019FM-15+0212K1V4 V02099999999999999999N9999997N5-01565-01945101785ADDAA101000095MA1101525099005MD1690059+9999REMMET09301/06/25 03:54:02 METAR K1V4 060854Z      KT M16/M19 A2998 RMK AO1 SLP178 T11561194 56005 RTXEQDR01      7SKY009R02      7GAS009
0160726140547422025010609546+44420-072019FM-15+0212K1V4 V02099999999999999999N9999997N5-01675-01945101735ADDAA101000095MA1101495098965REMMET08701/06/25 04:54:02 METAR K1V4 060954Z      KT M17/M19 A2997 RMK AO1 SLP173 T11671194 RTXEQDR01      7SKY009R02      7GAS009
0165726140547422025010610546+44420-072019FM-15+0212K1V4 V02099999999999999999N9999997N5-01675-01945101695ADDAA101000095MA1101425098905REMMET09201/06/25 05:54:02 METAR K1V4 061054Z      KT M17/M19 A2995 RMK AO1 SLP169 T11671194 RTX FIBIEQDR01      7SKY009R02      7GAS009
0214726140547422025010611546+44420-072019FM-15+0212K1V4 V02099999999999999999N9999997N5-01725-02005101695ADDAA101000095AA224000391MA1101425098905MD1690109+9999REMMET11601/06/25 06:54:02 METAR K1V4 061154Z      KT M17/M20 A2995 RMK AO1 SLP169 70001 T11721200 11156 21172 56010 RTX FIBIEQDR01      7SKY009R02      7GAS009
0165726140547422025010612546+44420-072019FM-15+0212K1V4 V02099999999999999999N9999997N5-01785-02065101695ADDAA101000095MA1101425098905REMMET09201/06/25 07:54:02 METAR K1V4 061254Z      KT M18/M21 A2995 RMK AO1 SLP169 T11781206 RTX FIBIEQDR01      7SKY009R02      7GAS009
0165726140547422025010613546+44420-072019FM-15+0212K1V4 V02099999999999999999N9999997N5-01675-01945101635ADDAA101000095MA1101355098835REMMET09201/06/25 08:54:02 METAR K1V4 061354Z      KT M17/M19 A2993 RMK AO1 SLP163 T11671194 RTX FIBIEQDR01      7SKY009R02      7GAS009
0180726140547422025010614546+44420-072019FM-15+0212K1V4 V02099999999999999999N9999997N5-01445-01895101655ADDAA101000095MA1101395098865MD1590039+9999REMMET09301/06/25 09:54:02 METAR K1V4 061454Z      KT M14/M19 A2994 RMK AO1 SLP165 T11441189 55003 RTXEQDR01      7SKY009R02      7GAS009
0167726140547422025010615546+44420-072019FM-15+0212K1V4 V02099999999999999999N9999997N5-01285-01835101425ADDAA101000095MA1101155098635REMMET09401/06/25 10:54:02 METAR K1V4 061554Z      KT M13/M18 A2987 RMK AO1 PRESFR SLP142 T11281183 RTXEQDR01      7SKY009R02      7GAS009
0160726140547422025010616546+44420-072019FM-15+0212K1V4 V02099999999999999999N9999997N5-01115-01835101255ADDAA101000095MA1101025098505REMMET08701/06/25 11:54:02 METAR K1V4 061654Z      KT M11/M18 A2983 RMK AO1 SLP125 T11111183 RTXEQDR01      7SKY009R02      7GAS009
0199726140547422025010617546+44420-072019FM-15+0212K1V4 V02099999999999999999N9999997N5-00945-01785101045ADDAA101000095MA1100815098305MD1690569+9999REMMET11201/06/25 12:54:02 METAR K1V4 061754Z      KT M09/M18 A2977 RMK AO1 PRESFR SLP104 T10941178 11094 21178 56056 RTXEQDR01      7SKY009R02      7GAS009
0165726140547422025010618546+44420-072019FM-15+0212K1V4 V02099999999999999999N9999997N5-00945-01785100975ADDAA101000095MA1100755098235REMMET09201/06/25 13:54:02 METAR K1V4 061854Z      KT M09/M18 A2975 RMK AO1 SLP097 T10941178 RTX FIBIEQDR01      7SKY009R02      7GAS009
0165726140547422025010619546+44420-072019FM-15+0212K1V4 V02099999999999999999N9999997N5-00895-01785100915ADDAA101000095MA1100685098175REMMET09201/06/25 14:54:02 METAR K1V4 061954Z      KT M09/M18 A2973 RMK AO1 SLP091 T10891178 RTX FIBIEQDR01      7SKY009R02      7GAS009
0185726140547422025010620546+44420-072019FM-15+0212K1V4 V02099999999999999999N9999997N5-01005-01725100935ADDAA101000095MA1100715098205MD1590119+9999REMMET09801/06/25 15:54:02 METAR K1V4 062054Z      KT M10/M17 A2974 RMK AO1 SLP093 T11001172 55011 RTX FIBIEQDR01      7SKY009R02      7GAS009
0160726140547422025010621546+44420-072019FM-15+0212K1V4 V02099999999999999999N9999997N5-01175-01785100935ADDAA101000095MA1100685098175REMMET08701/06/25 16:54:02 METAR K1V4 062154Z      KT M12/M18 A2973 RMK AO1 SLP093 T11171178 RTXEQDR01      7SKY009R02      7GAS009
0160726140547422025010622546+44420-072019FM-15+0212K1V4 V02099999999999999999N9999997N5-01285-01835100935ADDAA101000095MA1100685098175REMMET08701/06/25 17:54:02 METAR K1V4 062254Z      KT M13/M18 A2973 RMK AO1 SLP093 T11281183 RTXEQDR01      7SKY009R02      7GAS009
0192726140547422025010623546+44420-072019FM-15+0212K1V4 V02099999999999999999N9999997N5-01335-01895100905ADDAA101000095MA1100645098135MD1890069+9999REMMET10501/06/25 18:54:02 METAR K1V4 062354Z      KT M13/M19 A2972 RMK AO1 SLP090 T11331189 11083 21133 58006 RTXEQDR01      7SKY009R02      7GAS009
0156726140547422025010700546+44420-072019FM-15+0212K1V4 V02099999999999999999N9999997N5-01335-01835100855ADDAA101000095MA1100585098075REMMET08301/06/25 19:54:01 METAR K1V4 070054Z      KT M13/M18 A2970 RMK AO1 SLP085 T11331183EQDR01      7SKY009R02      7GAS009
0156726140547422025010701546+44420-072019FM-15+0212K1V4 V02099999999999999999N9999997N5-01335-01835100775ADDAA101000095MA1100515098005REMMET08301/06/25 20:54:01 METAR K1V4 070154Z      KT M13/M18 A2968 RMK AO1 SLP077 T11331183EQDR01      7SKY009R02      7GAS009
0185726140547422025010702546+44420-072019FM-15+0212K1V4 V02099999999999999999N9999997N5-01285-01785100665ADDAA101000095MA1100445097945MD1890219+9999REMMET09801/06/25 21:54:03 METAR K1V4 070254Z      KT M13/M18 A2966 RMK AO1 SLP066 T11281178 58021 RTX FIBIEQDR01      7SKY009R02      7GAS009
0156726140547422025010703546+44420-072019FM-15+0212K1V4 V02099999999999999999N9999997N5-01285-01725100625ADDAA101000095MA1100415097905REMMET08301/06/25 22:54:02 METAR K1V4 070354Z      KT M13/M17 A2965 RMK AO1 SLP062 T11281172EQDR01      7SKY009R02      7GAS009
0166726140547422025010704546+44420-072019FM-15+0212K1V4 V02099999999999999999N9999997N5-01285-01675100555ADDAA101000095MA1100345097845REMMET09301/06/25 23:54:02 METAR K1V4 070454Z      KT M13/M17 A2963 RMK AO1 SLP055 T11281167 410831178EQDR01      7SKY009R02      7GAS009
0837726140547422025010704596+44420-072019SOD  +0212K1V4 V020999999999999999999999999999+99999+99999999999ADDAA124000095KA1240M-00825KA2240N-01775MG1098584100544OE11249999999999997OE22249999999999997REMSOD70024 HR PRECIPITATION (IN):0.00  24 HR MAX TEMP (F):17 24 HR MAX TEMP TIME (LST):1403 24 HR MIN TEMP (F):0  24 HR MIN TEMP TIME (LST):0821 AVERAGE STATION PRESSURE:29.110 MINIMUM SEA LEVEL PRESSURE:29.69 TIME OF OCCURRENCE:2359 PEAK WIND SPEED (MPH):M   PEAK WIND DIR (DEG):M   PEAK WIND TIME (LST):M     FASTEST 2MIN SPEED (MPH):M  FASTEST 2MIN DIR (DEG):M   FASTEST 2MIN TIME (LST):M    24 HR AVG TEMP (F):9  HEATING DEGREE DAYS:56  COOLING DEGREE DAYS:0   LATEST DAY MAX TEMP (0700-1900 LST):17  LATEST NIGHT MIN TEMP(1900-0800 LST):0  HOURLY INCREMENTAL PRECIPITATION VALUES (IN):.00 0.00 0.00 0.00 0.00 0.00 0.00 0.00 0.00 0.00 0.00 0.00 0.00 0.00 0.00 0.00 0.00 0.00 0.00 0.00 0.00 0.00 0.00 0.00EQDR01     N7GJS072R02     N7GKS075
0192726140547422025010705546+44420-072019FM-15+0212K1V4 V02099999999999999999N9999997N5-01175-01615100485ADDAA101000095MA1100275097775MD1890159+9999REMMET10501/07/25 00:54:02 METAR K1V4 070554Z      KT M12/M16 A2961 RMK AO1 SLP048 T11171161 11117 21133 58015 RTXEQDR01      7SKY009R02      7GAS009
0160726140547422025010706546+44420-072019FM-15+0212K1V4 V02099999999999999999N9999997N5-01115-01565100455ADDAA101000095MA1100275097775REMMET08701/07/25 01:54:02 METAR K1V4 070654Z      KT M11/M16 A2961 RMK AO1 SLP045 T11111156 RTXEQDR01      7SKY009R02      7GAS009
0160726140547422025010707546+44420-072019FM-15+0212K1V4 V02099999999999999999N9999997N5-01065-01615100395ADDAA101000095MA1100205097705REMMET08701/07/25 02:54:02 METAR K1V4 070754Z      KT M11/M16 A2959 RMK AO1 SLP039 T11061161 RTXEQDR01      7SKY009R02      7GAS009
0185726140547422025010708546+44420-072019FM-15+0212K1V4 V02099999999999999999N9999997N5-01065-01565100355ADDAA101000095MA1100175097675MD1890129+9999REMMET09801/07/25 03:54:02 METAR K1V4 070854Z      KT M11/M16 A2958 RMK AO1 SLP035 T11061156 58012 RTX FIBIEQDR01      7SKY009R02      7GAS009
0160726140547422025010709546+44420-072019FM-15+0212K1V4 V02099999999999999999N9999997N5-01005-01615100285ADDAA101000095MA1100075097575REMMET08701/07/25 04:54:02 METAR K1V4 070954Z      KT M10/M16 A2955 RMK AO1 SLP028 T11001161 RTXEQDR01      7SKY009R02      7GAS009
0160726140547422025010710546+44420-072019FM-15+0212K1V4 V02099999999999999999N9999997N5-01005-01615100315ADDAA101000095MA1100105097605REMMET08701/07/25 05:54:02 METAR K1V4 071054Z      KT M10/M16 A2956 RMK AO1 SLP031 T11001161 RTXEQDR01      7SKY009R02      7GAS009
0192726140547422025010711546+44420-072019FM-15+0212K1V4 V02099999999999999999N9999997N5-01005-01615100275ADDAA101000095MA1100075097575MD1690109+9999REMMET10501/07/25 06:54:02 METAR K1V4 071154Z      KT M10/M16 A2955 RMK AO1 SLP027 T11001161 11100 21117 56010 RTXEQDR01      7SKY009R02      7GAS009
0160726140547422025010712546+44420-072019FM-15+0212K1V4 V02099999999999999999N9999997N5-00945-01565100285ADDAA101000095MA1100075097575REMMET08701/07/25 07:54:02 METAR K1V4 071254Z      KT M09/M16 A2955 RMK AO1 SLP028 T10941156 RTXEQDR01      7SKY009R02      7GAS009
0160726140547422025010713546+44420-072019FM-15+0212K1V4 V02099999999999999999N9999997N5-00895-01505100335ADDAA101000095MA1100105097605REMMET08701/07/25 08:54:02 METAR K1V4 071354Z      KT M09/M15 A2956 RMK AO1 SLP033 T10891150 RTXEQDR01      7SKY009R02      7GAS009
0180726140547422025010714546+44420-072019FM-15+0212K1V4 V02099999999999999999N9999997N5-00835-01445100375ADDAA101000095MA1100175097675MD1390119+9999REMMET09301/07/25 09:54:02 METAR K1V4 071454Z      KT M08/M14 A2958 RMK AO1 SLP037 T10831144 53011 RTXEQDR01      7SKY009R02      7GAS009
0160726140547422025010715546+44420-072019FM-15+0212K1V4 V02099999999999999999N9999997N5-00725-01445100345ADDAA101000095MA1100145097645REMMET08701/07/25 10:54:02 METAR K1V4 071554Z      KT M07/M14 A2957 RMK AO1 SLP034 T10721144 RTXEQDR01      7SKY009R02      7GAS009
0160726140547422025010716546+44420-072019FM-15+0212K1V4 V02099999999999999999N9999997N5-00725-01505100345ADDAA101000095MA1100145097645REMMET08701/07/25 11:54:02 METAR K1V4 071654Z      KT M07/M15 A2957 RMK AO1 SLP034 T10721150 RTXEQDR01      7SKY009R02      7GAS009
0188726140547422025010717546+44420-072019FM-15+0212K1V4 V02099999999999999999N9999997N5-00725-01445100375ADDAA101000095MA1100175097675MD1390019+9999REMMET10101/07/25 12:54:02 METAR K1V4 071754Z      KT M07/M14 A2958 RMK AO1 SLP037 T10721144 11072 21100 53001EQDR01      7SKY009R02      7GAS009
0165726140547422025010718546+44420-072019FM-15+0212K1V4 V02099999999999999999N9999997N5-00725-01395100405ADDAA101000095MA1100205097705REMMET09201/07/25 13:54:02 METAR K1V4 071854Z      KT M07/M14 A2959 RMK AO1 SLP040 T10721139 RTX FIBIEQDR01      7SKY009R02      7GAS009
0160726140547422025010719546+44420-072019FM-15+0212K1V4 V02099999999999999999N9999997N5-00725-01395100555ADDAA101000095MA1100375097875REMMET08701/07/25 14:54:02 METAR K1V4 071954Z      KT M07/M14 A2964 RMK AO1 SLP055 T10721139 RTXEQDR01      7SKY009R02      7GAS009
0185726140547422025010720546+44420-072019FM-15+0212K1V4 V02099999999999999999N9999997N5-00725-01395100655ADDAA101000095MA1100475097975MD1390289+9999REMMET09801/07/25 15:54:02 METAR K1V4 072054Z      KT M07/M14 A2967 RMK AO1 SLP065 T10721139 53028 RTX FIBIEQDR01      7SKY009R02      7GAS009
0156726140547422025010721546+44420-072019FM-15+0212K1V4 V02099999999999999999N9999997N5-00785-01335100765ADDAA101000095MA1100585098075REMMET08301/07/25 16:54:02 METAR K1V4 072154Z      KT M08/M13 A2970 RMK AO1 SLP076 T10781133EQDR01      7SKY009R02      7GAS009
0160726140547422025010722546+44420-072019FM-15+0212K1V4 V02099999999999999999N9999997N5-00785-01395100845ADDAA101000095MA1100645098135REMMET08701/07/25 17:54:02 METAR K1V4 072254Z      KT M08/M14 A2972 RMK AO1 SLP084 T10781139 RTXEQDR01      7SKY009R02      7GAS009
0192726140547422025010723546+44420-072019FM-15+0212K1V4 V02099999999999999999N9999997N5-00785-01335100875ADDAA101000095MA1100685098175MD1190219+9999REMMET10501/07/25 18:54:02 METAR K1V4 072354Z      KT M08/M13 A2973 RMK AO1 SLP087 T10781133 11067 21078 51021 RTXEQDR01      7SKY009R02      7GAS009
0156726140547422025010800546+44420-072019FM-15+0212K1V4 V02099999999999999999N9999997N5-00785-01395100875ADDAA101000095MA1100685098175REMMET08301/07/25 19:54:01 METAR K1V4 080054Z      KT M08/M14 A2973 RMK AO1 SLP087 T10781139EQDR01      7SKY009R02      7GAS009
0156726140547422025010801546+44420-072019FM-15+0212K1V4 V02099999999999999999N9999997N5-00785-01395100935ADDAA101000095MA1100755098235REMMET08301/07/25 20:54:01 METAR K1V4 080154Z      KT M08/M14 A2975 RMK AO1 SLP093 T10781139EQDR01      7SKY009R02      7GAS009
0176726140547422025010802546+44420-072019FM-15+0212K1V4 V02099999999999999999N9999997N5-00835-01395100965ADDAA101000095MA1100785098275MD1390099+9999REMMET08901/07/25 21:54:01 METAR K1V4 080254Z      KT M08/M14 A2976 RMK AO1 SLP096 T10831139 53009EQDR01      7SKY009R02      7GAS009
0156726140547422025010803546+44420-072019FM-15+0212K1V4 V02099999999999999999N9999997N5-00835-01505101005ADDAA101000095MA1100815098305REMMET08301/07/25 22:54:02 METAR K1V4 080354Z      KT M08/M15 A2977 RMK AO1 SLP100 T10831150EQDR01      7SKY009R02      7GAS009
0166726140547422025010804546+44420-072019FM-15+0212K1V4 V02099999999999999999N9999997N5-00835-01505100955ADDAA101000095MA1100785098275REMMET09301/07/25 23:54:02 METAR K1V4 080454Z      KT M08/M15 A2976 RMK AO1 SLP095 T10831150 410671122EQDR01      7SKY009R02      7GAS009
0837726140547422025010804596+44420-072019SOD  +0212K1V4 V020999999999999999999999999999+99999+99999999999ADDAA124000095KA1240M-00665KA2240N-01215MG1097784100274OE11249999999999997OE22249999999999997REMSOD70024 HR PRECIPITATION (IN):0.00  24 HR MAX TEMP (F):20 24 HR MAX TEMP TIME (LST):1341 24 HR MIN TEMP (F):10 24 HR MIN TEMP TIME (LST):0034 AVERAGE STATION PRESSURE:28.875 MINIMUM SEA LEVEL PRESSURE:29.61 TIME OF OCCURRENCE:0800 PEAK WIND SPEED (MPH):M   PEAK WIND DIR (DEG):M   PEAK WIND TIME (LST):M     FASTEST 2MIN SPEED (MPH):M  FASTEST 2MIN DIR (DEG):M   FASTEST 2MIN TIME (LST):M    24 HR AVG TEMP (F):15 HEATING DEGREE DAYS:50  COOLING DEGREE DAYS:0   LATEST DAY MAX TEMP (0700-1900 LST):20  LATEST NIGHT MIN TEMP(1900-0800 LST):8  HOURLY INCREMENTAL PRECIPITATION VALUES (IN):.00 0.00 0.00 0.00 0.00 0.00 0.00 0.00 0.00 0.00 0.00 0.00 0.00 0.00 0.00 0.00 0.00 0.00 0.00 0.00 0.00 0.00 0.00 0.00EQDR01     N7GJS072R02     N7GKS075
0192726140547422025010805546+44420-072019FM-15+0212K1V4 V02099999999999999999N9999997N5-00895-01565100905ADDAA101000095MA1100715098205MD1890059+9999REMMET10501/08/25 00:54:02 METAR K1V4 080554Z      KT M09/M16 A2974 RMK AO1 SLP090 T10891156 11078 21089 58005 RTXEQDR01      7SKY009R02      7GAS009
0156726140547422025010806546+44420-072019FM-15+0212K1V4 V02099999999999999999N9999997N5-00945-01565100895ADDAA101000095MA1100715098205REMMET08301/08/25 01:54:02 METAR K1V4 080654Z      KT M09/M16 A2974 RMK AO1 SLP089 T10941156EQDR01      7SKY009R02      7GAS009
0160726140547422025010807546+44420-072019FM-15+0212K1V4 V02099999999999999999N9999997N5-00945-01505100905ADDAA101000095MA1100715098205REMMET08701/08/25 02:54:02 METAR K1V4 080754Z      KT M09/M15 A2974 RMK AO1 SLP090 T10941150 RTXEQDR01      7SKY009R02      7GAS009
0180726140547422025010808546+44420-072019FM-15+0212K1V4 V02099999999999999999N9999997N5-01005-01675100915ADDAA101000095MA1100715098205MD1590019+9999REMMET09301/08/25 03:54:02 METAR K1V4 080854Z      KT M10/M17 A2974 RMK AO1 SLP091 T11001167 55001 RTXEQDR01      7SKY009R02      7GAS009
0160726140547422025010809546+44420-072019FM-15+0212K1V4 V02099999999999999999N9999997N5-01115-01725100935ADDAA101000095MA1100755098235REMMET08701/08/25 04:54:02 METAR K1V4 080954Z      KT M11/M17 A2975 RMK AO1 SLP093 T11111172 RTXEQDR01      7SKY009R02      7GAS009
0160726140547422025010810546+44420-072019FM-15+0212K1V4 V02099999999999999999N9999997N5-01225-01835100945ADDAA101000095MA1100755098235REMMET08701/08/25 05:54:02 METAR K1V4 081054Z      KT M12/M18 A2975 RMK AO1 SLP094 T11221183 RTXEQDR01      7SKY009R02      7GAS009
0197726140547422025010811546+44420-072019FM-15+0212K1V4 V02099999999999999999N9999997N5-01285-01895100955ADDAA101000095MA1100755098235MD1190039+9999REMMET11001/08/25 06:54:02 METAR K1V4 081154Z      KT M13/M19 A2975 RMK AO1 SLP095 T11281189 11089 21128 51003 RTX FIBIEQDR01      7SKY009R02      7GAS009
0156726140547422025010812546+44420-072019FM-15+0212K1V4 V02099999999999999999N9999997N5-01285-01895100925ADDAA101000095MA1100715098205REMMET08301/08/25 07:54:02 METAR K1V4 081254Z      KT M13/M19 A2974 RMK AO1 SLP092 T11281189EQDR01      7SKY009R02      7GAS009
0160726140547422025010813546+44420-072019FM-15+0212K1V4 V02099999999999999999N9999997N5-01285-01945100935ADDAA101000095MA1100755098235REMMET08701/08/25 08:54:02 METAR K1V4 081354Z      KT M13/M19 A2975 RMK AO1 SLP093 T11281194 RTXEQDR01      7SKY009R02      7GAS009
0185726140547422025010814546+44420-072019FM-15+0212K1V4 V02099999999999999999N9999997N5-01285-01945100895ADDAA101000095MA1100685098175MD1890079+9999REMMET09801/08/25 09:54:02 METAR K1V4 081454Z      KT M13/M19 A2973 RMK AO1 SLP089 T11281194 58007 RTX FIBIEQDR01      7SKY009R02      7GAS009
0160726140547422025010815546+44420-072019FM-15+0212K1V4 V02099999999999999999N9999997N5-01285-01895100865ADDAA101000095MA1100645098135REMMET08701/08/25 10:54:02 METAR K1V4 081554Z      KT M13/M19 A2972 RMK AO1 SLP086 T11281189 RTXEQDR01      7SKY009R02      7GAS009
0160726140547422025010816546+44420-072019FM-15+0212K1V4 V02099999999999999999N9999997N5-01225-01895100695ADDAA101000095MA1100515098005REMMET08701/08/25 11:54:02 METAR K1V4 081654Z      KT M12/M19 A2968 RMK AO1 SLP069 T11221189 RTXEQDR01      7SKY009R02      7GAS009
0197726140547422025010817546+44420-072019FM-15+0212K1V4 V02099999999999999999N9999997N5-01225-01945100625ADDAA101000095MA1100415097905MD1890259+9999REMMET11001/08/25 12:54:02 METAR K1V4 081754Z      KT M12/M19 A2965 RMK AO1 SLP062 T11221194 11122 21128 58025 RTX FIBIEQDR01      7SKY009R02      7GAS009
0160726140547422025010818546+44420-072019FM-15+0212K1V4 V02099999999999999999N9999997N5-01225-01945100595ADDAA101000095MA1100375097875REMMET08701/08/25 13:54:02 METAR K1V4 081854Z      KT M12/M19 A2964 RMK AO1 SLP059 T11221194 RTXEQDR01      7SKY009R02      7GAS009
0162726140547422025010819546+44420-072019FM-15+0212K1V4 V02099999999999999999N9999997N5-01225-01785100575ADDAA101000395MA1100375097875REMMET08901/08/25 14:54:02 METAR K1V4 081954Z      KT M12/M18 A2964 RMK AO1 SLP057 P0001 T11221178EQDR01      7SKY009R02      7GAS009
0197726140547422025010820546+44420-072019FM-15+0212K1V4 V02099999999999999999N9999997N5-01285-01945100615ADDAA101000095AA203000391MA1100415097905MD1590029+9999REMMET09901/08/25 15:54:02 METAR K1V4 082054Z      KT M13/M19 A2965 RMK AO1 SLP061 60001 T11281194 55002 RTXEQDR01      7SKY009R02      7GAS009
0160726140547422025010821546+44420-072019FM-15+0212K1V4 V02099999999999999999N9999997N5-01335-02005100605ADDAA101000095MA1100375097875REMMET08701/08/25 16:54:02 METAR K1V4 082154Z      KT M13/M20 A2964 RMK AO1 SLP060 T11331200 RTXEQDR01      7SKY009R02      7GAS009
0156726140547422025010822546+44420-072019FM-15+0212K1V4 V02099999999999999999N9999997N5-01335-02005100605ADDAA101000095MA1100375097875REMMET08301/08/25 17:54:02 METAR K1V4 082254Z      KT M13/M20 A2964 RMK AO1 SLP060 T11331200EQDR01      7SKY009R02      7GAS009
0209726140547422025010823546+44420-072019FM-15+0212K1V4 V02099999999999999999N9999997N5-01335-01945100585ADDAA101000095AA206000391MA1100345097845MD1890049+9999REMMET11101/08/25 18:54:02 METAR K1V4 082354Z      KT M13/M19 A2963 RMK AO1 SLP058 60001 T11331194 11117 21133 58004 RTXEQDR01      7SKY009R02      7GAS009
0165726140547422025010900546+44420-072019FM-15+0212K1V4 V02099999999999999999N9999997N5-01285-01895100535ADDAA101000095MA1100305097805REMMET09201/08/25 19:54:03 METAR K1V4 090054Z      KT M13/M19 A2962 RMK AO1 SLP053 T11281189 RTX FIBIEQDR01      7SKY009R02      7GAS009
0165726140547422025010901546+44420-072019FM-15+0212K1V4 V02099999999999999999N9999997N5-01225-01895100485ADDAA101000095MA1100245097745REMMET09201/08/25 20:54:03 METAR K1V4 090154Z      KT M12/M19 A2960 RMK AO1 SLP048 T11221189 RTX FIBIEQDR01      7SKY009R02      7GAS009
0185726140547422025010902546+44420-072019FM-15+0212K1V4 V02099999999999999999N9999997N5-01175-01835100425ADDAA101000095MA1100205097705MD1890159+9999REMMET09801/08/25 21:54:03 METAR K1V4 090254Z      KT M12/M18 A2959 RMK AO1 SLP042 T11171183 58015 RTX FIBIEQDR01      7SKY009R02      7GAS009
0156726140547422025010903546+44420-072019FM-15+0212K1V4 V02099999999999999999N9999997N5-01175-01785100365ADDAA101000095MA1100145097645REMMET08301/08/25 22:54:02 METAR K1V4 090354Z      KT M12/M18 A2957 RMK AO1 SLP036 T11171178EQDR01      7SKY009R02      7GAS009
0166726140547422025010904546+44420-072019FM-15+0212K1V4 V02099999999999999999N9999997N5-01115-01725100315ADDAA101000095MA1100105097605REMMET09301/08/25 23:54:02 METAR K1V4 090454Z      KT M11/M17 A2956 RMK AO1 SLP031 T11111172 410831133EQDR01      7SKY009R02      7GAS009
0853726140547422025010904596+44420-072019SOD  +0212K1V4 V020999999999999999999999999999+99999+99999999999ADDAA124000396KA1240M-00825KA2240N-01325MG1098044100304OE11249999999999997OE22249999999999997REMSOD70024 HR PRECIPITATION (IN):0.01  24 HR MAX TEMP (F):17 24 HR MAX TEMP TIME (LST):0013 24 HR MIN TEMP (F):8  24 HR MIN TEMP TIME (LST):1859 AVERAGE STATION PRESSURE:28.950 MINIMUM SEA LEVEL PRESSURE:29.62 TIME OF OCCURRENCE:2359 PEAK WIND SPEED (MPH):M   PEAK WIND DIR (DEG):M   PEAK WIND TIME (LST):M     FASTEST 2MIN SPEED (MPH):M  FASTEST 2MIN DIR (DEG):M   FASTEST 2MIN TIME (LST):M    24 HR AVG TEMP (F):13 HEATING DEGREE DAYS:52  COOLING DEGREE DAYS:0   LATEST DAY MAX TEMP (0700-1900 LST):11  LATEST NIGHT MIN TEMP(1900-0800 LST):9  HOURLY INCREMENTAL PRECIPITATION VALUES (IN):.00 0.00 0.00 0.00 0.00 0.00 0.00 0.00 0.00 0.00 0.00 0.00 0.00 0.00 0.01 0.00 0.00 0.00 0.00 0.00 0.00 0.00 0.00 0.00EQDR01  0.017AAP092R02     N7GJS072R03     N7GKS075
0188726140547422025010905546+44420-072019FM-15+0212K1V4 V02099999999999999999N9999997N5-01115-01725100265ADDAA101000095MA1100035097545MD1690159+9999REMMET10101/09/25 00:54:02 METAR K1V4 090554Z      KT M11/M17 A2954 RMK AO1 SLP026 T11111172 11111 21133 56015EQDR01      7SKY009R02      7GAS009
0156726140547422025010906546+44420-072019FM-15+0212K1V4 V02099999999999999999N9999997N5-01115-01725100265ADDAA101000095MA1100035097545REMMET08301/09/25 01:54:02 METAR K1V4 090654Z      KT M11/M17 A2954 RMK AO1 SLP026 T11111172EQDR01      7SKY009R02      7GAS009
0160726140547422025010907546+44420-072019FM-15+0212K1V4 V02099999999999999999N9999997N5-01115-01725100245ADDAA101000095MA1100035097545REMMET08701/09/25 02:54:02 METAR K1V4 090754Z      KT M11/M17 A2954 RMK AO1 SLP024 T11111172 RTXEQDR01      7SKY009R02      7GAS009
0176726140547422025010908546+44420-072019FM-15+0212K1V4 V02099999999999999999N9999997N5-01175-01675100235ADDAA101000095MA1100005097505MD1890039+9999REMMET08901/09/25 03:54:02 METAR K1V4 090854Z      KT M12/M17 A2953 RMK AO1 SLP023 T11171167 58003EQDR01      7SKY009R02      7GAS009
0156726140547422025010909546+44420-072019FM-15+0212K1V4 V02099999999999999999N9999997N5-01175-01675100285ADDAA101000095MA1100075097575REMMET08301/09/25 04:54:02 METAR K1V4 090954Z      KT M12/M17 A2955 RMK AO1 SLP028 T11171167EQDR01      7SKY009R02      7GAS009
0156726140547422025010910546+44420-072019FM-15+0212K1V4 V02099999999999999999N9999997N5-01175-01675100345ADDAA101000095MA1100145097645REMMET08301/09/25 05:54:02 METAR K1V4 091054Z      KT M12/M17 A2957 RMK AO1 SLP034 T11171167EQDR01      7SKY009R02      7GAS009
0205726140547422025010911546+44420-072019FM-15+0212K1V4 V02099999999999999999N9999997N5-01175-01615100395ADDAA101000095AA224000391MA1100175097675MD1290159+9999REMMET10701/09/25 06:54:02 METAR K1V4 091154Z      KT M12/M16 A2958 RMK AO1 SLP039 70001 T11171161 11111 21117 52015EQDR01      7SKY009R02      7GAS009
0162726140547422025010912546+44420-072019FM-15+0212K1V4 V02099999999999999999N9999997N5-01175-01565100435ADDAA101000395MA1100205097705REMMET08901/09/25 07:54:02 METAR K1V4 091254Z      KT M12/M16 A2959 RMK AO1 SLP043 P0001 T11171156EQDR01      7SKY009R02      7GAS009
0162726140547422025010913546+44420-072019FM-15+0212K1V4 V02099999999999999999N9999997N5-01175-01615100465ADDAA101000395MA1100245097745REMMET08901/09/25 08:54:02 METAR K1V4 091354Z      KT M12/M16 A2960 RMK AO1 SLP046 P0001 T11171161EQDR01      7SKY009R02      7GAS009
0199726140547422025010914546+44420-072019FM-15+0212K1V4 V02099999999999999999N9999997N5-01115-01445100505ADDAA101000595AA203000891MA1100275097775MD1290129+9999REMMET10101/09/25 09:54:02 METAR K1V4 091454Z      KT M11/M14 A2961 RMK AO1 SLP050 P0001 60003 T11111144 52012EQDR01      7SKY009R02      7GAS009
0162726140547422025010915546+44420-072019FM-15+0212K1V4 V02099999999999999999N9999997N5-01065-01505100495ADDAA101000595MA1100275097775REMMET08901/09/25 10:54:02 METAR K1V4 091554Z      KT M11/M15 A2961 RMK AO1 SLP049 P0003 T11061150EQDR01      7SKY009R02      7GAS009
0162726140547422025010916546+44420-072019FM-15+0212K1V4 V02099999999999999999N9999997N5-01005-01505100505ADDAA101000395MA1100305097805REMMET08901/09/25 11:54:02 METAR K1V4 091654Z      KT M10/M15 A2962 RMK AO1 SLP050 P0001 T11001150EQDR01      7SKY009R02      7GAS009
0220726140547422025010917546+44420-072019FM-15+0212K1V4 V02099999999999999999N9999997N5-01005-01445100505ADDAA101000395AA206002091MA1100305097805MD1390019+9999REMMET12201/09/25 12:54:02 METAR K1V4 091754Z      KT M10/M14 A2962 RMK AO1 SLP050 P0001 60008 T11001144 11100 21117 53001 RTX FIBIEQDR01      7SKY009R02      7GAS009
0156726140547422025010918546+44420-072019FM-15+0212K1V4 V02099999999999999999N9999997N5-00945-01395100555ADDAA101000095MA1100345097845REMMET08301/09/25 13:54:02 METAR K1V4 091854Z      KT M09/M14 A2963 RMK AO1 SLP055 T10941139EQDR01      7SKY009R02      7GAS009
0160726140547422025010919546+44420-072019FM-15+0212K1V4 V02099999999999999999N9999997N5-00895-01395100635ADDAA101000095MA1100445097945REMMET08701/09/25 14:54:02 METAR K1V4 091954Z      KT M09/M14 A2966 RMK AO1 SLP063 T10891139 RTXEQDR01      7SKY009R02      7GAS009
0176726140547422025010920546+44420-072019FM-15+0212K1V4 V02099999999999999999N9999997N5-00835-01445100715ADDAA101000095MA1100515098005MD1390229+9999REMMET08901/09/25 15:54:02 METAR K1V4 092054Z      KT M08/M14 A2968 RMK AO1 SLP071 T10831144 53022EQDR01      7SKY009R02      7GAS009
0160726140547422025010921546+44420-072019FM-15+0212K1V4 V02099999999999999999N9999997N5-00835-01445100785ADDAA101000095MA1100585098075REMMET08701/09/25 16:54:02 METAR K1V4 092154Z      KT M08/M14 A2970 RMK AO1 SLP078 T10831144 RTXEQDR01      7SKY009R02      7GAS009
0156726140547422025010922546+44420-072019FM-15+0212K1V4 V02099999999999999999N9999997N5-00835-01445100845ADDAA101000095MA1100645098135REMMET08301/09/25 17:54:02 METAR K1V4 092254Z      KT M08/M14 A2972 RMK AO1 SLP084 T10831144EQDR01      7SKY009R02      7GAS009
0188726140547422025010923546+44420-072019FM-15+0212K1V4 V02099999999999999999N9999997N5-00785-01395100905ADDAA101000095MA1100715098205MD1190189+9999REMMET10101/09/25 18:54:02 METAR K1V4 092354Z      KT M08/M14 A2974 RMK AO1 SLP090 T10781139 11078 21100 51018EQDR01      7SKY009R02      7GAS009
0156726140547422025011000546+44420-072019FM-15+0212K1V4 V02099999999999999999N9999997N5-00785-01335100965ADDAA101000095MA1100755098235REMMET08301/09/25 19:54:01 METAR K1V4 100054Z      KT M08/M13 A2975 RMK AO1 SLP096 T10781133EQDR01      7SKY009R02      7GAS009
0156726140547422025011001546+44420-072019FM-15+0212K1V4 V02099999999999999999N9999997N5-00785-01285101015ADDAA101000095MA1100815098305REMMET08301/09/25 20:54:01 METAR K1V4 100154Z      KT M08/M13 A2977 RMK AO1 SLP101 T10781128EQDR01      7SKY009R02      7GAS009
0176726140547422025011002546+44420-072019FM-15+0212K1V4 V02099999999999999999N9999997N5-00785-01225101055ADDAA101000095MA1100855098335MD1190159+9999REMMET08901/09/25 21:54:01 METAR K1V4 100254Z      KT M08/M12 A2978 RMK AO1 SLP105 T10781122 51015EQDR01      7SKY009R02      7GAS009
0156726140547422025011003546+44420-072019FM-15+0212K1V4 V02099999999999999999N9999997N5-00725-01225101035ADDAA101000095MA1100855098335REMMET08301/09/25 22:54:02 METAR K1V4 100354Z      KT M07/M12 A2978 RMK AO1 SLP103 T10721122EQDR01      7SKY009R02      7GAS009
0166726140547422025011004546+44420-072019FM-15+0212K1V4 V02099999999999999999N9999997N5-00725-01175101065ADDAA101000095MA1100885098375REMMET09301/09/25 23:54:02 METAR K1V4 100454Z      KT M07/M12 A2979 RMK AO1 SLP106 T10721117 410721117EQDR01      7SKY009R02      7GAS009
0853726140547422025011004596+44420-072019SOD  +0212K1V4 V020999999999999999999999999999+99999+99999999999ADDAA124002096KA1240M-00715KA2240N-01165MG1097784100244OE11249999999999997OE22249999999999997REMSOD70024 HR PRECIPITATION (IN):0.08  24 HR MAX TEMP (F):19 24 HR MAX TEMP TIME (LST):2359 24 HR MIN TEMP (F):11 24 HR MIN TEMP TIME (LST):0915 AVERAGE STATION PRESSURE:28.875 MINIMUM SEA LEVEL PRESSURE:29.60 TIME OF OCCURRENCE:0422 PEAK WIND SPEED (MPH):M   PEAK WIND DIR (DEG):M   PEAK WIND TIME (LST):M     FASTEST 2MIN SPEED (MPH):M  FASTEST 2MIN DIR (DEG):M   FASTEST 2MIN TIME (LST):M    24 HR AVG TEMP (F):15 HEATING DEGREE DAYS:50  COOLING DEGREE DAYS:0   LATEST DAY MAX TEMP (0700-1900 LST):18  LATEST NIGHT MIN TEMP(1900-0800 LST):9  HOURLY INCREMENTAL PRECIPITATION VALUES (IN):.00 0.00 0.00 0.00 0.00 0.00 0.00 0.01 0.01 0.02 0.02 0.01 0.01 0.00 0.00 0.00 0.00 0.00 0.00 0.00 0.00 0.00 0.00 0.00EQDR01  0.087AAP092R02     N7GJS072R03     N7GKS075
0188726140547422025011005546+44420-072019FM-15+0212K1V4 V02099999999999999999N9999997N5-00675-01225101105ADDAA101000095MA1100915098405MD1390069+9999REMMET10101/10/25 00:54:02 METAR K1V4 100554Z      KT M07/M12 A2980 RMK AO1 SLP110 T10671122 11067 21083 53006EQDR01      7SKY009R02      7GAS009
0156726140547422025011006546+44420-072019FM-15+0212K1V4 V02099999999999999999N9999997N5-00725-01285101135ADDAA101000095MA1100955098435REMMET08301/10/25 01:54:02 METAR K1V4 100654Z      KT M07/M13 A2981 RMK AO1 SLP113 T10721128EQDR01      7SKY009R02      7GAS009
0156726140547422025011007546+44420-072019FM-15+0212K1V4 V02099999999999999999N9999997N5-00725-01285101185ADDAA101000095MA1101025098505REMMET08301/10/25 02:54:02 METAR K1V4 100754Z      KT M07/M13 A2983 RMK AO1 SLP118 T10721128EQDR01      7SKY009R02      7GAS009
0176726140547422025011008546+44420-072019FM-15+0212K1V4 V02099999999999999999N9999997N5-00725-01285101215ADDAA101000095MA1101025098505MD1190129+9999REMMET08901/10/25 03:54:02 METAR K1V4 100854Z      KT M07/M13 A2983 RMK AO1 SLP121 T10721128 51012EQDR01      7SKY009R02      7GAS009
0156726140547422025011009546+44420-072019FM-15+0212K1V4 V02099999999999999999N9999997N5-00725-01285101245ADDAA101000095MA1101055098535REMMET08301/10/25 04:54:02 METAR K1V4 100954Z      KT M07/M13 A2984 RMK AO1 SLP124 T10721128EQDR01      7SKY009R02      7GAS009
0156726140547422025011010546+44420-072019FM-15+0212K1V4 V02099999999999999999N9999997N5-00785-01335101275ADDAA101000095MA1101085098575REMMET08301/10/25 05:54:02 METAR K1V4 101054Z      KT M08/M13 A2985 RMK AO1 SLP127 T10781133EQDR01      7SKY009R02      7GAS009
0209726140547422025011011546+44420-072019FM-15+0212K1V4 V02099999999999999999N9999997N5-00835-01335101295ADDAA101000095AA224002091MA1101125098605MD1190089+9999REMMET11101/10/25 06:54:02 METAR K1V4 101154Z      KT M08/M13 A2986 RMK AO1 SLP129 70008 T10831133 11067 21083 51008 RTXEQDR01      7SKY009R02      7GAS009
0156726140547422025011012546+44420-072019FM-15+0212K1V4 V02099999999999999999N9999997N5-00895-01335101335ADDAA101000095MA1101155098635REMMET08301/10/25 07:54:02 METAR K1V4 101254Z      KT M09/M13 A2987 RMK AO1 SLP133 T10891133EQDR01      7SKY009R02      7GAS009
0156726140547422025011013546+44420-072019FM-15+0212K1V4 V02099999999999999999N9999997N5-00895-01285101425ADDAA101000095MA1101225098705REMMET08301/10/25 08:54:02 METAR K1V4 101354Z      KT M09/M13 A2989 RMK AO1 SLP142 T10891128EQDR01      7SKY009R02      7GAS009
0176726140547422025011014546+44420-072019FM-15+0212K1V4 V02099999999999999999N9999997N5-00785-01225101455ADDAA101000095MA1101255098735MD1390169+9999REMMET08901/10/25 09:54:02 METAR K1V4 101454Z      KT M08/M12 A2990 RMK AO1 SLP145 T10781122 53016EQDR01      7SKY009R02      7GAS009
0160726140547422025011015546+44420-072019FM-15+0212K1V4 V02099999999999999999N9999997N5-00615-01285101405ADDAA101000095MA1101225098705REMMET08701/10/25 10:54:02 METAR K1V4 101554Z      KT M06/M13 A2989 RMK AO1 SLP140 T10611128 RTXEQDR01      7SKY009R02      7GAS009
0160726140547422025011016546+44420-072019FM-15+0212K1V4 V02099999999999999999N9999997N5-00445-01175101305ADDAA101000095MA1101155098635REMMET08701/10/25 11:54:02 METAR K1V4 101654Z      KT M04/M12 A2987 RMK AO1 SLP130 T10441117 RTXEQDR01      7SKY009R02      7GAS009
0188726140547422025011017546+44420-072019FM-15+0212K1V4 V02099999999999999999N9999997N5-00395-01175101225ADDAA101000095MA1101085098575MD1890209+9999REMMET10101/10/25 12:54:02 METAR K1V4 101754Z      KT M04/M12 A2985 RMK AO1 SLP122 T10391117 11033 21094 58020EQDR01      7SKY009R02      7GAS009
0156726140547422025011018546+44420-072019FM-15+0212K1V4 V02099999999999999999N9999997N5-00335-01175101185ADDAA101000095MA1101025098505REMMET08301/10/25 13:54:02 METAR K1V4 101854Z      KT M03/M12 A2983 RMK AO1 SLP118 T10331117EQDR01      7SKY009R02      7GAS009
0156726140547422025011019546+44420-072019FM-15+0212K1V4 V02099999999999999999N9999997N5-00225-01115101155ADDAA101000095MA1101025098505REMMET08301/10/25 14:54:02 METAR K1V4 101954Z      KT M02/M11 A2983 RMK AO1 SLP115 T10221111EQDR01      7SKY009R02      7GAS009
0176726140547422025011020546+44420-072019FM-15+0212K1V4 V02099999999999999999N9999997N5-00395-01065101095ADDAA101000095MA1100955098435MD1890139+9999REMMET08901/10/25 15:54:02 METAR K1V4 102054Z      KT M04/M11 A2981 RMK AO1 SLP109 T10391106 58013EQDR01      7SKY009R02      7GAS009
0156726140547422025011021546+44420-072019FM-15+0212K1V4 V02099999999999999999N9999997N5-00505-01065101055ADDAA101000095MA1100885098375REMMET08301/10/25 16:54:02 METAR K1V4 102154Z      KT M05/M11 A2979 RMK AO1 SLP105 T10501106EQDR01      7SKY009R02      7GAS009
0165726140547422025011022546+44420-072019FM-15+0212K1V4 V02099999999999999999N9999997N5-00675-01115101055ADDAA101000095MA1100885098375REMMET09201/10/25 17:54:02 METAR K1V4 102254Z      KT M07/M11 A2979 RMK AO1 SLP105 T10671111 RTX FIBIEQDR01      7SKY009R02      7GAS009
0188726140547422025011023546+44420-072019FM-15+0212K1V4 V02099999999999999999N9999997N5-00835-01115101085ADDAA101000095MA1100885098375MD1590049+9999REMMET10101/10/25 18:54:02 METAR K1V4 102354Z      KT M08/M11 A2979 RMK AO1 SLP108 T10831111 11022 21083 55004EQDR01      7SKY009R02      7GAS009
0156726140547422025011100546+44420-072019FM-15+0212K1V4 V02099999999999999999N9999997N5-00945-01225101045ADDAA101000095MA1100855098335REMMET08301/10/25 19:54:01 METAR K1V4 110054Z      KT M09/M12 A2978 RMK AO1 SLP104 T10941122EQDR01      7SKY009R02      7GAS009
0156726140547422025011101546+44420-072019FM-15+0212K1V4 V02099999999999999999N9999997N5-01005-01225101045ADDAA101000095MA1100855098335REMMET08301/10/25 20:54:01 METAR K1V4 110154Z      KT M10/M12 A2978 RMK AO1 SLP104 T11001122EQDR01      7SKY009R02      7GAS009
0176726140547422025011102546+44420-072019FM-15+0212K1V4 V02099999999999999999N9999997N5-01115-01395100975ADDAA101000095MA1100785098275MD1890119+9999REMMET08901/10/25 21:54:01 METAR K1V4 110254Z      KT M11/M14 A2976 RMK AO1 SLP097 T11111139 58011EQDR01      7SKY009R02      7GAS009
0156726140547422025011103546+44420-072019FM-15+0212K1V4 V02099999999999999999N9999997N5-01065-01335100955ADDAA101000095MA1100785098275REMMET08301/10/25 22:54:02 METAR K1V4 110354Z      KT M11/M13 A2976 RMK AO1 SLP095 T11061133EQDR01      7SKY009R02      7GAS009
0166726140547422025011104546+44420-072019FM-15+0212K1V4 V02099999999999999999N9999997N5-01065-01335100885ADDAA101000095MA1100715098205REMMET09301/10/25 23:54:02 METAR K1V4 110454Z      KT M11/M13 A2974 RMK AO1 SLP088 T11061133 410221111EQDR01      7SKY009R02      7GAS009
0837726140547422025011104596+44420-072019SOD  +0212K1V4 V020999999999999999999999999999+99999+99999999999ADDAA124000095KA1240M-00215KA2240N-01105MG1098464100854OE11249999999999997OE22249999999999997REMSOD70024 HR PRECIPITATION (IN):0.00  24 HR MAX TEMP (F):28 24 HR MAX TEMP TIME (LST):1517 24 HR MIN TEMP (F):12 24 HR MIN TEMP TIME (LST):2221 AVERAGE STATION PRESSURE:29.075 MINIMUM SEA LEVEL PRESSURE:29.78 TIME OF OCCURRENCE:2359 PEAK WIND SPEED (MPH):M   PEAK WIND DIR (DEG):M   PEAK WIND TIME (LST):M     FASTEST 2MIN SPEED (MPH):M  FASTEST 2MIN DIR (DEG):M   FASTEST 2MIN TIME (LST):M    24 HR AVG TEMP (F):20 HEATING DEGREE DAYS:45  COOLING DEGREE DAYS:0   LATEST DAY MAX TEMP (0700-1900 LST):28  LATEST NIGHT MIN TEMP(1900-0800 LST):16 HOURLY INCREMENTAL PRECIPITATION VALUES (IN):.00 0.00 0.00 0.00 0.00 0.00 0.00 0.00 0.00 0.00 0.00 0.00 0.00 0.00 0.00 0.00 0.00 0.00 0.00 0.00 0.00 0.00 0.00 0.00EQDR01     N7GJS072R02     N7GKS075
0188726140547422025011105546+44420-072019FM-15+0212K1V4 V02099999999999999999N9999997N5-01005-01285100745ADDAA101000095MA1100585098075MD1890209+9999REMMET10101/11/25 00:54:02 METAR K1V4 110554Z      KT M10/M13 A2970 RMK AO1 SLP074 T11001128 11083 21111 58020EQDR01      7SKY009R02      7GAS009
0160726140547422025011106546+44420-072019FM-15+0212K1V4 V02099999999999999999N9999997N5-01005-01285100705ADDAA101000095MA1100545098045REMMET08701/11/25 01:54:02 METAR K1V4 110654Z      KT M10/M13 A2969 RMK AO1 SLP070 T11001128 RTXEQDR01      7SKY009R02      7GAS009
0160726140547422025011107546+44420-072019FM-15+0212K1V4 V02099999999999999999N9999997N5-00945-01285100575ADDAA101000095MA1100415097905REMMET08701/11/25 02:54:02 METAR K1V4 110754Z      KT M09/M13 A2965 RMK AO1 SLP057 T10941128 RTXEQDR01      7SKY009R02      7GAS009
0180726140547422025011108546+44420-072019FM-15+0212K1V4 V02099999999999999999N9999997N5-00945-01285100445ADDAA101000095MA1100275097775MD1890299+9999REMMET09301/11/25 03:54:02 METAR K1V4 110854Z      KT M09/M13 A2961 RMK AO1 SLP044 T10941128 58029 RTXEQDR01      7SKY009R02      7GAS009
0160726140547422025011109546+44420-072019FM-15+0212K1V4 V02099999999999999999N9999997N5-00895-01225100345ADDAA101000095MA1100175097675REMMET08701/11/25 04:54:02 METAR K1V4 110954Z      KT M09/M12 A2958 RMK AO1 SLP034 T10891122 RTXEQDR01      7SKY009R02      7GAS009
0160726140547422025011110546+44420-072019FM-15+0212K1V4 V02099999999999999999N9999997N5-00895-01285100445ADDAA101000095MA1100275097775REMMET08701/11/25 05:54:02 METAR K1V4 111054Z      KT M09/M13 A2961 RMK AO1 SLP044 T10891128 RTXEQDR01      7SKY009R02      7GAS009
0232726140547422025011111546+44420-072019FM-15+0212K1V4 V02099999999999999999N9999997N5-00895-01115100385ADDAA101000595AA206000591AA324000591MA1100205097705MD1690089+9999REMMET12301/11/25 06:54:02 METAR K1V4 111154Z      KT M09/M11 A2959 RMK AO1 SLP038 P0002 60002 70002 T10891111 11089 21106 56008 RTXEQDR01      7SKY009R02      7GAS009
0171726140547422025011112546+44420-072019FM-15+0212K1V4 V02099999999999999999N9999997N5-00835-01115100335ADDAA101000595MA1100145097645REMMET09801/11/25 07:54:02 METAR K1V4 111254Z      KT M08/M11 A2957 RMK AO1 SLP033 P0002 T10831111 RTX FIBIEQDR01      7SKY009R02      7GAS009
0166726140547422025011113546+44420-072019FM-15+0212K1V4 V02099999999999999999N9999997N5-00835-01115100275ADDAA101000595MA1100105097605REMMET09301/11/25 08:54:02 METAR K1V4 111354Z      KT M08/M11 A2956 RMK AO1 SLP027 P0002 T10831111 RTXEQDR01      7SKY009R02      7GAS009
0208726140547422025011114546+44420-072019FM-15+0212K1V4 V02099999999999999999N9999997N5-00785-01065100235ADDAA101000395AA203001391MA1100035097545MD1890169+9999REMMET11001/11/25 09:54:02 METAR K1V4 111454Z      KT M08/M11 A2954 RMK AO1 SLP023 P0001 60005 T10781106 58016 RTX FIBIEQDR01      7SKY009R02      7GAS009
0166726140547422025011115546+44420-072019FM-15+0212K1V4 V02099999999999999999N9999997N5-00725-01005100155ADDAA101000395MA1099975097475REMMET09301/11/25 10:54:02 METAR K1V4 111554Z      KT M07/M10 A2952 RMK AO1 SLP015 P0001 T10721100 RTXEQDR01      7SKY009R02      7GAS009
0166726140547422025011116546+44420-072019FM-15+0212K1V4 V02099999999999999999N9999997N5-00615-00895100045ADDAA101000595MA1099865097375REMMET09301/11/25 11:54:02 METAR K1V4 111654Z      KT M06/M09 A2949 RMK AO1 SLP004 P0002 T10611089 RTXEQDR01      7SKY009R02      7GAS009
0211726140547422025011117546+44420-072019FM-15+0212K1V4 V02099999999999999999N9999997N5-00505-00835099965ADDAA101000395AA206002391MA1099805097315MD1690239+9999REMMET11301/11/25 12:54:02 METAR K1V4 111754Z      KT M05/M08 A2947 RMK AO1 SLP996 P0001 60009 T10501083 11050 21089 56023EQDR01      7SKY009R02      7GAS009
0156726140547422025011118546+44420-072019FM-15+0212K1V4 V02099999999999999999N9999997N5-00445-00835099945ADDAA101000095MA1099765097275REMMET08301/11/25 13:54:02 METAR K1V4 111854Z      KT M04/M08 A2946 RMK AO1 SLP994 T10441083EQDR01      7SKY009R02      7GAS009
0160726140547422025011119546+44420-072019FM-15+0212K1V4 V02099999999999999999N9999997N5-00445-00785099975ADDAA101000095MA1099805097315REMMET08701/11/25 14:54:02 METAR K1V4 111954Z      KT M04/M08 A2947 RMK AO1 SLP997 T10441078 RTXEQDR01      7SKY009R02      7GAS009
0203726140547422025011120546+44420-072019FM-15+0212K1V4 V02099999999999999999N9999997N5-00445-00725100045ADDAA101000395AA203000391MA1099865097375MD1390079+9999REMMET10501/11/25 15:54:02 METAR K1V4 112054Z      KT M04/M07 A2949 RMK AO1 SLP004 P0001 60001 T10441072 53007 RTXEQDR01      7SKY009R02      7GAS009
0160726140547422025011121546+44420-072019FM-15+0212K1V4 V02099999999999999999N9999997N5-00445-00895100155ADDAA101000095MA1100005097505REMMET08701/11/25 16:54:02 METAR K1V4 112154Z      KT M04/M09 A2953 RMK AO1 SLP015 T10441089 RTXEQDR01      7SKY009R02      7GAS009
0166726140547422025011122546+44420-072019FM-15+0212K1V4 V02099999999999999999N9999997N5-00505-00835100275ADDAA101000395MA1100105097605REMMET09301/11/25 17:54:02 METAR K1V4 112254Z      KT M05/M08 A2956 RMK AO1 SLP027 P0001 T10501083 RTXEQDR01      7SKY009R02      7GAS009
0209726140547422025011123546+44420-072019FM-15+0212K1V4 V02099999999999999999N9999997N5-00565-00785100385ADDAA101000395AA206000591MA1100205097705MD1190349+9999REMMET11101/11/25 18:54:02 METAR K1V4 112354Z      KT M06/M08 A2959 RMK AO1 SLP038 60002 T10561078 11044 21056 51034 RTXEQDR01      7SKY009R02      7GAS009
0162726140547422025011200546+44420-072019FM-15+0212K1V4 V02099999999999999999N9999997N5-00565-00945100485ADDAA101000095MA1100305097805REMMET08901/11/25 19:54:01 METAR K1V4 120054Z      KT M06/M09 A2962 RMK AO1 SLP048 P0001 T10561094EQDR01      7SKY009R02      7GAS009
0162726140547422025011201546+44420-072019FM-15+0212K1V4 V02099999999999999999N9999997N5-00615-00945100585ADDAA101000395MA1100415097905REMMET08901/11/25 20:54:01 METAR K1V4 120154Z      KT M06/M09 A2965 RMK AO1 SLP058 P0001 T10611094EQDR01      7SKY009R02      7GAS009
0193726140547422025011202546+44420-072019FM-15+0212K1V4 V02099999999999999999N9999997N5-00615-01005100665ADDAA101000095AA203000591MA1100515098005MD1190279+9999REMMET09501/11/25 21:54:01 METAR K1V4 120254Z      KT M06/M10 A2968 RMK AO1 SLP066 60002 T10611100 51027EQDR01      7SKY009R02      7GAS009
0156726140547422025011203546+44420-072019FM-15+0212K1V4 V02099999999999999999N9999997N5-00615-01005100705ADDAA101000095MA1100545098045REMMET08301/11/25 22:54:02 METAR K1V4 120354Z      KT M06/M10 A2969 RMK AO1 SLP070 T10611100EQDR01      7SKY009R02      7GAS009
0175726140547422025011204546+44420-072019FM-15+0212K1V4 V02099999999999999999N9999997N5-00615-01005100745ADDAA101000095MA1100585098075REMMET10201/11/25 23:54:02 METAR K1V4 120454Z      KT M06/M10 A2970 RMK AO1 SLP074 T10611100 410441106 RTX FIBIEQDR01      7SKY009R02      7GAS009
0853726140547422025011204596+44420-072019SOD  +0212K1V4 V020999999999999999999999999999+99999+99999999999ADDAA124003896KA1240M-00435KA2240N-01055MG1097684099934OE11249999999999997OE22249999999999997REMSOD70024 HR PRECIPITATION (IN):0.15  24 HR MAX TEMP (F):24 24 HR MAX TEMP TIME (LST):1706 24 HR MIN TEMP (F):13 24 HR MIN TEMP TIME (LST):0126 AVERAGE STATION PRESSURE:28.845 MINIMUM SEA LEVEL PRESSURE:29.51 TIME OF OCCURRENCE:1426 PEAK WIND SPEED (MPH):M   PEAK WIND DIR (DEG):M   PEAK WIND TIME (LST):M     FASTEST 2MIN SPEED (MPH):M  FASTEST 2MIN DIR (DEG):M   FASTEST 2MIN TIME (LST):M    24 HR AVG TEMP (F):19 HEATING DEGREE DAYS:46  COOLING DEGREE DAYS:0   LATEST DAY MAX TEMP (0700-1900 LST):24  LATEST NIGHT MIN TEMP(1900-0800 LST):12 HOURLY INCREMENTAL PRECIPITATION VALUES (IN):.00 0.00 0.00 0.00 0.00 0.00 0.02 0.02 0.02 0.01 0.01 0.02 0.01 0.00 0.00 0.01 0.00 0.01 0.01 0.00 0.01 0.00 0.00 0.00EQDR01  0.157AAP092R02     N7GJS072R03     N7GKS075
0205726140547422025011205546+44420-072019FM-15+0212K1V4 V02099999999999999999N9999997N5-00615-01005100815ADDAA101000095AA206000591MA1100645098135MD1390159+9999REMMET10701/12/25 00:54:02 METAR K1V4 120554Z      KT M06/M10 A2972 RMK AO1 SLP081 60002 T10611100 11056 21067 53015EQDR01      7SKY009R02      7GAS009
0160726140547422025011206546+44420-072019FM-15+0212K1V4 V02099999999999999999N9999997N5-00615-00945100895ADDAA101000095MA1100755098235REMMET08701/12/25 01:54:02 METAR K1V4 120654Z      KT M06/M09 A2975 RMK AO1 SLP089 T10611094 RTXEQDR01      7SKY009R02      7GAS009
0156726140547422025011207546+44420-072019FM-15+0212K1V4 V02099999999999999999N9999997N5-00615-00945100965ADDAA101000095MA1100815098305REMMET08301/12/25 02:54:02 METAR K1V4 120754Z      KT M06/M09 A2977 RMK AO1 SLP096 T10611094EQDR01      7SKY009R02      7GAS009
0176726140547422025011208546+44420-072019FM-15+0212K1V4 V02099999999999999999N9999997N5-00615-00945101005ADDAA101000095MA1100855098335MD1190209+9999REMMET08901/12/25 03:54:02 METAR K1V4 120854Z      KT M06/M09 A2978 RMK AO1 SLP100 T10611094 51020EQDR01      7SKY009R02      7GAS009
0156726140547422025011209546+44420-072019FM-15+0212K1V4 V02099999999999999999N9999997N5-00615-00895101075ADDAA101000095MA1100915098405REMMET08301/12/25 04:54:02 METAR K1V4 120954Z      KT M06/M09 A2980 RMK AO1 SLP107 T10611089EQDR01      7SKY009R02      7GAS009
0165726140547422025011210546+44420-072019FM-15+0212K1V4 V02099999999999999999N9999997N5-00615-00895101145ADDAA101000095MA1100985098475REMMET09201/12/25 05:54:02 METAR K1V4 121054Z      KT M06/M09 A2982 RMK AO1 SLP114 T10611089 RTX FIBIEQDR01      7SKY009R02      7GAS009
0209726140547422025011211546+44420-072019FM-15+0212K1V4 V02099999999999999999N9999997N5-00615-00835101265ADDAA101000095AA224003391MA1101085098575MD1390249+9999REMMET11101/12/25 06:54:02 METAR K1V4 121154Z      KT M06/M08 A2985 RMK AO1 SLP126 70013 T10611083 11056 21061 53024 RTXEQDR01      7SKY009R02      7GAS009
0156726140547422025011212546+44420-072019FM-15+0212K1V4 V02099999999999999999N9999997N5-00675-00895101325ADDAA101000095MA1101155098635REMMET08301/12/25 07:54:02 METAR K1V4 121254Z      KT M07/M09 A2987 RMK AO1 SLP132 T10671089EQDR01      7SKY009R02      7GAS009
0156726140547422025011213546+44420-072019FM-15+0212K1V4 V02099999999999999999N9999997N5-00615-00895101395ADDAA101000095MA1101225098705REMMET08301/12/25 08:54:02 METAR K1V4 121354Z      KT M06/M09 A2989 RMK AO1 SLP139 T10611089EQDR01      7SKY009R02      7GAS009
0180726140547422025011214546+44420-072019FM-15+0212K1V4 V02099999999999999999N9999997N5-00445-00895101455ADDAA101000095MA1101295098775MD1290199+9999REMMET09301/12/25 09:54:02 METAR K1V4 121454Z      KT M04/M09 A2991 RMK AO1 SLP145 T10441089 52019 RTXEQDR01      7SKY009R02      7GAS009
0156726140547422025011215546+44420-072019FM-15+0212K1V4 V02099999999999999999N9999997N5-00225-01065101465ADDAA101000095MA1101325098805REMMET08301/12/25 10:54:02 METAR K1V4 121554Z      KT M02/M11 A2992 RMK AO1 SLP146 T10221106EQDR01      7SKY009R02      7GAS009
0156726140547422025011216546+44420-072019FM-15+0212K1V4 V02099999999999999999N9999997N5-00115-01005101425ADDAA101000095MA1101295098775REMMET08301/12/25 11:54:02 METAR K1V4 121654Z      KT M01/M10 A2991 RMK AO1 SLP142 T10111100EQDR01      7SKY009R02      7GAS009
0188726140547422025011217546+44420-072019FM-15+0212K1V4 V02099999999999999999N9999997N5-00115-00895101435ADDAA101000095MA1101295098775MD1090009+9999REMMET10101/12/25 12:54:02 METAR K1V4 121754Z      KT M01/M09 A2991 RMK AO1 SLP143 T10111089 11006 21067 50000EQDR01      7SKY009R02      7GAS009
0149726140547422025011218546+44420-072019FM-15+0212K1V4 V02099999999999999999N9999997N5+00005+99999101415ADDAA101000095MA1101295098775REMMET07601/12/25 13:54:02 METAR K1V4 121854Z      KT 00/A2991 RMK AO1 SLP141 T0000 $EQDR01      7SKY009R02      7GAS009
0154726140547422025011219546+44420-072019FM-15+0212K1V4 V02099999999999999999N9999997N5-00065+99999101445ADDAA101000095MA1101325098805REMMET08101/12/25 14:54:02 METAR K1V4 121954Z      KT M01/A2992 RMK AO1 SLP144 T1006 $ RTXEQDR01      7SKY009R02      7GAS009
0170726140547422025011220546+44420-072019FM-15+0212K1V4 V02099999999999999999N9999997N5-00175+99999101515ADDAA101000095MA1101355098835MD1390079+9999REMMET08301/12/25 15:54:02 METAR K1V4 122054Z      KT M02/A2993 RMK AO1 SLP151 T1017 53007 $EQDR01      7SKY009R02      7GAS009
0158726140547422025011221546+44420-072019FM-15+0212K1V4 V02099999999999999999N9999997N5-00335-00505101545ADDAA101000095MA1101395098865REMMET08501/12/25 16:54:02 METAR K1V4 122154Z      KT M03/M05 A2994 RMK AO1 SLP154 T10331050 $EQDR01      7SKY009R02      7GAS009
0167726140547422025011222546+44420-072019FM-15+0212K1V4 V02099999999999999999N9999997N5-00505-00505101615ADDAA101000095MA1101465098935REMMET09401/12/25 17:54:02 METAR K1V4 122254Z      KT M05/M05 A2996 RMK AO1 SLP161 T10501050 $ RTX FIBIEQDR01      7SKY009R02      7GAS009
0190726140547422025011223546+44420-072019FM-15+0212K1V4 V02099999999999999999N9999997N5-00615-00785101625ADDAA101000095MA1101465098935MD1190099+9999REMMET10301/12/25 18:54:02 METAR K1V4 122354Z      KT M06/M08 A2996 RMK AO1 SLP162 T10611078 10000 21067 51009 $EQDR01      7SKY009R02      7GAS009
0158726140547422025011300546+44420-072019FM-15+0212K1V4 V02099999999999999999N9999997N5-00675-00835101655ADDAA101000095MA1101495098965REMMET08501/12/25 19:54:01 METAR K1V4 130054Z      KT M07/M08 A2997 RMK AO1 SLP165 T10671083 $EQDR01      7SKY009R02      7GAS009
0158726140547422025011301546+44420-072019FM-15+0212K1V4 V02099999999999999999N9999997N5-00725-00895101665ADDAA101000095MA1101495098965REMMET08501/12/25 20:54:01 METAR K1V4 130154Z      KT M07/M09 A2997 RMK AO1 SLP166 T10721089 $EQDR01      7SKY009R02      7GAS009
0178726140547422025011302546+44420-072019FM-15+0212K1V4 V02099999999999999999N9999997N5-00725-00945101615ADDAA101000095MA1101465098935MD1890019+9999REMMET09101/12/25 21:54:01 METAR K1V4 130254Z      KT M07/M09 A2996 RMK AO1 SLP161 T10721094 58001 $EQDR01      7SKY009R02      7GAS009
0158726140547422025011303546+44420-072019FM-15+0212K1V4 V02099999999999999999N9999997N5-00725-01065101605ADDAA101000095MA1101465098935REMMET08501/12/25 22:54:02 METAR K1V4 130354Z      KT M07/M11 A2996 RMK AO1 SLP160 T10721106 $EQDR01      7SKY009R02      7GAS009
0168726140547422025011304546+44420-072019FM-15+0212K1V4 V02099999999999999999N9999997N5-00785-01115101575ADDAA101000095MA1101425098905REMMET09501/12/25 23:54:02 METAR K1V4 130454Z      KT M08/M11 A2995 RMK AO1 SLP157 T10781111 400001078 $EQDR01      7SKY009R02      7GAS009
0837726140547422025011304596+44420-072019SOD  +0212K1V4 V020999999999999999999999999999+99999+99999999999ADDAA124000095KA1240M+00005KA2240N-00775MG1098594100754OE11249999999999997OE22249999999999997REMSOD70024 HR PRECIPITATION (IN):0.00  24 HR MAX TEMP (F):32 24 HR MAX TEMP TIME (LST):1449 24 HR MIN TEMP (F):18 24 HR MIN TEMP TIME (LST):2359 AVERAGE STATION PRESSURE:29.115 MINIMUM SEA LEVEL PRESSURE:29.75 TIME OF OCCURRENCE:0020 PEAK WIND SPEED (MPH):M   PEAK WIND DIR (DEG):M   PEAK WIND TIME (LST):M     FASTEST 2MIN SPEED (MPH):M  FASTEST 2MIN DIR (DEG):M   FASTEST 2MIN TIME (LST):M    24 HR AVG TEMP (F):25 HEATING DEGREE DAYS:40  COOLING DEGREE DAYS:0   LATEST DAY MAX TEMP (0700-1900 LST):32  LATEST NIGHT MIN TEMP(1900-0800 LST):20 HOURLY INCREMENTAL PRECIPITATION VALUES (IN):.00 0.00 0.00 0.00 0.00 0.00 0.00 0.00 0.00 0.00 0.00 0.00 0.00 0.00 0.00 0.00 0.00 0.00 0.00 0.00 0.00 0.00 0.00 0.00EQDR01     N7GJS072R02     N7GKS075
0190726140547422025011305546+44420-072019FM-15+0212K1V4 V02099999999999999999N9999997N5-00785-01065101565ADDAA101000095MA1101425098905MD1890039+9999REMMET10301/13/25 00:54:02 METAR K1V4 130554Z      KT M08/M11 A2995 RMK AO1 SLP156 T10781106 11061 21078 58003 $EQDR01      7SKY009R02      7GAS009
0158726140547422025011306546+44420-072019FM-15+0212K1V4 V02099999999999999999N9999997N5-00725-01065101535ADDAA101000095MA1101395098865REMMET08501/13/25 01:54:02 METAR K1V4 130654Z      KT M07/M11 A2994 RMK AO1 SLP153 T10721106 $EQDR01      7SKY009R02      7GAS009
0167726140547422025011307546+44420-072019FM-15+0212K1V4 V02099999999999999999N9999997N5-00725-01065101515ADDAA101000095MA1101355098835REMMET09401/13/25 02:54:02 METAR K1V4 130754Z      KT M07/M11 A2993 RMK AO1 SLP151 T10721106 $ RTX FIBIEQDR01      7SKY009R02      7GAS009
0178726140547422025011308546+44420-072019FM-15+0212K1V4 V02099999999999999999N9999997N5-00725-01065101455ADDAA101000095MA1101325098805MD1890109+9999REMMET09101/13/25 03:54:02 METAR K1V4 130854Z      KT M07/M11 A2992 RMK AO1 SLP145 T10721106 58010 $EQDR01      7SKY009R02      7GAS009
0162726140547422025011309546+44420-072019FM-15+0212K1V4 V02099999999999999999N9999997N5-00725-01005101425ADDAA101000095MA1101295098775REMMET08901/13/25 04:54:02 METAR K1V4 130954Z      KT M07/M10 A2991 RMK AO1 SLP142 T10721100 $ RTXEQDR01      7SKY009R02      7GAS009
0162726140547422025011310546+44420-072019FM-15+0212K1V4 V02099999999999999999N9999997N5-00785-01065101425ADDAA101000095MA1101255098735REMMET08901/13/25 05:54:02 METAR K1V4 131054Z      KT M08/M11 A2990 RMK AO1 SLP142 T10781106 $ RTXEQDR01      7SKY009R02      7GAS009
0188726140547422025011311546+44420-072019FM-15+0212K1V4 V02099999999999999999N9999997N5-00835-01065101415ADDAA101000095MA1101225098705MD1690079+9999REMMET10101/13/25 06:54:02 METAR K1V4 131154Z      KT M08/M11 A2989 RMK AO1 SLP141 T10831106 11072 21089 56007EQDR01      7SKY009R02      7GAS009
0156726140547422025011312546+44420-072019FM-15+0212K1V4 V02099999999999999999N9999997N5-00835-01065101415ADDAA101000095MA1101255098735REMMET08301/13/25 07:54:02 METAR K1V4 131254Z      KT M08/M11 A2990 RMK AO1 SLP141 T10831106EQDR01      7SKY009R02      7GAS009
0156726140547422025011313546+44420-072019FM-15+0212K1V4 V02099999999999999999N9999997N5-00785-01005101415ADDAA101000095MA1101225098705REMMET08301/13/25 08:54:02 METAR K1V4 131354Z      KT M08/M10 A2989 RMK AO1 SLP141 T10781100EQDR01      7SKY009R02      7GAS009
0176726140547422025011314546+44420-072019FM-15+0212K1V4 V02099999999999999999N9999997N5-00675-00945101365ADDAA101000095MA1101195098675MD1890059+9999REMMET08901/13/25 09:54:02 METAR K1V4 131454Z      KT M07/M09 A2988 RMK AO1 SLP136 T10671094 58005EQDR01      7SKY009R02      7GAS009
0156726140547422025011315546+44420-072019FM-15+0212K1V4 V02099999999999999999N9999997N5-00565-00895101265ADDAA101000095MA1101125098605REMMET08301/13/25 10:54:02 METAR K1V4 131554Z      KT M06/M09 A2986 RMK AO1 SLP126 T10561089EQDR01      7SKY009R02      7GAS009
0160726140547422025011316546+44420-072019FM-15+0212K1V4 V02099999999999999999N9999997N5-00445-00835101125ADDAA101000095MA1100955098435REMMET08701/13/25 11:54:02 METAR K1V4 131654Z      KT M04/M08 A2981 RMK AO1 SLP112 T10441083 RTXEQDR01      7SKY009R02      7GAS009
0192726140547422025011317546+44420-072019FM-15+0212K1V4 V02099999999999999999N9999997N5-00285-00725100995ADDAA101000095MA1100855098335MD1890349+9999REMMET10501/13/25 12:54:02 METAR K1V4 131754Z      KT M03/M07 A2978 RMK AO1 SLP099 T10281072 11028 21089 58034 RTXEQDR01      7SKY009R02      7GAS009
0160726140547422025011318546+44420-072019FM-15+0212K1V4 V02099999999999999999N9999997N5-00175-00675100925ADDAA101000095MA1100785098275REMMET08701/13/25 13:54:02 METAR K1V4 131854Z      KT M02/M07 A2976 RMK AO1 SLP092 T10171067 RTXEQDR01      7SKY009R02      7GAS009
0156726140547422025011319546+44420-072019FM-15+0212K1V4 V02099999999999999999N9999997N5-00115-00675100905ADDAA101000095MA1100755098235REMMET08301/13/25 14:54:02 METAR K1V4 131954Z      KT M01/M07 A2975 RMK AO1 SLP090 T10111067EQDR01      7SKY009R02      7GAS009
0176726140547422025011320546+44420-072019FM-15+0212K1V4 V02099999999999999999N9999997N5-00115-00615100895ADDAA101000095MA1100755098235MD1690099+9999REMMET08901/13/25 15:54:02 METAR K1V4 132054Z      KT M01/M06 A2975 RMK AO1 SLP089 T10111061 56009EQDR01      7SKY009R02      7GAS009
0156726140547422025011321546+44420-072019FM-15+0212K1V4 V02099999999999999999N9999997N5-00175-00565100895ADDAA101000095MA1100755098235REMMET08301/13/25 16:54:02 METAR K1V4 132154Z      KT M02/M06 A2975 RMK AO1 SLP089 T10171056EQDR01      7SKY009R02      7GAS009
0160726140547422025011322546+44420-072019FM-15+0212K1V4 V02099999999999999999N9999997N5-00175-00505100925ADDAA101000095MA1100785098275REMMET08701/13/25 17:54:02 METAR K1V4 132254Z      KT M02/M05 A2976 RMK AO1 SLP092 T10171050 RTXEQDR01      7SKY009R02      7GAS009
