0160726140547422021010100546+44420-072019FM-15+0212K1V4 V02099999999999999999N9999997N5-00065-00785102505ADDAA101000095MA1102405099865REMMET08712/31/20 19:54:03 METAR K1V4 010054Z      KT M01/M08 A3024 RMK AO1 SLP250 T10061078 RTXEQDR01      7SKY009R02      7GAS009
0160726140547422021010101546+44420-072019FM-15+0212K1V4 V02099999999999999999N9999997N5-00115-00725102645ADDAA101000095MA1102545099995REMMET08712/31/20 20:54:03 METAR K1V4 010154Z      KT M01/M07 A3028 RMK AO1 SLP264 T10111072 RTXEQDR01      7SKY009R02      7GAS009
0180726140547422021010102546+44420-072019FM-15+0212K1V4 V02099999999999999999N9999997N5-00175-00785102715ADDAA101000095MA1102615100065MD1190349+9999REMMET09312/31/20 21:54:03 METAR K1V4 010254Z      KT M02/M08 A3030 RMK AO1 SLP271 T10171078 51034 RTXEQDR01      7SKY009R02      7GAS009
0160726140547422021010103546+44420-072019FM-15+0212K1V4 V02099999999999999999N9999997N5-00225-00835102855ADDAA101000095MA1102745100195REMMET08712/31/20 22:54:03 METAR K1V4 010354Z      KT M02/M08 A3034 RMK AO1 SLP285 T10221083 RTXEQDR01      7SKY009R02      7GAS009
0166726140547422021010104546+44420-072019FM-15+0212K1V4 V02099999999999999999N9999997N5-00395-00835102925ADDAA101000095MA1102815100265REMMET09312/31/20 23:54:03 METAR K1V4 010454Z      KT M04/M08 A3036 RMK AO1 SLP292 T10391083 400331039EQDR01      7SKY009R02      7GAS009
0622726140547422021010104596+44420-072019SOD  +0212K1V4 V020999999999999999999999999999+99999+99999999999ADDAA124001096KA1240M+00335KA2240N-00385MG1098904100854OE11249999999999997OE22249999999999997REMSOD50124 HR PRECIPITATION (IN): 0.04 24 HR MAX TEMP (F): 3824 HR MIN TEMP (F): 25AVERAGE STATION PRESSURE:29.205 MINIMUM SEA LEVEL PRESSURE:29.78 TIME OF OCCURRENCE:0357 24 HR AVG TEMP (F): 32DEPART FROM NORMAL: 14  HEATING DEGREE DAYS: 33 COOLING DEGREE DAYS:  0 LATEST DAY MAX TEMP (0700-1900 LST):38  LATEST NIGHT MIN TEMP(1900-0800 LST):29 HOURLY INCREMENTAL PRECIPITATION VALUES (IN):.00 0.00 0.00 0.01 0.03 0.00 0.00 0.00 0.00 0.00 0.00 0.00 0.00 0.00 0.00 0.00 0.00 0.00 0.00 0.00 0.00 0.00 0.00 0.00EQDR01  0.047AAP092
1241726140547422021010104596+44420-072019SOM  +0212K1V4 V020999999999999999999999999999+99999+99999999999ADDAB10043796AD10017892525999999995AE1165035015005AH1005000892520455AH2010001092520505AH3015001392520505AH4020001592520505AH5030002092520505AH6045002092521105AI1060002891706135AI2080003691706275AI3100004191706385AI4120004691706545AI5150005191706545AI6180005892512105KB1744N-05785KB2744M+02175KB3744A-01785KC1N9-02001999995KC2M9+01770199995KD1744H11155KD2744C00005KE1135005295025MH1098814101494MK1103591609325099290114475REMSOM793PCP MTOT:1.72 PCP GT 24HRS:0.70 DATE(S):25 DAYS W/PCP >=.01:16 DAYS W/PCP >=.10:3  DAYS W/ PCP >=.50:1 DAYS W/PCP >=1.00:0 MSDP AMTS W/DATE-TIME TAGS:MIN:5 0.03  25/2045 MIN:10 0.04  25/2050 MIN:15 0.05  25/2050 MIN:20 0.06  25/2050 MIN:30 0.08  25/2050 MIN:45 0.08  25/2110 MIN:60 0.11  17/0613 MIN:80 0.14  17/0627 MIN:100 0.16  17/0638 MIN:120 0.18  17/0654 MIN:150 0.20  17/0654 MIN:180 0.23  25/1210 AVG DLY MIN:21.6  AVG DLY MAX:35.9  AVG MLY TMP:28.8  MIN TMP:-4 DATE(S):19 MAX TMP:64  DATE(S):01 DAYS MAX <=32:1 DAYS MAX >=90:0  DAYS MIN <=32:29 DAYS MIN  <=0:2  AVG STP:29.180 LWST SLP:29.32 DATE/TIME:011447 HGST SLP:30.59 DATE/TIME:160932 HDD MTH TOT:1115 DEP NORM:-2553 SEASON(JUL 1-JUN 30):2719 DEP NORM:-25536 CDD MTH TOT:0 DEP NORM:-2553 SEASON(JAN 1-DEC 31):552 DEP NORM:-25536EQDR01  1.727ABP070
0192726140547422021010105546+44420-072019FM-15+0212K1V4 V02099999999999999999N9999997N5-00565-00895103045ADDAA101000095MA1102915100365MD1190299+9999REMMET10501/01/21 00:54:02 METAR K1V4 010554Z      KT M06/M09 A3039 RMK AO1 SLP304 T10561089 11006 21056 51029 RTXEQDR01      7SKY009R02      7GAS009
0160726140547422021010106546+44420-072019FM-15+0212K1V4 V02099999999999999999N9999997N5-00675-00945103125ADDAA101000095MA1102985100425REMMET08701/01/21 01:54:02 METAR K1V4 010654Z      KT M07/M09 A3041 RMK AO1 SLP312 T10671094 RTXEQDR01      7SKY009R02      7GAS009
0160726140547422021010107546+44420-072019FM-15+0212K1V4 V02099999999999999999N9999997N5-00675-00895103205ADDAA101000095MA1103055100495REMMET08701/01/21 02:54:02 METAR K1V4 010754Z      KT M07/M09 A3043 RMK AO1 SLP320 T10671089 RTXEQDR01      7SKY009R02      7GAS009
0176726140547422021010108546+44420-072019FM-15+0212K1V4 V02099999999999999999N9999997N5-00615-00895103235ADDAA101000095MA1103085100525MD1190189+9999REMMET08901/01/21 03:54:02 METAR K1V4 010854Z      KT M06/M09 A3044 RMK AO1 SLP323 T10611089 51018EQDR01      7SKY009R02      7GAS009
0160726140547422021010109546+44420-072019FM-15+0212K1V4 V02099999999999999999N9999997N5-00615-00945103255ADDAA101000095MA1103125100565REMMET08701/01/21 04:54:02 METAR K1V4 010954Z      KT M06/M09 A3045 RMK AO1 SLP325 T10611094 RTXEQDR01      7SKY009R02      7GAS009
0160726140547422021010110546+44420-072019FM-15+0212K1V4 V02099999999999999999N9999997N5-00565-00895103305ADDAA101000095MA1103155100595REMMET08701/01/21 05:54:02 METAR K1V4 011054Z      KT M06/M09 A3046 RMK AO1 SLP330 T10561089 RTXEQDR01      7SKY009R02      7GAS009
0192726140547422021010111546+44420-072019FM-15+0212K1V4 V02099999999999999999N9999997N5-00565-00895103365ADDAA101000095MA1103225100665MD1390139+9999REMMET10501/01/21 06:54:02 METAR K1V4 011154Z      KT M06/M09 A3048 RMK AO1 SLP336 T10561089 11056 21072 53013 RTXEQDR01      7SKY009R02      7GAS009
0156726140547422021010112546+44420-072019FM-15+0212K1V4 V02099999999999999999N9999997N5-00565-00835103355ADDAA101000095MA1103225100665REMMET08301/01/21 07:54:02 METAR K1V4 011254Z      KT M06/M08 A3048 RMK AO1 SLP335 T10561083EQDR01      7SKY009R02      7GAS009
0156726140547422021010113546+44420-072019FM-15+0212K1V4 V02099999999999999999N9999997N5-00505-00835103405ADDAA101000095MA1103255100695REMMET08301/01/21 08:54:02 METAR K1V4 011354Z      KT M05/M08 A3049 RMK AO1 SLP340 T10501083EQDR01      7SKY009R02      7GAS009
0176726140547422021010114546+44420-072019FM-15+0212K1V4 V02099999999999999999N9999997N5-00395-00785103435ADDAA101000095MA1103285100725MD1390079+9999REMMET08901/01/21 09:54:02 METAR K1V4 011454Z      KT M04/M08 A3050 RMK AO1 SLP343 T10391078 53007EQDR01      7SKY009R02      7GAS009
0160726140547422021010115546+44420-072019FM-15+0212K1V4 V02099999999999999999N9999997N5-00225-00895103335ADDAA101000095MA1103185100625REMMET08701/01/21 10:54:02 METAR K1V4 011554Z      KT M02/M09 A3047 RMK AO1 SLP333 T10221089 RTXEQDR01      7SKY009R02      7GAS009
0156726140547422021010116546+44420-072019FM-15+0212K1V4 V02099999999999999999N9999997N5-00175-00835103175ADDAA101000095MA1103015100465REMMET08301/01/21 11:54:02 METAR K1V4 011654Z      KT M02/M08 A3042 RMK AO1 SLP317 T10171083EQDR01      7SKY009R02      7GAS009
0192726140547422021010117546+44420-072019FM-15+0212K1V4 V02099999999999999999N9999997N5-00175-00835103125ADDAA101000095MA1102985100425MD1690309+9999REMMET10501/01/21 12:54:02 METAR K1V4 011754Z      KT M02/M08 A3041 RMK AO1 SLP312 T10171083 11011 21061 56030 RTXEQDR01      7SKY009R02      7GAS009
0160726140547422021010118546+44420-072019FM-15+0212K1V4 V02099999999999999999N9999997N5-00175-00895103125ADDAA101000095MA1102985100425REMMET08701/01/21 13:54:02 METAR K1V4 011854Z      KT M02/M09 A3041 RMK AO1 SLP312 T10171089 RTXEQDR01      7SKY009R02      7GAS009
0160726140547422021010119546+44420-072019FM-15+0212K1V4 V02099999999999999999N9999997N5-00175-00895103055ADDAA101000095MA1102915100365REMMET08701/01/21 14:54:02 METAR K1V4 011954Z      KT M02/M09 A3039 RMK AO1 SLP305 T10171089 RTXEQDR01      7SKY009R02      7GAS009
0187726140547422021010120546+44420-072019FM-15+0212K1V4 V02099999999999999999N9999997N5-00175-00895102935ADDAA101000095MA1102785100235MD1890209+9999REMMET10001/01/21 15:54:02 METAR K1V4 012054Z      KT M02/M09 A3035 RMK AO1 PRESFR SLP293 T10171089 58020 RTXEQDR01      7SKY009R02      7GAS009
0160726140547422021010121546+44420-072019FM-15+0212K1V4 V02099999999999999999N9999997N5-00225-00835102875ADDAA101000095MA1102715100165REMMET08701/01/21 16:54:02 METAR K1V4 012154Z      KT M02/M08 A3033 RMK AO1 SLP287 T10221083 RTXEQDR01      7SKY009R02      7GAS009
0160726140547422021010122546+44420-072019FM-15+0212K1V4 V02099999999999999999N9999997N5-00285-00835102795ADDAA101000095MA1102645100095REMMET08701/01/21 17:54:02 METAR K1V4 012254Z      KT M03/M08 A3031 RMK AO1 SLP279 T10281083 RTXEQDR01      7SKY009R02      7GAS009
0192726140547422021010123546+44420-072019FM-15+0212K1V4 V02099999999999999999N9999997N5-00285-00785102765ADDAA101000095MA1102615100065MD1690169+9999REMMET10501/01/21 18:54:02 METAR K1V4 012354Z      KT M03/M08 A3030 RMK AO1 SLP276 T10281078 11011 21028 56016 RTXEQDR01      7SKY009R02      7GAS009
0156726140547422021010200546+44420-072019FM-15+0212K1V4 V02099999999999999999N9999997N5-00335-00785102695ADDAA101000095MA1102545099995REMMET08301/01/21 19:54:01 METAR K1V4 020054Z      KT M03/M08 A3028 RMK AO1 SLP269 T10331078EQDR01      7SKY009R02      7GAS009
0156726140547422021010201546+44420-072019FM-15+0212K1V4 V02099999999999999999N9999997N5-00335-00785102505ADDAA101000095MA1102345099795REMMET08301/01/21 20:54:01 METAR K1V4 020154Z      KT M03/M08 A3022 RMK AO1 SLP250 T10331078EQDR01      7SKY009R02      7GAS009
0176726140547422021010202546+44420-072019FM-15+0212K1V4 V02099999999999999999N9999997N5-00335-00785102255ADDAA101000095MA1102105099565MD1890499+9999REMMET08901/01/21 21:54:01 METAR K1V4 020254Z      KT M03/M08 A3015 RMK AO1 SLP225 T10331078 58049EQDR01      7SKY009R02      7GAS009
0156726140547422021010203546+44420-072019FM-15+0212K1V4 V02099999999999999999N9999997N5-00335-00725102285ADDAA101000095MA1102135099595REMMET08301/01/21 22:54:01 METAR K1V4 020354Z      KT M03/M07 A3016 RMK AO1 SLP228 T10331072EQDR01      7SKY009R02      7GAS009
0172726140547422021010204546+44420-072019FM-15+0212K1V4 V02099999999999999999N9999997N5-00335-00615102125ADDAA101000395MA1102005099465REMMET09901/01/21 23:54:02 METAR K1V4 020454Z      KT M03/M06 A3012 RMK AO1 SLP212 P0001 T10331061 410111072EQDR01      7SKY009R02      7GAS009
0622726140547422021010204596+44420-072019SOD  +0212K1V4 V020999999999999999999999999999+99999+99999999999ADDAA124000396KA1240M-00105KA2240N-00715MG1100364102134OE11249999999999997OE22249999999999997REMSOD50124 HR PRECIPITATION (IN): 0.01 24 HR MAX TEMP (F): 3024 HR MIN TEMP (F): 19AVERAGE STATION PRESSURE:29.635 MINIMUM SEA LEVEL PRESSURE:30.16 TIME OF OCCURRENCE:2359 24 HR AVG TEMP (F): 25DEPART FROM NORMAL:  7  HEATING DEGREE DAYS: 40 COOLING DEGREE DAYS:  0 LATEST DAY MAX TEMP (0700-1900 LST):30  LATEST NIGHT MIN TEMP(1900-0800 LST):19 HOURLY INCREMENTAL PRECIPITATION VALUES (IN):.00 0.00 0.00 0.00 0.00 0.00 0.00 0.00 0.00 0.00 0.00 0.00 0.00 0.00 0.00 0.00 0.00 0.00 0.00 0.00 0.00 0.00 0.00 0.01EQDR01  0.017AAP092
0215726140547422021010205546+44420-072019FM-15+0212K1V4 V02099999999999999999N9999997N5-00395-00505101975ADDAA101001095AA206001091MA1101835099305MD1890279+9999REMMET11701/02/21 00:54:02 METAR K1V4 020554Z      KT M04/M05 A3007 RMK AO1 SLP197 P0003 60004 T10391050 11028 21039 58027 RTXEQDR01      7SKY009R02      7GAS009
0173726140547422021010206546+44420-072019FM-15+0212K1V4 V02099999999999999999N9999997N5-00395-00505101835ADDAA101000895MA1101695099165REMMET10001/02/21 01:54:02 METAR K1V4 020654Z      KT M04/M05 A3003 RMK AO1 PRESFR SLP183 P0003 T10391050 RTXEQDR01      7SKY009R02      7GAS009
0166726140547422021010207546+44420-072019FM-15+0212K1V4 V02099999999999999999N9999997N5-00335-00505101655ADDAA101000895MA1101525099005REMMET09301/02/21 02:54:02 METAR K1V4 020754Z      KT M03/M05 A2998 RMK AO1 SLP165 P0004 T10331050 RTXEQDR01      7SKY009R02      7GAS009
0199726140547422021010208546+44420-072019FM-15+0212K1V4 V02099999999999999999N9999997N5-00335-00505101395ADDAA101000895AA203002391MA1101255098735MD1890569+9999REMMET10101/02/21 03:54:02 METAR K1V4 020854Z      KT M03/M05 A2990 RMK AO1 SLP139 P0002 60009 T10331050 58056EQDR01      7SKY009R02      7GAS009
0173726140547422021010209546+44420-072019FM-15+0212K1V4 V02099999999999999999N9999997N5-00335-00445101115ADDAA101000395MA1100985098475REMMET10001/02/21 04:54:02 METAR K1V4 020954Z      KT M03/M04 A2982 RMK AO1 PRESFR SLP111 P0002 T10331044 RTXEQDR01      7SKY009R02      7GAS009
0162726140547422021010210546+44420-072019FM-15+0212K1V4 V02099999999999999999N9999997N5-00335-00445100925ADDAA101000895MA1100785098275REMMET08901/02/21 05:54:02 METAR K1V4 021054Z      KT M03/M04 A2976 RMK AO1 SLP092 P0002 T10331044EQDR01      7SKY009R02      7GAS009
0228726140547422021010211546+44420-072019FM-15+0212K1V4 V02099999999999999999N9999997N5-00335-00445100715ADDAA101003395AA206006691AA324007691MA1100585098075MD1690679+9999REMMET11901/02/21 06:54:02 METAR K1V4 021154Z      KT M03/M04 A2970 RMK AO1 SLP071 P0013 60026 70030 T10331044 11028 21039 56067EQDR01      7SKY009R02      7GAS009
0166726140547422021010212546+44420-072019FM-15+0212K1V4 V02099999999999999999N9999997N5-00335-00445100715ADDAA101001595MA1100585098075REMMET09301/02/21 07:54:02 METAR K1V4 021254Z      KT M03/M04 A2970 RMK AO1 SLP071 P0006 T10331044 RTXEQDR01      7SKY009R02      7GAS009
0162726140547422021010213546+44420-072019FM-15+0212K1V4 V02099999999999999999N9999997N5-00335-00395100785ADDAA101003695MA1100645098135REMMET08901/02/21 08:54:02 METAR K1V4 021354Z      KT M03/M04 A2972 RMK AO1 SLP078 P0013 T10331039EQDR01      7SKY009R02      7GAS009
0199726140547422021010214546+44420-072019FM-15+0212K1V4 V02099999999999999999N9999997N5-00225-00395100665ADDAA101001595AA203006991MA1100545098045MD1890049+9999REMMET10101/02/21 09:54:02 METAR K1V4 021454Z      KT M02/M04 A2969 RMK AO1 SLP066 P0008 60027 T10221039 58004EQDR01      7SKY009R02      7GAS009
0156726140547422021010215546+44420-072019FM-15+0212K1V4 V02099999999999999999N9999997N5-00175-00335100655ADDAA101000095MA1100545098045REMMET08301/02/21 10:54:02 METAR K1V4 021554Z      KT M02/M03 A2969 RMK AO1 SLP065 T10171033EQDR01      7SKY009R02      7GAS009
0162726140547422021010216546+44420-072019FM-15+0212K1V4 V02099999999999999999N9999997N5-00115-00225100595ADDAA101000595MA1100475097975REMMET08901/02/21 11:54:02 METAR K1V4 021654Z      KT M01/M02 A2967 RMK AO1 SLP059 P0002 T10111022EQDR01      7SKY009R02      7GAS009
0204726140547422021010217546+44420-072019FM-15+0212K1V4 V02099999999999999999N9999997N5+00005-00175100685ADDAA101000095AA206007491MA1100545098045MD1390029+9999REMMET10601/02/21 12:54:02 METAR K1V4 021754Z      KT 00/M02 A2969 RMK AO1 SLP068 60029 T00001017 10000 21033 53002EQDR01      7SKY009R02      7GAS009
0159726140547422021010218546+44420-072019FM-15+0212K1V4 V02099999999999999999N9999997N5+00065-00115100845ADDAA101000095MA1100715098205REMMET08601/02/21 13:54:02 METAR K1V4 021854Z      KT 01/M01 A2974 RMK AO1 SLP084 T00061011 RTXEQDR01      7SKY009R02      7GAS009
0159726140547422021010219546+44420-072019FM-15+0212K1V4 V02099999999999999999N9999997N5+00115-00285101035ADDAA101000095MA1100915098405REMMET08601/02/21 14:54:02 METAR K1V4 021954Z      KT 01/M03 A2980 RMK AO1 SLP103 T00111028 RTXEQDR01      7SKY009R02      7GAS009
0187726140547422021010220546+44420-072019FM-15+0212K1V4 V02099999999999999999N9999997N5-00065-00395101295ADDAA101000095MA1101195098675MD1390609+9999REMMET10001/02/21 15:54:02 METAR K1V4 022054Z      KT M01/M04 A2988 RMK AO1 PRESRR SLP129 T10061039 53060 RTXEQDR01      7SKY009R02      7GAS009
0160726140547422021010221546+44420-072019FM-15+0212K1V4 V02099999999999999999N9999997N5-00175-00505101505ADDAA101000095MA1101395098865REMMET08701/02/21 16:54:02 METAR K1V4 022154Z      KT M02/M05 A2994 RMK AO1 SLP150 T10171050 RTXEQDR01      7SKY009R02      7GAS009
0160726140547422021010222546+44420-072019FM-15+0212K1V4 V02099999999999999999N9999997N5-00225-00565101645ADDAA101000095MA1101525099005REMMET08701/02/21 17:54:02 METAR K1V4 022254Z      KT M02/M06 A2998 RMK AO1 SLP164 T10221056 RTXEQDR01      7SKY009R02      7GAS009
0192726140547422021010223546+44420-072019FM-15+0212K1V4 V02099999999999999999N9999997N5-00285-00615101795ADDAA101000095MA1101665099135MD1190489+9999REMMET10501/02/21 18:54:02 METAR K1V4 022354Z      KT M03/M06 A3002 RMK AO1 SLP179 T10281061 10017 21028 51048 RTXEQDR01      7SKY009R02      7GAS009
0156726140547422021010300546+44420-072019FM-15+0212K1V4 V02099999999999999999N9999997N5-00285-00615101885ADDAA101000095MA1101765099235REMMET08301/02/21 19:54:01 METAR K1V4 030054Z      KT M03/M06 A3005 RMK AO1 SLP188 T10281061EQDR01      7SKY009R02      7GAS009
0156726140547422021010301546+44420-072019FM-15+0212K1V4 V02099999999999999999N9999997N5-00285-00615101945ADDAA101000095MA1101795099265REMMET08301/02/21 20:54:01 METAR K1V4 030154Z      KT M03/M06 A3006 RMK AO1 SLP194 T10281061EQDR01      7SKY009R02      7GAS009
0176726140547422021010302546+44420-072019FM-15+0212K1V4 V02099999999999999999N9999997N5-00335-00565101995ADDAA101000095MA1101865099335MD1190199+9999REMMET08901/02/21 21:54:01 METAR K1V4 030254Z      KT M03/M06 A3008 RMK AO1 SLP199 T10331056 51019EQDR01      7SKY009R02      7GAS009
0156726140547422021010303546+44420-072019FM-15+0212K1V4 V02099999999999999999N9999997N5-00285-00565102085ADDAA101000095MA1101965099435REMMET08301/02/21 22:54:01 METAR K1V4 030354Z      KT M03/M06 A3011 RMK AO1 SLP208 T10281056EQDR01      7SKY009R02      7GAS009
0166726140547422021010304546+44420-072019FM-15+0212K1V4 V02099999999999999999N9999997N5-00285-00565102105ADDAA101000095MA1101965099435REMMET09301/02/21 23:54:02 METAR K1V4 030454Z      KT M03/M06 A3011 RMK AO1 SLP210 T10281056 400171039EQDR01      7SKY009R02      7GAS009
0622726140547422021010304596+44420-072019SOD  +0212K1V4 V020999999999999999999999999999+99999+99999999999ADDAA124014796KA1240M+00175KA2240N-00385MG1098614100584OE11249999999999997OE22249999999999997REMSOD50124 HR PRECIPITATION (IN): 0.58 24 HR MAX TEMP (F): 3524 HR MIN TEMP (F): 25AVERAGE STATION PRESSURE:29.120 MINIMUM SEA LEVEL PRESSURE:29.70 TIME OF OCCURRENCE:1154 24 HR AVG TEMP (F): 30DEPART FROM NORMAL: 12  HEATING DEGREE DAYS: 35 COOLING DEGREE DAYS:  0 LATEST DAY MAX TEMP (0700-1900 LST):35  LATEST NIGHT MIN TEMP(1900-0800 LST):25 HOURLY INCREMENTAL PRECIPITATION VALUES (IN):.04 0.03 0.03 0.03 0.01 0.03 0.13 0.06 0.14 0.06 0.00 0.02 0.00 0.00 0.00 0.00 0.00 0.00 0.00 0.00 0.00 0.00 0.00 0.00EQDR01  0.587AAP092
0192726140547422021010305546+44420-072019FM-15+0212K1V4 V02099999999999999999N9999997N5-00335-00505102135ADDAA101000095MA1102005099465MD1190159+9999REMMET10501/03/21 00:54:02 METAR K1V4 030554Z      KT M03/M05 A3012 RMK AO1 SLP213 T10331050 11028 21033 51015 RTXEQDR01      7SKY009R02      7GAS009
0156726140547422021010306546+44420-072019FM-15+0212K1V4 V02099999999999999999N9999997N5-00335-00505102135ADDAA101000095MA1102005099465REMMET08301/03/21 01:54:02 METAR K1V4 030654Z      KT M03/M05 A3012 RMK AO1 SLP213 T10331050EQDR01      7SKY009R02      7GAS009
0160726140547422021010307546+44420-072019FM-15+0212K1V4 V02099999999999999999N9999997N5-00335-00505102095ADDAA101000095MA1101965099435REMMET08701/03/21 02:54:02 METAR K1V4 030754Z      KT M03/M05 A3011 RMK AO1 SLP209 T10331050 RTXEQDR01      7SKY009R02      7GAS009
0180726140547422021010308546+44420-072019FM-15+0212K1V4 V02099999999999999999N9999997N5-00335-00505102115ADDAA101000095MA1102005099465MD1790029+9999REMMET09301/03/21 03:54:02 METAR K1V4 030854Z      KT M03/M05 A3012 RMK AO1 SLP211 T10331050 57002 RTXEQDR01      7SKY009R02      7GAS009
0160726140547422021010309546+44420-072019FM-15+0212K1V4 V02099999999999999999N9999997N5-00335-00505102145ADDAA101000095MA1102035099505REMMET08701/03/21 04:54:02 METAR K1V4 030954Z      KT M03/M05 A3013 RMK AO1 SLP214 T10331050 RTXEQDR01      7SKY009R02      7GAS009
0160726140547422021010310546+44420-072019FM-15+0212K1V4 V02099999999999999999N9999997N5-00335-00505102115ADDAA101000095MA1101965099435REMMET08701/03/21 05:54:02 METAR K1V4 031054Z      KT M03/M05 A3011 RMK AO1 SLP211 T10331050 RTXEQDR01      7SKY009R02      7GAS009
0209726140547422021010311546+44420-072019FM-15+0212K1V4 V02099999999999999999N9999997N5-00335-00445102195ADDAA101000095AA224007491MA1102075099535MD1390079+9999REMMET11101/03/21 06:54:02 METAR K1V4 031154Z      KT M03/M04 A3014 RMK AO1 SLP219 70029 T10331044 11028 21039 53007 RTXEQDR01      7SKY009R02      7GAS009
0156726140547422021010312546+44420-072019FM-15+0212K1V4 V02099999999999999999N9999997N5-00335-00505102055ADDAA101000095MA1101935099405REMMET08301/03/21 07:54:02 METAR K1V4 031254Z      KT M03/M05 A3010 RMK AO1 SLP205 T10331050EQDR01      7SKY009R02      7GAS009
0160726140547422021010313546+44420-072019FM-15+0212K1V4 V02099999999999999999N9999997N5-00335-00615102195ADDAA101000095MA1102075099535REMMET08701/03/21 08:54:02 METAR K1V4 031354Z      KT M03/M06 A3014 RMK AO1 SLP219 T10331061 RTXEQDR01      7SKY009R02      7GAS009
0180726140547422021010314546+44420-072019FM-15+0212K1V4 V02099999999999999999N9999997N5-00285-00615102195ADDAA101000095MA1102075099535MD1390009+9999REMMET09301/03/21 09:54:02 METAR K1V4 031454Z      KT M03/M06 A3014 RMK AO1 SLP219 T10281061 53000 RTXEQDR01      7SKY009R02      7GAS009
0160726140547422021010315546+44420-072019FM-15+0212K1V4 V02099999999999999999N9999997N5-00225-00565102145ADDAA101000095MA1102005099465REMMET08701/03/21 10:54:02 METAR K1V4 031554Z      KT M02/M06 A3012 RMK AO1 SLP214 T10221056 RTXEQDR01      7SKY009R02      7GAS009
0160726140547422021010316546+44420-072019FM-15+0212K1V4 V02099999999999999999N9999997N5-00225-00615102035ADDAA101000095MA1101905099365REMMET08701/03/21 11:54:02 METAR K1V4 031654Z      KT M02/M06 A3009 RMK AO1 SLP203 T10221061 RTXEQDR01      7SKY009R02      7GAS009
0192726140547422021010317546+44420-072019FM-15+0212K1V4 V02099999999999999999N9999997N5-00225-00565101865ADDAA101000095MA1101735099205MD1890329+9999REMMET10501/03/21 12:54:02 METAR K1V4 031754Z      KT M02/M06 A3004 RMK AO1 SLP186 T10221056 11022 21039 58032 RTXEQDR01      7SKY009R02      7GAS009
0160726140547422021010318546+44420-072019FM-15+0212K1V4 V02099999999999999999N9999997N5-00175-00565101785ADDAA101000095MA1101665099135REMMET08701/03/21 13:54:02 METAR K1V4 031854Z      KT M02/M06 A3002 RMK AO1 SLP178 T10171056 RTXEQDR01      7SKY009R02      7GAS009
0160726140547422021010319546+44420-072019FM-15+0212K1V4 V02099999999999999999N9999997N5-00175-00565101775ADDAA101000095MA1101665099135REMMET08701/03/21 14:54:02 METAR K1V4 031954Z      KT M02/M06 A3002 RMK AO1 SLP177 T10171056 RTXEQDR01      7SKY009R02      7GAS009
0180726140547422021010320546+44420-072019FM-15+0212K1V4 V02099999999999999999N9999997N5-00175-00505101795ADDAA101000095MA1101665099135MD1590069+9999REMMET09301/03/21 15:54:02 METAR K1V4 032054Z      KT M02/M05 A3002 RMK AO1 SLP179 T10171050 55006 RTXEQDR01      7SKY009R02      7GAS009
0160726140547422021010321546+44420-072019FM-15+0212K1V4 V02099999999999999999N9999997N5-00225-00565101835ADDAA101000095MA1101695099165REMMET08701/03/21 16:54:02 METAR K1V4 032154Z      KT M02/M06 A3003 RMK AO1 SLP183 T10221056 RTXEQDR01      7SKY009R02      7GAS009
0160726140547422021010322546+44420-072019FM-15+0212K1V4 V02099999999999999999N9999997N5-00225-00505101885ADDAA101000095MA1101735099205REMMET08701/03/21 17:54:02 METAR K1V4 032254Z      KT M02/M05 A3004 RMK AO1 SLP188 T10221050 RTXEQDR01      7SKY009R02      7GAS009
0192726140547422021010323546+44420-072019FM-15+0212K1V4 V02099999999999999999N9999997N5-00225-00505101875ADDAA101000095MA1101735099205MD1090069+9999REMMET10501/03/21 18:54:02 METAR K1V4 032354Z      KT M02/M05 A3004 RMK AO1 SLP187 T10221050 11017 21022 50006 RTXEQDR01      7SKY009R02      7GAS009
0162726140547422021010400546+44420-072019FM-15+0212K1V4 V02099999999999999999N9999997N5-00285-00395101875ADDAA101000895MA1101735099205REMMET08901/03/21 19:54:01 METAR K1V4 040054Z      KT M03/M04 A3004 RMK AO1 SLP187 P0002 T10281039EQDR01      7SKY009R02      7GAS009
0162726140547422021010401546+44420-072019FM-15+0212K1V4 V02099999999999999999N9999997N5-00285-00395101855ADDAA101000095MA1101735099205REMMET08901/03/21 20:54:01 METAR K1V4 040154Z      KT M03/M04 A3004 RMK AO1 SLP185 P0001 T10281039EQDR01      7SKY009R02      7GAS009
0199726140547422021010402546+44420-072019FM-15+0212K1V4 V02099999999999999999N9999997N5-00285-00395101835ADDAA101000395AA203001091MA1101695099165MD1890049+9999REMMET10101/03/21 21:54:01 METAR K1V4 040254Z      KT M03/M04 A3003 RMK AO1 SLP183 P0001 60004 T10281039 58004EQDR01      7SKY009R02      7GAS009
0162726140547422021010403546+44420-072019FM-15+0212K1V4 V02099999999999999999N9999997N5-00285-00445101755ADDAA101000595MA1101635099105REMMET08901/03/21 22:54:01 METAR K1V4 040354Z      KT M03/M04 A3001 RMK AO1 SLP175 P0001 T10281044EQDR01      7SKY009R02      7GAS009
0172726140547422021010404546+44420-072019FM-15+0212K1V4 V02099999999999999999N9999997N5-00285-00395101685ADDAA101000895MA1101565099035REMMET09901/03/21 23:54:02 METAR K1V4 040454Z      KT M03/M04 A2999 RMK AO1 SLP168 P0004 T10281039 410171039EQDR01      7SKY009R02      7GAS009
0622726140547422021010404596+44420-072019SOD  +0212K1V4 V020999999999999999999999999999+99999+99999999999ADDAA124002396KA1240M-00165KA2240N-00385MG1099324101694OE11249999999999997OE22249999999999997REMSOD50124 HR PRECIPITATION (IN): 0.09 24 HR MAX TEMP (F): 2924 HR MIN TEMP (F): 25AVERAGE STATION PRESSURE:29.330 MINIMUM SEA LEVEL PRESSURE:30.03 TIME OF OCCURRENCE:2359 24 HR AVG TEMP (F): 27DEPART FROM NORMAL:  9  HEATING DEGREE DAYS: 38 COOLING DEGREE DAYS:  0 LATEST DAY MAX TEMP (0700-1900 LST):29  LATEST NIGHT MIN TEMP(1900-0800 LST):25 HOURLY INCREMENTAL PRECIPITATION VALUES (IN):.00 0.00 0.00 0.00 0.00 0.00 0.00 0.00 0.00 0.00 0.00 0.00 0.00 0.00 0.00 0.00 0.00 0.00 0.00 0.03 0.00 0.01 0.02 0.03EQDR01  0.097AAP092
0211726140547422021010405546+44420-072019FM-15+0212K1V4 V02099999999999999999N9999997N5-00285-00395101655ADDAA101000895AA206003091MA1101525099005MD1690169+9999REMMET11301/04/21 00:54:02 METAR K1V4 040554Z      KT M03/M04 A2998 RMK AO1 SLP165 P0003 60012 T10281039 11022 21028 56016EQDR01      7SKY009R02      7GAS009
0166726140547422021010406546+44420-072019FM-15+0212K1V4 V02099999999999999999N9999997N5-00285-00395101665ADDAA101000595MA1101525099005REMMET09301/04/21 01:54:02 METAR K1V4 040654Z      KT M03/M04 A2998 RMK AO1 SLP166 P0002 T10281039 RTXEQDR01      7SKY009R02      7GAS009
0166726140547422021010407546+44420-072019FM-15+0212K1V4 V02099999999999999999N9999997N5-00285-00395101665ADDAA101000895MA1101525099005REMMET09301/04/21 02:54:02 METAR K1V4 040754Z      KT M03/M04 A2998 RMK AO1 SLP166 P0003 T10281039 RTXEQDR01      7SKY009R02      7GAS009
0203726140547422021010408546+44420-072019FM-15+0212K1V4 V02099999999999999999N9999997N5-00285-00395101645ADDAA101000395AA203001591MA1101525099005MD1890029+9999REMMET10501/04/21 03:54:02 METAR K1V4 040854Z      KT M03/M04 A2998 RMK AO1 SLP164 P0001 60006 T10281039 58002 RTXEQDR01      7SKY009R02      7GAS009
0160726140547422021010409546+44420-072019FM-15+0212K1V4 V02099999999999999999N9999997N5-00285-00395101635ADDAA101000095MA1101495098965REMMET08701/04/21 04:54:02 METAR K1V4 040954Z      KT M03/M04 A2997 RMK AO1 SLP163 T10281039 RTXEQDR01      7SKY009R02      7GAS009
0160726140547422021010410546+44420-072019FM-15+0212K1V4 V02099999999999999999N9999997N5-00285-00395101665ADDAA101000095MA1101525099005REMMET08701/04/21 05:54:02 METAR K1V4 041054Z      KT M03/M04 A2998 RMK AO1 SLP166 T10281039 RTXEQDR01      7SKY009R02      7GAS009
0232726140547422021010411546+44420-072019FM-15+0212K1V4 V02099999999999999999N9999997N5-00285-00395101715ADDAA101000395AA206001891AA324004891MA1101595099065MD1390079+9999REMMET12301/04/21 06:54:02 METAR K1V4 041154Z      KT M03/M04 A3000 RMK AO1 SLP171 P0001 60007 70019 T10281039 11028 21028 53007 RTXEQDR01      7SKY009R02      7GAS009
0160726140547422021010412546+44420-072019FM-15+0212K1V4 V02099999999999999999N9999997N5-00285-00395101765ADDAA101000095MA1101635099105REMMET08701/04/21 07:54:02 METAR K1V4 041254Z      KT M03/M04 A3001 RMK AO1 SLP176 T10281039 RTXEQDR01      7SKY009R02      7GAS009
0160726140547422021010413546+44420-072019FM-15+0212K1V4 V02099999999999999999N9999997N5-00335-00445101785ADDAA101000095MA1101665099135REMMET08701/04/21 08:54:02 METAR K1V4 041354Z      KT M03/M04 A3002 RMK AO1 SLP178 T10331044 RTXEQDR01      7SKY009R02      7GAS009
0180726140547422021010414546+44420-072019FM-15+0212K1V4 V02099999999999999999N9999997N5-00285-00445101765ADDAA101000095MA1101635099105MD1090049+9999REMMET09301/04/21 09:54:02 METAR K1V4 041454Z      KT M03/M04 A3001 RMK AO1 SLP176 T10281044 50004 RTXEQDR01      7SKY009R02      7GAS009
0160726140547422021010415546+44420-072019FM-15+0212K1V4 V02099999999999999999N9999997N5-00175-00395101715ADDAA101000095MA1101595099065REMMET08701/04/21 10:54:02 METAR K1V4 041554Z      KT M02/M04 A3000 RMK AO1 SLP171 T10171039 RTXEQDR01      7SKY009R02      7GAS009
0159726140547422021010416546+44420-072019FM-15+0212K1V4 V02099999999999999999N9999997N5+00005-00335101595ADDAA101000095MA1101495098965REMMET08601/04/21 11:54:02 METAR K1V4 041654Z      KT 00/M03 A2997 RMK AO1 SLP159 T00001033 RTXEQDR01      7SKY009R02      7GAS009
0191726140547422021010417546+44420-072019FM-15+0212K1V4 V02099999999999999999N9999997N5+00065-00285101545ADDAA101000095MA1101425098905MD1890199+9999REMMET10401/04/21 12:54:02 METAR K1V4 041754Z      KT 01/M03 A2995 RMK AO1 SLP154 T00061028 10011 21033 58019 RTXEQDR01      7SKY009R02      7GAS009
0159726140547422021010418546+44420-072019FM-15+0212K1V4 V02099999999999999999N9999997N5+00175-00175101515ADDAA101000095MA1101425098905REMMET08601/04/21 13:54:02 METAR K1V4 041854Z      KT 02/M02 A2995 RMK AO1 SLP151 T00171017 RTXEQDR01      7SKY009R02      7GAS009
0159726140547422021010419546+44420-072019FM-15+0212K1V4 V02099999999999999999N9999997N5+00175-00175101475ADDAA101000095MA1101355098835REMMET08601/04/21 14:54:02 METAR K1V4 041954Z      KT 02/M02 A2993 RMK AO1 SLP147 T00171017 RTXEQDR01      7SKY009R02      7GAS009
0179726140547422021010420546+44420-072019FM-15+0212K1V4 V02099999999999999999N9999997N5+00115-00175101485ADDAA101000095MA1101395098865MD1590059+9999REMMET09201/04/21 15:54:02 METAR K1V4 042054Z      KT 01/M02 A2994 RMK AO1 SLP148 T00111017 55005 RTXEQDR01      7SKY009R02      7GAS009
0159726140547422021010421546+44420-072019FM-15+0212K1V4 V02099999999999999999N9999997N5+00065-00115101515ADDAA101000095MA1101395098865REMMET08601/04/21 16:54:02 METAR K1V4 042154Z      KT 01/M01 A2994 RMK AO1 SLP151 T00061011 RTXEQDR01      7SKY009R02      7GAS009
0159726140547422021010422546+44420-072019FM-15+0212K1V4 V02099999999999999999N9999997N5+00005-00115101525ADDAA101000095MA1101425098905REMMET08601/04/21 17:54:02 METAR K1V4 042254Z      KT 00/M01 A2995 RMK AO1 SLP152 T00001011 RTXEQDR01      7SKY009R02      7GAS009
0191726140547422021010423546+44420-072019FM-15+0212K1V4 V02099999999999999999N9999997N5+00005-00065101545ADDAA101000095MA1101425098905MD1390059+9999REMMET10401/04/21 18:54:02 METAR K1V4 042354Z      KT 00/M01 A2995 RMK AO1 SLP154 T00001006 10022 20000 53005 RTXEQDR01      7SKY009R02      7GAS009
0155726140547422021010500546+44420-072019FM-15+0212K1V4 V02099999999999999999N9999997N5+00005-00115101555ADDAA101000095MA1101425098905REMMET08201/04/21 19:54:01 METAR K1V4 050054Z      KT 00/M01 A2995 RMK AO1 SLP155 T00001011EQDR01      7SKY009R02      7GAS009
0155726140547422021010501546+44420-072019FM-15+0212K1V4 V02099999999999999999N9999997N5+00005-00115101555ADDAA101000095MA1101425098905REMMET08201/04/21 20:54:01 METAR K1V4 050154Z      KT 00/M01 A2995 RMK AO1 SLP155 T00001011EQDR01      7SKY009R02      7GAS009
0175726140547422021010502546+44420-072019FM-15+0212K1V4 V02099999999999999999N9999997N5+00005-00175101485ADDAA101000095MA1101355098835MD1890069+9999REMMET08801/04/21 21:54:01 METAR K1V4 050254Z      KT 00/M02 A2993 RMK AO1 SLP148 T00001017 58006EQDR01      7SKY009R02      7GAS009
0155726140547422021010503546+44420-072019FM-15+0212K1V4 V02099999999999999999N9999997N5+00005-00225101425ADDAA101000095MA1101325098805REMMET08201/04/21 22:54:01 METAR K1V4 050354Z      KT 00/M02 A2992 RMK AO1 SLP142 T00001022EQDR01      7SKY009R02      7GAS009
0166726140547422021010504546+44420-072019FM-15+0212K1V4 V02099999999999999999N9999997N5-00065-00225101405ADDAA101000095MA1101295098775REMMET09301/04/21 23:54:02 METAR K1V4 050454Z      KT M01/M02 A2991 RMK AO1 SLP140 T10061022 400221033EQDR01      7SKY009R02      7GAS009
0622726140547422021010504596+44420-072019SOD  +0212K1V4 V020999999999999999999999999999+99999+99999999999ADDAA124002596KA1240M+00225KA2240N-00325MG1098954101394OE11249999999999997OE22249999999999997REMSOD50124 HR PRECIPITATION (IN): 0.10 24 HR MAX TEMP (F): 3624 HR MIN TEMP (F): 26AVERAGE STATION PRESSURE:29.220 MINIMUM SEA LEVEL PRESSURE:29.94 TIME OF OCCURRENCE:2359 24 HR AVG TEMP (F): 31DEPART FROM NORMAL: 13  HEATING DEGREE DAYS: 34 COOLING DEGREE DAYS:  0 LATEST DAY MAX TEMP (0700-1900 LST):36  LATEST NIGHT MIN TEMP(1900-0800 LST):27 HOURLY INCREMENTAL PRECIPITATION VALUES (IN):.03 0.02 0.03 0.01 0.00 0.00 0.01 0.00 0.00 0.00 0.00 0.00 0.00 0.00 0.00 0.00 0.00 0.00 0.00 0.00 0.00 0.00 0.00 0.00EQDR01  0.107AAP092
0188726140547422021010505546+44420-072019FM-15+0212K1V4 V02099999999999999999N9999997N5-00065-00225101385ADDAA101000095MA1101295098775MD1690089+9999REMMET10101/05/21 00:54:02 METAR K1V4 050554Z      KT M01/M02 A2991 RMK AO1 SLP138 T10061022 10006 21006 56008EQDR01      7SKY009R02      7GAS009
0156726140547422021010506546+44420-072019FM-15+0212K1V4 V02099999999999999999N9999997N5-00065-00285101405ADDAA101000095MA1101325098805REMMET08301/05/21 01:54:02 METAR K1V4 050654Z      KT M01/M03 A2992 RMK AO1 SLP140 T10061028EQDR01      7SKY009R02      7GAS009
0160726140547422021010507546+44420-072019FM-15+0212K1V4 V02099999999999999999N9999997N5-00115-00285101385ADDAA101000095MA1101295098775REMMET08701/05/21 02:54:02 METAR K1V4 050754Z      KT M01/M03 A2991 RMK AO1 SLP138 T10111028 RTXEQDR01      7SKY009R02      7GAS009
0180726140547422021010508546+44420-072019FM-15+0212K1V4 V02099999999999999999N9999997N5-00115-00335101385ADDAA101000095MA1101295098775MD1890019+9999REMMET09301/05/21 03:54:02 METAR K1V4 050854Z      KT M01/M03 A2991 RMK AO1 SLP138 T10111033 58001 RTXEQDR01      7SKY009R02      7GAS009
0160726140547422021010509546+44420-072019FM-15+0212K1V4 V02099999999999999999N9999997N5-00115-00335101415ADDAA101000095MA1101325098805REMMET08701/05/21 04:54:02 METAR K1V4 050954Z      KT M01/M03 A2992 RMK AO1 SLP141 T10111033 RTXEQDR01      7SKY009R02      7GAS009
0156726140547422021010510546+44420-072019FM-15+0212K1V4 V02099999999999999999N9999997N5-00115-00335101425ADDAA101000095MA1101325098805REMMET08301/05/21 05:54:02 METAR K1V4 051054Z      KT M01/M03 A2992 RMK AO1 SLP142 T10111033EQDR01      7SKY009R02      7GAS009
0192726140547422021010511546+44420-072019FM-15+0212K1V4 V02099999999999999999N9999997N5-00115-00335101435ADDAA101000095MA1101325098805MD1190059+9999REMMET10501/05/21 06:54:02 METAR K1V4 051154Z      KT M01/M03 A2992 RMK AO1 SLP143 T10111033 11006 21011 51005 RTXEQDR01      7SKY009R02      7GAS009
0156726140547422021010512546+44420-072019FM-15+0212K1V4 V02099999999999999999N9999997N5-00115-00335101445ADDAA101000095MA1101325098805REMMET08301/05/21 07:54:02 METAR K1V4 051254Z      KT M01/M03 A2992 RMK AO1 SLP144 T10111033EQDR01      7SKY009R02      7GAS009
0160726140547422021010513546+44420-072019FM-15+0212K1V4 V02099999999999999999N9999997N5-00115-00335101475ADDAA101000095MA1101355098835REMMET08701/05/21 08:54:02 METAR K1V4 051354Z      KT M01/M03 A2993 RMK AO1 SLP147 T10111033 RTXEQDR01      7SKY009R02      7GAS009
0179726140547422021010514546+44420-072019FM-15+0212K1V4 V02099999999999999999N9999997N5+00005-00335101465ADDAA101000095MA1101355098835MD1090039+9999REMMET09201/05/21 09:54:02 METAR K1V4 051454Z      KT 00/M03 A2993 RMK AO1 SLP146 T00001033 50003 RTXEQDR01      7SKY009R02      7GAS009
0159726140547422021010515546+44420-072019FM-15+0212K1V4 V02099999999999999999N9999997N5+00065-00335101385ADDAA101000095MA1101295098775REMMET08601/05/21 10:54:02 METAR K1V4 051554Z      KT 01/M03 A2991 RMK AO1 SLP138 T00061033 RTXEQDR01      7SKY009R02      7GAS009
0159726140547422021010516546+44420-072019FM-15+0212K1V4 V02099999999999999999N9999997N5+00065-00335101345ADDAA101000095MA1101225098705REMMET08601/05/21 11:54:02 METAR K1V4 051654Z      KT 01/M03 A2989 RMK AO1 SLP134 T00061033 RTXEQDR01      7SKY009R02      7GAS009
0191726140547422021010517546+44420-072019FM-15+0212K1V4 V02099999999999999999N9999997N5+00115-00395101275ADDAA101000095MA1101195098675MD1690189+9999REMMET10401/05/21 12:54:02 METAR K1V4 051754Z      KT 01/M04 A2988 RMK AO1 SLP127 T00111039 10011 21011 56018 RTXEQDR01      7SKY009R02      7GAS009
0159726140547422021010518546+44420-072019FM-15+0212K1V4 V02099999999999999999N9999997N5+00115-00335101275ADDAA101000095MA1101195098675REMMET08601/05/21 13:54:02 METAR K1V4 051854Z      KT 01/M03 A2988 RMK AO1 SLP127 T00111033 RTXEQDR01      7SKY009R02      7GAS009
0159726140547422021010519546+44420-072019FM-15+0212K1V4 V02099999999999999999N9999997N5+00115-00335101325ADDAA101000095MA1101225098705REMMET08601/05/21 14:54:02 METAR K1V4 051954Z      KT 01/M03 A2989 RMK AO1 SLP132 T00111033 RTXEQDR01      7SKY009R02      7GAS009
0179726140547422021010520546+44420-072019FM-15+0212K1V4 V02099999999999999999N9999997N5+00005-00285101375ADDAA101000095MA1101255098735MD1390099+9999REMMET09201/05/21 15:54:02 METAR K1V4 052054Z      KT 00/M03 A2990 RMK AO1 SLP137 T00001028 53009 RTXEQDR01      7SKY009R02      7GAS009
0160726140547422021010521546+44420-072019FM-15+0212K1V4 V02099999999999999999N9999997N5-00065-00285101415ADDAA101000095MA1101325098805REMMET08701/05/21 16:54:02 METAR K1V4 052154Z      KT M01/M03 A2992 RMK AO1 SLP141 T10061028 RTXEQDR01      7SKY009R02      7GAS009
0160726140547422021010522546+44420-072019FM-15+0212K1V4 V02099999999999999999N9999997N5-00065-00285101455ADDAA101000095MA1101355098835REMMET08701/05/21 17:54:02 METAR K1V4 052254Z      KT M01/M03 A2993 RMK AO1 SLP145 T10061028 RTXEQDR01      7SKY009R02      7GAS009
0192726140547422021010523546+44420-072019FM-15+0212K1V4 V02099999999999999999N9999997N5-00115-00335101475ADDAA101000095MA1101355098835MD1190099+9999REMMET10501/05/21 18:54:02 METAR K1V4 052354Z      KT M01/M03 A2993 RMK AO1 SLP147 T10111033 10011 21011 51009 RTXEQDR01      7SKY009R02      7GAS009
0156726140547422021010600546+44420-072019FM-15+0212K1V4 V02099999999999999999N9999997N5-00115-00395101455ADDAA101000095MA1101325098805REMMET08301/05/21 19:54:01 METAR K1V4 060054Z      KT M01/M04 A2992 RMK AO1 SLP145 T10111039EQDR01      7SKY009R02      7GAS009
0156726140547422021010601546+44420-072019FM-15+0212K1V4 V02099999999999999999N9999997N5-00115-00395101455ADDAA101000095MA1101325098805REMMET08301/05/21 20:54:01 METAR K1V4 060154Z      KT M01/M04 A2992 RMK AO1 SLP145 T10111039EQDR01      7SKY009R02      7GAS009
0176726140547422021010602546+44420-072019FM-15+0212K1V4 V02099999999999999999N9999997N5-00175-00445101425ADDAA101000095MA1101325098805MD1690049+9999REMMET08901/05/21 21:54:01 METAR K1V4 060254Z      KT M02/M04 A2992 RMK AO1 SLP142 T10171044 56004EQDR01      7SKY009R02      7GAS009
0156726140547422021010603546+44420-072019FM-15+0212K1V4 V02099999999999999999N9999997N5-00175-00445101415ADDAA101000095MA1101325098805REMMET08301/05/21 22:54:01 METAR K1V4 060354Z      KT M02/M04 A2992 RMK AO1 SLP141 T10171044EQDR01      7SKY009R02      7GAS009
0166726140547422021010604546+44420-072019FM-15+0212K1V4 V02099999999999999999N9999997N5-00175-00505101425ADDAA101000095MA1101325098805REMMET09301/05/21 23:54:02 METAR K1V4 060454Z      KT M02/M05 A2992 RMK AO1 SLP142 T10171050 400111022EQDR01      7SKY009R02      7GAS009
0603726140547422021010604596+44420-072019SOD  +0212K1V4 V020999999999999999999999999999+99999+99999999999ADDAA124000095KA1240M+00115KA2240N-00215MG1098754101254OE11249999999999997OE22249999999999997REMSOD50124 HR PRECIPITATION (IN): 0.00 24 HR MAX TEMP (F): 3424 HR MIN TEMP (F): 28AVERAGE STATION PRESSURE:29.160 MINIMUM SEA LEVEL PRESSURE:29.90 TIME OF OCCURRENCE:1334 24 HR AVG TEMP (F): 31DEPART FROM NORMAL: 14  HEATING DEGREE DAYS: 34 COOLING DEGREE DAYS:  0 LATEST DAY MAX TEMP (0700-1900 LST):34  LATEST NIGHT MIN TEMP(1900-0800 LST):30 HOURLY INCREMENTAL PRECIPITATION VALUES (IN):.00 0.00 0.00 0.00 0.00 0.00 0.00 0.00 0.00 0.00 0.00 0.00 0.00 0.00 0.00 0.00 0.00 0.00 0.00 0.00 0.00 0.00 0.00 0.00
0192726140547422021010605546+44420-072019FM-15+0212K1V4 V02099999999999999999N9999997N5-00225-00505101415ADDAA101000095MA1101325098805MD1890019+9999REMMET10501/06/21 00:54:02 METAR K1V4 060554Z      KT M02/M05 A2992 RMK AO1 SLP141 T10221050 11011 21022 58001 RTXEQDR01      7SKY009R02      7GAS009
0166726140547422021010606546+44420-072019FM-15+0212K1V4 V02099999999999999999N9999997N5-00285-00445101465ADDAA101000595MA1101355098835REMMET09301/06/21 01:54:02 METAR K1V4 060654Z      KT M03/M04 A2993 RMK AO1 SLP146 P0002 T10281044 RTXEQDR01      7SKY009R02      7GAS009
0160726140547422021010607546+44420-072019FM-15+0212K1V4 V02099999999999999999N9999997N5-00225-00615101435ADDAA101000095MA1101325098805REMMET08701/06/21 02:54:02 METAR K1V4 060754Z      KT M02/M06 A2992 RMK AO1 SLP143 T10221061 RTXEQDR01      7SKY009R02      7GAS009
0197726140547422021010608546+44420-072019FM-15+0212K1V4 V02099999999999999999N9999997N5-00285-00615101475ADDAA101000095AA203000591MA1101355098835MD1190059+9999REMMET09901/06/21 03:54:02 METAR K1V4 060854Z      KT M03/M06 A2993 RMK AO1 SLP147 60002 T10281061 51005 RTXEQDR01      7SKY009R02      7GAS009
0160726140547422021010609546+44420-072019FM-15+0212K1V4 V02099999999999999999N9999997N5-00335-00675101525ADDAA101000095MA1101395098865REMMET08701/06/21 04:54:02 METAR K1V4 060954Z      KT M03/M07 A2994 RMK AO1 SLP152 T10331067 RTXEQDR01      7SKY009R02      7GAS009
0160726140547422021010610546+44420-072019FM-15+0212K1V4 V02099999999999999999N9999997N5-00395-00675101555ADDAA101000095MA1101425098905REMMET08701/06/21 05:54:02 METAR K1V4 061054Z      KT M04/M07 A2995 RMK AO1 SLP155 T10391067 RTXEQDR01      7SKY009R02      7GAS009
0226726140547422021010611546+44420-072019FM-15+0212K1V4 V02099999999999999999N9999997N5-00395-00675101585ADDAA101000095AA206000591AA324000591MA1101465098935MD1190109+9999REMMET11701/06/21 06:54:02 METAR K1V4 061154Z      KT M04/M07 A2996 RMK AO1 SLP158 60002 70002 T10391067 11022 21039 51010 RTXEQDR01      7SKY009R02      7GAS009
0160726140547422021010612546+44420-072019FM-15+0212K1V4 V02099999999999999999N9999997N5-00395-00675101635ADDAA101000095MA1101495098965REMMET08701/06/21 07:54:02 METAR K1V4 061254Z      KT M04/M07 A2997 RMK AO1 SLP163 T10391067 RTXEQDR01      7SKY009R02      7GAS009
0160726140547422021010613546+44420-072019FM-15+0212K1V4 V02099999999999999999N9999997N5-00395-00615101695ADDAA101000095MA1101565099035REMMET08701/06/21 08:54:02 METAR K1V4 061354Z      KT M04/M06 A2999 RMK AO1 SLP169 T10391061 RTXEQDR01      7SKY009R02      7GAS009
0180726140547422021010614546+44420-072019FM-15+0212K1V4 V02099999999999999999N9999997N5-00395-00675101745ADDAA101000095MA1101595099065MD1190159+9999REMMET09301/06/21 09:54:02 METAR K1V4 061454Z      KT M04/M07 A3000 RMK AO1 SLP174 T10391067 51015 RTXEQDR01      7SKY009R02      7GAS009
0160726140547422021010615546+44420-072019FM-15+0212K1V4 V02099999999999999999N9999997N5-00335-00675101685ADDAA101000095MA1101565099035REMMET08701/06/21 10:54:02 METAR K1V4 061554Z      KT M03/M07 A2999 RMK AO1 SLP168 T10331067 RTXEQDR01      7SKY009R02      7GAS009
0160726140547422021010616546+44420-072019FM-15+0212K1V4 V02099999999999999999N9999997N5-00285-00725101635ADDAA101000095MA1101495098965REMMET08701/06/21 11:54:02 METAR K1V4 061654Z      KT M03/M07 A2997 RMK AO1 SLP163 T10281072 RTXEQDR01      7SKY009R02      7GAS009
0192726140547422021010617546+44420-072019FM-15+0212K1V4 V02099999999999999999N9999997N5-00285-00725101595ADDAA101000095MA1101465098935MD1690149+9999REMMET10501/06/21 12:54:02 METAR K1V4 061754Z      KT M03/M07 A2996 RMK AO1 SLP159 T10281072 11028 21039 56014 RTXEQDR01      7SKY009R02      7GAS009
0160726140547422021010618546+44420-072019FM-15+0212K1V4 V02099999999999999999N9999997N5-00225-00725101615ADDAA101000095MA1101495098965REMMET08701/06/21 13:54:02 METAR K1V4 061854Z      KT M02/M07 A2997 RMK AO1 SLP161 T10221072 RTXEQDR01      7SKY009R02      7GAS009
0160726140547422021010619546+44420-072019FM-15+0212K1V4 V02099999999999999999N9999997N5-00225-00725101625ADDAA101000095MA1101495098965REMMET08701/06/21 14:54:02 METAR K1V4 061954Z      KT M02/M07 A2997 RMK AO1 SLP162 T10221072 RTXEQDR01      7SKY009R02      7GAS009
0176726140547422021010620546+44420-072019FM-15+0212K1V4 V02099999999999999999N9999997N5-00225-00675101665ADDAA101000095MA1101525099005MD1390069+9999REMMET08901/06/21 15:54:02 METAR K1V4 062054Z      KT M02/M07 A2998 RMK AO1 SLP166 T10221067 53006EQDR01      7SKY009R02      7GAS009
0160726140547422021010621546+44420-072019FM-15+0212K1V4 V02099999999999999999N9999997N5-00285-00785101725ADDAA101000095MA1101595099065REMMET08701/06/21 16:54:02 METAR K1V4 062154Z      KT M03/M08 A3000 RMK AO1 SLP172 T10281078 RTXEQDR01      7SKY009R02      7GAS009
0160726140547422021010622546+44420-072019FM-15+0212K1V4 V02099999999999999999N9999997N5-00395-00835101815ADDAA101000095MA1101665099135REMMET08701/06/21 17:54:02 METAR K1V4 062254Z      KT M04/M08 A3002 RMK AO1 SLP181 T10391083 RTXEQDR01      7SKY009R02      7GAS009
0192726140547422021010623546+44420-072019FM-15+0212K1V4 V02099999999999999999N9999997N5-00445-00835101885ADDAA101000095MA1101735099205MD1390209+9999REMMET10501/06/21 18:54:02 METAR K1V4 062354Z      KT M04/M08 A3004 RMK AO1 SLP188 T10441083 11017 21044 53020 RTXEQDR01      7SKY009R02      7GAS009
0156726140547422021010700546+44420-072019FM-15+0212K1V4 V02099999999999999999N9999997N5-00395-00785101885ADDAA101000095MA1101735099205REMMET08301/06/21 19:54:01 METAR K1V4 070054Z      KT M04/M08 A3004 RMK AO1 SLP188 T10391078EQDR01      7SKY009R02      7GAS009
0156726140547422021010701546+44420-072019FM-15+0212K1V4 V02099999999999999999N9999997N5-00395-00785101895ADDAA101000095MA1101765099235REMMET08301/06/21 20:54:01 METAR K1V4 070154Z      KT M04/M08 A3005 RMK AO1 SLP189 T10391078EQDR01      7SKY009R02      7GAS009
0176726140547422021010702546+44420-072019FM-15+0212K1V4 V02099999999999999999N9999997N5-00395-00785101885ADDAA101000095MA1101735099205MD1890009+9999REMMET08901/06/21 21:54:01 METAR K1V4 070254Z      KT M04/M08 A3004 RMK AO1 SLP188 T10391078 58000EQDR01      7SKY009R02      7GAS009
0156726140547422021010703546+44420-072019FM-15+0212K1V4 V02099999999999999999N9999997N5-00395-00785101845ADDAA101000095MA1101695099165REMMET08301/06/21 22:54:01 METAR K1V4 070354Z      KT M04/M08 A3003 RMK AO1 SLP184 T10391078EQDR01      7SKY009R02      7GAS009
0166726140547422021010704546+44420-072019FM-15+0212K1V4 V02099999999999999999N9999997N5-00395-00785101845ADDAA101000095MA1101695099165REMMET09301/06/21 23:54:02 METAR K1V4 070454Z      KT M04/M08 A3003 RMK AO1 SLP184 T10391078 410171044EQDR01      7SKY009R02      7GAS009
0622726140547422021010704596+44420-072019SOD  +0212K1V4 V020999999999999999999999999999+99999+99999999999ADDAA124000596KA1240M-00165KA2240N-00435MG1098954101394OE11249999999999997OE22249999999999997REMSOD50124 HR PRECIPITATION (IN): 0.02 24 HR MAX TEMP (F): 2924 HR MIN TEMP (F): 24AVERAGE STATION PRESSURE:29.220 MINIMUM SEA LEVEL PRESSURE:29.94 TIME OF OCCURRENCE:0052 24 HR AVG TEMP (F): 27DEPART FROM NORMAL: 10  HEATING DEGREE DAYS: 38 COOLING DEGREE DAYS:  0 LATEST DAY MAX TEMP (0700-1900 LST):29  LATEST NIGHT MIN TEMP(1900-0800 LST):25 HOURLY INCREMENTAL PRECIPITATION VALUES (IN):.00 0.02 0.00 0.00 0.00 0.00 0.00 0.00 0.00 0.00 0.00 0.00 0.00 0.00 0.00 0.00 0.00 0.00 0.00 0.00 0.00 0.00 0.00 0.00EQDR01  0.027AAP092
0192726140547422021010705546+44420-072019FM-15+0212K1V4 V02099999999999999999N9999997N5-00395-00785101845ADDAA101000095MA1101695099165MD1590029+9999REMMET10501/07/21 00:54:02 METAR K1V4 070554Z      KT M04/M08 A3003 RMK AO1 SLP184 T10391078 11033 21044 55002 RTXEQDR01      7SKY009R02      7GAS009
0160726140547422021010706546+44420-072019FM-15+0212K1V4 V02099999999999999999N9999997N5-00395-00785101905ADDAA101000095MA1101765099235REMMET08701/07/21 01:54:02 METAR K1V4 070654Z      KT M04/M08 A3005 RMK AO1 SLP190 T10391078 RTXEQDR01      7SKY009R02      7GAS009
0160726140547422021010707546+44420-072019FM-15+0212K1V4 V02099999999999999999N9999997N5-00445-00835101935ADDAA101000095MA1101795099265REMMET08701/07/21 02:54:02 METAR K1V4 070754Z      KT M04/M08 A3006 RMK AO1 SLP193 T10441083 RTXEQDR01      7SKY009R02      7GAS009
0180726140547422021010708546+44420-072019FM-15+0212K1V4 V02099999999999999999N9999997N5-00505-00835101955ADDAA101000095MA1101835099305MD1190109+9999REMMET09301/07/21 03:54:02 METAR K1V4 070854Z      KT M05/M08 A3007 RMK AO1 SLP195 T10501083 51010 RTXEQDR01      7SKY009R02      7GAS009
0160726140547422021010709546+44420-072019FM-15+0212K1V4 V02099999999999999999N9999997N5-00505-00895102005ADDAA101000095MA1101865099335REMMET08701/07/21 04:54:02 METAR K1V4 070954Z      KT M05/M09 A3008 RMK AO1 SLP200 T10501089 RTXEQDR01      7SKY009R02      7GAS009
0160726140547422021010710546+44420-072019FM-15+0212K1V4 V02099999999999999999N9999997N5-00565-00945102075ADDAA101000095MA1101935099405REMMET08701/07/21 05:54:02 METAR K1V4 071054Z      KT M06/M09 A3010 RMK AO1 SLP207 T10561094 RTXEQDR01      7SKY009R02      7GAS009
0192726140547422021010711546+44420-072019FM-15+0212K1V4 V02099999999999999999N9999997N5-00565-00945102165ADDAA101000095MA1102005099465MD1390199+9999REMMET10501/07/21 06:54:02 METAR K1V4 071154Z      KT M06/M09 A3012 RMK AO1 SLP216 T10561094 11039 21056 53019 RTXEQDR01      7SKY009R02      7GAS009
0160726140547422021010712546+44420-072019FM-15+0212K1V4 V02099999999999999999N9999997N5-00565-00945102195ADDAA101000095MA1102035099505REMMET08701/07/21 07:54:02 METAR K1V4 071254Z      KT M06/M09 A3013 RMK AO1 SLP219 T10561094 RTXEQDR01      7SKY009R02      7GAS009
0160726140547422021010713546+44420-072019FM-15+0212K1V4 V02099999999999999999N9999997N5-00505-00895102225ADDAA101000095MA1102075099535REMMET08701/07/21 08:54:02 METAR K1V4 071354Z      KT M05/M09 A3014 RMK AO1 SLP222 T10501089 RTXEQDR01      7SKY009R02      7GAS009
0180726140547422021010714546+44420-072019FM-15+0212K1V4 V02099999999999999999N9999997N5-00445-00945102215ADDAA101000095MA1102075099535MD1090059+9999REMMET09301/07/21 09:54:02 METAR K1V4 071454Z      KT M04/M09 A3014 RMK AO1 SLP221 T10441094 50005 RTXEQDR01      7SKY009R02      7GAS009
0160726140547422021010715546+44420-072019FM-15+0212K1V4 V02099999999999999999N9999997N5-00395-00895102145ADDAA101000095MA1102005099465REMMET08701/07/21 10:54:02 METAR K1V4 071554Z      KT M04/M09 A3012 RMK AO1 SLP214 T10391089 RTXEQDR01      7SKY009R02      7GAS009
0160726140547422021010716546+44420-072019FM-15+0212K1V4 V02099999999999999999N9999997N5-00395-00895102085ADDAA101000095MA1101935099405REMMET08701/07/21 11:54:02 METAR K1V4 071654Z      KT M04/M09 A3010 RMK AO1 SLP208 T10391089 RTXEQDR01      7SKY009R02      7GAS009
0192726140547422021010717546+44420-072019FM-15+0212K1V4 V02099999999999999999N9999997N5-00445-00895102065ADDAA101000095MA1101905099365MD1690159+9999REMMET10501/07/21 12:54:02 METAR K1V4 071754Z      KT M04/M09 A3009 RMK AO1 SLP206 T10441089 11039 21056 56015 RTXEQDR01      7SKY009R02      7GAS009
0160726140547422021010718546+44420-072019FM-15+0212K1V4 V02099999999999999999N9999997N5-00395-00835102035ADDAA101000095MA1101905099365REMMET08701/07/21 13:54:02 METAR K1V4 071854Z      KT M04/M08 A3009 RMK AO1 SLP203 T10391083 RTXEQDR01      7SKY009R02      7GAS009
0160726140547422021010719546+44420-072019FM-15+0212K1V4 V02099999999999999999N9999997N5-00395-00835102055ADDAA101000095MA1101905099365REMMET08701/07/21 14:54:02 METAR K1V4 071954Z      KT M04/M08 A3009 RMK AO1 SLP205 T10391083 RTXEQDR01      7SKY009R02      7GAS009
0180726140547422021010720546+44420-072019FM-15+0212K1V4 V02099999999999999999N9999997N5-00395-00895102095ADDAA101000095MA1101935099405MD1390039+9999REMMET09301/07/21 15:54:02 METAR K1V4 072054Z      KT M04/M09 A3010 RMK AO1 SLP209 T10391089 53003 RTXEQDR01      7SKY009R02      7GAS009
0160726140547422021010721546+44420-072019FM-15+0212K1V4 V02099999999999999999N9999997N5-00445-00895102165ADDAA101000095MA1102005099465REMMET08701/07/21 16:54:02 METAR K1V4 072154Z      KT M04/M09 A3012 RMK AO1 SLP216 T10441089 RTXEQDR01      7SKY009R02      7GAS009
0156726140547422021010722546+44420-072019FM-15+0212K1V4 V02099999999999999999N9999997N5-00445-00895102215ADDAA101000095MA1102075099535REMMET08301/07/21 17:54:02 METAR K1V4 072254Z      KT M04/M09 A3014 RMK AO1 SLP221 T10441089EQDR01      7SKY009R02      7GAS009
0192726140547422021010723546+44420-072019FM-15+0212K1V4 V02099999999999999999N9999997N5-00445-00835102225ADDAA101000095MA1102075099535MD1190129+9999REMMET10501/07/21 18:54:02 METAR K1V4 072354Z      KT M04/M08 A3014 RMK AO1 SLP222 T10441083 11039 21044 51012 RTXEQDR01      7SKY009R02      7GAS009
0156726140547422021010800546+44420-072019FM-15+0212K1V4 V02099999999999999999N9999997N5-00445-00835102195ADDAA101000095MA1102035099505REMMET08301/07/21 19:54:01 METAR K1V4 080054Z      KT M04/M08 A3013 RMK AO1 SLP219 T10441083EQDR01      7SKY009R02      7GAS009
0156726140547422021010801546+44420-072019FM-15+0212K1V4 V02099999999999999999N9999997N5-00395-00785102135ADDAA101000095MA1102005099465REMMET08301/07/21 20:54:01 METAR K1V4 080154Z      KT M04/M08 A3012 RMK AO1 SLP213 T10391078EQDR01      7SKY009R02      7GAS009
0176726140547422021010802546+44420-072019FM-15+0212K1V4 V02099999999999999999N9999997N5-00395-00785102095ADDAA101000095MA1101965099435MD1790119+9999REMMET08901/07/21 21:54:01 METAR K1V4 080254Z      KT M04/M08 A3011 RMK AO1 SLP209 T10391078 57011EQDR01      7SKY009R02      7GAS009
0156726140547422021010803546+44420-072019FM-15+0212K1V4 V02099999999999999999N9999997N5-00445-00785102085ADDAA101000095MA1101935099405REMMET08301/07/21 22:54:01 METAR K1V4 080354Z      KT M04/M08 A3010 RMK AO1 SLP208 T10441078EQDR01      7SKY009R02      7GAS009
0166726140547422021010804546+44420-072019FM-15+0212K1V4 V02099999999999999999N9999997N5-00445-00835102055ADDAA101000095MA1101905099365REMMET09301/07/21 23:54:02 METAR K1V4 080454Z      KT M04/M08 A3009 RMK AO1 SLP205 T10441083 410331056EQDR01      7SKY009R02      7GAS009
0603726140547422021010804596+44420-072019SOD  +0212K1V4 V020999999999999999999999999999+99999+99999999999ADDAA124000095KA1240M-00325KA2240N-00555MG1099374101834OE11249999999999997OE22249999999999997REMSOD50124 HR PRECIPITATION (IN): 0.00 24 HR MAX TEMP (F): 2624 HR MIN TEMP (F): 22AVERAGE STATION PRESSURE:29.345 MINIMUM SEA LEVEL PRESSURE:30.07 TIME OF OCCURRENCE:0055 24 HR AVG TEMP (F): 24DEPART FROM NORMAL:  7  HEATING DEGREE DAYS: 41 COOLING DEGREE DAYS:  0 LATEST DAY MAX TEMP (0700-1900 LST):25  LATEST NIGHT MIN TEMP(1900-0800 LST):22 HOURLY INCREMENTAL PRECIPITATION VALUES (IN):.00 0.00 0.00 0.00 0.00 0.00 0.00 0.00 0.00 0.00 0.00 0.00 0.00 0.00 0.00 0.00 0.00 0.00 0.00 0.00 0.00 0.00 0.00 0.00
0192726140547422021010805546+44420-072019FM-15+0212K1V4 V02099999999999999999N9999997N5-00505-00895102045ADDAA101000095MA1101905099365MD1690059+9999REMMET10501/08/21 00:54:02 METAR K1V4 080554Z      KT M05/M09 A3009 RMK AO1 SLP204 T10501089 11039 21050 56005 RTXEQDR01      7SKY009R02      7GAS009
0160726140547422021010806546+44420-072019FM-15+0212K1V4 V02099999999999999999N9999997N5-00505-00895102025ADDAA101000095MA1101865099335REMMET08701/08/21 01:54:02 METAR K1V4 080654Z      KT M05/M09 A3008 RMK AO1 SLP202 T10501089 RTXEQDR01      7SKY009R02      7GAS009
0160726140547422021010807546+44420-072019FM-15+0212K1V4 V02099999999999999999N9999997N5-00565-00895101995ADDAA101000095MA1101835099305REMMET08701/08/21 02:54:02 METAR K1V4 080754Z      KT M06/M09 A3007 RMK AO1 SLP199 T10561089 RTXEQDR01      7SKY009R02      7GAS009
0180726140547422021010808546+44420-072019FM-15+0212K1V4 V02099999999999999999N9999997N5-00565-00945101955ADDAA101000095MA1101795099265MD1890099+9999REMMET09301/08/21 03:54:02 METAR K1V4 080854Z      KT M06/M09 A3006 RMK AO1 SLP195 T10561094 58009 RTXEQDR01      7SKY009R02      7GAS009
0160726140547422021010809546+44420-072019FM-15+0212K1V4 V02099999999999999999N9999997N5-00615-00945101945ADDAA101000095MA1101795099265REMMET08701/08/21 04:54:02 METAR K1V4 080954Z      KT M06/M09 A3006 RMK AO1 SLP194 T10611094 RTXEQDR01      7SKY009R02      7GAS009
0160726140547422021010810546+44420-072019FM-15+0212K1V4 V02099999999999999999N9999997N5-00615-01005101925ADDAA101000095MA1101765099235REMMET08701/08/21 05:54:02 METAR K1V4 081054Z      KT M06/M10 A3005 RMK AO1 SLP192 T10611100 RTXEQDR01      7SKY009R02      7GAS009
0192726140547422021010811546+44420-072019FM-15+0212K1V4 V02099999999999999999N9999997N5-00615-01005101915ADDAA101000095MA1101765099235MD1690049+9999REMMET10501/08/21 06:54:02 METAR K1V4 081154Z      KT M06/M10 A3005 RMK AO1 SLP191 T10611100 11050 21061 56004 RTXEQDR01      7SKY009R02      7GAS009
0160726140547422021010812546+44420-072019FM-15+0212K1V4 V02099999999999999999N9999997N5-00675-01065101925ADDAA101000095MA1101765099235REMMET08701/08/21 07:54:02 METAR K1V4 081254Z      KT M07/M11 A3005 RMK AO1 SLP192 T10671106 RTXEQDR01      7SKY009R02      7GAS009
0160726140547422021010813546+44420-072019FM-15+0212K1V4 V02099999999999999999N9999997N5-00675-01065101915ADDAA101000095MA1101765099235REMMET08701/08/21 08:54:02 METAR K1V4 081354Z      KT M07/M11 A3005 RMK AO1 SLP191 T10671106 RTXEQDR01      7SKY009R02      7GAS009
0180726140547422021010814546+44420-072019FM-15+0212K1V4 V02099999999999999999N9999997N5-00615-01065101895ADDAA101000095MA1101735099205MD1890029+9999REMMET09301/08/21 09:54:02 METAR K1V4 081454Z      KT M06/M11 A3004 RMK AO1 SLP189 T10611106 58002 RTXEQDR01      7SKY009R02      7GAS009
0160726140547422021010815546+44420-072019FM-15+0212K1V4 V02099999999999999999N9999997N5-00565-01065101795ADDAA101000095MA1101635099105REMMET08701/08/21 10:54:02 METAR K1V4 081554Z      KT M06/M11 A3001 RMK AO1 SLP179 T10561106 RTXEQDR01      7SKY009R02      7GAS009
0160726140547422021010816546+44420-072019FM-15+0212K1V4 V02099999999999999999N9999997N5-00505-01065101635ADDAA101000095MA1101495098965REMMET08701/08/21 11:54:02 METAR K1V4 081654Z      KT M05/M11 A2997 RMK AO1 SLP163 T10501106 RTXEQDR01      7SKY009R02      7GAS009
0192726140547422021010817546+44420-072019FM-15+0212K1V4 V02099999999999999999N9999997N5-00285-01065101525ADDAA101000095MA1101395098865MD1890359+9999REMMET10501/08/21 12:54:02 METAR K1V4 081754Z      KT M03/M11 A2994 RMK AO1 SLP152 T10281106 11028 21067 58035 RTXEQDR01      7SKY009R02      7GAS009
0156726140547422021010818546+44420-072019FM-15+0212K1V4 V02099999999999999999N9999997N5-00285-01065101475ADDAA101000095MA1101325098805REMMET08301/08/21 13:54:02 METAR K1V4 081854Z      KT M03/M11 A2992 RMK AO1 SLP147 T10281106EQDR01      7SKY009R02      7GAS009
0160726140547422021010819546+44420-072019FM-15+0212K1V4 V02099999999999999999N9999997N5-00285-01115101475ADDAA101000095MA1101325098805REMMET08701/08/21 14:54:02 METAR K1V4 081954Z      KT M03/M11 A2992 RMK AO1 SLP147 T10281111 RTXEQDR01      7SKY009R02      7GAS009
0180726140547422021010820546+44420-072019FM-15+0212K1V4 V02099999999999999999N9999997N5-00445-01115101495ADDAA101000095MA1101355098835MD1590049+9999REMMET09301/08/21 15:54:02 METAR K1V4 082054Z      KT M04/M11 A2993 RMK AO1 SLP149 T10441111 55004 RTXEQDR01      7SKY009R02      7GAS009
0160726140547422021010821546+44420-072019FM-15+0212K1V4 V02099999999999999999N9999997N5-00615-01175101535ADDAA101000095MA1101355098835REMMET08701/08/21 16:54:02 METAR K1V4 082154Z      KT M06/M12 A2993 RMK AO1 SLP153 T10611117 RTXEQDR01      7SKY009R02      7GAS009
0156726140547422021010822546+44420-072019FM-15+0212K1V4 V02099999999999999999N9999997N5-00725-01225101575ADDAA101000095MA1101395098865REMMET08301/08/21 17:54:02 METAR K1V4 082254Z      KT M07/M12 A2994 RMK AO1 SLP157 T10721122EQDR01      7SKY009R02      7GAS009
0192726140547422021010823546+44420-072019FM-15+0212K1V4 V02099999999999999999N9999997N5-00835-01225101605ADDAA101000095MA1101425098905MD1390089+9999REMMET10501/08/21 18:54:02 METAR K1V4 082354Z      KT M08/M12 A2995 RMK AO1 SLP160 T10831122 11022 21083 53008 RTXEQDR01      7SKY009R02      7GAS009
0156726140547422021010900546+44420-072019FM-15+0212K1V4 V02099999999999999999N9999997N5-00945-01225101585ADDAA101000095MA1101395098865REMMET08301/08/21 19:54:01 METAR K1V4 090054Z      KT M09/M12 A2994 RMK AO1 SLP158 T10941122EQDR01      7SKY009R02      7GAS009
0156726140547422021010901546+44420-072019FM-15+0212K1V4 V02099999999999999999N9999997N5-01065-01335101585ADDAA101000095MA1101395098865REMMET08301/08/21 20:54:01 METAR K1V4 090154Z      KT M11/M13 A2994 RMK AO1 SLP158 T11061133EQDR01      7SKY009R02      7GAS009
0176726140547422021010902546+44420-072019FM-15+0212K1V4 V02099999999999999999N9999997N5-01115-01335101585ADDAA101000095MA1101395098865MD1690049+9999REMMET08901/08/21 21:54:01 METAR K1V4 090254Z      KT M11/M13 A2994 RMK AO1 SLP158 T11111133 56004EQDR01      7SKY009R02      7GAS009
0156726140547422021010903546+44420-072019FM-15+0212K1V4 V02099999999999999999N9999997N5-01115-01335101535ADDAA101000095MA1101355098835REMMET08301/08/21 22:54:01 METAR K1V4 090354Z      KT M11/M13 A2993 RMK AO1 SLP153 T11111133EQDR01      7SKY009R02      7GAS009
0166726140547422021010904546+44420-072019FM-15+0212K1V4 V02099999999999999999N9999997N5-01115-01335101475ADDAA101000095MA1101295098775REMMET09301/08/21 23:54:02 METAR K1V4 090454Z      KT M11/M13 A2991 RMK AO1 SLP147 T11111133 410221117EQDR01      7SKY009R02      7GAS009
0603726140547422021010904596+44420-072019SOD  +0212K1V4 V020999999999999999999999999999+99999+99999999999ADDAA124000095KA1240M-00215KA2240N-01165MG1099074101464OE11249999999999997OE22249999999999997REMSOD50124 HR PRECIPITATION (IN): 0.00 24 HR MAX TEMP (F): 2824 HR MIN TEMP (F): 11AVERAGE STATION PRESSURE:29.255 MINIMUM SEA LEVEL PRESSURE:29.96 TIME OF OCCURRENCE:2359 24 HR AVG TEMP (F): 20DEPART FROM NORMAL:  3  HEATING DEGREE DAYS: 45 COOLING DEGREE DAYS:  0 LATEST DAY MAX TEMP (0700-1900 LST):28  LATEST NIGHT MIN TEMP(1900-0800 LST):20 HOURLY INCREMENTAL PRECIPITATION VALUES (IN):.00 0.00 0.00 0.00 0.00 0.00 0.00 0.00 0.00 0.00 0.00 0.00 0.00 0.00 0.00 0.00 0.00 0.00 0.00 0.00 0.00 0.00 0.00 0.00
0192726140547422021010905546+44420-072019FM-15+0212K1V4 V02099999999999999999N9999997N5-01115-01335101425ADDAA101000095MA1101255098735MD1690149+9999REMMET10501/09/21 00:54:02 METAR K1V4 090554Z      KT M11/M13 A2990 RMK AO1 SLP142 T11111133 11083 21117 56014 RTXEQDR01      7SKY009R02      7GAS009
0156726140547422021010906546+44420-072019FM-15+0212K1V4 V02099999999999999999N9999997N5-01065-01285101435ADDAA101000095MA1101255098735REMMET08301/09/21 01:54:02 METAR K1V4 090654Z      KT M11/M13 A2990 RMK AO1 SLP143 T11061128EQDR01      7SKY009R02      7GAS009
0156726140547422021010907546+44420-072019FM-15+0212K1V4 V02099999999999999999N9999997N5-01065-01285101415ADDAA101000095MA1101255098735REMMET08301/09/21 02:54:02 METAR K1V4 090754Z      KT M11/M13 A2990 RMK AO1 SLP141 T11061128EQDR01      7SKY009R02      7GAS009
0180726140547422021010908546+44420-072019FM-15+0212K1V4 V02099999999999999999N9999997N5-01005-01285101385ADDAA101000095MA1101225098705MD1890049+9999REMMET09301/09/21 03:54:02 METAR K1V4 090854Z      KT M10/M13 A2989 RMK AO1 SLP138 T11001128 58004 RTXEQDR01      7SKY009R02      7GAS009
0160726140547422021010909546+44420-072019FM-15+0212K1V4 V02099999999999999999N9999997N5-00945-01225101375ADDAA101000095MA1101195098675REMMET08701/09/21 04:54:02 METAR K1V4 090954Z      KT M09/M12 A2988 RMK AO1 SLP137 T10941122 RTXEQDR01      7SKY009R02      7GAS009
0160726140547422021010910546+44420-072019FM-15+0212K1V4 V02099999999999999999N9999997N5-00895-01225101405ADDAA101000095MA1101225098705REMMET08701/09/21 05:54:02 METAR K1V4 091054Z      KT M09/M12 A2989 RMK AO1 SLP140 T10891122 RTXEQDR01      7SKY009R02      7GAS009
0192726140547422021010911546+44420-072019FM-15+0212K1V4 V02099999999999999999N9999997N5-00785-01225101455ADDAA101000095MA1101255098735MD1390059+9999REMMET10501/09/21 06:54:02 METAR K1V4 091154Z      KT M08/M12 A2990 RMK AO1 SLP145 T10781122 11078 21111 53005 RTXEQDR01      7SKY009R02      7GAS009
0160726140547422021010912546+44420-072019FM-15+0212K1V4 V02099999999999999999N9999997N5-00725-01225101515ADDAA101000095MA1101325098805REMMET08701/09/21 07:54:02 METAR K1V4 091254Z      KT M07/M12 A2992 RMK AO1 SLP151 T10721122 RTXEQDR01      7SKY009R02      7GAS009
0160726140547422021010913546+44420-072019FM-15+0212K1V4 V02099999999999999999N9999997N5-00675-01225101555ADDAA101000095MA1101355098835REMMET08701/09/21 08:54:02 METAR K1V4 091354Z      KT M07/M12 A2993 RMK AO1 SLP155 T10671122 RTXEQDR01      7SKY009R02      7GAS009
0180726140547422021010914546+44420-072019FM-15+0212K1V4 V02099999999999999999N9999997N5-00615-01225101575ADDAA101000095MA1101395098865MD1190119+9999REMMET09301/09/21 09:54:02 METAR K1V4 091454Z      KT M06/M12 A2994 RMK AO1 SLP157 T10611122 51011 RTXEQDR01      7SKY009R02      7GAS009
0160726140547422021010915546+44420-072019FM-15+0212K1V4 V02099999999999999999N9999997N5-00445-01175101495ADDAA101000095MA1101325098805REMMET08701/09/21 10:54:02 METAR K1V4 091554Z      KT M04/M12 A2992 RMK AO1 SLP149 T10441117 RTXEQDR01      7SKY009R02      7GAS009
0160726140547422021010916546+44420-072019FM-15+0212K1V4 V02099999999999999999N9999997N5-00445-01115101385ADDAA101000095MA1101195098675REMMET08701/09/21 11:54:02 METAR K1V4 091654Z      KT M04/M11 A2988 RMK AO1 SLP138 T10441111 RTXEQDR01      7SKY009R02      7GAS009
0192726140547422021010917546+44420-072019FM-15+0212K1V4 V02099999999999999999N9999997N5-00335-01115101315ADDAA101000095MA1101155098635MD1690239+9999REMMET10501/09/21 12:54:02 METAR K1V4 091754Z      KT M03/M11 A2987 RMK AO1 SLP131 T10331111 11028 21078 56023 RTXEQDR01      7SKY009R02      7GAS009
0160726140547422021010918546+44420-072019FM-15+0212K1V4 V02099999999999999999N9999997N5-00225-01005101305ADDAA101000095MA1101155098635REMMET08701/09/21 13:54:02 METAR K1V4 091854Z      KT M02/M10 A2987 RMK AO1 SLP130 T10221100 RTXEQDR01      7SKY009R02      7GAS009
0160726140547422021010919546+44420-072019FM-15+0212K1V4 V02099999999999999999N9999997N5-00225-01005101355ADDAA101000095MA1101195098675REMMET08701/09/21 14:54:02 METAR K1V4 091954Z      KT M02/M10 A2988 RMK AO1 SLP135 T10221100 RTXEQDR01      7SKY009R02      7GAS009
0180726140547422021010920546+44420-072019FM-15+0212K1V4 V02099999999999999999N9999997N5-00285-01065101425ADDAA101000095MA1101255098735MD1390129+9999REMMET09301/09/21 15:54:02 METAR K1V4 092054Z      KT M03/M11 A2990 RMK AO1 SLP142 T10281106 53012 RTXEQDR01      7SKY009R02      7GAS009
0160726140547422021010921546+44420-072019FM-15+0212K1V4 V02099999999999999999N9999997N5-00395-01175101515ADDAA101000095MA1101355098835REMMET08701/09/21 16:54:02 METAR K1V4 092154Z      KT M04/M12 A2993 RMK AO1 SLP151 T10391117 RTXEQDR01      7SKY009R02      7GAS009
0160726140547422021010922546+44420-072019FM-15+0212K1V4 V02099999999999999999N9999997N5-00445-01335101585ADDAA101000095MA1101425098905REMMET08701/09/21 17:54:02 METAR K1V4 092254Z      KT M04/M13 A2995 RMK AO1 SLP158 T10441133 RTXEQDR01      7SKY009R02      7GAS009
0192726140547422021010923546+44420-072019FM-15+0212K1V4 V02099999999999999999N9999997N5-00565-01335101655ADDAA101000095MA1101495098965MD1190229+9999REMMET10501/09/21 18:54:02 METAR K1V4 092354Z      KT M06/M13 A2997 RMK AO1 SLP165 T10561133 11017 21056 51022 RTXEQDR01      7SKY009R02      7GAS009
0156726140547422021011000546+44420-072019FM-15+0212K1V4 V02099999999999999999N9999997N5-00675-01335101705ADDAA101000095MA1101525099005REMMET08301/09/21 19:54:01 METAR K1V4 100054Z      KT M07/M13 A2998 RMK AO1 SLP170 T10671133EQDR01      7SKY009R02      7GAS009
0156726140547422021011001546+44420-072019FM-15+0212K1V4 V02099999999999999999N9999997N5-00785-01285101735ADDAA101000095MA1101565099035REMMET08301/09/21 20:54:01 METAR K1V4 100154Z      KT M08/M13 A2999 RMK AO1 SLP173 T10781128EQDR01      7SKY009R02      7GAS009
0176726140547422021011002546+44420-072019FM-15+0212K1V4 V02099999999999999999N9999997N5-00835-01285101775ADDAA101000095MA1101595099065MD1190119+9999REMMET08901/09/21 21:54:01 METAR K1V4 100254Z      KT M08/M13 A3000 RMK AO1 SLP177 T10831128 51011EQDR01      7SKY009R02      7GAS009
0156726140547422021011003546+44420-072019FM-15+0212K1V4 V02099999999999999999N9999997N5-00725-01225101795ADDAA101000095MA1101635099105REMMET08301/09/21 22:54:01 METAR K1V4 100354Z      KT M07/M12 A3001 RMK AO1 SLP179 T10721122EQDR01      7SKY009R02      7GAS009
0166726140547422021011004546+44420-072019FM-15+0212K1V4 V02099999999999999999N9999997N5-00565-00945101795ADDAA101000095MA1101635099105REMMET09301/09/21 23:54:02 METAR K1V4 100454Z      KT M06/M09 A3001 RMK AO1 SLP179 T10561094 410171111EQDR01      7SKY009R02      7GAS009
0603726140547422021011004596+44420-072019SOD  +0212K1V4 V020999999999999999999999999999+99999+99999999999ADDAA124000095KA1240M-00165KA2240N-01105MG1098754101294OE11249999999999997OE22249999999999997REMSOD50124 HR PRECIPITATION (IN): 0.00 24 HR MAX TEMP (F): 2924 HR MIN TEMP (F): 12AVERAGE STATION PRESSURE:29.160 MINIMUM SEA LEVEL PRESSURE:29.91 TIME OF OCCURRENCE:1420 24 HR AVG TEMP (F): 21DEPART FROM NORMAL:  4  HEATING DEGREE DAYS: 44 COOLING DEGREE DAYS:  0 LATEST DAY MAX TEMP (0700-1900 LST):29  LATEST NIGHT MIN TEMP(1900-0800 LST):11 HOURLY INCREMENTAL PRECIPITATION VALUES (IN):.00 0.00 0.00 0.00 0.00 0.00 0.00 0.00 0.00 0.00 0.00 0.00 0.00 0.00 0.00 0.00 0.00 0.00 0.00 0.00 0.00 0.00 0.00 0.00
0192726140547422021011005546+44420-072019FM-15+0212K1V4 V02099999999999999999N9999997N5-00445-00835101825ADDAA101000095MA1101665099135MD1390079+9999REMMET10501/10/21 00:54:02 METAR K1V4 100554Z      KT M04/M08 A3002 RMK AO1 SLP182 T10441083 11044 21089 53007 RTXEQDR01      7SKY009R02      7GAS009
0160726140547422021011006546+44420-072019FM-15+0212K1V4 V02099999999999999999N9999997N5-00445-00785101875ADDAA101000095MA1101735099205REMMET08701/10/21 01:54:02 METAR K1V4 100654Z      KT M04/M08 A3004 RMK AO1 SLP187 T10441078 RTXEQDR01      7SKY009R02      7GAS009
0160726140547422021011007546+44420-072019FM-15+0212K1V4 V02099999999999999999N9999997N5-00445-00835101935ADDAA101000095MA1101795099265REMMET08701/10/21 02:54:02 METAR K1V4 100754Z      KT M04/M08 A3006 RMK AO1 SLP193 T10441083 RTXEQDR01      7SKY009R02      7GAS009
0180726140547422021011008546+44420-072019FM-15+0212K1V4 V02099999999999999999N9999997N5-00445-00835101985ADDAA101000095MA1101835099305MD1190179+9999REMMET09301/10/21 03:54:02 METAR K1V4 100854Z      KT M04/M08 A3007 RMK AO1 SLP198 T10441083 51017 RTXEQDR01      7SKY009R02      7GAS009
0160726140547422021011009546+44420-072019FM-15+0212K1V4 V02099999999999999999N9999997N5-00445-00835102045ADDAA101000095MA1101905099365REMMET08701/10/21 04:54:02 METAR K1V4 100954Z      KT M04/M08 A3009 RMK AO1 SLP204 T10441083 RTXEQDR01      7SKY009R02      7GAS009
0160726140547422021011010546+44420-072019FM-15+0212K1V4 V02099999999999999999N9999997N5-00445-00835102115ADDAA101000095MA1101965099435REMMET08701/10/21 05:54:02 METAR K1V4 101054Z      KT M04/M08 A3011 RMK AO1 SLP211 T10441083 RTXEQDR01      7SKY009R02      7GAS009
0192726140547422021011011546+44420-072019FM-15+0212K1V4 V02099999999999999999N9999997N5-00445-00835102205ADDAA101000095MA1102035099505MD1390209+9999REMMET10501/10/21 06:54:02 METAR K1V4 101154Z      KT M04/M08 A3013 RMK AO1 SLP220 T10441083 11044 21044 53020 RTXEQDR01      7SKY009R02      7GAS009
0160726140547422021011012546+44420-072019FM-15+0212K1V4 V02099999999999999999N9999997N5-00445-00835102275ADDAA101000095MA1102105099565REMMET08701/10/21 07:54:02 METAR K1V4 101254Z      KT M04/M08 A3015 RMK AO1 SLP227 T10441083 RTXEQDR01      7SKY009R02      7GAS009
0160726140547422021011013546+44420-072019FM-15+0212K1V4 V02099999999999999999N9999997N5-00445-00835102355ADDAA101000095MA1102175099635REMMET08701/10/21 08:54:02 METAR K1V4 101354Z      KT M04/M08 A3017 RMK AO1 SLP235 T10441083 RTXEQDR01      7SKY009R02      7GAS009
0180726140547422021011014546+44420-072019FM-15+0212K1V4 V02099999999999999999N9999997N5-00445-00895102435ADDAA101000095MA1102275099735MD1390229+9999REMMET09301/10/21 09:54:02 METAR K1V4 101454Z      KT M04/M09 A3020 RMK AO1 SLP243 T10441089 53022 RTXEQDR01      7SKY009R02      7GAS009
0160726140547422021011015546+44420-072019FM-15+0212K1V4 V02099999999999999999N9999997N5-00445-00895102435ADDAA101000095MA1102275099735REMMET08701/10/21 10:54:02 METAR K1V4 101554Z      KT M04/M09 A3020 RMK AO1 SLP243 T10441089 RTXEQDR01      7SKY009R02      7GAS009
0160726140547422021011016546+44420-072019FM-15+0212K1V4 V02099999999999999999N9999997N5-00395-00895102395ADDAA101000095MA1102245099695REMMET08701/10/21 11:54:02 METAR K1V4 101654Z      KT M04/M09 A3019 RMK AO1 SLP239 T10391089 RTXEQDR01      7SKY009R02      7GAS009
0192726140547422021011017546+44420-072019FM-15+0212K1V4 V02099999999999999999N9999997N5-00335-00895102385ADDAA101000095MA1102245099695MD1890029+9999REMMET10501/10/21 12:54:02 METAR K1V4 101754Z      KT M03/M09 A3019 RMK AO1 SLP238 T10331089 11033 21044 58002 RTXEQDR01      7SKY009R02      7GAS009
0160726140547422021011018546+44420-072019FM-15+0212K1V4 V02099999999999999999N9999997N5-00285-00895102395ADDAA101000095MA1102275099735REMMET08701/10/21 13:54:02 METAR K1V4 101854Z      KT M03/M09 A3020 RMK AO1 SLP239 T10281089 RTXEQDR01      7SKY009R02      7GAS009
0160726140547422021011019546+44420-072019FM-15+0212K1V4 V02099999999999999999N9999997N5-00175-00895102395ADDAA101000095MA1102275099735REMMET08701/10/21 14:54:02 METAR K1V4 101954Z      KT M02/M09 A3020 RMK AO1 SLP239 T10171089 RTXEQDR01      7SKY009R02      7GAS009
0180726140547422021011020546+44420-072019FM-15+0212K1V4 V02099999999999999999N9999997N5-00285-00895102405ADDAA101000095MA1102275099735MD1190029+9999REMMET09301/10/21 15:54:02 METAR K1V4 102054Z      KT M03/M09 A3020 RMK AO1 SLP240 T10281089 51002 RTXEQDR01      7SKY009R02      7GAS009
0160726140547422021011021546+44420-072019FM-15+0212K1V4 V02099999999999999999N9999997N5-00505-00945102425ADDAA101000095MA1102275099735REMMET08701/10/21 16:54:02 METAR K1V4 102154Z      KT M05/M09 A3020 RMK AO1 SLP242 T10501094 RTXEQDR01      7SKY009R02      7GAS009
0160726140547422021011022546+44420-072019FM-15+0212K1V4 V02099999999999999999N9999997N5-00675-01005102475ADDAA101000095MA1102305099765REMMET08701/10/21 17:54:02 METAR K1V4 102254Z      KT M07/M10 A3021 RMK AO1 SLP247 T10671100 RTXEQDR01      7SKY009R02      7GAS009
0192726140547422021011023546+44420-072019FM-15+0212K1V4 V02099999999999999999N9999997N5-00785-01065102575ADDAA101000095MA1102405099865MD1390149+9999REMMET10501/10/21 18:54:02 METAR K1V4 102354Z      KT M08/M11 A3024 RMK AO1 SLP257 T10781106 11017 21078 53014 RTXEQDR01      7SKY009R02      7GAS009
0156726140547422021011100546+44420-072019FM-15+0212K1V4 V02099999999999999999N9999997N5-00895-01175102645ADDAA101000095MA1102475099935REMMET08301/10/21 19:54:01 METAR K1V4 110054Z      KT M09/M12 A3026 RMK AO1 SLP264 T10891117EQDR01      7SKY009R02      7GAS009
0156726140547422021011101546+44420-072019FM-15+0212K1V4 V02099999999999999999N9999997N5-01065-01225102635ADDAA101000095MA1102445099895REMMET08301/10/21 20:54:01 METAR K1V4 110154Z      KT M11/M12 A3025 RMK AO1 SLP263 T11061122EQDR01      7SKY009R02      7GAS009
0176726140547422021011102546+44420-072019FM-15+0212K1V4 V02099999999999999999N9999997N5-01115-01335102675ADDAA101000095MA1102475099935MD1190089+9999REMMET08901/10/21 21:54:01 METAR K1V4 110254Z      KT M11/M13 A3026 RMK AO1 SLP267 T11111133 51008EQDR01      7SKY009R02      7GAS009
0156726140547422021011103546+44420-072019FM-15+0212K1V4 V02099999999999999999N9999997N5-01175-01395102705ADDAA101000095MA1102515099965REMMET08301/10/21 22:54:01 METAR K1V4 110354Z      KT M12/M14 A3027 RMK AO1 SLP270 T11171139EQDR01      7SKY009R02      7GAS009
0166726140547422021011104546+44420-072019FM-15+0212K1V4 V02099999999999999999N9999997N5-01225-01395102685ADDAA101000095MA1102475099935REMMET09301/10/21 23:54:02 METAR K1V4 110454Z      KT M12/M14 A3026 RMK AO1 SLP268 T11221139 410171122EQDR01      7SKY009R02      7GAS009
0603726140547422021011104596+44420-072019SOD  +0212K1V4 V020999999999999999999999999999+99999+99999999999ADDAA124000095KA1240M-00165KA2240N-01215MG1099534101794OE11249999999999997OE22249999999999997REMSOD50124 HR PRECIPITATION (IN): 0.00 24 HR MAX TEMP (F): 2924 HR MIN TEMP (F): 10AVERAGE STATION PRESSURE:29.390 MINIMUM SEA LEVEL PRESSURE:30.06 TIME OF OCCURRENCE:0100 24 HR AVG TEMP (F): 20DEPART FROM NORMAL:  3  HEATING DEGREE DAYS: 45 COOLING DEGREE DAYS:  0 LATEST DAY MAX TEMP (0700-1900 LST):29  LATEST NIGHT MIN TEMP(1900-0800 LST):16 HOURLY INCREMENTAL PRECIPITATION VALUES (IN):.00 0.00 0.00 0.00 0.00 0.00 0.00 0.00 0.00 0.00 0.00 0.00 0.00 0.00 0.00 0.00 0.00 0.00 0.00 0.00 0.00 0.00 0.00 0.00
0192726140547422021011105546+44420-072019FM-15+0212K1V4 V02099999999999999999N9999997N5-01285-01505102705ADDAA101000095MA1102515099965MD1190039+9999REMMET10501/11/21 00:54:02 METAR K1V4 110554Z      KT M13/M15 A3027 RMK AO1 SLP270 T11281150 11078 21128 51003 RTXEQDR01      7SKY009R02      7GAS009
0160726140547422021011106546+44420-072019FM-15+0212K1V4 V02099999999999999999N9999997N5-01335-01565102715ADDAA101000095MA1102515099965REMMET08701/11/21 01:54:02 METAR K1V4 110654Z      KT M13/M16 A3027 RMK AO1 SLP271 T11331156 RTXEQDR01      7SKY009R02      7GAS009
0160726140547422021011107546+44420-072019FM-15+0212K1V4 V02099999999999999999N9999997N5-01395-01565102745ADDAA101000095MA1102545099995REMMET08701/11/21 02:54:02 METAR K1V4 110754Z      KT M14/M16 A3028 RMK AO1 SLP274 T11391156 RTXEQDR01      7SKY009R02      7GAS009
0180726140547422021011108546+44420-072019FM-15+0212K1V4 V02099999999999999999N9999997N5-01445-01675102765ADDAA101000095MA1102575100035MD1290059+9999REMMET09301/11/21 03:54:02 METAR K1V4 110854Z      KT M14/M17 A3029 RMK AO1 SLP276 T11441167 52005 RTXEQDR01      7SKY009R02      7GAS009
0160726140547422021011109546+44420-072019FM-15+0212K1V4 V02099999999999999999N9999997N5-01505-01725102785ADDAA101000095MA1102575100035REMMET08701/11/21 04:54:02 METAR K1V4 110954Z      KT M15/M17 A3029 RMK AO1 SLP278 T11501172 RTXEQDR01      7SKY009R02      7GAS009
0160726140547422021011110546+44420-072019FM-15+0212K1V4 V02099999999999999999N9999997N5-01565-01785102835ADDAA101000095MA1102615100065REMMET08701/11/21 05:54:02 METAR K1V4 111054Z      KT M16/M18 A3030 RMK AO1 SLP283 T11561178 RTXEQDR01      7SKY009R02      7GAS009
0192726140547422021011111546+44420-072019FM-15+0212K1V4 V02099999999999999999N9999997N5-01565-01785102855ADDAA101000095MA1102615100065MD1390069+9999REMMET10501/11/21 06:54:02 METAR K1V4 111154Z      KT M16/M18 A3030 RMK AO1 SLP285 T11561178 11122 21161 53006 RTXEQDR01      7SKY009R02      7GAS009
0160726140547422021011112546+44420-072019FM-15+0212K1V4 V02099999999999999999N9999997N5-01505-01675102805ADDAA101000095MA1102575100035REMMET08701/11/21 07:54:02 METAR K1V4 111254Z      KT M15/M17 A3029 RMK AO1 SLP280 T11501167 RTXEQDR01      7SKY009R02      7GAS009
0160726140547422021011113546+44420-072019FM-15+0212K1V4 V02099999999999999999N9999997N5-01335-01565102805ADDAA101000095MA1102575100035REMMET08701/11/21 08:54:02 METAR K1V4 111354Z      KT M13/M16 A3029 RMK AO1 SLP280 T11331156 RTXEQDR01      7SKY009R02      7GAS009
0180726140547422021011114546+44420-072019FM-15+0212K1V4 V02099999999999999999N9999997N5-01175-01395102785ADDAA101000095MA1102545099995MD1690069+9999REMMET09301/11/21 09:54:02 METAR K1V4 111454Z      KT M12/M14 A3028 RMK AO1 SLP278 T11171139 56006 RTXEQDR01      7SKY009R02      7GAS009
0160726140547422021011115546+44420-072019FM-15+0212K1V4 V02099999999999999999N9999997N5-00945-01285102635ADDAA101000095MA1102405099865REMMET08701/11/21 10:54:02 METAR K1V4 111554Z      KT M09/M13 A3024 RMK AO1 SLP263 T10941128 RTXEQDR01      7SKY009R02      7GAS009
0160726140547422021011116546+44420-072019FM-15+0212K1V4 V02099999999999999999N9999997N5-00785-01115102515ADDAA101000095MA1102305099765REMMET08701/11/21 11:54:02 METAR K1V4 111654Z      KT M08/M11 A3021 RMK AO1 SLP251 T10781111 RTXEQDR01      7SKY009R02      7GAS009
0192726140547422021011117546+44420-072019FM-15+0212K1V4 V02099999999999999999N9999997N5-00675-01005102395ADDAA101000095MA1102175099635MD1690379+9999REMMET10501/11/21 12:54:02 METAR K1V4 111754Z      KT M07/M10 A3017 RMK AO1 SLP239 T10671100 11067 21156 56037 RTXEQDR01      7SKY009R02      7GAS009
0156726140547422021011118546+44420-072019FM-15+0212K1V4 V02099999999999999999N9999997N5-00565-00945102345ADDAA101000095MA1102135099595REMMET08301/11/21 13:54:02 METAR K1V4 111854Z      KT M06/M09 A3016 RMK AO1 SLP234 T10561094EQDR01      7SKY009R02      7GAS009
0156726140547422021011119546+44420-072019FM-15+0212K1V4 V02099999999999999999N9999997N5-00505-00895102355ADDAA101000095MA1102135099595REMMET08301/11/21 14:54:02 METAR K1V4 111954Z      KT M05/M09 A3016 RMK AO1 SLP235 T10501089EQDR01      7SKY009R02      7GAS009
0180726140547422021011120546+44420-072019FM-15+0212K1V4 V02099999999999999999N9999997N5-00505-00835102325ADDAA101000095MA1102105099565MD1690069+9999REMMET09301/11/21 15:54:02 METAR K1V4 112054Z      KT M05/M08 A3015 RMK AO1 SLP232 T10501083 56006 RTXEQDR01      7SKY009R02      7GAS009
0160726140547422021011121546+44420-072019FM-15+0212K1V4 V02099999999999999999N9999997N5-00505-00785102285ADDAA101000095MA1102075099535REMMET08701/11/21 16:54:02 METAR K1V4 112154Z      KT M05/M08 A3014 RMK AO1 SLP228 T10501078 RTXEQDR01      7SKY009R02      7GAS009
0160726140547422021011122546+44420-072019FM-15+0212K1V4 V02099999999999999999N9999997N5-00565-00835102285ADDAA101000095MA1102075099535REMMET08701/11/21 17:54:02 METAR K1V4 112254Z      KT M06/M08 A3014 RMK AO1 SLP228 T10561083 RTXEQDR01      7SKY009R02      7GAS009
0192726140547422021011123546+44420-072019FM-15+0212K1V4 V02099999999999999999N9999997N5-00565-00785102285ADDAA101000095MA1102075099535MD1590049+9999REMMET10501/11/21 18:54:02 METAR K1V4 112354Z      KT M06/M08 A3014 RMK AO1 SLP228 T10561078 11044 21067 55004 RTXEQDR01      7SKY009R02      7GAS009
0162726140547422021011200546+44420-072019FM-15+0212K1V4 V02099999999999999999N9999997N5-00565-00725102205ADDAA101000395MA1102005099465REMMET08901/11/21 19:54:01 METAR K1V4 120054Z      KT M06/M07 A3012 RMK AO1 SLP220 P0001 T10561072EQDR01      7SKY009R02      7GAS009
0156726140547422021011201546+44420-072019FM-15+0212K1V4 V02099999999999999999N9999997N5-00615-00785102145ADDAA101000095MA1101935099405REMMET08301/11/21 20:54:01 METAR K1V4 120154Z      KT M06/M08 A3010 RMK AO1 SLP214 T10611078EQDR01      7SKY009R02      7GAS009
0193726140547422021011202546+44420-072019FM-15+0212K1V4 V02099999999999999999N9999997N5-00615-00785102065ADDAA101000095AA203000391MA1101865099335MD1790209+9999REMMET09501/11/21 21:54:01 METAR K1V4 120254Z      KT M06/M08 A3008 RMK AO1 SLP206 60001 T10611078 57020EQDR01      7SKY009R02      7GAS009
0156726140547422021011203546+44420-072019FM-15+0212K1V4 V02099999999999999999N9999997N5-00615-00785102045ADDAA101000095MA1101865099335REMMET08301/11/21 22:54:02 METAR K1V4 120354Z      KT M06/M08 A3008 RMK AO1 SLP204 T10611078EQDR01      7SKY009R02      7GAS009
0166726140547422021011204546+44420-072019FM-15+0212K1V4 V02099999999999999999N9999997N5-00565-00785101975ADDAA101000095MA1101795099265REMMET09301/11/21 23:54:02 METAR K1V4 120454Z      KT M06/M08 A3006 RMK AO1 SLP197 T10561078 410441161EQDR01      7SKY009R02      7GAS009
0622726140547422021011204596+44420-072019SOD  +0212K1V4 V020999999999999999999999999999+99999+99999999999ADDAA124000396KA1240M-00435KA2240N-01605MG1099784101964OE11249999999999997OE22249999999999997REMSOD50124 HR PRECIPITATION (IN): 0.01 24 HR MAX TEMP (F): 2424 HR MIN TEMP (F):  3AVERAGE STATION PRESSURE:29.465 MINIMUM SEA LEVEL PRESSURE:30.11 TIME OF OCCURRENCE:2359 24 HR AVG TEMP (F): 14DEPART FROM NORMAL: -3  HEATING DEGREE DAYS: 51 COOLING DEGREE DAYS:  0 LATEST DAY MAX TEMP (0700-1900 LST):24  LATEST NIGHT MIN TEMP(1900-0800 LST):3  HOURLY INCREMENTAL PRECIPITATION VALUES (IN):.00 0.00 0.00 0.00 0.00 0.00 0.00 0.00 0.00 0.00 0.00 0.00 0.00 0.00 0.00 0.00 0.00 0.00 0.00 0.01 0.00 0.00 0.00 0.00EQDR01  0.017AAP092
0209726140547422021011205546+44420-072019FM-15+0212K1V4 V02099999999999999999N9999997N5-00615-00725101935ADDAA101000095AA206000391MA1101765099235MD1890099+9999REMMET11101/12/21 00:54:02 METAR K1V4 120554Z      KT M06/M07 A3005 RMK AO1 SLP193 60001 T10611072 11056 21061 58009 RTXEQDR01      7SKY009R02      7GAS009
0160726140547422021011206546+44420-072019FM-15+0212K1V4 V02099999999999999999N9999997N5-00565-00725101935ADDAA101000095MA1101765099235REMMET08701/12/21 01:54:02 METAR K1V4 120654Z      KT M06/M07 A3005 RMK AO1 SLP193 T10561072 RTXEQDR01      7SKY009R02      7GAS009
0160726140547422021011207546+44420-072019FM-15+0212K1V4 V02099999999999999999N9999997N5-00615-00785101915ADDAA101000095MA1101735099205REMMET08701/12/21 02:54:02 METAR K1V4 120754Z      KT M06/M08 A3004 RMK AO1 SLP191 T10611078 RTXEQDR01      7SKY009R02      7GAS009
0180726140547422021011208546+44420-072019FM-15+0212K1V4 V02099999999999999999N9999997N5-00615-00725101855ADDAA101000095MA1101695099165MD1890079+9999REMMET09301/12/21 03:54:02 METAR K1V4 120854Z      KT M06/M07 A3003 RMK AO1 SLP185 T10611072 58007 RTXEQDR01      7SKY009R02      7GAS009
0160726140547422021011209546+44420-072019FM-15+0212K1V4 V02099999999999999999N9999997N5-00565-00725101835ADDAA101000095MA1101665099135REMMET08701/12/21 04:54:02 METAR K1V4 120954Z      KT M06/M07 A3002 RMK AO1 SLP183 T10561072 RTXEQDR01      7SKY009R02      7GAS009
0160726140547422021011210546+44420-072019FM-15+0212K1V4 V02099999999999999999N9999997N5-00615-00725101865ADDAA101000095MA1101695099165REMMET08701/12/21 05:54:02 METAR K1V4 121054Z      KT M06/M07 A3003 RMK AO1 SLP186 T10611072 RTXEQDR01      7SKY009R02      7GAS009
0209726140547422021011211546+44420-072019FM-15+0212K1V4 V02099999999999999999N9999997N5-00615-00785101885ADDAA101000095AA224000391MA1101735099205MD1390029+9999REMMET11101/12/21 06:54:02 METAR K1V4 121154Z      KT M06/M08 A3004 RMK AO1 SLP188 70001 T10611078 11056 21061 53002 RTXEQDR01      7SKY009R02      7GAS009
0160726140547422021011212546+44420-072019FM-15+0212K1V4 V02099999999999999999N9999997N5-00615-00725101895ADDAA101000095MA1101735099205REMMET08701/12/21 07:54:02 METAR K1V4 121254Z      KT M06/M07 A3004 RMK AO1 SLP189 T10611072 RTXEQDR01      7SKY009R02      7GAS009
0156726140547422021011213546+44420-072019FM-15+0212K1V4 V02099999999999999999N9999997N5-00565-00725101975ADDAA101000095MA1101795099265REMMET08301/12/21 08:54:02 METAR K1V4 121354Z      KT M06/M07 A3006 RMK AO1 SLP197 T10561072EQDR01      7SKY009R02      7GAS009
0180726140547422021011214546+44420-072019FM-15+0212K1V4 V02099999999999999999N9999997N5-00505-00725101975ADDAA101000095MA1101795099265MD1190099+9999REMMET09301/12/21 09:54:02 METAR K1V4 121454Z      KT M05/M07 A3006 RMK AO1 SLP197 T10501072 51009 RTXEQDR01      7SKY009R02      7GAS009
0156726140547422021011215546+44420-072019FM-15+0212K1V4 V02099999999999999999N9999997N5-00395-00675101905ADDAA101000095MA1101765099235REMMET08301/12/21 10:54:02 METAR K1V4 121554Z      KT M04/M07 A3005 RMK AO1 SLP190 T10391067EQDR01      7SKY009R02      7GAS009
0160726140547422021011216546+44420-072019FM-15+0212K1V4 V02099999999999999999N9999997N5-00225-00565101815ADDAA101000095MA1101665099135REMMET08701/12/21 11:54:02 METAR K1V4 121654Z      KT M02/M06 A3002 RMK AO1 SLP181 T10221056 RTXEQDR01      7SKY009R02      7GAS009
0188726140547422021011217546+44420-072019FM-15+0212K1V4 V02099999999999999999N9999997N5-00065-00505101755ADDAA101000095MA1101635099105MD1690199+9999REMMET10101/12/21 12:54:02 METAR K1V4 121754Z      KT M01/M05 A3001 RMK AO1 SLP175 T10061050 11006 21067 56019EQDR01      7SKY009R02      7GAS009
0159726140547422021011218546+44420-072019FM-15+0212K1V4 V02099999999999999999N9999997N5+00005-00505101745ADDAA101000095MA1101635099105REMMET08601/12/21 13:54:02 METAR K1V4 121854Z      KT 00/M05 A3001 RMK AO1 SLP174 T00001050 RTXEQDR01      7SKY009R02      7GAS009
0156726140547422021011219546+44420-072019FM-15+0212K1V4 V02099999999999999999N9999997N5-00065-00505101755ADDAA101000095MA1101635099105REMMET08301/12/21 14:54:02 METAR K1V4 121954Z      KT M01/M05 A3001 RMK AO1 SLP175 T10061050EQDR01      7SKY009R02      7GAS009
0176726140547422021011220546+44420-072019FM-15+0212K1V4 V02099999999999999999N9999997N5-00065-00505101745ADDAA101000095MA1101635099105MD1690019+9999REMMET08901/12/21 15:54:02 METAR K1V4 122054Z      KT M01/M05 A3001 RMK AO1 SLP174 T10061050 56001EQDR01      7SKY009R02      7GAS009
0160726140547422021011221546+44420-072019FM-15+0212K1V4 V02099999999999999999N9999997N5-00115-00445101775ADDAA101000095MA1101635099105REMMET08701/12/21 16:54:02 METAR K1V4 122154Z      KT M01/M04 A3001 RMK AO1 SLP177 T10111044 RTXEQDR01      7SKY009R02      7GAS009
0160726140547422021011222546+44420-072019FM-15+0212K1V4 V02099999999999999999N9999997N5-00115-00445101755ADDAA101000095MA1101635099105REMMET08701/12/21 17:54:02 METAR K1V4 122254Z      KT M01/M04 A3001 RMK AO1 SLP175 T10111044 RTXEQDR01      7SKY009R02      7GAS009
0192726140547422021011223546+44420-072019FM-15+0212K1V4 V02099999999999999999N9999997N5-00175-00445101765ADDAA101000095MA1101635099105MD1090009+9999REMMET10501/12/21 18:54:02 METAR K1V4 122354Z      KT M02/M04 A3001 RMK AO1 SLP176 T10171044 10000 21017 50000 RTXEQDR01      7SKY009R02      7GAS009
0156726140547422021011300546+44420-072019FM-15+0212K1V4 V02099999999999999999N9999997N5-00175-00445101765ADDAA101000095MA1101635099105REMMET08301/12/21 19:54:01 METAR K1V4 130054Z      KT M02/M04 A3001 RMK AO1 SLP176 T10171044EQDR01      7SKY009R02      7GAS009
0156726140547422021011301546+44420-072019FM-15+0212K1V4 V02099999999999999999N9999997N5-00225-00445101775ADDAA101000095MA1101635099105REMMET08301/12/21 20:54:01 METAR K1V4 130154Z      KT M02/M04 A3001 RMK AO1 SLP177 T10221044EQDR01      7SKY009R02      7GAS009
0176726140547422021011302546+44420-072019FM-15+0212K1V4 V02099999999999999999N9999997N5-00225-00445101755ADDAA101000095MA1101635099105MD1090019+9999REMMET08901/12/21 21:54:01 METAR K1V4 130254Z      KT M02/M04 A3001 RMK AO1 SLP175 T10221044 50001EQDR01      7SKY009R02      7GAS009
0156726140547422021011303546+44420-072019FM-15+0212K1V4 V02099999999999999999N9999997N5-00225-00445101735ADDAA101000095MA1101595099065REMMET08301/12/21 22:54:01 METAR K1V4 130354Z      KT M02/M04 A3000 RMK AO1 SLP173 T10221044EQDR01      7SKY009R02      7GAS009
0166726140547422021011304546+44420-072019FM-15+0212K1V4 V02099999999999999999N9999997N5-00285-00445101695ADDAA101000095MA1101565099035REMMET09301/12/21 23:54:02 METAR K1V4 130454Z      KT M03/M04 A2999 RMK AO1 SLP169 T10281044 400001067EQDR01      7SKY009R02      7GAS009
0603726140547422021011304596+44420-072019SOD  +0212K1V4 V020999999999999999999999999999+99999+99999999999ADDAA124000095KA1240M+00005KA2240N-00665MG1099124101694OE11249999999999997OE22249999999999997REMSOD50124 HR PRECIPITATION (IN): 0.00 24 HR MAX TEMP (F): 3224 HR MIN TEMP (F): 20AVERAGE STATION PRESSURE:29.270 MINIMUM SEA LEVEL PRESSURE:30.03 TIME OF OCCURRENCE:2359 24 HR AVG TEMP (F): 26DEPART FROM NORMAL:  9  HEATING DEGREE DAYS: 39 COOLING DEGREE DAYS:  0 LATEST DAY MAX TEMP (0700-1900 LST):32  LATEST NIGHT MIN TEMP(1900-0800 LST):20 HOURLY INCREMENTAL PRECIPITATION VALUES (IN):.00 0.00 0.00 0.00 0.00 0.00 0.00 0.00 0.00 0.00 0.00 0.00 0.00 0.00 0.00 0.00 0.00 0.00 0.00 0.00 0.00 0.00 0.00 0.00
0188726140547422021011305546+44420-072019FM-15+0212K1V4 V02099999999999999999N9999997N5-00285-00445101635ADDAA101000095MA1101525099005MD1890119+9999REMMET10101/13/21 00:54:02 METAR K1V4 130554Z      KT M03/M04 A2998 RMK AO1 SLP163 T10281044 11017 21028 58011EQDR01      7SKY009R02      7GAS009
0160726140547422021011306546+44420-072019FM-15+0212K1V4 V02099999999999999999N9999997N5-00285-00445101645ADDAA101000095MA1101525099005REMMET08701/13/21 01:54:02 METAR K1V4 130654Z      KT M03/M04 A2998 RMK AO1 SLP164 T10281044 RTXEQDR01      7SKY009R02      7GAS009
0160726140547422021011307546+44420-072019FM-15+0212K1V4 V02099999999999999999N9999997N5-00285-00445101635ADDAA101000095MA1101495098965REMMET08701/13/21 02:54:02 METAR K1V4 130754Z      KT M03/M04 A2997 RMK AO1 SLP163 T10281044 RTXEQDR01      7SKY009R02      7GAS009
0180726140547422021011308546+44420-072019FM-15+0212K1V4 V02099999999999999999N9999997N5-00285-00445101615ADDAA101000095MA1101495098965MD1890029+9999REMMET09301/13/21 03:54:02 METAR K1V4 130854Z      KT M03/M04 A2997 RMK AO1 SLP161 T10281044 58002 RTXEQDR01      7SKY009R02      7GAS009
0160726140547422021011309546+44420-072019FM-15+0212K1V4 V02099999999999999999N9999997N5-00335-00445101585ADDAA101000095MA1101465098935REMMET08701/13/21 04:54:02 METAR K1V4 130954Z      KT M03/M04 A2996 RMK AO1 SLP158 T10331044 RTXEQDR01      7SKY009R02      7GAS009
0160726140547422021011310546+44420-072019FM-15+0212K1V4 V02099999999999999999N9999997N5-00335-00445101615ADDAA101000095MA1101495098965REMMET08701/13/21 05:54:02 METAR K1V4 131054Z      KT M03/M04 A2997 RMK AO1 SLP161 T10331044 RTXEQDR01      7SKY009R02      7GAS009
0192726140547422021011311546+44420-072019FM-15+0212K1V4 V02099999999999999999N9999997N5-00335-00445101595ADDAA101000095MA1101465098935MD1690029+9999REMMET10501/13/21 06:54:02 METAR K1V4 131154Z      KT M03/M04 A2996 RMK AO1 SLP159 T10331044 11028 21033 56002 RTXEQDR01      7SKY009R02      7GAS009
0160726140547422021011312546+44420-072019FM-15+0212K1V4 V02099999999999999999N9999997N5-00335-00445101595ADDAA101000095MA1101465098935REMMET08701/13/21 07:54:02 METAR K1V4 131254Z      KT M03/M04 A2996 RMK AO1 SLP159 T10331044 RTXEQDR01      7SKY009R02      7GAS009
0160726140547422021011313546+44420-072019FM-15+0212K1V4 V02099999999999999999N9999997N5-00285-00445101595ADDAA101000095MA1101465098935REMMET08701/13/21 08:54:02 METAR K1V4 131354Z      KT M03/M04 A2996 RMK AO1 SLP159 T10281044 RTXEQDR01      7SKY009R02      7GAS009
0180726140547422021011314546+44420-072019FM-15+0212K1V4 V02099999999999999999N9999997N5-00225-00445101555ADDAA101000095MA1101425098905MD1890049+9999REMMET09301/13/21 09:54:02 METAR K1V4 131454Z      KT M02/M04 A2995 RMK AO1 SLP155 T10221044 58004 RTXEQDR01      7SKY009R02      7GAS009
0160726140547422021011315546+44420-072019FM-15+0212K1V4 V02099999999999999999N9999997N5-00175-00445101485ADDAA101000095MA1101355098835REMMET08701/13/21 10:54:02 METAR K1V4 131554Z      KT M02/M04 A2993 RMK AO1 SLP148 T10171044 RTXEQDR01      7SKY009R02      7GAS009
0160726140547422021011316546+44420-072019FM-15+0212K1V4 V02099999999999999999N9999997N5-00115-00445101365ADDAA101000095MA1101225098705REMMET08701/13/21 11:54:02 METAR K1V4 131654Z      KT M01/M04 A2989 RMK AO1 SLP136 T10111044 RTXEQDR01      7SKY009R02      7GAS009
0192726140547422021011317546+44420-072019FM-15+0212K1V4 V02099999999999999999N9999997N5-00065-00445101325ADDAA101000095MA1101195098675MD1690239+9999REMMET10501/13/21 12:54:02 METAR K1V4 131754Z      KT M01/M04 A2988 RMK AO1 SLP132 T10061044 11006 21033 56023 RTXEQDR01      7SKY009R02      7GAS009
0160726140547422021011318546+44420-072019FM-15+0212K1V4 V02099999999999999999N9999997N5-00065-00445101275ADDAA101000095MA1101155098635REMMET08701/13/21 13:54:02 METAR K1V4 131854Z      KT M01/M04 A2987 RMK AO1 SLP127 T10061044 RTXEQDR01      7SKY009R02      7GAS009
0159726140547422021011319546+44420-072019FM-15+0212K1V4 V02099999999999999999N9999997N5+00005-00445101245ADDAA101000095MA1101125098605REMMET08601/13/21 14:54:02 METAR K1V4 131954Z      KT 00/M04 A2986 RMK AO1 SLP124 T00001044 RTXEQDR01      7SKY009R02      7GAS009
0179726140547422021011320546+44420-072019FM-15+0212K1V4 V02099999999999999999N9999997N5+00005-00445101195ADDAA101000095MA1101085098575MD1890129+9999REMMET09201/13/21 15:54:02 METAR K1V4 132054Z      KT 00/M04 A2985 RMK AO1 SLP119 T00001044 58012 RTXEQDR01      7SKY009R02      7GAS009
0160726140547422021011321546+44420-072019FM-15+0212K1V4 V02099999999999999999N9999997N5-00065-00505101125ADDAA101000095MA1101025098505REMMET08701/13/21 16:54:02 METAR K1V4 132154Z      KT M01/M05 A2983 RMK AO1 SLP112 T10061050 RTXEQDR01      7SKY009R02      7GAS009
0160726140547422021011322546+44420-072019FM-15+0212K1V4 V02099999999999999999N9999997N5-00065-00505101125ADDAA101000095MA1100985098475REMMET08701/13/21 17:54:02 METAR K1V4 132254Z      KT M01/M05 A2982 RMK AO1 SLP112 T10061050 RTXEQDR01      7SKY009R02      7GAS009
0192726140547422021011323546+44420-072019FM-15+0212K1V4 V02099999999999999999N9999997N5-00065-00505101145ADDAA101000095MA1101025098505MD1590069+9999REMMET10501/13/21 18:54:02 METAR K1V4 132354Z      KT M01/M05 A2983 RMK AO1 SLP114 T10061050 10000 21006 55006 RTXEQDR01      7SKY009R02      7GAS009
0156726140547422021011400546+44420-072019FM-15+0212K1V4 V02099999999999999999N9999997N5-00065-00505101115ADDAA101000095MA1100985098475REMMET08301/13/21 19:54:01 METAR K1V4 140054Z      KT M01/M05 A2982 RMK AO1 SLP111 T10061050EQDR01      7SKY009R02      7GAS009
0156726140547422021011401546+44420-072019FM-15+0212K1V4 V02099999999999999999N9999997N5-00065-00565101065ADDAA101000095MA1100955098435REMMET08301/13/21 20:54:01 METAR K1V4 140154Z      KT M01/M06 A2981 RMK AO1 SLP106 T10061056EQDR01      7SKY009R02      7GAS009
0176726140547422021011402546+44420-072019FM-15+0212K1V4 V02099999999999999999N9999997N5-00065-00565101035ADDAA101000095MA1100915098405MD1690099+9999REMMET08901/13/21 21:54:01 METAR K1V4 140254Z      KT M01/M06 A2980 RMK AO1 SLP103 T10061056 56009EQDR01      7SKY009R02      7GAS009
0156726140547422021011403546+44420-072019FM-15+0212K1V4 V02099999999999999999N9999997N5-00065-00565101035ADDAA101000095MA1100915098405REMMET08301/13/21 22:54:01 METAR K1V4 140354Z      KT M01/M06 A2980 RMK AO1 SLP103 T10061056EQDR01      7SKY009R02      7GAS009
0166726140547422021011404546+44420-072019FM-15+0212K1V4 V02099999999999999999N9999997N5-00115-00505101005ADDAA101000095MA1100885098375REMMET09301/13/21 23:54:02 METAR K1V4 140454Z      KT M01/M05 A2979 RMK AO1 SLP100 T10111050 400001033EQDR01      7SKY009R02      7GAS009
0603726140547422021011404596+44420-072019SOD  +0212K1V4 V020999999999999999999999999999+99999+99999999999ADDAA124000095KA1240M+00005KA2240N-00325MG1098764101024OE11249999999999997OE22249999999999997REMSOD50124 HR PRECIPITATION (IN): 0.00 24 HR MAX TEMP (F): 3224 HR MIN TEMP (F): 26AVERAGE STATION PRESSURE:29.165 MINIMUM SEA LEVEL PRESSURE:29.83 TIME OF OCCURRENCE:2359 24 HR AVG TEMP (F): 29DEPART FROM NORMAL: 12  HEATING DEGREE DAYS: 36 COOLING DEGREE DAYS:  0 LATEST DAY MAX TEMP (0700-1900 LST):32  LATEST NIGHT MIN TEMP(1900-0800 LST):26 HOURLY INCREMENTAL PRECIPITATION VALUES (IN):.00 0.00 0.00 0.00 0.00 0.00 0.00 0.00 0.00 0.00 0.00 0.00 0.00 0.00 0.00 0.00 0.00 0.00 0.00 0.00 0.00 0.00 0.00 0.00
0192726140547422021011405546+44420-072019FM-15+0212K1V4 V02099999999999999999N9999997N5-00115-00445100995ADDAA101000095MA1100885098375MD1890039+9999REMMET10501/14/21 00:54:02 METAR K1V4 140554Z      KT M01/M04 A2979 RMK AO1 SLP099 T10111044 11006 21017 58003 RTXEQDR01      7SKY009R02      7GAS009
0160726140547422021011406546+44420-072019FM-15+0212K1V4 V02099999999999999999N9999997N5-00225-00505101005ADDAA101000095MA1100885098375REMMET08701/14/21 01:54:02 METAR K1V4 140654Z      KT M02/M05 A2979 RMK AO1 SLP100 T10221050 RTXEQDR01      7SKY009R02      7GAS009
0160726140547422021011407546+44420-072019FM-15+0212K1V4 V02099999999999999999N9999997N5-00175-00445100995ADDAA101000095MA1100885098375REMMET08701/14/21 02:54:02 METAR K1V4 140754Z      KT M02/M04 A2979 RMK AO1 SLP099 T10171044 RTXEQDR01      7SKY009R02      7GAS009
0180726140547422021011408546+44420-072019FM-15+0212K1V4 V02099999999999999999N9999997N5-00175-00445100955ADDAA101000095MA1100855098335MD1890049+9999REMMET09301/14/21 03:54:02 METAR K1V4 140854Z      KT M02/M04 A2978 RMK AO1 SLP095 T10171044 58004 RTXEQDR01      7SKY009R02      7GAS009
