0187726115547402025010100547+43342-072521FM-15+0176KVSF V0209999C000052200059N0160935N5-00065-00175101135ADDAA101000095GA1005+999999999GD10991+9999999GF100991999999999999999999MA1101055098965REMMET09212/31/24 19:54:03 METAR KVSF 010054Z 00000KT 10SM CLR M01/M02 A2984 RMK AO2 SLP113 T10061017
0187726115547402025010101547+43342-072521FM-15+0176KVSF V0209999C000052200059N0160935N5-00115-00225101025ADDAA101000095GA1005+999999999GD10991+9999999GF100991999999999999999999MA1100955098865REMMET09212/31/24 20:54:03 METAR KVSF 010154Z 00000KT 10SM CLR M01/M02 A2981 RMK AO2 SLP102 T10111022
0207726115547402025010102547+43342-072521FM-15+0176KVSF V0209999C000052200059N0160935N5-00115-00225100885ADDAA101000095GA1005+999999999GD10991+9999999GF100991999999999999999999MA1100815098725MD1890269+9999REMMET09812/31/24 21:54:03 METAR KVSF 010254Z 00000KT 10SM CLR M01/M02 A2977 RMK AO2 SLP088 T10111022 58026
0186726115547402025010103547+43342-072521FM-15+0176KVSF V0209999C000052200059N0112655N5-00115-00285100745ADDAA101000095GA1005+999999999GD10991+9999999GF100991999999999999999999MA1100685098595REMMET09112/31/24 22:54:03 METAR KVSF 010354Z 00000KT 7SM CLR M01/M03 A2973 RMK AO2 SLP074 T10111028
0222726115547402025010104547+43342-072521FM-15+0176KVSF V0202505N001552200059N0128755N5-00115-00285100655ADDAA101000095GA1005+999999999GD10991+9999999GF100991999999999999999999KA1240M+00941KA2240N-00171MA1100615098525REMMET10112/31/24 23:54:03 METAR KVSF 010454Z 25003KT 8SM CLR M01/M03 A2971 RMK AO2 SLP065 T10111028 400941017
0886726115547402025010104596+43342-072521SOD  +0176KVSF V020999999999999999999999999999+99999+99999999999ADDAA124000095KA1240M+00945KA2240N-00165MG1098814100614OE11240080525000585OE22240058124000595OE33240014399999995REMSOD73024 HR PRECIPITATION (IN):0.00  24 HR MAX TEMP (F):49 24 HR MAX TEMP TIME (LST):1448 24 HR MIN TEMP (F):29 24 HR MIN TEMP TIME (LST):2353 AVERAGE STATION PRESSURE:29.180 MINIMUM SEA LEVEL PRESSURE:29.71 TIME OF OCCURRENCE:0043 PEAK WIND SPEED (MPH):18  PEAK WIND DIR (DEG):250 PEAK WIND TIME (LST):0058  FASTEST 2MIN SPEED (MPH):13 FASTEST 2MIN DIR (DEG):240 FASTEST 2MIN TIME (LST):0059 AVERAGE WIND SPEED (MPH):3.2  24 HR AVG TEMP (F):39 HEATING DEGREE DAYS:26  COOLING DEGREE DAYS:0   LATEST DAY MAX TEMP (0700-1900 LST):49  LATEST NIGHT MIN TEMP(1900-0800 LST):31 HOURLY INCREMENTAL PRECIPITATION VALUES (IN):.00 0.00 0.00 0.00 0.00 0.00 0.00 0.00 0.00 0.00 0.00 0.00 0.00 0.00 0.00 0.00 0.00 0.00 0.00 0.00 0.00 0.00 0.00 0.00EQDR01     N7GJS072R02     N7GKS075
1241726115547402025010104596+43342-072521SOM  +0176KVSF V020999999999999999999999999999+99999+99999999999ADDAB10082096AD10041491111999999995AE1145055015015AH1005001091118035AH2010001591118095AH3015002391118115AH4020002591118155AH5030003391118285AH6045004691118415AI1060005691118545AI2080006991119115AI3100008191119355AI4120009791119555AI5150011291120045AI6180013091120555KB1744N-07395KB2744M+01505KB3744A-02945KC1N9-02112399995KC2M9+01223099995KD1744H11795KD2744C00005KE1125005265035MH1099934102104MK1104911409275099531120245REMSOM793PCP MTOT:3.23 PCP GT 24HRS:1.63 DATE(S):11 DAYS W/PCP >=.01:14 DAYS W/PCP >=.10:5  DAYS W/ PCP >=.50:1 DAYS W/PCP >=1.00:1 MSDP AMTS W/DATE-TIME TAGS:MIN:5 0.04  11/1803 MIN:10 0.06  11/1809 MIN:15 0.09  11/1811 MIN:20 0.10  11/1815 MIN:30 0.13  11/1828 MIN:45 0.18  11/1841 MIN:60 0.22  11/1854 MIN:80 0.27  11/1911 MIN:100 0.32  11/1935 MIN:120 0.38  11/1955 MIN:150 0.44  11/2004 MIN:180 0.51  11/2055 AVG DLY MIN:18.7  AVG DLY MAX:34.7  AVG MLY TMP:26.7  MIN TMP:-6 DATE(S):23 MAX TMP:54  DATE(S):30 DAYS MAX <=32:1 DAYS MAX >=90:0  DAYS MIN <=32:26 DAYS MIN  <=0:3  AVG STP:29.510 LWST SLP:29.39 DATE/TIME:112024 HGST SLP:30.98 DATE/TIME:140927 HDD MTH TOT:1179 DEP NORM:-2553 SEASON(JUL 1-JUN 30):2455 DEP NORM:-25536 CDD MTH TOT:0 DEP NORM:-2553 SEASON(JAN 1-DEC 31):650 DEP NORM:-25536EQDR01  3.237ABP070
0308726115547402025010105547+43342-072521FM-15+0176KVSF V0209999C00005014635MN0160935N5-00065-00225100575ADDAA101000095GA1075+014635999GA2075+033535999GD13991+0146359GD23991+0335359GE19AGL   +99999+99999GF199999999999014631999999KA1060M+00061KA2060N-00171MA1100545098465MD1690299+9999REMMET12001/01/25 00:54:02 METAR KVSF 010554Z 00000KT 10SM BKN048 BKN110 M01/M02 A2969 RMK AO2 SLP057 T10061022 10006 21017 56029
0286726115547402025010106547+43342-072521FM-15+0176KVSF V0209999C00005013725MN0144845N5+00005-00175100505ADDAA101000025AU120090015AW1401AW2415GA1075+013725999GA2085+016765999GD13991+0137259GD24991+0167659GE19AGL   +99999+99999GF199999999999013721999999MA1100445098365REMMET11501/01/25 01:54:02 METAR KVSF 010654Z 00000KT 9SM UP BKN045 OVC055 00/M02 A2966 RMK AO2 UPB48 SLP050 P0000 T00001017
0325726115547402025010107277+43342-072521FM-16+0176KVSF V0200505N00155012805MN0064375N5+00005-00115999999ADDAA101000021AU118020015AU200001015AW1105AW2645GA1075+012805999GA2085+014945999GD13991+0128059GD24991+0149459GE19AGL   +99999+99999GF199999999999012801999999MA1100375098295WA1900199REMMET13401/01/25 02:27:02 SPECI KVSF 010727Z 05003KT 4SM -FZRA BR BKN042 OVC049 00/M01 A2964 RMK AO2 UPE21FZRAB21 PRESFR P0000 I1001 T00001011
0256726115547402025010107526+43342-072521FM-16+0176KVSF V0209999V00155009145MN0064375N5+00105-00105999999ADDAU128020015AU200001015AW1105AW2655GA1075+009145999GA2085+013725999GD13991+0091459GD24991+0137259MA1100375098295REMMET13301/01/25 02:52:02 SPECI KVSF 010752Z VRB03KT 4SM FZRA BR BKN030 OVC045 01/M01 A2964 RMK AO2 LTG DSNT SE UPE21FZRAB21 P0000 I1002 FIBI
0342726115547402025010107547+43342-072521FM-15+0176KVSF V0200205N00155008535MN0064375N5+00065-00065100435ADDAA101000025AU128020015AU200001015AW1105AW2655GA1075+008535999GA2085+013725999GD13991+0085359GD24991+0137259GE19AGL   +99999+99999GF199999999999008531999999MA1100375098295WA1900199REMMET15101/01/25 02:54:02 METAR KVSF 010754Z 02003KT 4SM FZRA BR BKN028 OVC045 01/M01 A2964 RMK AO2 LTG DSNT E AND SE UPE21FZRAB21 SLP043 P0000 I1002 T00061006
0363726115547402025010108137+43342-072521FM-16+0176KVSF V0209999V00155005495MN0048285N5+00175+00005999999ADDAU147000015AU230020015AU300001015AW1105AW2121AW3635GA1025+004275999GA2085+005495999GD11991+0042759GD24991+0054959GE19AGL   +99999+99999GF199999999999004271999999MA1100375098295MV1015MW1635WA1900099REMMET15401/01/25 03:13:02 SPECI KVSF 010813Z VRB03KT 3SM VCTS +RA BR FEW014 OVC018 02/00 A2964 RMK AO2 LTG DSNT E AND SE AND NW RAB09FZRAE09 I1000 T00170000 PNO $
0316726115547402025010108237+43342-072521FM-16+0176KVSF V0209999C00005004275MN0040235N5+00115+00005999999ADDAU147000015AU230020015AU300001015AW1105AW2121AW3635GA1085+004275999GD14991+0042759GE19AGL   +99999+99999GF199999999999004271999999MA1100375098295MV1015MW1635WA1900099REMMET13801/01/25 03:23:02 SPECI KVSF 010823Z 00000KT 2 1/2SM VCTS +RA BR OVC014 01/00 A2964 RMK AO2 LTG DSNT NW RAB09FZRAE09 I1000 T00110000 PNO $
0291726115547402025010108347+43342-072521FM-16+0176KVSF V0209999C00005003665MN0040235N5+00175+00005999999ADDAU110030015AU200001015AW1105AW2715GA1085+003665999GD14991+0036659GE19AGL   +99999+99999GF199999999999003661999999MA1100305098225MW1715WA1900099REMMET13601/01/25 03:34:02 SPECI KVSF 010834Z 00000KT 2 1/2SM -SN BR OVC012 02/00 A2962 RMK AO2 RAB09E30FZRAE09SNB30 PRESFR I1000 T00170000 PNO $
0325726115547402025010108397+43342-072521FM-16+0176KVSF V0209999V00155002745MN0032195N5+00175+00005999999ADDAU110030015AU200001015AW1105AW2715GA1075+002745999GA2085+003665999GD13991+0027459GD24991+0036659GE19AGL   +99999+99999GF199999999999002741999999MA1100305098225MW1715WA1900099REMMET13901/01/25 03:39:02 SPECI KVSF 010839Z VRB03KT 2SM -SN BR BKN009 OVC012 02/00 A2962 RMK AO2 RAB09E30FZRAE09SNB30 PRESFR I1000 T00170000 PNO $
0320726115547402025010108497+43342-072521FM-16+0176KVSF V0203605N00265002445MN0028165N5+00105-00105999999ADDAU110030015AU200001015AW1105AW2715GA1075+002445999GA2085+003665999GD13991+0024459GD24991+0036659GE19AGL   +99999+99999GF199999999999002441999999MA1100245098165MW1715WA1900099REMMET13401/01/25 03:49:02 SPECI KVSF 010849Z 36005KT 1 3/4SM -SN BR BKN008 OVC012 01/M01 A2960 RMK AO2 RAB09E30FZRAE09SNB30 PRESFR I1000 PNO $
0376726115547402025010108547+43342-072521FM-15+0176KVSF V0209999V00215002445MN0032195N5+00115-00065100245ADDAA101006195AU110030015AU200001015AW1105AW2715GA1075+002445999GA2085+003665999GD13991+0024459GD24991+0036659GE19AGL   +99999+99999GF199999999999002441999999MA1100205098125MD1690259+9999MW1715WA1900199REMMET16501/01/25 03:54:02 METAR KVSF 010854Z VRB04KT 2SM -SN BR BKN008 OVC012 01/M01 A2959 RMK AO2 RAB09E30FZRAE09SNB30 PRESFR SLP024 6//// I1000 I3002 T00111006 56025 PNO $
0296726115547402025010109067+43342-072521FM-16+0176KVSF V0209999V00215002445MN0048285N5+00115-00065999999ADDAA101000531AU110030015AU200001015AW1105AW2715GA1075+002445999GA2085+003665999GD13991+0024459GD24991+0036659GE19AGL   +99999+99999GF199999999999002441999999MA1100175098095MW1715REMMET10801/01/25 04:06:02 SPECI KVSF 010906Z VRB04KT 3SM -SN BR BKN008 OVC012 01/M01 A2958 RMK AO2 P0002 T00111006 $
0268726115547402025010109177+43342-072521FM-16+0176KVSF V0209999V00215003055MN0064375N5+00175+00005999999ADDAA101000731AU110020015AU200001015AW1105AW2615GA1085+003055999GD14991+0030559GE19AGL   +99999+99999GF199999999999003051999999MA1100175098095MW1615REMMET11101/01/25 04:17:02 SPECI KVSF 010917Z VRB04KT 4SM -RA BR OVC010 02/00 A2958 RMK AO2 RAB17SNE17 P0003 T00170000 $
0294726115547402025010109547+43342-072521FM-15+0176KVSF V0209999V00265003965MN0160935N5+00285+00005100145ADDAA101001595AU110020015AW1615GA1075+003965999GA2085+006105999GD13991+0039659GD24991+0061059GE19AGL   +99999+99999GF199999999999003961999999MA1100075097995MW1615REMMET12301/01/25 04:54:02 METAR KVSF 010954Z VRB05KT 10SM -RA BKN013 OVC020 03/00 A2955 RMK AO2 RAB17SNE17 SLP014 P0007 T00280000 $
0257726115547402025010110017+43342-072521FM-16+0176KVSF V0200405V00365006405MN0160935N5+00285+00005999999ADDAA101000231GA1045+003965999GA2085+006405999GD12991+0039659GD24991+0064059GE19AGL   +99999+99999GF199999999999003961999999MA1100075097995REMMET10901/01/25 05:01:02 SPECI KVSF 011001Z 04007KT 10SM SCT013 OVC021 03/00 A2955 RMK AO2 RAE0959 P0001 T00280000 $
0255726115547402025010110547+43342-072521FM-15+0176KVSF V0209999V00315005185MN0128755N5+00225+00065100065ADDAA101002395AU110020015AW1615GA1085+005185999GD14991+0051859GE19AGL   +99999+99999GF199999999999005181999999MA1100005097925MW1615REMMET11501/01/25 05:54:02 METAR KVSF 011054Z VRB06KT 8SM -RA OVC017 02/01 A2953 RMK AO2 RAE0959B06 SLP006 P0008 T00220006 $
0240726115547402025010111526+43342-072521FM-16+0176KVSF V0200605N00365003965MN0096565N5+00305+00105999999ADDAU110020015AU200001015AW1105AW2615GA1075+003965999GA2085+005495999GD13991+0039659GD24991+0054959MA1099935097865MW1615REMMET11101/01/25 06:52:02 SPECI KVSF 011152Z 06007KT 6SM -RA BR BKN013 OVC018 03/01 A2951 RMK AO2 UPB10E17 P0004 $ FIBI
0356726115547402025010111547+43342-072521FM-15+0176KVSF V0200505N00315003965MN0096565N5+00285+00065099985ADDAA101000895AA224999919AU110020015AU200001015AW1105AW2615GA1085+003965999GD14991+0039659GE19AGL   +99999+99999GF199999999999003961999999KA1060M+00281MA1099935097865MD1690269+9999MW1615WA1900199REMMET15201/01/25 06:54:02 METAR KVSF 011154Z 05006KT 6SM -RA BR OVC013 03/01 A2951 RMK AO2 UPB10E17 SLP998 P0004 6//// 7//// I6002 T00280006 10028 21006 56026 $
0237726115547402025010112047+43342-072521FM-16+0176KVSF V0209999V00265004575MN0112655N5+00335+00065999999ADDAA101000021AU110020015AW1615GA1085+004575999GD14991+0045759GE19AGL   +99999+99999GF199999999999004571999999MA1099935097865MW1615REMMET09701/01/25 07:04:02 SPECI KVSF 011204Z VRB05KT 7SM -RA OVC015 03/01 A2951 RMK AO2 P0000 T00330006 $
0237726115547402025010112287+43342-072521FM-16+0176KVSF V0209999V00215004275MN0112655N5+00285+00065999999ADDAA101000021AU110020015AW1615GA1085+004275999GD14991+0042759GE19AGL   +99999+99999GF199999999999004271999999MA1099935097865MW1615REMMET09701/01/25 07:28:02 SPECI KVSF 011228Z VRB04KT 7SM -RA OVC014 03/01 A2951 RMK AO2 P0000 T00280006 $
0257726115547402025010112457+43342-072521FM-16+0176KVSF V0200505N00215004575MN0048285N5+00285+00065999999ADDAA101000231AU110020015AU200001015AW1105AW2615GA1085+004575999GD14991+0045759GE19AGL   +99999+99999GF199999999999004571999999MA1099905097825MW1615REMMET10001/01/25 07:45:02 SPECI KVSF 011245Z 05004KT 3SM -RA BR OVC015 03/01 A2950 RMK AO2 P0001 T00280006 $
0264726115547402025010112547+43342-072521FM-15+0176KVSF V0200405N00265004575MN0048285N5+00285+00065099975ADDAA101000395AU110020015AU200001015AW1105AW2615GA1085+004575999GD14991+0045759GE19AGL   +99999+99999GF199999999999004571999999MA1099905097825MW1615REMMET10701/01/25 07:54:02 METAR KVSF 011254Z 04005KT 3SM -RA BR OVC015 03/01 A2950 RMK AO2 SLP997 P0001 T00280006 $
0261726115547402025010113047+43342-072521FM-16+0176KVSF V0200505N00155004575MN0040235N5+00285+00115999999ADDAA101000021AU110020015AU200001015AW1105AW2615GA1085+004575999GD14991+0045759GE19AGL   +99999+99999GF199999999999004571999999MA1099905097825MW1615REMMET10401/01/25 08:04:02 SPECI KVSF 011304Z 05003KT 2 1/2SM -RA BR OVC015 03/01 A2950 RMK AO2 P0000 T00280011 $
0257726115547402025010113227+43342-072521FM-16+0176KVSF V0200305N00155004275MN0048285N5+00285+00115999999ADDAA101000231AU110020015AU200001015AW1105AW2615GA1085+004275999GD14991+0042759GE19AGL   +99999+99999GF199999999999004271999999MA1099905097825MW1615REMMET10001/01/25 08:22:02 SPECI KVSF 011322Z 03003KT 3SM -RA BR OVC014 03/01 A2950 RMK AO2 P0001 T00280011 $
0257726115547402025010113337+43342-072521FM-16+0176KVSF V0200405N00215004275MN0032195N5+00285+00115999999ADDAA101000531AU110020015AU200001015AW1105AW2615GA1085+004275999GD14991+0042759GE19AGL   +99999+99999GF199999999999004271999999MA1099905097825MW1615REMMET10001/01/25 08:33:02 SPECI KVSF 011333Z 04004KT 2SM -RA BR OVC014 03/01 A2950 RMK AO2 P0002 T00280011 $
0273726115547402025010113547+43342-072521FM-15+0176KVSF V0203605N00155004275MN0096565N5+00285+00115099955ADDAA101000595AU110020015AU200001015AW1105AW2615GA1085+004275999GD14991+0042759GE19AGL   +99999+99999GF199999999999004271999999MA1099905097825MW1615REMMET11601/01/25 08:54:02 METAR KVSF 011354Z 36003KT 6SM -RA BR OVC014 03/01 A2950 RMK AO2 UPB46E48 SLP995 P0002 T00280011 $
0261726115547402025010114047+43342-072521FM-16+0176KVSF V0209999C00005004575MN0040235N5+00285+00115999999ADDAA101000021AU110020015AU200001015AW1105AW2615GA1085+004575999GD14991+0045759GE19AGL   +99999+99999GF199999999999004571999999MA1099905097825MW1615REMMET10401/01/25 09:04:02 SPECI KVSF 011404Z 00000KT 2 1/2SM -RA BR OVC015 03/01 A2950 RMK AO2 P0000 T00280011 $
0261726115547402025010114197+43342-072521FM-16+0176KVSF V0200605N00265004575MN0024145N5+00285+00115999999ADDAA101000231AU110020015AU200001015AW1105AW2615GA1085+004575999GD14991+0045759GE19AGL   +99999+99999GF199999999999004571999999MA1099905097825MW1615REMMET10401/01/25 09:19:02 SPECI KVSF 011419Z 06005KT 1 1/2SM -RA BR OVC015 03/01 A2950 RMK AO2 P0001 T00280011 $
0193726115547402025010114526+43342-072521FM-16+0176KVSF V0209999C00005005795MN0032195N5+00305+00205999999ADDAU110020015AU200001015AW1105AW2615GA1085+005795999GD14991+0057959MA1099905097825MW1615REMMET09501/01/25 09:52:02 SPECI KVSF 011452Z 00000KT 2SM -RA BR OVC019 03/02 A2950 RMK AO2 P0003 $ FIBI
0320726115547402025010114547+43342-072521FM-15+0176KVSF V0209999C00005005795MN0032195N5+00285+00175099965ADDAA101000895AA203001591AU110020015AU200001015AW1105AW2615GA1085+005795999GD14991+0057959GE19AGL   +99999+99999GF199999999999005791999999MA1099905097825MD1590039+9999MW1615REMMET11901/01/25 09:54:02 METAR KVSF 011454Z 00000KT 2SM -RA BR OVC019 03/02 A2950 RMK AO2 SLP996 P0003 60006 T00280017 55003 $EQDQ01  00158PRCP03
0261726115547402025010115117+43342-072521FM-16+0176KVSF V0209999C00005005795MN0028165N5+00285+00175999999ADDAA101000021AU110020015AU200001015AW1105AW2615GA1085+005795999GD14991+0057959GE19AGL   +99999+99999GF199999999999005791999999MA1099905097825MW1615REMMET10401/01/25 10:11:02 SPECI KVSF 011511Z 00000KT 1 3/4SM -RA BR OVC019 03/02 A2950 RMK AO2 P0000 T00280017 $
0299726115547402025010115187+43342-072521FM-16+0176KVSF V0209999C00005005795MN0040235N5+00285+00175999999ADDAA101000231AU110020015AU200001015AW1105AW2615GA1025+001225999GA2085+005795999GD11991+0012259GD24991+0057959GE19AGL   +99999+99999GF199999999999001221999999MA1099905097825MW1615REMMET11101/01/25 10:18:02 SPECI KVSF 011518Z 00000KT 2 1/2SM -RA BR FEW004 OVC019 03/02 A2950 RMK AO2 P0001 T00280017 $
0333726115547402025010115377+43342-072521FM-16+0176KVSF V0209999C00005001225MN0032195N5+00285+00175999999ADDAA101000231AU110020015AU200001015AW1105AW2615GA1075+001225999GA2075+003055999GA3085+006405999GD13991+0012259GD23991+0030559GD34991+0064059GE19AGL   +99999+99999GF199999999999001221999999MA1099865097795MW1615REMMET11401/01/25 10:37:02 SPECI KVSF 011537Z 00000KT 2SM -RA BR BKN004 BKN010 OVC021 03/02 A2949 RMK AO2 P0001 T00280017 $
0344726115547402025010115547+43342-072521FM-15+0176KVSF V0209999C00005001225MN0040235N5+00285+00175099905ADDAA101000595AU110020015AU200001015AW1105AW2615GA1075+001225999GA2075+003055999GA3085+004885999GD13991+0012259GD23991+0030559GD34991+0048859GE19AGL   +99999+99999GF199999999999001221999999MA1099835097765MW1615REMMET12501/01/25 10:54:02 METAR KVSF 011554Z 00000KT 2 1/2SM -RA BR BKN004 BKN010 OVC016 03/02 A2948 RMK AO2 SLP990 P0001 T00280017 $
0333726115547402025010116027+43342-072521FM-16+0176KVSF V0209999C00005000915MN0048285N5+00285+00225999999ADDAA101000231AU110020015AU200001015AW1105AW2615GA1075+000915999GA2075+004275999GA3085+006105999GD13991+0009159GD23991+0042759GD34991+0061059GE19AGL   +99999+99999GF199999999999000911999999MA1099835097765MW1615REMMET11401/01/25 11:02:02 SPECI KVSF 011602Z 00000KT 3SM -RA BR BKN003 BKN014 OVC020 03/02 A2948 RMK AO2 P0001 T00280022 $
0333726115547402025010116397+43342-072521FM-16+0176KVSF V0209999C00005003965MN0048285N5+00335+00225999999ADDAA101000231AU110020015AU200001015AW1105AW2615GA1045+000915999GA2075+003965999GA3085+008535999GD12991+0009159GD23991+0039659GD34991+0085359GE19AGL   +99999+99999GF199999999999000911999999MA1099765097695MW1615REMMET11401/01/25 11:39:02 SPECI KVSF 011639Z 00000KT 3SM -RA BR SCT003 BKN013 OVC028 03/02 A2946 RMK AO2 P0001 T00330022 $
0333726115547402025010116457+43342-072521FM-16+0176KVSF V0202205N00155009145MN0064375N5+00335+00225999999ADDAA101000231AU110020015AU200001015AW1105AW2615GA1025+000915999GA2045+003055999GA3085+009145999GD11991+0009159GD22991+0030559GD34991+0091459GE19AGL   +99999+99999GF199999999999000911999999MA1099765097695MW1615REMMET11401/01/25 11:45:02 SPECI KVSF 011645Z 22003KT 4SM -RA BR FEW003 SCT010 OVC030 03/02 A2946 RMK AO2 P0001 T00330022 $
0261726115547402025010116547+43342-072521FM-15+0176KVSF V0209999C00005009145MN0128755N5+00335+00225099815ADDAA101000025GA1025+003355999GA2085+009145999GD11991+0033559GD24991+0091459GE19AGL   +99999+99999GF199999999999003351999999MA1099765097695REMMET11301/01/25 11:54:02 METAR KVSF 011654Z 00000KT 8SM FEW011 OVC030 03/02 A2946 RMK AO2 RAE48 SLP981 P0001 T00330022 $
0269726115547402025010117237+43342-072521FM-16+0176KVSF V0209999C00005010365MN0128755N5+00395+00285999999ADDGA1045+002445999GA2075+010365999GA3085+012805999GD12991+0024459GD23991+0103659GD34991+0128059GE19AGL   +99999+99999GF199999999999002441999999MA1099705097625REMMET10101/01/25 12:23:02 SPECI KVSF 011723Z 00000KT 8SM SCT008 BKN034 OVC042 04/03 A2944 RMK AO2 T00390028 $
0270726115547402025010117357+43342-072521FM-16+0176KVSF V0209999C00005001835MN0160935N5+00445+00285999999ADDGA1075+001835999GA2075+009455999GA3085+012805999GD13991+0018359GD23991+0094559GD34991+0128059GE19AGL   +99999+99999GF199999999999001831999999MA1099665097595REMMET10201/01/25 12:35:02 SPECI KVSF 011735Z 00000KT 10SM BKN006 BKN031 OVC042 04/03 A2943 RMK AO2 T00440028 $
0337726115547402025010117547+43342-072521FM-15+0176KVSF V0202405N00155003355MN0160935N5+00445+00225099725ADDAA101000095AA206002091GA1025+001835999GA2085+003355999GD11991+0018351GD24991+0033559GE19AGL   +99999+99999GF199999999999001831999999KA1060M+00501KA2060N+00221MA1099665097595MD1890239+9999REMMET13801/01/25 12:54:02 METAR KVSF 011754Z 24003KT 10SM FEW006 OVC011 04/02 A2943 RMK AO2 CIG 007V014 SLP972 60008 T00440022 10050 20022 58023 $
0288726115547402025010118547+43342-072521FM-15+0176KVSF V0209999C00005007325MN0160935N5+00445+00225099675ADDAA101000095GA1045+003055999GA2075+007325999GA3085+014635999GD12991+0030559GD23991+0073259GD34991+0146359GE19AGL   +99999+99999GF199999999999003051999999MA1099635097565REMMET10901/01/25 13:54:02 METAR KVSF 011854Z 00000KT 10SM SCT010 BKN024 OVC048 04/02 A2942 RMK AO2 SLP967 T00440022 $
0232726115547402025010119526+43342-072521FM-16+0176KVSF V0209999C00005011585MN0160935N5+00405+00205999999ADDGA1045+006105999GA2075+011585999GA3085+014335999GD12991+0061059GD23991+0115859GD34991+0143359MA1099635097565REMMET11201/01/25 14:52:02 SPECI KVSF 011952Z 00000KT 10SM SCT020 BKN038 OVC047 04/02 A2942 RMK AO2 RAB28E46 P0000 $ FIBI
0303726115547402025010119547+43342-072521FM-15+0176KVSF V0209999C00005010975MN0160935N5+00395+00285099675ADDAA101000025GA1045+006105999GA2075+010975999GA3085+014335999GD12991+0061059GD23991+0109759GD34991+0143359GE19AGL   +99999+99999GF199999999999006101999999MA1099635097565REMMET12401/01/25 14:54:02 METAR KVSF 011954Z 00000KT 10SM SCT020 BKN036 OVC047 04/03 A2942 RMK AO2 RAB28E46 SLP967 P0000 T00390028 $
0270726115547402025010120157+43342-072521FM-16+0176KVSF V0209999C00005007925MN0160935N5+00395+00225999999ADDGA1075+007925999GA2075+010065999GA3085+014635999GD13991+0079259GD23991+0100659GD34991+0146359GE19AGL   +99999+99999GF199999999999007921999999MA1099635097565REMMET10201/01/25 15:15:02 SPECI KVSF 012015Z 00000KT 10SM BKN026 BKN033 OVC048 04/02 A2942 RMK AO2 T00390022 $
0232726115547402025010120427+43342-072521FM-16+0176KVSF V0209999C00005002745MN0160935N5+00445+00225999999ADDGA1075+002745999GA2085+007625999GD13991+0027459GD24991+0076259GE19AGL   +99999+99999GF199999999999002741999999MA1099635097565REMMET09501/01/25 15:42:02 SPECI KVSF 012042Z 00000KT 10SM BKN009 OVC025 04/02 A2942 RMK AO2 T00440022 $
0299726115547402025010120547+43342-072521FM-15+0176KVSF V0201105N00155002745MN0160935N5+00395+00225099695ADDAA101000095AA203000021GA1075+002745999GA2085+007015999GD13991+0027451GD24991+0070159GE19AGL   +99999+99999GF199999999999002741999999MA1099635097565MD1590039+9999REMMET12601/01/25 15:54:02 METAR KVSF 012054Z 11003KT 10SM BKN009 OVC023 04/02 A2942 RMK AO2 CIG 008V011 SLP969 60000 T00390022 55003 $
0232726115547402025010121027+43342-072521FM-16+0176KVSF V0200905N00155006405MN0160935N5+00335+00225999999ADDGA1045+002745999GA2085+006405999GD12991+0027459GD24991+0064059GE19AGL   +99999+99999GF199999999999002741999999MA1099635097565REMMET09501/01/25 16:02:02 SPECI KVSF 012102Z 09003KT 10SM SCT009 OVC021 03/02 A2942 RMK AO2 T00330022 $
0250726115547402025010121547+43342-072521FM-15+0176KVSF V0202105N00215008235MN0160935N5+00395+00175099715ADDAA101000095GA1075+008235999GA2085+010675999GD13991+0082359GD24991+0106759GE19AGL   +99999+99999GF199999999999008231999999MA1099665097595REMMET10201/01/25 16:54:02 METAR KVSF 012154Z 21004KT 10SM BKN027 OVC035 04/02 A2943 RMK AO2 SLP971 T00390017 $
0270726115547402025010122147+43342-072521FM-16+0176KVSF V0209999C00005011585MN0160935N5+00335+00175999999ADDGA1045+007925999GA2075+011585999GA3085+014335999GD12991+0079259GD23991+0115859GD34991+0143359GE19AGL   +99999+99999GF199999999999007921999999MA1099665097595REMMET10201/01/25 17:14:02 SPECI KVSF 012214Z 00000KT 10SM SCT026 BKN038 OVC047 03/02 A2943 RMK AO2 T00330017 $
0232726115547402025010122447+43342-072521FM-16+0176KVSF V0209999C00005008235MN0160935N5+00335+00175999999ADDGA1075+008235999GA2085+010065999GD13991+0082359GD24991+0100659GE19AGL   +99999+99999GF199999999999008231999999MA1099665097595REMMET09501/01/25 17:44:02 SPECI KVSF 012244Z 00000KT 10SM BKN027 OVC033 03/02 A2943 RMK AO2 T00330017 $
0250726115547402025010122547+43342-072521FM-15+0176KVSF V0201905N00215008235MN0160935N5+00285+00115099725ADDAA101000095GA1075+008235999GA2085+010675999GD13991+0082359GD24991+0106759GE19AGL   +99999+99999GF199999999999008231999999MA1099665097595REMMET10201/01/25 17:54:02 METAR KVSF 012254Z 19004KT 10SM BKN027 OVC035 03/01 A2943 RMK AO2 SLP972 T00280011 $
0270726115547402025010123057+43342-072521FM-16+0176KVSF V0202105N00215009145MN0160935N5+00335+00115999999ADDGA1045+007325999GA2075+009145999GA3085+010675999GD12991+0073259GD23991+0091459GD34991+0106759GE19AGL   +99999+99999GF199999999999007321999999MA1099665097595REMMET10201/01/25 18:05:02 SPECI KVSF 012305Z 21004KT 10SM SCT024 BKN030 OVC035 03/01 A2943 RMK AO2 T00330011 $
0232726115547402025010123377+43342-072521FM-16+0176KVSF V0202405N00415008845MN0160935N5+00395+00115999999ADDGA1075+008845999GA2085+010675999GD13991+0088459GD24991+0106759GE19AGL   +99999+99999GF199999999999008841999999MA1099705097625REMMET09501/01/25 18:37:02 SPECI KVSF 012337Z 24008KT 10SM BKN029 OVC035 04/01 A2944 RMK AO2 T00390011 $
0260726115547402025010123517+43342-072521FM-16+0176KVSF V0202405N00315012195MN0160935N5+00405+00105999999ADDGA1045+008845999GA2075+012195999GA3085+018295999GD12991+0088459GD23991+0121959GD34991+0182959GE19AGL   +99999+99999GF199999999999008841999999MA1099705097625REMMET09201/01/25 18:51:02 SPECI KVSF 012351Z 24006KT 10SM SCT029 BKN040 OVC060 04/01 A2944 RMK AO2 $
0363726115547402025010123547+43342-072521FM-15+0176KVSF V0202505N00415012195MN0160935N5+00395+00065099735ADDAA101000095AA206000021GA1025+008845999GA2075+012195999GA3085+018295999GD11991+0088459GD23991+0121959GD34991+0182959GE19AGL   +99999+99999GF199999999999008841999999KA1060M+00441KA2060N+00281MA1099705097625MD1390029+9999REMMET13301/01/25 18:54:02 METAR KVSF 012354Z 25008KT 10SM FEW029 BKN040 OVC060 04/01 A2944 RMK AO2 SLP973 60000 T00390006 10044 20028 53002 $
0339726115547402025010200547+43342-072521FM-15+0176KVSF V0202705N00415027435MN0160935N5+00395-00065099765ADDAA101000025AU110020015AW1615GA1045+008535999GA2045+014335999GA3075+027435999GD12991+0085359GD22991+0143359GD33991+0274359GE19AGL   +99999+99999GF199999999999008531999999MA1099735097665MW1615OC100885REMMET12901/01/25 19:54:01 METAR KVSF 020054Z 27008G17KT 10SM -RA SCT028 SCT047 BKN090 04/M01 A2945 RMK AO2 RAB54 SLP976 P0000 T00391006 $
0282726115547402025010201547+43342-072521FM-15+0176KVSF V0202805N003152200059N0160935N5+00335-00115099785ADDAA101000025GA1025+007625999GA2045+028965999GD11991+0076259GD22991+0289659GE19AGL   +99999+99999GF104995999999007621999999MA1099735097665REMMET11501/01/25 20:54:01 METAR KVSF 020154Z 28006KT 10SM FEW025 SCT095 03/M01 A2945 RMK AO2 RAE03 SLP978 P0000 T00331011 $EQDD01      0ADE726
0299726115547402025010202547+43342-072521FM-15+0176KVSF V0202805N00365013725MN0160935N5+00335-00225099805ADDAA101000095AA203000021GA1045+011285999GA2075+013725999GD12991+0112859GD23991+0137259GE19AGL   +99999+99999GF199999999999011281999999MA1099765097695MD1190069+9999OC100775REMMET11801/01/25 21:54:01 METAR KVSF 020254Z 28007G15KT 10SM SCT037 BKN045 03/M02 A2946 RMK AO2 SLP980 60000 T00331022 51006 $
0277726115547402025010203547+43342-072521FM-15+0176KVSF V0202505N00415010975MN0160935N5+00285-00175099815ADDAA101000025GA1075+010975999GA2075+036585999GD13991+0109759GD23991+0365859GE19AGL   +99999+99999GF199999999999010971999999MA1099765097695OC100985REMMET12101/01/25 22:54:02 METAR KVSF 020354Z 25008G19KT 10SM BKN036 BKN120 03/M02 A2946 RMK AO2 RAB12E31 SLP981 P0000 T00281017 $
0336726115547402025010204547+43342-072521FM-15+0176KVSF V0202705N00625010675MN0160935N5+00225-00175099825ADDAA101000095GA1025+008235999GA2075+010675999GA3085+030485999GD11991+0082359GD23991+0106759GD34991+0304859GE19AGL   +99999+99999GF199999999999008231999999KA1240M+00501KA2240N-00171MA1099765097695OC100935REMMET12301/01/25 23:54:02 METAR KVSF 020454Z 27012G18KT 10SM FEW027 BKN035 OVC100 02/M02 A2946 RMK AO2 SLP982 T00221017 400501017 $
0958726115547402025010204596+43342-072521SOD  +0176KVSF V020999999999999999999999999999+99999+99999999999ADDAA124012795AT1AU03TS  5AT2AU16RA  5AT3AU17FZRA5AT4AU18SN  5AT5AU13BR  5AT6AU19UP  5KA1240M+00505KA2240N-00165MG1097874099664OE11240129629020115OE22240067126022475OE33240020699999995REMSOD73024 HR PRECIPITATION (IN):0.50  24 HR MAX TEMP (F):41 24 HR MAX TEMP TIME (LST):1231 24 HR MIN TEMP (F):29 24 HR MIN TEMP TIME (LST):0021 AVERAGE STATION PRESSURE:28.900 MINIMUM SEA LEVEL PRESSURE:29.43 TIME OF OCCURRENCE:1542 PEAK WIND SPEED (MPH):29  PEAK WIND DIR (DEG):290 PEAK WIND TIME (LST):2011  FASTEST 2MIN SPEED (MPH):15 FASTEST 2MIN DIR (DEG):260 FASTEST 2MIN TIME (LST):2247 AVERAGE WIND SPEED (MPH):4.6  24 HR AVG TEMP (F):35 HEATING DEGREE DAYS:30  COOLING DEGREE DAYS:0   LATEST DAY MAX TEMP (0700-1900 LST):41  LATEST NIGHT MIN TEMP(1900-0800 LST):29 HOURLY INCREMENTAL PRECIPITATION VALUES (IN):.00 T    T    0.24 0.06 0.09 0.03 0.01 0.02 0.03 0.02 T    0.00 0.00 T    0.00 0.00 0.00 0.00 T    T    0.00 T    0.00EQDR01     N7GJS072R02     N7GKS075
0383726115547402025010205547+43342-072521FM-15+0176KVSF V0202405N00415009145MN0144845N5+00175-00225099845ADDAA101000025AA206000021AU110030015AW1715GA1075+009145999GA2085+011285999GD13991+0091459GD24991+0112859GE19AGL   +99999+99999GF199999999999009141999999KA1060M+00391KA2060N+00171MA1099805097725MD1390049+9999MW1715REMMET14201/02/25 00:54:02 METAR KVSF 020554Z 24008KT 9SM -SN BKN030 OVC037 02/M02 A2947 RMK AO2 SNB13 SLP984 P0000 60000 T00171022 10039 20017 53004 $EQDQ01  00008PRCP06
0331726115547402025010206547+43342-072521FM-15+0176KVSF V0202505N00365010675MN0160935N5+00175-00335099925ADDAA101000025AU110030015AW1715GA1025+008535999GA2075+010675999GA3085+028965999GD11991+0085359GD23991+0106759GD34991+0289659GE19AGL   +99999+99999GF199999999999008531999999MA1099865097795MW1715REMMET12901/02/25 01:54:02 METAR KVSF 020654Z 25007KT 10SM -SN FEW028 BKN035 OVC095 02/M03 A2949 RMK AO2 SNE14B54 SLP992 P0000 T00171033 $
0245726115547402025010207547+43342-072521FM-15+0176KVSF V0202605N00215009455MN0080475N5+00115-00335099985ADDAA101000025AU110030015AW1715GA1085+009455999GD14991+0094559GE19AGL   +99999+99999GF199999999999009451999999MA1099935097865MW1715REMMET10501/02/25 02:54:02 METAR KVSF 020754Z 26004KT 5SM -SN OVC031 01/M03 A2951 RMK AO2 SLP998 P0000 T00111033 $
0350726115547402025010208547+43342-072521FM-15+0176KVSF V0209999V00265011285MN0112655N5+00065-00395100005ADDAA101000396AA203000022AU110030015AW1715GA1045+009145999GA2085+011285999GD12991+0091459GD24991+0112859GE19AGL   +99999+99999GF199999999999009141999999MA1099935097865MD1190159+9999MW1715OC101035REMMET12701/02/25 03:54:02 METAR KVSF 020854Z VRB05G20KT 7SM -SN SCT030 OVC037 01/M04 A2951 RMK AO2 SLP000 P0000 60000 T00061039 51015 $EQDQ01  00008PRCP03
0319726115547402025010209437+43342-072521FM-16+0176KVSF V0202705N00725008535MN0048285N5+00005-00395999999ADDAA101000231AU110030015AW1715GA1025+007015999GA2085+008535999GD11991+0070159GD24991+0085359GE19AGL   +99999+99999GF199999999999007011999999MA1100005097925MW1715OC101245OD149901801290REMMET12601/02/25 04:43:02 SPECI KVSF 020943Z 27014G24KT 3SM -SN FEW023 OVC028 00/M04 A2953 RMK AO2 PK WND 29035/0914 P0001 T00001039 $
0207726115547402025010209526+43342-072521FM-16+0176KVSF V0202705N00575008535MN0040235N5+00005-00405999999ADDAU110030015AW1715GA1085+008535999GD14991+0085359MA1100005097925MW1715OC101185REMMET11801/02/25 04:52:02 SPECI KVSF 020952Z 27011G23KT 2 1/2SM -SN OVC028 00/M04 A2953 RMK AO2 PK WND 29035/0914 P0001 $ FIBI
0292726115547402025010209547+43342-072521FM-15+0176KVSF V0202605N00675008535MN0040235N5+00005-00395100035ADDAA101000025AU110030015AW1715GA1085+008535999GD14991+0085359GE19AGL   +99999+99999GF199999999999008531999999MA1099975097895MW1715OC101185OD149901801290REMMET13001/02/25 04:54:02 METAR KVSF 020954Z 26013G23KT 2 1/2SM -SN OVC028 00/M04 A2952 RMK AO2 PK WND 29035/0914 SLP003 P0001 T00001039 $
0285726115547402025010210227+43342-072521FM-16+0176KVSF V0202705N00885006715MN0028165N5+00005-00395999999ADDAA101000021AU110030015AW1715GA1085+006715999GD14991+0067159GE19AGL   +99999+99999GF199999999999006711999999MA1100005097925MW1715OC101605OD149901641250REMMET12301/02/25 05:22:02 SPECI KVSF 021022Z 27017G31KT 1 3/4SM -SN OVC022 00/M04 A2953 RMK AO2 PK WND 25032/1012 P0000 T00001039 $
0281726115547402025010210317+43342-072521FM-16+0176KVSF V0202705N01035006715MN0032195N5+00005-00445999999ADDAA101000021AU110030015AW1715GA1085+006715999GD14991+0067159GE19AGL   +99999+99999GF199999999999006711999999MA1100005097925MW1715OC101855OD149901851260REMMET11901/02/25 05:31:02 SPECI KVSF 021031Z 27020G36KT 2SM -SN OVC022 00/M04 A2953 RMK AO2 PK WND 26036/1029 P0000 T00001044 $
0292726115547402025010210547+43342-072521FM-15+0176KVSF V0202605N00825006715MN0040235N5+00005-00445100115ADDAA101000025AU110030015AW1715GA1075+006715999GD13991+0067159GE19AGL   +99999+99999GF199999999999006711999999MA1100075097995MW1715OC101445OD149901851260REMMET13001/02/25 05:54:02 METAR KVSF 021054Z 26016G28KT 2 1/2SM -SN BKN022 00/M04 A2955 RMK AO2 PK WND 26036/1029 SLP011 P0000 T00001044 $
0281726115547402025010211027+43342-072521FM-16+0176KVSF V0202605N00885007325MN0048285N5+00005-00445999999ADDAA101000021AU110030015AW1715GA1075+007325999GD13991+0073259GE19AGL   +99999+99999GF199999999999007321999999MA1100075097995MW1715OC101445OD149901441260REMMET11901/02/25 06:02:02 SPECI KVSF 021102Z 26017G28KT 3SM -SN BKN024 00/M04 A2955 RMK AO2 PK WND 26028/1058 P0000 T00001044 $
0275726115547402025010211507+43342-072521FM-16+0176KVSF V0202805N01135008845MN0040235N5+00005-00605999999ADDAA101000021AU110030015AW1715GA1085+008845999GD14991+0088459GE19AGL   +99999+99999GF199999999999008841999999MA1100145098065MW1715OC101905OD149901901290REMMET11301/02/25 06:50:02 SPECI KVSF 021150Z 28022G37KT 2 1/2SM -SN OVC029 00/M06 A2957 RMK AO2 PK WND 29037/1149 P0000 $
0419726115547402025010211547+43342-072521FM-15+0176KVSF V0202805N01035009455MN0040235N5+00005-00565100185ADDAA101000025AA206000391AA324002391AU110030015AW1715GA1085+009455999GD14991+0094559GE19AGL   +99999+99999GF199999999999009451999999KA1060M+00221KA2060N-00061MA1100145098065MD1190149+9999MW1715OC102015OD149902001260REMMET16001/02/25 06:54:02 METAR KVSF 021154Z 28020G39KT 2 1/2SM -SN OVC031 00/M06 A2957 RMK AO2 PK WND 26039/1151 SLP018 P0000 60001 70009 T00001056 10022 21006 51014 $EQDQ01  00028PRCP06Q02  00228PRCP24
0281726115547402025010212017+43342-072521FM-16+0176KVSF V0202805N01035009455MN0048285N5+00005-00565999999ADDAA101000021AU110030015AW1715GA1085+009455999GD14991+0094559GE19AGL   +99999+99999GF199999999999009451999999MA1100145098065MW1715OC101655OD149901641290REMMET11901/02/25 07:01:02 SPECI KVSF 021201Z 28020G32KT 3SM -SN OVC031 00/M06 A2957 RMK AO2 PK WND 29032/1201 P0000 T00001056 $
0302726115547402025010212547+43342-072521FM-15+0176KVSF V0202805N01135011895MN0128755N5+00065-00675100315ADDAA101000025AU120090015AW1401AW2415GA1085+011895999GD14991+0118959GE19AGL   +99999+99999GF199999999999011891999999MA1100245098165OC101705OD149902111260REMMET14001/02/25 07:54:02 METAR KVSF 021254Z 28022G33KT 8SM UP OVC039 01/M07 A2960 RMK AO2 PK WND 26041/1220 UPB32SNE32B39E54 SLP031 P0000 T00061067
0312726115547402025010213547+43342-072521FM-15+0176KVSF V0202905N00825014335MN0160935N5+00115-00835100415ADDAA101000025GA1075+014335999GA2085+016765999GD13991+0143359GD24991+0167659GE19AGL   +99999+99999GF199999999999014331999999MA1100375098295OC101755OD149901801280REMMET14201/02/25 08:54:02 METAR KVSF 021354Z 29016G34KT 10SM BKN047 OVC055 01/M08 A2964 RMK AO2 PK WND 28035/1327 UPE1256B15E29 SLP041 P0000 T00111083
0310726115547402025010214547+43342-072521FM-15+0176KVSF V0202805N008852200059N0160935N5+00175-00835100495ADDAA101000095AA203000021GA1045+015245999GD12991+0152459GE19AGL   +99999+99999GF104995999999015241999999MA1100445098365MD1190319+9999OC101395OD149901591300REMMET12701/02/25 09:54:02 METAR KVSF 021454Z 28017G27KT 10SM SCT050 02/M08 A2966 RMK AO2 PK WND 30031/1413 SLP049 60000 T00171083 51031EQDD01      0ADE726
0273726115547402025010215547+43342-072521FM-15+0176KVSF V0202705N009852200059N0160935N5+00225-00835100515ADDAA101000095GA1025+014635999GD11991+0146359GE19AGL   +99999+99999GF102995999999014631999999MA1100445098365OC101705OD149901801240REMMET11501/02/25 10:54:02 METAR KVSF 021554Z 27019G33KT 10SM FEW048 02/M08 A2966 RMK AO2 PK WND 24035/1538 SLP051 T00221083EQDD01      0ADE726
0273726115547402025010216547+43342-072521FM-15+0176KVSF V0202705V008852200059N0160935N5+00285-00945100475ADDAA101000095GA1025+016765999GD11991+0167659GE19AGL   +99999+99999GF102995999999016761999999MA1100415098325OC102275OD149902261270REMMET11501/02/25 11:54:02 METAR KVSF 021654Z 27017G44KT 10SM FEW055 03/M09 A2965 RMK AO2 PK WND 27044/1652 SLP047 T00281094EQDD01      0ADE726
0348726115547402025010217547+43342-072521FM-15+0176KVSF V0202805N009352200059N0160935N5+00335-00945100425ADDAA101000095AA206000021GA1045+018295999GD12991+0182959GE19AGL   +99999+99999GF104995999999018291999999KA1060M+00331KA2060N+00001MA1100375098295MD1890079+9999OC101605OD149902001270REMMET13901/02/25 12:54:02 METAR KVSF 021754Z 28018G31KT 10SM SCT060 03/M09 A2964 RMK AO2 PK WND 27039/1702 SLP042 60000 T00331094 10033 20000 58007EQDD01      0ADE726
0273726115547402025010218547+43342-072521FM-15+0176KVSF V0203005N008852200059N0160935N5+00335-01065100435ADDAA101000095GA1025+018295999GD11991+0182959GE19AGL   +99999+99999GF102995999999018291999999MA1100375098295OC101655OD149902211290REMMET11501/02/25 13:54:02 METAR KVSF 021854Z 30017G32KT 10SM FEW060 03/M11 A2964 RMK AO2 PK WND 29043/1818 SLP043 T00331106EQDD01      0ADE726
0215726115547402025010219547+43342-072521FM-15+0176KVSF V0202905N006752200059N0160935N5+00285-01115100475ADDAA101000095GA1005+999999999GD10991+9999999GF100991999999999999999999MA1100415098325OC101495REMMET11201/02/25 14:54:02 METAR KVSF 021954Z 29013G29KT 10SM CLR 03/M11 A2965 RMK AO2 PK WND 28038/1858 SLP047 T00281111
0235726115547402025010220547+43342-072521FM-15+0176KVSF V0202805N008252200059N0160935N5+00225-01115100505ADDAA101000095GA1005+999999999GD10991+9999999GF100991999999999999999999MA1100445098365MD1390079+9999OC101395REMMET11801/02/25 15:54:02 METAR KVSF 022054Z 28016G27KT 10SM CLR 02/M11 A2966 RMK AO2 PK WND 30035/2008 SLP050 T00221111 53007
0215726115547402025010221547+43342-072521FM-15+0176KVSF V0202705N008852200059N0160935N5+00175-01115100555ADDAA101000095GA1005+999999999GD10991+9999999GF100991999999999999999999MA1100475098395OC101395REMMET11201/02/25 16:54:02 METAR KVSF 022154Z 27017G27KT 10SM CLR 02/M11 A2967 RMK AO2 PK WND 28030/2139 SLP055 T00171111
0254726115547402025010222547+43342-072521FM-15+0176KVSF V0202605N00825019815MN0160935N5+00175-01005100605ADDAA101000095GA1075+019815999GD13991+0198159GE19AGL   +99999+99999GF199999999999019811999999MA1100545098465OC101545OD149901591250REMMET11501/02/25 17:54:02 METAR KVSF 022254Z 26016G30KT 10SM BKN065 02/M10 A2969 RMK AO2 PK WND 25031/2231 SLP060 T00171100
0350726115547402025010223547+43342-072521FM-15+0176KVSF V0202605N00935022865MN0160935N5+00175-01065100605ADDAA101000095GA1045+019815999GA2075+022865999GD12991+0198159GD23991+0228659GE19AGL   +99999+99999GF199999999999019811999999KA1060M+00331KA2060N+00111MA1100545098465MD1090089+9999OC101495OD149901491280REMMET14001/02/25 18:54:02 METAR KVSF 022354Z 26018G29KT 10SM SCT065 BKN075 02/M11 A2969 RMK AO2 PK WND 28029/2351 SLP060 T00171106 10033 20011 50008
0269726115547402025010300547+43342-072521FM-15+0176KVSF V0202605V00515014635MN0160935N5+00115-00835100615ADDAA101000025GA1085+014635999GD14991+0146359GE19AGL   +99999+99999GF199999999999014631999999MA1100545098465OC101135OD149901691250REMMET13001/02/25 19:54:01 METAR KVSF 030054Z 26010G22KT 10SM OVC048 01/M08 A2969 RMK AO2 PK WND 25033/0019 RAB21E50 SLP061 P0000 T00111083
0254726115547402025010301547+43342-072521FM-15+0176KVSF V0202605V00465012805MN0160935N5+00065-00725100615ADDAA101000095GA1085+012805999GD14991+0128059GE19AGL   +99999+99999GF199999999999012801999999MA1100545098465OC100935OD149901331250REMMET11501/02/25 20:54:01 METAR KVSF 030154Z 26009G18KT 10SM OVC042 01/M07 A2969 RMK AO2 PK WND 25026/0122 SLP061 T00061072
0306726115547402025010302547+43342-072521FM-15+0176KVSF V0202505N00315011285MN0096565N5-00065-00505100575ADDAA101000025AA203000021AU110030015AW1715GA1085+011285999GD14991+0112859GE19AGL   +99999+99999GF199999999999011281999999MA1100515098425MD1890029+9999MW1715REMMET12201/02/25 21:54:01 METAR KVSF 030254Z 25006KT 6SM -SN OVC037 M01/M05 A2968 RMK AO2 SNB01 SLP057 P0000 60000 T10061050 58002EQDQ01  00008PRCP03
0255726115547402025010303547+43342-072521FM-15+0176KVSF V0202705V00465010065MN0064375N5-00065-00565100565ADDAA101000025AU110030015AW1715GA1085+010065999GD14991+0100659GE19AGL   +99999+99999GF199999999999010061999999MA1100515098425MW1715OC101185REMMET10701/02/25 22:54:02 METAR KVSF 030354Z 27009G23KT 4SM -SN OVC033 M01/M06 A2968 RMK AO2 SLP056 P0000 T10061056
0291726115547402025010304547+43342-072521FM-15+0176KVSF V0202605N00675011285MN0064375N5-00065-00615100565ADDAA101000025AU110030015AW1715GA1085+011285999GD14991+0112859GE19AGL   +99999+99999GF199999999999011281999999KA1240M+00331KA2240N-00061MA1100515098425MW1715OC100985REMMET11701/02/25 23:54:02 METAR KVSF 030454Z 26013G19KT 4SM -SN OVC037 M01/M06 A2968 RMK AO2 SLP056 P0000 T10061061 400331006
0923726115547402025010304596+43342-072521SOD  +0176KVSF V020999999999999999999999999999+99999+99999999999ADDAA124000395AT1AU18SN  5AT2AU19UP  5KA1240M+00335KA2240N-00055MG1098124099804OE11240223527011526OE22240143129013195OE33240069799999995REMSOD72724 HR PRECIPITATION (IN):0.01  24 HR MAX TEMP (F):38 24 HR MAX TEMP TIME (LST):1355 24 HR MIN TEMP (F):31 24 HR MIN TEMP TIME (LST):2359 AVERAGE STATION PRESSURE:28.975 MINIMUM SEA LEVEL PRESSURE:29.47 TIME OF OCCURRENCE:0012 PEAK WIND SPEED (MPH):50  PEAK WIND DIR (DEG):270 PEAK WIND TIME (LST):1152  FASTEST 2MIN SPEED (MPH):32 FASTEST 2MIN DIR (DEG):290 FASTEST 2MIN TIME (LST):1319 AVERAGE WIND SPEED (MPH):15.6 24 HR AVG TEMP (F):35 HEATING DEGREE DAYS:30  COOLING DEGREE DAYS:0   LATEST DAY MAX TEMP (0700-1900 LST):38  LATEST NIGHT MIN TEMP(1900-0800 LST):31 HOURLY INCREMENTAL PRECIPITATION VALUES (IN):    T    T    0.01 T    T    T    T    T    0.00 0.00 0.00 0.00 0.00 0.00 0.00 0.00 0.00 0.00 T    0.00 T    T    TEQDR01     N7GJS072R02     N7GKS075R03    507OES063
0346726115547402025010305547+43342-072521FM-15+0176KVSF V0202605N00825014945MN0144845N5+00005-00725100535ADDAA101000025AA206000021GA1085+014945999GD14991+0149459GE19AGL   +99999+99999GF199999999999014941999999KA1060M+00171MA1100475098395MD1690039+9999OC101245OD149901541260REMMET15001/03/25 00:54:02 METAR KVSF 030554Z 26016G24KT 9SM OVC049 00/M07 A2967 RMK AO2 PK WND 26030/0528 SNE51 SLP053 P0000 60000 T00001072 10017 21006 56003EQDQ01  00008PRCP06
0293726115547402025010306547+43342-072521FM-15+0176KVSF V0202605N00775018295MN0160935N5-00065-00785100595ADDAA101000095GA1025+014335999GA2085+018295999GD11991+0143359GD24991+0182959GE19AGL   +99999+99999GF199999999999014331999999MA1100545098465OC101245OD149901441250REMMET12301/03/25 01:54:02 METAR KVSF 030654Z 26015G24KT 10SM FEW047 OVC060 M01/M08 A2969 RMK AO2 PK WND 25028/0628 SLP059 T10061078
0358726115547402025010307547+43342-072521FM-15+0176KVSF V0202505N00575015245MN0144845N5-00065-00725100635ADDAA101000025AU110030015AW1715GA1045+012195999GA2075+015245999GA3085+018295999GD12991+0121959GD23991+0152459GD34991+0182959GE19AGL   +99999+99999GF199999999999012191999999MA1100585098495MW1715OD149901331270REMMET14201/03/25 02:54:02 METAR KVSF 030754Z 25011KT 9SM -SN SCT040 BKN050 OVC060 M01/M07 A2970 RMK AO2 PK WND 27026/0655 SNB04 SLP063 P0000 T10061072
0341726115547402025010308547+43342-072521FM-15+0176KVSF V0202805N009852200059N0160935N5-00065-01175100645ADDAA101000095AA203000021GA1025+016765999GD11991+0167659GE19AGL   +99999+99999GF102995999999016761999999MA1100585098495MD1190099+9999OC101605OD149901641280REMMET14201/03/25 03:54:02 METAR KVSF 030854Z 28019G31KT 10SM FEW055 M01/M12 A2970 RMK AO2 PK WND 28032/0831 SNE0756 SLP064 P0000 60000 T10061117 51009EQDQ01  00008PRCP03D01      0ADE726
0274726115547402025010309547+43342-072521FM-15+0176KVSF V0202805N007752200059N0160935N5-00115-01175100675ADDAA101000095GA1045+015245999GD12991+0152459GE19AGL   +99999+99999GF104995999999015241999999MA1100615098525OC101755OD149901901270REMMET11601/03/25 04:54:02 METAR KVSF 030954Z 28015G34KT 10SM SCT050 M01/M12 A2971 RMK AO2 PK WND 27037/0943 SLP067 T10111117EQDD01      0ADE726
0255726115547402025010310547+43342-072521FM-15+0176KVSF V0202705N00465016765MN0160935N5-00115-01065100675ADDAA101000095GA1085+016765999GD14991+0167659GE19AGL   +99999+99999GF199999999999016761999999MA1100615098525OC100935OD149901591320REMMET11601/03/25 05:54:02 METAR KVSF 031054Z 27009G18KT 10SM OVC055 M01/M11 A2971 RMK AO2 PK WND 32031/0958 SLP067 T10111106
0414726115547402025010311547+43342-072521FM-15+0176KVSF V0202505N00265010675MN0096565N5-00175-00785100685ADDAA101000025AA206000021AU110030015AW1715GA1075+010675999GA2085+014635999GD13991+0106759GD24991+0146359GE19AGL   +99999+99999GF199999999999010671999999KA1060M+00001KA2060N-00171MA1100615098525MD1190049+9999MW1715OD149901591260REMMET15901/03/25 06:54:02 METAR KVSF 031154Z 25005KT 6SM -SN BKN035 OVC048 M02/M08 A2971 RMK AO2 PK WND 26031/1058 SNB40 SLP068 P0000 60000 T10171078 10000 21017 51004EQDQ01  00008PRCP06
0248726115547402025010312077+43342-072521FM-16+0176KVSF V0202805N00215008235MN0048285N5-00175-00725999999ADDAA101000021AU110030015AW1715GA1085+008235999GD14991+0082359GE19AGL   +99999+99999GF199999999999008231999999MA1100615098525MW1715OC100775REMMET10001/03/25 07:07:02 SPECI KVSF 031207Z 28004G15KT 3SM -SN OVC027 M02/M07 A2971 RMK AO2 P0000 T10171072
0275726115547402025010312397+43342-072521FM-16+0176KVSF V0202605N00265009455MN0032195N5-00225-00675999999ADDAA101000021AU110030015AW1715GA1075+009455999GA2085+012195999GD13991+0094559GD24991+0121959GE19AGL   +99999+99999GF199999999999009451999999MA1100615098525MW1715REMMET10401/03/25 07:39:02 SPECI KVSF 031239Z 26005KT 2SM -SN BKN031 OVC040 M02/M07 A2971 RMK AO2 P0000 T10221067
0282726115547402025010312497+43342-072521FM-16+0176KVSF V0209999C00005011285MN0144845N5-00205-00705999999ADDAA101000021GA1075+011285999GA2075+015245999GA3085+019815999GD13991+0112859GD23991+0152459GD34991+0198159GE19AGL   +99999+99999GF199999999999011281999999MA1100615098525REMMET10301/03/25 07:49:02 SPECI KVSF 031249Z 00000KT 9SM BKN037 BKN050 OVC065 M02/M07 A2971 RMK AO2 SNE48 P0000
0262726115547402025010312547+43342-072521FM-15+0176KVSF V0209999C00005011895MN0160935N5-00225-00675100665ADDAA101000025GA1075+011895999GA2085+019815999GD13991+0118959GD24991+0198159GE19AGL   +99999+99999GF199999999999011891999999MA1100585098495REMMET11401/03/25 07:54:02 METAR KVSF 031254Z 00000KT 10SM BKN039 OVC065 M02/M07 A2970 RMK AO2 SNE48 SLP066 P0000 T10221067
0247726115547402025010313197+43342-072521FM-16+0176KVSF V0209999C00005009755MN0028165N5-00225-00615999999ADDAA101000021AU110030015AW1715GA1085+009755999GD14991+0097559GE19AGL   +99999+99999GF199999999999009751999999MA1100585098495MW1715REMMET10701/03/25 08:19:02 SPECI KVSF 031319Z 00000KT 1 3/4SM -SN OVC032 M02/M06 A2970 RMK AO2 SNB03 P0000 T10221061
0281726115547402025010313247+43342-072521FM-16+0176KVSF V0209999V00215009145MN0048285N5-00225-00615999999ADDAA101000021AU110030015AW1715GA1075+009145999GA2085+011585999GD13991+0091459GD24991+0115859GE19AGL   +99999+99999GF199999999999009141999999MA1100615098525MW1715REMMET11001/03/25 08:24:02 SPECI KVSF 031324Z VRB04KT 3SM -SN BKN030 OVC038 M02/M06 A2971 RMK AO2 SNB03 P0000 T10221061
0257726115547402025010313547+43342-072521FM-15+0176KVSF V0203005N005152200059N0160935N5-00115-00895100665ADDAA101000025GA1045+011585999GD12991+0115859GE19AGL   +99999+99999GF104995999999011581999999MA1100615098525OC101035REMMET11301/03/25 08:54:02 METAR KVSF 031354Z 30010G20KT 10SM SCT038 M01/M09 A2971 RMK AO2 SNB03E38 SLP066 P0000 T10111089EQDD01      0ADE726
0358726115547402025010314547+43342-072521FM-15+0176KVSF V0202505N00575011285MN0160935N5-00065-00895100665ADDAA101000025AA203000021GA1075+011285999GD13991+0112859GE19AGL   +99999+99999GF199999999999011281999999MA1100585098495MD1890009+9999OC101185OD149901541280REMMET14301/03/25 09:54:02 METAR KVSF 031454Z 25011G23KT 10SM BKN037 M01/M09 A2970 RMK AO2 PK WND 28030/1440 UPB16E50 SLP066 P0000 60000 T10061089 58000EQDQ010     3APC3  Q028     3APCTENQ03  00008PRCP03
0293726115547402025010315547+43342-072521FM-15+0176KVSF V0202705N00675013415MN0160935N5-00065-00835100605ADDAA101000095GA1075+013415999GA2085+015245999GD13991+0134159GD24991+0152459GE19AGL   +99999+99999GF199999999999013411999999MA1100545098465OC101135OD149901541250REMMET12301/03/25 10:54:02 METAR KVSF 031554Z 27013G22KT 10SM BKN044 OVC050 M01/M08 A2969 RMK AO2 PK WND 25030/1503 SLP060 T10061083
0337726115547402025010316547+43342-072521FM-15+0176KVSF V0202705V00575011285MN0160935N5-00065-00835100515ADDAA101000025AU120090015AW1401AW2415GA1075+011285999GA2085+013725999GD13991+0112859GD24991+0137259GE19AGL   +99999+99999GF199999999999011281999999MA1100445098365OC101245OD149901331260REMMET14401/03/25 11:54:02 METAR KVSF 031654Z 27011G24KT 10SM UP BKN037 OVC045 M01/M08 A2966 RMK AO2 PK WND 26026/1608 UPB10E25B48 SLP051 P0000 T10061083
0318726115547402025010317547+43342-072521FM-15+0176KVSF V0202505N00515011285MN0160935N5-00065-00785100465ADDAA101000025AA206000021GA1085+011285999GD14991+0112859GE19AGL   +99999+99999GF199999999999011281999999KA1060M+00001KA2060N-00221MA1100415098325MD1690199+9999REMMET13101/03/25 12:54:02 METAR KVSF 031754Z 25010KT 10SM OVC037 M01/M08 A2965 RMK AO2 UPE00 SLP046 P0000 60000 T10061078 10000 21022 56019EQDQ01  00008PRCP06
0307726115547402025010318547+43342-072521FM-15+0176KVSF V0202805N00515019815MN0160935N5+00115-00835100415ADDAA101000025GA1045+012505999GA2085+019815999GD12991+0125059GD24991+0198159GE19AGL   +99999+99999GF199999999999012501999999MA1100345098265OC100935OD149901391250REMMET13701/03/25 13:54:02 METAR KVSF 031854Z 28010G18KT 10SM SCT041 OVC065 01/M08 A2963 RMK AO2 PK WND 25027/1842 SNB09E18 SLP041 P0000 T00111083
0230726115547402025010319547+43342-072521FM-15+0176KVSF V0202605N004152200059N0160935N5+00005-00785100415ADDAA101000095GA1025+007015999GD11991+0070159GE19AGL   +99999+99999GF102995999999007011999999MA1100345098265REMMET09401/03/25 14:54:02 METAR KVSF 031954Z 26008KT 10SM FEW023 00/M08 A2963 RMK AO2 SLP041 T00001078EQDD01      0ADE726
0224726115547402025010320547+43342-072521FM-15+0176KVSF V0202405N003152200059N0160935N5-00115-00945100445ADDAA101000095AA203000021GA1005+999999999GD10991+9999999GF100991999999999999999999MA1100375098295MD1590039+9999REMMET10401/03/25 15:54:02 METAR KVSF 032054Z 24006KT 10SM CLR M01/M09 A2964 RMK AO2 SLP044 60000 T10111094 55003
0187726115547402025010321547+43342-072521FM-15+0176KVSF V0202505N002652200059N0160935N5-00115-01005100485ADDAA101000095GA1005+999999999GD10991+9999999GF100991999999999999999999MA1100415098325REMMET09201/03/25 16:54:02 METAR KVSF 032154Z 25005KT 10SM CLR M01/M10 A2965 RMK AO2 SLP048 T10111100
0250726115547402025010322547+43342-072521FM-15+0176KVSF V0202405N00265024385MN0160935N5-00115-00945100505ADDAA101000095GA1025+016765999GA2085+024385999GD11991+0167659GD24991+0243859GE19AGL   +99999+99999GF199999999999016761999999MA1100415098325REMMET10201/03/25 17:54:02 METAR KVSF 032254Z 24005KT 10SM FEW055 OVC080 M01/M09 A2965 RMK AO2 SLP050 T10111094
0344726115547402025010323547+43342-072521FM-15+0176KVSF V0202505N00265010065MN0112655N5-00225-00675100475ADDAA101000025AA206000021AU110030015AW1715GA1085+010065999GD14991+0100659GE19AGL   +99999+99999GF199999999999010061999999KA1060M+00111KA2060N-00221MA1100415098325MD1090029+9999MW1715REMMET13401/03/25 18:54:02 METAR KVSF 032354Z 25005KT 7SM -SN OVC033 M02/M07 A2965 RMK AO2 SNB26 SLP047 P0000 60000 T10221067 10011 21022 50002EQDQ01  00008PRCP06
0292726115547402025010400547+43342-072521FM-15+0176KVSF V0202605N004152200059N0160935N5-00175-00945100445ADDAA101000025GA1025+011285999GA2045+013415999GD11991+0112859GD22991+0134159GE19AGL   +99999+99999GF104995999999011281999999MA1100375098295OC100775REMMET11701/03/25 19:54:01 METAR KVSF 040054Z 26008G15KT 10SM FEW037 SCT044 M02/M09 A2964 RMK AO2 SNE03 SLP044 P0000 T10171094EQDD01      0ADE726
0242726115547402025010401547+43342-072521FM-15+0176KVSF V0202805N003652200059N0160935N5-00225-00945100425ADDAA101000095GA1025+012805999GD11991+0128059GE19AGL   +99999+99999GF102995999999012801999999MA1100345098265OC101085REMMET09801/03/25 20:54:01 METAR KVSF 040154Z 28007G21KT 10SM FEW042 M02/M09 A2963 RMK AO2 SLP042 T10221094EQDD01      0ADE726
0249726115547402025010402547+43342-072521FM-15+0176KVSF V0202505N00315014025MN0160935N5-00225-01065100415ADDAA101000095AA203000021GA1075+014025999GD13991+0140259GE19AGL   +99999+99999GF199999999999014021999999MA1100345098265MD1690069+9999REMMET10701/03/25 21:54:01 METAR KVSF 040254Z 25006KT 10SM BKN046 M02/M11 A2963 RMK AO2 SLP041 60000 T10221106 56006
0212726115547402025010403547+43342-072521FM-15+0176KVSF V0202605N00465013415MN0160935N5-00285-01115100385ADDAA101000095GA1075+013415999GD13991+0134159GE19AGL   +99999+99999GF199999999999013411999999MA1100305098225REMMET09501/03/25 22:54:02 METAR KVSF 040354Z 26009KT 10SM BKN044 M03/M11 A2962 RMK AO2 SLP038 T10281111
0259726115547402025010404547+43342-072521FM-15+0176KVSF V0202705N00515013415MN0160935N5-00335-01175100355ADDAA101000095GA1085+013415999GD14991+0134159GE19AGL   +99999+99999GF199999999999013411999999KA1240M+00111KA2240N-00331MA1100275098195OC100985REMMET10801/03/25 23:54:02 METAR KVSF 040454Z 27010G19KT 10SM OVC044 M03/M12 A2961 RMK AO2 SLP035 T10331117 400111033
0910726115547402025010404596+43342-072521SOD  +0176KVSF V020999999999999999999999999999+99999+99999999999ADDAA124000025AT1AU18SN  5AT2AU19UP  5KA1240M+00115KA2240N-00325MG1098374100344OE11240187827004435OE22240111828004475OE33240047899999995REMSOD73024 HR PRECIPITATION (IN):T     24 HR MAX TEMP (F):34 24 HR MAX TEMP TIME (LST):1409 24 HR MIN TEMP (F):26 24 HR MIN TEMP TIME (LST):2355 AVERAGE STATION PRESSURE:29.050 MINIMUM SEA LEVEL PRESSURE:29.63 TIME OF OCCURRENCE:2359 PEAK WIND SPEED (MPH):42  PEAK WIND DIR (DEG):270 PEAK WIND TIME (LST):0443  FASTEST 2MIN SPEED (MPH):25 FASTEST 2MIN DIR (DEG):280 FASTEST 2MIN TIME (LST):0447 AVERAGE WIND SPEED (MPH):10.7 24 HR AVG TEMP (F):30 HEATING DEGREE DAYS:35  COOLING DEGREE DAYS:0   LATEST DAY MAX TEMP (0700-1900 LST):34  LATEST NIGHT MIN TEMP(1900-0800 LST):28 HOURLY INCREMENTAL PRECIPITATION VALUES (IN):    0.00 T    0.00 0.00 0.00 T    T    T    T    0.00 T    T    T    0.00 0.00 0.00 0.00 T    T    0.00 0.00 0.00 0.00EQDR01     N7GJS072R02     N7GKS075
0298726115547402025010405547+43342-072521FM-15+0176KVSF V0202705N00515014025MN0160935N5-00335-01225100315ADDAA101000095AA206000021GA1075+014025999GD13991+0140259GE19AGL   +99999+99999GF199999999999014021999999KA1060M-00171KA2060N-00391MA1100245098165MD1890099+9999OC100825REMMET12201/04/25 00:54:02 METAR KVSF 040554Z 27010G16KT 10SM BKN046 M03/M12 A2960 RMK AO2 SLP031 60000 T10331122 11017 21039 58009
0212726115547402025010406547+43342-072521FM-15+0176KVSF V0202705N00315013725MN0160935N5-00395-01175100325ADDAA101000095GA1085+013725999GD14991+0137259GE19AGL   +99999+99999GF199999999999013721999999MA1100245098165REMMET09501/04/25 01:54:02 METAR KVSF 040654Z 27006KT 10SM OVC045 M04/M12 A2960 RMK AO2 SLP032 T10391117
0304726115547402025010407447+43342-072521FM-16+0176KVSF V0202905N00415006405MN0040235V5-00445-01065999999ADDAA101000021AU110030015AW1715GA1075+006405999GA2085+011585999GD13991+0064059GD24991+0115859GE19AGL   +99999+99999GF199999999999006401999999MA1100275098195MW1715OC100775REMMET12501/04/25 02:44:02 SPECI KVSF 040744Z 29008G15KT 2 1/2SM -SN BKN021 OVC038 M04/M11 A2961 RMK AO2 VIS 1V5 SNB38 P0000 T10441106
0283726115547402025010407527+43342-072521FM-16+0176KVSF V0203005N00315006405MN0028165V5-00405-01005999999ADDAA101000021AU110030015AW1715GA1075+006405999GA2085+010365999GD13991+0064059GD24991+0103659GE19AGL   +99999+99999GF199999999999006401999999MA1100275098195MW1715REMMET11201/04/25 02:52:02 SPECI KVSF 040752Z 30006KT 1 3/4SM -SN BKN021 OVC034 M04/M10 A2961 RMK AO2 VIS 1V3 SNB38 P0000
0300726115547402025010407547+43342-072521FM-15+0176KVSF V0203005N00365006405MN0032195V5-00445-00945100365ADDAA101000025AU110030015AW1715GA1075+006405999GA2085+010065999GD13991+0064059GD24991+0100659GE19AGL   +99999+99999GF199999999999006401999999MA1100275098195MW1715REMMET12901/04/25 02:54:02 METAR KVSF 040754Z 30007KT 2SM -SN BKN021 OVC033 M04/M09 A2961 RMK AO2 VIS 1 1/4V3 SNB38 SLP036 P0000 T10441094
0286726115547402025010408057+43342-072521FM-16+0176KVSF V0203005N00515006405MN0064375N5-00505-01005999999ADDAA101000021AU110030015AW1715GA1075+006405999GA2085+008235999GD13991+0064059GD24991+0082359GE19AGL   +99999+99999GF199999999999006401999999MA1100305098225MW1715OC100825REMMET10701/04/25 03:05:02 SPECI KVSF 040805Z 30010G16KT 4SM -SN BKN021 OVC027 M05/M10 A2962 RMK AO2 P0000 T10501100
0266726115547402025010408357+43342-072521FM-16+0176KVSF V0203005N00265013725MN0160935N5-00565-01175999999ADDAA101000021GA1045+008235999GA2085+013725999GD12991+0082359GD24991+0137259GE19AGL   +99999+99999GF199999999999008231999999MA1100345098265OC101035REMMET11001/04/25 03:35:02 SPECI KVSF 040835Z 30005G20KT 10SM SCT027 OVC045 M06/M12 A2963 RMK AO2 SNE20 P0000 T10561117
0329726115547402025010408547+43342-072521FM-15+0176KVSF V0202805N00515036585MN0160935N5-00565-01225100435ADDAA101000025AA203000021GA1045+014335999GA2075+036585999GD12991+0143359GD23991+0365859GE19AGL   +99999+99999GF199999999999014331999999MA1100345098265MD1390099+9999OC100985REMMET12901/04/25 03:54:02 METAR KVSF 040854Z 28010G19KT 10SM SCT047 BKN120 M06/M12 A2963 RMK AO2 SNE20 SLP043 P0000 60000 T10561122 53009EQDQ01  00008PRCP03
0179726115547402025010409526+43342-072521FM-16+0176KVSF V0209999V00265007925MN0144845N5-00705-01205999999ADDAU110030015AW1715GA1075+007925999GD13991+0079259MA1100415098325MW1715REMMET09801/04/25 04:52:02 SPECI KVSF 040952Z VRB05KT 9SM -SN BKN026 M07/M12 A2965 RMK AO2 SNB44 P0000 FIBI
0226726115547402025010409547+43342-072521FM-15+0176KVSF V0209999V00155007925MN0144845N5-00675-01225100485ADDAA101000025GA1075+007925999GD13991+0079259GE19AGL   +99999+99999GF199999999999007921999999MA1100415098325REMMET10901/04/25 04:54:02 METAR KVSF 040954Z VRB03KT 9SM BKN026 M07/M12 A2965 RMK AO2 SNB44E54 SLP048 P0000 T10671122
0244726115547402025010410077+43342-072521FM-16+0176KVSF V0203105V00365010365MN0160935N5-00675-01285999999ADDAA101000021AU110030015AW1715GA1075+010365999GD13991+0103659GE19AGL   +99999+99999GF199999999999010361999999MA1100415098325MW1715REMMET10401/04/25 05:07:02 SPECI KVSF 041007Z 31007KT 10SM -SN BKN034 M07/M13 A2965 RMK AO2 SNB05 P0000 T10671128
0256726115547402025010410547+43342-072521FM-15+0176KVSF V0203205V00365008845MN0112655N5-00725-01285100575ADDAA101000025AU110030015AW1715GA1085+008845999GD14991+0088459GE19AGL   +99999+99999GF199999999999008841999999MA1100475098395MW1715REMMET11601/04/25 05:54:02 METAR KVSF 041054Z 32007KT 7SM -SN OVC029 M07/M13 A2967 RMK AO2 SNB05E16B42 SLP057 P0000 T10721128
0217726115547402025010411267+43342-072521FM-16+0176KVSF V0209999V00265009755MN0160935N5-00725-01335999999ADDAA101000021GA1085+009755999GD14991+0097559GE19AGL   +99999+99999GF199999999999009751999999MA1100545098465REMMET10001/04/25 06:26:02 SPECI KVSF 041126Z VRB05KT 10SM OVC032 M07/M13 A2969 RMK AO2 SNE01 P0000 T10721133
0318726115547402025010411547+43342-072521FM-15+0176KVSF V0209999V00155010065MN0160935N5-00785-01395100665ADDAA101000025AA206000021GA1085+010065999GD14991+0100659GE19AGL   +99999+99999GF199999999999010061999999KA1060M-00331KA2060N-00781MA1100585098495MD1390239+9999REMMET13101/04/25 06:54:02 METAR KVSF 041154Z VRB03KT 10SM OVC033 M08/M14 A2970 RMK AO2 SNE01 SLP066 P0000 60000 T10781139 11033 21078 53023EQDQ01  00008PRCP06
0205726115547402025010412277+43342-072521FM-16+0176KVSF V0209999V00215008845MN0160935N5-00835-01395999999ADDGA1085+008845999GD14991+0088459GE19AGL   +99999+99999GF199999999999008841999999MA1100585098495OC100725REMMET09101/04/25 07:27:02 SPECI KVSF 041227Z VRB04G14KT 10SM OVC029 M08/M14 A2970 RMK AO2 T10831139
0223726115547402025010412547+43342-072521FM-15+0176KVSF V0202805N00625006715MN0160935N5-00785-01395100695ADDAA101000095GA1075+006715999GD13991+0067159GE19AGL   +99999+99999GF199999999999006711999999MA1100615098525OC100935REMMET09801/04/25 07:54:02 METAR KVSF 041254Z 28012G18KT 10SM BKN022 M08/M14 A2971 RMK AO2 SLP069 T10781139
0205726115547402025010413477+43342-072521FM-16+0176KVSF V0202905N00265009455MN0160935N5-00725-01395999999ADDGA1075+009455999GD13991+0094559GE19AGL   +99999+99999GF199999999999009451999999MA1100645098565OC100825REMMET09101/04/25 08:47:02 SPECI KVSF 041347Z 29005G16KT 10SM BKN031 M07/M14 A2972 RMK AO2 T10721139
0212726115547402025010413547+43342-072521FM-15+0176KVSF V0202805N00315010065MN0160935N5-00725-01335100745ADDAA101000095GA1075+010065999GD13991+0100659GE19AGL   +99999+99999GF199999999999010061999999MA1100645098565REMMET09501/04/25 08:54:02 METAR KVSF 041354Z 28006KT 10SM BKN033 M07/M13 A2972 RMK AO2 SLP074 T10721133
0232726115547402025010414547+43342-072521FM-15+0176KVSF V0203105N00265011285MN0160935N5-00675-01395100755ADDAA101000095GA1085+011285999GD14991+0112859GE19AGL   +99999+99999GF199999999999011281999999MA1100645098565MD1190089+9999REMMET10101/04/25 09:54:02 METAR KVSF 041454Z 31005KT 10SM OVC037 M07/M14 A2972 RMK AO2 SLP075 T10671139 51008
0212726115547402025010415547+43342-072521FM-15+0176KVSF V0209999V00315012195MN0160935N5-00615-01395100695ADDAA101000095GA1085+012195999GD14991+0121959GE19AGL   +99999+99999GF199999999999012191999999MA1100615098525REMMET09501/04/25 10:54:02 METAR KVSF 041554Z VRB06KT 10SM OVC040 M06/M14 A2971 RMK AO2 SLP069 T10611139
0255726115547402025010416547+43342-072521FM-15+0176KVSF V0202805N00675013415MN0160935N5-00565-01505100655ADDAA101000095GA1075+013415999GD13991+0134159GE19AGL   +99999+99999GF199999999999013411999999MA1100585098495OC101655OD149901641250REMMET11601/04/25 11:54:02 METAR KVSF 041654Z 28013G32KT 10SM BKN044 M06/M15 A2970 RMK AO2 PK WND 25032/1647 SLP065 T10561150
0313726115547402025010417547+43342-072521FM-15+0176KVSF V0202805N00825010975MN0160935N5-00505-01445100615ADDAA101000095GA1085+010975999GD14991+0109759GE19AGL   +99999+99999GF199999999999010971999999KA1060M-00501KA2060N-00831MA1100515098425MD1690149+9999OC101295OD149901491270REMMET13401/04/25 12:54:02 METAR KVSF 041754Z 28016G25KT 10SM OVC036 M05/M14 A2968 RMK AO2 PK WND 27029/1656 SLP061 T10501144 11050 21083 56014
0255726115547402025010418547+43342-072521FM-15+0176KVSF V0202705N00675013415MN0160935N5-00505-01445100625ADDAA101000095GA1085+013415999GD14991+0134159GE19AGL   +99999+99999GF199999999999013411999999MA1100545098465OC101085OD149901391290REMMET11601/04/25 13:54:02 METAR KVSF 041854Z 27013G21KT 10SM OVC044 M05/M14 A2969 RMK AO2 PK WND 29027/1804 SLP062 T10501144
0293726115547402025010419547+43342-072521FM-15+0176KVSF V0202605N00515012505MN0160935N5-00505-01395100665ADDAA101000095GA1075+012505999GA2085+014945999GD13991+0125059GD24991+0149459GE19AGL   +99999+99999GF199999999999012501999999MA1100585098495OC100985OD149901331280REMMET12301/04/25 14:54:02 METAR KVSF 041954Z 26010G19KT 10SM BKN041 OVC049 M05/M14 A2970 RMK AO2 PK WND 28026/1921 SLP066 T10501139
0275726115547402025010420547+43342-072521FM-15+0176KVSF V0202705N00315014635MN0160935N5-00445-01395100685ADDAA101000095GA1085+014635999GD14991+0146359GE19AGL   +99999+99999GF199999999999014631999999MA1100585098495MD1290079+9999OC100935OD149901441280REMMET12201/04/25 15:54:02 METAR KVSF 042054Z 27006G18KT 10SM OVC048 M04/M14 A2970 RMK AO2 PK WND 28028/1959 SLP068 T10441139 52007
0223726115547402025010421547+43342-072521FM-15+0176KVSF V0202705N00465014635MN0160935N5-00395-01335100675ADDAA101000095GA1085+014635999GD14991+0146359GE19AGL   +99999+99999GF199999999999014631999999MA1100585098495OC100985REMMET09801/04/25 16:54:02 METAR KVSF 042154Z 27009G19KT 10SM OVC048 M04/M13 A2970 RMK AO2 SLP067 T10391133
0212726115547402025010422547+43342-072521FM-15+0176KVSF V0202805N00315014945MN0160935N5-00395-01285100735ADDAA101000095GA1085+014945999GD14991+0149459GE19AGL   +99999+99999GF199999999999014941999999MA1100645098565REMMET09501/04/25 17:54:02 METAR KVSF 042254Z 28006KT 10SM OVC049 M04/M13 A2972 RMK AO2 SLP073 T10391128
0281726115547402025010423547+43342-072521FM-15+0176KVSF V0202905N00625013725MN0160935N5-00335-01225100745ADDAA101000095GA1085+013725999GD14991+0137259GE19AGL   +99999+99999GF199999999999013721999999KA1060M-00331KA2060N-00501MA1100645098565MD1390069+9999OC101085REMMET11601/04/25 18:54:02 METAR KVSF 042354Z 29012G21KT 10SM OVC045 M03/M12 A2972 RMK AO2 SLP074 T10331122 11033 21050 53006
0265726115547402025010500547+43342-072521FM-15+0176KVSF V0202905N00315012805MN0160935N5-00395-01115100735ADDAA101000025GA1075+012805999GA2085+014945999GD13991+0128059GD24991+0149459GE19AGL   +99999+99999GF199999999999012801999999MA1100645098565REMMET11701/04/25 19:54:01 METAR KVSF 050054Z 29006KT 10SM BKN042 OVC049 M04/M11 A2972 RMK AO2 SNB05E21 SLP073 P0000 T10391111
0212726115547402025010501547+43342-072521FM-15+0176KVSF V0202805N00315012805MN0160935N5-00335-01065100735ADDAA101000095GA1085+012805999GD14991+0128059GE19AGL   +99999+99999GF199999999999012801999999MA1100645098565REMMET09501/04/25 20:54:01 METAR KVSF 050154Z 28006KT 10SM OVC042 M03/M11 A2972 RMK AO2 SLP073 T10331106
0260726115547402025010502547+43342-072521FM-15+0176KVSF V0202805N00465012195MN0160935N5-00335-01115100795ADDAA101000095AA203000021GA1085+012195999GD14991+0121959GE19AGL   +99999+99999GF199999999999012191999999MA1100715098625MD1390069+9999OC100985REMMET11001/04/25 21:54:01 METAR KVSF 050254Z 28009G19KT 10SM OVC040 M03/M11 A2974 RMK AO2 SLP079 60000 T10331111 53006
0212726115547402025010503547+43342-072521FM-15+0176KVSF V0202605V00365013115MN0160935N5-00335-01115100835ADDAA101000095GA1085+013115999GD14991+0131159GE19AGL   +99999+99999GF199999999999013111999999MA1100755098665REMMET09501/04/25 22:54:02 METAR KVSF 050354Z 26007KT 10SM OVC043 M03/M11 A2975 RMK AO2 SLP083 T10331111
0335726115547402025010504547+43342-072521FM-15+0176KVSF V0202805N00415014945MN0160935N5-00335-01175100815ADDAA101000095GA1025+011895999GA2075+014945999GA3085+018295999GD11991+0118959GD23991+0149459GD34991+0182959GE19AGL   +99999+99999GF199999999999011891999999KA1240M-00281KA2240N-00831MA1100715098625OC100885REMMET12201/04/25 23:54:02 METAR KVSF 050454Z 28008G17KT 10SM FEW039 BKN049 OVC060 M03/M12 A2974 RMK AO2 SLP081 T10331117 410281083
0914726115547402025010504596+43342-072521SOD  +0176KVSF V020999999999999999999999999999+99999+99999999999ADDAA124000025AT1AU18SN  5KA1240M-00275KA2240N-00825MG1098394100304OE11240160925011476OE22240102827012085OE33240042099999995REMSOD73024 HR PRECIPITATION (IN):T     24 HR MAX TEMP (F):27 24 HR MAX TEMP TIME (LST):0000 24 HR MIN TEMP (F):17 24 HR MIN TEMP TIME (LST):0747 AVERAGE STATION PRESSURE:29.055 MINIMUM SEA LEVEL PRESSURE:29.62 TIME OF OCCURRENCE:0201 PEAK WIND SPEED (MPH):36  PEAK WIND DIR (DEG):250 PEAK WIND TIME (LST):1147  FASTEST 2MIN SPEED (MPH):23 FASTEST 2MIN DIR (DEG):270 FASTEST 2MIN TIME (LST):1208 AVERAGE WIND SPEED (MPH):9.4  24 HR AVG TEMP (F):22 HEATING DEGREE DAYS:43  COOLING DEGREE DAYS:0   LATEST DAY MAX TEMP (0700-1900 LST):26  LATEST NIGHT MIN TEMP(1900-0800 LST):17 HOURLY INCREMENTAL PRECIPITATION VALUES (IN):.00 0.00 T    T    T    T    T    0.00 0.00 0.00 0.00 0.00 0.00 0.00 0.00 0.00 0.00 0.00 0.00 T    0.00 0.00 0.00 0.00EQDR01     N7GJS072R02     N7GKS075R03    367OES063
0375726115547402025010505547+43342-072521FM-15+0176KVSF V0209999V00265011285MN0160935N5-00335-01005100845ADDAA101000025AA206000021GA1075+011285999GA2085+014635999GD13991+0112859GD24991+0146359GE19AGL   +99999+99999GF199999999999011281999999KA1060M-00331KA2060N-00391MA1100755098665MD1290059+9999REMMET14101/05/25 00:54:02 METAR KVSF 050554Z VRB05KT 10SM BKN037 OVC048 M03/M10 A2975 RMK AO2 SNB49E52 SLP084 P0000 60000 T10331100 11033 21039 52005EQDQ01  00002PRCP06Q02  00008PRCP06
0288726115547402025010506547+43342-072521FM-15+0176KVSF V0203005N00415014635MN0160935N5-00395-01225100905ADDAA101000095GA1045+012195999GA2075+014635999GA3085+021345999GD12991+0121959GD23991+0146359GD34991+0213459GE19AGL   +99999+99999GF199999999999012191999999MA1100815098725REMMET10901/05/25 01:54:02 METAR KVSF 050654Z 30008KT 10SM SCT040 BKN048 OVC070 M04/M12 A2977 RMK AO2 SLP090 T10391122
0223726115547402025010507547+43342-072521FM-15+0176KVSF V0203105N00215014635MN0160935N5-00505-01175100965ADDAA101000095GA1085+014635999GD14991+0146359GE19AGL   +99999+99999GF199999999999014631999999MA1100885098795OC100775REMMET09801/05/25 02:54:02 METAR KVSF 050754Z 31004G15KT 10SM OVC048 M05/M12 A2979 RMK AO2 SLP096 T10501117
0270726115547402025010508547+43342-072521FM-15+0176KVSF V0203105N00265014025MN0160935N5-00615-01175100975ADDAA101000095GA1075+014025999GA2085+018295999GD13991+0140259GD24991+0182959GE19AGL   +99999+99999GF199999999999014021999999MA1100885098795MD1190129+9999REMMET10801/05/25 03:54:02 METAR KVSF 050854Z 31005KT 10SM BKN046 OVC060 M06/M12 A2979 RMK AO2 SLP097 T10611117 51012
0250726115547402025010509547+43342-072521FM-15+0176KVSF V0209999C00005011585MN0096565N5-00615-01115100935ADDAA101000025AU110030015AW1715GA1085+011585999GD14991+0115859GE19AGL   +99999+99999GF199999999999011581999999MA1100855098765MW1715REMMET11001/05/25 04:54:02 METAR KVSF 050954Z 00000KT 6SM -SN OVC038 M06/M11 A2978 RMK AO2 SNB38 SLP093 P0000 T10611111
0282726115547402025010510547+43342-072521FM-15+0176KVSF V0209999C00005009755MN0048285N5-00615-01005100945ADDAA101000025AU110030015AW1715GA1075+009755999GA2085+012195999GD13991+0097559GD24991+0121959GE19AGL   +99999+99999GF199999999999009751999999MA1100855098765MW1715REMMET11101/05/25 05:54:02 METAR KVSF 051054Z 00000KT 3SM -SN BKN032 OVC040 M06/M10 A2978 RMK AO2 SLP094 P0000 T10611100
0338726115547402025010511547+43342-072521FM-15+0176KVSF V0209999C00005012195MN0064375N5-00615-00945100985ADDAA101000025AA206000021AU110030015AW1715GA1085+012195999GD14991+0121959GE19AGL   +99999+99999GF199999999999012191999999KA1060M-00331KA2060N-00671MA1100885098795MD1390029+9999MW1715REMMET12801/05/25 06:54:02 METAR KVSF 051154Z 00000KT 4SM -SN OVC040 M06/M09 A2979 RMK AO2 SLP098 P0000 60000 T10611094 11033 21067 53002EQDQ01  00008PRCP06
0303726115547402025010512507+43342-072521FM-16+0176KVSF V0209999C00005010365MN0032195N5-00605-00905999999ADDAA101000021AU110030015AW1715GA1025+007015999GA2075+010365999GA3085+012805999GD11991+0070159GD23991+0103659GD34991+0128059GE19AGL   +99999+99999GF199999999999007011999999MA1100915098825MW1715REMMET10101/05/25 07:50:02 SPECI KVSF 051250Z 00000KT 2SM -SN FEW023 BKN034 OVC042 M06/M09 A2980 RMK AO2 P0000
0320726115547402025010512547+43342-072521FM-15+0176KVSF V0201405N00155009755MN0032195N5-00615-00895101005ADDAA101000025AU110030015AW1715GA1025+007015999GA2075+009755999GA3085+012195999GD11991+0070159GD23991+0097559GD34991+0121959GE19AGL   +99999+99999GF199999999999007011999999MA1100915098825MW1715REMMET11801/05/25 07:54:02 METAR KVSF 051254Z 14003KT 2SM -SN FEW023 BKN032 OVC040 M06/M09 A2980 RMK AO2 SLP100 P0000 T10611089
0279726115547402025010513167+43342-072521FM-16+0176KVSF V0201905N00155008845MN0028165N5-00615-00895999999ADDAA101000021AU110030015AW1715GA1075+008845999GA2085+010975999GD13991+0088459GD24991+0109759GE19AGL   +99999+99999GF199999999999008841999999MA1100955098865MW1715REMMET10801/05/25 08:16:02 SPECI KVSF 051316Z 19003KT 1 3/4SM -SN BKN029 OVC036 M06/M09 A2981 RMK AO2 P0000 T10611089
0275726115547402025010513247+43342-072521FM-16+0176KVSF V0209999C00005010975MN0032195N5-00615-00895999999ADDAA101000021AU110030015AW1715GA1075+010975999GA2085+013725999GD13991+0109759GD24991+0137259GE19AGL   +99999+99999GF199999999999010971999999MA1100955098865MW1715REMMET10401/05/25 08:24:02 SPECI KVSF 051324Z 00000KT 2SM -SN BKN036 OVC045 M06/M09 A2981 RMK AO2 P0000 T10611089
0237726115547402025010513367+43342-072521FM-16+0176KVSF V0209999C00005010365MN0096565N5-00615-00895999999ADDAA101000021AU110030015AW1715GA1085+010365999GD14991+0103659GE19AGL   +99999+99999GF199999999999010361999999MA1100955098865MW1715REMMET09701/05/25 08:36:02 SPECI KVSF 051336Z 00000KT 6SM -SN OVC034 M06/M09 A2981 RMK AO2 P0000 T10611089
0211726115547402025010513526+43342-072521FM-16+0176KVSF V0209999C00005007925MN0032195N5-00605-00805999999ADDAU110030015AW1715GA1075+007925999GA2085+010365999GD13991+0079259GD24991+0103659MA1100985098895MW1715REMMET09901/05/25 08:52:02 SPECI KVSF 051352Z 00000KT 2SM -SN BKN026 OVC034 M06/M08 A2982 RMK AO2 P0000 FIBI
0286726115547402025010513547+43342-072521FM-15+0176KVSF V0209999C00005007925MN0028165N5-00565-00835101065ADDAA101000025AU110030015AW1715GA1075+007925999GA2085+010365999GD13991+0079259GD24991+0103659GE19AGL   +99999+99999GF199999999999007921999999MA1100985098895MW1715REMMET11501/05/25 08:54:02 METAR KVSF 051354Z 00000KT 1 3/4SM -SN BKN026 OVC034 M06/M08 A2982 RMK AO2 SLP106 P0000 T10561083
0295726115547402025010514287+43342-072521FM-16+0176KVSF V0209999C00005008535MN0032195N5-00565-00785999999ADDAA101000021AU110030015AU200001015AW1105AW2715GA1075+008535999GA2085+010675999GD13991+0085359GD24991+0106759GE19AGL   +99999+99999GF199999999999008531999999MA1101025098925MW1715REMMET10701/05/25 09:28:02 SPECI KVSF 051428Z 00000KT 2SM -SN BR BKN028 OVC035 M06/M08 A2983 RMK AO2 P0000 T10561078
0342726115547402025010514547+43342-072521FM-15+0176KVSF V0209999C00005008845MN0028165N5-00505-00785101115ADDAA101000025AA203000021AU110030015AW1715GA1075+008845999GA2085+010975999GD13991+0088459GD24991+0109759GE19AGL   +99999+99999GF199999999999008841999999MA1101025098925MD1390099+9999MW1715REMMET12701/05/25 09:54:02 METAR KVSF 051454Z 00000KT 1 3/4SM -SN BKN029 OVC036 M05/M08 A2983 RMK AO2 SLP111 P0000 60000 T10501078 53009EQDQ01  00008PRCP03
0275726115547402025010515017+43342-072521FM-16+0176KVSF V0209999C00005008235MN0032195N5-00505-00785999999ADDAA101000021AU110030015AW1715GA1075+008235999GA2085+010975999GD13991+0082359GD24991+0109759GE19AGL   +99999+99999GF199999999999008231999999MA1101025098925MW1715REMMET10401/05/25 10:01:02 SPECI KVSF 051501Z 00000KT 2SM -SN BKN027 OVC036 M05/M08 A2983 RMK AO2 P0000 T10501078
0286726115547402025010515377+43342-072521FM-16+0176KVSF V0203205N00465007625MN0080475N5-00445-00945999999ADDAA101000021AU110030015AW1715GA1075+007625999GA2085+010065999GD13991+0076259GD24991+0100659GE19AGL   +99999+99999GF199999999999007621999999MA1101025098925MW1715OC101035REMMET10701/05/25 10:37:02 SPECI KVSF 051537Z 32009G20KT 5SM -SN BKN025 OVC033 M04/M09 A2983 RMK AO2 P0000 T10441094
0293726115547402025010515547+43342-072521FM-15+0176KVSF V0203305N00515008845MN0064375N5-00445-01005101115ADDAA101000025AU110030015AW1715GA1075+008845999GA2085+011285999GD13991+0088459GD24991+0112859GE19AGL   +99999+99999GF199999999999008841999999MA1101025098925MW1715OC100885REMMET11401/05/25 10:54:02 METAR KVSF 051554Z 33010G17KT 4SM -SN BKN029 OVC037 M04/M10 A2983 RMK AO2 SLP111 P0000 T10441100
0266726115547402025010516417+43342-072521FM-16+0176KVSF V0203305V00465010675MN0160935N5-00505-01115999999ADDAA101000021GA1025+008845999GA2085+010675999GD11991+0088459GD24991+0106759GE19AGL   +99999+99999GF199999999999008841999999MA1101025098925OC100885REMMET11001/05/25 11:41:02 SPECI KVSF 051641Z 33009G17KT 10SM FEW029 OVC035 M05/M11 A2983 RMK AO2 SNE34 P0000 T10501111
0272726115547402025010516547+43342-072521FM-15+0176KVSF V0203105N00575009755MN0144845N5-00505-01175101105ADDAA101000025GA1075+009755999GA2085+012195999GD13991+0097559GD24991+0121959GE19AGL   +99999+99999GF199999999999009751999999MA1101025098925OC101135REMMET11601/05/25 11:54:02 METAR KVSF 051654Z 31011G22KT 9SM BKN032 OVC040 M05/M12 A2983 RMK AO2 SNE34 SLP110 P0000 T10501117
0294726115547402025010517167+43342-072521FM-16+0176KVSF V0203005N00675008845MN0080475N5-00565-01175999999ADDAA101000021AU110030015AW1715GA1075+008845999GA2085+010365999GD13991+0088459GD24991+0103659GE19AGL   +99999+99999GF199999999999008841999999MA1101055098965MW1715OC101135REMMET11501/05/25 12:16:02 SPECI KVSF 051716Z 30013G22KT 5SM -SN BKN029 OVC034 M06/M12 A2984 RMK AO2 SNB1658 P0000 T10561117
0308726115547402025010517317+43342-072521FM-16+0176KVSF V0203305N00265009455MN0144845N5-00565-01175999999ADDAA101000021GA1075+009455999GA2075+012195999GA3085+019815999GD13991+0094559GD23991+0121959GD34991+0198159GE19AGL   +99999+99999GF199999999999009451999999MA1101025098925OC100985REMMET12101/05/25 12:31:02 SPECI KVSF 051731Z 33005G19KT 9SM BKN031 BKN040 OVC065 M06/M12 A2983 RMK AO2 SNB1658E26 P0000 T10561117
0386726115547402025010517547+43342-072521FM-15+0176KVSF V0203305V00365019815MN0160935N5-00565-01225101115ADDAA101000025AA206000021GA1045+010675999GA2045+013415999GA3085+019815999GD12991+0106759GD22991+0134159GD34991+0198159GE19AGL   +99999+99999GF199999999999010671999999KA1060M-00441MA1101025098925MD1590009+9999REMMET15001/05/25 12:54:02 METAR KVSF 051754Z 33007KT 10SM SCT035 SCT044 OVC065 M06/M12 A2983 RMK AO2 SNB1658E26 SLP111 P0000 60000 T10561122 11044 21061 55000EQDQ01  00008PRCP06
0276726115547402025010518547+43342-072521FM-15+0176KVSF V0203205N00465019815MN0160935N5-00505-01285101155ADDAA101000025GA1025+010975999GA2085+019815999GD11991+0109759GD24991+0198159GE19AGL   +99999+99999GF199999999999010971999999MA1101055098965OC100725REMMET12001/05/25 13:54:02 METAR KVSF 051854Z 32009G14KT 10SM FEW036 OVC065 M05/M13 A2984 RMK AO2 UPB40E49 SLP115 P0000 T10501128
0260726115547402025010519547+43342-072521FM-15+0176KVSF V0203205N00725012805MN0144845N5-00615-01335101265ADDAA101000095GA1075+012805999GA2085+019815999GD13991+0128059GD24991+0198159GE19AGL   +99999+99999GF199999999999012801999999MA1101155099065OC101295REMMET10401/05/25 14:54:02 METAR KVSF 051954Z 32014G25KT 9SM BKN042 OVC065 M06/M13 A2987 RMK AO2 SLP126 T10611133
0292726115547402025010520547+43342-072521FM-15+0176KVSF V0203305N00625015245MN0160935N5-00675-01395101335ADDAA101000095AA203000021GA1085+015245999GD14991+0152459GE19AGL   +99999+99999GF199999999999015241999999MA1101225099125MD1390219+9999OC101395OD149901391290REMMET12801/05/25 15:54:02 METAR KVSF 052054Z 33012G27KT 10SM OVC050 M07/M14 A2989 RMK AO2 PK WND 29027/2047 SLP133 60000 T10671139 53021
0230726115547402025010521547+43342-072521FM-15+0176KVSF V0203105V003652200059N0160935N5-00725-01445101435ADDAA101000095GA1005+999999999GD10991+9999999GF100991999999999999999999MA1101325099225OC101135OD149901331290REMMET11301/05/25 16:54:02 METAR KVSF 052154Z 31007G22KT 10SM CLR M07/M14 A2992 RMK AO2 PK WND 29026/2109 SLP143 T10721144
0205726115547402025010522457+43342-072521FM-16+0176KVSF V0203305N00315006405MN0160935N5-00835-01445999999ADDGA1075+006405999GD13991+0064059GE19AGL   +99999+99999GF199999999999006401999999MA1101395099295OC100775REMMET09101/05/25 17:45:02 SPECI KVSF 052245Z 33006G15KT 10SM BKN021 M08/M14 A2994 RMK AO2 T10831144
0212726115547402025010522547+43342-072521FM-15+0176KVSF V0209999N99999006405MN0160935N5-00835-01505101535ADDAA101000095GA1075+006405999GD13991+0064059GE19AGL   +99999+99999GF199999999999006401999999MA1101425099325REMMET09501/05/25 17:54:02 METAR KVSF 052254Z      KT 10SM BKN021 M08/M15 A2995 RMK AO2 SLP153 T10831150
0213726115547402025010523057+43342-072521FM-16+0176KVSF V0209999V003152200059N0160935N5-00835-01505999999ADDGA1045+006715999GD12991+0067159GE19AGL   +99999+99999GF104995999999006711999999MA1101425099325REMMET08801/05/25 18:05:02 SPECI KVSF 052305Z VRB06KT 10SM SCT022 M08/M15 A2995 RMK AO2 T10831150EQDD01      0ADE726
0306726115547402025010523547+43342-072521FM-15+0176KVSF V0203305V004152200059N0160935N5-00895-01505101605ADDAA101000095AA206000021GA1045+008235999GD12991+0082359GE19AGL   +99999+99999GF104995999999008231999999KA1060M-00501KA2060N-00891MA1101495099395MD1190269+9999REMMET11901/05/25 18:54:02 METAR KVSF 052354Z 33008KT 10SM SCT027 M09/M15 A2997 RMK AO2 SLP160 60000 T10891150 11050 21089 51026EQDD01      0ADE726
0205726115547402025010600057+43342-072521FM-16+0176KVSF V0202905N00365008235MN0160935N5-00895-01505999999ADDGA1075+008235999GD13991+0082359GE19AGL   +99999+99999GF199999999999008231999999MA1101495099395OC101035REMMET09101/05/25 19:05:01 SPECI KVSF 060005Z 29007G20KT 10SM BKN027 M09/M15 A2997 RMK AO2 T10891150
0224726115547402025010600267+43342-072521FM-16+0176KVSF V0202805V005152200059N0160935N5-00895-01505999999ADDGA1045+007925999GD12991+0079259GE19AGL   +99999+99999GF104995999999007921999999MA1101495099395OC100825REMMET09101/05/25 19:26:01 SPECI KVSF 060026Z 28010G16KT 10SM SCT026 M09/M15 A2997 RMK AO2 T10891150EQDD01      0ADE726
0187726115547402025010600547+43342-072521FM-15+0176KVSF V0209999V002652200059N0160935N5-00895-01505101625ADDAA101000095GA1005+999999999GD10991+9999999GF100991999999999999999999MA1101525099425REMMET09201/05/25 19:54:01 METAR KVSF 060054Z VRB05KT 10SM CLR M09/M15 A2998 RMK AO2 SLP162 T10891150
0198726115547402025010601547+43342-072521FM-15+0176KVSF V0209999V002652200059N0160935N5-00945-01505101695ADDAA101000095GA1005+999999999GD10991+9999999GF100991999999999999999999MA1101595099495OC100775REMMET09501/05/25 20:54:01 METAR KVSF 060154Z VRB05G15KT 10SM CLR M09/M15 A3000 RMK AO2 SLP169 T10941150
0251726115547402025010602547+43342-072521FM-15+0176KVSF V0200505N001552200059N0160935N5-01005-01505101645ADDAA101000095GA1045+009145999GD12991+0091459GE19AGL   +99999+99999GF104995999999009141999999MA1101525099425MD1090049+9999REMMET10101/05/25 21:54:01 METAR KVSF 060254Z 05003KT 10SM SCT030 M10/M15 A2998 RMK AO2 SLP164 T11001150 50004EQDD01      0ADE726
0187726115547402025010603547+43342-072521FM-15+0176KVSF V0200105N002152200059N0160935N5-01115-01615101685ADDAA101000095GA1005+999999999GD10991+9999999GF100991999999999999999999MA1101565099465REMMET09201/05/25 22:54:02 METAR KVSF 060354Z 01004KT 10SM CLR M11/M16 A2999 RMK AO2 SLP168 T11111161
0223726115547402025010604547+43342-072521FM-15+0176KVSF V0203605N002152200059N0160935N5-01175-01675101685ADDAA101000095GA1005+999999999GD10991+9999999GF100991999999999999999999KA1240M-00331KA2240N-01171MA1101565099465REMMET10201/05/25 23:54:02 METAR KVSF 060454Z 36004KT 10SM CLR M12/M17 A2999 RMK AO2 SLP168 T11171167 410331117
0910726115547402025010604596+43342-072521SOD  +0176KVSF V020999999999999999999999999999+99999+99999999999ADDAA124000025AT1AU18SN  5AT2AU13BR  5KA1240M-00325KA2240N-01165MG1098934100814OE11240143129015475OE22240080530015145OE33240027799999995REMSOD73024 HR PRECIPITATION (IN):T     24 HR MAX TEMP (F):26 24 HR MAX TEMP TIME (LST):0127 24 HR MIN TEMP (F):11 24 HR MIN TEMP TIME (LST):2359 AVERAGE STATION PRESSURE:29.215 MINIMUM SEA LEVEL PRESSURE:29.77 TIME OF OCCURRENCE:0109 PEAK WIND SPEED (MPH):32  PEAK WIND DIR (DEG):290 PEAK WIND TIME (LST):1547  FASTEST 2MIN SPEED (MPH):18 FASTEST 2MIN DIR (DEG):300 FASTEST 2MIN TIME (LST):1514 AVERAGE WIND SPEED (MPH):6.2  24 HR AVG TEMP (F):19 HEATING DEGREE DAYS:46  COOLING DEGREE DAYS:0   LATEST DAY MAX TEMP (0700-1900 LST):24  LATEST NIGHT MIN TEMP(1900-0800 LST):20 HOURLY INCREMENTAL PRECIPITATION VALUES (IN):    0.00 0.00 0.00 T    T    T    T    T    T    T    T    T    T    0.00 0.00 0.00 0.00 0.00 0.00 0.00 0.00 0.00 0.00EQDR01     N7GJS072R02     N7GKS075
0245726115547402025010605547+43342-072521FM-15+0176KVSF V0203405N002652200059N0160935N5-01225-01675101635ADDAA101000095GA1005+999999999GD10991+9999999GF100991999999999999999999KA1060M-00891KA2060N-01221MA1101525099425MD1890019+9999REMMET11001/06/25 00:54:02 METAR KVSF 060554Z 34005KT 10SM CLR M12/M17 A2998 RMK AO2 SLP163 T11221167 11089 21122 58001
0231726115547402025010606547+43342-072521FM-15+0176KVSF V0203505N004152200059N0160935N5-01065-01675101635ADDAA101000095GA1045+009755999GD12991+0097559GE19AGL   +99999+99999GF104995999999009751999999MA1101525099425REMMET09501/06/25 01:54:02 METAR KVSF 060654Z 35008KT 10SM SCT032 M11/M17 A2998 RMK AO2 SLP163 T11061167EQDD01      0ADE726
0141726115547402025010607526+43342-072521FM-16+0176KVSF V0203305N00365008535MN0160935N5-01105-01705999999ADDGA1075+008535999GD13991+0085359MA1101565099465REMMET08301/06/25 02:52:02 SPECI KVSF 060752Z 33007KT 10SM BKN028 M11/M17 A2999 RMK AO2 FIBI
0212726115547402025010607547+43342-072521FM-15+0176KVSF V0203205N00315008535MN0160935N5-01115-01675101685ADDAA101000095GA1075+008535999GD13991+0085359GE19AGL   +99999+99999GF199999999999008531999999MA1101565099465REMMET09501/06/25 02:54:02 METAR KVSF 060754Z 32006KT 10SM BKN028 M11/M17 A2999 RMK AO2 SLP168 T11111167
0232726115547402025010608167+43342-072521FM-16+0176KVSF V0203505N00315009145MN0160935N5-01115-01675999999ADDGA1045+007325999GA2075+009145999GD12991+0073259GD23991+0091459GE19AGL   +99999+99999GF199999999999007321999999MA1101565099465REMMET09501/06/25 03:16:02 SPECI KVSF 060816Z 35006KT 10SM SCT024 BKN030 M11/M17 A2999 RMK AO2 T11111167
0232726115547402025010608237+43342-072521FM-16+0176KVSF V0203405N00315007015MN0160935N5-01115-01675999999ADDGA1075+007015999GA2075+009145999GD13991+0070159GD23991+0091459GE19AGL   +99999+99999GF199999999999007011999999MA1101565099465REMMET09501/06/25 03:23:02 SPECI KVSF 060823Z 34006KT 10SM BKN023 BKN030 M11/M17 A2999 RMK AO2 T11111167
0141726115547402025010608526+43342-072521FM-16+0176KVSF V0200105N003652200059N0160935N5-01105-01605999999ADDGA1045+006405999GD12991+0064059MA1101525099425REMMET08301/06/25 03:52:02 SPECI KVSF 060852Z 01007KT 10SM SCT021 M11/M16 A2998 RMK AO2 FIBI
0251726115547402025010608547+43342-072521FM-15+0176KVSF V0203605N002652200059N0160935N5-01115-01615101625ADDAA101000095GA1025+006405999GD11991+0064059GE19AGL   +99999+99999GF102995999999006401999999MA1101525099425MD1890069+9999REMMET10101/06/25 03:54:02 METAR KVSF 060854Z 36005KT 10SM FEW021 M11/M16 A2998 RMK AO2 SLP162 T11111161 58006EQDD01      0ADE726
0187726115547402025010609547+43342-072521FM-15+0176KVSF V0200605N002152200059N0160935N5-01225-01615101605ADDAA101000095GA1005+999999999GD10991+9999999GF100991999999999999999999MA1101495099395REMMET09201/06/25 04:54:02 METAR KVSF 060954Z 06004KT 10SM CLR M12/M16 A2997 RMK AO2 SLP160 T11221161
0187726115547402025010610547+43342-072521FM-15+0176KVSF V0200605N001552200059N0160935N5-01225-01615101545ADDAA101000095GA1005+999999999GD10991+9999999GF100991999999999999999999MA1101425099325REMMET09201/06/25 05:54:02 METAR KVSF 061054Z 06003KT 10SM CLR M12/M16 A2995 RMK AO2 SLP154 T11221161
0245726115547402025010611547+43342-072521FM-15+0176KVSF V0202305N001552200059N0160935N5-01285-01615101595ADDAA101000095GA1005+999999999GD10991+9999999GF100991999999999999999999KA1060M-01061KA2060N-01281MA1101495099395MD1590039+9999REMMET11001/06/25 06:54:02 METAR KVSF 061154Z 23003KT 10SM CLR M13/M16 A2997 RMK AO2 SLP159 T11281161 11106 21128 55003
0187726115547402025010612547+43342-072521FM-15+0176KVSF V0209999V001552200059N0160935N5-01225-01675101565ADDAA101000095GA1005+999999999GD10991+9999999GF100991999999999999999999MA1101465099365REMMET09201/06/25 07:54:02 METAR KVSF 061254Z VRB03KT 10SM CLR M12/M17 A2996 RMK AO2 SLP156 T11221167
0187726115547402025010613547+43342-072521FM-15+0176KVSF V0200705N002152200059N0160935N5-01175-01615101515ADDAA101000095GA1005+999999999GD10991+9999999GF100991999999999999999999MA1101395099295REMMET09201/06/25 08:54:02 METAR KVSF 061354Z 07004KT 10SM CLR M12/M16 A2994 RMK AO2 SLP151 T11171161
0207726115547402025010614547+43342-072521FM-15+0176KVSF V0200505N002652200059N0160935N5-01115-01675101415ADDAA101000095GA1005+999999999GD10991+9999999GF100991999999999999999999MA1101295099195MD1890189+9999REMMET09801/06/25 09:54:02 METAR KVSF 061454Z 05005KT 10SM CLR M11/M17 A2991 RMK AO2 SLP141 T11111167 58018
0187726115547402025010615547+43342-072521FM-15+0176KVSF V0200205N002152200059N0160935N5-01005-01675101325ADDAA101000095GA1005+999999999GD10991+9999999GF100991999999999999999999MA1101195099095REMMET09201/06/25 10:54:02 METAR KVSF 061554Z 02004KT 10SM CLR M10/M17 A2988 RMK AO2 SLP132 T11001167
0187726115547402025010616547+43342-072521FM-15+0176KVSF V0200505N003652200059N0160935N5-00945-01615101085ADDAA101000095GA1005+999999999GD10991+9999999GF100991999999999999999999MA1100955098865REMMET09201/06/25 11:54:02 METAR KVSF 061654Z 05007KT 10SM CLR M09/M16 A2981 RMK AO2 SLP108 T10941161
0245726115547402025010617547+43342-072521FM-15+0176KVSF V0209999V002652200059N0160935N5-00835-01565100955ADDAA101000095GA1005+999999999GD10991+9999999GF100991999999999999999999KA1060M-00831KA2060N-01281MA1100855098765MD1890449+9999REMMET11001/06/25 12:54:02 METAR KVSF 061754Z VRB05KT 10SM CLR M08/M16 A2978 RMK AO2 SLP095 T10831156 11083 21128 58044
0187726115547402025010618547+43342-072521FM-15+0176KVSF V0203105N003652200059N0160935N5-00835-01615100875ADDAA101000095GA1005+999999999GD10991+9999999GF100991999999999999999999MA1100755098665REMMET09201/06/25 13:54:02 METAR KVSF 061854Z 31007KT 10SM CLR M08/M16 A2975 RMK AO2 SLP087 T10831161
0187726115547402025010619547+43342-072521FM-15+0176KVSF V0202705N003652200059N0160935N5-00785-01565100795ADDAA101000095GA1005+999999999GD10991+9999999GF100991999999999999999999MA1100685098595REMMET09201/06/25 14:54:02 METAR KVSF 061954Z 27007KT 10SM CLR M08/M16 A2973 RMK AO2 SLP079 T10781156
0218726115547402025010620547+43342-072521FM-15+0176KVSF V0202905V004152200059N0160935N5-00835-01615100735ADDAA101000095GA1005+999999999GD10991+9999999GF100991999999999999999999MA1100615098525MD1690229+9999OC100775REMMET10101/06/25 15:54:02 METAR KVSF 062054Z 29008G15KT 10SM CLR M08/M16 A2971 RMK AO2 SLP073 T10831161 56022
0187726115547402025010621547+43342-072521FM-15+0176KVSF V0209999V002152200059N0160935N5-00895-01675100725ADDAA101000095GA1005+999999999GD10991+9999999GF100991999999999999999999MA1100615098525REMMET09201/06/25 16:54:02 METAR KVSF 062154Z VRB04KT 10SM CLR M09/M17 A2971 RMK AO2 SLP072 T10891167
0187726115547402025010622547+43342-072521FM-15+0176KVSF V0203005N003152200059N0160935N5-01005-01675100735ADDAA101000095GA1005+999999999GD10991+9999999GF100991999999999999999999MA1100615098525REMMET09201/06/25 17:54:02 METAR KVSF 062254Z 30006KT 10SM CLR M10/M17 A2971 RMK AO2 SLP073 T11001167
0245726115547402025010623547+43342-072521FM-15+0176KVSF V0203105N002652200059N0160935N5-01065-01675100725ADDAA101000095GA1005+999999999GD10991+9999999GF100991999999999999999999KA1060M-00721KA2060N-01061MA1100615098525MD1890029+9999REMMET11001/06/25 18:54:02 METAR KVSF 062354Z 31005KT 10SM CLR M11/M17 A2971 RMK AO2 SLP072 T11061167 11072 21106 58002
0187726115547402025010700547+43342-072521FM-15+0176KVSF V0203405N003652200059N0160935N5-01065-01675100715ADDAA101000095GA1005+999999999GD10991+9999999GF100991999999999999999999MA1100585098495REMMET09201/06/25 19:54:01 METAR KVSF 070054Z 34007KT 10SM CLR M11/M17 A2970 RMK AO2 SLP071 T11061167
0187726115547402025010701547+43342-072521FM-15+0176KVSF V0200205N002652200059N0160935N5-01175-01725100675ADDAA101000095GA1005+999999999GD10991+9999999GF100991999999999999999999MA1100545098465REMMET09201/06/25 20:54:01 METAR KVSF 070154Z 02005KT 10SM CLR M12/M17 A2969 RMK AO2 SLP067 T11171172
0251726115547402025010702547+43342-072521FM-15+0176KVSF V0203605N002152200059N0160935N5-01115-01725100625ADDAA101000095GA1045+006105999GD12991+0061059GE19AGL   +99999+99999GF104995999999006101999999MA1100515098425MD1890109+9999REMMET10101/06/25 21:54:01 METAR KVSF 070254Z 36004KT 10SM SCT020 M11/M17 A2968 RMK AO2 SLP062 T11111172 58010EQDD01      0ADE726
0194726115547402025010703027+43342-072521FM-16+0176KVSF V0203405N00215006105MN0160935N5-01175-01725999999ADDGA1075+006105999GD13991+0061059GE19AGL   +99999+99999GF199999999999006101999999MA1100515098425REMMET08801/06/25 22:02:01 SPECI KVSF 070302Z 34004KT 10SM BKN020 M12/M17 A2968 RMK AO2 T11171172
0212726115547402025010703547+43342-072521FM-15+0176KVSF V0203505N00155005495MN0160935N5-01225-01675100605ADDAA101000095GA1085+005495999GD14991+0054959GE19AGL   +99999+99999GF199999999999005491999999MA1100475098395REMMET09501/06/25 22:54:02 METAR KVSF 070354Z 35003KT 10SM OVC018 M12/M17 A2967 RMK AO2 SLP060 T11221167
0248726115547402025010704547+43342-072521FM-15+0176KVSF V0200405N00155004885MN0160935N5-01225-01725100585ADDAA101000095GA1075+004885999GD13991+0048859GE19AGL   +99999+99999GF199999999999004881999999KA1240M-00721KA2240N-01281MA1100475098395REMMET10501/06/25 23:54:02 METAR KVSF 070454Z 04003KT 10SM BKN016 M12/M17 A2967 RMK AO2 SLP058 T11221172 410721128
0886726115547402025010704596+43342-072521SOD  +0176KVSF V020999999999999999999999999999+99999+99999999999ADDAA124000095KA1240M-00715KA2240N-01275MG1099004100584OE11240102829001415OE22240067128015095OE33240025999999995REMSOD73024 HR PRECIPITATION (IN):0.00  24 HR MAX TEMP (F):19 24 HR MAX TEMP TIME (LST):1456 24 HR MIN TEMP (F):9  24 HR MIN TEMP TIME (LST):2359 AVERAGE STATION PRESSURE:29.235 MINIMUM SEA LEVEL PRESSURE:29.70 TIME OF OCCURRENCE:2358 PEAK WIND SPEED (MPH):23  PEAK WIND DIR (DEG):290 PEAK WIND TIME (LST):0141  FASTEST 2MIN SPEED (MPH):15 FASTEST 2MIN DIR (DEG):280 FASTEST 2MIN TIME (LST):1509 AVERAGE WIND SPEED (MPH):5.8  24 HR AVG TEMP (F):14 HEATING DEGREE DAYS:51  COOLING DEGREE DAYS:0   LATEST DAY MAX TEMP (0700-1900 LST):19  LATEST NIGHT MIN TEMP(1900-0800 LST):9  HOURLY INCREMENTAL PRECIPITATION VALUES (IN):.00 0.00 0.00 0.00 0.00 0.00 0.00 0.00 0.00 0.00 0.00 0.00 0.00 0.00 0.00 0.00 0.00 0.00 0.00 0.00 0.00 0.00 0.00 0.00EQDR01     N7GJS072R02     N7GKS075
0270726115547402025010705547+43342-072521FM-15+0176KVSF V0209999C00005007925MN0160935N5-01285-01615100545ADDAA101000095GA1085+007925999GD14991+0079259GE19AGL   +99999+99999GF199999999999007921999999KA1060M-01061KA2060N-01391MA1100445098365MD1890079+9999REMMET11301/07/25 00:54:02 METAR KVSF 070554Z 00000KT 10SM OVC026 M13/M16 A2966 RMK AO2 SLP054 T11281161 11106 21139 58007
0292726115547402025010706547+43342-072521FM-15+0176KVSF V0209999V00215006715MN0040235N5-01175-01505100515ADDAA101000025AU110030015AW1715GA1075+006715999GA2085+008235999GD13991+0067159GD24991+0082359GE19AGL   +99999+99999GF199999999999006711999999MA1100415098325MW1715REMMET12101/07/25 01:54:02 METAR KVSF 070654Z VRB04KT 2 1/2SM -SN BKN022 OVC027 M12/M15 A2965 RMK AO2 SNB18 SLP051 P0000 T11171150
0242726115547402025010707057+43342-072521FM-16+0176KVSF V0203005N00215006715MN0048285N5-01065-01505999999ADDAA101000021AU100007015AW1051GA1085+006715999GD14991+0067159GE19AGL   +99999+99999GF199999999999006711999999MA1100415098325MW1055REMMET10201/07/25 02:05:02 SPECI KVSF 070705Z 30004KT 3SM HZ OVC022 M11/M15 A2965 RMK AO2 SNE05 P0000 T11061150
0250726115547402025010707527+43342-072521FM-16+0176KVSF V0209999V00265011285MN0112655N5-01105-01605999999ADDAA101000021GA1045+007625999GA2085+011285999GD12991+0076259GD24991+0112859GE19AGL   +99999+99999GF199999999999007621999999MA1100375098295REMMET10201/07/25 02:52:02 SPECI KVSF 070752Z VRB05KT 7SM SCT025 OVC037 M11/M16 A2964 RMK AO2 SNE05B36E38 P0000
0267726115547402025010707547+43342-072521FM-15+0176KVSF V0209999C00005011285MN0112655N5-01065-01565100475ADDAA101000025GA1045+007625999GA2085+011285999GD12991+0076259GD24991+0112859GE19AGL   +99999+99999GF199999999999007621999999MA1100375098295REMMET11901/07/25 02:54:02 METAR KVSF 070754Z 00000KT 7SM SCT025 OVC037 M11/M16 A2964 RMK AO2 SNE05B36E38 SLP047 P0000 T11061156
0232726115547402025010708217+43342-072521FM-16+0176KVSF V0209999V00215007015MN0160935N5-01065-01565999999ADDGA1075+007015999GA2085+010975999GD13991+0070159GD24991+0109759GE19AGL   +99999+99999GF199999999999007011999999MA1100305098225REMMET09501/07/25 03:21:02 SPECI KVSF 070821Z VRB04KT 10SM BKN023 OVC036 M11/M16 A2962 RMK AO2 T11061156
0249726115547402025010708547+43342-072521FM-15+0176KVSF V0203005N00315007925MN0160935N5-01065-01615100405ADDAA101000095AA203000021GA1085+007925999GD14991+0079259GE19AGL   +99999+99999GF199999999999007921999999MA1100275098195MD1890119+9999REMMET10701/07/25 03:54:02 METAR KVSF 070854Z 30006KT 10SM OVC026 M11/M16 A2961 RMK AO2 SLP040 60000 T11061161 58011
0212726115547402025010709547+43342-072521FM-15+0176KVSF V0209999C00005008535MN0160935N5-01065-01615100375ADDAA101000095GA1085+008535999GD14991+0085359GE19AGL   +99999+99999GF199999999999008531999999MA1100275098195REMMET09501/07/25 04:54:02 METAR KVSF 070954Z 00000KT 10SM OVC028 M11/M16 A2961 RMK AO2 SLP037 T11061161
0212726115547402025010710547+43342-072521FM-15+0176KVSF V0202805V00365008845MN0160935N5-01005-01615100385ADDAA101000095GA1085+008845999GD14991+0088459GE19AGL   +99999+99999GF199999999999008841999999MA1100275098195REMMET09501/07/25 05:54:02 METAR KVSF 071054Z 28007KT 10SM OVC029 M10/M16 A2961 RMK AO2 SLP038 T11001161
0270726115547402025010711157+43342-072521FM-16+0176KVSF V0203405N00215009455MN0160935N5-01005-01615999999ADDGA1075+009455999GA2075+011895999GA3085+014025999GD13991+0094559GD23991+0118959GD34991+0140259GE19AGL   +99999+99999GF199999999999009451999999MA1100275098195REMMET10201/07/25 06:15:02 SPECI KVSF 071115Z 34004KT 10SM BKN031 BKN039 OVC046 M10/M16 A2961 RMK AO2 T11001161
0281726115547402025010711327+43342-072521FM-16+0176KVSF V0209999C00005008845MN0112655N5-01005-01565999999ADDAA101000021AU110030015AW1715GA1075+008845999GA2075+014025999GD13991+0088459GD23991+0140259GE19AGL   +99999+99999GF199999999999008841999999MA1100275098195MW1715REMMET11001/07/25 06:32:02 SPECI KVSF 071132Z 00000KT 7SM -SN BKN029 BKN046 M10/M16 A2961 RMK AO2 SNB27 P0000 T11001156
0358726115547402025010711547+43342-072521FM-15+0176KVSF V0209999C00005008235MN0112655N5-01005-01565100415ADDAA101000025AA206000021GA1075+008235999GA2075+010065999GD13991+0082359GD23991+0100659GE19AGL   +99999+99999GF199999999999008231999999KA1060M-01001KA2060N-01331MA1100305098225MD1390019+9999REMMET14001/07/25 06:54:02 METAR KVSF 071154Z 00000KT 7SM BKN027 BKN033 M10/M16 A2962 RMK AO2 SNB27E38 SLP041 P0000 60000 T11001156 11100 21133 53001EQDQ01  00008PRCP06
0257726115547402025010712287+43342-072521FM-16+0176KVSF V0209999V00315009755MN0096565N5-01005-01505999999ADDAU100007015AW1051GA1075+009755999GA2085+024385999GD13991+0097559GD24991+0243859GE19AGL   +99999+99999GF199999999999009751999999MA1100275098195MW1055REMMET09701/07/25 07:28:02 SPECI KVSF 071228Z VRB06KT 6SM HZ BKN032 OVC080 M10/M15 A2961 RMK AO2 T11001150
0183726115547402025010712526+43342-072521FM-16+0176KVSF V0203105N00215011895MN0040235N5-01005-01505999999ADDAU110030015AW1715GA1085+011895999GD14991+0118959MA1100305098225MW1715REMMET10201/07/25 07:52:02 SPECI KVSF 071252Z 31004KT 2 1/2SM -SN OVC039 M10/M15 A2962 RMK AO2 SNB43 P0000 FIBI
0254726115547402025010712547+43342-072521FM-15+0176KVSF V0209999V00215012505MN0040235N5-01005-01505100435ADDAA101000025AU110030015AW1715GA1085+012505999GD14991+0125059GE19AGL   +99999+99999GF199999999999012501999999MA1100305098225MW1715REMMET11401/07/25 07:54:02 METAR KVSF 071254Z VRB04KT 2 1/2SM -SN OVC041 M10/M15 A2962 RMK AO2 SNB43 SLP043 P0000 T11001150
0237726115547402025010713057+43342-072521FM-16+0176KVSF V0202905N00265011895MN0048285N5-01005-01505999999ADDAA101000021AU110030015AW1715GA1085+011895999GD14991+0118959GE19AGL   +99999+99999GF199999999999011891999999MA1100305098225MW1715REMMET09701/07/25 08:05:02 SPECI KVSF 071305Z 29005KT 3SM -SN OVC039 M10/M15 A2962 RMK AO2 P0000 T11001150
0248726115547402025010713427+43342-072521FM-16+0176KVSF V0203005N00415009455MN0032195N5-00945-01445999999ADDAA101000021AU110030015AW1715GA1085+009455999GD14991+0094559GE19AGL   +99999+99999GF199999999999009451999999MA1100305098225MW1715OC100825REMMET10001/07/25 08:42:02 SPECI KVSF 071342Z 30008G16KT 2SM -SN OVC031 M09/M14 A2962 RMK AO2 P0000 T10941144
0242726115547402025010713497+43342-072521FM-16+0176KVSF V0202905N00465008235MN0024145N5-00905-01405999999ADDAA101000021AU110030015AW1715GA1085+008235999GD14991+0082359GE19AGL   +99999+99999GF199999999999008231999999MA1100305098225MW1715OC100885REMMET09401/07/25 08:49:02 SPECI KVSF 071349Z 29009G17KT 1 1/2SM -SN OVC027 M09/M14 A2962 RMK AO2 P0000
0259726115547402025010713547+43342-072521FM-15+0176KVSF V0203005N00265008235MN0020125N5-00945-01445100425ADDAA101000025AU110030015AW1715GA1085+008235999GD14991+0082359GE19AGL   +99999+99999GF199999999999008231999999MA1100305098225MW1715OC100885REMMET11101/07/25 08:54:02 METAR KVSF 071354Z 30005G17KT 1 1/4SM -SN OVC027 M09/M14 A2962 RMK AO2 SLP042 P0000 T10941144
