0147726140547422023010100546+44420-072019FM-15+0212K1V4 V02099999999999999999N9999997N5+00335+00285100815ADDMA1100715098205REMMET08512/31/22 19:54:03 METAR K1V4 010054Z      KT 03/03 A2974 RMK AO1 SLP081 T00330028 PNOEQDR01      7SKY009R02      7GAS009
0147726140547422023010101546+44420-072019FM-15+0212K1V4 V02099999999999999999N9999997N5+00395+00285100665ADDMA1100585098075REMMET08512/31/22 20:54:03 METAR K1V4 010154Z      KT 04/03 A2970 RMK AO1 SLP066 T00390028 PNOEQDR01      7SKY009R02      7GAS009
0173726140547422023010102546+44420-072019FM-15+0212K1V4 V02099999999999999999N9999997N5+00335+00285100575ADDMA1100515098005MD1690309+9999REMMET09712/31/22 21:54:03 METAR K1V4 010254Z      KT 03/03 A2968 RMK AO1 SLP057 6//// T00330028 56030 PNOEQDR01      7SKY009R02      7GAS009
0147726140547422023010103546+44420-072019FM-15+0212K1V4 V02099999999999999999N9999997N5+00335+00285100475ADDMA1100415097905REMMET08512/31/22 22:54:03 METAR K1V4 010354Z      KT 03/03 A2965 RMK AO1 SLP047 T00330028 PNOEQDR01      7SKY009R02      7GAS009
0157726140547422023010104546+44420-072019FM-15+0212K1V4 V02099999999999999999N9999997N5+00335+00285100365ADDMA1100305097805REMMET09512/31/22 23:54:03 METAR K1V4 010454Z      KT 03/03 A2962 RMK AO1 SLP036 T00330028 400780000 PNOEQDR01      7SKY009R02      7GAS009
0600726140547422023010104596+44420-072019SOD  +0212K1V4 V020999999999999999999999999999+99999+99999999999ADDAA124000095KA1240M+00785KA2240N+00005MG1098764100344OE11249999999999997OE22249999999999997REMSOD49824 HR PRECIPITATION (IN): 0.00 24 HR MAX TEMP (F): 4624 HR MIN TEMP (F): 32AVERAGE STATION PRESSURE:29.165 MINIMUM SEA LEVEL PRESSURE:29.63 TIME OF OCCURRENCE:2359 24 HR AVG TEMP (F): 39DEPART FROM NORMAL: 20  HEATING DEGREE DAYS: 26 COOLING DEGREE DAYS:  0 LATEST DAY MAX TEMP (0700-1900 LST):46  LATEST NIGHT MIN TEMP(1900-0800 LST):32 HOURLY INCREMENTAL PRECIPITATION VALUES (IN):    M    M    M    M    M    M    M    M    M    M    M    M    M    M    M    M    M    M    M    M    M    M    M
1292726140547422023010104596+44420-072019SOM  +0212K1V4 V020999999999999999999999999999+99999+99999999999ADDAB10000095AE1005005005005AI1060999999999997AI2080999999999997AI3100999999999997AI4120999999999997AI5150999999999997AI6180999999999997KB1744N-06005KB2744M+02115KB3744A-01945KC1N9-01611399995KC2M9+01053023995KD1744H11246KD2744C00005KE1135005285005MH1099244101934MK1103492209075096992318275REMSOM782PCP MTOT:0.00 PCP GT 24HRS:M DAYS W/PCP >=.01:0  DAYS W/PCP >=.10:0  DAYS W/ PCP >=.50:0 DAYS W/PCP >=1.00:0 MSDP AMTS W/DATE-TIME TAGS:MIN:5 0.00    /     MIN:10 0.00    /     MIN:15 0.00    /     MIN:20 0.00    /     MIN:30 0.00    /     MIN:45 0.00    /     MIN:60 0.00    /     MIN:80 0.00    /     MIN:100 0.00    /     MIN:120 0.00    /     MIN:150 0.00    /     MIN:180 0.00    /     AVG DLY MIN:21.2  AVG DLY MAX:35.8  AVG MLY TMP:28.5  MIN TMP:3  DATE(S):13 MAX TMP:51  DATE(S):30 23 DAYS MAX <=32:1 DAYS MAX >=90:0  DAYS MIN <=32:28 DAYS MIN  <=0:0  AVG STP:29.305 LWST SLP:28.64 DATE/TIME:231827 HGST SLP:30.56 DATE/TIME:220907 HDD MTH TOT:1124 DEP NORM:-2553 SEASON(JUL 1-JUN 30):2601 DEP NORM:-25536 CDD MTH TOT:0 DEP NORM:-2553 SEASON(JAN 1-DEC 31):332 DEP NORM:-25536EQDR01  0.007A01001R02  0.007A02007R03  0.007A03013R04  0.007A04019R05  0.007A05026R06  0.007A06033R07  0.007A07039R08  0.007A08046R09  0.007A09052R10  0.007A10058R11  0.007A11065R12  0.007A12071R13  11247KDH045
0185726140547422023010105546+44420-072019FM-15+0212K1V4 V02099999999999999999N9999997N5+00335+00285100315ADDMA1100275097775MD1690239+9999REMMET10901/01/23 00:54:02 METAR K1V4 010554Z      KT 03/03 A2961 RMK AO1 SLP031 6//// T00330028 10039 20033 56023 PNOEQDR01      7SKY009R02      7GAS009
0147726140547422023010106546+44420-072019FM-15+0212K1V4 V02099999999999999999N9999997N5+00335+00285100245ADDMA1100205097705REMMET08501/01/23 01:54:02 METAR K1V4 010654Z      KT 03/03 A2959 RMK AO1 SLP024 T00330028 PNOEQDR01      7SKY009R02      7GAS009
0147726140547422023010107546+44420-072019FM-15+0212K1V4 V02099999999999999999N9999997N5+00335+00285100235ADDMA1100175097675REMMET08501/01/23 02:54:02 METAR K1V4 010754Z      KT 03/03 A2958 RMK AO1 SLP023 T00330028 PNOEQDR01      7SKY009R02      7GAS009
0173726140547422023010108546+44420-072019FM-15+0212K1V4 V02099999999999999999N9999997N5+00285+00225100225ADDMA1100175097675MD1690109+9999REMMET09701/01/23 03:54:02 METAR K1V4 010854Z      KT 03/02 A2958 RMK AO1 SLP022 6//// T00280022 56010 PNOEQDR01      7SKY009R02      7GAS009
0147726140547422023010109546+44420-072019FM-15+0212K1V4 V02099999999999999999N9999997N5+00335+00225100275ADDMA1100205097705REMMET08501/01/23 04:54:02 METAR K1V4 010954Z      KT 03/02 A2959 RMK AO1 SLP027 T00330022 PNOEQDR01      7SKY009R02      7GAS009
0147726140547422023010110546+44420-072019FM-15+0212K1V4 V02099999999999999999N9999997N5+00285+00225100355ADDMA1100305097805REMMET08501/01/23 05:54:02 METAR K1V4 011054Z      KT 03/02 A2962 RMK AO1 SLP035 T00280022 PNOEQDR01      7SKY009R02      7GAS009
0191726140547422023010111546+44420-072019FM-15+0212K1V4 V02099999999999999999N9999997N5+00615+00505100435ADDMA1100375097875MD1390219+9999REMMET11501/01/23 06:54:02 METAR K1V4 011154Z      KT 06/05 A2964 RMK AO1 SLP043 6//// 7//// T00610050 10067 20028 53021 PNOEQDR01      7SKY009R02      7GAS009
0147726140547422023010112546+44420-072019FM-15+0212K1V4 V02099999999999999999N9999997N5+00675+00395100565ADDMA1100515098005REMMET08501/01/23 07:54:02 METAR K1V4 011254Z      KT 07/04 A2968 RMK AO1 SLP056 T00670039 PNOEQDR01      7SKY009R02      7GAS009
0147726140547422023010113546+44420-072019FM-15+0212K1V4 V02099999999999999999N9999997N5+00615+00335100695ADDMA1100645098135REMMET08501/01/23 08:54:02 METAR K1V4 011354Z      KT 06/03 A2972 RMK AO1 SLP069 T00610033 PNOEQDR01      7SKY009R02      7GAS009
0173726140547422023010114546+44420-072019FM-15+0212K1V4 V02099999999999999999N9999997N5+00615+00225100785ADDMA1100755098235MD1190349+9999REMMET09701/01/23 09:54:02 METAR K1V4 011454Z      KT 06/02 A2975 RMK AO1 SLP078 6//// T00610022 51034 PNOEQDR01      7SKY009R02      7GAS009
0147726140547422023010115546+44420-072019FM-15+0212K1V4 V02099999999999999999N9999997N5+00615+00175100815ADDMA1100755098235REMMET08501/01/23 10:54:02 METAR K1V4 011554Z      KT 06/02 A2975 RMK AO1 SLP081 T00610017 PNOEQDR01      7SKY009R02      7GAS009
0147726140547422023010116546+44420-072019FM-15+0212K1V4 V02099999999999999999N9999997N5+00615+00175100855ADDMA1100815098305REMMET08501/01/23 11:54:02 METAR K1V4 011654Z      KT 06/02 A2977 RMK AO1 SLP085 T00610017 PNOEQDR01      7SKY009R02      7GAS009
0185726140547422023010117546+44420-072019FM-15+0212K1V4 V02099999999999999999N9999997N5+00615+00175100885ADDMA1100815098305MD1290099+9999REMMET10901/01/23 12:54:02 METAR K1V4 011754Z      KT 06/02 A2977 RMK AO1 SLP088 6//// T00610017 10072 20061 52009 PNOEQDR01      7SKY009R02      7GAS009
0147726140547422023010118546+44420-072019FM-15+0212K1V4 V02099999999999999999N9999997N5+00505+00115100965ADDMA1100915098405REMMET08501/01/23 13:54:02 METAR K1V4 011854Z      KT 05/01 A2980 RMK AO1 SLP096 T00500011 PNOEQDR01      7SKY009R02      7GAS009
0147726140547422023010119546+44420-072019FM-15+0212K1V4 V02099999999999999999N9999997N5+00505+00115101015ADDMA1100955098435REMMET08501/01/23 14:54:02 METAR K1V4 011954Z      KT 05/01 A2981 RMK AO1 SLP101 T00500011 PNOEQDR01      7SKY009R02      7GAS009
0173726140547422023010120546+44420-072019FM-15+0212K1V4 V02099999999999999999N9999997N5+00395+00065101105ADDMA1101055098535MD1390219+9999REMMET09701/01/23 15:54:02 METAR K1V4 012054Z      KT 04/01 A2984 RMK AO1 SLP110 6//// T00390006 53021 PNOEQDR01      7SKY009R02      7GAS009
0148726140547422023010121546+44420-072019FM-15+0212K1V4 V02099999999999999999N9999997N5+00395-00175101175ADDMA1101125098605REMMET08601/01/23 16:54:02 METAR K1V4 012154Z      KT 04/M02 A2986 RMK AO1 SLP117 T00391017 PNOEQDR01      7SKY009R02      7GAS009
0148726140547422023010122546+44420-072019FM-15+0212K1V4 V02099999999999999999N9999997N5+00335-00175101235ADDMA1101155098635REMMET08601/01/23 17:54:02 METAR K1V4 012254Z      KT 03/M02 A2987 RMK AO1 SLP123 T00331017 PNOEQDR01      7SKY009R02      7GAS009
0186726140547422023010123546+44420-072019FM-15+0212K1V4 V02099999999999999999N9999997N5+00335-00175101265ADDMA1101225098705MD1190179+9999REMMET11001/01/23 18:54:02 METAR K1V4 012354Z      KT 03/M02 A2989 RMK AO1 SLP126 6//// T00331017 10061 20033 51017 PNOEQDR01      7SKY009R02      7GAS009
0148726140547422023010200546+44420-072019FM-15+0212K1V4 V02099999999999999999N9999997N5+00285-00175101335ADDMA1101295098775REMMET08601/01/23 19:54:01 METAR K1V4 020054Z      KT 03/M02 A2991 RMK AO1 SLP133 T00281017 PNOEQDR01      7SKY009R02      7GAS009
0148726140547422023010201546+44420-072019FM-15+0212K1V4 V02099999999999999999N9999997N5+00285-00175101355ADDMA1101295098775REMMET08601/01/23 20:54:01 METAR K1V4 020154Z      KT 03/M02 A2991 RMK AO1 SLP135 T00281017 PNOEQDR01      7SKY009R02      7GAS009
0174726140547422023010202546+44420-072019FM-15+0212K1V4 V02099999999999999999N9999997N5+00225-00175101425ADDMA1101355098835MD1390169+9999REMMET09801/01/23 21:54:01 METAR K1V4 020254Z      KT 02/M02 A2993 RMK AO1 SLP142 6//// T00221017 53016 PNOEQDR01      7SKY009R02      7GAS009
0148726140547422023010203546+44420-072019FM-15+0212K1V4 V02099999999999999999N9999997N5+00225-00175101465ADDMA1101395098865REMMET08601/01/23 22:54:02 METAR K1V4 020354Z      KT 02/M02 A2994 RMK AO1 SLP146 T00221017 PNOEQDR01      7SKY009R02      7GAS009
0158726140547422023010204546+44420-072019FM-15+0212K1V4 V02099999999999999999N9999997N5+00175-00115101425ADDMA1101355098835REMMET09601/01/23 23:54:02 METAR K1V4 020454Z      KT 02/M01 A2993 RMK AO1 SLP142 T00171011 400720017 PNOEQDR01      7SKY009R02      7GAS009
0600726140547422023010204596+44420-072019SOD  +0212K1V4 V020999999999999999999999999999+99999+99999999999ADDAA124000095KA1240M+00725KA2240N+00175MG1098144100204OE11249999999999997OE22249999999999997REMSOD49824 HR PRECIPITATION (IN): 0.00 24 HR MAX TEMP (F): 4524 HR MIN TEMP (F): 35AVERAGE STATION PRESSURE:28.980 MINIMUM SEA LEVEL PRESSURE:29.59 TIME OF OCCURRENCE:0355 24 HR AVG TEMP (F): 40DEPART FROM NORMAL: 21  HEATING DEGREE DAYS: 25 COOLING DEGREE DAYS:  0 LATEST DAY MAX TEMP (0700-1900 LST):45  LATEST NIGHT MIN TEMP(1900-0800 LST):37 HOURLY INCREMENTAL PRECIPITATION VALUES (IN):    M    M    M    M    M    M    M    M    M    M    M    M    M    M    M    M    M    M    M    M    M    M    M
0186726140547422023010205546+44420-072019FM-15+0212K1V4 V02099999999999999999N9999997N5+00175-00175101455ADDMA1101395098865MD1190019+9999REMMET11001/02/23 00:54:02 METAR K1V4 020554Z      KT 02/M02 A2994 RMK AO1 SLP145 6//// T00171017 10033 20017 51001 PNOEQDR01      7SKY009R02      7GAS009
0148726140547422023010206546+44420-072019FM-15+0212K1V4 V02099999999999999999N9999997N5+00115-00115101475ADDMA1101395098865REMMET08601/02/23 01:54:02 METAR K1V4 020654Z      KT 01/M01 A2994 RMK AO1 SLP147 T00111011 PNOEQDR01      7SKY009R02      7GAS009
0148726140547422023010207546+44420-072019FM-15+0212K1V4 V02099999999999999999N9999997N5+00115-00115101555ADDMA1101495098965REMMET08601/02/23 02:54:02 METAR K1V4 020754Z      KT 01/M01 A2997 RMK AO1 SLP155 T00111011 PNOEQDR01      7SKY009R02      7GAS009
0174726140547422023010208546+44420-072019FM-15+0212K1V4 V02099999999999999999N9999997N5+00115-00115101595ADDMA1101525099005MD1290139+9999REMMET09801/02/23 03:54:02 METAR K1V4 020854Z      KT 01/M01 A2998 RMK AO1 SLP159 6//// T00111011 52013 PNOEQDR01      7SKY009R02      7GAS009
0148726140547422023010209546+44420-072019FM-15+0212K1V4 V02099999999999999999N9999997N5+00065-00115101635ADDMA1101565099035REMMET08601/02/23 04:54:02 METAR K1V4 020954Z      KT 01/M01 A2999 RMK AO1 SLP163 T00061011 PNOEQDR01      7SKY009R02      7GAS009
0148726140547422023010210546+44420-072019FM-15+0212K1V4 V02099999999999999999N9999997N5+00005-00175101625ADDMA1101525099005REMMET08601/02/23 05:54:02 METAR K1V4 021054Z      KT 00/M02 A2998 RMK AO1 SLP162 T00001017 PNOEQDR01      7SKY009R02      7GAS009
0193726140547422023010211546+44420-072019FM-15+0212K1V4 V02099999999999999999N9999997N5-00065-00175101635ADDMA1101565099035MD1190039+9999REMMET11701/02/23 06:54:02 METAR K1V4 021154Z      KT M01/M02 A2999 RMK AO1 SLP163 6//// 7//// T10061017 10017 21006 51003 PNOEQDR01      7SKY009R02      7GAS009
0153726140547422023010212546+44420-072019FM-15+0212K1V4 V02099999999999999999N9999997N5-00065-00175101725ADDMA1101635099105REMMET09101/02/23 07:54:02 METAR K1V4 021254Z      KT M01/M02 A3001 RMK AO1 SLP172 T10061017 PNO RTXEQDR01      7SKY009R02      7GAS009
0148726140547422023010213546+44420-072019FM-15+0212K1V4 V02099999999999999999N9999997N5+00005-00115101725ADDMA1101635099105REMMET08601/02/23 08:54:02 METAR K1V4 021354Z      KT 00/M01 A3001 RMK AO1 SLP172 T00001011 PNOEQDR01      7SKY009R02      7GAS009
0174726140547422023010214546+44420-072019FM-15+0212K1V4 V02099999999999999999N9999997N5+00115-00115101775ADDMA1101695099165MD1190149+9999REMMET09801/02/23 09:54:02 METAR K1V4 021454Z      KT 01/M01 A3003 RMK AO1 SLP177 6//// T00111011 51014 PNOEQDR01      7SKY009R02      7GAS009
0148726140547422023010215546+44420-072019FM-15+0212K1V4 V02099999999999999999N9999997N5+00225-00115101745ADDMA1101665099135REMMET08601/02/23 10:54:02 METAR K1V4 021554Z      KT 02/M01 A3002 RMK AO1 SLP174 T00221011 PNOEQDR01      7SKY009R02      7GAS009
0148726140547422023010216546+44420-072019FM-15+0212K1V4 V02099999999999999999N9999997N5+00395-00115101675ADDMA1101595099065REMMET08601/02/23 11:54:02 METAR K1V4 021654Z      KT 04/M01 A3000 RMK AO1 SLP167 T00391011 PNOEQDR01      7SKY009R02      7GAS009
0186726140547422023010217546+44420-072019FM-15+0212K1V4 V02099999999999999999N9999997N5+00505-00065101635ADDMA1101565099035MD1890139+9999REMMET11001/02/23 12:54:02 METAR K1V4 021754Z      KT 05/M01 A2999 RMK AO1 SLP163 6//// T00501006 10056 21006 58013 PNOEQDR01      7SKY009R02      7GAS009
0148726140547422023010218546+44420-072019FM-15+0212K1V4 V02099999999999999999N9999997N5+00565-00175101645ADDMA1101565099035REMMET08601/02/23 13:54:02 METAR K1V4 021854Z      KT 06/M02 A2999 RMK AO1 SLP164 T00561017 PNOEQDR01      7SKY009R02      7GAS009
0148726140547422023010219546+44420-072019FM-15+0212K1V4 V02099999999999999999N9999997N5+00565-00175101695ADDMA1101635099105REMMET08601/02/23 14:54:02 METAR K1V4 021954Z      KT 06/M02 A3001 RMK AO1 SLP169 T00561017 PNOEQDR01      7SKY009R02      7GAS009
0174726140547422023010220546+44420-072019FM-15+0212K1V4 V02099999999999999999N9999997N5+00505-00115101755ADDMA1101695099165MD1390129+9999REMMET09801/02/23 15:54:02 METAR K1V4 022054Z      KT 05/M01 A3003 RMK AO1 SLP175 6//// T00501011 53012 PNOEQDR01      7SKY009R02      7GAS009
0148726140547422023010221546+44420-072019FM-15+0212K1V4 V02099999999999999999N9999997N5+00445-00115101825ADDMA1101765099235REMMET08601/02/23 16:54:02 METAR K1V4 022154Z      KT 04/M01 A3005 RMK AO1 SLP182 T00441011 PNOEQDR01      7SKY009R02      7GAS009
0148726140547422023010222546+44420-072019FM-15+0212K1V4 V02099999999999999999N9999997N5+00335-00065101885ADDMA1101795099265REMMET08601/02/23 17:54:02 METAR K1V4 022254Z      KT 03/M01 A3006 RMK AO1 SLP188 T00331006 PNOEQDR01      7SKY009R02      7GAS009
0186726140547422023010223546+44420-072019FM-15+0212K1V4 V02099999999999999999N9999997N5+00335-00115101945ADDMA1101865099335MD1190179+9999REMMET11001/02/23 18:54:02 METAR K1V4 022354Z      KT 03/M01 A3008 RMK AO1 SLP194 6//// T00331011 10061 20028 51017 PNOEQDR01      7SKY009R02      7GAS009
0148726140547422023010300546+44420-072019FM-15+0212K1V4 V02099999999999999999N9999997N5+00285-00115102025ADDMA1101935099405REMMET08601/02/23 19:54:01 METAR K1V4 030054Z      KT 03/M01 A3010 RMK AO1 SLP202 T00281011 PNOEQDR01      7SKY009R02      7GAS009
0148726140547422023010301546+44420-072019FM-15+0212K1V4 V02099999999999999999N9999997N5+00395-00225102075ADDMA1102005099465REMMET08601/02/23 20:54:01 METAR K1V4 030154Z      KT 04/M02 A3012 RMK AO1 SLP207 T00391022 PNOEQDR01      7SKY009R02      7GAS009
0174726140547422023010302546+44420-072019FM-15+0212K1V4 V02099999999999999999N9999997N5+00285-00225102095ADDMA1102005099465MD1190159+9999REMMET09801/02/23 21:54:01 METAR K1V4 030254Z      KT 03/M02 A3012 RMK AO1 SLP209 6//// T00281022 51015 PNOEQDR01      7SKY009R02      7GAS009
0148726140547422023010303546+44420-072019FM-15+0212K1V4 V02099999999999999999N9999997N5+00175-00175102065ADDMA1101965099435REMMET08601/02/23 22:54:01 METAR K1V4 030354Z      KT 02/M02 A3011 RMK AO1 SLP206 T00171017 PNOEQDR01      7SKY009R02      7GAS009
0158726140547422023010304546+44420-072019FM-15+0212K1V4 V02099999999999999999N9999997N5+00005-00225102055ADDMA1101965099435REMMET09601/02/23 23:54:02 METAR K1V4 030454Z      KT 00/M02 A3011 RMK AO1 SLP205 T00001022 400611006 PNOEQDR01      7SKY009R02      7GAS009
0600726140547422023010304596+44420-072019SOD  +0212K1V4 V020999999999999999999999999999+99999+99999999999ADDAA124000095KA1240M+00615KA2240N-00055MG1099034101424OE11249999999999997OE22249999999999997REMSOD49824 HR PRECIPITATION (IN): 0.00 24 HR MAX TEMP (F): 4324 HR MIN TEMP (F): 31AVERAGE STATION PRESSURE:29.245 MINIMUM SEA LEVEL PRESSURE:29.95 TIME OF OCCURRENCE:0131 24 HR AVG TEMP (F): 37DEPART FROM NORMAL: 18  HEATING DEGREE DAYS: 28 COOLING DEGREE DAYS:  0 LATEST DAY MAX TEMP (0700-1900 LST):43  LATEST NIGHT MIN TEMP(1900-0800 LST):31 HOURLY INCREMENTAL PRECIPITATION VALUES (IN):    M    M    M    M    M    M    M    M    M    M    M    M    M    M    M    M    M    M    M    M    M    M    M
0187726140547422023010305546+44420-072019FM-15+0212K1V4 V02099999999999999999N9999997N5-00115-00335102045ADDMA1101965099435MD1690059+9999REMMET11101/03/23 00:54:02 METAR K1V4 030554Z      KT M01/M03 A3011 RMK AO1 SLP204 6//// T10111033 10039 21011 56005 PNOEQDR01      7SKY009R02      7GAS009
0149726140547422023010306546+44420-072019FM-15+0212K1V4 V02099999999999999999N9999997N5-00175-00395102065ADDMA1101965099435REMMET08701/03/23 01:54:02 METAR K1V4 030654Z      KT M02/M04 A3011 RMK AO1 SLP206 T10171039 PNOEQDR01      7SKY009R02      7GAS009
0149726140547422023010307546+44420-072019FM-15+0212K1V4 V02099999999999999999N9999997N5-00225-00395102045ADDMA1101965099435REMMET08701/03/23 02:54:02 METAR K1V4 030754Z      KT M02/M04 A3011 RMK AO1 SLP204 T10221039 PNOEQDR01      7SKY009R02      7GAS009
0175726140547422023010308546+44420-072019FM-15+0212K1V4 V02099999999999999999N9999997N5-00285-00445102035ADDMA1101935099405MD1890029+9999REMMET09901/03/23 03:54:02 METAR K1V4 030854Z      KT M03/M04 A3010 RMK AO1 SLP203 6//// T10281044 58002 PNOEQDR01      7SKY009R02      7GAS009
0149726140547422023010309546+44420-072019FM-15+0212K1V4 V02099999999999999999N9999997N5-00285-00445102025ADDMA1101935099405REMMET08701/03/23 04:54:02 METAR K1V4 030954Z      KT M03/M04 A3010 RMK AO1 SLP202 T10281044 PNOEQDR01      7SKY009R02      7GAS009
0149726140547422023010310546+44420-072019FM-15+0212K1V4 V02099999999999999999N9999997N5-00285-00395102015ADDMA1101905099365REMMET08701/03/23 05:54:02 METAR K1V4 031054Z      KT M03/M04 A3009 RMK AO1 SLP201 T10281039 PNOEQDR01      7SKY009R02      7GAS009
0193726140547422023010311546+44420-072019FM-15+0212K1V4 V02099999999999999999N9999997N5-00225-00335101995ADDMA1101905099365MD1890049+9999REMMET11701/03/23 06:54:02 METAR K1V4 031154Z      KT M02/M03 A3009 RMK AO1 SLP199 6//// 7//// T10221033 11011 21033 58004 PNOEQDR01      7SKY009R02      7GAS009
0149726140547422023010312546+44420-072019FM-15+0212K1V4 V02099999999999999999N9999997N5-00225-00335101965ADDMA1101865099335REMMET08701/03/23 07:54:02 METAR K1V4 031254Z      KT M02/M03 A3008 RMK AO1 SLP196 T10221033 PNOEQDR01      7SKY009R02      7GAS009
0149726140547422023010313546+44420-072019FM-15+0212K1V4 V02099999999999999999N9999997N5-00175-00285101935ADDMA1101835099305REMMET08701/03/23 08:54:02 METAR K1V4 031354Z      KT M02/M03 A3007 RMK AO1 SLP193 T10171028 PNOEQDR01      7SKY009R02      7GAS009
0175726140547422023010314546+44420-072019FM-15+0212K1V4 V02099999999999999999N9999997N5-00065-00285101895ADDMA1101795099265MD1890109+9999REMMET09901/03/23 09:54:02 METAR K1V4 031454Z      KT M01/M03 A3006 RMK AO1 SLP189 6//// T10061028 58010 PNOEQDR01      7SKY009R02      7GAS009
0155726140547422023010315546+44420-072019FM-15+0212K1V4 V02099999999999999999N9999997N5+00115-00225101705ADDMA1101635099105REMMET09301/03/23 10:54:02 METAR K1V4 031554Z      KT 01/M02 A3001 RMK AO1 PRESFR SLP170 T00111022 PNOEQDR01      7SKY009R02      7GAS009
0148726140547422023010316546+44420-072019FM-15+0212K1V4 V02099999999999999999N9999997N5+00175-00225101635ADDMA1101525099005REMMET08601/03/23 11:54:02 METAR K1V4 031654Z      KT 02/M02 A2998 RMK AO1 SLP163 T00171022 PNOEQDR01      7SKY009R02      7GAS009
0186726140547422023010317546+44420-072019FM-15+0212K1V4 V02099999999999999999N9999997N5+00175-00175101515ADDMA1101425098905MD1690379+9999REMMET11001/03/23 12:54:02 METAR K1V4 031754Z      KT 02/M02 A2995 RMK AO1 SLP151 6//// T00171017 10022 21022 56037 PNOEQDR01      7SKY009R02      7GAS009
0148726140547422023010318546+44420-072019FM-15+0212K1V4 V02099999999999999999N9999997N5+00175-00115101405ADDMA1101295098775REMMET08601/03/23 13:54:02 METAR K1V4 031854Z      KT 02/M01 A2991 RMK AO1 SLP140 T00171011 PNOEQDR01      7SKY009R02      7GAS009
0148726140547422023010319546+44420-072019FM-15+0212K1V4 V02099999999999999999N9999997N5+00175-00065101255ADDMA1101155098635REMMET08601/03/23 14:54:02 METAR K1V4 031954Z      KT 02/M01 A2987 RMK AO1 SLP125 T00171006 PNOEQDR01      7SKY009R02      7GAS009
0174726140547422023010320546+44420-072019FM-15+0212K1V4 V02099999999999999999N9999997N5+00175-00065101215ADDMA1101125098605MD1690319+9999REMMET09801/03/23 15:54:02 METAR K1V4 032054Z      KT 02/M01 A2986 RMK AO1 SLP121 6//// T00171006 56031 PNOEQDR01      7SKY009R02      7GAS009
0148726140547422023010321546+44420-072019FM-15+0212K1V4 V02099999999999999999N9999997N5+00175-00065101145ADDMA1101055098535REMMET08601/03/23 16:54:02 METAR K1V4 032154Z      KT 02/M01 A2984 RMK AO1 SLP114 T00171006 PNOEQDR01      7SKY009R02      7GAS009
0147726140547422023010322546+44420-072019FM-15+0212K1V4 V02099999999999999999N9999997N5+00115+00005101125ADDMA1101025098505REMMET08501/03/23 17:54:02 METAR K1V4 032254Z      KT 01/00 A2983 RMK AO1 SLP112 T00110000 PNOEQDR01      7SKY009R02      7GAS009
0185726140547422023010323546+44420-072019FM-15+0212K1V4 V02099999999999999999N9999997N5+00115+00005101105ADDMA1100985098475MD1690109+9999REMMET10901/03/23 18:54:02 METAR K1V4 032354Z      KT 01/00 A2982 RMK AO1 SLP110 6//// T00110000 10022 20011 56010 PNOEQDR01      7SKY009R02      7GAS009
0147726140547422023010400546+44420-072019FM-15+0212K1V4 V02099999999999999999N9999997N5+00115+00005101145ADDMA1101055098535REMMET08501/03/23 19:54:01 METAR K1V4 040054Z      KT 01/00 A2984 RMK AO1 SLP114 T00110000 PNOEQDR01      7SKY009R02      7GAS009
0147726140547422023010401546+44420-072019FM-15+0212K1V4 V02099999999999999999N9999997N5+00115+00005101095ADDMA1100985098475REMMET08501/03/23 20:54:01 METAR K1V4 040154Z      KT 01/00 A2982 RMK AO1 SLP109 T00110000 PNOEQDR01      7SKY009R02      7GAS009
0173726140547422023010402546+44420-072019FM-15+0212K1V4 V02099999999999999999N9999997N5+00115+00005101065ADDMA1100955098435MD1890039+9999REMMET09701/03/23 21:54:01 METAR K1V4 040254Z      KT 01/00 A2981 RMK AO1 SLP106 6//// T00110000 58003 PNOEQDR01      7SKY009R02      7GAS009
0147726140547422023010403546+44420-072019FM-15+0212K1V4 V02099999999999999999N9999997N5+00115+00005101005ADDMA1100915098405REMMET08501/03/23 22:54:01 METAR K1V4 040354Z      KT 01/00 A2980 RMK AO1 SLP100 T00110000 PNOEQDR01      7SKY009R02      7GAS009
0157726140547422023010404546+44420-072019FM-15+0212K1V4 V02099999999999999999N9999997N5+00115+00005100935ADDMA1100855098335REMMET09501/03/23 23:54:01 METAR K1V4 040454Z      KT 01/00 A2978 RMK AO1 SLP093 T00110000 400221033 PNOEQDR01      7SKY009R02      7GAS009
0600726140547422023010404596+44420-072019SOD  +0212K1V4 V020999999999999999999999999999+99999+99999999999ADDAA124000095KA1240M+00225KA2240N-00325MG1099024100914OE11249999999999997OE22249999999999997REMSOD49824 HR PRECIPITATION (IN): 0.00 24 HR MAX TEMP (F): 3624 HR MIN TEMP (F): 26AVERAGE STATION PRESSURE:29.240 MINIMUM SEA LEVEL PRESSURE:29.80 TIME OF OCCURRENCE:2350 24 HR AVG TEMP (F): 31DEPART FROM NORMAL: 12  HEATING DEGREE DAYS: 34 COOLING DEGREE DAYS:  0 LATEST DAY MAX TEMP (0700-1900 LST):36  LATEST NIGHT MIN TEMP(1900-0800 LST):26 HOURLY INCREMENTAL PRECIPITATION VALUES (IN):    M    M    M    M    M    M    M    M    M    M    M    M    M    M    M    M    M    M    M    M    M    M    M
0185726140547422023010405546+44420-072019FM-15+0212K1V4 V02099999999999999999N9999997N5+00115+00005100885ADDMA1100815098305MD1890179+9999REMMET10901/04/23 00:54:02 METAR K1V4 040554Z      KT 01/00 A2977 RMK AO1 SLP088 6//// T00110000 10011 20006 58017 PNOEQDR01      7SKY009R02      7GAS009
0147726140547422023010406546+44420-072019FM-15+0212K1V4 V02099999999999999999N9999997N5+00115+00065100935ADDMA1100855098335REMMET08501/04/23 01:54:02 METAR K1V4 040654Z      KT 01/01 A2978 RMK AO1 SLP093 T00110006 PNOEQDR01      7SKY009R02      7GAS009
0147726140547422023010407546+44420-072019FM-15+0212K1V4 V02099999999999999999N9999997N5+00115+00065100935ADDMA1100855098335REMMET08501/04/23 02:54:02 METAR K1V4 040754Z      KT 01/01 A2978 RMK AO1 SLP093 T00110006 PNOEQDR01      7SKY009R02      7GAS009
0173726140547422023010408546+44420-072019FM-15+0212K1V4 V02099999999999999999N9999997N5+00115+00065100955ADDMA1100885098375MD1190079+9999REMMET09701/04/23 03:54:02 METAR K1V4 040854Z      KT 01/01 A2979 RMK AO1 SLP095 6//// T00110006 51007 PNOEQDR01      7SKY009R02      7GAS009
0147726140547422023010409546+44420-072019FM-15+0212K1V4 V02099999999999999999N9999997N5+00115+00065101015ADDMA1100915098405REMMET08501/04/23 04:54:02 METAR K1V4 040954Z      KT 01/01 A2980 RMK AO1 SLP101 T00110006 PNOEQDR01      7SKY009R02      7GAS009
0147726140547422023010410546+44420-072019FM-15+0212K1V4 V02099999999999999999N9999997N5+00115+00065101005ADDMA1100915098405REMMET08501/04/23 05:54:02 METAR K1V4 041054Z      KT 01/01 A2980 RMK AO1 SLP100 T00110006 PNOEQDR01      7SKY009R02      7GAS009
0191726140547422023010411546+44420-072019FM-15+0212K1V4 V02099999999999999999N9999997N5+00115+00065101075ADDMA1100985098475MD1390119+9999REMMET11501/04/23 06:54:02 METAR K1V4 041154Z      KT 01/01 A2982 RMK AO1 SLP107 6//// 7//// T00110006 10011 20011 53011 PNOEQDR01      7SKY009R02      7GAS009
0147726140547422023010412546+44420-072019FM-15+0212K1V4 V02099999999999999999N9999997N5+00175+00065101165ADDMA1101085098575REMMET08501/04/23 07:54:02 METAR K1V4 041254Z      KT 02/01 A2985 RMK AO1 SLP116 T00170006 PNOEQDR01      7SKY009R02      7GAS009
0147726140547422023010413546+44420-072019FM-15+0212K1V4 V02099999999999999999N9999997N5+00175+00065101175ADDMA1101085098575REMMET08501/04/23 08:54:02 METAR K1V4 041354Z      KT 02/01 A2985 RMK AO1 SLP117 T00170006 PNOEQDR01      7SKY009R02      7GAS009
0173726140547422023010414546+44420-072019FM-15+0212K1V4 V02099999999999999999N9999997N5+00285+00115101235ADDMA1101155098635MD1190169+9999REMMET09701/04/23 09:54:02 METAR K1V4 041454Z      KT 03/01 A2987 RMK AO1 SLP123 6//// T00280011 51016 PNOEQDR01      7SKY009R02      7GAS009
0147726140547422023010415546+44420-072019FM-15+0212K1V4 V02099999999999999999N9999997N5+00335+00175101375ADDMA1101295098775REMMET08501/04/23 10:54:02 METAR K1V4 041554Z      KT 03/02 A2991 RMK AO1 SLP137 T00330017 PNOEQDR01      7SKY009R02      7GAS009
0147726140547422023010416546+44420-072019FM-15+0212K1V4 V02099999999999999999N9999997N5+00445+00225101335ADDMA1101255098735REMMET08501/04/23 11:54:02 METAR K1V4 041654Z      KT 04/02 A2990 RMK AO1 SLP133 T00440022 PNOEQDR01      7SKY009R02      7GAS009
0185726140547422023010417546+44420-072019FM-15+0212K1V4 V02099999999999999999N9999997N5+00505+00225101255ADDMA1101195098675MD1090049+9999REMMET10901/04/23 12:54:02 METAR K1V4 041754Z      KT 05/02 A2988 RMK AO1 SLP125 6//// T00500022 10050 20011 50004 PNOEQDR01      7SKY009R02      7GAS009
0147726140547422023010418546+44420-072019FM-15+0212K1V4 V02099999999999999999N9999997N5+00505+00285101305ADDMA1101255098735REMMET08501/04/23 13:54:02 METAR K1V4 041854Z      KT 05/03 A2990 RMK AO1 SLP130 T00500028 PNOEQDR01      7SKY009R02      7GAS009
0147726140547422023010419546+44420-072019FM-15+0212K1V4 V02099999999999999999N9999997N5+00565+00285101355ADDMA1101295098775REMMET08501/04/23 14:54:02 METAR K1V4 041954Z      KT 06/03 A2991 RMK AO1 SLP135 T00560028 PNOEQDR01      7SKY009R02      7GAS009
0173726140547422023010420546+44420-072019FM-15+0212K1V4 V02099999999999999999N9999997N5+00505+00335101385ADDMA1101325098805MD1190139+9999REMMET09701/04/23 15:54:02 METAR K1V4 042054Z      KT 05/03 A2992 RMK AO1 SLP138 6//// T00500033 51013 PNOEQDR01      7SKY009R02      7GAS009
0147726140547422023010421546+44420-072019FM-15+0212K1V4 V02099999999999999999N9999997N5+00445+00285101465ADDMA1101395098865REMMET08501/04/23 16:54:02 METAR K1V4 042154Z      KT 04/03 A2994 RMK AO1 SLP146 T00440028 PNOEQDR01      7SKY009R02      7GAS009
0147726140547422023010422546+44420-072019FM-15+0212K1V4 V02099999999999999999N9999997N5+00395+00285101465ADDMA1101395098865REMMET08501/04/23 17:54:02 METAR K1V4 042254Z      KT 04/03 A2994 RMK AO1 SLP146 T00390028 PNOEQDR01      7SKY009R02      7GAS009
0185726140547422023010423546+44420-072019FM-15+0212K1V4 V02099999999999999999N9999997N5+00395+00225101425ADDMA1101355098835MD1090029+9999REMMET10901/04/23 18:54:02 METAR K1V4 042354Z      KT 04/02 A2993 RMK AO1 SLP142 6//// T00390022 10056 20039 50002 PNOEQDR01      7SKY009R02      7GAS009
0147726140547422023010500546+44420-072019FM-15+0212K1V4 V02099999999999999999N9999997N5+00335+00225101435ADDMA1101355098835REMMET08501/04/23 19:54:01 METAR K1V4 050054Z      KT 03/02 A2993 RMK AO1 SLP143 T00330022 PNOEQDR01      7SKY009R02      7GAS009
0147726140547422023010501546+44420-072019FM-15+0212K1V4 V02099999999999999999N9999997N5+00335+00225101385ADDMA1101325098805REMMET08501/04/23 20:54:01 METAR K1V4 050154Z      KT 03/02 A2992 RMK AO1 SLP138 T00330022 PNOEQDR01      7SKY009R02      7GAS009
0173726140547422023010502546+44420-072019FM-15+0212K1V4 V02099999999999999999N9999997N5+00335+00225101305ADDMA1101255098735MD1890109+9999REMMET09701/04/23 21:54:01 METAR K1V4 050254Z      KT 03/02 A2990 RMK AO1 SLP130 6//// T00330022 58010 PNOEQDR01      7SKY009R02      7GAS009
0147726140547422023010503546+44420-072019FM-15+0212K1V4 V02099999999999999999N9999997N5+00335+00225101215ADDMA1101155098635REMMET08501/04/23 22:54:01 METAR K1V4 050354Z      KT 03/02 A2987 RMK AO1 SLP121 T00330022 PNOEQDR01      7SKY009R02      7GAS009
0157726140547422023010504546+44420-072019FM-15+0212K1V4 V02099999999999999999N9999997N5+00285+00225101155ADDMA1101085098575REMMET09501/04/23 23:54:02 METAR K1V4 050454Z      KT 03/02 A2985 RMK AO1 SLP115 T00280022 400560011 PNOEQDR01      7SKY009R02      7GAS009
0600726140547422023010504596+44420-072019SOD  +0212K1V4 V020999999999999999999999999999+99999+99999999999ADDAA124000095KA1240M+00565KA2240N+00115MG1098544100854OE11249999999999997OE22249999999999997REMSOD49824 HR PRECIPITATION (IN): 0.00 24 HR MAX TEMP (F): 4224 HR MIN TEMP (F): 34AVERAGE STATION PRESSURE:29.100 MINIMUM SEA LEVEL PRESSURE:29.78 TIME OF OCCURRENCE:0118 24 HR AVG TEMP (F): 38DEPART FROM NORMAL: 20  HEATING DEGREE DAYS: 27 COOLING DEGREE DAYS:  0 LATEST DAY MAX TEMP (0700-1900 LST):42  LATEST NIGHT MIN TEMP(1900-0800 LST):33 HOURLY INCREMENTAL PRECIPITATION VALUES (IN):    M    M    M    M    M    M    M    M    M    M    M    M    M    M    M    M    M    M    M    M    M    M    M
0185726140547422023010505546+44420-072019FM-15+0212K1V4 V02099999999999999999N9999997N5+00285+00175101175ADDMA1101125098605MD1590139+9999REMMET10901/05/23 00:54:02 METAR K1V4 050554Z      KT 03/02 A2986 RMK AO1 SLP117 6//// T00280017 10039 20028 55013 PNOEQDR01      7SKY009R02      7GAS009
0147726140547422023010506546+44420-072019FM-15+0212K1V4 V02099999999999999999N9999997N5+00285+00225101325ADDMA1101255098735REMMET08501/05/23 01:54:02 METAR K1V4 050654Z      KT 03/02 A2990 RMK AO1 SLP132 T00280022 PNOEQDR01      7SKY009R02      7GAS009
0147726140547422023010507546+44420-072019FM-15+0212K1V4 V02099999999999999999N9999997N5+00285+00225101355ADDMA1101295098775REMMET08501/05/23 02:54:02 METAR K1V4 050754Z      KT 03/02 A2991 RMK AO1 SLP135 T00280022 PNOEQDR01      7SKY009R02      7GAS009
0173726140547422023010508546+44420-072019FM-15+0212K1V4 V02099999999999999999N9999997N5+00335+00225101365ADDMA1101325098805MD1190209+9999REMMET09701/05/23 03:54:02 METAR K1V4 050854Z      KT 03/02 A2992 RMK AO1 SLP136 6//// T00330022 51020 PNOEQDR01      7SKY009R02      7GAS009
0147726140547422023010509546+44420-072019FM-15+0212K1V4 V02099999999999999999N9999997N5+00285+00175101375ADDMA1101325098805REMMET08501/05/23 04:54:02 METAR K1V4 050954Z      KT 03/02 A2992 RMK AO1 SLP137 T00280017 PNOEQDR01      7SKY009R02      7GAS009
0147726140547422023010510546+44420-072019FM-15+0212K1V4 V02099999999999999999N9999997N5+00225+00115101495ADDMA1101425098905REMMET08501/05/23 05:54:02 METAR K1V4 051054Z      KT 02/01 A2995 RMK AO1 SLP149 T00220011 PNOEQDR01      7SKY009R02      7GAS009
0191726140547422023010511546+44420-072019FM-15+0212K1V4 V02099999999999999999N9999997N5+00225+00115101505ADDMA1101425098905MD1390129+9999REMMET11501/05/23 06:54:02 METAR K1V4 051154Z      KT 02/01 A2995 RMK AO1 SLP150 6//// 7//// T00220011 10033 20022 53012 PNOEQDR01      7SKY009R02      7GAS009
0147726140547422023010512546+44420-072019FM-15+0212K1V4 V02099999999999999999N9999997N5+00285+00175101535ADDMA1101465098935REMMET08501/05/23 07:54:02 METAR K1V4 051254Z      KT 03/02 A2996 RMK AO1 SLP153 T00280017 PNOEQDR01      7SKY009R02      7GAS009
0147726140547422023010513546+44420-072019FM-15+0212K1V4 V02099999999999999999N9999997N5+00285+00115101565ADDMA1101495098965REMMET08501/05/23 08:54:02 METAR K1V4 051354Z      KT 03/01 A2997 RMK AO1 SLP156 T00280011 PNOEQDR01      7SKY009R02      7GAS009
0173726140547422023010514546+44420-072019FM-15+0212K1V4 V02099999999999999999N9999997N5+00335+00115101565ADDMA1101495098965MD1190069+9999REMMET09701/05/23 09:54:02 METAR K1V4 051454Z      KT 03/01 A2997 RMK AO1 SLP156 6//// T00330011 51006 PNOEQDR01      7SKY009R02      7GAS009
0147726140547422023010515546+44420-072019FM-15+0212K1V4 V02099999999999999999N9999997N5+00335+00115101575ADDMA1101495098965REMMET08501/05/23 10:54:02 METAR K1V4 051554Z      KT 03/01 A2997 RMK AO1 SLP157 T00330011 PNOEQDR01      7SKY009R02      7GAS009
0147726140547422023010516546+44420-072019FM-15+0212K1V4 V02099999999999999999N9999997N5+00335+00115101575ADDMA1101525099005REMMET08501/05/23 11:54:02 METAR K1V4 051654Z      KT 03/01 A2998 RMK AO1 SLP157 T00330011 PNOEQDR01      7SKY009R02      7GAS009
0185726140547422023010517546+44420-072019FM-15+0212K1V4 V02099999999999999999N9999997N5+00335+00005101565ADDMA1101495098965MD1090009+9999REMMET10901/05/23 12:54:02 METAR K1V4 051754Z      KT 03/00 A2997 RMK AO1 SLP156 6//// T00330000 10039 20022 50000 PNOEQDR01      7SKY009R02      7GAS009
0148726140547422023010518546+44420-072019FM-15+0212K1V4 V02099999999999999999N9999997N5+00285-00065101565ADDMA1101495098965REMMET08601/05/23 13:54:02 METAR K1V4 051854Z      KT 03/M01 A2997 RMK AO1 SLP156 T00281006 PNOEQDR01      7SKY009R02      7GAS009
0148726140547422023010519546+44420-072019FM-15+0212K1V4 V02099999999999999999N9999997N5+00285-00065101585ADDMA1101495098965REMMET08601/05/23 14:54:02 METAR K1V4 051954Z      KT 03/M01 A2997 RMK AO1 SLP158 T00281006 PNOEQDR01      7SKY009R02      7GAS009
0174726140547422023010520546+44420-072019FM-15+0212K1V4 V02099999999999999999N9999997N5+00285-00065101575ADDMA1101525099005MD1390019+9999REMMET09801/05/23 15:54:02 METAR K1V4 052054Z      KT 03/M01 A2998 RMK AO1 SLP157 6//// T00281006 53001 PNOEQDR01      7SKY009R02      7GAS009
0148726140547422023010521546+44420-072019FM-15+0212K1V4 V02099999999999999999N9999997N5+00285-00065101585ADDMA1101525099005REMMET08601/05/23 16:54:02 METAR K1V4 052154Z      KT 03/M01 A2998 RMK AO1 SLP158 T00281006 PNOEQDR01      7SKY009R02      7GAS009
0147726140547422023010522546+44420-072019FM-15+0212K1V4 V02099999999999999999N9999997N5+00225+00005101595ADDMA1101495098965REMMET08501/05/23 17:54:02 METAR K1V4 052254Z      KT 02/00 A2997 RMK AO1 SLP159 T00220000 PNOEQDR01      7SKY009R02      7GAS009
0185726140547422023010523546+44420-072019FM-15+0212K1V4 V02099999999999999999N9999997N5+00225+00005101645ADDMA1101565099035MD1390059+9999REMMET10901/05/23 18:54:02 METAR K1V4 052354Z      KT 02/00 A2999 RMK AO1 SLP164 6//// T00220000 10033 20022 53005 PNOEQDR01      7SKY009R02      7GAS009
0147726140547422023010600546+44420-072019FM-15+0212K1V4 V02099999999999999999N9999997N5+00225+00005101615ADDMA1101525099005REMMET08501/05/23 19:54:01 METAR K1V4 060054Z      KT 02/00 A2998 RMK AO1 SLP161 T00220000 PNOEQDR01      7SKY009R02      7GAS009
0147726140547422023010601546+44420-072019FM-15+0212K1V4 V02099999999999999999N9999997N5+00175+00005101615ADDMA1101525099005REMMET08501/05/23 20:54:01 METAR K1V4 060154Z      KT 02/00 A2998 RMK AO1 SLP161 T00170000 PNOEQDR01      7SKY009R02      7GAS009
0173726140547422023010602546+44420-072019FM-15+0212K1V4 V02099999999999999999N9999997N5+00175+00065101595ADDMA1101525099005MD1690049+9999REMMET09701/05/23 21:54:01 METAR K1V4 060254Z      KT 02/01 A2998 RMK AO1 SLP159 6//// T00170006 56004 PNOEQDR01      7SKY009R02      7GAS009
0147726140547422023010603546+44420-072019FM-15+0212K1V4 V02099999999999999999N9999997N5+00175+00065101585ADDMA1101525099005REMMET08501/05/23 22:54:02 METAR K1V4 060354Z      KT 02/01 A2998 RMK AO1 SLP158 T00170006 PNOEQDR01      7SKY009R02      7GAS009
0157726140547422023010604546+44420-072019FM-15+0212K1V4 V02099999999999999999N9999997N5+00175+00065101595ADDMA1101525099005REMMET09501/05/23 23:54:02 METAR K1V4 060454Z      KT 02/01 A2998 RMK AO1 SLP159 T00170006 400390017 PNOEQDR01      7SKY009R02      7GAS009
0600726140547422023010604596+44420-072019SOD  +0212K1V4 V020999999999999999999999999999+99999+99999999999ADDAA124000095KA1240M+00395KA2240N+00175MG1098854101084OE11249999999999997OE22249999999999997REMSOD49824 HR PRECIPITATION (IN): 0.00 24 HR MAX TEMP (F): 3924 HR MIN TEMP (F): 35AVERAGE STATION PRESSURE:29.190 MINIMUM SEA LEVEL PRESSURE:29.85 TIME OF OCCURRENCE:0043 24 HR AVG TEMP (F): 37DEPART FROM NORMAL: 19  HEATING DEGREE DAYS: 28 COOLING DEGREE DAYS:  0 LATEST DAY MAX TEMP (0700-1900 LST):39  LATEST NIGHT MIN TEMP(1900-0800 LST):36 HOURLY INCREMENTAL PRECIPITATION VALUES (IN):    M    M    M    M    M    M    M    M    M    M    M    M    M    M    M    M    M    M    M    M    M    M    M
0185726140547422023010605546+44420-072019FM-15+0212K1V4 V02099999999999999999N9999997N5+00115+00005101595ADDMA1101495098965MD1890019+9999REMMET10901/06/23 00:54:02 METAR K1V4 060554Z      KT 01/00 A2997 RMK AO1 SLP159 6//// T00110000 10022 20011 58001 PNOEQDR01      7SKY009R02      7GAS009
0148726140547422023010606546+44420-072019FM-15+0212K1V4 V02099999999999999999N9999997N5+00065-00065101595ADDMA1101495098965REMMET08601/06/23 01:54:02 METAR K1V4 060654Z      KT 01/M01 A2997 RMK AO1 SLP159 T00061006 PNOEQDR01      7SKY009R02      7GAS009
0148726140547422023010607546+44420-072019FM-15+0212K1V4 V02099999999999999999N9999997N5+00065-00065101585ADDMA1101495098965REMMET08601/06/23 02:54:02 METAR K1V4 060754Z      KT 01/M01 A2997 RMK AO1 SLP158 T00061006 PNOEQDR01      7SKY009R02      7GAS009
0173726140547422023010608546+44420-072019FM-15+0212K1V4 V02099999999999999999N9999997N5+00065+00005101525ADDMA1101425098905MD1890079+9999REMMET09701/06/23 03:54:02 METAR K1V4 060854Z      KT 01/00 A2995 RMK AO1 SLP152 6//// T00060000 58007 PNOEQDR01      7SKY009R02      7GAS009
0148726140547422023010609546+44420-072019FM-15+0212K1V4 V02099999999999999999N9999997N5+00065-00065101505ADDMA1101425098905REMMET08601/06/23 04:54:02 METAR K1V4 060954Z      KT 01/M01 A2995 RMK AO1 SLP150 T00061006 PNOEQDR01      7SKY009R02      7GAS009
0147726140547422023010610546+44420-072019FM-15+0212K1V4 V02099999999999999999N9999997N5+00065+00005101505ADDMA1101425098905REMMET08501/06/23 05:54:02 METAR K1V4 061054Z      KT 01/00 A2995 RMK AO1 SLP150 T00060000 PNOEQDR01      7SKY009R02      7GAS009
0192726140547422023010611546+44420-072019FM-15+0212K1V4 V02099999999999999999N9999997N5+00065-00065101535ADDMA1101465098935MD1390029+9999REMMET11601/06/23 06:54:02 METAR K1V4 061154Z      KT 01/M01 A2996 RMK AO1 SLP153 6//// 7//// T00061006 10011 20006 53002 PNOEQDR01      7SKY009R02      7GAS009
0148726140547422023010612546+44420-072019FM-15+0212K1V4 V02099999999999999999N9999997N5+00065-00065101555ADDMA1101465098935REMMET08601/06/23 07:54:02 METAR K1V4 061254Z      KT 01/M01 A2996 RMK AO1 SLP155 T00061006 PNOEQDR01      7SKY009R02      7GAS009
0148726140547422023010613546+44420-072019FM-15+0212K1V4 V02099999999999999999N9999997N5+00065-00065101555ADDMA1101465098935REMMET08601/06/23 08:54:02 METAR K1V4 061354Z      KT 01/M01 A2996 RMK AO1 SLP155 T00061006 PNOEQDR01      7SKY009R02      7GAS009
0173726140547422023010614546+44420-072019FM-15+0212K1V4 V02099999999999999999N9999997N5+00175+00005101575ADDMA1101495098965MD1390039+9999REMMET09701/06/23 09:54:02 METAR K1V4 061454Z      KT 02/00 A2997 RMK AO1 SLP157 6//// T00170000 53003 PNOEQDR01      7SKY009R02      7GAS009
0147726140547422023010615546+44420-072019FM-15+0212K1V4 V02099999999999999999N9999997N5+00175+00005101525ADDMA1101425098905REMMET08501/06/23 10:54:02 METAR K1V4 061554Z      KT 02/00 A2995 RMK AO1 SLP152 T00170000 PNOEQDR01      7SKY009R02      7GAS009
0147726140547422023010616546+44420-072019FM-15+0212K1V4 V02099999999999999999N9999997N5+00175+00065101465ADDMA1101395098865REMMET08501/06/23 11:54:02 METAR K1V4 061654Z      KT 02/01 A2994 RMK AO1 SLP146 T00170006 PNOEQDR01      7SKY009R02      7GAS009
0185726140547422023010617546+44420-072019FM-15+0212K1V4 V02099999999999999999N9999997N5+00175+00065101435ADDMA1101355098835MD1690149+9999REMMET10901/06/23 12:54:02 METAR K1V4 061754Z      KT 02/01 A2993 RMK AO1 SLP143 6//// T00170006 10022 20006 56014 PNOEQDR01      7SKY009R02      7GAS009
0147726140547422023010618546+44420-072019FM-15+0212K1V4 V02099999999999999999N9999997N5+00225+00065101415ADDMA1101325098805REMMET08501/06/23 13:54:02 METAR K1V4 061854Z      KT 02/01 A2992 RMK AO1 SLP141 T00220006 PNOEQDR01      7SKY009R02      7GAS009
0147726140547422023010619546+44420-072019FM-15+0212K1V4 V02099999999999999999N9999997N5+00225+00065101435ADDMA1101355098835REMMET08501/06/23 14:54:02 METAR K1V4 061954Z      KT 02/01 A2993 RMK AO1 SLP143 T00220006 PNOEQDR01      7SKY009R02      7GAS009
0173726140547422023010620546+44420-072019FM-15+0212K1V4 V02099999999999999999N9999997N5+00225+00065101475ADDMA1101395098865MD1390049+9999REMMET09701/06/23 15:54:02 METAR K1V4 062054Z      KT 02/01 A2994 RMK AO1 SLP147 6//// T00220006 53004 PNOEQDR01      7SKY009R02      7GAS009
0147726140547422023010621546+44420-072019FM-15+0212K1V4 V02099999999999999999N9999997N5+00175+00065101525ADDMA1101425098905REMMET08501/06/23 16:54:02 METAR K1V4 062154Z      KT 02/01 A2995 RMK AO1 SLP152 T00170006 PNOEQDR01      7SKY009R02      7GAS009
0147726140547422023010622546+44420-072019FM-15+0212K1V4 V02099999999999999999N9999997N5+00175+00065101555ADDMA1101465098935REMMET08501/06/23 17:54:02 METAR K1V4 062254Z      KT 02/01 A2996 RMK AO1 SLP155 T00170006 PNOEQDR01      7SKY009R02      7GAS009
0185726140547422023010623546+44420-072019FM-15+0212K1V4 V02099999999999999999N9999997N5+00115+00005101615ADDMA1101525099005MD1390139+9999REMMET10901/06/23 18:54:02 METAR K1V4 062354Z      KT 01/00 A2998 RMK AO1 SLP161 6//// T00110000 10028 20011 53013 PNOEQDR01      7SKY009R02      7GAS009
0147726140547422023010700546+44420-072019FM-15+0212K1V4 V02099999999999999999N9999997N5+00115+00005101635ADDMA1101525099005REMMET08501/06/23 19:54:01 METAR K1V4 070054Z      KT 01/00 A2998 RMK AO1 SLP163 T00110000 PNOEQDR01      7SKY009R02      7GAS009
0148726140547422023010701546+44420-072019FM-15+0212K1V4 V02099999999999999999N9999997N5+00065-00065101655ADDMA1101565099035REMMET08601/06/23 20:54:01 METAR K1V4 070154Z      KT 01/M01 A2999 RMK AO1 SLP165 T00061006 PNOEQDR01      7SKY009R02      7GAS009
0174726140547422023010702546+44420-072019FM-15+0212K1V4 V02099999999999999999N9999997N5+00065-00065101655ADDMA1101565099035MD1190039+9999REMMET09801/06/23 21:54:01 METAR K1V4 070254Z      KT 01/M01 A2999 RMK AO1 SLP165 6//// T00061006 51003 PNOEQDR01      7SKY009R02      7GAS009
0148726140547422023010703546+44420-072019FM-15+0212K1V4 V02099999999999999999N9999997N5+00065-00065101675ADDMA1101565099035REMMET08601/06/23 22:54:02 METAR K1V4 070354Z      KT 01/M01 A2999 RMK AO1 SLP167 T00061006 PNOEQDR01      7SKY009R02      7GAS009
0158726140547422023010704546+44420-072019FM-15+0212K1V4 V02099999999999999999N9999997N5+00065-00065101605ADDMA1101525099005REMMET09601/06/23 23:54:02 METAR K1V4 070454Z      KT 01/M01 A2998 RMK AO1 SLP160 T00061006 400280006 PNOEQDR01      7SKY009R02      7GAS009
0600726140547422023010704596+44420-072019SOD  +0212K1V4 V020999999999999999999999999999+99999+99999999999ADDAA124000095KA1240M+00285KA2240N+00065MG1098924101394OE11249999999999997OE22249999999999997REMSOD49824 HR PRECIPITATION (IN): 0.00 24 HR MAX TEMP (F): 3724 HR MIN TEMP (F): 33AVERAGE STATION PRESSURE:29.210 MINIMUM SEA LEVEL PRESSURE:29.94 TIME OF OCCURRENCE:1410 24 HR AVG TEMP (F): 35DEPART FROM NORMAL: 17  HEATING DEGREE DAYS: 30 COOLING DEGREE DAYS:  0 LATEST DAY MAX TEMP (0700-1900 LST):37  LATEST NIGHT MIN TEMP(1900-0800 LST):33 HOURLY INCREMENTAL PRECIPITATION VALUES (IN):    M    M    M    M    M    M    M    M    M    M    M    M    M    M    M    M    M    M    M    M    M    M    M
0186726140547422023010705546+44420-072019FM-15+0212K1V4 V02099999999999999999N9999997N5+00065-00065101585ADDMA1101495098965MD1890079+9999REMMET11001/07/23 00:54:02 METAR K1V4 070554Z      KT 01/M01 A2997 RMK AO1 SLP158 6//// T00061006 10011 20000 58007 PNOEQDR01      7SKY009R02      7GAS009
0148726140547422023010706546+44420-072019FM-15+0212K1V4 V02099999999999999999N9999997N5+00065-00065101585ADDMA1101495098965REMMET08601/07/23 01:54:02 METAR K1V4 070654Z      KT 01/M01 A2997 RMK AO1 SLP158 T00061006 PNOEQDR01      7SKY009R02      7GAS009
0148726140547422023010707546+44420-072019FM-15+0212K1V4 V02099999999999999999N9999997N5+00065-00065101585ADDMA1101495098965REMMET08601/07/23 02:54:02 METAR K1V4 070754Z      KT 01/M01 A2997 RMK AO1 SLP158 T00061006 PNOEQDR01      7SKY009R02      7GAS009
0174726140547422023010708546+44420-072019FM-15+0212K1V4 V02099999999999999999N9999997N5+00065-00065101565ADDMA1101495098965MD1890019+9999REMMET09801/07/23 03:54:02 METAR K1V4 070854Z      KT 01/M01 A2997 RMK AO1 SLP156 6//// T00061006 58001 PNOEQDR01      7SKY009R02      7GAS009
0148726140547422023010709546+44420-072019FM-15+0212K1V4 V02099999999999999999N9999997N5+00065-00065101565ADDMA1101465098935REMMET08601/07/23 04:54:02 METAR K1V4 070954Z      KT 01/M01 A2996 RMK AO1 SLP156 T00061006 PNOEQDR01      7SKY009R02      7GAS009
0148726140547422023010710546+44420-072019FM-15+0212K1V4 V02099999999999999999N9999997N5+00065-00065101605ADDMA1101525099005REMMET08601/07/23 05:54:02 METAR K1V4 071054Z      KT 01/M01 A2998 RMK AO1 SLP160 T00061006 PNOEQDR01      7SKY009R02      7GAS009
0192726140547422023010711546+44420-072019FM-15+0212K1V4 V02099999999999999999N9999997N5+00065-00065101655ADDMA1101565099035MD1390089+9999REMMET11601/07/23 06:54:02 METAR K1V4 071154Z      KT 01/M01 A2999 RMK AO1 SLP165 6//// 7//// T00061006 10006 20000 53008 PNOEQDR01      7SKY009R02      7GAS009
0148726140547422023010712546+44420-072019FM-15+0212K1V4 V02099999999999999999N9999997N5+00065-00115101695ADDMA1101595099065REMMET08601/07/23 07:54:02 METAR K1V4 071254Z      KT 01/M01 A3000 RMK AO1 SLP169 T00061011 PNOEQDR01      7SKY009R02      7GAS009
0148726140547422023010713546+44420-072019FM-15+0212K1V4 V02099999999999999999N9999997N5+00005-00285101775ADDMA1101665099135REMMET08601/07/23 08:54:02 METAR K1V4 071354Z      KT 00/M03 A3002 RMK AO1 SLP177 T00001028 PNOEQDR01      7SKY009R02      7GAS009
0174726140547422023010714546+44420-072019FM-15+0212K1V4 V02099999999999999999N9999997N5+00005-00395101815ADDMA1101735099205MD1390159+9999REMMET09801/07/23 09:54:02 METAR K1V4 071454Z      KT 00/M04 A3004 RMK AO1 SLP181 6//// T00001039 53015 PNOEQDR01      7SKY009R02      7GAS009
0149726140547422023010715546+44420-072019FM-15+0212K1V4 V02099999999999999999N9999997N5-00065-00395101825ADDMA1101735099205REMMET08701/07/23 10:54:02 METAR K1V4 071554Z      KT M01/M04 A3004 RMK AO1 SLP182 T10061039 PNOEQDR01      7SKY009R02      7GAS009
0149726140547422023010716546+44420-072019FM-15+0212K1V4 V02099999999999999999N9999997N5-00115-00445101795ADDMA1101695099165REMMET08701/07/23 11:54:02 METAR K1V4 071654Z      KT M01/M04 A3003 RMK AO1 SLP179 T10111044 PNOEQDR01      7SKY009R02      7GAS009
0187726140547422023010717546+44420-072019FM-15+0212K1V4 V02099999999999999999N9999997N5-00115-00505101795ADDMA1101695099165MD1890039+9999REMMET11101/07/23 12:54:02 METAR K1V4 071754Z      KT M01/M05 A3003 RMK AO1 SLP179 6//// T10111050 10006 21011 58003 PNOEQDR01      7SKY009R02      7GAS009
0149726140547422023010718546+44420-072019FM-15+0212K1V4 V02099999999999999999N9999997N5-00115-00565101815ADDMA1101695099165REMMET08701/07/23 13:54:02 METAR K1V4 071854Z      KT M01/M06 A3003 RMK AO1 SLP181 T10111056 PNOEQDR01      7SKY009R02      7GAS009
0149726140547422023010719546+44420-072019FM-15+0212K1V4 V02099999999999999999N9999997N5-00115-00565101865ADDMA1101765099235REMMET08701/07/23 14:54:02 METAR K1V4 071954Z      KT M01/M06 A3005 RMK AO1 SLP186 T10111056 PNOEQDR01      7SKY009R02      7GAS009
0175726140547422023010720546+44420-072019FM-15+0212K1V4 V02099999999999999999N9999997N5-00225-00675101945ADDMA1101835099305MD1390159+9999REMMET09901/07/23 15:54:02 METAR K1V4 072054Z      KT M02/M07 A3007 RMK AO1 SLP194 6//// T10221067 53015 PNOEQDR01      7SKY009R02      7GAS009
0149726140547422023010721546+44420-072019FM-15+0212K1V4 V02099999999999999999N9999997N5-00285-00725102075ADDMA1101965099435REMMET08701/07/23 16:54:02 METAR K1V4 072154Z      KT M03/M07 A3011 RMK AO1 SLP207 T10281072 PNOEQDR01      7SKY009R02      7GAS009
0149726140547422023010722546+44420-072019FM-15+0212K1V4 V02099999999999999999N9999997N5-00335-00785102145ADDMA1102035099505REMMET08701/07/23 17:54:02 METAR K1V4 072254Z      KT M03/M08 A3013 RMK AO1 SLP214 T10331078 PNOEQDR01      7SKY009R02      7GAS009
0187726140547422023010723546+44420-072019FM-15+0212K1V4 V02099999999999999999N9999997N5-00335-00785102235ADDMA1102105099565MD1190289+9999REMMET11101/07/23 18:54:02 METAR K1V4 072354Z      KT M03/M08 A3015 RMK AO1 SLP223 6//// T10331078 11006 21039 51028 PNOEQDR01      7SKY009R02      7GAS009
0149726140547422023010800546+44420-072019FM-15+0212K1V4 V02099999999999999999N9999997N5-00395-00835102305ADDMA1102175099635REMMET08701/07/23 19:54:01 METAR K1V4 080054Z      KT M04/M08 A3017 RMK AO1 SLP230 T10391083 PNOEQDR01      7SKY009R02      7GAS009
0149726140547422023010801546+44420-072019FM-15+0212K1V4 V02099999999999999999N9999997N5-00445-00895102305ADDMA1102175099635REMMET08701/07/23 20:54:01 METAR K1V4 080154Z      KT M04/M09 A3017 RMK AO1 SLP230 T10441089 PNOEQDR01      7SKY009R02      7GAS009
0175726140547422023010802546+44420-072019FM-15+0212K1V4 V02099999999999999999N9999997N5-00445-00895102365ADDMA1102245099695MD1390129+9999REMMET09901/07/23 21:54:01 METAR K1V4 080254Z      KT M04/M09 A3019 RMK AO1 SLP236 6//// T10441089 53012 PNOEQDR01      7SKY009R02      7GAS009
0149726140547422023010803546+44420-072019FM-15+0212K1V4 V02099999999999999999N9999997N5-00615-00945102455ADDMA1102305099765REMMET08701/07/23 22:54:02 METAR K1V4 080354Z      KT M06/M09 A3021 RMK AO1 SLP245 T10611094 PNOEQDR01      7SKY009R02      7GAS009
0159726140547422023010804546+44420-072019FM-15+0212K1V4 V02099999999999999999N9999997N5-00725-01115102545ADDMA1102405099865REMMET09701/07/23 23:54:02 METAR K1V4 080454Z      KT M07/M11 A3024 RMK AO1 SLP254 T10721111 400061072 PNOEQDR01      7SKY009R02      7GAS009
0600726140547422023010804596+44420-072019SOD  +0212K1V4 V020999999999999999999999999999+99999+99999999999ADDAA124000095KA1240M+00065KA2240N-00715MG1099154101564OE11249999999999997OE22249999999999997REMSOD49824 HR PRECIPITATION (IN): 0.00 24 HR MAX TEMP (F): 3324 HR MIN TEMP (F): 19AVERAGE STATION PRESSURE:29.280 MINIMUM SEA LEVEL PRESSURE:29.99 TIME OF OCCURRENCE:0543 24 HR AVG TEMP (F): 26DEPART FROM NORMAL:  8  HEATING DEGREE DAYS: 39 COOLING DEGREE DAYS:  0 LATEST DAY MAX TEMP (0700-1900 LST):33  LATEST NIGHT MIN TEMP(1900-0800 LST):32 HOURLY INCREMENTAL PRECIPITATION VALUES (IN):    M    M    M    M    M    M    M    M    M    M    M    M    M    M    M    M    M    M    M    M    M    M    M
0187726140547422023010805546+44420-072019FM-15+0212K1V4 V02099999999999999999N9999997N5-00725-01175102545ADDMA1102405099865MD1190169+9999REMMET11101/08/23 00:54:02 METAR K1V4 080554Z      KT M07/M12 A3024 RMK AO1 SLP254 6//// T10721117 11033 21072 51016 PNOEQDR01      7SKY009R02      7GAS009
0149726140547422023010806546+44420-072019FM-15+0212K1V4 V02099999999999999999N9999997N5-00785-01285102595ADDMA1102445099895REMMET08701/08/23 01:54:02 METAR K1V4 080654Z      KT M08/M13 A3025 RMK AO1 SLP259 T10781128 PNOEQDR01      7SKY009R02      7GAS009
0149726140547422023010807546+44420-072019FM-15+0212K1V4 V02099999999999999999N9999997N5-00835-01285102625ADDMA1102475099935REMMET08701/08/23 02:54:02 METAR K1V4 080754Z      KT M08/M13 A3026 RMK AO1 SLP262 T10831128 PNOEQDR01      7SKY009R02      7GAS009
0175726140547422023010808546+44420-072019FM-15+0212K1V4 V02099999999999999999N9999997N5-00835-01285102675ADDMA1102515099965MD1190119+9999REMMET09901/08/23 03:54:02 METAR K1V4 080854Z      KT M08/M13 A3027 RMK AO1 SLP267 6//// T10831128 51011 PNOEQDR01      7SKY009R02      7GAS009
0149726140547422023010809546+44420-072019FM-15+0212K1V4 V02099999999999999999N9999997N5-00835-01335102695ADDMA1102515099965REMMET08701/08/23 04:54:02 METAR K1V4 080954Z      KT M08/M13 A3027 RMK AO1 SLP269 T10831133 PNOEQDR01      7SKY009R02      7GAS009
0149726140547422023010810546+44420-072019FM-15+0212K1V4 V02099999999999999999N9999997N5-00895-01335102755ADDMA1102575100035REMMET08701/08/23 05:54:02 METAR K1V4 081054Z      KT M09/M13 A3029 RMK AO1 SLP275 T10891133 PNOEQDR01      7SKY009R02      7GAS009
0193726140547422023010811546+44420-072019FM-15+0212K1V4 V02099999999999999999N9999997N5-00835-01285102755ADDMA1102575100035MD1190079+9999REMMET11701/08/23 06:54:02 METAR K1V4 081154Z      KT M08/M13 A3029 RMK AO1 SLP275 6//// 7//// T10831128 11072 21089 51007 PNOEQDR01      7SKY009R02      7GAS009
0149726140547422023010812546+44420-072019FM-15+0212K1V4 V02099999999999999999N9999997N5-00835-01335102775ADDMA1102615100065REMMET08701/08/23 07:54:02 METAR K1V4 081254Z      KT M08/M13 A3030 RMK AO1 SLP277 T10831133 PNOEQDR01      7SKY009R02      7GAS009
0149726140547422023010813546+44420-072019FM-15+0212K1V4 V02099999999999999999N9999997N5-00835-01335102755ADDMA1102575100035REMMET08701/08/23 08:54:02 METAR K1V4 081354Z      KT M08/M13 A3029 RMK AO1 SLP275 T10831133 PNOEQDR01      7SKY009R02      7GAS009
0175726140547422023010814546+44420-072019FM-15+0212K1V4 V02099999999999999999N9999997N5-00785-01285102775ADDMA1102615100065MD1190029+9999REMMET09901/08/23 09:54:02 METAR K1V4 081454Z      KT M08/M13 A3030 RMK AO1 SLP277 6//// T10781128 51002 PNOEQDR01      7SKY009R02      7GAS009
0149726140547422023010815546+44420-072019FM-15+0212K1V4 V02099999999999999999N9999997N5-00675-01225102705ADDMA1102545099995REMMET08701/08/23 10:54:02 METAR K1V4 081554Z      KT M07/M12 A3028 RMK AO1 SLP270 T10671122 PNOEQDR01      7SKY009R02      7GAS009
0149726140547422023010816546+44420-072019FM-15+0212K1V4 V02099999999999999999N9999997N5-00615-01175102585ADDMA1102405099865REMMET08701/08/23 11:54:02 METAR K1V4 081654Z      KT M06/M12 A3024 RMK AO1 SLP258 T10611117 PNOEQDR01      7SKY009R02      7GAS009
0187726140547422023010817546+44420-072019FM-15+0212K1V4 V02099999999999999999N9999997N5-00445-01175102415ADDMA1102245099695MD1890359+9999REMMET11101/08/23 12:54:02 METAR K1V4 081754Z      KT M04/M12 A3019 RMK AO1 SLP241 6//// T10441117 11039 21089 58035 PNOEQDR01      7SKY009R02      7GAS009
0149726140547422023010818546+44420-072019FM-15+0212K1V4 V02099999999999999999N9999997N5-00335-01115102325ADDMA1102175099635REMMET08701/08/23 13:54:02 METAR K1V4 081854Z      KT M03/M11 A3017 RMK AO1 SLP232 T10331111 PNOEQDR01      7SKY009R02      7GAS009
0149726140547422023010819546+44420-072019FM-15+0212K1V4 V02099999999999999999N9999997N5-00225-01005102285ADDMA1102135099595REMMET08701/08/23 14:54:02 METAR K1V4 081954Z      KT M02/M10 A3016 RMK AO1 SLP228 T10221100 PNOEQDR01      7SKY009R02      7GAS009
0175726140547422023010820546+44420-072019FM-15+0212K1V4 V02099999999999999999N9999997N5-00285-01005102205ADDMA1102035099505MD1690219+9999REMMET09901/08/23 15:54:02 METAR K1V4 082054Z      KT M03/M10 A3013 RMK AO1 SLP220 6//// T10281100 56021 PNOEQDR01      7SKY009R02      7GAS009
0149726140547422023010821546+44420-072019FM-15+0212K1V4 V02099999999999999999N9999997N5-00395-00895102135ADDMA1101965099435REMMET08701/08/23 16:54:02 METAR K1V4 082154Z      KT M04/M09 A3011 RMK AO1 SLP213 T10391089 PNOEQDR01      7SKY009R02      7GAS009
0149726140547422023010822546+44420-072019FM-15+0212K1V4 V02099999999999999999N9999997N5-00505-00895102145ADDMA1101965099435REMMET08701/08/23 17:54:02 METAR K1V4 082254Z      KT M05/M09 A3011 RMK AO1 SLP214 T10501089 PNOEQDR01      7SKY009R02      7GAS009
0187726140547422023010823546+44420-072019FM-15+0212K1V4 V02099999999999999999N9999997N5-00615-00895102125ADDMA1101965099435MD1690089+9999REMMET11101/08/23 18:54:02 METAR K1V4 082354Z      KT M06/M09 A3011 RMK AO1 SLP212 6//// T10611089 11022 21061 56008 PNOEQDR01      7SKY009R02      7GAS009
0149726140547422023010900546+44420-072019FM-15+0212K1V4 V02099999999999999999N9999997N5-00725-00945102095ADDMA1101905099365REMMET08701/08/23 19:54:01 METAR K1V4 090054Z      KT M07/M09 A3009 RMK AO1 SLP209 T10721094 PNOEQDR01      7SKY009R02      7GAS009
0149726140547422023010901546+44420-072019FM-15+0212K1V4 V02099999999999999999N9999997N5-00785-01005102005ADDMA1101835099305REMMET08701/08/23 20:54:01 METAR K1V4 090154Z      KT M08/M10 A3007 RMK AO1 SLP200 T10781100 PNOEQDR01      7SKY009R02      7GAS009
0175726140547422023010902546+44420-072019FM-15+0212K1V4 V02099999999999999999N9999997N5-00835-01115101955ADDMA1101765099235MD1890189+9999REMMET09901/08/23 21:54:01 METAR K1V4 090254Z      KT M08/M11 A3005 RMK AO1 SLP195 6//// T10831111 58018 PNOEQDR01      7SKY009R02      7GAS009
0149726140547422023010903546+44420-072019FM-15+0212K1V4 V02099999999999999999N9999997N5-00945-01175101895ADDMA1101695099165REMMET08701/08/23 22:54:01 METAR K1V4 090354Z      KT M09/M12 A3003 RMK AO1 SLP189 T10941117 PNOEQDR01      7SKY009R02      7GAS009
0159726140547422023010904546+44420-072019FM-15+0212K1V4 V02099999999999999999N9999997N5-01005-01225101845ADDMA1101665099135REMMET09701/08/23 23:54:02 METAR K1V4 090454Z      KT M10/M12 A3002 RMK AO1 SLP184 T11001122 410221100 PNOEQDR01      7SKY009R02      7GAS009
0600726140547422023010904596+44420-072019SOD  +0212K1V4 V020999999999999999999999999999+99999+99999999999ADDAA124000095KA1240M-00215KA2240N-00995MG1099734101834OE11249999999999997OE22249999999999997REMSOD49824 HR PRECIPITATION (IN): 0.00 24 HR MAX TEMP (F): 2824 HR MIN TEMP (F): 14AVERAGE STATION PRESSURE:29.450 MINIMUM SEA LEVEL PRESSURE:30.07 TIME OF OCCURRENCE:2359 24 HR AVG TEMP (F): 21DEPART FROM NORMAL:  3  HEATING DEGREE DAYS: 44 COOLING DEGREE DAYS:  0 LATEST DAY MAX TEMP (0700-1900 LST):28  LATEST NIGHT MIN TEMP(1900-0800 LST):16 HOURLY INCREMENTAL PRECIPITATION VALUES (IN):    M    M    M    M    M    M    M    M    M    M    M    M    M    M    M    M    M    M    M    M    M    M    M
0187726140547422023010905546+44420-072019FM-15+0212K1V4 V02099999999999999999N9999997N5-01005-01225101685ADDMA1101525099005MD1890249+9999REMMET11101/09/23 00:54:02 METAR K1V4 090554Z      KT M10/M12 A2998 RMK AO1 SLP168 6//// T11001122 11067 21100 58024 PNOEQDR01      7SKY009R02      7GAS009
0149726140547422023010906546+44420-072019FM-15+0212K1V4 V02099999999999999999N9999997N5-01065-01285101745ADDMA1101565099035REMMET08701/09/23 01:54:02 METAR K1V4 090654Z      KT M11/M13 A2999 RMK AO1 SLP174 T11061128 PNOEQDR01      7SKY009R02      7GAS009
0149726140547422023010907546+44420-072019FM-15+0212K1V4 V02099999999999999999N9999997N5-01115-01335101655ADDMA1101495098965REMMET08701/09/23 02:54:02 METAR K1V4 090754Z      KT M11/M13 A2997 RMK AO1 SLP165 T11111133 PNOEQDR01      7SKY009R02      7GAS009
0175726140547422023010908546+44420-072019FM-15+0212K1V4 V02099999999999999999N9999997N5-01115-01395101635ADDMA1101465098935MD1890069+9999REMMET09901/09/23 03:54:02 METAR K1V4 090854Z      KT M11/M14 A2996 RMK AO1 SLP163 6//// T11111139 58006 PNOEQDR01      7SKY009R02      7GAS009
0149726140547422023010909546+44420-072019FM-15+0212K1V4 V02099999999999999999N9999997N5-01115-01395101605ADDMA1101425098905REMMET08701/09/23 04:54:02 METAR K1V4 090954Z      KT M11/M14 A2995 RMK AO1 SLP160 T11111139 PNOEQDR01      7SKY009R02      7GAS009
0149726140547422023010910546+44420-072019FM-15+0212K1V4 V02099999999999999999N9999997N5-01115-01335101475ADDMA1101295098775REMMET08701/09/23 05:54:02 METAR K1V4 091054Z      KT M11/M13 A2991 RMK AO1 SLP147 T11111133 PNOEQDR01      7SKY009R02      7GAS009
0193726140547422023010911546+44420-072019FM-15+0212K1V4 V02099999999999999999N9999997N5-01065-01335101455ADDMA1101255098735MD1890199+9999REMMET11701/09/23 06:54:02 METAR K1V4 091154Z      KT M11/M13 A2990 RMK AO1 SLP145 6//// 7//// T11061133 11100 21117 58019 PNOEQDR01      7SKY009R02      7GAS009
0149726140547422023010912546+44420-072019FM-15+0212K1V4 V02099999999999999999N9999997N5-01065-01285101435ADDMA1101255098735REMMET08701/09/23 07:54:02 METAR K1V4 091254Z      KT M11/M13 A2990 RMK AO1 SLP143 T11061128 PNOEQDR01      7SKY009R02      7GAS009
0149726140547422023010913546+44420-072019FM-15+0212K1V4 V02099999999999999999N9999997N5-00945-01175101455ADDMA1101255098735REMMET08701/09/23 08:54:02 METAR K1V4 091354Z      KT M09/M12 A2990 RMK AO1 SLP145 T10941117 PNOEQDR01      7SKY009R02      7GAS009
0175726140547422023010914546+44420-072019FM-15+0212K1V4 V02099999999999999999N9999997N5-00725-01065101435ADDMA1101255098735MD1790019+9999REMMET09901/09/23 09:54:02 METAR K1V4 091454Z      KT M07/M11 A2990 RMK AO1 SLP143 6//// T10721106 57001 PNOEQDR01      7SKY009R02      7GAS009
0149726140547422023010915546+44420-072019FM-15+0212K1V4 V02099999999999999999N9999997N5-00615-00895101405ADDMA1101225098705REMMET08701/09/23 10:54:02 METAR K1V4 091554Z      KT M06/M09 A2989 RMK AO1 SLP140 T10611089 PNOEQDR01      7SKY009R02      7GAS009
0149726140547422023010916546+44420-072019FM-15+0212K1V4 V02099999999999999999N9999997N5-00505-00835101255ADDMA1101085098575REMMET08701/09/23 11:54:02 METAR K1V4 091654Z      KT M05/M08 A2985 RMK AO1 SLP125 T10501083 PNOEQDR01      7SKY009R02      7GAS009
0187726140547422023010917546+44420-072019FM-15+0212K1V4 V02099999999999999999N9999997N5-00335-00725101195ADDMA1101025098505MD1890229+9999REMMET11101/09/23 12:54:02 METAR K1V4 091754Z      KT M03/M07 A2983 RMK AO1 SLP119 6//// T10331072 11033 21111 58022 PNOEQDR01      7SKY009R02      7GAS009
0149726140547422023010918546+44420-072019FM-15+0212K1V4 V02099999999999999999N9999997N5-00285-00675101145ADDMA1100985098475REMMET08701/09/23 13:54:02 METAR K1V4 091854Z      KT M03/M07 A2982 RMK AO1 SLP114 T10281067 PNOEQDR01      7SKY009R02      7GAS009
0149726140547422023010919546+44420-072019FM-15+0212K1V4 V02099999999999999999N9999997N5-00225-00615101145ADDMA1100985098475REMMET08701/09/23 14:54:02 METAR K1V4 091954Z      KT M02/M06 A2982 RMK AO1 SLP114 T10221061 PNOEQDR01      7SKY009R02      7GAS009
0175726140547422023010920546+44420-072019FM-15+0212K1V4 V02099999999999999999N9999997N5-00225-00615101105ADDMA1100915098405MD1790099+9999REMMET09901/09/23 15:54:02 METAR K1V4 092054Z      KT M02/M06 A2980 RMK AO1 SLP110 6//// T10221061 57009 PNOEQDR01      7SKY009R02      7GAS009
0149726140547422023010921546+44420-072019FM-15+0212K1V4 V02099999999999999999N9999997N5-00175-00615101025ADDMA1100855098335REMMET08701/09/23 16:54:02 METAR K1V4 092154Z      KT M02/M06 A2978 RMK AO1 SLP102 T10171061 PNOEQDR01      7SKY009R02      7GAS009
0149726140547422023010922546+44420-072019FM-15+0212K1V4 V02099999999999999999N9999997N5-00225-00565100995ADDMA1100815098305REMMET08701/09/23 17:54:02 METAR K1V4 092254Z      KT M02/M06 A2977 RMK AO1 SLP099 T10221056 PNOEQDR01      7SKY009R02      7GAS009
0187726140547422023010923546+44420-072019FM-15+0212K1V4 V02099999999999999999N9999997N5-00225-00565101005ADDMA1100855098335MD1590089+9999REMMET11101/09/23 18:54:02 METAR K1V4 092354Z      KT M02/M06 A2978 RMK AO1 SLP100 6//// T10221056 11017 21033 55008 PNOEQDR01      7SKY009R02      7GAS009
0149726140547422023011000546+44420-072019FM-15+0212K1V4 V02099999999999999999N9999997N5-00225-00505100955ADDMA1100785098275REMMET08701/09/23 19:54:01 METAR K1V4 100054Z      KT M02/M05 A2976 RMK AO1 SLP095 T10221050 PNOEQDR01      7SKY009R02      7GAS009
0149726140547422023011001546+44420-072019FM-15+0212K1V4 V02099999999999999999N9999997N5-00225-00505100935ADDMA1100785098275REMMET08701/09/23 20:54:01 METAR K1V4 100154Z      KT M02/M05 A2976 RMK AO1 SLP093 T10221050 PNOEQDR01      7SKY009R02      7GAS009
0175726140547422023011002546+44420-072019FM-15+0212K1V4 V02099999999999999999N9999997N5-00225-00395100895ADDMA1100755098235MD1690099+9999REMMET09901/09/23 21:54:01 METAR K1V4 100254Z      KT M02/M04 A2975 RMK AO1 SLP089 6//// T10221039 56009 PNOEQDR01      7SKY009R02      7GAS009
0149726140547422023011003546+44420-072019FM-15+0212K1V4 V02099999999999999999N9999997N5-00225-00395100895ADDMA1100755098235REMMET08701/09/23 22:54:01 METAR K1V4 100354Z      KT M02/M04 A2975 RMK AO1 SLP089 T10221039 PNOEQDR01      7SKY009R02      7GAS009
0159726140547422023011004546+44420-072019FM-15+0212K1V4 V02099999999999999999N9999997N5-00065-00395100865ADDMA1100755098235REMMET09701/09/23 23:54:01 METAR K1V4 100454Z      KT M01/M04 A2975 RMK AO1 SLP086 T10061039 410061117 PNOEQDR01      7SKY009R02      7GAS009
0600726140547422023011004596+44420-072019SOD  +0212K1V4 V020999999999999999999999999999+99999+99999999999ADDAA124000095KA1240M-00055KA2240N-01165MG1098614100854OE11249999999999997OE22249999999999997REMSOD49824 HR PRECIPITATION (IN): 0.00 24 HR MAX TEMP (F): 3124 HR MIN TEMP (F): 11AVERAGE STATION PRESSURE:29.120 MINIMUM SEA LEVEL PRESSURE:29.78 TIME OF OCCURRENCE:2359 24 HR AVG TEMP (F): 21DEPART FROM NORMAL:  3  HEATING DEGREE DAYS: 44 COOLING DEGREE DAYS:  0 LATEST DAY MAX TEMP (0700-1900 LST):29  LATEST NIGHT MIN TEMP(1900-0800 LST):11 HOURLY INCREMENTAL PRECIPITATION VALUES (IN):    M    M    M    M    M    M    M    M    M    M    M    M    M    M    M    M    M    M    M    M    M    M    M
0186726140547422023011005546+44420-072019FM-15+0212K1V4 V02099999999999999999N9999997N5+00005-00395100845ADDMA1100715098205MD1890029+9999REMMET11001/10/23 00:54:02 METAR K1V4 100554Z      KT 00/M04 A2974 RMK AO1 SLP084 6//// T00001039 10000 21022 58002 PNOEQDR01      7SKY009R02      7GAS009
0148726140547422023011006546+44420-072019FM-15+0212K1V4 V02099999999999999999N9999997N5+00005-00395100885ADDMA1100785098275REMMET08601/10/23 01:54:02 METAR K1V4 100654Z      KT 00/M04 A2976 RMK AO1 SLP088 T00001039 PNOEQDR01      7SKY009R02      7GAS009
0148726140547422023011007546+44420-072019FM-15+0212K1V4 V02099999999999999999N9999997N5+00005-00445100995ADDMA1100885098375REMMET08601/10/23 02:54:02 METAR K1V4 100754Z      KT 00/M04 A2979 RMK AO1 SLP099 T00001044 PNOEQDR01      7SKY009R02      7GAS009
0175726140547422023011008546+44420-072019FM-15+0212K1V4 V02099999999999999999N9999997N5-00175-00725101095ADDMA1100985098475MD1390249+9999REMMET09901/10/23 03:54:02 METAR K1V4 100854Z      KT M02/M07 A2982 RMK AO1 SLP109 6//// T10171072 53024 PNOEQDR01      7SKY009R02      7GAS009
0149726140547422023011009546+44420-072019FM-15+0212K1V4 V02099999999999999999N9999997N5-00285-00835101195ADDMA1101055098535REMMET08701/10/23 04:54:02 METAR K1V4 100954Z      KT M03/M08 A2984 RMK AO1 SLP119 T10281083 PNOEQDR01      7SKY009R02      7GAS009
0149726140547422023011010546+44420-072019FM-15+0212K1V4 V02099999999999999999N9999997N5-00395-01065101325ADDMA1101195098675REMMET08701/10/23 05:54:02 METAR K1V4 101054Z      KT M04/M11 A2988 RMK AO1 SLP132 T10391106 PNOEQDR01      7SKY009R02      7GAS009
0193726140547422023011011546+44420-072019FM-15+0212K1V4 V02099999999999999999N9999997N5-00445-01115101425ADDMA1101295098775MD1190319+9999REMMET11701/10/23 06:54:02 METAR K1V4 101154Z      KT M04/M11 A2991 RMK AO1 SLP142 6//// 7//// T10441111 10000 21044 51031 PNOEQDR01      7SKY009R02      7GAS009
0149726140547422023011012546+44420-072019FM-15+0212K1V4 V02099999999999999999N9999997N5-00505-01065101495ADDMA1101355098835REMMET08701/10/23 07:54:02 METAR K1V4 101254Z      KT M05/M11 A2993 RMK AO1 SLP149 T10501106 PNOEQDR01      7SKY009R02      7GAS009
0149726140547422023011013546+44420-072019FM-15+0212K1V4 V02099999999999999999N9999997N5-00565-01175101625ADDMA1101495098965REMMET08701/10/23 08:54:02 METAR K1V4 101354Z      KT M06/M12 A2997 RMK AO1 SLP162 T10561117 PNOEQDR01      7SKY009R02      7GAS009
0175726140547422023011014546+44420-072019FM-15+0212K1V4 V02099999999999999999N9999997N5-00615-01175101715ADDMA1101565099035MD1390279+9999REMMET09901/10/23 09:54:02 METAR K1V4 101454Z      KT M06/M12 A2999 RMK AO1 SLP171 6//// T10611117 53027 PNOEQDR01      7SKY009R02      7GAS009
0149726140547422023011015546+44420-072019FM-15+0212K1V4 V02099999999999999999N9999997N5-00505-01225101715ADDMA1101565099035REMMET08701/10/23 10:54:02 METAR K1V4 101554Z      KT M05/M12 A2999 RMK AO1 SLP171 T10501122 PNOEQDR01      7SKY009R02      7GAS009
0149726140547422023011016546+44420-072019FM-15+0212K1V4 V02099999999999999999N9999997N5-00505-01285101675ADDMA1101525099005REMMET08701/10/23 11:54:02 METAR K1V4 101654Z      KT M05/M13 A2998 RMK AO1 SLP167 T10501128 PNOEQDR01      7SKY009R02      7GAS009
0187726140547422023011017546+44420-072019FM-15+0212K1V4 V02099999999999999999N9999997N5-00445-01285101665ADDMA1101525099005MD1890039+9999REMMET11101/10/23 12:54:02 METAR K1V4 101754Z      KT M04/M13 A2998 RMK AO1 SLP166 6//// T10441128 11044 21061 58003 PNOEQDR01      7SKY009R02      7GAS009
0149726140547422023011018546+44420-072019FM-15+0212K1V4 V02099999999999999999N9999997N5-00445-01285101715ADDMA1101595099065REMMET08701/10/23 13:54:02 METAR K1V4 101854Z      KT M04/M13 A3000 RMK AO1 SLP171 T10441128 PNOEQDR01      7SKY009R02      7GAS009
0149726140547422023011019546+44420-072019FM-15+0212K1V4 V02099999999999999999N9999997N5-00505-01335101775ADDMA1101665099135REMMET08701/10/23 14:54:02 METAR K1V4 101954Z      KT M05/M13 A3002 RMK AO1 SLP177 T10501133 PNOEQDR01      7SKY009R02      7GAS009
0175726140547422023011020546+44420-072019FM-15+0212K1V4 V02099999999999999999N9999997N5-00615-01285101905ADDMA1101765099235MD1390219+9999REMMET09901/10/23 15:54:02 METAR K1V4 102054Z      KT M06/M13 A3005 RMK AO1 SLP190 6//// T10611128 53021 PNOEQDR01      7SKY009R02      7GAS009
0149726140547422023011021546+44420-072019FM-15+0212K1V4 V02099999999999999999N9999997N5-00725-01285101975ADDMA1101795099265REMMET08701/10/23 16:54:02 METAR K1V4 102154Z      KT M07/M13 A3006 RMK AO1 SLP197 T10721128 PNOEQDR01      7SKY009R02      7GAS009
0149726140547422023011022546+44420-072019FM-15+0212K1V4 V02099999999999999999N9999997N5-00785-01335102065ADDMA1101905099365REMMET08701/10/23 17:54:02 METAR K1V4 102254Z      KT M08/M13 A3009 RMK AO1 SLP206 T10781133 PNOEQDR01      7SKY009R02      7GAS009
0187726140547422023011023546+44420-072019FM-15+0212K1V4 V02099999999999999999N9999997N5-00945-01335102135ADDMA1101965099435MD1390199+9999REMMET11101/10/23 18:54:02 METAR K1V4 102354Z      KT M09/M13 A3011 RMK AO1 SLP213 6//// T10941133 11039 21094 53019 PNOEQDR01      7SKY009R02      7GAS009
0149726140547422023011100546+44420-072019FM-15+0212K1V4 V02099999999999999999N9999997N5-01065-01335102185ADDMA1102005099465REMMET08701/10/23 19:54:01 METAR K1V4 110054Z      KT M11/M13 A3012 RMK AO1 SLP218 T11061133 PNOEQDR01      7SKY009R02      7GAS009
0149726140547422023011101546+44420-072019FM-15+0212K1V4 V02099999999999999999N9999997N5-01115-01395102255ADDMA1102075099535REMMET08701/10/23 20:54:01 METAR K1V4 110154Z      KT M11/M14 A3014 RMK AO1 SLP225 T11111139 PNOEQDR01      7SKY009R02      7GAS009
0175726140547422023011102546+44420-072019FM-15+0212K1V4 V02099999999999999999N9999997N5-01175-01445102315ADDMA1102105099565MD1390169+9999REMMET09901/10/23 21:54:01 METAR K1V4 110254Z      KT M12/M14 A3015 RMK AO1 SLP231 6//// T11171144 53016 PNOEQDR01      7SKY009R02      7GAS009
0149726140547422023011103546+44420-072019FM-15+0212K1V4 V02099999999999999999N9999997N5-01225-01445102375ADDMA1102175099635REMMET08701/10/23 22:54:01 METAR K1V4 110354Z      KT M12/M14 A3017 RMK AO1 SLP237 T11221144 PNOEQDR01      7SKY009R02      7GAS009
0159726140547422023011104546+44420-072019FM-15+0212K1V4 V02099999999999999999N9999997N5-01285-01565102395ADDMA1102205099665REMMET09701/10/23 23:54:01 METAR K1V4 110454Z      KT M13/M16 A3018 RMK AO1 SLP239 T11281156 400001128 PNOEQDR01      7SKY009R02      7GAS009
0600726140547422023011104596+44420-072019SOD  +0212K1V4 V020999999999999999999999999999+99999+99999999999ADDAA124000095KA1240M+00005KA2240N-01275MG1098834100854OE11249999999999997OE22249999999999997REMSOD49824 HR PRECIPITATION (IN): 0.00 24 HR MAX TEMP (F): 3224 HR MIN TEMP (F):  9AVERAGE STATION PRESSURE:29.185 MINIMUM SEA LEVEL PRESSURE:29.78 TIME OF OCCURRENCE:0138 24 HR AVG TEMP (F): 21DEPART FROM NORMAL:  4  HEATING DEGREE DAYS: 44 COOLING DEGREE DAYS:  0 LATEST DAY MAX TEMP (0700-1900 LST):25  LATEST NIGHT MIN TEMP(1900-0800 LST):22 HOURLY INCREMENTAL PRECIPITATION VALUES (IN):    M    M    M    M    M    M    M    M    M    M    M    M    M    M    M    M    M    M    M    M    M    M    M
0187726140547422023011105546+44420-072019FM-15+0212K1V4 V02099999999999999999N9999997N5-01335-01615102425ADDMA1102245099695MD1190119+9999REMMET11101/11/23 00:54:02 METAR K1V4 110554Z      KT M13/M16 A3019 RMK AO1 SLP242 6//// T11331161 11089 21133 51011 PNOEQDR01      7SKY009R02      7GAS009
0149726140547422023011106546+44420-072019FM-15+0212K1V4 V02099999999999999999N9999997N5-01395-01675102445ADDMA1102245099695REMMET08701/11/23 01:54:02 METAR K1V4 110654Z      KT M14/M17 A3019 RMK AO1 SLP244 T11391167 PNOEQDR01      7SKY009R02      7GAS009
0149726140547422023011107546+44420-072019FM-15+0212K1V4 V02099999999999999999N9999997N5-01395-01675102515ADDMA1102305099765REMMET08701/11/23 02:54:02 METAR K1V4 110754Z      KT M14/M17 A3021 RMK AO1 SLP251 T11391167 PNOEQDR01      7SKY009R02      7GAS009
0175726140547422023011108546+44420-072019FM-15+0212K1V4 V02099999999999999999N9999997N5-01445-01725102565ADDMA1102345099795MD1390139+9999REMMET09901/11/23 03:54:02 METAR K1V4 110854Z      KT M14/M17 A3022 RMK AO1 SLP256 6//// T11441172 53013 PNOEQDR01      7SKY009R02      7GAS009
0149726140547422023011109546+44420-072019FM-15+0212K1V4 V02099999999999999999N9999997N5-01505-01785102665ADDMA1102445099895REMMET08701/11/23 04:54:02 METAR K1V4 110954Z      KT M15/M18 A3025 RMK AO1 SLP266 T11501178 PNOEQDR01      7SKY009R02      7GAS009
0149726140547422023011110546+44420-072019FM-15+0212K1V4 V02099999999999999999N9999997N5-01505-01785102695ADDMA1102475099935REMMET08701/11/23 05:54:02 METAR K1V4 111054Z      KT M15/M18 A3026 RMK AO1 SLP269 T11501178 PNOEQDR01      7SKY009R02      7GAS009
0193726140547422023011111546+44420-072019FM-15+0212K1V4 V02099999999999999999N9999997N5-01565-01835102695ADDMA1102445099895MD1090099+9999REMMET11701/11/23 06:54:02 METAR K1V4 111154Z      KT M16/M18 A3025 RMK AO1 SLP269 6//// 7//// T11561183 11133 21156 50009 PNOEQDR01      7SKY009R02      7GAS009
0149726140547422023011112546+44420-072019FM-15+0212K1V4 V02099999999999999999N9999997N5-01565-01835102745ADDMA1102515099965REMMET08701/11/23 07:54:02 METAR K1V4 111254Z      KT M16/M18 A3027 RMK AO1 SLP274 T11561183 PNOEQDR01      7SKY009R02      7GAS009
0149726140547422023011113546+44420-072019FM-15+0212K1V4 V02099999999999999999N9999997N5-01445-01725102785ADDMA1102545099995REMMET08701/11/23 08:54:02 METAR K1V4 111354Z      KT M14/M17 A3028 RMK AO1 SLP278 T11441172 PNOEQDR01      7SKY009R02      7GAS009
0175726140547422023011114546+44420-072019FM-15+0212K1V4 V02099999999999999999N9999997N5-01225-01565102785ADDMA1102545099995MD1190109+9999REMMET09901/11/23 09:54:02 METAR K1V4 111454Z      KT M12/M16 A3028 RMK AO1 SLP278 6//// T11221156 51010 PNOEQDR01      7SKY009R02      7GAS009
0149726140547422023011115546+44420-072019FM-15+0212K1V4 V02099999999999999999N9999997N5-00945-01395102765ADDMA1102545099995REMMET08701/11/23 10:54:02 METAR K1V4 111554Z      KT M09/M14 A3028 RMK AO1 SLP276 T10941139 PNOEQDR01      7SKY009R02      7GAS009
0149726140547422023011116546+44420-072019FM-15+0212K1V4 V02099999999999999999N9999997N5-00725-01285102665ADDMA1102445099895REMMET08701/11/23 11:54:02 METAR K1V4 111654Z      KT M07/M13 A3025 RMK AO1 SLP266 T10721128 PNOEQDR01      7SKY009R02      7GAS009
0187726140547422023011117546+44420-072019FM-15+0212K1V4 V02099999999999999999N9999997N5-00505-01175102605ADDMA1102405099865MD1890159+9999REMMET11101/11/23 12:54:02 METAR K1V4 111754Z      KT M05/M12 A3024 RMK AO1 SLP260 6//// T10501117 11044 21161 58015 PNOEQDR01      7SKY009R02      7GAS009
0149726140547422023011118546+44420-072019FM-15+0212K1V4 V02099999999999999999N9999997N5-00395-01225102575ADDMA1102375099835REMMET08701/11/23 13:54:02 METAR K1V4 111854Z      KT M04/M12 A3023 RMK AO1 SLP257 T10391122 PNOEQDR01      7SKY009R02      7GAS009
0149726140547422023011119546+44420-072019FM-15+0212K1V4 V02099999999999999999N9999997N5-00395-01225102575ADDMA1102375099835REMMET08701/11/23 14:54:02 METAR K1V4 111954Z      KT M04/M12 A3023 RMK AO1 SLP257 T10391122 PNOEQDR01      7SKY009R02      7GAS009
0175726140547422023011120546+44420-072019FM-15+0212K1V4 V02099999999999999999N9999997N5-00395-01115102585ADDMA1102375099835MD1590029+9999REMMET09901/11/23 15:54:02 METAR K1V4 112054Z      KT M04/M11 A3023 RMK AO1 SLP258 6//// T10391111 55002 PNOEQDR01      7SKY009R02      7GAS009
0149726140547422023011121546+44420-072019FM-15+0212K1V4 V02099999999999999999N9999997N5-00505-01115102605ADDMA1102405099865REMMET08701/11/23 16:54:02 METAR K1V4 112154Z      KT M05/M11 A3024 RMK AO1 SLP260 T10501111 PNOEQDR01      7SKY009R02      7GAS009
0149726140547422023011122546+44420-072019FM-15+0212K1V4 V02099999999999999999N9999997N5-00615-01115102645ADDMA1102445099895REMMET08701/11/23 17:54:02 METAR K1V4 112254Z      KT M06/M11 A3025 RMK AO1 SLP264 T10611111 PNOEQDR01      7SKY009R02      7GAS009
0187726140547422023011123546+44420-072019FM-15+0212K1V4 V02099999999999999999N9999997N5-00675-01065102735ADDMA1102515099965MD1390119+9999REMMET11101/11/23 18:54:02 METAR K1V4 112354Z      KT M07/M11 A3027 RMK AO1 SLP273 6//// T10671106 11033 21072 53011 PNOEQDR01      7SKY009R02      7GAS009
0149726140547422023011200546+44420-072019FM-15+0212K1V4 V02099999999999999999N9999997N5-00675-01065102715ADDMA1102475099935REMMET08701/11/23 19:54:01 METAR K1V4 120054Z      KT M07/M11 A3026 RMK AO1 SLP271 T10671106 PNOEQDR01      7SKY009R02      7GAS009
0149726140547422023011201546+44420-072019FM-15+0212K1V4 V02099999999999999999N9999997N5-00725-01065102685ADDMA1102475099935REMMET08701/11/23 20:54:01 METAR K1V4 120154Z      KT M07/M11 A3026 RMK AO1 SLP268 T10721106 PNOEQDR01      7SKY009R02      7GAS009
0175726140547422023011202546+44420-072019FM-15+0212K1V4 V02099999999999999999N9999997N5-00725-01065102675ADDMA1102475099935MD1590039+9999REMMET09901/11/23 21:54:01 METAR K1V4 120254Z      KT M07/M11 A3026 RMK AO1 SLP267 6//// T10721106 55003 PNOEQDR01      7SKY009R02      7GAS009
0149726140547422023011203546+44420-072019FM-15+0212K1V4 V02099999999999999999N9999997N5-00725-01065102675ADDMA1102475099935REMMET08701/11/23 22:54:01 METAR K1V4 120354Z      KT M07/M11 A3026 RMK AO1 SLP267 T10721106 PNOEQDR01      7SKY009R02      7GAS009
0159726140547422023011204546+44420-072019FM-15+0212K1V4 V02099999999999999999N9999997N5-00675-01005102605ADDMA1102405099865REMMET09701/11/23 23:54:01 METAR K1V4 120454Z      KT M07/M10 A3024 RMK AO1 SLP260 T10671100 410331161 PNOEQDR01      7SKY009R02      7GAS009
0600726140547422023011204596+44420-072019SOD  +0212K1V4 V020999999999999999999999999999+99999+99999999999ADDAA124000095KA1240M-00325KA2240N-01605MG1099834102404OE11249999999999997OE22249999999999997REMSOD49824 HR PRECIPITATION (IN): 0.00 24 HR MAX TEMP (F): 2624 HR MIN TEMP (F):  3AVERAGE STATION PRESSURE:29.480 MINIMUM SEA LEVEL PRESSURE:30.24 TIME OF OCCURRENCE:0120 24 HR AVG TEMP (F): 15DEPART FROM NORMAL: -2  HEATING DEGREE DAYS: 50 COOLING DEGREE DAYS:  0 LATEST DAY MAX TEMP (0700-1900 LST):26  LATEST NIGHT MIN TEMP(1900-0800 LST):3  HOURLY INCREMENTAL PRECIPITATION VALUES (IN):    M    M    M    M    M    M    M    M    M    M    M    M    M    M    M    M    M    M    M    M    M    M    M
0187726140547422023011205546+44420-072019FM-15+0212K1V4 V02099999999999999999N9999997N5-00675-01005102535ADDMA1102375099835MD1890099+9999REMMET11101/12/23 00:54:02 METAR K1V4 120554Z      KT M07/M10 A3023 RMK AO1 SLP253 6//// T10671100 11067 21072 58009 PNOEQDR01      7SKY009R02      7GAS009
0149726140547422023011206546+44420-072019FM-15+0212K1V4 V02099999999999999999N9999997N5-00615-00945102575ADDMA1102405099865REMMET08701/12/23 01:54:02 METAR K1V4 120654Z      KT M06/M09 A3024 RMK AO1 SLP257 T10611094 PNOEQDR01      7SKY009R02      7GAS009
0149726140547422023011207546+44420-072019FM-15+0212K1V4 V02099999999999999999N9999997N5-00565-00895102575ADDMA1102445099895REMMET08701/12/23 02:54:02 METAR K1V4 120754Z      KT M06/M09 A3025 RMK AO1 SLP257 T10561089 PNOEQDR01      7SKY009R02      7GAS009
0175726140547422023011208546+44420-072019FM-15+0212K1V4 V02099999999999999999N9999997N5-00565-00895102495ADDMA1102345099795MD1890029+9999REMMET09901/12/23 03:54:02 METAR K1V4 120854Z      KT M06/M09 A3022 RMK AO1 SLP249 6//// T10561089 58002 PNOEQDR01      7SKY009R02      7GAS009
0149726140547422023011209546+44420-072019FM-15+0212K1V4 V02099999999999999999N9999997N5-00565-00835102485ADDMA1102345099795REMMET08701/12/23 04:54:02 METAR K1V4 120954Z      KT M06/M08 A3022 RMK AO1 SLP248 T10561083 PNOEQDR01      7SKY009R02      7GAS009
0149726140547422023011210546+44420-072019FM-15+0212K1V4 V02099999999999999999N9999997N5-00565-00835102495ADDMA1102305099765REMMET08701/12/23 05:54:02 METAR K1V4 121054Z      KT M06/M08 A3021 RMK AO1 SLP249 T10561083 PNOEQDR01      7SKY009R02      7GAS009
0193726140547422023011211546+44420-072019FM-15+0212K1V4 V02099999999999999999N9999997N5-00505-00835102455ADDMA1102275099735MD1890069+9999REMMET11701/12/23 06:54:02 METAR K1V4 121154Z      KT M05/M08 A3020 RMK AO1 SLP245 6//// 7//// T10501083 11050 21067 58006 PNOEQDR01      7SKY009R02      7GAS009
0149726140547422023011212546+44420-072019FM-15+0212K1V4 V02099999999999999999N9999997N5-00445-00785102465ADDMA1102305099765REMMET08701/12/23 07:54:02 METAR K1V4 121254Z      KT M04/M08 A3021 RMK AO1 SLP246 T10441078 PNOEQDR01      7SKY009R02      7GAS009
0149726140547422023011213546+44420-072019FM-15+0212K1V4 V02099999999999999999N9999997N5-00395-00785102435ADDMA1102275099735REMMET08701/12/23 08:54:02 METAR K1V4 121354Z      KT M04/M08 A3020 RMK AO1 SLP243 T10391078 PNOEQDR01      7SKY009R02      7GAS009
0175726140547422023011214546+44420-072019FM-15+0212K1V4 V02099999999999999999N9999997N5-00335-00675102425ADDMA1102275099735MD1890039+9999REMMET09901/12/23 09:54:02 METAR K1V4 121454Z      KT M03/M07 A3020 RMK AO1 SLP242 6//// T10331067 58003 PNOEQDR01      7SKY009R02      7GAS009
0149726140547422023011215546+44420-072019FM-15+0212K1V4 V02099999999999999999N9999997N5-00225-00445102345ADDMA1102205099665REMMET08701/12/23 10:54:02 METAR K1V4 121554Z      KT M02/M04 A3018 RMK AO1 SLP234 T10221044 PNOEQDR01      7SKY009R02      7GAS009
0149726140547422023011216546+44420-072019FM-15+0212K1V4 V02099999999999999999N9999997N5-00175-00335102215ADDMA1102075099535REMMET08701/12/23 11:54:02 METAR K1V4 121654Z      KT M02/M03 A3014 RMK AO1 SLP221 T10171033 PNOEQDR01      7SKY009R02      7GAS009
0187726140547422023011217546+44420-072019FM-15+0212K1V4 V02099999999999999999N9999997N5-00175-00335102105ADDMA1101965099435MD1890299+9999REMMET11101/12/23 12:54:02 METAR K1V4 121754Z      KT M02/M03 A3011 RMK AO1 SLP210 6//// T10171033 11011 21050 58029 PNOEQDR01      7SKY009R02      7GAS009
0149726140547422023011218546+44420-072019FM-15+0212K1V4 V02099999999999999999N9999997N5-00115-00285101965ADDMA1101835099305REMMET08701/12/23 13:54:02 METAR K1V4 121854Z      KT M01/M03 A3007 RMK AO1 SLP196 T10111028 PNOEQDR01      7SKY009R02      7GAS009
0149726140547422023011219546+44420-072019FM-15+0212K1V4 V02099999999999999999N9999997N5-00065-00335101925ADDMA1101795099265REMMET08701/12/23 14:54:02 METAR K1V4 121954Z      KT M01/M03 A3006 RMK AO1 SLP192 T10061033 PNOEQDR01      7SKY009R02      7GAS009
0175726140547422023011220546+44420-072019FM-15+0212K1V4 V02099999999999999999N9999997N5-00115-00225101905ADDMA1101765099235MD1690199+9999REMMET09901/12/23 15:54:02 METAR K1V4 122054Z      KT M01/M02 A3005 RMK AO1 SLP190 6//// T10111022 56019 PNOEQDR01      7SKY009R02      7GAS009
0149726140547422023011221546+44420-072019FM-15+0212K1V4 V02099999999999999999N9999997N5-00065-00175101865ADDMA1101735099205REMMET08701/12/23 16:54:02 METAR K1V4 122154Z      KT M01/M02 A3004 RMK AO1 SLP186 T10061017 PNOEQDR01      7SKY009R02      7GAS009
0149726140547422023011222546+44420-072019FM-15+0212K1V4 V02099999999999999999N9999997N5-00065-00175101825ADDMA1101695099165REMMET08701/12/23 17:54:02 METAR K1V4 122254Z      KT M01/M02 A3003 RMK AO1 SLP182 T10061017 PNOEQDR01      7SKY009R02      7GAS009
0187726140547422023011223546+44420-072019FM-15+0212K1V4 V02099999999999999999N9999997N5-00065-00225101705ADDMA1101565099035MD1890209+9999REMMET11101/12/23 18:54:02 METAR K1V4 122354Z      KT M01/M02 A2999 RMK AO1 SLP170 6//// T10061022 11006 21017 58020 PNOEQDR01      7SKY009R02      7GAS009
0149726140547422023011300546+44420-072019FM-15+0212K1V4 V02099999999999999999N9999997N5-00065-00225101575ADDMA1101465098935REMMET08701/12/23 19:54:01 METAR K1V4 130054Z      KT M01/M02 A2996 RMK AO1 SLP157 T10061022 PNOEQDR01      7SKY009R02      7GAS009
0149726140547422023011301546+44420-072019FM-15+0212K1V4 V02099999999999999999N9999997N5-00065-00175101415ADDMA1101295098775REMMET08701/12/23 20:54:01 METAR K1V4 130154Z      KT M01/M02 A2991 RMK AO1 SLP141 T10061017 PNOEQDR01      7SKY009R02      7GAS009
0175726140547422023011302546+44420-072019FM-15+0212K1V4 V02099999999999999999N9999997N5-00065-00175101315ADDMA1101195098675MD1690379+9999REMMET09901/12/23 21:54:01 METAR K1V4 130254Z      KT M01/M02 A2988 RMK AO1 SLP131 6//// T10061017 56037 PNOEQDR01      7SKY009R02      7GAS009
0148726140547422023011303546+44420-072019FM-15+0212K1V4 V02099999999999999999N9999997N5+00005-00115101095ADDMA1100985098475REMMET08601/12/23 22:54:01 METAR K1V4 130354Z      KT 00/M01 A2982 RMK AO1 SLP109 T00001011 PNOEQDR01      7SKY009R02      7GAS009
0158726140547422023011304546+44420-072019FM-15+0212K1V4 V02099999999999999999N9999997N5+00065-00065100885ADDMA1100785098275REMMET09601/12/23 23:54:02 METAR K1V4 130454Z      KT 01/M01 A2976 RMK AO1 SLP088 T00061006 400061067 PNOEQDR01      7SKY009R02      7GAS009
0600726140547422023011304596+44420-072019SOD  +0212K1V4 V020999999999999999999999999999+99999+99999999999ADDAA124000095KA1240M+00065KA2240N-00665MG1099494100884OE11249999999999997OE22249999999999997REMSOD49824 HR PRECIPITATION (IN): 0.00 24 HR MAX TEMP (F): 3324 HR MIN TEMP (F): 20AVERAGE STATION PRESSURE:29.380 MINIMUM SEA LEVEL PRESSURE:29.79 TIME OF OCCURRENCE:2359 24 HR AVG TEMP (F): 27DEPART FROM NORMAL: 10  HEATING DEGREE DAYS: 38 COOLING DEGREE DAYS:  0 LATEST DAY MAX TEMP (0700-1900 LST):31  LATEST NIGHT MIN TEMP(1900-0800 LST):19 HOURLY INCREMENTAL PRECIPITATION VALUES (IN):    M    M    M    M    M    M    M    M    M    M    M    M    M    M    M    M    M    M    M    M    M    M    M
0186726140547422023011305546+44420-072019FM-15+0212K1V4 V02099999999999999999N9999997N5+00065-00065100725ADDMA1100615098105MD1690569+9999REMMET11001/13/23 00:54:02 METAR K1V4 130554Z      KT 01/M01 A2971 RMK AO1 SLP072 6//// T00061006 10006 21006 56056 PNOEQDR01      7SKY009R02      7GAS009
0148726140547422023011306546+44420-072019FM-15+0212K1V4 V02099999999999999999N9999997N5+00065-00065100565ADDMA1100475097975REMMET08601/13/23 01:54:02 METAR K1V4 130654Z      KT 01/M01 A2967 RMK AO1 SLP056 T00061006 PNOEQDR01      7SKY009R02      7GAS009
0148726140547422023011307546+44420-072019FM-15+0212K1V4 V02099999999999999999N9999997N5+00065-00065100485ADDMA1100375097875REMMET08601/13/23 02:54:02 METAR K1V4 130754Z      KT 01/M01 A2964 RMK AO1 SLP048 T00061006 PNOEQDR01      7SKY009R02      7GAS009
0181726140547422023011308546+44420-072019FM-15+0212K1V4 V02099999999999999999N9999997N5+00065-00065100265ADDMA1100175097675MD1890449+9999REMMET10501/13/23 03:54:02 METAR K1V4 130854Z      KT 01/M01 A2958 RMK AO1 PRESFR SLP026 6//// T00061006 58044 PNOEQDR01      7SKY009R02      7GAS009
0148726140547422023011309546+44420-072019FM-15+0212K1V4 V02099999999999999999N9999997N5+00065-00065100185ADDMA1100105097605REMMET08601/13/23 04:54:02 METAR K1V4 130954Z      KT 01/M01 A2956 RMK AO1 SLP018 T00061006 PNOEQDR01      7SKY009R02      7GAS009
0148726140547422023011310546+44420-072019FM-15+0212K1V4 V02099999999999999999N9999997N5+00065-00065100075ADDMA1099975097475REMMET08601/13/23 05:54:02 METAR K1V4 131054Z      KT 01/M01 A2952 RMK AO1 SLP007 T00061006 PNOEQDR01      7SKY009R02      7GAS009
0192726140547422023011311546+44420-072019FM-15+0212K1V4 V02099999999999999999N9999997N5+00005-00065099995ADDMA1099905097405MD1890269+9999REMMET11601/13/23 06:54:02 METAR K1V4 131154Z      KT 00/M01 A2950 RMK AO1 SLP999 6//// 7//// T00001006 10006 20000 58026 PNOEQDR01      7SKY009R02      7GAS009
0147726140547422023011312546+44420-072019FM-15+0212K1V4 V02099999999999999999N9999997N5+00065+00005099995ADDMA1099905097405REMMET08501/13/23 07:54:02 METAR K1V4 131254Z      KT 01/00 A2950 RMK AO1 SLP999 T00060000 PNOEQDR01      7SKY009R02      7GAS009
0147726140547422023011313546+44420-072019FM-15+0212K1V4 V02099999999999999999N9999997N5+00065+00005099935ADDMA1099835097345REMMET08501/13/23 08:54:02 METAR K1V4 131354Z      KT 01/00 A2948 RMK AO1 SLP993 T00060000 PNOEQDR01      7SKY009R02      7GAS009
0173726140547422023011314546+44420-072019FM-15+0212K1V4 V02099999999999999999N9999997N5+00115+00005099895ADDMA1099805097315MD1890099+9999REMMET09701/13/23 09:54:02 METAR K1V4 131454Z      KT 01/00 A2947 RMK AO1 SLP989 6//// T00110000 58009 PNOEQDR01      7SKY009R02      7GAS009
0147726140547422023011315546+44420-072019FM-15+0212K1V4 V02099999999999999999N9999997N5+00115+00005099835ADDMA1099765097275REMMET08501/13/23 10:54:02 METAR K1V4 131554Z      KT 01/00 A2946 RMK AO1 SLP983 T00110000 PNOEQDR01      7SKY009R02      7GAS009
0147726140547422023011316546+44420-072019FM-15+0212K1V4 V02099999999999999999N9999997N5+00175+00065099755ADDMA1099665097175REMMET08501/13/23 11:54:02 METAR K1V4 131654Z      KT 02/01 A2943 RMK AO1 SLP975 T00170006 PNOEQDR01      7SKY009R02      7GAS009
0185726140547422023011317546+44420-072019FM-15+0212K1V4 V02099999999999999999N9999997N5+00175+00065099865ADDMA1099765097275MD1590039+9999REMMET10901/13/23 12:54:02 METAR K1V4 131754Z      KT 02/01 A2946 RMK AO1 SLP986 6//// T00170006 10017 20000 55003 PNOEQDR01      7SKY009R02      7GAS009
0147726140547422023011318546+44420-072019FM-15+0212K1V4 V02099999999999999999N9999997N5+00225+00115099945ADDMA1099865097375REMMET08501/13/23 13:54:02 METAR K1V4 131854Z      KT 02/01 A2949 RMK AO1 SLP994 T00220011 PNOEQDR01      7SKY009R02      7GAS009
0147726140547422023011319546+44420-072019FM-15+0212K1V4 V02099999999999999999N9999997N5+00285+00005100105ADDMA1100035097545REMMET08501/13/23 14:54:02 METAR K1V4 131954Z      KT 03/00 A2954 RMK AO1 SLP010 T00280000 PNOEQDR01      7SKY009R02      7GAS009
0174726140547422023011320546+44420-072019FM-15+0212K1V4 V02099999999999999999N9999997N5+00065-00285100305ADDMA1100205097705MD1390439+9999REMMET09801/13/23 15:54:02 METAR K1V4 132054Z      KT 01/M03 A2959 RMK AO1 SLP030 6//// T00061028 53043 PNOEQDR01      7SKY009R02      7GAS009
0155726140547422023011321546+44420-072019FM-15+0212K1V4 V02099999999999999999N9999997N5+00005-00335100465ADDMA1100375097875REMMET09301/13/23 16:54:02 METAR K1V4 132154Z      KT 00/M03 A2964 RMK AO1 PRESRR SLP046 T00001033 PNOEQDR01      7SKY009R02      7GAS009
0149726140547422023011322546+44420-072019FM-15+0212K1V4 V02099999999999999999N9999997N5-00115-00505100615ADDMA1100515098005REMMET08701/13/23 17:54:02 METAR K1V4 132254Z      KT M01/M05 A2968 RMK AO1 SLP061 T10111050 PNOEQDR01      7SKY009R02      7GAS009
0194726140547422023011323546+44420-072019FM-15+0212K1V4 V02099999999999999999N9999997N5-00175-00565100785ADDMA1100685098175MD1390469+9999REMMET11801/13/23 18:54:02 METAR K1V4 132354Z      KT M02/M06 A2973 RMK AO1 PRESRR SLP078 6//// T10171056 10033 21017 53046 PNOEQDR01      7SKY009R02      7GAS009
0149726140547422023011400546+44420-072019FM-15+0212K1V4 V02099999999999999999N9999997N5-00225-00615100835ADDMA1100715098205REMMET08701/13/23 19:54:01 METAR K1V4 140054Z      KT M02/M06 A2974 RMK AO1 SLP083 T10221061 PNOEQDR01      7SKY009R02      7GAS009
0149726140547422023011401546+44420-072019FM-15+0212K1V4 V02099999999999999999N9999997N5-00285-00615100945ADDMA1100815098305REMMET08701/13/23 20:54:01 METAR K1V4 140154Z      KT M03/M06 A2977 RMK AO1 SLP094 T10281061 PNOEQDR01      7SKY009R02      7GAS009
0175726140547422023011402546+44420-072019FM-15+0212K1V4 V02099999999999999999N9999997N5-00285-00565100965ADDMA1100855098335MD1190189+9999REMMET09901/13/23 21:54:01 METAR K1V4 140254Z      KT M03/M06 A2978 RMK AO1 SLP096 6//// T10281056 51018 PNOEQDR01      7SKY009R02      7GAS009
0149726140547422023011403546+44420-072019FM-15+0212K1V4 V02099999999999999999N9999997N5-00285-00615100985ADDMA1100885098375REMMET08701/13/23 22:54:01 METAR K1V4 140354Z      KT M03/M06 A2979 RMK AO1 SLP098 T10281061 PNOEQDR01      7SKY009R02      7GAS009
0159726140547422023011404546+44420-072019FM-15+0212K1V4 V02099999999999999999N9999997N5-00285-00615101025ADDMA1100915098405REMMET09701/13/23 23:54:02 METAR K1V4 140454Z      KT M03/M06 A2980 RMK AO1 SLP102 T10281061 400331028 PNOEQDR01      7SKY009R02      7GAS009
0600726140547422023011404596+44420-072019SOD  +0212K1V4 V020999999999999999999999999999+99999+99999999999ADDAA124000095KA1240M+00335KA2240N-00275MG1097714099764OE11249999999999997OE22249999999999997REMSOD49824 HR PRECIPITATION (IN): 0.00 24 HR MAX TEMP (F): 3824 HR MIN TEMP (F): 27AVERAGE STATION PRESSURE:28.855 MINIMUM SEA LEVEL PRESSURE:29.46 TIME OF OCCURRENCE:1207 24 HR AVG TEMP (F): 33DEPART FROM NORMAL: 16  HEATING DEGREE DAYS: 32 COOLING DEGREE DAYS:  0 LATEST DAY MAX TEMP (0700-1900 LST):38  LATEST NIGHT MIN TEMP(1900-0800 LST):31 HOURLY INCREMENTAL PRECIPITATION VALUES (IN):    M    M    M    M    M    M    M    M    M    M    M    M    M    M    M    M    M    M    M    M    M    M    M
0187726140547422023011405546+44420-072019FM-15+0212K1V4 V02099999999999999999N9999997N5-00335-00675101005ADDMA1100915098405MD1090049+9999REMMET11101/14/23 00:54:02 METAR K1V4 140554Z      KT M03/M07 A2980 RMK AO1 SLP100 6//// T10331067 11017 21033 50004 PNOEQDR01      7SKY009R02      7GAS009
0149726140547422023011406546+44420-072019FM-15+0212K1V4 V02099999999999999999N9999997N5-00335-00675101025ADDMA1100915098405REMMET08701/14/23 01:54:02 METAR K1V4 140654Z      KT M03/M07 A2980 RMK AO1 SLP102 T10331067 PNOEQDR01      7SKY009R02      7GAS009
0149726140547422023011407546+44420-072019FM-15+0212K1V4 V02099999999999999999N9999997N5-00335-00675101035ADDMA1100955098435REMMET08701/14/23 02:54:02 METAR K1V4 140754Z      KT M03/M07 A2981 RMK AO1 SLP103 T10331067 PNOEQDR01      7SKY009R02      7GAS009
0175726140547422023011408546+44420-072019FM-15+0212K1V4 V02099999999999999999N9999997N5-00335-00675101045ADDMA1100955098435MD1190039+9999REMMET09901/14/23 03:54:02 METAR K1V4 140854Z      KT M03/M07 A2981 RMK AO1 SLP104 6//// T10331067 51003 PNOEQDR01      7SKY009R02      7GAS009
0149726140547422023011409546+44420-072019FM-15+0212K1V4 V02099999999999999999N9999997N5-00395-00725101165ADDMA1101055098535REMMET08701/14/23 04:54:02 METAR K1V4 140954Z      KT M04/M07 A2984 RMK AO1 SLP116 T10391072 PNOEQDR01      7SKY009R02      7GAS009
0149726140547422023011410546+44420-072019FM-15+0212K1V4 V02099999999999999999N9999997N5-00445-00725101195ADDMA1101055098535REMMET08701/14/23 05:54:02 METAR K1V4 141054Z      KT M04/M07 A2984 RMK AO1 SLP119 T10441072 PNOEQDR01      7SKY009R02      7GAS009
0193726140547422023011411546+44420-072019FM-15+0212K1V4 V02099999999999999999N9999997N5-00445-00725101185ADDMA1101055098535MD1090129+9999REMMET11701/14/23 06:54:02 METAR K1V4 141154Z      KT M04/M07 A2984 RMK AO1 SLP118 6//// 7//// T10441072 11033 21044 50012 PNOEQDR01      7SKY009R02      7GAS009
0149726140547422023011412546+44420-072019FM-15+0212K1V4 V02099999999999999999N9999997N5-00445-00725101255ADDMA1101125098605REMMET08701/14/23 07:54:02 METAR K1V4 141254Z      KT M04/M07 A2986 RMK AO1 SLP125 T10441072 PNOEQDR01      7SKY009R02      7GAS009
0149726140547422023011413546+44420-072019FM-15+0212K1V4 V02099999999999999999N9999997N5-00395-00725101295ADDMA1101155098635REMMET08701/14/23 08:54:02 METAR K1V4 141354Z      KT M04/M07 A2987 RMK AO1 SLP129 T10391072 PNOEQDR01      7SKY009R02      7GAS009
0175726140547422023011414546+44420-072019FM-15+0212K1V4 V02099999999999999999N9999997N5-00395-00725101335ADDMA1101195098675MD1190149+9999REMMET09901/14/23 09:54:02 METAR K1V4 141454Z      KT M04/M07 A2988 RMK AO1 SLP133 6//// T10391072 51014 PNOEQDR01      7SKY009R02      7GAS009
0149726140547422023011415546+44420-072019FM-15+0212K1V4 V02099999999999999999N9999997N5-00335-00725101375ADDMA1101225098705REMMET08701/14/23 10:54:02 METAR K1V4 141554Z      KT M03/M07 A2989 RMK AO1 SLP137 T10331072 PNOEQDR01      7SKY009R02      7GAS009
0149726140547422023011416546+44420-072019FM-15+0212K1V4 V02099999999999999999N9999997N5-00285-00725101405ADDMA1101255098735REMMET08701/14/23 11:54:02 METAR K1V4 141654Z      KT M03/M07 A2990 RMK AO1 SLP140 T10281072 PNOEQDR01      7SKY009R02      7GAS009
0187726140547422023011417546+44420-072019FM-15+0212K1V4 V02099999999999999999N9999997N5-00335-00725101365ADDMA1101225098705MD1090049+9999REMMET11101/14/23 12:54:02 METAR K1V4 141754Z      KT M03/M07 A2989 RMK AO1 SLP136 6//// T10331072 11028 21044 50004 PNOEQDR01      7SKY009R02      7GAS009
0149726140547422023011418546+44420-072019FM-15+0212K1V4 V02099999999999999999N9999997N5-00335-00725101365ADDMA1101225098705REMMET08701/14/23 13:54:02 METAR K1V4 141854Z      KT M03/M07 A2989 RMK AO1 SLP136 T10331072 PNOEQDR01      7SKY009R02      7GAS009
0149726140547422023011419546+44420-072019FM-15+0212K1V4 V02099999999999999999N9999997N5-00335-00725101495ADDMA1101355098835REMMET08701/14/23 14:54:02 METAR K1V4 141954Z      KT M03/M07 A2993 RMK AO1 SLP149 T10331072 PNOEQDR01      7SKY009R02      7GAS009
0175726140547422023011420546+44420-072019FM-15+0212K1V4 V02099999999999999999N9999997N5-00335-00725101575ADDMA1101425098905MD1390209+9999REMMET09901/14/23 15:54:02 METAR K1V4 142054Z      KT M03/M07 A2995 RMK AO1 SLP157 6//// T10331072 53020 PNOEQDR01      7SKY009R02      7GAS009
0149726140547422023011421546+44420-072019FM-15+0212K1V4 V02099999999999999999N9999997N5-00395-00725101655ADDMA1101495098965REMMET08701/14/23 16:54:02 METAR K1V4 142154Z      KT M04/M07 A2997 RMK AO1 SLP165 T10391072 PNOEQDR01      7SKY009R02      7GAS009
