0132726145947052025010100514+44204-072562FM-15+035599999V0209999C000012200019N016093199+00001-00331101201ADDGF100991999999999999999999MA1101081999999REMMET079METAR KMPV 010051Z AUTO 00000KT 10SM CLR 00/M03 A2985 RMK AO2 SLP120 T00001033=
0133726145947052025010101514+44204-072562FM-15+035599999V0209999C000012200019N016093199-00061-00331101151ADDGF100991999999999999999999MA1101021999999REMMET080METAR KMPV 010151Z AUTO 00000KT 10SM CLR M01/M03 A2983 RMK AO2 SLP115 T10061033=
0153726145947052025010102514+44204-072562FM-15+035599999V0209999C000012200019N016093199-00111-00331101041ADDGF100991999999999999999999MA1100911999999MD1810161+9999REMMET086METAR KMPV 010251Z AUTO 00000KT 10SM CLR M01/M03 A2980 RMK AO2 SLP104 T10111033 58016=
0192726145947052025010103514+44204-072562FM-15+035599999V0209999C000012200059N016093199-00221-00391100931ADDGD11991+0335319GE19AGL   +99999+99999GF102995999999033531999999MA1100811999999REMMET083METAR KMPV 010351Z AUTO 00000KT 10SM FEW110 M02/M04 A2977 RMK AO2 SLP093 T10221039=EQDD01      0ADE726
0169726145947052025010104514+44204-072562FM-15+035599999V0209999C000012200019N016093199-00221-00441100841ADDGF100991999999999999999999KA1240M+00721KA2240N-00281MA1100711999999REMMET090METAR KMPV 010451Z AUTO 00000KT 10SM CLR M02/M04 A2974 RMK AO2 SLP084 T10221044 400721028=
0935726145947052025010104596+44205-072565SOD  +0342KMPV V030999999999999999999999999999+99999+99999999999ADDAA124000025AT1AW16RA  1KA1240M+00725KA2240N-0027AMG1999999100514OE1124012522300045UOE22240071526003215OE33240019299999995RH1024X073D4RH2024N053D4RH3024M064D4REMSOD69924 HR PRECIPITATION (IN):T     24 HR MAX TEMP (F):45 24 HR MAX TEMP TIME (LST):1350 24 HR MIN TEMP (F):27 24 HR MIN TEMP TIME (LST):2356 MINIMUM SEA LEVEL PRESSURE:29.68 TIME OF OCCURRENCE:0112 PEAK WIND SPEED (MPH):27  PEAK WIND DIR (DEG):220 PEAK WIND TIME (LST):0045  FASTEST 2MIN SPEED (MPH):16 FASTEST 2MIN DIR (DEG):260 FASTEST 2MIN TIME (LST):0321 AVERAGE WIND SPEED (MPH): 4.3 24 HR AVG TEMP (F):36 HEATING DEGREE DAYS: 29 COOLING DEGREE DAYS:  0 LATEST DAY MAX TEMP (0700-1900 LST): 45 LATEST NIGHT MIN TEMP(1900-0800 LST):39 HOURLY INCREMENTAL PRECIPITATION VALUES (IN):    T     0.00 0.00 0.00 0.00 0.00 0.00 0.00 0.00 0.00 0.00 0.00 0.00 0.00 0.00 0.00 0.00 0.00 0.00 0.00 0.00 0.00 0.00EQDR01     N7GJS072R02     N7GKS075R03    277KAN011R04    277OES063
0170726145947052025010104596+44205-072565SOM  +0342KMPV V030999999999999999999999999999+99999+99999999999ADDAD1004229111299999999IAE120U09U01U01UKB1240N-0900IKB2240M-0089IKB3240A-0494IKC1N9-0244239999IKC2M9+0106309999IKE118U00U28U04UMH109797U10224UMK110498141851I09956051351I
0289726145947052025010105517+44205-072565FM-15+0342KMPV V0209999C000052200059N0160935N5-00115-00395100775ADDAA101000095GA1045+036585999GD12991+0365859GE19AGL   +99999+99999GF104995999999036581999999KA1060M+00171KA2060N-00281MA1100645096625MD1690259+9999REMMET11301/01/25 00:51:02 METAR KMPV 010551Z 00000KT 10SM SCT120 M01/M04 A2972 RMK AO2 SLP077 T10111039 10017 21028 56025EQDD01      0ADE726
0212726145947052025010106517+44205-072565FM-15+0342KMPV V0209999C00005033535MN0160935N5-00065-00285100665ADDAA101000095GA1085+033535999GD14991+0335359GE19AGL   +99999+99999GF199999999999033531999999MA1100545096525REMMET09501/01/25 01:51:02 METAR KMPV 010651Z 00000KT 10SM OVC110 M01/M03 A2969 RMK AO2 SLP066 T10061028
0307726145947052025010107517+44205-072565FM-15+0342KMPV V0203605N001552200059N0160935N5-00115-00285100605ADDAA101000095GA1025+015245999GA2025+018295999GA3045+036585999GD11991+0152459GD21991+0182959GD32991+0365859GE19AGL   +99999+99999GF104995999999015241999999MA1100475096465REMMET10901/01/25 02:51:02 METAR KMPV 010751Z 36003KT 10SM FEW050 FEW060 SCT120 M01/M03 A2967 RMK AO2 SLP060 T10111028EQDD01      0ADE726
0231726145947052025010108517+44205-072565FM-15+0342KMPV V0201905N00215015245MN0160935N5+00005-00225100445ADDAA101000095GA1085+015245999GD14991+0152459GE19AGL   +99999+99999GF199999999999015241999999MA1100345096335MD1890319+9999REMMET10001/01/25 03:51:02 METAR KMPV 010851Z 19004KT 10SM OVC050 00/M02 A2963 RMK AO2 SLP044 T00001022 58031
0308726145947052025010109177+44205-072565FM-16+0342KMPV V0201605N00215006105MN0064375N5+00065-00175999999ADDAA101000231AU110030015AU200001015AW1105AW2715GA1075+006105999GA2085+014335999GD13991+0061059GD24991+0143359GE19AGL   +99999+99999GF199999999999006101999999MA1100375096365MW1715REMMET12001/01/25 04:17:02 SPECI KMPV 010917Z 16004KT 4SM -SN BR BKN020 OVC047 01/M02 A2964 RMK AO2 RAB06E13SNB13 P0001 T00061017
0270726145947052025010109277+44205-072565FM-16+0342KMPV V0201405N00215005495MN0032195N5+00115-00115999999ADDAA101000531AU110030015AU200001015AW1105AW2715GA1085+005495999GD14991+0054959GE19AGL   +99999+99999GF199999999999005491999999MA1100345096335MW1715REMMET11301/01/25 04:27:02 SPECI KMPV 010927Z 14004KT 2SM -SN BR OVC018 01/M01 A2963 RMK AO2 RAB06E13SNB13 P0002 T00111011
0281726145947052025010109367+44205-072565FM-16+0342KMPV V0201305N00155003665MN0020125N5+00065-00115999999ADDAA101001531AU110030015AU200001015AW1105AW2715GA1085+003665999GD14991+0036659GE19AGL   +99999+99999GF199999999999003661999999MA1100305096295MW1715REMMET12401/01/25 04:36:02 SPECI KMPV 010936Z 13003KT 1 1/4SM -SN BR OVC012 01/M01 A2962 RMK AO2 RAB06E13SNB13 PRESFR P0006 T00061011
0276726145947052025010109427+44205-072565FM-16+0342KMPV V0209999C00005003355WN0016095N5+00065-00115999999ADDAA101002031AU110030015AU200001015AW1105AW2715GA1095+003355999GD15991+0033559GE19AGL   +99999+99999GF109991999999003351999999MA1100275096265MW1715REMMET11901/01/25 04:42:02 SPECI KMPV 010942Z 00000KT 1SM -SN BR VV011 01/M01 A2961 RMK AO2 RAB06E13SNB13 PRESFR P0008 T00061011
0276726145947052025010109517+44205-072565FM-15+0342KMPV V0209999C00005003055WN0016095N5+00065-00115100355ADDAA101002595AU110030015AU200001015AW1105AW2715GA1095+003055999GD15991+0030559GE19AGL   +99999+99999GF109991999999003051999999MA1100245096235MW1715REMMET11901/01/25 04:51:02 METAR KMPV 010951Z 00000KT 1SM -SN BR VV010 01/M01 A2960 RMK AO2 RAB06E13SNB13 SLP035 P0010 T00061011
0260726145947052025010109567+44205-072565FM-16+0342KMPV V0209999C00005002745MN0020125N5+00005-00115999999ADDAA101000021AU110030015AU200001015AW1105AW2715GA1085+002745999GD14991+0027459GE19AGL   +99999+99999GF199999999999002741999999MA1100245096235MW1715REMMET10301/01/25 04:56:02 SPECI KMPV 010956Z 00000KT 1 1/4SM -SN BR OVC009 00/M01 A2960 RMK AO2 P0000 T00001011
0294726145947052025010110067+44205-072565FM-16+0342KMPV V0209999C00005002745MN0032195N5+00005-00115999999ADDAA101000231AU110030015AU200001015AW1105AW2715GA1075+002745999GA2085+004575999GD13991+0027459GD24991+0045759GE19AGL   +99999+99999GF199999999999002741999999MA1100245096235MW1715REMMET10601/01/25 05:06:02 SPECI KMPV 011006Z 00000KT 2SM -SN BR BKN009 OVC015 00/M01 A2960 RMK AO2 P0001 T00001011
0260726145947052025010110117+44205-072565FM-16+0342KMPV V0209999C00005003965MN0020125N5+00005-00115999999ADDAA101000231AU110030015AU200001015AW1105AW2715GA1085+003965999GD14991+0039659GE19AGL   +99999+99999GF199999999999003961999999MA1100245096235MW1715REMMET10301/01/25 05:11:02 SPECI KMPV 011011Z 00000KT 1 1/4SM -SN BR OVC013 00/M01 A2960 RMK AO2 P0001 T00001011
0296726145947052025010110147+44205-072565FM-16+0342KMPV V0209999C00005004575MN0012075N5+00005-00115999999ADDAA101000231AU110030015AU200001015AW1105AW2715GA1025+002135999GA2085+004575999GD11991+0021359GD24991+0045759GE19AGL   +99999+99999GF199999999999002131999999MA1100245096235MW1715REMMET10801/01/25 05:14:02 SPECI KMPV 011014Z 00000KT 3/4SM -SN BR FEW007 OVC015 00/M01 A2960 RMK AO2 P0001 T00001011
0298726145947052025010110247+44205-072565FM-16+0342KMPV V0209999C00005004575MN0020125N5+00005-00115999999ADDAA101000531AU110030015AU200001015AW1105AW2715GA1025+002745999GA2085+004575999GD11991+0027459GD24991+0045759GE19AGL   +99999+99999GF199999999999002741999999MA1100205096205MW1715REMMET11001/01/25 05:24:02 SPECI KMPV 011024Z 00000KT 1 1/4SM -SN BR FEW009 OVC015 00/M01 A2959 RMK AO2 P0002 T00001011
0256726145947052025010110327+44205-072565FM-16+0342KMPV V0203405N00155004275MN0016095N5+00005-00115999999ADDAA101000531AU110030015AU200001015AW1105AW2715GA1085+004275999GD14991+0042759GE19AGL   +99999+99999GF199999999999004271999999MA1100205096205MW1715REMMET09901/01/25 05:32:02 SPECI KMPV 011032Z 34003KT 1SM -SN BR OVC014 00/M01 A2959 RMK AO2 P0002 T00001011
0306726145947052025010110397+44205-072565FM-16+0342KMPV V0203305N00155004275MN0012075N5+00005-00115999999ADDAA101000531AU120090015AU200001015AW1105AW2401AW3415GA1025+002445999GA2085+004275999GD11991+0024459GD24991+0042759GE19AGL   +99999+99999GF199999999999002441999999MA1100175096165REMMET11801/01/25 05:39:02 SPECI KMPV 011039Z 33003KT 3/4SM UP BR FEW008 OVC014 00/M01 A2958 RMK AO2 UPB38SNE38 P0002 T00001011
0290726145947052025010110517+44205-072565FM-15+0342KMPV V0203505N00155004575MN0008055N5+00005-00115100265ADDAA101000595AU100002015AW1305GA1045+000915999GA2085+004575999GD12991+0009159GD24991+0045759GE19AGL   +99999+99999GF199999999999000911999999MA1100145096135REMMET12501/01/25 05:51:02 METAR KMPV 011051Z 35003KT 1/2SM FG SCT003 OVC015 00/M01 A2957 RMK AO2 UPB38E44SNE38 SLP026 P0002 T00001011
0254726145947052025010111117+44205-072565FM-16+0342KMPV V0209999C00005000915MN0020125N5+00005-00115999999ADDAU100001015AW1105GA1075+000915999GA2085+005185999GD13991+0009159GD24991+0051859GE19AGL   +99999+99999GF199999999999000911999999MA1100105096105REMMET10001/01/25 06:11:02 SPECI KMPV 011111Z 00000KT 1 1/4SM BR BKN003 OVC017 00/M01 A2956 RMK AO2 T00001011
0288726145947052025010111137+44205-072565FM-16+0342KMPV V0203105N00155000915MN0032195N5+00005-00115999999ADDAU100001015AW1105GA1075+000915999GA2075+002745999GA3085+006105999GD13991+0009159GD23991+0027459GD34991+0061059GE19AGL   +99999+99999GF199999999999000911999999MA1100105096105REMMET10301/01/25 06:13:02 SPECI KMPV 011113Z 31003KT 2SM BR BKN003 BKN009 OVC020 00/M01 A2956 RMK AO2 T00001011
0338726145947052025010111217+44205-072565FM-16+0342KMPV V0203105N00155002745MN0080475N5+00005-00115999999ADDAA101000021AU110030015AU200001015AW1105AW2715GA1045+000915999GA2075+002745999GA3085+006105999GD12991+0009159GD23991+0027459GD34991+0061059GE19AGL   +99999+99999GF199999999999000911999999MA1100105096105MW1715REMMET11901/01/25 06:21:02 SPECI KMPV 011121Z 31003KT 5SM -SN BR SCT003 BKN009 OVC020 00/M01 A2956 RMK AO2 SNB19 P0000 T00001011
0446726145947052025010111517+44205-072565FM-15+0342KMPV V0209999C00005002745MN0048285N5+00065-00115100185ADDAA101000895AA206003691AA324003691AU110030015AU200001015AW1105AW2715GA1075+002745999GA2085+004575999GD13991+0027451GD24991+0045759GE19AGL   +99999+99999GF199999999999002741999999KA1060M+00111KA2060N-00171MA1100075096065MD1690279+9999MW1715REMMET16101/01/25 06:51:02 METAR KMPV 011151Z 00000KT 3SM -SN BR BKN009 OVC015 01/M01 A2955 RMK AO2 SNB19 CIG 008V013 SLP018 P0002 60014 70014 T00061011 10011 21017 56027EQDQ01  00358PRCP06Q02  00358PRCP24
0294726145947052025010112007+44205-072565FM-16+0342KMPV V0209999C00005005185MN0048285N5+00065-00115999999ADDAA101000231AU110030015AU200001015AW1105AW2715GA1045+003055999GA2085+005185999GD12991+0030559GD24991+0051859GE19AGL   +99999+99999GF199999999999003051999999MA1100035096035MW1715REMMET10601/01/25 07:00:02 SPECI KMPV 011200Z 00000KT 3SM -SN BR SCT010 OVC017 01/M01 A2954 RMK AO2 P0001 T00061011
0294726145947052025010112187+44205-072565FM-16+0342KMPV V0209999C00005005495MN0064375N5+00005-00115999999ADDAA101000231AU110030015AU200001015AW1105AW2715GA1025+002445999GA2085+005495999GD11991+0024459GD24991+0054959GE19AGL   +99999+99999GF199999999999002441999999MA1100005096005MW1715REMMET10601/01/25 07:18:02 SPECI KMPV 011218Z 00000KT 4SM -SN BR FEW008 OVC018 00/M01 A2953 RMK AO2 P0001 T00001011
0294726145947052025010112367+44205-072565FM-16+0342KMPV V0209999C00005002445MN0080475N5+00065-00115999999ADDAA101000531AU110030015AU200001015AW1105AW2715GA1075+002445999GA2085+004575999GD13991+0024459GD24991+0045759GE19AGL   +99999+99999GF199999999999002441999999MA1100005096005MW1715REMMET10601/01/25 07:36:02 SPECI KMPV 011236Z 00000KT 5SM -SN BR BKN008 OVC015 01/M01 A2953 RMK AO2 P0002 T00061011
0312726145947052025010112517+44205-072565FM-15+0342KMPV V0202405N00155002135MN0080475N5+00005-00115100125ADDAA101000395AU110020015AU200001015AW1105AW2615GA1075+002135999GA2085+004575999GD13991+0021359GD24991+0045759GE19AGL   +99999+99999GF199999999999002131999999MA1100005096005MW1615REMMET12401/01/25 07:51:02 METAR KMPV 011251Z 24003KT 5SM -RA BR BKN007 OVC015 00/M01 A2953 RMK AO2 RAB41SNE41 SLP012 P0002 T00001011
0321726145947052025010113077+44205-072565FM-16+0342KMPV V0209999C00005001525MN0032195N5+00065-00115999999ADDAA101000231AU110030015AU200001015AW1105AW2715GA1075+001525999GA2085+004275999GD13991+0015259GD24991+0042759GE19AGL   +99999+99999GF199999999999001521999999MA1099975095975MW1715REMMET13301/01/25 08:07:02 SPECI KMPV 011307Z 00000KT 2SM -SN BR BKN005 OVC014 01/M01 A2952 RMK AO2 RAE1252UPB1252E1255SNB1255 P0001 T00061011
0365726145947052025010113217+44205-072565FM-16+0342KMPV V0209999C00005003055MN0048285N5+00065-00115999999ADDAA101000531AU110020015AU200001015AW1105AW2615GA1045+001225999GA2075+003055999GA3085+004575999GD12991+0012259GD23991+0030559GD34991+0045759GE19AGL   +99999+99999GF199999999999001221999999MA1099975095975MW1615REMMET14601/01/25 08:21:02 SPECI KMPV 011321Z 00000KT 3SM -RA BR SCT004 BKN010 OVC015 01/M01 A2952 RMK AO2 RAE1252B21UPB1252E1255SNB1255E21 P0002 T00061011
0323726145947052025010113467+44205-072565FM-16+0342KMPV V0209999C00005004575MN0064375N5+00105-00105999999ADDAA101000731AU110030015AU200001015AW1105AW2715GA1025+001225999GA2085+004575999GD11991+0012259GD24991+0045759GE19AGL   +99999+99999GF199999999999001221999999MA1099975095975MW1715REMMET13501/01/25 08:46:02 SPECI KMPV 011346Z 00000KT 4SM -SN BR FEW004 OVC015 01/M01 A2952 RMK AO2 RAE1252B21E45UPB1252E1255SNB1255E21B45 P0003
0340726145947052025010113517+44205-072565FM-15+0342KMPV V0209999C00005004575MN0064375N5+00065-00115100095ADDAA101000895AU110030015AU200001015AW1105AW2715GA1025+001225999GA2085+004575999GD11991+0012259GD24991+0045759GE19AGL   +99999+99999GF199999999999001221999999MA1099975095975MW1715REMMET15201/01/25 08:51:02 METAR KMPV 011351Z 00000KT 4SM -SN BR FEW004 OVC015 01/M01 A2952 RMK AO2 RAE1252B21E45UPB1252E1255SNB1255E21B45 SLP009 P0003 T00061011
0294726145947052025010114077+44205-072565FM-16+0342KMPV V0209999C00005005495MN0032195N5+00005-00115999999ADDAA101000231AU110030015AU200001015AW1105AW2715GA1025+001835999GA2085+005495999GD11991+0018359GD24991+0054959GE19AGL   +99999+99999GF199999999999001831999999MA1099975095975MW1715REMMET10601/01/25 09:07:02 SPECI KMPV 011407Z 00000KT 2SM -SN BR FEW006 OVC018 00/M01 A2952 RMK AO2 P0001 T00001011
0319726145947052025010114517+44205-072565FM-15+0342KMPV V0209999C00005005185MN0032195N5+00065-00065100085ADDAA101001095AA203002091AU110030015AU200001015AW1105AW2715GA1085+005185999GD14991+0051859GE19AGL   +99999+99999GF199999999999005181999999MA1099975095975MD1690039+9999MW1715REMMET11801/01/25 09:51:02 METAR KMPV 011451Z 00000KT 2SM -SN BR OVC017 01/M01 A2952 RMK AO2 SLP008 P0003 60008 T00061006 56003EQDQ01  00208PRCP03
0255726145947052025010115087+44205-072565FM-16+0342KMPV V0209999C00005005795MN0064375N5+00065+00005999999ADDAA101000231AU110030015AU200001015AW1105AW2715GA1085+005795999GD14991+0057959GE19AGL   +99999+99999GF199999999999005791999999MA1099935095935MW1715REMMET09801/01/25 10:08:02 SPECI KMPV 011508Z 00000KT 4SM -SN BR OVC019 01/00 A2951 RMK AO2 P0001 T00060000
0309726145947052025010115187+44205-072565FM-16+0342KMPV V0209999C00005005795MN0040235V5+00065+00005999999ADDAA101000231AU110030015AU200001015AW1105AW2715GA1045+001225999GA2085+005795999GD12991+0012259GD24991+0057959GE19AGL   +99999+99999GF199999999999001221999999MA1099935095935MW1715REMMET12101/01/25 10:18:02 SPECI KMPV 011518Z 00000KT 2 1/2SM -SN BR SCT004 OVC019 01/00 A2951 RMK AO2 VIS 1 3/4V4 P0001 T00060000
0336726145947052025010115427+44205-072565FM-16+0342KMPV V0209999C00005003055MN0040235N5+00065-00065999999ADDAA101000531AU110030015AU200001015AW1105AW2715GA1025+001225999GA2075+003055999GA3085+003965999GD11991+0012259GD23991+0030559GD34991+0039659GE19AGL   +99999+99999GF199999999999001221999999MA1099905095905MW1715REMMET11701/01/25 10:42:02 SPECI KMPV 011542Z 00000KT 2 1/2SM -SN BR FEW004 BKN010 OVC013 01/M01 A2950 RMK AO2 P0002 T00061006
0304726145947052025010115517+44205-072565FM-15+0342KMPV V0209999C00005003055MN0040235N5+00065+00005100015ADDAA101000595AU110030015AU200001015AW1105AW2715GA1075+003055999GA2085+004275999GD13991+0030559GD24991+0042759GE19AGL   +99999+99999GF199999999999003051999999MA1099905095905MW1715REMMET11601/01/25 10:51:02 METAR KMPV 011551Z 00000KT 2 1/2SM -SN BR BKN010 OVC014 01/00 A2950 RMK AO2 SLP001 P0002 T00060000
0294726145947052025010116097+44205-072565FM-16+0342KMPV V0209999C00005005495MN0048285N5+00065-00065999999ADDAA101000231AU110030015AU200001015AW1105AW2715GA1045+003055999GA2085+005495999GD12991+0030559GD24991+0054959GE19AGL   +99999+99999GF199999999999003051999999MA1099835095845MW1715REMMET10601/01/25 11:09:02 SPECI KMPV 011609Z 00000KT 3SM -SN BR SCT010 OVC018 01/M01 A2948 RMK AO2 P0001 T00061006
0332726145947052025010116267+44205-072565FM-16+0342KMPV V0209999C00005005795MN0048285N5+00115-00065999999ADDAA101000231AU110030015AU200001015AW1105AW2715GA1025+001835999GA2045+003055999GA3085+005795999GD11991+0018359GD22991+0030559GD34991+0057959GE19AGL   +99999+99999GF199999999999001831999999MA1099835095845MW1715REMMET11301/01/25 11:26:02 SPECI KMPV 011626Z 00000KT 3SM -SN BR FEW006 SCT010 OVC019 01/M01 A2948 RMK AO2 P0001 T00111006
0310726145947052025010116367+44205-072565FM-16+0342KMPV V0209999C00005002445MN0064375N5+00115+00005999999ADDAA101000231AU100001015AW1105GA1045+001225999GA2075+002445999GA3085+005795999GD12991+0012259GD23991+0024459GD34991+0057959GE19AGL   +99999+99999GF199999999999001221999999MA1099805095805REMMET11401/01/25 11:36:02 SPECI KMPV 011636Z 00000KT 4SM BR SCT004 BKN008 OVC019 01/00 A2947 RMK AO2 SNE36 P0001 T00110000
0303726145947052025010116437+44205-072565FM-16+0342KMPV V0209999C00005001225MN0048285N5+00065-00065999999ADDAA101000231AU110030015AU200001015AW1105AW2715GA1075+001225999GA2085+004275999GD13991+0012259GD24991+0042759GE19AGL   +99999+99999GF199999999999001221999999MA1099805095805MW1715REMMET11501/01/25 11:43:02 SPECI KMPV 011643Z 00000KT 3SM -SN BR BKN004 OVC014 01/M01 A2947 RMK AO2 SNE36B39 P0001 T00061006
0310726145947052025010116517+44205-072565FM-15+0342KMPV V0209999C00005000915MN0032195N5+00115-00065099915ADDAA101000395AU110030015AU200001015AW1105AW2715GA1075+000915999GA2085+003665999GD13991+0009159GD24991+0036659GE19AGL   +99999+99999GF199999999999000911999999MA1099805095805MW1715REMMET12201/01/25 11:51:02 METAR KMPV 011651Z 00000KT 2SM -SN BR BKN003 OVC012 01/M01 A2947 RMK AO2 SNE36B39 SLP991 P0001 T00111006
0256726145947052025010117087+44205-072565FM-16+0342KMPV V0209999C00005000915MN0064375N5+00065-00065999999ADDAA101000231AU110030015AU200001015AW1105AW2715GA1085+000915999GD14991+0009159GE19AGL   +99999+99999GF199999999999000911999999MA1099765095775MW1715REMMET09901/01/25 12:08:02 SPECI KMPV 011708Z 00000KT 4SM -SN BR OVC003 01/M01 A2946 RMK AO2 P0001 T00061006
0336726145947052025010117517+44205-072565FM-15+0342KMPV V0209999C00005000915MN0048285N5+00065-00065099825ADDAA101000025AA206003091AU100001015AW1105GA1085+000915999GD14991+0009159GE19AGL   +99999+99999GF199999999999000911999999KA1060M+00111KA2060N+00001MA1099705095705MD1890259+9999REMMET13201/01/25 12:51:02 METAR KMPV 011751Z 00000KT 3SM BR OVC003 01/M01 A2944 RMK AO2 SNE31 SLP982 P0001 60012 T00061006 10011 20000 58025EQDQ01  00308PRCP06
0216726145947052025010117557+44205-072565FM-16+0342KMPV V0209999C00005000615MN0040235N5+00065-00065999999ADDAU100001015AW1105GA1085+000615999GD14991+0006159GE19AGL   +99999+99999GF199999999999000611999999MA1099705095705REMMET09301/01/25 12:55:02 SPECI KMPV 011755Z 00000KT 2 1/2SM BR OVC002 01/M01 A2944 RMK AO2 T00061006
0250726145947052025010118047+44205-072565FM-16+0342KMPV V0201105N00155001225MN0048285N5+00115-00065999999ADDAU100001015AW1105GA1075+001225999GA2085+006715999GD13991+0012259GD24991+0067159GE19AGL   +99999+99999GF199999999999001221999999MA1099665095675REMMET09601/01/25 13:04:02 SPECI KMPV 011804Z 11003KT 3SM BR BKN004 OVC022 01/M01 A2943 RMK AO2 T00111006
0250726145947052025010118127+44205-072565FM-16+0342KMPV V0209999C00005000615MN0064375N5+00115-00065999999ADDAU100001015AW1105GA1075+000615999GA2085+006715999GD13991+0006159GD24991+0067159GE19AGL   +99999+99999GF199999999999000611999999MA1099665095675REMMET09601/01/25 13:12:02 SPECI KMPV 011812Z 00000KT 4SM BR BKN002 OVC022 01/M01 A2943 RMK AO2 T00111006
0269726145947052025010118317+44205-072565FM-16+0342KMPV V0201305N00215006715MN0160935N5+00115-00065999999ADDGA1045+000615999GA2045+003355999GA3085+006715999GD12991+0006159GD22991+0033559GD34991+0067159GE19AGL   +99999+99999GF199999999999000611999999MA1099635095645REMMET10101/01/25 13:31:02 SPECI KMPV 011831Z 13004KT 10SM SCT002 SCT011 OVC022 01/M01 A2942 RMK AO2 T00111006
0301726145947052025010118517+44205-072565FM-15+0342KMPV V0209999C00005006715MN0160935N5+00115+00005099765ADDAA101000025GA1045+002445999GA2075+006715999GA3085+015245999GD12991+0024459GD23991+0067159GD34991+0152459GE19AGL   +99999+99999GF199999999999002441999999MA1099635095645REMMET12201/01/25 13:51:02 METAR KMPV 011851Z 00000KT 10SM SCT008 BKN022 OVC050 01/00 A2942 RMK AO2 RAB32E42 SLP976 P0000 T00110000
0251726145947052025010119367+44205-072565FM-16+0342KMPV V0203305N00155007325MN0012075N5+00115+00005999999ADDAU100001015AW1105GA1075+007325999GA2085+010675999GD13991+0073259GD24991+0106759GE19AGL   +99999+99999GF199999999999007321999999MA1099635095645REMMET09701/01/25 14:36:02 SPECI KMPV 011936Z 33003KT 3/4SM BR BKN024 OVC035 01/00 A2942 RMK AO2 T00110000
0251726145947052025010119447+44205-072565FM-16+0342KMPV V0209999C00005006405MN0004025N5+00115+00005999999ADDAU100002015AW1305GA1075+006405999GA2085+008235999GD13991+0064059GD24991+0082359GE19AGL   +99999+99999GF199999999999006401999999MA1099635095645REMMET09701/01/25 14:44:02 SPECI KMPV 011944Z 00000KT 1/4SM FG BKN021 OVC027 01/00 A2942 RMK AO2 T00110000
0269726145947052025010119517+44205-072565FM-15+0342KMPV V0203605N00155006405MN0004025N5+00115+00005099765ADDAA101000095AU100002015AW1305GA1075+006405999GA2085+008845999GD13991+0064059GD24991+0088459GE19AGL   +99999+99999GF199999999999006401999999MA1099635095645REMMET10401/01/25 14:51:02 METAR KMPV 011951Z 36003KT 1/4SM FG BKN021 OVC029 01/00 A2942 RMK AO2 SLP976 T00110000
0289726145947052025010120027+44205-072565FM-16+0342KMPV V0203505N00155003665MN0004025N5+00115+00005999999ADDAU100002015AW1305GA1025+000615999GA2075+003665999GA3085+006405999GD11991+0006159GD23991+0036659GD34991+0064059GE19AGL   +99999+99999GF199999999999000611999999MA1099635095645REMMET10401/01/25 15:02:02 SPECI KMPV 012002Z 35003KT 1/4SM FG FEW002 BKN012 OVC021 01/00 A2942 RMK AO2 T00110000
0289726145947052025010120117+44205-072565FM-16+0342KMPV V0209999C00005002445MN0008055N5+00115+00005999999ADDAU100002015AW1305GA1025+000615999GA2075+002445999GA3085+006405999GD11991+0006159GD23991+0024459GD34991+0064059GE19AGL   +99999+99999GF199999999999000611999999MA1099665095675REMMET10401/01/25 15:11:02 SPECI KMPV 012011Z 00000KT 1/2SM FG FEW002 BKN008 OVC021 01/00 A2943 RMK AO2 T00110000
0287726145947052025010120247+44205-072565FM-16+0342KMPV V0209999C00005003965MN0016095N5+00115+00005999999ADDAU100001015AW1105GA1045+001835999GA2075+003965999GA3085+006105999GD12991+0018359GD23991+0039659GD34991+0061059GE19AGL   +99999+99999GF199999999999001831999999MA1099665095675REMMET10201/01/25 15:24:02 SPECI KMPV 012024Z 00000KT 1SM BR SCT006 BKN013 OVC020 01/00 A2943 RMK AO2 T00110000
0291726145947052025010120277+44205-072565FM-16+0342KMPV V0209999C00005003965MN0024145N5+00115+00005999999ADDAU100001015AW1105GA1045+001835999GA2075+003965999GA3085+006105999GD12991+0018359GD23991+0039659GD34991+0061059GE19AGL   +99999+99999GF199999999999001831999999MA1099665095675REMMET10601/01/25 15:27:02 SPECI KMPV 012027Z 00000KT 1 1/2SM BR SCT006 BKN013 OVC020 01/00 A2943 RMK AO2 T00110000
0291726145947052025010120307+44205-072565FM-16+0342KMPV V0209999C00005006105MN0020125N5+00115+00005999999ADDAU100001015AW1105GA1045+001835999GA2045+003965999GA3085+006105999GD12991+0018359GD22991+0039659GD34991+0061059GE19AGL   +99999+99999GF199999999999001831999999MA1099665095675REMMET10601/01/25 15:30:02 SPECI KMPV 012030Z 00000KT 1 1/4SM BR SCT006 SCT013 OVC020 01/00 A2943 RMK AO2 T00110000
0251726145947052025010120337+44205-072565FM-16+0342KMPV V0209999C00005004885MN0012075N5+00115+00005999999ADDAU100001015AW1105GA1025+001835999GA2085+004885999GD11991+0018359GD24991+0048859GE19AGL   +99999+99999GF199999999999001831999999MA1099665095675REMMET09701/01/25 15:33:02 SPECI KMPV 012033Z 00000KT 3/4SM BR FEW006 OVC016 01/00 A2943 RMK AO2 T00110000
0345726145947052025010120517+44205-072565FM-15+0342KMPV V0209999C00005003965MN0012075N5+00115-00065099765ADDAA101000095AA203000021AU100001015AW1105GA1025+000615999GA2075+003965999GA3085+005495999GD11991+0006159GD23991+0039659GD34991+0054959GE19AGL   +99999+99999GF199999999999000611999999MA1099665095675MD1590049+9999REMMET12401/01/25 15:51:02 METAR KMPV 012051Z 00000KT 3/4SM BR FEW002 BKN013 OVC018 01/M01 A2943 RMK AO2 SLP976 60000 T00111006 55004
0252726145947052025010120587+44205-072565FM-16+0342KMPV V0209999C00005004575MN0008055N5+00115-00065999999ADDAU100002015AW1305GA1045+000615999GA2085+004575999GD12991+0006159GD24991+0045759GE19AGL   +99999+99999GF199999999999000611999999MA1099665095675REMMET09801/01/25 15:58:02 SPECI KMPV 012058Z 00000KT 1/2SM FG SCT002 OVC015 01/M01 A2943 RMK AO2 T00111006
0252726145947052025010121057+44205-072565FM-16+0342KMPV V0209999C00005000615MN0004025N5+00115-00065999999ADDAU100002015AW1305GA1075+000615999GA2085+003965999GD13991+0006159GD24991+0039659GE19AGL   +99999+99999GF199999999999000611999999MA1099635095645REMMET09801/01/25 16:05:02 SPECI KMPV 012105Z 00000KT 1/4SM FG BKN002 OVC013 01/M01 A2942 RMK AO2 T00111006
0252726145947052025010121147+44205-072565FM-16+0342KMPV V0209999C00005003355MN0008055N5+00115-00065999999ADDAU100002015AW1305GA1045+000615999GA2085+003355999GD12991+0006159GD24991+0033559GE19AGL   +99999+99999GF199999999999000611999999MA1099665095675REMMET09801/01/25 16:14:02 SPECI KMPV 012114Z 00000KT 1/2SM FG SCT002 OVC011 01/M01 A2943 RMK AO2 T00111006
0216726145947052025010121337+44205-072565FM-16+0342KMPV V0209999N99999003355MN0020125N5+00115-00065999999ADDAU100001015AW1105GA1085+003355999GD14991+0033559GE19AGL   +99999+99999GF199999999999003351999999MA1099665095675REMMET09301/01/25 16:33:02 SPECI KMPV 012133Z      KT 1 1/4SM BR OVC011 01/M01 A2943 RMK AO2 T00111006
0212726145947052025010121367+44205-072565FM-16+0342KMPV V0209999C00005003355MN0032195N5+00115-00065999999ADDAU100001015AW1105GA1085+003355999GD14991+0033559GE19AGL   +99999+99999GF199999999999003351999999MA1099665095675REMMET08901/01/25 16:36:02 SPECI KMPV 012136Z 00000KT 2SM BR OVC011 01/M01 A2943 RMK AO2 T00111006
0240726145947052025010121477+44205-072565FM-16+0342KMPV V0202005N00155003965MN0048285N5+00105-00105999999ADDAU100001015AW1105GA1075+003965999GA2085+013115999GD13991+0039659GD24991+0131159GE19AGL   +99999+99999GF199999999999003961999999MA1099665095675REMMET08601/01/25 16:47:02 SPECI KMPV 012147Z 20003KT 3SM BR BKN013 OVC043 01/M01 A2943 RMK AO2
0306726145947052025010121517+44205-072565FM-15+0342KMPV V0202005N00155007625MN0064375N5+00115-00065099795ADDAA101000095AU100001015AW1105GA1045+003965999GA2075+007625999GA3085+013115999GD12991+0039659GD23991+0076259GD34991+0131159GE19AGL   +99999+99999GF199999999999003961999999MA1099665095675REMMET11001/01/25 16:51:02 METAR KMPV 012151Z 20003KT 4SM BR SCT013 BKN025 OVC043 01/M01 A2943 RMK AO2 SLP979 T00111006
0302726145947052025010122107+44205-072565FM-16+0342KMPV V0200705N00265007925MN0024145V5+00115-00065999999ADDAU100001015AW1105GA1075+007925999GA2075+010065999GA3085+013115999GD13991+0079259GD23991+0100659GD34991+0131159GE19AGL   +99999+99999GF199999999999007921999999MA1099665095675REMMET11701/01/25 17:10:02 SPECI KMPV 012210Z 07005KT 1 1/2SM BR BKN026 BKN033 OVC043 01/M01 A2943 RMK AO2 VIS 3/4V5 T00111006
0298726145947052025010122167+44205-072565FM-16+0342KMPV V0200705N00155007015MN0016095V5+00115-00065999999ADDAU100001015AW1105GA1075+007015999GA2075+008535999GA3085+010365999GD13991+0070159GD23991+0085359GD34991+0103659GE19AGL   +99999+99999GF199999999999007011999999MA1099665095675REMMET11301/01/25 17:16:02 SPECI KMPV 012216Z 07003KT 1SM BR BKN023 BKN028 OVC034 01/M01 A2943 RMK AO2 VIS 3/4V3 T00111006
0264726145947052025010122217+44205-072565FM-16+0342KMPV V0209999C00005007325MN0024145V5+00115-00065999999ADDAU100001015AW1105GA1075+007325999GA2085+009455999GD13991+0073259GD24991+0094559GE19AGL   +99999+99999GF199999999999007321999999MA1099665095675REMMET11001/01/25 17:21:02 SPECI KMPV 012221Z 00000KT 1 1/2SM BR BKN024 OVC031 01/M01 A2943 RMK AO2 VIS 3/4V5 T00111006
0212726145947052025010122267+44205-072565FM-16+0342KMPV V0209999C00005007925MN0048285N5+00115-00065999999ADDAU100001015AW1105GA1085+007925999GD14991+0079259GE19AGL   +99999+99999GF199999999999007921999999MA1099705095705REMMET08901/01/25 17:26:02 SPECI KMPV 012226Z 00000KT 3SM BR OVC026 01/M01 A2944 RMK AO2 T00111006
0268726145947052025010122517+44205-072565FM-15+0342KMPV V0203105N00265007325MN0096565N5+00115+00005099795ADDAA101000025AU110020015AU200001015AW1105AW2615GA1085+007325999GD14991+0073259GE19AGL   +99999+99999GF199999999999007321999999MA1099665095675MW1615REMMET11101/01/25 17:51:02 METAR KMPV 012251Z 31005KT 6SM -RA BR OVC024 01/00 A2943 RMK AO2 RAB51 SLP979 P0000 T00110000
0445726145947052025010123517+44205-072565FM-15+0342KMPV V0203205N00215005185MN0160935N5+00115+00005099795ADDAA101000395AA206000391AU110020015AW1615GA1075+005185999GA2075+007325999GA3085+012805999GD13991+0051859GD23991+0073259GD34991+0128059GE19AGL   +99999+99999GF199999999999005181999999KA1060M+00171KA2060N+00061MA1099665095675MD1390009+9999MW1615REMMET14101/01/25 18:51:02 METAR KMPV 012351Z 32004KT 10SM -RA BKN017 BKN024 OVC042 01/00 A2943 RMK AO2 SLP979 P0001 60001 T00110000 10017 20006 53000EQDQ010     3APC3  Q023     3APCTENQ03  00028PRCP06
0312726145947052025010200057+44205-072565FM-16+0342KMPV V0203205N00215004575MN0160935N5+00115+00005999999ADDAA101000021AU110020015AW1615GA1025+001525999GA2075+004575999GA3085+010975999GD11991+0015259GD23991+0045759GD34991+0109759GE19AGL   +99999+99999GF199999999999001521999999MA1099705095705MW1615REMMET11001/01/25 19:05:01 SPECI KMPV 020005Z 32004KT 10SM -RA FEW005 BKN015 OVC036 01/00 A2944 RMK AO2 P0000 T00110000
0323726145947052025010200227+44205-072565FM-16+0342KMPV V0203405N00215002745MN0112655N5+00115+00005999999ADDAA101000231AU110020015AW1615GA1045+000915999GA2075+002745999GA3085+004575999GD12991+0009151GD23991+0027459GD34991+0045759GE19AGL   +99999+99999GF199999999999000911999999MA1099705095705MW1615REMMET12101/01/25 19:22:01 SPECI KMPV 020022Z 34004KT 7SM -RA SCT003 BKN009 OVC015 01/00 A2944 RMK AO2 CIG 007V011 P0001 T00110000
0311726145947052025010200347+44205-072565FM-16+0342KMPV V0203005N00365004575MN0144845N5+00175+00005999999ADDAA101000231AU110020015AW1615GA1025+001225999GA2075+004575999GA3085+007925999GD11991+0012259GD23991+0045759GD34991+0079259GE19AGL   +99999+99999GF199999999999001221999999MA1099705095705MW1615REMMET10901/01/25 19:34:01 SPECI KMPV 020034Z 30007KT 9SM -RA FEW004 BKN015 OVC026 02/00 A2944 RMK AO2 P0001 T00170000
0310726145947052025010200517+44205-072565FM-15+0342KMPV V0202905N00465007015MN0160935N5+00175-00065099835ADDAA101000395GA1025+003965999GA2075+007015999GA3085+012805999GD11991+0039659GD23991+0070159GD34991+0128059GE19AGL   +99999+99999GF199999999999003961999999MA1099705095705OC100985REMMET12301/01/25 19:51:01 METAR KMPV 020051Z 29009G19KT 10SM FEW013 BKN023 OVC042 02/M01 A2944 RMK AO2 RAE40 SLP983 P0001 T00171006
0280726145947052025010201027+44205-072565FM-16+0342KMPV V0202905N00465013415MN0160935N5+00175-00115999999ADDGA1025+007325999GA2045+008845999GA3085+013415999GD11991+0073259GD22991+0088459GD34991+0134159GE19AGL   +99999+99999GF199999999999007321999999MA1099705095705OC100985REMMET10401/01/25 20:02:01 SPECI KMPV 020102Z 29009G19KT 10SM FEW024 SCT029 OVC044 02/M01 A2944 RMK AO2 T00171011
0249726145947052025010201517+44205-072565FM-15+0342KMPV V0203005N00465013115MN0160935N5+00115-00175099845ADDAA101000095GA1045+010065999GA2085+013115999GD12991+0100659GD24991+0131159GE19AGL   +99999+99999GF199999999999010061999999MA1099735095745REMMET10101/01/25 20:51:01 METAR KMPV 020151Z 30009KT 10SM SCT033 OVC043 01/M02 A2945 RMK AO2 SLP984 T00111017
0357726145947052025010202517+44205-072565FM-15+0342KMPV V0202905N00465010065MN0144845N5+00065-00175099845ADDAA101000025AA203000391GA1025+004885999GA2045+006405999GA3085+010065999GD11991+0048859GD22991+0064059GD34991+0100659GE19AGL   +99999+99999GF199999999999004881999999MA1099735095745MD1190059+9999REMMET13401/01/25 21:51:01 METAR KMPV 020251Z 29009KT 9SM FEW016 SCT021 OVC033 01/M02 A2945 RMK AO2 SNB03E49 SLP984 P0000 60001 T00061017 51005EQDQ01  00028PRCP03
0287726145947052025010203517+44205-072565FM-15+0342KMPV V0202805N00215010675MN0160935N5+00065-00175099835ADDAA101000025GA1025+005495999GA2045+008535999GA3085+010675999GD11991+0054959GD22991+0085359GD34991+0106759GE19AGL   +99999+99999GF199999999999005491999999MA1099705095705REMMET10801/01/25 22:51:02 METAR KMPV 020351Z 28004KT 10SM FEW018 SCT028 OVC035 01/M02 A2944 RMK AO2 SLP983 T00061017
0356726145947052025010204517+44205-072565FM-15+0342KMPV V0203005N00465010675MN0144845N5+00065-00285099815ADDAA101000025GA1025+005795999GA2075+010675999GA3085+014025999GD11991+0057959GD23991+0106759GD34991+0140259GE19AGL   +99999+99999GF199999999999005791999999KA1240M+00171KA2240N-00281MA1099705095705OC101085REMMET14301/01/25 23:51:02 METAR KMPV 020451Z 30009G21KT 9SM FEW019 BKN035 OVC046 01/M03 A2944 RMK AO2 SNB0359E09B37E46 SLP981 P0000 T00061028 400171028
0988726145947052025010204596+44205-072565SOD  +0342KMPV V020999999999999999999999999999+99999+99999999999ADDAA124007195AT1AU16RA  5AT2AU18SN  5AT3AU01FG  5AT4AU13BR  5AT5AU19UP  5AX1026246KA1240M+00175KA2240N-00275MG1095894099764OE11240107330023475OE22240067130023475OE33240014899999995REMSOD74724 HR PRECIPITATION (IN): 0.28 WEATHER(CODE):2  24 HR MAX TEMP (F):35 24 HR MAX TEMP TIME (LST):2002 24 HR MIN TEMP (F):27 24 HR MIN TEMP TIME (LST):0016 AVERAGE STATION PRESSURE(D):28.317 MINIMUM SEA LEVEL PRESSURE:29.46 TIME OF OCCURRENCE:1636 PEAK WIND SPEED (MPH):24  PEAK WIND DIR (DEG):300 PEAK WIND TIME (LST):2347  FASTEST 2MIN SPEED (MPH):15 FASTEST 2MIN DIR (DEG):300 FASTEST 2MIN TIME (LST):2347 AVERAGE WIND SPEED (MPH): 3.3 24 HR AVG TEMP (F):31 HEATING DEGREE DAYS: 34 COOLING DEGREE DAYS:  0 LATEST DAY MAX TEMP (0700-1900 LST): 35 LATEST NIGHT MIN TEMP(1900-0800 LST):27 HOURLY INCREMENTAL PRECIPITATION VALUES (IN):0.00 0.00 0.00 0.00 0.10 0.02 0.03 0.01 0.03 0.04 0.02 0.01T    T     0.00 0.00 0.00T     0.01 0.01 0.00T    T    TEQDR01     27AXW093R02     N7GJS072R03     N7GKS075
0446726145947052025010205517+44205-072565FM-15+0342KMPV V0202905N00675009145MN0080475N5+00005-00285099835ADDAA101000025AA206000391AU110030015AW1715GA1025+005795999GA2075+009145999GA3085+013115999GD11991+0057959GD23991+0091459GD34991+0131159GE19AGL   +99999+99999GF199999999999005791999999KA1060M+00171KA2060N+00001MA1099705095705MD1590019+9999MW1715OC100985REMMET16601/02/25 00:51:02 METAR KMPV 020551Z 29013G19KT 5SM -SN FEW019 BKN030 OVC043 00/M03 A2944 RMK AO2 UPB11E13SNB0455E05B13 SLP983 P0000 60001 T00001028 10017 20000 55001EQDQ01  00028PRCP06
0346726145947052025010206497+44205-072565FM-16+0342KMPV V0209999V00265008845MN0064375N5-00105-00305999999ADDAA101000021AU110030015AW1715GA1025+005495999GA2045+007325999GA3085+008845999GD11991+0054959GD22991+0073259GD34991+0088459GE19AGL   +99999+99999GF199999999999005491999999MA1099765095775MW1715OC100825OD149901331270REMMET12201/02/25 01:49:02 SPECI KMPV 020649Z VRB05G16KT 4SM -SN FEW018 SCT024 OVC029 M01/M03 A2946 RMK AO2 PK WND 27026/0555 P0000
0363726145947052025010206517+44205-072565FM-15+0342KMPV V0202805N00315008845MN0064375N5-00065-00335099895ADDAA101000025AU110030015AW1715GA1025+005495999GA2045+007325999GA3085+008845999GD11991+0054959GD22991+0073259GD34991+0088459GE19AGL   +99999+99999GF199999999999005491999999MA1099765095775MW1715OC100825OD149901331270REMMET13901/02/25 01:51:02 METAR KMPV 020651Z 28006G16KT 4SM -SN FEW018 SCT024 OVC029 M01/M03 A2946 RMK AO2 PK WND 27026/0555 SLP989 P0000 T10061033
0324726145947052025010207007+44205-072565FM-16+0342KMPV V0202905N00515009145MN0064375N5-00065-00335999999ADDAA101000021AU110030015AW1715GA1025+005185999GA2045+007015999GA3085+009145999GD11991+0051859GD22991+0070159GD34991+0091459GE19AGL   +99999+99999GF199999999999005181999999MA1099805095805MW1715OC101085REMMET11401/02/25 02:00:02 SPECI KMPV 020700Z 29010G21KT 4SM -SN FEW017 SCT023 OVC030 M01/M03 A2947 RMK AO2 P0000 T10061033
0324726145947052025010207097+44205-072565FM-16+0342KMPV V0202905V00575008535MN0048285N5-00065-00335999999ADDAA101000021AU110030015AW1715GA1025+005185999GA2025+007015999GA3085+008535999GD11991+0051859GD21991+0070159GD34991+0085359GE19AGL   +99999+99999GF199999999999005181999999MA1099805095805MW1715OC101035REMMET11401/02/25 02:09:02 SPECI KMPV 020709Z 29011G20KT 3SM -SN FEW017 FEW023 OVC028 M01/M03 A2947 RMK AO2 P0000 T10061033
0310726145947052025010207357+44205-072565FM-16+0342KMPV V0202905N00415007325MN0040235N5-00115-00335999999ADDAA101000021AU110030015AU200001015AW1105AW2715GA1025+005185999GA2085+007325999GD11991+0051859GD24991+0073259GE19AGL   +99999+99999GF199999999999005181999999MA1099835095845MW1715OC101085REMMET11401/02/25 02:35:02 SPECI KMPV 020735Z 29008G21KT 2 1/2SM -SN BR FEW017 OVC024 M01/M03 A2948 RMK AO2 P0000 T10111033
0262726145947052025010207497+44205-072565FM-16+0342KMPV V0202905N00575006105MN0028165N5-00105-00305999999ADDAA101000021AU110030015AU200001015AW1105AW2715GA1085+006105999GD14991+0061059GE19AGL   +99999+99999GF199999999999006101999999MA1099835095845MW1715OC101185REMMET09701/02/25 02:49:02 SPECI KMPV 020749Z 29011G23KT 1 3/4SM -SN BR OVC020 M01/M03 A2948 RMK AO2 P0000
0279726145947052025010207517+44205-072565FM-15+0342KMPV V0203005N00625005495MN0024145N5-00115-00335099965ADDAA101000025AU110030015AU200001015AW1105AW2715GA1085+005495999GD14991+0054959GE19AGL   +99999+99999GF199999999999005491999999MA1099835095845MW1715OC101185REMMET11401/02/25 02:51:02 METAR KMPV 020751Z 30012G23KT 1 1/2SM -SN BR OVC018 M01/M03 A2948 RMK AO2 SLP996 P0000 T10111033
0272726145947052025010208037+44205-072565FM-16+0342KMPV V0202905N00575004885MN0020125N5-00115-00335999999ADDAA101000021AU110030015AU200001015AW1105AW2715GA1085+004885999GD14991+0048859GE19AGL   +99999+99999GF199999999999004881999999MA1099835095845MW1715OC101085REMMET10701/02/25 03:03:02 SPECI KMPV 020803Z 29011G21KT 1 1/4SM -SN BR OVC016 M01/M03 A2948 RMK AO2 P0000 T10111033
0267726145947052025010208347+44205-072565FM-16+0342KMPV V0202905N00465003965WN0016095N5-00175-00335999999ADDAA101000021AU110030015AU200001015AW1105AW2715GA1095+003965999GD15991+0039659GE19AGL   +99999+99999GF109991999999003961999999MA1099865095875MW1715OC101035REMMET10201/02/25 03:34:02 SPECI KMPV 020834Z 29009G20KT 1SM -SN BR VV013 M02/M03 A2949 RMK AO2 P0000 T10171033
0319726145947052025010208517+44205-072565FM-15+0342KMPV V0203005N00465003665WN0016095N5-00175-00335100015ADDAA101000025AA203000021AU110030015AU200001015AW1105AW2715GA1095+003665999GD15991+0036659GE19AGL   +99999+99999GF109991999999003661999999MA1099905095905MD1190119+9999MW1715REMMET11801/02/25 03:51:02 METAR KMPV 020851Z 30009KT 1SM -SN BR VV012 M02/M03 A2950 RMK AO2 SLP001 P0000 60000 T10171033 51011EQDQ01  00008PRCP03
0272726145947052025010209057+44205-072565FM-16+0342KMPV V0203005N00675003355MN0020125N5-00175-00395999999ADDAA101000021AU110030015AU200001015AW1105AW2715GA1085+003355999GD14991+0033559GE19AGL   +99999+99999GF199999999999003351999999MA1099905095905MW1715OC101295REMMET10701/02/25 04:05:02 SPECI KMPV 020905Z 30013G25KT 1 1/4SM -SN BR OVC011 M02/M04 A2950 RMK AO2 P0000 T10171039
0304726145947052025010209167+44205-072565FM-16+0342KMPV V0203005N00675003965MN0024145N5-00175-00395999999ADDAA101000021AU110030015AU200001015AW1105AW2715GA1085+003965999GD14991+0039659GE19AGL   +99999+99999GF199999999999003961999999MA1099905095905MW1715OC101705OD149901691270REMMET12501/02/25 04:16:02 SPECI KMPV 020916Z 30013G33KT 1 1/2SM -SN BR OVC013 M02/M04 A2950 RMK AO2 PK WND 27033/0912 P0000 T10171039
0304726145947052025010209247+44205-072565FM-16+0342KMPV V0202905N00625004275MN0020125N5-00175-00395999999ADDAA101000021AU110030015AU200001015AW1105AW2715GA1085+004275999GD14991+0042759GE19AGL   +99999+99999GF199999999999004271999999MA1099935095935MW1715OC101035OD149901691270REMMET12501/02/25 04:24:02 SPECI KMPV 020924Z 29012G20KT 1 1/4SM -SN BR OVC014 M02/M04 A2951 RMK AO2 PK WND 27033/0912 P0000 T10171039
0299726145947052025010209377+44205-072565FM-16+0342KMPV V0203005N00575003665WN0016095N5-00225-00395999999ADDAA101000021AU110030015AU200001015AW1105AW2715GA1095+003665999GD15991+0036659GE19AGL   +99999+99999GF109991999999003661999999MA1099935095935MW1715OC100935OD149901691270REMMET12001/02/25 04:37:02 SPECI KMPV 020937Z 30011G18KT 1SM -SN BR VV012 M02/M04 A2951 RMK AO2 PK WND 27033/0912 P0000 T10221039
0311726145947052025010209517+44205-072565FM-15+0342KMPV V0203005N00725003665MN0020125N5-00225-00445100065ADDAA101000395AU110030015AU200001015AW1105AW2715GA1085+003665999GD14991+0036659GE19AGL   +99999+99999GF199999999999003661999999MA1099935095935MW1715OC101295OD149901691270REMMET13201/02/25 04:51:02 METAR KMPV 020951Z 30014G25KT 1 1/4SM -SN BR OVC012 M02/M04 A2951 RMK AO2 PK WND 27033/0912 SLP006 P0001 T10221044
0299726145947052025010210207+44205-072565FM-16+0342KMPV V0203005N00725003665WN0016095N5-00225-00445999999ADDAA101000021AU110030015AU200001015AW1105AW2715GA1095+003665999GD15991+0036659GE19AGL   +99999+99999GF109991999999003661999999MA1099975095975MW1715OC101345OD149901331300REMMET12001/02/25 05:20:02 SPECI KMPV 021020Z 30014G26KT 1SM -SN BR VV012 M02/M04 A2952 RMK AO2 PK WND 30026/0959 P0000 T10221044
0286726145947052025010210517+44205-072565FM-15+0342KMPV V0202905N00935003055WN0016095N5-00225-00505100135ADDAA101000025AU110030015AW1715GA1095+003055999GD15991+0030559GE19AGL   +99999+99999GF109991999999003051999999MA1100005096005MW1715OC101395OD149901591300REMMET12401/02/25 05:51:02 METAR KMPV 021051Z 29018G27KT 1SM -SN VV010 M02/M05 A2953 RMK AO2 PK WND 30031/1026 SLP013 P0000 T10221050
0269726145947052025010211087+44205-072565FM-16+0342KMPV V0202905N00725002745WN0012075N5-00285-00505999999ADDAA101000021AU110030015AU200001015AW1105AW2715GA1095+002745999GD15991+0027459GE19AGL   +99999+99999GF109991999999002741999999MA1100035096035MW1715OC101295REMMET10401/02/25 06:08:02 SPECI KMPV 021108Z 29014G25KT 3/4SM -SN BR VV009 M03/M05 A2954 RMK AO2 P0000 T10281050
0267726145947052025010211387+44205-072565FM-16+0342KMPV V0202705N00575002745WN0016095N5-00285-00505999999ADDAA101000021AU110030015AU200001015AW1105AW2715GA1095+002745999GD15991+0027459GE19AGL   +99999+99999GF109991999999002741999999MA1100075096065MW1715OC101135REMMET10201/02/25 06:38:02 SPECI KMPV 021138Z 27011G22KT 1SM -SN BR VV009 M03/M05 A2955 RMK AO2 P0000 T10281050
0257726145947052025010211487+44205-072565FM-16+0342KMPV V0202905N00575003055WN0016095N5-00305-00505999999ADDAA101000021AU110030015AU200001015AW1105AW2715GA1095+003055999GD15991+0030559GE19AGL   +99999+99999GF109991999999003051999999MA1100075096065MW1715OC101085REMMET09201/02/25 06:48:02 SPECI KMPV 021148Z 29011G21KT 1SM -SN BR VV010 M03/M05 A2955 RMK AO2 P0000
0401726145947052025010211517+44205-072565FM-15+0342KMPV V0203005N00625003355WN0016095N5-00285-00505100205ADDAA101000025AA206000391AA324003891AU110030015AU200001015AW1105AW2715GA1095+003355999GD15991+0033559GE19AGL   +99999+99999GF109991999999003351999999KA1060M+00001KA2060N-00281MA1100075096065MD1090139+9999MW1715OC101035REMMET13901/02/25 06:51:02 METAR KMPV 021151Z 30012G20KT 1SM -SN BR VV011 M03/M05 A2955 RMK AO2 SLP020 P0000 60001 70015 T10281050 10000 21028 50013EQDQ01  00028PRCP06Q02  00388PRCP24
0272726145947052025010212007+44205-072565FM-16+0342KMPV V0203005N00625003355MN0020125N5-00285-00505999999ADDAA101000021AU110030015AU200001015AW1105AW2715GA1085+003355999GD14991+0033559GE19AGL   +99999+99999GF199999999999003351999999MA1100075096065MW1715OC101295REMMET10701/02/25 07:00:02 SPECI KMPV 021200Z 30012G25KT 1 1/4SM -SN BR OVC011 M03/M05 A2955 RMK AO2 P0000 T10281050
0252726145947052025010212257+44205-072565FM-16+0342KMPV V0202905N00575004885MN0024145N5-00285-00565999999ADDAA101000021AU110030015AW1715GA1085+004885999GD14991+0048859GE19AGL   +99999+99999GF199999999999004881999999MA1100105096105MW1715OC101135REMMET10401/02/25 07:25:02 SPECI KMPV 021225Z 29011G22KT 1 1/2SM -SN OVC016 M03/M06 A2956 RMK AO2 P0000 T10281056
0247726145947052025010212337+44205-072565FM-16+0342KMPV V0202805N00675004885WN0016095N5-00285-00565999999ADDAA101000021AU110030015AW1715GA1095+004885999GD15991+0048859GE19AGL   +99999+99999GF109991999999004881999999MA1100105096105MW1715OC101085REMMET09901/02/25 07:33:02 SPECI KMPV 021233Z 28013G21KT 1SM -SN VV016 M03/M06 A2956 RMK AO2 P0000 T10281056
0249726145947052025010212407+44205-072565FM-16+0342KMPV V0203005N00885004275WN0012075N5-00285-00565999999ADDAA101000021AU110030015AW1715GA1095+004275999GD15991+0042759GE19AGL   +99999+99999GF109991999999004271999999MA1100105096105MW1715OC101135REMMET10101/02/25 07:40:02 SPECI KMPV 021240Z 30017G22KT 3/4SM -SN VV014 M03/M06 A2956 RMK AO2 P0000 T10281056
0322726145947052025010212517+44205-072565FM-15+0342KMPV V0203005N00515003965WN0008056N5-00285-00565100275ADDAA101000395AU120030016AW1726GA1095+003965999GD15991+0039659GE19AGL   +99999+99999GF109991999999003961999999MA1100145096135MW1736OC100935REMMET10701/02/25 07:51:02 METAR KMPV 021251Z 30010G18KT 1/2SM SN VV013 M03/M06 A2957 RMK AO2 SLP027 P0000 T10281056EQDR01 1/2SM7VIS018R02    SN7AWW018R03SEERMK7MVW018R04    SN7MWW018
0254726145947052025010213517+44205-072565FM-15+0342KMPV V0202905N00725004885WN0016095N5-00285-00565100345ADDAA101000025AU110030015AW1715GA1095+004885999GD15991+0048859GE19AGL   +99999+99999GF109991999999004881999999MA1100205096205MW1715OC101135REMMET10601/02/25 08:51:02 METAR KMPV 021351Z 29014G22KT 1SM -SN VV016 M03/M06 A2959 RMK AO2 SLP034 P0001 T10281056
0252726145947052025010214017+44205-072565FM-16+0342KMPV V0202905N00675005185MN0020125N5-00285-00615999999ADDAA101000021AU110030015AW1715GA1085+005185999GD14991+0051859GE19AGL   +99999+99999GF199999999999005181999999MA1100205096205MW1715OC101295REMMET10401/02/25 09:01:02 SPECI KMPV 021401Z 29013G25KT 1 1/4SM -SN OVC017 M03/M06 A2959 RMK AO2 P0000 T10281061
0322726145947052025010214287+44205-072565FM-16+0342KMPV V0202905N00985006105MN0024145N5-00285-00615999999ADDAA101000021AU110030015AW1715GA1075+006105999GA2085+009455999GD13991+0061059GD24991+0094559GE19AGL   +99999+99999GF199999999999006101999999MA1100245096235MW1715OC101495OD149901491300REMMET12901/02/25 09:28:02 SPECI KMPV 021428Z 29019G29KT 1 1/2SM -SN BKN020 OVC031 M03/M06 A2960 RMK AO2 PK WND 30029/1428 P0000 T10281061
0322726145947052025010214357+44205-072565FM-16+0342KMPV V0203005N00885006405MN0020125N5-00225-00615999999ADDAA101000021AU110030015AW1715GA1075+006405999GA2085+008845999GD13991+0064059GD24991+0088459GE19AGL   +99999+99999GF199999999999006401999999MA1100245096235MW1715OC101495OD149901491300REMMET12901/02/25 09:35:02 SPECI KMPV 021435Z 30017G29KT 1 1/4SM -SN BKN021 OVC029 M02/M06 A2960 RMK AO2 PK WND 30029/1428 P0000 T10221061
0312726145947052025010214467+44205-072565FM-16+0342KMPV V0203005N00725006405MN0024145N5-00305-00605999999ADDAA101000021AU110030015AW1715GA1075+006405999GA2085+008845999GD13991+0064059GD24991+0088459GE19AGL   +99999+99999GF199999999999006401999999MA1100275096265MW1715OC101135OD149901491300REMMET11901/02/25 09:46:02 SPECI KMPV 021446Z 30014G22KT 1 1/2SM -SN BKN021 OVC029 M03/M06 A2961 RMK AO2 PK WND 30029/1428 P0000
0385726145947052025010214517+44205-072565FM-15+0342KMPV V0203005N00775006405MN0020125N5-00225-00615100425ADDAA101000025AA203000391AU110030015AW1715GA1075+006405999GA2085+008845999GD13991+0064059GD24991+0088459GE19AGL   +99999+99999GF199999999999006401999999MA1100275096265MD1190149+9999MW1715OC101605OD149901591290REMMET14801/02/25 09:51:02 METAR KMPV 021451Z 30015G31KT 1 1/4SM -SN BKN021 OVC029 M02/M06 A2961 RMK AO2 PK WND 29031/1451 SLP042 P0000 60001 T10221061 51014EQDQ01  00028PRCP03
0279726145947052025010215167+44205-072565FM-16+0342KMPV V0202905N00625005495WN0016095N5-00285-00565999999ADDAA101000021AU110030015AW1715GA1095+005495999GD15991+0054959GE19AGL   +99999+99999GF109991999999005491999999MA1100305096295MW1715OC101495OD149901641280REMMET11701/02/25 10:16:02 SPECI KMPV 021516Z 29012G29KT 1SM -SN VV018 M03/M06 A2962 RMK AO2 PK WND 28032/1452 P0000 T10281056
0281726145947052025010215417+44205-072565FM-16+0342KMPV V0203005N00675004575WN0012075N5-00285-00565999999ADDAA101000021AU110030015AW1715GA1095+004575999GD15991+0045759GE19AGL   +99999+99999GF109991999999004571999999MA1100305096295MW1715OC101135OD149901641280REMMET11901/02/25 10:41:02 SPECI KMPV 021541Z 30013G22KT 3/4SM -SN VV015 M03/M06 A2962 RMK AO2 PK WND 28032/1452 P0000 T10281056
0286726145947052025010215517+44205-072565FM-15+0342KMPV V0202905N00575004885WN0016095N5-00285-00565100455ADDAA101000025AU110030015AW1715GA1095+004885999GD15991+0048859GE19AGL   +99999+99999GF109991999999004881999999MA1100305096295MW1715OC101135OD149901641280REMMET12401/02/25 10:51:02 METAR KMPV 021551Z 29011G22KT 1SM -SN VV016 M03/M06 A2962 RMK AO2 PK WND 28032/1452 SLP045 P0000 T10281056
0252726145947052025010216057+44205-072565FM-16+0342KMPV V0202905V00775005495MN0024145N5-00285-00565999999ADDAA101000021AU110030015AW1715GA1085+005495999GD14991+0054959GE19AGL   +99999+99999GF199999999999005491999999MA1100305096295MW1715OC101245REMMET10401/02/25 11:05:02 SPECI KMPV 021605Z 29015G24KT 1 1/2SM -SN OVC018 M03/M06 A2962 RMK AO2 P0000 T10281056
0329726145947052025010216517+44205-072565FM-15+0342KMPV V0203005N00625008235MN0028165N5-00225-00615100415ADDAA101000025AU110030015AW1715GA1075+008235999GA2085+010675999GD13991+0082359GD24991+0106759GE19AGL   +99999+99999GF199999999999008231999999MA1100275096265MW1715OC101185OD149901541300REMMET13601/02/25 11:51:02 METAR KMPV 021651Z 30012G23KT 1 3/4SM -SN BKN027 OVC035 M02/M06 A2961 RMK AO2 PK WND 30030/1634 SLP041 P0000 T10221061
0290726145947052025010217027+44205-072565FM-16+0342KMPV V0203005N00675008845MN0040235N5-00225-00675999999ADDAA101000021AU110030015AW1715GA1075+008845999GA2085+011895999GD13991+0088459GD24991+0118959GE19AGL   +99999+99999GF199999999999008841999999MA1100275096265MW1715OC101295REMMET11101/02/25 12:02:02 SPECI KMPV 021702Z 30013G25KT 2 1/2SM -SN BKN029 OVC039 M02/M07 A2961 RMK AO2 P0000 T10221067
0280726145947052025010217087+44205-072565FM-16+0342KMPV V0202905N00825010365MN0048285N5-00175-00675999999ADDAA101000021AU110030015AW1715GA1085+010365999GD14991+0103659GE19AGL   +99999+99999GF199999999999010361999999MA1100275096265MW1715OC101655OD149901641310REMMET11801/02/25 12:08:02 SPECI KMPV 021708Z 29016G32KT 3SM -SN OVC034 M02/M07 A2961 RMK AO2 PK WND 31032/1704 P0000 T10171067
0429726145947052025010217517+44205-072565FM-15+0342KMPV V0202805N00725011285MN0144845N5-00115-00725100415ADDAA101000025AA206000391AU120090015AW1401AW2415GA1085+011285999GD14991+0112859GE19AGL   +99999+99999GF199999999999011281999999KA1060M-00111KA2060N-00281MA1100275096265MD1890009+9999OC101345OD149901641310REMMET16501/02/25 12:51:02 METAR KMPV 021751Z 28014G26KT 9SM UP OVC037 M01/M07 A2961 RMK AO2 PK WND 31032/1704 UPB12E19B51SNE12 SLP041 P0000 60001 T10111072 11011 21028 58000EQDQ010     3APC3  Q028     3APCTENQ03  00028PRCP06
0324726145947052025010218517+44205-072565FM-15+0342KMPV V0202905V00515011585MN0144845N5-00175-00785100465ADDAA101000025AU120090015AW1401AW2415GA1075+011585999GA2085+013725999GD13991+0115859GD24991+0137259GE19AGL   +99999+99999GF199999999999011581999999MA1100305096295OC101495OD149901541270REMMET13101/02/25 13:51:02 METAR KMPV 021851Z 29010G29KT 9SM UP BKN038 OVC045 M02/M08 A2962 RMK AO2 PK WND 27030/1754 SLP046 P0000 T10171078
0362726145947052025010219517+44205-072565FM-15+0342KMPV V0203005N00935014025MN0144845N5-00175-00835100515ADDAA101000025AU120090015AW1401AW2415GA1045+011585999GA2075+014025999GA3085+016765999GD12991+0115859GD23991+0140259GD34991+0167659GE19AGL   +99999+99999GF199999999999011581999999MA1100375096365OC101495OD149901751290REMMET13801/02/25 14:51:02 METAR KMPV 021951Z 30018G29KT 9SM UP SCT038 BKN046 OVC055 M02/M08 A2964 RMK AO2 PK WND 29034/1933 SLP051 P0000 T10171083
0420726145947052025010220517+44205-072565FM-15+0342KMPV V0202705V00465014335MN0144845N5-00175-00835100515ADDAA101000025AA203000021GA1045+011895999GA2075+014335999GA3085+016765999GD12991+0118959GD23991+0143359GD34991+0167659GE19AGL   +99999+99999GF199999999999011891999999MA1100375096365MD1190089+9999OC101395OD149901641260REMMET17501/02/25 15:51:02 METAR KMPV 022051Z 27009G27KT 9SM SCT039 BKN047 OVC055 M02/M08 A2964 RMK AO2 PK WND 26032/2011 UPE1958B39E40SNB00E24B40E49 SLP051 P0000 60000 T10171083 51008EQDQ01  00008PRCP03
0290726145947052025010221517+44205-072565FM-15+0342KMPV V0209999N99999012505MN0096565N5-00175-00895100505ADDAA101000025AU110030015AW1715GA1085+012505999GD14991+0125059GE19AGL   +99999+99999GF199999999999012501999999MA1100375096365MW1715OD149901391310REMMET13601/02/25 16:51:02 METAR KMPV 022151Z      KT 6SM -SN OVC041 M02/M09 A2964 RMK AO2 PK WND 31027/2134 UPB26E50SNB50 SLP050 P0000 T10171089
0341726145947052025010222487+44205-072565FM-16+0342KMPV V0202905N00825008535MN0040235N5-00305-00705999999ADDAA101000021AU110030015AW1715GA1075+008535999GA2085+010675999GD13991+0085359GD24991+0106759GE19AGL   +99999+99999GF199999999999008531999999MA1100415096395MW1715OC101345OD149901801290REMMET14801/02/25 17:48:02 SPECI KMPV 022248Z 29016G26KT 2 1/2SM -SN BKN028 OVC035 M03/M07 A2965 RMK AO2 PK WND 29035/2226 UPB01E02B20E28SNE01B07E20B28 P0000
0320726145947052025010222517+44205-072565FM-15+0342KMPV V0202805N00575007925MN0040235N5-00285-00675100575ADDAA101000025AU110030015AW1715GA1085+007925999GD14991+0079259GE19AGL   +99999+99999GF199999999999007921999999MA1100415096395MW1715OC101345OD149901801290REMMET15801/02/25 17:51:02 METAR KMPV 022251Z 28011G26KT 2 1/2SM -SN OVC026 M03/M07 A2965 RMK AO2 PK WND 29035/2226 UPB01E02B20E28SNE01B07E20B28 SLP057 P0000 T10281067
0252726145947052025010223027+44205-072565FM-16+0342KMPV V0202905V00365006105MN0024145N5-00285-00615999999ADDAA101000021AU110030015AW1715GA1085+006105999GD14991+0061059GE19AGL   +99999+99999GF199999999999006101999999MA1100445096425MW1715OC100985REMMET10401/02/25 18:02:02 SPECI KMPV 022302Z 29007G19KT 1 1/2SM -SN OVC020 M03/M06 A2966 RMK AO2 P0000 T10281061
0247726145947052025010223097+44205-072565FM-16+0342KMPV V0202705N00315004885WN0016095N5-00335-00615999999ADDAA101000021AU110030015AW1715GA1095+004885999GD15991+0048859GE19AGL   +99999+99999GF109991999999004881999999MA1100415096395MW1715OC100725REMMET09901/02/25 18:09:02 SPECI KMPV 022309Z 27006G14KT 1SM -SN VV016 M03/M06 A2965 RMK AO2 P0000 T10331061
0272726145947052025010223207+44205-072565FM-16+0342KMPV V0203005N00465003965MN0020125N5-00335-00565999999ADDAA101000021AU110030015AU200001015AW1105AW2715GA1085+003965999GD14991+0039659GE19AGL   +99999+99999GF199999999999003961999999MA1100445096425MW1715OC100825REMMET10701/02/25 18:20:02 SPECI KMPV 022320Z 30009G16KT 1 1/4SM -SN BR OVC013 M03/M06 A2966 RMK AO2 P0000 T10331056
0269726145947052025010223277+44205-072565FM-16+0342KMPV V0202905N00575003355WN0012075N5-00335-00565999999ADDAA101000231AU110030015AU200001015AW1105AW2715GA1095+003355999GD15991+0033559GE19AGL   +99999+99999GF109991999999003351999999MA1100445096425MW1715OC100985REMMET10401/02/25 18:27:02 SPECI KMPV 022327Z 29011G19KT 3/4SM -SN BR VV011 M03/M06 A2966 RMK AO2 P0001 T10331056
0257726145947052025010223477+44205-072565FM-16+0342KMPV V0202905N00515003355WN0016095N5-00305-00605999999ADDAA101000231AU110030015AU200001015AW1105AW2715GA1095+003355999GD15991+0033559GE19AGL   +99999+99999GF109991999999003351999999MA1100415096395MW1715OC100885REMMET09201/02/25 18:47:02 SPECI KMPV 022347Z 29010G17KT 1SM -SN BR VV011 M03/M06 A2965 RMK AO2 P0001
0373726145947052025010223517+44205-072565FM-15+0342KMPV V0202805V00415003355MN0020125N5-00335-00565100585ADDAA101000395AA206000391AU110030015AU200001015AW1105AW2715GA1085+003355999GD14991+0033559GE19AGL   +99999+99999GF199999999999003351999999KA1060M-00111KA2060N-00331MA1100415096395MD1190069+9999MW1715OC100775REMMET13801/02/25 18:51:02 METAR KMPV 022351Z 28008G15KT 1 1/4SM -SN BR OVC011 M03/M06 A2965 RMK AO2 SLP058 P0001 60001 T10331056 11011 21033 51006EQDQ01  00028PRCP06
0241726145947052025010300007+44205-072565FM-16+0342KMPV V0202905N00465003965MN0024145N5-00285-00565999999ADDAA101000021AU110030015AW1715GA1085+003965999GD14991+0039659GE19AGL   +99999+99999GF199999999999003961999999MA1100445096425MW1715REMMET10101/02/25 19:00:01 SPECI KMPV 030000Z 29009KT 1 1/2SM -SN OVC013 M03/M06 A2966 RMK AO2 P0000 T10281056
0267726145947052025010300087+44205-072565FM-16+0342KMPV V0202705V00465004275WN0016095N5-00335-00565999999ADDAA101000021AU110030015AU200001015AW1105AW2715GA1095+004275999GD15991+0042759GE19AGL   +99999+99999GF109991999999004271999999MA1100445096425MW1715OC101185REMMET10201/02/25 19:08:01 SPECI KMPV 030008Z 27009G23KT 1SM -SN BR VV014 M03/M06 A2966 RMK AO2 P0000 T10331056
0272726145947052025010300137+44205-072565FM-16+0342KMPV V0202905N00415004575MN0020125N5-00335-00565999999ADDAA101000021AU110030015AU200001015AW1105AW2715GA1085+004575999GD14991+0045759GE19AGL   +99999+99999GF199999999999004571999999MA1100445096425MW1715OC101085REMMET10701/02/25 19:13:01 SPECI KMPV 030013Z 29008G21KT 1 1/4SM -SN BR OVC015 M03/M06 A2966 RMK AO2 P0000 T10331056
0267726145947052025010300327+44205-072565FM-16+0342KMPV V0202705N00365004275WN0016095N5-00335-00565999999ADDAA101000021AU110030015AU200001015AW1105AW2715GA1095+004275999GD15991+0042759GE19AGL   +99999+99999GF109991999999004271999999MA1100415096395MW1715OC100825REMMET10201/02/25 19:32:01 SPECI KMPV 030032Z 27007G16KT 1SM -SN BR VV014 M03/M06 A2965 RMK AO2 P0000 T10331056
0272726145947052025010300427+44205-072565FM-16+0342KMPV V0202705N00575004275MN0020125N5-00335-00565999999ADDAA101000231AU110030015AU200001015AW1105AW2715GA1085+004275999GD14991+0042759GE19AGL   +99999+99999GF199999999999004271999999MA1100415096395MW1715OC100935REMMET10701/02/25 19:42:01 SPECI KMPV 030042Z 27011G18KT 1 1/4SM -SN BR OVC014 M03/M06 A2965 RMK AO2 P0001 T10331056
0263726145947052025010300517+44205-072565FM-15+0342KMPV V0202805N00465003665WN0016095N5-00335-00565100605ADDAA101000395AU110030015AU200001015AW1105AW2715GA1095+003665999GD15991+0036659GE19AGL   +99999+99999GF109991999999003661999999MA1100445096425MW1715REMMET10601/02/25 19:51:01 METAR KMPV 030051Z 28009KT 1SM -SN BR VV012 M03/M06 A2966 RMK AO2 SLP060 P0001 T10331056
0269726145947052025010301007+44205-072565FM-16+0342KMPV V0202705N00465003055WN0012075N5-00335-00565999999ADDAA101000021AU110030015AU200001015AW1105AW2715GA1095+003055999GD15991+0030559GE19AGL   +99999+99999GF109991999999003051999999MA1100445096425MW1715OC100885REMMET10401/02/25 20:00:01 SPECI KMPV 030100Z 27009G17KT 3/4SM -SN BR VV010 M03/M06 A2966 RMK AO2 P0000 T10331056
0256726145947052025010301207+44205-072565FM-16+0342KMPV V0203005N00575003055WN0016095N5-00335-00565999999ADDAA101000021AU110030015AU200001015AW1105AW2715GA1095+003055999GD15991+0030559GE19AGL   +99999+99999GF109991999999003051999999MA1100445096425MW1715REMMET09901/02/25 20:20:01 SPECI KMPV 030120Z 30011KT 1SM -SN BR VV010 M03/M06 A2966 RMK AO2 P0000 T10331056
0290726145947052025010301437+44205-072565FM-16+0342KMPV V0203105N00575004275MN0024145N5-00335-00615999999ADDAA101000231AU110030015AW1715GA1075+004275999GA2085+006105999GD13991+0042759GD24991+0061059GE19AGL   +99999+99999GF199999999999004271999999MA1100445096425MW1715OC101035REMMET11101/02/25 20:43:01 SPECI KMPV 030143Z 31011G20KT 1 1/2SM -SN BKN014 OVC020 M03/M06 A2966 RMK AO2 P0001 T10331061
0238726145947052025010301477+44205-072565FM-16+0342KMPV V0203005N00575004885MN0032195N5-00305-00605999999ADDAA101000231AU110030015AW1715GA1085+004885999GD14991+0048859GE19AGL   +99999+99999GF199999999999004881999999MA1100445096425MW1715OC101185REMMET09001/02/25 20:47:01 SPECI KMPV 030147Z 30011G23KT 2SM -SN OVC016 M03/M06 A2966 RMK AO2 P0001
0287726145947052025010301517+44205-072565FM-15+0342KMPV V0203005N00775006105MN0032195N5-00335-00615100615ADDAA101000395AU110030015AW1715GA1085+006105999GD14991+0061059GE19AGL   +99999+99999GF199999999999006101999999MA1100445096425MW1715OC101395OD149901391290REMMET12501/02/25 20:51:01 METAR KMPV 030151Z 30015G27KT 2SM -SN OVC020 M03/M06 A2966 RMK AO2 PK WND 29027/0150 SLP061 P0001 T10331061
0280726145947052025010302167+44205-072565FM-16+0342KMPV V0203005N00725009145MN0048285N5-00395-00725999999ADDAA101000021AU110030015AW1715GA1085+009145999GD14991+0091459GE19AGL   +99999+99999GF199999999999009141999999MA1100445096425MW1715OC101345OD149901641300REMMET11801/02/25 21:16:01 SPECI KMPV 030216Z 30014G26KT 3SM -SN OVC030 M04/M07 A2966 RMK AO2 PK WND 30032/0200 P0000 T10391072
0284726145947052025010302297+44205-072565FM-16+0342KMPV V0202905N00515008535MN0040235N5-00395-00725999999ADDAA101000021AU110030015AW1715GA1085+008535999GD14991+0085359GE19AGL   +99999+99999GF199999999999008531999999MA1100445096425MW1715OC100985OD149901641300REMMET12201/02/25 21:29:01 SPECI KMPV 030229Z 29010G19KT 2 1/2SM -SN OVC028 M04/M07 A2966 RMK AO2 PK WND 30032/0200 P0000 T10391072
0370726145947052025010302517+44205-072565FM-15+0342KMPV V0203005N00465008535MN0064375N5-00395-00725100615ADDAA101000025AA203000591AU110030015AW1715GA1075+008535999GA2085+011585999GD13991+0085359GD24991+0115859GE19AGL   +99999+99999GF199999999999008531999999MA1100445096425MD1190039+9999MW1715OD149901641300REMMET14101/02/25 21:51:01 METAR KMPV 030251Z 30009KT 4SM -SN BKN028 OVC038 M04/M07 A2966 RMK AO2 PK WND 30032/0200 SLP061 P0000 60002 T10391072 51003EQDQ01  00058PRCP03
0318726145947052025010303067+44205-072565FM-16+0342KMPV V0203005N00825010675MN0064375N5-00335-00785999999ADDAA101000021AU110030015AW1715GA1025+007925999GA2085+010675999GD11991+0079259GD24991+0106759GE19AGL   +99999+99999GF199999999999007921999999MA1100445096425MW1715OC101495OD149901491310REMMET12501/02/25 22:06:01 SPECI KMPV 030306Z 30016G29KT 4SM -SN FEW026 OVC035 M03/M08 A2966 RMK AO2 PK WND 31029/0302 P0000 T10331078
0287726145947052025010303517+44205-072565FM-15+0342KMPV V0203005N00675011285MN0064375N5-00395-00785100635ADDAA101000025AU110030015AW1715GA1085+011285999GD14991+0112859GE19AGL   +99999+99999GF199999999999011281999999MA1100475096465MW1715OC101545OD149901691290REMMET12501/02/25 22:51:02 METAR KMPV 030351Z 30013G30KT 4SM -SN OVC037 M04/M08 A2967 RMK AO2 PK WND 29033/0320 SLP063 P0000 T10391078
0361726145947052025010304517+44205-072565FM-15+0342KMPV V0203005N00775009755MN0048285N5-00395-00835100615ADDAA101000025AU110030015AW1715GA1075+009755999GA2085+012195999GD13991+0097559GD24991+0121959GE19AGL   +99999+99999GF199999999999009751999999KA1240M+00061KA2240N-00391MA1100445096425MW1715OC101755OD149901851300REMMET14201/02/25 23:51:02 METAR KMPV 030451Z 30015G34KT 3SM -SN BKN032 OVC040 M04/M08 A2966 RMK AO2 PK WND 30036/0423 SLP061 P0000 T10391083 400061039
0948726145947052025010304596+44205-072565SOD  +0342KMPV V020999999999999999999999999999+99999+99999999999ADDAA124001395AT1AU18SN  5AT2AU13BR  5AT3AU19UP  5AX1015245KA1240M+00065KA2240N-00385MG1096194099804OE11240183330023235OE22240111830023235OE33240062199999995REMSOD74724 HR PRECIPITATION (IN): 0.05 WEATHER(CODE):1  24 HR MAX TEMP (F):33 24 HR MAX TEMP TIME (LST):0006 24 HR MIN TEMP (F):25 24 HR MIN TEMP TIME (LST):2359 AVERAGE STATION PRESSURE(D):28.407 MINIMUM SEA LEVEL PRESSURE:29.47 TIME OF OCCURRENCE:0033 PEAK WIND SPEED (MPH):41  PEAK WIND DIR (DEG):300 PEAK WIND TIME (LST):2323  FASTEST 2MIN SPEED (MPH):25 FASTEST 2MIN DIR (DEG):300 FASTEST 2MIN TIME (LST):2323 AVERAGE WIND SPEED (MPH):13.9 24 HR AVG TEMP (F):29 HEATING DEGREE DAYS: 36 COOLING DEGREE DAYS:  0 LATEST DAY MAX TEMP (0700-1900 LST): 30 LATEST NIGHT MIN TEMP(1900-0800 LST):27 HOURLY INCREMENTAL PRECIPITATION VALUES (IN):    T    T    T     0.01T    T     0.01T    T    T    T    T    T    T    T    T    T     0.01 0.01 0.01T    T    TEQDR01     N7GJS072R02     N7GKS075
0274726145947052025010305487+44205-072565FM-16+0342KMPV V0203005N00885008535MN0040235N5-00405-00805999999ADDAA101000021AU110030015AW1715GA1085+008535999GD14991+0085359GE19AGL   +99999+99999GF199999999999008531999999MA1100445096425MW1715OC101295OD149901391310REMMET11201/03/25 00:48:02 SPECI KMPV 030548Z 30017G25KT 2 1/2SM -SN OVC028 M04/M08 A2966 RMK AO2 PK WND 31027/0521 P0000
0372726145947052025010305517+44205-072565FM-15+0342KMPV V0202905N00775007925MN0040235N5-00395-00835100595ADDAA101000025AA206000591AU110030015AW1715GA1085+007925999GD14991+0079259GE19AGL   +99999+99999GF199999999999007921999999KA1060M-00281MA1100445096425MD1890029+9999MW1715OC101395OD149901391310REMMET15301/03/25 00:51:02 METAR KMPV 030551Z 29015G27KT 2 1/2SM -SN OVC026 M04/M08 A2966 RMK AO2 PK WND 31027/0521 SLP059 P0000 60002 T10391083 11028 21044 58002EQDQ01  00058PRCP06
0248726145947052025010306097+44205-072565FM-16+0342KMPV V0203005N00465007925MN0048285N5-00395-00835999999ADDAA101000021AU110030015AW1715GA1085+007925999GD14991+0079259GE19AGL   +99999+99999GF199999999999007921999999MA1100415096395MW1715OC101295REMMET10001/03/25 01:09:02 SPECI KMPV 030609Z 30009G25KT 3SM -SN OVC026 M04/M08 A2965 RMK AO2 P0000 T10391083
0276726145947052025010306467+44205-072565FM-16+0342KMPV V0202905N00515009755MN0064375N5-00405-00805999999ADDAA101000021AU110030015AW1715GA1075+009755999GA2085+012805999GD13991+0097559GD24991+0128059GE19AGL   +99999+99999GF199999999999009751999999MA1100445096425MW1715OC100985REMMET09701/03/25 01:46:02 SPECI KMPV 030646Z 29010G19KT 4SM -SN BKN032 OVC042 M04/M08 A2966 RMK AO2 P0000
0293726145947052025010306517+44205-072565FM-15+0342KMPV V0202905N00625010365MN0080475N5-00395-00835100605ADDAA101000025AU110030015AW1715GA1025+008535999GA2085+010365999GD11991+0085359GD24991+0103659GE19AGL   +99999+99999GF199999999999008531999999MA1100445096425MW1715OC100985REMMET11401/03/25 01:51:02 METAR KMPV 030651Z 29012G19KT 5SM -SN FEW028 OVC034 M04/M08 A2966 RMK AO2 SLP060 P0000 T10391083
0310726145947052025010307517+44205-072565FM-15+0342KMPV V0202905N00465010365MN0128755N5-00395-00895100645ADDAA101000025AU110030015AW1715GA1045+008535999GA2085+010365999GD12991+0085359GD24991+0103659GE19AGL   +99999+99999GF199999999999008531999999MA1100475096465MW1715OC100935REMMET13101/03/25 02:51:02 METAR KMPV 030751Z 29009G18KT 8SM -SN SCT028 OVC034 M04/M09 A2967 RMK AO2 UPB38E44SNE33B44 SLP064 P0000 T10391089
0248726145947052025010308067+44205-072565FM-16+0342KMPV V0202905N00675007925MN0048285N5-00395-00785999999ADDAA101000021AU110030015AW1715GA1085+007925999GD14991+0079259GE19AGL   +99999+99999GF199999999999007921999999MA1100475096465MW1715OC100985REMMET10001/03/25 03:06:02 SPECI KMPV 030806Z 29013G19KT 3SM -SN OVC026 M04/M08 A2967 RMK AO2 P0000 T10391078
0279726145947052025010308147+44205-072565FM-16+0342KMPV V0202905N00625005795MN0028165N5-00445-00785999999ADDAA101000021AU110030015AW1715GA1075+005795999GA2085+008535999GD13991+0057959GD24991+0085359GE19AGL   +99999+99999GF199999999999005791999999MA1100515096495MW1715REMMET10801/03/25 03:14:02 SPECI KMPV 030814Z 29012KT 1 3/4SM -SN BKN019 OVC028 M04/M08 A2968 RMK AO2 P0000 T10441078
0275726145947052025010308277+44205-072565FM-16+0342KMPV V0202905N00415006405MN0048285N5-00445-00785999999ADDAA101000021AU110030015AW1715GA1075+006405999GA2085+008535999GD13991+0064059GD24991+0085359GE19AGL   +99999+99999GF199999999999006401999999MA1100515096495MW1715REMMET10401/03/25 03:27:02 SPECI KMPV 030827Z 29008KT 3SM -SN BKN021 OVC028 M04/M08 A2968 RMK AO2 P0000 T10441078
0387726145947052025010308517+44205-072565FM-15+0342KMPV V0202905N00625008845MN0112655N5-00395-00835100655ADDAA101000025AA203000021AU110030015AW1715GA1075+008845999GA2075+011285999GA3085+013415999GD13991+0088459GD23991+0112859GD34991+0134159GE19AGL   +99999+99999GF199999999999008841999999MA1100515096495MD1390059+9999MW1715OC101245REMMET13301/03/25 03:51:02 METAR KMPV 030851Z 29012G24KT 7SM -SN BKN029 BKN037 OVC044 M04/M08 A2968 RMK AO2 SLP065 P0000 60000 T10391083 53005EQDQ01  00008PRCP03
0241726145947052025010309017+44205-072565FM-16+0342KMPV V0203005N00625010365MN0144845N5-00395-00895999999ADDAA101000021GA1085+010365999GD14991+0103659GE19AGL   +99999+99999GF199999999999010361999999MA1100515096495OC101135REMMET11601/03/25 04:01:02 SPECI KMPV 030901Z 30012G22KT 9SM OVC034 M04/M09 A2968 RMK AO2 UPB0854E0857SNE0854 P0000 T10391089
0357726145947052025010309517+44205-072565FM-15+0342KMPV V0202905N00885011285MN0160935N5-00395-01065100645ADDAA101000095GA1075+011285999GA2075+013725999GA3085+016765999GD13991+0112859GD23991+0137259GD34991+0167659GE19AGL   +99999+99999GF199999999999011281999999MA1100475096465OC101445OD149901441280REMMET15601/03/25 04:51:02 METAR KMPV 030951Z 29017G28KT 10SM BKN037 BKN045 OVC055 M04/M11 A2967 RMK AO2 PK WND 28028/0951 UPB0854E0857SNE0854 SLP064 P0000 T10391106
0212726145947052025010310517+44205-072565FM-15+0342KMPV V0202905N00465011285MN0160935N5-00395-01065100655ADDAA101000095GA1085+011285999GD14991+0112859GE19AGL   +99999+99999GF199999999999011281999999MA1100475096465REMMET09501/03/25 05:51:02 METAR KMPV 031051Z 29009KT 10SM OVC037 M04/M11 A2967 RMK AO2 SLP065 T10391106
0334726145947052025010311517+44205-072565FM-15+0342KMPV V0203005N00575011285MN0160935N5-00445-01065100675ADDAA101000095AA206000021AA324001091GA1085+011285999GD14991+0112859GE19AGL   +99999+99999GF199999999999011281999999KA1060M-00391KA2060N-00441MA1100515096495MD1390019+9999OC101085REMMET12801/03/25 06:51:02 METAR KMPV 031151Z 30011G21KT 10SM OVC037 M04/M11 A2968 RMK AO2 SLP067 60000 70004 T10441106 11039 21044 53001EQDQ01  00108PRCP24
0223726145947052025010312517+44205-072565FM-15+0342KMPV V0202905N00415013415MN0160935N5-00445-01115100655ADDAA101000095GA1085+013415999GD14991+0134159GE19AGL   +99999+99999GF199999999999013411999999MA1100475096465OC101085REMMET09801/03/25 07:51:02 METAR KMPV 031251Z 29008G21KT 10SM OVC044 M04/M11 A2967 RMK AO2 SLP065 T10441111
0238726145947052025010313517+44205-072565FM-15+0342KMPV V0202905N00265012195MN0160935N5-00505-01225100685ADDAA101000025GA1075+012195999GD13991+0121959GE19AGL   +99999+99999GF199999999999012191999999MA1100515096495OC101085REMMET11301/03/25 08:51:02 METAR KMPV 031351Z 29005G21KT 10SM BKN040 M05/M12 A2968 RMK AO2 SNB06E22 SLP068 P0000 T10501122
0267726145947052025010314517+44205-072565FM-15+0342KMPV V0202805V004152200059N0160935N5-00445-01335100685ADDAA101000095AA203000021GA1005+999999999GD10991+9999999GF100991999999999999999999MA1100515096495MD1390019+9999OC100935OD149901441290REMMET12501/03/25 09:51:02 METAR KMPV 031451Z 28008G18KT 10SM CLR M04/M13 A2968 RMK AO2 PK WND 29028/1434 SLP068 60000 T10441133 53001
0274726145947052025010315517+44205-072565FM-15+0342KMPV V0202905N007752200059N0160935N5-00395-01395100565ADDAA101000095GA1025+024385999GD11991+0243859GE19AGL   +99999+99999GF102995999999024381999999MA1100415096395OC101295OD149901391290REMMET11601/03/25 10:51:02 METAR KMPV 031551Z 29015G25KT 10SM FEW080 M04/M14 A2965 RMK AO2 PK WND 29027/1536 SLP056 T10391139EQDD01      0ADE726
0215726145947052025010316517+44205-072565FM-15+0342KMPV V0202805N008252200059N0144845N5-00285-01445100455ADDAA101000095GA1005+999999999GD10991+9999999GF100991999999999999999999MA1100275096265OC101495REMMET11201/03/25 11:51:02 METAR KMPV 031651Z 28016G29KT 9SM CLR M03/M14 A2961 RMK AO2 PK WND 27029/1650 SLP045 T10281144
0291726145947052025010317517+44205-072565FM-15+0342KMPV V0203005N006252200059N0160935N5-00225-01565100375ADDAA101000095AA206000021GA1005+999999999GD10991+9999999GF100991999999999999999999KA1060M-00221KA2060N-00501MA1100205096205MD1690289+9999OC101495REMMET13701/03/25 12:51:02 METAR KMPV 031751Z 30012G29KT 10SM CLR M02/M16 A2959 RMK AO2 PK WND 32029/1745 SLP037 60000 T10221156 11022 21050 56028
0216726145947052025010318517+44205-072565FM-15+0342KMPV V0203005N007252200059N0160935N5-00175-01615100345ADDAA101000095GA1005+999999999GD10991+9999999GF100991999999999999999999MA1100205096205OC101245REMMET11301/03/25 13:51:02 METAR KMPV 031851Z 30014G24KT 10SM CLR M02/M16 A2959 RMK AO2 PK WND 30031/1802 SLP034 T10171161
0216726145947052025010319517+44205-072565FM-15+0342KMPV V0202905N004652200059N0160935N5-00285-01565100385ADDAA101000095GA1005+999999999GD10991+9999999GF100991999999999999999999MA1100205096205OC101085REMMET11301/03/25 14:51:02 METAR KMPV 031951Z 29009G21KT 10SM CLR M03/M16 A2959 RMK AO2 PK WND 31028/1906 SLP038 T10281156
0294726145947052025010320517+44205-072565FM-15+0342KMPV V0202705N004652200059N0160935N5-00285-01505100405ADDAA101000095GA1025+018295999GD11991+0182959GE19AGL   +99999+99999GF102995999999018291999999MA1100245096235MD1390029+9999OC101085OD149901491310REMMET12201/03/25 15:51:02 METAR KMPV 032051Z 27009G21KT 10SM FEW060 M03/M15 A2960 RMK AO2 PK WND 31029/2022 SLP040 T10281150 53002EQDD01      0ADE726
0212726145947052025010321517+44205-072565FM-15+0342KMPV V0202805N00365016765MN0160935N5-00335-01335100445ADDAA101000095GA1075+016765999GD13991+0167659GE19AGL   +99999+99999GF199999999999016761999999MA1100275096265REMMET09501/03/25 16:51:02 METAR KMPV 032151Z 28007KT 10SM BKN055 M03/M13 A2961 RMK AO2 SLP044 T10331133
0223726145947052025010322517+44205-072565FM-15+0342KMPV V0203005N00515018295MN0160935N5-00335-01285100465ADDAA101000095GA1075+018295999GD13991+0182959GE19AGL   +99999+99999GF199999999999018291999999MA1100305096295OC100775REMMET09801/03/25 17:51:02 METAR KMPV 032251Z 30010G15KT 10SM BKN060 M03/M13 A2962 RMK AO2 SLP046 T10331128
0327726145947052025010323517+44205-072565FM-15+0342KMPV V0202905N003152200059N0160935N5-00395-01225100465ADDAA101000095GA1045+016765999GA2045+027435999GD12991+0167659GD22991+0274359GE19AGL   +99999+99999GF104995999999016761999999KA1060M-00171KA2060N-00391MA1100305096295MD1190059+9999REMMET12001/03/25 18:51:02 METAR KMPV 032351Z 29006KT 10SM SCT055 SCT090 M04/M12 A2962 RMK AO2 SLP046 T10391122 11017 21039 51005EQDD01      0ADE726
0212726145947052025010400517+44205-072565FM-15+0342KMPV V0202905N00465018295MN0160935N5-00395-01115100455ADDAA101000095GA1085+018295999GD14991+0182959GE19AGL   +99999+99999GF199999999999018291999999MA1100305096295REMMET09501/03/25 19:51:01 METAR KMPV 040051Z 29009KT 10SM OVC060 M04/M11 A2962 RMK AO2 SLP045 T10391111
0299726145947052025010401517+44205-072565FM-15+0342KMPV V0203205N00625011285MN0128755N5-00615-01065100505ADDAA101000025AU110030015AW1715GA1075+011285999GA2085+016765999GD13991+0112859GD24991+0167659GE19AGL   +99999+99999GF199999999999011281999999MA1100305096295MW1715OC100935REMMET12001/03/25 20:51:01 METAR KMPV 040151Z 32012G18KT 8SM -SN BKN037 OVC055 M06/M11 A2962 RMK AO2 SNB15 SLP050 P0000 T10611106
0320726145947052025010402517+44205-072565FM-15+0342KMPV V0203105N00365011895MN0160935N5-00725-01175100525ADDAA101000095AA203000021GA1075+011895999GA2085+015245999GD13991+0118959GD24991+0152459GE19AGL   +99999+99999GF199999999999011891999999MA1100345096335MD1390049+9999REMMET12801/03/25 21:51:01 METAR KMPV 040251Z 31007KT 10SM BKN039 OVC050 M07/M12 A2963 RMK AO2 SNE0155 SLP052 P0000 60000 T10721117 53004EQDQ01  00008PRCP03
0250726145947052025010403517+44205-072565FM-15+0342KMPV V0203005N00365015245MN0160935N5-00785-01285100505ADDAA101000095GA1045+010675999GA2075+015245999GD12991+0106759GD23991+0152459GE19AGL   +99999+99999GF199999999999010671999999MA1100305096295REMMET10201/03/25 22:51:02 METAR KMPV 040351Z 30007KT 10SM SCT035 BKN050 M08/M13 A2962 RMK AO2 SLP050 T10781128
0194726145947052025010404277+44205-072565FM-16+0342KMPV V0203105N00465007925MN0160935N5-00835-01285999999ADDGA1075+007925999GD13991+0079259GE19AGL   +99999+99999GF199999999999007921999999MA1100305096295REMMET08801/03/25 23:27:02 SPECI KMPV 040427Z 31009KT 10SM BKN026 M08/M13 A2962 RMK AO2 T10831128
0247726145947052025010404517+44205-072565FM-15+0342KMPV V0203105N00365006105MN0144845N5-00835-01285100455ADDAA101000095GA1085+006105999GD14991+0061059GE19AGL   +99999+99999GF199999999999006101999999KA1240M-00171KA2240N-00831MA1100275096265REMMET10401/03/25 23:51:02 METAR KMPV 040451Z 31007KT 9SM OVC020 M08/M13 A2961 RMK AO2 SLP045 T10831128 410171083
0912726145947052025010404596+44205-072565SOD  +0342KMPV V020999999999999999999999999999+99999+99999999999ADDAA124000025AT1AU18SN  5AX1086246KA1240M-00165KA2240N-00825MG1096374100344OE11240156530013025OE22240098330015235OE33240052899999995REMSOD75124 HR PRECIPITATION (IN):T     WEATHER(CODE):8  24 HR MAX TEMP (F):29 24 HR MAX TEMP TIME (LST):1406 24 HR MIN TEMP (F):17 24 HR MIN TEMP TIME (LST):2359 AVERAGE STATION PRESSURE(D):28.459 MINIMUM SEA LEVEL PRESSURE:29.63 TIME OF OCCURRENCE:1431 PEAK WIND SPEED (MPH):35  PEAK WIND DIR (DEG):300 PEAK WIND TIME (LST):1302  FASTEST 2MIN SPEED (MPH):22 FASTEST 2MIN DIR (DEG):300 FASTEST 2MIN TIME (LST):1523 AVERAGE WIND SPEED (MPH):11.8 24 HR AVG TEMP (F):23 HEATING DEGREE DAYS: 42 COOLING DEGREE DAYS:  0 LATEST DAY MAX TEMP (0700-1900 LST): 29 LATEST NIGHT MIN TEMP(1900-0800 LST):23 HOURLY INCREMENTAL PRECIPITATION VALUES (IN):    T    T    T     0.00 0.00 0.00 0.00T     0.00 0.00 0.00 0.00 0.00 0.00 0.00 0.00 0.00 0.00 0.00T     0.00 0.00 0.00EQDR01     87AXW093
0224726145947052025010405327+44205-072565FM-16+0342KMPV V0203005N004652200059N0160935N5-00835-01285999999ADDGA1045+009455999GD12991+0094559GE19AGL   +99999+99999GF104995999999009451999999MA1100245096235OC100885REMMET09101/04/25 00:32:02 SPECI KMPV 040532Z 30009G17KT 10SM SCT031 M08/M13 A2960 RMK AO2 T10831128EQDD01      0ADE726
0262726145947052025010405517+44205-072565FM-15+0342KMPV V0203005N004152200059N0160935N5-00895-01285100435ADDAA101000095AA206000021GA1005+999999999GD10991+9999999GF100991999999999999999999KA1060M-00391KA2060N-00891MA1100245096235MD1890089+9999REMMET11601/04/25 00:51:02 METAR KMPV 040551Z 30008KT 10SM CLR M09/M13 A2960 RMK AO2 SLP043 60000 T10891128 11039 21089 58008
0242726145947052025010406517+44205-072565FM-15+0342KMPV V0203305N004652200059N0160935N5-00945-01395100475ADDAA101000095GA1025+014025999GD11991+0140259GE19AGL   +99999+99999GF102995999999014021999999MA1100275096265OC100985REMMET09801/04/25 01:51:02 METAR KMPV 040651Z 33009G19KT 10SM FEW046 M09/M14 A2961 RMK AO2 SLP047 T10941139EQDD01      0ADE726
0288726145947052025010407517+44205-072565FM-15+0342KMPV V0203405N00515010365MN0160935N5-01065-01445100555ADDAA101000095GA1025+007015999GA2045+008235999GA3075+010365999GD11991+0070159GD22991+0082359GD33991+0103659GE19AGL   +99999+99999GF199999999999007011999999MA1100345096335REMMET10901/04/25 02:51:02 METAR KMPV 040751Z 34010KT 10SM FEW023 SCT027 BKN034 M11/M14 A2963 RMK AO2 SLP055 T11061144
0232726145947052025010408057+44205-072565FM-16+0342KMPV V0203405N00415007625MN0160935N5-01065-01445999999ADDGA1075+007625999GA2075+009145999GD13991+0076259GD23991+0091459GE19AGL   +99999+99999GF199999999999007621999999MA1100345096335REMMET09501/04/25 03:05:02 SPECI KMPV 040805Z 34008KT 10SM BKN025 BKN030 M11/M14 A2963 RMK AO2 T11061144
0232726145947052025010408357+44205-072565FM-16+0342KMPV V0203205N00365036585MN0160935N5-01065-01565999999ADDGA1045+007925999GA2075+036585999GD12991+0079259GD23991+0365859GE19AGL   +99999+99999GF199999999999007921999999MA1100375096365REMMET09501/04/25 03:35:02 SPECI KMPV 040835Z 32007KT 10SM SCT026 BKN120 M11/M16 A2964 RMK AO2 T11061156
0270726145947052025010408517+44205-072565FM-15+0342KMPV V0203405N00265036585MN0160935N5-01115-01565100575ADDAA101000095GA1025+016765999GA2075+036585999GD11991+0167659GD23991+0365859GE19AGL   +99999+99999GF199999999999016761999999MA1100375096365MD1190139+9999REMMET10801/04/25 03:51:02 METAR KMPV 040851Z 34005KT 10SM FEW055 BKN120 M11/M16 A2964 RMK AO2 SLP057 T11111156 51013
0212726145947052025010409517+44205-072565FM-15+0342KMPV V0203505N00365009755MN0160935N5-01115-01565100615ADDAA101000095GA1085+009755999GD14991+0097559GE19AGL   +99999+99999GF199999999999009751999999MA1100415096395REMMET09501/04/25 04:51:02 METAR KMPV 040951Z 35007KT 10SM OVC032 M11/M16 A2965 RMK AO2 SLP061 T11111156
0223726145947052025010410517+44205-072565FM-15+0342KMPV V0203105N00775008845MN0160935N5-01115-01615100665ADDAA101000095GA1085+008845999GD14991+0088459GE19AGL   +99999+99999GF199999999999008841999999MA1100445096425OC101135REMMET09801/04/25 05:51:02 METAR KMPV 041051Z 31015G22KT 10SM OVC029 M11/M16 A2966 RMK AO2 SLP066 T11111161
0183726145947052025010411487+44205-072565FM-16+0342KMPV V0203405N00365009145MN0144845N5-01205-01605999999ADDGA1085+009145999GD14991+0091459GE19AGL   +99999+99999GF199999999999009141999999MA1100515096495REMMET07701/04/25 06:48:02 SPECI KMPV 041148Z 34007KT 9SM OVC030 M12/M16 A2968 RMK AO2
0269726145947052025010411517+44205-072565FM-15+0342KMPV V0203505N00465009145MN0128755N5-01175-01615100735ADDAA101000025GA1085+009145999GD14991+0091459GE19AGL   +99999+99999GF199999999999009141999999KA1060M-00891KA2060N-01171MA1100515096495MD1190129+9999REMMET11201/04/25 06:51:02 METAR KMPV 041151Z 35009KT 8SM OVC030 M12/M16 A2968 RMK AO2 SLP073 T11171161 11089 21117 51012
0222726145947052025010412187+44205-072565FM-16+0342KMPV V0200105N00315008845MN0160935N5-01175-01615999999ADDAA101000021GA1085+008845999GD14991+0088459GE19AGL   +99999+99999GF199999999999008841999999MA1100545096525REMMET10501/04/25 07:18:02 SPECI KMPV 041218Z 01006KT 10SM OVC029 M12/M16 A2969 RMK AO2 SNB1153E02 P0000 T11171161
0228726145947052025010412517+44205-072565FM-15+0342KMPV V0203205N00265008535MN0144845N5-01175-01675100775ADDAA101000025GA1085+008535999GD14991+0085359GE19AGL   +99999+99999GF199999999999008531999999MA1100545096525REMMET11101/04/25 07:51:02 METAR KMPV 041251Z 32005KT 9SM OVC028 M12/M17 A2969 RMK AO2 SNB1153E02 SLP077 P0000 T11171167
0231726145947052025010413147+44205-072565FM-16+0342KMPV V0203105N00315009145MN0128755N5-01175-01615999999ADDGA1045+007015999GA2085+009145999GD12991+0070159GD24991+0091459GE19AGL   +99999+99999GF199999999999007011999999MA1100585096565REMMET09401/04/25 08:14:02 SPECI KMPV 041314Z 31006KT 8SM SCT023 OVC030 M12/M16 A2970 RMK AO2 T11171161
0281726145947052025010413407+44205-072565FM-16+0342KMPV V0203205N00265008535MN0048285N5-01175-01565999999ADDAA101000021AU110030015AW1715GA1025+006105999GA2085+008535999GD11991+0061059GD24991+0085359GE19AGL   +99999+99999GF199999999999006101999999MA1100615096595MW1715REMMET11001/04/25 08:40:02 SPECI KMPV 041340Z 32005KT 3SM -SN FEW020 OVC028 M12/M16 A2971 RMK AO2 SNB39 P0000 T11171156
0275726145947052025010413477+44205-072565FM-16+0342KMPV V0203305N00265008535MN0040235N5-01205-01605999999ADDAA101000021AU110030015AW1715GA1025+006405999GA2085+008535999GD11991+0064059GD24991+0085359GE19AGL   +99999+99999GF199999999999006401999999MA1100615096595MW1715REMMET10401/04/25 08:47:02 SPECI KMPV 041347Z 33005KT 2 1/2SM -SN FEW021 OVC028 M12/M16 A2971 RMK AO2 SNB39 P0000
0250726145947052025010413517+44205-072565FM-15+0342KMPV V0203405N00315007925MN0048285N5-01175-01565100825ADDAA101000025AU110030015AW1715GA1085+007925999GD14991+0079259GE19AGL   +99999+99999GF199999999999007921999999MA1100615096595MW1715REMMET11001/04/25 08:51:02 METAR KMPV 041351Z 34006KT 3SM -SN OVC026 M12/M16 A2971 RMK AO2 SNB39 SLP082 P0000 T11171156
0241726145947052025010414077+44205-072565FM-16+0342KMPV V0203305N00265007925MN0040235N5-01225-01505999999ADDAA101000021AU110030015AW1715GA1085+007925999GD14991+0079259GE19AGL   +99999+99999GF199999999999007921999999MA1100615096595MW1715REMMET10101/04/25 09:07:02 SPECI KMPV 041407Z 33005KT 2 1/2SM -SN OVC026 M12/M15 A2971 RMK AO2 P0000 T11221150
0265726145947052025010414467+44205-072565FM-16+0342KMPV V0203005V00365007015MN0080475N5-01205-01505999999ADDAA101000021AU110030015AW1715GA1075+007015999GA2085+008535999GD13991+0070159GD24991+0085359GE19AGL   +99999+99999GF199999999999007011999999MA1100585096565MW1715REMMET09401/04/25 09:46:02 SPECI KMPV 041446Z 30007KT 5SM -SN BKN023 OVC028 M12/M15 A2970 RMK AO2 P0000
0349726145947052025010414517+44205-072565FM-15+0342KMPV V0203005N00465007015MN0080475N5-01115-01565100825ADDAA101000025AA203000021AU110030015AW1715GA1075+007015999GA2085+009145999GD13991+0070159GD24991+0091459GE19AGL   +99999+99999GF199999999999007011999999MA1100615096595MD1590009+9999MW1715OC100885REMMET12601/04/25 09:51:02 METAR KMPV 041451Z 30009G17KT 5SM -SN BKN023 OVC030 M11/M16 A2971 RMK AO2 SLP082 P0000 60000 T11111156 55000EQDQ01  00008PRCP03
0285726145947052025010415307+44205-072565FM-16+0342KMPV V0202905N005152200059N0160935N5-01065-01615999999ADDAA101000021GA1045+005795999GA2045+008535999GD12991+0057959GD22991+0085359GE19AGL   +99999+99999GF104995999999005791999999MA1100585096565OC101085REMMET11001/04/25 10:30:02 SPECI KMPV 041530Z 29010G21KT 10SM SCT019 SCT028 M11/M16 A2970 RMK AO2 SNE13 P0000 T11061161EQDD01      0ADE726
0272726145947052025010415517+44205-072565FM-15+0342KMPV V0203005N00625009145MN0144845N5-01065-01565100775ADDAA101000025GA1075+009145999GA2075+010675999GD13991+0091459GD23991+0106759GE19AGL   +99999+99999GF199999999999009141999999MA1100545096525OC101135REMMET11601/04/25 10:51:02 METAR KMPV 041551Z 30012G22KT 9SM BKN030 BKN035 M11/M16 A2969 RMK AO2 SNE13 SLP077 P0000 T11061156
0260726145947052025010416517+44205-072565FM-15+0342KMPV V0203305N00515011585MN0144845N5-01005-01615100735ADDAA101000025AU120090015AW1401AW2415GA1085+011585999GD14991+0115859GE19AGL   +99999+99999GF199999999999011581999999MA1100515096495OC101085REMMET11201/04/25 11:51:02 METAR KMPV 041651Z 33010G21KT 9SM UP OVC038 M10/M16 A2968 RMK AO2 UPB48 SLP073 P0000 T11001161
0423726145947052025010417517+44205-072565FM-15+0342KMPV V0203205N00415009755MN0048285N5-01005-01445100705ADDAA101000025AA206000021AU110030015AW1715GA1025+007925999GA2075+009755999GA3085+012195999GD11991+0079259GD23991+0097559GD34991+0121959GE19AGL   +99999+99999GF199999999999007921999999KA1060M-01001MA1100475096465MD1790139+9999MW1715OC100885REMMET15601/04/25 12:51:02 METAR KMPV 041751Z 32008G17KT 3SM -SN FEW026 BKN032 OVC040 M10/M14 A2967 RMK AO2 UPE24SNB24 SLP070 P0000 60000 T11001144 11100 21122 57013EQDQ01  00008PRCP06
0269726145947052025010418487+44205-072565FM-16+0342KMPV V0203105N00465009145MN0040235N5-01105-01405999999ADDAA101000021AU110030015AW1715GA1075+009145999GA2085+010975999GD13991+0091459GD24991+0109759GE19AGL   +99999+99999GF199999999999009141999999MA1100515096495MW1715REMMET09801/04/25 13:48:02 SPECI KMPV 041848Z 31009KT 2 1/2SM -SN BKN030 OVC036 M11/M14 A2968 RMK AO2 P0000
0286726145947052025010418517+44205-072565FM-15+0342KMPV V0203305N00365008535MN0040235N5-01115-01445100745ADDAA101000025AU110030015AW1715GA1075+008535999GA2085+010975999GD13991+0085359GD24991+0109759GE19AGL   +99999+99999GF199999999999008531999999MA1100515096495MW1715REMMET11501/04/25 13:51:02 METAR KMPV 041851Z 33007KT 2 1/2SM -SN BKN028 OVC036 M11/M14 A2968 RMK AO2 SLP074 P0000 T11111144
0227726145947052025010419477+44205-072565FM-16+0342KMPV V0203205N00315008845MN0048285N5-01105-01405999999ADDAA101000021AU110030015AW1715GA1085+008845999GD14991+0088459GE19AGL   +99999+99999GF199999999999008841999999MA1100515096495MW1715REMMET08701/04/25 14:47:02 SPECI KMPV 041947Z 32006KT 3SM -SN OVC029 M11/M14 A2968 RMK AO2 P0000
0244726145947052025010419517+44205-072565FM-15+0342KMPV V0203205N00265008845MN0048285N5-01065-01395100765ADDAA101000025AU110030015AW1715GA1085+008845999GD14991+0088459GE19AGL   +99999+99999GF199999999999008841999999MA1100515096495MW1715REMMET10401/04/25 14:51:02 METAR KMPV 041951Z 32005KT 3SM -SN OVC029 M11/M14 A2968 RMK AO2 SLP076 P0000 T11061139
0241726145947052025010420117+44205-072565FM-16+0342KMPV V0203305N00215008535MN0040235N5-01065-01335999999ADDAA101000021AU110030015AW1715GA1085+008535999GD14991+0085359GE19AGL   +99999+99999GF199999999999008531999999MA1100545096525MW1715REMMET10101/04/25 15:11:02 SPECI KMPV 042011Z 33004KT 2 1/2SM -SN OVC028 M11/M13 A2969 RMK AO2 P0000 T11061133
0237726145947052025010420197+44205-072565FM-16+0342KMPV V0203305N00215009145MN0048285N5-01115-01395999999ADDAA101000021AU110030015AW1715GA1085+009145999GD14991+0091459GE19AGL   +99999+99999GF199999999999009141999999MA1100545096525MW1715REMMET09701/04/25 15:19:02 SPECI KMPV 042019Z 33004KT 3SM -SN OVC030 M11/M14 A2969 RMK AO2 P0000 T11111139
0241726145947052025010420337+44205-072565FM-16+0342KMPV V0203305N00265007925MN0040235N5-01115-01395999999ADDAA101000021AU110030015AW1715GA1085+007925999GD14991+0079259GE19AGL   +99999+99999GF199999999999007921999999MA1100545096525MW1715REMMET10101/04/25 15:33:02 SPECI KMPV 042033Z 33005KT 2 1/2SM -SN OVC026 M11/M14 A2969 RMK AO2 P0000 T11111139
0300726145947052025010420517+44205-072565FM-15+0342KMPV V0203205N00215008535MN0064375N5-01115-01395100805ADDAA101000025AA203000021AU110030015AW1715GA1085+008535999GD14991+0085359GE19AGL   +99999+99999GF199999999999008531999999MA1100545096525MD1390059+9999MW1715REMMET11601/04/25 15:51:02 METAR KMPV 042051Z 32004KT 4SM -SN OVC028 M11/M14 A2969 RMK AO2 SLP080 P0000 60000 T11111139 53005EQDQ01  00008PRCP03
0237726145947052025010421007+44205-072565FM-16+0342KMPV V0203105N00155010065MN0080475N5-01115-01395999999ADDAA101000021AU110030015AW1715GA1085+010065999GD14991+0100659GE19AGL   +99999+99999GF199999999999010061999999MA1100545096525MW1715REMMET09701/04/25 16:00:02 SPECI KMPV 042100Z 31003KT 5SM -SN OVC033 M11/M14 A2969 RMK AO2 P0000 T11111139
0261726145947052025010421517+44205-072565FM-15+0342KMPV V0203605N00155012195MN0144845N5-01175-01395100835ADDAA101000025GA1045+009145999GA2085+012195999GD12991+0091459GD24991+0121959GE19AGL   +99999+99999GF199999999999009141999999MA1100585096565REMMET11301/04/25 16:51:02 METAR KMPV 042151Z 36003KT 9SM SCT030 OVC040 M12/M14 A2970 RMK AO2 SNE03 SLP083 P0000 T11171139
0270726145947052025010422517+44205-072565FM-15+0342KMPV V0203305N00215010065MN0064375N5-01115-01335100885ADDAA101000025AU110030015AU200001015AW1105AW2715GA1085+010065999GD14991+0100659GE19AGL   +99999+99999GF199999999999010061999999MA1100645096625MW1715REMMET11301/04/25 17:51:02 METAR KMPV 042251Z 33004KT 4SM -SN BR OVC033 M11/M13 A2972 RMK AO2 SNB14 SLP088 P0000 T11111133
0261726145947052025010423097+44205-072565FM-16+0342KMPV V0203305N00155009455MN0040235N5-01115-01335999999ADDAA101000021AU110030015AU200001015AW1105AW2715GA1085+009455999GD14991+0094559GE19AGL   +99999+99999GF199999999999009451999999MA1100645096625MW1715REMMET10401/04/25 18:09:02 SPECI KMPV 042309Z 33003KT 2 1/2SM -SN BR OVC031 M11/M13 A2972 RMK AO2 P0000 T11111133
0237726145947052025010423217+44205-072565FM-16+0342KMPV V0209999C00005010065MN0048285N5-01065-01335999999ADDAA101000021AU110030015AW1715GA1085+010065999GD14991+0100659GE19AGL   +99999+99999GF199999999999010061999999MA1100645096625MW1715REMMET09701/04/25 18:21:02 SPECI KMPV 042321Z 00000KT 3SM -SN OVC033 M11/M13 A2972 RMK AO2 P0000 T11061133
0338726145947052025010423517+44205-072565FM-15+0342KMPV V0201605N00265011285MN0064375N5-01115-01395100895ADDAA101000025AA206000021AU110030015AW1715GA1085+011285999GD14991+0112859GE19AGL   +99999+99999GF199999999999011281999999KA1060M-01001KA2060N-01171MA1100645096625MD1190089+9999MW1715REMMET12801/04/25 18:51:02 METAR KMPV 042351Z 16005KT 4SM -SN OVC037 M11/M14 A2972 RMK AO2 SLP089 P0000 60000 T11111139 11100 21117 51008EQDQ01  00008PRCP06
0241726145947052025010500347+44205-072565FM-16+0342KMPV V0209999C00005008845MN0040235N5-01115-01395999999ADDAA101000021AU110030015AW1715GA1085+008845999GD14991+0088459GE19AGL   +99999+99999GF199999999999008841999999MA1100645096625MW1715REMMET10101/04/25 19:34:01 SPECI KMPV 050034Z 00000KT 2 1/2SM -SN OVC029 M11/M14 A2972 RMK AO2 P0000 T11111139
0244726145947052025010500517+44205-072565FM-15+0342KMPV V0201805N00155007015MN0032195N5-01115-01395100905ADDAA101000025AU110030015AW1715GA1085+007015999GD14991+0070159GE19AGL   +99999+99999GF199999999999007011999999MA1100645096625MW1715REMMET10401/04/25 19:51:01 METAR KMPV 050051Z 18003KT 2SM -SN OVC023 M11/M14 A2972 RMK AO2 SLP090 P0000 T11111139
0275726145947052025010501117+44205-072565FM-16+0342KMPV V0209999C00005012805MN0064375N5-01065-01335999999ADDAA101000021AU110030015AW1715GA1045+009455999GA2085+012805999GD12991+0094559GD24991+0128059GE19AGL   +99999+99999GF199999999999009451999999MA1100645096625MW1715REMMET10401/04/25 20:11:01 SPECI KMPV 050111Z 00000KT 4SM -SN SCT031 OVC042 M11/M13 A2972 RMK AO2 P0000 T11061133
0286726145947052025010501517+44205-072565FM-15+0342KMPV V0203305N00265008535MN0040235N5-01005-01285100905ADDAA101000025AU110030015AW1715GA1075+008535999GA2085+011585999GD13991+0085359GD24991+0115859GE19AGL   +99999+99999GF199999999999008531999999MA1100685096655MW1715REMMET11501/04/25 20:51:01 METAR KMPV 050151Z 33005KT 2 1/2SM -SN BKN028 OVC038 M10/M13 A2973 RMK AO2 SLP090 P0000 T11001128
0313726145947052025010502067+44205-072565FM-16+0342KMPV V0200505N00215011285MN0032195N5-01005-01285999999ADDAA101000021AU110030015AW1715GA1025+002135999GA2045+006715999GA3085+011285999GD11991+0021359GD22991+0067159GD34991+0112859GE19AGL   +99999+99999GF199999999999002131999999MA1100685096655MW1715REMMET11101/04/25 21:06:01 SPECI KMPV 050206Z 05004KT 2SM -SN FEW007 SCT022 OVC037 M10/M13 A2973 RMK AO2 P0000 T11001128
0337726145947052025010502147+44205-072565FM-16+0342KMPV V0200605N00155007325MN0040235N5-01065-01285999999ADDAA101000021AU110030015AU200001015AW1105AW2715GA1045+002135999GA2075+007325999GA3085+011285999GD12991+0021359GD23991+0073259GD34991+0112859GE19AGL   +99999+99999GF199999999999002131999999MA1100685096655MW1715REMMET11801/04/25 21:14:01 SPECI KMPV 050214Z 06003KT 2 1/2SM -SN BR SCT007 BKN024 OVC037 M11/M13 A2973 RMK AO2 P0000 T11061128
0337726145947052025010502277+44205-072565FM-16+0342KMPV V0200405N00215002445MN0040235N5-01115-01335999999ADDAA101000021AU110030015AU200001015AW1105AW2715GA1075+002445999GA2075+008535999GA3085+011285999GD13991+0024459GD23991+0085359GD34991+0112859GE19AGL   +99999+99999GF199999999999002441999999MA1100715096695MW1715REMMET11801/04/25 21:27:01 SPECI KMPV 050227Z 04004KT 2 1/2SM -SN BR BKN008 BKN028 OVC037 M11/M13 A2974 RMK AO2 P0000 T11111133
0333726145947052025010502387+44205-072565FM-16+0342KMPV V0200705N00155002445MN0048285N5-01115-01335999999ADDAA101000021AU110030015AU200001015AW1105AW2715GA1075+002445999GA2075+010975999GA3085+013115999GD13991+0024459GD23991+0109759GD34991+0131159GE19AGL   +99999+99999GF199999999999002441999999MA1100715096695MW1715REMMET11401/04/25 21:38:01 SPECI KMPV 050238Z 07003KT 3SM -SN BR BKN008 BKN036 OVC043 M11/M13 A2974 RMK AO2 P0000 T11111133
0338726145947052025010502517+44205-072565FM-15+0342KMPV V0209999V00265011285MN0096565N5-01065-01335100995ADDAA101000025AA203000021AU110030015AW1715GA1045+002745999GA2085+011285999GD12991+0027459GD24991+0112859GE19AGL   +99999+99999GF199999999999002741999999MA1100755096725MD1390119+9999MW1715REMMET12301/04/25 21:51:01 METAR KMPV 050251Z VRB05KT 6SM -SN SCT009 OVC037 M11/M13 A2975 RMK AO2 SLP099 P0000 60000 T11061133 53011EQDQ01  00008PRCP03
0248726145947052025010503517+44205-072565FM-15+0342KMPV V0203205N00315010675MN0040235N5-01115-01395101055ADDAA101000025AU110030015AW1715GA1085+010675999GD14991+0106759GE19AGL   +99999+99999GF199999999999010671999999MA1100815096795MW1715REMMET10801/04/25 22:51:02 METAR KMPV 050351Z 32006KT 2 1/2SM -SN OVC035 M11/M14 A2977 RMK AO2 SLP105 P0000 T11111139
0237726145947052025010504047+44205-072565FM-16+0342KMPV V0203005N00265010675MN0064375N5-01115-01395999999ADDAA101000021AU110030015AW1715GA1085+010675999GD14991+0106759GE19AGL   +99999+99999GF199999999999010671999999MA1100815096795MW1715REMMET09701/04/25 23:04:02 SPECI KMPV 050404Z 30005KT 4SM -SN OVC035 M11/M14 A2977 RMK AO2 P0000 T11111139
0318726145947052025010504517+44205-072565FM-15+0342KMPV V0202805N00315010975MN0080475N5-01115-01395101035ADDAA101000025AU110030015AW1715GA1075+010975999GA2085+015245999GD13991+0109759GD24991+0152459GE19AGL   +99999+99999GF199999999999010971999999KA1240M-00831KA2240N-01221MA1100785096755MW1715REMMET12101/04/25 23:51:02 METAR KMPV 050451Z 28006KT 5SM -SN BKN036 OVC050 M11/M14 A2976 RMK AO2 SLP103 P0000 T11111139 410831122
0959726145947052025010504596+44205-072565SOD  +0342KMPV V020999999999999999999999999999+99999+99999999999ADDAA124000025AT1AU18SN  5AT2AU13BR  5AT3AU19UP  5AX1016246AX2086246KA1240M-00825KA2240N-01215MG1096544100444OE11240120731010535OE22240076030010545OE33240035899999995REMSOD74924 HR PRECIPITATION (IN):T     WEATHER(CODE):1,8  24 HR MAX TEMP (F):17 24 HR MAX TEMP TIME (LST):0033 24 HR MIN TEMP (F):10 24 HR MIN TEMP TIME (LST):0912 AVERAGE STATION PRESSURE(D):28.508 MINIMUM SEA LEVEL PRESSURE:29.66 TIME OF OCCURRENCE:0147 PEAK WIND SPEED (MPH):27  PEAK WIND DIR (DEG):310 PEAK WIND TIME (LST):1053  FASTEST 2MIN SPEED (MPH):17 FASTEST 2MIN DIR (DEG):300 FASTEST 2MIN TIME (LST):1054 AVERAGE WIND SPEED (MPH): 8.0 24 HR AVG TEMP (F):14 HEATING DEGREE DAYS: 51 COOLING DEGREE DAYS:  0 LATEST DAY MAX TEMP (0700-1900 LST): 14 LATEST NIGHT MIN TEMP(1900-0800 LST):11 HOURLY INCREMENTAL PRECIPITATION VALUES (IN):0.00 0.00 0.00 0.00 0.00 0.00T    T    T    T    T    T    T    T    T    T    T    T    T    T    T    T    T    TEQDR01   1,87AXW093R02   1,87AXW093
0355726145947052025010505517+44205-072565FM-15+0342KMPV V0203105N00215015245MN0096565N5-01065-01395101035ADDAA101000025AA206000021AU110030015AW1715GA1085+015245999GD14991+0152459GE19AGL   +99999+99999GF199999999999015241999999KA1060M-01001KA2060N-01111MA1100785096755MD1590029+9999MW1715REMMET14501/05/25 00:51:02 METAR KMPV 050551Z 31004KT 6SM -SN OVC050 M11/M14 A2976 RMK AO2 UPB39E42SNE02B42 SLP103 P0000 60000 T11061139 11100 21111 55002EQDQ01  00008PRCP06
0257726145947052025010506517+44205-072565FM-15+0342KMPV V0203205N00265009145MN0064375N5-01115-01395101105ADDAA101000025AU100007015AW1051GA1085+009145999GD14991+0091459GE19AGL   +99999+99999GF199999999999009141999999MA1100855096825MW1055REMMET11701/05/25 01:51:02 METAR KMPV 050651Z 32005KT 4SM HZ OVC030 M11/M14 A2978 RMK AO2 SNE0558B37E50 SLP110 P0000 T11111139
0243726145947052025010506587+44205-072565FM-16+0342KMPV V0203305N00215008535MN0048285N5-01115-01395999999ADDAA101000021AU110030015AW1715GA1085+008535999GD14991+0085359GE19AGL   +99999+99999GF199999999999008531999999MA1100855096825MW1715REMMET10301/05/25 01:58:02 SPECI KMPV 050658Z 33004KT 3SM -SN OVC028 M11/M14 A2978 RMK AO2 SNB55 P0000 T11111139
0245726145947052025010507137+44205-072565FM-16+0342KMPV V0203305N00315009755MN0048285N5-01115-01395999999ADDAA101000021AU110030015AW1715GA1085+009755999GD14991+0097559GE19AGL   +99999+99999GF199999999999009751999999MA1100855096825MW1715REMMET10501/05/25 02:13:02 SPECI KMPV 050713Z 33006KT 3SM -SN OVC032 M11/M14 A2978 RMK AO2 SNB0655 P0000 T11111139
0252726145947052025010507517+44205-072565FM-15+0342KMPV V0203305N00315010975MN0048285N5-01115-01395101105ADDAA101000025AU110030015AW1715GA1085+010975999GD14991+0109759GE19AGL   +99999+99999GF199999999999010971999999MA1100855096825MW1715REMMET11201/05/25 02:51:02 METAR KMPV 050751Z 33006KT 3SM -SN OVC036 M11/M14 A2978 RMK AO2 SNB0655 SLP110 P0000 T11111139
0309726145947052025010508517+44205-072565FM-15+0342KMPV V0203005N00155015245MN0080475N5-01115-01395101125ADDAA101000025AA203000021AU110030015AW1715GA1085+015245999GD14991+0152459GE19AGL   +99999+99999GF199999999999015241999999MA1100885096855MD1190079+9999MW1715REMMET12501/05/25 03:51:02 METAR KMPV 050851Z 30003KT 5SM -SN OVC050 M11/M14 A2979 RMK AO2 SNE27B46 SLP112 P0000 60000 T11111139 51007EQDQ01  00008PRCP03
0244726145947052025010509517+44205-072565FM-15+0342KMPV V0203405N00155018295MN0096565N5-01115-01395101085ADDAA101000025AU110030015AW1715GA1085+018295999GD14991+0182959GE19AGL   +99999+99999GF199999999999018291999999MA1100815096795MW1715REMMET10401/05/25 04:51:02 METAR KMPV 050951Z 34003KT 6SM -SN OVC060 M11/M14 A2977 RMK AO2 SLP108 P0000 T11111139
