0187726114547712025010100547+44533-072615FM-15+0223KMVL V0209999C000052200059N0160935N5-00065-00285101065ADDAA101000095GA1005+999999999GD10991+9999999GF100991999999999999999999MA1100985098345REMMET09212/31/24 19:54:03 METAR KMVL 010054Z 00000KT 10SM CLR M01/M03 A2982 RMK AO2 SLP106 T10061028
0186726114547712025010101547+44533-072615FM-15+0223KMVL V0209999C000052200059N0144845N5-00175-00335101025ADDAA101000095GA1005+999999999GD10991+9999999GF100991999999999999999999MA1100955098305REMMET09112/31/24 20:54:03 METAR KMVL 010154Z 00000KT 9SM CLR M02/M03 A2981 RMK AO2 SLP102 T10171033
0207726114547712025010102547+44533-072615FM-15+0223KMVL V0209999C000052200059N0160935N5-00115-00335100925ADDAA101000095GA1005+999999999GD10991+9999999GF100991999999999999999999MA1100855098205MD1890149+9999REMMET09812/31/24 21:54:03 METAR KMVL 010254Z 00000KT 10SM CLR M01/M03 A2978 RMK AO2 SLP092 T10111033 58014
0230726114547712025010103547+44533-072615FM-15+0223KMVL V0209999C000052200059N0112655N5-00225-00395100805ADDAA101000095GA1025+033535999GD11991+0335359GE19AGL   +99999+99999GF102995999999033531999999MA1100715098075REMMET09412/31/24 22:54:03 METAR KMVL 010354Z 00000KT 7SM FEW110 M02/M04 A2974 RMK AO2 SLP080 T10221039EQDD01      0ADE726
0263726114547712025010104547+44533-072615FM-15+0223KMVL V0202005N00215033535MN0160935N5-00225-00395100715ADDAA101000095GA1075+033535999GD13991+0335359GE19AGL   +99999+99999GF199999999999033531999999KA1240M+00831KA2240N-00281MA1100645098015WA1900099REMMET11112/31/24 23:54:03 METAR KMVL 010454Z 20004KT 10SM BKN110 M02/M04 A2972 RMK AO2 SLP071 I1000 T10221039 400831028
0898726114547712025010104596+44533-072615SOD  +0223KMVL V020999999999999999999999999999+99999+99999999999ADDAA124000595AT1AW16RA  1KA1240M+00835KA2240N-00275MG1098124100344OE11240089422000345OE22240058121007195OE33240014399999995REMSOD73024 HR PRECIPITATION (IN):0.02  24 HR MAX TEMP (F):47 24 HR MAX TEMP TIME (LST):1435 24 HR MIN TEMP (F):27 24 HR MIN TEMP TIME (LST):2348 AVERAGE STATION PRESSURE:28.975 MINIMUM SEA LEVEL PRESSURE:29.63 TIME OF OCCURRENCE:0024 PEAK WIND SPEED (MPH):20  PEAK WIND DIR (DEG):220 PEAK WIND TIME (LST):0034  FASTEST 2MIN SPEED (MPH):13 FASTEST 2MIN DIR (DEG):210 FASTEST 2MIN TIME (LST):0719 AVERAGE WIND SPEED (MPH):3.2  24 HR AVG TEMP (F):37 HEATING DEGREE DAYS:28  COOLING DEGREE DAYS:0   LATEST DAY MAX TEMP (0700-1900 LST):47  LATEST NIGHT MIN TEMP(1900-0800 LST):36 HOURLY INCREMENTAL PRECIPITATION VALUES (IN):.01 0.01 T    T    0.00 0.00 0.00 0.00 T    T    0.00 0.00 0.00 0.00 0.00 0.00 0.00 0.00 0.00 0.00 0.00 0.00 0.00 0.00EQDR01     N7GJS072R02     N7GKS075
1247726114547712025010104596+44533-072615SOM  +0223KMVL V020999999999999999999999999999+99999+99999999999ADDAB10064595AD10034091112999999996AE1175075015015AH1005000592913595AH2010001092913595AH3015001591119425AH4020001891119505AH5030002391119565AH6045003091120045AI1060003891120045AI2080004691120045AI3100005391119565AI4120006191120045AI5150006691120045AI6180007491120045KB1744N-09335KB2744M-00285KB3744A-04785KC1N9-02382623995KC2M9+01113099995KD1744H12835KD2744C00005KE1185005275065MH1099294102074MK1104911419465099420512425REMSOM799PCP MTOT:2.54 PCP GT 24HRS:1.34 DATE(S):11-12 DAYS W/PCP >=.01:17 DAYS W/PCP >=.10:7  DAYS W/ PCP >=.50:1 DAYS W/PCP >=1.00:1 MSDP AMTS W/DATE-TIME TAGS:MIN:5 0.02  29/1359 MIN:10 0.04  29/1359 MIN:15 0.06  11/1942 MIN:20 0.07  11/1950 MIN:30 0.09  11/1956 MIN:45 0.12  11/2004 MIN:60 0.15  11/2004 MIN:80 0.18  11/2004 MIN:100 0.21  11/1956 MIN:120 0.24  11/2004 MIN:150 0.26  11/2004 MIN:180 0.29  11/2004 AVG DLY MIN:15.2  AVG DLY MAX:31.5  AVG MLY TMP:23.4  MIN TMP:-11DATE(S):26 23 MAX TMP:52  DATE(S):30 DAYS MAX <=32:1 DAYS MAX >=90:0  DAYS MIN <=32:27 DAYS MIN  <=0:6  AVG STP:29.320 LWST SLP:29.36 DATE/TIME:051242 HGST SLP:30.98 DATE/TIME:141946 HDD MTH TOT:1283 DEP NORM:-2553 SEASON(JUL 1-JUN 30):2709 DEP NORM:-25536 CDD MTH TOT:0 DEP NORM:-2553 SEASON(JAN 1-DEC 31):471 DEP NORM:-25536EQDR01  1.347ADP081
0285726114547712025010105547+44533-072615FM-15+0223KMVL V0209999C00005036585MN0160935N5-00115-00285100655ADDAA101000095GA1075+036585999GD13991+0365859GE19AGL   +99999+99999GF199999999999036581999999KA1060M+00001KA2060N-00281MA1100585097945MD1690259+9999WA1900099REMMET11901/01/25 00:54:02 METAR KMVL 010554Z 00000KT 10SM BKN120 M01/M03 A2970 RMK AO2 SLP065 I6000 T10111028 10000 21028 56025
0212726114547712025010106547+44533-072615FM-15+0223KMVL V0209999C00005036585MN0160935N5-00065-00285100555ADDAA101000095GA1075+036585999GD13991+0365859GE19AGL   +99999+99999GF199999999999036581999999MA1100475097845REMMET09501/01/25 01:54:02 METAR KMVL 010654Z 00000KT 10SM BKN120 M01/M03 A2967 RMK AO2 SLP055 T10061028
0231726114547712025010107547+44533-072615FM-15+0223KMVL V0209999C000052200059N0160935N5-00065-00225100515ADDAA101000095GA1045+036585999GD12991+0365859GE19AGL   +99999+99999GF104995999999036581999999MA1100445097815REMMET09501/01/25 02:54:02 METAR KMVL 010754Z 00000KT 10SM SCT120 M01/M02 A2966 RMK AO2 SLP051 T10061022EQDD01      0ADE726
0308726114547712025010108547+44533-072615FM-15+0223KMVL V0209999C00005025915MN0160935N5-00065-00225100295ADDAA101000095GA1025+021345999GA2075+025915999GA3085+033535999GD11991+0213459GD23991+0259159GD34991+0335359GE19AGL   +99999+99999GF199999999999021341999999MA1100205097585MD1890369+9999REMMET11501/01/25 03:54:02 METAR KMVL 010854Z 00000KT 10SM FEW070 BKN085 OVC110 M01/M02 A2959 RMK AO2 SLP029 T10061022 58036
0258726114547712025010109547+44533-072615FM-15+0223KMVL V0201905N00315010675MN0160935N5+00115-00115100275ADDAA101000395AU110020015AW1615GA1085+010675999GD14991+0106759GE19AGL   +99999+99999GF199999999999010671999999MA1100205097585MW1615REMMET11801/01/25 04:54:02 METAR KMVL 010954Z 19006KT 10SM -RA OVC035 01/M01 A2959 RMK AO2 UPB41E48RAB48 SLP027 P0000 T00111011
0310726114547712025010110127+44533-072615FM-16+0223KMVL V0209999C00005004575MN0112655N5+00225+00005999999ADDAA101000731AU120020015AW1625GA1075+004575999GA2075+006405999GA3085+008235999GD13991+0045759GD23991+0064059GD34991+0082359GE19AGL   +99999+99999GF199999999999004571999999MA1100175097545MW1655REMMET10801/01/25 05:12:02 SPECI KMVL 011012Z 00000KT 7SM RA BKN015 BKN021 OVC027 02/00 A2958 RMK AO2 P0003 T00220000
0292726114547712025010110197+44533-072615FM-16+0223KMVL V0209999C00005003965MN0080475N5+00175+00005999999ADDAA101001031AU120020015AU200001015AW1105AW2625GA1075+003965999GA2085+006405999GD13991+0039659GD24991+0064059GE19AGL   +99999+99999GF199999999999003961999999MA1100175097545MW1655REMMET10401/01/25 05:19:02 SPECI KMVL 011019Z 00000KT 5SM RA BR BKN013 OVC021 02/00 A2958 RMK AO2 P0004 T00170000
0293726114547712025010110397+44533-072615FM-16+0223KMVL V0209999C00005005795MN0096565N5+00175-00065999999ADDAA101001531AU120020015AU200001015AW1105AW2625GA1045+003965999GA2085+005795999GD12991+0039659GD24991+0057959GE19AGL   +99999+99999GF199999999999003961999999MA1100175097545MW1655REMMET10501/01/25 05:39:02 SPECI KMVL 011039Z 00000KT 6SM RA BR SCT013 OVC019 02/M01 A2958 RMK AO2 P0006 T00171006
0243726114547712025010110547+44533-072615FM-15+0223KMVL V0203405N00265006105MN0144845N5+00115-00065100225ADDAA101001595AU110020015AW1615GA1085+006105999GD14991+0061059GE19AGL   +99999+99999GF199999999999006101999999MA1100145097515MW1615REMMET10301/01/25 05:54:02 METAR KMVL 011054Z 34005KT 9SM -RA OVC020 01/M01 A2957 RMK AO2 SLP022 P0006 T00111006
0464726114547712025010111547+44533-072615FM-15+0223KMVL V0209999C00005006105MN0160935N5+00115-00065100125ADDAA101000025AA206001891AA324001891AU110020015AW1615GA1075+006105999GA2075+007325999GA3085+010065999GD13991+0061059GD23991+0073259GD34991+0100659GE19AGL   +99999+99999GF199999999999006101999999KA1060M+00221KA2060N-00111MA1100035097415MD1890189+9999MW1615REMMET16501/01/25 06:54:02 METAR KMVL 011154Z 00000KT 10SM -RA BKN020 BKN024 OVC033 01/M01 A2954 RMK AO2 RAE15B44UPB15E32 SLP012 P0001 60007 70007 T00111006 10022 21011 58018EQDQ01  00178PRCP06Q02  00178PRCP24
0301726114547712025010112547+44533-072615FM-15+0223KMVL V0203405N00215005795MN0096565N5+00115-00065100015ADDAA101000895AU110020015AU200001015AW1105AW2615GA1075+005795999GA2085+008535999GD13991+0057959GD24991+0085359GE19AGL   +99999+99999GF199999999999005791999999MA1099935097315MW1615REMMET11301/01/25 07:54:02 METAR KMVL 011254Z 34004KT 6SM -RA BR BKN019 OVC028 01/M01 A2951 RMK AO2 SLP001 P0003 T00111006
0301726114547712025010113547+44533-072615FM-15+0223KMVL V0200205N00155008535MN0064375N5+00115-00065099975ADDAA101000895AU110020015AU200001015AW1105AW2615GA1025+007015999GA2085+008535999GD11991+0070159GD24991+0085359GE19AGL   +99999+99999GF199999999999007011999999MA1099905097285MW1615REMMET11301/01/25 08:54:02 METAR KMVL 011354Z 02003KT 4SM -RA BR FEW023 OVC028 01/M01 A2950 RMK AO2 SLP997 P0003 T00111006
0255726114547712025010114127+44533-072615FM-16+0223KMVL V0209999C00005009455MN0048285N5+00175+00005999999ADDAA101000021AU110020015AU200001015AW1105AW2615GA1085+009455999GD14991+0094559GE19AGL   +99999+99999GF199999999999009451999999MA1099865097245MW1615REMMET09801/01/25 09:12:02 SPECI KMVL 011412Z 00000KT 3SM -RA BR OVC031 02/00 A2949 RMK AO2 P0000 T00170000
0293726114547712025010114237+44533-072615FM-16+0223KMVL V0209999C00005009145MN0080475N5+00175+00005999999ADDAA101000231AU110020015AU200001015AW1105AW2615GA1025+002445999GA2085+009145999GD11991+0024459GD24991+0091459GE19AGL   +99999+99999GF199999999999002441999999MA1099865097245MW1615REMMET10501/01/25 09:23:02 SPECI KMVL 011423Z 00000KT 5SM -RA BR FEW008 OVC030 02/00 A2949 RMK AO2 P0001 T00170000
0245726114547712025010114517+44533-072615FM-16+0223KMVL V0209999C00005008845MN0080475N5+00205+00105999999ADDAA101000231AU110020015AU200001015AW1105AW2615GA1085+008845999GD14991+0088459GE19AGL   +99999+99999GF199999999999008841999999MA1099865097245MW1615REMMET08801/01/25 09:51:02 SPECI KMVL 011451Z 00000KT 5SM -RA BR OVC029 02/01 A2949 RMK AO2 P0001
0318726114547712025010114547+44533-072615FM-15+0223KMVL V0209999C00005008845MN0064375N5+00225+00065099965ADDAA101000395AA203001891AU110020015AU200001015AW1105AW2615GA1085+008845999GD14991+0088459GE19AGL   +99999+99999GF199999999999008841999999MA1099865097245MD1690059+9999MW1615REMMET11701/01/25 09:54:02 METAR KMVL 011454Z 00000KT 4SM -RA BR OVC029 02/01 A2949 RMK AO2 SLP996 P0001 60007 T00220006 56005EQDQ01  00178PRCP03
0255726114547712025010115057+44533-072615FM-16+0223KMVL V0202105N00155009145MN0048285N5+00175+00065999999ADDAA101000021AU110020015AU200001015AW1105AW2615GA1085+009145999GD14991+0091459GE19AGL   +99999+99999GF199999999999009141999999MA1099865097245MW1615REMMET09801/01/25 10:05:02 SPECI KMVL 011505Z 21003KT 3SM -RA BR OVC030 02/01 A2949 RMK AO2 P0000 T00170006
0303726114547712025010115137+44533-072615FM-16+0223KMVL V0201705N00155009145MN0048285N5+00175+00065999999ADDAA101000021AU120090015AU200001015AW1105AW2401AW3415GA1025+000615999GA2085+009145999GD11991+0006159GD24991+0091459GE19AGL   +99999+99999GF199999999999000611999999MA1099865097245REMMET11501/01/25 10:13:02 SPECI KMVL 011513Z 17003KT 3SM UP BR FEW002 OVC030 02/01 A2949 RMK AO2 RAE10UPB10 P0000 T00170006
0348726114547712025010115357+44533-072615FM-16+0223KMVL V0202005N00155001525MN0080475N5+00175+00065999999ADDAA101000231AU110020015AU200001015AW1105AW2615GA1075+001525999GA2075+008235999GA3085+010065999GD13991+0015259GD23991+0082359GD34991+0100659GE19AGL   +99999+99999GF199999999999001521999999MA1099835097215MW1615REMMET12901/01/25 10:35:02 SPECI KMVL 011535Z 20003KT 5SM -RA BR BKN005 BKN027 OVC033 02/01 A2948 RMK AO2 RAE10B17UPB10E17 P0001 T00170006
0265726114547712025010115547+44533-072615FM-15+0223KMVL V0201605N00155001835MN0128755N5+00225+00115099895ADDAA101000395AU110020015AW1615GA1085+001835999GD14991+0018359GE19AGL   +99999+99999GF199999999999001831999999MA1099805097185MW1615REMMET12501/01/25 10:54:02 METAR KMVL 011554Z 16003KT 8SM -RA OVC006 02/01 A2947 RMK AO2 RAE10B17UPB10E17B40E42 SLP989 P0001 T00220011
0302726114547712025010116247+44533-072615FM-16+0223KMVL V0201705N00155001525MN0080475N5+00225+00115999999ADDAA101000021AU110020015AU200001015AW1105AW2615GA1075+001525999GA2085+009755999GD13991+0015259GD24991+0097559GE19AGL   +99999+99999GF199999999999001521999999MA1099735097115MW1615REMMET11401/01/25 11:24:02 SPECI KMVL 011624Z 17003KT 5SM -RA BR BKN005 OVC032 02/01 A2945 RMK AO2 UPB14E22 P0000 T00220011
0347726114547712025010116377+44533-072615FM-16+0223KMVL V0201705N00155001225MN0096565N5+00285+00175999999ADDAA101000021AU120090015AU200001015AW1105AW2401AW3415GA1075+001225999GA2075+005185999GA3085+009755999GD13991+0012259GD23991+0051859GD34991+0097559GE19AGL   +99999+99999GF199999999999001221999999MA1099735097115REMMET12801/01/25 11:37:02 SPECI KMVL 011637Z 17003KT 6SM UP BR BKN004 BKN017 OVC032 03/02 A2945 RMK AO2 RAE36UPB14E22B36 P0000 T00280017
0361726114547712025010116547+44533-072615FM-15+0223KMVL V0201505N00155001225MN0080475N5+00285+00175099785ADDAA101000025AU110020015AU200001015AW1105AW2615GA1075+001225999GA2075+007625999GA3085+009145999GD13991+0012259GD23991+0076259GD34991+0091459GE19AGL   +99999+99999GF199999999999001221999999MA1099705097085MW1615REMMET14201/01/25 11:54:02 METAR KMVL 011654Z 15003KT 5SM -RA BR BKN004 BKN025 OVC030 03/02 A2944 RMK AO2 RAE36B40UPB14E22B36E40 SLP978 P0000 T00280017
0282726114547712025010117417+44533-072615FM-16+0223KMVL V0209999C00005010975MN0112655N5+00335+00225999999ADDAA101000021AU110020015AW1615GA1045+001225999GA2085+010975999GD12991+0012259GD24991+0109759GE19AGL   +99999+99999GF199999999999001221999999MA1099635097015MW1615REMMET11101/01/25 12:41:02 SPECI KMVL 011741Z 00000KT 7SM -RA SCT004 OVC036 03/02 A2942 RMK AO2 RAE13B37 P0000 T00330022
0322726114547712025010117547+44533-072615FM-15+0223KMVL V0202005N00155009755MN0160935N5+00285+00175099685ADDAA101000395AA206002391GA1085+009755999GD14991+0097559GE19AGL   +99999+99999GF199999999999009751999999KA1060M+00331KA2060N+00061MA1099595096985MD1890279+9999REMMET13501/01/25 12:54:02 METAR KMVL 011754Z 20003KT 10SM OVC032 03/02 A2941 RMK AO2 RAE13B37E52 SLP968 P0001 60009 T00280017 10033 20006 58027EQDQ01  00228PRCP06
0318726114547712025010118307+44533-072615FM-16+0223KMVL V0209999C00005007625MN0160935N5+00335+00175999999ADDAA101000021AU110020015AW1615GA1025+005495999GA2075+007625999GA3085+009145999GD11991+0054959GD23991+0076259GD34991+0091459GE19AGL   +99999+99999GF199999999999005491999999MA1099565096955MW1615REMMET11601/01/25 13:30:02 SPECI KMVL 011830Z 00000KT 10SM -RA FEW018 BKN025 OVC030 03/02 A2940 RMK AO2 RAB02 P0000 T00330017
0249726114547712025010118547+44533-072615FM-15+0223KMVL V0201505N00155007325MN0160935N5+00335+00225099625ADDAA101000025AU110020015AW1615GA1085+007325999GD14991+0073259GE19AGL   +99999+99999GF199999999999007321999999MA1099565096955MW1615REMMET10901/01/25 13:54:02 METAR KMVL 011854Z 15003KT 10SM -RA OVC024 03/02 A2940 RMK AO2 RAB02 SLP962 P0000 T00330022
0293726114547712025010119177+44533-072615FM-16+0223KMVL V0201805N00155005795MN0160935N5+00335+00225999999ADDAA101000021GA1025+001835999GA2075+005795999GA3085+007925999GD11991+0018359GD23991+0057959GD34991+0079259GE19AGL   +99999+99999GF199999999999001831999999MA1099565096955REMMET11401/01/25 14:17:02 SPECI KMVL 011917Z 18003KT 10SM FEW006 BKN019 OVC026 03/02 A2940 RMK AO2 RAE1859 P0000 T00330022
0229726114547712025010119526+44533-072615FM-16+0223KMVL V0201605N00265002135MN0160935N5+00305+00205999999ADDGA1075+002135999GA2075+004575999GA3085+010365999GD13991+0021359GD23991+0045759GD34991+0103659MA1099565096955REMMET10901/01/25 14:52:02 SPECI KMVL 011952Z 16005KT 10SM BKN007 BKN015 OVC034 03/02 A2940 RMK AO2 RAE1859 P0000 FIBI
0300726114547712025010119547+44533-072615FM-15+0223KMVL V0201605N00265002135MN0160935N5+00335+00225099645ADDAA101000095GA1075+002135999GA2075+004575999GA3085+010365999GD13991+0021359GD23991+0045759GD34991+0103659GE19AGL   +99999+99999GF199999999999002131999999MA1099565096955REMMET12101/01/25 14:54:02 METAR KMVL 011954Z 16005KT 10SM BKN007 BKN015 OVC034 03/02 A2940 RMK AO2 RAE1859 SLP964 P0000 T00330022
0230726114547712025010120437+44533-072615FM-16+0223KMVL V0201905N00215006715MN0160935N5+00335+00175999999ADDGA1045+002135999GA2085+006715999GD12991+0021359GD24991+0067159GE19AGL   +99999+99999GF199999999999002131999999MA1099565096955REMMET09301/01/25 15:43:02 SPECI KMVL 012043Z 19004KT 10SM SCT007 OVC022 03/02 A2940 RMK AO2 T00330017
0285726114547712025010120547+44533-072615FM-15+0223KMVL V0201805N00215006405MN0160935N5+00285+00175099645ADDAA101000095AA203000021GA1075+006405999GA2085+010065999GD13991+0064059GD24991+0100659GE19AGL   +99999+99999GF199999999999006401999999MA1099565096955MD1690049+9999REMMET11201/01/25 15:54:02 METAR KMVL 012054Z 18004KT 10SM BKN021 OVC033 03/02 A2940 RMK AO2 SLP964 60000 T00280017 56004
0268726114547712025010121187+44533-072615FM-16+0223KMVL V0201305N00215011285MN0160935N5+00285+00115999999ADDGA1025+007325999GA2045+009145999GA3085+011285999GD11991+0073259GD22991+0091459GD34991+0112859GE19AGL   +99999+99999GF199999999999007321999999MA1099565096955REMMET10001/01/25 16:18:02 SPECI KMVL 012118Z 13004KT 10SM FEW024 SCT030 OVC037 03/01 A2940 RMK AO2 T00280011
0268726114547712025010121247+44533-072615FM-16+0223KMVL V0200905N00155008235MN0160935N5+00285+00115999999ADDGA1045+001525999GA2075+008235999GA3085+011895999GD12991+0015259GD23991+0082359GD34991+0118959GE19AGL   +99999+99999GF199999999999001521999999MA1099565096955REMMET10001/01/25 16:24:02 SPECI KMVL 012124Z 09003KT 10SM SCT005 BKN027 OVC039 03/01 A2940 RMK AO2 T00280011
0230726114547712025010121327+44533-072615FM-16+0223KMVL V0209999C00005001225MN0160935N5+00285+00115999999ADDGA1075+001225999GA2085+011285999GD13991+0012259GD24991+0112859GE19AGL   +99999+99999GF199999999999001221999999MA1099565096955REMMET09301/01/25 16:32:02 SPECI KMVL 012132Z 00000KT 10SM BKN004 OVC037 03/01 A2940 RMK AO2 T00280011
0151726114547712025010121526+44533-072615FM-16+0223KMVL V0209999C00005001525MN0160935N5+00305+00105999999ADDGA1085+001525999GD14991+0015259MA1099595096985REMMET09301/01/25 16:52:02 SPECI KMVL 012152Z 00000KT 10SM OVC005 03/01 A2941 RMK AO2 CIG 004V009 FIBI
0222726114547712025010121547+44533-072615FM-15+0223KMVL V0209999C00005001525MN0160935N5+00285+00115099665ADDAA101000095GA1085+001525999GD14991+0015251GE19AGL   +99999+99999GF199999999999001521999999MA1099595096985REMMET10501/01/25 16:54:02 METAR KMVL 012154Z 00000KT 10SM OVC005 03/01 A2941 RMK AO2 CIG 004V009 SLP966 T00280011
0204726114547712025010122077+44533-072615FM-16+0223KMVL V0209999C00005002135MN0160935N5+00285+00115999999ADDGA1085+002135999GD14991+0021351GE19AGL   +99999+99999GF199999999999002131999999MA1099595096985REMMET09801/01/25 17:07:02 SPECI KMVL 012207Z 00000KT 10SM OVC007 03/01 A2941 RMK AO2 CIG 004V010 T00280011
0268726114547712025010122277+44533-072615FM-16+0223KMVL V0209999C00005007925MN0160935N5+00285+00115999999ADDGA1045+002135999GA2075+007925999GA3085+010065999GD12991+0021359GD23991+0079259GD34991+0100659GE19AGL   +99999+99999GF199999999999002131999999MA1099595096985REMMET10001/01/25 17:27:02 SPECI KMVL 012227Z 00000KT 10SM SCT007 BKN026 OVC033 03/01 A2941 RMK AO2 T00280011
0254726114547712025010122526+44533-072615FM-16+0223KMVL V0209999C00005010065MN0160935N5+00305+00105999999ADDAU110020015AW1615GA1025+007625999GA2075+010065999GA3085+012195999GD11991+0076259GD23991+0100659GD34991+0121959MA1099595096985MW1615REMMET11101/01/25 17:52:02 SPECI KMVL 012252Z 00000KT 10SM -RA FEW025 BKN033 OVC040 03/01 A2941 RMK AO2 RAB34 P0000 FIBI
0301726114547712025010122547+44533-072615FM-15+0223KMVL V0202205N00155010065MN0160935N5+00285+00115099675ADDAA101000025GA1025+007625999GA2075+010065999GA3085+012195999GD11991+0076259GD23991+0100659GD34991+0121959GE19AGL   +99999+99999GF199999999999007621999999MA1099595096985REMMET12201/01/25 17:54:02 METAR KMVL 012254Z 22003KT 10SM FEW025 BKN033 OVC040 03/01 A2941 RMK AO2 RAB34E53 SLP967 P0000 T00280011
0419726114547712025010123547+44533-072615FM-15+0223KMVL V0202305N00215010675MN0160935N5+00225+00065099695ADDAA101000395AA206000391AU110020015AW1615GA1025+006105999GA2075+010675999GA3085+013415999GD11991+0061059GD23991+0106759GD34991+0134159GE19AGL   +99999+99999GF199999999999006101999999KA1060M+00331KA2060N+00221MA1099635097015MD1390039+9999MW1615REMMET14701/01/25 18:54:02 METAR KMVL 012354Z 23004KT 10SM -RA FEW020 BKN035 OVC044 02/01 A2942 RMK AO2 RAB18 SLP969 P0001 60001 T00220006 10033 20022 53003EQDQ01  00028PRCP06
0298726114547712025010200547+44533-072615FM-15+0223KMVL V0209999C00005011285MN0160935N5+00175+00005099725ADDAA101000025GA1025+004575999GA2025+008845999GA3085+011285999GD11991+0045759GD21991+0088459GD34991+0112859GE19AGL   +99999+99999GF199999999999004571999999MA1099665097045REMMET11901/01/25 19:54:01 METAR KMVL 020054Z 00000KT 10SM FEW015 FEW029 OVC037 02/00 A2943 RMK AO2 RAE43 SLP972 P0000 T00170000
0268726114547712025010201077+44533-072615FM-16+0223KMVL V0209999C00005011285MN0160935N5+00175+00005999999ADDGA1025+002745999GA2045+004885999GA3085+011285999GD11991+0027459GD22991+0048859GD34991+0112859GE19AGL   +99999+99999GF199999999999002741999999MA1099665097045REMMET10001/01/25 20:07:01 SPECI KMVL 020107Z 00000KT 10SM FEW009 SCT016 OVC037 02/00 A2943 RMK AO2 T00170000
0211726114547712025010201547+44533-072615FM-15+0223KMVL V0201405N00215009455MN0160935N5+00115-00065099715ADDAA101000095GA1085+009455999GD14991+0094559GE19AGL   +99999+99999GF199999999999009451999999MA1099635097015REMMET09401/01/25 20:54:01 METAR KMVL 020154Z 14004KT 10SM OVC031 01/M01 A2942 RMK AO2 SLP971 T00111006
0305726114547712025010202547+44533-072615FM-15+0223KMVL V0202005N00315010365MN0144845N5+00115-00065099695ADDAA101000025AA203000021AU110030015AW1715GA1085+010365999GD14991+0103659GE19AGL   +99999+99999GF199999999999010361999999MA1099635097015MD1090019+9999MW1715REMMET12101/01/25 21:54:01 METAR KMVL 020254Z 20006KT 9SM -SN OVC034 01/M01 A2942 RMK AO2 SNB36 SLP969 P0000 60000 T00111006 50001EQDQ01  00008PRCP03
0243726114547712025010203547+44533-072615FM-15+0223KMVL V0201705N00215010365MN0112655N5+00115-00115099695ADDAA101000025AU110030015AW1715GA1085+010365999GD14991+0103659GE19AGL   +99999+99999GF199999999999010361999999MA1099635097015MW1715REMMET10301/01/25 22:54:02 METAR KMVL 020354Z 17004KT 7SM -SN OVC034 01/M01 A2942 RMK AO2 SLP969 P0000 T00111011
0279726114547712025010204547+44533-072615FM-15+0223KMVL V0202005N00315011585MN0144845N5+00115-00175099675ADDAA101000395AU110030015AW1715GA1085+011585999GD14991+0115859GE19AGL   +99999+99999GF199999999999011581999999KA1240M+00331KA2240N-00221MA1099595096985MW1715REMMET11301/01/25 23:54:02 METAR KMVL 020454Z 20006KT 9SM -SN OVC038 01/M02 A2941 RMK AO2 SLP967 P0000 T00111017 400331022
0934726114547712025010204596+44533-072615SOD  +0223KMVL V020999999999999999999999999999+99999+99999999999ADDAA124004695AT1AU16RA  5AT2AU18SN  5AT3AU13BR  5AT4AU19UP  5KA1240M+00335KA2240N-00215MG1097324099634OE11240071527023575OE22240035823023585OE33240014399999995REMSOD73024 HR PRECIPITATION (IN):0.18  24 HR MAX TEMP (F):38 24 HR MAX TEMP TIME (LST):1548 24 HR MIN TEMP (F):28 24 HR MIN TEMP TIME (LST):0005 AVERAGE STATION PRESSURE:28.740 MINIMUM SEA LEVEL PRESSURE:29.42 TIME OF OCCURRENCE:1640 PEAK WIND SPEED (MPH):16  PEAK WIND DIR (DEG):270 PEAK WIND TIME (LST):2357  FASTEST 2MIN SPEED (MPH):8  FASTEST 2MIN DIR (DEG):230 FASTEST 2MIN TIME (LST):2358 AVERAGE WIND SPEED (MPH):3.2  24 HR AVG TEMP (F):33 HEATING DEGREE DAYS:32  COOLING DEGREE DAYS:0   LATEST DAY MAX TEMP (0700-1900 LST):38  LATEST NIGHT MIN TEMP(1900-0800 LST):27 HOURLY INCREMENTAL PRECIPITATION VALUES (IN):.00 0.00 0.00 0.00 0.01 0.06 T    0.03 0.03 0.01 0.01 T    0.01 T    0.00 0.00 0.00 T    0.01 T    0.00 T    T    0.01EQDR01     N7GJS072R02     N7GKS075
0375726114547712025010205547+44533-072615FM-15+0223KMVL V0209999V00215008535MN0080475N5+00115-00225099705ADDAA101000025AA206000391AU110030015AW1715GA1075+008535999GA2085+012805999GD13991+0085359GD24991+0128059GE19AGL   +99999+99999GF199999999999008531999999KA1060M+00221KA2060N+00061MA1099635097015MD1390019+9999MW1715REMMET13401/02/25 00:54:02 METAR KMVL 020554Z VRB04KT 5SM -SN BKN028 OVC042 01/M02 A2942 RMK AO2 SLP970 P0001 60001 T00111022 10022 20006 53001EQDQ01  00028PRCP06
0176726114547712025010206526+44533-072615FM-16+0223KMVL V0209999999999007015MN0040235N5+00005-00305999999ADDAU110030015AW1715GA1085+007015999GD14991+0070159MA1099705097085MW1715REMMET09501/02/25 01:52:02 SPECI KMVL 020652Z      KT 2 1/2SM -SN OVC023 00/M03 A2944 RMK AO2 P0000 FIBI
0243726114547712025010206547+44533-072615FM-15+0223KMVL V0202605N00365007015MN0032195N5+00005-00285099775ADDAA101000025AU110030015AW1715GA1085+007015999GD14991+0070159GE19AGL   +99999+99999GF199999999999007011999999MA1099705097085MW1715REMMET10301/02/25 01:54:02 METAR KMVL 020654Z 26007KT 2SM -SN OVC023 00/M03 A2944 RMK AO2 SLP977 P0000 T00001028
0236726114547712025010207297+44533-072615FM-16+0223KMVL V0201705N00215006405MN0048285N5+00005-00285999999ADDAA101000021AU110030015AW1715GA1085+006405999GD14991+0064059GE19AGL   +99999+99999GF199999999999006401999999MA1099765097145MW1715REMMET09601/02/25 02:29:02 SPECI KMVL 020729Z 17004KT 3SM -SN OVC021 00/M03 A2946 RMK AO2 P0000 T00001028
0261726114547712025010207407+44533-072615FM-16+0223KMVL V0201705N00315006715MN0040235N5-00065-00285999999ADDAA101000021AU110030015AU200001015AW1105AW2715GA1085+006715999GD14991+0067159GE19AGL   +99999+99999GF199999999999006711999999MA1099765097145MW1715REMMET10401/02/25 02:40:02 SPECI KMVL 020740Z 17006KT 2 1/2SM -SN BR OVC022 M01/M03 A2946 RMK AO2 P0000 T10061028
0257726114547712025010207477+44533-072615FM-16+0223KMVL V0209999C00005006715MN0048285N5-00065-00285999999ADDAA101000021AU110030015AU200001015AW1105AW2715GA1085+006715999GD14991+0067159GE19AGL   +99999+99999GF199999999999006711999999MA1099765097145MW1715REMMET10001/02/25 02:47:02 SPECI KMVL 020747Z 00000KT 3SM -SN BR OVC022 M01/M03 A2946 RMK AO2 P0000 T10061028
0268726114547712025010207547+44533-072615FM-15+0223KMVL V0209999C00005006715MN0040235N5-00065-00285099835ADDAA101000025AU110030015AU200001015AW1105AW2715GA1085+006715999GD14991+0067159GE19AGL   +99999+99999GF199999999999006711999999MA1099765097145MW1715REMMET11101/02/25 02:54:02 METAR KMVL 020754Z 00000KT 2 1/2SM -SN BR OVC022 M01/M03 A2946 RMK AO2 SLP983 P0000 T10061028
0241726114547712025010208227+44533-072615FM-16+0223KMVL V0209999C00005005795MN0028165N5-00065-00335999999ADDAA101000021AU110030015AW1715GA1085+005795999GD14991+0057959GE19AGL   +99999+99999GF199999999999005791999999MA1099805097185MW1715REMMET10101/02/25 03:22:02 SPECI KMVL 020822Z 00000KT 1 3/4SM -SN OVC019 M01/M03 A2947 RMK AO2 P0000 T10061033
0304726114547712025010208547+44533-072615FM-15+0223KMVL V0209999N99999004575MN0024145N5-00065-00395099895ADDAA101000025AA203000021AU110030015AW1715GA1085+004575999GD14991+0045759GE19AGL   +99999+99999GF199999999999004571999999MA1099835097215MD1390129+9999MW1715REMMET12001/02/25 03:54:02 METAR KMVL 020854Z      KT 1 1/2SM -SN OVC015 M01/M04 A2948 RMK AO2 SLP989 P0000 60000 T10061039 53012EQDQ01  00008PRCP03
0241726114547712025010209197+44533-072615FM-16+0223KMVL V0209999C00005003965MN0020125N5-00115-00395999999ADDAA101000021AU110030015AW1715GA1085+003965999GD14991+0039659GE19AGL   +99999+99999GF199999999999003961999999MA1099865097245MW1715REMMET10101/02/25 04:19:02 SPECI KMVL 020919Z 00000KT 1 1/4SM -SN OVC013 M01/M04 A2949 RMK AO2 P0000 T10111039
0236726114547712025010209347+44533-072615FM-16+0223KMVL V0202705N00265003665WN0016095N5-00115-00395999999ADDAA101000021AU110030015AW1715GA1095+003665999GD15991+0036659GE19AGL   +99999+99999GF109991999999003661999999MA1099865097245MW1715REMMET09601/02/25 04:34:02 SPECI KMVL 020934Z 27005KT 1SM -SN VV012 M01/M04 A2949 RMK AO2 P0000 T10111039
0241726114547712025010209427+44533-072615FM-16+0223KMVL V0209999V00315003965MN0020125N5-00115-00395999999ADDAA101000021AU110030015AW1715GA1085+003965999GD14991+0039659GE19AGL   +99999+99999GF199999999999003961999999MA1099865097245MW1715REMMET10101/02/25 04:42:02 SPECI KMVL 020942Z VRB06KT 1 1/4SM -SN OVC013 M01/M04 A2949 RMK AO2 P0000 T10111039
0248726114547712025010209547+44533-072615FM-15+0223KMVL V0209999N99999003965MN0020125N5-00115-00395099965ADDAA101000025AU110030015AW1715GA1085+003965999GD14991+0039659GE19AGL   +99999+99999GF199999999999003961999999MA1099905097285MW1715REMMET10801/02/25 04:54:02 METAR KMVL 020954Z      KT 1 1/4SM -SN OVC013 M01/M04 A2950 RMK AO2 SLP996 P0000 T10111039
0236726114547712025010210327+44533-072615FM-16+0223KMVL V0209999V00215003665WN0016095N5-00175-00445999999ADDAA101000021AU110030015AW1715GA1095+003665999GD15991+0036659GE19AGL   +99999+99999GF109991999999003661999999MA1099935097315MW1715REMMET09601/02/25 05:32:02 SPECI KMVL 021032Z VRB04KT 1SM -SN VV012 M02/M04 A2951 RMK AO2 P0000 T10171044
0254726114547712025010210547+44533-072615FM-15+0223KMVL V0203105N00265003665WN0016095N5-00175-00445100045ADDAA101000025AU110030015AW1715GA1095+003665999GD15991+0036659GE19AGL   +99999+99999GF109991999999003661999999MA1099975097345MW1715OC100825REMMET10601/02/25 05:54:02 METAR KMVL 021054Z 31005G16KT 1SM -SN VV012 M02/M04 A2952 RMK AO2 SLP004 P0000 T10171044
0281726114547712025010211427+44533-072615FM-16+0223KMVL V0202905V00415003965WN0012075N5-00175-00505999999ADDAA101000021AU110030015AW1715GA1095+003965999GD15991+0039659GE19AGL   +99999+99999GF109991999999003961999999MA1100005097385MW1715OC101135OD149901441280REMMET11901/02/25 06:42:02 SPECI KMVL 021142Z 29008G22KT 3/4SM -SN VV013 M02/M05 A2953 RMK AO2 PK WND 28028/1103 P0000 T10171050
0269726114547712025010211507+44533-072615FM-16+0223KMVL V0202905V00415004275WN0016095N5-00205-00505999999ADDAA101000021AU110030015AW1715GA1095+004275999GD15991+0042759GE19AGL   +99999+99999GF109991999999004271999999MA1100005097385MW1715OC101035OD149901441280REMMET10701/02/25 06:50:02 SPECI KMVL 021150Z 29008G20KT 1SM -SN VV014 M02/M05 A2953 RMK AO2 PK WND 28028/1103 P0000
0413726114547712025010211547+44533-072615FM-15+0223KMVL V0203105N00465004275WN0016095N5-00175-00505100085ADDAA101000025AA206000021AA324002891AU110030015AW1715GA1095+004275999GD15991+0042759GE19AGL   +99999+99999GF109991999999004271999999KA1060M+00111KA2060N-00171MA1100005097385MD1090129+9999MW1715OC101035OD149901441280REMMET15401/02/25 06:54:02 METAR KMVL 021154Z 31009G20KT 1SM -SN VV014 M02/M05 A2953 RMK AO2 PK WND 28028/1103 SLP008 P0000 60000 70011 T10171050 10011 21017 50012EQDQ01  00008PRCP06Q02  00278PRCP24
0252726114547712025010211597+44533-072615FM-16+0223KMVL V0203105N00625004885MN0020125N5-00115-00505999999ADDAA101000021AU110030015AW1715GA1085+004885999GD14991+0048859GE19AGL   +99999+99999GF199999999999004881999999MA1100005097385MW1715OC101245REMMET10401/02/25 06:59:02 SPECI KMVL 021159Z 31012G24KT 1 1/4SM -SN OVC016 M01/M05 A2953 RMK AO2 P0000 T10111050
0250726114547712025010212447+44533-072615FM-16+0223KMVL V0202805V00365006715MN0012075N5-00115-00565999999ADDAA101000021AU110030015AW1715GA1085+006715999GD14991+0067159GE19AGL   +99999+99999GF199999999999006711999999MA1100035097415MW1715OC101035REMMET10201/02/25 07:44:02 SPECI KMVL 021244Z 28007G20KT 3/4SM -SN OVC022 M01/M06 A2954 RMK AO2 P0000 T10111056
0257726114547712025010212547+44533-072615FM-15+0223KMVL V0203105N00575006715MN0012075N5-00115-00565100145ADDAA101000025AU110030015AW1715GA1085+006715999GD14991+0067159GE19AGL   +99999+99999GF199999999999006711999999MA1100075097445MW1715OC101085REMMET10901/02/25 07:54:02 METAR KMVL 021254Z 31011G21KT 3/4SM -SN OVC022 M01/M06 A2955 RMK AO2 SLP014 P0000 T10111056
0318726114547712025010213257+44533-072615FM-16+0223KMVL V0202805V00625010365MN0016095N5-00115-00565999999ADDAA101000021AU110030015AW1715GA1045+007925999GA2085+010365999GD12991+0079259GD24991+0103659GE19AGL   +99999+99999GF199999999999007921999999MA1100075097445MW1715OC101545OD149901541320REMMET12501/02/25 08:25:02 SPECI KMVL 021325Z 28012G30KT 1SM -SN SCT026 OVC034 M01/M06 A2955 RMK AO2 PK WND 32030/1324 P0000 T10111056
0301726114547712025010213497+44533-072615FM-16+0223KMVL V0209999N99999009145MN0020125N5-00105-00605999999ADDAA101000021AU110030015AW1715GA1075+009145999GA2085+010675999GD13991+0091459GD24991+0106759GE19AGL   +99999+99999GF199999999999009141999999MA1100145097515MW1715OD149901541320REMMET11601/02/25 08:49:02 SPECI KMVL 021349Z      KT 1 1/4SM -SN BKN030 OVC035 M01/M06 A2957 RMK AO2 PK WND 32030/1324 P0000
0229726114547712025010213526+44533-072615FM-16+0223KMVL V0209999999999009145MN0016095N5-00105-00605999999ADDAU110030015AW1715GA1075+009145999GA2085+010675999GD13991+0091459GD24991+0106759MA1100105097485MW1715REMMET11701/02/25 08:52:02 SPECI KMVL 021352Z      KT 1SM -SN BKN030 OVC035 M01/M06 A2956 RMK AO2 PK WND 32030/1324 P0000 FIBI
0325726114547712025010213547+44533-072615FM-15+0223KMVL V0202805V00415009145MN0016095N5-00115-00615100245ADDAA101000025AU110030015AW1715GA1075+009145999GA2085+010675999GD13991+0091459GD24991+0106759GE19AGL   +99999+99999GF199999999999009141999999MA1100175097545MW1715OC100935OD149901541320REMMET13201/02/25 08:54:02 METAR KMVL 021354Z 28008G18KT 1SM -SN BKN030 OVC035 M01/M06 A2958 RMK AO2 PK WND 32030/1324 SLP024 P0000 T10111061
0241726114547712025010214077+44533-072615FM-16+0223KMVL V0209999N99999010065MN0024145N5-00115-00615999999ADDAA101000021AU110030015AW1715GA1085+010065999GD14991+0100659GE19AGL   +99999+99999GF199999999999010061999999MA1100175097545MW1715REMMET10101/02/25 09:07:02 SPECI KMVL 021407Z      KT 1 1/2SM -SN OVC033 M01/M06 A2958 RMK AO2 P0000 T10111061
0315726114547712025010214547+44533-072615FM-15+0223KMVL V0203005N00415010065MN0024145N5-00115-00615100325ADDAA101000025AA203000021AU110030015AW1715GA1085+010065999GD14991+0100659GE19AGL   +99999+99999GF199999999999010061999999MA1100245097615MD1390179+9999MW1715OC101245REMMET12301/02/25 09:54:02 METAR KMVL 021454Z 30008G24KT 1 1/2SM -SN OVC033 M01/M06 A2960 RMK AO2 SLP032 P0000 60000 T10111061 53017EQDQ01  00008PRCP03
0275726114547712025010215047+44533-072615FM-16+0223KMVL V0209999N99999010065MN0032195N5-00115-00675999999ADDAA101000021AU110030015AW1715GA1075+010065999GA2085+012505999GD13991+0100659GD24991+0125059GE19AGL   +99999+99999GF199999999999010061999999MA1100205097585MW1715REMMET10401/02/25 10:04:02 SPECI KMVL 021504Z      KT 2SM -SN BKN033 OVC041 M01/M07 A2959 RMK AO2 P0000 T10111067
0262726114547712025010215127+44533-072615FM-16+0223KMVL V0202905V00415010675MN0024145V5-00115-00675999999ADDAA101000021AU110030015AW1715GA1085+010675999GD14991+0106759GE19AGL   +99999+99999GF199999999999010671999999MA1100245097615MW1715OC101245REMMET11401/02/25 10:12:02 SPECI KMVL 021512Z 29008G24KT 1 1/2SM -SN OVC035 M01/M07 A2960 RMK AO2 VIS 3/4V3 P0000 T10111067
0318726114547712025010215267+44533-072615FM-16+0223KMVL V0209999V00215010675MN0048285N5-00065-00675999999ADDAA101000021AU110030015AW1715GA1075+010675999GA2085+013115999GD13991+0106759GD24991+0131159GE19AGL   +99999+99999GF199999999999010671999999MA1100205097585MW1715OC101445OD149901441310REMMET12501/02/25 10:26:02 SPECI KMVL 021526Z VRB04G28KT 3SM -SN BKN035 OVC043 M01/M07 A2959 RMK AO2 PK WND 31028/1519 P0000 T10061067
0284726114547712025010215427+44533-072615FM-16+0223KMVL V0202705V00575010675MN0028165N5-00065-00675999999ADDAA101000021AU110030015AW1715GA1085+010675999GD14991+0106759GE19AGL   +99999+99999GF199999999999010671999999MA1100205097585MW1715OC101445OD149901441310REMMET12201/02/25 10:42:02 SPECI KMVL 021542Z 27011G28KT 1 3/4SM -SN OVC035 M01/M07 A2959 RMK AO2 PK WND 31028/1519 P0000 T10061067
0291726114547712025010215547+44533-072615FM-15+0223KMVL V0202805V00675010675MN0028165N5-00065-00675100295ADDAA101000025AU110030015AW1715GA1085+010675999GD14991+0106759GE19AGL   +99999+99999GF199999999999010671999999MA1100205097585MW1715OC101245OD149901441310REMMET12901/02/25 10:54:02 METAR KMVL 021554Z 28013G24KT 1 3/4SM -SN OVC035 M01/M07 A2959 RMK AO2 PK WND 31028/1519 SLP029 P0000 T10061067
0252726114547712025010216017+44533-072615FM-16+0223KMVL V0209999V00265010675MN0040235N5-00115-00675999999ADDAA101000021AU110030015AW1715GA1085+010675999GD14991+0106759GE19AGL   +99999+99999GF199999999999010671999999MA1100205097585MW1715OC101245REMMET10401/02/25 11:01:02 SPECI KMVL 021601Z VRB05G24KT 2 1/2SM -SN OVC035 M01/M07 A2959 RMK AO2 P0000 T10111067
0296726114547712025010216227+44533-072615FM-16+0223KMVL V0202605V00775009755MN0028165V5-00065-00725999999ADDAA101000021AU110030015AW1715GA1085+009755999GD14991+0097559GE19AGL   +99999+99999GF199999999999009751999999MA1100205097585MW1715OC101705OD149901691320REMMET13401/02/25 11:22:02 SPECI KMVL 021622Z 26015G33KT 1 3/4SM -SN OVC032 M01/M07 A2959 RMK AO2 PK WND 32033/1622 VIS 1 1/4V3 P0000 T10061072
0280726114547712025010216337+44533-072615FM-16+0223KMVL V0202905V00515010365MN0048285N5-00065-00725999999ADDAA101000021AU110030015AW1715GA1085+010365999GD14991+0103659GE19AGL   +99999+99999GF199999999999010361999999MA1100205097585MW1715OC101085OD149901901320REMMET11801/02/25 11:33:02 SPECI KMVL 021633Z 29010G21KT 3SM -SN OVC034 M01/M07 A2959 RMK AO2 PK WND 32037/1623 P0000 T10061072
0330726114547712025010216397+44533-072615FM-16+0223KMVL V0202805V00625008845MN0040235V5-00065-00725999999ADDAA101000021AU110030015AW1715GA1075+008845999GA2085+010975999GD13991+0088459GD24991+0109759GE19AGL   +99999+99999GF199999999999008841999999MA1100205097585MW1715OC101395OD149901901320REMMET13701/02/25 11:39:02 SPECI KMVL 021639Z 28012G27KT 2 1/2SM -SN BKN029 OVC036 M01/M07 A2959 RMK AO2 PK WND 32037/1623 VIS 2V5 P0000 T10061072
0280726114547712025010216457+44533-072615FM-16+0223KMVL V0209999V00315010065MN0048285N5-00065-00725999999ADDAA101000021AU110030015AW1715GA1085+010065999GD14991+0100659GE19AGL   +99999+99999GF199999999999010061999999MA1100205097585MW1715OC101395OD149901901320REMMET11801/02/25 11:45:02 SPECI KMVL 021645Z VRB06G27KT 3SM -SN OVC033 M01/M07 A2959 RMK AO2 PK WND 32037/1623 P0000 T10061072
0325726114547712025010216547+44533-072615FM-15+0223KMVL V0203105V00415010675MN0064375N5-00065-00725100305ADDAA101000025AU110030015AW1715GA1075+010675999GA2085+012805999GD13991+0106759GD24991+0128059GE19AGL   +99999+99999GF199999999999010671999999MA1100205097585MW1715OC100775OD149901901320REMMET13201/02/25 11:54:02 METAR KMVL 021654Z 31008G15KT 4SM -SN BKN035 OVC042 M01/M07 A2959 RMK AO2 PK WND 32037/1623 SLP030 P0000 T10061072
0260726114547712025010217137+44533-072615FM-16+0223KMVL V0202805V00465010675MN0028165V5-00065-00725999999ADDAA101000231AU110030015AW1715GA1085+010675999GD14991+0106759GE19AGL   +99999+99999GF199999999999010671999999MA1100205097585MW1715OC101085REMMET11201/02/25 12:13:02 SPECI KMVL 021713Z 28009G21KT 1 3/4SM -SN OVC035 M01/M07 A2959 RMK AO2 VIS 1V3 P0001 T10061072
0318726114547712025010217217+44533-072615FM-16+0223KMVL V0202905V00725008535MN0016095N5-00065-00675999999ADDAA101000231AU110030015AW1715GA1075+008535999GA2085+010975999GD13991+0085359GD24991+0109759GE19AGL   +99999+99999GF199999999999008531999999MA1100245097615MW1715OC101545OD149901541290REMMET12501/02/25 12:21:02 SPECI KMVL 021721Z 29014G30KT 1SM -SN BKN028 OVC036 M01/M07 A2960 RMK AO2 PK WND 29030/1720 P0001 T10061067
0322726114547712025010217417+44533-072615FM-16+0223KMVL V0202705V00415007325MN0020125N5-00115-00615999999ADDAA101000231AU110030015AW1715GA1075+007325999GA2085+010975999GD13991+0073259GD24991+0109759GE19AGL   +99999+99999GF199999999999007321999999MA1100205097585MW1715OC101135OD149901541290REMMET12901/02/25 12:41:02 SPECI KMVL 021741Z 27008G22KT 1 1/4SM -SN BKN024 OVC036 M01/M06 A2959 RMK AO2 PK WND 29030/1720 P0001 T10111061
0244726114547712025010217526+44533-072615FM-16+0223KMVL V0203005V00465011285MN0024145N5-00105-00705999999ADDAU110030015AW1715GA1045+008535999GA2085+011285999GD12991+0085359GD24991+0112859MA1100245097615MW1715OC101035REMMET12401/02/25 12:52:02 SPECI KMVL 021752Z 30009G20KT 1 1/2SM -SN SCT028 OVC037 M01/M07 A2960 RMK AO2 PK WND 29030/1720 P0001 FIBI
0423726114547712025010217547+44533-072615FM-15+0223KMVL V0202705V00575011285MN0024145N5-00065-00675100305ADDAA101000395AA206000391AU110030015AW1715GA1045+008535999GA2085+011285999GD12991+0085359GD24991+0112859GE19AGL   +99999+99999GF199999999999008531999999KA1060M-00061KA2060N-00171MA1100205097585MD1590019+9999MW1715OC101245OD149901541290REMMET16001/02/25 12:54:02 METAR KMVL 021754Z 27011G24KT 1 1/2SM -SN SCT028 OVC037 M01/M07 A2959 RMK AO2 PK WND 29030/1720 SLP030 P0001 60001 T10061067 11006 21017 55001EQDQ01  00028PRCP06
0280726114547712025010218317+44533-072615FM-16+0223KMVL V0202705N00575011585MN0048285N5-00065-00675999999ADDAA101000021AU110030015AW1715GA1085+011585999GD14991+0115859GE19AGL   +99999+99999GF199999999999011581999999MA1100205097585MW1715OC101245OD149901391260REMMET11801/02/25 13:31:02 SPECI KMVL 021831Z 27011G24KT 3SM -SN OVC038 M01/M07 A2959 RMK AO2 PK WND 26027/1755 P0000 T10061067
0325726114547712025010218547+44533-072615FM-15+0223KMVL V0202505N00575012195MN0064375N5-00065-00725100315ADDAA101000395AU110030015AW1715GA1075+012195999GA2085+015245999GD13991+0121959GD24991+0152459GE19AGL   +99999+99999GF199999999999012191999999MA1100245097615MW1715OC101135OD149901391260REMMET13201/02/25 13:54:02 METAR KMVL 021854Z 25011G22KT 4SM -SN BKN040 OVC050 M01/M07 A2960 RMK AO2 PK WND 26027/1755 SLP031 P0001 T10061072
0311726114547712025010219357+44533-072615FM-16+0223KMVL V0209999N99999012805MN0040235N5-00065-00725999999ADDAA101000231AU110030015AW1715GA1075+012805999GA2085+015245999GD13991+0128059GD24991+0152459GE19AGL   +99999+99999GF199999999999012801999999MA1100275097645MW1715OD149901391260REMMET12601/02/25 14:35:02 SPECI KMVL 021935Z      KT 2 1/2SM -SN BKN042 OVC050 M01/M07 A2961 RMK AO2 PK WND 26027/1926 P0001 T10061072
0233726114547712025010219526+44533-072615FM-16+0223KMVL V0209999999999011285MN0028165N5-00105-00705999999ADDAU110030015AW1715GA1075+011285999GA2085+014335999GD13991+0112859GD24991+0143359MA1100305097675MW1715REMMET12101/02/25 14:52:02 SPECI KMVL 021952Z      KT 1 3/4SM -SN BKN037 OVC047 M01/M07 A2962 RMK AO2 PK WND 26027/1926 P0001 FIBI
0318726114547712025010219547+44533-072615FM-15+0223KMVL V0209999N99999011285MN0028165N5-00065-00675100395ADDAA101000395AU110030015AW1715GA1075+011285999GA2085+014335999GD13991+0112859GD24991+0143359GE19AGL   +99999+99999GF199999999999011281999999MA1100305097675MW1715OD149901391260REMMET13301/02/25 14:54:02 METAR KMVL 021954Z      KT 1 3/4SM -SN BKN037 OVC047 M01/M07 A2962 RMK AO2 PK WND 26027/1926 SLP039 P0001 T10061067
0318726114547712025010220227+44533-072615FM-16+0223KMVL V0203105V00885008535MN0016095N5-00115-00675999999ADDAA101000021AU110030015AW1715GA1075+008535999GA2085+012805999GD13991+0085359GD24991+0128059GE19AGL   +99999+99999GF199999999999008531999999MA1100345097715MW1715OC101445OD149901441310REMMET12501/02/25 15:22:02 SPECI KMVL 022022Z 31017G28KT 1SM -SN BKN028 OVC042 M01/M07 A2963 RMK AO2 PK WND 31028/2021 P0000 T10111067
0322726114547712025010220337+44533-072615FM-16+0223KMVL V0202605V00415008535MN0028165N5-00115-00675999999ADDAA101000021AU110030015AW1715GA1075+008535999GA2085+011895999GD13991+0085359GD24991+0118959GE19AGL   +99999+99999GF199999999999008531999999MA1100345097715MW1715OC100885OD149901441310REMMET12901/02/25 15:33:02 SPECI KMVL 022033Z 26008G17KT 1 3/4SM -SN BKN028 OVC039 M01/M07 A2963 RMK AO2 PK WND 31028/2021 P0000 T10111067
0330726114547712025010220417+44533-072615FM-16+0223KMVL V0202805V00365008845MN0032195V5-00115-00675999999ADDAA101000021AU110030015AW1715GA1075+008845999GA2085+012505999GD13991+0088459GD24991+0125059GE19AGL   +99999+99999GF199999999999008841999999MA1100305097675MW1715OC100935OD149901441310REMMET13701/02/25 15:41:02 SPECI KMVL 022041Z 28007G18KT 2SM -SN BKN029 OVC041 M01/M07 A2962 RMK AO2 PK WND 31028/2021 VIS 1 1/2V3 P0000 T10111067
0233726114547712025010220526+44533-072615FM-16+0223KMVL V0209999V00155010065MN0040235N5-00105-00705999999ADDAU110030015AW1715GA1075+010065999GA2085+014335999GD13991+0100659GD24991+0143359MA1100305097675MW1715REMMET12101/02/25 15:52:02 SPECI KMVL 022052Z VRB03KT 2 1/2SM -SN BKN033 OVC047 M01/M07 A2962 RMK AO2 PK WND 31028/2021 P0000 FIBI
0374726114547712025010220547+44533-072615FM-15+0223KMVL V0209999N99999010675MN0040235N5-00115-00675100415ADDAA101000025AA203000591AU110030015AW1715GA1075+010675999GA2085+014335999GD13991+0106759GD24991+0143359GE19AGL   +99999+99999GF199999999999010671999999MA1100345097715MD1190049+9999MW1715OD149901441310REMMET14501/02/25 15:54:02 METAR KMVL 022054Z      KT 2 1/2SM -SN BKN035 OVC047 M01/M07 A2963 RMK AO2 PK WND 31028/2021 SLP041 P0000 60002 T10111067 51004EQDQ01  00058PRCP03
0242726114547712025010221507+44533-072615FM-16+0223KMVL V0203105N00415008535MN0028165N5-00205-00705999999ADDAA101000021AU110030015AW1715GA1085+008535999GD14991+0085359GE19AGL   +99999+99999GF199999999999008531999999MA1100345097715MW1715OC101085REMMET09401/02/25 16:50:02 SPECI KMVL 022150Z 31008G21KT 1 3/4SM -SN OVC028 M02/M07 A2963 RMK AO2 P0000
0248726114547712025010221547+44533-072615FM-15+0223KMVL V0209999N99999007925MN0028165N5-00175-00615100455ADDAA101000025AU110030015AW1715GA1085+007925999GD14991+0079259GE19AGL   +99999+99999GF199999999999007921999999MA1100375097745MW1715REMMET10801/02/25 16:54:02 METAR KMVL 022154Z      KT 1 3/4SM -SN OVC026 M02/M06 A2964 RMK AO2 SLP045 P0000 T10171061
0259726114547712025010222547+44533-072615FM-15+0223KMVL V0209999V00215004885MN0020125N5-00225-00565100475ADDAA101000025AU110030015AW1715GA1085+004885999GD14991+0048859GE19AGL   +99999+99999GF199999999999004881999999MA1100375097745MW1715OC100985REMMET11101/02/25 17:54:02 METAR KMVL 022254Z VRB04G19KT 1 1/4SM -SN OVC016 M02/M06 A2964 RMK AO2 SLP047 P0000 T10221056
0236726114547712025010223297+44533-072615FM-16+0223KMVL V0209999N99999004575WN0016095N5-00225-00615999999ADDAA101000021AU110030015AW1715GA1095+004575999GD15991+0045759GE19AGL   +99999+99999GF109991999999004571999999MA1100415097775MW1715REMMET09601/02/25 18:29:02 SPECI KMVL 022329Z      KT 1SM -SN VV015 M02/M06 A2965 RMK AO2 P0000 T10221061
0252726114547712025010223467+44533-072615FM-16+0223KMVL V0209999V00215005495MN0020125N5-00225-00615999999ADDAA101000021AU110030015AW1715GA1085+005495999GD14991+0054959GE19AGL   +99999+99999GF199999999999005491999999MA1100375097745MW1715OC100935REMMET10401/02/25 18:46:02 SPECI KMVL 022346Z VRB04G18KT 1 1/4SM -SN OVC018 M02/M06 A2964 RMK AO2 P0000 T10221061
0353726114547712025010223547+44533-072615FM-15+0223KMVL V0209999V00315006105MN0024145N5-00225-00615100485ADDAA101000025AA206000591AU110030015AW1715GA1085+006105999GD14991+0061059GE19AGL   +99999+99999GF199999999999006101999999KA1060M+00001KA2060N-00221MA1100375097745MD1190069+9999MW1715OC101245REMMET13501/02/25 18:54:02 METAR KMVL 022354Z VRB06G24KT 1 1/2SM -SN OVC020 M02/M06 A2964 RMK AO2 SLP048 P0000 60002 T10221061 10000 21022 51006EQDQ01  00058PRCP06
0236726114547712025010300227+44533-072615FM-16+0223KMVL V0203505N00265004885WN0016095N5-00285-00565999999ADDAA101000021AU110030015AW1715GA1095+004885999GD15991+0048859GE19AGL   +99999+99999GF109991999999004881999999MA1100375097745MW1715REMMET09601/02/25 19:22:01 SPECI KMVL 030022Z 35005KT 1SM -SN VV016 M03/M06 A2964 RMK AO2 P0000 T10281056
0236726114547712025010300337+44533-072615FM-16+0223KMVL V0203005N00265003965WN0016095N5-00285-00565999999ADDAA101000021AU110030015AW1715GA1095+003965999GD15991+0039659GE19AGL   +99999+99999GF109991999999003961999999MA1100375097745MW1715REMMET09601/02/25 19:33:01 SPECI KMVL 030033Z 30005KT 1SM -SN VV013 M03/M06 A2964 RMK AO2 P0000 T10281056
0242726114547712025010300517+44533-072615FM-16+0223KMVL V0203005V00415004885MN0024145N5-00205-00605999999ADDAA101000021AU110030015AW1715GA1085+004885999GD14991+0048859GE19AGL   +99999+99999GF199999999999004881999999MA1100375097745MW1715OC101295REMMET09401/02/25 19:51:01 SPECI KMVL 030051Z 30008G25KT 1 1/2SM -SN OVC016 M02/M06 A2964 RMK AO2 P0000
0259726114547712025010300547+44533-072615FM-15+0223KMVL V0202905V00465004885MN0024145N5-00225-00615100495ADDAA101000025AU110030015AW1715GA1085+004885999GD14991+0048859GE19AGL   +99999+99999GF199999999999004881999999MA1100415097775MW1715OC101295REMMET11101/02/25 19:54:01 METAR KMVL 030054Z 29009G25KT 1 1/2SM -SN OVC016 M02/M06 A2965 RMK AO2 SLP049 P0000 T10221061
0286726114547712025010301097+44533-072615FM-16+0223KMVL V0209999V00265006715MN0032195N5-00225-00675999999ADDAA101000021AU110030015AW1715GA1075+006715999GA2085+010365999GD13991+0067159GD24991+0103659GE19AGL   +99999+99999GF199999999999006711999999MA1100415097775MW1715OC101135REMMET10701/02/25 20:09:01 SPECI KMVL 030109Z VRB05G22KT 2SM -SN BKN022 OVC034 M02/M07 A2965 RMK AO2 P0000 T10221067
0284726114547712025010301217+44533-072615FM-16+0223KMVL V0203105N00465006105MN0020125N5-00225-00675999999ADDAA101000021AU110030015AW1715GA1085+006105999GD14991+0061059GE19AGL   +99999+99999GF199999999999006101999999MA1100415097775MW1715OC101445OD149901441280REMMET12201/02/25 20:21:01 SPECI KMVL 030121Z 31009G28KT 1 1/4SM -SN OVC020 M02/M07 A2965 RMK AO2 PK WND 28028/0117 P0000 T10221067
0259726114547712025010301527+44533-072615FM-16+0223KMVL V0202805N00415005185MN0032195N5-00205-00705999999ADDAA101000021AU110030015AW1715GA1085+005185999GD14991+0051859GE19AGL   +99999+99999GF199999999999005181999999MA1100415097775MW1715OD149901441280REMMET10501/02/25 20:52:01 SPECI KMVL 030152Z 28008KT 2SM -SN OVC017 M02/M07 A2965 RMK AO2 PK WND 28028/0117 P0000
0287726114547712025010301547+44533-072615FM-15+0223KMVL V0202705V00575005185MN0032195N5-00285-00725100495ADDAA101000025AU110030015AW1715GA1085+005185999GD14991+0051859GE19AGL   +99999+99999GF199999999999005181999999MA1100415097775MW1715OC101295OD149901441280REMMET12501/02/25 20:54:01 METAR KMVL 030154Z 27011G25KT 2SM -SN OVC017 M03/M07 A2965 RMK AO2 PK WND 28028/0117 SLP049 P0000 T10281072
0307726114547712025010302127+44533-072615FM-16+0223KMVL V0209999N99999007625MN0064375N5-00225-00785999999ADDAA101000021AU110030015AW1715GA1075+007625999GA2085+010675999GD13991+0076259GD24991+0106759GE19AGL   +99999+99999GF199999999999007621999999MA1100415097775MW1715OD149901541320REMMET12201/02/25 21:12:01 SPECI KMVL 030212Z      KT 4SM -SN BKN025 OVC035 M02/M08 A2965 RMK AO2 PK WND 32030/0155 P0000 T10221078
0269726114547712025010302287+44533-072615FM-16+0223KMVL V0209999N99999009455MN0080475N5-00225-00785999999ADDAA101000021AU110030015AW1715GA1085+009455999GD14991+0094559GE19AGL   +99999+99999GF199999999999009451999999MA1100415097775MW1715OD149901541320REMMET11501/02/25 21:28:01 SPECI KMVL 030228Z      KT 5SM -SN OVC031 M02/M08 A2965 RMK AO2 PK WND 32030/0155 P0000 T10221078
0318726114547712025010302407+44533-072615FM-16+0223KMVL V0202905N00315008845MN0064375N5-00285-00785999999ADDAA101000021AU110030015AW1715GA1075+008845999GA2085+010975999GD13991+0088459GD24991+0109759GE19AGL   +99999+99999GF199999999999008841999999MA1100415097775MW1715OC100885OD149901541320REMMET12501/02/25 21:40:01 SPECI KMVL 030240Z 29006G17KT 4SM -SN BKN029 OVC036 M03/M08 A2965 RMK AO2 PK WND 32030/0155 P0000 T10281078
0334726114547712025010302547+44533-072615FM-15+0223KMVL V0209999N99999007625MN0040235V5-00285-00835100495ADDAA101000025AA203000021AU110030015AW1715GA1085+007625999GD14991+0076259GE19AGL   +99999+99999GF199999999999007621999999MA1100415097775MD1190019+9999MW1715REMMET15001/02/25 21:54:01 METAR KMVL 030254Z      KT 2 1/2SM -SN OVC025 M03/M08 A2965 RMK AO2 PK WND 32033/0253 VIS 1 1/2V4 SLP049 P0000 60000 T10281083 51001EQDQ01  00008PRCP03
0275726114547712025010303077+44533-072615FM-16+0223KMVL V0209999N99999007625MN0096565N5-00285-00835999999ADDAA101000021AU110030015AW1715GA1075+007625999GA2085+010065999GD13991+0076259GD24991+0100659GE19AGL   +99999+99999GF199999999999007621999999MA1100415097775MW1715REMMET10401/02/25 22:07:01 SPECI KMVL 030307Z      KT 6SM -SN BKN025 OVC033 M03/M08 A2965 RMK AO2 P0000 T10281083
0227726114547712025010303527+44533-072615FM-16+0223KMVL V0209999N99999006715MN0032195N5-00305-00805999999ADDAA101000021AU110030015AW1715GA1085+006715999GD14991+0067159GE19AGL   +99999+99999GF199999999999006711999999MA1100445097815MW1715REMMET08701/02/25 22:52:02 SPECI KMVL 030352Z      KT 2SM -SN OVC022 M03/M08 A2966 RMK AO2 P0000
0248726114547712025010303547+44533-072615FM-15+0223KMVL V0209999N99999006105MN0028165N5-00285-00835100525ADDAA101000025AU110030015AW1715GA1085+006105999GD14991+0061059GE19AGL   +99999+99999GF199999999999006101999999MA1100415097775MW1715REMMET10801/02/25 22:54:02 METAR KMVL 030354Z      KT 1 3/4SM -SN OVC020 M03/M08 A2965 RMK AO2 SLP052 P0000 T10281083
0248726114547712025010304077+44533-072615FM-16+0223KMVL V0202805V00365005495MN0032195N5-00335-00785999999ADDAA101000021AU110030015AW1715GA1085+005495999GD14991+0054959GE19AGL   +99999+99999GF199999999999005491999999MA1100445097815MW1715OC101035REMMET10001/02/25 23:07:02 SPECI KMVL 030407Z 28007G20KT 2SM -SN OVC018 M03/M08 A2966 RMK AO2 P0000 T10331078
0227726114547712025010304527+44533-072615FM-16+0223KMVL V0209999N99999006715MN0048285N5-00305-00805999999ADDAA101000021AU110030015AW1715GA1085+006715999GD14991+0067159GE19AGL   +99999+99999GF199999999999006711999999MA1100445097815MW1715REMMET08701/02/25 23:52:02 SPECI KMVL 030452Z      KT 3SM -SN OVC022 M03/M08 A2966 RMK AO2 P0000
0284726114547712025010304547+44533-072615FM-15+0223KMVL V0209999N99999006715MN0040235N5-00335-00835100505ADDAA101000025AU110030015AW1715GA1085+006715999GD14991+0067159GE19AGL   +99999+99999GF199999999999006711999999KA1240M+00111KA2240N-00331MA1100415097775MW1715REMMET11801/02/25 23:54:02 METAR KMVL 030454Z      KT 2 1/2SM -SN OVC022 M03/M08 A2965 RMK AO2 SLP050 P0000 T10331083 400111033
0858726114547712025010304596+44533-072615SOD  +0223KMVL V020999999999999999999999999999+99999+99999999999ADDAA124000895AT1AU18SN  5AT2AU13BR  5KA1240M+00115KA2240N-00325MG1097434099664OE11240187832011235OE22240098329011235REMSOD69724 HR PRECIPITATION (IN):0.03  24 HR MAX TEMP (F):34 24 HR MAX TEMP TIME (LST):0115 24 HR MIN TEMP (F):26 24 HR MIN TEMP TIME (LST):2359 AVERAGE STATION PRESSURE:28.770 MINIMUM SEA LEVEL PRESSURE:29.43 TIME OF OCCURRENCE:0027 PEAK WIND SPEED (MPH):42  PEAK WIND DIR (DEG):320 PEAK WIND TIME (LST):1123  FASTEST 2MIN SPEED (MPH):22 FASTEST 2MIN DIR (DEG):290 FASTEST 2MIN TIME (LST):1123 24 HR AVG TEMP (F):30 HEATING DEGREE DAYS:35  COOLING DEGREE DAYS:0   LATEST DAY MAX TEMP (0700-1900 LST):32  LATEST NIGHT MIN TEMP(1900-0800 LST):29 HOURLY INCREMENTAL PRECIPITATION VALUES (IN):    T    T    T    T    T    T    T    T    T    T    T    0.01 0.01 0.01 T    T    T    T    T    T    T    T    TEQDR01     N7GJS072R02     N7GKS075
0237726114547712025010305027+44533-072615FM-16+0223KMVL V0209999N99999007325MN0048285N5-00335-00835999999ADDAA101000021AU110030015AW1715GA1085+007325999GD14991+0073259GE19AGL   +99999+99999GF199999999999007321999999MA1100415097775MW1715REMMET09701/03/25 00:02:02 SPECI KMVL 030502Z      KT 3SM -SN OVC024 M03/M08 A2965 RMK AO2 P0000 T10331083
0290726114547712025010305097+44533-072615FM-16+0223KMVL V0203005V00415007925MN0040235N5-00335-00895999999ADDAA101000021AU110030015AW1715GA1075+007925999GA2085+010065999GD13991+0079259GD24991+0100659GE19AGL   +99999+99999GF199999999999007921999999MA1100415097775MW1715OC100985REMMET11101/03/25 00:09:02 SPECI KMVL 030509Z 30008G19KT 2 1/2SM -SN BKN026 OVC033 M03/M09 A2965 RMK AO2 P0000 T10331089
0248726114547712025010305177+44533-072615FM-16+0223KMVL V0202805V00415007925MN0048285N5-00335-00895999999ADDAA101000021AU110030015AW1715GA1085+007925999GD14991+0079259GE19AGL   +99999+99999GF199999999999007921999999MA1100415097775MW1715OC101135REMMET10001/03/25 00:17:02 SPECI KMVL 030517Z 28008G22KT 3SM -SN OVC026 M03/M09 A2965 RMK AO2 P0000 T10331089
0312726114547712025010305497+44533-072615FM-16+0223KMVL V0209999V00265008845MN0040235N5-00305-00905999999ADDAA101000021AU110030015AW1715GA1075+008845999GA2085+010975999GD13991+0088459GD24991+0109759GE19AGL   +99999+99999GF199999999999008841999999MA1100415097775MW1715OC101605OD149901591320REMMET11901/03/25 00:49:02 SPECI KMVL 030549Z VRB05G31KT 2 1/2SM -SN BKN029 OVC036 M03/M09 A2965 RMK AO2 PK WND 32031/0545 P0000
0229726114547712025010305526+44533-072615FM-16+0223KMVL V0209999999999008845MN0048285N5-00305-00905999999ADDAU110030015AW1715GA1075+008845999GA2085+010975999GD13991+0088459GD24991+0109759MA1100415097775MW1715REMMET11701/03/25 00:52:02 SPECI KMVL 030552Z      KT 3SM -SN BKN029 OVC036 M03/M09 A2965 RMK AO2 PK WND 32031/0545 P0000 FIBI
0408726114547712025010305547+44533-072615FM-15+0223KMVL V0209999N99999008845MN0048285N5-00335-00895100495ADDAA101000025AA206000021AU110030015AW1715GA1075+008845999GA2085+010975999GD13991+0088459GD24991+0109759GE19AGL   +99999+99999GF199999999999008841999999KA1060M-00221KA2060N-00331MA1100415097775MD1690049+9999MW1715OD149901591320REMMET15301/03/25 00:54:02 METAR KMVL 030554Z      KT 3SM -SN BKN029 OVC036 M03/M09 A2965 RMK AO2 PK WND 32031/0545 SLP049 P0000 60000 T10331089 11022 21033 56004EQDQ01  00008PRCP06
0286726114547712025010306207+44533-072615FM-16+0223KMVL V0202905V00365007625MN0032195N5-00335-00835999999ADDAA101000021AU110030015AW1715GA1075+007625999GA2085+009755999GD13991+0076259GD24991+0097559GE19AGL   +99999+99999GF199999999999007621999999MA1100375097745MW1715OC100935REMMET10701/03/25 01:20:02 SPECI KMVL 030620Z 29007G18KT 2SM -SN BKN025 OVC032 M03/M08 A2964 RMK AO2 P0000 T10331083
0259726114547712025010306547+44533-072615FM-15+0223KMVL V0202905V00465007015MN0040235N5-00335-00835100505ADDAA101000025AU110030015AW1715GA1085+007015999GD14991+0070159GE19AGL   +99999+99999GF199999999999007011999999MA1100415097775MW1715OC101085REMMET11101/03/25 01:54:02 METAR KMVL 030654Z 29009G21KT 2 1/2SM -SN OVC023 M03/M08 A2965 RMK AO2 SLP050 P0000 T10331083
0286726114547712025010307237+44533-072615FM-16+0223KMVL V0202705N00575008235MN0064375N5-00285-00835999999ADDAA101000021AU110030015AW1715GA1075+008235999GA2085+010675999GD13991+0082359GD24991+0106759GE19AGL   +99999+99999GF199999999999008231999999MA1100445097815MW1715OC101085REMMET10701/03/25 02:23:02 SPECI KMVL 030723Z 27011G21KT 4SM -SN BKN027 OVC035 M03/M08 A2966 RMK AO2 P0000 T10281083
0248726114547712025010307377+44533-072615FM-16+0223KMVL V0202605V00515010065MN0128755N5-00285-00895999999ADDAA101000021AU110030015AW1715GA1085+010065999GD14991+0100659GE19AGL   +99999+99999GF199999999999010061999999MA1100445097815MW1715OC101085REMMET10001/03/25 02:37:02 SPECI KMVL 030737Z 26010G21KT 8SM -SN OVC033 M03/M09 A2966 RMK AO2 P0000 T10281089
0255726114547712025010307547+44533-072615FM-15+0223KMVL V0202705V00365009755MN0112655N5-00285-00945100565ADDAA101000025AU110030015AW1715GA1085+009755999GD14991+0097559GE19AGL   +99999+99999GF199999999999009751999999MA1100475097845MW1715OC101185REMMET10701/03/25 02:54:02 METAR KMVL 030754Z 27007G23KT 7SM -SN OVC032 M03/M09 A2967 RMK AO2 SLP056 P0000 T10281094
0435726114547712025010308547+44533-072615FM-15+0223KMVL V0202905V00365012805MN0096565N5-00335-01115100585ADDAA101000025AA203000021AU120090015AW1401AW2415GA1045+010065999GA2075+012805999GA3075+014945999GD12991+0100659GD23991+0128059GD33991+0149459GE19AGL   +99999+99999GF199999999999010061999999MA1100475097845MD1390089+9999OC101245OD149901541330REMMET16701/03/25 03:54:02 METAR KMVL 030854Z 29007G24KT 6SM UP SCT033 BKN042 BKN049 M03/M11 A2967 RMK AO2 PK WND 33030/0830 UPB21SNE21B31E45 SLP058 P0000 60000 T10331111 53008EQDQ01  00008PRCP03
0286726114547712025010309547+44533-072615FM-15+0223KMVL V0202905V004652200059N0160935N5-00335-01175100565ADDAA101000025GA1025+010975999GD11991+0109759GE19AGL   +99999+99999GF102995999999010971999999MA1100475097845OC100935OD149901331280REMMET12801/03/25 04:54:02 METAR KMVL 030954Z 29009G18KT 10SM FEW036 M03/M12 A2967 RMK AO2 PK WND 28026/0922 UPE03 SLP056 P0000 T10331117EQDD01      0ADE726
0212726114547712025010310547+44533-072615FM-15+0223KMVL V0202905V00365013115MN0160935N5-00395-01175100585ADDAA101000025GA1075+013115999GD13991+0131159GE19AGL   +99999+99999GF199999999999013111999999MA1100475097845REMMET09501/03/25 05:54:02 METAR KMVL 031054Z 29007KT 10SM BKN043 M04/M12 A2967 RMK AO2 SLP058 T10391117
0388726114547712025010311547+44533-072615FM-15+0223KMVL V0203005N00365012805MN0160935N5-00445-01175100595ADDAA101000025AA206000021AA324000891GA1085+012805999GD14991+0128059GE19AGL   +99999+99999GF199999999999012801999999KA1060M-00281KA2060N-00441MA1100475097845MD1390009+9999REMMET14201/03/25 06:54:02 METAR KMVL 031154Z 30007KT 10SM OVC042 M04/M12 A2967 RMK AO2 SNB1057E06 SLP059 P0000 60000 70003 T10441117 11028 21044 53000EQDQ010     3APC3  Q023     3APCTENQ03  00008PRCP06Q04  00078PRCP24
0251726114547712025010312547+44533-072615FM-15+0223KMVL V0209999N99999012195MN0160935N5-00445-01175100585ADDAA101000025AU110030015AW1715GA1085+012195999GD14991+0121959GE19AGL   +99999+99999GF199999999999012191999999MA1100475097845MW1715REMMET11101/03/25 07:54:02 METAR KMVL 031254Z      KT 10SM -SN OVC040 M04/M12 A2967 RMK AO2 SNB54 SLP058 P0000 T10441117
0224726114547712025010313547+44533-072615FM-15+0223KMVL V0209999V00265011895MN0160935N5-00445-01175100575ADDAA101000025GA1085+011895999GD14991+0118959GE19AGL   +99999+99999GF199999999999011891999999MA1100475097845REMMET10701/03/25 08:54:02 METAR KMVL 031354Z VRB05KT 10SM OVC039 M04/M12 A2967 RMK AO2 SNE23 SLP057 P0000 T10441117
0333726114547712025010314547+44533-072615FM-15+0223KMVL V0202805N003652200059N0160935N5-00335-01285100565ADDAA101000025AA203000021AU120090015AW1401AW2415GA1025+024385999GD11991+0243859GE19AGL   +99999+99999GF102995999999024381999999MA1100445097815MD1890039+9999OC100885REMMET12501/03/25 09:54:02 METAR KMVL 031454Z 28007G17KT 10SM UP FEW080 M03/M13 A2966 RMK AO2 UPB39 SLP056 P0000 60000 T10331128 58003EQDQ01  00008PRCP03D01      0ADE726
0207726114547712025010315547+44533-072615FM-15+0223KMVL V0209999N999992200059N0160935N5-00285-01335100465ADDAA101000025GA1005+999999999GD10991+9999999GF100991999999999999999999MA1100375097745REMMET11201/03/25 10:54:02 METAR KMVL 031554Z      KT 10SM CLR M03/M13 A2964 RMK AO2 UPE1455B12E21 SLP046 P0000 T10281133
0219726114547712025010316547+44533-072615FM-15+0223KMVL V0209999V002652200059N0160935N5-00225-01285100345ADDAA101000395GA1005+999999999GD10991+9999999GF100991999999999999999999MA1100245097615OC100885REMMET11601/03/25 11:54:02 METAR KMVL 031654Z VRB05G17KT 10SM CLR M02/M13 A2960 RMK AO2 UPB16E18B48E53 SLP034 P0001 T10221128
0307726114547712025010317547+44533-072615FM-15+0223KMVL V0202705N002652200059N0160935N5-00175-01565100285ADDAA101001095AA206001391GA1005+999999999GD10991+9999999GF100991999999999999999999KA1060M-00171KA2060N-00441MA1100175097545MD1690269+9999OC100825REMMET13401/03/25 12:54:02 METAR KMVL 031754Z 27005G16KT 10SM CLR M02/M16 A2958 RMK AO2 UPB06E18 SLP028 P0004 60005 T10171156 11017 21044 56026EQDQ01  00128PRCP06
0202726114547712025010318547+44533-072615FM-15+0223KMVL V0209999V002652200059N0160935N5-00115-01395100245ADDAA101000595GA1005+999999999GD10991+9999999GF100991999999999999999999MA1100145097515REMMET10701/03/25 13:54:02 METAR KMVL 031854Z VRB05KT 10SM CLR M01/M14 A2957 RMK AO2 UPB33E44 SLP024 P0002 T10111139
0213726114547712025010319547+44533-072615FM-15+0223KMVL V0209999V002152200059N0160935N5-00115-01445100275ADDAA101000025GA1005+999999999GD10991+9999999GF100991999999999999999999MA1100175097545OC100935REMMET11001/03/25 14:54:02 METAR KMVL 031954Z VRB04G18KT 10SM CLR M01/M14 A2958 RMK AO2 UPB02E09 SLP027 P0000 T10111144
0279726114547712025010320547+44533-072615FM-15+0223KMVL V0202705V004152200059N0160935N5-00225-01445100295ADDAA101000095AA203000591GA1025+018295999GD11991+0182959GE19AGL   +99999+99999GF102995999999018291999999MA1100175097545MD1390009+9999OC100825REMMET11001/03/25 15:54:02 METAR KMVL 032054Z 27008G16KT 10SM FEW060 M02/M14 A2958 RMK AO2 SLP029 60002 T10221144 53000EQDD01      0ADE726
0187726114547712025010321547+44533-072615FM-15+0223KMVL V0209999N999992200059N0160935N5-00285-01445100345ADDAA101000095GA1005+999999999GD10991+9999999GF100991999999999999999999MA1100245097615REMMET09201/03/25 16:54:02 METAR KMVL 032154Z      KT 10SM CLR M03/M14 A2960 RMK AO2 SLP034 T10281144
0242726114547712025010322547+44533-072615FM-15+0223KMVL V0203405N004152200059N0160935N5-00505-01225100415ADDAA101000095GA1045+028965999GD12991+0289659GE19AGL   +99999+99999GF104995999999028961999999MA1100305097675OC100825REMMET09801/03/25 17:54:02 METAR KMVL 032254Z 34008G16KT 10SM SCT095 M05/M12 A2962 RMK AO2 SLP041 T10501122EQDD01      0ADE726
0306726114547712025010323547+44533-072615FM-15+0223KMVL V0203505N003652200059N0160935N5-00675-01225100465ADDAA101000095AA206000591GA1025+027435999GD11991+0274359GE19AGL   +99999+99999GF102995999999027431999999KA1060M-00111KA2060N-00671MA1100345097715MD1190159+9999REMMET11901/03/25 18:54:02 METAR KMVL 032354Z 35007KT 10SM FEW090 M07/M12 A2963 RMK AO2 SLP046 60002 T10671122 11011 21067 51015EQDD01      0ADE726
0250726114547712025010400547+44533-072615FM-15+0223KMVL V0203605N00315014025MN0080475N5-00675-01115100485ADDAA101000025AU110030015AW1715GA1085+014025999GD14991+0140259GE19AGL   +99999+99999GF199999999999014021999999MA1100345097715MW1715REMMET11001/03/25 19:54:01 METAR KMVL 040054Z 36006KT 5SM -SN OVC046 M07/M11 A2963 RMK AO2 SNB46 SLP048 P0000 T10671111
0241726114547712025010401387+44533-072615FM-16+0223KMVL V0203405N00265008535MN0040235N5-00725-01005999999ADDAA101000021AU110030015AW1715GA1085+008535999GD14991+0085359GE19AGL   +99999+99999GF199999999999008531999999MA1100375097745MW1715REMMET10101/03/25 20:38:01 SPECI KMVL 040138Z 34005KT 2 1/2SM -SN OVC028 M07/M10 A2964 RMK AO2 P0000 T10721100
0211726114547712025010401526+44533-072615FM-16+0223KMVL V0203605N00215008535MN0048285N5-00705-01005999999ADDAU110030015AW1715GA1075+008535999GA2085+015245999GD13991+0085359GD24991+0152459MA1100345097715MW1715REMMET09901/03/25 20:52:03 SPECI KMVL 040152Z 36004KT 3SM -SN BKN028 OVC050 M07/M10 A2963 RMK AO2 P0000 FIBI
0282726114547712025010401547+44533-072615FM-15+0223KMVL V0203305N00215008535MN0064375N5-00725-01005100485ADDAA101000025AU110030015AW1715GA1075+008535999GA2085+015245999GD13991+0085359GD24991+0152459GE19AGL   +99999+99999GF199999999999008531999999MA1100345097715MW1715REMMET11101/03/25 20:54:01 METAR KMVL 040154Z 33004KT 4SM -SN BKN028 OVC050 M07/M10 A2963 RMK AO2 SLP048 P0000 T10721100
0275726114547712025010402057+44533-072615FM-16+0223KMVL V0203305N00215015245MN0128755N5-00785-01065999999ADDAA101000021AU110030015AW1715GA1045+007925999GA2085+015245999GD12991+0079259GD24991+0152459GE19AGL   +99999+99999GF199999999999007921999999MA1100345097715MW1715REMMET10401/03/25 21:05:01 SPECI KMVL 040205Z 33004KT 8SM -SN SCT026 OVC050 M08/M11 A2963 RMK AO2 P0000 T10781106
0358726114547712025010402547+44533-072615FM-15+0223KMVL V0203305N00265012195MN0080475N5-00725-01225100455ADDAA101000025AA203000021AU110030015AW1715GA1075+012195999GA2085+015245999GD13991+0121959GD24991+0152459GE19AGL   +99999+99999GF199999999999012191999999MA1100345097715MD1090009+9999MW1715OC100775REMMET13501/03/25 21:54:01 METAR KMVL 040254Z 33005G15KT 5SM -SN BKN040 OVC050 M07/M12 A2963 RMK AO2 SNE08B43 SLP045 P0000 60000 T10721122 50000EQDQ01  00008PRCP03
0253726114547712025010403547+44533-072615FM-15+0223KMVL V0203505N00215010975MN0096565N5-00785-01175100455ADDAA101000025AU110030015AW1715GA1085+010975999GD14991+0109759GE19AGL   +99999+99999GF199999999999010971999999MA1100345097715MW1715REMMET11301/03/25 22:54:02 METAR KMVL 040354Z 35004KT 6SM -SN OVC036 M08/M12 A2963 RMK AO2 SNE03B41 SLP045 P0000 T10781117
0267726114547712025010404547+44533-072615FM-15+0223KMVL V0203605N00415011585MN0144845N5-00835-01285100415ADDAA101000025GA1085+011585999GD14991+0115859GE19AGL   +99999+99999GF199999999999011581999999KA1240M-00111KA2240N-00831MA1100305097675REMMET12401/03/25 23:54:02 METAR KMVL 040454Z 36008KT 9SM OVC038 M08/M13 A2962 RMK AO2 SNE0359B39E53 SLP041 P0000 T10831128 410111083
0907726114547712025010404596+44533-072615SOD  +0223KMVL V020999999999999999999999999999+99999+99999999999ADDAA124001895AT1AU18SN  5AT2AU19UP  5KA1240M-00105KA2240N-00825MG1097704100244OE11240160932000455OE22240089431003315OE33240032699999995REMSOD72724 HR PRECIPITATION (IN):0.07  24 HR MAX TEMP (F):30 24 HR MAX TEMP TIME (LST):1505 24 HR MIN TEMP (F):17 24 HR MIN TEMP TIME (LST):2359 AVERAGE STATION PRESSURE:28.850 MINIMUM SEA LEVEL PRESSURE:29.60 TIME OF OCCURRENCE:1423 PEAK WIND SPEED (MPH):36  PEAK WIND DIR (DEG):320 PEAK WIND TIME (LST):0045  FASTEST 2MIN SPEED (MPH):20 FASTEST 2MIN DIR (DEG):310 FASTEST 2MIN TIME (LST):0331 AVERAGE WIND SPEED (MPH):7.3  24 HR AVG TEMP (F):24 HEATING DEGREE DAYS:41  COOLING DEGREE DAYS:0   LATEST DAY MAX TEMP (0700-1900 LST):30  LATEST NIGHT MIN TEMP(1900-0800 LST):24 HOURLY INCREMENTAL PRECIPITATION VALUES (IN):    T    T    T    T    T    T    T    T    T    T    0.01 0.04 0.02 T    0.00 0.00 0.00 0.00 T    T    T    T    TEQDR01     N7GJS072R02     N7GKS075
0382726114547712025010405547+44533-072615FM-15+0223KMVL V0203505N00415010975MN0144845N5-00895-01335100405ADDAA101000025AA206000021AU110030015AW1715GA1075+010975999GA2085+013415999GD13991+0109759GD24991+0134159GE19AGL   +99999+99999GF199999999999010971999999KA1060M-00671KA2060N-00891MA1100275097645MD1890059+9999MW1715REMMET14101/04/25 00:54:02 METAR KMVL 040554Z 35008KT 9SM -SN BKN036 OVC044 M09/M13 A2961 RMK AO2 SNB37 SLP040 P0000 60000 T10891133 11067 21089 58005EQDQ01  00008PRCP06
0282726114547712025010406547+44533-072615FM-15+0223KMVL V0203305N00415009145MN0144845N5-00945-01395100445ADDAA101000025AU110030015AW1715GA1075+009145999GA2085+012195999GD13991+0091459GD24991+0121959GE19AGL   +99999+99999GF199999999999009141999999MA1100345097715MW1715REMMET11101/04/25 01:54:02 METAR KMVL 040654Z 33008KT 9SM -SN BKN030 OVC040 M09/M14 A2963 RMK AO2 SLP044 P0000 T10941139
0246726114547712025010407357+44533-072615FM-16+0223KMVL V0203405N00315007925MN0080475N5-01005-01395999999ADDAA101000021AU110030015AW1715GA1085+007925999GD14991+0079259GE19AGL   +99999+99999GF199999999999007921999999MA1100375097745MW1715REMMET10601/04/25 02:35:02 SPECI KMVL 040735Z 34006KT 5SM -SN OVC026 M10/M14 A2964 RMK AO2 SNE05B26 P0000 T11001139
0253726114547712025010407547+44533-072615FM-15+0223KMVL V0203305N00265007925MN0112655N5-01005-01395100505ADDAA101000025AU110030015AW1715GA1085+007925999GD14991+0079259GE19AGL   +99999+99999GF199999999999007921999999MA1100375097745MW1715REMMET11301/04/25 02:54:02 METAR KMVL 040754Z 33005KT 7SM -SN OVC026 M10/M14 A2964 RMK AO2 SNE05B26 SLP050 P0000 T11001139
0254726114547712025010408167+44533-072615FM-16+0223KMVL V0209999V00315009755MN0144845N5-01005-01505999999ADDAA101000021GA1075+009755999GA2085+011895999GD13991+0097559GD24991+0118959GE19AGL   +99999+99999GF199999999999009751999999MA1100375097745REMMET10601/04/25 03:16:02 SPECI KMVL 040816Z VRB06KT 9SM BKN032 OVC039 M10/M15 A2964 RMK AO2 SNE08 P0000 T11001150
0280726114547712025010408547+44533-072615FM-15+0223KMVL V0203005N00265010065MN0160935N5-01005-01565100505ADDAA101000025AA203000021GA1085+010065999GD14991+0100659GE19AGL   +99999+99999GF199999999999010061999999MA1100375097745MD1190099+9999REMMET11901/04/25 03:54:02 METAR KMVL 040854Z 30005KT 10SM OVC033 M10/M16 A2964 RMK AO2 SNE08 SLP050 P0000 60000 T11001156 51009EQDQ01  00008PRCP03
0232726114547712025010409177+44533-072615FM-16+0223KMVL V0209999V00265007325MN0160935N5-01005-01565999999ADDGA1075+007325999GA2085+010065999GD13991+0073259GD24991+0100659GE19AGL   +99999+99999GF199999999999007321999999MA1100415097775REMMET09501/04/25 04:17:02 SPECI KMVL 040917Z VRB05KT 10SM BKN024 OVC033 M10/M16 A2965 RMK AO2 T11001156
0250726114547712025010409547+44533-072615FM-15+0223KMVL V0203205N00265006405MN0064375N5-01005-01505100545ADDAA101000025AU110030015AW1715GA1085+006405999GD14991+0064059GE19AGL   +99999+99999GF199999999999006401999999MA1100415097775MW1715REMMET11001/04/25 04:54:02 METAR KMVL 040954Z 32005KT 4SM -SN OVC021 M10/M15 A2965 RMK AO2 SNB28 SLP054 P0000 T11001150
0217726114547712025010410477+44533-072615FM-16+0223KMVL V0209999V00215009755MN0160935N5-01065-01615999999ADDAA101000021GA1085+009755999GD14991+0097559GE19AGL   +99999+99999GF199999999999009751999999MA1100475097845REMMET10001/04/25 05:47:02 SPECI KMVL 041047Z VRB04KT 10SM OVC032 M11/M16 A2967 RMK AO2 SNE36 P0000 T11061161
0224726114547712025010410547+44533-072615FM-15+0223KMVL V0209999C00005010365MN0160935N5-01065-01615100625ADDAA101000025GA1085+010365999GD14991+0103659GE19AGL   +99999+99999GF199999999999010361999999MA1100475097845REMMET10701/04/25 05:54:02 METAR KMVL 041054Z 00000KT 10SM OVC034 M11/M16 A2967 RMK AO2 SNE36 SLP062 P0000 T11061161
0415726114547712025010411547+44533-072615FM-15+0223KMVL V0203105N00415008535MN0096565N5-01065-01615100695ADDAA101000025AA206000021AA324001891AU110030015AW1715GA1075+008535999GA2085+010065999GD13991+0085359GD24991+0100659GE19AGL   +99999+99999GF199999999999008531999999KA1060M-00891KA2060N-01061MA1100545097915MD1390179+9999MW1715REMMET14701/04/25 06:54:02 METAR KMVL 041154Z 31008KT 6SM -SN BKN028 OVC033 M11/M16 A2969 RMK AO2 SNB48 SLP069 P0000 60000 70007 T11061161 11089 21106 53017EQDQ01  00008PRCP06Q02  00178PRCP24
0216726114547712025010412477+44533-072615FM-16+0223KMVL V0209999V00215009145MN0128755N5-01175-01615999999ADDAA101000021GA1085+009145999GD14991+0091459GE19AGL   +99999+99999GF199999999999009141999999MA1100615097975REMMET09901/04/25 07:47:02 SPECI KMVL 041247Z VRB04KT 8SM OVC030 M12/M16 A2971 RMK AO2 SNE41 P0000 T11171161
0287726114547712025010412547+44533-072615FM-15+0223KMVL V0203605N00315007925MN0096565N5-01175-01675100755ADDAA101000025AU100007015AW1051GA1075+007925999GA2085+010065999GD13991+0079259GD24991+0100659GE19AGL   +99999+99999GF199999999999007921999999MA1100615097975MW1055REMMET11601/04/25 07:54:02 METAR KMVL 041254Z 36006KT 6SM HZ BKN026 OVC033 M12/M17 A2971 RMK AO2 SNE41 SLP075 P0000 T11171167
0212726114547712025010413497+44533-072615FM-16+0223KMVL V0209999V00155010065MN0160935N5-01205-01605999999ADDAA101000021GA1085+010065999GD14991+0100659GE19AGL   +99999+99999GF199999999999010061999999MA1100615097975REMMET09501/04/25 08:49:02 SPECI KMVL 041349Z VRB03KT 10SM OVC033 M12/M16 A2971 RMK AO2 SNB1256E14 P0000
0229726114547712025010413547+44533-072615FM-15+0223KMVL V0200105N00155010065MN0160935N5-01175-01615100765ADDAA101000025GA1085+010065999GD14991+0100659GE19AGL   +99999+99999GF199999999999010061999999MA1100615097975REMMET11201/04/25 08:54:02 METAR KMVL 041354Z 01003KT 10SM OVC033 M12/M16 A2971 RMK AO2 SNB1256E14 SLP076 P0000 T11171161
0281726114547712025010414247+44533-072615FM-16+0223KMVL V0200105N00315008535MN0112655N5-01175-01615999999ADDAA101000021AU110030015AW1715GA1075+008535999GA2085+010675999GD13991+0085359GD24991+0106759GE19AGL   +99999+99999GF199999999999008531999999MA1100615097975MW1715REMMET11001/04/25 09:24:02 SPECI KMVL 041424Z 01006KT 7SM -SN BKN028 OVC035 M12/M16 A2971 RMK AO2 SNB04 P0000 T11171161
0344726114547712025010414547+44533-072615FM-15+0223KMVL V0200405N00265008845MN0096565N5-01115-01565100765ADDAA101000025AA203000021AU110030015AW1715GA1075+008845999GA2085+011285999GD13991+0088459GD24991+0112859GE19AGL   +99999+99999GF199999999999008841999999MA1100615097975MD1090019+9999MW1715REMMET12901/04/25 09:54:02 METAR KMVL 041454Z 04005KT 6SM -SN BKN029 OVC037 M11/M16 A2971 RMK AO2 SNB04 SLP076 P0000 60000 T11111156 50001EQDQ01  00008PRCP03
0262726114547712025010415547+44533-072615FM-15+0223KMVL V0209999N99999009755MN0160935N5-00945-01615100715ADDAA101000025GA1075+009755999GA2085+012195999GD13991+0097559GD24991+0121959GE19AGL   +99999+99999GF199999999999009751999999MA1100585097945REMMET11401/04/25 10:54:02 METAR KMVL 041554Z      KT 10SM BKN032 OVC040 M09/M16 A2970 RMK AO2 SNE09 SLP071 P0000 T10941161
0252726114547712025010416547+44533-072615FM-15+0223KMVL V0209999V00155010675MN0144845N5-00945-01565100705ADDAA101000025AU110030015AW1715GA1085+010675999GD14991+0106759GE19AGL   +99999+99999GF199999999999010671999999MA1100545097915MW1715REMMET11201/04/25 11:54:02 METAR KMVL 041654Z VRB03KT 9SM -SN OVC035 M09/M16 A2969 RMK AO2 SNB1557 SLP070 P0000 T10941156
0376726114547712025010417547+44533-072615FM-15+0223KMVL V0203605N00315009455MN0112655N5-01005-01505100675ADDAA101000025AA206000021AU110030015AW1715GA1075+009455999GA2085+011285999GD13991+0094559GD24991+0112859GE19AGL   +99999+99999GF199999999999009451999999KA1060M-00941KA2060N-01171MA1100545097915MD1690089+9999MW1715REMMET13501/04/25 12:54:02 METAR KMVL 041754Z 36006KT 7SM -SN BKN031 OVC037 M10/M15 A2969 RMK AO2 SLP067 P0000 60000 T11001150 11094 21117 56008EQDQ01  00008PRCP06
0275726114547712025010418027+44533-072615FM-16+0223KMVL V0203605N00315008235MN0128755N5-01005-01505999999ADDAA101000021AU110030015AW1715GA1075+008235999GA2085+010675999GD13991+0082359GD24991+0106759GE19AGL   +99999+99999GF199999999999008231999999MA1100515097875MW1715REMMET10401/04/25 13:02:02 SPECI KMVL 041802Z 36006KT 8SM -SN BKN027 OVC035 M10/M15 A2968 RMK AO2 P0000 T11001150
0275726114547712025010418197+44533-072615FM-16+0223KMVL V0203605N00365009455MN0144845N5-00945-01565999999ADDAA101000021AU110030015AW1715GA1075+009455999GA2085+012195999GD13991+0094559GD24991+0121959GE19AGL   +99999+99999GF199999999999009451999999MA1100515097875MW1715REMMET10401/04/25 13:19:02 SPECI KMVL 041819Z 36007KT 9SM -SN BKN031 OVC040 M09/M16 A2968 RMK AO2 P0000 T10941156
0223726114547712025010418547+44533-072615FM-15+0223KMVL V0209999V00155010975MN0112655N5-00945-01505100665ADDAA101000025GA1085+010975999GD14991+0109759GE19AGL   +99999+99999GF199999999999010971999999MA1100515097875REMMET10601/04/25 13:54:02 METAR KMVL 041854Z VRB03KT 7SM OVC036 M09/M15 A2968 RMK AO2 SNE20 SLP066 P0000 T10941150
0229726114547712025010419547+44533-072615FM-15+0223KMVL V0200505N00315010975MN0160935N5-01005-01445100665ADDAA101000025GA1085+010975999GD14991+0109759GE19AGL   +99999+99999GF199999999999010971999999MA1100515097875REMMET11201/04/25 14:54:02 METAR KMVL 041954Z 05006KT 10SM OVC036 M10/M14 A2968 RMK AO2 SNB1856E48 SLP066 P0000 T11001144
0249726114547712025010420547+44533-072615FM-15+0223KMVL V0200405N00215010975MN0160935N5-00945-01445100705ADDAA101000095AA203000021GA1085+010975999GD14991+0109759GE19AGL   +99999+99999GF199999999999010971999999MA1100545097915MD1390029+9999REMMET10701/04/25 15:54:02 METAR KMVL 042054Z 04004KT 10SM OVC036 M09/M14 A2969 RMK AO2 SLP070 60000 T10941144 53002
0288726114547712025010421547+44533-072615FM-15+0223KMVL V0203405N00265010675MN0096565N5-00945-01395100755ADDAA101000025AU110030015AW1715GA1075+010675999GA2085+013115999GD13991+0106759GD24991+0131159GE19AGL   +99999+99999GF199999999999010671999999MA1100615097975MW1715REMMET11701/04/25 16:54:02 METAR KMVL 042154Z 34005KT 6SM -SN BKN035 OVC043 M09/M14 A2971 RMK AO2 SNB47 SLP075 P0000 T10941139
0282726114547712025010422547+44533-072615FM-15+0223KMVL V0200405N00265011895MN0080475N5-01005-01335100805ADDAA101000025AU110030015AW1715GA1075+011895999GA2085+014335999GD13991+0118959GD24991+0143359GE19AGL   +99999+99999GF199999999999011891999999MA1100645098015MW1715REMMET11101/04/25 17:54:02 METAR KMVL 042254Z 04005KT 5SM -SN BKN039 OVC047 M10/M13 A2972 RMK AO2 SLP080 P0000 T11001133
0231726114547712025010423487+44533-072615FM-16+0223KMVL V0203505N00315008535MN0040235N5-01005-01305999999ADDAA101000021AU110030015AW1715GA1085+008535999GD14991+0085359GE19AGL   +99999+99999GF199999999999008531999999MA1100685098045MW1715REMMET09101/04/25 18:48:02 SPECI KMVL 042348Z 35006KT 2 1/2SM -SN OVC028 M10/M13 A2973 RMK AO2 P0000
0338726114547712025010423547+44533-072615FM-15+0223KMVL V0203605N00315007925MN0032195N5-01005-01335100825ADDAA101000025AA206000021AU110030015AW1715GA1085+007925999GD14991+0079259GE19AGL   +99999+99999GF199999999999007921999999KA1060M-00941KA2060N-01001MA1100685098045MD1190129+9999MW1715REMMET12801/04/25 18:54:02 METAR KMVL 042354Z 36006KT 2SM -SN OVC026 M10/M13 A2973 RMK AO2 SLP082 P0000 60000 T11001133 11094 21100 51012EQDQ01  00008PRCP06
0241726114547712025010500037+44533-072615FM-16+0223KMVL V0203505N00365006715MN0024145N5-01005-01335999999ADDAA101000021AU110030015AW1715GA1085+006715999GD14991+0067159GE19AGL   +99999+99999GF199999999999006711999999MA1100685098045MW1715REMMET10101/04/25 19:03:01 SPECI KMVL 050003Z 35007KT 1 1/2SM -SN OVC022 M10/M13 A2973 RMK AO2 P0000 T11001133
0275726114547712025010500337+44533-072615FM-16+0223KMVL V0203605N00415007625MN0032195N5-01065-01335999999ADDAA101000021AU110030015AW1715GA1075+007625999GA2085+014025999GD13991+0076259GD24991+0140259GE19AGL   +99999+99999GF199999999999007621999999MA1100715098075MW1715REMMET10401/04/25 19:33:01 SPECI KMVL 050033Z 36008KT 2SM -SN BKN025 OVC046 M11/M13 A2974 RMK AO2 P0000 T11061133
0248726114547712025010500547+44533-072615FM-15+0223KMVL V0203505N00315006405MN0028165N5-01065-01335100875ADDAA101000025AU110030015AW1715GA1085+006405999GD14991+0064059GE19AGL   +99999+99999GF199999999999006401999999MA1100715098075MW1715REMMET10801/04/25 19:54:01 METAR KMVL 050054Z 35006KT 1 3/4SM -SN OVC021 M11/M13 A2974 RMK AO2 SLP087 P0000 T11061133
0241726114547712025010501267+44533-072615FM-16+0223KMVL V0203405N00265005495MN0040235N5-01065-01335999999ADDAA101000021AU110030015AW1715GA1085+005495999GD14991+0054959GE19AGL   +99999+99999GF199999999999005491999999MA1100715098075MW1715REMMET10101/04/25 20:26:01 SPECI KMVL 050126Z 34005KT 2 1/2SM -SN OVC018 M11/M13 A2974 RMK AO2 P0000 T11061133
0275726114547712025010501477+44533-072615FM-16+0223KMVL V0203405N00215006715MN0048285N5-01065-01335999999ADDAA101000021AU110030015AW1715GA1075+006715999GA2085+014635999GD13991+0067159GD24991+0146359GE19AGL   +99999+99999GF199999999999006711999999MA1100755098115MW1715REMMET10401/04/25 20:47:01 SPECI KMVL 050147Z 34004KT 3SM -SN BKN022 OVC048 M11/M13 A2975 RMK AO2 P0000 T11061133
0320726114547712025010501547+44533-072615FM-15+0223KMVL V0203305N00215006715MN0064375N5-01065-01335100905ADDAA101000025AU110030015AW1715GA1075+006715999GA2075+009755999GA3085+014635999GD13991+0067159GD23991+0097559GD34991+0146359GE19AGL   +99999+99999GF199999999999006711999999MA1100755098115MW1715REMMET11801/04/25 20:54:01 METAR KMVL 050154Z 33004KT 4SM -SN BKN022 BKN032 OVC048 M11/M13 A2975 RMK AO2 SLP090 P0000 T11061133
0237726114547712025010502377+44533-072615FM-16+0223KMVL V0203405N00365007925MN0032195N5-01065-01395999999ADDAA101000021AU110030015AW1715GA1085+007925999GD14991+0079259GE19AGL   +99999+99999GF199999999999007921999999MA1100785098145MW1715REMMET09701/04/25 21:37:01 SPECI KMVL 050237Z 34007KT 2SM -SN OVC026 M11/M14 A2976 RMK AO2 P0000 T11061139
0177726114547712025010502526+44533-072615FM-16+0223KMVL V0203605N00315006715MN0028165N5-01105-01305999999ADDAU110030015AW1715GA1085+006715999GD14991+0067159MA1100785098145MW1715REMMET09601/04/25 21:52:03 SPECI KMVL 050252Z 36006KT 1 3/4SM -SN OVC022 M11/M13 A2976 RMK AO2 P0000 FIBI
0304726114547712025010502547+44533-072615FM-15+0223KMVL V0203505N00315006715MN0028165N5-01065-01335100975ADDAA101000025AA203000021AU110030015AW1715GA1085+006715999GD14991+0067159GE19AGL   +99999+99999GF199999999999006711999999MA1100815098175MD1390139+9999MW1715REMMET12001/04/25 21:54:01 METAR KMVL 050254Z 35006KT 1 3/4SM -SN OVC022 M11/M13 A2977 RMK AO2 SLP097 P0000 60000 T11061133 53013EQDQ01  00008PRCP03
0241726114547712025010503027+44533-072615FM-16+0223KMVL V0203505N00315006715MN0040235N5-01065-01335999999ADDAA101000021AU110030015AW1715GA1085+006715999GD14991+0067159GE19AGL   +99999+99999GF199999999999006711999999MA1100815098175MW1715REMMET10101/04/25 22:02:01 SPECI KMVL 050302Z 35006KT 2 1/2SM -SN OVC022 M11/M13 A2977 RMK AO2 P0000 T11061133
0237726114547712025010503207+44533-072615FM-16+0223KMVL V0209999V00155007325MN0048285N5-01065-01395999999ADDAA101000021AU110030015AW1715GA1085+007325999GD14991+0073259GE19AGL   +99999+99999GF199999999999007321999999MA1100815098175MW1715REMMET09701/04/25 22:20:02 SPECI KMVL 050320Z VRB03KT 3SM -SN OVC024 M11/M14 A2977 RMK AO2 P0000 T11061139
0237726114547712025010503277+44533-072615FM-16+0223KMVL V0209999V00155007325MN0032195N5-01065-01335999999ADDAA101000021AU110030015AW1715GA1085+007325999GD14991+0073259GE19AGL   +99999+99999GF199999999999007321999999MA1100815098175MW1715REMMET09701/04/25 22:27:02 SPECI KMVL 050327Z VRB03KT 2SM -SN OVC024 M11/M13 A2977 RMK AO2 P0000 T11061133
0173726114547712025010503526+44533-072615FM-16+0223KMVL V0209999C00005008535MN0064375N5-01105-01405999999ADDAU110030015AW1715GA1085+008535999GD14991+0085359MA1100815098175MW1715REMMET09201/04/25 22:52:03 SPECI KMVL 050352Z 00000KT 4SM -SN OVC028 M11/M14 A2977 RMK AO2 P0000 FIBI
0244726114547712025010503547+44533-072615FM-15+0223KMVL V0203605N00265009145MN0064375N5-01065-01395100975ADDAA101000025AU110030015AW1715GA1085+009145999GD14991+0091459GE19AGL   +99999+99999GF199999999999009141999999MA1100815098175MW1715REMMET10401/04/25 22:54:02 METAR KMVL 050354Z 36005KT 4SM -SN OVC030 M11/M14 A2977 RMK AO2 SLP097 P0000 T11061139
0237726114547712025010504307+44533-072615FM-16+0223KMVL V0209999N99999008535MN0080475N5-01065-01395999999ADDAA101000021AU110030015AW1715GA1085+008535999GD14991+0085359GE19AGL   +99999+99999GF199999999999008531999999MA1100815098175MW1715REMMET09701/04/25 23:30:02 SPECI KMVL 050430Z      KT 5SM -SN OVC028 M11/M14 A2977 RMK AO2 P0000 T11061139
0318726114547712025010504547+44533-072615FM-15+0223KMVL V0203105N00215007925MN0128755N5-01005-01445100955ADDAA101000025AU110030015AW1715GA1075+007925999GA2085+010975999GD13991+0079259GD24991+0109759GE19AGL   +99999+99999GF199999999999007921999999KA1240M-00831KA2240N-01171MA1100815098175MW1715REMMET12101/04/25 23:54:02 METAR KMVL 050454Z 31004KT 8SM -SN BKN026 OVC036 M10/M14 A2977 RMK AO2 SLP095 P0000 T11001144 410831117
0907726114547712025010504596+44533-072615SOD  +0223KMVL V020999999999999999999999999999+99999+99999999999ADDAA124000025AT1AU18SN  5AT2AU08HZ  5KA1240M-00825KA2240N-01165MG1097874100374OE11240076031003185OE22240053633012385OE33240025099999995REMSOD72724 HR PRECIPITATION (IN):T     24 HR MAX TEMP (F):17 24 HR MAX TEMP TIME (LST):0050 24 HR MIN TEMP (F):11 24 HR MIN TEMP TIME (LST):0943 AVERAGE STATION PRESSURE:28.900 MINIMUM SEA LEVEL PRESSURE:29.64 TIME OF OCCURRENCE:0044 PEAK WIND SPEED (MPH):17  PEAK WIND DIR (DEG):310 PEAK WIND TIME (LST):0318  FASTEST 2MIN SPEED (MPH):12 FASTEST 2MIN DIR (DEG):330 FASTEST 2MIN TIME (LST):1238 AVERAGE WIND SPEED (MPH):5.6  24 HR AVG TEMP (F):14 HEATING DEGREE DAYS:51  COOLING DEGREE DAYS:0   LATEST DAY MAX TEMP (0700-1900 LST):15  LATEST NIGHT MIN TEMP(1900-0800 LST):11 HOURLY INCREMENTAL PRECIPITATION VALUES (IN):    T    T    T    T    T    T    T    T    T    T    T    T    T    T    0.00 T    T    T    T    T    T    T    TEQDR01     N7GJS072R02     N7GKS075
0376726114547712025010505547+44533-072615FM-15+0223KMVL V0203105N00315008845MN0112655N5-00945-01395100955ADDAA101000025AA206000021AU110030015AW1715GA1075+008845999GA2085+011585999GD13991+0088459GD24991+0115859GE19AGL   +99999+99999GF199999999999008841999999KA1060M-00941KA2060N-01111MA1100815098175MD1890019+9999MW1715REMMET13501/05/25 00:54:02 METAR KMVL 050554Z 31006KT 7SM -SN BKN029 OVC038 M09/M14 A2977 RMK AO2 SLP095 P0000 60000 T10941139 11094 21111 58001EQDQ01  00008PRCP06
0275726114547712025010506087+44533-072615FM-16+0223KMVL V0203105N00365010065MN0144845N5-00945-01445999999ADDAA101000021AU110030015AW1715GA1075+010065999GA2085+012195999GD13991+0100659GD24991+0121959GE19AGL   +99999+99999GF199999999999010061999999MA1100815098175MW1715REMMET10401/05/25 01:08:02 SPECI KMVL 050608Z 31007KT 9SM -SN BKN033 OVC040 M09/M14 A2977 RMK AO2 P0000 T10941144
0300726114547712025010506547+44533-072615FM-15+0223KMVL V0203105N00315013725MN0160935N5-01005-01505101005ADDAA101000025GA1025+010975999GA2075+013725999GA3085+019815999GD11991+0109759GD23991+0137259GD34991+0198159GE19AGL   +99999+99999GF199999999999010971999999MA1100855098205REMMET12101/05/25 01:54:02 METAR KMVL 050654Z 31006KT 10SM FEW036 BKN045 OVC065 M10/M15 A2978 RMK AO2 SNE37 SLP100 P0000 T11001150
0287726114547712025010507267+44533-072615FM-16+0223KMVL V0203105N00365009145MN0040235N5-00945-01445999999ADDAA101000021AU110030015AW1715GA1075+009145999GA2085+011895999GD13991+0091459GD24991+0118959GE19AGL   +99999+99999GF199999999999009141999999MA1100885098245MW1715REMMET11601/05/25 02:26:02 SPECI KMVL 050726Z 31007KT 2 1/2SM -SN BKN030 OVC039 M09/M14 A2979 RMK AO2 SNB0659 P0000 T10941144
0245726114547712025010507357+44533-072615FM-16+0223KMVL V0202805N00265009145MN0048285N5-00945-01505999999ADDAA101000021AU110030015AW1715GA1085+009145999GD14991+0091459GE19AGL   +99999+99999GF199999999999009141999999MA1100885098245MW1715REMMET10501/05/25 02:35:02 SPECI KMVL 050735Z 28005KT 3SM -SN OVC030 M09/M15 A2979 RMK AO2 SNB0659 P0000 T10941150
0252726114547712025010507547+44533-072615FM-15+0223KMVL V0209999N99999009145MN0048285N5-00945-01445101025ADDAA101000025AU110030015AW1715GA1085+009145999GD14991+0091459GE19AGL   +99999+99999GF199999999999009141999999MA1100885098245MW1715REMMET11201/05/25 02:54:02 METAR KMVL 050754Z      KT 3SM -SN OVC030 M09/M14 A2979 RMK AO2 SNB0659 SLP102 P0000 T10941144
0241726114547712025010508057+44533-072615FM-16+0223KMVL V0209999V00215009755MN0040235N5-00945-01445999999ADDAA101000021AU110030015AW1715GA1085+009755999GD14991+0097559GE19AGL   +99999+99999GF199999999999009751999999MA1100885098245MW1715REMMET10101/05/25 03:05:02 SPECI KMVL 050805Z VRB04KT 2 1/2SM -SN OVC032 M09/M14 A2979 RMK AO2 P0000 T10941144
0237726114547712025010508127+44533-072615FM-16+0223KMVL V0209999V00315009755MN0048285N5-00945-01445999999ADDAA101000021AU110030015AW1715GA1085+009755999GD14991+0097559GE19AGL   +99999+99999GF199999999999009751999999MA1100885098245MW1715REMMET09701/05/25 03:12:02 SPECI KMVL 050812Z VRB06KT 3SM -SN OVC032 M09/M14 A2979 RMK AO2 P0000 T10941144
0338726114547712025010508547+44533-072615FM-15+0223KMVL V0209999C00005011285MN0080475N5-01005-01445101015ADDAA101000025AA203000021AU110030015AW1715GA1075+011285999GA2085+019815999GD13991+0112859GD24991+0198159GE19AGL   +99999+99999GF199999999999011281999999MA1100885098245MD1090069+9999MW1715REMMET12301/05/25 03:54:02 METAR KMVL 050854Z 00000KT 5SM -SN BKN037 OVC065 M10/M14 A2979 RMK AO2 SLP101 P0000 60000 T11001144 50006EQDQ01  00008PRCP03
0282726114547712025010509547+44533-072615FM-15+0223KMVL V0203505N00265011585MN0096565N5-01005-01445101015ADDAA101000025AU110030015AW1715GA1075+011585999GA2085+015245999GD13991+0115859GD24991+0152459GE19AGL   +99999+99999GF199999999999011581999999MA1100855098205MW1715REMMET11101/05/25 04:54:02 METAR KMVL 050954Z 35005KT 6SM -SN BKN038 OVC050 M10/M14 A2978 RMK AO2 SLP101 P0000 T11001144
0275726114547712025010510407+44533-072615FM-16+0223KMVL V0203605N00415007925MN0048285N5-01065-01445999999ADDAA101000021AU110030015AW1715GA1075+007925999GA2085+011895999GD13991+0079259GD24991+0118959GE19AGL   +99999+99999GF199999999999007921999999MA1100885098245MW1715REMMET10401/05/25 05:40:02 SPECI KMVL 051040Z 36008KT 3SM -SN BKN026 OVC039 M11/M14 A2979 RMK AO2 P0000 T11061144
0248726114547712025010510547+44533-072615FM-15+0223KMVL V0203505N00315007015MN0040235N5-01065-01395101045ADDAA101000025AU110030015AW1715GA1085+007015999GD14991+0070159GE19AGL   +99999+99999GF199999999999007011999999MA1100885098245MW1715REMMET10801/05/25 05:54:02 METAR KMVL 051054Z 35006KT 2 1/2SM -SN OVC023 M11/M14 A2979 RMK AO2 SLP104 P0000 T11061139
0275726114547712025010511457+44533-072615FM-16+0223KMVL V0203605N00265008235MN0064375N5-01065-01395999999ADDAA101000021AU110030015AW1715GA1075+008235999GA2085+011285999GD13991+0082359GD24991+0112859GE19AGL   +99999+99999GF199999999999008231999999MA1100955098305MW1715REMMET10401/05/25 06:45:02 SPECI KMVL 051145Z 36005KT 4SM -SN BKN027 OVC037 M11/M14 A2981 RMK AO2 P0000 T11061139
0376726114547712025010511547+44533-072615FM-15+0223KMVL V0200105N00315008845MN0064375N5-01065-01395101125ADDAA101000025AA206000021AU110030015AW1715GA1075+008845999GA2085+011285999GD13991+0088459GD24991+0112859GE19AGL   +99999+99999GF199999999999008841999999KA1060M-00941KA2060N-01061MA1100985098345MD1390109+9999MW1715REMMET13501/05/25 06:54:02 METAR KMVL 051154Z 01006KT 4SM -SN BKN029 OVC037 M11/M14 A2982 RMK AO2 SLP112 P0000 60000 T11061139 11094 21106 53010EQDQ01  00008PRCP06
0237726114547712025010512067+44533-072615FM-16+0223KMVL V0200105N00265007015MN0032195N5-01065-01395999999ADDAA101000021AU110030015AW1715GA1085+007015999GD14991+0070159GE19AGL   +99999+99999GF199999999999007011999999MA1100985098345MW1715REMMET09701/05/25 07:06:02 SPECI KMVL 051206Z 01005KT 2SM -SN OVC023 M11/M14 A2982 RMK AO2 P0000 T11061139
0241726114547712025010512287+44533-072615FM-16+0223KMVL V0200205N00265005795MN0024145N5-01065-01395999999ADDAA101000021AU110030015AW1715GA1085+005795999GD14991+0057959GE19AGL   +99999+99999GF199999999999005791999999MA1100985098345MW1715REMMET10101/05/25 07:28:02 SPECI KMVL 051228Z 02005KT 1 1/2SM -SN OVC019 M11/M14 A2982 RMK AO2 P0000 T11061139
0275726114547712025010512427+44533-072615FM-16+0223KMVL V0200105N00315005495MN0048285N5-01065-01395999999ADDAA101000021AU110030015AW1715GA1075+005495999GA2085+009755999GD13991+0054959GD24991+0097559GE19AGL   +99999+99999GF199999999999005491999999MA1101025098375MW1715REMMET10401/05/25 07:42:02 SPECI KMVL 051242Z 01006KT 3SM -SN BKN018 OVC032 M11/M14 A2983 RMK AO2 P0000 T11061139
0282726114547712025010512547+44533-072615FM-15+0223KMVL V0200205N00415007325MN0064375N5-01065-01395101185ADDAA101000025AU110030015AW1715GA1075+007325999GA2085+010365999GD13991+0073259GD24991+0103659GE19AGL   +99999+99999GF199999999999007321999999MA1101025098375MW1715REMMET11101/05/25 07:54:02 METAR KMVL 051254Z 02008KT 4SM -SN BKN024 OVC034 M11/M14 A2983 RMK AO2 SLP118 P0000 T11061139
0275726114547712025010513057+44533-072615FM-16+0223KMVL V0203305N00415009145MN0064375N5-01065-01445999999ADDAA101000021AU110030015AW1715GA1075+009145999GA2085+011285999GD13991+0091459GD24991+0112859GE19AGL   +99999+99999GF199999999999009141999999MA1101055098405MW1715REMMET10401/05/25 08:05:02 SPECI KMVL 051305Z 33008KT 4SM -SN BKN030 OVC037 M11/M14 A2984 RMK AO2 P0000 T11061144
0282726114547712025010513547+44533-072615FM-15+0223KMVL V0203305N00315009145MN0080475N5-01065-01505101275ADDAA101000025AU110030015AW1715GA1075+009145999GA2085+011585999GD13991+0091459GD24991+0115859GE19AGL   +99999+99999GF199999999999009141999999MA1101125098475MW1715REMMET11101/05/25 08:54:02 METAR KMVL 051354Z 33006KT 5SM -SN BKN030 OVC038 M11/M15 A2986 RMK AO2 SLP127 P0000 T11061150
0275726114547712025010514047+44533-072615FM-16+0223KMVL V0203205N00215007925MN0064375N5-01065-01505999999ADDAA101000021AU110030015AW1715GA1075+007925999GA2085+010065999GD13991+0079259GD24991+0100659GE19AGL   +99999+99999GF199999999999007921999999MA1101125098475MW1715REMMET10401/05/25 09:04:02 SPECI KMVL 051404Z 32004KT 4SM -SN BKN026 OVC033 M11/M15 A2986 RMK AO2 P0000 T11061150
0237726114547712025010514197+44533-072615FM-16+0223KMVL V0203405N00265007325MN0032195N5-01065-01445999999ADDAA101000021AU110030015AW1715GA1085+007325999GD14991+0073259GE19AGL   +99999+99999GF199999999999007321999999MA1101125098475MW1715REMMET09701/05/25 09:19:02 SPECI KMVL 051419Z 34005KT 2SM -SN OVC024 M11/M14 A2986 RMK AO2 P0000 T11061144
0247726114547712025010514257+44533-072615FM-16+0223KMVL V0203405N00515006105WN0016095N5-01065-01395999999ADDAA101000021AU110030015AW1715GA1095+006105999GD15991+0061059GE19AGL   +99999+99999GF109991999999006101999999MA1101155098505MW1715OC100825REMMET09901/05/25 09:25:02 SPECI KMVL 051425Z 34010G16KT 1SM -SN VV020 M11/M14 A2987 RMK AO2 P0000 T11061139
0304726114547712025010514337+44533-072615FM-16+0223KMVL V0203405N00465004575WN0008056N5-01115-01445999999ADDAA101000021AU120030016AW1726GA1095+004575999GD15991+0045759GE19AGL   +99999+99999GF109991999999004571999999MA1101155098505MW1736REMMET09701/05/25 09:33:02 SPECI KMVL 051433Z 34009KT 1/2SM SN VV015 M11/M14 A2987 RMK AO2 P0000 T11111144EQDR01 1/2SM7VIS018R02    SN7AWW018R03SEERMK7MVW018R04    SN7MWW018
0228726114547712025010514517+44533-072615FM-16+0223KMVL V0203405N00515004275WN0012075N5-01105-01405999999ADDAA101000021AU110030015AW1715GA1095+004275999GD15991+0042759GE19AGL   +99999+99999GF109991999999004271999999MA1101195098545MW1715REMMET08801/05/25 09:51:02 SPECI KMVL 051451Z 34010KT 3/4SM -SN VV014 M11/M14 A2988 RMK AO2 P0000
0172726114547712025010514526+44533-072615FM-16+0223KMVL V0203405N00515004275WN0016095N5-01105-01405999999ADDAU110030015AW1715GA1095+004275999GD15991+0042759MA1101195098545MW1715REMMET09101/05/25 09:52:02 SPECI KMVL 051452Z 34010KT 1SM -SN VV014 M11/M14 A2988 RMK AO2 P0000 FIBI
0310726114547712025010514547+44533-072615FM-15+0223KMVL V0203405N00625004275WN0016095N5-01115-01445101375ADDAA101000025AA203000021AU110030015AW1715GA1095+004275999GD15991+0042759GE19AGL   +99999+99999GF109991999999004271999999MA1101225098575MD1190189+9999MW1715OC100935REMMET11801/05/25 09:54:02 METAR KMVL 051454Z 34012G18KT 1SM -SN VV014 M11/M14 A2989 RMK AO2 SLP137 P0000 60000 T11111144 51018EQDQ01  00008PRCP03
0236726114547712025010515027+44533-072615FM-16+0223KMVL V0203405N00515004885WN0016095N5-01175-01505999999ADDAA101000021AU110030015AW1715GA1095+004885999GD15991+0048859GE19AGL   +99999+99999GF109991999999004881999999MA1101225098575MW1715REMMET09601/05/25 10:02:02 SPECI KMVL 051502Z 34010KT 1SM -SN VV016 M12/M15 A2989 RMK AO2 P0000 T11171150
0238726114547712025010515247+44533-072615FM-16+0223KMVL V0203505N00415004885WN0012075N5-01175-01505999999ADDAA101000021AU110030015AW1715GA1095+004885999GD15991+0048859GE19AGL   +99999+99999GF109991999999004881999999MA1101225098575MW1715REMMET09801/05/25 10:24:02 SPECI KMVL 051524Z 35008KT 3/4SM -SN VV016 M12/M15 A2989 RMK AO2 P0000 T11171150
0238726114547712025010515417+44533-072615FM-16+0223KMVL V0203505N00465004275WN0012075N5-01225-01505999999ADDAA101000021AU110030015AW1715GA1095+004275999GD15991+0042759GE19AGL   +99999+99999GF109991999999004271999999MA1101255098605MW1715REMMET09801/05/25 10:41:02 SPECI KMVL 051541Z 35009KT 3/4SM -SN VV014 M12/M15 A2990 RMK AO2 P0000 T11221150
0247726114547712025010515457+44533-072615FM-16+0223KMVL V0203305N00575004575WN0016095N5-01225-01565999999ADDAA101000021AU110030015AW1715GA1095+004575999GD15991+0045759GE19AGL   +99999+99999GF109991999999004571999999MA1101255098605MW1715OC101085REMMET09901/05/25 10:45:02 SPECI KMVL 051545Z 33011G21KT 1SM -SN VV015 M12/M16 A2990 RMK AO2 P0000 T11221156
0226726114547712025010515526+44533-072615FM-16+0223KMVL V0203405N00675004885MN0024145N5-01205-01605999999ADDAU110030015AW1715GA1075+004885999GA2085+008535999GD13991+0048859GD24991+0085359MA1101255098605MW1715OC101085REMMET10601/05/25 10:52:02 SPECI KMVL 051552Z 34013G21KT 1 1/2SM -SN BKN016 OVC028 M12/M16 A2990 RMK AO2 P0000 FIBI
0297726114547712025010515547+44533-072615FM-15+0223KMVL V0203405N00675004885MN0024145N5-01225-01675101435ADDAA101000025AU110030015AW1715GA1075+004885999GA2085+008535999GD13991+0048859GD24991+0085359GE19AGL   +99999+99999GF199999999999004881999999MA1101295098645MW1715OC101035REMMET11801/05/25 10:54:02 METAR KMVL 051554Z 34013G20KT 1 1/2SM -SN BKN016 OVC028 M12/M17 A2991 RMK AO2 SLP143 P0000 T11221167
0328726114547712025010516147+44533-072615FM-16+0223KMVL V0203405N00465007625MN0040235N5-01225-01675999999ADDAA101000021AU110030015AW1715GA1075+007625999GA2075+010975999GA3085+014025999GD13991+0076259GD23991+0109759GD34991+0140259GE19AGL   +99999+99999GF199999999999007621999999MA1101255098605MW1715OC100885REMMET11801/05/25 11:14:02 SPECI KMVL 051614Z 34009G17KT 2 1/2SM -SN BKN025 BKN036 OVC046 M12/M17 A2990 RMK AO2 P0000 T11221167
0286726114547712025010516207+44533-072615FM-16+0223KMVL V0203405N00365009755MN0048285N5-01225-01615999999ADDAA101000021AU110030015AW1715GA1075+009755999GA2085+013415999GD13991+0097559GD24991+0134159GE19AGL   +99999+99999GF199999999999009751999999MA1101255098605MW1715OC100885REMMET10701/05/25 11:20:02 SPECI KMVL 051620Z 34007G17KT 3SM -SN BKN032 OVC044 M12/M16 A2990 RMK AO2 P0000 T11221161
0252726114547712025010516477+44533-072615FM-16+0223KMVL V0203305N00415010365MN0040235N5-01225-01675999999ADDAA101000021AU110030015AW1715GA1085+010365999GD14991+0103659GE19AGL   +99999+99999GF199999999999010361999999MA1101255098605MW1715OC100885REMMET10401/05/25 11:47:02 SPECI KMVL 051647Z 33008G17KT 2 1/2SM -SN OVC034 M12/M17 A2990 RMK AO2 P0000 T11221167
0215726114547712025010516526+44533-072615FM-16+0223KMVL V0203505N00365007925MN0040235N5-01205-01705999999ADDAU110030015AW1715GA1075+007925999GA2085+010975999GD13991+0079259GD24991+0109759MA1101225098575MW1715REMMET10301/05/25 11:52:02 SPECI KMVL 051652Z 35007KT 2 1/2SM -SN BKN026 OVC036 M12/M17 A2989 RMK AO2 P0000 FIBI
