0230726170147422025010100004+44467-073150FM-12+010499999V0201401N002619999999N016000199+00441-00111100931ADDGE19AGL   +99999+99999GF106991999999999999999999KA1120M+00891KA2120N+00441MA1999999099661MD1790019+9999REMSYN08072617 32966 61405 10044 21011 39966 40093 58000 92354 333 10089 20044 555 90100=EQDQ010     3APC3  Q028     3APCTEN
0192726170147422025010100547+44468-073150FM-15+0104KBTV V0301405N002152200059N0160935N5+00395-00175100885ADDAA101000095GA1005+999999999GD10991+9999999GF100991999999999999999999MA1100855099615REMMET09712/31/24 19:54:03 METAR KBTV 010054Z 14004KT 10SM CLR 04/M02 A2978 RMK AO2 SLP088 T00391017 (RCB)
0236726170147422025010101547+44468-073150FM-15+0104KBTV V0309999C000052200059N0160935N5+00175-00175100815ADDAA101000095GA1025+060965999GD11991+0609659GE19AGL   +99999+99999GF102995999999060961999999MA1100785099545REMMET10012/31/24 20:54:03 METAR KBTV 010154Z 00000KT 10SM FEW200 02/M02 A2976 RMK AO2 SLP081 T00171017 (RCB)EQDD01      0ADE726
0275726170147422025010102547+44468-073150FM-15+0104KBTV V0309999C00005033535MN0160935N5+00175-00175100695ADDAA101000095GA1075+033535999GA2075+060965999GD13991+0335359GD23991+0609659GE19AGL   +99999+99999GF199999999999033531999999MA1100685099445MD1890249+9999REMMET11312/31/24 21:54:03 METAR KBTV 010254Z 00000KT 10SM BKN110 BKN200 02/M02 A2973 RMK AO2 SLP069 T00171017 58024 (RCB)
0153726170147422025010103004+44467-073150FM-12+010499999V0209999C000019999999N016000199+00171-00171100691ADDGE19AGL   +99999+99999GF106991999999999999999999MA1999999099421MD1810241+9999REMSYN06472617 32966 60000 10017 21017 39942 40069 58024 90254 555 90103=
0219726170147422025010103547+44468-073150FM-15+0104KBTV V0301305N00415033535MN0160935N5+00395-00115100545ADDAA101000095GA1075+033535999GD13991+0335359GE19AGL   +99999+99999GF199999999999033531999999MA1100515099275REMMET10212/31/24 22:54:03 METAR KBTV 010354Z 13008KT 10SM BKN110 04/M01 A2968 RMK AO2 SLP054 T00391011 $ (RCB)
0232726170147422025010104544+44472-073153FM-15+010299999V0201601N002610487719N016093199+00441-00171100431ADDGD13991+0487799GD23991+0762019GE19AGL   +99999+99999GF199999999999048771999999KA1240M+00891KA2240N+00061MA1100411999999REMMET101METAR KBTV 010454Z 16005KT 10SM BKN160 BKN250 04/M02 A2965 RMK AO2 SLP043 LAST T00441017 400890006 $=
1096726170147422025010104596+44468-073150SOD  +0104KBTV V030999999999999999999999999999+99999+99999999999ADDAA124000025AJ100009599999999AN1024000095KA1240M+00895KA2240N+00065KG1024W+0033D4KG2024D-0006D4MF1099534100854MG1099544100374OE11240084918012235OE22240067119012225OE33240025999999995RH1024X078D4RH2024N050D4RH3024M065D4REMSOD83224 HR PRECIPITATION (IN):T     SNOW DEPTH (IN):0     24 HR SNOWFALL (IN):0.0  24 HR MAX TEMP (F):48 24 HR MAX TEMP TIME (LST):1423 24 HR MIN TEMP (F):33 24 HR MIN TEMP TIME (LST):2235 AVERAGE STATION PRESSURE:29.395 MINIMUM SEA LEVEL PRESSURE:29.64 TIME OF OCCURRENCE:0005 PEAK WIND SPEED (MPH):19  PEAK WIND DIR (DEG):180 PEAK WIND TIME (LST):1223  FASTEST 2MIN SPEED (MPH):15 FASTEST 2MIN DIR (DEG):190 FASTEST 2MIN TIME (LST):1222 AVERAGE WIND SPEED (MPH):5.8  24 HR AVG TEMP (F):41 HEATING DEGREE DAYS:24  COOLING DEGREE DAYS:0   CHARACTER OF SUNRISE:CLOUDY CHARACTER OF SUNSET:CLOUDY LATEST DAY MAX TEMP (0700-1900 LST):48  LATEST NIGHT MIN TEMP(1900-0800 LST):41 HOURLY INCREMENTAL PRECIPITATION VALUES (IN):    T    0.00 0.00 0.00 0.00 0.00 0.00 0.00 0.00 0.00 0.00 0.00 0.00 0.00 0.00 0.00 0.00 0.00 0.00 0.00 0.00 0.00 0.00EQDR01     N7GJS072R02     N7GKS075
1324726170147422025010104596+44468-073150SOM  +0104KBTV V030999999999999999999999999999+99999+99999999999ADDAB1007349AAD1004509111299999999AAE1195075015015AH1005001091114425AH2010001591114445AH3015002391114445AH4020002591114485AH5030003391114595AH6045004691115145AI1060005391119275AI2080006991115465AI3100007991116015AI4120009191115545AI5150010291116015AI6180011291116015AK100139999999PAM101279070799999999IAN102404199UKB1744N-05445KB2744M+01785KB3744A-01835KC1N9-02002399995KC2M9+01612999995KD1744H11086KD2744C00005KE113U00U24U02UMH109783U10203UMK1104881419135099460514035REMSOM796PCP MTOT:2.89 PCP GT 24HRS:1.77 DATE(S):11-12 DAYS W/PCP >=.01:19 DAYS W/PCP >=.10:7  DAYS W/ PCP >=.50:1 DAYS W/PCP >=1.00:1 MSDP AMTS W/DATE-TIME TAGS:MIN:5 0.04  11/1442 MIN:10 0.06  11/1444 MIN:15 0.09  11/1444 MIN:20 0.10  11/1448 MIN:30 0.13  11/1459 MIN:45 0.18  11/1514 MIN:60 0.21  11/1927 MIN:80 0.27  11/1546 MIN:100 0.31  11/1601 MIN:120 0.36  11/1554 MIN:150 0.40  11/1601 MIN:180 0.44  11/1601 AVG DLY MIN:22.2  AVG DLY MAX:35.2  AVG MLY TMP:28.7  MIN TMP:-4 DATE(S):23 MAX TMP:61  DATE(S):29 DAYS MAX <=32:1 DAYS MAX >=90:0  DAYS MIN <=32:24 DAYS MIN  <=0:2  AVG STP:28.890 LWST SLP:29.37 DATE/TIME:051403 HGST SLP:30.97 DATE/TIME:141913 HDD MTH TOT:1108 DEP NORM:-2553 SEASON(JUL 1-JUN 30):2225 DEP NORM:-25536 CDD MTH TOT:0 DEP NORM:-2553 SEASON(JAN 1-DEC 31):875 DEP NORM:-25536EQDR01  2.897ABP070R02  1.777ADP081R03  11087KDH045
0270726170147422025010105547+44468-073150FM-15+0104KBTV V0201505N004152200059N0160935N5+00565-00175100385ADDAA101000095GA1045+036585999GD12991+0365859GE19AGL   +99999+99999GF104995999999036581999999KA1060M+00611KA2060N+00061MA1100375099145REMMET10801/01/25 00:54:02 METAR KBTV 010554Z 15008KT 10SM SCT120 06/M02 A2964 RMK AO2 SLP038 T00561017 10061 20006 $EQDD01      0ADE726
0175726170147422025010106004+44467-073150FM-12+010499999V0201501N004112200019N016000199+00561-00171100381ADDGE19AGL   +99999+99999GF104991999999999999999999KA1240M+00891KA2240N+00061MA1999999099121REMSYN07472617 35966 41508 10056 21017 39912 40038 90554 333 10089 20006 555 90106=
0232726170147422025010106547+44468-073150FM-15+0104KBTV V0201305N005152200059N0160935N5+00615-00115100335ADDAA101000095GA1025+036585999GD11991+0365859GE19AGL   +99999+99999GF102995999999036581999999MA1100305099075REMMET09601/01/25 01:54:02 METAR KBTV 010654Z 13010KT 10SM FEW120 06/M01 A2962 RMK AO2 SLP033 T00611011 $EQDD01      0ADE726
0232726170147422025010107547+44468-073150FM-15+0104KBTV V0201305N005752200059N0160935N5+00615-00175100285ADDAA101000095GA1025+033535999GD11991+0335359GE19AGL   +99999+99999GF102995999999033531999999MA1100275099045REMMET09601/01/25 02:54:02 METAR KBTV 010754Z 13011KT 10SM FEW110 06/M02 A2961 RMK AO2 SLP028 T00611017 $EQDD01      0ADE726
0282726170147422025010108547+44468-073150FM-15+0104KBTV V0201405N00515024385MN0160935N5+00675-00175100105ADDAA101000095GA1075+024385999GA2085+030485999GD13991+0243859GD24991+0304859GE19AGL   +99999+99999GF199999999999024381999999MA1100075098845MD1890289+9999OC100725REMMET11201/01/25 03:54:02 METAR KBTV 010854Z 14010G14KT 10SM BKN080 OVC100 07/M02 A2955 RMK AO2 SLP010 T00671017 58028 $
0193726170147422025010109004+44467-073150FM-12+010499999V0201401N005119999999N016000199+00671-00171100101ADDGA1999+022501999GE19AGL   +99999+99999GF108991999999022501999999MA1999999098821MD1810281+9999OD149900721999REMSYN07472617 35866 81410 10067 21017 39882 40010 58028 90854 333 91014 555 90109=
0281726170147422025010109477+44468-073150FM-16+0104KBTV V0209999C00005008235MN0128755N5+00505+00115999999ADDAA101000731AU110020015AW1615GA1075+008235999GA2085+010365999GD13991+0082359GD24991+0103659GE19AGL   +99999+99999GF199999999999008231999999MA1100145098905MW1615REMMET11001/01/25 04:47:02 SPECI KBTV 010947Z 00000KT 8SM -RA BKN027 OVC034 05/01 A2957 RMK AO2 RAB12 P0003 T00500011 $
0251726170147422025010109547+44468-073150FM-15+0104KBTV V0209999C00005008235MN0160935N5+00445+00115100155ADDAA101001095AU110020015AW1615GA1085+008235999GD14991+0082359GE19AGL   +99999+99999GF199999999999008231999999MA1100145098905MW1615REMMET11101/01/25 04:54:02 METAR KBTV 010954Z 00000KT 10SM -RA OVC027 04/01 A2957 RMK AO2 RAB12 SLP015 P0003 T00440011 $
0320726170147422025010110397+44468-073150FM-16+0104KBTV V0201005N00315010365MN0160935N5+00335+00115999999ADDAA101000731AU110020015AW1615GA1025+008235999GA2075+010365999GA3085+015245999GD11991+0082359GD23991+0103659GD34991+0152459GE19AGL   +99999+99999GF199999999999008231999999MA1100105098875MW1615REMMET11801/01/25 05:39:02 SPECI KBTV 011039Z 10006KT 10SM -RA FEW027 BKN034 OVC050 03/01 A2956 RMK AO2 P0003 T00330011 $ (RCB)
0327726170147422025010110547+44468-073150FM-15+0104KBTV V0201205N00365010975MN0160935N5+00335+00115100055ADDAA101000595AU110020015AW1615GA1025+008535999GA2075+010975999GA3085+014635999GD11991+0085359GD23991+0109759GD34991+0146359GE19AGL   +99999+99999GF199999999999008531999999MA1100035098805MW1615REMMET12501/01/25 05:54:02 METAR KBTV 011054Z 12007KT 10SM -RA FEW028 BKN036 OVC048 03/01 A2954 RMK AO2 SLP005 P0003 T00330011 $ (RCB)
0425726170147422025010111547+44468-073150FM-15+0104KBTV V0209999C00005010975MN0160935N5+00335+00175099965ADDAA101000025AA206001591AA324001591AU110020015AW1615GA1025+007925999GA2085+010975999GD11991+0079259GD24991+0109759GE19AGL   +99999+99999GF199999999999007921999999KA1060M+00671KA2060N+00331MA1099935098705MD1890149+9999MW1615REMMET15701/01/25 06:54:02 METAR KBTV 011154Z 00000KT 10SM -RA FEW026 OVC036 03/02 A2951 RMK AO2 RAE18B45 SLP996 P0000 60006 70006 T00330017 10067 20033 58014 $ (RCB)EQDQ01  00158PRCP06Q02  00158PRCP24
0257726170147422025010112004+44467-073150FM-12+010499999V0209999C000019999999N016000199+00331+00171099961ADDAA106002032AA224001532GA1999+008001999GE19AGL   +99999+99999GF108991999999008001999999KA1240M+00891KA2240N+00061MA1999999098691MD1810141+9999MW1611REMSYN09872617 11566 80000 10033 20017 39869 49996 58014 60021 761// 91154 333 10089 20006 70015 555 90112=
0301726170147422025010112327+44468-073150FM-16+0104KBTV V0203405N00315008535MN0048285N5+00335+00175999999ADDAA101000531AU110020015AU200001015AW1105AW2615GA1025+004885999GA2085+008535999GD11991+0048859GD24991+0085359GE19AGL   +99999+99999GF199999999999004881999999MA1099935098705MW1615REMMET11301/01/25 07:32:02 SPECI KBTV 011232Z 34006KT 3SM -RA BR FEW016 OVC028 03/02 A2951 RMK AO2 P0002 T00330017 $ (RCB)
0308726170147422025010112547+44468-073150FM-15+0104KBTV V0203405N00365008535MN0048285N5+00285+00115099945ADDAA101001095AU110020015AU200001015AW1105AW2615GA1075+008535999GA2085+010975999GD13991+0085359GD24991+0109759GE19AGL   +99999+99999GF199999999999008531999999MA1099905098675MW1615REMMET12001/01/25 07:54:02 METAR KBTV 011254Z 34007KT 3SM -RA BR BKN028 OVC036 03/01 A2950 RMK AO2 SLP994 P0004 T00280011 $ (PCP)
0263726170147422025010113017+44468-073150FM-16+0104KBTV V0203505N00265010065MN0080475N5+00285+00175999999ADDAA101000021AU110020015AU200001015AW1105AW2615GA1085+010065999GD14991+0100659GE19AGL   +99999+99999GF199999999999010061999999MA1099905098675MW1615REMMET10601/01/25 08:01:02 SPECI KBTV 011301Z 35005KT 5SM -RA BR OVC033 03/02 A2950 RMK AO2 P0000 T00280017 $ (PCP)
0301726170147422025010113207+44468-073150FM-16+0104KBTV V0200105N00215008845MN0080475N5+00285+00175999999ADDAA101000231AU110020015AU200001015AW1105AW2615GA1075+008845999GA2085+010065999GD13991+0088459GD24991+0100659GE19AGL   +99999+99999GF199999999999008841999999MA1099865098645MW1615REMMET11301/01/25 08:20:02 SPECI KBTV 011320Z 01004KT 5SM -RA BR BKN029 OVC033 03/02 A2949 RMK AO2 P0001 T00280017 $ (PCP)
0325726170147422025010113547+44468-073150FM-15+0104KBTV V0200205N00215006405MN0080475N5+00285+00225099895ADDAA101000395AU100001015AW1105GA1075+006405999GA2075+007925999GA3085+014025999GD13991+0064059GD23991+0079259GD34991+0140259GE19AGL   +99999+99999GF199999999999006401999999MA1099865098645REMMET12901/01/25 08:54:02 METAR KBTV 011354Z 02004KT 5SM BR BKN021 BKN026 OVC046 03/02 A2949 RMK AO2 RAE54 SLP989 P0001 T00280022 $ (PCP)
0276726170147422025010114057+44468-073150FM-16+0104KBTV V0203605N00265006405MN0160935N5+00285+00175999999ADDGA1025+002445999GA2075+006405999GA3085+014025999GD11991+0024459GD23991+0064059GD34991+0140259GE19AGL   +99999+99999GF199999999999002441999999MA1099865098645REMMET10801/01/25 09:05:02 SPECI KBTV 011405Z 36005KT 10SM FEW008 BKN021 OVC046 03/02 A2949 RMK AO2 T00280017 $ (PCP)
0238726170147422025010114127+44468-073150FM-16+0104KBTV V0203505N00215013415MN0160935N5+00285+00175999999ADDGA1045+006405999GA2085+013415999GD12991+0064059GD24991+0134159GE19AGL   +99999+99999GF199999999999006401999999MA1099865098645REMMET10101/01/25 09:12:02 SPECI KBTV 011412Z 35004KT 10SM SCT021 OVC044 03/02 A2949 RMK AO2 T00280017 $ (PCP)
0276726170147422025010114377+44468-073150FM-16+0104KBTV V0203505N00265013115MN0160935N5+00285+00175999999ADDGA1025+000915999GA2045+002445999GA3085+013115999GD11991+0009159GD22991+0024459GD34991+0131159GE19AGL   +99999+99999GF199999999999000911999999MA1099865098645REMMET10801/01/25 09:37:02 SPECI KBTV 011437Z 35005KT 10SM FEW003 SCT008 OVC043 03/02 A2949 RMK AO2 T00280017 $ (PCP)
0324726170147422025010114437+44468-073150FM-16+0104KBTV V0203505N00155002445MN0080461N5+00285+00175999999ADDAU100001015AW1105ED115U18299GA1045+000915999GA2075+002445999GA3085+012805999GD12991+0009159GD23991+0024459GD34991+0128059GE19AGL   +99999+99999GF199999999999000911999999MA1099865098645REMMET12801/01/25 09:43:02 SPECI KBTV 011443Z 35003KT R15/P6000FT BR SCT003 BKN008 OVC042 03/02 A2949 RMK AO2 SFC VIS 5 T00280017 $ (PCP)
0295726170147422025010114477+44468-073150FM-16+0104KBTV V0203505N00215000915MN0080475N5+00285+00175999999ADDAU100001015AW1105GA1075+000915999GA2075+002445999GA3085+012805999GD13991+0009159GD23991+0024459GD34991+0128059GE19AGL   +99999+99999GF199999999999000911999999MA1099865098645REMMET11001/01/25 09:47:02 SPECI KBTV 011447Z 35004KT 5SM BR BKN003 BKN008 OVC042 03/02 A2949 RMK AO2 T00280017 $ (PCP)
0350726170147422025010114547+44468-073150FM-15+0104KBTV V0203605N00155000915MN0080475N5+00285+00175099905ADDAA101000095AA203001391AU100001015AW1105GA1075+000915999GA2075+002445999GA3085+012805999GD13991+0009159GD23991+0024459GD34991+0128059GE19AGL   +99999+99999GF199999999999000911999999MA1099865098645MD1590079+9999REMMET12901/01/25 09:54:02 METAR KBTV 011454Z 36003KT 5SM BR BKN003 BKN008 OVC042 03/02 A2949 RMK AO2 SLP990 60005 T00280017 55007 $ (PCP)
0198726170147422025010115004+44467-073150FM-12+010499999V0203601N001519999999N008000199+00281+00171099901ADDAA103001031GA1999+000751999GE19AGL   +99999+99999GF108991999999000751999999MA1999999098621MD1510071+9999MW1101REMSYN07672617 11158 83603 10028 20017 39862 49990 55007 60017 710// 91454 555 90115=
0314726170147422025010115547+44468-073150FM-15+0104KBTV V0203205N00155000915MN0080475N5+00335+00225099815ADDAA101000025AU110020015AU200001015AW1105AW2615GA1075+000915999GA2085+002745999GD13991+0009159GD24991+0027459GE19AGL   +99999+99999GF199999999999000911999999MA1099805098575MW1615REMMET12601/01/25 10:54:02 METAR KBTV 011554Z 32003KT 5SM -RA BR BKN003 OVC009 03/02 A2947 RMK AO2 RAB05 SLP981 P0000 T00330022 $ (PCP)
0313726170147422025010116017+44468-073150FM-16+0104KBTV V0203305N00155002445MN0080475N5+00335+00225999999ADDAA101000021AU110020015AU200001015AW1105AW2615GA1045+000915999GA2085+002445999GD12991+0009151GD24991+0024459GE19AGL   +99999+99999GF199999999999000911999999MA1099765098535MW1615REMMET12501/01/25 11:01:02 SPECI KBTV 011601Z 33003KT 5SM -RA BR SCT003 OVC008 03/02 A2946 RMK AO2 CIG 006V011 P0000 T00330022 $ (PCP)
0318726170147422025010116357+44468-073150FM-16+0104KBTV V0203505N00155002135MN0048285N5+00335+00225999999ADDAA101000021AU100001015AW1105GA1045+000915999GA2075+002135999GA3085+007015999GD12991+0009159GD23991+0021359GD34991+0070159GE19AGL   +99999+99999GF199999999999000911999999MA1099735098505REMMET12201/01/25 11:35:02 SPECI KBTV 011635Z 35003KT 3SM BR SCT003 BKN007 OVC023 03/02 A2945 RMK AO2 RAE04 P0000 T00330022 $ (PCP)
0318726170147422025010116437+44468-073150FM-16+0104KBTV V0209999C00005007015MN0048285N5+00335+00225999999ADDAA101000021AU100001015AW1105GA1045+000915999GA2045+002135999GA3085+007015999GD12991+0009159GD22991+0021359GD34991+0070159GE19AGL   +99999+99999GF199999999999000911999999MA1099705098475REMMET12201/01/25 11:43:02 SPECI KBTV 011643Z 00000KT 3SM BR SCT003 SCT007 OVC023 03/02 A2944 RMK AO2 RAE04 P0000 T00330022 $ (PCP)
0287726170147422025010116547+44468-073150FM-15+0104KBTV V0209999C00005006715MN0048285N5+00335+00225099705ADDAA101000025AU100001015AW1105GA1045+000915999GA2085+006715999GD12991+0009159GD24991+0067159GE19AGL   +99999+99999GF199999999999000911999999MA1099705098475REMMET12201/01/25 11:54:02 METAR KBTV 011654Z 00000KT 3SM BR SCT003 OVC022 03/02 A2944 RMK AO2 RAE04 SLP970 P0000 T00330022 $ (PCP)
0238726170147422025010117067+44468-073150FM-16+0104KBTV V0209999C00005000915MN0160935N5+00335+00225999999ADDGA1075+000915999GA2085+006715999GD13991+0009159GD24991+0067159GE19AGL   +99999+99999GF199999999999000911999999MA1099665098435REMMET10101/01/25 12:06:02 SPECI KBTV 011706Z 00000KT 10SM BKN003 OVC022 03/02 A2943 RMK AO2 T00330022 $ (PCP)
0346726170147422025010117547+44468-073150FM-15+0104KBTV V0202305N00155001225MN0096565N5+00395+00225099635ADDAA101000025AA206001391AU100001015AW1105GA1085+001225999GD14991+0012259GE19AGL   +99999+99999GF199999999999001221999999KA1060M+00391KA2060N+00281MA1099635098405MD1690259+9999REMMET14201/01/25 12:54:02 METAR KBTV 011754Z 23003KT 6SM BR OVC004 04/02 A2942 RMK AO2 RAB25E51 SLP963 P0000 60005 T00390022 10039 20028 56025 $ (PCP)EQDQ01  00128PRCP06
0240726170147422025010118004+44467-073150FM-12+010499999V0202301N001519999999N009000199+00391+00221099631ADDAA106001031GA1999+001501999GE19AGL   +99999+99999GF108991999999001501999999KA1120M+00671KA2120N+00281MA1999999098381MD1610251+9999MW1101REMSYN09272617 11259 82303 10039 20022 39838 49963 56025 60011 710// 91754 333 10067 20028 555 90118=
0268726170147422025010118547+44468-073150FM-15+0104KBTV V0201905N00155001225MN0160935N5+00395+00285099615ADDAA101000095GA1075+001225999GA2085+006405999GD13991+0012251GD24991+0064059GE19AGL   +99999+99999GF199999999999001221999999MA1099595098375REMMET12001/01/25 13:54:02 METAR KBTV 011854Z 19003KT 10SM BKN004 OVC021 04/03 A2941 RMK AO2 CIG 003V007 SLP961 T00390028 $ (PCP)
0237726170147422025010119077+44468-073150FM-16+0104KBTV V0201705N00215006715MN0160935N5+00395+00285999999ADDGA1025+001225999GA2085+006715999GD11991+0012259GD24991+0067159GE19AGL   +99999+99999GF199999999999001221999999MA1099595098375REMMET10001/01/25 14:07:02 SPECI KBTV 011907Z 17004KT 10SM FEW004 OVC022 04/03 A2941 RMK AO2 T00390028 $ (PL)
0275726170147422025010119397+44468-073150FM-16+0104KBTV V0202305N00215001835MN0160935N5+00445+00225999999ADDGA1075+001835999GA2075+005795999GA3085+018295999GD13991+0018359GD23991+0057959GD34991+0182959GE19AGL   +99999+99999GF199999999999001831999999MA1099635098405REMMET10701/01/25 14:39:02 SPECI KBTV 011939Z 23004KT 10SM BKN006 BKN019 OVC060 04/02 A2942 RMK AO2 T00440022 $ (PL)
0255726170147422025010119547+44468-073150FM-15+0104KBTV V0201905N00315002135MN0160935N5+00395+00225099625ADDAA101000095GA1075+002135999GA2085+018295999GD13991+0021359GD24991+0182959GE19AGL   +99999+99999GF199999999999002131999999MA1099595098375REMMET10701/01/25 14:54:02 METAR KBTV 011954Z 19006KT 10SM BKN007 OVC060 04/02 A2941 RMK AO2 SLP962 T00390022 $ (PL)
0237726170147422025010120147+44468-073150FM-16+0104KBTV V0202105N00215002445MN0160935N5+00445+00225999999ADDGA1075+002445999GA2085+018295999GD13991+0024459GD24991+0182959GE19AGL   +99999+99999GF199999999999002441999999MA1099635098405REMMET10001/01/25 15:14:02 SPECI KBTV 012014Z 21004KT 10SM BKN008 OVC060 04/02 A2942 RMK AO2 T00440022 $ (PL)
0275726170147422025010120547+44468-073150FM-15+0104KBTV V0202305N00265002745MN0160935N5+00395+00225099645ADDAA101000095GA1075+002745999GA2085+015245999GD13991+0027459GD24991+0152459GE19AGL   +99999+99999GF199999999999002741999999MA1099635098405MD1390019+9999REMMET11301/01/25 15:54:02 METAR KBTV 012054Z 23005KT 10SM BKN009 OVC050 04/02 A2942 RMK AO2 SLP964 T00390022 53001 $ (PL)
0169726170147422025010121004+44467-073150FM-12+010499999V0202301N002619999999N016000199+00391+00221099641ADDGA1999+002501999GE19AGL   +99999+99999GF108991999999002501999999MA1999999098381MD1310011+9999REMSYN06472617 32366 82305 10039 20022 39838 49964 53001 92054 555 90121=
0275726170147422025010121317+44468-073150FM-16+0104KBTV V0202205N00215009145MN0160935N5+00395+00225999999ADDGA1045+002745999GA2075+009145999GA3085+018295999GD12991+0027459GD23991+0091459GD34991+0182959GE19AGL   +99999+99999GF199999999999002741999999MA1099665098435REMMET10701/01/25 16:31:02 SPECI KBTV 012131Z 22004KT 10SM SCT009 BKN030 OVC060 04/02 A2943 RMK AO2 T00390022 $ (PL)
0275726170147422025010121467+44468-073150FM-16+0104KBTV V0202205N00265008845MN0160935N5+00395+00225999999ADDGA1045+002135999GA2075+008845999GA3085+018295999GD12991+0021359GD23991+0088459GD34991+0182959GE19AGL   +99999+99999GF199999999999002131999999MA1099665098435REMMET10701/01/25 16:46:02 SPECI KBTV 012146Z 22005KT 10SM SCT007 BKN029 OVC060 04/02 A2943 RMK AO2 T00390022 $ (PL)
0222726170147422025010121526+44468-073150FM-16+0104KBTV V0202105N00215014945MN0160935N5+00405+00205999999ADDGA1045+002135999GA2075+014945999GA3085+018295999GD12991+0021359GD23991+0149459GD34991+0182959MA1099665098435REMMET10201/01/25 16:52:02 SPECI KBTV 012152Z 21004KT 10SM SCT007 BKN049 OVC060 04/02 A2943 RMK AO2 $ FIBI (PL)
0293726170147422025010121547+44468-073150FM-15+0104KBTV V0202105N00215014945MN0160935N5+00395+00225099685ADDAA101000095GA1045+002135999GA2075+014945999GA3085+018295999GD12991+0021359GD23991+0149459GD34991+0182959GE19AGL   +99999+99999GF199999999999002131999999MA1099665098435REMMET11401/01/25 16:54:02 METAR KBTV 012154Z 21004KT 10SM SCT007 BKN049 OVC060 04/02 A2943 RMK AO2 SLP968 T00390022 $ (PL)
0256726170147422025010122547+44468-073150FM-15+0104KBTV V0202305N00215010975MN0160935N5+00395+00225099735ADDAA101000025AU110020015AW1615GA1085+010975999GD14991+0109759GE19AGL   +99999+99999GF199999999999010971999999MA1099705098475MW1615REMMET11601/01/25 17:54:02 METAR KBTV 012254Z 23004KT 10SM -RA OVC036 04/02 A2944 RMK AO2 RAB48 SLP973 P0000 T00390022 $ (PL)
0319726170147422025010123387+44468-073150FM-16+0104KBTV V0202705N00155006405MN0160935N5+00395+00225999999ADDAA101000231AU110020015AW1615GA1045+004575999GA2075+006405999GA3085+011895999GD12991+0045759GD23991+0064059GD34991+0118959GE19AGL   +99999+99999GF199999999999004571999999MA1099735098505MW1615REMMET11701/01/25 18:38:02 SPECI KBTV 012338Z 27003KT 10SM -RA SCT015 BKN021 OVC039 04/02 A2945 RMK AO2 P0001 T00390022 $ (PL)
0381726170147422025010123547+44468-073150FM-15+0104KBTV V0203005N00265004275MN0144845N5+00395+00175099765ADDAA101000596AA206000392AU110020015AW1615GA1075+004275999GA2085+006405999GD13991+0042759GD24991+0064059GE19AGL   +99999+99999GF199999999999004271999999KA1060M+00441KA2060N+00391MA1099735098505MD1390089+9999MW1615REMMET14001/01/25 18:54:02 METAR KBTV 012354Z 30005KT 9SM -RA BKN014 OVC021 04/02 A2945 RMK AO2 SLP976 P0001 60001 T00390017 10044 20039 53008 $ (PL)EQDQ01  00028PRCP06
0240726170147422025010200004+44467-073150FM-12+010499999V0203001N002619999999N014000199+00391+00171099761ADDAA106000331GA1999+004501999GE19AGL   +99999+99999GF108991999999004501999999KA1120M+00441KA2120N+00331MA1999999098491MD1310081+9999MW1611REMSYN09272617 11464 83005 10039 20017 39849 49976 53008 69931 761// 92354 333 10044 20033 555 90200=
0313726170147422025010200107+44468-073150FM-16+0104KBTV V0209999V00315005795MN0144845N5+00335+00065999999ADDAA101000231AU110020015AW1615GA1045+004275999GA2075+005795999GA3085+008535999GD12991+0042759GD23991+0057959GD34991+0085359GE19AGL   +99999+99999GF199999999999004271999999MA1099765098535MW1615REMMET11101/01/25 19:10:01 SPECI KBTV 020010Z VRB06KT 9SM -RA SCT014 BKN019 OVC028 03/01 A2946 RMK AO2 P0001 T00330006 $
0322726170147422025010200547+44468-073150FM-15+0104KBTV V0202705N00315007625MN0160935N5+00285-00065099795ADDAA101000395AU110020015AW1615GA1075+007625999GA2075+010365999GA3085+012805999GD13991+0076259GD23991+0103659GD34991+0128059GE19AGL   +99999+99999GF199999999999007621999999MA1099765098535MW1615REMMET12001/01/25 19:54:01 METAR KBTV 020054Z 27006KT 10SM -RA BKN025 BKN034 OVC042 03/M01 A2946 RMK AO2 SLP979 P0002 T00281006 $
0277726170147422025010201487+44468-073150FM-16+0104KBTV V0202805N00365007015MN0160935N5+00305-00105999999ADDAA101000021AU110020025AU220030035AW1615AW2671AW3715GA1085+007015999GD14991+0070159GE19AGL   +99999+99999GF199999999999007011999999MA1099765098535MW1615MW2715OC100935REMMET10001/01/25 20:48:01 SPECI KBTV 020148Z 28007G18KT 10SM -RASN OVC023 03/M01 A2946 RMK AO2 SNB48 P0000 $
0283726170147422025010201547+44468-073150FM-15+0104KBTV V0202805N00415007015MN0160935N5+00335-00065099785ADDAA101000025AU110020025AU220030035AW1615AW2671AW3715GA1085+007015999GD14991+0070159GE19AGL   +99999+99999GF199999999999007011999999MA1099765098535MW1615MW2715REMMET11401/01/25 20:54:01 METAR KBTV 020154Z 28008KT 10SM -RASN OVC023 03/M01 A2946 RMK AO2 SNB48 SLP978 P0000 T00331006 $
0382726170147422025010202547+44468-073150FM-15+0104KBTV V0202805N00365008535MN0160935N5+00335-00115099785ADDAA101000025AA203000591AU110020025AU220030035AW1615AW2671AW3715GA1025+007325999GA2085+008535999GD11991+0073259GD24991+0085359GE19AGL   +99999+99999GF199999999999007321999999MA1099765098535MD1190019+9999MW1615MW2715OC100885REMMET13001/01/25 21:54:01 METAR KBTV 020254Z 28007G17KT 10SM -RASN FEW024 OVC028 03/M01 A2946 RMK AO2 SLP978 P0000 60002 T00331011 51001 $EQDQ01  00058PRCP03
0228726170147422025010203004+44467-073150FM-12+010499999V0202801N003619999999N016000199+00331-00111099781ADDAA103000531GA1999+008001999GE19AGL   +99999+99999GF108991999999008001999999MA1999999098521MD1110011+9999MW1731OD149900881999REMSYN09272617 11566 82807 10033 21011 39852 49978 51001 69957 773// 90254 333 91017 96073 555 90203=
0319726170147422025010203067+44468-073150FM-16+0104KBTV V0202905N00515009145MN0160935N5+00335-00115999999ADDAA101000021AU110020025AU220030035AW1615AW2671AW3715GA1025+007325999GA2085+009145999GD11991+0073259GD24991+0091459GE19AGL   +99999+99999GF199999999999007321999999MA1099765098535MW1615MW2715OC100885REMMET11101/01/25 22:06:01 SPECI KBTV 020306Z 29010G17KT 10SM -RASN FEW024 OVC030 03/M01 A2946 RMK AO2 P0000 T00331011 $
0224726170147422025010203487+44468-073150FM-16+0104KBTV V0202805N00515009145MN0160935N5+00305-00205999999ADDAA101000021GA1085+009145999GD14991+0091459GE19AGL   +99999+99999GF199999999999009141999999MA1099765098535OC100935REMMET09901/01/25 22:48:02 SPECI KBTV 020348Z 28010G18KT 10SM OVC030 03/M02 A2946 RMK AO2 RAE48SNE48 P0000 $
0241726170147422025010203547+44468-073150FM-15+0104KBTV V0202805N00515009145MN0160935N5+00335-00175099815ADDAA101000025GA1085+009145999GD14991+0091459GE19AGL   +99999+99999GF199999999999009141999999MA1099805098575OC100935REMMET11601/01/25 22:54:02 METAR KBTV 020354Z 28010G18KT 10SM OVC030 03/M02 A2947 RMK AO2 RAE48SNE48 SLP981 P0000 T00331017 $
0265726170147422025010204547+44468-073150FM-15+0104KBTV V0202805N00675010675MN0160935N5+00335-00285099805ADDAA101000095GA1085+010675999GD14991+0106759GE19AGL   +99999+99999GF199999999999010671999999KA1240M+00671KA2240N+00281MA1099765098535OC100985REMMET11401/01/25 23:54:02 METAR KBTV 020454Z 28013G19KT 10SM OVC035 03/M03 A2946 RMK AO2 SLP980 LAST T00331028 400670028 $
1078726170147422025010204596+44468-073150SOD  +0104KBTV V020999999999999999999999999999+99999+99999999999ADDAA124003695AJ100009599999999AL12400035AN1024000035AT1AU16RA  5AT2AU18SN  5AT3AU13BR  5AX1015245KA1240M+00676KA2240N+00285MG1098594099594OE11240129628023595OE22240080528023595OE33240027799999995REMSOD82224 HR PRECIPITATION (IN): 0.14 SNOW DEPTH (IN):0     24 HR SNOWFALL (IN):T    WEATHER(CODE):1  24 HR MAX TEMP (F):44 24 HR MAX TEMP TIME (LST):0412 24 HR MIN TEMP (F):37 24 HR MIN TEMP TIME (LST):2018 AVERAGE STATION PRESSURE(D):29.115 MINIMUM SEA LEVEL PRESSURE:29.41 TIME OF OCCURRENCE:1355 PEAK WIND SPEED (MPH):29  PEAK WIND DIR (DEG):280 PEAK WIND TIME (LST):2359  FASTEST 2MIN SPEED (MPH):18 FASTEST 2MIN DIR (DEG):280 FASTEST 2MIN TIME (LST):2359 AVERAGE WIND SPEED (MPH): 6.2 24 HR AVG TEMP (F):41 DEPART FROM NORMAL:  21 HEATING DEGREE DAYS: 24 COOLING DEGREE DAYS:  0 LATEST DAY MAX TEMP (0700-1900 LST): 40 LATEST NIGHT MIN TEMP(1900-0800 LST):33 HOURLY INCREMENTAL PRECIPITATION VALUES (IN):0.00 0.00 0.00 0.00 0.04 0.02T     0.04 0.01 0.00T    T    T     0.00 0.00 0.00 0.00T     0.02 0.01T    T    T     0.00EQDR01     N7GJS072R02     N7GKS075R03    447KAX008
0331726170147422025010205547+44468-073150FM-15+0104KBTV V0202805N00625011285MN0160935N5+00285-00335099835ADDAA101000095AA206000591GA1085+011285999GD14991+0112859GE19AGL   +99999+99999GF199999999999011281999999KA1060M+00391KA2060N+00281MA1099805098575MD1190059+9999OC101295OD149901441300REMMET14101/02/25 00:54:02 METAR KBTV 020554Z 28012G25KT 10SM OVC037 03/M03 A2947 RMK AO2 PK WND 30028/0535 SLP983 60002 T00281033 10039 20028 51005 $
0229726170147422025010205554+44472-073153FM-15+010299999V0202901N008210109719N016093199+00111-00611100151ADDED115U99999GD14991+0109719GE19AGL   +99999+99999GF199999999999010971999999MA1100101999999OC101491OD149901541280REMMET106METAR KBTV 020555Z 29016G29KT 10SM R15/P6000FT OVC036 01/M06 A2956 RMK SLP015 PK WND 28030/1018 T00111061=
0248726170147422025010206004+44467-073150FM-12+010499999V0202801N006219999999N016000199+00281-00331099831ADDAA106000531GA1999+012501999GE19AGL   +99999+99999GF108991999999012501999999KA1240M+00671KA2240N+00281MA1999999098551MD1110051+9999OD149901291999REMSYN09272617 12666 82812 10028 21033 39855 49983 51005 69951 90554 333 10067 20028 91025 555 90206=
0294726170147422025010206547+44468-073150FM-15+0104KBTV V0203005N00885014025MN0160935N5+00225-00445099895ADDAA101000095GA1045+010675999GA2085+014025999GD12991+0106759GD24991+0140259GE19AGL   +99999+99999GF199999999999010671999999MA1099865098645OC101395OD149901391310REMMET12401/02/25 01:54:02 METAR KBTV 020654Z 30017G27KT 10SM SCT035 OVC046 02/M04 A2949 RMK AO2 PK WND 31027/0649 SLP989 T00221044 $
0319726170147422025010206554+44472-073153FM-15+010299999V0203001N008810106719N016093199+00061-00611999999ADDAA124002031ED115U99999GD13991+0106719GD24991+0134119GE19AGL   +99999+99999GF199999999999010671999999KA1060M+00281KA2060N+00061MA1100201999999MD1310191+9999OC101851OD149901851290REMMET130METAR KBTV 020655Z 30017G36KT 10SM R15/P6000FT BKN035 OVC044 01/M06 A2959 RMK PK WND 29036/1149 70008 T00061061 10028 20006 53019=
0256726170147422025010207547+44468-073150FM-15+0104KBTV V0202905N00725010975MN0160935N5+00225-00445099965ADDAA101000095GA1085+010975999GD14991+0109759GE19AGL   +99999+99999GF199999999999010971999999MA1099935098705OC101395OD149901641280REMMET11701/02/25 02:54:02 METAR KBTV 020754Z 29014G27KT 10SM OVC036 02/M04 A2951 RMK AO2 PK WND 28032/0702 SLP996 T00221044 $
0284726170147422025010207554+44472-073153FM-15+010299999V0202901N008210112819N016093199+00061-00671100291ADDED115U99999GD13991+0112819GD23991+0131119GD34991+0198119GE19AGL   +99999+99999GF199999999999011281999999MA1100271999999OC101441OD149901491280REMMET131METAR KBTV 020755Z 29016G28KT 10SM R15/P6000FT BKN037 BKN043 OVC065 01/M07 A2961 RMK PK WND 28029/1158 SLP029 BINOVC W-N T00061067=
0276726170147422025010208547+44468-073150FM-15+0104KBTV V0202805N00825010675MN0160935N5+00175-00565100045ADDAA101000095GA1085+010675999GD14991+0106759GE19AGL   +99999+99999GF199999999999010671999999MA1100005098775MD1390219+9999OC101495OD149901491270REMMET12301/02/25 03:54:02 METAR KBTV 020854Z 28016G29KT 10SM OVC035 02/M06 A2953 RMK AO2 PK WND 27029/0851 SLP004 T00171056 53021 $
0193726170147422025010209004+44467-073150FM-12+010499999V0202801N008219999999N016000199+00171-00561100041ADDGA1999+012501999GE19AGL   +99999+99999GF108991999999012501999999MA1999999098751MD1310211+9999OD149901491999REMSYN07472617 32666 82816 10017 21056 39875 40004 53021 90854 333 91029 555 90209=
0294726170147422025010209547+44468-073150FM-15+0104KBTV V0202805V00575010975MN0160935N5+00115-00565100095ADDAA101000095GA1075+010975999GA2085+013725999GD13991+0109759GD24991+0137259GE19AGL   +99999+99999GF199999999999010971999999MA1100075098845OC101135OD149901491280REMMET12401/02/25 04:54:02 METAR KBTV 020954Z 28011G22KT 10SM BKN036 OVC045 01/M06 A2955 RMK AO2 PK WND 28029/0914 SLP009 T00111056 $
0262726170147422025010210547+44468-073150FM-15+0104KBTV V0202905N00935010975MN0160935N5+00115-00615100155ADDAA101000095GA1085+010975999GD14991+0109759GE19AGL   +99999+99999GF199999999999010971999999MA1100145098905OC101495OD149901541280REMMET12301/02/25 05:54:02 METAR KBTV 021054Z 29018G29KT 10SM OVC036 01/M06 A2957 RMK AO2 PK WND 28030/1018 SLP015 T00111061 $ (PCP)
0296726170147422025010211546+44468-073150FM-15+0104KBTV V0203005N00885010675MN0160935N5+00065-00615100235ADDAA101000095AA224002091GA1075+010675999GA2085+013415999GD13991+0106759GD24991+0134159MA1100205098975MD1390199+9999OC101855REMMET16301/02/25 06:54:02 METAR KBTV 021154Z 30017G36KT 10SM BKN035 OVC044 01/M06 A2959 RMK AO2 PK WND 29036/1149 SLP023 70008 T00061061 10028 20006 53019 $ RTX FIBI (PCP)
0294726170147422025010212546+44468-073150FM-15+0104KBTV V0202905N00825011285MN0160935N5+00065-00675100295ADDAA101000095GA1075+011285999GA2075+013115999GA3085+019815999GD13991+0112859GD23991+0131159GD34991+0198159MA1100275099045OC101445REMMET15501/02/25 07:54:02 METAR KBTV 021254Z 29016G28KT 10SM BKN037 BKN043 OVC065 01/M07 A2961 RMK AO2 PK WND 28029/1158 SLP029 BINOVC W-N T00061067 RTX FIBI (PCP)
0269726170147422025010213547+44468-073150FM-15+0104KBTV V0202905N00885011585MN0160935N5+00115-00675100365ADDAA101000095GA1085+011585999GD14991+0115859GE19AGL   +99999+99999GF199999999999011581999999MA1100345099105OC101705OD149901691280REMMET13001/02/25 08:54:02 METAR KBTV 021354Z 29017G33KT 10SM OVC038 01/M07 A2963 RMK AO2 PK WND 28033/1302 SLP036 BINOVC W T00111067 (PCP)
0280726170147422025010214547+44468-073150FM-15+0104KBTV V0202905N00675011895MN0160935N5+00115-00675100445ADDAA101000095GA1075+011895999GD13991+0118959GE19AGL   +99999+99999GF199999999999011891999999MA1100415099175MD1390219+9999OC101545OD149901851290REMMET12701/02/25 09:54:02 METAR KBTV 021454Z 29013G30KT 10SM BKN039 01/M07 A2965 RMK AO2 PK WND 29036/1359 SLP044 T00111067 53021 (PCP)
0193726170147422025010215004+44467-073150FM-12+010499999V0202901N006719999999N016000199+00111-00671100441ADDGA1999+012501999GE19AGL   +99999+99999GF106991999999012501999999MA1999999099161MD1310211+9999OD149901541999REMSYN07472617 32666 62913 10011 21067 39916 40044 53021 91454 333 91030 555 90215=
0274726170147422025010215547+44468-073150FM-15+0104KBTV V0202905N00935012505MN0160935N5+00115-00725100465ADDAA101000095GA1075+012505999GD13991+0125059GE19AGL   +99999+99999GF199999999999012501999999MA1100445099215OC101605OD149901751290REMMET13501/02/25 10:54:02 METAR KBTV 021554Z 29018G31KT 10SM BKN041 01/M07 A2966 RMK AO2 PK WND 29034/1537 SLP046 SHSN DSNT E-S T00111072 (PCP)
0260726170147422025010216547+44468-073150FM-15+0104KBTV V0202905N00935012505MN0160935N5+00115-00725100445ADDAA101000095GA1075+012505999GD13991+0125059GE19AGL   +99999+99999GF199999999999012501999999MA1100415099175OC101705OD149901851300REMMET12101/02/25 11:54:02 METAR KBTV 021654Z 29018G33KT 10SM BKN041 01/M07 A2965 RMK AO2 PK WND 30036/1626 SLP044 T00111072 (PCP)
0375726170147422025010217547+44468-073150FM-15+0104KBTV V0203105N00775011895MN0160935N5+00115-00725100445ADDAA101000095GA1075+011895999GA2075+013725999GD13991+0118959GD23991+0137259GE19AGL   +99999+99999GF199999999999011891999999KA1060M+00171KA2060N+00061MA1100415099175MD1890009+9999OC101495OD149901691290REMMET14601/02/25 12:54:02 METAR KBTV 021754Z 31015G29KT 10SM BKN039 BKN045 01/M07 A2965 RMK AO2 PK WND 29033/1701 SLP044 T00111072 10017 20006 58000 (PCP)EQDQ018     3APCTEN
0231726170147422025010218004+44467-073150FM-12+010499999V0203101N007719999999N016000199+00111-00721100441ADDGA1999+012501999GE19AGL   +99999+99999GF106991999999012501999999KA1120N+00061MA1999999099161MD1490001+9999OD149901491999REMSYN08072617 32666 63115 10011 21072 39916 40044 58000 91754 333 20006 91029 555 90218=EQDQ018     3APCTEN
0260726170147422025010218547+44468-073150FM-15+0104KBTV V0202805N00825012805MN0160935N5+00115-00725100485ADDAA101000095GA1085+012805999GD14991+0128059GE19AGL   +99999+99999GF199999999999012801999999MA1100445099215OC101495OD149901801280REMMET12101/02/25 13:54:02 METAR KBTV 021854Z 28016G29KT 10SM OVC042 01/M07 A2966 RMK AO2 PK WND 28035/1835 SLP048 T00111072 (PCP)
0259726170147422025010219547+44468-073150FM-15+0104KBTV V0202805N00515014635MN0160935N5+00175-00785100525ADDAA101000095GA1085+014635999GD14991+0146359GE19AGL   +99999+99999GF199999999999014631999999MA1100475099245OC101245OD149901591280REMMET12001/02/25 14:54:02 METAR KBTV 021954Z 28010G24KT 10SM OVC048 02/M08 A2967 RMK AO2 PK WND 28031/1911 SLP052 T00171078 (PL)
0326726170147422025010220547+44468-073150FM-15+0104KBTV V0203005N00675014335MN0160935N5+00175-00835100525ADDAA101000095GA1075+014335999GA2085+016765999GD13991+0143359GD24991+0167659GE19AGL   +99999+99999GF199999999999014331999999MA1100475099245MD1190089+9999OC101395OD149901801280REMMET14201/02/25 15:54:02 METAR KBTV 022054Z 30013G27KT 10SM BKN047 OVC055 02/M08 A2967 RMK AO2 PK WND 28035/2007 SLP052 BINOVC W T00171083 51008 (PL)
0193726170147422025010221004+44467-073150FM-12+010499999V0203001N006719999999N016000199+00171-00831100521ADDGA1999+012501999GE19AGL   +99999+99999GF108991999999012501999999MA1999999099221MD1110081+9999OD149901391999REMSYN07472617 32666 83013 10017 21083 39922 40052 51008 92054 333 91027 555 90221=
0268726170147422025010221547+44468-073150FM-15+0104KBTV V0203105N00675014945MN0160935N5+00115-00725100545ADDAA101000095GA1085+014945999GD14991+0149459GE19AGL   +99999+99999GF199999999999014941999999MA1100515099275OC101245OD149901441300REMMET12901/02/25 16:54:02 METAR KBTV 022154Z 31013G24KT 10SM OVC049 01/M07 A2968 RMK AO2 PK WND 30028/2101 SLP054 BINOVC W T00111072 (PL)
0363726170147422025010222547+44468-073150FM-15+0104KBTV V0202905N00415011285MN0160935N5+00065-00615100575ADDAA101000025AU110030015AW1715GA1025+008845999GA2075+011285999GA3085+021345999GD11991+0088459GD23991+0112859GD34991+0213459GE19AGL   +99999+99999GF199999999999008841999999MA1100545099315MW1715OD149901491290REMMET14701/02/25 17:54:02 METAR KBTV 022254Z 29008KT 10SM -SN FEW029 BKN037 OVC070 01/M06 A2969 RMK AO2 PK WND 29029/2221 SNB51 SLP057 P0000 T00061061 (PL)
0308726170147422025010222577+44468-073150FM-16+0104KBTV V0202705N00315011895MN0160935N5+00065-00615999999ADDAA101000021GA1025+008845999GA2075+011895999GA3085+021345999GD11991+0088459GD23991+0118959GD34991+0213459GE19AGL   +99999+99999GF199999999999008841999999MA1100545099315OC100775REMMET12101/02/25 17:57:02 SPECI KBTV 022257Z 27006G15KT 10SM FEW029 BKN039 OVC070 01/M06 A2969 RMK AO2 SNE57 P0000 T00061061 (PL)
0340726170147422025010223197+44468-073150FM-16+0104KBTV V0203005N00515012505MN0160935N5+00065-00615999999ADDAA101000021AU110030015AW1715GA1045+010365999GA2075+012505999GA3085+014635999GD12991+0103659GD23991+0125059GD34991+0146359GE19AGL   +99999+99999GF199999999999010361999999MA1100545099315MW1715OC101035REMMET13001/02/25 18:19:02 SPECI KBTV 022319Z 30010G20KT 10SM -SN SCT034 BKN041 OVC048 01/M06 A2969 RMK AO2 SNE2257B19 P0000 T00061061 (PL)
0310726170147422025010223377+44468-073150FM-16+0104KBTV V0203105N00625008535MN0032195N5-00065-00505999999ADDAA101000021AU110030015AW1715GA1075+008535999GA2085+010365999GD13991+0085359GD24991+0103659GE19AGL   +99999+99999GF199999999999008531999999MA1100545099315MW1715OC101035REMMET13101/02/25 18:37:02 SPECI KBTV 022337Z 31012G20KT 2SM -SN BKN028 OVC034 M01/M05 A2969 RMK AO2 SNE2257B19 VIS N 4 P0000 T10061050 (PL)
0265726170147422025010223526+44468-073150FM-16+0104KBTV V0203105N00415008235MN0112655N5-00105-00405999999ADDAU110030015AW1715GA1025+005795999GA2075+008235999GA3085+010365999GD11991+0057959GD23991+0082359GD34991+0103659MA1100545099315MW1715REMMET12201/02/25 18:52:02 SPECI KBTV 022352Z 31008KT 7SM -SN FEW019 BKN027 OVC034 M01/M04 A2969 RMK AO2 SNE2257B19 P0000 FIBI (PL)
0430726170147422025010223547+44468-073150FM-15+0104KBTV V0202805N00365008235MN0112655N5-00065-00445100585ADDAA101000025AA206000021AU110030015AW1715GA1025+005795999GA2075+008235999GA3085+010365999GD11991+0057959GD23991+0082359GD34991+0103659GE19AGL   +99999+99999GF199999999999005791999999KA1060M+00171KA2060N-00061MA1100545099315MD1190069+9999MW1715REMMET15801/02/25 18:54:02 METAR KBTV 022354Z 28007KT 7SM -SN FEW019 BKN027 OVC034 M01/M04 A2969 RMK AO2 SNE2257B19 SLP058 P0000 60000 T10061044 10017 21006 51006 (PL)EQDQ01  00008PRCP06
0240726170147422025010300004+44467-073150FM-12+010499999V0202801N003619999999N011000199-00061-00441100581ADDAA106000021GA1999+004501999GE19AGL   +99999+99999GF108991999999004501999999KA1120M+00171KA2120N-00061MA1999999099291MD1110061+9999MW1711REMSYN09272617 11461 82807 11006 21044 39929 40058 51006 69901 771// 92354 333 10017 21006 555 90300=
0313726170147422025010300017+44468-073150FM-16+0104KBTV V0203105N00415010365MN0128755N5-00065-00395999999ADDAA101000021AU110030015AW1715GA1025+005795999GA2045+007325999GA3085+010365999GD11991+0057959GD22991+0073259GD34991+0103659GE19AGL   +99999+99999GF199999999999005791999999MA1100545099315MW1715REMMET11101/02/25 19:01:01 SPECI KBTV 030001Z 31008KT 8SM -SN FEW019 SCT024 OVC034 M01/M04 A2969 RMK AO2 P0000 T10061039
0308726170147422025010300127+44468-073150FM-16+0104KBTV V0202905N00675008235MN0016095N5+00005-00445999999ADDAA101000021AU110030015AW1715ED115U18299GA1025+005795999GA2085+008235999GD11991+0057959GD24991+0082359GE19AGL   +99999+99999GF199999999999005791999999MA1100585099345MW1715OC101035REMMET11801/02/25 19:12:01 SPECI KBTV 030012Z 29013G20KT 1SM R15/P6000FT -SN FEW019 OVC027 00/M04 A2970 RMK AO2 P0000 T00001044
0328726170147422025010300207+44468-073150FM-16+0104KBTV V0203105N00625008235MN0024145N5-00065-00395999999ADDAA101000021AU110030015AW1715GA1025+004575999GA2045+005795999GA3085+008235999GD11991+0045759GD22991+0057959GD34991+0082359GE19AGL   +99999+99999GF199999999999004571999999MA1100585099345MW1715OC101035REMMET11801/02/25 19:20:01 SPECI KBTV 030020Z 31012G20KT 1 1/2SM -SN FEW015 SCT019 OVC027 M01/M04 A2970 RMK AO2 P0000 T10061039
0313726170147422025010300297+44468-073150FM-16+0104KBTV V0203005N00415007325MN0128755N5-00065-00335999999ADDAA101000021AU110030015AW1715GA1045+004575999GA2075+007325999GA3085+024385999GD12991+0045759GD23991+0073259GD34991+0243859GE19AGL   +99999+99999GF199999999999004571999999MA1100585099345MW1715REMMET11101/02/25 19:29:01 SPECI KBTV 030029Z 30008KT 8SM -SN SCT015 BKN024 OVC080 M01/M03 A2970 RMK AO2 P0000 T10061033
0293726170147422025010300377+44468-073150FM-16+0104KBTV V0203005N00415006405MN0160935N5-00065-00335999999ADDAA101000021GA1045+004575999GA2075+006405999GA3085+024385999GD12991+0045759GD23991+0064059GD34991+0243859GE19AGL   +99999+99999GF199999999999004571999999MA1100615099375REMMET11401/02/25 19:37:01 SPECI KBTV 030037Z 30008KT 10SM SCT015 BKN021 OVC080 M01/M03 A2971 RMK AO2 SNE37 P0000 T10061033
0234726170147422025010300526+44468-073150FM-16+0104KBTV V0203105N00415011585MN0160935N5-00105-00405999999ADDGA1025+004885999GA2075+011585999GA3075+024385999GD11991+0048859GD23991+0115859GD33991+0243859MA1100615099375REMMET11401/02/25 19:52:03 SPECI KBTV 030052Z 31008KT 10SM FEW016 BKN038 BKN080 M01/M04 A2971 RMK AO2 SNE37 P0000 FIBI (PL)
0300726170147422025010300547+44468-073150FM-15+0104KBTV V0203105N00465011585MN0160935N5-00065-00395100645ADDAA101000025GA1025+004885999GA2075+011585999GA3075+024385999GD11991+0048859GD23991+0115859GD33991+0243859GE19AGL   +99999+99999GF199999999999004881999999MA1100615099375REMMET12101/02/25 19:54:01 METAR KBTV 030054Z 31009KT 10SM FEW016 BKN038 BKN080 M01/M04 A2971 RMK AO2 SNE37 SLP064 P0000 T10061039
0293726170147422025010301547+44468-073150FM-15+0104KBTV V0202905N00885028965MN0160935N5-00065-00785100645ADDAA101000095GA1025+010975999GA2075+028965999GD11991+0109759GD23991+0289659GE19AGL   +99999+99999GF199999999999010971999999MA1100615099375OC101655OD149901641270REMMET12301/02/25 20:54:01 METAR KBTV 030154Z 29017G32KT 10SM FEW036 BKN095 M01/M08 A2971 RMK AO2 PK WND 27032/0151 SLP064 T10061078
0330726170147422025010302547+44468-073150FM-15+0104KBTV V0203005N00575028965MN0160935N5-00115-00785100625ADDAA101000095AA203000021GA1025+010365999GA2075+028965999GD11991+0103659GD23991+0289659GE19AGL   +99999+99999GF199999999999010361999999MA1100585099345MD1090039+9999OC101185OD149901441300REMMET13501/02/25 21:54:01 METAR KBTV 030254Z 30011G23KT 10SM FEW034 BKN095 M01/M08 A2970 RMK AO2 PK WND 30028/0202 SLP062 60000 T10111078 50003
0210726170147422025010303004+44467-073150FM-12+010499999V0203001N005719999999N016000199-00111-00781100621ADDAA103000021GA1999+012501999GE19AGL   +99999+99999GF106991999999012501999999MA1999999099321MD1990031+9999OD149901181999REMSYN08072617 12666 63011 11011 21078 39932 40062 50003 69907 90254 333 91023 555 90303=
0293726170147422025010303547+44468-073150FM-15+0104KBTV V0202905N00775033535MN0160935N5-00115-00835100645ADDAA101000095GA1025+010365999GA2075+033535999GD11991+0103659GD23991+0335359GE19AGL   +99999+99999GF199999999999010361999999MA1100615099375OC101185OD149901691320REMMET12301/02/25 22:54:02 METAR KBTV 030354Z 29015G23KT 10SM FEW034 BKN110 M01/M08 A2971 RMK AO2 PK WND 32033/0321 SLP064 T10111083
0334726170147422025010304547+44468-073150FM-15+0104KBTV V0203205N00675033535MN0160935N5-00115-00785100625ADDAA101000095GA1025+010365999GA2075+033535999GD11991+0103659GD23991+0335359GE19AGL   +99999+99999GF199999999999010361999999KA1240M+00331KA2240N-00111MA1100585099345OC101135OD149901391320REMMET13801/02/25 23:54:02 METAR KBTV 030454Z 32013G22KT 10SM FEW034 BKN110 M01/M08 A2970 RMK AO2 PK WND 32027/0437 SLP062 LAST T10111078 400331011
1028726170147422025010304596+44468-073150SOD  +0104KBTV V020999999999999999999999999999+99999+99999999999ADDAA124000025AJ100009599999999AL12400596AN1024000595AT1AU18SN  5KA1240M+00335KA2240N-00105MG1099174099804OE11240183330011265OE22240129631011275OE33240071599999995REMSOD80524 HR PRECIPITATION (IN):T     SNOW DEPTH (IN):0     24 HR SNOWFALL (IN):0.2  24 HR MAX TEMP (F):38 24 HR MAX TEMP TIME (LST):0003 24 HR MIN TEMP (F):30 24 HR MIN TEMP TIME (LST):2359 AVERAGE STATION PRESSURE(D):29.286 MINIMUM SEA LEVEL PRESSURE:29.47 TIME OF OCCURRENCE:0042 PEAK WIND SPEED (MPH):41  PEAK WIND DIR (DEG):300 PEAK WIND TIME (LST):1126  FASTEST 2MIN SPEED (MPH):29 FASTEST 2MIN DIR (DEG):310 FASTEST 2MIN TIME (LST):1127 AVERAGE WIND SPEED (MPH):16.0 24 HR AVG TEMP (F):34 DEPART FROM NORMAL:  14 HEATING DEGREE DAYS: 31 COOLING DEGREE DAYS:  0 LATEST DAY MAX TEMP (0700-1900 LST): 35 LATEST NIGHT MIN TEMP(1900-0800 LST):33 HOURLY INCREMENTAL PRECIPITATION VALUES (IN):0.00 0.00 0.00 0.00 0.00 0.00 0.00 0.00 0.00 0.00 0.00 0.00 0.00 0.00 0.00 0.00 0.00T    T    T     0.00 0.00 0.00 0.00EQDR01   0.27ALS031R02     N7GJS072R03     N7GKS075
0336726170147422025010305547+44468-073150FM-15+0104KBTV V0203005N00515011285MN0160935N5-00115-00835100605ADDAA101000095AA206000021GA1075+011285999GA2085+030485999GD13991+0112859GD24991+0304859GE19AGL   +99999+99999GF199999999999011281999999KA1060M+00001KA2060N-00111MA1100585099345MD1890029+9999OC101185REMMET12901/03/25 00:54:02 METAR KBTV 030554Z 30010G23KT 10SM BKN037 OVC100 M01/M08 A2970 RMK AO2 SLP060 60000 T10111083 10000 21011 58002
0248726170147422025010306004+44467-073150FM-12+010499999V0203001N005119999999N016000199-00111-00831100601ADDAA106000021GA1999+012501999GE19AGL   +99999+99999GF108991999999012501999999KA1240M+00171KA2240N-00111MA1999999099321MD1810021+9999OD149901181999REMSYN09272617 15666 83010 11011 21083 39932 40060 58002 69901 90554 333 10017 21011 91023 555 90306=
0255726170147422025010306547+44468-073150FM-15+0104KBTV V0203105N00825012505MN0160935N5-00115-00895100635ADDAA101000095GA1085+012505999GD14991+0125059GE19AGL   +99999+99999GF199999999999012501999999MA1100615099375OC101295OD149901541270REMMET11601/03/25 01:54:02 METAR KBTV 030654Z 31016G25KT 10SM OVC041 M01/M09 A2971 RMK AO2 PK WND 27030/0627 SLP063 T10111089
0255726170147422025010307547+44468-073150FM-15+0104KBTV V0202905N00625013115MN0160935N5-00175-00895100685ADDAA101000095GA1085+013115999GD14991+0131159GE19AGL   +99999+99999GF199999999999013111999999MA1100645099415OC101245OD149901331290REMMET11601/03/25 02:54:02 METAR KBTV 030754Z 29012G24KT 10SM OVC043 M02/M09 A2972 RMK AO2 PK WND 29026/0710 SLP068 T10171089
0281726170147422025010308547+44468-073150FM-15+0104KBTV V0203105V00415013115MN0160935N5-00175-00945100675ADDAA101000095GA1075+013115999GA2075+015245999GD13991+0131159GD23991+0152459GE19AGL   +99999+99999GF199999999999013111999999MA1100645099415MD1090069+9999OC100985REMMET11101/03/25 03:54:02 METAR KBTV 030854Z 31008G19KT 10SM BKN043 BKN050 M02/M09 A2972 RMK AO2 SLP067 T10171094 50006
0193726170147422025010309004+44467-073150FM-12+010499999V0203101N004119999999N016000199-00171-00941100671ADDGA1999+012501999GE19AGL   +99999+99999GF106991999999012501999999MA1999999099391MD1990061+9999OD149900981999REMSYN07472617 35666 63108 11017 21094 39939 40067 50006 90854 333 91019 555 90309=
0255726170147422025010309547+44468-073150FM-15+0104KBTV V0202905N00775012805MN0160935N5-00175-01005100665ADDAA101000095GA1075+012805999GD13991+0128059GE19AGL   +99999+99999GF199999999999012801999999MA1100615099375OC101495OD149901541280REMMET11601/03/25 04:54:02 METAR KBTV 030954Z 29015G29KT 10SM BKN042 M02/M10 A2971 RMK AO2 PK WND 28030/0858 SLP066 T10171100
0337726170147422025010310547+44468-073150FM-15+0104KBTV V0203005N00825042675MN0160935N5-00225-01115100675ADDAA101000095GA1025+015245999GA2045+027435999GA3075+042675999GD11991+0152459GD22991+0274359GD33991+0426759GE19AGL   +99999+99999GF199999999999015241999999MA1100645099415OC101445OD149901541300REMMET13601/03/25 05:54:02 METAR KBTV 031054Z 30016G28KT 10SM FEW050 SCT090 BKN140 M02/M11 A2972 RMK AO2 PK WND 30030/1000 SLP067 T10221111 (PCP)
0357726170147422025010311547+44468-073150FM-15+0104KBTV V0202905N00675012195MN0160935N5-00285-01065100695ADDAA101000095GA1075+012195999GA2075+027435999GD13991+0121959GD23991+0274359GE19AGL   +99999+99999GF199999999999012191999999KA1060M-00111KA2060N-00281MA1100645099415MD1390019+9999OC101035OD149901391280REMMET14701/03/25 06:54:02 METAR KBTV 031154Z 29013G20KT 10SM BKN040 BKN090 M03/M11 A2972 RMK AO2 PK WND 28027/1102 SLP069 T10281106 11011 21028 53001 (PCP)
0231726170147422025010312004+44467-073150FM-12+010499999V0202901N006719999999N016000199-00281-01061100691ADDGA1999+012501999GE19AGL   +99999+99999GF106991999999012501999999KA1240M+00331KA2240N-00281MA1999999099391MD1310011+9999OD149901031999REMSYN08672617 32666 62913 11028 21106 39939 40069 53001 91154 333 10033 21028 91020 555 90312=
0030726170147422025010312144+44468-073150SHEF +010199999V020999999999999999999999999999+99999+99999999999ADDAJ100009100000099AL19900131
0337726170147422025010312547+44468-073150FM-15+0104KBTV V0202805N00625011285MN0160935N5-00285-01115100675ADDAA101000095GA1075+011285999GA2075+021345999GA3075+027435999GD13991+0112859GD23991+0213459GD33991+0274359GE19AGL   +99999+99999GF199999999999011281999999MA1100615099375OC101345OD149901331300REMMET13601/03/25 07:54:02 METAR KBTV 031254Z 28012G26KT 10SM BKN037 BKN070 BKN090 M03/M11 A2971 RMK AO2 PK WND 30026/1245 SLP067 T10281111 (PCP)
0337726170147422025010313547+44468-073150FM-15+0104KBTV V0203005N00775027435MN0160935N5-00285-01175100675ADDAA101000095GA1025+010975999GA2075+027435999GA3075+060965999GD11991+0109759GD23991+0274359GD33991+0609659GE19AGL   +99999+99999GF199999999999010971999999MA1100645099415OC101135OD149901391290REMMET13601/03/25 08:54:02 METAR KBTV 031354Z 30015G22KT 10SM FEW036 BKN090 BKN200 M03/M12 A2972 RMK AO2 PK WND 29027/1341 SLP067 T10281117 (PCP)
0319726170147422025010314547+44468-073150FM-15+0104KBTV V0202805N00675025915MN0160935N5-00225-01175100665ADDAA101000095GA1025+013725999GA2075+025915999GD11991+0137259GD23991+0259159GE19AGL   +99999+99999GF199999999999013721999999MA1100615099375MD1690029+9999OC101295OD149901391270REMMET13501/03/25 09:54:02 METAR KBTV 031454Z 28013G25KT 10SM FEW045 BKN085 M02/M12 A2971 RMK AO2 PK WND 27027/1358 SLP066 T10221117 56002 (PCP)
0193726170147422025010315004+44467-073150FM-12+010499999V0202801N006719999999N016000199-00221-01171100661ADDGA1999+012501999GE19AGL   +99999+99999GF106991999999012501999999MA1999999099361MD1610021+9999OD149901291999REMSYN07472617 32666 62813 11022 21117 39936 40066 56002 91454 333 91025 555 90315=
0267726170147422025010315547+44468-073150FM-15+0104KBTV V0202905N00515027435MN0160935N5-00065-01225100545ADDAA101000095GA1025+015245999GA2075+027435999GD11991+0152459GD23991+0274359GE19AGL   +99999+99999GF199999999999015241999999MA1100515099275OC101185REMMET11101/03/25 10:54:02 METAR KBTV 031554Z 29010G23KT 10SM FEW050 BKN090 M01/M12 A2968 RMK AO2 SLP054 T10061122 (PCP)
0323726170147422025010316547+44468-073150FM-15+0104KBTV V0202905N006252200059N0160935N5+00005-01335100415ADDAA101000095GA1025+016765999GA2025+027435999GA3045+060965999GD11991+0167659GD21991+0274359GD32991+0609659GE19AGL   +99999+99999GF104995999999016761999999MA1100375099145OC101085REMMET11701/03/25 11:54:02 METAR KBTV 031654Z 29012G21KT 10SM FEW055 FEW090 SCT200 00/M13 A2964 RMK AO2 SLP041 T00001133 (PCP)EQDD01      0ADE726
0381726170147422025010317547+44468-073150FM-15+0104KBTV V0202905N007752200059N0160935N5+00065-01445100335ADDAA101000095GA1025+018295999GA2025+027435999GA3045+060965999GD11991+0182959GD21991+0274359GD32991+0609659GE19AGL   +99999+99999GF104995999999018291999999KA1060M+00061KA2060N-00281MA1100305099075MD1690319+9999OC101135REMMET13501/03/25 12:54:02 METAR KBTV 031754Z 29015G22KT 10SM FEW060 FEW090 SCT200 01/M14 A2962 RMK AO2 SLP033 T00061144 10006 21028 56031 (PCP)EQDD01      0ADE726
0231726170147422025010318004+44467-073150FM-12+010499999V0202901N007712200019N016000199+00061-01441100331ADDGA1999+017501999GE19AGL   +99999+99999GF104991999999017501999999KA1120M+00061KA2120N-00281MA1999999099061MD1610311+9999OD149901131999REMSYN08672617 32766 42915 10006 21144 39906 40033 56031 91754 333 10006 21028 91022 555 90318=
0322726170147422025010318547+44468-073150FM-15+0104KBTV V0202705N007252200059N0160935N5+00115-01395100315ADDAA101000095GA1025+018295999GA2025+027435999GA3045+060965999GD11991+0182959GD21991+0274359GD32991+0609659GE19AGL   +99999+99999GF104995999999018291999999MA1100275099045OC101295REMMET11601/03/25 13:54:02 METAR KBTV 031854Z 27014G25KT 10SM FEW060 FEW090 SCT200 01/M14 A2961 RMK AO2 SLP031 T00111139 (MB)EQDD01      0ADE726
0354726170147422025010319547+44468-073150FM-15+0104KBTV V0202905N007252200059N0160935N5+00065-01395100335ADDAA101000095GA1025+018295999GA2025+027435999GA3045+060965999GD11991+0182959GD21991+0274359GD32991+0609659GE19AGL   +99999+99999GF104995999999018291999999MA1100305099075OC101295OD149901491290REMMET13401/03/25 14:54:02 METAR KBTV 031954Z 29014G25KT 10SM FEW060 FEW090 SCT200 01/M14 A2962 RMK AO2 PK WND 29029/1936 SLP033 T00061139 (MB)EQDD01      0ADE726
0323726170147422025010320547+44468-073150FM-15+0104KBTV V0202805V00675060965MN0160935N5+00005-01335100365ADDAA101000095GA1025+018295999GA2025+027435999GA3075+060965999GD11991+0182959GD21991+0274359GD33991+0609659GE19AGL   +99999+99999GF199999999999018291999999MA1100305099075MD1390029+9999OC101185REMMET12201/03/25 15:54:02 METAR KBTV 032054Z 28013G23KT 10SM FEW060 FEW090 BKN200 00/M13 A2962 RMK AO2 SLP036 T00001133 53002 (MB)
0193726170147422025010321004+44467-073150FM-12+010499999V0202801N006719999999N016000199+00001-01331100361ADDGA1999+017501999GE19AGL   +99999+99999GF106991999999017501999999MA1999999099061MD1310021+9999OD149901181999REMSYN07472617 32766 62813 10000 21133 39906 40036 53002 92054 333 91023 555 90321=
0336726170147422025010321547+44468-073150FM-15+0104KBTV V0203005N00625036585MN0160935N5-00065-01225100405ADDAA101000095GA1025+015245999GA2045+030485999GA3075+036585999GD11991+0152459GD22991+0304859GD33991+0365859GE19AGL   +99999+99999GF199999999999015241999999MA1100375099145OC101085OD149901441310REMMET13501/03/25 16:54:02 METAR KBTV 032154Z 30012G21KT 10SM FEW050 SCT100 BKN120 M01/M12 A2964 RMK AO2 PK WND 31028/2131 SLP040 T10061122 (MB)
0298726170147422025010322547+44468-073150FM-15+0104KBTV V0203105N00575015245MN0160935N5-00115-01175100435ADDAA101000095GA1075+015245999GA2085+030485999GD13991+0152459GD24991+0304859GE19AGL   +99999+99999GF199999999999015241999999MA1100375099145OC101085OD149901441300REMMET12801/03/25 17:54:02 METAR KBTV 032254Z 31011G21KT 10SM BKN050 OVC100 M01/M12 A2964 RMK AO2 PK WND 30028/2244 SLP043 T10111117 (MB)
0275726170147422025010323547+44468-073150FM-15+0104KBTV V0203605N00415030485MN0160935N5-00335-01175100485ADDAA101000095GA1085+030485999GD14991+0304859GE19AGL   +99999+99999GF199999999999030481999999KA1060M+00111KA2060N-00331MA1100445099215MD1390129+9999REMMET11801/03/25 18:54:02 METAR KBTV 032354Z 36008KT 10SM OVC100 M03/M12 A2966 RMK AO2 SLP048 T10331117 10011 21033 53012 (MB)
0195726170147422025010400004+44467-073150FM-12+010499999V0203601N004119999999N016000199-00331-01171100481ADDGE19AGL   +99999+99999GF108991999999999999999999KA1120M+00111KA2120N-00331MA1999999099191MD1310121+9999REMSYN08072617 32966 83608 11033 21117 39919 40048 53012 92354 333 10011 21033 555 90400=
0288726170147422025010400547+44468-073150FM-15+0104KBTV V0200205N00315018295MN0160935N5-00395-01115100485ADDAA101000095GA1025+015245999GA2075+018295999GA3085+024385999GD11991+0152459GD23991+0182959GD34991+0243859GE19AGL   +99999+99999GF199999999999015241999999MA1100445099215REMMET10901/03/25 19:54:01 METAR KBTV 040054Z 02006KT 10SM FEW050 BKN060 OVC080 M04/M11 A2966 RMK AO2 SLP048 T10391111
0299726170147422025010401547+44468-073150FM-15+0104KBTV V0203105N00725016765MN0160935N5-00445-01285100505ADDAA101000095GA1045+014635999GA2075+016765999GA3085+027435999GD12991+0146359GD23991+0167659GD34991+0274359GE19AGL   +99999+99999GF199999999999014631999999MA1100475099245OC101245REMMET11201/03/25 20:54:01 METAR KBTV 040154Z 31014G24KT 10SM SCT048 BKN055 OVC090 M04/M13 A2967 RMK AO2 SLP050 T10441128
0270726170147422025010402547+44468-073150FM-15+0104KBTV V0203105N00465025915MN0160935N5-00505-01225100515ADDAA101000095GA1025+021345999GA2085+025915999GD11991+0213459GD24991+0259159GE19AGL   +99999+99999GF199999999999021341999999MA1100475099245MD1390039+9999REMMET10801/03/25 21:54:01 METAR KBTV 040254Z 31009KT 10SM FEW070 OVC085 M05/M12 A2967 RMK AO2 SLP051 T10501122 53003
0169726170147422025010403004+44467-073150FM-12+010499999V0203101N004619999999N016000199-00501-01221100511ADDGA1999+022501999GE19AGL   +99999+99999GF108991999999022501999999MA1999999099221MD1310031+9999REMSYN06472617 32866 83109 11050 21122 39922 40051 53003 90254 555 90403=
0288726170147422025010403547+44468-073150FM-15+0104KBTV V0203105N00465018295MN0160935N5-00565-01285100515ADDAA101000095GA1025+012505999GA2075+018295999GA3085+027435999GD11991+0125059GD23991+0182959GD34991+0274359GE19AGL   +99999+99999GF199999999999012501999999MA1100475099245REMMET10901/03/25 22:54:02 METAR KBTV 040354Z 31009KT 10SM FEW041 BKN060 OVC090 M06/M13 A2967 RMK AO2 SLP051 T10561128
0342726170147422025010404547+44468-073150FM-15+0104KBTV V0203105N00775016765MN0160935N5-00615-01445100505ADDAA101000095GA1025+013415999GA2075+016765999GA3085+021345999GD11991+0134159GD23991+0167659GD34991+0213459GE19AGL   +99999+99999GF199999999999013411999999KA1240M+00111KA2240N-00611MA1100475099245OC101135REMMET12901/03/25 23:54:02 METAR KBTV 040454Z 31015G22KT 10SM FEW044 BKN055 OVC070 M06/M14 A2967 RMK AO2 SLP050 "LAST" T10611144 400111061
0965726170147422025010404596+44468-073150SOD  +0104KBTV V020999999999999999999999999999+99999+99999999999ADDAA124000095AJ100009599999999AL12400095AN1024000095KA1240M+00115KA2240N-00665MG1099264100304OE11240156528003585OE22240102830004295OE33240062699999995REMSOD80524 HR PRECIPITATION (IN): 0.00 SNOW DEPTH (IN):0     24 HR SNOWFALL (IN):0.0  24 HR MAX TEMP (F):34 24 HR MAX TEMP TIME (LST):1436 24 HR MIN TEMP (F):20 24 HR MIN TEMP TIME (LST):2359 AVERAGE STATION PRESSURE(D):29.311 MINIMUM SEA LEVEL PRESSURE:29.62 TIME OF OCCURRENCE:1449 PEAK WIND SPEED (MPH):35  PEAK WIND DIR (DEG):280 PEAK WIND TIME (LST):0358  FASTEST 2MIN SPEED (MPH):23 FASTEST 2MIN DIR (DEG):300 FASTEST 2MIN TIME (LST):0429 AVERAGE WIND SPEED (MPH):14.0 24 HR AVG TEMP (F):27 DEPART FROM NORMAL:   7 HEATING DEGREE DAYS: 38 COOLING DEGREE DAYS:  0 LATEST DAY MAX TEMP (0700-1900 LST): 34 LATEST NIGHT MIN TEMP(1900-0800 LST):27 HOURLY INCREMENTAL PRECIPITATION VALUES (IN):0.00 0.00 0.00 0.00 0.00 0.00 0.00 0.00 0.00 0.00 0.00 0.00 0.00 0.00 0.00 0.00 0.00 0.00 0.00 0.00 0.00 0.00 0.00 0.00
0319726170147422025010405547+44468-073150FM-15+0104KBTV V0203205N00725016765MN0160935N5-00725-01505100505ADDAA101000095GA1075+016765999GA2085+019815999GD13991+0167659GD24991+0198159GE19AGL   +99999+99999GF199999999999016761999999KA1060M-00331KA2060N-00721MA1100475099245MD1790019+9999OC101185REMMET12301/04/25 00:54:02 METAR KBTV 040554Z 32014G23KT 10SM BKN055 OVC065 M07/M15 A2967 RMK AO2 SLP050 T10721150 11033 21072 57001
0231726170147422025010406004+44467-073150FM-12+010499999V0203201N007219999999N016000199-00721-01501100501ADDGA1999+017501999GE19AGL   +99999+99999GF108991999999017501999999KA1240M-00111KA2240N-00721MA1999999099221MD1710011+9999OD149901181999REMSYN08672617 35766 83214 11072 21150 39922 40050 57001 90554 333 11011 21072 91023 555 90406=
0299726170147422025010406547+44468-073150FM-15+0104KBTV V0203005N00415016765MN0160935N5-00785-01505100575ADDAA101000095GA1025+009755999GA2025+011585999GA3085+016765999GD11991+0097559GD21991+0115859GD34991+0167659GE19AGL   +99999+99999GF199999999999009751999999MA1100545099315OC100985REMMET11201/04/25 01:54:02 METAR KBTV 040654Z 30008G19KT 10SM FEW032 FEW038 OVC055 M08/M15 A2969 RMK AO2 SLP057 T10781150
0299726170147422025010407547+44468-073150FM-15+0104KBTV V0203105N00515016765MN0160935N5-00835-01565100615ADDAA101000095GA1045+010365999GA2045+012195999GA3075+016765999GD12991+0103659GD22991+0121959GD33991+0167659GE19AGL   +99999+99999GF199999999999010361999999MA1100585099345OC100885REMMET11201/04/25 02:54:02 METAR KBTV 040754Z 31010G17KT 10SM SCT034 SCT040 BKN055 M08/M16 A2970 RMK AO2 SLP061 T10831156
0310726170147422025010408547+44468-073150FM-15+0104KBTV V0202905N00675010365MN0160935N5-00835-01615100635ADDAA101000025AA203000021GA1085+010365999GD14991+0103659GE19AGL   +99999+99999GF199999999999010361999999MA1100585099345MD1190139+9999OC100985REMMET12501/04/25 03:54:02 METAR KBTV 040854Z 29013G19KT 10SM OVC034 M08/M16 A2970 RMK AO2 SNB14E36 SLP063 P0000 60000 T10831161 51013EQDQ01  00002PRCP03Q02  00008PRCP03
0229726170147422025010409004+44467-073150FM-12+010499999V0202901N006719999999N016000199-00831-01611100631ADDAA103000091GA1999+012501999GE19AGL   +99999+99999GF108991999999012501999999MA1999999099321MD1110131+9999OD149900981999REMSYN08072617 15666 82913 11083 21161 39932 40063 51013 69907 90854 333 91019 555 90409=EQDQ01  00002PRCP03
0223726170147422025010409547+44468-073150FM-15+0104KBTV V0203005N00625010675MN0160935N5-00895-01615100675ADDAA101000095GA1085+010675999GD14991+0106759GE19AGL   +99999+99999GF199999999999010671999999MA1100615099375OC100985REMMET09801/04/25 04:54:02 METAR KBTV 040954Z 30012G19KT 10SM OVC035 M09/M16 A2971 RMK AO2 SLP067 T10891161
0260726170147422025010410287+44468-073150FM-16+0104KBTV V0203005N00625011285MN0160935N5-00895-01675999999ADDAA101000021AU110030015AW1715GA1085+011285999GD14991+0112859GE19AGL   +99999+99999GF199999999999011281999999MA1100685099445MW1715OC101245REMMET11201/04/25 05:28:02 SPECI KBTV 041028Z 30012G24KT 10SM -SN OVC037 M09/M17 A2973 RMK AO2 SNB28 P0000 T10891167 (MB)
0225726170147422025010410497+44468-073150FM-16+0104KBTV V0203005N00575010365MN0144845N5-00905-01705999999ADDAA101000021GA1085+010365999GD14991+0103659GE19AGL   +99999+99999GF199999999999010361999999MA1100715099475OC100935REMMET10001/04/25 05:49:02 SPECI KBTV 041049Z 30011G18KT 9SM OVC034 M09/M17 A2974 RMK AO2 SNB28E49 P0000 (MB)
0242726170147422025010410547+44468-073150FM-15+0104KBTV V0203105N00515010365MN0144845N5-00895-01675100755ADDAA101000025GA1085+010365999GD14991+0103659GE19AGL   +99999+99999GF199999999999010361999999MA1100715099475OC100935REMMET11701/04/25 05:54:02 METAR KBTV 041054Z 31010G18KT 9SM OVC034 M09/M17 A2974 RMK AO2 SNB28E49 SLP075 P0000 T10891167 (MB)
0330726170147422025010411547+44468-073150FM-15+0104KBTV V0203305N00625009755MN0160935N5-00895-01615100785ADDAA101000095AA206000021GA1075+009755999GA2085+030485999GD13991+0097559GD24991+0304859GE19AGL   +99999+99999GF199999999999009751999999KA1060M-00721KA2060N-00941MA1100755099515MD1190159+9999REMMET13101/04/25 06:54:02 METAR KBTV 041154Z 33012KT 10SM BKN032 OVC100 M09/M16 A2975 RMK AO2 SLP078 60000 T10891161 11072 21094 51015 (MB)
0228726170147422025010412004+44467-073150FM-12+010499999V0203301N006219999999N016000199-00891-01611100781ADDAA106000021GA1999+008001999GE19AGL   +99999+99999GF108991999999008001999999KA1240M+00111KA2240N-00941MA1999999099491MD1110151+9999REMSYN08672617 12566 83312 11089 21161 39949 40078 51015 69901 91154 333 10011 21094 555 90412=
0199726170147422025010412277+44468-073150FM-16+0104KBTV V0203105N00315008845MN0160935N5-00895-01565999999ADDGA1085+008845999GD14991+0088459GE19AGL   +99999+99999GF199999999999008841999999MA1100755099515REMMET09301/04/25 07:27:02 SPECI KBTV 041227Z 31006KT 10SM OVC029 M09/M16 A2975 RMK AO2 T10891156 (MB)
0217726170147422025010412547+44468-073150FM-15+0104KBTV V0202805N00465008845MN0160935N5-00895-01615100805ADDAA101000095GA1085+008845999GD14991+0088459GE19AGL   +99999+99999GF199999999999008841999999MA1100755099515REMMET10001/04/25 07:54:02 METAR KBTV 041254Z 28009KT 10SM OVC029 M09/M16 A2975 RMK AO2 SLP080 T10891161 (KB)
0199726170147422025010413047+44468-073150FM-16+0104KBTV V0202905N00415009455MN0160935N5-00895-01615999999ADDGA1085+009455999GD14991+0094559GE19AGL   +99999+99999GF199999999999009451999999MA1100755099515REMMET09301/04/25 08:04:02 SPECI KBTV 041304Z 29008KT 10SM OVC031 M09/M16 A2975 RMK AO2 T10891161 (KB)
0304726170147422025010413547+44468-073150FM-15+0104KBTV V0202805N00575014635MN0160935N5-00895-01675100845ADDAA101000095GA1045+008845999GA2075+014635999GA3075+019815999GD12991+0088459GD23991+0146359GD33991+0198159GE19AGL   +99999+99999GF199999999999008841999999MA1100785099545OC101135REMMET11701/04/25 08:54:02 METAR KBTV 041354Z 28011G22KT 10SM SCT029 BKN048 BKN065 M09/M17 A2976 RMK AO2 SLP084 T10891167 (KB)
0324726170147422025010414547+44468-073150FM-15+0104KBTV V0203005N00625015245MN0160935N5-00895-01675100875ADDAA101000095GA1025+009145999GA2075+015245999GA3075+018295999GD11991+0091459GD23991+0152459GD33991+0182959GE19AGL   +99999+99999GF199999999999009141999999MA1100815099575MD1390079+9999OC101085REMMET12301/04/25 09:54:02 METAR KBTV 041454Z 30012G21KT 10SM FEW030 BKN050 BKN060 M09/M17 A2977 RMK AO2 SLP087 T10891167 53007 (KB)
0193726170147422025010415004+44467-073150FM-12+010499999V0203001N006219999999N016000199-00891-01671100871ADDGA1999+008001999GE19AGL   +99999+99999GF106991999999008001999999MA1999999099561MD1310071+9999OD149901081999REMSYN07472617 32566 63012 11089 21167 39956 40087 53007 91454 333 91021 555 90415=
0266726170147422025010415547+44468-073150FM-15+0104KBTV V0203105V00465010365MN0144845N5-00835-01615100855ADDAA101000025AU110030015AW1715GA1085+010365999GD14991+0103659GE19AGL   +99999+99999GF199999999999010361999999MA1100785099545MW1715OC100885REMMET11801/04/25 10:54:02 METAR KBTV 041554Z 31009G17KT 9SM -SN OVC034 M08/M16 A2976 RMK AO2 SNB45 SLP085 P0000 T10831161 (KB)
0287726170147422025010416547+44468-073150FM-15+0104KBTV V0203305N00515012505MN0144845N5-00835-01615100805ADDAA101000025AU110030015AW1715GA1045+010065999GA2085+012505999GD12991+0100659GD24991+0125059GE19AGL   +99999+99999GF199999999999010061999999MA1100755099515MW1715REMMET11601/04/25 11:54:02 METAR KBTV 041654Z 33010KT 9SM -SN SCT033 OVC041 M08/M16 A2975 RMK AO2 SLP080 P0000 T10831161 (KB)
0430726170147422025010417547+44468-073150FM-15+0104KBTV V0203205N00465016765MN0144845N5-00785-01675100745ADDAA101000025AA206000021AU110030015AW1715GA1025+013725999GA2075+016765999GA3085+021345999GD11991+0137259GD23991+0167659GD34991+0213459GE19AGL   +99999+99999GF199999999999013721999999KA1060M-00781KA2060N-00891MA1100685099445MD1890139+9999MW1715OC100775REMMET15001/04/25 12:54:02 METAR KBTV 041754Z 32009G15KT 9SM -SN FEW045 BKN055 OVC070 M08/M17 A2973 RMK AO2 SLP074 P0000 60000 T10781167 11078 21089 58013 (KB)EQDQ01  00008PRCP06
0297726170147422025010417567+44468-073150FM-16+0104KBTV V0203205N00465016765MN0144845N5-00785-01675999999ADDAA101000021GA1025+013725999GA2075+016765999GA3085+021345999GD11991+0137259GD23991+0167659GD34991+0213459GE19AGL   +99999+99999GF199999999999013721999999MA1100685099445REMMET11801/04/25 12:56:02 SPECI KBTV 041756Z 32009KT 9SM FEW045 BKN055 OVC070 M08/M17 A2973 RMK AO2 SNE56 P0000 T10781167 (KB)
0260726170147422025010418004+44467-073150FM-12+010499999V0203201N004619999999N014000199-00781-01671100741ADDAA106000021GA1999+012501999GE19AGL   +99999+99999GF108991999999012501999999KA1120M-00721KA2120N-00891MA1999999099421MD1810131+9999MW1711OD149900771999REMSYN09872617 11664 83209 11078 21167 39942 40074 58013 69901 771// 91754 333 11072 21089 91015 555 90418=
0292726170147422025010418457+44468-073150FM-16+0104KBTV V0202805N00415014945MN0160935N5-00725-01565999999ADDAA101000021AU110030015AW1715GA1075+014945999GA2085+018295999GD13991+0149459GD24991+0182959GE19AGL   +99999+99999GF199999999999014941999999MA1100645099415MW1715REMMET12101/04/25 13:45:02 SPECI KBTV 041845Z 28008KT 10SM -SN BKN049 OVC060 M07/M16 A2972 RMK AO2 SNE1756B45 P0000 T10721156 (KB)
0298726170147422025010418547+44468-073150FM-15+0104KBTV V0203105N00415014945MN0144845N5-00725-01565100705ADDAA101000025AU110030015AW1715GA1075+014945999GA2085+018295999GD13991+0149459GD24991+0182959GE19AGL   +99999+99999GF199999999999014941999999MA1100645099415MW1715REMMET12701/04/25 13:54:02 METAR KBTV 041854Z 31008KT 9SM -SN BKN049 OVC060 M07/M16 A2972 RMK AO2 SNE1756B45 SLP070 P0000 T10721156 (KB)
0249726170147422025010419547+44468-073150FM-15+0104KBTV V0203405N00215010975MN0144845N5-00615-01395100715ADDAA101000025AU110030015AW1715GA1085+010975999GD14991+0109759GE19AGL   +99999+99999GF199999999999010971999999MA1100645099415MW1715REMMET10901/04/25 14:54:02 METAR KBTV 041954Z 34004KT 9SM -SN OVC036 M06/M14 A2972 RMK AO2 SLP071 P0000 T10611139 (KB)
0221726170147422025010420047+44468-073150FM-16+0104KBTV V0202805N00365010975MN0144845N5-00615-01335999999ADDAA101000021GA1075+010975999GD13991+0109759GE19AGL   +99999+99999GF199999999999010971999999MA1100645099415REMMET10401/04/25 15:04:02 SPECI KBTV 042004Z 28007KT 9SM BKN036 M06/M13 A2972 RMK AO2 SNE04 P0000 T10611133 (KB)
0301726170147422025010420547+44468-073150FM-15+0104KBTV V0203405N00315010975MN0160935N5-00675-01285100745ADDAA101000025AA203000021GA1075+010975999GD13991+0109759GE19AGL   +99999+99999GF199999999999010971999999MA1100685099445MD1390009+9999REMMET12401/04/25 15:54:02 METAR KBTV 042054Z 34006KT 10SM BKN036 M07/M13 A2973 RMK AO2 SNE04 SLP074 P0000 60000 T10671128 53000 (KB)EQDQ013     3APCTENQ02  00008PRCP03
0205726170147422025010421004+44467-073150FM-12+010499999V0203401N003119999999N016000199-00671-01281100741ADDAA103000021GA1999+012501999GE19AGL   +99999+99999GF106991999999012501999999MA1999999099421MD1490001+9999REMSYN07072617 12666 63406 11067 21128 39942 40074 53000 69907 92054 555 90421=EQDQ013     3APCTEN
0255726170147422025010421547+44468-073150FM-15+0104KBTV V0203405N00415012195MN0128755N5-00725-01225100795ADDAA101000025AU110030015AW1715GA1085+012195999GD14991+0121959GE19AGL   +99999+99999GF199999999999012191999999MA1100755099515MW1715REMMET11501/04/25 16:54:02 METAR KBTV 042154Z 34008KT 8SM -SN OVC040 M07/M12 A2975 RMK AO2 SNB44 SLP079 P0000 T10721122 (MB)
0242726170147422025010422087+44468-073150FM-16+0104KBTV V0203505N00415010675MN0048285N5-00725-01175999999ADDAA101000021AU110030015AW1715GA1085+010675999GD14991+0106759GE19AGL   +99999+99999GF199999999999010671999999MA1100755099515MW1715REMMET10201/04/25 17:08:02 SPECI KBTV 042208Z 35008KT 3SM -SN OVC035 M07/M12 A2975 RMK AO2 P0000 T10721117 (MB)
0242726170147422025010422227+44468-073150FM-16+0104KBTV V0200205N00365010675MN0080475N5-00785-01175999999ADDAA101000021AU110030015AW1715GA1085+010675999GD14991+0106759GE19AGL   +99999+99999GF199999999999010671999999MA1100755099515MW1715REMMET10201/04/25 17:22:02 SPECI KBTV 042222Z 02007KT 5SM -SN OVC035 M08/M12 A2975 RMK AO2 P0000 T10781117 (MB)
0249726170147422025010422547+44468-073150FM-15+0104KBTV V0200405N00215012505MN0112655N5-00785-01115100815ADDAA101000025AU110030015AW1715GA1085+012505999GD14991+0125059GE19AGL   +99999+99999GF199999999999012501999999MA1100755099515MW1715REMMET10901/04/25 17:54:02 METAR KBTV 042254Z 04004KT 7SM -SN OVC041 M08/M11 A2975 RMK AO2 SLP081 P0000 T10781111 (MB)
0246726170147422025010423467+44468-073150FM-16+0104KBTV V0200405N00365007925MN0024145N5-00785-01115999999ADDAA101000021AU110030015AW1715GA1085+007925999GD14991+0079259GE19AGL   +99999+99999GF199999999999007921999999MA1100785099545MW1715REMMET10601/04/25 18:46:02 SPECI KBTV 042346Z 04007KT 1 1/2SM -SN OVC026 M08/M11 A2976 RMK AO2 P0000 T10781111 (MB)
0347726170147422025010423547+44468-073150FM-15+0104KBTV V0200305N00315006715MN0024145N5-00835-01115100845ADDAA101000025AA206000021AU110030015AW1715GA1085+006715999GD14991+0067159GE19AGL   +99999+99999GF199999999999006711999999KA1060M-00611KA2060N-00831MA1100785099545MD1190109+9999MW1715REMMET13701/04/25 18:54:02 METAR KBTV 042354Z 03006KT 1 1/2SM -SN OVC022 M08/M11 A2976 RMK AO2 SLP084 P0000 60000 T10831111 11061 21083 51010 (MB)EQDQ01  00008PRCP06
0240726170147422025010500004+44467-073150FM-12+010499999V0200301N003119999999N002400199-00831-01111100841ADDAA106000021GA1999+008001999GE19AGL   +99999+99999GF108991999999008001999999KA1120M-00611KA2120N-00941MA1999999099521MD1110101+9999MW1711REMSYN09272617 11524 80306 11083 21111 39952 40084 51010 69901 771// 92354 333 11061 21094 555 90500=
0257726170147422025010500137+44468-073150FM-16+0104KBTV V0200305N00315006105MN0032195N5-00835-01065999999ADDAA101000231AU110030015AU200001015AW1105AW2715GA1085+006105999GD14991+0061059GE19AGL   +99999+99999GF199999999999006101999999MA1100815099575MW1715REMMET10001/04/25 19:13:01 SPECI KBTV 050013Z 03006KT 2SM -SN BR OVC020 M08/M11 A2977 RMK AO2 P0001 T10831106
0241726170147422025010500267+44468-073150FM-16+0104KBTV V0200405N00415006105MN0028165N5-00835-01115999999ADDAA101000231AU110030015AW1715GA1085+006105999GD14991+0061059GE19AGL   +99999+99999GF199999999999006101999999MA1100815099575MW1715REMMET10101/04/25 19:26:01 SPECI KBTV 050026Z 04008KT 1 3/4SM -SN OVC020 M08/M11 A2977 RMK AO2 P0001 T10831111
0241726170147422025010500387+44468-073150FM-16+0104KBTV V0200505N00315007325MN0040235N5-00835-01115999999ADDAA101000231AU110030015AW1715GA1085+007325999GD14991+0073259GE19AGL   +99999+99999GF199999999999007321999999MA1100815099575MW1715REMMET10101/04/25 19:38:01 SPECI KBTV 050038Z 05006KT 2 1/2SM -SN OVC024 M08/M11 A2977 RMK AO2 P0001 T10831111
0178726170147422025010500526+44468-073150FM-16+0104KBTV V0200405N00315007325MN0048285N5-00805-01105999999ADDAU110030015AW1715GA1085+007325999GD14991+0073259MA1100815099575MW1715REMMET09701/04/25 19:52:03 SPECI KBTV 050052Z 04006KT 3SM -SN OVC024 M08/M11 A2977 RMK AO2 P0001 FIBI (MB)
0244726170147422025010500547+44468-073150FM-15+0104KBTV V0200405N00315006715MN0032195N5-00835-01115100875ADDAA101000595AU110030015AW1715GA1085+006715999GD14991+0067159GE19AGL   +99999+99999GF199999999999006711999999MA1100815099575MW1715REMMET10401/04/25 19:54:01 METAR KBTV 050054Z 04006KT 2SM -SN OVC022 M08/M11 A2977 RMK AO2 SLP087 P0001 T10831111
0241726170147422025010501037+44468-073150FM-16+0104KBTV V0200505N00365006715MN0024145N5-00835-01115999999ADDAA101000231AU110030015AW1715GA1085+006715999GD14991+0067159GE19AGL   +99999+99999GF199999999999006711999999MA1100815099575MW1715REMMET10101/04/25 20:03:01 SPECI KBTV 050103Z 05007KT 1 1/2SM -SN OVC022 M08/M11 A2977 RMK AO2 P0001 T10831111
0237726170147422025010501227+44468-073150FM-16+0104KBTV V0200405N00365005795MN0032195N5-00835-01115999999ADDAA101000231AU110030015AW1715GA1085+005795999GD14991+0057959GE19AGL   +99999+99999GF199999999999005791999999MA1100815099575MW1715REMMET09701/04/25 20:22:01 SPECI KBTV 050122Z 04007KT 2SM -SN OVC019 M08/M11 A2977 RMK AO2 P0001 T10831111
0259726170147422025010501417+44468-073150FM-16+0104KBTV V0200405N00315006105WN0016095N5-00835-01115999999ADDAA101000231AU110030015AW1715ED115U18299GA1095+006105999GD15991+0061059GE19AGL   +99999+99999GF109991999999006101999999MA1100815099575MW1715REMMET10801/04/25 20:41:01 SPECI KBTV 050141Z 04006KT 1SM R15/P6000FT -SN VV020 M08/M11 A2977 RMK AO2 P0001 T10831111
0309726170147422025010501547+44468-073150FM-15+0104KBTV V0200505N00315005185WN0016095N5-00835-01115100895ADDAA101000025AJ100039100025099AL10199999AU110030015AW1715ED115U16769GA1095+005185999GD15991+0051859GE19AGL   +99999+99999GF109991999999005181999999MA1100855099615MW1715REMMET13101/04/25 20:54:01 METAR KBTV 050154Z 05006KT 1SM R15/5500VP6000FT -SN VV017 M08/M11 A2978 RMK AO2 SLP089 SNINCR 1/1 P0001 T10831111
0266726170147422025010501567+44468-073150FM-16+0104KBTV V0200405N00315005185WN0012075N5-00835-01115999999ADDAA101000021AU110030015AW1715ED115U18299GA1095+005185999GD15991+0051859GE19AGL   +99999+99999GF109991999999005181999999MA1100855099615MW1715REMMET11501/04/25 20:56:01 SPECI KBTV 050156Z 04006KT 3/4SM R15/6000VP6000FT -SN VV017 M08/M11 A2978 RMK AO2 P0000 T10831111
0259726170147422025010502057+44468-073150FM-16+0104KBTV V0200505N00315004885WN0016095N5-00835-01115999999ADDAA101000021AU110030015AW1715ED115U18299GA1095+004885999GD15991+0048859GE19AGL   +99999+99999GF109991999999004881999999MA1100855099615MW1715REMMET10801/04/25 21:05:01 SPECI KBTV 050205Z 05006KT 1SM R15/P6000FT -SN VV016 M08/M11 A2978 RMK AO2 P0000 T10831111
0269726170147422025010502117+44468-073150FM-16+0104KBTV V0200405N00265004885MN0040235N5-00835-01115999999ADDAA101000021AU110030015AW1715ED115U18299GA1085+004885999GD14991+0048859GE19AGL   +99999+99999GF199999999999004881999999MA1100855099615MW1715REMMET11801/04/25 21:11:01 SPECI KBTV 050211Z 04005KT 2 1/2SM R15/6000VP6000FT -SN OVC016 M08/M11 A2978 RMK AO2 P0000 T10831111
0237726170147422025010502187+44468-073150FM-16+0104KBTV V0200505N00415005495MN0064375N5-00835-01115999999ADDAA101000231AU110030015AW1715GA1085+005495999GD14991+0054959GE19AGL   +99999+99999GF199999999999005491999999MA1100855099615MW1715REMMET09701/04/25 21:18:01 SPECI KBTV 050218Z 05008KT 4SM -SN OVC018 M08/M11 A2978 RMK AO2 P0001 T10831111
0237726170147422025010502317+44468-073150FM-16+0104KBTV V0200305N00265005495MN0032195N5-00835-01175999999ADDAA101000231AU110030015AW1715GA1085+005495999GD14991+0054959GE19AGL   +99999+99999GF199999999999005491999999MA1100885099645MW1715REMMET09701/04/25 21:31:01 SPECI KBTV 050231Z 03005KT 2SM -SN OVC018 M08/M12 A2979 RMK AO2 P0001 T10831117
0275726170147422025010502447+44468-073150FM-16+0104KBTV V0200105N00465007325MN0064375N5-00835-01175999999ADDAA101000231AU110030015AW1715GA1045+006105999GA2085+007325999GD12991+0061059GD24991+0073259GE19AGL   +99999+99999GF199999999999006101999999MA1100885099645MW1715REMMET10401/04/25 21:44:01 SPECI KBTV 050244Z 01009KT 4SM -SN SCT020 OVC024 M08/M12 A2979 RMK AO2 P0001 T10831117
0376726170147422025010502547+44468-073150FM-15+0104KBTV V0200205N00365010065MN0080475N5-00835-01175100955ADDAA101000395AA203000891AU110030015AW1715GA1045+005795999GA2075+010065999GA3085+014025999GD12991+0057959GD23991+0100659GD34991+0140259GE19AGL   +99999+99999GF199999999999005791999999MA1100885099645MD1390109+9999MW1715REMMET13001/04/25 21:54:01 METAR KBTV 050254Z 02007KT 5SM -SN SCT019 BKN033 OVC046 M08/M12 A2979 RMK AO2 SLP095 P0001 60003 T10831117 53010EQDQ01  00078PRCP03
0198726170147422025010503004+44467-073150FM-12+010499999V0200201N003619999999N008000199-00831-01171100951ADDAA103000831GA1999+004501999GE19AGL   +99999+99999GF108991999999004501999999MA1999999099631MD1310101+9999MW1711REMSYN07672617 11458 80207 11083 21117 39963 40095 53010 69987 771// 90254 555 90503=
0254726170147422025010503167+44468-073150FM-16+0104KBTV V0200305N00515014635MN0144845N5-00835-01225999999ADDAA101000021GA1025+010975999GA2085+014635999GD11991+0109759GD24991+0146359GE19AGL   +99999+99999GF199999999999010971999999MA1100885099645REMMET10601/04/25 22:16:02 SPECI KBTV 050316Z 03010KT 9SM FEW036 OVC048 M08/M12 A2979 RMK AO2 SNE12 P0000 T10831122
0291726170147422025010503547+44468-073150FM-15+0104KBTV V0200305N00215014335MN0096565N5-00835-01175100995ADDAA101000025AU110030015AW1715GA1045+007925999GA2085+014335999GD12991+0079259GD24991+0143359GE19AGL   +99999+99999GF199999999999007921999999MA1100915099675MW1715REMMET12001/04/25 22:54:02 METAR KBTV 050354Z 03004KT 6SM -SN SCT026 OVC047 M08/M12 A2980 RMK AO2 SNE12B39 SLP099 P0000 T10831117
0313726170147422025010504467+44468-073150FM-16+0104KBTV V0203505N00365008235MN0144845N5-00785-01225999999ADDAA101000021AU110030015AW1715GA1075+008235999GA2075+010065999GA3085+018295999GD13991+0082359GD23991+0100659GD34991+0182959GE19AGL   +99999+99999GF199999999999008231999999MA1100955099715MW1715REMMET11101/04/25 23:46:02 SPECI KBTV 050446Z 35007KT 9SM -SN BKN027 BKN033 OVC060 M08/M12 A2981 RMK AO2 P0000 T10781122
0325726170147422025010504547+44468-073150FM-15+0104KBTV V0203505N00365008235MN0144845N5-00785-01225100995ADDAA101000025AU110030015AW1715GA1075+008235999GA2085+018295999GD13991+0082359GD24991+0182959GE19AGL   +99999+99999GF199999999999008231999999KA1240M-00611KA2240N-00941MA1100955099715MW1715REMMET12801/04/25 23:54:02 METAR KBTV 050454Z 35007KT 9SM -SN BKN027 OVC060 M08/M12 A2981 RMK AO2 SLP099 "LAST" P0000 T10781122 410611094
1011726170147422025010504596+44468-073150SOD  +0104KBTV V020999999999999999999999999999+99999+99999999999ADDAA124000895AJ100059599999999AL12403895AN1024003895AT1AU18SN  5AT2AU13BR  5AX1015245KA1240M-00605KA2240N-00935MG1099524100474OE11240129630010095OE22240093930010095OE33240043899999995REMSOD81824 HR PRECIPITATION (IN): 0.03 SNOW DEPTH (IN):2     24 HR SNOWFALL (IN):1.5  WEATHER(CODE):1  24 HR MAX TEMP (F):21 24 HR MAX TEMP TIME (LST):1530 24 HR MIN TEMP (F):15 24 HR MIN TEMP TIME (LST):0646 AVERAGE STATION PRESSURE(D):29.389 MINIMUM SEA LEVEL PRESSURE:29.67 TIME OF OCCURRENCE:0049 PEAK WIND SPEED (MPH):29  PEAK WIND DIR (DEG):300 PEAK WIND TIME (LST):1009  FASTEST 2MIN SPEED (MPH):21 FASTEST 2MIN DIR (DEG):300 FASTEST 2MIN TIME (LST):1009 AVERAGE WIND SPEED (MPH): 9.8 24 HR AVG TEMP (F):18 DEPART FROM NORMAL:  -1 HEATING DEGREE DAYS: 47 COOLING DEGREE DAYS:  0 LATEST DAY MAX TEMP (0700-1900 LST): 21 LATEST NIGHT MIN TEMP(1900-0800 LST):15 HOURLY INCREMENTAL PRECIPITATION VALUES (IN):0.00 0.00 0.00T     0.00T     0.00 0.00 0.00 0.00T    T    T    T    T    T    T    T    T     0.02T     0.01T    T
0338726170147422025010505547+44468-073150FM-15+0104KBTV V0200105N00265005495MN0064375N5-00785-01225101015ADDAA101000025AA206000891AU110030015AW1715GA1085+005495999GD14991+0054959GE19AGL   +99999+99999GF199999999999005491999999KA1060M-00781KA2060N-00831MA1100955099715MD1190069+9999MW1715REMMET12801/05/25 00:54:02 METAR KBTV 050554Z 01005KT 4SM -SN OVC018 M08/M12 A2981 RMK AO2 SLP101 P0000 60003 T10781122 11078 21083 51006EQDQ01  00078PRCP06
0240726170147422025010506004+44467-073150FM-12+010499999V0200101N002619999999N006000199-00781-01221101011ADDAA106000831AW1711GA1999+004501999GE19AGL   +99999+99999GF108991999999004501999999KA1240M-00721KA2240N-00941MA1999999099691MD1110061+9999REMSYN09272617 17456 80105 11078 21122 39969 40101 51006 69981 771// 90554 333 11072 21094 555 90506=
0244726170147422025010506547+44468-073150FM-15+0104KBTV V0203405N00315008235MN0096565N5-00785-01285101055ADDAA101000025AU110030015AW1715GA1085+008235999GD14991+0082359GE19AGL   +99999+99999GF199999999999008231999999MA1100985099745MW1715REMMET10401/05/25 01:54:02 METAR KBTV 050654Z 34006KT 6SM -SN OVC027 M08/M13 A2982 RMK AO2 SLP105 P0000 T10781128
0237726170147422025010507217+44468-073150FM-16+0104KBTV V0203605N00315010675MN0080475N5-00835-01285999999ADDAA101000021AU110030015AW1715GA1085+010675999GD14991+0106759GE19AGL   +99999+99999GF199999999999010671999999MA1100985099745MW1715REMMET09701/05/25 02:21:02 SPECI KBTV 050721Z 36006KT 5SM -SN OVC035 M08/M13 A2982 RMK AO2 P0000 T10831128
0231726170147422025010507497+44468-073150FM-16+0104KBTV V0200205N00365008235MN0040235N5-00805-01205999999ADDAA101000021AU110030015AW1715GA1085+008235999GD14991+0082359GE19AGL   +99999+99999GF199999999999008231999999MA1100985099745MW1715REMMET09101/05/25 02:49:02 SPECI KBTV 050749Z 02007KT 2 1/2SM -SN OVC027 M08/M12 A2982 RMK AO2 P0000
0244726170147422025010507547+44468-073150FM-15+0104KBTV V0200305N00315008845MN0048285N5-00895-01225101045ADDAA101000025AU110030015AW1715GA1085+008845999GD14991+0088459GE19AGL   +99999+99999GF199999999999008841999999MA1100985099745MW1715REMMET10401/05/25 02:54:02 METAR KBTV 050754Z 03006KT 3SM -SN OVC029 M09/M12 A2982 RMK AO2 SLP104 P0000 T10891122
0237726170147422025010508017+44468-073150FM-16+0104KBTV V0200205N00265012505MN0080475N5-00895-01225999999ADDAA101000021AU110030015AW1715GA1085+012505999GD14991+0125059GE19AGL   +99999+99999GF199999999999012501999999MA1100985099745MW1715REMMET09701/05/25 03:01:02 SPECI KBTV 050801Z 02005KT 5SM -SN OVC041 M09/M12 A2982 RMK AO2 P0000 T10891122
0183726170147422025010508526+44468-073150FM-16+0104KBTV V0200405N00215011895MN0032195V5-00805-01205999999ADDAU110030015AW1715GA1085+011895999GD14991+0118959MA1101025099785MW1715REMMET10201/05/25 03:52:02 SPECI KBTV 050852Z 04004KT 2SM -SN OVC039 M08/M12 A2983 RMK AO2 VIS 3/4V5 P0001 FIBI
0314726170147422025010508547+44468-073150FM-15+0104KBTV V0200405N00215011285MN0028165V5-00835-01175101065ADDAA101000395AA203000391AU110030015AW1715GA1085+011285999GD14991+0112859GE19AGL   +99999+99999GF199999999999011281999999MA1101025099785MD1190069+9999MW1715REMMET13001/05/25 03:54:02 METAR KBTV 050854Z 04004KT 1 3/4SM -SN OVC037 M08/M12 A2983 RMK AO2 VIS 3/4V5 SLP106 P0001 60001 T10831117 51006EQDQ01  00028PRCP03
0198726170147422025010509004+44467-073150FM-12+010499999V0200401N002119999999N002800199-00831-01171101061ADDAA103000331AW1711GA1999+012501999GE19AGL   +99999+99999GF108991999999012501999999MA1999999099761MD1110061+9999REMSYN07672617 17628 80404 11083 21117 39976 40106 51006 69937 771// 90854 555 90509=
0237726170147422025010509047+44468-073150FM-16+0104KBTV V0200605N00215009455MN0048285N5-00835-01175999999ADDAA101000021AU110030015AW1715GA1085+009455999GD14991+0094559GE19AGL   +99999+99999GF199999999999009451999999MA1101025099785MW1715REMMET09701/05/25 04:04:02 SPECI KBTV 050904Z 06004KT 3SM -SN OVC031 M08/M12 A2983 RMK AO2 P0000 T10831117
0275726170147422025010509127+44468-073150FM-16+0104KBTV V0200705N00215008845MN0048285N5-00835-01175999999ADDAA101000021AU110030015AW1715GA1075+008845999GA2085+018295999GD13991+0088459GD24991+0182959GE19AGL   +99999+99999GF199999999999008841999999MA1100985099745MW1715REMMET10401/05/25 04:12:02 SPECI KBTV 050912Z 07004KT 3SM -SN BKN029 OVC060 M08/M12 A2982 RMK AO2 P0000 T10831117
0313726170147422025010509197+44468-073150FM-16+0104KBTV V0200605N00265009455MN0096565N5-00835-01175999999ADDAA101000021AU110030015AW1715GA1075+009455999GA2075+014945999GA3085+018295999GD13991+0094559GD23991+0149459GD34991+0182959GE19AGL   +99999+99999GF199999999999009451999999MA1100985099745MW1715REMMET11101/05/25 04:19:02 SPECI KBTV 050919Z 06005KT 6SM -SN BKN031 BKN049 OVC060 M08/M12 A2982 RMK AO2 P0000 T10831117
0282726170147422025010509547+44468-073150FM-15+0104KBTV V0200805N00155014025MN0096565N5-00835-01225101055ADDAA101000025AU110030015AW1715GA1045+010675999GA2085+014025999GD12991+0106759GD24991+0140259GE19AGL   +99999+99999GF199999999999010671999999MA1100985099745MW1715REMMET11101/05/25 04:54:02 METAR KBTV 050954Z 08003KT 6SM -SN SCT035 OVC046 M08/M12 A2982 RMK AO2 SLP105 P0000 T10831122
0275726170147422025010510107+44468-073150FM-16+0104KBTV V0200605N00265008235MN0064375N5-00895-01225999999ADDAA101000021AU110030015AW1715GA1075+008235999GA2085+014025999GD13991+0082359GD24991+0140259GE19AGL   +99999+99999GF199999999999008231999999MA1100985099745MW1715REMMET10401/05/25 05:10:02 SPECI KBTV 051010Z 06005KT 4SM -SN BKN027 OVC046 M09/M12 A2982 RMK AO2 P0000 T10891122
0246726170147422025010510277+44468-073150FM-16+0104KBTV V0200405N00215007015MN0040235N5-00895-01225999999ADDAA101000021AU110030015AW1715GA1085+007015999GD14991+0070159GE19AGL   +99999+99999GF199999999999007011999999MA1100985099745MW1715REMMET10601/05/25 05:27:02 SPECI KBTV 051027Z 04004KT 2 1/2SM -SN OVC023 M09/M12 A2982 RMK AO2 P0000 T10891122 (MB)
0232726170147422025010510527+44468-073150FM-16+0104KBTV V0200305N00315006715MN0048285N5-00905-01205999999ADDAA101000021AU110030015AW1715GA1085+006715999GD14991+0067159GE19AGL   +99999+99999GF199999999999006711999999MA1101025099785MW1715REMMET09201/05/25 05:52:02 SPECI KBTV 051052Z 03006KT 3SM -SN OVC022 M09/M12 A2983 RMK AO2 P0000 (MB)
0249726170147422025010510547+44468-073150FM-15+0104KBTV V0200205N00365006715MN0032195N5-00895-01225101095ADDAA101000025AU110030015AW1715GA1085+006715999GD14991+0067159GE19AGL   +99999+99999GF199999999999006711999999MA1101025099785MW1715REMMET10901/05/25 05:54:02 METAR KBTV 051054Z 02007KT 2SM -SN OVC022 M09/M12 A2983 RMK AO2 SLP109 P0000 T10891122 (MB)
0264726170147422025010511267+44468-073150FM-16+0104KBTV V0200205N00415006105WN0016095N5-00895-01175999999ADDAA101000231AU110030015AW1715ED115U18299GA1095+006105999GD15991+0061059GE19AGL   +99999+99999GF109991999999006101999999MA1101085099845MW1715REMMET11301/05/25 06:26:02 SPECI KBTV 051126Z 02008KT 1SM R15/P6000FT -SN VV020 M09/M12 A2985 RMK AO2 P0001 T10891117 (MB)
0242726170147422025010511417+44468-073150FM-16+0104KBTV V0200105N00365008235MN0064375N5-00895-01175999999ADDAA101000231AU110030015AW1715GA1085+008235999GD14991+0082359GE19AGL   +99999+99999GF199999999999008231999999MA1101085099845MW1715REMMET10201/05/25 06:41:02 SPECI KBTV 051141Z 01007KT 4SM -SN OVC027 M09/M12 A2985 RMK AO2 P0001 T10891117 (MB)
0255726170147422025010511507+44468-073150FM-16+0104KBTV V0200105N00415011585MN0080475N5-00905-01205999999ADDAA101000231AJ100053100051099AU110030015AW1715GA1085+011585999GD14991+0115859GE19AGL   +99999+99999GF199999999999011581999999MA1101125099885MW1715REMMET09801/05/25 06:50:02 SPECI KBTV 051150Z 01008KT 5SM -SN OVC038 M09/M12 A2986 RMK AO2 4/002 P0001 (MB)
0399726170147422025010511547+44468-073150FM-15+0104KBTV V0200105N00365012195MN0080475N5-00895-01175101175ADDAA101000395AA206000591AA324001391AJ100059500051099AU110030015AW1715GA1085+012195999GD14991+0121959GE19AGL   +99999+99999GF199999999999012191999999KA1060M-00781KA2060N-00891MA1101125099885MD1290089+9999MW1715REMMET14501/05/25 06:54:02 METAR KBTV 051154Z 01007KT 5SM -SN OVC040 M09/M12 A2986 RMK AO2 SLP117 4/002 P0001 60002 70005 T10891117 11078 21089 52008 (MB)EQDQ01  00058PRCP06Q02  00128PRCP24
0280726170147422025010512004+44467-073150FM-12+010499999V0200101N003619999999N008000199-00891-01171101171ADDAA106000531AA224001331AJ100053100050099GA1999+012501999GE19AGL   +99999+99999GF108991999999012501999999KA1240M-00611KA2240N-00891MA1999999099861MD1210081+9999MW1711REMSYN10472617 11658 80107 11089 21117 39986 40117 52008 69951 771// 91154 333 11061 21089 4/005 70013 555 90512=
0242726170147422025010512137+44468-073150FM-16+0104KBTV V0203605N00365012195MN0032195N5-00895-01175999999ADDAA101000021AU110030015AW1715GA1085+012195999GD14991+0121959GE19AGL   +99999+99999GF199999999999012191999999MA1101125099885MW1715REMMET10201/05/25 07:13:02 SPECI KBTV 051213Z 36007KT 2SM -SN OVC040 M09/M12 A2986 RMK AO2 P0000 T10891117 (MB)
0265726170147422025010512177+44468-073150FM-16+0104KBTV V0203605N00315011585MN0016095N5-00895-01175999999ADDAA101000021AU110030015AW1715ED115U18299GA1085+011585999GD14991+0115859GE19AGL   +99999+99999GF199999999999011581999999MA1101125099885MW1715REMMET11401/05/25 07:17:02 SPECI KBTV 051217Z 36006KT 1SM R15/P6000FT -SN OVC038 M09/M12 A2986 RMK AO2 P0000 T10891117 (MB)
0030726170147422025010512184+44468-073150SHEF +010199999V020999999999999999999999999999+99999+99999999999ADDAJ100053100051099AL19900531
0242726170147422025010512267+44468-073150FM-16+0104KBTV V0203605N00315010975MN0032195N5-00895-01175999999ADDAA101000021AU110030015AW1715GA1085+010975999GD14991+0109759GE19AGL   +99999+99999GF199999999999010971999999MA1101155099915MW1715REMMET10201/05/25 07:26:02 SPECI KBTV 051226Z 36006KT 2SM -SN OVC036 M09/M12 A2987 RMK AO2 P0000 T10891117 (MB)
0242726170147422025010512347+44468-073150FM-16+0104KBTV V0200105N00315010975MN0080475N5-00895-01175999999ADDAA101000021AU110030015AW1715GA1085+010975999GD14991+0109759GE19AGL   +99999+99999GF199999999999010971999999MA1101155099915MW1715REMMET10201/05/25 07:34:02 SPECI KBTV 051234Z 01006KT 5SM -SN OVC036 M09/M12 A2987 RMK AO2 P0000 T10891117 (MB)
0287726170147422025010512547+44468-073150FM-15+0104KBTV V0203605N00315009755MN0032195N5-00895-01225101255ADDAA101000025AU110030015AW1715GA1075+009755999GA2085+014635999GD13991+0097559GD24991+0146359GE19AGL   +99999+99999GF199999999999009751999999MA1101195099945MW1715REMMET11601/05/25 07:54:02 METAR KBTV 051254Z 36006KT 2SM -SN BKN032 OVC048 M09/M12 A2988 RMK AO2 SLP125 P0000 T10891122 (MB)
0284726170147422025010513037+44468-073150FM-16+0104KBTV V0203505N00515007325MN0028165N5-00895-01225999999ADDAA101000021AU110030015AW1715GA1075+007325999GA2085+014635999GD13991+0073259GD24991+0146359GE19AGL   +99999+99999GF199999999999007321999999MA1101195099945MW1715REMMET11301/05/25 08:03:02 SPECI KBTV 051303Z 35010KT 1 3/4SM -SN BKN024 OVC048 M09/M12 A2988 RMK AO2 P0000 T10891122 (MB)
0267726170147422025010513067+44468-073150FM-16+0104KBTV V0203505N00515006715MN0012075N5-00895-01225999999ADDAA101000021AU110030015AW1715ED115U18299GA1085+006715999GD14991+0067159GE19AGL   +99999+99999GF199999999999006711999999MA1101195099945MW1715REMMET11601/05/25 08:06:02 SPECI KBTV 051306Z 35010KT 3/4SM R15/P6000FT -SN OVC022 M09/M12 A2988 RMK AO2 P0000 T10891122 (MB)
0265726170147422025010513397+44468-073150FM-16+0104KBTV V0203505N00365008235MN0016095N5-00895-01225999999ADDAA101000231AU110030015AW1715ED115U18299GA1085+008235999GD14991+0082359GE19AGL   +99999+99999GF199999999999008231999999MA1101255100015MW1715REMMET11401/05/25 08:39:02 SPECI KBTV 051339Z 35007KT 1SM R15/P6000FT -SN OVC027 M09/M12 A2990 RMK AO2 P0001 T10891122 (MB)
0308726170147422025010513487+44468-073150FM-16+0104KBTV V0203405N00575008845MN0032195N5-00905-01205999999ADDAA101000231AU110030015AW1715GA1025+007325999GA2075+008845999GA3085+014945999GD11991+0073259GD23991+0088459GD34991+0149459GE19AGL   +99999+99999GF199999999999007321999999MA1101255100015MW1715REMMET10601/05/25 08:48:02 SPECI KBTV 051348Z 34011KT 2SM -SN FEW024 BKN029 OVC049 M09/M12 A2990 RMK AO2 P0001 (MB)
0239726170147422025010513526+44468-073150FM-16+0104KBTV V0203305N00515008235MN0016095N5-00905-01205999999ADDAU110030015AW1715ED115U18299GA1075+008235999GA2085+014945999GD13991+0082359GD24991+0149459MA1101255100015MW1715REMMET11601/05/25 08:52:02 SPECI KBTV 051352Z 33010KT 1SM R15/P6000FT -SN BKN027 OVC049 M09/M12 A2990 RMK AO2 P0001 FIBI (MB)
0310726170147422025010513547+44468-073150FM-15+0104KBTV V0203305N00465007625MN0016095N5-00895-01225101325ADDAA101000395AU110030015AW1715ED115U18299GA1075+007625999GA2085+014945999GD13991+0076259GD24991+0149459GE19AGL   +99999+99999GF199999999999007621999999MA1101255100015MW1715REMMET12801/05/25 08:54:02 METAR KBTV 051354Z 33009KT 1SM R15/P6000FT -SN BKN025 OVC049 M09/M12 A2990 RMK AO2 SLP132 P0001 T10891122 (MB)
0280726170147422025010513567+44468-073150FM-16+0104KBTV V0203305N00515007625MN0032195N5-00895-01225999999ADDAA101000021AU110030015AW1715GA1075+007625999GA2085+014945999GD13991+0076259GD24991+0149459GE19AGL   +99999+99999GF199999999999007621999999MA1101255100015MW1715REMMET10901/05/25 08:56:02 SPECI KBTV 051356Z 33010KT 2SM -SN BKN025 OVC049 M09/M12 A2990 RMK AO2 P0000 T10891122 (MB)
0367726170147422025010514097+44468-073150FM-16+0104KBTV V0203405N00675007015MN0016095V5-00895-01285999999ADDAA101000021AU110030015AW1715ED115U16769GA1075+007015999GA2075+008535999GA3085+010365999GD13991+0070159GD23991+0085359GD34991+0103659GE19AGL   +99999+99999GF199999999999007011999999MA1101295100045MW1715OC100935REMMET14601/05/25 09:09:02 SPECI KBTV 051409Z 34013G18KT 1SM R15/5500VP6000FT -SN BKN023 BKN028 OVC034 M09/M13 A2991 RMK AO2 VIS 3/4V3 P0000 T10891128 (MB)
0369726170147422025010514107+44468-073150FM-16+0104KBTV V0203405N00675006405MN0012075V5-00895-01285999999ADDAA101000021AU110030015AW1715ED115U16769GA1075+006405999GA2075+007925999GA3085+010365999GD13991+0064059GD23991+0079259GD34991+0103659GE19AGL   +99999+99999GF199999999999006401999999MA1101295100045MW1715OC100935REMMET14801/05/25 09:10:02 SPECI KBTV 051410Z 34013G18KT 3/4SM R15/5500VP6000FT -SN BKN021 BKN026 OVC034 M09/M13 A2991 RMK AO2 VIS 3/4V3 P0000 T10891128 (MB)
0356726170147422025010514147+44468-073150FM-16+0104KBTV V0203405N00575006405MN0016095V5-00895-01285999999ADDAA101000021AU110030015AW1715ED115U16769GA1075+006405999GA2075+007925999GA3085+010365999GD13991+0064059GD23991+0079259GD34991+0103659GE19AGL   +99999+99999GF199999999999006401999999MA1101295100045MW1715REMMET14301/05/25 09:14:02 SPECI KBTV 051414Z 34011KT 1SM R15/5500VP6000FT -SN BKN021 BKN026 OVC034 M09/M13 A2991 RMK AO2 VIS 3/4V3 P0000 T10891128 (MB)
0291726170147422025010514247+44468-073150FM-16+0104KBTV V0203405N00575007625MN0048285N5-00895-01395999999ADDAA101000021AU110030015AW1715GA1075+007625999GA2085+010365999GD13991+0076259GD24991+0103659GE19AGL   +99999+99999GF199999999999007621999999MA1101295100045MW1715OC101245REMMET11201/05/25 09:24:02 SPECI KBTV 051424Z 34011G24KT 3SM -SN BKN025 OVC034 M09/M14 A2991 RMK AO2 P0000 T10891139 (MB)
0340726170147422025010514317+44468-073150FM-16+0104KBTV V0203405N00725008235MN0096565N5-00895-01395999999ADDAA101000021AU110030015AU225030015AW1275AW2715GA1075+008235999GA2075+010975999GA3085+014335999GD13991+0082359GD23991+0109759GD34991+0143359GE19AGL   +99999+99999GF199999999999008231999999MA1101325100085MW1715REMMET12101/05/25 09:31:02 SPECI KBTV 051431Z 34014KT 6SM -SN BLSN BKN027 BKN036 OVC047 M09/M14 A2992 RMK AO2 P0000 T10891139 (MB)
0351726170147422025010514407+44468-073150FM-16+0104KBTV V0203405N00675009755MN0096565N5-00895-01395999999ADDAA101000021AU110030015AU225030015AW1275AW2715GA1075+009755999GA2075+012505999GA3085+014635999GD13991+0097559GD23991+0125059GD34991+0146359GE19AGL   +99999+99999GF199999999999009751999999MA1101325100085MW1715OC101245REMMET12401/05/25 09:40:02 SPECI KBTV 051440Z 34013G24KT 6SM -SN BLSN BKN032 BKN041 OVC048 M09/M14 A2992 RMK AO2 P0000 T10891139 (MB)
0340726170147422025010514427+44468-073150FM-16+0104KBTV V0203505N00725009755MN0048285N5-00945-01395999999ADDAA101000021AU110030015AU225030015AW1275AW2715GA1075+009755999GA2075+012505999GA3085+014635999GD13991+0097559GD23991+0125059GD34991+0146359GE19AGL   +99999+99999GF199999999999009751999999MA1101325100085MW1715REMMET12101/05/25 09:42:02 SPECI KBTV 051442Z 35014KT 3SM -SN BLSN BKN032 BKN041 OVC048 M09/M14 A2992 RMK AO2 P0000 T10941139 (MB)
0355726170147422025010514457+44468-073150FM-16+0104KBTV V0203605N00575009145MN0024145N5-00945-01335999999ADDAA101000021AU110030015AU225030015AW1275AW2715GA1075+009145999GA2075+011585999GA3085+014635999GD13991+0091459GD23991+0115859GD34991+0146359GE19AGL   +99999+99999GF199999999999009141999999MA1101325100085MW1715OC100985REMMET12801/05/25 09:45:02 SPECI KBTV 051445Z 36011G19KT 1 1/2SM -SN BLSN BKN030 BKN038 OVC048 M09/M13 A2992 RMK AO2 P0000 T10941133 (MB)
0386726170147422025010514467+44468-073150FM-16+0104KBTV V0203605N00575008535MN0012075V5-00945-01335999999ADDAA101000021AU110030015AU225030015AW1275AW2715ED115U18299GA1075+008535999GA2075+011585999GA3085+014635999GD13991+0085359GD23991+0115859GD34991+0146359GE19AGL   +99999+99999GF199999999999008531999999MA1101325100085MW1715OC100985REMMET14801/05/25 09:46:02 SPECI KBTV 051446Z 36011G19KT 3/4SM R15/P6000FT -SN BLSN BKN028 BKN038 OVC048 M09/M13 A2992 RMK AO2 VIS 3/4V2 P0000 T10941133 (MB)
