0091726140547422024010104596+44420-072019SOD  +0212K1V4 V020999999999999999999999999999+99999+99999999999ADDAA124000095OE11249999999999997OE22249999999999997REMSOD03024 HR PRECIPITATION (IN): 0.00
0148726140547422024010105546+44420-072019FM-15+0212K1V4 V02099999999999999999N9999997N5+99999+99999999999ADDMA1101465098935MD1190039+9999REMMET07201/01/24 00:54:02 METAR K1V4 010554Z      KT A2996 RMK AO1 SLPNO 51003 $EQDR01      7SKY009R02      7GAS009
0128726140547422024010106546+44420-072019FM-15+0212K1V4 V02099999999999999999N9999997N5+99999+99999999999ADDMA1101495098965REMMET06601/01/24 01:54:02 METAR K1V4 010654Z      KT A2997 RMK AO1 SLPNO $EQDR01      7SKY009R02      7GAS009
0128726140547422024010107546+44420-072019FM-15+0212K1V4 V02099999999999999999N9999997N5+99999+99999999999ADDMA1101495098965REMMET06601/01/24 02:54:02 METAR K1V4 010754Z      KT A2997 RMK AO1 SLPNO $EQDR01      7SKY009R02      7GAS009
0148726140547422024010108546+44420-072019FM-15+0212K1V4 V02099999999999999999N9999997N5+99999+99999999999ADDMA1101465098935MD1090009+9999REMMET07201/01/24 03:54:02 METAR K1V4 010854Z      KT A2996 RMK AO1 SLPNO 50000 $EQDR01      7SKY009R02      7GAS009
0128726140547422024010109546+44420-072019FM-15+0212K1V4 V02099999999999999999N9999997N5+99999+99999999999ADDMA1101495098965REMMET06601/01/24 04:54:02 METAR K1V4 010954Z      KT A2997 RMK AO1 SLPNO $EQDR01      7SKY009R02      7GAS009
0128726140547422024010110546+44420-072019FM-15+0212K1V4 V02099999999999999999N9999997N5+99999+99999999999ADDMA1101565099035REMMET06601/01/24 05:54:02 METAR K1V4 011054Z      KT A2999 RMK AO1 SLPNO $EQDR01      7SKY009R02      7GAS009
0148726140547422024010111546+44420-072019FM-15+0212K1V4 V02099999999999999999N9999997N5+99999+99999999999ADDMA1101635099105MD1390179+9999REMMET07201/01/24 06:54:02 METAR K1V4 011154Z      KT A3001 RMK AO1 SLPNO 53017 $EQDR01      7SKY009R02      7GAS009
0128726140547422024010112546+44420-072019FM-15+0212K1V4 V02099999999999999999N9999997N5+99999+99999999999ADDMA1101665099135REMMET06601/01/24 07:54:02 METAR K1V4 011254Z      KT A3002 RMK AO1 SLPNO $EQDR01      7SKY009R02      7GAS009
0128726140547422024010113546+44420-072019FM-15+0212K1V4 V02099999999999999999N9999997N5+99999+99999999999ADDMA1101735099205REMMET06601/01/24 08:54:02 METAR K1V4 011354Z      KT A3004 RMK AO1 SLPNO $EQDR01      7SKY009R02      7GAS009
0148726140547422024010114546+44420-072019FM-15+0212K1V4 V02099999999999999999N9999997N5+99999+99999999999ADDMA1101765099235MD1290139+9999REMMET07201/01/24 09:54:02 METAR K1V4 011454Z      KT A3005 RMK AO1 SLPNO 52013 $EQDR01      7SKY009R02      7GAS009
0128726140547422024010115546+44420-072019FM-15+0212K1V4 V02099999999999999999N9999997N5+99999+99999999999ADDMA1101735099205REMMET06601/01/24 10:54:02 METAR K1V4 011554Z      KT A3004 RMK AO1 SLPNO $EQDR01      7SKY009R02      7GAS009
0128726140547422024010116546+44420-072019FM-15+0212K1V4 V02099999999999999999N9999997N5+99999+99999999999ADDMA1101665099135REMMET06601/01/24 11:54:02 METAR K1V4 011654Z      KT A3002 RMK AO1 SLPNO $EQDR01      7SKY009R02      7GAS009
0148726140547422024010117546+44420-072019FM-15+0212K1V4 V02099999999999999999N9999997N5+99999+99999999999ADDMA1101635099105MD1790139+9999REMMET07201/01/24 12:54:02 METAR K1V4 011754Z      KT A3001 RMK AO1 SLPNO 57013 $EQDR01      7SKY009R02      7GAS009
0128726140547422024010118546+44420-072019FM-15+0212K1V4 V02099999999999999999N9999997N5+99999+99999999999ADDMA1101665099135REMMET06601/01/24 13:54:02 METAR K1V4 011854Z      KT A3002 RMK AO1 SLPNO $EQDR01      7SKY009R02      7GAS009
0128726140547422024010119546+44420-072019FM-15+0212K1V4 V02099999999999999999N9999997N5+99999+99999999999ADDMA1101695099165REMMET06601/01/24 14:54:02 METAR K1V4 011954Z      KT A3003 RMK AO1 SLPNO $EQDR01      7SKY009R02      7GAS009
0148726140547422024010120546+44420-072019FM-15+0212K1V4 V02099999999999999999N9999997N5+99999+99999999999ADDMA1101735099205MD1290109+9999REMMET07201/01/24 15:54:02 METAR K1V4 012054Z      KT A3004 RMK AO1 SLPNO 52010 $EQDR01      7SKY009R02      7GAS009
0128726140547422024010121546+44420-072019FM-15+0212K1V4 V02099999999999999999N9999997N5+99999+99999999999ADDMA1101735099205REMMET06601/01/24 16:54:02 METAR K1V4 012154Z      KT A3004 RMK AO1 SLPNO $EQDR01      7SKY009R02      7GAS009
0128726140547422024010122546+44420-072019FM-15+0212K1V4 V02099999999999999999N9999997N5+99999+99999999999ADDMA1101765099235REMMET06601/01/24 17:54:02 METAR K1V4 012254Z      KT A3005 RMK AO1 SLPNO $EQDR01      7SKY009R02      7GAS009
0148726140547422024010123546+44420-072019FM-15+0212K1V4 V02099999999999999999N9999997N5+99999+99999999999ADDMA1101835099305MD1390109+9999REMMET07201/01/24 18:54:02 METAR K1V4 012354Z      KT A3007 RMK AO1 SLPNO 53010 $EQDR01      7SKY009R02      7GAS009
0128726140547422024010200546+44420-072019FM-15+0212K1V4 V02099999999999999999N9999997N5+99999+99999999999ADDMA1101795099265REMMET06601/01/24 19:54:01 METAR K1V4 020054Z      KT A3006 RMK AO1 SLPNO $EQDR01      7SKY009R02      7GAS009
0128726140547422024010201546+44420-072019FM-15+0212K1V4 V02099999999999999999N9999997N5+99999+99999999999ADDMA1101795099265REMMET06601/01/24 20:54:01 METAR K1V4 020154Z      KT A3006 RMK AO1 SLPNO $EQDR01      7SKY009R02      7GAS009
0148726140547422024010202546+44420-072019FM-15+0212K1V4 V02099999999999999999N9999997N5+99999+99999999999ADDMA1101795099265MD1690039+9999REMMET07201/01/24 21:54:01 METAR K1V4 020254Z      KT A3006 RMK AO1 SLPNO 56003 $EQDR01      7SKY009R02      7GAS009
0128726140547422024010203546+44420-072019FM-15+0212K1V4 V02099999999999999999N9999997N5+99999+99999999999ADDMA1101795099265REMMET06601/01/24 22:54:01 METAR K1V4 020354Z      KT A3006 RMK AO1 SLPNO $EQDR01      7SKY009R02      7GAS009
0128726140547422024010204546+44420-072019FM-15+0212K1V4 V02099999999999999999N9999997N5+99999+99999999999ADDMA1101735099205REMMET06601/01/24 23:54:02 METAR K1V4 020454Z      KT A3004 RMK AO1 SLPNO $EQDR01      7SKY009R02      7GAS009
0141726140547422024010204596+44420-072019SOD  +0212K1V4 V020999999999999999999999999999+99999+99999999999ADDAA124000095MG1099149999994OE11249999999999997OE22249999999999997REMSOD06524 HR PRECIPITATION (IN): 0.00 AVERAGE STATION PRESSURE(D):29.276
0148726140547422024010205546+44420-072019FM-15+0212K1V4 V02099999999999999999N9999997N5+99999+99999999999ADDMA1101735099205MD1790079+9999REMMET07201/02/24 00:54:02 METAR K1V4 020554Z      KT A3004 RMK AO1 SLPNO 57007 $EQDR01      7SKY009R02      7GAS009
0128726140547422024010206546+44420-072019FM-15+0212K1V4 V02099999999999999999N9999997N5+99999+99999999999ADDMA1101735099205REMMET06601/02/24 01:54:02 METAR K1V4 020654Z      KT A3004 RMK AO1 SLPNO $EQDR01      7SKY009R02      7GAS009
0128726140547422024010207546+44420-072019FM-15+0212K1V4 V02099999999999999999N9999997N5+99999+99999999999ADDMA1101695099165REMMET06601/02/24 02:54:02 METAR K1V4 020754Z      KT A3003 RMK AO1 SLPNO $EQDR01      7SKY009R02      7GAS009
0148726140547422024010208546+44420-072019FM-15+0212K1V4 V02099999999999999999N9999997N5+99999+99999999999ADDMA1101665099135MD1890079+9999REMMET07201/02/24 03:54:02 METAR K1V4 020854Z      KT A3002 RMK AO1 SLPNO 58007 $EQDR01      7SKY009R02      7GAS009
0128726140547422024010209546+44420-072019FM-15+0212K1V4 V02099999999999999999N9999997N5+99999+99999999999ADDMA1101635099105REMMET06601/02/24 04:54:02 METAR K1V4 020954Z      KT A3001 RMK AO1 SLPNO $EQDR01      7SKY009R02      7GAS009
0128726140547422024010210546+44420-072019FM-15+0212K1V4 V02099999999999999999N9999997N5+99999+99999999999ADDMA1101665099135REMMET06601/02/24 05:54:02 METAR K1V4 021054Z      KT A3002 RMK AO1 SLPNO $EQDR01      7SKY009R02      7GAS009
0148726140547422024010211546+44420-072019FM-15+0212K1V4 V02099999999999999999N9999997N5+99999+99999999999ADDMA1101695099165MD1390039+9999REMMET07201/02/24 06:54:02 METAR K1V4 021154Z      KT A3003 RMK AO1 SLPNO 53003 $EQDR01      7SKY009R02      7GAS009
0128726140547422024010212546+44420-072019FM-15+0212K1V4 V02099999999999999999N9999997N5+99999+99999999999ADDMA1101695099165REMMET06601/02/24 07:54:02 METAR K1V4 021254Z      KT A3003 RMK AO1 SLPNO $EQDR01      7SKY009R02      7GAS009
0128726140547422024010213546+44420-072019FM-15+0212K1V4 V02099999999999999999N9999997N5+99999+99999999999ADDMA1101695099165REMMET06601/02/24 08:54:02 METAR K1V4 021354Z      KT A3003 RMK AO1 SLPNO $EQDR01      7SKY009R02      7GAS009
0148726140547422024010214546+44420-072019FM-15+0212K1V4 V02099999999999999999N9999997N5+99999+99999999999ADDMA1101665099135MD1890039+9999REMMET07201/02/24 09:54:02 METAR K1V4 021454Z      KT A3002 RMK AO1 SLPNO 58003 $EQDR01      7SKY009R02      7GAS009
0128726140547422024010215546+44420-072019FM-15+0212K1V4 V02099999999999999999N9999997N5+99999+99999999999ADDMA1101595099065REMMET06601/02/24 10:54:02 METAR K1V4 021554Z      KT A3000 RMK AO1 SLPNO $EQDR01      7SKY009R02      7GAS009
0128726140547422024010216546+44420-072019FM-15+0212K1V4 V02099999999999999999N9999997N5+99999+99999999999ADDMA1101495098965REMMET06601/02/24 11:54:02 METAR K1V4 021654Z      KT A2997 RMK AO1 SLPNO $EQDR01      7SKY009R02      7GAS009
0148726140547422024010217546+44420-072019FM-15+0212K1V4 V02099999999999999999N9999997N5+99999+99999999999ADDMA1101355098835MD1890309+9999REMMET07201/02/24 12:54:02 METAR K1V4 021754Z      KT A2993 RMK AO1 SLPNO 58030 $EQDR01      7SKY009R02      7GAS009
0128726140547422024010218546+44420-072019FM-15+0212K1V4 V02099999999999999999N9999997N5+99999+99999999999ADDMA1101295098775REMMET06601/02/24 13:54:02 METAR K1V4 021854Z      KT A2991 RMK AO1 SLPNO $EQDR01      7SKY009R02      7GAS009
0128726140547422024010219546+44420-072019FM-15+0212K1V4 V02099999999999999999N9999997N5+99999+99999999999ADDMA1101295098775REMMET06601/02/24 14:54:02 METAR K1V4 021954Z      KT A2991 RMK AO1 SLPNO $EQDR01      7SKY009R02      7GAS009
0148726140547422024010220546+44420-072019FM-15+0212K1V4 V02099999999999999999N9999997N5+99999+99999999999ADDMA1101255098735MD1690109+9999REMMET07201/02/24 15:54:02 METAR K1V4 022054Z      KT A2990 RMK AO1 SLPNO 56010 $EQDR01      7SKY009R02      7GAS009
0128726140547422024010221546+44420-072019FM-15+0212K1V4 V02099999999999999999N9999997N5+99999+99999999999ADDMA1101295098775REMMET06601/02/24 16:54:02 METAR K1V4 022154Z      KT A2991 RMK AO1 SLPNO $EQDR01      7SKY009R02      7GAS009
0128726140547422024010222546+44420-072019FM-15+0212K1V4 V02099999999999999999N9999997N5+99999+99999999999ADDMA1101255098735REMMET06601/02/24 17:54:02 METAR K1V4 022254Z      KT A2990 RMK AO1 SLPNO $EQDR01      7SKY009R02      7GAS009
0148726140547422024010223546+44420-072019FM-15+0212K1V4 V02099999999999999999N9999997N5+99999+99999999999ADDMA1101255098735MD1090009+9999REMMET07201/02/24 18:54:02 METAR K1V4 022354Z      KT A2990 RMK AO1 SLPNO 50000 $EQDR01      7SKY009R02      7GAS009
0128726140547422024010300546+44420-072019FM-15+0212K1V4 V02099999999999999999N9999997N5+99999+99999999999ADDMA1101295098775REMMET06601/02/24 19:54:01 METAR K1V4 030054Z      KT A2991 RMK AO1 SLPNO $EQDR01      7SKY009R02      7GAS009
0128726140547422024010301546+44420-072019FM-15+0212K1V4 V02099999999999999999N9999997N5+99999+99999999999ADDMA1101325098805REMMET06601/02/24 20:54:01 METAR K1V4 030154Z      KT A2992 RMK AO1 SLPNO $EQDR01      7SKY009R02      7GAS009
0148726140547422024010302546+44420-072019FM-15+0212K1V4 V02099999999999999999N9999997N5+99999+99999999999ADDMA1101325098805MD1190079+9999REMMET07201/02/24 21:54:01 METAR K1V4 030254Z      KT A2992 RMK AO1 SLPNO 51007 $EQDR01      7SKY009R02      7GAS009
0128726140547422024010303546+44420-072019FM-15+0212K1V4 V02099999999999999999N9999997N5+99999+99999999999ADDMA1101325098805REMMET06601/02/24 22:54:01 METAR K1V4 030354Z      KT A2992 RMK AO1 SLPNO $EQDR01      7SKY009R02      7GAS009
0128726140547422024010304546+44420-072019FM-15+0212K1V4 V02099999999999999999N9999997N5+99999+99999999999ADDMA1101295098775REMMET06601/02/24 23:54:02 METAR K1V4 030454Z      KT A2991 RMK AO1 SLPNO $EQDR01      7SKY009R02      7GAS009
0141726140547422024010304596+44420-072019SOD  +0212K1V4 V020999999999999999999999999999+99999+99999999999ADDAA124000095MG1098959999994OE11249999999999997OE22249999999999997REMSOD06524 HR PRECIPITATION (IN): 0.00 AVERAGE STATION PRESSURE(D):29.221
0148726140547422024010305546+44420-072019FM-15+0212K1V4 V02099999999999999999N9999997N5+99999+99999999999ADDMA1101255098735MD1890079+9999REMMET07201/03/24 00:54:02 METAR K1V4 030554Z      KT A2990 RMK AO1 SLPNO 58007 $EQDR01      7SKY009R02      7GAS009
0128726140547422024010306546+44420-072019FM-15+0212K1V4 V02099999999999999999N9999997N5+99999+99999999999ADDMA1101295098775REMMET06601/03/24 01:54:02 METAR K1V4 030654Z      KT A2991 RMK AO1 SLPNO $EQDR01      7SKY009R02      7GAS009
0128726140547422024010307546+44420-072019FM-15+0212K1V4 V02099999999999999999N9999997N5+99999+99999999999ADDMA1101295098775REMMET06601/03/24 02:54:02 METAR K1V4 030754Z      KT A2991 RMK AO1 SLPNO $EQDR01      7SKY009R02      7GAS009
0148726140547422024010308546+44420-072019FM-15+0212K1V4 V02099999999999999999N9999997N5+99999+99999999999ADDMA1101225098705MD1890039+9999REMMET07201/03/24 03:54:02 METAR K1V4 030854Z      KT A2989 RMK AO1 SLPNO 58003 $EQDR01      7SKY009R02      7GAS009
0128726140547422024010309546+44420-072019FM-15+0212K1V4 V02099999999999999999N9999997N5+99999+99999999999ADDMA1101255098735REMMET06601/03/24 04:54:02 METAR K1V4 030954Z      KT A2990 RMK AO1 SLPNO $EQDR01      7SKY009R02      7GAS009
0128726140547422024010310546+44420-072019FM-15+0212K1V4 V02099999999999999999N9999997N5+99999+99999999999ADDMA1101255098735REMMET06601/03/24 05:54:02 METAR K1V4 031054Z      KT A2990 RMK AO1 SLPNO $EQDR01      7SKY009R02      7GAS009
0148726140547422024010311546+44420-072019FM-15+0212K1V4 V02099999999999999999N9999997N5+99999+99999999999ADDMA1101255098735MD1190039+9999REMMET07201/03/24 06:54:02 METAR K1V4 031154Z      KT A2990 RMK AO1 SLPNO 51003 $EQDR01      7SKY009R02      7GAS009
0128726140547422024010312546+44420-072019FM-15+0212K1V4 V02099999999999999999N9999997N5+99999+99999999999ADDMA1101295098775REMMET06601/03/24 07:54:02 METAR K1V4 031254Z      KT A2991 RMK AO1 SLPNO $EQDR01      7SKY009R02      7GAS009
0128726140547422024010313546+44420-072019FM-15+0212K1V4 V02099999999999999999N9999997N5+99999+99999999999ADDMA1101325098805REMMET06601/03/24 08:54:02 METAR K1V4 031354Z      KT A2992 RMK AO1 SLPNO $EQDR01      7SKY009R02      7GAS009
0174726140547422024010314546+44420-072019FM-15+0212K1V4 V02099999999999999999N9999997N5+99999+99999999999ADDMA1101325098805MD1190079+9999REMMET08201/03/24 09:54:02 METAR K1V4 031454Z      KT A2992 RMK AO1 SLPNO 6//// 51007 PNO $EQDR01      7SKY009R02   PNO7AAP062R03      7GAS009
0148726140547422024010315546+44420-072019FM-15+0212K1V4 V02099999999999999999N9999997N5+99999+99999999999ADDMA1101295098775REMMET07001/03/24 10:54:02 METAR K1V4 031554Z      KT A2991 RMK AO1 SLPNO PNO $EQDR01      7SKY009R02   PNO7AAP062R03      7GAS009
0128726140547422024010316546+44420-072019FM-15+0212K1V4 V02099999999999999999N9999997N5+99999+99999999999ADDMA1101225098705REMMET06601/03/24 11:54:02 METAR K1V4 031654Z      KT A2989 RMK AO1 SLPNO $EQDR01      7SKY009R02      7GAS009
0154726140547422024010317546+44420-072019FM-15+0212K1V4 V02099999999999999999N9999997N5+99999+99999999999ADDMA1101195098675MD1790139+9999REMMET07801/03/24 12:54:02 METAR K1V4 031754Z      KT A2988 RMK AO1 SLPNO 6//// 57013 $EQDR01      7SKY009R02      7GAS009
0128726140547422024010318546+44420-072019FM-15+0212K1V4 V02099999999999999999N9999997N5+99999+99999999999ADDMA1101155098635REMMET06601/03/24 13:54:02 METAR K1V4 031854Z      KT A2987 RMK AO1 SLPNO $EQDR01      7SKY009R02      7GAS009
0128726140547422024010319546+44420-072019FM-15+0212K1V4 V02099999999999999999N9999997N5+99999+99999999999ADDMA1101155098635REMMET06601/03/24 14:54:02 METAR K1V4 031954Z      KT A2987 RMK AO1 SLPNO $EQDR01      7SKY009R02      7GAS009
0148726140547422024010320546+44420-072019FM-15+0212K1V4 V02099999999999999999N9999997N5+99999+99999999999ADDMA1101195098675MD1590009+9999REMMET07201/03/24 15:54:02 METAR K1V4 032054Z      KT A2988 RMK AO1 SLPNO 55000 $EQDR01      7SKY009R02      7GAS009
0128726140547422024010321546+44420-072019FM-15+0212K1V4 V02099999999999999999N9999997N5+99999+99999999999ADDMA1101195098675REMMET06601/03/24 16:54:02 METAR K1V4 032154Z      KT A2988 RMK AO1 SLPNO $EQDR01      7SKY009R02      7GAS009
0128726140547422024010322546+44420-072019FM-15+0212K1V4 V02099999999999999999N9999997N5+99999+99999999999ADDMA1101195098675REMMET06601/03/24 17:54:02 METAR K1V4 032254Z      KT A2988 RMK AO1 SLPNO $EQDR01      7SKY009R02      7GAS009
0148726140547422024010323546+44420-072019FM-15+0212K1V4 V02099999999999999999N9999997N5+99999+99999999999ADDMA1101155098635MD1890039+9999REMMET07201/03/24 18:54:02 METAR K1V4 032354Z      KT A2987 RMK AO1 SLPNO 58003 $EQDR01      7SKY009R02      7GAS009
0128726140547422024010400546+44420-072019FM-15+0212K1V4 V02099999999999999999N9999997N5+99999+99999999999ADDMA1101195098675REMMET06601/03/24 19:54:01 METAR K1V4 040054Z      KT A2988 RMK AO1 SLPNO $EQDR01      7SKY009R02      7GAS009
0128726140547422024010401546+44420-072019FM-15+0212K1V4 V02099999999999999999N9999997N5+99999+99999999999ADDMA1101195098675REMMET06601/03/24 20:54:01 METAR K1V4 040154Z      KT A2988 RMK AO1 SLPNO $EQDR01      7SKY009R02      7GAS009
0148726140547422024010402546+44420-072019FM-15+0212K1V4 V02099999999999999999N9999997N5+99999+99999999999ADDMA1101155098635MD1090009+9999REMMET07201/03/24 21:54:01 METAR K1V4 040254Z      KT A2987 RMK AO1 SLPNO 50000 $EQDR01      7SKY009R02      7GAS009
0128726140547422024010403546+44420-072019FM-15+0212K1V4 V02099999999999999999N9999997N5+99999+99999999999ADDMA1101125098605REMMET06601/03/24 22:54:01 METAR K1V4 040354Z      KT A2986 RMK AO1 SLPNO $EQDR01      7SKY009R02      7GAS009
0128726140547422024010404546+44420-072019FM-15+0212K1V4 V02099999999999999999N9999997N5+99999+99999999999ADDMA1101085098575REMMET06601/03/24 23:54:02 METAR K1V4 040454Z      KT A2985 RMK AO1 SLPNO $EQDR01      7SKY009R02      7GAS009
0141726140547422024010404596+44420-072019SOD  +0212K1V4 V020999999999999999999999999999+99999+99999999999ADDAA124000095MG1098699999994OE11249999999999997OE22249999999999997REMSOD06524 HR PRECIPITATION (IN): 0.00 AVERAGE STATION PRESSURE(D):29.145
0148726140547422024010405546+44420-072019FM-15+0212K1V4 V02099999999999999999N9999997N5+99999+99999999999ADDMA1101025098505MD1890139+9999REMMET07201/04/24 00:54:02 METAR K1V4 040554Z      KT A2983 RMK AO1 SLPNO 58013 $EQDR01      7SKY009R02      7GAS009
0128726140547422024010406546+44420-072019FM-15+0212K1V4 V02099999999999999999N9999997N5+99999+99999999999ADDMA1101055098535REMMET06601/04/24 01:54:02 METAR K1V4 040654Z      KT A2984 RMK AO1 SLPNO $EQDR01      7SKY009R02      7GAS009
0128726140547422024010407546+44420-072019FM-15+0212K1V4 V02099999999999999999N9999997N5+99999+99999999999ADDMA1101025098505REMMET06601/04/24 02:54:02 METAR K1V4 040754Z      KT A2983 RMK AO1 SLPNO $EQDR01      7SKY009R02      7GAS009
0148726140547422024010408546+44420-072019FM-15+0212K1V4 V02099999999999999999N9999997N5+99999+99999999999ADDMA1100985098475MD1890039+9999REMMET07201/04/24 03:54:02 METAR K1V4 040854Z      KT A2982 RMK AO1 SLPNO 58003 $EQDR01      7SKY009R02      7GAS009
0128726140547422024010409546+44420-072019FM-15+0212K1V4 V02099999999999999999N9999997N5+99999+99999999999ADDMA1100915098405REMMET06601/04/24 04:54:02 METAR K1V4 040954Z      KT A2980 RMK AO1 SLPNO $EQDR01      7SKY009R02      7GAS009
0128726140547422024010410546+44420-072019FM-15+0212K1V4 V02099999999999999999N9999997N5+99999+99999999999ADDMA1100915098405REMMET06601/04/24 05:54:02 METAR K1V4 041054Z      KT A2980 RMK AO1 SLPNO $EQDR01      7SKY009R02      7GAS009
0154726140547422024010411546+44420-072019FM-15+0212K1V4 V02099999999999999999N9999997N5+99999+99999999999ADDMA1100915098405MD1690079+9999REMMET07801/04/24 06:54:02 METAR K1V4 041154Z      KT A2980 RMK AO1 SLPNO 7//// 56007 $EQDR01      7SKY009R02      7GAS009
0128726140547422024010412546+44420-072019FM-15+0212K1V4 V02099999999999999999N9999997N5+99999+99999999999ADDMA1100955098435REMMET06601/04/24 07:54:02 METAR K1V4 041254Z      KT A2981 RMK AO1 SLPNO $EQDR01      7SKY009R02      7GAS009
0128726140547422024010413546+44420-072019FM-15+0212K1V4 V02099999999999999999N9999997N5+99999+99999999999ADDMA1100955098435REMMET06601/04/24 08:54:02 METAR K1V4 041354Z      KT A2981 RMK AO1 SLPNO $EQDR01      7SKY009R02      7GAS009
0148726140547422024010414546+44420-072019FM-15+0212K1V4 V02099999999999999999N9999997N5+99999+99999999999ADDMA1101025098505MD1390109+9999REMMET07201/04/24 09:54:02 METAR K1V4 041454Z      KT A2983 RMK AO1 SLPNO 53010 $EQDR01      7SKY009R02      7GAS009
0145726140547422024010415546+44420-072019FM-15+0212K1V4 V02099999999999999999N9999997N5+99999+99999999999ADDAA101000595MA1101125098605REMMET07201/04/24 10:54:02 METAR K1V4 041554Z      KT A2986 RMK AO1 SLPNO P0002 $EQDR01      7SKY009R02      7GAS009
0128726140547422024010416546+44420-072019FM-15+0212K1V4 V02099999999999999999N9999997N5+99999+99999999999ADDMA1101225098705REMMET06601/04/24 11:54:02 METAR K1V4 041654Z      KT A2989 RMK AO1 SLPNO $EQDR01      7SKY009R02      7GAS009
0165726140547422024010417546+44420-072019FM-15+0212K1V4 V02099999999999999999N9999997N5+99999+99999999999ADDAA106000591MA1101295098775MD1190269+9999REMMET07801/04/24 12:54:02 METAR K1V4 041754Z      KT A2991 RMK AO1 SLPNO 60002 51026 $EQDR01      7SKY009R02      7GAS009
0128726140547422024010418546+44420-072019FM-15+0212K1V4 V02099999999999999999N9999997N5+99999+99999999999ADDMA1101395098865REMMET06601/04/24 13:54:02 METAR K1V4 041854Z      KT A2994 RMK AO1 SLPNO $EQDR01      7SKY009R02      7GAS009
0128726140547422024010419546+44420-072019FM-15+0212K1V4 V02099999999999999999N9999997N5+99999+99999999999ADDMA1101525099005REMMET06601/04/24 14:54:02 METAR K1V4 041954Z      KT A2998 RMK AO1 SLPNO $EQDR01      7SKY009R02      7GAS009
0148726140547422024010420546+44420-072019FM-15+0212K1V4 V02099999999999999999N9999997N5+99999+99999999999ADDMA1101635099105MD1290339+9999REMMET07201/04/24 15:54:02 METAR K1V4 042054Z      KT A3001 RMK AO1 SLPNO 52033 $EQDR01      7SKY009R02      7GAS009
0128726140547422024010421546+44420-072019FM-15+0212K1V4 V02099999999999999999N9999997N5+99999+99999999999ADDMA1101735099205REMMET06601/04/24 16:54:02 METAR K1V4 042154Z      KT A3004 RMK AO1 SLPNO $EQDR01      7SKY009R02      7GAS009
0128726140547422024010422546+44420-072019FM-15+0212K1V4 V02099999999999999999N9999997N5+99999+99999999999ADDMA1101835099305REMMET06601/04/24 17:54:02 METAR K1V4 042254Z      KT A3007 RMK AO1 SLPNO $EQDR01      7SKY009R02      7GAS009
0148726140547422024010423546+44420-072019FM-15+0212K1V4 V02099999999999999999N9999997N5+99999+99999999999ADDMA1101865099335MD1190239+9999REMMET07201/04/24 18:54:02 METAR K1V4 042354Z      KT A3008 RMK AO1 SLPNO 51023 $EQDR01      7SKY009R02      7GAS009
0128726140547422024010500546+44420-072019FM-15+0212K1V4 V02099999999999999999N9999997N5+99999+99999999999ADDMA1101935099405REMMET06601/04/24 19:54:01 METAR K1V4 050054Z      KT A3010 RMK AO1 SLPNO $EQDR01      7SKY009R02      7GAS009
0128726140547422024010501546+44420-072019FM-15+0212K1V4 V02099999999999999999N9999997N5+99999+99999999999ADDMA1101965099435REMMET06601/04/24 20:54:01 METAR K1V4 050154Z      KT A3011 RMK AO1 SLPNO $EQDR01      7SKY009R02      7GAS009
0148726140547422024010502546+44420-072019FM-15+0212K1V4 V02099999999999999999N9999997N5+99999+99999999999ADDMA1101965099435MD1190109+9999REMMET07201/04/24 21:54:02 METAR K1V4 050254Z      KT A3011 RMK AO1 SLPNO 51010 $EQDR01      7SKY009R02      7GAS009
0128726140547422024010503546+44420-072019FM-15+0212K1V4 V02099999999999999999N9999997N5+99999+99999999999ADDMA1102005099465REMMET06601/04/24 22:54:02 METAR K1V4 050354Z      KT A3012 RMK AO1 SLPNO $EQDR01      7SKY009R02      7GAS009
0128726140547422024010504546+44420-072019FM-15+0212K1V4 V02099999999999999999N9999997N5+99999+99999999999ADDMA1102005099465REMMET06601/04/24 23:54:02 METAR K1V4 050454Z      KT A3012 RMK AO1 SLPNO $EQDR01      7SKY009R02      7GAS009
0160726140547422024010504596+44420-072019SOD  +0212K1V4 V020999999999999999999999999999+99999+99999999999ADDAA124000596MG1098869999994OE11249999999999997OE22249999999999997REMSOD06524 HR PRECIPITATION (IN): 0.02 AVERAGE STATION PRESSURE(D):29.193EQDR01  0.027AAP092
0148726140547422024010505546+44420-072019FM-15+0212K1V4 V02099999999999999999N9999997N5+99999+99999999999ADDMA1102005099465MD1190039+9999REMMET07201/05/24 00:54:02 METAR K1V4 050554Z      KT A3012 RMK AO1 SLPNO 51003 $EQDR01      7SKY009R02      7GAS009
0128726140547422024010506546+44420-072019FM-15+0212K1V4 V02099999999999999999N9999997N5+99999+99999999999ADDMA1102035099505REMMET06601/05/24 01:54:02 METAR K1V4 050654Z      KT A3013 RMK AO1 SLPNO $EQDR01      7SKY009R02      7GAS009
0128726140547422024010507546+44420-072019FM-15+0212K1V4 V02099999999999999999N9999997N5+99999+99999999999ADDMA1102035099505REMMET06601/05/24 02:54:02 METAR K1V4 050754Z      KT A3013 RMK AO1 SLPNO $EQDR01      7SKY009R02      7GAS009
0148726140547422024010508546+44420-072019FM-15+0212K1V4 V02099999999999999999N9999997N5+99999+99999999999ADDMA1102075099535MD1290079+9999REMMET07201/05/24 03:54:02 METAR K1V4 050854Z      KT A3014 RMK AO1 SLPNO 52007 $EQDR01      7SKY009R02      7GAS009
0128726140547422024010509546+44420-072019FM-15+0212K1V4 V02099999999999999999N9999997N5+99999+99999999999ADDMA1102035099505REMMET06601/05/24 04:54:02 METAR K1V4 050954Z      KT A3013 RMK AO1 SLPNO $EQDR01      7SKY009R02      7GAS009
0128726140547422024010510546+44420-072019FM-15+0212K1V4 V02099999999999999999N9999997N5+99999+99999999999ADDMA1102105099565REMMET06601/05/24 05:54:02 METAR K1V4 051054Z      KT A3015 RMK AO1 SLPNO $EQDR01      7SKY009R02      7GAS009
0165726140547422024010511546+44420-072019FM-15+0212K1V4 V02099999999999999999N9999997N5+99999+99999999999ADDAA124000591MA1102135099595MD1390079+9999REMMET07801/05/24 06:54:02 METAR K1V4 051154Z      KT A3016 RMK AO1 SLPNO 70002 53007 $EQDR01      7SKY009R02      7GAS009
0128726140547422024010512546+44420-072019FM-15+0212K1V4 V02099999999999999999N9999997N5+99999+99999999999ADDMA1102175099635REMMET06601/05/24 07:54:02 METAR K1V4 051254Z      KT A3017 RMK AO1 SLPNO $EQDR01      7SKY009R02      7GAS009
0128726140547422024010513546+44420-072019FM-15+0212K1V4 V02099999999999999999N9999997N5+99999+99999999999ADDMA1102175099635REMMET06601/05/24 08:54:02 METAR K1V4 051354Z      KT A3017 RMK AO1 SLPNO $EQDR01      7SKY009R02      7GAS009
0148726140547422024010514546+44420-072019FM-15+0212K1V4 V02099999999999999999N9999997N5+99999+99999999999ADDMA1102175099635MD1190039+9999REMMET07201/05/24 09:54:02 METAR K1V4 051454Z      KT A3017 RMK AO1 SLPNO 51003 $EQDR01      7SKY009R02      7GAS009
0146726140547422024010515546+44420-072019FM-15+0212K1V4 V02099999999999999999N9999997N5-00725-01505999999ADDMA1102135099595REMMET08401/05/24 10:54:02 METAR K1V4 051554Z      KT M07/M15 A3016 RMK AO1 SLPNO T10721150 $EQDR01      7SKY009R02      7GAS009
0146726140547422024010516546+44420-072019FM-15+0212K1V4 V02099999999999999999N9999997N5-00675-01445999999ADDMA1102075099535REMMET08401/05/24 11:54:02 METAR K1V4 051654Z      KT M07/M14 A3014 RMK AO1 SLPNO T10671144 $EQDR01      7SKY009R02      7GAS009
0166726140547422024010517546+44420-072019FM-15+0212K1V4 V02099999999999999999N9999997N5-00615-01395999999ADDMA1102005099465MD1690189+9999REMMET09001/05/24 12:54:02 METAR K1V4 051754Z      KT M06/M14 A3012 RMK AO1 SLPNO T10611139 56018 $EQDR01      7SKY009R02      7GAS009
0146726140547422024010518546+44420-072019FM-15+0212K1V4 V02099999999999999999N9999997N5-00565-01395999999ADDMA1101935099405REMMET08401/05/24 13:54:02 METAR K1V4 051854Z      KT M06/M14 A3010 RMK AO1 SLPNO T10561139 $EQDR01      7SKY009R02      7GAS009
0146726140547422024010519546+44420-072019FM-15+0212K1V4 V02099999999999999999N9999997N5-00565-01285999999ADDMA1101935099405REMMET08401/05/24 14:54:02 METAR K1V4 051954Z      KT M06/M13 A3010 RMK AO1 SLPNO T10561128 $EQDR01      7SKY009R02      7GAS009
0166726140547422024010520546+44420-072019FM-15+0212K1V4 V02099999999999999999N9999997N5-00565-01285999999ADDMA1101935099405MD1690089+9999REMMET09001/05/24 15:54:02 METAR K1V4 052054Z      KT M06/M13 A3010 RMK AO1 SLPNO T10561128 56008 $EQDR01      7SKY009R02      7GAS009
0146726140547422024010521546+44420-072019FM-15+0212K1V4 V02099999999999999999N9999997N5-00565-01225999999ADDMA1101905099365REMMET08401/05/24 16:54:02 METAR K1V4 052154Z      KT M06/M12 A3009 RMK AO1 SLPNO T10561122 $EQDR01      7SKY009R02      7GAS009
0146726140547422024010522546+44420-072019FM-15+0212K1V4 V02099999999999999999N9999997N5-00505-01175999999ADDMA1101905099365REMMET08401/05/24 17:54:02 METAR K1V4 052254Z      KT M05/M12 A3009 RMK AO1 SLPNO T10501117 $EQDR01      7SKY009R02      7GAS009
0178726140547422024010523546+44420-072019FM-15+0212K1V4 V02099999999999999999N9999997N5-00505-01115999999ADDMA1101865099335MD1890059+9999REMMET10201/05/24 18:54:02 METAR K1V4 052354Z      KT M05/M11 A3008 RMK AO1 SLPNO T10501111 11050 21061 58005 $EQDR01      7SKY009R02      7GAS009
0146726140547422024010600546+44420-072019FM-15+0212K1V4 V02099999999999999999N9999997N5-00505-01115999999ADDMA1101905099365REMMET08401/05/24 19:54:01 METAR K1V4 060054Z      KT M05/M11 A3009 RMK AO1 SLPNO T10501111 $EQDR01      7SKY009R02      7GAS009
0146726140547422024010601546+44420-072019FM-15+0212K1V4 V02099999999999999999N9999997N5-00505-01065999999ADDMA1101865099335REMMET08401/05/24 20:54:01 METAR K1V4 060154Z      KT M05/M11 A3008 RMK AO1 SLPNO T10501106 $EQDR01      7SKY009R02      7GAS009
0166726140547422024010602546+44420-072019FM-15+0212K1V4 V02099999999999999999N9999997N5-00505-00895999999ADDMA1101835099305MD1890049+9999REMMET09001/05/24 21:54:01 METAR K1V4 060254Z      KT M05/M09 A3007 RMK AO1 SLPNO T10501089 58004 $EQDR01      7SKY009R02      7GAS009
0147726140547422024010603546+44420-072019FM-15+0212K1V4 V02099999999999999999N9999997N5-00445-00785101985ADDMA1101835099305REMMET08501/05/24 22:54:02 METAR K1V4 060354Z      KT M04/M08 A3007 RMK AO1 SLP198 T10441078 $EQDR01      7SKY009R02      7GAS009
0147726140547422024010604546+44420-072019FM-15+0212K1V4 V02099999999999999999N9999997N5-00445-00785101975ADDMA1101795099265REMMET08501/05/24 23:54:02 METAR K1V4 060454Z      KT M04/M08 A3006 RMK AO1 SLP197 T10441078 $EQDR01      7SKY009R02      7GAS009
0324726140547422024010604596+44420-072019SOD  +0212K1V4 V020999999999999999999999999999+99999+99999999999ADDAA124000095KA1240M-00436KA2240N-00715MG1099459999994OE11249999999999997OE22249999999999997REMSOD20324 HR PRECIPITATION (IN): 0.00 24 HR MAX TEMP (F): 2424 HR MIN TEMP (F): 19AVERAGE STATION PRESSURE(D):29.369 24 HR AVG TEMP (F): 22DEPART FROM NORMAL:  4  HEATING DEGREE DAYS: 43 COOLING DEGREE DAYS:  0EQDR01    247KAX008
0179726140547422024010605546+44420-072019FM-15+0212K1V4 V02099999999999999999N9999997N5-00335-00725101985ADDMA1101835099305MD1390009+9999REMMET10301/06/24 00:54:02 METAR K1V4 060554Z      KT M03/M07 A3007 RMK AO1 SLP198 T10331072 11033 21050 53000 $EQDR01      7SKY009R02      7GAS009
0147726140547422024010606546+44420-072019FM-15+0212K1V4 V02099999999999999999N9999997N5-00175-00615102015ADDMA1101865099335REMMET08501/06/24 01:54:02 METAR K1V4 060654Z      KT M02/M06 A3008 RMK AO1 SLP201 T10171061 $EQDR01      7SKY009R02      7GAS009
0147726140547422024010607546+44420-072019FM-15+0212K1V4 V02099999999999999999N9999997N5-00225-00615102035ADDMA1101905099365REMMET08501/06/24 02:54:02 METAR K1V4 060754Z      KT M02/M06 A3009 RMK AO1 SLP203 T10221061 $EQDR01      7SKY009R02      7GAS009
0167726140547422024010608546+44420-072019FM-15+0212K1V4 V02099999999999999999N9999997N5-00225-00835102085ADDMA1101935099405MD1390109+9999REMMET09101/06/24 03:54:02 METAR K1V4 060854Z      KT M02/M08 A3010 RMK AO1 SLP208 T10221083 53010 $EQDR01      7SKY009R02      7GAS009
0147726140547422024010609546+44420-072019FM-15+0212K1V4 V02099999999999999999N9999997N5-00285-00725102145ADDMA1102005099465REMMET08501/06/24 04:54:02 METAR K1V4 060954Z      KT M03/M07 A3012 RMK AO1 SLP214 T10281072 $EQDR01      7SKY009R02      7GAS009
0147726140547422024010610546+44420-072019FM-15+0212K1V4 V02099999999999999999N9999997N5-00335-00835102275ADDMA1102135099595REMMET08501/06/24 05:54:02 METAR K1V4 061054Z      KT M03/M08 A3016 RMK AO1 SLP227 T10331083 $EQDR01      7SKY009R02      7GAS009
0179726140547422024010611546+44420-072019FM-15+0212K1V4 V02099999999999999999N9999997N5-00505-01005102335ADDMA1102175099635MD1190239+9999REMMET10301/06/24 06:54:02 METAR K1V4 061154Z      KT M05/M10 A3017 RMK AO1 SLP233 T10501100 11017 21050 51023 $EQDR01      7SKY009R02      7GAS009
0147726140547422024010612546+44420-072019FM-15+0212K1V4 V02099999999999999999N9999997N5-00675-01175102455ADDMA1102275099735REMMET08501/06/24 07:54:02 METAR K1V4 061254Z      KT M07/M12 A3020 RMK AO1 SLP245 T10671117 $EQDR01      7SKY009R02      7GAS009
0147726140547422024010613546+44420-072019FM-15+0212K1V4 V02099999999999999999N9999997N5-00675-01225102495ADDMA1102305099765REMMET08501/06/24 08:54:02 METAR K1V4 061354Z      KT M07/M12 A3021 RMK AO1 SLP249 T10671122 $EQDR01      7SKY009R02      7GAS009
0167726140547422024010614546+44420-072019FM-15+0212K1V4 V02099999999999999999N9999997N5-00615-01175102495ADDMA1102345099795MD1190159+9999REMMET09101/06/24 09:54:02 METAR K1V4 061454Z      KT M06/M12 A3022 RMK AO1 SLP249 T10611117 51015 $EQDR01      7SKY009R02      7GAS009
0147726140547422024010615546+44420-072019FM-15+0212K1V4 V02099999999999999999N9999997N5-00565-01175102415ADDMA1102245099695REMMET08501/06/24 10:54:02 METAR K1V4 061554Z      KT M06/M12 A3019 RMK AO1 SLP241 T10561117 $EQDR01      7SKY009R02      7GAS009
0147726140547422024010616546+44420-072019FM-15+0212K1V4 V02099999999999999999N9999997N5-00445-01115102305ADDMA1102175099635REMMET08501/06/24 11:54:02 METAR K1V4 061654Z      KT M04/M11 A3017 RMK AO1 SLP230 T10441111 $EQDR01      7SKY009R02      7GAS009
0179726140547422024010617546+44420-072019FM-15+0212K1V4 V02099999999999999999N9999997N5-00395-01005102255ADDMA1102105099565MD1690219+9999REMMET10301/06/24 12:54:02 METAR K1V4 061754Z      KT M04/M10 A3015 RMK AO1 SLP225 T10391100 11039 21067 56021 $EQDR01      7SKY009R02      7GAS009
0147726140547422024010618546+44420-072019FM-15+0212K1V4 V02099999999999999999N9999997N5-00395-01065102085ADDMA1101935099405REMMET08501/06/24 13:54:02 METAR K1V4 061854Z      KT M04/M11 A3010 RMK AO1 SLP208 T10391106 $EQDR01      7SKY009R02      7GAS009
0147726140547422024010619546+44420-072019FM-15+0212K1V4 V02099999999999999999N9999997N5-00395-01065102015ADDMA1101865099335REMMET08501/06/24 14:54:02 METAR K1V4 061954Z      KT M04/M11 A3008 RMK AO1 SLP201 T10391106 $EQDR01      7SKY009R02      7GAS009
0167726140547422024010620546+44420-072019FM-15+0212K1V4 V02099999999999999999N9999997N5-00395-01005101925ADDMA1101795099265MD1690329+9999REMMET09101/06/24 15:54:02 METAR K1V4 062054Z      KT M04/M10 A3006 RMK AO1 SLP192 T10391100 56032 $EQDR01      7SKY009R02      7GAS009
0147726140547422024010621546+44420-072019FM-15+0212K1V4 V02099999999999999999N9999997N5-00395-00945101945ADDMA1101795099265REMMET08501/06/24 16:54:02 METAR K1V4 062154Z      KT M04/M09 A3006 RMK AO1 SLP194 T10391094 $EQDR01      7SKY009R02      7GAS009
0147726140547422024010622546+44420-072019FM-15+0212K1V4 V02099999999999999999N9999997N5-00395-00945101905ADDMA1101765099235REMMET08501/06/24 17:54:02 METAR K1V4 062254Z      KT M04/M09 A3005 RMK AO1 SLP190 T10391094 $EQDR01      7SKY009R02      7GAS009
0179726140547422024010623546+44420-072019FM-15+0212K1V4 V02099999999999999999N9999997N5-00395-00945101895ADDMA1101735099205MD1890049+9999REMMET10301/06/24 18:54:02 METAR K1V4 062354Z      KT M04/M09 A3004 RMK AO1 SLP189 T10391094 11039 21044 58004 $EQDR01      7SKY009R02      7GAS009
0147726140547422024010700546+44420-072019FM-15+0212K1V4 V02099999999999999999N9999997N5-00395-00895101825ADDMA1101665099135REMMET08501/06/24 19:54:01 METAR K1V4 070054Z      KT M04/M09 A3002 RMK AO1 SLP182 T10391089 $EQDR01      7SKY009R02      7GAS009
0147726140547422024010701546+44420-072019FM-15+0212K1V4 V02099999999999999999N9999997N5-00335-00835101755ADDMA1101595099065REMMET08501/06/24 20:54:01 METAR K1V4 070154Z      KT M03/M08 A3000 RMK AO1 SLP175 T10331083 $EQDR01      7SKY009R02      7GAS009
0167726140547422024010702546+44420-072019FM-15+0212K1V4 V02099999999999999999N9999997N5-00335-00785101595ADDMA1101465098935MD1890289+9999REMMET09101/06/24 21:54:01 METAR K1V4 070254Z      KT M03/M08 A2996 RMK AO1 SLP159 T10331078 58028 $EQDR01      7SKY009R02      7GAS009
0164726140547422024010703546+44420-072019FM-15+0212K1V4 V02099999999999999999N9999997N5-00395-00725101505ADDAA101000595MA1101355098835REMMET09101/06/24 22:54:02 METAR K1V4 070354Z      KT M04/M07 A2993 RMK AO1 SLP150 P0002 T10391072 $EQDR01      7SKY009R02      7GAS009
0174726140547422024010704546+44420-072019FM-15+0212K1V4 V02099999999999999999N9999997N5-00445-00725101415ADDAA101000395MA1101255098735REMMET10101/06/24 23:54:02 METAR K1V4 070454Z      KT M04/M07 A2990 RMK AO1 SLP141 P0001 T10441072 410171067 $EQDR01      7SKY009R02      7GAS009
0324726140547422024010704596+44420-072019SOD  +0212K1V4 V020999999999999999999999999999+99999+99999999999ADDAA124000896KA1240M-00165KA2240N-00665MG1099369999994OE11249999999999997OE22249999999999997REMSOD20324 HR PRECIPITATION (IN): 0.03 24 HR MAX TEMP (F): 2924 HR MIN TEMP (F): 20AVERAGE STATION PRESSURE(D):29.341 24 HR AVG TEMP (F): 25DEPART FROM NORMAL:  7  HEATING DEGREE DAYS: 40 COOLING DEGREE DAYS:  0EQDR01  0.037AAP092
0213726140547422024010705546+44420-072019FM-15+0212K1V4 V02099999999999999999N9999997N5-00445-00725101315ADDAA101000895AA206001591MA1101155098635MD1890289+9999REMMET11501/07/24 00:54:02 METAR K1V4 070554Z      KT M04/M07 A2987 RMK AO1 SLP131 P0003 60006 T10441072 11033 21044 58028 $EQDR01      7SKY009R02      7GAS009
0164726140547422024010706546+44420-072019FM-15+0212K1V4 V02099999999999999999N9999997N5-00505-00785101285ADDAA101000895MA1101125098605REMMET09101/07/24 01:54:02 METAR K1V4 070654Z      KT M05/M08 A2986 RMK AO1 SLP128 P0004 T10501078 $EQDR01      7SKY009R02      7GAS009
0164726140547422024010707546+44420-072019FM-15+0212K1V4 V02099999999999999999N9999997N5-00565-00835101255ADDAA101001395MA1101125098605REMMET09101/07/24 02:54:02 METAR K1V4 070754Z      KT M06/M08 A2986 RMK AO1 SLP125 P0005 T10561083 $EQDR01      7SKY009R02      7GAS009
0201726140547422024010708546+44420-072019FM-15+0212K1V4 V02099999999999999999N9999997N5-00565-00785101165ADDAA101001095AA203003091MA1101025098505MD1890149+9999REMMET10301/07/24 03:54:02 METAR K1V4 070854Z      KT M06/M08 A2983 RMK AO1 SLP116 P0003 60012 T10561078 58014 $EQDR01      7SKY009R02      7GAS009
0164726140547422024010709546+44420-072019FM-15+0212K1V4 V02099999999999999999N9999997N5-00565-00835101085ADDAA101000095MA1100955098435REMMET09101/07/24 04:54:02 METAR K1V4 070954Z      KT M06/M08 A2981 RMK AO1 SLP108 P0001 T10561083 $EQDR01      7SKY009R02      7GAS009
0164726140547422024010710546+44420-072019FM-15+0212K1V4 V02099999999999999999N9999997N5-00565-00835101045ADDAA101000895MA1100915098405REMMET09101/07/24 05:54:02 METAR K1V4 071054Z      KT M06/M08 A2980 RMK AO1 SLP104 P0002 T10561083 $EQDR01      7SKY009R02      7GAS009
0230726140547422024010711546+44420-072019FM-15+0212K1V4 V02099999999999999999N9999997N5-00565-00835101005ADDAA101000395AA206004391AA324005891MA1100885098375MD1690159+9999REMMET12101/07/24 06:54:02 METAR K1V4 071154Z      KT M06/M08 A2979 RMK AO1 SLP100 P0002 60017 70023 T10561083 11044 21056 56015 $EQDR01      7SKY009R02      7GAS009
0164726140547422024010712546+44420-072019FM-15+0212K1V4 V02099999999999999999N9999997N5-00505-00785100955ADDAA101000595MA1100815098305REMMET09101/07/24 07:54:02 METAR K1V4 071254Z      KT M05/M08 A2977 RMK AO1 SLP095 P0002 T10501078 $EQDR01      7SKY009R02      7GAS009
0164726140547422024010713546+44420-072019FM-15+0212K1V4 V02099999999999999999N9999997N5-00505-00785100905ADDAA101000595MA1100755098235REMMET09101/07/24 08:54:02 METAR K1V4 071354Z      KT M05/M08 A2975 RMK AO1 SLP090 P0002 T10501078 $EQDR01      7SKY009R02      7GAS009
0201726140547422024010714546+44420-072019FM-15+0212K1V4 V02099999999999999999N9999997N5-00505-00725100885ADDAA101000895AA203001891MA1100755098235MD1690129+9999REMMET10301/07/24 09:54:02 METAR K1V4 071454Z      KT M05/M07 A2975 RMK AO1 SLP088 P0003 60007 T10501072 56012 $EQDR01      7SKY009R02      7GAS009
0164726140547422024010715546+44420-072019FM-15+0212K1V4 V02099999999999999999N9999997N5-00445-00675100755ADDAA101002595MA1100615098105REMMET09101/07/24 10:54:02 METAR K1V4 071554Z      KT M04/M07 A2971 RMK AO1 SLP075 P0009 T10441067 $EQDR01      7SKY009R02      7GAS009
0164726140547422024010716546+44420-072019FM-15+0212K1V4 V02099999999999999999N9999997N5-00445-00725100675ADDAA101001595MA1100545098045REMMET09101/07/24 11:54:02 METAR K1V4 071654Z      KT M04/M07 A2969 RMK AO1 SLP067 P0007 T10441072 $EQDR01      7SKY009R02      7GAS009
0213726140547422024010717546+44420-072019FM-15+0212K1V4 V02099999999999999999N9999997N5-00445-00725100625ADDAA101001095AA206006991MA1100475097975MD1690259+9999REMMET11501/07/24 12:54:02 METAR K1V4 071754Z      KT M04/M07 A2967 RMK AO1 SLP062 P0004 60027 T10441072 11044 21056 56025 $EQDR01      7SKY009R02      7GAS009
0164726140547422024010718546+44420-072019FM-15+0212K1V4 V02099999999999999999N9999997N5-00445-00725100615ADDAA101000895MA1100475097975REMMET09101/07/24 13:54:02 METAR K1V4 071854Z      KT M04/M07 A2967 RMK AO1 SLP061 P0003 T10441072 $EQDR01      7SKY009R02      7GAS009
0164726140547422024010719546+44420-072019FM-15+0212K1V4 V02099999999999999999N9999997N5-00395-00675100655ADDAA101000895MA1100515098005REMMET09101/07/24 14:54:02 METAR K1V4 071954Z      KT M04/M07 A2968 RMK AO1 SLP065 P0002 T10391067 $EQDR01      7SKY009R02      7GAS009
0201726140547422024010720546+44420-072019FM-15+0212K1V4 V02099999999999999999N9999997N5-00445-00675100705ADDAA101000895AA203002391MA1100545098045MD1390079+9999REMMET10301/07/24 15:54:02 METAR K1V4 072054Z      KT M04/M07 A2969 RMK AO1 SLP070 P0004 60009 T10441067 53007 $EQDR01      7SKY009R02      7GAS009
0164726140547422024010721546+44420-072019FM-15+0212K1V4 V02099999999999999999N9999997N5-00445-00725100765ADDAA101000395MA1100615098105REMMET09101/07/24 16:54:02 METAR K1V4 072154Z      KT M04/M07 A2971 RMK AO1 SLP076 P0001 T10441072 $EQDR01      7SKY009R02      7GAS009
0164726140547422024010722546+44420-072019FM-15+0212K1V4 V02099999999999999999N9999997N5-00505-00725100835ADDAA101000395MA1100685098175REMMET09101/07/24 17:54:02 METAR K1V4 072254Z      KT M05/M07 A2973 RMK AO1 SLP083 P0001 T10501072 $EQDR01      7SKY009R02      7GAS009
0213726140547422024010723546+44420-072019FM-15+0212K1V4 V02099999999999999999N9999997N5-00505-00785100925ADDAA101000395AA206003091MA1100785098275MD1390219+9999REMMET11501/07/24 18:54:02 METAR K1V4 072354Z      KT M05/M08 A2976 RMK AO1 SLP092 P0001 60012 T10501078 11039 21050 53021 $EQDR01      7SKY009R02      7GAS009
0158726140547422024010800546+44420-072019FM-15+0212K1V4 V02099999999999999999N9999997N5-00505-00785101005ADDAA101000095MA1100855098335REMMET08501/07/24 19:54:01 METAR K1V4 080054Z      KT M05/M08 A2978 RMK AO1 SLP100 T10501078 $EQDR01      7SKY009R02      7GAS009
0158726140547422024010801546+44420-072019FM-15+0212K1V4 V02099999999999999999N9999997N5-00505-00785101065ADDAA101000095MA1100915098405REMMET08501/07/24 20:54:01 METAR K1V4 080154Z      KT M05/M08 A2980 RMK AO1 SLP106 T10501078 $EQDR01      7SKY009R02      7GAS009
0178726140547422024010802546+44420-072019FM-15+0212K1V4 V02099999999999999999N9999997N5-00505-00835101135ADDAA101000095MA1100985098475MD1190219+9999REMMET09101/07/24 21:54:01 METAR K1V4 080254Z      KT M05/M08 A2982 RMK AO1 SLP113 T10501083 51021 $EQDR01      7SKY009R02      7GAS009
0158726140547422024010803546+44420-072019FM-15+0212K1V4 V02099999999999999999N9999997N5-00505-00785101225ADDAA101000095MA1101085098575REMMET08501/07/24 22:54:02 METAR K1V4 080354Z      KT M05/M08 A2985 RMK AO1 SLP122 T10501078 $EQDR01      7SKY009R02      7GAS009
0168726140547422024010804546+44420-072019FM-15+0212K1V4 V02099999999999999999N9999997N5-00565-00835101295ADDAA101000395MA1101155098635REMMET09501/07/24 23:54:02 METAR K1V4 080454Z      KT M06/M08 A2987 RMK AO1 SLP129 T10561083 410391056 $EQDR01      7SKY009R02      7GAS009
0622726140547422024010804596+44420-072019SOD  +0212K1V4 V020999999999999999999999999999+99999+99999999999ADDAA124015096KA1240M-00385KA2240N-00555MG1098294100614OE11249999999999997OE22249999999999997REMSOD50124 HR PRECIPITATION (IN): 0.59 24 HR MAX TEMP (F): 2524 HR MIN TEMP (F): 22AVERAGE STATION PRESSURE:29.025 MINIMUM SEA LEVEL PRESSURE:29.71 TIME OF OCCURRENCE:1408 24 HR AVG TEMP (F): 24DEPART FROM NORMAL:  6  HEATING DEGREE DAYS: 41 COOLING DEGREE DAYS:  0 LATEST DAY MAX TEMP (0700-1900 LST):25  LATEST NIGHT MIN TEMP(1900-0800 LST):22 HOURLY INCREMENTAL PRECIPITATION VALUES (IN):.03 0.03 0.05 0.04 0.00 0.03 0.01 0.02 0.02 0.03 0.10 0.06 0.04 0.03 0.03 0.03 0.01 0.01 0.01 0.00 0.00 0.00 0.00 0.01EQDR01  0.597AAP092
0213726140547422024010805546+44420-072019FM-15+0212K1V4 V02099999999999999999N9999997N5-00565-00725101415ADDAA101000095AA206000391MA1101255098735MD1390279+9999REMMET11501/08/24 00:54:02 METAR K1V4 080554Z      KT M06/M07 A2990 RMK AO1 SLP141 P0001 60001 T10561072 11050 21056 53027 $EQDR01      7SKY009R02      7GAS009
0158726140547422024010806546+44420-072019FM-15+0212K1V4 V02099999999999999999N9999997N5-00505-00835101535ADDAA101000095MA1101395098865REMMET08501/08/24 01:54:02 METAR K1V4 080654Z      KT M05/M08 A2994 RMK AO1 SLP153 T10501083 $EQDR01      7SKY009R02      7GAS009
0158726140547422024010807546+44420-072019FM-15+0212K1V4 V02099999999999999999N9999997N5-00565-01005101695ADDAA101000095MA1101565099035REMMET08501/08/24 02:54:02 METAR K1V4 080754Z      KT M06/M10 A2999 RMK AO1 SLP169 T10561100 $EQDR01      7SKY009R02      7GAS009
0178726140547422024010808546+44420-072019FM-15+0212K1V4 V02099999999999999999N9999997N5-00565-01065101845ADDAA101000095MA1101695099165MD1390429+9999REMMET09101/08/24 03:54:02 METAR K1V4 080854Z      KT M06/M11 A3003 RMK AO1 SLP184 T10561106 53042 $EQDR01      7SKY009R02      7GAS009
0158726140547422024010809546+44420-072019FM-15+0212K1V4 V02099999999999999999N9999997N5-00565-01005101965ADDAA101000095MA1101795099265REMMET08501/08/24 04:54:02 METAR K1V4 080954Z      KT M06/M10 A3006 RMK AO1 SLP196 T10561100 $EQDR01      7SKY009R02      7GAS009
0158726140547422024010810546+44420-072019FM-15+0212K1V4 V02099999999999999999N9999997N5-00565-00945102055ADDAA101000095MA1101905099365REMMET08501/08/24 05:54:02 METAR K1V4 081054Z      KT M06/M09 A3009 RMK AO1 SLP205 T10561094 $EQDR01      7SKY009R02      7GAS009
0207726140547422024010811546+44420-072019FM-15+0212K1V4 V02099999999999999999N9999997N5-00505-00945102215ADDAA101000095AA224010291MA1102075099535MD1390369+9999REMMET10901/08/24 06:54:02 METAR K1V4 081154Z      KT M05/M09 A3014 RMK AO1 SLP221 70040 T10501094 11050 21061 53036 $EQDR01      7SKY009R02      7GAS009
0158726140547422024010812546+44420-072019FM-15+0212K1V4 V02099999999999999999N9999997N5-00505-00895102325ADDAA101000095MA1102175099635REMMET08501/08/24 07:54:02 METAR K1V4 081254Z      KT M05/M09 A3017 RMK AO1 SLP232 T10501089 $EQDR01      7SKY009R02      7GAS009
0158726140547422024010813546+44420-072019FM-15+0212K1V4 V02099999999999999999N9999997N5-00445-00895102485ADDAA101000095MA1102345099795REMMET08501/08/24 08:54:02 METAR K1V4 081354Z      KT M04/M09 A3022 RMK AO1 SLP248 T10441089 $EQDR01      7SKY009R02      7GAS009
0178726140547422024010814546+44420-072019FM-15+0212K1V4 V02099999999999999999N9999997N5-00395-00895102615ADDAA101000095MA1102475099935MD1390399+9999REMMET09101/08/24 09:54:02 METAR K1V4 081454Z      KT M04/M09 A3026 RMK AO1 SLP261 T10391089 53039 $EQDR01      7SKY009R02      7GAS009
0151726140547422024010815546+44420-072019FM-15+0212K1V4 V02099999999999999999N9999997N5-00335-00835102565ADDMA1102405099865REMMET08901/08/24 10:54:02 METAR K1V4 081554Z      KT M03/M08 A3024 RMK AO1 SLP256 T10331083 PNO $EQDR01      7SKY009R02      7GAS009
0145726140547422024010816546+44420-072019FM-15+0212K1V4 V02099999999999999999N9999997N5-00225-00785102565ADDMA1102405099865REMMET08301/08/24 11:54:02 METAR K1V4 081654Z      KT M02/M08 A3024 RMK AO1 SLP256 T10221078EQDR01      7SKY009R02      7GAS009
0174726140547422024010817546+44420-072019FM-15+0212K1V4 V02099999999999999999N9999997N5-00175-00725102535ADDAA101000095MA1102405099865REMMET10101/08/24 12:54:02 METAR K1V4 081754Z      KT M02/M07 A3024 RMK AO1 SLP253 6//// T10171072 11017 21050EQDR01      7SKY009R02      7GAS009
0156726140547422024010818546+44420-072019FM-15+0212K1V4 V02099999999999999999N9999997N5-00115-00675102555ADDAA101000095MA1102405099865REMMET08301/08/24 13:54:02 METAR K1V4 081854Z      KT M01/M07 A3024 RMK AO1 SLP255 T10111067EQDR01      7SKY009R02      7GAS009
0156726140547422024010819546+44420-072019FM-15+0212K1V4 V02099999999999999999N9999997N5-00115-00725102695ADDAA101000095MA1102545099995REMMET08301/08/24 14:54:02 METAR K1V4 081954Z      KT M01/M07 A3028 RMK AO1 SLP269 T10111072EQDR01      7SKY009R02      7GAS009
0176726140547422024010820546+44420-072019FM-15+0212K1V4 V02099999999999999999N9999997N5-00175-00675102755ADDAA101000095MA1102615100065MD1390229+9999REMMET08901/08/24 15:54:02 METAR K1V4 082054Z      KT M02/M07 A3030 RMK AO1 SLP275 T10171067 53022EQDR01      7SKY009R02      7GAS009
0156726140547422024010821546+44420-072019FM-15+0212K1V4 V02099999999999999999N9999997N5-00175-00615102775ADDAA101000095MA1102645100095REMMET08301/08/24 16:54:02 METAR K1V4 082154Z      KT M02/M06 A3031 RMK AO1 SLP277 T10171061EQDR01      7SKY009R02      7GAS009
0156726140547422024010822546+44420-072019FM-15+0212K1V4 V02099999999999999999N9999997N5-00225-00615102915ADDAA101000095MA1102745100195REMMET08301/08/24 17:54:02 METAR K1V4 082254Z      KT M02/M06 A3034 RMK AO1 SLP291 T10221061EQDR01      7SKY009R02      7GAS009
0188726140547422024010823546+44420-072019FM-15+0212K1V4 V02099999999999999999N9999997N5-00225-00615102955ADDAA101000095MA1102815100265MD1390209+9999REMMET10101/08/24 18:54:02 METAR K1V4 082354Z      KT M02/M06 A3036 RMK AO1 SLP295 T10221061 11011 21028 53020EQDR01      7SKY009R02      7GAS009
0156726140547422024010900546+44420-072019FM-15+0212K1V4 V02099999999999999999N9999997N5-00335-00675102985ADDAA101000095MA1102815100265REMMET08301/08/24 19:54:01 METAR K1V4 090054Z      KT M03/M07 A3036 RMK AO1 SLP298 T10331067EQDR01      7SKY009R02      7GAS009
0156726140547422024010901546+44420-072019FM-15+0212K1V4 V02099999999999999999N9999997N5-00225-00785103025ADDAA101000095MA1102885100325REMMET08301/08/24 20:54:01 METAR K1V4 090154Z      KT M02/M08 A3038 RMK AO1 SLP302 T10221078EQDR01      7SKY009R02      7GAS009
0176726140547422024010902546+44420-072019FM-15+0212K1V4 V02099999999999999999N9999997N5-00225-00835102995ADDAA101000095MA1102845100295MD1090039+9999REMMET08901/08/24 21:54:01 METAR K1V4 090254Z      KT M02/M08 A3037 RMK AO1 SLP299 T10221083 50003EQDR01      7SKY009R02      7GAS009
0156726140547422024010903546+44420-072019FM-15+0212K1V4 V02099999999999999999N9999997N5-00225-00785102985ADDAA101000095MA1102845100295REMMET08301/08/24 22:54:02 METAR K1V4 090354Z      KT M02/M08 A3037 RMK AO1 SLP298 T10221078EQDR01      7SKY009R02      7GAS009
0166726140547422024010904546+44420-072019FM-15+0212K1V4 V02099999999999999999N9999997N5-00225-00785102925ADDAA101000095MA1102785100235REMMET09301/08/24 23:54:02 METAR K1V4 090454Z      KT M02/M08 A3035 RMK AO1 SLP292 T10221078 410111061EQDR01      7SKY009R02      7GAS009
0622726140547422024010904596+44420-072019SOD  +0212K1V4 V020999999999999999999999999999+99999+99999999999ADDAA124000396KA1240M-00105KA2240N-00605MG1099584101294OE11249999999999997OE22249999999999997REMSOD50124 HR PRECIPITATION (IN): 0.01 24 HR MAX TEMP (F): 3024 HR MIN TEMP (F): 21AVERAGE STATION PRESSURE:29.405 MINIMUM SEA LEVEL PRESSURE:29.91 TIME OF OCCURRENCE:0003 24 HR AVG TEMP (F): 26DEPART FROM NORMAL:  8  HEATING DEGREE DAYS: 39 COOLING DEGREE DAYS:  0 LATEST DAY MAX TEMP (0700-1900 LST):30  LATEST NIGHT MIN TEMP(1900-0800 LST):21 HOURLY INCREMENTAL PRECIPITATION VALUES (IN):.00 0.00 0.00 0.00 0.00 0.00 0.00 0.00 0.00 0.00 M    M    0.00 0.00 0.00 0.00 0.00 0.00 0.00 0.00 0.00 0.00 0.00 0.00EQDR01  0.017AAP092
0188726140547422024010905546+44420-072019FM-15+0212K1V4 V02099999999999999999N9999997N5-00285-00675102975ADDAA101000095MA1102845100295MD1590019+9999REMMET10101/09/24 00:54:02 METAR K1V4 090554Z      KT M03/M07 A3037 RMK AO1 SLP297 T10281067 11017 21033 55001EQDR01      7SKY009R02      7GAS009
0156726140547422024010906546+44420-072019FM-15+0212K1V4 V02099999999999999999N9999997N5-00335-00675103025ADDAA101000095MA1102885100325REMMET08301/09/24 01:54:02 METAR K1V4 090654Z      KT M03/M07 A3038 RMK AO1 SLP302 T10331067EQDR01      7SKY009R02      7GAS009
0156726140547422024010907546+44420-072019FM-15+0212K1V4 V02099999999999999999N9999997N5-00335-00675103055ADDAA101000095MA1102915100365REMMET08301/09/24 02:54:02 METAR K1V4 090754Z      KT M03/M07 A3039 RMK AO1 SLP305 T10331067EQDR01      7SKY009R02      7GAS009
0176726140547422024010908546+44420-072019FM-15+0212K1V4 V02099999999999999999N9999997N5-00335-00675103015ADDAA101000095MA1102885100325MD1090049+9999REMMET08901/09/24 03:54:02 METAR K1V4 090854Z      KT M03/M07 A3038 RMK AO1 SLP301 T10331067 50004EQDR01      7SKY009R02      7GAS009
0156726140547422024010909546+44420-072019FM-15+0212K1V4 V02099999999999999999N9999997N5-00395-00725102925ADDAA101000095MA1102785100235REMMET08301/09/24 04:54:02 METAR K1V4 090954Z      KT M04/M07 A3035 RMK AO1 SLP292 T10391072EQDR01      7SKY009R02      7GAS009
0156726140547422024010910546+44420-072019FM-15+0212K1V4 V02099999999999999999N9999997N5-00445-00675102965ADDAA101000095MA1102815100265REMMET08301/09/24 05:54:02 METAR K1V4 091054Z      KT M04/M07 A3036 RMK AO1 SLP296 T10441067EQDR01      7SKY009R02      7GAS009
0194726140547422024010911546+44420-072019FM-15+0212K1V4 V02099999999999999999N9999997N5-00445-00725102915ADDAA101000095MA1102785100235MD1690129+9999REMMET10701/09/24 06:54:02 METAR K1V4 091154Z      KT M04/M07 A3035 RMK AO1 SLP291 7//// T10441072 11028 21044 56012EQDR01      7SKY009R02      7GAS009
0156726140547422024010912546+44420-072019FM-15+0212K1V4 V02099999999999999999N9999997N5-00505-00725102835ADDAA101000095MA1102685100135REMMET08301/09/24 07:54:02 METAR K1V4 091254Z      KT M05/M07 A3032 RMK AO1 SLP283 T10501072EQDR01      7SKY009R02      7GAS009
0156726140547422024010913546+44420-072019FM-15+0212K1V4 V02099999999999999999N9999997N5-00445-00785102835ADDAA101000095MA1102685100135REMMET08301/09/24 08:54:02 METAR K1V4 091354Z      KT M04/M08 A3032 RMK AO1 SLP283 T10441078EQDR01      7SKY009R02      7GAS009
0176726140547422024010914546+44420-072019FM-15+0212K1V4 V02099999999999999999N9999997N5-00395-00725102775ADDAA101000095MA1102645100095MD1690139+9999REMMET08901/09/24 09:54:02 METAR K1V4 091454Z      KT M04/M07 A3031 RMK AO1 SLP277 T10391072 56013EQDR01      7SKY009R02      7GAS009
0156726140547422024010915546+44420-072019FM-15+0212K1V4 V02099999999999999999N9999997N5-00285-00725102695ADDAA101000095MA1102575100035REMMET08301/09/24 10:54:02 METAR K1V4 091554Z      KT M03/M07 A3029 RMK AO1 SLP269 T10281072EQDR01      7SKY009R02      7GAS009
0156726140547422024010916546+44420-072019FM-15+0212K1V4 V02099999999999999999N9999997N5-00225-00725102605ADDAA101000095MA1102475099935REMMET08301/09/24 11:54:02 METAR K1V4 091654Z      KT M02/M07 A3026 RMK AO1 SLP260 T10221072EQDR01      7SKY009R02      7GAS009
0188726140547422024010917546+44420-072019FM-15+0212K1V4 V02099999999999999999N9999997N5-00175-00725102425ADDAA101000095MA1102305099765MD1890339+9999REMMET10101/09/24 12:54:02 METAR K1V4 091754Z      KT M02/M07 A3021 RMK AO1 SLP242 T10171072 11017 21050 58033EQDR01      7SKY009R02      7GAS009
0163726140547422024010918546+44420-072019FM-15+0212K1V4 V02099999999999999999N9999997N5-00115-00725102255ADDAA101000095MA1102135099595REMMET09001/09/24 13:54:02 METAR K1V4 091854Z      KT M01/M07 A3016 RMK AO1 PRESFR SLP225 T10111072EQDR01      7SKY009R02      7GAS009
0156726140547422024010919546+44420-072019FM-15+0212K1V4 V02099999999999999999N9999997N5-00115-00675102135ADDAA101000095MA1102005099465REMMET08301/09/24 14:54:02 METAR K1V4 091954Z      KT M01/M07 A3012 RMK AO1 SLP213 T10111067EQDR01      7SKY009R02      7GAS009
0183726140547422024010920546+44420-072019FM-15+0212K1V4 V02099999999999999999N9999997N5-00115-00675101915ADDAA101000095MA1101795099265MD1890499+9999REMMET09601/09/24 15:54:02 METAR K1V4 092054Z      KT M01/M07 A3006 RMK AO1 PRESFR SLP191 T10111067 58049EQDR01      7SKY009R02      7GAS009
0156726140547422024010921546+44420-072019FM-15+0212K1V4 V02099999999999999999N9999997N5-00115-00615101765ADDAA101000095MA1101635099105REMMET08301/09/24 16:54:02 METAR K1V4 092154Z      KT M01/M06 A3001 RMK AO1 SLP176 T10111061EQDR01      7SKY009R02      7GAS009
0156726140547422024010922546+44420-072019FM-15+0212K1V4 V02099999999999999999N9999997N5-00175-00565101685ADDAA101000095MA1101565099035REMMET08301/09/24 17:54:02 METAR K1V4 092254Z      KT M02/M06 A2999 RMK AO1 SLP168 T10171056EQDR01      7SKY009R02      7GAS009
0211726140547422024010923546+44420-072019FM-15+0212K1V4 V02099999999999999999N9999997N5-00175-00445101515ADDAA101000596AA206000392MA1101395098865MD1890419+9999REMMET11301/09/24 18:54:02 METAR K1V4 092354Z      KT M02/M04 A2994 RMK AO1 SLP151 P0001 60001 T10171044 11006 21017 58041EQDR01      7SKY009R02      7GAS009
0162726140547422024011000546+44420-072019FM-15+0212K1V4 V02099999999999999999N9999997N5-00175-00335101305ADDAA101001895MA1101195098675REMMET08901/09/24 19:54:01 METAR K1V4 100054Z      KT M02/M03 A2988 RMK AO1 SLP130 P0007 T10171033EQDR01      7SKY009R02      7GAS009
0169726140547422024011001546+44420-072019FM-15+0212K1V4 V02099999999999999999N9999997N5-00175-00335101035ADDAA101004695MA1100915098405REMMET09601/09/24 20:54:01 METAR K1V4 100154Z      KT M02/M03 A2980 RMK AO1 PRESFR SLP103 P0018 T10171033EQDR01      7SKY009R02      7GAS009
0206726140547422024011002546+44420-072019FM-15+0212K1V4 V02099999999999999999N9999997N5-00115-00335100755ADDAA101000895AA203007491MA1100645098135MD1890739+9999REMMET10801/09/24 21:54:01 METAR K1V4 100254Z      KT M01/M03 A2972 RMK AO1 PRESFR SLP075 P0004 60029 T10111033 58073EQDR01      7SKY009R02      7GAS009
0161726140547422024011003546+44420-072019FM-15+0212K1V4 V02099999999999999999N9999997N5+00005-00225100455ADDAA101000595MA1100345097845REMMET08801/09/24 22:54:01 METAR K1V4 100354Z      KT 00/M02 A2963 RMK AO1 SLP045 P0002 T00001022EQDR01      7SKY009R02      7GAS009
0178726140547422024011004546+44420-072019FM-15+0212K1V4 V02099999999999999999N9999997N5+00175-00115100055ADDAA101000395MA1099975097475REMMET10501/09/24 23:54:01 METAR K1V4 100454Z      KT 02/M01 A2952 RMK AO1 PRESFR SLP005 P0001 T00171011 400221050EQDR01      7SKY009R02      7GAS009
0622726140547422024011004596+44420-072019SOD  +0212K1V4 V020999999999999999999999999999+99999+99999999999ADDAA124008496KA1240M+00225KA2240N-00495MG1099754100034OE11249999999999997OE22249999999999997REMSOD50124 HR PRECIPITATION (IN): 0.33 24 HR MAX TEMP (F): 3624 HR MIN TEMP (F): 23AVERAGE STATION PRESSURE:29.455 MINIMUM SEA LEVEL PRESSURE:29.54 TIME OF OCCURRENCE:2356 24 HR AVG TEMP (F): 30DEPART FROM NORMAL: 12  HEATING DEGREE DAYS: 35 COOLING DEGREE DAYS:  0 LATEST DAY MAX TEMP (0700-1900 LST):31  LATEST NIGHT MIN TEMP(1900-0800 LST):23 HOURLY INCREMENTAL PRECIPITATION VALUES (IN):.00 0.00 0.00 0.00 0.00 0.00 0.00 0.00 0.00 0.00 0.00 0.00 0.00 0.00 0.00 0.00 0.00 0.00 0.02 0.07 0.18 0.03 0.02 0.01EQDR01  0.337AAP092
0210726140547422024011005546+44420-072019FM-15+0212K1V4 V02099999999999999999N9999997N5+00225-00115099755ADDAA101000395AA206008491MA1099665097175MD1890949+9999REMMET11201/10/24 00:54:02 METAR K1V4 100554Z      KT 02/M01 A2943 RMK AO1 SLP975 P0001 60033 T00221011 10022 21017 58094EQDR01      7SKY009R02      7GAS009
0160726140547422024011006546+44420-072019FM-15+0212K1V4 V02099999999999999999N9999997N5+00225+00005099635ADDAA101001395MA1099565097075REMMET08701/10/24 01:54:02 METAR K1V4 100654Z      KT 02/00 A2940 RMK AO1 SLP963 P0005 T00220000EQDR01      7SKY009R02      7GAS009
0160726140547422024011007546+44420-072019FM-15+0212K1V4 V02099999999999999999N9999997N5+00335+00005099395ADDAA101001395MA1099295096815REMMET08701/10/24 02:54:02 METAR K1V4 100754Z      KT 03/00 A2932 RMK AO1 SLP939 P0005 T00330000EQDR01      7SKY009R02      7GAS009
0204726140547422024011008546+44420-072019FM-15+0212K1V4 V02099999999999999999N9999997N5+00175+00005098845ADDAA101001095AA203003691MA1098755096285MD1890899+9999REMMET10601/10/24 03:54:02 METAR K1V4 100854Z      KT 02/00 A2916 RMK AO1 PRESFR SLP884 P0004 60014 T00170000 58089EQDR01      7SKY009R02      7GAS009
0160726140547422024011009546+44420-072019FM-15+0212K1V4 V02099999999999999999N9999997N5+00565+00065098485ADDAA101000595MA1098415095945REMMET08701/10/24 04:54:02 METAR K1V4 100954Z      KT 06/01 A2906 RMK AO1 SLP848 P0002 T00560006EQDR01      7SKY009R02      7GAS009
0167726140547422024011010546+44420-072019FM-15+0212K1V4 V02099999999999999999N9999997N5+00505+00175098165ADDAA101000895MA1098105095655REMMET09401/10/24 05:54:02 METAR K1V4 101054Z      KT 05/02 A2897 RMK AO1 PRESFR SLP816 P0003 T00500017EQDR01      7SKY009R02      7GAS009
0233726140547422024011011546+44420-072019FM-15+0212K1V4 V02099999999999999999N9999997N5+00445+00225097915ADDAA101001895AA206006491AA324015091MA1097835095385MD1690909+9999REMMET12401/10/24 06:54:02 METAR K1V4 101154Z      KT 04/02 A2889 RMK AO1 PRESFR SLP791 P0006 60025 70059 T00440022 10056 20017 56090EQDR01      7SKY009R02      7GAS009
0160726140547422024011012546+44420-072019FM-15+0212K1V4 V02099999999999999999N9999997N5+00285+00175097876ADDAA101001095MA1097806095356REMMET08701/10/24 07:54:02 METAR K1V4 101254Z      KT 03/02 A2888 RMK AO1 SLP787 P0005 T00280017EQDR01      7SKY009R02      7GAS009
0160726140547422024011013546+44420-072019FM-15+0212K1V4 V02099999999999999999N9999997N5+00445+00225097996ADDAA101004395MA1097936095486REMMET08701/10/24 08:54:02 METAR K1V4 101354Z      KT 04/02 A2892 RMK AO1 SLP799 P0016 T00440022EQDR01      7SKY009R02      7GAS009
0197726140547422024011014546+44420-072019FM-15+0212K1V4 V02099999999999999999N9999997N5+00395+00225098195ADDAA101003395AA203008691MA1098146095686MD1390279+9999REMMET09901/10/24 09:54:02 METAR K1V4 101454Z      KT 04/02 A2898 RMK AO1 SLP819 P0013 60034 T00390022 53027EQDR01      7SKY009R02      7GAS009
0160726140547422024011015546+44420-072019FM-15+0212K1V4 V02099999999999999999N9999997N5+00445+00285098205ADDAA101000895MA1098146095686REMMET08701/10/24 10:54:02 METAR K1V4 101554Z      KT 04/03 A2898 RMK AO1 SLP820 P0004 T00440028EQDR01      7SKY009R02      7GAS009
0154726140547422024011016546+44420-072019FM-15+0212K1V4 V02099999999999999999N9999997N5+00615+00285098175ADDAA101000095MA1098145095685REMMET08101/10/24 11:54:02 METAR K1V4 101654Z      KT 06/03 A2898 RMK AO1 SLP817 T00610028EQDR01      7SKY009R02      7GAS009
0203726140547422024011017546+44420-072019FM-15+0212K1V4 V02099999999999999999N9999997N5+00615+00285098265ADDAA101000095AA206009791MA1098245095785MD1390109+9999REMMET10501/10/24 12:54:02 METAR K1V4 101754Z      KT 06/03 A2901 RMK AO1 SLP826 60038 T00610028 10067 20028 53010EQDR01      7SKY009R02      7GAS009
0154726140547422024011018546+44420-072019FM-15+0212K1V4 V02099999999999999999N9999997N5+00615+00175098415ADDAA101000095MA1098375095915REMMET08101/10/24 13:54:02 METAR K1V4 101854Z      KT 06/02 A2905 RMK AO1 SLP841 T00610017EQDR01      7SKY009R02      7GAS009
0160726140547422024011019546+44420-072019FM-15+0212K1V4 V02099999999999999999N9999997N5+00565+00225098565ADDAA101001395MA1098515096045REMMET08701/10/24 14:54:02 METAR K1V4 101954Z      KT 06/02 A2909 RMK AO1 SLP856 P0005 T00560022EQDR01      7SKY009R02      7GAS009
0191726140547422024011020546+44420-072019FM-15+0212K1V4 V02099999999999999999N9999997N5+00505+00175098715ADDAA101000095AA203001391MA1098685096215MD1190439+9999REMMET09301/10/24 15:54:02 METAR K1V4 102054Z      KT 05/02 A2914 RMK AO1 SLP871 60005 T00500017 51043EQDR01      7SKY009R02      7GAS009
0155726140547422024011021546+44420-072019FM-15+0212K1V4 V02099999999999999999N9999997N5+00395-00065098805ADDAA101000095MA1098755096285REMMET08201/10/24 16:54:02 METAR K1V4 102154Z      KT 04/M01 A2916 RMK AO1 SLP880 T00391006EQDR01      7SKY009R02      7GAS009
0155726140547422024011022546+44420-072019FM-15+0212K1V4 V02099999999999999999N9999997N5+00225-00065098965ADDAA101000095MA1098925096445REMMET08201/10/24 17:54:02 METAR K1V4 102254Z      KT 02/M01 A2921 RMK AO1 SLP896 T00221006EQDR01      7SKY009R02      7GAS009
0204726140547422024011023546+44420-072019FM-15+0212K1V4 V02099999999999999999N9999997N5+00175-00065099095ADDAA101000095AA206001391MA1099055096585MD1390379+9999REMMET10601/10/24 18:54:02 METAR K1V4 102354Z      KT 02/M01 A2925 RMK AO1 SLP909 60005 T00171006 10067 20011 53037EQDR01      7SKY009R02      7GAS009
0155726140547422024011100546+44420-072019FM-15+0212K1V4 V02099999999999999999N9999997N5+00395-00115099245ADDAA101000095MA1099195096715REMMET08201/10/24 19:54:01 METAR K1V4 110054Z      KT 04/M01 A2929 RMK AO1 SLP924 T00391011EQDR01      7SKY009R02      7GAS009
0155726140547422024011101546+44420-072019FM-15+0212K1V4 V02099999999999999999N9999997N5+00395-00285099385ADDAA101000095MA1099365096875REMMET08201/10/24 20:54:01 METAR K1V4 110154Z      KT 04/M03 A2934 RMK AO1 SLP938 T00391028EQDR01      7SKY009R02      7GAS009
0175726140547422024011102546+44420-072019FM-15+0212K1V4 V02099999999999999999N9999997N5+00335-00285099505ADDAA101000095MA1099465096975MD1190409+9999REMMET08801/10/24 21:54:01 METAR K1V4 110254Z      KT 03/M03 A2937 RMK AO1 SLP950 T00331028 51040EQDR01      7SKY009R02      7GAS009
0155726140547422024011103546+44420-072019FM-15+0212K1V4 V02099999999999999999N9999997N5+00335-00335099595ADDAA101000095MA1099535097045REMMET08201/10/24 22:54:01 METAR K1V4 110354Z      KT 03/M03 A2939 RMK AO1 SLP959 T00331033EQDR01      7SKY009R02      7GAS009
0165726140547422024011104546+44420-072019FM-15+0212K1V4 V02099999999999999999N9999997N5+00285-00335099645ADDAA101000095MA1099595097115REMMET09201/10/24 23:54:01 METAR K1V4 110454Z      KT 03/M03 A2941 RMK AO1 SLP964 T00281033 400670011EQDR01      7SKY009R02      7GAS009
0622726140547422024011104596+44420-072019SOD  +0212K1V4 V020999999999999999999999999999+99999+99999999999ADDAA124017596KA1240M+00675KA2240N+00115MG1096214097874OE11249999999999997OE22249999999999997REMSOD50124 HR PRECIPITATION (IN): 0.69 24 HR MAX TEMP (F): 4424 HR MIN TEMP (F): 34AVERAGE STATION PRESSURE:28.410 MINIMUM SEA LEVEL PRESSURE:28.90 TIME OF OCCURRENCE:0757 24 HR AVG TEMP (F): 39DEPART FROM NORMAL: 22  HEATING DEGREE DAYS: 26 COOLING DEGREE DAYS:  0 LATEST DAY MAX TEMP (0700-1900 LST):44  LATEST NIGHT MIN TEMP(1900-0800 LST):29 HOURLY INCREMENTAL PRECIPITATION VALUES (IN):.01 0.05 0.05 0.04 0.02 0.03 0.07 0.04 0.17 0.13 0.03 0.00 0.00 0.00 0.05 0.00 0.00 0.00 0.00 0.00 0.00 0.00 0.00 0.00EQDR01  0.697AAP092
0187726140547422024011105546+44420-072019FM-15+0212K1V4 V02099999999999999999N9999997N5+00285-00395099785ADDAA101000095MA1099735097245MD1390289+9999REMMET10001/11/24 00:54:02 METAR K1V4 110554Z      KT 03/M04 A2945 RMK AO1 SLP978 T00281039 10039 20017 53028EQDR01      7SKY009R02      7GAS009
0162726140547422024011106546+44420-072019FM-15+0212K1V4 V02099999999999999999N9999997N5+00285-00445099945ADDAA101000095MA1099905097405REMMET08901/11/24 01:54:02 METAR K1V4 110654Z      KT 03/M04 A2950 RMK AO1 PRESRR SLP994 T00281044EQDR01      7SKY009R02      7GAS009
0155726140547422024011107546+44420-072019FM-15+0212K1V4 V02099999999999999999N9999997N5+00225-00445100105ADDAA101000095MA1100035097545REMMET08201/11/24 02:54:02 METAR K1V4 110754Z      KT 02/M04 A2954 RMK AO1 SLP010 T00221044EQDR01      7SKY009R02      7GAS009
0175726140547422024011108546+44420-072019FM-15+0212K1V4 V02099999999999999999N9999997N5+00175-00505100175ADDAA101000095MA1100105097605MD1190389+9999REMMET08801/11/24 03:54:02 METAR K1V4 110854Z      KT 02/M05 A2956 RMK AO1 SLP017 T00171050 51038EQDR01      7SKY009R02      7GAS009
0155726140547422024011109546+44420-072019FM-15+0212K1V4 V02099999999999999999N9999997N5+00115-00565100285ADDAA101000095MA1100205097705REMMET08201/11/24 04:54:02 METAR K1V4 110954Z      KT 01/M06 A2959 RMK AO1 SLP028 T00111056EQDR01      7SKY009R02      7GAS009
0155726140547422024011110546+44420-072019FM-15+0212K1V4 V02099999999999999999N9999997N5+00115-00505100365ADDAA101000095MA1100275097775REMMET08201/11/24 05:54:02 METAR K1V4 111054Z      KT 01/M05 A2961 RMK AO1 SLP036 T00111050EQDR01      7SKY009R02      7GAS009
0204726140547422024011111546+44420-072019FM-15+0212K1V4 V02099999999999999999N9999997N5+00115-00505100435ADDAA101000095AA224010991MA1100345097845MD1190239+9999REMMET10601/11/24 06:54:02 METAR K1V4 111154Z      KT 01/M05 A2963 RMK AO1 SLP043 70043 T00111050 10028 20006 51023EQDR01      7SKY009R02      7GAS009
0155726140547422024011112546+44420-072019FM-15+0212K1V4 V02099999999999999999N9999997N5+00115-00505100495ADDAA101000095MA1100415097905REMMET08201/11/24 07:54:02 METAR K1V4 111254Z      KT 01/M05 A2965 RMK AO1 SLP049 T00111050EQDR01      7SKY009R02      7GAS009
0155726140547422024011113546+44420-072019FM-15+0212K1V4 V02099999999999999999N9999997N5+00115-00505100585ADDAA101000095MA1100515098005REMMET08201/11/24 08:54:02 METAR K1V4 111354Z      KT 01/M05 A2968 RMK AO1 SLP058 T00111050EQDR01      7SKY009R02      7GAS009
0175726140547422024011114546+44420-072019FM-15+0212K1V4 V02099999999999999999N9999997N5+00115-00505100635ADDAA101000095MA1100545098045MD1190209+9999REMMET08801/11/24 09:54:02 METAR K1V4 111454Z      KT 01/M05 A2969 RMK AO1 SLP063 T00111050 51020EQDR01      7SKY009R02      7GAS009
0155726140547422024011115546+44420-072019FM-15+0212K1V4 V02099999999999999999N9999997N5+00115-00505100645ADDAA101000095MA1100585098075REMMET08201/11/24 10:54:02 METAR K1V4 111554Z      KT 01/M05 A2970 RMK AO1 SLP064 T00111050EQDR01      7SKY009R02      7GAS009
0155726140547422024011116546+44420-072019FM-15+0212K1V4 V02099999999999999999N9999997N5+00175-00565100625ADDAA101000095MA1100545098045REMMET08201/11/24 11:54:02 METAR K1V4 111654Z      KT 02/M06 A2969 RMK AO1 SLP062 T00171056EQDR01      7SKY009R02      7GAS009
0187726140547422024011117546+44420-072019FM-15+0212K1V4 V02099999999999999999N9999997N5+00225-00565100605ADDAA101000095MA1100545098045MD1890029+9999REMMET10001/11/24 12:54:02 METAR K1V4 111754Z      KT 02/M06 A2969 RMK AO1 SLP060 T00221056 10022 20006 58002EQDR01      7SKY009R02      7GAS009
0155726140547422024011118546+44420-072019FM-15+0212K1V4 V02099999999999999999N9999997N5+00175-00565100625ADDAA101000095MA1100545098045REMMET08201/11/24 13:54:02 METAR K1V4 111854Z      KT 02/M06 A2969 RMK AO1 SLP062 T00171056EQDR01      7SKY009R02      7GAS009
0155726140547422024011119546+44420-072019FM-15+0212K1V4 V02099999999999999999N9999997N5+00175-00445100615ADDAA101000095MA1100545098045REMMET08201/11/24 14:54:02 METAR K1V4 111954Z      KT 02/M04 A2969 RMK AO1 SLP061 T00171044EQDR01      7SKY009R02      7GAS009
0175726140547422024011120546+44420-072019FM-15+0212K1V4 V02099999999999999999N9999997N5+00115-00395100735ADDAA101000095MA1100645098135MD1390129+9999REMMET08801/11/24 15:54:02 METAR K1V4 112054Z      KT 01/M04 A2972 RMK AO1 SLP073 T00111039 53012EQDR01      7SKY009R02      7GAS009
0155726140547422024011121546+44420-072019FM-15+0212K1V4 V02099999999999999999N9999997N5+00065-00285100835ADDAA101000095MA1100755098235REMMET08201/11/24 16:54:02 METAR K1V4 112154Z      KT 01/M03 A2975 RMK AO1 SLP083 T00061028EQDR01      7SKY009R02      7GAS009
0161726140547422024011122546+44420-072019FM-15+0212K1V4 V02099999999999999999N9999997N5+00005-00225100905ADDAA101000395MA1100815098305REMMET08801/11/24 17:54:02 METAR K1V4 112254Z      KT 00/M02 A2977 RMK AO1 SLP090 P0001 T00001022EQDR01      7SKY009R02      7GAS009
0204726140547422024011123546+44420-072019FM-15+0212K1V4 V02099999999999999999N9999997N5+00005-00225100955ADDAA101000095AA206000391MA1100855098335MD1190219+9999REMMET10601/11/24 18:54:02 METAR K1V4 112354Z      KT 00/M02 A2978 RMK AO1 SLP095 60001 T00001022 10022 20000 51021EQDR01      7SKY009R02      7GAS009
0156726140547422024011200546+44420-072019FM-15+0212K1V4 V02099999999999999999N9999997N5-00065-00225100985ADDAA101000095MA1100885098375REMMET08301/11/24 19:54:01 METAR K1V4 120054Z      KT M01/M02 A2979 RMK AO1 SLP098 T10061022EQDR01      7SKY009R02      7GAS009
0156726140547422024011201546+44420-072019FM-15+0212K1V4 V02099999999999999999N9999997N5-00065-00285101035ADDAA101000095MA1100955098435REMMET08301/11/24 20:54:01 METAR K1V4 120154Z      KT M01/M03 A2981 RMK AO1 SLP103 T10061028EQDR01      7SKY009R02      7GAS009
0176726140547422024011202546+44420-072019FM-15+0212K1V4 V02099999999999999999N9999997N5-00115-00335101095ADDAA101000095MA1100985098475MD1390139+9999REMMET08901/11/24 21:54:01 METAR K1V4 120254Z      KT M01/M03 A2982 RMK AO1 SLP109 T10111033 53013EQDR01      7SKY009R02      7GAS009
0156726140547422024011203546+44420-072019FM-15+0212K1V4 V02099999999999999999N9999997N5-00175-00445101225ADDAA101000095MA1101125098605REMMET08301/11/24 22:54:01 METAR K1V4 120354Z      KT M02/M04 A2986 RMK AO1 SLP122 T10171044EQDR01      7SKY009R02      7GAS009
0166726140547422024011204546+44420-072019FM-15+0212K1V4 V02099999999999999999N9999997N5-00175-00445101305ADDAA101000095MA1101195098675REMMET09301/11/24 23:54:01 METAR K1V4 120454Z      KT M02/M04 A2988 RMK AO1 SLP130 T10171044 400281017EQDR01      7SKY009R02      7GAS009
0622726140547422024011204596+44420-072019SOD  +0212K1V4 V020999999999999999999999999999+99999+99999999999ADDAA124000396KA1240M+00285KA2240N-00165MG1097854099664OE11249999999999997OE22249999999999997REMSOD50124 HR PRECIPITATION (IN): 0.01 24 HR MAX TEMP (F): 3724 HR MIN TEMP (F): 29AVERAGE STATION PRESSURE:28.895 MINIMUM SEA LEVEL PRESSURE:29.43 TIME OF OCCURRENCE:0006 24 HR AVG TEMP (F): 33DEPART FROM NORMAL: 16  HEATING DEGREE DAYS: 32 COOLING DEGREE DAYS:  0 LATEST DAY MAX TEMP (0700-1900 LST):36  LATEST NIGHT MIN TEMP(1900-0800 LST):33 HOURLY INCREMENTAL PRECIPITATION VALUES (IN):.00 0.00 0.00 0.00 0.00 0.00 0.00 0.00 0.00 0.00 0.00 0.00 0.00 0.00 0.00 0.00 0.00 0.01 0.00 0.00 0.00 0.00 0.00 0.00EQDR01  0.017AAP092
0188726140547422024011205546+44420-072019FM-15+0212K1V4 V02099999999999999999N9999997N5-00175-00445101385ADDAA101000095MA1101295098775MD1190299+9999REMMET10101/12/24 00:54:02 METAR K1V4 120554Z      KT M02/M04 A2991 RMK AO1 SLP138 T10171044 10000 21017 51029EQDR01      7SKY009R02      7GAS009
0156726140547422024011206546+44420-072019FM-15+0212K1V4 V02099999999999999999N9999997N5-00175-00505101525ADDAA101000095MA1101425098905REMMET08301/12/24 01:54:02 METAR K1V4 120654Z      KT M02/M05 A2995 RMK AO1 SLP152 T10171050EQDR01      7SKY009R02      7GAS009
0156726140547422024011207546+44420-072019FM-15+0212K1V4 V02099999999999999999N9999997N5-00225-00505101615ADDAA101000095MA1101495098965REMMET08301/12/24 02:54:02 METAR K1V4 120754Z      KT M02/M05 A2997 RMK AO1 SLP161 T10221050EQDR01      7SKY009R02      7GAS009
0176726140547422024011208546+44420-072019FM-15+0212K1V4 V02099999999999999999N9999997N5-00175-00505101715ADDAA101000095MA1101595099065MD1190319+9999REMMET08901/12/24 03:54:02 METAR K1V4 120854Z      KT M02/M05 A3000 RMK AO1 SLP171 T10171050 51031EQDR01      7SKY009R02      7GAS009
0156726140547422024011209546+44420-072019FM-15+0212K1V4 V02099999999999999999N9999997N5-00115-00615101815ADDAA101000095MA1101695099165REMMET08301/12/24 04:54:02 METAR K1V4 120954Z      KT M01/M06 A3003 RMK AO1 SLP181 T10111061EQDR01      7SKY009R02      7GAS009
0156726140547422024011210546+44420-072019FM-15+0212K1V4 V02099999999999999999N9999997N5-00115-00675101845ADDAA101000095MA1101735099205REMMET08301/12/24 05:54:02 METAR K1V4 121054Z      KT M01/M07 A3004 RMK AO1 SLP184 T10111067EQDR01      7SKY009R02      7GAS009
0205726140547422024011211546+44420-072019FM-15+0212K1V4 V02099999999999999999N9999997N5-00175-00675101905ADDAA101000095AA224000391MA1101795099265MD1190199+9999REMMET10701/12/24 06:54:02 METAR K1V4 121154Z      KT M02/M07 A3006 RMK AO1 SLP190 70001 T10171067 11011 21022 51019EQDR01      7SKY009R02      7GAS009
0156726140547422024011212546+44420-072019FM-15+0212K1V4 V02099999999999999999N9999997N5-00175-00675102095ADDAA101000095MA1101965099435REMMET08301/12/24 07:54:02 METAR K1V4 121254Z      KT M02/M07 A3011 RMK AO1 SLP209 T10171067EQDR01      7SKY009R02      7GAS009
0156726140547422024011213546+44420-072019FM-15+0212K1V4 V02099999999999999999N9999997N5-00175-00725102235ADDAA101000095MA1102105099565REMMET08301/12/24 08:54:02 METAR K1V4 121354Z      KT M02/M07 A3015 RMK AO1 SLP223 T10171072EQDR01      7SKY009R02      7GAS009
0176726140547422024011214546+44420-072019FM-15+0212K1V4 V02099999999999999999N9999997N5-00115-00725102295ADDAA101000095MA1102175099635MD1190389+9999REMMET08901/12/24 09:54:02 METAR K1V4 121454Z      KT M01/M07 A3017 RMK AO1 SLP229 T10111072 51038EQDR01      7SKY009R02      7GAS009
0156726140547422024011215546+44420-072019FM-15+0212K1V4 V02099999999999999999N9999997N5-00065-00725102295ADDAA101000095MA1102175099635REMMET08301/12/24 10:54:02 METAR K1V4 121554Z      KT M01/M07 A3017 RMK AO1 SLP229 T10061072EQDR01      7SKY009R02      7GAS009
0155726140547422024011216546+44420-072019FM-15+0212K1V4 V02099999999999999999N9999997N5+00005-00725102255ADDAA101000095MA1102135099595REMMET08201/12/24 11:54:02 METAR K1V4 121654Z      KT 00/M07 A3016 RMK AO1 SLP225 T00001072EQDR01      7SKY009R02      7GAS009
0187726140547422024011217546+44420-072019FM-15+0212K1V4 V02099999999999999999N9999997N5+00115-00675102195ADDAA101000095MA1102075099535MD1890099+9999REMMET10001/12/24 12:54:02 METAR K1V4 121754Z      KT 01/M07 A3014 RMK AO1 SLP219 T00111067 10011 21017 58009EQDR01      7SKY009R02      7GAS009
0155726140547422024011218546+44420-072019FM-15+0212K1V4 V02099999999999999999N9999997N5+00065-00675102145ADDAA101000095MA1102035099505REMMET08201/12/24 13:54:02 METAR K1V4 121854Z      KT 01/M07 A3013 RMK AO1 SLP214 T00061067EQDR01      7SKY009R02      7GAS009
0155726140547422024011219546+44420-072019FM-15+0212K1V4 V02099999999999999999N9999997N5+00115-00675102105ADDAA101000095MA1102005099465REMMET08201/12/24 14:54:02 METAR K1V4 121954Z      KT 01/M07 A3012 RMK AO1 SLP210 T00111067EQDR01      7SKY009R02      7GAS009
0175726140547422024011220546+44420-072019FM-15+0212K1V4 V02099999999999999999N9999997N5+00065-00725102105ADDAA101000095MA1102005099465MD1690089+9999REMMET08801/12/24 15:54:02 METAR K1V4 122054Z      KT 01/M07 A3012 RMK AO1 SLP210 T00061072 56008EQDR01      7SKY009R02      7GAS009
0156726140547422024011221546+44420-072019FM-15+0212K1V4 V02099999999999999999N9999997N5-00175-00725102085ADDAA101000095MA1101965099435REMMET08301/12/24 16:54:02 METAR K1V4 122154Z      KT M02/M07 A3011 RMK AO1 SLP208 T10171072EQDR01      7SKY009R02      7GAS009
0156726140547422024011222546+44420-072019FM-15+0212K1V4 V02099999999999999999N9999997N5-00285-00725102015ADDAA101000095MA1101905099365REMMET08301/12/24 17:54:02 METAR K1V4 122254Z      KT M03/M07 A3009 RMK AO1 SLP201 T10281072EQDR01      7SKY009R02      7GAS009
0195726140547422024011223546+44420-072019FM-15+0212K1V4 V02099999999999999999N9999997N5-00395-00785101885ADDAA101000095MA1101765099235MD1890249+9999REMMET10801/12/24 18:54:02 METAR K1V4 122354Z      KT M04/M08 A3005 RMK AO1 PRESFR SLP188 T10391078 10017 21039 58024EQDR01      7SKY009R02      7GAS009
0156726140547422024011300546+44420-072019FM-15+0212K1V4 V02099999999999999999N9999997N5-00395-00785101835ADDAA101000095MA1101695099165REMMET08301/12/24 19:54:01 METAR K1V4 130054Z      KT M04/M08 A3003 RMK AO1 SLP183 T10391078EQDR01      7SKY009R02      7GAS009
0156726140547422024011301546+44420-072019FM-15+0212K1V4 V02099999999999999999N9999997N5-00505-00835101815ADDAA101000095MA1101665099135REMMET08301/12/24 20:54:01 METAR K1V4 130154Z      KT M05/M08 A3002 RMK AO1 SLP181 T10501083EQDR01      7SKY009R02      7GAS009
0176726140547422024011302546+44420-072019FM-15+0212K1V4 V02099999999999999999N9999997N5-00445-00835101745ADDAA101000095MA1101595099065MD1890149+9999REMMET08901/12/24 21:54:01 METAR K1V4 130254Z      KT M04/M08 A3000 RMK AO1 SLP174 T10441083 58014EQDR01      7SKY009R02      7GAS009
0156726140547422024011303546+44420-072019FM-15+0212K1V4 V02099999999999999999N9999997N5-00445-00835101575ADDAA101000095MA1101465098935REMMET08301/12/24 22:54:01 METAR K1V4 130354Z      KT M04/M08 A2996 RMK AO1 SLP157 T10441083EQDR01      7SKY009R02      7GAS009
0166726140547422024011304546+44420-072019FM-15+0212K1V4 V02099999999999999999N9999997N5-00395-00785101475ADDAA101000095MA1101355098835REMMET09301/12/24 23:54:02 METAR K1V4 130454Z      KT M04/M08 A2993 RMK AO1 SLP147 T10391078 400171050EQDR01      7SKY009R02      7GAS009
0603726140547422024011304596+44420-072019SOD  +0212K1V4 V020999999999999999999999999999+99999+99999999999ADDAA124000095KA1240M+00175KA2240N-00495MG1099174101324OE11249999999999997OE22249999999999997REMSOD50124 HR PRECIPITATION (IN): 0.00 24 HR MAX TEMP (F): 3524 HR MIN TEMP (F): 23AVERAGE STATION PRESSURE:29.285 MINIMUM SEA LEVEL PRESSURE:29.92 TIME OF OCCURRENCE:0022 24 HR AVG TEMP (F): 29DEPART FROM NORMAL: 12  HEATING DEGREE DAYS: 36 COOLING DEGREE DAYS:  0 LATEST DAY MAX TEMP (0700-1900 LST):35  LATEST NIGHT MIN TEMP(1900-0800 LST):28 HOURLY INCREMENTAL PRECIPITATION VALUES (IN):.00 0.00 0.00 0.00 0.00 0.00 0.00 0.00 0.00 0.00 0.00 0.00 0.00 0.00 0.00 0.00 0.00 0.00 0.00 0.00 0.00 0.00 0.00 0.00
0195726140547422024011305546+44420-072019FM-15+0212K1V4 V02099999999999999999N9999997N5-00335-00725101345ADDAA101000095MA1101225098705MD1690379+9999REMMET10801/13/24 00:54:02 METAR K1V4 130554Z      KT M03/M07 A2989 RMK AO1 PRESFR SLP134 T10331072 11033 21050 56037EQDR01      7SKY009R02      7GAS009
0156726140547422024011306546+44420-072019FM-15+0212K1V4 V02099999999999999999N9999997N5-00225-00675101215ADDAA101000095MA1101125098605REMMET08301/13/24 01:54:02 METAR K1V4 130654Z      KT M02/M07 A2986 RMK AO1 SLP121 T10221067EQDR01      7SKY009R02      7GAS009
0162726140547422024011307546+44420-072019FM-15+0212K1V4 V02099999999999999999N9999997N5+00065-00445100905ADDAA101000095MA1100815098305REMMET08901/13/24 02:54:02 METAR K1V4 130754Z      KT 01/M04 A2977 RMK AO1 PRESFR SLP090 T00061044EQDR01      7SKY009R02      7GAS009
0182726140547422024011308546+44420-072019FM-15+0212K1V4 V02099999999999999999N9999997N5+00225-00395100455ADDAA101000095MA1100375097875MD1890849+9999REMMET09501/13/24 03:54:02 METAR K1V4 130854Z      KT 02/M04 A2964 RMK AO1 PRESFR SLP045 T00221039 58084EQDR01      7SKY009R02      7GAS009
0155726140547422024011309546+44420-072019FM-15+0212K1V4 V02099999999999999999N9999997N5+00335-00335100395ADDAA101000095MA1100305097805REMMET08201/13/24 04:54:02 METAR K1V4 130954Z      KT 03/M03 A2962 RMK AO1 SLP039 T00331033EQDR01      7SKY009R02      7GAS009
0155726140547422024011310546+44420-072019FM-15+0212K1V4 V02099999999999999999N9999997N5+00335-00285100055ADDAA101000095MA1099975097475REMMET08201/13/24 05:54:02 METAR K1V4 131054Z      KT 03/M03 A2952 RMK AO1 SLP005 T00331028EQDR01      7SKY009R02      7GAS009
0187726140547422024011311546+44420-072019FM-15+0212K1V4 V02099999999999999999N9999997N5+00335-00175099845ADDAA101000095MA1099765097275MD1890619+9999REMMET10001/13/24 06:54:02 METAR K1V4 131154Z      KT 03/M02 A2946 RMK AO1 SLP984 T00331017 10033 21033 58061EQDR01      7SKY009R02      7GAS009
0161726140547422024011312546+44420-072019FM-15+0212K1V4 V02099999999999999999N9999997N5+00335-00115099585ADDAA101000595MA1099495097015REMMET08801/13/24 07:54:02 METAR K1V4 131254Z      KT 03/M01 A2938 RMK AO1 SLP958 P0002 T00331011EQDR01      7SKY009R02      7GAS009
0160726140547422024011313546+44420-072019FM-15+0212K1V4 V02099999999999999999N9999997N5+00395+00005099435ADDAA101000395MA1099325096845REMMET08701/13/24 08:54:02 METAR K1V4 131354Z      KT 04/00 A2933 RMK AO1 SLP943 P0001 T00390000EQDR01      7SKY009R02      7GAS009
0192726140547422024011314546+44420-072019FM-15+0212K1V4 V02099999999999999999N9999997N5+00565-00065099225ADDAA101000395AA203000891MA1099155096675MD1690599+9999REMMET09401/13/24 09:54:02 METAR K1V4 131454Z      KT 06/M01 A2928 RMK AO1 SLP922 60003 T00561006 56059EQDR01      7SKY009R02      7GAS009
0167726140547422024011315546+44420-072019FM-15+0212K1V4 V02099999999999999999N9999997N5+00615+00005098955ADDAA101000095MA1098885096415REMMET09401/13/24 10:54:02 METAR K1V4 131554Z      KT 06/00 A2920 RMK AO1 PRESFR SLP895 P0001 T00610000EQDR01      7SKY009R02      7GAS009
0161726140547422024011316546+44420-072019FM-15+0212K1V4 V02099999999999999999N9999997N5+00675-00065098665ADDAA101000395MA1098585096115REMMET08801/13/24 11:54:02 METAR K1V4 131654Z      KT 07/M01 A2911 RMK AO1 SLP866 P0001 T00671006EQDR01      7SKY009R02      7GAS009
0203726140547422024011317546+44420-072019FM-15+0212K1V4 V02099999999999999999N9999997N5+00675+00005098395ADDAA101000095AA206001391MA1098316095856MD1790819+9999REMMET10501/13/24 12:54:02 METAR K1V4 131754Z      KT 07/00 A2903 RMK AO1 SLP839 60005 T00670000 10067 20028 57081EQDR01      7SKY009R02      7GAS009
0160726140547422024011318546+44420-072019FM-15+0212K1V4 V02099999999999999999N9999997N5+00565+00175098376ADDAA101000395MA1098316095856REMMET08701/13/24 13:54:02 METAR K1V4 131854Z      KT 06/02 A2903 RMK AO1 SLP837 P0001 T00560017EQDR01      7SKY009R02      7GAS009
0160726140547422024011319546+44420-072019FM-15+0212K1V4 V02099999999999999999N9999997N5+00395+00285098406ADDAA101002595MA1098346095886REMMET08701/13/24 14:54:02 METAR K1V4 131954Z      KT 04/03 A2904 RMK AO1 SLP840 P0010 T00390028EQDR01      7SKY009R02      7GAS009
0204726140547422024011320546+44420-072019FM-15+0212K1V4 V02099999999999999999N9999997N5+00395+00175098565ADDAA101001895AA203004391MA1098515096045MD1390199+9999REMMET10601/13/24 15:54:02 METAR K1V4 132054Z      KT 04/02 A2909 RMK AO1 PRESRR SLP856 P0006 60017 T00390017 53019EQDR01      7SKY009R02      7GAS009
0160726140547422024011321546+44420-072019FM-15+0212K1V4 V02099999999999999999N9999997N5+00335+00115098705ADDAA101000095MA1098655096185REMMET08701/13/24 16:54:02 METAR K1V4 132154Z      KT 03/01 A2913 RMK AO1 SLP870 P0001 T00330011EQDR01      7SKY009R02      7GAS009
0160726140547422024011322546+44420-072019FM-15+0212K1V4 V02099999999999999999N9999997N5+00285+00065098825ADDAA101000395MA1098785096315REMMET08701/13/24 17:54:02 METAR K1V4 132254Z      KT 03/01 A2917 RMK AO1 SLP882 P0001 T00280006EQDR01      7SKY009R02      7GAS009
0203726140547422024011323546+44420-072019FM-15+0212K1V4 V02099999999999999999N9999997N5+00225+00065098945ADDAA101000095AA206004891MA1098885096415MD1190379+9999REMMET10501/13/24 18:54:02 METAR K1V4 132354Z      KT 02/01 A2920 RMK AO1 SLP894 60019 T00220006 10067 20022 51037EQDR01      7SKY009R02      7GAS009
0161726140547422024011400546+44420-072019FM-15+0212K1V4 V02099999999999999999N9999997N5+00175-00065099075ADDAA101000395MA1099025096545REMMET08801/13/24 19:54:01 METAR K1V4 140054Z      KT 02/M01 A2924 RMK AO1 SLP907 P0001 T00171006EQDR01      7SKY009R02      7GAS009
0155726140547422024011401546+44420-072019FM-15+0212K1V4 V02099999999999999999N9999997N5+00175-00065099185ADDAA101000095MA1099125096645REMMET08201/13/24 20:54:01 METAR K1V4 140154Z      KT 02/M01 A2927 RMK AO1 SLP918 T00171006EQDR01      7SKY009R02      7GAS009
0192726140547422024011402546+44420-072019FM-15+0212K1V4 V02099999999999999999N9999997N5+00175-00335099295ADDAA101000095AA203000391MA1099225096745MD1190349+9999REMMET09401/13/24 21:54:01 METAR K1V4 140254Z      KT 02/M03 A2930 RMK AO1 SLP929 60001 T00171033 51034EQDR01      7SKY009R02      7GAS009
0155726140547422024011403546+44420-072019FM-15+0212K1V4 V02099999999999999999N9999997N5+00065-00505099455ADDAA101000095MA1099395096915REMMET08201/13/24 22:54:02 METAR K1V4 140354Z      KT 01/M05 A2935 RMK AO1 SLP945 T00061050EQDR01      7SKY009R02      7GAS009
0165726140547422024011404546+44420-072019FM-15+0212K1V4 V02099999999999999999N9999997N5+00005-00565099485ADDAA101000095MA1099425096945REMMET09201/13/24 23:54:02 METAR K1V4 140454Z      KT 00/M06 A2936 RMK AO1 SLP948 T00001056 400671039EQDR01      7SKY009R02      7GAS009
0622726140547422024011404596+44420-072019SOD  +0212K1V4 V020999999999999999999999999999+99999+99999999999ADDAA124006496KA1240M+00675KA2240N-00385MG1097044098344OE11249999999999997OE22249999999999997REMSOD50124 HR PRECIPITATION (IN): 0.25 24 HR MAX TEMP (F): 4424 HR MIN TEMP (F): 25AVERAGE STATION PRESSURE:28.655 MINIMUM SEA LEVEL PRESSURE:29.04 TIME OF OCCURRENCE:1414 24 HR AVG TEMP (F): 35DEPART FROM NORMAL: 18  HEATING DEGREE DAYS: 30 COOLING DEGREE DAYS:  0 LATEST DAY MAX TEMP (0700-1900 LST):44  LATEST NIGHT MIN TEMP(1900-0800 LST):23 HOURLY INCREMENTAL PRECIPITATION VALUES (IN):.00 0.00 0.00 0.00 0.00 0.00 0.00 0.02 0.01 0.01 0.00 0.01 0.00 0.01 0.10 0.07 0.00 0.01 0.00 0.01 0.00 0.00 0.00 0.00EQDR01  0.257AAP092
0204726140547422024011405546+44420-072019FM-15+0212K1V4 V02099999999999999999N9999997N5+00005-00725099595ADDAA101000095AA206000391MA1099535097045MD1190299+9999REMMET10601/14/24 00:54:02 METAR K1V4 140554Z      KT 00/M07 A2939 RMK AO1 SLP959 60001 T00001072 10022 20000 51029EQDR01      7SKY009R02      7GAS009
0162726140547422024011406546+44420-072019FM-15+0212K1V4 V02099999999999999999N9999997N5+00005-00785099765ADDAA101000095MA1099705097215REMMET08901/14/24 01:54:02 METAR K1V4 140654Z      KT 00/M08 A2944 RMK AO1 PRESRR SLP976 T00001078EQDR01      7SKY009R02      7GAS009
0155726140547422024011407546+44420-072019FM-15+0212K1V4 V02099999999999999999N9999997N5+00005-00785099885ADDAA101000095MA1099805097315REMMET08201/14/24 02:54:02 METAR K1V4 140754Z      KT 00/M08 A2947 RMK AO1 SLP988 T00001078EQDR01      7SKY009R02      7GAS009
0176726140547422024011408546+44420-072019FM-15+0212K1V4 V02099999999999999999N9999997N5-00065-00785099985ADDAA101000095MA1099905097405MD1190369+9999REMMET08901/14/24 03:54:02 METAR K1V4 140854Z      KT M01/M08 A2950 RMK AO1 SLP998 T10061078 51036EQDR01      7SKY009R02      7GAS009
0155726140547422024011409546+44420-072019FM-15+0212K1V4 V02099999999999999999N9999997N5+00005-00835100055ADDAA101000095MA1099975097475REMMET08201/14/24 04:54:02 METAR K1V4 140954Z      KT 00/M08 A2952 RMK AO1 SLP005 T00001083EQDR01      7SKY009R02      7GAS009
0155726140547422024011410546+44420-072019FM-15+0212K1V4 V02099999999999999999N9999997N5+00005-00895100135ADDAA101000095MA1100075097575REMMET08201/14/24 05:54:02 METAR K1V4 141054Z      KT 00/M09 A2955 RMK AO1 SLP013 T00001089EQDR01      7SKY009R02      7GAS009
0204726140547422024011411546+44420-072019FM-15+0212K1V4 V02099999999999999999N9999997N5+00005-00895100175ADDAA101000095AA224006491MA1100105097605MD1190189+9999REMMET10601/14/24 06:54:02 METAR K1V4 141154Z      KT 00/M09 A2956 RMK AO1 SLP017 70025 T00001089 10000 21006 51018EQDR01      7SKY009R02      7GAS009
0156726140547422024011412546+44420-072019FM-15+0212K1V4 V02099999999999999999N9999997N5-00065-00835100205ADDAA101000095MA1100105097605REMMET08301/14/24 07:54:02 METAR K1V4 141254Z      KT M01/M08 A2956 RMK AO1 SLP020 T10061083EQDR01      7SKY009R02      7GAS009
0155726140547422024011413546+44420-072019FM-15+0212K1V4 V02099999999999999999N9999997N5+00005-00835100255ADDAA101000095MA1100175097675REMMET08201/14/24 08:54:02 METAR K1V4 141354Z      KT 00/M08 A2958 RMK AO1 SLP025 T00001083EQDR01      7SKY009R02      7GAS009
0175726140547422024011414546+44420-072019FM-15+0212K1V4 V02099999999999999999N9999997N5+00005-00675100245ADDAA101000095MA1100175097675MD1090069+9999REMMET08801/14/24 09:54:02 METAR K1V4 141454Z      KT 00/M07 A2958 RMK AO1 SLP024 T00001067 50006EQDR01      7SKY009R02      7GAS009
0155726140547422024011415546+44420-072019FM-15+0212K1V4 V02099999999999999999N9999997N5+00065-00945100215ADDAA101000095MA1100145097645REMMET08201/14/24 10:54:02 METAR K1V4 141554Z      KT 01/M09 A2957 RMK AO1 SLP021 T00061094EQDR01      7SKY009R02      7GAS009
0156726140547422024011416546+44420-072019FM-15+0212K1V4 V02099999999999999999N9999997N5-00065-00835100205ADDAA101000095MA1100105097605REMMET08301/14/24 11:54:02 METAR K1V4 141654Z      KT M01/M08 A2956 RMK AO1 SLP020 T10061083EQDR01      7SKY009R02      7GAS009
0188726140547422024011417546+44420-072019FM-15+0212K1V4 V02099999999999999999N9999997N5-00065-00675100165ADDAA101000095MA1100075097575MD1890099+9999REMMET10101/14/24 12:54:02 METAR K1V4 141754Z      KT M01/M07 A2955 RMK AO1 SLP016 T10061067 10006 21006 58009EQDR01      7SKY009R02      7GAS009
0161726140547422024011418546+44420-072019FM-15+0212K1V4 V02099999999999999999N9999997N5+00005-00675100075ADDAA101000395MA1099975097475REMMET08801/14/24 13:54:02 METAR K1V4 141854Z      KT 00/M07 A2952 RMK AO1 SLP007 P0001 T00001067EQDR01      7SKY009R02      7GAS009
0155726140547422024011419546+44420-072019FM-15+0212K1V4 V02099999999999999999N9999997N5+00065-00835100085ADDAA101000095MA1100005097505REMMET08201/14/24 14:54:02 METAR K1V4 141954Z      KT 01/M08 A2953 RMK AO1 SLP008 T00061083EQDR01      7SKY009R02      7GAS009
0199726140547422024011420546+44420-072019FM-15+0212K1V4 V02099999999999999999N9999997N5-00285-00675100445ADDAA101000895AA203001091MA1100345097845MD1390259+9999REMMET10101/14/24 15:54:02 METAR K1V4 142054Z      KT M03/M07 A2963 RMK AO1 SLP044 P0003 60004 T10281067 53025EQDR01      7SKY009R02      7GAS009
0156726140547422024011421546+44420-072019FM-15+0212K1V4 V02099999999999999999N9999997N5-00335-00835100585ADDAA101000095MA1100475097975REMMET08301/14/24 16:54:02 METAR K1V4 142154Z      KT M03/M08 A2967 RMK AO1 SLP058 T10331083EQDR01      7SKY009R02      7GAS009
0156726140547422024011422546+44420-072019FM-15+0212K1V4 V02099999999999999999N9999997N5-00395-01065100765ADDAA101000095MA1100645098135REMMET08301/14/24 17:54:02 METAR K1V4 142254Z      KT M04/M11 A2972 RMK AO1 SLP076 T10391106EQDR01      7SKY009R02      7GAS009
0205726140547422024011423546+44420-072019FM-15+0212K1V4 V02099999999999999999N9999997N5-00395-01175100875ADDAA101000095AA206001091MA1100755098235MD1190429+9999REMMET10701/14/24 18:54:02 METAR K1V4 142354Z      KT M04/M12 A2975 RMK AO1 SLP087 60004 T10391117 10011 21044 51042EQDR01      7SKY009R02      7GAS009
0156726140547422024011500546+44420-072019FM-15+0212K1V4 V02099999999999999999N9999997N5-00395-01175100985ADDAA101000095MA1100855098335REMMET08301/14/24 19:54:01 METAR K1V4 150054Z      KT M04/M12 A2978 RMK AO1 SLP098 T10391117EQDR01      7SKY009R02      7GAS009
0156726140547422024011501546+44420-072019FM-15+0212K1V4 V02099999999999999999N9999997N5-00445-01175101095ADDAA101000095MA1100985098475REMMET08301/14/24 20:54:01 METAR K1V4 150154Z      KT M04/M12 A2982 RMK AO1 SLP109 T10441117EQDR01      7SKY009R02      7GAS009
0176726140547422024011502546+44420-072019FM-15+0212K1V4 V02099999999999999999N9999997N5-00505-01005101195ADDAA101000095MA1101055098535MD1190309+9999REMMET08901/14/24 21:54:01 METAR K1V4 150254Z      KT M05/M10 A2984 RMK AO1 SLP119 T10501100 51030EQDR01      7SKY009R02      7GAS009
0162726140547422024011503546+44420-072019FM-15+0212K1V4 V02099999999999999999N9999997N5-00565-00895101295ADDAA101000395MA1101155098635REMMET08901/14/24 22:54:02 METAR K1V4 150354Z      KT M06/M09 A2987 RMK AO1 SLP129 P0001 T10561089EQDR01      7SKY009R02      7GAS009
0172726140547422024011504546+44420-072019FM-15+0212K1V4 V02099999999999999999N9999997N5-00565-00895101395ADDAA101000395MA1101255098735REMMET09901/14/24 23:54:02 METAR K1V4 150454Z      KT M06/M09 A2990 RMK AO1 SLP139 P0001 T10561089 400111056EQDR01      7SKY009R02      7GAS009
0622726140547422024011504596+44420-072019SOD  +0212K1V4 V020999999999999999999999999999+99999+99999999999ADDAA124001596KA1240M+00115KA2240N-00555MG1097604099494OE11249999999999997OE22249999999999997REMSOD50124 HR PRECIPITATION (IN): 0.06 24 HR MAX TEMP (F): 3424 HR MIN TEMP (F): 22AVERAGE STATION PRESSURE:28.820 MINIMUM SEA LEVEL PRESSURE:29.38 TIME OF OCCURRENCE:0002 24 HR AVG TEMP (F): 28DEPART FROM NORMAL: 11  HEATING DEGREE DAYS: 37 COOLING DEGREE DAYS:  0 LATEST DAY MAX TEMP (0700-1900 LST):34  LATEST NIGHT MIN TEMP(1900-0800 LST):31 HOURLY INCREMENTAL PRECIPITATION VALUES (IN):.00 0.00 0.00 0.00 0.00 0.00 0.00 0.00 0.00 0.00 0.00 0.00 0.00 0.01 0.00 0.03 0.00 0.00 0.00 0.00 0.00 0.00 0.01 0.01EQDR01  0.067AAP092
0205726140547422024011505546+44420-072019FM-15+0212K1V4 V02099999999999999999N9999997N5-00565-00945101465ADDAA101000095AA206000591MA1101325098805MD1190269+9999REMMET10701/15/24 00:54:02 METAR K1V4 150554Z      KT M06/M09 A2992 RMK AO1 SLP146 60002 T10561094 11033 21056 51026EQDR01      7SKY009R02      7GAS009
0156726140547422024011506546+44420-072019FM-15+0212K1V4 V02099999999999999999N9999997N5-00565-01005101545ADDAA101000095MA1101395098865REMMET08301/15/24 01:54:02 METAR K1V4 150654Z      KT M06/M10 A2994 RMK AO1 SLP154 T10561100EQDR01      7SKY009R02      7GAS009
0156726140547422024011507546+44420-072019FM-15+0212K1V4 V02099999999999999999N9999997N5-00565-01115101615ADDAA101000095MA1101495098965REMMET08301/15/24 02:54:02 METAR K1V4 150754Z      KT M06/M11 A2997 RMK AO1 SLP161 T10561111EQDR01      7SKY009R02      7GAS009
0176726140547422024011508546+44420-072019FM-15+0212K1V4 V02099999999999999999N9999997N5-00615-01115101705ADDAA101000095MA1101565099035MD1190229+9999REMMET08901/15/24 03:54:02 METAR K1V4 150854Z      KT M06/M11 A2999 RMK AO1 SLP170 T10611111 51022EQDR01      7SKY009R02      7GAS009
0156726140547422024011509546+44420-072019FM-15+0212K1V4 V02099999999999999999N9999997N5-00675-01225101775ADDAA101000095MA1101635099105REMMET08301/15/24 04:54:02 METAR K1V4 150954Z      KT M07/M12 A3001 RMK AO1 SLP177 T10671122EQDR01      7SKY009R02      7GAS009
0156726140547422024011510546+44420-072019FM-15+0212K1V4 V02099999999999999999N9999997N5-00725-01285101865ADDAA101000095MA1101695099165REMMET08301/15/24 05:54:02 METAR K1V4 151054Z      KT M07/M13 A3003 RMK AO1 SLP186 T10721128EQDR01      7SKY009R02      7GAS009
0205726140547422024011511546+44420-072019FM-15+0212K1V4 V02099999999999999999N9999997N5-00835-01335101905ADDAA101000095AA224001591MA1101735099205MD1190189+9999REMMET10701/15/24 06:54:02 METAR K1V4 151154Z      KT M08/M13 A3004 RMK AO1 SLP190 70006 T10831133 11056 21083 51018EQDR01      7SKY009R02      7GAS009
0156726140547422024011512546+44420-072019FM-15+0212K1V4 V02099999999999999999N9999997N5-00945-01335102025ADDAA101000095MA1101835099305REMMET08301/15/24 07:54:02 METAR K1V4 151254Z      KT M09/M13 A3007 RMK AO1 SLP202 T10941133EQDR01      7SKY009R02      7GAS009
0156726140547422024011513546+44420-072019FM-15+0212K1V4 V02099999999999999999N9999997N5-00785-01395102055ADDAA101000095MA1101905099365REMMET08301/15/24 08:54:02 METAR K1V4 151354Z      KT M08/M14 A3009 RMK AO1 SLP205 T10781139EQDR01      7SKY009R02      7GAS009
0176726140547422024011514546+44420-072019FM-15+0212K1V4 V02099999999999999999N9999997N5-00675-01335102095ADDAA101000095MA1101935099405MD1190189+9999REMMET08901/15/24 09:54:02 METAR K1V4 151454Z      KT M07/M13 A3010 RMK AO1 SLP209 T10671133 51018EQDR01      7SKY009R02      7GAS009
0156726140547422024011515546+44420-072019FM-15+0212K1V4 V02099999999999999999N9999997N5-00505-01285102035ADDAA101000095MA1101865099335REMMET08301/15/24 10:54:02 METAR K1V4 151554Z      KT M05/M13 A3008 RMK AO1 SLP203 T10501128EQDR01      7SKY009R02      7GAS009
0156726140547422024011516546+44420-072019FM-15+0212K1V4 V02099999999999999999N9999997N5-00395-01225101965ADDAA101000095MA1101835099305REMMET08301/15/24 11:54:02 METAR K1V4 151654Z      KT M04/M12 A3007 RMK AO1 SLP196 T10391122EQDR01      7SKY009R02      7GAS009
0188726140547422024011517546+44420-072019FM-15+0212K1V4 V02099999999999999999N9999997N5-00445-01335101935ADDAA101000095MA1101765099235MD1690149+9999REMMET10101/15/24 12:54:02 METAR K1V4 151754Z      KT M04/M13 A3005 RMK AO1 SLP193 T10441133 11033 21094 56014EQDR01      7SKY009R02      7GAS009
