0210740001547932025010100537+41199-074626FM-15+0128KFWN V0200505N00265013725MN0160935N5+00835+00285100535ADDAA101000095GA1085+013725999GD14991+0137259GE19AGL   +99999+99999GF199999999999013721999999MA1100515098995REMMET09312/31/24 19:53:03 METAR KFWN 010053Z 05005KT 10SM OVC045 08/03 A2968 RMK AO2 SLP053 T00830028
0330740001547932025010101407+41199-074626FM-16+0128KFWN V0200605N00365007325MN0160935N5+00835+00285999999ADDAA101000021AU110020015AW1615GA1075+007325999GA2075+014335999GA3085+024385999GD13991+0073259GD23991+0143359GD34991+0243859GE19AGL   +99999+99999GF199999999999007321999999MA1100375098865MW1615REMMET12812/31/24 20:40:03 SPECI KFWN 010140Z 06007KT 10SM -RA BKN024 BKN047 OVC080 08/03 A2964 RMK AO2 LTG DSNT SW RAB39 P0000 T00830028
0266740001547932025010101516+41199-074626FM-16+0128KFWN V0200305N00365014025MN0160935N5+00805+00305999999ADDAU110020015AW1615GA1045+007325999GA2075+014025999GA3085+018295999GD12991+0073259GD23991+0140259GD34991+0182959MA1100375098865MW1615REMMET12312/31/24 20:51:03 SPECI KFWN 010151Z 03007KT 10SM -RA SCT024 BKN046 OVC060 08/03 A2964 RMK AO2 LTG DSNT SW RAB39 P0000 FIBI
0337740001547932025010101537+41199-074626FM-15+0128KFWN V0200305N00315014025MN0160935N5+00785+00285100385ADDAA101000595AU110020015AW1615GA1045+007325999GA2075+014025999GA3085+018295999GD12991+0073259GD23991+0140259GD34991+0182959GE19AGL   +99999+99999GF199999999999007321999999MA1100375098865MW1615REMMET13512/31/24 20:53:03 METAR KFWN 010153Z 03006KT 10SM -RA SCT024 BKN046 OVC060 08/03 A2964 RMK AO2 LTG DSNT SW RAB39 SLP038 P0000 T00780028
0373740001547932025010102537+41199-074626FM-15+0128KFWN V0200305N00365012195MN0128755N5+00675+00395100215ADDAA101004396AA203004192AU120020015AW1625GA1025+005795999GA2075+012195999GA3085+015245999GD11991+0057959GD23991+0121959GD34991+0152459GE19AGL   +99999+99999GF199999999999005791999999MA1100205098695MD1890429+9999MW1655REMMET12712/31/24 21:53:03 METAR KFWN 010253Z 03007KT 8SM RA FEW019 BKN040 OVC050 07/04 A2959 RMK AO2 SLP021 P0016 60016 T00670039 58042EQDQ01  00408PRCP03
0341740001547932025010103027+41199-074626FM-16+0128KFWN V0200305N00515008535MN0064375N5+00615+00395999999ADDAA101001031AU120020015AU200001015AW1105AW2625GA1025+005795999GA2075+008535999GA3085+015245999GD11991+0057959GD23991+0085359GD34991+0152459GE19AGL   +99999+99999GF199999999999005791999999MA1100175098655MW1655OC100775REMMET11412/31/24 22:02:03 SPECI KFWN 010302Z 03010G15KT 4SM RA BR FEW019 BKN028 OVC050 06/04 A2958 RMK AO2 P0004 T00610039
0286740001547932025010103367+41199-074626FM-16+0128KFWN V0200605N00265003665MN0160935N5+00615+00395999999ADDAA101003031AU110020015AW1615GA1075+003665999GA2085+005185999GD13991+0036659GD24991+0051859GE19AGL   +99999+99999GF199999999999003661999999MA1100075098555MW1615REMMET11512/31/24 22:36:03 SPECI KFWN 010336Z 06005KT 10SM -RA BKN012 OVC017 06/04 A2955 RMK AO2 LTG DSNT SE P0012 T00610039
0272740001547932025010103537+41199-074626FM-15+0128KFWN V0200205N00775003665MN0160935N5+00565+00395099915ADDAA101002595AU110020015AW1615GA1085+003665999GD14991+0036659GE19AGL   +99999+99999GF199999999999003661999999MA1099905098395MW1615OC101085REMMET12412/31/24 22:53:03 METAR KFWN 010353Z 02015G21KT 10SM -RA OVC012 06/04 A2950 RMK AO2 LTG DSNT E PRESFR SLP991 P0013 T00560039
0278740001547932025010104197+41199-074626FM-16+0128KFWN V0200205N00415002745MN0160935N5+00615+00445999999ADDAA101000021GA1075+002745999GA2085+004275999GD13991+0027451GD24991+0042759GE19AGL   +99999+99999GF199999999999002741999999MA1099935098425REMMET13012/31/24 23:19:03 SPECI KFWN 010419Z 02008KT 10SM BKN009 OVC014 06/04 A2951 RMK AO2 LTG DSNT E RAE0354 CIG 008V012 P0000 T00610044
0217740001547932025010104367+41199-074626FM-16+0128KFWN V0200105N00415003055MN0160935N5+00615+00445999999ADDAA101000021GA1085+003055999GD14991+0030559GE19AGL   +99999+99999GF199999999999003051999999MA1099865098355REMMET10012/31/24 23:36:03 SPECI KFWN 010436Z 01008KT 10SM OVC010 06/04 A2949 RMK AO2 RAE0354 P0000 T00610044
0283740001547932025010104537+41199-074626FM-15+0128KFWN V0203605N00465003055MN0160935N5+00615+00445099895ADDAA101000095GA1085+003055999GD14991+0030551GE19AGL   +99999+99999GF199999999999003051999999KA1240M+01221KA2240N-00221MA1099905098395OC100775REMMET13212/31/24 23:53:03 METAR KFWN 010453Z 36009G15KT 10SM OVC010 06/04 A2950 RMK AO2 RAE0354 CIG 007V013 SLP989 P0000 T00610044 401221022
0910740001547932025010104596+41199-074626SOD  +0128KFWN V020999999999999999999999999999+99999+99999999999ADDAA124007495AT1AU16RA  5AT2AU13BR  5KA1240M+01225KA2240N-00215MG1099424099864OE11240107301022535OE22240080502022545OE33240018899999995REMSOD73024 HR PRECIPITATION (IN):0.29  24 HR MAX TEMP (F):54 24 HR MAX TEMP TIME (LST):1438 24 HR MIN TEMP (F):28 24 HR MIN TEMP TIME (LST):0800 AVERAGE STATION PRESSURE:29.360 MINIMUM SEA LEVEL PRESSURE:29.49 TIME OF OCCURRENCE:2359 PEAK WIND SPEED (MPH):24  PEAK WIND DIR (DEG):10  PEAK WIND TIME (LST):2253  FASTEST 2MIN SPEED (MPH):18 FASTEST 2MIN DIR (DEG):20  FASTEST 2MIN TIME (LST):2254 AVERAGE WIND SPEED (MPH):4.2  24 HR AVG TEMP (F):41 HEATING DEGREE DAYS:24  COOLING DEGREE DAYS:0   LATEST DAY MAX TEMP (0700-1900 LST):54  LATEST NIGHT MIN TEMP(1900-0800 LST):28 HOURLY INCREMENTAL PRECIPITATION VALUES (IN):.00 0.00 0.00 0.00 0.00 0.00 0.00 0.00 0.00 0.00 0.00 0.00 0.00 0.00 0.00 0.00 0.00 0.00 0.00 0.00 0.02 0.17 0.10 0.00EQDR01     N7GJS072R02     N7GKS075
1260740001547932025010104596+41199-074626SOM  +0128KFWN V020999999999999999999999999999+99999+99999999999ADDAB10098096AD10039691011999999996AE1155105015015AH1005002591114045AH2010003391117285AH3015004391117285AH4020005191117305AH5030005891117325AH6045008191117325AI1060009491117325AI2080010991117425AI3100012291118125AI4120013591118225AI5150014791118455AI6180015591118575KB1744N-05285KB2744M+04895KB3744A-00175KC1N9-02002399995KC2M9+01661199995KD1744H10285KD2744C00005KE1065005275015MH1100584102174MK1104881410135099531117045REMSOM796PCP MTOT:3.86 PCP GT 24HRS:1.56 DATE(S):10-11 DAYS W/PCP >=.01:15 DAYS W/PCP >=.10:10 DAYS W/ PCP >=.50:1 DAYS W/PCP >=1.00:1 MSDP AMTS W/DATE-TIME TAGS:MIN:5 0.10  11/1404 MIN:10 0.13  11/1728 MIN:15 0.17  11/1728 MIN:20 0.20  11/1730 MIN:30 0.23  11/1732 MIN:45 0.32  11/1732 MIN:60 0.37  11/1732 MIN:80 0.43  11/1742 MIN:100 0.48  11/1812 MIN:120 0.53  11/1822 MIN:150 0.58  11/1845 MIN:180 0.61  11/1857 AVG DLY MIN:22.5  AVG DLY MAX:40.8  AVG MLY TMP:31.7  MIN TMP:-4 DATE(S):23 MAX TMP:62  DATE(S):11 DAYS MAX <=32:6 DAYS MAX >=90:0  DAYS MIN <=32:27 DAYS MIN  <=0:1  AVG STP:29.700 LWST SLP:29.39 DATE/TIME:111704 HGST SLP:30.97 DATE/TIME:141013 HDD MTH TOT:1028 DEP NORM:-2553 SEASON(JUL 1-JUN 30):2009 DEP NORM:-25536 CDD MTH TOT:0 DEP NORM:-2553 SEASON(JAN 1-DEC 31):866 DEP NORM:-25536EQDR01  3.867ABP070R02  1.567ADP081
0330740001547932025010105537+41199-074626FM-15+0128KFWN V0200105N00155003055MN0112655N5+00615+00445099835ADDAA101000595AA206007991GA1085+003055999GD14991+0030551GE19AGL   +99999+99999GF199999999999003051999999KA1060M+00831KA2060N+00561MA1099835098325MD1690369+9999REMMET14301/01/25 00:53:02 METAR KFWN 010553Z 01003KT 7SM OVC010 06/04 A2948 RMK AO2 RAB05E45 CIG 006V012 SLP983 P0002 60031 T00610044 10083 20056 56036EQDQ01  00788PRCP06
0223740001547932025010106067+41199-074626FM-16+0128KFWN V0200405N00155002445MN0080475N5+00565+00445999999ADDAU100001015AW1105GA1085+002445999GD14991+0024451GE19AGL   +99999+99999GF199999999999002441999999MA1099835098325REMMET10001/01/25 01:06:02 SPECI KFWN 010606Z 04003KT 5SM BR OVC008 06/04 A2948 RMK AO2 CIG 006V011 T00560044
0261740001547932025010106197+41199-074626FM-16+0128KFWN V0200205N00155001835MN0064375N5+00565+00445999999ADDAA101000231AU110020015AU200001015AW1105AW2615GA1085+001835999GD14991+0018359GE19AGL   +99999+99999GF199999999999001831999999MA1099835098325MW1615REMMET10401/01/25 01:19:02 SPECI KFWN 010619Z 02003KT 4SM -RA BR OVC006 06/04 A2948 RMK AO2 RAB10 P0001 T00560044
0237740001547932025010106387+41199-074626FM-16+0128KFWN V0200105N00155002135MN0048285N5+00565+00445999999ADDAA101000231AU100001015AW1105GA1085+002135999GD14991+0021359GE19AGL   +99999+99999GF199999999999002131999999MA1099835098325REMMET10301/01/25 01:38:02 SPECI KFWN 010638Z 01003KT 3SM BR OVC007 06/04 A2948 RMK AO2 RAB10E21 P0001 T00560044
0244740001547932025010106537+41199-074626FM-15+0128KFWN V0209999C00005002135MN0064375N5+00565+00445099835ADDAA101000595AU100001015AW1105GA1085+002135999GD14991+0021359GE19AGL   +99999+99999GF199999999999002131999999MA1099835098325REMMET11001/01/25 01:53:02 METAR KFWN 010653Z 00000KT 4SM BR OVC007 06/04 A2948 RMK AO2 RAB10E21 SLP983 P0001 T00560044
0216740001547932025010107537+41199-074626FM-15+0128KFWN V0209999C00005002745MN0160935N5+00565+00445099835ADDAA101000095GA1085+002745999GD14991+0027459GE19AGL   +99999+99999GF199999999999002741999999MA1099835098325REMMET09901/01/25 02:53:02 METAR KFWN 010753Z 00000KT 10SM OVC009 06/04 A2948 RMK AO2 SLP983 P0001 T00560044
0246740001547932025010108537+41199-074626FM-15+0128KFWN V0202205N00155002445MN0112655N5+00565+00445099875ADDAA101000095AA203000591GA1085+002445999GD14991+0024459GE19AGL   +99999+99999GF199999999999002441999999MA1099865098355MD1390049+9999REMMET10401/01/25 03:53:02 METAR KFWN 010853Z 22003KT 7SM OVC008 06/04 A2949 RMK AO2 SLP987 60002 T00560044 53004
0229740001547932025010109537+41199-074626FM-15+0128KFWN V0209999C00005002445MN0096565N5+00565+00505099865ADDAA101000095AU100001015AW1105GA1085+002445999GD14991+0024459GE19AGL   +99999+99999GF199999999999002441999999MA1099865098355REMMET09501/01/25 04:53:02 METAR KFWN 010953Z 00000KT 6SM BR OVC008 06/05 A2949 RMK AO2 SLP986 T00560050
0229740001547932025010110227+41199-074626FM-16+0128KFWN V0209999C00005005795MN0128755N5+00565+00505999999ADDGA1045+002745999GA2085+005795999GD12991+0027459GD24991+0057959GE19AGL   +99999+99999GF199999999999002741999999MA1099865098355REMMET09201/01/25 05:22:02 SPECI KFWN 011022Z 00000KT 8SM SCT009 OVC019 06/05 A2949 RMK AO2 T00560050
0247740001547932025010110537+41199-074626FM-15+0128KFWN V0202005N00155005795MN0144845N5+00565+00505099905ADDAA101000095GA1025+003055999GA2085+005795999GD11991+0030559GD24991+0057959GE19AGL   +99999+99999GF199999999999003051999999MA1099905098395REMMET09901/01/25 05:53:02 METAR KFWN 011053Z 20003KT 9SM FEW010 OVC019 06/05 A2950 RMK AO2 SLP990 T00560050
0229740001547932025010111167+41199-074626FM-16+0128KFWN V0209999C00005009755MN0144845N5+00565+00445999999ADDGA1045+005795999GA2085+009755999GD12991+0057959GD24991+0097559GE19AGL   +99999+99999GF199999999999005791999999MA1099865098355REMMET09201/01/25 06:16:02 SPECI KFWN 011116Z 00000KT 9SM SCT019 OVC032 06/04 A2949 RMK AO2 T00560044
0219740001547932025010111507+41199-074626FM-16+0128KFWN V0209999C00005004575MN0128755N5+00605+00405999999ADDGA1075+004575999GA2085+010975999GD13991+0045759GD24991+0109759GE19AGL   +99999+99999GF199999999999004571999999MA1099905098395REMMET08201/01/25 06:50:02 SPECI KFWN 011150Z 00000KT 8SM BKN015 OVC036 06/04 A2950 RMK AO2
0358740001547932025010111537+41199-074626FM-15+0128KFWN V0209999C00005004575MN0144845N5+00565+00445099895ADDAA101000095AA206000591AA324008491GA1075+004575999GA2085+010975999GD13991+0045759GD24991+0109759GE19AGL   +99999+99999GF199999999999004571999999KA1060M+00611KA2060N+00501MA1099905098395MD1090029+9999REMMET12901/01/25 06:53:02 METAR KFWN 011153Z 00000KT 9SM BKN015 OVC036 06/04 A2950 RMK AO2 SLP989 60002 70033 T00560044 10061 20050 50002EQDQ01  00838PRCP24
0287740001547932025010112167+41199-074626FM-16+0128KFWN V0209999C00005013115MN0096565N5+00505+00445999999ADDAU100001015AW1105GA1045+004575999GA2075+013115999GA3085+018295999GD12991+0045759GD23991+0131159GD34991+0182959GE19AGL   +99999+99999GF199999999999004571999999MA1099865098355REMMET10201/01/25 07:16:02 SPECI KFWN 011216Z 00000KT 6SM BR SCT015 BKN043 OVC060 05/04 A2949 RMK AO2 T00500044
0287740001547932025010112367+41199-074626FM-16+0128KFWN V0209999C00005012805MN0096565N5+00505+00445999999ADDAU100001015AW1105GA1045+001525999GA2075+012805999GA3085+018295999GD12991+0015259GD23991+0128059GD34991+0182959GE19AGL   +99999+99999GF199999999999001521999999MA1099865098355REMMET10201/01/25 07:36:02 SPECI KFWN 011236Z 00000KT 6SM BR SCT005 BKN042 OVC060 05/04 A2949 RMK AO2 T00500044
0229740001547932025010112467+41199-074626FM-16+0128KFWN V0202205N00155001525MN0112655N5+00505+00445999999ADDGA1075+001525999GA2085+012805999GD13991+0015259GD24991+0128059GE19AGL   +99999+99999GF199999999999001521999999MA1099865098355REMMET09201/01/25 07:46:02 SPECI KFWN 011246Z 22003KT 7SM BKN005 OVC042 05/04 A2949 RMK AO2 T00500044
0176740001547932025010112516+41199-074626FM-16+0128KFWN V0202205N00215001225MN0128755N5+00605+00405999999ADDGA1075+001225999GA2085+012195999GD13991+0012259GD24991+0121959MA1099865098355REMMET08701/01/25 07:51:02 SPECI KFWN 011251Z 22004KT 8SM BKN004 OVC040 06/04 A2949 RMK AO2 FIBI
0247740001547932025010112537+41199-074626FM-15+0128KFWN V0209999V00215001225MN0128755N5+00565+00445099885ADDAA101000095GA1075+001225999GA2085+012195999GD13991+0012259GD24991+0121959GE19AGL   +99999+99999GF199999999999001221999999MA1099865098355REMMET09901/01/25 07:53:02 METAR KFWN 011253Z VRB04KT 8SM BKN004 OVC040 06/04 A2949 RMK AO2 SLP988 T00560044
0267740001547932025010113187+41199-074626FM-16+0128KFWN V0202105N00215012195MN0144845N5+00565+00505999999ADDGA1045+001525999GA2045+009145999GA3085+012195999GD12991+0015259GD22991+0091459GD34991+0121959GE19AGL   +99999+99999GF199999999999001521999999MA1099905098395REMMET09901/01/25 08:18:02 SPECI KFWN 011318Z 21004KT 9SM SCT005 SCT030 OVC040 06/05 A2950 RMK AO2 T00560050
0248740001547932025010113537+41199-074626FM-15+0128KFWN V0202105N00365014025MN0160935N5+00675+00505099905ADDAA101000095GA1025+007925999GA2085+014025999GD11991+0079259GD24991+0140259GE19AGL   +99999+99999GF199999999999007921999999MA1099905098395REMMET10001/01/25 08:53:02 METAR KFWN 011353Z 21007KT 10SM FEW026 OVC046 07/05 A2950 RMK AO2 SLP990 T00670050
0230740001547932025010114117+41199-074626FM-16+0128KFWN V0202205N00265007925MN0160935N5+00675+00565999999ADDGA1075+007925999GA2085+014635999GD13991+0079259GD24991+0146359GE19AGL   +99999+99999GF199999999999007921999999MA1099905098395REMMET09301/01/25 09:11:02 SPECI KFWN 011411Z 22005KT 10SM BKN026 OVC048 07/06 A2950 RMK AO2 T00670056
0268740001547932025010114367+41199-074626FM-16+0128KFWN V0202205N00265007625MN0160935N5+00725+00615999999ADDGA1025+002135999GA2075+007625999GA3075+015245999GD11991+0021359GD23991+0076259GD33991+0152459GE19AGL   +99999+99999GF199999999999002131999999MA1099905098395REMMET10001/01/25 09:36:02 SPECI KFWN 011436Z 22005KT 10SM FEW007 BKN025 BKN050 07/06 A2950 RMK AO2 T00720061
0230740001547932025010114537+41199-074626FM-15+0128KFWN V0202205N00265007625MN0160935N5+00835+00675099935ADDAA101000095GA1085+007625999GD14991+0076259GE19AGL   +99999+99999GF199999999999007621999999MA1099935098425MD1390059+9999REMMET09901/01/25 09:53:02 METAR KFWN 011453Z 22005KT 10SM OVC025 08/07 A2951 RMK AO2 SLP993 T00830067 53005
0210740001547932025010115537+41199-074626FM-15+0128KFWN V0202405N00315007925MN0160935N5+00945+00615099965ADDAA101000095GA1085+007925999GD14991+0079259GE19AGL   +99999+99999GF199999999999007921999999MA1099975098455REMMET09301/01/25 10:53:02 METAR KFWN 011553Z 24006KT 10SM OVC026 09/06 A2952 RMK AO2 SLP996 T00940061
0248740001547932025010116537+41199-074626FM-15+0128KFWN V0202405V00365007325MN0160935N5+00835+00395099985ADDAA101000095GA1075+007325999GA2085+010065999GD13991+0073259GD24991+0100659GE19AGL   +99999+99999GF199999999999007321999999MA1099975098455REMMET10001/01/25 11:53:02 METAR KFWN 011653Z 24007KT 10SM BKN024 OVC033 08/04 A2952 RMK AO2 SLP998 T00830039
0268740001547932025010117267+41199-074626FM-16+0128KFWN V0202305N00265009755MN0160935N5+00785+00335999999ADDGA1045+007925999GA2075+009755999GA3085+021345999GD12991+0079259GD23991+0097559GD34991+0213459GE19AGL   +99999+99999GF199999999999007921999999MA1099975098455REMMET10001/01/25 12:26:02 SPECI KFWN 011726Z 23005KT 10SM SCT026 BKN032 OVC070 08/03 A2952 RMK AO2 T00780033
0268740001547932025010117357+41199-074626FM-16+0128KFWN V0209999V00315007925MN0160935N5+00785+00335999999ADDGA1075+007925999GA2075+009755999GA3085+021345999GD13991+0079259GD23991+0097559GD34991+0213459GE19AGL   +99999+99999GF199999999999007921999999MA1099975098455REMMET10001/01/25 12:35:02 SPECI KFWN 011735Z VRB06KT 10SM BKN026 BKN032 OVC070 08/03 A2952 RMK AO2 T00780033
0254740001547932025010117516+41199-074626FM-16+0128KFWN V0202205V00365009145MN0160935N5+00705+00305999999ADDAU110020015AW1615GA1025+007325999GA2075+009145999GA3085+010365999GD11991+0073259GD23991+0091459GD34991+0103659MA1100005098495MW1615REMMET11101/01/25 12:51:02 SPECI KFWN 011751Z 22007KT 10SM -RA FEW024 BKN030 OVC034 07/03 A2953 RMK AO2 RAB49 P0000 FIBI
0381740001547932025010117537+41199-074626FM-15+0128KFWN V0202405N00365010365MN0160935N5+00725+00335100005ADDAA101000025AA206000021AU110020015AW1615GA1045+007925999GA2085+010365999GD12991+0079259GD24991+0103659GE19AGL   +99999+99999GF199999999999007921999999KA1060M+00941KA2060N+00501MA1100005098495MD1190069+9999MW1615REMMET14001/01/25 12:53:02 METAR KFWN 011753Z 24007KT 10SM -RA SCT026 OVC034 07/03 A2953 RMK AO2 RAB49 SLP000 P0000 60000 T00720033 10094 20050 51006EQDQ01  00008PRCP06
0274740001547932025010118147+41199-074626FM-16+0128KFWN V0209999V00315008845MN0160935N5+00675+00335999999ADDAA101000021AU110020015AW1615GA1075+008845999GA2085+010365999GD13991+0088459GD24991+0103659GE19AGL   +99999+99999GF199999999999008841999999MA1100005098495MW1615REMMET10301/01/25 13:14:02 SPECI KFWN 011814Z VRB06KT 10SM -RA BKN029 OVC034 07/03 A2953 RMK AO2 P0000 T00670033
0247740001547932025010118267+41199-074626FM-16+0128KFWN V0202805V00515009455MN0160935N5+00725+00285999999ADDAA101000021AU110020015AW1615GA1085+009455999GD14991+0094559GE19AGL   +99999+99999GF199999999999009451999999MA1100035098525MW1615OC100935REMMET09901/01/25 13:26:02 SPECI KFWN 011826Z 28010G18KT 10SM -RA OVC031 07/03 A2954 RMK AO2 P0000 T00720028
0292740001547932025010118537+41199-074626FM-15+0128KFWN V0202505V00515010675MN0160935N5+00675+00225100105ADDAA101000395AU110020015AW1615GA1045+007925999GA2085+010675999GD12991+0079259GD24991+0106759GE19AGL   +99999+99999GF199999999999007921999999MA1100105098595MW1615OC100935REMMET11301/01/25 13:53:02 METAR KFWN 011853Z 25010G18KT 10SM -RA SCT026 OVC035 07/02 A2956 RMK AO2 SLP010 P0001 T00670022
0291740001547932025010119037+41199-074626FM-16+0128KFWN V0202605V00415007625MN0144845N5+00615+00225999999ADDAA101000021AU110020015AW1615GA1075+007625999GA2085+010065999GD13991+0076259GD24991+0100659GE19AGL   +99999+99999GF199999999999007621999999MA1100145098625MW1615OC100935REMMET11201/01/25 14:03:02 SPECI KFWN 011903Z 26008G18KT 9SM -RA BKN025 OVC033 06/02 A2957 RMK AO2 PRESRR P0000 T00610022
0317740001547932025010119247+41199-074626FM-16+0128KFWN V0202705V00415010365MN0160935N5+00505+00065999999ADDAA101000231AU110020015AW1615GA1045+007625999GA2085+010365999GD12991+0076259GD24991+0103659GE19AGL   +99999+99999GF199999999999007621999999MA1100205098695MW1615OC101395OD149901391290REMMET12401/01/25 14:24:02 SPECI KFWN 011924Z 27008G27KT 10SM -RA SCT025 OVC034 05/01 A2959 RMK AO2 PK WND 29027/1915 P0001 T00500006
0303740001547932025010119537+41199-074626FM-15+0128KFWN V0202505V00415008845MN0160935N5+00565+00065100285ADDAA101000395GA1075+008845999GA2085+011285999GD13991+0088459GD24991+0112859GE19AGL   +99999+99999GF199999999999008841999999MA1100275098755OC100825OD149901391290REMMET13301/01/25 14:53:02 METAR KFWN 011953Z 25008G16KT 10SM BKN029 OVC037 06/01 A2961 RMK AO2 PK WND 29027/1915 RAE48 SLP028 P0001 T00560006
0230740001547932025010120197+41199-074626FM-16+0128KFWN V0209999V00265009455MN0160935N5+00565+00065999999ADDGA1075+009455999GA2085+011585999GD13991+0094559GD24991+0115859GE19AGL   +99999+99999GF199999999999009451999999MA1100305098795REMMET09301/01/25 15:19:02 SPECI KFWN 012019Z VRB05KT 10SM BKN031 OVC038 06/01 A2962 RMK AO2 T00560006
0241740001547932025010120437+41199-074626FM-16+0128KFWN V0209999V00315008845MN0160935N5+00565+00005999999ADDGA1075+008845999GA2085+011285999GD13991+0088459GD24991+0112859GE19AGL   +99999+99999GF199999999999008841999999MA1100345098825OC100935REMMET09601/01/25 15:43:02 SPECI KFWN 012043Z VRB06G18KT 10SM BKN029 OVC037 06/00 A2963 RMK AO2 T00560000
0226740001547932025010120516+41199-074626FM-16+0128KFWN V0202605N00515010365MN0160935N5+00605+00005999999ADDGA1045+008845999GA2075+010365999GA3085+015245999GD12991+0088459GD23991+0103659GD34991+0152459MA1100345098825OC100885REMMET09801/01/25 15:51:02 SPECI KFWN 012051Z 26010G17KT 10SM SCT029 BKN034 OVC050 06/00 A2963 RMK AO2 FIBI
0334740001547932025010120537+41199-074626FM-15+0128KFWN V0202605V00675010975MN0160935N5+00565+00005100365ADDAA101000095AA203000591GA1045+008845999GA2075+010975999GA3085+015245999GD12991+0088459GD23991+0109759GD34991+0152459GE19AGL   +99999+99999GF199999999999008841999999MA1100345098825MD1190359+9999OC101035REMMET12201/01/25 15:53:02 METAR KFWN 012053Z 26013G20KT 10SM SCT029 BKN036 OVC050 06/00 A2963 RMK AO2 SLP036 60002 T00560000 51035
0287740001547932025010121537+41199-074626FM-15+0128KFWN V0209999N99999010365MN0160935N5+00505-00065100435ADDAA101000095GA1075+010365999GA2075+016765999GA3085+021345999GD13991+0103659GD23991+0167659GD34991+0213459GE19AGL   +99999+99999GF199999999999010361999999MA1100415098895REMMET10801/01/25 16:53:02 METAR KFWN 012153Z      KT 10SM BKN034 BKN055 OVC070 05/M01 A2965 RMK AO2 SLP043 T00501006
0260740001547932025010122537+41199-074626FM-15+0128KFWN V0202705N00415033535MN0160935N5+00445-00175100495ADDAA101000095GA1045+009755999GA2085+033535999GD12991+0097559GD24991+0335359GE19AGL   +99999+99999GF199999999999009751999999MA1100475098965OC101295REMMET10401/01/25 17:53:02 METAR KFWN 012253Z 27008G25KT 10SM SCT032 OVC110 04/M02 A2967 RMK AO2 SLP049 T00441017
0329740001547932025010123537+41199-074626FM-15+0128KFWN V0202605N00775011895MN0160935N5+00445-00225100585ADDAA101000095AA206000591GA1075+011895999GD13991+0118959GE19AGL   +99999+99999GF199999999999011891999999KA1060M+00721KA2060N+00441MA1100585099065MD1390219+9999OC101345OD149901331250REMMET13901/01/25 18:53:02 METAR KFWN 012353Z 26015G26KT 10SM BKN039 04/M02 A2970 RMK AO2 PK WND 25026/2344 SLP058 60002 T00441022 10072 20044 53021
0254740001547932025010200537+41199-074626FM-15+0128KFWN V0202705V00365014025MN0160935N5+00445-00395100675ADDAA101000095GA1075+014025999GD13991+0140259GE19AGL   +99999+99999GF199999999999014021999999MA1100645099125OC100985OD149901441240REMMET11501/01/25 19:53:01 METAR KFWN 020053Z 27007G19KT 10SM BKN046 04/M04 A2972 RMK AO2 PK WND 24028/0015 SLP067 T00441039
0273740001547932025010201537+41199-074626FM-15+0128KFWN V0202805N005752200059N0160935N5+00395-00505100715ADDAA101000095GA1045+015245999GD12991+0152459GE19AGL   +99999+99999GF104995999999015241999999MA1100715099195OC101085OD149901491300REMMET11501/01/25 20:53:01 METAR KFWN 020153Z 28011G21KT 10SM SCT050 04/M05 A2974 RMK AO2 PK WND 30029/0104 SLP071 T00391050EQDD01      0ADE726
0280740001547932025010202537+41199-074626FM-15+0128KFWN V0202405V00465018295MN0160935N5+00395-00445100745ADDAA101000095GA1025+014635999GA2075+018295999GD11991+0146359GD23991+0182959GE19AGL   +99999+99999GF199999999999014631999999MA1100715099195MD1190169+9999OC100985REMMET11001/01/25 21:53:01 METAR KFWN 020253Z 24009G19KT 10SM FEW048 BKN060 04/M04 A2974 RMK AO2 SLP074 T00391044 51016
0186740001547932025010203537+41199-074626FM-15+0128KFWN V0209999N999992200059N0160935N5+00395-00505100725ADDAA101000095GA1005+999999999GD10991+9999999GF100991999999999999999999MA1100715099195REMMET09101/01/25 22:53:02 METAR KFWN 020353Z      KT 10SM CLR 04/M05 A2974 RMK AO2 SLP072 T00391050
0309740001547932025010204537+41199-074626FM-15+0128KFWN V0202605V005752200059N0160935N5+00335-00445100765ADDAA101000095GA1025+014025999GD11991+0140259GE19AGL   +99999+99999GF102995999999014021999999KA1240M+00941KA2240N+00331MA1100755099225OC100825OD149901331270REMMET12501/01/25 23:53:02 METAR KFWN 020453Z 26011G16KT 10SM FEW046 03/M04 A2975 RMK AO2 PK WND 27026/0420 SLP076 T00331044 400940033EQDD01      0ADE726
0910740001547932025010204596+41199-074626SOD  +0128KFWN V020999999999999999999999999999+99999+99999999999ADDAA124001595AT1AU16RA  5AT2AU13BR  5KA1240M+00945KA2240N+00335MG1098534099804OE11240147530020045OE22240089428020045OE33240032299999995REMSOD73024 HR PRECIPITATION (IN):0.06  24 HR MAX TEMP (F):49 24 HR MAX TEMP TIME (LST):1116 24 HR MIN TEMP (F):38 24 HR MIN TEMP TIME (LST):2359 AVERAGE STATION PRESSURE:29.095 MINIMUM SEA LEVEL PRESSURE:29.47 TIME OF OCCURRENCE:0042 PEAK WIND SPEED (MPH):33  PEAK WIND DIR (DEG):300 PEAK WIND TIME (LST):2004  FASTEST 2MIN SPEED (MPH):20 FASTEST 2MIN DIR (DEG):280 FASTEST 2MIN TIME (LST):2004 AVERAGE WIND SPEED (MPH):7.2  24 HR AVG TEMP (F):44 HEATING DEGREE DAYS:21  COOLING DEGREE DAYS:0   LATEST DAY MAX TEMP (0700-1900 LST):49  LATEST NIGHT MIN TEMP(1900-0800 LST):41 HOURLY INCREMENTAL PRECIPITATION VALUES (IN):.02 0.02 0.00 0.00 0.00 0.00 0.00 0.00 0.00 0.00 0.00 0.00 T    0.01 0.01 0.00 0.00 0.00 0.00 0.00 0.00 0.00 0.00 0.00EQDR01     N7GJS072R02     N7GKS075
0269740001547932025010205537+41199-074626FM-15+0128KFWN V0209999N99999015245MN0160935N5+00335-00505100815ADDAA101000095GA1075+015245999GD13991+0152459GE19AGL   +99999+99999GF199999999999015241999999KA1060M+00441KA2060N+00281MA1100785099265MD1390079+9999REMMET11201/02/25 00:53:02 METAR KFWN 020553Z      KT 10SM BKN050 03/M05 A2976 RMK AO2 SLP081 T00331050 10044 20028 53007
0249740001547932025010206537+41199-074626FM-15+0128KFWN V0209999V00215014025MN0160935N5+00285-00395100855ADDAA101000095GA1075+014025999GA2085+016765999GD13991+0140259GD24991+0167659GE19AGL   +99999+99999GF199999999999014021999999MA1100855099325REMMET10101/02/25 01:53:02 METAR KFWN 020653Z VRB04KT 10SM BKN046 OVC055 03/M04 A2978 RMK AO2 SLP085 T00281039
0260740001547932025010207537+41199-074626FM-15+0128KFWN V0202305V00365018295MN0160935N5+00335-00395100925ADDAA101000095GA1045+015245999GA2085+018295999GD12991+0152459GD24991+0182959GE19AGL   +99999+99999GF199999999999015241999999MA1100915099395OC100825REMMET10401/02/25 02:53:02 METAR KFWN 020753Z 23007G16KT 10SM SCT050 OVC060 03/M04 A2980 RMK AO2 SLP092 T00331039
0318740001547932025010208537+41199-074626FM-15+0128KFWN V0209999V00315018295MN0160935N5+00335-00335100955ADDAA101000095GA1025+010065999GA2045+012505999GA3085+018295999GD11991+0100659GD22991+0125059GD34991+0182959GE19AGL   +99999+99999GF199999999999010061999999MA1100955099425MD1190159+9999OC100885REMMET11701/02/25 03:53:02 METAR KFWN 020853Z VRB06G17KT 10SM FEW033 SCT041 OVC060 03/M03 A2981 RMK AO2 SLP095 T00331033 51015
0298740001547932025010209537+41199-074626FM-15+0128KFWN V0209999V00315012805MN0160935N5+00285-00335101005ADDAA101000095GA1075+012805999GA2075+015245999GA3085+021345999GD13991+0128059GD23991+0152459GD34991+0213459GE19AGL   +99999+99999GF199999999999012801999999MA1100985099465OC100825REMMET11101/02/25 04:53:02 METAR KFWN 020953Z VRB06G16KT 10SM BKN042 BKN050 OVC070 03/M03 A2982 RMK AO2 SLP100 T00281033
0211740001547932025010210537+41199-074626FM-15+0128KFWN V0209999V00265014025MN0160935N5+00225-00505101075ADDAA101000095GA1075+014025999GD13991+0140259GE19AGL   +99999+99999GF199999999999014021999999MA1101055099525REMMET09401/02/25 05:53:02 METAR KFWN 021053Z VRB05KT 10SM BKN046 02/M05 A2984 RMK AO2 SLP107 T00221050
0286740001547932025010211537+41199-074626FM-15+0128KFWN V0209999V00265014635MN0160935N5+00225-00565101125ADDAA101000095AA224000591GA1075+014635999GD13991+0146359GE19AGL   +99999+99999GF199999999999014631999999KA1060M+00391KA2060N+00171MA1101085099565MD1390159+9999REMMET11801/02/25 06:53:02 METAR KFWN 021153Z VRB05KT 10SM BKN048 02/M06 A2985 RMK AO2 SLP112 70002 T00221056 10039 20017 53015
0211740001547932025010212537+41199-074626FM-15+0128KFWN V0209999V00315013415MN0160935N5+00225-00565101195ADDAA101000095GA1085+013415999GD14991+0134159GE19AGL   +99999+99999GF199999999999013411999999MA1101155099625REMMET09401/02/25 07:53:02 METAR KFWN 021253Z VRB06KT 10SM OVC044 02/M06 A2987 RMK AO2 SLP119 T00221056
0211740001547932025010213537+41199-074626FM-15+0128KFWN V0202205N00215012505MN0160935N5+00285-00505101255ADDAA101000095GA1085+012505999GD14991+0125059GE19AGL   +99999+99999GF199999999999012501999999MA1101225099695REMMET09401/02/25 08:53:02 METAR KFWN 021353Z 22004KT 10SM OVC041 03/M05 A2989 RMK AO2 SLP125 T00281050
0280740001547932025010214537+41199-074626FM-15+0128KFWN V0202705V00415012195MN0160935N5+00335-00445101345ADDAA101000095GA1075+012195999GA2075+016765999GD13991+0121959GD23991+0167659GE19AGL   +99999+99999GF199999999999012191999999MA1101325099795MD1390229+9999OC100885REMMET11001/02/25 09:53:02 METAR KFWN 021453Z 27008G17KT 10SM BKN040 BKN055 03/M04 A2992 RMK AO2 SLP134 T00331044 53022
0222740001547932025010215537+41199-074626FM-15+0128KFWN V0202605V00365013725MN0160935N5+00395-00505101325ADDAA101000095GA1085+013725999GD14991+0137259GE19AGL   +99999+99999GF199999999999013721999999MA1101295099765OC100885REMMET09701/02/25 10:53:02 METAR KFWN 021553Z 26007G17KT 10SM OVC045 04/M05 A2991 RMK AO2 SLP132 T00391050
0254740001547932025010216537+41199-074626FM-15+0128KFWN V0202905V00465015245MN0160935N5+00445-00675101275ADDAA101000095GA1075+015245999GD13991+0152459GE19AGL   +99999+99999GF199999999999015241999999MA1101255099725OC101085OD149901441260REMMET11501/02/25 11:53:02 METAR KFWN 021653Z 29009G21KT 10SM BKN050 04/M07 A2990 RMK AO2 PK WND 26028/1607 SLP127 T00441067
0280740001547932025010217537+41199-074626FM-15+0128KFWN V0202805V00575018295MN0160935N5+00505-00785101255ADDAA101000095GA1085+018295999GD14991+0182959GE19AGL   +99999+99999GF199999999999018291999999KA1060M+00561KA2060N+00221MA1101225099695MD1690089+9999OC101135REMMET11501/02/25 12:53:02 METAR KFWN 021753Z 28011G22KT 10SM OVC060 05/M08 A2989 RMK AO2 SLP125 T00501078 10056 20022 56008
0254740001547932025010218537+41199-074626FM-15+0128KFWN V0202705V00515021345MN0160935N5+00445-00945101255ADDAA101000095GA1085+021345999GD14991+0213459GE19AGL   +99999+99999GF199999999999021341999999MA1101225099695OC101035OD149901541250REMMET11501/02/25 13:53:02 METAR KFWN 021853Z 27010G20KT 10SM OVC070 04/M09 A2989 RMK AO2 PK WND 25030/1800 SLP125 T00441094
0254740001547932025010219537+41199-074626FM-15+0128KFWN V0202805N00725019815MN0160935N5+00335-01005101295ADDAA101000095GA1075+019815999GD13991+0198159GE19AGL   +99999+99999GF199999999999019811999999MA1101255099725OC101345OD149901331290REMMET11501/02/25 14:53:02 METAR KFWN 021953Z 28014G26KT 10SM BKN065 03/M10 A2990 RMK AO2 PK WND 29026/1950 SLP129 T00331100
0242740001547932025010220537+41199-074626FM-15+0128KFWN V0202405V00415021345MN0160935N5+00285-00725101335ADDAA101000095GA1075+021345999GD13991+0213459GE19AGL   +99999+99999GF199999999999021341999999MA1101325099795MD1390079+9999OC100885REMMET10301/02/25 15:53:02 METAR KFWN 022053Z 24008G17KT 10SM BKN070 03/M07 A2992 RMK AO2 SLP133 T00281072 53007
0287740001547932025010221537+41199-074626FM-15+0128KFWN V0202505N00415014335MN0160935N5+00225-00675101415ADDAA101000095GA1075+014335999GA2075+018295999GA3085+022865999GD13991+0143359GD23991+0182959GD34991+0228659GE19AGL   +99999+99999GF199999999999014331999999MA1101395099865REMMET10801/02/25 16:53:02 METAR KFWN 022153Z 25008KT 10SM BKN047 BKN060 OVC075 02/M07 A2994 RMK AO2 SLP141 T00221067
0279740001547932025010222537+41199-074626FM-15+0128KFWN V0202405V004652200059N0160935N5+00175-00725101415ADDAA101000095GA1045+013725999GA2045+022865999GD12991+0137259GD22991+0228659GE19AGL   +99999+99999GF104995999999013721999999MA1101395099865OC100885REMMET10401/02/25 17:53:02 METAR KFWN 022253Z 24009G17KT 10SM SCT045 SCT075 02/M07 A2994 RMK AO2 SLP141 T00171072EQDD01      0ADE726
0345740001547932025010223537+41199-074626FM-15+0128KFWN V0209999V00215021345MN0160935N5+00175-00725101455ADDAA101000095GA1045+012805999GA2045+014945999GA3085+021345999GD12991+0128059GD22991+0149459GD34991+0213459GE19AGL   +99999+99999GF199999999999012801999999KA1060M+00501KA2060N+00111MA1101425099895MD1190129+9999REMMET12601/02/25 18:53:02 METAR KFWN 022353Z VRB04KT 10SM SCT042 SCT049 OVC070 02/M07 A2995 RMK AO2 SLP145 T00171072 10050 20011 51012
0249740001547932025010300537+41199-074626FM-15+0128KFWN V0209999V00315019815MN0160935N5+00115-00725101465ADDAA101000095GA1045+014335999GA2085+019815999GD12991+0143359GD24991+0198159GE19AGL   +99999+99999GF199999999999014331999999MA1101425099895REMMET10101/02/25 19:53:01 METAR KFWN 030053Z VRB06KT 10SM SCT047 OVC065 01/M07 A2995 RMK AO2 SLP146 T00111072
0249740001547932025010301537+41199-074626FM-15+0128KFWN V0209999V00315019815MN0160935N5+00115-00785101435ADDAA101000095GA1045+015245999GA2085+019815999GD12991+0152459GD24991+0198159GE19AGL   +99999+99999GF199999999999015241999999MA1101395099865REMMET10101/02/25 20:53:01 METAR KFWN 030153Z VRB06KT 10SM SCT050 OVC065 01/M08 A2994 RMK AO2 SLP143 T00111078
0231740001547932025010302537+41199-074626FM-15+0128KFWN V0202305N00315019815MN0160935N5+00065-00725101415ADDAA101000095GA1075+019815999GD13991+0198159GE19AGL   +99999+99999GF199999999999019811999999MA1101395099865MD1890059+9999REMMET10001/02/25 21:53:01 METAR KFWN 030253Z 23006KT 10SM BKN065 01/M07 A2994 RMK AO2 SLP141 T00061072 58005
0319740001547932025010303377+41199-074626FM-16+0128KFWN V0209999V00265005795MN0048285N5-00065-00565999999ADDAA101000021AU110030015AW1715GA1025+004275999GA2075+005795999GA3075+021345999GD11991+0042759GD23991+0057959GD33991+0213459GE19AGL   +99999+99999GF199999999999004271999999MA1101425099895MW1715REMMET11701/02/25 22:37:02 SPECI KFWN 030337Z VRB05KT 3SM -SN FEW014 BKN019 BKN070 M01/M06 A2995 RMK AO2 SNB29 P0000 T10061056
0295740001547932025010303457+41199-074626FM-16+0128KFWN V0209999V00315019815MN0144845N5-00065-00615999999ADDAA101000021GA1025+003665999GA2045+006405999GA3075+019815999GD11991+0036659GD22991+0064059GD33991+0198159GE19AGL   +99999+99999GF199999999999003661999999MA1101425099895REMMET11601/02/25 22:45:02 SPECI KFWN 030345Z VRB06KT 9SM FEW012 SCT021 BKN065 M01/M06 A2995 RMK AO2 SNB29E45 P0000 T10061061
0265740001547932025010303537+41199-074626FM-15+0128KFWN V0202405N00315019815MN0160935N5-00065-00615101445ADDAA101000025GA1025+005795999GA2075+019815999GD11991+0057959GD23991+0198159GE19AGL   +99999+99999GF199999999999005791999999MA1101425099895REMMET11701/02/25 22:53:02 METAR KFWN 030353Z 24006KT 10SM FEW019 BKN065 M01/M06 A2995 RMK AO2 SNB29E45 SLP144 P0000 T10061061
0285740001547932025010304537+41199-074626FM-15+0128KFWN V0209999V00265012505MN0160935N5+00005-00725101465ADDAA101000095GA1075+012505999GA2085+018295999GD13991+0125059GD24991+0182959GE19AGL   +99999+99999GF199999999999012501999999KA1240M+00561KA2240N-00061MA1101425099895REMMET11101/02/25 23:53:02 METAR KFWN 030453Z VRB05KT 10SM BKN041 OVC060 00/M07 A2995 RMK AO2 SLP146 T00001072 400561006
0898740001547932025010304596+41199-074626SOD  +0128KFWN V020999999999999999999999999999+99999+99999999999ADDAA124000025AT1AU18SN  5KA1240M+00565KA2240N-00055MG1099594100754OE11240152025013005OE22240080526014195OE33240035899999995REMSOD73024 HR PRECIPITATION (IN):T     24 HR MAX TEMP (F):42 24 HR MAX TEMP TIME (LST):1248 24 HR MIN TEMP (F):31 24 HR MIN TEMP TIME (LST):2257 AVERAGE STATION PRESSURE:29.410 MINIMUM SEA LEVEL PRESSURE:29.75 TIME OF OCCURRENCE:0005 PEAK WIND SPEED (MPH):34  PEAK WIND DIR (DEG):250 PEAK WIND TIME (LST):1300  FASTEST 2MIN SPEED (MPH):18 FASTEST 2MIN DIR (DEG):260 FASTEST 2MIN TIME (LST):1419 AVERAGE WIND SPEED (MPH):8.0  24 HR AVG TEMP (F):37 HEATING DEGREE DAYS:28  COOLING DEGREE DAYS:0   LATEST DAY MAX TEMP (0700-1900 LST):42  LATEST NIGHT MIN TEMP(1900-0800 LST):35 HOURLY INCREMENTAL PRECIPITATION VALUES (IN):.00 0.00 0.00 0.00 0.00 0.00 0.00 0.00 0.00 0.00 0.00 0.00 0.00 0.00 0.00 0.00 0.00 0.00 0.00 0.00 0.00 0.00 T    0.00EQDR01     N7GJS072R02     N7GKS075
0286740001547932025010305537+41199-074626FM-15+0128KFWN V0202305N00315014945MN0160935N5+00005-00675101425ADDAA101000095AA206000021GA1085+014945999GD14991+0149459GE19AGL   +99999+99999GF199999999999014941999999KA1060M+00171KA2060N-00061MA1101395099865MD1090029+9999REMMET11801/03/25 00:53:02 METAR KFWN 030553Z 23006KT 10SM OVC049 00/M07 A2994 RMK AO2 SLP142 60000 T00001067 10017 21006 50002
0211740001547932025010306537+41199-074626FM-15+0128KFWN V0209999V00315014335MN0160935N5+00065-00835101465ADDAA101000095GA1085+014335999GD14991+0143359GE19AGL   +99999+99999GF199999999999014331999999MA1101425099895REMMET09401/03/25 01:53:02 METAR KFWN 030653Z VRB06KT 10SM OVC047 01/M08 A2995 RMK AO2 SLP146 T00061083
0222740001547932025010307537+41199-074626FM-15+0128KFWN V0202605N00365013725MN0160935N5+00005-00835101455ADDAA101000095GA1085+013725999GD14991+0137259GE19AGL   +99999+99999GF199999999999013721999999MA1101425099895OC100885REMMET09701/03/25 02:53:02 METAR KFWN 030753Z 26007G17KT 10SM OVC045 00/M08 A2995 RMK AO2 SLP145 T00001083
0242740001547932025010308537+41199-074626FM-15+0128KFWN V0202905N00465014635MN0160935N5+00005-00835101435ADDAA101000095GA1085+014635999GD14991+0146359GE19AGL   +99999+99999GF199999999999014631999999MA1101425099895MD1090019+9999OC100885REMMET10301/03/25 03:53:02 METAR KFWN 030853Z 29009G17KT 10SM OVC048 00/M08 A2995 RMK AO2 SLP143 T00001083 50001
0211740001547932025010309537+41199-074626FM-15+0128KFWN V0209999V00215013415MN0160935N5+00005-00835101435ADDAA101000095GA1085+013415999GD14991+0134159GE19AGL   +99999+99999GF199999999999013411999999MA1101395099865REMMET09401/03/25 04:53:02 METAR KFWN 030953Z VRB04KT 10SM OVC044 00/M08 A2994 RMK AO2 SLP143 T00001083
0211740001547932025010310537+41199-074626FM-15+0128KFWN V0209999V00215013115MN0160935N5+00005-00835101405ADDAA101000095GA1085+013115999GD14991+0131159GE19AGL   +99999+99999GF199999999999013111999999MA1101355099835REMMET09401/03/25 05:53:02 METAR KFWN 031053Z VRB04KT 10SM OVC043 00/M08 A2993 RMK AO2 SLP140 T00001083
0269740001547932025010311537+41199-074626FM-15+0128KFWN V0209999V00155014335MN0160935N5+00005-00785101365ADDAA101000095GA1085+014335999GD14991+0143359GE19AGL   +99999+99999GF199999999999014331999999KA1060M+00061KA2060N+00001MA1101325099795MD1890089+9999REMMET11201/03/25 06:53:02 METAR KFWN 031153Z VRB03KT 10SM OVC047 00/M08 A2992 RMK AO2 SLP136 T00001078 10006 20000 58008
0249740001547932025010312537+41199-074626FM-15+0128KFWN V0209999V00215011895MN0160935N5+00005-00675101315ADDAA101000095GA1075+011895999GA2085+013725999GD13991+0118959GD24991+0137259GE19AGL   +99999+99999GF199999999999011891999999MA1101295099765REMMET10101/03/25 07:53:02 METAR KFWN 031253Z VRB04KT 10SM BKN039 OVC045 00/M07 A2991 RMK AO2 SLP131 T00001067
0211740001547932025010313537+41199-074626FM-15+0128KFWN V0202205N00215013415MN0160935N5+00005-00725101315ADDAA101000095GA1085+013415999GD14991+0134159GE19AGL   +99999+99999GF199999999999013411999999MA1101295099765REMMET09401/03/25 08:53:02 METAR KFWN 031353Z 22004KT 10SM OVC044 00/M07 A2991 RMK AO2 SLP131 T00001072
0231740001547932025010314537+41199-074626FM-15+0128KFWN V0209999V00315013415MN0160935N5+00115-00785101285ADDAA101000095GA1085+013415999GD14991+0134159GE19AGL   +99999+99999GF199999999999013411999999MA1101255099725MD1690089+9999REMMET10001/03/25 09:53:02 METAR KFWN 031453Z VRB06KT 10SM OVC044 01/M08 A2990 RMK AO2 SLP128 T00111078 56008
0222740001547932025010315537+41199-074626FM-15+0128KFWN V0209999V00265013115MN0160935N5+00225-00785101185ADDAA101000095GA1085+013115999GD14991+0131159GE19AGL   +99999+99999GF199999999999013111999999MA1101155099625OC100775REMMET09701/03/25 10:53:02 METAR KFWN 031553Z VRB05G15KT 10SM OVC043 02/M08 A2987 RMK AO2 SLP118 T00221078
0211740001547932025010316537+41199-074626FM-15+0128KFWN V0202905N00415013115MN0160935N5+00225-00785101045ADDAA101000095GA1085+013115999GD14991+0131159GE19AGL   +99999+99999GF199999999999013111999999MA1101025099495REMMET09401/03/25 11:53:02 METAR KFWN 031653Z 29008KT 10SM OVC043 02/M08 A2983 RMK AO2 SLP104 T00221078
0269740001547932025010317537+41199-074626FM-15+0128KFWN V0202505N00265013415MN0160935N5+00225-00725100935ADDAA101000095GA1085+013415999GD14991+0134159GE19AGL   +99999+99999GF199999999999013411999999KA1060M+00281KA2060N+00001MA1100885099365MD1890359+9999REMMET11201/03/25 12:53:02 METAR KFWN 031753Z 25005KT 10SM OVC044 02/M07 A2979 RMK AO2 SLP093 T00221072 10028 20000 58035
0222740001547932025010318537+41199-074626FM-15+0128KFWN V0203005N00465014025MN0160935N5+00225-00835100855ADDAA101000095GA1075+014025999GD13991+0140259GE19AGL   +99999+99999GF199999999999014021999999MA1100815099295OC100885REMMET09701/03/25 13:53:02 METAR KFWN 031853Z 30009G17KT 10SM BKN046 02/M08 A2977 RMK AO2 SLP085 T00221083
0211740001547932025010319537+41199-074626FM-15+0128KFWN V0209999V00215014025MN0160935N5+00175-00835100865ADDAA101000095GA1085+014025999GD14991+0140259GE19AGL   +99999+99999GF199999999999014021999999MA1100815099295REMMET09401/03/25 14:53:02 METAR KFWN 031953Z VRB04KT 10SM OVC046 02/M08 A2977 RMK AO2 SLP086 T00171083
0231740001547932025010320537+41199-074626FM-15+0128KFWN V0209999V00315015245MN0160935N5+00115-00835100885ADDAA101000095GA1085+015245999GD14991+0152459GE19AGL   +99999+99999GF199999999999015241999999MA1100855099325MD1590049+9999REMMET10001/03/25 15:53:02 METAR KFWN 032053Z VRB06KT 10SM OVC050 01/M08 A2978 RMK AO2 SLP088 T00111083 55004
0249740001547932025010321537+41199-074626FM-15+0128KFWN V0202205N00215013115MN0160935N5+00065-00835100905ADDAA101000095GA1075+013115999GA2085+021345999GD13991+0131159GD24991+0213459GE19AGL   +99999+99999GF199999999999013111999999MA1100885099365REMMET10101/03/25 16:53:02 METAR KFWN 032153Z 22004KT 10SM BKN043 OVC070 01/M08 A2979 RMK AO2 SLP090 T00061083
0250740001547932025010322537+41199-074626FM-15+0128KFWN V0202505N00265015245MN0160935N5-00065-00785100935ADDAA101000095GA1025+012505999GA2075+015245999GD11991+0125059GD23991+0152459GE19AGL   +99999+99999GF199999999999012501999999MA1100885099365REMMET10201/03/25 17:53:02 METAR KFWN 032253Z 25005KT 10SM FEW041 BKN050 M01/M08 A2979 RMK AO2 SLP093 T10061078
0245740001547932025010323537+41199-074626FM-15+0128KFWN V0209999V002152200059N0160935N5-00115-00725100875ADDAA101000095GA1005+999999999GD10991+9999999GF100991999999999999999999KA1060M+00281KA2060N-00111MA1100855099325MD1890019+9999REMMET11001/03/25 18:53:02 METAR KFWN 032353Z VRB04KT 10SM CLR M01/M07 A2978 RMK AO2 SLP087 T10111072 10028 21011 58001
0187740001547932025010400537+41199-074626FM-15+0128KFWN V0202105N002152200059N0160935N5-00225-00725100865ADDAA101000095GA1005+999999999GD10991+9999999GF100991999999999999999999MA1100815099295REMMET09201/03/25 19:53:01 METAR KFWN 040053Z 21004KT 10SM CLR M02/M07 A2977 RMK AO2 SLP086 T10221072
0187740001547932025010401537+41199-074626FM-15+0128KFWN V0202105N001552200059N0160935N5-00285-00725100825ADDAA101000095GA1005+999999999GD10991+9999999GF100991999999999999999999MA1100785099265REMMET09201/03/25 20:53:01 METAR KFWN 040153Z 21003KT 10SM CLR M03/M07 A2976 RMK AO2 SLP082 T10281072
0251740001547932025010402537+41199-074626FM-15+0128KFWN V0209999V001552200059N0160935N5-00285-00725100815ADDAA101000095GA1045+036585999GD12991+0365859GE19AGL   +99999+99999GF104995999999036581999999MA1100785099265MD1690069+9999REMMET10101/03/25 21:53:01 METAR KFWN 040253Z VRB03KT 10SM SCT120 M03/M07 A2976 RMK AO2 SLP081 T10281072 56006EQDD01      0ADE726
0187740001547932025010403537+41199-074626FM-15+0128KFWN V0209999V002152200059N0160935N5-00225-00895100805ADDAA101000095GA1005+999999999GD10991+9999999GF100991999999999999999999MA1100785099265REMMET09201/03/25 22:53:02 METAR KFWN 040353Z VRB04KT 10SM CLR M02/M09 A2976 RMK AO2 SLP080 T10221089
0223740001547932025010404537+41199-074626FM-15+0128KFWN V0209999N999992200059N0160935N5-00225-01005100785ADDAA101000095GA1005+999999999GD10991+9999999GF100991999999999999999999KA1240M+00281KA2240N-00331MA1100755099225REMMET10201/03/25 23:53:02 METAR KFWN 040453Z      KT 10SM CLR M02/M10 A2975 RMK AO2 SLP078 T10221100 400281033
0886740001547932025010404596+41199-074626SOD  +0128KFWN V020999999999999999999999999999+99999+99999999999ADDAA124000095KA1240M+00285KA2240N-00325MG1099584100784OE11240129628003305OE22240067127003305OE33240026499999995REMSOD73024 HR PRECIPITATION (IN):0.00  24 HR MAX TEMP (F):37 24 HR MAX TEMP TIME (LST):1352 24 HR MIN TEMP (F):26 24 HR MIN TEMP TIME (LST):2152 AVERAGE STATION PRESSURE:29.405 MINIMUM SEA LEVEL PRESSURE:29.76 TIME OF OCCURRENCE:2359 PEAK WIND SPEED (MPH):29  PEAK WIND DIR (DEG):280 PEAK WIND TIME (LST):0330  FASTEST 2MIN SPEED (MPH):15 FASTEST 2MIN DIR (DEG):270 FASTEST 2MIN TIME (LST):0330 AVERAGE WIND SPEED (MPH):5.9  24 HR AVG TEMP (F):32 HEATING DEGREE DAYS:33  COOLING DEGREE DAYS:0   LATEST DAY MAX TEMP (0700-1900 LST):37  LATEST NIGHT MIN TEMP(1900-0800 LST):31 HOURLY INCREMENTAL PRECIPITATION VALUES (IN):.00 0.00 0.00 0.00 0.00 0.00 0.00 0.00 0.00 0.00 0.00 0.00 0.00 0.00 0.00 0.00 0.00 0.00 0.00 0.00 0.00 0.00 0.00 0.00EQDR01     N7GJS072R02     N7GKS075
0327740001547932025010405537+41199-074626FM-15+0128KFWN V0209999V002652200059N0160935N5-00225-01005100745ADDAA101000095GA1025+013115999GA2045+021345999GD11991+0131159GD22991+0213459GE19AGL   +99999+99999GF104995999999013111999999KA1060M-00111KA2060N-00331MA1100715099195MD1890079+9999REMMET12001/04/25 00:53:02 METAR KFWN 040553Z VRB05KT 10SM FEW043 SCT070 M02/M10 A2974 RMK AO2 SLP074 T10221100 11011 21033 58007EQDD01      0ADE726
0326740001547932025010406537+41199-074626FM-15+0128KFWN V0203005N00365015245MN0144845N5-00175-00895100765ADDAA101000025AU110030015AW1715GA1045+012195999GA2075+015245999GA3085+018295999GD12991+0121959GD23991+0152459GD34991+0182959GE19AGL   +99999+99999GF199999999999012191999999MA1100715099195MW1715REMMET12401/04/25 01:53:02 METAR KFWN 040653Z 30007KT 9SM -SN SCT040 BKN050 OVC060 M02/M09 A2974 RMK AO2 SNB50 SLP076 P0000 T10171089
0243740001547932025010407537+41199-074626FM-15+0128KFWN V0202505N003652200059N0160935N5-00225-00945100835ADDAA101000025GA1045+019815999GD12991+0198159GE19AGL   +99999+99999GF104995999999019811999999MA1100815099295REMMET10701/04/25 02:53:02 METAR KFWN 040753Z 25007KT 10SM SCT065 M02/M09 A2977 RMK AO2 SNE00 SLP083 P0000 T10221094EQDD01      0ADE726
0287740001547932025010408537+41199-074626FM-15+0128KFWN V0209999V00265016765MN0160935N5-00225-01065100885ADDAA101000095AA203000021GA1025+013415999GA2085+016765999GD11991+0134159GD24991+0167659GE19AGL   +99999+99999GF199999999999013411999999MA1100855099325MD1390149+9999REMMET11401/04/25 03:53:02 METAR KFWN 040853Z VRB05KT 10SM FEW044 OVC055 M02/M11 A2978 RMK AO2 SLP088 60000 T10221106 53014
0212740001547932025010409537+41199-074626FM-15+0128KFWN V0209999V00265018295MN0160935N5-00175-01115100905ADDAA101000095GA1085+018295999GD14991+0182959GE19AGL   +99999+99999GF199999999999018291999999MA1100885099365REMMET09501/04/25 04:53:02 METAR KFWN 040953Z VRB05KT 10SM OVC060 M02/M11 A2979 RMK AO2 SLP090 T10171111
0288740001547932025010410537+41199-074626FM-15+0128KFWN V0209999V00315014945MN0160935N5-00225-01005100955ADDAA101000095GA1045+012195999GA2075+014945999GA3085+018295999GD12991+0121959GD23991+0149459GD34991+0182959GE19AGL   +99999+99999GF199999999999012191999999MA1100915099395REMMET10901/04/25 05:53:02 METAR KFWN 041053Z VRB06KT 10SM SCT040 BKN049 OVC060 M02/M10 A2980 RMK AO2 SLP095 T10221100
0336740001547932025010411537+41199-074626FM-15+0128KFWN V0202605V00365015245MN0160935N5-00175-01175101015ADDAA101000095AA206000021GA1075+015245999GA2085+018295999GD13991+0152459GD24991+0182959GE19AGL   +99999+99999GF199999999999015241999999KA1060M-00171KA2060N-00221MA1100985099465MD1390139+9999OC100775REMMET12901/04/25 06:53:02 METAR KFWN 041153Z 26007G15KT 10SM BKN050 OVC060 M02/M12 A2982 RMK AO2 SLP101 60000 T10171117 11017 21022 53013
0223740001547932025010412537+41199-074626FM-15+0128KFWN V0202805V00415018295MN0160935N5-00175-01285101065ADDAA101000095GA1075+018295999GD13991+0182959GE19AGL   +99999+99999GF199999999999018291999999MA1101025099495OC101295REMMET09801/04/25 07:53:02 METAR KFWN 041253Z 28008G25KT 10SM BKN060 M02/M13 A2983 RMK AO2 SLP106 T10171128
0255740001547932025010413537+41199-074626FM-15+0128KFWN V0202805V00575016765MN0160935N5-00115-01335101125ADDAA101000095GA1085+016765999GD14991+0167659GE19AGL   +99999+99999GF199999999999016761999999MA1101085099565OC101445OD149901441290REMMET11601/04/25 08:53:02 METAR KFWN 041353Z 28011G28KT 10SM OVC055 M01/M13 A2985 RMK AO2 PK WND 29028/1349 SLP112 T10111133
0213740001547932025010414536+41199-074626FM-15+0128KFWN V0203105V00465018295MN0160935N5-00115-01335101205ADDAA101000095GA1085+018295999GD14991+0182959MA1101155099625MD1390189+9999OC101295REMMET12201/04/25 09:53:02 METAR KFWN 041453Z 31009G25KT 10SM OVC060 M01/M13 A2987 RMK AO2 PK WND 28026/1428 SLP120 T10111133 53018
0255740001547932025010415537+41199-074626FM-15+0128KFWN V0203005V00625018295MN0160935N5-00115-01445101235ADDAA101000095GA1085+018295999GD14991+0182959GE19AGL   +99999+99999GF199999999999018291999999MA1101195099665OC101495OD149901591330REMMET11601/04/25 10:53:02 METAR KFWN 041553Z 30012G29KT 10SM OVC060 M01/M14 A2988 RMK AO2 PK WND 33031/1527 SLP123 T10111144
0255740001547932025010416537+41199-074626FM-15+0128KFWN V0202705N00675018295MN0160935N5-00065-01395101165ADDAA101000095GA1085+018295999GD14991+0182959GE19AGL   +99999+99999GF199999999999018291999999MA1101125099595OC101295OD149901441250REMMET11601/04/25 11:53:02 METAR KFWN 041653Z 27013G25KT 10SM OVC060 M01/M14 A2986 RMK AO2 PK WND 25028/1609 SLP116 T10061139
0313740001547932025010417537+41199-074626FM-15+0128KFWN V0202905V00515016765MN0160935N5-00115-01285101125ADDAA101000095GA1085+016765999GD14991+0167659GE19AGL   +99999+99999GF199999999999016761999999KA1060M+00001KA2060N-00171MA1101085099565MD1890089+9999OC101135OD149901391260REMMET13401/04/25 12:53:02 METAR KFWN 041753Z 29010G22KT 10SM OVC055 M01/M13 A2985 RMK AO2 PK WND 26027/1730 SLP112 T10111128 10000 21017 58008
0255740001547932025010418537+41199-074626FM-15+0128KFWN V0203105N00515018295MN0160935N5-00115-01395101135ADDAA101000095GA1085+018295999GD14991+0182959GE19AGL   +99999+99999GF199999999999018291999999MA1101085099565OC101245OD149901441290REMMET11601/04/25 13:53:02 METAR KFWN 041853Z 31010G24KT 10SM OVC060 M01/M14 A2985 RMK AO2 PK WND 29028/1843 SLP113 T10111139
0255740001547932025010419537+41199-074626FM-15+0128KFWN V0202705V00465019815MN0160935N5-00115-01285101195ADDAA101000095GA1085+019815999GD14991+0198159GE19AGL   +99999+99999GF199999999999019811999999MA1101155099625OC101085OD149901331260REMMET11601/04/25 14:53:02 METAR KFWN 041953Z 27009G21KT 10SM OVC065 M01/M13 A2987 RMK AO2 PK WND 26026/1911 SLP119 T10111128
0232740001547932025010420537+41199-074626FM-15+0128KFWN V0202605N00265019815MN0160935N5-00115-01335101225ADDAA101000095GA1085+019815999GD14991+0198159GE19AGL   +99999+99999GF199999999999019811999999MA1101195099665MD1390109+9999REMMET10101/04/25 15:53:02 METAR KFWN 042053Z 26005KT 10SM OVC065 M01/M13 A2988 RMK AO2 SLP122 T10111133 53010
0223740001547932025010421537+41199-074626FM-15+0128KFWN V0202705V00365019815MN0160935N5-00175-01395101275ADDAA101000095GA1075+019815999GD13991+0198159GE19AGL   +99999+99999GF199999999999019811999999MA1101225099695OC101085REMMET09801/04/25 16:53:02 METAR KFWN 042153Z 27007G21KT 10SM BKN065 M02/M14 A2989 RMK AO2 SLP127 T10171139
0223740001547932025010422537+41199-074626FM-15+0128KFWN V0209999V00315021345MN0160935N5-00175-01335101305ADDAA101000095GA1085+021345999GD14991+0213459GE19AGL   +99999+99999GF199999999999021341999999MA1101255099725OC100825REMMET09801/04/25 17:53:02 METAR KFWN 042253Z VRB06G16KT 10SM OVC070 M02/M13 A2990 RMK AO2 SLP130 T10171133
0281740001547932025010423537+41199-074626FM-15+0128KFWN V0202505N00265021345MN0160935N5-00225-01335101345ADDAA101000095GA1085+021345999GD14991+0213459GE19AGL   +99999+99999GF199999999999021341999999KA1060M+00001KA2060N-00221MA1101295099765MD1190129+9999OC101245REMMET11601/04/25 18:53:02 METAR KFWN 042353Z 25005G24KT 10SM OVC070 M02/M13 A2991 RMK AO2 SLP134 T10221133 10000 21022 51012
0261740001547932025010500537+41199-074626FM-15+0128KFWN V0202505N00365022865MN0160935N5-00225-01335101365ADDAA101000095GA1045+016765999GA2075+022865999GD12991+0167659GD23991+0228659GE19AGL   +99999+99999GF199999999999016761999999MA1101325099795OC100825REMMET10501/04/25 19:53:01 METAR KFWN 050053Z 25007G16KT 10SM SCT055 BKN075 M02/M13 A2992 RMK AO2 SLP136 T10221133
0223740001547932025010501537+41199-074626FM-15+0128KFWN V0202705N00515016765MN0160935N5-00285-01335101375ADDAA101000095GA1075+016765999GD13991+0167659GE19AGL   +99999+99999GF199999999999016761999999MA1101325099795OC101085REMMET09801/04/25 20:53:01 METAR KFWN 050153Z 27010G21KT 10SM BKN055 M03/M13 A2992 RMK AO2 SLP137 T10281133
0232740001547932025010502537+41199-074626FM-15+0128KFWN V0202605V00415016765MN0160935N5-00285-01335101385ADDAA101000095GA1075+016765999GD13991+0167659GE19AGL   +99999+99999GF199999999999016761999999MA1101325099795MD1190049+9999REMMET10101/04/25 21:53:01 METAR KFWN 050253Z 26008KT 10SM BKN055 M03/M13 A2992 RMK AO2 SLP138 T10281133 51004
0223740001547932025010503537+41199-074626FM-15+0128KFWN V0202505V00415014635MN0160935N5-00225-01285101415ADDAA101000095GA1085+014635999GD14991+0146359GE19AGL   +99999+99999GF199999999999014631999999MA1101355099835OC100985REMMET09801/04/25 22:53:02 METAR KFWN 050353Z 25008G19KT 10SM OVC048 M02/M13 A2993 RMK AO2 SLP141 T10221128
0259740001547932025010504537+41199-074626FM-15+0128KFWN V0202605N00315014025MN0160935N5-00285-01225101445ADDAA101000095GA1085+014025999GD14991+0140259GE19AGL   +99999+99999GF199999999999014021999999KA1240M+00001KA2240N-00281MA1101395099865OC100885REMMET10801/04/25 23:53:02 METAR KFWN 050453Z 26006G17KT 10SM OVC046 M03/M12 A2994 RMK AO2 SLP144 T10281122 400001028
0898740001547932025010504596+41199-074626SOD  +0128KFWN V020999999999999999999999999999+99999+99999999999ADDAA124000025AT1AU18SN  5KA1240M+00005KA2240N-00275MG1099484100714OE11240160933010275OE22240089429011165OE33240039899999995REMSOD73024 HR PRECIPITATION (IN):T     24 HR MAX TEMP (F):32 24 HR MAX TEMP TIME (LST):1334 24 HR MIN TEMP (F):27 24 HR MIN TEMP TIME (LST):2355 AVERAGE STATION PRESSURE:29.375 MINIMUM SEA LEVEL PRESSURE:29.74 TIME OF OCCURRENCE:0117 PEAK WIND SPEED (MPH):36  PEAK WIND DIR (DEG):330 PEAK WIND TIME (LST):1027  FASTEST 2MIN SPEED (MPH):20 FASTEST 2MIN DIR (DEG):290 FASTEST 2MIN TIME (LST):1116 AVERAGE WIND SPEED (MPH):8.9  24 HR AVG TEMP (F):30 HEATING DEGREE DAYS:35  COOLING DEGREE DAYS:0   LATEST DAY MAX TEMP (0700-1900 LST):32  LATEST NIGHT MIN TEMP(1900-0800 LST):26 HOURLY INCREMENTAL PRECIPITATION VALUES (IN):.00 T    T    0.00 0.00 0.00 0.00 0.00 0.00 0.00 0.00 0.00 0.00 0.00 0.00 0.00 0.00 0.00 0.00 0.00 0.00 0.00 0.00 0.00EQDR01     N7GJS072R02     N7GKS075
0270740001547932025010505537+41199-074626FM-15+0128KFWN V0209999V00265014335MN0160935N5-00285-01225101455ADDAA101000095GA1085+014335999GD14991+0143359GE19AGL   +99999+99999GF199999999999014331999999KA1060M-00221KA2060N-00281MA1101395099865MD1190079+9999REMMET11301/05/25 00:53:02 METAR KFWN 050553Z VRB05KT 10SM OVC047 M03/M12 A2994 RMK AO2 SLP145 T10281122 11022 21028 51007
0212740001547932025010506537+41199-074626FM-15+0128KFWN V0209999V00265013415MN0160935N5-00285-01225101505ADDAA101000095GA1085+013415999GD14991+0134159GE19AGL   +99999+99999GF199999999999013411999999MA1101465099935REMMET09501/05/25 01:53:02 METAR KFWN 050653Z VRB05KT 10SM OVC044 M03/M12 A2996 RMK AO2 SLP150 T10281122
0212740001547932025010507537+41199-074626FM-15+0128KFWN V0209999N99999012805MN0160935N5-00285-01175101515ADDAA101000095GA1085+012805999GD14991+0128059GE19AGL   +99999+99999GF199999999999012801999999MA1101465099935REMMET09501/05/25 02:53:02 METAR KFWN 050753Z      KT 10SM OVC042 M03/M12 A2996 RMK AO2 SLP151 T10281117
0232740001547932025010508537+41199-074626FM-15+0128KFWN V0209999V00265012805MN0160935N5-00285-01175101525ADDAA101000095GA1085+012805999GD14991+0128059GE19AGL   +99999+99999GF199999999999012801999999MA1101465099935MD1190069+9999REMMET10101/05/25 03:53:02 METAR KFWN 050853Z VRB05KT 10SM OVC042 M03/M12 A2996 RMK AO2 SLP152 T10281117 51006
0212740001547932025010509537+41199-074626FM-15+0128KFWN V0209999V00215013115MN0160935N5-00285-01175101515ADDAA101000095GA1085+013115999GD14991+0131159GE19AGL   +99999+99999GF199999999999013111999999MA1101465099935REMMET09501/05/25 04:53:02 METAR KFWN 050953Z VRB04KT 10SM OVC043 M03/M12 A2996 RMK AO2 SLP151 T10281117
0212740001547932025010510537+41199-074626FM-15+0128KFWN V0209999V00315013115MN0160935N5-00285-01115101555ADDAA101000095GA1085+013115999GD14991+0131159GE19AGL   +99999+99999GF199999999999013111999999MA1101495099965REMMET09501/05/25 05:53:02 METAR KFWN 051053Z VRB06KT 10SM OVC043 M03/M11 A2997 RMK AO2 SLP155 T10281111
0270740001547932025010511537+41199-074626FM-15+0128KFWN V0209999V00215012505MN0160935N5-00285-01065101575ADDAA101000095GA1085+012505999GD14991+0125059GE19AGL   +99999+99999GF199999999999012501999999KA1060M-00221KA2060N-00281MA1101525099995MD1390069+9999REMMET11301/05/25 06:53:02 METAR KFWN 051153Z VRB04KT 10SM OVC041 M03/M11 A2998 RMK AO2 SLP157 T10281106 11022 21028 53006
0212740001547932025010512537+41199-074626FM-15+0128KFWN V0209999V00215012805MN0160935N5-00225-01115101595ADDAA101000095GA1085+012805999GD14991+0128059GE19AGL   +99999+99999GF199999999999012801999999MA1101525099995REMMET09501/05/25 07:53:02 METAR KFWN 051253Z VRB04KT 10SM OVC042 M02/M11 A2998 RMK AO2 SLP159 T10221111
0212740001547932025010513537+41199-074626FM-15+0128KFWN V0202405N00265013115MN0160935N5-00225-01115101625ADDAA101000095GA1085+013115999GD14991+0131159GE19AGL   +99999+99999GF199999999999013111999999MA1101595100065REMMET09501/05/25 08:53:02 METAR KFWN 051353Z 24005KT 10SM OVC043 M02/M11 A3000 RMK AO2 SLP162 T10221111
0232740001547932025010514537+41199-074626FM-15+0128KFWN V0203305N00315012505MN0160935N5-00225-01115101705ADDAA101000095GA1085+012505999GD14991+0125059GE19AGL   +99999+99999GF199999999999012501999999MA1101665100135MD1390139+9999REMMET10101/05/25 09:53:02 METAR KFWN 051453Z 33006KT 10SM OVC041 M02/M11 A3002 RMK AO2 SLP170 T10221111 53013
0212740001547932025010515537+41199-074626FM-15+0128KFWN V0202905V00365012805MN0160935N5-00225-01065101695ADDAA101000095GA1085+012805999GD14991+0128059GE19AGL   +99999+99999GF199999999999012801999999MA1101635100095REMMET09501/05/25 10:53:02 METAR KFWN 051553Z 29007KT 10SM OVC042 M02/M11 A3001 RMK AO2 SLP169 T10221106
0212740001547932025010516537+41199-074626FM-15+0128KFWN V0203005V00415012195MN0160935N5-00175-01115101645ADDAA101000095GA1085+012195999GD14991+0121959GE19AGL   +99999+99999GF199999999999012191999999MA1101595100065REMMET09501/05/25 11:53:02 METAR KFWN 051653Z 30008KT 10SM OVC040 M02/M11 A3000 RMK AO2 SLP164 T10171111
0281740001547932025010517537+41199-074626FM-15+0128KFWN V0202805N00365013415MN0160935N5-00175-01175101615ADDAA101000095GA1085+013415999GD14991+0134159GE19AGL   +99999+99999GF199999999999013411999999KA1060M-00171KA2060N-00281MA1101565100035MD1890099+9999OC100775REMMET11601/05/25 12:53:02 METAR KFWN 051753Z 28007G15KT 10SM OVC044 M02/M12 A2999 RMK AO2 SLP161 T10171117 11017 21028 58009
0212740001547932025010518537+41199-074626FM-15+0128KFWN V0202805V00415014025MN0160935N5-00115-01175101635ADDAA101000095GA1085+014025999GD14991+0140259GE19AGL   +99999+99999GF199999999999014021999999MA1101595100065REMMET09501/05/25 13:53:02 METAR KFWN 051853Z 28008KT 10SM OVC046 M01/M12 A3000 RMK AO2 SLP163 T10111117
0223740001547932025010519537+41199-074626FM-15+0128KFWN V0202605N00465014025MN0160935N5-00115-01175101675ADDAA101000095GA1085+014025999GD14991+0140259GE19AGL   +99999+99999GF199999999999014021999999MA1101635100095OC100885REMMET09801/05/25 14:53:02 METAR KFWN 051953Z 26009G17KT 10SM OVC046 M01/M12 A3001 RMK AO2 SLP167 T10111117
0275740001547932025010520537+41199-074626FM-15+0128KFWN V0202905V00465014025MN0160935N5-00115-01175101725ADDAA101000095GA1085+014025999GD14991+0140259GE19AGL   +99999+99999GF199999999999014021999999MA1101665100135MD1390119+9999OC100825OD149901331260REMMET12201/05/25 15:53:02 METAR KFWN 052053Z 29009G16KT 10SM OVC046 M01/M12 A3002 RMK AO2 PK WND 26026/1958 SLP172 T10111117 53011
0212740001547932025010521537+41199-074626FM-15+0128KFWN V0202705N00365013725MN0160935N5-00175-01175101725ADDAA101000095GA1085+013725999GD14991+0137259GE19AGL   +99999+99999GF199999999999013721999999MA1101665100135REMMET09501/05/25 16:53:02 METAR KFWN 052153Z 27007KT 10SM OVC045 M02/M12 A3002 RMK AO2 SLP172 T10171117
0231740001547932025010522537+41199-074626FM-15+0128KFWN V0202605N003652200059N0160935N5-00175-01115101755ADDAA101000095GA1025+013115999GD11991+0131159GE19AGL   +99999+99999GF102995999999013111999999MA1101695100165REMMET09501/05/25 17:53:02 METAR KFWN 052253Z 26007KT 10SM FEW043 M02/M11 A3003 RMK AO2 SLP175 T10171111EQDD01      0ADE726
0270740001547932025010523537+41199-074626FM-15+0128KFWN V0209999V00215012195MN0160935N5-00175-01115101775ADDAA101000095GA1085+012195999GD14991+0121959GE19AGL   +99999+99999GF199999999999012191999999KA1060M-00061KA2060N-00221MA1101735100195MD1390059+9999REMMET11301/05/25 18:53:02 METAR KFWN 052353Z VRB04KT 10SM OVC040 M02/M11 A3004 RMK AO2 SLP177 T10171111 11006 21022 53005
0164740001547932025010600536+41199-074626FM-15+0128KFWN V0209999V00155010975MN0160935N5-00175-01005101755ADDAA101000095GA1085+010975999GD14991+0109759MA1101695100165REMMET09501/05/25 19:53:03 METAR KFWN 060053Z VRB03KT 10SM OVC036 M02/M10 A3003 RMK AO2 SLP175 T10171100
0231740001547932025010601537+41199-074626FM-15+0128KFWN V0202905N003652200059N0160935N5-00175-00945101715ADDAA101000095GA1025+010975999GD11991+0109759GE19AGL   +99999+99999GF102995999999010971999999MA1101665100135REMMET09501/05/25 20:53:01 METAR KFWN 060153Z 29007KT 10SM FEW036 M02/M09 A3002 RMK AO2 SLP171 T10171094EQDD01      0ADE726
0251740001547932025010602537+41199-074626FM-15+0128KFWN V0209999C000052200059N0160935N5-00225-00945101705ADDAA101000095GA1025+010675999GD11991+0106759GE19AGL   +99999+99999GF102995999999010671999999MA1101665100135MD1690069+9999REMMET10101/05/25 21:53:01 METAR KFWN 060253Z 00000KT 10SM FEW035 M02/M09 A3002 RMK AO2 SLP170 T10221094 56006EQDD01      0ADE726
0212740001547932025010603537+41199-074626FM-15+0128KFWN V0209999C00005010065MN0160935N5-00175-00895101735ADDAA101000095GA1075+010065999GD13991+0100659GE19AGL   +99999+99999GF199999999999010061999999MA1101695100165REMMET09501/05/25 22:53:02 METAR KFWN 060353Z 00000KT 10SM BKN033 M02/M09 A3003 RMK AO2 SLP173 T10171089
0248740001547932025010604537+41199-074626FM-15+0128KFWN V0203405N00265009755MN0160935N5-00175-00895101675ADDAA101000095GA1085+009755999GD14991+0097559GE19AGL   +99999+99999GF199999999999009751999999KA1240M-00061KA2240N-00281MA1101635100095REMMET10501/05/25 23:53:02 METAR KFWN 060453Z 34005KT 10SM OVC032 M02/M09 A3001 RMK AO2 SLP167 T10171089 410061028
0886740001547932025010604596+41199-074626SOD  +0128KFWN V020999999999999999999999999999+99999+99999999999ADDAA124000095KA1240M-00055KA2240N-00275MG1100004101424OE11240129626014585OE22240071528014115OE33240028299999995REMSOD73024 HR PRECIPITATION (IN):0.00  24 HR MAX TEMP (F):31 24 HR MAX TEMP TIME (LST):1438 24 HR MIN TEMP (F):27 24 HR MIN TEMP TIME (LST):2222 AVERAGE STATION PRESSURE:29.530 MINIMUM SEA LEVEL PRESSURE:29.95 TIME OF OCCURRENCE:0043 PEAK WIND SPEED (MPH):29  PEAK WIND DIR (DEG):260 PEAK WIND TIME (LST):1458  FASTEST 2MIN SPEED (MPH):16 FASTEST 2MIN DIR (DEG):280 FASTEST 2MIN TIME (LST):1411 AVERAGE WIND SPEED (MPH):6.3  24 HR AVG TEMP (F):29 HEATING DEGREE DAYS:36  COOLING DEGREE DAYS:0   LATEST DAY MAX TEMP (0700-1900 LST):31  LATEST NIGHT MIN TEMP(1900-0800 LST):27 HOURLY INCREMENTAL PRECIPITATION VALUES (IN):.00 0.00 0.00 0.00 0.00 0.00 0.00 0.00 0.00 0.00 0.00 0.00 0.00 0.00 0.00 0.00 0.00 0.00 0.00 0.00 0.00 0.00 0.00 0.00EQDR01     N7GJS072R02     N7GKS075
0270740001547932025010605537+41199-074626FM-15+0128KFWN V0209999V00155009755MN0160935N5-00175-00895101645ADDAA101000095GA1085+009755999GD14991+0097559GE19AGL   +99999+99999GF199999999999009751999999KA1060M-00171KA2060N-00281MA1101595100065MD1890069+9999REMMET11301/06/25 00:53:02 METAR KFWN 060553Z VRB03KT 10SM OVC032 M02/M09 A3000 RMK AO2 SLP164 T10171089 11017 21028 58006
0212740001547932025010606537+41199-074626FM-15+0128KFWN V0209999C00005009455MN0160935N5-00115-00835101605ADDAA101000095GA1085+009455999GD14991+0094559GE19AGL   +99999+99999GF199999999999009451999999MA1101565100035REMMET09501/06/25 01:53:02 METAR KFWN 060653Z 00000KT 10SM OVC031 M01/M08 A2999 RMK AO2 SLP160 T10111083
0212740001547932025010607537+41199-074626FM-15+0128KFWN V0203305N00155009145MN0160935N5-00115-00835101665ADDAA101000095GA1085+009145999GD14991+0091459GE19AGL   +99999+99999GF199999999999009141999999MA1101635100095REMMET09501/06/25 02:53:02 METAR KFWN 060753Z 33003KT 10SM OVC030 M01/M08 A3001 RMK AO2 SLP166 T10111083
0194740001547932025010608327+41199-074626FM-16+0128KFWN V0203305N00215008845MN0160935N5-00115-00835999999ADDGA1085+008845999GD14991+0088459GE19AGL   +99999+99999GF199999999999008841999999MA1101525099995REMMET08801/06/25 03:32:02 SPECI KFWN 060832Z 33004KT 10SM OVC029 M01/M08 A2998 RMK AO2 T10111083
0232740001547932025010608537+41199-074626FM-15+0128KFWN V0203305N00215008845MN0160935N5-00175-00785101555ADDAA101000095GA1085+008845999GD14991+0088459GE19AGL   +99999+99999GF199999999999008841999999MA1101525099995MD1890089+9999REMMET10101/06/25 03:53:02 METAR KFWN 060853Z 33004KT 10SM OVC029 M02/M08 A2998 RMK AO2 SLP155 T10171078 58008
0212740001547932025010609537+41199-074626FM-15+0128KFWN V0209999C00005008235MN0160935N5-00175-00785101445ADDAA101000095GA1075+008235999GD13991+0082359GE19AGL   +99999+99999GF199999999999008231999999MA1101395099865REMMET09501/06/25 04:53:02 METAR KFWN 060953Z 00000KT 10SM BKN027 M02/M08 A2994 RMK AO2 SLP144 T10171078
0213740001547932025010610107+41199-074626FM-16+0128KFWN V0200105N001552200059N0160935N5-00175-00785999999ADDGA1025+008235999GD11991+0082359GE19AGL   +99999+99999GF102995999999008231999999MA1101425099895REMMET08801/06/25 05:10:02 SPECI KFWN 061010Z 01003KT 10SM FEW027 M02/M08 A2995 RMK AO2 T10171078EQDD01      0ADE726
0187740001547932025010610537+41199-074626FM-15+0128KFWN V0209999C000052200059N0160935N5-00175-00785101465ADDAA101000095GA1005+999999999GD10991+9999999GF100991999999999999999999MA1101425099895REMMET09201/06/25 05:53:02 METAR KFWN 061053Z 00000KT 10SM CLR M02/M08 A2995 RMK AO2 SLP146 T10171078
0270740001547932025010611537+41199-074626FM-15+0128KFWN V0209999C00005036585MN0160935N5-00225-00725101385ADDAA101000095GA1075+036585999GD13991+0365859GE19AGL   +99999+99999GF199999999999036581999999KA1060M-00111KA2060N-00221MA1101325099795MD1690179+9999REMMET11301/06/25 06:53:02 METAR KFWN 061153Z 00000KT 10SM BKN120 M02/M07 A2992 RMK AO2 SLP138 T10221072 11011 21022 56017
0212740001547932025010612537+41199-074626FM-15+0128KFWN V0209999C00005028965MN0160935N5-00225-00725101375ADDAA101000095GA1085+028965999GD14991+0289659GE19AGL   +99999+99999GF199999999999028961999999MA1101325099795REMMET09501/06/25 07:53:02 METAR KFWN 061253Z 00000KT 10SM OVC095 M02/M07 A2992 RMK AO2 SLP137 T10221072
0212740001547932025010613537+41199-074626FM-15+0128KFWN V0209999C00005022865MN0160935N5-00175-00675101285ADDAA101000095GA1085+022865999GD14991+0228659GE19AGL   +99999+99999GF199999999999022861999999MA1101225099695REMMET09501/06/25 08:53:02 METAR KFWN 061353Z 00000KT 10SM OVC075 M02/M07 A2989 RMK AO2 SLP128 T10171067
0344740001547932025010614537+41199-074626FM-15+0128KFWN V0200205N00155012505MN0080475N5-00175-00675101225ADDAA101000025AA203000021AU110030015AW1715GA1075+012505999GA2085+015245999GD13991+0125059GD24991+0152459GE19AGL   +99999+99999GF199999999999012501999999MA1101195099665MD1890169+9999MW1715REMMET12901/06/25 09:53:02 METAR KFWN 061453Z 02003KT 5SM -SN BKN041 OVC050 M02/M07 A2988 RMK AO2 SNB52 SLP122 P0000 60000 T10171067 58016EQDQ01  00008PRCP03
0279740001547932025010615047+41199-074626FM-16+0128KFWN V0200305N00215009455MN0028165N5-00225-00615999999ADDAA101000021AU110030015AW1715GA1075+009455999GA2085+011895999GD13991+0094559GD24991+0118959GE19AGL   +99999+99999GF199999999999009451999999MA1101125099595MW1715REMMET10801/06/25 10:04:02 SPECI KFWN 061504Z 03004KT 1 3/4SM -SN BKN031 OVC039 M02/M06 A2986 RMK AO2 P0000 T10221061
0279740001547932025010615087+41199-074626FM-16+0128KFWN V0200205N00215008845MN0020125N5-00225-00615999999ADDAA101000021AU110030015AW1715GA1075+008845999GA2085+011895999GD13991+0088459GD24991+0118959GE19AGL   +99999+99999GF199999999999008841999999MA1101155099625MW1715REMMET10801/06/25 10:08:02 SPECI KFWN 061508Z 02004KT 1 1/4SM -SN BKN029 OVC039 M02/M06 A2987 RMK AO2 P0000 T10221061
0241740001547932025010615207+41199-074626FM-16+0128KFWN V0200305N00215007625MN0024145N5-00225-00565999999ADDAA101000021AU110030015AW1715GA1085+007625999GD14991+0076259GE19AGL   +99999+99999GF199999999999007621999999MA1101155099625MW1715REMMET10101/06/25 10:20:02 SPECI KFWN 061520Z 03004KT 1 1/2SM -SN OVC025 M02/M06 A2987 RMK AO2 P0000 T10221056
0237740001547932025010615317+41199-074626FM-16+0128KFWN V0200405N00215007015MN0016095N5-00225-00505999999ADDAA101000021AU110030015AW1715GA1085+007015999GD14991+0070159GE19AGL   +99999+99999GF199999999999007011999999MA1101155099625MW1715REMMET09701/06/25 10:31:02 SPECI KFWN 061531Z 04004KT 1SM -SN OVC023 M02/M05 A2987 RMK AO2 P0000 T10221050
0264740001547932025010615537+41199-074626FM-15+0128KFWN V0200405N00215007015MN0016095N5-00285-00505101135ADDAA101000025AU110030015AU200001015AW1105AW2715GA1085+007015999GD14991+0070159GE19AGL   +99999+99999GF199999999999007011999999MA1101085099565MW1715REMMET10701/06/25 10:53:02 METAR KFWN 061553Z 04004KT 1SM -SN BR OVC023 M03/M05 A2985 RMK AO2 SLP113 P0000 T10281050
0258740001547932025010616167+41199-074626FM-16+0128KFWN V0200405N00265005795WN0012075N5-00285-00505999999ADDAA101000231AU110030015AU200001015AW1105AW2715GA1095+005795999GD15991+0057959GE19AGL   +99999+99999GF109991999999005791999999MA1101025099495MW1715REMMET10101/06/25 11:16:02 SPECI KFWN 061616Z 04005KT 3/4SM -SN BR VV019 M03/M05 A2983 RMK AO2 P0001 T10281050
0257740001547932025010616307+41199-074626FM-16+0128KFWN V0200205N00265006405MN0016095N5-00285-00505999999ADDAA101000231AU110030015AU200001015AW1105AW2715GA1085+006405999GD14991+0064059GE19AGL   +99999+99999GF199999999999006401999999MA1100985099465MW1715REMMET10001/06/25 11:30:02 SPECI KFWN 061630Z 02005KT 1SM -SN BR OVC021 M03/M05 A2982 RMK AO2 P0001 T10281050
0299740001547932025010616437+41199-074626FM-16+0128KFWN V0200405N00215007015MN0024145N5-00285-00505999999ADDAA101000231AU110030015AU200001015AW1105AW2715GA1075+007015999GA2085+010675999GD13991+0070159GD24991+0106759GE19AGL   +99999+99999GF199999999999007011999999MA1100955099425MW1715REMMET11101/06/25 11:43:02 SPECI KFWN 061643Z 04004KT 1 1/2SM -SN BR BKN023 OVC035 M03/M05 A2981 RMK AO2 P0001 T10281050
0306740001547932025010616537+41199-074626FM-15+0128KFWN V0200505N00265007625MN0028165N5-00285-00505100965ADDAA101000395AU110030015AU200001015AW1105AW2715GA1075+007625999GA2085+010675999GD13991+0076259GD24991+0106759GE19AGL   +99999+99999GF199999999999007621999999MA1100915099395MW1715REMMET11801/06/25 11:53:02 METAR KFWN 061653Z 05005KT 1 3/4SM -SN BR BKN025 OVC035 M03/M05 A2980 RMK AO2 SLP096 P0001 T10281050
0275740001547932025010617017+41199-074626FM-16+0128KFWN V0200405N00215008845MN0048285N5-00285-00565999999ADDAA101000021AU110030015AW1715GA1075+008845999GA2085+011585999GD13991+0088459GD24991+0115859GE19AGL   +99999+99999GF199999999999008841999999MA1100915099395MW1715REMMET10401/06/25 12:01:02 SPECI KFWN 061701Z 04004KT 3SM -SN BKN029 OVC038 M03/M06 A2980 RMK AO2 P0000 T10281056
0313740001547932025010617167+41199-074626FM-16+0128KFWN V0200305N00155010975MN0096565N5-00285-00565999999ADDAA101000021AU110030015AW1715GA1075+010975999GA2075+014335999GA3085+019815999GD13991+0109759GD23991+0143359GD34991+0198159GE19AGL   +99999+99999GF199999999999010971999999MA1100885099365MW1715REMMET11101/06/25 12:16:02 SPECI KFWN 061716Z 03003KT 6SM -SN BKN036 BKN047 OVC065 M03/M06 A2979 RMK AO2 P0000 T10281056
0356740001547932025010617537+41199-074626FM-15+0128KFWN V0200805N00215019815MN0160935N5-00225-00565100865ADDAA101000025AA206000391GA1025+003665999GA2085+019815999GD11991+0036659GD24991+0198159GE19AGL   +99999+99999GF199999999999003661999999KA1060M-00171KA2060N-00281MA1100815099295MD1890359+9999REMMET13801/06/25 12:53:02 METAR KFWN 061753Z 08004KT 10SM FEW012 OVC065 M02/M06 A2977 RMK AO2 SNE20 SLP086 P0000 60001 T10221056 11017 21028 58035EQDQ01  00028PRCP06
0302740001547932025010618537+41199-074626FM-15+0128KFWN V0200705N00215011895MN0128755N5-00225-00565100745ADDAA101000395GA1045+008535999GA2075+011895999GA3085+019815999GD12991+0085359GD23991+0118959GD34991+0198159GE19AGL   +99999+99999GF199999999999008531999999MA1100715099195REMMET12301/06/25 13:53:02 METAR KFWN 061853Z 07004KT 8SM SCT028 BKN039 OVC065 M02/M06 A2974 RMK AO2 SNB10E24 SLP074 P0001 T10221056
0288740001547932025010619537+41199-074626FM-15+0128KFWN V0200905N00215019815MN0160935N5-00225-00565100665ADDAA101000095GA1045+006405999GA2075+019815999GA3085+022865999GD12991+0064059GD23991+0198159GD34991+0228659GE19AGL   +99999+99999GF199999999999006401999999MA1100615099095REMMET10901/06/25 14:53:02 METAR KFWN 061953Z 09004KT 10SM SCT021 BKN065 OVC075 M02/M06 A2971 RMK AO2 SLP066 T10221056
0232740001547932025010620437+41199-074626FM-16+0128KFWN V0200605N00215006105MN0160935N5-00225-00565999999ADDGA1075+006105999GA2085+021345999GD13991+0061059GD24991+0213459GE19AGL   +99999+99999GF199999999999006101999999MA1100545099025REMMET09501/06/25 15:43:02 SPECI KFWN 062043Z 06004KT 10SM BKN020 OVC070 M02/M06 A2969 RMK AO2 T10221056
0325740001547932025010620537+41199-074626FM-15+0128KFWN V0200605N00215006105MN0160935N5-00225-00565100575ADDAA101000095AA203000391GA1075+006105999GA2075+022865999GA3085+027435999GD13991+0061059GD23991+0228659GD34991+0274359GE19AGL   +99999+99999GF199999999999006101999999MA1100545099025MD1690299+9999REMMET12101/06/25 15:53:02 METAR KFWN 062053Z 06004KT 10SM BKN020 BKN075 OVC090 M02/M06 A2969 RMK AO2 SLP057 60001 T10221056 56029
0270740001547932025010621047+41199-074626FM-16+0128KFWN V0200405N00215027435MN0160935N5-00225-00565999999ADDGA1045+006405999GA2045+024385999GA3085+027435999GD12991+0064059GD22991+0243859GD34991+0274359GE19AGL   +99999+99999GF199999999999006401999999MA1100515098995REMMET10201/06/25 16:04:02 SPECI KFWN 062104Z 04004KT 10SM SCT021 SCT080 OVC090 M02/M06 A2968 RMK AO2 T10221056
0270740001547932025010621267+41199-074626FM-16+0128KFWN V0200605N00215006715MN0160935N5-00285-00565999999ADDGA1075+006715999GA2075+024385999GA3085+027435999GD13991+0067159GD23991+0243859GD34991+0274359GE19AGL   +99999+99999GF199999999999006711999999MA1100545099025REMMET10201/06/25 16:26:02 SPECI KFWN 062126Z 06004KT 10SM BKN022 BKN080 OVC090 M03/M06 A2969 RMK AO2 T10281056
0250740001547932025010621537+41199-074626FM-15+0128KFWN V0200305N00215006715MN0160935N5-00285-00565100565ADDAA101000095GA1075+006715999GA2085+024385999GD13991+0067159GD24991+0243859GE19AGL   +99999+99999GF199999999999006711999999MA1100515098995REMMET10201/06/25 16:53:02 METAR KFWN 062153Z 03004KT 10SM BKN022 OVC080 M03/M06 A2968 RMK AO2 SLP056 T10281056
0232740001547932025010622107+41199-074626FM-16+0128KFWN V0200505N00315024385MN0160935N5-00285-00565999999ADDGA1045+007015999GA2085+024385999GD12991+0070159GD24991+0243859GE19AGL   +99999+99999GF199999999999007011999999MA1100515098995REMMET09501/06/25 17:10:02 SPECI KFWN 062210Z 05006KT 10SM SCT023 OVC080 M03/M06 A2968 RMK AO2 T10281056
0250740001547932025010622537+41199-074626FM-15+0128KFWN V0200405N00315025915MN0160935N5-00335-00615100535ADDAA101000095GA1025+007625999GA2085+025915999GD11991+0076259GD24991+0259159GE19AGL   +99999+99999GF199999999999007621999999MA1100475098965REMMET10201/06/25 17:53:02 METAR KFWN 062253Z 04006KT 10SM FEW025 OVC085 M03/M06 A2967 RMK AO2 SLP053 T10331061
0287740001547932025010623537+41199-074626FM-15+0128KFWN V0209999V00215027435MN0160935N5-00395-00675100515ADDAA101000095AA206000391GA1085+027435999GD14991+0274359GE19AGL   +99999+99999GF199999999999027431999999KA1060M-00171KA2060N-00391MA1100475098965MD1890069+9999REMMET11901/06/25 18:53:02 METAR KFWN 062353Z VRB04KT 10SM OVC090 M04/M07 A2967 RMK AO2 SLP051 60001 T10391067 11017 21039 58006
0250740001547932025010700537+41199-074626FM-15+0128KFWN V0203205N00265027435MN0160935N5-00335-01005100475ADDAA101000095GA1075+027435999GA2075+033535999GD13991+0274359GD23991+0335359GE19AGL   +99999+99999GF199999999999027431999999MA1100445098925REMMET10201/06/25 19:53:01 METAR KFWN 070053Z 32005KT 10SM BKN090 BKN110 M03/M10 A2966 RMK AO2 SLP047 T10331100
0255740001547932025010701537+41199-074626FM-15+0128KFWN V0203605N00415030485MN0160935N5-00505-01225100515ADDAA101000095GA1085+030485999GD14991+0304859GE19AGL   +99999+99999GF199999999999030481999999MA1100475098965OC101035OD149901331350REMMET11601/06/25 20:53:01 METAR KFWN 070153Z 36008G20KT 10SM OVC100 M05/M12 A2967 RMK AO2 PK WND 35026/0117 SLP051 T10501122
0232740001547932025010702537+41199-074626FM-15+0128KFWN V0209999N99999033535MN0160935N5-00675-01335100635ADDAA101000095GA1075+033535999GD13991+0335359GE19AGL   +99999+99999GF199999999999033531999999MA1100585099065MD1390129+9999REMMET10101/06/25 21:53:01 METAR KFWN 070253Z      KT 10SM BKN110 M07/M13 A2970 RMK AO2 SLP063 T10671133 53012
0231740001547932025010703537+41199-074626FM-15+0128KFWN V0209999N999992200059N0160935N5-00835-01505100765ADDAA101000095GA1045+030485999GD12991+0304859GE19AGL   +99999+99999GF104995999999030481999999MA1100715099195REMMET09501/06/25 22:53:02 METAR KFWN 070353Z      KT 10SM SCT100 M08/M15 A2974 RMK AO2 SLP076 T10831150EQDD01      0ADE726
0141740001547932025010704516+41199-074626FM-16+0128KFWN V0209999999999008845MN0160935N5-00905-01505999999ADDGA1075+008845999GD13991+0088459MA1100785099265REMMET08301/06/25 23:51:03 SPECI KFWN 070451Z      KT 10SM BKN029 M09/M15 A2976 RMK AO2 FIBI
0259740001547932025010704537+41199-074626FM-15+0128KFWN V0203305N00465008845MN0160935N5-00835-01505100835ADDAA101000095GA1075+008845999GD13991+0088459GE19AGL   +99999+99999GF199999999999008841999999KA1240M-00111KA2240N-00891MA1100785099265OC100775REMMET10801/06/25 23:53:02 METAR KFWN 070453Z 33009G15KT 10SM BKN029 M08/M15 A2976 RMK AO2 SLP083 T10831150 410111089
0910740001547932025010704596+41199-074626SOD  +0128KFWN V020999999999999999999999999999+99999+99999999999ADDAA124000595AT1AU18SN  5AT2AU13BR  5KA1240M-00105KA2240N-00885MG1099514100474OE11240129635020175OE22240076035023385OE33240017499999995REMSOD73024 HR PRECIPITATION (IN):0.02  24 HR MAX TEMP (F):30 24 HR MAX TEMP TIME (LST):0427 24 HR MIN TEMP (F):16 24 HR MIN TEMP TIME (LST):2352 AVERAGE STATION PRESSURE:29.385 MINIMUM SEA LEVEL PRESSURE:29.67 TIME OF OCCURRENCE:2016 PEAK WIND SPEED (MPH):29  PEAK WIND DIR (DEG):350 PEAK WIND TIME (LST):2017  FASTEST 2MIN SPEED (MPH):17 FASTEST 2MIN DIR (DEG):350 FASTEST 2MIN TIME (LST):2338 AVERAGE WIND SPEED (MPH):3.9  24 HR AVG TEMP (F):23 HEATING DEGREE DAYS:42  COOLING DEGREE DAYS:0   LATEST DAY MAX TEMP (0700-1900 LST):29  LATEST NIGHT MIN TEMP(1900-0800 LST):27 HOURLY INCREMENTAL PRECIPITATION VALUES (IN):.00 0.00 0.00 0.00 0.00 0.00 0.00 0.00 0.00 T    T    0.01 T    0.01 0.00 0.00 0.00 0.00 0.00 0.00 0.00 0.00 0.00 0.00EQDR01     N7GJS072R02     N7GKS075
0194740001547932025010705307+41199-074626FM-16+0128KFWN V0209999N99999009145MN0160935N5-00785-01445999999ADDGA1085+009145999GD14991+0091459GE19AGL   +99999+99999GF199999999999009141999999MA1100815099295REMMET08801/07/25 00:30:02 SPECI KFWN 070530Z      KT 10SM OVC030 M08/M14 A2977 RMK AO2 T10781144
0270740001547932025010705537+41199-074626FM-15+0128KFWN V0209999V00265009755MN0160935N5-00785-01445100855ADDAA101000095GA1085+009755999GD14991+0097559GE19AGL   +99999+99999GF199999999999009751999999KA1060M-00281KA2060N-00891MA1100785099265MD1190219+9999REMMET11301/07/25 00:53:02 METAR KFWN 070553Z VRB05KT 10SM OVC032 M08/M14 A2976 RMK AO2 SLP085 T10781144 11028 21089 51021
0212740001547932025010706537+41199-074626FM-15+0128KFWN V0200305V00415010065MN0160935N5-00725-01445100835ADDAA101000095GA1085+010065999GD14991+0100659GE19AGL   +99999+99999GF199999999999010061999999MA1100785099265REMMET09501/07/25 01:53:02 METAR KFWN 070653Z 03008KT 10SM OVC033 M07/M14 A2976 RMK AO2 SLP083 T10721144
0223740001547932025010707537+41199-074626FM-15+0128KFWN V0203305V00415010065MN0160935N5-00675-01395100845ADDAA101000095GA1085+010065999GD14991+0100659GE19AGL   +99999+99999GF199999999999010061999999MA1100785099265OC101085REMMET09801/07/25 02:53:02 METAR KFWN 070753Z 33008G21KT 10SM OVC033 M07/M14 A2976 RMK AO2 SLP084 T10671139
0262740001547932025010708537+41199-074626FM-15+0128KFWN V0203305N005152200059N0160935N5-00675-01335100845ADDAA101000095GA1025+010365999GD11991+0103659GE19AGL   +99999+99999GF102995999999010361999999MA1100785099265MD1690019+9999OC101035REMMET10401/07/25 03:53:02 METAR KFWN 070853Z 33010G20KT 10SM FEW034 M07/M13 A2976 RMK AO2 SLP084 T10671133 56001EQDD01      0ADE726
0242740001547932025010709537+41199-074626FM-15+0128KFWN V0203205N004652200059N0160935N5-00675-01335100855ADDAA101000095GA1025+010975999GD11991+0109759GE19AGL   +99999+99999GF102995999999010971999999MA1100785099265OC101245REMMET09801/07/25 04:53:02 METAR KFWN 070953Z 32009G24KT 10SM FEW036 M07/M13 A2976 RMK AO2 SLP085 T10671133EQDD01      0ADE726
0212740001547932025010710537+41199-074626FM-15+0128KFWN V0209999V00155011585MN0160935N5-00615-01395100915ADDAA101000095GA1085+011585999GD14991+0115859GE19AGL   +99999+99999GF199999999999011581999999MA1100855099325REMMET09501/07/25 05:53:02 METAR KFWN 071053Z VRB03KT 10SM OVC038 M06/M14 A2978 RMK AO2 SLP091 T10611139
0287740001547932025010711537+41199-074626FM-15+0128KFWN V0209999N99999010975MN0160935N5-00615-01335100925ADDAA101000095AA224000591GA1085+010975999GD14991+0109759GE19AGL   +99999+99999GF199999999999010971999999KA1060M-00611KA2060N-00781MA1100885099365MD1190089+9999REMMET11901/07/25 06:53:02 METAR KFWN 071153Z      KT 10SM OVC036 M06/M13 A2979 RMK AO2 SLP092 70002 T10611133 11061 21078 51008
0223740001547932025010712537+41199-074626FM-15+0128KFWN V0203205V00465011285MN0160935N5-00615-01395101005ADDAA101000095GA1085+011285999GD14991+0112859GE19AGL   +99999+99999GF199999999999011281999999MA1100955099425OC100775REMMET09801/07/25 07:53:02 METAR KFWN 071253Z 32009G15KT 10SM OVC037 M06/M14 A2981 RMK AO2 SLP100 T10611139
0212740001547932025010713537+41199-074626FM-15+0128KFWN V0209999N99999011285MN0160935N5-00615-01395101085ADDAA101000095GA1085+011285999GD14991+0112859GE19AGL   +99999+99999GF199999999999011281999999MA1101025099495REMMET09501/07/25 08:53:02 METAR KFWN 071353Z      KT 10SM OVC037 M06/M14 A2983 RMK AO2 SLP108 T10611139
0232740001547932025010714537+41199-074626FM-15+0128KFWN V0209999C00005011585MN0160935N5-00505-01335101115ADDAA101000095GA1085+011585999GD14991+0115859GE19AGL   +99999+99999GF199999999999011581999999MA1101055099525MD1190199+9999REMMET10101/07/25 09:53:02 METAR KFWN 071453Z 00000KT 10SM OVC038 M05/M13 A2984 RMK AO2 SLP111 T10501133 51019
0212740001547932025010715537+41199-074626FM-15+0128KFWN V0209999N99999011585MN0160935N5-00395-01225101085ADDAA101000095GA1085+011585999GD14991+0115859GE19AGL   +99999+99999GF199999999999011581999999MA1101025099495REMMET09501/07/25 10:53:02 METAR KFWN 071553Z      KT 10SM OVC038 M04/M12 A2983 RMK AO2 SLP108 T10391122
0223740001547932025010716537+41199-074626FM-15+0128KFWN V0202705V00365012195MN0160935N5-00285-01175101065ADDAA101000095GA1085+012195999GD14991+0121959GE19AGL   +99999+99999GF199999999999012191999999MA1101025099495OC100775REMMET09801/07/25 11:53:02 METAR KFWN 071653Z 27007G15KT 10SM OVC040 M03/M12 A2983 RMK AO2 SLP106 T10281117
0270740001547932025010717537+41199-074626FM-15+0128KFWN V0209999N99999013725MN0160935N5-00175-01115100985ADDAA101000095GA1075+013725999GD13991+0137259GE19AGL   +99999+99999GF199999999999013721999999KA1060M-00171KA2060N-00611MA1100915099395MD1890139+9999REMMET11301/07/25 12:53:02 METAR KFWN 071753Z      KT 10SM BKN045 M02/M11 A2980 RMK AO2 SLP098 T10171111 11017 21061 58013
0261740001547932025010718537+41199-074626FM-15+0128KFWN V0203205V00415014335MN0160935N5-00115-01065101055ADDAA101000095GA1075+014335999GA2085+016765999GD13991+0143359GD24991+0167659GE19AGL   +99999+99999GF199999999999014331999999MA1101025099495OC101185REMMET10501/07/25 13:53:02 METAR KFWN 071853Z 32008G23KT 10SM BKN047 OVC055 M01/M11 A2983 RMK AO2 SLP105 T10111106
0261740001547932025010719537+41199-074626FM-15+0128KFWN V0203105V00415014335MN0160935N5-00115-01115101135ADDAA101000095GA1075+014335999GA2075+016765999GD13991+0143359GD23991+0167659GE19AGL   +99999+99999GF199999999999014331999999MA1101085099565OC101245REMMET10501/07/25 14:53:02 METAR KFWN 071953Z 31008G24KT 10SM BKN047 BKN055 M01/M11 A2985 RMK AO2 SLP113 T10111111
0184740001547932025010720536+41199-074626FM-15+0128KFWN V0209999V00315013725MN0160935N5-00175-01115101285ADDAA101000095GA1085+013725999GD14991+0137259MA1101225099695MD1390309+9999REMMET10101/07/25 15:53:02 METAR KFWN 072053Z VRB06KT 10SM OVC045 M02/M11 A2989 RMK AO2 SLP128 T10171111 53030
0255740001547932025010721537+41199-074626FM-15+0128KFWN V0203105V00575013115MN0160935N5-00285-01225101405ADDAA101000095GA1085+013115999GD14991+0131159GE19AGL   +99999+99999GF199999999999013111999999MA1101355099835OC101445OD149901441310REMMET11601/07/25 16:53:02 METAR KFWN 072153Z 31011G28KT 10SM OVC043 M03/M12 A2993 RMK AO2 PK WND 31028/2149 SLP140 T10281122
0223740001547932025010722537+41199-074626FM-15+0128KFWN V0203605N00315012195MN0160935N5-00335-01225101475ADDAA101000095GA1085+012195999GD14991+0121959GE19AGL   +99999+99999GF199999999999012191999999MA1101425099895OC101185REMMET09801/07/25 17:53:02 METAR KFWN 072253Z 36006G23KT 10SM OVC040 M03/M12 A2995 RMK AO2 SLP147 T10331122
0313740001547932025010723537+41199-074626FM-15+0128KFWN V0203005V00575012195MN0160935N5-00335-01225101535ADDAA101000095GA1085+012195999GD14991+0121959GE19AGL   +99999+99999GF199999999999012191999999KA1060M-00061KA2060N-00331MA1101495099965MD1190249+9999OC101135OD149901541300REMMET13401/07/25 18:53:02 METAR KFWN 072353Z 30011G22KT 10SM OVC040 M03/M12 A2997 RMK AO2 PK WND 30030/2301 SLP153 T10331122 11006 21033 51024
0223740001547932025010800537+41199-074626FM-15+0128KFWN V0203205N00465011585MN0160935N5-00335-01175101555ADDAA101000095GA1085+011585999GD14991+0115859GE19AGL   +99999+99999GF199999999999011581999999MA1101495099965OC101035REMMET09801/07/25 19:53:01 METAR KFWN 080053Z 32009G20KT 10SM OVC038 M03/M12 A2997 RMK AO2 SLP155 T10331117
0223740001547932025010801537+41199-074626FM-15+0128KFWN V0209999V00315011285MN0160935N5-00335-01175101585ADDAA101000095GA1085+011285999GD14991+0112859GE19AGL   +99999+99999GF199999999999011281999999MA1101525099995OC101245REMMET09801/07/25 20:53:01 METAR KFWN 080153Z VRB06G24KT 10SM OVC037 M03/M12 A2998 RMK AO2 SLP158 T10331117
0275740001547932025010802537+41199-074626FM-15+0128KFWN V0203205N00465012195MN0160935N5-00335-01175101575ADDAA101000095GA1085+012195999GD14991+0121959GE19AGL   +99999+99999GF199999999999012191999999MA1101525099995MD1190059+9999OC100985OD149901391320REMMET12201/07/25 21:53:01 METAR KFWN 080253Z 32009G19KT 10SM OVC040 M03/M12 A2998 RMK AO2 PK WND 32027/0221 SLP157 T10331117 51005
0212740001547932025010803537+41199-074626FM-15+0128KFWN V0203005V00365012195MN0160935N5-00335-01225101605ADDAA101000095GA1085+012195999GD14991+0121959GE19AGL   +99999+99999GF199999999999012191999999MA1101565100035REMMET09501/07/25 22:53:02 METAR KFWN 080353Z 30007KT 10SM OVC040 M03/M12 A2999 RMK AO2 SLP160 T10331122
0291740001547932025010804537+41199-074626FM-15+0128KFWN V0202805V00365012805MN0160935N5-00335-01285101575ADDAA101000095GA1085+012805999GD14991+0128059GE19AGL   +99999+99999GF199999999999012801999999KA1240M-00061KA2240N-00831MA1101525099995OC100825OD149901391310REMMET12601/07/25 23:53:02 METAR KFWN 080453Z 28007G16KT 10SM OVC042 M03/M13 A2998 RMK AO2 PK WND 31027/0416 SLP157 T10331128 410061083
0886740001547932025010804596+41199-074626SOD  +0128KFWN V020999999999999999999999999999+99999+99999999999ADDAA124000095KA1240M-00055KA2240N-00825MG1099484100814OE11240156530018015OE22240089430021225OE33240038099999995REMSOD73024 HR PRECIPITATION (IN):0.00  24 HR MAX TEMP (F):31 24 HR MAX TEMP TIME (LST):1422 24 HR MIN TEMP (F):17 24 HR MIN TEMP TIME (LST):0022 AVERAGE STATION PRESSURE:29.375 MINIMUM SEA LEVEL PRESSURE:29.77 TIME OF OCCURRENCE:0403 PEAK WIND SPEED (MPH):35  PEAK WIND DIR (DEG):300 PEAK WIND TIME (LST):1801  FASTEST 2MIN SPEED (MPH):20 FASTEST 2MIN DIR (DEG):300 FASTEST 2MIN TIME (LST):2122 AVERAGE WIND SPEED (MPH):8.5  24 HR AVG TEMP (F):24 HEATING DEGREE DAYS:41  COOLING DEGREE DAYS:0   LATEST DAY MAX TEMP (0700-1900 LST):31  LATEST NIGHT MIN TEMP(1900-0800 LST):16 HOURLY INCREMENTAL PRECIPITATION VALUES (IN):.00 0.00 0.00 0.00 0.00 0.00 0.00 0.00 0.00 0.00 0.00 0.00 0.00 0.00 0.00 0.00 0.00 0.00 0.00 0.00 0.00 0.00 0.00 0.00EQDR01     N7GJS072R02     N7GKS075
0288740001547932025010805537+41199-074626FM-15+0128KFWN V0209999C00005014635MN0160935N5-00395-01395101565ADDAA101000095GA1075+014635999GD13991+0146359GE19AGL   +99999+99999GF199999999999014631999999KA1060M-00331KA2060N-00391MA1101525099995MD1890019+9999REMMET13101/08/25 00:53:02 METAR KFWN 080553Z 00000KT 10SM BKN048 M04/M14 A2998 RMK AO2 PK WND 27027/0525 SLP156 T10391139 11033 21039 58001
0255740001547932025010806537+41199-074626FM-15+0128KFWN V0203205N00315013415MN0160935N5-00395-01285101555ADDAA101000095GA1085+013415999GD14991+0134159GE19AGL   +99999+99999GF199999999999013411999999MA1101495099965OC100775OD149901331340REMMET11601/08/25 01:53:02 METAR KFWN 080653Z 32006G15KT 10SM OVC044 M04/M13 A2997 RMK AO2 PK WND 34026/0605 SLP155 T10391128
0212740001547932025010807537+41199-074626FM-15+0128KFWN V0209999N99999014025MN0160935N5-00395-01285101545ADDAA101000095GA1085+014025999GD14991+0140259GE19AGL   +99999+99999GF199999999999014021999999MA1101495099965REMMET09501/08/25 02:53:02 METAR KFWN 080753Z      KT 10SM OVC046 M04/M13 A2997 RMK AO2 SLP154 T10391128
0232740001547932025010808537+41199-074626FM-15+0128KFWN V0209999N99999014335MN0160935N5-00445-01395101535ADDAA101000095GA1085+014335999GD14991+0143359GE19AGL   +99999+99999GF199999999999014331999999MA1101495099965MD1890039+9999REMMET10101/08/25 03:53:02 METAR KFWN 080853Z      KT 10SM OVC047 M04/M14 A2997 RMK AO2 SLP153 T10441139 58003
0257740001547932025010809537+41199-074626FM-15+0128KFWN V0203105V00465014025MN0160935N5-00505-01395101555ADDAA101000095GA1075+014025999GD13991+0140259GE19AGL   +99999+99999GF199999999999014021999999MA1101495099965OC101135OD149901541260REMMET11801/08/25 04:53:02 METAR KFWN 080953Z 31009G22KT 10SM BKN046 M05/M14 A2997 RMK AO2 PK WND 26030/0938 SLP155 T10501139 $
0214740001547932025010810537+41199-074626FM-15+0128KFWN V0209999V00215013415MN0160935N5-00565-01445101575ADDAA101000095GA1075+013415999GD13991+0134159GE19AGL   +99999+99999GF199999999999013411999999MA1101525099995REMMET09701/08/25 05:53:02 METAR KFWN 081053Z VRB04KT 10SM BKN044 M06/M14 A2998 RMK AO2 SLP157 T10561144 $
0291740001547932025010811537+41199-074626FM-15+0128KFWN V0209999C000052200059N0160935N5-00615-01505101575ADDAA101000095GA1045+012805999GD12991+0128059GE19AGL   +99999+99999GF104995999999012801999999KA1060M-00391KA2060N-00611MA1101525099995MD1090039+9999REMMET11501/08/25 06:53:02 METAR KFWN 081153Z 00000KT 10SM SCT042 M06/M15 A2998 RMK AO2 SLP157 T10611150 11039 21061 50003 $EQDD01      0ADE726
0233740001547932025010812537+41199-074626FM-15+0128KFWN V0209999N999992200059N0160935N5-00565-01445101535ADDAA101000095GA1045+013415999GD12991+0134159GE19AGL   +99999+99999GF104995999999013411999999MA1101465099935REMMET09701/08/25 07:53:02 METAR KFWN 081253Z      KT 10SM SCT044 M06/M14 A2996 RMK AO2 SLP153 T10561144 $EQDD01      0ADE726
0214740001547932025010813537+41199-074626FM-15+0128KFWN V0202905V00365013415MN0160935N5-00445-01335101465ADDAA101000095GA1085+013415999GD14991+0134159GE19AGL   +99999+99999GF199999999999013411999999MA1101425099895REMMET09701/08/25 08:53:02 METAR KFWN 081353Z 29007KT 10SM OVC044 M04/M13 A2995 RMK AO2 SLP146 T10441133 $
0245740001547932025010814537+41199-074626FM-15+0128KFWN V0203005N00515012805MN0160935N5-00395-01335101455ADDAA101000095GA1085+012805999GD14991+0128059GE19AGL   +99999+99999GF199999999999012801999999MA1101425099895MD1690109+9999OC100935REMMET10601/08/25 09:53:02 METAR KFWN 081453Z 30010G18KT 10SM OVC042 M04/M13 A2995 RMK AO2 SLP145 T10391133 56010 $
0263740001547932025010815537+41199-074626FM-15+0128KFWN V0202805N00725014335MN0160935N5-00395-01445101405ADDAA101000095GA1075+014335999GA2075+016765999GD13991+0143359GD23991+0167659GE19AGL   +99999+99999GF199999999999014331999999MA1101355099835OC101245REMMET10701/08/25 10:53:02 METAR KFWN 081553Z 28014G24KT 10SM BKN047 BKN055 M04/M14 A2993 RMK AO2 SLP140 T10391144 $
0270740001547932025010816537+41199-074626FM-15+0128KFWN V0209999N99999015245MN0160935N5-00335-01445101305ADDAA101000095GA1075+015245999GA2085+016765999GD13991+0152459GD24991+0167659GE19AGL   +99999+99999GF199999999999015241999999MA1101255099725REMMET12201/08/25 11:53:02 METAR KFWN 081653Z      KT 10SM BKN050 OVC055 M03/M14 A2990 RMK AO2 PK WND 28030/1646 SLP130 T10331144 $
0334740001547932025010817537+41199-074626FM-15+0128KFWN V0203105V004652200059N0160935N5-00395-01565101215ADDAA101000095GA1025+018295999GD11991+0182959GE19AGL   +99999+99999GF102995999999018291999999KA1060M-00281KA2060N-00611MA1101155099625MD1890249+9999OC101395OD149901391320REMMET13601/08/25 12:53:02 METAR KFWN 081753Z 31009G27KT 10SM FEW060 M04/M16 A2987 RMK AO2 PK WND 32027/1741 SLP121 T10391156 11028 21061 58024 $EQDD01      0ADE726
0257740001547932025010818537+41199-074626FM-15+0128KFWN V0202705N00575016765MN0160935N5-00285-01615101145ADDAA101000095GA1075+016765999GD13991+0167659GE19AGL   +99999+99999GF199999999999016761999999MA1101085099565OC101185OD149901641280REMMET11801/08/25 13:53:02 METAR KFWN 081853Z 27011G23KT 10SM BKN055 M03/M16 A2985 RMK AO2 PK WND 28032/1805 SLP114 T10281161 $
0225740001547932025010819537+41199-074626FM-15+0128KFWN V0202805V00625016765MN0160935N5-00395-01565101125ADDAA101000095GA1085+016765999GD14991+0167659GE19AGL   +99999+99999GF199999999999016761999999MA1101085099565OC101185REMMET10001/08/25 14:53:02 METAR KFWN 081953Z 28012G23KT 10SM OVC055 M04/M16 A2985 RMK AO2 SLP112 T10391156 $
0296740001547932025010820537+41199-074626FM-15+0128KFWN V0203005N003652200059N0160935N5-00445-01615101125ADDAA101000095GA1045+015245999GD12991+0152459GE19AGL   +99999+99999GF104995999999015241999999MA1101085099565MD1690109+9999OC100935OD149901391290REMMET12401/08/25 15:53:02 METAR KFWN 082053Z 30007G18KT 10SM SCT050 M04/M16 A2985 RMK AO2 PK WND 29027/1955 SLP112 T10441161 56010 $EQDD01      0ADE726
0244740001547932025010821537+41199-074626FM-15+0128KFWN V0202805N006752200059N0160935N5-00565-01615101145ADDAA101000095GA1045+014945999GD12991+0149459GE19AGL   +99999+99999GF104995999999014941999999MA1101085099565OC101035REMMET10001/08/25 16:53:02 METAR KFWN 082153Z 28013G20KT 10SM SCT049 M06/M16 A2985 RMK AO2 SLP114 T10561161 $EQDD01      0ADE726
0225740001547932025010822537+41199-074626FM-15+0128KFWN V0202905N00415013415MN0160935N5-00615-01565101155ADDAA101000095GA1085+013415999GD14991+0134159GE19AGL   +99999+99999GF199999999999013411999999MA1101085099565OC100985REMMET10001/08/25 17:53:02 METAR KFWN 082253Z 29008G19KT 10SM OVC044 M06/M16 A2985 RMK AO2 SLP115 T10611156 $
0272740001547932025010823537+41199-074626FM-15+0128KFWN V0209999N99999012805MN0160935N5-00565-01505101115ADDAA101000095GA1085+012805999GD14991+0128059GE19AGL   +99999+99999GF199999999999012801999999KA1060M-00221KA2060N-00611MA1101055099525MD1890029+9999REMMET11501/08/25 18:53:02 METAR KFWN 082353Z      KT 10SM OVC042 M06/M15 A2984 RMK AO2 SLP111 T10561150 11022 21061 58002 $
0225740001547932025010900537+41199-074626FM-15+0128KFWN V0203105V00365012195MN0160935N5-00565-01505101105ADDAA101000095GA1085+012195999GD14991+0121959GE19AGL   +99999+99999GF199999999999012191999999MA1101055099525OC100825REMMET10001/08/25 19:53:01 METAR KFWN 090053Z 31007G16KT 10SM OVC040 M06/M15 A2984 RMK AO2 SLP110 T10561150 $
0263740001547932025010901537+41199-074626FM-15+0128KFWN V0203105N00315012805MN0160935N5-00565-01445101065ADDAA101000095GA1075+012805999GA2085+014635999GD13991+0128059GD24991+0146359GE19AGL   +99999+99999GF199999999999012801999999MA1101025099495OC101185REMMET10701/08/25 20:53:01 METAR KFWN 090153Z 31006G23KT 10SM BKN042 OVC048 M06/M14 A2983 RMK AO2 SLP106 T10561144 $
0245740001547932025010902537+41199-074626FM-15+0128KFWN V0203105V00465013725MN0160935N5-00615-01445100995ADDAA101000095GA1085+013725999GD14991+0137259GE19AGL   +99999+99999GF199999999999013721999999MA1100955099425MD1890119+9999OC100825REMMET10601/08/25 21:53:01 METAR KFWN 090253Z 31009G16KT 10SM OVC045 M06/M14 A2981 RMK AO2 SLP099 T10611144 58011 $
0225740001547932025010903537+41199-074626FM-15+0128KFWN V0203105N00515011895MN0160935N5-00615-01445100995ADDAA101000095GA1085+011895999GD14991+0118959GE19AGL   +99999+99999GF199999999999011891999999MA1100955099425OC101035REMMET10001/08/25 22:53:02 METAR KFWN 090353Z 31010G20KT 10SM OVC039 M06/M14 A2981 RMK AO2 SLP099 T10611144 $
0250740001547932025010904537+41199-074626FM-15+0128KFWN V0209999V00265012505MN0160935N5-00615-01445100905ADDAA101000095GA1085+012505999GD14991+0125059GE19AGL   +99999+99999GF199999999999012501999999KA1240M-00221KA2240N-00611MA1100855099325REMMET10701/08/25 23:53:02 METAR KFWN 090453Z VRB05KT 10SM OVC041 M06/M14 A2978 RMK AO2 SLP090 T10611144 410221061 $
0886740001547932025010904596+41199-074626SOD  +0128KFWN V020999999999999999999999999999+99999+99999999999ADDAA124000095KA1240M-00215KA2240N-00605MG1099764100884OE11240160928013055OE22240089429013065OE33240039899999995REMSOD73024 HR PRECIPITATION (IN):0.00  24 HR MAX TEMP (F):28 24 HR MAX TEMP TIME (LST):1416 24 HR MIN TEMP (F):21 24 HR MIN TEMP TIME (LST):2359 AVERAGE STATION PRESSURE:29.460 MINIMUM SEA LEVEL PRESSURE:29.79 TIME OF OCCURRENCE:2359 PEAK WIND SPEED (MPH):36  PEAK WIND DIR (DEG):280 PEAK WIND TIME (LST):1305  FASTEST 2MIN SPEED (MPH):20 FASTEST 2MIN DIR (DEG):290 FASTEST 2MIN TIME (LST):1306 AVERAGE WIND SPEED (MPH):8.9  24 HR AVG TEMP (F):25 HEATING DEGREE DAYS:40  COOLING DEGREE DAYS:0   LATEST DAY MAX TEMP (0700-1900 LST):28  LATEST NIGHT MIN TEMP(1900-0800 LST):21 HOURLY INCREMENTAL PRECIPITATION VALUES (IN):.00 0.00 0.00 0.00 0.00 0.00 0.00 0.00 0.00 0.00 0.00 0.00 0.00 0.00 0.00 0.00 0.00 0.00 0.00 0.00 0.00 0.00 0.00 0.00EQDR01     N7GJS072R02     N7GKS075
0272740001547932025010905537+41199-074626FM-15+0128KFWN V0209999N99999012505MN0160935N5-00565-01395100845ADDAA101000095GA1085+012505999GD14991+0125059GE19AGL   +99999+99999GF199999999999012501999999KA1060M-00561KA2060N-00611MA1100785099265MD1890159+9999REMMET11501/09/25 00:53:02 METAR KFWN 090553Z      KT 10SM OVC041 M06/M14 A2976 RMK AO2 SLP084 T10561139 11056 21061 58015 $
0225740001547932025010906537+41199-074626FM-15+0128KFWN V0203205V00625012195MN0160935N5-00565-01395100825ADDAA101000095GA1085+012195999GD14991+0121959GE19AGL   +99999+99999GF199999999999012191999999MA1100785099265OC101085REMMET10001/09/25 01:53:02 METAR KFWN 090653Z 32012G21KT 10SM OVC040 M06/M14 A2976 RMK AO2 SLP082 T10561139 $
0295740001547932025010907537+41199-074626FM-15+0128KFWN V0203305N00515012505MN0160935N5-00565-01395100815ADDAA101000095GA1075+012505999GA2085+018295999GD13991+0125059GD24991+0182959GE19AGL   +99999+99999GF199999999999012501999999MA1100755099225OC100985OD149901491310REMMET12501/09/25 02:53:02 METAR KFWN 090753Z 33010G19KT 10SM BKN041 OVC060 M06/M14 A2975 RMK AO2 PK WND 31029/0716 SLP081 T10561139 $
0272740001547932025010908537+41199-074626FM-15+0128KFWN V0209999V00315012195MN0160935N5-00565-01395100775ADDAA101000095GA1075+012195999GA2085+028965999GD13991+0121959GD24991+0289659GE19AGL   +99999+99999GF199999999999012191999999MA1100715099195MD1890079+9999REMMET11001/09/25 03:53:02 METAR KFWN 090853Z VRB06KT 10SM BKN040 OVC095 M06/M14 A2974 RMK AO2 SLP077 T10561139 58007 $
0214740001547932025010909537+41199-074626FM-15+0128KFWN V0209999V00215011285MN0160935N5-00615-01395100775ADDAA101000095GA1085+011285999GD14991+0112859GE19AGL   +99999+99999GF199999999999011281999999MA1100715099195REMMET09701/09/25 04:53:02 METAR KFWN 090953Z VRB04KT 10SM OVC037 M06/M14 A2974 RMK AO2 SLP077 T10611139 $
