0164745966037262022010100444+39009-074908FM-16+000799999V0201601N003110009119N003219199+01001+01001999999ADDAW1101GD14991+0009119GE19AGL   +99999+99999GF199999999999000911999999MA1101461999999REMMET068SPECI KWWD 010044Z AUTO 16006KT 2SM BR OVC003 10/10 A2996 RMK AO2 $=
0168745966037262022010100534+39009-074908FM-16+000799999V0201501N003110009119N002012199+01001+01001999999ADDAW1101GD14991+0009119GE19AGL   +99999+99999GF199999999999000911999999MA1101461999999REMMET072SPECI KWWD 010053Z AUTO 15006KT 1 1/4SM BR OVC003 10/10 A2996 RMK AO2 $=
0181745966037262022010100564+39009-074908FM-15+000799999V0201601N003610009119N001609199+01001+01001101471ADDAW1101GD14991+0009119GE19AGL   +99999+99999GF199999999999000911999999MA1101461999999REMMET085METAR KWWD 010056Z AUTO 16007KT 1SM BR OVC003 10/10 A2996 RMK AO2 SLP147 T01000100 $=
0166745966037262022010101094+39009-074908FM-16+000799999V0201501N003110009119N000805199+01001+01001999999ADDAW1301GD14991+0009119GE19AGL   +99999+99999GF199999999999000911999999MA1101461999999REMMET070SPECI KWWD 010109Z AUTO 15006KT 1/2SM FG OVC003 10/10 A2996 RMK AO2 $=
0166745966037262022010101254+39009-074908FM-16+000799999V0201701N002610009119N000402199+01001+01001999999ADDAW1301GD14991+0009119GE19AGL   +99999+99999GF199999999999000911999999MA1101461999999REMMET070SPECI KWWD 010125Z AUTO 17005KT 1/4SM FG OVC003 10/10 A2996 RMK AO2 $=
0183745966037262022010101564+39009-074908FM-15+000799999V0201801N002110009119N000402199+01061+01061101491ADDAW1301GD14991+0009119GE19AGL   +99999+99999GF199999999999000911999999MA1101461999999REMMET087METAR KWWD 010156Z AUTO 18004KT 1/4SM FG OVC003 11/11 A2996 RMK AO2 SLP149 T01060106 $=
0166745966037262022010102274+39009-074908FM-16+000799999V0201701N003110009119N000805199+01101+01101999999ADDAW1301GD14991+0009119GE19AGL   +99999+99999GF199999999999000911999999MA1101421999999REMMET070SPECI KWWD 010227Z AUTO 17006KT 1/2SM FG OVC003 11/11 A2995 RMK AO2 $=
0197745966037262022010102394+39009-074908FM-16+000799999V0201901N003110009119N001609199+01101+01101999999ADDAA101000021AW1101AW2611GD14991+0009119GE19AGL   +99999+99999GF199999999999000911999999MA1101461999999REMMET084SPECI KWWD 010239Z AUTO 19006KT 1SM -RA BR OVC003 11/11 A2996 RMK AO2 RAB35 P0000 $=
0210745966037262022010102484+39009-074908FM-16+000799999V0201801N003610009119N002816199+01101+01101999999ADDAA101000021AW1101GD14991+0009119GE19AGL   +99999+99999GF199999999999000911999999MA1101421999999REMMET103SPECI KWWD 010248Z AUTO 18007KT 1 3/4SM BR OVC003 11/11 A2995 RMK AO2 VIS 1 1/2V2 1/2 RAB35E47 P0000 $=
0274745966037262022010102564+39009-074908FM-15+000799999V0201801N004110009119N004023199+01061+01061101481ADDAA101000021AA203000021AW1101AW2611GD14991+0009119GE19AGL   +99999+99999GF199999999999000911999999MA1101461999999MD1110011+9999REMMET117METAR KWWD 010256Z AUTO 18008KT 2 1/2SM -RA BR OVC003 11/11 A2996 RMK AO2 RAB35 SLP148 P0000 60000 T01060106 51001 $=EQDQ01  00008PRCP03
0191745966037262022010103084+39009-074908FM-16+000799999V0201801N003610009119N008047199+01101+01101999999ADDAA101000021AW1101AW2611GD14991+0009119GE19AGL   +99999+99999GF199999999999000911999999MA1101421999999REMMET078SPECI KWWD 010308Z AUTO 18007KT 5SM -RA BR OVC003 11/11 A2995 RMK AO2 P0000 $=
0200745966037262022010103564+39009-074908FM-15+000799999V0201601N002610009119N016093199+01061+01001101431ADDAA101000231AW1611GD14991+0009119GE19AGL   +99999+99999GF199999999999000911999999MA1101421999999REMMET093METAR KWWD 010356Z AUTO 16005KT 10SM -RA OVC003 11/10 A2995 RMK AO2 SLP143 P0001 T01060100 $=
0246745966037262022010104564+39009-074908FM-15+000799999V0209999C000010009119N014484199+01061+01061101391ADDAA101000231AW1611GD14991+0009119GE19AGL   +99999+99999GF199999999999000911999999KA1240M+01221KA2240N+00891MA1101391999999REMMET113METAR KWWD 010456Z AUTO 00000KT 9SM -RA OVC003 11/11 A2994 RMK AO2 RAE0357B45 SLP139 P0001 T01060106 401220089 $=
0396745966037262022010105567+39008-074908FM-15+0007KWWD V0201605N00315000915MN0096565N5+01065+01065101305ADDAA101000595AA206001091AU110020015AU200001015AW1105AW2615GA1075+000915999GA2085+014945999GD13991+0009159GD24991+0149459GE19AGL   +99999+99999GF199999999999000911999999KA1060M+01061KA2060N+01001MA1101295101205MD1890189+9999MW1615REMMET13801/01/22 00:56:02 METAR KWWD 010556Z 16006KT 6SM -RA BR BKN003 OVC049 11/11 A2991 RMK AO2 SLP130 P0002 60004 T01060106 10106 20100 58018 $EQDQ01  00108PRCP06
0244745966037262022010106567+39008-074908FM-15+0007KWWD V0201805N00365000915MN0144845N5+01065+01065101265ADDAA101001395AU110020015AW1615GA1075+000915999GD13991+0009159GE19AGL   +99999+99999GF199999999999000911999999MA1101255101175MW1615REMMET10401/01/22 01:56:02 METAR KWWD 010656Z 18007KT 9SM -RA BKN003 11/11 A2990 RMK AO2 SLP126 P0005 T01060106 $
0242745966037262022010107527+39008-074908FM-15+0007KWWD V0201805N00575000915MN0028165V5+01105+01105999999ADDAA101000021AU100001015AW1105GA1085+000915999GD14991+0009159GE19AGL   +99999+99999GF199999999999000911999999MA1101195101105REMMET10801/01/22 02:52:02 METAR KWWD 010752Z 18011KT 1 3/4SM BR OVC003 11/11 A2988 RMK AO2 VIS 1 1/4V4 RAE16 P0000 $
0247745966037262022010107567+39008-074908FM-15+0007KWWD V0201805N00625000915MN0024145N5+01115+01115101215ADDAA101000021AU100001015AW1105GA1085+000915999GD14991+0009159GE19AGL   +99999+99999GF199999999999000911999999MA1101195101105REMMET11301/01/22 02:56:02 METAR KWWD 010756Z 18012KT 1 1/2SM BR OVC003 11/11 A2988 RMK AO2 RAE16 SLP121 P0000 T01110111 $
0203745966037262022010108157+39008-074908FM-15+0007KWWD V0201805N00515000915MN0048285N5+01105+01105999999ADDAU100001015AW1105GA1085+000915999GD14991+0009159GE19AGL   +99999+99999GF199999999999000911999999MA1101155101075REMMET08001/01/22 03:15:02 METAR KWWD 010815Z 18010KT 3SM BR OVC003 11/11 A2987 RMK AO2 $
0256745966037262022010108567+39008-074908FM-15+0007KWWD V0201805N00365000915MN0128755N5+01175+01115101155ADDAA103001391GA1085+000915999GD14991+0009159GE19AGL   +99999+99999GF199999999999000911999999MA1101155101075MD1890159+9999REMMET10601/01/22 03:56:02 METAR KWWD 010856Z 18007KT 8SM OVC003 12/11 A2987 RMK AO2 SLP115 60005 T01170111 58015 $EQDQ01  00128PRCP03
0220745966037262022010109567+39008-074908FM-15+0007KWWD V0201605N00215000915MN0048285N5+01175+01175101095ADDAU100001015AW1105GA1085+000915999GD14991+0009159GE19AGL   +99999+99999GF199999999999000911999999MA1101085101005REMMET09701/01/22 04:56:02 METAR KWWD 010956Z 16004KT 3SM BR OVC003 12/12 A2985 RMK AO2 SLP109 T01170117 $
0203745966037262022010110057+39008-074908FM-15+0007KWWD V0201505N00215000915MN0032195N5+01205+01205999999ADDAU100001015AW1105GA1085+000915999GD14991+0009159GE19AGL   +99999+99999GF199999999999000911999999MA1101085101005REMMET08001/01/22 05:05:02 METAR KWWD 011005Z 15004KT 2SM BR OVC003 12/12 A2985 RMK AO2 $
0203745966037262022010110257+39008-074908FM-15+0007KWWD V0201405N00155000915MN0048285N5+01205+01205999999ADDAU100001015AW1105GA1085+000915999GD14991+0009159GE19AGL   +99999+99999GF199999999999000911999999MA1101085101005REMMET08001/01/22 05:25:02 METAR KWWD 011025Z 14003KT 3SM BR OVC003 12/12 A2985 RMK AO2 $
0207745966037262022010110337+39008-074908FM-15+0007KWWD V0201305N00215000915MN0040235N5+01205+01105999999ADDAU100001015AW1105GA1085+000915999GD14991+0009159GE19AGL   +99999+99999GF199999999999000911999999MA1101085101005REMMET08401/01/22 05:33:02 METAR KWWD 011033Z 13004KT 2 1/2SM BR OVC003 12/11 A2985 RMK AO2 $
0203745966037262022010110427+39008-074908FM-15+0007KWWD V0201305N00215000915MN0064375N5+01105+01105999999ADDAU100001015AW1105GA1085+000915999GD14991+0009159GE19AGL   +99999+99999GF199999999999000911999999MA1101055100975REMMET08001/01/22 05:42:02 METAR KWWD 011042Z 13004KT 4SM BR OVC003 11/11 A2984 RMK AO2 $
0220745966037262022010110567+39008-074908FM-15+0007KWWD V0201505N00155000915MN0048285N5+01115+01115101065ADDAU100001015AW1105GA1085+000915999GD14991+0009159GE19AGL   +99999+99999GF199999999999000911999999MA1101055100975REMMET09701/01/22 05:56:02 METAR KWWD 011056Z 15003KT 3SM BR OVC003 11/11 A2984 RMK AO2 SLP106 T01110111 $
0229745966037262022010111347+39008-074908FM-15+0007KWWD V0201205N00155000915MN0032195N5+01105+01105999999ADDAA101000021AU100001015AW1105GA1085+000915999GD14991+0009159GE19AGL   +99999+99999GF199999999999000911999999MA1101025100935REMMET09501/01/22 06:34:02 METAR KWWD 011134Z 12003KT 2SM BR OVC003 11/11 A2983 RMK AO2 RAB01E16 P0000 $
0233745966037262022010111467+39008-074908FM-15+0007KWWD V0209999C00005000915MN0024145N5+01105+01105999999ADDAA101000021AU100001015AW1105GA1085+000915999GD14991+0009159GE19AGL   +99999+99999GF199999999999000911999999MA1101025100935REMMET09901/01/22 06:46:02 METAR KWWD 011146Z 00000KT 1 1/2SM BR OVC003 11/11 A2983 RMK AO2 RAB01E16 P0000 $
0377745966037262022010111567+39008-074908FM-15+0007KWWD V0209999C00005000915MN0024145N5+01115+01115101045ADDAA101000021AA206001391AA324002391AU100001015AW1105GA1085+000915999GD14991+0009159GE19AGL   +99999+99999GF199999999999000911999999KA1060M+01221KA2060N+01061MA1101025100935MD1690119+9999REMMET14601/01/22 06:56:02 METAR KWWD 011156Z 00000KT 1 1/2SM BR OVC003 11/11 A2983 RMK AO2 RAB01E16 SLP104 P0000 60005 70009 T01110111 10122 20106 56011 $EQDQ01  00128PRCP06Q02  00228PRCP24
0203745966037262022010112117+39008-074908FM-15+0007KWWD V0201705N00155000915MN0016095N5+01105+01105999999ADDAU100001015AW1105GA1085+000915999GD14991+0009159GE19AGL   +99999+99999GF199999999999000911999999MA1101055100975REMMET08001/01/22 07:11:02 METAR KWWD 011211Z 17003KT 1SM BR OVC003 11/11 A2984 RMK AO2 $
0205745966037262022010112187+39008-074908FM-15+0007KWWD V0201705N00155000915MN0012075N5+01105+01105999999ADDAU100001015AW1105GA1085+000915999GD14991+0009159GE19AGL   +99999+99999GF199999999999000911999999MA1101085101005REMMET08201/01/22 07:18:02 METAR KWWD 011218Z 17003KT 3/4SM BR OVC003 11/11 A2985 RMK AO2 $
0272745966037262022010112567+39008-074908FM-15+0007KWWD V0209999C00005000915MN0012075N5+01175+01175101105ADDAA101000021AU110020015AU200001015AW1105AW2615GA1085+000915999GD14991+0009159GE19AGL   +99999+99999GF199999999999000911999999MA1101085101005MW1615REMMET11501/01/22 07:56:02 METAR KWWD 011256Z 00000KT 3/4SM -RA BR OVC003 12/12 A2985 RMK AO2 RAB41 SLP110 P0000 T01170117 $
0259745966037262022010113147+39008-074908FM-15+0007KWWD V0201605N00155000915MN0016095N5+01205+01205999999ADDAA101000021AU110020015AU200001015AW1105AW2615GA1085+000915999GD14991+0009151GE19AGL   +99999+99999GF199999999999000911999999MA1101125101035MW1615REMMET10201/01/22 08:14:02 METAR KWWD 011314Z 16003KT 1SM -RA BR OVC003 12/12 A2986 RMK AO2 CIG 002V006 P0000 $
0263745966037262022010113217+39008-074908FM-15+0007KWWD V0209999C00005000915MN0028165N5+01205+01205999999ADDAA101000021AU110020015AU200001015AW1105AW2615GA1085+000915999GD14991+0009151GE19AGL   +99999+99999GF199999999999000911999999MA1101125101035MW1615REMMET10601/01/22 08:21:02 METAR KWWD 011321Z 00000KT 1 3/4SM -RA BR OVC003 12/12 A2986 RMK AO2 CIG 003V006 P0000 $
0259745966037262022010113277+39008-074908FM-15+0007KWWD V0209999C00005000915MN0048285N5+01205+01205999999ADDAA101000021AU110020015AU200001015AW1105AW2615GA1085+000915999GD14991+0009151GE19AGL   +99999+99999GF199999999999000911999999MA1101155101075MW1615REMMET10201/01/22 08:27:02 METAR KWWD 011327Z 00000KT 3SM -RA BR OVC003 12/12 A2987 RMK AO2 CIG 003V006 P0000 $
0247745966037262022010113357+39008-074908FM-15+0007KWWD V0209999C00005001525MN0064375N5+01205+01205999999ADDAA101000395AU110020015AU200001015AW1105AW2615GA1085+001525999GD14991+0015259GE19AGL   +99999+99999GF199999999999001521999999MA1101155101075MW1615REMMET09001/01/22 08:35:02 METAR KWWD 011335Z 00000KT 4SM -RA BR OVC005 12/12 A2987 RMK AO2 P0001 $
0276745966037262022010113567+39008-074908FM-15+0007KWWD V0209999C00005001525MN0064375N5+01285+01285101205ADDAA101000395AU110020015AU200001015AW1105AW2615GA1085+001525999GD14991+0015251GE19AGL   +99999+99999GF199999999999001521999999MA1101195101105MW1615REMMET11901/01/22 08:56:02 METAR KWWD 011356Z 00000KT 4SM -RA BR OVC005 13/13 A2988 RMK AO2 CIG 002V009 SLP120 P0001 T01280128 $
0323745966037262022010114057+39008-074908FM-15+0007KWWD V0209999C00005002135MN0080475N5+01305+01305999999ADDAA101000021AU110020015AU200001015AW1105AW2615GA1045+000915999GA2075+002135999GA3085+027435999GD12991+0009159GD23991+0021359GD34991+0274359GE19AGL   +99999+99999GF199999999999000911999999MA1101195101105MW1615REMMET10401/01/22 09:05:02 METAR KWWD 011405Z 00000KT 5SM -RA BR SCT003 BKN007 OVC090 13/13 A2988 RMK AO2 P0000 $
0285745966037262022010114227+39008-074908FM-15+0007KWWD V0209999C00005030485MN0048285N5+01305+01305999999ADDAA101000021AU110020015AU200001015AW1105AW2615GA1045+000915999GA2085+030485999GD12991+0009159GD24991+0304859GE19AGL   +99999+99999GF199999999999000911999999MA1101195101105MW1615REMMET09701/01/22 09:22:02 METAR KWWD 011422Z 00000KT 3SM -RA BR SCT003 OVC100 13/13 A2988 RMK AO2 P0000 $
0327745966037262022010114477+39008-074908FM-15+0007KWWD V0201505N00155024385MN0040235N5+01305+01305999999ADDAA101000395AU110020015AU200001015AW1105AW2615GA1025+001225999GA2075+024385999GA3085+030485999GD11991+0012259GD23991+0243859GD34991+0304859GE19AGL   +99999+99999GF199999999999001221999999MA1101195101105MW1615REMMET10801/01/22 09:47:02 METAR KWWD 011447Z 15003KT 2 1/2SM -RA BR FEW004 BKN080 OVC100 13/13 A2988 RMK AO2 P0001 $
0400745966037262022010114567+39008-074908FM-15+0007KWWD V0201705N00155007325MN0040235N5+01335+01285101225ADDAA101000395AA203000591AU110020015AU200001015AW1105AW2615GA1045+002135999GA2075+007325999GA3085+028965999GD12991+0021359GD23991+0073259GD34991+0289659GE19AGL   +99999+99999GF199999999999002131999999MA1101195101105MD1190189+9999MW1615REMMET13701/01/22 09:56:02 METAR KWWD 011456Z 17003KT 2 1/2SM -RA BR SCT007 BKN024 OVC095 13/13 A2988 RMK AO2 SLP122 P0001 60002 T01330128 51018 $EQDQ01  00058PRCP03
0323745966037262022010115017+39008-074908FM-15+0007KWWD V0209999C00005021345MN0048285N5+01305+01305999999ADDAA101000021AU110020015AU200001015AW1105AW2615GA1045+001225999GA2075+021345999GA3085+027435999GD12991+0012259GD23991+0213459GD34991+0274359GE19AGL   +99999+99999GF199999999999001221999999MA1101195101105MW1615REMMET10401/01/22 10:01:02 METAR KWWD 011501Z 00000KT 3SM -RA BR SCT004 BKN070 OVC090 13/13 A2988 RMK AO2 P0000 $
0327745966037262022010115167+39008-074908FM-15+0007KWWD V0209999C00005022865MN0040235N5+01305+01305999999ADDAA101000395AU110020015AU200001015AW1105AW2615GA1025+002445999GA2075+022865999GA3085+027435999GD11991+0024459GD23991+0228659GD34991+0274359GE19AGL   +99999+99999GF199999999999002441999999MA1101155101075MW1615REMMET10801/01/22 10:16:02 METAR KWWD 011516Z 00000KT 2 1/2SM -RA BR FEW008 BKN075 OVC090 13/13 A2987 RMK AO2 P0001 $
0330745966037262022010115257+39008-074908FM-15+0007KWWD V0209999C00005025915MN0048285N5+01405+01405999999ADDAA101000595AU110020015AU200001015AW1105AW2615GA1025+002445999GA2045+021345999GA3085+025915999GD11991+0024459GD22991+0213459GD34991+0259159GE19AGL   +99999+99999GF199999999999002441999999MA1101125101035MW1615REMMET11101/01/22 10:25:02 METAR KWWD 011525Z 00000KT 3SM -RA BR FEW008 SCT070 OVC085 14/14 A2986 RMK AO2 PRESFR P0002 $
0302745966037262022010115567+39008-074908FM-15+0007KWWD V0209999C00005021345MN0064375N5+01445+01445101095ADDAA101000895AU110020015AU200001015AW1105AW2615GA1075+021345999GA2085+025915999GD13991+0213459GD24991+0259159GE19AGL   +99999+99999GF199999999999021341999999MA1101085101005MW1615REMMET11401/01/22 10:56:02 METAR KWWD 011556Z 00000KT 4SM -RA BR BKN070 OVC085 14/14 A2985 RMK AO2 SLP109 P0003 T01440144 $
0323745966037262022010116267+39008-074908FM-15+0007KWWD V0209999C00005021345MN0080475N5+01405+01405999999ADDAA101000895AU110020015AU200001015AW1105AW2615GA1045+000915999GA2045+008535999GA3085+021345999GD12991+0009159GD22991+0085359GD34991+0213459GE19AGL   +99999+99999GF199999999999000911999999MA1100985100905MW1615REMMET10401/01/22 11:26:02 METAR KWWD 011626Z 00000KT 5SM -RA BR SCT003 SCT028 OVC070 14/14 A2982 RMK AO2 P0003 $
0302745966037262022010116567+39008-074908FM-15+0007KWWD V0209999C00005021345MN0048285N5+01445+01445100935ADDAA101001095AU110020015AU200001015AW1105AW2615GA1025+000915999GA2085+021345999GD11991+0009159GD24991+0213459GE19AGL   +99999+99999GF199999999999000911999999MA1100915100835MW1615REMMET11401/01/22 11:56:02 METAR KWWD 011656Z 00000KT 3SM -RA BR FEW003 OVC070 14/14 A2980 RMK AO2 SLP093 P0004 T01440144 $
0396745966037262022010117567+39008-074908FM-15+0007KWWD V0209999C00005016765MN0064375N5+01505+01445100835ADDAA101002095AA206004391AU110020015AU200001015AW1105AW2615GA1045+001225999GA2085+016765999GD12991+0012259GD24991+0167659GE19AGL   +99999+99999GF199999999999001221999999KA1060M+01501KA2060N+01111MA1100815100735MD1690399+9999MW1615REMMET13801/01/22 12:56:02 METAR KWWD 011756Z 00000KT 4SM -RA BR SCT004 OVC055 15/14 A2977 RMK AO2 SLP083 P0008 60017 T01500144 10150 20111 56039 $EQDQ01  00438PRCP06
0285745966037262022010118087+39008-074908FM-15+0007KWWD V0209999C00005001225MN0048285N5+01505+01405999999ADDAA101000395AU110020015AU200001015AW1105AW2615GA1075+001225999GA2085+016765999GD13991+0012259GD24991+0167659GE19AGL   +99999+99999GF199999999999001221999999MA1100815100735MW1615REMMET09701/01/22 13:08:02 METAR KWWD 011808Z 00000KT 3SM -RA BR BKN004 OVC055 15/14 A2977 RMK AO2 P0001 $
0285745966037262022010118457+39008-074908FM-15+0007KWWD V0201505N00515000615MN0080475N5+01305+01305999999ADDAA101002095AU110020015AU200001015AW1105AW2615GA1075+000615999GA2085+016765999GD13991+0006159GD24991+0167659GE19AGL   +99999+99999GF199999999999000611999999MA1100815100735MW1615REMMET09701/01/22 13:45:02 METAR KWWD 011845Z 15010KT 5SM -RA BR BKN002 OVC055 13/13 A2977 RMK AO2 P0008 $
0244745966037262022010118567+39008-074908FM-15+0007KWWD V0201505N00365000615MN0112655N5+01285+01225100805ADDAA101002395AU110020015AW1615GA1085+000615999GD14991+0006159GE19AGL   +99999+99999GF199999999999000611999999MA1100785100705MW1615REMMET10401/01/22 13:56:02 METAR KWWD 011856Z 15007KT 7SM -RA OVC002 13/12 A2976 RMK AO2 SLP080 P0009 T01280122 $
0244745966037262022010119567+39008-074908FM-15+0007KWWD V0201505N00315000615MN0128755N5+01285+01225100685ADDAA101000395AU110020015AW1615GA1085+000615999GD14991+0006159GE19AGL   +99999+99999GF199999999999000611999999MA1100685100595MW1615REMMET10401/01/22 14:56:02 METAR KWWD 011956Z 15006KT 8SM -RA OVC002 13/12 A2973 RMK AO2 SLP068 P0001 T01280122 $
0280745966037262022010120567+39008-074908FM-15+0007KWWD V0201505N00415000615MN0160935N5+01335+01335100655ADDAA101000021AA203002591GA1085+000615999GD14991+0006159GE19AGL   +99999+99999GF199999999999000611999999MA1100645100565MD1790189+9999REMMET11901/01/22 15:56:02 METAR KWWD 012056Z 15008KT 10SM OVC002 13/13 A2972 RMK AO2 RAE00 SLP065 P0000 60010 T01330133 57018 $EQDQ01  00258PRCP03
0277745966037262022010121567+39008-074908FM-15+0007KWWD V0201305N00265000615MN0160935N5+01285+01285100645ADDGA1075+000615999GA2075+009755999GA3075+011895999GD13991+0006159GD23991+0097559GD33991+0118959GE19AGL   +99999+99999GF199999999999000611999999MA1100615100535REMMET10901/01/22 16:56:02 METAR KWWD 012156Z 13005KT 10SM BKN002 BKN032 BKN039 13/13 A2971 RMK AO2 SLP064 T01280128 $
0260745966037262022010121587+39008-074908FM-15+0007KWWD V0201305N00265009755MN0160935N5+01305+01305999999ADDGA1045+001225999GA2075+009755999GA3075+011895999GD12991+0012259GD23991+0097559GD33991+0118959GE19AGL   +99999+99999GF199999999999001221999999MA1100615100535REMMET09201/01/22 16:58:02 METAR KWWD 012158Z 13005KT 10SM SCT004 BKN032 BKN039 13/13 A2971 RMK AO2 $
0222745966037262022010122247+39008-074908FM-15+0007KWWD V0201405N00315008535MN0160935N5+01305+01305999999ADDGA1025+001225999GA2085+008535999GD11991+0012259GD24991+0085359GE19AGL   +99999+99999GF199999999999001221999999MA1100615100535REMMET08501/01/22 17:24:02 METAR KWWD 012224Z 14006KT 10SM FEW004 OVC028 13/13 A2971 RMK AO2 $
0201745966037262022010122567+39008-074908FM-15+0007KWWD V0201405N00315007925MN0160935N5+01335+01285100585ADDGA1085+007925999GD14991+0079259GE19AGL   +99999+99999GF199999999999007921999999MA1100585100495REMMET09501/01/22 17:56:02 METAR KWWD 012256Z 14006KT 10SM OVC026 13/13 A2970 RMK AO2 SLP058 T01330128 $
0260745966037262022010123347+39008-074908FM-15+0007KWWD V0201605N00465007325MN0160935N5+01305+01305999999ADDGA1025+001225999GA2075+007325999GA3075+010365999GD11991+0012259GD23991+0073259GD33991+0103659GE19AGL   +99999+99999GF199999999999001221999999MA1100515100425REMMET09201/01/22 18:34:02 METAR KWWD 012334Z 16009KT 10SM FEW004 BKN024 BKN034 13/13 A2968 RMK AO2 $
0352745966037262022010123567+39008-074908FM-15+0007KWWD V0201705N00515000615MN0080475N5+01335+01335100515ADDAA106002591AU100001015AW1105GA1075+000615999GA2085+010365999GD13991+0006159GD24991+0103659GE19AGL   +99999+99999GF199999999999000611999999KA1060M+01501KA2060N+01221MA1100475100395MD1590139+9999REMMET12801/01/22 18:56:02 METAR KWWD 012356Z 17010KT 5SM BR BKN002 OVC034 13/13 A2967 RMK AO2 SLP051 60010 T01330133 10150 20122 55013 $EQDQ01  00258PRCP06
0207745966037262022010200057+39008-074908FM-15+0007KWWD V0201605N00575000615MN0028165N5+01305+01305999999ADDAU100001015AW1105GA1085+000615999GD14991+0006159GE19AGL   +99999+99999GF199999999999000611999999MA1100475100395REMMET08401/01/22 19:05:01 METAR KWWD 020005Z 16011KT 1 3/4SM BR OVC002 13/13 A2967 RMK AO2 $
0205745966037262022010200097+39008-074908FM-15+0007KWWD V0201605N00575000615MN0012075N5+01305+01305999999ADDAU100001015AW1105GA1085+000615999GD14991+0006159GE19AGL   +99999+99999GF199999999999000611999999MA1100475100395REMMET08201/01/22 19:09:01 METAR KWWD 020009Z 16011KT 3/4SM BR OVC002 13/13 A2967 RMK AO2 $
0205745966037262022010200187+39008-074908FM-15+0007KWWD V0201605N00625000615MN0008055N5+01305+01305999999ADDAU100002015AW1305GA1085+000615999GD14991+0006159GE19AGL   +99999+99999GF199999999999000611999999MA1100475100395REMMET08201/01/22 19:18:01 METAR KWWD 020018Z 16012KT 1/2SM FG OVC002 13/13 A2967 RMK AO2 $
0205745966037262022010200287+39008-074908FM-15+0007KWWD V0201705N00625000615MN0004025N5+01305+01305999999ADDAU100002015AW1305GA1085+000615999GD14991+0006159GE19AGL   +99999+99999GF199999999999000611999999MA1100445100365REMMET08201/01/22 19:28:01 METAR KWWD 020028Z 17012KT 1/4SM FG OVC002 13/13 A2966 RMK AO2 $
0222745966037262022010200567+39008-074908FM-15+0007KWWD V0201605N00575000615MN0004025N5+01285+01285100455ADDAU100002015AW1305GA1085+000615999GD14991+0006159GE19AGL   +99999+99999GF199999999999000611999999MA1100445100365REMMET09901/01/22 19:56:01 METAR KWWD 020056Z 16011KT 1/4SM FG OVC002 13/13 A2966 RMK AO2 SLP045 T01280128 $
0205745966037262022010201407+39008-074908FM-15+0007KWWD V0201705N00515000615MN0008055N5+01305+01305999999ADDAU100002015AW1305GA1085+000615999GD14991+0006159GE19AGL   +99999+99999GF199999999999000611999999MA1100305100225REMMET08201/01/22 20:40:01 METAR KWWD 020140Z 17010KT 1/2SM FG OVC002 13/13 A2962 RMK AO2 $
0203745966037262022010201517+39008-074908FM-15+0007KWWD V0201705N00515000615MN0016095N5+01305+01305999999ADDAU100001015AW1105GA1085+000615999GD14991+0006159GE19AGL   +99999+99999GF199999999999000611999999MA1100275100195REMMET08001/01/22 20:51:01 METAR KWWD 020151Z 17010KT 1SM BR OVC002 13/13 A2961 RMK AO2 $
0224745966037262022010201567+39008-074908FM-15+0007KWWD V0201705N00515000615MN0028165N5+01285+01285100295ADDAU100001015AW1105GA1085+000615999GD14991+0006159GE19AGL   +99999+99999GF199999999999000611999999MA1100275100195REMMET10101/01/22 20:56:01 METAR KWWD 020156Z 17010KT 1 3/4SM BR OVC002 13/13 A2961 RMK AO2 SLP029 T01280128 $
0203745966037262022010202007+39008-074908FM-15+0007KWWD V0201705N00515000615MN0048285N5+01305+01305999999ADDAU100001015AW1105GA1085+000615999GD14991+0006159GE19AGL   +99999+99999GF199999999999000611999999MA1100275100195REMMET08001/01/22 21:00:01 METAR KWWD 020200Z 17010KT 3SM BR OVC002 13/13 A2961 RMK AO2 $
0221745966037262022010202317+39008-074908FM-15+0007KWWD V0201905N00625036585MN0128755N5+01405+01305999999ADDGA1045+000615999GA2085+036585999GD12991+0006159GD24991+0365859GE19AGL   +99999+99999GF199999999999000611999999MA1100175100095REMMET08401/01/22 21:31:01 METAR KWWD 020231Z 19012KT 8SM SCT002 OVC120 14/13 A2958 RMK AO2 $
0232745966037262022010202567+39008-074908FM-15+0007KWWD V0201905N00625036585MN0160935N5+01445+01445100165ADDGA1085+036585999GD14991+0365859GE19AGL   +99999+99999GF199999999999036581999999MA1100145100055MD1890359+9999OC101085REMMET10401/01/22 21:56:01 METAR KWWD 020256Z 19012G21KT 10SM OVC120 14/14 A2957 RMK AO2 SLP016 T01440144 58035 $
0250745966037262022010203567+39008-074908FM-15+0007KWWD V0202105N00725025915MN0160935N5+01675+01565100155ADDGA1075+025915999GA2085+033535999GD13991+0259159GD24991+0335359GE19AGL   +99999+99999GF199999999999025911999999MA1100145100055OC100985REMMET10501/01/22 22:56:01 METAR KWWD 020356Z 21014G19KT 10SM BKN085 OVC110 17/16 A2957 RMK AO2 SLP015 T01670156 $
0282745966037262022010204247+39008-074908FM-15+0007KWWD V0202805N00415007015MN0160935N5+01605+01405999999ADDGA1045+003965999GA2075+007015999GA3085+025915999GD12991+0039659GD23991+0070159GD34991+0259159GE19AGL   +99999+99999GF199999999999003961999999MA1100245100155OC100825REMMET10601/01/22 23:24:02 METAR KWWD 020424Z 28008G16KT 10SM SCT013 BKN023 OVC085 16/14 A2960 RMK AO2 WSHFT 0405 $
0286745966037262022010204567+39008-074908FM-15+0007KWWD V0209999C00005008535MN0160935N5+01505+01395100185ADDGA1075+008535999GA2085+010365999GD13991+0085359GD24991+0103659GE19AGL   +99999+99999GF199999999999008531999999KA1240M+01721KA2240N+01061MA1100175100095REMMET12301/01/22 23:56:02 METAR KWWD 020456Z 00000KT 10SM BKN028 OVC034 15/14 A2958 RMK AO2 WSHFT 0405 SLP018 T01500139 401720106 $
003974596603726202201020459O+39008-074908SOD  +0007KWWD V020999999999999999999999999999+99999+99999999999ADDAT1AU16RA  5AT2AU01FG  5AT3AU13BR  5
0222745966037262022010205107+39008-074908FM-15+0007KWWD V0203105N00215011585MN0160935N5+01505+01405999999ADDGA1045+008535999GA2085+011585999GD12991+0085359GD24991+0115859GE19AGL   +99999+99999GF199999999999008531999999MA1100175100095REMMET08501/02/22 00:10:02 METAR KWWD 020510Z 31004KT 10SM SCT028 OVC038 15/14 A2958 RMK AO2 $
0222745966037262022010205187+39008-074908FM-15+0007KWWD V0209999V00155007925MN0160935N5+01505+01405999999ADDGA1075+007925999GA2085+010975999GD13991+0079259GD24991+0109759GE19AGL   +99999+99999GF199999999999007921999999MA1100175100095REMMET08501/02/22 00:18:02 METAR KWWD 020518Z VRB03KT 10SM BKN026 OVC036 15/14 A2958 RMK AO2 $
0420745966037262022010205567+39008-074908FM-15+0007KWWD V0203005N00365006715MN0112655N5+01505+01445100265ADDAA101000021AA206000021AU110020015AW1615GA1025+003055999GA2075+006715999GA3085+008235999GD11991+0030559GD23991+0067159GD34991+0082359GE19AGL   +99999+99999GF199999999999003051999999KA1060M+01721KA2060N+01281MA1100245100155MD1390109+9999MW1615REMMET14801/02/22 00:56:02 METAR KWWD 020556Z 30007KT 7SM -RA FEW010 BKN022 OVC027 15/14 A2960 RMK AO2 RAB48 SLP026 P0000 60000 T01500144 10172 20128 53010 $EQDQ01  00008PRCP06
0303745966037262022010206147+39008-074908FM-15+0007KWWD V0202405N00265012805MN0128755N5+01405+01405999999ADDAA101000595AU110020015AW1615GA1025+003665999GA2075+012805999GA3085+025915999GD11991+0036659GD23991+0128059GD34991+0259159GE19AGL   +99999+99999GF199999999999003661999999MA1100205100125MW1615REMMET10101/02/22 01:14:02 METAR KWWD 020614Z 24005KT 8SM -RA FEW012 BKN042 OVC085 14/14 A2959 RMK AO2 P0002 $
0245745966037262022010206567+39008-074908FM-15+0007KWWD V0202405N00265033535MN0160935N5+01565+01565100195ADDAA101000895AU110020015AW1615GA1075+033535999GD13991+0335359GE19AGL   +99999+99999GF199999999999033531999999MA1100175100095MW1615REMMET10501/02/22 01:56:02 METAR KWWD 020656Z 24005KT 10SM -RA BKN110 16/16 A2958 RMK AO2 SLP019 P0003 T01560156 $
0245745966037262022010207567+39008-074908FM-15+0007KWWD V0202405N00415030485MN0160935N5+01675+01675100245ADDAA101000595AU110020015AW1615GA1085+030485999GD14991+0304859GE19AGL   +99999+99999GF199999999999030481999999MA1100245100155MW1615REMMET10501/02/22 02:56:02 METAR KWWD 020756Z 24008KT 10SM -RA OVC100 17/17 A2960 RMK AO2 SLP024 P0002 T01670167 $
0304745966037262022010208127+39008-074908FM-15+0007KWWD V0202505N00465003355MN0160935N5+01705+01705999999ADDAA101000395AU110020015AW1615GA1025+001225999GA2075+003355999GA3085+030485999GD11991+0012259GD23991+0033559GD34991+0304859GE19AGL   +99999+99999GF199999999999001221999999MA1100205100125MW1615REMMET10201/02/22 03:12:02 METAR KWWD 020812Z 25009KT 10SM -RA FEW004 BKN011 OVC100 17/17 A2959 RMK AO2 P0001 $
0304745966037262022010208267+39008-074908FM-15+0007KWWD V0202505N00465001225MN0160935N5+01705+01705999999ADDAA101000395AU110020015AW1615GA1075+001225999GA2075+003355999GA3085+033535999GD13991+0012259GD23991+0033559GD34991+0335359GE19AGL   +99999+99999GF199999999999001221999999MA1100175100095MW1615REMMET10201/02/22 03:26:02 METAR KWWD 020826Z 25009KT 10SM -RA BKN004 BKN011 OVC110 17/17 A2958 RMK AO2 P0001 $
0254745966037262022010208517+39008-074908FM-15+0007KWWD V0202605N00465000615MN0048285N5+01605+01605999999ADDAA101000595AU110020015AU200001015AW1105AW2615GA1085+000615999GD14991+0006159GE19AGL   +99999+99999GF199999999999000611999999MA1100345100265MW1615REMMET09701/02/22 03:51:02 METAR KWWD 020851Z 26009KT 3SM -RA BR OVC002 16/16 A2963 RMK AO2 PRESRR P0002 $
0261745966037262022010208547+39008-074908FM-15+0007KWWD V0202605N00465000615MN0028165V5+01605+01605999999ADDAA101000895AU110020015AU200001015AW1105AW2615GA1085+000615999GD14991+0006159GE19AGL   +99999+99999GF199999999999000611999999MA1100345100265MW1615REMMET10401/02/22 03:54:02 METAR KWWD 020854Z 26009KT 1 3/4SM -RA BR OVC002 16/16 A2963 RMK AO2 VIS 3/4V4 P0003 $
0324745966037262022010208567+39008-074908FM-15+0007KWWD V0202705N00575000615MN0020125N5+01565+01565100355ADDAA101000895AA203002091AU110020015AU200001015AW1105AW2615GA1085+000615999GD14991+0006159GE19AGL   +99999+99999GF199999999999000611999999MA1100345100265MD1090169+9999MW1615REMMET12301/02/22 03:56:02 METAR KWWD 020856Z 27011KT 1 1/4SM -RA BR OVC002 16/16 A2963 RMK AO2 SLP035 P0003 60008 T01560156 50016 $EQDQ01  00208PRCP03
0247745966037262022010209137+39008-074908FM-15+0007KWWD V0202705N00465000615MN0048285N5+01605+01505999999ADDAA101000895AU110020015AU200001015AW1105AW2615GA1085+000615999GD14991+0006159GE19AGL   +99999+99999GF199999999999000611999999MA1100345100265MW1615REMMET09001/02/22 04:13:02 METAR KWWD 020913Z 27009KT 3SM -RA BR OVC002 16/15 A2963 RMK AO2 P0003 $
0315745966037262022010209417+39008-074908FM-15+0007KWWD V0202805N00365005185MN0144845N5+01605+01605999999ADDAA101002595AU110020015AW1615GA1045+001225999GA2075+005185999GA3085+027435999GD12991+0012251GD23991+0051859GD34991+0274359GE19AGL   +99999+99999GF199999999999001221999999MA1100275100195MW1615REMMET11301/02/22 04:41:02 METAR KWWD 020941Z 28007KT 9SM -RA SCT004 BKN017 OVC090 16/16 A2961 RMK AO2 CIG 013V030 P0010 $
0321745966037262022010209567+39008-074908FM-15+0007KWWD V0202805N00365003665MN0160935N5+01565+01565100295ADDAA101002895AU110020015AW1615GA1045+001225999GA2075+003665999GA3085+030485999GD12991+0012259GD23991+0036659GD34991+0304859GE19AGL   +99999+99999GF199999999999001221999999MA1100275100195MW1615REMMET11901/02/22 04:56:02 METAR KWWD 020956Z 28007KT 10SM -RA SCT004 BKN012 OVC100 16/16 A2961 RMK AO2 SLP029 P0011 T01560156 $
0302745966037262022010210107+39008-074908FM-15+0007KWWD V0202805N00315000615MN0112655N5+01505+01505999999ADDAA101000895AU120020015AW1625GA1075+000615999GA2075+003355999GA3085+024385999GD13991+0006159GD23991+0033559GD34991+0243859GE19AGL   +99999+99999GF199999999999000611999999MA1100275100195MW1655REMMET10001/02/22 05:10:02 METAR KWWD 021010Z 28006KT 7SM RA BKN002 BKN011 OVC080 15/15 A2961 RMK AO2 P0003 $
0302745966037262022010210257+39008-074908FM-15+0007KWWD V0202605N00365021345MN0112655N5+01505+01505999999ADDAA101001895AU120020015AW1625GA1045+000615999GA2045+004275999GA3085+021345999GD12991+0006159GD22991+0042759GD34991+0213459GE19AGL   +99999+99999GF199999999999000611999999MA1100305100225MW1655REMMET10001/02/22 05:25:02 METAR KWWD 021025Z 26007KT 7SM RA SCT002 SCT014 OVC070 15/15 A2962 RMK AO2 P0007 $
0320745966037262022010210567+39008-074908FM-15+0007KWWD V0202305N00515021345MN0160935N5+01505+01445100415ADDAA101005195AU120020015AW1625GA1025+002445999GA2075+021345999GA3085+025915999GD11991+0024459GD23991+0213459GD34991+0259159GE19AGL   +99999+99999GF199999999999002441999999MA1100375100295MW1655REMMET11801/02/22 05:56:02 METAR KWWD 021056Z 23010KT 10SM RA FEW008 BKN070 OVC085 15/14 A2964 RMK AO2 SLP041 P0020 T01500144 $
0379745966037262022010211567+39008-074908FM-15+0007KWWD V0201905N00415033535MN0160935N5+01505+01445100255ADDAA101002395AA206012291AA324019191AU110020015AW1615GA1085+033535999GD14991+0335359GE19AGL   +99999+99999GF199999999999033531999999KA1060M+01721KA2060N+01441MA1100245100155MD1890099+9999MW1615REMMET14201/02/22 06:56:02 METAR KWWD 021156Z 19008KT 10SM -RA OVC110 15/14 A2960 RMK AO2 PRESFR SLP025 P0009 60048 70075 T01500144 10172 20144 58009 $EQDQ01  01218PRCP06Q02  01908PRCP24
0224745966037262022010212567+39008-074908FM-15+0007KWWD V0202105N00515033535MN0160935N5+01445+01395100325ADDAA101000395GA1075+033535999GD13991+0335359GE19AGL   +99999+99999GF199999999999033531999999MA1100305100225REMMET10701/02/22 07:56:02 METAR KWWD 021256Z 21010KT 10SM BKN110 14/14 A2962 RMK AO2 RAE56 SLP032 P0001 T01440139 $
0202745966037262022010213567+39008-074908FM-15+0007KWWD V0202305N004152200059N0160935N5+01505+01395100475ADDAA101000021GA1005+999999999GD10991+9999999GF100991999999999999999999MA1100445100365REMMET10701/02/22 08:56:02 METAR KWWD 021356Z 23008KT 10SM CLR 15/14 A2966 RMK AO2 RAB07E18 SLP047 P0000 T01500139 $
0273745966037262022010214567+39008-074908FM-15+0007KWWD V0202205N003652200059N0160935N5+01445+01395100515ADDAA103000391GA1045+015245999GD12991+0152459GE19AGL   +99999+99999GF104995999999015241999999MA1100475100395MD1190259+9999REMMET10701/02/22 09:56:02 METAR KWWD 021456Z 22007KT 10SM SCT050 14/14 A2967 RMK AO2 SLP051 60001 T01440139 51025 $EQDQ01  00028PRCP03D01      0ADE726
0222745966037262022010215487+39008-074908FM-15+0007KWWD V0202605N00415002445MN0160935N5+01405+01405999999ADDGA1075+002445999GA2085+015245999GD13991+0024459GD24991+0152459GE19AGL   +99999+99999GF199999999999002441999999MA1100585100495REMMET08501/02/22 10:48:02 METAR KWWD 021548Z 26008KT 10SM BKN008 OVC050 14/14 A2970 RMK AO2 $
0239745966037262022010215567+39008-074908FM-15+0007KWWD V0202605N00415002445MN0160935N5+01445+01395100595ADDGA1075+002445999GA2085+015245999GD13991+0024459GD24991+0152459GE19AGL   +99999+99999GF199999999999002441999999MA1100585100495REMMET10201/02/22 10:56:02 METAR KWWD 021556Z 26008KT 10SM BKN008 OVC050 14/14 A2970 RMK AO2 SLP059 T01440139 $
0222745966037262022010216397+39008-074908FM-15+0007KWWD V0202505N00465001225MN0160935N5+01505+01405999999ADDGA1075+001225999GA2075+002745999GD13991+0012259GD23991+0027459GE19AGL   +99999+99999GF199999999999001221999999MA1100545100465REMMET08501/02/22 11:39:02 METAR KWWD 021639Z 25009KT 10SM BKN004 BKN009 15/14 A2969 RMK AO2 $
0239745966037262022010216567+39008-074908FM-15+0007KWWD V0202405N00465003055MN0160935N5+01505+01445100555ADDGA1045+001225999GA2075+003055999GD12991+0012259GD23991+0030559GE19AGL   +99999+99999GF199999999999001221999999MA1100545100465REMMET10201/02/22 11:56:02 METAR KWWD 021656Z 24009KT 10SM SCT004 BKN010 15/14 A2969 RMK AO2 SLP055 T01500144 $
0196745966037262022010217107+39008-074908FM-15+0007KWWD V0202405N00675002445MN0160935N5+01505+01405999999ADDGA1085+002445999GD14991+0024451GE19AGL   +99999+99999GF199999999999002441999999MA1100515100425REMMET09001/02/22 12:10:02 METAR KWWD 021710Z 24013KT 10SM OVC008 15/14 A2968 RMK AO2 CIG 004V011 $
0214745966037262022010217457+39008-074908FM-15+0007KWWD V0202405N005752200059N0160935N5+01505+01405999999ADDGA1045+002445999GD12991+0024459GE19AGL   +99999+99999GF104995999999002441999999MA1100515100425OC100935REMMET08101/02/22 12:45:02 METAR KWWD 021745Z 24011G18KT 10SM SCT008 15/14 A2968 RMK AO2 $EQDD01      0ADE726
0311745966037262022010217567+39008-074908FM-15+0007KWWD V0202405N006252200059N0160935N5+01505+01395100585ADDAA106000391GA1025+001835999GD11991+0018359GE19AGL   +99999+99999GF102995999999001831999999KA1060M+01501KA2060N+01441MA1100585100495MD1190079+9999REMMET11901/02/22 12:56:02 METAR KWWD 021756Z 24012KT 10SM FEW006 15/14 A2970 RMK AO2 SLP058 60001 T01500139 10150 20144 51007 $EQDQ01  00028PRCP06D01      0ADE726
0176745966037262022010218567+39008-074908FM-15+0007KWWD V0202405N004652200059N0160935N5+01505+01395100555ADDGA1005+999999999GD10991+9999999GF100991999999999999999999MA1100545100465REMMET09201/02/22 13:56:02 METAR KWWD 021856Z 24009KT 10SM CLR 15/14 A2969 RMK AO2 SLP055 T01500139 $
0220745966037262022010219567+39008-074908FM-15+0007KWWD V0202405N004152200059N0160935N5+01505+01395100625ADDGA1025+018295999GD11991+0182959GE19AGL   +99999+99999GF102995999999018291999999MA1100615100535REMMET09501/02/22 14:56:02 METAR KWWD 021956Z 24008KT 10SM FEW060 15/14 A2971 RMK AO2 SLP062 T01500139 $EQDD01      0ADE726
0196745966037262022010220567+39008-074908FM-15+0007KWWD V0202505N004152200059N0160935N5+01565+01395100745ADDGA1005+999999999GD10991+9999999GF100991999999999999999999MA1100715100635MD1390169+9999REMMET09801/02/22 15:56:02 METAR KWWD 022056Z 25008KT 10SM CLR 16/14 A2974 RMK AO2 SLP074 T01560139 53016 $
0176745966037262022010221567+39008-074908FM-15+0007KWWD V0202305N004652200059N0160935N5+01505+01395100875ADDGA1005+999999999GD10991+9999999GF100991999999999999999999MA1100855100765REMMET09201/02/22 16:56:02 METAR KWWD 022156Z 23009KT 10SM CLR 15/14 A2978 RMK AO2 SLP087 T01500139 $
0201745966037262022010222567+39008-074908FM-15+0007KWWD V0202605N00365012195MN0160935N5+01565+01445100945ADDGA1075+012195999GD13991+0121959GE19AGL   +99999+99999GF199999999999012191999999MA1100915100835REMMET09501/02/22 17:56:02 METAR KWWD 022256Z 26007KT 10SM BKN040 16/14 A2980 RMK AO2 SLP094 T01560144 $
0259745966037262022010223567+39008-074908FM-15+0007KWWD V0202505N00365013415MN0160935N5+01565+01445101065ADDGA1085+013415999GD14991+0134159GE19AGL   +99999+99999GF199999999999013411999999KA1060M+01561KA2060N+01501MA1101055100975MD1190339+9999REMMET11301/02/22 18:56:02 METAR KWWD 022356Z 25007KT 10SM OVC044 16/14 A2984 RMK AO2 SLP106 T01560144 10156 20150 51033 $
0288745966037262022010300567+39008-074908FM-15+0007KWWD V0203105N00365014635MN0160935N5+01335+01115101125ADDGA1025+005495999GA2045+010975999GA3085+014635999GD11991+0054959GD22991+0109759GD34991+0146359GE19AGL   +99999+99999GF199999999999005491999999MA1101085101005OC100725REMMET11201/02/22 19:56:01 METAR KWWD 030056Z 31007G14KT 10SM FEW018 SCT036 OVC048 13/11 A2985 RMK AO2 SLP112 T01330111 $
0201745966037262022010301567+39008-074908FM-15+0007KWWD V0203405N00365018295MN0160935N5+01225+00835101235ADDGA1085+018295999GD14991+0182959GE19AGL   +99999+99999GF199999999999018291999999MA1101225101145REMMET09501/02/22 20:56:01 METAR KWWD 030156Z 34007KT 10SM OVC060 12/08 A2989 RMK AO2 SLP123 T01220083 $
0232745966037262022010302567+39008-074908FM-15+0007KWWD V0203405N00415016765MN0160935N5+01005+00615101405ADDGA1085+016765999GD14991+0167659GE19AGL   +99999+99999GF199999999999016761999999MA1101395101305MD1390349+9999OC100825REMMET10401/02/22 21:56:01 METAR KWWD 030256Z 34008G16KT 10SM OVC055 10/06 A2994 RMK AO2 SLP140 T01000061 53034 $
0212745966037262022010303567+39008-074908FM-15+0007KWWD V0203605N00575016765MN0160935N5+00835+00505101555ADDGA1085+016765999GD14991+0167659GE19AGL   +99999+99999GF199999999999016761999999MA1101525101445OC100985REMMET09801/02/22 22:56:02 METAR KWWD 030356Z 36011G19KT 10SM OVC055 08/05 A2998 RMK AO2 SLP155 T00830050 $
0248745966037262022010304567+39008-074908FM-15+0007KWWD V0203605N00465016765MN0160935N5+00675+00065101655ADDGA1085+016765999GD14991+0167659GE19AGL   +99999+99999GF199999999999016761999999KA1240M+01721KA2240N+00671MA1101635101545OC100885REMMET10801/02/22 23:56:02 METAR KWWD 030456Z 36009G17KT 10SM OVC055 07/01 A3001 RMK AO2 SLP165 T00670006 401720067 $
002774596603726202201030459O+39008-074908SOD  +0007KWWD V020999999999999999999999999999+99999+99999999999ADDAT1AU16RA  5AT2AU13BR  5
0259745966037262022010305567+39008-074908FM-15+0007KWWD V0200105N00575018295MN0160935N5+00565+00005101725ADDGA1085+018295999GD14991+0182959GE19AGL   +99999+99999GF199999999999018291999999KA1060M+01561KA2060N+00561MA1101695101615MD1190329+9999REMMET11301/03/22 00:56:02 METAR KWWD 030556Z 01011KT 10SM OVC060 06/00 A3003 RMK AO2 SLP172 T00560000 10156 20056 51032 $
0252745966037262022010306567+39008-074908FM-15+0007KWWD V0200105N00625018295MN0160935N5+00445-00065101695ADDAA101000021AU110020015AW1615GA1085+018295999GD14991+0182959GE19AGL   +99999+99999GF199999999999018291999999MA1101665101585MW1615REMMET11201/03/22 01:56:02 METAR KWWD 030656Z 01012KT 10SM -RA OVC060 04/M01 A3002 RMK AO2 RAB53 SLP169 P0000 T00441006 $
0245745966037262022010307567+39008-074908FM-15+0007KWWD V0200105N00365018295MN0160935N5+00285+00065101815ADDAA101000021AU110020015AW1615GA1085+018295999GD14991+0182959GE19AGL   +99999+99999GF199999999999018291999999MA1101795101715MW1615REMMET10501/03/22 02:56:02 METAR KWWD 030756Z 01007KT 10SM -RA OVC060 03/01 A3006 RMK AO2 SLP181 P0000 T00280006 $
0346745966037262022010308567+39008-074908FM-15+0007KWWD V0203605N00515024385MN0160935N5+00225+00065101755ADDAA101001095AA203001091AU110020015AW1615GA1025+018295999GA2085+024385999GD11991+0182959GD24991+0243859GE19AGL   +99999+99999GF199999999999018291999999MA1101735101645MD1090039+9999MW1615REMMET13101/03/22 03:56:02 METAR KWWD 030856Z 36010KT 10SM -RA FEW060 OVC080 02/01 A3004 RMK AO2 SLP175 P0004 60004 T00220006 50003 FZRANO $EQDQ01  00108PRCP03
0276745966037262022010309567+39008-074908FM-15+0007KWWD V0200105N00415021345MN0144845N5+00115+00005101735ADDAA101001095AU110030015AW1715GA1085+021345999GD14991+0213459GE19AGL   +99999+99999GF199999999999021341999999MA1101735101645MW1715REMMET13601/03/22 04:56:02 METAR KWWD 030956Z 01008KT 9SM -SN OVC070 01/00 A3004 RMK AO2 RAE26UPB01E54SNB34E43B54 SLP173 P0004 T00110000 FZRANO $
0272745966037262022010310537+39008-074908FM-15+0007KWWD V0200105N00515021345MN0112655N5+00105+00005999999ADDAA101001395AU110030015AW1715GA1025+002745999GA2085+021345999GD11991+0027459GD24991+0213459GE19AGL   +99999+99999GF199999999999002741999999MA1101695101615MW1715REMMET10101/03/22 05:53:02 METAR KWWD 031053Z 01010KT 7SM -SN FEW009 OVC070 01/00 A3003 RMK AO2 P0005 FZRANO $
0289745966037262022010310567+39008-074908FM-15+0007KWWD V0200105N00465021345MN0112655N5+00065+00005101695ADDAA101001395AU110030015AW1715GA1025+002745999GA2085+021345999GD11991+0027459GD24991+0213459GE19AGL   +99999+99999GF199999999999002741999999MA1101665101585MW1715REMMET11801/03/22 05:56:02 METAR KWWD 031056Z 01009KT 7SM -SN FEW009 OVC070 01/00 A3002 RMK AO2 SLP169 P0005 T00060000 FZRANO $
0342745966037262022010311197+39008-074908FM-15+0007KWWD V0200205N00725005185MN0064375N5+00105-00105999999ADDAA101001095AU110030015AU200001015AW1105AW2715GA1045+002745999GA2075+005185999GA3085+019815999GD12991+0027459GD23991+0051859GD34991+0198159GE19AGL   +99999+99999GF199999999999002741999999MA1101565101475MW1715OC101135REMMET11501/03/22 06:19:02 METAR KWWD 031119Z 02014G22KT 4SM -SN BR SCT009 BKN017 OVC065 01/M01 A2999 RMK AO2 P0004 FZRANO $
0354745966037262022010311267+39008-074908FM-15+0007KWWD V0200105N00675002745MN0080475N5+00105-00105999999ADDAA101001595AU110030015AU200001015AW1105AW2715GA1075+002745999GA2075+003965999GA3085+019815999GD13991+0027451GD23991+0039659GD34991+0198159GE19AGL   +99999+99999GF199999999999002741999999MA1101565101475MW1715OC101035REMMET12701/03/22 06:26:02 METAR KWWD 031126Z 01013G20KT 5SM -SN BR BKN009 BKN013 OVC065 01/M01 A2999 RMK AO2 CIG 006V011 P0006 FZRANO $
0410745966037262022010311567+39008-074908FM-15+0007KWWD V0200105N00725002135MN0080475N5+00065-00065101585ADDAA101004395AA206007691AA324007991AU110030015AU200001015AW1105AW2715GA1085+002135999GD14991+0021359GE19AGL   +99999+99999GF199999999999002131999999KA1060M+00561KA2060N+00061MA1101565101475MD1890159+9999MW1715OC101135REMMET14801/03/22 06:56:02 METAR KWWD 031156Z 01014G22KT 5SM -SN BR OVC007 01/M01 A2999 RMK AO2 SLP158 P0017 60030 70031 T00061006 10056 20006 58015 FZRANO $EQDQ01  00768PRCP06Q02  00788PRCP24
0315745966037262022010312517+39008-074908FM-15+0007KWWD V0200105N00825002745MN0028165N5+00105-00105999999ADDAA101002395AU110030015AU200001015AW1105AW2715GA1085+002745999GD14991+0027451GE19AGL   +99999+99999GF199999999999002741999999MA1101595101515MW1715OC101185REMMET15001/03/22 07:51:02 METAR KWWD 031251Z 01016G23KT 1 3/4SM -SN BR OVC009 01/M01 A3000 RMK AO2 UPB1158E12B34E37SNE1158B12E34B37 CIG 006V012 P0009 FZRANO $
0328745966037262022010312567+39008-074908FM-15+0007KWWD V0200105N00775002135MN0016095N5+00005-00065101575ADDAA101002395AU110030015AU200001015AW1105AW2715GA1085+002135999GD14991+0021351GE19AGL   +99999+99999GF199999999999002131999999MA1101565101475MW1715OC101085REMMET16301/03/22 07:56:02 METAR KWWD 031256Z 01015G21KT 1SM -SN BR OVC007 00/M01 A2999 RMK AO2 UPB1158E12B34E37SNE1158B12E34B37 CIG 004V012 SLP157 P0009 T00001006 FZRANO $
0317745966037262022010313007+39008-074908FM-15+0007KWWD V0200105N00825002135MN0008055N5+00005-00105999999ADDAA101000021AU120030015AU200002015AW1305AW2725GA1075+002135999GA2085+003055999GD13991+0021351GD24991+0030559GE19AGL   +99999+99999GF199999999999002131999999MA1101525101445MW1735OC101085REMMET12101/03/22 08:00:02 METAR KWWD 031300Z 01016G21KT 1/2SM SN FG BKN007 OVC010 00/M01 A2998 RMK AO2 CIG 004V008 P0000 FZRANO $
0280745966037262022010313127+39008-074908FM-15+0007KWWD V0200205N00775001525MN0008055N5+00005-00105999999ADDAA101000021AU110030015AU200002015AW1305AW2715GA1085+001525999GD14991+0015251GE19AGL   +99999+99999GF199999999999001521999999MA1101565101475MW1715OC101245REMMET11501/03/22 08:12:02 METAR KWWD 031312Z 02015G24KT 1/2SM -SN FG OVC005 00/M01 A2999 RMK AO2 CIG 003V010 P0000 FZRANO $
0278745966037262022010313157+39008-074908FM-15+0007KWWD V0200105N00775001525MN0016095N5+00005-00105999999ADDAA101000021AU110030015AU200001015AW1105AW2715GA1085+001525999GD14991+0015251GE19AGL   +99999+99999GF199999999999001521999999MA1101565101475MW1715OC101245REMMET11301/03/22 08:15:02 METAR KWWD 031315Z 01015G24KT 1SM -SN BR OVC005 00/M01 A2999 RMK AO2 CIG 003V010 P0000 FZRANO $
0287745966037262022010313407+39008-074908FM-15+0007KWWD V0203605N00575001525MN0008055N5+00005-00105999999ADDAA101000395AU110030015AU200002015AW1305AW2715GA1085+001525999GD14991+0015251GE19AGL   +99999+99999GF199999999999001521999999MA1101735101645MW1715OC100885REMMET12201/03/22 08:40:02 METAR KWWD 031340Z 36011G17KT 1/2SM -SN FG OVC005 00/M01 A3004 RMK AO2 CIG 004V010 PRESRR P0001 FZRANO $
0303745966037262022010313567+39008-074908FM-15+0007KWWD V0200105N00725001525MN0008055N5+00005-00065101825ADDAA101000395AU120030015AU200002015AW1305AW2725GA1085+001525999GD14991+0015251GE19AGL   +99999+99999GF199999999999001521999999MA1101795101715MW1735OC100935REMMET13801/03/22 08:56:02 METAR KWWD 031356Z 01014G18KT 1/2SM SN FG OVC005 00/M01 A3006 RMK AO2 CIG 003V009 PRESRR SLP182 P0001 T00001006 FZRANO $
0256745966037262022010314037+39008-074908FM-15+0007KWWD V0200105N00515001525MN0004025N5+00005-00105999999ADDAA101000021AU120030015AU200002015AW1305AW2725GA1085+001525999GD14991+0015259GE19AGL   +99999+99999GF199999999999001521999999MA1101795101715MW1735REMMET09901/03/22 09:03:02 METAR KWWD 031403Z 01010KT 1/4SM SN FG OVC005 00/M01 A3006 RMK AO2 P0000 FZRANO $
0362745966037262022010314567+39008-074908FM-15+0007KWWD V0200205N01035001525MN0008055N5-00065-00115101735ADDAA101000395AA203002891AU120030015AU208002015AW1355AW2725GA1085+001525999GD14991+0015251GE19AGL   +99999+99999GF199999999999001521999999MA1101735101645MD1090159+9999MW1735OC101185REMMET15301/03/22 09:56:02 METAR KWWD 031456Z 02020G23KT 1/2SM SN FZFG OVC005 M01/M01 A3004 RMK AO2 CIG 003V007 PRESFR SLP173 P0001 60011 T10061011 50015 FZRANO $EQDQ01  00278PRCP03
0314745966037262022010315107+39008-074908FM-15+0007KWWD V0200205N00935001525MN0004025N5-00105-00105999999ADDAA101000021AU120030015AU208002015AW1355AW2725GA1085+001525999GD14991+0015251GE19AGL   +99999+99999GF199999999999001521999999MA1101665101585MW1735OC101445OD149901441030REMMET13501/03/22 10:10:02 METAR KWWD 031510Z 02018G28KT 1/4SM SN FZFG OVC005 M01/M01 A3002 RMK AO2 PK WND 03028/1506 CIG 003V008 P0000 FZRANO $
0303745966037262022010315427+39008-074908FM-15+0007KWWD V0200105N00725001525MN0008055N5-00105-00105999999ADDAA101000021AU120030015AU208002015AW1355AW2725GA1085+001525999GD14991+0015251GE19AGL   +99999+99999GF199999999999001521999999MA1101635101545MW1735OD149901441030REMMET13201/03/22 10:42:02 METAR KWWD 031542Z 01014KT 1/2SM SN FZFG OVC005 M01/M01 A3001 RMK AO2 PK WND 03028/1506 CIG 003V007 P0000 FZRANO $
0326745966037262022010315567+39008-074908FM-15+0007KWWD V0200105N00825001525MN0004025N5-00065-00115101605ADDAA101000021AU130030015AU208002015AW1355AW2735GA1085+001525999GD14991+0015251GE19AGL   +99999+99999GF199999999999001521999999MA1101595101515OC101085OD149901441030REMMET15301/03/22 10:56:02 METAR KWWD 031556Z 01016G21KT 1/4SM +SN FZFG OVC005 M01/M01 A3000 RMK AO2 PK WND 03028/1506 CIG 004V008 SLP160 P0000 T10061011 FZRANO $
0321745966037262022010316567+39008-074908FM-15+0007KWWD V0200305N00985001525MN0004025N5-00175-00225101345ADDAA101000395AU130030015AU208002015AW1355AW2735GA1085+001525999GD14991+0015259GE19AGL   +99999+99999GF199999999999001521999999MA1101325101245OC101245OD149901591010REMMET14801/03/22 11:56:02 METAR KWWD 031656Z 03019G24KT 1/4SM +SN FZFG OVC005 M02/M02 A2992 RMK AO2 PK WND 01031/1611 PRESFR SLP134 P0001 T10171022 FZRANO $
0282745966037262022010317277+39008-074908FM-15+0007KWWD V0200205N00775001525MN0008055N5-00205-00205999999ADDAA101000021AU120030015AU208002015AW1355AW2725GA1085+001525999GD14991+0015251GE19AGL   +99999+99999GF199999999999001521999999MA1101255101175MW1735OC101035REMMET11701/03/22 12:27:02 METAR KWWD 031727Z 02015G20KT 1/2SM SN FZFG OVC005 M02/M02 A2990 RMK AO2 CIG 003V008 P0000 FZRANO $
0314745966037262022010317547+39008-074908FM-15+0007KWWD V0200105N00935002135MN0004025N5-00205-00305999999ADDAA101000021AU120030015AU208002015AW1355AW2725GA1085+002135999GD14991+0021351GE19AGL   +99999+99999GF199999999999002131999999MA1101255101175MW1735OC101445OD149901441030REMMET13501/03/22 12:54:02 METAR KWWD 031754Z 01018G28KT 1/4SM SN FZFG OVC007 M02/M03 A2990 RMK AO2 PK WND 03028/1752 CIG 005V011 P0000 FZRANO $
0420745966037262022010317567+39008-074908FM-15+0007KWWD V0200105N00825002135MN0004025N5-00225-00285101225ADDAA101000021AA206003091AU130030015AU208002015AW1355AW2735GA1085+002135999GD14991+0021351GE19AGL   +99999+99999GF199999999999002131999999KA1060M+00061KA2060N-00221MA1101225101145MD1890389+9999OC101445OD149901441030REMMET17701/03/22 12:56:02 METAR KWWD 031756Z 01016G28KT 1/4SM +SN FZFG OVC007 M02/M03 A2989 RMK AO2 PK WND 03028/1752 CIG 003V011 SLP122 P0000 60012 T10221028 10006 21022 58038 FZRANO $EQDQ01  00308PRCP06
0320745966037262022010318247+39008-074908FM-15+0007KWWD V0203605N00725002135MN0008055N5-00205-00305999999ADDAA101000395AU120030015AU208002015AW1355AW2725GA1075+002135999GA2085+004275999GD13991+0021351GD24991+0042759GE19AGL   +99999+99999GF199999999999002131999999MA1101395101305MW1735OC101085REMMET12401/03/22 13:24:02 METAR KWWD 031824Z 36014G21KT 1/2SM SN FZFG BKN007 OVC014 M02/M03 A2994 RMK AO2 CIG 003V010 P0001 FZRANO $
0347745966037262022010318477+39008-074908FM-15+0007KWWD V0200105N00675002135MN0004025N5-00205-00305999999ADDAA101000395AU130030015AU208002015AW1355AW2735GA1075+002135999GA2085+003665999GD13991+0021351GD24991+0036659GE19AGL   +99999+99999GF199999999999002131999999MA1101295101205OC101345OD149901331010REMMET14301/03/22 13:47:02 METAR KWWD 031847Z 01013G26KT 1/4SM +SN FZFG BKN007 OVC012 M02/M03 A2991 RMK AO2 PK WND 01026/1844 CIG 004V008 P0001 FZRANO $
0331745966037262022010318567+39008-074908FM-15+0007KWWD V0203605N00775002135MN0004025N5-00285-00335101305ADDAA101000395AU120030015AU208002015AW1355AW2725GA1085+002135999GD14991+0021351GE19AGL   +99999+99999GF199999999999002131999999MA1101295101205MW1735OC101135OD149901331010REMMET15201/03/22 13:56:02 METAR KWWD 031856Z 36015G22KT 1/4SM SN FZFG OVC007 M03/M03 A2991 RMK AO2 PK WND 01026/1844 CIG 004V011 SLP130 P0001 T10281033 FZRANO $
0308745966037262022010318597+39008-074908FM-15+0007KWWD V0203605N00775003355MN0008055N5-00305-00305999999ADDAA101000021AU120030015AU208002015AW1355AW2725GA1045+002135999GA2085+003355999GD12991+0021359GD24991+0033559GE19AGL   +99999+99999GF199999999999002131999999MA1101325101245MW1735OC101135REMMET11201/03/22 13:59:02 METAR KWWD 031859Z 36015G22KT 1/2SM SN FZFG SCT007 OVC011 M03/M03 A2992 RMK AO2 P0000 FZRANO $
0320745966037262022010319137+39008-074908FM-15+0007KWWD V0200105N00775002135MN0008055N5-00205-00305999999ADDAA101000021AU120030015AU208002015AW1355AW2725GA1075+002135999GA2085+003665999GD13991+0021351GD24991+0036659GE19AGL   +99999+99999GF199999999999002131999999MA1101255101175MW1735OC101245REMMET12401/03/22 14:13:02 METAR KWWD 031913Z 01015G24KT 1/2SM SN FZFG BKN007 OVC012 M02/M03 A2990 RMK AO2 CIG 004V009 P0000 FZRANO $
0315745966037262022010319237+39008-074908FM-15+0007KWWD V0203605N00775002135MN0004025N5-00205-00305999999ADDAA101000021AU130030015AU208002015AW1355AW2735GA1075+002135999GA2085+003665999GD13991+0021351GD24991+0036659GE19AGL   +99999+99999GF199999999999002131999999MA1101255101175OC101185REMMET12501/03/22 14:23:02 METAR KWWD 031923Z 36015G23KT 1/4SM +SN FZFG BKN007 OVC012 M02/M03 A2990 RMK AO2 CIG 004V008 P0000 FZRANO $
0327745966037262022010319437+39008-074908FM-15+0007KWWD V0200105N00825001835MN0008055N5-00305-00305999999ADDAA101000021AU120030015AU208002015AW1355AW2725GA1075+001835999GA2085+003055999GD13991+0018351GD24991+0030559GE19AGL   +99999+99999GF199999999999001831999999MA1101355101275MW1735OC101085REMMET13101/03/22 14:43:02 METAR KWWD 031943Z 01016G21KT 1/2SM SN FZFG BKN006 OVC010 M03/M03 A2993 RMK AO2 CIG 004V008 PRESRR P0000 FZRANO $
0337745966037262022010319567+39008-074908FM-15+0007KWWD V0203605N00775001835MN0008055N5-00285-00335101385ADDAA101000021AU120030015AU208002015AW1355AW2725GA1075+001835999GA2085+003355999GD13991+0018351GD24991+0033559GE19AGL   +99999+99999GF199999999999001831999999MA1101355101275MW1735OC101185REMMET14101/03/22 14:56:02 METAR KWWD 031956Z 36015G23KT 1/2SM SN FZFG BKN006 OVC011 M03/M03 A2993 RMK AO2 CIG 004V009 SLP138 P0000 T10281033 FZRANO $
0314745966037262022010320297+39008-074908FM-15+0007KWWD V0203505N00885003355MN0012075N5-00305-00405999999ADDAA101000021AU110030015AU200001015AW1105AW2715GA1045+001835999GA2085+003355999GD12991+0018359GD24991+0033559GE19AGL   +99999+99999GF199999999999001831999999MA1101565101475MW1715OC101135REMMET11801/03/22 15:29:02 METAR KWWD 032029Z 35017G22KT 3/4SM -SN BR SCT006 OVC011 M03/M04 A2999 RMK AO2 PRESRR P0000 FZRANO $
0351745966037262022010320427+39008-074908FM-15+0007KWWD V0203505N00825002745MN0012075N5-00305-00405999999ADDAA101000021AU110030015AU200001015AW1105AW2715GA1075+002745999GA2085+004275999GD13991+0027451GD24991+0042759GE19AGL   +99999+99999GF199999999999002741999999MA1101635101545MW1715OC101345OD149901331350REMMET14101/03/22 15:42:02 METAR KWWD 032042Z 35016G26KT 3/4SM -SN BR BKN009 OVC014 M03/M04 A3001 RMK AO2 PK WND 35026/2040 CIG 006V012 P0000 FZRANO $
0321745966037262022010320517+39008-074908FM-15+0007KWWD V0203405N00625002745MN0008055N5-00305-00405999999ADDAA101000021AU120030015AU208002015AW1355AW2725GA1085+002745999GD14991+0027451GE19AGL   +99999+99999GF199999999999002741999999MA1101665101585MW1735OC101245OD149901331350REMMET14201/03/22 15:51:02 METAR KWWD 032051Z 34012G24KT 1/2SM SN FZFG OVC009 M03/M04 A3002 RMK AO2 PK WND 35026/2040 CIG 006V013 PRESRR P0000 FZRANO $
0387745966037262022010320567+39008-074908FM-15+0007KWWD V0203505N00675002745MN0004025N5-00285-00395101675ADDAA101000021AA203000391AU120030015AU208002015AW1355AW2725GA1085+002745999GD14991+0027451GE19AGL   +99999+99999GF199999999999002741999999MA1101665101585MD1190389+9999MW1735OC100985OD149901331350REMMET16401/03/22 15:56:02 METAR KWWD 032056Z 35013G19KT 1/4SM SN FZFG OVC009 M03/M04 A3002 RMK AO2 PK WND 35026/2040 CIG 004V014 SLP167 P0000 60001 T10281039 51038 FZRANO $EQDQ01  00028PRCP03
0283745966037262022010321127+39008-074908FM-15+0007KWWD V0203505N00625002445MN0008055N5-00205-00305999999ADDAA101000021AU110030015AU208002015AW1355AW2715GA1085+002445999GD14991+0024451GE19AGL   +99999+99999GF199999999999002441999999MA1101735101645MW1715OC100935REMMET11801/03/22 16:12:02 METAR KWWD 032112Z 35012G18KT 1/2SM -SN FZFG OVC008 M02/M03 A3004 RMK AO2 CIG 004V012 P0000 FZRANO $
0326745966037262022010321207+39008-074908FM-15+0007KWWD V0203505N00725001835MN0012075N5-00205-00305999999ADDAA101000021AU110030015AU200001015AW1105AW2715GA1075+001835999GA2085+003355999GD13991+0018351GD24991+0033559GE19AGL   +99999+99999GF199999999999001831999999MA1101735101645MW1715OC100985REMMET13001/03/22 16:20:02 METAR KWWD 032120Z 35014G19KT 3/4SM -SN BR BKN006 OVC011 M02/M03 A3004 RMK AO2 CIG 004V008 PRESRR P0000 FZRANO $
0320745966037262022010321267+39008-074908FM-15+0007KWWD V0203405N00625001835MN0004025N5-00205-00305999999ADDAA101000021AU120030015AU208002015AW1355AW2725GA1075+001835999GA2085+003355999GD13991+0018351GD24991+0033559GE19AGL   +99999+99999GF199999999999001831999999MA1101765101685MW1735OC100985REMMET12401/03/22 16:26:02 METAR KWWD 032126Z 34012G19KT 1/4SM SN FZFG BKN006 OVC011 M02/M03 A3005 RMK AO2 CIG 004V008 P0000 FZRANO $
0408745966037262022010321567+39008-074908FM-15+0007KWWD V0203605N00575001835MN0008055N5-00285-00335101835ADDAA101000021AU110030015AU208002015AW1355AW2715GA1075+001835999GA2075+004575999GA3085+005795999GD13991+0018351GD23991+0045759GD34991+0057959GE19AGL   +99999+99999GF199999999999001831999999MA1101795101715MW1715OC100935OD149901331360REMMET16701/03/22 16:56:02 METAR KWWD 032156Z 36011G18KT 1/2SM -SN FZFG BKN006 BKN015 OVC019 M03/M03 A3006 RMK AO2 PK WND 36026/2135 CIG 003V009 SLP183 P0000 T10281033 FZRANO $
0355745966037262022010321597+39008-074908FM-15+0007KWWD V0203605N00625001835MN0016095N5-00305-00305999999ADDAA101000021AU110030015AU200001015AW1105AW2715GA1075+001835999GA2075+004575999GA3085+007625999GD13991+0018351GD23991+0045759GD34991+0076259GE19AGL   +99999+99999GF199999999999001831999999MA1101835101745MW1715OC100935REMMET12801/03/22 16:59:02 METAR KWWD 032159Z 36012G18KT 1SM -SN BR BKN006 BKN015 OVC025 M03/M03 A3007 RMK AO2 CIG 003V009 P0000 FZRANO $
0343745966037262022010322037+39008-074908FM-15+0007KWWD V0203605N00515003965MN0032195N5-00305-00305999999ADDAA101000021AU110030015AU200001015AW1105AW2715GA1045+001835999GA2075+003965999GA3085+007625999GD12991+0018359GD23991+0039659GD34991+0076259GE19AGL   +99999+99999GF199999999999001831999999MA1101835101745MW1715OC100935REMMET11601/03/22 17:03:02 METAR KWWD 032203Z 36010G18KT 2SM -SN BR SCT006 BKN013 OVC025 M03/M03 A3007 RMK AO2 P0000 FZRANO $
0312745966037262022010322117+39008-074908FM-15+0007KWWD V0203605N00465008845MN0144845N5-00305-00305999999ADDAA101000021AU110030015AW1715GA1025+001835999GA2045+004275999GA3085+008845999GD11991+0018359GD22991+0042759GD34991+0088459GE19AGL   +99999+99999GF199999999999001831999999MA1101865101785MW1715REMMET11001/03/22 17:11:02 METAR KWWD 032211Z 36009KT 9SM -SN FEW006 SCT014 OVC029 M03/M03 A3008 RMK AO2 P0000 FZRANO $
0264745966037262022010322327+39008-074908FM-15+0007KWWD V0203405N00575010675MN0128755N5-00205-00405999999ADDAA101000395GA1045+008845999GA2075+010675999GD12991+0088459GD23991+0106759GE19AGL   +99999+99999GF199999999999008841999999MA1101865101785OC100825REMMET10801/03/22 17:32:02 METAR KWWD 032232Z 34011G16KT 8SM SCT029 BKN035 M02/M04 A3008 RMK AO2 SNE29 P0001 FZRANO $
0262745966037262022010322567+39008-074908FM-15+0007KWWD V0203405N005752200059N0144845N5-00175-00565101965ADDAA101000595GA1045+013415999GD12991+0134159GE19AGL   +99999+99999GF104995999999013411999999MA1101935101855OC100935REMMET11801/03/22 17:56:02 METAR KWWD 032256Z 34011G18KT 9SM SCT044 M02/M06 A3010 RMK AO2 SNE55 SLP196 P0002 T10171056 FZRANO $EQDD01      0ADE726
0307745966037262022010323567+39008-074908FM-15+0007KWWD V0203505N004652200059N0160935N5-00175-00725102065ADDAA101000595AA206001391GA1005+999999999GD10991+9999999GF100991999999999999999999KA1060M-00171KA2060N-00281MA1102035101955MD1190389+9999OC100935REMMET13401/03/22 18:56:02 METAR KWWD 032356Z 35009G18KT 10SM CLR M02/M07 A3013 RMK AO2 SLP206 P0002 60005 T10171072 11017 21028 51038 FZRANO $EQDQ01  00128PRCP06
0245745966037262022010400567+39008-074908FM-15+0007KWWD V0203305N005152200059N0144845N5-00225-00725102185ADDAA101000021AU110030015AW1715GA1005+999999999GD10991+9999999GF100991999999999999999999MA1102175102085MW1715OC100985REMMET11901/03/22 19:56:01 METAR KWWD 040056Z 33010G19KT 9SM -SN CLR M02/M07 A3017 RMK AO2 SNB48 SLP218 P0000 T10221072 FZRANO $
0239745966037262022010401567+39008-074908FM-15+0007KWWD V0203305N004652200059N0144845N5-00285-00785102315ADDAA101000021AU110030015AW1715GA1005+999999999GD10991+9999999GF100991999999999999999999MA1102305102225MW1715OC101035REMMET11301/03/22 20:56:01 METAR KWWD 040156Z 33009G20KT 9SM -SN CLR M03/M08 A3021 RMK AO2 SLP231 P0000 T10281078 FZRANO $
0275745966037262022010402567+39008-074908FM-15+0007KWWD V0203405N005152200059N0160935N5-00335-00785102405ADDAA101000021AA203000021GA1005+999999999GD10991+9999999GF100991999999999999999999MA1102375102295MD1190349+9999OC100825REMMET12801/03/22 21:56:01 METAR KWWD 040256Z 34010G16KT 10SM CLR M03/M08 A3023 RMK AO2 SNE01 SLP240 P0000 60000 T10331078 51034 FZRANO $EQDQ01  00008PRCP03
0196745966037262022010403567+39008-074908FM-15+0007KWWD V0203405N005752200059N0160935N5-00395-00835102465ADDGA1005+999999999GD10991+9999999GF100991999999999999999999MA1102445102355OC100935REMMET10401/03/22 22:56:02 METAR KWWD 040356Z 34011G18KT 10SM CLR M04/M08 A3025 RMK AO2 SLP246 T10391083 FZRANO $
0258745966037262022010404567+39008-074908FM-15+0007KWWD V0203405N006252200059N0160935N5-00395-00895102585ADDAA101000021GA1005+999999999GD10991+9999999GF100991999999999999999999KA1240M+00611KA2240N-00391MA1102575102495OC100825REMMET12901/03/22 23:56:02 METAR KWWD 040456Z 34012G16KT 10SM CLR M04/M09 A3029 RMK AO2 SNB19E29 SLP258 P0000 T10391089 400611039 FZRANO $
006374596603726202201040459O+39008-074908SOD  +0007KWWD V020999999999999999999999999999+99999+99999999999ADDAT1AU16RA  5AT2AU18SN  5AT3AU01FG  5AT4AU22FZFG5AT5AU13BR  5
0290745966037262022010405567+39008-074908FM-15+0007KWWD V0203505N005752200059N0160935N5-00445-00945102645ADDAA106000021GA1005+999999999GD10991+9999999GF100991999999999999999999KA1060M-00171KA2060N-00441MA1102615102525MD1390249+9999OC100775REMMET12801/04/22 00:56:02 METAR KWWD 040556Z 35011G15KT 10SM CLR M04/M09 A3030 RMK AO2 SLP264 60000 T10441094 11017 21044 53024 FZRANO $EQDQ01  00008PRCP06
0196745966037262022010406567+39008-074908FM-15+0007KWWD V0203505N005152200059N0160935N5-00505-01005102735ADDGA1005+999999999GD10991+9999999GF100991999999999999999999MA1102715102625OC100935REMMET10401/04/22 01:56:02 METAR KWWD 040656Z 35010G18KT 10SM CLR M05/M10 A3033 RMK AO2 SLP273 T10501100 FZRANO $
0196745966037262022010407567+39008-074908FM-15+0007KWWD V0203405N004652200059N0160935N5-00505-01005102885ADDGA1005+999999999GD10991+9999999GF100991999999999999999999MA1102885102795OC100775REMMET10401/04/22 02:56:02 METAR KWWD 040756Z 34009G15KT 10SM CLR M05/M10 A3038 RMK AO2 SLP288 T10501100 FZRANO $
0216745966037262022010408567+39008-074908FM-15+0007KWWD V0203405N004652200059N0160935N5-00505-01005102915ADDGA1005+999999999GD10991+9999999GF100991999999999999999999MA1102885102795MD1190279+9999OC100775REMMET11001/04/22 03:56:01 METAR KWWD 040856Z 34009G15KT 10SM CLR M05/M10 A3038 RMK AO2 SLP291 T10501100 51027 FZRANO $
0185745966037262022010409567+39008-074908FM-15+0007KWWD V0203305N003152200059N0160935N5-00505-00945103005ADDGA1005+999999999GD10991+9999999GF100991999999999999999999MA1102985102895REMMET10101/04/22 04:56:01 METAR KWWD 040956Z 33006KT 10SM CLR M05/M09 A3041 RMK AO2 SLP300 T10501094 FZRANO $
0185745966037262022010410567+39008-074908FM-15+0007KWWD V0203305V003652200059N0160935N5-00505-00945103065ADDGA1005+999999999GD10991+9999999GF100991999999999999999999MA1103055102965REMMET10101/04/22 05:56:01 METAR KWWD 041056Z 33007KT 10SM CLR M05/M09 A3043 RMK AO2 SLP306 T10501094 FZRANO $
0279745966037262022010411567+39008-074908FM-15+0007KWWD V0203405N003652200059N0160935N5-00505-01005103105ADDAA124004391GA1005+999999999GD10991+9999999GF100991999999999999999999KA1060M-00441KA2060N-00501MA1103085103005MD1190199+9999REMMET12501/04/22 06:56:01 METAR KWWD 041156Z 34007KT 10SM CLR M05/M10 A3044 RMK AO2 SLP310 70017 T10501100 11044 21050 51019 FZRANO $EQDQ01  00438PRCP24
0196745966037262022010412567+39008-074908FM-15+0007KWWD V0203505N004152200059N0160935N5-00445-01005103135ADDGA1005+999999999GD10991+9999999GF100991999999999999999999MA1103125103035OC100775REMMET10401/04/22 07:56:01 METAR KWWD 041256Z 35008G15KT 10SM CLR M04/M10 A3045 RMK AO2 SLP313 T10441100 FZRANO $
0185745966037262022010413567+39008-074908FM-15+0007KWWD V0200105N004652200059N0160935N5-00445-01005103185ADDGA1005+999999999GD10991+9999999GF100991999999999999999999MA1103155103065REMMET10101/04/22 08:56:01 METAR KWWD 041356Z 01009KT 10SM CLR M04/M10 A3046 RMK AO2 SLP318 T10441100 FZRANO $
0205745966037262022010414567+39008-074908FM-15+0007KWWD V0200105N004152200059N0160935N5-00335-01005103215ADDGA1005+999999999GD10991+9999999GF100991999999999999999999MA1103185103105MD1390119+9999REMMET10701/04/22 09:56:01 METAR KWWD 041456Z 01008KT 10SM CLR M03/M10 A3047 RMK AO2 SLP321 T10331100 53011 FZRANO $
0185745966037262022010415567+39008-074908FM-15+0007KWWD V0203105N002652200059N0160935N5-00115-00895103275ADDGA1005+999999999GD10991+9999999GF100991999999999999999999MA1103255103175REMMET10101/04/22 10:56:01 METAR KWWD 041556Z 31005KT 10SM CLR M01/M09 A3049 RMK AO2 SLP327 T10111089 FZRANO $
0184745966037262022010416567+39008-074908FM-15+0007KWWD V0203405N001552200059N0160935N5+00005-00895103145ADDGA1005+999999999GD10991+9999999GF100991999999999999999999MA1103125103035REMMET10001/04/22 11:56:01 METAR KWWD 041656Z 34003KT 10SM CLR 00/M09 A3045 RMK AO2 SLP314 T00001089 FZRANO $
0242745966037262022010417567+39008-074908FM-15+0007KWWD V0203205N002652200059N0160935N5+00005-00895103065ADDGA1005+999999999GD10991+9999999GF100991999999999999999999KA1060M+00061KA2060N-00501MA1103055102965MD1890159+9999REMMET11801/04/22 12:56:01 METAR KWWD 041756Z 32005KT 10SM CLR 00/M09 A3043 RMK AO2 SLP306 T00001089 10006 21050 58015 FZRANO $
0184745966037262022010418567+39008-074908FM-15+0007KWWD V0202805N002152200059N0160935N5+00115-00895103055ADDGA1005+999999999GD10991+9999999GF100991999999999999999999MA1103015102935REMMET10001/04/22 13:56:01 METAR KWWD 041856Z 28004KT 10SM CLR 01/M09 A3042 RMK AO2 SLP305 T00111089 FZRANO $
0200745966037262022010419567+39008-074908FM-15+0007KWWD V0209999C000052200059N0144845N5+00005-00835103025ADDAA101000395GA1005+999999999GD10991+9999999GF100991999999999999999999MA1103015102935REMMET10501/04/22 14:56:01 METAR KWWD 041956Z 00000KT 9SM CLR 00/M08 A3042 RMK AO2 SLP302 P0001 T00001083 FZRANO $
0258745966037262022010420567+39008-074908FM-15+0007KWWD V0209999C000052200059N0160935N5-00115-00615103015ADDAA101000395AA203000591GA1005+999999999GD10991+9999999GF100991999999999999999999MA1102985102895MD1690059+9999REMMET11901/04/22 15:56:01 METAR KWWD 042056Z 00000KT 10SM CLR M01/M06 A3041 RMK AO2 SLP301 P0001 60002 T10111061 56005 FZRANO $EQDQ01  00058PRCP03
0202745966037262022010421567+39008-074908FM-15+0007KWWD V0202205N002152200059N0160935N5-00175-00565103035ADDAA101000395GA1005+999999999GD10991+9999999GF100991999999999999999999MA1103015102935REMMET10701/04/22 16:56:01 METAR KWWD 042156Z 22004KT 10SM CLR M02/M06 A3042 RMK AO2 SLP303 P0001 T10171056 FZRANO $
0185745966037262022010422567+39008-074908FM-15+0007KWWD V0209999C000052200059N0160935N5-00565-00675103055ADDGA1005+999999999GD10991+9999999GF100991999999999999999999MA1103015102935REMMET10101/04/22 17:56:01 METAR KWWD 042256Z 00000KT 10SM CLR M06/M07 A3042 RMK AO2 SLP305 T10561067 FZRANO $
0279745966037262022010423567+39008-074908FM-15+0007KWWD V0209999C000052200059N0160935N5-00725-00895103035ADDAA106000891GA1005+999999999GD10991+9999999GF100991999999999999999999KA1060M+00171KA2060N-00721MA1103015102935MD1090029+9999REMMET12501/04/22 18:56:01 METAR KWWD 042356Z 00000KT 10SM CLR M07/M09 A3042 RMK AO2 SLP303 60003 T10721089 10017 21072 50002 FZRANO $EQDQ01  00078PRCP06
0185745966037262022010500567+39008-074908FM-15+0007KWWD V0209999C000052200059N0160935N5-00785-00895102995ADDGA1005+999999999GD10991+9999999GF100991999999999999999999MA1102985102895REMMET10101/04/22 19:56:01 METAR KWWD 050056Z 00000KT 10SM CLR M08/M09 A3041 RMK AO2 SLP299 T10781089 FZRANO $
0208745966037262022010501477+39008-074908FM-15+0007KWWD V0201305N001552200059N0040235V5-00805-01005999999ADDAU100001015AW1105GA1005+999999999GD10991+9999999GF100991999999999999999999MA1102845102765REMMET10701/04/22 20:47:01 METAR KWWD 050147Z 13003KT 2 1/2SM BR CLR M08/M10 A3037 RMK AO2 VIS 1/2V5 PRESFR FZRANO $
0168745966037262022010501547+39008-074908FM-15+0007KWWD V0209999C000052200059N0160935N5-00905-01005999999ADDGA1005+999999999GD10991+9999999GF100991999999999999999999MA1102845102765REMMET08401/04/22 20:54:01 METAR KWWD 050154Z 00000KT 10SM CLR M09/M10 A3037 RMK AO2 FZRANO $
0185745966037262022010501567+39008-074908FM-15+0007KWWD V0209999C000052200059N0160935N5-00895-01065102855ADDGA1005+999999999GD10991+9999999GF100991999999999999999999MA1102845102765REMMET10101/04/22 20:56:01 METAR KWWD 050156Z 00000KT 10SM CLR M09/M11 A3037 RMK AO2 SLP285 T10891106 FZRANO $
0191745966037262022010502337+39008-074908FM-15+0007KWWD V0209999C000052200059N0040235N5-00805-00905999999ADDAU100001015AW1105GA1005+999999999GD10991+9999999GF100991999999999999999999MA1102815102735REMMET09001/04/22 21:33:01 METAR KWWD 050233Z 00000KT 2 1/2SM BR CLR M08/M09 A3036 RMK AO2 FZRANO $
0168745966037262022010502427+39008-074908FM-15+0007KWWD V0209999C000052200059N0160935N5-00805-00905999999ADDGA1005+999999999GD10991+9999999GF100991999999999999999999MA1102815102735REMMET08401/04/22 21:42:01 METAR KWWD 050242Z 00000KT 10SM CLR M08/M09 A3036 RMK AO2 FZRANO $
0205745966037262022010502567+39008-074908FM-15+0007KWWD V0209999C000052200059N0160935N5-00835-00945102835ADDGA1005+999999999GD10991+9999999GF100991999999999999999999MA1102815102735MD1690169+9999REMMET10701/04/22 21:56:01 METAR KWWD 050256Z 00000KT 10SM CLR M08/M09 A3036 RMK AO2 SLP283 T10831094 56016 FZRANO $
0204745966037262022010503567+39008-074908FM-15+0007KWWD V0209999C000052200059N0080475N5-00895-01005102745ADDAU100001015AW1105GA1005+999999999GD10991+9999999GF100991999999999999999999MA1102715102625REMMET10301/04/22 22:56:02 METAR KWWD 050356Z 00000KT 5SM BR CLR M09/M10 A3033 RMK AO2 SLP274 T10891100 FZRANO $
0265745966037262022010504567+39008-074908FM-15+0007KWWD V0209999C000052200059N0160935N5-00835-00945102655ADDGA1025+013115999GD11991+0131159GE19AGL   +99999+99999GF102995999999013111999999KA1240M+00171KA2240N-00941MA1102645102565REMMET11401/04/22 23:56:02 METAR KWWD 050456Z 00000KT 10SM FEW043 M08/M09 A3031 RMK AO2 SLP265 T10831094 400171094 FZRANO $EQDD01      0ADE726
001574596603726202201050459O+39008-074908SOD  +0007KWWD V020999999999999999999999999999+99999+99999999999ADDAT1AU13BR  5
0243745966037262022010505567+39008-074908FM-15+0007KWWD V0209999C000052200059N0160935N5-00835-00895102525ADDGA1005+999999999GD10991+9999999GF100991999999999999999999KA1060M-00721KA2060N-00941MA1102515102425MD1890319+9999REMMET11901/05/22 00:56:02 METAR KWWD 050556Z 00000KT 10SM CLR M08/M09 A3027 RMK AO2 SLP252 T10831089 11072 21094 58031 FZRANO $
0185745966037262022010506567+39008-074908FM-15+0007KWWD V0209999C000052200059N0160935N5-00785-00835102365ADDGA1005+999999999GD10991+9999999GF100991999999999999999999MA1102345102255REMMET10101/05/22 01:56:02 METAR KWWD 050656Z 00000KT 10SM CLR M08/M08 A3022 RMK AO2 SLP236 T10781083 FZRANO $
0248745966037262022010507567+39008-074908FM-15+0007KWWD V0209999C00005021345MN0160935N5-00505-00565102345ADDGA1045+005185999GA2085+021345999GD12991+0051859GD24991+0213459GE19AGL   +99999+99999GF199999999999005181999999MA1102305102225REMMET11101/05/22 02:56:02 METAR KWWD 050756Z 00000KT 10SM SCT017 OVC070 M05/M06 A3021 RMK AO2 SLP234 T10501056 FZRANO $
0231745966037262022010508087+39008-074908FM-15+0007KWWD V0209999C00005005185MN0160935N5-00405-00505999999ADDGA1075+005185999GA2085+022865999GD13991+0051859GD24991+0228659GE19AGL   +99999+99999GF199999999999005181999999MA1102305102225REMMET09401/05/22 03:08:02 METAR KWWD 050808Z 00000KT 10SM BKN017 OVC075 M04/M05 A3021 RMK AO2 FZRANO $
0230745966037262022010508567+39008-074908FM-15+0007KWWD V0203105N00155004575MN0160935N5-00175-00225102235ADDGA1085+004575999GD14991+0045759GE19AGL   +99999+99999GF199999999999004571999999MA1102205102125MD1690299+9999REMMET11001/05/22 03:56:02 METAR KWWD 050856Z 31003KT 10SM OVC015 M02/M02 A3018 RMK AO2 SLP223 T10171022 56029 FZRANO $
0192745966037262022010509127+39008-074908FM-15+0007KWWD V0209999C00005003965MN0160935N5+00005-00105999999ADDGA1085+003965999GD14991+0039659GE19AGL   +99999+99999GF199999999999003961999999MA1102175102085REMMET08601/05/22 04:12:02 METAR KWWD 050912Z 00000KT 10SM OVC013 00/M01 A3017 RMK AO2 FZRANO $
0258745966037262022010509567+39008-074908FM-15+0007KWWD V0202905N00155003965MN0160935N5+00005-00065102075ADDAA101000395AU120090015AW1401AW2415GA1085+003965999GD14991+0039659GE19AGL   +99999+99999GF199999999999003961999999MA1102035101955REMMET11801/05/22 04:56:02 METAR KWWD 050956Z 29003KT 10SM UP OVC013 00/M01 A3013 RMK AO2 UPB19 SLP207 P0001 T00001006 FZRANO $
0239745966037262022010510567+39008-074908FM-15+0007KWWD V0209999C00005003355MN0160935N5+00115+00005102025ADDAA101001595GA1085+003355999GD14991+0033559GE19AGL   +99999+99999GF199999999999003351999999MA1102005101915REMMET12201/05/22 05:56:02 METAR KWWD 051056Z 00000KT 10SM OVC011 01/00 A3012 RMK AO2 UPE39RAB39E49 SLP202 P0006 T00110000 FZRANO $
0241745966037262022010511137+39008-074908FM-15+0007KWWD V0209999C00005002745MN0160935N5+00105+00005999999ADDAA101000395AU110020015AW1615GA1085+002745999GD14991+0027459GE19AGL   +99999+99999GF199999999999002741999999MA1102005101915MW1615REMMET10101/05/22 06:13:02 METAR KWWD 051113Z 00000KT 10SM -RA OVC009 01/00 A3012 RMK AO2 RAB06 P0001 FZRANO $
0360745966037262022010511567+39008-074908FM-15+0007KWWD V0201405N00155002745MN0128755N5+00065+00005101935ADDAA101000895AA206002591AA324003391GA1085+002745999GD14991+0027459GE19AGL   +99999+99999GF199999999999002741999999KA1060M+00111KA2060N-00831MA1101905101815MD1690309+9999REMMET14601/05/22 06:56:02 METAR KWWD 051156Z 14003KT 8SM OVC009 01/00 A3009 RMK AO2 RAB06E23 SLP193 P0003 60010 70013 T00060000 10011 21083 56030 FZRANO $EQDQ01  00258PRCP06Q02  00338PRCP24
0300745966037262022010512567+39008-074908FM-15+0007KWWD V0209999C00005002745MN0144845N5+00115+00005101865ADDAA101001095GA1075+002745999GA2075+005795999GA3085+013725999GD13991+0027459GD23991+0057959GD34991+0137259GE19AGL   +99999+99999GF199999999999002741999999MA1101835101745REMMET12101/05/22 07:56:02 METAR KWWD 051256Z 00000KT 9SM BKN009 BKN019 OVC045 01/00 A3007 RMK AO2 SLP186 P0004 T00110000 FZRANO $
0283745966037262022010513047+39008-074908FM-15+0007KWWD V0209999C00005013115MN0128755N5+00105+00105999999ADDAA101000395GA1045+002745999GA2075+013115999GA3085+015245999GD12991+0027459GD23991+0131159GD34991+0152459GE19AGL   +99999+99999GF199999999999002741999999MA1101835101745REMMET10401/05/22 08:04:02 METAR KWWD 051304Z 00000KT 8SM SCT009 BKN043 OVC050 01/01 A3007 RMK AO2 P0001 FZRANO $
0245745966037262022010513447+39008-074908FM-15+0007KWWD V0209999N99999002745MN0144845N5+00205+00105999999ADDAA101001095GA1075+002745999GA2075+022865999GD13991+0027459GD23991+0228659GE19AGL   +99999+99999GF199999999999002741999999MA1101795101715REMMET09701/05/22 08:44:02 METAR KWWD 051344Z      KT 9SM BKN009 BKN075 02/01 A3006 RMK AO2 P0004 FZRANO $
0224745966037262022010513567+39008-074908FM-15+0007KWWD V0209999C00005002745MN0128755N5+00225+00175101835ADDAA101001595GA1085+002745999GD14991+0027459GE19AGL   +99999+99999GF199999999999002741999999MA1101835101745REMMET10701/05/22 08:56:02 METAR KWWD 051356Z 00000KT 8SM OVC009 02/02 A3007 RMK AO2 SLP183 P0006 T00220017 FZRANO $
0318745966037262022010514567+39008-074908FM-15+0007KWWD V0202205N00365002745MN0144845N5+00445+00335101735ADDAA101000395AA203002891AU110020015AW1615GA1085+002745999GD14991+0027451GE19AGL   +99999+99999GF199999999999002741999999MA1101695101615MD1890209+9999MW1615REMMET13401/05/22 09:56:02 METAR KWWD 051456Z 22007KT 9SM -RA OVC009 04/03 A3003 RMK AO2 RAB05 CIG 006V011 SLP173 P0001 60011 T00440033 58020 $EQDQ01  00278PRCP03
0243745966037262022010515567+39008-074908FM-15+0007KWWD V0202305N00415002135MN0096565N5+00445+00335101615ADDAA101000021AU100001015AW1105GA1085+002135999GD14991+0021359GE19AGL   +99999+99999GF199999999999002131999999MA1101595101515REMMET10901/05/22 10:56:02 METAR KWWD 051556Z 23008KT 6SM BR OVC007 04/03 A3000 RMK AO2 RAE11 SLP161 P0000 T00440033 $
0200745966037262022010516567+39008-074908FM-15+0007KWWD V0202205N00465002135MN0144845N5+00505+00445101465ADDGA1085+002135999GD14991+0021359GE19AGL   +99999+99999GF199999999999002131999999MA1101465101375REMMET09401/05/22 11:56:02 METAR KWWD 051656Z 22009KT 9SM OVC007 05/04 A2996 RMK AO2 SLP146 T00500044 $
0234745966037262022010517397+39008-074908FM-15+0007KWWD V0202205N00465003355MN0160935N5+00505+00405999999ADDAA101000021AU110020015AW1615GA1085+003355999GD14991+0033559GE19AGL   +99999+99999GF199999999999003351999999MA1101355101275MW1615REMMET09401/05/22 12:39:02 METAR KWWD 051739Z 22009KT 10SM -RA OVC011 05/04 A2993 RMK AO2 RAB36 P0000 $
0383745966037262022010517567+39008-074908FM-15+0007KWWD V0202005N00315003355MN0160935N5+00505+00335101305ADDAA101000021AA206002891AU110020015AW1615GA1075+003355999GA2085+009145999GD13991+0033559GD24991+0091459GE19AGL   +99999+99999GF199999999999003351999999KA1060M+00501KA2060N+00061MA1101295101205MD1890439+9999MW1615REMMET14201/05/22 12:56:02 METAR KWWD 051756Z 20006KT 10SM -RA BKN011 OVC030 05/03 A2991 RMK AO2 RAB36 SLP130 P0000 60011 T00500033 10050 20006 58043 $EQDQ01  00278PRCP06
0304745966037262022010518107+39008-074908FM-15+0007KWWD V0202005N00365018295MN0160935N5+00505+00305999999ADDAA101000021AU110020015AW1615GA1045+003355999GA2045+009145999GA3085+018295999GD12991+0033559GD22991+0091459GD34991+0182959GE19AGL   +99999+99999GF199999999999003351999999MA1101225101145MW1615REMMET10201/05/22 13:10:02 METAR KWWD 051810Z 20007KT 10SM -RA SCT011 SCT030 OVC060 05/03 A2989 RMK AO2 P0000 $
0262745966037262022010518567+39008-074908FM-15+0007KWWD V0202005N00465021345MN0160935N5+00615+00445101145ADDAA101000021GA1075+021345999GA2085+025915999GD13991+0213459GD24991+0259159GE19AGL   +99999+99999GF199999999999021341999999MA1101125101035REMMET11401/05/22 13:56:02 METAR KWWD 051856Z 20009KT 10SM BKN070 OVC085 06/04 A2986 RMK AO2 RAE12 SLP114 P0000 T00610044 $
0260745966037262022010519087+39008-074908FM-15+0007KWWD V0202005N00575021345MN0160935N5+00605+00405999999ADDGA1025+002135999GA2045+010675999GA3085+021345999GD11991+0021359GD22991+0106759GD34991+0213459GE19AGL   +99999+99999GF199999999999002131999999MA1101125101035REMMET09201/05/22 14:08:02 METAR KWWD 051908Z 20011KT 10SM FEW007 SCT035 OVC070 06/04 A2986 RMK AO2 $
0303745966037262022010519567+39008-074908FM-15+0007KWWD V0201905N00415009455MN0160935N5+00615+00565101085ADDAA101000021GA1075+009455999GA2075+019815999GA3085+024385999GD13991+0094559GD23991+0198159GD34991+0243859GE19AGL   +99999+99999GF199999999999009451999999MA1101055100975REMMET12401/05/22 14:56:02 METAR KWWD 051956Z 19008KT 10SM BKN031 BKN065 OVC080 06/06 A2984 RMK AO2 RAB24E45 SLP108 P0000 T00610056 $
0232745966037262022010520567+39008-074908FM-15+0007KWWD V0202005N004652200059N0160935N5+00675+00615101055ADDAA103000021GA1005+999999999GD10991+9999999GF100991999999999999999999MA1101025100935MD1690259+9999REMMET10401/05/22 15:56:02 METAR KWWD 052056Z 20009KT 10SM CLR 07/06 A2983 RMK AO2 SLP105 60000 T00670061 56025 $EQDQ01  00008PRCP03
0220745966037262022010521567+39008-074908FM-15+0007KWWD V0202005N004652200059N0160935N5+00675+00615100995ADDGA1025+021345999GD11991+0213459GE19AGL   +99999+99999GF102995999999021341999999MA1100985100905REMMET09501/05/22 16:56:02 METAR KWWD 052156Z 20009KT 10SM FEW070 07/06 A2982 RMK AO2 SLP099 T00670061 $EQDD01      0ADE726
0259745966037262022010522117+39008-074908FM-15+0007KWWD V0201905N00465021345MN0128755N5+00705+00605999999ADDGA1025+001225999GA2075+021345999GA3075+036585999GD11991+0012259GD23991+0213459GD33991+0365859GE19AGL   +99999+99999GF199999999999001221999999MA1100955100865REMMET09101/05/22 17:11:02 METAR KWWD 052211Z 19009KT 8SM FEW004 BKN070 BKN120 07/06 A2981 RMK AO2 $
0283745966037262022010522187+39008-074908FM-15+0007KWWD V0201905N00515001225MN0040235N5+00705+00605999999ADDAU100001015AW1105GA1075+001225999GA2075+021345999GA3085+036585999GD13991+0012259GD23991+0213459GD34991+0365859GE19AGL   +99999+99999GF199999999999001221999999MA1100955100865REMMET09801/05/22 17:18:02 METAR KWWD 052218Z 19010KT 2 1/2SM BR BKN004 BKN070 OVC120 07/06 A2981 RMK AO2 $
0333745966037262022010522207+39008-074908FM-15+0007KWWD V0201805N00465000615MN0028165N5+00605+00605999999ADDAA101000021AU110020015AU200001015AW1105AW2615GA1075+000615999GA2075+021345999GA3085+036585999GD13991+0006159GD23991+0213459GD34991+0365859GE19AGL   +99999+99999GF199999999999000611999999MA1100915100835MW1615REMMET11401/05/22 17:20:02 METAR KWWD 052220Z 18009KT 1 3/4SM -RA BR BKN002 BKN070 OVC120 06/06 A2980 RMK AO2 RAB19 P0000 $
0269745966037262022010522327+39008-074908FM-15+0007KWWD V0201905N00415000615MN0012075V5+00605+00605999999ADDAA101000021AU110020015AU200001015AW1105AW2615GA1085+000615999GD14991+0006159GE19AGL   +99999+99999GF199999999999000611999999MA1100915100835MW1615REMMET11201/05/22 17:32:02 METAR KWWD 052232Z 19008KT 3/4SM -RA BR OVC002 06/06 A2980 RMK AO2 VIS 1/2V1 1/2 RAB19 P0000 $
0272745966037262022010522567+39008-074908FM-15+0007KWWD V0202005N00415000615MN0008055N5+00615+00615100905ADDAA101000021AU110020015AU200002015AW1305AW2615GA1085+000615999GD14991+0006159GE19AGL   +99999+99999GF199999999999000611999999MA1100885100805MW1615REMMET11501/05/22 17:56:02 METAR KWWD 052256Z 20008KT 1/2SM -RA FG OVC002 06/06 A2979 RMK AO2 RAB19 SLP090 P0000 T00610061 $
0249745966037262022010523047+39008-074908FM-15+0007KWWD V0202005N00515000615MN0004025N5+00605+00605999999ADDAA101000021AU110020015AU200002015AW1305AW2615GA1085+000615999GD14991+0006159GE19AGL   +99999+99999GF199999999999000611999999MA1100885100805MW1615REMMET09201/05/22 18:04:02 METAR KWWD 052304Z 20010KT 1/4SM -RA FG OVC002 06/06 A2979 RMK AO2 P0000 $
0259745966037262022010523167+39008-074908FM-15+0007KWWD V0202005N00515000615MN0008055V5+00605+00605999999ADDAA101000021AU110020015AU200002015AW1305AW2615GA1085+000615999GD14991+0006159GE19AGL   +99999+99999GF199999999999000611999999MA1100885100805MW1615REMMET10201/05/22 18:16:02 METAR KWWD 052316Z 20010KT 1/2SM -RA FG OVC002 06/06 A2979 RMK AO2 VIS 1/4V2 P0000 $
0257745966037262022010523347+39008-074908FM-15+0007KWWD V0202105N00515000615MN0016095V5+00605+00605999999ADDAA101000021AU110020015AU200001015AW1105AW2615GA1085+000615999GD14991+0006159GE19AGL   +99999+99999GF199999999999000611999999MA1100885100805MW1615REMMET10001/05/22 18:34:02 METAR KWWD 052334Z 21010KT 1SM -RA BR OVC002 06/06 A2979 RMK AO2 VIS 1/2V4 P0000 $
0259745966037262022010523457+39008-074908FM-15+0007KWWD V0202105N00465000615MN0040235V5+00605+00605999999ADDAA101000021AU110020015AU200001015AW1105AW2615GA1075+000615999GD13991+0006159GE19AGL   +99999+99999GF199999999999000611999999MA1100885100805MW1615REMMET10201/05/22 18:45:02 METAR KWWD 052345Z 21009KT 2 1/2SM -RA BR BKN002 06/06 A2979 RMK AO2 VIS 1V5 P0000 $
0244745966037262022010523527+39008-074908FM-15+0007KWWD V0202105N00465000615MN0144845N5+00605+00605999999ADDAA101000021GA1075+000615999GA2075+036585999GD13991+0006159GD23991+0365859GE19AGL   +99999+99999GF199999999999000611999999MA1100885100805REMMET09601/05/22 18:52:02 METAR KWWD 052352Z 21009KT 9SM BKN002 BKN120 06/06 A2979 RMK AO2 RAE51 P0000 $
0355745966037262022010523567+39008-074908FM-15+0007KWWD V0202105N00465036585MN0144845N5+00565+00565100905ADDAA101000021AA206000021GA1045+000615999GA2075+036585999GD12991+0006159GD23991+0365859GE19AGL   +99999+99999GF199999999999000611999999KA1060M+00721KA2060N+00501MA1100885100805MD1690099+9999REMMET13701/05/22 18:56:02 METAR KWWD 052356Z 21009KT 9SM SCT002 BKN120 06/06 A2979 RMK AO2 RAE51 SLP090 P0000 60000 T00560056 10072 20050 56009 $EQDQ01  00008PRCP06
0201745966037262022010600567+39008-074908FM-15+0007KWWD V0202105N00465033535MN0160935N5+00565+00565100875ADDGA1085+033535999GD14991+0335359GE19AGL   +99999+99999GF199999999999033531999999MA1100855100765REMMET09501/05/22 19:56:01 METAR KWWD 060056Z 21009KT 10SM OVC110 06/06 A2978 RMK AO2 SLP087 T00560056 $
0220745966037262022010601567+39008-074908FM-15+0007KWWD V0202305N005752200059N0160935N5+00615+00565100835ADDGA1025+036585999GD11991+0365859GE19AGL   +99999+99999GF102995999999036581999999MA1100815100735REMMET09501/05/22 20:56:01 METAR KWWD 060156Z 23011KT 10SM FEW120 06/06 A2977 RMK AO2 SLP083 T00610056 $EQDD01      0ADE726
0196745966037262022010602567+39008-074908FM-15+0007KWWD V0202605N003152200059N0160935N5+00615+00505100805ADDGA1005+999999999GD10991+9999999GF100991999999999999999999MA1100785100705MD1690109+9999REMMET09801/05/22 21:56:01 METAR KWWD 060256Z 26006KT 10SM CLR 06/05 A2976 RMK AO2 SLP080 T00610050 56010 $
0176745966037262022010603567+39008-074908FM-15+0007KWWD V0202505N003652200059N0160935N5+00615+00505100785ADDGA1005+999999999GD10991+9999999GF100991999999999999999999MA1100785100705REMMET09201/05/22 22:56:01 METAR KWWD 060356Z 25007KT 10SM CLR 06/05 A2976 RMK AO2 SLP078 T00610050 $
0212745966037262022010604567+39008-074908FM-15+0007KWWD V0202505N004152200059N0160935N5+00615+00505100775ADDGA1005+999999999GD10991+9999999GF100991999999999999999999KA1240M+00721KA2240N-00891MA1100755100665REMMET10201/05/22 23:56:02 METAR KWWD 060456Z 25008KT 10SM CLR 06/05 A2975 RMK AO2 SLP077 T00610050 400721089 $
005174596603726202201060459O+39008-074908SOD  +0007KWWD V020999999999999999999999999999+99999+99999999999ADDAT1AU16RA  5AT2AU01FG  5AT3AU13BR  5AT4AU19UP  5
0234745966037262022010605567+39008-074908FM-15+0007KWWD V0202505N004152200059N0160935N5+00615+00445100785ADDGA1005+999999999GD10991+9999999GF100991999999999999999999KA1060M+00611KA2060N+00561MA1100755100665MD1590039+9999REMMET11001/06/22 00:56:02 METAR KWWD 060556Z 25008KT 10SM CLR 06/04 A2975 RMK AO2 SLP078 T00610044 10061 20056 55003 $
0176745966037262022010606567+39008-074908FM-15+0007KWWD V0202705N003652200059N0160935N5+00565+00395100855ADDGA1005+999999999GD10991+9999999GF100991999999999999999999MA1100855100765REMMET09201/06/22 01:56:02 METAR KWWD 060656Z 27007KT 10SM CLR 06/04 A2978 RMK AO2 SLP085 T00560039 $
0176745966037262022010607567+39008-074908FM-15+0007KWWD V0202705N002652200059N0160935N5+00505+00395100975ADDGA1005+999999999GD10991+9999999GF100991999999999999999999MA1100955100865REMMET09201/06/22 02:56:02 METAR KWWD 060756Z 27005KT 10SM CLR 05/04 A2981 RMK AO2 SLP097 T00500039 $
0196745966037262022010608567+39008-074908FM-15+0007KWWD V0202705N004152200059N0160935N5+00505+00335101005ADDGA1005+999999999GD10991+9999999GF100991999999999999999999MA1100985100905MD1190239+9999REMMET09801/06/22 03:56:02 METAR KWWD 060856Z 27008KT 10SM CLR 05/03 A2982 RMK AO2 SLP100 T00500033 51023 $
0176745966037262022010609567+39008-074908FM-15+0007KWWD V0202605N003152200059N0160935N5+00505+00285101055ADDGA1005+999999999GD10991+9999999GF100991999999999999999999MA1101025100935REMMET09201/06/22 04:56:02 METAR KWWD 060956Z 26006KT 10SM CLR 05/03 A2983 RMK AO2 SLP105 T00500028 $
0176745966037262022010610567+39008-074908FM-15+0007KWWD V0202605N003152200059N0160935N5+00505+00175101175ADDGA1005+999999999GD10991+9999999GF100991999999999999999999MA1101155101075REMMET09201/06/22 05:56:02 METAR KWWD 061056Z 26006KT 10SM CLR 05/02 A2987 RMK AO2 SLP117 T00500017 $
0270745966037262022010611567+39008-074908FM-15+0007KWWD V0202805N003152200059N0160935N5+00505+00115101315ADDAA124002891GA1005+999999999GD10991+9999999GF100991999999999999999999KA1060M+00611KA2060N+00441MA1101295101205MD1390309+9999REMMET11601/06/22 06:56:02 METAR KWWD 061156Z 28006KT 10SM CLR 05/01 A2991 RMK AO2 SLP131 70011 T00500011 10061 20044 53030 $EQDQ01  00278PRCP24
0176745966037262022010612567+39008-074908FM-15+0007KWWD V0203105N002152200059N0160935N5+00505+00115101425ADDGA1005+999999999GD10991+9999999GF100991999999999999999999MA1101395101305REMMET09201/06/22 07:56:02 METAR KWWD 061256Z 31004KT 10SM CLR 05/01 A2994 RMK AO2 SLP142 T00500011 $
0177745966037262022010613567+39008-074908FM-15+0007KWWD V0203105N002652200059N0160935N5+00505-00175101575ADDGA1005+999999999GD10991+9999999GF100991999999999999999999MA1101565101475REMMET09301/06/22 08:56:02 METAR KWWD 061356Z 31005KT 10SM CLR 05/M02 A2999 RMK AO2 SLP157 T00501017 $
0197745966037262022010614567+39008-074908FM-15+0007KWWD V0203005N004652200059N0160935N5+00565-00335101645ADDGA1005+999999999GD10991+9999999GF100991999999999999999999MA1101635101545MD1190339+9999REMMET09901/06/22 09:56:02 METAR KWWD 061456Z 30009KT 10SM CLR 06/M03 A3001 RMK AO2 SLP164 T00561033 51033 $
0177745966037262022010615567+39008-074908FM-15+0007KWWD V0203105N004152200059N0160935N5+00565-00395101635ADDGA1005+999999999GD10991+9999999GF100991999999999999999999MA1101635101545REMMET09301/06/22 10:56:02 METAR KWWD 061556Z 31008KT 10SM CLR 06/M04 A3001 RMK AO2 SLP163 T00561039 $
0177745966037262022010616567+39008-074908FM-15+0007KWWD V0203305N003652200059N0160935N5+00565-00285101585ADDGA1005+999999999GD10991+9999999GF100991999999999999999999MA1101565101475REMMET09301/06/22 11:56:02 METAR KWWD 061656Z 33007KT 10SM CLR 06/M03 A2999 RMK AO2 SLP158 T00561028 $
0235745966037262022010617567+39008-074908FM-15+0007KWWD V0203205N005152200059N0160935N5+00565-00395101495ADDGA1005+999999999GD10991+9999999GF100991999999999999999999KA1060M+00611KA2060N+00501MA1101495101415MD1890159+9999REMMET11101/06/22 12:56:02 METAR KWWD 061756Z 32010KT 10SM CLR 06/M04 A2997 RMK AO2 SLP149 T00561039 10061 20050 58015 $
0188745966037262022010618567+39008-074908FM-15+0007KWWD V0203405N005752200059N0160935N5+00565-00445101465ADDGA1005+999999999GD10991+9999999GF100991999999999999999999MA1101425101345OC100825REMMET09601/06/22 13:56:02 METAR KWWD 061856Z 34011G16KT 10SM CLR 06/M04 A2995 RMK AO2 SLP146 T00561044 $
0177745966037262022010619567+39008-074908FM-15+0007KWWD V0203205N003652200059N0160935N5+00505-00565101425ADDGA1005+999999999GD10991+9999999GF100991999999999999999999MA1101395101305REMMET09301/06/22 14:56:02 METAR KWWD 061956Z 32007KT 10SM CLR 05/M06 A2994 RMK AO2 SLP142 T00501056 $
0197745966037262022010620567+39008-074908FM-15+0007KWWD V0203205N002652200059N0160935N5+00445-00565101455ADDGA1005+999999999GD10991+9999999GF100991999999999999999999MA1101425101345MD1590049+9999REMMET09901/06/22 15:56:02 METAR KWWD 062056Z 32005KT 10SM CLR 04/M06 A2995 RMK AO2 SLP145 T00441056 55004 $
0177745966037262022010621567+39008-074908FM-15+0007KWWD V0203005N001552200059N0160935N5+00395-00565101535ADDGA1005+999999999GD10991+9999999GF100991999999999999999999MA1101525101445REMMET09301/06/22 16:56:02 METAR KWWD 062156Z 30003KT 10SM CLR 04/M06 A2998 RMK AO2 SLP153 T00391056 $
0177745966037262022010622567+39008-074908FM-15+0007KWWD V0209999V002152200059N0160935N5+00335-00505101515ADDGA1005+999999999GD10991+9999999GF100991999999999999999999MA1101495101415REMMET09301/06/22 17:56:02 METAR KWWD 062256Z VRB04KT 10SM CLR 03/M05 A2997 RMK AO2 SLP151 T00331050 $
0279745966037262022010623567+39008-074908FM-15+0007KWWD V0209999C000052200059N0160935N5+00285-00505101565ADDGA1025+033535999GD11991+0335359GE19AGL   +99999+99999GF102995999999033531999999KA1060M+00561KA2060N+00281MA1101565101475MD1190129+9999REMMET11401/06/22 18:56:02 METAR KWWD 062356Z 00000KT 10SM FEW110 03/M05 A2999 RMK AO2 SLP156 T00281050 10056 20028 51012 $EQDD01      0ADE726
0184745966037262022010700567+39008-074908FM-15+0007KWWD V0200905N002152200059N0160935N5+00115-00445101485ADDGA1005+999999999GD10991+9999999GF100991999999999999999999MA1101465101375REMMET10001/06/22 19:56:01 METAR KWWD 070056Z 09004KT 10SM CLR 01/M04 A2996 RMK AO2 SLP148 T00111044 FZRANO $
0228745966037262022010701567+39008-074908FM-15+0007KWWD V0200605N002152200059N0160935N5+00225-00615101295ADDGA1045+036585999GD12991+0365859GE19AGL   +99999+99999GF104995999999036581999999MA1101295101205REMMET10301/06/22 20:56:01 METAR KWWD 070156Z 06004KT 10SM SCT120 02/M06 A2991 RMK AO2 SLP129 T00221061 FZRANO $EQDD01      0ADE726
0229745966037262022010702567+39008-074908FM-15+0007KWWD V0200305N00465033535MN0160935N5+00225-00505101105ADDGA1085+033535999GD14991+0335359GE19AGL   +99999+99999GF199999999999033531999999MA1101085101005MD1890469+9999REMMET10901/06/22 21:56:01 METAR KWWD 070256Z 03009KT 10SM OVC110 02/M05 A2985 RMK AO2 SLP110 T00221050 58046 FZRANO $
0209745966037262022010703567+39008-074908FM-15+0007KWWD V0200305N00415030485MN0160935N5+00225-00505101045ADDGA1085+030485999GD14991+0304859GE19AGL   +99999+99999GF199999999999030481999999MA1101025100935REMMET10301/06/22 22:56:02 METAR KWWD 070356Z 03008KT 10SM OVC100 02/M05 A2983 RMK AO2 SLP104 T00221050 FZRANO $
0283745966037262022010704567+39008-074908FM-15+0007KWWD V0200505N00265018295MN0160935N5+00175-00505100975ADDGA1075+018295999GA2085+021345999GD13991+0182959GD24991+0213459GE19AGL   +99999+99999GF199999999999018291999999KA1240M+00611KA2240N+00061MA1100955100865REMMET12001/06/22 23:56:02 METAR KWWD 070456Z 05005KT 10SM BKN060 OVC070 02/M05 A2981 RMK AO2 SLP097 T00171050 400610006 FZRANO $
0356745966037262022010705467+39008-074908FM-15+0007KWWD V0200205N00775008235MN0040235V5+00105-00405999999ADDAA101000021AU110030015AW1715GA1025+004275999GA2075+008235999GA3085+013115999GD11991+0042759GD23991+0082359GD34991+0131159GE19AGL   +99999+99999GF199999999999004271999999MA1100815100735MW1715REMMET15401/07/22 00:46:02 METAR KWWD 070546Z 02015KT 2 1/2SM -SN FEW014 BKN027 OVC043 01/M04 A2977 RMK AO2 VIS 1 1/4V5 RAB12E21UPB21E33SNB33 PRESFR P0000 FZRANO $
0337745966037262022010705527+39008-074908FM-15+0007KWWD V0200205N00575004275MN0020125N5+00005-00305999999ADDAA101000021AU110030015AW1715GA1075+004275999GA2075+005795999GA3085+010975999GD13991+0042759GD23991+0057959GD34991+0109759GE19AGL   +99999+99999GF199999999999004271999999MA1100815100735MW1715REMMET13501/07/22 00:52:02 METAR KWWD 070552Z 02011KT 1 1/4SM -SN BKN014 BKN019 OVC036 00/M03 A2977 RMK AO2 RAB12E21UPB21E33SNB33 P0000 FZRANO $
0465745966037262022010705567+39008-074908FM-15+0007KWWD V0200205N00625003665MN0016095N5-00065-00285100835ADDAA101000021AA206000021AU110030015AU200001015AW1105AW2715GA1075+003665999GA2075+005795999GA3085+008235999GD13991+0036659GD23991+0057959GD34991+0082359GE19AGL   +99999+99999GF199999999999003661999999KA1060M+00331KA2060N-00061MA1100815100735MD1890279+9999MW1715REMMET17601/07/22 00:56:02 METAR KWWD 070556Z 02012KT 1SM -SN BR BKN012 BKN019 OVC027 M01/M03 A2977 RMK AO2 RAB12E21UPB21E33SNB33 SLP083 P0000 60000 T10061028 10033 21006 58027 FZRANO $EQDQ01  00008PRCP06
0296745966037262022010706077+39008-074908FM-15+0007KWWD V0200105N00575003665MN0012075N5-00105-00205999999ADDAA101000021AU110030015AU200001015AW1105AW2715GA1075+003665999GA2085+005795999GD13991+0036659GD24991+0057959GE19AGL   +99999+99999GF199999999999003661999999MA1100855100765MW1715REMMET10801/07/22 01:07:02 METAR KWWD 070607Z 01011KT 3/4SM -SN BR BKN012 OVC019 M01/M02 A2978 RMK AO2 P0000 FZRANO $
0256745966037262022010706097+39008-074908FM-15+0007KWWD V0200205N00515004575MN0016095N5-00105-00205999999ADDAA101000021AU110030015AU200001015AW1105AW2715GA1085+004575999GD14991+0045759GE19AGL   +99999+99999GF199999999999004571999999MA1100855100765MW1715REMMET09901/07/22 01:09:02 METAR KWWD 070609Z 02010KT 1SM -SN BR OVC015 M01/M02 A2978 RMK AO2 P0000 FZRANO $
0296745966037262022010706137+39008-074908FM-15+0007KWWD V0200305N00515003965MN0012075N5-00105-00205999999ADDAA101000021AU110030015AU200001015AW1105AW2715GA1075+003965999GA2085+005495999GD13991+0039659GD24991+0054959GE19AGL   +99999+99999GF199999999999003961999999MA1100815100735MW1715REMMET10801/07/22 01:13:02 METAR KWWD 070613Z 03010KT 3/4SM -SN BR BKN013 OVC018 M01/M02 A2977 RMK AO2 P0000 FZRANO $
0332745966037262022010706357+39008-074908FM-15+0007KWWD V0200405N00515005495MN0016095N5-00105-00205999999ADDAA101000395AU110030015AU200001015AW1105AW2715GA1045+003965999GA2075+005495999GA3085+010675999GD12991+0039659GD23991+0054959GD34991+0106759GE19AGL   +99999+99999GF199999999999003961999999MA1100755100665MW1715REMMET11301/07/22 01:35:02 METAR KWWD 070635Z 04010KT 1SM -SN BR SCT013 BKN018 OVC035 M01/M02 A2975 RMK AO2 P0001 FZRANO $
0336745966037262022010706387+39008-074908FM-15+0007KWWD V0200305N00465005495MN0020125N5-00105-00205999999ADDAA101000395AU110030015AU200001015AW1105AW2715GA1025+002135999GA2075+005495999GA3085+010675999GD11991+0021359GD23991+0054959GD34991+0106759GE19AGL   +99999+99999GF199999999999002131999999MA1100785100705MW1715REMMET11701/07/22 01:38:02 METAR KWWD 070638Z 03009KT 1 1/4SM -SN BR FEW007 BKN018 OVC035 M01/M02 A2976 RMK AO2 P0001 FZRANO $
0332745966037262022010706467+39008-074908FM-15+0007KWWD V0200205N00515005495MN0048285N5-00105-00205999999ADDAA101000395AU110030015AU200001015AW1105AW2715GA1045+002135999GA2075+005495999GA3085+010675999GD12991+0021359GD23991+0054959GD34991+0106759GE19AGL   +99999+99999GF199999999999002131999999MA1100815100735MW1715REMMET11301/07/22 01:46:02 METAR KWWD 070646Z 02010KT 3SM -SN BR SCT007 BKN018 OVC035 M01/M02 A2977 RMK AO2 P0001 FZRANO $
0332745966037262022010706537+39008-074908FM-15+0007KWWD V0200105N00515003965MN0048285N5-00105-00205999999ADDAA101000395AU110030015AU200001015AW1105AW2715GA1045+002135999GA2075+003965999GA3085+010675999GD12991+0021359GD23991+0039659GD34991+0106759GE19AGL   +99999+99999GF199999999999002131999999MA1100785100705MW1715REMMET11301/07/22 01:53:02 METAR KWWD 070653Z 01010KT 3SM -SN BR SCT007 BKN013 OVC035 M01/M02 A2976 RMK AO2 P0001 FZRANO $
0349745966037262022010706567+39008-074908FM-15+0007KWWD V0200105N00575003965MN0048285N5-00115-00225100795ADDAA101000395AU110030015AU200001015AW1105AW2715GA1045+002135999GA2075+003965999GA3085+010065999GD12991+0021359GD23991+0039659GD34991+0100659GE19AGL   +99999+99999GF199999999999002131999999MA1100785100705MW1715REMMET13001/07/22 01:56:02 METAR KWWD 070656Z 01011KT 3SM -SN BR SCT007 BKN013 OVC033 M01/M02 A2976 RMK AO2 SLP079 P0001 T10111022 FZRANO $
0298745966037262022010706587+39008-074908FM-15+0007KWWD V0200205N00625010065MN0040235N5-00105-00205999999ADDAA101000021AU110030015AU200001015AW1105AW2715GA1045+002135999GA2085+010065999GD12991+0021359GD24991+0100659GE19AGL   +99999+99999GF199999999999002131999999MA1100785100705MW1715REMMET11001/07/22 01:58:02 METAR KWWD 070658Z 02012KT 2 1/2SM -SN BR SCT007 OVC033 M01/M02 A2976 RMK AO2 P0000 FZRANO $
0298745966037262022010707097+39008-074908FM-15+0007KWWD V0200205N00515009455MN0028165N5-00105-00205999999ADDAA101000021AU110030015AU200001015AW1105AW2715GA1045+002135999GA2085+009455999GD12991+0021359GD24991+0094559GE19AGL   +99999+99999GF199999999999002131999999MA1100755100665MW1715REMMET11001/07/22 02:09:02 METAR KWWD 070709Z 02010KT 1 3/4SM -SN BR SCT007 OVC031 M01/M02 A2975 RMK AO2 P0000 FZRANO $
0332745966037262022010707137+39008-074908FM-15+0007KWWD V0200205N00515006405MN0032195N5-00105-00205999999ADDAA101000021AU110030015AU200001015AW1105AW2715GA1045+002135999GA2075+006405999GA3085+009455999GD12991+0021359GD23991+0064059GD34991+0094559GE19AGL   +99999+99999GF199999999999002131999999MA1100715100635MW1715REMMET11301/07/22 02:13:02 METAR KWWD 070713Z 02010KT 2SM -SN BR SCT007 BKN021 OVC031 M01/M02 A2974 RMK AO2 P0000 FZRANO $
