0234745966037262023010100194+39009-074908FM-16+000799999V0202101N002610073219N008047199+01401+01401999999ADDAA101000731AW1101AW2621GD12991+0006119GD23991+0073219GD34991+0125019GE19AGL   +99999+99999GF199999999999000611999999MA1101181999999REMMET091SPECI KWWD 010019Z AUTO 21005KT 5SM RA BR SCT002 BKN024 OVC041 14/14 A2988 RMK AO2 P0003 $=
0235745966037262023010100304+39009-074908FM-16+000799999V0202101N002610012219N009656199+01401+01401999999ADDAA101001531AW1101AW2611GD13991+0012219GD23991+0036619GD34991+0097519GE19AGL   +99999+99999GF199999999999001221999999MA1101151999999REMMET092SPECI KWWD 010030Z AUTO 21005KT 6SM -RA BR BKN004 BKN012 OVC032 14/14 A2987 RMK AO2 P0006 $=
0242745966037262023010100564+39009-074908FM-15+000799999V0201701N002610003019N004828199+01331+01331101131ADDAA101002231AW1101AW2611GD13991+0012211GD24991+0036619GE19AGL   +99999+99999GF199999999999001221999999MA1101121999999REMMET114METAR KWWD 010056Z AUTO 17005KT 3SM -RA BR BKN004 OVC012 13/13 A2986 RMK AO2 CIG 001V007 SLP113 P0009 T01330133 $=
0191745966037262023010101044+39009-074908FM-16+000799999V0201801N002110006119N004828199+01301+01301999999ADDAA101000231AW1101AW2611GD14991+0006119GE19AGL   +99999+99999GF199999999999000611999999MA1101081999999REMMET078SPECI KWWD 010104Z AUTO 18004KT 3SM -RA BR OVC002 13/13 A2985 RMK AO2 P0001 $=
0191745966037262023010101194+39009-074908FM-16+000799999V0202001N002110006119N003219199+01301+01301999999ADDAA101000231AW1101AW2611GD14991+0006119GE19AGL   +99999+99999GF199999999999000611999999MA1101081999999REMMET078SPECI KWWD 010119Z AUTO 20004KT 2SM -RA BR OVC002 13/13 A2985 RMK AO2 P0001 $=
0195745966037262023010101364+39009-074908FM-16+000799999V0201501N001510006119N002012199+01301+01301999999ADDAA101000731AW1101AW2611GD14991+0006119GE19AGL   +99999+99999GF199999999999000611999999MA1101021999999REMMET082SPECI KWWD 010136Z AUTO 15003KT 1 1/4SM -RA BR OVC002 13/13 A2983 RMK AO2 P0003 $=
0212745966037262023010101564+39009-074908FM-15+000799999V0202401N002110006119N002414199+01281+01281101071ADDAA101000731AW1101AW2611GD14991+0006119GE19AGL   +99999+99999GF199999999999000611999999MA1101051999999REMMET099METAR KWWD 010156Z AUTO 24004KT 1 1/2SM -RA BR OVC002 13/13 A2984 RMK AO2 SLP107 P0003 T01280128 $=
0216745966037262023010102124+39009-074908FM-16+000799999V0202201N002610006119N004023199+01301+01301999999ADDAA101002531AW1101AW2621GD13991+0006119GD24991+0030519GE19AGL   +99999+99999GF199999999999000611999999MA1101051999999REMMET088SPECI KWWD 010212Z AUTO 22005KT 2 1/2SM RA BR BKN002 OVC010 13/13 A2984 RMK AO2 P0010 $=
0246745966037262023010102194+39009-074908FM-16+000799999V0202101N002110003019N008047199+01301+01301999999ADDAA101003331AW1101AW2621GD13991+0006111GD23991+0030519GD34991+0112819GE19AGL   +99999+99999GF199999999999000611999999MA1101051999999REMMET103SPECI KWWD 010219Z AUTO 21004KT 5SM RA BR BKN002 BKN010 OVC037 13/13 A2984 RMK AO2 CIG 001V005 P0013 $=
0264745966037262023010102564+39009-074908FM-15+000799999V0202401N003110012219N008047199+01331+01331101111ADDAA101008331AA203011491AW1101AW2631GD14991+0012219GE19AGL   +99999+99999GF199999999999001221999999MA1101081999999MD1510111+9999REMMET107METAR KWWD 010256Z AUTO 24006KT 5SM +RA BR OVC004 13/13 A2985 RMK AO2 SLP111 P0033 60045 T01330133 55011 $=EQDQ01  01148PRCP03
0190745966037262023010103254+39009-074908FM-16+000799999V0209999V001510006119N016093199+01401+01401999999ADDAA101002231AW1611GD14991+0006119GE19AGL   +99999+99999GF199999999999000611999999MA1100911999999REMMET083SPECI KWWD 010325Z AUTO VRB03KT 10SM -RA OVC002 14/14 A2980 RMK AO2 PRESFR P0009 $=
0191745966037262023010103504+39009-074908FM-16+000799999V0209999C000010006119N002816199+01401+01401999999ADDAA101002231AW1101GD14991+0006119GE19AGL   +99999+99999GF199999999999000611999999MA1100851999999REMMET084SPECI KWWD 010350Z AUTO 00000KT 1 3/4SM BR OVC002 14/14 A2978 RMK AO2 RAE50 P0009 $=
0189745966037262023010103544+39009-074908FM-16+000799999V0202601N002110006119N001207199+01401+01401999999ADDAA101002231AW1101GD14991+0006119GE19AGL   +99999+99999GF199999999999000611999999MA1100881999999REMMET082SPECI KWWD 010354Z AUTO 26004KT 3/4SM BR OVC002 14/14 A2979 RMK AO2 RAE50 P0009 $=
0206745966037262023010103564+39009-074908FM-15+000799999V0202501N002610006119N001207199+01391+01391100921ADDAA101002231AW1101GD14991+0006119GE19AGL   +99999+99999GF199999999999000611999999MA1100911999999REMMET099METAR KWWD 010356Z AUTO 25005KT 3/4SM BR OVC002 14/14 A2980 RMK AO2 RAE50 SLP092 P0009 T01390139 $=
0207745966037262023010104164+39009-074908FM-16+000799999V0202601N003610006119N002012199+01401+01401999999ADDAA101000231AW1101GD13991+0006119GD24991+0027419GE19AGL   +99999+99999GF199999999999000611999999MA1100951999999REMMET085SPECI KWWD 010416Z AUTO 26007KT 1 1/4SM BR BKN002 OVC009 14/14 A2981 RMK AO2 P0001 $=
0203745966037262023010104194+39009-074908FM-16+000799999V0202601N004110006119N004828199+01401+01401999999ADDAA101000231AW1101GD13991+0006119GD24991+0027419GE19AGL   +99999+99999GF199999999999000611999999MA1100951999999REMMET081SPECI KWWD 010419Z AUTO 26008KT 3SM BR BKN002 OVC009 14/14 A2981 RMK AO2 P0001 $=
0195745966037262023010104394+39009-074908FM-16+000799999V0202601N005110027419N016093199+01401+01401999999ADDAA101000231GD12991+0006119GD24991+0027419GE19AGL   +99999+99999GF199999999999000611999999MA1100951999999REMMET079SPECI KWWD 010439Z AUTO 26010KT 10SM SCT002 OVC009 14/14 A2981 RMK AO2 P0001 $=
0277745966037262023010104567+39008-074908FM-15+0007KWWD V0202805N00625001835MN0160935N5+01335+01335101015ADDAA101000395GA1085+001835999GD14991+0018351GE19AGL   +99999+99999GF199999999999001831999999KA1240M+01611KA2240N+01061MA1100985100905OC100825REMMET12612/31/22 23:56:02 METAR KWWD 010456Z 28012G16KT 10SM OVC006 13/13 A2982 RMK AO2 CIG 004V009 SLP101 P0001 T01330133 401610106 $
0241745966037262023010105427+39008-074908FM-15+0007KWWD V0202605N00365000915MN0048285N5+01305+01305999999ADDAU100001015AW1105GA1075+000915999GA2085+001835999GD13991+0009159GD24991+0018359GE19AGL   +99999+99999GF199999999999000911999999MA1100985100905REMMET08701/01/23 00:42:02 METAR KWWD 010542Z 26007KT 3SM BR BKN003 OVC006 13/13 A2982 RMK AO2 $
0253745966037262023010105487+39008-074908FM-15+0007KWWD V0202605N00415000305MN0040235V5+01305+01305999999ADDAU100001015AW1105GA1075+000305999GA2085+001835999GD13991+0003059GD24991+0018359GE19AGL   +99999+99999GF199999999999000301999999MA1100985100905REMMET09901/01/23 00:48:02 METAR KWWD 010548Z 26008KT 2 1/2SM BR BKN001 OVC006 13/13 A2982 RMK AO2 VIS 2V4 $
0326745966037262023010105567+39008-074908FM-15+0007KWWD V0202605N00315000305MN0032195V5+01225+01225100995ADDAA106014091AU100001015AW1105GA1085+000305999GD14991+0003059GE19AGL   +99999+99999GF199999999999000301999999KA1060M+01441KA2060N+01221MA1100985100905MD1690129+9999REMMET13301/01/23 00:56:02 METAR KWWD 010556Z 26006KT 2SM BR OVC001 12/12 A2982 RMK AO2 VIS 1 1/4V3 SLP099 60055 T01220122 10144 20122 56012 $EQDQ01  01398PRCP06
0203745966037262023010106187+39008-074908FM-15+0007KWWD V0202605N00365000305MN0080475N5+01205+01205999999ADDAU100001015AW1105GA1085+000305999GD14991+0003059GE19AGL   +99999+99999GF199999999999000301999999MA1100985100905REMMET08001/01/23 01:18:02 METAR KWWD 010618Z 26007KT 5SM BR OVC001 12/12 A2982 RMK AO2 $
0194745966037262023010106317+39008-074908FM-15+0007KWWD V0202605N00575000915MN0112655N5+01205+01205999999ADDGA1085+000915999GD14991+0009159GE19AGL   +99999+99999GF199999999999000911999999MA1101025100935OC100825REMMET08001/01/23 01:31:02 METAR KWWD 010631Z 26011G16KT 7SM OVC003 12/12 A2983 RMK AO2 $
0200745966037262023010106567+39008-074908FM-15+0007KWWD V0202705N00515000915MN0112655N5+01225+01225101095ADDGA1085+000915999GD14991+0009159GE19AGL   +99999+99999GF199999999999000911999999MA1101085101005REMMET09401/01/23 01:56:02 METAR KWWD 010656Z 27010KT 7SM OVC003 12/12 A2985 RMK AO2 SLP109 T01220122 $
0220745966037262023010107567+39008-074908FM-15+0007KWWD V0202605N00415000915MN0080475N5+01225+01225101155ADDAU100001015AW1105GA1085+000915999GD14991+0009159GE19AGL   +99999+99999GF199999999999000911999999MA1101125101035REMMET09701/01/23 02:56:02 METAR KWWD 010756Z 26008KT 5SM BR OVC003 12/12 A2986 RMK AO2 SLP115 T01220122 $
0240745966037262023010108567+39008-074908FM-15+0007KWWD V0202705N00415000915MN0064375N5+01115+01115101145ADDAU100001015AW1105GA1085+000915999GD14991+0009159GE19AGL   +99999+99999GF199999999999000911999999MA1101125101035MD1090159+9999REMMET10301/01/23 03:56:02 METAR KWWD 010856Z 27008KT 4SM BR OVC003 11/11 A2986 RMK AO2 SLP114 T01110111 50015 $
0207745966037262023010109087+39008-074908FM-15+0007KWWD V0202805N00365000915MN0028165N5+01105+01105999999ADDAU100001015AW1105GA1085+000915999GD14991+0009159GE19AGL   +99999+99999GF199999999999000911999999MA1101155101075REMMET08401/01/23 04:08:02 METAR KWWD 010908Z 28007KT 1 3/4SM BR OVC003 11/11 A2987 RMK AO2 $
0205745966037262023010109157+39008-074908FM-15+0007KWWD V0202805N00365000915MN0012075N5+01105+01105999999ADDAU100001015AW1105GA1085+000915999GD14991+0009159GE19AGL   +99999+99999GF199999999999000911999999MA1101155101075REMMET08201/01/23 04:15:02 METAR KWWD 010915Z 28007KT 3/4SM BR OVC003 11/11 A2987 RMK AO2 $
0205745966037262023010109227+39008-074908FM-15+0007KWWD V0202805N00415000915MN0004025N5+01105+01105999999ADDAU100002015AW1305GA1085+000915999GD14991+0009159GE19AGL   +99999+99999GF199999999999000911999999MA1101195101105REMMET08201/01/23 04:22:02 METAR KWWD 010922Z 28008KT 1/4SM FG OVC003 11/11 A2988 RMK AO2 $
0222745966037262023010109567+39008-074908FM-15+0007KWWD V0203005N00265000915MN0004025N5+00945+00945101275ADDAU100002015AW1305GA1085+000915999GD14991+0009159GE19AGL   +99999+99999GF199999999999000911999999MA1101255101175REMMET09901/01/23 04:56:02 METAR KWWD 010956Z 30005KT 1/4SM FG OVC003 09/09 A2990 RMK AO2 SLP127 T00940094 $
0206745966037262023010110547+39008-074908FM-15+0007KWWD V0203305N00155000305MN0000005N5+00805+00805999999ADDAU100002015AW1305GA1085+000305999GD14991+0003059GE19AGL   +99999+99999GF199999999999000301999999MA1101325101245REMMET08301/01/23 05:54:02 METAR KWWD 011054Z 33003KT M1/4SM FG OVC001 08/08 A2992 RMK AO2 $
0223745966037262023010110567+39008-074908FM-15+0007KWWD V0209999C00005000305MN0000005N5+00785+00785101335ADDAU100002015AW1305GA1085+000305999GD14991+0003059GE19AGL   +99999+99999GF199999999999000301999999MA1101325101245REMMET10001/01/23 05:56:02 METAR KWWD 011056Z 00000KT M1/4SM FG OVC001 08/08 A2992 RMK AO2 SLP133 T00780078 $
0317745966037262023010111567+39008-074908FM-15+0007KWWD V0203205N00155000305MN0000005N5+00835+00835101395ADDAA124016891AU100002015AW1305GA1085+000305999GD14991+0003059GE19AGL   +99999+99999GF199999999999000301999999KA1060M+01281KA2060N+00781MA1101395101305MD1290129+9999REMMET12401/01/23 06:56:02 METAR KWWD 011156Z 32003KT M1/4SM FG OVC001 08/08 A2994 RMK AO2 SLP139 70066 T00830083 10128 20078 52012 $EQDQ01  01678PRCP24
0222745966037262023010112567+39008-074908FM-15+0007KWWD V0209999C00005000305MN0004025N5+00785+00785101505ADDAU100002015AW1305GA1085+000305999GD14991+0003059GE19AGL   +99999+99999GF199999999999000301999999MA1101495101415REMMET09901/01/23 07:56:02 METAR KWWD 011256Z 00000KT 1/4SM FG OVC001 08/08 A2997 RMK AO2 SLP150 T00780078 $
0205745966037262023010113047+39008-074908FM-15+0007KWWD V0209999C00005000305MN0008055N5+00805+00805999999ADDAU100002015AW1305GA1085+000305999GD14991+0003059GE19AGL   +99999+99999GF199999999999000301999999MA1101495101415REMMET08201/01/23 08:04:02 METAR KWWD 011304Z 00000KT 1/2SM FG OVC001 08/08 A2997 RMK AO2 $
0203745966037262023010113087+39008-074908FM-15+0007KWWD V0209999C00005000305MN0016095N5+00805+00805999999ADDAU100001015AW1105GA1085+000305999GD14991+0003059GE19AGL   +99999+99999GF199999999999000301999999MA1101495101415REMMET08001/01/23 08:08:02 METAR KWWD 011308Z 00000KT 1SM BR OVC001 08/08 A2997 RMK AO2 $
0203745966037262023010113157+39008-074908FM-15+0007KWWD V0202805N00155000305MN0032195N5+00805+00805999999ADDAU100001015AW1105GA1075+000305999GD13991+0003059GE19AGL   +99999+99999GF199999999999000301999999MA1101525101445REMMET08001/01/23 08:15:02 METAR KWWD 011315Z 28003KT 2SM BR BKN001 08/08 A2998 RMK AO2 $
0222745966037262023010113227+39008-074908FM-15+0007KWWD V0202905N002152200059N0064375N5+00805+00805999999ADDAU100001015AW1105GA1045+000305999GD12991+0003059GE19AGL   +99999+99999GF104995999999000301999999MA1101525101445REMMET08001/01/23 08:22:02 METAR KWWD 011322Z 29004KT 4SM BR SCT001 08/08 A2998 RMK AO2 $EQDD01      0ADE726
0220745966037262023010113567+39008-074908FM-15+0007KWWD V0202905N00265000305MN0048285N5+00835+00835101615ADDAU100001015AW1105GA1075+000305999GD13991+0003059GE19AGL   +99999+99999GF199999999999000301999999MA1101595101515REMMET09701/01/23 08:56:02 METAR KWWD 011356Z 29005KT 3SM BR BKN001 08/08 A3000 RMK AO2 SLP161 T00830083 $
0207745966037262023010114047+39008-074908FM-15+0007KWWD V0202905N00215000305MN0028165N5+00805+00805999999ADDAU100001015AW1105GA1075+000305999GD13991+0003059GE19AGL   +99999+99999GF199999999999000301999999MA1101595101515REMMET08401/01/23 09:04:02 METAR KWWD 011404Z 29004KT 1 3/4SM BR BKN001 08/08 A3000 RMK AO2 $
0203745966037262023010114207+39008-074908FM-15+0007KWWD V0203005N00265000305MN0048285N5+00905+00905999999ADDAU100001015AW1105GA1075+000305999GD13991+0003059GE19AGL   +99999+99999GF199999999999000301999999MA1101595101515REMMET08001/01/23 09:20:02 METAR KWWD 011420Z 30005KT 3SM BR BKN001 09/09 A3000 RMK AO2 $
0203745966037262023010114357+39008-074908FM-15+0007KWWD V0202905N003152200059N0160935N5+00905+00905999999ADDGA1045+000305999GD12991+0003059GE19AGL   +99999+99999GF104995999999000301999999MA1101635101545REMMET07801/01/23 09:35:02 METAR KWWD 011435Z 29006KT 10SM SCT001 09/09 A3001 RMK AO2 $EQDD01      0ADE726
0196745966037262023010114567+39008-074908FM-15+0007KWWD V0202905N003652200059N0160935N5+00945+00945101685ADDGA1005+999999999GD10991+9999999GF100991999999999999999999MA1101665101585MD1190299+9999REMMET09801/01/23 09:56:02 METAR KWWD 011456Z 29007KT 10SM CLR 09/09 A3002 RMK AO2 SLP168 T00940094 51029 $
0176745966037262023010115567+39008-074908FM-15+0007KWWD V0202905N004652200059N0160935N5+01065+00835101645ADDGA1005+999999999GD10991+9999999GF100991999999999999999999MA1101635101545REMMET09201/01/23 10:56:02 METAR KWWD 011556Z 29009KT 10SM CLR 11/08 A3001 RMK AO2 SLP164 T01060083 $
0187745966037262023010116567+39008-074908FM-15+0007KWWD V0203005N004652200059N0160935N5+01175+00675101655ADDGA1005+999999999GD10991+9999999GF100991999999999999999999MA1101635101545OC100775REMMET09501/01/23 11:56:02 METAR KWWD 011656Z 30009G15KT 10SM CLR 12/07 A3001 RMK AO2 SLP165 T01170067 $
0234745966037262023010117567+39008-074908FM-15+0007KWWD V0203205N004152200059N0160935N5+01225+00675101615ADDGA1005+999999999GD10991+9999999GF100991999999999999999999KA1060M+01221KA2060N+00781MA1101595101515MD1890079+9999REMMET11001/01/23 12:56:02 METAR KWWD 011756Z 32008KT 10SM CLR 12/07 A3000 RMK AO2 SLP161 T01220067 10122 20078 58007 $
0187745966037262023010118567+39008-074908FM-15+0007KWWD V0203105N003652200059N0160935N5+01225+00615101615ADDGA1005+999999999GD10991+9999999GF100991999999999999999999MA1101595101515OC100725REMMET09501/01/23 13:56:02 METAR KWWD 011856Z 31007G14KT 10SM CLR 12/06 A3000 RMK AO2 SLP161 T01220061 $
0176745966037262023010119567+39008-074908FM-15+0007KWWD V0203205N002652200059N0160935N5+01225+00565101605ADDGA1005+999999999GD10991+9999999GF100991999999999999999999MA1101595101515REMMET09201/01/23 14:56:02 METAR KWWD 011956Z 32005KT 10SM CLR 12/06 A3000 RMK AO2 SLP160 T01220056 $
0196745966037262023010120567+39008-074908FM-15+0007KWWD V0203105N002652200059N0160935N5+01225+00565101645ADDGA1005+999999999GD10991+9999999GF100991999999999999999999MA1101635101545MD1390039+9999REMMET09801/01/23 15:56:02 METAR KWWD 012056Z 31005KT 10SM CLR 12/06 A3001 RMK AO2 SLP164 T01220056 53003 $
0176745966037262023010121567+39008-074908FM-15+0007KWWD V0209999C000052200059N0160935N5+01005+00505101625ADDGA1005+999999999GD10991+9999999GF100991999999999999999999MA1101595101515REMMET09201/01/23 16:56:02 METAR KWWD 012156Z 00000KT 10SM CLR 10/05 A3000 RMK AO2 SLP162 T01000050 $
0176745966037262023010122567+39008-074908FM-15+0007KWWD V0209999C000052200059N0160935N5+00675+00615101725ADDGA1005+999999999GD10991+9999999GF100991999999999999999999MA1101695101615REMMET09201/01/23 17:56:02 METAR KWWD 012256Z 00000KT 10SM CLR 07/06 A3003 RMK AO2 SLP172 T00670061 $
0234745966037262023010123567+39008-074908FM-15+0007KWWD V0202105N001552200059N0160935N5+00565+00445101795ADDGA1005+999999999GD10991+9999999GF100991999999999999999999KA1060M+01281KA2060N+00561MA1101765101685MD1390159+9999REMMET11001/01/23 18:56:02 METAR KWWD 012356Z 21003KT 10SM CLR 06/04 A3005 RMK AO2 SLP179 T00560044 10128 20056 53015 $
0176745966037262023010200567+39008-074908FM-15+0007KWWD V0209999C000052200059N0160935N5+00505+00395101845ADDGA1005+999999999GD10991+9999999GF100991999999999999999999MA1101835101745REMMET09201/01/23 19:56:01 METAR KWWD 020056Z 00000KT 10SM CLR 05/04 A3007 RMK AO2 SLP184 T00500039 $
0176745966037262023010201567+39008-074908FM-15+0007KWWD V0209999C000052200059N0160935N5+00505+00395101875ADDGA1005+999999999GD10991+9999999GF100991999999999999999999MA1101865101785REMMET09201/01/23 20:56:01 METAR KWWD 020156Z 00000KT 10SM CLR 05/04 A3008 RMK AO2 SLP187 T00500039 $
0196745966037262023010202567+39008-074908FM-15+0007KWWD V0209999C000052200059N0160935N5+00675+00505101885ADDGA1005+999999999GD10991+9999999GF100991999999999999999999MA1101865101785MD1190099+9999REMMET09801/01/23 21:56:01 METAR KWWD 020256Z 00000KT 10SM CLR 07/05 A3008 RMK AO2 SLP188 T00670050 51009 $
0176745966037262023010203567+39008-074908FM-15+0007KWWD V0202105N001552200059N0160935N5+00835+00565101865ADDGA1005+999999999GD10991+9999999GF100991999999999999999999MA1101865101785REMMET09201/01/23 22:56:02 METAR KWWD 020356Z 21003KT 10SM CLR 08/06 A3008 RMK AO2 SLP186 T00830056 $
0212745966037262023010204567+39008-074908FM-15+0007KWWD V0202105N002152200059N0160935N5+00725+00505101855ADDGA1005+999999999GD10991+9999999GF100991999999999999999999KA1240M+01331KA2240N+00441MA1101835101745REMMET10201/01/23 23:56:02 METAR KWWD 020456Z 21004KT 10SM CLR 07/05 A3007 RMK AO2 SLP185 T00720050 401330044 $
002774596603726202301020459O+39008-074908SOD  +0007KWWD V020999999999999999999999999999+99999+99999999999ADDAT1AU01FG  5AT2AU13BR  5
0234745966037262023010205567+39008-074908FM-15+0007KWWD V0202205N002652200059N0160935N5+00835+00725101835ADDGA1005+999999999GD10991+9999999GF100991999999999999999999KA1060M+00831KA2060N+00441MA1101835101745MD1890059+9999REMMET11001/02/23 00:56:02 METAR KWWD 020556Z 22005KT 10SM CLR 08/07 A3007 RMK AO2 SLP183 T00830072 10083 20044 58005 $
0176745966037262023010206567+39008-074908FM-15+0007KWWD V0202305N003152200059N0160935N5+00895+00785101835ADDGA1005+999999999GD10991+9999999GF100991999999999999999999MA1101835101745REMMET09201/02/23 01:56:02 METAR KWWD 020656Z 23006KT 10SM CLR 09/08 A3007 RMK AO2 SLP183 T00890078 $
0176745966037262023010207567+39008-074908FM-15+0007KWWD V0202705N003152200059N0160935N5+00835+00785101925ADDGA1005+999999999GD10991+9999999GF100991999999999999999999MA1101905101815REMMET09201/02/23 02:56:02 METAR KWWD 020756Z 27006KT 10SM CLR 08/08 A3009 RMK AO2 SLP192 T00830078 $
0196745966037262023010208567+39008-074908FM-15+0007KWWD V0209999C000052200059N0160935N5+00785+00725101935ADDGA1005+999999999GD10991+9999999GF100991999999999999999999MA1101905101815MD1390099+9999REMMET09801/02/23 03:56:02 METAR KWWD 020856Z 00000KT 10SM CLR 08/07 A3009 RMK AO2 SLP193 T00780072 53009 $
0176745966037262023010209567+39008-074908FM-15+0007KWWD V0203205N002152200059N0160935N5+00785+00725101955ADDGA1005+999999999GD10991+9999999GF100991999999999999999999MA1101935101855REMMET09201/02/23 04:56:02 METAR KWWD 020956Z 32004KT 10SM CLR 08/07 A3010 RMK AO2 SLP195 T00780072 $
0176745966037262023010210567+39008-074908FM-15+0007KWWD V0203505N002152200059N0160935N5+00785+00725102035ADDGA1005+999999999GD10991+9999999GF100991999999999999999999MA1102005101915REMMET09201/02/23 05:56:02 METAR KWWD 021056Z 35004KT 10SM CLR 08/07 A3012 RMK AO2 SLP203 T00780072 $
0194745966037262023010211377+39008-074908FM-15+0007KWWD V0209999C000052200059N0040235V5+00605+00605999999ADDAU100001015AW1105GA1005+999999999GD10991+9999999GF100991999999999999999999MA1102035101955REMMET09301/02/23 06:37:02 METAR KWWD 021137Z 00000KT 2 1/2SM BR CLR 06/06 A3013 RMK AO2 VIS 1 3/4V4 $
0191745966037262023010211397+39008-074908FM-15+0007KWWD V0209999C000052200059N0012075V5+00605+00605999999ADDAU100001015AW1105GA1005+999999999GD10991+9999999GF100991999999999999999999MA1102035101955REMMET09001/02/23 06:39:02 METAR KWWD 021139Z 00000KT 3/4SM BR CLR 06/06 A3013 RMK AO2 VIS M1/4V4 $
0180745966037262023010211477+39008-074908FM-15+0007KWWD V0209999C000052200059N0004025N5+00605+00605999999ADDAU100002015AW1305GA1005+999999999GD10991+9999999GF100991999999999999999999MA1102075101985REMMET07901/02/23 06:47:02 METAR KWWD 021147Z 00000KT 1/4SM FG CLR 06/06 A3014 RMK AO2 $
0255745966037262023010211567+39008-074908FM-15+0007KWWD V0209999C000052200059N0004025N5+00565+00565102085ADDAU100002015AW1305GA1005+999999999GD10991+9999999GF100991999999999999999999KA1060M+00941KA2060N+00561MA1102075101985MD1390159+9999REMMET11401/02/23 06:56:02 METAR KWWD 021156Z 00000KT 1/4SM FG CLR 06/06 A3014 RMK AO2 SLP208 T00560056 10094 20056 53015 $
0219745966037262023010212067+39008-074908FM-15+0007KWWD V0209999C00005000615WN0004025V5+00605+00605999999ADDAU100002015AW1305GA1095+000615999GD15991+0006159GE19AGL   +99999+99999GF109991999999000611999999MA1102105102015REMMET09601/02/23 07:06:02 METAR KWWD 021206Z 00000KT 1/4SM FG VV002 06/06 A3015 RMK AO2 VIS M1/4V2 1/2 $
0216745966037262023010212107+39008-074908FM-15+0007KWWD V0209999C00005000615WN0016095V5+00605+00605999999ADDAU100001015AW1105GA1095+000615999GD15991+0006159GE19AGL   +99999+99999GF109991999999000611999999MA1102105102015REMMET09301/02/23 07:10:02 METAR KWWD 021210Z 00000KT 1SM BR VV002 06/06 A3015 RMK AO2 VIS 1/4V2 1/2 $
0222745966037262023010212167+39008-074908FM-15+0007KWWD V0209999C000052200059N0032195N5+00505+00505999999ADDAU100001015AW1105GA1025+000615999GD11991+0006159GE19AGL   +99999+99999GF102995999999000611999999MA1102105102015REMMET08001/02/23 07:16:02 METAR KWWD 021216Z 00000KT 2SM BR FEW002 05/05 A3015 RMK AO2 $EQDD01      0ADE726
0226745966037262023010212257+39008-074908FM-15+0007KWWD V0209999C000052200059N0024145N5+00405+00405999999ADDAU100001015AW1105GA1025+000615999GD11991+0006159GE19AGL   +99999+99999GF102995999999000611999999MA1102135102055REMMET08401/02/23 07:25:02 METAR KWWD 021225Z 00000KT 1 1/2SM BR FEW002 04/04 A3016 RMK AO2 $EQDD01      0ADE726
0190745966037262023010212437+39008-074908FM-15+0007KWWD V0209999C000052200059N0008055V5+00405+00405999999ADDAU100002015AW1305GA1005+999999999GD10991+9999999GF100991999999999999999999MA1102175102085REMMET08901/02/23 07:43:02 METAR KWWD 021243Z 00000KT 1/2SM FG CLR 04/04 A3017 RMK AO2 VIS 1/4V4 $
0182745966037262023010212527+39008-074908FM-15+0007KWWD V0209999C000052200059N0020125N5+00505+00505999999ADDAU100001015AW1105GA1005+999999999GD10991+9999999GF100991999999999999999999MA1102175102085REMMET08101/02/23 07:52:02 METAR KWWD 021252Z 00000KT 1 1/4SM BR CLR 05/05 A3017 RMK AO2 $
0178745966037262023010212547+39008-074908FM-15+0007KWWD V0209999C000052200059N0064375N5+00505+00505999999ADDAU100001015AW1105GA1005+999999999GD10991+9999999GF100991999999999999999999MA1102175102085REMMET07701/02/23 07:54:02 METAR KWWD 021254Z 00000KT 4SM BR CLR 05/05 A3017 RMK AO2 $
0195745966037262023010212567+39008-074908FM-15+0007KWWD V0209999C000052200059N0080475N5+00505+00505102185ADDAU100001015AW1105GA1005+999999999GD10991+9999999GF100991999999999999999999MA1102175102085REMMET09401/02/23 07:56:02 METAR KWWD 021256Z 00000KT 5SM BR CLR 05/05 A3017 RMK AO2 SLP218 T00500050 $
0175745966037262023010213567+39008-074908FM-15+0007KWWD V0209999N999992200059N0112655N5+00835+00835102205ADDGA1005+999999999GD10991+9999999GF100991999999999999999999MA1102175102085REMMET09101/02/23 08:56:02 METAR KWWD 021356Z      KT 7SM CLR 08/08 A3017 RMK AO2 SLP220 T00830083 $
0196745966037262023010214567+39008-074908FM-15+0007KWWD V0209999C000052200059N0160935N5+01225+00895102225ADDGA1005+999999999GD10991+9999999GF100991999999999999999999MA1102205102125MD1190149+9999REMMET09801/02/23 09:56:02 METAR KWWD 021456Z 00000KT 10SM CLR 12/09 A3018 RMK AO2 SLP222 T01220089 51014 $
0176745966037262023010215567+39008-074908FM-15+0007KWWD V0201105N004152200059N0160935N5+01505+00785102195ADDGA1005+999999999GD10991+9999999GF100991999999999999999999MA1102175102085REMMET09201/02/23 10:56:02 METAR KWWD 021556Z 11008KT 10SM CLR 15/08 A3017 RMK AO2 SLP219 T01500078 $
0176745966037262023010216567+39008-074908FM-15+0007KWWD V0201105N003652200059N0160935N5+01395+00725102155ADDGA1005+999999999GD10991+9999999GF100991999999999999999999MA1102135102055REMMET09201/02/23 11:56:02 METAR KWWD 021656Z 11007KT 10SM CLR 14/07 A3016 RMK AO2 SLP215 T01390072 $
0234745966037262023010217567+39008-074908FM-15+0007KWWD V0201405N004152200059N0160935N5+01445+00725102125ADDGA1005+999999999GD10991+9999999GF100991999999999999999999KA1060M+01561KA2060N+00441MA1102105102015MD1790109+9999REMMET11001/02/23 12:56:02 METAR KWWD 021756Z 14008KT 10SM CLR 14/07 A3015 RMK AO2 SLP212 T01440072 10156 20044 57010 $
0176745966037262023010218567+39008-074908FM-15+0007KWWD V0201605N004652200059N0160935N5+01505+00725102105ADDGA1005+999999999GD10991+9999999GF100991999999999999999999MA1102075101985REMMET09201/02/23 13:56:02 METAR KWWD 021856Z 16009KT 10SM CLR 15/07 A3014 RMK AO2 SLP210 T01500072 $
0176745966037262023010219567+39008-074908FM-15+0007KWWD V0201705N003652200059N0160935N5+01445+00725102075ADDGA1005+999999999GD10991+9999999GF100991999999999999999999MA1102075101985REMMET09201/02/23 14:56:02 METAR KWWD 021956Z 17007KT 10SM CLR 14/07 A3014 RMK AO2 SLP207 T01440072 $
0240745966037262023010220567+39008-074908FM-15+0007KWWD V0201505N003152200059N0160935N5+01225+00785102035ADDGA1045+018295999GD12991+0182959GE19AGL   +99999+99999GF104995999999018291999999MA1102035101955MD1890089+9999REMMET10101/02/23 15:56:02 METAR KWWD 022056Z 15006KT 10SM SCT060 12/08 A3013 RMK AO2 SLP203 T01220078 58008 $EQDD01      0ADE726
0176745966037262023010221567+39008-074908FM-15+0007KWWD V0201705N003152200059N0160935N5+01005+00785102085ADDGA1005+999999999GD10991+9999999GF100991999999999999999999MA1102075101985REMMET09201/02/23 16:56:02 METAR KWWD 022156Z 17006KT 10SM CLR 10/08 A3014 RMK AO2 SLP208 T01000078 $
0176745966037262023010222567+39008-074908FM-15+0007KWWD V0201605N003152200059N0160935N5+00945+00785102095ADDGA1005+999999999GD10991+9999999GF100991999999999999999999MA1102075101985REMMET09201/02/23 17:56:02 METAR KWWD 022256Z 16006KT 10SM CLR 09/08 A3014 RMK AO2 SLP209 T00940078 $
0234745966037262023010223567+39008-074908FM-15+0007KWWD V0201805N002152200059N0160935N5+00895+00725102155ADDGA1005+999999999GD10991+9999999GF100991999999999999999999KA1060M+01561KA2060N+00891MA1102135102055MD1390119+9999REMMET11001/02/23 18:56:02 METAR KWWD 022356Z 18004KT 10SM CLR 09/07 A3016 RMK AO2 SLP215 T00890072 10156 20089 53011 $
0220745966037262023010300567+39008-074908FM-15+0007KWWD V0201805N001552200059N0160935N5+00835+00725102135ADDGA1045+030485999GD12991+0304859GE19AGL   +99999+99999GF104995999999030481999999MA1102105102015REMMET09501/02/23 19:56:01 METAR KWWD 030056Z 18003KT 10SM SCT100 08/07 A3015 RMK AO2 SLP213 T00830072 $EQDD01      0ADE726
0201745966037262023010301567+39008-074908FM-15+0007KWWD V0209999C00005024385MN0160935N5+00835+00725102165ADDGA1075+024385999GD13991+0243859GE19AGL   +99999+99999GF199999999999024381999999MA1102135102055REMMET09501/02/23 20:56:01 METAR KWWD 030156Z 00000KT 10SM BKN080 08/07 A3016 RMK AO2 SLP216 T00830072 $
0196745966037262023010302567+39008-074908FM-15+0007KWWD V0209999C000052200059N0160935N5+00835+00725102145ADDGA1005+999999999GD10991+9999999GF100991999999999999999999MA1102135102055MD1890019+9999REMMET09801/02/23 21:56:01 METAR KWWD 030256Z 00000KT 10SM CLR 08/07 A3016 RMK AO2 SLP214 T00830072 58001 $
0239745966037262023010303567+39008-074908FM-15+0007KWWD V0201705N00265028965MN0160935N5+00895+00785102135ADDGA1045+021345999GA2085+028965999GD12991+0213459GD24991+0289659GE19AGL   +99999+99999GF199999999999021341999999MA1102105102015REMMET10201/02/23 22:56:01 METAR KWWD 030356Z 17005KT 10SM SCT070 OVC095 09/08 A3015 RMK AO2 SLP213 T00890078 $
0237745966037262023010304567+39008-074908FM-15+0007KWWD V0201805N00315028965MN0160935N5+01005+00835102065ADDGA1085+028965999GD14991+0289659GE19AGL   +99999+99999GF199999999999028961999999KA1240M+01561KA2240N+00441MA1102035101955REMMET10501/02/23 23:56:02 METAR KWWD 030456Z 18006KT 10SM OVC095 10/08 A3013 RMK AO2 SLP206 T01000083 401560044 $
002774596603726202301030459O+39008-074908SOD  +0007KWWD V020999999999999999999999999999+99999+99999999999ADDAT1AU01FG  5AT2AU13BR  5
0297745966037262023010305567+39008-074908FM-15+0007KWWD V0201905N00415028965MN0160935N5+01175+00835102045ADDGA1045+021345999GA2085+028965999GD12991+0213459GD24991+0289659GE19AGL   +99999+99999GF199999999999021341999999KA1060M+01171KA2060N+00671MA1102035101955MD1890109+9999REMMET12001/03/23 00:56:02 METAR KWWD 030556Z 19008KT 10SM SCT070 OVC095 12/08 A3013 RMK AO2 SLP204 T01170083 10117 20067 58010 $
0201745966037262023010306567+39008-074908FM-15+0007KWWD V0201805N00365030485MN0160935N5+01065+00835102015ADDGA1085+030485999GD14991+0304859GE19AGL   +99999+99999GF199999999999030481999999MA1102005101915REMMET09501/03/23 01:56:02 METAR KWWD 030656Z 18007KT 10SM OVC100 11/08 A3012 RMK AO2 SLP201 T01060083 $
0201745966037262023010307567+39008-074908FM-15+0007KWWD V0201605N00215021345MN0160935N5+01005+00895102015ADDGA1085+021345999GD14991+0213459GE19AGL   +99999+99999GF199999999999021341999999MA1102005101915REMMET09501/03/23 02:56:02 METAR KWWD 030756Z 16004KT 10SM OVC070 10/09 A3012 RMK AO2 SLP201 T01000089 $
0259745966037262023010308567+39008-074908FM-15+0007KWWD V0201605N00365030485MN0160935N5+01005+00895101945ADDGA1045+018295999GA2085+030485999GD12991+0182959GD24991+0304859GE19AGL   +99999+99999GF199999999999018291999999MA1101935101855MD1890109+9999REMMET10801/03/23 03:56:02 METAR KWWD 030856Z 16007KT 10SM SCT060 OVC100 10/09 A3010 RMK AO2 SLP194 T01000089 58010 $
0239745966037262023010309567+39008-074908FM-15+0007KWWD V0201705N00315033535MN0160935N5+01065+00945101915ADDGA1045+021345999GA2085+033535999GD12991+0213459GD24991+0335359GE19AGL   +99999+99999GF199999999999021341999999MA1101905101815REMMET10201/03/23 04:56:02 METAR KWWD 030956Z 17006KT 10SM SCT070 OVC110 11/09 A3009 RMK AO2 SLP191 T01060094 $
0201745966037262023010310567+39008-074908FM-15+0007KWWD V0201805N00415030485MN0160935N5+01115+00945101865ADDGA1085+030485999GD14991+0304859GE19AGL   +99999+99999GF199999999999030481999999MA1101835101745REMMET09501/03/23 05:56:02 METAR KWWD 031056Z 18008KT 10SM OVC100 11/09 A3007 RMK AO2 SLP186 T01110094 $
0234745966037262023010311567+39008-074908FM-15+0007KWWD V0201905N003652200059N0160935N5+01065+00945101815ADDGA1005+999999999GD10991+9999999GF100991999999999999999999KA1060M+01171KA2060N+01001MA1101795101715MD1890129+9999REMMET11001/03/23 06:56:02 METAR KWWD 031156Z 19007KT 10SM CLR 11/09 A3006 RMK AO2 SLP181 T01060094 10117 20100 58012 $
0201745966037262023010312567+39008-074908FM-15+0007KWWD V0201805N00365019815MN0160935N5+01065+01005101835ADDGA1085+019815999GD14991+0198159GE19AGL   +99999+99999GF199999999999019811999999MA1101835101745REMMET09501/03/23 07:56:02 METAR KWWD 031256Z 18007KT 10SM OVC065 11/10 A3007 RMK AO2 SLP183 T01060100 $
0239745966037262023010313567+39008-074908FM-15+0007KWWD V0201805N00515030485MN0160935N5+01175+01065101755ADDGA1075+030485999GA2075+033535999GD13991+0304859GD23991+0335359GE19AGL   +99999+99999GF199999999999030481999999MA1101735101645REMMET10201/03/23 08:56:02 METAR KWWD 031356Z 18010KT 10SM BKN100 BKN110 12/11 A3004 RMK AO2 SLP175 T01170106 $
0221745966037262023010314567+39008-074908FM-15+0007KWWD V0201905N00575033535MN0160935N5+01335+01115101725ADDGA1075+033535999GD13991+0335359GE19AGL   +99999+99999GF199999999999033531999999MA1101695101615MD1890109+9999REMMET10101/03/23 09:56:02 METAR KWWD 031456Z 19011KT 10SM BKN110 13/11 A3003 RMK AO2 SLP172 T01330111 58010 $
0220745966037262023010315567+39008-074908FM-15+0007KWWD V0201905N004652200059N0160935N5+01395+01175101705ADDGA1025+036585999GD11991+0365859GE19AGL   +99999+99999GF102995999999036581999999MA1101695101615REMMET09501/03/23 10:56:02 METAR KWWD 031556Z 19009KT 10SM FEW120 14/12 A3003 RMK AO2 SLP170 T01390117 $EQDD01      0ADE726
0220745966037262023010316567+39008-074908FM-15+0007KWWD V0202005N004152200059N0160935N5+01565+01175101585ADDGA1045+030485999GD12991+0304859GE19AGL   +99999+99999GF104995999999030481999999MA1101565101475REMMET09501/03/23 11:56:02 METAR KWWD 031656Z 20008KT 10SM SCT100 16/12 A2999 RMK AO2 SLP158 T01560117 $EQDD01      0ADE726
0308745966037262023010317567+39008-074908FM-15+0007KWWD V0202105V00415033535MN0160935N5+01785+01285101515ADDGA1025+027435999GA2085+033535999GD11991+0274359GD24991+0335359GE19AGL   +99999+99999GF199999999999027431999999KA1060M+01781KA2060N+01061MA1101495101415MD1890209+9999OC101035REMMET12301/03/23 12:56:02 METAR KWWD 031756Z 21008G20KT 10SM FEW090 OVC110 18/13 A2997 RMK AO2 SLP151 T01780128 10178 20106 58020 $
0201745966037262023010318567+39008-074908FM-15+0007KWWD V0202205N00675036585MN0160935N5+01835+01335101415ADDGA1075+036585999GD13991+0365859GE19AGL   +99999+99999GF199999999999036581999999MA1101395101305REMMET09501/03/23 13:56:02 METAR KWWD 031856Z 22013KT 10SM BKN120 18/13 A2994 RMK AO2 SLP141 T01830133 $
0212745966037262023010319567+39008-074908FM-15+0007KWWD V0202105N00775036585MN0160935N5+01895+01395101345ADDGA1075+036585999GD13991+0365859GE19AGL   +99999+99999GF199999999999036581999999MA1101325101245OC100985REMMET09801/03/23 14:56:02 METAR KWWD 031956Z 21015G19KT 10SM BKN120 19/14 A2992 RMK AO2 SLP134 T01890139 $
0196745966037262023010320567+39008-074908FM-15+0007KWWD V0201805N005752200059N0160935N5+01395+01115101285ADDGA1005+999999999GD10991+9999999GF100991999999999999999999MA1101255101175MD1690239+9999REMMET09801/03/23 15:56:02 METAR KWWD 032056Z 18011KT 10SM CLR 14/11 A2990 RMK AO2 SLP128 T01390111 56023 $
0176745966037262023010321567+39008-074908FM-15+0007KWWD V0201905N006752200059N0160935N5+01335+01115101195ADDGA1005+999999999GD10991+9999999GF100991999999999999999999MA1101195101105REMMET09201/03/23 16:56:02 METAR KWWD 032156Z 19013KT 10SM CLR 13/11 A2988 RMK AO2 SLP119 T01330111 $
0187745966037262023010322567+39008-074908FM-15+0007KWWD V0202005N007252200059N0160935N5+01335+01065101195ADDGA1005+999999999GD10991+9999999GF100991999999999999999999MA1101195101105OC101085REMMET09501/03/23 17:56:02 METAR KWWD 032256Z 20014G21KT 10SM CLR 13/11 A2988 RMK AO2 SLP119 T01330106 $
0234745966037262023010323567+39008-074908FM-15+0007KWWD V0201905N006752200059N0160935N5+01445+01175101185ADDGA1005+999999999GD10991+9999999GF100991999999999999999999KA1060M+01891KA2060N+01281MA1101155101075MD1690099+9999REMMET11001/03/23 18:56:02 METAR KWWD 032356Z 19013KT 10SM CLR 14/12 A2987 RMK AO2 SLP118 T01440117 10189 20128 56009 $
0176745966037262023010400567+39008-074908FM-15+0007KWWD V0202105N005752200059N0160935N5+01445+01225101235ADDGA1005+999999999GD10991+9999999GF100991999999999999999999MA1101225101145REMMET09201/03/23 19:56:01 METAR KWWD 040056Z 21011KT 10SM CLR 14/12 A2989 RMK AO2 SLP123 T01440122 $
0176745966037262023010401567+39008-074908FM-15+0007KWWD V0202005N005152200059N0160935N5+01395+01175101195ADDGA1005+999999999GD10991+9999999GF100991999999999999999999MA1101195101105REMMET09201/03/23 20:56:01 METAR KWWD 040156Z 20010KT 10SM CLR 14/12 A2988 RMK AO2 SLP119 T01390117 $
0207745966037262023010402567+39008-074908FM-15+0007KWWD V0202005N007252200059N0160935N5+01505+01285101155ADDGA1005+999999999GD10991+9999999GF100991999999999999999999MA1101125101035MD1890039+9999OC101035REMMET10101/03/23 21:56:01 METAR KWWD 040256Z 20014G20KT 10SM CLR 15/13 A2986 RMK AO2 SLP115 T01500128 58003 $
0176745966037262023010403567+39008-074908FM-15+0007KWWD V0201905N006752200059N0160935N5+01445+01285101045ADDGA1005+999999999GD10991+9999999GF100991999999999999999999MA1101025100935REMMET09201/03/23 22:56:01 METAR KWWD 040356Z 19013KT 10SM CLR 14/13 A2983 RMK AO2 SLP104 T01440128 $
0212745966037262023010404567+39008-074908FM-15+0007KWWD V0202005N007752200059N0160935N5+01615+01335100965ADDGA1005+999999999GD10991+9999999GF100991999999999999999999KA1240M+01891KA2240N+01001MA1100955100865REMMET10201/03/23 23:56:01 METAR KWWD 040456Z 20015KT 10SM CLR 16/13 A2981 RMK AO2 SLP096 T01610133 401890100 $
0234745966037262023010405567+39008-074908FM-15+0007KWWD V0202105N004652200059N0160935N5+01445+01285101065ADDGA1005+999999999GD10991+9999999GF100991999999999999999999KA1060M+01611KA2060N+01331MA1101055100975MD1590099+9999REMMET11001/04/23 00:56:01 METAR KWWD 040556Z 21009KT 10SM CLR 14/13 A2984 RMK AO2 SLP106 T01440128 10161 20133 55009 $
0176745966037262023010406567+39008-074908FM-15+0007KWWD V0202305N007252200059N0160935N5+01675+01335101065ADDGA1005+999999999GD10991+9999999GF100991999999999999999999MA1101055100975REMMET09201/04/23 01:56:01 METAR KWWD 040656Z 23014KT 10SM CLR 17/13 A2984 RMK AO2 SLP106 T01670133 $
0187745966037262023010407567+39008-074908FM-15+0007KWWD V0202405N008252200059N0160935N5+01615+01335101145ADDGA1005+999999999GD10991+9999999GF100991999999999999999999MA1101125101035OC101085REMMET09501/04/23 02:56:01 METAR KWWD 040756Z 24016G21KT 10SM CLR 16/13 A2986 RMK AO2 SLP114 T01610133 $
0196745966037262023010408567+39008-074908FM-15+0007KWWD V0202505N005152200059N0160935N5+01565+01335101215ADDGA1005+999999999GD10991+9999999GF100991999999999999999999MA1101195101105MD1390159+9999REMMET09801/04/23 03:56:01 METAR KWWD 040856Z 25010KT 10SM CLR 16/13 A2988 RMK AO2 SLP121 T01560133 53015 $
0176745966037262023010409567+39008-074908FM-15+0007KWWD V0202405N002652200059N0160935N5+01565+01335101225ADDGA1005+999999999GD10991+9999999GF100991999999999999999999MA1101225101145REMMET09201/04/23 04:56:01 METAR KWWD 040956Z 24005KT 10SM CLR 16/13 A2989 RMK AO2 SLP122 T01560133 $
0176745966037262023010410567+39008-074908FM-15+0007KWWD V0202305N004152200059N0160935N5+01505+01335101285ADDGA1005+999999999GD10991+9999999GF100991999999999999999999MA1101255101175REMMET09201/04/23 05:56:02 METAR KWWD 041056Z 23008KT 10SM CLR 15/13 A2990 RMK AO2 SLP128 T01500133 $
0234745966037262023010411567+39008-074908FM-15+0007KWWD V0202405N005152200059N0160935N5+01615+01395101345ADDGA1005+999999999GD10991+9999999GF100991999999999999999999KA1060M+01671KA2060N+01501MA1101325101245MD1390139+9999REMMET11001/04/23 06:56:02 METAR KWWD 041156Z 24010KT 10SM CLR 16/14 A2992 RMK AO2 SLP134 T01610139 10167 20150 53013 $
0176745966037262023010412567+39008-074908FM-15+0007KWWD V0202205N003652200059N0160935N5+01565+01335101385ADDGA1005+999999999GD10991+9999999GF100991999999999999999999MA1101355101275REMMET09201/04/23 07:56:02 METAR KWWD 041256Z 22007KT 10SM CLR 16/13 A2993 RMK AO2 SLP138 T01560133 $
0176745966037262023010413567+39008-074908FM-15+0007KWWD V0201705N002652200059N0160935N5+01335+01225101405ADDGA1005+999999999GD10991+9999999GF100991999999999999999999MA1101395101305REMMET09201/04/23 08:56:02 METAR KWWD 041356Z 17005KT 10SM CLR 13/12 A2994 RMK AO2 SLP140 T01330122 $
0196745966037262023010414567+39008-074908FM-15+0007KWWD V0201805N002152200059N0160935N5+01615+01335101435ADDGA1005+999999999GD10991+9999999GF100991999999999999999999MA1101425101345MD1190099+9999REMMET09801/04/23 09:56:02 METAR KWWD 041456Z 18004KT 10SM CLR 16/13 A2995 RMK AO2 SLP143 T01610133 51009 $
0176745966037262023010415567+39008-074908FM-15+0007KWWD V0201705N002652200059N0160935N5+01835+01395101405ADDGA1005+999999999GD10991+9999999GF100991999999999999999999MA1101395101305REMMET09201/04/23 10:56:02 METAR KWWD 041556Z 17005KT 10SM CLR 18/14 A2994 RMK AO2 SLP140 T01830139 $
0176745966037262023010416567+39008-074908FM-15+0007KWWD V0201905N003652200059N0160935N5+01895+01505101295ADDGA1005+999999999GD10991+9999999GF100991999999999999999999MA1101255101175REMMET09201/04/23 11:56:02 METAR KWWD 041656Z 19007KT 10SM CLR 19/15 A2990 RMK AO2 SLP129 T01890150 $
0278745966037262023010417567+39008-074908FM-15+0007KWWD V0201705N002152200059N0160935N5+01835+01445101215ADDGA1025+007015999GD11991+0070159GE19AGL   +99999+99999GF102995999999007011999999KA1060M+01941KA2060N+01281MA1101195101105MD1890229+9999REMMET11301/04/23 12:56:02 METAR KWWD 041756Z 17004KT 10SM FEW023 18/14 A2988 RMK AO2 SLP121 T01830144 10194 20128 58022 $EQDD01      0ADE726
0184745966037262023010418107+39008-074908FM-15+0007KWWD V0202105N00315007015MN0160935N5+01805+01505999999ADDGA1075+007015999GD13991+0070159GE19AGL   +99999+99999GF199999999999007011999999MA1101195101105REMMET07801/04/23 13:10:02 METAR KWWD 041810Z 21006KT 10SM BKN023 18/15 A2988 RMK AO2 $
0203745966037262023010418357+39008-074908FM-15+0007KWWD V0202405N004152200059N0160935N5+01805+01505999999ADDGA1045+007015999GD12991+0070159GE19AGL   +99999+99999GF104995999999007011999999MA1101195101105REMMET07801/04/23 13:35:02 METAR KWWD 041835Z 24008KT 10SM SCT023 18/15 A2988 RMK AO2 $EQDD01      0ADE726
0220745966037262023010418567+39008-074908FM-15+0007KWWD V0202205N003152200059N0160935N5+01835+01505101165ADDGA1025+007925999GD11991+0079259GE19AGL   +99999+99999GF102995999999007921999999MA1101155101075REMMET09501/04/23 13:56:02 METAR KWWD 041856Z 22006KT 10SM FEW026 18/15 A2987 RMK AO2 SLP116 T01830150 $EQDD01      0ADE726
0184745966037262023010419137+39008-074908FM-15+0007KWWD V0201305N00215007325MN0160935N5+01705+01305999999ADDGA1075+007325999GD13991+0073259GE19AGL   +99999+99999GF199999999999007321999999MA1101155101075REMMET07801/04/23 14:13:02 METAR KWWD 041913Z 13004KT 10SM BKN024 17/13 A2987 RMK AO2 $
0203745966037262023010419447+39008-074908FM-15+0007KWWD V0201605N003152200059N0160935N5+01405+01205999999ADDGA1045+007325999GD12991+0073259GE19AGL   +99999+99999GF104995999999007321999999MA1101155101075REMMET07801/04/23 14:44:02 METAR KWWD 041944Z 16006KT 10SM SCT024 14/12 A2987 RMK AO2 $EQDD01      0ADE726
0176745966037262023010419567+39008-074908FM-15+0007KWWD V0201505N002152200059N0160935N5+01395+01225101155ADDGA1005+999999999GD10991+9999999GF100991999999999999999999MA1101125101035REMMET09201/04/23 14:56:02 METAR KWWD 041956Z 15004KT 10SM CLR 14/12 A2986 RMK AO2 SLP115 T01390122 $
0297745966037262023010420567+39008-074908FM-15+0007KWWD V0201605N00315030485MN0160935N5+01395+01225101095ADDGA1025+015245999GA2045+018295999GA3075+030485999GD11991+0152459GD22991+0182959GD33991+0304859GE19AGL   +99999+99999GF199999999999015241999999MA1101085101005MD1890129+9999REMMET11501/04/23 15:56:02 METAR KWWD 042056Z 16006KT 10SM FEW050 SCT060 BKN100 14/12 A2985 RMK AO2 SLP109 T01390122 58012 $
0251745966037262023010421567+39008-074908FM-15+0007KWWD V0201705N00465030485MN0160935N5+01395+01335101055ADDAA101000021AU110020015AW1615GA1085+030485999GD14991+0304859GE19AGL   +99999+99999GF199999999999030481999999MA1101055100975MW1615REMMET11101/04/23 16:56:02 METAR KWWD 042156Z 17009KT 10SM -RA OVC100 14/13 A2984 RMK AO2 RAB21 SLP105 P0000 T01390133 $
0304745966037262023010422447+39008-074908FM-15+0007KWWD V0201905N00515008535MN0160935N5+01505+01405999999ADDAA101000021AU110020015AW1615GA1025+001225999GA2075+008535999GA3085+033535999GD11991+0012259GD23991+0085359GD34991+0335359GE19AGL   +99999+99999GF199999999999001221999999MA1101055100975MW1615REMMET10201/04/23 17:44:02 METAR KWWD 042244Z 19010KT 10SM -RA FEW004 BKN028 OVC110 15/14 A2984 RMK AO2 P0000 $
0330745966037262023010422567+39008-074908FM-15+0007KWWD V0202005N00465001225MN0096565N5+01445+01445101065ADDAA101000021AU100001015AW1105GA1075+001225999GA2075+008535999GA3085+022865999GD13991+0012259GD23991+0085359GD34991+0228659GE19AGL   +99999+99999GF199999999999001221999999MA1101055100975OC100825REMMET12601/04/23 17:56:02 METAR KWWD 042256Z 20009G16KT 6SM BR BKN004 BKN028 OVC075 14/14 A2984 RMK AO2 RAE50 SLP106 P0000 T01440144 $
0268745966037262023010423027+39008-074908FM-15+0007KWWD V0201905N00625001225MN0028165N5+01405+01405999999ADDAU100001015AW1105GA1075+001225999GA2085+007925999GD13991+0012251GD24991+0079259GE19AGL   +99999+99999GF199999999999001221999999MA1101025100935OC101035REMMET10601/04/23 18:02:02 METAR KWWD 042302Z 19012G20KT 1 3/4SM BR BKN004 OVC026 14/14 A2983 RMK AO2 CIG 001V004 $
0215745966037262023010423127+39008-074908FM-15+0007KWWD V0202005N00575000615MN0016095N5+01405+01405999999ADDAU100001015AW1105GA1085+000615999GD14991+0006151GE19AGL   +99999+99999GF199999999999000611999999MA1101025100935REMMET09201/04/23 18:12:02 METAR KWWD 042312Z 20011KT 1SM BR OVC002 14/14 A2983 RMK AO2 CIG 001V004 $
0207745966037262023010423217+39008-074908FM-15+0007KWWD V0202105N00415000615MN0024145N5+01405+01405999999ADDAU100001015AW1105GA1085+000615999GD14991+0006159GE19AGL   +99999+99999GF199999999999000611999999MA1101025100935REMMET08401/04/23 18:21:02 METAR KWWD 042321Z 21008KT 1 1/2SM BR OVC002 14/14 A2983 RMK AO2 $
0253745966037262023010423357+39008-074908FM-15+0007KWWD V0202105N00265000615MN0048285N5+01405+01405999999ADDAA101000021AU110020015AU200001015AW1105AW2615GA1085+000615999GD14991+0006159GE19AGL   +99999+99999GF199999999999000611999999MA1101025100935MW1615REMMET09601/04/23 18:35:02 METAR KWWD 042335Z 21005KT 3SM -RA BR OVC002 14/14 A2983 RMK AO2 RAB29 P0000 $
0290745966037262023010423537+39008-074908FM-15+0007KWWD V0202205N00265004275MN0080475N5+01405+01405999999ADDAA101000595AU120020015AU200001015AW1105AW2625GA1045+000615999GA2085+004275999GD12991+0006159GD24991+0042759GE19AGL   +99999+99999GF199999999999000611999999MA1101025100935MW1655REMMET10201/04/23 18:53:02 METAR KWWD 042353Z 22005KT 5SM RA BR SCT002 OVC014 14/14 A2983 RMK AO2 RAB29 P0002 $
0439745966037262023010423567+39008-074908FM-15+0007KWWD V0202105N00155003665MN0064375N5+01395+01395101015ADDAA101001595AA206001591AU120020015AU200001015AW1105AW2625GA1025+000615999GA2075+003665999GA3085+008235999GD11991+0006159GD23991+0036659GD34991+0082359GE19AGL   +99999+99999GF199999999999000611999999KA1060M+01831KA2060N+01331MA1100985100905MD1890049+9999MW1655REMMET15001/04/23 18:56:02 METAR KWWD 042356Z 21003KT 4SM RA BR FEW002 BKN012 OVC027 14/14 A2982 RMK AO2 RAB29 SLP101 P0006 60006 T01390139 10183 20133 58004 $EQDQ01  00158PRCP06
0335745966037262023010500037+39008-074908FM-15+0007KWWD V0209999C00005005185MN0040235V5+01405+01405999999ADDAA101001395AU110020015AU200001015AW1105AW2615GA1045+003355999GA2075+005185999GA3085+018295999GD12991+0033559GD23991+0051859GD34991+0182959GE19AGL   +99999+99999GF199999999999003351999999MA1100985100905MW1615REMMET11601/04/23 19:03:01 METAR KWWD 050003Z 00000KT 2 1/2SM -RA BR SCT011 BKN017 OVC060 14/14 A2982 RMK AO2 VIS 1V5 P0005 $
0335745966037262023010500067+39008-074908FM-15+0007KWWD V0209999C00005004275MN0048285N5+01405+01405999999ADDAA101001395AU110020015AU200001015AW1105AW2615GA1075+004275999GA2075+010065999GA3085+021345999GD13991+0042751GD23991+0100659GD34991+0213459GE19AGL   +99999+99999GF199999999999004271999999MA1100985100905MW1615REMMET11601/04/23 19:06:01 METAR KWWD 050006Z 00000KT 3SM -RA BR BKN014 BKN033 OVC070 14/14 A2982 RMK AO2 CIG 011V021 P0005 $
0323745966037262023010500147+39008-074908FM-15+0007KWWD V0209999C00005019815MN0080475N5+01405+01405999999ADDAA101001395AU110020015AU200001015AW1105AW2615GA1025+004885999GA2045+010675999GA3085+019815999GD11991+0048859GD22991+0106759GD34991+0198159GE19AGL   +99999+99999GF199999999999004881999999MA1100985100905MW1615REMMET10401/04/23 19:14:01 METAR KWWD 050014Z 00000KT 5SM -RA BR FEW016 SCT035 OVC065 14/14 A2982 RMK AO2 P0005 $
0266745966037262023010500567+39008-074908FM-15+0007KWWD V0201505N002152200059N0040235N5+01285+01285100955ADDAA101001395AU100001015AW1105GA1025+022865999GD11991+0228659GE19AGL   +99999+99999GF102995999999022861999999MA1100915100835REMMET11301/04/23 19:56:01 METAR KWWD 050056Z 15004KT 2 1/2SM BR FEW075 13/13 A2980 RMK AO2 RAE23 SLP095 P0005 T01280128 $EQDD01      0ADE726
0226745966037262023010501007+39008-074908FM-15+0007KWWD V0209999C000052200059N0028165N5+01305+01305999999ADDAU100001015AW1105GA1025+000305999GD11991+0003059GE19AGL   +99999+99999GF102995999999000301999999MA1100955100865REMMET08401/04/23 20:00:01 METAR KWWD 050100Z 00000KT 1 3/4SM BR FEW001 13/13 A2981 RMK AO2 $EQDD01      0ADE726
0205745966037262023010501087+39008-074908FM-15+0007KWWD V0209999C00005000305MN0012075N5+01305+01305999999ADDAU100001015AW1105GA1075+000305999GD13991+0003059GE19AGL   +99999+99999GF199999999999000301999999MA1100955100865REMMET08201/04/23 20:08:01 METAR KWWD 050108Z 00000KT 3/4SM BR BKN001 13/13 A2981 RMK AO2 $
0222745966037262023010501167+39008-074908FM-15+0007KWWD V0201505N00155000305MN0004025N5+01305+01305999999ADDAA101000395AU100002015AW1305GA1075+000305999GD13991+0003059GE19AGL   +99999+99999GF199999999999000301999999MA1100985100905REMMET08801/04/23 20:16:01 METAR KWWD 050116Z 15003KT 1/4SM FG BKN001 13/13 A2982 RMK AO2 P0001 $
0277745966037262023010501567+39008-074908FM-15+0007KWWD V0201605N00265000305MN0004025N5+01285+01285101005ADDAA101000395AU100002015AW1305GA1075+000305999GA2085+003055999GD13991+0003059GD24991+0030559GE19AGL   +99999+99999GF199999999999000301999999MA1100985100905REMMET11201/04/23 20:56:01 METAR KWWD 050156Z 16005KT 1/4SM FG BKN001 OVC010 13/13 A2982 RMK AO2 SLP100 P0001 T01280128 $
0255745966037262023010502197+39008-074908FM-15+0007KWWD V0201805N00155002445MN0004025N5+01305+01305999999ADDAU100002015AW1305GA1045+000305999GA2085+002445999GD12991+0003051GD24991+0024459GE19AGL   +99999+99999GF199999999999000301999999MA1100985100905REMMET10101/04/23 21:19:01 METAR KWWD 050219Z 18003KT 1/4SM FG SCT001 OVC008 13/13 A2982 RMK AO2 CIG 006V011 $
0243745966037262023010502237+39008-074908FM-15+0007KWWD V0209999C00005000305MN0008055N5+01305+01305999999ADDAU100002015AW1305GA1075+000305999GA2085+002445999GD13991+0003059GD24991+0024459GE19AGL   +99999+99999GF199999999999000301999999MA1100985100905REMMET08901/04/23 21:23:01 METAR KWWD 050223Z 00000KT 1/2SM FG BKN001 OVC008 13/13 A2982 RMK AO2 $
0243745966037262023010502407+39008-074908FM-15+0007KWWD V0202005N00315000305MN0004025N5+01405+01405999999ADDAU100002015AW1305GA1075+000305999GA2085+002445999GD13991+0003059GD24991+0024459GE19AGL   +99999+99999GF199999999999000301999999MA1100985100905REMMET08901/04/23 21:40:01 METAR KWWD 050240Z 20006KT 1/4SM FG BKN001 OVC008 14/14 A2982 RMK AO2 $
0279745966037262023010502567+39008-074908FM-15+0007KWWD V0202105N00315000305MN0000005N5+01395+01395101035ADDAA103001591AU100002015AW1305GA1085+000305999GD14991+0003059GE19AGL   +99999+99999GF199999999999000301999999MA1101025100935MD1390029+9999REMMET11201/04/23 21:56:01 METAR KWWD 050256Z 21006KT M1/4SM FG OVC001 14/14 A2983 RMK AO2 SLP103 60006 T01390139 53002 $EQDQ01  00158PRCP03
0205745966037262023010503137+39008-074908FM-15+0007KWWD V0202105N00415000305MN0012075N5+01405+01405999999ADDAU100001015AW1105GA1075+000305999GD13991+0003059GE19AGL   +99999+99999GF199999999999000301999999MA1101025100935REMMET08201/04/23 22:13:01 METAR KWWD 050313Z 21008KT 3/4SM BR BKN001 14/14 A2983 RMK AO2 $
0207745966037262023010503167+39008-074908FM-15+0007KWWD V0202105N00465000305MN0024145N5+01405+01405999999ADDAU100001015AW1105GA1075+000305999GD13991+0003059GE19AGL   +99999+99999GF199999999999000301999999MA1101025100935REMMET08401/04/23 22:16:01 METAR KWWD 050316Z 21009KT 1 1/2SM BR BKN001 14/14 A2983 RMK AO2 $
0203745966037262023010503187+39008-074908FM-15+0007KWWD V0202105N00415000305MN0048285N5+01405+01405999999ADDAU100001015AW1105GA1075+000305999GD13991+0003059GE19AGL   +99999+99999GF199999999999000301999999MA1101025100935REMMET08001/04/23 22:18:01 METAR KWWD 050318Z 21008KT 3SM BR BKN001 14/14 A2983 RMK AO2 $
0222745966037262023010503287+39008-074908FM-15+0007KWWD V0202105N00515007015MN0160935N5+01405+01405999999ADDGA1045+000305999GA2075+007015999GD12991+0003059GD23991+0070159GE19AGL   +99999+99999GF199999999999000301999999MA1101025100935REMMET08501/04/23 22:28:01 METAR KWWD 050328Z 21010KT 10SM SCT001 BKN023 14/14 A2983 RMK AO2 $
0239745966037262023010503567+39008-074908FM-15+0007KWWD V0202105N00465006715MN0160935N5+01445+01445101035ADDGA1075+006715999GA2085+008535999GD13991+0067159GD24991+0085359GE19AGL   +99999+99999GF199999999999006711999999MA1101025100935REMMET10201/04/23 22:56:02 METAR KWWD 050356Z 21009KT 10SM BKN022 OVC028 14/14 A2983 RMK AO2 SLP103 T01440144 $
0256745966037262023010504567+39008-074908FM-15+0007KWWD V0202305N004652200059N0160935N5+01445+01445101105ADDGA1045+006105999GD12991+0061059GE19AGL   +99999+99999GF104995999999006101999999KA1240M+01941KA2240N+01281MA1101085101005REMMET10501/04/23 23:56:02 METAR KWWD 050456Z 23009KT 10SM SCT020 14/14 A2985 RMK AO2 SLP110 T01440144 401940128 $EQDD01      0ADE726
003974596603726202301050459O+39008-074908SOD  +0007KWWD V020999999999999999999999999999+99999+99999999999ADDAT1AU16RA  5AT2AU01FG  5AT3AU13BR  5
0295745966037262023010505567+39008-074908FM-15+0007KWWD V0202605N00365006405MN0160935N5+01395+01335101155ADDAA106001591GA1075+006405999GD13991+0064059GE19AGL   +99999+99999GF199999999999006401999999KA1060M+01561KA2060N+01281MA1101125101035MD1390129+9999REMMET11901/05/23 00:56:02 METAR KWWD 050556Z 26007KT 10SM BKN021 14/13 A2986 RMK AO2 SLP115 60006 T01390133 10156 20128 53012 $EQDQ01  00158PRCP06
0201745966037262023010506567+39008-074908FM-15+0007KWWD V0202505N00465005185MN0160935N5+01505+01445101255ADDGA1085+005185999GD14991+0051859GE19AGL   +99999+99999GF199999999999005181999999MA1101225101145REMMET09501/05/23 01:56:02 METAR KWWD 050656Z 25009KT 10SM OVC017 15/14 A2989 RMK AO2 SLP125 T01500144 $
0222745966037262023010507277+39008-074908FM-15+0007KWWD V0202305N00465014635MN0160935N5+01405+01405999999ADDGA1045+005185999GA2075+014635999GD12991+0051859GD23991+0146359GE19AGL   +99999+99999GF199999999999005181999999MA1101225101145REMMET08501/05/23 02:27:02 METAR KWWD 050727Z 23009KT 10SM SCT017 BKN048 14/14 A2989 RMK AO2 $
0201745966037262023010507567+39008-074908FM-15+0007KWWD V0202305N00515014635MN0160935N5+01505+01445101285ADDGA1085+014635999GD14991+0146359GE19AGL   +99999+99999GF199999999999014631999999MA1101255101175REMMET09501/05/23 02:56:02 METAR KWWD 050756Z 23010KT 10SM OVC048 15/14 A2990 RMK AO2 SLP128 T01500144 $
0221745966037262023010508567+39008-074908FM-15+0007KWWD V0202405N00415016765MN0160935N5+01505+01445101325ADDGA1085+016765999GD14991+0167659GE19AGL   +99999+99999GF199999999999016761999999MA1101295101205MD1190179+9999REMMET10101/05/23 03:56:02 METAR KWWD 050856Z 24008KT 10SM OVC055 15/14 A2991 RMK AO2 SLP132 T01500144 51017 $
0201745966037262023010509567+39008-074908FM-15+0007KWWD V0202505N00315018295MN0160935N5+01505+01445101365ADDGA1085+018295999GD14991+0182959GE19AGL   +99999+99999GF199999999999018291999999MA1101355101275REMMET09501/05/23 04:56:02 METAR KWWD 050956Z 25006KT 10SM OVC060 15/14 A2993 RMK AO2 SLP136 T01500144 $
0220745966037262023010510567+39008-074908FM-15+0007KWWD V0202405N002652200059N0160935N5+01395+01395101385ADDGA1045+019815999GD12991+0198159GE19AGL   +99999+99999GF104995999999019811999999MA1101355101275REMMET09501/05/23 05:56:02 METAR KWWD 051056Z 24005KT 10SM SCT065 14/14 A2993 RMK AO2 SLP138 T01390139 $EQDD01      0ADE726
0217745966037262023010511457+39008-074908FM-15+0007KWWD V0209999C00005019815MN0028165V5+01305+01305999999ADDAU100001015AW1105GA1075+019815999GD13991+0198159GE19AGL   +99999+99999GF199999999999019811999999MA1101395101305REMMET09401/05/23 06:45:02 METAR KWWD 051145Z 00000KT 1 3/4SM BR BKN065 13/13 A2994 RMK AO2 VIS 3/4V5 $
0222745966037262023010511497+39008-074908FM-15+0007KWWD V0209999C000052200059N0048285N5+01305+01305999999ADDAU100001015AW1105GA1045+019815999GD12991+0198159GE19AGL   +99999+99999GF104995999999019811999999MA1101395101305REMMET08001/05/23 06:49:02 METAR KWWD 051149Z 00000KT 3SM BR SCT065 13/13 A2994 RMK AO2 $EQDD01      0ADE726
0344745966037262023010511567+39008-074908FM-15+0007KWWD V0209999C000052200059N0024145V5+01335+01335101405ADDAA124003091AU100001015AW1105GA1025+019815999GD11991+0198159GE19AGL   +99999+99999GF102995999999019811999999KA1060M+01501KA2060N+01331MA1101395101305MD1190089+9999REMMET13501/05/23 06:56:02 METAR KWWD 051156Z 00000KT 1 1/2SM BR FEW065 13/13 A2994 RMK AO2 VIS 1/2V5 SLP140 70012 T01330133 10150 20133 51008 $EQDQ01  00308PRCP24D01      0ADE726
0224745966037262023010512017+39008-074908FM-15+0007KWWD V0209999C000052200059N0008055N5+01305+01305999999ADDAU100002015AW1305GA1025+019815999GD11991+0198159GE19AGL   +99999+99999GF102995999999019811999999MA1101395101305REMMET08201/05/23 07:01:02 METAR KWWD 051201Z 00000KT 1/2SM FG FEW065 13/13 A2994 RMK AO2 $EQDD01      0ADE726
0224745966037262023010512037+39008-074908FM-15+0007KWWD V0209999C000052200059N0004025N5+01205+01205999999ADDAU100002015AW1305GA1025+000305999GD11991+0003059GE19AGL   +99999+99999GF102995999999000301999999MA1101395101305REMMET08201/05/23 07:03:02 METAR KWWD 051203Z 00000KT 1/4SM FG FEW001 12/12 A2994 RMK AO2 $EQDD01      0ADE726
0205745966037262023010512147+39008-074908FM-15+0007KWWD V0209999C00005000305MN0004025N5+01205+01205999999ADDAU100002015AW1305GA1075+000305999GD13991+0003059GE19AGL   +99999+99999GF199999999999000301999999MA1101425101345REMMET08201/05/23 07:14:02 METAR KWWD 051214Z 00000KT 1/4SM FG BKN001 12/12 A2995 RMK AO2 $
0260745966037262023010512567+39008-074908FM-15+0007KWWD V0202805N00265000305MN0004025N5+01225+01225101485ADDAU100002015AW1305GA1075+000305999GA2085+019815999GD13991+0003059GD24991+0198159GE19AGL   +99999+99999GF199999999999000301999999MA1101465101375REMMET10601/05/23 07:56:02 METAR KWWD 051256Z 28005KT 1/4SM FG BKN001 OVC065 12/12 A2996 RMK AO2 SLP148 T01220122 $
0243745966037262023010513057+39008-074908FM-15+0007KWWD V0203005N00215019815MN0004025N5+01205+01205999999ADDAU100002015AW1305GA1025+000305999GA2085+019815999GD11991+0003059GD24991+0198159GE19AGL   +99999+99999GF199999999999000301999999MA1101495101415REMMET08901/05/23 08:05:02 METAR KWWD 051305Z 30004KT 1/4SM FG FEW001 OVC065 12/12 A2997 RMK AO2 $
0243745966037262023010513247+39008-074908FM-15+0007KWWD V0209999C00005000305MN0004025N5+01205+01205999999ADDAU100002015AW1305GA1075+000305999GA2085+021345999GD13991+0003059GD24991+0213459GE19AGL   +99999+99999GF199999999999000301999999MA1101495101415REMMET08901/05/23 08:24:02 METAR KWWD 051324Z 00000KT 1/4SM FG BKN001 OVC070 12/12 A2997 RMK AO2 $
0222745966037262023010513567+39008-074908FM-15+0007KWWD V0203405N00155000305MN0004025N5+01175+01175101555ADDAU100002015AW1305GA1085+000305999GD14991+0003059GE19AGL   +99999+99999GF199999999999000301999999MA1101525101445REMMET09901/05/23 08:56:02 METAR KWWD 051356Z 34003KT 1/4SM FG OVC001 12/12 A2998 RMK AO2 SLP155 T01170117 $
0243745966037262023010514237+39008-074908FM-15+0007KWWD V0209999C00005000305MN0012075N5+01205+01205999999ADDAU100001015AW1105GA1075+000305999GA2085+022865999GD13991+0003059GD24991+0228659GE19AGL   +99999+99999GF199999999999000301999999MA1101565101475REMMET08901/05/23 09:23:02 METAR KWWD 051423Z 00000KT 3/4SM BR BKN001 OVC075 12/12 A2999 RMK AO2 $
0245745966037262023010514277+39008-074908FM-15+0007KWWD V0209999C00005000305MN0020125N5+01205+01205999999ADDAU100001015AW1105GA1075+000305999GA2085+022865999GD13991+0003059GD24991+0228659GE19AGL   +99999+99999GF199999999999000301999999MA1101565101475REMMET09101/05/23 09:27:02 METAR KWWD 051427Z 00000KT 1 1/4SM BR BKN001 OVC075 12/12 A2999 RMK AO2 $
0203745966037262023010514497+39008-074908FM-15+0007KWWD V0209999C00005000305MN0048285N5+01305+01305999999ADDAU100001015AW1105GA1075+000305999GD13991+0003059GE19AGL   +99999+99999GF199999999999000301999999MA1101565101475REMMET08001/05/23 09:49:02 METAR KWWD 051449Z 00000KT 3SM BR BKN001 13/13 A2999 RMK AO2 $
0278745966037262023010514567+39008-074908FM-15+0007KWWD V0209999C000052200059N0160935N5+01335+01335101595ADDGA1045+000305999GA2045+021345999GD12991+0003059GD22991+0213459GE19AGL   +99999+99999GF104995999999000301999999MA1101595101515MD1190199+9999REMMET10801/05/23 09:56:02 METAR KWWD 051456Z 00000KT 10SM SCT001 SCT070 13/13 A3000 RMK AO2 SLP159 T01330133 51019 $EQDD01      0ADE726
0201745966037262023010515567+39008-074908FM-15+0007KWWD V0200205N00415019815MN0160935N5+01615+00895101525ADDGA1075+019815999GD13991+0198159GE19AGL   +99999+99999GF199999999999019811999999MA1101495101415REMMET09501/05/23 10:56:02 METAR KWWD 051556Z 02008KT 10SM BKN065 16/09 A2997 RMK AO2 SLP152 T01610089 $
0239745966037262023010516567+39008-074908FM-15+0007KWWD V0200105N00365021345MN0160935N5+01675+00785101465ADDGA1075+021345999GA2085+025915999GD13991+0213459GD24991+0259159GE19AGL   +99999+99999GF199999999999021341999999MA1101465101375REMMET10201/05/23 11:56:02 METAR KWWD 051656Z 01007KT 10SM BKN070 OVC085 17/08 A2996 RMK AO2 SLP146 T01670078 $
0297745966037262023010517567+39008-074908FM-15+0007KWWD V0200405N00365014025MN0160935N5+01725+00785101405ADDGA1075+014025999GA2085+016765999GD13991+0140259GD24991+0167659GE19AGL   +99999+99999GF199999999999014021999999KA1060M+01721KA2060N+01111MA1101395101305MD1690199+9999REMMET12001/05/23 12:56:02 METAR KWWD 051756Z 04007KT 10SM BKN046 OVC055 17/08 A2994 RMK AO2 SLP140 T01720078 10172 20111 56019 $
0239745966037262023010518567+39008-074908FM-15+0007KWWD V0200105N00265019815MN0160935N5+01675+00725101335ADDGA1045+012805999GA2085+019815999GD12991+0128059GD24991+0198159GE19AGL   +99999+99999GF199999999999012801999999MA1101325101245REMMET10201/05/23 13:56:02 METAR KWWD 051856Z 01005KT 10SM SCT042 OVC065 17/07 A2992 RMK AO2 SLP133 T01670072 $
0277745966037262023010519567+39008-074908FM-15+0007KWWD V0200705N00415022865MN0160935N5+01335+00945101275ADDGA1045+012805999GA2075+022865999GA3085+030485999GD12991+0128059GD23991+0228659GD34991+0304859GE19AGL   +99999+99999GF199999999999012801999999MA1101255101175REMMET10901/05/23 14:56:02 METAR KWWD 051956Z 07008KT 10SM SCT042 BKN075 OVC100 13/09 A2990 RMK AO2 SLP127 T01330094 $
0250745966037262023010520537+39008-074908FM-15+0007KWWD V0200705N00515018295MN0160935N5+01005+00905999999ADDAA101000021GA1045+001225999GA2085+018295999GD12991+0012259GD24991+0182959GE19AGL   +99999+99999GF199999999999001221999999MA1101355101275REMMET10201/05/23 15:53:02 METAR KWWD 052053Z 07010KT 10SM SCT004 OVC060 10/09 A2993 RMK AO2 RAB1959E30 P0000 $
0339745966037262023010520567+39008-074908FM-15+0007KWWD V0200705N00465018295MN0160935N5+00945+00945101395ADDAA101000021AA203000021GA1045+001225999GA2085+018295999GD12991+0012259GD24991+0182959GE19AGL   +99999+99999GF199999999999001221999999MA1101355101275MD1390069+9999REMMET13101/05/23 15:56:02 METAR KWWD 052056Z 07009KT 10SM SCT004 OVC060 09/09 A2993 RMK AO2 RAB1959E30 SLP139 P0000 60000 T00940094 53006 $EQDQ01  00002PRCP03Q02  00008PRCP03
0222745966037262023010521047+39008-074908FM-15+0007KWWD V0200705N00465001225MN0160935N5+00905+00905999999ADDGA1075+001225999GA2085+016765999GD13991+0012259GD24991+0167659GE19AGL   +99999+99999GF199999999999001221999999MA1101395101305REMMET08501/05/23 16:04:02 METAR KWWD 052104Z 07009KT 10SM BKN004 OVC055 09/09 A2994 RMK AO2 $
0218745966037262023010521567+39008-074908FM-15+0007KWWD V0200805N00515001225MN0160935N5+00895+00835101405ADDAA101000395GA1085+001225999GD14991+0012259GE19AGL   +99999+99999GF199999999999001221999999MA1101395101305REMMET10101/05/23 16:56:02 METAR KWWD 052156Z 08010KT 10SM OVC004 09/08 A2994 RMK AO2 SLP140 P0001 T00890083 $
0219745966037262023010522507+39008-074908FM-15+0007KWWD V0200805N00415000615MN0040235V5+00805+00805999999ADDAU100001015AW1105GA1085+000615999GD14991+0006159GE19AGL   +99999+99999GF199999999999000611999999MA1101395101305REMMET09601/05/23 17:50:02 METAR KWWD 052250Z 08008KT 2 1/2SM BR OVC002 08/08 A2994 RMK AO2 VIS 1 1/4V5 $
0228745966037262023010522517+39008-074908FM-15+0007KWWD V0200705N00365000615MN0032195V5+00835+00835101405ADDAU100001015AW1105GA1085+000615999GD14991+0006159GE19AGL   +99999+99999GF199999999999000611999999MA1101395101305REMMET10501/05/23 17:51:02 METAR KWWD 052251Z 07007KT 2SM BR OVC002 08/08 A2994 RMK AO2 VIS 1V5 SLP140 T00830083 $
0215745966037262023010523007+39008-074908FM-15+0007KWWD V0200805N00415000615MN0024145V5+00805+00805999999ADDAU100001015AW1105GA1085+000615999GD14991+0006159GE19AGL   +99999+99999GF199999999999000611999999MA1101395101305REMMET09201/05/23 18:00:02 METAR KWWD 052300Z 08008KT 1 1/2SM BR OVC002 08/08 A2994 RMK AO2 VIS 1V3 $
0205745966037262023010523157+39008-074908FM-15+0007KWWD V0200805N00415000615MN0012075N5+00805+00805999999ADDAU100001015AW1105GA1085+000615999GD14991+0006159GE19AGL   +99999+99999GF199999999999000611999999MA1101395101305REMMET08201/05/23 18:15:02 METAR KWWD 052315Z 08008KT 3/4SM BR OVC002 08/08 A2994 RMK AO2 $
0205745966037262023010523327+39008-074908FM-15+0007KWWD V0200805N00365000615MN0004025N5+00805+00805999999ADDAU100002015AW1305GA1085+000615999GD14991+0006159GE19AGL   +99999+99999GF199999999999000611999999MA1101395101305REMMET08201/05/23 18:32:02 METAR KWWD 052332Z 08007KT 1/4SM FG OVC002 08/08 A2994 RMK AO2 $
0316745966037262023010523567+39008-074908FM-15+0007KWWD V0200705N00315000615MN0004025N5+00835+00835101425ADDAA106000391AU100002015AW1305GA1085+000615999GD14991+0006159GE19AGL   +99999+99999GF199999999999000611999999KA1060M+01721KA2060N+00831MA1101395101305MD1390039+9999REMMET12301/05/23 18:56:02 METAR KWWD 052356Z 07006KT 1/4SM FG OVC002 08/08 A2994 RMK AO2 SLP142 60001 T00830083 10172 20083 53003 $EQDQ01  00028PRCP06
0205745966037262023010600517+39008-074908FM-15+0007KWWD V0201005N00315000615MN0008055N5+00805+00805999999ADDAU100002015AW1305GA1085+000615999GD14991+0006159GE19AGL   +99999+99999GF199999999999000611999999MA1101425101345REMMET08201/05/23 19:51:01 METAR KWWD 060051Z 10006KT 1/2SM FG OVC002 08/08 A2995 RMK AO2 $
0222745966037262023010600567+39008-074908FM-15+0007KWWD V0200905N00465000615MN0008055N5+00835+00835101425ADDAU100002015AW1305GA1085+000615999GD14991+0006159GE19AGL   +99999+99999GF199999999999000611999999MA1101425101345REMMET09901/05/23 19:56:01 METAR KWWD 060056Z 09009KT 1/2SM FG OVC002 08/08 A2995 RMK AO2 SLP142 T00830083 $
0222745966037262023010601567+39008-074908FM-15+0007KWWD V0209999V00155000615MN0008055N5+00835+00835101485ADDAU100002015AW1305GA1085+000615999GD14991+0006159GE19AGL   +99999+99999GF199999999999000611999999MA1101465101375REMMET09901/05/23 20:56:01 METAR KWWD 060156Z VRB03KT 1/2SM FG OVC002 08/08 A2996 RMK AO2 SLP148 T00830083 $
0205745966037262023010602157+39008-074908FM-15+0007KWWD V0201005N00315000615MN0012075N5+00805+00805999999ADDAU100001015AW1105GA1085+000615999GD14991+0006159GE19AGL   +99999+99999GF199999999999000611999999MA1101495101415REMMET08201/05/23 21:15:01 METAR KWWD 060215Z 10006KT 3/4SM BR OVC002 08/08 A2997 RMK AO2 $
0207745966037262023010602387+39008-074908FM-15+0007KWWD V0201005N00315000615MN0020125N5+00805+00805999999ADDAU100001015AW1105GA1085+000615999GD14991+0006159GE19AGL   +99999+99999GF199999999999000611999999MA1101495101415REMMET08401/05/23 21:38:01 METAR KWWD 060238Z 10006KT 1 1/4SM BR OVC002 08/08 A2997 RMK AO2 $
0244745966037262023010602567+39008-074908FM-15+0007KWWD V0201005N00315000615MN0020125N5+00835+00835101465ADDAU100001015AW1105GA1085+000615999GD14991+0006159GE19AGL   +99999+99999GF199999999999000611999999MA1101465101375MD1090049+9999REMMET10701/05/23 21:56:01 METAR KWWD 060256Z 10006KT 1 1/4SM BR OVC002 08/08 A2996 RMK AO2 SLP146 T00830083 50004 $
0203745966037262023010603267+39008-074908FM-15+0007KWWD V0200805N00415000615MN0016095N5+00805+00805999999ADDAU100001015AW1105GA1085+000615999GD14991+0006159GE19AGL   +99999+99999GF199999999999000611999999MA1101465101375REMMET08001/05/23 22:26:01 METAR KWWD 060326Z 08008KT 1SM BR OVC002 08/08 A2996 RMK AO2 $
0207745966037262023010603387+39008-074908FM-15+0007KWWD V0200605N00365000615MN0020125N5+00805+00805999999ADDAU100001015AW1105GA1085+000615999GD14991+0006159GE19AGL   +99999+99999GF199999999999000611999999MA1101465101375REMMET08401/05/23 22:38:01 METAR KWWD 060338Z 06007KT 1 1/4SM BR OVC002 08/08 A2996 RMK AO2 $
0215745966037262023010603527+39008-074908FM-15+0007KWWD V0200705N00365000615MN0032195V5+00805+00805999999ADDAU100001015AW1105GA1085+000615999GD14991+0006159GE19AGL   +99999+99999GF199999999999000611999999MA1101465101375REMMET09201/05/23 22:52:01 METAR KWWD 060352Z 07007KT 2SM BR OVC002 08/08 A2996 RMK AO2 VIS 1 1/4V3 $
0224745966037262023010603567+39008-074908FM-15+0007KWWD V0200805N00265000615MN0028165N5+00785+00785101465ADDAU100001015AW1105GA1085+000615999GD14991+0006159GE19AGL   +99999+99999GF199999999999000611999999MA1101465101375REMMET10101/05/23 22:56:02 METAR KWWD 060356Z 08005KT 1 3/4SM BR OVC002 08/08 A2996 RMK AO2 SLP146 T00780078 $
0219745966037262023010604187+39008-074908FM-15+0007KWWD V0201005N00465000615MN0040235V5+00805+00805999999ADDAU100001015AW1105GA1085+000615999GD14991+0006159GE19AGL   +99999+99999GF199999999999000611999999MA1101425101345REMMET09601/05/23 23:18:02 METAR KWWD 060418Z 10009KT 2 1/2SM BR OVC002 08/08 A2995 RMK AO2 VIS 1 3/4V3 $
0203745966037262023010604297+39008-074908FM-15+0007KWWD V0201105N00515000615MN0048285N5+00805+00805999999ADDAU100001015AW1105GA1085+000615999GD14991+0006159GE19AGL   +99999+99999GF199999999999000611999999MA1101425101345REMMET08001/05/23 23:29:02 METAR KWWD 060429Z 11010KT 3SM BR OVC002 08/08 A2995 RMK AO2 $
0215745966037262023010604417+39008-074908FM-15+0007KWWD V0201005N00415000615MN0032195V5+00805+00805999999ADDAU100001015AW1105GA1085+000615999GD14991+0006159GE19AGL   +99999+99999GF199999999999000611999999MA1101425101345REMMET09201/05/23 23:41:02 METAR KWWD 060441Z 10008KT 2SM BR OVC002 08/08 A2995 RMK AO2 VIS 1 1/2V3 $
0260745966037262023010604567+39008-074908FM-15+0007KWWD V0201005N00315000615MN0020125N5+00835+00835101445ADDAU100001015AW1105GA1085+000615999GD14991+0006159GE19AGL   +99999+99999GF199999999999000611999999KA1240M+01721KA2240N+00781MA1101425101345REMMET11101/05/23 23:56:02 METAR KWWD 060456Z 10006KT 1 1/4SM BR OVC002 08/08 A2995 RMK AO2 SLP144 T00830083 401720078 $
002774596603726202301060459O+39008-074908SOD  +0007KWWD V020999999999999999999999999999+99999+99999999999ADDAT1AU01FG  5AT2AU13BR  5
0282745966037262023010605567+39008-074908FM-15+0007KWWD V0203505N00265000615MN0028165N5+00835+00835101485ADDAU100001015AW1105GA1085+000615999GD14991+0006159GE19AGL   +99999+99999GF199999999999000611999999KA1060M+00831KA2060N+00781MA1101465101375MD1390029+9999REMMET11901/06/23 00:56:02 METAR KWWD 060556Z 35005KT 1 3/4SM BR OVC002 08/08 A2996 RMK AO2 SLP148 T00830083 10083 20078 53002 $
0253745966037262023010606177+39008-074908FM-15+0007KWWD V0203605N00415000615MN0032195N5+00805+00805999999ADDAA101000021AU110020015AU200001015AW1105AW2615GA1085+000615999GD14991+0006159GE19AGL   +99999+99999GF199999999999000611999999MA1101465101375MW1615REMMET09601/06/23 01:17:02 METAR KWWD 060617Z 36008KT 2SM -RA BR OVC002 08/08 A2996 RMK AO2 RAB03 P0000 $
0229745966037262023010606387+39008-074908FM-15+0007KWWD V0203605N00265001225MN0048285N5+00805+00805999999ADDAA101000021AU100001015AW1105GA1085+001225999GD14991+0012259GE19AGL   +99999+99999GF199999999999001221999999MA1101465101375REMMET09501/06/23 01:38:02 METAR KWWD 060638Z 36005KT 3SM BR OVC004 08/08 A2996 RMK AO2 RAB03E37 P0000 $
0246745966037262023010606567+39008-074908FM-15+0007KWWD V0203605N00265001225MN0080475N5+00785+00785101505ADDAA101000021AU100001015AW1105GA1085+001225999GD14991+0012259GE19AGL   +99999+99999GF199999999999001221999999MA1101495101415REMMET11201/06/23 01:56:02 METAR KWWD 060656Z 36005KT 5SM BR OVC004 08/08 A2997 RMK AO2 RAB03E37 SLP150 P0000 T00780078 $
0213745966037262023010607567+39008-074908FM-15+0007KWWD V0200105N00265001835MN0160935N5+00785+00785101465ADDGA1085+001835999GD14991+0018351GE19AGL   +99999+99999GF199999999999001831999999MA1101425101345REMMET10701/06/23 02:56:02 METAR KWWD 060756Z 01005KT 10SM OVC006 08/08 A2995 RMK AO2 CIG 004V010 SLP146 T00780078 $
0269745966037262023010608567+39008-074908FM-15+0007KWWD V0200305N00215001835MN0160935N5+00785+00785101445ADDAA103000021GA1085+001835999GD14991+0018351GE19AGL   +99999+99999GF199999999999001831999999MA1101425101345MD1890059+9999REMMET11901/06/23 03:56:02 METAR KWWD 060856Z 03004KT 10SM OVC006 08/08 A2995 RMK AO2 CIG 004V008 SLP144 60000 T00780078 58005 $EQDQ01  00008PRCP03
0260745966037262023010609157+39008-074908FM-15+0007KWWD V0200405N00155033535MN0160935N5+00705+00705999999ADDGA1045+001835999GA2045+010675999GA3075+033535999GD12991+0018359GD22991+0106759GD33991+0335359GE19AGL   +99999+99999GF199999999999001831999999MA1101425101345REMMET09201/06/23 04:15:02 METAR KWWD 060915Z 04003KT 10SM SCT006 SCT035 BKN110 07/07 A2995 RMK AO2 $
0260745966037262023010609367+39008-074908FM-15+0007KWWD V0203005N00215003355MN0160935N5+00805+00805999999ADDGA1025+001225999GA2075+003355999GA3085+033535999GD11991+0012259GD23991+0033559GD34991+0335359GE19AGL   +99999+99999GF199999999999001221999999MA1101495101415REMMET09201/06/23 04:36:02 METAR KWWD 060936Z 30004KT 10SM FEW004 BKN011 OVC110 08/08 A2997 RMK AO2 $
0329745966037262023010609527+39008-074908FM-15+0007KWWD V0203005N00215000615MN0080475N5+00805+00805999999ADDAA101000021AU110020015AU200001015AW1105AW2615GA1075+000615999GA2075+003355999GA3085+006105999GD13991+0006159GD23991+0033559GD34991+0061059GE19AGL   +99999+99999GF199999999999000611999999MA1101495101415MW1615REMMET11001/06/23 04:52:02 METAR KWWD 060952Z 30004KT 5SM -RA BR BKN002 BKN011 OVC020 08/08 A2997 RMK AO2 RAB48 P0000 $
0308745966037262023010609567+39008-074908FM-15+0007KWWD V0209999V00155000615MN0048285N5+00725+00725101515ADDAA101000021AU110020015AU200001015AW1105AW2615GA1075+000615999GA2085+003355999GD13991+0006159GD24991+0033559GE19AGL   +99999+99999GF199999999999000611999999MA1101495101415MW1615REMMET12001/06/23 04:56:02 METAR KWWD 060956Z VRB03KT 3SM -RA BR BKN002 OVC011 07/07 A2997 RMK AO2 RAB48 SLP151 P0000 T00720072 $
0297745966037262023010610007+39008-074908FM-15+0007KWWD V0203205N00155000615MN0028165V5+00705+00705999999ADDAA101000021AU110020015AU200001015AW1105AW2615GA1075+000615999GA2085+003355999GD13991+0006159GD24991+0033559GE19AGL   +99999+99999GF199999999999000611999999MA1101495101415MW1615REMMET10901/06/23 05:00:02 METAR KWWD 061000Z 32003KT 1 3/4SM -RA BR BKN002 OVC011 07/07 A2997 RMK AO2 VIS 1V4 P0000 $
0247745966037262023010610187+39008-074908FM-15+0007KWWD V0200605N00155000615MN0016095N5+00705+00705999999ADDAA101000021AU110020015AU200001015AW1105AW2615GA1085+000615999GD14991+0006159GE19AGL   +99999+99999GF199999999999000611999999MA1101465101375MW1615REMMET09001/06/23 05:18:02 METAR KWWD 061018Z 06003KT 1SM -RA BR OVC002 07/07 A2996 RMK AO2 P0000 $
0251745966037262023010610237+39008-074908FM-15+0007KWWD V0209999C00005000615MN0040235N5+00705+00705999999ADDAA101000021AU110020015AU200001015AW1105AW2615GA1085+000615999GD14991+0006159GE19AGL   +99999+99999GF199999999999000611999999MA1101465101375MW1615REMMET09401/06/23 05:23:02 METAR KWWD 061023Z 00000KT 2 1/2SM -RA BR OVC002 07/07 A2996 RMK AO2 P0000 $
0247745966037262023010610307+39008-074908FM-15+0007KWWD V0200405N00215000615MN0096565N5+00705+00705999999ADDAA101000021AU110020015AU200001015AW1105AW2615GA1085+000615999GD14991+0006159GE19AGL   +99999+99999GF199999999999000611999999MA1101425101345MW1615REMMET09001/06/23 05:30:02 METAR KWWD 061030Z 04004KT 6SM -RA BR OVC002 07/07 A2995 RMK AO2 P0000 $
0281745966037262023010610567+39008-074908FM-15+0007KWWD V0209999C00005000615MN0080475N5+00725+00725101485ADDAA101000021AU100001015AW1105GA1075+000615999GA2075+027435999GD13991+0006159GD23991+0274359GE19AGL   +99999+99999GF199999999999000611999999MA1101465101375REMMET11601/06/23 05:56:02 METAR KWWD 061056Z 00000KT 5SM BR BKN002 BKN090 07/07 A2996 RMK AO2 RAE32 SLP148 P0000 T00720072 $
0377745966037262023010611567+39008-074908FM-15+0007KWWD V0209999C00005000615MN0112655N5+00725+00725101505ADDAA101000021AA206000021AA324000391AU110020015AW1615GA1085+000615999GD14991+0006159GE19AGL   +99999+99999GF199999999999000611999999KA1060M+00831KA2060N+00721MA1101495101415MD1190069+9999MW1615REMMET14001/06/23 06:56:02 METAR KWWD 061156Z 00000KT 7SM -RA OVC002 07/07 A2997 RMK AO2 RAB45 SLP150 P0000 60000 70001 T00720072 10083 20072 51006 $EQDQ01  00008PRCP06Q02  00028PRCP24
0247745966037262023010612377+39008-074908FM-15+0007KWWD V0209999C00005033535MN0160935N5+00705+00705999999ADDAA101000021GA1025+000615999GA2075+033535999GD11991+0006159GD23991+0335359GE19AGL   +99999+99999GF199999999999000611999999MA1101465101375REMMET09901/06/23 07:37:02 METAR KWWD 061237Z 00000KT 10SM FEW002 BKN110 07/07 A2996 RMK AO2 RAE1159 P0000 $
0244745966037262023010612567+39008-074908FM-15+0007KWWD V0209999C000052200059N0112655N5+00725+00725101495ADDAA101000021GA1045+030485999GD12991+0304859GE19AGL   +99999+99999GF104995999999030481999999MA1101465101375REMMET10801/06/23 07:56:02 METAR KWWD 061256Z 00000KT 7SM SCT100 07/07 A2996 RMK AO2 RAE1159 SLP149 P0000 T00720072 $EQDD01      0ADE726
0259745966037262023010613257+39008-074908FM-15+0007KWWD V0209999C00005028965MN0112655N5+00805+00805999999ADDGA1025+000305999GA2075+028965999GA3075+036585999GD11991+0003059GD23991+0289659GD33991+0365859GE19AGL   +99999+99999GF199999999999000301999999MA1101495101415REMMET09101/06/23 08:25:02 METAR KWWD 061325Z 00000KT 7SM FEW001 BKN095 BKN120 08/08 A2997 RMK AO2 $
0251745966037262023010613527+39008-074908FM-15+0007KWWD V0202705N00515000915MN0032195V5+00705+00705999999ADDAU100001015AW1105GA1075+000915999GA2085+033535999GD13991+0009159GD24991+0335359GE19AGL   +99999+99999GF199999999999000911999999MA1101595101515REMMET09701/06/23 08:52:02 METAR KWWD 061352Z 27010KT 2SM BR BKN003 OVC110 07/07 A3000 RMK AO2 VIS 3/4V5 $
0255745966037262023010613537+39008-074908FM-15+0007KWWD V0202805N00515000915MN0024145V5+00705+00705999999ADDAU100001015AW1105GA1075+000915999GA2085+033535999GD13991+0009159GD24991+0335359GE19AGL   +99999+99999GF199999999999000911999999MA1101635101545REMMET10101/06/23 08:53:02 METAR KWWD 061353Z 28010KT 1 1/2SM BR BKN003 OVC110 07/07 A3001 RMK AO2 VIS 1/2V5 $
0270745966037262023010613567+39008-074908FM-15+0007KWWD V0202805N00465000915MN0012075V5+00725+00725101635ADDAU100001015AW1105GA1075+000915999GA2085+033535999GD13991+0009159GD24991+0335359GE19AGL   +99999+99999GF199999999999000911999999MA1101635101545REMMET11601/06/23 08:56:02 METAR KWWD 061356Z 28009KT 3/4SM BR BKN003 OVC110 07/07 A3001 RMK AO2 VIS 1/4V5 SLP163 T00720072 $
0243745966037262023010614017+39008-074908FM-15+0007KWWD V0202805N00415000915MN0004025N5+00705+00705999999ADDAU100002015AW1305GA1075+000915999GA2085+033535999GD13991+0009159GD24991+0335359GE19AGL   +99999+99999GF199999999999000911999999MA1101635101545REMMET08901/06/23 09:01:02 METAR KWWD 061401Z 28008KT 1/4SM FG BKN003 OVC110 07/07 A3001 RMK AO2 $
0205745966037262023010614237+39008-074908FM-15+0007KWWD V0202805N00315000915MN0008055N5+00705+00705999999ADDAU100002015AW1305GA1085+000915999GD14991+0009159GE19AGL   +99999+99999GF199999999999000911999999MA1101635101545REMMET08201/06/23 09:23:02 METAR KWWD 061423Z 28006KT 1/2SM FG OVC003 07/07 A3001 RMK AO2 $
0205745966037262023010614407+39008-074908FM-15+0007KWWD V0202905N00365000915MN0004025N5+00705+00705999999ADDAU100002015AW1305GA1085+000915999GD14991+0009159GE19AGL   +99999+99999GF199999999999000911999999MA1101665101585REMMET08201/06/23 09:40:02 METAR KWWD 061440Z 29007KT 1/4SM FG OVC003 07/07 A3002 RMK AO2 $
0205745966037262023010614497+39008-074908FM-15+0007KWWD V0202805N00415000915MN0008055N5+00705+00705999999ADDAU100002015AW1305GA1085+000915999GD14991+0009159GE19AGL   +99999+99999GF199999999999000911999999MA1101665101585REMMET08201/06/23 09:49:02 METAR KWWD 061449Z 28008KT 1/2SM FG OVC003 07/07 A3002 RMK AO2 $
0278745966037262023010614567+39008-074908FM-15+0007KWWD V0202805N00515000915MN0012075N5+00725+00725101705ADDAA103000021AU100001015AW1105GA1085+000915999GD14991+0009159GE19AGL   +99999+99999GF199999999999000911999999MA1101695101615MD1190219+9999REMMET11101/06/23 09:56:02 METAR KWWD 061456Z 28010KT 3/4SM BR OVC003 07/07 A3003 RMK AO2 SLP170 60000 T00720072 51021 $EQDQ01  00008PRCP03
0207745966037262023010614597+39008-074908FM-15+0007KWWD V0202905N00415000915MN0020125N5+00705+00705999999ADDAU100001015AW1105GA1085+000915999GD14991+0009159GE19AGL   +99999+99999GF199999999999000911999999MA1101695101615REMMET08401/06/23 09:59:02 METAR KWWD 061459Z 29008KT 1 1/4SM BR OVC003 07/07 A3003 RMK AO2 $
0203745966037262023010615027+39008-074908FM-15+0007KWWD V0202805N00415000915MN0048285N5+00705+00705999999ADDAU100001015AW1105GA1085+000915999GD14991+0009159GE19AGL   +99999+99999GF199999999999000911999999MA1101695101615REMMET08001/06/23 10:02:02 METAR KWWD 061502Z 28008KT 3SM BR OVC003 07/07 A3003 RMK AO2 $
0259745966037262023010615277+39008-074908FM-15+0007KWWD V0202905N00365003665MN0112655N5+00705+00705999999ADDGA1045+000915999GA2075+003665999GA3085+007925999GD12991+0009159GD23991+0036659GD34991+0079259GE19AGL   +99999+99999GF199999999999000911999999MA1101695101615REMMET09101/06/23 10:27:02 METAR KWWD 061527Z 29007KT 7SM SCT003 BKN012 OVC026 07/07 A3003 RMK AO2 $
0259745966037262023010615387+39008-074908FM-15+0007KWWD V0203005N00315008235MN0112655N5+00805+00805999999ADDGA1025+000915999GA2075+008235999GA3085+030485999GD11991+0009159GD23991+0082359GD34991+0304859GE19AGL   +99999+99999GF199999999999000911999999MA1101665101585REMMET09101/06/23 10:38:02 METAR KWWD 061538Z 30006KT 7SM FEW003 BKN027 OVC100 08/08 A3002 RMK AO2 $
0259745966037262023010615487+39008-074908FM-15+0007KWWD V0203105N00315030485MN0128755N5+00805+00805999999ADDGA1025+004575999GA2045+007925999GA3085+030485999GD11991+0045759GD22991+0079259GD34991+0304859GE19AGL   +99999+99999GF199999999999004571999999MA1101665101585REMMET09101/06/23 10:48:02 METAR KWWD 061548Z 31006KT 8SM FEW015 SCT026 OVC100 08/08 A3002 RMK AO2 $
0238745966037262023010615567+39008-074908FM-15+0007KWWD V0203005N00315030485MN0128755N5+00895+00835101685ADDGA1025+002135999GA2085+030485999GD11991+0021359GD24991+0304859GE19AGL   +99999+99999GF199999999999002131999999MA1101665101585REMMET10101/06/23 10:56:02 METAR KWWD 061556Z 30006KT 8SM FEW007 OVC100 09/08 A3002 RMK AO2 SLP168 T00890083 $
0201745966037262023010616567+39008-074908FM-15+0007KWWD V0203205N00415028965MN0160935N5+00895+00615101645ADDGA1085+028965999GD14991+0289659GE19AGL   +99999+99999GF199999999999028961999999MA1101635101545REMMET09501/06/23 11:56:02 METAR KWWD 061656Z 32008KT 10SM OVC095 09/06 A3001 RMK AO2 SLP164 T00890061 $
0306745966037262023010617567+39008-074908FM-15+0007KWWD V0203005N00465027435MN0160935N5+00835+00445101645ADDAA106000021GA1085+027435999GD14991+0274359GE19AGL   +99999+99999GF199999999999027431999999KA1060M+00941KA2060N+00671MA1101635101545MD1690069+9999OC100775REMMET12201/06/23 12:56:02 METAR KWWD 061756Z 30009G15KT 10SM OVC090 08/04 A3001 RMK AO2 SLP164 60000 T00830044 10094 20067 56006 $EQDQ01  00008PRCP06
0239745966037262023010618567+39008-074908FM-15+0007KWWD V0203005N00365027435MN0160935N5+00835+00395101665ADDGA1025+010365999GA2085+027435999GD11991+0103659GD24991+0274359GE19AGL   +99999+99999GF199999999999010361999999MA1101665101585REMMET10201/06/23 13:56:02 METAR KWWD 061856Z 30007KT 10SM FEW034 OVC090 08/04 A3002 RMK AO2 SLP166 T00830039 $
0277745966037262023010619567+39008-074908FM-15+0007KWWD V0202905N00465013725MN0160935N5+00835+00335101735ADDGA1075+013725999GA2075+015245999GA3085+025915999GD13991+0137259GD23991+0152459GD34991+0259159GE19AGL   +99999+99999GF199999999999013721999999MA1101735101645REMMET10901/06/23 14:56:02 METAR KWWD 061956Z 29009KT 10SM BKN045 BKN050 OVC085 08/03 A3004 RMK AO2 SLP173 T00830033 $
0297745966037262023010620567+39008-074908FM-15+0007KWWD V0203105N00315016765MN0160935N5+00785+00285101835ADDGA1025+011285999GA2045+013725999GA3085+016765999GD11991+0112859GD22991+0137259GD34991+0167659GE19AGL   +99999+99999GF199999999999011281999999MA1101835101745MD1390209+9999REMMET11501/06/23 15:56:02 METAR KWWD 062056Z 31006KT 10SM FEW037 SCT045 OVC055 08/03 A3007 RMK AO2 SLP183 T00780028 53020 $
0239745966037262023010621567+39008-074908FM-15+0007KWWD V0202905N00315018295MN0160935N5+00785+00285101895ADDGA1075+018295999GA2085+021345999GD13991+0182959GD24991+0213459GE19AGL   +99999+99999GF199999999999018291999999MA1101865101785REMMET10201/06/23 16:56:02 METAR KWWD 062156Z 29006KT 10SM BKN060 OVC070 08/03 A3008 RMK AO2 SLP189 T00780028 $
0239745966037262023010622567+39008-074908FM-15+0007KWWD V0203005N00315014945MN0160935N5+00725+00225101995ADDGA1075+014945999GA2085+019815999GD13991+0149459GD24991+0198159GE19AGL   +99999+99999GF199999999999014941999999MA1101965101885REMMET10201/06/23 17:56:02 METAR KWWD 062256Z 30006KT 10SM BKN049 OVC065 07/02 A3011 RMK AO2 SLP199 T00720022 $
0259745966037262023010623567+39008-074908FM-15+0007KWWD V0203105N00265018295MN0160935N5+00675+00225102115ADDGA1085+018295999GD14991+0182959GE19AGL   +99999+99999GF199999999999018291999999KA1060M+00831KA2060N+00671MA1102105102015MD1390279+9999REMMET11301/06/23 18:56:02 METAR KWWD 062356Z 31005KT 10SM OVC060 07/02 A3015 RMK AO2 SLP211 T00670022 10083 20067 53027 $
0201745966037262023010700567+39008-074908FM-15+0007KWWD V0202905N00415021345MN0160935N5+00675+00115102155ADDGA1085+021345999GD14991+0213459GE19AGL   +99999+99999GF199999999999021341999999MA1102135102055REMMET09501/06/23 19:56:01 METAR KWWD 070056Z 29008KT 10SM OVC070 07/01 A3016 RMK AO2 SLP215 T00670011 $
0239745966037262023010701567+39008-074908FM-15+0007KWWD V0202905N00465016765MN0160935N5+00675+00005102205ADDGA1075+016765999GA2085+019815999GD13991+0167659GD24991+0198159GE19AGL   +99999+99999GF199999999999016761999999MA1102175102085REMMET10201/06/23 20:56:01 METAR KWWD 070156Z 29009KT 10SM BKN055 OVC065 07/00 A3017 RMK AO2 SLP220 T00670000 $
0221745966037262023010702567+39008-074908FM-15+0007KWWD V0203205N00265016765MN0160935N5+00565+00115102235ADDGA1075+016765999GD13991+0167659GE19AGL   +99999+99999GF199999999999016761999999MA1102205102125MD1190129+9999REMMET10101/06/23 21:56:01 METAR KWWD 070256Z 32005KT 10SM BKN055 06/01 A3018 RMK AO2 SLP223 T00560011 51012 $
0176745966037262023010703567+39008-074908FM-15+0007KWWD V0203105N002652200059N0160935N5+00505+00115102245ADDGA1005+999999999GD10991+9999999GF100991999999999999999999MA1102245102155REMMET09201/06/23 22:56:02 METAR KWWD 070356Z 31005KT 10SM CLR 05/01 A3019 RMK AO2 SLP224 T00500011 $
0212745966037262023010704567+39008-074908FM-15+0007KWWD V0202905N002652200059N0160935N5+00445+00115102275ADDGA1005+999999999GD10991+9999999GF100991999999999999999999KA1240M+00941KA2240N+00441MA1102275102185REMMET10201/06/23 23:56:02 METAR KWWD 070456Z 29005KT 10SM CLR 04/01 A3020 RMK AO2 SLP227 T00440011 400940044 $
003974596603726202301070459O+39008-074908SOD  +0007KWWD V020999999999999999999999999999+99999+99999999999ADDAT1AU16RA  5AT2AU01FG  5AT3AU13BR  5
0259745966037262023010705567+39008-074908FM-15+0007KWWD V0203005N00365018295MN0160935N5+00445+00065102235ADDGA1075+018295999GD13991+0182959GE19AGL   +99999+99999GF199999999999018291999999KA1060M+00721KA2060N+00441MA1102205102125MD1090019+9999REMMET11301/07/23 00:56:02 METAR KWWD 070556Z 30007KT 10SM BKN060 04/01 A3018 RMK AO2 SLP223 T00440006 10072 20044 50001 $
0220745966037262023010706567+39008-074908FM-15+0007KWWD V0203105N003652200059N0160935N5+00505+00005102245ADDGA1025+019815999GD11991+0198159GE19AGL   +99999+99999GF102995999999019811999999MA1102245102155REMMET09501/07/23 01:56:02 METAR KWWD 070656Z 31007KT 10SM FEW065 05/00 A3019 RMK AO2 SLP224 T00500000 $EQDD01      0ADE726
0221745966037262023010707567+39008-074908FM-15+0007KWWD V0202905N003652200059N0160935N5+00505-00065102275ADDGA1045+018295999GD12991+0182959GE19AGL   +99999+99999GF104995999999018291999999MA1102245102155REMMET09601/07/23 02:56:02 METAR KWWD 070756Z 29007KT 10SM SCT060 05/M01 A3019 RMK AO2 SLP227 T00501006 $EQDD01      0ADE726
0221745966037262023010708567+39008-074908FM-15+0007KWWD V0202905N00365018295MN0160935N5+00505+00065102255ADDGA1085+018295999GD14991+0182959GE19AGL   +99999+99999GF199999999999018291999999MA1102245102155MD1090029+9999REMMET10101/07/23 03:56:02 METAR KWWD 070856Z 29007KT 10SM OVC060 05/01 A3019 RMK AO2 SLP225 T00500006 50002 $
0201745966037262023010709567+39008-074908FM-15+0007KWWD V0202905N00365018295MN0160935N5+00505+00005102265ADDGA1085+018295999GD14991+0182959GE19AGL   +99999+99999GF199999999999018291999999MA1102245102155REMMET09501/07/23 04:56:02 METAR KWWD 070956Z 29007KT 10SM OVC060 05/00 A3019 RMK AO2 SLP226 T00500000 $
0201745966037262023010710567+39008-074908FM-15+0007KWWD V0202905N00265018295MN0160935N5+00505+00065102295ADDGA1085+018295999GD14991+0182959GE19AGL   +99999+99999GF199999999999018291999999MA1102275102185REMMET09501/07/23 05:56:02 METAR KWWD 071056Z 29005KT 10SM OVC060 05/01 A3020 RMK AO2 SLP229 T00500006 $
0259745966037262023010711567+39008-074908FM-15+0007KWWD V0202805N00365022865MN0160935N5+00505+00065102335ADDGA1085+022865999GD14991+0228659GE19AGL   +99999+99999GF199999999999022861999999KA1060M+00501KA2060N+00441MA1102305102225MD1390079+9999REMMET11301/07/23 06:56:02 METAR KWWD 071156Z 28007KT 10SM OVC075 05/01 A3021 RMK AO2 SLP233 T00500006 10050 20044 53007 $
0176745966037262023010712567+39008-074908FM-15+0007KWWD V0202705N005152200059N0160935N5+00505+00115102355ADDGA1005+999999999GD10991+9999999GF100991999999999999999999MA1102345102255REMMET09201/07/23 07:56:02 METAR KWWD 071256Z 27010KT 10SM CLR 05/01 A3022 RMK AO2 SLP235 T00500011 $
0176745966037262023010713567+39008-074908FM-15+0007KWWD V0202805N004652200059N0160935N5+00615+00115102385ADDGA1005+999999999GD10991+9999999GF100991999999999999999999MA1102375102295REMMET09201/07/23 08:56:02 METAR KWWD 071356Z 28009KT 10SM CLR 06/01 A3023 RMK AO2 SLP238 T00610011 $
0196745966037262023010714567+39008-074908FM-15+0007KWWD V0202905N006752200059N0160935N5+00615+00115102415ADDGA1005+999999999GD10991+9999999GF100991999999999999999999MA1102405102325MD1390099+9999REMMET09801/07/23 09:56:02 METAR KWWD 071456Z 29013KT 10SM CLR 06/01 A3024 RMK AO2 SLP241 T00610011 53009 $
0201745966037262023010715567+39008-074908FM-15+0007KWWD V0203005N00365022865MN0160935N5+00725+00225102395ADDGA1085+022865999GD14991+0228659GE19AGL   +99999+99999GF199999999999022861999999MA1102375102295REMMET09501/07/23 10:56:02 METAR KWWD 071556Z 30007KT 10SM OVC075 07/02 A3023 RMK AO2 SLP239 T00720022 $
0201745966037262023010716567+39008-074908FM-15+0007KWWD V0202905N00465024385MN0160935N5+00725+00225102305ADDGA1075+024385999GD13991+0243859GE19AGL   +99999+99999GF199999999999024381999999MA1102275102185REMMET09501/07/23 11:56:02 METAR KWWD 071656Z 29009KT 10SM BKN080 07/02 A3020 RMK AO2 SLP230 T00720022 $
0259745966037262023010717567+39008-074908FM-15+0007KWWD V0202905N00365022865MN0160935N5+00675+00115102245ADDGA1085+022865999GD14991+0228659GE19AGL   +99999+99999GF199999999999022861999999KA1060M+00781KA2060N+00441MA1102245102155MD1890189+9999REMMET11301/07/23 12:56:02 METAR KWWD 071756Z 29007KT 10SM OVC075 07/01 A3019 RMK AO2 SLP224 T00670011 10078 20044 58018 $
0231745966037262023010718567+39008-074908FM-15+0007KWWD V0203205N004152200059N0160935N5+00725+00065102195ADDGA1045+021345999GD12991+0213459GE19AGL   +99999+99999GF104995999999021341999999MA1102175102085OC100825REMMET09801/07/23 13:56:02 METAR KWWD 071856Z 32008G16KT 10SM SCT070 07/01 A3017 RMK AO2 SLP219 T00720006 $EQDD01      0ADE726
0176745966037262023010719567+39008-074908FM-15+0007KWWD V0203105V003652200059N0160935N5+00725+00115102205ADDGA1005+999999999GD10991+9999999GF100991999999999999999999MA1102175102085REMMET09201/07/23 14:56:02 METAR KWWD 071956Z 31007KT 10SM CLR 07/01 A3017 RMK AO2 SLP220 T00720011 $
0240745966037262023010720567+39008-074908FM-15+0007KWWD V0203005N004152200059N0160935N5+00675+00065102255ADDGA1045+021345999GD12991+0213459GE19AGL   +99999+99999GF104995999999021341999999MA1102245102155MD1390019+9999REMMET10101/07/23 15:56:02 METAR KWWD 072056Z 30008KT 10SM SCT070 07/01 A3019 RMK AO2 SLP225 T00670006 53001 $EQDD01      0ADE726
0201745966037262023010721567+39008-074908FM-15+0007KWWD V0203105N00215021345MN0160935N5+00675+00115102335ADDGA1085+021345999GD14991+0213459GE19AGL   +99999+99999GF199999999999021341999999MA1102305102225REMMET09501/07/23 16:56:02 METAR KWWD 072156Z 31004KT 10SM OVC070 07/01 A3021 RMK AO2 SLP233 T00670011 $
0201745966037262023010722567+39008-074908FM-15+0007KWWD V0209999V00215024385MN0160935N5+00615+00175102405ADDGA1075+024385999GD13991+0243859GE19AGL   +99999+99999GF199999999999024381999999MA1102375102295REMMET09501/07/23 17:56:02 METAR KWWD 072256Z VRB04KT 10SM BKN080 06/02 A3023 RMK AO2 SLP240 T00610017 $
0259745966037262023010723567+39008-074908FM-15+0007KWWD V0203105N00215036585MN0160935N5+00615+00115102465ADDGA1075+036585999GD13991+0365859GE19AGL   +99999+99999GF199999999999036581999999KA1060M+00781KA2060N+00561MA1102445102355MD1190219+9999REMMET11301/07/23 18:56:02 METAR KWWD 072356Z 31004KT 10SM BKN120 06/01 A3025 RMK AO2 SLP246 T00610011 10078 20056 51021 $
0201745966037262023010800567+39008-074908FM-15+0007KWWD V0203105N00365025915MN0160935N5+00565+00175102555ADDGA1075+025915999GD13991+0259159GE19AGL   +99999+99999GF199999999999025911999999MA1102545102455REMMET09501/07/23 19:56:01 METAR KWWD 080056Z 31007KT 10SM BKN085 06/02 A3028 RMK AO2 SLP255 T00560017 $
0201745966037262023010801567+39008-074908FM-15+0007KWWD V0203105N00265024385MN0160935N5+00615+00175102565ADDGA1085+024385999GD14991+0243859GE19AGL   +99999+99999GF199999999999024381999999MA1102545102455REMMET09501/07/23 20:56:01 METAR KWWD 080156Z 31005KT 10SM OVC080 06/02 A3028 RMK AO2 SLP256 T00610017 $
0221745966037262023010802567+39008-074908FM-15+0007KWWD V0203005N00315021345MN0160935N5+00615+00175102635ADDGA1085+021345999GD14991+0213459GE19AGL   +99999+99999GF199999999999021341999999MA1102615102525MD1190179+9999REMMET10101/07/23 21:56:01 METAR KWWD 080256Z 30006KT 10SM OVC070 06/02 A3030 RMK AO2 SLP263 T00610017 51017 $
0220745966037262023010803567+39008-074908FM-15+0007KWWD V0203105N003152200059N0160935N5+00565+00115102645ADDGA1025+021345999GD11991+0213459GE19AGL   +99999+99999GF102995999999021341999999MA1102615102525REMMET09501/07/23 22:56:02 METAR KWWD 080356Z 31006KT 10SM FEW070 06/01 A3030 RMK AO2 SLP264 T00560011 $EQDD01      0ADE726
0212745966037262023010804567+39008-074908FM-15+0007KWWD V0203205N002652200059N0160935N5+00505+00065102635ADDGA1005+999999999GD10991+9999999GF100991999999999999999999KA1240M+00781KA2240N+00441MA1102615102525REMMET10201/07/23 23:56:02 METAR KWWD 080456Z 32005KT 10SM CLR 05/01 A3030 RMK AO2 SLP263 T00500006 400780044 $
0234745966037262023010805567+39008-074908FM-15+0007KWWD V0203105N004152200059N0160935N5+00445+00065102645ADDGA1005+999999999GD10991+9999999GF100991999999999999999999KA1060M+00611KA2060N+00441MA1102645102565MD1390019+9999REMMET11001/08/23 00:56:02 METAR KWWD 080556Z 31008KT 10SM CLR 04/01 A3031 RMK AO2 SLP264 T00440006 10061 20044 53001 $
0176745966037262023010806567+39008-074908FM-15+0007KWWD V0209999V003152200059N0160935N5+00395+00065102705ADDGA1005+999999999GD10991+9999999GF100991999999999999999999MA1102685102595REMMET09201/08/23 01:56:02 METAR KWWD 080656Z VRB06KT 10SM CLR 04/01 A3032 RMK AO2 SLP270 T00390006 $
0176745966037262023010807567+39008-074908FM-15+0007KWWD V0209999V002652200059N0160935N5+00335+00005102725ADDGA1005+999999999GD10991+9999999GF100991999999999999999999MA1102715102625REMMET09201/08/23 02:56:02 METAR KWWD 080756Z VRB05KT 10SM CLR 03/00 A3033 RMK AO2 SLP272 T00330000 $
0196745966037262023010808567+39008-074908FM-15+0007KWWD V0209999V002652200059N0160935N5+00335+00005102715ADDGA1005+999999999GD10991+9999999GF100991999999999999999999MA1102685102595MD1090069+9999REMMET09801/08/23 03:56:02 METAR KWWD 080856Z VRB05KT 10SM CLR 03/00 A3032 RMK AO2 SLP271 T00330000 50006 $
0177745966037262023010809567+39008-074908FM-15+0007KWWD V0209999V002652200059N0160935N5+00285-00065102745ADDGA1005+999999999GD10991+9999999GF100991999999999999999999MA1102715102625REMMET09301/08/23 04:56:02 METAR KWWD 080956Z VRB05KT 10SM CLR 03/M01 A3033 RMK AO2 SLP274 T00281006 $
0177745966037262023010810567+39008-074908FM-15+0007KWWD V0203205N001552200059N0160935N5+00285-00065102775ADDGA1005+999999999GD10991+9999999GF100991999999999999999999MA1102745102665REMMET09301/08/23 05:56:02 METAR KWWD 081056Z 32003KT 10SM CLR 03/M01 A3034 RMK AO2 SLP277 T00281006 $
0242745966037262023010811567+39008-074908FM-15+0007KWWD V0203605N002152200059N0160935N5+00175-00065102785ADDGA1005+999999999GD10991+9999999GF100991999999999999999999KA1060M+00441KA2060N+00171MA1102785102695MD1190089+9999REMMET11801/08/23 06:56:02 METAR KWWD 081156Z 36004KT 10SM CLR 02/M01 A3035 RMK AO2 SLP278 T00171006 10044 20017 51008 FZRANO $
0184745966037262023010812567+39008-074908FM-15+0007KWWD V0203305N001552200059N0160935N5+00175-00115102825ADDGA1005+999999999GD10991+9999999GF100991999999999999999999MA1102815102735REMMET10001/08/23 07:56:02 METAR KWWD 081256Z 33003KT 10SM CLR 02/M01 A3036 RMK AO2 SLP282 T00171011 FZRANO $
0176745966037262023010813567+39008-074908FM-15+0007KWWD V0200105N003652200059N0160935N5+00335+00005102845ADDGA1005+999999999GD10991+9999999GF100991999999999999999999MA1102815102735REMMET09201/08/23 08:56:02 METAR KWWD 081356Z 01007KT 10SM CLR 03/00 A3036 RMK AO2 SLP284 T00330000 $
0197745966037262023010814567+39008-074908FM-15+0007KWWD V0200605N002652200059N0160935N5+00445-00115102865ADDGA1005+999999999GD10991+9999999GF100991999999999999999999MA1102845102765MD1190089+9999REMMET09901/08/23 09:56:02 METAR KWWD 081456Z 06005KT 10SM CLR 04/M01 A3037 RMK AO2 SLP286 T00441011 51008 $
0177745966037262023010815567+39008-074908FM-15+0007KWWD V0209999C000052200059N0160935N5+00445-00225102815ADDGA1005+999999999GD10991+9999999GF100991999999999999999999MA1102815102735REMMET09301/08/23 10:56:02 METAR KWWD 081556Z 00000KT 10SM CLR 04/M02 A3036 RMK AO2 SLP281 T00441022 $
0177745966037262023010816567+39008-074908FM-15+0007KWWD V0209999V002152200059N0160935N5+00615-00115102765ADDGA1005+999999999GD10991+9999999GF100991999999999999999999MA1102745102665REMMET09301/08/23 11:56:02 METAR KWWD 081656Z VRB04KT 10SM CLR 06/M01 A3034 RMK AO2 SLP276 T00611011 $
0241745966037262023010817567+39008-074908FM-15+0007KWWD V0209999V002652200059N0160935N5+00615+00005102665ADDGA1005+999999999GD10991+9999999GF100991999999999999999999KA1060M+00671KA2060N+00061MA1102645102565MD1890209+9999REMMET11701/08/23 12:56:02 METAR KWWD 081756Z VRB05KT 10SM CLR 06/00 A3031 RMK AO2 PRESFR SLP266 T00610000 10067 20006 58020 $
0177745966037262023010818567+39008-074908FM-15+0007KWWD V0201505N002652200059N0160935N5+00565-00065102575ADDGA1005+999999999GD10991+9999999GF100991999999999999999999MA1102545102455REMMET09301/08/23 13:56:02 METAR KWWD 081856Z 15005KT 10SM CLR 06/M01 A3028 RMK AO2 SLP257 T00561006 $
0240745966037262023010819567+39008-074908FM-15+0007KWWD V0201905N00365036585MN0160935N5+00565-00065102575ADDGA1025+008845999GA2075+036585999GD11991+0088459GD23991+0365859GE19AGL   +99999+99999GF199999999999008841999999MA1102545102455REMMET10301/08/23 14:56:02 METAR KWWD 081956Z 19007KT 10SM FEW029 BKN120 06/M01 A3028 RMK AO2 SLP257 T00561006 $
0221745966037262023010820567+39008-074908FM-15+0007KWWD V0201705N00265030485MN0160935N5+00505+00005102575ADDGA1075+030485999GD13991+0304859GE19AGL   +99999+99999GF199999999999030481999999MA1102545102455MD1590089+9999REMMET10101/08/23 15:56:02 METAR KWWD 082056Z 17005KT 10SM BKN100 05/00 A3028 RMK AO2 SLP257 T00500000 55008 $
0220745966037262023010821567+39008-074908FM-15+0007KWWD V0201305N002152200059N0160935N5+00395+00065102475ADDGA1045+025915999GD12991+0259159GE19AGL   +99999+99999GF104995999999025911999999MA1102445102355REMMET09501/08/23 16:56:02 METAR KWWD 082156Z 13004KT 10SM SCT085 04/01 A3025 RMK AO2 SLP247 T00390006 $EQDD01      0ADE726
0201745966037262023010822567+39008-074908FM-15+0007KWWD V0201305N00215022865MN0160935N5+00445+00115102415ADDGA1085+022865999GD14991+0228659GE19AGL   +99999+99999GF199999999999022861999999MA1102405102325REMMET09501/08/23 17:56:02 METAR KWWD 082256Z 13004KT 10SM OVC075 04/01 A3024 RMK AO2 SLP241 T00440011 $
