0190745966037262024010100564+39009-074908FM-15+000799999V0201701N002112200059N016093199+00281+00001101731ADDGD11991+0335319GE19AGL   +99999+99999GF102995999999033531999999MA1101731999999REMMET081METAR KWWD 010056Z AUTO 17004KT 10SM FEW110 03/00 A3004 RMK AO2 SLP173 T00280000=EQDD01      0ADE726
0190745966037262024010101564+39009-074908FM-15+000799999V0209999C000012200059N016093199+00281+00061101741ADDGD12991+0335319GE19AGL   +99999+99999GF104995999999033531999999MA1101731999999REMMET081METAR KWWD 010156Z AUTO 00000KT 10SM SCT110 03/01 A3004 RMK AO2 SLP174 T00280006=EQDD01      0ADE726
0191745966037262024010102564+39009-074908FM-15+000799999V0209999C000010335319N016093199+00391+00111101761ADDGD13991+0335399GE19AGL   +99999+99999GF199999999999033531999999MA1101761999999MD1310011+9999REMMET087METAR KWWD 010256Z AUTO 00000KT 10SM BKN110 04/01 A3005 RMK AO2 SLP176 T00390011 53001=
0171745966037262024010103564+39009-074908FM-15+000799999V0202101N002610304819N016093199+00501+00221101761ADDGD14991+0304899GE19AGL   +99999+99999GF199999999999030481999999MA1101731999999REMMET081METAR KWWD 010356Z AUTO 21005KT 10SM OVC100 05/02 A3004 RMK AO2 SLP176 T00500022=
0235745966037262024010104567+39008-074908FM-15+0007KWWD V0202205N00155021345MN0160935N5+00565+00175101745ADDGA1085+021345999GD14991+0213459GE19AGL   +99999+99999GF199999999999021341999999KA1240M+00781KA2240N+00111MA1101735101645REMMET10312/31/23 23:56:02 METAR KWWD 010456Z 22003KT 10SM OVC070 06/02 A3004 RMK AO2 SLP174 T00560017 400780011
0257745966037262024010105567+39008-074908FM-15+0007KWWD V0201705N00155024385MN0160935N5+00505+00175101665ADDGA1085+024385999GD14991+0243859GE19AGL   +99999+99999GF199999999999024381999999KA1060M+00561KA2060N+00221MA1101635101545MD1890109+9999REMMET11101/01/24 00:56:02 METAR KWWD 010556Z 17003KT 10SM OVC080 05/02 A3001 RMK AO2 SLP166 T00500017 10056 20022 58010
0199745966037262024010106567+39008-074908FM-15+0007KWWD V0201905N00265021345MN0160935N5+00565+00175101655ADDGA1085+021345999GD14991+0213459GE19AGL   +99999+99999GF199999999999021341999999MA1101635101545REMMET09301/01/24 01:56:02 METAR KWWD 010656Z 19005KT 10SM OVC070 06/02 A3001 RMK AO2 SLP165 T00560017
0199745966037262024010107567+39008-074908FM-15+0007KWWD V0202005N00215016765MN0160935N5+00615+00285101645ADDGA1085+016765999GD14991+0167659GE19AGL   +99999+99999GF199999999999016761999999MA1101635101545REMMET09301/01/24 02:56:02 METAR KWWD 010756Z 20004KT 10SM OVC055 06/03 A3001 RMK AO2 SLP164 T00610028
0219745966037262024010108567+39008-074908FM-15+0007KWWD V0209999C00005019815MN0160935N5+00505+00335101595ADDGA1085+019815999GD14991+0198159GE19AGL   +99999+99999GF199999999999019811999999MA1101595101515MD1890069+9999REMMET09901/01/24 03:56:02 METAR KWWD 010856Z 00000KT 10SM OVC065 05/03 A3000 RMK AO2 SLP159 T00500033 58006
0237745966037262024010109567+39008-074908FM-15+0007KWWD V0209999C00005019815MN0160935N5+00445+00335101555ADDGA1075+019815999GA2075+036585999GD13991+0198159GD23991+0365859GE19AGL   +99999+99999GF199999999999019811999999MA1101525101445REMMET10001/01/24 04:56:02 METAR KWWD 010956Z 00000KT 10SM BKN065 BKN120 04/03 A2998 RMK AO2 SLP155 T00440033
0237745966037262024010110567+39008-074908FM-15+0007KWWD V0209999C00005019815MN0160935N5+00445+00335101605ADDGA1075+019815999GA2085+030485999GD13991+0198159GD24991+0304859GE19AGL   +99999+99999GF199999999999019811999999MA1101595101515REMMET10001/01/24 05:56:02 METAR KWWD 011056Z 00000KT 10SM BKN065 OVC100 04/03 A3000 RMK AO2 SLP160 T00440033
0257745966037262024010111567+39008-074908FM-15+0007KWWD V0209999C00005027435MN0160935N5+00395+00335101615ADDGA1075+027435999GD13991+0274359GE19AGL   +99999+99999GF199999999999027431999999KA1060M+00671KA2060N+00331MA1101595101515MD1390029+9999REMMET11101/01/24 06:56:02 METAR KWWD 011156Z 00000KT 10SM BKN090 04/03 A3000 RMK AO2 SLP161 T00390033 10067 20033 53002
0263745966037262024010112567+39008-074908FM-15+0007KWWD V0209999C00005021345MN0160935N5+00505+00445101645ADDAA101000021GA1025+016765999GA2085+021345999GD11991+0167659GD24991+0213459GE19AGL   +99999+99999GF199999999999016761999999MA1101635101545REMMET11501/01/24 07:56:02 METAR KWWD 011256Z 00000KT 10SM FEW055 OVC070 05/04 A3001 RMK AO2 RAB12E34 SLP164 P0000 T00500044
0301745966037262024010113567+39008-074908FM-15+0007KWWD V0203205N00155019815MN0160935N5+00565+00505101685ADDAA101000021GA1025+016765999GA2075+019815999GA3085+033535999GD11991+0167659GD23991+0198159GD34991+0335359GE19AGL   +99999+99999GF199999999999016761999999MA1101665101585REMMET12201/01/24 08:56:02 METAR KWWD 011356Z 32003KT 10SM FEW055 BKN065 OVC110 06/05 A3002 RMK AO2 RAB08E26 SLP168 P0000 T00560050
0309745966037262024010114567+39008-074908FM-15+0007KWWD V0209999N99999021345MN0160935N5+00725+00505101725ADDAA103000021GA1075+021345999GA2085+033535999GD13991+0213459GD24991+0335359GE19AGL   +99999+99999GF199999999999021341999999MA1101695101615MD1390109+9999REMMET11201/01/24 09:56:02 METAR KWWD 011456Z      KT 10SM BKN070 OVC110 07/05 A3003 RMK AO2 SLP172 60000 T00720050 53010EQDQ01  00002PRCP03Q02  00008PRCP03
0237745966037262024010115567+39008-074908FM-15+0007KWWD V0203105N00265019815MN0160935N5+00725+00445101725ADDGA1075+019815999GA2085+030485999GD13991+0198159GD24991+0304859GE19AGL   +99999+99999GF199999999999019811999999MA1101695101615REMMET10001/01/24 10:56:02 METAR KWWD 011556Z 31005KT 10SM BKN065 OVC100 07/04 A3003 RMK AO2 SLP172 T00720044
0199745966037262024010116567+39008-074908FM-15+0007KWWD V0203605N00365021345MN0160935N5+00675+00445101675ADDGA1085+021345999GD14991+0213459GE19AGL   +99999+99999GF199999999999021341999999MA1101665101585REMMET09301/01/24 11:56:02 METAR KWWD 011656Z 36007KT 10SM OVC070 07/04 A3002 RMK AO2 SLP167 T00670044
0309745966037262024010117567+39008-074908FM-15+0007KWWD V0203505N00155019815MN0160935N5+00725+00445101615ADDAA106000021GA1085+019815999GD14991+0198159GE19AGL   +99999+99999GF199999999999019811999999KA1060M+00781KA2060N+00391MA1101595101515MD1890109+9999REMMET11701/01/24 12:56:02 METAR KWWD 011756Z 35003KT 10SM OVC065 07/04 A3000 RMK AO2 SLP161 60000 T00720044 10078 20039 58010EQDQ01  00002PRCP06Q02  00008PRCP06
0237745966037262024010118567+39008-074908FM-15+0007KWWD V0203605N00315028965MN0160935N5+00785+00395101585ADDGA1025+018295999GA2085+028965999GD11991+0182959GD24991+0289659GE19AGL   +99999+99999GF199999999999018291999999MA1101565101475REMMET10001/01/24 13:56:02 METAR KWWD 011856Z 36006KT 10SM FEW060 OVC095 08/04 A2999 RMK AO2 SLP158 T00780039
0199745966037262024010119567+39008-074908FM-15+0007KWWD V0203305N00215018295MN0160935N5+00785+00335101615ADDGA1085+018295999GD14991+0182959GE19AGL   +99999+99999GF199999999999018291999999MA1101595101515REMMET09301/01/24 14:56:02 METAR KWWD 011956Z 33004KT 10SM OVC060 08/03 A3000 RMK AO2 SLP161 T00780033
0343745966037262024010120567+39008-074908FM-15+0007KWWD V0203305N00315019815MN0160935N5+00725+00445101635ADDAA101000021AA203000021AU110020015AW1615GA1075+019815999GA2085+027435999GD13991+0198159GD24991+0274359GE19AGL   +99999+99999GF199999999999019811999999MA1101635101545MD1390029+9999MW1615REMMET12801/01/24 15:56:02 METAR KWWD 012056Z 33006KT 10SM -RA BKN065 OVC090 07/04 A3001 RMK AO2 RAB50 SLP163 P0000 60000 T00720044 53002EQDQ01  00008PRCP03
0260745966037262024010121567+39008-074908FM-15+0007KWWD V0209999C00005016765MN0160935N5+00675+00445101695ADDAA101000021GA1025+009755999GA2085+016765999GD11991+0097559GD24991+0167659GE19AGL   +99999+99999GF199999999999009751999999MA1101665101585REMMET11201/01/24 16:56:02 METAR KWWD 012156Z 00000KT 10SM FEW032 OVC055 07/04 A3002 RMK AO2 RAE36 SLP169 P0000 T00670044
0225745966037262024010122567+39008-074908FM-15+0007KWWD V0203405N00215009145MN0160935N5+00675+00395101745ADDAA101000021GA1085+009145999GD14991+0091459GE19AGL   +99999+99999GF199999999999009141999999MA1101735101645REMMET10801/01/24 17:56:02 METAR KWWD 012256Z 34004KT 10SM OVC030 07/04 A3004 RMK AO2 RAB32E49 SLP174 P0000 T00670039
0232745966037262024010123437+39008-074908FM-15+0007KWWD V0203405N00265008535MN0160935N5+00705+00405999999ADDAA101000021AU110020015AW1615GA1085+008535999GD14991+0085359GE19AGL   +99999+99999GF199999999999008531999999MA1101765101685MW1615REMMET09201/01/24 18:43:02 METAR KWWD 012343Z 34005KT 10SM -RA OVC028 07/04 A3005 RMK AO2 RAB16 P0000
0343745966037262024010123567+39008-074908FM-15+0007KWWD V0203605N00215008535MN0160935N5+00675+00395101805ADDAA101000021AA206000021AU110020015AW1615GA1085+008535999GD14991+0085359GE19AGL   +99999+99999GF199999999999008531999999KA1060M+00831KA2060N+00671MA1101795101715MD1390179+9999MW1615REMMET13301/01/24 18:56:02 METAR KWWD 012356Z 36004KT 10SM -RA OVC028 07/04 A3006 RMK AO2 RAB16 SLP180 P0000 60000 T00670039 10083 20067 53017EQDQ01  00008PRCP06
0226745966037262024010200167+39008-074908FM-15+0007KWWD V0203605N00265009145MN0160935N5+00605+00405999999ADDAA101000021AU110020015AW1615GA1085+009145999GD14991+0091459GE19AGL   +99999+99999GF199999999999009141999999MA1101795101715MW1615REMMET08601/01/24 19:16:01 METAR KWWD 020016Z 36005KT 10SM -RA OVC030 06/04 A3006 RMK AO2 P0000
0260745966037262024010200567+39008-074908FM-15+0007KWWD V0209999C00005013115MN0160935N5+00615+00335101825ADDAA101000021GA1045+009755999GA2085+013115999GD12991+0097559GD24991+0131159GE19AGL   +99999+99999GF199999999999009751999999MA1101795101715REMMET11201/01/24 19:56:01 METAR KWWD 020056Z 00000KT 10SM SCT032 OVC043 06/03 A3006 RMK AO2 RAE32 SLP182 P0000 T00610033
0325745966037262024010201567+39008-074908FM-15+0007KWWD V0203405N00215012505MN0160935N5+00565+00395101845ADDAA101000021AU110020015AW1615GA1025+010365999GA2075+012505999GA3085+015245999GD11991+0103659GD23991+0125059GD34991+0152459GE19AGL   +99999+99999GF199999999999010361999999MA1101835101745MW1615REMMET12301/01/24 20:56:01 METAR KWWD 020156Z 34004KT 10SM -RA FEW034 BKN041 OVC050 06/04 A3007 RMK AO2 RAB38 SLP184 P0000 T00560039
0318745966037262024010202567+39008-074908FM-15+0007KWWD V0203405N00155010975MN0160935N5+00565+00335101865ADDAA101000021AA203000021GA1075+010975999GA2085+016765999GD13991+0109759GD24991+0167659GE19AGL   +99999+99999GF199999999999010971999999MA1101835101745MD1190059+9999REMMET12601/01/24 21:56:01 METAR KWWD 020256Z 34003KT 10SM BKN036 OVC055 06/03 A3007 RMK AO2 RAE0159 SLP186 P0000 60000 T00560033 51005EQDQ01  00008PRCP03
0199745966037262024010203567+39008-074908FM-15+0007KWWD V0203505N00315011585MN0160935N5+00565+00335101855ADDGA1085+011585999GD14991+0115859GE19AGL   +99999+99999GF199999999999011581999999MA1101835101745REMMET09301/01/24 22:56:01 METAR KWWD 020356Z 35006KT 10SM OVC038 06/03 A3007 RMK AO2 SLP185 T00560033
0235745966037262024010204567+39008-074908FM-15+0007KWWD V0203505N00415012805MN0160935N5+00565+00225101855ADDGA1085+012805999GD14991+0128059GE19AGL   +99999+99999GF199999999999012801999999KA1240M+00831KA2240N+00331MA1101835101745REMMET10301/01/24 23:56:02 METAR KWWD 020456Z 35008KT 10SM OVC042 06/02 A3007 RMK AO2 SLP185 T00560022 400830033
001574596603726202401020459O+39008-074908SOD  +0007KWWD V020999999999999999999999999999+99999+99999999999ADDAT1AU16RA  5
0331745966037262024010205567+39008-074908FM-15+0007KWWD V0200105N00365018295MN0160935N5+00505+00065101845ADDAA106000021GA1045+013725999GA2085+018295999GD12991+0137259GD24991+0182959GE19AGL   +99999+99999GF199999999999013721999999KA1060M+00671KA2060N+00501MA1101835101745MD1890029+9999REMMET12401/02/24 00:56:02 METAR KWWD 020556Z 01007KT 10SM SCT045 OVC060 05/01 A3007 RMK AO2 SLP184 60000 T00500006 10067 20050 58002EQDQ01  00008PRCP06
0200745966037262024010206567+39008-074908FM-15+0007KWWD V0203505N00415021345MN0160935N5+00445-00065101855ADDGA1085+021345999GD14991+0213459GE19AGL   +99999+99999GF199999999999021341999999MA1101835101745REMMET09401/02/24 01:56:02 METAR KWWD 020656Z 35008KT 10SM OVC070 04/M01 A3007 RMK AO2 SLP185 T00441006
0230745966037262024010207567+39008-074908FM-15+0007KWWD V0203605N004152200059N0160935N5+00335-00175101895ADDGA1045+022865999GD12991+0228659GE19AGL   +99999+99999GF104995999999022861999999MA1101865101785OC100725REMMET09701/02/24 02:56:02 METAR KWWD 020756Z 36008G14KT 10SM SCT075 03/M02 A3008 RMK AO2 SLP189 T00331017EQDD01      0ADE726
0213745966037262024010208567+39008-074908FM-15+0007KWWD V0203605V004652200059N0160935N5+00225-00175101905ADDGA1005+999999999GD10991+9999999GF100991999999999999999999MA1101865101785MD1190069+9999OC100825REMMET10701/02/24 03:56:02 METAR KWWD 020856Z 36009G16KT 10SM CLR 02/M02 A3008 RMK AO2 SLP190 T00221017 51006 FZRANO
0182745966037262024010209567+39008-074908FM-15+0007KWWD V0203605N003652200059N0160935N5+00175-00225101935ADDGA1005+999999999GD10991+9999999GF100991999999999999999999MA1101935101855REMMET09801/02/24 04:56:02 METAR KWWD 020956Z 36007KT 10SM CLR 02/M02 A3010 RMK AO2 SLP193 T00171022 FZRANO
0182745966037262024010210567+39008-074908FM-15+0007KWWD V0203605N004652200059N0160935N5+00065-00285102015ADDGA1005+999999999GD10991+9999999GF100991999999999999999999MA1102005101915REMMET09801/02/24 05:56:02 METAR KWWD 021056Z 36009KT 10SM CLR 01/M03 A3012 RMK AO2 SLP201 T00061028 FZRANO
0240745966037262024010211567+39008-074908FM-15+0007KWWD V0203505N004152200059N0160935N5+00005-00285102055ADDGA1005+999999999GD10991+9999999GF100991999999999999999999KA1060M+00501KA2060N+00001MA1102035101955MD1390159+9999REMMET11601/02/24 06:56:02 METAR KWWD 021156Z 35008KT 10SM CLR 00/M03 A3013 RMK AO2 SLP205 T00001028 10050 20000 53015 FZRANO
0201745966037262024010212207+39008-074908FM-15+0007KWWD V0203605N00365008535MN0160935N5+00105-00305999999ADDGA1075+008535999GD13991+0085359GE19AGL   +99999+99999GF199999999999008531999999MA1102075101985OC100725REMMET08701/02/24 07:20:02 METAR KWWD 021220Z 36007G14KT 10SM BKN028 01/M03 A3014 RMK AO2 FZRANO
0218745966037262024010212567+39008-074908FM-15+0007KWWD V0200105N00315008535MN0160935N5+00115-00285102135ADDGA1085+008535999GD14991+0085359GE19AGL   +99999+99999GF199999999999008531999999MA1102105102015OC100725REMMET10401/02/24 07:56:02 METAR KWWD 021256Z 01006G14KT 10SM OVC028 01/M03 A3015 RMK AO2 SLP213 T00111028 FZRANO
0207745966037262024010213567+39008-074908FM-15+0007KWWD V0203605N00365008535MN0160935N5+00175-00285102175ADDGA1085+008535999GD14991+0085359GE19AGL   +99999+99999GF199999999999008531999999MA1102175102085REMMET10101/02/24 08:56:02 METAR KWWD 021356Z 36007KT 10SM OVC028 02/M03 A3017 RMK AO2 SLP217 T00171028 FZRANO
0190745966037262024010214487+39008-074908FM-15+0007KWWD V0200105N00365009145MN0160935N5+00205-00305999999ADDGA1085+009145999GD14991+0091459GE19AGL   +99999+99999GF199999999999009141999999MA1102175102085REMMET08401/02/24 09:48:02 METAR KWWD 021448Z 01007KT 10SM OVC030 02/M03 A3017 RMK AO2 FZRANO
0227745966037262024010214567+39008-074908FM-15+0007KWWD V0203605N00365009145MN0160935N5+00225-00285102205ADDGA1085+009145999GD14991+0091459GE19AGL   +99999+99999GF199999999999009141999999MA1102175102085MD1190159+9999REMMET10701/02/24 09:56:02 METAR KWWD 021456Z 36007KT 10SM OVC030 02/M03 A3017 RMK AO2 SLP220 T00221028 51015 FZRANO
0211745966037262024010215567+39008-074908FM-15+0007KWWD V0203505N00575009145MN0160935N5+00335-00285102105ADDGA1085+009145999GD14991+0091459GE19AGL   +99999+99999GF199999999999009141999999MA1102105102015OC100885REMMET09701/02/24 10:56:02 METAR KWWD 021556Z 35011G17KT 10SM OVC030 03/M03 A3015 RMK AO2 SLP210 T00331028
0183745966037262024010216267+39008-074908FM-15+0007KWWD V0203305V00515008535MN0160935N5+00305-00305999999ADDGA1085+008535999GD14991+0085359GE19AGL   +99999+99999GF199999999999008531999999MA1102035101955REMMET07701/02/24 11:26:02 METAR KWWD 021626Z 33010KT 10SM OVC028 03/M03 A3013 RMK AO2
0211745966037262024010216567+39008-074908FM-15+0007KWWD V0203305N00365008535MN0160935N5+00395-00225101985ADDGA1085+008535999GD14991+0085359GE19AGL   +99999+99999GF199999999999008531999999MA1101965101885OC100775REMMET09701/02/24 11:56:02 METAR KWWD 021656Z 33007G15KT 10SM OVC028 04/M02 A3011 RMK AO2 SLP198 T00391022
0269745966037262024010217567+39008-074908FM-15+0007KWWD V0203205V00515008535MN0160935N5+00395-00225101875ADDGA1075+008535999GD13991+0085359GE19AGL   +99999+99999GF199999999999008531999999KA1060M+00441KA2060N+00001MA1101865101785MD1890339+9999OC100825REMMET11501/02/24 12:56:02 METAR KWWD 021756Z 32010G16KT 10SM BKN028 04/M02 A3008 RMK AO2 SLP187 T00391022 10044 20000 58033
0213745966037262024010218167+39008-074908FM-15+0007KWWD V0203205N005752200059N0160935N5+00405-00205999999ADDGA1025+008535999GD11991+0085359GE19AGL   +99999+99999GF102995999999008531999999MA1101835101745OC100885REMMET08001/02/24 13:16:02 METAR KWWD 021816Z 32011G17KT 10SM FEW028 04/M02 A3007 RMK AO2EQDD01      0ADE726
0230745966037262024010218567+39008-074908FM-15+0007KWWD V0203105N004652200059N0160935N5+00445-00175101805ADDGA1025+008535999GD11991+0085359GE19AGL   +99999+99999GF102995999999008531999999MA1101795101715OC100985REMMET09701/02/24 13:56:02 METAR KWWD 021856Z 31009G19KT 10SM FEW028 04/M02 A3006 RMK AO2 SLP180 T00441017EQDD01      0ADE726
0186745966037262024010219567+39008-074908FM-15+0007KWWD V0202905N006252200059N0160935N5+00505-00175101815ADDGA1005+999999999GD10991+9999999GF100991999999999999999999MA1101795101715OC101035REMMET09401/02/24 14:56:02 METAR KWWD 021956Z 29012G20KT 10SM CLR 05/M02 A3006 RMK AO2 SLP181 T00501017
0206745966037262024010220567+39008-074908FM-15+0007KWWD V0203005N005152200059N0160935N5+00505-00225101815ADDGA1005+999999999GD10991+9999999GF100991999999999999999999MA1101795101715MD1690069+9999OC100725REMMET10001/02/24 15:56:02 METAR KWWD 022056Z 30010G14KT 10SM CLR 05/M02 A3006 RMK AO2 SLP181 T00501022 56006
0175745966037262024010221567+39008-074908FM-15+0007KWWD V0203205N002652200059N0160935N5+00445-00225101845ADDGA1005+999999999GD10991+9999999GF100991999999999999999999MA1101835101745REMMET09101/02/24 16:56:02 METAR KWWD 022156Z 32005KT 10SM CLR 04/M02 A3007 RMK AO2 SLP184 T00441022
0175745966037262024010222567+39008-074908FM-15+0007KWWD V0209999V002652200059N0160935N5+00445-00175101875ADDGA1005+999999999GD10991+9999999GF100991999999999999999999MA1101865101785REMMET09101/02/24 17:56:02 METAR KWWD 022256Z VRB05KT 10SM CLR 04/M02 A3008 RMK AO2 SLP187 T00441017
0233745966037262024010223567+39008-074908FM-15+0007KWWD V0203005N002152200059N0160935N5+00445-00175101905ADDGA1005+999999999GD10991+9999999GF100991999999999999999999KA1060M+00501KA2060N+00391MA1101905101815MD1390099+9999REMMET10901/02/24 18:56:02 METAR KWWD 022356Z 30004KT 10SM CLR 04/M02 A3009 RMK AO2 SLP190 T00441017 10050 20039 53009
0175745966037262024010300567+39008-074908FM-15+0007KWWD V0203205N001552200059N0160935N5+00395-00175101885ADDGA1005+999999999GD10991+9999999GF100991999999999999999999MA1101865101785REMMET09101/02/24 19:56:01 METAR KWWD 030056Z 32003KT 10SM CLR 04/M02 A3008 RMK AO2 SLP188 T00391017
0175745966037262024010301567+39008-074908FM-15+0007KWWD V0202905N002152200059N0160935N5+00395-00115101915ADDGA1005+999999999GD10991+9999999GF100991999999999999999999MA1101905101815REMMET09101/02/24 20:56:01 METAR KWWD 030156Z 29004KT 10SM CLR 04/M01 A3009 RMK AO2 SLP191 T00391011
0195745966037262024010302567+39008-074908FM-15+0007KWWD V0202905N002152200059N0160935N5+00395-00175101895ADDGA1005+999999999GD10991+9999999GF100991999999999999999999MA1101865101785MD1690019+9999REMMET09701/02/24 21:56:01 METAR KWWD 030256Z 29004KT 10SM CLR 04/M02 A3008 RMK AO2 SLP189 T00391017 56001
0175745966037262024010303567+39008-074908FM-15+0007KWWD V0203005N002152200059N0160935N5+00395-00175101895ADDGA1005+999999999GD10991+9999999GF100991999999999999999999MA1101865101785REMMET09101/02/24 22:56:02 METAR KWWD 030356Z 30004KT 10SM CLR 04/M02 A3008 RMK AO2 SLP189 T00391017
0211745966037262024010304567+39008-074908FM-15+0007KWWD V0203005N003152200059N0160935N5+00335-00115101875ADDGA1005+999999999GD10991+9999999GF100991999999999999999999KA1240M+00561KA2240N+00001MA1101865101785REMMET10101/02/24 23:56:02 METAR KWWD 030456Z 30006KT 10SM CLR 03/M01 A3008 RMK AO2 SLP187 T00331011 400560000
0233745966037262024010305567+39008-074908FM-15+0007KWWD V0203005N003152200059N0160935N5+00335-00115101845ADDGA1005+999999999GD10991+9999999GF100991999999999999999999KA1060M+00441KA2060N+00331MA1101835101745MD1890059+9999REMMET10901/03/24 00:56:02 METAR KWWD 030556Z 30006KT 10SM CLR 03/M01 A3007 RMK AO2 SLP184 T00331011 10044 20033 58005
0175745966037262024010306567+39008-074908FM-15+0007KWWD V0203205N003652200059N0160935N5+00285-00115101865ADDGA1005+999999999GD10991+9999999GF100991999999999999999999MA1101835101745REMMET09101/03/24 01:56:02 METAR KWWD 030656Z 32007KT 10SM CLR 03/M01 A3007 RMK AO2 SLP186 T00281011
0175745966037262024010307567+39008-074908FM-15+0007KWWD V0203105N003652200059N0160935N5+00285-00115101875ADDGA1005+999999999GD10991+9999999GF100991999999999999999999MA1101865101785REMMET09101/03/24 02:56:02 METAR KWWD 030756Z 31007KT 10SM CLR 03/M01 A3008 RMK AO2 SLP187 T00281011
0195745966037262024010308567+39008-074908FM-15+0007KWWD V0209999V002152200059N0160935N5+00285-00115101865ADDGA1005+999999999GD10991+9999999GF100991999999999999999999MA1101835101745MD1090029+9999REMMET09701/03/24 03:56:02 METAR KWWD 030856Z VRB04KT 10SM CLR 03/M01 A3007 RMK AO2 SLP186 T00281011 50002
0182745966037262024010309567+39008-074908FM-15+0007KWWD V0209999V002652200059N0160935N5+00225-00175101865ADDGA1005+999999999GD10991+9999999GF100991999999999999999999MA1101835101745REMMET09801/03/24 04:56:01 METAR KWWD 030956Z VRB05KT 10SM CLR 02/M02 A3007 RMK AO2 SLP186 T00221017 FZRANO
0182745966037262024010310567+39008-074908FM-15+0007KWWD V0203005N002652200059N0160935N5+00225-00175101905ADDGA1005+999999999GD10991+9999999GF100991999999999999999999MA1101905101815REMMET09801/03/24 05:56:01 METAR KWWD 031056Z 30005KT 10SM CLR 02/M02 A3009 RMK AO2 SLP190 T00221017 FZRANO
0240745966037262024010311567+39008-074908FM-15+0007KWWD V0203105N002652200059N0160935N5+00225-00175101975ADDGA1005+999999999GD10991+9999999GF100991999999999999999999KA1060M+00331KA2060N+00221MA1101965101885MD1390119+9999REMMET11601/03/24 06:56:02 METAR KWWD 031156Z 31005KT 10SM CLR 02/M02 A3011 RMK AO2 SLP197 T00221017 10033 20022 53011 FZRANO
0175745966037262024010312567+39008-074908FM-15+0007KWWD V0203005N003152200059N0160935N5+00285-00175102005ADDGA1005+999999999GD10991+9999999GF100991999999999999999999MA1101965101885REMMET09101/03/24 07:56:02 METAR KWWD 031256Z 30006KT 10SM CLR 03/M02 A3011 RMK AO2 SLP200 T00281017
0175745966037262024010313567+39008-074908FM-15+0007KWWD V0203205N002652200059N0160935N5+00335-00175102015ADDGA1005+999999999GD10991+9999999GF100991999999999999999999MA1102005101915REMMET09101/03/24 08:56:02 METAR KWWD 031356Z 32005KT 10SM CLR 03/M02 A3012 RMK AO2 SLP201 T00331017
0195745966037262024010314567+39008-074908FM-15+0007KWWD V0203005V003652200059N0160935N5+00445-00225101985ADDGA1005+999999999GD10991+9999999GF100991999999999999999999MA1101965101885MD1090019+9999REMMET09701/03/24 09:56:02 METAR KWWD 031456Z 30007KT 10SM CLR 04/M02 A3011 RMK AO2 SLP198 T00441022 50001
0175745966037262024010315567+39008-074908FM-15+0007KWWD V0203005V004152200059N0160935N5+00445-00175101985ADDGA1005+999999999GD10991+9999999GF100991999999999999999999MA1101965101885REMMET09101/03/24 10:56:02 METAR KWWD 031556Z 30008KT 10SM CLR 04/M02 A3011 RMK AO2 SLP198 T00441017
0175745966037262024010316567+39008-074908FM-15+0007KWWD V0203005N003652200059N0160935N5+00445-00115101935ADDGA1005+999999999GD10991+9999999GF100991999999999999999999MA1101905101815REMMET09101/03/24 11:56:02 METAR KWWD 031656Z 30007KT 10SM CLR 04/M01 A3009 RMK AO2 SLP193 T00441011
0233745966037262024010317567+39008-074908FM-15+0007KWWD V0203105N003152200059N0160935N5+00505-00115101845ADDGA1005+999999999GD10991+9999999GF100991999999999999999999KA1060M+00501KA2060N+00221MA1101835101745MD1890149+9999REMMET10901/03/24 12:56:02 METAR KWWD 031756Z 31006KT 10SM CLR 05/M01 A3007 RMK AO2 SLP184 T00501011 10050 20022 58014
0175745966037262024010318567+39008-074908FM-15+0007KWWD V0202905N004152200059N0160935N5+00505-00175101735ADDGA1005+999999999GD10991+9999999GF100991999999999999999999MA1101735101645REMMET09101/03/24 13:56:02 METAR KWWD 031856Z 29008KT 10SM CLR 05/M02 A3004 RMK AO2 SLP173 T00501017
0175745966037262024010319567+39008-074908FM-15+0007KWWD V0203005N002652200059N0160935N5+00505-00225101705ADDGA1005+999999999GD10991+9999999GF100991999999999999999999MA1101695101615REMMET09101/03/24 14:56:02 METAR KWWD 031956Z 30005KT 10SM CLR 05/M02 A3003 RMK AO2 SLP170 T00501022
0195745966037262024010320567+39008-074908FM-15+0007KWWD V0202805N002152200059N0160935N5+00505-00175101755ADDGA1005+999999999GD10991+9999999GF100991999999999999999999MA1101735101645MD1590099+9999REMMET09701/03/24 15:56:02 METAR KWWD 032056Z 28004KT 10SM CLR 05/M02 A3004 RMK AO2 SLP175 T00501017 55009
0175745966037262024010321567+39008-074908FM-15+0007KWWD V0203305N001552200059N0160935N5+00335-00115101715ADDGA1005+999999999GD10991+9999999GF100991999999999999999999MA1101695101615REMMET09101/03/24 16:56:02 METAR KWWD 032156Z 33003KT 10SM CLR 03/M01 A3003 RMK AO2 SLP171 T00331011
0175745966037262024010322567+39008-074908FM-15+0007KWWD V0209999C000052200059N0160935N5+00335-00115101775ADDGA1005+999999999GD10991+9999999GF100991999999999999999999MA1101765101685REMMET09101/03/24 17:56:02 METAR KWWD 032256Z 00000KT 10SM CLR 03/M01 A3005 RMK AO2 SLP177 T00331011
0240745966037262024010323567+39008-074908FM-15+0007KWWD V0209999C000052200059N0160935N5+00175-00115101765ADDGA1005+999999999GD10991+9999999GF100991999999999999999999KA1060M+00561KA2060N+00171MA1101765101685MD1390029+9999REMMET11601/03/24 18:56:02 METAR KWWD 032356Z 00000KT 10SM CLR 02/M01 A3005 RMK AO2 SLP176 T00171011 10056 20017 53002 FZRANO
0182745966037262024010400567+39008-074908FM-15+0007KWWD V0209999C000052200059N0160935N5+00175-00115101725ADDGA1005+999999999GD10991+9999999GF100991999999999999999999MA1101695101615REMMET09801/03/24 19:56:01 METAR KWWD 040056Z 00000KT 10SM CLR 02/M01 A3003 RMK AO2 SLP172 T00171011 FZRANO
0181745966037262024010401567+39008-074908FM-15+0007KWWD V0209999C000052200059N0160935N5+00175+00005101715ADDGA1005+999999999GD10991+9999999GF100991999999999999999999MA1101695101615REMMET09701/03/24 20:56:01 METAR KWWD 040156Z 00000KT 10SM CLR 02/00 A3003 RMK AO2 SLP171 T00170000 FZRANO
0201745966037262024010402567+39008-074908FM-15+0007KWWD V0209999C000052200059N0160935N5+00225+00005101705ADDGA1005+999999999GD10991+9999999GF100991999999999999999999MA1101695101615MD1690079+9999REMMET10301/03/24 21:56:01 METAR KWWD 040256Z 00000KT 10SM CLR 02/00 A3003 RMK AO2 SLP170 T00220000 56007 FZRANO
0225745966037262024010403567+39008-074908FM-15+0007KWWD V0209999C000052200059N0160935N5+00225+00065101685ADDGA1025+036585999GD11991+0365859GE19AGL   +99999+99999GF102995999999036581999999MA1101665101585REMMET10001/03/24 22:56:01 METAR KWWD 040356Z 00000KT 10SM FEW120 02/01 A3002 RMK AO2 SLP168 T00220006 FZRANOEQDD01      0ADE726
0242745966037262024010404567+39008-074908FM-15+0007KWWD V0209999C00005033535MN0160935N5+00225+00115101645ADDGA1075+033535999GD13991+0335359GE19AGL   +99999+99999GF199999999999033531999999KA1240M+00561KA2240N+00171MA1101635101545REMMET11001/03/24 23:56:02 METAR KWWD 040456Z 00000KT 10SM BKN110 02/01 A3001 RMK AO2 SLP164 T00220011 400560017 FZRANO
0257745966037262024010405567+39008-074908FM-15+0007KWWD V0209999C00005033535MN0160935N5+00285+00115101585ADDGA1085+033535999GD14991+0335359GE19AGL   +99999+99999GF199999999999033531999999KA1060M+00281KA2060N+00171MA1101565101475MD1890129+9999REMMET11101/04/24 00:56:02 METAR KWWD 040556Z 00000KT 10SM OVC110 03/01 A2999 RMK AO2 SLP158 T00280011 10028 20017 58012
0181745966037262024010406567+39008-074908FM-15+0007KWWD V0209999C000052200059N0160935N5+00225+00115101545ADDGA1005+999999999GD10991+9999999GF100991999999999999999999MA1101525101445REMMET09701/04/24 01:56:02 METAR KWWD 040656Z 00000KT 10SM CLR 02/01 A2998 RMK AO2 SLP154 T00220011 FZRANO
0225745966037262024010407567+39008-074908FM-15+0007KWWD V0209999C000052200059N0160935N5+00225+00115101505ADDGA1025+019815999GD11991+0198159GE19AGL   +99999+99999GF102995999999019811999999MA1101495101415REMMET10001/04/24 02:56:02 METAR KWWD 040756Z 00000KT 10SM FEW065 02/01 A2997 RMK AO2 SLP150 T00220011 FZRANOEQDD01      0ADE726
0245745966037262024010408567+39008-074908FM-15+0007KWWD V0203305N001552200059N0160935N5+00175+00115101455ADDGA1045+030485999GD12991+0304859GE19AGL   +99999+99999GF104995999999030481999999MA1101425101345MD1890139+9999REMMET10601/04/24 03:56:02 METAR KWWD 040856Z 33003KT 10SM SCT100 02/01 A2995 RMK AO2 SLP145 T00170011 58013 FZRANOEQDD01      0ADE726
0225745966037262024010409567+39008-074908FM-15+0007KWWD V0209999C000052200059N0160935N5+00175+00115101425ADDGA1025+022865999GD11991+0228659GE19AGL   +99999+99999GF102995999999022861999999MA1101395101305REMMET10001/04/24 04:56:02 METAR KWWD 040956Z 00000KT 10SM FEW075 02/01 A2994 RMK AO2 SLP142 T00170011 FZRANOEQDD01      0ADE726
0275745966037262024010410567+39008-074908FM-15+0007KWWD V0209999C00005011895MN0160935N5+00285+00175101495ADDGA1075+011895999GA2075+014025999GA3085+019815999GD13991+0118959GD23991+0140259GD34991+0198159GE19AGL   +99999+99999GF199999999999011891999999MA1101465101375REMMET10701/04/24 05:56:02 METAR KWWD 041056Z 00000KT 10SM BKN039 BKN046 OVC065 03/02 A2996 RMK AO2 SLP149 T00280017
0419745966037262024010411567+39008-074908FM-15+0007KWWD V0203405N00265012195MN0160935N5+00395+00175101525ADDAA101000021AA206000021AU110020015AW1615GA1025+006715999GA2075+012195999GA3085+015245999GD11991+0067159GD23991+0121959GD34991+0152459GE19AGL   +99999+99999GF199999999999006711999999KA1060M+00441KA2060N+00171MA1101495101415MD1390069+9999MW1615REMMET14701/04/24 06:56:02 METAR KWWD 041156Z 34005KT 10SM -RA FEW022 BKN040 OVC050 04/02 A2997 RMK AO2 RAB19 SLP152 P0000 60000 T00390017 10044 20017 53006EQDQ01  00008PRCP06
0222745966037262024010412567+39008-074908FM-15+0007KWWD V0209999N99999016765MN0160935N5+00395+00225101555ADDAA101000021GA1085+016765999GD14991+0167659GE19AGL   +99999+99999GF199999999999016761999999MA1101525101445REMMET10501/04/24 07:56:02 METAR KWWD 041256Z      KT 10SM OVC055 04/02 A2998 RMK AO2 RAE52 SLP155 P0000 T00390022
0237745966037262024010413567+39008-074908FM-15+0007KWWD V0203105N00265021345MN0160935N5+00505+00115101575ADDGA1075+021345999GA2075+028965999GD13991+0213459GD23991+0289659GE19AGL   +99999+99999GF199999999999021341999999MA1101565101475REMMET10001/04/24 08:56:02 METAR KWWD 041356Z 31005KT 10SM BKN070 BKN095 05/01 A2999 RMK AO2 SLP157 T00500011
0331745966037262024010414567+39008-074908FM-15+0007KWWD V0203405N00315019815MN0160935N5+00505+00175101635ADDAA103000021GA1025+014945999GA2075+019815999GA3085+027435999GD11991+0149459GD23991+0198159GD34991+0274359GE19AGL   +99999+99999GF199999999999014941999999MA1101635101545MD1390119+9999REMMET11901/04/24 09:56:02 METAR KWWD 041456Z 34006KT 10SM FEW049 BKN065 OVC090 05/02 A3001 RMK AO2 SLP163 60000 T00500017 53011EQDQ01  00008PRCP03
0237745966037262024010415567+39008-074908FM-15+0007KWWD V0203105N00415018295MN0160935N5+00505+00115101645ADDGA1075+018295999GA2085+022865999GD13991+0182959GD24991+0228659GE19AGL   +99999+99999GF199999999999018291999999MA1101635101545REMMET10001/04/24 10:56:02 METAR KWWD 041556Z 31008KT 10SM BKN060 OVC075 05/01 A3001 RMK AO2 SLP164 T00500011
0210745966037262024010416567+39008-074908FM-15+0007KWWD V0203105N00415022865MN0160935N5+00565+00065101615ADDGA1085+022865999GD14991+0228659GE19AGL   +99999+99999GF199999999999022861999999MA1101595101515OC100775REMMET09601/04/24 11:56:02 METAR KWWD 041656Z 31008G15KT 10SM OVC075 06/01 A3000 RMK AO2 SLP161 T00560006
0320745966037262024010417567+39008-074908FM-15+0007KWWD V0203105N005152200059N0160935N5+00675+00065101565ADDAA106000021GA1045+019815999GD12991+0198159GE19AGL   +99999+99999GF104995999999019811999999KA1060M+00671KA2060N+00391MA1101525101445MD1890079+9999OC100825REMMET12001/04/24 12:56:02 METAR KWWD 041756Z 31010G16KT 10SM SCT065 07/01 A2998 RMK AO2 SLP156 60000 T00670006 10067 20039 58007EQDQ01  00008PRCP06D01      0ADE726
0230745966037262024010418567+39008-074908FM-15+0007KWWD V0203205N006252200059N0160935N5+00675-00115101605ADDGA1025+021345999GD11991+0213459GE19AGL   +99999+99999GF102995999999021341999999MA1101595101515OC100985REMMET09701/04/24 13:56:02 METAR KWWD 041856Z 32012G19KT 10SM FEW070 07/M01 A3000 RMK AO2 SLP160 T00671011EQDD01      0ADE726
0249745966037262024010419567+39008-074908FM-15+0007KWWD V0203305N00575018295MN0160935N5+00615-00115101655ADDGA1045+014335999GA2085+018295999GD12991+0143359GD24991+0182959GE19AGL   +99999+99999GF199999999999014331999999MA1101635101545OC100985REMMET10401/04/24 14:56:02 METAR KWWD 041956Z 33011G19KT 10SM SCT047 OVC060 06/M01 A3001 RMK AO2 SLP165 T00611011
0269745966037262024010420567+39008-074908FM-15+0007KWWD V0203305N00625018295MN0160935N5+00565-00335101745ADDGA1025+013415999GA2085+018295999GD11991+0134159GD24991+0182959GE19AGL   +99999+99999GF199999999999013411999999MA1101735101645MD1390199+9999OC100985REMMET11001/04/24 15:56:02 METAR KWWD 042056Z 33012G19KT 10SM FEW044 OVC060 06/M03 A3004 RMK AO2 SLP174 T00561033 53019
0249745966037262024010421567+39008-074908FM-15+0007KWWD V0203205N00575018295MN0160935N5+00505-00395101855ADDGA1045+014945999GA2075+018295999GD12991+0149459GD23991+0182959GE19AGL   +99999+99999GF199999999999014941999999MA1101835101745OC101085REMMET10401/04/24 16:56:02 METAR KWWD 042156Z 32011G21KT 10SM SCT049 BKN060 05/M04 A3007 RMK AO2 SLP185 T00501039
0186745966037262024010422567+39008-074908FM-15+0007KWWD V0203205V004152200059N0160935N5+00445-00225101965ADDGA1005+999999999GD10991+9999999GF100991999999999999999999MA1101935101855OC100725REMMET09401/04/24 17:56:02 METAR KWWD 042256Z 32008G14KT 10SM CLR 04/M02 A3010 RMK AO2 SLP196 T00441022
0244745966037262024010423567+39008-074908FM-15+0007KWWD V0203305V004152200059N0160935N5+00445-00445102105ADDGA1005+999999999GD10991+9999999GF100991999999999999999999KA1060M+00721KA2060N+00441MA1102075101985MD1390369+9999OC100985REMMET11201/04/24 18:56:02 METAR KWWD 042356Z 33008G19KT 10SM CLR 04/M04 A3014 RMK AO2 SLP210 T00441044 10072 20044 53036
0175745966037262024010500567+39008-074908FM-15+0007KWWD V0203305N005152200059N0160935N5+00335-00565102175ADDGA1005+999999999GD10991+9999999GF100991999999999999999999MA1102135102055REMMET09101/04/24 19:56:01 METAR KWWD 050056Z 33010KT 10SM CLR 03/M06 A3016 RMK AO2 SLP217 T00331056
0186745966037262024010501567+39008-074908FM-15+0007KWWD V0203305V005152200059N0160935N5+00285-00615102255ADDGA1005+999999999GD10991+9999999GF100991999999999999999999MA1102245102155OC100825REMMET09401/04/24 20:56:02 METAR KWWD 050156Z 33010G16KT 10SM CLR 03/M06 A3019 RMK AO2 SLP225 T00281061
0213745966037262024010502567+39008-074908FM-15+0007KWWD V0203105N005152200059N0160935N5+00225-00675102345ADDGA1005+999999999GD10991+9999999GF100991999999999999999999MA1102345102255MD1390249+9999OC100985REMMET10701/04/24 21:56:02 METAR KWWD 050256Z 31010G19KT 10SM CLR 02/M07 A3022 RMK AO2 SLP234 T00221067 53024 FZRANO
0193745966037262024010503567+39008-074908FM-15+0007KWWD V0203405N005152200059N0160935N5+00175-00785102365ADDGA1005+999999999GD10991+9999999GF100991999999999999999999MA1102345102255OC100985REMMET10101/04/24 22:56:02 METAR KWWD 050356Z 34010G19KT 10SM CLR 02/M08 A3022 RMK AO2 SLP236 T00171078 FZRANO
0229745966037262024010504567+39008-074908FM-15+0007KWWD V0203405N006752200059N0160935N5+00065-00895102435ADDGA1005+999999999GD10991+9999999GF100991999999999999999999KA1240M+00721KA2240N+00061MA1102405102325OC100985REMMET11101/04/24 23:56:02 METAR KWWD 050456Z 34013G19KT 10SM CLR 01/M09 A3024 RMK AO2 SLP243 T00061089 400720006 FZRANO
001574596603726202401050459O+39008-074908SOD  +0007KWWD V020999999999999999999999999999+99999+99999999999ADDAT1AU16RA  5
0251745966037262024010505567+39008-074908FM-15+0007KWWD V0203405N005152200059N0160935N5+00005-00785102455ADDGA1005+999999999GD10991+9999999GF100991999999999999999999KA1060M+00441KA2060N+00001MA1102445102355MD1190109+9999OC100725REMMET11901/05/24 00:56:02 METAR KWWD 050556Z 34010G14KT 10SM CLR 00/M08 A3025 RMK AO2 SLP245 T00001078 10044 20000 51010 FZRANO
0194745966037262024010506567+39008-074908FM-15+0007KWWD V0203405V005752200059N0160935N5-00065-00835102495ADDGA1005+999999999GD10991+9999999GF100991999999999999999999MA1102475102395OC100885REMMET10201/05/24 01:56:02 METAR KWWD 050656Z 34011G17KT 10SM CLR M01/M08 A3026 RMK AO2 SLP249 T10061083 FZRANO
0203745966037262024010508567+39008-074908FM-15+0007KWWD V0203405V003652200059N0160935N5-00175-00785102635ADDGA1005+999999999GD10991+9999999GF100991999999999999999999MA1102615102525MD1290189+9999REMMET10501/05/24 03:56:02 METAR KWWD 050856Z 34007KT 10SM CLR M02/M08 A3030 RMK AO2 SLP263 T10171078 52018 FZRANO
0208745966037262024010514567+39008-074908FM-15+0007KWWD V0203305N004652200059N0160935N5-00065-00785103005ADDGA1005+999999999GD10991+9999999GF100991999999999999999999MA1102985102895MD1190189+9999REMMET11001/05/24 09:56:02 METAR KWWD 051456Z 33009KT 10SM CLR M01/M08 A3041 RMK AO2 SLP300 T10061078 51018 FZRANO TSNO
0245745966037262024010517567+39008-074908FM-15+0007KWWD V0203205N003152200059N0160935N5+00065-00725102735ADDGA1005+999999999GD10991+9999999GF100991999999999999999999KA1060M+00111KA2060N-00281MA1102715102625MD1890279+9999REMMET12101/05/24 12:56:02 METAR KWWD 051756Z 32006KT 10SM CLR 01/M07 A3033 RMK AO2 SLP273 T00061072 10011 21028 58027 FZRANO TSNO
0182745966037262024010518567+39008-074908FM-15+0007KWWD V0202905N003652200059N0160935N5+00175-00615102665ADDGA1005+999999999GD10991+9999999GF100991999999999999999999MA1102645102565REMMET09801/05/24 13:56:02 METAR KWWD 051856Z 29007KT 10SM CLR 02/M06 A3031 RMK AO2 SLP266 T00171061 FZRANO
0182745966037262024010519567+39008-074908FM-15+0007KWWD V0202905N003152200059N0160935N5+00175-00615102615ADDGA1005+999999999GD10991+9999999GF100991999999999999999999MA1102575102495REMMET09801/05/24 14:56:02 METAR KWWD 051956Z 29006KT 10SM CLR 02/M06 A3029 RMK AO2 SLP261 T00171061 FZRANO
0202745966037262024010520567+39008-074908FM-15+0007KWWD V0202705N002652200059N0160935N5+00115-00615102585ADDGA1005+999999999GD10991+9999999GF100991999999999999999999MA1102575102495MD1690169+9999REMMET10401/05/24 15:56:02 METAR KWWD 052056Z 27005KT 10SM CLR 01/M06 A3029 RMK AO2 SLP258 T00111061 56016 FZRANO
0182745966037262024010521567+39008-074908FM-15+0007KWWD V0209999C000052200059N0160935N5+00065-00565102595ADDGA1005+999999999GD10991+9999999GF100991999999999999999999MA1102575102495REMMET09801/05/24 16:56:02 METAR KWWD 052156Z 00000KT 10SM CLR 01/M06 A3029 RMK AO2 SLP259 T00061056 FZRANO
0183745966037262024010522567+39008-074908FM-15+0007KWWD V0209999C000052200059N0160935N5-00225-00565102605ADDGA1005+999999999GD10991+9999999GF100991999999999999999999MA1102575102495REMMET09901/05/24 17:56:02 METAR KWWD 052256Z 00000KT 10SM CLR M02/M06 A3029 RMK AO2 SLP260 T10221056 FZRANO
0241745966037262024010523567+39008-074908FM-15+0007KWWD V0209999C000052200059N0160935N5-00285-00565102685ADDGA1005+999999999GD10991+9999999GF100991999999999999999999KA1060M+00171KA2060N-00281MA1102685102595MD1390109+9999REMMET11701/05/24 18:56:02 METAR KWWD 052356Z 00000KT 10SM CLR M03/M06 A3032 RMK AO2 SLP268 T10281056 10017 21028 53010 FZRANO
0183745966037262024010600567+39008-074908FM-15+0007KWWD V0209999C000052200059N0160935N5-00395-00615102595ADDGA1005+999999999GD10991+9999999GF100991999999999999999999MA1102575102495REMMET09901/05/24 19:56:01 METAR KWWD 060056Z 00000KT 10SM CLR M04/M06 A3029 RMK AO2 SLP259 T10391061 FZRANO
0183745966037262024010601567+39008-074908FM-15+0007KWWD V0202505N001552200059N0160935N5-00445-00615102615ADDGA1005+999999999GD10991+9999999GF100991999999999999999999MA1102615102525REMMET09901/05/24 20:56:01 METAR KWWD 060156Z 25003KT 10SM CLR M04/M06 A3030 RMK AO2 SLP261 T10441061 FZRANO
0203745966037262024010602567+39008-074908FM-15+0007KWWD V0209999C000052200059N0160935N5-00335-00565102555ADDGA1005+999999999GD10991+9999999GF100991999999999999999999MA1102545102455MD1690139+9999REMMET10501/05/24 21:56:01 METAR KWWD 060256Z 00000KT 10SM CLR M03/M06 A3028 RMK AO2 SLP255 T10331056 56013 FZRANO
0183745966037262024010603567+39008-074908FM-15+0007KWWD V0209999C000052200059N0160935N5-00395-00615102475ADDGA1005+999999999GD10991+9999999GF100991999999999999999999MA1102445102355REMMET09901/05/24 22:56:02 METAR KWWD 060356Z 00000KT 10SM CLR M04/M06 A3025 RMK AO2 SLP247 T10391061 FZRANO
0219745966037262024010604567+39008-074908FM-15+0007KWWD V0209999C000052200059N0160935N5-00115-00395102465ADDGA1005+999999999GD10991+9999999GF100991999999999999999999KA1240M+00171KA2240N-00441MA1102445102355REMMET10901/05/24 23:56:02 METAR KWWD 060456Z 00000KT 10SM CLR M01/M04 A3025 RMK AO2 SLP246 T10111039 400171044 FZRANO
0241745966037262024010605567+39008-074908FM-15+0007KWWD V0209999C000052200059N0160935N5-00285-00445102475ADDGA1005+999999999GD10991+9999999GF100991999999999999999999KA1060M-00111KA2060N-00441MA1102445102355MD1590099+9999REMMET11701/06/24 00:56:02 METAR KWWD 060556Z 00000KT 10SM CLR M03/M04 A3025 RMK AO2 SLP247 T10281044 11011 21044 55009 FZRANO
0183745966037262024010606567+39008-074908FM-15+0007KWWD V0201905N001552200059N0160935N5-00175-00335102455ADDGA1005+999999999GD10991+9999999GF100991999999999999999999MA1102445102355REMMET09901/06/24 01:56:02 METAR KWWD 060656Z 19003KT 10SM CLR M02/M03 A3025 RMK AO2 SLP245 T10171033 FZRANO
0183745966037262024010607567+39008-074908FM-15+0007KWWD V0209999C000052200059N0160935N5-00225-00395102395ADDGA1005+999999999GD10991+9999999GF100991999999999999999999MA1102375102295REMMET09901/06/24 02:56:02 METAR KWWD 060756Z 00000KT 10SM CLR M02/M04 A3023 RMK AO2 SLP239 T10221039 FZRANO
0203745966037262024010608567+39008-074908FM-15+0007KWWD V0209999C000052200059N0160935N5-00285-00395102365ADDGA1005+999999999GD10991+9999999GF100991999999999999999999MA1102345102255MD1890119+9999REMMET10501/06/24 03:56:02 METAR KWWD 060856Z 00000KT 10SM CLR M03/M04 A3022 RMK AO2 SLP236 T10281039 58011 FZRANO
0183745966037262024010609567+39008-074908FM-15+0007KWWD V0209999C000052200059N0160935N5-00285-00395102305ADDGA1005+999999999GD10991+9999999GF100991999999999999999999MA1102275102185REMMET09901/06/24 04:56:02 METAR KWWD 060956Z 00000KT 10SM CLR M03/M04 A3020 RMK AO2 SLP230 T10281039 FZRANO
0183745966037262024010610567+39008-074908FM-15+0007KWWD V0209999C000052200059N0160935N5-00225-00285102295ADDGA1005+999999999GD10991+9999999GF100991999999999999999999MA1102275102185REMMET09901/06/24 05:56:02 METAR KWWD 061056Z 00000KT 10SM CLR M02/M03 A3020 RMK AO2 SLP229 T10221028 FZRANO
0241745966037262024010611567+39008-074908FM-15+0007KWWD V0209999C000052200059N0160935N5-00175-00225102235ADDGA1005+999999999GD10991+9999999GF100991999999999999999999KA1060M-00061KA2060N-00331MA1102205102125MD1790139+9999REMMET11701/06/24 06:56:02 METAR KWWD 061156Z 00000KT 10SM CLR M02/M02 A3018 RMK AO2 SLP223 T10171022 11006 21033 57013 FZRANO
0227745966037262024010612567+39008-074908FM-15+0007KWWD V0209999C000052200059N0160935N5-00115-00175102235ADDGA1025+019815999GD11991+0198159GE19AGL   +99999+99999GF102995999999019811999999MA1102205102125REMMET10201/06/24 07:56:02 METAR KWWD 061256Z 00000KT 10SM FEW065 M01/M02 A3018 RMK AO2 SLP223 T10111017 FZRANOEQDD01      0ADE726
0206745966037262024010613567+39008-074908FM-15+0007KWWD V0200405N00215018295MN0160935N5+00115+00005102135ADDGA1085+018295999GD14991+0182959GE19AGL   +99999+99999GF199999999999018291999999MA1102105102015REMMET10001/06/24 08:56:02 METAR KWWD 061356Z 04004KT 10SM OVC060 01/00 A3015 RMK AO2 SLP213 T00110000 FZRANO
0227745966037262024010614167+39008-074908FM-15+0007KWWD V0200705N00215008235MN0160935N5+00205+00105999999ADDGA1075+008235999GA2085+018295999GD13991+0082359GD24991+0182959GE19AGL   +99999+99999GF199999999999008231999999MA1102075101985REMMET09001/06/24 09:16:02 METAR KWWD 061416Z 07004KT 10SM BKN027 OVC060 02/01 A3014 RMK AO2 FZRANO
0257745966037262024010614567+39008-074908FM-15+0007KWWD V0201105N00315016765MN0160935N5+00395+00225102035ADDGA1045+008235999GA2085+016765999GD12991+0082359GD24991+0167659GE19AGL   +99999+99999GF199999999999008231999999MA1102005101915MD1890209+9999REMMET10601/06/24 09:56:02 METAR KWWD 061456Z 11006KT 10SM SCT027 OVC055 04/02 A3012 RMK AO2 SLP203 T00390022 58020
0249745966037262024010615567+39008-074908FM-15+0007KWWD V0201105N00515015245MN0160935N5+00615+00225101885ADDAA101000021AU110020015AW1615GA1085+015245999GD14991+0152459GE19AGL   +99999+99999GF199999999999015241999999MA1101865101785MW1615REMMET10901/06/24 10:56:02 METAR KWWD 061556Z 11010KT 10SM -RA OVC050 06/02 A3008 RMK AO2 RAB54 SLP188 P0000 T00610022
0222745966037262024010616567+39008-074908FM-15+0007KWWD V0201005N00515016765MN0160935N5+00675+00225101655ADDAA101000021GA1085+016765999GD14991+0167659GE19AGL   +99999+99999GF199999999999016761999999MA1101635101545REMMET10501/06/24 11:56:02 METAR KWWD 061656Z 10010KT 10SM OVC055 07/02 A3001 RMK AO2 RAE04 SLP165 P0000 T00670022
0350745966037262024010617567+39008-074908FM-15+0007KWWD V0200905N00465010975MN0160935N5+00615+00335101415ADDAA101000021AA206000021AU110020015AW1615GA1085+010975999GD14991+0109759GE19AGL   +99999+99999GF199999999999010971999999KA1060M+00671KA2060N-00171MA1101395101305MD1890629+9999MW1615REMMET14001/06/24 12:56:02 METAR KWWD 061756Z 09009KT 10SM -RA OVC036 06/03 A2994 RMK AO2 RAB13 PRESFR SLP141 P0000 60000 T00610033 10067 21017 58062EQDQ01  00008PRCP06
0274745966037262024010618527+39008-074908FM-15+0007KWWD V0200805N00515008235MN0128755N5+00605+00405999999ADDAA101000021AU110020015AW1615GA1075+008235999GA2085+009755999GD13991+0082359GD24991+0097559GE19AGL   +99999+99999GF199999999999008231999999MA1101155101075MW1615OC100885REMMET09501/06/24 13:52:02 METAR KWWD 061852Z 08010G17KT 8SM -RA BKN027 OVC032 06/04 A2987 RMK AO2 P0000
0291745966037262024010618567+39008-074908FM-15+0007KWWD V0200805N00515008235MN0144845N5+00615+00445101175ADDAA101000021AU110020015AW1615GA1075+008235999GA2085+009755999GD13991+0082359GD24991+0097559GE19AGL   +99999+99999GF199999999999008231999999MA1101155101075MW1615OC100885REMMET11201/06/24 13:56:02 METAR KWWD 061856Z 08010G17KT 9SM -RA BKN027 OVC032 06/04 A2987 RMK AO2 SLP117 P0000 T00610044
0331745966037262024010619567+39008-074908FM-15+0007KWWD V0200605N00675004575MN0080475N5+00565+00505101135ADDAU120020015AU200001015AW1105AW2625GA1045+003055999GA2075+004575999GA3085+005795999GD12991+0030559GD23991+0045759GD34991+0057959GE19AGL   +99999+99999GF199999999999003051999999MA1101125101035MW1655OC101035REMMET11501/06/24 14:56:02 METAR KWWD 061956Z 06013G20KT 5SM RA BR SCT010 BKN015 OVC019 06/05 A2986 RMK AO2 SLP113 T00560050
0283745966037262024010620087+39008-074908FM-15+0007KWWD V0200605N00625003055MN0064375N5+00605+00605999999ADDAU120020015AU200001015AW1105AW2625GA1075+003055999GA2085+004575999GD13991+0030551GD24991+0045759GE19AGL   +99999+99999GF199999999999003051999999MA1101085101005MW1655REMMET10601/06/24 15:08:02 METAR KWWD 062008Z 06012KT 4SM RA BR BKN010 OVC015 06/06 A2985 RMK AO2 CIG 007V012 PNO $
0277745966037262024010620237+39008-074908FM-15+0007KWWD V0200605N00575002445MN0064375N5+00605+00605999999ADDAU120020015AU200001015AW1105AW2625GA1075+002445999GA2085+003965999GD13991+0024451GD24991+0039659GE19AGL   +99999+99999GF199999999999002441999999MA1101085101005MW1655REMMET10001/06/24 15:23:02 METAR KWWD 062023Z 06011KT 4SM RA BR BKN008 OVC013 06/06 A2985 RMK AO2 CIG 006V011
0331745966037262024010620567+39008-074908FM-15+0007KWWD V0200505N00725001835MN0064375N5+00615+00565100965ADDAU120020015AU200001015AW1105AW2625GA1075+001835999GA2085+003355999GD13991+0018351GD24991+0033559GE19AGL   +99999+99999GF199999999999001831999999MA1100955100865MD1890229+9999MW1655OC101135REMMET13201/06/24 15:56:02 METAR KWWD 062056Z 05014G22KT 4SM RA BR BKN006 OVC011 06/06 A2981 RMK AO2 CIG 004V008 SLP096 6//// T00610056 58022
0256745966037262024010621437+39008-074908FM-15+0007KWWD V0200605N00675001225MN0048285N5+00805+00705999999ADDAA101001395AU130020015AU200001015AW1105AW2635GA1085+001225999GD14991+0012259GE19AGL   +99999+99999GF199999999999001221999999MA1100785100705MW1635OC100885REMMET09101/06/24 16:43:02 METAR KWWD 062143Z 06013G17KT 3SM +RA BR OVC004 08/07 A2976 RMK AO2 P0005
0261745966037262024010621567+39008-074908FM-15+0007KWWD V0200605N00515001225MN0048285N5+00785+00785100825ADDAA101002895AU120020015AU200001015AW1105AW2625GA1085+001225999GD14991+0012259GE19AGL   +99999+99999GF199999999999001221999999MA1100815100735MW1655REMMET10401/06/24 16:56:02 METAR KWWD 062156Z 06010KT 3SM RA BR OVC004 08/08 A2977 RMK AO2 SLP082 P0011 T00780078
0279745966037262024010622567+39008-074908FM-15+0007KWWD V0200805N00725001225MN0064375N5+00835+00835100615ADDAA101008995AU120020015AU200001015AW1105AW2625GA1085+001225999GD14991+0012259GE19AGL   +99999+99999GF199999999999001221999999MA1100585100495MW1655OC101035REMMET11401/06/24 17:56:02 METAR KWWD 062256Z 08014G20KT 4SM RA BR OVC004 08/08 A2970 RMK AO2 PRESFR SLP061 P0035 T00830083
0337745966037262024010623567+39008-074908FM-15+0007KWWD V0200905N00725001225MN0080475N5+00835+00835100355ADDAA101005695AU110020015AU200001015AW1105AW2615GA1085+001225999GD14991+0012259GE19AGL   +99999+99999GF199999999999001221999999KA1060M+00891KA2060N+00561MA1100345100265MD1890629+9999MW1615OC101085REMMET13201/06/24 18:56:02 METAR KWWD 062356Z 09014G21KT 5SM -RA BR OVC004 08/08 A2963 RMK AO2 SLP035 P0022 6//// T00830083 10089 20056 58062
0262745966037262024010700567+39008-074908FM-15+0007KWWD V0200805N00775001225MN0096565N5+00945+00895100175ADDAA101000895AU110020015AU200001015AW1105AW2615GA1085+001225999GD14991+0012259GE19AGL   +99999+99999GF199999999999001221999999MA1100175100095MW1615REMMET10501/06/24 19:56:01 METAR KWWD 070056Z 08015KT 6SM -RA BR OVC004 09/09 A2958 RMK AO2 SLP017 P0003 T00940089
0268745966037262024010701487+39008-074908FM-15+0007KWWD V0200805N00985001835MN0112655N5+00905+00905999999ADDAA101000395AU110020015AW1615GA1085+001835999GD14991+0018359GE19AGL   +99999+99999GF199999999999001831999999MA1100005099925MW1615OC101495OD149901491080REMMET10601/06/24 20:48:01 METAR KWWD 070148Z 08019G29KT 7SM -RA OVC006 09/09 A2953 RMK AO2 PK WND 08029/0147 P0001
0285745966037262024010701567+39008-074908FM-15+0007KWWD V0200805N00625001835MN0112655N5+00945+00945100045ADDAA101000395AU110020015AW1615GA1085+001835999GD14991+0018359GE19AGL   +99999+99999GF199999999999001831999999MA1100035099955MW1615OC101655OD149901641070REMMET12301/06/24 20:56:01 METAR KWWD 070156Z 08012G32KT 7SM -RA OVC006 09/09 A2954 RMK AO2 PK WND 07032/0149 SLP004 P0001 T00940094
0313745966037262024010702217+39008-074908FM-15+0007KWWD V0201005N00725009455MN0160935N5+01105+01005999999ADDAA101000395AU110020015AW1615GA1045+001835999GA2045+004885999GA3085+009455999GD12991+0018359GD22991+0048859GD34991+0094559GE19AGL   +99999+99999GF199999999999001831999999MA1099975099885MW1615OC101185REMMET10301/06/24 21:21:01 METAR KWWD 070221Z 10014G23KT 10SM -RA SCT006 SCT016 OVC031 11/10 A2952 RMK AO2 P0001
0302745966037262024010702287+39008-074908FM-15+0007KWWD V0200905N00675005495MN0160935N5+01105+01005999999ADDAA101000395AU110020015AW1615GA1025+001835999GA2075+005495999GA3085+010065999GD11991+0018359GD23991+0054959GD34991+0100659GE19AGL   +99999+99999GF199999999999001831999999MA1099975099885MW1615REMMET10001/06/24 21:28:01 METAR KWWD 070228Z 09013KT 10SM -RA FEW006 BKN018 OVC033 11/10 A2952 RMK AO2 P0001
0302745966037262024010702417+39008-074908FM-15+0007KWWD V0200905N00465004275MN0160935N5+01005+00905999999ADDAA101000395AU110020015AW1615GA1075+004275999GA2075+005795999GA3085+009455999GD13991+0042759GD23991+0057959GD34991+0094559GE19AGL   +99999+99999GF199999999999004271999999MA1099975099885MW1615REMMET10001/06/24 21:41:01 METAR KWWD 070241Z 09009KT 10SM -RA BKN014 BKN019 OVC031 10/09 A2952 RMK AO2 P0001
0337745966037262024010702567+39008-074908FM-15+0007KWWD V0200805N00315004275MN0160935N5+01005+01005099975ADDAA101000395AA203001391AU110020015AW1615GA1075+004275999GA2085+007015999GD13991+0042759GD24991+0070159GE19AGL   +99999+99999GF199999999999004271999999MA1099975099885MD1690389+9999MW1615REMMET12201/06/24 21:56:01 METAR KWWD 070256Z 08006KT 10SM -RA BKN014 OVC023 10/10 A2952 RMK AO2 SLP997 P0001 60005 T01000100 56038EQDQ01  00128PRCP03
0321745966037262024010703207+39008-074908FM-15+0007KWWD V0200705N00365003665MN0096565N5+01005+00905999999ADDAA101000021AU110020015AU200001015AW1105AW2615GA1025+001525999GA2075+003665999GA3085+006105999GD11991+0015259GD23991+0036659GD34991+0061059GE19AGL   +99999+99999GF199999999999001521999999MA1099935099855MW1615REMMET10201/06/24 22:20:01 METAR KWWD 070320Z 07007KT 6SM -RA BR FEW005 BKN012 OVC020 10/09 A2951 RMK AO2 P0000
0313745966037262024010703437+39008-074908FM-15+0007KWWD V0200705N00215001525MN0112655N5+00905+00905999999ADDAA101000021AU110020015AW1615GA1075+001525999GA2075+003665999GA3085+005795999GD13991+0015251GD23991+0036659GD34991+0057959GE19AGL   +99999+99999GF199999999999001521999999MA1099935099855MW1615REMMET11101/06/24 22:43:01 METAR KWWD 070343Z 07004KT 7SM -RA BKN005 BKN012 OVC019 09/09 A2951 RMK AO2 CIG 004V008 P0000
0350745966037262024010703567+39008-074908FM-15+0007KWWD V0202205N00155001525MN0096565N5+00945+00945099955ADDAA101000021AU110020015AU200001015AW1105AW2615GA1075+001525999GA2075+003055999GA3085+004575999GD13991+0015251GD23991+0030559GD34991+0045759GE19AGL   +99999+99999GF199999999999001521999999MA1099935099855MW1615REMMET13101/06/24 22:56:02 METAR KWWD 070356Z 22003KT 6SM -RA BR BKN005 BKN010 OVC015 09/09 A2951 RMK AO2 CIG 003V008 SLP995 P0000 T00940094
0240745966037262024010704217+39008-074908FM-15+0007KWWD V0202505N00215001525MN0028165N5+00905+00905999999ADDAA101000021AU100001015AW1105GA1085+001525999GD14991+0015251GE19AGL   +99999+99999GF199999999999001521999999MA1099975099885REMMET10601/06/24 23:21:02 METAR KWWD 070421Z 25004KT 1 3/4SM BR OVC005 09/09 A2952 RMK AO2 RAE01 CIG 003V008 P0000
0320745966037262024010704317+39008-074908FM-15+0007KWWD V0202905N00265000915MN0040235V5+00905+00905999999ADDAA101000021AU110020015AU200001015AW1105AW2615GA1075+000915999GA2085+002135999GD13991+0009151GD24991+0021359GE19AGL   +99999+99999GF199999999999000911999999MA1099935099855MW1615REMMET13201/06/24 23:31:02 METAR KWWD 070431Z 29005KT 2 1/2SM -RA BR BKN003 OVC007 09/09 A2951 RMK AO2 VIS 1 3/4V4 RAE01B24 CIG 002V006 P0000
0307745966037262024010704567+39008-074908FM-15+0007KWWD V0203005N00365000915MN0048285N5+00895+00895099945ADDAA101000395AU110020015AU200001015AW1105AW2615GA1085+000915999GD14991+0009159GE19AGL   +99999+99999GF199999999999000911999999KA1240M+01061KA2240N-00331MA1099935099855MW1615REMMET12401/06/24 23:56:02 METAR KWWD 070456Z 30007KT 3SM -RA BR OVC003 09/09 A2951 RMK AO2 RAE01B24 SLP994 P0001 T00890089 401061033
002774596603726202401070459O+39008-074908SOD  +0007KWWD V020999999999999999999999999999+99999+99999999999ADDAT1AU16RA  5AT2AU13BR  5
0249745966037262024010705227+39008-074908FM-15+0007KWWD V0202705N00465000915MN0040235N5+00805+00805999999ADDAA101000021AU110020015AU200001015AW1105AW2615GA1085+000915999GD14991+0009159GE19AGL   +99999+99999GF199999999999000911999999MA1099975099885MW1615REMMET09201/07/24 00:22:02 METAR KWWD 070522Z 27009KT 2 1/2SM -RA BR OVC003 08/08 A2952 RMK AO2 P0000
0371745966037262024010705567+39008-074908FM-15+0007KWWD V0202705N00775000915MN0040235N5+00615+00615100055ADDAA101000395AA206001891AU110020015AU200001015AW1105AW2615GA1085+000915999GD14991+0009159GE19AGL   +99999+99999GF199999999999000911999999KA1060M+01061KA2060N+00611MA1100035099955MD1390089+9999MW1615OC100985REMMET13601/07/24 00:56:02 METAR KWWD 070556Z 27015G19KT 2 1/2SM -RA BR OVC003 06/06 A2954 RMK AO2 SLP005 P0001 60007 T00610061 10106 20061 53008EQDQ01  00178PRCP06
0256745966037262024010706217+39008-074908FM-15+0007KWWD V0202705N00725000915MN0048285N5+00605+00605999999ADDAA101000021AU110020015AU200001015AW1105AW2615GA1085+000915999GD14991+0009159GE19AGL   +99999+99999GF199999999999000911999999MA1100075099985MW1615OC101035REMMET09101/07/24 01:21:02 METAR KWWD 070621Z 27014G20KT 3SM -RA BR OVC003 06/06 A2955 RMK AO2 P0000
0273745966037262024010706567+39008-074908FM-15+0007KWWD V0202805N00775000915MN0064375N5+00505+00505100105ADDAA101000021AU110020015AU200001015AW1105AW2615GA1085+000915999GD14991+0009159GE19AGL   +99999+99999GF199999999999000911999999MA1100105100025MW1615OC101135REMMET10801/07/24 01:56:02 METAR KWWD 070656Z 28015G22KT 4SM -RA BR OVC003 05/05 A2956 RMK AO2 SLP010 P0000 T00500050
0232745966037262024010707567+39008-074908FM-15+0007KWWD V0202805N00775000915MN0144845N5+00445+00445100155ADDAA101000021GA1085+000915999GD14991+0009159GE19AGL   +99999+99999GF199999999999000911999999MA1100145100055OC101085REMMET10701/07/24 02:56:02 METAR KWWD 070756Z 28015G21KT 9SM OVC003 04/04 A2957 RMK AO2 RAE51 SLP015 P0000 T00440044
0291745966037262024010708567+39008-074908FM-15+0007KWWD V0202905N00825001525MN0128755N5+00445+00395100195ADDAA101000021AA203000021GA1085+001525999GD14991+0015259GE19AGL   +99999+99999GF199999999999001521999999MA1100175100095MD1090089+9999OC101185REMMET12201/07/24 03:56:02 METAR KWWD 070856Z 29016G23KT 8SM OVC005 04/04 A2958 RMK AO2 RAB06E48 SLP019 P0000 60000 T00440039 50008EQDQ01  00008PRCP03
0279745966037262024010709567+39008-074908FM-15+0007KWWD V0202805N00675001525MN0096565N5+00395+00395100225ADDAA101000021AU110020015AU200001015AW1105AW2615GA1085+001525999GD14991+0015259GE19AGL   +99999+99999GF199999999999001521999999MA1100205100125MW1615OC100985REMMET11401/07/24 04:56:02 METAR KWWD 070956Z 28013G19KT 6SM -RA BR OVC005 04/04 A2959 RMK AO2 RAB33 SLP022 P0000 T00390039
0222745966037262024010710567+39008-074908FM-15+0007KWWD V0202905N00515001525MN0160935N5+00395+00395100255ADDAA101000021GA1085+001525999GD14991+0015259GE19AGL   +99999+99999GF199999999999001521999999MA1100245100155REMMET10501/07/24 05:56:02 METAR KWWD 071056Z 29010KT 10SM OVC005 04/04 A2960 RMK AO2 RAE47 SLP025 P0000 T00390039
0193745966037262024010711437+39008-074908FM-15+0007KWWD V0202905N00575002135MN0160935N5+00405+00305999999ADDGA1085+002135999GD14991+0021359GE19AGL   +99999+99999GF199999999999002131999999MA1100345100265OC100985REMMET07901/07/24 06:43:02 METAR KWWD 071143Z 29011G19KT 10SM OVC007 04/03 A2963 RMK AO2
0310745966037262024010711567+39008-074908FM-15+0007KWWD V0202805N00675002135MN0160935N5+00395+00335100355ADDAA106000021AA224999919GA1085+002135999GD14991+0021359GE19AGL   +99999+99999GF199999999999002131999999KA1060M+00611KA2060N+00391MA1100345100265MD1390169+9999REMMET12301/07/24 06:56:02 METAR KWWD 071156Z 28013KT 10SM OVC007 04/03 A2963 RMK AO2 SLP035 60000 7//// T00390033 10061 20039 53016EQDQ01  00008PRCP06
0198745966037262024010712567+39008-074908FM-15+0007KWWD V0202705N00575002135MN0112655N5+00395+00335100475ADDGA1085+002135999GD14991+0021359GE19AGL   +99999+99999GF199999999999002131999999MA1100445100365REMMET09201/07/24 07:56:02 METAR KWWD 071256Z 27011KT 7SM OVC007 04/03 A2966 RMK AO2 SLP047 T00390033
0209745966037262024010713567+39008-074908FM-15+0007KWWD V0202705N00675002135MN0128755N5+00395+00335100525ADDGA1085+002135999GD14991+0021359GE19AGL   +99999+99999GF199999999999002131999999MA1100515100425OC100885REMMET09501/07/24 08:56:02 METAR KWWD 071356Z 27013G17KT 8SM OVC007 04/03 A2968 RMK AO2 SLP052 T00390033
0238745966037262024010714567+39008-074908FM-15+0007KWWD V0202705N00625002135MN0096565N5+00445+00335100585ADDAU100001015AW1105GA1085+002135999GD14991+0021359GE19AGL   +99999+99999GF199999999999002131999999MA1100545100465MD1190239+9999REMMET10101/07/24 09:56:02 METAR KWWD 071456Z 27012KT 6SM BR OVC007 04/03 A2969 RMK AO2 SLP058 T00440033 51023
0248745966037262024010715567+39008-074908FM-15+0007KWWD V0202705N00515002745MN0160935N5+00505+00395100545ADDGA1075+002745999GA2085+024385999GD13991+0027459GD24991+0243859GE19AGL   +99999+99999GF199999999999002741999999MA1100515100425OC100985REMMET10301/07/24 10:56:02 METAR KWWD 071556Z 27010G19KT 10SM BKN009 OVC080 05/04 A2968 RMK AO2 SLP054 T00500039
0212745966037262024010716317+39008-074908FM-15+0007KWWD V0202805N007252200059N0160935N5+00605+00405999999ADDGA1045+002745999GD12991+0027459GE19AGL   +99999+99999GF104995999999002741999999MA1100445100365OC100885REMMET07901/07/24 11:31:02 METAR KWWD 071631Z 28014G17KT 10SM SCT009 06/04 A2966 RMK AO2EQDD01      0ADE726
0218745966037262024010716567+39008-074908FM-15+0007KWWD V0202805N005752200059N0160935N5+00615+00445100465ADDGA1025+003355999GD11991+0033559GE19AGL   +99999+99999GF102995999999003351999999MA1100445100365REMMET09301/07/24 11:56:02 METAR KWWD 071656Z 28011KT 10SM FEW011 06/04 A2966 RMK AO2 SLP046 T00610044EQDD01      0ADE726
0243745966037262024010717567+39008-074908FM-15+0007KWWD V0202905N006752200059N0160935N5+00725+00335100495ADDGA1005+999999999GD10991+9999999GF100991999999999999999999KA1060M+00721KA2060N+00391MA1100475100395MD1590089+9999OC101085REMMET11101/07/24 12:56:02 METAR KWWD 071756Z 29013G21KT 10SM CLR 07/03 A2967 RMK AO2 SLP049 T00720033 10072 20039 55008
0210745966037262024010718567+39008-074908FM-15+0007KWWD V0202905N00465010675MN0160935N5+00725+00335100545ADDGA1085+010675999GD14991+0106759GE19AGL   +99999+99999GF199999999999010671999999MA1100515100425OC100935REMMET09601/07/24 13:56:02 METAR KWWD 071856Z 29009G18KT 10SM OVC035 07/03 A2968 RMK AO2 SLP054 T00720033
0210745966037262024010719567+39008-074908FM-15+0007KWWD V0203005N00465011285MN0160935N5+00725+00285100645ADDGA1085+011285999GD14991+0112859GE19AGL   +99999+99999GF199999999999011281999999MA1100615100535OC100935REMMET09601/07/24 14:56:02 METAR KWWD 071956Z 30009G18KT 10SM OVC037 07/03 A2971 RMK AO2 SLP064 T00720028
0230745966037262024010720567+39008-074908FM-15+0007KWWD V0203005N00675012195MN0160935N5+00675+00175100795ADDGA1085+012195999GD14991+0121959GE19AGL   +99999+99999GF199999999999012191999999MA1100785100705MD1390309+9999OC101135REMMET10201/07/24 15:56:02 METAR KWWD 072056Z 30013G22KT 10SM OVC040 07/02 A2976 RMK AO2 SLP079 T00670017 53030
0210745966037262024010721567+39008-074908FM-15+0007KWWD V0203005N00725011585MN0160935N5+00615+00115100975ADDGA1085+011585999GD14991+0115859GE19AGL   +99999+99999GF199999999999011581999999MA1100955100865OC100935REMMET09601/07/24 16:56:02 METAR KWWD 072156Z 30014G18KT 10SM OVC038 06/01 A2981 RMK AO2 SLP097 T00610011
0210745966037262024010722567+39008-074908FM-15+0007KWWD V0203005V00515012805MN0160935N5+00615+00115101165ADDGA1085+012805999GD14991+0128059GE19AGL   +99999+99999GF199999999999012801999999MA1101155101075OC100935REMMET09601/07/24 17:56:02 METAR KWWD 072256Z 30010G18KT 10SM OVC042 06/01 A2987 RMK AO2 SLP116 T00610011
0257745966037262024010723567+39008-074908FM-15+0007KWWD V0203005N00465012805MN0160935N5+00615+00225101325ADDGA1085+012805999GD14991+0128059GE19AGL   +99999+99999GF199999999999012801999999KA1060M+00781KA2060N+00611MA1101325101245MD1190549+9999REMMET11101/07/24 18:56:02 METAR KWWD 072356Z 30009KT 10SM OVC042 06/02 A2992 RMK AO2 SLP132 T00610022 10078 20061 51054
0185745966037262024010800567+39008-074908FM-15+0007KWWD V0203005N004652200059N0160935N5+00615+00115101455ADDGA1005+999999999GD10991+9999999GF100991999999999999999999MA1101425101345OC100825REMMET09301/07/24 19:56:01 METAR KWWD 080056Z 30009G16KT 10SM CLR 06/01 A2995 RMK AO2 SLP145 T00610011
0185745966037262024010801567+39008-074908FM-15+0007KWWD V0202905N005152200059N0160935N5+00565+00115101565ADDGA1005+999999999GD10991+9999999GF100991999999999999999999MA1101525101445OC100885REMMET09301/07/24 20:56:01 METAR KWWD 080156Z 29010G17KT 10SM CLR 06/01 A2998 RMK AO2 SLP156 T00560011
0205745966037262024010802567+39008-074908FM-15+0007KWWD V0202905N005152200059N0160935N5+00565+00115101675ADDGA1005+999999999GD10991+9999999GF100991999999999999999999MA1101665101585MD1190349+9999OC100825REMMET09901/07/24 21:56:01 METAR KWWD 080256Z 29010G16KT 10SM CLR 06/01 A3002 RMK AO2 SLP167 T00560011 51034
0185745966037262024010803567+39008-074908FM-15+0007KWWD V0202905N005752200059N0160935N5+00565+00115101745ADDGA1005+999999999GD10991+9999999GF100991999999999999999999MA1101735101645OC100885REMMET09301/07/24 22:56:02 METAR KWWD 080356Z 29011G17KT 10SM CLR 06/01 A3004 RMK AO2 SLP174 T00560011
0221745966037262024010804567+39008-074908FM-15+0007KWWD V0202905N005152200059N0160935N5+00565+00065101885ADDGA1005+999999999GD10991+9999999GF100991999999999999999999KA1240M+00891KA2240N+00391MA1101865101785OC100935REMMET10301/07/24 23:56:02 METAR KWWD 080456Z 29010G18KT 10SM CLR 06/01 A3008 RMK AO2 SLP188 T00560006 400890039
002774596603726202401080459O+39008-074908SOD  +0007KWWD V020999999999999999999999999999+99999+99999999999ADDAT1AU16RA  5AT2AU13BR  5
0232745966037262024010805567+39008-074908FM-15+0007KWWD V0202805N006752200059N0160935N5+00505+00065101995ADDGA1005+999999999GD10991+9999999GF100991999999999999999999KA1060M+00611KA2060N+00501MA1101965101885MD1390329+9999REMMET10801/08/24 00:56:02 METAR KWWD 080556Z 28013KT 10SM CLR 05/01 A3011 RMK AO2 SLP199 T00500006 10061 20050 53032
0174745966037262024010806567+39008-074908FM-15+0007KWWD V0202905N005152200059N0160935N5+00505+00065102065ADDGA1005+999999999GD10991+9999999GF100991999999999999999999MA1102035101955REMMET09001/08/24 01:56:02 METAR KWWD 080656Z 29010KT 10SM CLR 05/01 A3013 RMK AO2 SLP206 T00500006
0185745966037262024010807567+39008-074908FM-15+0007KWWD V0202905N006252200059N0160935N5+00505+00065102135ADDGA1005+999999999GD10991+9999999GF100991999999999999999999MA1102105102015OC101035REMMET09301/08/24 02:56:02 METAR KWWD 080756Z 29012G20KT 10SM CLR 05/01 A3015 RMK AO2 SLP213 T00500006
0205745966037262024010808567+39008-074908FM-15+0007KWWD V0202905N004652200059N0160935N5+00505+00065102215ADDGA1005+999999999GD10991+9999999GF100991999999999999999999MA1102205102125MD1290239+9999OC100825REMMET09901/08/24 03:56:02 METAR KWWD 080856Z 29009G16KT 10SM CLR 05/01 A3018 RMK AO2 SLP221 T00500006 52023
0185745966037262024010809567+39008-074908FM-15+0007KWWD V0202905N005152200059N0160935N5+00445+00065102315ADDGA1005+999999999GD10991+9999999GF100991999999999999999999MA1102305102225OC100885REMMET09301/08/24 04:56:02 METAR KWWD 080956Z 29010G17KT 10SM CLR 04/01 A3021 RMK AO2 SLP231 T00440006
0174745966037262024010810567+39008-074908FM-15+0007KWWD V0202905N004152200059N0160935N5+00445+00065102515ADDGA1005+999999999GD10991+9999999GF100991999999999999999999MA1102475102395REMMET09001/08/24 05:56:02 METAR KWWD 081056Z 29008KT 10SM CLR 04/01 A3026 RMK AO2 SLP251 T00440006
0276745966037262024010811567+39008-074908FM-15+0007KWWD V0203005N004152200059N0160935N5+00445+00115102635ADDGA1025+014945999GD11991+0149459GE19AGL   +99999+99999GF102995999999014941999999KA1060M+00561KA2060N+00391MA1102615102525MD1390429+9999REMMET11101/08/24 06:56:02 METAR KWWD 081156Z 30008KT 10SM FEW049 04/01 A3030 RMK AO2 SLP263 T00440011 10056 20039 53042EQDD01      0ADE726
0174745966037262024010812567+39008-074908FM-15+0007KWWD V0203005N002652200059N0160935N5+00445+00115102755ADDGA1005+999999999GD10991+9999999GF100991999999999999999999MA1102745102665REMMET09001/08/24 07:56:02 METAR KWWD 081256Z 30005KT 10SM CLR 04/01 A3034 RMK AO2 SLP275 T00440011
0174745966037262024010813567+39008-074908FM-15+0007KWWD V0202805N003652200059N0160935N5+00565+00175102935ADDGA1005+999999999GD10991+9999999GF100991999999999999999999MA1102915102835REMMET09001/08/24 08:56:02 METAR KWWD 081356Z 28007KT 10SM CLR 06/02 A3039 RMK AO2 SLP293 T00560017
0194745966037262024010814567+39008-074908FM-15+0007KWWD V0202905N003652200059N0160935N5+00615+00175103045ADDGA1005+999999999GD10991+9999999GF100991999999999999999999MA1103015102935MD1190419+9999REMMET09601/08/24 09:56:02 METAR KWWD 081456Z 29007KT 10SM CLR 06/02 A3042 RMK AO2 SLP304 T00610017 51041
0174745966037262024010815567+39008-074908FM-15+0007KWWD V0203205V003652200059N0160935N5+00675+00175103025ADDGA1005+999999999GD10991+9999999GF100991999999999999999999MA1103015102935REMMET09001/08/24 10:56:02 METAR KWWD 081556Z 32007KT 10SM CLR 07/02 A3042 RMK AO2 SLP302 T00670017
0186745966037262024010816567+39008-074908FM-15+0007KWWD V0203405N005152200059N0160935N5+00675-00065103005ADDGA1005+999999999GD10991+9999999GF100991999999999999999999MA1102985102895OC100725REMMET09401/08/24 11:56:02 METAR KWWD 081656Z 34010G14KT 10SM CLR 07/M01 A3041 RMK AO2 SLP300 T00671006
0233745966037262024010817567+39008-074908FM-15+0007KWWD V0209999V003152200059N0160935N5+00725-00115103025ADDGA1005+999999999GD10991+9999999GF100991999999999999999999KA1060M+00781KA2060N+00441MA1103015102935MD1590029+9999REMMET10901/08/24 12:56:02 METAR KWWD 081756Z VRB06KT 10SM CLR 07/M01 A3042 RMK AO2 SLP302 T00721011 10078 20044 55002
0175745966037262024010818567+39008-074908FM-15+0007KWWD V0209999V003152200059N0160935N5+00835-00175103005ADDGA1005+999999999GD10991+9999999GF100991999999999999999999MA1102985102895REMMET09101/08/24 13:56:02 METAR KWWD 081856Z VRB06KT 10SM CLR 08/M02 A3041 RMK AO2 SLP300 T00831017
0174745966037262024010819567+39008-074908FM-15+0007KWWD V0202705N004652200059N0160935N5+00725+00115103025ADDGA1005+999999999GD10991+9999999GF100991999999999999999999MA1103015102935REMMET09001/08/24 14:56:02 METAR KWWD 081956Z 27009KT 10SM CLR 07/01 A3042 RMK AO2 SLP302 T00720011
0194745966037262024010820567+39008-074908FM-15+0007KWWD V0202805N002652200059N0160935N5+00675+00065103065ADDGA1005+999999999GD10991+9999999GF100991999999999999999999MA1103055102965MD1390049+9999REMMET09601/08/24 15:56:02 METAR KWWD 082056Z 28005KT 10SM CLR 07/01 A3043 RMK AO2 SLP306 T00670006 53004
0174745966037262024010821567+39008-074908FM-15+0007KWWD V0202805N002152200059N0160935N5+00565+00065103135ADDGA1005+999999999GD10991+9999999GF100991999999999999999999MA1103125103035REMMET09001/08/24 16:56:02 METAR KWWD 082156Z 28004KT 10SM CLR 06/01 A3045 RMK AO2 SLP313 T00560006
0174745966037262024010822567+39008-074908FM-15+0007KWWD V0209999C000052200059N0160935N5+00285+00005103215ADDGA1005+999999999GD10991+9999999GF100991999999999999999999MA1103185103105REMMET09001/08/24 17:56:02 METAR KWWD 082256Z 00000KT 10SM CLR 03/00 A3047 RMK AO2 SLP321 T00280000
0240745966037262024010823567+39008-074908FM-15+0007KWWD V0209999C000052200059N0160935N5+00005-00225103255ADDGA1005+999999999GD10991+9999999GF100991999999999999999999KA1060M+00831KA2060N+00001MA1103225103135MD1190199+9999REMMET11601/08/24 18:56:02 METAR KWWD 082356Z 00000KT 10SM CLR 00/M02 A3048 RMK AO2 SLP325 T00001022 10083 20000 51019 FZRANO
0183745966037262024010900567+39008-074908FM-15+0007KWWD V0209999C000052200059N0160935N5-00065-00175103195ADDGA1005+999999999GD10991+9999999GF100991999999999999999999MA1103185103105REMMET09901/08/24 19:56:01 METAR KWWD 090056Z 00000KT 10SM CLR M01/M02 A3047 RMK AO2 SLP319 T10061017 FZRANO
0183745966037262024010901567+39008-074908FM-15+0007KWWD V0209999C000052200059N0160935N5-00175-00285103155ADDGA1005+999999999GD10991+9999999GF100991999999999999999999MA1103125103035REMMET09901/08/24 20:56:01 METAR KWWD 090156Z 00000KT 10SM CLR M02/M03 A3045 RMK AO2 SLP315 T10171028 FZRANO
0203745966037262024010902567+39008-074908FM-15+0007KWWD V0209999C000052200059N0160935N5-00175-00285103095ADDGA1005+999999999GD10991+9999999GF100991999999999999999999MA1103085103005MD1890169+9999REMMET10501/08/24 21:56:01 METAR KWWD 090256Z 00000KT 10SM CLR M02/M03 A3044 RMK AO2 SLP309 T10171028 58016 FZRANO
0183745966037262024010903567+39008-074908FM-15+0007KWWD V0209999C000052200059N0160935N5-00285-00395103095ADDGA1005+999999999GD10991+9999999GF100991999999999999999999MA1103085103005REMMET09901/08/24 22:56:02 METAR KWWD 090356Z 00000KT 10SM CLR M03/M04 A3044 RMK AO2 SLP309 T10281039 FZRANO
0219745966037262024010904567+39008-074908FM-15+0007KWWD V0209999C000052200059N0160935N5-00285-00395103115ADDGA1005+999999999GD10991+9999999GF100991999999999999999999KA1240M+00831KA2240N-00331MA1103085103005REMMET10901/08/24 23:56:02 METAR KWWD 090456Z 00000KT 10SM CLR M03/M04 A3044 RMK AO2 SLP311 T10281039 400831033 FZRANO
0241745966037262024010905567+39008-074908FM-15+0007KWWD V0209999C000052200059N0160935N5-00225-00335103055ADDGA1005+999999999GD10991+9999999GF100991999999999999999999KA1060M+00001KA2060N-00331MA1103015102935MD1890049+9999REMMET11701/09/24 00:56:02 METAR KWWD 090556Z 00000KT 10SM CLR M02/M03 A3042 RMK AO2 SLP305 T10221033 10000 21033 58004 FZRANO
0182745966037262024010906567+39008-074908FM-15+0007KWWD V0209999C000052200059N0144845N5-00175-00225103015ADDGA1005+999999999GD10991+9999999GF100991999999999999999999MA1102985102895REMMET09801/09/24 01:56:02 METAR KWWD 090656Z 00000KT 9SM CLR M02/M02 A3041 RMK AO2 SLP301 T10171022 FZRANO
0183745966037262024010907567+39008-074908FM-15+0007KWWD V0209999C000052200059N0160935N5-00065-00115102965ADDGA1005+999999999GD10991+9999999GF100991999999999999999999MA1102955102865REMMET09901/09/24 02:56:02 METAR KWWD 090756Z 00000KT 10SM CLR M01/M01 A3040 RMK AO2 SLP296 T10061011 FZRANO
0201745966037262024010908567+39008-074908FM-15+0007KWWD V0201105N003152200059N0160935N5+00175+00115102865ADDGA1005+999999999GD10991+9999999GF100991999999999999999999MA1102845102765MD1890199+9999REMMET10301/09/24 03:56:02 METAR KWWD 090856Z 11006KT 10SM CLR 02/01 A3037 RMK AO2 SLP286 T00170011 58019 FZRANO
0174745966037262024010909567+39008-074908FM-15+0007KWWD V0201105N003152200059N0160935N5+00335+00285102845ADDGA1005+999999999GD10991+9999999GF100991999999999999999999MA1102815102735REMMET09001/09/24 04:56:02 METAR KWWD 090956Z 11006KT 10SM CLR 03/03 A3036 RMK AO2 SLP284 T00330028
0174745966037262024010910567+39008-074908FM-15+0007KWWD V0201005N005752200059N0160935N5+00615+00285102675ADDGA1005+999999999GD10991+9999999GF100991999999999999999999MA1102645102565REMMET09001/09/24 05:56:02 METAR KWWD 091056Z 10011KT 10SM CLR 06/03 A3031 RMK AO2 SLP267 T00610028
0257745966037262024010911567+39008-074908FM-15+0007KWWD V0200905N00515014025MN0160935N5+00675+00335102555ADDGA1075+014025999GD13991+0140259GE19AGL   +99999+99999GF199999999999014021999999KA1060M+00671KA2060N-00221MA1102545102455MD1890319+9999REMMET11101/09/24 06:56:02 METAR KWWD 091156Z 09010KT 10SM BKN046 07/03 A3028 RMK AO2 SLP255 T00670033 10067 21022 58031
0237745966037262024010912567+39008-074908FM-15+0007KWWD V0201005N00575012195MN0160935N5+00725+00395102555ADDGA1075+012195999GA2085+018295999GD13991+0121959GD24991+0182959GE19AGL   +99999+99999GF199999999999012191999999MA1102545102455REMMET10001/09/24 07:56:02 METAR KWWD 091256Z 10011KT 10SM BKN040 OVC060 07/04 A3028 RMK AO2 SLP255 T00720039
0237745966037262024010913567+39008-074908FM-15+0007KWWD V0201005N00465014945MN0160935N5+00785+00505102535ADDGA1075+014945999GA2085+018295999GD13991+0149459GD24991+0182959GE19AGL   +99999+99999GF199999999999014941999999MA1102515102425REMMET10001/09/24 08:56:02 METAR KWWD 091356Z 10009KT 10SM BKN049 OVC060 08/05 A3027 RMK AO2 SLP253 T00780050
0306745966037262024010914567+39008-074908FM-15+0007KWWD V0201005N00625021345MN0160935N5+00835+00565102325ADDGA1025+018295999GA2075+021345999GA3085+033535999GD11991+0182959GD23991+0213459GD34991+0335359GE19AGL   +99999+99999GF199999999999018291999999MA1102305102225MD1890239+9999OC100935REMMET11601/09/24 09:56:02 METAR KWWD 091456Z 10012G18KT 10SM FEW060 BKN070 OVC110 08/06 A3021 RMK AO2 SLP232 T00830056 58023
0255745966037262024010915567+39008-074908FM-15+0007KWWD V0201005N00725019815MN0160935N5+00945+00725102045ADDGA1025+014335999GA2085+019815999GD11991+0143359GD24991+0198159GE19AGL   +99999+99999GF199999999999014331999999MA1102035101955OC101135REMMET11001/09/24 10:56:02 METAR KWWD 091556Z 10014G22KT 10SM FEW047 OVC065 09/07 A3013 RMK AO2 PRESFR SLP204 T00940072
0297745966037262024010916567+39008-074908FM-15+0007KWWD V0201005N00725013725MN0144845N5+01005+00835101815ADDAA101000021AU110020015AW1615GA1075+013725999GA2085+016765999GD13991+0137259GD24991+0167659GE19AGL   +99999+99999GF199999999999013721999999MA1101795101715MW1615OC101135REMMET11801/09/24 11:56:02 METAR KWWD 091656Z 10014G22KT 9SM -RA BKN045 OVC055 10/08 A3006 RMK AO2 RAB52 SLP181 P0000 T01000083
0356745966037262024010917567+39008-074908FM-15+0007KWWD V0201205N00725011895MN0096565N5+01005+00945101615ADDAA101002095AA206002091AU110020015AU200001015AW1105AW2615GA1085+011895999GD14991+0118959GE19AGL   +99999+99999GF199999999999011891999999KA1060M+01001KA2060N+00671MA1101595101515MD1690709+9999MW1615REMMET12901/09/24 12:56:02 METAR KWWD 091756Z 12014KT 6SM -RA BR OVC039 10/09 A3000 RMK AO2 SLP161 P0008 60008 T01000094 10100 20067 56070EQDQ01  00208PRCP06
0260745966037262024010918567+39008-074908FM-15+0007KWWD V0201205N00825011585MN0112655N5+01005+00945101305ADDAA101001595AU110020015AW1615GA1085+011585999GD14991+0115859GE19AGL   +99999+99999GF199999999999011581999999MA1101295101205MW1615OC101135REMMET11201/09/24 13:56:02 METAR KWWD 091856Z 12016G22KT 7SM -RA OVC038 10/09 A2991 RMK AO2 PRESFR SLP130 P0006 T01000094
0278745966037262024010919567+39008-074908FM-15+0007KWWD V0201205N00985014025MN0160935N5+01065+01005100955ADDAA101001395GA1075+014025999GA2085+016765999GD13991+0140259GD24991+0167659GE19AGL   +99999+99999GF199999999999014021999999MA1100955100865OC101185REMMET12201/09/24 14:56:02 METAR KWWD 091956Z 12019G23KT 10SM BKN046 OVC055 11/10 A2981 RMK AO2 RAE50 PRESFR SLP095 P0005 T01060100
0423745966037262024010920567+39008-074908FM-15+0007KWWD V0201305N01185010975MN0112655N5+01175+01005100735ADDAA101000021AA203002891AU110020015AW1615GA1025+008235999GA2075+010975999GA3085+014335999GD11991+0082359GD23991+0109759GD34991+0143359GE19AGL   +99999+99999GF199999999999008231999999MA1100715100635MD1690899+9999MW1615OC101545OD149901591130REMMET15501/09/24 15:56:02 METAR KWWD 092056Z 13023G30KT 7SM -RA FEW027 BKN036 OVC047 12/10 A2974 RMK AO2 PK WND 13031/2036 RAB41 SLP073 P0000 60011 T01170100 56089EQDQ01  00278PRCP03
0349745966037262024010921567+39008-074908FM-15+0007KWWD V0201305N01245008535MN0048285N5+01175+01115100435ADDAA101001895AU120020015AU200001015AW1105AW2625GA1075+008535999GA2085+010065999GD13991+0085359GD24991+0100659GE19AGL   +99999+99999GF199999999999008531999999MA1100415100325MW1655OC101655OD149901641150REMMET13901/09/24 16:56:02 METAR KWWD 092156Z 13024G32KT 3SM RA BR BKN028 OVC033 12/11 A2965 RMK AO2 PK WND 15032/2153 PRESFR SLP043 P0007 T01170111
0333745966037262024010922307+39008-074908FM-15+0007KWWD V0201405N01035005795MN0064375N5+01205+01105999999ADDAA101001595AU110020015AU200001015AW1105AW2615GA1025+002745999GA2085+005795999GD11991+0027459GD24991+0057959GE19AGL   +99999+99999GF199999999999002741999999MA1100305100225MW1615OC101395OD149901641130REMMET12301/09/24 17:30:02 METAR KWWD 092230Z 14020G27KT 4SM -RA BR FEW009 OVC019 12/11 A2962 RMK AO2 PK WND 13032/2157 PRESFR P0006
0350745966037262024010922567+39008-074908FM-15+0007KWWD V0201305N01135006405MN0096565N5+01175+01175100135ADDAA101001895AU110020015AU200001015AW1105AW2615GA1075+006405999GA2085+007625999GD13991+0064059GD24991+0076259GE19AGL   +99999+99999GF199999999999006401999999MA1100105100025MW1615OC101495OD149901641130REMMET14001/09/24 17:56:02 METAR KWWD 092256Z 13022G29KT 6SM -RA BR BKN021 OVC025 12/12 A2956 RMK AO2 PK WND 13032/2157 PRESFR SLP013 P0007 T01170117
0325745966037262024010923327+39008-074908FM-15+0007KWWD V0201505N01085003665MN0048285N5+01205+01205999999ADDAA101002595AU120020015AU200001015AW1105AW2625GA1075+003665999GA2085+005495999GD13991+0036659GD24991+0054959GE19AGL   +99999+99999GF199999999999003661999999MA1099975099885MW1655OC101545OD149901591140REMMET11501/09/24 18:32:02 METAR KWWD 092332Z 15021G30KT 3SM RA BR BKN012 OVC018 12/12 A2952 RMK AO2 PK WND 14031/2314 P0010
0444745966037262024010923567+39008-074908FM-15+0007KWWD V0201505N01295004275MN0064375N5+01225+01225099855ADDAA101003695AA206009991AU110020015AU200001015AW1105AW2615GA1075+004275999GA2085+008235999GD13991+0042759GD24991+0082359GE19AGL   +99999+99999GF199999999999004271999999KA1060M+01221KA2060N+01001MA1099835099755MD1690889+9999MW1615OC101705OD149901751160REMMET16401/09/24 18:56:02 METAR KWWD 092356Z 15025G33KT 4SM -RA BR BKN014 OVC027 12/12 A2948 RMK AO2 PK WND 16034/2345 PRESFR SLP985 P0014 60039 T01220122 10122 20100 56088EQDQ01  00998PRCP06
0364745966037262024011000207+39008-074908FM-15+0007KWWD V0201505N01085007625MN0080475N5+01305+01205999999ADDAA101000595AU110020015AU200001015AW1105AW2615GA1025+003055999GA2045+006105999GA3085+007625999GD11991+0030559GD22991+0061059GD34991+0076259GE19AGL   +99999+99999GF199999999999003051999999MA1099765099685MW1615OC101805OD149901801160REMMET12301/09/24 19:20:01 METAR KWWD 100020Z 15021G35KT 5SM -RA BR FEW010 SCT020 OVC025 13/12 A2946 RMK AO2 PK WND 16035/0014 P0002
0311745966037262024011000567+39008-074908FM-15+0007KWWD V0201505N01345004885MN0064375N5+01285+01225099625ADDAA101001395AU120020015AU200001015AW1105AW2625GA1085+004885999GD14991+0048859GE19AGL   +99999+99999GF199999999999004881999999MA1099595099515MW1655OC101805OD149901801150REMMET13201/09/24 19:56:01 METAR KWWD 100056Z 15026G35KT 4SM RA BR OVC016 13/12 A2941 RMK AO2 PK WND 15035/0053 PRESFR SLP962 P0005 T01280122
0332745966037262024011001057+39008-074908FM-15+0007KWWD V0201505N01395004885MN0048285N5+01305+01205999999ADDAA101000895AU120020015AU200001015AW1105AW2625GA1025+002745999GA2085+004885999GD11991+0027459GD24991+0048859GE19AGL   +99999+99999GF199999999999002741999999MA1099535099445MW1655OC102065OD149902051150REMMET12201/09/24 20:05:01 METAR KWWD 100105Z 15027G40KT 3SM RA BR FEW009 OVC016 13/12 A2939 RMK AO2 PK WND 15040/0057 PRESFR P0003
0338745966037262024011001177+39008-074908FM-15+0007KWWD V0201605N01245002745MN0048285N5+01305+01305999999ADDAA101001395AU110020015AU200001015AW1105AW2615GA1075+002745999GA2085+004885999GD13991+0027451GD24991+0048859GE19AGL   +99999+99999GF199999999999002741999999MA1099535099445MW1615OC102065OD149902051150REMMET12801/09/24 20:17:01 METAR KWWD 100117Z 16024G40KT 3SM -RA BR BKN009 OVC016 13/13 A2939 RMK AO2 PK WND 15040/0111 CIG 007V012 P0005
0305745966037262024011001567+39008-074908FM-15+0007KWWD V0201605N01495002135MN0048285N5+01335+01285099345ADDAA101002895AU110020015AU200001015AW1105AW2615GA1085+002135999GD14991+0021359GE19AGL   +99999+99999GF199999999999002131999999MA1099325099245MW1615OC101905OD149902051150REMMET12601/09/24 20:56:01 METAR KWWD 100156Z 16029G37KT 3SM -RA BR OVC007 13/13 A2933 RMK AO2 PK WND 15040/0146 SLP934 P0011 T01330128
0291745966037262024011002467+39008-074908FM-15+0007KWWD V0201605N01445002135MN0040235N5+01305+01305999999ADDAA101003895AU120020015AU200001015AW1105AW2625GA1085+002135999GD14991+0021359GE19AGL   +99999+99999GF199999999999002131999999MA1099095099005MW1655OC102275OD149902311150REMMET11201/09/24 21:46:01 METAR KWWD 100246Z 16028G44KT 2 1/2SM RA BR OVC007 13/13 A2926 RMK AO2 PK WND 15045/0220 P0015
0371745966037262024011002567+39008-074908FM-15+0007KWWD V0201505N01495002135MN0040235N5+01335+01335099035ADDAA101005195AA203009191AU120020015AU200001015AW1105AW2625GA1085+002135999GD14991+0021359GE19AGL   +99999+99999GF199999999999002131999999MA1099025098945MD1890829+9999MW1655OC101965OD149902311150REMMET14801/09/24 21:56:01 METAR KWWD 100256Z 15029G38KT 2 1/2SM RA BR OVC007 13/13 A2924 RMK AO2 PK WND 15045/0220 PRESFR SLP903 P0020 60036 T01330133 58082EQDQ01  00918PRCP03
0294745966037262024011003117+39008-074908FM-15+0007KWWD V0201605N01855002135MN0048285N5+01305+01305999999ADDAA101001395AU120020015AU200001015AW1105AW2625GA1085+002135999GD14991+0021359GE19AGL   +99999+99999GF199999999999002131999999MA1098925098835MW1655OC102275OD149902261160REMMET11501/09/24 22:11:01 METAR KWWD 100311Z 16036G44KT 3SM RA BR OVC007 13/13 A2921 RMK AO2 PK WND 16044/0311 PRESFR P0005
0356745966037262024011003337+39008-074908FM-15+0007KWWD V0202405N00985002135MN0048285N5+01305+01305999999ADDAA101007695AU130020015AU200001015AW1105AW2635GA1075+002135999GA2085+003665999GD13991+0021351GD24991+0036659GE19AGL   +99999+99999GF199999999999002131999999MA1099265099175MW1635OC101445OD149902261160REMMET14601/09/24 22:33:01 METAR KWWD 100333Z 24019G28KT 3SM +RA BR BKN007 OVC012 13/13 A2931 RMK AO2 PK WND 16044/0311 WSHFT 0313 CIG 006V011 PRESRR P0030
0315745966037262024011003397+39008-074908FM-15+0007KWWD V0201905N01135002135MN0028165N5+01405+01405999999ADDAA101021395AU130020015AU200001015AW1105AW2635GA1085+002135999GD14991+0021351GE19AGL   +99999+99999GF199999999999002131999999MA1099195099105MW1635OC101545OD149902261160REMMET13601/09/24 22:39:01 METAR KWWD 100339Z 19022G30KT 1 3/4SM +RA BR OVC007 14/14 A2929 RMK AO2 PK WND 16044/0311 WSHFT 0313 CIG 004V012 P0084
0387745966037262024011003487+39008-074908FM-15+0007KWWD V0202205N00985002135MN0048285N5+01405+01405999999ADDAA101023695AU130020015AU200001015AW1105AW2635GA1075+002135999GA2075+004275999GA3085+015245999GD13991+0021351GD23991+0042759GD34991+0152459GE19AGL   +99999+99999GF199999999999002131999999MA1099125099045MW1635OC101545OD149902261160REMMET14601/09/24 22:48:01 METAR KWWD 100348Z 22019G30KT 3SM +RA BR BKN007 BKN014 OVC050 14/14 A2927 RMK AO2 PK WND 16044/0311 WSHFT 0313 CIG 004V011 P0093
0380745966037262024011003567+39008-074908FM-15+0007KWWD V0201805N00775009145MN0096565N5+01445+01445099105ADDAA101024695AU120020015AU200001015AW1105AW2625GA1045+002745999GA2075+009145999GA3085+015245999GD12991+0027459GD23991+0091459GD34991+0152459GE19AGL   +99999+99999GF199999999999002741999999MA1099095099005MW1655OD149902261160REMMET14701/09/24 22:56:01 METAR KWWD 100356Z 18015KT 6SM RA BR SCT009 BKN030 OVC050 14/14 A2926 RMK AO2 PK WND 16044/0311 WSHFT 0313 SLP910 P0097 T01440144
0320745966037262024011004077+39008-074908FM-15+0007KWWD V0201805N00725008845MN0096565N5+01405+01405999999ADDAA101000395AU120020015AU200001015AW1105AW2625GA1025+002445999GA2075+008845999GA3085+015245999GD11991+0024459GD23991+0088459GD34991+0152459GE19AGL   +99999+99999GF199999999999002441999999MA1099055098975MW1655REMMET10101/09/24 23:07:01 METAR KWWD 100407Z 18014KT 6SM RA BR FEW008 BKN029 OVC050 14/14 A2925 RMK AO2 P0001
0344745966037262024011004227+39008-074908FM-15+0007KWWD V0201705N00935001835MN0096565N5+01405+01405999999ADDAA101001095AU110020015AU200001015AW1105AW2615GA1075+001835999GA2075+005795999GA3085+015245999GD13991+0018351GD23991+0057959GD34991+0152459GE19AGL   +99999+99999GF199999999999001831999999MA1099025098945MW1615OC101295REMMET11701/09/24 23:22:01 METAR KWWD 100422Z 17018G25KT 6SM -RA BR BKN006 BKN019 OVC050 14/14 A2924 RMK AO2 CIG 004V010 P0004
0318745966037262024011004317+39008-074908FM-15+0007KWWD V0201705N00935014945MN0112655N5+01405+01405999999ADDAA101001595AU120020015AW1625GA1045+001835999GA2075+014945999GA3085+022865999GD12991+0018359GD23991+0149459GD34991+0228659GE19AGL   +99999+99999GF199999999999001831999999MA1098955098875MW1655OC101295REMMET10801/09/24 23:31:01 METAR KWWD 100431Z 17018G25KT 7SM RA SCT006 BKN049 OVC075 14/14 A2922 RMK AO2 PRESFR P0006
0424745966037262024011004567+39008-074908FM-15+0007KWWD V0201605N01035016765MN0080475N5+01285+01285098755ADDAA101003895AU110020015AU200001015AW1105AW2615GA1045+001225999GA2075+016765999GA3085+027435999GD12991+0012259GD23991+0167659GD34991+0274359GE19AGL   +99999+99999GF199999999999001221999999KA1240M+01441KA2240N-00281MA1098715098635MW1615OC101395OD149901391160REMMET15701/09/24 23:56:01 METAR KWWD 100456Z 16020G27KT 5SM -RA BR SCT004 BKN055 OVC090 13/13 A2915 RMK AO2 PK WND 16027/0447 PRESFR SLP875 P0015 T01280128 401441028
002774596603726202401100459O+39008-074908SOD  +0007KWWD V020999999999999999999999999999+99999+99999999999ADDAT1AU16RA  5AT2AU13BR  5
0332745966037262024011005037+39008-074908FM-15+0007KWWD V0201705N00885001225MN0080475N5+01305+01305999999ADDAA101000231AU110020015AU200001015AW1105AW2615GA1075+001225999GA2075+015245999GA3085+021345999GD13991+0012259GD23991+0152459GD34991+0213459GE19AGL   +99999+99999GF199999999999001221999999MA1098755098665MW1615OC101295REMMET10501/10/24 00:03:01 METAR KWWD 100503Z 17017G25KT 5SM -RA BR BKN004 BKN050 OVC070 13/13 A2916 RMK AO2 P0001
0337745966037262024011005417+39008-074908FM-15+0007KWWD V0201905N00935001225MN0064375N5+01205+01205999999ADDAA101000895AU110020015AU200001015AW1105AW2615GA1075+001225999GA2085+015245999GD13991+0012259GD24991+0152459GE19AGL   +99999+99999GF199999999999001221999999MA1098655098565MW1615OC101345OD149901441170REMMET12701/10/24 00:41:01 METAR KWWD 100541Z 19018G26KT 4SM -RA BR BKN004 OVC050 12/12 A2913 RMK AO2 PK WND 17028/0511 WSHFT 0521 P0003
0441745966037262024011005567+39008-074908FM-15+0007KWWD V0201805N01035001835MN0160935N5+01285+01285098715ADDAA101000895AA206038491AU110020015AW1615GA1075+001835999GA2085+015245999GD13991+0018351GD24991+0152459GE19AGL   +99999+99999GF199999999999001831999999KA1060M+01441KA2060N+01221MA1098685098605MD1890329+9999MW1615OC101445OD149901441170REMMET17801/10/24 00:56:01 METAR KWWD 100556Z 18020G28KT 10SM -RA BKN006 OVC050 13/13 A2914 RMK AO2 PK WND 17028/0556 WSHFT 0521 CIG 003V009 SLP871 P0003 60151 T01280128 10144 20122 58032EQDQ01  03838PRCP06
0225745966037262024011006447+39008-074908FM-15+0007KWWD V0201905N005752200059N0144845N5+01305+01205999999ADDAA101000021GA1045+001835999GD12991+0018359GE19AGL   +99999+99999GF104995999999001831999999MA1098586098506REMMET08901/10/24 01:44:01 METAR KWWD 100644Z 19011KT 9SM SCT006 13/12 A2911 RMK AO2 RAE0558 P0000EQDD01      0ADE726
0242745966037262024011006567+39008-074908FM-15+0007KWWD V0201905N006252200059N0128755N5+01225+01225098646ADDAA101000021GA1025+001225999GD11991+0012259GE19AGL   +99999+99999GF102995999999001221999999MA1098616098536REMMET10601/10/24 01:56:01 METAR KWWD 100656Z 19012KT 8SM FEW004 12/12 A2912 RMK AO2 RAE0558 SLP864 P0000 T01220122EQDD01      0ADE726
0229745966037262024011007567+39008-074908FM-15+0007KWWD V0202205N009352200059N0160935N5+01285+00835098686ADDGA1025+021345999GD11991+0213459GE19AGL   +99999+99999GF102995999999021341999999MA1098656098566OC101295REMMET09601/10/24 02:56:01 METAR KWWD 100756Z 22018G25KT 10SM FEW070 13/08 A2913 RMK AO2 SLP868 T01280083EQDD01      0ADE726
0271745966037262024011008567+39008-074908FM-15+0007KWWD V0202205N007752200059N0160935N5+01175+00785098726ADDAA103000021GA1025+024385999GD11991+0243859GE19AGL   +99999+99999GF102995999999024381999999MA1098716098636MD1390019+9999REMMET10501/10/24 03:56:01 METAR KWWD 100856Z 22015KT 10SM FEW080 12/08 A2915 RMK AO2 SLP872 60000 T01170078 53001EQDQ01  00008PRCP03D01      0ADE726
0199745966037262024011009567+39008-074908FM-15+0007KWWD V0202305N00775027435MN0160935N5+01065+00725098815ADDGA1085+027435999GD14991+0274359GE19AGL   +99999+99999GF199999999999027431999999MA1098815098735REMMET09301/10/24 04:56:01 METAR KWWD 100956Z 23015KT 10SM OVC090 11/07 A2918 RMK AO2 SLP881 T01060072
0199745966037262024011010567+39008-074908FM-15+0007KWWD V0202405N00675028965MN0160935N5+01005+00675098895ADDGA1075+028965999GD13991+0289659GE19AGL   +99999+99999GF199999999999028961999999MA1098885098805REMMET09301/10/24 05:56:02 METAR KWWD 101056Z 24013KT 10SM BKN095 10/07 A2920 RMK AO2 SLP889 T01000067
0381745966037262024011011567+39008-074908FM-15+0007KWWD V0202905N00775009755MN0160935N5+00785+00505099185ADDAA101000021AA206000021AA324050391AU110020015AW1615GA1085+009755999GD14991+0097559GE19AGL   +99999+99999GF199999999999009751999999KA1060M+01331MA1099155099075MD1390459+9999MW1615OC101035REMMET14901/10/24 06:56:02 METAR KWWD 101156Z 29015G20KT 10SM -RA OVC032 08/05 A2928 RMK AO2 RAB41 PRESRR SLP918 P0000 60000 70198 T00780050 10133 20078 53045EQDQ01  00008PRCP06Q02  05028PRCP24
0306745966037262024011012247+39008-074908FM-15+0007KWWD V0202805N00935008235MN0144845N5+00705+00505999999ADDAA101000595AU110020015AW1615GA1075+008235999GA2085+010365999GD13991+0082359GD24991+0103659GE19AGL   +99999+99999GF199999999999008231999999MA1099225099145MW1615OC101395OD149901541270REMMET11301/10/24 07:24:02 METAR KWWD 101224Z 28018G27KT 9SM -RA BKN027 OVC034 07/05 A2930 RMK AO2 PK WND 27030/1203 P0002
0345745966037262024011012537+39008-074908FM-15+0007KWWD V0202705N00725016765MN0160935N5+00705+00405999999ADDAA101001095AU110020015AW1615GA1045+008235999GA2045+011895999GA3085+016765999GD12991+0082359GD22991+0118959GD34991+0167659GE19AGL   +99999+99999GF199999999999008231999999MA1099325099245MW1615OC101495OD149901541270REMMET12101/10/24 07:53:02 METAR KWWD 101253Z 27014G29KT 10SM -RA SCT027 SCT039 OVC055 07/04 A2933 RMK AO2 PK WND 27030/1203 P0004
0362745966037262024011012567+39008-074908FM-15+0007KWWD V0202805N00625013115MN0160935N5+00675+00445099345ADDAA101001095AU110020015AW1615GA1045+008845999GA2075+013115999GA3085+016765999GD12991+0088459GD23991+0131159GD34991+0167659GE19AGL   +99999+99999GF199999999999008841999999MA1099325099245MW1615OC101495OD149901541270REMMET13801/10/24 07:56:02 METAR KWWD 101256Z 28012G29KT 10SM -RA SCT029 BKN043 OVC055 07/04 A2933 RMK AO2 PK WND 27030/1203 SLP934 P0004 T00670044
0260745966037262024011013567+39008-074908FM-15+0007KWWD V0202405N00265028965MN0160935N5+00725+00445099405ADDAA101000021GA1025+021345999GA2085+028965999GD11991+0213459GD24991+0289659GE19AGL   +99999+99999GF199999999999021341999999MA1099395099315REMMET11201/10/24 08:56:02 METAR KWWD 101356Z 24005KT 10SM FEW070 OVC095 07/04 A2935 RMK AO2 RAE15 SLP940 P0000 T00720044
0299745966037262024011014567+39008-074908FM-15+0007KWWD V0202505N00675018295MN0160935N5+00835+00395099635ADDAA101000021AA203001091GA1085+018295999GD14991+0182959GE19AGL   +99999+99999GF199999999999018291999999MA1099595099515MD1390309+9999OC101035REMMET13001/10/24 09:56:02 METAR KWWD 101456Z 25013G20KT 10SM OVC060 08/04 A2941 RMK AO2 RAB43E55 PRESRR SLP963 P0000 60004 T00830039 53030EQDQ01  00108PRCP03
0185745966037262024011015567+39008-074908FM-15+0007KWWD V0202705N006752200059N0160935N5+01005+00285099635ADDGA1005+999999999GD10991+9999999GF100991999999999999999999MA1099635099545OC100825REMMET09301/10/24 10:56:02 METAR KWWD 101556Z 27013G16KT 10SM CLR 10/03 A2942 RMK AO2 SLP963 T01000028
0210745966037262024011016567+39008-074908FM-15+0007KWWD V0202605N00725018295MN0160935N5+01065+00065099735ADDGA1075+018295999GD13991+0182959GE19AGL   +99999+99999GF199999999999018291999999MA1099735099655OC101135REMMET09601/10/24 11:56:02 METAR KWWD 101656Z 26014G22KT 10SM BKN060 11/01 A2945 RMK AO2 SLP973 T01060006
0304745966037262024011017567+39008-074908FM-15+0007KWWD V0202605N00775019815MN0160935N5+01065+00175099825ADDAA106001091GA1075+019815999GD13991+0198159GE19AGL   +99999+99999GF199999999999019811999999KA1060M+01061KA2060N+00611MA1099805099715MD1390199+9999OC101135REMMET12001/10/24 12:56:02 METAR KWWD 101756Z 26015G22KT 10SM BKN065 11/02 A2947 RMK AO2 SLP982 60004 T01060017 10106 20061 53019EQDQ01  00108PRCP06
0210745966037262024011018567+39008-074908FM-15+0007KWWD V0202605N00775019815MN0160935N5+00945+00175099945ADDGA1085+019815999GD14991+0198159GE19AGL   +99999+99999GF199999999999019811999999MA1099935099855OC101085REMMET09601/10/24 13:56:02 METAR KWWD 101856Z 26015G21KT 10SM OVC065 09/02 A2951 RMK AO2 SLP994 T00940017
0185745966037262024011019567+39008-074908FM-15+0007KWWD V0202605N008252200059N0160935N5+01005+00115100005ADDGA1005+999999999GD10991+9999999GF100991999999999999999999MA1100005099925OC101245REMMET09301/10/24 14:56:02 METAR KWWD 101956Z 26016G24KT 10SM CLR 10/01 A2953 RMK AO2 SLP000 T01000011
0205745966037262024011020567+39008-074908FM-15+0007KWWD V0202505N007752200059N0160935N5+01005+00115100175ADDGA1005+999999999GD10991+9999999GF100991999999999999999999MA1100175100095MD1390369+9999OC100985REMMET09901/10/24 15:56:02 METAR KWWD 102056Z 25015G19KT 10SM CLR 10/01 A2958 RMK AO2 SLP017 T01000011 53036
0229745966037262024011021567+39008-074908FM-15+0007KWWD V0202605N006252200059N0160935N5+00895+00175100315ADDGA1045+019815999GD12991+0198159GE19AGL   +99999+99999GF104995999999019811999999MA1100305100225OC100935REMMET09601/10/24 16:56:02 METAR KWWD 102156Z 26012G18KT 10SM SCT065 09/02 A2962 RMK AO2 SLP031 T00890017EQDD01      0ADE726
0218745966037262024011022567+39008-074908FM-15+0007KWWD V0202605N004652200059N0160935N5+00835+00225100465ADDGA1025+019815999GD11991+0198159GE19AGL   +99999+99999GF102995999999019811999999MA1100445100365REMMET09301/10/24 17:56:02 METAR KWWD 102256Z 26009KT 10SM FEW065 08/02 A2966 RMK AO2 SLP046 T00830022EQDD01      0ADE726
0243745966037262024011023567+39008-074908FM-15+0007KWWD V0202805N005752200059N0160935N5+00785+00065100575ADDGA1005+999999999GD10991+9999999GF100991999999999999999999KA1060M+01061KA2060N+00781MA1100545100465MD1190399+9999OC100885REMMET11101/10/24 18:56:02 METAR KWWD 102356Z 28011G17KT 10SM CLR 08/01 A2969 RMK AO2 SLP057 T00780006 10106 20078 51039
0174745966037262024011100567+39008-074908FM-15+0007KWWD V0202905N006252200059N0160935N5+00785+00065100655ADDGA1005+999999999GD10991+9999999GF100991999999999999999999MA1100645100565REMMET09001/10/24 19:56:01 METAR KWWD 110056Z 29012KT 10SM CLR 08/01 A2972 RMK AO2 SLP065 T00780006
0174745966037262024011101567+39008-074908FM-15+0007KWWD V0202805N004652200059N0160935N5+00725+00065100755ADDGA1005+999999999GD10991+9999999GF100991999999999999999999MA1100755100665REMMET09001/10/24 20:56:01 METAR KWWD 110156Z 28009KT 10SM CLR 07/01 A2975 RMK AO2 SLP075 T00720006
0194745966037262024011102567+39008-074908FM-15+0007KWWD V0202505V004152200059N0160935N5+00675+00065100845ADDGA1005+999999999GD10991+9999999GF100991999999999999999999MA1100815100735MD1390279+9999REMMET09601/10/24 21:56:01 METAR KWWD 110256Z 25008KT 10SM CLR 07/01 A2977 RMK AO2 SLP084 T00670006 53027
0174745966037262024011103567+39008-074908FM-15+0007KWWD V0202805N005152200059N0160935N5+00675+00005100875ADDGA1005+999999999GD10991+9999999GF100991999999999999999999MA1100855100765REMMET09001/10/24 22:56:01 METAR KWWD 110356Z 28010KT 10SM CLR 07/00 A2978 RMK AO2 SLP087 T00670000
0210745966037262024011104567+39008-074908FM-15+0007KWWD V0202605N003152200059N0160935N5+00565+00065100925ADDGA1005+999999999GD10991+9999999GF100991999999999999999999KA1240M+01331KA2240N+00561MA1100915100835REMMET10001/10/24 23:56:01 METAR KWWD 110456Z 26006KT 10SM CLR 06/01 A2980 RMK AO2 SLP092 T00560006 401330056
002774596603726202401110459O+39008-074908SOD  +0007KWWD V020999999999999999999999999999+99999+99999999999ADDAT1AU16RA  5AT2AU13BR  5
0232745966037262024011105567+39008-074908FM-15+0007KWWD V0202605N003152200059N0160935N5+00565+00065100965ADDGA1005+999999999GD10991+9999999GF100991999999999999999999KA1060M+00781KA2060N+00561MA1100955100865MD1390139+9999REMMET10801/11/24 00:56:01 METAR KWWD 110556Z 26006KT 10SM CLR 06/01 A2981 RMK AO2 SLP096 T00560006 10078 20056 53013
0174745966037262024011106567+39008-074908FM-15+0007KWWD V0202705N004152200059N0160935N5+00565+00005101035ADDGA1005+999999999GD10991+9999999GF100991999999999999999999MA1101025100935REMMET09001/11/24 01:56:01 METAR KWWD 110656Z 27008KT 10SM CLR 06/00 A2983 RMK AO2 SLP103 T00560000
0174745966037262024011107567+39008-074908FM-15+0007KWWD V0202705N003152200059N0160935N5+00565+00005101095ADDGA1005+999999999GD10991+9999999GF100991999999999999999999MA1101085101005REMMET09001/11/24 02:56:01 METAR KWWD 110756Z 27006KT 10SM CLR 06/00 A2985 RMK AO2 SLP109 T00560000
0194745966037262024011108567+39008-074908FM-15+0007KWWD V0202605N003152200059N0160935N5+00505+00065101105ADDGA1005+999999999GD10991+9999999GF100991999999999999999999MA1101085101005MD1190149+9999REMMET09601/11/24 03:56:01 METAR KWWD 110856Z 26006KT 10SM CLR 05/01 A2985 RMK AO2 SLP110 T00500006 51014
0174745966037262024011109567+39008-074908FM-15+0007KWWD V0202405N003152200059N0160935N5+00445+00005101155ADDGA1005+999999999GD10991+9999999GF100991999999999999999999MA1101125101035REMMET09001/11/24 04:56:01 METAR KWWD 110956Z 24006KT 10SM CLR 04/00 A2986 RMK AO2 SLP115 T00440000
0174745966037262024011110567+39008-074908FM-15+0007KWWD V0202505N002652200059N0160935N5+00395+00005101205ADDGA1005+999999999GD10991+9999999GF100991999999999999999999MA1101195101105REMMET09001/11/24 05:56:02 METAR KWWD 111056Z 25005KT 10SM CLR 04/00 A2988 RMK AO2 SLP120 T00390000
0276745966037262024011111567+39008-074908FM-15+0007KWWD V0202405N001552200059N0160935N5+00005-00115101295ADDAA124001091GA1005+999999999GD10991+9999999GF100991999999999999999999KA1060M+00561KA2060N+00001MA1101295101205MD1390199+9999REMMET12201/11/24 06:56:02 METAR KWWD 111156Z 24003KT 10SM CLR 00/M01 A2991 RMK AO2 SLP129 70004 T00001011 10056 20000 53019 FZRANOEQDQ01  00108PRCP24
0182745966037262024011112567+39008-074908FM-15+0007KWWD V0209999C000052200059N0160935N5+00115-00065101365ADDGA1005+999999999GD10991+9999999GF100991999999999999999999MA1101355101275REMMET09801/11/24 07:56:02 METAR KWWD 111256Z 00000KT 10SM CLR 01/M01 A2993 RMK AO2 SLP136 T00111006 FZRANO
0174745966037262024011113567+39008-074908FM-15+0007KWWD V0202605N002652200059N0160935N5+00615+00065101385ADDGA1005+999999999GD10991+9999999GF100991999999999999999999MA1101355101275REMMET09001/11/24 08:56:02 METAR KWWD 111356Z 26005KT 10SM CLR 06/01 A2993 RMK AO2 SLP138 T00610006
