0250745966037262021010100564+39009-074908FM-15+000799999V0203401N002610198119N016093199+00611+00221102721ADDAA101000021AW1611GD12991+0152419GD23991+0198119GD34991+0274319GE19MSL   +99999+99999GF199999999999015241999999MA1102711999999REMMET113METAR KWWD 010056Z AUTO 34005KT 10SM -RA SCT050 BKN065 OVC090 06/02 A3033 RMK AO2 RAB50 SLP272 P0000 T00610022 $=
0222745966037262021010101564+39009-074908FM-15+000799999V0203401N002110304819N016093199+00501+00281102761ADDAA101000021AW1611GD11991+0213419GD24991+0304819GE19MSL   +99999+99999GF199999999999021341999999MA1102741999999REMMET100METAR KWWD 010156Z AUTO 34004KT 10SM -RA FEW070 OVC100 05/03 A3034 RMK AO2 SLP276 P0000 T00500028 $=
0268745966037262021010102564+39009-074908FM-15+000799999V0203501N002112200059N016093199+00501+00281102851ADDAA101000021AA203000021GD12991+0213419GE19AGL   +99999+99999GF104995999999021341999999MA1102841999999MD1110231+9999REMMET107METAR KWWD 010256Z AUTO 35004KT 10SM SCT070 05/03 A3037 RMK AO2 RAE25 SLP285 P0000 60000 T00500028 51023 $=EQDQ01  00008PRCP03D01      0ADE726
0192745966037262021010103564+39009-074908FM-15+000799999V0203501N002612200059N016093199+00501+00221102961ADDGD12991+0335319GE19AGL   +99999+99999GF104995999999033531999999MA1102951999999REMMET083METAR KWWD 010356Z AUTO 35005KT 10SM SCT110 05/02 A3040 RMK AO2 SLP296 T00500022 $=EQDD01      0ADE726
0209745966037262021010104564+39009-074908FM-15+000799999V0200101N004110182919N016093199+00441+00001102961ADDGD14991+0182919GE19MSL   +99999+99999GF199999999999018291999999KA1240M+01221KA2240N+00441MA1102951999999REMMET093METAR KWWD 010456Z AUTO 01008KT 10SM OVC060 04/00 A3040 RMK AO2 SLP296 T00440000 401220044 $=
0296745966037262021010105567+39008-074908FM-15+0007KWWD V0200205N00365018295MN0160935N5+00285-00065103035ADDAA106000021GA1075+018295999GD13991+0182959GE19MSL   +99999+99999GF199999999999018291999999KA1060M+00671KA2060N+00281MA1103015102935MD1190189+9999REMMET12001/01/21 00:56:02 METAR KWWD 010556Z 02007KT 10SM BKN060 03/M01 A3042 RMK AO2 SLP303 60000 T00281006 10067 20028 51018 $EQDQ01  00008PRCP06
0184745966037262021010106567+39008-074908FM-15+0007KWWD V0200205N004152200059N0160935N5+00225-00285103115ADDGA1005+999999999GD10991+9999999GF100991999999999999999999MA1103085103005REMMET10001/01/21 01:56:02 METAR KWWD 010656Z 02008KT 10SM CLR 02/M03 A3044 RMK AO2 SLP311 T00221028 FZRANO $
0184745966037262021010107567+39008-074908FM-15+0007KWWD V0200205N003652200059N0160935N5+00115-00335103195ADDGA1005+999999999GD10991+9999999GF100991999999999999999999MA1103185103105REMMET10001/01/21 02:56:02 METAR KWWD 010756Z 02007KT 10SM CLR 01/M03 A3047 RMK AO2 SLP319 T00111033 FZRANO $
0204745966037262021010108567+39008-074908FM-15+0007KWWD V0200105N002652200059N0160935N5+00065-00335103165ADDGA1005+999999999GD10991+9999999GF100991999999999999999999MA1103155103065MD1090139+9999REMMET10601/01/21 03:56:02 METAR KWWD 010856Z 01005KT 10SM CLR 01/M03 A3046 RMK AO2 SLP316 T00061033 50013 FZRANO $
0184745966037262021010109567+39008-074908FM-15+0007KWWD V0200105N002652200059N0160935N5+00005-00335103185ADDGA1005+999999999GD10991+9999999GF100991999999999999999999MA1103155103065REMMET10001/01/21 04:56:02 METAR KWWD 010956Z 01005KT 10SM CLR 00/M03 A3046 RMK AO2 SLP318 T00001033 FZRANO $
0185745966037262021010110567+39008-074908FM-15+0007KWWD V0200205N003152200059N0160935N5-00065-00335103225ADDGA1005+999999999GD10991+9999999GF100991999999999999999999MA1103185103105REMMET10101/01/21 05:56:02 METAR KWWD 011056Z 02006KT 10SM CLR M01/M03 A3047 RMK AO2 SLP322 T10061033 FZRANO $
0243745966037262021010111567+39008-074908FM-15+0007KWWD V0200105N002652200059N0160935N5-00065-00285103265ADDGA1005+999999999GD10991+9999999GF100991999999999999999999KA1060M+00331KA2060N-00061MA1103255103175MD1390109+9999REMMET11901/01/21 06:56:02 METAR KWWD 011156Z 01005KT 10SM CLR M01/M03 A3049 RMK AO2 SLP326 T10061028 10033 21006 53010 FZRANO $
0184745966037262021010112567+39008-074908FM-15+0007KWWD V0200305N003152200059N0160935N5+00065-00225103285ADDGA1005+999999999GD10991+9999999GF100991999999999999999999MA1103255103175REMMET10001/01/21 07:56:02 METAR KWWD 011256Z 03006KT 10SM CLR 01/M02 A3049 RMK AO2 SLP328 T00061022 FZRANO $
0184745966037262021010113567+39008-074908FM-15+0007KWWD V0200205N002652200059N0160935N5+00225-00115103315ADDGA1005+999999999GD10991+9999999GF100991999999999999999999MA1103285103205REMMET10001/01/21 08:56:02 METAR KWWD 011356Z 02005KT 10SM CLR 02/M01 A3050 RMK AO2 SLP331 T00221011 FZRANO $
0196745966037262021010114567+39008-074908FM-15+0007KWWD V0200305N002652200059N0160935N5+00395+00005103325ADDGA1005+999999999GD10991+9999999GF100991999999999999999999MA1103325103235MD1190069+9999REMMET09801/01/21 09:56:02 METAR KWWD 011456Z 03005KT 10SM CLR 04/00 A3051 RMK AO2 SLP332 T00390000 51006 $
0176745966037262021010115567+39008-074908FM-15+0007KWWD V0200605N004652200059N0160935N5+00505+00115103135ADDGA1005+999999999GD10991+9999999GF100991999999999999999999MA1103125103035REMMET09201/01/21 10:56:02 METAR KWWD 011556Z 06009KT 10SM CLR 05/01 A3045 RMK AO2 SLP313 T00500011 $
0201745966037262021010116567+39008-074908FM-15+0007KWWD V0200605N00365033535MN0160935N5+00565+00175103025ADDGA1075+033535999GD13991+0335359GE19MSL   +99999+99999GF199999999999033531999999MA1103015102935REMMET09501/01/21 11:56:02 METAR KWWD 011656Z 06007KT 10SM BKN110 06/02 A3042 RMK AO2 SLP302 T00560017 $
0437745966037262021010117567+39008-074908FM-15+0007KWWD V0200705N00365016765MN0160935N5+00615+00335102935ADDAA101000021AA206000021AU110020015AW1615GA1045+007625999GA2075+016765999GA3085+025915999GD12991+0076259GD23991+0167659GD34991+0259159GE19MSL   +99999+99999GF199999999999007621999999KA1060M+00611KA2060N-00061MA1102915102835MD1690409+9999MW1615REMMET14901/01/21 12:56:02 METAR KWWD 011756Z 07007KT 10SM -RA SCT025 BKN055 OVC085 06/03 A3039 RMK AO2 RAB05 SLP293 P0000 60000 T00610033 10061 21006 56040 $EQDQ01  00002PRCP06Q02  00008PRCP06
0320745966037262021010118567+39008-074908FM-15+0007KWWD V0200705N00265021345MN0128755N5+00615+00445102795ADDAA101000595AU110020015AW1615GA1025+007325999GA2075+021345999GA3085+030485999GD11991+0073259GD23991+0213459GD34991+0304859GE19MSL   +99999+99999GF199999999999007321999999MA1102785102695MW1615REMMET11801/01/21 13:56:02 METAR KWWD 011856Z 07005KT 8SM -RA FEW024 BKN070 OVC100 06/04 A3035 RMK AO2 SLP279 P0002 T00610044 $
0283745966037262021010119567+39008-074908FM-15+0007KWWD V0200805N00315027435MN0160935N5+00675+00505102735ADDAA101000021AU110020015AW1615GA1025+008235999GA2085+027435999GD11991+0082359GD24991+0274359GE19MSL   +99999+99999GF199999999999008231999999MA1102715102625MW1615REMMET11201/01/21 14:56:02 METAR KWWD 011956Z 08006KT 10SM -RA FEW027 OVC090 07/05 A3033 RMK AO2 SLP273 P0000 T00670050 $
0346745966037262021010120567+39008-074908FM-15+0007KWWD V0200705N00415019815MN0160935N5+00675+00565102565ADDAA101000395AA203000891AU110020015AW1615GA1075+019815999GA2085+030485999GD13991+0198159GD24991+0304859GE19MSL   +99999+99999GF199999999999019811999999MA1102545102455MD1890379+9999MW1615REMMET13101/01/21 15:56:02 METAR KWWD 012056Z 07008KT 10SM -RA BKN065 OVC100 07/06 A3028 RMK AO2 PRESFR SLP256 P0001 60003 T00670056 58037 $EQDQ01  00078PRCP03
0292745966037262021010121567+39008-074908FM-15+0007KWWD V0200705N00415016765MN0160935N5+00725+00565102535ADDAA101000021AU110020015AW1615GA1045+007625999GA2085+016765999GD12991+0076259GD24991+0167659GE19MSL   +99999+99999GF199999999999007621999999MA1102515102425MW1615REMMET12101/01/21 16:56:02 METAR KWWD 012156Z 07008KT 10SM -RA SCT025 OVC055 07/06 A3027 RMK AO2 RAE18B41 SLP253 P0000 T00720056 $
0247745966037262021010122057+39008-074908FM-15+0007KWWD V0200705N00365007625MN0160935N5+00705+00605999999ADDAA101000021GA1075+007625999GA2085+015245999GD13991+0076259GD24991+0152459GE19MSL   +99999+99999GF199999999999007621999999MA1102515102425REMMET09901/01/21 17:05:02 METAR KWWD 012205Z 07007KT 10SM BKN025 OVC050 07/06 A3027 RMK AO2 RAE2158 P0000 $
0357745966037262021010122567+39008-074908FM-15+0007KWWD V0200605N00415006405MN0096565N5+00725+00675102345ADDAA101000895AU120020015AU200001015AW1105AW2625GA1075+006405999GA2075+013415999GA3085+022865999GD13991+0064059GD23991+0134159GD34991+0228659GE19MSL   +99999+99999GF199999999999006401999999MA1102345102255MW1655REMMET13801/01/21 17:56:02 METAR KWWD 012256Z 06008KT 6SM RA BR BKN021 BKN044 OVC075 07/07 A3022 RMK AO2 RAE2158B28 PRESFR SLP234 P0003 T00720067 $
0323745966037262021010123037+39008-074908FM-15+0007KWWD V0200705N00365012805MN0096565N5+00705+00705999999ADDAA101000395AU110020015AU200001015AW1105AW2615GA1045+006405999GA2075+012805999GA3085+024385999GD12991+0064059GD23991+0128059GD34991+0243859GE19MSL   +99999+99999GF199999999999006401999999MA1102345102255MW1615REMMET10401/01/21 18:03:02 METAR KWWD 012303Z 07007KT 6SM -RA BR SCT021 BKN042 OVC080 07/07 A3022 RMK AO2 P0001 $
0304745966037262021010123277+39008-074908FM-15+0007KWWD V0200805N00415008235MN0160935N5+00805+00705999999ADDAA101000395AU110020015AW1615GA1045+006405999GA2075+008235999GA3085+011585999GD12991+0064059GD23991+0082359GD34991+0115859GE19MSL   +99999+99999GF199999999999006401999999MA1102305102225MW1615REMMET10201/01/21 18:27:02 METAR KWWD 012327Z 08008KT 10SM -RA SCT021 BKN027 OVC038 08/07 A3021 RMK AO2 P0001 $
0367745966037262021010123567+39008-074908FM-15+0007KWWD V0201005N00415005795MN0096565N5+00785+00725102285ADDAA101000595AA206002091AU110020015AU200001015AW1105AW2615GA1085+005795999GD14991+0057959GE19MSL   +99999+99999GF199999999999005791999999KA1060M+00781KA2060N+00611MA1102275102185MD1890289+9999MW1615REMMET14001/01/21 18:56:02 METAR KWWD 012356Z 10008KT 6SM -RA BR OVC019 08/07 A3020 RMK AO2 RAE30B53 SLP228 P0002 60008 T00780072 10078 20061 58028 $EQDQ01  00208PRCP06
0330745966037262021010200337+39008-074908FM-15+0007KWWD V0201005N00575004885MN0048285N5+00805+00805999999ADDAA101001095AU110020015AU200001015AW1105AW2615GA1025+002135999GA2075+004885999GA3085+006405999GD11991+0021359GD23991+0048859GD34991+0064059GE19MSL   +99999+99999GF199999999999002131999999MA1102075101985MW1615REMMET11101/01/21 19:33:01 METAR KWWD 020033Z 10011KT 3SM -RA BR FEW007 BKN016 OVC021 08/08 A3014 RMK AO2 PRESFR P0004 $
0334745966037262021010200447+39008-074908FM-15+0007KWWD V0200905N00625003665MN0080475N5+00805+00805999999ADDAA101001395AU110020015AU200001015AW1105AW2615GA1045+002135999GA2075+003665999GA3085+005795999GD12991+0021359GD23991+0036659GD34991+0057959GE19MSL   +99999+99999GF199999999999002131999999MA1102075101985MW1615OC100825REMMET10701/01/21 19:44:01 METAR KWWD 020044Z 09012G16KT 5SM -RA BR SCT007 BKN012 OVC019 08/08 A3014 RMK AO2 P0005 $
0265745966037262021010200547+39008-074908FM-15+0007KWWD V0201005N00675002135MN0112655N5+00805+00805999999ADDAA101001395AU110020015AW1615GA1075+002135999GA2085+003665999GD13991+0021359GD24991+0036659GE19MSL   +99999+99999GF199999999999002131999999MA1102075101985MW1615REMMET09401/01/21 19:54:01 METAR KWWD 020054Z 10013KT 7SM -RA BKN007 OVC012 08/08 A3014 RMK AO2 P0005 $
0282745966037262021010200567+39008-074908FM-15+0007KWWD V0201005N00675002135MN0112655N5+00835+00785102055ADDAA101001595AU110020015AW1615GA1075+002135999GA2085+003665999GD13991+0021359GD24991+0036659GE19MSL   +99999+99999GF199999999999002131999999MA1102035101955MW1615REMMET11101/01/21 19:56:01 METAR KWWD 020056Z 10013KT 7SM -RA BKN007 OVC012 08/08 A3013 RMK AO2 SLP205 P0006 T00830078 $
0270745966037262021010201327+39008-074908FM-15+0007KWWD V0201005N00575001525MN0048285N5+00905+00805999999ADDAA101001595AU110020015AU200001015AW1105AW2615GA1085+001525999GD14991+0015251GE19MSL   +99999+99999GF199999999999001521999999MA1101905101815MW1615OC100985REMMET10501/01/21 20:32:01 METAR KWWD 020132Z 10011G19KT 3SM -RA BR OVC005 09/08 A3009 RMK AO2 CIG 004V008 P0006 $
0250745966037262021010201547+39008-074908FM-15+0007KWWD V0201005N00675001525MN0040235N5+00905+00805999999ADDAA101002895AU120020015AU200001015AW1105AW2625GA1085+001525999GD14991+0015259GE19MSL   +99999+99999GF199999999999001521999999MA1101865101785MW1655REMMET09301/01/21 20:54:01 METAR KWWD 020154Z 10013KT 2 1/2SM RA BR OVC005 09/08 A3008 RMK AO2 P0011 $
0263745966037262021010201567+39008-074908FM-15+0007KWWD V0201005N00725001525MN0048285N5+00895+00835101875ADDAA101002895AU120020015AU200001015AW1105AW2625GA1085+001525999GD14991+0015259GE19MSL   +99999+99999GF199999999999001521999999MA1101865101785MW1655REMMET10601/01/21 20:56:01 METAR KWWD 020156Z 10014KT 3SM RA BR OVC005 09/08 A3008 RMK AO2 SLP187 P0011 T00890083 $
0319745966037262021010202567+39008-074908FM-15+0007KWWD V0201105N00515001525MN0064375N5+00945+00895101735ADDAA101003395AA203007691AU120020015AU200001015AW1105AW2625GA1085+001525999GD14991+0015259GE19MSL   +99999+99999GF199999999999001521999999MA1101695101615MD1690339+9999MW1655REMMET11801/01/21 21:56:01 METAR KWWD 020256Z 11010KT 4SM RA BR OVC005 09/09 A3003 RMK AO2 SLP173 P0013 60030 T00940089 56033 $EQDQ01  00768PRCP03
0247745966037262021010203347+39008-074908FM-15+0007KWWD V0203005N00215000915MN0064375N5+01005+00905999999ADDAA101002095AU110020015AU200001015AW1105AW2615GA1085+000915999GD14991+0009159GE19MSL   +99999+99999GF199999999999000911999999MA1101695101615MW1615REMMET09001/01/21 22:34:01 METAR KWWD 020334Z 30004KT 4SM -RA BR OVC003 10/09 A3003 RMK AO2 P0008 $
0286745966037262021010203567+39008-074908FM-15+0007KWWD V0203205N00215000915MN0096565N5+00895+00895101685ADDAA101003395AU120020015AU200001015AW1105AW2625GA1085+000915999GD14991+0009151GE19MSL   +99999+99999GF199999999999000911999999MA1101665101585MW1655OC100825REMMET12101/01/21 22:56:01 METAR KWWD 020356Z 32004G16KT 6SM RA BR OVC003 09/09 A3002 RMK AO2 CIG 003V007 SLP168 P0013 T00890089 $
0258745966037262021010204057+39008-074908FM-15+0007KWWD V0203105N00215001525MN0096565N5+00905+00905999999ADDAA101000595AU120020015AU200001015AW1105AW2625GA1085+001525999GD14991+0015251GE19MSL   +99999+99999GF199999999999001521999999MA1101665101585MW1655REMMET10101/01/21 23:05:01 METAR KWWD 020405Z 31004KT 6SM RA BR OVC005 09/09 A3002 RMK AO2 CIG 003V008 P0002 $
0284745966037262021010204197+39008-074908FM-15+0007KWWD V0203405N00155000915MN0096565N5+00805+00805999999ADDAA101001395AU120020015AU200001015AW1105AW2625GA1075+000915999GA2085+002135999GD13991+0009159GD24991+0021359GE19MSL   +99999+99999GF199999999999000911999999MA1101565101475MW1655REMMET09601/01/21 23:19:02 METAR KWWD 020419Z 34003KT 6SM RA BR BKN003 OVC007 08/08 A2999 RMK AO2 P0005 $
0356745966037262021010204357+39008-074908FM-15+0007KWWD V0201205N00725002745MN0040235V5+00805+00805999999ADDAA101001895AU110020015AU200001015AW1105AW2615GA1045+000915999GA2075+002745999GA3085+016765999GD12991+0009151GD23991+0027459GD34991+0167659GE19MSL   +99999+99999GF199999999999000911999999MA1101155101075MW1615REMMET13701/01/21 23:35:02 METAR KWWD 020435Z 12014KT 2 1/2SM -RA BR SCT003 BKN009 OVC055 08/08 A2987 RMK AO2 VIS 3/4V5 CIG 007V011 PRESFR P0007 $
0323745966037262021010204447+39008-074908FM-15+0007KWWD V0201305N00465000915MN0048285N5+00905+00905999999ADDAA101001895AU110020015AU200001015AW1105AW2615GA1075+000915999GA2075+003055999GA3085+016765999GD13991+0009159GD23991+0030559GD34991+0167659GE19MSL   +99999+99999GF199999999999000911999999MA1101195101105MW1615REMMET10401/01/21 23:44:02 METAR KWWD 020444Z 13009KT 3SM -RA BR BKN003 BKN010 OVC055 09/09 A2988 RMK AO2 P0007 $
0331745966037262021010204567+39008-074908FM-15+0007KWWD V0209999V00265000915MN0160935N5+00945+00945101275ADDAA101002095AU110020015AW1615GA1075+000915999GA2085+016765999GD13991+0009151GD24991+0167659GE19MSL   +99999+99999GF199999999999000911999999KA1240M+01001KA2240N-00061MA1101255101175MW1615REMMET13401/01/21 23:56:02 METAR KWWD 020456Z VRB05KT 10SM -RA BKN003 OVC055 09/09 A2990 RMK AO2 CIG 001V009 SLP127 P0008 T00940094 401001006 $
002774596603726202101020459O+39008-074908SOD  +0007KWWD V020999999999999999999999999999+99999+99999999999ADDAT1AU16RA  5AT2AU13BR  5
0219745966037262021010205547+39008-074908FM-15+0007KWWD V0201605N00315001525MN0160935N5+01005+01005999999ADDAA101000021GA1085+001525999GD14991+0015251GE19MSL   +99999+99999GF199999999999001521999999MA1101155101075REMMET10201/02/21 00:54:02 METAR KWWD 020554Z 16006KT 10SM OVC005 10/10 A2987 RMK AO2 RAE21 CIG 003V007 P0000 $
0318745966037262021010205567+39008-074908FM-15+0007KWWD V0201705N00315001525MN0160935N5+01005+01005101175ADDAA101000021AA206013091GA1085+001525999GD14991+0015259GE19MSL   +99999+99999GF199999999999001521999999KA1060M+01001KA2060N+00781MA1101155101075MD1590519+9999REMMET13101/02/21 00:56:02 METAR KWWD 020556Z 17006KT 10SM OVC005 10/10 A2987 RMK AO2 RAE21 SLP117 P0000 60051 T01000100 10100 20078 55051 $EQDQ01  01298PRCP06
0246745966037262021010206567+39008-074908FM-15+0007KWWD V0202605N00365001525MN0064375N5+01065+01005101225ADDAA101000021AU100001015AW1105GA1085+001525999GD14991+0015259GE19MSL   +99999+99999GF199999999999001521999999MA1101195101105REMMET11201/02/21 01:56:02 METAR KWWD 020656Z 26007KT 4SM BR OVC005 11/10 A2988 RMK AO2 RAB04E40 SLP122 P0000 T01060100 $
0207745966037262021010207097+39008-074908FM-15+0007KWWD V0202605N00415001525MN0028165N5+01005+00905999999ADDAU100001015AW1105GA1085+001525999GD14991+0015259GE19MSL   +99999+99999GF199999999999001521999999MA1101195101105REMMET08401/02/21 02:09:02 METAR KWWD 020709Z 26008KT 1 3/4SM BR OVC005 10/09 A2988 RMK AO2 $
0207745966037262021010207177+39008-074908FM-15+0007KWWD V0202705N00365000915MN0020125N5+00905+00905999999ADDAU100001015AW1105GA1085+000915999GD14991+0009159GE19MSL   +99999+99999GF199999999999000911999999MA1101195101105REMMET08401/02/21 02:17:02 METAR KWWD 020717Z 27007KT 1 1/4SM BR OVC003 09/09 A2988 RMK AO2 $
0205745966037262021010207377+39008-074908FM-15+0007KWWD V0202705N00415000915MN0012075N5+00905+00805999999ADDAU100001015AW1105GA1085+000915999GD14991+0009159GE19MSL   +99999+99999GF199999999999000911999999MA1101195101105REMMET08201/02/21 02:37:02 METAR KWWD 020737Z 27008KT 3/4SM BR OVC003 09/08 A2988 RMK AO2 $
0220745966037262021010207567+39008-074908FM-15+0007KWWD V0202805N00465000915MN0016095N5+00675+00675101185ADDAU100001015AW1105GA1085+000915999GD14991+0009159GE19MSL   +99999+99999GF199999999999000911999999MA1101155101075REMMET09701/02/21 02:56:02 METAR KWWD 020756Z 28009KT 1SM BR OVC003 07/07 A2987 RMK AO2 SLP118 T00670067 $
0205745966037262021010208417+39008-074908FM-15+0007KWWD V0202805N00315000915MN0012075N5+00605+00605999999ADDAU100001015AW1105GA1085+000915999GD14991+0009159GE19MSL   +99999+99999GF199999999999000911999999MA1101085101005REMMET08201/02/21 03:41:02 METAR KWWD 020841Z 28006KT 3/4SM BR OVC003 06/06 A2985 RMK AO2 $
0344745966037262021010208567+39008-074908FM-15+0007KWWD V0202705N00365000915MN0012075N5+00565+00565101085ADDAA101000021AA203000021AU110020015AU200001015AW1105AW2615GA1085+000915999GD14991+0009159GE19MSL   +99999+99999GF199999999999000911999999MA1101055100975MD1890149+9999MW1615REMMET12701/02/21 03:56:02 METAR KWWD 020856Z 27007KT 3/4SM -RA BR OVC003 06/06 A2984 RMK AO2 RAB51 SLP108 P0000 60000 T00560056 58014 $EQDQ01  00002PRCP03Q02  00008PRCP03
0247745966037262021010209057+39008-074908FM-15+0007KWWD V0202605N00315000915MN0016095N5+00605+00605999999ADDAA101000021AU110020015AU200001015AW1105AW2615GA1085+000915999GD14991+0009159GE19MSL   +99999+99999GF199999999999000911999999MA1101055100975MW1615REMMET09001/02/21 04:05:02 METAR KWWD 020905Z 26006KT 1SM -RA BR OVC003 06/06 A2984 RMK AO2 P0000 $
0249745966037262021010209177+39008-074908FM-15+0007KWWD V0202505N00315000915MN0012075N5+00605+00605999999ADDAA101000021AU110020015AU200001015AW1105AW2615GA1085+000915999GD14991+0009159GE19MSL   +99999+99999GF199999999999000911999999MA1101055100975MW1615REMMET09201/02/21 04:17:02 METAR KWWD 020917Z 25006KT 3/4SM -RA BR OVC003 06/06 A2984 RMK AO2 P0000 $
0251745966037262021010209267+39008-074908FM-15+0007KWWD V0202405N00465000915MN0020125N5+00605+00605999999ADDAA101000021AU110020015AU200001015AW1105AW2615GA1085+000915999GD14991+0009159GE19MSL   +99999+99999GF199999999999000911999999MA1101025100935MW1615REMMET09401/02/21 04:26:02 METAR KWWD 020926Z 24009KT 1 1/4SM -RA BR OVC003 06/06 A2983 RMK AO2 P0000 $
0226745966037262021010209357+39008-074908FM-15+0007KWWD V0202305N00465000915MN0048285N5+00605+00605999999ADDAA101000021AU100001015AW1105GA1085+000915999GD14991+0009159GE19MSL   +99999+99999GF199999999999000911999999MA1100985100905REMMET09201/02/21 04:35:02 METAR KWWD 020935Z 23009KT 3SM BR OVC003 06/06 A2982 RMK AO2 RAE27 P0000 $
0281745966037262021010209567+39008-074908FM-15+0007KWWD V0202405N00415000915MN0048285N5+00615+00615101015ADDAA101000021AU100001015AW1105GA1075+000915999GA2085+002745999GD13991+0009159GD24991+0027459GE19MSL   +99999+99999GF199999999999000911999999MA1100985100905REMMET11601/02/21 04:56:02 METAR KWWD 020956Z 24008KT 3SM BR BKN003 OVC009 06/06 A2982 RMK AO2 RAE27 SLP101 P0000 T00610061 $
0232745966037262021010210057+39008-074908FM-15+0007KWWD V0202405N00515001525MN0080475N5+00705+00705999999ADDAA101000395AU100001015AW1105GA1085+001525999GD14991+0015251GE19MSL   +99999+99999GF199999999999001521999999MA1100985100905REMMET09801/02/21 05:05:02 METAR KWWD 021005Z 24010KT 5SM BR OVC005 07/07 A2982 RMK AO2 CIG 003V008 P0001 $
0241745966037262021010210567+39008-074908FM-15+0007KWWD V0202305N00515001525MN0040235N5+00675+00675101005ADDAA101000395AU100001015AW1105GA1085+001525999GD14991+0015259GE19MSL   +99999+99999GF199999999999001521999999MA1100985100905REMMET10701/02/21 05:56:02 METAR KWWD 021056Z 23010KT 2 1/2SM BR OVC005 07/07 A2982 RMK AO2 SLP100 P0001 T00670067 $
0207745966037262021010211047+39008-074908FM-15+0007KWWD V0202505N00515000915MN0040235N5+00705+00705999999ADDAU100001015AW1105GA1085+000915999GD14991+0009159GE19MSL   +99999+99999GF199999999999000911999999MA1100985100905REMMET08401/02/21 06:04:02 METAR KWWD 021104Z 25010KT 2 1/2SM BR OVC003 07/07 A2982 RMK AO2 $
0207745966037262021010211287+39008-074908FM-15+0007KWWD V0202505N00465000915MN0024145N5+00705+00705999999ADDAU100001015AW1105GA1085+000915999GD14991+0009159GE19MSL   +99999+99999GF199999999999000911999999MA1101055100975REMMET08401/02/21 06:28:02 METAR KWWD 021128Z 25009KT 1 1/2SM BR OVC003 07/07 A2984 RMK AO2 $
0362745966037262021010211567+39008-074908FM-15+0007KWWD V0202705N00575000915MN0020125N5+00675+00675101145ADDAA106000391AA224015291AU100001015AW1105GA1085+000915999GD14991+0009159GE19MSL   +99999+99999GF199999999999000911999999KA1060M+01111KA2060N+00561MA1101125101035MD1390069+9999OC100935REMMET13401/02/21 06:56:02 METAR KWWD 021156Z 27011G18KT 1 1/4SM BR OVC003 07/07 A2986 RMK AO2 SLP114 60001 70060 T00670067 10111 20056 53006 $EQDQ01  00028PRCP06Q02  01528PRCP24
0214745966037262021010212197+39008-074908FM-15+0007KWWD V0202805N00625000915MN0032195N5+00705+00605999999ADDAU100001015AW1105GA1085+000915999GD14991+0009159GE19MSL   +99999+99999GF199999999999000911999999MA1101225101145OC100935REMMET08301/02/21 07:19:02 METAR KWWD 021219Z 28012G18KT 2SM BR OVC003 07/06 A2989 RMK AO2 $
0218745966037262021010212397+39008-074908FM-15+0007KWWD V0202805N00625000915MN0028165N5+00605+00605999999ADDAU100001015AW1105GA1085+000915999GD14991+0009159GE19MSL   +99999+99999GF199999999999000911999999MA1101255101175OC100825REMMET08701/02/21 07:39:02 METAR KWWD 021239Z 28012G16KT 1 3/4SM BR OVC003 06/06 A2990 RMK AO2 $
0224745966037262021010212567+39008-074908FM-15+0007KWWD V0202805N00415000915MN0028165N5+00615+00565101255ADDAU100001015AW1105GA1085+000915999GD14991+0009159GE19MSL   +99999+99999GF199999999999000911999999MA1101225101145REMMET10101/02/21 07:56:02 METAR KWWD 021256Z 28008KT 1 3/4SM BR OVC003 06/06 A2989 RMK AO2 SLP125 T00610056 $
0207745966037262021010213187+39008-074908FM-15+0007KWWD V0202805N00515000915MN0040235N5+00605+00605999999ADDAU100001015AW1105GA1085+000915999GD14991+0009159GE19MSL   +99999+99999GF199999999999000911999999MA1101225101145REMMET08401/02/21 08:18:02 METAR KWWD 021318Z 28010KT 2 1/2SM BR OVC003 06/06 A2989 RMK AO2 $
0214745966037262021010213307+39008-074908FM-15+0007KWWD V0202805N00365000915MN0048285N5+00605+00605999999ADDAU100001015AW1105GA1085+000915999GD14991+0009159GE19MSL   +99999+99999GF199999999999000911999999MA1101255101175OC100775REMMET08301/02/21 08:30:02 METAR KWWD 021330Z 28007G15KT 3SM BR OVC003 06/06 A2990 RMK AO2 $
0200745966037262021010213567+39008-074908FM-15+0007KWWD V0202805N00465000915MN0144845N5+00615+00615101275ADDGA1085+000915999GD14991+0009159GE19MSL   +99999+99999GF199999999999000911999999MA1101255101175REMMET09401/02/21 08:56:02 METAR KWWD 021356Z 28009KT 9SM OVC003 06/06 A2990 RMK AO2 SLP127 T00610061 $
0195745966037262021010214377+39008-074908FM-15+0007KWWD V0202805N00575001525MN0160935N5+00605+00605999999ADDGA1085+001525999GD14991+0015259GE19MSL   +99999+99999GF199999999999001521999999MA1101295101205OC100825REMMET08101/02/21 09:37:02 METAR KWWD 021437Z 28011G16KT 10SM OVC005 06/06 A2991 RMK AO2 $
0221745966037262021010214567+39008-074908FM-15+0007KWWD V0202805N00365001525MN0160935N5+00615+00615101335ADDGA1085+001525999GD14991+0015259GE19MSL   +99999+99999GF199999999999001521999999MA1101325101245MD1190199+9999REMMET10101/02/21 09:56:02 METAR KWWD 021456Z 28007KT 10SM OVC005 06/06 A2992 RMK AO2 SLP133 T00610061 51019 $
0201745966037262021010215567+39008-074908FM-15+0007KWWD V0202805N00365001525MN0160935N5+00725+00615101365ADDGA1085+001525999GD14991+0015259GE19MSL   +99999+99999GF199999999999001521999999MA1101355101275REMMET09501/02/21 10:56:02 METAR KWWD 021556Z 28007KT 10SM OVC005 07/06 A2993 RMK AO2 SLP136 T00720061 $
0203745966037262021010216477+39008-074908FM-15+0007KWWD V0202805N004652200059N0160935N5+00805+00605999999ADDGA1025+001525999GD11991+0015259GE19AGL   +99999+99999GF102995999999001521999999MA1101325101245REMMET07801/02/21 11:47:02 METAR KWWD 021647Z 28009KT 10SM FEW005 08/06 A2992 RMK AO2 $EQDD01      0ADE726
0220745966037262021010216567+39008-074908FM-15+0007KWWD V0202805N004152200059N0160935N5+00785+00615101365ADDGA1025+002135999GD11991+0021359GE19AGL   +99999+99999GF102995999999002131999999MA1101355101275REMMET09501/02/21 11:56:02 METAR KWWD 021656Z 28008KT 10SM FEW007 08/06 A2993 RMK AO2 SLP136 T00780061 $EQDD01      0ADE726
0245745966037262021010217567+39008-074908FM-15+0007KWWD V0202805N005152200059N0160935N5+00945+00675101375ADDGA1005+999999999GD10991+9999999GF100991999999999999999999KA1060M+00941KA2060N+00611MA1101355101275MD1190049+9999OC100885REMMET11301/02/21 12:56:02 METAR KWWD 021756Z 28010G17KT 10SM CLR 09/07 A2993 RMK AO2 SLP137 T00940067 10094 20061 51004 $
0176745966037262021010218567+39008-074908FM-15+0007KWWD V0203105N004652200059N0160935N5+01175+00615101435ADDGA1005+999999999GD10991+9999999GF100991999999999999999999MA1101425101345REMMET09201/02/21 13:56:02 METAR KWWD 021856Z 31009KT 10SM CLR 12/06 A2995 RMK AO2 SLP143 T01170061 $
0187745966037262021010219567+39008-074908FM-15+0007KWWD V0203105N004152200059N0160935N5+01065+00565101515ADDGA1005+999999999GD10991+9999999GF100991999999999999999999MA1101495101415OC100825REMMET09501/02/21 14:56:02 METAR KWWD 021956Z 31008G16KT 10SM CLR 11/06 A2997 RMK AO2 SLP151 T01060056 $
0232745966037262021010220567+39008-074908FM-15+0007KWWD V0202905N00465011895MN0160935N5+01065+00505101615ADDGA1075+011895999GD13991+0118959GE19MSL   +99999+99999GF199999999999011891999999MA1101595101515MD1390259+9999OC100775REMMET10401/02/21 15:56:02 METAR KWWD 022056Z 29009G15KT 10SM BKN039 11/05 A3000 RMK AO2 SLP161 T01060050 53025 $
0176745966037262021010221567+39008-074908FM-15+0007KWWD V0203105N004152200059N0160935N5+00945+00505101735ADDGA1005+999999999GD10991+9999999GF100991999999999999999999MA1101735101645REMMET09201/02/21 16:56:02 METAR KWWD 022156Z 31008KT 10SM CLR 09/05 A3004 RMK AO2 SLP173 T00940050 $
0176745966037262021010222567+39008-074908FM-15+0007KWWD V0203305N003152200059N0160935N5+00895+00445101835ADDGA1005+999999999GD10991+9999999GF100991999999999999999999MA1101795101715REMMET09201/02/21 17:56:02 METAR KWWD 022256Z 33006KT 10SM CLR 09/04 A3006 RMK AO2 SLP183 T00890044 $
0234745966037262021010223567+39008-074908FM-15+0007KWWD V0203305N002652200059N0160935N5+00835+00395101845ADDGA1005+999999999GD10991+9999999GF100991999999999999999999KA1060M+01171KA2060N+00831MA1101835101745MD1190239+9999REMMET11001/02/21 18:56:02 METAR KWWD 022356Z 33005KT 10SM CLR 08/04 A3007 RMK AO2 SLP184 T00830039 10117 20083 51023 $
0176745966037262021010300567+39008-074908FM-15+0007KWWD V0203305N002652200059N0160935N5+00785+00395101905ADDGA1005+999999999GD10991+9999999GF100991999999999999999999MA1101905101815REMMET09201/02/21 19:56:01 METAR KWWD 030056Z 33005KT 10SM CLR 08/04 A3009 RMK AO2 SLP190 T00780039 $
0176745966037262021010301567+39008-074908FM-15+0007KWWD V0209999V003152200059N0160935N5+00725+00335101915ADDGA1005+999999999GD10991+9999999GF100991999999999999999999MA1101905101815REMMET09201/02/21 20:56:01 METAR KWWD 030156Z VRB06KT 10SM CLR 07/03 A3009 RMK AO2 SLP191 T00720033 $
0196745966037262021010302567+39008-074908FM-15+0007KWWD V0203605N002152200059N0160935N5+00675+00285101965ADDGA1005+999999999GD10991+9999999GF100991999999999999999999MA1101935101855MD1190129+9999REMMET09801/02/21 21:56:01 METAR KWWD 030256Z 36004KT 10SM CLR 07/03 A3010 RMK AO2 SLP196 T00670028 51012 $
0176745966037262021010303567+39008-074908FM-15+0007KWWD V0200105N002152200059N0160935N5+00505+00225102015ADDGA1005+999999999GD10991+9999999GF100991999999999999999999MA1102005101915REMMET09201/02/21 22:56:01 METAR KWWD 030356Z 01004KT 10SM CLR 05/02 A3012 RMK AO2 SLP201 T00500022 $
0212745966037262021010304567+39008-074908FM-15+0007KWWD V0200205N005152200059N0160935N5+00505+00175101885ADDGA1005+999999999GD10991+9999999GF100991999999999999999999KA1240M+01171KA2240N+00441MA1101865101785REMMET10201/02/21 23:56:02 METAR KWWD 030456Z 02010KT 10SM CLR 05/02 A3008 RMK AO2 SLP188 T00500017 401170044 $
002774596603726202101030459O+39008-074908SOD  +0007KWWD V020999999999999999999999999999+99999+99999999999ADDAT1AU16RA  5AT2AU13BR  5
0234745966037262021010305567+39008-074908FM-15+0007KWWD V0200305N003652200059N0160935N5+00445+00065101875ADDGA1005+999999999GD10991+9999999GF100991999999999999999999KA1060M+00891KA2060N+00441MA1101865101785MD1890099+9999REMMET11001/03/21 00:56:02 METAR KWWD 030556Z 03007KT 10SM CLR 04/01 A3008 RMK AO2 SLP187 T00440006 10089 20044 58009 $
0176745966037262021010306567+39008-074908FM-15+0007KWWD V0200505N002652200059N0160935N5+00395+00005101895ADDGA1005+999999999GD10991+9999999GF100991999999999999999999MA1101865101785REMMET09201/03/21 01:56:02 METAR KWWD 030656Z 05005KT 10SM CLR 04/00 A3008 RMK AO2 SLP189 T00390000 $
0176745966037262021010307567+39008-074908FM-15+0007KWWD V0200405N003152200059N0160935N5+00395+00005101945ADDGA1005+999999999GD10991+9999999GF100991999999999999999999MA1101935101855REMMET09201/03/21 02:56:02 METAR KWWD 030756Z 04006KT 10SM CLR 04/00 A3010 RMK AO2 SLP194 T00390000 $
0203745966037262021010308567+39008-074908FM-15+0007KWWD V0200605N004652200059N0160935N5+00395+00065101795ADDGA1005+999999999GD10991+9999999GF100991999999999999999999MA1101765101685MD1890089+9999REMMET10501/03/21 03:56:02 METAR KWWD 030856Z 06009KT 10SM CLR 04/01 A3005 RMK AO2 PRESFR SLP179 T00390006 58008 $
0201745966037262021010309567+39008-074908FM-15+0007KWWD V0200805N00215033535MN0160935N5+00445+00225101665ADDGA1075+033535999GD13991+0335359GE19MSL   +99999+99999GF199999999999033531999999MA1101665101585REMMET09501/03/21 04:56:02 METAR KWWD 030956Z 08004KT 10SM BKN110 04/02 A3002 RMK AO2 SLP166 T00440022 $
0289745966037262021010310567+39008-074908FM-15+0007KWWD V0200505N00465028965MN0160935N5+00675+00445101725ADDAA101000021AU110020015AW1615GA1025+007625999GA2085+028965999GD11991+0076259GD24991+0289659GE19MSL   +99999+99999GF199999999999007621999999MA1101695101615MW1615REMMET11801/03/21 05:56:02 METAR KWWD 031056Z 05009KT 10SM -RA FEW025 OVC095 07/04 A3003 RMK AO2 RAB24 SLP172 P0000 T00670044 $
0266745966037262021010311077+39008-074908FM-15+0007KWWD V0200405N00465007015MN0160935N5+00605+00505999999ADDAA101000395AU110020015AW1615GA1075+007015999GA2085+028965999GD13991+0070159GD24991+0289659GE19MSL   +99999+99999GF199999999999007011999999MA1101695101615MW1615REMMET09501/03/21 06:07:02 METAR KWWD 031107Z 04009KT 10SM -RA BKN023 OVC095 06/05 A3003 RMK AO2 P0001 $
0428745966037262021010311567+39008-074908FM-15+0007KWWD V0200605N00315021345MN0080475N5+00615+00505101855ADDAA101001895AA206001891AA324001891AU120020015AU200001015AW1105AW2625GA1045+007015999GA2085+021345999GD12991+0070159GD24991+0213459GE19MSL   +99999+99999GF199999999999007011999999KA1060M+00671KA2060N+00391MA1101835101745MD1390069+9999MW1655REMMET14301/03/21 06:56:02 METAR KWWD 031156Z 06006KT 5SM RA BR SCT023 OVC070 06/05 A3007 RMK AO2 SLP185 P0007 60007 70007 T00610050 10067 20039 53006 $EQDQ01  00178PRCP06Q02  00178PRCP24
0340745966037262021010312567+39008-074908FM-15+0007KWWD V0200605N00365024385MN0096565N5+00615+00565101825ADDAA101005195AU110020015AU200001015AW1105AW2615GA1045+018295999GA2075+024385999GA3085+027435999GD12991+0182959GD23991+0243859GD34991+0274359GE19MSL   +99999+99999GF199999999999018291999999MA1101795101715MW1615REMMET12101/03/21 07:56:02 METAR KWWD 031256Z 06007KT 6SM -RA BR SCT060 BKN080 OVC090 06/06 A3006 RMK AO2 SLP182 P0020 T00610056 $
0285745966037262021010313267+39008-074908FM-15+0007KWWD V0200705N00365024385MN0080475N5+00705+00605999999ADDAA101001395AU110020015AU200001015AW1105AW2615GA1025+001525999GA2085+024385999GD11991+0015259GD24991+0243859GE19MSL   +99999+99999GF199999999999001521999999MA1101765101685MW1615REMMET09701/03/21 08:26:02 METAR KWWD 031326Z 07007KT 5SM -RA BR FEW005 OVC080 07/06 A3005 RMK AO2 P0005 $
0331745966037262021010313567+39008-074908FM-15+0007KWWD V0200705N00465021345MN0112655N5+00675+00675101655ADDAA101002095AU110020015AW1615GA1045+002135999GA2075+021345999GA3085+025915999GD12991+0021359GD23991+0213459GD34991+0259159GE19MSL   +99999+99999GF199999999999002131999999MA1101635101545MW1615OC100825REMMET12101/03/21 08:56:02 METAR KWWD 031356Z 07009G16KT 7SM -RA SCT007 BKN070 OVC085 07/07 A3001 RMK AO2 SLP165 P0008 T00670067 $
0316745966037262021010314077+39008-074908FM-15+0007KWWD V0200705N00515002135MN0160935N5+00705+00705999999ADDAA101000021AU110020015AW1615GA1075+002135999GA2075+021345999GA3085+025915999GD13991+0021351GD23991+0213459GD34991+0259159GE19MSL   +99999+99999GF199999999999002131999999MA1101635101545MW1615REMMET11401/03/21 09:07:02 METAR KWWD 031407Z 07010KT 10SM -RA BKN007 BKN070 OVC085 07/07 A3001 RMK AO2 CIG 004V010 P0000 $
0339745966037262021010314567+39008-074908FM-15+0007KWWD V0200505N00415002135MN0160935N5+00785+00675101655ADDAA101000595AA203007691AU110020015AW1615GA1075+002135999GA2085+014025999GD13991+0021359GD24991+0140259GE19MSL   +99999+99999GF199999999999002131999999MA1101635101545MD1590209+9999MW1615REMMET12401/03/21 09:56:02 METAR KWWD 031456Z 05008KT 10SM -RA BKN007 OVC046 08/07 A3001 RMK AO2 SLP165 P0002 60030 T00780067 55020 $EQDQ01  00768PRCP03
0262745966037262021010315567+39008-074908FM-15+0007KWWD V0200605N00575002135MN0144845N5+00785+00725101475ADDAA101000595AU110020015AW1615GA1085+002135999GD14991+0021359GE19MSL   +99999+99999GF199999999999002131999999MA1101465101375MW1615OC100825REMMET11401/03/21 10:56:02 METAR KWWD 031556Z 06011G16KT 9SM -RA OVC007 08/07 A2996 RMK AO2 PRESFR SLP147 P0002 T00780072 $
0234745966037262021010316037+39008-074908FM-15+0007KWWD V0200605N00575001525MN0128755N5+00805+00705999999ADDAA101000021AU110020015AW1615GA1085+001525999GD14991+0015259GE19MSL   +99999+99999GF199999999999001521999999MA1101425101345MW1615REMMET09401/03/21 11:03:02 METAR KWWD 031603Z 06011KT 8SM -RA OVC005 08/07 A2995 RMK AO2 PRESFR P0000 $
0235745966037262021010316567+39008-074908FM-15+0007KWWD V0200505N00515001525MN0160935N5+00835+00785101245ADDAA101000021GA1085+001525999GD14991+0015259GE19MSL   +99999+99999GF199999999999001521999999MA1101225101145OC100775REMMET11001/03/21 11:56:02 METAR KWWD 031656Z 05010G15KT 10SM OVC005 08/08 A2989 RMK AO2 RAE26 SLP124 P0000 T00830078 $
0295745966037262021010317567+39008-074908FM-15+0007KWWD V0200505N00575001525MN0160935N5+00835+00785101135ADDAA106008191GA1085+001525999GD14991+0015259GE19MSL   +99999+99999GF199999999999001521999999KA1060M+00831KA2060N+00611MA1101125101035MD1690529+9999REMMET11901/03/21 12:56:02 METAR KWWD 031756Z 05011KT 10SM OVC005 08/08 A2986 RMK AO2 SLP113 60032 T00830078 10083 20061 56052 $EQDQ01  00818PRCP06
0250745966037262021010318567+39008-074908FM-15+0007KWWD V0200305N00515001525MN0128755N5+00895+00835101095ADDAA101000395AU110020015AW1615GA1085+001525999GD14991+0015259GE19MSL   +99999+99999GF199999999999001521999999MA1101085101005MW1615REMMET11001/03/21 13:56:02 METAR KWWD 031856Z 03010KT 8SM -RA OVC005 09/08 A2985 RMK AO2 RAB44 SLP109 P0001 T00890083 $
0251745966037262021010319307+39008-074908FM-15+0007KWWD V0200405N00515001525MN0040235N5+00905+00905999999ADDAA101000395AU110020015AU200001015AW1105AW2615GA1085+001525999GD14991+0015259GE19MSL   +99999+99999GF199999999999001521999999MA1101085101005MW1615REMMET09401/03/21 14:30:02 METAR KWWD 031930Z 04010KT 2 1/2SM -RA BR OVC005 09/09 A2985 RMK AO2 P0001 $
0247745966037262021010319407+39008-074908FM-15+0007KWWD V0200205N00415001525MN0064375N5+00905+00905999999ADDAA101000395AU110020015AU200001015AW1105AW2615GA1085+001525999GD14991+0015259GE19MSL   +99999+99999GF199999999999001521999999MA1101125101035MW1615REMMET09001/03/21 14:40:02 METAR KWWD 031940Z 02008KT 4SM -RA BR OVC005 09/09 A2986 RMK AO2 P0001 $
0268745966037262021010319567+39008-074908FM-15+0007KWWD V0200305N00315001525MN0040235N5+00945+00895101135ADDAA101000595AU110020015AU200001015AW1105AW2615GA1085+001525999GD14991+0015259GE19MSL   +99999+99999GF199999999999001521999999MA1101125101035MW1615REMMET11101/03/21 14:56:02 METAR KWWD 031956Z 03006KT 2 1/2SM -RA BR OVC005 09/09 A2986 RMK AO2 SLP113 P0002 T00940089 $
0247745966037262021010320137+39008-074908FM-15+0007KWWD V0200505N00415001525MN0048285N5+00905+00905999999ADDAA101000395AU110020015AU200001015AW1105AW2615GA1085+001525999GD14991+0015259GE19MSL   +99999+99999GF199999999999001521999999MA1101085101005MW1615REMMET09001/03/21 15:13:02 METAR KWWD 032013Z 05008KT 3SM -RA BR OVC005 09/09 A2985 RMK AO2 P0001 $
0263745966037262021010320207+39008-074908FM-15+0007KWWD V0200305N00315001525MN0040235N5+00905+00905999999ADDAA101000395AU110020015AU200001015AW1105AW2615GA1085+001525999GD14991+0015251GE19MSL   +99999+99999GF199999999999001521999999MA1101085101005MW1615REMMET10601/03/21 15:20:02 METAR KWWD 032020Z 03006KT 2 1/2SM -RA BR OVC005 09/09 A2985 RMK AO2 CIG 003V007 P0001 $
0259745966037262021010320287+39008-074908FM-15+0007KWWD V0200205N00415001525MN0048285N5+00905+00905999999ADDAA101000395AU110020015AU200001015AW1105AW2615GA1085+001525999GD14991+0015251GE19MSL   +99999+99999GF199999999999001521999999MA1101085101005MW1615REMMET10201/03/21 15:28:02 METAR KWWD 032028Z 02008KT 3SM -RA BR OVC005 09/09 A2985 RMK AO2 CIG 003V007 P0001 $
0320745966037262021010320567+39008-074908FM-15+0007KWWD V0203405N00365000915MN0048285N5+00725+00675101115ADDAA101000595AA203001391AU110020015AU200001015AW1105AW2615GA1085+000915999GD14991+0009159GE19MSL   +99999+99999GF199999999999000911999999MA1101085101005MD1690029+9999MW1615REMMET11901/03/21 15:56:02 METAR KWWD 032056Z 34007KT 3SM -RA BR OVC003 07/07 A2985 RMK AO2 SLP111 P0002 60005 T00720067 56002 $EQDQ01  00128PRCP03
0227745966037262021010321377+39008-074908FM-15+0007KWWD V0203505N00315001525MN0144845N5+00705+00605999999ADDAA101000021AU110020015AW1615GA1085+001525999GD14991+0015259GE19MSL   +99999+99999GF199999999999001521999999MA1101125101035MW1615REMMET08701/03/21 16:37:02 METAR KWWD 032137Z 35006KT 9SM -RA OVC005 07/06 A2986 RMK AO2 P0000 $
0224745966037262021010321567+39008-074908FM-15+0007KWWD V0203505N00365001525MN0160935N5+00675+00615101145ADDAA101000021GA1085+001525999GD14991+0015259GE19MSL   +99999+99999GF199999999999001521999999MA1101125101035REMMET10701/03/21 16:56:02 METAR KWWD 032156Z 35007KT 10SM OVC005 07/06 A2986 RMK AO2 RAE42 SLP114 P0000 T00670061 $
0270745966037262021010322567+39008-074908FM-15+0007KWWD V0203605N00365001525MN0064375N5+00615+00565101165ADDAA101000395AU110020015AU200001015AW1105AW2615GA1085+001525999GD14991+0015259GE19MSL   +99999+99999GF199999999999001521999999MA1101155101075MW1615REMMET11301/03/21 17:56:02 METAR KWWD 032256Z 36007KT 4SM -RA BR OVC005 06/06 A2987 RMK AO2 RAB33 SLP116 P0001 T00610056 $
0226745966037262021010323307+39008-074908FM-15+0007KWWD V0203005N00415000915MN0096565N5+00605+00505999999ADDAA101000395AU100001015AW1105GA1085+000915999GD14991+0009159GE19MSL   +99999+99999GF199999999999000911999999MA1101195101105REMMET09201/03/21 18:30:02 METAR KWWD 032330Z 30008KT 6SM BR OVC003 06/05 A2988 RMK AO2 RAE16 P0001 $
0367745966037262021010323567+39008-074908FM-15+0007KWWD V0203305N00315000915MN0048285N5+00505+00505101235ADDAA101000395AA206001891AU110020015AU200001015AW1105AW2615GA1085+000915999GD14991+0009159GE19MSL   +99999+99999GF199999999999000911999999KA1060M+00941KA2060N+00501MA1101225101145MD1390129+9999MW1615REMMET14001/03/21 18:56:02 METAR KWWD 032356Z 33006KT 3SM -RA BR OVC003 05/05 A2989 RMK AO2 RAE16B38 SLP123 P0001 60007 T00500050 10094 20050 53012 $EQDQ01  00178PRCP06
0243745966037262021010400567+39008-074908FM-15+0007KWWD V0203505N00365000915MN0064375N5+00505+00445101235ADDAA101000021AU100001015AW1105GA1085+000915999GD14991+0009159GE19MSL   +99999+99999GF199999999999000911999999MA1101225101145REMMET10901/03/21 19:56:01 METAR KWWD 040056Z 35007KT 4SM BR OVC003 05/04 A2989 RMK AO2 RAE54 SLP123 P0000 T00500044 $
0234745966037262021010401517+39008-074908FM-15+0007KWWD V0203505N00365001525MN0160935N5+00505+00405999999ADDAA101000021AU110020015AW1615GA1085+001525999GD14991+0015259GE19MSL   +99999+99999GF199999999999001521999999MA1101225101145MW1615REMMET09401/03/21 20:51:01 METAR KWWD 040151Z 35007KT 10SM -RA OVC005 05/04 A2989 RMK AO2 RAB10 P0000 $
0227745966037262021010401567+39008-074908FM-15+0007KWWD V0203505V00365001525MN0160935N5+00505+00445101235ADDAA101000021GA1085+001525999GD14991+0015259GE19MSL   +99999+99999GF199999999999001521999999MA1101225101145REMMET11001/03/21 20:56:01 METAR KWWD 040156Z 35007KT 10SM OVC005 05/04 A2989 RMK AO2 RAB10E53 SLP123 P0000 T00500044 $
0314745966037262021010402567+39008-074908FM-15+0007KWWD V0203205N00265001525MN0064375N5+00505+00445101305ADDAA101000021AA203000021AU100001015AW1105GA1085+001525999GD14991+0015251GE19MSL   +99999+99999GF199999999999001521999999MA1101295101205MD1390079+9999REMMET13601/03/21 21:56:01 METAR KWWD 040256Z 32005KT 4SM BR OVC005 05/04 A2991 RMK AO2 RAB09E49 CIG 004V007 SLP130 P0000 60000 T00500044 53007 $EQDQ01  00008PRCP03
0255745966037262021010403297+39008-074908FM-15+0007KWWD V0203205N00365000915MN0048285N5+00505+00405999999ADDAA101000395AU110020015AU200001015AW1105AW2615GA1085+000915999GD14991+0009159GE19MSL   +99999+99999GF199999999999000911999999MA1101295101205MW1615REMMET09801/03/21 22:29:01 METAR KWWD 040329Z 32007KT 3SM -RA BR OVC003 05/04 A2991 RMK AO2 RAB0257 P0001 $
0255745966037262021010403407+39008-074908FM-15+0007KWWD V0203205N00315000915MN0032195N5+00505+00405999999ADDAA101000395AU110020015AU200001015AW1105AW2615GA1085+000915999GD14991+0009159GE19MSL   +99999+99999GF199999999999000911999999MA1101295101205MW1615REMMET09801/03/21 22:40:01 METAR KWWD 040340Z 32006KT 2SM -RA BR OVC003 05/04 A2991 RMK AO2 RAB0257 P0001 $
0259745966037262021010403487+39008-074908FM-15+0007KWWD V0203305N00315000915MN0024145N5+00405+00405999999ADDAA101000395AU110020015AU200001015AW1105AW2615GA1085+000915999GD14991+0009159GE19MSL   +99999+99999GF199999999999000911999999MA1101295101205MW1615REMMET10201/03/21 22:48:01 METAR KWWD 040348Z 33006KT 1 1/2SM -RA BR OVC003 04/04 A2991 RMK AO2 RAB0257 P0001 $
0272745966037262021010403567+39008-074908FM-15+0007KWWD V0203305N00315000915MN0032195N5+00445+00445101305ADDAA101000395AU110020015AU200001015AW1105AW2615GA1085+000915999GD14991+0009159GE19MSL   +99999+99999GF199999999999000911999999MA1101295101205MW1615REMMET11501/03/21 22:56:01 METAR KWWD 040356Z 33006KT 2SM -RA BR OVC003 04/04 A2991 RMK AO2 RAB0257 SLP130 P0001 T00440044 $
0300745966037262021010404567+39008-074908FM-15+0007KWWD V0203105V00365000915MN0032195N5+00445+00445101335ADDAA101000395AU110020015AU200001015AW1105AW2615GA1085+000915999GD14991+0009159GE19MSL   +99999+99999GF199999999999000911999999KA1240M+00941KA2240N+00391MA1101325101245MW1615REMMET11701/03/21 23:56:02 METAR KWWD 040456Z 31007KT 2SM -RA BR OVC003 04/04 A2992 RMK AO2 SLP133 P0001 T00440044 400940039 $
002774596603726202101040459O+39008-074908SOD  +0007KWWD V020999999999999999999999999999+99999+99999999999ADDAT1AU16RA  5AT2AU13BR  5
0251745966037262021010405077+39008-074908FM-15+0007KWWD V0203205N00365000915MN0028165N5+00405+00405999999ADDAA101000231AU110020015AU200001015AW1105AW2615GA1085+000915999GD14991+0009159GE19MSL   +99999+99999GF199999999999000911999999MA1101325101245MW1615REMMET09401/04/21 00:07:02 METAR KWWD 040507Z 32007KT 1 3/4SM -RA BR OVC003 04/04 A2992 RMK AO2 P0001 $
0373745966037262021010405567+39008-074908FM-15+0007KWWD V0203305N00465000915MN0040235N5+00395+00395101355ADDAA101000595AA206001091AU110020015AU200001015AW1105AW2615GA1085+000915999GD14991+0009159GE19MSL   +99999+99999GF199999999999000911999999KA1060M+00501KA2060N+00391MA1101325101245MD1390059+9999MW1615OC100725REMMET13801/04/21 00:56:02 METAR KWWD 040556Z 33009G14KT 2 1/2SM -RA BR OVC003 04/04 A2992 RMK AO2 SLP135 P0002 60004 T00390039 10050 20039 53005 $EQDQ01  00108PRCP06
0247745966037262021010406067+39008-074908FM-15+0007KWWD V0203205N00415000915MN0048285N5+00405+00305999999ADDAA101000021AU110020015AU200001015AW1105AW2615GA1085+000915999GD14991+0009159GE19MSL   +99999+99999GF199999999999000911999999MA1101355101275MW1615REMMET09001/04/21 01:06:02 METAR KWWD 040606Z 32008KT 3SM -RA BR OVC003 04/03 A2993 RMK AO2 P0000 $
0262745966037262021010406137+39008-074908FM-15+0007KWWD V0203105N00365000915MN0040235N5+00405+00305999999ADDAA101000021AU110020015AU200001015AW1105AW2615GA1085+000915999GD14991+0009159GE19MSL   +99999+99999GF199999999999000911999999MA1101355101275MW1615OC100775REMMET09701/04/21 01:13:02 METAR KWWD 040613Z 31007G15KT 2 1/2SM -RA BR OVC003 04/03 A2993 RMK AO2 P0000 $
0247745966037262021010406227+39008-074908FM-15+0007KWWD V0203305N00365000915MN0048285N5+00405+00305999999ADDAA101000021AU110020015AU200001015AW1105AW2615GA1085+000915999GD14991+0009159GE19MSL   +99999+99999GF199999999999000911999999MA1101355101275MW1615REMMET09001/04/21 01:22:02 METAR KWWD 040622Z 33007KT 3SM -RA BR OVC003 04/03 A2993 RMK AO2 P0000 $
0251745966037262021010406517+39008-074908FM-15+0007KWWD V0203305N00465000915MN0040235N5+00405+00305999999ADDAA101000021AU110020015AU200001015AW1105AW2615GA1085+000915999GD14991+0009159GE19MSL   +99999+99999GF199999999999000911999999MA1101355101275MW1615REMMET09401/04/21 01:51:02 METAR KWWD 040651Z 33009KT 2 1/2SM -RA BR OVC003 04/03 A2993 RMK AO2 P0000 $
0268745966037262021010406567+39008-074908FM-15+0007KWWD V0203405N00415000915MN0040235N5+00395+00335101395ADDAA101000021AU110020015AU200001015AW1105AW2615GA1085+000915999GD14991+0009159GE19MSL   +99999+99999GF199999999999000911999999MA1101395101305MW1615REMMET11101/04/21 01:56:02 METAR KWWD 040656Z 34008KT 2 1/2SM -RA BR OVC003 04/03 A2994 RMK AO2 SLP139 P0000 T00390033 $
0247745966037262021010407077+39008-074908FM-15+0007KWWD V0203305N00415000915MN0048285N5+00405+00305999999ADDAA101000021AU110020015AU200001015AW1105AW2615GA1085+000915999GD14991+0009159GE19MSL   +99999+99999GF199999999999000911999999MA1101395101305MW1615REMMET09001/04/21 02:07:02 METAR KWWD 040707Z 33008KT 3SM -RA BR OVC003 04/03 A2994 RMK AO2 P0000 $
0262745966037262021010407207+39008-074908FM-15+0007KWWD V0203505N00465000915MN0040235N5+00305+00305999999ADDAA101000021AU110020015AU200001015AW1105AW2615GA1085+000915999GD14991+0009159GE19MSL   +99999+99999GF199999999999000911999999MA1101395101305MW1615OC100825REMMET09701/04/21 02:20:02 METAR KWWD 040720Z 35009G16KT 2 1/2SM -RA BR OVC003 03/03 A2994 RMK AO2 P0000 $
0247745966037262021010407347+39008-074908FM-15+0007KWWD V0203405N00415000915MN0048285N5+00305+00305999999ADDAA101000021AU110020015AU200001015AW1105AW2615GA1085+000915999GD14991+0009159GE19MSL   +99999+99999GF199999999999000911999999MA1101395101305MW1615REMMET09001/04/21 02:34:02 METAR KWWD 040734Z 34008KT 3SM -RA BR OVC003 03/03 A2994 RMK AO2 P0000 $
0275745966037262021010407567+39008-074908FM-15+0007KWWD V0203405N00315000915MN0048285N5+00335+00335101395ADDAA101000021AU110020015AU200001015AW1105AW2615GA1085+000915999GD14991+0009159GE19MSL   +99999+99999GF199999999999000911999999MA1101355101275MW1615OC100725REMMET11001/04/21 02:56:02 METAR KWWD 040756Z 34006G14KT 3SM -RA BR OVC003 03/03 A2993 RMK AO2 SLP139 P0000 T00330033 $
0259745966037262021010408137+39008-074908FM-15+0007KWWD V0203405N00415001525MN0064375N5+00305+00305999999ADDAA101000021AU110020015AU200001015AW1105AW2615GA1085+001525999GD14991+0015251GE19MSL   +99999+99999GF199999999999001521999999MA1101395101305MW1615REMMET10201/04/21 03:13:02 METAR KWWD 040813Z 34008KT 4SM -RA BR OVC005 03/03 A2994 RMK AO2 CIG 003V008 P0000 $
0299745966037262021010408567+39008-074908FM-15+0007KWWD V0203405N00365001525MN0080475N5+00335+00285101405ADDAA101000021AA203000021AU100001015AW1105GA1085+001525999GD14991+0015259GE19MSL   +99999+99999GF199999999999001521999999MA1101395101305MD1390019+9999REMMET12101/04/21 03:56:02 METAR KWWD 040856Z 34007KT 5SM BR OVC005 03/03 A2994 RMK AO2 RAE23 SLP140 P0000 60000 T00330028 53001 $EQDQ01  00008PRCP03
0248745966037262021010409567+39008-074908FM-15+0007KWWD V0203405N00415001525MN0048285N5+00335+00285101455ADDAA101000021AU100001015AW1105GA1085+001525999GD14991+0015259GE19MSL   +99999+99999GF199999999999001521999999MA1101425101345REMMET11401/04/21 04:56:02 METAR KWWD 040956Z 34008KT 3SM BR OVC005 03/03 A2995 RMK AO2 RAB0859E13 SLP145 P0000 T00330028 $
0207745966037262021010410067+39008-074908FM-15+0007KWWD V0203505N00365001525MN0040235N5+00305+00305999999ADDAU100001015AW1105GA1085+001525999GD14991+0015259GE19MSL   +99999+99999GF199999999999001521999999MA1101425101345REMMET08401/04/21 05:06:02 METAR KWWD 041006Z 35007KT 2 1/2SM BR OVC005 03/03 A2995 RMK AO2 $
0215745966037262021010410187+39008-074908FM-15+0007KWWD V0203505N00315001525MN0064375N5+00305+00305999999ADDAU100001015AW1105GA1085+001525999GD14991+0015251GE19MSL   +99999+99999GF199999999999001521999999MA1101465101375REMMET09201/04/21 05:18:02 METAR KWWD 041018Z 35006KT 4SM BR OVC005 03/03 A2996 RMK AO2 CIG 003V007 $
0201745966037262021010410567+39008-074908FM-15+0007KWWD V0203505N00365001525MN0160935N5+00335+00285101515ADDGA1085+001525999GD14991+0015259GE19MSL   +99999+99999GF199999999999001521999999MA1101495101415REMMET09501/04/21 05:56:02 METAR KWWD 041056Z 35007KT 10SM OVC005 03/03 A2997 RMK AO2 SLP151 T00330028 $
0196745966037262021010411137+39008-074908FM-15+0007KWWD V0203605N00415002135MN0160935N5+00305+00305999999ADDGA1085+002135999GD14991+0021351GE19MSL   +99999+99999GF199999999999002131999999MA1101495101415REMMET09001/04/21 06:13:02 METAR KWWD 041113Z 36008KT 10SM OVC007 03/03 A2997 RMK AO2 CIG 005V010 $
0328745966037262021010411567+39008-074908FM-15+0007KWWD V0203505N00215002135MN0160935N5+00335+00225101565ADDAA106000021AA224010991GA1085+002135999GD14991+0021359GE19MSL   +99999+99999GF199999999999002131999999KA1060M+00391KA2060N+00331MA1101525101445MD1190169+9999REMMET12501/04/21 06:56:02 METAR KWWD 041156Z 35004KT 10SM OVC007 03/02 A2998 RMK AO2 SLP156 60000 70043 T00330022 10039 20033 51016 $EQDQ01  00008PRCP06Q02  01098PRCP24
0222745966037262021010412397+39008-074908FM-15+0007KWWD V0203605N00265006405MN0160935N5+00305+00305999999ADDGA1025+002135999GA2085+006405999GD11991+0021359GD24991+0064059GE19MSL   +99999+99999GF199999999999002131999999MA1101565101475REMMET08501/04/21 07:39:02 METAR KWWD 041239Z 36005KT 10SM FEW007 OVC021 03/03 A2999 RMK AO2 $
0239745966037262021010412567+39008-074908FM-15+0007KWWD V0203605N00265006405MN0160935N5+00335+00285101605ADDGA1045+002135999GA2085+006405999GD12991+0021359GD24991+0064059GE19MSL   +99999+99999GF199999999999002131999999MA1101595101515REMMET10201/04/21 07:56:02 METAR KWWD 041256Z 36005KT 10SM SCT007 OVC021 03/03 A3000 RMK AO2 SLP160 T00330028 $
0222745966037262021010413207+39008-074908FM-15+0007KWWD V0203405N00265001525MN0160935N5+00305+00305999999ADDGA1075+001525999GA2085+006405999GD13991+0015259GD24991+0064059GE19MSL   +99999+99999GF199999999999001521999999MA1101635101545REMMET08501/04/21 08:20:02 METAR KWWD 041320Z 34005KT 10SM BKN005 OVC021 03/03 A3001 RMK AO2 $
0201745966037262021010413567+39008-074908FM-15+0007KWWD V0203405N00415001525MN0160935N5+00335+00285101665ADDGA1085+001525999GD14991+0015259GE19MSL   +99999+99999GF199999999999001521999999MA1101665101585REMMET09501/04/21 08:56:02 METAR KWWD 041356Z 34008KT 10SM OVC005 03/03 A3002 RMK AO2 SLP166 T00330028 $
0222745966037262021010414247+39008-074908FM-15+0007KWWD V0203405N00315002135MN0160935N5+00305+00305999999ADDGA1075+002135999GA2085+007925999GD13991+0021359GD24991+0079259GE19MSL   +99999+99999GF199999999999002131999999MA1101695101615REMMET08501/04/21 09:24:02 METAR KWWD 041424Z 34006KT 10SM BKN007 OVC026 03/03 A3003 RMK AO2 $
0299745966037262021010414567+39008-074908FM-15+0007KWWD V0203405V00365002135MN0160935N5+00335+00285101715ADDAA101000021AA203000021GA1085+002135999GD14991+0021359GE19MSL   +99999+99999GF199999999999002131999999MA1101695101615MD1190159+9999REMMET12201/04/21 09:56:02 METAR KWWD 041456Z 34007KT 10SM OVC007 03/03 A3003 RMK AO2 RAB29E41 SLP171 P0000 60000 T00330028 51015 $EQDQ01  00002PRCP03Q02  00008PRCP03
0251745966037262021010415567+39008-074908FM-15+0007KWWD V0203305N00315002135MN0160935N5+00395+00285101665ADDAA101000021AU110020015AW1615GA1085+002135999GD14991+0021359GE19MSL   +99999+99999GF199999999999002131999999MA1101635101545MW1615REMMET11101/04/21 10:56:02 METAR KWWD 041556Z 33006KT 10SM -RA OVC007 04/03 A3001 RMK AO2 RAB37 SLP166 P0000 T00390028 $
0224745966037262021010416567+39008-074908FM-15+0007KWWD V0203305N00365002745MN0160935N5+00395+00285101585ADDAA101000021GA1085+002745999GD14991+0027459GE19MSL   +99999+99999GF199999999999002741999999MA1101565101475REMMET10701/04/21 11:56:02 METAR KWWD 041656Z 33007KT 10SM OVC009 04/03 A2999 RMK AO2 RAE15 SLP158 P0000 T00390028 $
0295745966037262021010417567+39008-074908FM-15+0007KWWD V0203405N00265002745MN0160935N5+00445+00285101535ADDAA106000021GA1085+002745999GD14991+0027459GE19MSL   +99999+99999GF199999999999002741999999KA1060M+00441KA2060N+00331MA1101525101445MD1890189+9999REMMET11901/04/21 12:56:02 METAR KWWD 041756Z 34005KT 10SM OVC009 04/03 A2998 RMK AO2 SLP153 60000 T00440028 10044 20033 58018 $EQDQ01  00008PRCP06
0184745966037262021010418457+39008-074908FM-15+0007KWWD V0203405N00215003355MN0160935N5+00405+00305999999ADDGA1085+003355999GD14991+0033559GE19MSL   +99999+99999GF199999999999003351999999MA1101495101415REMMET07801/04/21 13:45:02 METAR KWWD 041845Z 34004KT 10SM OVC011 04/03 A2997 RMK AO2 $
0201745966037262021010418567+39008-074908FM-15+0007KWWD V0203505N00265003355MN0160935N5+00445+00285101525ADDGA1085+003355999GD14991+0033559GE19MSL   +99999+99999GF199999999999003351999999MA1101495101415REMMET09501/04/21 13:56:02 METAR KWWD 041856Z 35005KT 10SM OVC011 04/03 A2997 RMK AO2 SLP152 T00440028 $
0260745966037262021010419397+39008-074908FM-15+0007KWWD V0203205N00215004575MN0160935N5+00505+00305999999ADDGA1075+004575999GA2075+009755999GA3085+011895999GD13991+0045759GD23991+0097559GD34991+0118959GE19MSL   +99999+99999GF199999999999004571999999MA1101495101415REMMET09201/04/21 14:39:02 METAR KWWD 041939Z 32004KT 10SM BKN015 BKN032 OVC039 05/03 A2997 RMK AO2 $
0239745966037262021010419567+39008-074908FM-15+0007KWWD V0203205N00215004575MN0160935N5+00505+00285101515ADDGA1075+004575999GA2085+009755999GD13991+0045759GD24991+0097559GE19MSL   +99999+99999GF199999999999004571999999MA1101495101415REMMET10201/04/21 14:56:02 METAR KWWD 041956Z 32004KT 10SM BKN015 OVC032 05/03 A2997 RMK AO2 SLP151 T00500028 $
0240745966037262021010420567+39008-074908FM-15+0007KWWD V0203305N00215004575MN0160935N5+00505+00285101535ADDGA1085+004575999GD14991+0045759GE19MSL   +99999+99999GF199999999999004571999999MA1101525101445MD1390009+9999REMMET10101/04/21 15:56:02 METAR KWWD 042056Z 33004KT 10SM OVC015 05/03 A2998 RMK AO2 SLP153 T00500028 53000 $EQDQ013     3APCTEN
0201745966037262021010421567+39008-074908FM-15+0007KWWD V0209999V00155005795MN0160935N5+00505+00285101545ADDGA1085+005795999GD14991+0057959GE19MSL   +99999+99999GF199999999999005791999999MA1101525101445REMMET09501/04/21 16:56:02 METAR KWWD 042156Z VRB03KT 10SM OVC019 05/03 A2998 RMK AO2 SLP154 T00500028 $
0222745966037262021010422197+39008-074908FM-15+0007KWWD V0209999C00005015245MN0160935N5+00405+00305999999ADDGA1045+005795999GA2085+015245999GD12991+0057959GD24991+0152459GE19MSL   +99999+99999GF199999999999005791999999MA1101525101445REMMET08501/04/21 17:19:02 METAR KWWD 042219Z 00000KT 10SM SCT019 OVC050 04/03 A2998 RMK AO2 $
0222745966037262021010422437+39008-074908FM-15+0007KWWD V0209999C00005005795MN0160935N5+00405+00305999999ADDGA1075+005795999GA2085+015245999GD13991+0057959GD24991+0152459GE19MSL   +99999+99999GF199999999999005791999999MA1101495101415REMMET08501/04/21 17:43:02 METAR KWWD 042243Z 00000KT 10SM BKN019 OVC050 04/03 A2997 RMK AO2 $
0239745966037262021010422567+39008-074908FM-15+0007KWWD V0203505N00155005795MN0160935N5+00445+00285101535ADDGA1075+005795999GA2085+015245999GD13991+0057959GD24991+0152459GE19MSL   +99999+99999GF199999999999005791999999MA1101525101445REMMET10201/04/21 17:56:02 METAR KWWD 042256Z 35003KT 10SM BKN019 OVC050 04/03 A2998 RMK AO2 SLP153 T00440028 $
0222745966037262021010423307+39008-074908FM-15+0007KWWD V0209999C00005014635MN0160935N5+00405+00305999999ADDGA1045+007015999GA2085+014635999GD12991+0070159GD24991+0146359GE19MSL   +99999+99999GF199999999999007011999999MA1101525101445REMMET08501/04/21 18:30:02 METAR KWWD 042330Z 00000KT 10SM SCT023 OVC048 04/03 A2998 RMK AO2 $
0259745966037262021010423567+39008-074908FM-15+0007KWWD V0209999C00005014635MN0160935N5+00445+00335101575ADDGA1085+014635999GD14991+0146359GE19MSL   +99999+99999GF199999999999014631999999KA1060M+00501KA2060N+00441MA1101565101475MD1390049+9999REMMET11301/04/21 18:56:02 METAR KWWD 042356Z 00000KT 10SM OVC048 04/03 A2999 RMK AO2 SLP157 T00440033 10050 20044 53004 $
0201745966037262021010500567+39008-074908FM-15+0007KWWD V0209999C00005015245MN0160935N5+00505+00335101575ADDGA1085+015245999GD14991+0152459GE19MSL   +99999+99999GF199999999999015241999999MA1101565101475REMMET09501/04/21 19:56:01 METAR KWWD 050056Z 00000KT 10SM OVC050 05/03 A2999 RMK AO2 SLP157 T00500033 $
0201745966037262021010501567+39008-074908FM-15+0007KWWD V0209999C00005014025MN0160935N5+00445+00335101535ADDGA1085+014025999GD14991+0140259GE19MSL   +99999+99999GF199999999999014021999999MA1101525101445REMMET09501/04/21 20:56:01 METAR KWWD 050156Z 00000KT 10SM OVC046 04/03 A2998 RMK AO2 SLP153 T00440033 $
0221745966037262021010502567+39008-074908FM-15+0007KWWD V0209999C00005014025MN0160935N5+00445+00335101495ADDGA1085+014025999GD14991+0140259GE19MSL   +99999+99999GF199999999999014021999999MA1101495101415MD1890089+9999REMMET10101/04/21 21:56:01 METAR KWWD 050256Z 00000KT 10SM OVC046 04/03 A2997 RMK AO2 SLP149 T00440033 58008 $
0201745966037262021010503567+39008-074908FM-15+0007KWWD V0209999C00005014635MN0160935N5+00445+00335101465ADDGA1085+014635999GD14991+0146359GE19MSL   +99999+99999GF199999999999014631999999MA1101465101375REMMET09501/04/21 22:56:01 METAR KWWD 050356Z 00000KT 10SM OVC048 04/03 A2996 RMK AO2 SLP146 T00440033 $
0237745966037262021010504567+39008-074908FM-15+0007KWWD V0209999C00005014025MN0160935N5+00395+00335101425ADDGA1085+014025999GD14991+0140259GE19MSL   +99999+99999GF199999999999014021999999KA1240M+00501KA2240N+00331MA1101395101305REMMET10501/04/21 23:56:02 METAR KWWD 050456Z 00000KT 10SM OVC046 04/03 A2994 RMK AO2 SLP142 T00390033 400500033 $
002774596603726202101050459O+39008-074908SOD  +0007KWWD V020999999999999999999999999999+99999+99999999999ADDAT1AU16RA  5AT2AU13BR  5
0259745966037262021010505567+39008-074908FM-15+0007KWWD V0209999C00005013415MN0160935N5+00395+00335101385ADDGA1085+013415999GD14991+0134159GE19MSL   +99999+99999GF199999999999013411999999KA1060M+00501KA2060N+00391MA1101355101275MD1890129+9999REMMET11301/05/21 00:56:02 METAR KWWD 050556Z 00000KT 10SM OVC044 04/03 A2993 RMK AO2 SLP138 T00390033 10050 20039 58012 $
0201745966037262021010506567+39008-074908FM-15+0007KWWD V0209999C00005015245MN0160935N5+00395+00335101385ADDGA1085+015245999GD14991+0152459GE19MSL   +99999+99999GF199999999999015241999999MA1101355101275REMMET09501/05/21 01:56:02 METAR KWWD 050656Z 00000KT 10SM OVC050 04/03 A2993 RMK AO2 SLP138 T00390033 $
0201745966037262021010507567+39008-074908FM-15+0007KWWD V0209999C00005016765MN0160935N5+00395+00335101385ADDGA1085+016765999GD14991+0167659GE19MSL   +99999+99999GF199999999999016761999999MA1101355101275REMMET09501/05/21 02:56:02 METAR KWWD 050756Z 00000KT 10SM OVC055 04/03 A2993 RMK AO2 SLP138 T00390033 $
0259745966037262021010508567+39008-074908FM-15+0007KWWD V0209999C00005015245MN0160935N5+00395+00335101345ADDGA1025+011585999GA2085+015245999GD11991+0115859GD24991+0152459GE19MSL   +99999+99999GF199999999999011581999999MA1101325101245MD1890039+9999REMMET10801/05/21 03:56:02 METAR KWWD 050856Z 00000KT 10SM FEW038 OVC050 04/03 A2992 RMK AO2 SLP134 T00390033 58003 $
0201745966037262021010509567+39008-074908FM-15+0007KWWD V0209999C00005015245MN0160935N5+00395+00285101355ADDGA1085+015245999GD14991+0152459GE19MSL   +99999+99999GF199999999999015241999999MA1101325101245REMMET09501/05/21 04:56:02 METAR KWWD 050956Z 00000KT 10SM OVC050 04/03 A2992 RMK AO2 SLP135 T00390028 $
0201745966037262021010510567+39008-074908FM-15+0007KWWD V0209999C00005014635MN0160935N5+00395+00285101395ADDGA1085+014635999GD14991+0146359GE19MSL   +99999+99999GF199999999999014631999999MA1101395101305REMMET09501/05/21 05:56:02 METAR KWWD 051056Z 00000KT 10SM OVC048 04/03 A2994 RMK AO2 SLP139 T00390028 $
0259745966037262021010511567+39008-074908FM-15+0007KWWD V0209999C00005015245MN0160935N5+00335+00225101385ADDGA1085+015245999GD14991+0152459GE19MSL   +99999+99999GF199999999999015241999999KA1060M+00441KA2060N+00331MA1101355101275MD1090049+9999REMMET11301/05/21 06:56:02 METAR KWWD 051156Z 00000KT 10SM OVC050 03/02 A2993 RMK AO2 SLP138 T00330022 10044 20033 50004 $
0201745966037262021010512567+39008-074908FM-15+0007KWWD V0209999C00005015245MN0160935N5+00395+00285101415ADDGA1085+015245999GD14991+0152459GE19MSL   +99999+99999GF199999999999015241999999MA1101395101305REMMET09501/05/21 07:56:02 METAR KWWD 051256Z 00000KT 10SM OVC050 04/03 A2994 RMK AO2 SLP141 T00390028 $
0201745966037262021010513567+39008-074908FM-15+0007KWWD V0209999C00005015245MN0160935N5+00395+00285101455ADDGA1085+015245999GD14991+0152459GE19MSL   +99999+99999GF199999999999015241999999MA1101425101345REMMET09501/05/21 08:56:02 METAR KWWD 051356Z 00000KT 10SM OVC050 04/03 A2995 RMK AO2 SLP145 T00390028 $
0221745966037262021010514567+39008-074908FM-15+0007KWWD V0203305N00155014635MN0160935N5+00445+00225101435ADDGA1085+014635999GD14991+0146359GE19MSL   +99999+99999GF199999999999014631999999MA1101425101345MD1090059+9999REMMET10101/05/21 09:56:02 METAR KWWD 051456Z 33003KT 10SM OVC048 04/02 A2995 RMK AO2 SLP143 T00440022 50005 $
0239745966037262021010515567+39008-074908FM-15+0007KWWD V0209999C00005012805MN0160935N5+00445+00175101365ADDGA1075+012805999GA2085+016765999GD13991+0128059GD24991+0167659GE19MSL   +99999+99999GF199999999999012801999999MA1101355101275REMMET10201/05/21 10:56:02 METAR KWWD 051556Z 00000KT 10SM BKN042 OVC055 04/02 A2993 RMK AO2 SLP136 T00440017 $
0201745966037262021010516567+39008-074908FM-15+0007KWWD V0203605N00265018295MN0160935N5+00505+00175101265ADDGA1085+018295999GD14991+0182959GE19MSL   +99999+99999GF199999999999018291999999MA1101255101175REMMET09501/05/21 11:56:02 METAR KWWD 051656Z 36005KT 10SM OVC060 05/02 A2990 RMK AO2 SLP126 T00500017 $
0297745966037262021010517567+39008-074908FM-15+0007KWWD V0203405N00265013415MN0160935N5+00505+00175101225ADDGA1075+013415999GA2085+016765999GD13991+0134159GD24991+0167659GE19MSL   +99999+99999GF199999999999013411999999KA1060M+00501KA2060N+00331MA1101225101145MD1690219+9999REMMET12001/05/21 12:56:02 METAR KWWD 051756Z 34005KT 10SM BKN044 OVC055 05/02 A2989 RMK AO2 SLP122 T00500017 10050 20033 56021 $
0239745966037262021010518567+39008-074908FM-15+0007KWWD V0209999V00215014335MN0160935N5+00505+00225101225ADDGA1075+014335999GA2085+018295999GD13991+0143359GD24991+0182959GE19MSL   +99999+99999GF199999999999014331999999MA1101225101145REMMET10201/05/21 13:56:02 METAR KWWD 051856Z VRB04KT 10SM BKN047 OVC060 05/02 A2989 RMK AO2 SLP122 T00500022 $
0201745966037262021010519567+39008-074908FM-15+0007KWWD V0203305N00265014635MN0160935N5+00505+00175101235ADDGA1085+014635999GD14991+0146359GE19MSL   +99999+99999GF199999999999014631999999MA1101225101145REMMET09501/05/21 14:56:02 METAR KWWD 051956Z 33005KT 10SM OVC048 05/02 A2989 RMK AO2 SLP123 T00500017 $
0221745966037262021010520567+39008-074908FM-15+0007KWWD V0203305N00215019815MN0160935N5+00505+00175101285ADDGA1085+019815999GD14991+0198159GE19MSL   +99999+99999GF199999999999019811999999MA1101255101175MD1390059+9999REMMET10101/05/21 15:56:02 METAR KWWD 052056Z 33004KT 10SM OVC065 05/02 A2990 RMK AO2 SLP128 T00500017 53005 $
0201745966037262021010521567+39008-074908FM-15+0007KWWD V0203105N00155018295MN0160935N5+00505+00225101365ADDGA1085+018295999GD14991+0182959GE19MSL   +99999+99999GF199999999999018291999999MA1101355101275REMMET09501/05/21 16:56:02 METAR KWWD 052156Z 31003KT 10SM OVC060 05/02 A2993 RMK AO2 SLP136 T00500022 $
0201745966037262021010522567+39008-074908FM-15+0007KWWD V0203305N00265019815MN0160935N5+00505+00115101425ADDGA1085+019815999GD14991+0198159GE19MSL   +99999+99999GF199999999999019811999999MA1101395101305REMMET09501/05/21 17:56:02 METAR KWWD 052256Z 33005KT 10SM OVC065 05/01 A2994 RMK AO2 SLP142 T00500011 $
0259745966037262021010523567+39008-074908FM-15+0007KWWD V0203305N00265018295MN0160935N5+00445+00175101465ADDGA1085+018295999GD14991+0182959GE19MSL   +99999+99999GF199999999999018291999999KA1060M+00501KA2060N+00441MA1101465101375MD1190189+9999REMMET11301/05/21 18:56:02 METAR KWWD 052356Z 33005KT 10SM OVC060 04/02 A2996 RMK AO2 SLP146 T00440017 10050 20044 51018 $
0222745966037262021010600487+39008-074908FM-15+0007KWWD V0209999V00265007625MN0160935N5+00405+00205999999ADDGA1075+007625999GA2085+009755999GD13991+0076259GD24991+0097559GE19MSL   +99999+99999GF199999999999007621999999MA1101465101375REMMET08501/05/21 19:48:01 METAR KWWD 060048Z VRB05KT 10SM BKN025 OVC032 04/02 A2996 RMK AO2 $
0239745966037262021010600567+39008-074908FM-15+0007KWWD V0203505N00365007625MN0160935N5+00445+00175101485ADDGA1075+007625999GA2085+009755999GD13991+0076259GD24991+0097559GE19MSL   +99999+99999GF199999999999007621999999MA1101465101375REMMET10201/05/21 19:56:01 METAR KWWD 060056Z 35007KT 10SM BKN025 OVC032 04/02 A2996 RMK AO2 SLP148 T00440017 $
0222745966037262021010601207+39008-074908FM-15+0007KWWD V0203405N00265010065MN0160935N5+00405+00105999999ADDGA1045+007925999GA2085+010065999GD12991+0079259GD24991+0100659GE19MSL   +99999+99999GF199999999999007921999999MA1101465101375REMMET08501/05/21 20:20:01 METAR KWWD 060120Z 34005KT 10SM SCT026 OVC033 04/01 A2996 RMK AO2 $
0201745966037262021010601567+39008-074908FM-15+0007KWWD V0203205N00265010675MN0160935N5+00395+00175101495ADDGA1085+010675999GD14991+0106759GE19MSL   +99999+99999GF199999999999010671999999MA1101465101375REMMET09501/05/21 20:56:01 METAR KWWD 060156Z 32005KT 10SM OVC035 04/02 A2996 RMK AO2 SLP149 T00390017 $
0259745966037262021010602567+39008-074908FM-15+0007KWWD V0203305N00215013725MN0160935N5+00395+00175101475ADDGA1075+013725999GA2085+018295999GD13991+0137259GD24991+0182959GE19MSL   +99999+99999GF199999999999013721999999MA1101465101375MD1090019+9999REMMET10801/05/21 21:56:01 METAR KWWD 060256Z 33004KT 10SM BKN045 OVC060 04/02 A2996 RMK AO2 SLP147 T00390017 50001 $
0201745966037262021010603567+39008-074908FM-15+0007KWWD V0209999V00265016765MN0160935N5+00445+00115101475ADDGA1085+016765999GD14991+0167659GE19MSL   +99999+99999GF199999999999016761999999MA1101465101375REMMET09501/05/21 22:56:01 METAR KWWD 060356Z VRB05KT 10SM OVC055 04/01 A2996 RMK AO2 SLP147 T00440011 $
0242745966037262021010604567+39008-074908FM-15+0007KWWD V0203205N00265016765MN0160935N5+00445+00115101485ADDGA1085+016765999GD14991+0167659GE19MSL   +99999+99999GF199999999999016761999999KA1240M+00501KA2240N+00331MA1101465101375REMMET11001/05/21 23:56:02 METAR KWWD 060456Z 32005KT 10SM OVC055 04/01 A2996 RMK AO2 SLP148 T00440011 400500033 TSNO $
0259745966037262021010605567+39008-074908FM-15+0007KWWD V0203105N00315016765MN0160935N5+00445+00115101485ADDGA1085+016765999GD14991+0167659GE19MSL   +99999+99999GF199999999999016761999999KA1060M+00441KA2060N+00391MA1101465101375MD1290019+9999REMMET11301/06/21 00:56:02 METAR KWWD 060556Z 31006KT 10SM OVC055 04/01 A2996 RMK AO2 SLP148 T00440011 10044 20039 52001 $
0239745966037262021010606567+39008-074908FM-15+0007KWWD V0203205N00365010365MN0160935N5+00395+00115101515ADDGA1075+010365999GA2085+016765999GD13991+0103659GD24991+0167659GE19MSL   +99999+99999GF199999999999010361999999MA1101495101415REMMET10201/06/21 01:56:02 METAR KWWD 060656Z 32007KT 10SM BKN034 OVC055 04/01 A2997 RMK AO2 SLP151 T00390011 $
0201745966037262021010607567+39008-074908FM-15+0007KWWD V0203205N00315016765MN0160935N5+00395+00115101565ADDGA1085+016765999GD14991+0167659GE19MSL   +99999+99999GF199999999999016761999999MA1101525101445REMMET09501/06/21 02:56:02 METAR KWWD 060756Z 32006KT 10SM OVC055 04/01 A2998 RMK AO2 SLP156 T00390011 $
0221745966037262021010608567+39008-074908FM-15+0007KWWD V0203205N00365016765MN0160935N5+00395+00065101585ADDGA1085+016765999GD14991+0167659GE19MSL   +99999+99999GF199999999999016761999999MA1101565101475MD1290109+9999REMMET10101/06/21 03:56:02 METAR KWWD 060856Z 32007KT 10SM OVC055 04/01 A2999 RMK AO2 SLP158 T00390006 52010 $
0212745966037262021010609567+39008-074908FM-15+0007KWWD V0203205N00415016765MN0160935N5+00395+00065101595ADDGA1085+016765999GD14991+0167659GE19MSL   +99999+99999GF199999999999016761999999MA1101565101475OC100725REMMET09801/06/21 04:56:02 METAR KWWD 060956Z 32008G14KT 10SM OVC055 04/01 A2999 RMK AO2 SLP159 T00390006 $
0201745966037262021010610567+39008-074908FM-15+0007KWWD V0203305N00415016765MN0160935N5+00395+00005101635ADDGA1085+016765999GD14991+0167659GE19MSL   +99999+99999GF199999999999016761999999MA1101635101545REMMET09501/06/21 05:56:02 METAR KWWD 061056Z 33008KT 10SM OVC055 04/00 A3001 RMK AO2 SLP163 T00390000 $
0259745966037262021010611567+39008-074908FM-15+0007KWWD V0203205N00415018295MN0160935N5+00395+00005101705ADDGA1085+018295999GD14991+0182959GE19MSL   +99999+99999GF199999999999018291999999KA1060M+00441KA2060N+00391MA1101695101615MD1390129+9999REMMET11301/06/21 06:56:02 METAR KWWD 061156Z 32008KT 10SM OVC060 04/00 A3003 RMK AO2 SLP170 T00390000 10044 20039 53012 $
0201745966037262021010612567+39008-074908FM-15+0007KWWD V0203205N00415018295MN0160935N5+00395+00005101755ADDGA1085+018295999GD14991+0182959GE19MSL   +99999+99999GF199999999999018291999999MA1101735101645REMMET09501/06/21 07:56:02 METAR KWWD 061256Z 32008KT 10SM OVC060 04/00 A3004 RMK AO2 SLP175 T00390000 $
0212745966037262021010613567+39008-074908FM-15+0007KWWD V0203105V00465018295MN0160935N5+00445+00005101805ADDGA1085+018295999GD14991+0182959GE19MSL   +99999+99999GF199999999999018291999999MA1101795101715OC100775REMMET09801/06/21 08:56:02 METAR KWWD 061356Z 31009G15KT 10SM OVC060 04/00 A3006 RMK AO2 SLP180 T00440000 $
0233745966037262021010614567+39008-074908FM-15+0007KWWD V0203305N00515018295MN0160935N5+00445-00065101825ADDGA1085+018295999GD14991+0182959GE19MSL   +99999+99999GF199999999999018291999999MA1101795101715MD1190139+9999OC100825REMMET10501/06/21 09:56:02 METAR KWWD 061456Z 33010G16KT 10SM OVC060 04/M01 A3006 RMK AO2 SLP182 T00441006 51013 $
0188745966037262021010615567+39008-074908FM-15+0007KWWD V0203005N005752200059N0160935N5+00565-00175101765ADDGA1005+999999999GD10991+9999999GF100991999999999999999999MA1101765101685OC101135REMMET09601/06/21 10:56:02 METAR KWWD 061556Z 30011G22KT 10SM CLR 06/M02 A3005 RMK AO2 SLP176 T00561017 $
0188745966037262021010616567+39008-074908FM-15+0007KWWD V0203105N004152200059N0160935N5+00565-00115101725ADDGA1005+999999999GD10991+9999999GF100991999999999999999999MA1101695101615OC101035REMMET09601/06/21 11:56:02 METAR KWWD 061656Z 31008G20KT 10SM CLR 06/M01 A3003 RMK AO2 SLP172 T00561011 $
0271745966037262021010617567+39008-074908FM-15+0007KWWD V0203205V00365010975MN0160935N5+00565-00175101695ADDGA1075+010975999GD13991+0109759GE19MSL   +99999+99999GF199999999999010971999999KA1060M+00611KA2060N+00391MA1101665101585MD1690149+9999OC100935REMMET11701/06/21 12:56:02 METAR KWWD 061756Z 32007G18KT 10SM BKN036 06/M02 A3002 RMK AO2 SLP169 T00561017 10061 20039 56014 $
0188745966037262021010618567+39008-074908FM-15+0007KWWD V0203105N006252200059N0160935N5+00615-00175101675ADDGA1005+999999999GD10991+9999999GF100991999999999999999999MA1101665101585OC100985REMMET09601/06/21 13:56:02 METAR KWWD 061856Z 31012G19KT 10SM CLR 06/M02 A3002 RMK AO2 SLP167 T00611017 $
0232745966037262021010619567+39008-074908FM-15+0007KWWD V0203005N006252200059N0160935N5+00565-00115101725ADDGA1025+012195999GD11991+0121959GE19AGL   +99999+99999GF102995999999012191999999MA1101695101615OC101085REMMET09901/06/21 14:56:02 METAR KWWD 061956Z 30012G21KT 10SM FEW040 06/M01 A3003 RMK AO2 SLP172 T00561011 $EQDD01      0ADE726
0233745966037262021010620567+39008-074908FM-15+0007KWWD V0203105N00625011585MN0160935N5+00505-00115101795ADDGA1075+011585999GD13991+0115859GE19MSL   +99999+99999GF199999999999011581999999MA1101765101685MD1390109+9999OC100935REMMET10501/06/21 15:56:02 METAR KWWD 062056Z 31012G18KT 10SM BKN038 05/M01 A3005 RMK AO2 SLP179 T00501011 53010 $
0213745966037262021010621567+39008-074908FM-15+0007KWWD V0203105N00415012195MN0160935N5+00445-00175101855ADDGA1085+012195999GD14991+0121959GE19MSL   +99999+99999GF199999999999012191999999MA1101835101745OC100825REMMET09901/06/21 16:56:02 METAR KWWD 062156Z 31008G16KT 10SM OVC040 04/M02 A3007 RMK AO2 SLP185 T00441017 $
0213745966037262021010622567+39008-074908FM-15+0007KWWD V0203205N00515012195MN0160935N5+00445-00225101905ADDGA1075+012195999GD13991+0121959GE19MSL   +99999+99999GF199999999999012191999999MA1101905101815OC100825REMMET09901/06/21 17:56:02 METAR KWWD 062256Z 32010G16KT 10SM BKN040 04/M02 A3009 RMK AO2 SLP190 T00441022 $
0290745966037262021010623567+39008-074908FM-15+0007KWWD V0203105N004152200059N0160935N5+00395-00225101945ADDGA1045+012195999GD12991+0121959GE19AGL   +99999+99999GF104995999999012191999999KA1060M+00611KA2060N+00391MA1101935101855MD1190159+9999OC100825REMMET11701/06/21 18:56:02 METAR KWWD 062356Z 31008G16KT 10SM SCT040 04/M02 A3010 RMK AO2 SLP194 T00391022 10061 20039 51015 $EQDD01      0ADE726
0232745966037262021010700567+39008-074908FM-15+0007KWWD V0203105N004652200059N0160935N5+00395-00175101965ADDGA1025+011585999GD11991+0115859GE19AGL   +99999+99999GF102995999999011581999999MA1101935101855OC100885REMMET09901/06/21 19:56:01 METAR KWWD 070056Z 31009G17KT 10SM FEW038 04/M02 A3010 RMK AO2 SLP196 T00391017 $EQDD01      0ADE726
0188745966037262021010701567+39008-074908FM-15+0007KWWD V0203105N006252200059N0160935N5+00335-00225101985ADDGA1005+999999999GD10991+9999999GF100991999999999999999999MA1101965101885OC100885REMMET09601/06/21 20:56:01 METAR KWWD 070156Z 31012G17KT 10SM CLR 03/M02 A3011 RMK AO2 SLP198 T00331022 $
0208745966037262021010702567+39008-074908FM-15+0007KWWD V0203105N005152200059N0160935N5+00335-00285101965ADDGA1005+999999999GD10991+9999999GF100991999999999999999999MA1101935101855MD1090029+9999OC100885REMMET10201/06/21 21:56:01 METAR KWWD 070256Z 31010G17KT 10SM CLR 03/M03 A3010 RMK AO2 SLP196 T00331028 50002 $
0188745966037262021010703567+39008-074908FM-15+0007KWWD V0203105N005752200059N0160935N5+00285-00225101995ADDGA1005+999999999GD10991+9999999GF100991999999999999999999MA1101965101885OC100885REMMET09601/06/21 22:56:01 METAR KWWD 070356Z 31011G17KT 10SM CLR 03/M02 A3011 RMK AO2 SLP199 T00281022 $
0257745966037262021010704567+39008-074908FM-15+0007KWWD V0203005N005152200059N0160935N5+00285-00175101975ADDGA1025+010365999GD11991+0103659GE19AGL   +99999+99999GF102995999999010361999999KA1240M+00611KA2240N+00281MA1101935101855REMMET10601/06/21 23:56:02 METAR KWWD 070456Z 30010KT 10SM FEW034 03/M02 A3010 RMK AO2 SLP197 T00281017 400610028 $EQDD01      0ADE726
0246745966037262021010705567+39008-074908FM-15+0007KWWD V0203105N005752200059N0160935N5+00285-00285101975ADDGA1005+999999999GD10991+9999999GF100991999999999999999999KA1060M+00391KA2060N+00281MA1101965101885MD1190019+9999OC100985REMMET11401/07/21 00:56:02 METAR KWWD 070556Z 31011G19KT 10SM CLR 03/M03 A3011 RMK AO2 SLP197 T00281028 10039 20028 51001 $
0195745966037262021010706567+39008-074908FM-15+0007KWWD V0203205N004652200059N0160935N5+00225-00285101975ADDGA1005+999999999GD10991+9999999GF100991999999999999999999MA1101965101885OC100885REMMET10301/07/21 01:56:02 METAR KWWD 070656Z 32009G17KT 10SM CLR 02/M03 A3011 RMK AO2 SLP197 T00221028 FZRANO $
0195745966037262021010707567+39008-074908FM-15+0007KWWD V0203105N005752200059N0160935N5+00225-00225101995ADDGA1005+999999999GD10991+9999999GF100991999999999999999999MA1101965101885OC100935REMMET10301/07/21 02:56:02 METAR KWWD 070756Z 31011G18KT 10SM CLR 02/M02 A3011 RMK AO2 SLP199 T00221022 FZRANO $
0215745966037262021010708567+39008-074908FM-15+0007KWWD V0203105N005752200059N0160935N5+00225-00225102015ADDGA1005+999999999GD10991+9999999GF100991999999999999999999MA1102005101915MD1390049+9999OC100885REMMET10901/07/21 03:56:02 METAR KWWD 070856Z 31011G17KT 10SM CLR 02/M02 A3012 RMK AO2 SLP201 T00221022 53004 FZRANO $
0195745966037262021010709567+39008-074908FM-15+0007KWWD V0203205N005152200059N0160935N5+00175-00285102025ADDGA1005+999999999GD10991+9999999GF100991999999999999999999MA1102005101915OC100825REMMET10301/07/21 04:56:02 METAR KWWD 070956Z 32010G16KT 10SM CLR 02/M03 A3012 RMK AO2 SLP202 T00171028 FZRANO $
0195745966037262021010710567+39008-074908FM-15+0007KWWD V0203305N004152200059N0160935N5+00175-00285102035ADDGA1005+999999999GD10991+9999999GF100991999999999999999999MA1102035101955OC100775REMMET10301/07/21 05:56:02 METAR KWWD 071056Z 33008G15KT 10SM CLR 02/M03 A3013 RMK AO2 SLP203 T00171028 FZRANO $
0253745966037262021010711567+39008-074908FM-15+0007KWWD V0203305N005152200059N0160935N5+00115-00335102095ADDGA1005+999999999GD10991+9999999GF100991999999999999999999KA1060M+00281KA2060N+00111MA1102075101985MD1390089+9999OC100935REMMET12101/07/21 06:56:02 METAR KWWD 071156Z 33010G18KT 10SM CLR 01/M03 A3014 RMK AO2 SLP209 T00111033 10028 20011 53008 FZRANO $
0195745966037262021010712567+39008-074908FM-15+0007KWWD V0203205N005752200059N0160935N5+00175-00335102175ADDGA1005+999999999GD10991+9999999GF100991999999999999999999MA1102135102055OC100775REMMET10301/07/21 07:56:02 METAR KWWD 071256Z 32011G15KT 10SM CLR 02/M03 A3016 RMK AO2 SLP217 T00171033 FZRANO $
0195745966037262021010713567+39008-074908FM-15+0007KWWD V0203105N004652200059N0160935N5+00225-00335102205ADDGA1005+999999999GD10991+9999999GF100991999999999999999999MA1102175102085OC100725REMMET10301/07/21 08:56:02 METAR KWWD 071356Z 31009G14KT 10SM CLR 02/M03 A3017 RMK AO2 SLP220 T00221033 FZRANO $
0208745966037262021010714567+39008-074908FM-15+0007KWWD V0209999V003152200059N0160935N5+00285-00285102175ADDGA1005+999999999GD10991+9999999GF100991999999999999999999MA1102175102085MD1090099+9999OC100825REMMET10201/07/21 09:56:02 METAR KWWD 071456Z VRB06G16KT 10SM CLR 03/M03 A3017 RMK AO2 SLP217 T00281028 50009 $
0177745966037262021010715567+39008-074908FM-15+0007KWWD V0209999V003152200059N0160935N5+00395-00335102125ADDGA1005+999999999GD10991+9999999GF100991999999999999999999MA1102105102015REMMET09301/07/21 10:56:02 METAR KWWD 071556Z VRB06KT 10SM CLR 04/M03 A3015 RMK AO2 SLP212 T00391033 $
0188745966037262021010716567+39008-074908FM-15+0007KWWD V0203205N004652200059N0160935N5+00445-00335102045ADDGA1005+999999999GD10991+9999999GF100991999999999999999999MA1102035101955OC100775REMMET09601/07/21 11:56:02 METAR KWWD 071656Z 32009G15KT 10SM CLR 04/M03 A3013 RMK AO2 SLP204 T00441033 $
0246745966037262021010717567+39008-074908FM-15+0007KWWD V0203005N006252200059N0160935N5+00505-00225101995ADDGA1005+999999999GD10991+9999999GF100991999999999999999999KA1060M+00501KA2060N+00111MA1101965101885MD1690199+9999OC100825REMMET11401/07/21 12:56:02 METAR KWWD 071756Z 30012G16KT 10SM CLR 05/M02 A3011 RMK AO2 SLP199 T00501022 10050 20011 56019 $
0188745966037262021010718567+39008-074908FM-15+0007KWWD V0202905N006252200059N0160935N5+00505-00225101975ADDGA1005+999999999GD10991+9999999GF100991999999999999999999MA1101965101885OC100985REMMET09601/07/21 13:56:02 METAR KWWD 071856Z 29012G19KT 10SM CLR 05/M02 A3011 RMK AO2 SLP197 T00501022 $
0188745966037262021010719567+39008-074908FM-15+0007KWWD V0203005N006752200059N0160935N5+00565-00225101955ADDGA1005+999999999GD10991+9999999GF100991999999999999999999MA1101935101855OC100885REMMET09601/07/21 14:56:02 METAR KWWD 071956Z 30013G17KT 10SM CLR 06/M02 A3010 RMK AO2 SLP195 T00561022 $
0208745966037262021010720567+39008-074908FM-15+0007KWWD V0203105N004152200059N0160935N5+00565-00175101975ADDGA1005+999999999GD10991+9999999GF100991999999999999999999MA1101965101885MD1590019+9999OC100935REMMET10201/07/21 15:56:02 METAR KWWD 072056Z 31008G18KT 10SM CLR 06/M02 A3011 RMK AO2 SLP197 T00561017 55001 $
0188745966037262021010721567+39008-074908FM-15+0007KWWD V0203005N004652200059N0160935N5+00505-00175102015ADDGA1005+999999999GD10991+9999999GF100991999999999999999999MA1102005101915OC100725REMMET09601/07/21 16:56:02 METAR KWWD 072156Z 30009G14KT 10SM CLR 05/M02 A3012 RMK AO2 SLP201 T00501017 $
0177745966037262021010722567+39008-074908FM-15+0007KWWD V0203105N002652200059N0160935N5+00445-00115102015ADDGA1005+999999999GD10991+9999999GF100991999999999999999999MA1102005101915REMMET09301/07/21 17:56:02 METAR KWWD 072256Z 31005KT 10SM CLR 04/M01 A3012 RMK AO2 SLP201 T00441011 $
0235745966037262021010723567+39008-074908FM-15+0007KWWD V0203005N003152200059N0160935N5+00445-00175102035ADDGA1005+999999999GD10991+9999999GF100991999999999999999999KA1060M+00611KA2060N+00441MA1102005101915MD1190069+9999REMMET11101/07/21 18:56:02 METAR KWWD 072356Z 30006KT 10SM CLR 04/M02 A3012 RMK AO2 SLP203 T00441017 10061 20044 51006 $
0177745966037262021010800567+39008-074908FM-15+0007KWWD V0203005N002152200059N0160935N5+00395-00115102085ADDGA1005+999999999GD10991+9999999GF100991999999999999999999MA1102075101985REMMET09301/07/21 19:56:01 METAR KWWD 080056Z 30004KT 10SM CLR 04/M01 A3014 RMK AO2 SLP208 T00391011 $
0176745966037262021010801567+39008-074908FM-15+0007KWWD V0209999C000052200059N0160935N5+00335+00005102035ADDGA1005+999999999GD10991+9999999GF100991999999999999999999MA1102005101915REMMET09201/07/21 20:56:01 METAR KWWD 080156Z 00000KT 10SM CLR 03/00 A3012 RMK AO2 SLP203 T00330000 $
0197745966037262021010802567+39008-074908FM-15+0007KWWD V0203205N001552200059N0160935N5+00285-00285102065ADDGA1005+999999999GD10991+9999999GF100991999999999999999999MA1102035101955MD1190039+9999REMMET09901/07/21 21:56:01 METAR KWWD 080256Z 32003KT 10SM CLR 03/M03 A3013 RMK AO2 SLP206 T00281028 51003 $
0184745966037262021010803567+39008-074908FM-15+0007KWWD V0203605N003152200059N0160935N5+00175-00335102025ADDGA1005+999999999GD10991+9999999GF100991999999999999999999MA1102005101915REMMET10001/07/21 22:56:01 METAR KWWD 080356Z 36006KT 10SM CLR 02/M03 A3012 RMK AO2 SLP202 T00171033 FZRANO $
0220745966037262021010804567+39008-074908FM-15+0007KWWD V0203505N002152200059N0160935N5+00115-00395102025ADDGA1005+999999999GD10991+9999999GF100991999999999999999999KA1240M+00611KA2240N+00111MA1102005101915REMMET11001/07/21 23:56:02 METAR KWWD 080456Z 35004KT 10SM CLR 01/M04 A3012 RMK AO2 SLP202 T00111039 400610011 FZRANO $
0242745966037262021010805567+39008-074908FM-15+0007KWWD V0203505N002652200059N0160935N5+00065-00445101995ADDGA1005+999999999GD10991+9999999GF100991999999999999999999KA1060M+00441KA2060N+00061MA1101965101885MD1690079+9999REMMET11801/08/21 00:56:02 METAR KWWD 080556Z 35005KT 10SM CLR 01/M04 A3011 RMK AO2 SLP199 T00061044 10044 20006 56007 FZRANO $
0184745966037262021010806567+39008-074908FM-15+0007KWWD V0203505N002652200059N0160935N5+00005-00395102005ADDGA1005+999999999GD10991+9999999GF100991999999999999999999MA1101965101885REMMET10001/08/21 01:56:01 METAR KWWD 080656Z 35005KT 10SM CLR 00/M04 A3011 RMK AO2 SLP200 T00001039 FZRANO $
0184745966037262021010807567+39008-074908FM-15+0007KWWD V0203505N002152200059N0160935N5+00005-00445101935ADDGA1005+999999999GD10991+9999999GF100991999999999999999999MA1101905101815REMMET10001/08/21 02:56:01 METAR KWWD 080756Z 35004KT 10SM CLR 00/M04 A3009 RMK AO2 SLP193 T00001044 FZRANO $
0204745966037262021010808567+39008-074908FM-15+0007KWWD V0203605N003652200059N0160935N5+00005-00395101805ADDGA1005+999999999GD10991+9999999GF100991999999999999999999MA1101795101715MD1890199+9999REMMET10601/08/21 03:56:02 METAR KWWD 080856Z 36007KT 10SM CLR 00/M04 A3006 RMK AO2 SLP180 T00001039 58019 FZRANO $
0185745966037262021010809567+39008-074908FM-15+0007KWWD V0203605N002152200059N0160935N5-00065-00395101825ADDGA1005+999999999GD10991+9999999GF100991999999999999999999MA1101795101715REMMET10101/08/21 04:56:01 METAR KWWD 080956Z 36004KT 10SM CLR M01/M04 A3006 RMK AO2 SLP182 T10061039 FZRANO $
0185745966037262021010810567+39008-074908FM-15+0007KWWD V0209999C000052200059N0160935N5-00115-00395101855ADDGA1005+999999999GD10991+9999999GF100991999999999999999999MA1101835101745REMMET10101/08/21 05:56:01 METAR KWWD 081056Z 00000KT 10SM CLR M01/M04 A3007 RMK AO2 SLP185 T10111039 FZRANO $
0243745966037262021010811567+39008-074908FM-15+0007KWWD V0200105N003152200059N0160935N5-00115-00395101775ADDGA1005+999999999GD10991+9999999GF100991999999999999999999KA1060M+00061KA2060N-00281MA1101765101685MD1890039+9999REMMET11901/08/21 06:56:01 METAR KWWD 081156Z 01006KT 10SM CLR M01/M04 A3005 RMK AO2 SLP177 T10111039 10006 21028 58003 FZRANO $
0185745966037262021010812567+39008-074908FM-15+0007KWWD V0203605N003152200059N0160935N5-00115-00445101795ADDGA1005+999999999GD10991+9999999GF100991999999999999999999MA1101765101685REMMET10101/08/21 07:56:01 METAR KWWD 081256Z 36006KT 10SM CLR M01/M04 A3005 RMK AO2 SLP179 T10111044 FZRANO $
0185745966037262021010813567+39008-074908FM-15+0007KWWD V0200405N001552200059N0160935N5-00065-00445101875ADDGA1005+999999999GD10991+9999999GF100991999999999999999999MA1101865101785REMMET10101/08/21 08:56:01 METAR KWWD 081356Z 04003KT 10SM CLR M01/M04 A3008 RMK AO2 SLP187 T10061044 FZRANO $
0204745966037262021010814567+39008-074908FM-15+0007KWWD V0209999C000052200059N0160935N5+00065-00445101955ADDGA1005+999999999GD10991+9999999GF100991999999999999999999MA1101935101855MD1390189+9999REMMET10601/08/21 09:56:01 METAR KWWD 081456Z 00000KT 10SM CLR 01/M04 A3010 RMK AO2 SLP195 T00061044 53018 FZRANO $
0184745966037262021010815567+39008-074908FM-15+0007KWWD V0203305N002652200059N0160935N5+00005-00445101725ADDGA1005+999999999GD10991+9999999GF100991999999999999999999MA1101695101615REMMET10001/08/21 10:56:01 METAR KWWD 081556Z 33005KT 10SM CLR 00/M04 A3003 RMK AO2 SLP172 T00001044 FZRANO $
0184745966037262021010816567+39008-074908FM-15+0007KWWD V0209999C000052200059N0160935N5+00065-00395101645ADDGA1005+999999999GD10991+9999999GF100991999999999999999999MA1101635101545REMMET10001/08/21 11:56:01 METAR KWWD 081656Z 00000KT 10SM CLR 01/M04 A3001 RMK AO2 SLP164 T00061039 FZRANO $
0242745966037262021010817567+39008-074908FM-15+0007KWWD V0200205N002152200059N0160935N5+00065-00395101465ADDGA1005+999999999GD10991+9999999GF100991999999999999999999KA1060M+00061KA2060N-00111MA1101465101375MD1690489+9999REMMET11801/08/21 12:56:01 METAR KWWD 081756Z 02004KT 10SM CLR 01/M04 A2996 RMK AO2 SLP146 T00061039 10006 21011 56048 FZRANO $
0209745966037262021010818567+39008-074908FM-15+0007KWWD V0203405N00155030485MN0160935N5+00175-00335101425ADDGA1085+030485999GD14991+0304859GE19MSL   +99999+99999GF199999999999030481999999MA1101395101305REMMET10301/08/21 13:56:01 METAR KWWD 081856Z 34003KT 10SM OVC100 02/M03 A2994 RMK AO2 SLP142 T00171033 FZRANO $
0209745966037262021010819567+39008-074908FM-15+0007KWWD V0209999V00155033535MN0160935N5+00115-00335101405ADDGA1075+033535999GD13991+0335359GE19MSL   +99999+99999GF199999999999033531999999MA1101395101305REMMET10301/08/21 14:56:01 METAR KWWD 081956Z VRB03KT 10SM BKN110 01/M03 A2994 RMK AO2 SLP140 T00111033 FZRANO $
0229745966037262021010820567+39008-074908FM-15+0007KWWD V0203005N00155036585MN0160935N5+00175-00335101385ADDGA1085+036585999GD14991+0365859GE19MSL   +99999+99999GF199999999999036581999999MA1101355101275MD1690089+9999REMMET10901/08/21 15:56:02 METAR KWWD 082056Z 30003KT 10SM OVC120 02/M03 A2993 RMK AO2 SLP138 T00171033 56008 FZRANO $
0209745966037262021010821567+39008-074908FM-15+0007KWWD V0203605N00155033535MN0160935N5+00175-00285101355ADDGA1085+033535999GD14991+0335359GE19MSL   +99999+99999GF199999999999033531999999MA1101325101245REMMET10301/08/21 16:56:02 METAR KWWD 082156Z 36003KT 10SM OVC110 02/M03 A2992 RMK AO2 SLP135 T00171028 FZRANO $
0228745966037262021010822567+39008-074908FM-15+0007KWWD V0203605N001552200059N0160935N5+00115-00285101325ADDGA1045+036585999GD12991+0365859GE19AGL   +99999+99999GF104995999999036581999999MA1101295101205REMMET10301/08/21 17:56:02 METAR KWWD 082256Z 36003KT 10SM SCT120 01/M03 A2991 RMK AO2 SLP132 T00111028 FZRANO $EQDD01      0ADE726
0286745966037262021010823567+39008-074908FM-15+0007KWWD V0200105N001552200059N0160935N5+00115-00285101285ADDGA1045+033535999GD12991+0335359GE19AGL   +99999+99999GF104995999999033531999999KA1060M+00171KA2060N+00061MA1101255101175MD1790109+9999REMMET12101/08/21 18:56:02 METAR KWWD 082356Z 01003KT 10SM SCT110 01/M03 A2990 RMK AO2 SLP128 T00111028 10017 20006 57010 FZRANO $EQDD01      0ADE726
0184745966037262021010900567+39008-074908FM-15+0007KWWD V0203505N002152200059N0160935N5+00065-00395101215ADDGA1005+999999999GD10991+9999999GF100991999999999999999999MA1101195101105REMMET10001/08/21 19:56:01 METAR KWWD 090056Z 35004KT 10SM CLR 01/M04 A2988 RMK AO2 SLP121 T00061039 FZRANO $
0184745966037262021010901567+39008-074908FM-15+0007KWWD V0203405N002652200059N0160935N5+00005-00395101135ADDGA1005+999999999GD10991+9999999GF100991999999999999999999MA1101125101035REMMET10001/08/21 20:56:01 METAR KWWD 090156Z 34005KT 10SM CLR 00/M04 A2986 RMK AO2 SLP113 T00001039 FZRANO $
0204745966037262021010902567+39008-074908FM-15+0007KWWD V0203305N002152200059N0160935N5+00065-00395101135ADDGA1005+999999999GD10991+9999999GF100991999999999999999999MA1101125101035MD1590159+9999REMMET10601/08/21 21:56:01 METAR KWWD 090256Z 33004KT 10SM CLR 01/M04 A2986 RMK AO2 SLP113 T00061039 55015 FZRANO $
0184745966037262021010903567+39008-074908FM-15+0007KWWD V0203505N003152200059N0160935N5+00065-00395101055ADDGA1005+999999999GD10991+9999999GF100991999999999999999999MA1101055100975REMMET10001/08/21 22:56:01 METAR KWWD 090356Z 35006KT 10SM CLR 01/M04 A2984 RMK AO2 SLP105 T00061039 FZRANO $
0220745966037262021010904567+39008-074908FM-15+0007KWWD V0203605N003652200059N0160935N5+00005-00445101015ADDGA1005+999999999GD10991+9999999GF100991999999999999999999KA1240M+00171KA2240N-00281MA1100985100905REMMET11001/08/21 23:56:02 METAR KWWD 090456Z 36007KT 10SM CLR 00/M04 A2982 RMK AO2 SLP101 T00001044 400171028 FZRANO $
0243745966037262021010905567+39008-074908FM-15+0007KWWD V0203505N002652200059N0160935N5-00065-00445100995ADDGA1005+999999999GD10991+9999999GF100991999999999999999999KA1060M+00111KA2060N-00061MA1100985100905MD1690149+9999REMMET11901/09/21 00:56:02 METAR KWWD 090556Z 35005KT 10SM CLR M01/M04 A2982 RMK AO2 SLP099 T10061044 10011 21006 56014 FZRANO $
0185745966037262021010906567+39008-074908FM-15+0007KWWD V0203505N003152200059N0160935N5-00065-00505101025ADDGA1005+999999999GD10991+9999999GF100991999999999999999999MA1100985100905REMMET10101/09/21 01:56:02 METAR KWWD 090656Z 35006KT 10SM CLR M01/M05 A2982 RMK AO2 SLP102 T10061050 FZRANO $
0185745966037262021010907567+39008-074908FM-15+0007KWWD V0203605N004152200059N0160935N5-00065-00565100995ADDGA1005+999999999GD10991+9999999GF100991999999999999999999MA1100985100905REMMET10101/09/21 02:56:02 METAR KWWD 090756Z 36008KT 10SM CLR M01/M06 A2982 RMK AO2 SLP099 T10061056 FZRANO $
0205745966037262021010908567+39008-074908FM-15+0007KWWD V0203605N005152200059N0160935N5-00115-00615100985ADDGA1005+999999999GD10991+9999999GF100991999999999999999999MA1100955100865MD1890019+9999REMMET10701/09/21 03:56:02 METAR KWWD 090856Z 36010KT 10SM CLR M01/M06 A2981 RMK AO2 SLP098 T10111061 58001 FZRANO $
0196745966037262021010909567+39008-074908FM-15+0007KWWD V0203605N005152200059N0160935N5-00115-00725101015ADDGA1005+999999999GD10991+9999999GF100991999999999999999999MA1100985100905OC100825REMMET10401/09/21 04:56:02 METAR KWWD 090956Z 36010G16KT 10SM CLR M01/M07 A2982 RMK AO2 SLP101 T10111072 FZRANO $
0196745966037262021010910567+39008-074908FM-15+0007KWWD V0203605N006252200059N0160935N5-00115-00785101075ADDGA1005+999999999GD10991+9999999GF100991999999999999999999MA1101055100975OC100935REMMET10401/09/21 05:56:02 METAR KWWD 091056Z 36012G18KT 10SM CLR M01/M08 A2984 RMK AO2 SLP107 T10111078 FZRANO $
0254745966037262021010911567+39008-074908FM-15+0007KWWD V0203605N005752200059N0160935N5-00175-00785101125ADDGA1005+999999999GD10991+9999999GF100991999999999999999999KA1060M+00001KA2060N-00171MA1101085101005MD1390149+9999OC100775REMMET12201/09/21 06:56:02 METAR KWWD 091156Z 36011G15KT 10SM CLR M02/M08 A2985 RMK AO2 SLP112 T10171078 10000 21017 53014 FZRANO $
0196745966037262021010912567+39008-074908FM-15+0007KWWD V0203505N005152200059N0160935N5-00175-00835101225ADDGA1005+999999999GD10991+9999999GF100991999999999999999999MA1101225101145OC100775REMMET10401/09/21 07:56:02 METAR KWWD 091256Z 35010G15KT 10SM CLR M02/M08 A2989 RMK AO2 SLP122 T10171083 FZRANO $
0196745966037262021010913567+39008-074908FM-15+0007KWWD V0203505N004652200059N0160935N5-00065-00835101315ADDGA1005+999999999GD10991+9999999GF100991999999999999999999MA1101295101205OC100985REMMET10401/09/21 08:56:02 METAR KWWD 091356Z 35009G19KT 10SM CLR M01/M08 A2991 RMK AO2 SLP131 T10061083 FZRANO $
0215745966037262021010914567+39008-074908FM-15+0007KWWD V0203305N005752200059N0160935N5+00005-00785101345ADDGA1005+999999999GD10991+9999999GF100991999999999999999999MA1101325101245MD1190239+9999OC100825REMMET10901/09/21 09:56:02 METAR KWWD 091456Z 33011G16KT 10SM CLR 00/M08 A2992 RMK AO2 SLP134 T00001078 51023 FZRANO $
0195745966037262021010915567+39008-074908FM-15+0007KWWD V0203405N005752200059N0160935N5+00065-00895101335ADDGA1005+999999999GD10991+9999999GF100991999999999999999999MA1101325101245OC100825REMMET10301/09/21 10:56:02 METAR KWWD 091556Z 34011G16KT 10SM CLR 01/M09 A2992 RMK AO2 SLP133 T00061089 FZRANO $
0195745966037262021010916567+39008-074908FM-15+0007KWWD V0203105N006252200059N0160935N5+00175-01005101285ADDGA1005+999999999GD10991+9999999GF100991999999999999999999MA1101255101175OC100825REMMET10301/09/21 11:56:02 METAR KWWD 091656Z 31012G16KT 10SM CLR 02/M10 A2990 RMK AO2 SLP128 T00171100 FZRANO $
0246745966037262021010917567+39008-074908FM-15+0007KWWD V0203105N004152200059N0160935N5+00285-00945101255ADDGA1005+999999999GD10991+9999999GF100991999999999999999999KA1060M+00281KA2060N-00171MA1101225101145MD1890099+9999OC100825REMMET11401/09/21 12:56:02 METAR KWWD 091756Z 31008G16KT 10SM CLR 03/M09 A2989 RMK AO2 SLP125 T00281094 10028 21017 58009 $
0188745966037262021010918567+39008-074908FM-15+0007KWWD V0203105N004652200059N0160935N5+00335-00785101275ADDGA1005+999999999GD10991+9999999GF100991999999999999999999MA1101255101175OC100725REMMET09601/09/21 13:56:02 METAR KWWD 091856Z 31009G14KT 10SM CLR 03/M08 A2990 RMK AO2 SLP127 T00331078 $
0232745966037262021010919567+39008-074908FM-15+0007KWWD V0203105N004152200059N0160935N5+00445-00675101295ADDGA1025+015245999GD11991+0152459GE19AGL   +99999+99999GF102995999999015241999999MA1101295101205OC100775REMMET09901/09/21 14:56:02 METAR KWWD 091956Z 31008G15KT 10SM FEW050 04/M07 A2991 RMK AO2 SLP129 T00441067 $EQDD01      0ADE726
0222745966037262021010920567+39008-074908FM-15+0007KWWD V0203305N00265015245MN0160935N5+00445-00565101335ADDGA1085+015245999GD14991+0152459GE19MSL   +99999+99999GF199999999999015241999999MA1101325101245MD1390079+9999REMMET10201/09/21 15:56:02 METAR KWWD 092056Z 33005KT 10SM OVC050 04/M06 A2992 RMK AO2 SLP133 T00441056 53007 $
0240745966037262021010921567+39008-074908FM-15+0007KWWD V0203405N00265028965MN0160935N5+00395-00565101385ADDGA1045+015245999GA2075+028965999GD12991+0152459GD23991+0289659GE19MSL   +99999+99999GF199999999999015241999999MA1101355101275REMMET10301/09/21 16:56:02 METAR KWWD 092156Z 34005KT 10SM SCT050 BKN095 04/M06 A2993 RMK AO2 SLP138 T00391056 $
0202745966037262021010922567+39008-074908FM-15+0007KWWD V0203305N00155015245MN0160935N5+00445-00615101445ADDGA1085+015245999GD14991+0152459GE19MSL   +99999+99999GF199999999999015241999999MA1101425101345REMMET09601/09/21 17:56:02 METAR KWWD 092256Z 33003KT 10SM OVC050 04/M06 A2995 RMK AO2 SLP144 T00441061 $
0260745966037262021010923567+39008-074908FM-15+0007KWWD V0203105N00265015245MN0160935N5+00505-00565101475ADDGA1085+015245999GD14991+0152459GE19MSL   +99999+99999GF199999999999015241999999KA1060M+00501KA2060N+00281MA1101465101375MD1190159+9999REMMET11401/09/21 18:56:02 METAR KWWD 092356Z 31005KT 10SM OVC050 05/M06 A2996 RMK AO2 SLP147 T00501056 10050 20028 51015 $
0221745966037262021011000567+39008-074908FM-15+0007KWWD V0209999V002652200059N0160935N5+00395-00505101555ADDGA1045+015245999GD12991+0152459GE19AGL   +99999+99999GF104995999999015241999999MA1101525101445REMMET09601/09/21 19:56:01 METAR KWWD 100056Z VRB05KT 10SM SCT050 04/M05 A2998 RMK AO2 SLP155 T00391050 $EQDD01      0ADE726
0202745966037262021011001567+39008-074908FM-15+0007KWWD V0203305N00315018295MN0160935N5+00445-00505101585ADDGA1085+018295999GD14991+0182959GE19MSL   +99999+99999GF199999999999018291999999MA1101565101475REMMET09601/09/21 20:56:01 METAR KWWD 100156Z 33006KT 10SM OVC060 04/M05 A2999 RMK AO2 SLP158 T00441050 $
0241745966037262021011002567+39008-074908FM-15+0007KWWD V0209999V003152200059N0160935N5+00395-00395101635ADDGA1045+021345999GD12991+0213459GE19AGL   +99999+99999GF104995999999021341999999MA1101595101515MD1190159+9999REMMET10201/09/21 21:56:01 METAR KWWD 100256Z VRB06KT 10SM SCT070 04/M04 A3000 RMK AO2 SLP163 T00391039 51015 $EQDD01      0ADE726
0177745966037262021011003567+39008-074908FM-15+0007KWWD V0203205N003152200059N0160935N5+00395-00225101675ADDGA1005+999999999GD10991+9999999GF100991999999999999999999MA1101665101585REMMET09301/09/21 22:56:01 METAR KWWD 100356Z 32006KT 10SM CLR 04/M02 A3002 RMK AO2 SLP167 T00391022 $
0224745966037262021011004567+39008-074908FM-15+0007KWWD V0203105V003652200059N0160935N5+00335-00285101705ADDGA1005+999999999GD10991+9999999GF100991999999999999999999KA1240M+00501KA2240N-00171MA1101695101615OC100775REMMET10601/09/21 23:56:02 METAR KWWD 100456Z 31007G15KT 10SM CLR 03/M03 A3003 RMK AO2 SLP170 T00331028 400501017 $
0279745966037262021011005567+39008-074908FM-15+0007KWWD V0203405N003152200059N0160935N5+00285-00285101765ADDGA1045+021345999GD12991+0213459GE19AGL   +99999+99999GF104995999999021341999999KA1060M+00501KA2060N+00281MA1101765101685MD1390149+9999REMMET11401/10/21 00:56:02 METAR KWWD 100556Z 34006KT 10SM SCT070 03/M03 A3005 RMK AO2 SLP176 T00281028 10050 20028 53014 $EQDD01      0ADE726
0177745966037262021011006567+39008-074908FM-15+0007KWWD V0209999V003152200059N0160935N5+00285-00505101885ADDGA1005+999999999GD10991+9999999GF100991999999999999999999MA1101865101785REMMET09301/10/21 01:56:02 METAR KWWD 100656Z VRB06KT 10SM CLR 03/M05 A3008 RMK AO2 SLP188 T00281050 $
0184745966037262021011007567+39008-074908FM-15+0007KWWD V0203405N004152200059N0160935N5+00225-00675101955ADDGA1005+999999999GD10991+9999999GF100991999999999999999999MA1101935101855REMMET10001/10/21 02:56:02 METAR KWWD 100756Z 34008KT 10SM CLR 02/M07 A3010 RMK AO2 SLP195 T00221067 FZRANO $
