0266745966037262025010100294+39009-074908FM-16+000799999V0201401N006710121919N016093199+01201+01001999999ADDAA101000021AW1121AW2611GD11991+0088419GD23991+0121919GD34991+0304819GE19AGL   +99999+99999GF199999999999008841999999MA1100171999999OC100981REMMET115SPECI KWWD 010029Z AUTO 14013G19KT 10SM VCTS -RA FEW029 BKN040 OVC100 12/10 A2958 RMK AO2 LTG DSNT E-S TSB23 P0000=
0269745966037262025010100564+39009-074908FM-15+000799999V0201601N005710100619N016093199+01221+01111100161ADDAA101000231AW1121GD12991+0079219GD23991+0100619GD33991+0121919GE19AGL   +99999+99999GF199999999999007921999999MA1100141999999REMMET132METAR KWWD 010056Z AUTO 16011KT 10SM VCTS SCT026 BKN033 BKN040 12/11 A2957 RMK AO2 LTG DSNT ALQDS TSB23RAE51 SLP016 P0001 T01220111=
0224745966037262025010101034+39009-074908FM-16+000799999V0201601N005110073219N016093199+01201+01101999999ADDAW1121GD13991+0073219GD23991+0088419GD34991+0115819GE19AGL   +99999+99999GF199999999999007321999999MA1100141999999REMMET098SPECI KWWD 010103Z AUTO 16010KT 10SM VCTS BKN024 BKN029 OVC038 12/11 A2957 RMK AO2 LTG DSNT ALQDS=
0286745966037262025010101184+39009-074908FM-16+000799999V0202301V014910070119N016093199+01301+01201999999ADDAW1181GD11991+0030519GD23991+0070119GD34991+0182919GE19AGL   +99999+99999GF199999999999003051999999MA1100271999999OC102161OD149902161220REMMET138SPECI KWWD 010118Z AUTO 23029G42KT 200V280 10SM SQ FEW010 BKN023 OVC060 13/12 A2961 RMK AO2 PK WND 22042/0117 LTG DSNT ALQDS TSE16 PRESRR=
0313745966037262025010101274+39009-074908FM-16+000799999V0202601N008810125019N012875199+01101+00901999999ADDAA101000231AW1621GD11991+0039619GD23991+0125019GD34991+0198119GE19AGL   +99999+99999GF199999999999003961999999MA1100341999999OC101751OD149902161220REMMET154SPECI KWWD 010127Z AUTO 26017G34KT 8SM RA FEW013 BKN041 OVC065 11/09 A2963 RMK AO2 PK WND 22042/0117 WSHFT 0113 LTG DSNT NE AND E AND SW TSE16RAB19 P0001=
0315745966037262025010101564+39009-074908FM-15+000799999V0202701N002610182919N016093199+00941+00831100221ADDAA101000531AW1611GD11991+0137219GD23991+0182919GD34991+0228619GE19AGL   +99999+99999GF199999999999013721999999MA1100201999999OD149902161220REMMET164METAR KWWD 010156Z AUTO 27005KT 10SM -RA FEW045 BKN060 OVC075 09/08 A2959 RMK AO2 PK WND 22042/0117 WSHFT 0113 LTG DSNT SW TSE16RAB19 PRESFR SLP022 P0002 T00940083=
0238745966037262025010102364+39009-074908FM-16+000799999V0202101N002610213419N016093199+00901+00801999999ADDAA101000231AW1121AW2611GD13991+0213419GD24991+0289619GE19AGL   +99999+99999GF199999999999021341999999MA1100101999999REMMET110SPECI KWWD 010236Z AUTO 21005KT 10SM VCTS -RA BKN070 OVC095 09/08 A2956 RMK AO2 LTG DSNT S AND SW TSB30 P0001=
0292745966037262025010102564+39009-074908FM-15+000799999V0201801N004610213419N016093199+01001+00891100141ADDAA101000531AA203001391AW1121AW2621GD14991+0213419GE19AGL   +99999+99999GF199999999999021341999999MA1100141999999MD1810061+9999OC100881REMMET127METAR KWWD 010256Z AUTO 18009G17KT 10SM VCTS RA OVC070 10/09 A2957 RMK AO2 LTG DSNT S TSB30 SLP014 P0002 60005 T01000089 58006=EQDQ01  00128PRCP03
0189745966037262025010103054+39009-074908FM-16+000799999V0202001N005110213419N016093199+01001+00901999999ADDAA101000021AW1611GD14991+0213419GE19AGL   +99999+99999GF199999999999021341999999MA1100171999999REMMET082SPECI KWWD 010305Z AUTO 20010KT 10SM -RA OVC070 10/09 A2958 RMK AO2 TSE0259 P0000=
0242745966037262025010103564+39009-074908FM-15+000799999V0201901N004112200059N016093199+01001+00831100011ADDAA101000531GD11991+0228619GD22991+0335319GE19AGL   +99999+99999GF104995999999022861999999MA1100001999999REMMET107METAR KWWD 010356Z AUTO 19008KT 10SM FEW075 SCT110 10/08 A2953 RMK AO2 TSE0259RAE50 SLP001 P0002 T01000083=EQDD01      0ADE726
0167745966037262025010104564+39009-074908FM-15+000799999V0202201N005112200019N016093199+01001+00891099971ADDGF100991999999999999999999KA1240M+01331KA2240N-00061MA1099971999999REMMET088METAR KWWD 010456Z AUTO 22010KT 10SM CLR 10/09 A2952 RMK AO2 SLP997 T01000089 401331006=
0309745966037262025010105567+39008-074908FM-15+0007KWWD V0202405N005752200059N0160935N5+00945+00895100035ADDAA106001891GA1045+028965999GD12991+0289659GE19AGL   +99999+99999GF104995999999028961999999KA1060M+01281KA2060N+00891MA1100005099925MD1590129+9999REMMET11701/01/25 00:56:02 METAR KWWD 010556Z 24011KT 10SM SCT095 09/09 A2953 RMK AO2 SLP003 60007 T00940089 10128 20089 55012EQDQ01  00178PRCP06D01      0ADE726
0218745966037262025010106567+39008-074908FM-15+0007KWWD V0202405N004652200059N0160935N5+00895+00785100105ADDGA1045+033535999GD12991+0335359GE19AGL   +99999+99999GF104995999999033531999999MA1100075099985REMMET09301/01/25 01:56:02 METAR KWWD 010656Z 24009KT 10SM SCT110 09/08 A2955 RMK AO2 SLP010 T00890078EQDD01      0ADE726
0174745966037262025010107567+39008-074908FM-15+0007KWWD V0202505N004152200059N0160935N5+00835+00725100145ADDGA1005+999999999GD10991+9999999GF100991999999999999999999MA1100105100025REMMET09001/01/25 02:56:02 METAR KWWD 010756Z 25008KT 10SM CLR 08/07 A2956 RMK AO2 SLP014 T00830072
0219745966037262025010108567+39008-074908FM-15+0007KWWD V0202605N00315018295MN0160935N5+00895+00725100135ADDGA1075+018295999GD13991+0182959GE19AGL   +99999+99999GF199999999999018291999999MA1100105100025MD1090109+9999REMMET09901/01/25 03:56:02 METAR KWWD 010856Z 26006KT 10SM BKN060 09/07 A2956 RMK AO2 SLP013 T00890072 50010
0237745966037262025010109567+39008-074908FM-15+0007KWWD V0202505N00315019815MN0160935N5+00835+00725100185ADDGA1075+019815999GA2085+024385999GD13991+0198159GD24991+0243859GE19AGL   +99999+99999GF199999999999019811999999MA1100175100095REMMET10001/01/25 04:56:02 METAR KWWD 010956Z 25006KT 10SM BKN065 OVC080 08/07 A2958 RMK AO2 SLP018 T00830072
0287745966037262025010110567+39008-074908FM-15+0007KWWD V0202505N00365018295MN0160935N5+00895+00725100215ADDAA101000021AU110020015AW1615GA1045+014945999GA2085+018295999GD12991+0149459GD24991+0182959GE19AGL   +99999+99999GF199999999999014941999999MA1100205100125MW1615REMMET11601/01/25 05:56:02 METAR KWWD 011056Z 25007KT 10SM -RA SCT049 OVC060 09/07 A2959 RMK AO2 RAB28 SLP021 P0000 T00890072
0349745966037262025010111567+39008-074908FM-15+0007KWWD V0202505N00415018295MN0160935N5+00895+00725100265ADDAA101000021AA206000021AA324001891GA1085+018295999GD14991+0182959GE19AGL   +99999+99999GF199999999999018291999999KA1060M+00941KA2060N+00831MA1100245100155MD1390129+9999REMMET13501/01/25 06:56:02 METAR KWWD 011156Z 25008KT 10SM OVC060 09/07 A2960 RMK AO2 RAE36 SLP026 P0000 60000 70007 T00890072 10094 20083 53012EQDQ01  00008PRCP06Q02  00178PRCP24
0275745966037262025010112567+39008-074908FM-15+0007KWWD V0202505N00365015245MN0160935N5+00835+00675100335ADDGA1075+015245999GA2075+021345999GA3085+030485999GD13991+0152459GD23991+0213459GD34991+0304859GE19AGL   +99999+99999GF199999999999015241999999MA1100305100225REMMET10701/01/25 07:56:02 METAR KWWD 011256Z 25007KT 10SM BKN050 BKN070 OVC100 08/07 A2962 RMK AO2 SLP033 T00830067
0248745966037262025010113567+39008-074908FM-15+0007KWWD V0202705N00675019815MN0160935N5+00945+00565100425ADDGA1075+019815999GA2075+025915999GD13991+0198159GD23991+0259159GE19AGL   +99999+99999GF199999999999019811999999MA1100415100325OC100935REMMET10301/01/25 08:56:02 METAR KWWD 011356Z 27013G18KT 10SM BKN065 BKN085 09/06 A2965 RMK AO2 SLP042 T00940056
0238745966037262025010114567+39008-074908FM-15+0007KWWD V0202705N007252200059N0160935N5+00895+00335100525ADDGA1025+025915999GD11991+0259159GE19AGL   +99999+99999GF102995999999025911999999MA1100515100425MD1390269+9999REMMET09901/01/25 09:56:02 METAR KWWD 011456Z 27014KT 10SM FEW085 09/03 A2968 RMK AO2 SLP052 T00890033 53026EQDD01      0ADE726
0229745966037262025010115567+39008-074908FM-15+0007KWWD V0202805N008252200059N0160935N5+00945+00175100545ADDGA1025+012195999GD11991+0121959GE19AGL   +99999+99999GF102995999999012191999999MA1100515100425OC101295REMMET09601/01/25 10:56:02 METAR KWWD 011556Z 28016G25KT 10SM FEW040 09/02 A2968 RMK AO2 SLP054 T00940017EQDD01      0ADE726
0210745966037262025010116567+39008-074908FM-15+0007KWWD V0202805N00725014025MN0160935N5+01005+00225100525ADDGA1075+014025999GD13991+0140259GE19AGL   +99999+99999GF199999999999014021999999MA1100515100425OC101135REMMET09601/01/25 11:56:02 METAR KWWD 011656Z 28014G22KT 10SM BKN046 10/02 A2968 RMK AO2 SLP052 T01000022
0268745966037262025010117567+39008-074908FM-15+0007KWWD V0202905N00775014635MN0160935N5+00945+00225100535ADDGA1085+014635999GD14991+0146359GE19AGL   +99999+99999GF199999999999014631999999KA1060M+01001KA2060N+00831MA1100515100425MD1290019+9999OC101185REMMET11401/01/25 12:56:02 METAR KWWD 011756Z 29015G23KT 10SM OVC048 09/02 A2968 RMK AO2 SLP053 T00940022 10100 20083 52001
0203745966037262025010118567+39008-074908FM-15+0007KWWD V0202805N008852200059N0160935N5+00945+00115100605ADDGA1005+999999999GD10991+9999999GF100991999999999999999999MA1100585100495OC101185REMMET11101/01/25 13:56:02 METAR KWWD 011856Z 28017G23KT 10SM CLR 09/01 A2970 RMK AO2 PK WND 28026/1832 SLP060 T00940011
0210745966037262025010119567+39008-074908FM-15+0007KWWD V0202905N008852200059N0160935N5+00895+00065100765ADDGA1005+999999999GD10991+9999999GF100991999999999999999999MA1100755100665OC101295REMMET11801/01/25 14:56:02 METAR KWWD 011956Z 29017G25KT 10SM CLR 09/01 A2975 RMK AO2 PK WND 28028/1919 PRESRR SLP076 T00890006
0281745966037262025010120567+39008-074908FM-15+0007KWWD V0202805N008852200059N0160935N5+00835+00005100835ADDGA1045+016765999GD12991+0167659GE19AGL   +99999+99999GF104995999999016761999999MA1100815100735MD1390309+9999OC101395OD149901491280REMMET12001/01/25 15:56:02 METAR KWWD 012056Z 28017G27KT 10SM SCT055 08/00 A2977 RMK AO2 PK WND 28029/2038 SLP083 T00830000 53030EQDD01      0ADE726
0262745966037262025010121567+39008-074908FM-15+0007KWWD V0202905N008252200059N0160935N5+00725-00065100955ADDGA1025+015245999GD11991+0152459GE19AGL   +99999+99999GF102995999999015241999999MA1100915100835OC101345OD149901391300REMMET11501/01/25 16:56:02 METAR KWWD 012156Z 29016G26KT 10SM FEW050 07/M01 A2980 RMK AO2 PK WND 30027/2057 SLP095 T00721006EQDD01      0ADE726
0262745966037262025010122567+39008-074908FM-15+0007KWWD V0202805N009852200059N0160935N5+00675-00115101075ADDGA1025+016765999GD11991+0167659GE19AGL   +99999+99999GF102995999999016761999999MA1101055100975OC101245OD149901391280REMMET11501/01/25 17:56:02 METAR KWWD 012256Z 28019G24KT 10SM FEW055 07/M01 A2984 RMK AO2 PK WND 28027/2236 SLP107 T00671011EQDD01      0ADE726
0244745966037262025010123567+39008-074908FM-15+0007KWWD V0202805N008252200059N0160935N5+00615-00175101195ADDGA1005+999999999GD10991+9999999GF100991999999999999999999KA1060M+01001KA2060N+00611MA1101155101075MD1290359+9999OC101035REMMET11201/01/25 18:56:02 METAR KWWD 012356Z 28016G20KT 10SM CLR 06/M02 A2987 RMK AO2 SLP119 T00611017 10100 20061 52035
0186745966037262025010200567+39008-074908FM-15+0007KWWD V0202705N007252200059N0160935N5+00615-00175101245ADDGA1005+999999999GD10991+9999999GF100991999999999999999999MA1101225101145OC101085REMMET09401/01/25 19:56:01 METAR KWWD 020056Z 27014G21KT 10SM CLR 06/M02 A2989 RMK AO2 SLP124 T00611017
0186745966037262025010201567+39008-074908FM-15+0007KWWD V0202705N007252200059N0160935N5+00565-00225101285ADDGA1005+999999999GD10991+9999999GF100991999999999999999999MA1101255101175OC101035REMMET09401/01/25 20:56:01 METAR KWWD 020156Z 27014G20KT 10SM CLR 06/M02 A2990 RMK AO2 SLP128 T00561022
0195745966037262025010202567+39008-074908FM-15+0007KWWD V0202705N005152200059N0160935N5+00505-00175101325ADDGA1005+999999999GD10991+9999999GF100991999999999999999999MA1101295101205MD1190139+9999REMMET09701/01/25 21:56:01 METAR KWWD 020256Z 27010KT 10SM CLR 05/M02 A2991 RMK AO2 SLP132 T00501017 51013
0186745966037262025010203567+39008-074908FM-15+0007KWWD V0202705N006252200059N0160935N5+00505-00175101335ADDGA1005+999999999GD10991+9999999GF100991999999999999999999MA1101325101245OC100935REMMET09401/01/25 22:56:02 METAR KWWD 020356Z 27012G18KT 10SM CLR 05/M02 A2992 RMK AO2 SLP133 T00501017
0222745966037262025010204567+39008-074908FM-15+0007KWWD V0202705N008252200059N0160935N5+00505-00115101385ADDGA1005+999999999GD10991+9999999GF100991999999999999999999KA1240M+01001KA2240N+00501MA1101355101275OC101245REMMET10401/01/25 23:56:02 METAR KWWD 020456Z 27016G24KT 10SM CLR 05/M01 A2993 RMK AO2 SLP138 T00501011 401000050
001574596603726202501020459O+39008-074908SOD  +0007KWWD V020999999999999999999999999999+99999+99999999999ADDAT1AU16RA  5
0244745966037262025010205567+39008-074908FM-15+0007KWWD V0202705N006252200059N0160935N5+00445-00115101425ADDGA1005+999999999GD10991+9999999GF100991999999999999999999KA1060M+00611KA2060N+00441MA1101395101305MD1390109+9999OC100825REMMET11201/02/25 00:56:02 METAR KWWD 020556Z 27012G16KT 10SM CLR 04/M01 A2994 RMK AO2 SLP142 T00441011 10061 20044 53010
0200745966037262025010206567+39008-074908FM-15+0007KWWD V0202705N00675010975MN0160935N5+00445-00115101505ADDGA1075+010975999GD13991+0109759GE19AGL   +99999+99999GF199999999999010971999999MA1101495101415REMMET09401/02/25 01:56:02 METAR KWWD 020656Z 27013KT 10SM BKN036 04/M01 A2997 RMK AO2 SLP150 T00441011
0243745966037262025010207567+39008-074908FM-15+0007KWWD V0202705N00985018295MN0160935N5+00395-00505101595ADDGA1085+018295999GD14991+0182959GE19AGL   +99999+99999GF199999999999018291999999MA1101565101475OC101495OD149901491280REMMET11501/02/25 02:56:02 METAR KWWD 020756Z 27019G29KT 10SM OVC060 04/M05 A2999 RMK AO2 PK WND 28029/0753 SLP159 T00391050
0224745966037262025010208567+39008-074908FM-15+0007KWWD V0202805N007752200059N0160935N5+00285-00565101645ADDGA1005+999999999GD10991+9999999GF100991999999999999999999MA1101635101545MD1190229+9999OC101185REMMET11801/02/25 03:56:02 METAR KWWD 020856Z 28015G23KT 10SM CLR 03/M06 A3001 RMK AO2 PK WND 28027/0825 SLP164 T00281056 51022
0243745966037262025010209567+39008-074908FM-15+0007KWWD V0202805N00885016765MN0160935N5+00285-00675101695ADDGA1075+016765999GD13991+0167659GE19AGL   +99999+99999GF199999999999016761999999MA1101665101585OC101295OD149901391290REMMET11501/02/25 04:56:02 METAR KWWD 020956Z 28017G25KT 10SM BKN055 03/M07 A3002 RMK AO2 PK WND 29027/0923 SLP169 T00281067
0269745966037262025010210567+39008-074908FM-15+0007KWWD V0202805N007752200059N0160935N5+00225-00675101725ADDGA1025+015245999GD11991+0152459GE19AGL   +99999+99999GF102995999999015241999999MA1101695101615OC101085OD149901331270REMMET12201/02/25 05:56:02 METAR KWWD 021056Z 28015G21KT 10SM FEW050 02/M07 A3003 RMK AO2 PK WND 27026/1007 SLP172 T00221067 FZRANOEQDD01      0ADE726
0251745966037262025010211567+39008-074908FM-15+0007KWWD V0202805N007252200059N0160935N5+00225-00675101795ADDGA1005+999999999GD10991+9999999GF100991999999999999999999KA1060M+00501KA2060N+00221MA1101765101685MD1390169+9999OC101185REMMET11901/02/25 06:56:02 METAR KWWD 021156Z 28014G23KT 10SM CLR 02/M07 A3005 RMK AO2 SLP179 T00221067 10050 20022 53016 FZRANO
0193745966037262025010212567+39008-074908FM-15+0007KWWD V0202805N006752200059N0160935N5+00225-00615101865ADDGA1005+999999999GD10991+9999999GF100991999999999999999999MA1101835101745OC101135REMMET10101/02/25 07:56:02 METAR KWWD 021256Z 28013G22KT 10SM CLR 02/M06 A3007 RMK AO2 SLP186 T00221061 FZRANO
0186745966037262025010213567+39008-074908FM-15+0007KWWD V0202805N008852200059N0160935N5+00335-00615101935ADDGA1005+999999999GD10991+9999999GF100991999999999999999999MA1101905101815OC101245REMMET09401/02/25 08:56:02 METAR KWWD 021356Z 28017G24KT 10SM CLR 03/M06 A3009 RMK AO2 SLP193 T00331061
0224745966037262025010214567+39008-074908FM-15+0007KWWD V0202805N009352200059N0160935N5+00395-00615102035ADDGA1005+999999999GD10991+9999999GF100991999999999999999999MA1102005101915MD1390249+9999OC101245REMMET11801/02/25 09:56:02 METAR KWWD 021456Z 28018G24KT 10SM CLR 04/M06 A3012 RMK AO2 PK WND 28027/1437 SLP203 T00391061 53024
0262745966037262025010215567+39008-074908FM-15+0007KWWD V0202905N009352200059N0160935N5+00445-00615102045ADDGA1025+014025999GD11991+0140259GE19AGL   +99999+99999GF102995999999014021999999MA1102035101955OC101245OD149901331280REMMET11501/02/25 10:56:02 METAR KWWD 021556Z 29018G24KT 10SM FEW046 04/M06 A3013 RMK AO2 PK WND 28026/1518 SLP204 T00441061EQDD01      0ADE726
0204745966037262025010216567+39008-074908FM-15+0007KWWD V0202805N008252200059N0160935N5+00445-00675101895ADDGA1005+999999999GD10991+9999999GF100991999999999999999999MA1101865101785OC101245REMMET11201/02/25 11:56:02 METAR KWWD 021656Z 28016G24KT 10SM CLR 04/M07 A3008 RMK AO2 PK WND 28026/1646 SLP189 T00441067
0244745966037262025010217567+39008-074908FM-15+0007KWWD V0202805N007752200059N0160935N5+00445-00675101825ADDGA1005+999999999GD10991+9999999GF100991999999999999999999KA1060M+00501KA2060N+00221MA1101795101715MD1890229+9999OC101135REMMET11201/02/25 12:56:02 METAR KWWD 021756Z 28015G22KT 10SM CLR 04/M07 A3006 RMK AO2 SLP182 T00441067 10050 20022 58022
0204745966037262025010218567+39008-074908FM-15+0007KWWD V0202805N009352200059N0160935N5+00505-00675101775ADDGA1005+999999999GD10991+9999999GF100991999999999999999999MA1101765101685OC101245REMMET11201/02/25 13:56:02 METAR KWWD 021856Z 28018G24KT 10SM CLR 05/M07 A3005 RMK AO2 PK WND 27027/1822 SLP177 T00501067
0204745966037262025010219567+39008-074908FM-15+0007KWWD V0202905N008252200059N0160935N5+00445-00725101865ADDGA1005+999999999GD10991+9999999GF100991999999999999999999MA1101865101785OC101135REMMET11201/02/25 14:56:02 METAR KWWD 021956Z 29016G22KT 10SM CLR 04/M07 A3008 RMK AO2 PK WND 29027/1924 SLP186 T00441072
0282745966037262025010220567+39008-074908FM-15+0007KWWD V0202805N007752200059N0160935N5+00395-00615101885ADDGA1025+015245999GD11991+0152459GE19AGL   +99999+99999GF102995999999015241999999MA1101865101785MD1390069+9999OC101135OD149901391280REMMET12101/02/25 15:56:02 METAR KWWD 022056Z 28015G22KT 10SM FEW050 04/M06 A3008 RMK AO2 PK WND 28027/2009 SLP188 T00391061 53006EQDD01      0ADE726
0230745966037262025010221567+39008-074908FM-15+0007KWWD V0202805N007752200059N0160935N5+00335-00725101925ADDGA1025+015245999GD11991+0152459GE19AGL   +99999+99999GF102995999999015241999999MA1101905101815OC101185REMMET09701/02/25 16:56:02 METAR KWWD 022156Z 28015G23KT 10SM FEW050 03/M07 A3009 RMK AO2 SLP192 T00331072EQDD01      0ADE726
0204745966037262025010222567+39008-074908FM-15+0007KWWD V0202905N007252200059N0160935N5+00285-00725101995ADDGA1005+999999999GD10991+9999999GF100991999999999999999999MA1101965101885OC101185REMMET11201/02/25 17:56:02 METAR KWWD 022256Z 29014G23KT 10SM CLR 03/M07 A3011 RMK AO2 PK WND 28027/2224 SLP199 T00281072
0244745966037262025010223567+39008-074908FM-15+0007KWWD V0202905N006252200059N0160935N5+00285-00615102035ADDGA1005+999999999GD10991+9999999GF100991999999999999999999KA1060M+00501KA2060N+00281MA1102005101915MD1190159+9999OC101185REMMET11201/02/25 18:56:02 METAR KWWD 022356Z 29012G23KT 10SM CLR 03/M06 A3012 RMK AO2 SLP203 T00281061 10050 20028 51015
0193745966037262025010300567+39008-074908FM-15+0007KWWD V0202805N007252200059N0160935N5+00225-00615102025ADDGA1005+999999999GD10991+9999999GF100991999999999999999999MA1102005101915OC101085REMMET10101/02/25 19:56:01 METAR KWWD 030056Z 28014G21KT 10SM CLR 02/M06 A3012 RMK AO2 SLP202 T00221061 FZRANO
0186745966037262025010301567+39008-074908FM-15+0007KWWD V0202905N006752200059N0160935N5+00285-00565102005ADDGA1005+999999999GD10991+9999999GF100991999999999999999999MA1101965101885OC101035REMMET09401/02/25 20:56:01 METAR KWWD 030156Z 29013G20KT 10SM CLR 03/M06 A3011 RMK AO2 SLP200 T00281056
0231745966037262025010302567+39008-074908FM-15+0007KWWD V0202805N00575018295MN0160935N5+00285-00615101995ADDGA1085+018295999GD14991+0182959GE19AGL   +99999+99999GF199999999999018291999999MA1101965101885MD1790049+9999OC100985REMMET10301/02/25 21:56:01 METAR KWWD 030256Z 28011G19KT 10SM OVC060 03/M06 A3011 RMK AO2 SLP199 T00281061 57004
0211745966037262025010303567+39008-074908FM-15+0007KWWD V0202905N00575018295MN0160935N5+00285-00615102005ADDGA1085+018295999GD14991+0182959GE19AGL   +99999+99999GF199999999999018291999999MA1101965101885OC100935REMMET09701/02/25 22:56:02 METAR KWWD 030356Z 29011G18KT 10SM OVC060 03/M06 A3011 RMK AO2 SLP200 T00281061
0254745966037262025010304567+39008-074908FM-15+0007KWWD V0202805N00465018295MN0160935N5+00225-00615101965ADDGA1075+018295999GD13991+0182959GE19AGL   +99999+99999GF199999999999018291999999KA1240M+00501KA2240N+00221MA1101935101855OC101085REMMET11401/02/25 23:56:02 METAR KWWD 030456Z 28009G21KT 10SM BKN060 02/M06 A3010 RMK AO2 SLP196 T00221061 400500022 FZRANO
0251745966037262025010305567+39008-074908FM-15+0007KWWD V0202805N006252200059N0160935N5+00225-00615101945ADDGA1005+999999999GD10991+9999999GF100991999999999999999999KA1060M+00281KA2060N+00221MA1101935101855MD1890049+9999OC100935REMMET11901/03/25 00:56:02 METAR KWWD 030556Z 28012G18KT 10SM CLR 02/M06 A3010 RMK AO2 SLP194 T00221061 10028 20022 58004 FZRANO
0193745966037262025010306567+39008-074908FM-15+0007KWWD V0202805N005152200059N0160935N5+00225-00565101955ADDGA1005+999999999GD10991+9999999GF100991999999999999999999MA1101935101855OC100825REMMET10101/03/25 01:56:02 METAR KWWD 030656Z 28010G16KT 10SM CLR 02/M06 A3010 RMK AO2 SLP195 T00221056 FZRANO
0193745966037262025010307567+39008-074908FM-15+0007KWWD V0202905N006252200059N0160935N5+00175-00615101975ADDGA1005+999999999GD10991+9999999GF100991999999999999999999MA1101935101855OC100935REMMET10101/03/25 02:56:02 METAR KWWD 030756Z 29012G18KT 10SM CLR 02/M06 A3010 RMK AO2 SLP197 T00171061 FZRANO
0213745966037262025010308567+39008-074908FM-15+0007KWWD V0203005N005752200059N0160935N5+00115-00675101935ADDGA1005+999999999GD10991+9999999GF100991999999999999999999MA1101905101815MD1890019+9999OC100935REMMET10701/03/25 03:56:02 METAR KWWD 030856Z 30011G18KT 10SM CLR 01/M07 A3009 RMK AO2 SLP193 T00111067 58001 FZRANO
0193745966037262025010309567+39008-074908FM-15+0007KWWD V0203005N004652200059N0160935N5+00065-00835101955ADDGA1005+999999999GD10991+9999999GF100991999999999999999999MA1101935101855OC101035REMMET10101/03/25 04:56:02 METAR KWWD 030956Z 30009G20KT 10SM CLR 01/M08 A3010 RMK AO2 SLP195 T00061083 FZRANO
0193745966037262025010310567+39008-074908FM-15+0007KWWD V0203005N004152200059N0160935N5+00005-00835101955ADDGA1005+999999999GD10991+9999999GF100991999999999999999999MA1101935101855OC100775REMMET10101/03/25 05:56:02 METAR KWWD 031056Z 30008G15KT 10SM CLR 00/M08 A3010 RMK AO2 SLP195 T00001083 FZRANO
0240745966037262025010311567+39008-074908FM-15+0007KWWD V0203005N003152200059N0160935N5+00005-00725101925ADDGA1005+999999999GD10991+9999999GF100991999999999999999999KA1060M+00221KA2060N+00001MA1101905101815MD1890019+9999REMMET11601/03/25 06:56:02 METAR KWWD 031156Z 30006KT 10SM CLR 00/M07 A3009 RMK AO2 SLP192 T00001072 10022 20000 58001 FZRANO
0182745966037262025010312567+39008-074908FM-15+0007KWWD V0202805N005152200059N0160935N5+00005-00725101875ADDGA1005+999999999GD10991+9999999GF100991999999999999999999MA1101865101785REMMET09801/03/25 07:56:02 METAR KWWD 031256Z 28010KT 10SM CLR 00/M07 A3008 RMK AO2 SLP187 T00001072 FZRANO
0182745966037262025010313567+39008-074908FM-15+0007KWWD V0202705N006252200059N0160935N5+00065-00725101905ADDGA1005+999999999GD10991+9999999GF100991999999999999999999MA1101905101815REMMET09801/03/25 08:56:02 METAR KWWD 031356Z 27012KT 10SM CLR 01/M07 A3009 RMK AO2 SLP190 T00061072 FZRANO
0202745966037262025010314567+39008-074908FM-15+0007KWWD V0202605N005752200059N0160935N5+00175-00725101845ADDGA1005+999999999GD10991+9999999GF100991999999999999999999MA1101835101745MD1890089+9999REMMET10401/03/25 09:56:02 METAR KWWD 031456Z 26011KT 10SM CLR 02/M07 A3007 RMK AO2 SLP184 T00171072 58008 FZRANO
0207745966037262025010315567+39008-074908FM-15+0007KWWD V0202705N00415030485MN0160935N5+00225-00615101695ADDGA1075+030485999GD13991+0304859GE19AGL   +99999+99999GF199999999999030481999999MA1101665101585REMMET10101/03/25 10:56:02 METAR KWWD 031556Z 27008KT 10SM BKN100 02/M06 A3002 RMK AO2 SLP169 T00221061 FZRANO
0245745966037262025010316567+39008-074908FM-15+0007KWWD V0202405N00415019815MN0160935N5+00285-00565101455ADDGA1075+019815999GA2085+025915999GD13991+0198159GD24991+0259159GE19AGL   +99999+99999GF199999999999019811999999MA1101425101345REMMET10801/03/25 11:56:02 METAR KWWD 031656Z 24008KT 10SM BKN065 OVC085 03/M06 A2995 RMK AO2 PRESFR SLP145 T00281056
0258745966037262025010317567+39008-074908FM-15+0007KWWD V0202205N00365018295MN0160935N5+00335-00505101285ADDGA1085+018295999GD14991+0182959GE19AGL   +99999+99999GF199999999999018291999999KA1060M+00331KA2060N+00001MA1101255101175MD1890569+9999REMMET11201/03/25 12:56:02 METAR KWWD 031756Z 22007KT 10SM OVC060 03/M05 A2990 RMK AO2 SLP128 T00331050 10033 20000 58056
0200745966037262025010318567+39008-074908FM-15+0007KWWD V0202305N00215015245MN0160935N5+00395-00445101175ADDGA1085+015245999GD14991+0152459GE19AGL   +99999+99999GF199999999999015241999999MA1101155101075REMMET09401/03/25 13:56:02 METAR KWWD 031856Z 23004KT 10SM OVC050 04/M04 A2987 RMK AO2 SLP117 T00391044
0200745966037262025010319567+39008-074908FM-15+0007KWWD V0202005N00315016765MN0160935N5+00505-00395101085ADDGA1085+016765999GD14991+0167659GE19AGL   +99999+99999GF199999999999016761999999MA1101055100975REMMET09401/03/25 14:56:02 METAR KWWD 031956Z 20006KT 10SM OVC055 05/M04 A2984 RMK AO2 SLP108 T00501039
0258745966037262025010320567+39008-074908FM-15+0007KWWD V0202305N00575013725MN0160935N5+00505-00335101045ADDGA1075+013725999GA2085+016765999GD13991+0137259GD24991+0167659GE19AGL   +99999+99999GF199999999999013721999999MA1101025100935MD1690249+9999REMMET10701/03/25 15:56:02 METAR KWWD 032056Z 23011KT 10SM BKN045 OVC055 05/M03 A2983 RMK AO2 SLP104 T00501033 56024
0276745966037262025010321567+39008-074908FM-15+0007KWWD V0202605N00315011585MN0160935N5+00505-00225101035ADDGA1075+011585999GA2075+014335999GA3085+021345999GD13991+0115859GD23991+0143359GD34991+0213459GE19AGL   +99999+99999GF199999999999011581999999MA1101025100935REMMET10801/03/25 16:56:02 METAR KWWD 032156Z 26006KT 10SM BKN038 BKN047 OVC070 05/M02 A2983 RMK AO2 SLP103 T00501022
0326745966037262025010322567+39008-074908FM-15+0007KWWD V0202905N00515011895MN0160935N5+00335-00065101055ADDAA101000021AU110020015AW1615GA1045+007925999GA2075+011895999GA3085+016765999GD12991+0079259GD23991+0118959GD34991+0167659GE19AGL   +99999+99999GF199999999999007921999999MA1101055100975MW1615REMMET12401/03/25 17:56:02 METAR KWWD 032256Z 29010KT 10SM -RA SCT026 BKN039 OVC055 03/M01 A2984 RMK AO2 RAB26 SLP105 P0000 T00331006
0281745966037262025010323257+39008-074908FM-15+0007KWWD V0202705N00515003965MN0160935N5+00305+00105999999ADDAA101000021GA1075+003965999GA2075+012505999GA3085+027435999GD13991+0039659GD23991+0125059GD34991+0274359GE19AGL   +99999+99999GF199999999999003961999999MA1101055100975REMMET10201/03/25 18:25:02 METAR KWWD 032325Z 27010KT 10SM BKN013 BKN041 OVC090 03/01 A2984 RMK AO2 RAE20 P0000
0281745966037262025010323427+39008-074908FM-15+0007KWWD V0202805N00465007325MN0160935N5+00305+00105999999ADDAA101000021GA1045+003965999GA2075+007325999GA3085+010365999GD12991+0039659GD23991+0073259GD34991+0103659GE19AGL   +99999+99999GF199999999999003961999999MA1101055100975REMMET10201/03/25 18:42:02 METAR KWWD 032342Z 28009KT 10SM SCT013 BKN024 OVC034 03/01 A2984 RMK AO2 RAE20 P0000
0390745966037262025010323567+39008-074908FM-15+0007KWWD V0203105V00365004575MN0160935N5+00285+00065101075ADDAA101000021AA206000021GA1075+004575999GA2075+007925999GA3085+009755999GD13991+0045759GD23991+0079259GD34991+0097559GE19AGL   +99999+99999GF199999999999004571999999KA1060M+00561MA1101055100975MD1390039+9999OC100725REMMET14601/03/25 18:56:02 METAR KWWD 032356Z 31007G14KT 10SM BKN015 BKN026 OVC032 03/01 A2984 RMK AO2 RAE20 SLP107 P0000 60000 T00280006 10056 20028 53003EQDQ01  00008PRCP06
0326745966037262025010400217+39008-074908FM-15+0007KWWD V0203405N00515004575MN0160935N5+00205+00005999999ADDAA101000021AU110020015AW1615GA1045+002445999GA2075+004575999GA3085+005795999GD12991+0024459GD23991+0045759GD34991+0057959GE19AGL   +99999+99999GF199999999999002441999999MA1101085101005MW1615OC100725REMMET11601/03/25 19:21:01 METAR KWWD 040021Z 34010G14KT 10SM -RA SCT008 BKN015 OVC019 02/00 A2985 RMK AO2 RAB12 P0000 FZRANO
0303745966037262025010400347+39008-074908FM-15+0007KWWD V0203505N00465003965MN0160935N5+00205-00105999999ADDAA101000021GA1045+003055999GA2075+003965999GA3085+033535999GD12991+0030559GD23991+0039659GD34991+0335359GE19AGL   +99999+99999GF199999999999003051999999MA1101085101005OC100775REMMET11601/03/25 19:34:01 METAR KWWD 040034Z 35009G15KT 10SM SCT010 BKN013 OVC110 02/M01 A2985 RMK AO2 RAB12E32 P0000 FZRANO
0282745966037262025010400567+39008-074908FM-15+0007KWWD V0203205N00465003665MN0160935N5+00115-00065101145ADDAA101000021GA1075+003665999GA2085+033535999GD13991+0036659GD24991+0335359GE19AGL   +99999+99999GF199999999999003661999999MA1101125101035OC100725REMMET12601/03/25 19:56:01 METAR KWWD 040056Z 32009G14KT 10SM BKN012 OVC110 01/M01 A2986 RMK AO2 RAB12E32 SLP114 P0000 T00111006 FZRANO
0228745966037262025010401227+39008-074908FM-15+0007KWWD V0203105N00365028965MN0160935N5+00105-00205999999ADDGA1025+003665999GA2085+028965999GD11991+0036659GD24991+0289659GE19AGL   +99999+99999GF199999999999003661999999MA1101125101035REMMET09101/03/25 20:22:01 METAR KWWD 040122Z 31007KT 10SM FEW012 OVC095 01/M02 A2986 RMK AO2 FZRANO
0256745966037262025010401567+39008-074908FM-15+0007KWWD V0203205N00515028965MN0160935N5+00115-00285101125ADDGA1025+005795999GA2075+028965999GD11991+0057959GD23991+0289659GE19AGL   +99999+99999GF199999999999005791999999MA1101085101005OC100825REMMET11101/03/25 20:56:01 METAR KWWD 040156Z 32010G16KT 10SM FEW019 BKN095 01/M03 A2985 RMK AO2 SLP112 T00111028 FZRANO
0277745966037262025010402117+39008-074908FM-15+0007KWWD V0203005N00725008235MN0160935N5+00105-00205999999ADDGA1045+005795999GA2075+008235999GA3075+027435999GD12991+0057959GD23991+0082359GD33991+0274359GE19AGL   +99999+99999GF199999999999005791999999MA1101125101035OC100985REMMET10101/03/25 21:11:01 METAR KWWD 040211Z 30014G19KT 10SM SCT019 BKN027 BKN090 01/M02 A2986 RMK AO2 FZRANO
0303745966037262025010402527+39008-074908FM-15+0007KWWD V0203105N00725011895MN0160935N5+00105-00405999999ADDAA101000021GA1025+005795999GA2075+011895999GA3085+014945999GD11991+0057959GD23991+0118959GD34991+0149459GE19AGL   +99999+99999GF199999999999005791999999MA1101125101035OC101135REMMET11601/03/25 21:52:01 METAR KWWD 040252Z 31014G22KT 10SM FEW019 BKN039 OVC049 01/M04 A2986 RMK AO2 RAB33E45 P0000 FZRANO
0376745966037262025010402567+39008-074908FM-15+0007KWWD V0203105V00625009755MN0160935N5+00115-00445101145ADDAA101000021AA203000021GA1025+005185999GA2075+009755999GA3085+014945999GD11991+0051859GD23991+0097559GD34991+0149459GE19AGL   +99999+99999GF199999999999005181999999MA1101125101035MD1590009+9999OC101185REMMET14501/03/25 21:56:01 METAR KWWD 040256Z 31012G23KT 10SM FEW017 BKN032 OVC049 01/M04 A2986 RMK AO2 RAB33E45 SLP114 P0000 60000 T00111044 55000 FZRANOEQDQ01  00008PRCP03
0327745966037262025010403037+39008-074908FM-15+0007KWWD V0203005V00575008235MN0160935N5+00105-00305999999ADDAA101000021AU110020015AW1615GA1025+006715999GA2075+008235999GA3085+014945999GD11991+0067159GD23991+0082359GD34991+0149459GE19AGL   +99999+99999GF199999999999006711999999MA1101125101035MW1615OC101135REMMET11701/03/25 22:03:01 METAR KWWD 040303Z 30011G22KT 10SM -RA FEW022 BKN027 OVC049 01/M03 A2986 RMK AO2 RAB01 P0000 FZRANO
0342745966037262025010403567+39008-074908FM-15+0007KWWD V0203005N00675008235MN0160935N5+00115-00505101145ADDAA101000021GA1075+008235999GA2075+010365999GA3085+018295999GD13991+0082359GD23991+0103659GD34991+0182959GE19AGL   +99999+99999GF199999999999008231999999MA1101125101035OC101085REMMET15501/03/25 22:56:02 METAR KWWD 040356Z 30013G21KT 10SM BKN027 BKN034 OVC060 01/M05 A2986 RMK AO2 RAB01E04B22E23UPB19E22SNB04E19 SLP114 P0000 T00111050 FZRANO
0239745966037262025010404137+39008-074908FM-15+0007KWWD V0203105N00775009145MN0160935N5+00105-00505999999ADDGA1075+009145999GA2085+010675999GD13991+0091459GD24991+0106759GE19AGL   +99999+99999GF199999999999009141999999MA1101155101075OC101185REMMET09401/03/25 23:13:02 METAR KWWD 040413Z 31015G23KT 10SM BKN030 OVC035 01/M05 A2987 RMK AO2 FZRANO
0286745966037262025010404567+39008-074908FM-15+0007KWWD V0203005N00675011585MN0160935N5+00065-00615101175ADDGA1085+011585999GD14991+0115859GE19AGL   +99999+99999GF199999999999011581999999KA1240M+00561KA2240N+00001MA1101155101075OC101395OD149901441300REMMET13201/03/25 23:56:02 METAR KWWD 040456Z 30013G27KT 10SM OVC038 01/M06 A2987 RMK AO2 PK WND 30028/0427 SLP117 T00061061 400560000 FZRANO
001574596603726202501040459O+39008-074908SOD  +0007KWWD V020999999999999999999999999999+99999+99999999999ADDAT1AU16RA  5
0350745966037262025010405567+39008-074908FM-15+0007KWWD V0203105V00775011585MN0160935N5+00005-00725101185ADDAA106000021GA1075+011585999GA2085+027435999GD13991+0115859GD24991+0274359GE19AGL   +99999+99999GF199999999999011581999999KA1060M+00281KA2060N+00001MA1101155101075MD1290049+9999OC101135REMMET13501/04/25 00:56:02 METAR KWWD 040556Z 31015G22KT 10SM BKN038 OVC090 00/M07 A2987 RMK AO2 SLP118 60000 T00001072 10028 20000 52004 FZRANOEQDQ01  00008PRCP06
0250745966037262025010406567+39008-074908FM-15+0007KWWD V0203005N00625012195MN0160935N5+00005-00675101285ADDGA1085+012195999GD14991+0121959GE19AGL   +99999+99999GF199999999999012191999999MA1101255101175OC101395OD149901541310REMMET12201/04/25 01:56:02 METAR KWWD 040656Z 30012G27KT 10SM OVC040 00/M07 A2990 RMK AO2 PK WND 31030/0613 SLP128 T00001067 FZRANO
0219745966037262025010407567+39008-074908FM-15+0007KWWD V0203005N00825012805MN0160935N5-00065-00785101345ADDGA1075+012805999GD13991+0128059GE19AGL   +99999+99999GF199999999999012801999999MA1101325101245OC101295REMMET10501/04/25 02:56:02 METAR KWWD 040756Z 30016G25KT 10SM BKN042 M01/M08 A2992 RMK AO2 SLP134 T10061078 FZRANO
0277745966037262025010408567+39008-074908FM-15+0007KWWD V0202905N00825013415MN0160935N5-00115-00725101375ADDGA1075+013415999GA2085+018295999GD13991+0134159GD24991+0182959GE19AGL   +99999+99999GF199999999999013411999999MA1101355101275MD1190199+9999OC101135REMMET11801/04/25 03:56:02 METAR KWWD 040856Z 29016G22KT 10SM BKN044 OVC060 M01/M07 A2993 RMK AO2 SLP137 T10111072 51019 FZRANO
0295745966037262025010409567+39008-074908FM-15+0007KWWD V0203005N00775014335MN0160935N5-00115-00725101435ADDGA1045+011585999GA2075+014335999GA3075+018295999GD12991+0115859GD23991+0143359GD33991+0182959GE19AGL   +99999+99999GF199999999999011581999999MA1101425101345OC101245REMMET11901/04/25 04:56:02 METAR KWWD 040956Z 30015G24KT 10SM SCT038 BKN047 BKN060 M01/M07 A2995 RMK AO2 SLP143 T10111072 FZRANO
0308745966037262025010410567+39008-074908FM-15+0007KWWD V0202905N006752200059N0160935N5-00115-00725101515ADDGA1025+011895999GA2045+015245999GD11991+0118959GD22991+0152459GE19AGL   +99999+99999GF104995999999011891999999MA1101495101415OC101135OD149901391300REMMET13001/04/25 05:56:02 METAR KWWD 041056Z 29013G22KT 10SM FEW039 SCT050 M01/M07 A2997 RMK AO2 PK WND 30027/1013 SLP151 T10111072 FZRANOEQDD01      0ADE726
0328745966037262025010411567+39008-074908FM-15+0007KWWD V0202905N006752200059N0160935N5-00115-00785101575ADDGA1025+012805999GD11991+0128059GE19AGL   +99999+99999GF102995999999012801999999KA1060M+00001KA2060N-00111MA1101565101475MD1390209+9999OC101035OD149901331300REMMET14101/04/25 06:56:02 METAR KWWD 041156Z 29013G20KT 10SM FEW042 M01/M08 A2999 RMK AO2 PK WND 30026/1125 SLP157 T10111078 10000 21011 53020 FZRANOEQDD01      0ADE726
0238745966037262025010412567+39008-074908FM-15+0007KWWD V0202905N008252200059N0160935N5-00115-00785101605ADDGA1025+011585999GD11991+0115859GE19AGL   +99999+99999GF102995999999011581999999MA1101595101515OC101185REMMET10501/04/25 07:56:02 METAR KWWD 041256Z 29016G23KT 10SM FEW038 M01/M08 A3000 RMK AO2 SLP160 T10111078 FZRANOEQDD01      0ADE726
0270745966037262025010413567+39008-074908FM-15+0007KWWD V0202805N008252200059N0160935N5-00065-00835101635ADDGA1025+012805999GD11991+0128059GE19AGL   +99999+99999GF102995999999012801999999MA1101635101545OC101395OD149901391270REMMET12301/04/25 08:56:02 METAR KWWD 041356Z 28016G27KT 10SM FEW042 M01/M08 A3001 RMK AO2 PK WND 27027/1348 SLP163 T10061083 FZRANOEQDD01      0ADE726
0270745966037262025010414567+39008-074908FM-15+0007KWWD V0202905N00825014025MN0160935N5+00005-00835101715ADDGA1085+014025999GD14991+0140259GE19AGL   +99999+99999GF199999999999014021999999MA1101695101615MD1390149+9999OC101295OD149901491300REMMET12801/04/25 09:56:02 METAR KWWD 041456Z 29016G25KT 10SM OVC046 00/M08 A3003 RMK AO2 PK WND 30029/1441 SLP171 T00001083 53014 FZRANO
0251745966037262025010415567+39008-074908FM-15+0007KWWD V0203005N00725014635MN0160935N5-00065-00945101675ADDGA1085+014635999GD14991+0146359GE19AGL   +99999+99999GF199999999999014631999999MA1101665101585OC101345OD149901331300REMMET12301/04/25 10:56:02 METAR KWWD 041556Z 30014G26KT 10SM OVC048 M01/M09 A3002 RMK AO2 PK WND 30026/1551 SLP167 T10061094 FZRANO
0218745966037262025010416567+39008-074908FM-15+0007KWWD V0203005N00575014025MN0160935N5+00005-00895101605ADDGA1085+014025999GD14991+0140259GE19AGL   +99999+99999GF199999999999014021999999MA1101595101515OC101295REMMET10401/04/25 11:56:02 METAR KWWD 041656Z 30011G25KT 10SM OVC046 00/M09 A3000 RMK AO2 SLP160 T00001089 FZRANO
0308745966037262025010417567+39008-074908FM-15+0007KWWD V0203105N00675015245MN0160935N5+00005-00945101585ADDGA1085+015245999GD14991+0152459GE19AGL   +99999+99999GF199999999999015241999999KA1060M+00001KA2060N-00111MA1101565101475MD1690139+9999OC101085OD149901441310REMMET14001/04/25 12:56:02 METAR KWWD 041756Z 31013G21KT 10SM OVC050 00/M09 A2999 RMK AO2 PK WND 31028/1704 SLP158 T00001094 10000 21011 56013 FZRANO
0251745966037262025010418567+39008-074908FM-15+0007KWWD V0202905N00885016765MN0160935N5-00065-01065101605ADDGA1085+016765999GD14991+0167659GE19AGL   +99999+99999GF199999999999016761999999MA1101595101515OC101245OD149901391300REMMET12301/04/25 13:56:02 METAR KWWD 041856Z 29017G24KT 10SM OVC055 M01/M11 A3000 RMK AO2 PK WND 30027/1759 SLP160 T10061106 FZRANO
0251745966037262025010419567+39008-074908FM-15+0007KWWD V0202905N00885016765MN0160935N5-00065-01065101645ADDGA1085+016765999GD14991+0167659GE19AGL   +99999+99999GF199999999999016761999999MA1101635101545OC101245OD149901331290REMMET12301/04/25 14:56:02 METAR KWWD 041956Z 29017G24KT 10SM OVC055 M01/M11 A3001 RMK AO2 PK WND 29026/1916 SLP164 T10061106 FZRANO
0271745966037262025010420567+39008-074908FM-15+0007KWWD V0203005N00725016765MN0160935N5-00065-01175101725ADDGA1085+016765999GD14991+0167659GE19AGL   +99999+99999GF199999999999016761999999MA1101695101615MD1390159+9999OC101085OD149901391290REMMET12901/04/25 15:56:02 METAR KWWD 042056Z 30014G21KT 10SM OVC055 M01/M12 A3003 RMK AO2 PK WND 29027/2024 SLP172 T10061117 53015 FZRANO
0251745966037262025010421567+39008-074908FM-15+0007KWWD V0202905N00825016765MN0160935N5-00115-01175101775ADDGA1085+016765999GD14991+0167659GE19AGL   +99999+99999GF199999999999016761999999MA1101765101685OC101245OD149901491280REMMET12301/04/25 16:56:02 METAR KWWD 042156Z 29016G24KT 10SM OVC055 M01/M12 A3005 RMK AO2 PK WND 28029/2126 SLP177 T10111117 FZRANO
0251745966037262025010422567+39008-074908FM-15+0007KWWD V0202905N00775016765MN0160935N5-00115-01175101865ADDGA1085+016765999GD14991+0167659GE19AGL   +99999+99999GF199999999999016761999999MA1101835101745OC101245OD149901331280REMMET12301/04/25 17:56:02 METAR KWWD 042256Z 29015G24KT 10SM OVC055 M01/M12 A3007 RMK AO2 PK WND 28026/2233 SLP186 T10111117 FZRANO
0309745966037262025010423567+39008-074908FM-15+0007KWWD V0202805N00885016765MN0160935N5-00115-01115101925ADDGA1085+016765999GD14991+0167659GE19AGL   +99999+99999GF199999999999016761999999KA1060M+00001KA2060N-00111MA1101905101815MD1390209+9999OC101345OD149901331280REMMET14101/04/25 18:56:02 METAR KWWD 042356Z 28017G26KT 10SM OVC055 M01/M11 A3009 RMK AO2 PK WND 28026/2356 SLP192 T10111111 10000 21011 53020 FZRANO
0238745966037262025010500567+39008-074908FM-15+0007KWWD V0203005N005152200059N0160935N5-00175-01115101935ADDGA1045+016765999GD12991+0167659GE19AGL   +99999+99999GF104995999999016761999999MA1101905101815OC101185REMMET10501/04/25 19:56:01 METAR KWWD 050056Z 30010G23KT 10SM SCT055 M02/M11 A3009 RMK AO2 SLP193 T10171111 FZRANOEQDD01      0ADE726
0238745966037262025010501567+39008-074908FM-15+0007KWWD V0202905N005152200059N0160935N5-00225-01065101955ADDGA1025+015245999GD11991+0152459GE19AGL   +99999+99999GF102995999999015241999999MA1101935101855OC100985REMMET10501/04/25 20:56:01 METAR KWWD 050156Z 29010G19KT 10SM FEW050 M02/M11 A3010 RMK AO2 SLP195 T10221106 FZRANOEQDD01      0ADE726
0271745966037262025010502567+39008-074908FM-15+0007KWWD V0202905N00725016765MN0160935N5-00225-01115101975ADDGA1085+016765999GD14991+0167659GE19AGL   +99999+99999GF199999999999016761999999MA1101965101885MD1290059+9999OC101245OD149901391280REMMET12901/04/25 21:56:01 METAR KWWD 050256Z 29014G24KT 10SM OVC055 M02/M11 A3011 RMK AO2 PK WND 28027/0229 SLP197 T10221111 52005 FZRANO
0251745966037262025010503567+39008-074908FM-15+0007KWWD V0202805N00675015245MN0160935N5-00225-01115102005ADDGA1085+015245999GD14991+0152459GE19AGL   +99999+99999GF199999999999015241999999MA1102005101915OC101085OD149901441290REMMET12301/04/25 22:56:02 METAR KWWD 050356Z 28013G21KT 10SM OVC050 M02/M11 A3012 RMK AO2 PK WND 29028/0305 SLP200 T10221111 FZRANO
0255745966037262025010504567+39008-074908FM-15+0007KWWD V0202905N00575014635MN0160935N5-00225-01115102035ADDGA1085+014635999GD14991+0146359GE19AGL   +99999+99999GF199999999999014631999999KA1240M+00061KA2240N-00221MA1102005101915OC100935REMMET11501/04/25 23:56:02 METAR KWWD 050456Z 29011G18KT 10SM OVC048 M02/M11 A3012 RMK AO2 SLP203 T10221111 400061022 FZRANO
0277745966037262025010505567+39008-074908FM-15+0007KWWD V0203105N00625014025MN0160935N5-00285-01175102015ADDGA1085+014025999GD14991+0140259GE19AGL   +99999+99999GF199999999999014021999999KA1060M-00111KA2060N-00281MA1102005101915MD1090059+9999OC101035REMMET12301/05/25 00:56:02 METAR KWWD 050556Z 31012G20KT 10SM OVC046 M03/M12 A3012 RMK AO2 SLP201 T10281117 11011 21028 50005 FZRANO
0219745966037262025010506567+39008-074908FM-15+0007KWWD V0203005N00625013415MN0160935N5-00285-01175102055ADDGA1085+013415999GD14991+0134159GE19AGL   +99999+99999GF199999999999013411999999MA1102035101955OC101245REMMET10501/05/25 01:56:02 METAR KWWD 050656Z 30012G24KT 10SM OVC044 M03/M12 A3013 RMK AO2 SLP205 T10281117 FZRANO
0194745966037262025010507567+39008-074908FM-15+0007KWWD V0203005N006252200059N0160935N5-00335-01115102095ADDGA1005+999999999GD10991+9999999GF100991999999999999999999MA1102075101985OC101085REMMET10201/05/25 02:56:02 METAR KWWD 050756Z 30012G21KT 10SM CLR M03/M11 A3014 RMK AO2 SLP209 T10331111 FZRANO
0214745966037262025010508567+39008-074908FM-15+0007KWWD V0202905N007252200059N0160935N5-00335-01065102105ADDGA1005+999999999GD10991+9999999GF100991999999999999999999MA1102075101985MD1190089+9999OC100985REMMET10801/05/25 03:56:02 METAR KWWD 050856Z 29014G19KT 10SM CLR M03/M11 A3014 RMK AO2 SLP210 T10331106 51008 FZRANO
0194745966037262025010509567+39008-074908FM-15+0007KWWD V0202805N006252200059N0160935N5-00335-01005102105ADDGA1005+999999999GD10991+9999999GF100991999999999999999999MA1102075101985OC101035REMMET10201/05/25 04:56:02 METAR KWWD 050956Z 28012G20KT 10SM CLR M03/M10 A3014 RMK AO2 SLP210 T10331100 FZRANO
0194745966037262025010510567+39008-074908FM-15+0007KWWD V0202805N005152200059N0160935N5-00395-01005102145ADDGA1005+999999999GD10991+9999999GF100991999999999999999999MA1102135102055OC101035REMMET10201/05/25 05:56:02 METAR KWWD 051056Z 28010G20KT 10SM CLR M04/M10 A3016 RMK AO2 SLP214 T10391100 FZRANO
0252745966037262025010511567+39008-074908FM-15+0007KWWD V0202705N006752200059N0160935N5-00395-01005102205ADDGA1005+999999999GD10991+9999999GF100991999999999999999999KA1060M-00281KA2060N-00391MA1102175102085MD1390109+9999OC101185REMMET12001/05/25 06:56:02 METAR KWWD 051156Z 27013G23KT 10SM CLR M04/M10 A3017 RMK AO2 SLP220 T10391100 11028 21039 53010 FZRANO
0194745966037262025010512567+39008-074908FM-15+0007KWWD V0202805N006252200059N0160935N5-00335-01005102235ADDGA1005+999999999GD10991+9999999GF100991999999999999999999MA1102205102125OC101035REMMET10201/05/25 07:56:02 METAR KWWD 051256Z 28012G20KT 10SM CLR M03/M10 A3018 RMK AO2 SLP223 T10331100 FZRANO
0194745966037262025010513567+39008-074908FM-15+0007KWWD V0202805N007752200059N0160935N5-00285-01005102245ADDGA1005+999999999GD10991+9999999GF100991999999999999999999MA1102205102125OC101085REMMET10201/05/25 08:56:02 METAR KWWD 051356Z 28015G21KT 10SM CLR M03/M10 A3018 RMK AO2 SLP224 T10281100 FZRANO
0214745966037262025010514567+39008-074908FM-15+0007KWWD V0202905N006252200059N0160935N5-00225-01005102275ADDGA1005+999999999GD10991+9999999GF100991999999999999999999MA1102275102185MD1390079+9999OC101035REMMET10801/05/25 09:56:02 METAR KWWD 051456Z 29012G20KT 10SM CLR M02/M10 A3020 RMK AO2 SLP227 T10221100 53007 FZRANO
0194745966037262025010515567+39008-074908FM-15+0007KWWD V0202905N008252200059N0160935N5-00175-01065102205ADDGA1005+999999999GD10991+9999999GF100991999999999999999999MA1102175102085OC101135REMMET10201/05/25 10:56:02 METAR KWWD 051556Z 29016G22KT 10SM CLR M02/M11 A3017 RMK AO2 SLP220 T10171106 FZRANO
0194745966037262025010516567+39008-074908FM-15+0007KWWD V0203005N007252200059N0160935N5-00065-01005102105ADDGA1005+999999999GD10991+9999999GF100991999999999999999999MA1102075101985OC101085REMMET10201/05/25 11:56:02 METAR KWWD 051656Z 30014G21KT 10SM CLR M01/M10 A3014 RMK AO2 SLP210 T10061100 FZRANO
0252745966037262025010517567+39008-074908FM-15+0007KWWD V0202905N007252200059N0160935N5-00115-01065102005ADDGA1005+999999999GD10991+9999999GF100991999999999999999999KA1060M-00061KA2060N-00391MA1102005101915MD1890279+9999OC101035REMMET12001/05/25 12:56:02 METAR KWWD 051756Z 29014G20KT 10SM CLR M01/M11 A3012 RMK AO2 SLP200 T10111106 11006 21039 58027 FZRANO
0194745966037262025010518567+39008-074908FM-15+0007KWWD V0202805N006252200059N0160935N5-00065-01005101945ADDGA1005+999999999GD10991+9999999GF100991999999999999999999MA1101935101855OC101035REMMET10201/05/25 13:56:02 METAR KWWD 051856Z 28012G20KT 10SM CLR M01/M10 A3010 RMK AO2 SLP194 T10061100 FZRANO
0194745966037262025010519567+39008-074908FM-15+0007KWWD V0202905N007252200059N0160935N5-00065-01065101955ADDGA1005+999999999GD10991+9999999GF100991999999999999999999MA1101935101855OC101035REMMET10201/05/25 14:56:02 METAR KWWD 051956Z 29014G20KT 10SM CLR M01/M11 A3010 RMK AO2 SLP195 T10061106 FZRANO
0214745966037262025010520567+39008-074908FM-15+0007KWWD V0203005N005752200059N0160935N5-00065-01065102025ADDGA1005+999999999GD10991+9999999GF100991999999999999999999MA1102005101915MD1390019+9999OC100885REMMET10801/05/25 15:56:02 METAR KWWD 052056Z 30011G17KT 10SM CLR M01/M11 A3012 RMK AO2 SLP202 T10061106 53001 FZRANO
0194745966037262025010521567+39008-074908FM-15+0007KWWD V0202905N007252200059N0160935N5-00115-01065102015ADDGA1005+999999999GD10991+9999999GF100991999999999999999999MA1102005101915OC101085REMMET10201/05/25 16:56:02 METAR KWWD 052156Z 29014G21KT 10SM CLR M01/M11 A3012 RMK AO2 SLP201 T10111106 FZRANO
0194745966037262025010522567+39008-074908FM-15+0007KWWD V0203005N006252200059N0160935N5-00115-01115102065ADDGA1005+999999999GD10991+9999999GF100991999999999999999999MA1102035101955OC100985REMMET10201/05/25 17:56:02 METAR KWWD 052256Z 30012G19KT 10SM CLR M01/M11 A3013 RMK AO2 SLP206 T10111111 FZRANO
0241745966037262025010523567+39008-074908FM-15+0007KWWD V0202905N004152200059N0160935N5-00115-01115102085ADDGA1005+999999999GD10991+9999999GF100991999999999999999999KA1060M+00001KA2060N-00111MA1102075101985MD1390069+9999REMMET11701/05/25 18:56:02 METAR KWWD 052356Z 29008KT 10SM CLR M01/M11 A3014 RMK AO2 SLP208 T10111111 10000 21011 53006 FZRANO
0183745966037262025010600567+39008-074908FM-15+0007KWWD V0203005N003652200059N0160935N5-00115-01115102105ADDGA1005+999999999GD10991+9999999GF100991999999999999999999MA1102105102015REMMET09901/05/25 19:56:01 METAR KWWD 060056Z 30007KT 10SM CLR M01/M11 A3015 RMK AO2 SLP210 T10111111 FZRANO
0183745966037262025010601567+39008-074908FM-15+0007KWWD V0203005N004152200059N0160935N5-00115-01065102085ADDGA1005+999999999GD10991+9999999GF100991999999999999999999MA1102075101985REMMET09901/05/25 20:56:01 METAR KWWD 060156Z 30008KT 10SM CLR M01/M11 A3014 RMK AO2 SLP208 T10111106 FZRANO
0258745966037262025010602567+39008-074908FM-15+0007KWWD V0202905N004652200059N0160935N5-00065-01065102095ADDGA1045+033535999GD12991+0335359GE19AGL   +99999+99999GF104995999999033531999999MA1102075101985MD1190009+9999OC100725REMMET11101/05/25 21:56:01 METAR KWWD 060256Z 29009G14KT 10SM SCT110 M01/M11 A3014 RMK AO2 SLP209 T10061106 51000 FZRANOEQDD01      0ADE726
0208745966037262025010603567+39008-074908FM-15+0007KWWD V0203105N00465033535MN0160935N5-00065-01005102095ADDGA1075+033535999GD13991+0335359GE19AGL   +99999+99999GF199999999999033531999999MA1102075101985REMMET10201/05/25 22:56:02 METAR KWWD 060356Z 31009KT 10SM BKN110 M01/M10 A3014 RMK AO2 SLP209 T10061100 FZRANO
0244745966037262025010604567+39008-074908FM-15+0007KWWD V0203105N00365030485MN0160935N5-00065-00945101995ADDGA1085+030485999GD14991+0304859GE19AGL   +99999+99999GF199999999999030481999999KA1240M+00001KA2240N-00391MA1101965101885REMMET11201/05/25 23:56:02 METAR KWWD 060456Z 31007KT 10SM OVC100 M01/M09 A3011 RMK AO2 SLP199 T10061094 400001039 FZRANO
0266745966037262025010605567+39008-074908FM-15+0007KWWD V0203305N00315025915MN0160935N5-00115-00835101925ADDGA1085+025915999GD14991+0259159GE19AGL   +99999+99999GF199999999999025911999999KA1060M-00061KA2060N-00111MA1101905101815MD1890179+9999REMMET12001/06/25 00:56:02 METAR KWWD 060556Z 33006KT 10SM OVC085 M01/M08 A3009 RMK AO2 SLP192 T10111083 11006 21011 58017 FZRANO
0246745966037262025010606567+39008-074908FM-15+0007KWWD V0203205N00265016765MN0160935N5-00115-00945101945ADDGA1025+013725999GA2085+016765999GD11991+0137259GD24991+0167659GE19AGL   +99999+99999GF199999999999013721999999MA1101935101855REMMET10901/06/25 01:56:02 METAR KWWD 060656Z 32005KT 10SM FEW045 OVC055 M01/M09 A3010 RMK AO2 SLP194 T10111094 FZRANO
0324745966037262025010607447+39008-074908FM-15+0007KWWD V0202705N00315007325MN0064375N5-00205-00605999999ADDAA101000021AU110030015AW1715GA1075+007325999GA2075+008535999GA3085+010675999GD13991+0073259GD23991+0085359GD34991+0106759GE19AGL   +99999+99999GF199999999999007321999999MA1101935101855MW1715REMMET12201/06/25 02:44:02 METAR KWWD 060744Z 27006KT 4SM -SN BKN024 BKN028 OVC035 M02/M06 A3010 RMK AO2 UPB18E20SNB20 P0000 FZRANO
0353745966037262025010607567+39008-074908FM-15+0007KWWD V0202705N00155005495MN0040235V5-00225-00505101935ADDAA101000021AU110030015AW1715GA1075+005495999GA2075+007015999GA3085+008535999GD13991+0054959GD23991+0070159GD34991+0085359GE19AGL   +99999+99999GF199999999999005491999999MA1101935101855MW1715REMMET15101/06/25 02:56:02 METAR KWWD 060756Z 27003KT 2 1/2SM -SN BKN018 BKN023 OVC028 M02/M05 A3010 RMK AO2 VIS 2V5 UPB18E20SNB20 SLP193 P0000 T10221050 FZRANO
0258745966037262025010608087+39008-074908FM-15+0007KWWD V0202705N00265005795MN0024145N5-00305-00405999999ADDAA101000021AU110030015AU200001015AW1105AW2715GA1085+005795999GD14991+0057959GE19AGL   +99999+99999GF199999999999005791999999MA1101905101815MW1715REMMET10101/06/25 03:08:02 METAR KWWD 060808Z 27005KT 1 1/2SM -SN BR OVC019 M03/M04 A3009 RMK AO2 P0000 FZRANO
0296745966037262025010608227+39008-074908FM-15+0007KWWD V0202405N00315004575MN0024145N5-00305-00405999999ADDAA101000021AU110030015AU200001015AW1105AW2715GA1025+002445999GA2085+004575999GD11991+0024459GD24991+0045759GE19AGL   +99999+99999GF199999999999002441999999MA1101865101785MW1715REMMET10801/06/25 03:22:02 METAR KWWD 060822Z 24006KT 1 1/2SM -SN BR FEW008 OVC015 M03/M04 A3008 RMK AO2 P0000 FZRANO
0292745966037262025010608457+39008-074908FM-15+0007KWWD V0202705N00265005185MN0032195N5-00305-00405999999ADDAA101000021AU110030015AU200001015AW1105AW2715GA1045+002445999GA2085+005185999GD12991+0024459GD24991+0051859GE19AGL   +99999+99999GF199999999999002441999999MA1101865101785MW1715REMMET10401/06/25 03:45:02 METAR KWWD 060845Z 27005KT 2SM -SN BR SCT008 OVC017 M03/M04 A3008 RMK AO2 P0000 FZRANO
0369745966037262025010608567+39008-074908FM-15+0007KWWD V0202905N00215005185MN0028165N5-00335-00445101875ADDAA101000021AA203000021AU110030015AU200001015AW1105AW2715GA1025+001835999GA2085+005185999GD11991+0018359GD24991+0051859GE19AGL   +99999+99999GF199999999999001831999999MA1101865101785MD1890059+9999MW1715REMMET13701/06/25 03:56:02 METAR KWWD 060856Z 29004KT 1 3/4SM -SN BR FEW006 OVC017 M03/M04 A3008 RMK AO2 SLP187 P0000 60000 T10331044 58005 FZRANOEQDQ01  00008PRCP03
0296745966037262025010609087+39008-074908FM-15+0007KWWD V0202805N00215003665MN0020125N5-00305-00405999999ADDAA101000021AU110030015AU200001015AW1105AW2715GA1075+003665999GA2085+005795999GD13991+0036659GD24991+0057959GE19AGL   +99999+99999GF199999999999003661999999MA1101835101745MW1715REMMET10801/06/25 04:08:02 METAR KWWD 060908Z 28004KT 1 1/4SM -SN BR BKN012 OVC019 M03/M04 A3007 RMK AO2 P0000 FZRANO
0304745966037262025010609177+39008-074908FM-15+0007KWWD V0202705N00155003055MN0016095N5-00305-00405999999ADDAA101000021AU110030015AU200001015AW1105AW2715GA1075+003055999GA2085+004575999GD13991+0030551GD24991+0045759GE19AGL   +99999+99999GF199999999999003051999999MA1101795101715MW1715REMMET11601/06/25 04:17:02 METAR KWWD 060917Z 27003KT 1SM -SN BR BKN010 OVC015 M03/M04 A3006 RMK AO2 CIG 007V013 P0000 FZRANO
0296745966037262025010609407+39008-074908FM-15+0007KWWD V0202905N00155003055MN0020125N5-00305-00405999999ADDAA101000021AU110030015AU200001015AW1105AW2715GA1025+001835999GA2085+003055999GD11991+0018359GD24991+0030559GE19AGL   +99999+99999GF199999999999001831999999MA1101795101715MW1715REMMET10801/06/25 04:40:02 METAR KWWD 060940Z 29003KT 1 1/4SM -SN BR FEW006 OVC010 M03/M04 A3006 RMK AO2 P0000 FZRANO
0313745966037262025010609567+39008-074908FM-15+0007KWWD V0209999C00005003055MN0020125N5-00335-00445101775ADDAA101000021AU110030015AU200001015AW1105AW2715GA1025+001835999GA2085+003055999GD11991+0018359GD24991+0030559GE19AGL   +99999+99999GF199999999999001831999999MA1101765101685MW1715REMMET12501/06/25 04:56:02 METAR KWWD 060956Z 00000KT 1 1/4SM -SN BR FEW006 OVC010 M03/M04 A3005 RMK AO2 SLP177 P0000 T10331044 FZRANO
0304745966037262025010610297+39008-074908FM-15+0007KWWD V0209999C00005002745MN0016095N5-00305-00405999999ADDAA101000021AU110030015AU200001015AW1105AW2715GA1075+002745999GA2085+003665999GD13991+0027451GD24991+0036659GE19AGL   +99999+99999GF199999999999002741999999MA1101695101615MW1715REMMET11601/06/25 05:29:02 METAR KWWD 061029Z 00000KT 1SM -SN BR BKN009 OVC012 M03/M04 A3003 RMK AO2 CIG 006V011 P0000 FZRANO
0296745966037262025010610527+39008-074908FM-15+0007KWWD V0209999C00005004275MN0020125N5-00305-00405999999ADDAA101000021AU110030015AU200001015AW1105AW2715GA1045+002745999GA2085+004275999GD12991+0027459GD24991+0042759GE19AGL   +99999+99999GF199999999999002741999999MA1101665101585MW1715REMMET10801/06/25 05:52:02 METAR KWWD 061052Z 00000KT 1 1/4SM -SN BR SCT009 OVC014 M03/M04 A3002 RMK AO2 P0000 FZRANO
0313745966037262025010610567+39008-074908FM-15+0007KWWD V0209999C00005004275MN0020125N5-00285-00445101665ADDAA101000021AU110030015AU200001015AW1105AW2715GA1045+003055999GA2085+004275999GD12991+0030559GD24991+0042759GE19AGL   +99999+99999GF199999999999003051999999MA1101635101545MW1715REMMET12501/06/25 05:56:02 METAR KWWD 061056Z 00000KT 1 1/4SM -SN BR SCT010 OVC014 M03/M04 A3001 RMK AO2 SLP166 P0000 T10281044 FZRANO
0258745966037262025010611057+39008-074908FM-15+0007KWWD V0209999C00005004885MN0024145N5-00305-00405999999ADDAA101000021AU110030015AU200001015AW1105AW2715GA1085+004885999GD14991+0048859GE19AGL   +99999+99999GF199999999999004881999999MA1101635101545MW1715REMMET10101/06/25 06:05:02 METAR KWWD 061105Z 00000KT 1 1/2SM -SN BR OVC016 M03/M04 A3001 RMK AO2 P0000 FZRANO
0292745966037262025010611307+39008-074908FM-15+0007KWWD V0200305N00155003665MN0016095N5-00305-00405999999ADDAA101000595AU110030015AU200001015AW1105AW2715GA1075+003665999GA2085+004885999GD13991+0036659GD24991+0048859GE19AGL   +99999+99999GF199999999999003661999999MA1101595101515MW1715REMMET10401/06/25 06:30:02 METAR KWWD 061130Z 03003KT 1SM -SN BR BKN012 OVC016 M03/M04 A3000 RMK AO2 P0002 FZRANO
0397745966037262025010611567+39008-074908FM-15+0007KWWD V0200705N00155003055MN0016095N5-00335-00445101565ADDAA101001095AA206001091AA324001091AU110030015AU200001015AW1105AW2715GA1085+003055999GD14991+0030551GE19AGL   +99999+99999GF199999999999003051999999KA1060M-00111MA1101565101475MD1690309+9999MW1715REMMET15601/06/25 06:56:02 METAR KWWD 061156Z 07003KT 1SM -SN BR OVC010 M03/M04 A2999 RMK AO2 CIG 010V013 SLP156 P0004 60004 70004 T10331044 11011 21033 56030 FZRANOEQDQ01  00108PRCP06Q02  00108PRCP24
0258745966037262025010612107+39008-074908FM-15+0007KWWD V0200805N00155003965MN0020125N5-00305-00405999999ADDAA101000021AU110030015AU200001015AW1105AW2715GA1085+003965999GD14991+0039659GE19AGL   +99999+99999GF199999999999003961999999MA1101565101475MW1715REMMET10101/06/25 07:10:02 METAR KWWD 061210Z 08003KT 1 1/4SM -SN BR OVC013 M03/M04 A2999 RMK AO2 P0000 FZRANO
0256745966037262025010612197+39008-074908FM-15+0007KWWD V0200505N00215003965MN0012075N5-00305-00405999999ADDAA101000021AU110030015AU200001015AW1105AW2715GA1085+003965999GD14991+0039659GE19AGL   +99999+99999GF199999999999003961999999MA1101565101475MW1715REMMET09901/06/25 07:19:02 METAR KWWD 061219Z 05004KT 3/4SM -SN BR OVC013 M03/M04 A2999 RMK AO2 P0000 FZRANO
0257745966037262025010612277+39008-074908FM-15+0007KWWD V0200605N00265003965MN0008055N5-00305-00405999999ADDAA101000021AU120030015AU208002015AW1355AW2725GA1085+003965999GD14991+0039659GE19AGL   +99999+99999GF199999999999003961999999MA1101495101415MW1735REMMET10001/06/25 07:27:02 METAR KWWD 061227Z 06005KT 1/2SM SN FZFG OVC013 M03/M04 A2997 RMK AO2 P0000 FZRANO
0252745966037262025010612417+39008-074908FM-15+0007KWWD V0200605N00265003355MN0004025N5-00405-00405999999ADDAA101000021AU130030015AU208002015AW1355AW2735GA1085+003355999GD14991+0033559GE19AGL   +99999+99999GF199999999999003351999999MA1101465101375REMMET10101/06/25 07:41:02 METAR KWWD 061241Z 06005KT 1/4SM +SN FZFG OVC011 M04/M04 A2996 RMK AO2 P0000 FZRANO
0264745966037262025010612487+39008-074908FM-15+0007KWWD V0200405N00365002745MN0004025N5-00405-00405999999ADDAA101000021AU130030015AU208002015AW1355AW2735GA1085+002745999GD14991+0027451GE19AGL   +99999+99999GF199999999999002741999999MA1101425101345REMMET11301/06/25 07:48:02 METAR KWWD 061248Z 04007KT 1/4SM +SN FZFG OVC009 M04/M04 A2995 RMK AO2 CIG 008V012 P0000 FZRANO
0281745966037262025010612567+39008-074908FM-15+0007KWWD V0200405N00315002745MN0004025N5-00395-00505101435ADDAA101000021AU130030015AU208002015AW1355AW2735GA1085+002745999GD14991+0027451GE19AGL   +99999+99999GF199999999999002741999999MA1101425101345REMMET13001/06/25 07:56:02 METAR KWWD 061256Z 04006KT 1/4SM +SN FZFG OVC009 M04/M05 A2995 RMK AO2 CIG 007V010 SLP143 P0000 T10391050 FZRANO
0257745966037262025010613267+39008-074908FM-15+0007KWWD V0200505N00265003355MN0008055N5-00405-00405999999ADDAA101000021AU120030015AU208002015AW1355AW2725GA1085+003355999GD14991+0033559GE19AGL   +99999+99999GF199999999999003351999999MA1101395101305MW1735REMMET10001/06/25 08:26:02 METAR KWWD 061326Z 05005KT 1/2SM SN FZFG OVC011 M04/M04 A2994 RMK AO2 P0000 FZRANO
0252745966037262025010613537+39008-074908FM-15+0007KWWD V0200205N00215003965MN0004025N5-00405-00405999999ADDAA101000021AU130030015AU208002015AW1355AW2735GA1085+003965999GD14991+0039659GE19AGL   +99999+99999GF199999999999003961999999MA1101395101305REMMET10101/06/25 08:53:02 METAR KWWD 061353Z 02004KT 1/4SM +SN FZFG OVC013 M04/M04 A2994 RMK AO2 P0000 FZRANO
0312745966037262025010613567+39008-074908FM-15+0007KWWD V0200305N00215003055MN0004025N5-00395-00445101405ADDAA101000021AU120030015AU208002015AW1355AW2725GA1075+003055999GA2085+004575999GD13991+0030559GD24991+0045759GE19AGL   +99999+99999GF199999999999003051999999MA1101395101305MW1735REMMET12401/06/25 08:56:02 METAR KWWD 061356Z 03004KT 1/4SM SN FZFG BKN010 OVC015 M04/M04 A2994 RMK AO2 SLP140 P0000 T10391044 FZRANO
0302745966037262025010614177+39008-074908FM-15+0007KWWD V0200405N00265002445MN0004025N5-00405-00405999999ADDAA101000021AU130030015AU208002015AW1355AW2735GA1075+002445999GA2085+003965999GD13991+0024451GD24991+0039659GE19AGL   +99999+99999GF199999999999002441999999MA1101295101205REMMET12001/06/25 09:17:02 METAR KWWD 061417Z 04005KT 1/4SM +SN FZFG BKN008 OVC013 M04/M04 A2991 RMK AO2 CIG 007V011 P0000 FZRANO
0302745966037262025010614297+39008-074908FM-15+0007KWWD V0200405N00265003965MN0004025N5-00305-00405999999ADDAA101000021AU120030015AU208002015AW1355AW2725GA1045+002745999GA2085+003965999GD12991+0027459GD24991+0039659GE19AGL   +99999+99999GF199999999999002741999999MA1101255101175MW1735REMMET11401/06/25 09:29:02 METAR KWWD 061429Z 04005KT 1/4SM SN FZFG SCT009 OVC013 M03/M04 A2990 RMK AO2 PRESFR P0000 FZRANO
0264745966037262025010614407+39008-074908FM-15+0007KWWD V0200405N00315003965MN0008055N5-00305-00405999999ADDAA101000021AU120030015AU208002015AW1355AW2725GA1085+003965999GD14991+0039659GE19AGL   +99999+99999GF199999999999003961999999MA1101195101105MW1735REMMET10701/06/25 09:40:02 METAR KWWD 061440Z 04006KT 1/2SM SN FZFG OVC013 M03/M04 A2988 RMK AO2 PRESFR P0000 FZRANO
0252745966037262025010614497+39008-074908FM-15+0007KWWD V0200405N00315003965MN0004025N5-00305-00405999999ADDAA101000021AU130030015AU208002015AW1355AW2735GA1085+003965999GD14991+0039659GE19AGL   +99999+99999GF199999999999003961999999MA1101195101105REMMET10101/06/25 09:49:02 METAR KWWD 061449Z 04006KT 1/4SM +SN FZFG OVC013 M03/M04 A2988 RMK AO2 P0000 FZRANO
0330745966037262025010614567+39008-074908FM-15+0007KWWD V0200205N00315003355MN0004025N5-00335-00395101235ADDAA101000021AA203000021AU120030015AU208002015AW1355AW2725GA1085+003355999GD14991+0033559GE19AGL   +99999+99999GF199999999999003351999999MA1101225101145MD1890209+9999MW1735REMMET12901/06/25 09:56:02 METAR KWWD 061456Z 02006KT 1/4SM SN FZFG OVC011 M03/M04 A2989 RMK AO2 SLP123 P0000 60000 T10331039 58020 FZRANOEQDQ01  00008PRCP03
0257745966037262025010615037+39008-074908FM-15+0007KWWD V0200305N00315003355MN0008055N5-00305-00405999999ADDAA101000021AU120030015AU208002015AW1355AW2725GA1085+003355999GD14991+0033559GE19AGL   +99999+99999GF199999999999003351999999MA1101195101105MW1735REMMET10001/06/25 10:03:02 METAR KWWD 061503Z 03006KT 1/2SM SN FZFG OVC011 M03/M04 A2988 RMK AO2 P0000 FZRANO
0257745966037262025010615177+39008-074908FM-15+0007KWWD V0200305N00315003355MN0004025N5-00305-00405999999ADDAA101000021AU120030015AU208002015AW1355AW2725GA1085+003355999GD14991+0033559GE19AGL   +99999+99999GF199999999999003351999999MA1101155101075MW1735REMMET10001/06/25 10:17:02 METAR KWWD 061517Z 03006KT 1/4SM SN FZFG OVC011 M03/M04 A2987 RMK AO2 P0000 FZRANO
0257745966037262025010615367+39008-074908FM-15+0007KWWD V0200305N00265003965MN0008055N5-00305-00405999999ADDAA101000395AU120030015AU208002015AW1355AW2725GA1085+003965999GD14991+0039659GE19AGL   +99999+99999GF199999999999003961999999MA1101155101075MW1735REMMET10001/06/25 10:36:02 METAR KWWD 061536Z 03005KT 1/2SM SN FZFG OVC013 M03/M04 A2987 RMK AO2 P0001 FZRANO
0257745966037262025010615437+39008-074908FM-15+0007KWWD V0200405N00215003965MN0004025N5-00305-00305999999ADDAA101000395AU120030015AU208002015AW1355AW2725GA1085+003965999GD14991+0039659GE19AGL   +99999+99999GF199999999999003961999999MA1101125101035MW1735REMMET10001/06/25 10:43:02 METAR KWWD 061543Z 04004KT 1/4SM SN FZFG OVC013 M03/M03 A2986 RMK AO2 P0001 FZRANO
0269745966037262025010615567+39008-074908FM-15+0007KWWD V0200305N00265003355MN0004025N5-00285-00335101125ADDAA101000395AU130030015AU208002015AW1355AW2735GA1085+003355999GD14991+0033559GE19AGL   +99999+99999GF199999999999003351999999MA1101085101005REMMET11801/06/25 10:56:02 METAR KWWD 061556Z 03005KT 1/4SM +SN FZFG OVC011 M03/M03 A2985 RMK AO2 SLP112 P0001 T10281033 FZRANO
0257745966037262025010616267+39008-074908FM-15+0007KWWD V0200205N00265003355MN0008055N5-00305-00305999999ADDAA101000021AU120030015AU208002015AW1355AW2725GA1085+003355999GD14991+0033559GE19AGL   +99999+99999GF199999999999003351999999MA1100985100905MW1735REMMET10001/06/25 11:26:02 METAR KWWD 061626Z 02005KT 1/2SM SN FZFG OVC011 M03/M03 A2982 RMK AO2 P0000 FZRANO
0256745966037262025010616407+39008-074908FM-15+0007KWWD V0200205N00315003355MN0012075N5-00305-00305999999ADDAA101000021AU110030015AU200001015AW1105AW2715GA1085+003355999GD14991+0033559GE19AGL   +99999+99999GF199999999999003351999999MA1100985100905MW1715REMMET09901/06/25 11:40:02 METAR KWWD 061640Z 02006KT 3/4SM -SN BR OVC011 M03/M03 A2982 RMK AO2 P0000 FZRANO
0319745966037262025010616567+39008-074908FM-15+0007KWWD V0200105N00315003965MN0008055N5-00285-00335100925ADDAA101000021AU120030015AU208002015AW1355AW2725GA1045+002445999GA2085+003965999GD12991+0024459GD24991+0039659GE19AGL   +99999+99999GF199999999999002441999999MA1100915100835MW1735REMMET13101/06/25 11:56:02 METAR KWWD 061656Z 01006KT 1/2SM SN FZFG SCT008 OVC013 M03/M03 A2980 RMK AO2 PRESFR SLP092 P0000 T10281033 FZRANO
0269745966037262025010617127+39008-074908FM-15+0007KWWD V0200105N00315002445MN0008055N5-00305-00305999999ADDAA101000021AU120030015AU208002015AW1355AW2725GA1085+002445999GD14991+0024451GE19AGL   +99999+99999GF199999999999002441999999MA1100855100765MW1735REMMET11201/06/25 12:12:02 METAR KWWD 061712Z 01006KT 1/2SM SN FZFG OVC008 M03/M03 A2978 RMK AO2 CIG 007V012 P0000 FZRANO
0404745966037262025010617567+39008-074908FM-15+0007KWWD V0200105N00415002445MN0012075N5-00285-00335100735ADDAA101000021AA206000391AU110030015AU200001015AW1105AW2715GA1075+002445999GA2085+003355999GD13991+0024451GD24991+0033559GE19AGL   +99999+99999GF199999999999002441999999KA1060M-00281MA1100715100635MD1890509+9999MW1715REMMET15901/06/25 12:56:02 METAR KWWD 061756Z 01008KT 3/4SM -SN BR BKN008 OVC011 M03/M03 A2974 RMK AO2 CIG 006V010 SLP073 P0000 60001 T10281033 11028 21039 58050 FZRANOEQDQ01  00028PRCP06
0299745966037262025010618087+39008-074908FM-15+0007KWWD V0200105N00415003965MN0016095N5-00305-00305999999ADDAA101000021AU110030015AU200001015AW1105AW2715GA1025+002135999GA2085+003965999GD11991+0021359GD24991+0039659GE19AGL   +99999+99999GF199999999999002131999999MA1100645100565MW1715REMMET11101/06/25 13:08:02 METAR KWWD 061808Z 01008KT 1SM -SN BR FEW007 OVC013 M03/M03 A2972 RMK AO2 PRESFR P0000 FZRANO
0334745966037262025010618217+39008-074908FM-15+0007KWWD V0203605N00415005795MN0020125N5-00305-00305999999ADDAA101000395AU110030015AU200001015AW1105AW2715GA1025+001525999GA2075+005795999GA3085+010365999GD11991+0015259GD23991+0057959GD34991+0103659GE19AGL   +99999+99999GF199999999999001521999999MA1100645100565MW1715REMMET11501/06/25 13:21:02 METAR KWWD 061821Z 36008KT 1 1/4SM -SN BR FEW005 BKN019 OVC034 M03/M03 A2972 RMK AO2 P0001 FZRANO
0334745966037262025010618327+39008-074908FM-15+0007KWWD V0200205N00465010365MN0040235N5-00305-00305999999ADDAA101000395AU110030015AU200001015AW1105AW2715GA1025+001525999GA2045+005795999GA3085+010365999GD11991+0015259GD22991+0057959GD34991+0103659GE19AGL   +99999+99999GF199999999999001521999999MA1100585100495MW1715REMMET11501/06/25 13:32:02 METAR KWWD 061832Z 02009KT 2 1/2SM -SN BR FEW005 SCT019 OVC034 M03/M03 A2970 RMK AO2 P0001 FZRANO
0292745966037262025010618487+39008-074908FM-15+0007KWWD V0200105N00365010975MN0048285N5-00205-00305999999ADDAA101000395AU110030015AU200001015AW1105AW2715GA1025+002135999GA2085+010975999GD11991+0021359GD24991+0109759GE19AGL   +99999+99999GF199999999999002131999999MA1100585100495MW1715REMMET10401/06/25 13:48:02 METAR KWWD 061848Z 01007KT 3SM -SN BR FEW007 OVC036 M02/M03 A2970 RMK AO2 P0001 FZRANO
0309745966037262025010618567+39008-074908FM-15+0007KWWD V0200105N00315010365MN0032195N5-00225-00335100585ADDAA101000395AU110030015AU200001015AW1105AW2715GA1025+002135999GA2085+010365999GD11991+0021359GD24991+0103659GE19AGL   +99999+99999GF199999999999002131999999MA1100545100465MW1715REMMET12101/06/25 13:56:02 METAR KWWD 061856Z 01006KT 2SM -SN BR FEW007 OVC034 M02/M03 A2969 RMK AO2 SLP058 P0001 T10221033 FZRANO
0341745966037262025010619177+39008-074908FM-15+0007KWWD V0200105N00515008845MN0028165N5-00205-00305999999ADDAA101000021AU110030015AU200001015AW1105AW2715GA1025+002135999GA2075+008845999GA3085+010675999GD11991+0021359GD23991+0088459GD34991+0106759GE19AGL   +99999+99999GF199999999999002131999999MA1100445100365MW1715REMMET12201/06/25 14:17:02 METAR KWWD 061917Z 01010KT 1 3/4SM -SN BR FEW007 BKN029 OVC035 M02/M03 A2966 RMK AO2 PRESFR P0000 FZRANO
0330745966037262025010619487+39008-074908FM-15+0007KWWD V0200205N00365011285MN0032195N5-00205-00305999999ADDAA101000021AU110030015AU200001015AW1105AW2715GA1025+002135999GA2075+011285999GA3085+014635999GD11991+0021359GD23991+0112859GD34991+0146359GE19AGL   +99999+99999GF199999999999002131999999MA1100445100365MW1715REMMET11101/06/25 14:48:02 METAR KWWD 061948Z 02007KT 2SM -SN BR FEW007 BKN037 OVC048 M02/M03 A2966 RMK AO2 P0000 FZRANO
0347745966037262025010619567+39008-074908FM-15+0007KWWD V0200205N00365011285MN0064375N5-00225-00285100485ADDAA101000021AU110030015AU200001015AW1105AW2715GA1025+002135999GA2075+011285999GA3085+014635999GD11991+0021359GD23991+0112859GD34991+0146359GE19AGL   +99999+99999GF199999999999002131999999MA1100475100395MW1715REMMET12801/06/25 14:56:02 METAR KWWD 061956Z 02007KT 4SM -SN BR FEW007 BKN037 OVC048 M02/M03 A2967 RMK AO2 SLP048 P0000 T10221028 FZRANO
0271745966037262025010620437+39008-074908FM-15+0007KWWD V0200205N00415013415MN0032195N5-00205-00305999999ADDAA101000021AU110030015AU200001015AW1105AW2715GA1085+013415999GD14991+0134159GE19AGL   +99999+99999GF199999999999013411999999MA1100475100395MW1715REMMET11401/06/25 15:43:02 METAR KWWD 062043Z 02008KT 2SM -SN BR OVC044 M02/M03 A2967 RMK AO2 UPB27E37SNE27B37 P0000 FZRANO
0271745966037262025010620527+39008-074908FM-15+0007KWWD V0200105N00415012805MN0096565N5-00205-00305999999ADDAA101000021AU110030015AU200001015AW1105AW2715GA1085+012805999GD14991+0128059GE19AGL   +99999+99999GF199999999999012801999999MA1100445100365MW1715REMMET11401/06/25 15:52:02 METAR KWWD 062052Z 01008KT 6SM -SN BR OVC042 M02/M03 A2966 RMK AO2 UPB27E37SNE27B37 P0000 FZRANO
0324745966037262025010620567+39008-074908FM-15+0007KWWD V0200205N00365012805MN0112655N5-00225-00285100455ADDAA101000021AA203000391AU110030015AW1715GA1085+012805999GD14991+0128059GE19AGL   +99999+99999GF199999999999012801999999MA1100445100365MD1690139+9999MW1715REMMET14001/06/25 15:56:02 METAR KWWD 062056Z 02007KT 7SM -SN OVC042 M02/M03 A2966 RMK AO2 UPB27E37SNE27B37 SLP045 P0000 60001 T10221028 56013 FZRANOEQDQ01  00028PRCP03
0321745966037262025010621317+39008-074908FM-15+0007KWWD V0203605N00415013415MN0160935N5-00205-00305999999ADDAA101000021AU120090015AW1401AW2415GA1045+001835999GA2045+010365999GA3085+013415999GD12991+0018359GD22991+0103659GD34991+0134159GE19AGL   +99999+99999GF199999999999001831999999MA1100415100325REMMET11901/06/25 16:31:02 METAR KWWD 062131Z 36008KT 10SM UP SCT006 SCT034 OVC044 M02/M03 A2965 RMK AO2 UPB24SNE24 P0000 FZRANO
0314745966037262025010621567+39008-074908FM-15+0007KWWD V0203605N00515009145MN0144845N5-00225-00335100375ADDAA101000395GA1045+001835999GA2075+009145999GA3085+012195999GD12991+0018359GD23991+0091459GD34991+0121959GE19AGL   +99999+99999GF199999999999001831999999MA1100345100265REMMET13501/06/25 16:56:02 METAR KWWD 062156Z 36010KT 9SM SCT006 BKN030 OVC040 M02/M03 A2963 RMK AO2 UPB24E32SNE24 SLP037 P0001 T10221033 FZRANO
0263745966037262025010622567+39008-074908FM-15+0007KWWD V0203605N00465014025MN0160935N5-00225-00335100365ADDAA101000595GA1045+002445999GA2085+014025999GD12991+0024459GD24991+0140259GE19AGL   +99999+99999GF199999999999002441999999MA1100345100265REMMET11501/06/25 17:56:02 METAR KWWD 062256Z 36009KT 10SM SCT008 OVC046 M02/M03 A2963 RMK AO2 SLP036 P0002 T10221033 FZRANO
0241745966037262025010623067+39008-074908FM-15+0007KWWD V0203605N00415003055MN0160935N5-00205-00305999999ADDGA1075+003055999GA2085+014025999GD13991+0030551GD24991+0140259GE19AGL   +99999+99999GF199999999999003051999999MA1100345100265REMMET10401/06/25 18:06:02 METAR KWWD 062306Z 36008KT 10SM BKN010 OVC046 M02/M03 A2963 RMK AO2 CIG 007V012 FZRANO
0267745966037262025010623297+39008-074908FM-15+0007KWWD V0203605N00415005495MN0160935N5-00205-00305999999ADDGA1045+003055999GA2075+005495999GA3085+014025999GD12991+0030559GD23991+0054959GD34991+0140259GE19AGL   +99999+99999GF199999999999003051999999MA1100305100225REMMET09901/06/25 18:29:02 METAR KWWD 062329Z 36008KT 10SM SCT010 BKN018 OVC046 M02/M03 A2962 RMK AO2 FZRANO
0302745966037262025010623567+39008-074908FM-15+0007KWWD V0203505N00415005495MN0160935N5-00225-00395100325ADDAA106001091GA1085+005495999GD14991+0054959GE19AGL   +99999+99999GF199999999999005491999999KA1060M-00221KA2060N-00281MA1100305100225MD1690139+9999REMMET12601/06/25 18:56:02 METAR KWWD 062356Z 35008KT 10SM OVC018 M02/M04 A2962 RMK AO2 SLP032 60004 T10221039 11022 21028 56013 FZRANOEQDQ01  00108PRCP06
0278745966037262025010700417+39008-074908FM-15+0007KWWD V0203605N00415018295MN0128755N5-00205-00405999999ADDAA101000021AU110030015AW1715GA1045+006715999GA2085+018295999GD12991+0067159GD24991+0182959GE19AGL   +99999+99999GF199999999999006711999999MA1100275100195MW1715REMMET10701/06/25 19:41:01 METAR KWWD 070041Z 36008KT 8SM -SN SCT022 OVC060 M02/M04 A2961 RMK AO2 SNB34 P0000 FZRANO
0265745966037262025010700537+39008-074908FM-15+0007KWWD V0203505N00415007325MN0144845N5-00205-00305999999ADDAA101000021GA1075+007325999GA2085+018295999GD13991+0073259GD24991+0182959GE19AGL   +99999+99999GF199999999999007321999999MA1100305100225OC100775REMMET10901/06/25 19:53:01 METAR KWWD 070053Z 35008G15KT 9SM BKN024 OVC060 M02/M03 A2962 RMK AO2 SNB34E49 P0000 FZRANO
0272745966037262025010700567+39008-074908FM-15+0007KWWD V0203505N00465007325MN0160935N5-00225-00335100345ADDAA101000021GA1075+007325999GA2085+018295999GD13991+0073259GD24991+0182959GE19AGL   +99999+99999GF199999999999007321999999MA1100345100265REMMET12401/06/25 19:56:01 METAR KWWD 070056Z 35009KT 10SM BKN024 OVC060 M02/M03 A2963 RMK AO2 SNB34E49 SLP034 P0000 T10221033 FZRANO
0347745966037262025010701387+39008-074908FM-15+0007KWWD V0203405N00415011285MN0096565N5-00205-00305999999ADDAA101000021AU110030015AU200001015AW1105AW2715GA1025+005185999GA2075+011285999GA3085+014335999GD11991+0051859GD23991+0112859GD34991+0143359GE19AGL   +99999+99999GF199999999999005181999999MA1100415100325MW1715OC100725REMMET12001/06/25 20:38:01 METAR KWWD 070138Z 34008G14KT 6SM -SN BR FEW017 BKN037 OVC047 M02/M03 A2965 RMK AO2 SNB00 P0000 FZRANO
0364745966037262025010701567+39008-074908FM-15+0007KWWD V0203405N00465007015MN0048285N5-00175-00335100475ADDAA101000021AU110030015AU200001015AW1105AW2715GA1045+003665999GA2075+007015999GA3085+013415999GD12991+0036659GD23991+0070159GD34991+0134159GE19AGL   +99999+99999GF199999999999003661999999MA1100445100365MW1715OC100825REMMET13701/06/25 20:56:01 METAR KWWD 070156Z 34009G16KT 3SM -SN BR SCT012 BKN023 OVC044 M02/M03 A2966 RMK AO2 SNB00 SLP047 P0000 T10171033 FZRANO
0353745966037262025010702017+39008-074908FM-15+0007KWWD V0203405N00465003665MN0032195V5-00205-00305999999ADDAA101000395AU110030015AU200001015AW1105AW2715GA1075+003665999GA2075+007015999GA3085+013415999GD13991+0036659GD23991+0070159GD34991+0134159GE19AGL   +99999+99999GF199999999999003661999999MA1100445100365MW1715OC100825REMMET12601/06/25 21:01:01 METAR KWWD 070201Z 34009G16KT 2SM -SN BR BKN012 BKN023 OVC044 M02/M03 A2966 RMK AO2 VIS 1 1/2V3 P0001 FZRANO
0292745966037262025010702157+39008-074908FM-15+0007KWWD V0203405N00365003665MN0064375N5-00205-00305999999ADDAA101000395AU110030015AU200001015AW1105AW2715GA1075+003665999GA2085+008535999GD13991+0036659GD24991+0085359GE19AGL   +99999+99999GF199999999999003661999999MA1100515100425MW1715REMMET10401/06/25 21:15:01 METAR KWWD 070215Z 34007KT 4SM -SN BR BKN012 OVC028 M02/M03 A2968 RMK AO2 P0001 FZRANO
0281745966037262025010702497+39008-074908FM-15+0007KWWD V0203305N00465003055MN0028165N5-00205-00305999999ADDAA101000395AU110030015AU200001015AW1105AW2715GA1085+003055999GD14991+0030551GE19AGL   +99999+99999GF199999999999003051999999MA1100585100495MW1715OC100825REMMET11601/06/25 21:49:01 METAR KWWD 070249Z 33009G16KT 1 3/4SM -SN BR OVC010 M02/M03 A2970 RMK AO2 CIG 007V014 P0001 FZRANO
0343745966037262025010702567+39008-074908FM-15+0007KWWD V0203105N00415002445MN0020125N5-00175-00285100615ADDAA101000395AA203000391AU110030015AU200001015AW1105AW2715GA1085+002445999GD14991+0024451GE19AGL   +99999+99999GF199999999999002441999999MA1100615100535MD1390289+9999MW1715REMMET14201/06/25 21:56:01 METAR KWWD 070256Z 31008KT 1 1/4SM -SN BR OVC008 M02/M03 A2971 RMK AO2 CIG 005V010 SLP061 P0001 60001 T10171028 53028 FZRANOEQDQ01  00028PRCP03
0277745966037262025010703197+39008-074908FM-15+0007KWWD V0203105N00515001835MN0016095N5-00205-00305999999ADDAA101000021AU110030015AU200001015AW1105AW2715GA1085+001835999GD14991+0018351GE19AGL   +99999+99999GF199999999999001831999999MA1100645100565MW1715OC100825REMMET11201/06/25 22:19:02 METAR KWWD 070319Z 31010G16KT 1SM -SN BR OVC006 M02/M03 A2972 RMK AO2 CIG 004V008 P0000 FZRANO
0279745966037262025010703337+39008-074908FM-15+0007KWWD V0203205N00515001835MN0012075N5-00205-00305999999ADDAA101000021AU110030015AU200001015AW1105AW2715GA1085+001835999GD14991+0018351GE19AGL   +99999+99999GF199999999999001831999999MA1100685100595MW1715OC100885REMMET11401/06/25 22:33:02 METAR KWWD 070333Z 32010G17KT 3/4SM -SN BR OVC006 M02/M03 A2973 RMK AO2 CIG 004V008 P0000 FZRANO
0281745966037262025010703407+39008-074908FM-15+0007KWWD V0203205N00415001835MN0020125N5-00205-00305999999ADDAA101000021AU110030015AU200001015AW1105AW2715GA1085+001835999GD14991+0018351GE19AGL   +99999+99999GF199999999999001831999999MA1100685100595MW1715OC100885REMMET11601/06/25 22:40:02 METAR KWWD 070340Z 32008G17KT 1 1/4SM -SN BR OVC006 M02/M03 A2973 RMK AO2 CIG 004V007 P0000 FZRANO
0294745966037262025010703567+39008-074908FM-15+0007KWWD V0203305N00465001835MN0016095N5-00175-00285100715ADDAA101000021AU110030015AU200001015AW1105AW2715GA1085+001835999GD14991+0018351GE19AGL   +99999+99999GF199999999999001831999999MA1100685100595MW1715OC100775REMMET12901/06/25 22:56:02 METAR KWWD 070356Z 33009G15KT 1SM -SN BR OVC006 M02/M03 A2973 RMK AO2 CIG 004V009 SLP071 P0000 T10171028 FZRANO
0315745966037262025010704077+39008-074908FM-15+0007KWWD V0203405N00575001835MN0032195N5-00205-00305999999ADDAA101000021AU110030015AU200001015AW1105AW2715GA1075+001835999GA2085+003055999GD13991+0018351GD24991+0030559GE19AGL   +99999+99999GF199999999999001831999999MA1100685100595MW1715OC100935REMMET11901/06/25 23:07:02 METAR KWWD 070407Z 34011G18KT 2SM -SN BR BKN006 OVC010 M02/M03 A2973 RMK AO2 CIG 004V008 P0000 FZRANO
0353745966037262025010704157+39008-074908FM-15+0007KWWD V0209999V00315003055MN0080475N5-00205-00305999999ADDAA101000021AU110030015AU200001015AW1105AW2715GA1045+001835999GA2075+003055999GA3085+005795999GD12991+0018351GD23991+0030559GD34991+0057959GE19AGL   +99999+99999GF199999999999001831999999MA1100685100595MW1715OC100885REMMET12601/06/25 23:15:02 METAR KWWD 070415Z VRB06G17KT 5SM -SN BR SCT006 BKN010 OVC019 M02/M03 A2973 RMK AO2 CIG 008V012 P0000 FZRANO
0341745966037262025010704337+39008-074908FM-15+0007KWWD V0203305N00675005185MN0048285N5-00205-00305999999ADDAA101000021AU110030015AU200001015AW1105AW2715GA1045+003355999GA2075+005185999GA3085+012805999GD12991+0033559GD23991+0051859GD34991+0128059GE19AGL   +99999+99999GF199999999999003351999999MA1100715100635MW1715OC100985REMMET11401/06/25 23:33:02 METAR KWWD 070433Z 33013G19KT 3SM -SN BR SCT011 BKN017 OVC042 M02/M03 A2974 RMK AO2 P0000 FZRANO
0345745966037262025010704367+39008-074908FM-15+0007KWWD V0203305V00465003355MN0040235N5-00205-00305999999ADDAA101000021AU110030015AU200001015AW1105AW2715GA1075+003355999GA2075+005185999GA3085+012805999GD13991+0033559GD23991+0051859GD34991+0128059GE19AGL   +99999+99999GF199999999999003351999999MA1100715100635MW1715OC100985REMMET11801/06/25 23:36:02 METAR KWWD 070436Z 33009G19KT 2 1/2SM -SN BR BKN011 BKN017 OVC042 M02/M03 A2974 RMK AO2 P0000 FZRANO
0356745966037262025010704567+39008-074908FM-15+0007KWWD V0203205N00465003355MN0048285N5-00285-00395100775ADDAA101000021AU110030015AU200001015AW1105AW2715GA1075+003355999GA2085+005495999GD13991+0033559GD24991+0054959GE19AGL   +99999+99999GF199999999999003351999999KA1240M-00061KA2240N-00391MA1100755100665MW1715OC101035REMMET13401/06/25 23:56:02 METAR KWWD 070456Z 32009G20KT 3SM -SN BR BKN011 OVC018 M03/M04 A2975 RMK AO2 SLP077 P0000 T10281039 410061039 FZRANO
006374596603726202501070459O+39008-074908SOD  +0007KWWD V020999999999999999999999999999+99999+99999999999ADDAT1AU18SN  5AT2AU22FZFG5AT3AU13BR  5AT4AU19UP  5AT5AW01FG  5
0295745966037262025010705107+39008-074908FM-15+0007KWWD V0203305N00625005795MN0128755N5-00305-00505999999ADDAA101000021AU110030015AW1715GA1025+003355999GA2085+005795999GD11991+0033551GD24991+0057959GE19AGL   +99999+99999GF199999999999003351999999MA1100785100705MW1715OC100985REMMET11601/07/25 00:10:02 METAR KWWD 070510Z 33012G19KT 8SM -SN FEW011 OVC019 M03/M05 A2976 RMK AO2 CIG 013V024 P0000 FZRANO
0394745966037262025010705567+39008-074908FM-15+0007KWWD V0203405N00675005795MN0112655N5-00445-00725100835ADDAA101000021AA206000391AU110030015AW1715GA1075+005795999GA2085+016765999GD13991+0057959GD24991+0167659GE19AGL   +99999+99999GF199999999999005791999999KA1060M-00171KA2060N-00441MA1100815100735MD1190229+9999MW1715OC101035REMMET14501/07/25 00:56:02 METAR KWWD 070556Z 34013G20KT 7SM -SN BKN019 OVC055 M04/M07 A2977 RMK AO2 SLP083 P0000 60001 T10441072 11017 21044 51022 FZRANOEQDQ01  00028PRCP06
0300745966037262025010706567+39008-074908FM-15+0007KWWD V0203205N00675019815MN0128755N5-00505-00835100965ADDAA101000021AU110030015AW1715GA1025+007925999GA2075+019815999GD11991+0079259GD23991+0198159GE19AGL   +99999+99999GF199999999999007921999999MA1100955100865MW1715OC101185REMMET12101/07/25 01:56:02 METAR KWWD 070656Z 32013G23KT 8SM -SN FEW026 BKN065 M05/M08 A2981 RMK AO2 SLP096 P0000 T10501083 FZRANO
0294745966037262025010707567+39008-074908FM-15+0007KWWD V0203405N00675008535MN0096565N5-00615-01005101045ADDAA101000021AU110030015AW1715GA1075+008535999GD13991+0085359GE19AGL   +99999+99999GF199999999999008531999999MA1101025100935MW1715OC101135OD149901391320REMMET13201/07/25 02:56:02 METAR KWWD 070756Z 34013G22KT 6SM -SN BKN028 M06/M10 A2983 RMK AO2 PK WND 32027/0730 SLP104 P0000 T10611100 FZRANO
0296745966037262025010708257+39008-074908FM-15+0007KWWD V0203305N006752200059N0080475N5-00705-01105999999ADDAA101000021AU110030015AW1715GA1045+008535999GD12991+0085359GE19AGL   +99999+99999GF104995999999008531999999MA1101025100935MW1715OC101445OD149901441320REMMET11501/07/25 03:25:02 METAR KWWD 070825Z 33013G28KT 5SM -SN SCT028 M07/M11 A2983 RMK AO2 PK WND 32028/0819 P0000 FZRANOEQDD01      0ADE726
0350745966037262025010708567+39008-074908FM-15+0007KWWD V0203105N00825009145MN0096565N5-00675-01065101095ADDAA101000021AA203000021AU110030015AW1715GA1075+009145999GD13991+0091459GE19AGL   +99999+99999GF199999999999009141999999MA1101085101005MD1190269+9999MW1715OC101245OD149901441320REMMET14401/07/25 03:56:02 METAR KWWD 070856Z 31016G24KT 6SM -SN BKN030 M07/M11 A2985 RMK AO2 PK WND 32028/0819 SLP109 P0000 60000 T10671106 51026 FZRANOEQDQ01  00008PRCP03
0294745966037262025010709567+39008-074908FM-15+0007KWWD V0203105N00775008535MN0064375N5-00675-01065101185ADDAA101000021AU110030015AW1715GA1075+008535999GD13991+0085359GE19AGL   +99999+99999GF199999999999008531999999MA1101155101075MW1715OC101545OD149901541330REMMET13201/07/25 04:56:02 METAR KWWD 070956Z 31015G30KT 4SM -SN BKN028 M07/M11 A2987 RMK AO2 PK WND 33030/0947 SLP118 P0000 T10671106 FZRANO
0277745966037262025010710127+39008-074908FM-15+0007KWWD V0203105N00675009145MN0080475N5-00705-01105999999ADDAA101000021AU110030015AW1715GA1075+009145999GD13991+0091459GE19AGL   +99999+99999GF199999999999009141999999MA1101155101075MW1715OC101395OD149901391320REMMET11501/07/25 05:12:02 METAR KWWD 071012Z 31013G27KT 5SM -SN BKN030 M07/M11 A2987 RMK AO2 PK WND 32027/1007 P0000 FZRANO
0313745966037262025010710567+39008-074908FM-15+0007KWWD V0203105N007252200059N0064375N5-00615-01065101255ADDAA101000021AU110030015AW1715GA1025+009145999GD11991+0091459GE19AGL   +99999+99999GF102995999999009141999999MA1101225101145MW1715OC101345OD149901391300REMMET13201/07/25 05:56:02 METAR KWWD 071056Z 31014G26KT 4SM -SN FEW030 M06/M11 A2989 RMK AO2 PK WND 30027/1043 SLP125 P0000 T10611106 FZRANOEQDD01      0ADE726
0437745966037262025010711567+39008-074908FM-15+0007KWWD V0203205N008252200059N0064375N5-00615-01065101355ADDAA101000021AA206000021AA324001591AU110030015AW1715GA1025+009145999GD11991+0091459GE19AGL   +99999+99999GF102995999999009141999999KA1060M-00441KA2060N-00671MA1101325101245MD1390269+9999MW1715OC101655OD149901641310REMMET16201/07/25 06:56:01 METAR KWWD 071156Z 32016G32KT 4SM -SN FEW030 M06/M11 A2992 RMK AO2 PK WND 31032/1151 SLP135 P0000 60000 70006 T10611106 11044 21067 53026 FZRANOEQDQ01  00008PRCP06Q02  00158PRCP24D01      0ADE726
0269745966037262025010712567+39008-074908FM-15+0007KWWD V0203205N008252200059N0064375N5-00565-01065101405ADDAA101000021AU110030015AW1715GA1005+999999999GD10991+9999999GF100991999999999999999999MA1101395101305MW1715OC101445OD149901491300REMMET12901/07/25 07:56:01 METAR KWWD 071256Z 32016G28KT 4SM -SN CLR M06/M11 A2994 RMK AO2 PK WND 30029/1205 SLP140 P0000 T10561106 FZRANO
0308745966037262025010713477+39008-074908FM-15+0007KWWD V0203105N009352200059N0040235V5-00405-01005999999ADDAA101000021AU110030015AW1715GA1025+008845999GD11991+0088459GE19AGL   +99999+99999GF102995999999008841999999MA1101425101345MW1715OC101495OD149901541320REMMET12701/07/25 08:47:02 METAR KWWD 071347Z 31018G29KT 2 1/2SM -SN FEW029 M04/M10 A2995 RMK AO2 PK WND 32030/1327 VIS 1V5 P0000 FZRANOEQDD01      0ADE726
0313745966037262025010713567+39008-074908FM-15+0007KWWD V0203205N008252200059N0048285N5-00395-01005101465ADDAA101000021AU110030015AW1715GA1025+009455999GD11991+0094559GE19AGL   +99999+99999GF102995999999009451999999MA1101425101345MW1715OC101545OD149901541310REMMET13201/07/25 08:56:02 METAR KWWD 071356Z 32016G30KT 3SM -SN FEW031 M04/M10 A2995 RMK AO2 PK WND 31030/1354 SLP146 P0000 T10391100 FZRANOEQDD01      0ADE726
0366745966037262025010714567+39008-074908FM-15+0007KWWD V0203005N007752200059N0112655N5-00225-00895101525ADDAA101000021AA203000021AU110030015AW1715GA1045+008845999GD12991+0088459GE19AGL   +99999+99999GF104995999999008841999999MA1101495101415MD1390179+9999MW1715OC101185OD149901591300REMMET14401/07/25 09:56:02 METAR KWWD 071456Z 30015G23KT 7SM -SN SCT029 M02/M09 A2997 RMK AO2 PK WND 30031/1421 SLP152 P0000 60000 T10221089 53017 FZRANOEQDQ01  00008PRCP03D01      0ADE726
0313745966037262025010715567+39008-074908FM-15+0007KWWD V0203105N007752200059N0080475N5-00175-00835101515ADDAA101000021AU110030015AW1715GA1025+009455999GD11991+0094559GE19AGL   +99999+99999GF102995999999009451999999MA1101495101415MW1715OC101295OD149901331310REMMET13201/07/25 10:56:02 METAR KWWD 071556Z 31015G25KT 5SM -SN FEW031 M02/M08 A2997 RMK AO2 PK WND 31026/1458 SLP151 P0000 T10171083 FZRANOEQDD01      0ADE726
0313745966037262025010716567+39008-074908FM-15+0007KWWD V0203105N007252200059N0080475N5-00065-00785101465ADDAA101000021AU110030015AW1715GA1045+010065999GD12991+0100659GE19AGL   +99999+99999GF104995999999010061999999MA1101465101375MW1715OC101295OD149901491300REMMET13201/07/25 11:56:02 METAR KWWD 071656Z 31014G25KT 5SM -SN SCT033 M01/M08 A2996 RMK AO2 PK WND 30029/1615 SLP146 P0000 T10061078 FZRANOEQDD01      0ADE726
0391745966037262025010717567+39008-074908FM-15+0007KWWD V0202905N007252200059N0160935N5+00005-00785101445ADDAA101000021AA206000021GA1045+011285999GD12991+0112859GE19AGL   +99999+99999GF104995999999011281999999KA1060M+00001KA2060N-00611MA1101425101345MD1890089+9999OC101135OD149901491270REMMET16601/07/25 12:56:02 METAR KWWD 071756Z 29014G22KT 10SM SCT037 00/M08 A2995 RMK AO2 PK WND 27029/1725 UPB39E46SNE39 SLP144 P0000 60000 T00001078 10000 21061 58008 FZRANOEQDQ01  00008PRCP06D01      0ADE726
0295745966037262025010718567+39008-074908FM-15+0007KWWD V0202905N006252200059N0160935N5+00005-00895101455ADDAA101000021GA1045+012505999GD12991+0125059GE19AGL   +99999+99999GF104995999999012501999999MA1101425101345OC101185OD149901331290REMMET13701/07/25 13:56:02 METAR KWWD 071856Z 29012G23KT 10SM SCT041 00/M09 A2995 RMK AO2 PK WND 29026/1835 UPB01E14 SLP145 P0000 T00001089 FZRANOEQDD01      0ADE726
0211745966037262025010719567+39008-074908FM-15+0007KWWD V0203005N006752200059N0160935N5+00115-00895101455ADDGA1005+999999999GD10991+9999999GF100991999999999999999999MA1101425101345OC101495REMMET11901/07/25 14:56:01 METAR KWWD 071956Z 30013G29KT 10SM CLR 01/M09 A2995 RMK AO2 PK WND 30029/1952 SLP145 T00111089 FZRANO
0222745966037262025010720566+39008-074908FM-15+0007KWWD V0203005N008252200059N0160935N5+00065-00835101535ADDAA103000021GA1005+999999999GD10991+9999999MA1101525101445MD1390099+9999OC101345REMMET13101/07/25 15:56:02 METAR KWWD 072056Z 30016G26KT 10SM CLR 01/M08 A2998 RMK AO2 PK WND 28026/2048 SLP153 60000 T00061083 53009 FZRANO
0282745966037262025010721567+39008-074908FM-15+0007KWWD V0202905N008252200059N0160935N5+00005-00835101635ADDAA101000021AU120090015AW1401AW2415GA1005+999999999GD10991+9999999GF100991999999999999999999MA1101635101545OC101445OD149901591280REMMET14201/07/25 16:56:02 METAR KWWD 072156Z 29016G28KT 10SM UP CLR 00/M08 A3001 RMK AO2 PK WND 28031/2112 RAB23E56UPB56 SLP163 P0000 T00001083 FZRANO
0234745966037262025010722567+39008-074908FM-15+0007KWWD V0203005N007252200059N0160935N5+00005-00725101715ADDAA101000021GA1005+999999999GD10991+9999999GF100991999999999999999999MA1101695101615OC101035REMMET13101/07/25 17:56:02 METAR KWWD 072256Z 30014G20KT 10SM CLR 00/M07 A3003 RMK AO2 PK WND 28027/2209 UPE51 SLP171 P0000 T00001072 FZRANO
0287745966037262025010723567+39008-074908FM-15+0007KWWD V0203005N005152200059N0160935N5+00005-00675101795ADDAA106000021GA1005+999999999GD10991+9999999GF100991999999999999999999KA1060M+00111KA2060N+00001MA1101765101685MD1190259+9999OC101035REMMET12501/07/25 18:56:02 METAR KWWD 072356Z 30010G20KT 10SM CLR 00/M07 A3005 RMK AO2 SLP179 60000 T00001067 10011 20000 51025 FZRANOEQDQ01  00008PRCP06
0238745966037262025010800567+39008-074908FM-15+0007KWWD V0203005N006252200059N0160935N5-00065-00785101805ADDAA101000021GA1005+999999999GD10991+9999999GF100991999999999999999999MA1101765101685OC101445REMMET13501/07/25 19:56:01 METAR KWWD 080056Z 30012G28KT 10SM CLR M01/M08 A3005 RMK AO2 PK WND 31028/0049 UPB42E55 SLP180 P0000 T10061078 FZRANO
0243745966037262025010801567+39008-074908FM-15+0007KWWD V0203105N006752200059N0144845N5-00115-00785101845ADDAA101000021AU110030015AW1715GA1005+999999999GD10991+9999999GF100991999999999999999999MA1101835101745MW1715OC101035REMMET11701/07/25 20:56:01 METAR KWWD 080156Z 31013G20KT 9SM -SN CLR M01/M08 A3007 RMK AO2 SNB49 SLP184 P0000 T10111078 FZRANO
0273745966037262025010802567+39008-074908FM-15+0007KWWD V0203105N006252200059N0160935N5-00115-00835101875ADDAA101000021AA203000021GA1005+999999999GD10991+9999999GF100991999999999999999999MA1101865101785MD1390089+9999OC100935REMMET12601/07/25 21:56:01 METAR KWWD 080256Z 31012G18KT 10SM CLR M01/M08 A3008 RMK AO2 SNE03 SLP187 P0000 60000 T10111083 53008 FZRANOEQDQ01  00008PRCP03
0194745966037262025010803567+39008-074908FM-15+0007KWWD V0203205N004152200059N0160935N5-00175-00835101895ADDGA1005+999999999GD10991+9999999GF100991999999999999999999MA1101865101785OC100885REMMET10201/07/25 22:56:02 METAR KWWD 080356Z 32008G17KT 10SM CLR M02/M08 A3008 RMK AO2 SLP189 T10171083 FZRANO
0244745966037262025010804567+39008-074908FM-15+0007KWWD V0203105N00365012505MN0160935N5-00225-00785101915ADDGA1075+012505999GD13991+0125059GE19AGL   +99999+99999GF199999999999012501999999KA1240M+00111KA2240N-00671MA1101905101815REMMET11201/07/25 23:56:02 METAR KWWD 080456Z 31007KT 10SM BKN041 M02/M08 A3009 RMK AO2 SLP191 T10221078 400111067 FZRANO
002774596603726202501080459O+39008-074908SOD  +0007KWWD V020999999999999999999999999999+99999+99999999999ADDAT1AU18SN  5AT2AU19UP  5
0313745966037262025010805567+39008-074908FM-15+0007KWWD V0203005N00675012505MN0160935N5-00115-00835101905ADDAA106000021GA1085+012505999GD14991+0125059GE19AGL   +99999+99999GF199999999999012501999999KA1060M+00001KA2060N-00221MA1101905101815MD1090039+9999OC101135REMMET12901/08/25 00:56:02 METAR KWWD 080556Z 30013G22KT 10SM OVC041 M01/M08 A3009 RMK AO2 SLP190 60000 T10111083 10000 21022 50003 FZRANOEQDQ01  00008PRCP06
0219745966037262025010806567+39008-074908FM-15+0007KWWD V0203105N00675013115MN0160935N5-00175-00895101925ADDGA1085+013115999GD14991+0131159GE19AGL   +99999+99999GF199999999999013111999999MA1101905101815OC101035REMMET10501/08/25 01:56:02 METAR KWWD 080656Z 31013G20KT 10SM OVC043 M02/M09 A3009 RMK AO2 SLP192 T10171089 FZRANO
0219745966037262025010807567+39008-074908FM-15+0007KWWD V0203005N00575013725MN0160935N5-00175-00835101915ADDGA1085+013725999GD14991+0137259GE19AGL   +99999+99999GF199999999999013721999999MA1101905101815OC101245REMMET10501/08/25 02:56:02 METAR KWWD 080756Z 30011G24KT 10SM OVC045 M02/M08 A3009 RMK AO2 SLP191 T10171083 FZRANO
0317745966037262025010808567+39008-074908FM-15+0007KWWD V0203005N00675013725MN0160935N5-00225-00835101915ADDAA101000021AA203000021GA1085+013725999GD14991+0137259GE19AGL   +99999+99999GF199999999999013721999999MA1101905101815MD1190019+9999OC101085REMMET13201/08/25 03:56:02 METAR KWWD 080856Z 30013G21KT 10SM OVC045 M02/M08 A3009 RMK AO2 SNB13E23 SLP191 P0000 60000 T10221083 51001 FZRANOEQDQ01  00002PRCP03Q02  00008PRCP03
0306745966037262025010809567+39008-074908FM-15+0007KWWD V0202905N00675013725MN0144845N5-00225-00945101905ADDAA101000021AU110030015AW1715GA1085+013725999GD14991+0137259GE19AGL   +99999+99999GF199999999999013721999999MA1101865101785MW1715OC101295OD149901391320REMMET14401/08/25 04:56:02 METAR KWWD 080956Z 29013G25KT 9SM -SN OVC045 M02/M09 A3008 RMK AO2 PK WND 32027/0940 SNB10E20B36 SLP190 P0000 T10221094 FZRANO
0227745966037262025010810567+39008-074908FM-15+0007KWWD V0202905N00725013115MN0160935N5-00285-00945101925ADDGA1085+013115999GD14991+0131159GE19AGL   +99999+99999GF199999999999013111999999MA1101905101815OC100985REMMET11301/08/25 05:56:02 METAR KWWD 081056Z 29014G19KT 10SM OVC043 M03/M09 A3009 RMK AO2 SNE0957 SLP192 T10281094 FZRANO
0313745966037262025010811567+39008-074908FM-15+0007KWWD V0203005N00625011895MN0160935N5-00285-00945101955ADDAA106000021GA1075+011895999GD13991+0118959GE19AGL   +99999+99999GF199999999999011891999999KA1060M-00111KA2060N-00281MA1101935101855MD1390049+9999OC101085REMMET12901/08/25 06:56:02 METAR KWWD 081156Z 30012G21KT 10SM BKN039 M03/M09 A3010 RMK AO2 SLP195 60000 T10281094 11011 21028 53004 FZRANOEQDQ01  00008PRCP06
0238745966037262025010812567+39008-074908FM-15+0007KWWD V0203005N006752200059N0160935N5-00285-00945101965ADDGA1025+011895999GD11991+0118959GE19AGL   +99999+99999GF102995999999011891999999MA1101935101855OC101185REMMET10501/08/25 07:56:02 METAR KWWD 081256Z 30013G23KT 10SM FEW039 M03/M09 A3010 RMK AO2 SLP196 T10281094 FZRANOEQDD01      0ADE726
0194745966037262025010813567+39008-074908FM-15+0007KWWD V0202905N006252200059N0160935N5-00175-00945101945ADDGA1005+999999999GD10991+9999999GF100991999999999999999999MA1101935101855OC101035REMMET10201/08/25 08:56:02 METAR KWWD 081356Z 29012G20KT 10SM CLR M02/M09 A3010 RMK AO2 SLP194 T10171094 FZRANO
0258745966037262025010814567+39008-074908FM-15+0007KWWD V0202905N007752200059N0160935N5-00175-00895101895ADDGA1025+013115999GD11991+0131159GE19AGL   +99999+99999GF102995999999013111999999MA1101865101785MD1890069+9999OC101245REMMET11101/08/25 09:56:02 METAR KWWD 081456Z 29015G24KT 10SM FEW043 M02/M09 A3008 RMK AO2 SLP189 T10171089 58006 FZRANOEQDD01      0ADE726
0250745966037262025010815567+39008-074908FM-15+0007KWWD V0203105N00935013115MN0144845N5-00115-00945101845ADDGA1085+013115999GD14991+0131159GE19AGL   +99999+99999GF199999999999013111999999MA1101835101745OC101245OD149901441330REMMET12201/08/25 10:56:02 METAR KWWD 081556Z 31018G24KT 9SM OVC043 M01/M09 A3007 RMK AO2 PK WND 33028/1530 SLP184 T10111094 FZRANO
0295745966037262025010816567+39008-074908FM-15+0007KWWD V0203105N007752200059N0096565N5-00065-01005101695ADDAU100007015AW1051GA1045+014335999GD12991+0143359GE19AGL   +99999+99999GF104995999999014331999999MA1101665101585MW1055OC101035OD149901391290REMMET12501/08/25 11:56:02 METAR KWWD 081656Z 31015G20KT 6SM HZ SCT047 M01/M10 A3002 RMK AO2 PK WND 29027/1643 SLP169 T10061100 FZRANOEQDD01      0ADE726
0308745966037262025010817567+39008-074908FM-15+0007KWWD V0202905N00775013725MN0160935N5+00005-01065101555ADDGA1085+013725999GD14991+0137259GE19AGL   +99999+99999GF199999999999013721999999KA1060M+00061KA2060N-00331MA1101525101445MD1890359+9999OC101185OD149901331290REMMET14001/08/25 12:56:02 METAR KWWD 081756Z 29015G23KT 10SM OVC045 00/M11 A2998 RMK AO2 PK WND 29026/1746 SLP155 T00001106 10006 21033 58035 FZRANO
0250745966037262025010818567+39008-074908FM-15+0007KWWD V0202905N00775014945MN0160935N5+00005-01005101415ADDGA1075+014945999GD13991+0149459GE19AGL   +99999+99999GF199999999999014941999999MA1101395101305OC101185OD149901331290REMMET12201/08/25 13:56:02 METAR KWWD 081856Z 29015G23KT 10SM BKN049 00/M10 A2994 RMK AO2 PK WND 29026/1811 SLP141 T00001100 FZRANO
0219745966037262025010819567+39008-074908FM-15+0007KWWD V0202905N00825014945MN0160935N5-00065-00945101405ADDGA1075+014945999GD13991+0149459GE19AGL   +99999+99999GF199999999999014941999999MA1101395101305OC101245REMMET10501/08/25 14:56:02 METAR KWWD 081956Z 29016G24KT 10SM BKN049 M01/M09 A2994 RMK AO2 SLP140 T10061094 FZRANO
0239745966037262025010820567+39008-074908FM-15+0007KWWD V0202805N00675014945MN0160935N5-00065-00945101395ADDGA1075+014945999GD13991+0149459GE19AGL   +99999+99999GF199999999999014941999999MA1101395101305MD1690169+9999OC101135REMMET11101/08/25 15:56:02 METAR KWWD 082056Z 28013G22KT 10SM BKN049 M01/M09 A2994 RMK AO2 SLP139 T10061094 56016 FZRANO
0219745966037262025010821567+39008-074908FM-15+0007KWWD V0202905N00725014945MN0160935N5-00175-01005101415ADDGA1075+014945999GD13991+0149459GE19AGL   +99999+99999GF199999999999014941999999MA1101395101305OC101085REMMET10501/08/25 16:56:02 METAR KWWD 082156Z 29014G21KT 10SM BKN049 M02/M10 A2994 RMK AO2 SLP141 T10171100 FZRANO
0238745966037262025010822567+39008-074908FM-15+0007KWWD V0203005N006752200059N0160935N5-00175-01005101415ADDGA1025+015245999GD11991+0152459GE19AGL   +99999+99999GF102995999999015241999999MA1101395101305OC101085REMMET10501/08/25 17:56:02 METAR KWWD 082256Z 30013G21KT 10SM FEW050 M02/M10 A2994 RMK AO2 SLP141 T10171100 FZRANOEQDD01      0ADE726
0277745966037262025010823567+39008-074908FM-15+0007KWWD V0203105N00575015245MN0160935N5-00175-01005101435ADDGA1075+015245999GD13991+0152459GE19AGL   +99999+99999GF199999999999015241999999KA1060M+00061KA2060N-00171MA1101425101345MD1190049+9999OC100985REMMET12301/08/25 18:56:02 METAR KWWD 082356Z 31011G19KT 10SM BKN050 M02/M10 A2995 RMK AO2 SLP143 T10171100 10006 21017 51004 FZRANO
0238745966037262025010900567+39008-074908FM-15+0007KWWD V0203005N005752200059N0160935N5-00225-01065101455ADDGA1045+014635999GD12991+0146359GE19AGL   +99999+99999GF104995999999014631999999MA1101425101345OC101185REMMET10501/08/25 19:56:01 METAR KWWD 090056Z 30011G23KT 10SM SCT048 M02/M11 A2995 RMK AO2 SLP145 T10221106 FZRANOEQDD01      0ADE726
0296745966037262025010901567+39008-074908FM-15+0007KWWD V0203205N006752200059N0160935N5-00285-01065101445ADDAA101000021GA1045+012805999GD12991+0128059GE19AGL   +99999+99999GF104995999999012801999999MA1101425101345OC101245OD149901331310REMMET13801/08/25 20:56:01 METAR KWWD 090156Z 32013G24KT 10SM SCT042 M03/M11 A2995 RMK AO2 PK WND 31026/0139 SNB09E22 SLP144 P0000 T10281106 FZRANOEQDD01      0ADE726
0353745966037262025010902567+39008-074908FM-15+0007KWWD V0203205N007752200059N0144845N5-00395-01285101435ADDAA101000021AA203000021AU110030015AW1715GA1005+999999999GD10991+9999999GF100991999999999999999999MA1101425101345MD1890009+9999MW1715OC101245OD149901391320REMMET15301/08/25 21:56:01 METAR KWWD 090256Z 32015G24KT 9SM -SN CLR M04/M13 A2995 RMK AO2 PK WND 32027/0225 SNB03E16B49 SLP143 P0000 60000 T10391128 58000 FZRANOEQDQ018     3APCTENQ02  00008PRCP03
