0088997270999992022010100004+39350-074420FM-13+001099999V0209999C000019999999N999999999+00921+99999101551ADDMD1310081+9999SA1+0781REMSYN054ACYN4 46/// ///// 10092 40155 53008 90000 222// 00078=
0088997270999992022010101004+39350-074420FM-13+001099999V0209999C000019999999N999999999+00921+99999101541ADDMD1210041+9999SA1+0771REMSYN054ACYN4 46/// ///// 10092 40154 52004 90100 222// 00077=
0088997270999992022010102004+39350-074420FM-13+001099999V0209999C000019999999N999999999+00931+99999101541ADDMD1110041+9999SA1+0781REMSYN054ACYN4 46/// ///// 10093 40154 51004 90200 222// 00078=
0088997270999992022010103004+39350-074420FM-13+001099999V0209999C000019999999N999999999+00931+99999101511ADDMD1810041+9999SA1+0781REMSYN054ACYN4 46/// ///// 10093 40151 58004 90300 222// 00078=
0088997270999992022010104004+39350-074420FM-13+001099999V0209999C000019999999N999999999+00921+99999101471ADDMD1810071+9999SA1+0781REMSYN054ACYN4 46/// ///// 10092 40147 58007 90400 222// 00078=
0088997270999992022010105004+39350-074420FM-13+001099999V0209999C000019999999N999999999+00941+99999101411ADDMD1810131+9999SA1+0781REMSYN054ACYN4 46/// ///// 10094 40141 58013 90500 222// 00078=
0088997270999992022010106004+39350-074420FM-13+001099999V0209999C000019999999N999999999+00931+99999101341ADDMD1810171+9999SA1+0771REMSYN054ACYN4 46/// ///// 10093 40134 58017 90600 222// 00077=
0088997270999992022010107004+39350-074420FM-13+001099999V0209999C000019999999N999999999+00941+99999101301ADDMD1610171+9999SA1+0781REMSYN054ACYN4 46/// ///// 10094 40130 56017 90700 222// 00078=
0088997270999992022010108004+39350-074420FM-13+001099999V0209999C000019999999N999999999+00941+99999101241ADDMD1610171+9999SA1+0781REMSYN054ACYN4 46/// ///// 10094 40124 56017 90800 222// 00078=
0088997270999992022010109004+39350-074420FM-13+001099999V0209999C000019999999N999999999+00931+99999101171ADDMD1810171+9999SA1+0781REMSYN054ACYN4 46/// ///// 10093 40117 58017 90900 222// 00078=
0088997270999992022010110004+39350-074420FM-13+001099999V0209999C000019999999N999999999+00951+99999101151ADDMD1610151+9999SA1+0781REMSYN054ACYN4 46/// ///// 10095 40115 56015 91000 222// 00078=
0088997270999992022010111004+39350-074420FM-13+001099999V0209999C000019999999N999999999+00951+99999101091ADDMD1610151+9999SA1+0771REMSYN054ACYN4 46/// ///// 10095 40109 56015 91100 222// 00077=
0088997270999992022010112004+39350-074420FM-13+001099999V0209999C000019999999N999999999+00941+99999101071ADDMD1710101+9999SA1+0781REMSYN054ACYN4 46/// ///// 10094 40107 57010 91200 222// 00078=
0088997270999992022010113004+39350-074420FM-13+001099999V0209999C000019999999N999999999+00931+99999101161ADDMD1510001+9999SA1+0781REMSYN054ACYN4 46/// ///// 10093 40116 55000 91300 222// 00078=
0088997270999992022010114004+39350-074420FM-13+001099999V0209999C000019999999N999999999+00951+99999101211ADDMD1310121+9999SA1+0791REMSYN054ACYN4 46/// ///// 10095 40121 53012 91400 222// 00079=
0088997270999992022010115004+39350-074420FM-13+001099999V0209999C000019999999N999999999+01011+99999101241ADDMD1110171+9999SA1+0781REMSYN054ACYN4 46/// ///// 10101 40124 51017 91500 222// 00078=
0088997270999992022010116004+39350-074420FM-13+001099999V0209999C000019999999N999999999+00991+99999101121ADDMD1810041+9999SA1+0791REMSYN054ACYN4 46/// ///// 10099 40112 58004 91600 222// 00079=
0088997270999992022010117004+39350-074420FM-13+001099999V0209999C000019999999N999999999+00921+99999100951ADDMD1810261+9999SA1+0781REMSYN054ACYN4 46/// ///// 10092 40095 58026 91700 222// 00078=
0088997270999992022010118004+39350-074420FM-13+001099999V0209999C000019999999N999999999+00961+99999100871ADDMD1610371+9999SA1+0791REMSYN054ACYN4 46/// ///// 10096 40087 56037 91800 222// 00079=
0088997270999992022010119004+39350-074420FM-13+001099999V0209999C000019999999N999999999+00971+99999100861ADDMD1610261+9999SA1+0781REMSYN054ACYN4 46/// ///// 10097 40086 56026 91900 222// 00078=
0088997270999992022010120004+39350-074420FM-13+001099999V0209999C000019999999N999999999+01031+99999100751ADDMD1810201+9999SA1+0781REMSYN054ACYN4 46/// ///// 10103 40075 58020 92000 222// 00078=
0088997270999992022010121004+39350-074420FM-13+001099999V0209999C000019999999N999999999+01001+99999100731ADDMD1710141+9999SA1+0811REMSYN054ACYN4 46/// ///// 10100 40073 57014 92100 222// 00081=
0088997270999992022010122004+39350-074420FM-13+001099999V0209999C000019999999N999999999+01071+99999100701ADDMD1610161+9999SA1+0791REMSYN054ACYN4 46/// ///// 10107 40070 56016 92200 222// 00079=
0088997270999992022010123004+39350-074420FM-13+001099999V0209999C000019999999N999999999+01141+99999100631ADDMD1810121+9999SA1+0791REMSYN054ACYN4 46/// ///// 10114 40063 58012 92300 222// 00079=
0088997270999992022010200004+39350-074420FM-13+001099999V0209999C000019999999N999999999+01121+99999100551ADDMD1810181+9999SA1+0791REMSYN054ACYN4 46/// ///// 10112 40055 58018 90000 222// 00079=
0088997270999992022010201004+39350-074420FM-13+001099999V0209999C000019999999N999999999+01041+99999100501ADDMD1610201+9999SA1+0791REMSYN054ACYN4 46/// ///// 10104 40050 56020 90100 222// 00079=
0088997270999992022010202004+39350-074420FM-13+001099999V0209999C000019999999N999999999+01081+99999100341ADDMD1810291+9999SA1+0791REMSYN054ACYN4 46/// ///// 10108 40034 58029 90200 222// 00079=
0088997270999992022010203004+39350-074420FM-13+001099999V0209999C000019999999N999999999+01131+99999100211ADDMD1810341+9999SA1+0801REMSYN054ACYN4 46/// ///// 10113 40021 58034 90300 222// 00080=
0088997270999992022010204004+39350-074420FM-13+001099999V0209999C000019999999N999999999+01201+99999100181ADDMD1610321+9999SA1+0801REMSYN054ACYN4 46/// ///// 10120 40018 56032 90400 222// 00080=
0088997270999992022010205004+39350-074420FM-13+001099999V0209999C000019999999N999999999+01561+99999100141ADDMD1610201+9999SA1+0791REMSYN054ACYN4 46/// ///// 10156 40014 56020 90500 222// 00079=
0088997270999992022010206004+39350-074420FM-13+001099999V0209999C000019999999N999999999+01421+99999100181ADDMD1510031+9999SA1+0801REMSYN054ACYN4 46/// ///// 10142 40018 55003 90600 222// 00080=
0088997270999992022010207004+39350-074420FM-13+001099999V0209999C000019999999N999999999+01141+99999100151ADDMD1610031+9999SA1+0801REMSYN054ACYN4 46/// ///// 10114 40015 56003 90700 222// 00080=
0088997270999992022010208004+39350-074420FM-13+001099999V0209999C000019999999N999999999+01231+99999100211ADDMD1310071+9999SA1+0801REMSYN054ACYN4 46/// ///// 10123 40021 53007 90800 222// 00080=
0088997270999992022010209004+39350-074420FM-13+001099999V0209999C000019999999N999999999+01161+99999100291ADDMD1310111+9999SA1+0801REMSYN054ACYN4 46/// ///// 10116 40029 53011 90900 222// 00080=
0088997270999992022010210004+39350-074420FM-13+001099999V0209999C000019999999N999999999+01521+99999100271ADDMD1110121+9999SA1+0801REMSYN054ACYN4 46/// ///// 10152 40027 51012 91000 222// 00080=
0088997270999992022010211004+39350-074420FM-13+001099999V0209999C000019999999N999999999+01371+99999100341ADDMD1110131+9999SA1+0811REMSYN054ACYN4 46/// ///// 10137 40034 51013 91100 222// 00081=
0088997270999992022010212004+39350-074420FM-13+001099999V0209999C000019999999N999999999+01091+99999100241ADDMD1810051+9999SA1+0811REMSYN054ACYN4 46/// ///// 10109 40024 58005 91200 222// 00081=
0088997270999992022010213004+39350-074420FM-13+001099999V0209999C000019999999N999999999+01301+99999100361ADDMD1310091+9999SA1+0811REMSYN054ACYN4 46/// ///// 10130 40036 53009 91300 222// 00081=
0088997270999992022010214004+39350-074420FM-13+001099999V0209999C000019999999N999999999+01321+99999100451ADDMD1310111+9999SA1+0811REMSYN054ACYN4 46/// ///// 10132 40045 53011 91400 222// 00081=
0088997270999992022010215004+39350-074420FM-13+001099999V0209999C000019999999N999999999+01341+99999100551ADDMD1110311+9999SA1+0821REMSYN054ACYN4 46/// ///// 10134 40055 51031 91500 222// 00082=
0088997270999992022010216004+39350-074420FM-13+001099999V0209999C000019999999N999999999+01241+99999100541ADDMD1110181+9999SA1+0841REMSYN054ACYN4 46/// ///// 10124 40054 51018 91600 222// 00084=
0088997270999992022010217004+39350-074420FM-13+001099999V0209999C000019999999N999999999+01041+99999100511ADDMD1990061+9999SA1+0831REMSYN054ACYN4 46/// ///// 10104 40051 50006 91700 222// 00083=
0088997270999992022010218004+39350-074420FM-13+001099999V0209999C000019999999N999999999+01411+99999100521ADDMD1710031+9999SA1+0841REMSYN054ACYN4 46/// ///// 10141 40052 57003 91800 222// 00084=
0088997270999992022010219004+39350-074420FM-13+001099999V0209999C000019999999N999999999+01511+99999100551ADDMD1510001+9999SA1+0841REMSYN054ACYN4 46/// ///// 10151 40055 55000 91900 222// 00084=
0088997270999992022010220004+39350-074420FM-13+001099999V0209999C000019999999N999999999+01271+99999100611ADDMD1310101+9999SA1+0841REMSYN054ACYN4 46/// ///// 10127 40061 53010 92000 222// 00084=
0088997270999992022010221004+39350-074420FM-13+001099999V0209999C000019999999N999999999+01101+99999100721ADDMD1310201+9999SA1+0841REMSYN054ACYN4 46/// ///// 10110 40072 53020 92100 222// 00084=
0088997270999992022010222004+39350-074420FM-13+001099999V0209999C000019999999N999999999+01461+99999100851ADDMD1310301+9999SA1+0831REMSYN054ACYN4 46/// ///// 10146 40085 53030 92200 222// 00083=
0088997270999992022010223004+39350-074420FM-13+001099999V0209999C000019999999N999999999+01291+99999100891ADDMD1110281+9999SA1+0831REMSYN054ACYN4 46/// ///// 10129 40089 51028 92300 222// 00083=
0088997270999992022010300004+39350-074420FM-13+001099999V0209999C000019999999N999999999+01441+99999101051ADDMD1310331+9999SA1+0841REMSYN054ACYN4 46/// ///// 10144 40105 53033 90000 222// 00084=
0088997270999992022010301004+39350-074420FM-13+001099999V0209999C000019999999N999999999+01491+99999101091ADDMD1210241+9999SA1+0831REMSYN054ACYN4 46/// ///// 10149 40109 52024 90100 222// 00083=
0088997270999992022010302004+39350-074420FM-13+001099999V0209999C000019999999N999999999+00931+99999101311ADDMD1310421+9999SA1+0841REMSYN054ACYN4 46/// ///// 10093 40131 53042 90200 222// 00084=
0088997270999992022010303004+39350-074420FM-13+001099999V0209999C000019999999N999999999+00801+99999101451ADDMD1310401+9999SA1+0841REMSYN054ACYN4 46/// ///// 10080 40145 53040 90300 222// 00084=
0088997270999992022010304004+39350-074420FM-13+001099999V0209999C000019999999N999999999+00681+99999101611ADDMD1110521+9999SA1+0841REMSYN054ACYN4 46/// ///// 10068 40161 51052 90400 222// 00084=
0088997270999992022010305004+39350-074420FM-13+001099999V0209999C000019999999N999999999+00571+99999101721ADDMD1110411+9999SA1+0831REMSYN054ACYN4 46/// ///// 10057 40172 51041 90500 222// 00083=
0088997270999992022010306004+39350-074420FM-13+001099999V0209999C000019999999N999999999+00481+99999101731ADDMD1110281+9999SA1+0821REMSYN054ACYN4 46/// ///// 10048 40173 51028 90600 222// 00082=
0088997270999992022010307004+39350-074420FM-13+001099999V0209999C000019999999N999999999+00421+99999101761ADDMD1110151+9999SA1+0821REMSYN054ACYN4 46/// ///// 10042 40176 51015 90700 222// 00082=
0088997270999992022010308004+39350-074420FM-13+001099999V0209999C000019999999N999999999+00291+99999101811ADDMD1310091+9999SA1+0811REMSYN054ACYN4 46/// ///// 10029 40181 53009 90800 222// 00081=
0088997270999992022010309004+39350-074420FM-13+001099999V0209999C000019999999N999999999+00211+99999101801ADDMD1110071+9999SA1+0861REMSYN054ACYN4 46/// ///// 10021 40180 51007 90900 222// 00086=
0088997270999992022010310004+39350-074420FM-13+001099999V0209999C000019999999N999999999+00181+99999101771ADDMD1990001+9999SA1+0841REMSYN054ACYN4 46/// ///// 10018 40177 50000 91000 222// 00084=
0088997270999992022010311004+39350-074420FM-13+001099999V0209999C000019999999N999999999+00101+99999101791ADDMD1410001+9999SA1+0831REMSYN054ACYN4 46/// ///// 10010 40179 54000 91100 222// 00083=
0088997270999992022010312004+39350-074420FM-13+001099999V0209999C000019999999N999999999+00041+99999101691ADDMD1810111+9999SA1+0821REMSYN054ACYN4 46/// ///// 10004 40169 58011 91200 222// 00082=
0088997270999992022010313004+39350-074420FM-13+001099999V0209999C000019999999N999999999+00101+99999101721ADDMD1510051+9999SA1+0811REMSYN054ACYN4 46/// ///// 10010 40172 55005 91300 222// 00081=
0088997270999992022010314004+39350-074420FM-13+001099999V0209999C000019999999N999999999+00031+99999101791ADDMD1510001+9999SA1+0791REMSYN054ACYN4 46/// ///// 10003 40179 55000 91400 222// 00079=
0088997270999992022010315004+39350-074420FM-13+001099999V0209999C000019999999N999999999-00031+99999101921ADDMD1310231+9999SA1+0781REMSYN054ACYN4 46/// ///// 11003 40192 53023 91500 222// 00078=
0088997270999992022010316004+39350-074420FM-13+001099999V0209999C000019999999N999999999-00161+99999101671ADDMD1810051+9999SA1+0781REMSYN054ACYN4 46/// ///// 11016 40167 58005 91600 222// 00078=
0088997270999992022010317004+39350-074420FM-13+001099999V0209999C000019999999N999999999-00211+99999101441ADDMD1810351+9999SA1+0761REMSYN054ACYN4 46/// ///// 11021 40144 58035 91700 222// 00076=
0088997270999992022010318004+39350-074420FM-13+001099999V0209999C000019999999N999999999-00211+99999101241ADDMD1610681+9999SA1+0751REMSYN054ACYN4 46/// ///// 11021 40124 56068 91800 222// 00075=
0088997270999992022010319004+39350-074420FM-13+001099999V0209999C000019999999N999999999-00231+99999101321ADDMD1510351+9999SA1+0741REMSYN054ACYN4 46/// ///// 11023 40132 55035 91900 222// 00074=
0088997270999992022010320004+39350-074420FM-13+001099999V0209999C000019999999N999999999-00291+99999101341ADDMD1610101+9999SA1+0731REMSYN054ACYN4 46/// ///// 11029 40134 56010 92000 222// 00073=
0088997270999992022010321004+39350-074420FM-13+001099999V0209999C000019999999N999999999-00351+99999101621ADDMD1310381+9999SA1+0731REMSYN054ACYN4 46/// ///// 11035 40162 53038 92100 222// 00073=
0088997270999992022010322004+39350-074420FM-13+001099999V0209999C000019999999N999999999-00371+99999101841ADDMD1310521+9999SA1+0651REMSYN054ACYN4 46/// ///// 11037 40184 53052 92200 222// 00065=
0088997270999992022010323004+39350-074420FM-13+001099999V0209999C000019999999N999999999-00321+99999101921ADDMD1110581+9999SA1+0701REMSYN054ACYN4 46/// ///// 11032 40192 51058 92300 222// 00070=
0088997270999992022010400004+39350-074420FM-13+001099999V0209999C000019999999N999999999-00311+99999102041ADDMD1110421+9999SA1+0761REMSYN054ACYN4 46/// ///// 11031 40204 51042 90000 222// 00076=
0088997270999992022010401004+39350-074420FM-13+001099999V0209999C000019999999N999999999-00341+99999102141ADDMD1310301+9999SA1+0751REMSYN054ACYN4 46/// ///// 11034 40214 53030 90100 222// 00075=
0088997270999992022010402004+39350-074420FM-13+001099999V0209999C000019999999N999999999-00381+99999102241ADDMD1110321+9999SA1+0761REMSYN054ACYN4 46/// ///// 11038 40224 51032 90200 222// 00076=
0088997270999992022010403004+39350-074420FM-13+001099999V0209999C000019999999N999999999-00341+99999102351ADDMD1310311+9999SA1+0761REMSYN054ACYN4 46/// ///// 11034 40235 53031 90300 222// 00076=
0088997270999992022010404004+39350-074420FM-13+001099999V0209999C000019999999N999999999-00391+99999102441ADDMD1110301+9999SA1+0771REMSYN054ACYN4 46/// ///// 11039 40244 51030 90400 222// 00077=
0088997270999992022010405004+39350-074420FM-13+001099999V0209999C000019999999N999999999-00471+99999102531ADDMD1110291+9999SA1+0671REMSYN054ACYN4 46/// ///// 11047 40253 51029 90500 222// 00067=
0088997270999992022010406004+39350-074420FM-13+001099999V0209999C000019999999N999999999-00501+99999102641ADDMD1310291+9999SA1+0671REMSYN054ACYN4 46/// ///// 11050 40264 53029 90600 222// 00067=
0088997270999992022010407004+39350-074420FM-13+001099999V0209999C000019999999N999999999-00551+99999102711ADDMD1110271+9999SA1+0691REMSYN054ACYN4 46/// ///// 11055 40271 51027 90700 222// 00069=
0088997270999992022010408004+39350-074420FM-13+001099999V0209999C000019999999N999999999-00591+99999102801ADDMD1110271+9999SA1+0681REMSYN054ACYN4 46/// ///// 11059 40280 51027 90800 222// 00068=
0088997270999992022010409004+39350-074420FM-13+001099999V0209999C000019999999N999999999-00621+99999102881ADDMD1310241+9999SA1+0671REMSYN054ACYN4 46/// ///// 11062 40288 53024 90900 222// 00067=
0088997270999992022010410004+39350-074420FM-13+001099999V0209999C000019999999N999999999-00631+99999102981ADDMD1310271+9999SA1+0671REMSYN054ACYN4 46/// ///// 11063 40298 53027 91000 222// 00067=
0088997270999992022010411004+39350-074420FM-13+001099999V0209999C000019999999N999999999-00621+99999103051ADDMD1110251+9999SA1+0671REMSYN054ACYN4 46/// ///// 11062 40305 51025 91100 222// 00067=
0088997270999992022010412004+39350-074420FM-13+001099999V0209999C000019999999N999999999-00621+99999103141ADDMD1110261+9999SA1+0671REMSYN054ACYN4 46/// ///// 11062 40314 51026 91200 222// 00067=
0088997270999992022010413004+39350-074420FM-13+001099999V0209999C000019999999N999999999-00541+99999103161ADDMD1110181+9999SA1+0661REMSYN054ACYN4 46/// ///// 11054 40316 51018 91300 222// 00066=
0068997270999992022010414004+39350-074420FM-13+001099999V0209999C000019999999N999999999-00501+99999103181ADDSA1+0671REMSYN048ACYN4 46/// ///// 11050 40318 91336 222// 00067=
0088997270999992022010415004+39350-074420FM-13+001099999V0209999C000019999999N999999999-00421+99999103201ADDMD1210061+9999SA1+0681REMSYN054ACYN4 46/// ///// 11042 40320 52006 91500 222// 00068=
0088997270999992022010416004+39350-074420FM-13+001099999V0209999C000019999999N999999999-00381+99999103181ADDMD1990001+9999SA1+0661REMSYN054ACYN4 46/// ///// 11038 40318 50000 91600 222// 00066=
0088997270999992022010417004+39350-074420FM-13+001099999V0209999C000019999999N999999999-00291+99999103151ADDMD1810041+9999SA1+0671REMSYN054ACYN4 46/// ///// 11029 40315 58004 91700 222// 00067=
0088997270999992022010418004+39350-074420FM-13+001099999V0209999C000019999999N999999999-00251+99999103061ADDMD1810141+9999SA1+0681REMSYN054ACYN4 46/// ///// 11025 40306 58014 91800 222// 00068=
0088997270999992022010419004+39350-074420FM-13+001099999V0209999C000019999999N999999999-00161+99999103031ADDMD1710151+9999SA1+0681REMSYN054ACYN4 46/// ///// 11016 40303 57015 91900 222// 00068=
0088997270999992022010420004+39350-074420FM-13+001099999V0209999C000019999999N999999999-00121+99999103011ADDMD1610141+9999SA1+0681REMSYN054ACYN4 46/// ///// 11012 40301 56014 92000 222// 00068=
0088997270999992022010421004+39350-074420FM-13+001099999V0209999C000019999999N999999999-00061+99999103011ADDMD1610051+9999SA1+0661REMSYN054ACYN4 46/// ///// 11006 40301 56005 92100 222// 00066=
0088997270999992022010422004+39350-074420FM-13+001099999V0209999C000019999999N999999999-00021+99999103011ADDMD1410001+9999SA1+0651REMSYN054ACYN4 46/// ///// 11002 40301 54000 92200 222// 00065=
0088997270999992022010423004+39350-074420FM-13+001099999V0209999C000019999999N999999999+00031+99999103051ADDMD1310041+9999SA1+0641REMSYN054ACYN4 46/// ///// 10003 40305 53004 92300 222// 00064=
0088997270999992022010500004+39350-074420FM-13+001099999V0209999C000019999999N999999999-00091+99999103041ADDMD1210031+9999SA1+0651REMSYN054ACYN4 46/// ///// 11009 40304 52003 90000 222// 00065=
0088997270999992022010501004+39350-074420FM-13+001099999V0209999C000019999999N999999999-00071+99999103021ADDMD1990001+9999SA1+0621REMSYN054ACYN4 46/// ///// 11007 40302 50000 90100 222// 00062=
0088997270999992022010502004+39350-074420FM-13+001099999V0209999C000019999999N999999999+00091+99999102921ADDMD1810131+9999SA1+0621REMSYN054ACYN4 46/// ///// 10009 40292 58013 90200 222// 00062=
0088997270999992022010503004+39350-074420FM-13+001099999V0209999C000019999999N999999999+00181+99999102821ADDMD1810221+9999SA1+0621REMSYN054ACYN4 46/// ///// 10018 40282 58022 90300 222// 00062=
0088997270999992022010504004+39350-074420FM-13+001099999V0209999C000019999999N999999999+00281+99999102741ADDMD1610281+9999SA1+0621REMSYN054ACYN4 46/// ///// 10028 40274 56028 90400 222// 00062=
0088997270999992022010505004+39350-074420FM-13+001099999V0209999C000019999999N999999999+00371+99999102681ADDMD1610241+9999SA1+0611REMSYN054ACYN4 46/// ///// 10037 40268 56024 90500 222// 00061=
0088997270999992022010506004+39350-074420FM-13+001099999V0209999C000019999999N999999999+00491+99999102541ADDMD1810281+9999SA1+0611REMSYN054ACYN4 46/// ///// 10049 40254 58028 90600 222// 00061=
0088997270999992022010507004+39350-074420FM-13+001099999V0209999C000019999999N999999999+00631+99999102451ADDMD1810291+9999SA1+0611REMSYN054ACYN4 46/// ///// 10063 40245 58029 90700 222// 00061=
0088997270999992022010508004+39350-074420FM-13+001099999V0209999C000019999999N999999999+00751+99999102331ADDMD1610351+9999SA1+0611REMSYN054ACYN4 46/// ///// 10075 40233 56035 90800 222// 00061=
0088997270999992022010509004+39350-074420FM-13+001099999V0209999C000019999999N999999999+00191+99999102221ADDMD1810321+9999SA1+0601REMSYN054ACYN4 46/// ///// 10019 40222 58032 90900 222// 00060=
0088997270999992022010510004+39350-074420FM-13+001099999V0209999C000019999999N999999999+00221+99999102041ADDMD1810411+9999SA1+0551REMSYN054ACYN4 46/// ///// 10022 40204 58041 91000 222// 00055=
0088997270999992022010511004+39350-074420FM-13+001099999V0209999C000019999999N999999999+00211+99999102011ADDMD1610321+9999SA1+0601REMSYN054ACYN4 46/// ///// 10021 40201 56032 91100 222// 00060=
0088997270999992022010512004+39350-074420FM-13+001099999V0209999C000019999999N999999999+00251+99999101971ADDMD1610251+9999SA1+0601REMSYN054ACYN4 46/// ///// 10025 40197 56025 91200 222// 00060=
0088997270999992022010513004+39350-074420FM-13+001099999V0209999C000019999999N999999999+00301+99999101871ADDMD1810171+9999SA1+0611REMSYN054ACYN4 46/// ///// 10030 40187 58017 91300 222// 00061=
0088997270999992022010514004+39350-074420FM-13+001099999V0209999C000019999999N999999999+00501+99999101811ADDMD1810201+9999SA1+0611REMSYN054ACYN4 46/// ///// 10050 40181 58020 91400 222// 00061=
0088997270999992022010515004+39350-074420FM-13+001099999V0209999C000019999999N999999999+00591+99999101701ADDMD1810271+9999SA1+0611REMSYN054ACYN4 46/// ///// 10059 40170 58027 91500 222// 00061=
0088997270999992022010516004+39350-074420FM-13+001099999V0209999C000019999999N999999999+00641+99999101591ADDMD1810281+9999SA1+0611REMSYN054ACYN4 46/// ///// 10064 40159 58028 91600 222// 00061=
0088997270999992022010517004+39350-074420FM-13+001099999V0209999C000019999999N999999999+00571+99999101411ADDMD1810401+9999SA1+0611REMSYN054ACYN4 46/// ///// 10057 40141 58040 91700 222// 00061=
0088997270999992022010518004+39350-074420FM-13+001099999V0209999C000019999999N999999999+00581+99999101331ADDMD1610371+9999SA1+0621REMSYN054ACYN4 46/// ///// 10058 40133 56037 91800 222// 00062=
0088997270999992022010519004+39350-074420FM-13+001099999V0209999C000019999999N999999999+00681+99999101161ADDMD1610431+9999SA1+0621REMSYN054ACYN4 46/// ///// 10068 40116 56043 91900 222// 00062=
0088997270999992022010520004+39350-074420FM-13+001099999V0209999C000019999999N999999999+00721+99999101101ADDMD1610311+9999SA1+0621REMSYN054ACYN4 46/// ///// 10072 40110 56031 92000 222// 00062=
0088997270999992022010521004+39350-074420FM-13+001099999V0209999C000019999999N999999999+00761+99999101051ADDMD1610281+9999SA1+0631REMSYN054ACYN4 46/// ///// 10076 40105 56028 92100 222// 00063=
0088997270999992022010522004+39350-074420FM-13+001099999V0209999C000019999999N999999999+00801+99999100991ADDMD1710171+9999SA1+0631REMSYN054ACYN4 46/// ///// 10080 40099 57017 92200 222// 00063=
0088997270999992022010523004+39350-074420FM-13+001099999V0209999C000019999999N999999999+00791+99999100901ADDMD1810201+9999SA1+0651REMSYN054ACYN4 46/// ///// 10079 40090 58020 92300 222// 00065=
0088997270999992022010600004+39350-074420FM-13+001099999V0209999C000019999999N999999999+00741+99999100861ADDMD1610191+9999SA1+0661REMSYN054ACYN4 46/// ///// 10074 40086 56019 90000 222// 00066=
0088997270999992022010601004+39350-074420FM-13+001099999V0209999C000019999999N999999999+00701+99999100871ADDMD1610121+9999SA1+0691REMSYN054ACYN4 46/// ///// 10070 40087 56012 90100 222// 00069=
0088997270999992022010602004+39350-074420FM-13+001099999V0209999C000019999999N999999999+00671+99999100821ADDMD1810081+9999SA1+0691REMSYN054ACYN4 46/// ///// 10067 40082 58008 90200 222// 00069=
0088997270999992022010603004+39350-074420FM-13+001099999V0209999C000019999999N999999999+00691+99999100791ADDMD1810071+9999SA1+0681REMSYN054ACYN4 46/// ///// 10069 40079 58007 90300 222// 00068=
0088997270999992022010604004+39350-074420FM-13+001099999V0209999C000019999999N999999999+00631+99999100771ADDMD1610101+9999SA1+0691REMSYN054ACYN4 46/// ///// 10063 40077 56010 90400 222// 00069=
0088997270999992022010605004+39350-074420FM-13+001099999V0209999C000019999999N999999999+00611+99999100761ADDMD1610061+9999SA1+0681REMSYN054ACYN4 46/// ///// 10061 40076 56006 90500 222// 00068=
0088997270999992022010606004+39350-074420FM-13+001099999V0209999C000019999999N999999999+00551+99999100751ADDMD1710041+9999SA1+0681REMSYN054ACYN4 46/// ///// 10055 40075 57004 90600 222// 00068=
0088997270999992022010607004+39350-074420FM-13+001099999V0209999C000019999999N999999999+00531+99999100841ADDMD1310071+9999SA1+0681REMSYN054ACYN4 46/// ///// 10053 40084 53007 90700 222// 00068=
0088997270999992022010608004+39350-074420FM-13+001099999V0209999C000019999999N999999999+00511+99999100911ADDMD1310151+9999SA1+0681REMSYN054ACYN4 46/// ///// 10051 40091 53015 90800 222// 00068=
0088997270999992022010609004+39350-074420FM-13+001099999V0209999C000019999999N999999999+00451+99999100971ADDMD1110221+9999SA1+0681REMSYN054ACYN4 46/// ///// 10045 40097 51022 90900 222// 00068=
0088997270999992022010610004+39350-074420FM-13+001099999V0209999C000019999999N999999999+00371+99999101041ADDMD1210201+9999SA1+0671REMSYN054ACYN4 46/// ///// 10037 40104 52020 91000 222// 00067=
0088997270999992022010611004+39350-074420FM-13+001099999V0209999C000019999999N999999999+00411+99999101161ADDMD1310251+9999SA1+0671REMSYN054ACYN4 46/// ///// 10041 40116 53025 91100 222// 00067=
0088997270999992022010612004+39350-074420FM-13+001099999V0209999C000019999999N999999999+00351+99999101301ADDMD1310331+9999SA1+0661REMSYN054ACYN4 46/// ///// 10035 40130 53033 91200 222// 00066=
0088997270999992022010613004+39350-074420FM-13+001099999V0209999C000019999999N999999999+00421+99999101401ADDMD1110361+9999SA1+0661REMSYN054ACYN4 46/// ///// 10042 40140 51036 91300 222// 00066=
0088997270999992022010614004+39350-074420FM-13+001099999V0209999C000019999999N999999999+00451+99999101561ADDMD1310401+9999SA1+0681REMSYN054ACYN4 46/// ///// 10045 40156 53040 91400 222// 00068=
0088997270999992022010615004+39350-074420FM-13+001099999V0209999C000019999999N999999999+00561+99999101621ADDMD1110321+9999SA1+0691REMSYN054ACYN4 46/// ///// 10056 40162 51032 91500 222// 00069=
0088997270999992022010616004+39350-074420FM-13+001099999V0209999C000019999999N999999999+00611+99999101581ADDMD1990181+9999SA1+0691REMSYN054ACYN4 46/// ///// 10061 40158 50018 91600 222// 00069=
0088997270999992022010617004+39350-074420FM-13+001099999V0209999C000019999999N999999999+00661+99999101541ADDMD1990001+9999SA1+0691REMSYN054ACYN4 46/// ///// 10066 40154 50000 91700 222// 00069=
0088997270999992022010618004+39350-074420FM-13+001099999V0209999C000019999999N999999999+00621+99999101471ADDMD1810151+9999SA1+0701REMSYN054ACYN4 46/// ///// 10062 40147 58015 91800 222// 00070=
0088997270999992022010619004+39350-074420FM-13+001099999V0209999C000019999999N999999999+00571+99999101441ADDMD1610141+9999SA1+0701REMSYN054ACYN4 46/// ///// 10057 40144 56014 91900 222// 00070=
0088997270999992022010620004+39350-074420FM-13+001099999V0209999C000019999999N999999999+00561+99999101401ADDMD1610141+9999SA1+0701REMSYN054ACYN4 46/// ///// 10056 40140 56014 92000 222// 00070=
0088997270999992022010621004+39350-074420FM-13+001099999V0209999C000019999999N999999999+00501+99999101461ADDMD1510001+9999SA1+0701REMSYN054ACYN4 46/// ///// 10050 40146 55000 92100 222// 00070=
0088997270999992022010622004+39350-074420FM-13+001099999V0209999C000019999999N999999999+00431+99999101561ADDMD1310121+9999SA1+0691REMSYN054ACYN4 46/// ///// 10043 40156 53012 92200 222// 00069=
0088997270999992022010623004+39350-074420FM-13+001099999V0209999C000019999999N999999999+00391+99999101561ADDMD1110161+9999SA1+0701REMSYN054ACYN4 46/// ///// 10039 40156 51016 92300 222// 00070=
0088997270999992022010700004+39350-074420FM-13+001099999V0209999C000019999999N999999999+00341+99999101581ADDMD1110121+9999SA1+0701REMSYN054ACYN4 46/// ///// 10034 40158 51012 90000 222// 00070=
0088997270999992022010701004+39350-074420FM-13+001099999V0209999C000019999999N999999999+00301+99999101501ADDMD1810061+9999SA1+0721REMSYN054ACYN4 46/// ///// 10030 40150 58006 90100 222// 00072=
0088997270999992022010702004+39350-074420FM-13+001099999V0209999C000019999999N999999999+00251+99999101321ADDMD1810241+9999SA1+0711REMSYN054ACYN4 46/// ///// 10025 40132 58024 90200 222// 00071=
0088997270999992022010703004+39350-074420FM-13+001099999V0209999C000019999999N999999999+00291+99999101221ADDMD1810361+9999SA1+0711REMSYN054ACYN4 46/// ///// 10029 40122 58036 90300 222// 00071=
0088997270999992022010704004+39350-074420FM-13+001099999V0209999C000019999999N999999999+00261+99999101191ADDMD1610311+9999SA1+0711REMSYN054ACYN4 46/// ///// 10026 40119 56031 90400 222// 00071=
0088997270999992022010705004+39350-074420FM-13+001099999V0209999C000019999999N999999999+00231+99999100991ADDMD1810331+9999SA1+0691REMSYN054ACYN4 46/// ///// 10023 40099 58033 90500 222// 00069=
0088997270999992022010706004+39350-074420FM-13+001099999V0209999C000019999999N999999999+00061+99999100931ADDMD1810291+9999SA1+0701REMSYN054ACYN4 46/// ///// 10006 40093 58029 90600 222// 00070=
0088997270999992022010707004+39350-074420FM-13+001099999V0209999C000019999999N999999999-00081+99999100771ADDMD1610421+9999SA1+0671REMSYN054ACYN4 46/// ///// 11008 40077 56042 90700 222// 00067=
0088997270999992022010708004+39350-074420FM-13+001099999V0209999C000019999999N999999999-00041+99999100711ADDMD1710281+9999SA1+0651REMSYN054ACYN4 46/// ///// 11004 40071 57028 90800 222// 00065=
0088997270999992022010709004+39350-074420FM-13+001099999V0209999C000019999999N999999999+00081+99999100521ADDMD1810411+9999SA1+0651REMSYN054ACYN4 46/// ///// 10008 40052 58041 90900 222// 00065=
0088997270999992022010710004+39350-074420FM-13+001099999V0209999C000019999999N999999999-00061+99999100631ADDMD1510141+9999SA1+0641REMSYN054ACYN4 46/// ///// 11006 40063 55014 91000 222// 00064=
0088997270999992022010711004+39350-074420FM-13+001099999V0209999C000019999999N999999999-00121+99999100811ADDMD1310101+9999SA1+0641REMSYN054ACYN4 46/// ///// 11012 40081 53010 91100 222// 00064=
0088997270999992022010712004+39350-074420FM-13+001099999V0209999C000019999999N999999999-00141+99999100951ADDMD1310431+9999SA1+0631REMSYN054ACYN4 46/// ///// 11014 40095 53043 91200 222// 00063=
0088997270999992022010713004+39350-074420FM-13+001099999V0209999C000019999999N999999999-00131+99999101041ADDMD1110411+9999SA1+0611REMSYN054ACYN4 46/// ///// 11013 40104 51041 91300 222// 00061=
0088997270999992022010714004+39350-074420FM-13+001099999V0209999C000019999999N999999999-00141+99999101161ADDMD1110351+9999SA1+0581REMSYN054ACYN4 46/// ///// 11014 40116 51035 91400 222// 00058=
0088997270999992022010715004+39350-074420FM-13+001099999V0209999C000019999999N999999999-00111+99999101341ADDMD1310391+9999SA1+0621REMSYN054ACYN4 46/// ///// 11011 40134 53039 91500 222// 00062=
0088997270999992022010716004+39350-074420FM-13+001099999V0209999C000019999999N999999999-00021+99999101341ADDMD1110301+9999SA1+0611REMSYN054ACYN4 46/// ///// 11002 40134 51030 91600 222// 00061=
0088997270999992022010717004+39350-074420FM-13+001099999V0209999C000019999999N999999999-00011+99999101261ADDMD1990101+9999SA1+0611REMSYN054ACYN4 46/// ///// 11001 40126 50010 91700 222// 00061=
0088997270999992022010718004+39350-074420FM-13+001099999V0209999C000019999999N999999999-00011+99999101271ADDMD1710071+9999SA1+0621REMSYN054ACYN4 46/// ///// 11001 40127 57007 91800 222// 00062=
0088997270999992022010719004+39350-074420FM-13+001099999V0209999C000019999999N999999999+00001+99999101421ADDMD1310081+9999SA1+0611REMSYN054ACYN4 46/// ///// 10000 40142 53008 91900 222// 00061=
0088997270999992022010720004+39350-074420FM-13+001099999V0209999C000019999999N999999999-00041+99999101591ADDMD1310331+9999SA1+0621REMSYN054ACYN4 46/// ///// 11004 40159 53033 92000 222// 00062=
0088997270999992022010721004+39350-074420FM-13+001099999V0209999C000019999999N999999999-00061+99999101751ADDMD1310481+9999SA1+0621REMSYN054ACYN4 46/// ///// 11006 40175 53048 92100 222// 00062=
0088997270999992022010722004+39350-074420FM-13+001099999V0209999C000019999999N999999999-00161+99999101911ADDMD1110491+9999SA1+0581REMSYN054ACYN4 46/// ///// 11016 40191 51049 92200 222// 00058=
0088997270999992022010723004+39350-074420FM-13+001099999V0209999C000019999999N999999999-00221+99999102081ADDMD1310491+9999SA1+0591REMSYN054ACYN4 46/// ///// 11022 40208 53049 92300 222// 00059=
0088997270999992022010800004+39350-074420FM-13+001099999V0209999C000019999999N999999999-00241+99999102191ADDMD1110441+9999SA1+0601REMSYN054ACYN4 46/// ///// 11024 40219 51044 90000 222// 00060=
0088997270999992022010801004+39350-074420FM-13+001099999V0209999C000019999999N999999999-00311+99999102311ADDMD1110401+9999SA1+0561REMSYN054ACYN4 46/// ///// 11031 40231 51040 90100 222// 00056=
0088997270999992022010802004+39350-074420FM-13+001099999V0209999C000019999999N999999999-00351+99999102431ADDMD1310351+9999SA1+0541REMSYN054ACYN4 46/// ///// 11035 40243 53035 90200 222// 00054=
0088997270999992022010803004+39350-074420FM-13+001099999V0209999C000019999999N999999999-00391+99999102491ADDMD1110301+9999SA1+0541REMSYN054ACYN4 46/// ///// 11039 40249 51030 90300 222// 00054=
0088997270999992022010804004+39350-074420FM-13+001099999V0209999C000019999999N999999999-00421+99999102621ADDMD1310311+9999SA1+0521REMSYN054ACYN4 46/// ///// 11042 40262 53031 90400 222// 00052=
0088997270999992022010805004+39350-074420FM-13+001099999V0209999C000019999999N999999999-00441+99999102671ADDMD1110241+9999SA1+0531REMSYN054ACYN4 46/// ///// 11044 40267 51024 90500 222// 00053=
0088997270999992022010806004+39350-074420FM-13+001099999V0209999C000019999999N999999999-00451+99999102751ADDMD1110261+9999SA1+0531REMSYN054ACYN4 46/// ///// 11045 40275 51026 90600 222// 00053=
0088997270999992022010807004+39350-074420FM-13+001099999V0209999C000019999999N999999999-00481+99999102861ADDMD1310241+9999SA1+0481REMSYN054ACYN4 46/// ///// 11048 40286 53024 90700 222// 00048=
0088997270999992022010808004+39350-074420FM-13+001099999V0209999C000019999999N999999999-00491+99999102961ADDMD1310291+9999SA1+0491REMSYN054ACYN4 46/// ///// 11049 40296 53029 90800 222// 00049=
0088997270999992022010809004+39350-074420FM-13+001099999V0209999C000019999999N999999999-00521+99999103061ADDMD1110311+9999SA1+0521REMSYN054ACYN4 46/// ///// 11052 40306 51031 90900 222// 00052=
0088997270999992022010810004+39350-074420FM-13+001099999V0209999C000019999999N999999999-00531+99999103191ADDMD1310331+9999SA1+0511REMSYN054ACYN4 46/// ///// 11053 40319 53033 91000 222// 00051=
0088997270999992022010811004+39350-074420FM-13+001099999V0209999C000019999999N999999999-00571+99999103331ADDMD1310371+9999SA1+0501REMSYN054ACYN4 46/// ///// 11057 40333 53037 91100 222// 00050=
0088997270999992022010812004+39350-074420FM-13+001099999V0209999C000019999999N999999999-00571+99999103411ADDMD1110351+9999SA1+0511REMSYN054ACYN4 46/// ///// 11057 40341 51035 91200 222// 00051=
0088997270999992022010813004+39350-074420FM-13+001099999V0209999C000019999999N999999999-00521+99999103511ADDMD1110321+9999SA1+0511REMSYN054ACYN4 46/// ///// 11052 40351 51032 91300 222// 00051=
0088997270999992022010814004+39350-074420FM-13+001099999V0209999C000019999999N999999999-00421+99999103691ADDMD1310361+9999SA1+0511REMSYN054ACYN4 46/// ///// 11042 40369 53036 91400 222// 00051=
0088997270999992022010815004+39350-074420FM-13+001099999V0209999C000019999999N999999999-00371+99999103791ADDMD1210381+9999SA1+0521REMSYN054ACYN4 46/// ///// 11037 40379 52038 91500 222// 00052=
0088997270999992022010816004+39350-074420FM-13+001099999V0209999C000019999999N999999999-00261+99999103771ADDMD1110261+9999SA1+0511REMSYN054ACYN4 46/// ///// 11026 40377 51026 91600 222// 00051=
0088997270999992022010817004+39350-074420FM-13+001099999V0209999C000019999999N999999999-00151+99999103721ADDMD1990031+9999SA1+0501REMSYN054ACYN4 46/// ///// 11015 40372 50003 91700 222// 00050=
0088997270999992022010818004+39350-074420FM-13+001099999V0209999C000019999999N999999999-00081+99999103671ADDMD1810121+9999SA1+0511REMSYN054ACYN4 46/// ///// 11008 40367 58012 91800 222// 00051=
0088997270999992022010819004+39350-074420FM-13+001099999V0209999C000019999999N999999999+00051+99999103711ADDMD1510061+9999SA1+0501REMSYN054ACYN4 46/// ///// 10005 40371 55006 91900 222// 00050=
0088997270999992022010820004+39350-074420FM-13+001099999V0209999C000019999999N999999999+00081+99999103681ADDMD1610041+9999SA1+0491REMSYN054ACYN4 46/// ///// 10008 40368 56004 92000 222// 00049=
0088997270999992022010821004+39350-074420FM-13+001099999V0209999C000019999999N999999999+00011+99999103711ADDMD1110041+9999SA1+0481REMSYN054ACYN4 46/// ///// 10001 40371 51004 92100 222// 00048=
0088997270999992022010822004+39350-074420FM-13+001099999V0209999C000019999999N999999999+00011+99999103741ADDMD1310031+9999SA1+0481REMSYN054ACYN4 46/// ///// 10001 40374 53003 92200 222// 00048=
0088997270999992022010823004+39350-074420FM-13+001099999V0209999C000019999999N999999999+00021+99999103761ADDMD1110081+9999SA1+0471REMSYN054ACYN4 46/// ///// 10002 40376 51008 92300 222// 00047=
0088997270999992022010900004+39350-074420FM-13+001099999V0209999C000019999999N999999999+00051+99999103831ADDMD1310121+9999SA1+0481REMSYN054ACYN4 46/// ///// 10005 40383 53012 90000 222// 00048=
0088997270999992022010901004+39350-074420FM-13+001099999V0209999C000019999999N999999999-00081+99999103841ADDMD1210101+9999SA1+0481REMSYN054ACYN4 46/// ///// 11008 40384 52010 90100 222// 00048=
0088997270999992022010902004+39350-074420FM-13+001099999V0209999C000019999999N999999999-00081+99999103761ADDMD1990001+9999SA1+0481REMSYN054ACYN4 46/// ///// 11008 40376 50000 90200 222// 00048=
0088997270999992022010903004+39350-074420FM-13+001099999V0209999C000019999999N999999999+00101+99999103651ADDMD1810181+9999SA1+0491REMSYN054ACYN4 46/// ///// 10010 40365 58018 90300 222// 00049=
0088997270999992022010904004+39350-074420FM-13+001099999V0209999C000019999999N999999999+00171+99999103501ADDMD1810341+9999SA1+0471REMSYN054ACYN4 46/// ///// 10017 40350 58034 90400 222// 00047=
0088997270999992022010905004+39350-074420FM-13+001099999V0209999C000019999999N999999999+00241+99999103651ADDMD1510111+9999SA1+0461REMSYN054ACYN4 46/// ///// 10024 40365 55011 90500 222// 00046=
0088997270999992022010906004+39350-074420FM-13+001099999V0209999C000019999999N999999999+00171+99999103441ADDMD1810211+9999SA1+0451REMSYN054ACYN4 46/// ///// 10017 40344 58021 90600 222// 00045=
0088997270999992022010907004+39350-074420FM-13+001099999V0209999C000019999999N999999999+00061+99999103471ADDMD1810031+9999SA1+0451REMSYN054ACYN4 46/// ///// 10006 40347 58003 90700 222// 00045=
0088997270999992022010908004+39350-074420FM-13+001099999V0209999C000019999999N999999999+00081+99999103401ADDMD1610251+9999SA1+0431REMSYN054ACYN4 46/// ///// 10008 40340 56025 90800 222// 00043=
0088997270999992022010909004+39350-074420FM-13+001099999V0209999C000019999999N999999999+00251+99999103241ADDMD1810201+9999SA1+0401REMSYN054ACYN4 46/// ///// 10025 40324 58020 90900 222// 00040=
0088997270999992022010910004+39350-074420FM-13+001099999V0209999C000019999999N999999999+00361+99999103121ADDMD1810351+9999SA1+0381REMSYN054ACYN4 46/// ///// 10036 40312 58035 91000 222// 00038=
0088997270999992022010911004+39350-074420FM-13+001099999V0209999C000019999999N999999999+00401+99999103031ADDMD1610371+9999SA1+0391REMSYN054ACYN4 46/// ///// 10040 40303 56037 91100 222// 00039=
0088997270999992022010912004+39350-074420FM-13+001099999V0209999C000019999999N999999999+00451+99999102871ADDMD1810371+9999SA1+0401REMSYN054ACYN4 46/// ///// 10045 40287 58037 91200 222// 00040=
0088997270999992022010913004+39350-074420FM-13+001099999V0209999C000019999999N999999999+00511+99999102841ADDMD1610281+9999SA1+0431REMSYN054ACYN4 46/// ///// 10051 40284 56028 91300 222// 00043=
0088997270999992022010914004+39350-074420FM-13+001099999V0209999C000019999999N999999999+00601+99999102761ADDMD1610271+9999SA1+0451REMSYN054ACYN4 46/// ///// 10060 40276 56027 91400 222// 00045=
0088997270999992022010915004+39350-074420FM-13+001099999V0209999C000019999999N999999999+00601+99999102721ADDMD1810151+9999SA1+0471REMSYN054ACYN4 46/// ///// 10060 40272 58015 91500 222// 00047=
0088997270999992022010916004+39350-074420FM-13+001099999V0209999C000019999999N999999999+00571+99999102601ADDMD1810241+9999SA1+0501REMSYN054ACYN4 46/// ///// 10057 40260 58024 91600 222// 00050=
0088997270999992022010917004+39350-074420FM-13+001099999V0209999C000019999999N999999999+00571+99999102411ADDMD1810351+9999SA1+0521REMSYN054ACYN4 46/// ///// 10057 40241 58035 91700 222// 00052=
0088997270999992022010918004+39350-074420FM-13+001099999V0209999C000019999999N999999999+00601+99999102201ADDMD1810521+9999SA1+0531REMSYN054ACYN4 46/// ///// 10060 40220 58052 91800 222// 00053=
0088997270999992022010919004+39350-074420FM-13+001099999V0209999C000019999999N999999999+00591+99999102121ADDMD1610481+9999SA1+0541REMSYN054ACYN4 46/// ///// 10059 40212 56048 91900 222// 00054=
0088997270999992022010920004+39350-074420FM-13+001099999V0209999C000019999999N999999999+00571+99999102021ADDMD1610391+9999SA1+0541REMSYN054ACYN4 46/// ///// 10057 40202 56039 92000 222// 00054=
0088997270999992022010921004+39350-074420FM-13+001099999V0209999C000019999999N999999999+00591+99999101881ADDMD1810321+9999SA1+0541REMSYN054ACYN4 46/// ///// 10059 40188 58032 92100 222// 00054=
0088997270999992022010922004+39350-074420FM-13+001099999V0209999C000019999999N999999999+00581+99999101851ADDMD1610271+9999SA1+0551REMSYN054ACYN4 46/// ///// 10058 40185 56027 92200 222// 00055=
0088997270999992022010923004+39350-074420FM-13+001099999V0209999C000019999999N999999999+00621+99999101841ADDMD1610181+9999SA1+0551REMSYN054ACYN4 46/// ///// 10062 40184 56018 92300 222// 00055=
0088997270999992022011000004+39350-074420FM-13+001099999V0209999C000019999999N999999999+00681+99999101791ADDMD1810091+9999SA1+0551REMSYN054ACYN4 46/// ///// 10068 40179 58009 90000 222// 00055=
0088997270999992022011001004+39350-074420FM-13+001099999V0209999C000019999999N999999999+00681+99999101751ADDMD1810101+9999SA1+0541REMSYN054ACYN4 46/// ///// 10068 40175 58010 90100 222// 00054=
0088997270999992022011002004+39350-074420FM-13+001099999V0209999C000019999999N999999999+00691+99999101721ADDMD1610121+9999SA1+0531REMSYN054ACYN4 46/// ///// 10069 40172 56012 90200 222// 00053=
0088997270999992022011003004+39350-074420FM-13+001099999V0209999C000019999999N999999999+00701+99999101691ADDMD1610101+9999SA1+0531REMSYN054ACYN4 46/// ///// 10070 40169 56010 90300 222// 00053=
0088997270999992022011004004+39350-074420FM-13+001099999V0209999C000019999999N999999999+00671+99999101671ADDMD1610081+9999SA1+0531REMSYN054ACYN4 46/// ///// 10067 40167 56008 90400 222// 00053=
0088997270999992022011005004+39350-074420FM-13+001099999V0209999C000019999999N999999999+00661+99999101691ADDMD1610031+9999SA1+0531REMSYN054ACYN4 46/// ///// 10066 40169 56003 90500 222// 00053=
0088997270999992022011006004+39350-074420FM-13+001099999V0209999C000019999999N999999999+00561+99999101711ADDMD1410001+9999SA1+0541REMSYN054ACYN4 46/// ///// 10056 40171 54000 90600 222// 00054=
0088997270999992022011007004+39350-074420FM-13+001099999V0209999C000019999999N999999999+00431+99999101821ADDMD1310151+9999SA1+0561REMSYN054ACYN4 46/// ///// 10043 40182 53015 90700 222// 00056=
0088997270999992022011008004+39350-074420FM-13+001099999V0209999C000019999999N999999999+00381+99999101841ADDMD1210151+9999SA1+0561REMSYN054ACYN4 46/// ///// 10038 40184 52015 90800 222// 00056=
0088997270999992022011009004+39350-074420FM-13+001099999V0209999C000019999999N999999999+00301+99999101871ADDMD1110161+9999SA1+0571REMSYN054ACYN4 46/// ///// 10030 40187 51016 90900 222// 00057=
0088997270999992022011010004+39350-074420FM-13+001099999V0209999C000019999999N999999999+00221+99999101951ADDMD1310131+9999SA1+0561REMSYN054ACYN4 46/// ///// 10022 40195 53013 91000 222// 00056=
0088997270999992022011011004+39350-074420FM-13+001099999V0209999C000019999999N999999999+00101+99999102001ADDMD1310161+9999SA1+0551REMSYN054ACYN4 46/// ///// 10010 40200 53016 91100 222// 00055=
0088997270999992022011012004+39350-074420FM-13+001099999V0209999C000019999999N999999999+00021+99999102131ADDMD1310261+9999SA1+0551REMSYN054ACYN4 46/// ///// 10002 40213 53026 91200 222// 00055=
0088997270999992022011013004+39350-074420FM-13+001099999V0209999C000019999999N999999999+00001+99999102271ADDMD1310321+9999SA1+0531REMSYN054ACYN4 46/// ///// 10000 40227 53032 91300 222// 00053=
0088997270999992022011014004+39350-074420FM-13+001099999V0209999C000019999999N999999999+00031+99999102311ADDMD1110311+9999SA1+0541REMSYN054ACYN4 46/// ///// 10003 40231 51031 91400 222// 00054=
0088997270999992022011015004+39350-074420FM-13+001099999V0209999C000019999999N999999999+00031+99999102341ADDMD1110211+9999SA1+0551REMSYN054ACYN4 46/// ///// 10003 40234 51021 91500 222// 00055=
0088997270999992022011016004+39350-074420FM-13+001099999V0209999C000019999999N999999999+00031+99999102381ADDMD1210111+9999SA1+0541REMSYN054ACYN4 46/// ///// 10003 40238 52011 91600 222// 00054=
0088997270999992022011017004+39350-074420FM-13+001099999V0209999C000019999999N999999999+00031+99999102291ADDMD1990001+9999SA1+0541REMSYN054ACYN4 46/// ///// 10003 40229 50000 91700 222// 00054=
0088997270999992022011018004+39350-074420FM-13+001099999V0209999C000019999999N999999999+00081+99999102191ADDMD1810151+9999SA1+0551REMSYN054ACYN4 46/// ///// 10008 40219 58015 91800 222// 00055=
0088997270999992022011019004+39350-074420FM-13+001099999V0209999C000019999999N999999999+00011+99999102211ADDMD1610171+9999SA1+0551REMSYN054ACYN4 46/// ///// 10001 40221 56017 91900 222// 00055=
0088997270999992022011020004+39350-074420FM-13+001099999V0209999C000019999999N999999999-00051+99999102261ADDMD1510031+9999SA1+0551REMSYN054ACYN4 46/// ///// 11005 40226 55003 92000 222// 00055=
0088997270999992022011021004+39350-074420FM-13+001099999V0209999C000019999999N999999999-00101+99999102251ADDMD1210061+9999SA1+0551REMSYN054ACYN4 46/// ///// 11010 40225 52006 92100 222// 00055=
0088997270999992022011022004+39350-074420FM-13+001099999V0209999C000019999999N999999999-00171+99999102311ADDMD1310101+9999SA1+0531REMSYN054ACYN4 46/// ///// 11017 40231 53010 92200 222// 00053=
0088997270999992022011023004+39350-074420FM-13+001099999V0209999C000019999999N999999999-00211+99999102351ADDMD1310091+9999SA1+0511REMSYN054ACYN4 46/// ///// 11021 40235 53009 92300 222// 00051=
0088997270999992022011100004+39350-074420FM-13+001099999V0209999C000019999999N999999999-00241+99999102351ADDMD1110101+9999SA1+0481REMSYN054ACYN4 46/// ///// 11024 40235 51010 90000 222// 00048=
0088997270999992022011101004+39350-074420FM-13+001099999V0209999C000019999999N999999999-00261+99999102351ADDMD1110041+9999SA1+0481REMSYN054ACYN4 46/// ///// 11026 40235 51004 90100 222// 00048=
0088997270999992022011102004+39350-074420FM-13+001099999V0209999C000019999999N999999999-00271+99999102351ADDMD1410001+9999SA1+0471REMSYN054ACYN4 46/// ///// 11027 40235 54000 90200 222// 00047=
0088997270999992022011103004+39350-074420FM-13+001099999V0209999C000019999999N999999999-00301+99999102401ADDMD1310051+9999SA1+0461REMSYN054ACYN4 46/// ///// 11030 40240 53005 90300 222// 00046=
0088997270999992022011104004+39350-074420FM-13+001099999V0209999C000019999999N999999999-00341+99999102471ADDMD1310121+9999SA1+0511REMSYN054ACYN4 46/// ///// 11034 40247 53012 90400 222// 00051=
0088997270999992022011105004+39350-074420FM-13+001099999V0209999C000019999999N999999999-00351+99999102541ADDMD1310191+9999SA1+0511REMSYN054ACYN4 46/// ///// 11035 40254 53019 90500 222// 00051=
0088997270999992022011106004+39350-074420FM-13+001099999V0209999C000019999999N999999999-00361+99999102581ADDMD1110181+9999SA1+0511REMSYN054ACYN4 46/// ///// 11036 40258 51018 90600 222// 00051=
0088997270999992022011107004+39350-074420FM-13+001099999V0209999C000019999999N999999999-00361+99999102651ADDMD1210181+9999SA1+0491REMSYN054ACYN4 46/// ///// 11036 40265 52018 90700 222// 00049=
0088997270999992022011108004+39350-074420FM-13+001099999V0209999C000019999999N999999999-00391+99999102751ADDMD1310211+9999SA1+0451REMSYN054ACYN4 46/// ///// 11039 40275 53021 90800 222// 00045=
0088997270999992022011109004+39350-074420FM-13+001099999V0209999C000019999999N999999999-00441+99999102851ADDMD1310271+9999SA1+0441REMSYN054ACYN4 46/// ///// 11044 40285 53027 90900 222// 00044=
0088997270999992022011110004+39350-074420FM-13+001099999V0209999C000019999999N999999999-00551+99999102991ADDMD1310341+9999SA1+0441REMSYN054ACYN4 46/// ///// 11055 40299 53034 91000 222// 00044=
0088997270999992022011111004+39350-074420FM-13+001099999V0209999C000019999999N999999999-00621+99999103171ADDMD1310421+9999SA1+0441REMSYN054ACYN4 46/// ///// 11062 40317 53042 91100 222// 00044=
0088997270999992022011112004+39350-074420FM-13+001099999V0209999C000019999999N999999999-00681+99999103321ADDMD1310471+9999SA1+0431REMSYN054ACYN4 46/// ///// 11068 40332 53047 91200 222// 00043=
0088997270999992022011113004+39350-074420FM-13+001099999V0209999C000019999999N999999999-00661+99999103371ADDMD1110381+9999SA1+0441REMSYN054ACYN4 46/// ///// 11066 40337 51038 91300 222// 00044=
0088997270999992022011114004+39350-074420FM-13+001099999V0209999C000019999999N999999999-00601+99999103451ADDMD1110281+9999SA1+0441REMSYN054ACYN4 46/// ///// 11060 40345 51028 91400 222// 00044=
0088997270999992022011115004+39350-074420FM-13+001099999V0209999C000019999999N999999999-00551+99999103491ADDMD1110171+9999SA1+0481REMSYN054ACYN4 46/// ///// 11055 40349 51017 91500 222// 00048=
0088997270999992022011116004+39350-074420FM-13+001099999V0209999C000019999999N999999999-00501+99999103461ADDMD1990091+9999SA1+0471REMSYN054ACYN4 46/// ///// 11050 40346 50009 91600 222// 00047=
0088997270999992022011117004+39350-074420FM-13+001099999V0209999C000019999999N999999999-00461+99999103421ADDMD1810031+9999SA1+0451REMSYN054ACYN4 46/// ///// 11046 40342 58003 91700 222// 00045=
0088997270999992022011118004+39350-074420FM-13+001099999V0209999C000019999999N999999999-00421+99999103371ADDMD1810121+9999SA1+0461REMSYN054ACYN4 46/// ///// 11042 40337 58012 91800 222// 00046=
0088997270999992022011119004+39350-074420FM-13+001099999V0209999C000019999999N999999999-00401+99999103361ADDMD1610101+9999SA1+0461REMSYN054ACYN4 46/// ///// 11040 40336 56010 91900 222// 00046=
0088997270999992022011120004+39350-074420FM-13+001099999V0209999C000019999999N999999999-00371+99999103401ADDMD1510001+9999SA1+0471REMSYN054ACYN4 46/// ///// 11037 40340 55000 92000 222// 00047=
0088997270999992022011121004+39350-074420FM-13+001099999V0209999C000019999999N999999999-00411+99999103441ADDMD1310071+9999SA1+0461REMSYN054ACYN4 46/// ///// 11041 40344 53007 92100 222// 00046=
0088997270999992022011122004+39350-074420FM-13+001099999V0209999C000019999999N999999999-00441+99999103521ADDMD1310161+9999SA1+0441REMSYN054ACYN4 46/// ///// 11044 40352 53016 92200 222// 00044=
0088997270999992022011123004+39350-074420FM-13+001099999V0209999C000019999999N999999999-00491+99999103551ADDMD1110151+9999SA1+0431REMSYN054ACYN4 46/// ///// 11049 40355 51015 92300 222// 00043=
0088997270999992022011200004+39350-074420FM-13+001099999V0209999C000019999999N999999999-00491+99999103521ADDMD1990081+9999SA1+0421REMSYN054ACYN4 46/// ///// 11049 40352 50008 90000 222// 00042=
0088997270999992022011201004+39350-074420FM-13+001099999V0209999C000019999999N999999999-00531+99999103541ADDMD1990001+9999SA1+0431REMSYN054ACYN4 46/// ///// 11053 40354 50000 90100 222// 00043=
0088997270999992022011202004+39350-074420FM-13+001099999V0209999C000019999999N999999999-00561+99999103541ADDMD1510001+9999SA1+0431REMSYN054ACYN4 46/// ///// 11056 40354 55000 90200 222// 00043=
0088997270999992022011203004+39350-074420FM-13+001099999V0209999C000019999999N999999999-00571+99999103481ADDMD1810041+9999SA1+0371REMSYN054ACYN4 46/// ///// 11057 40348 58004 90300 222// 00037=
0088997270999992022011204004+39350-074420FM-13+001099999V0209999C000019999999N999999999-00501+99999103451ADDMD1810091+9999SA1+0391REMSYN054ACYN4 46/// ///// 11050 40345 58009 90400 222// 00039=
0088997270999992022011205004+39350-074420FM-13+001099999V0209999C000019999999N999999999-00421+99999103351ADDMD1810191+9999SA1+0391REMSYN054ACYN4 46/// ///// 11042 40335 58019 90500 222// 00039=
0088997270999992022011206004+39350-074420FM-13+001099999V0209999C000019999999N999999999-00321+99999103251ADDMD1810231+9999SA1+0371REMSYN054ACYN4 46/// ///// 11032 40325 58023 90600 222// 00037=
0088997270999992022011207004+39350-074420FM-13+001099999V0209999C000019999999N999999999-00251+99999103231ADDMD1610221+9999SA1+0371REMSYN054ACYN4 46/// ///// 11025 40323 56022 90700 222// 00037=
0088997270999992022011208004+39350-074420FM-13+001099999V0209999C000019999999N999999999-00141+99999103071ADDMD1810281+9999SA1+0381REMSYN054ACYN4 46/// ///// 11014 40307 58028 90800 222// 00038=
0088997270999992022011209004+39350-074420FM-13+001099999V0209999C000019999999N999999999-00061+99999102961ADDMD1810291+9999SA1+0361REMSYN054ACYN4 46/// ///// 11006 40296 58029 90900 222// 00036=
0088997270999992022011210004+39350-074420FM-13+001099999V0209999C000019999999N999999999+00031+99999102901ADDMD1610331+9999SA1+0361REMSYN054ACYN4 46/// ///// 10003 40290 56033 91000 222// 00036=
0088997270999992022011211004+39350-074420FM-13+001099999V0209999C000019999999N999999999+00111+99999102801ADDMD1610271+9999SA1+0341REMSYN054ACYN4 46/// ///// 10011 40280 56027 91100 222// 00034=
0088997270999992022011212004+39350-074420FM-13+001099999V0209999C000019999999N999999999+00201+99999102721ADDMD1810241+9999SA1+0271REMSYN054ACYN4 46/// ///// 10020 40272 58024 91200 222// 00027=
0088997270999992022011213004+39350-074420FM-13+001099999V0209999C000019999999N999999999+00241+99999102661ADDMD1610241+9999SA1+0271REMSYN054ACYN4 46/// ///// 10024 40266 56024 91300 222// 00027=
0088997270999992022011214004+39350-074420FM-13+001099999V0209999C000019999999N999999999+00281+99999102641ADDMD1610161+9999SA1+0301REMSYN054ACYN4 46/// ///// 10028 40264 56016 91400 222// 00030=
0088997270999992022011215004+39350-074420FM-13+001099999V0209999C000019999999N999999999+00321+99999102591ADDMD1610131+9999SA1+0331REMSYN054ACYN4 46/// ///// 10032 40259 56013 91500 222// 00033=
0088997270999992022011216004+39350-074420FM-13+001099999V0209999C000019999999N999999999+00321+99999102421ADDMD1810241+9999SA1+0361REMSYN054ACYN4 46/// ///// 10032 40242 58024 91600 222// 00036=
0088997270999992022011217004+39350-074420FM-13+001099999V0209999C000019999999N999999999+00341+99999102261ADDMD1810381+9999SA1+0391REMSYN054ACYN4 46/// ///// 10034 40226 58038 91700 222// 00039=
0088997270999992022011218004+39350-074420FM-13+001099999V0209999C000019999999N999999999+00391+99999102161ADDMD1610431+9999SA1+0421REMSYN054ACYN4 46/// ///// 10039 40216 56043 91800 222// 00042=
0088997270999992022011219004+39350-074420FM-13+001099999V0209999C000019999999N999999999+00461+99999102051ADDMD1610371+9999SA1+0451REMSYN054ACYN4 46/// ///// 10046 40205 56037 91900 222// 00045=
0088997270999992022011220004+39350-074420FM-13+001099999V0209999C000019999999N999999999+00501+99999102031ADDMD1610231+9999SA1+0471REMSYN054ACYN4 46/// ///// 10050 40203 56023 92000 222// 00047=
0088997270999992022011221004+39350-074420FM-13+001099999V0209999C000019999999N999999999+00521+99999102021ADDMD1610141+9999SA1+0481REMSYN054ACYN4 46/// ///// 10052 40202 56014 92100 222// 00048=
0088997270999992022011222004+39350-074420FM-13+001099999V0209999C000019999999N999999999+00491+99999102011ADDMD1710041+9999SA1+0451REMSYN054ACYN4 46/// ///// 10049 40201 57004 92200 222// 00045=
0088997270999992022011223004+39350-074420FM-13+001099999V0209999C000019999999N999999999+00461+99999102031ADDMD1410001+9999SA1+0451REMSYN054ACYN4 46/// ///// 10046 40203 54000 92300 222// 00045=
0088997270999992022011300004+39350-074420FM-13+001099999V0209999C000019999999N999999999+00411+99999102061ADDMD1310041+9999SA1+0431REMSYN054ACYN4 46/// ///// 10041 40206 53004 90000 222// 00043=
0088997270999992022011301004+39350-074420FM-13+001099999V0209999C000019999999N999999999+00411+99999102091ADDMD1310081+9999SA1+0411REMSYN054ACYN4 46/// ///// 10041 40209 53008 90100 222// 00041=
0088997270999992022011302004+39350-074420FM-13+001099999V0209999C000019999999N999999999+00421+99999102071ADDMD1110041+9999SA1+0411REMSYN054ACYN4 46/// ///// 10042 40207 51004 90200 222// 00041=
0088997270999992022011303004+39350-074420FM-13+001099999V0209999C000019999999N999999999+00411+99999102031ADDMD1810031+9999SA1+0401REMSYN054ACYN4 46/// ///// 10041 40203 58003 90300 222// 00040=
0088997270999992022011304004+39350-074420FM-13+001099999V0209999C000019999999N999999999+00501+99999102001ADDMD1810091+9999SA1+0391REMSYN054ACYN4 46/// ///// 10050 40200 58009 90400 222// 00039=
0088997270999992022011305004+39350-074420FM-13+001099999V0209999C000019999999N999999999+00531+99999101961ADDMD1710111+9999SA1+0391REMSYN054ACYN4 46/// ///// 10053 40196 57011 90500 222// 00039=
0088997270999992022011306004+39350-074420FM-13+001099999V0209999C000019999999N999999999+00481+99999101931ADDMD1710101+9999SA1+0391REMSYN054ACYN4 46/// ///// 10048 40193 57010 90600 222// 00039=
0088997270999992022011307004+39350-074420FM-13+001099999V0209999C000019999999N999999999+00461+99999101911ADDMD1610091+9999SA1+0391REMSYN054ACYN4 46/// ///// 10046 40191 56009 90700 222// 00039=
0088997270999992022011308004+39350-074420FM-13+001099999V0209999C000019999999N999999999+00451+99999101871ADDMD1810091+9999SA1+0401REMSYN054ACYN4 46/// ///// 10045 40187 58009 90800 222// 00040=
0088997270999992022011309004+39350-074420FM-13+001099999V0209999C000019999999N999999999+00411+99999101811ADDMD1810121+9999SA1+0401REMSYN054ACYN4 46/// ///// 10041 40181 58012 90900 222// 00040=
0088997270999992022011310004+39350-074420FM-13+001099999V0209999C000019999999N999999999+00381+99999101781ADDMD1610131+9999SA1+0391REMSYN054ACYN4 46/// ///// 10038 40178 56013 91000 222// 00039=
0088997270999992022011311004+39350-074420FM-13+001099999V0209999C000019999999N999999999+00321+99999101751ADDMD1610121+9999SA1+0401REMSYN054ACYN4 46/// ///// 10032 40175 56012 91100 222// 00040=
0088997270999992022011312004+39350-074420FM-13+001099999V0209999C000019999999N999999999+00321+99999101741ADDMD1610071+9999SA1+0421REMSYN054ACYN4 46/// ///// 10032 40174 56007 91200 222// 00042=
0088997270999992022011313004+39350-074420FM-13+001099999V0209999C000019999999N999999999+00321+99999101751ADDMD1610031+9999SA1+0421REMSYN054ACYN4 46/// ///// 10032 40175 56003 91300 222// 00042=
0088997270999992022011314004+39350-074420FM-13+001099999V0209999C000019999999N999999999+00431+99999101761ADDMD1410001+9999SA1+0421REMSYN054ACYN4 46/// ///// 10043 40176 54000 91400 222// 00042=
0088997270999992022011315004+39350-074420FM-13+001099999V0209999C000019999999N999999999+00291+99999101751ADDMD1410001+9999SA1+0421REMSYN054ACYN4 46/// ///// 10029 40175 54000 91500 222// 00042=
0088997270999992022011316004+39350-074420FM-13+001099999V0209999C000019999999N999999999+00331+99999101701ADDMD1810051+9999SA1+0411REMSYN054ACYN4 46/// ///// 10033 40170 58005 91600 222// 00041=
0088997270999992022011317004+39350-074420FM-13+001099999V0209999C000019999999N999999999+00351+99999101591ADDMD1810171+9999SA1+0421REMSYN054ACYN4 46/// ///// 10035 40159 58017 91700 222// 00042=
0088997270999992022011318004+39350-074420FM-13+001099999V0209999C000019999999N999999999+00391+99999101491ADDMD1810261+9999SA1+0431REMSYN054ACYN4 46/// ///// 10039 40149 58026 91800 222// 00043=
0088997270999992022011319004+39350-074420FM-13+001099999V0209999C000019999999N999999999+00451+99999101411ADDMD1610291+9999SA1+0441REMSYN054ACYN4 46/// ///// 10045 40141 56029 91900 222// 00044=
0088997270999992022011320004+39350-074420FM-13+001099999V0209999C000019999999N999999999+00481+99999101351ADDMD1610241+9999SA1+0441REMSYN054ACYN4 46/// ///// 10048 40135 56024 92000 222// 00044=
0088997270999992022011321004+39350-074420FM-13+001099999V0209999C000019999999N999999999+00541+99999101301ADDMD1610191+9999SA1+0441REMSYN054ACYN4 46/// ///// 10054 40130 56019 92100 222// 00044=
0088997270999992022011322004+39350-074420FM-13+001099999V0209999C000019999999N999999999+00461+99999101281ADDMD1610131+9999SA1+0451REMSYN054ACYN4 46/// ///// 10046 40128 56013 92200 222// 00045=
0088997270999992022011323004+39350-074420FM-13+001099999V0209999C000019999999N999999999+00571+99999101261ADDMD1610091+9999SA1+0451REMSYN054ACYN4 46/// ///// 10057 40126 56009 92300 222// 00045=
0088997270999992022011400004+39350-074420FM-13+001099999V0209999C000019999999N999999999+00601+99999101261ADDMD1710041+9999SA1+0431REMSYN054ACYN4 46/// ///// 10060 40126 57004 90000 222// 00043=
0088997270999992022011401004+39350-074420FM-13+001099999V0209999C000019999999N999999999+00611+99999101191ADDMD1810091+9999SA1+0461REMSYN054ACYN4 46/// ///// 10061 40119 58009 90100 222// 00046=
0088997270999992022011402004+39350-074420FM-13+001099999V0209999C000019999999N999999999+00501+99999101141ADDMD1810121+9999SA1+0461REMSYN054ACYN4 46/// ///// 10050 40114 58012 90200 222// 00046=
0088997270999992022011403004+39350-074420FM-13+001099999V0209999C000019999999N999999999+00521+99999101061ADDMD1810201+9999SA1+0451REMSYN054ACYN4 46/// ///// 10052 40106 58020 90300 222// 00045=
0088997270999992022011404004+39350-074420FM-13+001099999V0209999C000019999999N999999999+00511+99999100991ADDMD1810201+9999SA1+0451REMSYN054ACYN4 46/// ///// 10051 40099 58020 90400 222// 00045=
0088997270999992022011405004+39350-074420FM-13+001099999V0209999C000019999999N999999999+00471+99999100931ADDMD1610211+9999SA1+0451REMSYN054ACYN4 46/// ///// 10047 40093 56021 90500 222// 00045=
0088997270999992022011406004+39350-074420FM-13+001099999V0209999C000019999999N999999999+00431+99999100861ADDMD1710201+9999SA1+0451REMSYN054ACYN4 46/// ///// 10043 40086 57020 90600 222// 00045=
0088997270999992022011407004+39350-074420FM-13+001099999V0209999C000019999999N999999999+00391+99999100841ADDMD1610151+9999SA1+0421REMSYN054ACYN4 46/// ///// 10039 40084 56015 90700 222// 00042=
0088997270999992022011408004+39350-074420FM-13+001099999V0209999C000019999999N999999999+00341+99999100781ADDMD1610151+9999SA1+0411REMSYN054ACYN4 46/// ///// 10034 40078 56015 90800 222// 00041=
0088997270999992022011409004+39350-074420FM-13+001099999V0209999C000019999999N999999999+00341+99999100721ADDMD1810141+9999SA1+0411REMSYN054ACYN4 46/// ///// 10034 40072 58014 90900 222// 00041=
0088997270999992022011410004+39350-074420FM-13+001099999V0209999C000019999999N999999999+00361+99999100701ADDMD1610141+9999SA1+0441REMSYN054ACYN4 46/// ///// 10036 40070 56014 91000 222// 00044=
0088997270999992022011411004+39350-074420FM-13+001099999V0209999C000019999999N999999999+00371+99999100701ADDMD1610081+9999SA1+0451REMSYN054ACYN4 46/// ///// 10037 40070 56008 91100 222// 00045=
0088997270999992022011412004+39350-074420FM-13+001099999V0209999C000019999999N999999999+00381+99999100691ADDMD1710031+9999SA1+0451REMSYN054ACYN4 46/// ///// 10038 40069 57003 91200 222// 00045=
0088997270999992022011413004+39350-074420FM-13+001099999V0209999C000019999999N999999999+00421+99999100711ADDMD1410001+9999SA1+0441REMSYN054ACYN4 46/// ///// 10042 40071 54000 91300 222// 00044=
0088997270999992022011414004+39350-074420FM-13+001099999V0209999C000019999999N999999999+00491+99999100721ADDMD1410001+9999SA1+0441REMSYN054ACYN4 46/// ///// 10049 40072 54000 91400 222// 00044=
0088997270999992022011415004+39350-074420FM-13+001099999V0209999C000019999999N999999999+00481+99999100701ADDMD1410001+9999SA1+0431REMSYN054ACYN4 46/// ///// 10048 40070 54000 91500 222// 00043=
0088997270999992022011416004+39350-074420FM-13+001099999V0209999C000019999999N999999999+00601+99999100711ADDMD1410001+9999SA1+0441REMSYN054ACYN4 46/// ///// 10060 40071 54000 91600 222// 00044=
0088997270999992022011417004+39350-074420FM-13+001099999V0209999C000019999999N999999999+00731+99999100671ADDMD1810051+9999SA1+0441REMSYN054ACYN4 46/// ///// 10073 40067 58005 91700 222// 00044=
0088997270999992022011418004+39350-074420FM-13+001099999V0209999C000019999999N999999999+00771+99999100621ADDMD1810081+9999SA1+0441REMSYN054ACYN4 46/// ///// 10077 40062 58008 91800 222// 00044=
0088997270999992022011419004+39350-074420FM-13+001099999V0209999C000019999999N999999999+00821+99999100651ADDMD1510061+9999SA1+0451REMSYN054ACYN4 46/// ///// 10082 40065 55006 91900 222// 00045=
0088997270999992022011420004+39350-074420FM-13+001099999V0209999C000019999999N999999999+00791+99999100711ADDMD1310041+9999SA1+0431REMSYN054ACYN4 46/// ///// 10079 40071 53004 92000 222// 00043=
0088997270999992022011421004+39350-074420FM-13+001099999V0209999C000019999999N999999999+00721+99999100781ADDMD1310161+9999SA1+0401REMSYN054ACYN4 46/// ///// 10072 40078 53016 92100 222// 00040=
0088997270999992022011422004+39350-074420FM-13+001099999V0209999C000019999999N999999999+00671+99999100841ADDMD1210191+9999SA1+0391REMSYN054ACYN4 46/// ///// 10067 40084 52019 92200 222// 00039=
0088997270999992022011423004+39350-074420FM-13+001099999V0209999C000019999999N999999999+00551+99999100951ADDMD1310241+9999SA1+0381REMSYN054ACYN4 46/// ///// 10055 40095 53024 92300 222// 00038=
0088997270999992022011500004+39350-074420FM-13+001099999V0209999C000019999999N999999999+00401+99999101081ADDMD1310301+9999SA1+0381REMSYN054ACYN4 46/// ///// 10040 40108 53030 90000 222// 00038=
0088997270999992022011501004+39350-074420FM-13+001099999V0209999C000019999999N999999999+00191+99999101201ADDMD1310361+9999SA1+0391REMSYN054ACYN4 46/// ///// 10019 40120 53036 90100 222// 00039=
0088997270999992022011502004+39350-074420FM-13+001099999V0209999C000019999999N999999999+00081+99999101291ADDMD1110341+9999SA1+0421REMSYN054ACYN4 46/// ///// 10008 40129 51034 90200 222// 00042=
0088997270999992022011503004+39350-074420FM-13+001099999V0209999C000019999999N999999999-00041+99999101371ADDMD1110291+9999SA1+0411REMSYN054ACYN4 46/// ///// 11004 40137 51029 90300 222// 00041=
0088997270999992022011504004+39350-074420FM-13+001099999V0209999C000019999999N999999999-00151+99999101431ADDMD1110231+9999SA1+0401REMSYN054ACYN4 46/// ///// 11015 40143 51023 90400 222// 00040=
0088997270999992022011505004+39350-074420FM-13+001099999V0209999C000019999999N999999999-00221+99999101491ADDMD1110201+9999SA1+0411REMSYN054ACYN4 46/// ///// 11022 40149 51020 90500 222// 00041=
0088997270999992022011506004+39350-074420FM-13+001099999V0209999C000019999999N999999999-00301+99999101571ADDMD1310201+9999SA1+0391REMSYN054ACYN4 46/// ///// 11030 40157 53020 90600 222// 00039=
0088997270999992022011507004+39350-074420FM-13+001099999V0209999C000019999999N999999999-00391+99999101691ADDMD1310261+9999SA1+0381REMSYN054ACYN4 46/// ///// 11039 40169 53026 90700 222// 00038=
0088997270999992022011508004+39350-074420FM-13+001099999V0209999C000019999999N999999999-00501+99999101821ADDMD1310331+9999SA1+0381REMSYN054ACYN4 46/// ///// 11050 40182 53033 90800 222// 00038=
0088997270999992022011509004+39350-074420FM-13+001099999V0209999C000019999999N999999999-00591+99999101901ADDMD1110331+9999SA1+0361REMSYN054ACYN4 46/// ///// 11059 40190 51033 90900 222// 00036=
0088997270999992022011510004+39350-074420FM-13+001099999V0209999C000019999999N999999999-00641+99999101981ADDMD1110291+9999SA1+0351REMSYN054ACYN4 46/// ///// 11064 40198 51029 91000 222// 00035=
0088997270999992022011511004+39350-074420FM-13+001099999V0209999C000019999999N999999999-00711+99999102081ADDMD1310261+9999SA1+0331REMSYN054ACYN4 46/// ///// 11071 40208 53026 91100 222// 00033=
0088997270999992022011512004+39350-074420FM-13+001099999V0209999C000019999999N999999999-00771+99999102241ADDMD1310341+9999SA1+0331REMSYN054ACYN4 46/// ///// 11077 40224 53034 91200 222// 00033=
0088997270999992022011513004+39350-074420FM-13+001099999V0209999C000019999999N999999999-00761+99999102351ADDMD1310371+9999SA1+0341REMSYN054ACYN4 46/// ///// 11076 40235 53037 91300 222// 00034=
0088997270999992022011514004+39350-074420FM-13+001099999V0209999C000019999999N999999999-00711+99999102481ADDMD1110401+9999SA1+0371REMSYN054ACYN4 46/// ///// 11071 40248 51040 91400 222// 00037=
0088997270999992022011515004+39350-074420FM-13+001099999V0209999C000019999999N999999999-00711+99999102611ADDMD1310371+9999SA1+0361REMSYN054ACYN4 46/// ///// 11071 40261 53037 91500 222// 00036=
0088997270999992022011516004+39350-074420FM-13+001099999V0209999C000019999999N999999999-00701+99999102611ADDMD1110261+9999SA1+0351REMSYN054ACYN4 46/// ///// 11070 40261 51026 91600 222// 00035=
0088997270999992022011517004+39350-074420FM-13+001099999V0209999C000019999999N999999999-00631+99999102601ADDMD1110121+9999SA1+0361REMSYN054ACYN4 46/// ///// 11063 40260 51012 91700 222// 00036=
0088997270999992022011518004+39350-074420FM-13+001099999V0209999C000019999999N999999999-00471+99999102631ADDMD1510001+9999SA1+0361REMSYN054ACYN4 46/// ///// 11047 40263 55000 91800 222// 00036=
0088997270999992022011519004+39350-074420FM-13+001099999V0209999C000019999999N999999999-00461+99999102631ADDMD1410001+9999SA1+0361REMSYN054ACYN4 46/// ///// 11046 40263 54000 91900 222// 00036=
0088997270999992022011520004+39350-074420FM-13+001099999V0209999C000019999999N999999999-00471+99999102621ADDMD1990001+9999SA1+0361REMSYN054ACYN4 46/// ///// 11047 40262 50000 92000 222// 00036=
0088997270999992022011521004+39350-074420FM-13+001099999V0209999C000019999999N999999999-00451+99999102671ADDMD1310041+9999SA1+0361REMSYN054ACYN4 46/// ///// 11045 40267 53004 92100 222// 00036=
0088997270999992022011522004+39350-074420FM-13+001099999V0209999C000019999999N999999999-00461+99999102731ADDMD1310101+9999SA1+0351REMSYN054ACYN4 46/// ///// 11046 40273 53010 92200 222// 00035=
0088997270999992022011523004+39350-074420FM-13+001099999V0209999C000019999999N999999999-00481+99999102811ADDMD1310191+9999SA1+0341REMSYN054ACYN4 46/// ///// 11048 40281 53019 92300 222// 00034=
0088997270999992022011600004+39350-074420FM-13+001099999V0209999C000019999999N999999999-00511+99999102861ADDMD1110191+9999SA1+0311REMSYN054ACYN4 46/// ///// 11051 40286 51019 90000 222// 00031=
0088997270999992022011601004+39350-074420FM-13+001099999V0209999C000019999999N999999999-00541+99999102881ADDMD1110151+9999SA1+0301REMSYN054ACYN4 46/// ///// 11054 40288 51015 90100 222// 00030=
0088997270999992022011602004+39350-074420FM-13+001099999V0209999C000019999999N999999999-00541+99999102911ADDMD1110101+9999SA1+0331REMSYN054ACYN4 46/// ///// 11054 40291 51010 90200 222// 00033=
0088997270999992022011603004+39350-074420FM-13+001099999V0209999C000019999999N999999999-00591+99999102981ADDMD1310121+9999SA1+0331REMSYN054ACYN4 46/// ///// 11059 40298 53012 90300 222// 00033=
0088997270999992022011604004+39350-074420FM-13+001099999V0209999C000019999999N999999999-00661+99999103001ADDMD1110121+9999SA1+0331REMSYN054ACYN4 46/// ///// 11066 40300 51012 90400 222// 00033=
0088997270999992022011605004+39350-074420FM-13+001099999V0209999C000019999999N999999999-00721+99999103121ADDMD1310211+9999SA1+0321REMSYN054ACYN4 46/// ///// 11072 40312 53021 90500 222// 00032=
0088997270999992022011606004+39350-074420FM-13+001099999V0209999C000019999999N999999999-00791+99999102991ADDMD1990001+9999SA1+0341REMSYN054ACYN4 46/// ///// 11079 40299 50000 90600 222// 00034=
0088997270999992022011607004+39350-074420FM-13+001099999V0209999C000019999999N999999999-00841+99999103011ADDMD1990001+9999SA1+0321REMSYN054ACYN4 46/// ///// 11084 40301 50000 90700 222// 00032=
0088997270999992022011608004+39350-074420FM-13+001099999V0209999C000019999999N999999999-00871+99999102951ADDMD1610171+9999SA1+0321REMSYN054ACYN4 46/// ///// 11087 40295 56017 90800 222// 00032=
0088997270999992022011609004+39350-074420FM-13+001099999V0209999C000019999999N999999999-00931+99999102931ADDMD1710061+9999SA1+0311REMSYN054ACYN4 46/// ///// 11093 40293 57006 90900 222// 00031=
0088997270999992022011610004+39350-074420FM-13+001099999V0209999C000019999999N999999999-00931+99999102861ADDMD1810151+9999SA1+0311REMSYN054ACYN4 46/// ///// 11093 40286 58015 91000 222// 00031=
0088997270999992022011611004+39350-074420FM-13+001099999V0209999C000019999999N999999999-00911+99999102911ADDMD1510041+9999SA1+0311REMSYN054ACYN4 46/// ///// 11091 40291 55004 91100 222// 00031=
0088997270999992022011612004+39350-074420FM-13+001099999V0209999C000019999999N999999999-00871+99999102911ADDMD1510001+9999SA1+0301REMSYN054ACYN4 46/// ///// 11087 40291 55000 91200 222// 00030=
0088997270999992022011613004+39350-074420FM-13+001099999V0209999C000019999999N999999999-00841+99999102911ADDMD1110051+9999SA1+0281REMSYN054ACYN4 46/// ///// 11084 40291 51005 91300 222// 00028=
0088997270999992022011614004+39350-074420FM-13+001099999V0209999C000019999999N999999999-00691+99999102891ADDMD1410001+9999SA1+0281REMSYN054ACYN4 46/// ///// 11069 40289 54000 91400 222// 00028=
0088997270999992022011615004+39350-074420FM-13+001099999V0209999C000019999999N999999999-00511+99999102791ADDMD1810121+9999SA1+0281REMSYN054ACYN4 46/// ///// 11051 40279 58012 91500 222// 00028=
0088997270999992022011616004+39350-074420FM-13+001099999V0209999C000019999999N999999999-00341+99999102741ADDMD1810171+9999SA1+0291REMSYN054ACYN4 46/// ///// 11034 40274 58017 91600 222// 00029=
0088997270999992022011617004+39350-074420FM-13+001099999V0209999C000019999999N999999999+00161+99999102541ADDMD1810351+9999SA1+0331REMSYN054ACYN4 46/// ///// 10016 40254 58035 91700 222// 00033=
0088997270999992022011618004+39350-074420FM-13+001099999V0209999C000019999999N999999999+00261+99999102361ADDMD1810431+9999SA1+0331REMSYN054ACYN4 46/// ///// 10026 40236 58043 91800 222// 00033=
0088997270999992022011619004+39350-074420FM-13+001099999V0209999C000019999999N999999999+00371+99999102151ADDMD1810591+9999SA1+0311REMSYN054ACYN4 46/// ///// 10037 40215 58059 91900 222// 00031=
0088997270999992022011620004+39350-074420FM-13+001099999V0209999C000019999999N999999999+00401+99999102021ADDMD1610521+9999SA1+0301REMSYN054ACYN4 46/// ///// 10040 40202 56052 92000 222// 00030=
0088997270999992022011621004+39350-074420FM-13+001099999V0209999C000019999999N999999999+00441+99999101851ADDMD1610511+9999SA1+0291REMSYN054ACYN4 46/// ///// 10044 40185 56051 92100 222// 00029=
0088997270999992022011622004+39350-074420FM-13+001099999V0209999C000019999999N999999999+00541+99999101771ADDMD1610381+9999SA1+0291REMSYN054ACYN4 46/// ///// 10054 40177 56038 92200 222// 00029=
0088997270999992022011623004+39350-074420FM-13+001099999V0209999C000019999999N999999999+00581+99999101601ADDMD1710421+9999SA1+0291REMSYN054ACYN4 46/// ///// 10058 40160 57042 92300 222// 00029=
0088997270999992022011700004+39350-074420FM-13+001099999V0209999C000019999999N999999999+00611+99999101321ADDMD1810531+9999SA1+0301REMSYN054ACYN4 46/// ///// 10061 40132 58053 90000 222// 00030=
0088997270999992022011701004+39350-074420FM-13+001099999V0209999C000019999999N999999999+00681+99999101051ADDMD1810721+9999SA1+0251REMSYN054ACYN4 46/// ///// 10068 40105 58072 90100 222// 00025=
0088997270999992022011702004+39350-074420FM-13+001099999V0209999C000019999999N999999999+00781+99999100721ADDMD1810881+9999SA1+0341REMSYN054ACYN4 46/// ///// 10078 40072 58088 90200 222// 00034=
0088997270999992022011703004+39350-074420FM-13+001099999V0209999C000019999999N999999999+00831+99999100391ADDMD1810931+9999SA1+0301REMSYN054ACYN4 46/// ///// 10083 40039 58093 90300 222// 00030=
0088997270999992022011704004+39350-074420FM-13+001099999V0209999C000019999999N999999999+00831+99999100021ADDMD1811031+9999SA1+0331REMSYN054ACYN4 46/// ///// 10083 40002 58103 90400 222// 00033=
0088997270999992022011705004+39350-074420FM-13+001099999V0209999C000019999999N999999999+00881+99999099551ADDMD1811171+9999SA1+0361REMSYN054ACYN4 46/// ///// 10088 49955 58117 90500 222// 00036=
0088997270999992022011706004+39350-074420FM-13+001099999V0209999C000019999999N999999999+00911+99999099291ADDMD1611101+9999SA1+0371REMSYN054ACYN4 46/// ///// 10091 49929 56110 90600 222// 00037=
0088997270999992022011707004+39350-074420FM-13+001099999V0209999C000019999999N999999999+00781+99999098971ADDMD1611051+9999SA1+0371REMSYN054ACYN4 46/// ///// 10078 49897 56105 90700 222// 00037=
0088997270999992022011708004+39350-074420FM-13+001099999V0209999C000019999999N999999999+00811+99999099051ADDMD1510501+9999SA1+0411REMSYN054ACYN4 46/// ///// 10081 49905 55050 90800 222// 00041=
0088997270999992022011709004+39350-074420FM-13+001099999V0209999C000019999999N999999999+00671+99999098831ADDMD1610461+9999SA1+0381REMSYN054ACYN4 46/// ///// 10067 49883 56046 90900 222// 00038=
0088997270999992022011710004+39350-074420FM-13+001099999V0209999C000019999999N999999999+00631+99999098762ADDMD1810211+9999SA1+0381REMSYN054ACYN4 46/// ///// 10063 49876 58021 91000 222// 00038=
0088997270999992022011711004+39350-074420FM-13+001099999V0209999C000019999999N999999999+00601+99999098792ADDMD1510261+9999SA1+0431REMSYN054ACYN4 46/// ///// 10060 49879 55026 91100 222// 00043=
0088997270999992022011712004+39350-074420FM-13+001099999V0209999C000019999999N999999999+00501+99999098812ADDMD1510001+9999SA1+0491REMSYN054ACYN4 46/// ///// 10050 49881 55000 91200 222// 00049=
0088997270999992022011713004+39350-074420FM-13+001099999V0209999C000019999999N999999999+00401+99999098882ADDMD1310121+9999SA1+0471REMSYN054ACYN4 46/// ///// 10040 49888 53012 91300 222// 00047=
0088997270999992022011714004+39350-074420FM-13+001099999V0209999C000019999999N999999999+00341+99999098881ADDMD1210091+9999SA1+0471REMSYN054ACYN4 46/// ///// 10034 49888 52009 91400 222// 00047=
0088997270999992022011715004+39350-074420FM-13+001099999V0209999C000019999999N999999999+00351+99999098941ADDMD1110131+9999SA1+0491REMSYN054ACYN4 46/// ///// 10035 49894 51013 91500 222// 00049=
0088997270999992022011716004+39350-074420FM-13+001099999V0209999C000019999999N999999999+00381+99999098961ADDMD1210081+9999SA1+0491REMSYN054ACYN4 46/// ///// 10038 49896 52008 91600 222// 00049=
0088997270999992022011717004+39350-074420FM-13+001099999V0209999C000019999999N999999999+00411+99999098961ADDMD1110081+9999SA1+0491REMSYN054ACYN4 46/// ///// 10041 49896 51008 91700 222// 00049=
0088997270999992022011718004+39350-074420FM-13+001099999V0209999C000019999999N999999999+00431+99999098941ADDMD1410001+9999SA1+0491REMSYN054ACYN4 46/// ///// 10043 49894 54000 91800 222// 00049=
0088997270999992022011719004+39350-074420FM-13+001099999V0209999C000019999999N999999999+00461+99999099001ADDMD1310041+9999SA1+0491REMSYN054ACYN4 46/// ///// 10046 49900 53004 91900 222// 00049=
0088997270999992022011720004+39350-074420FM-13+001099999V0209999C000019999999N999999999+00411+99999099111ADDMD1310151+9999SA1+0491REMSYN054ACYN4 46/// ///// 10041 49911 53015 92000 222// 00049=
0088997270999992022011721004+39350-074420FM-13+001099999V0209999C000019999999N999999999+00371+99999099221ADDMD1310281+9999SA1+0481REMSYN054ACYN4 46/// ///// 10037 49922 53028 92100 222// 00048=
0088997270999992022011722004+39350-074420FM-13+001099999V0209999C000019999999N999999999+00251+99999099341ADDMD1310341+9999SA1+0471REMSYN054ACYN4 46/// ///// 10025 49934 53034 92200 222// 00047=
0088997270999992022011723004+39350-074420FM-13+001099999V0209999C000019999999N999999999+00181+99999099481ADDMD1310371+9999SA1+0471REMSYN054ACYN4 46/// ///// 10018 49948 53037 92300 222// 00047=
0088997270999992022011800004+39350-074420FM-13+001099999V0209999C000019999999N999999999+00191+99999099591ADDMD1110371+9999SA1+0471REMSYN054ACYN4 46/// ///// 10019 49959 51037 90000 222// 00047=
0088997270999992022011801004+39350-074420FM-13+001099999V0209999C000019999999N999999999+00171+99999099701ADDMD1110361+9999SA1+0471REMSYN054ACYN4 46/// ///// 10017 49970 51036 90100 222// 00047=
0088997270999992022011802004+39350-074420FM-13+001099999V0209999C000019999999N999999999+00141+99999099801ADDMD1110321+9999SA1+0461REMSYN054ACYN4 46/// ///// 10014 49980 51032 90200 222// 00046=
0088997270999992022011803004+39350-074420FM-13+001099999V0209999C000019999999N999999999+00101+99999099931ADDMD1310341+9999SA1+0451REMSYN054ACYN4 46/// ///// 10010 49993 53034 90300 222// 00045=
0088997270999992022011804004+39350-074420FM-13+001099999V0209999C000019999999N999999999+00141+99999100051ADDMD1310351+9999SA1+0441REMSYN054ACYN4 46/// ///// 10014 40005 53035 90400 222// 00044=
0088997270999992022011805004+39350-074420FM-13+001099999V0209999C000019999999N999999999+00151+99999100141ADDMD1110341+9999SA1+0441REMSYN054ACYN4 46/// ///// 10015 40014 51034 90500 222// 00044=
0088997270999992022011806004+39350-074420FM-13+001099999V0209999C000019999999N999999999+00141+99999100211ADDMD1110281+9999SA1+0421REMSYN054ACYN4 46/// ///// 10014 40021 51028 90600 222// 00042=
0088997270999992022011807004+39350-074420FM-13+001099999V0209999C000019999999N999999999+00091+99999100391ADDMD1310341+9999SA1+0411REMSYN054ACYN4 46/// ///// 10009 40039 53034 90700 222// 00041=
0088997270999992022011808004+39350-074420FM-13+001099999V0209999C000019999999N999999999+00051+99999100561ADDMD1310421+9999SA1+0401REMSYN054ACYN4 46/// ///// 10005 40056 53042 90800 222// 00040=
0088997270999992022011809004+39350-074420FM-13+001099999V0209999C000019999999N999999999+00041+99999100701ADDMD1110491+9999SA1+0391REMSYN054ACYN4 46/// ///// 10004 40070 51049 90900 222// 00039=
0088997270999992022011810004+39350-074420FM-13+001099999V0209999C000019999999N999999999+00111+99999100821ADDMD1110431+9999SA1+0381REMSYN054ACYN4 46/// ///// 10011 40082 51043 91000 222// 00038=
0088997270999992022011811004+39350-074420FM-13+001099999V0209999C000019999999N999999999+00161+99999100981ADDMD1310421+9999SA1+0371REMSYN054ACYN4 46/// ///// 10016 40098 53042 91100 222// 00037=
0088997270999992022011812004+39350-074420FM-13+001099999V0209999C000019999999N999999999+00141+99999101121ADDMD1310421+9999SA1+0351REMSYN054ACYN4 46/// ///// 10014 40112 53042 91200 222// 00035=
0088997270999992022011813004+39350-074420FM-13+001099999V0209999C000019999999N999999999+00181+99999101251ADDMD1110431+9999SA1+0351REMSYN054ACYN4 46/// ///// 10018 40125 51043 91300 222// 00035=
0088997270999992022011814004+39350-074420FM-13+001099999V0209999C000019999999N999999999+00261+99999101391ADDMD1210411+9999SA1+0351REMSYN054ACYN4 46/// ///// 10026 40139 52041 91400 222// 00035=
0088997270999992022011815004+39350-074420FM-13+001099999V0209999C000019999999N999999999+00331+99999101461ADDMD1110341+9999SA1+0341REMSYN054ACYN4 46/// ///// 10033 40146 51034 91500 222// 00034=
0088997270999992022011816004+39350-074420FM-13+001099999V0209999C000019999999N999999999+00331+99999101531ADDMD1110281+9999SA1+0351REMSYN054ACYN4 46/// ///// 10033 40153 51028 91600 222// 00035=
0088997270999992022011817004+39350-074420FM-13+001099999V0209999C000019999999N999999999+00371+99999101511ADDMD1110121+9999SA1+0351REMSYN054ACYN4 46/// ///// 10037 40151 51012 91700 222// 00035=
0088997270999992022011818004+39350-074420FM-13+001099999V0209999C000019999999N999999999+00391+99999101561ADDMD1110101+9999SA1+0351REMSYN054ACYN4 46/// ///// 10039 40156 51010 91800 222// 00035=
0088997270999992022011819004+39350-074420FM-13+001099999V0209999C000019999999N999999999+00371+99999101671ADDMD1310141+9999SA1+0351REMSYN054ACYN4 46/// ///// 10037 40167 53014 91900 222// 00035=
0088997270999992022011820004+39350-074420FM-13+001099999V0209999C000019999999N999999999+00381+99999101771ADDMD1310261+9999SA1+0351REMSYN054ACYN4 46/// ///// 10038 40177 53026 92000 222// 00035=
0088997270999992022011821004+39350-074420FM-13+001099999V0209999C000019999999N999999999+00361+99999101861ADDMD1110301+9999SA1+0351REMSYN054ACYN4 46/// ///// 10036 40186 51030 92100 222// 00035=
0088997270999992022011822004+39350-074420FM-13+001099999V0209999C000019999999N999999999+00311+99999101991ADDMD1310321+9999SA1+0341REMSYN054ACYN4 46/// ///// 10031 40199 53032 92200 222// 00034=
0088997270999992022011823004+39350-074420FM-13+001099999V0209999C000019999999N999999999+00241+99999102101ADDMD1310331+9999SA1+0351REMSYN054ACYN4 46/// ///// 10024 40210 53033 92300 222// 00035=
0088997270999992022011900004+39350-074420FM-13+001099999V0209999C000019999999N999999999+00171+99999102191ADDMD1110331+9999SA1+0341REMSYN054ACYN4 46/// ///// 10017 40219 51033 90000 222// 00034=
0068997270999992022011901004+39350-074420FM-13+001099999V0209999C000019999999N999999999+00151+99999102251ADDSA1+0331REMSYN048ACYN4 46/// ///// 10015 40225 90048 222// 00033=
0088997270999992022011902004+39350-074420FM-13+001099999V0209999C000019999999N999999999+00101+99999102291ADDMD1110191+9999SA1+0331REMSYN054ACYN4 46/// ///// 10010 40229 51019 90200 222// 00033=
0088997270999992022011903004+39350-074420FM-13+001099999V0209999C000019999999N999999999+00071+99999102341ADDMD1110151+9999SA1+0331REMSYN054ACYN4 46/// ///// 10007 40234 51015 90300 222// 00033=
0088997270999992022011904004+39350-074420FM-13+001099999V0209999C000019999999N999999999+00091+99999102381ADDMD1310121+9999SA1+0311REMSYN054ACYN4 46/// ///// 10009 40238 53012 90400 222// 00031=
0088997270999992022011905004+39350-074420FM-13+001099999V0209999C000019999999N999999999+00081+99999102381ADDMD1110091+9999SA1+0311REMSYN054ACYN4 46/// ///// 10008 40238 51009 90500 222// 00031=
0088997270999992022011906004+39350-074420FM-13+001099999V0209999C000019999999N999999999+00121+99999102411ADDMD1110071+9999SA1+0311REMSYN054ACYN4 46/// ///// 10012 40241 51007 90600 222// 00031=
0088997270999992022011907004+39350-074420FM-13+001099999V0209999C000019999999N999999999+00211+99999102341ADDMD1810041+9999SA1+0311REMSYN054ACYN4 46/// ///// 10021 40234 58004 90700 222// 00031=
0088997270999992022011908004+39350-074420FM-13+001099999V0209999C000019999999N999999999+00241+99999102391ADDMD1510001+9999SA1+0311REMSYN054ACYN4 46/// ///// 10024 40239 55000 90800 222// 00031=
0088997270999992022011909004+39350-074420FM-13+001099999V0209999C000019999999N999999999+00311+99999102371ADDMD1610041+9999SA1+0301REMSYN054ACYN4 46/// ///// 10031 40237 56004 90900 222// 00030=
0088997270999992022011910004+39350-074420FM-13+001099999V0209999C000019999999N999999999+00351+99999102311ADDMD1810031+9999SA1+0301REMSYN054ACYN4 46/// ///// 10035 40231 58003 91000 222// 00030=
0088997270999992022011911004+39350-074420FM-13+001099999V0209999C000019999999N999999999+00391+99999102291ADDMD1710101+9999SA1+0311REMSYN054ACYN4 46/// ///// 10039 40229 57010 91100 222// 00031=
0088997270999992022011912004+39350-074420FM-13+001099999V0209999C000019999999N999999999+00441+99999102311ADDMD1610061+9999SA1+0301REMSYN054ACYN4 46/// ///// 10044 40231 56006 91200 222// 00030=
0088997270999992022011913004+39350-074420FM-13+001099999V0209999C000019999999N999999999+00501+99999102281ADDMD1810031+9999SA1+0291REMSYN054ACYN4 46/// ///// 10050 40228 58003 91300 222// 00029=
0088997270999992022011914004+39350-074420FM-13+001099999V0209999C000019999999N999999999+00541+99999102261ADDMD1710031+9999SA1+0291REMSYN054ACYN4 46/// ///// 10054 40226 57003 91400 222// 00029=
0088997270999992022011915004+39350-074420FM-13+001099999V0209999C000019999999N999999999+00571+99999102221ADDMD1810091+9999SA1+0291REMSYN054ACYN4 46/// ///// 10057 40222 58009 91500 222// 00029=
0088997270999992022011916004+39350-074420FM-13+001099999V0209999C000019999999N999999999+00551+99999102121ADDMD1810161+9999SA1+0341REMSYN054ACYN4 46/// ///// 10055 40212 58016 91600 222// 00034=
0088997270999992022011917004+39350-074420FM-13+001099999V0209999C000019999999N999999999+00571+99999101981ADDMD1810281+9999SA1+0371REMSYN054ACYN4 46/// ///// 10057 40198 58028 91700 222// 00037=
0088997270999992022011918004+39350-074420FM-13+001099999V0209999C000019999999N999999999+00571+99999101861ADDMD1810361+9999SA1+0401REMSYN054ACYN4 46/// ///// 10057 40186 58036 91800 222// 00040=
0088997270999992022011919004+39350-074420FM-13+001099999V0209999C000019999999N999999999+00581+99999101791ADDMD1610331+9999SA1+0411REMSYN054ACYN4 46/// ///// 10058 40179 56033 91900 222// 00041=
0088997270999992022011920004+39350-074420FM-13+001099999V0209999C000019999999N999999999+00591+99999101741ADDMD1610241+9999SA1+0431REMSYN054ACYN4 46/// ///// 10059 40174 56024 92000 222// 00043=
0088997270999992022011921004+39350-074420FM-13+001099999V0209999C000019999999N999999999+00581+99999101751ADDMD1610111+9999SA1+0471REMSYN054ACYN4 46/// ///// 10058 40175 56011 92100 222// 00047=
0088997270999992022011922004+39350-074420FM-13+001099999V0209999C000019999999N999999999+00611+99999101731ADDMD1610061+9999SA1+0471REMSYN054ACYN4 46/// ///// 10061 40173 56006 92200 222// 00047=
0088997270999992022011923004+39350-074420FM-13+001099999V0209999C000019999999N999999999+00591+99999101771ADDMD1310031+9999SA1+0461REMSYN054ACYN4 46/// ///// 10059 40177 53003 92300 222// 00046=
0088997270999992022012000004+39350-074420FM-13+001099999V0209999C000019999999N999999999+00591+99999101791ADDMD1210041+9999SA1+0461REMSYN054ACYN4 46/// ///// 10059 40179 52004 90000 222// 00046=
0088997270999992022012001004+39350-074420FM-13+001099999V0209999C000019999999N999999999+00571+99999101771ADDMD1110041+9999SA1+0451REMSYN054ACYN4 46/// ///// 10057 40177 51004 90100 222// 00045=
0088997270999992022012002004+39350-074420FM-13+001099999V0209999C000019999999N999999999+00611+99999101751ADDMD1410001+9999SA1+0451REMSYN054ACYN4 46/// ///// 10061 40175 54000 90200 222// 00045=
0088997270999992022012003004+39350-074420FM-13+001099999V0209999C000019999999N999999999+00551+99999101731ADDMD1710061+9999SA1+0441REMSYN054ACYN4 46/// ///// 10055 40173 57006 90300 222// 00044=
0088997270999992022012004004+39350-074420FM-13+001099999V0209999C000019999999N999999999+00551+99999101741ADDMD1710031+9999SA1+0441REMSYN054ACYN4 46/// ///// 10055 40174 57003 90400 222// 00044=
0088997270999992022012005004+39350-074420FM-13+001099999V0209999C000019999999N999999999+00561+99999101711ADDMD1810041+9999SA1+0431REMSYN054ACYN4 46/// ///// 10056 40171 58004 90500 222// 00043=
0068997270999992022012006004+39350-074420FM-13+001099999V0209999C000019999999N999999999+00591+99999101681ADDSA1+0411REMSYN048ACYN4 46/// ///// 10059 40168 90554 222// 00041=
0088997270999992022012007004+39350-074420FM-13+001099999V0209999C000019999999N999999999+00551+99999101731ADDMD1510001+9999SA1+0411REMSYN054ACYN4 46/// ///// 10055 40173 55000 90700 222// 00041=
0088997270999992022012008004+39350-074420FM-13+001099999V0209999C000019999999N999999999+00761+99999101721ADDMD1410001+9999SA1+0401REMSYN054ACYN4 46/// ///// 10076 40172 54000 90800 222// 00040=
0088997270999992022012009004+39350-074420FM-13+001099999V0209999C000019999999N999999999+00561+99999101701ADDMD1990001+9999SA1+0401REMSYN054ACYN4 46/// ///// 10056 40170 50000 90900 222// 00040=
0088997270999992022012010004+39350-074420FM-13+001099999V0209999C000019999999N999999999+00701+99999101701ADDMD1710031+9999SA1+0411REMSYN054ACYN4 46/// ///// 10070 40170 57003 91000 222// 00041=
0068997270999992022012011004+39350-074420FM-13+001099999V0209999C000019999999N999999999+00671+99999101731ADDSA1+0401REMSYN048ACYN4 46/// ///// 10067 40173 91042 222// 00040=
0088997270999992022012012004+39350-074420FM-13+001099999V0209999C000019999999N999999999+00661+99999101791ADDMD1310091+9999SA1+0401REMSYN054ACYN4 46/// ///// 10066 40179 53009 91200 222// 00040=
0068997270999992022012013004+39350-074420FM-13+001099999V0209999C000019999999N999999999+00621+99999101851ADDSA1+0401REMSYN048ACYN4 46/// ///// 10062 40185 91236 222// 00040=
0088997270999992022012014004+39350-074420FM-13+001099999V0209999C000019999999N999999999+00551+99999102001ADDMD1310261+9999SA1+0401REMSYN054ACYN4 46/// ///// 10055 40200 53026 91400 222// 00040=
0088997270999992022012015004+39350-074420FM-13+001099999V0209999C000019999999N999999999+00511+99999102061ADDMD1110271+9999SA1+0411REMSYN054ACYN4 46/// ///// 10051 40206 51027 91500 222// 00041=
0088997270999992022012016004+39350-074420FM-13+001099999V0209999C000019999999N999999999+00421+99999102091ADDMD1110181+9999SA1+0411REMSYN054ACYN4 46/// ///// 10042 40209 51018 91600 222// 00041=
0088997270999992022012017004+39350-074420FM-13+001099999V0209999C000019999999N999999999+00291+99999102111ADDMD1110111+9999SA1+0411REMSYN054ACYN4 46/// ///// 10029 40211 51011 91700 222// 00041=
0088997270999992022012018004+39350-074420FM-13+001099999V0209999C000019999999N999999999+00151+99999102171ADDMD1310111+9999SA1+0411REMSYN054ACYN4 46/// ///// 10015 40217 53011 91800 222// 00041=
0088997270999992022012019004+39350-074420FM-13+001099999V0209999C000019999999N999999999+00091+99999102141ADDMD1990051+9999SA1+0421REMSYN054ACYN4 46/// ///// 10009 40214 50005 91900 222// 00042=
0088997270999992022012020004+39350-074420FM-13+001099999V0209999C000019999999N999999999+00061+99999102201ADDMD1210091+9999SA1+0411REMSYN054ACYN4 46/// ///// 10006 40220 52009 92000 222// 00041=
0088997270999992022012021004+39350-074420FM-13+001099999V0209999C000019999999N999999999+00051+99999102271ADDMD1310101+9999SA1+0421REMSYN054ACYN4 46/// ///// 10005 40227 53010 92100 222// 00042=
0088997270999992022012022004+39350-074420FM-13+001099999V0209999C000019999999N999999999+00011+99999102371ADDMD1310231+9999SA1+0411REMSYN054ACYN4 46/// ///// 10001 40237 53023 92200 222// 00041=
0088997270999992022012023004+39350-074420FM-13+001099999V0209999C000019999999N999999999+00031+99999102491ADDMD1310291+9999SA1+0401REMSYN054ACYN4 46/// ///// 10003 40249 53029 92300 222// 00040=
0088997270999992022012100004+39350-074420FM-13+001099999V0209999C000019999999N999999999+00021+99999102561ADDMD1110291+9999SA1+0401REMSYN054ACYN4 46/// ///// 10002 40256 51029 90000 222// 00040=
0088997270999992022012101004+39350-074420FM-13+001099999V0209999C000019999999N999999999+00001+99999102631ADDMD1110261+9999SA1+0401REMSYN054ACYN4 46/// ///// 10000 40263 51026 90100 222// 00040=
0088997270999992022012102004+39350-074420FM-13+001099999V0209999C000019999999N999999999-00061+99999102691ADDMD1110201+9999SA1+0411REMSYN054ACYN4 46/// ///// 11006 40269 51020 90200 222// 00041=
0088997270999992022012103004+39350-074420FM-13+001099999V0209999C000019999999N999999999-00171+99999102771ADDMD1310211+9999SA1+0441REMSYN054ACYN4 46/// ///// 11017 40277 53021 90300 222// 00044=
0088997270999992022012104004+39350-074420FM-13+001099999V0209999C000019999999N999999999-00241+99999102841ADDMD1310211+9999SA1+0441REMSYN054ACYN4 46/// ///// 11024 40284 53021 90400 222// 00044=
0088997270999992022012105004+39350-074420FM-13+001099999V0209999C000019999999N999999999-00331+99999102841ADDMD1110151+9999SA1+0441REMSYN054ACYN4 46/// ///// 11033 40284 51015 90500 222// 00044=
0088997270999992022012106004+39350-074420FM-13+001099999V0209999C000019999999N999999999-00431+99999102871ADDMD1110101+9999SA1+0421REMSYN054ACYN4 46/// ///// 11043 40287 51010 90600 222// 00042=
0088997270999992022012107004+39350-074420FM-13+001099999V0209999C000019999999N999999999-00511+99999102881ADDMD1210041+9999SA1+0421REMSYN054ACYN4 46/// ///// 11051 40288 52004 90700 222// 00042=
0088997270999992022012108004+39350-074420FM-13+001099999V0209999C000019999999N999999999-00591+99999102951ADDMD1310111+9999SA1+0401REMSYN054ACYN4 46/// ///// 11059 40295 53011 90800 222// 00040=
0088997270999992022012109004+39350-074420FM-13+001099999V0209999C000019999999N999999999-00651+99999102981ADDMD1310111+9999SA1+0391REMSYN054ACYN4 46/// ///// 11065 40298 53011 90900 222// 00039=
0088997270999992022012110004+39350-074420FM-13+001099999V0209999C000019999999N999999999-00701+99999103061ADDMD1310181+9999SA1+0391REMSYN054ACYN4 46/// ///// 11070 40306 53018 91000 222// 00039=
0088997270999992022012111004+39350-074420FM-13+001099999V0209999C000019999999N999999999-00731+99999103161ADDMD1310211+9999SA1+0361REMSYN054ACYN4 46/// ///// 11073 40316 53021 91100 222// 00036=
0088997270999992022012112004+39350-074420FM-13+001099999V0209999C000019999999N999999999-00731+99999103241ADDMD1210261+9999SA1+0341REMSYN054ACYN4 46/// ///// 11073 40324 52026 91200 222// 00034=
0088997270999992022012113004+39350-074420FM-13+001099999V0209999C000019999999N999999999-00741+99999103301ADDMD1110241+9999SA1+0331REMSYN054ACYN4 46/// ///// 11074 40330 51024 91300 222// 00033=
0088997270999992022012114004+39350-074420FM-13+001099999V0209999C000019999999N999999999-00741+99999103331ADDMD1110171+9999SA1+0341REMSYN054ACYN4 46/// ///// 11074 40333 51017 91400 222// 00034=
0088997270999992022012115004+39350-074420FM-13+001099999V0209999C000019999999N999999999-00651+99999103421ADDMD1310181+9999SA1+0341REMSYN054ACYN4 46/// ///// 11065 40342 53018 91500 222// 00034=
0088997270999992022012116004+39350-074420FM-13+001099999V0209999C000019999999N999999999-00551+99999103401ADDMD1110101+9999SA1+0321REMSYN054ACYN4 46/// ///// 11055 40340 51010 91600 222// 00032=
0088997270999992022012117004+39350-074420FM-13+001099999V0209999C000019999999N999999999-00541+99999103361ADDMD1990031+9999SA1+0321REMSYN054ACYN4 46/// ///// 11054 40336 50003 91700 222// 00032=
0088997270999992022012118004+39350-074420FM-13+001099999V0209999C000019999999N999999999-00531+99999103341ADDMD1710081+9999SA1+0311REMSYN054ACYN4 46/// ///// 11053 40334 57008 91800 222// 00031=
0088997270999992022012119004+39350-074420FM-13+001099999V0209999C000019999999N999999999-00481+99999103271ADDMD1810131+9999SA1+0311REMSYN054ACYN4 46/// ///// 11048 40327 58013 91900 222// 00031=
0088997270999992022012120004+39350-074420FM-13+001099999V0209999C000019999999N999999999-00451+99999103271ADDMD1710091+9999SA1+0311REMSYN054ACYN4 46/// ///// 11045 40327 57009 92000 222// 00031=
0088997270999992022012121004+39350-074420FM-13+001099999V0209999C000019999999N999999999-00461+99999103321ADDMD1510001+9999SA1+0301REMSYN054ACYN4 46/// ///// 11046 40332 55000 92100 222// 00030=
0088997270999992022012122004+39350-074420FM-13+001099999V0209999C000019999999N999999999-00441+99999103311ADDMD1210041+9999SA1+0301REMSYN054ACYN4 46/// ///// 11044 40331 52004 92200 222// 00030=
0088997270999992022012123004+39350-074420FM-13+001099999V0209999C000019999999N999999999-00461+99999103351ADDMD1110081+9999SA1+0291REMSYN054ACYN4 46/// ///// 11046 40335 51008 92300 222// 00029=
0088997270999992022012200004+39350-074420FM-13+001099999V0209999C000019999999N999999999-00451+99999103371ADDMD1210051+9999SA1+0301REMSYN054ACYN4 46/// ///// 11045 40337 52005 90000 222// 00030=
0088997270999992022012201004+39350-074420FM-13+001099999V0209999C000019999999N999999999-00471+99999103311ADDMD1990001+9999SA1+0291REMSYN054ACYN4 46/// ///// 11047 40331 50000 90100 222// 00029=
0088997270999992022012202004+39350-074420FM-13+001099999V0209999C000019999999N999999999-00451+99999103261ADDMD1810091+9999SA1+0251REMSYN054ACYN4 46/// ///// 11045 40326 58009 90200 222// 00025=
0088997270999992022012203004+39350-074420FM-13+001099999V0209999C000019999999N999999999-00431+99999103221ADDMD1610151+9999SA1+0251REMSYN054ACYN4 46/// ///// 11043 40322 56015 90300 222// 00025=
0088997270999992022012204004+39350-074420FM-13+001099999V0209999C000019999999N999999999-00431+99999103191ADDMD1610121+9999SA1+0261REMSYN054ACYN4 46/// ///// 11043 40319 56012 90400 222// 00026=
0088997270999992022012205004+39350-074420FM-13+001099999V0209999C000019999999N999999999-00421+99999103121ADDMD1810141+9999SA1+0311REMSYN054ACYN4 46/// ///// 11042 40312 58014 90500 222// 00031=
0088997270999992022012206004+39350-074420FM-13+001099999V0209999C000019999999N999999999-00431+99999103011ADDMD1810211+9999SA1+0321REMSYN054ACYN4 46/// ///// 11043 40301 58021 90600 222// 00032=
0088997270999992022012207004+39350-074420FM-13+001099999V0209999C000019999999N999999999-00431+99999102921ADDMD1810271+9999SA1+0281REMSYN054ACYN4 46/// ///// 11043 40292 58027 90700 222// 00028=
0088997270999992022012208004+39350-074420FM-13+001099999V0209999C000019999999N999999999-00431+99999102861ADDMD1610261+9999SA1+0261REMSYN054ACYN4 46/// ///// 11043 40286 56026 90800 222// 00026=
0088997270999992022012209004+39350-074420FM-13+001099999V0209999C000019999999N999999999-00441+99999102821ADDMD1610191+9999SA1+0261REMSYN054ACYN4 46/// ///// 11044 40282 56019 90900 222// 00026=
0088997270999992022012210004+39350-074420FM-13+001099999V0209999C000019999999N999999999-00491+99999102821ADDMD1610101+9999SA1+0261REMSYN054ACYN4 46/// ///// 11049 40282 56010 91000 222// 00026=
0068997270999992022012211004+39350-074420FM-13+001099999V0209999C000019999999N999999999-00511+99999102861ADDSA1+0251REMSYN048ACYN4 46/// ///// 11051 40286 91042 222// 00025=
