0088997270999992021010100004+39350-074420FM-13+001099999V0209999C000019999999N999999999+00691+99999102611ADDMD1110281+9999SA1+0761REMSYN054ACYN4 46/// ///// 10069 40261 51028 90000 222// 00076=
0088997270999992021010101004+39350-074420FM-13+001099999V0209999C000019999999N999999999+00631+99999102711ADDMD1310261+9999SA1+0761REMSYN054ACYN4 46/// ///// 10063 40271 53026 90100 222// 00076=
0088997270999992021010102004+39350-074420FM-13+001099999V0209999C000019999999N999999999+00611+99999102801ADDMD1310271+9999SA1+0751REMSYN054ACYN4 46/// ///// 10061 40280 53027 90200 222// 00075=
0088997270999992021010103004+39350-074420FM-13+001099999V0209999C000019999999N999999999+00561+99999102881ADDMD1110271+9999SA1+0751REMSYN054ACYN4 46/// ///// 10056 40288 51027 90300 222// 00075=
0088997270999992021010104004+39350-074420FM-13+001099999V0209999C000019999999N999999999+00501+99999102971ADDMD1210261+9999SA1+0751REMSYN054ACYN4 46/// ///// 10050 40297 52026 90400 222// 00075=
0068997270999992021010105004+39350-074420FM-13+001099999V0209999C000019999999N999999999+00431+99999103011ADDSA1+0751REMSYN048ACYN4 46/// ///// 10043 40301 90436 222// 00075=
0088997270999992021010106004+39350-074420FM-13+001099999V0209999C000019999999N999999999+00281+99999103061ADDMD1210181+9999SA1+0751REMSYN054ACYN4 46/// ///// 10028 40306 52018 90600 222// 00075=
0068997270999992021010107004+39350-074420FM-13+001099999V0209999C000019999999N999999999+00221+99999103131ADDSA1+0751REMSYN048ACYN4 46/// ///// 10022 40313 90648 222// 00075=
0068997270999992021010109004+39350-074420FM-13+001099999V0209999C000019999999N999999999+00121+99999103161ADDSA1+0741REMSYN048ACYN4 46/// ///// 10012 40316 90842 222// 00074=
0068997270999992021010110004+39350-074420FM-13+001099999V0209999C000019999999N999999999+00111+99999103191ADDSA1+0741REMSYN048ACYN4 46/// ///// 10011 40319 90936 222// 00074=
0068997270999992021010111004+39350-074420FM-13+001099999V0209999C000019999999N999999999+00171+99999103231ADDSA1+0721REMSYN048ACYN4 46/// ///// 10017 40323 91054 222// 00072=
0068997270999992021010112004+39350-074420FM-13+001099999V0209999C000019999999N999999999+00301+99999103261ADDSA1+0721REMSYN048ACYN4 46/// ///// 10030 40326 91206 222// 00072=
0088997270999992021010113004+39350-074420FM-13+001099999V0209999C000019999999N999999999+00301+99999103311ADDMD1210111+9999SA1+0721REMSYN054ACYN4 46/// ///// 10030 40331 52011 91300 222// 00072=
0088997270999992021010114004+39350-074420FM-13+001099999V0209999C000019999999N999999999+00381+99999103341ADDMD1210121+9999SA1+0721REMSYN054ACYN4 46/// ///// 10038 40334 52012 91400 222// 00072=
0068997270999992021010115004+39350-074420FM-13+001099999V0209999C000019999999N999999999+00531+99999103331ADDSA1+0711REMSYN048ACYN4 46/// ///// 10053 40333 91442 222// 00071=
0088997270999992021010116004+39350-074420FM-13+001099999V0209999C000019999999N999999999+00551+99999103221ADDMD1810091+9999SA1+0691REMSYN054ACYN4 46/// ///// 10055 40322 58009 91600 222// 00069=
0068997270999992021010117004+39350-074420FM-13+001099999V0209999C000019999999N999999999+00571+99999103101ADDSA1+0671REMSYN048ACYN4 46/// ///// 10057 40310 91642 222// 00067=
0088997270999992021010118004+39350-074420FM-13+001099999V0209999C000019999999N999999999+00601+99999102981ADDMD1710371+9999SA1+0671REMSYN054ACYN4 46/// ///// 10060 40298 57037 91800 222// 00067=
0088997270999992021010119004+39350-074420FM-13+001099999V0209999C000019999999N999999999+00641+99999102901ADDMD1710321+9999SA1+0671REMSYN054ACYN4 46/// ///// 10064 40290 57032 91900 222// 00067=
0068997270999992021010120004+39350-074420FM-13+001099999V0209999C000019999999N999999999+00641+99999102861ADDSA1+0671REMSYN048ACYN4 46/// ///// 10064 40286 91936 222// 00067=
0088997270999992021010121004+39350-074420FM-13+001099999V0209999C000019999999N999999999+00671+99999102701ADDMD1810281+9999SA1+0681REMSYN054ACYN4 46/// ///// 10067 40270 58028 92100 222// 00068=
0068997270999992021010122004+39350-074420FM-13+001099999V0209999C000019999999N999999999+00681+99999102591ADDSA1+0681REMSYN048ACYN4 46/// ///// 10068 40259 92206 222// 00068=
0088997270999992021010123004+39350-074420FM-13+001099999V0209999C000019999999N999999999+00691+99999102521ADDMD1710271+9999SA1+0681REMSYN054ACYN4 46/// ///// 10069 40252 57027 92300 222// 00068=
0088997270999992021010200004+39350-074420FM-13+001099999V0209999C000019999999N999999999+00771+99999102341ADDMD1710361+9999SA1+0671REMSYN054ACYN4 46/// ///// 10077 40234 57036 90000 222// 00067=
0068997270999992021010201004+39350-074420FM-13+001099999V0209999C000019999999N999999999+00791+99999102181ADDSA1+0671REMSYN048ACYN4 46/// ///// 10079 40218 90048 222// 00067=
0088997270999992021010202004+39350-074420FM-13+001099999V0209999C000019999999N999999999+00801+99999101961ADDMD1710561+9999SA1+0671REMSYN054ACYN4 46/// ///// 10080 40196 57056 90200 222// 00067=
0068997270999992021010203004+39350-074420FM-13+001099999V0209999C000019999999N999999999+00811+99999101851ADDSA1+0671REMSYN048ACYN4 46/// ///// 10081 40185 90236 222// 00067=
0088997270999992021010204004+39350-074420FM-13+001099999V0209999C000019999999N999999999+00921+99999101641ADDMD1610501+9999SA1+0671REMSYN054ACYN4 46/// ///// 10092 40164 56050 90400 222// 00067=
0088997270999992021010205004+39350-074420FM-13+001099999V0209999C000019999999N999999999+99999+99999101281ADDMD1810681+9999SA1+0661REMSYN054ACYN4 46/// ///// 1//// 40128 58068 90500 222// 00066=
0088997270999992021010206004+39350-074420FM-13+001099999V0209999C000019999999N999999999+01091+99999101191ADDMD1610571+9999SA1+0661REMSYN054ACYN4 46/// ///// 10109 40119 56057 90600 222// 00066=
0088997270999992021010207004+39350-074420FM-13+001099999V0209999C000019999999N999999999+01041+99999101161ADDMD1610481+9999SA1+0661REMSYN054ACYN4 46/// ///// 10104 40116 56048 90700 222// 00066=
0088997270999992021010208004+39350-074420FM-13+001099999V0209999C000019999999N999999999+00891+99999101121ADDMD1610161+9999SA1+0671REMSYN054ACYN4 46/// ///// 10089 40112 56016 90800 222// 00067=
0088997270999992021010209004+39350-074420FM-13+001099999V0209999C000019999999N999999999+00831+99999101001ADDMD1810191+9999SA1+0661REMSYN054ACYN4 46/// ///// 10083 40100 58019 90900 222// 00066=
0088997270999992021010210004+39350-074420FM-13+001099999V0209999C000019999999N999999999+00741+99999100921ADDMD1810241+9999SA1+0671REMSYN054ACYN4 46/// ///// 10074 40092 58024 91000 222// 00067=
0088997270999992021010211004+39350-074420FM-13+001099999V0209999C000019999999N999999999+00681+99999100941ADDMD1610181+9999SA1+0671REMSYN054ACYN4 46/// ///// 10068 40094 56018 91100 222// 00067=
0088997270999992021010212004+39350-074420FM-13+001099999V0209999C000019999999N999999999+00681+99999101101ADDMD1310101+9999SA1+0661REMSYN054ACYN4 46/// ///// 10068 40110 53010 91200 222// 00066=
0068997270999992021010213004+39350-074420FM-13+001099999V0209999C000019999999N999999999+00641+99999101161ADDSA1+0661REMSYN048ACYN4 46/// ///// 10064 40116 91236 222// 00066=
0088997270999992021010214004+39350-074420FM-13+001099999V0209999C000019999999N999999999+00711+99999101191ADDMD1210251+9999SA1+0661REMSYN054ACYN4 46/// ///// 10071 40119 52025 91400 222// 00066=
0088997270999992021010215004+39350-074420FM-13+001099999V0209999C000019999999N999999999+00881+99999101211ADDMD1210111+9999SA1+0661REMSYN054ACYN4 46/// ///// 10088 40121 52011 91500 222// 00066=
0068997270999992021010216004+39350-074420FM-13+001099999V0209999C000019999999N999999999+01151+99999101241ADDSA1+0671REMSYN048ACYN4 46/// ///// 10115 40124 91554 222// 00067=
0088997270999992021010217004+39350-074420FM-13+001099999V0209999C000019999999N999999999+01301+99999101231ADDMD1210041+9999SA1+0671REMSYN054ACYN4 46/// ///// 10130 40123 52004 91700 222// 00067=
0088997270999992021010218004+39350-074420FM-13+001099999V0209999C000019999999N999999999+01321+99999101251ADDMD1110041+9999SA1+0691REMSYN054ACYN4 46/// ///// 10132 40125 51004 91800 222// 00069=
0088997270999992021010219004+39350-074420FM-13+001099999V0209999C000019999999N999999999+01311+99999101321ADDMD1310081+9999SA1+0711REMSYN054ACYN4 46/// ///// 10131 40132 53008 91900 222// 00071=
0088997270999992021010220004+39350-074420FM-13+001099999V0209999C000019999999N999999999+01231+99999101401ADDMD1310171+9999SA1+0711REMSYN054ACYN4 46/// ///// 10123 40140 53017 92000 222// 00071=
0088997270999992021010221004+39350-074420FM-13+001099999V0209999C000019999999N999999999+01121+99999101561ADDMD1310311+9999SA1+0721REMSYN054ACYN4 46/// ///// 10112 40156 53031 92100 222// 00072=
0088997270999992021010222004+39350-074420FM-13+001099999V0209999C000019999999N999999999+01011+99999101671ADDMD1310351+9999SA1+0741REMSYN054ACYN4 46/// ///// 10101 40167 53035 92200 222// 00074=
0088997270999992021010223004+39350-074420FM-13+001099999V0209999C000019999999N999999999+00951+99999101801ADDMD1110401+9999SA1+0741REMSYN054ACYN4 46/// ///// 10095 40180 51040 92300 222// 00074=
0088997270999992021010300004+39350-074420FM-13+001099999V0209999C000019999999N999999999+00891+99999101811ADDMD1110251+9999SA1+0731REMSYN054ACYN4 46/// ///// 10089 40181 51025 90000 222// 00073=
0088997270999992021010301004+39350-074420FM-13+001099999V0209999C000019999999N999999999+00811+99999101871ADDMD1110201+9999SA1+0721REMSYN054ACYN4 46/// ///// 10081 40187 51020 90100 222// 00072=
0088997270999992021010302004+39350-074420FM-13+001099999V0209999C000019999999N999999999+00691+99999101931ADDMD1310131+9999SA1+0711REMSYN054ACYN4 46/// ///// 10069 40193 53013 90200 222// 00071=
0088997270999992021010303004+39350-074420FM-13+001099999V0209999C000019999999N999999999+00621+99999101941ADDMD1110131+9999SA1+0711REMSYN054ACYN4 46/// ///// 10062 40194 51013 90300 222// 00071=
0088997270999992021010304004+39350-074420FM-13+001099999V0209999C000019999999N999999999+00551+99999102001ADDMD1210131+9999SA1+0711REMSYN054ACYN4 46/// ///// 10055 40200 52013 90400 222// 00071=
0088997270999992021010305004+39350-074420FM-13+001099999V0209999C000019999999N999999999+00501+99999101931ADDMD1990001+9999SA1+0711REMSYN054ACYN4 46/// ///// 10050 40193 50000 90500 222// 00071=
0088997270999992021010306004+39350-074420FM-13+001099999V0209999C000019999999N999999999+00441+99999101871ADDMD1810071+9999SA1+0701REMSYN054ACYN4 46/// ///// 10044 40187 58007 90600 222// 00070=
0088997270999992021010307004+39350-074420FM-13+001099999V0209999C000019999999N999999999+00381+99999101891ADDMD1610111+9999SA1+0701REMSYN054ACYN4 46/// ///// 10038 40189 56011 90700 222// 00070=
0068997270999992021010308004+39350-074420FM-13+001099999V0209999C000019999999N999999999+00391+99999102051ADDSA1+0701REMSYN048ACYN4 46/// ///// 10039 40205 90736 222// 00070=
0088997270999992021010309004+39350-074420FM-13+001099999V0209999C000019999999N999999999+00511+99999101891ADDMD1410001+9999SA1+0691REMSYN054ACYN4 46/// ///// 10051 40189 54000 90900 222// 00069=
0088997270999992021010310004+39350-074420FM-13+001099999V0209999C000019999999N999999999+00631+99999101691ADDMD1710201+9999SA1+0691REMSYN054ACYN4 46/// ///// 10063 40169 57020 91000 222// 00069=
0068997270999992021010311004+39350-074420FM-13+001099999V0209999C000019999999N999999999+00661+99999101841ADDSA1+0691REMSYN048ACYN4 46/// ///// 10066 40184 91036 222// 00069=
0088997270999992021010312004+39350-074420FM-13+001099999V0209999C000019999999N999999999+00661+99999101851ADDMD1610041+9999SA1+0671REMSYN054ACYN4 46/// ///// 10066 40185 56004 91200 222// 00067=
0088997270999992021010313004+39350-074420FM-13+001099999V0209999C000019999999N999999999+00641+99999101901ADDMD1110211+9999SA1+0671REMSYN054ACYN4 46/// ///// 10064 40190 51021 91300 222// 00067=
0088997270999992021010314004+39350-074420FM-13+001099999V0209999C000019999999N999999999+00671+99999101821ADDMD1810081+9999SA1+0671REMSYN054ACYN4 46/// ///// 10067 40182 58008 91400 222// 00067=
0088997270999992021010315004+39350-074420FM-13+001099999V0209999C000019999999N999999999+00711+99999101681ADDMD1810171+9999SA1+0681REMSYN054ACYN4 46/// ///// 10071 40168 58017 91500 222// 00068=
0088997270999992021010316004+39350-074420FM-13+001099999V0209999C000019999999N999999999+99999+99999101591ADDMD1810311+9999SA1+0681REMSYN054ACYN4 46/// ///// 1//// 40159 58031 91600 222// 00068=
0088997270999992021010317004+39350-074420FM-13+001099999V0209999C000019999999N999999999+00771+99999101311ADDMD1810511+9999SA1+0671REMSYN054ACYN4 46/// ///// 10077 40131 58051 91700 222// 00067=
0088997270999992021010318004+39350-074420FM-13+001099999V0209999C000019999999N999999999+00821+99999101181ADDMD1810501+9999SA1+0671REMSYN054ACYN4 46/// ///// 10082 40118 58050 91800 222// 00067=
0088997270999992021010319004+39350-074420FM-13+001099999V0209999C000019999999N999999999+00881+99999101121ADDMD1610471+9999SA1+0661REMSYN054ACYN4 46/// ///// 10088 40112 56047 91900 222// 00066=
0088997270999992021010320004+39350-074420FM-13+001099999V0209999C000019999999N999999999+00901+99999101141ADDMD1610171+9999SA1+0671REMSYN054ACYN4 46/// ///// 10090 40114 56017 92000 222// 00067=
0088997270999992021010321004+39350-074420FM-13+001099999V0209999C000019999999N999999999+00831+99999101161ADDMD1510001+9999SA1+0671REMSYN054ACYN4 46/// ///// 10083 40116 55000 92100 222// 00067=
0088997270999992021010322004+39350-074420FM-13+001099999V0209999C000019999999N999999999+00781+99999101141ADDMD1410001+9999SA1+0671REMSYN054ACYN4 46/// ///// 10078 40114 54000 92200 222// 00067=
0088997270999992021010323004+39350-074420FM-13+001099999V0209999C000019999999N999999999+00711+99999101191ADDMD1310051+9999SA1+0671REMSYN054ACYN4 46/// ///// 10071 40119 53005 92300 222// 00067=
0088997270999992021010400004+39350-074420FM-13+001099999V0209999C000019999999N999999999+00581+99999101201ADDMD1210041+9999SA1+0681REMSYN054ACYN4 46/// ///// 10058 40120 52004 90000 222// 00068=
0088997270999992021010401004+39350-074420FM-13+001099999V0209999C000019999999N999999999+00581+99999101241ADDMD1110101+9999SA1+0681REMSYN054ACYN4 46/// ///// 10058 40124 51010 90100 222// 00068=
0088997270999992021010402004+39350-074420FM-13+001099999V0209999C000019999999N999999999+00601+99999101221ADDMD1210031+9999SA1+0671REMSYN054ACYN4 46/// ///// 10060 40122 52003 90200 222// 00067=
0088997270999992021010403004+39350-074420FM-13+001099999V0209999C000019999999N999999999+00621+99999101261ADDMD1210061+9999SA1+0681REMSYN054ACYN4 46/// ///// 10062 40126 52006 90300 222// 00068=
0088997270999992021010404004+39350-074420FM-13+001099999V0209999C000019999999N999999999+00621+99999101241ADDMD1410001+9999SA1+0681REMSYN054ACYN4 46/// ///// 10062 40124 54000 90400 222// 00068=
0088997270999992021010405004+39350-074420FM-13+001099999V0209999C000019999999N999999999+00651+99999101271ADDMD1110051+9999SA1+0691REMSYN054ACYN4 46/// ///// 10065 40127 51005 90500 222// 00069=
0088997270999992021010406004+39350-074420FM-13+001099999V0209999C000019999999N999999999+00611+99999101301ADDMD1310041+9999SA1+0701REMSYN054ACYN4 46/// ///// 10061 40130 53004 90600 222// 00070=
0088997270999992021010407004+39350-074420FM-13+001099999V0209999C000019999999N999999999+00481+99999101341ADDMD1310101+9999SA1+0701REMSYN054ACYN4 46/// ///// 10048 40134 53010 90700 222// 00070=
0088997270999992021010408004+39350-074420FM-13+001099999V0209999C000019999999N999999999+00431+99999101381ADDMD1310111+9999SA1+0701REMSYN054ACYN4 46/// ///// 10043 40138 53011 90800 222// 00070=
0088997270999992021010409004+39350-074420FM-13+001099999V0209999C000019999999N999999999+00421+99999101371ADDMD1110071+9999SA1+0701REMSYN054ACYN4 46/// ///// 10042 40137 51007 90900 222// 00070=
0088997270999992021010410004+39350-074420FM-13+001099999V0209999C000019999999N999999999+00361+99999101431ADDMD1310091+9999SA1+0691REMSYN054ACYN4 46/// ///// 10036 40143 53009 91000 222// 00069=
0088997270999992021010411004+39350-074420FM-13+001099999V0209999C000019999999N999999999+00321+99999101481ADDMD1310101+9999SA1+0681REMSYN054ACYN4 46/// ///// 10032 40148 53010 91100 222// 00068=
0068997270999992021010412004+39350-074420FM-13+001099999V0209999C000019999999N999999999+00311+99999101521ADDSA1+0691REMSYN048ACYN4 46/// ///// 10031 40152 91136 222// 00069=
0088997270999992021010413004+39350-074420FM-13+001099999V0209999C000019999999N999999999+00311+99999101571ADDMD1110141+9999SA1+0681REMSYN054ACYN4 46/// ///// 10031 40157 51014 91300 222// 00068=
0088997270999992021010414004+39350-074420FM-13+001099999V0209999C000019999999N999999999+00291+99999101661ADDMD1310181+9999SA1+0691REMSYN054ACYN4 46/// ///// 10029 40166 53018 91400 222// 00069=
0088997270999992021010415004+39350-074420FM-13+001099999V0209999C000019999999N999999999+00331+99999101681ADDMD1210131+9999SA1+0701REMSYN054ACYN4 46/// ///// 10033 40168 52013 91500 222// 00070=
0088997270999992021010416004+39350-074420FM-13+001099999V0209999C000019999999N999999999+00301+99999101651ADDMD1990081+9999SA1+0701REMSYN054ACYN4 46/// ///// 10030 40165 50008 91600 222// 00070=
0088997270999992021010417004+39350-074420FM-13+001099999V0209999C000019999999N999999999+00321+99999101571ADDMD1810091+9999SA1+0711REMSYN054ACYN4 46/// ///// 10032 40157 58009 91700 222// 00071=
0088997270999992021010418004+39350-074420FM-13+001099999V0209999C000019999999N999999999+00371+99999101521ADDMD1810161+9999SA1+0711REMSYN054ACYN4 46/// ///// 10037 40152 58016 91800 222// 00071=
0088997270999992021010419004+39350-074420FM-13+001099999V0209999C000019999999N999999999+00421+99999101501ADDMD1610151+9999SA1+0711REMSYN054ACYN4 46/// ///// 10042 40150 56015 91900 222// 00071=
0088997270999992021010420004+39350-074420FM-13+001099999V0209999C000019999999N999999999+00521+99999101491ADDMD1610081+9999SA1+0711REMSYN054ACYN4 46/// ///// 10052 40149 56008 92000 222// 00071=
0088997270999992021010421004+39350-074420FM-13+001099999V0209999C000019999999N999999999+00551+99999101501ADDMD1410001+9999SA1+0711REMSYN054ACYN4 46/// ///// 10055 40150 54000 92100 222// 00071=
0088997270999992021010422004+39350-074420FM-13+001099999V0209999C000019999999N999999999+00521+99999101521ADDMD1410001+9999SA1+0711REMSYN054ACYN4 46/// ///// 10052 40152 54000 92200 222// 00071=
0088997270999992021010423004+39350-074420FM-13+001099999V0209999C000019999999N999999999+00491+99999101531ADDMD1210041+9999SA1+0711REMSYN054ACYN4 46/// ///// 10049 40153 52004 92300 222// 00071=
0088997270999992021010500004+39350-074420FM-13+001099999V0209999C000019999999N999999999+00491+99999101541ADDMD1210041+9999SA1+0711REMSYN054ACYN4 46/// ///// 10049 40154 52004 90000 222// 00071=
0088997270999992021010501004+39350-074420FM-13+001099999V0209999C000019999999N999999999+00501+99999101531ADDMD1410001+9999SA1+0711REMSYN054ACYN4 46/// ///// 10050 40153 54000 90100 222// 00071=
0088997270999992021010502004+39350-074420FM-13+001099999V0209999C000019999999N999999999+00501+99999101541ADDMD1410001+9999SA1+0711REMSYN054ACYN4 46/// ///// 10050 40154 54000 90200 222// 00071=
0088997270999992021010503004+39350-074420FM-13+001099999V0209999C000019999999N999999999+00491+99999101481ADDMD1810061+9999SA1+0711REMSYN054ACYN4 46/// ///// 10049 40148 58006 90300 222// 00071=
0088997270999992021010504004+39350-074420FM-13+001099999V0209999C000019999999N999999999+00461+99999101451ADDMD1810081+9999SA1+0711REMSYN054ACYN4 46/// ///// 10046 40145 58008 90400 222// 00071=
0088997270999992021010505004+39350-074420FM-13+001099999V0209999C000019999999N999999999+00471+99999101421ADDMD1610121+9999SA1+0711REMSYN054ACYN4 46/// ///// 10047 40142 56012 90500 222// 00071=
0068997270999992021010506004+39350-074420FM-13+001099999V0209999C000019999999N999999999+00461+99999101391ADDSA1+0701REMSYN048ACYN4 46/// ///// 10046 40139 90542 222// 00070=
0088997270999992021010507004+39350-074420FM-13+001099999V0209999C000019999999N999999999+00411+99999101401ADDMD1610051+9999SA1+0701REMSYN054ACYN4 46/// ///// 10041 40140 56005 90700 222// 00070=
0088997270999992021010508004+39350-074420FM-13+001099999V0209999C000019999999N999999999+00421+99999101391ADDMD1610031+9999SA1+0711REMSYN054ACYN4 46/// ///// 10042 40139 56003 90800 222// 00071=
0088997270999992021010509004+39350-074420FM-13+001099999V0209999C000019999999N999999999+00411+99999101361ADDMD1810031+9999SA1+0711REMSYN054ACYN4 46/// ///// 10041 40136 58003 90900 222// 00071=
0088997270999992021010510004+39350-074420FM-13+001099999V0209999C000019999999N999999999+00401+99999101331ADDMD1810071+9999SA1+0701REMSYN054ACYN4 46/// ///// 10040 40133 58007 91000 222// 00070=
0068997270999992021010511004+39350-074420FM-13+001099999V0209999C000019999999N999999999+00401+99999101341ADDSA1+0701REMSYN048ACYN4 46/// ///// 10040 40134 91042 222// 00070=
0088997270999992021010512004+39350-074420FM-13+001099999V0209999C000019999999N999999999+00361+99999101391ADDMD1210031+9999SA1+0701REMSYN054ACYN4 46/// ///// 10036 40139 52003 91200 222// 00070=
0088997270999992021010513004+39350-074420FM-13+001099999V0209999C000019999999N999999999+00341+99999101421ADDMD1210091+9999SA1+0701REMSYN054ACYN4 46/// ///// 10034 40142 52009 91300 222// 00070=
0068997270999992021010514004+39350-074420FM-13+001099999V0209999C000019999999N999999999+00341+99999101441ADDSA1+0691REMSYN048ACYN4 46/// ///// 10034 40144 91336 222// 00069=
0088997270999992021010515004+39350-074420FM-13+001099999V0209999C000019999999N999999999+00381+99999101431ADDMD1110041+9999SA1+0701REMSYN054ACYN4 46/// ///// 10038 40143 51004 91500 222// 00070=
0088997270999992021010516004+39350-074420FM-13+001099999V0209999C000019999999N999999999+00401+99999101341ADDMD1810081+9999SA1+0701REMSYN054ACYN4 46/// ///// 10040 40134 58008 91600 222// 00070=
0088997270999992021010517004+39350-074420FM-13+001099999V0209999C000019999999N999999999+99999+99999101261ADDMD1810181+9999SA1+0701REMSYN054ACYN4 46/// ///// 1//// 40126 58018 91700 222// 00070=
0088997270999992021010518004+39350-074420FM-13+001099999V0209999C000019999999N999999999+00461+99999101231ADDMD1610201+9999SA1+0701REMSYN054ACYN4 46/// ///// 10046 40123 56020 91800 222// 00070=
0088997270999992021010519004+39350-074420FM-13+001099999V0209999C000019999999N999999999+00491+99999101221ADDMD1610121+9999SA1+0711REMSYN054ACYN4 46/// ///// 10049 40122 56012 91900 222// 00071=
0088997270999992021010520004+39350-074420FM-13+001099999V0209999C000019999999N999999999+00501+99999101221ADDMD1610041+9999SA1+0711REMSYN054ACYN4 46/// ///// 10050 40122 56004 92000 222// 00071=
0088997270999992021010521004+39350-074420FM-13+001099999V0209999C000019999999N999999999+00491+99999101271ADDMD1310041+9999SA1+0711REMSYN054ACYN4 46/// ///// 10049 40127 53004 92100 222// 00071=
0088997270999992021010522004+39350-074420FM-13+001099999V0209999C000019999999N999999999+00471+99999101361ADDMD1310141+9999SA1+0711REMSYN054ACYN4 46/// ///// 10047 40136 53014 92200 222// 00071=
0088997270999992021010523004+39350-074420FM-13+001099999V0209999C000019999999N999999999+00461+99999101421ADDMD1310201+9999SA1+0701REMSYN054ACYN4 46/// ///// 10046 40142 53020 92300 222// 00070=
0088997270999992021010600004+39350-074420FM-13+001099999V0209999C000019999999N999999999+00431+99999101451ADDMD1110181+9999SA1+0701REMSYN054ACYN4 46/// ///// 10043 40145 51018 90000 222// 00070=
0088997270999992021010601004+39350-074420FM-13+001099999V0209999C000019999999N999999999+00411+99999101461ADDMD1110101+9999SA1+0701REMSYN054ACYN4 46/// ///// 10041 40146 51010 90100 222// 00070=
0068997270999992021010602004+39350-074420FM-13+001099999V0209999C000019999999N999999999+00401+99999101461ADDSA1+0701REMSYN048ACYN4 46/// ///// 10040 40146 90212 222// 00070=
0088997270999992021010603004+39350-074420FM-13+001099999V0209999C000019999999N999999999+00391+99999101431ADDMD1410001+9999SA1+0681REMSYN054ACYN4 46/// ///// 10039 40143 54000 90300 222// 00068=
0088997270999992021010604004+39350-074420FM-13+001099999V0209999C000019999999N999999999+00381+99999101441ADDMD1410001+9999SA1+0691REMSYN054ACYN4 46/// ///// 10038 40144 54000 90400 222// 00069=
0068997270999992021010605004+39350-074420FM-13+001099999V0209999C000019999999N999999999+00401+99999101441ADDSA1+0691REMSYN048ACYN4 46/// ///// 10040 40144 90436 222// 00069=
0088997270999992021010606004+39350-074420FM-13+001099999V0209999C000019999999N999999999+00391+99999101431ADDMD1410001+9999SA1+0691REMSYN054ACYN4 46/// ///// 10039 40143 54000 90600 222// 00069=
0088997270999992021010607004+39350-074420FM-13+001099999V0209999C000019999999N999999999+00361+99999101481ADDMD1310041+9999SA1+0701REMSYN054ACYN4 46/// ///// 10036 40148 53004 90700 222// 00070=
0088997270999992021010608004+39350-074420FM-13+001099999V0209999C000019999999N999999999+00371+99999101511ADDMD1310071+9999SA1+0711REMSYN054ACYN4 46/// ///// 10037 40151 53007 90800 222// 00071=
0088997270999992021010609004+39350-074420FM-13+001099999V0209999C000019999999N999999999+00341+99999101541ADDMD1110111+9999SA1+0721REMSYN054ACYN4 46/// ///// 10034 40154 51011 90900 222// 00072=
0068997270999992021010610004+39350-074420FM-13+001099999V0209999C000019999999N999999999+00291+99999101541ADDSA1+0711REMSYN048ACYN4 46/// ///// 10029 40154 91006 222// 00071=
0068997270999992021010611004+39350-074420FM-13+001099999V0209999C000019999999N999999999+00281+99999101561ADDSA1+0711REMSYN048ACYN4 46/// ///// 10028 40156 91048 222// 00071=
0088997270999992021010612004+39350-074420FM-13+001099999V0209999C000019999999N999999999+00241+99999101631ADDMD1210091+9999SA1+0701REMSYN054ACYN4 46/// ///// 10024 40163 52009 91200 222// 00070=
0088997270999992021010613004+39350-074420FM-13+001099999V0209999C000019999999N999999999+99999+99999101681ADDMD1210141+9999SA1+0701REMSYN054ACYN4 46/// ///// 1//// 40168 52014 91300 222// 00070=
0068997270999992021010614004+39350-074420FM-13+001099999V0209999C000019999999N999999999+00381+99999101711ADDSA1+0691REMSYN048ACYN4 46/// ///// 10038 40171 91336 222// 00069=
0088997270999992021010615004+39350-074420FM-13+001099999V0209999C000019999999N999999999+00541+99999101721ADDMD1110091+9999SA1+0691REMSYN054ACYN4 46/// ///// 10054 40172 51009 91500 222// 00069=
0088997270999992021010616004+39350-074420FM-13+001099999V0209999C000019999999N999999999+00591+99999101651ADDMD1810031+9999SA1+0701REMSYN054ACYN4 46/// ///// 10059 40165 58003 91600 222// 00070=
0088997270999992021010617004+39350-074420FM-13+001099999V0209999C000019999999N999999999+00641+99999101591ADDMD1810131+9999SA1+0691REMSYN054ACYN4 46/// ///// 10064 40159 58013 91700 222// 00069=
0068997270999992021010618004+39350-074420FM-13+001099999V0209999C000019999999N999999999+00651+99999101561ADDSA1+0691REMSYN048ACYN4 46/// ///// 10065 40156 91736 222// 00069=
0088997270999992021010619004+39350-074420FM-13+001099999V0209999C000019999999N999999999+00631+99999101571ADDMD1710081+9999SA1+0701REMSYN054ACYN4 46/// ///// 10063 40157 57008 91900 222// 00070=
0088997270999992021010620004+39350-074420FM-13+001099999V0209999C000019999999N999999999+00601+99999101621ADDMD1210031+9999SA1+0701REMSYN054ACYN4 46/// ///// 10060 40162 52003 92000 222// 00070=
0068997270999992021010621004+39350-074420FM-13+001099999V0209999C000019999999N999999999+00581+99999101651ADDSA1+0701REMSYN048ACYN4 46/// ///// 10058 40165 92036 222// 00070=
0088997270999992021010622004+39350-074420FM-13+001099999V0209999C000019999999N999999999+00451+99999101761ADDMD1310191+9999SA1+0701REMSYN054ACYN4 46/// ///// 10045 40176 53019 92200 222// 00070=
0088997270999992021010623004+39350-074420FM-13+001099999V0209999C000019999999N999999999+00401+99999101831ADDMD1210211+9999SA1+0701REMSYN054ACYN4 46/// ///// 10040 40183 52021 92300 222// 00070=
0088997270999992021010700004+39350-074420FM-13+001099999V0209999C000019999999N999999999+00351+99999101871ADDMD1110181+9999SA1+0681REMSYN054ACYN4 46/// ///// 10035 40187 51018 90000 222// 00068=
0088997270999992021010701004+39350-074420FM-13+001099999V0209999C000019999999N999999999+00311+99999101901ADDMD1110141+9999SA1+0681REMSYN054ACYN4 46/// ///// 10031 40190 51014 90100 222// 00068=
0088997270999992021010702004+39350-074420FM-13+001099999V0209999C000019999999N999999999+00291+99999101881ADDMD1110051+9999SA1+0681REMSYN054ACYN4 46/// ///// 10029 40188 51005 90200 222// 00068=
0068997270999992021010703004+39350-074420FM-13+001099999V0209999C000019999999N999999999+00261+99999101891ADDSA1+0691REMSYN048ACYN4 46/// ///// 10026 40189 90242 222// 00069=
0088997270999992021010704004+39350-074420FM-13+001099999V0209999C000019999999N999999999+00221+99999101861ADDMD1810041+9999SA1+0681REMSYN054ACYN4 46/// ///// 10022 40186 58004 90400 222// 00068=
0088997270999992021010705004+39350-074420FM-13+001099999V0209999C000019999999N999999999+00181+99999101891ADDMD1510001+9999SA1+0671REMSYN054ACYN4 46/// ///// 10018 40189 55000 90500 222// 00067=
0088997270999992021010706004+39350-074420FM-13+001099999V0209999C000019999999N999999999+00161+99999101901ADDMD1510001+9999SA1+0671REMSYN054ACYN4 46/// ///// 10016 40190 55000 90600 222// 00067=
0088997270999992021010707004+39350-074420FM-13+001099999V0209999C000019999999N999999999+00151+99999101911ADDMD1110051+9999SA1+0671REMSYN054ACYN4 46/// ///// 10015 40191 51005 90700 222// 00067=
0088997270999992021010708004+39350-074420FM-13+001099999V0209999C000019999999N999999999+00181+99999101881ADDMD1990001+9999SA1+0671REMSYN054ACYN4 46/// ///// 10018 40188 50000 90800 222// 00067=
0088997270999992021010709004+39350-074420FM-13+001099999V0209999C000019999999N999999999+00141+99999101921ADDMD1510001+9999SA1+0671REMSYN054ACYN4 46/// ///// 10014 40192 55000 90900 222// 00067=
0068997270999992021010710004+39350-074420FM-13+001099999V0209999C000019999999N999999999+00111+99999101921ADDSA1+0661REMSYN048ACYN4 46/// ///// 10011 40192 90942 222// 00066=
0088997270999992021010711004+39350-074420FM-13+001099999V0209999C000019999999N999999999+00091+99999101981ADDMD1210101+9999SA1+0661REMSYN054ACYN4 46/// ///// 10009 40198 52010 91100 222// 00066=
0088997270999992021010712004+39350-074420FM-13+001099999V0209999C000019999999N999999999+00081+99999102051ADDMD1310131+9999SA1+0661REMSYN054ACYN4 46/// ///// 10008 40205 53013 91200 222// 00066=
0088997270999992021010713004+39350-074420FM-13+001099999V0209999C000019999999N999999999+00131+99999102091ADDMD1210151+9999SA1+0651REMSYN054ACYN4 46/// ///// 10013 40209 52015 91300 222// 00065=
0088997270999992021010714004+39350-074420FM-13+001099999V0209999C000019999999N999999999+00231+99999102131ADDMD1110151+9999SA1+0651REMSYN054ACYN4 46/// ///// 10023 40213 51015 91400 222// 00065=
0088997270999992021010715004+39350-074420FM-13+001099999V0209999C000019999999N999999999+00321+99999102081ADDMD1990031+9999SA1+0651REMSYN054ACYN4 46/// ///// 10032 40208 50003 91500 222// 00065=
0068997270999992021010716004+39350-074420FM-13+001099999V0209999C000019999999N999999999+00391+99999102071ADDSA1+0651REMSYN048ACYN4 46/// ///// 10039 40207 91536 222// 00065=
0088997270999992021010717004+39350-074420FM-13+001099999V0209999C000019999999N999999999+00521+99999101951ADDMD1810181+9999SA1+0651REMSYN054ACYN4 46/// ///// 10052 40195 58018 91700 222// 00065=
0088997270999992021010718004+39350-074420FM-13+001099999V0209999C000019999999N999999999+00611+99999101901ADDMD1710181+9999SA1+0651REMSYN054ACYN4 46/// ///// 10061 40190 57018 91800 222// 00065=
0088997270999992021010719004+39350-074420FM-13+001099999V0209999C000019999999N999999999+00661+99999101891ADDMD1610141+9999SA1+0661REMSYN054ACYN4 46/// ///// 10066 40189 56014 91900 222// 00066=
0088997270999992021010720004+39350-074420FM-13+001099999V0209999C000019999999N999999999+00691+99999101891ADDMD1610061+9999SA1+0661REMSYN054ACYN4 46/// ///// 10069 40189 56006 92000 222// 00066=
0088997270999992021010721004+39350-074420FM-13+001099999V0209999C000019999999N999999999+00671+99999101941ADDMD1310041+9999SA1+0661REMSYN054ACYN4 46/// ///// 10067 40194 53004 92100 222// 00066=
0088997270999992021010722004+39350-074420FM-13+001099999V0209999C000019999999N999999999+00581+99999101981ADDMD1310091+9999SA1+0661REMSYN054ACYN4 46/// ///// 10058 40198 53009 92200 222// 00066=
0088997270999992021010723004+39350-074420FM-13+001099999V0209999C000019999999N999999999+00511+99999101991ADDMD1110101+9999SA1+0651REMSYN054ACYN4 46/// ///// 10051 40199 51010 92300 222// 00065=
0088997270999992021010800004+39350-074420FM-13+001099999V0209999C000019999999N999999999+00461+99999101991ADDMD1110051+9999SA1+0651REMSYN054ACYN4 46/// ///// 10046 40199 51005 90000 222// 00065=
0088997270999992021010801004+39350-074420FM-13+001099999V0209999C000019999999N999999999+00381+99999102001ADDMD1410001+9999SA1+0651REMSYN054ACYN4 46/// ///// 10038 40200 54000 90100 222// 00065=
0088997270999992021010802004+39350-074420FM-13+001099999V0209999C000019999999N999999999+00281+99999102011ADDMD1410001+9999SA1+0641REMSYN054ACYN4 46/// ///// 10028 40201 54000 90200 222// 00064=
0088997270999992021010803004+39350-074420FM-13+001099999V0209999C000019999999N999999999+00221+99999102051ADDMD1310061+9999SA1+0641REMSYN054ACYN4 46/// ///// 10022 40205 53006 90300 222// 00064=
0088997270999992021010804004+39350-074420FM-13+001099999V0209999C000019999999N999999999+00161+99999102011ADDMD1990001+9999SA1+0651REMSYN054ACYN4 46/// ///// 10016 40201 50000 90400 222// 00065=
0088997270999992021010805004+39350-074420FM-13+001099999V0209999C000019999999N999999999+00111+99999101941ADDMD1810071+9999SA1+0641REMSYN054ACYN4 46/// ///// 10011 40194 58007 90500 222// 00064=
0088997270999992021010821004+39350-074420FM-13+001099999V0209999C000019999999N999999999+00191+99999101361ADDMD1710111+9999SA1+0591REMSYN054ACYN4 46/// ///// 10019 40136 57011 92100 222// 00059=
0068997270999992021010822004+39350-074420FM-13+001099999V0209999C000019999999N999999999+00171+99999101361ADDSA1+0591REMSYN048ACYN4 46/// ///// 10017 40136 92154 222// 00059=
0088997270999992021010823004+39350-074420FM-13+001099999V0209999C000019999999N999999999+00151+99999101351ADDMD1710031+9999SA1+0581REMSYN054ACYN4 46/// ///// 10015 40135 57003 92300 222// 00058=
0088997270999992021010900004+39350-074420FM-13+001099999V0209999C000019999999N999999999+00121+99999101281ADDMD1810081+9999SA1+0571REMSYN054ACYN4 46/// ///// 10012 40128 58008 90000 222// 00057=
0068997270999992021010901004+39350-074420FM-13+001099999V0209999C000019999999N999999999+00111+99999101241ADDSA1+0591REMSYN048ACYN4 46/// ///// 10011 40124 90042 222// 00059=
0088997270999992021010902004+39350-074420FM-13+001099999V0209999C000019999999N999999999+00101+99999101131ADDMD1710221+9999SA1+0571REMSYN054ACYN4 46/// ///// 10010 40113 57022 90200 222// 00057=
0088997270999992021010903004+39350-074420FM-13+001099999V0209999C000019999999N999999999+00101+99999101071ADDMD1710211+9999SA1+0581REMSYN054ACYN4 46/// ///// 10010 40107 57021 90300 222// 00058=
0068997270999992021010904004+39350-074420FM-13+001099999V0209999C000019999999N999999999+00091+99999101051ADDSA1+0591REMSYN048ACYN4 46/// ///// 10009 40105 90342 222// 00059=
0088997270999992021010905004+39350-074420FM-13+001099999V0209999C000019999999N999999999+00031+99999101011ADDMD1610121+9999SA1+0581REMSYN054ACYN4 46/// ///// 10003 40101 56012 90500 222// 00058=
0088997270999992021010906004+39350-074420FM-13+001099999V0209999C000019999999N999999999-00021+99999100971ADDMD1810101+9999SA1+0561REMSYN054ACYN4 46/// ///// 11002 40097 58010 90600 222// 00056=
0088997270999992021010907004+39350-074420FM-13+001099999V0209999C000019999999N999999999-00071+99999100981ADDMD1610061+9999SA1+0561REMSYN054ACYN4 46/// ///// 11007 40098 56006 90700 222// 00056=
0088997270999992021010908004+39350-074420FM-13+001099999V0209999C000019999999N999999999-00071+99999100981ADDMD1610031+9999SA1+0551REMSYN054ACYN4 46/// ///// 11007 40098 56003 90800 222// 00055=
0088997270999992021010909004+39350-074420FM-13+001099999V0209999C000019999999N999999999-00101+99999100961ADDMD1410001+9999SA1+0541REMSYN054ACYN4 46/// ///// 11010 40096 54000 90900 222// 00054=
0068997270999992021010910004+39350-074420FM-13+001099999V0209999C000019999999N999999999-00111+99999100991ADDSA1+0541REMSYN048ACYN4 46/// ///// 11011 40099 90948 222// 00054=
0088997270999992021010911004+39350-074420FM-13+001099999V0209999C000019999999N999999999-00141+99999101021ADDMD1310041+9999SA1+0521REMSYN054ACYN4 46/// ///// 11014 40102 53004 91100 222// 00052=
0088997270999992021010912004+39350-074420FM-13+001099999V0209999C000019999999N999999999-00181+99999101071ADDMD1310111+9999SA1+0561REMSYN054ACYN4 46/// ///// 11018 40107 53011 91200 222// 00056=
0088997270999992021010913004+39350-074420FM-13+001099999V0209999C000019999999N999999999-00161+99999101181ADDMD1310191+9999SA1+0571REMSYN054ACYN4 46/// ///// 11016 40118 53019 91300 222// 00057=
0088997270999992021010914004+39350-074420FM-13+001099999V0209999C000019999999N999999999-00111+99999101251ADDMD1310231+9999SA1+0561REMSYN054ACYN4 46/// ///// 11011 40125 53023 91400 222// 00056=
0088997270999992021010915004+39350-074420FM-13+001099999V0209999C000019999999N999999999-00051+99999101301ADDMD1110231+9999SA1+0551REMSYN054ACYN4 46/// ///// 11005 40130 51023 91500 222// 00055=
0088997270999992021010916004+39350-074420FM-13+001099999V0209999C000019999999N999999999+00031+99999101261ADDMD1990081+9999SA1+0551REMSYN054ACYN4 46/// ///// 10003 40126 50008 91600 222// 00055=
0088997270999992021010917004+39350-074420FM-13+001099999V0209999C000019999999N999999999+00171+99999101201ADDMD1810051+9999SA1+0561REMSYN054ACYN4 46/// ///// 10017 40120 58005 91700 222// 00056=
0088997270999992021010918004+39350-074420FM-13+001099999V0209999C000019999999N999999999+00201+99999101201ADDMD1610101+9999SA1+0551REMSYN054ACYN4 46/// ///// 10020 40120 56010 91800 222// 00055=
0088997270999992021010919004+39350-074420FM-13+001099999V0209999C000019999999N999999999+00371+99999101211ADDMD1610051+9999SA1+0561REMSYN054ACYN4 46/// ///// 10037 40121 56005 91900 222// 00056=
0088997270999992021010920004+39350-074420FM-13+001099999V0209999C000019999999N999999999+00381+99999101251ADDMD1310051+9999SA1+0571REMSYN054ACYN4 46/// ///// 10038 40125 53005 92000 222// 00057=
0088997270999992021010921004+39350-074420FM-13+001099999V0209999C000019999999N999999999+00361+99999101281ADDMD1310081+9999SA1+0571REMSYN054ACYN4 46/// ///// 10036 40128 53008 92100 222// 00057=
0088997270999992021010922004+39350-074420FM-13+001099999V0209999C000019999999N999999999+00351+99999101361ADDMD1310151+9999SA1+0571REMSYN054ACYN4 46/// ///// 10035 40136 53015 92200 222// 00057=
0088997270999992021010923004+39350-074420FM-13+001099999V0209999C000019999999N999999999+99999+99999101391ADDMD1210141+9999SA1+0561REMSYN054ACYN4 46/// ///// 1//// 40139 52014 92300 222// 00056=
0088997270999992021011000004+39350-074420FM-13+001099999V0209999C000019999999N999999999+00391+99999101441ADDMD1110161+9999SA1+0561REMSYN054ACYN4 46/// ///// 10039 40144 51016 90000 222// 00056=
0088997270999992021011001004+39350-074420FM-13+001099999V0209999C000019999999N999999999+00351+99999101501ADDMD1310141+9999SA1+0531REMSYN054ACYN4 46/// ///// 10035 40150 53014 90100 222// 00053=
0088997270999992021011002004+39350-074420FM-13+001099999V0209999C000019999999N999999999+00331+99999101501ADDMD1110111+9999SA1+0531REMSYN054ACYN4 46/// ///// 10033 40150 51011 90200 222// 00053=
0088997270999992021011003004+39350-074420FM-13+001099999V0209999C000019999999N999999999+00371+99999101551ADDMD1110111+9999SA1+0511REMSYN054ACYN4 46/// ///// 10037 40155 51011 90300 222// 00051=
0088997270999992021011004004+39350-074420FM-13+001099999V0209999C000019999999N999999999+00371+99999101601ADDMD1310101+9999SA1+0531REMSYN054ACYN4 46/// ///// 10037 40160 53010 90400 222// 00053=
0088997270999992021011005004+39350-074420FM-13+001099999V0209999C000019999999N999999999+00361+99999101671ADDMD1310171+9999SA1+0541REMSYN054ACYN4 46/// ///// 10036 40167 53017 90500 222// 00054=
0088997270999992021011006004+39350-074420FM-13+001099999V0209999C000019999999N999999999+00311+99999101731ADDMD1310181+9999SA1+0531REMSYN054ACYN4 46/// ///// 10031 40173 53018 90600 222// 00053=
0088997270999992021011007004+39350-074420FM-13+001099999V0209999C000019999999N999999999+00221+99999101841ADDMD1310241+9999SA1+0521REMSYN054ACYN4 46/// ///// 10022 40184 53024 90700 222// 00052=
0088997270999992021011008004+39350-074420FM-13+001099999V0209999C000019999999N999999999+00161+99999101901ADDMD1210231+9999SA1+0521REMSYN054ACYN4 46/// ///// 10016 40190 52023 90800 222// 00052=
0088997270999992021011009004+39350-074420FM-13+001099999V0209999C000019999999N999999999+00111+99999101961ADDMD1110231+9999SA1+0501REMSYN054ACYN4 46/// ///// 10011 40196 51023 90900 222// 00050=
0068997270999992021011010004+39350-074420FM-13+001099999V0209999C000019999999N999999999+00051+99999101981ADDSA1+0511REMSYN048ACYN4 46/// ///// 10005 40198 90942 222// 00051=
0088997270999992021011011004+39350-074420FM-13+001099999V0209999C000019999999N999999999+00071+99999102061ADDMD1210161+9999SA1+0501REMSYN054ACYN4 46/// ///// 10007 40206 52016 91100 222// 00050=
0088997270999992021011012004+39350-074420FM-13+001099999V0209999C000019999999N999999999+00031+99999102141ADDMD1210181+9999SA1+0481REMSYN054ACYN4 46/// ///// 10003 40214 52018 91200 222// 00048=
0068997270999992021011013004+39350-074420FM-13+001099999V0209999C000019999999N999999999+00021+99999102201ADDSA1+0491REMSYN048ACYN4 46/// ///// 10002 40220 91236 222// 00049=
0088997270999992021011014004+39350-074420FM-13+001099999V0209999C000019999999N999999999+00161+99999102341ADDMD1310281+9999SA1+0501REMSYN054ACYN4 46/// ///// 10016 40234 53028 91400 222// 00050=
0088997270999992021011015004+39350-074420FM-13+001099999V0209999C000019999999N999999999+00271+99999102421ADDMD1110281+9999SA1+0471REMSYN054ACYN4 46/// ///// 10027 40242 51028 91500 222// 00047=
0088997270999992021011016004+39350-074420FM-13+001099999V0209999C000019999999N999999999+00391+99999102411ADDMD1110181+9999SA1+0491REMSYN054ACYN4 46/// ///// 10039 40241 51018 91600 222// 00049=
0088997270999992021011017004+39350-074420FM-13+001099999V0209999C000019999999N999999999+00491+99999102331ADDMD1990001+9999SA1+0511REMSYN054ACYN4 46/// ///// 10049 40233 50000 91700 222// 00051=
0088997270999992021011018004+39350-074420FM-13+001099999V0209999C000019999999N999999999+00501+99999102281ADDMD1810141+9999SA1+0521REMSYN054ACYN4 46/// ///// 10050 40228 58014 91800 222// 00052=
0088997270999992021011019004+39350-074420FM-13+001099999V0209999C000019999999N999999999+00631+99999102301ADDMD1610111+9999SA1+0511REMSYN054ACYN4 46/// ///// 10063 40230 56011 91900 222// 00051=
0088997270999992021011020004+39350-074420FM-13+001099999V0209999C000019999999N999999999+00701+99999102331ADDMD1510001+9999SA1+0531REMSYN054ACYN4 46/// ///// 10070 40233 55000 92000 222// 00053=
0088997270999992021011021004+39350-074420FM-13+001099999V0209999C000019999999N999999999+00511+99999102401ADDMD1310121+9999SA1+0541REMSYN054ACYN4 46/// ///// 10051 40240 53012 92100 222// 00054=
0088997270999992021011022004+39350-074420FM-13+001099999V0209999C000019999999N999999999+00481+99999102481ADDMD1310181+9999SA1+0541REMSYN054ACYN4 46/// ///// 10048 40248 53018 92200 222// 00054=
0088997270999992021011023004+39350-074420FM-13+001099999V0209999C000019999999N999999999+00441+99999102571ADDMD1310241+9999SA1+0531REMSYN054ACYN4 46/// ///// 10044 40257 53024 92300 222// 00053=
0088997270999992021011100004+39350-074420FM-13+001099999V0209999C000019999999N999999999+00471+99999102581ADDMD1110181+9999SA1+0521REMSYN054ACYN4 46/// ///// 10047 40258 51018 90000 222// 00052=
0068997270999992021011101004+39350-074420FM-13+001099999V0209999C000019999999N999999999+00441+99999102641ADDSA1+0461REMSYN048ACYN4 46/// ///// 10044 40264 90036 222// 00046=
0088997270999992021011102004+39350-074420FM-13+001099999V0209999C000019999999N999999999+00391+99999102671ADDMD1210101+9999SA1+0491REMSYN054ACYN4 46/// ///// 10039 40267 52010 90200 222// 00049=
0088997270999992021011103004+39350-074420FM-13+001099999V0209999C000019999999N999999999+00361+99999102701ADDMD1210121+9999SA1+0501REMSYN054ACYN4 46/// ///// 10036 40270 52012 90300 222// 00050=
0068997270999992021011104004+39350-074420FM-13+001099999V0209999C000019999999N999999999+00321+99999102691ADDSA1+0501REMSYN048ACYN4 46/// ///// 10032 40269 90348 222// 00050=
0068997270999992021011105004+39350-074420FM-13+001099999V0209999C000019999999N999999999+00331+99999102721ADDSA1+0501REMSYN048ACYN4 46/// ///// 10033 40272 90436 222// 00050=
0088997270999992021011106004+39350-074420FM-13+001099999V0209999C000019999999N999999999+00301+99999102731ADDMD1210031+9999SA1+0501REMSYN054ACYN4 46/// ///// 10030 40273 52003 90600 222// 00050=
0088997270999992021011107004+39350-074420FM-13+001099999V0209999C000019999999N999999999+00231+99999102691ADDMD1990001+9999SA1+0511REMSYN054ACYN4 46/// ///// 10023 40269 50000 90700 222// 00051=
0088997270999992021011108004+39350-074420FM-13+001099999V0209999C000019999999N999999999+00171+99999102731ADDMD1510001+9999SA1+0511REMSYN054ACYN4 46/// ///// 10017 40273 55000 90800 222// 00051=
0088997270999992021011109004+39350-074420FM-13+001099999V0209999C000019999999N999999999+00181+99999102721ADDMD1510001+9999SA1+0511REMSYN054ACYN4 46/// ///// 10018 40272 55000 90900 222// 00051=
0088997270999992021011110004+39350-074420FM-13+001099999V0209999C000019999999N999999999+00141+99999102761ADDMD1210071+9999SA1+0521REMSYN054ACYN4 46/// ///// 10014 40276 52007 91000 222// 00052=
0068997270999992021011111004+39350-074420FM-13+001099999V0209999C000019999999N999999999+00141+99999102761ADDSA1+0511REMSYN048ACYN4 46/// ///// 10014 40276 91036 222// 00051=
0088997270999992021011112004+39350-074420FM-13+001099999V0209999C000019999999N999999999+00101+99999102771ADDMD1210051+9999SA1+0511REMSYN054ACYN4 46/// ///// 10010 40277 52005 91200 222// 00051=
0088997270999992021011113004+39350-074420FM-13+001099999V0209999C000019999999N999999999+00171+99999102741ADDMD1410001+9999SA1+0531REMSYN054ACYN4 46/// ///// 10017 40274 54000 91300 222// 00053=
0068997270999992021011114004+39350-074420FM-13+001099999V0209999C000019999999N999999999+00261+99999102751ADDSA1+0501REMSYN048ACYN4 46/// ///// 10026 40275 91336 222// 00050=
0088997270999992021011115004+39350-074420FM-13+001099999V0209999C000019999999N999999999+00441+99999102831ADDMD1310061+9999SA1+0521REMSYN054ACYN4 46/// ///// 10044 40283 53006 91500 222// 00052=
0088997270999992021011116004+39350-074420FM-13+001099999V0209999C000019999999N999999999+00531+99999102711ADDMD1810031+9999SA1+0521REMSYN054ACYN4 46/// ///// 10053 40271 58003 91600 222// 00052=
0088997270999992021011117004+39350-074420FM-13+001099999V0209999C000019999999N999999999+00451+99999102611ADDMD1810181+9999SA1+0521REMSYN054ACYN4 46/// ///// 10045 40261 58018 91700 222// 00052=
0088997270999992021011118004+39350-074420FM-13+001099999V0209999C000019999999N999999999+99999+99999102561ADDMD1610271+9999SA1+0531REMSYN054ACYN4 46/// ///// 1//// 40256 56027 91800 222// 00053=
0088997270999992021011119004+39350-074420FM-13+001099999V0209999C000019999999N999999999+00511+99999102471ADDMD1610241+9999SA1+0531REMSYN054ACYN4 46/// ///// 10051 40247 56024 91900 222// 00053=
0088997270999992021011120004+39350-074420FM-13+001099999V0209999C000019999999N999999999+00531+99999102461ADDMD1610151+9999SA1+0531REMSYN054ACYN4 46/// ///// 10053 40246 56015 92000 222// 00053=
0088997270999992021011121004+39350-074420FM-13+001099999V0209999C000019999999N999999999+00531+99999102431ADDMD1610131+9999SA1+0531REMSYN054ACYN4 46/// ///// 10053 40243 56013 92100 222// 00053=
0068997270999992021011122004+39350-074420FM-13+001099999V0209999C000019999999N999999999+00531+99999102391ADDSA1+0531REMSYN048ACYN4 46/// ///// 10053 40239 92148 222// 00053=
0088997270999992021011123004+39350-074420FM-13+001099999V0209999C000019999999N999999999+00571+99999102381ADDMD1710081+9999SA1+0541REMSYN054ACYN4 46/// ///// 10057 40238 57008 92300 222// 00054=
0088997270999992021011200004+39350-074420FM-13+001099999V0209999C000019999999N999999999+00591+99999102361ADDMD1710071+9999SA1+0541REMSYN054ACYN4 46/// ///// 10059 40236 57007 90000 222// 00054=
0068997270999992021011201004+39350-074420FM-13+001099999V0209999C000019999999N999999999+00581+99999102381ADDSA1+0531REMSYN048ACYN4 46/// ///// 10058 40238 90042 222// 00053=
0088997270999992021011202004+39350-074420FM-13+001099999V0209999C000019999999N999999999+00531+99999102341ADDMD1710041+9999SA1+0531REMSYN054ACYN4 46/// ///// 10053 40234 57004 90200 222// 00053=
0088997270999992021011203004+39350-074420FM-13+001099999V0209999C000019999999N999999999+00491+99999102331ADDMD1710031+9999SA1+0521REMSYN054ACYN4 46/// ///// 10049 40233 57003 90300 222// 00052=
0088997270999992021011204004+39350-074420FM-13+001099999V0209999C000019999999N999999999+00451+99999102301ADDMD1810061+9999SA1+0521REMSYN054ACYN4 46/// ///// 10045 40230 58006 90400 222// 00052=
0088997270999992021011205004+39350-074420FM-13+001099999V0209999C000019999999N999999999+00411+99999102271ADDMD1810071+9999SA1+0521REMSYN054ACYN4 46/// ///// 10041 40227 58007 90500 222// 00052=
0088997270999992021011206004+39350-074420FM-13+001099999V0209999C000019999999N999999999+00361+99999102261ADDMD1610071+9999SA1+0521REMSYN054ACYN4 46/// ///// 10036 40226 56007 90600 222// 00052=
0068997270999992021011207004+39350-074420FM-13+001099999V0209999C000019999999N999999999+00351+99999102251ADDSA1+0521REMSYN048ACYN4 46/// ///// 10035 40225 90636 222// 00052=
0088997270999992021011208004+39350-074420FM-13+001099999V0209999C000019999999N999999999+00321+99999102261ADDMD1410001+9999SA1+0511REMSYN054ACYN4 46/// ///// 10032 40226 54000 90800 222// 00051=
0088997270999992021011209004+39350-074420FM-13+001099999V0209999C000019999999N999999999+00261+99999102181ADDMD1710081+9999SA1+0511REMSYN054ACYN4 46/// ///// 10026 40218 57008 90900 222// 00051=
0068997270999992021011210004+39350-074420FM-13+001099999V0209999C000019999999N999999999+00201+99999102161ADDSA1+0511REMSYN048ACYN4 46/// ///// 10020 40216 90948 222// 00051=
0088997270999992021011211004+39350-074420FM-13+001099999V0209999C000019999999N999999999+00161+99999102171ADDMD1710091+9999SA1+0531REMSYN054ACYN4 46/// ///// 10016 40217 57009 91100 222// 00053=
0088997270999992021011212004+39350-074420FM-13+001099999V0209999C000019999999N999999999+99999+99999102201ADDMD1410001+9999SA1+0531REMSYN054ACYN4 46/// ///// 1//// 40220 54000 91200 222// 00053=
0068997270999992021011213004+39350-074420FM-13+001099999V0209999C000019999999N999999999+00181+99999102201ADDSA1+0531REMSYN048ACYN4 46/// ///// 10018 40220 91254 222// 00053=
0068997270999992021011214004+39350-074420FM-13+001099999V0209999C000019999999N999999999+99999+99999102251ADDSA1+0541REMSYN048ACYN4 46/// ///// 1//// 40225 91342 222// 00054=
0088997270999992021011215004+39350-074420FM-13+001099999V0209999C000019999999N999999999+00411+99999102261ADDMD1210061+9999SA1+0581REMSYN054ACYN4 46/// ///// 10041 40226 52006 91500 222// 00058=
0068997270999992021011216004+39350-074420FM-13+001099999V0209999C000019999999N999999999+00471+99999102221ADDSA1+0571REMSYN048ACYN4 46/// ///// 10047 40222 91548 222// 00057=
0088997270999992021011217004+39350-074420FM-13+001099999V0209999C000019999999N999999999+00501+99999102091ADDMD1810171+9999SA1+0591REMSYN054ACYN4 46/// ///// 10050 40209 58017 91700 222// 00059=
0068997270999992021011218004+39350-074420FM-13+001099999V0209999C000019999999N999999999+00651+99999102031ADDSA1+0571REMSYN048ACYN4 46/// ///// 10065 40203 91736 222// 00057=
0088997270999992021011219004+39350-074420FM-13+001099999V0209999C000019999999N999999999+00631+99999101951ADDMD1610241+9999SA1+0581REMSYN054ACYN4 46/// ///// 10063 40195 56024 91900 222// 00058=
0088997270999992021011220004+39350-074420FM-13+001099999V0209999C000019999999N999999999+00791+99999101901ADDMD1610191+9999SA1+0591REMSYN054ACYN4 46/// ///// 10079 40190 56019 92000 222// 00059=
0088997270999992021011221004+39350-074420FM-13+001099999V0209999C000019999999N999999999+00741+99999101871ADDMD1610151+9999SA1+0591REMSYN054ACYN4 46/// ///// 10074 40187 56015 92100 222// 00059=
0088997270999992021011222004+39350-074420FM-13+001099999V0209999C000019999999N999999999+00521+99999101901ADDMD1510051+9999SA1+0601REMSYN054ACYN4 46/// ///// 10052 40190 55005 92200 222// 00060=
0088997270999992021011223004+39350-074420FM-13+001099999V0209999C000019999999N999999999+00521+99999101921ADDMD1510001+9999SA1+0621REMSYN054ACYN4 46/// ///// 10052 40192 55000 92300 222// 00062=
0088997270999992021011300004+39350-074420FM-13+001099999V0209999C000019999999N999999999+00451+99999101981ADDMD1310111+9999SA1+0651REMSYN054ACYN4 46/// ///// 10045 40198 53011 90000 222// 00065=
0088997270999992021011301004+39350-074420FM-13+001099999V0209999C000019999999N999999999+00331+99999102021ADDMD1310121+9999SA1+0651REMSYN054ACYN4 46/// ///// 10033 40202 53012 90100 222// 00065=
0088997270999992021011302004+39350-074420FM-13+001099999V0209999C000019999999N999999999+00311+99999102021ADDMD1110101+9999SA1+0621REMSYN054ACYN4 46/// ///// 10031 40202 51010 90200 222// 00062=
0088997270999992021011303004+39350-074420FM-13+001099999V0209999C000019999999N999999999+00241+99999102051ADDMD1110071+9999SA1+0631REMSYN054ACYN4 46/// ///// 10024 40205 51007 90300 222// 00063=
0088997270999992021011304004+39350-074420FM-13+001099999V0209999C000019999999N999999999+00221+99999102041ADDMD1410001+9999SA1+0611REMSYN054ACYN4 46/// ///// 10022 40204 54000 90400 222// 00061=
0088997270999992021011305004+39350-074420FM-13+001099999V0209999C000019999999N999999999+00141+99999101991ADDMD1810031+9999SA1+0641REMSYN054ACYN4 46/// ///// 10014 40199 58003 90500 222// 00064=
0088997270999992021011306004+39350-074420FM-13+001099999V0209999C000019999999N999999999+00181+99999101971ADDMD1710081+9999SA1+0641REMSYN054ACYN4 46/// ///// 10018 40197 57008 90600 222// 00064=
0088997270999992021011307004+39350-074420FM-13+001099999V0209999C000019999999N999999999+00081+99999102001ADDMD1510041+9999SA1+0631REMSYN054ACYN4 46/// ///// 10008 40200 55004 90700 222// 00063=
0088997270999992021011308004+39350-074420FM-13+001099999V0209999C000019999999N999999999+00111+99999101981ADDMD1410001+9999SA1+0611REMSYN054ACYN4 46/// ///// 10011 40198 54000 90800 222// 00061=
0088997270999992021011309004+39350-074420FM-13+001099999V0209999C000019999999N999999999+00071+99999101951ADDMD1990001+9999SA1+0621REMSYN054ACYN4 46/// ///// 10007 40195 50000 90900 222// 00062=
0088997270999992021011310004+39350-074420FM-13+001099999V0209999C000019999999N999999999+00101+99999101951ADDMD1710051+9999SA1+0581REMSYN054ACYN4 46/// ///// 10010 40195 57005 91000 222// 00058=
0088997270999992021011311004+39350-074420FM-13+001099999V0209999C000019999999N999999999+00131+99999102001ADDMD1510001+9999SA1+0581REMSYN054ACYN4 46/// ///// 10013 40200 55000 91100 222// 00058=
0088997270999992021011312004+39350-074420FM-13+001099999V0209999C000019999999N999999999+00131+99999102001ADDMD1210051+9999SA1+0571REMSYN054ACYN4 46/// ///// 10013 40200 52005 91200 222// 00057=
0088997270999992021011313004+39350-074420FM-13+001099999V0209999C000019999999N999999999+00281+99999102001ADDMD1110051+9999SA1+0571REMSYN054ACYN4 46/// ///// 10028 40200 51005 91300 222// 00057=
0068997270999992021011314004+39350-074420FM-13+001099999V0209999C000019999999N999999999+00581+99999102031ADDSA1+0581REMSYN048ACYN4 46/// ///// 10058 40203 91342 222// 00058=
0088997270999992021011315004+39350-074420FM-13+001099999V0209999C000019999999N999999999+00511+99999102021ADDMD1410001+9999SA1+0601REMSYN054ACYN4 46/// ///// 10051 40202 54000 91500 222// 00060=
0088997270999992021011316004+39350-074420FM-13+001099999V0209999C000019999999N999999999+00611+99999101921ADDMD1810081+9999SA1+0621REMSYN054ACYN4 46/// ///// 10061 40192 58008 91600 222// 00062=
0068997270999992021011317004+39350-074420FM-13+001099999V0209999C000019999999N999999999+00591+99999101781ADDSA1+0611REMSYN048ACYN4 46/// ///// 10059 40178 91718 222// 00061=
0088997270999992021011318004+39350-074420FM-13+001099999V0209999C000019999999N999999999+00781+99999101701ADDMD1810321+9999SA1+0611REMSYN054ACYN4 46/// ///// 10078 40170 58032 91800 222// 00061=
0088997270999992021011319004+39350-074420FM-13+001099999V0209999C000019999999N999999999+00651+99999101631ADDMD1610291+9999SA1+0611REMSYN054ACYN4 46/// ///// 10065 40163 56029 91900 222// 00061=
0088997270999992021011320004+39350-074420FM-13+001099999V0209999C000019999999N999999999+99999+99999101591ADDMD1610221+9999SA1+0621REMSYN054ACYN4 46/// ///// 1//// 40159 56022 92000 222// 00062=
0088997270999992021011321004+39350-074420FM-13+001099999V0209999C000019999999N999999999+00591+99999101571ADDMD1610131+9999SA1+0591REMSYN054ACYN4 46/// ///// 10059 40157 56013 92100 222// 00059=
0088997270999992021011322004+39350-074420FM-13+001099999V0209999C000019999999N999999999+00551+99999101551ADDMD1610081+9999SA1+0591REMSYN054ACYN4 46/// ///// 10055 40155 56008 92200 222// 00059=
0088997270999992021011323004+39350-074420FM-13+001099999V0209999C000019999999N999999999+00541+99999101551ADDMD1710041+9999SA1+0581REMSYN054ACYN4 46/// ///// 10054 40155 57004 92300 222// 00058=
0088997270999992021011400004+39350-074420FM-13+001099999V0209999C000019999999N999999999+00541+99999101541ADDMD1710031+9999SA1+0581REMSYN054ACYN4 46/// ///// 10054 40154 57003 90000 222// 00058=
0088997270999992021011401004+39350-074420FM-13+001099999V0209999C000019999999N999999999+00571+99999101491ADDMD1810061+9999SA1+0581REMSYN054ACYN4 46/// ///// 10057 40149 58006 90100 222// 00058=
0088997270999992021011402004+39350-074420FM-13+001099999V0209999C000019999999N999999999+00581+99999101471ADDMD1710081+9999SA1+0581REMSYN054ACYN4 46/// ///// 10058 40147 57008 90200 222// 00058=
0088997270999992021011403004+39350-074420FM-13+001099999V0209999C000019999999N999999999+00611+99999101431ADDMD1610111+9999SA1+0581REMSYN054ACYN4 46/// ///// 10061 40143 56011 90300 222// 00058=
0088997270999992021011404004+39350-074420FM-13+001099999V0209999C000019999999N999999999+00571+99999101401ADDMD1810091+9999SA1+0581REMSYN054ACYN4 46/// ///// 10057 40140 58009 90400 222// 00058=
0088997270999992021011405004+39350-074420FM-13+001099999V0209999C000019999999N999999999+00561+99999101341ADDMD1810131+9999SA1+0571REMSYN054ACYN4 46/// ///// 10056 40134 58013 90500 222// 00057=
0088997270999992021011406004+39350-074420FM-13+001099999V0209999C000019999999N999999999+00581+99999101241ADDMD1810191+9999SA1+0591REMSYN054ACYN4 46/// ///// 10058 40124 58019 90600 222// 00059=
0088997270999992021011407004+39350-074420FM-13+001099999V0209999C000019999999N999999999+00551+99999101231ADDMD1610171+9999SA1+0591REMSYN054ACYN4 46/// ///// 10055 40123 56017 90700 222// 00059=
0088997270999992021011408004+39350-074420FM-13+001099999V0209999C000019999999N999999999+99999+99999101221ADDMD1610121+9999SA1+0591REMSYN054ACYN4 46/// ///// 1//// 40122 56012 90800 222// 00059=
0088997270999992021011409004+39350-074420FM-13+001099999V0209999C000019999999N999999999+00551+99999101151ADDMD1810091+9999SA1+0591REMSYN054ACYN4 46/// ///// 10055 40115 58009 90900 222// 00059=
0088997270999992021011410004+39350-074420FM-13+001099999V0209999C000019999999N999999999+00551+99999101171ADDMD1710061+9999SA1+0591REMSYN054ACYN4 46/// ///// 10055 40117 57006 91000 222// 00059=
0068997270999992021011411004+39350-074420FM-13+001099999V0209999C000019999999N999999999+00531+99999101141ADDSA1+0581REMSYN048ACYN4 46/// ///// 10053 40114 91036 222// 00058=
0088997270999992021011412004+39350-074420FM-13+001099999V0209999C000019999999N999999999+00481+99999101111ADDMD1810041+9999SA1+0581REMSYN054ACYN4 46/// ///// 10048 40111 58004 91200 222// 00058=
0088997270999992021011413004+39350-074420FM-13+001099999V0209999C000019999999N999999999+00491+99999101091ADDMD1610081+9999SA1+0571REMSYN054ACYN4 46/// ///// 10049 40109 56008 91300 222// 00057=
0068997270999992021011414004+39350-074420FM-13+001099999V0209999C000019999999N999999999+00461+99999101101ADDSA1+0561REMSYN048ACYN4 46/// ///// 10046 40110 91348 222// 00056=
0088997270999992021011415004+39350-074420FM-13+001099999V0209999C000019999999N999999999+00601+99999101161ADDMD1310051+9999SA1+0561REMSYN054ACYN4 46/// ///// 10060 40116 53005 91500 222// 00056=
0088997270999992021011416004+39350-074420FM-13+001099999V0209999C000019999999N999999999+00521+99999101131ADDMD1990041+9999SA1+0561REMSYN054ACYN4 46/// ///// 10052 40113 50004 91600 222// 00056=
0088997270999992021011417004+39350-074420FM-13+001099999V0209999C000019999999N999999999+00571+99999101031ADDMD1810091+9999SA1+0571REMSYN054ACYN4 46/// ///// 10057 40103 58009 91700 222// 00057=
0068997270999992021011418004+39350-074420FM-13+001099999V0209999C000019999999N999999999+00601+99999100991ADDSA1+0581REMSYN048ACYN4 46/// ///// 10060 40099 91736 222// 00058=
0068997270999992021011419004+39350-074420FM-13+001099999V0209999C000019999999N999999999+00551+99999100921ADDSA1+0601REMSYN048ACYN4 46/// ///// 10055 40092 91848 222// 00060=
0088997270999992021011420004+39350-074420FM-13+001099999V0209999C000019999999N999999999+00581+99999100951ADDMD1710081+9999SA1+0591REMSYN054ACYN4 46/// ///// 10058 40095 57008 92000 222// 00059=
0068997270999992021011421004+39350-074420FM-13+001099999V0209999C000019999999N999999999+00591+99999100931ADDSA1+0591REMSYN048ACYN4 46/// ///// 10059 40093 92048 222// 00059=
0068997270999992021011422004+39350-074420FM-13+001099999V0209999C000019999999N999999999+00561+99999101021ADDSA1+0601REMSYN048ACYN4 46/// ///// 10056 40102 92212 222// 00060=
0068997270999992021011423004+39350-074420FM-13+001099999V0209999C000019999999N999999999+00561+99999101011ADDSA1+0601REMSYN048ACYN4 46/// ///// 10056 40101 92236 222// 00060=
0068997270999992021011500004+39350-074420FM-13+001099999V0209999C000019999999N999999999+00521+99999101091ADDSA1+0621REMSYN048ACYN4 46/// ///// 10052 40109 92348 222// 00062=
0088997270999992021011501004+39350-074420FM-13+001099999V0209999C000019999999N999999999+00561+99999101091ADDMD1110111+9999SA1+0581REMSYN054ACYN4 46/// ///// 10056 40109 51011 90100 222// 00058=
0088997270999992021011502004+39350-074420FM-13+001099999V0209999C000019999999N999999999+00541+99999101141ADDMD1210121+9999SA1+0591REMSYN054ACYN4 46/// ///// 10054 40114 52012 90200 222// 00059=
0088997270999992021011503004+39350-074420FM-13+001099999V0209999C000019999999N999999999+00531+99999101201ADDMD1310131+9999SA1+0601REMSYN054ACYN4 46/// ///// 10053 40120 53013 90300 222// 00060=
0088997270999992021011504004+39350-074420FM-13+001099999V0209999C000019999999N999999999+00601+99999101241ADDMD1110151+9999SA1+0601REMSYN054ACYN4 46/// ///// 10060 40124 51015 90400 222// 00060=
0068997270999992021011505004+39350-074420FM-13+001099999V0209999C000019999999N999999999+00681+99999101221ADDSA1+0601REMSYN048ACYN4 46/// ///// 10068 40122 90442 222// 00060=
0088997270999992021011506004+39350-074420FM-13+001099999V0209999C000019999999N999999999+00611+99999101271ADDMD1210071+9999SA1+0601REMSYN054ACYN4 46/// ///// 10061 40127 52007 90600 222// 00060=
0068997270999992021011507004+39350-074420FM-13+001099999V0209999C000019999999N999999999+00531+99999101331ADDSA1+0601REMSYN048ACYN4 46/// ///// 10053 40133 90636 222// 00060=
0068997270999992021011508004+39350-074420FM-13+001099999V0209999C000019999999N999999999+00571+99999101311ADDSA1+0591REMSYN048ACYN4 46/// ///// 10057 40131 90748 222// 00059=
0088997270999992021011509004+39350-074420FM-13+001099999V0209999C000019999999N999999999+99999+99999101381ADDMD1210111+9999SA1+0591REMSYN054ACYN4 46/// ///// 1//// 40138 52011 90900 222// 00059=
0068997270999992021011510004+39350-074420FM-13+001099999V0209999C000019999999N999999999+00601+99999101431ADDSA1+0601REMSYN048ACYN4 46/// ///// 10060 40143 90942 222// 00060=
0088997270999992021011511004+39350-074420FM-13+001099999V0209999C000019999999N999999999+00631+99999101371ADDMD1990051+9999SA1+0591REMSYN054ACYN4 46/// ///// 10063 40137 50005 91100 222// 00059=
0088997270999992021011512004+39350-074420FM-13+001099999V0209999C000019999999N999999999+00691+99999101381ADDMD1990001+9999SA1+0611REMSYN054ACYN4 46/// ///// 10069 40138 50000 91200 222// 00061=
0088997270999992021011513004+39350-074420FM-13+001099999V0209999C000019999999N999999999+00701+99999101421ADDMD1510001+9999SA1+0621REMSYN054ACYN4 46/// ///// 10070 40142 55000 91300 222// 00062=
0088997270999992021011514004+39350-074420FM-13+001099999V0209999C000019999999N999999999+00741+99999101491ADDMD1310121+9999SA1+0621REMSYN054ACYN4 46/// ///// 10074 40149 53012 91400 222// 00062=
0088997270999992021011515004+39350-074420FM-13+001099999V0209999C000019999999N999999999+00761+99999101481ADDMD1110101+9999SA1+0621REMSYN054ACYN4 46/// ///// 10076 40148 51010 91500 222// 00062=
0088997270999992021011516004+39350-074420FM-13+001099999V0209999C000019999999N999999999+00761+99999101441ADDMD1990001+9999SA1+0621REMSYN054ACYN4 46/// ///// 10076 40144 50000 91600 222// 00062=
0088997270999992021011517004+39350-074420FM-13+001099999V0209999C000019999999N999999999+00771+99999101331ADDMD1810161+9999SA1+0641REMSYN054ACYN4 46/// ///// 10077 40133 58016 91700 222// 00064=
0088997270999992021011518004+39350-074420FM-13+001099999V0209999C000019999999N999999999+00801+99999101201ADDMD1810281+9999SA1+0651REMSYN054ACYN4 46/// ///// 10080 40120 58028 91800 222// 00065=
0088997270999992021011519004+39350-074420FM-13+001099999V0209999C000019999999N999999999+00841+99999101131ADDMD1610311+9999SA1+0661REMSYN054ACYN4 46/// ///// 10084 40113 56031 91900 222// 00066=
0068997270999992021011520004+39350-074420FM-13+001099999V0209999C000019999999N999999999+00821+99999101101ADDSA1+0671REMSYN048ACYN4 46/// ///// 10082 40110 92012 222// 00067=
0088997270999992021011521004+39350-074420FM-13+001099999V0209999C000019999999N999999999+00841+99999101131ADDMD1710071+9999SA1+0671REMSYN054ACYN4 46/// ///// 10084 40113 57007 92100 222// 00067=
0088997270999992021011522004+39350-074420FM-13+001099999V0209999C000019999999N999999999+00831+99999101101ADDMD1710031+9999SA1+0671REMSYN054ACYN4 46/// ///// 10083 40110 57003 92200 222// 00067=
0068997270999992021011523004+39350-074420FM-13+001099999V0209999C000019999999N999999999+00861+99999101041ADDSA1+0671REMSYN048ACYN4 46/// ///// 10086 40104 92236 222// 00067=
0088997270999992021011600004+39350-074420FM-13+001099999V0209999C000019999999N999999999+00911+99999100901ADDMD1810231+9999SA1+0681REMSYN054ACYN4 46/// ///// 10091 40090 58023 90000 222// 00068=
0088997270999992021011601004+39350-074420FM-13+001099999V0209999C000019999999N999999999+00941+99999100841ADDMD1610261+9999SA1+0671REMSYN054ACYN4 46/// ///// 10094 40084 56026 90100 222// 00067=
0088997270999992021011602004+39350-074420FM-13+001099999V0209999C000019999999N999999999+00881+99999100791ADDMD1610241+9999SA1+0671REMSYN054ACYN4 46/// ///// 10088 40079 56024 90200 222// 00067=
0088997270999992021011603004+39350-074420FM-13+001099999V0209999C000019999999N999999999+00851+99999100661ADDMD1810241+9999SA1+0661REMSYN054ACYN4 46/// ///// 10085 40066 58024 90300 222// 00066=
0088997270999992021011604004+39350-074420FM-13+001099999V0209999C000019999999N999999999+00891+99999100641ADDMD1610201+9999SA1+0661REMSYN054ACYN4 46/// ///// 10089 40064 56020 90400 222// 00066=
0088997270999992021011605004+39350-074420FM-13+001099999V0209999C000019999999N999999999+00931+99999100661ADDMD1610131+9999SA1+0651REMSYN054ACYN4 46/// ///// 10093 40066 56013 90500 222// 00065=
0088997270999992021011606004+39350-074420FM-13+001099999V0209999C000019999999N999999999+00841+99999100471ADDMD1810191+9999SA1+0651REMSYN054ACYN4 46/// ///// 10084 40047 58019 90600 222// 00065=
0088997270999992021011607004+39350-074420FM-13+001099999V0209999C000019999999N999999999+00871+99999100341ADDMD1810301+9999SA1+0661REMSYN054ACYN4 46/// ///// 10087 40034 58030 90700 222// 00066=
0088997270999992021011608004+39350-074420FM-13+001099999V0209999C000019999999N999999999+00831+99999100351ADDMD1610311+9999SA1+0661REMSYN054ACYN4 46/// ///// 10083 40035 56031 90800 222// 00066=
0088997270999992021011609004+39350-074420FM-13+001099999V0209999C000019999999N999999999+00781+99999100181ADDMD1810291+9999SA1+0661REMSYN054ACYN4 46/// ///// 10078 40018 58029 90900 222// 00066=
0068997270999992021011610004+39350-074420FM-13+001099999V0209999C000019999999N999999999+00771+99999100131ADDSA1+0661REMSYN048ACYN4 46/// ///// 10077 40013 90936 222// 00066=
0068997270999992021011611004+39350-074420FM-13+001099999V0209999C000019999999N999999999+00761+99999099971ADDSA1+0651REMSYN048ACYN4 46/// ///// 10076 49997 91048 222// 00065=
0068997270999992021011612004+39350-074420FM-13+001099999V0209999C000019999999N999999999+00721+99999099921ADDSA1+0661REMSYN048ACYN4 46/// ///// 10072 49992 91148 222// 00066=
0068997270999992021011613004+39350-074420FM-13+001099999V0209999C000019999999N999999999+00721+99999099921ADDSA1+0661REMSYN048ACYN4 46/// ///// 10072 49992 91242 222// 00066=
0068997270999992021011614004+39350-074420FM-13+001099999V0209999C000019999999N999999999+00711+99999099941ADDSA1+0661REMSYN048ACYN4 46/// ///// 10071 49994 91342 222// 00066=
0068997270999992021011615004+39350-074420FM-13+001099999V0209999C000019999999N999999999+00681+99999099951ADDSA1+0671REMSYN048ACYN4 46/// ///// 10068 49995 91442 222// 00067=
0088997270999992021011616004+39350-074420FM-13+001099999V0209999C000019999999N999999999+00681+99999099881ADDMD1710051+9999SA1+0671REMSYN054ACYN4 46/// ///// 10068 49988 57005 91600 222// 00067=
0068997270999992021011617004+39350-074420FM-13+001099999V0209999C000019999999N999999999+00721+99999099791ADDSA1+0681REMSYN048ACYN4 46/// ///// 10072 49979 91648 222// 00068=
0088997270999992021011618004+39350-074420FM-13+001099999V0209999C000019999999N999999999+00711+99999099731ADDMD1610231+9999SA1+0681REMSYN054ACYN4 46/// ///// 10071 49973 56023 91800 222// 00068=
0088997270999992021011619004+39350-074420FM-13+001099999V0209999C000019999999N999999999+00751+99999099681ADDMD1610201+9999SA1+0681REMSYN054ACYN4 46/// ///// 10075 49968 56020 91900 222// 00068=
0088997270999992021011620004+39350-074420FM-13+001099999V0209999C000019999999N999999999+00781+99999099661ADDMD1710091+9999SA1+0691REMSYN054ACYN4 46/// ///// 10078 49966 57009 92000 222// 00069=
0088997270999992021011621004+39350-074420FM-13+001099999V0209999C000019999999N999999999+00731+99999099731ADDMD1510001+9999SA1+0691REMSYN054ACYN4 46/// ///// 10073 49973 55000 92100 222// 00069=
0068997270999992021011622004+39350-074420FM-13+001099999V0209999C000019999999N999999999+00681+99999099801ADDSA1+0681REMSYN048ACYN4 46/// ///// 10068 49980 92136 222// 00068=
0088997270999992021011623004+39350-074420FM-13+001099999V0209999C000019999999N999999999+99999+99999099901ADDMD1110241+9999SA1+0681REMSYN054ACYN4 46/// ///// 1//// 49990 51024 92300 222// 00068=
0088997270999992021011700004+39350-074420FM-13+001099999V0209999C000019999999N999999999+00561+99999099931ADDMD1110201+9999SA1+0681REMSYN054ACYN4 46/// ///// 10056 49993 51020 90000 222// 00068=
0088997270999992021011701004+39350-074420FM-13+001099999V0209999C000019999999N999999999+99999+99999099951ADDMD1110111+9999SA1+0671REMSYN054ACYN4 46/// ///// 1//// 49995 51011 90100 222// 00067=
0088997270999992021011702004+39350-074420FM-13+001099999V0209999C000019999999N999999999+00491+99999099981ADDMD1210081+9999SA1+0671REMSYN054ACYN4 46/// ///// 10049 49998 52008 90200 222// 00067=
0068997270999992021011703004+39350-074420FM-13+001099999V0209999C000019999999N999999999+00441+99999100071ADDSA1+0671REMSYN048ACYN4 46/// ///// 10044 40007 90330 222// 00067=
0088997270999992021011704004+39350-074420FM-13+001099999V0209999C000019999999N999999999+99999+99999100121ADDMD1310171+9999SA1+0671REMSYN054ACYN4 46/// ///// 1//// 40012 53017 90400 222// 00067=
0088997270999992021011705004+39350-074420FM-13+001099999V0209999C000019999999N999999999+00331+99999100191ADDMD1310211+9999SA1+0661REMSYN054ACYN4 46/// ///// 10033 40019 53021 90500 222// 00066=
0088997270999992021011706004+39350-074420FM-13+001099999V0209999C000019999999N999999999+00311+99999100281ADDMD1210251+9999SA1+0651REMSYN054ACYN4 46/// ///// 10031 40028 52025 90600 222// 00065=
0088997270999992021011707004+39350-074420FM-13+001099999V0209999C000019999999N999999999+00291+99999100371ADDMD1310251+9999SA1+0651REMSYN054ACYN4 46/// ///// 10029 40037 53025 90700 222// 00065=
0088997270999992021011708004+39350-074420FM-13+001099999V0209999C000019999999N999999999+00281+99999100461ADDMD1210271+9999SA1+0651REMSYN054ACYN4 46/// ///// 10028 40046 52027 90800 222// 00065=
0068997270999992021011709004+39350-074420FM-13+001099999V0209999C000019999999N999999999+00251+99999100481ADDSA1+0631REMSYN048ACYN4 46/// ///// 10025 40048 90848 222// 00063=
0088997270999992021011710004+39350-074420FM-13+001099999V0209999C000019999999N999999999+00221+99999100531ADDMD1110161+9999SA1+0621REMSYN054ACYN4 46/// ///// 10022 40053 51016 91000 222// 00062=
0088997270999992021011711004+39350-074420FM-13+001099999V0209999C000019999999N999999999+00211+99999100601ADDMD1310141+9999SA1+0621REMSYN054ACYN4 46/// ///// 10021 40060 53014 91100 222// 00062=
0088997270999992021011712004+39350-074420FM-13+001099999V0209999C000019999999N999999999+00271+99999100671ADDMD1310171+9999SA1+0601REMSYN054ACYN4 46/// ///// 10027 40067 53017 91200 222// 00060=
0088997270999992021011713004+39350-074420FM-13+001099999V0209999C000019999999N999999999+00321+99999100721ADDMD1110191+9999SA1+0581REMSYN054ACYN4 46/// ///// 10032 40072 51019 91300 222// 00058=
0088997270999992021011714004+39350-074420FM-13+001099999V0209999C000019999999N999999999+00431+99999100781ADDMD1110181+9999SA1+0591REMSYN054ACYN4 46/// ///// 10043 40078 51018 91400 222// 00059=
0088997270999992021011715004+39350-074420FM-13+001099999V0209999C000019999999N999999999+00501+99999100841ADDMD1310171+9999SA1+0601REMSYN054ACYN4 46/// ///// 10050 40084 53017 91500 222// 00060=
0088997270999992021011716004+39350-074420FM-13+001099999V0209999C000019999999N999999999+00591+99999100781ADDMD1990061+9999SA1+0591REMSYN054ACYN4 46/// ///// 10059 40078 50006 91600 222// 00059=
0088997270999992021011717004+39350-074420FM-13+001099999V0209999C000019999999N999999999+00681+99999100681ADDMD1810101+9999SA1+0601REMSYN054ACYN4 46/// ///// 10068 40068 58010 91700 222// 00060=
0088997270999992021011718004+39350-074420FM-13+001099999V0209999C000019999999N999999999+99999+99999100621ADDMD1710221+9999SA1+0621REMSYN054ACYN4 46/// ///// 1//// 40062 57022 91800 222// 00062=
0088997270999992021011719004+39350-074420FM-13+001099999V0209999C000019999999N999999999+00751+99999100661ADDMD1510121+9999SA1+0641REMSYN054ACYN4 46/// ///// 10075 40066 55012 91900 222// 00064=
0088997270999992021011720004+39350-074420FM-13+001099999V0209999C000019999999N999999999+00731+99999100671ADDMD1510001+9999SA1+0651REMSYN054ACYN4 46/// ///// 10073 40067 55000 92000 222// 00065=
0088997270999992021011721004+39350-074420FM-13+001099999V0209999C000019999999N999999999+00711+99999100721ADDMD1310101+9999SA1+0651REMSYN054ACYN4 46/// ///// 10071 40072 53010 92100 222// 00065=
0068997270999992021011722004+39350-074420FM-13+001099999V0209999C000019999999N999999999+00711+99999100761ADDSA1+0661REMSYN048ACYN4 46/// ///// 10071 40076 92142 222// 00066=
0088997270999992021011723004+39350-074420FM-13+001099999V0209999C000019999999N999999999+00661+99999100851ADDMD1310181+9999SA1+0671REMSYN054ACYN4 46/// ///// 10066 40085 53018 92300 222// 00067=
0088997270999992021011800004+39350-074420FM-13+001099999V0209999C000019999999N999999999+00621+99999100911ADDMD1210191+9999SA1+0671REMSYN054ACYN4 46/// ///// 10062 40091 52019 90000 222// 00067=
0088997270999992021011801004+39350-074420FM-13+001099999V0209999C000019999999N999999999+99999+99999100921ADDMD1110141+9999SA1+0671REMSYN054ACYN4 46/// ///// 1//// 40092 51014 90100 222// 00067=
0088997270999992021011802004+39350-074420FM-13+001099999V0209999C000019999999N999999999+00631+99999100891ADDMD1990041+9999SA1+0671REMSYN054ACYN4 46/// ///// 10063 40089 50004 90200 222// 00067=
0088997270999992021011803004+39350-074420FM-13+001099999V0209999C000019999999N999999999+00651+99999100881ADDMD1710031+9999SA1+0671REMSYN054ACYN4 46/// ///// 10065 40088 57003 90300 222// 00067=
0088997270999992021011804004+39350-074420FM-13+001099999V0209999C000019999999N999999999+00641+99999100861ADDMD1610061+9999SA1+0671REMSYN054ACYN4 46/// ///// 10064 40086 56006 90400 222// 00067=
0088997270999992021011805004+39350-074420FM-13+001099999V0209999C000019999999N999999999+00621+99999100811ADDMD1810081+9999SA1+0661REMSYN054ACYN4 46/// ///// 10062 40081 58008 90500 222// 00066=
0068997270999992021011806004+39350-074420FM-13+001099999V0209999C000019999999N999999999+00611+99999100781ADDSA1+0651REMSYN048ACYN4 46/// ///// 10061 40078 90536 222// 00065=
0088997270999992021011807004+39350-074420FM-13+001099999V0209999C000019999999N999999999+00591+99999100811ADDMD1510051+9999SA1+0631REMSYN054ACYN4 46/// ///// 10059 40081 55005 90700 222// 00063=
0088997270999992021011808004+39350-074420FM-13+001099999V0209999C000019999999N999999999+00551+99999100781ADDMD1710031+9999SA1+0631REMSYN054ACYN4 46/// ///// 10055 40078 57003 90800 222// 00063=
0088997270999992021011809004+39350-074420FM-13+001099999V0209999C000019999999N999999999+00511+99999100791ADDMD1990001+9999SA1+0621REMSYN054ACYN4 46/// ///// 10051 40079 50000 90900 222// 00062=
0088997270999992021011810004+39350-074420FM-13+001099999V0209999C000019999999N999999999+00441+99999100801ADDMD1510001+9999SA1+0611REMSYN054ACYN4 46/// ///// 10044 40080 55000 91000 222// 00061=
0088997270999992021011811004+39350-074420FM-13+001099999V0209999C000019999999N999999999+00411+99999100821ADDMD1210041+9999SA1+0601REMSYN054ACYN4 46/// ///// 10041 40082 52004 91100 222// 00060=
0068997270999992021011812004+39350-074420FM-13+001099999V0209999C000019999999N999999999+00401+99999100861ADDSA1+0601REMSYN048ACYN4 46/// ///// 10040 40086 91142 222// 00060=
0088997270999992021011813004+39350-074420FM-13+001099999V0209999C000019999999N999999999+00501+99999100931ADDMD1210131+9999SA1+0601REMSYN054ACYN4 46/// ///// 10050 40093 52013 91300 222// 00060=
0088997270999992021011814004+39350-074420FM-13+001099999V0209999C000019999999N999999999+00571+99999100971ADDMD1210151+9999SA1+0611REMSYN054ACYN4 46/// ///// 10057 40097 52015 91400 222// 00061=
0068997270999992021011815004+39350-074420FM-13+001099999V0209999C000019999999N999999999+00661+99999101001ADDSA1+0611REMSYN048ACYN4 46/// ///// 10066 40100 91436 222// 00061=
0088997270999992021011816004+39350-074420FM-13+001099999V0209999C000019999999N999999999+00731+99999100941ADDMD1990001+9999SA1+0621REMSYN054ACYN4 46/// ///// 10073 40094 50000 91600 222// 00062=
0088997270999992021011817004+39350-074420FM-13+001099999V0209999C000019999999N999999999+00761+99999100841ADDMD1810131+9999SA1+0611REMSYN054ACYN4 46/// ///// 10076 40084 58013 91700 222// 00061=
0068997270999992021011818004+39350-074420FM-13+001099999V0209999C000019999999N999999999+00761+99999100801ADDSA1+0621REMSYN048ACYN4 46/// ///// 10076 40080 91736 222// 00062=
0088997270999992021011819004+39350-074420FM-13+001099999V0209999C000019999999N999999999+00741+99999100801ADDMD1610141+9999SA1+0631REMSYN054ACYN4 46/// ///// 10074 40080 56014 91900 222// 00063=
0088997270999992021011820004+39350-074420FM-13+001099999V0209999C000019999999N999999999+00751+99999100861ADDMD1510001+9999SA1+0631REMSYN054ACYN4 46/// ///// 10075 40086 55000 92000 222// 00063=
0088997270999992021011821004+39350-074420FM-13+001099999V0209999C000019999999N999999999+00631+99999101011ADDMD1310231+9999SA1+0641REMSYN054ACYN4 46/// ///// 10063 40101 53023 92100 222// 00064=
0088997270999992021011822004+39350-074420FM-13+001099999V0209999C000019999999N999999999+00581+99999101151ADDMD1310351+9999SA1+0641REMSYN054ACYN4 46/// ///// 10058 40115 53035 92200 222// 00064=
0088997270999992021011823004+39350-074420FM-13+001099999V0209999C000019999999N999999999+00511+99999101271ADDMD1110411+9999SA1+0641REMSYN054ACYN4 46/// ///// 10051 40127 51041 92300 222// 00064=
0088997270999992021011900004+39350-074420FM-13+001099999V0209999C000019999999N999999999+00471+99999101361ADDMD1110351+9999SA1+0631REMSYN054ACYN4 46/// ///// 10047 40136 51035 90000 222// 00063=
0088997270999992021011901004+39350-074420FM-13+001099999V0209999C000019999999N999999999+00411+99999101431ADDMD1110281+9999SA1+0631REMSYN054ACYN4 46/// ///// 10041 40143 51028 90100 222// 00063=
0088997270999992021011902004+39350-074420FM-13+001099999V0209999C000019999999N999999999+00391+99999101511ADDMD1110241+9999SA1+0621REMSYN054ACYN4 46/// ///// 10039 40151 51024 90200 222// 00062=
0088997270999992021011903004+39350-074420FM-13+001099999V0209999C000019999999N999999999+00351+99999101641ADDMD1310281+9999SA1+0621REMSYN054ACYN4 46/// ///// 10035 40164 53028 90300 222// 00062=
0088997270999992021011904004+39350-074420FM-13+001099999V0209999C000019999999N999999999+00271+99999101701ADDMD1110271+9999SA1+0621REMSYN054ACYN4 46/// ///// 10027 40170 51027 90400 222// 00062=
0088997270999992021011905004+39350-074420FM-13+001099999V0209999C000019999999N999999999+00201+99999101741ADDMD1110231+9999SA1+0611REMSYN054ACYN4 46/// ///// 10020 40174 51023 90500 222// 00061=
0088997270999992021011906004+39350-074420FM-13+001099999V0209999C000019999999N999999999+00181+99999101771ADDMD1110131+9999SA1+0601REMSYN054ACYN4 46/// ///// 10018 40177 51013 90600 222// 00060=
0088997270999992021011907004+39350-074420FM-13+001099999V0209999C000019999999N999999999+00131+99999101801ADDMD1110101+9999SA1+0611REMSYN054ACYN4 46/// ///// 10013 40180 51010 90700 222// 00061=
0088997270999992021011908004+39350-074420FM-13+001099999V0209999C000019999999N999999999+00121+99999101851ADDMD1310111+9999SA1+0611REMSYN054ACYN4 46/// ///// 10012 40185 53011 90800 222// 00061=
0068997270999992021011909004+39350-074420FM-13+001099999V0209999C000019999999N999999999+00091+99999101871ADDSA1+0621REMSYN048ACYN4 46/// ///// 10009 40187 90848 222// 00062=
0088997270999992021011910004+39350-074420FM-13+001099999V0209999C000019999999N999999999+00081+99999101941ADDMD1210141+9999SA1+0621REMSYN054ACYN4 46/// ///// 10008 40194 52014 91000 222// 00062=
0088997270999992021011911004+39350-074420FM-13+001099999V0209999C000019999999N999999999+00101+99999102041ADDMD1210191+9999SA1+0621REMSYN054ACYN4 46/// ///// 10010 40204 52019 91100 222// 00062=
0068997270999992021011912004+39350-074420FM-13+001099999V0209999C000019999999N999999999+00071+99999102091ADDSA1+0601REMSYN048ACYN4 46/// ///// 10007 40209 91142 222// 00060=
0088997270999992021011913004+39350-074420FM-13+001099999V0209999C000019999999N999999999+00161+99999102131ADDMD1210191+9999SA1+0601REMSYN054ACYN4 46/// ///// 10016 40213 52019 91300 222// 00060=
0088997270999992021011914004+39350-074420FM-13+001099999V0209999C000019999999N999999999+00371+99999102161ADDMD1210121+9999SA1+0601REMSYN054ACYN4 46/// ///// 10037 40216 52012 91400 222// 00060=
0068997270999992021011915004+39350-074420FM-13+001099999V0209999C000019999999N999999999+00471+99999102181ADDSA1+0601REMSYN048ACYN4 46/// ///// 10047 40218 91442 222// 00060=
0088997270999992021011916004+39350-074420FM-13+001099999V0209999C000019999999N999999999+00571+99999102141ADDMD1990001+9999SA1+0591REMSYN054ACYN4 46/// ///// 10057 40214 50000 91600 222// 00059=
0088997270999992021011917004+39350-074420FM-13+001099999V0209999C000019999999N999999999+00601+99999102031ADDMD1810131+9999SA1+0601REMSYN054ACYN4 46/// ///// 10060 40203 58013 91700 222// 00060=
0088997270999992021011918004+39350-074420FM-13+001099999V0209999C000019999999N999999999+00661+99999101961ADDMD1810211+9999SA1+0601REMSYN054ACYN4 46/// ///// 10066 40196 58021 91800 222// 00060=
0088997270999992021011919004+39350-074420FM-13+001099999V0209999C000019999999N999999999+00691+99999101921ADDMD1610221+9999SA1+0601REMSYN054ACYN4 46/// ///// 10069 40192 56022 91900 222// 00060=
0088997270999992021011920004+39350-074420FM-13+001099999V0209999C000019999999N999999999+00721+99999101951ADDMD1510081+9999SA1+0601REMSYN054ACYN4 46/// ///// 10072 40195 55008 92000 222// 00060=
0088997270999992021011921004+39350-074420FM-13+001099999V0209999C000019999999N999999999+00761+99999102001ADDMD1310041+9999SA1+0601REMSYN054ACYN4 46/// ///// 10076 40200 53004 92100 222// 00060=
0088997270999992021011922004+39350-074420FM-13+001099999V0209999C000019999999N999999999+00681+99999102061ADDMD1310141+9999SA1+0591REMSYN054ACYN4 46/// ///// 10068 40206 53014 92200 222// 00059=
0068997270999992021011923004+39350-074420FM-13+001099999V0209999C000019999999N999999999+00601+99999102121ADDSA1+0581REMSYN048ACYN4 46/// ///// 10060 40212 92242 222// 00058=
0088997270999992021012000004+39350-074420FM-13+001099999V0209999C000019999999N999999999+00581+99999102151ADDMD1110151+9999SA1+0581REMSYN054ACYN4 46/// ///// 10058 40215 51015 90000 222// 00058=
0068997270999992021012001004+39350-074420FM-13+001099999V0209999C000019999999N999999999+00551+99999102141ADDSA1+0581REMSYN048ACYN4 46/// ///// 10055 40214 90036 222// 00058=
0088997270999992021012002004+39350-074420FM-13+001099999V0209999C000019999999N999999999+00541+99999102101ADDMD1810041+9999SA1+0591REMSYN054ACYN4 46/// ///// 10054 40210 58004 90200 222// 00059=
0088997270999992021012003004+39350-074420FM-13+001099999V0209999C000019999999N999999999+00531+99999102061ADDMD1810091+9999SA1+0601REMSYN054ACYN4 46/// ///// 10053 40206 58009 90300 222// 00060=
0088997270999992021012004004+39350-074420FM-13+001099999V0209999C000019999999N999999999+00511+99999102001ADDMD1810131+9999SA1+0611REMSYN054ACYN4 46/// ///// 10051 40200 58013 90400 222// 00061=
0088997270999992021012005004+39350-074420FM-13+001099999V0209999C000019999999N999999999+00521+99999101861ADDMD1810241+9999SA1+0611REMSYN054ACYN4 46/// ///// 10052 40186 58024 90500 222// 00061=
0088997270999992021012006004+39350-074420FM-13+001099999V0209999C000019999999N999999999+00481+99999101811ADDMD1610251+9999SA1+0601REMSYN054ACYN4 46/// ///// 10048 40181 56025 90600 222// 00060=
0088997270999992021012007004+39350-074420FM-13+001099999V0209999C000019999999N999999999+00501+99999101781ADDMD1610221+9999SA1+0591REMSYN054ACYN4 46/// ///// 10050 40178 56022 90700 222// 00059=
0088997270999992021012008004+39350-074420FM-13+001099999V0209999C000019999999N999999999+00491+99999101611ADDMD1810251+9999SA1+0591REMSYN054ACYN4 46/// ///// 10049 40161 58025 90800 222// 00059=
0068997270999992021012009004+39350-074420FM-13+001099999V0209999C000019999999N999999999+00561+99999101481ADDSA1+0581REMSYN048ACYN4 46/// ///// 10056 40148 90848 222// 00058=
0088997270999992021012010004+39350-074420FM-13+001099999V0209999C000019999999N999999999+00571+99999101291ADDMD1610491+9999SA1+0561REMSYN054ACYN4 46/// ///// 10057 40129 56049 91000 222// 00056=
0088997270999992021012011004+39350-074420FM-13+001099999V0209999C000019999999N999999999+00491+99999101331ADDMD1510281+9999SA1+0591REMSYN054ACYN4 46/// ///// 10049 40133 55028 91100 222// 00059=
0068997270999992021012012004+39350-074420FM-13+001099999V0209999C000019999999N999999999+00451+99999101291ADDSA1+0601REMSYN048ACYN4 46/// ///// 10045 40129 91142 222// 00060=
0088997270999992021012013004+39350-074420FM-13+001099999V0209999C000019999999N999999999+00381+99999101311ADDMD1990001+9999SA1+0611REMSYN054ACYN4 46/// ///// 10038 40131 50000 91300 222// 00061=
0088997270999992021012014004+39350-074420FM-13+001099999V0209999C000019999999N999999999+00481+99999101351ADDMD1510001+9999SA1+0611REMSYN054ACYN4 46/// ///// 10048 40135 55000 91400 222// 00061=
0088997270999992021012015004+39350-074420FM-13+001099999V0209999C000019999999N999999999+00591+99999101411ADDMD1310111+9999SA1+0621REMSYN054ACYN4 46/// ///// 10059 40141 53011 91500 222// 00062=
0088997270999992021012016004+39350-074420FM-13+001099999V0209999C000019999999N999999999+00611+99999101411ADDMD1110101+9999SA1+0621REMSYN054ACYN4 46/// ///// 10061 40141 51010 91600 222// 00062=
0088997270999992021012017004+39350-074420FM-13+001099999V0209999C000019999999N999999999+00591+99999101391ADDMD1110041+9999SA1+0621REMSYN054ACYN4 46/// ///// 10059 40139 51004 91700 222// 00062=
0088997270999992021012018004+39350-074420FM-13+001099999V0209999C000019999999N999999999+00441+99999101421ADDMD1510001+9999SA1+0621REMSYN054ACYN4 46/// ///// 10044 40142 55000 91800 222// 00062=
0068997270999992021012019004+39350-074420FM-13+001099999V0209999C000019999999N999999999+00461+99999101421ADDSA1+0631REMSYN048ACYN4 46/// ///// 10046 40142 91836 222// 00063=
0088997270999992021012200004+39350-074420FM-13+001099999V0209999C000019999999N999999999+00691+99999100511ADDMD1210041+9999SA1+0631REMSYN054ACYN4 46/// ///// 10069 40051 52004 90000 222// 00063=
0088997270999992021012201004+39350-074420FM-13+001099999V0209999C000019999999N999999999+00571+99999100491ADDMD1410001+9999SA1+0631REMSYN054ACYN4 46/// ///// 10057 40049 54000 90100 222// 00063=
0088997270999992021012202004+39350-074420FM-13+001099999V0209999C000019999999N999999999+00571+99999100491ADDMD1410001+9999SA1+0631REMSYN054ACYN4 46/// ///// 10057 40049 54000 90200 222// 00063=
0088997270999992021012203004+39350-074420FM-13+001099999V0209999C000019999999N999999999+00591+99999100501ADDMD1410001+9999SA1+0631REMSYN054ACYN4 46/// ///// 10059 40050 54000 90300 222// 00063=
0088997270999992021012204004+39350-074420FM-13+001099999V0209999C000019999999N999999999+00631+99999100521ADDMD1210031+9999SA1+0621REMSYN054ACYN4 46/// ///// 10063 40052 52003 90400 222// 00062=
0068997270999992021012205004+39350-074420FM-13+001099999V0209999C000019999999N999999999+00651+99999100501ADDSA1+0611REMSYN048ACYN4 46/// ///// 10065 40050 90436 222// 00061=
0088997270999992021012206004+39350-074420FM-13+001099999V0209999C000019999999N999999999+00501+99999100541ADDMD1210041+9999SA1+0621REMSYN054ACYN4 46/// ///// 10050 40054 52004 90600 222// 00062=
0088997270999992021012207004+39350-074420FM-13+001099999V0209999C000019999999N999999999+00521+99999100571ADDMD1210051+9999SA1+0611REMSYN054ACYN4 46/// ///// 10052 40057 52005 90700 222// 00061=
0068997270999992021012208004+39350-074420FM-13+001099999V0209999C000019999999N999999999+99999+99999100571ADDSA1+0611REMSYN048ACYN4 46/// ///// 1//// 40057 90754 222// 00061=
0088997270999992021012209004+39350-074420FM-13+001099999V0209999C000019999999N999999999+00461+99999100581ADDMD1110041+9999SA1+0611REMSYN054ACYN4 46/// ///// 10046 40058 51004 90900 222// 00061=
0088997270999992021012210004+39350-074420FM-13+001099999V0209999C000019999999N999999999+00421+99999100601ADDMD1210031+9999SA1+0601REMSYN054ACYN4 46/// ///// 10042 40060 52003 91000 222// 00060=
0068997270999992021012211004+39350-074420FM-13+001099999V0209999C000019999999N999999999+00411+99999100581ADDSA1+0611REMSYN048ACYN4 46/// ///// 10041 40058 91036 222// 00061=
0088997270999992021012212004+39350-074420FM-13+001099999V0209999C000019999999N999999999+00451+99999100671ADDMD1310091+9999SA1+0601REMSYN054ACYN4 46/// ///// 10045 40067 53009 91200 222// 00060=
0068997270999992021012213004+39350-074420FM-13+001099999V0209999C000019999999N999999999+00501+99999100731ADDSA1+0601REMSYN048ACYN4 46/// ///// 10050 40073 91248 222// 00060=
0088997270999992021012214004+39350-074420FM-13+001099999V0209999C000019999999N999999999+00721+99999100841ADDMD1310231+9999SA1+0601REMSYN054ACYN4 46/// ///// 10072 40084 53023 91400 222// 00060=
0068997270999992021012215004+39350-074420FM-13+001099999V0209999C000019999999N999999999+00701+99999100911ADDSA1+0601REMSYN048ACYN4 46/// ///// 10070 40091 91448 222// 00060=
0068997270999992021012216004+39350-074420FM-13+001099999V0209999C000019999999N999999999+00751+99999100921ADDSA1+0591REMSYN048ACYN4 46/// ///// 10075 40092 91542 222// 00059=
0088997270999992021012217004+39350-074420FM-13+001099999V0209999C000019999999N999999999+00801+99999100831ADDMD1410001+9999SA1+0601REMSYN054ACYN4 46/// ///// 10080 40083 54000 91700 222// 00060=
0068997270999992021012218004+39350-074420FM-13+001099999V0209999C000019999999N999999999+00791+99999100831ADDSA1+0611REMSYN048ACYN4 46/// ///// 10079 40083 91742 222// 00061=
0068997270999992021012219004+39350-074420FM-13+001099999V0209999C000019999999N999999999+00851+99999100821ADDSA1+0611REMSYN048ACYN4 46/// ///// 10085 40082 91836 222// 00061=
0088997270999992021012220004+39350-074420FM-13+001099999V0209999C000019999999N999999999+00831+99999100911ADDMD1310081+9999SA1+0631REMSYN054ACYN4 46/// ///// 10083 40091 53008 92000 222// 00063=
0088997270999992021012221004+39350-074420FM-13+001099999V0209999C000019999999N999999999+00771+99999100981ADDMD1310141+9999SA1+0631REMSYN054ACYN4 46/// ///// 10077 40098 53014 92100 222// 00063=
0088997270999992021012222004+39350-074420FM-13+001099999V0209999C000019999999N999999999+00701+99999101071ADDMD1310231+9999SA1+0631REMSYN054ACYN4 46/// ///// 10070 40107 53023 92200 222// 00063=
0088997270999992021012223004+39350-074420FM-13+001099999V0209999C000019999999N999999999+00581+99999101161ADDMD1310251+9999SA1+0631REMSYN054ACYN4 46/// ///// 10058 40116 53025 92300 222// 00063=
0088997270999992021012300004+39350-074420FM-13+001099999V0209999C000019999999N999999999+00511+99999101231ADDMD1110251+9999SA1+0631REMSYN054ACYN4 46/// ///// 10051 40123 51025 90000 222// 00063=
0088997270999992021012301004+39350-074420FM-13+001099999V0209999C000019999999N999999999+00431+99999101271ADDMD1110201+9999SA1+0621REMSYN054ACYN4 46/// ///// 10043 40127 51020 90100 222// 00062=
0088997270999992021012302004+39350-074420FM-13+001099999V0209999C000019999999N999999999+00341+99999101341ADDMD1210181+9999SA1+0621REMSYN054ACYN4 46/// ///// 10034 40134 52018 90200 222// 00062=
0088997270999992021012303004+39350-074420FM-13+001099999V0209999C000019999999N999999999+00311+99999101381ADDMD1210151+9999SA1+0621REMSYN054ACYN4 46/// ///// 10031 40138 52015 90300 222// 00062=
0068997270999992021012304004+39350-074420FM-13+001099999V0209999C000019999999N999999999+00271+99999101411ADDSA1+0621REMSYN048ACYN4 46/// ///// 10027 40141 90348 222// 00062=
0088997270999992021012305004+39350-074420FM-13+001099999V0209999C000019999999N999999999+00221+99999101411ADDMD1110071+9999SA1+0611REMSYN054ACYN4 46/// ///// 10022 40141 51007 90500 222// 00061=
0088997270999992021012306004+39350-074420FM-13+001099999V0209999C000019999999N999999999+00181+99999101461ADDMD1310081+9999SA1+0601REMSYN054ACYN4 46/// ///// 10018 40146 53008 90600 222// 00060=
0088997270999992021012307004+39350-074420FM-13+001099999V0209999C000019999999N999999999+99999+99999101521ADDMD1310121+9999SA1+0601REMSYN054ACYN4 46/// ///// 1//// 40152 53012 90700 222// 00060=
0088997270999992021012308004+39350-074420FM-13+001099999V0209999C000019999999N999999999+00201+99999101551ADDMD1110141+9999SA1+0601REMSYN054ACYN4 46/// ///// 10020 40155 51014 90800 222// 00060=
0088997270999992021012309004+39350-074420FM-13+001099999V0209999C000019999999N999999999+00161+99999101561ADDMD1110101+9999SA1+0591REMSYN054ACYN4 46/// ///// 10016 40156 51010 90900 222// 00059=
0068997270999992021012310004+39350-074420FM-13+001099999V0209999C000019999999N999999999+00131+99999101591ADDSA1+0591REMSYN048ACYN4 46/// ///// 10013 40159 90936 222// 00059=
0088997270999992021012311004+39350-074420FM-13+001099999V0209999C000019999999N999999999+00051+99999101681ADDMD1310131+9999SA1+0581REMSYN054ACYN4 46/// ///// 10005 40168 53013 91100 222// 00058=
0088997270999992021012312004+39350-074420FM-13+001099999V0209999C000019999999N999999999+00011+99999101771ADDMD1310211+9999SA1+0581REMSYN054ACYN4 46/// ///// 10001 40177 53021 91200 222// 00058=
0088997270999992021012313004+39350-074420FM-13+001099999V0209999C000019999999N999999999-00031+99999101841ADDMD1110251+9999SA1+0581REMSYN054ACYN4 46/// ///// 11003 40184 51025 91300 222// 00058=
0088997270999992021012314004+39350-074420FM-13+001099999V0209999C000019999999N999999999-00021+99999101941ADDMD1310261+9999SA1+0581REMSYN054ACYN4 46/// ///// 11002 40194 53026 91400 222// 00058=
0088997270999992021012315004+39350-074420FM-13+001099999V0209999C000019999999N999999999+00011+99999102021ADDMD1310251+9999SA1+0571REMSYN054ACYN4 46/// ///// 10001 40202 53025 91500 222// 00057=
0088997270999992021012316004+39350-074420FM-13+001099999V0209999C000019999999N999999999+00041+99999102031ADDMD1110191+9999SA1+0591REMSYN054ACYN4 46/// ///// 10004 40203 51019 91600 222// 00059=
0068997270999992021012317004+39350-074420FM-13+001099999V0209999C000019999999N999999999+00021+99999101991ADDSA1+0591REMSYN048ACYN4 46/// ///// 10002 40199 91642 222// 00059=
0088997270999992021012318004+39350-074420FM-13+001099999V0209999C000019999999N999999999+00141+99999101931ADDMD1710091+9999SA1+0591REMSYN054ACYN4 46/// ///// 10014 40193 57009 91800 222// 00059=
0088997270999992021012319004+39350-074420FM-13+001099999V0209999C000019999999N999999999+00101+99999101981ADDMD1710051+9999SA1+0591REMSYN054ACYN4 46/// ///// 10010 40198 57005 91900 222// 00059=
0068997270999992021012320004+39350-074420FM-13+001099999V0209999C000019999999N999999999+00111+99999102021ADDSA1+0591REMSYN048ACYN4 46/// ///// 10011 40202 91942 222// 00059=
0088997270999992021012321004+39350-074420FM-13+001099999V0209999C000019999999N999999999+00051+99999102081ADDMD1210151+9999SA1+0591REMSYN054ACYN4 46/// ///// 10005 40208 52015 92100 222// 00059=
0088997270999992021012322004+39350-074420FM-13+001099999V0209999C000019999999N999999999+99999+99999102171ADDMD1310191+9999SA1+0591REMSYN054ACYN4 46/// ///// 1//// 40217 53019 92200 222// 00059=
0088997270999992021012323004+39350-074420FM-13+001099999V0209999C000019999999N999999999-00051+99999102241ADDMD1310211+9999SA1+0581REMSYN054ACYN4 46/// ///// 11005 40224 53021 92300 222// 00058=
0088997270999992021012400004+39350-074420FM-13+001099999V0209999C000019999999N999999999-00101+99999102331ADDMD1210251+9999SA1+0571REMSYN054ACYN4 46/// ///// 11010 40233 52025 90000 222// 00057=
0088997270999992021012401004+39350-074420FM-13+001099999V0209999C000019999999N999999999-00131+99999102351ADDMD1110181+9999SA1+0561REMSYN054ACYN4 46/// ///// 11013 40235 51018 90100 222// 00056=
0088997270999992021012402004+39350-074420FM-13+001099999V0209999C000019999999N999999999-00171+99999102371ADDMD1110131+9999SA1+0561REMSYN054ACYN4 46/// ///// 11017 40237 51013 90200 222// 00056=
0088997270999992021012403004+39350-074420FM-13+001099999V0209999C000019999999N999999999-00221+99999102401ADDMD1310071+9999SA1+0551REMSYN054ACYN4 46/// ///// 11022 40240 53007 90300 222// 00055=
0088997270999992021012404004+39350-074420FM-13+001099999V0209999C000019999999N999999999-00251+99999102411ADDMD1210061+9999SA1+0551REMSYN054ACYN4 46/// ///// 11025 40241 52006 90400 222// 00055=
0068997270999992021012405004+39350-074420FM-13+001099999V0209999C000019999999N999999999-00291+99999102391ADDSA1+0541REMSYN048ACYN4 46/// ///// 11029 40239 90512 222// 00054=
0068997270999992021012406004+39350-074420FM-13+001099999V0209999C000019999999N999999999-00281+99999102391ADDSA1+0541REMSYN048ACYN4 46/// ///// 11028 40239 90536 222// 00054=
0088997270999992021012407004+39350-074420FM-13+001099999V0209999C000019999999N999999999-00351+99999102421ADDMD1410001+9999SA1+0531REMSYN054ACYN4 46/// ///// 11035 40242 54000 90700 222// 00053=
0088997270999992021012408004+39350-074420FM-13+001099999V0209999C000019999999N999999999-00381+99999102421ADDMD1410001+9999SA1+0521REMSYN054ACYN4 46/// ///// 11038 40242 54000 90800 222// 00052=
0068997270999992021012409004+39350-074420FM-13+001099999V0209999C000019999999N999999999-00391+99999102441ADDSA1+0511REMSYN048ACYN4 46/// ///// 11039 40244 90836 222// 00051=
0088997270999992021012410004+39350-074420FM-13+001099999V0209999C000019999999N999999999-00431+99999102451ADDMD1210031+9999SA1+0501REMSYN054ACYN4 46/// ///// 11043 40245 52003 91000 222// 00050=
0088997270999992021012411004+39350-074420FM-13+001099999V0209999C000019999999N999999999-00441+99999102481ADDMD1210061+9999SA1+0481REMSYN054ACYN4 46/// ///// 11044 40248 52006 91100 222// 00048=
0088997270999992021012412004+39350-074420FM-13+001099999V0209999C000019999999N999999999-00471+99999102541ADDMD1310091+9999SA1+0471REMSYN054ACYN4 46/// ///// 11047 40254 53009 91200 222// 00047=
0088997270999992021012413004+39350-074420FM-13+001099999V0209999C000019999999N999999999-00351+99999102541ADDMD1110091+9999SA1+0471REMSYN054ACYN4 46/// ///// 11035 40254 51009 91300 222// 00047=
0088997270999992021012420004+39350-074420FM-13+001099999V0209999C000019999999N999999999+00171+99999102231ADDMD1610091+9999SA1+0471REMSYN054ACYN4 46/// ///// 10017 40223 56009 92000 222// 00047=
0088997270999992021012421004+39350-074420FM-13+001099999V0209999C000019999999N999999999+00181+99999102151ADDMD1810091+9999SA1+0491REMSYN054ACYN4 46/// ///// 10018 40215 58009 92100 222// 00049=
0088997270999992021012422004+39350-074420FM-13+001099999V0209999C000019999999N999999999+00081+99999102181ADDMD1510051+9999SA1+0461REMSYN054ACYN4 46/// ///// 10008 40218 55005 92200 222// 00046=
0088997270999992021012423004+39350-074420FM-13+001099999V0209999C000019999999N999999999+00071+99999102201ADDMD1610031+9999SA1+0461REMSYN054ACYN4 46/// ///// 10007 40220 56003 92300 222// 00046=
