0088997270999992024010100004+39350-074420FM-13+001099999V02099999999999999999N999999999+00621+99999101491ADDMD1210091+9999SA1+0831REMSYN054ACYN4 46/// ///// 10062 40149 52009 90000 222// 00083=
0088997270999992024010101004+39350-074420FM-13+001099999V02099999999999999999N999999999+00601+99999101491ADDMD1110071+9999SA1+0831REMSYN054ACYN4 46/// ///// 10060 40149 51007 90100 222// 00083=
0088997270999992024010102004+39350-074420FM-13+001099999V02099999999999999999N999999999+00691+99999101501ADDMD1410001+9999SA1+0831REMSYN054ACYN4 46/// ///// 10069 40150 54000 90200 222// 00083=
0088997270999992024010103004+39350-074420FM-13+001099999V02099999999999999999N999999999+00681+99999101511ADDMD1410001+9999SA1+0841REMSYN054ACYN4 46/// ///// 10068 40151 54000 90300 222// 00084=
0088997270999992024010104004+39350-074420FM-13+001099999V02099999999999999999N999999999+00701+99999101511ADDMD1410001+9999SA1+0811REMSYN054ACYN4 46/// ///// 10070 40151 54000 90400 222// 00081=
0088997270999992024010105004+39350-074420FM-13+001099999V02099999999999999999N999999999+00701+99999101491ADDMD1410001+9999SA1+0811REMSYN054ACYN4 46/// ///// 10070 40149 54000 90500 222// 00081=
0088997270999992024010106004+39350-074420FM-13+001099999V02099999999999999999N999999999+00671+99999101441ADDMD1810071+9999SA1+0821REMSYN054ACYN4 46/// ///// 10067 40144 58007 90600 222// 00082=
0088997270999992024010107004+39350-074420FM-13+001099999V02099999999999999999N999999999+00651+99999101431ADDMD1710081+9999SA1+0831REMSYN054ACYN4 46/// ///// 10065 40143 57008 90700 222// 00083=
0088997270999992024010108004+39350-074420FM-13+001099999V02099999999999999999N999999999+00691+99999101401ADDMD1610091+9999SA1+0831REMSYN054ACYN4 46/// ///// 10069 40140 56009 90800 222// 00083=
0088997270999992024010109004+39350-074420FM-13+001099999V02099999999999999999N999999999+00691+99999101371ADDMD1810071+9999SA1+0831REMSYN054ACYN4 46/// ///// 10069 40137 58007 90900 222// 00083=
0088997270999992024010110004+39350-074420FM-13+001099999V02099999999999999999N999999999+00721+99999101341ADDMD1710091+9999SA1+0831REMSYN054ACYN4 46/// ///// 10072 40134 57009 91000 222// 00083=
0088997270999992024010111004+39350-074420FM-13+001099999V02099999999999999999N999999999+00761+99999101361ADDMD1610041+9999SA1+0821REMSYN054ACYN4 46/// ///// 10076 40136 56004 91100 222// 00082=
0088997270999992024010112004+39350-074420FM-13+001099999V02099999999999999999N999999999+00761+99999101391ADDMD1510001+9999SA1+0811REMSYN054ACYN4 46/// ///// 10076 40139 55000 91200 222// 00081=
0088997270999992024010113004+39350-074420FM-13+001099999V02099999999999999999N999999999+00751+99999101421ADDMD1310081+9999SA1+0801REMSYN054ACYN4 46/// ///// 10075 40142 53008 91300 222// 00080=
0088997270999992024010114004+39350-074420FM-13+001099999V02099999999999999999N999999999+00641+99999101441ADDMD1110081+9999SA1+0801REMSYN054ACYN4 46/// ///// 10064 40144 51008 91400 222// 00080=
0088997270999992024010115004+39350-074420FM-13+001099999V02099999999999999999N999999999+00671+99999101491ADDMD1310101+9999SA1+0811REMSYN054ACYN4 46/// ///// 10067 40149 53010 91500 222// 00081=
0088997270999992024010116004+39350-074420FM-13+001099999V02099999999999999999N999999999+00661+99999101481ADDMD1210061+9999SA1+0811REMSYN054ACYN4 46/// ///// 10066 40148 52006 91600 222// 00081=
0088997270999992024010117004+39350-074420FM-13+001099999V02099999999999999999N999999999+00701+99999101431ADDMD1990001+9999SA1+0811REMSYN054ACYN4 46/// ///// 10070 40143 50000 91700 222// 00081=
0088997270999992024010118004+39350-074420FM-13+001099999V02099999999999999999N999999999+00721+99999101381ADDMD1810111+9999SA1+0811REMSYN054ACYN4 46/// ///// 10072 40138 58011 91800 222// 00081=
0088997270999992024010119004+39350-074420FM-13+001099999V02099999999999999999N999999999+00691+99999101371ADDMD1610111+9999SA1+0821REMSYN054ACYN4 46/// ///// 10069 40137 56011 91900 222// 00082=
0088997270999992024010120004+39350-074420FM-13+001099999V02099999999999999999N999999999+00711+99999101371ADDMD1610061+9999SA1+0821REMSYN054ACYN4 46/// ///// 10071 40137 56006 92000 222// 00082=
0088997270999992024010121004+39350-074420FM-13+001099999V02099999999999999999N999999999+99999+99999101421ADDMD1310041+9999SA1+0821REMSYN054ACYN4 46/// ///// 1//// 40142 53004 92100 222// 00082=
0088997270999992024010122004+39350-074420FM-13+001099999V02099999999999999999N999999999+00691+99999101451ADDMD1310081+9999SA1+0821REMSYN054ACYN4 46/// ///// 10069 40145 53008 92200 222// 00082=
0088997270999992024010123004+39350-074420FM-13+001099999V02099999999999999999N999999999+00651+99999101501ADDMD1210131+9999SA1+0821REMSYN054ACYN4 46/// ///// 10065 40150 52013 92300 222// 00082=
0088997270999992024010200004+39350-074420FM-13+001099999V02099999999999999999N999999999+00641+99999101551ADDMD1310131+9999SA1+0811REMSYN054ACYN4 46/// ///// 10064 40155 53013 90000 222// 00081=
0088997270999992024010201004+39350-074420FM-13+001099999V02099999999999999999N999999999+00641+99999101571ADDMD1110121+9999SA1+0821REMSYN054ACYN4 46/// ///// 10064 40157 51012 90100 222// 00082=
0088997270999992024010202004+39350-074420FM-13+001099999V02099999999999999999N999999999+00631+99999101581ADDMD1110081+9999SA1+0821REMSYN054ACYN4 46/// ///// 10063 40158 51008 90200 222// 00082=
0088997270999992024010203004+39350-074420FM-13+001099999V02099999999999999999N999999999+00611+99999101601ADDMD1210051+9999SA1+0821REMSYN054ACYN4 46/// ///// 10061 40160 52005 90300 222// 00082=
0088997270999992024010204004+39350-074420FM-13+001099999V02099999999999999999N999999999+00571+99999101611ADDMD1210041+9999SA1+0811REMSYN054ACYN4 46/// ///// 10057 40161 52004 90400 222// 00081=
0088997270999992024010205004+39350-074420FM-13+001099999V02099999999999999999N999999999+00521+99999101591ADDMD1410001+9999SA1+0811REMSYN054ACYN4 46/// ///// 10052 40159 54000 90500 222// 00081=
0088997270999992024010206004+39350-074420FM-13+001099999V02099999999999999999N999999999+00451+99999101591ADDMD1410001+9999SA1+0821REMSYN054ACYN4 46/// ///// 10045 40159 54000 90600 222// 00082=
0088997270999992024010207004+39350-074420FM-13+001099999V02099999999999999999N999999999+00341+99999101611ADDMD1410001+9999SA1+0831REMSYN054ACYN4 46/// ///// 10034 40161 54000 90700 222// 00083=
0088997270999992024010208004+39350-074420FM-13+001099999V02099999999999999999N999999999+00261+99999101651ADDMD1310061+9999SA1+0831REMSYN054ACYN4 46/// ///// 10026 40165 53006 90800 222// 00083=
0088997270999992024010209004+39350-074420FM-13+001099999V02099999999999999999N999999999+00191+99999101661ADDMD1210071+9999SA1+0831REMSYN054ACYN4 46/// ///// 10019 40166 52007 90900 222// 00083=
0088997270999992024010210004+39350-074420FM-13+001099999V02099999999999999999N999999999+00091+99999101681ADDMD1110071+9999SA1+0831REMSYN054ACYN4 46/// ///// 10009 40168 51007 91000 222// 00083=
0088997270999992024010211004+39350-074420FM-13+001099999V02099999999999999999N999999999+00031+99999101751ADDMD1310101+9999SA1+0831REMSYN054ACYN4 46/// ///// 10003 40175 53010 91100 222// 00083=
0088997270999992024010212004+39350-074420FM-13+001099999V02099999999999999999N999999999+00021+99999101781ADDMD1310121+9999SA1+0801REMSYN054ACYN4 46/// ///// 10002 40178 53012 91200 222// 00080=
0088997270999992024010213004+39350-074420FM-13+001099999V02099999999999999999N999999999+00051+99999101841ADDMD1110161+9999SA1+0811REMSYN054ACYN4 46/// ///// 10005 40184 51016 91300 222// 00081=
0088997270999992024010214004+39350-074420FM-13+001099999V02099999999999999999N999999999+00101+99999101901ADDMD1310151+9999SA1+0801REMSYN054ACYN4 46/// ///// 10010 40190 53015 91400 222// 00080=
0088997270999992024010215004+39350-074420FM-13+001099999V02099999999999999999N999999999+00171+99999101941ADDMD1110161+9999SA1+0801REMSYN054ACYN4 46/// ///// 10017 40194 51016 91500 222// 00080=
0088997270999992024010216004+39350-074420FM-13+001099999V02099999999999999999N999999999+00241+99999101831ADDMD1990001+9999SA1+0811REMSYN054ACYN4 46/// ///// 10024 40183 50000 91600 222// 00081=
0088997270999992024010217004+39350-074420FM-13+001099999V02099999999999999999N999999999+00351+99999101681ADDMD1810221+9999SA1+0801REMSYN054ACYN4 46/// ///// 10035 40168 58022 91700 222// 00080=
0088997270999992024010218004+39350-074420FM-13+001099999V02099999999999999999N999999999+00431+99999101551ADDMD1810391+9999SA1+0801REMSYN054ACYN4 46/// ///// 10043 40155 58039 91800 222// 00080=
0088997270999992024010219004+39350-074420FM-13+001099999V02099999999999999999N999999999+00531+99999101501ADDMD1610331+9999SA1+0811REMSYN054ACYN4 46/// ///// 10053 40150 56033 91900 222// 00081=
0088997270999992024010220004+39350-074420FM-13+001099999V02099999999999999999N999999999+00591+99999101491ADDMD1610191+9999SA1+0811REMSYN054ACYN4 46/// ///// 10059 40149 56019 92000 222// 00081=
0088997270999992024010221004+39350-074420FM-13+001099999V02099999999999999999N999999999+00611+99999101501ADDMD1610051+9999SA1+0811REMSYN054ACYN4 46/// ///// 10061 40150 56005 92100 222// 00081=
0088997270999992024010222004+39350-074420FM-13+001099999V02099999999999999999N999999999+00541+99999101541ADDMD1310041+9999SA1+0811REMSYN054ACYN4 46/// ///// 10054 40154 53004 92200 222// 00081=
0088997270999992024010223004+39350-074420FM-13+001099999V02099999999999999999N999999999+00461+99999101591ADDMD1310101+9999SA1+0811REMSYN054ACYN4 46/// ///// 10046 40159 53010 92300 222// 00081=
0088997270999992024010300004+39350-074420FM-13+001099999V02099999999999999999N999999999+00391+99999101621ADDMD1110121+9999SA1+0811REMSYN054ACYN4 46/// ///// 10039 40162 51012 90000 222// 00081=
0088997270999992024010301004+39350-074420FM-13+001099999V02099999999999999999N999999999+00351+99999101601ADDMD1110061+9999SA1+0801REMSYN054ACYN4 46/// ///// 10035 40160 51006 90100 222// 00080=
0088997270999992024010302004+39350-074420FM-13+001099999V02099999999999999999N999999999+00291+99999101621ADDMD1110031+9999SA1+0781REMSYN054ACYN4 46/// ///// 10029 40162 51003 90200 222// 00078=
0088997270999992024010303004+39350-074420FM-13+001099999V02099999999999999999N999999999+00241+99999101601ADDMD1410001+9999SA1+0781REMSYN054ACYN4 46/// ///// 10024 40160 54000 90300 222// 00078=
0088997270999992024010304004+39350-074420FM-13+001099999V02099999999999999999N999999999+00201+99999101611ADDMD1410001+9999SA1+0781REMSYN054ACYN4 46/// ///// 10020 40161 54000 90400 222// 00078=
0088997270999992024010305004+39350-074420FM-13+001099999V02099999999999999999N999999999+00191+99999101571ADDMD1810051+9999SA1+0771REMSYN054ACYN4 46/// ///// 10019 40157 58005 90500 222// 00077=
0088997270999992024010306004+39350-074420FM-13+001099999V02099999999999999999N999999999+00171+99999101561ADDMD1710041+9999SA1+0761REMSYN054ACYN4 46/// ///// 10017 40156 57004 90600 222// 00076=
0088997270999992024010307004+39350-074420FM-13+001099999V02099999999999999999N999999999+00101+99999101581ADDMD1610031+9999SA1+0751REMSYN054ACYN4 46/// ///// 10010 40158 56003 90700 222// 00075=
0088997270999992024010308004+39350-074420FM-13+001099999V02099999999999999999N999999999+00081+99999101551ADDMD1990001+9999SA1+0751REMSYN054ACYN4 46/// ///// 10008 40155 50000 90800 222// 00075=
0088997270999992024010309004+39350-074420FM-13+001099999V02099999999999999999N999999999+00031+99999101551ADDMD1410001+9999SA1+0731REMSYN054ACYN4 46/// ///// 10003 40155 54000 90900 222// 00073=
0088997270999992024010310004+39350-074420FM-13+001099999V02099999999999999999N999999999+00021+99999101571ADDMD1510001+9999SA1+0731REMSYN054ACYN4 46/// ///// 10002 40157 55000 91000 222// 00073=
0088997270999992024010311004+39350-074420FM-13+001099999V02099999999999999999N999999999-00011+99999101611ADDMD1310061+9999SA1+0731REMSYN054ACYN4 46/// ///// 11001 40161 53006 91100 222// 00073=
0088997270999992024010312004+39350-074420FM-13+001099999V02099999999999999999N999999999+00001+99999101671ADDMD1310121+9999SA1+0731REMSYN054ACYN4 46/// ///// 10000 40167 53012 91200 222// 00073=
0088997270999992024010313004+39350-074420FM-13+001099999V02099999999999999999N999999999+00111+99999101721ADDMD1310151+9999SA1+0721REMSYN054ACYN4 46/// ///// 10011 40172 53015 91300 222// 00072=
0088997270999992024010314004+39350-074420FM-13+001099999V02099999999999999999N999999999+00341+99999101741ADDMD1110131+9999SA1+0731REMSYN054ACYN4 46/// ///// 10034 40174 51013 91400 222// 00073=
0088997270999992024010315004+39350-074420FM-13+001099999V02099999999999999999N999999999+00301+99999101701ADDMD1990031+9999SA1+0721REMSYN054ACYN4 46/// ///// 10030 40170 50003 91500 222// 00072=
0088997270999992024010316004+39350-074420FM-13+001099999V02099999999999999999N999999999+00441+99999101701ADDMD1410001+9999SA1+0721REMSYN054ACYN4 46/// ///// 10044 40170 54000 91600 222// 00072=
0088997270999992024010317004+39350-074420FM-13+001099999V02099999999999999999N999999999+00481+99999101621ADDMD1810121+9999SA1+0721REMSYN054ACYN4 46/// ///// 10048 40162 58012 91700 222// 00072=
0088997270999992024010318004+39350-074420FM-13+001099999V02099999999999999999N999999999+00651+99999101551ADDMD1810151+9999SA1+0761REMSYN054ACYN4 46/// ///// 10065 40155 58015 91800 222// 00076=
0088997270999992024010319004+39350-074420FM-13+001099999V02099999999999999999N999999999+00551+99999101461ADDMD1810241+9999SA1+0771REMSYN054ACYN4 46/// ///// 10055 40146 58024 91900 222// 00077=
0088997270999992024010320004+39350-074420FM-13+001099999V02099999999999999999N999999999+00571+99999101391ADDMD1710231+9999SA1+0771REMSYN054ACYN4 46/// ///// 10057 40139 57023 92000 222// 00077=
0088997270999992024010321004+39350-074420FM-13+001099999V02099999999999999999N999999999+00531+99999101461ADDMD1510091+9999SA1+0781REMSYN054ACYN4 46/// ///// 10053 40146 55009 92100 222// 00078=
0088997270999992024010322004+39350-074420FM-13+001099999V02099999999999999999N999999999+00541+99999101451ADDMD1510001+9999SA1+0781REMSYN054ACYN4 46/// ///// 10054 40145 55000 92200 222// 00078=
0088997270999992024010323004+39350-074420FM-13+001099999V02099999999999999999N999999999+00501+99999101501ADDMD1110111+9999SA1+0771REMSYN054ACYN4 46/// ///// 10050 40150 51011 92300 222// 00077=
0088997270999992024010400004+39350-074420FM-13+001099999V02099999999999999999N999999999+00461+99999101511ADDMD1210051+9999SA1+0771REMSYN054ACYN4 46/// ///// 10046 40151 52005 90000 222// 00077=
0088997270999992024010401004+39350-074420FM-13+001099999V02099999999999999999N999999999+00441+99999101471ADDMD1990001+9999SA1+0761REMSYN054ACYN4 46/// ///// 10044 40147 50000 90100 222// 00076=
0088997270999992024010402004+39350-074420FM-13+001099999V02099999999999999999N999999999+00441+99999101431ADDMD1810071+9999SA1+0761REMSYN054ACYN4 46/// ///// 10044 40143 58007 90200 222// 00076=
0088997270999992024010403004+39350-074420FM-13+001099999V02099999999999999999N999999999+00441+99999101461ADDMD1510051+9999SA1+0751REMSYN054ACYN4 46/// ///// 10044 40146 55005 90300 222// 00075=
0088997270999992024010404004+39350-074420FM-13+001099999V02099999999999999999N999999999+00471+99999101461ADDMD1510001+9999SA1+0751REMSYN054ACYN4 46/// ///// 10047 40146 55000 90400 222// 00075=
0088997270999992024010405004+39350-074420FM-13+001099999V02099999999999999999N999999999+00491+99999101421ADDMD1990001+9999SA1+0761REMSYN054ACYN4 46/// ///// 10049 40142 50000 90500 222// 00076=
0088997270999992024010406004+39350-074420FM-13+001099999V02099999999999999999N999999999+00481+99999101371ADDMD1810091+9999SA1+0761REMSYN054ACYN4 46/// ///// 10048 40137 58009 90600 222// 00076=
0088997270999992024010407004+39350-074420FM-13+001099999V02099999999999999999N999999999+00491+99999101311ADDMD1810151+9999SA1+0761REMSYN054ACYN4 46/// ///// 10049 40131 58015 90700 222// 00076=
0088997270999992024010408004+39350-074420FM-13+001099999V02099999999999999999N999999999+00491+99999101271ADDMD1610151+9999SA1+0751REMSYN054ACYN4 46/// ///// 10049 40127 56015 90800 222// 00075=
0088997270999992024010409004+39350-074420FM-13+001099999V02099999999999999999N999999999+00471+99999101211ADDMD1710161+9999SA1+0751REMSYN054ACYN4 46/// ///// 10047 40121 57016 90900 222// 00075=
0088997270999992024010410004+39350-074420FM-13+001099999V02099999999999999999N999999999+00451+99999101181ADDMD1610131+9999SA1+0741REMSYN054ACYN4 46/// ///// 10045 40118 56013 91000 222// 00074=
0068997270999992024010411004+39350-074420FM-13+001099999V02099999999999999999N999999999+00441+99999101201ADDSA1+0741REMSYN048ACYN4 46/// ///// 10044 40120 91042 222// 00074=
0088997270999992024010412004+39350-074420FM-13+001099999V02099999999999999999N999999999+00441+99999101271ADDMD1210061+9999SA1+0741REMSYN054ACYN4 46/// ///// 10044 40127 52006 91200 222// 00074=
0088997270999992024010413004+39350-074420FM-13+001099999V02099999999999999999N999999999+00471+99999101291ADDMD1210111+9999SA1+0741REMSYN054ACYN4 46/// ///// 10047 40129 52011 91300 222// 00074=
0068997270999992024010414004+39350-074420FM-13+001099999V02099999999999999999N999999999+00461+99999101311ADDSA1+0741REMSYN048ACYN4 46/// ///// 10046 40131 91342 222// 00074=
0088997270999992024010415004+39350-074420FM-13+001099999V02099999999999999999N999999999+00521+99999101351ADDMD1310081+9999SA1+0741REMSYN054ACYN4 46/// ///// 10052 40135 53008 91500 222// 00074=
0088997270999992024010416004+39350-074420FM-13+001099999V02099999999999999999N999999999+00491+99999101351ADDMD1210061+9999SA1+0751REMSYN054ACYN4 46/// ///// 10049 40135 52006 91600 222// 00075=
0088997270999992024010417004+39350-074420FM-13+001099999V02099999999999999999N999999999+00541+99999101301ADDMD1990001+9999SA1+0741REMSYN054ACYN4 46/// ///// 10054 40130 50000 91700 222// 00074=
0088997270999992024010418004+39350-074420FM-13+001099999V02099999999999999999N999999999+00611+99999101251ADDMD1810101+9999SA1+0741REMSYN054ACYN4 46/// ///// 10061 40125 58010 91800 222// 00074=
0088997270999992024010419004+39350-074420FM-13+001099999V02099999999999999999N999999999+00671+99999101261ADDMD1610091+9999SA1+0751REMSYN054ACYN4 46/// ///// 10067 40126 56009 91900 222// 00075=
0088997270999992024010420004+39350-074420FM-13+001099999V02099999999999999999N999999999+00621+99999101341ADDMD1310041+9999SA1+0751REMSYN054ACYN4 46/// ///// 10062 40134 53004 92000 222// 00075=
0088997270999992024010421004+39350-074420FM-13+001099999V02099999999999999999N999999999+00601+99999101421ADDMD1310171+9999SA1+0741REMSYN054ACYN4 46/// ///// 10060 40142 53017 92100 222// 00074=
0088997270999992024010422004+39350-074420FM-13+001099999V02099999999999999999N999999999+00511+99999101531ADDMD1310271+9999SA1+0741REMSYN054ACYN4 46/// ///// 10051 40153 53027 92200 222// 00074=
0088997270999992024010423004+39350-074420FM-13+001099999V02099999999999999999N999999999+00461+99999101661ADDMD1310321+9999SA1+0741REMSYN054ACYN4 46/// ///// 10046 40166 53032 92300 222// 00074=
0088997270999992024010500004+39350-074420FM-13+001099999V02099999999999999999N999999999+00381+99999101801ADDMD1310381+9999SA1+0731REMSYN054ACYN4 46/// ///// 10038 40180 53038 90000 222// 00073=
0088997270999992024010501004+39350-074420FM-13+001099999V02099999999999999999N999999999+00291+99999101881ADDMD1110351+9999SA1+0731REMSYN054ACYN4 46/// ///// 10029 40188 51035 90100 222// 00073=
0088997270999992024010502004+39350-074420FM-13+001099999V02099999999999999999N999999999+00201+99999101951ADDMD1110291+9999SA1+0721REMSYN054ACYN4 46/// ///// 10020 40195 51029 90200 222// 00072=
0088997270999992024010503004+39350-074420FM-13+001099999V02099999999999999999N999999999+00121+99999102031ADDMD1210231+9999SA1+0731REMSYN054ACYN4 46/// ///// 10012 40203 52023 90300 222// 00073=
0088997270999992024010504004+39350-074420FM-13+001099999V02099999999999999999N999999999+00041+99999102091ADDMD1110211+9999SA1+0731REMSYN054ACYN4 46/// ///// 10004 40209 51021 90400 222// 00073=
0088997270999992024010505004+39350-074420FM-13+001099999V02099999999999999999N999999999-00031+99999102141ADDMD1110191+9999SA1+0731REMSYN054ACYN4 46/// ///// 11003 40214 51019 90500 222// 00073=
0088997270999992024010506004+39350-074420FM-13+001099999V02099999999999999999N999999999-00091+99999102161ADDMD1110131+9999SA1+0721REMSYN054ACYN4 46/// ///// 11009 40216 51013 90600 222// 00072=
0088997270999992024010507004+39350-074420FM-13+001099999V02099999999999999999N999999999-00141+99999102201ADDMD1110111+9999SA1+0691REMSYN054ACYN4 46/// ///// 11014 40220 51011 90700 222// 00069=
0088997270999992024010508004+39350-074420FM-13+001099999V02099999999999999999N999999999-00191+99999102281ADDMD1310141+9999SA1+0681REMSYN054ACYN4 46/// ///// 11019 40228 53014 90800 222// 00068=
0088997270999992024010509004+39350-074420FM-13+001099999V02099999999999999999N999999999-00251+99999102341ADDMD1310181+9999SA1+0691REMSYN054ACYN4 46/// ///// 11025 40234 53018 90900 222// 00069=
0088997270999992024010510004+39350-074420FM-13+001099999V02099999999999999999N999999999-00281+99999102351ADDMD1110151+9999SA1+0671REMSYN054ACYN4 46/// ///// 11028 40235 51015 91000 222// 00067=
0088997270999992024010511004+39350-074420FM-13+001099999V02099999999999999999N999999999-00311+99999102441ADDMD1310161+9999SA1+0671REMSYN054ACYN4 46/// ///// 11031 40244 53016 91100 222// 00067=
0088997270999992024010512004+39350-074420FM-13+001099999V02099999999999999999N999999999-00321+99999102521ADDMD1310181+9999SA1+0691REMSYN054ACYN4 46/// ///// 11032 40252 53018 91200 222// 00069=
0088997270999992024010513004+39350-074420FM-13+001099999V02099999999999999999N999999999-00231+99999102631ADDMD1310281+9999SA1+0681REMSYN054ACYN4 46/// ///// 11023 40263 53028 91300 222// 00068=
0088997270999992024010514004+39350-074420FM-13+001099999V02099999999999999999N999999999-00091+99999102691ADDMD1110251+9999SA1+0651REMSYN054ACYN4 46/// ///// 11009 40269 51025 91400 222// 00065=
0088997270999992024010515004+39350-074420FM-13+001099999V02099999999999999999N999999999-00101+99999102701ADDMD1110181+9999SA1+0671REMSYN054ACYN4 46/// ///// 11010 40270 51018 91500 222// 00067=
0088997270999992024010516004+39350-074420FM-13+001099999V02099999999999999999N999999999-00031+99999102621ADDMD1990001+9999SA1+0651REMSYN054ACYN4 46/// ///// 11003 40262 50000 91600 222// 00065=
0088997270999992024010517004+39350-074420FM-13+001099999V02099999999999999999N999999999+00071+99999102521ADDMD1810171+9999SA1+0661REMSYN054ACYN4 46/// ///// 10007 40252 58017 91700 222// 00066=
0088997270999992024010518004+39350-074420FM-13+001099999V02099999999999999999N999999999+00191+99999102431ADDMD1810271+9999SA1+0661REMSYN054ACYN4 46/// ///// 10019 40243 58027 91800 222// 00066=
0088997270999992024010519004+39350-074420FM-13+001099999V02099999999999999999N999999999+00301+99999102351ADDMD1610271+9999SA1+0691REMSYN054ACYN4 46/// ///// 10030 40235 56027 91900 222// 00069=
0088997270999992024010520004+39350-074420FM-13+001099999V02099999999999999999N999999999+00161+99999102321ADDMD1610201+9999SA1+0701REMSYN054ACYN4 46/// ///// 10016 40232 56020 92000 222// 00070=
0088997270999992024010521004+39350-074420FM-13+001099999V02099999999999999999N999999999+00301+99999102301ADDMD1610131+9999SA1+0701REMSYN054ACYN4 46/// ///// 10030 40230 56013 92100 222// 00070=
0088997270999992024010522004+39350-074420FM-13+001099999V02099999999999999999N999999999+00181+99999102341ADDMD1510001+9999SA1+0681REMSYN054ACYN4 46/// ///// 10018 40234 55000 92200 222// 00068=
0088997270999992024010523004+39350-074420FM-13+001099999V02099999999999999999N999999999+00131+99999102321ADDMD1410001+9999SA1+0671REMSYN054ACYN4 46/// ///// 10013 40232 54000 92300 222// 00067=
0088997270999992024010600004+39350-074420FM-13+001099999V02099999999999999999N999999999+99999+99999102421ADDMD1310121+9999SA1+0671REMSYN054ACYN4 46/// ///// 1//// 40242 53012 90000 222// 00067=
0088997270999992024010601004+39350-074420FM-13+001099999V02099999999999999999N999999999+00071+99999102361ADDMD1990001+9999SA1+0681REMSYN054ACYN4 46/// ///// 10007 40236 50000 90100 222// 00068=
0088997270999992024010602004+39350-074420FM-13+001099999V02099999999999999999N999999999+00051+99999102341ADDMD1990001+9999SA1+0681REMSYN054ACYN4 46/// ///// 10005 40234 50000 90200 222// 00068=
0088997270999992024010603004+39350-074420FM-13+001099999V02099999999999999999N999999999+99999+99999102351ADDMD1610071+9999SA1+0681REMSYN054ACYN4 46/// ///// 1//// 40235 56007 90300 222// 00068=
0088997270999992024010604004+39350-074420FM-13+001099999V02099999999999999999N999999999+00071+99999102201ADDMD1810161+9999SA1+0681REMSYN054ACYN4 46/// ///// 10007 40220 58016 90400 222// 00068=
0088997270999992024010605004+39350-074420FM-13+001099999V02099999999999999999N999999999+00101+99999102201ADDMD1710141+9999SA1+0681REMSYN054ACYN4 46/// ///// 10010 40220 57014 90500 222// 00068=
0088997270999992024010606004+39350-074420FM-13+001099999V02099999999999999999N999999999+00141+99999102241ADDMD1510111+9999SA1+0661REMSYN054ACYN4 46/// ///// 10014 40224 55011 90600 222// 00066=
0088997270999992024010607004+39350-074420FM-13+001099999V02099999999999999999N999999999+00151+99999102231ADDMD1210031+9999SA1+0641REMSYN054ACYN4 46/// ///// 10015 40223 52003 90700 222// 00064=
0088997270999992024010608004+39350-074420FM-13+001099999V02099999999999999999N999999999+00181+99999102171ADDMD1810031+9999SA1+0641REMSYN054ACYN4 46/// ///// 10018 40217 58003 90800 222// 00064=
0088997270999992024010609004+39350-074420FM-13+001099999V02099999999999999999N999999999+00171+99999102121ADDMD1810121+9999SA1+0631REMSYN054ACYN4 46/// ///// 10017 40212 58012 90900 222// 00063=
0088997270999992024010610004+39350-074420FM-13+001099999V02099999999999999999N999999999+00191+99999102111ADDMD1610121+9999SA1+0631REMSYN054ACYN4 46/// ///// 10019 40211 56012 91000 222// 00063=
0088997270999992024010611004+39350-074420FM-13+001099999V02099999999999999999N999999999+99999+99999102071ADDMD1610101+9999SA1+0631REMSYN054ACYN4 46/// ///// 1//// 40207 56010 91100 222// 00063=
0088997270999992024010612004+39350-074420FM-13+001099999V02099999999999999999N999999999+99999+99999102091ADDMD1710031+9999SA1+0631REMSYN054ACYN4 46/// ///// 1//// 40209 57003 91200 222// 00063=
0088997270999992024010613004+39350-074420FM-13+001099999V02099999999999999999N999999999+00461+99999102001ADDMD1810111+9999SA1+0631REMSYN054ACYN4 46/// ///// 10046 40200 58011 91300 222// 00063=
0088997270999992024010614004+39350-074420FM-13+001099999V02099999999999999999N999999999+00491+99999101981ADDMD1710091+9999SA1+0631REMSYN054ACYN4 46/// ///// 10049 40198 57009 91400 222// 00063=
0088997270999992024010615004+39350-074420FM-13+001099999V02099999999999999999N999999999+99999+99999101891ADDMD1710201+9999SA1+0631REMSYN054ACYN4 46/// ///// 1//// 40189 57020 91500 222// 00063=
0068997270999992024010616004+39350-074420FM-13+001099999V02099999999999999999N999999999+00551+99999101801ADDSA1+0631REMSYN048ACYN4 46/// ///// 10055 40180 91536 222// 00063=
0088997270999992024010617004+39350-074420FM-13+001099999V02099999999999999999N999999999+00591+99999101491ADDMD1810491+9999SA1+0621REMSYN054ACYN4 46/// ///// 10059 40149 58049 91700 222// 00062=
0088997270999992024010618004+39350-074420FM-13+001099999V02099999999999999999N999999999+00601+99999101351ADDMD1610541+9999SA1+0621REMSYN054ACYN4 46/// ///// 10060 40135 56054 91800 222// 00062=
0088997270999992024010619004+39350-074420FM-13+001099999V02099999999999999999N999999999+00551+99999101101ADDMD1810631+9999SA1+0621REMSYN054ACYN4 46/// ///// 10055 40110 58063 91900 222// 00062=
0088997270999992024010620004+39350-074420FM-13+001099999V02099999999999999999N999999999+00601+99999101021ADDMD1610471+9999SA1+0641REMSYN054ACYN4 46/// ///// 10060 40102 56047 92000 222// 00064=
0088997270999992024010621004+39350-074420FM-13+001099999V02099999999999999999N999999999+99999+99999100941ADDMD1610411+9999SA1+0631REMSYN054ACYN4 46/// ///// 1//// 40094 56041 92100 222// 00063=
0088997270999992024010622004+39350-074420FM-13+001099999V02099999999999999999N999999999+99999+99999100711ADDMD1810391+9999SA1+0631REMSYN054ACYN4 46/// ///// 1//// 40071 58039 92200 222// 00063=
0088997270999992024010623004+39350-074420FM-13+001099999V02099999999999999999N999999999+00781+99999100671ADDMD1610351+9999SA1+0641REMSYN054ACYN4 46/// ///// 10078 40067 56035 92300 222// 00064=
0088997270999992024010700004+39350-074420FM-13+001099999V02099999999999999999N999999999+00801+99999100331ADDMD1810611+9999SA1+0641REMSYN054ACYN4 46/// ///// 10080 40033 58061 90000 222// 00064=
0088997270999992024010701004+39350-074420FM-13+001099999V02099999999999999999N999999999+00861+99999100081ADDMD1810631+9999SA1+0631REMSYN054ACYN4 46/// ///// 10086 40008 58063 90100 222// 00063=
0088997270999992024010702004+39350-074420FM-13+001099999V02099999999999999999N999999999+00921+99999099841ADDMD1610831+9999SA1+0631REMSYN054ACYN4 46/// ///// 10092 49984 56083 90200 222// 00063=
0088997270999992024010703004+39350-074420FM-13+001099999V02099999999999999999N999999999+00881+99999099801ADDMD1610531+9999SA1+0621REMSYN054ACYN4 46/// ///// 10088 49980 56053 90300 222// 00062=
0088997270999992024010704004+39350-074420FM-13+001099999V02099999999999999999N999999999+00901+99999099751ADDMD1610331+9999SA1+0621REMSYN054ACYN4 46/// ///// 10090 49975 56033 90400 222// 00062=
0088997270999992024010705004+39350-074420FM-13+001099999V02099999999999999999N999999999+00951+99999099661ADDMD1810181+9999SA1+0641REMSYN054ACYN4 46/// ///// 10095 49966 58018 90500 222// 00064=
0088997270999992024010706004+39350-074420FM-13+001099999V02099999999999999999N999999999+00881+99999099641ADDMD1610161+9999SA1+0661REMSYN054ACYN4 46/// ///// 10088 49964 56016 90600 222// 00066=
0088997270999992024010707004+39350-074420FM-13+001099999V02099999999999999999N999999999+00811+99999099671ADDMD1510081+9999SA1+0681REMSYN054ACYN4 46/// ///// 10081 49967 55008 90700 222// 00068=
0088997270999992024010708004+39350-074420FM-13+001099999V02099999999999999999N999999999+00861+99999099651ADDMD1410001+9999SA1+0701REMSYN054ACYN4 46/// ///// 10086 49965 54000 90800 222// 00070=
0088997270999992024010709004+39350-074420FM-13+001099999V02099999999999999999N999999999+00791+99999099721ADDMD1310081+9999SA1+0711REMSYN054ACYN4 46/// ///// 10079 49972 53008 90900 222// 00071=
0088997270999992024010710004+39350-074420FM-13+001099999V02099999999999999999N999999999+99999+99999099751ADDMD1310081+9999SA1+0711REMSYN054ACYN4 46/// ///// 1//// 49975 53008 91000 222// 00071=
0068997270999992024010711004+39350-074420FM-13+001099999V02099999999999999999N999999999+00511+99999099821ADDSA1+0721REMSYN048ACYN4 46/// ///// 10051 49982 91036 222// 00072=
0088997270999992024010712004+39350-074420FM-13+001099999V02099999999999999999N999999999+00411+99999099881ADDMD1210161+9999SA1+0731REMSYN054ACYN4 46/// ///// 10041 49988 52016 91200 222// 00073=
0088997270999992024010713004+39350-074420FM-13+001099999V02099999999999999999N999999999+00371+99999100031ADDMD1210281+9999SA1+0731REMSYN054ACYN4 46/// ///// 10037 40003 52028 91300 222// 00073=
0068997270999992024010714004+39350-074420FM-13+001099999V02099999999999999999N999999999+00371+99999100091ADDSA1+0731REMSYN048ACYN4 46/// ///// 10037 40009 91348 222// 00073=
0088997270999992024010715004+39350-074420FM-13+001099999V02099999999999999999N999999999+00391+99999100161ADDMD1110281+9999SA1+0701REMSYN054ACYN4 46/// ///// 10039 40016 51028 91500 222// 00070=
0088997270999992024010716004+39350-074420FM-13+001099999V02099999999999999999N999999999+00411+99999100131ADDMD1990101+9999SA1+0721REMSYN054ACYN4 46/// ///// 10041 40013 50010 91600 222// 00072=
0088997270999992024010717004+39350-074420FM-13+001099999V02099999999999999999N999999999+00511+99999100071ADDMD1810031+9999SA1+0721REMSYN054ACYN4 46/// ///// 10051 40007 58003 91700 222// 00072=
0088997270999992024010718004+39350-074420FM-13+001099999V02099999999999999999N999999999+99999+99999100101ADDMD1510061+9999SA1+0731REMSYN054ACYN4 46/// ///// 1//// 40010 55006 91800 222// 00073=
0088997270999992024010719004+39350-074420FM-13+001099999V02099999999999999999N999999999+00561+99999100171ADDMD1310041+9999SA1+0731REMSYN054ACYN4 46/// ///// 10056 40017 53004 91900 222// 00073=
0088997270999992024010720004+39350-074420FM-13+001099999V02099999999999999999N999999999+00621+99999100291ADDMD1310221+9999SA1+0731REMSYN054ACYN4 46/// ///// 10062 40029 53022 92000 222// 00073=
0088997270999992024010721004+39350-074420FM-13+001099999V02099999999999999999N999999999+00581+99999100471ADDMD1310371+9999SA1+0721REMSYN054ACYN4 46/// ///// 10058 40047 53037 92100 222// 00072=
0088997270999992024010722004+39350-074420FM-13+001099999V02099999999999999999N999999999+00551+99999100631ADDMD1310461+9999SA1+0721REMSYN054ACYN4 46/// ///// 10055 40063 53046 92200 222// 00072=
0088997270999992024010723004+39350-074420FM-13+001099999V02099999999999999999N999999999+00551+99999100821ADDMD1310531+9999SA1+0721REMSYN054ACYN4 46/// ///// 10055 40082 53053 92300 222// 00072=
0088997270999992024010800004+39350-074420FM-13+001099999V02099999999999999999N999999999+00521+99999100991ADDMD1310521+9999SA1+0711REMSYN054ACYN4 46/// ///// 10052 40099 53052 90000 222// 00071=
0088997270999992024010801004+39350-074420FM-13+001099999V02099999999999999999N999999999+99999+99999101121ADDMD1110491+9999SA1+0701REMSYN054ACYN4 46/// ///// 1//// 40112 51049 90100 222// 00070=
0088997270999992024010802004+39350-074420FM-13+001099999V02099999999999999999N999999999+00401+99999101231ADDMD1110411+9999SA1+0701REMSYN054ACYN4 46/// ///// 10040 40123 51041 90200 222// 00070=
0088997270999992024010803004+39350-074420FM-13+001099999V02099999999999999999N999999999+00411+99999101341ADDMD1110351+9999SA1+0701REMSYN054ACYN4 46/// ///// 10041 40134 51035 90300 222// 00070=
0088997270999992024010804004+39350-074420FM-13+001099999V02099999999999999999N999999999+00381+99999101451ADDMD1210331+9999SA1+0701REMSYN054ACYN4 46/// ///// 10038 40145 52033 90400 222// 00070=
0088997270999992024010805004+39350-074420FM-13+001099999V02099999999999999999N999999999+00341+99999101561ADDMD1210331+9999SA1+0691REMSYN054ACYN4 46/// ///// 10034 40156 52033 90500 222// 00069=
0088997270999992024010806004+39350-074420FM-13+001099999V02099999999999999999N999999999+00331+99999101661ADDMD1110321+9999SA1+0691REMSYN054ACYN4 46/// ///// 10033 40166 51032 90600 222// 00069=
0088997270999992024010807004+39350-074420FM-13+001099999V02099999999999999999N999999999+00321+99999101781ADDMD1310331+9999SA1+0681REMSYN054ACYN4 46/// ///// 10032 40178 53033 90700 222// 00068=
0088997270999992024010808004+39350-074420FM-13+001099999V02099999999999999999N999999999+00311+99999101851ADDMD1110291+9999SA1+0691REMSYN054ACYN4 46/// ///// 10031 40185 51029 90800 222// 00069=
0088997270999992024010809004+39350-074420FM-13+001099999V02099999999999999999N999999999+00311+99999101941ADDMD1110281+9999SA1+0701REMSYN054ACYN4 46/// ///// 10031 40194 51028 90900 222// 00070=
0088997270999992024010810004+39350-074420FM-13+001099999V02099999999999999999N999999999+00281+99999102061ADDMD1310281+9999SA1+0691REMSYN054ACYN4 46/// ///// 10028 40206 53028 91000 222// 00069=
0088997270999992024010811004+39350-074420FM-13+001099999V02099999999999999999N999999999+00251+99999102201ADDMD1310351+9999SA1+0691REMSYN054ACYN4 46/// ///// 10025 40220 53035 91100 222// 00069=
0088997270999992024010812004+39350-074420FM-13+001099999V02099999999999999999N999999999+00211+99999102371ADDMD1310431+9999SA1+0681REMSYN054ACYN4 46/// ///// 10021 40237 53043 91200 222// 00068=
0088997270999992024010813004+39350-074420FM-13+001099999V02099999999999999999N999999999+00421+99999102461ADDMD1110401+9999SA1+0671REMSYN054ACYN4 46/// ///// 10042 40246 51040 91300 222// 00067=
0088997270999992024010814004+39350-074420FM-13+001099999V02099999999999999999N999999999+00531+99999102661ADDMD1310461+9999SA1+0671REMSYN054ACYN4 46/// ///// 10053 40266 53046 91400 222// 00067=
0088997270999992024010815004+39350-074420FM-13+001099999V02099999999999999999N999999999+00541+99999102801ADDMD1310431+9999SA1+0681REMSYN054ACYN4 46/// ///// 10054 40280 53043 91500 222// 00068=
0088997270999992024010816004+39350-074420FM-13+001099999V02099999999999999999N999999999+00591+99999102791ADDMD1110331+9999SA1+0681REMSYN054ACYN4 46/// ///// 10059 40279 51033 91600 222// 00068=
0088997270999992024010817004+39350-074420FM-13+001099999V02099999999999999999N999999999+00621+99999102721ADDMD1990061+9999SA1+0691REMSYN054ACYN4 46/// ///// 10062 40272 50006 91700 222// 00069=
0088997270999992024010818004+39350-074420FM-13+001099999V02099999999999999999N999999999+00651+99999102721ADDMD1710081+9999SA1+0691REMSYN054ACYN4 46/// ///// 10065 40272 57008 91800 222// 00069=
0088997270999992024010819004+39350-074420FM-13+001099999V02099999999999999999N999999999+00711+99999102731ADDMD1610061+9999SA1+0661REMSYN054ACYN4 46/// ///// 10071 40273 56006 91900 222// 00066=
0088997270999992024010820004+39350-074420FM-13+001099999V02099999999999999999N999999999+00731+99999102771ADDMD1310051+9999SA1+0671REMSYN054ACYN4 46/// ///// 10073 40277 53005 92000 222// 00067=
0088997270999992024010821004+39350-074420FM-13+001099999V02099999999999999999N999999999+00651+99999102831ADDMD1310111+9999SA1+0691REMSYN054ACYN4 46/// ///// 10065 40283 53011 92100 222// 00069=
0088997270999992024010822004+39350-074420FM-13+001099999V02099999999999999999N999999999+00601+99999102881ADDMD1310151+9999SA1+0691REMSYN054ACYN4 46/// ///// 10060 40288 53015 92200 222// 00069=
0088997270999992024010823004+39350-074420FM-13+001099999V02099999999999999999N999999999+99999+99999102971ADDMD1310201+9999SA1+0691REMSYN054ACYN4 46/// ///// 1//// 40297 53020 92300 222// 00069=
0088997270999992024010900004+39350-074420FM-13+001099999V02099999999999999999N999999999+00621+99999102991ADDMD1110161+9999SA1+0691REMSYN054ACYN4 46/// ///// 10062 40299 51016 90000 222// 00069=
0088997270999992024010901004+39350-074420FM-13+001099999V02099999999999999999N999999999+00631+99999102971ADDMD1110091+9999SA1+0681REMSYN054ACYN4 46/// ///// 10063 40297 51009 90100 222// 00068=
0088997270999992024010902004+39350-074420FM-13+001099999V02099999999999999999N999999999+00621+99999102911ADDMD1810061+9999SA1+0681REMSYN054ACYN4 46/// ///// 10062 40291 58006 90200 222// 00068=
0088997270999992024010903004+39350-074420FM-13+001099999V02099999999999999999N999999999+00621+99999102851ADDMD1810141+9999SA1+0681REMSYN054ACYN4 46/// ///// 10062 40285 58014 90300 222// 00068=
0088997270999992024010904004+39350-074420FM-13+001099999V02099999999999999999N999999999+00621+99999102811ADDMD1610161+9999SA1+0671REMSYN054ACYN4 46/// ///// 10062 40281 56016 90400 222// 00067=
0088997270999992024010905004+39350-074420FM-13+001099999V02099999999999999999N999999999+00631+99999102881ADDMD1510031+9999SA1+0671REMSYN054ACYN4 46/// ///// 10063 40288 55003 90500 222// 00067=
0088997270999992024010906004+39350-074420FM-13+001099999V02099999999999999999N999999999+00611+99999102821ADDMD1810031+9999SA1+0671REMSYN054ACYN4 46/// ///// 10061 40282 58003 90600 222// 00067=
0088997270999992024010907004+39350-074420FM-13+001099999V02099999999999999999N999999999+00611+99999102781ADDMD1810031+9999SA1+0671REMSYN054ACYN4 46/// ///// 10061 40278 58003 90700 222// 00067=
0088997270999992024010908004+39350-074420FM-13+001099999V02099999999999999999N999999999+00641+99999102751ADDMD1610131+9999SA1+0661REMSYN054ACYN4 46/// ///// 10064 40275 56013 90800 222// 00066=
0088997270999992024010909004+39350-074420FM-13+001099999V02099999999999999999N999999999+00651+99999102681ADDMD1810141+9999SA1+0671REMSYN054ACYN4 46/// ///// 10065 40268 58014 90900 222// 00067=
0088997270999992024010910004+39350-074420FM-13+001099999V02099999999999999999N999999999+00661+99999102621ADDMD1810161+9999SA1+0661REMSYN054ACYN4 46/// ///// 10066 40262 58016 91000 222// 00066=
0088997270999992024010911004+39350-074420FM-13+001099999V02099999999999999999N999999999+99999+99999102551ADDMD1710201+9999SA1+0661REMSYN054ACYN4 46/// ///// 1//// 40255 57020 91100 222// 00066=
0088997270999992024010912004+39350-074420FM-13+001099999V02099999999999999999N999999999+00691+99999102401ADDMD1810281+9999SA1+0661REMSYN054ACYN4 46/// ///// 10069 40240 58028 91200 222// 00066=
0088997270999992024010913004+39350-074420FM-13+001099999V02099999999999999999N999999999+00721+99999102401ADDMD1610221+9999SA1+0651REMSYN054ACYN4 46/// ///// 10072 40240 56022 91300 222// 00065=
0088997270999992024010914004+39350-074420FM-13+001099999V02099999999999999999N999999999+00751+99999102381ADDMD1610171+9999SA1+0651REMSYN054ACYN4 46/// ///// 10075 40238 56017 91400 222// 00065=
0088997270999992024010915004+39350-074420FM-13+001099999V02099999999999999999N999999999+00781+99999102211ADDMD1810191+9999SA1+0651REMSYN054ACYN4 46/// ///// 10078 40221 58019 91500 222// 00065=
0088997270999992024010916004+39350-074420FM-13+001099999V02099999999999999999N999999999+00841+99999101951ADDMD1810451+9999SA1+0661REMSYN054ACYN4 46/// ///// 10084 40195 58045 91600 222// 00066=
0088997270999992024010917004+39350-074420FM-13+001099999V02099999999999999999N999999999+00861+99999101731ADDMD1810651+9999SA1+0661REMSYN054ACYN4 46/// ///// 10086 40173 58065 91700 222// 00066=
0088997270999992024010918004+39350-074420FM-13+001099999V02099999999999999999N999999999+00891+99999101501ADDMD1610711+9999SA1+0671REMSYN054ACYN4 46/// ///// 10089 40150 56071 91800 222// 00067=
0088997270999992024010919004+39350-074420FM-13+001099999V02099999999999999999N999999999+00951+99999101271ADDMD1810681+9999SA1+0671REMSYN054ACYN4 46/// ///// 10095 40127 58068 91900 222// 00067=
0088997270999992024010920004+39350-074420FM-13+001099999V02099999999999999999N999999999+00981+99999100951ADDMD1810781+9999SA1+0651REMSYN054ACYN4 46/// ///// 10098 40095 58078 92000 222// 00065=
0088997270999992024010921004+39350-074420FM-13+001099999V02099999999999999999N999999999+01101+99999100681ADDMD1810821+9999SA1+0671REMSYN054ACYN4 46/// ///// 10110 40068 58082 92100 222// 00067=
0088997270999992024010922004+39350-074420FM-13+001099999V02099999999999999999N999999999+01141+99999100391ADDMD1610881+9999SA1+0671REMSYN054ACYN4 46/// ///// 10114 40039 56088 92200 222// 00067=
0088997270999992024010923004+39350-074420FM-13+001099999V02099999999999999999N999999999+01121+99999100131ADDMD1610821+9999SA1+0681REMSYN054ACYN4 46/// ///// 10112 40013 56082 92300 222// 00068=
0088997270999992024011000004+39350-074420FM-13+001099999V02099999999999999999N999999999+01221+99999099761ADDMD1810921+9999SA1+0671REMSYN054ACYN4 46/// ///// 10122 49976 58092 90000 222// 00067=
0088997270999992024011001004+39350-074420FM-13+001099999V02099999999999999999N999999999+01271+99999099521ADDMD1610871+9999SA1+0671REMSYN054ACYN4 46/// ///// 10127 49952 56087 90100 222// 00067=
0088997270999992024011002004+39350-074420FM-13+001099999V02099999999999999999N999999999+01281+99999099221ADDMD1610911+9999SA1+0681REMSYN054ACYN4 46/// ///// 10128 49922 56091 90200 222// 00068=
0088997270999992024011003004+39350-074420FM-13+001099999V02099999999999999999N999999999+01291+99999098941ADDMD1810821+9999SA1+0691REMSYN054ACYN4 46/// ///// 10129 49894 58082 90300 222// 00069=
0088997270999992024011004004+39350-074420FM-13+001099999V02099999999999999999N999999999+01271+99999098911ADDMD1610611+9999SA1+0691REMSYN054ACYN4 46/// ///// 10127 49891 56061 90400 222// 00069=
0088997270999992024011005004+39350-074420FM-13+001099999V02099999999999999999N999999999+01171+99999098721ADDMD1610501+9999SA1+0701REMSYN054ACYN4 46/// ///// 10117 49872 56050 90500 222// 00070=
0088997270999992024011006004+39350-074420FM-13+001099999V02099999999999999999N999999999+01171+99999098381ADDMD1810561+9999SA1+0721REMSYN054ACYN4 46/// ///// 10117 49838 58056 90600 222// 00072=
0088997270999992024011007004+39350-074420FM-13+001099999V02099999999999999999N999999999+01121+99999098362ADDMD1610551+9999SA1+0711REMSYN054ACYN4 46/// ///// 10112 49836 56055 90700 222// 00071=
0088997270999992024011008004+39350-074420FM-13+001099999V02099999999999999999N999999999+01021+99999098372ADDMD1610351+9999SA1+0711REMSYN054ACYN4 46/// ///// 10102 49837 56035 90800 222// 00071=
0088997270999992024011009004+39350-074420FM-13+001099999V02099999999999999999N999999999+01011+99999098382ADDMD1410001+9999SA1+0741REMSYN054ACYN4 46/// ///// 10101 49838 54000 90900 222// 00074=
0088997270999992024011010004+39350-074420FM-13+001099999V02099999999999999999N999999999+01051+99999098481ADDMD1310121+9999SA1+0741REMSYN054ACYN4 46/// ///// 10105 49848 53012 91000 222// 00074=
0088997270999992024011011004+39350-074420FM-13+001099999V02099999999999999999N999999999+01001+99999098571ADDMD1310201+9999SA1+0741REMSYN054ACYN4 46/// ///// 10100 49857 53020 91100 222// 00074=
0088997270999992024011012004+39350-074420FM-13+001099999V02099999999999999999N999999999+00861+99999098771ADDMD1310391+9999SA1+0731REMSYN054ACYN4 46/// ///// 10086 49877 53039 91200 222// 00073=
0088997270999992024011013004+39350-074420FM-13+001099999V02099999999999999999N999999999+00741+99999098981ADDMD1310501+9999SA1+0731REMSYN054ACYN4 46/// ///// 10074 49898 53050 91300 222// 00073=
0088997270999992024011014004+39350-074420FM-13+001099999V02099999999999999999N999999999+00751+99999099071ADDMD1110501+9999SA1+0731REMSYN054ACYN4 46/// ///// 10075 49907 51050 91400 222// 00073=
0088997270999992024011015004+39350-074420FM-13+001099999V02099999999999999999N999999999+00801+99999099261ADDMD1110491+9999SA1+0731REMSYN054ACYN4 46/// ///// 10080 49926 51049 91500 222// 00073=
0088997270999992024011016004+39350-074420FM-13+001099999V02099999999999999999N999999999+00951+99999099301ADDMD1110321+9999SA1+0731REMSYN054ACYN4 46/// ///// 10095 49930 51032 91600 222// 00073=
0088997270999992024011017004+39350-074420FM-13+001099999V02099999999999999999N999999999+99999+99999099351ADDMD1110281+9999SA1+0741REMSYN054ACYN4 46/// ///// 1//// 49935 51028 91700 222// 00074=
0088997270999992024011018004+39350-074420FM-13+001099999V02099999999999999999N999999999+00991+99999099501ADDMD1310241+9999SA1+0731REMSYN054ACYN4 46/// ///// 10099 49950 53024 91800 222// 00073=
0088997270999992024011019004+39350-074420FM-13+001099999V02099999999999999999N999999999+00971+99999099621ADDMD1310321+9999SA1+0741REMSYN054ACYN4 46/// ///// 10097 49962 53032 91900 222// 00074=
0088997270999992024011020004+39350-074420FM-13+001099999V02099999999999999999N999999999+01001+99999099691ADDMD1110341+9999SA1+0751REMSYN054ACYN4 46/// ///// 10100 49969 51034 92000 222// 00075=
0088997270999992024011021004+39350-074420FM-13+001099999V02099999999999999999N999999999+00981+99999099841ADDMD1310341+9999SA1+0741REMSYN054ACYN4 46/// ///// 10098 49984 53034 92100 222// 00074=
0088997270999992024011022004+39350-074420FM-13+001099999V02099999999999999999N999999999+00901+99999100031ADDMD1310411+9999SA1+0741REMSYN054ACYN4 46/// ///// 10090 40003 53041 92200 222// 00074=
0088997270999992024011023004+39350-074420FM-13+001099999V02099999999999999999N999999999+00851+99999100171ADDMD1110481+9999SA1+0741REMSYN054ACYN4 46/// ///// 10085 40017 51048 92300 222// 00074=
0088997270999992024011100004+39350-074420FM-13+001099999V02099999999999999999N999999999+00801+99999100291ADDMD1110451+9999SA1+0731REMSYN054ACYN4 46/// ///// 10080 40029 51045 90000 222// 00073=
0088997270999992024011101004+39350-074420FM-13+001099999V02099999999999999999N999999999+00781+99999100361ADDMD1110331+9999SA1+0731REMSYN054ACYN4 46/// ///// 10078 40036 51033 90100 222// 00073=
0088997270999992024011102004+39350-074420FM-13+001099999V02099999999999999999N999999999+00741+99999100421ADDMD1110251+9999SA1+0751REMSYN054ACYN4 46/// ///// 10074 40042 51025 90200 222// 00075=
0088997270999992024011103004+39350-074420FM-13+001099999V02099999999999999999N999999999+00711+99999100511ADDMD1310221+9999SA1+0751REMSYN054ACYN4 46/// ///// 10071 40051 53022 90300 222// 00075=
0088997270999992024011104004+39350-074420FM-13+001099999V02099999999999999999N999999999+00691+99999100561ADDMD1110201+9999SA1+0731REMSYN054ACYN4 46/// ///// 10069 40056 51020 90400 222// 00073=
0088997270999992024011105004+39350-074420FM-13+001099999V02099999999999999999N999999999+00701+99999100611ADDMD1110191+9999SA1+0721REMSYN054ACYN4 46/// ///// 10070 40061 51019 90500 222// 00072=
0088997270999992024011106004+39350-074420FM-13+001099999V02099999999999999999N999999999+00621+99999100641ADDMD1110131+9999SA1+0721REMSYN054ACYN4 46/// ///// 10062 40064 51013 90600 222// 00072=
0088997270999992024011107004+39350-074420FM-13+001099999V02099999999999999999N999999999+00561+99999100721ADDMD1310161+9999SA1+0731REMSYN054ACYN4 46/// ///// 10056 40072 53016 90700 222// 00073=
0088997270999992024011108004+39350-074420FM-13+001099999V02099999999999999999N999999999+00561+99999100801ADDMD1310191+9999SA1+0741REMSYN054ACYN4 46/// ///// 10056 40080 53019 90800 222// 00074=
0088997270999992024011109004+39350-074420FM-13+001099999V02099999999999999999N999999999+00511+99999100841ADDMD1110201+9999SA1+0751REMSYN054ACYN4 46/// ///// 10051 40084 51020 90900 222// 00075=
0088997270999992024011110004+39350-074420FM-13+001099999V02099999999999999999N999999999+00471+99999100861ADDMD1110141+9999SA1+0751REMSYN054ACYN4 46/// ///// 10047 40086 51014 91000 222// 00075=
0088997270999992024011111004+39350-074420FM-13+001099999V02099999999999999999N999999999+99999+99999100911ADDMD1310111+9999SA1+0771REMSYN054ACYN4 46/// ///// 1//// 40091 53011 91100 222// 00077=
0088997270999992024011112004+39350-074420FM-13+001099999V02099999999999999999N999999999+00421+99999101001ADDMD1310161+9999SA1+0791REMSYN054ACYN4 46/// ///// 10042 40100 53016 91200 222// 00079=
0088997270999992024011113004+39350-074420FM-13+001099999V02099999999999999999N999999999+00511+99999101081ADDMD1310221+9999SA1+0791REMSYN054ACYN4 46/// ///// 10051 40108 53022 91300 222// 00079=
0088997270999992024011114004+39350-074420FM-13+001099999V02099999999999999999N999999999+00791+99999101141ADDMD1110231+9999SA1+0791REMSYN054ACYN4 46/// ///// 10079 40114 51023 91400 222// 00079=
0088997270999992024011115004+39350-074420FM-13+001099999V02099999999999999999N999999999+00721+99999101171ADDMD1110171+9999SA1+0791REMSYN054ACYN4 46/// ///// 10072 40117 51017 91500 222// 00079=
0088997270999992024011116004+39350-074420FM-13+001099999V02099999999999999999N999999999+00701+99999101121ADDMD1990041+9999SA1+0801REMSYN054ACYN4 46/// ///// 10070 40112 50004 91600 222// 00080=
0088997270999992024011117004+39350-074420FM-13+001099999V02099999999999999999N999999999+00761+99999101011ADDMD1810131+9999SA1+0811REMSYN054ACYN4 46/// ///// 10076 40101 58013 91700 222// 00081=
0088997270999992024011118004+39350-074420FM-13+001099999V02099999999999999999N999999999+00681+99999100951ADDMD1810221+9999SA1+0811REMSYN054ACYN4 46/// ///// 10068 40095 58022 91800 222// 00081=
0088997270999992024011119004+39350-074420FM-13+001099999V02099999999999999999N999999999+00741+99999100911ADDMD1610211+9999SA1+0821REMSYN054ACYN4 46/// ///// 10074 40091 56021 91900 222// 00082=
0088997270999992024011120004+39350-074420FM-13+001099999V02099999999999999999N999999999+99999+99999100941ADDMD1510071+9999SA1+0821REMSYN054ACYN4 46/// ///// 1//// 40094 55007 92000 222// 00082=
0088997270999992024011121004+39350-074420FM-13+001099999V02099999999999999999N999999999+00651+99999101011ADDMD1310061+9999SA1+0821REMSYN054ACYN4 46/// ///// 10065 40101 53006 92100 222// 00082=
0088997270999992024011122004+39350-074420FM-13+001099999V02099999999999999999N999999999+00671+99999101101ADDMD1310191+9999SA1+0811REMSYN054ACYN4 46/// ///// 10067 40110 53019 92200 222// 00081=
0088997270999992024011123004+39350-074420FM-13+001099999V02099999999999999999N999999999+99999+99999101211ADDMD1310271+9999SA1+0811REMSYN054ACYN4 46/// ///// 1//// 40121 53027 92300 222// 00081=
0088997270999992024011200004+39350-074420FM-13+001099999V02099999999999999999N999999999+00731+99999101281ADDMD1110271+9999SA1+0801REMSYN054ACYN4 46/// ///// 10073 40128 51027 90000 222// 00080=
0068997270999992024011201004+39350-074420FM-13+001099999V02099999999999999999N999999999+00691+99999101341ADDSA1+0801REMSYN048ACYN4 46/// ///// 10069 40134 90048 222// 00080=
0088997270999992024011202004+39350-074420FM-13+001099999V02099999999999999999N999999999+00671+99999101361ADDMD1210151+9999SA1+0801REMSYN054ACYN4 46/// ///// 10067 40136 52015 90200 222// 00080=
0088997270999992024011203004+39350-074420FM-13+001099999V02099999999999999999N999999999+00701+99999101411ADDMD1210131+9999SA1+0811REMSYN054ACYN4 46/// ///// 10070 40141 52013 90300 222// 00081=
0068997270999992024011204004+39350-074420FM-13+001099999V02099999999999999999N999999999+00721+99999101461ADDSA1+0801REMSYN048ACYN4 46/// ///// 10072 40146 90336 222// 00080=
0088997270999992024011205004+39350-074420FM-13+001099999V02099999999999999999N999999999+00731+99999101551ADDMD1310191+9999SA1+0801REMSYN054ACYN4 46/// ///// 10073 40155 53019 90500 222// 00080=
0088997270999992024011206004+39350-074420FM-13+001099999V02099999999999999999N999999999+99999+99999101661ADDMD1310251+9999SA1+0791REMSYN054ACYN4 46/// ///// 1//// 40166 53025 90600 222// 00079=
0088997270999992024011207004+39350-074420FM-13+001099999V02099999999999999999N999999999+00461+99999101781ADDMD1310291+9999SA1+0801REMSYN054ACYN4 46/// ///// 10046 40178 53029 90700 222// 00080=
0088997270999992024011208004+39350-074420FM-13+001099999V02099999999999999999N999999999+00501+99999101881ADDMD1110331+9999SA1+0801REMSYN054ACYN4 46/// ///// 10050 40188 51033 90800 222// 00080=
0088997270999992024011209004+39350-074420FM-13+001099999V02099999999999999999N999999999+00551+99999101891ADDMD1110231+9999SA1+0801REMSYN054ACYN4 46/// ///// 10055 40189 51023 90900 222// 00080=
0088997270999992024011210004+39350-074420FM-13+001099999V02099999999999999999N999999999+00551+99999101901ADDMD1110121+9999SA1+0771REMSYN054ACYN4 46/// ///// 10055 40190 51012 91000 222// 00077=
0088997270999992024011211004+39350-074420FM-13+001099999V02099999999999999999N999999999+00491+99999101891ADDMD1410001+9999SA1+0791REMSYN054ACYN4 46/// ///// 10049 40189 54000 91100 222// 00079=
0088997270999992024011212004+39350-074420FM-13+001099999V02099999999999999999N999999999+00481+99999101951ADDMD1310061+9999SA1+0801REMSYN054ACYN4 46/// ///// 10048 40195 53006 91200 222// 00080=
0088997270999992024011213004+39350-074420FM-13+001099999V02099999999999999999N999999999+00611+99999102061ADDMD1310161+9999SA1+0831REMSYN054ACYN4 46/// ///// 10061 40206 53016 91300 222// 00083=
0088997270999992024011214004+39350-074420FM-13+001099999V02099999999999999999N999999999+00721+99999102131ADDMD1310241+9999SA1+0841REMSYN054ACYN4 46/// ///// 10072 40213 53024 91400 222// 00084=
0088997270999992024011215004+39350-074420FM-13+001099999V02099999999999999999N999999999+00641+99999102131ADDMD1110181+9999SA1+0841REMSYN054ACYN4 46/// ///// 10064 40213 51018 91500 222// 00084=
0088997270999992024011216004+39350-074420FM-13+001099999V02099999999999999999N999999999+00611+99999102111ADDMD1110051+9999SA1+0791REMSYN054ACYN4 46/// ///// 10061 40211 51005 91600 222// 00079=
0088997270999992024011217004+39350-074420FM-13+001099999V02099999999999999999N999999999+00621+99999102011ADDMD1810121+9999SA1+0821REMSYN054ACYN4 46/// ///// 10062 40201 58012 91700 222// 00082=
0088997270999992024011218004+39350-074420FM-13+001099999V02099999999999999999N999999999+00681+99999101871ADDMD1810261+9999SA1+0811REMSYN054ACYN4 46/// ///// 10068 40187 58026 91800 222// 00081=
0088997270999992024011219004+39350-074420FM-13+001099999V02099999999999999999N999999999+00731+99999101781ADDMD1610331+9999SA1+0811REMSYN054ACYN4 46/// ///// 10073 40178 56033 91900 222// 00081=
0088997270999992024011220004+39350-074420FM-13+001099999V02099999999999999999N999999999+00801+99999101781ADDMD1610231+9999SA1+0811REMSYN054ACYN4 46/// ///// 10080 40178 56023 92000 222// 00081=
0088997270999992024011221004+39350-074420FM-13+001099999V02099999999999999999N999999999+00811+99999101601ADDMD1810271+9999SA1+0821REMSYN054ACYN4 46/// ///// 10081 40160 58027 92100 222// 00082=
0088997270999992024011222004+39350-074420FM-13+001099999V02099999999999999999N999999999+00821+99999101421ADDMD1810361+9999SA1+0821REMSYN054ACYN4 46/// ///// 10082 40142 58036 92200 222// 00082=
0088997270999992024011223004+39350-074420FM-13+001099999V02099999999999999999N999999999+00851+99999101181ADDMD1810601+9999SA1+0811REMSYN054ACYN4 46/// ///// 10085 40118 58060 92300 222// 00081=
0088997270999992024011300004+39350-074420FM-13+001099999V02099999999999999999N999999999+99999+99999101141ADDMD1610461+9999SA1+0811REMSYN054ACYN4 46/// ///// 1//// 40114 56046 90000 222// 00081=
0088997270999992024011301004+39350-074420FM-13+001099999V02099999999999999999N999999999+00921+99999100871ADDMD1810551+9999SA1+0801REMSYN054ACYN4 46/// ///// 10092 40087 58055 90100 222// 00080=
0088997270999992024011302004+39350-074420FM-13+001099999V02099999999999999999N999999999+00981+99999100571ADDMD1810611+9999SA1+0811REMSYN054ACYN4 46/// ///// 10098 40057 58061 90200 222// 00081=
0088997270999992024011303004+39350-074420FM-13+001099999V02099999999999999999N999999999+01031+99999100481ADDMD1610661+9999SA1+0801REMSYN054ACYN4 46/// ///// 10103 40048 56066 90300 222// 00080=
0068997270999992024011304004+39350-074420FM-13+001099999V02099999999999999999N999999999+01021+99999100351ADDSA1+0801REMSYN048ACYN4 46/// ///// 10102 40035 90336 222// 00080=
0088997270999992024011305004+39350-074420FM-13+001099999V02099999999999999999N999999999+01101+99999099811ADDMD1810761+9999SA1+0811REMSYN054ACYN4 46/// ///// 10110 49981 58076 90500 222// 00081=
0088997270999992024011306004+39350-074420FM-13+001099999V02099999999999999999N999999999+01161+99999099531ADDMD1610951+9999SA1+0821REMSYN054ACYN4 46/// ///// 10116 49953 56095 90600 222// 00082=
0088997270999992024011307004+39350-074420FM-13+001099999V02099999999999999999N999999999+01221+99999099301ADDMD1610891+9999SA1+0821REMSYN054ACYN4 46/// ///// 10122 49930 56089 90700 222// 00082=
0088997270999992024011308004+39350-074420FM-13+001099999V02099999999999999999N999999999+01151+99999099331ADDMD1510481+9999SA1+0821REMSYN054ACYN4 46/// ///// 10115 49933 55048 90800 222// 00082=
0045997270999992024011309004+39350-074420FM-13+001099999V02099999999999999999N999999999+99999+99999099181REMSYN036ACYN4 46/// ///// 1//// 49918 90842=
0088997270999992024011310004+39350-074420FM-13+001099999V02099999999999999999N999999999+01141+99999099031ADDMD1810271+9999SA1+0831REMSYN054ACYN4 46/// ///// 10114 49903 58027 91000 222// 00083=
0088997270999992024011311004+39350-074420FM-13+001099999V02099999999999999999N999999999+99999+99999098971ADDMD1610361+9999SA1+0821REMSYN054ACYN4 46/// ///// 1//// 49897 56036 91100 222// 00082=
0068997270999992024011312004+39350-074420FM-13+001099999V02099999999999999999N999999999+99999+99999098951ADDSA1+0821REMSYN048ACYN4 46/// ///// 1//// 49895 91136 222// 00082=
0088997270999992024011313004+39350-074420FM-13+001099999V02099999999999999999N999999999+01021+99999098891ADDMD1610141+9999SA1+0821REMSYN054ACYN4 46/// ///// 10102 49889 56014 91300 222// 00082=
0088997270999992024011314004+39350-074420FM-13+001099999V02099999999999999999N999999999+99999+99999098991ADDMD1510001+9999SA1+0821REMSYN054ACYN4 46/// ///// 1//// 49899 55000 91400 222// 00082=
0088997270999992024011315004+39350-074420FM-13+001099999V02099999999999999999N999999999+99999+99999099031ADDMD1310131+9999SA1+0821REMSYN054ACYN4 46/// ///// 1//// 49903 53013 91500 222// 00082=
0088997270999992024011316004+39350-074420FM-13+001099999V02099999999999999999N999999999+01261+99999099041ADDMD1110151+9999SA1+0821REMSYN054ACYN4 46/// ///// 10126 49904 51015 91600 222// 00082=
0088997270999992024011317004+39350-074420FM-13+001099999V02099999999999999999N999999999+99999+99999099001ADDMD1990001+9999SA1+0821REMSYN054ACYN4 46/// ///// 1//// 49900 50000 91700 222// 00082=
0088997270999992024011318004+39350-074420FM-13+001099999V02099999999999999999N999999999+01071+99999099141ADDMD1310111+9999SA1+0831REMSYN054ACYN4 46/// ///// 10107 49914 53011 91800 222// 00083=
0088997270999992024011319004+39350-074420FM-13+001099999V02099999999999999999N999999999+00951+99999099281ADDMD1310241+9999SA1+0841REMSYN054ACYN4 46/// ///// 10095 49928 53024 91900 222// 00084=
0088997270999992024011320004+39350-074420FM-13+001099999V02099999999999999999N999999999+00971+99999099451ADDMD1310451+9999SA1+0841REMSYN054ACYN4 46/// ///// 10097 49945 53045 92000 222// 00084=
0068997270999992024011321004+39350-074420FM-13+001099999V02099999999999999999N999999999+00951+99999099581ADDSA1+0851REMSYN048ACYN4 46/// ///// 10095 49958 92048 222// 00085=
0088997270999992024011322004+39350-074420FM-13+001099999V02099999999999999999N999999999+00811+99999099841ADDMD1210561+9999SA1+0841REMSYN054ACYN4 46/// ///// 10081 49984 52056 92200 222// 00084=
0088997270999992024011323004+39350-074420FM-13+001099999V02099999999999999999N999999999+00701+99999100041ADDMD1210591+9999SA1+0831REMSYN054ACYN4 46/// ///// 10070 40004 52059 92300 222// 00083=
0068997270999992024011400004+39350-074420FM-13+001099999V02099999999999999999N999999999+99999+99999100161ADDSA1+0821REMSYN048ACYN4 46/// ///// 1//// 40016 92342 222// 00082=
0088997270999992024011401004+39350-074420FM-13+001099999V02099999999999999999N999999999+00461+99999100401ADDMD1110561+9999SA1+0791REMSYN054ACYN4 46/// ///// 10046 40040 51056 90100 222// 00079=
0088997270999992024011402004+39350-074420FM-13+001099999V02099999999999999999N999999999+99999+99999100571ADDMD1110531+9999SA1+0781REMSYN054ACYN4 46/// ///// 1//// 40057 51053 90200 222// 00078=
0088997270999992024011403004+39350-074420FM-13+001099999V02099999999999999999N999999999+00321+99999100681ADDMD1110451+9999SA1+0761REMSYN054ACYN4 46/// ///// 10032 40068 51045 90300 222// 00076=
0088997270999992024011404004+39350-074420FM-13+001099999V02099999999999999999N999999999+00291+99999100771ADDMD1110371+9999SA1+0751REMSYN054ACYN4 46/// ///// 10029 40077 51037 90400 222// 00075=
0088997270999992024011405004+39350-074420FM-13+001099999V02099999999999999999N999999999+00251+99999100871ADDMD1110301+9999SA1+0741REMSYN054ACYN4 46/// ///// 10025 40087 51030 90500 222// 00074=
0088997270999992024011406004+39350-074420FM-13+001099999V02099999999999999999N999999999+00231+99999100961ADDMD1210281+9999SA1+0731REMSYN054ACYN4 46/// ///// 10023 40096 52028 90600 222// 00073=
0088997270999992024011407004+39350-074420FM-13+001099999V02099999999999999999N999999999+99999+99999101031ADDMD1110261+9999SA1+0711REMSYN054ACYN4 46/// ///// 1//// 40103 51026 90700 222// 00071=
0088997270999992024011408004+39350-074420FM-13+001099999V02099999999999999999N999999999+00181+99999101091ADDMD1110221+9999SA1+0711REMSYN054ACYN4 46/// ///// 10018 40109 51022 90800 222// 00071=
0088997270999992024011409004+39350-074420FM-13+001099999V02099999999999999999N999999999+00161+99999101161ADDMD1210201+9999SA1+0701REMSYN054ACYN4 46/// ///// 10016 40116 52020 90900 222// 00070=
0088997270999992024011410004+39350-074420FM-13+001099999V02099999999999999999N999999999+00141+99999101201ADDMD1110171+9999SA1+0701REMSYN054ACYN4 46/// ///// 10014 40120 51017 91000 222// 00070=
0088997270999992024011411004+39350-074420FM-13+001099999V02099999999999999999N999999999+99999+99999101271ADDMD1210181+9999SA1+0711REMSYN054ACYN4 46/// ///// 1//// 40127 52018 91100 222// 00071=
0088997270999992024011412004+39350-074420FM-13+001099999V02099999999999999999N999999999+99999+99999101291ADDMD1110131+9999SA1+0711REMSYN054ACYN4 46/// ///// 1//// 40129 51013 91200 222// 00071=
0088997270999992024011413004+39350-074420FM-13+001099999V02099999999999999999N999999999+00361+99999101191ADDMD1990001+9999SA1+0701REMSYN054ACYN4 46/// ///// 10036 40119 50000 91300 222// 00070=
0088997270999992024011414004+39350-074420FM-13+001099999V02099999999999999999N999999999+00451+99999101171ADDMD1710101+9999SA1+0691REMSYN054ACYN4 46/// ///// 10045 40117 57010 91400 222// 00069=
0088997270999992024011415004+39350-074420FM-13+001099999V02099999999999999999N999999999+00551+99999101111ADDMD1610181+9999SA1+0671REMSYN054ACYN4 46/// ///// 10055 40111 56018 91500 222// 00067=
0088997270999992024011416004+39350-074420FM-13+001099999V02099999999999999999N999999999+00591+99999100951ADDMD1810241+9999SA1+0691REMSYN054ACYN4 46/// ///// 10059 40095 58024 91600 222// 00069=
0088997270999992024011417004+39350-074420FM-13+001099999V02099999999999999999N999999999+00651+99999100811ADDMD1810361+9999SA1+0721REMSYN054ACYN4 46/// ///// 10065 40081 58036 91700 222// 00072=
0088997270999992024011418004+39350-074420FM-13+001099999V02099999999999999999N999999999+00861+99999100731ADDMD1610381+9999SA1+0721REMSYN054ACYN4 46/// ///// 10086 40073 56038 91800 222// 00072=
0088997270999992024011419004+39350-074420FM-13+001099999V02099999999999999999N999999999+00941+99999100791ADDMD1510161+9999SA1+0741REMSYN054ACYN4 46/// ///// 10094 40079 55016 91900 222// 00074=
0088997270999992024011420004+39350-074420FM-13+001099999V02099999999999999999N999999999+00431+99999101121ADDMD1310311+9999SA1+0751REMSYN054ACYN4 46/// ///// 10043 40112 53031 92000 222// 00075=
0068997270999992024011421004+39350-074420FM-13+001099999V02099999999999999999N999999999+00401+99999101171ADDSA1+0751REMSYN048ACYN4 46/// ///// 10040 40117 92042 222// 00075=
0088997270999992024011422004+39350-074420FM-13+001099999V02099999999999999999N999999999+00491+99999101321ADDMD1210531+9999SA1+0731REMSYN054ACYN4 46/// ///// 10049 40132 52053 92200 222// 00073=
0088997270999992024011423004+39350-074420FM-13+001099999V02099999999999999999N999999999+00321+99999101611ADDMD1210491+9999SA1+0731REMSYN054ACYN4 46/// ///// 10032 40161 52049 92300 222// 00073=
0068997270999992024011500004+39350-074420FM-13+001099999V02099999999999999999N999999999+00211+99999101731ADDSA1+0731REMSYN048ACYN4 46/// ///// 10021 40173 92348 222// 00073=
0088997270999992024011501004+39350-074420FM-13+001099999V02099999999999999999N999999999+99999+99999101861ADDMD1110541+9999SA1+0711REMSYN054ACYN4 46/// ///// 1//// 40186 51054 90100 222// 00071=
0088997270999992024011502004+39350-074420FM-13+001099999V02099999999999999999N999999999+00021+99999101941ADDMD1110331+9999SA1+0701REMSYN054ACYN4 46/// ///// 10002 40194 51033 90200 222// 00070=
0088997270999992024011503004+39350-074420FM-13+001099999V02099999999999999999N999999999-00031+99999101961ADDMD1110211+9999SA1+0681REMSYN054ACYN4 46/// ///// 11003 40196 51021 90300 222// 00068=
0088997270999992024011504004+39350-074420FM-13+001099999V02099999999999999999N999999999-00081+99999101991ADDMD1110131+9999SA1+0671REMSYN054ACYN4 46/// ///// 11008 40199 51013 90400 222// 00067=
0088997270999992024011505004+39350-074420FM-13+001099999V02099999999999999999N999999999-00101+99999102041ADDMD1310101+9999SA1+0661REMSYN054ACYN4 46/// ///// 11010 40204 53010 90500 222// 00066=
0088997270999992024011506004+39350-074420FM-13+001099999V02099999999999999999N999999999-00101+99999102081ADDMD1310121+9999SA1+0651REMSYN054ACYN4 46/// ///// 11010 40208 53012 90600 222// 00065=
0088997270999992024011507004+39350-074420FM-13+001099999V02099999999999999999N999999999-00141+99999102151ADDMD1310161+9999SA1+0661REMSYN054ACYN4 46/// ///// 11014 40215 53016 90700 222// 00066=
0088997270999992024011508004+39350-074420FM-13+001099999V02099999999999999999N999999999-00141+99999102221ADDMD1310181+9999SA1+0651REMSYN054ACYN4 46/// ///// 11014 40222 53018 90800 222// 00065=
0088997270999992024011509004+39350-074420FM-13+001099999V02099999999999999999N999999999-00151+99999102251ADDMD1110171+9999SA1+0661REMSYN054ACYN4 46/// ///// 11015 40225 51017 90900 222// 00066=
0088997270999992024011510004+39350-074420FM-13+001099999V02099999999999999999N999999999-00161+99999102261ADDMD1110111+9999SA1+0671REMSYN054ACYN4 46/// ///// 11016 40226 51011 91000 222// 00067=
0088997270999992024011511004+39350-074420FM-13+001099999V02099999999999999999N999999999-00181+99999102291ADDMD1210071+9999SA1+0681REMSYN054ACYN4 46/// ///// 11018 40229 52007 91100 222// 00068=
0088997270999992024011512004+39350-074420FM-13+001099999V02099999999999999999N999999999-00191+99999102351ADDMD1310101+9999SA1+0681REMSYN054ACYN4 46/// ///// 11019 40235 53010 91200 222// 00068=
0088997270999992024011513004+39350-074420FM-13+001099999V02099999999999999999N999999999-00211+99999102361ADDMD1110101+9999SA1+0671REMSYN054ACYN4 46/// ///// 11021 40236 51010 91300 222// 00067=
0088997270999992024011514004+39350-074420FM-13+001099999V02099999999999999999N999999999-00201+99999102411ADDMD1110121+9999SA1+0681REMSYN054ACYN4 46/// ///// 11020 40241 51012 91400 222// 00068=
0088997270999992024011515004+39350-074420FM-13+001099999V02099999999999999999N999999999-00151+99999102451ADDMD1310101+9999SA1+0681REMSYN054ACYN4 46/// ///// 11015 40245 53010 91500 222// 00068=
0088997270999992024011516004+39350-074420FM-13+001099999V02099999999999999999N999999999-00101+99999102401ADDMD1990041+9999SA1+0671REMSYN054ACYN4 46/// ///// 11010 40240 50004 91600 222// 00067=
0088997270999992024011517004+39350-074420FM-13+001099999V02099999999999999999N999999999-00091+99999102331ADDMD1810081+9999SA1+0651REMSYN054ACYN4 46/// ///// 11009 40233 58008 91700 222// 00065=
0088997270999992024011518004+39350-074420FM-13+001099999V02099999999999999999N999999999-00121+99999102221ADDMD1810231+9999SA1+0681REMSYN054ACYN4 46/// ///// 11012 40222 58023 91800 222// 00068=
0088997270999992024011519004+39350-074420FM-13+001099999V02099999999999999999N999999999-00101+99999102171ADDMD1610231+9999SA1+0661REMSYN054ACYN4 46/// ///// 11010 40217 56023 91900 222// 00066=
0088997270999992024011520004+39350-074420FM-13+001099999V02099999999999999999N999999999-00131+99999102151ADDMD1610181+9999SA1+0671REMSYN054ACYN4 46/// ///// 11013 40215 56018 92000 222// 00067=
0088997270999992024011521004+39350-074420FM-13+001099999V02099999999999999999N999999999-00151+99999102171ADDMD1610051+9999SA1+0681REMSYN054ACYN4 46/// ///// 11015 40217 56005 92100 222// 00068=
0088997270999992024011522004+39350-074420FM-13+001099999V02099999999999999999N999999999-00231+99999102171ADDMD1410001+9999SA1+0671REMSYN054ACYN4 46/// ///// 11023 40217 54000 92200 222// 00067=
0068997270999992024011523004+39350-074420FM-13+001099999V02099999999999999999N999999999-00251+99999102151ADDSA1+0681REMSYN048ACYN4 46/// ///// 11025 40215 92242 222// 00068=
0088997270999992024011600004+39350-074420FM-13+001099999V02099999999999999999N999999999-00241+99999102151ADDMD1410001+9999SA1+0681REMSYN054ACYN4 46/// ///// 11024 40215 54000 90000 222// 00068=
0088997270999992024011601004+39350-074420FM-13+001099999V02099999999999999999N999999999+99999+99999102121ADDMD1710051+9999SA1+0661REMSYN054ACYN4 46/// ///// 1//// 40212 57005 90100 222// 00066=
0068997270999992024011602004+39350-074420FM-13+001099999V02099999999999999999N999999999-00201+99999102071ADDSA1+0641REMSYN048ACYN4 46/// ///// 11020 40207 90136 222// 00064=
0088997270999992024011603004+39350-074420FM-13+001099999V02099999999999999999N999999999-00151+99999101991ADDMD1810161+9999SA1+0661REMSYN054ACYN4 46/// ///// 11015 40199 58016 90300 222// 00066=
0088997270999992024011604004+39350-074420FM-13+001099999V02099999999999999999N999999999-00181+99999101941ADDMD1610181+9999SA1+0671REMSYN054ACYN4 46/// ///// 11018 40194 56018 90400 222// 00067=
0088997270999992024011605004+39350-074420FM-13+001099999V02099999999999999999N999999999-00101+99999101761ADDMD1810271+9999SA1+0661REMSYN054ACYN4 46/// ///// 11010 40176 58027 90500 222// 00066=
0088997270999992024011606004+39350-074420FM-13+001099999V02099999999999999999N999999999-00071+99999101631ADDMD1810361+9999SA1+0651REMSYN054ACYN4 46/// ///// 11007 40163 58036 90600 222// 00065=
0088997270999992024011607004+39350-074420FM-13+001099999V02099999999999999999N999999999+00151+99999101561ADDMD1610381+9999SA1+0651REMSYN054ACYN4 46/// ///// 10015 40156 56038 90700 222// 00065=
0088997270999992024011608004+39350-074420FM-13+001099999V02099999999999999999N999999999+00221+99999101441ADDMD1610321+9999SA1+0641REMSYN054ACYN4 46/// ///// 10022 40144 56032 90800 222// 00064=
0088997270999992024011609004+39350-074420FM-13+001099999V02099999999999999999N999999999+00261+99999101341ADDMD1810291+9999SA1+0641REMSYN054ACYN4 46/// ///// 10026 40134 58029 90900 222// 00064=
0088997270999992024011610004+39350-074420FM-13+001099999V02099999999999999999N999999999+00291+99999101301ADDMD1610261+9999SA1+0631REMSYN054ACYN4 46/// ///// 10029 40130 56026 91000 222// 00063=
0088997270999992024011611004+39350-074420FM-13+001099999V02099999999999999999N999999999+00331+99999101091ADDMD1810351+9999SA1+0631REMSYN054ACYN4 46/// ///// 10033 40109 58035 91100 222// 00063=
0088997270999992024011612004+39350-074420FM-13+001099999V02099999999999999999N999999999+00451+99999101041ADDMD1810301+9999SA1+0631REMSYN054ACYN4 46/// ///// 10045 40104 58030 91200 222// 00063=
0088997270999992024011613004+39350-074420FM-13+001099999V02099999999999999999N999999999+00531+99999100861ADDMD1610441+9999SA1+0581REMSYN054ACYN4 46/// ///// 10053 40086 56044 91300 222// 00058=
0088997270999992024011614004+39350-074420FM-13+001099999V02099999999999999999N999999999+00611+99999100761ADDMD1810331+9999SA1+0611REMSYN054ACYN4 46/// ///// 10061 40076 58033 91400 222// 00061=
0088997270999992024011615004+39350-074420FM-13+001099999V02099999999999999999N999999999+00621+99999100701ADDMD1610341+9999SA1+0621REMSYN054ACYN4 46/// ///// 10062 40070 56034 91500 222// 00062=
0088997270999992024011616004+39350-074420FM-13+001099999V02099999999999999999N999999999+00621+99999100471ADDMD1810391+9999SA1+0621REMSYN054ACYN4 46/// ///// 10062 40047 58039 91600 222// 00062=
0088997270999992024011617004+39350-074420FM-13+001099999V02099999999999999999N999999999+00491+99999100271ADDMD1810491+9999SA1+0621REMSYN054ACYN4 46/// ///// 10049 40027 58049 91700 222// 00062=
0088997270999992024011618004+39350-074420FM-13+001099999V02099999999999999999N999999999+00421+99999100201ADDMD1610501+9999SA1+0631REMSYN054ACYN4 46/// ///// 10042 40020 56050 91800 222// 00063=
0088997270999992024011619004+39350-074420FM-13+001099999V02099999999999999999N999999999+00171+99999100401ADDMD1510071+9999SA1+0641REMSYN054ACYN4 46/// ///// 10017 40040 55007 91900 222// 00064=
0088997270999992024011620004+39350-074420FM-13+001099999V02099999999999999999N999999999+00001+99999100461ADDMD1310191+9999SA1+0651REMSYN054ACYN4 46/// ///// 10000 40046 53019 92000 222// 00065=
0088997270999992024011621004+39350-074420FM-13+001099999V02099999999999999999N999999999-00051+99999100511ADDMD1110311+9999SA1+0651REMSYN054ACYN4 46/// ///// 11005 40051 51031 92100 222// 00065=
0088997270999992024011622004+39350-074420FM-13+001099999V02099999999999999999N999999999-00061+99999100661ADDMD1310261+9999SA1+0651REMSYN054ACYN4 46/// ///// 11006 40066 53026 92200 222// 00065=
0088997270999992024011623004+39350-074420FM-13+001099999V02099999999999999999N999999999-00111+99999100731ADDMD1310271+9999SA1+0641REMSYN054ACYN4 46/// ///// 11011 40073 53027 92300 222// 00064=
0088997270999992024011700004+39350-074420FM-13+001099999V02099999999999999999N999999999-00171+99999100781ADDMD1110271+9999SA1+0631REMSYN054ACYN4 46/// ///// 11017 40078 51027 90000 222// 00063=
0088997270999992024011701004+39350-074420FM-13+001099999V02099999999999999999N999999999-00271+99999100811ADDMD1110151+9999SA1+0631REMSYN054ACYN4 46/// ///// 11027 40081 51015 90100 222// 00063=
0088997270999992024011702004+39350-074420FM-13+001099999V02099999999999999999N999999999-00351+99999100921ADDMD1310191+9999SA1+0631REMSYN054ACYN4 46/// ///// 11035 40092 53019 90200 222// 00063=
0088997270999992024011703004+39350-074420FM-13+001099999V02099999999999999999N999999999-00401+99999101051ADDMD1310271+9999SA1+0621REMSYN054ACYN4 46/// ///// 11040 40105 53027 90300 222// 00062=
0088997270999992024011704004+39350-074420FM-13+001099999V02099999999999999999N999999999-00441+99999101111ADDMD1110301+9999SA1+0631REMSYN054ACYN4 46/// ///// 11044 40111 51030 90400 222// 00063=
0088997270999992024011705004+39350-074420FM-13+001099999V02099999999999999999N999999999-00491+99999101171ADDMD1110251+9999SA1+0601REMSYN054ACYN4 46/// ///// 11049 40117 51025 90500 222// 00060=
0088997270999992024011706004+39350-074420FM-13+001099999V02099999999999999999N999999999-00551+99999101211ADDMD1110161+9999SA1+0591REMSYN054ACYN4 46/// ///// 11055 40121 51016 90600 222// 00059=
0088997270999992024011707004+39350-074420FM-13+001099999V02099999999999999999N999999999-00611+99999101221ADDMD1110111+9999SA1+0591REMSYN054ACYN4 46/// ///// 11061 40122 51011 90700 222// 00059=
0088997270999992024011708004+39350-074420FM-13+001099999V02099999999999999999N999999999-00671+99999101271ADDMD1310101+9999SA1+0581REMSYN054ACYN4 46/// ///// 11067 40127 53010 90800 222// 00058=
0088997270999992024011709004+39350-074420FM-13+001099999V02099999999999999999N999999999-00731+99999101311ADDMD1310101+9999SA1+0571REMSYN054ACYN4 46/// ///// 11073 40131 53010 90900 222// 00057=
0088997270999992024011710004+39350-074420FM-13+001099999V02099999999999999999N999999999-00771+99999101381ADDMD1310161+9999SA1+0581REMSYN054ACYN4 46/// ///// 11077 40138 53016 91000 222// 00058=
0088997270999992024011711004+39350-074420FM-13+001099999V02099999999999999999N999999999-00801+99999101471ADDMD1310201+9999SA1+0521REMSYN054ACYN4 46/// ///// 11080 40147 53020 91100 222// 00052=
0088997270999992024011712004+39350-074420FM-13+001099999V02099999999999999999N999999999-00821+99999101571ADDMD1310261+9999SA1+0551REMSYN054ACYN4 46/// ///// 11082 40157 53026 91200 222// 00055=
0088997270999992024011713004+39350-074420FM-13+001099999V02099999999999999999N999999999-00731+99999101611ADDMD1110231+9999SA1+0541REMSYN054ACYN4 46/// ///// 11073 40161 51023 91300 222// 00054=
0088997270999992024011714004+39350-074420FM-13+001099999V02099999999999999999N999999999-00611+99999101681ADDMD1110211+9999SA1+0531REMSYN054ACYN4 46/// ///// 11061 40168 51021 91400 222// 00053=
0088997270999992024011715004+39350-074420FM-13+001099999V02099999999999999999N999999999-00551+99999101791ADDMD1310221+9999SA1+0501REMSYN054ACYN4 46/// ///// 11055 40179 53022 91500 222// 00050=
0088997270999992024011716004+39350-074420FM-13+001099999V02099999999999999999N999999999-00481+99999101741ADDMD1990131+9999SA1+0511REMSYN054ACYN4 46/// ///// 11048 40174 50013 91600 222// 00051=
0088997270999992024011717004+39350-074420FM-13+001099999V02099999999999999999N999999999+99999+99999101681ADDMD1990001+9999SA1+0481REMSYN054ACYN4 46/// ///// 1//// 40168 50000 91700 222// 00048=
0088997270999992024011718004+39350-074420FM-13+001099999V02099999999999999999N999999999-00361+99999101601ADDMD1810191+9999SA1+0451REMSYN054ACYN4 46/// ///// 11036 40160 58019 91800 222// 00045=
0088997270999992024011719004+39350-074420FM-13+001099999V02099999999999999999N999999999-00351+99999101611ADDMD1610131+9999SA1+0461REMSYN054ACYN4 46/// ///// 11035 40161 56013 91900 222// 00046=
0088997270999992024011720004+39350-074420FM-13+001099999V02099999999999999999N999999999+99999+99999101581ADDMD1610101+9999SA1+0461REMSYN054ACYN4 46/// ///// 1//// 40158 56010 92000 222// 00046=
0088997270999992024011721004+39350-074420FM-13+001099999V02099999999999999999N999999999-00301+99999101651ADDMD1310051+9999SA1+0461REMSYN054ACYN4 46/// ///// 11030 40165 53005 92100 222// 00046=
0088997270999992024011722004+39350-074420FM-13+001099999V02099999999999999999N999999999-00381+99999101711ADDMD1310101+9999SA1+0451REMSYN054ACYN4 46/// ///// 11038 40171 53010 92200 222// 00045=
0088997270999992024011723004+39350-074420FM-13+001099999V02099999999999999999N999999999-00401+99999101831ADDMD1310251+9999SA1+0441REMSYN054ACYN4 46/// ///// 11040 40183 53025 92300 222// 00044=
0088997270999992024011800004+39350-074420FM-13+001099999V02099999999999999999N999999999-00401+99999101931ADDMD1310281+9999SA1+0431REMSYN054ACYN4 46/// ///// 11040 40193 53028 90000 222// 00043=
0088997270999992024011801004+39350-074420FM-13+001099999V02099999999999999999N999999999-00401+99999101951ADDMD1110241+9999SA1+0411REMSYN054ACYN4 46/// ///// 11040 40195 51024 90100 222// 00041=
0088997270999992024011802004+39350-074420FM-13+001099999V02099999999999999999N999999999-00351+99999101961ADDMD1110131+9999SA1+0441REMSYN054ACYN4 46/// ///// 11035 40196 51013 90200 222// 00044=
0088997270999992024011803004+39350-074420FM-13+001099999V02099999999999999999N999999999-00351+99999102021ADDMD1310091+9999SA1+0451REMSYN054ACYN4 46/// ///// 11035 40202 53009 90300 222// 00045=
0088997270999992024011804004+39350-074420FM-13+001099999V02099999999999999999N999999999-00291+99999102041ADDMD1210091+9999SA1+0431REMSYN054ACYN4 46/// ///// 11029 40204 52009 90400 222// 00043=
0088997270999992024011805004+39350-074420FM-13+001099999V02099999999999999999N999999999-00251+99999102051ADDMD1110091+9999SA1+0431REMSYN054ACYN4 46/// ///// 11025 40205 51009 90500 222// 00043=
0088997270999992024011806004+39350-074420FM-13+001099999V02099999999999999999N999999999-00271+99999102051ADDMD1210031+9999SA1+0451REMSYN054ACYN4 46/// ///// 11027 40205 52003 90600 222// 00045=
0088997270999992024011807004+39350-074420FM-13+001099999V02099999999999999999N999999999-00291+99999102141ADDMD1310101+9999SA1+0401REMSYN054ACYN4 46/// ///// 11029 40214 53010 90700 222// 00040=
0088997270999992024011808004+39350-074420FM-13+001099999V02099999999999999999N999999999-00291+99999102161ADDMD1210111+9999SA1+0331REMSYN054ACYN4 46/// ///// 11029 40216 52011 90800 222// 00033=
0088997270999992024011809004+39350-074420FM-13+001099999V02099999999999999999N999999999-00241+99999102161ADDMD1110111+9999SA1+0301REMSYN054ACYN4 46/// ///// 11024 40216 51011 90900 222// 00030=
0088997270999992024011810004+39350-074420FM-13+001099999V02099999999999999999N999999999-00241+99999102131ADDMD1990001+9999SA1+0271REMSYN054ACYN4 46/// ///// 11024 40213 50000 91000 222// 00027=
0068997270999992024011811004+39350-074420FM-13+001099999V02099999999999999999N999999999-00231+99999102151ADDSA1+0301REMSYN048ACYN4 46/// ///// 11023 40215 91036 222// 00030=
0088997270999992024011812004+39350-074420FM-13+001099999V02099999999999999999N999999999-00191+99999102181ADDMD1510001+9999SA1+0301REMSYN054ACYN4 46/// ///// 11019 40218 55000 91200 222// 00030=
0088997270999992024011813004+39350-074420FM-13+001099999V02099999999999999999N999999999+00121+99999102161ADDMD1110031+9999SA1+0341REMSYN054ACYN4 46/// ///// 10012 40216 51003 91300 222// 00034=
0088997270999992024011814004+39350-074420FM-13+001099999V02099999999999999999N999999999+00141+99999102181ADDMD1410001+9999SA1+0451REMSYN054ACYN4 46/// ///// 10014 40218 54000 91400 222// 00045=
0088997270999992024011815004+39350-074420FM-13+001099999V02099999999999999999N999999999+99999+99999102251ADDMD1310071+9999SA1+0471REMSYN054ACYN4 46/// ///// 1//// 40225 53007 91500 222// 00047=
0088997270999992024011816004+39350-074420FM-13+001099999V02099999999999999999N999999999+00071+99999102251ADDMD1210091+9999SA1+0471REMSYN054ACYN4 46/// ///// 10007 40225 52009 91600 222// 00047=
0088997270999992024011817004+39350-074420FM-13+001099999V02099999999999999999N999999999+00081+99999102131ADDMD1810051+9999SA1+0461REMSYN054ACYN4 46/// ///// 10008 40213 58005 91700 222// 00046=
0088997270999992024011818004+39350-074420FM-13+001099999V02099999999999999999N999999999+00121+99999102011ADDMD1810241+9999SA1+0421REMSYN054ACYN4 46/// ///// 10012 40201 58024 91800 222// 00042=
0088997270999992024011819004+39350-074420FM-13+001099999V02099999999999999999N999999999+00131+99999101901ADDMD1610351+9999SA1+0471REMSYN054ACYN4 46/// ///// 10013 40190 56035 91900 222// 00047=
0088997270999992024011820004+39350-074420FM-13+001099999V02099999999999999999N999999999+00151+99999101781ADDMD1710351+9999SA1+0471REMSYN054ACYN4 46/// ///// 10015 40178 57035 92000 222// 00047=
0088997270999992024011821004+39350-074420FM-13+001099999V02099999999999999999N999999999+00211+99999101701ADDMD1610311+9999SA1+0471REMSYN054ACYN4 46/// ///// 10021 40170 56031 92100 222// 00047=
0088997270999992024011822004+39350-074420FM-13+001099999V02099999999999999999N999999999+00291+99999101691ADDMD1610211+9999SA1+0441REMSYN054ACYN4 46/// ///// 10029 40169 56021 92200 222// 00044=
0088997270999992024011823004+39350-074420FM-13+001099999V02099999999999999999N999999999+99999+99999101681ADDMD1610101+9999SA1+0451REMSYN054ACYN4 46/// ///// 1//// 40168 56010 92300 222// 00045=
0088997270999992024011900004+39350-074420FM-13+001099999V02099999999999999999N999999999+00431+99999101691ADDMD1410001+9999SA1+0431REMSYN054ACYN4 46/// ///// 10043 40169 54000 90000 222// 00043=
0088997270999992024011901004+39350-074420FM-13+001099999V02099999999999999999N999999999+00341+99999101671ADDMD1410001+9999SA1+0451REMSYN054ACYN4 46/// ///// 10034 40167 54000 90100 222// 00045=
0088997270999992024011902004+39350-074420FM-13+001099999V02099999999999999999N999999999+00291+99999101631ADDMD1810051+9999SA1+0441REMSYN054ACYN4 46/// ///// 10029 40163 58005 90200 222// 00044=
0088997270999992024011903004+39350-074420FM-13+001099999V02099999999999999999N999999999+00201+99999101581ADDMD1810111+9999SA1+0441REMSYN054ACYN4 46/// ///// 10020 40158 58011 90300 222// 00044=
0088997270999992024011904004+39350-074420FM-13+001099999V02099999999999999999N999999999+00251+99999101491ADDMD1810181+9999SA1+0471REMSYN054ACYN4 46/// ///// 10025 40149 58018 90400 222// 00047=
0088997270999992024011905004+39350-074420FM-13+001099999V02099999999999999999N999999999+00201+99999101381ADDMD1810251+9999SA1+0471REMSYN054ACYN4 46/// ///// 10020 40138 58025 90500 222// 00047=
0088997270999992024011906004+39350-074420FM-13+001099999V02099999999999999999N999999999+00361+99999101311ADDMD1610271+9999SA1+0481REMSYN054ACYN4 46/// ///// 10036 40131 56027 90600 222// 00048=
0088997270999992024011907004+39350-074420FM-13+001099999V02099999999999999999N999999999+00471+99999101171ADDMD1810321+9999SA1+0491REMSYN054ACYN4 46/// ///// 10047 40117 58032 90700 222// 00049=
0088997270999992024011908004+39350-074420FM-13+001099999V02099999999999999999N999999999+00431+99999101071ADDMD1810311+9999SA1+0481REMSYN054ACYN4 46/// ///// 10043 40107 58031 90800 222// 00048=
0088997270999992024011909004+39350-074420FM-13+001099999V02099999999999999999N999999999+00231+99999100911ADDMD1810401+9999SA1+0461REMSYN054ACYN4 46/// ///// 10023 40091 58040 90900 222// 00046=
0088997270999992024011910004+39350-074420FM-13+001099999V02099999999999999999N999999999+00201+99999100911ADDMD1610261+9999SA1+0461REMSYN054ACYN4 46/// ///// 10020 40091 56026 91000 222// 00046=
0088997270999992024011911004+39350-074420FM-13+001099999V02099999999999999999N999999999+00191+99999100991ADDMD1510081+9999SA1+0491REMSYN054ACYN4 46/// ///// 10019 40099 55008 91100 222// 00049=
0088997270999992024011912004+39350-074420FM-13+001099999V02099999999999999999N999999999-00011+99999100861ADDMD1810051+9999SA1+0521REMSYN054ACYN4 46/// ///// 11001 40086 58005 91200 222// 00052=
0088997270999992024011913004+39350-074420FM-13+001099999V02099999999999999999N999999999-00021+99999100811ADDMD1810101+9999SA1+0501REMSYN054ACYN4 46/// ///// 11002 40081 58010 91300 222// 00050=
0088997270999992024011914004+39350-074420FM-13+001099999V02099999999999999999N999999999-00051+99999100741ADDMD1610251+9999SA1+0501REMSYN054ACYN4 46/// ///// 11005 40074 56025 91400 222// 00050=
0088997270999992024011915004+39350-074420FM-13+001099999V02099999999999999999N999999999-00021+99999100621ADDMD1810241+9999SA1+0481REMSYN054ACYN4 46/// ///// 11002 40062 58024 91500 222// 00048=
0088997270999992024011916004+39350-074420FM-13+001099999V02099999999999999999N999999999+00071+99999100501ADDMD1810311+9999SA1+0471REMSYN054ACYN4 46/// ///// 10007 40050 58031 91600 222// 00047=
0088997270999992024011917004+39350-074420FM-13+001099999V02099999999999999999N999999999+00071+99999100371ADDMD1810371+9999SA1+0461REMSYN054ACYN4 46/// ///// 10007 40037 58037 91700 222// 00046=
0088997270999992024011918004+39350-074420FM-13+001099999V02099999999999999999N999999999-00011+99999100271ADDMD1610351+9999SA1+0461REMSYN054ACYN4 46/// ///// 11001 40027 56035 91800 222// 00046=
0088997270999992024011919004+39350-074420FM-13+001099999V02099999999999999999N999999999-00021+99999100271ADDMD1610231+9999SA1+0451REMSYN054ACYN4 46/// ///// 11002 40027 56023 91900 222// 00045=
0088997270999992024011920004+39350-074420FM-13+001099999V02099999999999999999N999999999-00011+99999100291ADDMD1610081+9999SA1+0451REMSYN054ACYN4 46/// ///// 11001 40029 56008 92000 222// 00045=
0088997270999992024011921004+39350-074420FM-13+001099999V02099999999999999999N999999999-00061+99999100391ADDMD1310121+9999SA1+0451REMSYN054ACYN4 46/// ///// 11006 40039 53012 92100 222// 00045=
0088997270999992024011922004+39350-074420FM-13+001099999V02099999999999999999N999999999-00111+99999100541ADDMD1310271+9999SA1+0441REMSYN054ACYN4 46/// ///// 11011 40054 53027 92200 222// 00044=
0088997270999992024011923004+39350-074420FM-13+001099999V02099999999999999999N999999999-00171+99999100701ADDMD1310411+9999SA1+0431REMSYN054ACYN4 46/// ///// 11017 40070 53041 92300 222// 00043=
0088997270999992024012000004+39350-074420FM-13+001099999V02099999999999999999N999999999-00231+99999100821ADDMD1110431+9999SA1+0431REMSYN054ACYN4 46/// ///// 11023 40082 51043 90000 222// 00043=
0088997270999992024012001004+39350-074420FM-13+001099999V02099999999999999999N999999999-00271+99999100921ADDMD1110381+9999SA1+0431REMSYN054ACYN4 46/// ///// 11027 40092 51038 90100 222// 00043=
0088997270999992024012002004+39350-074420FM-13+001099999V02099999999999999999N999999999-00311+99999101001ADDMD1110301+9999SA1+0421REMSYN054ACYN4 46/// ///// 11031 40100 51030 90200 222// 00042=
0088997270999992024012003004+39350-074420FM-13+001099999V02099999999999999999N999999999-00341+99999101061ADDMD1110241+9999SA1+0421REMSYN054ACYN4 46/// ///// 11034 40106 51024 90300 222// 00042=
0088997270999992024012004004+39350-074420FM-13+001099999V02099999999999999999N999999999-00381+99999101111ADDMD1110191+9999SA1+0421REMSYN054ACYN4 46/// ///// 11038 40111 51019 90400 222// 00042=
0088997270999992024012005004+39350-074420FM-13+001099999V02099999999999999999N999999999-00421+99999101161ADDMD1110161+9999SA1+0411REMSYN054ACYN4 46/// ///// 11042 40116 51016 90500 222// 00041=
0088997270999992024012006004+39350-074420FM-13+001099999V02099999999999999999N999999999-00421+99999101201ADDMD1110141+9999SA1+0411REMSYN054ACYN4 46/// ///// 11042 40120 51014 90600 222// 00041=
0088997270999992024012007004+39350-074420FM-13+001099999V02099999999999999999N999999999-00461+99999101241ADDMD1110131+9999SA1+0411REMSYN054ACYN4 46/// ///// 11046 40124 51013 90700 222// 00041=
0088997270999992024012008004+39350-074420FM-13+001099999V02099999999999999999N999999999+99999+99999101271ADDMD1110111+9999SA1+0381REMSYN054ACYN4 46/// ///// 1//// 40127 51011 90800 222// 00038=
0088997270999992024012009004+39350-074420FM-13+001099999V02099999999999999999N999999999+99999+99999101331ADDMD1310131+9999SA1+0381REMSYN054ACYN4 46/// ///// 1//// 40133 53013 90900 222// 00038=
0088997270999992024012010004+39350-074420FM-13+001099999V02099999999999999999N999999999+99999+99999101371ADDMD1310131+9999SA1+0381REMSYN054ACYN4 46/// ///// 1//// 40137 53013 91000 222// 00038=
0088997270999992024012011004+39350-074420FM-13+001099999V02099999999999999999N999999999+99999+99999101411ADDMD1110141+9999SA1+0381REMSYN054ACYN4 46/// ///// 1//// 40141 51014 91100 222// 00038=
0088997270999992024012012004+39350-074420FM-13+001099999V02099999999999999999N999999999-00711+99999101491ADDMD1310161+9999SA1+0391REMSYN054ACYN4 46/// ///// 11071 40149 53016 91200 222// 00039=
0088997270999992024012013004+39350-074420FM-13+001099999V02099999999999999999N999999999-00581+99999101531ADDMD1210161+9999SA1+0371REMSYN054ACYN4 46/// ///// 11058 40153 52016 91300 222// 00037=
0088997270999992024012014004+39350-074420FM-13+001099999V02099999999999999999N999999999-00471+99999101561ADDMD1110151+9999SA1+0371REMSYN054ACYN4 46/// ///// 11047 40156 51015 91400 222// 00037=
0088997270999992024012015004+39350-074420FM-13+001099999V02099999999999999999N999999999-00521+99999101571ADDMD1110081+9999SA1+0381REMSYN054ACYN4 46/// ///// 11052 40157 51008 91500 222// 00038=
0088997270999992024012016004+39350-074420FM-13+001099999V02099999999999999999N999999999+99999+99999101551ADDMD1990001+9999SA1+0391REMSYN054ACYN4 46/// ///// 1//// 40155 50000 91600 222// 00039=
0088997270999992024012017004+39350-074420FM-13+001099999V02099999999999999999N999999999-00531+99999101481ADDMD1810081+9999SA1+0381REMSYN054ACYN4 46/// ///// 11053 40148 58008 91700 222// 00038=
0088997270999992024012018004+39350-074420FM-13+001099999V02099999999999999999N999999999-00511+99999101401ADDMD1810171+9999SA1+0381REMSYN054ACYN4 46/// ///// 11051 40140 58017 91800 222// 00038=
0088997270999992024012019004+39350-074420FM-13+001099999V02099999999999999999N999999999-00481+99999101431ADDMD1510121+9999SA1+0371REMSYN054ACYN4 46/// ///// 11048 40143 55012 91900 222// 00037=
0088997270999992024012020004+39350-074420FM-13+001099999V02099999999999999999N999999999+99999+99999101471ADDMD1510001+9999SA1+0371REMSYN054ACYN4 46/// ///// 1//// 40147 55000 92000 222// 00037=
0088997270999992024012021004+39350-074420FM-13+001099999V02099999999999999999N999999999+99999+99999101531ADDMD1310131+9999SA1+0361REMSYN054ACYN4 46/// ///// 1//// 40153 53013 92100 222// 00036=
0088997270999992024012022004+39350-074420FM-13+001099999V02099999999999999999N999999999-00541+99999101601ADDMD1310171+9999SA1+0351REMSYN054ACYN4 46/// ///// 11054 40160 53017 92200 222// 00035=
0088997270999992024012023004+39350-074420FM-13+001099999V02099999999999999999N999999999+99999+99999101681ADDMD1310211+9999SA1+0351REMSYN054ACYN4 46/// ///// 1//// 40168 53021 92300 222// 00035=
0088997270999992024012100004+39350-074420FM-13+001099999V02099999999999999999N999999999-00581+99999101721ADDMD1110191+9999SA1+0341REMSYN054ACYN4 46/// ///// 11058 40172 51019 90000 222// 00034=
0088997270999992024012101004+39350-074420FM-13+001099999V02099999999999999999N999999999-00551+99999101741ADDMD1110141+9999SA1+0341REMSYN054ACYN4 46/// ///// 11055 40174 51014 90100 222// 00034=
0088997270999992024012102004+39350-074420FM-13+001099999V02099999999999999999N999999999-00501+99999101801ADDMD1310121+9999SA1+0341REMSYN054ACYN4 46/// ///// 11050 40180 53012 90200 222// 00034=
0088997270999992024012103004+39350-074420FM-13+001099999V02099999999999999999N999999999-00501+99999101821ADDMD1210101+9999SA1+0341REMSYN054ACYN4 46/// ///// 11050 40182 52010 90300 222// 00034=
0088997270999992024012104004+39350-074420FM-13+001099999V02099999999999999999N999999999-00511+99999101861ADDMD1110121+9999SA1+0341REMSYN054ACYN4 46/// ///// 11051 40186 51012 90400 222// 00034=
0088997270999992024012105004+39350-074420FM-13+001099999V02099999999999999999N999999999-00481+99999101911ADDMD1310111+9999SA1+0331REMSYN054ACYN4 46/// ///// 11048 40191 53011 90500 222// 00033=
0088997270999992024012106004+39350-074420FM-13+001099999V02099999999999999999N999999999-00521+99999102011ADDMD1310191+9999SA1+0341REMSYN054ACYN4 46/// ///// 11052 40201 53019 90600 222// 00034=
0088997270999992024012107004+39350-074420FM-13+001099999V02099999999999999999N999999999-00571+99999102101ADDMD1310241+9999SA1+0321REMSYN054ACYN4 46/// ///// 11057 40210 53024 90700 222// 00032=
0088997270999992024012108004+39350-074420FM-13+001099999V02099999999999999999N999999999-00661+99999102131ADDMD1110221+9999SA1+0271REMSYN054ACYN4 46/// ///// 11066 40213 51022 90800 222// 00027=
0088997270999992024012109004+39350-074420FM-13+001099999V02099999999999999999N999999999-00631+99999102181ADDMD1110171+9999SA1+0231REMSYN054ACYN4 46/// ///// 11063 40218 51017 90900 222// 00023=
0068997270999992024012110004+39350-074420FM-13+001099999V02099999999999999999N999999999-00641+99999102221ADDSA1+0231REMSYN048ACYN4 46/// ///// 11064 40222 90942 222// 00023=
0068997270999992024012111004+39350-074420FM-13+001099999V02099999999999999999N999999999-00641+99999102341ADDSA1+0261REMSYN048ACYN4 46/// ///// 11064 40234 91042 222// 00026=
0068997270999992024012112004+39350-074420FM-13+001099999V02099999999999999999N999999999-00661+99999102461ADDSA1+0261REMSYN048ACYN4 46/// ///// 11066 40246 91142 222// 00026=
0088997270999992024012113004+39350-074420FM-13+001099999V02099999999999999999N999999999-00521+99999102591ADDMD1210351+9999SA1+0341REMSYN054ACYN4 46/// ///// 11052 40259 52035 91300 222// 00034=
0068997270999992024012114004+39350-074420FM-13+001099999V02099999999999999999N999999999-00411+99999102641ADDSA1+0381REMSYN048ACYN4 46/// ///// 11041 40264 91342 222// 00038=
0068997270999992024012115004+39350-074420FM-13+001099999V02099999999999999999N999999999+99999+99999102721ADDSA1+0391REMSYN048ACYN4 46/// ///// 1//// 40272 91442 222// 00039=
0088997270999992024012116004+39350-074420FM-13+001099999V02099999999999999999N999999999-00251+99999102681ADDMD1990091+9999SA1+0391REMSYN054ACYN4 46/// ///// 11025 40268 50009 91600 222// 00039=
0088997270999992024012117004+39350-074420FM-13+001099999V02099999999999999999N999999999-00171+99999102651ADDMD1990001+9999SA1+0391REMSYN054ACYN4 46/// ///// 11017 40265 50000 91700 222// 00039=
0088997270999992024012118004+39350-074420FM-13+001099999V02099999999999999999N999999999-00101+99999102631ADDMD1610101+9999SA1+0391REMSYN054ACYN4 46/// ///// 11010 40263 56010 91800 222// 00039=
0088997270999992024012119004+39350-074420FM-13+001099999V02099999999999999999N999999999-00021+99999102631ADDMD1610051+9999SA1+0391REMSYN054ACYN4 46/// ///// 11002 40263 56005 91900 222// 00039=
0088997270999992024012120004+39350-074420FM-13+001099999V02099999999999999999N999999999+00031+99999102661ADDMD1510001+9999SA1+0351REMSYN054ACYN4 46/// ///// 10003 40266 55000 92000 222// 00035=
0088997270999992024012121004+39350-074420FM-13+001099999V02099999999999999999N999999999+00051+99999102761ADDMD1310131+9999SA1+0381REMSYN054ACYN4 46/// ///// 10005 40276 53013 92100 222// 00038=
0088997270999992024012122004+39350-074420FM-13+001099999V02099999999999999999N999999999-00021+99999102861ADDMD1310231+9999SA1+0371REMSYN054ACYN4 46/// ///// 11002 40286 53023 92200 222// 00037=
0088997270999992024012123004+39350-074420FM-13+001099999V02099999999999999999N999999999-00091+99999102951ADDMD1110291+9999SA1+0361REMSYN054ACYN4 46/// ///// 11009 40295 51029 92300 222// 00036=
0088997270999992024012200004+39350-074420FM-13+001099999V02099999999999999999N999999999-00151+99999103061ADDMD1310301+9999SA1+0361REMSYN054ACYN4 46/// ///// 11015 40306 53030 90000 222// 00036=
0088997270999992024012201004+39350-074420FM-13+001099999V02099999999999999999N999999999-00211+99999103121ADDMD1110261+9999SA1+0361REMSYN054ACYN4 46/// ///// 11021 40312 51026 90100 222// 00036=
0088997270999992024012202004+39350-074420FM-13+001099999V02099999999999999999N999999999-00251+99999103171ADDMD1110221+9999SA1+0351REMSYN054ACYN4 46/// ///// 11025 40317 51022 90200 222// 00035=
0088997270999992024012203004+39350-074420FM-13+001099999V02099999999999999999N999999999-00291+99999103221ADDMD1110161+9999SA1+0341REMSYN054ACYN4 46/// ///// 11029 40322 51016 90300 222// 00034=
0088997270999992024012204004+39350-074420FM-13+001099999V02099999999999999999N999999999-00311+99999103261ADDMD1110141+9999SA1+0351REMSYN054ACYN4 46/// ///// 11031 40326 51014 90400 222// 00035=
0088997270999992024012205004+39350-074420FM-13+001099999V02099999999999999999N999999999-00321+99999103251ADDMD1110081+9999SA1+0351REMSYN054ACYN4 46/// ///// 11032 40325 51008 90500 222// 00035=
0088997270999992024012206004+39350-074420FM-13+001099999V02099999999999999999N999999999-00351+99999103251ADDMD1110031+9999SA1+0341REMSYN054ACYN4 46/// ///// 11035 40325 51003 90600 222// 00034=
0088997270999992024012207004+39350-074420FM-13+001099999V02099999999999999999N999999999-00361+99999103291ADDMD1310031+9999SA1+0331REMSYN054ACYN4 46/// ///// 11036 40329 53003 90700 222// 00033=
0088997270999992024012208004+39350-074420FM-13+001099999V02099999999999999999N999999999-00411+99999103301ADDMD1210051+9999SA1+0341REMSYN054ACYN4 46/// ///// 11041 40330 52005 90800 222// 00034=
0088997270999992024012209004+39350-074420FM-13+001099999V02099999999999999999N999999999-00431+99999103331ADDMD1110081+9999SA1+0331REMSYN054ACYN4 46/// ///// 11043 40333 51008 90900 222// 00033=
0088997270999992024012210004+39350-074420FM-13+001099999V02099999999999999999N999999999-00441+99999103361ADDMD1310071+9999SA1+0331REMSYN054ACYN4 46/// ///// 11044 40336 53007 91000 222// 00033=
0088997270999992024012211004+39350-074420FM-13+001099999V02099999999999999999N999999999-00531+99999103431ADDMD1310131+9999SA1+0311REMSYN054ACYN4 46/// ///// 11053 40343 53013 91100 222// 00031=
0088997270999992024012212004+39350-074420FM-13+001099999V02099999999999999999N999999999-00531+99999103491ADDMD1310161+9999SA1+0321REMSYN054ACYN4 46/// ///// 11053 40349 53016 91200 222// 00032=
