0088997270999992025010100004+39350-074420FM-13+001099999V02099999999999999999N999999999+00891+99999100101ADDMD1810531+9999SA1+0631REMSYN054ACYN4 46/// ///// 10089 40010 58053 90000 222// 00063=
0088997270999992025010101004+39350-074420FM-13+001099999V02099999999999999999N999999999+01011+99999099901ADDMD1810551+9999SA1+0641REMSYN054ACYN4 46/// ///// 10101 49990 58055 90100 222// 00064=
0088997270999992025010102004+39350-074420FM-13+001099999V02099999999999999999N999999999+01031+99999100011ADDMD1510311+9999SA1+0641REMSYN054ACYN4 46/// ///// 10103 40001 55031 90200 222// 00064=
0088997270999992025010103004+39350-074420FM-13+001099999V02099999999999999999N999999999+00931+99999099841ADDMD1610261+9999SA1+0641REMSYN054ACYN4 46/// ///// 10093 49984 56026 90300 222// 00064=
0088997270999992025010104004+39350-074420FM-13+001099999V02099999999999999999N999999999+00971+99999099781ADDMD1810121+9999SA1+0641REMSYN054ACYN4 46/// ///// 10097 49978 58012 90400 222// 00064=
0088997270999992025010105004+39350-074420FM-13+001099999V02099999999999999999N999999999+01041+99999099661ADDMD1610351+9999SA1+0641REMSYN054ACYN4 46/// ///// 10104 49966 56035 90500 222// 00064=
0088997270999992025010106004+39350-074420FM-13+001099999V02099999999999999999N999999999+00841+99999099731ADDMD1510111+9999SA1+0641REMSYN054ACYN4 46/// ///// 10084 49973 55011 90600 222// 00064=
0088997270999992025010107004+39350-074420FM-13+001099999V02099999999999999999N999999999+00891+99999099771ADDMD1510001+9999SA1+0641REMSYN054ACYN4 46/// ///// 10089 49977 55000 90700 222// 00064=
0088997270999992025010108004+39350-074420FM-13+001099999V02099999999999999999N999999999+00851+99999099851ADDMD1310191+9999SA1+0641REMSYN054ACYN4 46/// ///// 10085 49985 53019 90800 222// 00064=
0088997270999992025010109004+39350-074420FM-13+001099999V02099999999999999999N999999999+00821+99999099841ADDMD1110111+9999SA1+0641REMSYN054ACYN4 46/// ///// 10082 49984 51011 90900 222// 00064=
0088997270999992025010110004+39350-074420FM-13+001099999V02099999999999999999N999999999+00801+99999099891ADDMD1110121+9999SA1+0641REMSYN054ACYN4 46/// ///// 10080 49989 51012 91000 222// 00064=
0088997270999992025010111004+39350-074420FM-13+001099999V02099999999999999999N999999999+00801+99999099901ADDMD1210051+9999SA1+0641REMSYN054ACYN4 46/// ///// 10080 49990 52005 91100 222// 00064=
0088997270999992025010112004+39350-074420FM-13+001099999V02099999999999999999N999999999+00821+99999099941ADDMD1110101+9999SA1+0641REMSYN054ACYN4 46/// ///// 10082 49994 51010 91200 222// 00064=
0088997270999992025010113004+39350-074420FM-13+001099999V02099999999999999999N999999999+00911+99999099981ADDMD1310091+9999SA1+0641REMSYN054ACYN4 46/// ///// 10091 49998 53009 91300 222// 00064=
0088997270999992025010114004+39350-074420FM-13+001099999V02099999999999999999N999999999+01031+99999100051ADDMD1310151+9999SA1+0641REMSYN054ACYN4 46/// ///// 10103 40005 53015 91400 222// 00064=
0088997270999992025010115004+39350-074420FM-13+001099999V02099999999999999999N999999999+01041+99999100111ADDMD1310171+9999SA1+0641REMSYN054ACYN4 46/// ///// 10104 40011 53017 91500 222// 00064=
0088997270999992025010116004+39350-074420FM-13+001099999V02099999999999999999N999999999+01061+99999100121ADDMD1110141+9999SA1+0641REMSYN054ACYN4 46/// ///// 10106 40012 51014 91600 222// 00064=
0088997270999992025010117004+39350-074420FM-13+001099999V02099999999999999999N999999999+00941+99999100121ADDMD1110071+9999SA1+0651REMSYN054ACYN4 46/// ///// 10094 40012 51007 91700 222// 00065=
0088997270999992025010118004+39350-074420FM-13+001099999V02099999999999999999N999999999+00901+99999100161ADDMD1310051+9999SA1+0651REMSYN054ACYN4 46/// ///// 10090 40016 53005 91800 222// 00065=
0088997270999992025010119004+39350-074420FM-13+001099999V02099999999999999999N999999999+01001+99999100171ADDMD1210051+9999SA1+0651REMSYN054ACYN4 46/// ///// 10100 40017 52005 91900 222// 00065=
0088997270999992025010120004+39350-074420FM-13+001099999V02099999999999999999N999999999+00971+99999100331ADDMD1310211+9999SA1+0661REMSYN054ACYN4 46/// ///// 10097 40033 53021 92000 222// 00066=
0088997270999992025010121004+39350-074420FM-13+001099999V02099999999999999999N999999999+00901+99999100481ADDMD1310321+9999SA1+0671REMSYN054ACYN4 46/// ///// 10090 40048 53032 92100 222// 00067=
0088997270999992025010122004+39350-074420FM-13+001099999V02099999999999999999N999999999+00801+99999100541ADDMD1110371+9999SA1+0671REMSYN054ACYN4 46/// ///// 10080 40054 51037 92200 222// 00067=
0088997270999992025010123004+39350-074420FM-13+001099999V02099999999999999999N999999999+00731+99999100641ADDMD1110311+9999SA1+0681REMSYN054ACYN4 46/// ///// 10073 40064 51031 92300 222// 00068=
0088997270999992025010200004+39350-074420FM-13+001099999V02099999999999999999N999999999+00651+99999100761ADDMD1310281+9999SA1+0671REMSYN054ACYN4 46/// ///// 10065 40076 53028 90000 222// 00067=
0088997270999992025010201004+39350-074420FM-13+001099999V02099999999999999999N999999999+00581+99999100851ADDMD1110311+9999SA1+0671REMSYN054ACYN4 46/// ///// 10058 40085 51031 90100 222// 00067=
0088997270999992025010202004+39350-074420FM-13+001099999V02099999999999999999N999999999+00531+99999100891ADDMD1110251+9999SA1+0671REMSYN054ACYN4 46/// ///// 10053 40089 51025 90200 222// 00067=
0088997270999992025010203004+39350-074420FM-13+001099999V02099999999999999999N999999999+00501+99999100961ADDMD1110201+9999SA1+0661REMSYN054ACYN4 46/// ///// 10050 40096 51020 90300 222// 00066=
0088997270999992025010204004+39350-074420FM-13+001099999V02099999999999999999N999999999+00441+99999101001ADDMD1210151+9999SA1+0661REMSYN054ACYN4 46/// ///// 10044 40100 52015 90400 222// 00066=
0088997270999992025010205004+39350-074420FM-13+001099999V02099999999999999999N999999999+00431+99999101031ADDMD1110141+9999SA1+0641REMSYN054ACYN4 46/// ///// 10043 40103 51014 90500 222// 00064=
0088997270999992025010206004+39350-074420FM-13+001099999V02099999999999999999N999999999+00401+99999101071ADDMD1210111+9999SA1+0621REMSYN054ACYN4 46/// ///// 10040 40107 52011 90600 222// 00062=
0068997270999992025010207004+39350-074420FM-13+001099999V02099999999999999999N999999999+99999+99999101111ADDSA1+0611REMSYN048ACYN4 46/// ///// 1//// 40111 90636 222// 00061=
0088997270999992025010208004+39350-074420FM-13+001099999V02099999999999999999N999999999+00361+99999101221ADDMD1310191+9999SA1+0601REMSYN054ACYN4 46/// ///// 10036 40122 53019 90800 222// 00060=
0088997270999992025010209004+39350-074420FM-13+001099999V02099999999999999999N999999999+00291+99999101281ADDMD1110211+9999SA1+0621REMSYN054ACYN4 46/// ///// 10029 40128 51021 90900 222// 00062=
0088997270999992025010210004+39350-074420FM-13+001099999V02099999999999999999N999999999+00231+99999101361ADDMD1310211+9999SA1+0621REMSYN054ACYN4 46/// ///// 10023 40136 53021 91000 222// 00062=
0088997270999992025010211004+39350-074420FM-13+001099999V02099999999999999999N999999999+00191+99999101391ADDMD1110171+9999SA1+0641REMSYN054ACYN4 46/// ///// 10019 40139 51017 91100 222// 00064=
0088997270999992025010212004+39350-074420FM-13+001099999V02099999999999999999N999999999+00161+99999101451ADDMD1110171+9999SA1+0641REMSYN054ACYN4 46/// ///// 10016 40145 51017 91200 222// 00064=
0088997270999992025010213004+39350-074420FM-13+001099999V02099999999999999999N999999999+00261+99999101511ADDMD1310151+9999SA1+0651REMSYN054ACYN4 46/// ///// 10026 40151 53015 91300 222// 00065=
0088997270999992025010214004+39350-074420FM-13+001099999V02099999999999999999N999999999+00351+99999101601ADDMD1310211+9999SA1+0651REMSYN054ACYN4 46/// ///// 10035 40160 53021 91400 222// 00065=
0088997270999992025010215004+39350-074420FM-13+001099999V02099999999999999999N999999999+00441+99999101651ADDMD1110201+9999SA1+0631REMSYN054ACYN4 46/// ///// 10044 40165 51020 91500 222// 00063=
0088997270999992025010216004+39350-074420FM-13+001099999V02099999999999999999N999999999+00491+99999101621ADDMD1990111+9999SA1+0611REMSYN054ACYN4 46/// ///// 10049 40162 50011 91600 222// 00061=
0088997270999992025010217004+39350-074420FM-13+001099999V02099999999999999999N999999999+00531+99999101531ADDMD1810071+9999SA1+0581REMSYN054ACYN4 46/// ///// 10053 40153 58007 91700 222// 00058=
0088997270999992025010218004+39350-074420FM-13+001099999V02099999999999999999N999999999+00571+99999101461ADDMD1810191+9999SA1+0571REMSYN054ACYN4 46/// ///// 10057 40146 58019 91800 222// 00057=
0088997270999992025010219004+39350-074420FM-13+001099999V02099999999999999999N999999999+00541+99999101441ADDMD1610181+9999SA1+0561REMSYN054ACYN4 46/// ///// 10054 40144 56018 91900 222// 00056=
0088997270999992025010220004+39350-074420FM-13+001099999V02099999999999999999N999999999+00521+99999101451ADDMD1610081+9999SA1+0561REMSYN054ACYN4 46/// ///// 10052 40145 56008 92000 222// 00056=
0088997270999992025010221004+39350-074420FM-13+001099999V02099999999999999999N999999999+00411+99999101511ADDMD1310051+9999SA1+0591REMSYN054ACYN4 46/// ///// 10041 40151 53005 92100 222// 00059=
0088997270999992025010222004+39350-074420FM-13+001099999V02099999999999999999N999999999+00321+99999101551ADDMD1310111+9999SA1+0631REMSYN054ACYN4 46/// ///// 10032 40155 53011 92200 222// 00063=
0088997270999992025010223004+39350-074420FM-13+001099999V02099999999999999999N999999999+00241+99999101611ADDMD1210161+9999SA1+0631REMSYN054ACYN4 46/// ///// 10024 40161 52016 92300 222// 00063=
0088997270999992025010300004+39350-074420FM-13+001099999V02099999999999999999N999999999+00201+99999101671ADDMD1310161+9999SA1+0631REMSYN054ACYN4 46/// ///// 10020 40167 53016 90000 222// 00063=
0088997270999992025010301004+39350-074420FM-13+001099999V02099999999999999999N999999999+00161+99999101721ADDMD1110171+9999SA1+0631REMSYN054ACYN4 46/// ///// 10016 40172 51017 90100 222// 00063=
0088997270999992025010302004+39350-074420FM-13+001099999V02099999999999999999N999999999+00131+99999101691ADDMD1990081+9999SA1+0621REMSYN054ACYN4 46/// ///// 10013 40169 50008 90200 222// 00062=
0088997270999992025010303004+39350-074420FM-13+001099999V02099999999999999999N999999999+00161+99999101701ADDMD1110031+9999SA1+0621REMSYN054ACYN4 46/// ///// 10016 40170 51003 90300 222// 00062=
0088997270999992025010304004+39350-074420FM-13+001099999V02099999999999999999N999999999+00171+99999101681ADDMD1610041+9999SA1+0611REMSYN054ACYN4 46/// ///// 10017 40168 56004 90400 222// 00061=
0088997270999992025010305004+39350-074420FM-13+001099999V02099999999999999999N999999999+00161+99999101641ADDMD1810051+9999SA1+0581REMSYN054ACYN4 46/// ///// 10016 40164 58005 90500 222// 00058=
0088997270999992025010306004+39350-074420FM-13+001099999V02099999999999999999N999999999+00101+99999101641ADDMD1710061+9999SA1+0531REMSYN054ACYN4 46/// ///// 10010 40164 57006 90600 222// 00053=
0088997270999992025010307004+39350-074420FM-13+001099999V02099999999999999999N999999999+00051+99999101671ADDMD1510001+9999SA1+0521REMSYN054ACYN4 46/// ///// 10005 40167 55000 90700 222// 00052=
0088997270999992025010308004+39350-074420FM-13+001099999V02099999999999999999N999999999+00011+99999101681ADDMD1210041+9999SA1+0551REMSYN054ACYN4 46/// ///// 10001 40168 52004 90800 222// 00055=
0088997270999992025010309004+39350-074420FM-13+001099999V02099999999999999999N999999999-00011+99999101671ADDMD1110031+9999SA1+0561REMSYN054ACYN4 46/// ///// 11001 40167 51003 90900 222// 00056=
0088997270999992025010310004+39350-074420FM-13+001099999V02099999999999999999N999999999-00021+99999101621ADDMD1810051+9999SA1+0591REMSYN054ACYN4 46/// ///// 11002 40162 58005 91000 222// 00059=
0088997270999992025010311004+39350-074420FM-13+001099999V02099999999999999999N999999999-00081+99999101631ADDMD1710051+9999SA1+0621REMSYN054ACYN4 46/// ///// 11008 40163 57005 91100 222// 00062=
0088997270999992025010312004+39350-074420FM-13+001099999V02099999999999999999N999999999-00121+99999101621ADDMD1610051+9999SA1+0611REMSYN054ACYN4 46/// ///// 11012 40162 56005 91200 222// 00061=
0088997270999992025010313004+39350-074420FM-13+001099999V02099999999999999999N999999999-00041+99999101591ADDMD1810031+9999SA1+0501REMSYN054ACYN4 46/// ///// 11004 40159 58003 91300 222// 00050=
0088997270999992025010314004+39350-074420FM-13+001099999V02099999999999999999N999999999+00181+99999101581ADDMD1710051+9999SA1+0571REMSYN054ACYN4 46/// ///// 10018 40158 57005 91400 222// 00057=
0088997270999992025010315004+39350-074420FM-13+001099999V02099999999999999999N999999999+00291+99999101511ADDMD1810111+9999SA1+0601REMSYN054ACYN4 46/// ///// 10029 40151 58011 91500 222// 00060=
0088997270999992025010316004+39350-074420FM-13+001099999V02099999999999999999N999999999+00301+99999101371ADDMD1810221+9999SA1+0571REMSYN054ACYN4 46/// ///// 10030 40137 58022 91600 222// 00057=
0088997270999992025010317004+39350-074420FM-13+001099999V02099999999999999999N999999999+00271+99999101171ADDMD1810411+9999SA1+0531REMSYN054ACYN4 46/// ///// 10027 40117 58041 91700 222// 00053=
0088997270999992025010318004+39350-074420FM-13+001099999V02099999999999999999N999999999+00321+99999100991ADDMD1810521+9999SA1+0531REMSYN054ACYN4 46/// ///// 10032 40099 58052 91800 222// 00053=
0088997270999992025010319004+39350-074420FM-13+001099999V02099999999999999999N999999999+00301+99999100921ADDMD1610451+9999SA1+0521REMSYN054ACYN4 46/// ///// 10030 40092 56045 91900 222// 00052=
0088997270999992025010320004+39350-074420FM-13+001099999V02099999999999999999N999999999+00261+99999100871ADDMD1610301+9999SA1+0511REMSYN054ACYN4 46/// ///// 10026 40087 56030 92000 222// 00051=
0088997270999992025010321004+39350-074420FM-13+001099999V02099999999999999999N999999999+00321+99999100821ADDMD1610171+9999SA1+0511REMSYN054ACYN4 46/// ///// 10032 40082 56017 92100 222// 00051=
0088997270999992025010322004+39350-074420FM-13+001099999V02099999999999999999N999999999+00331+99999100791ADDMD1610131+9999SA1+0511REMSYN054ACYN4 46/// ///// 10033 40079 56013 92200 222// 00051=
0088997270999992025010323004+39350-074420FM-13+001099999V02099999999999999999N999999999+00311+99999100791ADDMD1610081+9999SA1+0541REMSYN054ACYN4 46/// ///// 10031 40079 56008 92300 222// 00054=
0088997270999992025010400004+39350-074420FM-13+001099999V02099999999999999999N999999999+00121+99999100811ADDMD1510001+9999SA1+0541REMSYN054ACYN4 46/// ///// 10012 40081 55000 90000 222// 00054=
0088997270999992025010401004+39350-074420FM-13+001099999V02099999999999999999N999999999+00051+99999100791ADDMD1410001+9999SA1+0551REMSYN054ACYN4 46/// ///// 10005 40079 54000 90100 222// 00055=
0088997270999992025010402004+39350-074420FM-13+001099999V02099999999999999999N999999999+00021+99999100801ADDMD1410001+9999SA1+0571REMSYN054ACYN4 46/// ///// 10002 40080 54000 90200 222// 00057=
0088997270999992025010403004+39350-074420FM-13+001099999V02099999999999999999N999999999-00031+99999100811ADDMD1410001+9999SA1+0581REMSYN054ACYN4 46/// ///// 11003 40081 54000 90300 222// 00058=
0088997270999992025010404004+39350-074420FM-13+001099999V02099999999999999999N999999999-00061+99999100821ADDMD1210031+9999SA1+0571REMSYN054ACYN4 46/// ///// 11006 40082 52003 90400 222// 00057=
0088997270999992025010405004+39350-074420FM-13+001099999V02099999999999999999N999999999-00051+99999100811ADDMD1410001+9999SA1+0561REMSYN054ACYN4 46/// ///// 11005 40081 54000 90500 222// 00056=
0088997270999992025010406004+39350-074420FM-13+001099999V02099999999999999999N999999999-00061+99999100831ADDMD1410001+9999SA1+0591REMSYN054ACYN4 46/// ///// 11006 40083 54000 90600 222// 00059=
0088997270999992025010407004+39350-074420FM-13+001099999V02099999999999999999N999999999-00111+99999100901ADDMD1310081+9999SA1+0611REMSYN054ACYN4 46/// ///// 11011 40090 53008 90700 222// 00061=
0088997270999992025010408004+39350-074420FM-13+001099999V02099999999999999999N999999999-00141+99999100951ADDMD1310141+9999SA1+0611REMSYN054ACYN4 46/// ///// 11014 40095 53014 90800 222// 00061=
0088997270999992025010409004+39350-074420FM-13+001099999V02099999999999999999N999999999-00141+99999100961ADDMD1110131+9999SA1+0601REMSYN054ACYN4 46/// ///// 11014 40096 51013 90900 222// 00060=
0088997270999992025010410004+39350-074420FM-13+001099999V02099999999999999999N999999999-00131+99999101011ADDMD1210111+9999SA1+0591REMSYN054ACYN4 46/// ///// 11013 40101 52011 91000 222// 00059=
0088997270999992025010411004+39350-074420FM-13+001099999V02099999999999999999N999999999-00171+99999101071ADDMD1310121+9999SA1+0581REMSYN054ACYN4 46/// ///// 11017 40107 53012 91100 222// 00058=
0088997270999992025010412004+39350-074420FM-13+001099999V02099999999999999999N999999999-00171+99999101131ADDMD1310171+9999SA1+0571REMSYN054ACYN4 46/// ///// 11017 40113 53017 91200 222// 00057=
0088997270999992025010413004+39350-074420FM-13+001099999V02099999999999999999N999999999-00091+99999101171ADDMD1110161+9999SA1+0561REMSYN054ACYN4 46/// ///// 11009 40117 51016 91300 222// 00056=
0088997270999992025010414004+39350-074420FM-13+001099999V02099999999999999999N999999999+00001+99999101231ADDMD1210161+9999SA1+0521REMSYN054ACYN4 46/// ///// 10000 40123 52016 91400 222// 00052=
0088997270999992025010415004+39350-074420FM-13+001099999V02099999999999999999N999999999+99999+99999101271ADDMD1210141+9999SA1+0511REMSYN054ACYN4 46/// ///// 1//// 40127 52014 91500 222// 00051=
0088997270999992025010416004+39350-074420FM-13+001099999V02099999999999999999N999999999+00101+99999101231ADDMD1990061+9999SA1+0511REMSYN054ACYN4 46/// ///// 10010 40123 50006 91600 222// 00051=
0088997270999992025010417004+39350-074420FM-13+001099999V02099999999999999999N999999999+00081+99999101191ADDMD1810041+9999SA1+0511REMSYN054ACYN4 46/// ///// 10008 40119 58004 91700 222// 00051=
0088997270999992025010418004+39350-074420FM-13+001099999V02099999999999999999N999999999+00051+99999101161ADDMD1610111+9999SA1+0521REMSYN054ACYN4 46/// ///// 10005 40116 56011 91800 222// 00052=
0088997270999992025010419004+39350-074420FM-13+001099999V02099999999999999999N999999999+99999+99999101191ADDMD1510041+9999SA1+0541REMSYN054ACYN4 46/// ///// 1//// 40119 55004 91900 222// 00054=
0088997270999992025010420004+39350-074420FM-13+001099999V02099999999999999999N999999999+99999+99999101261ADDMD1310071+9999SA1+0541REMSYN054ACYN4 46/// ///// 1//// 40126 53007 92000 222// 00054=
0088997270999992025010421004+39350-074420FM-13+001099999V02099999999999999999N999999999-00051+99999101341ADDMD1310181+9999SA1+0541REMSYN054ACYN4 46/// ///// 11005 40134 53018 92100 222// 00054=
0088997270999992025010422004+39350-074420FM-13+001099999V02099999999999999999N999999999-00091+99999101411ADDMD1210221+9999SA1+0541REMSYN054ACYN4 46/// ///// 11009 40141 52022 92200 222// 00054=
0088997270999992025010423004+39350-074420FM-13+001099999V02099999999999999999N999999999-00141+99999101501ADDMD1310241+9999SA1+0501REMSYN054ACYN4 46/// ///// 11014 40150 53024 92300 222// 00050=
0088997270999992025010500004+39350-074420FM-13+001099999V02099999999999999999N999999999+99999+99999101551ADDMD1110211+9999SA1+0531REMSYN054ACYN4 46/// ///// 1//// 40155 51021 90000 222// 00053=
0088997270999992025010501004+39350-074420FM-13+001099999V02099999999999999999N999999999-00221+99999101581ADDMD1110171+9999SA1+0501REMSYN054ACYN4 46/// ///// 11022 40158 51017 90100 222// 00050=
0088997270999992025010502004+39350-074420FM-13+001099999V02099999999999999999N999999999-00241+99999101581ADDMD1110081+9999SA1+0501REMSYN054ACYN4 46/// ///// 11024 40158 51008 90200 222// 00050=
0088997270999992025010503004+39350-074420FM-13+001099999V02099999999999999999N999999999-00251+99999101641ADDMD1310091+9999SA1+0451REMSYN054ACYN4 46/// ///// 11025 40164 53009 90300 222// 00045=
0088997270999992025010504004+39350-074420FM-13+001099999V02099999999999999999N999999999-00271+99999101701ADDMD1310121+9999SA1+0451REMSYN054ACYN4 46/// ///// 11027 40170 53012 90400 222// 00045=
0088997270999992025010505004+39350-074420FM-13+001099999V02099999999999999999N999999999-00291+99999101681ADDMD1110101+9999SA1+0481REMSYN054ACYN4 46/// ///// 11029 40168 51010 90500 222// 00048=
0088997270999992025010506004+39350-074420FM-13+001099999V02099999999999999999N999999999-00331+99999101651ADDMD1990001+9999SA1+0461REMSYN054ACYN4 46/// ///// 11033 40165 50000 90600 222// 00046=
0088997270999992025010507004+39350-074420FM-13+001099999V02099999999999999999N999999999-00301+99999101691ADDMD1510001+9999SA1+0441REMSYN054ACYN4 46/// ///// 11030 40169 55000 90700 222// 00044=
0088997270999992025010508004+39350-074420FM-13+001099999V02099999999999999999N999999999-00331+99999101721ADDMD1310041+9999SA1+0451REMSYN054ACYN4 46/// ///// 11033 40172 53004 90800 222// 00045=
0088997270999992025010509004+39350-074420FM-13+001099999V02099999999999999999N999999999-00371+99999101701ADDMD1110051+9999SA1+0451REMSYN054ACYN4 46/// ///// 11037 40170 51005 90900 222// 00045=
0088997270999992025010510004+39350-074420FM-13+001099999V02099999999999999999N999999999-00401+99999101731ADDMD1210041+9999SA1+0441REMSYN054ACYN4 46/// ///// 11040 40173 52004 91000 222// 00044=
0088997270999992025010511004+39350-074420FM-13+001099999V02099999999999999999N999999999-00431+99999101781ADDMD1310061+9999SA1+0451REMSYN054ACYN4 46/// ///// 11043 40178 53006 91100 222// 00045=
0088997270999992025010512004+39350-074420FM-13+001099999V02099999999999999999N999999999-00461+99999101851ADDMD1310151+9999SA1+0461REMSYN054ACYN4 46/// ///// 11046 40185 53015 91200 222// 00046=
0088997270999992025010513004+39350-074420FM-13+001099999V02099999999999999999N999999999-00351+99999101881ADDMD1110151+9999SA1+0461REMSYN054ACYN4 46/// ///// 11035 40188 51015 91300 222// 00046=
0068997270999992025010514004+39350-074420FM-13+001099999V02099999999999999999N999999999+99999+99999101881ADDSA1+0461REMSYN048ACYN4 46/// ///// 1//// 40188 91336 222// 00046=
0088997270999992025010515004+39350-074420FM-13+001099999V02099999999999999999N999999999-00211+99999101901ADDMD1110051+9999SA1+0401REMSYN054ACYN4 46/// ///// 11021 40190 51005 91500 222// 00040=
0088997270999992025010516004+39350-074420FM-13+001099999V02099999999999999999N999999999+99999+99999101811ADDMD1810071+9999SA1+0401REMSYN054ACYN4 46/// ///// 1//// 40181 58007 91600 222// 00040=
0088997270999992025010517004+39350-074420FM-13+001099999V02099999999999999999N999999999+99999+99999101711ADDMD1810171+9999SA1+0381REMSYN054ACYN4 46/// ///// 1//// 40171 58017 91700 222// 00038=
0088997270999992025010518004+39350-074420FM-13+001099999V02099999999999999999N999999999-00051+99999101661ADDMD1610241+9999SA1+0451REMSYN054ACYN4 46/// ///// 11005 40166 56024 91800 222// 00045=
0088997270999992025010519004+39350-074420FM-13+001099999V02099999999999999999N999999999+00001+99999101611ADDMD1610201+9999SA1+0421REMSYN054ACYN4 46/// ///// 10000 40161 56020 91900 222// 00042=
0088997270999992025010520004+39350-074420FM-13+001099999V02099999999999999999N999999999-00011+99999101661ADDMD1510051+9999SA1+0411REMSYN054ACYN4 46/// ///// 11001 40166 55005 92000 222// 00041=
0088997270999992025010521004+39350-074420FM-13+001099999V02099999999999999999N999999999-00021+99999101691ADDMD1310031+9999SA1+0451REMSYN054ACYN4 46/// ///// 11002 40169 53003 92100 222// 00045=
0088997270999992025010522004+39350-074420FM-13+001099999V02099999999999999999N999999999-00131+99999101741ADDMD1210131+9999SA1+0451REMSYN054ACYN4 46/// ///// 11013 40174 52013 92200 222// 00045=
0088997270999992025010523004+39350-074420FM-13+001099999V02099999999999999999N999999999-00181+99999101781ADDMD1310121+9999SA1+0461REMSYN054ACYN4 46/// ///// 11018 40178 53012 92300 222// 00046=
0088997270999992025010600004+39350-074420FM-13+001099999V02099999999999999999N999999999-00201+99999101801ADDMD1110111+9999SA1+0431REMSYN054ACYN4 46/// ///// 11020 40180 51011 90000 222// 00043=
0088997270999992025010601004+39350-074420FM-13+001099999V02099999999999999999N999999999-00241+99999101771ADDMD1990031+9999SA1+0421REMSYN054ACYN4 46/// ///// 11024 40177 50003 90100 222// 00042=
0088997270999992025010602004+39350-074420FM-13+001099999V02099999999999999999N999999999-00251+99999101771ADDMD1410001+9999SA1+0401REMSYN054ACYN4 46/// ///// 11025 40177 54000 90200 222// 00040=
0088997270999992025010603004+39350-074420FM-13+001099999V02099999999999999999N999999999-00241+99999101771ADDMD1610031+9999SA1+0421REMSYN054ACYN4 46/// ///// 11024 40177 56003 90300 222// 00042=
0088997270999992025010604004+39350-074420FM-13+001099999V02099999999999999999N999999999-00211+99999101791ADDMD1410001+9999SA1+0421REMSYN054ACYN4 46/// ///// 11021 40179 54000 90400 222// 00042=
0088997270999992025010605004+39350-074420FM-13+001099999V02099999999999999999N999999999-00201+99999101751ADDMD1990001+9999SA1+0411REMSYN054ACYN4 46/// ///// 11020 40175 50000 90500 222// 00041=
0088997270999992025010606004+39350-074420FM-13+001099999V02099999999999999999N999999999-00191+99999101671ADDMD1810101+9999SA1+0411REMSYN054ACYN4 46/// ///// 11019 40167 58010 90600 222// 00041=
0088997270999992025010607004+39350-074420FM-13+001099999V02099999999999999999N999999999-00181+99999101681ADDMD1610111+9999SA1+0401REMSYN054ACYN4 46/// ///// 11018 40168 56011 90700 222// 00040=
0088997270999992025010608004+39350-074420FM-13+001099999V02099999999999999999N999999999-00191+99999101641ADDMD1610111+9999SA1+0401REMSYN054ACYN4 46/// ///// 11019 40164 56011 90800 222// 00040=
0088997270999992025010609004+39350-074420FM-13+001099999V02099999999999999999N999999999-00191+99999101581ADDMD1810091+9999SA1+0391REMSYN054ACYN4 46/// ///// 11019 40158 58009 90900 222// 00039=
0088997270999992025010610004+39350-074420FM-13+001099999V02099999999999999999N999999999-00191+99999101521ADDMD1810161+9999SA1+0381REMSYN054ACYN4 46/// ///// 11019 40152 58016 91000 222// 00038=
0088997270999992025010611004+39350-074420FM-13+001099999V02099999999999999999N999999999-00361+99999101431ADDMD1810211+9999SA1+0381REMSYN054ACYN4 46/// ///// 11036 40143 58021 91100 222// 00038=
0088997270999992025010612004+39350-074420FM-13+001099999V02099999999999999999N999999999-00391+99999101341ADDMD1810241+9999SA1+0381REMSYN054ACYN4 46/// ///// 11039 40134 58024 91200 222// 00038=
0088997270999992025010613004+39350-074420FM-13+001099999V02099999999999999999N999999999-00361+99999101251ADDMD1710271+9999SA1+0381REMSYN054ACYN4 46/// ///// 11036 40125 57027 91300 222// 00038=
0088997270999992025010614004+39350-074420FM-13+001099999V02099999999999999999N999999999-00331+99999101191ADDMD1610241+9999SA1+0391REMSYN054ACYN4 46/// ///// 11033 40119 56024 91400 222// 00039=
0088997270999992025010615004+39350-074420FM-13+001099999V02099999999999999999N999999999-00351+99999101011ADDMD1810331+9999SA1+0401REMSYN054ACYN4 46/// ///// 11035 40101 58033 91500 222// 00040=
0088997270999992025010616004+39350-074420FM-13+001099999V02099999999999999999N999999999-00321+99999100911ADDMD1810341+9999SA1+0411REMSYN054ACYN4 46/// ///// 11032 40091 58034 91600 222// 00041=
0088997270999992025010617004+39350-074420FM-13+001099999V02099999999999999999N999999999-00321+99999100751ADDMD1610441+9999SA1+0431REMSYN054ACYN4 46/// ///// 11032 40075 56044 91700 222// 00043=
0088997270999992025010618004+39350-074420FM-13+001099999V02099999999999999999N999999999-00301+99999100551ADDMD1810461+9999SA1+0411REMSYN054ACYN4 46/// ///// 11030 40055 58046 91800 222// 00041=
0088997270999992025010619004+39350-074420FM-13+001099999V02099999999999999999N999999999-00301+99999100361ADDMD1810551+9999SA1+0411REMSYN054ACYN4 46/// ///// 11030 40036 58055 91900 222// 00041=
0088997270999992025010620004+39350-074420FM-13+001099999V02099999999999999999N999999999-00261+99999100261ADDMD1610491+9999SA1+0411REMSYN054ACYN4 46/// ///// 11026 40026 56049 92000 222// 00041=
0088997270999992025010621004+39350-074420FM-13+001099999V02099999999999999999N999999999-00231+99999100251ADDMD1610301+9999SA1+0411REMSYN054ACYN4 46/// ///// 11023 40025 56030 92100 222// 00041=
0088997270999992025010622004+39350-074420FM-13+001099999V02099999999999999999N999999999-00221+99999100171ADDMD1610191+9999SA1+0411REMSYN054ACYN4 46/// ///// 11022 40017 56019 92200 222// 00041=
0088997270999992025010623004+39350-074420FM-13+001099999V02099999999999999999N999999999-00221+99999100121ADDMD1810141+9999SA1+0401REMSYN054ACYN4 46/// ///// 11022 40012 58014 92300 222// 00040=
0088997270999992025010700004+39350-074420FM-13+001099999V02099999999999999999N999999999-00201+99999100061ADDMD1610191+9999SA1+0411REMSYN054ACYN4 46/// ///// 11020 40006 56019 90000 222// 00041=
0088997270999992025010701004+39350-074420FM-13+001099999V02099999999999999999N999999999-00211+99999100021ADDMD1610151+9999SA1+0401REMSYN054ACYN4 46/// ///// 11021 40002 56015 90100 222// 00040=
0088997270999992025010702004+39350-074420FM-13+001099999V02099999999999999999N999999999-00231+99999100151ADDMD1310031+9999SA1+0401REMSYN054ACYN4 46/// ///// 11023 40015 53003 90200 222// 00040=
0088997270999992025010703004+39350-074420FM-13+001099999V02099999999999999999N999999999-00231+99999100291ADDMD1310231+9999SA1+0411REMSYN054ACYN4 46/// ///// 11023 40029 53023 90300 222// 00041=
0088997270999992025010704004+39350-074420FM-13+001099999V02099999999999999999N999999999-00271+99999100401ADDMD1110381+9999SA1+0401REMSYN054ACYN4 46/// ///// 11027 40040 51038 90400 222// 00040=
0088997270999992025010705004+39350-074420FM-13+001099999V02099999999999999999N999999999-00371+99999100421ADDMD1110271+9999SA1+0391REMSYN054ACYN4 46/// ///// 11037 40042 51027 90500 222// 00039=
0088997270999992025010706004+39350-074420FM-13+001099999V02099999999999999999N999999999-00561+99999100481ADDMD1110191+9999SA1+0391REMSYN054ACYN4 46/// ///// 11056 40048 51019 90600 222// 00039=
0088997270999992025010707004+39350-074420FM-13+001099999V02099999999999999999N999999999-00701+99999100581ADDMD1310181+9999SA1+0371REMSYN054ACYN4 46/// ///// 11070 40058 53018 90700 222// 00037=
0088997270999992025010708004+39350-074420FM-13+001099999V02099999999999999999N999999999-00801+99999100671ADDMD1310251+9999SA1+0361REMSYN054ACYN4 46/// ///// 11080 40067 53025 90800 222// 00036=
0088997270999992025010709004+39350-074420FM-13+001099999V02099999999999999999N999999999-00791+99999100691ADDMD1110211+9999SA1+0361REMSYN054ACYN4 46/// ///// 11079 40069 51021 90900 222// 00036=
0088997270999992025010710004+39350-074420FM-13+001099999V02099999999999999999N999999999-00741+99999100771ADDMD1110191+9999SA1+0361REMSYN054ACYN4 46/// ///// 11074 40077 51019 91000 222// 00036=
0088997270999992025010711004+39350-074420FM-13+001099999V02099999999999999999N999999999-00681+99999100871ADDMD1310201+9999SA1+0351REMSYN054ACYN4 46/// ///// 11068 40087 53020 91100 222// 00035=
0088997270999992025010712004+39350-074420FM-13+001099999V02099999999999999999N999999999-00651+99999100961ADDMD1310271+9999SA1+0351REMSYN054ACYN4 46/// ///// 11065 40096 53027 91200 222// 00035=
0088997270999992025010713004+39350-074420FM-13+001099999V02099999999999999999N999999999-00591+99999101001ADDMD1110231+9999SA1+0351REMSYN054ACYN4 46/// ///// 11059 40100 51023 91300 222// 00035=
0088997270999992025010714004+39350-074420FM-13+001099999V02099999999999999999N999999999-00461+99999101071ADDMD1110201+9999SA1+0371REMSYN054ACYN4 46/// ///// 11046 40107 51020 91400 222// 00037=
0088997270999992025010715004+39350-074420FM-13+001099999V02099999999999999999N999999999-00381+99999101071ADDMD1110111+9999SA1+0361REMSYN054ACYN4 46/// ///// 11038 40107 51011 91500 222// 00036=
0088997270999992025010716004+39350-074420FM-13+001099999V02099999999999999999N999999999-00281+99999101101ADDMD1110101+9999SA1+0361REMSYN054ACYN4 46/// ///// 11028 40110 51010 91600 222// 00036=
0088997270999992025010717004+39350-074420FM-13+001099999V02099999999999999999N999999999-00181+99999101051ADDMD1990001+9999SA1+0361REMSYN054ACYN4 46/// ///// 11018 40105 50000 91700 222// 00036=
0088997270999992025010718004+39350-074420FM-13+001099999V02099999999999999999N999999999-00041+99999101021ADDMD1810051+9999SA1+0351REMSYN054ACYN4 46/// ///// 11004 40102 58005 91800 222// 00035=
0068997270999992025010719004+39350-074420FM-13+001099999V02099999999999999999N999999999+00031+99999101041ADDSA1+0351REMSYN048ACYN4 46/// ///// 10003 40104 91924 222// 00035=
0068997270999992025010722004+39350-074420FM-13+001099999V02099999999999999999N999999999-00071+99999101311ADDSA1+0351REMSYN048ACYN4 46/// ///// 11007 40131 92224 222// 00035=
0068997270999992025010723004+39350-074420FM-13+001099999V02099999999999999999N999999999-00091+99999101361ADDSA1+0331REMSYN048ACYN4 46/// ///// 11009 40136 92324 222// 00033=
0068997270999992025010800004+39350-074420FM-13+001099999V02099999999999999999N999999999+99999+99999101381ADDSA1+0321REMSYN048ACYN4 46/// ///// 1//// 40138 92342 222// 00032=
0088997270999992025010801004+39350-074420FM-13+001099999V02099999999999999999N999999999-00121+99999101451ADDMD1310171+9999SA1+0331REMSYN054ACYN4 46/// ///// 11012 40145 53017 90100 222// 00033=
0088997270999992025010802004+39350-074420FM-13+001099999V02099999999999999999N999999999-00161+99999101461ADDMD1110131+9999SA1+0291REMSYN054ACYN4 46/// ///// 11016 40146 51013 90200 222// 00029=
0088997270999992025010803004+39350-074420FM-13+001099999V02099999999999999999N999999999-00221+99999101521ADDMD1210131+9999SA1+0291REMSYN054ACYN4 46/// ///// 11022 40152 52013 90300 222// 00029=
0088997270999992025010804004+39350-074420FM-13+001099999V02099999999999999999N999999999-00251+99999101541ADDMD1210091+9999SA1+0301REMSYN054ACYN4 46/// ///// 11025 40154 52009 90400 222// 00030=
0088997270999992025010805004+39350-074420FM-13+001099999V02099999999999999999N999999999-00271+99999101561ADDMD1110101+9999SA1+0301REMSYN054ACYN4 46/// ///// 11027 40156 51010 90500 222// 00030=
0088997270999992025010806004+39350-074420FM-13+001099999V02099999999999999999N999999999-00301+99999101571ADDMD1210051+9999SA1+0271REMSYN054ACYN4 46/// ///// 11030 40157 52005 90600 222// 00027=
0088997270999992025010807004+39350-074420FM-13+001099999V02099999999999999999N999999999-00371+99999101611ADDMD1310071+9999SA1+0281REMSYN054ACYN4 46/// ///// 11037 40161 53007 90700 222// 00028=
0088997270999992025010808004+39350-074420FM-13+001099999V02099999999999999999N999999999-00391+99999101601ADDMD1210041+9999SA1+0281REMSYN054ACYN4 46/// ///// 11039 40160 52004 90800 222// 00028=
0088997270999992025010809004+39350-074420FM-13+001099999V02099999999999999999N999999999-00391+99999101561ADDMD1990001+9999SA1+0261REMSYN054ACYN4 46/// ///// 11039 40156 50000 90900 222// 00026=
0088997270999992025010810004+39350-074420FM-13+001099999V02099999999999999999N999999999-00381+99999101561ADDMD1710051+9999SA1+0241REMSYN054ACYN4 46/// ///// 11038 40156 57005 91000 222// 00024=
0088997270999992025010811004+39350-074420FM-13+001099999V02099999999999999999N999999999-00311+99999101581ADDMD1510001+9999SA1+0241REMSYN054ACYN4 46/// ///// 11031 40158 55000 91100 222// 00024=
0088997270999992025010812004+39350-074420FM-13+001099999V02099999999999999999N999999999-00331+99999101601ADDMD1210041+9999SA1+0251REMSYN054ACYN4 46/// ///// 11033 40160 52004 91200 222// 00025=
0088997270999992025010813004+39350-074420FM-13+001099999V02099999999999999999N999999999-00301+99999101621ADDMD1210061+9999SA1+0271REMSYN054ACYN4 46/// ///// 11030 40162 52006 91300 222// 00027=
0088997270999992025010814004+39350-074420FM-13+001099999V02099999999999999999N999999999-00171+99999101601ADDMD1410001+9999SA1+0261REMSYN054ACYN4 46/// ///// 11017 40160 54000 91400 222// 00026=
0088997270999992025010815004+39350-074420FM-13+001099999V02099999999999999999N999999999-00181+99999101551ADDMD1810051+9999SA1+0251REMSYN054ACYN4 46/// ///// 11018 40155 58005 91500 222// 00025=
0088997270999992025010816004+39350-074420FM-13+001099999V02099999999999999999N999999999-00111+99999101431ADDMD1810191+9999SA1+0261REMSYN054ACYN4 46/// ///// 11011 40143 58019 91600 222// 00026=
0088997270999992025010817004+39350-074420FM-13+001099999V02099999999999999999N999999999-00051+99999101311ADDMD1810291+9999SA1+0241REMSYN054ACYN4 46/// ///// 11005 40131 58029 91700 222// 00024=
0088997270999992025010818004+39350-074420FM-13+001099999V02099999999999999999N999999999-00081+99999101181ADDMD1810371+9999SA1+0271REMSYN054ACYN4 46/// ///// 11008 40118 58037 91800 222// 00027=
0088997270999992025010819004+39350-074420FM-13+001099999V02099999999999999999N999999999-00051+99999101081ADDMD1610351+9999SA1+0271REMSYN054ACYN4 46/// ///// 11005 40108 56035 91900 222// 00027=
0088997270999992025010820004+39350-074420FM-13+001099999V02099999999999999999N999999999-00081+99999101051ADDMD1610261+9999SA1+0311REMSYN054ACYN4 46/// ///// 11008 40105 56026 92000 222// 00031=
0088997270999992025010821004+39350-074420FM-13+001099999V02099999999999999999N999999999-00131+99999101041ADDMD1610141+9999SA1+0301REMSYN054ACYN4 46/// ///// 11013 40104 56014 92100 222// 00030=
0088997270999992025010822004+39350-074420FM-13+001099999V02099999999999999999N999999999-00201+99999101051ADDMD1610031+9999SA1+0281REMSYN054ACYN4 46/// ///// 11020 40105 56003 92200 222// 00028=
0088997270999992025010823004+39350-074420FM-13+001099999V02099999999999999999N999999999-00221+99999101051ADDMD1410001+9999SA1+0281REMSYN054ACYN4 46/// ///// 11022 40105 54000 92300 222// 00028=
0088997270999992025010900004+39350-074420FM-13+001099999V02099999999999999999N999999999-00271+99999101081ADDMD1310041+9999SA1+0281REMSYN054ACYN4 46/// ///// 11027 40108 53004 90000 222// 00028=
0088997270999992025010901004+39350-074420FM-13+001099999V02099999999999999999N999999999-00301+99999101091ADDMD1210041+9999SA1+0281REMSYN054ACYN4 46/// ///// 11030 40109 52004 90100 222// 00028=
0088997270999992025010902004+39350-074420FM-13+001099999V02099999999999999999N999999999-00361+99999101091ADDMD1110041+9999SA1+0291REMSYN054ACYN4 46/// ///// 11036 40109 51004 90200 222// 00029=
0088997270999992025010903004+39350-074420FM-13+001099999V02099999999999999999N999999999-00441+99999101081ADDMD1410001+9999SA1+0281REMSYN054ACYN4 46/// ///// 11044 40108 54000 90300 222// 00028=
0088997270999992025010904004+39350-074420FM-13+001099999V02099999999999999999N999999999-00501+99999101061ADDMD1710031+9999SA1+0271REMSYN054ACYN4 46/// ///// 11050 40106 57003 90400 222// 00027=
0088997270999992025010905004+39350-074420FM-13+001099999V02099999999999999999N999999999-00551+99999101021ADDMD1810071+9999SA1+0251REMSYN054ACYN4 46/// ///// 11055 40102 58007 90500 222// 00025=
0088997270999992025010906004+39350-074420FM-13+001099999V02099999999999999999N999999999-00581+99999100951ADDMD1810131+9999SA1+0221REMSYN054ACYN4 46/// ///// 11058 40095 58013 90600 222// 00022=
0088997270999992025010907004+39350-074420FM-13+001099999V02099999999999999999N999999999-00611+99999100951ADDMD1610111+9999SA1+0311REMSYN054ACYN4 46/// ///// 11061 40095 56011 90700 222// 00031=
0088997270999992025010908004+39350-074420FM-13+001099999V02099999999999999999N999999999-00631+99999100901ADDMD1610121+9999SA1+0251REMSYN054ACYN4 46/// ///// 11063 40090 56012 90800 222// 00025=
0088997270999992025010909004+39350-074420FM-13+001099999V02099999999999999999N999999999-00641+99999100811ADDMD1810141+9999SA1+0251REMSYN054ACYN4 46/// ///// 11064 40081 58014 90900 222// 00025=
0068997270999992025010910004+39350-074420FM-13+001099999V02099999999999999999N999999999-00641+99999100801ADDSA1+0231REMSYN048ACYN4 46/// ///// 11064 40080 90954 222// 00023=
0088997270999992025010911004+39350-074420FM-13+001099999V02099999999999999999N999999999-00641+99999100841ADDMD1510061+9999SA1+0201REMSYN054ACYN4 46/// ///// 11064 40084 55006 91100 222// 00020=
0088997270999992025010912004+39350-074420FM-13+001099999V02099999999999999999N999999999-00651+99999100841ADDMD1210031+9999SA1+0181REMSYN054ACYN4 46/// ///// 11065 40084 52003 91200 222// 00018=
0088997270999992025010913004+39350-074420FM-13+001099999V02099999999999999999N999999999-00581+99999100891ADDMD1310091+9999SA1+0211REMSYN054ACYN4 46/// ///// 11058 40089 53009 91300 222// 00021=
0088997270999992025010914004+39350-074420FM-13+001099999V02099999999999999999N999999999-00501+99999100881ADDMD1210041+9999SA1+0211REMSYN054ACYN4 46/// ///// 11050 40088 52004 91400 222// 00021=
0088997270999992025010915004+39350-074420FM-13+001099999V02099999999999999999N999999999-00401+99999100881ADDMD1110041+9999SA1+0201REMSYN054ACYN4 46/// ///// 11040 40088 51004 91500 222// 00020=
0088997270999992025010916004+39350-074420FM-13+001099999V02099999999999999999N999999999-00281+99999100871ADDMD1410001+9999SA1+0251REMSYN054ACYN4 46/// ///// 11028 40087 54000 91600 222// 00025=
0088997270999992025010917004+39350-074420FM-13+001099999V02099999999999999999N999999999-00181+99999100801ADDMD1810081+9999SA1+0231REMSYN054ACYN4 46/// ///// 11018 40080 58008 91700 222// 00023=
0088997270999992025010918004+39350-074420FM-13+001099999V02099999999999999999N999999999-00071+99999100791ADDMD1710091+9999SA1+0281REMSYN054ACYN4 46/// ///// 11007 40079 57009 91800 222// 00028=
0088997270999992025010919004+39350-074420FM-13+001099999V02099999999999999999N999999999-00031+99999100771ADDMD1610101+9999SA1+0311REMSYN054ACYN4 46/// ///// 11003 40077 56010 91900 222// 00031=
0088997270999992025010920004+39350-074420FM-13+001099999V02099999999999999999N999999999+00031+99999100781ADDMD1410001+9999SA1+0251REMSYN054ACYN4 46/// ///// 10003 40078 54000 92000 222// 00025=
0088997270999992025010923004+39350-074420FM-13+001099999V02099999999999999999N999999999-00071+99999100911ADDMD1210131+9999SA1+0251REMSYN054ACYN4 46/// ///// 11007 40091 52013 92300 222// 00025=
0088997270999992025011000004+39350-074420FM-13+001099999V02099999999999999999N999999999-00121+99999100981ADDMD1210151+9999SA1+0281REMSYN054ACYN4 46/// ///// 11012 40098 52015 90000 222// 00028=
0068997270999992025011001004+39350-074420FM-13+001099999V02099999999999999999N999999999+99999+99999101021ADDSA1+0271REMSYN048ACYN4 46/// ///// 1//// 40102 90048 222// 00027=
0088997270999992025011002004+39350-074420FM-13+001099999V02099999999999999999N999999999-00131+99999101081ADDMD1110171+9999SA1+0261REMSYN054ACYN4 46/// ///// 11013 40108 51017 90200 222// 00026=
0088997270999992025011003004+39350-074420FM-13+001099999V02099999999999999999N999999999-00131+99999101141ADDMD1310161+9999SA1+0241REMSYN054ACYN4 46/// ///// 11013 40114 53016 90300 222// 00024=
0088997270999992025011004004+39350-074420FM-13+001099999V02099999999999999999N999999999-00131+99999101181ADDMD1110161+9999SA1+0221REMSYN054ACYN4 46/// ///// 11013 40118 51016 90400 222// 00022=
0088997270999992025011005004+39350-074420FM-13+001099999V02099999999999999999N999999999-00181+99999101191ADDMD1110111+9999SA1+0231REMSYN054ACYN4 46/// ///// 11018 40119 51011 90500 222// 00023=
0088997270999992025011006004+39350-074420FM-13+001099999V02099999999999999999N999999999-00211+99999101211ADDMD1110071+9999SA1+0171REMSYN054ACYN4 46/// ///// 11021 40121 51007 90600 222// 00017=
0088997270999992025011007004+39350-074420FM-13+001099999V02099999999999999999N999999999-00241+99999101221ADDMD1210041+9999SA1+0161REMSYN054ACYN4 46/// ///// 11024 40122 52004 90700 222// 00016=
0088997270999992025011008004+39350-074420FM-13+001099999V02099999999999999999N999999999-00291+99999101241ADDMD1210051+9999SA1+0181REMSYN054ACYN4 46/// ///// 11029 40124 52005 90800 222// 00018=
0088997270999992025011009004+39350-074420FM-13+001099999V02099999999999999999N999999999-00341+99999101201ADDMD1990001+9999SA1+0211REMSYN054ACYN4 46/// ///// 11034 40120 50000 90900 222// 00021=
0088997270999992025011010004+39350-074420FM-13+001099999V02099999999999999999N999999999-00391+99999101371ADDMD1310151+9999SA1+0211REMSYN054ACYN4 46/// ///// 11039 40137 53015 91000 222// 00021=
0088997270999992025011011004+39350-074420FM-13+001099999V02099999999999999999N999999999-00401+99999101391ADDMD1310151+9999SA1+0211REMSYN054ACYN4 46/// ///// 11040 40139 53015 91100 222// 00021=
0088997270999992025011012004+39350-074420FM-13+001099999V02099999999999999999N999999999-00401+99999101441ADDMD1110241+9999SA1+0191REMSYN054ACYN4 46/// ///// 11040 40144 51024 91200 222// 00019=
0088997270999992025011013004+39350-074420FM-13+001099999V02099999999999999999N999999999-00341+99999101441ADDMD1210071+9999SA1+0201REMSYN054ACYN4 46/// ///// 11034 40144 52007 91300 222// 00020=
0088997270999992025011014004+39350-074420FM-13+001099999V02099999999999999999N999999999-00161+99999101471ADDMD1110081+9999SA1+0241REMSYN054ACYN4 46/// ///// 11016 40147 51008 91400 222// 00024=
0088997270999992025011015004+39350-074420FM-13+001099999V02099999999999999999N999999999-00061+99999101501ADDMD1310061+9999SA1+0251REMSYN054ACYN4 46/// ///// 11006 40150 53006 91500 222// 00025=
0088997270999992025011016004+39350-074420FM-13+001099999V02099999999999999999N999999999+00041+99999101401ADDMD1810041+9999SA1+0251REMSYN054ACYN4 46/// ///// 10004 40140 58004 91600 222// 00025=
0088997270999992025011017004+39350-074420FM-13+001099999V02099999999999999999N999999999+00161+99999101311ADDMD1810161+9999SA1+0251REMSYN054ACYN4 46/// ///// 10016 40131 58016 91700 222// 00025=
0088997270999992025011018004+39350-074420FM-13+001099999V02099999999999999999N999999999+00221+99999101231ADDMD1610271+9999SA1+0241REMSYN054ACYN4 46/// ///// 10022 40123 56027 91800 222// 00024=
0088997270999992025011019004+39350-074420FM-13+001099999V02099999999999999999N999999999+00261+99999101191ADDMD1610211+9999SA1+0221REMSYN054ACYN4 46/// ///// 10026 40119 56021 91900 222// 00022=
0088997270999992025011020004+39350-074420FM-13+001099999V02099999999999999999N999999999+00261+99999101201ADDMD1610111+9999SA1+0211REMSYN054ACYN4 46/// ///// 10026 40120 56011 92000 222// 00021=
0088997270999992025011021004+39350-074420FM-13+001099999V02099999999999999999N999999999+00241+99999101101ADDMD1810131+9999SA1+0231REMSYN054ACYN4 46/// ///// 10024 40110 58013 92100 222// 00023=
0088997270999992025011022004+39350-074420FM-13+001099999V02099999999999999999N999999999+00131+99999101121ADDMD1710071+9999SA1+0251REMSYN054ACYN4 46/// ///// 10013 40112 57007 92200 222// 00025=
0088997270999992025011023004+39350-074420FM-13+001099999V02099999999999999999N999999999+00091+99999101091ADDMD1610111+9999SA1+0241REMSYN054ACYN4 46/// ///// 10009 40109 56011 92300 222// 00024=
0088997270999992025011100004+39350-074420FM-13+001099999V02099999999999999999N999999999+00041+99999101041ADDMD1810061+9999SA1+0251REMSYN054ACYN4 46/// ///// 10004 40104 58006 90000 222// 00025=
0088997270999992025011101004+39350-074420FM-13+001099999V02099999999999999999N999999999-00011+99999101001ADDMD1810121+9999SA1+0261REMSYN054ACYN4 46/// ///// 11001 40100 58012 90100 222// 00026=
0088997270999992025011102004+39350-074420FM-13+001099999V02099999999999999999N999999999-00041+99999100921ADDMD1810171+9999SA1+0251REMSYN054ACYN4 46/// ///// 11004 40092 58017 90200 222// 00025=
0088997270999992025011103004+39350-074420FM-13+001099999V02099999999999999999N999999999-00061+99999100751ADDMD1810291+9999SA1+0251REMSYN054ACYN4 46/// ///// 11006 40075 58029 90300 222// 00025=
0088997270999992025011104004+39350-074420FM-13+001099999V02099999999999999999N999999999-00061+99999100711ADDMD1610291+9999SA1+0241REMSYN054ACYN4 46/// ///// 11006 40071 56029 90400 222// 00024=
0088997270999992025011105004+39350-074420FM-13+001099999V02099999999999999999N999999999-00061+99999100661ADDMD1610261+9999SA1+0231REMSYN054ACYN4 46/// ///// 11006 40066 56026 90500 222// 00023=
0088997270999992025011106004+39350-074420FM-13+001099999V02099999999999999999N999999999-00051+99999100561ADDMD1810191+9999SA1+0231REMSYN054ACYN4 46/// ///// 11005 40056 58019 90600 222// 00023=
0088997270999992025011107004+39350-074420FM-13+001099999V02099999999999999999N999999999-00061+99999100501ADDMD1810211+9999SA1+0201REMSYN054ACYN4 46/// ///// 11006 40050 58021 90700 222// 00020=
0088997270999992025011108004+39350-074420FM-13+001099999V02099999999999999999N999999999-00211+99999100341ADDMD1810321+9999SA1+0201REMSYN054ACYN4 46/// ///// 11021 40034 58032 90800 222// 00020=
0088997270999992025011109004+39350-074420FM-13+001099999V02099999999999999999N999999999-00241+99999100171ADDMD1810391+9999SA1+0211REMSYN054ACYN4 46/// ///// 11024 40017 58039 90900 222// 00021=
0088997270999992025011110004+39350-074420FM-13+001099999V02099999999999999999N999999999-00251+99999100031ADDMD1610471+9999SA1+0221REMSYN054ACYN4 46/// ///// 11025 40003 56047 91000 222// 00022=
0088997270999992025011111004+39350-074420FM-13+001099999V02099999999999999999N999999999-00241+99999099861ADDMD1710481+9999SA1+0211REMSYN054ACYN4 46/// ///// 11024 49986 57048 91100 222// 00021=
0088997270999992025011112004+39350-074420FM-13+001099999V02099999999999999999N999999999-00211+99999099861ADDMD1610311+9999SA1+0201REMSYN054ACYN4 46/// ///// 11021 49986 56031 91200 222// 00020=
0088997270999992025011113004+39350-074420FM-13+001099999V02099999999999999999N999999999-00201+99999099821ADDMD1610211+9999SA1+0181REMSYN054ACYN4 46/// ///// 11020 49982 56021 91300 222// 00018=
0088997270999992025011114004+39350-074420FM-13+001099999V02099999999999999999N999999999+99999+99999099821ADDMD1710041+9999SA1+0201REMSYN054ACYN4 46/// ///// 1//// 49982 57004 91400 222// 00020=
0088997270999992025011115004+39350-074420FM-13+001099999V02099999999999999999N999999999-00031+99999099831ADDMD1610031+9999SA1+0191REMSYN054ACYN4 46/// ///// 11003 49983 56003 91500 222// 00019=
0088997270999992025011116004+39350-074420FM-13+001099999V02099999999999999999N999999999-00081+99999099781ADDMD1810041+9999SA1+0211REMSYN054ACYN4 46/// ///// 11008 49978 58004 91600 222// 00021=
0088997270999992025011117004+39350-074420FM-13+001099999V02099999999999999999N999999999-00071+99999099711ADDMD1810111+9999SA1+0211REMSYN054ACYN4 46/// ///// 11007 49971 58011 91700 222// 00021=
0088997270999992025011118004+39350-074420FM-13+001099999V02099999999999999999N999999999-00061+99999099681ADDMD1610151+9999SA1+0211REMSYN054ACYN4 46/// ///// 11006 49968 56015 91800 222// 00021=
0088997270999992025011119004+39350-074420FM-13+001099999V02099999999999999999N999999999-00051+99999099751ADDMD1510031+9999SA1+0211REMSYN054ACYN4 46/// ///// 11005 49975 55003 91900 222// 00021=
0088997270999992025011120004+39350-074420FM-13+001099999V02099999999999999999N999999999+00001+99999099851ADDMD1310141+9999SA1+0221REMSYN054ACYN4 46/// ///// 10000 49985 53014 92000 222// 00022=
0088997270999992025011121004+39350-074420FM-13+001099999V02099999999999999999N999999999+00031+99999099991ADDMD1310311+9999SA1+0211REMSYN054ACYN4 46/// ///// 10003 49999 53031 92100 222// 00021=
0088997270999992025011122004+39350-074420FM-13+001099999V02099999999999999999N999999999+00011+99999100161ADDMD1310411+9999SA1+0211REMSYN054ACYN4 46/// ///// 10001 40016 53041 92200 222// 00021=
0088997270999992025011123004+39350-074420FM-13+001099999V02099999999999999999N999999999-00021+99999100291ADDMD1110441+9999SA1+0211REMSYN054ACYN4 46/// ///// 11002 40029 51044 92300 222// 00021=
0088997270999992025011200004+39350-074420FM-13+001099999V02099999999999999999N999999999+99999+99999100421ADDMD1110431+9999SA1+0211REMSYN054ACYN4 46/// ///// 1//// 40042 51043 90000 222// 00021=
0088997270999992025011201004+39350-074420FM-13+001099999V02099999999999999999N999999999-00041+99999100551ADDMD1210391+9999SA1+0211REMSYN054ACYN4 46/// ///// 11004 40055 52039 90100 222// 00021=
0088997270999992025011202004+39350-074420FM-13+001099999V02099999999999999999N999999999-00071+99999100631ADDMD1110341+9999SA1+0201REMSYN054ACYN4 46/// ///// 11007 40063 51034 90200 222// 00020=
0088997270999992025011203004+39350-074420FM-13+001099999V02099999999999999999N999999999-00151+99999100731ADDMD1110311+9999SA1+0181REMSYN054ACYN4 46/// ///// 11015 40073 51031 90300 222// 00018=
0088997270999992025011204004+39350-074420FM-13+001099999V02099999999999999999N999999999-00161+99999100821ADDMD1310271+9999SA1+0181REMSYN054ACYN4 46/// ///// 11016 40082 53027 90400 222// 00018=
0088997270999992025011205004+39350-074420FM-13+001099999V02099999999999999999N999999999-00211+99999100931ADDMD1310301+9999SA1+0171REMSYN054ACYN4 46/// ///// 11021 40093 53030 90500 222// 00017=
0088997270999992025011206004+39350-074420FM-13+001099999V02099999999999999999N999999999-00211+99999100971ADDMD1110241+9999SA1+0161REMSYN054ACYN4 46/// ///// 11021 40097 51024 90600 222// 00016=
0088997270999992025011207004+39350-074420FM-13+001099999V02099999999999999999N999999999-00241+99999101051ADDMD1110231+9999SA1+0171REMSYN054ACYN4 46/// ///// 11024 40105 51023 90700 222// 00017=
0088997270999992025011208004+39350-074420FM-13+001099999V02099999999999999999N999999999-00211+99999101161ADDMD1310231+9999SA1+0161REMSYN054ACYN4 46/// ///// 11021 40116 53023 90800 222// 00016=
0088997270999992025011209004+39350-074420FM-13+001099999V02099999999999999999N999999999-00201+99999101211ADDMD1110241+9999SA1+0161REMSYN054ACYN4 46/// ///// 11020 40121 51024 90900 222// 00016=
0088997270999992025011210004+39350-074420FM-13+001099999V02099999999999999999N999999999-00201+99999101271ADDMD1110221+9999SA1+0151REMSYN054ACYN4 46/// ///// 11020 40127 51022 91000 222// 00015=
0088997270999992025011211004+39350-074420FM-13+001099999V02099999999999999999N999999999-00181+99999101311ADDMD1110151+9999SA1+0151REMSYN054ACYN4 46/// ///// 11018 40131 51015 91100 222// 00015=
0088997270999992025011212004+39350-074420FM-13+001099999V02099999999999999999N999999999+99999+99999101331ADDMD1110121+9999SA1+0151REMSYN054ACYN4 46/// ///// 1//// 40133 51012 91200 222// 00015=
0088997270999992025011213004+39350-074420FM-13+001099999V02099999999999999999N999999999-00031+99999101411ADDMD1310141+9999SA1+0151REMSYN054ACYN4 46/// ///// 11003 40141 53014 91300 222// 00015=
0088997270999992025011214004+39350-074420FM-13+001099999V02099999999999999999N999999999+99999+99999101511ADDMD1310201+9999SA1+0151REMSYN054ACYN4 46/// ///// 1//// 40151 53020 91400 222// 00015=
0088997270999992025011215004+39350-074420FM-13+001099999V02099999999999999999N999999999+00301+99999101591ADDMD1210261+9999SA1+0141REMSYN054ACYN4 46/// ///// 10030 40159 52026 91500 222// 00014=
0088997270999992025011216004+39350-074420FM-13+001099999V02099999999999999999N999999999+99999+99999101621ADDMD1110211+9999SA1+0151REMSYN054ACYN4 46/// ///// 1//// 40162 51021 91600 222// 00015=
0088997270999992025011217004+39350-074420FM-13+001099999V02099999999999999999N999999999+00411+99999101561ADDMD1990051+9999SA1+0151REMSYN054ACYN4 46/// ///// 10041 40156 50005 91700 222// 00015=
0088997270999992025011218004+39350-074420FM-13+001099999V02099999999999999999N999999999+00441+99999101531ADDMD1810061+9999SA1+0151REMSYN054ACYN4 46/// ///// 10044 40153 58006 91800 222// 00015=
0088997270999992025011219004+39350-074420FM-13+001099999V02099999999999999999N999999999+99999+99999101511ADDMD1610111+9999SA1+0171REMSYN054ACYN4 46/// ///// 1//// 40151 56011 91900 222// 00017=
0088997270999992025011220004+39350-074420FM-13+001099999V02099999999999999999N999999999+00291+99999101481ADDMD1710081+9999SA1+0191REMSYN054ACYN4 46/// ///// 10029 40148 57008 92000 222// 00019=
0088997270999992025011221004+39350-074420FM-13+001099999V02099999999999999999N999999999+00461+99999101521ADDMD1510001+9999SA1+0191REMSYN054ACYN4 46/// ///// 10046 40152 55000 92100 222// 00019=
0088997270999992025011222004+39350-074420FM-13+001099999V02099999999999999999N999999999+00341+99999101601ADDMD1310091+9999SA1+0201REMSYN054ACYN4 46/// ///// 10034 40160 53009 92200 222// 00020=
0088997270999992025011223004+39350-074420FM-13+001099999V02099999999999999999N999999999+99999+99999101631ADDMD1110151+9999SA1+0191REMSYN054ACYN4 46/// ///// 1//// 40163 51015 92300 222// 00019=
0088997270999992025011300004+39350-074420FM-13+001099999V02099999999999999999N999999999+00211+99999101641ADDMD1110121+9999SA1+0181REMSYN054ACYN4 46/// ///// 10021 40164 51012 90000 222// 00018=
0088997270999992025011301004+39350-074420FM-13+001099999V02099999999999999999N999999999+00231+99999101651ADDMD1110051+9999SA1+0191REMSYN054ACYN4 46/// ///// 10023 40165 51005 90100 222// 00019=
0088997270999992025011302004+39350-074420FM-13+001099999V02099999999999999999N999999999+00191+99999101721ADDMD1310091+9999SA1+0181REMSYN054ACYN4 46/// ///// 10019 40172 53009 90200 222// 00018=
0088997270999992025011303004+39350-074420FM-13+001099999V02099999999999999999N999999999+00161+99999101741ADDMD1210101+9999SA1+0191REMSYN054ACYN4 46/// ///// 10016 40174 52010 90300 222// 00019=
0088997270999992025011304004+39350-074420FM-13+001099999V02099999999999999999N999999999+00181+99999101731ADDMD1110081+9999SA1+0181REMSYN054ACYN4 46/// ///// 10018 40173 51008 90400 222// 00018=
0088997270999992025011305004+39350-074420FM-13+001099999V02099999999999999999N999999999+00141+99999101671ADDMD1810051+9999SA1+0181REMSYN054ACYN4 46/// ///// 10014 40167 58005 90500 222// 00018=
0088997270999992025011306004+39350-074420FM-13+001099999V02099999999999999999N999999999+00111+99999101621ADDMD1810121+9999SA1+0181REMSYN054ACYN4 46/// ///// 10011 40162 58012 90600 222// 00018=
0088997270999992025011307004+39350-074420FM-13+001099999V02099999999999999999N999999999+00091+99999101651ADDMD1510081+9999SA1+0181REMSYN054ACYN4 46/// ///// 10009 40165 55008 90700 222// 00018=
0088997270999992025011308004+39350-074420FM-13+001099999V02099999999999999999N999999999+99999+99999101601ADDMD1710071+9999SA1+0171REMSYN054ACYN4 46/// ///// 1//// 40160 57007 90800 222// 00017=
0088997270999992025011309004+39350-074420FM-13+001099999V02099999999999999999N999999999+00021+99999101561ADDMD1810061+9999SA1+0171REMSYN054ACYN4 46/// ///// 10002 40156 58006 90900 222// 00017=
0088997270999992025011310004+39350-074420FM-13+001099999V02099999999999999999N999999999+00031+99999101571ADDMD1610081+9999SA1+0161REMSYN054ACYN4 46/// ///// 10003 40157 56008 91000 222// 00016=
0088997270999992025011311004+39350-074420FM-13+001099999V02099999999999999999N999999999+00021+99999101571ADDMD1610031+9999SA1+0171REMSYN054ACYN4 46/// ///// 10002 40157 56003 91100 222// 00017=
0088997270999992025011312004+39350-074420FM-13+001099999V02099999999999999999N999999999-00011+99999101561ADDMD1410001+9999SA1+0161REMSYN054ACYN4 46/// ///// 11001 40156 54000 91200 222// 00016=
0088997270999992025011313004+39350-074420FM-13+001099999V02099999999999999999N999999999+00201+99999101541ADDMD1710031+9999SA1+0161REMSYN054ACYN4 46/// ///// 10020 40154 57003 91300 222// 00016=
0088997270999992025011314004+39350-074420FM-13+001099999V02099999999999999999N999999999+00331+99999101551ADDMD1410001+9999SA1+0151REMSYN054ACYN4 46/// ///// 10033 40155 54000 91400 222// 00015=
0088997270999992025011315004+39350-074420FM-13+001099999V02099999999999999999N999999999+00341+99999101551ADDMD1410001+9999SA1+0161REMSYN054ACYN4 46/// ///// 10034 40155 54000 91500 222// 00016=
0088997270999992025011316004+39350-074420FM-13+001099999V02099999999999999999N999999999+00291+99999101501ADDMD1810041+9999SA1+0171REMSYN054ACYN4 46/// ///// 10029 40150 58004 91600 222// 00017=
0088997270999992025011317004+39350-074420FM-13+001099999V02099999999999999999N999999999+00271+99999101391ADDMD1810161+9999SA1+0181REMSYN054ACYN4 46/// ///// 10027 40139 58016 91700 222// 00018=
0088997270999992025011318004+39350-074420FM-13+001099999V02099999999999999999N999999999+00321+99999101271ADDMD1810281+9999SA1+0201REMSYN054ACYN4 46/// ///// 10032 40127 58028 91800 222// 00020=
0088997270999992025011319004+39350-074420FM-13+001099999V02099999999999999999N999999999+00411+99999101211ADDMD1610291+9999SA1+0201REMSYN054ACYN4 46/// ///// 10041 40121 56029 91900 222// 00020=
0088997270999992025011320004+39350-074420FM-13+001099999V02099999999999999999N999999999+00501+99999101181ADDMD1610211+9999SA1+0201REMSYN054ACYN4 46/// ///// 10050 40118 56021 92000 222// 00020=
0088997270999992025011321004+39350-074420FM-13+001099999V02099999999999999999N999999999+00641+99999101231ADDMD1510041+9999SA1+0201REMSYN054ACYN4 46/// ///// 10064 40123 55004 92100 222// 00020=
0088997270999992025011322004+39350-074420FM-13+001099999V02099999999999999999N999999999+00571+99999101271ADDMD1310061+9999SA1+0201REMSYN054ACYN4 46/// ///// 10057 40127 53006 92200 222// 00020=
0088997270999992025011323004+39350-074420FM-13+001099999V02099999999999999999N999999999+00511+99999101291ADDMD1110111+9999SA1+0201REMSYN054ACYN4 46/// ///// 10051 40129 51011 92300 222// 00020=
0088997270999992025011400004+39350-074420FM-13+001099999V02099999999999999999N999999999+00381+99999101321ADDMD1110091+9999SA1+0201REMSYN054ACYN4 46/// ///// 10038 40132 51009 90000 222// 00020=
0088997270999992025011401004+39350-074420FM-13+001099999V02099999999999999999N999999999+00401+99999101361ADDMD1310091+9999SA1+0201REMSYN054ACYN4 46/// ///// 10040 40136 53009 90100 222// 00020=
0088997270999992025011402004+39350-074420FM-13+001099999V02099999999999999999N999999999+00321+99999101381ADDMD1110091+9999SA1+0201REMSYN054ACYN4 46/// ///// 10032 40138 51009 90200 222// 00020=
0088997270999992025011403004+39350-074420FM-13+001099999V02099999999999999999N999999999+00301+99999101381ADDMD1110061+9999SA1+0201REMSYN054ACYN4 46/// ///// 10030 40138 51006 90300 222// 00020=
0088997270999992025011404004+39350-074420FM-13+001099999V02099999999999999999N999999999+00291+99999101361ADDMD1410001+9999SA1+0201REMSYN054ACYN4 46/// ///// 10029 40136 54000 90400 222// 00020=
0088997270999992025011405004+39350-074420FM-13+001099999V02099999999999999999N999999999+00251+99999101341ADDMD1710041+9999SA1+0201REMSYN054ACYN4 46/// ///// 10025 40134 57004 90500 222// 00020=
0088997270999992025011406004+39350-074420FM-13+001099999V02099999999999999999N999999999+00201+99999101361ADDMD1410001+9999SA1+0201REMSYN054ACYN4 46/// ///// 10020 40136 54000 90600 222// 00020=
0088997270999992025011407004+39350-074420FM-13+001099999V02099999999999999999N999999999+00131+99999101401ADDMD1310041+9999SA1+0191REMSYN054ACYN4 46/// ///// 10013 40140 53004 90700 222// 00019=
0088997270999992025011408004+39350-074420FM-13+001099999V02099999999999999999N999999999+00081+99999101461ADDMD1310121+9999SA1+0181REMSYN054ACYN4 46/// ///// 10008 40146 53012 90800 222// 00018=
0088997270999992025011409004+39350-074420FM-13+001099999V02099999999999999999N999999999-00031+99999101501ADDMD1210141+9999SA1+0181REMSYN054ACYN4 46/// ///// 11003 40150 52014 90900 222// 00018=
0088997270999992025011410004+39350-074420FM-13+001099999V02099999999999999999N999999999-00111+99999101561ADDMD1210161+9999SA1+0191REMSYN054ACYN4 46/// ///// 11011 40156 52016 91000 222// 00019=
0088997270999992025011411004+39350-074420FM-13+001099999V02099999999999999999N999999999-00151+99999101631ADDMD1310171+9999SA1+0201REMSYN054ACYN4 46/// ///// 11015 40163 53017 91100 222// 00020=
0088997270999992025011412004+39350-074420FM-13+001099999V02099999999999999999N999999999-00201+99999101721ADDMD1310221+9999SA1+0191REMSYN054ACYN4 46/// ///// 11020 40172 53022 91200 222// 00019=
0088997270999992025011413004+39350-074420FM-13+001099999V02099999999999999999N999999999-00161+99999101751ADDMD1110191+9999SA1+0211REMSYN054ACYN4 46/// ///// 11016 40175 51019 91300 222// 00021=
0088997270999992025011414004+39350-074420FM-13+001099999V02099999999999999999N999999999-00151+99999101841ADDMD1210211+9999SA1+0191REMSYN054ACYN4 46/// ///// 11015 40184 52021 91400 222// 00019=
0088997270999992025011415004+39350-074420FM-13+001099999V02099999999999999999N999999999-00161+99999101871ADDMD1210151+9999SA1+0181REMSYN054ACYN4 46/// ///// 11016 40187 52015 91500 222// 00018=
0088997270999992025011416004+39350-074420FM-13+001099999V02099999999999999999N999999999-00121+99999101871ADDMD1110121+9999SA1+0191REMSYN054ACYN4 46/// ///// 11012 40187 51012 91600 222// 00019=
0088997270999992025011417004+39350-074420FM-13+001099999V02099999999999999999N999999999-00061+99999101741ADDMD1810101+9999SA1+0221REMSYN054ACYN4 46/// ///// 11006 40174 58010 91700 222// 00022=
0045997270999992025011418004+39350-074420FM-13+001099999V02099999999999999999N999999999+99999+99999101651REMSYN036ACYN4 46/// ///// 1//// 40165 91742=
0088997270999992025011419004+39350-074420FM-13+001099999V02099999999999999999N999999999+00041+99999101581ADDMD1610291+9999SA1+0231REMSYN054ACYN4 46/// ///// 10004 40158 56029 91900 222// 00023=
0088997270999992025011420004+39350-074420FM-13+001099999V02099999999999999999N999999999+00051+99999101541ADDMD1610201+9999SA1+0241REMSYN054ACYN4 46/// ///// 10005 40154 56020 92000 222// 00024=
0088997270999992025011421004+39350-074420FM-13+001099999V02099999999999999999N999999999+00021+99999101581ADDMD1510031+9999SA1+0231REMSYN054ACYN4 46/// ///// 10002 40158 55003 92100 222// 00023=
0088997270999992025011422004+39350-074420FM-13+001099999V02099999999999999999N999999999-00091+99999101581ADDMD1510001+9999SA1+0221REMSYN054ACYN4 46/// ///// 11009 40158 55000 92200 222// 00022=
0068997270999992025011423004+39350-074420FM-13+001099999V02099999999999999999N999999999-00151+99999101641ADDSA1+0221REMSYN048ACYN4 46/// ///// 11015 40164 92254 222// 00022=
0088997270999992025011500004+39350-074420FM-13+001099999V02099999999999999999N999999999+99999+99999101691ADDMD1310111+9999SA1+0221REMSYN054ACYN4 46/// ///// 1//// 40169 53011 90000 222// 00022=
0088997270999992025011501004+39350-074420FM-13+001099999V02099999999999999999N999999999-00181+99999101691ADDMD1110111+9999SA1+0221REMSYN054ACYN4 46/// ///// 11018 40169 51011 90100 222// 00022=
0088997270999992025011502004+39350-074420FM-13+001099999V02099999999999999999N999999999-00151+99999101671ADDMD1990001+9999SA1+0221REMSYN054ACYN4 46/// ///// 11015 40167 50000 90200 222// 00022=
0088997270999992025011503004+39350-074420FM-13+001099999V02099999999999999999N999999999-00151+99999101691ADDMD1410001+9999SA1+0211REMSYN054ACYN4 46/// ///// 11015 40169 54000 90300 222// 00021=
0088997270999992025011504004+39350-074420FM-13+001099999V02099999999999999999N999999999-00231+99999101741ADDMD1310051+9999SA1+0201REMSYN054ACYN4 46/// ///// 11023 40174 53005 90400 222// 00020=
0088997270999992025011505004+39350-074420FM-13+001099999V02099999999999999999N999999999-00341+99999101781ADDMD1310111+9999SA1+0211REMSYN054ACYN4 46/// ///// 11034 40178 53011 90500 222// 00021=
0088997270999992025011506004+39350-074420FM-13+001099999V02099999999999999999N999999999-00431+99999101801ADDMD1110111+9999SA1+0211REMSYN054ACYN4 46/// ///// 11043 40180 51011 90600 222// 00021=
0068997270999992025011507004+39350-074420FM-13+001099999V02099999999999999999N999999999+99999+99999101851ADDSA1+0221REMSYN048ACYN4 46/// ///// 1//// 40185 90636 222// 00022=
0088997270999992025011508004+39350-074420FM-13+001099999V02099999999999999999N999999999-00521+99999101921ADDMD1310141+9999SA1+0221REMSYN054ACYN4 46/// ///// 11052 40192 53014 90800 222// 00022=
0088997270999992025011509004+39350-074420FM-13+001099999V02099999999999999999N999999999-00561+99999101981ADDMD1110181+9999SA1+0221REMSYN054ACYN4 46/// ///// 11056 40198 51018 90900 222// 00022=
0088997270999992025011510004+39350-074420FM-13+001099999V02099999999999999999N999999999-00581+99999102031ADDMD1210161+9999SA1+0241REMSYN054ACYN4 46/// ///// 11058 40203 52016 91000 222// 00024=
0088997270999992025011511004+39350-074420FM-13+001099999V02099999999999999999N999999999-00581+99999102061ADDMD1110141+9999SA1+0231REMSYN054ACYN4 46/// ///// 11058 40206 51014 91100 222// 00023=
0088997270999992025011512004+39350-074420FM-13+001099999V02099999999999999999N999999999-00581+99999102121ADDMD1310141+9999SA1+0221REMSYN054ACYN4 46/// ///// 11058 40212 53014 91200 222// 00022=
0088997270999992025011513004+39350-074420FM-13+001099999V02099999999999999999N999999999-00451+99999102151ADDMD1210121+9999SA1+0211REMSYN054ACYN4 46/// ///// 11045 40215 52012 91300 222// 00021=
0088997270999992025011514004+39350-074420FM-13+001099999V02099999999999999999N999999999-00341+99999102221ADDMD1310161+9999SA1+0191REMSYN054ACYN4 46/// ///// 11034 40222 53016 91400 222// 00019=
0088997270999992025011515004+39350-074420FM-13+001099999V02099999999999999999N999999999-00251+99999102281ADDMD1310161+9999SA1+0191REMSYN054ACYN4 46/// ///// 11025 40228 53016 91500 222// 00019=
0088997270999992025011516004+39350-074420FM-13+001099999V02099999999999999999N999999999-00191+99999102241ADDMD1990091+9999SA1+0181REMSYN054ACYN4 46/// ///// 11019 40224 50009 91600 222// 00018=
0088997270999992025011517004+39350-074420FM-13+001099999V02099999999999999999N999999999-00071+99999102121ADDMD1810101+9999SA1+0201REMSYN054ACYN4 46/// ///// 11007 40212 58010 91700 222// 00020=
0088997270999992025011518004+39350-074420FM-13+001099999V02099999999999999999N999999999-00041+99999101991ADDMD1810291+9999SA1+0211REMSYN054ACYN4 46/// ///// 11004 40199 58029 91800 222// 00021=
0088997270999992025011519004+39350-074420FM-13+001099999V02099999999999999999N999999999+00011+99999101941ADDMD1610301+9999SA1+0211REMSYN054ACYN4 46/// ///// 10001 40194 56030 91900 222// 00021=
0088997270999992025011520004+39350-074420FM-13+001099999V02099999999999999999N999999999+00061+99999101931ADDMD1610191+9999SA1+0201REMSYN054ACYN4 46/// ///// 10006 40193 56019 92000 222// 00020=
0088997270999992025011521004+39350-074420FM-13+001099999V02099999999999999999N999999999+00051+99999101991ADDMD1510001+9999SA1+0201REMSYN054ACYN4 46/// ///// 10005 40199 55000 92100 222// 00020=
0068997270999992025011522004+39350-074420FM-13+001099999V02099999999999999999N999999999+00011+99999102021ADDSA1+0201REMSYN048ACYN4 46/// ///// 10001 40202 92136 222// 00020=
0088997270999992025011523004+39350-074420FM-13+001099999V02099999999999999999N999999999-00101+99999102101ADDMD1210171+9999SA1+0201REMSYN054ACYN4 46/// ///// 11010 40210 52017 92300 222// 00020=
0088997270999992025011600004+39350-074420FM-13+001099999V02099999999999999999N999999999-00161+99999102111ADDMD1110121+9999SA1+0201REMSYN054ACYN4 46/// ///// 11016 40211 51012 90000 222// 00020=
0088997270999992025011601004+39350-074420FM-13+001099999V02099999999999999999N999999999-00181+99999102131ADDMD1110091+9999SA1+0221REMSYN054ACYN4 46/// ///// 11018 40213 51009 90100 222// 00022=
0088997270999992025011602004+39350-074420FM-13+001099999V02099999999999999999N999999999-00221+99999102131ADDMD1210031+9999SA1+0211REMSYN054ACYN4 46/// ///// 11022 40213 52003 90200 222// 00021=
0088997270999992025011603004+39350-074420FM-13+001099999V02099999999999999999N999999999-00271+99999102131ADDMD1410001+9999SA1+0201REMSYN054ACYN4 46/// ///// 11027 40213 54000 90300 222// 00020=
0088997270999992025011604004+39350-074420FM-13+001099999V02099999999999999999N999999999-00291+99999102151ADDMD1410001+9999SA1+0211REMSYN054ACYN4 46/// ///// 11029 40215 54000 90400 222// 00021=
0088997270999992025011605004+39350-074420FM-13+001099999V02099999999999999999N999999999-00371+99999102081ADDMD1810051+9999SA1+0211REMSYN054ACYN4 46/// ///// 11037 40208 58005 90500 222// 00021=
0088997270999992025011606004+39350-074420FM-13+001099999V02099999999999999999N999999999-00441+99999102041ADDMD1810091+9999SA1+0201REMSYN054ACYN4 46/// ///// 11044 40204 58009 90600 222// 00020=
0088997270999992025011607004+39350-074420FM-13+001099999V02099999999999999999N999999999-00491+99999102021ADDMD1610131+9999SA1+0161REMSYN054ACYN4 46/// ///// 11049 40202 56013 90700 222// 00016=
0088997270999992025011608004+39350-074420FM-13+001099999V02099999999999999999N999999999-00541+99999102001ADDMD1610081+9999SA1+0151REMSYN054ACYN4 46/// ///// 11054 40200 56008 90800 222// 00015=
0088997270999992025011609004+39350-074420FM-13+001099999V02099999999999999999N999999999-00571+99999101931ADDMD1810111+9999SA1+0161REMSYN054ACYN4 46/// ///// 11057 40193 58011 90900 222// 00016=
0088997270999992025011610004+39350-074420FM-13+001099999V02099999999999999999N999999999-00601+99999101901ADDMD1810121+9999SA1+0161REMSYN054ACYN4 46/// ///// 11060 40190 58012 91000 222// 00016=
0088997270999992025011611004+39350-074420FM-13+001099999V02099999999999999999N999999999-00621+99999101881ADDMD1610121+9999SA1+0161REMSYN054ACYN4 46/// ///// 11062 40188 56012 91100 222// 00016=
0088997270999992025011612004+39350-074420FM-13+001099999V02099999999999999999N999999999-00631+99999101861ADDMD1610071+9999SA1+0151REMSYN054ACYN4 46/// ///// 11063 40186 56007 91200 222// 00015=
0088997270999992025011613004+39350-074420FM-13+001099999V02099999999999999999N999999999-00481+99999101841ADDMD1710061+9999SA1+0151REMSYN054ACYN4 46/// ///// 11048 40184 57006 91300 222// 00015=
0088997270999992025011614004+39350-074420FM-13+001099999V02099999999999999999N999999999-00391+99999101801ADDMD1810081+9999SA1+0131REMSYN054ACYN4 46/// ///// 11039 40180 58008 91400 222// 00013=
0088997270999992025011615004+39350-074420FM-13+001099999V02099999999999999999N999999999-00281+99999101731ADDMD1810131+9999SA1+0131REMSYN054ACYN4 46/// ///// 11028 40173 58013 91500 222// 00013=
0088997270999992025011616004+39350-074420FM-13+001099999V02099999999999999999N999999999-00351+99999101621ADDMD1810221+9999SA1+0141REMSYN054ACYN4 46/// ///// 11035 40162 58022 91600 222// 00014=
0088997270999992025011617004+39350-074420FM-13+001099999V02099999999999999999N999999999-00291+99999101401ADDMD1810401+9999SA1+0131REMSYN054ACYN4 46/// ///// 11029 40140 58040 91700 222// 00013=
0088997270999992025011618004+39350-074420FM-13+001099999V02099999999999999999N999999999-00171+99999101241ADDMD1810491+9999SA1+0131REMSYN054ACYN4 46/// ///// 11017 40124 58049 91800 222// 00013=
0088997270999992025011619004+39350-074420FM-13+001099999V02099999999999999999N999999999-00141+99999101041ADDMD1610581+9999SA1+0151REMSYN054ACYN4 46/// ///// 11014 40104 56058 91900 222// 00015=
0088997270999992025011620004+39350-074420FM-13+001099999V02099999999999999999N999999999-00051+99999101001ADDMD1610401+9999SA1+0141REMSYN054ACYN4 46/// ///// 11005 40100 56040 92000 222// 00014=
0088997270999992025011621004+39350-074420FM-13+001099999V02099999999999999999N999999999-00071+99999100971ADDMD1610271+9999SA1+0121REMSYN054ACYN4 46/// ///// 11007 40097 56027 92100 222// 00012=
0088997270999992025011622004+39350-074420FM-13+001099999V02099999999999999999N999999999+00001+99999100871ADDMD1810171+9999SA1+0131REMSYN054ACYN4 46/// ///// 10000 40087 58017 92200 222// 00013=
0088997270999992025011623004+39350-074420FM-13+001099999V02099999999999999999N999999999-00031+99999100881ADDMD1610121+9999SA1+0141REMSYN054ACYN4 46/// ///// 11003 40088 56012 92300 222// 00014=
0088997270999992025011700004+39350-074420FM-13+001099999V02099999999999999999N999999999-00051+99999100901ADDMD1610071+9999SA1+0151REMSYN054ACYN4 46/// ///// 11005 40090 56007 90000 222// 00015=
0088997270999992025011701004+39350-074420FM-13+001099999V02099999999999999999N999999999-00041+99999100911ADDMD1210041+9999SA1+0161REMSYN054ACYN4 46/// ///// 11004 40091 52004 90100 222// 00016=
0088997270999992025011702004+39350-074420FM-13+001099999V02099999999999999999N999999999-00091+99999100951ADDMD1310071+9999SA1+0171REMSYN054ACYN4 46/// ///// 11009 40095 53007 90200 222// 00017=
0088997270999992025011703004+39350-074420FM-13+001099999V02099999999999999999N999999999-00111+99999100981ADDMD1310081+9999SA1+0161REMSYN054ACYN4 46/// ///// 11011 40098 53008 90300 222// 00016=
0088997270999992025011704004+39350-074420FM-13+001099999V02099999999999999999N999999999-00101+99999101021ADDMD1210111+9999SA1+0161REMSYN054ACYN4 46/// ///// 11010 40102 52011 90400 222// 00016=
0088997270999992025011705004+39350-074420FM-13+001099999V02099999999999999999N999999999-00111+99999101061ADDMD1310111+9999SA1+0151REMSYN054ACYN4 46/// ///// 11011 40106 53011 90500 222// 00015=
0088997270999992025011706004+39350-074420FM-13+001099999V02099999999999999999N999999999-00101+99999101131ADDMD1310151+9999SA1+0171REMSYN054ACYN4 46/// ///// 11010 40113 53015 90600 222// 00017=
0088997270999992025011707004+39350-074420FM-13+001099999V02099999999999999999N999999999-00131+99999101201ADDMD1310181+9999SA1+0171REMSYN054ACYN4 46/// ///// 11013 40120 53018 90700 222// 00017=
0088997270999992025011708004+39350-074420FM-13+001099999V02099999999999999999N999999999-00181+99999101261ADDMD1110201+9999SA1+0171REMSYN054ACYN4 46/// ///// 11018 40126 51020 90800 222// 00017=
0088997270999992025011709004+39350-074420FM-13+001099999V02099999999999999999N999999999-00251+99999101321ADDMD1110191+9999SA1+0151REMSYN054ACYN4 46/// ///// 11025 40132 51019 90900 222// 00015=
0088997270999992025011710004+39350-074420FM-13+001099999V02099999999999999999N999999999-00291+99999101401ADDMD1310201+9999SA1+0191REMSYN054ACYN4 46/// ///// 11029 40140 53020 91000 222// 00019=
0088997270999992025011711004+39350-074420FM-13+001099999V02099999999999999999N999999999-00311+99999101481ADDMD1310221+9999SA1+0151REMSYN054ACYN4 46/// ///// 11031 40148 53022 91100 222// 00015=
0088997270999992025011712004+39350-074420FM-13+001099999V02099999999999999999N999999999-00321+99999101621ADDMD1310301+9999SA1+0151REMSYN054ACYN4 46/// ///// 11032 40162 53030 91200 222// 00015=
0088997270999992025011713004+39350-074420FM-13+001099999V02099999999999999999N999999999-00101+99999101761ADDMD1310361+9999SA1+0161REMSYN054ACYN4 46/// ///// 11010 40176 53036 91300 222// 00016=
0088997270999992025011714004+39350-074420FM-13+001099999V02099999999999999999N999999999+00161+99999101871ADDMD1110391+9999SA1+0151REMSYN054ACYN4 46/// ///// 10016 40187 51039 91400 222// 00015=
0088997270999992025011715004+39350-074420FM-13+001099999V02099999999999999999N999999999+99999+99999101941ADDMD1110321+9999SA1+0161REMSYN054ACYN4 46/// ///// 1//// 40194 51032 91500 222// 00016=
0088997270999992025011716004+39350-074420FM-13+001099999V02099999999999999999N999999999+00321+99999101941ADDMD1110181+9999SA1+0171REMSYN054ACYN4 46/// ///// 10032 40194 51018 91600 222// 00017=
0088997270999992025011717004+39350-074420FM-13+001099999V02099999999999999999N999999999+00381+99999101881ADDMD1990001+9999SA1+0171REMSYN054ACYN4 46/// ///// 10038 40188 50000 91700 222// 00017=
0088997270999992025011718004+39350-074420FM-13+001099999V02099999999999999999N999999999+00521+99999101831ADDMD1810111+9999SA1+0181REMSYN054ACYN4 46/// ///// 10052 40183 58011 91800 222// 00018=
0088997270999992025011719004+39350-074420FM-13+001099999V02099999999999999999N999999999+99999+99999101761ADDMD1810181+9999SA1+0191REMSYN054ACYN4 46/// ///// 1//// 40176 58018 91900 222// 00019=
0088997270999992025011720004+39350-074420FM-13+001099999V02099999999999999999N999999999+00581+99999101731ADDMD1610151+9999SA1+0171REMSYN054ACYN4 46/// ///// 10058 40173 56015 92000 222// 00017=
0088997270999992025011721004+39350-074420FM-13+001099999V02099999999999999999N999999999+00311+99999101761ADDMD1510071+9999SA1+0171REMSYN054ACYN4 46/// ///// 10031 40176 55007 92100 222// 00017=
0088997270999992025011722004+39350-074420FM-13+001099999V02099999999999999999N999999999+00341+99999101841ADDMD1310081+9999SA1+0211REMSYN054ACYN4 46/// ///// 10034 40184 53008 92200 222// 00021=
0088997270999992025011723004+39350-074420FM-13+001099999V02099999999999999999N999999999+00361+99999101901ADDMD1310171+9999SA1+0191REMSYN054ACYN4 46/// ///// 10036 40190 53017 92300 222// 00019=
0088997270999992025011800004+39350-074420FM-13+001099999V02099999999999999999N999999999+00201+99999101961ADDMD1110201+9999SA1+0201REMSYN054ACYN4 46/// ///// 10020 40196 51020 90000 222// 00020=
0088997270999992025011801004+39350-074420FM-13+001099999V02099999999999999999N999999999+00221+99999101981ADDMD1110141+9999SA1+0191REMSYN054ACYN4 46/// ///// 10022 40198 51014 90100 222// 00019=
0088997270999992025011802004+39350-074420FM-13+001099999V02099999999999999999N999999999+00331+99999101991ADDMD1110091+9999SA1+0191REMSYN054ACYN4 46/// ///// 10033 40199 51009 90200 222// 00019=
0088997270999992025011803004+39350-074420FM-13+001099999V02099999999999999999N999999999+00361+99999101951ADDMD1990001+9999SA1+0181REMSYN054ACYN4 46/// ///// 10036 40195 50000 90300 222// 00018=
0088997270999992025011804004+39350-074420FM-13+001099999V02099999999999999999N999999999+00371+99999101951ADDMD1710031+9999SA1+0191REMSYN054ACYN4 46/// ///// 10037 40195 57003 90400 222// 00019=
0088997270999992025011805004+39350-074420FM-13+001099999V02099999999999999999N999999999+00391+99999101931ADDMD1610061+9999SA1+0191REMSYN054ACYN4 46/// ///// 10039 40193 56006 90500 222// 00019=
0088997270999992025011806004+39350-074420FM-13+001099999V02099999999999999999N999999999+00401+99999101841ADDMD1810111+9999SA1+0191REMSYN054ACYN4 46/// ///// 10040 40184 58011 90600 222// 00019=
0088997270999992025011807004+39350-074420FM-13+001099999V02099999999999999999N999999999+00411+99999101821ADDMD1710131+9999SA1+0191REMSYN054ACYN4 46/// ///// 10041 40182 57013 90700 222// 00019=
0088997270999992025011808004+39350-074420FM-13+001099999V02099999999999999999N999999999+00421+99999101811ADDMD1610121+9999SA1+0191REMSYN054ACYN4 46/// ///// 10042 40181 56012 90800 222// 00019=
0088997270999992025011809004+39350-074420FM-13+001099999V02099999999999999999N999999999+00451+99999101771ADDMD1810071+9999SA1+0191REMSYN054ACYN4 46/// ///// 10045 40177 58007 90900 222// 00019=
0088997270999992025011810004+39350-074420FM-13+001099999V02099999999999999999N999999999+00461+99999101701ADDMD1810121+9999SA1+0201REMSYN054ACYN4 46/// ///// 10046 40170 58012 91000 222// 00020=
0088997270999992025011811004+39350-074420FM-13+001099999V02099999999999999999N999999999+00481+99999101631ADDMD1810181+9999SA1+0201REMSYN054ACYN4 46/// ///// 10048 40163 58018 91100 222// 00020=
0088997270999992025011812004+39350-074420FM-13+001099999V02099999999999999999N999999999+00481+99999101601ADDMD1610171+9999SA1+0201REMSYN054ACYN4 46/// ///// 10048 40160 56017 91200 222// 00020=
0088997270999992025011813004+39350-074420FM-13+001099999V02099999999999999999N999999999+00501+99999101541ADDMD1610161+9999SA1+0211REMSYN054ACYN4 46/// ///// 10050 40154 56016 91300 222// 00021=
0088997270999992025011814004+39350-074420FM-13+001099999V02099999999999999999N999999999+00501+99999101481ADDMD1810151+9999SA1+0231REMSYN054ACYN4 46/// ///// 10050 40148 58015 91400 222// 00023=
0088997270999992025011815004+39350-074420FM-13+001099999V02099999999999999999N999999999+00591+99999101401ADDMD1810201+9999SA1+0231REMSYN054ACYN4 46/// ///// 10059 40140 58020 91500 222// 00023=
0088997270999992025011816004+39350-074420FM-13+001099999V02099999999999999999N999999999+00581+99999101231ADDMD1810311+9999SA1+0231REMSYN054ACYN4 46/// ///// 10058 40123 58031 91600 222// 00023=
0088997270999992025011817004+39350-074420FM-13+001099999V02099999999999999999N999999999+99999+99999101041ADDMD1810441+9999SA1+0251REMSYN054ACYN4 46/// ///// 1//// 40104 58044 91700 222// 00025=
0068997270999992025011818004+39350-074420FM-13+001099999V02099999999999999999N999999999+99999+99999100791ADDSA1+0261REMSYN048ACYN4 46/// ///// 1//// 40079 91812 222// 00026=
0088997270999992025011819004+39350-074420FM-13+001099999V02099999999999999999N999999999+00621+99999100731ADDMD1710501+9999SA1+0261REMSYN054ACYN4 46/// ///// 10062 40073 57050 91900 222// 00026=
0088997270999992025011820004+39350-074420FM-13+001099999V02099999999999999999N999999999+00651+99999100671ADDMD1710371+9999SA1+0261REMSYN054ACYN4 46/// ///// 10065 40067 57037 92000 222// 00026=
0068997270999992025011821004+39350-074420FM-13+001099999V02099999999999999999N999999999+00571+99999100661ADDSA1+0261REMSYN048ACYN4 46/// ///// 10057 40066 92036 222// 00026=
0088997270999992025011822004+39350-074420FM-13+001099999V02099999999999999999N999999999+00511+99999100631ADDMD1610101+9999SA1+0271REMSYN054ACYN4 46/// ///// 10051 40063 56010 92200 222// 00027=
0088997270999992025011823004+39350-074420FM-13+001099999V02099999999999999999N999999999+00471+99999100641ADDMD1710031+9999SA1+0271REMSYN054ACYN4 46/// ///// 10047 40064 57003 92300 222// 00027=
0088997270999992025011900004+39350-074420FM-13+001099999V02099999999999999999N999999999+99999+99999100691ADDMD1310031+9999SA1+0271REMSYN054ACYN4 46/// ///// 1//// 40069 53003 90000 222// 00027=
0088997270999992025011901004+39350-074420FM-13+001099999V02099999999999999999N999999999+00471+99999100711ADDMD1210081+9999SA1+0271REMSYN054ACYN4 46/// ///// 10047 40071 52008 90100 222// 00027=
0088997270999992025011902004+39350-074420FM-13+001099999V02099999999999999999N999999999+00431+99999100721ADDMD1110081+9999SA1+0271REMSYN054ACYN4 46/// ///// 10043 40072 51008 90200 222// 00027=
0088997270999992025011903004+39350-074420FM-13+001099999V02099999999999999999N999999999+00591+99999100711ADDMD1410001+9999SA1+0271REMSYN054ACYN4 46/// ///// 10059 40071 54000 90300 222// 00027=
0088997270999992025011904004+39350-074420FM-13+001099999V02099999999999999999N999999999+00531+99999100701ADDMD1410001+9999SA1+0271REMSYN054ACYN4 46/// ///// 10053 40070 54000 90400 222// 00027=
0088997270999992025011905004+39350-074420FM-13+001099999V02099999999999999999N999999999+00461+99999100711ADDMD1410001+9999SA1+0281REMSYN054ACYN4 46/// ///// 10046 40071 54000 90500 222// 00028=
0088997270999992025011906004+39350-074420FM-13+001099999V02099999999999999999N999999999+00411+99999100711ADDMD1410001+9999SA1+0281REMSYN054ACYN4 46/// ///// 10041 40071 54000 90600 222// 00028=
0088997270999992025011907004+39350-074420FM-13+001099999V02099999999999999999N999999999+99999+99999100731ADDMD1210031+9999SA1+0271REMSYN054ACYN4 46/// ///// 1//// 40073 52003 90700 222// 00027=
0088997270999992025011908004+39350-074420FM-13+001099999V02099999999999999999N999999999+00361+99999100691ADDMD1990001+9999SA1+0281REMSYN054ACYN4 46/// ///// 10036 40069 50000 90800 222// 00028=
0088997270999992025011909004+39350-074420FM-13+001099999V02099999999999999999N999999999+99999+99999100721ADDMD1510001+9999SA1+0281REMSYN054ACYN4 46/// ///// 1//// 40072 55000 90900 222// 00028=
0088997270999992025011910004+39350-074420FM-13+001099999V02099999999999999999N999999999+00361+99999100741ADDMD1510001+9999SA1+0281REMSYN054ACYN4 46/// ///// 10036 40074 55000 91000 222// 00028=
0088997270999992025011911004+39350-074420FM-13+001099999V02099999999999999999N999999999+00311+99999100781ADDMD1310091+9999SA1+0291REMSYN054ACYN4 46/// ///// 10031 40078 53009 91100 222// 00029=
0088997270999992025011912004+39350-074420FM-13+001099999V02099999999999999999N999999999+00301+99999100891ADDMD1310171+9999SA1+0291REMSYN054ACYN4 46/// ///// 10030 40089 53017 91200 222// 00029=
0088997270999992025011913004+39350-074420FM-13+001099999V02099999999999999999N999999999+00321+99999100871ADDMD1110131+9999SA1+0291REMSYN054ACYN4 46/// ///// 10032 40087 51013 91300 222// 00029=
0068997270999992025011914004+39350-074420FM-13+001099999V02099999999999999999N999999999+00331+99999100901ADDSA1+0291REMSYN048ACYN4 46/// ///// 10033 40090 91336 222// 00029=
0088997270999992025011915004+39350-074420FM-13+001099999V02099999999999999999N999999999+00311+99999100891ADDMD1410001+9999SA1+0261REMSYN054ACYN4 46/// ///// 10031 40089 54000 91500 222// 00026=
0088997270999992025011916004+39350-074420FM-13+001099999V02099999999999999999N999999999+00311+99999100791ADDMD1810081+9999SA1+0241REMSYN054ACYN4 46/// ///// 10031 40079 58008 91600 222// 00024=
0088997270999992025011917004+39350-074420FM-13+001099999V02099999999999999999N999999999+99999+99999100631ADDMD1810261+9999SA1+0251REMSYN054ACYN4 46/// ///// 1//// 40063 58026 91700 222// 00025=
0088997270999992025011918004+39350-074420FM-13+001099999V02099999999999999999N999999999+00421+99999100471ADDMD1810421+9999SA1+0251REMSYN054ACYN4 46/// ///// 10042 40047 58042 91800 222// 00025=
0088997270999992025011919004+39350-074420FM-13+001099999V02099999999999999999N999999999+00461+99999100261ADDMD1810531+9999SA1+0261REMSYN054ACYN4 46/// ///// 10046 40026 58053 91900 222// 00026=
0088997270999992025011920004+39350-074420FM-13+001099999V02099999999999999999N999999999+00421+99999100151ADDMD1610481+9999SA1+0261REMSYN054ACYN4 46/// ///// 10042 40015 56048 92000 222// 00026=
0068997270999992025011921004+39350-074420FM-13+001099999V02099999999999999999N999999999+99999+99999100151ADDSA1+0261REMSYN048ACYN4 46/// ///// 1//// 40015 92036 222// 00026=
0088997270999992025011922004+39350-074420FM-13+001099999V02099999999999999999N999999999+00311+99999100051ADDMD1610211+9999SA1+0261REMSYN054ACYN4 46/// ///// 10031 40005 56021 92200 222// 00026=
0088997270999992025011923004+39350-074420FM-13+001099999V02099999999999999999N999999999+00251+99999100091ADDMD1510061+9999SA1+0261REMSYN054ACYN4 46/// ///// 10025 40009 55006 92300 222// 00026=
0088997270999992025012000004+39350-074420FM-13+001099999V02099999999999999999N999999999+00041+99999100281ADDMD1310211+9999SA1+0251REMSYN054ACYN4 46/// ///// 10004 40028 53021 90000 222// 00025=
0088997270999992025012001004+39350-074420FM-13+001099999V02099999999999999999N999999999-00051+99999100311ADDMD1110261+9999SA1+0241REMSYN054ACYN4 46/// ///// 11005 40031 51026 90100 222// 00024=
0088997270999992025012002004+39350-074420FM-13+001099999V02099999999999999999N999999999-00061+99999100371ADDMD1110281+9999SA1+0221REMSYN054ACYN4 46/// ///// 11006 40037 51028 90200 222// 00022=
0088997270999992025012003004+39350-074420FM-13+001099999V02099999999999999999N999999999-00101+99999100571ADDMD1310291+9999SA1+0181REMSYN054ACYN4 46/// ///// 11010 40057 53029 90300 222// 00018=
0088997270999992025012004004+39350-074420FM-13+001099999V02099999999999999999N999999999-00161+99999100771ADDMD1310461+9999SA1+0171REMSYN054ACYN4 46/// ///// 11016 40077 53046 90400 222// 00017=
0088997270999992025012005004+39350-074420FM-13+001099999V02099999999999999999N999999999-00261+99999100911ADDMD1110541+9999SA1+0171REMSYN054ACYN4 46/// ///// 11026 40091 51054 90500 222// 00017=
0088997270999992025012006004+39350-074420FM-13+001099999V02099999999999999999N999999999-00391+99999101041ADDMD1110471+9999SA1+0161REMSYN054ACYN4 46/// ///// 11039 40104 51047 90600 222// 00016=
0068997270999992025012007004+39350-074420FM-13+001099999V02099999999999999999N999999999+99999+99999101231ADDSA1+0161REMSYN048ACYN4 46/// ///// 1//// 40123 90724 222// 00016=
0088997270999992025012008004+39350-074420FM-13+001099999V02099999999999999999N999999999-00571+99999101371ADDMD1210461+9999SA1+0151REMSYN054ACYN4 46/// ///// 11057 40137 52046 90800 222// 00015=
0088997270999992025012009004+39350-074420FM-13+001099999V02099999999999999999N999999999-00601+99999101511ADDMD1210471+9999SA1+0131REMSYN054ACYN4 46/// ///// 11060 40151 52047 90900 222// 00013=
0068997270999992025012010004+39350-074420FM-13+001099999V02099999999999999999N999999999+99999+99999101601ADDSA1+0141REMSYN048ACYN4 46/// ///// 1//// 40160 90936 222// 00014=
0088997270999992025012011004+39350-074420FM-13+001099999V02099999999999999999N999999999-00671+99999101851ADDMD1310481+9999SA1+0121REMSYN054ACYN4 46/// ///// 11067 40185 53048 91100 222// 00012=
0088997270999992025012012004+39350-074420FM-13+001099999V02099999999999999999N999999999-00681+99999102011ADDMD1210501+9999SA1+0111REMSYN054ACYN4 46/// ///// 11068 40201 52050 91200 222// 00011=
0088997270999992025012013004+39350-074420FM-13+001099999V02099999999999999999N999999999-00531+99999102221ADDMD1310551+9999SA1+0121REMSYN054ACYN4 46/// ///// 11053 40222 53055 91300 222// 00012=
0088997270999992025012014004+39350-074420FM-13+001099999V02099999999999999999N999999999-00481+99999102291ADDMD1110441+9999SA1+0111REMSYN054ACYN4 46/// ///// 11048 40229 51044 91400 222// 00011=
0088997270999992025012015004+39350-074420FM-13+001099999V02099999999999999999N999999999-00361+99999102391ADDMD1110381+9999SA1+0121REMSYN054ACYN4 46/// ///// 11036 40239 51038 91500 222// 00012=
0088997270999992025012016004+39350-074420FM-13+001099999V02099999999999999999N999999999-00371+99999102411ADDMD1110191+9999SA1+0121REMSYN054ACYN4 46/// ///// 11037 40241 51019 91600 222// 00012=
0088997270999992025012017004+39350-074420FM-13+001099999V02099999999999999999N999999999-00271+99999102451ADDMD1110161+9999SA1+0131REMSYN054ACYN4 46/// ///// 11027 40245 51016 91700 222// 00013=
0088997270999992025012018004+39350-074420FM-13+001099999V02099999999999999999N999999999-00221+99999102401ADDMD1990001+9999SA1+0131REMSYN054ACYN4 46/// ///// 11022 40240 50000 91800 222// 00013=
0088997270999992025012019004+39350-074420FM-13+001099999V02099999999999999999N999999999-00181+99999102431ADDMD1990001+9999SA1+0141REMSYN054ACYN4 46/// ///// 11018 40243 50000 91900 222// 00014=
0088997270999992025012020004+39350-074420FM-13+001099999V02099999999999999999N999999999-00211+99999102521ADDMD1310071+9999SA1+0141REMSYN054ACYN4 46/// ///// 11021 40252 53007 92000 222// 00014=
0088997270999992025012021004+39350-074420FM-13+001099999V02099999999999999999N999999999-00321+99999102621ADDMD1310221+9999SA1+0141REMSYN054ACYN4 46/// ///// 11032 40262 53022 92100 222// 00014=
0068997270999992025012022004+39350-074420FM-13+001099999V02099999999999999999N999999999-00351+99999102701ADDSA1+0141REMSYN048ACYN4 46/// ///// 11035 40270 92136 222// 00014=
0088997270999992025012023004+39350-074420FM-13+001099999V02099999999999999999N999999999-00471+99999102811ADDMD1110291+9999SA1+0121REMSYN054ACYN4 46/// ///// 11047 40281 51029 92300 222// 00012=
0088997270999992025012100004+39350-074420FM-13+001099999V02099999999999999999N999999999-00551+99999102931ADDMD1310311+9999SA1+0121REMSYN054ACYN4 46/// ///// 11055 40293 53031 90000 222// 00012=
0088997270999992025012101004+39350-074420FM-13+001099999V02099999999999999999N999999999-00621+99999103031ADDMD1310301+9999SA1+0111REMSYN054ACYN4 46/// ///// 11062 40303 53030 90100 222// 00011=
0088997270999992025012102004+39350-074420FM-13+001099999V02099999999999999999N999999999-00691+99999103101ADDMD1110291+9999SA1+0101REMSYN054ACYN4 46/// ///// 11069 40310 51029 90200 222// 00010=
0088997270999992025012103004+39350-074420FM-13+001099999V02099999999999999999N999999999-00761+99999103201ADDMD1210271+9999SA1+0101REMSYN054ACYN4 46/// ///// 11076 40320 52027 90300 222// 00010=
0088997270999992025012104004+39350-074420FM-13+001099999V02099999999999999999N999999999-00791+99999103241ADDMD1110211+9999SA1+0121REMSYN054ACYN4 46/// ///// 11079 40324 51021 90400 222// 00012=
0088997270999992025012105004+39350-074420FM-13+001099999V02099999999999999999N999999999-00831+99999103261ADDMD1110161+9999SA1+0141REMSYN054ACYN4 46/// ///// 11083 40326 51016 90500 222// 00014=
0088997270999992025012106004+39350-074420FM-13+001099999V02099999999999999999N999999999-00861+99999103281ADDMD1110081+9999SA1+0151REMSYN054ACYN4 46/// ///// 11086 40328 51008 90600 222// 00015=
0088997270999992025012107004+39350-074420FM-13+001099999V02099999999999999999N999999999-00921+99999103291ADDMD1210051+9999SA1+0111REMSYN054ACYN4 46/// ///// 11092 40329 52005 90700 222// 00011=
0088997270999992025012108004+39350-074420FM-13+001099999V02099999999999999999N999999999-00951+99999103351ADDMD1310091+9999SA1+0151REMSYN054ACYN4 46/// ///// 11095 40335 53009 90800 222// 00015=
0088997270999992025012109004+39350-074420FM-13+001099999V02099999999999999999N999999999-00971+99999103311ADDMD1990031+9999SA1+0151REMSYN054ACYN4 46/// ///// 11097 40331 50003 90900 222// 00015=
0088997270999992025012110004+39350-074420FM-13+001099999V02099999999999999999N999999999-00971+99999103361ADDMD1110071+9999SA1+0141REMSYN054ACYN4 46/// ///// 11097 40336 51007 91000 222// 00014=
0088997270999992025012111004+39350-074420FM-13+001099999V02099999999999999999N999999999-01001+99999103521ADDMD1310171+9999SA1+0151REMSYN054ACYN4 46/// ///// 11100 40352 53017 91100 222// 00015=
0088997270999992025012112004+39350-074420FM-13+001099999V02099999999999999999N999999999-00991+99999103481ADDMD1990171+9999SA1+0141REMSYN054ACYN4 46/// ///// 11099 40348 50017 91200 222// 00014=
0088997270999992025012113004+39350-074420FM-13+001099999V02099999999999999999N999999999-00981+99999103441ADDMD1990081+9999SA1+0101REMSYN054ACYN4 46/// ///// 11098 40344 50008 91300 222// 00010=
0088997270999992025012114004+39350-074420FM-13+001099999V02099999999999999999N999999999-00971+99999103501ADDMD1510001+9999SA1+0081REMSYN054ACYN4 46/// ///// 11097 40350 55000 91400 222// 00008=
0088997270999992025012115004+39350-074420FM-13+001099999V02099999999999999999N999999999-00941+99999103521ADDMD1310041+9999SA1+0091REMSYN054ACYN4 46/// ///// 11094 40352 53004 91500 222// 00009=
0088997270999992025012116004+39350-074420FM-13+001099999V02099999999999999999N999999999-00821+99999103421ADDMD1990001+9999SA1+0081REMSYN054ACYN4 46/// ///// 11082 40342 50000 91600 222// 00008=
0088997270999992025012117004+39350-074420FM-13+001099999V02099999999999999999N999999999-00781+99999103291ADDMD1810211+9999SA1+0091REMSYN054ACYN4 46/// ///// 11078 40329 58021 91700 222// 00009=
0088997270999992025012118004+39350-074420FM-13+001099999V02099999999999999999N999999999-00671+99999103181ADDMD1810341+9999SA1+0111REMSYN054ACYN4 46/// ///// 11067 40318 58034 91800 222// 00011=
0088997270999992025012119004+39350-074420FM-13+001099999V02099999999999999999N999999999-00661+99999103031ADDMD1810391+9999SA1+0101REMSYN054ACYN4 46/// ///// 11066 40303 58039 91900 222// 00010=
0088997270999992025012120004+39350-074420FM-13+001099999V02099999999999999999N999999999-00651+99999103001ADDMD1610291+9999SA1+0101REMSYN054ACYN4 46/// ///// 11065 40300 56029 92000 222// 00010=
0088997270999992025012121004+39350-074420FM-13+001099999V02099999999999999999N999999999-00691+99999103031ADDMD1510151+9999SA1+0101REMSYN054ACYN4 46/// ///// 11069 40303 55015 92100 222// 00010=
0088997270999992025012122004+39350-074420FM-13+001099999V02099999999999999999N999999999-00721+99999103051ADDMD1510001+9999SA1+0091REMSYN054ACYN4 46/// ///// 11072 40305 55000 92200 222// 00009=
0088997270999992025012123004+39350-074420FM-13+001099999V02099999999999999999N999999999-00731+99999103091ADDMD1310091+9999SA1+0091REMSYN054ACYN4 46/// ///// 11073 40309 53009 92300 222// 00009=
0088997270999992025012200004+39350-074420FM-13+001099999V02099999999999999999N999999999-00741+99999103111ADDMD1210081+9999SA1+0081REMSYN054ACYN4 46/// ///// 11074 40311 52008 90000 222// 00008=
0088997270999992025012201004+39350-074420FM-13+001099999V02099999999999999999N999999999-00781+99999103131ADDMD1110081+9999SA1+0091REMSYN054ACYN4 46/// ///// 11078 40313 51008 90100 222// 00009=
0088997270999992025012202004+39350-074420FM-13+001099999V02099999999999999999N999999999-00931+99999103071ADDMD1990001+9999SA1+0091REMSYN054ACYN4 46/// ///// 11093 40307 50000 90200 222// 00009=
0088997270999992025012203004+39350-074420FM-13+001099999V02099999999999999999N999999999-00901+99999103021ADDMD1810091+9999SA1+0101REMSYN054ACYN4 46/// ///// 11090 40302 58009 90300 222// 00010=
0088997270999992025012204004+39350-074420FM-13+001099999V02099999999999999999N999999999-00831+99999103091ADDMD1510041+9999SA1+0081REMSYN054ACYN4 46/// ///// 11083 40309 55004 90400 222// 00008=
0088997270999992025012205004+39350-074420FM-13+001099999V02099999999999999999N999999999-00811+99999103081ADDMD1510001+9999SA1+0081REMSYN054ACYN4 46/// ///// 11081 40308 55000 90500 222// 00008=
0088997270999992025012206004+39350-074420FM-13+001099999V02099999999999999999N999999999-00821+99999103061ADDMD1110041+9999SA1+0081REMSYN054ACYN4 46/// ///// 11082 40306 51004 90600 222// 00008=
0088997270999992025012207004+39350-074420FM-13+001099999V02099999999999999999N999999999-00831+99999103091ADDMD1510001+9999SA1+0091REMSYN054ACYN4 46/// ///// 11083 40309 55000 90700 222// 00009=
0088997270999992025012208004+39350-074420FM-13+001099999V02099999999999999999N999999999-00851+99999103101ADDMD1410001+9999SA1+0071REMSYN054ACYN4 46/// ///// 11085 40310 54000 90800 222// 00007=
0088997270999992025012209004+39350-074420FM-13+001099999V02099999999999999999N999999999-00871+99999103001ADDMD1810061+9999SA1+0061REMSYN054ACYN4 46/// ///// 11087 40300 58006 90900 222// 00006=
0088997270999992025012210004+39350-074420FM-13+001099999V02099999999999999999N999999999-00911+99999103021ADDMD1710071+9999SA1+0051REMSYN054ACYN4 46/// ///// 11091 40302 57007 91000 222// 00005=
0088997270999992025012211004+39350-074420FM-13+001099999V02099999999999999999N999999999-00941+99999103011ADDMD1610091+9999SA1+0031REMSYN054ACYN4 46/// ///// 11094 40301 56009 91100 222// 00003=
0088997270999992025012212004+39350-074420FM-13+001099999V02099999999999999999N999999999-00951+99999103061ADDMD1310061+9999SA1+0011REMSYN054ACYN4 46/// ///// 11095 40306 53006 91200 222// 00001=
0088997270999992025012213004+39350-074420FM-13+001099999V02099999999999999999N999999999-00971+99999103051ADDMD1210031+9999SA1+0011REMSYN054ACYN4 46/// ///// 11097 40305 52003 91300 222// 00001=
0088997270999992025012214004+39350-074420FM-13+001099999V02099999999999999999N999999999-00961+99999103081ADDMD1110071+9999SA1+0001REMSYN054ACYN4 46/// ///// 11096 40308 51007 91400 222// 00000=
0088997270999992025012215004+39350-074420FM-13+001099999V02099999999999999999N999999999-00921+99999103151ADDMD1310091+9999SA1+0001REMSYN054ACYN4 46/// ///// 11092 40315 53009 91500 222// 00000=
0088997270999992025012216004+39350-074420FM-13+001099999V02099999999999999999N999999999-00851+99999103201ADDMD1310151+9999SA1+0011REMSYN054ACYN4 46/// ///// 11085 40320 53015 91600 222// 00001=
