0068997270999992023010100004+39350-074420FM-13+001099999V02099999999999999999N999999999+00861+99999101121ADDSA1+0541REMSYN048ACYN4 46/// ///// 10086 40112 92336 222// 00054=
0068997270999992023010101004+39350-074420FM-13+001099999V02099999999999999999N999999999+00851+99999101071ADDSA1+0531REMSYN048ACYN4 46/// ///// 10085 40107 90036 222// 00053=
0068997270999992023010102004+39350-074420FM-13+001099999V02099999999999999999N999999999+00931+99999100931ADDSA1+0541REMSYN048ACYN4 46/// ///// 10093 40093 90148 222// 00054=
0088997270999992023010103004+39350-074420FM-13+001099999V02099999999999999999N999999999+00921+99999100901ADDMD1710161+9999SA1+0551REMSYN054ACYN4 46/// ///// 10092 40090 57016 90300 222// 00055=
0088997270999992023010104004+39350-074420FM-13+001099999V02099999999999999999N999999999+99999+99999100761ADDMD1810271+9999SA1+0551REMSYN054ACYN4 46/// ///// 1//// 40076 58027 90400 222// 00055=
0088997270999992023010105004+39350-074420FM-13+001099999V02099999999999999999N999999999+00901+99999100781ADDMD1610151+9999SA1+0561REMSYN054ACYN4 46/// ///// 10090 40078 56015 90500 222// 00056=
0088997270999992023010106004+39350-074420FM-13+001099999V02099999999999999999N999999999+01271+99999100801ADDMD1610101+9999SA1+0551REMSYN054ACYN4 46/// ///// 10127 40080 56010 90600 222// 00055=
0088997270999992023010107004+39350-074420FM-13+001099999V02099999999999999999N999999999+01251+99999100891ADDMD1310131+9999SA1+0551REMSYN054ACYN4 46/// ///// 10125 40089 53013 90700 222// 00055=
0088997270999992023010108004+39350-074420FM-13+001099999V02099999999999999999N999999999+01241+99999100961ADDMD1310181+9999SA1+0541REMSYN054ACYN4 46/// ///// 10124 40096 53018 90800 222// 00054=
0088997270999992023010109004+39350-074420FM-13+001099999V02099999999999999999N999999999+01231+99999100971ADDMD1110171+9999SA1+0541REMSYN054ACYN4 46/// ///// 10123 40097 51017 90900 222// 00054=
0088997270999992023010110004+39350-074420FM-13+001099999V02099999999999999999N999999999+01181+99999101071ADDMD1310181+9999SA1+0541REMSYN054ACYN4 46/// ///// 10118 40107 53018 91000 222// 00054=
0088997270999992023010111004+39350-074420FM-13+001099999V02099999999999999999N999999999+01101+99999101171ADDMD1310211+9999SA1+0551REMSYN054ACYN4 46/// ///// 10110 40117 53021 91100 222// 00055=
0088997270999992023010112004+39350-074420FM-13+001099999V02099999999999999999N999999999+01061+99999101171ADDMD1110201+9999SA1+0551REMSYN054ACYN4 46/// ///// 10106 40117 51020 91200 222// 00055=
0088997270999992023010113004+39350-074420FM-13+001099999V02099999999999999999N999999999+01081+99999101311ADDMD1310241+9999SA1+0551REMSYN054ACYN4 46/// ///// 10108 40131 53024 91300 222// 00055=
0088997270999992023010114004+39350-074420FM-13+001099999V02099999999999999999N999999999+01161+99999101421ADDMD1310251+9999SA1+0551REMSYN054ACYN4 46/// ///// 10116 40142 53025 91400 222// 00055=
0088997270999992023010115004+39350-074420FM-13+001099999V02099999999999999999N999999999+01271+99999101481ADDMD1110311+9999SA1+0551REMSYN054ACYN4 46/// ///// 10127 40148 51031 91500 222// 00055=
0088997270999992023010116004+39350-074420FM-13+001099999V02099999999999999999N999999999+01321+99999101441ADDMD1990131+9999SA1+0571REMSYN054ACYN4 46/// ///// 10132 40144 50013 91600 222// 00057=
0088997270999992023010117004+39350-074420FM-13+001099999V02099999999999999999N999999999+01411+99999101411ADDMD1990001+9999SA1+0571REMSYN054ACYN4 46/// ///// 10141 40141 50000 91700 222// 00057=
0088997270999992023010118004+39350-074420FM-13+001099999V02099999999999999999N999999999+01411+99999101401ADDMD1610081+9999SA1+0581REMSYN054ACYN4 46/// ///// 10141 40140 56008 91800 222// 00058=
0088997270999992023010119004+39350-074420FM-13+001099999V02099999999999999999N999999999+01441+99999101391ADDMD1610051+9999SA1+0591REMSYN054ACYN4 46/// ///// 10144 40139 56005 91900 222// 00059=
0088997270999992023010120004+39350-074420FM-13+001099999V02099999999999999999N999999999+01481+99999101411ADDMD1410001+9999SA1+0591REMSYN054ACYN4 46/// ///// 10148 40141 54000 92000 222// 00059=
0088997270999992023010121004+39350-074420FM-13+001099999V02099999999999999999N999999999+01361+99999101461ADDMD1310061+9999SA1+0591REMSYN054ACYN4 46/// ///// 10136 40146 53006 92100 222// 00059=
0088997270999992023010122004+39350-074420FM-13+001099999V02099999999999999999N999999999+99999+99999101491ADDMD1310101+9999SA1+0591REMSYN054ACYN4 46/// ///// 1//// 40149 53010 92200 222// 00059=
0088997270999992023010123004+39350-074420FM-13+001099999V02099999999999999999N999999999+01151+99999101571ADDMD1310161+9999SA1+0591REMSYN054ACYN4 46/// ///// 10115 40157 53016 92300 222// 00059=
0088997270999992023010200004+39350-074420FM-13+001099999V02099999999999999999N999999999+00871+99999101641ADDMD1310181+9999SA1+0591REMSYN054ACYN4 46/// ///// 10087 40164 53018 90000 222// 00059=
0088997270999992023010201004+39350-074420FM-13+001099999V02099999999999999999N999999999+01161+99999101691ADDMD1110201+9999SA1+0591REMSYN054ACYN4 46/// ///// 10116 40169 51020 90100 222// 00059=
0088997270999992023010202004+39350-074420FM-13+001099999V02099999999999999999N999999999+00771+99999101751ADDMD1110181+9999SA1+0591REMSYN054ACYN4 46/// ///// 10077 40175 51018 90200 222// 00059=
0088997270999992023010203004+39350-074420FM-13+001099999V02099999999999999999N999999999+00711+99999101771ADDMD1110131+9999SA1+0591REMSYN054ACYN4 46/// ///// 10071 40177 51013 90300 222// 00059=
0068997270999992023010204004+39350-074420FM-13+001099999V02099999999999999999N999999999+00721+99999101781ADDSA1+0581REMSYN048ACYN4 46/// ///// 10072 40178 90336 222// 00058=
0088997270999992023010205004+39350-074420FM-13+001099999V02099999999999999999N999999999+00741+99999101731ADDMD1410001+9999SA1+0581REMSYN054ACYN4 46/// ///// 10074 40173 54000 90500 222// 00058=
0088997270999992023010206004+39350-074420FM-13+001099999V02099999999999999999N999999999+00751+99999101711ADDMD1710061+9999SA1+0581REMSYN054ACYN4 46/// ///// 10075 40171 57006 90600 222// 00058=
0088997270999992023010207004+39350-074420FM-13+001099999V02099999999999999999N999999999+00711+99999101711ADDMD1710041+9999SA1+0581REMSYN054ACYN4 46/// ///// 10071 40171 57004 90700 222// 00058=
0088997270999992023010208004+39350-074420FM-13+001099999V02099999999999999999N999999999+00931+99999101781ADDMD1310051+9999SA1+0591REMSYN054ACYN4 46/// ///// 10093 40178 53005 90800 222// 00059=
0088997270999992023010209004+39350-074420FM-13+001099999V02099999999999999999N999999999+00881+99999101801ADDMD1210091+9999SA1+0591REMSYN054ACYN4 46/// ///// 10088 40180 52009 90900 222// 00059=
0088997270999992023010210004+39350-074420FM-13+001099999V02099999999999999999N999999999+00891+99999101871ADDMD1210161+9999SA1+0591REMSYN054ACYN4 46/// ///// 10089 40187 52016 91000 222// 00059=
0088997270999992023010211004+39350-074420FM-13+001099999V02099999999999999999N999999999+00901+99999101881ADDMD1210101+9999SA1+0591REMSYN054ACYN4 46/// ///// 10090 40188 52010 91100 222// 00059=
0088997270999992023010212004+39350-074420FM-13+001099999V02099999999999999999N999999999+00751+99999101941ADDMD1110141+9999SA1+0591REMSYN054ACYN4 46/// ///// 10075 40194 51014 91200 222// 00059=
0088997270999992023010213004+39350-074420FM-13+001099999V02099999999999999999N999999999+00761+99999102041ADDMD1310171+9999SA1+0591REMSYN054ACYN4 46/// ///// 10076 40204 53017 91300 222// 00059=
0088997270999992023010214004+39350-074420FM-13+001099999V02099999999999999999N999999999+00881+99999102091ADDMD1110211+9999SA1+0591REMSYN054ACYN4 46/// ///// 10088 40209 51021 91400 222// 00059=
0088997270999992023010215004+39350-074420FM-13+001099999V02099999999999999999N999999999+00891+99999102121ADDMD1110181+9999SA1+0591REMSYN054ACYN4 46/// ///// 10089 40212 51018 91500 222// 00059=
0088997270999992023010216004+39350-074420FM-13+001099999V02099999999999999999N999999999+01011+99999102101ADDMD1110061+9999SA1+0601REMSYN054ACYN4 46/// ///// 10101 40210 51006 91600 222// 00060=
0088997270999992023010217004+39350-074420FM-13+001099999V02099999999999999999N999999999+01041+99999102011ADDMD1810081+9999SA1+0611REMSYN054ACYN4 46/// ///// 10104 40201 58008 91700 222// 00061=
0088997270999992023010218004+39350-074420FM-13+001099999V02099999999999999999N999999999+01051+99999101981ADDMD1810141+9999SA1+0621REMSYN054ACYN4 46/// ///// 10105 40198 58014 91800 222// 00062=
0088997270999992023010219004+39350-074420FM-13+001099999V02099999999999999999N999999999+00991+99999101991ADDMD1610111+9999SA1+0591REMSYN054ACYN4 46/// ///// 10099 40199 56011 91900 222// 00059=
0088997270999992023010220004+39350-074420FM-13+001099999V02099999999999999999N999999999+01041+99999102001ADDMD1510001+9999SA1+0601REMSYN054ACYN4 46/// ///// 10104 40200 55000 92000 222// 00060=
0088997270999992023010221004+39350-074420FM-13+001099999V02099999999999999999N999999999+01011+99999101971ADDMD1990001+9999SA1+0601REMSYN054ACYN4 46/// ///// 10101 40197 50000 92100 222// 00060=
0088997270999992023010222004+39350-074420FM-13+001099999V02099999999999999999N999999999+01021+99999101991ADDMD1410001+9999SA1+0601REMSYN054ACYN4 46/// ///// 10102 40199 54000 92200 222// 00060=
0088997270999992023010223004+39350-074420FM-13+001099999V02099999999999999999N999999999+00901+99999102011ADDMD1510001+9999SA1+0611REMSYN054ACYN4 46/// ///// 10090 40201 55000 92300 222// 00061=
0088997270999992023010300004+39350-074420FM-13+001099999V02099999999999999999N999999999+00811+99999102051ADDMD1310081+9999SA1+0651REMSYN054ACYN4 46/// ///// 10081 40205 53008 90000 222// 00065=
0088997270999992023010301004+39350-074420FM-13+001099999V02099999999999999999N999999999+00851+99999102061ADDMD1210071+9999SA1+0621REMSYN054ACYN4 46/// ///// 10085 40206 52007 90100 222// 00062=
0088997270999992023010302004+39350-074420FM-13+001099999V02099999999999999999N999999999+00871+99999102081ADDMD1110071+9999SA1+0601REMSYN054ACYN4 46/// ///// 10087 40208 51007 90200 222// 00060=
0088997270999992023010303004+39350-074420FM-13+001099999V02099999999999999999N999999999+00851+99999102051ADDMD1990001+9999SA1+0631REMSYN054ACYN4 46/// ///// 10085 40205 50000 90300 222// 00063=
0088997270999992023010304004+39350-074420FM-13+001099999V02099999999999999999N999999999+00841+99999102031ADDMD1710031+9999SA1+0601REMSYN054ACYN4 46/// ///// 10084 40203 57003 90400 222// 00060=
0088997270999992023010305004+39350-074420FM-13+001099999V02099999999999999999N999999999+00821+99999101971ADDMD1810111+9999SA1+0601REMSYN054ACYN4 46/// ///// 10082 40197 58011 90500 222// 00060=
0088997270999992023010306004+39350-074420FM-13+001099999V02099999999999999999N999999999+00841+99999101961ADDMD1710091+9999SA1+0621REMSYN054ACYN4 46/// ///// 10084 40196 57009 90600 222// 00062=
0088997270999992023010307004+39350-074420FM-13+001099999V02099999999999999999N999999999+00831+99999101931ADDMD1610101+9999SA1+0601REMSYN054ACYN4 46/// ///// 10083 40193 56010 90700 222// 00060=
0088997270999992023010308004+39350-074420FM-13+001099999V02099999999999999999N999999999+00841+99999101921ADDMD1710051+9999SA1+0611REMSYN054ACYN4 46/// ///// 10084 40192 57005 90800 222// 00061=
0088997270999992023010309004+39350-074420FM-13+001099999V02099999999999999999N999999999+00841+99999101851ADDMD1810111+9999SA1+0611REMSYN054ACYN4 46/// ///// 10084 40185 58011 90900 222// 00061=
0088997270999992023010310004+39350-074420FM-13+001099999V02099999999999999999N999999999+00861+99999101821ADDMD1810111+9999SA1+0611REMSYN054ACYN4 46/// ///// 10086 40182 58011 91000 222// 00061=
0088997270999992023010311004+39350-074420FM-13+001099999V02099999999999999999N999999999+00811+99999101801ADDMD1610121+9999SA1+0621REMSYN054ACYN4 46/// ///// 10081 40180 56012 91100 222// 00062=
0088997270999992023010312004+39350-074420FM-13+001099999V02099999999999999999N999999999+00791+99999101691ADDMD1810161+9999SA1+0611REMSYN054ACYN4 46/// ///// 10079 40169 58016 91200 222// 00061=
0088997270999992023010313004+39350-074420FM-13+001099999V02099999999999999999N999999999+00791+99999101681ADDMD1710141+9999SA1+0611REMSYN054ACYN4 46/// ///// 10079 40168 57014 91300 222// 00061=
0068997270999992023010314004+39350-074420FM-13+001099999V02099999999999999999N999999999+00891+99999101681ADDSA1+0621REMSYN048ACYN4 46/// ///// 10089 40168 91342 222// 00062=
0088997270999992023010315004+39350-074420FM-13+001099999V02099999999999999999N999999999+00911+99999101591ADDMD1810101+9999SA1+0641REMSYN054ACYN4 46/// ///// 10091 40159 58010 91500 222// 00064=
0088997270999992023010316004+39350-074420FM-13+001099999V02099999999999999999N999999999+00881+99999101591ADDMD1710091+9999SA1+0641REMSYN054ACYN4 46/// ///// 10088 40159 57009 91600 222// 00064=
0088997270999992023010317004+39350-074420FM-13+001099999V02099999999999999999N999999999+00851+99999101491ADDMD1810181+9999SA1+0661REMSYN054ACYN4 46/// ///// 10085 40149 58018 91700 222// 00066=
0088997270999992023010318004+39350-074420FM-13+001099999V02099999999999999999N999999999+00881+99999101431ADDMD1810161+9999SA1+0661REMSYN054ACYN4 46/// ///// 10088 40143 58016 91800 222// 00066=
0088997270999992023010319004+39350-074420FM-13+001099999V02099999999999999999N999999999+00861+99999101311ADDMD1810281+9999SA1+0671REMSYN054ACYN4 46/// ///// 10086 40131 58028 91900 222// 00067=
0088997270999992023010320004+39350-074420FM-13+001099999V02099999999999999999N999999999+00921+99999101161ADDMD1810331+9999SA1+0691REMSYN054ACYN4 46/// ///// 10092 40116 58033 92000 222// 00069=
0088997270999992023010321004+39350-074420FM-13+001099999V02099999999999999999N999999999+00941+99999101151ADDMD1610281+9999SA1+0711REMSYN054ACYN4 46/// ///// 10094 40115 56028 92100 222// 00071=
0088997270999992023010322004+39350-074420FM-13+001099999V02099999999999999999N999999999+00891+99999101111ADDMD1610201+9999SA1+0711REMSYN054ACYN4 46/// ///// 10089 40111 56020 92200 222// 00071=
0088997270999992023010323004+39350-074420FM-13+001099999V02099999999999999999N999999999+00871+99999101121ADDMD1710041+9999SA1+0701REMSYN054ACYN4 46/// ///// 10087 40112 57004 92300 222// 00070=
0088997270999992023010400004+39350-074420FM-13+001099999V02099999999999999999N999999999+00891+99999101111ADDMD1610041+9999SA1+0701REMSYN054ACYN4 46/// ///// 10089 40111 56004 90000 222// 00070=
0088997270999992023010401004+39350-074420FM-13+001099999V02099999999999999999N999999999+00901+99999101111ADDMD1410001+9999SA1+0691REMSYN054ACYN4 46/// ///// 10090 40111 54000 90100 222// 00069=
0088997270999992023010402004+39350-074420FM-13+001099999V02099999999999999999N999999999+00941+99999101081ADDMD1810041+9999SA1+0681REMSYN054ACYN4 46/// ///// 10094 40108 58004 90200 222// 00068=
0088997270999992023010403004+39350-074420FM-13+001099999V02099999999999999999N999999999+00881+99999101061ADDMD1710051+9999SA1+0671REMSYN054ACYN4 46/// ///// 10088 40106 57005 90300 222// 00067=
0088997270999992023010404004+39350-074420FM-13+001099999V02099999999999999999N999999999+00921+99999100951ADDMD1810161+9999SA1+0661REMSYN054ACYN4 46/// ///// 10092 40095 58016 90400 222// 00066=
0088997270999992023010405004+39350-074420FM-13+001099999V02099999999999999999N999999999+00871+99999100901ADDMD1810181+9999SA1+0661REMSYN054ACYN4 46/// ///// 10087 40090 58018 90500 222// 00066=
0088997270999992023010406004+39350-074420FM-13+001099999V02099999999999999999N999999999+00901+99999100921ADDMD1610141+9999SA1+0651REMSYN054ACYN4 46/// ///// 10090 40092 56014 90600 222// 00065=
0088997270999992023010407004+39350-074420FM-13+001099999V02099999999999999999N999999999+00891+99999101001ADDMD1310051+9999SA1+0651REMSYN054ACYN4 46/// ///// 10089 40100 53005 90700 222// 00065=
0088997270999992023010408004+39350-074420FM-13+001099999V02099999999999999999N999999999+00851+99999101031ADDMD1310131+9999SA1+0641REMSYN054ACYN4 46/// ///// 10085 40103 53013 90800 222// 00064=
0088997270999992023010409004+39350-074420FM-13+001099999V02099999999999999999N999999999+00941+99999101041ADDMD1110121+9999SA1+0641REMSYN054ACYN4 46/// ///// 10094 40104 51012 90900 222// 00064=
0088997270999992023010410004+39350-074420FM-13+001099999V02099999999999999999N999999999+01121+99999101081ADDMD1310081+9999SA1+0641REMSYN054ACYN4 46/// ///// 10112 40108 53008 91000 222// 00064=
0088997270999992023010411004+39350-074420FM-13+001099999V02099999999999999999N999999999+01201+99999101121ADDMD1310091+9999SA1+0641REMSYN054ACYN4 46/// ///// 10120 40112 53009 91100 222// 00064=
0088997270999992023010412004+39350-074420FM-13+001099999V02099999999999999999N999999999+00991+99999101211ADDMD1310171+9999SA1+0651REMSYN054ACYN4 46/// ///// 10099 40121 53017 91200 222// 00065=
0088997270999992023010413004+39350-074420FM-13+001099999V02099999999999999999N999999999+00991+99999101241ADDMD1110161+9999SA1+0641REMSYN054ACYN4 46/// ///// 10099 40124 51016 91300 222// 00064=
0088997270999992023010414004+39350-074420FM-13+001099999V02099999999999999999N999999999+01001+99999101291ADDMD1110171+9999SA1+0651REMSYN054ACYN4 46/// ///// 10100 40129 51017 91400 222// 00065=
0088997270999992023010415004+39350-074420FM-13+001099999V02099999999999999999N999999999+01241+99999101321ADDMD1210111+9999SA1+0661REMSYN054ACYN4 46/// ///// 10124 40132 52011 91500 222// 00066=
0088997270999992023010416004+39350-074420FM-13+001099999V02099999999999999999N999999999+01241+99999101311ADDMD1110071+9999SA1+0661REMSYN054ACYN4 46/// ///// 10124 40131 51007 91600 222// 00066=
0088997270999992023010417004+39350-074420FM-13+001099999V02099999999999999999N999999999+01121+99999101201ADDMD1810091+9999SA1+0661REMSYN054ACYN4 46/// ///// 10112 40120 58009 91700 222// 00066=
0088997270999992023010418004+39350-074420FM-13+001099999V02099999999999999999N999999999+01111+99999101101ADDMD1810221+9999SA1+0661REMSYN054ACYN4 46/// ///// 10111 40110 58022 91800 222// 00066=
0088997270999992023010419004+39350-074420FM-13+001099999V02099999999999999999N999999999+01061+99999101071ADDMD1610241+9999SA1+0661REMSYN054ACYN4 46/// ///// 10106 40107 56024 91900 222// 00066=
0068997270999992023010420004+39350-074420FM-13+001099999V02099999999999999999N999999999+01021+99999101071ADDSA1+0661REMSYN048ACYN4 46/// ///// 10102 40107 91942 222// 00066=
0088997270999992023010421004+39350-074420FM-13+001099999V02099999999999999999N999999999+00951+99999101061ADDMD1610041+9999SA1+0641REMSYN054ACYN4 46/// ///// 10095 40106 56004 92100 222// 00064=
0088997270999992023010422004+39350-074420FM-13+001099999V02099999999999999999N999999999+00961+99999100991ADDMD1810081+9999SA1+0651REMSYN054ACYN4 46/// ///// 10096 40099 58008 92200 222// 00065=
0068997270999992023010423004+39350-074420FM-13+001099999V02099999999999999999N999999999+01011+99999100911ADDSA1+0651REMSYN048ACYN4 46/// ///// 10101 40091 92242 222// 00065=
0088997270999992023010500004+39350-074420FM-13+001099999V02099999999999999999N999999999+01221+99999100971ADDMD1610091+9999SA1+0671REMSYN054ACYN4 46/// ///// 10122 40097 56009 90000 222// 00067=
0088997270999992023010501004+39350-074420FM-13+001099999V02099999999999999999N999999999+01121+99999100841ADDMD1810151+9999SA1+0671REMSYN054ACYN4 46/// ///// 10112 40084 58015 90100 222// 00067=
0088997270999992023010502004+39350-074420FM-13+001099999V02099999999999999999N999999999+01031+99999100921ADDMD1510031+9999SA1+0661REMSYN054ACYN4 46/// ///// 10103 40092 55003 90200 222// 00066=
0068997270999992023010503004+39350-074420FM-13+001099999V02099999999999999999N999999999+00981+99999100891ADDSA1+0661REMSYN048ACYN4 46/// ///// 10098 40089 90248 222// 00066=
0088997270999992023010504004+39350-074420FM-13+001099999V02099999999999999999N999999999+00911+99999100931ADDMD1110091+9999SA1+0651REMSYN054ACYN4 46/// ///// 10091 40093 51009 90400 222// 00065=
0088997270999992023010505004+39350-074420FM-13+001099999V02099999999999999999N999999999+00881+99999100981ADDMD1310061+9999SA1+0641REMSYN054ACYN4 46/// ///// 10088 40098 53006 90500 222// 00064=
0088997270999992023010506004+39350-074420FM-13+001099999V02099999999999999999N999999999+00961+99999101011ADDMD1310101+9999SA1+0651REMSYN054ACYN4 46/// ///// 10096 40101 53010 90600 222// 00065=
0088997270999992023010507004+39350-074420FM-13+001099999V02099999999999999999N999999999+00971+99999101101ADDMD1310171+9999SA1+0651REMSYN054ACYN4 46/// ///// 10097 40110 53017 90700 222// 00065=
0088997270999992023010508004+39350-074420FM-13+001099999V02099999999999999999N999999999+00931+99999101171ADDMD1310191+9999SA1+0671REMSYN054ACYN4 46/// ///// 10093 40117 53019 90800 222// 00067=
0088997270999992023010509004+39350-074420FM-13+001099999V02099999999999999999N999999999+00971+99999101201ADDMD1110191+9999SA1+0671REMSYN054ACYN4 46/// ///// 10097 40120 51019 90900 222// 00067=
0088997270999992023010510004+39350-074420FM-13+001099999V02099999999999999999N999999999+00871+99999101241ADDMD1110141+9999SA1+0671REMSYN054ACYN4 46/// ///// 10087 40124 51014 91000 222// 00067=
0088997270999992023010511004+39350-074420FM-13+001099999V02099999999999999999N999999999+00881+99999101251ADDMD1110081+9999SA1+0661REMSYN054ACYN4 46/// ///// 10088 40125 51008 91100 222// 00066=
0088997270999992023010512004+39350-074420FM-13+001099999V02099999999999999999N999999999+01251+99999101301ADDMD1310101+9999SA1+0661REMSYN054ACYN4 46/// ///// 10125 40130 53010 91200 222// 00066=
0088997270999992023010513004+39350-074420FM-13+001099999V02099999999999999999N999999999+01231+99999101361ADDMD1310121+9999SA1+0671REMSYN054ACYN4 46/// ///// 10123 40136 53012 91300 222// 00067=
0088997270999992023010514004+39350-074420FM-13+001099999V02099999999999999999N999999999+01201+99999101411ADDMD1210161+9999SA1+0671REMSYN054ACYN4 46/// ///// 10120 40141 52016 91400 222// 00067=
0088997270999992023010515004+39350-074420FM-13+001099999V02099999999999999999N999999999+01461+99999101441ADDMD1110141+9999SA1+0681REMSYN054ACYN4 46/// ///// 10146 40144 51014 91500 222// 00068=
0088997270999992023010516004+39350-074420FM-13+001099999V02099999999999999999N999999999+01481+99999101401ADDMD1990041+9999SA1+0691REMSYN054ACYN4 46/// ///// 10148 40140 50004 91600 222// 00069=
0088997270999992023010517004+39350-074420FM-13+001099999V02099999999999999999N999999999+01541+99999101351ADDMD1810061+9999SA1+0701REMSYN054ACYN4 46/// ///// 10154 40135 58006 91700 222// 00070=
0088997270999992023010518004+39350-074420FM-13+001099999V02099999999999999999N999999999+99999+99999101341ADDMD1610101+9999SA1+0681REMSYN054ACYN4 46/// ///// 1//// 40134 56010 91800 222// 00068=
0088997270999992023010519004+39350-074420FM-13+001099999V02099999999999999999N999999999+99999+99999101271ADDMD1810131+9999SA1+0691REMSYN054ACYN4 46/// ///// 1//// 40127 58013 91900 222// 00069=
0088997270999992023010520004+39350-074420FM-13+001099999V02099999999999999999N999999999+00791+99999101221ADDMD1810131+9999SA1+0691REMSYN054ACYN4 46/// ///// 10079 40122 58013 92000 222// 00069=
0088997270999992023010521004+39350-074420FM-13+001099999V02099999999999999999N999999999+00771+99999101241ADDMD1610101+9999SA1+0701REMSYN054ACYN4 46/// ///// 10077 40124 56010 92100 222// 00070=
0088997270999992023010522004+39350-074420FM-13+001099999V02099999999999999999N999999999+00811+99999101321ADDMD1310051+9999SA1+0721REMSYN054ACYN4 46/// ///// 10081 40132 53005 92200 222// 00072=
0088997270999992023010523004+39350-074420FM-13+001099999V02099999999999999999N999999999+00751+99999101291ADDMD1990071+9999SA1+0741REMSYN054ACYN4 46/// ///// 10075 40129 50007 92300 222// 00074=
0088997270999992023010600004+39350-074420FM-13+001099999V02099999999999999999N999999999+00761+99999101321ADDMD1110081+9999SA1+0711REMSYN054ACYN4 46/// ///// 10076 40132 51008 90000 222// 00071=
0088997270999992023010601004+39350-074420FM-13+001099999V02099999999999999999N999999999+00761+99999101331ADDMD1510001+9999SA1+0701REMSYN054ACYN4 46/// ///// 10076 40133 55000 90100 222// 00070=
0088997270999992023010602004+39350-074420FM-13+001099999V02099999999999999999N999999999+00801+99999101381ADDMD1310091+9999SA1+0681REMSYN054ACYN4 46/// ///// 10080 40138 53009 90200 222// 00068=
0088997270999992023010603004+39350-074420FM-13+001099999V02099999999999999999N999999999+00771+99999101431ADDMD1310111+9999SA1+0681REMSYN054ACYN4 46/// ///// 10077 40143 53011 90300 222// 00068=
0088997270999992023010604004+39350-074420FM-13+001099999V02099999999999999999N999999999+00731+99999101371ADDMD1990041+9999SA1+0681REMSYN054ACYN4 46/// ///// 10073 40137 50004 90400 222// 00068=
0088997270999992023010605004+39350-074420FM-13+001099999V02099999999999999999N999999999+00761+99999101341ADDMD1810041+9999SA1+0681REMSYN054ACYN4 46/// ///// 10076 40134 58004 90500 222// 00068=
0088997270999992023010606004+39350-074420FM-13+001099999V02099999999999999999N999999999+00771+99999101331ADDMD1610101+9999SA1+0681REMSYN054ACYN4 46/// ///// 10077 40133 56010 90600 222// 00068=
0088997270999992023010607004+39350-074420FM-13+001099999V02099999999999999999N999999999+00801+99999101371ADDMD1510001+9999SA1+0681REMSYN054ACYN4 46/// ///// 10080 40137 55000 90700 222// 00068=
0088997270999992023010608004+39350-074420FM-13+001099999V02099999999999999999N999999999+00771+99999101361ADDMD1410001+9999SA1+0681REMSYN054ACYN4 46/// ///// 10077 40136 54000 90800 222// 00068=
0088997270999992023010609004+39350-074420FM-13+001099999V02099999999999999999N999999999+00811+99999101321ADDMD1990001+9999SA1+0701REMSYN054ACYN4 46/// ///// 10081 40132 50000 90900 222// 00070=
0068997270999992023010610004+39350-074420FM-13+001099999V02099999999999999999N999999999+00821+99999101361ADDSA1+0701REMSYN048ACYN4 46/// ///// 10082 40136 90936 222// 00070=
0088997270999992023010611004+39350-074420FM-13+001099999V02099999999999999999N999999999+00771+99999101361ADDMD1510001+9999SA1+0691REMSYN054ACYN4 46/// ///// 10077 40136 55000 91100 222// 00069=
0088997270999992023010612004+39350-074420FM-13+001099999V02099999999999999999N999999999+00791+99999101411ADDMD1310091+9999SA1+0691REMSYN054ACYN4 46/// ///// 10079 40141 53009 91200 222// 00069=
0088997270999992023010613004+39350-074420FM-13+001099999V02099999999999999999N999999999+00751+99999101321ADDMD1810031+9999SA1+0691REMSYN054ACYN4 46/// ///// 10075 40132 58003 91300 222// 00069=
0088997270999992023010614004+39350-074420FM-13+001099999V02099999999999999999N999999999+00711+99999101431ADDMD1310071+9999SA1+0691REMSYN054ACYN4 46/// ///// 10071 40143 53007 91400 222// 00069=
0088997270999992023010615004+39350-074420FM-13+001099999V02099999999999999999N999999999+00801+99999101521ADDMD1310111+9999SA1+0691REMSYN054ACYN4 46/// ///// 10080 40152 53011 91500 222// 00069=
0088997270999992023010616004+39350-074420FM-13+001099999V02099999999999999999N999999999+00911+99999101491ADDMD1990171+9999SA1+0691REMSYN054ACYN4 46/// ///// 10091 40149 50017 91600 222// 00069=
0088997270999992023010617004+39350-074420FM-13+001099999V02099999999999999999N999999999+00951+99999101451ADDMD1990001+9999SA1+0691REMSYN054ACYN4 46/// ///// 10095 40145 50000 91700 222// 00069=
0088997270999992023010618004+39350-074420FM-13+001099999V02099999999999999999N999999999+01041+99999101421ADDMD1710101+9999SA1+0701REMSYN054ACYN4 46/// ///// 10104 40142 57010 91800 222// 00070=
0088997270999992023010619004+39350-074420FM-13+001099999V02099999999999999999N999999999+01001+99999101441ADDMD1610051+9999SA1+0691REMSYN054ACYN4 46/// ///// 10100 40144 56005 91900 222// 00069=
0068997270999992023010620004+39350-074420FM-13+001099999V02099999999999999999N999999999+00931+99999101521ADDSA1+0691REMSYN048ACYN4 46/// ///// 10093 40152 91948 222// 00069=
0088997270999992023010621004+39350-074420FM-13+001099999V02099999999999999999N999999999+00891+99999101651ADDMD1310231+9999SA1+0691REMSYN054ACYN4 46/// ///// 10089 40165 53023 92100 222// 00069=
0088997270999992023010622004+39350-074420FM-13+001099999V02099999999999999999N999999999+00841+99999101721ADDMD1110281+9999SA1+0691REMSYN054ACYN4 46/// ///// 10084 40172 51028 92200 222// 00069=
0088997270999992023010623004+39350-074420FM-13+001099999V02099999999999999999N999999999+00821+99999101821ADDMD1110281+9999SA1+0691REMSYN054ACYN4 46/// ///// 10082 40182 51028 92300 222// 00069=
0088997270999992023010700004+39350-074420FM-13+001099999V02099999999999999999N999999999+00791+99999101921ADDMD1310271+9999SA1+0701REMSYN054ACYN4 46/// ///// 10079 40192 53027 90000 222// 00070=
0088997270999992023010701004+39350-074420FM-13+001099999V02099999999999999999N999999999+00741+99999101971ADDMD1110251+9999SA1+0701REMSYN054ACYN4 46/// ///// 10074 40197 51025 90100 222// 00070=
0088997270999992023010702004+39350-074420FM-13+001099999V02099999999999999999N999999999+00711+99999102021ADDMD1110201+9999SA1+0701REMSYN054ACYN4 46/// ///// 10071 40202 51020 90200 222// 00070=
0088997270999992023010703004+39350-074420FM-13+001099999V02099999999999999999N999999999+00671+99999102041ADDMD1110121+9999SA1+0691REMSYN054ACYN4 46/// ///// 10067 40204 51012 90300 222// 00069=
0088997270999992023010704004+39350-074420FM-13+001099999V02099999999999999999N999999999+00611+99999102051ADDMD1110081+9999SA1+0681REMSYN054ACYN4 46/// ///// 10061 40205 51008 90400 222// 00068=
0088997270999992023010705004+39350-074420FM-13+001099999V02099999999999999999N999999999+00521+99999102071ADDMD1210051+9999SA1+0681REMSYN054ACYN4 46/// ///// 10052 40207 52005 90500 222// 00068=
0088997270999992023010706004+39350-074420FM-13+001099999V02099999999999999999N999999999+00441+99999102061ADDMD1410001+9999SA1+0671REMSYN054ACYN4 46/// ///// 10044 40206 54000 90600 222// 00067=
0088997270999992023010707004+39350-074420FM-13+001099999V02099999999999999999N999999999+00381+99999102091ADDMD1310041+9999SA1+0681REMSYN054ACYN4 46/// ///// 10038 40209 53004 90700 222// 00068=
0088997270999992023010708004+39350-074420FM-13+001099999V02099999999999999999N999999999+00351+99999102091ADDMD1410001+9999SA1+0671REMSYN054ACYN4 46/// ///// 10035 40209 54000 90800 222// 00067=
0068997270999992023010709004+39350-074420FM-13+001099999V02099999999999999999N999999999+00401+99999102071ADDSA1+0671REMSYN048ACYN4 46/// ///// 10040 40207 90842 222// 00067=
0088997270999992023010710004+39350-074420FM-13+001099999V02099999999999999999N999999999+00421+99999102081ADDMD1410001+9999SA1+0681REMSYN054ACYN4 46/// ///// 10042 40208 54000 91000 222// 00068=
0088997270999992023010711004+39350-074420FM-13+001099999V02099999999999999999N999999999+00441+99999102121ADDMD1310031+9999SA1+0671REMSYN054ACYN4 46/// ///// 10044 40212 53003 91100 222// 00067=
0088997270999992023010712004+39350-074420FM-13+001099999V02099999999999999999N999999999+00441+99999102141ADDMD1210071+9999SA1+0671REMSYN054ACYN4 46/// ///// 10044 40214 52007 91200 222// 00067=
0088997270999992023010713004+39350-074420FM-13+001099999V02099999999999999999N999999999+00451+99999102171ADDMD1110091+9999SA1+0671REMSYN054ACYN4 46/// ///// 10045 40217 51009 91300 222// 00067=
0088997270999992023010714004+39350-074420FM-13+001099999V02099999999999999999N999999999+00501+99999102201ADDMD1310081+9999SA1+0671REMSYN054ACYN4 46/// ///// 10050 40220 53008 91400 222// 00067=
0088997270999992023010715004+39350-074420FM-13+001099999V02099999999999999999N999999999+00661+99999102231ADDMD1210091+9999SA1+0661REMSYN054ACYN4 46/// ///// 10066 40223 52009 91500 222// 00066=
0088997270999992023010716004+39350-074420FM-13+001099999V02099999999999999999N999999999+00731+99999102181ADDMD1990001+9999SA1+0661REMSYN054ACYN4 46/// ///// 10073 40218 50000 91600 222// 00066=
0088997270999992023010717004+39350-074420FM-13+001099999V02099999999999999999N999999999+00811+99999102081ADDMD1810121+9999SA1+0661REMSYN054ACYN4 46/// ///// 10081 40208 58012 91700 222// 00066=
0088997270999992023010718004+39350-074420FM-13+001099999V02099999999999999999N999999999+00831+99999102031ADDMD1710201+9999SA1+0671REMSYN054ACYN4 46/// ///// 10083 40203 57020 91800 222// 00067=
0088997270999992023010719004+39350-074420FM-13+001099999V02099999999999999999N999999999+00851+99999102001ADDMD1610181+9999SA1+0671REMSYN054ACYN4 46/// ///// 10085 40200 56018 91900 222// 00067=
0088997270999992023010720004+39350-074420FM-13+001099999V02099999999999999999N999999999+00781+99999102021ADDMD1610061+9999SA1+0681REMSYN054ACYN4 46/// ///// 10078 40202 56006 92000 222// 00068=
0088997270999992023010721004+39350-074420FM-13+001099999V02099999999999999999N999999999+00751+99999102101ADDMD1310071+9999SA1+0681REMSYN054ACYN4 46/// ///// 10075 40210 53007 92100 222// 00068=
0088997270999992023010722004+39350-074420FM-13+001099999V02099999999999999999N999999999+00701+99999102151ADDMD1310151+9999SA1+0691REMSYN054ACYN4 46/// ///// 10070 40215 53015 92200 222// 00069=
0088997270999992023010723004+39350-074420FM-13+001099999V02099999999999999999N999999999+00681+99999102241ADDMD1310221+9999SA1+0691REMSYN054ACYN4 46/// ///// 10068 40224 53022 92300 222// 00069=
0088997270999992023010800004+39350-074420FM-13+001099999V02099999999999999999N999999999+00681+99999102311ADDMD1310211+9999SA1+0691REMSYN054ACYN4 46/// ///// 10068 40231 53021 90000 222// 00069=
0068997270999992023010801004+39350-074420FM-13+001099999V02099999999999999999N999999999+00671+99999102361ADDSA1+0691REMSYN048ACYN4 46/// ///// 10067 40236 90042 222// 00069=
0088997270999992023010802004+39350-074420FM-13+001099999V02099999999999999999N999999999+00621+99999102411ADDMD1110171+9999SA1+0691REMSYN054ACYN4 46/// ///// 10062 40241 51017 90200 222// 00069=
0088997270999992023010803004+39350-074420FM-13+001099999V02099999999999999999N999999999+00571+99999102461ADDMD1110151+9999SA1+0681REMSYN054ACYN4 46/// ///// 10057 40246 51015 90300 222// 00068=
0088997270999992023010804004+39350-074420FM-13+001099999V02099999999999999999N999999999+00491+99999102471ADDMD1110091+9999SA1+0681REMSYN054ACYN4 46/// ///// 10049 40247 51009 90400 222// 00068=
0088997270999992023010805004+39350-074420FM-13+001099999V02099999999999999999N999999999+00421+99999102461ADDMD1110051+9999SA1+0681REMSYN054ACYN4 46/// ///// 10042 40246 51005 90500 222// 00068=
0088997270999992023010806004+39350-074420FM-13+001099999V02099999999999999999N999999999+00361+99999102461ADDMD1410001+9999SA1+0681REMSYN054ACYN4 46/// ///// 10036 40246 54000 90600 222// 00068=
0088997270999992023010807004+39350-074420FM-13+001099999V02099999999999999999N999999999+00321+99999102521ADDMD1310051+9999SA1+0681REMSYN054ACYN4 46/// ///// 10032 40252 53005 90700 222// 00068=
0088997270999992023010808004+39350-074420FM-13+001099999V02099999999999999999N999999999+00261+99999102571ADDMD1310111+9999SA1+0671REMSYN054ACYN4 46/// ///// 10026 40257 53011 90800 222// 00067=
0068997270999992023010809004+39350-074420FM-13+001099999V02099999999999999999N999999999+00241+99999102551ADDSA1+0661REMSYN048ACYN4 46/// ///// 10024 40255 90848 222// 00066=
0088997270999992023010810004+39350-074420FM-13+001099999V02099999999999999999N999999999+00201+99999102581ADDMD1210061+9999SA1+0661REMSYN054ACYN4 46/// ///// 10020 40258 52006 91000 222// 00066=
0068997270999992023010811004+39350-074420FM-13+001099999V02099999999999999999N999999999+00171+99999102621ADDSA1+0651REMSYN048ACYN4 46/// ///// 10017 40262 91036 222// 00065=
0088997270999992023010812004+39350-074420FM-13+001099999V02099999999999999999N999999999+00201+99999102661ADDMD1110131+9999SA1+0651REMSYN054ACYN4 46/// ///// 10020 40266 51013 91200 222// 00065=
0088997270999992023010813004+39350-074420FM-13+001099999V02099999999999999999N999999999+00271+99999102681ADDMD1110101+9999SA1+0651REMSYN054ACYN4 46/// ///// 10027 40268 51010 91300 222// 00065=
0088997270999992023010814004+39350-074420FM-13+001099999V02099999999999999999N999999999+00311+99999102701ADDMD1210061+9999SA1+0651REMSYN054ACYN4 46/// ///// 10031 40270 52006 91400 222// 00065=
0088997270999992023010815004+39350-074420FM-13+001099999V02099999999999999999N999999999+00321+99999102741ADDMD1310081+9999SA1+0641REMSYN054ACYN4 46/// ///// 10032 40274 53008 91500 222// 00064=
0088997270999992023010816004+39350-074420FM-13+001099999V02099999999999999999N999999999+00321+99999102681ADDMD1990001+9999SA1+0641REMSYN054ACYN4 46/// ///// 10032 40268 50000 91600 222// 00064=
0088997270999992023010817004+39350-074420FM-13+001099999V02099999999999999999N999999999+00341+99999102621ADDMD1810081+9999SA1+0651REMSYN054ACYN4 46/// ///// 10034 40262 58008 91700 222// 00065=
0088997270999992023010818004+39350-074420FM-13+001099999V02099999999999999999N999999999+00311+99999102581ADDMD1610161+9999SA1+0661REMSYN054ACYN4 46/// ///// 10031 40258 56016 91800 222// 00066=
0088997270999992023010819004+39350-074420FM-13+001099999V02099999999999999999N999999999+00321+99999102471ADDMD1810211+9999SA1+0671REMSYN054ACYN4 46/// ///// 10032 40247 58021 91900 222// 00067=
0088997270999992023010820004+39350-074420FM-13+001099999V02099999999999999999N999999999+00341+99999102441ADDMD1610181+9999SA1+0671REMSYN054ACYN4 46/// ///// 10034 40244 56018 92000 222// 00067=
0088997270999992023010821004+39350-074420FM-13+001099999V02099999999999999999N999999999+00391+99999102451ADDMD1610131+9999SA1+0681REMSYN054ACYN4 46/// ///// 10039 40245 56013 92100 222// 00068=
0088997270999992023010822004+39350-074420FM-13+001099999V02099999999999999999N999999999+00421+99999102381ADDMD1810091+9999SA1+0671REMSYN054ACYN4 46/// ///// 10042 40238 58009 92200 222// 00067=
0088997270999992023010823004+39350-074420FM-13+001099999V02099999999999999999N999999999+00441+99999102321ADDMD1810121+9999SA1+0671REMSYN054ACYN4 46/// ///// 10044 40232 58012 92300 222// 00067=
0088997270999992023010900004+39350-074420FM-13+001099999V02099999999999999999N999999999+00471+99999102271ADDMD1610181+9999SA1+0671REMSYN054ACYN4 46/// ///// 10047 40227 56018 90000 222// 00067=
0088997270999992023010901004+39350-074420FM-13+001099999V02099999999999999999N999999999+00521+99999102261ADDMD1610121+9999SA1+0671REMSYN054ACYN4 46/// ///// 10052 40226 56012 90100 222// 00067=
0088997270999992023010902004+39350-074420FM-13+001099999V02099999999999999999N999999999+00581+99999102181ADDMD1810141+9999SA1+0661REMSYN054ACYN4 46/// ///// 10058 40218 58014 90200 222// 00066=
0088997270999992023010903004+39350-074420FM-13+001099999V02099999999999999999N999999999+00611+99999102091ADDMD1810181+9999SA1+0661REMSYN054ACYN4 46/// ///// 10061 40209 58018 90300 222// 00066=
0068997270999992023010904004+39350-074420FM-13+001099999V02099999999999999999N999999999+00521+99999102061ADDSA1+0651REMSYN048ACYN4 46/// ///// 10052 40206 90342 222// 00065=
0088997270999992023010905004+39350-074420FM-13+001099999V02099999999999999999N999999999+00511+99999101921ADDMD1810261+9999SA1+0641REMSYN054ACYN4 46/// ///// 10051 40192 58026 90500 222// 00064=
0088997270999992023010906004+39350-074420FM-13+001099999V02099999999999999999N999999999+00511+99999101781ADDMD1810311+9999SA1+0631REMSYN054ACYN4 46/// ///// 10051 40178 58031 90600 222// 00063=
0088997270999992023010907004+39350-074420FM-13+001099999V02099999999999999999N999999999+00601+99999101661ADDMD1810361+9999SA1+0631REMSYN054ACYN4 46/// ///// 10060 40166 58036 90700 222// 00063=
0088997270999992023010908004+39350-074420FM-13+001099999V02099999999999999999N999999999+00631+99999101541ADDMD1610381+9999SA1+0621REMSYN054ACYN4 46/// ///// 10063 40154 56038 90800 222// 00062=
0088997270999992023010909004+39350-074420FM-13+001099999V02099999999999999999N999999999+00631+99999101431ADDMD1610351+9999SA1+0641REMSYN054ACYN4 46/// ///// 10063 40143 56035 90900 222// 00064=
0088997270999992023010910004+39350-074420FM-13+001099999V02099999999999999999N999999999+00621+99999101401ADDMD1610261+9999SA1+0641REMSYN054ACYN4 46/// ///// 10062 40140 56026 91000 222// 00064=
0088997270999992023010911004+39350-074420FM-13+001099999V02099999999999999999N999999999+00601+99999101371ADDMD1610171+9999SA1+0651REMSYN054ACYN4 46/// ///// 10060 40137 56017 91100 222// 00065=
0088997270999992023010912004+39350-074420FM-13+001099999V02099999999999999999N999999999+00531+99999101371ADDMD1610061+9999SA1+0651REMSYN054ACYN4 46/// ///// 10053 40137 56006 91200 222// 00065=
0088997270999992023010913004+39350-074420FM-13+001099999V02099999999999999999N999999999+00491+99999101401ADDMD1510001+9999SA1+0651REMSYN054ACYN4 46/// ///// 10049 40140 55000 91300 222// 00065=
0088997270999992023010914004+39350-074420FM-13+001099999V02099999999999999999N999999999+00451+99999101441ADDMD1310071+9999SA1+0661REMSYN054ACYN4 46/// ///// 10045 40144 53007 91400 222// 00066=
0088997270999992023010915004+39350-074420FM-13+001099999V02099999999999999999N999999999+00461+99999101431ADDMD1110061+9999SA1+0651REMSYN054ACYN4 46/// ///// 10046 40143 51006 91500 222// 00065=
0088997270999992023010916004+39350-074420FM-13+001099999V02099999999999999999N999999999+00501+99999101421ADDMD1990001+9999SA1+0651REMSYN054ACYN4 46/// ///// 10050 40142 50000 91600 222// 00065=
0088997270999992023010917004+39350-074420FM-13+001099999V02099999999999999999N999999999+00661+99999101311ADDMD1810131+9999SA1+0651REMSYN054ACYN4 46/// ///// 10066 40131 58013 91700 222// 00065=
0088997270999992023010918004+39350-074420FM-13+001099999V02099999999999999999N999999999+00711+99999101261ADDMD1810171+9999SA1+0661REMSYN054ACYN4 46/// ///// 10071 40126 58017 91800 222// 00066=
0088997270999992023010919004+39350-074420FM-13+001099999V02099999999999999999N999999999+00791+99999101191ADDMD1610231+9999SA1+0661REMSYN054ACYN4 46/// ///// 10079 40119 56023 91900 222// 00066=
0088997270999992023010920004+39350-074420FM-13+001099999V02099999999999999999N999999999+00791+99999101201ADDMD1610111+9999SA1+0661REMSYN054ACYN4 46/// ///// 10079 40120 56011 92000 222// 00066=
0068997270999992023010921004+39350-074420FM-13+001099999V02099999999999999999N999999999+00731+99999101251ADDSA1+0661REMSYN048ACYN4 46/// ///// 10073 40125 92036 222// 00066=
0088997270999992023010922004+39350-074420FM-13+001099999V02099999999999999999N999999999+00571+99999101321ADDMD1310131+9999SA1+0671REMSYN054ACYN4 46/// ///// 10057 40132 53013 92200 222// 00067=
0088997270999992023010923004+39350-074420FM-13+001099999V02099999999999999999N999999999+00491+99999101381ADDMD1110181+9999SA1+0661REMSYN054ACYN4 46/// ///// 10049 40138 51018 92300 222// 00066=
0088997270999992023011000004+39350-074420FM-13+001099999V02099999999999999999N999999999+00431+99999101451ADDMD1310181+9999SA1+0671REMSYN054ACYN4 46/// ///// 10043 40145 53018 90000 222// 00067=
0088997270999992023011001004+39350-074420FM-13+001099999V02099999999999999999N999999999+00401+99999101461ADDMD1110141+9999SA1+0661REMSYN054ACYN4 46/// ///// 10040 40146 51014 90100 222// 00066=
0088997270999992023011002004+39350-074420FM-13+001099999V02099999999999999999N999999999+00411+99999101461ADDMD1110081+9999SA1+0661REMSYN054ACYN4 46/// ///// 10041 40146 51008 90200 222// 00066=
0088997270999992023011003004+39350-074420FM-13+001099999V02099999999999999999N999999999+00391+99999101471ADDMD1410001+9999SA1+0651REMSYN054ACYN4 46/// ///// 10039 40147 54000 90300 222// 00065=
0088997270999992023011004004+39350-074420FM-13+001099999V02099999999999999999N999999999+00391+99999101491ADDMD1210031+9999SA1+0651REMSYN054ACYN4 46/// ///// 10039 40149 52003 90400 222// 00065=
0088997270999992023011005004+39350-074420FM-13+001099999V02099999999999999999N999999999+00341+99999101511ADDMD1210051+9999SA1+0641REMSYN054ACYN4 46/// ///// 10034 40151 52005 90500 222// 00064=
0088997270999992023011006004+39350-074420FM-13+001099999V02099999999999999999N999999999+00281+99999101561ADDMD1310091+9999SA1+0631REMSYN054ACYN4 46/// ///// 10028 40156 53009 90600 222// 00063=
0088997270999992023011007004+39350-074420FM-13+001099999V02099999999999999999N999999999+00231+99999101621ADDMD1310131+9999SA1+0641REMSYN054ACYN4 46/// ///// 10023 40162 53013 90700 222// 00064=
0088997270999992023011008004+39350-074420FM-13+001099999V02099999999999999999N999999999+00201+99999101611ADDMD1110101+9999SA1+0641REMSYN054ACYN4 46/// ///// 10020 40161 51010 90800 222// 00064=
0088997270999992023011009004+39350-074420FM-13+001099999V02099999999999999999N999999999+00151+99999101631ADDMD1110071+9999SA1+0631REMSYN054ACYN4 46/// ///// 10015 40163 51007 90900 222// 00063=
0088997270999992023011010004+39350-074420FM-13+001099999V02099999999999999999N999999999+00141+99999101721ADDMD1310101+9999SA1+0641REMSYN054ACYN4 46/// ///// 10014 40172 53010 91000 222// 00064=
0088997270999992023011011004+39350-074420FM-13+001099999V02099999999999999999N999999999+00141+99999101741ADDMD1210131+9999SA1+0631REMSYN054ACYN4 46/// ///// 10014 40174 52013 91100 222// 00063=
0088997270999992023011012004+39350-074420FM-13+001099999V02099999999999999999N999999999+00111+99999101801ADDMD1110171+9999SA1+0611REMSYN054ACYN4 46/// ///// 10011 40180 51017 91200 222// 00061=
0088997270999992023011013004+39350-074420FM-13+001099999V02099999999999999999N999999999+00171+99999101821ADDMD1210101+9999SA1+0611REMSYN054ACYN4 46/// ///// 10017 40182 52010 91300 222// 00061=
0068997270999992023011014004+39350-074420FM-13+001099999V02099999999999999999N999999999+00261+99999101831ADDSA1+0611REMSYN048ACYN4 46/// ///// 10026 40183 91336 222// 00061=
0088997270999992023011015004+39350-074420FM-13+001099999V02099999999999999999N999999999+00481+99999101851ADDMD1210051+9999SA1+0621REMSYN054ACYN4 46/// ///// 10048 40185 52005 91500 222// 00062=
0088997270999992023011016004+39350-074420FM-13+001099999V02099999999999999999N999999999+00541+99999101841ADDMD1990001+9999SA1+0611REMSYN054ACYN4 46/// ///// 10054 40184 50000 91600 222// 00061=
0088997270999992023011017004+39350-074420FM-13+001099999V02099999999999999999N999999999+00551+99999101721ADDMD1810141+9999SA1+0611REMSYN054ACYN4 46/// ///// 10055 40172 58014 91700 222// 00061=
0088997270999992023011018004+39350-074420FM-13+001099999V02099999999999999999N999999999+00591+99999101721ADDMD1710131+9999SA1+0611REMSYN054ACYN4 46/// ///// 10059 40172 57013 91800 222// 00061=
0088997270999992023011019004+39350-074420FM-13+001099999V02099999999999999999N999999999+00591+99999101671ADDMD1610171+9999SA1+0611REMSYN054ACYN4 46/// ///// 10059 40167 56017 91900 222// 00061=
0088997270999992023011020004+39350-074420FM-13+001099999V02099999999999999999N999999999+00571+99999101641ADDMD1810081+9999SA1+0611REMSYN054ACYN4 46/// ///// 10057 40164 58008 92000 222// 00061=
0088997270999992023011021004+39350-074420FM-13+001099999V02099999999999999999N999999999+00571+99999101671ADDMD1510051+9999SA1+0611REMSYN054ACYN4 46/// ///// 10057 40167 55005 92100 222// 00061=
0088997270999992023011022004+39350-074420FM-13+001099999V02099999999999999999N999999999+00521+99999101721ADDMD1310051+9999SA1+0611REMSYN054ACYN4 46/// ///// 10052 40172 53005 92200 222// 00061=
0088997270999992023011023004+39350-074420FM-13+001099999V02099999999999999999N999999999+00491+99999101781ADDMD1310141+9999SA1+0621REMSYN054ACYN4 46/// ///// 10049 40178 53014 92300 222// 00062=
0088997270999992023011100004+39350-074420FM-13+001099999V02099999999999999999N999999999+00451+99999101801ADDMD1110131+9999SA1+0621REMSYN054ACYN4 46/// ///// 10045 40180 51013 90000 222// 00062=
0088997270999992023011101004+39350-074420FM-13+001099999V02099999999999999999N999999999+00411+99999101841ADDMD1110121+9999SA1+0621REMSYN054ACYN4 46/// ///// 10041 40184 51012 90100 222// 00062=
0088997270999992023011102004+39350-074420FM-13+001099999V02099999999999999999N999999999+00411+99999101881ADDMD1310101+9999SA1+0621REMSYN054ACYN4 46/// ///// 10041 40188 53010 90200 222// 00062=
0088997270999992023011103004+39350-074420FM-13+001099999V02099999999999999999N999999999+00411+99999101921ADDMD1210121+9999SA1+0621REMSYN054ACYN4 46/// ///// 10041 40192 52012 90300 222// 00062=
0088997270999992023011104004+39350-074420FM-13+001099999V02099999999999999999N999999999+00441+99999101911ADDMD1110071+9999SA1+0611REMSYN054ACYN4 46/// ///// 10044 40191 51007 90400 222// 00061=
0088997270999992023011105004+39350-074420FM-13+001099999V02099999999999999999N999999999+00401+99999101921ADDMD1110041+9999SA1+0601REMSYN054ACYN4 46/// ///// 10040 40192 51004 90500 222// 00060=
0088997270999992023011106004+39350-074420FM-13+001099999V02099999999999999999N999999999+00381+99999101941ADDMD1410001+9999SA1+0601REMSYN054ACYN4 46/// ///// 10038 40194 54000 90600 222// 00060=
0088997270999992023011107004+39350-074420FM-13+001099999V02099999999999999999N999999999+00431+99999101981ADDMD1310071+9999SA1+0611REMSYN054ACYN4 46/// ///// 10043 40198 53007 90700 222// 00061=
0088997270999992023011108004+39350-074420FM-13+001099999V02099999999999999999N999999999+00311+99999102041ADDMD1310121+9999SA1+0611REMSYN054ACYN4 46/// ///// 10031 40204 53012 90800 222// 00061=
0088997270999992023011109004+39350-074420FM-13+001099999V02099999999999999999N999999999+00261+99999102061ADDMD1110121+9999SA1+0621REMSYN054ACYN4 46/// ///// 10026 40206 51012 90900 222// 00062=
0068997270999992023011110004+39350-074420FM-13+001099999V02099999999999999999N999999999+00271+99999102111ADDSA1+0611REMSYN048ACYN4 46/// ///// 10027 40211 90948 222// 00061=
0088997270999992023011111004+39350-074420FM-13+001099999V02099999999999999999N999999999+00391+99999102031ADDMD1990001+9999SA1+0601REMSYN054ACYN4 46/// ///// 10039 40203 50000 91100 222// 00060=
0088997270999992023011112004+39350-074420FM-13+001099999V02099999999999999999N999999999+00301+99999102161ADDMD1310101+9999SA1+0601REMSYN054ACYN4 46/// ///// 10030 40216 53010 91200 222// 00060=
0088997270999992023011113004+39350-074420FM-13+001099999V02099999999999999999N999999999+00351+99999102241ADDMD1310131+9999SA1+0601REMSYN054ACYN4 46/// ///// 10035 40224 53013 91300 222// 00060=
0088997270999992023011114004+39350-074420FM-13+001099999V02099999999999999999N999999999+00491+99999102261ADDMD1110231+9999SA1+0601REMSYN054ACYN4 46/// ///// 10049 40226 51023 91400 222// 00060=
0088997270999992023011115004+39350-074420FM-13+001099999V02099999999999999999N999999999+00511+99999102281ADDMD1110121+9999SA1+0601REMSYN054ACYN4 46/// ///// 10051 40228 51012 91500 222// 00060=
0088997270999992023011116004+39350-074420FM-13+001099999V02099999999999999999N999999999+00521+99999102361ADDMD1310121+9999SA1+0631REMSYN054ACYN4 46/// ///// 10052 40236 53012 91600 222// 00063=
0088997270999992023011117004+39350-074420FM-13+001099999V02099999999999999999N999999999+00521+99999102271ADDMD1990001+9999SA1+0631REMSYN054ACYN4 46/// ///// 10052 40227 50000 91700 222// 00063=
0088997270999992023011118004+39350-074420FM-13+001099999V02099999999999999999N999999999+00521+99999102251ADDMD1810031+9999SA1+0641REMSYN054ACYN4 46/// ///// 10052 40225 58003 91800 222// 00064=
0088997270999992023011119004+39350-074420FM-13+001099999V02099999999999999999N999999999+00521+99999102221ADDMD1610141+9999SA1+0641REMSYN054ACYN4 46/// ///// 10052 40222 56014 91900 222// 00064=
0088997270999992023011120004+39350-074420FM-13+001099999V02099999999999999999N999999999+00521+99999102291ADDMD1510001+9999SA1+0641REMSYN054ACYN4 46/// ///// 10052 40229 55000 92000 222// 00064=
0088997270999992023011121004+39350-074420FM-13+001099999V02099999999999999999N999999999+00511+99999102311ADDMD1310061+9999SA1+0651REMSYN054ACYN4 46/// ///// 10051 40231 53006 92100 222// 00065=
0088997270999992023011122004+39350-074420FM-13+001099999V02099999999999999999N999999999+00501+99999102321ADDMD1110101+9999SA1+0651REMSYN054ACYN4 46/// ///// 10050 40232 51010 92200 222// 00065=
0088997270999992023011123004+39350-074420FM-13+001099999V02099999999999999999N999999999+00511+99999102311ADDMD1410001+9999SA1+0641REMSYN054ACYN4 46/// ///// 10051 40231 54000 92300 222// 00064=
0088997270999992023011200004+39350-074420FM-13+001099999V02099999999999999999N999999999+00531+99999102301ADDMD1410001+9999SA1+0641REMSYN054ACYN4 46/// ///// 10053 40230 54000 90000 222// 00064=
0088997270999992023011201004+39350-074420FM-13+001099999V02099999999999999999N999999999+00541+99999102331ADDMD1510001+9999SA1+0641REMSYN054ACYN4 46/// ///// 10054 40233 55000 90100 222// 00064=
0088997270999992023011202004+39350-074420FM-13+001099999V02099999999999999999N999999999+00551+99999102271ADDMD1810041+9999SA1+0631REMSYN054ACYN4 46/// ///// 10055 40227 58004 90200 222// 00063=
0088997270999992023011203004+39350-074420FM-13+001099999V02099999999999999999N999999999+00581+99999102321ADDMD1510001+9999SA1+0631REMSYN054ACYN4 46/// ///// 10058 40232 55000 90300 222// 00063=
0088997270999992023011204004+39350-074420FM-13+001099999V02099999999999999999N999999999+00601+99999102341ADDMD1510001+9999SA1+0621REMSYN054ACYN4 46/// ///// 10060 40234 55000 90400 222// 00062=
0088997270999992023011205004+39350-074420FM-13+001099999V02099999999999999999N999999999+00611+99999102281ADDMD1990001+9999SA1+0611REMSYN054ACYN4 46/// ///// 10061 40228 50000 90500 222// 00061=
0088997270999992023011206004+39350-074420FM-13+001099999V02099999999999999999N999999999+00581+99999102201ADDMD1810121+9999SA1+0611REMSYN054ACYN4 46/// ///// 10058 40220 58012 90600 222// 00061=
0088997270999992023011207004+39350-074420FM-13+001099999V02099999999999999999N999999999+00591+99999102191ADDMD1610151+9999SA1+0611REMSYN054ACYN4 46/// ///// 10059 40219 56015 90700 222// 00061=
0088997270999992023011208004+39350-074420FM-13+001099999V02099999999999999999N999999999+00631+99999102101ADDMD1810181+9999SA1+0611REMSYN054ACYN4 46/// ///// 10063 40210 58018 90800 222// 00061=
0088997270999992023011209004+39350-074420FM-13+001099999V02099999999999999999N999999999+00671+99999102071ADDMD1810131+9999SA1+0611REMSYN054ACYN4 46/// ///// 10067 40207 58013 90900 222// 00061=
0068997270999992023011210004+39350-074420FM-13+001099999V02099999999999999999N999999999+00691+99999102021ADDSA1+0611REMSYN048ACYN4 46/// ///// 10069 40202 90948 222// 00061=
0088997270999992023011211004+39350-074420FM-13+001099999V02099999999999999999N999999999+00721+99999102001ADDMD1610101+9999SA1+0611REMSYN054ACYN4 46/// ///// 10072 40200 56010 91100 222// 00061=
0088997270999992023011212004+39350-074420FM-13+001099999V02099999999999999999N999999999+00731+99999102021ADDMD1610051+9999SA1+0611REMSYN054ACYN4 46/// ///// 10073 40202 56005 91200 222// 00061=
0088997270999992023011213004+39350-074420FM-13+001099999V02099999999999999999N999999999+00731+99999102001ADDMD1410001+9999SA1+0611REMSYN054ACYN4 46/// ///// 10073 40200 54000 91300 222// 00061=
0088997270999992023011214004+39350-074420FM-13+001099999V02099999999999999999N999999999+00781+99999101951ADDMD1810051+9999SA1+0611REMSYN054ACYN4 46/// ///// 10078 40195 58005 91400 222// 00061=
0088997270999992023011223004+39350-074420FM-13+001099999V02099999999999999999N999999999+00961+99999101081ADDMD1610291+9999SA1+0651REMSYN054ACYN4 46/// ///// 10096 40108 56029 92300 222// 00065=
0088997270999992023011300004+39350-074420FM-13+001099999V02099999999999999999N999999999+01001+99999101021ADDMD1810181+9999SA1+0641REMSYN054ACYN4 46/// ///// 10100 40102 58018 90000 222// 00064=
0088997270999992023011301004+39350-074420FM-13+001099999V02099999999999999999N999999999+01031+99999100921ADDMD1810251+9999SA1+0641REMSYN054ACYN4 46/// ///// 10103 40092 58025 90100 222// 00064=
0088997270999992023011302004+39350-074420FM-13+001099999V02099999999999999999N999999999+01071+99999100811ADDMD1810271+9999SA1+0641REMSYN054ACYN4 46/// ///// 10107 40081 58027 90200 222// 00064=
0088997270999992023011303004+39350-074420FM-13+001099999V02099999999999999999N999999999+01041+99999100741ADDMD1610281+9999SA1+0651REMSYN054ACYN4 46/// ///// 10104 40074 56028 90300 222// 00065=
0088997270999992023011304004+39350-074420FM-13+001099999V02099999999999999999N999999999+01061+99999100631ADDMD1710291+9999SA1+0661REMSYN054ACYN4 46/// ///// 10106 40063 57029 90400 222// 00066=
0088997270999992023011305004+39350-074420FM-13+001099999V02099999999999999999N999999999+01101+99999100481ADDMD1810331+9999SA1+0661REMSYN054ACYN4 46/// ///// 10110 40048 58033 90500 222// 00066=
0088997270999992023011306004+39350-074420FM-13+001099999V02099999999999999999N999999999+01141+99999100391ADDMD1610351+9999SA1+0661REMSYN054ACYN4 46/// ///// 10114 40039 56035 90600 222// 00066=
0088997270999992023011307004+39350-074420FM-13+001099999V02099999999999999999N999999999+00981+99999100351ADDMD1610281+9999SA1+0681REMSYN054ACYN4 46/// ///// 10098 40035 56028 90700 222// 00068=
0088997270999992023011308004+39350-074420FM-13+001099999V02099999999999999999N999999999+00911+99999100261ADDMD1710221+9999SA1+0681REMSYN054ACYN4 46/// ///// 10091 40026 57022 90800 222// 00068=
0088997270999992023011309004+39350-074420FM-13+001099999V02099999999999999999N999999999+00931+99999100181ADDMD1810211+9999SA1+0681REMSYN054ACYN4 46/// ///// 10093 40018 58021 90900 222// 00068=
0088997270999992023011310004+39350-074420FM-13+001099999V02099999999999999999N999999999+00931+99999100211ADDMD1510141+9999SA1+0691REMSYN054ACYN4 46/// ///// 10093 40021 55014 91000 222// 00069=
0088997270999992023011311004+39350-074420FM-13+001099999V02099999999999999999N999999999+00901+99999100191ADDMD1610071+9999SA1+0691REMSYN054ACYN4 46/// ///// 10090 40019 56007 91100 222// 00069=
0088997270999992023011312004+39350-074420FM-13+001099999V02099999999999999999N999999999+00881+99999100141ADDMD1810041+9999SA1+0681REMSYN054ACYN4 46/// ///// 10088 40014 58004 91200 222// 00068=
0088997270999992023011313004+39350-074420FM-13+001099999V02099999999999999999N999999999+00851+99999100151ADDMD1710061+9999SA1+0681REMSYN054ACYN4 46/// ///// 10085 40015 57006 91300 222// 00068=
0088997270999992023011314004+39350-074420FM-13+001099999V02099999999999999999N999999999+00851+99999100131ADDMD1610061+9999SA1+0681REMSYN054ACYN4 46/// ///// 10085 40013 56006 91400 222// 00068=
0088997270999992023011315004+39350-074420FM-13+001099999V02099999999999999999N999999999+00841+99999100191ADDMD1310051+9999SA1+0681REMSYN054ACYN4 46/// ///// 10084 40019 53005 91500 222// 00068=
0088997270999992023011316004+39350-074420FM-13+001099999V02099999999999999999N999999999+00881+99999100221ADDMD1310071+9999SA1+0681REMSYN054ACYN4 46/// ///// 10088 40022 53007 91600 222// 00068=
0088997270999992023011317004+39350-074420FM-13+001099999V02099999999999999999N999999999+01141+99999100121ADDMD1990001+9999SA1+0691REMSYN054ACYN4 46/// ///// 10114 40012 50000 91700 222// 00069=
0088997270999992023011318004+39350-074420FM-13+001099999V02099999999999999999N999999999+01101+99999100191ADDMD1510001+9999SA1+0701REMSYN054ACYN4 46/// ///// 10110 40019 55000 91800 222// 00070=
0088997270999992023011319004+39350-074420FM-13+001099999V02099999999999999999N999999999+01061+99999100141ADDMD1610081+9999SA1+0701REMSYN054ACYN4 46/// ///// 10106 40014 56008 91900 222// 00070=
0088997270999992023011320004+39350-074420FM-13+001099999V02099999999999999999N999999999+00911+99999100141ADDMD1990001+9999SA1+0701REMSYN054ACYN4 46/// ///// 10091 40014 50000 92000 222// 00070=
0088997270999992023011321004+39350-074420FM-13+001099999V02099999999999999999N999999999+00861+99999100301ADDMD1310111+9999SA1+0701REMSYN054ACYN4 46/// ///// 10086 40030 53011 92100 222// 00070=
0088997270999992023011322004+39350-074420FM-13+001099999V02099999999999999999N999999999+00801+99999100401ADDMD1310261+9999SA1+0701REMSYN054ACYN4 46/// ///// 10080 40040 53026 92200 222// 00070=
0088997270999992023011323004+39350-074420FM-13+001099999V02099999999999999999N999999999+00721+99999100411ADDMD1110271+9999SA1+0701REMSYN054ACYN4 46/// ///// 10072 40041 51027 92300 222// 00070=
0088997270999992023011400004+39350-074420FM-13+001099999V02099999999999999999N999999999+00621+99999100541ADDMD1310241+9999SA1+0691REMSYN054ACYN4 46/// ///// 10062 40054 53024 90000 222// 00069=
0088997270999992023011401004+39350-074420FM-13+001099999V02099999999999999999N999999999+00521+99999100511ADDMD1990111+9999SA1+0691REMSYN054ACYN4 46/// ///// 10052 40051 50011 90100 222// 00069=
0088997270999992023011402004+39350-074420FM-13+001099999V02099999999999999999N999999999+00441+99999100501ADDMD1110091+9999SA1+0691REMSYN054ACYN4 46/// ///// 10044 40050 51009 90200 222// 00069=
0088997270999992023011403004+39350-074420FM-13+001099999V02099999999999999999N999999999+00391+99999100521ADDMD1510001+9999SA1+0691REMSYN054ACYN4 46/// ///// 10039 40052 55000 90300 222// 00069=
0088997270999992023011404004+39350-074420FM-13+001099999V02099999999999999999N999999999+00381+99999100471ADDMD1810041+9999SA1+0681REMSYN054ACYN4 46/// ///// 10038 40047 58004 90400 222// 00068=
0088997270999992023011405004+39350-074420FM-13+001099999V02099999999999999999N999999999+00341+99999100461ADDMD1710041+9999SA1+0681REMSYN054ACYN4 46/// ///// 10034 40046 57004 90500 222// 00068=
0088997270999992023011406004+39350-074420FM-13+001099999V02099999999999999999N999999999+00311+99999100531ADDMD1510001+9999SA1+0681REMSYN054ACYN4 46/// ///// 10031 40053 55000 90600 222// 00068=
0088997270999992023011407004+39350-074420FM-13+001099999V02099999999999999999N999999999+00271+99999100591ADDMD1310121+9999SA1+0681REMSYN054ACYN4 46/// ///// 10027 40059 53012 90700 222// 00068=
0088997270999992023011408004+39350-074420FM-13+001099999V02099999999999999999N999999999+00241+99999100641ADDMD1110181+9999SA1+0681REMSYN054ACYN4 46/// ///// 10024 40064 51018 90800 222// 00068=
0088997270999992023011409004+39350-074420FM-13+001099999V02099999999999999999N999999999+00201+99999100651ADDMD1110121+9999SA1+0671REMSYN054ACYN4 46/// ///// 10020 40065 51012 90900 222// 00067=
0088997270999992023011410004+39350-074420FM-13+001099999V02099999999999999999N999999999+00101+99999100611ADDMD1990001+9999SA1+0671REMSYN054ACYN4 46/// ///// 10010 40061 50000 91000 222// 00067=
0088997270999992023011411004+39350-074420FM-13+001099999V02099999999999999999N999999999+00041+99999100661ADDMD1510001+9999SA1+0671REMSYN054ACYN4 46/// ///// 10004 40066 55000 91100 222// 00067=
0088997270999992023011412004+39350-074420FM-13+001099999V02099999999999999999N999999999+00091+99999100761ADDMD1310111+9999SA1+0661REMSYN054ACYN4 46/// ///// 10009 40076 53011 91200 222// 00066=
0088997270999992023011413004+39350-074420FM-13+001099999V02099999999999999999N999999999+00081+99999100781ADDMD1110171+9999SA1+0651REMSYN054ACYN4 46/// ///// 10008 40078 51017 91300 222// 00065=
0088997270999992023011414004+39350-074420FM-13+001099999V02099999999999999999N999999999+00091+99999100891ADDMD1310231+9999SA1+0641REMSYN054ACYN4 46/// ///// 10009 40089 53023 91400 222// 00064=
0088997270999992023011415004+39350-074420FM-13+001099999V02099999999999999999N999999999+00111+99999100961ADDMD1310201+9999SA1+0631REMSYN054ACYN4 46/// ///// 10011 40096 53020 91500 222// 00063=
0088997270999992023011416004+39350-074420FM-13+001099999V02099999999999999999N999999999+00151+99999100931ADDMD1990151+9999SA1+0631REMSYN054ACYN4 46/// ///// 10015 40093 50015 91600 222// 00063=
0088997270999992023011417004+39350-074420FM-13+001099999V02099999999999999999N999999999+00151+99999100921ADDMD1110031+9999SA1+0631REMSYN054ACYN4 46/// ///// 10015 40092 51003 91700 222// 00063=
0088997270999992023011418004+39350-074420FM-13+001099999V02099999999999999999N999999999+00161+99999100861ADDMD1810101+9999SA1+0631REMSYN054ACYN4 46/// ///// 10016 40086 58010 91800 222// 00063=
0088997270999992023011419004+39350-074420FM-13+001099999V02099999999999999999N999999999+00181+99999100891ADDMD1510041+9999SA1+0631REMSYN054ACYN4 46/// ///// 10018 40089 55004 91900 222// 00063=
0088997270999992023011420004+39350-074420FM-13+001099999V02099999999999999999N999999999+00171+99999100921ADDMD1510001+9999SA1+0621REMSYN054ACYN4 46/// ///// 10017 40092 55000 92000 222// 00062=
0088997270999992023011421004+39350-074420FM-13+001099999V02099999999999999999N999999999+00111+99999100931ADDMD1110071+9999SA1+0621REMSYN054ACYN4 46/// ///// 10011 40093 51007 92100 222// 00062=
0088997270999992023011422004+39350-074420FM-13+001099999V02099999999999999999N999999999+00101+99999100981ADDMD1310091+9999SA1+0621REMSYN054ACYN4 46/// ///// 10010 40098 53009 92200 222// 00062=
0088997270999992023011423004+39350-074420FM-13+001099999V02099999999999999999N999999999+00071+99999101021ADDMD1310101+9999SA1+0611REMSYN054ACYN4 46/// ///// 10007 40102 53010 92300 222// 00061=
0088997270999992023011500004+39350-074420FM-13+001099999V02099999999999999999N999999999+00051+99999100891ADDMD1810041+9999SA1+0611REMSYN054ACYN4 46/// ///// 10005 40089 58004 90000 222// 00061=
0088997270999992023011501004+39350-074420FM-13+001099999V02099999999999999999N999999999+00041+99999101001ADDMD1510001+9999SA1+0611REMSYN054ACYN4 46/// ///// 10004 40100 55000 90100 222// 00061=
0088997270999992023011502004+39350-074420FM-13+001099999V02099999999999999999N999999999+00011+99999101061ADDMD1310041+9999SA1+0601REMSYN054ACYN4 46/// ///// 10001 40106 53004 90200 222// 00060=
0088997270999992023011503004+39350-074420FM-13+001099999V02099999999999999999N999999999-00011+99999101121ADDMD1110231+9999SA1+0591REMSYN054ACYN4 46/// ///// 11001 40112 51023 90300 222// 00059=
0068997270999992023011504004+39350-074420FM-13+001099999V02099999999999999999N999999999+00011+99999101061ADDSA1+0601REMSYN048ACYN4 46/// ///// 10001 40106 90348 222// 00060=
0088997270999992023011505004+39350-074420FM-13+001099999V02099999999999999999N999999999+00021+99999101121ADDMD1210061+9999SA1+0601REMSYN054ACYN4 46/// ///// 10002 40112 52006 90500 222// 00060=
0088997270999992023011506004+39350-074420FM-13+001099999V02099999999999999999N999999999-00021+99999101071ADDMD1610051+9999SA1+0601REMSYN054ACYN4 46/// ///// 11002 40107 56005 90600 222// 00060=
0088997270999992023011507004+39350-074420FM-13+001099999V02099999999999999999N999999999-00021+99999101111ADDMD1110051+9999SA1+0601REMSYN054ACYN4 46/// ///// 11002 40111 51005 90700 222// 00060=
0088997270999992023011508004+39350-074420FM-13+001099999V02099999999999999999N999999999-00011+99999101201ADDMD1310081+9999SA1+0591REMSYN054ACYN4 46/// ///// 11001 40120 53008 90800 222// 00059=
0088997270999992023011509004+39350-074420FM-13+001099999V02099999999999999999N999999999-00041+99999101231ADDMD1110161+9999SA1+0581REMSYN054ACYN4 46/// ///// 11004 40123 51016 90900 222// 00058=
0088997270999992023011510004+39350-074420FM-13+001099999V02099999999999999999N999999999-00021+99999101271ADDMD1110161+9999SA1+0551REMSYN054ACYN4 46/// ///// 11002 40127 51016 91000 222// 00055=
0088997270999992023011511004+39350-074420FM-13+001099999V02099999999999999999N999999999-00021+99999101301ADDMD1210101+9999SA1+0551REMSYN054ACYN4 46/// ///// 11002 40130 52010 91100 222// 00055=
0088997270999992023011512004+39350-074420FM-13+001099999V02099999999999999999N999999999-00021+99999101341ADDMD1210111+9999SA1+0551REMSYN054ACYN4 46/// ///// 11002 40134 52011 91200 222// 00055=
0088997270999992023011513004+39350-074420FM-13+001099999V02099999999999999999N999999999-00011+99999101411ADDMD1310141+9999SA1+0561REMSYN054ACYN4 46/// ///// 11001 40141 53014 91300 222// 00056=
0088997270999992023011514004+39350-074420FM-13+001099999V02099999999999999999N999999999+00051+99999101511ADDMD1310211+9999SA1+0561REMSYN054ACYN4 46/// ///// 10005 40151 53021 91400 222// 00056=
0088997270999992023011515004+39350-074420FM-13+001099999V02099999999999999999N999999999+00071+99999101531ADDMD1110191+9999SA1+0531REMSYN054ACYN4 46/// ///// 10007 40153 51019 91500 222// 00053=
0088997270999992023011516004+39350-074420FM-13+001099999V02099999999999999999N999999999+00181+99999101511ADDMD1110101+9999SA1+0531REMSYN054ACYN4 46/// ///// 10018 40151 51010 91600 222// 00053=
0088997270999992023011517004+39350-074420FM-13+001099999V02099999999999999999N999999999+00341+99999101451ADDMD1810061+9999SA1+0551REMSYN054ACYN4 46/// ///// 10034 40145 58006 91700 222// 00055=
0088997270999992023011518004+39350-074420FM-13+001099999V02099999999999999999N999999999+00491+99999101381ADDMD1810151+9999SA1+0561REMSYN054ACYN4 46/// ///// 10049 40138 58015 91800 222// 00056=
0088997270999992023011519004+39350-074420FM-13+001099999V02099999999999999999N999999999+00571+99999101341ADDMD1610171+9999SA1+0591REMSYN054ACYN4 46/// ///// 10057 40134 56017 91900 222// 00059=
0088997270999992023011520004+39350-074420FM-13+001099999V02099999999999999999N999999999+00571+99999101321ADDMD1610131+9999SA1+0611REMSYN054ACYN4 46/// ///// 10057 40132 56013 92000 222// 00061=
0088997270999992023011521004+39350-074420FM-13+001099999V02099999999999999999N999999999+00561+99999101411ADDMD1310031+9999SA1+0601REMSYN054ACYN4 46/// ///// 10056 40141 53003 92100 222// 00060=
0088997270999992023011522004+39350-074420FM-13+001099999V02099999999999999999N999999999+00501+99999101451ADDMD1310111+9999SA1+0581REMSYN054ACYN4 46/// ///// 10050 40145 53011 92200 222// 00058=
0088997270999992023011523004+39350-074420FM-13+001099999V02099999999999999999N999999999+00441+99999101461ADDMD1110141+9999SA1+0571REMSYN054ACYN4 46/// ///// 10044 40146 51014 92300 222// 00057=
0088997270999992023011600004+39350-074420FM-13+001099999V02099999999999999999N999999999+00391+99999101501ADDMD1210091+9999SA1+0561REMSYN054ACYN4 46/// ///// 10039 40150 52009 90000 222// 00056=
0088997270999992023011601004+39350-074420FM-13+001099999V02099999999999999999N999999999+00331+99999101511ADDMD1210061+9999SA1+0561REMSYN054ACYN4 46/// ///// 10033 40151 52006 90100 222// 00056=
0088997270999992023011602004+39350-074420FM-13+001099999V02099999999999999999N999999999+00281+99999101471ADDMD1990001+9999SA1+0561REMSYN054ACYN4 46/// ///// 10028 40147 50000 90200 222// 00056=
0088997270999992023011603004+39350-074420FM-13+001099999V02099999999999999999N999999999+00221+99999101481ADDMD1410001+9999SA1+0531REMSYN054ACYN4 46/// ///// 10022 40148 54000 90300 222// 00053=
0088997270999992023011604004+39350-074420FM-13+001099999V02099999999999999999N999999999+00161+99999101481ADDMD1610031+9999SA1+0511REMSYN054ACYN4 46/// ///// 10016 40148 56003 90400 222// 00051=
0088997270999992023011605004+39350-074420FM-13+001099999V02099999999999999999N999999999+00111+99999101441ADDMD1810031+9999SA1+0531REMSYN054ACYN4 46/// ///// 10011 40144 58003 90500 222// 00053=
0088997270999992023011606004+39350-074420FM-13+001099999V02099999999999999999N999999999+00081+99999101441ADDMD1710041+9999SA1+0571REMSYN054ACYN4 46/// ///// 10008 40144 57004 90600 222// 00057=
0088997270999992023011607004+39350-074420FM-13+001099999V02099999999999999999N999999999+00031+99999101431ADDMD1610051+9999SA1+0571REMSYN054ACYN4 46/// ///// 10003 40143 56005 90700 222// 00057=
0088997270999992023011608004+39350-074420FM-13+001099999V02099999999999999999N999999999-00041+99999101461ADDMD1510001+9999SA1+0601REMSYN054ACYN4 46/// ///// 11004 40146 55000 90800 222// 00060=
0088997270999992023011609004+39350-074420FM-13+001099999V02099999999999999999N999999999-00071+99999101441ADDMD1410001+9999SA1+0601REMSYN054ACYN4 46/// ///// 11007 40144 54000 90900 222// 00060=
0088997270999992023011610004+39350-074420FM-13+001099999V02099999999999999999N999999999-00071+99999101441ADDMD1990001+9999SA1+0601REMSYN054ACYN4 46/// ///// 11007 40144 50000 91000 222// 00060=
0088997270999992023011611004+39350-074420FM-13+001099999V02099999999999999999N999999999-00111+99999101431ADDMD1710031+9999SA1+0591REMSYN054ACYN4 46/// ///// 11011 40143 57003 91100 222// 00059=
0088997270999992023011612004+39350-074420FM-13+001099999V02099999999999999999N999999999-00141+99999101421ADDMD1410001+9999SA1+0591REMSYN054ACYN4 46/// ///// 11014 40142 54000 91200 222// 00059=
0088997270999992023011613004+39350-074420FM-13+001099999V02099999999999999999N999999999-00111+99999101411ADDMD1710031+9999SA1+0591REMSYN054ACYN4 46/// ///// 11011 40141 57003 91300 222// 00059=
0088997270999992023011614004+39350-074420FM-13+001099999V02099999999999999999N999999999+00011+99999101411ADDMD1410001+9999SA1+0591REMSYN054ACYN4 46/// ///// 10001 40141 54000 91400 222// 00059=
0088997270999992023011615004+39350-074420FM-13+001099999V02099999999999999999N999999999+00171+99999101381ADDMD1810041+9999SA1+0571REMSYN054ACYN4 46/// ///// 10017 40138 58004 91500 222// 00057=
0088997270999992023011616004+39350-074420FM-13+001099999V02099999999999999999N999999999+00321+99999101311ADDMD1810101+9999SA1+0571REMSYN054ACYN4 46/// ///// 10032 40131 58010 91600 222// 00057=
0088997270999992023011617004+39350-074420FM-13+001099999V02099999999999999999N999999999+00511+99999101171ADDMD1810241+9999SA1+0561REMSYN054ACYN4 46/// ///// 10051 40117 58024 91700 222// 00056=
0088997270999992023011618004+39350-074420FM-13+001099999V02099999999999999999N999999999+00701+99999101091ADDMD1810291+9999SA1+0501REMSYN054ACYN4 46/// ///// 10070 40109 58029 91800 222// 00050=
0088997270999992023011619004+39350-074420FM-13+001099999V02099999999999999999N999999999+00751+99999101011ADDMD1610301+9999SA1+0481REMSYN054ACYN4 46/// ///// 10075 40101 56030 91900 222// 00048=
0088997270999992023011620004+39350-074420FM-13+001099999V02099999999999999999N999999999+00851+99999100981ADDMD1610191+9999SA1+0501REMSYN054ACYN4 46/// ///// 10085 40098 56019 92000 222// 00050=
0088997270999992023011621004+39350-074420FM-13+001099999V02099999999999999999N999999999+00851+99999100921ADDMD1610171+9999SA1+0521REMSYN054ACYN4 46/// ///// 10085 40092 56017 92100 222// 00052=
0088997270999992023011622004+39350-074420FM-13+001099999V02099999999999999999N999999999+00781+99999100961ADDMD1510051+9999SA1+0531REMSYN054ACYN4 46/// ///// 10078 40096 55005 92200 222// 00053=
0068997270999992023011623004+39350-074420FM-13+001099999V02099999999999999999N999999999+00731+99999100971ADDSA1+0531REMSYN048ACYN4 46/// ///// 10073 40097 92236 222// 00053=
0088997270999992023011700004+39350-074420FM-13+001099999V02099999999999999999N999999999+00621+99999101001ADDMD1110081+9999SA1+0531REMSYN054ACYN4 46/// ///// 10062 40100 51008 90000 222// 00053=
0088997270999992023011701004+39350-074420FM-13+001099999V02099999999999999999N999999999+00581+99999100981ADDMD1990001+9999SA1+0531REMSYN054ACYN4 46/// ///// 10058 40098 50000 90100 222// 00053=
0088997270999992023011702004+39350-074420FM-13+001099999V02099999999999999999N999999999+00521+99999101001ADDMD1410001+9999SA1+0531REMSYN054ACYN4 46/// ///// 10052 40100 54000 90200 222// 00053=
0088997270999992023011703004+39350-074420FM-13+001099999V02099999999999999999N999999999+00461+99999100991ADDMD1410001+9999SA1+0531REMSYN054ACYN4 46/// ///// 10046 40099 54000 90300 222// 00053=
0088997270999992023011704004+39350-074420FM-13+001099999V02099999999999999999N999999999+00421+99999100961ADDMD1990001+9999SA1+0521REMSYN054ACYN4 46/// ///// 10042 40096 50000 90400 222// 00052=
0088997270999992023011705004+39350-074420FM-13+001099999V02099999999999999999N999999999+00381+99999100941ADDMD1710061+9999SA1+0531REMSYN054ACYN4 46/// ///// 10038 40094 57006 90500 222// 00053=
0088997270999992023011706004+39350-074420FM-13+001099999V02099999999999999999N999999999+00381+99999100921ADDMD1610071+9999SA1+0531REMSYN054ACYN4 46/// ///// 10038 40092 56007 90600 222// 00053=
0088997270999992023011707004+39350-074420FM-13+001099999V02099999999999999999N999999999+00341+99999100911ADDMD1710051+9999SA1+0541REMSYN054ACYN4 46/// ///// 10034 40091 57005 90700 222// 00054=
0088997270999992023011708004+39350-074420FM-13+001099999V02099999999999999999N999999999+00341+99999100911ADDMD1710031+9999SA1+0531REMSYN054ACYN4 46/// ///// 10034 40091 57003 90800 222// 00053=
0088997270999992023011709004+39350-074420FM-13+001099999V02099999999999999999N999999999+00391+99999100831ADDMD1810091+9999SA1+0541REMSYN054ACYN4 46/// ///// 10039 40083 58009 90900 222// 00054=
0088997270999992023011710004+39350-074420FM-13+001099999V02099999999999999999N999999999+00361+99999100881ADDMD1510031+9999SA1+0541REMSYN054ACYN4 46/// ///// 10036 40088 55003 91000 222// 00054=
0088997270999992023011711004+39350-074420FM-13+001099999V02099999999999999999N999999999+00401+99999100851ADDMD1610061+9999SA1+0511REMSYN054ACYN4 46/// ///// 10040 40085 56006 91100 222// 00051=
0088997270999992023011712004+39350-074420FM-13+001099999V02099999999999999999N999999999+00471+99999100851ADDMD1990001+9999SA1+0511REMSYN054ACYN4 46/// ///// 10047 40085 50000 91200 222// 00051=
0088997270999992023011713004+39350-074420FM-13+001099999V02099999999999999999N999999999+00451+99999100871ADDMD1510001+9999SA1+0501REMSYN054ACYN4 46/// ///// 10045 40087 55000 91300 222// 00050=
0088997270999992023011714004+39350-074420FM-13+001099999V02099999999999999999N999999999+00531+99999100841ADDMD1990001+9999SA1+0511REMSYN054ACYN4 46/// ///// 10053 40084 50000 91400 222// 00051=
0088997270999992023011715004+39350-074420FM-13+001099999V02099999999999999999N999999999+00601+99999100801ADDMD1810051+9999SA1+0521REMSYN054ACYN4 46/// ///// 10060 40080 58005 91500 222// 00052=
0088997270999992023011716004+39350-074420FM-13+001099999V02099999999999999999N999999999+00631+99999100711ADDMD1810161+9999SA1+0521REMSYN054ACYN4 46/// ///// 10063 40071 58016 91600 222// 00052=
0088997270999992023011717004+39350-074420FM-13+001099999V02099999999999999999N999999999+00631+99999100631ADDMD1810211+9999SA1+0521REMSYN054ACYN4 46/// ///// 10063 40063 58021 91700 222// 00052=
0088997270999992023011718004+39350-074420FM-13+001099999V02099999999999999999N999999999+00591+99999100511ADDMD1810291+9999SA1+0521REMSYN054ACYN4 46/// ///// 10059 40051 58029 91800 222// 00052=
0068997270999992023011719004+39350-074420FM-13+001099999V02099999999999999999N999999999+00581+99999100421ADDSA1+0521REMSYN048ACYN4 46/// ///// 10058 40042 91842 222// 00052=
0088997270999992023011720004+39350-074420FM-13+001099999V02099999999999999999N999999999+00561+99999100431ADDMD1610201+9999SA1+0531REMSYN054ACYN4 46/// ///// 10056 40043 56020 92000 222// 00053=
0088997270999992023011721004+39350-074420FM-13+001099999V02099999999999999999N999999999+00571+99999100451ADDMD1610061+9999SA1+0531REMSYN054ACYN4 46/// ///// 10057 40045 56006 92100 222// 00053=
0088997270999992023011722004+39350-074420FM-13+001099999V02099999999999999999N999999999+00551+99999100451ADDMD1210031+9999SA1+0531REMSYN054ACYN4 46/// ///// 10055 40045 52003 92200 222// 00053=
0088997270999992023011723004+39350-074420FM-13+001099999V02099999999999999999N999999999+00551+99999100481ADDMD1310051+9999SA1+0531REMSYN054ACYN4 46/// ///// 10055 40048 53005 92300 222// 00053=
0088997270999992023011800004+39350-074420FM-13+001099999V02099999999999999999N999999999+00561+99999100491ADDMD1210041+9999SA1+0531REMSYN054ACYN4 46/// ///// 10056 40049 52004 90000 222// 00053=
0088997270999992023011801004+39350-074420FM-13+001099999V02099999999999999999N999999999+00611+99999100541ADDMD1310091+9999SA1+0531REMSYN054ACYN4 46/// ///// 10061 40054 53009 90100 222// 00053=
0088997270999992023011802004+39350-074420FM-13+001099999V02099999999999999999N999999999+00601+99999100541ADDMD1210061+9999SA1+0531REMSYN054ACYN4 46/// ///// 10060 40054 52006 90200 222// 00053=
0088997270999992023011803004+39350-074420FM-13+001099999V02099999999999999999N999999999+00591+99999100561ADDMD1110071+9999SA1+0531REMSYN054ACYN4 46/// ///// 10059 40056 51007 90300 222// 00053=
0088997270999992023011804004+39350-074420FM-13+001099999V02099999999999999999N999999999+00621+99999100521ADDMD1990001+9999SA1+0531REMSYN054ACYN4 46/// ///// 10062 40052 50000 90400 222// 00053=
0088997270999992023011805004+39350-074420FM-13+001099999V02099999999999999999N999999999+00611+99999100511ADDMD1710031+9999SA1+0541REMSYN054ACYN4 46/// ///// 10061 40051 57003 90500 222// 00054=
0068997270999992023011806004+39350-074420FM-13+001099999V02099999999999999999N999999999+00631+99999100531ADDSA1+0551REMSYN048ACYN4 46/// ///// 10063 40053 90542 222// 00055=
0088997270999992023011807004+39350-074420FM-13+001099999V02099999999999999999N999999999+00691+99999100461ADDMD1810061+9999SA1+0551REMSYN054ACYN4 46/// ///// 10069 40046 58006 90700 222// 00055=
0088997270999992023011808004+39350-074420FM-13+001099999V02099999999999999999N999999999+00611+99999100491ADDMD1410001+9999SA1+0551REMSYN054ACYN4 46/// ///// 10061 40049 54000 90800 222// 00055=
0088997270999992023011809004+39350-074420FM-13+001099999V02099999999999999999N999999999+00671+99999100541ADDMD1510001+9999SA1+0551REMSYN054ACYN4 46/// ///// 10067 40054 55000 90900 222// 00055=
0088997270999992023011810004+39350-074420FM-13+001099999V02099999999999999999N999999999+00631+99999100621ADDMD1310161+9999SA1+0561REMSYN054ACYN4 46/// ///// 10063 40062 53016 91000 222// 00056=
0088997270999992023011811004+39350-074420FM-13+001099999V02099999999999999999N999999999+00641+99999100661ADDMD1110171+9999SA1+0551REMSYN054ACYN4 46/// ///// 10064 40066 51017 91100 222// 00055=
0088997270999992023011812004+39350-074420FM-13+001099999V02099999999999999999N999999999+00661+99999100731ADDMD1110191+9999SA1+0551REMSYN054ACYN4 46/// ///// 10066 40073 51019 91200 222// 00055=
0088997270999992023011813004+39350-074420FM-13+001099999V02099999999999999999N999999999+99999+99999100831ADDMD1310211+9999SA1+0551REMSYN054ACYN4 46/// ///// 1//// 40083 53021 91300 222// 00055=
0088997270999992023011814004+39350-074420FM-13+001099999V02099999999999999999N999999999+00771+99999100931ADDMD1310271+9999SA1+0551REMSYN054ACYN4 46/// ///// 10077 40093 53027 91400 222// 00055=
0088997270999992023011815004+39350-074420FM-13+001099999V02099999999999999999N999999999+01071+99999101011ADDMD1110281+9999SA1+0561REMSYN054ACYN4 46/// ///// 10107 40101 51028 91500 222// 00056=
0088997270999992023011816004+39350-074420FM-13+001099999V02099999999999999999N999999999+01241+99999100951ADDMD1990121+9999SA1+0581REMSYN054ACYN4 46/// ///// 10124 40095 50012 91600 222// 00058=
0088997270999992023011817004+39350-074420FM-13+001099999V02099999999999999999N999999999+01321+99999100921ADDMD1990001+9999SA1+0581REMSYN054ACYN4 46/// ///// 10132 40092 50000 91700 222// 00058=
0088997270999992023011818004+39350-074420FM-13+001099999V02099999999999999999N999999999+01371+99999100951ADDMD1510061+9999SA1+0571REMSYN054ACYN4 46/// ///// 10137 40095 55006 91800 222// 00057=
0088997270999992023011819004+39350-074420FM-13+001099999V02099999999999999999N999999999+01341+99999100971ADDMD1510001+9999SA1+0581REMSYN054ACYN4 46/// ///// 10134 40097 55000 91900 222// 00058=
0088997270999992023011820004+39350-074420FM-13+001099999V02099999999999999999N999999999+01281+99999101071ADDMD1310151+9999SA1+0591REMSYN054ACYN4 46/// ///// 10128 40107 53015 92000 222// 00059=
0088997270999992023011821004+39350-074420FM-13+001099999V02099999999999999999N999999999+01211+99999101181ADDMD1310231+9999SA1+0601REMSYN054ACYN4 46/// ///// 10121 40118 53023 92100 222// 00060=
0088997270999992023011822004+39350-074420FM-13+001099999V02099999999999999999N999999999+01111+99999101311ADDMD1310341+9999SA1+0611REMSYN054ACYN4 46/// ///// 10111 40131 53034 92200 222// 00061=
0088997270999992023011823004+39350-074420FM-13+001099999V02099999999999999999N999999999+01021+99999101461ADDMD1310391+9999SA1+0601REMSYN054ACYN4 46/// ///// 10102 40146 53039 92300 222// 00060=
0088997270999992023011900004+39350-074420FM-13+001099999V02099999999999999999N999999999+00951+99999101521ADDMD1110341+9999SA1+0601REMSYN054ACYN4 46/// ///// 10095 40152 51034 90000 222// 00060=
0088997270999992023011901004+39350-074420FM-13+001099999V02099999999999999999N999999999+00881+99999101561ADDMD1110251+9999SA1+0591REMSYN054ACYN4 46/// ///// 10088 40156 51025 90100 222// 00059=
0088997270999992023011902004+39350-074420FM-13+001099999V02099999999999999999N999999999+00801+99999101601ADDMD1110141+9999SA1+0591REMSYN054ACYN4 46/// ///// 10080 40160 51014 90200 222// 00059=
0088997270999992023011903004+39350-074420FM-13+001099999V02099999999999999999N999999999+00761+99999101611ADDMD1110091+9999SA1+0591REMSYN054ACYN4 46/// ///// 10076 40161 51009 90300 222// 00059=
0088997270999992023011904004+39350-074420FM-13+001099999V02099999999999999999N999999999+00711+99999101591ADDMD1110031+9999SA1+0591REMSYN054ACYN4 46/// ///// 10071 40159 51003 90400 222// 00059=
0088997270999992023011905004+39350-074420FM-13+001099999V02099999999999999999N999999999+00661+99999101631ADDMD1310031+9999SA1+0581REMSYN054ACYN4 46/// ///// 10066 40163 53003 90500 222// 00058=
0088997270999992023011906004+39350-074420FM-13+001099999V02099999999999999999N999999999+00621+99999101671ADDMD1310061+9999SA1+0571REMSYN054ACYN4 46/// ///// 10062 40167 53006 90600 222// 00057=
0088997270999992023011907004+39350-074420FM-13+001099999V02099999999999999999N999999999+00591+99999101641ADDMD1990051+9999SA1+0571REMSYN054ACYN4 46/// ///// 10059 40164 50005 90700 222// 00057=
0088997270999992023011908004+39350-074420FM-13+001099999V02099999999999999999N999999999+00651+99999101631ADDMD1990001+9999SA1+0571REMSYN054ACYN4 46/// ///// 10065 40163 50000 90800 222// 00057=
0088997270999992023011909004+39350-074420FM-13+001099999V02099999999999999999N999999999+00641+99999101631ADDMD1610041+9999SA1+0581REMSYN054ACYN4 46/// ///// 10064 40163 56004 90900 222// 00058=
0068997270999992023011910004+39350-074420FM-13+001099999V02099999999999999999N999999999+00601+99999101701ADDSA1+0571REMSYN048ACYN4 46/// ///// 10060 40170 90948 222// 00057=
0088997270999992023011911004+39350-074420FM-13+001099999V02099999999999999999N999999999+00621+99999101641ADDMD1990001+9999SA1+0581REMSYN054ACYN4 46/// ///// 10062 40164 50000 91100 222// 00058=
0088997270999992023011912004+39350-074420FM-13+001099999V02099999999999999999N999999999+00581+99999101721ADDMD1310091+9999SA1+0571REMSYN054ACYN4 46/// ///// 10058 40172 53009 91200 222// 00057=
0088997270999992023011913004+39350-074420FM-13+001099999V02099999999999999999N999999999+00591+99999101691ADDMD1410001+9999SA1+0571REMSYN054ACYN4 46/// ///// 10059 40169 54000 91300 222// 00057=
0088997270999992023011914004+39350-074420FM-13+001099999V02099999999999999999N999999999+00511+99999101661ADDMD1990001+9999SA1+0561REMSYN054ACYN4 46/// ///// 10051 40166 50000 91400 222// 00056=
0088997270999992023011915004+39350-074420FM-13+001099999V02099999999999999999N999999999+00561+99999101681ADDMD1610041+9999SA1+0561REMSYN054ACYN4 46/// ///// 10056 40168 56004 91500 222// 00056=
0088997270999992023011916004+39350-074420FM-13+001099999V02099999999999999999N999999999+00581+99999101521ADDMD1810171+9999SA1+0561REMSYN054ACYN4 46/// ///// 10058 40152 58017 91600 222// 00056=
0088997270999992023011917004+39350-074420FM-13+001099999V02099999999999999999N999999999+00621+99999101291ADDMD1810371+9999SA1+0571REMSYN054ACYN4 46/// ///// 10062 40129 58037 91700 222// 00057=
0088997270999992023011918004+39350-074420FM-13+001099999V02099999999999999999N999999999+00661+99999101131ADDMD1710551+9999SA1+0571REMSYN054ACYN4 46/// ///// 10066 40113 57055 91800 222// 00057=
0088997270999992023011919004+39350-074420FM-13+001099999V02099999999999999999N999999999+00691+99999100951ADDMD1610571+9999SA1+0571REMSYN054ACYN4 46/// ///// 10069 40095 56057 91900 222// 00057=
0088997270999992023011920004+39350-074420FM-13+001099999V02099999999999999999N999999999+00731+99999100821ADDMD1610471+9999SA1+0571REMSYN054ACYN4 46/// ///// 10073 40082 56047 92000 222// 00057=
0088997270999992023011921004+39350-074420FM-13+001099999V02099999999999999999N999999999+00831+99999100751ADDMD1610381+9999SA1+0571REMSYN054ACYN4 46/// ///// 10083 40075 56038 92100 222// 00057=
0088997270999992023011922004+39350-074420FM-13+001099999V02099999999999999999N999999999+00881+99999100641ADDMD1610311+9999SA1+0571REMSYN054ACYN4 46/// ///// 10088 40064 56031 92200 222// 00057=
0088997270999992023011923004+39350-074420FM-13+001099999V02099999999999999999N999999999+00861+99999100481ADDMD1810341+9999SA1+0571REMSYN054ACYN4 46/// ///// 10086 40048 58034 92300 222// 00057=
0088997270999992023012000004+39350-074420FM-13+001099999V02099999999999999999N999999999+00851+99999100371ADDMD1710381+9999SA1+0581REMSYN054ACYN4 46/// ///// 10085 40037 57038 90000 222// 00058=
0088997270999992023012001004+39350-074420FM-13+001099999V02099999999999999999N999999999+00851+99999100211ADDMD1710431+9999SA1+0581REMSYN054ACYN4 46/// ///// 10085 40021 57043 90100 222// 00058=
0088997270999992023012002004+39350-074420FM-13+001099999V02099999999999999999N999999999+00861+99999100061ADDMD1810421+9999SA1+0581REMSYN054ACYN4 46/// ///// 10086 40006 58042 90200 222// 00058=
0088997270999992023012003004+39350-074420FM-13+001099999V02099999999999999999N999999999+00861+99999100081ADDMD1610291+9999SA1+0581REMSYN054ACYN4 46/// ///// 10086 40008 56029 90300 222// 00058=
0088997270999992023012004004+39350-074420FM-13+001099999V02099999999999999999N999999999+00991+99999100151ADDMD1510061+9999SA1+0581REMSYN054ACYN4 46/// ///// 10099 40015 55006 90400 222// 00058=
0088997270999992023012005004+39350-074420FM-13+001099999V02099999999999999999N999999999+00891+99999100101ADDMD1990041+9999SA1+0581REMSYN054ACYN4 46/// ///// 10089 40010 50004 90500 222// 00058=
0088997270999992023012006004+39350-074420FM-13+001099999V02099999999999999999N999999999+00881+99999100121ADDMD1110041+9999SA1+0581REMSYN054ACYN4 46/// ///// 10088 40012 51004 90600 222// 00058=
0088997270999992023012007004+39350-074420FM-13+001099999V02099999999999999999N999999999+00901+99999100271ADDMD1310121+9999SA1+0581REMSYN054ACYN4 46/// ///// 10090 40027 53012 90700 222// 00058=
0088997270999992023012008004+39350-074420FM-13+001099999V02099999999999999999N999999999+00791+99999100271ADDMD1210171+9999SA1+0581REMSYN054ACYN4 46/// ///// 10079 40027 52017 90800 222// 00058=
0088997270999992023012009004+39350-074420FM-13+001099999V02099999999999999999N999999999+00731+99999100271ADDMD1110151+9999SA1+0591REMSYN054ACYN4 46/// ///// 10073 40027 51015 90900 222// 00059=
0088997270999992023012010004+39350-074420FM-13+001099999V02099999999999999999N999999999+00671+99999100341ADDMD1310071+9999SA1+0581REMSYN054ACYN4 46/// ///// 10067 40034 53007 91000 222// 00058=
0088997270999992023012011004+39350-074420FM-13+001099999V02099999999999999999N999999999+00651+99999100391ADDMD1310121+9999SA1+0581REMSYN054ACYN4 46/// ///// 10065 40039 53012 91100 222// 00058=
0068997270999992023012012004+39350-074420FM-13+001099999V02099999999999999999N999999999+00651+99999100461ADDSA1+0581REMSYN048ACYN4 46/// ///// 10065 40046 91148 222// 00058=
0088997270999992023012013004+39350-074420FM-13+001099999V02099999999999999999N999999999+00641+99999100521ADDMD1110181+9999SA1+0581REMSYN054ACYN4 46/// ///// 10064 40052 51018 91300 222// 00058=
0088997270999992023012014004+39350-074420FM-13+001099999V02099999999999999999N999999999+00601+99999100631ADDMD1310241+9999SA1+0581REMSYN054ACYN4 46/// ///// 10060 40063 53024 91400 222// 00058=
0088997270999992023012015004+39350-074420FM-13+001099999V02099999999999999999N999999999+00811+99999100651ADDMD1110171+9999SA1+0591REMSYN054ACYN4 46/// ///// 10081 40065 51017 91500 222// 00059=
0088997270999992023012016004+39350-074420FM-13+001099999V02099999999999999999N999999999+00991+99999100621ADDMD1990101+9999SA1+0601REMSYN054ACYN4 46/// ///// 10099 40062 50010 91600 222// 00060=
0088997270999992023012017004+39350-074420FM-13+001099999V02099999999999999999N999999999+00991+99999100581ADDMD1810051+9999SA1+0611REMSYN054ACYN4 46/// ///// 10099 40058 58005 91700 222// 00061=
0088997270999992023012018004+39350-074420FM-13+001099999V02099999999999999999N999999999+00991+99999100611ADDMD1510041+9999SA1+0621REMSYN054ACYN4 46/// ///// 10099 40061 55004 91800 222// 00062=
0088997270999992023012019004+39350-074420FM-13+001099999V02099999999999999999N999999999+01001+99999100651ADDMD1310031+9999SA1+0631REMSYN054ACYN4 46/// ///// 10100 40065 53003 91900 222// 00063=
0088997270999992023012020004+39350-074420FM-13+001099999V02099999999999999999N999999999+00961+99999100731ADDMD1310151+9999SA1+0641REMSYN054ACYN4 46/// ///// 10096 40073 53015 92000 222// 00064=
0088997270999992023012021004+39350-074420FM-13+001099999V02099999999999999999N999999999+00901+99999100861ADDMD1310251+9999SA1+0641REMSYN054ACYN4 46/// ///// 10090 40086 53025 92100 222// 00064=
0088997270999992023012022004+39350-074420FM-13+001099999V02099999999999999999N999999999+00791+99999101001ADDMD1310351+9999SA1+0641REMSYN054ACYN4 46/// ///// 10079 40100 53035 92200 222// 00064=
0088997270999992023012023004+39350-074420FM-13+001099999V02099999999999999999N999999999+00761+99999101121ADDMD1110391+9999SA1+0631REMSYN054ACYN4 46/// ///// 10076 40112 51039 92300 222// 00063=
0088997270999992023012100004+39350-074420FM-13+001099999V02099999999999999999N999999999+00741+99999101231ADDMD1110371+9999SA1+0631REMSYN054ACYN4 46/// ///// 10074 40123 51037 90000 222// 00063=
0088997270999992023012101004+39350-074420FM-13+001099999V02099999999999999999N999999999+00671+99999101271ADDMD1110271+9999SA1+0621REMSYN054ACYN4 46/// ///// 10067 40127 51027 90100 222// 00062=
0088997270999992023012102004+39350-074420FM-13+001099999V02099999999999999999N999999999+00631+99999101331ADDMD1110211+9999SA1+0621REMSYN054ACYN4 46/// ///// 10063 40133 51021 90200 222// 00062=
0088997270999992023012103004+39350-074420FM-13+001099999V02099999999999999999N999999999+00571+99999101421ADDMD1310191+9999SA1+0611REMSYN054ACYN4 46/// ///// 10057 40142 53019 90300 222// 00061=
0088997270999992023012104004+39350-074420FM-13+001099999V02099999999999999999N999999999+00561+99999101451ADDMD1110181+9999SA1+0611REMSYN054ACYN4 46/// ///// 10056 40145 51018 90400 222// 00061=
0088997270999992023012105004+39350-074420FM-13+001099999V02099999999999999999N999999999+00481+99999101461ADDMD1110131+9999SA1+0611REMSYN054ACYN4 46/// ///// 10048 40146 51013 90500 222// 00061=
0088997270999992023012106004+39350-074420FM-13+001099999V02099999999999999999N999999999+00411+99999101441ADDMD1990001+9999SA1+0601REMSYN054ACYN4 46/// ///// 10041 40144 50000 90600 222// 00060=
0088997270999992023012107004+39350-074420FM-13+001099999V02099999999999999999N999999999+00391+99999101521ADDMD1310071+9999SA1+0591REMSYN054ACYN4 46/// ///// 10039 40152 53007 90700 222// 00059=
0088997270999992023012108004+39350-074420FM-13+001099999V02099999999999999999N999999999+00341+99999101561ADDMD1310101+9999SA1+0591REMSYN054ACYN4 46/// ///// 10034 40156 53010 90800 222// 00059=
0088997270999992023012109004+39350-074420FM-13+001099999V02099999999999999999N999999999+00331+99999101581ADDMD1110141+9999SA1+0591REMSYN054ACYN4 46/// ///// 10033 40158 51014 90900 222// 00059=
0088997270999992023012110004+39350-074420FM-13+001099999V02099999999999999999N999999999+00281+99999101651ADDMD1310131+9999SA1+0581REMSYN054ACYN4 46/// ///// 10028 40165 53013 91000 222// 00058=
0088997270999992023012111004+39350-074420FM-13+001099999V02099999999999999999N999999999+00341+99999101731ADDMD1310171+9999SA1+0591REMSYN054ACYN4 46/// ///// 10034 40173 53017 91100 222// 00059=
0088997270999992023012112004+39350-074420FM-13+001099999V02099999999999999999N999999999+00381+99999101841ADDMD1310261+9999SA1+0581REMSYN054ACYN4 46/// ///// 10038 40184 53026 91200 222// 00058=
0088997270999992023012113004+39350-074420FM-13+001099999V02099999999999999999N999999999+00481+99999101911ADDMD1110261+9999SA1+0581REMSYN054ACYN4 46/// ///// 10048 40191 51026 91300 222// 00058=
0088997270999992023012114004+39350-074420FM-13+001099999V02099999999999999999N999999999+00461+99999102011ADDMD1110281+9999SA1+0581REMSYN054ACYN4 46/// ///// 10046 40201 51028 91400 222// 00058=
0088997270999992023012115004+39350-074420FM-13+001099999V02099999999999999999N999999999+00531+99999102071ADDMD1110231+9999SA1+0581REMSYN054ACYN4 46/// ///// 10053 40207 51023 91500 222// 00058=
0088997270999992023012116004+39350-074420FM-13+001099999V02099999999999999999N999999999+00541+99999102081ADDMD1110171+9999SA1+0581REMSYN054ACYN4 46/// ///// 10054 40208 51017 91600 222// 00058=
0088997270999992023012117004+39350-074420FM-13+001099999V02099999999999999999N999999999+00501+99999102081ADDMD1110071+9999SA1+0591REMSYN054ACYN4 46/// ///// 10050 40208 51007 91700 222// 00059=
0088997270999992023012118004+39350-074420FM-13+001099999V02099999999999999999N999999999+00531+99999102061ADDMD1410001+9999SA1+0591REMSYN054ACYN4 46/// ///// 10053 40206 54000 91800 222// 00059=
0088997270999992023012119004+39350-074420FM-13+001099999V02099999999999999999N999999999+00511+99999102071ADDMD1410001+9999SA1+0591REMSYN054ACYN4 46/// ///// 10051 40207 54000 91900 222// 00059=
0088997270999992023012120004+39350-074420FM-13+001099999V02099999999999999999N999999999+00521+99999102111ADDMD1310031+9999SA1+0601REMSYN054ACYN4 46/// ///// 10052 40211 53003 92000 222// 00060=
0088997270999992023012121004+39350-074420FM-13+001099999V02099999999999999999N999999999+00521+99999102161ADDMD1310101+9999SA1+0601REMSYN054ACYN4 46/// ///// 10052 40216 53010 92100 222// 00060=
0088997270999992023012123004+39350-074420FM-13+001099999V02099999999999999999N999999999+00461+99999102281ADDMD1310171+9999SA1+0591REMSYN054ACYN4 46/// ///// 10046 40228 53017 92300 222// 00059=
0088997270999992023012200004+39350-074420FM-13+001099999V02099999999999999999N999999999+00451+99999102331ADDMD1310171+9999SA1+0591REMSYN054ACYN4 46/// ///// 10045 40233 53017 90000 222// 00059=
0088997270999992023012201004+39350-074420FM-13+001099999V02099999999999999999N999999999+00421+99999102321ADDMD1110121+9999SA1+0581REMSYN054ACYN4 46/// ///// 10042 40232 51012 90100 222// 00058=
0088997270999992023012202004+39350-074420FM-13+001099999V02099999999999999999N999999999+00401+99999102361ADDMD1110081+9999SA1+0581REMSYN054ACYN4 46/// ///// 10040 40236 51008 90200 222// 00058=
0088997270999992023012203004+39350-074420FM-13+001099999V02099999999999999999N999999999+00391+99999102361ADDMD1210031+9999SA1+0581REMSYN054ACYN4 46/// ///// 10039 40236 52003 90300 222// 00058=
0088997270999992023012204004+39350-074420FM-13+001099999V02099999999999999999N999999999+00371+99999102361ADDMD1110041+9999SA1+0581REMSYN054ACYN4 46/// ///// 10037 40236 51004 90400 222// 00058=
0088997270999992023012205004+39350-074420FM-13+001099999V02099999999999999999N999999999+00351+99999102271ADDMD1810091+9999SA1+0571REMSYN054ACYN4 46/// ///// 10035 40227 58009 90500 222// 00057=
0088997270999992023012206004+39350-074420FM-13+001099999V02099999999999999999N999999999+00361+99999102311ADDMD1510051+9999SA1+0571REMSYN054ACYN4 46/// ///// 10036 40231 55005 90600 222// 00057=
0088997270999992023012207004+39350-074420FM-13+001099999V02099999999999999999N999999999+00371+99999102381ADDMD1510001+9999SA1+0581REMSYN054ACYN4 46/// ///// 10037 40238 55000 90700 222// 00058=
0088997270999992023012208004+39350-074420FM-13+001099999V02099999999999999999N999999999+00361+99999102331ADDMD1990061+9999SA1+0571REMSYN054ACYN4 46/// ///// 10036 40233 50006 90800 222// 00057=
0088997270999992023012209004+39350-074420FM-13+001099999V02099999999999999999N999999999+00361+99999102271ADDMD1810041+9999SA1+0571REMSYN054ACYN4 46/// ///// 10036 40227 58004 90900 222// 00057=
0088997270999992023012210004+39350-074420FM-13+001099999V02099999999999999999N999999999+00381+99999102271ADDMD1610111+9999SA1+0571REMSYN054ACYN4 46/// ///// 10038 40227 56011 91000 222// 00057=
0088997270999992023012211004+39350-074420FM-13+001099999V02099999999999999999N999999999+00401+99999102221ADDMD1610111+9999SA1+0561REMSYN054ACYN4 46/// ///// 10040 40222 56011 91100 222// 00056=
0088997270999992023012212004+39350-074420FM-13+001099999V02099999999999999999N999999999+00421+99999102221ADDMD1710051+9999SA1+0561REMSYN054ACYN4 46/// ///// 10042 40222 57005 91200 222// 00056=
0088997270999992023012213004+39350-074420FM-13+001099999V02099999999999999999N999999999+00441+99999102141ADDMD1810131+9999SA1+0561REMSYN054ACYN4 46/// ///// 10044 40214 58013 91300 222// 00056=
0088997270999992023012214004+39350-074420FM-13+001099999V02099999999999999999N999999999+00471+99999102111ADDMD1810111+9999SA1+0551REMSYN054ACYN4 46/// ///// 10047 40211 58011 91400 222// 00055=
0088997270999992023012215004+39350-074420FM-13+001099999V02099999999999999999N999999999+00501+99999102101ADDMD1610121+9999SA1+0551REMSYN054ACYN4 46/// ///// 10050 40210 56012 91500 222// 00055=
0088997270999992023012216004+39350-074420FM-13+001099999V02099999999999999999N999999999+00511+99999102011ADDMD1810131+9999SA1+0551REMSYN054ACYN4 46/// ///// 10051 40201 58013 91600 222// 00055=
0088997270999992023012217004+39350-074420FM-13+001099999V02099999999999999999N999999999+00521+99999101921ADDMD1810191+9999SA1+0551REMSYN054ACYN4 46/// ///// 10052 40192 58019 91700 222// 00055=
0088997270999992023012218004+39350-074420FM-13+001099999V02099999999999999999N999999999+00521+99999101791ADDMD1810311+9999SA1+0561REMSYN054ACYN4 46/// ///// 10052 40179 58031 91800 222// 00056=
0088997270999992023012219004+39350-074420FM-13+001099999V02099999999999999999N999999999+00571+99999101691ADDMD1810321+9999SA1+0561REMSYN054ACYN4 46/// ///// 10057 40169 58032 91900 222// 00056=
0088997270999992023012220004+39350-074420FM-13+001099999V02099999999999999999N999999999+00541+99999101611ADDMD1610311+9999SA1+0561REMSYN054ACYN4 46/// ///// 10054 40161 56031 92000 222// 00056=
0088997270999992023012221004+39350-074420FM-13+001099999V02099999999999999999N999999999+00541+99999101481ADDMD1810311+9999SA1+0561REMSYN054ACYN4 46/// ///// 10054 40148 58031 92100 222// 00056=
0088997270999992023012222004+39350-074420FM-13+001099999V02099999999999999999N999999999+00531+99999101331ADDMD1810361+9999SA1+0561REMSYN054ACYN4 46/// ///// 10053 40133 58036 92200 222// 00056=
