0088997743999992023010100004+40650-074067FM-13+007299999V0201901N003119999999N999999999+01031+99999101041ADDOD159900361999REMSYN062ROBN4 46/// /1906 10103 40104 92336 333 91207 555 11006 22006=
0088997743999992023010101004+40650-074067FM-13+007299999V0201601N002619999999N999999999+00981+99999101001ADDOD159900311999REMSYN062ROBN4 46/// /1605 10098 40100 90036 333 91206 555 11005 22005=
0088997743999992023010102004+40650-074067FM-13+007299999V0201801N001019999999N999999999+00971+99999100891ADDOD159900151999REMSYN062ROBN4 46/// /1802 10097 40089 90148 333 91203 555 11002 22002=
0108997743999992023010103004+40650-074067FM-13+007299999V0202701N003119999999N999999999+01111+99999100841ADDMD1610201+9999OD159900311999REMSYN068ROBN4 46/// /2706 10111 40084 56020 90300 333 91206 555 11005 22006=
0108997743999992023010104004+40650-074067FM-13+007299999V0203101N001519999999N999999999+99999+99999100801ADDMD1610161+9999OD159900261999REMSYN068ROBN4 46/// /3103 1//// 40080 56016 90400 333 91205 555 11003 22003=
0108997743999992023010105004+40650-074067FM-13+007299999V0201201N002119999999N999999999+01101+99999100661ADDMD1810201+9999OD159900211999REMSYN068ROBN4 46/// /1204 10110 40066 58020 90500 333 91204 555 11003 22004=
0108997743999992023010106004+40650-074067FM-13+007299999V0202701N004119999999N999999999+01121+99999100691ADDMD1510151+9999OD159900511999REMSYN068ROBN4 46/// /2708 10112 40069 55015 90600 333 91210 555 11007 22008=
0108997743999992023010107004+40650-074067FM-13+007299999V0202701N007219999999N999999999+01091+99999100721ADDMD1510081+9999OD159900821999REMSYN068ROBN4 46/// /2714 10109 40072 55008 90700 333 91216 555 11013 22014=
0108997743999992023010108004+40650-074067FM-13+007299999V0202801N005719999999N999999999+01101+99999100791ADDMD1310131+9999OD159900621999REMSYN068ROBN4 46/// /2811 10110 40079 53013 90800 333 91212 555 11010 22011=
0108997743999992023010109004+40650-074067FM-13+007299999V0202701N005119999999N999999999+01051+99999100841ADDMD1310151+9999OD159900571999REMSYN068ROBN4 46/// /2710 10105 40084 53015 90900 333 91211 555 11009 22010=
0108997743999992023010110004+40650-074067FM-13+007299999V0202701N004619999999N999999999+01021+99999100871ADDMD1110151+9999OD159900511999REMSYN068ROBN4 46/// /2709 10102 40087 51015 91000 333 91210 555 11008 22009=
0108997743999992023010111004+40650-074067FM-13+007299999V0202601N007219999999N999999999+00991+99999100981ADDMD1310191+9999OD159900771999REMSYN068ROBN4 46/// /2614 10099 40098 53019 91100 333 91215 555 11012 22014=
0108997743999992023010112004+40650-074067FM-13+007299999V0202801N004119999999N999999999+00931+99999101041ADDMD1310201+9999OD159900511999REMSYN068ROBN4 46/// /2808 10093 40104 53020 91200 333 91210 555 11008 22008=
0108997743999992023010113004+40650-074067FM-13+007299999V0202601N007219999999N999999999+00951+99999101161ADDMD1310291+9999OD159900771999REMSYN068ROBN4 46/// /2614 10095 40116 53029 91300 333 91215 555 11012 22014=
0108997743999992023010114004+40650-074067FM-13+007299999V0202701N004619999999N999999999+00981+99999101221ADDMD1210241+9999OD159900571999REMSYN068ROBN4 46/// /2709 10098 40122 52024 91400 333 91211 555 11009 22009=
0108997743999992023010115004+40650-074067FM-13+007299999V0202801N006219999999N999999999+01071+99999101371ADDMD1310331+9999OD159900671999REMSYN068ROBN4 46/// /2812 10107 40137 53033 91500 333 91213 555 11011 22012=
0108997743999992023010116004+40650-074067FM-13+007299999V0203001N008219999999N999999999+01131+99999101371ADDMD1110211+9999OD159900931999REMSYN068ROBN4 46/// /3016 10113 40137 51021 91600 333 91218 555 11015 22016=
0108997743999992023010117004+40650-074067FM-13+007299999V0203001N006719999999N999999999+01101+99999101321ADDMD1990101+9999OD159900771999REMSYN068ROBN4 46/// /3013 10110 40132 50010 91700 333 91215 555 11012 22013=
0108997743999992023010118004+40650-074067FM-13+007299999V0203101N006719999999N999999999+01161+99999101341ADDMD1710031+9999OD159900981999REMSYN068ROBN4 46/// /3113 10116 40134 57003 91800 333 91219 555 11012 22013=
0108997743999992023010119004+40650-074067FM-13+007299999V0203001N004119999999N999999999+01191+99999101331ADDMD1610041+9999OD159900571999REMSYN068ROBN4 46/// /3008 10119 40133 56004 91900 333 91211 555 11008 22008=
0108997743999992023010120004+40650-074067FM-13+007299999V0203101N005719999999N999999999+01221+99999101351ADDMD1210031+9999OD159900721999REMSYN068ROBN4 46/// /3111 10122 40135 52003 92000 333 91214 555 11010 22011=
0108997743999992023010121004+40650-074067FM-13+007299999V0203101N003619999999N999999999+01251+99999101401ADDMD1310061+9999OD159900411999REMSYN068ROBN4 46/// /3107 10125 40140 53006 92100 333 91208 555 11006 22007=
0108997743999992023010122004+40650-074067FM-13+007299999V0202601N002119999999N999999999+99999+99999101421ADDMD1210091+9999OD159900261999REMSYN068ROBN4 46/// /2604 1//// 40142 52009 92200 333 91205 555 11003 22004=
0108997743999992023010123004+40650-074067FM-13+007299999V0202201N002119999999N999999999+01141+99999101451ADDMD1110101+9999OD159900211999REMSYN068ROBN4 46/// /2204 10114 40145 51010 92300 333 91204 555 11003 22004=
0108997743999992023010200004+40650-074067FM-13+007299999V0202701N004619999999N999999999+01081+99999101601ADDMD1310201+9999OD159900511999REMSYN068ROBN4 46/// /2709 10108 40160 53020 90000 333 91210 555 11008 22009=
0108997743999992023010201004+40650-074067FM-13+007299999V0202501N002619999999N999999999+01031+99999101621ADDMD1110201+9999OD159900361999REMSYN068ROBN4 46/// /2505 10103 40162 51020 90100 333 91207 555 11005 22005=
0108997743999992023010202004+40650-074067FM-13+007299999V0202501N002119999999N999999999+00981+99999101671ADDMD1110221+9999OD159900261999REMSYN068ROBN4 46/// /2504 10098 40167 51022 90200 333 91205 555 11004 22004=
0108997743999992023010203004+40650-074067FM-13+007299999V0202801N002119999999N999999999+00911+99999101681ADDMD1210081+9999OD159900311999REMSYN068ROBN4 46/// /2804 10091 40168 52008 90300 333 91206 555 11004 22004=
0108997743999992023010204004+40650-074067FM-13+007299999V0202801N002119999999N999999999+00881+99999101711ADDMD1110091+9999OD159900261999REMSYN068ROBN4 46/// /2804 10088 40171 51009 90400 333 91205 555 11004 22004=
0108997743999992023010205004+40650-074067FM-13+007299999V0202701N002619999999N999999999+00881+99999101701ADDMD1210031+9999OD159900311999REMSYN068ROBN4 46/// /2705 10088 40170 52003 90500 333 91206 555 11005 22005=
0108997743999992023010206004+40650-074067FM-13+007299999V0202801N001019999999N999999999+00841+99999101691ADDMD1990001+9999OD159900211999REMSYN068ROBN4 46/// /2802 10084 40169 50000 90600 333 91204 555 11002 22002=
0108997743999992023010207004+40650-074067FM-13+007299999V0201501N002119999999N999999999+00741+99999101731ADDMD1510001+9999OD159900211999REMSYN068ROBN4 46/// /1504 10074 40173 55000 90700 333 91204 555 11003 22004=
0108997743999992023010208004+40650-074067FM-13+007299999V0202801N002119999999N999999999+00831+99999101821ADDMD1310121+9999OD159900261999REMSYN068ROBN4 46/// /2804 10083 40182 53012 90800 333 91205 555 11003 22004=
0108997743999992023010209004+40650-074067FM-13+007299999V0202801N001519999999N999999999+00801+99999101801ADDMD1110111+9999OD159900211999REMSYN068ROBN4 46/// /2803 10080 40180 51011 90900 333 91204 555 11003 22003=
0108997743999992023010210004+40650-074067FM-13+007299999V0202601N002119999999N999999999+00801+99999101851ADDMD1110121+9999OD159900261999REMSYN068ROBN4 46/// /2604 10080 40185 51012 91000 333 91205 555 11004 22004=
0108997743999992023010211004+40650-074067FM-13+007299999V0201801N000519999999N999999999+00741+99999101861ADDMD1210041+9999OD159900211999REMSYN068ROBN4 46/// /1801 10074 40186 52004 91100 333 91204 555 11001 22001=
0108997743999992023010212004+40650-074067FM-13+007299999V0202901N002119999999N999999999+00691+99999101951ADDMD1310151+9999OD159900211999REMSYN068ROBN4 46/// /2904 10069 40195 53015 91200 333 91204 555 11003 22004=
0108997743999992023010213004+40650-074067FM-13+007299999V0202801N003119999999N999999999+00731+99999102011ADDMD1310161+9999OD159900361999REMSYN068ROBN4 46/// /2806 10073 40201 53016 91300 333 91207 555 11005 22006=
0108997743999992023010214004+40650-074067FM-13+007299999V0202701N002619999999N999999999+00741+99999102081ADDMD1110221+9999OD159900311999REMSYN068ROBN4 46/// /2705 10074 40208 51022 91400 333 91206 555 11004 22005=
0108997743999992023010215004+40650-074067FM-13+007299999V0202801N000519999999N999999999+00821+99999102081ADDMD1110131+9999OD159900051999REMSYN068ROBN4 46/// /2801 10082 40208 51013 91500 333 91201 555 11001 22001=
0108997743999992023010216004+40650-074067FM-13+007299999V0202901N002119999999N999999999+00951+99999102021ADDMD1990001+9999OD159900211999REMSYN068ROBN4 46/// /2904 10095 40202 50000 91600 333 91204 555 11004 22004=
0108997743999992023010217004+40650-074067FM-13+007299999V0202601N001019999999N999999999+01141+99999101941ADDMD1810141+9999OD159900151999REMSYN068ROBN4 46/// /2602 10114 40194 58014 91700 333 91203 555 11002 22002=
0108997743999992023010218004+40650-074067FM-13+007299999V0200201N001019999999N999999999+01181+99999101911ADDMD1610171+9999OD159900151999REMSYN068ROBN4 46/// /0202 10118 40191 56017 91800 333 91203 555 11002 22002=
0108997743999992023010219004+40650-074067FM-13+007299999V0201801N003119999999N999999999+01111+99999101911ADDMD1610111+9999OD159900361999REMSYN068ROBN4 46/// /1806 10111 40191 56011 91900 333 91207 555 11005 22006=
0108997743999992023010220004+40650-074067FM-13+007299999V0202601N002119999999N999999999+01231+99999101931ADDMD1510001+9999OD159900411999REMSYN068ROBN4 46/// /2604 10123 40193 55000 92000 333 91208 555 11004 22004=
0108997743999992023010221004+40650-074067FM-13+007299999V0201701N004619999999N999999999+01011+99999101941ADDMD1210031+9999OD159900511999REMSYN068ROBN4 46/// /1709 10101 40194 52003 92100 333 91210 555 11009 22009=
0108997743999992023010222004+40650-074067FM-13+007299999V0201801N002619999999N999999999+01071+99999101971ADDMD1310061+9999OD159900361999REMSYN068ROBN4 46/// /1805 10107 40197 53006 92200 333 91207 555 11005 22005=
0108997743999992023010223004+40650-074067FM-13+007299999V0201901N002119999999N999999999+01181+99999101991ADDMD1210061+9999OD159900261999REMSYN068ROBN4 46/// /1904 10118 40199 52006 92300 333 91205 555 11003 22004=
0108997743999992023010300004+40650-074067FM-13+007299999V0201701N002619999999N999999999+01161+99999102031ADDMD1310091+9999OD159900311999REMSYN068ROBN4 46/// /1705 10116 40203 53009 90000 333 91206 555 11004 22005=
0108997743999992023010301004+40650-074067FM-13+007299999V0202201N002619999999N999999999+01151+99999102081ADDMD1310111+9999OD159900261999REMSYN068ROBN4 46/// /2205 10115 40208 53011 90100 333 91205 555 11004 22005=
0108997743999992023010302004+40650-074067FM-13+007299999V0202501N001519999999N999999999+01171+99999102101ADDMD1110111+9999OD159900211999REMSYN068ROBN4 46/// /2503 10117 40210 51011 90200 333 91204 555 11002 22003=
0108997743999992023010303004+40650-074067FM-13+007299999V0201601N001519999999N999999999+01051+99999102081ADDMD1110051+9999OD159900211999REMSYN068ROBN4 46/// /1603 10105 40208 51005 90300 333 91204 555 11003 22003=
0108997743999992023010304004+40650-074067FM-13+007299999V0201301N001019999999N999999999+00931+99999102051ADDMD1810031+9999OD159900151999REMSYN068ROBN4 46/// /1302 10093 40205 58003 90400 333 91203 555 11002 22002=
0108997743999992023010305004+40650-074067FM-13+007299999V0201701N002119999999N999999999+01021+99999102011ADDMD1810091+9999OD159900211999REMSYN068ROBN4 46/// /1704 10102 40201 58009 90500 333 91204 555 11003 22004=
0108997743999992023010306004+40650-074067FM-13+007299999V0201801N002119999999N999999999+00961+99999101961ADDMD1810121+9999OD159900261999REMSYN068ROBN4 46/// /1804 10096 40196 58012 90600 333 91205 555 11004 22004=
0108997743999992023010307004+40650-074067FM-13+007299999V0201701N003619999999N999999999+00911+99999101961ADDMD1610091+9999OD159900411999REMSYN068ROBN4 46/// /1707 10091 40196 56009 90700 333 91208 555 11007 22007=
0108997743999992023010308004+40650-074067FM-13+007299999V0201801N003119999999N999999999+00831+99999101951ADDMD1610061+9999OD159900361999REMSYN068ROBN4 46/// /1806 10083 40195 56006 90800 333 91207 555 11005 22006=
0108997743999992023010309004+40650-074067FM-13+007299999V0201501N003119999999N999999999+00891+99999101911ADDMD1810051+9999OD159900411999REMSYN068ROBN4 46/// /1506 10089 40191 58005 90900 333 91208 555 11006 22006=
0108997743999992023010310004+40650-074067FM-13+007299999V0201501N003619999999N999999999+00911+99999101841ADDMD1810121+9999OD159900411999REMSYN068ROBN4 46/// /1507 10091 40184 58012 91000 333 91208 555 11007 22007=
0108997743999992023010311004+40650-074067FM-13+007299999V0201801N004119999999N999999999+00891+99999101831ADDMD1610121+9999OD159900461999REMSYN068ROBN4 46/// /1808 10089 40183 56012 91100 333 91209 555 11008 22008=
0108997743999992023010312004+40650-074067FM-13+007299999V0201701N002619999999N999999999+00911+99999101771ADDMD1610141+9999OD159900261999REMSYN068ROBN4 46/// /1705 10091 40177 56014 91200 333 91205 555 11004 22005=
0108997743999992023010313004+40650-074067FM-13+007299999V0201801N003619999999N999999999+00911+99999101691ADDMD1810151+9999OD159900361999REMSYN068ROBN4 46/// /1807 10091 40169 58015 91300 333 91207 555 11006 22007=
0088997743999992023010314004+40650-074067FM-13+007299999V0201601N004619999999N999999999+00911+99999101601ADDOD159900461999REMSYN062ROBN4 46/// /1609 10091 40160 91342 333 91209 555 11008 22009=
0108997743999992023010315004+40650-074067FM-13+007299999V0201501N002619999999N999999999+00821+99999101541ADDMD1710231+9999OD159900311999REMSYN068ROBN4 46/// /1505 10082 40154 57023 91500 333 91206 555 11005 22005=
0108997743999992023010316004+40650-074067FM-13+007299999V0203401N000519999999N999999999+00901+99999101591ADDMD1510101+9999OD159900151999REMSYN068ROBN4 46/// /3401 10090 40159 55010 91600 333 91203 555 11001 22001=
0108997743999992023010317004+40650-074067FM-13+007299999V0200301N001019999999N999999999+00861+99999101361ADDMD1810261+9999OD159900151999REMSYN068ROBN4 46/// /0302 10086 40136 58026 91700 333 91203 555 11002 22002=
0108997743999992023010318004+40650-074067FM-13+007299999V0201801N002619999999N999999999+00891+99999101291ADDMD1810251+9999OD159900261999REMSYN068ROBN4 46/// /1805 10089 40129 58025 91800 333 91205 555 11004 22004=
0108997743999992023010319004+40650-074067FM-13+007299999V0201901N003119999999N999999999+00941+99999101191ADDMD1610401+9999OD159900411999REMSYN068ROBN4 46/// /1906 10094 40119 56040 91900 333 91208 555 11006 22006=
0108997743999992023010320004+40650-074067FM-13+007299999V0201701N003619999999N999999999+00971+99999101111ADDMD1810251+9999OD159900461999REMSYN068ROBN4 46/// /1707 10097 40111 58025 92000 333 91209 555 11006 22007=
0108997743999992023010321004+40650-074067FM-13+007299999V0201701N003619999999N999999999+01011+99999101051ADDMD1610241+9999OD159900411999REMSYN068ROBN4 46/// /1707 10101 40105 56024 92100 333 91208 555 11007 22007=
0108997743999992023010322004+40650-074067FM-13+007299999V0201701N003119999999N999999999+01091+99999100981ADDMD1610211+9999OD159900311999REMSYN068ROBN4 46/// /1706 10109 40098 56021 92200 333 91206 555 11005 22006=
0108997743999992023010323004+40650-074067FM-13+007299999V0201601N001519999999N999999999+01141+99999100981ADDMD1610131+9999OD159900151999REMSYN068ROBN4 46/// /1603 10114 40098 56013 92300 333 91203 555 11003 22003=
0108997743999992023010400004+40650-074067FM-13+007299999V0201101N002119999999N999999999+01141+99999100971ADDMD1610081+9999OD159900261999REMSYN068ROBN4 46/// /1104 10114 40097 56008 90000 333 91205 555 11004 22004=
0108997743999992023010401004+40650-074067FM-13+007299999V0201901N003119999999N999999999+01121+99999100951ADDMD1710031+9999OD159900411999REMSYN068ROBN4 46/// /1906 10112 40095 57003 90100 333 91208 555 11006 22006=
0108997743999992023010402004+40650-074067FM-13+007299999V0201901N004619999999N999999999+01061+99999100951ADDMD1710031+9999OD159900461999REMSYN068ROBN4 46/// /1909 10106 40095 57003 90200 333 91209 555 11008 22009=
0108997743999992023010403004+40650-074067FM-13+007299999V0201801N003619999999N999999999+00971+99999100941ADDMD1710031+9999OD159900411999REMSYN068ROBN4 46/// /1807 10097 40094 57003 90300 333 91208 555 11006 22007=
0108997743999992023010404004+40650-074067FM-13+007299999V0201601N002119999999N999999999+00931+99999100921ADDMD1710031+9999OD159900211999REMSYN068ROBN4 46/// /1604 10093 40092 57003 90400 333 91204 555 11004 22004=
0108997743999992023010405004+40650-074067FM-13+007299999V0201801N004619999999N999999999+01031+99999100821ADDMD1810131+9999OD159900511999REMSYN068ROBN4 46/// /1809 10103 40082 58013 90500 333 91210 555 11008 22009=
0108997743999992023010406004+40650-074067FM-13+007299999V0201801N003119999999N999999999+01011+99999100871ADDMD1510071+9999OD159900411999REMSYN068ROBN4 46/// /1806 10101 40087 55007 90600 333 91208 555 11006 22006=
0108997743999992023010407004+40650-074067FM-13+007299999V0202201N000519999999N999999999+01061+99999100881ADDMD1610041+9999OD159900101999REMSYN068ROBN4 46/// /2201 10106 40088 56004 90700 333 91202 555 11001 22001=
0108997743999992023010408004+40650-074067FM-13+007299999V0202801N000519999999N999999999+01171+99999100891ADDMD1110071+9999OD159900101999REMSYN068ROBN4 46/// /2801 10117 40089 51007 90800 333 91202 555 11001 22001=
0108997743999992023010409004+40650-074067FM-13+007299999V0202701N003619999999N999999999+01201+99999100881ADDMD1410001+9999OD159900411999REMSYN068ROBN4 46/// /2707 10120 40088 54000 90900 333 91208 555 11007 22007=
0108997743999992023010410004+40650-074067FM-13+007299999V0202601N006719999999N999999999+01251+99999100901ADDMD1410001+9999OD159900821999REMSYN068ROBN4 46/// /2613 10125 40090 54000 91000 333 91216 555 11012 22013=
0108997743999992023010411004+40650-074067FM-13+007299999V0202701N006719999999N999999999+01231+99999100971ADDMD1310081+9999OD159900881999REMSYN068ROBN4 46/// /2713 10123 40097 53008 91100 333 91217 555 11012 22013=
0108997743999992023010412004+40650-074067FM-13+007299999V0202601N005719999999N999999999+01261+99999101051ADDMD1310171+9999OD159900671999REMSYN068ROBN4 46/// /2611 10126 40105 53017 91200 333 91213 555 11010 22011=
0108997743999992023010413004+40650-074067FM-13+007299999V0203001N003619999999N999999999+01211+99999101171ADDMD1310271+9999OD159900411999REMSYN068ROBN4 46/// /3007 10121 40117 53027 91300 333 91208 555 11006 22007=
0108997743999992023010414004+40650-074067FM-13+007299999V0202601N004119999999N999999999+01311+99999101281ADDMD1310311+9999OD159900411999REMSYN068ROBN4 46/// /2608 10131 40128 53031 91400 333 91208 555 11007 22008=
0108997743999992023010415004+40650-074067FM-13+007299999V0202501N000519999999N999999999+01361+99999101221ADDMD1990171+9999OD159900101999REMSYN068ROBN4 46/// /2501 10136 40122 50017 91500 333 91202 555 11001 22001=
0108997743999992023010416004+40650-074067FM-13+007299999V0201801N001519999999N999999999+01331+99999101221ADDMD1110051+9999OD159900261999REMSYN068ROBN4 46/// /1803 10133 40122 51005 91600 333 91205 555 11003 22003=
0108997743999992023010417004+40650-074067FM-13+007299999V0201401N004119999999N999999999+01461+99999101141ADDMD1810141+9999OD159900621999REMSYN068ROBN4 46/// /1408 10146 40114 58014 91700 333 91212 555 11007 22008=
0108997743999992023010418004+40650-074067FM-13+007299999V0201701N006719999999N999999999+01281+99999101061ADDMD1810161+9999OD159900671999REMSYN068ROBN4 46/// /1713 10128 40106 58016 91800 333 91213 555 11012 22013=
0108997743999992023010419004+40650-074067FM-13+007299999V0201801N006219999999N999999999+01331+99999101041ADDMD1610181+9999OD159900671999REMSYN068ROBN4 46/// /1812 10133 40104 56018 91900 333 91213 555 11011 22012=
0088997743999992023010420004+40650-074067FM-13+007299999V0201801N003619999999N999999999+01471+99999101011ADDOD159900361999REMSYN062ROBN4 46/// /1807 10147 40101 91942 333 91207 555 11006 22007=
0108997743999992023010421004+40650-074067FM-13+007299999V0201801N004619999999N999999999+01431+99999100981ADDMD1710081+9999OD159900571999REMSYN068ROBN4 46/// /1809 10143 40098 57008 92100 333 91211 555 11008 22009=
0108997743999992023010422004+40650-074067FM-13+007299999V0201601N005119999999N999999999+01381+99999101001ADDMD1610041+9999OD159900571999REMSYN068ROBN4 46/// /1610 10138 40100 56004 92200 333 91211 555 11009 22010=
0088997743999992023010423004+40650-074067FM-13+007299999V0201401N002619999999N999999999+01161+99999100921ADDOD159900411999REMSYN062ROBN4 46/// /1405 10116 40092 92242 333 91208 555 11005 22005=
0108997743999992023010500004+40650-074067FM-13+007299999V0201501N004119999999N999999999+01111+99999100971ADDMD1510001+9999OD159900511999REMSYN068ROBN4 46/// /1508 10111 40097 55000 90000 333 91210 555 11007 22008=
0108997743999992023010501004+40650-074067FM-13+007299999V0201501N001519999999N999999999+01081+99999100901ADDMD1610101+9999OD159900261999REMSYN068ROBN4 46/// /1503 10108 40090 56010 90100 333 91205 555 11002 22003=
0108997743999992023010502004+40650-074067FM-13+007299999V0201501N002619999999N999999999+01211+99999100911ADDMD1990001+9999OD159900311999REMSYN068ROBN4 46/// /1505 10121 40091 50000 90200 333 91206 555 11004 22005=
0108997743999992023010503004+40650-074067FM-13+007299999V0201401N002619999999N999999999+01161+99999100921ADDMD1610051+9999OD159900311999REMSYN068ROBN4 46/// /1405 10116 40092 56005 90300 333 91206 555 11005 22005=
0108997743999992023010504004+40650-074067FM-13+007299999V0200601N005119999999N999999999+01061+99999100871ADDMD1810031+9999OD159900571999REMSYN068ROBN4 46/// /0610 10106 40087 58003 90400 333 91211 555 11009 22010=
0108997743999992023010505004+40650-074067FM-13+007299999V0200701N004119999999N999999999+01001+99999100921ADDMD1510001+9999OD159900411999REMSYN068ROBN4 46/// /0708 10100 40092 55000 90500 333 91208 555 11007 22008=
0108997743999992023010506004+40650-074067FM-13+007299999V0200601N004119999999N999999999+00911+99999100961ADDMD1310041+9999OD159900511999REMSYN068ROBN4 46/// /0608 10091 40096 53004 90600 333 91210 555 11008 22008=
0108997743999992023010507004+40650-074067FM-13+007299999V0200701N003119999999N999999999+00921+99999101021ADDMD1310151+9999OD159900411999REMSYN068ROBN4 46/// /0706 10092 40102 53015 90700 333 91208 555 11006 22006=
0108997743999992023010508004+40650-074067FM-13+007299999V0200601N003119999999N999999999+00911+99999101121ADDMD1310201+9999OD159900311999REMSYN068ROBN4 46/// /0606 10091 40112 53020 90800 333 91206 555 11006 22006=
0108997743999992023010509004+40650-074067FM-13+007299999V0200601N004119999999N999999999+00941+99999101161ADDMD1110201+9999OD159900621999REMSYN068ROBN4 46/// /0608 10094 40116 51020 90900 333 91212 555 11008 22008=
0108997743999992023010510004+40650-074067FM-13+007299999V0200901N001519999999N999999999+00881+99999101231ADDMD1110211+9999OD159900261999REMSYN068ROBN4 46/// /0903 10088 40123 51021 91000 333 91205 555 11002 22003=
0108997743999992023010511004+40650-074067FM-13+007299999V0203201N001019999999N999999999+00911+99999101281ADDMD1310161+9999OD159900101999REMSYN068ROBN4 46/// /3202 10091 40128 53016 91100 333 91202 555 11002 22002=
0108997743999992023010512004+40650-074067FM-13+007299999V0200501N003619999999N999999999+00931+99999101331ADDMD1110171+9999OD159900411999REMSYN068ROBN4 46/// /0507 10093 40133 51017 91200 333 91208 555 11006 22007=
0108997743999992023010513004+40650-074067FM-13+007299999V0200701N002119999999N999999999+00881+99999101381ADDMD1210151+9999OD159900361999REMSYN068ROBN4 46/// /0704 10088 40138 52015 91300 333 91207 555 11003 22004=
0108997743999992023010514004+40650-074067FM-13+007299999V0200801N002619999999N999999999+00911+99999101461ADDMD1310181+9999OD159900311999REMSYN068ROBN4 46/// /0805 10091 40146 53018 91400 333 91206 555 11004 22005=
0108997743999992023010515004+40650-074067FM-13+007299999V0200601N005119999999N999999999+00901+99999101521ADDMD1310191+9999OD159900511999REMSYN068ROBN4 46/// /0610 10090 40152 53019 91500 333 91210 555 11009 22010=
0108997743999992023010516004+40650-074067FM-13+007299999V0200601N005119999999N999999999+00901+99999101541ADDMD1110161+9999OD159900571999REMSYN068ROBN4 46/// /0610 10090 40154 51016 91600 333 91211 555 11009 22010=
0108997743999992023010517004+40650-074067FM-13+007299999V0200601N004119999999N999999999+00901+99999101481ADDMD1990001+9999OD159900461999REMSYN068ROBN4 46/// /0608 10090 40148 50000 91700 333 91209 555 11008 22008=
0108997743999992023010518004+40650-074067FM-13+007299999V0200501N003619999999N999999999+00901+99999101451ADDMD1810071+9999OD159900411999REMSYN068ROBN4 46/// /0507 10090 40145 58007 91800 333 91208 555 11006 22007=
0108997743999992023010519004+40650-074067FM-13+007299999V0200501N003619999999N999999999+00931+99999101391ADDMD1710151+9999OD159900411999REMSYN068ROBN4 46/// /0507 10093 40139 57015 91900 333 91208 555 11007 22007=
0108997743999992023010520004+40650-074067FM-13+007299999V0200601N004619999999N999999999+00911+99999101351ADDMD1810131+9999OD159900511999REMSYN068ROBN4 46/// /0609 10091 40135 58013 92000 333 91210 555 11008 22009=
0108997743999992023010521004+40650-074067FM-13+007299999V0200501N003619999999N999999999+00911+99999101371ADDMD1610081+9999OD159900411999REMSYN068ROBN4 46/// /0507 10091 40137 56008 92100 333 91208 555 11006 22007=
0108997743999992023010522004+40650-074067FM-13+007299999V0201801N003619999999N999999999+00811+99999101361ADDMD1610031+9999OD159900361999REMSYN068ROBN4 46/// /1807 10081 40136 56003 92200 333 91207 555 11006 22007=
0108997743999992023010523004+40650-074067FM-13+007299999V0201701N004119999999N999999999+00741+99999101371ADDMD1410001+9999OD159900511999REMSYN068ROBN4 46/// /1708 10074 40137 54000 92300 333 91210 555 11007 22008=
0108997743999992023010600004+40650-074067FM-13+007299999V0201901N002119999999N999999999+00781+99999101461ADDMD1310091+9999OD159900261999REMSYN068ROBN4 46/// /1904 10078 40146 53009 90000 333 91205 555 11004 22004=
0108997743999992023010601004+40650-074067FM-13+007299999V0201401N004119999999N999999999+00831+99999101411ADDMD1990051+9999OD159900461999REMSYN068ROBN4 46/// /1408 10083 40141 50005 90100 333 91209 555 11007 22008=
0108997743999992023010602004+40650-074067FM-13+007299999V0201401N003619999999N999999999+00841+99999101451ADDMD1110081+9999OD159900411999REMSYN068ROBN4 46/// /1407 10084 40145 51008 90200 333 91208 555 11006 22007=
0108997743999992023010603004+40650-074067FM-13+007299999V0201301N004119999999N999999999+00831+99999101491ADDMD1310031+9999OD159900461999REMSYN068ROBN4 46/// /1308 10083 40149 53003 90300 333 91209 555 11008 22008=
0108997743999992023010604004+40650-074067FM-13+007299999V0201201N003119999999N999999999+00791+99999101471ADDMD1110061+9999OD159900361999REMSYN068ROBN4 46/// /1206 10079 40147 51006 90400 333 91207 555 11006 22006=
0108997743999992023010605004+40650-074067FM-13+007299999V0201201N005719999999N999999999+00791+99999101421ADDMD1810031+9999OD159900621999REMSYN068ROBN4 46/// /1211 10079 40142 58003 90500 333 91212 555 11010 22011=
0108997743999992023010606004+40650-074067FM-13+007299999V0201301N004619999999N999999999+00721+99999101421ADDMD1710071+9999OD159900621999REMSYN068ROBN4 46/// /1309 10072 40142 57007 90600 333 91212 555 11008 22009=
0108997743999992023010607004+40650-074067FM-13+007299999V0201401N002619999999N999999999+00701+99999101471ADDMD1510001+9999OD159900311999REMSYN068ROBN4 46/// /1405 10070 40147 55000 90700 333 91206 555 11004 22005=
0108997743999992023010608004+40650-074067FM-13+007299999V0203201N001519999999N999999999+00681+99999101541ADDMD1310121+9999OD159900211999REMSYN068ROBN4 46/// /3203 10068 40154 53012 90800 333 91204 555 11003 22003=
0108997743999992023010609004+40650-074067FM-13+007299999V0200401N003619999999N999999999+00611+99999101471ADDMD1990051+9999OD159900361999REMSYN068ROBN4 46/// /0407 10061 40147 50005 90900 333 91207 555 11006 22007=
0108997743999992023010610004+40650-074067FM-13+007299999V0200101N001019999999N999999999+00641+99999101461ADDMD1990001+9999OD159900101999REMSYN068ROBN4 46/// /0102 10064 40146 50000 91000 333 91202 555 11002 22002=
0108997743999992023010611004+40650-074067FM-13+007299999V0201101N004119999999N999999999+00661+99999101431ADDMD1610111+9999OD159900511999REMSYN068ROBN4 46/// /1108 10066 40143 56011 91100 333 91210 555 11008 22008=
0108997743999992023010612004+40650-074067FM-13+007299999V0201401N003619999999N999999999+00661+99999101471ADDMD1510001+9999OD159900411999REMSYN068ROBN4 46/// /1407 10066 40147 55000 91200 333 91208 555 11006 22007=
0108997743999992023010613004+40650-074067FM-13+007299999V0201201N003619999999N999999999+00691+99999101471ADDMD1510001+9999OD159900461999REMSYN068ROBN4 46/// /1207 10069 40147 55000 91300 333 91209 555 11007 22007=
0108997743999992023010614004+40650-074067FM-13+007299999V0200901N001519999999N999999999+00681+99999101501ADDMD1110071+9999OD159900211999REMSYN068ROBN4 46/// /0903 10068 40150 51007 91400 333 91204 555 11003 22003=
0108997743999992023010615004+40650-074067FM-13+007299999V0209999C000019999999N999999999+00691+99999101571ADDMD1310101+9999OD159900001999REMSYN068ROBN4 46/// /0000 10069 40157 53010 91500 333 91200 555 11000 22000=
0108997743999992023010616004+40650-074067FM-13+007299999V0209999C000019999999N999999999+00681+99999101531ADDMD1990061+9999OD159900051999REMSYN068ROBN4 46/// /0000 10068 40153 50006 91600 333 91201 555 11001 22001=
0108997743999992023010617004+40650-074067FM-13+007299999V0209999C000019999999N999999999+00721+99999101461ADDMD1810041+9999OD159900151999REMSYN068ROBN4 46/// /0000 10072 40146 58004 91700 333 91203 555 11001 22001=
0108997743999992023010618004+40650-074067FM-13+007299999V0202801N003619999999N999999999+00811+99999101401ADDMD1810171+9999OD159900461999REMSYN068ROBN4 46/// /2807 10081 40140 58017 91800 333 91209 555 11007 22007=
0108997743999992023010619004+40650-074067FM-13+007299999V0203101N009319999999N999999999+00861+99999101421ADDMD1610111+9999OD159901081999REMSYN068ROBN4 46/// /3118 10086 40142 56011 91900 333 91221 555 11016 22018=
0088997743999992023010620004+40650-074067FM-13+007299999V0203001N006719999999N999999999+00831+99999101441ADDOD159900821999REMSYN062ROBN4 46/// /3013 10083 40144 91948 333 91216 555 11012 22013=
0108997743999992023010621004+40650-074067FM-13+007299999V0202901N009319999999N999999999+00781+99999101511ADDMD1310111+9999OD159901081999REMSYN068ROBN4 46/// /2918 10078 40151 53011 92100 333 91221 555 11017 22018=
0108997743999992023010622004+40650-074067FM-13+007299999V0202901N008219999999N999999999+00771+99999101591ADDMD1310171+9999OD159901081999REMSYN068ROBN4 46/// /2916 10077 40159 53017 92200 333 91221 555 11015 22016=
0108997743999992023010623004+40650-074067FM-13+007299999V0202901N004619999999N999999999+00731+99999101711ADDMD1310261+9999OD159900571999REMSYN068ROBN4 46/// /2909 10073 40171 53026 92300 333 91211 555 11008 22009=
0088997743999992023010700004+40650-074067FM-13+007299999V0203001N005719999999N999999999+00711+99999101761ADDOD159900721999REMSYN062ROBN4 46/// /3011 10071 40176 92342 333 91214 555 11010 22011=
0108997743999992023010701004+40650-074067FM-13+007299999V0203101N008819999999N999999999+00631+99999101861ADDMD1110271+9999OD159900981999REMSYN068ROBN4 46/// /3117 10063 40186 51027 90100 333 91219 555 11016 22017=
0108997743999992023010702004+40650-074067FM-13+007299999V0203101N007719999999N999999999+00581+99999101931ADDMD1110221+9999OD159901031999REMSYN068ROBN4 46/// /3115 10058 40193 51022 90200 333 91220 555 11014 22015=
0108997743999992023010703004+40650-074067FM-13+007299999V0203101N007719999999N999999999+00551+99999101971ADDMD1110181+9999OD159900931999REMSYN068ROBN4 46/// /3115 10055 40197 51018 90300 333 91218 555 11014 22015=
0108997743999992023010704004+40650-074067FM-13+007299999V0202801N004119999999N999999999+00491+99999102011ADDMD1110151+9999OD159900571999REMSYN068ROBN4 46/// /2808 10049 40201 51015 90400 333 91211 555 11007 22008=
0108997743999992023010705004+40650-074067FM-13+007299999V0202901N004119999999N999999999+00431+99999101971ADDMD1990041+9999OD159900461999REMSYN068ROBN4 46/// /2908 10043 40197 50004 90500 333 91209 555 11007 22008=
0108997743999992023010706004+40650-074067FM-13+007299999V0202901N005719999999N999999999+00381+99999101971ADDMD1990001+9999OD159900671999REMSYN068ROBN4 46/// /2911 10038 40197 50000 90600 333 91213 555 11010 22011=
0108997743999992023010707004+40650-074067FM-13+007299999V0203001N005119999999N999999999+00341+99999101961ADDMD1610051+9999OD159900621999REMSYN068ROBN4 46/// /3010 10034 40196 56005 90700 333 91212 555 11009 22010=
0108997743999992023010708004+40650-074067FM-13+007299999V0202901N004119999999N999999999+00321+99999101981ADDMD1410001+9999OD159900511999REMSYN068ROBN4 46/// /2908 10032 40198 54000 90800 333 91210 555 11008 22008=
0088997743999992023010709004+40650-074067FM-13+007299999V0202901N004119999999N999999999+00321+99999101981ADDOD159900411999REMSYN062ROBN4 46/// /2908 10032 40198 90842 333 91208 555 11007 22008=
0108997743999992023010710004+40650-074067FM-13+007299999V0202901N004619999999N999999999+00311+99999101981ADDMD1410001+9999OD159900511999REMSYN068ROBN4 46/// /2909 10031 40198 54000 91000 333 91210 555 11008 22009=
0108997743999992023010711004+40650-074067FM-13+007299999V0202901N003619999999N999999999+00301+99999102011ADDMD1310031+9999OD159900461999REMSYN068ROBN4 46/// /2907 10030 40201 53003 91100 333 91209 555 11006 22007=
0108997743999992023010712004+40650-074067FM-13+007299999V0202901N003619999999N999999999+00321+99999102041ADDMD1310071+9999OD159900411999REMSYN068ROBN4 46/// /2907 10032 40204 53007 91200 333 91208 555 11007 22007=
0108997743999992023010713004+40650-074067FM-13+007299999V0203001N005719999999N999999999+00361+99999102061ADDMD1110081+9999OD159900621999REMSYN068ROBN4 46/// /3011 10036 40206 51008 91300 333 91212 555 11010 22011=
0108997743999992023010714004+40650-074067FM-13+007299999V0202801N005119999999N999999999+00391+99999102131ADDMD1310121+9999OD159900621999REMSYN068ROBN4 46/// /2810 10039 40213 53012 91400 333 91212 555 11009 22010=
0108997743999992023010715004+40650-074067FM-13+007299999V0202901N005119999999N999999999+00441+99999102161ADDMD1310121+9999OD159900671999REMSYN068ROBN4 46/// /2910 10044 40216 53012 91500 333 91213 555 11009 22010=
0108997743999992023010716004+40650-074067FM-13+007299999V0203001N005119999999N999999999+00511+99999102101ADDMD1990041+9999OD159900671999REMSYN068ROBN4 46/// /3010 10051 40210 50004 91600 333 91213 555 11009 22010=
0108997743999992023010717004+40650-074067FM-13+007299999V0203101N005119999999N999999999+00621+99999102001ADDMD1810131+9999OD159900771999REMSYN068ROBN4 46/// /3110 10062 40200 58013 91700 333 91215 555 11009 22010=
0108997743999992023010718004+40650-074067FM-13+007299999V0203001N007719999999N999999999+00621+99999101971ADDMD1610191+9999OD159900881999REMSYN068ROBN4 46/// /3015 10062 40197 56019 91800 333 91217 555 11014 22015=
0108997743999992023010719004+40650-074067FM-13+007299999V0203201N006219999999N999999999+00631+99999101981ADDMD1610121+9999OD159900881999REMSYN068ROBN4 46/// /3212 10063 40198 56012 91900 333 91217 555 11011 22012=
0108997743999992023010720004+40650-074067FM-13+007299999V0203101N005719999999N999999999+00631+99999102011ADDMD1510001+9999OD159900771999REMSYN068ROBN4 46/// /3111 10063 40201 55000 92000 333 91215 555 11010 22011=
0108997743999992023010721004+40650-074067FM-13+007299999V0203201N005719999999N999999999+00651+99999102041ADDMD1310071+9999OD159900931999REMSYN068ROBN4 46/// /3211 10065 40204 53007 92100 333 91218 555 11010 22011=
0108997743999992023010722004+40650-074067FM-13+007299999V0203101N006219999999N999999999+00641+99999102091ADDMD1310111+9999OD159900721999REMSYN068ROBN4 46/// /3112 10064 40209 53011 92200 333 91214 555 11011 22012=
0108997743999992023010723004+40650-074067FM-13+007299999V0202901N005719999999N999999999+00611+99999102171ADDMD1310161+9999OD159900671999REMSYN068ROBN4 46/// /2911 10061 40217 53016 92300 333 91213 555 11010 22011=
0108997743999992023010800004+40650-074067FM-13+007299999V0203001N005719999999N999999999+00571+99999102251ADDMD1310211+9999OD159900671999REMSYN068ROBN4 46/// /3011 10057 40225 53021 90000 333 91213 555 11010 22010=
0088997743999992023010801004+40650-074067FM-13+007299999V0203001N006219999999N999999999+00521+99999102301ADDOD159900771999REMSYN062ROBN4 46/// /3012 10052 40230 90042 333 91215 555 11011 22012=
0108997743999992023010802004+40650-074067FM-13+007299999V0203101N006219999999N999999999+00501+99999102351ADDMD1110181+9999OD159900771999REMSYN068ROBN4 46/// /3112 10050 40235 51018 90200 333 91215 555 11011 22012=
0108997743999992023010803004+40650-074067FM-13+007299999V0203001N006219999999N999999999+00481+99999102361ADDMD1110111+9999OD159900721999REMSYN068ROBN4 46/// /3012 10048 40236 51011 90300 333 91214 555 11011 22012=
0108997743999992023010804004+40650-074067FM-13+007299999V0203101N006719999999N999999999+00461+99999102401ADDMD1310081+9999OD159900721999REMSYN068ROBN4 46/// /3113 10046 40240 53008 90400 333 91214 555 11012 22013=
0108997743999992023010805004+40650-074067FM-13+007299999V0203201N005119999999N999999999+00421+99999102411ADDMD1210061+9999OD159900621999REMSYN068ROBN4 46/// /3210 10042 40241 52006 90500 333 91212 555 11009 22010=
0108997743999992023010806004+40650-074067FM-13+007299999V0203301N004619999999N999999999+00381+99999102451ADDMD1210091+9999OD159900621999REMSYN068ROBN4 46/// /3309 10038 40245 52009 90600 333 91212 555 11008 22009=
0108997743999992023010807004+40650-074067FM-13+007299999V0203401N002119999999N999999999+00331+99999102481ADDMD1310081+9999OD159900261999REMSYN068ROBN4 46/// /3404 10033 40248 53008 90700 333 91205 555 11004 22004=
0108997743999992023010808004+40650-074067FM-13+007299999V0203401N003619999999N999999999+00311+99999102541ADDMD1310131+9999OD159900571999REMSYN068ROBN4 46/// /3407 10031 40254 53013 90800 333 91211 555 11006 22007=
0088997743999992023010809004+40650-074067FM-13+007299999V0203301N003619999999N999999999+00291+99999102551ADDOD159900461999REMSYN062ROBN4 46/// /3307 10029 40255 90848 333 91209 555 11006 22007=
0108997743999992023010810004+40650-074067FM-13+007299999V0203101N004119999999N999999999+00231+99999102641ADDMD1310161+9999OD159900511999REMSYN068ROBN4 46/// /3108 10023 40264 53016 91000 333 91210 555 11007 22008=
0088997743999992023010811004+40650-074067FM-13+007299999V0203101N005119999999N999999999+00191+99999102651ADDOD159900571999REMSYN062ROBN4 46/// /3110 10019 40265 91036 333 91211 555 11009 22010=
0108997743999992023010812004+40650-074067FM-13+007299999V0203501N005719999999N999999999+00141+99999102641ADDMD1110081+9999OD159900721999REMSYN068ROBN4 46/// /3511 10014 40264 51008 91200 333 91214 555 11010 22011=
0108997743999992023010813004+40650-074067FM-13+007299999V0203101N002619999999N999999999+00131+99999102721ADDMD1310081+9999OD159900361999REMSYN068ROBN4 46/// /3105 10013 40272 53008 91300 333 91207 555 11005 22005=
0108997743999992023010814004+40650-074067FM-13+007299999V0203501N004619999999N999999999+00121+99999102731ADDMD1210081+9999OD159900621999REMSYN068ROBN4 46/// /3509 10012 40273 52008 91400 333 91212 555 11008 22009=
0108997743999992023010815004+40650-074067FM-13+007299999V0203501N004119999999N999999999+00141+99999102761ADDMD1110121+9999OD159900461999REMSYN068ROBN4 46/// /3508 10014 40276 51012 91500 333 91209 555 11007 22008=
0108997743999992023010816004+40650-074067FM-13+007299999V0203601N003119999999N999999999+00181+99999102711ADDMD1990001+9999OD159900461999REMSYN068ROBN4 46/// /3606 10018 40271 50000 91600 333 91209 555 11006 22006=
0108997743999992023010817004+40650-074067FM-13+007299999V0200301N002619999999N999999999+00241+99999102551ADDMD1810181+9999OD159900311999REMSYN068ROBN4 46/// /0305 10024 40255 58018 91700 333 91206 555 11005 22005=
0108997743999992023010818004+40650-074067FM-13+007299999V0209999C000019999999N999999999+00371+99999102551ADDMD1610211+9999OD159900101999REMSYN068ROBN4 46/// /0000 10037 40255 56021 91800 333 91202 555 11000 22000=
0108997743999992023010819004+40650-074067FM-13+007299999V0201301N001519999999N999999999+00371+99999102461ADDMD1610251+9999OD159900211999REMSYN068ROBN4 46/// /1303 10037 40246 56025 91900 333 91204 555 11003 22003=
0108997743999992023010820004+40650-074067FM-13+007299999V0201701N004119999999N999999999+00381+99999102441ADDMD1710111+9999OD159900511999REMSYN068ROBN4 46/// /1708 10038 40244 57011 92000 333 91210 555 11008 22008=
0108997743999992023010821004+40650-074067FM-13+007299999V0201701N003119999999N999999999+00381+99999102401ADDMD1610151+9999OD159900361999REMSYN068ROBN4 46/// /1706 10038 40240 56015 92100 333 91207 555 11006 22006=
0108997743999992023010822004+40650-074067FM-13+007299999V0201901N006219999999N999999999+00351+99999102411ADDMD1710051+9999OD159900671999REMSYN068ROBN4 46/// /1912 10035 40241 57005 92200 333 91213 555 11011 22012=
0108997743999992023010823004+40650-074067FM-13+007299999V0201801N004119999999N999999999+00351+99999102311ADDMD1810131+9999OD159900411999REMSYN068ROBN4 46/// /1808 10035 40231 58013 92300 333 91208 555 11007 22008=
0108997743999992023010900004+40650-074067FM-13+007299999V0201801N004619999999N999999999+00351+99999102271ADDMD1810131+9999OD159900571999REMSYN068ROBN4 46/// /1809 10035 40227 58013 90000 333 91211 555 11009 22009=
0108997743999992023010901004+40650-074067FM-13+007299999V0201901N006219999999N999999999+00321+99999102211ADDMD1610201+9999OD159900721999REMSYN068ROBN4 46/// /1912 10032 40221 56020 90100 333 91214 555 11011 22012=
0108997743999992023010902004+40650-074067FM-13+007299999V0201901N006719999999N999999999+00311+99999102171ADDMD1710141+9999OD159900771999REMSYN068ROBN4 46/// /1913 10031 40217 57014 90200 333 91215 555 11012 22013=
0108997743999992023010903004+40650-074067FM-13+007299999V0202001N005719999999N999999999+00301+99999102111ADDMD1710161+9999OD159900621999REMSYN068ROBN4 46/// /2011 10030 40211 57016 90300 333 91212 555 11010 22010=
0088997743999992023010904004+40650-074067FM-13+007299999V0202001N004119999999N999999999+00311+99999102031ADDOD159900511999REMSYN062ROBN4 46/// /2008 10031 40203 90354 333 91210 555 11007 22008=
0108997743999992023010905004+40650-074067FM-13+007299999V0201801N003119999999N999999999+00341+99999101901ADDMD1810271+9999OD159900361999REMSYN068ROBN4 46/// /1806 10034 40190 58027 90500 333 91207 555 11005 22006=
0108997743999992023010906004+40650-074067FM-13+007299999V0201901N003119999999N999999999+00351+99999101841ADDMD1610271+9999OD159900361999REMSYN068ROBN4 46/// /1906 10035 40184 56027 90600 333 91207 555 11006 22006=
0108997743999992023010907004+40650-074067FM-13+007299999V0202101N005119999999N999999999+00381+99999101771ADDMD1610241+9999OD159900571999REMSYN068ROBN4 46/// /2110 10038 40177 56024 90700 333 91211 555 11009 22010=
0108997743999992023010908004+40650-074067FM-13+007299999V0202201N001519999999N999999999+00321+99999101691ADDMD1810211+9999OD159900261999REMSYN068ROBN4 46/// /2203 10032 40169 58021 90800 333 91205 555 11003 22003=
0108997743999992023010909004+40650-074067FM-13+007299999V0201801N001519999999N999999999+00311+99999101531ADDMD1810311+9999OD159900211999REMSYN068ROBN4 46/// /1803 10031 40153 58031 90900 333 91204 555 11003 22003=
0108997743999992023010910004+40650-074067FM-13+007299999V0200101N001519999999N999999999+00301+99999101471ADDMD1610301+9999OD159900151999REMSYN068ROBN4 46/// /0103 10030 40147 56030 91000 333 91203 555 11002 22003=
0108997743999992023010911004+40650-074067FM-13+007299999V0203501N002619999999N999999999+00291+99999101481ADDMD1610211+9999OD159900311999REMSYN068ROBN4 46/// /3505 10029 40148 56021 91100 333 91206 555 11004 22005=
0108997743999992023010912004+40650-074067FM-13+007299999V0203601N000519999999N999999999+00301+99999101421ADDMD1710111+9999OD159900101999REMSYN068ROBN4 46/// /3601 10030 40142 57011 91200 333 91202 555 11001 22001=
0108997743999992023010913004+40650-074067FM-13+007299999V0203001N004119999999N999999999+00331+99999101431ADDMD1710041+9999OD159900511999REMSYN068ROBN4 46/// /3008 10033 40143 57004 91300 333 91210 555 11008 22008=
0108997743999992023010914004+40650-074067FM-13+007299999V0202801N003119999999N999999999+00331+99999101471ADDMD1510001+9999OD159900411999REMSYN068ROBN4 46/// /2806 10033 40147 55000 91400 333 91208 555 11006 22006=
0108997743999992023010915004+40650-074067FM-13+007299999V0202901N004619999999N999999999+00371+99999101461ADDMD1210041+9999OD159900511999REMSYN068ROBN4 46/// /2909 10037 40146 52004 91500 333 91210 555 11008 22009=
0108997743999992023010916004+40650-074067FM-13+007299999V0203101N006219999999N999999999+00441+99999101411ADDMD1990001+9999OD159900821999REMSYN068ROBN4 46/// /3112 10044 40141 50000 91600 333 91216 555 11011 22012=
0108997743999992023010917004+40650-074067FM-13+007299999V0203201N006719999999N999999999+00521+99999101311ADDMD1810161+9999OD159900821999REMSYN068ROBN4 46/// /3213 10052 40131 58016 91700 333 91216 555 11012 22013=
0108997743999992023010918004+40650-074067FM-13+007299999V0203001N006719999999N999999999+00531+99999101221ADDMD1810241+9999OD159900821999REMSYN068ROBN4 46/// /3013 10053 40122 58024 91800 333 91216 555 11012 22013=
0108997743999992023010919004+40650-074067FM-13+007299999V0203101N007719999999N999999999+00601+99999101171ADDMD1610241+9999OD159901031999REMSYN068ROBN4 46/// /3115 10060 40117 56024 91900 333 91220 555 11014 22015=
0108997743999992023010920004+40650-074067FM-13+007299999V0203401N007719999999N999999999+00661+99999101171ADDMD1610141+9999OD159900931999REMSYN068ROBN4 46/// /3415 10066 40117 56014 92000 333 91218 555 11013 22015=
0088997743999992023010921004+40650-074067FM-13+007299999V0203101N009319999999N999999999+00641+99999101211ADDOD159901081999REMSYN062ROBN4 46/// /3118 10064 40121 92036 333 91221 555 11017 22018=
0108997743999992023010922004+40650-074067FM-13+007299999V0203201N006219999999N999999999+00591+99999101251ADDMD1310081+9999OD159900821999REMSYN068ROBN4 46/// /3212 10059 40125 53008 92200 333 91216 555 11011 22012=
0108997743999992023010923004+40650-074067FM-13+007299999V0203101N006219999999N999999999+00541+99999101321ADDMD1310151+9999OD159900771999REMSYN068ROBN4 46/// /3112 10054 40132 53015 92300 333 91215 555 11011 22012=
0108997743999992023011000004+40650-074067FM-13+007299999V0202901N004619999999N999999999+00511+99999101351ADDMD1210131+9999OD159900511999REMSYN068ROBN4 46/// /2909 10051 40135 52013 90000 333 91210 555 11008 22009=
0108997743999992023011001004+40650-074067FM-13+007299999V0202901N003619999999N999999999+00471+99999101341ADDMD1110091+9999OD159900411999REMSYN068ROBN4 46/// /2907 10047 40134 51009 90100 333 91208 555 11006 22007=
0108997743999992023011002004+40650-074067FM-13+007299999V0202801N003619999999N999999999+00431+99999101351ADDMD1110031+9999OD159900411999REMSYN068ROBN4 46/// /2807 10043 40135 51003 90200 333 91208 555 11006 22007=
0108997743999992023011003004+40650-074067FM-13+007299999V0202701N003619999999N999999999+00411+99999101371ADDMD1410001+9999OD159900461999REMSYN068ROBN4 46/// /2707 10041 40137 54000 90300 333 91209 555 11006 22007=
0108997743999992023011004004+40650-074067FM-13+007299999V0202801N005719999999N999999999+00411+99999101391ADDMD1210051+9999OD159900671999REMSYN068ROBN4 46/// /2811 10041 40139 52005 90400 333 91213 555 11010 22011=
0108997743999992023011005004+40650-074067FM-13+007299999V0202801N006219999999N999999999+00401+99999101381ADDMD1210031+9999OD159900671999REMSYN068ROBN4 46/// /2812 10040 40138 52003 90500 333 91213 555 11011 22012=
0108997743999992023011006004+40650-074067FM-13+007299999V0202801N005119999999N999999999+00341+99999101411ADDMD1310041+9999OD159900571999REMSYN068ROBN4 46/// /2810 10034 40141 53004 90600 333 91211 555 11009 22010=
0108997743999992023011007004+40650-074067FM-13+007299999V0202801N004619999999N999999999+00301+99999101491ADDMD1310101+9999OD159900571999REMSYN068ROBN4 46/// /2809 10030 40149 53010 90700 333 91211 555 11009 22009=
0108997743999992023011008004+40650-074067FM-13+007299999V0202801N004619999999N999999999+00311+99999101531ADDMD1310151+9999OD159900621999REMSYN068ROBN4 46/// /2809 10031 40153 53015 90800 333 91212 555 11008 22009=
0108997743999992023011009004+40650-074067FM-13+007299999V0202601N005119999999N999999999+00201+99999101521ADDMD1110111+9999OD159900571999REMSYN068ROBN4 46/// /2610 10020 40152 51011 90900 333 91211 555 11009 22010=
0108997743999992023011010004+40650-074067FM-13+007299999V0202801N005119999999N999999999+00241+99999101561ADDMD1210071+9999OD159900671999REMSYN068ROBN4 46/// /2810 10024 40156 52007 91000 333 91213 555 11009 22010=
0108997743999992023011011004+40650-074067FM-13+007299999V0202801N004119999999N999999999+00261+99999101621ADDMD1310091+9999OD159900461999REMSYN068ROBN4 46/// /2808 10026 40162 53009 91100 333 91209 555 11007 22008=
0088997743999992023011012004+40650-074067FM-13+007299999V0202701N004119999999N999999999+00261+99999101641ADDOD159900511999REMSYN062ROBN4 46/// /2708 10026 40164 91136 333 91210 555 11007 22008=
0108997743999992023011013004+40650-074067FM-13+007299999V0202801N003619999999N999999999+00301+99999101711ADDMD1110151+9999OD159900461999REMSYN068ROBN4 46/// /2807 10030 40171 51015 91300 333 91209 555 11006 22007=
0088997743999992023011014004+40650-074067FM-13+007299999V0202501N003619999999N999999999+00291+99999101741ADDOD159900411999REMSYN062ROBN4 46/// /2507 10029 40174 91336 333 91208 555 11007 22007=
0108997743999992023011015004+40650-074067FM-13+007299999V0202601N004619999999N999999999+00351+99999101781ADDMD1110121+9999OD159900511999REMSYN068ROBN4 46/// /2609 10035 40178 51012 91500 333 91210 555 11008 22009=
0088997743999992023011016004+40650-074067FM-13+007299999V0202601N005119999999N999999999+00371+99999101771ADDOD159900621999REMSYN062ROBN4 46/// /2610 10037 40177 91542 333 91212 555 11009 22010=
0108997743999992023011017004+40650-074067FM-13+007299999V0202701N005119999999N999999999+00421+99999101691ADDMD1810071+9999OD159900621999REMSYN068ROBN4 46/// /2710 10042 40169 58007 91700 333 91212 555 11009 22010=
0108997743999992023011018004+40650-074067FM-13+007299999V0202801N005719999999N999999999+00431+99999101641ADDMD1810141+9999OD159900621999REMSYN068ROBN4 46/// /2811 10043 40164 58014 91800 333 91212 555 11010 22011=
0108997743999992023011019004+40650-074067FM-13+007299999V0202701N006219999999N999999999+00451+99999101661ADDMD1610101+9999OD159900671999REMSYN068ROBN4 46/// /2712 10045 40166 56010 91900 333 91213 555 11011 22012=
0088997743999992023011020004+40650-074067FM-13+007299999V0203001N005719999999N999999999+00471+99999101641ADDOD159900621999REMSYN062ROBN4 46/// /3011 10047 40164 91948 333 91212 555 11010 22011=
0108997743999992023011021004+40650-074067FM-13+007299999V0202901N004619999999N999999999+00491+99999101691ADDMD1310051+9999OD159900511999REMSYN068ROBN4 46/// /2909 10049 40169 53005 92100 333 91210 555 11008 22009=
0108997743999992023011022004+40650-074067FM-13+007299999V0203001N004119999999N999999999+00501+99999101711ADDMD1210051+9999OD159900461999REMSYN068ROBN4 46/// /3008 10050 40171 52005 92200 333 91209 555 11008 22008=
0108997743999992023011023004+40650-074067FM-13+007299999V0202901N003619999999N999999999+00511+99999101771ADDMD1310131+9999OD159900411999REMSYN068ROBN4 46/// /2907 10051 40177 53013 92300 333 91208 555 11006 22007=
0108997743999992023011100004+40650-074067FM-13+007299999V0203101N004619999999N999999999+00511+99999101811ADDMD1310121+9999OD159900571999REMSYN068ROBN4 46/// /3109 10051 40181 53012 90000 333 91211 555 11008 22009=
0108997743999992023011101004+40650-074067FM-13+007299999V0203601N004119999999N999999999+00461+99999101871ADDMD1210161+9999OD159900621999REMSYN068ROBN4 46/// /3608 10046 40187 52016 90100 333 91212 555 11007 22008=
0108997743999992023011102004+40650-074067FM-13+007299999V0203501N004119999999N999999999+00451+99999101901ADDMD1110131+9999OD159900511999REMSYN068ROBN4 46/// /3508 10045 40190 51013 90200 333 91210 555 11007 22008=
0108997743999992023011103004+40650-074067FM-13+007299999V0203401N003619999999N999999999+00441+99999101941ADDMD1110131+9999OD159900511999REMSYN068ROBN4 46/// /3407 10044 40194 51013 90300 333 91210 555 11007 22007=
0108997743999992023011104004+40650-074067FM-13+007299999V0200301N003619999999N999999999+00431+99999101971ADDMD1210101+9999OD159900361999REMSYN068ROBN4 46/// /0307 10043 40197 52010 90400 333 91207 555 11006 22007=
0108997743999992023011105004+40650-074067FM-13+007299999V0203501N003619999999N999999999+00401+99999102011ADDMD1210111+9999OD159900411999REMSYN068ROBN4 46/// /3507 10040 40201 52011 90500 333 91208 555 11006 22007=
0108997743999992023011106004+40650-074067FM-13+007299999V0203501N003619999999N999999999+00411+99999102021ADDMD1110081+9999OD159900411999REMSYN068ROBN4 46/// /3507 10041 40202 51008 90600 333 91208 555 11006 22007=
0108997743999992023011107004+40650-074067FM-13+007299999V0203501N002619999999N999999999+00391+99999102071ADDMD1310101+9999OD159900361999REMSYN068ROBN4 46/// /3505 10039 40207 53010 90700 333 91207 555 11004 22005=
0108997743999992023011108004+40650-074067FM-13+007299999V0203501N003119999999N999999999+00361+99999102151ADDMD1310141+9999OD159900411999REMSYN068ROBN4 46/// /3506 10036 40215 53014 90800 333 91208 555 11006 22006=
0108997743999992023011109004+40650-074067FM-13+007299999V0200601N005119999999N999999999+00331+99999102161ADDMD1110141+9999OD159900571999REMSYN068ROBN4 46/// /0610 10033 40216 51014 90900 333 91211 555 11009 22010=
0088997743999992023011110004+40650-074067FM-13+007299999V0200601N007219999999N999999999+00271+99999102191ADDOD159900821999REMSYN062ROBN4 46/// /0614 10027 40219 90948 333 91216 555 11013 22014=
0108997743999992023011111004+40650-074067FM-13+007299999V0200601N006219999999N999999999+00251+99999102191ADDMD1990041+9999OD159900721999REMSYN068ROBN4 46/// /0612 10025 40219 50004 91100 333 91214 555 11011 22012=
0108997743999992023011112004+40650-074067FM-13+007299999V0200601N005719999999N999999999+00211+99999102251ADDMD1110091+9999OD159900621999REMSYN068ROBN4 46/// /0611 10021 40225 51009 91200 333 91212 555 11010 22011=
0108997743999992023011113004+40650-074067FM-13+007299999V0200501N004119999999N999999999+00221+99999102371ADDMD1310141+9999OD159900571999REMSYN068ROBN4 46/// /0508 10022 40237 53014 91300 333 91211 555 11008 22008=
0108997743999992023011114004+40650-074067FM-13+007299999V0200801N006219999999N999999999+00211+99999102381ADDMD1110191+9999OD159900671999REMSYN068ROBN4 46/// /0812 10021 40238 51019 91400 333 91213 555 11011 22011=
0108997743999992023011115004+40650-074067FM-13+007299999V0200501N002619999999N999999999+00231+99999102461ADDMD1110211+9999OD159900361999REMSYN068ROBN4 46/// /0505 10023 40246 51021 91500 333 91207 555 11005 22005=
0108997743999992023011116004+40650-074067FM-13+007299999V0200401N002619999999N999999999+00261+99999102481ADDMD1210111+9999OD159900311999REMSYN068ROBN4 46/// /0405 10026 40248 52011 91600 333 91206 555 11004 22004=
0108997743999992023011117004+40650-074067FM-13+007299999V0200401N000519999999N999999999+00281+99999102431ADDMD1990051+9999OD159900151999REMSYN068ROBN4 46/// /0401 10028 40243 50005 91700 333 91203 555 11001 22001=
0108997743999992023011118004+40650-074067FM-13+007299999V0200401N003119999999N999999999+00291+99999102321ADDMD1810141+9999OD159900411999REMSYN068ROBN4 46/// /0406 10029 40232 58014 91800 333 91208 555 11006 22006=
0108997743999992023011119004+40650-074067FM-13+007299999V0200501N002619999999N999999999+00331+99999102331ADDMD1610151+9999OD159900361999REMSYN068ROBN4 46/// /0505 10033 40233 56015 91900 333 91207 555 11005 22005=
0108997743999992023011120004+40650-074067FM-13+007299999V0200401N002619999999N999999999+00341+99999102371ADDMD1510061+9999OD159900311999REMSYN068ROBN4 46/// /0405 10034 40237 55006 92000 333 91206 555 11004 22005=
0108997743999992023011121004+40650-074067FM-13+007299999V0200901N001519999999N999999999+00391+99999102391ADDMD1210071+9999OD159900211999REMSYN068ROBN4 46/// /0903 10039 40239 52007 92100 333 91204 555 11003 22003=
0108997743999992023011122004+40650-074067FM-13+007299999V0201601N003119999999N999999999+00391+99999102411ADDMD1110081+9999OD159900461999REMSYN068ROBN4 46/// /1606 10039 40241 51008 92200 333 91209 555 11006 22006=
0108997743999992023011123004+40650-074067FM-13+007299999V0201401N003619999999N999999999+00381+99999102441ADDMD1310071+9999OD159900461999REMSYN068ROBN4 46/// /1407 10038 40244 53007 92300 333 91209 555 11006 22007=
0108997743999992023011200004+40650-074067FM-13+007299999V0201301N005119999999N999999999+00361+99999102421ADDMD1210031+9999OD159900621999REMSYN068ROBN4 46/// /1310 10036 40242 52003 90000 333 91212 555 11009 22010=
0108997743999992023011201004+40650-074067FM-13+007299999V0201001N005119999999N999999999+00341+99999102431ADDMD1990001+9999OD159900571999REMSYN068ROBN4 46/// /1010 10034 40243 50000 90100 333 91211 555 11009 22010=
0108997743999992023011202004+40650-074067FM-13+007299999V0201101N004119999999N999999999+00331+99999102461ADDMD1510001+9999OD159900461999REMSYN068ROBN4 46/// /1108 10033 40246 55000 90200 333 91209 555 11008 22008=
0108997743999992023011203004+40650-074067FM-13+007299999V0201001N004619999999N999999999+00331+99999102461ADDMD1210041+9999OD159900511999REMSYN068ROBN4 46/// /1009 10033 40246 52004 90300 333 91210 555 11008 22009=
0108997743999992023011204004+40650-074067FM-13+007299999V0201001N004119999999N999999999+00341+99999102451ADDMD1990001+9999OD159900411999REMSYN068ROBN4 46/// /1008 10034 40245 50000 90400 333 91208 555 11007 22008=
0108997743999992023011205004+40650-074067FM-13+007299999V0200901N003619999999N999999999+00341+99999102401ADDMD1810061+9999OD159900511999REMSYN068ROBN4 46/// /0907 10034 40240 58006 90500 333 91210 555 11006 22007=
0108997743999992023011206004+40650-074067FM-13+007299999V0200801N003619999999N999999999+00361+99999102361ADDMD1810101+9999OD159900411999REMSYN068ROBN4 46/// /0807 10036 40236 58010 90600 333 91208 555 11006 22007=
0108997743999992023011207004+40650-074067FM-13+007299999V0200801N003119999999N999999999+00381+99999102331ADDMD1610121+9999OD159900411999REMSYN068ROBN4 46/// /0806 10038 40233 56012 90700 333 91208 555 11006 22006=
0108997743999992023011208004+40650-074067FM-13+007299999V0200701N002619999999N999999999+00401+99999102271ADDMD1810131+9999OD159900311999REMSYN068ROBN4 46/// /0705 10040 40227 58013 90800 333 91206 555 11005 22005=
0108997743999992023011209004+40650-074067FM-13+007299999V0201001N002619999999N999999999+00481+99999102211ADDMD1810151+9999OD159900311999REMSYN068ROBN4 46/// /1005 10048 40221 58015 90900 333 91206 555 11005 22005=
0108997743999992023011210004+40650-074067FM-13+007299999V0201001N003619999999N999999999+00511+99999102171ADDMD1610161+9999OD159900461999REMSYN068ROBN4 46/// /1007 10051 40217 56016 91000 333 91209 555 11006 22007=
0108997743999992023011211004+40650-074067FM-13+007299999V0200901N004119999999N999999999+00581+99999102181ADDMD1610091+9999OD159900461999REMSYN068ROBN4 46/// /0908 10058 40218 56009 91100 333 91209 555 11007 22008=
0108997743999992023011212004+40650-074067FM-13+007299999V0200901N003619999999N999999999+00571+99999102171ADDMD1610041+9999OD159900511999REMSYN068ROBN4 46/// /0907 10057 40217 56004 91200 333 91210 555 11006 22007=
0108997743999992023011213004+40650-074067FM-13+007299999V0201001N005719999999N999999999+00621+99999102141ADDMD1810031+9999OD159900671999REMSYN068ROBN4 46/// /1011 10062 40214 58003 91300 333 91213 555 11010 22011=
0108997743999992023011214004+40650-074067FM-13+007299999V0201001N005119999999N999999999+00661+99999102141ADDMD1710041+9999OD159900511999REMSYN068ROBN4 46/// /1010 10066 40214 57004 91400 333 91210 555 11009 22010=
0108997743999992023011223004+40650-074067FM-13+007299999V0201901N009819999999N999999999+00921+99999101231ADDMD1610291+9999OD159901131999REMSYN068ROBN4 46/// /1919 10092 40123 56029 92300 333 91222 555 11017 22019=
0108997743999992023011300004+40650-074067FM-13+007299999V0201501N009319999999N999999999+01071+99999101011ADDMD1810391+9999OD159901031999REMSYN068ROBN4 46/// /1518 10107 40101 58039 90000 333 91220 555 11017 22018=
0108997743999992023011301004+40650-074067FM-13+007299999V0201701N009319999999N999999999+01011+99999100911ADDMD1810311+9999OD159900981999REMSYN068ROBN4 46/// /1718 10101 40091 58031 90100 333 91219 555 11016 22017=
0108997743999992023011302004+40650-074067FM-13+007299999V0201601N009819999999N999999999+01071+99999100751ADDMD1610481+9999OD159900981999REMSYN068ROBN4 46/// /1619 10107 40075 56048 90200 333 91219 555 11017 22018=
0108997743999992023011303004+40650-074067FM-13+007299999V0201701N009319999999N999999999+01131+99999100641ADDMD1810371+9999OD159900981999REMSYN068ROBN4 46/// /1718 10113 40064 58037 90300 333 91219 555 11017 22018=
0108997743999992023011304004+40650-074067FM-13+007299999V0201701N009319999999N999999999+01131+99999100521ADDMD1610391+9999OD159901031999REMSYN068ROBN4 46/// /1718 10113 40052 56039 90400 333 91220 555 11017 22018=
0108997743999992023011305004+40650-074067FM-13+007299999V0201801N007219999999N999999999+01021+99999100401ADDMD1810351+9999OD159900821999REMSYN068ROBN4 46/// /1814 10102 40040 58035 90500 333 91216 555 11013 22014=
0108997743999992023011306004+40650-074067FM-13+007299999V0201901N006219999999N999999999+01191+99999100281ADDMD1710361+9999OD159900721999REMSYN068ROBN4 46/// /1912 10119 40028 57036 90600 333 91214 555 11011 22012=
0108997743999992023011307004+40650-074067FM-13+007299999V0201701N008819999999N999999999+01091+99999100181ADDMD1610341+9999OD159900981999REMSYN068ROBN4 46/// /1717 10109 40018 56034 90700 333 91219 555 11016 22017=
0108997743999992023011308004+40650-074067FM-13+007299999V0202001N006719999999N999999999+01431+99999100131ADDMD1610271+9999OD159900931999REMSYN068ROBN4 46/// /2013 10143 40013 56027 90800 333 91218 555 11012 22013=
0108997743999992023011309004+40650-074067FM-13+007299999V0202001N006219999999N999999999+01371+99999100051ADDMD1610231+9999OD159900771999REMSYN068ROBN4 46/// /2012 10137 40005 56023 90900 333 91215 555 11011 22012=
0108997743999992023011310004+40650-074067FM-13+007299999V0201801N007719999999N999999999+01041+99999100011ADDMD1610171+9999OD159900821999REMSYN068ROBN4 46/// /1815 10104 40001 56017 91000 333 91216 555 11014 22015=
0108997743999992023011311004+40650-074067FM-13+007299999V0201801N005719999999N999999999+00911+99999100071ADDMD1510061+9999OD159900821999REMSYN068ROBN4 46/// /1811 10091 40007 55006 91100 333 91216 555 11010 22011=
0108997743999992023011312004+40650-074067FM-13+007299999V0201801N005719999999N999999999+01001+99999100051ADDMD1510001+9999OD159900621999REMSYN068ROBN4 46/// /1811 10100 40005 55000 91200 333 91212 555 11010 22011=
0088997743999992023011313004+40650-074067FM-13+007299999V0201801N006219999999N999999999+00991+99999100021ADDOD159900621999REMSYN062ROBN4 46/// /1812 10099 40002 91248 333 91212 555 11011 22011=
0108997743999992023011314004+40650-074067FM-13+007299999V0201801N006219999999N999999999+01021+99999100021ADDMD1710051+9999OD159900621999REMSYN068ROBN4 46/// /1812 10102 40002 57005 91400 333 91212 555 11011 22011=
0108997743999992023011315004+40650-074067FM-13+007299999V0202401N005119999999N999999999+01291+99999100021ADDMD1710031+9999OD159900771999REMSYN068ROBN4 46/// /2410 10129 40002 57003 91500 333 91215 555 11009 22010=
0088997743999992023011316004+40650-074067FM-13+007299999V0202401N007219999999N999999999+01331+99999100051ADDOD159900881999REMSYN062ROBN4 46/// /2414 10133 40005 91548 333 91217 555 11012 22014=
0108997743999992023011317004+40650-074067FM-13+007299999V0202701N007219999999N999999999+01161+99999100001ADDMD1990001+9999OD159900821999REMSYN068ROBN4 46/// /2714 10116 40000 50000 91700 333 91216 555 11013 22014=
0108997743999992023011318004+40650-074067FM-13+007299999V0202601N006219999999N999999999+01111+99999100001ADDMD1990001+9999OD159900771999REMSYN068ROBN4 46/// /2612 10111 40000 50000 91800 333 91215 555 11011 22012=
0108997743999992023011319004+40650-074067FM-13+007299999V0203101N009319999999N999999999+00931+99999100091ADDMD1310041+9999OD159901131999REMSYN068ROBN4 46/// /3118 10093 40009 53004 91900 333 91222 555 11016 22018=
0108997743999992023011320004+40650-074067FM-13+007299999V0203001N009819999999N999999999+00811+99999100151ADDMD1310151+9999OD159901081999REMSYN068ROBN4 46/// /3019 10081 40015 53015 92000 333 91221 555 11018 22019=
0108997743999992023011321004+40650-074067FM-13+007299999V0203101N010319999999N999999999+00691+99999100261ADDMD1310261+9999OD159901341999REMSYN068ROBN4 46/// /3120 10069 40026 53026 92100 333 91226 555 11018 22020=
0088997743999992023011322004+40650-074067FM-13+007299999V0203101N010319999999N999999999+00611+99999100331ADDOD159901131999REMSYN062ROBN4 46/// /3120 10061 40033 92136 333 91222 555 11018 22020=
0108997743999992023011323004+40650-074067FM-13+007299999V0203201N008819999999N999999999+00461+99999100451ADDMD1210301+9999OD159901131999REMSYN068ROBN4 46/// /3217 10046 40045 52030 92300 333 91222 555 11016 22017=
0088997743999992023011400004+40650-074067FM-13+007299999V0203301N006719999999N999999999+00441+99999100491ADDOD159901131999REMSYN062ROBN4 46/// /3313 10044 40049 92336 333 91222 555 11012 22013=
0088997743999992023011401004+40650-074067FM-13+007299999V0203401N006219999999N999999999+00451+99999100601ADDOD159900771999REMSYN062ROBN4 46/// /3412 10045 40060 90036 333 91215 555 11011 22012=
0108997743999992023011402004+40650-074067FM-13+007299999V0203401N008219999999N999999999+00391+99999100551ADDMD1210101+9999OD159901181999REMSYN068ROBN4 46/// /3416 10039 40055 52010 90200 333 91223 555 11015 22016=
0088997743999992023011403004+40650-074067FM-13+007299999V0203401N009319999999N999999999+00371+99999100571ADDOD159901241999REMSYN062ROBN4 46/// /3418 10037 40057 90242 333 91224 555 11017 22018=
0108997743999992023011404004+40650-074067FM-13+007299999V0203401N006719999999N999999999+00331+99999100561ADDMD1510001+9999OD159900931999REMSYN068ROBN4 46/// /3413 10033 40056 55000 90400 333 91218 555 11012 22013=
0108997743999992023011405004+40650-074067FM-13+007299999V0203501N007219999999N999999999+00311+99999100471ADDMD1810081+9999OD159900981999REMSYN068ROBN4 46/// /3514 10031 40047 58008 90500 333 91219 555 11013 22014=
0108997743999992023011406004+40650-074067FM-13+007299999V0203401N008219999999N999999999+00271+99999100511ADDMD1410001+9999OD159901081999REMSYN068ROBN4 46/// /3416 10027 40051 54000 90600 333 91221 555 11015 22016=
0108997743999992023011407004+40650-074067FM-13+007299999V0203401N006219999999N999999999+00261+99999100621ADDMD1310061+9999OD159900981999REMSYN068ROBN4 46/// /3412 10026 40062 53006 90700 333 91219 555 11011 22012=
0108997743999992023011408004+40650-074067FM-13+007299999V0200101N008219999999N999999999+00221+99999100741ADDMD1310271+9999OD159901131999REMSYN068ROBN4 46/// /0116 10022 40074 53027 90800 333 91222 555 11015 22016=
0108997743999992023011409004+40650-074067FM-13+007299999V0203501N010319999999N999999999+00161+99999100701ADDMD1990191+9999OD159901291999REMSYN068ROBN4 46/// /3520 10016 40070 50019 90900 333 91225 555 11018 22020=
0108997743999992023011410004+40650-074067FM-13+007299999V0203601N008219999999N999999999+00181+99999100731ADDMD1110111+9999OD159901031999REMSYN068ROBN4 46/// /3616 10018 40073 51011 91000 333 91220 555 11014 22015=
0108997743999992023011411004+40650-074067FM-13+007299999V0203601N009819999999N999999999+00161+99999100761ADDMD1510001+9999OD159901241999REMSYN068ROBN4 46/// /3619 10016 40076 55000 91100 333 91224 555 11017 22019=
0108997743999992023011412004+40650-074067FM-13+007299999V0203501N008219999999N999999999+00131+99999100821ADDMD1310121+9999OD159901131999REMSYN068ROBN4 46/// /3516 10013 40082 53012 91200 333 91222 555 11014 22016=
0108997743999992023011413004+40650-074067FM-13+007299999V0200101N010819999999N999999999+00041+99999100871ADDMD1310141+9999OD159901241999REMSYN068ROBN4 46/// /0121 10004 40087 53014 91300 333 91224 555 11019 22021=
0108997743999992023011414004+40650-074067FM-13+007299999V0203601N008819999999N999999999+00071+99999100981ADDMD1310221+9999OD159900981999REMSYN068ROBN4 46/// /3617 10007 40098 53022 91400 333 91219 555 11016 22017=
0108997743999992023011415004+40650-074067FM-13+007299999V0203501N008219999999N999999999+00071+99999101071ADDMD1310251+9999OD159901081999REMSYN068ROBN4 46/// /3516 10007 40107 53025 91500 333 91221 555 11015 22016=
0108997743999992023011416004+40650-074067FM-13+007299999V0203601N008219999999N999999999+00081+99999101081ADDMD1110211+9999OD159901081999REMSYN068ROBN4 46/// /3616 10008 40108 51021 91600 333 91221 555 11015 22016=
0108997743999992023011417004+40650-074067FM-13+007299999V0203601N008219999999N999999999+00111+99999101021ADDMD1990041+9999OD159901131999REMSYN068ROBN4 46/// /3616 10011 40102 50004 91700 333 91222 555 11015 22016=
0108997743999992023011418004+40650-074067FM-13+007299999V0203501N008219999999N999999999+00131+99999101001ADDMD1710071+9999OD159901031999REMSYN068ROBN4 46/// /3516 10013 40100 57007 91800 333 91220 555 11015 22016=
0108997743999992023011419004+40650-074067FM-13+007299999V0203501N008819999999N999999999+00171+99999100991ADDMD1610091+9999OD159901081999REMSYN068ROBN4 46/// /3517 10017 40099 56009 91900 333 91221 555 11016 22017=
0108997743999992023011420004+40650-074067FM-13+007299999V0203501N008819999999N999999999+00201+99999101011ADDMD1410001+9999OD159901131999REMSYN068ROBN4 46/// /3517 10020 40101 54000 92000 333 91222 555 11015 22017=
0108997743999992023011421004+40650-074067FM-13+007299999V0203401N009819999999N999999999+00191+99999101061ADDMD1310061+9999OD159901181999REMSYN068ROBN4 46/// /3419 10019 40106 53006 92100 333 91223 555 11017 22019=
0108997743999992023011422004+40650-074067FM-13+007299999V0203601N010319999999N999999999+00141+99999101141ADDMD1310151+9999OD159901181999REMSYN068ROBN4 46/// /3620 10014 40114 53015 92200 333 91223 555 11018 22020=
0108997743999992023011423004+40650-074067FM-13+007299999V0203601N010819999999N999999999+00071+99999101181ADDMD1110171+9999OD159901341999REMSYN068ROBN4 46/// /3621 10007 40118 51017 92300 333 91226 555 11019 22021=
0108997743999992023011500004+40650-074067FM-13+007299999V0203601N012419999999N999999999+00061+99999101201ADDMD1110141+9999OD159901491999REMSYN068ROBN4 46/// /3624 10006 40120 51014 90000 333 91229 555 11022 22024=
0108997743999992023011501004+40650-074067FM-13+007299999V0203601N011819999999N999999999+00041+99999101141ADDMD1990001+9999OD159901441999REMSYN068ROBN4 46/// /3623 10004 40114 50000 90100 333 91228 555 11021 22022=
0108997743999992023011502004+40650-074067FM-13+007299999V0203601N011319999999N999999999+00031+99999101171ADDMD1510001+9999OD159901491999REMSYN068ROBN4 46/// /3622 10003 40117 55000 90200 333 91229 555 11020 22022=
0108997743999992023011503004+40650-074067FM-13+007299999V0200101N011819999999N999999999+00021+99999101291ADDMD1310091+9999OD159901391999REMSYN068ROBN4 46/// /0123 10002 40129 53009 90300 333 91227 555 11021 22023=
0088997743999992023011504004+40650-074067FM-13+007299999V0203501N011819999999N999999999+00011+99999101251ADDOD159901491999REMSYN062ROBN4 46/// /3523 10001 40125 90348 333 91229 555 11021 22022=
0108997743999992023011505004+40650-074067FM-13+007299999V0203601N013419999999N999999999-00011+99999101211ADDMD1990041+9999OD159901601999REMSYN068ROBN4 46/// /3626 11001 40121 50004 90500 333 91231 555 11024 22026=
0108997743999992023011506004+40650-074067FM-13+007299999V0203501N011819999999N999999999-00021+99999101241ADDMD1510051+9999OD159901441999REMSYN068ROBN4 46/// /3523 11002 40124 55005 90600 333 91228 555 11021 22023=
0108997743999992023011507004+40650-074067FM-13+007299999V0203601N009819999999N999999999-00021+99999101301ADDMD1310041+9999OD159901181999REMSYN068ROBN4 46/// /3619 11002 40130 53004 90700 333 91223 555 11017 22019=
0108997743999992023011508004+40650-074067FM-13+007299999V0203601N010819999999N999999999-00041+99999101381ADDMD1310171+9999OD159901341999REMSYN068ROBN4 46/// /3621 11004 40138 53017 90800 333 91226 555 11019 22021=
0108997743999992023011509004+40650-074067FM-13+007299999V0203501N011819999999N999999999-00071+99999101381ADDMD1110141+9999OD159901491999REMSYN068ROBN4 46/// /3523 11007 40138 51014 90900 333 91229 555 11021 22023=
0108997743999992023011510004+40650-074067FM-13+007299999V0203501N010819999999N999999999-00061+99999101461ADDMD1210161+9999OD159901341999REMSYN068ROBN4 46/// /3521 11006 40146 52016 91000 333 91226 555 11019 22021=
0108997743999992023011511004+40650-074067FM-13+007299999V0203501N010319999999N999999999-00061+99999101491ADDMD1310111+9999OD159901291999REMSYN068ROBN4 46/// /3520 11006 40149 53011 91100 333 91225 555 11019 22020=
0088997743999992023011512004+40650-074067FM-13+007299999V0200101N011819999999N999999999-00041+99999101531ADDOD159901291999REMSYN062ROBN4 46/// /0123 11004 40153 91136 333 91225 555 11021 22023=
0108997743999992023011513004+40650-074067FM-13+007299999V0200101N009819999999N999999999-00061+99999101611ADDMD1210151+9999OD159901291999REMSYN068ROBN4 46/// /0119 11006 40161 52015 91300 333 91225 555 11018 22019=
0108997743999992023011514004+40650-074067FM-13+007299999V0203501N011819999999N999999999-00021+99999101661ADDMD1210171+9999OD159901441999REMSYN068ROBN4 46/// /3523 11002 40166 52017 91400 333 91228 555 11021 22023=
0088997743999992023011515004+40650-074067FM-13+007299999V0203501N008819999999N999999999+00061+99999101671ADDOD159901241999REMSYN062ROBN4 46/// /3517 10006 40167 91448 333 91224 555 11016 22017=
0108997743999992023011516004+40650-074067FM-13+007299999V0203601N011819999999N999999999+00141+99999101631ADDMD1990001+9999OD159901491999REMSYN068ROBN4 46/// /3623 10014 40163 50000 91600 333 91229 555 11021 22022=
0108997743999992023011517004+40650-074067FM-13+007299999V0203501N011319999999N999999999+00231+99999101611ADDMD1710051+9999OD159901491999REMSYN068ROBN4 46/// /3522 10023 40161 57005 91700 333 91229 555 11020 22022=
0108997743999992023011518004+40650-074067FM-13+007299999V0203501N011819999999N999999999+00321+99999101561ADDMD1810111+9999OD159901491999REMSYN068ROBN4 46/// /3523 10032 40156 58011 91800 333 91229 555 11021 22023=
0108997743999992023011519004+40650-074067FM-13+007299999V0203501N009819999999N999999999+00451+99999101521ADDMD1810111+9999OD159901341999REMSYN068ROBN4 46/// /3519 10045 40152 58011 91900 333 91226 555 11018 22019=
0108997743999992023011520004+40650-074067FM-13+007299999V0203501N010819999999N999999999+00511+99999101461ADDMD1810151+9999OD159901541999REMSYN068ROBN4 46/// /3521 10051 40146 58015 92000 333 91230 555 11019 22021=
0108997743999992023011521004+40650-074067FM-13+007299999V0203501N007219999999N999999999+00561+99999101491ADDMD1510071+9999OD159901341999REMSYN068ROBN4 46/// /3514 10056 40149 55007 92100 333 91226 555 11013 22014=
0108997743999992023011522004+40650-074067FM-13+007299999V0203501N009819999999N999999999+00541+99999101561ADDMD1310041+9999OD159901341999REMSYN068ROBN4 46/// /3519 10054 40156 53004 92200 333 91226 555 11017 22019=
0108997743999992023011523004+40650-074067FM-13+007299999V0203501N007219999999N999999999+00451+99999101601ADDMD1310141+9999OD159900881999REMSYN068ROBN4 46/// /3514 10045 40160 53014 92300 333 91217 555 11013 22014=
0108997743999992023011600004+40650-074067FM-13+007299999V0203501N008819999999N999999999+00341+99999101621ADDMD1110131+9999OD159901031999REMSYN068ROBN4 46/// /3517 10034 40162 51013 90000 333 91220 555 11015 22016=
0108997743999992023011601004+40650-074067FM-13+007299999V0203501N009819999999N999999999+00261+99999101611ADDMD1110051+9999OD159901241999REMSYN068ROBN4 46/// /3519 10026 40161 51005 90100 333 91224 555 11017 22018=
0108997743999992023011602004+40650-074067FM-13+007299999V0203501N008219999999N999999999+00211+99999101581ADDMD1990001+9999OD159901031999REMSYN068ROBN4 46/// /3516 10021 40158 50000 90200 333 91220 555 11014 22015=
0108997743999992023011603004+40650-074067FM-13+007299999V0203601N007719999999N999999999+00171+99999101581ADDMD1710041+9999OD159901031999REMSYN068ROBN4 46/// /3615 10017 40158 57004 90300 333 91220 555 11013 22015=
0108997743999992023011604004+40650-074067FM-13+007299999V0203401N003619999999N999999999+00091+99999101591ADDMD1510001+9999OD159900671999REMSYN068ROBN4 46/// /3407 10009 40159 55000 90400 333 91213 555 11007 22007=
0108997743999992023011605004+40650-074067FM-13+007299999V0203501N007219999999N999999999+00031+99999101551ADDMD1810031+9999OD159900881999REMSYN068ROBN4 46/// /3514 10003 40155 58003 90500 333 91217 555 11013 22014=
0108997743999992023011606004+40650-074067FM-13+007299999V0203501N007219999999N999999999+00001+99999101501ADDMD1810081+9999OD159900881999REMSYN068ROBN4 46/// /3514 10000 40150 58008 90600 333 91217 555 11013 22014=
0108997743999992023011607004+40650-074067FM-13+007299999V0203401N006219999999N999999999-00061+99999101541ADDMD1510051+9999OD159900821999REMSYN068ROBN4 46/// /3412 11006 40154 55005 90700 333 91216 555 11011 22012=
0108997743999992023011608004+40650-074067FM-13+007299999V0203301N006219999999N999999999-00101+99999101521ADDMD1610031+9999OD159900821999REMSYN068ROBN4 46/// /3312 11010 40152 56003 90800 333 91216 555 11011 22011=
0108997743999992023011609004+40650-074067FM-13+007299999V0203401N008219999999N999999999-00151+99999101531ADDMD1110031+9999OD159901031999REMSYN068ROBN4 46/// /3416 11015 40153 51003 90900 333 91220 555 11015 22016=
0108997743999992023011610004+40650-074067FM-13+007299999V0203301N006719999999N999999999-00181+99999101521ADDMD1410001+9999OD159900931999REMSYN068ROBN4 46/// /3313 11018 40152 54000 91000 333 91218 555 11012 22013=
0108997743999992023011611004+40650-074067FM-13+007299999V0203301N007719999999N999999999-00181+99999101481ADDMD1810041+9999OD159901031999REMSYN068ROBN4 46/// /3315 11018 40148 58004 91100 333 91220 555 11013 22015=
0108997743999992023011612004+40650-074067FM-13+007299999V0203301N006219999999N999999999-00171+99999101491ADDMD1710041+9999OD159901031999REMSYN068ROBN4 46/// /3312 11017 40149 57004 91200 333 91220 555 11011 22012=
0108997743999992023011613004+40650-074067FM-13+007299999V0203201N007719999999N999999999-00161+99999101481ADDMD1610041+9999OD159900981999REMSYN068ROBN4 46/// /3215 11016 40148 56004 91300 333 91219 555 11013 22015=
0108997743999992023011614004+40650-074067FM-13+007299999V0203301N007219999999N999999999-00161+99999101441ADDMD1810041+9999OD159900931999REMSYN068ROBN4 46/// /3314 11016 40144 58004 91400 333 91218 555 11013 22014=
0108997743999992023011615004+40650-074067FM-13+007299999V0203301N005719999999N999999999-00031+99999101411ADDMD1810081+9999OD159900771999REMSYN068ROBN4 46/// /3311 11003 40141 58008 91500 333 91215 555 11010 22010=
0108997743999992023011616004+40650-074067FM-13+007299999V0203501N005119999999N999999999+00091+99999101311ADDMD1810171+9999OD159900671999REMSYN068ROBN4 46/// /3510 10009 40131 58017 91600 333 91213 555 11009 22010=
0108997743999992023011617004+40650-074067FM-13+007299999V0203401N004119999999N999999999+00241+99999101151ADDMD1810291+9999OD159900621999REMSYN068ROBN4 46/// /3408 10024 40115 58029 91700 333 91212 555 11008 22008=
0108997743999992023011618004+40650-074067FM-13+007299999V0203001N004119999999N999999999+00441+99999101001ADDMD1810411+9999OD159900511999REMSYN068ROBN4 46/// /3008 10044 40100 58041 91800 333 91210 555 11008 22008=
0108997743999992023011619004+40650-074067FM-13+007299999V0203101N003619999999N999999999+00671+99999100921ADDMD1610391+9999OD159900411999REMSYN068ROBN4 46/// /3107 10067 40092 56039 91900 333 91208 555 11006 22007=
0108997743999992023011620004+40650-074067FM-13+007299999V0203001N005719999999N999999999+00881+99999100881ADDMD1610271+9999OD159900721999REMSYN068ROBN4 46/// /3011 10088 40088 56027 92000 333 91214 555 11010 22011=
0108997743999992023011621004+40650-074067FM-13+007299999V0203101N006719999999N999999999+00911+99999100861ADDMD1610141+9999OD159900821999REMSYN068ROBN4 46/// /3113 10091 40086 56014 92100 333 91216 555 11012 22013=
0108997743999992023011622004+40650-074067FM-13+007299999V0203201N007219999999N999999999+00801+99999100871ADDMD1610051+9999OD159900931999REMSYN068ROBN4 46/// /3214 10080 40087 56005 92200 333 91218 555 11013 22014=
0088997743999992023011623004+40650-074067FM-13+007299999V0203201N004619999999N999999999+00761+99999100881ADDOD159900571999REMSYN062ROBN4 46/// /3209 10076 40088 92236 333 91211 555 11009 22009=
0088997743999992023011700004+40650-074067FM-13+007299999V0203001N006219999999N999999999+00691+99999100871ADDOD159900721999REMSYN062ROBN4 46/// /3012 10069 40087 92348 333 91214 555 11011 22012=
0108997743999992023011701004+40650-074067FM-13+007299999V0203101N007219999999N999999999+00621+99999100891ADDMD1410001+9999OD159900881999REMSYN068ROBN4 46/// /3114 10062 40089 54000 90100 333 91217 555 11013 22014=
0108997743999992023011702004+40650-074067FM-13+007299999V0203101N008219999999N999999999+00551+99999100891ADDMD1410001+9999OD159900931999REMSYN068ROBN4 46/// /3116 10055 40089 54000 90200 333 91218 555 11014 22016=
0088997743999992023011703004+40650-074067FM-13+007299999V0203101N006719999999N999999999+00481+99999100941ADDOD159900771999REMSYN062ROBN4 46/// /3113 10048 40094 90254 333 91215 555 11012 22013=
0108997743999992023011704004+40650-074067FM-13+007299999V0203401N003619999999N999999999+00401+99999100881ADDMD1990001+9999OD159900571999REMSYN068ROBN4 46/// /3407 10040 40088 50000 90400 333 91211 555 11007 22007=
0108997743999992023011705004+40650-074067FM-13+007299999V0203101N004619999999N999999999+00351+99999100881ADDMD1990001+9999OD159900621999REMSYN068ROBN4 46/// /3109 10035 40088 50000 90500 333 91212 555 11009 22009=
0108997743999992023011706004+40650-074067FM-13+007299999V0202801N003619999999N999999999+00271+99999100861ADDMD1610081+9999OD159900461999REMSYN068ROBN4 46/// /2807 10027 40086 56008 90600 333 91209 555 11006 22007=
0108997743999992023011707004+40650-074067FM-13+007299999V0203001N004119999999N999999999+00261+99999100841ADDMD1710041+9999OD159900461999REMSYN068ROBN4 46/// /3008 10026 40084 57004 90700 333 91209 555 11008 22008=
0108997743999992023011708004+40650-074067FM-13+007299999V0202801N005119999999N999999999+00251+99999100831ADDMD1710051+9999OD159900571999REMSYN068ROBN4 46/// /2810 10025 40083 57005 90800 333 91211 555 11009 22010=
0108997743999992023011709004+40650-074067FM-13+007299999V0202801N004119999999N999999999+00241+99999100831ADDMD1710031+9999OD159900461999REMSYN068ROBN4 46/// /2808 10024 40083 57003 90900 333 91209 555 11008 22008=
0108997743999992023011710004+40650-074067FM-13+007299999V0203001N004119999999N999999999+00201+99999100741ADDMD1810101+9999OD159900511999REMSYN068ROBN4 46/// /3008 10020 40074 58010 91000 333 91210 555 11007 22008=
0108997743999992023011711004+40650-074067FM-13+007299999V0202701N003619999999N999999999+00221+99999100801ADDMD1510031+9999OD159900461999REMSYN068ROBN4 46/// /2707 10022 40080 55003 91100 333 91209 555 11006 22007=
0108997743999992023011712004+40650-074067FM-13+007299999V0202801N004119999999N999999999+00191+99999100771ADDMD1610061+9999OD159900511999REMSYN068ROBN4 46/// /2808 10019 40077 56006 91200 333 91210 555 11007 22008=
0108997743999992023011713004+40650-074067FM-13+007299999V0202701N005119999999N999999999+00241+99999100801ADDMD1110061+9999OD159900671999REMSYN068ROBN4 46/// /2710 10024 40080 51006 91300 333 91213 555 11009 22010=
0108997743999992023011714004+40650-074067FM-13+007299999V0202801N003119999999N999999999+00321+99999100811ADDMD1510001+9999OD159900411999REMSYN068ROBN4 46/// /2806 10032 40081 55000 91400 333 91208 555 11006 22006=
0108997743999992023011715004+40650-074067FM-13+007299999V0202901N002619999999N999999999+00401+99999100741ADDMD1810031+9999OD159900311999REMSYN068ROBN4 46/// /2905 10040 40074 58003 91500 333 91206 555 11005 22005=
0108997743999992023011716004+40650-074067FM-13+007299999V0202601N001019999999N999999999+00521+99999100661ADDMD1810141+9999OD159900101999REMSYN068ROBN4 46/// /2602 10052 40066 58014 91600 333 91202 555 11001 22002=
0108997743999992023011717004+40650-074067FM-13+007299999V0202701N002119999999N999999999+00571+99999100601ADDMD1610211+9999OD159900261999REMSYN068ROBN4 46/// /2704 10057 40060 56021 91700 333 91205 555 11004 22004=
0108997743999992023011718004+40650-074067FM-13+007299999V0201501N002619999999N999999999+00551+99999100461ADDMD1810281+9999OD159900311999REMSYN068ROBN4 46/// /1505 10055 40046 58028 91800 333 91206 555 11005 22005=
0088997743999992023011719004+40650-074067FM-13+007299999V0201501N002619999999N999999999+00621+99999100411ADDOD159900261999REMSYN062ROBN4 46/// /1505 10062 40041 91842 333 91205 555 11004 22005=
0108997743999992023011720004+40650-074067FM-13+007299999V0201601N003119999999N999999999+00661+99999100361ADDMD1610241+9999OD159900361999REMSYN068ROBN4 46/// /1606 10066 40036 56024 92000 333 91207 555 11005 22006=
0108997743999992023011721004+40650-074067FM-13+007299999V0202201N004119999999N999999999+00761+99999100421ADDMD1510041+9999OD159900461999REMSYN068ROBN4 46/// /2208 10076 40042 55004 92100 333 91209 555 11007 22008=
0108997743999992023011722004+40650-074067FM-13+007299999V0201901N003119999999N999999999+00641+99999100391ADDMD1610041+9999OD159900361999REMSYN068ROBN4 46/// /1906 10064 40039 56004 92200 333 91207 555 11006 22006=
0108997743999992023011723004+40650-074067FM-13+007299999V0201901N003119999999N999999999+00641+99999100421ADDMD1110061+9999OD159900311999REMSYN068ROBN4 46/// /1906 10064 40042 51006 92300 333 91206 555 11006 22006=
0108997743999992023011800004+40650-074067FM-13+007299999V0202201N003619999999N999999999+00681+99999100451ADDMD1310031+9999OD159900411999REMSYN068ROBN4 46/// /2207 10068 40045 53003 90000 333 91208 555 11006 22007=
0108997743999992023011801004+40650-074067FM-13+007299999V0202501N003619999999N999999999+00731+99999100451ADDMD1110061+9999OD159900461999REMSYN068ROBN4 46/// /2507 10073 40045 51006 90100 333 91209 555 11007 22007=
0108997743999992023011802004+40650-074067FM-13+007299999V0202601N004119999999N999999999+00751+99999100421ADDMD1990001+9999OD159900511999REMSYN068ROBN4 46/// /2608 10075 40042 50000 90200 333 91210 555 11007 22008=
0108997743999992023011803004+40650-074067FM-13+007299999V0202601N004119999999N999999999+00711+99999100461ADDMD1510001+9999OD159900511999REMSYN068ROBN4 46/// /2608 10071 40046 55000 90300 333 91210 555 11007 22008=
0108997743999992023011804004+40650-074067FM-13+007299999V0202701N003119999999N999999999+00681+99999100401ADDMD1810051+9999OD159900461999REMSYN068ROBN4 46/// /2706 10068 40040 58005 90400 333 91209 555 11005 22006=
0108997743999992023011805004+40650-074067FM-13+007299999V0202701N003119999999N999999999+00621+99999100381ADDMD1810041+9999OD159900361999REMSYN068ROBN4 46/// /2706 10062 40038 58004 90500 333 91207 555 11006 22006=
0108997743999992023011806004+40650-074067FM-13+007299999V0202501N002619999999N999999999+00581+99999100391ADDMD1610071+9999OD159900361999REMSYN068ROBN4 46/// /2505 10058 40039 56007 90600 333 91207 555 11004 22005=
0108997743999992023011807004+40650-074067FM-13+007299999V0202601N005719999999N999999999+00561+99999100401ADDMD1410001+9999OD159900721999REMSYN068ROBN4 46/// /2611 10056 40040 54000 90700 333 91214 555 11010 22011=
0108997743999992023011808004+40650-074067FM-13+007299999V0202501N004619999999N999999999+00591+99999100381ADDMD1410001+9999OD159900571999REMSYN068ROBN4 46/// /2509 10059 40038 54000 90800 333 91211 555 11008 22009=
0108997743999992023011809004+40650-074067FM-13+007299999V0202601N006219999999N999999999+00611+99999100421ADDMD1310031+9999OD159900721999REMSYN068ROBN4 46/// /2612 10061 40042 53003 90900 333 91214 555 11011 22012=
0108997743999992023011810004+40650-074067FM-13+007299999V0202601N006219999999N999999999+00621+99999100451ADDMD1310051+9999OD159900771999REMSYN068ROBN4 46/// /2612 10062 40045 53005 91000 333 91215 555 11011 22012=
0108997743999992023011811004+40650-074067FM-13+007299999V0202701N006719999999N999999999+00631+99999100521ADDMD1310141+9999OD159900931999REMSYN068ROBN4 46/// /2713 10063 40052 53014 91100 333 91218 555 11012 22013=
0108997743999992023011812004+40650-074067FM-13+007299999V0202801N007219999999N999999999+00671+99999100611ADDMD1310191+9999OD159900821999REMSYN068ROBN4 46/// /2814 10067 40061 53019 91200 333 91216 555 11013 22014=
0108997743999992023011813004+40650-074067FM-13+007299999V0202801N007719999999N999999999+99999+99999100711ADDMD1310261+9999OD159900931999REMSYN068ROBN4 46/// /2815 1//// 40071 53026 91300 333 91218 555 11014 22015=
0108997743999992023011814004+40650-074067FM-13+007299999V0203001N007719999999N999999999+00951+99999100801ADDMD1210281+9999OD159900931999REMSYN068ROBN4 46/// /3015 10095 40080 52028 91400 333 91218 555 11014 22015=
0088997743999992023011815004+40650-074067FM-13+007299999V0203001N009319999999N999999999+00981+99999100831ADDOD159901131999REMSYN062ROBN4 46/// /3018 10098 40083 91448 333 91222 555 11016 22018=
0108997743999992023011816004+40650-074067FM-13+007299999V0203101N011819999999N999999999+01051+99999100871ADDMD1210161+9999OD159901391999REMSYN068ROBN4 46/// /3123 10105 40087 52016 91600 333 91227 555 11021 22023=
0108997743999992023011817004+40650-074067FM-13+007299999V0203101N009319999999N999999999+01061+99999100821ADDMD1410001+9999OD159901181999REMSYN068ROBN4 46/// /3118 10106 40082 54000 91700 333 91223 555 11016 22018=
0088997743999992023011818004+40650-074067FM-13+007299999V0203201N012419999999N999999999+01111+99999100801ADDOD159901491999REMSYN062ROBN4 46/// /3224 10111 40080 91742 333 91229 555 11022 22024=
0108997743999992023011819004+40650-074067FM-13+007299999V0203201N009819999999N999999999+01101+99999100871ADDMD1410001+9999OD159901131999REMSYN068ROBN4 46/// /3219 10110 40087 54000 91900 333 91222 555 11017 22019=
0108997743999992023011820004+40650-074067FM-13+007299999V0203101N010319999999N999999999+01121+99999100931ADDMD1210111+9999OD159901181999REMSYN068ROBN4 46/// /3120 10112 40093 52011 92000 333 91223 555 11018 22020=
0088997743999992023011821004+40650-074067FM-13+007299999V0203001N011819999999N999999999+01121+99999101001ADDOD159901391999REMSYN062ROBN4 46/// /3023 10112 40100 92042 333 91227 555 11021 22023=
0108997743999992023011822004+40650-074067FM-13+007299999V0203101N008819999999N999999999+01091+99999101171ADDMD1310301+9999OD159900981999REMSYN068ROBN4 46/// /3117 10109 40117 53030 92200 333 91219 555 11016 22017=
0108997743999992023011823004+40650-074067FM-13+007299999V0203101N008219999999N999999999+01021+99999101271ADDMD1110341+9999OD159901081999REMSYN068ROBN4 46/// /3116 10102 40127 51034 92300 333 91221 555 11015 22016=
0108997743999992023011900004+40650-074067FM-13+007299999V0203101N009319999999N999999999+00991+99999101361ADDMD1110301+9999OD159901241999REMSYN068ROBN4 46/// /3118 10099 40136 51030 90000 333 91224 555 11016 22018=
0108997743999992023011901004+40650-074067FM-13+007299999V0202801N007219999999N999999999+00911+99999101451ADDMD1110281+9999OD159900721999REMSYN068ROBN4 46/// /2814 10091 40145 51028 90100 333 91214 555 11012 22014=
0108997743999992023011902004+40650-074067FM-13+007299999V0202701N004119999999N999999999+00831+99999101481ADDMD1110211+9999OD159900511999REMSYN068ROBN4 46/// /2708 10083 40148 51021 90200 333 91210 555 11008 22008=
0108997743999992023011903004+40650-074067FM-13+007299999V0203101N003619999999N999999999+00781+99999101551ADDMD1110191+9999OD159900511999REMSYN068ROBN4 46/// /3107 10078 40155 51019 90300 333 91210 555 11007 22007=
0108997743999992023011904004+40650-074067FM-13+007299999V0203101N005719999999N999999999+00801+99999101591ADDMD1310141+9999OD159900621999REMSYN068ROBN4 46/// /3111 10080 40159 53014 90400 333 91212 555 11010 22011=
0108997743999992023011905004+40650-074067FM-13+007299999V0202901N002619999999N999999999+00661+99999101581ADDMD1110101+9999OD159900311999REMSYN068ROBN4 46/// /2905 10066 40158 51010 90500 333 91206 555 11004 22005=
0108997743999992023011906004+40650-074067FM-13+007299999V0203301N002619999999N999999999+00681+99999101581ADDMD1110031+9999OD159900361999REMSYN068ROBN4 46/// /3305 10068 40158 51003 90600 333 91207 555 11005 22005=
0108997743999992023011907004+40650-074067FM-13+007299999V0202701N004119999999N999999999+00581+99999101651ADDMD1310061+9999OD159900411999REMSYN068ROBN4 46/// /2708 10058 40165 53006 90700 333 91208 555 11007 22008=
0108997743999992023011908004+40650-074067FM-13+007299999V0203201N002119999999N999999999+00531+99999101631ADDMD1210051+9999OD159900261999REMSYN068ROBN4 46/// /3204 10053 40163 52005 90800 333 91205 555 11004 22004=
0108997743999992023011909004+40650-074067FM-13+007299999V0202901N004119999999N999999999+00501+99999101641ADDMD1110061+9999OD159900411999REMSYN068ROBN4 46/// /2908 10050 40164 51006 90900 333 91208 555 11007 22008=
0088997743999992023011910004+40650-074067FM-13+007299999V0203301N002119999999N999999999+00511+99999101611ADDOD159900261999REMSYN062ROBN4 46/// /3304 10051 40161 90948 333 91205 555 11004 22004=
0108997743999992023011911004+40650-074067FM-13+007299999V0202901N001519999999N999999999+00551+99999101741ADDMD1310111+9999OD159900211999REMSYN068ROBN4 46/// /2903 10055 40174 53011 91100 333 91204 555 11003 22003=
0108997743999992023011912004+40650-074067FM-13+007299999V0202801N000519999999N999999999+00531+99999101741ADDMD1310101+9999OD159900051999REMSYN068ROBN4 46/// /2801 10053 40174 53010 91200 333 91201 555 11001 22001=
0108997743999992023011913004+40650-074067FM-13+007299999V0202701N002119999999N999999999+00551+99999101741ADDMD1110131+9999OD159900261999REMSYN068ROBN4 46/// /2704 10055 40174 51013 91300 333 91205 555 11003 22004=
0108997743999992023011914004+40650-074067FM-13+007299999V0202601N000519999999N999999999+00531+99999101731ADDMD1410001+9999OD159900101999REMSYN068ROBN4 46/// /2601 10053 40173 54000 91400 333 91202 555 11001 22001=
0108997743999992023011915004+40650-074067FM-13+007299999V0200501N002119999999N999999999+00471+99999101601ADDMD1810141+9999OD159900261999REMSYN068ROBN4 46/// /0504 10047 40160 58014 91500 333 91205 555 11004 22004=
0108997743999992023011916004+40650-074067FM-13+007299999V0201501N004619999999N999999999+00511+99999101591ADDMD1710151+9999OD159900621999REMSYN068ROBN4 46/// /1509 10051 40159 57015 91600 333 91212 555 11008 22009=
0108997743999992023011917004+40650-074067FM-13+007299999V0201101N003619999999N999999999+00511+99999101441ADDMD1810291+9999OD159900411999REMSYN068ROBN4 46/// /1107 10051 40144 58029 91700 333 91208 555 11006 22007=
0108997743999992023011918004+40650-074067FM-13+007299999V0201301N004619999999N999999999+00481+99999101261ADDMD1810341+9999OD159900571999REMSYN068ROBN4 46/// /1309 10048 40126 58034 91800 333 91211 555 11008 22009=
0108997743999992023011919004+40650-074067FM-13+007299999V0201301N005719999999N999999999+00491+99999101151ADDMD1610441+9999OD159900621999REMSYN068ROBN4 46/// /1311 10049 40115 56044 91900 333 91212 555 11010 22010=
0108997743999992023011920004+40650-074067FM-13+007299999V0200701N004119999999N999999999+00481+99999101151ADDMD1610291+9999OD159900511999REMSYN068ROBN4 46/// /0708 10048 40115 56029 92000 333 91210 555 11008 22008=
0108997743999992023011921004+40650-074067FM-13+007299999V0200801N006719999999N999999999+00541+99999101011ADDMD1810251+9999OD159900721999REMSYN068ROBN4 46/// /0813 10054 40101 58025 92100 333 91214 555 11012 22013=
0108997743999992023011922004+40650-074067FM-13+007299999V0201001N006719999999N999999999+00541+99999100851ADDMD1810301+9999OD159900771999REMSYN068ROBN4 46/// /1013 10054 40085 58030 92200 333 91215 555 11012 22013=
0108997743999992023011923004+40650-074067FM-13+007299999V0200901N007219999999N999999999+00541+99999100711ADDMD1710441+9999OD159900821999REMSYN068ROBN4 46/// /0914 10054 40071 57044 92300 333 91216 555 11013 22014=
0108997743999992023012000004+40650-074067FM-13+007299999V0200901N004619999999N999999999+00571+99999100601ADDMD1610411+9999OD159900571999REMSYN068ROBN4 46/// /0909 10057 40060 56041 90000 333 91211 555 11008 22009=
0108997743999992023012001004+40650-074067FM-13+007299999V0200601N003619999999N999999999+00601+99999100381ADDMD1810471+9999OD159900411999REMSYN068ROBN4 46/// /0607 10060 40038 58047 90100 333 91208 555 11006 22007=
0108997743999992023012002004+40650-074067FM-13+007299999V0203501N006219999999N999999999+00541+99999100161ADDMD1810551+9999OD159900671999REMSYN068ROBN4 46/// /3512 10054 40016 58055 90200 333 91213 555 11011 22012=
0108997743999992023012003004+40650-074067FM-13+007299999V0203501N007219999999N999999999+00471+99999100271ADDMD1510331+9999OD159900881999REMSYN068ROBN4 46/// /3514 10047 40027 55033 90300 333 91217 555 11013 22014=
0108997743999992023012004004+40650-074067FM-13+007299999V0200401N004119999999N999999999+00571+99999100121ADDMD1610261+9999OD159900461999REMSYN068ROBN4 46/// /0408 10057 40012 56026 90400 333 91209 555 11008 22008=
0108997743999992023012005004+40650-074067FM-13+007299999V0203201N003119999999N999999999+00491+99999100131ADDMD1810031+9999OD159900461999REMSYN068ROBN4 46/// /3206 10049 40013 58003 90500 333 91209 555 11005 22006=
0108997743999992023012006004+40650-074067FM-13+007299999V0203501N003619999999N999999999+00511+99999100111ADDMD1610161+9999OD159900411999REMSYN068ROBN4 46/// /3507 10051 40011 56016 90600 333 91208 555 11006 22007=
0108997743999992023012007004+40650-074067FM-13+007299999V0203401N001019999999N999999999+00551+99999100221ADDMD1310101+9999OD159900151999REMSYN068ROBN4 46/// /3402 10055 40022 53010 90700 333 91203 555 11002 22002=
0108997743999992023012008004+40650-074067FM-13+007299999V0203201N003119999999N999999999+00521+99999100221ADDMD1210091+9999OD159900411999REMSYN068ROBN4 46/// /3206 10052 40022 52009 90800 333 91208 555 11006 22006=
0108997743999992023012009004+40650-074067FM-13+007299999V0203001N003119999999N999999999+00521+99999100261ADDMD1110151+9999OD159900361999REMSYN068ROBN4 46/// /3006 10052 40026 51015 90900 333 91207 555 11005 22006=
0108997743999992023012010004+40650-074067FM-13+007299999V0202901N003119999999N999999999+00501+99999100251ADDMD1210031+9999OD159900361999REMSYN068ROBN4 46/// /2906 10050 40025 52003 91000 333 91207 555 11006 22006=
0108997743999992023012011004+40650-074067FM-13+007299999V0202701N003619999999N999999999+00461+99999100271ADDMD1110051+9999OD159900511999REMSYN068ROBN4 46/// /2707 10046 40027 51005 91100 333 91210 555 11006 22007=
0088997743999992023012012004+40650-074067FM-13+007299999V0202801N004119999999N999999999+00511+99999100281ADDOD159900461999REMSYN062ROBN4 46/// /2808 10051 40028 91148 333 91209 555 11007 22008=
0108997743999992023012013004+40650-074067FM-13+007299999V0203001N007719999999N999999999+00691+99999100301ADDMD1210051+9999OD159901031999REMSYN068ROBN4 46/// /3015 10069 40030 52005 91300 333 91220 555 11014 22015=
0108997743999992023012014004+40650-074067FM-13+007299999V0202801N008819999999N999999999+00691+99999100341ADDMD1310071+9999OD159900981999REMSYN068ROBN4 46/// /2817 10069 40034 53007 91400 333 91219 555 11015 22016=
0108997743999992023012015004+40650-074067FM-13+007299999V0202801N009819999999N999999999+00771+99999100391ADDMD1310111+9999OD159901241999REMSYN068ROBN4 46/// /2819 10077 40039 53011 91500 333 91224 555 11017 22019=
0088997743999992023012016004+40650-074067FM-13+007299999V0202901N009819999999N999999999+00831+99999100391ADDOD159901491999REMSYN062ROBN4 46/// /2919 10083 40039 91542 333 91229 555 11018 22019=
0108997743999992023012017004+40650-074067FM-13+007299999V0203001N011319999999N999999999+00861+99999100371ADDMD1210031+9999OD159901601999REMSYN068ROBN4 46/// /3022 10086 40037 52003 91700 333 91231 555 11020 22022=
0108997743999992023012018004+40650-074067FM-13+007299999V0202901N011819999999N999999999+00801+99999100411ADDMD1410001+9999OD159901491999REMSYN068ROBN4 46/// /2923 10080 40041 54000 91800 333 91229 555 11021 22023=
0088997743999992023012019004+40650-074067FM-13+007299999V0202901N011819999999N999999999+00791+99999100461ADDOD159901601999REMSYN062ROBN4 46/// /2923 10079 40046 91836 333 91231 555 11021 22023=
0108997743999992023012020004+40650-074067FM-13+007299999V0202901N011819999999N999999999+00821+99999100551ADDMD1210181+9999OD159901541999REMSYN068ROBN4 46/// /2923 10082 40055 52018 92000 333 91230 555 11021 22023=
0108997743999992023012021004+40650-074067FM-13+007299999V0202901N013919999999N999999999+00821+99999100651ADDMD1210241+9999OD159901541999REMSYN068ROBN4 46/// /2927 10082 40065 52024 92100 333 91230 555 11025 22027=
0088997743999992023012022004+40650-074067FM-13+007299999V0203001N011319999999N999999999+00811+99999100741ADDOD159901491999REMSYN062ROBN4 46/// /3022 10081 40074 92136 333 91229 555 11020 22021=
