0128997779999992021010100004+39300-075367FM-13+000399999V0203301N007219999999N999999999+00491+99999102681ADDMD1210291+9999OD159900771999SA1+0471REMSYN080SJSN4 46/// /3314 10049 40268 52029 90000 222// 00047 333 91215 555 11013 22014=
0108997779999992021010101004+39300-075367FM-13+000399999V0203301N005719999999N999999999+00491+99999102761ADDOD159900621999SA1+0471REMSYN074SJSN4 46/// /3311 10049 40276 90042 222// 00047 333 91212 555 11011 22012=
0108997779999992021010102004+39300-075367FM-13+000399999V0203301N006719999999N999999999+00501+99999102801ADDOD159900721999SA1+0471REMSYN074SJSN4 46/// /3313 10050 40280 90136 222// 00047 333 91214 555 11012 22014=
0108997779999992021010103004+39300-075367FM-13+000399999V0203401N005119999999N999999999+00481+99999102901ADDOD159900571999SA1+0461REMSYN074SJSN4 46/// /3410 10048 40290 90242 222// 00046 333 91211 555 11010 22011=
0108997779999992021010104004+39300-075367FM-13+000399999V0203501N005119999999N999999999+00451+99999102981ADDOD159900621999SA1+0461REMSYN074SJSN4 46/// /3510 10045 40298 90342 222// 00046 333 91212 555 11010 22010=
0108997779999992021010105004+39300-075367FM-13+000399999V0200101N004619999999N999999999+00351+99999103021ADDOD159900571999SA1+0471REMSYN074SJSN4 46/// /0109 10035 40302 90500 222// 00047 333 91211 555 11009 22010=
0108997779999992021010106004+39300-075367FM-13+000399999V0200101N003619999999N999999999+00251+99999103151ADDOD159900411999SA1+0461REMSYN074SJSN4 46/// /0107 10025 40315 90624 222// 00046 333 91208 555 11007 22007=
0108997779999992021010107004+39300-075367FM-13+000399999V0200101N003619999999N999999999+00231+99999103181ADDOD159900411999SA1+0461REMSYN074SJSN4 46/// /0107 10023 40318 90700 222// 00046 333 91208 555 11007 22008=
0108997779999992021010108004+39300-075367FM-13+000399999V0200101N004119999999N999999999+99999+99999103221ADDOD159900511999SA1+0451REMSYN074SJSN4 46/// /0108 1//// 40322 90824 222// 00045 333 91210 555 11008 22009=
0108997779999992021010109004+39300-075367FM-13+000399999V0200101N004619999999N999999999+00131+99999103191ADDOD159900511999SA1+0451REMSYN074SJSN4 46/// /0109 10013 40319 90854 222// 00045 333 91210 555 11008 22009=
0108997779999992021010110004+39300-075367FM-13+000399999V0200201N005719999999N999999999+00101+99999103251ADDOD159900671999SA1+0451REMSYN074SJSN4 46/// /0211 10010 40325 91012 222// 00045 333 91213 555 11010 22011=
0108997779999992021010111004+39300-075367FM-13+000399999V0200201N006219999999N999999999+00091+99999103231ADDOD159900671999SA1+0451REMSYN074SJSN4 46/// /0212 10009 40323 91036 222// 00045 333 91213 555 11011 22012=
0108997779999992021010112004+39300-075367FM-13+000399999V0200301N006219999999N999999999+00071+99999103271ADDOD159900771999SA1+0451REMSYN074SJSN4 46/// /0312 10007 40327 91136 222// 00045 333 91215 555 11011 22012=
0108997779999992021010113004+39300-075367FM-13+000399999V0200301N005719999999N999999999+00071+99999103331ADDOD159900671999SA1+0441REMSYN074SJSN4 46/// /0311 10007 40333 91248 222// 00044 333 91213 555 11011 22012=
0108997779999992021010114004+39300-075367FM-13+000399999V0200401N005719999999N999999999+00111+99999103341ADDOD159900621999SA1+0441REMSYN074SJSN4 46/// /0411 10011 40334 91342 222// 00044 333 91212 555 11011 22012=
0108997779999992021010115004+39300-075367FM-13+000399999V0200501N004119999999N999999999+00201+99999103411ADDOD159900511999SA1+0451REMSYN074SJSN4 46/// /0508 10020 40341 91442 222// 00045 333 91210 555 11008 22009=
0128997779999992021010116004+39300-075367FM-13+000399999V0200501N005119999999N999999999+00291+99999103221ADDMD1810081+9999OD159900621999SA1+0451REMSYN080SJSN4 46/// /0510 10029 40322 58008 91600 222// 00045 333 91212 555 11010 22011=
0108997779999992021010117004+39300-075367FM-13+000399999V0200501N004619999999N999999999+00341+99999103111ADDOD159900571999SA1+0451REMSYN074SJSN4 46/// /0509 10034 40311 91642 222// 00045 333 91211 555 11008 22009=
0128997779999992021010118004+39300-075367FM-13+000399999V0200601N003619999999N999999999+00361+99999102921ADDMD1710431+9999OD159900411999SA1+0451REMSYN080SJSN4 46/// /0607 10036 40292 57043 91800 222// 00045 333 91208 555 11007 22007=
0128997779999992021010119004+39300-075367FM-13+000399999V0200501N003119999999N999999999+00361+99999102881ADDMD1710341+9999OD159900361999SA1+0451REMSYN080SJSN4 46/// /0506 10036 40288 57034 91900 222// 00045 333 91207 555 11006 22006=
0108997779999992021010120004+39300-075367FM-13+000399999V0200401N005719999999N999999999+00361+99999102771ADDOD159900621999SA1+0451REMSYN074SJSN4 46/// /0411 10036 40277 91936 222// 00045 333 91212 555 11010 22011=
0128997779999992021010121004+39300-075367FM-13+000399999V0200401N005719999999N999999999+00391+99999102681ADDMD1610241+9999OD159900621999SA1+0451REMSYN080SJSN4 46/// /0411 10039 40268 56024 92100 222// 00045 333 91212 555 11010 22011=
0108997779999992021010122004+39300-075367FM-13+000399999V0200501N005719999999N999999999+00371+99999102561ADDOD159900621999SA1+0451REMSYN074SJSN4 46/// /0511 10037 40256 92206 222// 00045 333 91212 555 11010 22011=
0128997779999992021010123004+39300-075367FM-13+000399999V0200601N005119999999N999999999+00411+99999102371ADDMD1710321+9999OD159900671999SA1+0451REMSYN080SJSN4 46/// /0610 10041 40237 57032 92300 222// 00045 333 91213 555 11009 22010=
0128997779999992021010200004+39300-075367FM-13+000399999V0200801N003619999999N999999999+00471+99999102211ADDMD1710471+9999OD159900461999SA1+0451REMSYN080SJSN4 46/// /0807 10047 40221 57047 90000 222// 00045 333 91209 555 11007 22007=
0108997779999992021010201004+39300-075367FM-13+000399999V0200801N003119999999N999999999+00511+99999102061ADDOD159900511999SA1+0451REMSYN074SJSN4 46/// /0806 10051 40206 90042 222// 00045 333 91210 555 11006 22006=
0088997779999992021010202004+39300-075367FM-13+000399999V0209999C000019999999N999999999+00541+99999101971ADDMD1610401+9999SA1+0451REMSYN054SJSN4 46/// ///// 10054 40197 56040 90200 222// 00045=
0108997779999992021010203004+39300-075367FM-13+000399999V0203201N008219999999N999999999+00411+99999101941ADDMD1610271+9999OD159901131999REMSYN068SJSN4 46/// /3216 10041 40194 56027 90300 333 91222 555 11015 22017=
0128997779999992021010204004+39300-075367FM-13+000399999V0201001N006719999999N999999999+00461+99999101391ADDMD1810591+9999OD159900881999SA1+0451REMSYN080SJSN4 46/// /1013 10046 40139 58059 90400 222// 00045 333 91217 555 11013 22014=
0128997779999992021010205004+39300-075367FM-13+000399999V0203101N004119999999N999999999+99999+99999101361ADDMD1710611+9999OD159900461999SA1+0451REMSYN080SJSN4 46/// /3108 1//// 40136 57061 90500 222// 00045 333 91209 555 11007 22008=
0128997779999992021010206004+39300-075367FM-13+000399999V0202801N006219999999N999999999+00481+99999101261ADDMD1610681+9999OD159900621999SA1+0451REMSYN080SJSN4 46/// /2812 10048 40126 56068 90600 222// 00045 333 91212 555 11011 22012=
0128997779999992021010207004+39300-075367FM-13+000399999V0202801N004119999999N999999999+00451+99999101231ADDMD1710161+9999OD159900461999SA1+0461REMSYN080SJSN4 46/// /2808 10045 40123 57016 90700 222// 00046 333 91209 555 11008 22009=
0128997779999992021010208004+39300-075367FM-13+000399999V0202301N004119999999N999999999+00421+99999101181ADDMD1610181+9999OD159900461999SA1+0461REMSYN080SJSN4 46/// /2308 10042 40118 56018 90800 222// 00046 333 91209 555 11007 22008=
0128997779999992021010209004+39300-075367FM-13+000399999V0201901N003119999999N999999999+00431+99999101011ADDMD1810251+9999OD159900311999SA1+0451REMSYN080SJSN4 46/// /1906 10043 40101 58025 90900 222// 00045 333 91206 555 11006 22006=
0128997779999992021010210004+39300-075367FM-13+000399999V0202101N002619999999N999999999+00441+99999101011ADDMD1610221+9999OD159900261999SA1+0451REMSYN080SJSN4 46/// /2105 10044 40101 56022 91000 222// 00045 333 91205 555 11004 22005=
0128997779999992021010211004+39300-075367FM-13+000399999V0202401N004619999999N999999999+00461+99999101031ADDMD1610151+9999OD159900571999SA1+0461REMSYN080SJSN4 46/// /2409 10046 40103 56015 91100 222// 00046 333 91211 555 11009 22009=
0128997779999992021010212004+39300-075367FM-13+000399999V0202601N007719999999N999999999+00461+99999101191ADDMD1310181+9999OD159900981999SA1+0461REMSYN080SJSN4 46/// /2615 10046 40119 53018 91200 222// 00046 333 91219 555 11015 22016=
0108997779999992021010213004+39300-075367FM-13+000399999V0202401N006719999999N999999999+00461+99999101221ADDOD159900821999SA1+0461REMSYN074SJSN4 46/// /2413 10046 40122 91236 222// 00046 333 91216 555 11013 22014=
0128997779999992021010214004+39300-075367FM-13+000399999V0202601N005119999999N999999999+00471+99999101281ADDMD1210251+9999OD159900571999SA1+0461REMSYN080SJSN4 46/// /2610 10047 40128 52025 91400 222// 00046 333 91211 555 11010 22011=
0128997779999992021010215004+39300-075367FM-13+000399999V0202601N005119999999N999999999+00511+99999101331ADDMD1210141+9999OD159900571999SA1+0461REMSYN080SJSN4 46/// /2610 10051 40133 52014 91500 222// 00046 333 91211 555 11009 22010=
0108997779999992021010216004+39300-075367FM-13+000399999V0203001N006219999999N999999999+00591+99999101371ADDOD159900671999SA1+0461REMSYN074SJSN4 46/// /3012 10059 40137 91554 222// 00046 333 91213 555 11012 22013=
0128997779999992021010217004+39300-075367FM-13+000399999V0202901N008219999999N999999999+00911+99999101341ADDMD1990061+9999OD159900931999SA1+0471REMSYN080SJSN4 46/// /2916 10091 40134 50006 91700 222// 00047 333 91218 555 11015 22017=
0128997779999992021010218004+39300-075367FM-13+000399999V0202801N009319999999N999999999+01021+99999101351ADDMD1990001+9999OD159901131999SA1+0471REMSYN080SJSN4 46/// /2818 10102 40135 50000 91800 222// 00047 333 91222 555 11017 22019=
0128997779999992021010219004+39300-075367FM-13+000399999V0202701N011319999999N999999999+01071+99999101411ADDMD1310041+9999OD159901181999SA1+0471REMSYN080SJSN4 46/// /2722 10107 40141 53004 91900 222// 00047 333 91223 555 11021 22022=
0128997779999992021010220004+39300-075367FM-13+000399999V0203001N008219999999N999999999+00911+99999101531ADDMD1310191+9999OD159900931999SA1+0481REMSYN080SJSN4 46/// /3016 10091 40153 53019 92000 222// 00048 333 91218 555 11016 22017=
0128997779999992021010221004+39300-075367FM-13+000399999V0203001N007719999999N999999999+00851+99999101661ADDMD1310311+9999OD159900931999SA1+0491REMSYN080SJSN4 46/// /3015 10085 40166 53031 92100 222// 00049 333 91218 555 11014 22015=
0128997779999992021010222004+39300-075367FM-13+000399999V0203201N009319999999N999999999+00841+99999101751ADDMD1110341+9999OD159901081999SA1+0481REMSYN080SJSN4 46/// /3218 10084 40175 51034 92200 222// 00048 333 91221 555 11017 22019=
0128997779999992021010223004+39300-075367FM-13+000399999V0203301N006719999999N999999999+00761+99999101861ADDMD1110331+9999OD159900931999SA1+0481REMSYN080SJSN4 46/// /3313 10076 40186 51033 92300 222// 00048 333 91218 555 11013 22014=
0128997779999992021010300004+39300-075367FM-13+000399999V0203301N008819999999N999999999+00761+99999101881ADDMD1110221+9999OD159900981999SA1+0471REMSYN080SJSN4 46/// /3317 10076 40188 51022 90000 222// 00047 333 91219 555 11016 22017=
0128997779999992021010301004+39300-075367FM-13+000399999V0203201N006219999999N999999999+00681+99999101931ADDMD1110181+9999OD159900721999SA1+0471REMSYN080SJSN4 46/// /3212 10068 40193 51018 90100 222// 00047 333 91214 555 11012 22013=
0128997779999992021010302004+39300-075367FM-13+000399999V0203401N004119999999N999999999+00591+99999101981ADDMD1310121+9999OD159900461999SA1+0471REMSYN080SJSN4 46/// /3408 10059 40198 53012 90200 222// 00047 333 91209 555 11008 22009=
0128997779999992021010303004+39300-075367FM-13+000399999V0203401N004119999999N999999999+00571+99999101971ADDMD1110091+9999OD159900461999SA1+0471REMSYN080SJSN4 46/// /3408 10057 40197 51009 90300 222// 00047 333 91209 555 11008 22008=
0128997779999992021010304004+39300-075367FM-13+000399999V0200101N002619999999N999999999+00581+99999102031ADDMD1310101+9999OD159900261999SA1+0471REMSYN080SJSN4 46/// /0105 10058 40203 53010 90400 222// 00047 333 91205 555 11004 22005=
0128997779999992021010305004+39300-075367FM-13+000399999V0200301N005119999999N999999999+00511+99999101921ADDMD1810061+9999OD159900621999SA1+0471REMSYN080SJSN4 46/// /0310 10051 40192 58006 90500 222// 00047 333 91212 555 11010 22011=
0128997779999992021010306004+39300-075367FM-13+000399999V0200301N004119999999N999999999+00461+99999101891ADDMD1810081+9999OD159900511999SA1+0471REMSYN080SJSN4 46/// /0308 10046 40189 58008 90600 222// 00047 333 91210 555 11007 22008=
0128997779999992021010307004+39300-075367FM-13+000399999V0200401N004619999999N999999999+00421+99999101951ADDMD1510081+9999OD159900571999SA1+0471REMSYN080SJSN4 46/// /0409 10042 40195 55008 90700 222// 00047 333 91211 555 11008 22009=
0108997779999992021010308004+39300-075367FM-13+000399999V0200401N005119999999N999999999+00401+99999101951ADDOD159900571999SA1+0471REMSYN074SJSN4 46/// /0410 10040 40195 90736 222// 00047 333 91211 555 11010 22010=
0128997779999992021010309004+39300-075367FM-13+000399999V0200701N003619999999N999999999+00341+99999101811ADDMD1710081+9999OD159900461999SA1+0471REMSYN080SJSN4 46/// /0707 10034 40181 57008 90900 222// 00047 333 91209 555 11007 22007=
0128997779999992021010310004+39300-075367FM-13+000399999V0200501N003619999999N999999999+00351+99999101821ADDMD1710131+9999OD159900461999SA1+0471REMSYN080SJSN4 46/// /0507 10035 40182 57013 91000 222// 00047 333 91209 555 11007 22007=
0108997779999992021010311004+39300-075367FM-13+000399999V0200301N002619999999N999999999+00361+99999101921ADDOD159900311999SA1+0461REMSYN074SJSN4 46/// /0305 10036 40192 91036 222// 00046 333 91206 555 11005 22005=
0128997779999992021010312004+39300-075367FM-13+000399999V0200501N003619999999N999999999+00301+99999101891ADDMD1310081+9999OD159900511999SA1+0471REMSYN080SJSN4 46/// /0507 10030 40189 53008 91200 222// 00047 333 91210 555 11007 22007=
0128997779999992021010313004+39300-075367FM-13+000399999V0200601N004619999999N999999999+00321+99999101801ADDMD1990001+9999OD159900511999SA1+0471REMSYN080SJSN4 46/// /0609 10032 40180 50000 91300 222// 00047 333 91210 555 11008 22009=
0128997779999992021010314004+39300-075367FM-13+000399999V0200101N005119999999N999999999+00351+99999101771ADDMD1810041+9999OD159900571999SA1+0461REMSYN080SJSN4 46/// /0110 10035 40177 58004 91400 222// 00046 333 91211 555 11009 22010=
0128997779999992021010315004+39300-075367FM-13+000399999V0200501N005119999999N999999999+00411+99999101691ADDMD1610201+9999OD159900671999SA1+0461REMSYN080SJSN4 46/// /0510 10041 40169 56020 91500 222// 00046 333 91213 555 11010 22011=
0128997779999992021010316004+39300-075367FM-13+000399999V0200501N006219999999N999999999+99999+99999101491ADDMD1810311+9999OD159900821999SA1+0471REMSYN080SJSN4 46/// /0512 1//// 40149 58031 91600 222// 00047 333 91216 555 11012 22013=
0128997779999992021010317004+39300-075367FM-13+000399999V0200501N007219999999N999999999+00591+99999101321ADDMD1810451+9999OD159900821999SA1+0471REMSYN080SJSN4 46/// /0514 10059 40132 58045 91700 222// 00047 333 91216 555 11013 22014=
0128997779999992021010318004+39300-075367FM-13+000399999V0200401N007219999999N999999999+00601+99999101211ADDMD1610481+9999OD159900771999SA1+0481REMSYN080SJSN4 46/// /0414 10060 40121 56048 91800 222// 00048 333 91215 555 11013 22014=
0128997779999992021010319004+39300-075367FM-13+000399999V0200401N007219999999N999999999+00591+99999101161ADDMD1610331+9999OD159900771999SA1+0481REMSYN080SJSN4 46/// /0414 10059 40116 56033 91900 222// 00048 333 91215 555 11013 22014=
0128997779999992021010320004+39300-075367FM-13+000399999V0200201N004619999999N999999999+00561+99999101211ADDMD1510111+9999OD159900621999SA1+0481REMSYN080SJSN4 46/// /0209 10056 40121 55011 92000 222// 00048 333 91212 555 11009 22010=
0128997779999992021010321004+39300-075367FM-13+000399999V0200101N004119999999N999999999+00551+99999101211ADDMD1510001+9999OD159900461999SA1+0481REMSYN080SJSN4 46/// /0108 10055 40121 55000 92100 222// 00048 333 91209 555 11007 22008=
0128997779999992021010322004+39300-075367FM-13+000399999V0203301N006719999999N999999999+00501+99999101261ADDMD1210101+9999OD159900721999SA1+0481REMSYN080SJSN4 46/// /3313 10050 40126 52010 92200 222// 00048 333 91214 555 11012 22014=
0128997779999992021010323004+39300-075367FM-13+000399999V0203201N009819999999N999999999+00401+99999101311ADDMD1310101+9999OD159901081999SA1+0481REMSYN080SJSN4 46/// /3219 10040 40131 53010 92300 222// 00048 333 91221 555 11018 22020=
0128997779999992021010400004+39300-075367FM-13+000399999V0203601N005719999999N999999999+00391+99999101301ADDMD1110091+9999OD159900621999SA1+0481REMSYN080SJSN4 46/// /3611 10039 40130 51009 90000 222// 00048 333 91212 555 11011 22012=
0128997779999992021010401004+39300-075367FM-13+000399999V0203301N006219999999N999999999+00381+99999101351ADDMD1210091+9999OD159900671999SA1+0481REMSYN080SJSN4 46/// /3312 10038 40135 52009 90100 222// 00048 333 91213 555 11012 22013=
0128997779999992021010402004+39300-075367FM-13+000399999V0203301N007219999999N999999999+00361+99999101361ADDMD1210051+9999OD159900771999SA1+0481REMSYN080SJSN4 46/// /3314 10036 40136 52005 90200 222// 00048 333 91215 555 11013 22014=
0128997779999992021010403004+39300-075367FM-13+000399999V0203401N006219999999N999999999+00351+99999101391ADDMD1110091+9999OD159900721999SA1+0491REMSYN080SJSN4 46/// /3412 10035 40139 51009 90300 222// 00049 333 91214 555 11012 22013=
0128997779999992021010404004+39300-075367FM-13+000399999V0203201N006219999999N999999999+00381+99999101411ADDMD1210061+9999OD159900821999SA1+0491REMSYN080SJSN4 46/// /3212 10038 40141 52006 90400 222// 00049 333 91216 555 11012 22013=
0128997779999992021010405004+39300-075367FM-13+000399999V0203301N006719999999N999999999+00351+99999101421ADDMD1110061+9999OD159900721999SA1+0471REMSYN080SJSN4 46/// /3313 10035 40142 51006 90500 222// 00047 333 91214 555 11012 22014=
0128997779999992021010406004+39300-075367FM-13+000399999V0203201N007719999999N999999999+00331+99999101431ADDMD1210041+9999OD159900881999SA1+0481REMSYN080SJSN4 46/// /3215 10033 40143 52004 90600 222// 00048 333 91217 555 11015 22016=
0128997779999992021010407004+39300-075367FM-13+000399999V0203401N007219999999N999999999+00301+99999101451ADDMD1210041+9999OD159900821999SA1+0481REMSYN080SJSN4 46/// /3414 10030 40145 52004 90700 222// 00048 333 91216 555 11014 22015=
0128997779999992021010408004+39300-075367FM-13+000399999V0203401N005719999999N999999999+00281+99999101481ADDMD1310061+9999OD159900671999SA1+0481REMSYN080SJSN4 46/// /3411 10028 40148 53006 90800 222// 00048 333 91213 555 11011 22012=
0128997779999992021010409004+39300-075367FM-13+000399999V0203401N006219999999N999999999+00281+99999101461ADDMD1210031+9999OD159900671999SA1+0481REMSYN080SJSN4 46/// /3412 10028 40146 52003 90900 222// 00048 333 91213 555 11011 22012=
0128997779999992021010410004+39300-075367FM-13+000399999V0203401N006719999999N999999999+00291+99999101501ADDMD1310051+9999OD159900771999SA1+0481REMSYN080SJSN4 46/// /3413 10029 40150 53005 91000 222// 00048 333 91215 555 11012 22014=
0128997779999992021010411004+39300-075367FM-13+000399999V0203601N006219999999N999999999+00301+99999101541ADDMD1310061+9999OD159900721999SA1+0471REMSYN080SJSN4 46/// /3612 10030 40154 53006 91100 222// 00047 333 91214 555 11011 22012=
0108997779999992021010412004+39300-075367FM-13+000399999V0203501N004619999999N999999999+00291+99999101591ADDMD1310131+9999OD159900571999REMSYN068SJSN4 46/// /3509 10029 40159 53013 91200 333 91211 555 11008 22009=
0128997779999992021010413004+39300-075367FM-13+000399999V0203401N005119999999N999999999+00301+99999101661ADDMD1310161+9999OD159900621999SA1+0471REMSYN080SJSN4 46/// /3410 10030 40166 53016 91300 222// 00047 333 91212 555 11010 22010=
0128997779999992021010414004+39300-075367FM-13+000399999V0203301N005119999999N999999999+00301+99999101751ADDMD1310211+9999OD159900571999SA1+0481REMSYN080SJSN4 46/// /3310 10030 40175 53021 91400 222// 00048 333 91211 555 11009 22010=
0128997779999992021010415004+39300-075367FM-13+000399999V0203301N006219999999N999999999+00351+99999101731ADDMD1110141+9999OD159900671999SA1+0471REMSYN080SJSN4 46/// /3312 10035 40173 51014 91500 222// 00047 333 91213 555 11011 22012=
0128997779999992021010416004+39300-075367FM-13+000399999V0203401N005719999999N999999999+00381+99999101681ADDMD1990001+9999OD159900721999SA1+0481REMSYN080SJSN4 46/// /3411 10038 40168 50000 91600 222// 00048 333 91214 555 11011 22012=
0088997779999992021010417004+39300-075367FM-13+000399999V0209999C000019999999N999999999+00421+99999101621ADDMD1810131+9999SA1+0481REMSYN054SJSN4 46/// ///// 10042 40162 58013 91700 222// 00048=
0128997779999992021010418004+39300-075367FM-13+000399999V0203301N003119999999N999999999+00451+99999101561ADDMD1810171+9999OD159900361999SA1+0481REMSYN080SJSN4 46/// /3306 10045 40156 58017 91800 222// 00048 333 91207 555 11006 22006=
0128997779999992021010419004+39300-075367FM-13+000399999V0203401N003119999999N999999999+00491+99999101531ADDMD1610151+9999OD159900361999SA1+0491REMSYN080SJSN4 46/// /3406 10049 40153 56015 91900 222// 00049 333 91207 555 11005 22006=
0128997779999992021010420004+39300-075367FM-13+000399999V0203401N002619999999N999999999+00531+99999101531ADDMD1610091+9999OD159900261999SA1+0491REMSYN080SJSN4 46/// /3405 10053 40153 56009 92000 222// 00049 333 91205 555 11004 22005=
0128997779999992021010421004+39300-075367FM-13+000399999V0200101N002619999999N999999999+00551+99999101541ADDMD1510001+9999OD159900311999SA1+0491REMSYN080SJSN4 46/// /0105 10055 40154 55000 92100 222// 00049 333 91206 555 11005 22005=
0128997779999992021010422004+39300-075367FM-13+000399999V0203301N001519999999N999999999+00541+99999101551ADDMD1410001+9999OD159900151999SA1+0491REMSYN080SJSN4 46/// /3303 10054 40155 54000 92200 222// 00049 333 91203 555 11003 22003=
0128997779999992021010423004+39300-075367FM-13+000399999V0200201N002119999999N999999999+00541+99999101551ADDMD1410001+9999OD159900211999SA1+0491REMSYN080SJSN4 46/// /0204 10054 40155 54000 92300 222// 00049 333 91204 555 11004 22004=
0128997779999992021010500004+39300-075367FM-13+000399999V0203601N001019999999N999999999+00551+99999101581ADDMD1310041+9999OD159900101999SA1+0481REMSYN080SJSN4 46/// /3602 10055 40158 53004 90000 222// 00048 333 91202 555 11002 22002=
0088997779999992021010501004+39300-075367FM-13+000399999V0209999C000019999999N999999999+00511+99999101571ADDMD1410001+9999SA1+0491REMSYN054SJSN4 46/// ///// 10051 40157 54000 90100 222// 00049=
0128997779999992021010502004+39300-075367FM-13+000399999V0203101N001019999999N999999999+00481+99999101521ADDMD1810031+9999OD159900151999SA1+0491REMSYN080SJSN4 46/// /3102 10048 40152 58003 90200 222// 00049 333 91203 555 11002 22002=
0128997779999992021010503004+39300-075367FM-13+000399999V0203001N001519999999N999999999+00501+99999101501ADDMD1710081+9999OD159900151999SA1+0491REMSYN080SJSN4 46/// /3003 10050 40150 57008 90300 222// 00049 333 91203 555 11003 22003=
0128997779999992021010504004+39300-075367FM-13+000399999V0203101N001519999999N999999999+00501+99999101481ADDMD1610091+9999OD159900151999SA1+0501REMSYN080SJSN4 46/// /3103 10050 40148 56009 90400 222// 00050 333 91203 555 11003 22003=
0128997779999992021010505004+39300-075367FM-13+000399999V0203101N001519999999N999999999+00491+99999101421ADDMD1810101+9999OD159900151999SA1+0491REMSYN080SJSN4 46/// /3103 10049 40142 58010 90500 222// 00049 333 91203 555 11003 22003=
0108997779999992021010506004+39300-075367FM-13+000399999V0200201N001019999999N999999999+00491+99999101391ADDMD1810111+9999OD159900151999REMSYN068SJSN4 46/// /0202 10049 40139 58011 90600 333 91203 555 11002 22002=
0128997779999992021010507004+39300-075367FM-13+000399999V0209999C000019999999N999999999+00471+99999101401ADDMD1610081+9999OD159900051999SA1+0491REMSYN080SJSN4 46/// /0000 10047 40140 56008 90700 222// 00049 333 91201 555 11000 22000=
0128997779999992021010508004+39300-075367FM-13+000399999V0209999C000019999999N999999999+00471+99999101401ADDMD1510001+9999OD159900051999SA1+0491REMSYN080SJSN4 46/// /0000 10047 40140 55000 90800 222// 00049 333 91201 555 11000 22000=
0128997779999992021010509004+39300-075367FM-13+000399999V0200201N001519999999N999999999+00451+99999101361ADDMD1810031+9999OD159900211999SA1+0491REMSYN080SJSN4 46/// /0203 10045 40136 58003 90900 222// 00049 333 91204 555 11003 22003=
0128997779999992021010510004+39300-075367FM-13+000399999V0200301N002119999999N999999999+00431+99999101381ADDMD1410001+9999OD159900261999SA1+0491REMSYN080SJSN4 46/// /0304 10043 40138 54000 91000 222// 00049 333 91205 555 11004 22004=
0108997779999992021010511004+39300-075367FM-13+000399999V0200201N001019999999N999999999+00411+99999101401ADDOD159900101999SA1+0491REMSYN074SJSN4 46/// /0202 10041 40140 91042 222// 00049 333 91202 555 11002 22002=
0128997779999992021010512004+39300-075367FM-13+000399999V0209999C000019999999N999999999+00411+99999101411ADDMD1210051+9999OD159900001999SA1+0491REMSYN080SJSN4 46/// /0000 10041 40141 52005 91200 222// 00049 333 91200 555 11000 22000=
0088997779999992021010513004+39300-075367FM-13+000399999V0209999C000019999999N999999999+00421+99999101441ADDMD1210061+9999SA1+0491REMSYN054SJSN4 46/// ///// 10042 40144 52006 91300 222// 00049=
0108997779999992021010514004+39300-075367FM-13+000399999V0200201N001019999999N999999999+00411+99999101481ADDOD159900101999SA1+0491REMSYN074SJSN4 46/// /0202 10041 40148 91336 222// 00049 333 91202 555 11002 22002=
0128997779999992021010515004+39300-075367FM-13+000399999V0200201N002119999999N999999999+00421+99999101451ADDMD1110041+9999OD159900261999SA1+0491REMSYN080SJSN4 46/// /0204 10042 40145 51004 91500 222// 00049 333 91205 555 11004 22004=
0128997779999992021010516004+39300-075367FM-13+000399999V0203601N002619999999N999999999+00411+99999101381ADDMD1810061+9999OD159900311999SA1+0491REMSYN080SJSN4 46/// /3605 10041 40138 58006 91600 222// 00049 333 91206 555 11005 22005=
0128997779999992021010517004+39300-075367FM-13+000399999V0203001N001019999999N999999999+99999+99999101311ADDMD1810161+9999OD159900151999SA1+0491REMSYN080SJSN4 46/// /3002 1//// 40131 58016 91700 222// 00049 333 91203 555 11002 22002=
0128997779999992021010518004+39300-075367FM-13+000399999V0203201N002619999999N999999999+00411+99999101251ADDMD1610201+9999OD159900311999SA1+0491REMSYN080SJSN4 46/// /3205 10041 40125 56020 91800 222// 00049 333 91206 555 11005 22005=
0128997779999992021010519004+39300-075367FM-13+000399999V0203101N003619999999N999999999+00451+99999101251ADDMD1610131+9999OD159900411999SA1+0501REMSYN080SJSN4 46/// /3107 10045 40125 56013 91900 222// 00050 333 91208 555 11007 22007=
0128997779999992021010520004+39300-075367FM-13+000399999V0203201N003619999999N999999999+00491+99999101261ADDMD1610051+9999OD159900361999SA1+0501REMSYN080SJSN4 46/// /3207 10049 40126 56005 92000 222// 00050 333 91207 555 11007 22007=
0128997779999992021010521004+39300-075367FM-13+000399999V0203201N004619999999N999999999+00481+99999101331ADDMD1310081+9999OD159900461999SA1+0501REMSYN080SJSN4 46/// /3209 10048 40133 53008 92100 222// 00050 333 91209 555 11008 22009=
0128997779999992021010522004+39300-075367FM-13+000399999V0203201N003619999999N999999999+00481+99999101411ADDMD1310161+9999OD159900411999SA1+0501REMSYN080SJSN4 46/// /3207 10048 40141 53016 92200 222// 00050 333 91208 555 11007 22008=
0128997779999992021010523004+39300-075367FM-13+000399999V0203001N004619999999N999999999+00481+99999101471ADDMD1110211+9999OD159900511999SA1+0501REMSYN080SJSN4 46/// /3009 10048 40147 51021 92300 222// 00050 333 91210 555 11009 22010=
0128997779999992021010600004+39300-075367FM-13+000399999V0203101N005119999999N999999999+00461+99999101501ADDMD1110171+9999OD159900571999SA1+0491REMSYN080SJSN4 46/// /3110 10046 40150 51017 90000 222// 00049 333 91211 555 11010 22010=
0088997779999992021010601004+39300-075367FM-13+000399999V0209999C000019999999N999999999+00441+99999101521ADDMD1110111+9999SA1+0491REMSYN054SJSN4 46/// ///// 10044 40152 51011 90100 222// 00049=
0108997779999992021010602004+39300-075367FM-13+000399999V0203001N005719999999N999999999+00451+99999101511ADDOD159900571999SA1+0491REMSYN074SJSN4 46/// /3011 10045 40151 90230 222// 00049 333 91211 555 11010 22011=
0128997779999992021010603004+39300-075367FM-13+000399999V0203001N005719999999N999999999+00441+99999101511ADDMD1410001+9999OD159900621999SA1+0491REMSYN080SJSN4 46/// /3011 10044 40151 54000 90300 222// 00049 333 91212 555 11010 22011=
0128997779999992021010604004+39300-075367FM-13+000399999V0203001N005719999999N999999999+00451+99999101511ADDMD1410001+9999OD159900671999SA1+0491REMSYN080SJSN4 46/// /3011 10045 40151 54000 90400 222// 00049 333 91213 555 11011 22012=
0108997779999992021010605004+39300-075367FM-13+000399999V0203201N007719999999N999999999+00471+99999101521ADDOD159900821999SA1+0501REMSYN074SJSN4 46/// /3215 10047 40152 90436 222// 00050 333 91216 555 11014 22015=
0128997779999992021010606004+39300-075367FM-13+000399999V0203001N007219999999N999999999+00411+99999101521ADDMD1410001+9999OD159900821999SA1+0501REMSYN080SJSN4 46/// /3014 10041 40152 54000 90600 222// 00050 333 91216 555 11013 22015=
0128997779999992021010607004+39300-075367FM-13+000399999V0203101N008819999999N999999999+00421+99999101551ADDMD1310041+9999OD159900981999SA1+0491REMSYN080SJSN4 46/// /3117 10042 40155 53004 90700 222// 00049 333 91219 555 11016 22018=
0088997779999992021010608004+39300-075367FM-13+000399999V0209999C000019999999N999999999+00431+99999101601ADDMD1310081+9999SA1+0491REMSYN054SJSN4 46/// ///// 10043 40160 53008 90800 222// 00049=
0128997779999992021010609004+39300-075367FM-13+000399999V0203201N009319999999N999999999+00421+99999101621ADDMD1110101+9999OD159901081999SA1+0501REMSYN080SJSN4 46/// /3218 10042 40162 51010 90900 222// 00050 333 91221 555 11017 22019=
0108997779999992021010610004+39300-075367FM-13+000399999V0203201N009819999999N999999999+00421+99999101631ADDMD1110081+9999OD159901081999REMSYN068SJSN4 46/// /3219 10042 40163 51008 91000 333 91221 555 11018 22019=
0108997779999992021010611004+39300-075367FM-13+000399999V0203201N009819999999N999999999+00411+99999101651ADDOD159901131999SA1+0501REMSYN074SJSN4 46/// /3219 10041 40165 91048 222// 00050 333 91222 555 11018 22020=
0128997779999992021010612004+39300-075367FM-13+000399999V0203101N009319999999N999999999+00421+99999101741ADDMD1210121+9999OD159901081999SA1+0491REMSYN080SJSN4 46/// /3118 10042 40174 52012 91200 222// 00049 333 91221 555 11017 22019=
0108997779999992021010613004+39300-075367FM-13+000399999V0203201N009819999999N999999999+00421+99999101781ADDOD159901131999SA1+0491REMSYN074SJSN4 46/// /3219 10042 40178 91236 222// 00049 333 91222 555 11018 22020=
0108997779999992021010614004+39300-075367FM-13+000399999V0203201N010319999999N999999999+00411+99999101831ADDOD159901131999SA1+0491REMSYN074SJSN4 46/// /3220 10041 40183 91336 222// 00049 333 91222 555 11019 22021=
0128997779999992021010615004+39300-075367FM-13+000399999V0203201N011819999999N999999999+00421+99999101861ADDMD1210121+9999OD159901341999SA1+0491REMSYN080SJSN4 46/// /3223 10042 40186 52012 91500 222// 00049 333 91226 555 11022 22024=
0108997779999992021010616004+39300-075367FM-13+000399999V0203301N010319999999N999999999+00431+99999101841ADDOD159901291999SA1+0491REMSYN074SJSN4 46/// /3320 10043 40184 91542 222// 00049 333 91225 555 11019 22021=
0128997779999992021010617004+39300-075367FM-13+000399999V0203201N010319999999N999999999+00451+99999101791ADDMD1810071+9999OD159901291999SA1+0501REMSYN080SJSN4 46/// /3220 10045 40179 58007 91700 222// 00050 333 91225 555 11019 22021=
0108997779999992021010618004+39300-075367FM-13+000399999V0203101N011319999999N999999999+00441+99999101761ADDOD159901241999SA1+0501REMSYN074SJSN4 46/// /3122 10044 40176 91736 222// 00050 333 91224 555 11021 22023=
0128997779999992021010619004+39300-075367FM-13+000399999V0203101N009819999999N999999999+00451+99999101751ADDMD1710091+9999OD159901131999SA1+0501REMSYN080SJSN4 46/// /3119 10045 40175 57009 91900 222// 00050 333 91222 555 11019 22020=
0128997779999992021010620004+39300-075367FM-13+000399999V0203201N010319999999N999999999+00461+99999101801ADDMD1410001+9999OD159901241999SA1+0501REMSYN080SJSN4 46/// /3220 10046 40180 54000 92000 222// 00050 333 91224 555 11019 22021=
0108997779999992021010621004+39300-075367FM-13+000399999V0203201N009819999999N999999999+00471+99999101851ADDOD159901241999SA1+0501REMSYN074SJSN4 46/// /3219 10047 40185 92036 222// 00050 333 91224 555 11018 22020=
0128997779999992021010622004+39300-075367FM-13+000399999V0203201N012419999999N999999999+00471+99999101911ADDMD1210161+9999OD159901341999SA1+0501REMSYN080SJSN4 46/// /3224 10047 40191 52016 92200 222// 00050 333 91226 555 11023 22025=
0128997779999992021010623004+39300-075367FM-13+000399999V0203101N010819999999N999999999+00451+99999101971ADDMD1210171+9999OD159901181999SA1+0501REMSYN080SJSN4 46/// /3121 10045 40197 52017 92300 222// 00050 333 91223 555 11020 22022=
0128997779999992021010700004+39300-075367FM-13+000399999V0202901N011819999999N999999999+00421+99999102001ADDMD1110141+9999OD159901491999SA1+0491REMSYN080SJSN4 46/// /2923 10042 40200 51014 90000 222// 00049 333 91229 555 11022 22024=
0128997779999992021010701004+39300-075367FM-13+000399999V0203201N012919999999N999999999+00401+99999101991ADDMD1110081+9999OD159901441999SA1+0491REMSYN080SJSN4 46/// /3225 10040 40199 51008 90100 222// 00049 333 91228 555 11024 22026=
0128997779999992021010702004+39300-075367FM-13+000399999V0202801N009819999999N999999999+00361+99999102001ADDMD1110031+9999OD159901131999SA1+0491REMSYN080SJSN4 46/// /2819 10036 40200 51003 90200 222// 00049 333 91222 555 11018 22019=
0108997779999992021010703004+39300-075367FM-13+000399999V0203001N008819999999N999999999+00331+99999102001ADDMD1410001+9999OD159901031999REMSYN068SJSN4 46/// /3017 10033 40200 54000 90300 333 91220 555 11016 22018=
0128997779999992021010704004+39300-075367FM-13+000399999V0202901N009819999999N999999999+00291+99999102021ADDMD1210031+9999OD159901031999SA1+0481REMSYN080SJSN4 46/// /2919 10029 40202 52003 90400 222// 00048 333 91220 555 11018 22019=
0128997779999992021010705004+39300-075367FM-13+000399999V0203001N010819999999N999999999+00291+99999102001ADDMD1410001+9999OD159901181999SA1+0481REMSYN080SJSN4 46/// /3021 10029 40200 54000 90500 222// 00048 333 91223 555 11020 22021=
0128997779999992021010706004+39300-075367FM-13+000399999V0203001N008819999999N999999999+00271+99999102001ADDMD1410001+9999OD159901081999SA1+0481REMSYN080SJSN4 46/// /3017 10027 40200 54000 90600 222// 00048 333 91221 555 11016 22018=
0128997779999992021010707004+39300-075367FM-13+000399999V0203101N009819999999N999999999+00301+99999102011ADDMD1410001+9999OD159901181999SA1+0481REMSYN080SJSN4 46/// /3119 10030 40201 54000 90700 222// 00048 333 91223 555 11019 22020=
0128997779999992021010708004+39300-075367FM-13+000399999V0203001N009819999999N999999999+00261+99999102021ADDMD1410001+9999OD159901131999SA1+0471REMSYN080SJSN4 46/// /3019 10026 40202 54000 90800 222// 00047 333 91222 555 11018 22020=
0128997779999992021010709004+39300-075367FM-13+000399999V0203101N009819999999N999999999+00281+99999102031ADDMD1210031+9999OD159901241999SA1+0481REMSYN080SJSN4 46/// /3119 10028 40203 52003 90900 222// 00048 333 91224 555 11019 22020=
0108997779999992021010710004+39300-075367FM-13+000399999V0203201N009819999999N999999999+00241+99999102041ADDMD1210031+9999OD159901241999REMSYN068SJSN4 46/// /3219 10024 40204 52003 91000 333 91224 555 11018 22019=
0128997779999992021010711004+39300-075367FM-13+000399999V0203201N010319999999N999999999+00231+99999102061ADDMD1210041+9999OD159901181999SA1+0481REMSYN080SJSN4 46/// /3220 10023 40206 52004 91100 222// 00048 333 91223 555 11019 22020=
0128997779999992021010712004+39300-075367FM-13+000399999V0203201N011319999999N999999999+00211+99999102121ADDMD1310091+9999OD159901291999SA1+0481REMSYN080SJSN4 46/// /3222 10021 40212 53009 91200 222// 00048 333 91225 555 11021 22023=
0128997779999992021010713004+39300-075367FM-13+000399999V0203201N010819999999N999999999+00211+99999102181ADDMD1310141+9999OD159901291999SA1+0471REMSYN080SJSN4 46/// /3221 10021 40218 53014 91300 222// 00047 333 91225 555 11020 22022=
0128997779999992021010714004+39300-075367FM-13+000399999V0203201N010319999999N999999999+00211+99999102211ADDMD1110151+9999OD159901181999SA1+0461REMSYN080SJSN4 46/// /3220 10021 40221 51015 91400 222// 00046 333 91223 555 11019 22021=
0128997779999992021010715004+39300-075367FM-13+000399999V0203201N010319999999N999999999+00241+99999102191ADDMD1110071+9999OD159901131999SA1+0461REMSYN080SJSN4 46/// /3220 10024 40219 51007 91500 222// 00046 333 91222 555 11019 22020=
0108997779999992021010716004+39300-075367FM-13+000399999V0203101N008219999999N999999999+00301+99999102151ADDMD1810031+9999OD159900931999REMSYN068SJSN4 46/// /3116 10030 40215 58003 91600 333 91218 555 11015 22017=
0088997779999992021010717004+39300-075367FM-13+000399999V0209999C000019999999N999999999+00361+99999102071ADDMD1810141+9999SA1+0471REMSYN054SJSN4 46/// ///// 10036 40207 58014 91700 222// 00047=
0128997779999992021010718004+39300-075367FM-13+000399999V0203001N006719999999N999999999+00431+99999102031ADDMD1710161+9999OD159900721999SA1+0481REMSYN080SJSN4 46/// /3013 10043 40203 57016 91800 222// 00048 333 91214 555 11012 22013=
0128997779999992021010719004+39300-075367FM-13+000399999V0203101N006219999999N999999999+00501+99999102001ADDMD1610151+9999OD159900721999SA1+0481REMSYN080SJSN4 46/// /3112 10050 40200 56015 91900 222// 00048 333 91214 555 11011 22012=
0128997779999992021010720004+39300-075367FM-13+000399999V0203101N007219999999N999999999+00541+99999101991ADDMD1610081+9999OD159900771999SA1+0481REMSYN080SJSN4 46/// /3114 10054 40199 56008 92000 222// 00048 333 91215 555 11013 22014=
0128997779999992021010721004+39300-075367FM-13+000399999V0203101N006219999999N999999999+00551+99999102021ADDMD1510001+9999OD159900721999SA1+0491REMSYN080SJSN4 46/// /3112 10055 40202 55000 92100 222// 00049 333 91214 555 11012 22013=
0128997779999992021010722004+39300-075367FM-13+000399999V0203201N007219999999N999999999+00551+99999102031ADDMD1210031+9999OD159900821999SA1+0491REMSYN080SJSN4 46/// /3214 10055 40203 52003 92200 222// 00049 333 91216 555 11013 22015=
0128997779999992021010723004+39300-075367FM-13+000399999V0203001N006719999999N999999999+00501+99999102031ADDMD1110041+9999OD159900721999SA1+0491REMSYN080SJSN4 46/// /3013 10050 40203 51004 92300 222// 00049 333 91214 555 11012 22013=
0128997779999992021010800004+39300-075367FM-13+000399999V0203001N006219999999N999999999+00451+99999102041ADDMD1410001+9999OD159900671999SA1+0491REMSYN080SJSN4 46/// /3012 10045 40204 54000 90000 222// 00049 333 91213 555 11011 22012=
0128997779999992021010801004+39300-075367FM-13+000399999V0202601N005119999999N999999999+00341+99999102071ADDMD1310041+9999OD159900621999SA1+0481REMSYN080SJSN4 46/// /2610 10034 40207 53004 90100 222// 00048 333 91212 555 11010 22011=
0128997779999992021010802004+39300-075367FM-13+000399999V0202901N004619999999N999999999+00321+99999102041ADDMD1990001+9999OD159900461999SA1+0471REMSYN080SJSN4 46/// /2909 10032 40204 50000 90200 222// 00047 333 91209 555 11008 22009=
0128997779999992021010803004+39300-075367FM-13+000399999V0203001N004619999999N999999999+00301+99999102091ADDMD1310051+9999OD159900511999SA1+0471REMSYN080SJSN4 46/// /3009 10030 40209 53005 90300 222// 00047 333 91210 555 11008 22009=
0128997779999992021010804004+39300-075367FM-13+000399999V0203401N004619999999N999999999+00241+99999102041ADDMD1810031+9999OD159900511999SA1+0471REMSYN080SJSN4 46/// /3409 10024 40204 58003 90400 222// 00047 333 91210 555 11009 22009=
0128997779999992021010805004+39300-075367FM-13+000399999V0203601N002619999999N999999999+00181+99999102071ADDMD1110031+9999OD159900361999SA1+0481REMSYN080SJSN4 46/// /3605 10018 40207 51003 90500 222// 00048 333 91207 555 11005 22006=
0128997779999992021010821004+39300-075367FM-13+000399999V0203301N004119999999N999999999+00181+99999101401ADDMD1710071+9999OD159900571999SA1+0461REMSYN080SJSN4 46/// /3308 10018 40140 57007 92100 222// 00046 333 91211 555 11007 22008=
0108997779999992021010822004+39300-075367FM-13+000399999V0203401N003619999999N999999999+00191+99999101371ADDOD159900411999SA1+0461REMSYN074SJSN4 46/// /3407 10019 40137 92154 222// 00046 333 91208 555 11006 22007=
0128997779999992021010823004+39300-075367FM-13+000399999V0203401N003619999999N999999999+00211+99999101371ADDMD1710031+9999OD159900511999SA1+0471REMSYN080SJSN4 46/// /3407 10021 40137 57003 92300 222// 00047 333 91210 555 11007 22008=
0128997779999992021010900004+39300-075367FM-13+000399999V0203501N003619999999N999999999+00201+99999101321ADDMD1810081+9999OD159900461999SA1+0481REMSYN080SJSN4 46/// /3507 10020 40132 58008 90000 222// 00048 333 91209 555 11007 22007=
0108997779999992021010901004+39300-075367FM-13+000399999V0203401N004119999999N999999999+00211+99999101271ADDOD159900511999SA1+0481REMSYN074SJSN4 46/// /3408 10021 40127 90042 222// 00048 333 91210 555 11007 22008=
0128997779999992021010902004+39300-075367FM-13+000399999V0203401N005119999999N999999999+00201+99999101181ADDMD1710191+9999OD159900621999SA1+0471REMSYN080SJSN4 46/// /3410 10020 40118 57019 90200 222// 00047 333 91212 555 11010 22011=
0128997779999992021010903004+39300-075367FM-13+000399999V0203301N005719999999N999999999+00201+99999101161ADDMD1710161+9999OD159900671999SA1+0451REMSYN080SJSN4 46/// /3311 10020 40116 57016 90300 222// 00045 333 91213 555 11011 22012=
0108997779999992021010904004+39300-075367FM-13+000399999V0203301N006219999999N999999999+00181+99999101141ADDOD159900671999SA1+0461REMSYN074SJSN4 46/// /3312 10018 40114 90342 222// 00046 333 91213 555 11011 22012=
0128997779999992021010905004+39300-075367FM-13+000399999V0203401N007219999999N999999999+00121+99999101051ADDMD1810131+9999OD159900821999SA1+0461REMSYN080SJSN4 46/// /3414 10012 40105 58013 90500 222// 00046 333 91216 555 11013 22015=
0128997779999992021010906004+39300-075367FM-13+000399999V0203401N008219999999N999999999+00111+99999101041ADDMD1610121+9999OD159900981999SA1+0471REMSYN080SJSN4 46/// /3416 10011 40104 56012 90600 222// 00047 333 91219 555 11015 22016=
0128997779999992021010907004+39300-075367FM-13+000399999V0203401N008219999999N999999999+00071+99999101081ADDMD1510041+9999OD159900931999SA1+0461REMSYN080SJSN4 46/// /3416 10007 40108 55004 90700 222// 00046 333 91218 555 11016 22017=
0128997779999992021010908004+39300-075367FM-13+000399999V0203401N007719999999N999999999+00061+99999101091ADDMD1210041+9999OD159900931999SA1+0461REMSYN080SJSN4 46/// /3415 10006 40109 52004 90800 222// 00046 333 91218 555 11015 22016=
0128997779999992021010909004+39300-075367FM-13+000399999V0203401N008819999999N999999999+00011+99999101091ADDMD1110051+9999OD159901031999SA1+0441REMSYN080SJSN4 46/// /3417 10001 40109 51005 90900 222// 00044 333 91220 555 11016 22017=
0108997779999992021010910004+39300-075367FM-13+000399999V0203501N009319999999N999999999-00041+99999101121ADDMD1310041+9999OD159901081999REMSYN068SJSN4 46/// /3518 11004 40112 53004 91000 333 91221 555 11017 22018=
0128997779999992021010911004+39300-075367FM-13+000399999V0203401N008819999999N999999999-00091+99999101171ADDMD1310081+9999OD159901031999SA1+0461REMSYN080SJSN4 46/// /3417 11009 40117 53008 91100 222// 00046 333 91220 555 11016 22017=
0128997779999992021010912004+39300-075367FM-13+000399999V0203401N009319999999N999999999-00111+99999101231ADDMD1310141+9999OD159901031999SA1+0451REMSYN080SJSN4 46/// /3418 11011 40123 53014 91200 222// 00045 333 91220 555 11017 22018=
0128997779999992021010913004+39300-075367FM-13+000399999V0203301N008819999999N999999999-00121+99999101301ADDMD1310181+9999OD159901031999SA1+0441REMSYN080SJSN4 46/// /3317 11012 40130 53018 91300 222// 00044 333 91220 555 11016 22018=
0128997779999992021010914004+39300-075367FM-13+000399999V0203301N008219999999N999999999-00081+99999101391ADDMD1310221+9999OD159900981999SA1+0441REMSYN080SJSN4 46/// /3316 11008 40139 53022 91400 222// 00044 333 91219 555 11015 22017=
0128997779999992021010915004+39300-075367FM-13+000399999V0203301N008219999999N999999999-00051+99999101421ADDMD1110191+9999OD159900981999SA1+0441REMSYN080SJSN4 46/// /3316 11005 40142 51019 91500 222// 00044 333 91219 555 11015 22016=
0128997779999992021010916004+39300-075367FM-13+000399999V0203401N008819999999N999999999+00041+99999101371ADDMD1990071+9999OD159901081999SA1+0441REMSYN080SJSN4 46/// /3417 10004 40137 50007 91600 222// 00044 333 91221 555 11016 22018=
0128997779999992021010917004+39300-075367FM-13+000399999V0203101N008819999999N999999999+00131+99999101331ADDMD1810061+9999OD159900981999SA1+0451REMSYN080SJSN4 46/// /3117 10013 40133 58006 91700 222// 00045 333 91219 555 11017 22018=
0128997779999992021010918004+39300-075367FM-13+000399999V0203101N008819999999N999999999+00271+99999101281ADDMD1710141+9999OD159900981999SA1+0451REMSYN080SJSN4 46/// /3117 10027 40128 57014 91800 222// 00045 333 91219 555 11016 22018=
0128997779999992021010919004+39300-075367FM-13+000399999V0203101N008219999999N999999999+00391+99999101291ADDMD1610081+9999OD159900981999SA1+0451REMSYN080SJSN4 46/// /3116 10039 40129 56008 91900 222// 00045 333 91219 555 11015 22017=
0128997779999992021010920004+39300-075367FM-13+000399999V0203201N007719999999N999999999+00461+99999101351ADDMD1510001+9999OD159900981999SA1+0451REMSYN080SJSN4 46/// /3215 10046 40135 55000 92000 222// 00045 333 91219 555 11014 22015=
0128997779999992021010921004+39300-075367FM-13+000399999V0203201N008819999999N999999999+00571+99999101341ADDMD1210061+9999OD159900931999SA1+0461REMSYN080SJSN4 46/// /3217 10057 40134 52006 92100 222// 00046 333 91218 555 11016 22017=
0128997779999992021010922004+39300-075367FM-13+000399999V0203301N009819999999N999999999+00581+99999101411ADDMD1310121+9999OD159901131999SA1+0461REMSYN080SJSN4 46/// /3319 10058 40141 53012 92200 222// 00046 333 91222 555 11018 22020=
0128997779999992021010923004+39300-075367FM-13+000399999V0203301N007719999999N999999999+99999+99999101481ADDMD1310131+9999OD159900881999SA1+0451REMSYN080SJSN4 46/// /3315 1//// 40148 53013 92300 222// 00045 333 91217 555 11015 22016=
0128997779999992021011000004+39300-075367FM-13+000399999V0203101N006219999999N999999999+00511+99999101541ADDMD1110201+9999OD159900671999SA1+0461REMSYN080SJSN4 46/// /3112 10051 40154 51020 90000 222// 00046 333 91213 555 11011 22012=
0128997779999992021011001004+39300-075367FM-13+000399999V0203201N010319999999N999999999+00521+99999101601ADDMD1110191+9999OD159901131999SA1+0461REMSYN080SJSN4 46/// /3220 10052 40160 51019 90100 222// 00046 333 91222 555 11019 22021=
0128997779999992021011002004+39300-075367FM-13+000399999V0203101N011319999999N999999999+00491+99999101631ADDMD1110151+9999OD159901241999SA1+0461REMSYN080SJSN4 46/// /3122 10049 40163 51015 90200 222// 00046 333 91224 555 11021 22022=
0128997779999992021011003004+39300-075367FM-13+000399999V0203201N010319999999N999999999+00461+99999101681ADDMD1110141+9999OD159901131999SA1+0451REMSYN080SJSN4 46/// /3220 10046 40168 51014 90300 222// 00045 333 91222 555 11019 22020=
0128997779999992021011004004+39300-075367FM-13+000399999V0203201N010319999999N999999999+00441+99999101731ADDMD1310131+9999OD159901291999SA1+0451REMSYN080SJSN4 46/// /3220 10044 40173 53013 90400 222// 00045 333 91225 555 11019 22021=
0128997779999992021011005004+39300-075367FM-13+000399999V0203201N009319999999N999999999+00411+99999101761ADDMD1110131+9999OD159901081999SA1+0451REMSYN080SJSN4 46/// /3218 10041 40176 51013 90500 222// 00045 333 91221 555 11017 22019=
0128997779999992021011006004+39300-075367FM-13+000399999V0203201N009319999999N999999999+00371+99999101831ADDMD1310151+9999OD159901081999SA1+0461REMSYN080SJSN4 46/// /3218 10037 40183 53015 90600 222// 00046 333 91221 555 11017 22019=
0128997779999992021011007004+39300-075367FM-13+000399999V0203301N008219999999N999999999+00301+99999101921ADDMD1310191+9999OD159900881999SA1+0451REMSYN080SJSN4 46/// /3316 10030 40192 53019 90700 222// 00045 333 91217 555 11015 22016=
0088997779999992021011008004+39300-075367FM-13+000399999V0209999C000019999999N999999999+00261+99999101991ADDMD1210231+9999SA1+0451REMSYN054SJSN4 46/// ///// 10026 40199 52023 90800 222// 00045=
0128997779999992021011009004+39300-075367FM-13+000399999V0203301N006719999999N999999999+00291+99999102051ADDMD1110221+9999OD159900821999SA1+0441REMSYN080SJSN4 46/// /3313 10029 40205 51022 90900 222// 00044 333 91216 555 11012 22013=
0108997779999992021011010004+39300-075367FM-13+000399999V0203201N007719999999N999999999+00271+99999102061ADDOD159900931999SA1+0441REMSYN074SJSN4 46/// /3215 10027 40206 90942 222// 00044 333 91218 555 11015 22016=
0128997779999992021011011004+39300-075367FM-13+000399999V0203201N007219999999N999999999+00271+99999102121ADDMD1210131+9999OD159900821999SA1+0451REMSYN080SJSN4 46/// /3214 10027 40212 52013 91100 222// 00045 333 91216 555 11013 22014=
0128997779999992021011012004+39300-075367FM-13+000399999V0203201N007719999999N999999999+00271+99999102211ADDMD1210161+9999OD159900931999SA1+0451REMSYN080SJSN4 46/// /3215 10027 40221 52016 91200 222// 00045 333 91218 555 11014 22016=
0108997779999992021011013004+39300-075367FM-13+000399999V0203201N007719999999N999999999+00271+99999102261ADDOD159900981999SA1+0451REMSYN074SJSN4 46/// /3215 10027 40226 91236 222// 00045 333 91219 555 11014 22015=
0128997779999992021011014004+39300-075367FM-13+000399999V0203101N006719999999N999999999+00251+99999102431ADDMD1310311+9999OD159900931999SA1+0441REMSYN080SJSN4 46/// /3113 10025 40243 53031 91400 222// 00044 333 91218 555 11013 22014=
0128997779999992021011015004+39300-075367FM-13+000399999V0203201N008219999999N999999999+00241+99999102501ADDMD1110291+9999OD159900931999SA1+0441REMSYN080SJSN4 46/// /3216 10024 40250 51029 91500 222// 00044 333 91218 555 11016 22017=
0128997779999992021011016004+39300-075367FM-13+000399999V0203201N007219999999N999999999+00291+99999102481ADDMD1110191+9999OD159900881999SA1+0441REMSYN080SJSN4 46/// /3214 10029 40248 51019 91600 222// 00044 333 91217 555 11013 22014=
0088997779999992021011017004+39300-075367FM-13+000399999V0209999C000019999999N999999999+00351+99999102401ADDMD1810031+9999SA1+0441REMSYN054SJSN4 46/// ///// 10035 40240 58003 91700 222// 00044=
0088997779999992021011018004+39300-075367FM-13+000399999V0209999C000019999999N999999999+00431+99999102361ADDMD1810141+9999SA1+0451REMSYN054SJSN4 46/// ///// 10043 40236 58014 91800 222// 00045=
0128997779999992021011019004+39300-075367FM-13+000399999V0203001N005119999999N999999999+00501+99999102391ADDMD1510091+9999OD159900621999SA1+0461REMSYN080SJSN4 46/// /3010 10050 40239 55009 91900 222// 00046 333 91212 555 11010 22011=
0128997779999992021011020004+39300-075367FM-13+000399999V0203101N005119999999N999999999+00561+99999102381ADDMD1510001+9999OD159900571999SA1+0461REMSYN080SJSN4 46/// /3110 10056 40238 55000 92000 222// 00046 333 91211 555 11010 22010=
0128997779999992021011021004+39300-075367FM-13+000399999V0203201N004119999999N999999999+00571+99999102441ADDMD1310081+9999OD159900461999SA1+0471REMSYN080SJSN4 46/// /3208 10057 40244 53008 92100 222// 00047 333 91209 555 11008 22009=
0128997779999992021011022004+39300-075367FM-13+000399999V0202801N003119999999N999999999+00521+99999102521ADDMD1310131+9999OD159900361999SA1+0471REMSYN080SJSN4 46/// /2806 10052 40252 53013 92200 222// 00047 333 91207 555 11006 22006=
0128997779999992021011023004+39300-075367FM-13+000399999V0202901N003119999999N999999999+00521+99999102551ADDMD1110171+9999OD159900411999SA1+0461REMSYN080SJSN4 46/// /2906 10052 40255 51017 92300 222// 00046 333 91208 555 11006 22007=
0128997779999992021011100004+39300-075367FM-13+000399999V0202901N003619999999N999999999+00491+99999102621ADDMD1110181+9999OD159900411999SA1+0461REMSYN080SJSN4 46/// /2907 10049 40262 51018 90000 222// 00046 333 91208 555 11007 22007=
0108997779999992021011101004+39300-075367FM-13+000399999V0202901N002619999999N999999999+00461+99999102661ADDOD159900311999SA1+0451REMSYN074SJSN4 46/// /2905 10046 40266 90036 222// 00045 333 91206 555 11005 22006=
0128997779999992021011102004+39300-075367FM-13+000399999V0203301N001519999999N999999999+00381+99999102691ADDMD1210141+9999OD159900211999SA1+0461REMSYN080SJSN4 46/// /3303 10038 40269 52014 90200 222// 00046 333 91204 555 11003 22003=
0128997779999992021011103004+39300-075367FM-13+000399999V0202801N001019999999N999999999+00341+99999102711ADDMD1210091+9999OD159900151999SA1+0461REMSYN080SJSN4 46/// /2802 10034 40271 52009 90300 222// 00046 333 91203 555 11002 22002=
0108997779999992021011104004+39300-075367FM-13+000399999V0202901N001519999999N999999999+00301+99999102731ADDOD159900211999SA1+0451REMSYN074SJSN4 46/// /2903 10030 40273 90354 222// 00045 333 91204 555 11003 22003=
0108997779999992021011105004+39300-075367FM-13+000399999V0203101N001519999999N999999999+00231+99999102731ADDMD1210041+9999OD159900151999REMSYN068SJSN4 46/// /3103 10023 40273 52004 90500 333 91203 555 11002 22003=
0128997779999992021011106004+39300-075367FM-13+000399999V0203101N002619999999N999999999+00241+99999102721ADDMD1410001+9999OD159900361999SA1+0441REMSYN080SJSN4 46/// /3105 10024 40272 54000 90600 222// 00044 333 91207 555 11005 22005=
0128997779999992021011107004+39300-075367FM-13+000399999V0203601N002619999999N999999999+00291+99999102711ADDMD1410001+9999OD159900261999SA1+0441REMSYN080SJSN4 46/// /3605 10029 40271 54000 90700 222// 00044 333 91205 555 11004 22005=
0088997779999992021011108004+39300-075367FM-13+000399999V0209999C000019999999N999999999+00251+99999102761ADDMD1310031+9999SA1+0441REMSYN054SJSN4 46/// ///// 10025 40276 53003 90800 222// 00044=
0128997779999992021011109004+39300-075367FM-13+000399999V0200201N002119999999N999999999+00181+99999102731ADDMD1990001+9999OD159900211999SA1+0431REMSYN080SJSN4 46/// /0204 10018 40273 50000 90900 222// 00043 333 91204 555 11003 22004=
0128997779999992021011110004+39300-075367FM-13+000399999V0200101N001019999999N999999999+00151+99999102761ADDMD1110051+9999OD159900151999SA1+0431REMSYN080SJSN4 46/// /0102 10015 40276 51005 91000 222// 00043 333 91203 555 11002 22002=
0108997779999992021011111004+39300-075367FM-13+000399999V0203601N001019999999N999999999+00161+99999102771ADDOD159900211999SA1+0431REMSYN074SJSN4 46/// /3602 10016 40277 91036 222// 00043 333 91204 555 11002 22002=
0128997779999992021011112004+39300-075367FM-13+000399999V0200201N001519999999N999999999+00101+99999102761ADDMD1210031+9999OD159900261999SA1+0441REMSYN080SJSN4 46/// /0203 10010 40276 52003 91200 222// 00044 333 91205 555 11003 22003=
0088997779999992021011113004+39300-075367FM-13+000399999V0209999C000019999999N999999999+00041+99999102731ADDMD1710031+9999SA1+0451REMSYN054SJSN4 46/// ///// 10004 40273 57003 91300 222// 00045=
0108997779999992021011114004+39300-075367FM-13+000399999V0201101N001519999999N999999999+00071+99999102801ADDOD159900211999SA1+0441REMSYN074SJSN4 46/// /1103 10007 40280 91354 222// 00044 333 91204 555 11003 22003=
0128997779999992021011115004+39300-075367FM-13+000399999V0201701N000519999999N999999999+00201+99999102831ADDMD1310071+9999OD159900101999SA1+0441REMSYN080SJSN4 46/// /1701 10020 40283 53007 91500 222// 00044 333 91202 555 11001 22001=
0128997779999992021011116004+39300-075367FM-13+000399999V0201701N002619999999N999999999+00241+99999102751ADDMD1990001+9999OD159900311999SA1+0441REMSYN080SJSN4 46/// /1705 10024 40275 50000 91600 222// 00044 333 91206 555 11005 22006=
0128997779999992021011117004+39300-075367FM-13+000399999V0201401N001519999999N999999999+00361+99999102611ADDMD1810201+9999OD159900261999SA1+0451REMSYN080SJSN4 46/// /1403 10036 40261 58020 91700 222// 00045 333 91205 555 11003 22003=
0128997779999992021011118004+39300-075367FM-13+000399999V0201201N003119999999N999999999+00381+99999102511ADDMD1810321+9999OD159900311999SA1+0451REMSYN080SJSN4 46/// /1206 10038 40251 58032 91800 222// 00045 333 91206 555 11005 22006=
0128997779999992021011119004+39300-075367FM-13+000399999V0201301N003619999999N999999999+00451+99999102421ADDMD1610331+9999OD159900411999SA1+0451REMSYN080SJSN4 46/// /1307 10045 40242 56033 91900 222// 00045 333 91208 555 11007 22008=
0128997779999992021011120004+39300-075367FM-13+000399999V0201301N004119999999N999999999+00471+99999102401ADDMD1610211+9999OD159900461999SA1+0451REMSYN080SJSN4 46/// /1308 10047 40240 56021 92000 222// 00045 333 91209 555 11008 22009=
0128997779999992021011121004+39300-075367FM-13+000399999V0201301N004619999999N999999999+00471+99999102351ADDMD1610161+9999OD159900621999SA1+0451REMSYN080SJSN4 46/// /1309 10047 40235 56016 92100 222// 00045 333 91212 555 11009 22010=
0108997779999992021011122004+39300-075367FM-13+000399999V0201201N003619999999N999999999+00461+99999102351ADDOD159900411999SA1+0451REMSYN074SJSN4 46/// /1207 10046 40235 92148 222// 00045 333 91208 555 11007 22007=
0128997779999992021011123004+39300-075367FM-13+000399999V0201501N002119999999N999999999+00481+99999102341ADDMD1710061+9999OD159900261999SA1+0451REMSYN080SJSN4 46/// /1504 10048 40234 57006 92300 222// 00045 333 91205 555 11004 22004=
0128997779999992021011200004+39300-075367FM-13+000399999V0202001N005119999999N999999999+00521+99999102341ADDMD1410001+9999OD159900511999SA1+0441REMSYN080SJSN4 46/// /2010 10052 40234 54000 90000 222// 00044 333 91210 555 11009 22010=
0108997779999992021011201004+39300-075367FM-13+000399999V0202001N004119999999N999999999+00481+99999102361ADDOD159900461999SA1+0441REMSYN074SJSN4 46/// /2008 10048 40236 90042 222// 00044 333 91209 555 11008 22009=
0128997779999992021011202004+39300-075367FM-13+000399999V0202201N004619999999N999999999+00411+99999102341ADDMD1410001+9999OD159900571999SA1+0451REMSYN080SJSN4 46/// /2209 10041 40234 54000 90200 222// 00045 333 91211 555 11008 22009=
0128997779999992021011203004+39300-075367FM-13+000399999V0202201N004119999999N999999999+00351+99999102321ADDMD1410001+9999OD159900411999SA1+0451REMSYN080SJSN4 46/// /2208 10035 40232 54000 90300 222// 00045 333 91208 555 11007 22008=
0128997779999992021011204004+39300-075367FM-13+000399999V0202301N004119999999N999999999+00331+99999102291ADDMD1810061+9999OD159900461999SA1+0451REMSYN080SJSN4 46/// /2308 10033 40229 58006 90400 222// 00045 333 91209 555 11007 22008=
0128997779999992021011205004+39300-075367FM-13+000399999V0202201N005119999999N999999999+00301+99999102281ADDMD1710061+9999OD159900571999SA1+0441REMSYN080SJSN4 46/// /2210 10030 40228 57006 90500 222// 00044 333 91211 555 11009 22010=
0128997779999992021011206004+39300-075367FM-13+000399999V0202401N003619999999N999999999+00251+99999102241ADDMD1810081+9999OD159900461999SA1+0441REMSYN080SJSN4 46/// /2407 10025 40224 58008 90600 222// 00044 333 91209 555 11007 22007=
0108997779999992021011207004+39300-075367FM-13+000399999V0202301N004119999999N999999999+00251+99999102271ADDOD159900461999SA1+0441REMSYN074SJSN4 46/// /2308 10025 40227 90636 222// 00044 333 91209 555 11007 22008=
0128997779999992021011208004+39300-075367FM-13+000399999V0202501N004619999999N999999999+00201+99999102261ADDMD1410001+9999OD159900511999SA1+0441REMSYN080SJSN4 46/// /2509 10020 40226 54000 90800 222// 00044 333 91210 555 11008 22009=
0128997779999992021011209004+39300-075367FM-13+000399999V0202601N004119999999N999999999+00181+99999102191ADDMD1710051+9999OD159900461999SA1+0441REMSYN080SJSN4 46/// /2608 10018 40219 57005 90900 222// 00044 333 91209 555 11008 22008=
0108997779999992021011210004+39300-075367FM-13+000399999V0202801N004119999999N999999999+00221+99999102181ADDOD159900461999SA1+0431REMSYN074SJSN4 46/// /2808 10022 40218 90948 222// 00043 333 91209 555 11007 22008=
0128997779999992021011211004+39300-075367FM-13+000399999V0203001N003619999999N999999999+00241+99999102181ADDMD1710081+9999OD159900411999SA1+0421REMSYN080SJSN4 46/// /3007 10024 40218 57008 91100 222// 00042 333 91208 555 11006 22007=
0128997779999992021011212004+39300-075367FM-13+000399999V0203001N003119999999N999999999+99999+99999102231ADDMD1210041+9999OD159900361999SA1+0431REMSYN080SJSN4 46/// /3006 1//// 40223 52004 91200 222// 00043 333 91207 555 11006 22006=
0108997779999992021011213004+39300-075367FM-13+000399999V0202801N002619999999N999999999+00161+99999102251ADDOD159900261999SA1+0431REMSYN074SJSN4 46/// /2805 10016 40225 91254 222// 00043 333 91205 555 11005 22005=
0108997779999992021011214004+39300-075367FM-13+000399999V0203001N003119999999N999999999+00231+99999102291ADDMD1110111+9999OD159900361999REMSYN068SJSN4 46/// /3006 10023 40229 51011 91400 333 91207 555 11006 22006=
0128997779999992021011215004+39300-075367FM-13+000399999V0209999C000019999999N999999999+00231+99999102321ADDMD1310091+9999OD159900001999SA1+0441REMSYN080SJSN4 46/// /0000 10023 40232 53009 91500 222// 00044 333 91200 555 11000 22000=
0108997779999992021011216004+39300-075367FM-13+000399999V0209999C000019999999N999999999+00241+99999102241ADDOD159900001999SA1+0441REMSYN074SJSN4 46/// /0000 10024 40224 91612 222// 00044 333 91200 555 11000 22000=
0128997779999992021011217004+39300-075367FM-13+000399999V0209999C000019999999N999999999+00291+99999102151ADDMD1810141+9999OD159900001999SA1+0441REMSYN080SJSN4 46/// /0000 10029 40215 58014 91700 222// 00044 333 91200 555 11000 22000=
0108997779999992021011218004+39300-075367FM-13+000399999V0209999C000019999999N999999999+00361+99999102101ADDMD1610221+9999OD159900001999REMSYN068SJSN4 46/// /0000 10036 40210 56022 91800 333 91200 555 11000 22000=
0128997779999992021011219004+39300-075367FM-13+000399999V0209999C000019999999N999999999+00411+99999102011ADDMD1610251+9999OD159900001999SA1+0451REMSYN080SJSN4 46/// /0000 10041 40201 56025 91900 222// 00045 333 91200 555 11000 22000=
0128997779999992021011220004+39300-075367FM-13+000399999V0209999C000019999999N999999999+00471+99999101941ADDMD1810211+9999OD159900001999SA1+0441REMSYN080SJSN4 46/// /0000 10047 40194 58021 92000 222// 00044 333 91200 555 11000 22000=
0128997779999992021011221004+39300-075367FM-13+000399999V0209999C000019999999N999999999+00481+99999101911ADDMD1610191+9999OD159900001999SA1+0441REMSYN080SJSN4 46/// /0000 10048 40191 56019 92100 222// 00044 333 91200 555 11000 22000=
0128997779999992021011222004+39300-075367FM-13+000399999V0209999C000019999999N999999999+00481+99999101931ADDMD1610081+9999OD159900001999SA1+0441REMSYN080SJSN4 46/// /0000 10048 40193 56008 92200 222// 00044 333 91200 555 11000 22000=
0128997779999992021011223004+39300-075367FM-13+000399999V0209999C000019999999N999999999+00451+99999101991ADDMD1310051+9999OD159900001999SA1+0441REMSYN080SJSN4 46/// /0000 10045 40199 53005 92300 222// 00044 333 91200 555 11000 22000=
0128997779999992021011300004+39300-075367FM-13+000399999V0209999C000019999999N999999999+00431+99999102041ADDMD1310131+9999OD159900001999SA1+0441REMSYN080SJSN4 46/// /0000 10043 40204 53013 90000 222// 00044 333 91200 555 11000 22000=
0128997779999992021011301004+39300-075367FM-13+000399999V0209999C000019999999N999999999+00441+99999102051ADDMD1110121+9999OD159900001999SA1+0441REMSYN080SJSN4 46/// /0000 10044 40205 51012 90100 222// 00044 333 91200 555 11000 22000=
0128997779999992021011302004+39300-075367FM-13+000399999V0209999C000019999999N999999999+00381+99999102051ADDMD1110061+9999OD159900001999SA1+0431REMSYN080SJSN4 46/// /0000 10038 40205 51006 90200 222// 00043 333 91200 555 11000 22000=
0088997779999992021011303004+39300-075367FM-13+000399999V0209999C000019999999N999999999+00331+99999102081ADDMD1310041+9999SA1+0441REMSYN054SJSN4 46/// ///// 10033 40208 53004 90300 222// 00044=
0128997779999992021011304004+39300-075367FM-13+000399999V0209999C000019999999N999999999+00181+99999102101ADDMD1210051+9999OD159900001999SA1+0441REMSYN080SJSN4 46/// /0000 10018 40210 52005 90400 222// 00044 333 91200 555 11000 22000=
0128997779999992021011305004+39300-075367FM-13+000399999V0209999C000019999999N999999999+00281+99999102011ADDMD1810041+9999OD159900001999SA1+0431REMSYN080SJSN4 46/// /0000 10028 40201 58004 90500 222// 00043 333 91200 555 11000 22000=
0128997779999992021011306004+39300-075367FM-13+000399999V0209999C000019999999N999999999+00271+99999101981ADDMD1810101+9999OD159900001999SA1+0431REMSYN080SJSN4 46/// /0000 10027 40198 58010 90600 222// 00043 333 91200 555 11000 22000=
0128997779999992021011307004+39300-075367FM-13+000399999V0209999C000019999999N999999999+00211+99999102001ADDMD1610101+9999OD159900001999SA1+0431REMSYN080SJSN4 46/// /0000 10021 40200 56010 90700 222// 00043 333 91200 555 11000 22000=
0128997779999992021011308004+39300-075367FM-13+000399999V0209999C000019999999N999999999+00201+99999101981ADDMD1610031+9999OD159900001999SA1+0431REMSYN080SJSN4 46/// /0000 10020 40198 56003 90800 222// 00043 333 91200 555 11000 22000=
0128997779999992021011309004+39300-075367FM-13+000399999V0209999C000019999999N999999999+00221+99999101971ADDMD1410001+9999OD159900001999SA1+0431REMSYN080SJSN4 46/// /0000 10022 40197 54000 90900 222// 00043 333 91200 555 11000 22000=
0128997779999992021011310004+39300-075367FM-13+000399999V0209999C000019999999N999999999+00201+99999101961ADDMD1710041+9999OD159900001999SA1+0421REMSYN080SJSN4 46/// /0000 10020 40196 57004 91000 222// 00042 333 91200 555 11000 22000=
0128997779999992021011311004+39300-075367FM-13+000399999V0209999C000019999999N999999999+00191+99999102011ADDMD1310031+9999OD159900001999SA1+0421REMSYN080SJSN4 46/// /0000 10019 40201 53003 91100 222// 00042 333 91200 555 11000 22000=
0128997779999992021011312004+39300-075367FM-13+000399999V0209999C000019999999N999999999+00121+99999102001ADDMD1210031+9999OD159900001999SA1+0421REMSYN080SJSN4 46/// /0000 10012 40200 52003 91200 222// 00042 333 91200 555 11000 22000=
0128997779999992021011313004+39300-075367FM-13+000399999V0209999C000019999999N999999999+00161+99999102011ADDMD1110051+9999OD159900001999SA1+0421REMSYN080SJSN4 46/// /0000 10016 40201 51005 91300 222// 00042 333 91200 555 11000 22000=
0108997779999992021011314004+39300-075367FM-13+000399999V0209999C000019999999N999999999+00201+99999102051ADDMD1310041+9999OD159900001999REMSYN068SJSN4 46/// /0000 10020 40205 53004 91400 333 91200 555 11000 22000=
0128997779999992021011315004+39300-075367FM-13+000399999V0209999C000019999999N999999999+00351+99999102031ADDMD1210031+9999OD159900001999SA1+0431REMSYN080SJSN4 46/// /0000 10035 40203 52003 91500 222// 00043 333 91200 555 11000 22000=
0128997779999992021011316004+39300-075367FM-13+000399999V0209999C000019999999N999999999+00391+99999101941ADDMD1810071+9999OD159900001999SA1+0431REMSYN080SJSN4 46/// /0000 10039 40194 58007 91600 222// 00043 333 91200 555 11000 22000=
0108997779999992021011317004+39300-075367FM-13+000399999V0209999C000019999999N999999999+00381+99999101831ADDMD1810221+9999OD159900001999REMSYN068SJSN4 46/// /0000 10038 40183 58022 91700 333 91200 555 11000 22000=
0128997779999992021011318004+39300-075367FM-13+000399999V0209999C000019999999N999999999+00421+99999101711ADDMD1810321+9999OD159900001999SA1+0451REMSYN080SJSN4 46/// /0000 10042 40171 58032 91800 222// 00045 333 91200 555 11000 22000=
0128997779999992021011319004+39300-075367FM-13+000399999V0209999C000019999999N999999999+00471+99999101621ADDMD1610321+9999OD159900001999SA1+0451REMSYN080SJSN4 46/// /0000 10047 40162 56032 91900 222// 00045 333 91200 555 11000 22000=
0088997779999992021011320004+39300-075367FM-13+000399999V0209999C000019999999N999999999+99999+99999101571ADDMD1610261+9999SA1+0451REMSYN054SJSN4 46/// ///// 1//// 40157 56026 92000 222// 00045=
0128997779999992021011321004+39300-075367FM-13+000399999V0209999C000019999999N999999999+00471+99999101531ADDMD1610181+9999OD159900001999SA1+0441REMSYN080SJSN4 46/// /0000 10047 40153 56018 92100 222// 00044 333 91200 555 11000 22000=
0128997779999992021011322004+39300-075367FM-13+000399999V0209999C000019999999N999999999+00461+99999101501ADDMD1610121+9999OD159900001999SA1+0441REMSYN080SJSN4 46/// /0000 10046 40150 56012 92200 222// 00044 333 91200 555 11000 22000=
0128997779999992021011323004+39300-075367FM-13+000399999V0209999C000019999999N999999999+00481+99999101491ADDMD1610081+9999OD159900001999SA1+0441REMSYN080SJSN4 46/// /0000 10048 40149 56008 92300 222// 00044 333 91200 555 11000 22000=
0128997779999992021011400004+39300-075367FM-13+000399999V0209999C000019999999N999999999+00481+99999101481ADDMD1610051+9999OD159900001999SA1+0431REMSYN080SJSN4 46/// /0000 10048 40148 56005 90000 222// 00043 333 91200 555 11000 22000=
0128997779999992021011401004+39300-075367FM-13+000399999V0209999C000019999999N999999999+00501+99999101451ADDMD1810051+9999OD159900001999SA1+0431REMSYN080SJSN4 46/// /0000 10050 40145 58005 90100 222// 00043 333 91200 555 11000 22000=
0128997779999992021011402004+39300-075367FM-13+000399999V0209999C000019999999N999999999+00461+99999101421ADDMD1810071+9999OD159900001999SA1+0431REMSYN080SJSN4 46/// /0000 10046 40142 58007 90200 222// 00043 333 91200 555 11000 22000=
0128997779999992021011403004+39300-075367FM-13+000399999V0209999C000019999999N999999999+00461+99999101371ADDMD1810111+9999OD159900001999SA1+0431REMSYN080SJSN4 46/// /0000 10046 40137 58011 90300 222// 00043 333 91200 555 11000 22000=
0088997779999992021011404004+39300-075367FM-13+000399999V0209999C000019999999N999999999+00451+99999101341ADDMD1710111+9999SA1+0431REMSYN054SJSN4 46/// ///// 10045 40134 57011 90400 222// 00043=
0128997779999992021011405004+39300-075367FM-13+000399999V0209999C000019999999N999999999+00431+99999101261ADDMD1810161+9999OD159900001999SA1+0431REMSYN080SJSN4 46/// /0000 10043 40126 58016 90500 222// 00043 333 91200 555 11000 22000=
0128997779999992021011406004+39300-075367FM-13+000399999V0209999C000019999999N999999999+00411+99999101181ADDMD1810191+9999OD159900001999SA1+0431REMSYN080SJSN4 46/// /0000 10041 40118 58019 90600 222// 00043 333 91200 555 11000 22000=
0128997779999992021011407004+39300-075367FM-13+000399999V0209999C000019999999N999999999+00421+99999101171ADDMD1610171+9999OD159900001999SA1+0431REMSYN080SJSN4 46/// /0000 10042 40117 56017 90700 222// 00043 333 91200 555 11000 22000=
0128997779999992021011408004+39300-075367FM-13+000399999V0209999C000019999999N999999999+99999+99999101181ADDMD1610081+9999OD159900001999SA1+0431REMSYN080SJSN4 46/// /0000 1//// 40118 56008 90800 222// 00043 333 91200 555 11000 22000=
0088997779999992021011409004+39300-075367FM-13+000399999V0209999C000019999999N999999999+00391+99999101101ADDMD1810081+9999SA1+0431REMSYN054SJSN4 46/// ///// 10039 40110 58008 90900 222// 00043=
0128997779999992021011410004+39300-075367FM-13+000399999V0209999C000019999999N999999999+00351+99999101121ADDMD1710051+9999OD159900001999SA1+0431REMSYN080SJSN4 46/// /0000 10035 40112 57005 91000 222// 00043 333 91200 555 11000 22000=
0108997779999992021011411004+39300-075367FM-13+000399999V0209999C000019999999N999999999+00291+99999101101ADDMD1610081+9999OD159900001999REMSYN068SJSN4 46/// /0000 10029 40110 56008 91100 333 91200 555 11000 22000=
0128997779999992021011412004+39300-075367FM-13+000399999V0209999C000019999999N999999999+00331+99999101101ADDMD1410001+9999OD159900001999SA1+0411REMSYN080SJSN4 46/// /0000 10033 40110 54000 91200 222// 00041 333 91200 555 11000 22000=
0128997779999992021011413004+39300-075367FM-13+000399999V0209999C000019999999N999999999+00311+99999101091ADDMD1710031+9999OD159900001999SA1+0421REMSYN080SJSN4 46/// /0000 10031 40109 57003 91300 222// 00042 333 91200 555 11000 22000=
0108997779999992021011414004+39300-075367FM-13+000399999V0209999C000019999999N999999999+00251+99999101131ADDMD1310031+9999OD159900001999REMSYN068SJSN4 46/// /0000 10025 40113 53003 91400 333 91200 555 11000 22000=
0128997779999992021011415004+39300-075367FM-13+000399999V0209999C000019999999N999999999+00331+99999101141ADDMD1210041+9999OD159900001999SA1+0431REMSYN080SJSN4 46/// /0000 10033 40114 52004 91500 222// 00043 333 91200 555 11000 22000=
0128997779999992021011416004+39300-075367FM-13+000399999V0209999C000019999999N999999999+00391+99999101151ADDMD1110061+9999OD159900001999SA1+0431REMSYN080SJSN4 46/// /0000 10039 40115 51006 91600 222// 00043 333 91200 555 11000 22000=
0088997779999992021011417004+39300-075367FM-13+000399999V0209999C000019999999N999999999+00401+99999101051ADDMD1810081+9999SA1+0431REMSYN054SJSN4 46/// ///// 10040 40105 58008 91700 222// 00043=
0068997779999992021011418004+39300-075367FM-13+000399999V0209999C000019999999N999999999+00421+99999101021ADDSA1+0431REMSYN048SJSN4 46/// ///// 10042 40102 91736 222// 00043=
0088997779999992021011419004+39300-075367FM-13+000399999V0209999C000019999999N999999999+00511+99999100941ADDMD1610211+9999SA1+0441REMSYN054SJSN4 46/// ///// 10051 40094 56021 91900 222// 00044=
0088997779999992021011420004+39300-075367FM-13+000399999V0209999C000019999999N999999999+00651+99999100931ADDMD1610121+9999SA1+0451REMSYN054SJSN4 46/// ///// 10065 40093 56012 92000 222// 00045=
0068997779999992021011421004+39300-075367FM-13+000399999V0209999C000019999999N999999999+00691+99999100941ADDSA1+0441REMSYN048SJSN4 46/// ///// 10069 40094 92042 222// 00044=
0068997779999992021011422004+39300-075367FM-13+000399999V0209999C000019999999N999999999+00801+99999100981ADDSA1+0441REMSYN048SJSN4 46/// ///// 10080 40098 92212 222// 00044=
0068997779999992021011423004+39300-075367FM-13+000399999V0209999C000019999999N999999999+00781+99999101001ADDSA1+0441REMSYN048SJSN4 46/// ///// 10078 40100 92236 222// 00044=
0068997779999992021011500004+39300-075367FM-13+000399999V0209999C000019999999N999999999+00711+99999101061ADDSA1+0431REMSYN048SJSN4 46/// ///// 10071 40106 92348 222// 00043=
0088997779999992021011501004+39300-075367FM-13+000399999V0209999C000019999999N999999999+00631+99999101091ADDMD1110131+9999SA1+0431REMSYN054SJSN4 46/// ///// 10063 40109 51013 90100 222// 00043=
0088997779999992021011502004+39300-075367FM-13+000399999V0209999C000019999999N999999999+00551+99999101161ADDMD1310131+9999SA1+0431REMSYN054SJSN4 46/// ///// 10055 40116 53013 90200 222// 00043=
0088997779999992021011503004+39300-075367FM-13+000399999V0209999C000019999999N999999999+00591+99999101171ADDMD1210101+9999SA1+0431REMSYN054SJSN4 46/// ///// 10059 40117 52010 90300 222// 00043=
0088997779999992021011504004+39300-075367FM-13+000399999V0209999C000019999999N999999999+00421+99999101191ADDMD1110101+9999SA1+0441REMSYN054SJSN4 46/// ///// 10042 40119 51010 90400 222// 00044=
0068997779999992021011505004+39300-075367FM-13+000399999V0209999C000019999999N999999999+00411+99999101221ADDSA1+0441REMSYN048SJSN4 46/// ///// 10041 40122 90442 222// 00044=
0088997779999992021011506004+39300-075367FM-13+000399999V0209999C000019999999N999999999+00451+99999101301ADDMD1210131+9999SA1+0441REMSYN054SJSN4 46/// ///// 10045 40130 52013 90600 222// 00044=
0068997779999992021011507004+39300-075367FM-13+000399999V0209999C000019999999N999999999+00441+99999101281ADDSA1+0431REMSYN048SJSN4 46/// ///// 10044 40128 90636 222// 00043=
0068997779999992021011508004+39300-075367FM-13+000399999V0209999C000019999999N999999999+00391+99999101371ADDSA1+0431REMSYN048SJSN4 46/// ///// 10039 40137 90742 222// 00043=
0088997779999992021011509004+39300-075367FM-13+000399999V0209999C000019999999N999999999+99999+99999101381ADDMD1210081+9999SA1+0431REMSYN054SJSN4 46/// ///// 1//// 40138 52008 90900 222// 00043=
0068997779999992021011510004+39300-075367FM-13+000399999V0209999C000019999999N999999999+00331+99999101351ADDSA1+0431REMSYN048SJSN4 46/// ///// 10033 40135 90942 222// 00043=
0088997779999992021011511004+39300-075367FM-13+000399999V0209999C000019999999N999999999+00291+99999101281ADDMD1810091+9999SA1+0431REMSYN054SJSN4 46/// ///// 10029 40128 58009 91100 222// 00043=
0088997779999992021011512004+39300-075367FM-13+000399999V0209999C000019999999N999999999+00311+99999101341ADDMD1510041+9999SA1+0431REMSYN054SJSN4 46/// ///// 10031 40134 55004 91200 222// 00043=
0088997779999992021011513004+39300-075367FM-13+000399999V0209999C000019999999N999999999+00321+99999101391ADDMD1310081+9999SA1+0421REMSYN054SJSN4 46/// ///// 10032 40139 53008 91300 222// 00042=
0088997779999992021011514004+39300-075367FM-13+000399999V0209999C000019999999N999999999+00411+99999101341ADDMD1990061+9999SA1+0421REMSYN054SJSN4 46/// ///// 10041 40134 50006 91400 222// 00042=
0088997779999992021011515004+39300-075367FM-13+000399999V0209999C000019999999N999999999+00581+99999101401ADDMD1310061+9999SA1+0431REMSYN054SJSN4 46/// ///// 10058 40140 53006 91500 222// 00043=
0088997779999992021011516004+39300-075367FM-13+000399999V0209999C000019999999N999999999+00671+99999101331ADDMD1810061+9999SA1+0441REMSYN054SJSN4 46/// ///// 10067 40133 58006 91600 222// 00044=
0088997779999992021011517004+39300-075367FM-13+000399999V0209999C000019999999N999999999+00671+99999101171ADDMD1810171+9999SA1+0441REMSYN054SJSN4 46/// ///// 10067 40117 58017 91700 222// 00044=
0088997779999992021011518004+39300-075367FM-13+000399999V0209999C000019999999N999999999+00691+99999101031ADDMD1810371+9999SA1+0441REMSYN054SJSN4 46/// ///// 10069 40103 58037 91800 222// 00044=
0088997779999992021011519004+39300-075367FM-13+000399999V0209999C000019999999N999999999+00761+99999100971ADDMD1610361+9999SA1+0451REMSYN054SJSN4 46/// ///// 10076 40097 56036 91900 222// 00045=
0068997779999992021011520004+39300-075367FM-13+000399999V0209999C000019999999N999999999+00681+99999100961ADDSA1+0451REMSYN048SJSN4 46/// ///// 10068 40096 92012 222// 00045=
0088997779999992021011521004+39300-075367FM-13+000399999V0209999C000019999999N999999999+00761+99999101031ADDMD1410001+9999SA1+0451REMSYN054SJSN4 46/// ///// 10076 40103 54000 92100 222// 00045=
0088997779999992021011522004+39300-075367FM-13+000399999V0209999C000019999999N999999999+00721+99999100941ADDMD1710031+9999SA1+0451REMSYN054SJSN4 46/// ///// 10072 40094 57003 92200 222// 00045=
0068997779999992021011523004+39300-075367FM-13+000399999V0209999C000019999999N999999999+00751+99999100871ADDSA1+0451REMSYN048SJSN4 46/// ///// 10075 40087 92236 222// 00045=
0088997779999992021011600004+39300-075367FM-13+000399999V0209999C000019999999N999999999+00691+99999100911ADDMD1610121+9999SA1+0441REMSYN054SJSN4 46/// ///// 10069 40091 56012 90000 222// 00044=
0128997779999992021011601004+39300-075367FM-13+000399999V0201001N007719999999N999999999+00751+99999100801ADDMD1810141+9999OD159900931999SA1+0441REMSYN080SJSN4 46/// /1015 10075 40080 58014 90100 222// 00044 333 91218 555 11014 22015=
0128997779999992021011602004+39300-075367FM-13+000399999V0201501N005119999999N999999999+00771+99999100731ADDMD1810161+9999OD159900571999SA1+0441REMSYN080SJSN4 46/// /1510 10077 40073 58016 90200 222// 00044 333 91211 555 11009 22010=
0128997779999992021011603004+39300-075367FM-13+000399999V0201501N003119999999N999999999+00641+99999100671ADDMD1610241+9999OD159900311999SA1+0441REMSYN080SJSN4 46/// /1506 10064 40067 56024 90300 222// 00044 333 91206 555 11006 22006=
0088997779999992021011604004+39300-075367FM-13+000399999V0209999C000019999999N999999999+00741+99999100581ADDMD1810221+9999SA1+0441REMSYN054SJSN4 46/// ///// 10074 40058 58022 90400 222// 00044=
0128997779999992021011605004+39300-075367FM-13+000399999V0203401N001519999999N999999999+00721+99999100471ADDMD1810261+9999OD159900211999SA1+0441REMSYN080SJSN4 46/// /3403 10072 40047 58026 90500 222// 00044 333 91204 555 11003 22003=
0128997779999992021011606004+39300-075367FM-13+000399999V0202001N001519999999N999999999+00731+99999100481ADDMD1610191+9999OD159900261999SA1+0451REMSYN080SJSN4 46/// /2003 10073 40048 56019 90600 222// 00045 333 91205 555 11003 22003=
0128997779999992021011607004+39300-075367FM-13+000399999V0200801N002119999999N999999999+00611+99999100351ADDMD1810231+9999OD159900361999SA1+0451REMSYN080SJSN4 46/// /0804 10061 40035 58023 90700 222// 00045 333 91207 555 11004 22004=
0128997779999992021011608004+39300-075367FM-13+000399999V0201001N006719999999N999999999+00641+99999100271ADDMD1810201+9999OD159900721999SA1+0451REMSYN080SJSN4 46/// /1013 10064 40027 58020 90800 222// 00045 333 91214 555 11013 22014=
0128997779999992021011609004+39300-075367FM-13+000399999V0200901N007719999999N999999999+00611+99999100081ADDMD1810401+9999OD159900881999SA1+0451REMSYN080SJSN4 46/// /0915 10061 40008 58040 90900 222// 00045 333 91217 555 11014 22016=
0108997779999992021011610004+39300-075367FM-13+000399999V0201201N004619999999N999999999+00601+99999100091ADDOD159900511999SA1+0451REMSYN074SJSN4 46/// /1209 10060 40009 90936 222// 00045 333 91210 555 11008 22009=
0108997779999992021011611004+39300-075367FM-13+000399999V0202001N004119999999N999999999+00551+99999100031ADDOD159900411999SA1+0451REMSYN074SJSN4 46/// /2008 10055 40003 91048 222// 00045 333 91208 555 11007 22008=
0108997779999992021011612004+39300-075367FM-13+000399999V0202301N004619999999N999999999+00561+99999100011ADDOD159900571999SA1+0451REMSYN074SJSN4 46/// /2309 10056 40001 91142 222// 00045 333 91211 555 11009 22010=
0108997779999992021011613004+39300-075367FM-13+000399999V0202301N005119999999N999999999+00551+99999099971ADDOD159900571999SA1+0441REMSYN074SJSN4 46/// /2310 10055 49997 91242 222// 00044 333 91211 555 11010 22011=
0108997779999992021011614004+39300-075367FM-13+000399999V0202801N006219999999N999999999+00581+99999099981ADDOD159900621999SA1+0451REMSYN074SJSN4 46/// /2812 10058 49998 91342 222// 00045 333 91212 555 11011 22012=
0108997779999992021011615004+39300-075367FM-13+000399999V0202701N005719999999N999999999+00511+99999100011ADDOD159900621999SA1+0441REMSYN074SJSN4 46/// /2711 10051 40001 91442 222// 00044 333 91212 555 11011 22012=
0088997779999992021011616004+39300-075367FM-13+000399999V0209999C000019999999N999999999+00561+99999099961ADDMD1410001+9999SA1+0451REMSYN054SJSN4 46/// ///// 10056 49996 54000 91600 222// 00045=
0108997779999992021011617004+39300-075367FM-13+000399999V0202501N005119999999N999999999+00581+99999099881ADDOD159900621999SA1+0451REMSYN074SJSN4 46/// /2510 10058 49988 91648 222// 00045 333 91212 555 11010 22011=
0128997779999992021011618004+39300-075367FM-13+000399999V0202601N006719999999N999999999+00581+99999099791ADDMD1810201+9999OD159900771999SA1+0461REMSYN080SJSN4 46/// /2613 10058 49979 58020 91800 222// 00046 333 91215 555 11013 22014=
0128997779999992021011619004+39300-075367FM-13+000399999V0202601N005119999999N999999999+00631+99999099731ADDMD1610231+9999OD159900621999SA1+0461REMSYN080SJSN4 46/// /2610 10063 49973 56023 91900 222// 00046 333 91212 555 11010 22011=
0128997779999992021011620004+39300-075367FM-13+000399999V0202601N007219999999N999999999+00661+99999099741ADDMD1610121+9999OD159900821999SA1+0461REMSYN080SJSN4 46/// /2614 10066 49974 56012 92000 222// 00046 333 91216 555 11014 22015=
0128997779999992021011621004+39300-075367FM-13+000399999V0202701N007219999999N999999999+00641+99999099821ADDMD1310031+9999OD159900821999SA1+0461REMSYN080SJSN4 46/// /2714 10064 49982 53003 92100 222// 00046 333 91216 555 11013 22014=
0108997779999992021011622004+39300-075367FM-13+000399999V0202601N005119999999N999999999+00621+99999099911ADDMD1310181+9999OD159900571999REMSYN068SJSN4 46/// /2610 10062 49991 53018 92200 333 91211 555 11010 22011=
0128997779999992021011623004+39300-075367FM-13+000399999V0202801N004619999999N999999999+99999+99999099981ADDMD1110241+9999OD159900461999SA1+0461REMSYN080SJSN4 46/// /2809 1//// 49998 51024 92300 222// 00046 333 91209 555 11008 22009=
0128997779999992021011700004+39300-075367FM-13+000399999V0202601N005719999999N999999999+00531+99999100021ADDMD1110201+9999OD159900621999SA1+0461REMSYN080SJSN4 46/// /2611 10053 40002 51020 90000 222// 00046 333 91212 555 11010 22011=
0088997779999992021011701004+39300-075367FM-13+000399999V0209999C000019999999N999999999+99999+99999100061ADDMD1110151+9999SA1+0451REMSYN054SJSN4 46/// ///// 1//// 40006 51015 90100 222// 00045=
0128997779999992021011702004+39300-075367FM-13+000399999V0202601N006719999999N999999999+00461+99999100091ADDMD1110111+9999OD159900721999SA1+0461REMSYN080SJSN4 46/// /2613 10046 40009 51011 90200 222// 00046 333 91214 555 11012 22013=
0108997779999992021011703004+39300-075367FM-13+000399999V0202601N007219999999N999999999+00451+99999100141ADDMD1310121+9999OD159900821999REMSYN068SJSN4 46/// /2614 10045 40014 53012 90300 333 91216 555 11014 22015=
0128997779999992021011704004+39300-075367FM-13+000399999V0202701N008819999999N999999999+99999+99999100221ADDMD1310161+9999OD159901131999SA1+0451REMSYN080SJSN4 46/// /2717 1//// 40022 53016 90400 222// 00045 333 91222 555 11017 22018=
0128997779999992021011705004+39300-075367FM-13+000399999V0202501N008819999999N999999999+00361+99999100281ADDMD1310191+9999OD159901031999SA1+0451REMSYN080SJSN4 46/// /2517 10036 40028 53019 90500 222// 00045 333 91220 555 11016 22018=
0128997779999992021011706004+39300-075367FM-13+000399999V0202401N009319999999N999999999+00341+99999100371ADDMD1310231+9999OD159901081999SA1+0451REMSYN080SJSN4 46/// /2418 10034 40037 53023 90600 222// 00045 333 91221 555 11017 22019=
0128997779999992021011707004+39300-075367FM-13+000399999V0202401N008219999999N999999999+00291+99999100441ADDMD1310221+9999OD159900981999SA1+0451REMSYN080SJSN4 46/// /2416 10029 40044 53022 90700 222// 00045 333 91219 555 11015 22016=
0128997779999992021011708004+39300-075367FM-13+000399999V0202401N009819999999N999999999+00301+99999100511ADDMD1110231+9999OD159901181999SA1+0451REMSYN080SJSN4 46/// /2419 10030 40051 51023 90800 222// 00045 333 91223 555 11019 22020=
0108997779999992021011709004+39300-075367FM-13+000399999V0202401N010819999999N999999999+00291+99999100551ADDMD1110181+9999OD159901241999REMSYN068SJSN4 46/// /2421 10029 40055 51018 90900 333 91224 555 11020 22022=
0088997779999992021011710004+39300-075367FM-13+000399999V0209999C000019999999N999999999+00261+99999100591ADDMD1110151+9999SA1+0441REMSYN054SJSN4 46/// ///// 10026 40059 51015 91000 222// 00044=
0128997779999992021011711004+39300-075367FM-13+000399999V0202401N007719999999N999999999+00241+99999100641ADDMD1310131+9999OD159900821999SA1+0441REMSYN080SJSN4 46/// /2415 10024 40064 53013 91100 222// 00044 333 91216 555 11014 22015=
0128997779999992021011712004+39300-075367FM-13+000399999V0202201N006219999999N999999999+00191+99999100671ADDMD1110121+9999OD159900671999SA1+0441REMSYN080SJSN4 46/// /2212 10019 40067 51012 91200 222// 00044 333 91213 555 11011 22012=
0128997779999992021011713004+39300-075367FM-13+000399999V0202301N007719999999N999999999+00221+99999100741ADDMD1310151+9999OD159900881999SA1+0441REMSYN080SJSN4 46/// /2315 10022 40074 53015 91300 222// 00044 333 91217 555 11014 22016=
0128997779999992021011714004+39300-075367FM-13+000399999V0202201N006719999999N999999999+00261+99999100831ADDMD1310191+9999OD159900821999SA1+0441REMSYN080SJSN4 46/// /2213 10026 40083 53019 91400 222// 00044 333 91216 555 11012 22014=
0128997779999992021011715004+39300-075367FM-13+000399999V0202301N008819999999N999999999+00361+99999100881ADDMD1110211+9999OD159900981999SA1+0441REMSYN080SJSN4 46/// /2317 10036 40088 51021 91500 222// 00044 333 91219 555 11016 22018=
0128997779999992021011716004+39300-075367FM-13+000399999V0202501N009319999999N999999999+00491+99999100811ADDMD1990071+9999OD159901181999SA1+0441REMSYN080SJSN4 46/// /2518 10049 40081 50007 91600 222// 00044 333 91223 555 11017 22019=
0128997779999992021011717004+39300-075367FM-13+000399999V0202501N009319999999N999999999+00571+99999100731ADDMD1810101+9999OD159901291999SA1+0441REMSYN080SJSN4 46/// /2518 10057 40073 58010 91700 222// 00044 333 91225 555 11017 22018=
0128997779999992021011718004+39300-075367FM-13+000399999V0202601N009819999999N999999999+99999+99999100681ADDMD1610201+9999OD159901131999SA1+0451REMSYN080SJSN4 46/// /2619 1//// 40068 56020 91800 222// 00045 333 91222 555 11018 22020=
0128997779999992021011719004+39300-075367FM-13+000399999V0202601N009319999999N999999999+00651+99999100701ADDMD1610111+9999OD159901131999SA1+0451REMSYN080SJSN4 46/// /2618 10065 40070 56011 91900 222// 00045 333 91222 555 11017 22018=
0128997779999992021011720004+39300-075367FM-13+000399999V0202501N009319999999N999999999+00691+99999100701ADDMD1610031+9999OD159901081999SA1+0451REMSYN080SJSN4 46/// /2518 10069 40070 56003 92000 222// 00045 333 91221 555 11017 22019=
0128997779999992021011721004+39300-075367FM-13+000399999V0202501N007219999999N999999999+00661+99999100761ADDMD1310081+9999OD159900881999SA1+0451REMSYN080SJSN4 46/// /2514 10066 40076 53008 92100 222// 00045 333 91217 555 11013 22015=
0108997779999992021011722004+39300-075367FM-13+000399999V0202401N006219999999N999999999+00661+99999100801ADDMD1310101+9999OD159900721999REMSYN068SJSN4 46/// /2412 10066 40080 53010 92200 333 91214 555 11012 22013=
0128997779999992021011723004+39300-075367FM-13+000399999V0202201N005119999999N999999999+00581+99999100861ADDMD1210161+9999OD159900571999SA1+0451REMSYN080SJSN4 46/// /2210 10058 40086 52016 92300 222// 00045 333 91211 555 11010 22011=
0128997779999992021011800004+39300-075367FM-13+000399999V0202201N004119999999N999999999+00541+99999100911ADDMD1310151+9999OD159900411999SA1+0451REMSYN080SJSN4 46/// /2208 10054 40091 53015 90000 222// 00045 333 91208 555 11007 22008=
0128997779999992021011801004+39300-075367FM-13+000399999V0201901N005119999999N999999999+99999+99999100871ADDMD1990071+9999OD159900571999SA1+0451REMSYN080SJSN4 46/// /1910 1//// 40087 50007 90100 222// 00045 333 91211 555 11010 22010=
0128997779999992021011802004+39300-075367FM-13+000399999V0202001N006219999999N999999999+00521+99999100871ADDMD1990001+9999OD159900671999SA1+0451REMSYN080SJSN4 46/// /2012 10052 40087 50000 90200 222// 00045 333 91213 555 11012 22013=
0128997779999992021011803004+39300-075367FM-13+000399999V0202001N006219999999N999999999+00521+99999100871ADDMD1610041+9999OD159900671999SA1+0461REMSYN080SJSN4 46/// /2012 10052 40087 56004 90300 222// 00046 333 91213 555 11011 22012=
0128997779999992021011804004+39300-075367FM-13+000399999V0202001N005119999999N999999999+00511+99999100831ADDMD1810041+9999OD159900571999SA1+0461REMSYN080SJSN4 46/// /2010 10051 40083 58004 90400 222// 00046 333 91211 555 11010 22011=
0128997779999992021011805004+39300-075367FM-13+000399999V0202101N005719999999N999999999+00491+99999100781ADDMD1810091+9999OD159900671999SA1+0451REMSYN080SJSN4 46/// /2111 10049 40078 58009 90500 222// 00045 333 91213 555 11011 22012=
0108997779999992021011806004+39300-075367FM-13+000399999V0202101N005719999999N999999999+00461+99999100771ADDMD1610101+9999OD159900621999REMSYN068SJSN4 46/// /2111 10046 40077 56010 90600 333 91212 555 11010 22011=
0128997779999992021011807004+39300-075367FM-13+000399999V0202201N006219999999N999999999+00451+99999100811ADDMD1510001+9999OD159900671999SA1+0451REMSYN080SJSN4 46/// /2212 10045 40081 55000 90700 222// 00045 333 91213 555 11011 22012=
0128997779999992021011808004+39300-075367FM-13+000399999V0202301N006219999999N999999999+00471+99999100821ADDMD1210041+9999OD159900671999SA1+0451REMSYN080SJSN4 46/// /2312 10047 40082 52004 90800 222// 00045 333 91213 555 11011 22012=
0128997779999992021011809004+39300-075367FM-13+000399999V0202301N004119999999N999999999+00381+99999100811ADDMD1110041+9999OD159900511999SA1+0451REMSYN080SJSN4 46/// /2308 10038 40081 51004 90900 222// 00045 333 91210 555 11008 22009=
0128997779999992021011810004+39300-075367FM-13+000399999V0202401N004119999999N999999999+00341+99999100811ADDMD1410001+9999OD159900461999SA1+0451REMSYN080SJSN4 46/// /2408 10034 40081 54000 91000 222// 00045 333 91209 555 11007 22008=
0128997779999992021011811004+39300-075367FM-13+000399999V0202201N004119999999N999999999+00301+99999100831ADDMD1410001+9999OD159900461999SA1+0441REMSYN080SJSN4 46/// /2208 10030 40083 54000 91100 222// 00044 333 91209 555 11008 22008=
0108997779999992021011812004+39300-075367FM-13+000399999V0202201N004619999999N999999999+00281+99999100891ADDOD159900571999SA1+0441REMSYN074SJSN4 46/// /2209 10028 40089 91142 222// 00044 333 91211 555 11009 22009=
0128997779999992021011813004+39300-075367FM-13+000399999V0202201N005119999999N999999999+00281+99999100921ADDMD1210111+9999OD159900571999SA1+0441REMSYN080SJSN4 46/// /2210 10028 40092 52011 91300 222// 00044 333 91211 555 11009 22010=
0088997779999992021011814004+39300-075367FM-13+000399999V0209999C000019999999N999999999+00361+99999100981ADDMD1210151+9999SA1+0441REMSYN054SJSN4 46/// ///// 10036 40098 52015 91400 222// 00044=
0108997779999992021011815004+39300-075367FM-13+000399999V0202701N006719999999N999999999+00451+99999100981ADDOD159900771999SA1+0451REMSYN074SJSN4 46/// /2713 10045 40098 91436 222// 00045 333 91215 555 11012 22013=
0128997779999992021011816004+39300-075367FM-13+000399999V0202801N006719999999N999999999+00521+99999100971ADDMD1990051+9999OD159900881999SA1+0451REMSYN080SJSN4 46/// /2813 10052 40097 50005 91600 222// 00045 333 91217 555 11012 22013=
0128997779999992021011817004+39300-075367FM-13+000399999V0202801N006719999999N999999999+00571+99999100891ADDMD1810091+9999OD159900771999SA1+0451REMSYN080SJSN4 46/// /2813 10057 40089 58009 91700 222// 00045 333 91215 555 11013 22014=
0108997779999992021011818004+39300-075367FM-13+000399999V0202701N008819999999N999999999+00581+99999100861ADDOD159900981999SA1+0451REMSYN074SJSN4 46/// /2717 10058 40086 91736 222// 00045 333 91219 555 11016 22017=
0088997779999992021011819004+39300-075367FM-13+000399999V0209999C000019999999N999999999+00571+99999100891ADDMD1510081+9999SA1+0461REMSYN054SJSN4 46/// ///// 10057 40089 55008 91900 222// 00046=
0128997779999992021011820004+39300-075367FM-13+000399999V0202901N008819999999N999999999+00571+99999100971ADDMD1310081+9999OD159901131999SA1+0461REMSYN080SJSN4 46/// /2917 10057 40097 53008 92000 222// 00046 333 91222 555 11016 22017=
0128997779999992021011821004+39300-075367FM-13+000399999V0202801N009319999999N999999999+00561+99999101091ADDMD1310231+9999OD159900981999SA1+0461REMSYN080SJSN4 46/// /2818 10056 40109 53023 92100 222// 00046 333 91219 555 11017 22018=
0128997779999992021011822004+39300-075367FM-13+000399999V0202801N007219999999N999999999+00601+99999101211ADDMD1310321+9999OD159900821999SA1+0461REMSYN080SJSN4 46/// /2814 10060 40121 53032 92200 222// 00046 333 91216 555 11014 22015=
0088997779999992021011823004+39300-075367FM-13+000399999V0209999C000019999999N999999999+00571+99999101331ADDMD1210361+9999SA1+0451REMSYN054SJSN4 46/// ///// 10057 40133 52036 92300 222// 00045=
0128997779999992021011900004+39300-075367FM-13+000399999V0202801N008219999999N999999999+00531+99999101421ADDMD1110331+9999OD159900931999SA1+0451REMSYN080SJSN4 46/// /2816 10053 40142 51033 90000 222// 00045 333 91218 555 11015 22016=
0128997779999992021011901004+39300-075367FM-13+000399999V0202801N008219999999N999999999+00451+99999101531ADDMD1110321+9999OD159900981999SA1+0451REMSYN080SJSN4 46/// /2816 10045 40153 51032 90100 222// 00045 333 91219 555 11015 22016=
0128997779999992021011902004+39300-075367FM-13+000399999V0202801N007219999999N999999999+00381+99999101631ADDMD1310301+9999OD159900771999SA1+0451REMSYN080SJSN4 46/// /2814 10038 40163 53030 90200 222// 00045 333 91215 555 11013 22014=
0128997779999992021011903004+39300-075367FM-13+000399999V0202601N006219999999N999999999+00321+99999101721ADDMD1110301+9999OD159900721999SA1+0451REMSYN080SJSN4 46/// /2612 10032 40172 51030 90300 222// 00045 333 91214 555 11012 22013=
0128997779999992021011904004+39300-075367FM-13+000399999V0202501N006219999999N999999999+00221+99999101781ADDMD1110251+9999OD159900721999SA1+0451REMSYN080SJSN4 46/// /2512 10022 40178 51025 90400 222// 00045 333 91214 555 11011 22012=
0128997779999992021011905004+39300-075367FM-13+000399999V0202501N005719999999N999999999+00221+99999101811ADDMD1110181+9999OD159900721999SA1+0451REMSYN080SJSN4 46/// /2511 10022 40181 51018 90500 222// 00045 333 91214 555 11011 22012=
0128997779999992021011906004+39300-075367FM-13+000399999V0202501N006219999999N999999999+00211+99999101811ADDMD1110091+9999OD159900721999SA1+0441REMSYN080SJSN4 46/// /2512 10021 40181 51009 90600 222// 00044 333 91214 555 11011 22012=
0128997779999992021011907004+39300-075367FM-13+000399999V0202401N006219999999N999999999+00201+99999101851ADDMD1310071+9999OD159900671999SA1+0441REMSYN080SJSN4 46/// /2412 10020 40185 53007 90700 222// 00044 333 91213 555 11011 22012=
0128997779999992021011908004+39300-075367FM-13+000399999V0202401N005119999999N999999999+00181+99999101881ADDMD1310071+9999OD159900621999SA1+0441REMSYN080SJSN4 46/// /2410 10018 40188 53007 90800 222// 00044 333 91212 555 11010 22010=
0108997779999992021011909004+39300-075367FM-13+000399999V0202401N005119999999N999999999+00171+99999101901ADDOD159900621999SA1+0441REMSYN074SJSN4 46/// /2410 10017 40190 90836 222// 00044 333 91212 555 11010 22011=
0128997779999992021011910004+39300-075367FM-13+000399999V0202501N006219999999N999999999+00151+99999102011ADDMD1210161+9999OD159900771999SA1+0431REMSYN080SJSN4 46/// /2512 10015 40201 52016 91000 222// 00043 333 91215 555 11012 22013=
0128997779999992021011911004+39300-075367FM-13+000399999V0202501N007719999999N999999999+00191+99999102091ADDMD1210211+9999OD159900881999SA1+0431REMSYN080SJSN4 46/// /2515 10019 40209 52021 91100 222// 00043 333 91217 555 11014 22015=
0108997779999992021011912004+39300-075367FM-13+000399999V0202401N007219999999N999999999+00191+99999102101ADDOD159900821999SA1+0421REMSYN074SJSN4 46/// /2414 10019 40210 91142 222// 00042 333 91216 555 11013 22015=
0128997779999992021011913004+39300-075367FM-13+000399999V0202401N004619999999N999999999+00191+99999102121ADDMD1210111+9999OD159900571999SA1+0421REMSYN080SJSN4 46/// /2409 10019 40212 52011 91300 222// 00042 333 91211 555 11009 22010=
0128997779999992021011914004+39300-075367FM-13+000399999V0202301N006219999999N999999999+00281+99999102171ADDMD1210081+9999OD159900671999SA1+0421REMSYN080SJSN4 46/// /2312 10028 40217 52008 91400 222// 00042 333 91213 555 11011 22012=
0108997779999992021011915004+39300-075367FM-13+000399999V0202401N005719999999N999999999+00351+99999102211ADDOD159900671999SA1+0421REMSYN074SJSN4 46/// /2411 10035 40221 91442 222// 00042 333 91213 555 11010 22011=
0128997779999992021011916004+39300-075367FM-13+000399999V0202701N010819999999N999999999+00511+99999102181ADDMD1990061+9999OD159901291999SA1+0431REMSYN080SJSN4 46/// /2721 10051 40218 50006 91600 222// 00043 333 91225 555 11020 22022=
0108997779999992021011917004+39300-075367FM-13+000399999V0202601N007719999999N999999999+00511+99999102121ADDOD159900931999SA1+0431REMSYN074SJSN4 46/// /2615 10051 40212 91636 222// 00043 333 91218 555 11014 22015=
0128997779999992021011918004+39300-075367FM-13+000399999V0202601N006719999999N999999999+00591+99999101991ADDMD1710231+9999OD159900821999SA1+0431REMSYN080SJSN4 46/// /2613 10059 40199 57023 91800 222// 00043 333 91216 555 11012 22013=
0128997779999992021011919004+39300-075367FM-13+000399999V0202601N007719999999N999999999+00661+99999101931ADDMD1710251+9999OD159901241999SA1+0441REMSYN080SJSN4 46/// /2615 10066 40193 57025 91900 222// 00044 333 91224 555 11014 22016=
0108997779999992021011920004+39300-075367FM-13+000399999V0202701N008819999999N999999999+00701+99999101931ADDOD159901031999SA1+0441REMSYN074SJSN4 46/// /2717 10070 40193 91936 222// 00044 333 91220 555 11016 22017=
0128997779999992021011921004+39300-075367FM-13+000399999V0202701N008219999999N999999999+00711+99999102021ADDMD1310031+9999OD159900981999SA1+0441REMSYN080SJSN4 46/// /2716 10071 40202 53003 92100 222// 00044 333 91219 555 11015 22016=
0128997779999992021011922004+39300-075367FM-13+000399999V0202601N005119999999N999999999+00691+99999102041ADDMD1210111+9999OD159900621999SA1+0441REMSYN080SJSN4 46/// /2610 10069 40204 52011 92200 222// 00044 333 91212 555 11009 22010=
0108997779999992021011923004+39300-075367FM-13+000399999V0202401N003619999999N999999999+00581+99999102121ADDOD159900411999SA1+0441REMSYN074SJSN4 46/// /2407 10058 40212 92242 222// 00044 333 91208 555 11007 22008=
0128997779999992021012000004+39300-075367FM-13+000399999V0202101N005719999999N999999999+00541+99999102151ADDMD1210131+9999OD159900571999SA1+0441REMSYN080SJSN4 46/// /2111 10054 40215 52013 90000 222// 00044 333 91211 555 11010 22011=
0108997779999992021012001004+39300-075367FM-13+000399999V0202101N005719999999N999999999+00501+99999102131ADDMD1110091+9999OD159900621999REMSYN068SJSN4 46/// /2111 10050 40213 51009 90100 333 91212 555 11010 22011=
0128997779999992021012002004+39300-075367FM-13+000399999V0202301N005719999999N999999999+00481+99999102081ADDMD1810051+9999OD159900621999SA1+0441REMSYN080SJSN4 46/// /2311 10048 40208 58005 90200 222// 00044 333 91212 555 11011 22012=
