0108997779999992023010100004+39300-075367FM-13+000399999V0202301N004619999999N999999999+01121+99999101121ADDOD159900621999SA1+0301REMSYN074SJSN4 46/// /2309 10112 40112 92336 222// 00030 333 91212 555 11009 22010=
0108997779999992023010101004+39300-075367FM-13+000399999V0202001N004619999999N999999999+01321+99999101061ADDOD159900511999SA1+0301REMSYN074SJSN4 46/// /2009 10132 40106 90036 222// 00030 333 91210 555 11009 22009=
0108997779999992023010102004+39300-075367FM-13+000399999V0202101N004619999999N999999999+01241+99999101021ADDOD159900511999SA1+0301REMSYN074SJSN4 46/// /2109 10124 40102 90148 222// 00030 333 91210 555 11009 22010=
0128997779999992023010103004+39300-075367FM-13+000399999V0202201N005119999999N999999999+01181+99999101041ADDMD1510051+9999OD159900571999SA1+0311REMSYN080SJSN4 46/// /2210 10118 40104 55005 90300 222// 00031 333 91211 555 11009 22010=
0128997779999992023010104004+39300-075367FM-13+000399999V0202201N003119999999N999999999+99999+99999100911ADDMD1810121+9999OD159900361999SA1+0321REMSYN080SJSN4 46/// /2206 1//// 40091 58012 90400 222// 00032 333 91207 555 11006 22007=
0128997779999992023010105004+39300-075367FM-13+000399999V0202501N005119999999N999999999+01141+99999100921ADDMD1810071+9999OD159900571999SA1+0311REMSYN080SJSN4 46/// /2510 10114 40092 58007 90500 222// 00031 333 91211 555 11010 22010=
0128997779999992023010106004+39300-075367FM-13+000399999V0202501N006719999999N999999999+01061+99999100921ADDMD1610121+9999OD159900771999SA1+0331REMSYN080SJSN4 46/// /2513 10106 40092 56012 90600 222// 00033 333 91215 555 11013 22014=
0128997779999992023010107004+39300-075367FM-13+000399999V0202601N007719999999N999999999+01021+99999101011ADDMD1310101+9999OD159900821999SA1+0321REMSYN080SJSN4 46/// /2615 10102 40101 53010 90700 222// 00032 333 91216 555 11014 22015=
0128997779999992023010108004+39300-075367FM-13+000399999V0202601N006719999999N999999999+01041+99999101081ADDMD1310161+9999OD159900721999SA1+0311REMSYN080SJSN4 46/// /2613 10104 40108 53016 90800 222// 00031 333 91214 555 11012 22013=
0128997779999992023010109004+39300-075367FM-13+000399999V0202601N006719999999N999999999+00961+99999101121ADDMD1110201+9999OD159900721999SA1+0311REMSYN080SJSN4 46/// /2613 10096 40112 51020 90900 222// 00031 333 91214 555 11012 22013=
0128997779999992023010110004+39300-075367FM-13+000399999V0202601N006719999999N999999999+00931+99999101201ADDMD1310191+9999OD159900821999SA1+0311REMSYN080SJSN4 46/// /2613 10093 40120 53019 91000 222// 00031 333 91216 555 11013 22014=
0128997779999992023010111004+39300-075367FM-13+000399999V0202801N001519999999N999999999+00641+99999101271ADDMD1310191+9999OD159900261999SA1+0311REMSYN080SJSN4 46/// /2803 10064 40127 53019 91100 222// 00031 333 91205 555 11003 22003=
0128997779999992023010112004+39300-075367FM-13+000399999V0203301N004619999999N999999999+00551+99999101361ADDMD1310241+9999OD159900511999SA1+0311REMSYN080SJSN4 46/// /3309 10055 40136 53024 91200 222// 00031 333 91210 555 11008 22009=
0128997779999992023010113004+39300-075367FM-13+000399999V0203001N003619999999N999999999+00671+99999101461ADDMD1310261+9999OD159900361999SA1+0311REMSYN080SJSN4 46/// /3007 10067 40146 53026 91300 222// 00031 333 91207 555 11006 22007=
0128997779999992023010114004+39300-075367FM-13+000399999V0203001N003619999999N999999999+00581+99999101551ADDMD1210281+9999OD159900361999SA1+0311REMSYN080SJSN4 46/// /3007 10058 40155 52028 91400 222// 00031 333 91207 555 11006 22007=
0128997779999992023010115004+39300-075367FM-13+000399999V0203001N006219999999N999999999+00741+99999101651ADDMD1210291+9999OD159900671999SA1+0321REMSYN080SJSN4 46/// /3012 10074 40165 52029 91500 222// 00032 333 91213 555 11011 22012=
0128997779999992023010116004+39300-075367FM-13+000399999V0203101N006219999999N999999999+00901+99999101621ADDMD1990161+9999OD159900671999SA1+0321REMSYN080SJSN4 46/// /3112 10090 40162 50016 91600 222// 00032 333 91213 555 11012 22013=
0128997779999992023010117004+39300-075367FM-13+000399999V0203101N006219999999N999999999+00841+99999101601ADDMD1110051+9999OD159900721999SA1+0331REMSYN080SJSN4 46/// /3112 10084 40160 51005 91700 222// 00033 333 91214 555 11011 22012=
0128997779999992023010118004+39300-075367FM-13+000399999V0203101N005719999999N999999999+00821+99999101591ADDMD1610061+9999OD159900621999SA1+0331REMSYN080SJSN4 46/// /3111 10082 40159 56006 91800 222// 00033 333 91212 555 11011 22012=
0128997779999992023010119004+39300-075367FM-13+000399999V0203001N006219999999N999999999+01001+99999101551ADDMD1810071+9999OD159900671999SA1+0351REMSYN080SJSN4 46/// /3012 10100 40155 58007 91900 222// 00035 333 91213 555 11011 22012=
0128997779999992023010120004+39300-075367FM-13+000399999V0203201N004119999999N999999999+01011+99999101541ADDMD1710061+9999OD159900461999SA1+0401REMSYN080SJSN4 46/// /3208 10101 40154 57006 92000 222// 00040 333 91209 555 11008 22009=
0128997779999992023010121004+39300-075367FM-13+000399999V0203301N001019999999N999999999+01171+99999101531ADDMD1610061+9999OD159900101999SA1+0371REMSYN080SJSN4 46/// /3302 10117 40153 56006 92100 222// 00037 333 91202 555 11002 22002=
0128997779999992023010122004+39300-075367FM-13+000399999V0209999C000019999999N999999999+99999+99999101591ADDMD1310041+9999OD159900051999SA1+0351REMSYN080SJSN4 46/// /0000 1//// 40159 53004 92200 222// 00035 333 91201 555 11000 22000=
0128997779999992023010123004+39300-075367FM-13+000399999V0201501N002119999999N999999999+00901+99999101641ADDMD1310101+9999OD159900211999SA1+0341REMSYN080SJSN4 46/// /1504 10090 40164 53010 92300 222// 00034 333 91204 555 11004 22004=
0128997779999992023010200004+39300-075367FM-13+000399999V0201701N003619999999N999999999+00641+99999101711ADDMD1310181+9999OD159900361999SA1+0331REMSYN080SJSN4 46/// /1707 10064 40171 53018 90000 222// 00033 333 91207 555 11007 22008=
0128997779999992023010201004+39300-075367FM-13+000399999V0201801N005119999999N999999999+00691+99999101761ADDMD1210171+9999OD159900571999SA1+0341REMSYN080SJSN4 46/// /1810 10069 40176 52017 90100 222// 00034 333 91211 555 11009 22010=
0128997779999992023010202004+39300-075367FM-13+000399999V0202001N003119999999N999999999+00641+99999101811ADDMD1110171+9999OD159900311999SA1+0341REMSYN080SJSN4 46/// /2006 10064 40181 51017 90200 222// 00034 333 91206 555 11005 22006=
0128997779999992023010203004+39300-075367FM-13+000399999V0201501N003619999999N999999999+00531+99999101801ADDMD1110091+9999OD159900411999SA1+0341REMSYN080SJSN4 46/// /1507 10053 40180 51009 90300 222// 00034 333 91208 555 11007 22008=
0108997779999992023010204004+39300-075367FM-13+000399999V0201701N005119999999N999999999+00541+99999101761ADDMD1990001+9999OD159900511999REMSYN068SJSN4 46/// /1710 10054 40176 50000 90400 333 91210 555 11009 22010=
0128997779999992023010205004+39300-075367FM-13+000399999V0202001N002619999999N999999999+00671+99999101771ADDMD1710041+9999OD159900261999SA1+0341REMSYN080SJSN4 46/// /2005 10067 40177 57004 90500 222// 00034 333 91205 555 11005 22005=
0128997779999992023010206004+39300-075367FM-13+000399999V0203101N001519999999N999999999+00591+99999101771ADDMD1610031+9999OD159900151999SA1+0341REMSYN080SJSN4 46/// /3103 10059 40177 56003 90600 222// 00034 333 91203 555 11003 22003=
0128997779999992023010207004+39300-075367FM-13+000399999V0202701N002119999999N999999999+00691+99999101831ADDMD1310071+9999OD159900261999SA1+0341REMSYN080SJSN4 46/// /2704 10069 40183 53007 90700 222// 00034 333 91205 555 11004 22004=
0128997779999992023010208004+39300-075367FM-13+000399999V0203401N000519999999N999999999+00581+99999101861ADDMD1310091+9999OD159900101999SA1+0331REMSYN080SJSN4 46/// /3401 10058 40186 53009 90800 222// 00033 333 91202 555 11001 22001=
0128997779999992023010209004+39300-075367FM-13+000399999V0203101N001019999999N999999999+00521+99999101871ADDMD1110101+9999OD159900101999SA1+0341REMSYN080SJSN4 46/// /3102 10052 40187 51010 90900 222// 00034 333 91202 555 11002 22002=
0128997779999992023010210004+39300-075367FM-13+000399999V0203501N003619999999N999999999+00571+99999101941ADDMD1310111+9999OD159900361999SA1+0341REMSYN080SJSN4 46/// /3507 10057 40194 53011 91000 222// 00034 333 91207 555 11007 22007=
0128997779999992023010211004+39300-075367FM-13+000399999V0203301N002619999999N999999999+00611+99999101951ADDMD1210091+9999OD159900261999SA1+0341REMSYN080SJSN4 46/// /3305 10061 40195 52009 91100 222// 00034 333 91205 555 11004 22005=
0128997779999992023010212004+39300-075367FM-13+000399999V0203001N000519999999N999999999+00461+99999102041ADDMD1310171+9999OD159900211999SA1+0341REMSYN080SJSN4 46/// /3001 10046 40204 53017 91200 222// 00034 333 91204 555 11001 22001=
0128997779999992023010213004+39300-075367FM-13+000399999V0201801N001019999999N999999999+00451+99999102121ADDMD1310181+9999OD159900101999SA1+0341REMSYN080SJSN4 46/// /1802 10045 40212 53018 91300 222// 00034 333 91202 555 11002 22002=
0128997779999992023010214004+39300-075367FM-13+000399999V0201401N002619999999N999999999+00621+99999102131ADDMD1110181+9999OD159900311999SA1+0341REMSYN080SJSN4 46/// /1405 10062 40213 51018 91400 222// 00034 333 91206 555 11005 22005=
0128997779999992023010215004+39300-075367FM-13+000399999V0201601N002619999999N999999999+00561+99999102171ADDMD1110131+9999OD159900261999SA1+0341REMSYN080SJSN4 46/// /1605 10056 40217 51013 91500 222// 00034 333 91205 555 11005 22005=
0128997779999992023010216004+39300-075367FM-13+000399999V0201301N003119999999N999999999+00561+99999102131ADDMD1990001+9999OD159900311999SA1+0341REMSYN080SJSN4 46/// /1306 10056 40213 50000 91600 222// 00034 333 91206 555 11006 22006=
0128997779999992023010217004+39300-075367FM-13+000399999V0201701N004119999999N999999999+00651+99999102091ADDMD1810041+9999OD159900461999SA1+0351REMSYN080SJSN4 46/// /1708 10065 40209 58004 91700 222// 00035 333 91209 555 11008 22009=
0128997779999992023010218004+39300-075367FM-13+000399999V0201501N004619999999N999999999+00731+99999102041ADDMD1810131+9999OD159900461999SA1+0361REMSYN080SJSN4 46/// /1509 10073 40204 58013 91800 222// 00036 333 91209 555 11009 22009=
0128997779999992023010219004+39300-075367FM-13+000399999V0201401N005119999999N999999999+00671+99999102011ADDMD1610121+9999OD159900571999SA1+0361REMSYN080SJSN4 46/// /1410 10067 40201 56012 91900 222// 00036 333 91211 555 11010 22011=
0128997779999992023010220004+39300-075367FM-13+000399999V0201201N006219999999N999999999+00731+99999101981ADDMD1610111+9999OD159900721999SA1+0401REMSYN080SJSN4 46/// /1212 10073 40198 56011 92000 222// 00040 333 91214 555 11012 22013=
0128997779999992023010221004+39300-075367FM-13+000399999V0201301N006719999999N999999999+00711+99999101951ADDMD1710091+9999OD159900671999SA1+0371REMSYN080SJSN4 46/// /1313 10071 40195 57009 92100 222// 00037 333 91213 555 11013 22014=
0128997779999992023010222004+39300-075367FM-13+000399999V0201301N005719999999N999999999+00641+99999101971ADDMD1610041+9999OD159900571999SA1+0371REMSYN080SJSN4 46/// /1311 10064 40197 56004 92200 222// 00037 333 91211 555 11010 22011=
0128997779999992023010223004+39300-075367FM-13+000399999V0201301N006219999999N999999999+00691+99999102011ADDMD1310031+9999OD159900671999SA1+0371REMSYN080SJSN4 46/// /1312 10069 40201 53003 92300 222// 00037 333 91213 555 11011 22012=
0128997779999992023010300004+39300-075367FM-13+000399999V0201401N003619999999N999999999+00601+99999102061ADDMD1310111+9999OD159900411999SA1+0361REMSYN080SJSN4 46/// /1407 10060 40206 53011 90000 222// 00036 333 91208 555 11007 22007=
0128997779999992023010301004+39300-075367FM-13+000399999V0201501N003119999999N999999999+00561+99999102061ADDMD1110091+9999OD159900411999SA1+0361REMSYN080SJSN4 46/// /1506 10056 40206 51009 90100 222// 00036 333 91208 555 11006 22007=
0128997779999992023010302004+39300-075367FM-13+000399999V0201701N004619999999N999999999+00721+99999102051ADDMD1110041+9999OD159900461999SA1+0361REMSYN080SJSN4 46/// /1709 10072 40205 51004 90200 222// 00036 333 91209 555 11008 22009=
0128997779999992023010303004+39300-075367FM-13+000399999V0201501N005719999999N999999999+00761+99999102011ADDMD1810051+9999OD159900621999SA1+0361REMSYN080SJSN4 46/// /1511 10076 40201 58005 90300 222// 00036 333 91212 555 11011 22012=
0128997779999992023010304004+39300-075367FM-13+000399999V0201601N006219999999N999999999+00721+99999102011ADDMD1710051+9999OD159900671999SA1+0361REMSYN080SJSN4 46/// /1612 10072 40201 57005 90400 222// 00036 333 91213 555 11012 22013=
0128997779999992023010305004+39300-075367FM-13+000399999V0201401N004619999999N999999999+00651+99999101931ADDMD1810121+9999OD159900511999SA1+0361REMSYN080SJSN4 46/// /1409 10065 40193 58012 90500 222// 00036 333 91210 555 11009 22009=
0128997779999992023010306004+39300-075367FM-13+000399999V0201301N004619999999N999999999+00601+99999101901ADDMD1810111+9999OD159900461999SA1+0371REMSYN080SJSN4 46/// /1309 10060 40190 58011 90600 222// 00037 333 91209 555 11008 22009=
0128997779999992023010307004+39300-075367FM-13+000399999V0201401N005719999999N999999999+00581+99999101901ADDMD1610111+9999OD159900571999SA1+0371REMSYN080SJSN4 46/// /1411 10058 40190 56011 90700 222// 00037 333 91211 555 11011 22012=
0128997779999992023010308004+39300-075367FM-13+000399999V0201401N005719999999N999999999+00551+99999101891ADDMD1610041+9999OD159900621999SA1+0381REMSYN080SJSN4 46/// /1411 10055 40189 56004 90800 222// 00038 333 91212 555 11010 22011=
0128997779999992023010309004+39300-075367FM-13+000399999V0201401N006219999999N999999999+00611+99999101851ADDMD1810051+9999OD159900621999SA1+0371REMSYN080SJSN4 46/// /1412 10061 40185 58005 90900 222// 00037 333 91212 555 11011 22012=
0128997779999992023010310004+39300-075367FM-13+000399999V0201201N006719999999N999999999+00571+99999101791ADDMD1810111+9999OD159900671999SA1+0371REMSYN080SJSN4 46/// /1213 10057 40179 58011 91000 222// 00037 333 91213 555 11012 22013=
0128997779999992023010311004+39300-075367FM-13+000399999V0201201N007219999999N999999999+00571+99999101721ADDMD1810171+9999OD159900721999SA1+0361REMSYN080SJSN4 46/// /1214 10057 40172 58017 91100 222// 00036 333 91214 555 11013 22014=
0128997779999992023010312004+39300-075367FM-13+000399999V0201301N007219999999N999999999+00601+99999101691ADDMD1610161+9999OD159900771999SA1+0371REMSYN080SJSN4 46/// /1314 10060 40169 56016 91200 222// 00037 333 91215 555 11014 22015=
0128997779999992023010313004+39300-075367FM-13+000399999V0201401N007719999999N999999999+00611+99999101651ADDMD1610141+9999OD159900771999SA1+0371REMSYN080SJSN4 46/// /1415 10061 40165 56014 91300 222// 00037 333 91215 555 11014 22015=
0128997779999992023010314004+39300-075367FM-13+000399999V0201301N007219999999N999999999+00591+99999101601ADDMD1810121+9999OD159900721999SA1+0371REMSYN080SJSN4 46/// /1314 10059 40160 58012 91400 222// 00037 333 91214 555 11013 22014=
0128997779999992023010315004+39300-075367FM-13+000399999V0201401N005719999999N999999999+00641+99999101621ADDMD1610071+9999OD159900571999SA1+0371REMSYN080SJSN4 46/// /1411 10064 40162 56007 91500 222// 00037 333 91211 555 11010 22011=
0128997779999992023010316004+39300-075367FM-13+000399999V0201701N001019999999N999999999+00921+99999101581ADDMD1610071+9999OD159900361999SA1+0371REMSYN080SJSN4 46/// /1702 10092 40158 56007 91600 222// 00037 333 91207 555 11002 22002=
0128997779999992023010317004+39300-075367FM-13+000399999V0202201N007719999999N999999999+01421+99999101491ADDMD1810111+9999OD159900881999SA1+0381REMSYN080SJSN4 46/// /2215 10142 40149 58011 91700 222// 00038 333 91217 555 11014 22016=
0128997779999992023010318004+39300-075367FM-13+000399999V0202201N007719999999N999999999+01351+99999101391ADDMD1810231+9999OD159900981999SA1+0391REMSYN080SJSN4 46/// /2215 10135 40139 58023 91800 222// 00039 333 91219 555 11014 22016=
0128997779999992023010319004+39300-075367FM-13+000399999V0202101N008219999999N999999999+01501+99999101221ADDMD1810361+9999OD159900981999SA1+0391REMSYN080SJSN4 46/// /2116 10150 40122 58036 91900 222// 00039 333 91219 555 11015 22017=
0128997779999992023010320004+39300-075367FM-13+000399999V0202101N008219999999N999999999+01471+99999101161ADDMD1610331+9999OD159901081999SA1+0401REMSYN080SJSN4 46/// /2116 10147 40116 56033 92000 222// 00040 333 91221 555 11015 22017=
0128997779999992023010321004+39300-075367FM-13+000399999V0202001N010319999999N999999999+01361+99999101071ADDMD1610321+9999OD159901181999SA1+0441REMSYN080SJSN4 46/// /2020 10136 40107 56032 92100 222// 00044 333 91223 555 11019 22021=
0128997779999992023010322004+39300-075367FM-13+000399999V0202001N007219999999N999999999+01361+99999101071ADDMD1610151+9999OD159900771999SA1+0461REMSYN080SJSN4 46/// /2014 10136 40107 56015 92200 222// 00046 333 91215 555 11014 22015=
0128997779999992023010323004+39300-075367FM-13+000399999V0202001N009319999999N999999999+01411+99999101051ADDMD1610111+9999OD159900981999SA1+0411REMSYN080SJSN4 46/// /2018 10141 40105 56011 92300 222// 00041 333 91219 555 11017 22019=
0128997779999992023010400004+39300-075367FM-13+000399999V0202001N009819999999N999999999+01441+99999101061ADDMD1410001+9999OD159901081999SA1+0401REMSYN080SJSN4 46/// /2019 10144 40106 54000 90000 222// 00040 333 91221 555 11018 22019=
0128997779999992023010401004+39300-075367FM-13+000399999V0202001N009819999999N999999999+01321+99999101061ADDMD1410001+9999OD159901031999SA1+0391REMSYN080SJSN4 46/// /2019 10132 40106 54000 90100 222// 00039 333 91220 555 11018 22020=
0128997779999992023010402004+39300-075367FM-13+000399999V0202001N010819999999N999999999+01381+99999100991ADDMD1810061+9999OD159901131999SA1+0391REMSYN080SJSN4 46/// /2021 10138 40099 58006 90200 222// 00039 333 91222 555 11020 22021=
0128997779999992023010403004+39300-075367FM-13+000399999V0202101N009819999999N999999999+01391+99999100991ADDMD1710071+9999OD159901131999SA1+0391REMSYN080SJSN4 46/// /2119 10139 40099 57007 90300 222// 00039 333 91222 555 11019 22020=
0128997779999992023010404004+39300-075367FM-13+000399999V0202001N010319999999N999999999+01381+99999100871ADDMD1810191+9999OD159901081999SA1+0401REMSYN080SJSN4 46/// /2020 10138 40087 58019 90400 222// 00040 333 91221 555 11019 22021=
0128997779999992023010405004+39300-075367FM-13+000399999V0202101N007219999999N999999999+01441+99999100861ADDMD1710131+9999OD159900881999SA1+0411REMSYN080SJSN4 46/// /2114 10144 40086 57013 90500 222// 00041 333 91217 555 11013 22014=
0128997779999992023010406004+39300-075367FM-13+000399999V0202301N009319999999N999999999+01531+99999100971ADDMD1510001+9999OD159901031999SA1+0421REMSYN080SJSN4 46/// /2318 10153 40097 55000 90600 222// 00042 333 91220 555 11017 22018=
0128997779999992023010407004+39300-075367FM-13+000399999V0202401N009819999999N999999999+01621+99999100991ADDMD1210121+9999OD159901181999SA1+0421REMSYN080SJSN4 46/// /2419 10162 40099 52012 90700 222// 00042 333 91223 555 11018 22020=
0128997779999992023010408004+39300-075367FM-13+000399999V0202401N009319999999N999999999+01591+99999101071ADDMD1110211+9999OD159900981999SA1+0421REMSYN080SJSN4 46/// /2418 10159 40107 51021 90800 222// 00042 333 91219 555 11017 22019=
0128997779999992023010409004+39300-075367FM-13+000399999V0202201N008219999999N999999999+01451+99999101121ADDMD1310151+9999OD159900821999SA1+0431REMSYN080SJSN4 46/// /2216 10145 40112 53015 90900 222// 00043 333 91216 555 11015 22016=
0128997779999992023010410004+39300-075367FM-13+000399999V0202301N005119999999N999999999+01511+99999101071ADDMD1990081+9999OD159900511999SA1+0421REMSYN080SJSN4 46/// /2310 10151 40107 50008 91000 222// 00042 333 91210 555 11010 22010=
0128997779999992023010411004+39300-075367FM-13+000399999V0202001N006719999999N999999999+01351+99999101181ADDMD1310111+9999OD159900721999SA1+0421REMSYN080SJSN4 46/// /2013 10135 40118 53011 91100 222// 00042 333 91214 555 11013 22014=
0128997779999992023010412004+39300-075367FM-13+000399999V0202001N006719999999N999999999+01371+99999101231ADDMD1310111+9999OD159900671999SA1+0411REMSYN080SJSN4 46/// /2013 10137 40123 53011 91200 222// 00041 333 91213 555 11012 22013=
0128997779999992023010413004+39300-075367FM-13+000399999V0202001N005719999999N999999999+01211+99999101291ADDMD1110221+9999OD159900671999SA1+0421REMSYN080SJSN4 46/// /2011 10121 40129 51022 91300 222// 00042 333 91213 555 11011 22012=
0128997779999992023010414004+39300-075367FM-13+000399999V0202001N005119999999N999999999+01421+99999101271ADDMD1110091+9999OD159900621999SA1+0421REMSYN080SJSN4 46/// /2010 10142 40127 51009 91400 222// 00042 333 91212 555 11010 22011=
0128997779999992023010415004+39300-075367FM-13+000399999V0201901N005719999999N999999999+01061+99999101331ADDMD1210101+9999OD159900621999SA1+0421REMSYN080SJSN4 46/// /1911 10106 40133 52010 91500 222// 00042 333 91212 555 11011 22012=
0128997779999992023010416004+39300-075367FM-13+000399999V0201801N005719999999N999999999+01171+99999101301ADDMD1990001+9999OD159900671999SA1+0431REMSYN080SJSN4 46/// /1811 10117 40130 50000 91600 222// 00043 333 91213 555 11010 22011=
0128997779999992023010417004+39300-075367FM-13+000399999V0201701N005719999999N999999999+01021+99999101201ADDMD1810071+9999OD159900621999SA1+0431REMSYN080SJSN4 46/// /1711 10102 40120 58007 91700 222// 00043 333 91212 555 11010 22011=
0128997779999992023010418004+39300-075367FM-13+000399999V0202101N004119999999N999999999+01331+99999101101ADDMD1810231+9999OD159900461999SA1+0441REMSYN080SJSN4 46/// /2108 10133 40110 58023 91800 222// 00044 333 91209 555 11007 22008=
0128997779999992023010419004+39300-075367FM-13+000399999V0201901N004619999999N999999999+01241+99999101021ADDMD1610281+9999OD159900511999SA1+0451REMSYN080SJSN4 46/// /1909 10124 40102 56028 91900 222// 00045 333 91210 555 11008 22009=
0108997779999992023010420004+39300-075367FM-13+000399999V0202001N007719999999N999999999+01421+99999101011ADDOD159900881999SA1+0441REMSYN074SJSN4 46/// /2015 10142 40101 91942 222// 00044 333 91217 555 11014 22015=
0128997779999992023010421004+39300-075367FM-13+000399999V0201301N003619999999N999999999+00891+99999100931ADDMD1710171+9999OD159900461999SA1+0441REMSYN080SJSN4 46/// /1307 10089 40093 57017 92100 222// 00044 333 91209 555 11007 22007=
0128997779999992023010422004+39300-075367FM-13+000399999V0201601N008219999999N999999999+00921+99999100971ADDMD1510051+9999OD159900881999SA1+0501REMSYN080SJSN4 46/// /1616 10092 40097 55005 92200 222// 00050 333 91217 555 11016 22017=
0108997779999992023010423004+39300-075367FM-13+000399999V0202001N008219999999N999999999+01201+99999100991ADDOD159900931999SA1+0471REMSYN074SJSN4 46/// /2016 10120 40099 92242 222// 00047 333 91218 555 11015 22016=
0128997779999992023010500004+39300-075367FM-13+000399999V0201301N004119999999N999999999+00781+99999100901ADDMD1810031+9999OD159900511999SA1+0451REMSYN080SJSN4 46/// /1308 10078 40090 58003 90000 222// 00045 333 91210 555 11008 22009=
0128997779999992023010501004+39300-075367FM-13+000399999V0201501N005719999999N999999999+00741+99999100871ADDMD1810101+9999OD159900671999SA1+0431REMSYN080SJSN4 46/// /1511 10074 40087 58010 90100 222// 00043 333 91213 555 11011 22012=
0128997779999992023010502004+39300-075367FM-13+000399999V0201601N005119999999N999999999+00931+99999100931ADDMD1510081+9999OD159900621999SA1+0441REMSYN080SJSN4 46/// /1610 10093 40093 55008 90200 222// 00044 333 91212 555 11010 22011=
0108997779999992023010503004+39300-075367FM-13+000399999V0201701N003619999999N999999999+01071+99999100941ADDMD1310041+9999OD159900461999REMSYN068SJSN4 46/// /1707 10107 40094 53004 90300 333 91209 555 11007 22007=
0128997779999992023010504004+39300-075367FM-13+000399999V0202301N005719999999N999999999+01401+99999100951ADDMD1110081+9999OD159900621999SA1+0441REMSYN080SJSN4 46/// /2311 10140 40095 51008 90400 222// 00044 333 91212 555 11010 22011=
0128997779999992023010505004+39300-075367FM-13+000399999V0202401N007219999999N999999999+01521+99999101011ADDMD1310081+9999OD159900881999SA1+0441REMSYN080SJSN4 46/// /2414 10152 40101 53008 90500 222// 00044 333 91217 555 11013 22014=
0128997779999992023010506004+39300-075367FM-13+000399999V0202301N006719999999N999999999+01441+99999101061ADDMD1310121+9999OD159900821999SA1+0451REMSYN080SJSN4 46/// /2313 10144 40106 53012 90600 222// 00045 333 91216 555 11013 22014=
0128997779999992023010507004+39300-075367FM-13+000399999V0202401N005719999999N999999999+01551+99999101141ADDMD1310191+9999OD159900621999SA1+0451REMSYN080SJSN4 46/// /2411 10155 40114 53019 90700 222// 00045 333 91212 555 11010 22011=
0128997779999992023010508004+39300-075367FM-13+000399999V0202301N005719999999N999999999+01281+99999101211ADDMD1310201+9999OD159900571999SA1+0451REMSYN080SJSN4 46/// /2311 10128 40121 53020 90800 222// 00045 333 91211 555 11010 22011=
0128997779999992023010509004+39300-075367FM-13+000399999V0202401N005719999999N999999999+01441+99999101261ADDMD1110201+9999OD159900621999SA1+0461REMSYN080SJSN4 46/// /2411 10144 40126 51020 90900 222// 00046 333 91212 555 11011 22012=
0128997779999992023010510004+39300-075367FM-13+000399999V0202401N004619999999N999999999+01231+99999101261ADDMD1110121+9999OD159900461999SA1+0461REMSYN080SJSN4 46/// /2409 10123 40126 51012 91000 222// 00046 333 91209 555 11008 22009=
0128997779999992023010511004+39300-075367FM-13+000399999V0203001N001519999999N999999999+01091+99999101301ADDMD1110091+9999OD159900261999SA1+0451REMSYN080SJSN4 46/// /3003 10109 40130 51009 91100 222// 00045 333 91205 555 11003 22003=
0128997779999992023010512004+39300-075367FM-13+000399999V0200201N002119999999N999999999+00961+99999101361ADDMD1310101+9999OD159900211999SA1+0441REMSYN080SJSN4 46/// /0204 10096 40136 53010 91200 222// 00044 333 91204 555 11004 22004=
0128997779999992023010513004+39300-075367FM-13+000399999V0203501N002619999999N999999999+01031+99999101481ADDMD1310221+9999OD159900261999SA1+0451REMSYN080SJSN4 46/// /3505 10103 40148 53022 91300 222// 00045 333 91205 555 11004 22005=
0128997779999992023010514004+39300-075367FM-13+000399999V0203301N002119999999N999999999+00931+99999101491ADDMD1110191+9999OD159900211999SA1+0451REMSYN080SJSN4 46/// /3304 10093 40149 51019 91400 222// 00045 333 91204 555 11003 22004=
0128997779999992023010515004+39300-075367FM-13+000399999V0203401N002619999999N999999999+00911+99999101551ADDMD1110191+9999OD159900261999SA1+0451REMSYN080SJSN4 46/// /3405 10091 40155 51019 91500 222// 00045 333 91205 555 11005 22005=
0128997779999992023010516004+39300-075367FM-13+000399999V0203501N002119999999N999999999+00941+99999101471ADDMD1990001+9999OD159900261999SA1+0451REMSYN080SJSN4 46/// /3504 10094 40147 50000 91600 222// 00045 333 91205 555 11004 22004=
0128997779999992023010517004+39300-075367FM-13+000399999V0209999C000019999999N999999999+01051+99999101431ADDMD1810061+9999OD159900001999SA1+0461REMSYN080SJSN4 46/// /0000 10105 40143 58006 91700 222// 00046 333 91200 555 11000 22000=
0128997779999992023010518004+39300-075367FM-13+000399999V0202701N001019999999N999999999+01281+99999101371ADDMD1610181+9999OD159900151999SA1+0461REMSYN080SJSN4 46/// /2702 10128 40137 56018 91800 222// 00046 333 91203 555 11002 22002=
0128997779999992023010519004+39300-075367FM-13+000399999V0202901N002119999999N999999999+01301+99999101281ADDMD1810191+9999OD159900211999SA1+0481REMSYN080SJSN4 46/// /2904 10130 40128 58019 91900 222// 00048 333 91204 555 11004 22004=
0128997779999992023010520004+39300-075367FM-13+000399999V0203201N003619999999N999999999+01501+99999101241ADDMD1610191+9999OD159900411999SA1+0491REMSYN080SJSN4 46/// /3207 10150 40124 56019 92000 222// 00049 333 91208 555 11007 22008=
0128997779999992023010521004+39300-075367FM-13+000399999V0203401N003119999999N999999999+01501+99999101271ADDMD1510101+9999OD159900311999SA1+0481REMSYN080SJSN4 46/// /3406 10150 40127 55010 92100 222// 00048 333 91206 555 11005 22006=
0128997779999992023010522004+39300-075367FM-13+000399999V0200401N002619999999N999999999+01481+99999101261ADDMD1510001+9999OD159900261999SA1+0471REMSYN080SJSN4 46/// /0405 10148 40126 55000 92200 222// 00047 333 91205 555 11005 22005=
0128997779999992023010523004+39300-075367FM-13+000399999V0201401N009319999999N999999999+00701+99999101301ADDMD1310061+9999OD159900981999SA1+0491REMSYN080SJSN4 46/// /1418 10070 40130 53006 92300 222// 00049 333 91219 555 11017 22018=
0128997779999992023010600004+39300-075367FM-13+000399999V0201201N007219999999N999999999+00721+99999101351ADDMD1310081+9999OD159900821999SA1+0481REMSYN080SJSN4 46/// /1214 10072 40135 53008 90000 222// 00048 333 91216 555 11013 22014=
0128997779999992023010601004+39300-075367FM-13+000399999V0201501N002619999999N999999999+00621+99999101411ADDMD1310151+9999OD159900411999SA1+0471REMSYN080SJSN4 46/// /1505 10062 40141 53015 90100 222// 00047 333 91208 555 11005 22005=
0128997779999992023010602004+39300-075367FM-13+000399999V0201501N004619999999N999999999+00611+99999101421ADDMD1110121+9999OD159900571999SA1+0471REMSYN080SJSN4 46/// /1509 10061 40142 51012 90200 222// 00047 333 91211 555 11008 22009=
0128997779999992023010603004+39300-075367FM-13+000399999V0201301N006219999999N999999999+00621+99999101411ADDMD1110061+9999OD159900721999SA1+0471REMSYN080SJSN4 46/// /1312 10062 40141 51006 90300 222// 00047 333 91214 555 11012 22013=
0128997779999992023010604004+39300-075367FM-13+000399999V0201201N002119999999N999999999+00621+99999101421ADDMD1410001+9999OD159900311999SA1+0471REMSYN080SJSN4 46/// /1204 10062 40142 54000 90400 222// 00047 333 91206 555 11004 22004=
0128997779999992023010605004+39300-075367FM-13+000399999V0202601N001019999999N999999999+00711+99999101491ADDMD1310071+9999OD159900261999SA1+0471REMSYN080SJSN4 46/// /2602 10071 40149 53007 90500 222// 00047 333 91205 555 11002 22002=
0128997779999992023010606004+39300-075367FM-13+000399999V0201501N003619999999N999999999+00701+99999101411ADDMD1990001+9999OD159900411999SA1+0471REMSYN080SJSN4 46/// /1507 10070 40141 50000 90600 222// 00047 333 91208 555 11007 22007=
0128997779999992023010607004+39300-075367FM-13+000399999V0202201N001519999999N999999999+00671+99999101471ADDMD1110051+9999OD159900211999SA1+0481REMSYN080SJSN4 46/// /2203 10067 40147 51005 90700 222// 00048 333 91204 555 11003 22003=
0128997779999992023010608004+39300-075367FM-13+000399999V0209999C000019999999N999999999+00681+99999101431ADDMD1610061+9999OD159900101999SA1+0481REMSYN080SJSN4 46/// /0000 10068 40143 56006 90800 222// 00048 333 91202 555 11001 22001=
0128997779999992023010609004+39300-075367FM-13+000399999V0201701N001019999999N999999999+00631+99999101421ADDMD1990001+9999OD159900101999SA1+0471REMSYN080SJSN4 46/// /1702 10063 40142 50000 90900 222// 00047 333 91202 555 11002 22002=
0108997779999992023010610004+39300-075367FM-13+000399999V0202401N002119999999N999999999+00711+99999101441ADDMD1610031+9999OD159900211999REMSYN068SJSN4 46/// /2404 10071 40144 56003 91000 333 91204 555 11004 22004=
0128997779999992023010611004+39300-075367FM-13+000399999V0200301N001019999999N999999999+00681+99999101421ADDMD1410001+9999OD159900151999SA1+0471REMSYN080SJSN4 46/// /0302 10068 40142 54000 91100 222// 00047 333 91203 555 11002 22002=
0128997779999992023010612004+39300-075367FM-13+000399999V0203101N002619999999N999999999+00571+99999101451ADDMD1310031+9999OD159900311999SA1+0471REMSYN080SJSN4 46/// /3105 10057 40145 53003 91200 222// 00047 333 91206 555 11005 22006=
0128997779999992023010613004+39300-075367FM-13+000399999V0203001N004119999999N999999999+00601+99999101531ADDMD1310091+9999OD159900461999SA1+0461REMSYN080SJSN4 46/// /3008 10060 40153 53009 91300 222// 00046 333 91209 555 11008 22009=
0128997779999992023010614004+39300-075367FM-13+000399999V0202801N005119999999N999999999+00601+99999101641ADDMD1310221+9999OD159900571999SA1+0471REMSYN080SJSN4 46/// /2810 10060 40164 53022 91400 222// 00047 333 91211 555 11009 22010=
0128997779999992023010615004+39300-075367FM-13+000399999V0202901N004619999999N999999999+00661+99999101661ADDMD1110211+9999OD159900511999SA1+0471REMSYN080SJSN4 46/// /2909 10066 40166 51021 91500 222// 00047 333 91210 555 11008 22009=
0128997779999992023010616004+39300-075367FM-13+000399999V0202901N008219999999N999999999+00751+99999101671ADDMD1110141+9999OD159901081999SA1+0471REMSYN080SJSN4 46/// /2916 10075 40167 51014 91600 222// 00047 333 91221 555 11015 22017=
0128997779999992023010617004+39300-075367FM-13+000399999V0203001N008819999999N999999999+00731+99999101621ADDMD1990001+9999OD159900981999SA1+0481REMSYN080SJSN4 46/// /3017 10073 40162 50000 91700 222// 00048 333 91219 555 11016 22017=
0128997779999992023010618004+39300-075367FM-13+000399999V0203101N005119999999N999999999+00681+99999101601ADDMD1710061+9999OD159900571999SA1+0481REMSYN080SJSN4 46/// /3110 10068 40160 57006 91800 222// 00048 333 91211 555 11010 22011=
0128997779999992023010619004+39300-075367FM-13+000399999V0203101N008219999999N999999999+00741+99999101631ADDMD1510041+9999OD159900931999SA1+0491REMSYN080SJSN4 46/// /3116 10074 40163 55004 91900 222// 00049 333 91218 555 11015 22017=
0128997779999992023010620004+39300-075367FM-13+000399999V0203001N007719999999N999999999+00761+99999101711ADDMD1310091+9999OD159900881999SA1+0481REMSYN080SJSN4 46/// /3015 10076 40171 53009 92000 222// 00048 333 91217 555 11014 22015=
0128997779999992023010621004+39300-075367FM-13+000399999V0203201N006219999999N999999999+00701+99999101811ADDMD1310211+9999OD159900671999SA1+0481REMSYN080SJSN4 46/// /3212 10070 40181 53021 92100 222// 00048 333 91213 555 11011 22012=
0128997779999992023010622004+39300-075367FM-13+000399999V0203001N008219999999N999999999+00681+99999101881ADDMD1110251+9999OD159900881999SA1+0481REMSYN080SJSN4 46/// /3016 10068 40188 51025 92200 222// 00048 333 91217 555 11015 22016=
0128997779999992023010623004+39300-075367FM-13+000399999V0203001N006219999999N999999999+00691+99999101981ADDMD1210271+9999OD159900721999SA1+0491REMSYN080SJSN4 46/// /3012 10069 40198 52027 92300 222// 00049 333 91214 555 11011 22012=
0108997779999992023010700004+39300-075367FM-13+000399999V0203001N007719999999N999999999+00701+99999102051ADDOD159900981999SA1+0491REMSYN074SJSN4 46/// /3015 10070 40205 92342 222// 00049 333 91219 555 11015 22016=
0128997779999992023010701004+39300-075367FM-13+000399999V0203001N007219999999N999999999+00651+99999102131ADDMD1110251+9999OD159900931999SA1+0481REMSYN080SJSN4 46/// /3014 10065 40213 51025 90100 222// 00048 333 91218 555 11014 22015=
0128997779999992023010702004+39300-075367FM-13+000399999V0202901N005719999999N999999999+00591+99999102181ADDMD1110201+9999OD159900671999SA1+0481REMSYN080SJSN4 46/// /2911 10059 40218 51020 90200 222// 00048 333 91213 555 11010 22011=
0128997779999992023010703004+39300-075367FM-13+000399999V0202901N005119999999N999999999+00541+99999102221ADDMD1110151+9999OD159900671999SA1+0481REMSYN080SJSN4 46/// /2910 10054 40222 51015 90300 222// 00048 333 91213 555 11010 22010=
0128997779999992023010704004+39300-075367FM-13+000399999V0202801N005719999999N999999999+00491+99999102211ADDMD1110081+9999OD159900621999SA1+0481REMSYN080SJSN4 46/// /2811 10049 40221 51008 90400 222// 00048 333 91212 555 11010 22011=
0128997779999992023010705004+39300-075367FM-13+000399999V0202901N006219999999N999999999+00511+99999102241ADDMD1110061+9999OD159900671999SA1+0481REMSYN080SJSN4 46/// /2912 10051 40224 51006 90500 222// 00048 333 91213 555 11012 22013=
0128997779999992023010706004+39300-075367FM-13+000399999V0202801N007219999999N999999999+00541+99999102201ADDMD1990001+9999OD159900881999SA1+0481REMSYN080SJSN4 46/// /2814 10054 40220 50000 90600 222// 00048 333 91217 555 11014 22015=
0128997779999992023010707004+39300-075367FM-13+000399999V0202901N006719999999N999999999+00521+99999102201ADDMD1990001+9999OD159900771999SA1+0481REMSYN080SJSN4 46/// /2913 10052 40220 50000 90700 222// 00048 333 91215 555 11012 22013=
0128997779999992023010708004+39300-075367FM-13+000399999V0202701N006719999999N999999999+00511+99999102231ADDMD1510001+9999OD159900721999SA1+0481REMSYN080SJSN4 46/// /2713 10051 40223 55000 90800 222// 00048 333 91214 555 11013 22014=
0108997779999992023010709004+39300-075367FM-13+000399999V0202801N006719999999N999999999+00511+99999102221ADDOD159900771999SA1+0481REMSYN074SJSN4 46/// /2813 10051 40222 90842 222// 00048 333 91215 555 11012 22013=
0128997779999992023010710004+39300-075367FM-13+000399999V0202701N004119999999N999999999+00481+99999102201ADDMD1990001+9999OD159900511999SA1+0481REMSYN080SJSN4 46/// /2708 10048 40220 50000 91000 222// 00048 333 91210 555 11007 22008=
0128997779999992023010711004+39300-075367FM-13+000399999V0202601N005119999999N999999999+00461+99999102251ADDMD1510001+9999OD159900571999SA1+0471REMSYN080SJSN4 46/// /2610 10046 40225 55000 91100 222// 00047 333 91211 555 11010 22010=
0128997779999992023010712004+39300-075367FM-13+000399999V0202601N005719999999N999999999+00431+99999102291ADDMD1310081+9999OD159900621999SA1+0471REMSYN080SJSN4 46/// /2611 10043 40229 53008 91200 222// 00047 333 91212 555 11010 22011=
0128997779999992023010713004+39300-075367FM-13+000399999V0202601N005719999999N999999999+00411+99999102311ADDMD1110111+9999OD159900621999SA1+0471REMSYN080SJSN4 46/// /2611 10041 40231 51011 91300 222// 00047 333 91212 555 11010 22011=
0128997779999992023010714004+39300-075367FM-13+000399999V0202801N006219999999N999999999+00471+99999102341ADDMD1110091+9999OD159900721999SA1+0471REMSYN080SJSN4 46/// /2812 10047 40234 51009 91400 222// 00047 333 91214 555 11011 22012=
0128997779999992023010715004+39300-075367FM-13+000399999V0202901N006719999999N999999999+00551+99999102371ADDMD1310081+9999OD159900721999SA1+0481REMSYN080SJSN4 46/// /2913 10055 40237 53008 91500 222// 00048 333 91214 555 11012 22014=
0128997779999992023010716004+39300-075367FM-13+000399999V0203201N005119999999N999999999+00571+99999102341ADDMD1990031+9999OD159900571999SA1+0481REMSYN080SJSN4 46/// /3210 10057 40234 50003 91600 222// 00048 333 91211 555 11010 22010=
0128997779999992023010717004+39300-075367FM-13+000399999V0203301N006219999999N999999999+00571+99999102261ADDMD1810081+9999OD159900671999SA1+0481REMSYN080SJSN4 46/// /3312 10057 40226 58008 91700 222// 00048 333 91213 555 11011 22012=
0128997779999992023010718004+39300-075367FM-13+000399999V0203201N006219999999N999999999+00591+99999102201ADDMD1810171+9999OD159900621999SA1+0491REMSYN080SJSN4 46/// /3212 10059 40220 58017 91800 222// 00049 333 91212 555 11011 22012=
0128997779999992023010719004+39300-075367FM-13+000399999V0203301N006719999999N999999999+00601+99999102171ADDMD1610171+9999OD159900721999SA1+0491REMSYN080SJSN4 46/// /3313 10060 40217 56017 91900 222// 00049 333 91214 555 11012 22013=
0128997779999992023010720004+39300-075367FM-13+000399999V0203201N004619999999N999999999+00661+99999102181ADDMD1610081+9999OD159900511999SA1+0491REMSYN080SJSN4 46/// /3209 10066 40218 56008 92000 222// 00049 333 91210 555 11008 22009=
0128997779999992023010721004+39300-075367FM-13+000399999V0203201N006719999999N999999999+00641+99999102241ADDMD1310041+9999OD159900721999SA1+0491REMSYN080SJSN4 46/// /3213 10064 40224 53004 92100 222// 00049 333 91214 555 11013 22014=
0128997779999992023010722004+39300-075367FM-13+000399999V0203201N006219999999N999999999+00651+99999102311ADDMD1310141+9999OD159900671999SA1+0491REMSYN080SJSN4 46/// /3212 10065 40231 53014 92200 222// 00049 333 91213 555 11011 22012=
0128997779999992023010723004+39300-075367FM-13+000399999V0202901N005719999999N999999999+00631+99999102401ADDMD1310221+9999OD159900621999SA1+0491REMSYN080SJSN4 46/// /2911 10063 40240 53022 92300 222// 00049 333 91212 555 11010 22011=
0128997779999992023010800004+39300-075367FM-13+000399999V0202901N005119999999N999999999+00591+99999102461ADDMD1110221+9999OD159900621999SA1+0491REMSYN080SJSN4 46/// /2910 10059 40246 51022 90000 222// 00049 333 91212 555 11010 22011=
0128997779999992023010801004+39300-075367FM-13+000399999V0202901N006219999999N999999999+00601+99999102521ADDMD1110211+9999OD159900671999SA1+0491REMSYN080SJSN4 46/// /2912 10060 40252 51021 90100 222// 00049 333 91213 555 11011 22012=
0128997779999992023010802004+39300-075367FM-13+000399999V0203101N007219999999N999999999+00591+99999102541ADDMD1110141+9999OD159900881999SA1+0491REMSYN080SJSN4 46/// /3114 10059 40254 51014 90200 222// 00049 333 91217 555 11014 22015=
0128997779999992023010803004+39300-075367FM-13+000399999V0202901N005719999999N999999999+00531+99999102601ADDMD1210141+9999OD159900671999SA1+0481REMSYN080SJSN4 46/// /2911 10053 40260 52014 90300 222// 00048 333 91213 555 11011 22012=
0128997779999992023010804004+39300-075367FM-13+000399999V0203001N007219999999N999999999+00501+99999102621ADDMD1210101+9999OD159900821999SA1+0481REMSYN080SJSN4 46/// /3014 10050 40262 52010 90400 222// 00048 333 91216 555 11013 22014=
0128997779999992023010805004+39300-075367FM-13+000399999V0203001N006719999999N999999999+00451+99999102601ADDMD1110061+9999OD159900721999SA1+0491REMSYN080SJSN4 46/// /3013 10045 40260 51006 90500 222// 00049 333 91214 555 11012 22014=
0128997779999992023010806004+39300-075367FM-13+000399999V0202901N005719999999N999999999+00381+99999102631ADDMD1310031+9999OD159900671999SA1+0491REMSYN080SJSN4 46/// /2911 10038 40263 53003 90600 222// 00049 333 91213 555 11011 22012=
0128997779999992023010807004+39300-075367FM-13+000399999V0203001N005119999999N999999999+00331+99999102661ADDMD1310041+9999OD159900571999SA1+0481REMSYN080SJSN4 46/// /3010 10033 40266 53004 90700 222// 00048 333 91211 555 11010 22010=
0128997779999992023010808004+39300-075367FM-13+000399999V0203101N006219999999N999999999+00331+99999102681ADDMD1110081+9999OD159900671999SA1+0481REMSYN080SJSN4 46/// /3112 10033 40268 51008 90800 222// 00048 333 91213 555 11012 22013=
0108997779999992023010809004+39300-075367FM-13+000399999V0203001N006219999999N999999999+00311+99999102691ADDOD159900621999SA1+0481REMSYN074SJSN4 46/// /3012 10031 40269 90848 222// 00048 333 91212 555 11011 22012=
0128997779999992023010810004+39300-075367FM-13+000399999V0202901N004119999999N999999999+00251+99999102711ADDMD1310051+9999OD159900461999SA1+0481REMSYN080SJSN4 46/// /2908 10025 40271 53005 91000 222// 00048 333 91209 555 11008 22009=
0128997779999992023010811004+39300-075367FM-13+000399999V0203101N004619999999N999999999+00291+99999102731ADDMD1210051+9999OD159900571999SA1+0471REMSYN080SJSN4 46/// /3109 10029 40273 52005 91100 222// 00047 333 91211 555 11009 22010=
0128997779999992023010812004+39300-075367FM-13+000399999V0203201N005119999999N999999999+00301+99999102741ADDMD1110061+9999OD159900511999SA1+0461REMSYN080SJSN4 46/// /3210 10030 40274 51006 91200 222// 00046 333 91210 555 11009 22010=
0128997779999992023010813004+39300-075367FM-13+000399999V0203001N002619999999N999999999+00281+99999102761ADDMD1210051+9999OD159900411999SA1+0471REMSYN080SJSN4 46/// /3005 10028 40276 52005 91300 222// 00047 333 91208 555 11005 22006=
0128997779999992023010814004+39300-075367FM-13+000399999V0203401N003619999999N999999999+00301+99999102811ADDMD1310081+9999OD159900411999SA1+0461REMSYN080SJSN4 46/// /3407 10030 40281 53008 91400 222// 00046 333 91208 555 11007 22007=
0128997779999992023010815004+39300-075367FM-13+000399999V0203501N001519999999N999999999+00281+99999102811ADDMD1210071+9999OD159900211999SA1+0471REMSYN080SJSN4 46/// /3503 10028 40281 52007 91500 222// 00047 333 91204 555 11003 22003=
0128997779999992023010816004+39300-075367FM-13+000399999V0202401N001019999999N999999999+00381+99999102791ADDMD1110031+9999OD159900151999SA1+0471REMSYN080SJSN4 46/// /2402 10038 40279 51003 91600 222// 00047 333 91203 555 11002 22002=
0128997779999992023010817004+39300-075367FM-13+000399999V0201801N002119999999N999999999+00381+99999102731ADDMD1810081+9999OD159900261999SA1+0481REMSYN080SJSN4 46/// /1804 10038 40273 58008 91700 222// 00048 333 91205 555 11004 22004=
0128997779999992023010818004+39300-075367FM-13+000399999V0201401N003619999999N999999999+00361+99999102611ADDMD1810201+9999OD159900411999SA1+0481REMSYN080SJSN4 46/// /1407 10036 40261 58020 91800 222// 00048 333 91208 555 11007 22008=
0128997779999992023010819004+39300-075367FM-13+000399999V0201301N004619999999N999999999+00371+99999102491ADDMD1810301+9999OD159900511999SA1+0481REMSYN080SJSN4 46/// /1309 10037 40249 58030 91900 222// 00048 333 91210 555 11009 22010=
0128997779999992023010820004+39300-075367FM-13+000399999V0201501N004119999999N999999999+00411+99999102511ADDMD1610221+9999OD159900511999SA1+0491REMSYN080SJSN4 46/// /1508 10041 40251 56022 92000 222// 00049 333 91210 555 11008 22009=
0128997779999992023010821004+39300-075367FM-13+000399999V0201401N004119999999N999999999+00421+99999102441ADDMD1610171+9999OD159900461999SA1+0491REMSYN080SJSN4 46/// /1408 10042 40244 56017 92100 222// 00049 333 91209 555 11008 22008=
0128997779999992023010822004+39300-075367FM-13+000399999V0201501N004619999999N999999999+00431+99999102411ADDMD1810081+9999OD159900571999SA1+0491REMSYN080SJSN4 46/// /1509 10043 40241 58008 92200 222// 00049 333 91211 555 11009 22010=
0128997779999992023010823004+39300-075367FM-13+000399999V0201501N005119999999N999999999+00451+99999102331ADDMD1810181+9999OD159900571999SA1+0481REMSYN080SJSN4 46/// /1510 10045 40233 58018 92300 222// 00048 333 91211 555 11009 22010=
0128997779999992023010900004+39300-075367FM-13+000399999V0201601N005719999999N999999999+00491+99999102311ADDMD1610131+9999OD159900671999SA1+0481REMSYN080SJSN4 46/// /1611 10049 40231 56013 90000 222// 00048 333 91213 555 11010 22011=
0128997779999992023010901004+39300-075367FM-13+000399999V0201901N005119999999N999999999+00511+99999102291ADDMD1610121+9999OD159900571999SA1+0481REMSYN080SJSN4 46/// /1910 10051 40229 56012 90100 222// 00048 333 91211 555 11009 22010=
0128997779999992023010902004+39300-075367FM-13+000399999V0201801N005119999999N999999999+00511+99999102211ADDMD1810121+9999OD159900621999SA1+0481REMSYN080SJSN4 46/// /1810 10051 40221 58012 90200 222// 00048 333 91212 555 11010 22010=
0128997779999992023010903004+39300-075367FM-13+000399999V0201901N007719999999N999999999+00491+99999102101ADDMD1810211+9999OD159900821999SA1+0481REMSYN080SJSN4 46/// /1915 10049 40210 58021 90300 222// 00048 333 91216 555 11014 22015=
0108997779999992023010904004+39300-075367FM-13+000399999V0201801N007719999999N999999999+00431+99999101991ADDOD159900881999SA1+0491REMSYN074SJSN4 46/// /1815 10043 40199 90354 222// 00049 333 91217 555 11014 22016=
0128997779999992023010905004+39300-075367FM-13+000399999V0201801N006219999999N999999999+00421+99999101921ADDMD1610291+9999OD159900671999SA1+0491REMSYN080SJSN4 46/// /1812 10042 40192 56029 90500 222// 00049 333 91213 555 11011 22012=
0128997779999992023010906004+39300-075367FM-13+000399999V0201701N006719999999N999999999+00421+99999101781ADDMD1810321+9999OD159900721999SA1+0491REMSYN080SJSN4 46/// /1713 10042 40178 58032 90600 222// 00049 333 91214 555 11012 22013=
0128997779999992023010907004+39300-075367FM-13+000399999V0201701N003619999999N999999999+00421+99999101681ADDMD1810311+9999OD159900411999SA1+0491REMSYN080SJSN4 46/// /1707 10042 40168 58031 90700 222// 00049 333 91208 555 11007 22007=
0128997779999992023010908004+39300-075367FM-13+000399999V0202701N002119999999N999999999+00411+99999101611ADDMD1610311+9999OD159900261999SA1+0481REMSYN080SJSN4 46/// /2704 10041 40161 56031 90800 222// 00048 333 91205 555 11004 22004=
0128997779999992023010909004+39300-075367FM-13+000399999V0203301N001019999999N999999999+00381+99999101531ADDMD1610251+9999OD159900151999SA1+0481REMSYN080SJSN4 46/// /3302 10038 40153 56025 90900 222// 00048 333 91203 555 11002 22002=
0128997779999992023010910004+39300-075367FM-13+000399999V0203201N002119999999N999999999+00371+99999101501ADDMD1610181+9999OD159900211999SA1+0481REMSYN080SJSN4 46/// /3204 10037 40150 56018 91000 222// 00048 333 91204 555 11004 22004=
0128997779999992023010911004+39300-075367FM-13+000399999V0202801N003119999999N999999999+00381+99999101491ADDMD1610121+9999OD159900361999SA1+0481REMSYN080SJSN4 46/// /2806 10038 40149 56012 91100 222// 00048 333 91207 555 11006 22006=
0128997779999992023010912004+39300-075367FM-13+000399999V0203001N005719999999N999999999+00391+99999101491ADDMD1610041+9999OD159900671999SA1+0481REMSYN080SJSN4 46/// /3011 10039 40149 56004 91200 222// 00048 333 91213 555 11011 22012=
0128997779999992023010913004+39300-075367FM-13+000399999V0203101N007219999999N999999999+00391+99999101541ADDMD1310041+9999OD159900771999SA1+0481REMSYN080SJSN4 46/// /3114 10039 40154 53004 91300 222// 00048 333 91215 555 11013 22014=
0128997779999992023010914004+39300-075367FM-13+000399999V0203201N007719999999N999999999+00381+99999101581ADDMD1310091+9999OD159900881999SA1+0481REMSYN080SJSN4 46/// /3215 10038 40158 53009 91400 222// 00048 333 91217 555 11014 22015=
0128997779999992023010915004+39300-075367FM-13+000399999V0203101N007719999999N999999999+00371+99999101611ADDMD1110121+9999OD159900881999SA1+0481REMSYN080SJSN4 46/// /3115 10037 40161 51012 91500 222// 00048 333 91217 555 11015 22016=
0128997779999992023010916004+39300-075367FM-13+000399999V0203101N006219999999N999999999+00391+99999101581ADDMD1990041+9999OD159900721999SA1+0491REMSYN080SJSN4 46/// /3112 10039 40158 50004 91600 222// 00049 333 91214 555 11012 22013=
0128997779999992023010917004+39300-075367FM-13+000399999V0203101N008819999999N999999999+00431+99999101521ADDMD1810061+9999OD159900981999SA1+0491REMSYN080SJSN4 46/// /3117 10043 40152 58006 91700 222// 00049 333 91219 555 11016 22018=
0128997779999992023010918004+39300-075367FM-13+000399999V0203301N007719999999N999999999+00451+99999101491ADDMD1710121+9999OD159900931999SA1+0501REMSYN080SJSN4 46/// /3315 10045 40149 57012 91800 222// 00050 333 91218 555 11014 22016=
0128997779999992023010919004+39300-075367FM-13+000399999V0203201N007219999999N999999999+00511+99999101441ADDMD1610141+9999OD159900881999SA1+0511REMSYN080SJSN4 46/// /3214 10051 40144 56014 91900 222// 00051 333 91217 555 11013 22014=
0128997779999992023010920004+39300-075367FM-13+000399999V0203101N009319999999N999999999+00551+99999101471ADDMD1510051+9999OD159900981999SA1+0511REMSYN080SJSN4 46/// /3118 10055 40147 55005 92000 222// 00051 333 91219 555 11017 22018=
0108997779999992023010921004+39300-075367FM-13+000399999V0203101N008219999999N999999999+00561+99999101501ADDOD159900931999SA1+0511REMSYN074SJSN4 46/// /3116 10056 40150 92036 222// 00051 333 91218 555 11016 22017=
0128997779999992023010922004+39300-075367FM-13+000399999V0203101N007719999999N999999999+00551+99999101541ADDMD1310101+9999OD159900881999SA1+0501REMSYN080SJSN4 46/// /3115 10055 40154 53010 92200 222// 00050 333 91217 555 11014 22015=
0128997779999992023010923004+39300-075367FM-13+000399999V0202901N006219999999N999999999+00521+99999101581ADDMD1310111+9999OD159900671999SA1+0501REMSYN080SJSN4 46/// /2912 10052 40158 53011 92300 222// 00050 333 91213 555 11012 22013=
0128997779999992023011000004+39300-075367FM-13+000399999V0202901N004619999999N999999999+00481+99999101621ADDMD1210121+9999OD159900571999SA1+0491REMSYN080SJSN4 46/// /2909 10048 40162 52012 90000 222// 00049 333 91211 555 11009 22010=
0128997779999992023011001004+39300-075367FM-13+000399999V0202701N005119999999N999999999+00451+99999101631ADDMD1110091+9999OD159900571999SA1+0501REMSYN080SJSN4 46/// /2710 10045 40163 51009 90100 222// 00050 333 91211 555 11010 22010=
0128997779999992023011002004+39300-075367FM-13+000399999V0202601N005119999999N999999999+00431+99999101621ADDMD1110041+9999OD159900571999SA1+0501REMSYN080SJSN4 46/// /2610 10043 40162 51004 90200 222// 00050 333 91211 555 11009 22010=
0128997779999992023011003004+39300-075367FM-13+000399999V0202601N005719999999N999999999+00421+99999101641ADDMD1410001+9999OD159900671999SA1+0491REMSYN080SJSN4 46/// /2611 10042 40164 54000 90300 222// 00049 333 91213 555 11011 22012=
0128997779999992023011004004+39300-075367FM-13+000399999V0202601N004619999999N999999999+00371+99999101661ADDMD1210031+9999OD159900571999SA1+0481REMSYN080SJSN4 46/// /2609 10037 40166 52003 90400 222// 00048 333 91211 555 11008 22009=
0128997779999992023011005004+39300-075367FM-13+000399999V0202801N005119999999N999999999+00381+99999101681ADDMD1210061+9999OD159900621999SA1+0491REMSYN080SJSN4 46/// /2810 10038 40168 52006 90500 222// 00049 333 91212 555 11009 22010=
0128997779999992023011006004+39300-075367FM-13+000399999V0202801N006219999999N999999999+00361+99999101721ADDMD1310081+9999OD159900671999SA1+0491REMSYN080SJSN4 46/// /2812 10036 40172 53008 90600 222// 00049 333 91213 555 11011 22012=
0128997779999992023011007004+39300-075367FM-13+000399999V0202901N004619999999N999999999+00291+99999101741ADDMD1210081+9999OD159900571999SA1+0491REMSYN080SJSN4 46/// /2909 10029 40174 52008 90700 222// 00049 333 91211 555 11009 22009=
0128997779999992023011008004+39300-075367FM-13+000399999V0202901N004619999999N999999999+00241+99999101791ADDMD1310111+9999OD159900571999SA1+0491REMSYN080SJSN4 46/// /2909 10024 40179 53011 90800 222// 00049 333 91211 555 11008 22009=
0128997779999992023011009004+39300-075367FM-13+000399999V0203001N006719999999N999999999+00331+99999101821ADDMD1310101+9999OD159900771999SA1+0481REMSYN080SJSN4 46/// /3013 10033 40182 53010 90900 222// 00048 333 91215 555 11013 22014=
0128997779999992023011010004+39300-075367FM-13+000399999V0202801N004619999999N999999999+00231+99999101871ADDMD1210131+9999OD159900511999SA1+0471REMSYN080SJSN4 46/// /2809 10023 40187 52013 91000 222// 00047 333 91210 555 11009 22009=
0128997779999992023011011004+39300-075367FM-13+000399999V0202701N004619999999N999999999+00231+99999101911ADDMD1310121+9999OD159900511999SA1+0471REMSYN080SJSN4 46/// /2709 10023 40191 53012 91100 222// 00047 333 91210 555 11009 22010=
0108997779999992023011012004+39300-075367FM-13+000399999V0202701N004619999999N999999999+00201+99999101931ADDOD159900511999SA1+0471REMSYN074SJSN4 46/// /2709 10020 40193 91136 222// 00047 333 91210 555 11008 22009=
0128997779999992023011013004+39300-075367FM-13+000399999V0202701N004619999999N999999999+00211+99999101981ADDMD1210111+9999OD159900511999SA1+0461REMSYN080SJSN4 46/// /2709 10021 40198 52011 91300 222// 00046 333 91210 555 11009 22010=
0108997779999992023011014004+39300-075367FM-13+000399999V0202801N005719999999N999999999+00251+99999101991ADDOD159900621999SA1+0451REMSYN074SJSN4 46/// /2811 10025 40199 91336 222// 00045 333 91212 555 11010 22011=
0128997779999992023011015004+39300-075367FM-13+000399999V0202801N004119999999N999999999+00331+99999102001ADDMD1110061+9999OD159900511999SA1+0471REMSYN080SJSN4 46/// /2808 10033 40200 51006 91500 222// 00047 333 91210 555 11008 22009=
0128997779999992023011016004+39300-075367FM-13+000399999V0203101N005119999999N999999999+00371+99999101971ADDMD1990001+9999OD159900621999SA1+0481REMSYN080SJSN4 46/// /3110 10037 40197 50000 91600 222// 00048 333 91212 555 11009 22010=
0128997779999992023011017004+39300-075367FM-13+000399999V0203101N004119999999N999999999+00381+99999101911ADDMD1810071+9999OD159900511999SA1+0481REMSYN080SJSN4 46/// /3108 10038 40191 58007 91700 222// 00048 333 91210 555 11008 22009=
0128997779999992023011018004+39300-075367FM-13+000399999V0203201N003619999999N999999999+00421+99999101841ADDMD1810161+9999OD159900411999SA1+0481REMSYN080SJSN4 46/// /3207 10042 40184 58016 91800 222// 00048 333 91208 555 11007 22007=
0128997779999992023011019004+39300-075367FM-13+000399999V0203401N002619999999N999999999+00441+99999101761ADDMD1810211+9999OD159900311999SA1+0481REMSYN080SJSN4 46/// /3405 10044 40176 58021 91900 222// 00048 333 91206 555 11005 22005=
0088997779999992023011020004+39300-075367FM-13+000399999V02099999999999999999N999999999+00451+99999101751ADDMD1610161+9999SA1+0481REMSYN054SJSN4 46/// ///// 10045 40175 56016 92000 222// 00048=
0128997779999992023011021004+39300-075367FM-13+000399999V0209999C000019999999N999999999+00471+99999101781ADDMD1510061+9999OD159900001999SA1+0481REMSYN080SJSN4 46/// /0000 10047 40178 55006 92100 222// 00048 333 91200 555 11000 22000=
0128997779999992023011022004+39300-075367FM-13+000399999V0202101N001019999999N999999999+00461+99999101801ADDMD1210041+9999OD159900101999SA1+0481REMSYN080SJSN4 46/// /2102 10046 40180 52004 92200 222// 00048 333 91202 555 11002 22002=
0128997779999992023011023004+39300-075367FM-13+000399999V0202001N001519999999N999999999+00451+99999101851ADDMD1310101+9999OD159900211999SA1+0481REMSYN080SJSN4 46/// /2003 10045 40185 53010 92300 222// 00048 333 91204 555 11003 22003=
0128997779999992023011100004+39300-075367FM-13+000399999V0201901N001519999999N999999999+00441+99999101871ADDMD1210091+9999OD159900211999SA1+0481REMSYN080SJSN4 46/// /1903 10044 40187 52009 90000 222// 00048 333 91204 555 11003 22003=
0128997779999992023011101004+39300-075367FM-13+000399999V0202101N002119999999N999999999+00441+99999101901ADDMD1110101+9999OD159900211999SA1+0481REMSYN080SJSN4 46/// /2104 10044 40190 51010 90100 222// 00048 333 91204 555 11004 22004=
0128997779999992023011102004+39300-075367FM-13+000399999V0202101N002619999999N999999999+00411+99999101961ADDMD1310111+9999OD159900361999SA1+0491REMSYN080SJSN4 46/// /2105 10041 40196 53011 90200 222// 00049 333 91207 555 11005 22006=
0128997779999992023011103004+39300-075367FM-13+000399999V0202301N001519999999N999999999+00351+99999101981ADDMD1110111+9999OD159900211999SA1+0491REMSYN080SJSN4 46/// /2303 10035 40198 51011 90300 222// 00049 333 91204 555 11003 22003=
0128997779999992023011104004+39300-075367FM-13+000399999V0209999C000019999999N999999999+00331+99999102001ADDMD1110101+9999OD159900051999SA1+0481REMSYN080SJSN4 46/// /0000 10033 40200 51010 90400 222// 00048 333 91201 555 11000 22000=
0128997779999992023011105004+39300-075367FM-13+000399999V0200101N001019999999N999999999+00331+99999102001ADDMD1210041+9999OD159900151999SA1+0481REMSYN080SJSN4 46/// /0102 10033 40200 52004 90500 222// 00048 333 91203 555 11002 22002=
0128997779999992023011106004+39300-075367FM-13+000399999V0200601N001019999999N999999999+00311+99999102021ADDMD1210041+9999OD159900101999SA1+0491REMSYN080SJSN4 46/// /0602 10031 40202 52004 90600 222// 00049 333 91202 555 11002 22002=
0128997779999992023011107004+39300-075367FM-13+000399999V0200301N001519999999N999999999+00291+99999102051ADDMD1310051+9999OD159900211999SA1+0491REMSYN080SJSN4 46/// /0303 10029 40205 53005 90700 222// 00049 333 91204 555 11003 22003=
0128997779999992023011108004+39300-075367FM-13+000399999V0200101N001519999999N999999999+00251+99999102131ADDMD1310131+9999OD159900211999SA1+0491REMSYN080SJSN4 46/// /0103 10025 40213 53013 90800 222// 00049 333 91204 555 11003 22003=
0128997779999992023011109004+39300-075367FM-13+000399999V0203401N002619999999N999999999+00241+99999102161ADDMD1210141+9999OD159900261999SA1+0481REMSYN080SJSN4 46/// /3405 10024 40216 52014 90900 222// 00048 333 91205 555 11005 22005=
0108997779999992023011110004+39300-075367FM-13+000399999V0200301N003619999999N999999999+00281+99999102121ADDOD159900411999SA1+0471REMSYN074SJSN4 46/// /0307 10028 40212 90948 222// 00047 333 91208 555 11007 22007=
0128997779999992023011111004+39300-075367FM-13+000399999V0200501N003119999999N999999999+00221+99999102161ADDMD1310031+9999OD159900361999SA1+0461REMSYN080SJSN4 46/// /0506 10022 40216 53003 91100 222// 00046 333 91207 555 11006 22006=
0128997779999992023011112004+39300-075367FM-13+000399999V0200401N003119999999N999999999+00221+99999102271ADDMD1310111+9999OD159900361999SA1+0471REMSYN080SJSN4 46/// /0406 10022 40227 53011 91200 222// 00047 333 91207 555 11006 22006=
0128997779999992023011113004+39300-075367FM-13+000399999V0200701N003119999999N999999999+00191+99999102291ADDMD1110201+9999OD159900361999SA1+0461REMSYN080SJSN4 46/// /0706 10019 40229 51020 91300 222// 00046 333 91207 555 11006 22006=
0128997779999992023011114004+39300-075367FM-13+000399999V0200801N003619999999N999999999+00251+99999102271ADDMD1110111+9999OD159900411999SA1+0451REMSYN080SJSN4 46/// /0807 10025 40227 51011 91400 222// 00045 333 91208 555 11007 22007=
0128997779999992023011115004+39300-075367FM-13+000399999V0200801N001519999999N999999999+00371+99999102391ADDMD1310121+9999OD159900261999SA1+0461REMSYN080SJSN4 46/// /0803 10037 40239 53012 91500 222// 00046 333 91205 555 11003 22003=
0128997779999992023011116004+39300-075367FM-13+000399999V0201001N004619999999N999999999+00461+99999102381ADDMD1210091+9999OD159900511999SA1+0471REMSYN080SJSN4 46/// /1009 10046 40238 52009 91600 222// 00047 333 91210 555 11008 22009=
0128997779999992023011117004+39300-075367FM-13+000399999V0201401N003619999999N999999999+00521+99999102361ADDMD1110091+9999OD159900411999SA1+0491REMSYN080SJSN4 46/// /1407 10052 40236 51009 91700 222// 00049 333 91208 555 11007 22008=
0128997779999992023011118004+39300-075367FM-13+000399999V0201301N004619999999N999999999+00521+99999102261ADDMD1810131+9999OD159900511999SA1+0491REMSYN080SJSN4 46/// /1309 10052 40226 58013 91800 222// 00049 333 91210 555 11009 22010=
0128997779999992023011119004+39300-075367FM-13+000399999V0201601N004119999999N999999999+00531+99999102281ADDMD1710101+9999OD159900461999SA1+0491REMSYN080SJSN4 46/// /1608 10053 40228 57010 91900 222// 00049 333 91209 555 11008 22009=
0128997779999992023011120004+39300-075367FM-13+000399999V0201401N005119999999N999999999+00541+99999102281ADDMD1610081+9999OD159900571999SA1+0491REMSYN080SJSN4 46/// /1410 10054 40228 56008 92000 222// 00049 333 91211 555 11010 22011=
0128997779999992023011121004+39300-075367FM-13+000399999V0201401N006219999999N999999999+00541+99999102331ADDMD1310071+9999OD159900721999SA1+0491REMSYN080SJSN4 46/// /1412 10054 40233 53007 92100 222// 00049 333 91214 555 11011 22012=
0128997779999992023011122004+39300-075367FM-13+000399999V0201301N006719999999N999999999+00511+99999102331ADDMD1210051+9999OD159900771999SA1+0491REMSYN080SJSN4 46/// /1313 10051 40233 52005 92200 222// 00049 333 91215 555 11013 22014=
0128997779999992023011123004+39300-075367FM-13+000399999V0201201N006219999999N999999999+00491+99999102341ADDMD1110061+9999OD159900721999SA1+0491REMSYN080SJSN4 46/// /1212 10049 40234 51006 92300 222// 00049 333 91214 555 11011 22012=
0128997779999992023011200004+39300-075367FM-13+000399999V0201101N006219999999N999999999+00471+99999102361ADDMD1210031+9999OD159900721999SA1+0481REMSYN080SJSN4 46/// /1112 10047 40236 52003 90000 222// 00048 333 91214 555 11012 22013=
0128997779999992023011201004+39300-075367FM-13+000399999V0201001N004619999999N999999999+00421+99999102351ADDMD1410001+9999OD159900571999SA1+0471REMSYN080SJSN4 46/// /1009 10042 40235 54000 90100 222// 00047 333 91211 555 11009 22010=
0128997779999992023011202004+39300-075367FM-13+000399999V0201001N004619999999N999999999+00431+99999102341ADDMD1410001+9999OD159900511999SA1+0481REMSYN080SJSN4 46/// /1009 10043 40234 54000 90200 222// 00048 333 91210 555 11009 22009=
0128997779999992023011203004+39300-075367FM-13+000399999V0200901N001519999999N999999999+00401+99999102401ADDMD1310041+9999OD159900211999SA1+0481REMSYN080SJSN4 46/// /0903 10040 40240 53004 90300 222// 00048 333 91204 555 11003 22003=
0128997779999992023011204004+39300-075367FM-13+000399999V0200701N002619999999N999999999+00391+99999102371ADDMD1990001+9999OD159900311999SA1+0481REMSYN080SJSN4 46/// /0705 10039 40237 50000 90400 222// 00048 333 91206 555 11005 22005=
0128997779999992023011205004+39300-075367FM-13+000399999V0200901N003119999999N999999999+00391+99999102251ADDMD1810091+9999OD159900411999SA1+0491REMSYN080SJSN4 46/// /0906 10039 40225 58009 90500 222// 00049 333 91208 555 11006 22006=
0128997779999992023011206004+39300-075367FM-13+000399999V0200801N002119999999N999999999+00401+99999102211ADDMD1810191+9999OD159900261999SA1+0491REMSYN080SJSN4 46/// /0804 10040 40221 58019 90600 222// 00049 333 91205 555 11004 22004=
0128997779999992023011207004+39300-075367FM-13+000399999V0200901N003619999999N999999999+00441+99999102161ADDMD1610211+9999OD159900511999SA1+0491REMSYN080SJSN4 46/// /0907 10044 40216 56021 90700 222// 00049 333 91210 555 11007 22007=
0128997779999992023011208004+39300-075367FM-13+000399999V0201001N006219999999N999999999+00491+99999102121ADDMD1710131+9999OD159900721999SA1+0491REMSYN080SJSN4 46/// /1012 10049 40212 57013 90800 222// 00049 333 91214 555 11011 22012=
0128997779999992023011209004+39300-075367FM-13+000399999V0200901N004619999999N999999999+00511+99999102021ADDMD1810191+9999OD159900621999SA1+0491REMSYN080SJSN4 46/// /0909 10051 40202 58019 90900 222// 00049 333 91212 555 11008 22009=
0108997779999992023011210004+39300-075367FM-13+000399999V0201001N005119999999N999999999+00521+99999102011ADDMD1610151+9999OD159900571999REMSYN068SJSN4 46/// /1010 10052 40201 56015 91000 333 91211 555 11009 22010=
0128997779999992023011211004+39300-075367FM-13+000399999V0201001N004619999999N999999999+00561+99999102031ADDMD1610091+9999OD159900571999SA1+0481REMSYN080SJSN4 46/// /1009 10056 40203 56009 91100 222// 00048 333 91211 555 11009 22010=
0128997779999992023011212004+39300-075367FM-13+000399999V0201001N005119999999N999999999+00601+99999101991ADDMD1810031+9999OD159900621999SA1+0481REMSYN080SJSN4 46/// /1010 10060 40199 58003 91200 222// 00048 333 91212 555 11010 22011=
0128997779999992023011213004+39300-075367FM-13+000399999V0201101N006219999999N999999999+00631+99999101951ADDMD1810061+9999OD159900771999SA1+0481REMSYN080SJSN4 46/// /1112 10063 40195 58006 91300 222// 00048 333 91215 555 11011 22012=
0128997779999992023011214004+39300-075367FM-13+000399999V0201201N006219999999N999999999+00681+99999101951ADDMD1610081+9999OD159900671999SA1+0481REMSYN080SJSN4 46/// /1212 10068 40195 56008 91400 222// 00048 333 91213 555 11012 22013=
0128997779999992023011223004+39300-075367FM-13+000399999V0201201N007719999999N999999999+00761+99999101001ADDMD1810251+9999OD159900821999SA1+0511REMSYN080SJSN4 46/// /1215 10076 40100 58025 92300 222// 00051 333 91216 555 11014 22015=
0128997779999992023011300004+39300-075367FM-13+000399999V0201301N006219999999N999999999+00771+99999100961ADDMD1610201+9999OD159900771999SA1+0511REMSYN080SJSN4 46/// /1312 10077 40096 56020 90000 222// 00051 333 91215 555 11012 22013=
0128997779999992023011301004+39300-075367FM-13+000399999V0201301N006719999999N999999999+00741+99999100861ADDMD1610251+9999OD159900721999SA1+0501REMSYN080SJSN4 46/// /1313 10074 40086 56025 90100 222// 00050 333 91214 555 11012 22014=
0128997779999992023011302004+39300-075367FM-13+000399999V0201301N006719999999N999999999+00741+99999100691ADDMD1810311+9999OD159900721999SA1+0501REMSYN080SJSN4 46/// /1313 10074 40069 58031 90200 222// 00050 333 91214 555 11013 22014=
0128997779999992023011303004+39300-075367FM-13+000399999V0201601N011319999999N999999999+00961+99999100571ADDMD1810391+9999OD159901241999SA1+0501REMSYN080SJSN4 46/// /1622 10096 40057 58039 90300 222// 00050 333 91224 555 11021 22023=
0128997779999992023011304004+39300-075367FM-13+000399999V0201601N008819999999N999999999+00961+99999100471ADDMD1610391+9999OD159900981999SA1+0501REMSYN080SJSN4 46/// /1617 10096 40047 56039 90400 222// 00050 333 91219 555 11016 22018=
0128997779999992023011305004+39300-075367FM-13+000399999V0201701N009319999999N999999999+00991+99999100411ADDMD1610281+9999OD159900981999SA1+0511REMSYN080SJSN4 46/// /1718 10099 40041 56028 90500 222// 00051 333 91219 555 11017 22018=
0128997779999992023011306004+39300-075367FM-13+000399999V0202001N009319999999N999999999+01181+99999100351ADDMD1610221+9999OD159900981999SA1+0521REMSYN080SJSN4 46/// /2018 10118 40035 56022 90600 222// 00052 333 91219 555 11017 22019=
0128997779999992023011307004+39300-075367FM-13+000399999V0201901N009319999999N999999999+01081+99999100301ADDMD1610171+9999OD159901031999SA1+0511REMSYN080SJSN4 46/// /1918 10108 40030 56017 90700 222// 00051 333 91220 555 11017 22019=
0128997779999992023011308004+39300-075367FM-13+000399999V0201901N007219999999N999999999+01091+99999100231ADDMD1810181+9999OD159900881999SA1+0511REMSYN080SJSN4 46/// /1914 10109 40023 58018 90800 222// 00051 333 91217 555 11014 22015=
0128997779999992023011309004+39300-075367FM-13+000399999V0202001N008819999999N999999999+01141+99999100141ADDMD1810211+9999OD159900981999SA1+0511REMSYN080SJSN4 46/// /2017 10114 40014 58021 90900 222// 00051 333 91219 555 11016 22018=
0128997779999992023011310004+39300-075367FM-13+000399999V0201901N007719999999N999999999+01071+99999100151ADDMD1610151+9999OD159900981999SA1+0511REMSYN080SJSN4 46/// /1915 10107 40015 56015 91000 222// 00051 333 91219 555 11014 22015=
0128997779999992023011311004+39300-075367FM-13+000399999V0202001N010319999999N999999999+01111+99999100111ADDMD1610121+9999OD159901081999SA1+0521REMSYN080SJSN4 46/// /2020 10111 40011 56012 91100 222// 00052 333 91221 555 11019 22021=
0128997779999992023011312004+39300-075367FM-13+000399999V0202001N008819999999N999999999+01071+99999100121ADDMD1410001+9999OD159901081999SA1+0521REMSYN080SJSN4 46/// /2017 10107 40012 54000 91200 222// 00052 333 91221 555 11016 22018=
0128997779999992023011313004+39300-075367FM-13+000399999V0202101N008219999999N999999999+01051+99999100161ADDMD1510001+9999OD159900931999SA1+0521REMSYN080SJSN4 46/// /2116 10105 40016 55000 91300 222// 00052 333 91218 555 11015 22016=
0128997779999992023011314004+39300-075367FM-13+000399999V0202601N009319999999N999999999+00961+99999100231ADDMD1310121+9999OD159900981999SA1+0531REMSYN080SJSN4 46/// /2618 10096 40023 53012 91400 222// 00053 333 91219 555 11017 22019=
0128997779999992023011315004+39300-075367FM-13+000399999V0202701N009319999999N999999999+00901+99999100341ADDMD1310221+9999OD159901081999SA1+0531REMSYN080SJSN4 46/// /2718 10090 40034 53022 91500 222// 00053 333 91221 555 11017 22019=
0128997779999992023011316004+39300-075367FM-13+000399999V0202901N007219999999N999999999+00781+99999100421ADDMD1310261+9999OD159900931999SA1+0531REMSYN080SJSN4 46/// /2914 10078 40042 53026 91600 222// 00053 333 91218 555 11013 22015=
0128997779999992023011317004+39300-075367FM-13+000399999V0203101N008819999999N999999999+00781+99999100321ADDMD1990091+9999OD159901081999SA1+0531REMSYN080SJSN4 46/// /3117 10078 40032 50009 91700 222// 00053 333 91221 555 11016 22017=
0128997779999992023011318004+39300-075367FM-13+000399999V0203101N007719999999N999999999+00701+99999100431ADDMD1310091+9999OD159900881999SA1+0541REMSYN080SJSN4 46/// /3115 10070 40043 53009 91800 222// 00054 333 91217 555 11014 22015=
0128997779999992023011319004+39300-075367FM-13+000399999V0203001N007719999999N999999999+00691+99999100441ADDMD1510001+9999OD159900931999SA1+0541REMSYN080SJSN4 46/// /3015 10069 40044 55000 91900 222// 00054 333 91218 555 11014 22016=
0128997779999992023011320004+39300-075367FM-13+000399999V0203101N008819999999N999999999+00681+99999100391ADDMD1990071+9999OD159901031999SA1+0531REMSYN080SJSN4 46/// /3117 10068 40039 50007 92000 222// 00053 333 91220 555 11016 22018=
0128997779999992023011321004+39300-075367FM-13+000399999V0203101N008819999999N999999999+00661+99999100501ADDMD1310071+9999OD159900981999SA1+0531REMSYN080SJSN4 46/// /3117 10066 40050 53007 92100 222// 00053 333 91219 555 11017 22018=
0128997779999992023011322004+39300-075367FM-13+000399999V0203101N010319999999N999999999+00641+99999100571ADDMD1310131+9999OD159901131999SA1+0541REMSYN080SJSN4 46/// /3120 10064 40057 53013 92200 222// 00054 333 91222 555 11019 22021=
0128997779999992023011323004+39300-075367FM-13+000399999V0203201N010319999999N999999999+00621+99999100631ADDMD1110241+9999OD159901181999SA1+0541REMSYN080SJSN4 46/// /3220 10062 40063 51024 92300 222// 00054 333 91223 555 11019 22021=
0128997779999992023011400004+39300-075367FM-13+000399999V0203401N009819999999N999999999+00561+99999100731ADDMD1310231+9999OD159901241999SA1+0531REMSYN080SJSN4 46/// /3419 10056 40073 53023 90000 222// 00053 333 91224 555 11019 22020=
0128997779999992023011401004+39300-075367FM-13+000399999V0203301N011819999999N999999999+00501+99999100731ADDMD1110161+9999OD159901341999SA1+0531REMSYN080SJSN4 46/// /3323 10050 40073 51016 90100 222// 00053 333 91226 555 11022 22024=
0128997779999992023011402004+39300-075367FM-13+000399999V0203301N011319999999N999999999+00451+99999100721ADDMD1110091+9999OD159901291999SA1+0521REMSYN080SJSN4 46/// /3322 10045 40072 51009 90200 222// 00052 333 91225 555 11021 22023=
0128997779999992023011403004+39300-075367FM-13+000399999V0203301N010819999999N999999999+00411+99999100711ADDMD1410001+9999OD159901181999SA1+0521REMSYN080SJSN4 46/// /3321 10041 40071 54000 90300 222// 00052 333 91223 555 11020 22022=
0128997779999992023011404004+39300-075367FM-13+000399999V0203301N009819999999N999999999+00371+99999100701ADDMD1710031+9999OD159901181999SA1+0511REMSYN080SJSN4 46/// /3319 10037 40070 57003 90400 222// 00051 333 91223 555 11018 22020=
0128997779999992023011405004+39300-075367FM-13+000399999V0203401N011819999999N999999999+00311+99999100721ADDMD1410001+9999OD159901341999SA1+0521REMSYN080SJSN4 46/// /3423 10031 40072 54000 90500 222// 00052 333 91226 555 11022 22023=
0128997779999992023011406004+39300-075367FM-13+000399999V0203401N011819999999N999999999+00251+99999100771ADDMD1310061+9999OD159901341999SA1+0521REMSYN080SJSN4 46/// /3423 10025 40077 53006 90600 222// 00052 333 91226 555 11022 22024=
0128997779999992023011407004+39300-075367FM-13+000399999V0203201N010819999999N999999999+00231+99999100871ADDMD1310171+9999OD159901391999SA1+0511REMSYN080SJSN4 46/// /3221 10023 40087 53017 90700 222// 00051 333 91227 555 11020 22021=
0128997779999992023011408004+39300-075367FM-13+000399999V0203301N010319999999N999999999+00201+99999100871ADDMD1110151+9999OD159901291999SA1+0511REMSYN080SJSN4 46/// /3320 10020 40087 51015 90800 222// 00051 333 91225 555 11020 22021=
0128997779999992023011409004+39300-075367FM-13+000399999V0203301N010819999999N999999999+00181+99999100881ADDMD1110111+9999OD159901181999SA1+0511REMSYN080SJSN4 46/// /3321 10018 40088 51011 90900 222// 00051 333 91223 555 11020 22022=
0128997779999992023011410004+39300-075367FM-13+000399999V0203401N009819999999N999999999+00161+99999100861ADDMD1410001+9999OD159901181999SA1+0511REMSYN080SJSN4 46/// /3419 10016 40086 54000 91000 222// 00051 333 91223 555 11019 22020=
0128997779999992023011411004+39300-075367FM-13+000399999V0203401N012919999999N999999999+00101+99999100931ADDMD1310061+9999OD159901441999SA1+0501REMSYN080SJSN4 46/// /3425 10010 40093 53006 91100 222// 00050 333 91228 555 11024 22026=
0128997779999992023011412004+39300-075367FM-13+000399999V0203301N010819999999N999999999+00071+99999100991ADDMD1310111+9999OD159901181999SA1+0501REMSYN080SJSN4 46/// /3321 10007 40099 53011 91200 222// 00050 333 91223 555 11020 22022=
0128997779999992023011413004+39300-075367FM-13+000399999V0203401N011819999999N999999999+00051+99999101041ADDMD1110181+9999OD159901291999SA1+0501REMSYN080SJSN4 46/// /3423 10005 40104 51018 91300 222// 00050 333 91225 555 11022 22024=
0128997779999992023011414004+39300-075367FM-13+000399999V0203201N010319999999N999999999+00051+99999101151ADDMD1310221+9999OD159901181999SA1+0501REMSYN080SJSN4 46/// /3220 10005 40115 53022 91400 222// 00050 333 91223 555 11019 22021=
0128997779999992023011415004+39300-075367FM-13+000399999V0203401N010319999999N999999999+00071+99999101201ADDMD1210211+9999OD159901181999SA1+0491REMSYN080SJSN4 46/// /3420 10007 40120 52021 91500 222// 00049 333 91223 555 11020 22021=
0128997779999992023011416004+39300-075367FM-13+000399999V0203401N011319999999N999999999+00061+99999101181ADDMD1110141+9999OD159901391999SA1+0481REMSYN080SJSN4 46/// /3422 10006 40118 51014 91600 222// 00048 333 91227 555 11021 22023=
0128997779999992023011417004+39300-075367FM-13+000399999V0203401N012419999999N999999999+00061+99999101141ADDMD1990001+9999OD159901341999SA1+0491REMSYN080SJSN4 46/// /3424 10006 40114 50000 91700 222// 00049 333 91226 555 11023 22025=
0128997779999992023011418004+39300-075367FM-13+000399999V0203301N010319999999N999999999+00051+99999101171ADDMD1510031+9999OD159901291999SA1+0501REMSYN080SJSN4 46/// /3320 10005 40117 55003 91800 222// 00050 333 91225 555 11019 22021=
0128997779999992023011419004+39300-075367FM-13+000399999V0203401N011319999999N999999999+00041+99999101121ADDMD1810061+9999OD159901291999SA1+0501REMSYN080SJSN4 46/// /3422 10004 40112 58006 91900 222// 00050 333 91225 555 11021 22023=
0128997779999992023011420004+39300-075367FM-13+000399999V0203401N011319999999N999999999+00071+99999101171ADDMD1310031+9999OD159901341999SA1+0501REMSYN080SJSN4 46/// /3422 10007 40117 53003 92000 222// 00050 333 91226 555 11021 22022=
0128997779999992023011421004+39300-075367FM-13+000399999V0203301N011319999999N999999999+00051+99999101221ADDMD1310051+9999OD159901291999SA1+0491REMSYN080SJSN4 46/// /3322 10005 40122 53005 92100 222// 00049 333 91225 555 11021 22022=
0128997779999992023011422004+39300-075367FM-13+000399999V0203401N011819999999N999999999+00061+99999101221ADDMD1110101+9999OD159901441999SA1+0491REMSYN080SJSN4 46/// /3423 10006 40122 51010 92200 222// 00049 333 91228 555 11022 22024=
0128997779999992023011423004+39300-075367FM-13+000399999V0203401N013919999999N999999999+00021+99999101311ADDMD1310141+9999OD159901601999SA1+0481REMSYN080SJSN4 46/// /3427 10002 40131 53014 92300 222// 00048 333 91231 555 11025 22028=
0128997779999992023011500004+39300-075367FM-13+000399999V0203401N013419999999N999999999-00011+99999101251ADDMD1990031+9999OD159901751999SA1+0481REMSYN080SJSN4 46/// /3426 11001 40125 50003 90000 222// 00048 333 91234 555 11025 22027=
0128997779999992023011501004+39300-075367FM-13+000399999V0203401N013419999999N999999999-00031+99999101331ADDMD1110111+9999OD159901541999SA1+0481REMSYN080SJSN4 46/// /3426 11003 40133 51011 90100 222// 00048 333 91230 555 11025 22027=
0128997779999992023011502004+39300-075367FM-13+000399999V0200101N012919999999N999999999-00071+99999101401ADDMD1310091+9999OD159901541999SA1+0481REMSYN080SJSN4 46/// /0125 11007 40140 53009 90200 222// 00048 333 91230 555 11024 22026=
0128997779999992023011503004+39300-075367FM-13+000399999V0203501N012419999999N999999999-00071+99999101431ADDMD1110181+9999OD159901341999SA1+0471REMSYN080SJSN4 46/// /3524 11007 40143 51018 90300 222// 00047 333 91226 555 11022 22024=
0108997779999992023011504004+39300-075367FM-13+000399999V0203401N012419999999N999999999-00101+99999101491ADDOD159901391999SA1+0461REMSYN074SJSN4 46/// /3424 11010 40149 90348 222// 00046 333 91227 555 11023 22025=
0128997779999992023011505004+39300-075367FM-13+000399999V0203301N013419999999N999999999-00101+99999101441ADDMD1990041+9999OD159901601999SA1+0461REMSYN080SJSN4 46/// /3326 11010 40144 50004 90500 222// 00046 333 91231 555 11025 22027=
0128997779999992023011506004+39300-075367FM-13+000399999V0203301N013419999999N999999999-00101+99999101441ADDMD1990001+9999OD159901441999SA1+0461REMSYN080SJSN4 46/// /3326 11010 40144 50000 90600 222// 00046 333 91228 555 11025 22027=
0128997779999992023011507004+39300-075367FM-13+000399999V0203301N011819999999N999999999-00101+99999101481ADDMD1510001+9999OD159901441999SA1+0461REMSYN080SJSN4 46/// /3323 11010 40148 55000 90700 222// 00046 333 91228 555 11022 22024=
0128997779999992023011508004+39300-075367FM-13+000399999V0203301N012419999999N999999999-00111+99999101511ADDMD1310071+9999OD159901441999SA1+0461REMSYN080SJSN4 46/// /3324 11011 40151 53007 90800 222// 00046 333 91228 555 11023 22025=
0128997779999992023011509004+39300-075367FM-13+000399999V0203401N010319999999N999999999-00101+99999101581ADDMD1310141+9999OD159901241999SA1+0461REMSYN080SJSN4 46/// /3420 11010 40158 53014 90900 222// 00046 333 91224 555 11019 22021=
0128997779999992023011510004+39300-075367FM-13+000399999V0203401N011319999999N999999999-00091+99999101631ADDMD1310151+9999OD159901341999SA1+0461REMSYN080SJSN4 46/// /3422 11009 40163 53015 91000 222// 00046 333 91226 555 11021 22023=
0128997779999992023011511004+39300-075367FM-13+000399999V0203401N012919999999N999999999-00111+99999101651ADDMD1110141+9999OD159901491999SA1+0461REMSYN080SJSN4 46/// /3425 11011 40165 51014 91100 222// 00046 333 91229 555 11024 22026=
0128997779999992023011512004+39300-075367FM-13+000399999V0203401N011819999999N999999999-00111+99999101671ADDMD1110091+9999OD159901441999SA1+0441REMSYN080SJSN4 46/// /3423 11011 40167 51009 91200 222// 00044 333 91228 555 11022 22023=
0128997779999992023011513004+39300-075367FM-13+000399999V0203301N011319999999N999999999-00101+99999101711ADDMD1310081+9999OD159901291999SA1+0431REMSYN080SJSN4 46/// /3322 11010 40171 53008 91300 222// 00043 333 91225 555 11021 22023=
0128997779999992023011514004+39300-075367FM-13+000399999V0203401N010819999999N999999999-00011+99999101791ADDMD1310141+9999OD159901341999SA1+0451REMSYN080SJSN4 46/// /3421 11001 40179 53014 91400 222// 00045 333 91226 555 11020 22022=
0128997779999992023011515004+39300-075367FM-13+000399999V0203401N011319999999N999999999+00051+99999101831ADDMD1210161+9999OD159901341999SA1+0441REMSYN080SJSN4 46/// /3422 10005 40183 52016 91500 222// 00044 333 91226 555 11021 22023=
0128997779999992023011516004+39300-075367FM-13+000399999V0203301N011319999999N999999999+00151+99999101811ADDMD1110101+9999OD159901241999SA1+0431REMSYN080SJSN4 46/// /3322 10015 40181 51010 91600 222// 00043 333 91224 555 11021 22023=
0128997779999992023011517004+39300-075367FM-13+000399999V0203301N012419999999N999999999+00251+99999101741ADDMD1810051+9999OD159901341999SA1+0431REMSYN080SJSN4 46/// /3324 10025 40174 58005 91700 222// 00043 333 91226 555 11023 22025=
0128997779999992023011518004+39300-075367FM-13+000399999V0203401N011819999999N999999999+00361+99999101691ADDMD1810141+9999OD159901341999SA1+0461REMSYN080SJSN4 46/// /3423 10036 40169 58014 91800 222// 00046 333 91226 555 11022 22024=
0128997779999992023011519004+39300-075367FM-13+000399999V0203301N009819999999N999999999+00441+99999101651ADDMD1610161+9999OD159901181999SA1+0461REMSYN080SJSN4 46/// /3319 10044 40165 56016 91900 222// 00046 333 91223 555 11018 22020=
0128997779999992023011520004+39300-075367FM-13+000399999V0203201N010319999999N999999999+00471+99999101631ADDMD1610111+9999OD159901181999SA1+0461REMSYN080SJSN4 46/// /3220 10047 40163 56011 92000 222// 00046 333 91223 555 11019 22021=
0128997779999992023011521004+39300-075367FM-13+000399999V0203301N011319999999N999999999+00521+99999101661ADDMD1510031+9999OD159901291999SA1+0461REMSYN080SJSN4 46/// /3322 10052 40166 55003 92100 222// 00046 333 91225 555 11021 22022=
0128997779999992023011522004+39300-075367FM-13+000399999V0203401N009819999999N999999999+00511+99999101701ADDMD1310051+9999OD159901131999SA1+0471REMSYN080SJSN4 46/// /3419 10051 40170 53005 92200 222// 00047 333 91222 555 11018 22020=
0128997779999992023011523004+39300-075367FM-13+000399999V0203301N007219999999N999999999+00441+99999101721ADDMD1110091+9999OD159900881999SA1+0461REMSYN080SJSN4 46/// /3314 10044 40172 51009 92300 222// 00046 333 91217 555 11013 22015=
0128997779999992023011600004+39300-075367FM-13+000399999V0203301N009319999999N999999999+00401+99999101731ADDMD1110071+9999OD159901081999SA1+0451REMSYN080SJSN4 46/// /3318 10040 40173 51007 90000 222// 00045 333 91221 555 11017 22019=
0128997779999992023011601004+39300-075367FM-13+000399999V0203401N008219999999N999999999+00321+99999101731ADDMD1210031+9999OD159900881999SA1+0451REMSYN080SJSN4 46/// /3416 10032 40173 52003 90100 222// 00045 333 91217 555 11015 22016=
0128997779999992023011602004+39300-075367FM-13+000399999V0203301N008819999999N999999999+00281+99999101741ADDMD1410001+9999OD159900931999SA1+0431REMSYN080SJSN4 46/// /3317 10028 40174 54000 90200 222// 00043 333 91218 555 11016 22017=
0128997779999992023011603004+39300-075367FM-13+000399999V0203301N009819999999N999999999+00241+99999101721ADDMD1410001+9999OD159901081999SA1+0441REMSYN080SJSN4 46/// /3319 10024 40172 54000 90300 222// 00044 333 91221 555 11018 22019=
0128997779999992023011604004+39300-075367FM-13+000399999V0203301N010819999999N999999999+00191+99999101741ADDMD1410001+9999OD159901181999SA1+0431REMSYN080SJSN4 46/// /3321 10019 40174 54000 90400 222// 00043 333 91223 555 11020 22021=
0128997779999992023011605004+39300-075367FM-13+000399999V0203201N008819999999N999999999+00171+99999101711ADDMD1810031+9999OD159901131999SA1+0431REMSYN080SJSN4 46/// /3217 10017 40171 58003 90500 222// 00043 333 91222 555 11017 22018=
0128997779999992023011606004+39300-075367FM-13+000399999V0203301N009319999999N999999999+00151+99999101681ADDMD1810041+9999OD159901031999SA1+0441REMSYN080SJSN4 46/// /3318 10015 40168 58004 90600 222// 00044 333 91220 555 11017 22018=
0128997779999992023011607004+39300-075367FM-13+000399999V0203101N008219999999N999999999+00101+99999101681ADDMD1610061+9999OD159900931999SA1+0451REMSYN080SJSN4 46/// /3116 10010 40168 56006 90700 222// 00045 333 91218 555 11015 22016=
0128997779999992023011608004+39300-075367FM-13+000399999V0203301N008819999999N999999999+00111+99999101691ADDMD1510001+9999OD159901031999SA1+0441REMSYN080SJSN4 46/// /3317 10011 40169 55000 90800 222// 00044 333 91220 555 11016 22018=
0128997779999992023011609004+39300-075367FM-13+000399999V0203301N009819999999N999999999+00091+99999101671ADDMD1410001+9999OD159901131999SA1+0431REMSYN080SJSN4 46/// /3319 10009 40167 54000 90900 222// 00043 333 91222 555 11018 22019=
0128997779999992023011610004+39300-075367FM-13+000399999V0203401N008819999999N999999999+00061+99999101641ADDMD1810041+9999OD159900981999SA1+0431REMSYN080SJSN4 46/// /3417 10006 40164 58004 91000 222// 00043 333 91219 555 11016 22017=
0128997779999992023011611004+39300-075367FM-13+000399999V0203401N007719999999N999999999+00001+99999101661ADDMD1710031+9999OD159900931999SA1+0421REMSYN080SJSN4 46/// /3415 10000 40166 57003 91100 222// 00042 333 91218 555 11014 22015=
0128997779999992023011612004+39300-075367FM-13+000399999V0203301N009819999999N999999999+00051+99999101661ADDMD1510001+9999OD159901031999SA1+0411REMSYN080SJSN4 46/// /3319 10005 40166 55000 91200 222// 00041 333 91220 555 11018 22020=
0128997779999992023011613004+39300-075367FM-13+000399999V0203301N008819999999N999999999+00031+99999101661ADDMD1410001+9999OD159900981999SA1+0411REMSYN080SJSN4 46/// /3317 10003 40166 54000 91300 222// 00041 333 91219 555 11016 22018=
0128997779999992023011614004+39300-075367FM-13+000399999V0203201N009319999999N999999999+00061+99999101651ADDMD1410001+9999OD159901031999SA1+0401REMSYN080SJSN4 46/// /3218 10006 40165 54000 91400 222// 00040 333 91220 555 11017 22019=
0128997779999992023011615004+39300-075367FM-13+000399999V0203201N008219999999N999999999+00141+99999101601ADDMD1810061+9999OD159900881999SA1+0411REMSYN080SJSN4 46/// /3216 10014 40160 58006 91500 222// 00041 333 91217 555 11015 22017=
0128997779999992023011616004+39300-075367FM-13+000399999V0203201N008219999999N999999999+00271+99999101541ADDMD1810121+9999OD159900881999SA1+0421REMSYN080SJSN4 46/// /3216 10027 40154 58012 91600 222// 00042 333 91217 555 11015 22017=
0128997779999992023011617004+39300-075367FM-13+000399999V0203201N006219999999N999999999+00421+99999101421ADDMD1810231+9999OD159900771999SA1+0431REMSYN080SJSN4 46/// /3212 10042 40142 58023 91700 222// 00043 333 91215 555 11012 22013=
0128997779999992023011618004+39300-075367FM-13+000399999V0203101N007219999999N999999999+00531+99999101311ADDMD1810291+9999OD159900771999SA1+0441REMSYN080SJSN4 46/// /3114 10053 40131 58029 91800 222// 00044 333 91215 555 11013 22015=
0128997779999992023011619004+39300-075367FM-13+000399999V0203001N007219999999N999999999+00631+99999101221ADDMD1610321+9999OD159900771999SA1+0431REMSYN080SJSN4 46/// /3014 10063 40122 56032 91900 222// 00043 333 91215 555 11013 22014=
0128997779999992023011620004+39300-075367FM-13+000399999V0203301N006219999999N999999999+00671+99999101141ADDMD1610281+9999OD159900671999SA1+0451REMSYN080SJSN4 46/// /3312 10067 40114 56028 92000 222// 00045 333 91213 555 11012 22013=
0128997779999992023011621004+39300-075367FM-13+000399999V0203101N008219999999N999999999+00731+99999101191ADDMD1510121+9999OD159900931999SA1+0451REMSYN080SJSN4 46/// /3116 10073 40119 55012 92100 222// 00045 333 91218 555 11015 22016=
0128997779999992023011622004+39300-075367FM-13+000399999V0202901N006719999999N999999999+00711+99999101181ADDMD1610041+9999OD159900721999SA1+0451REMSYN080SJSN4 46/// /2913 10071 40118 56004 92200 222// 00045 333 91214 555 11012 22013=
0108997779999992023011623004+39300-075367FM-13+000399999V0202901N006219999999N999999999+00661+99999101191ADDOD159900671999SA1+0461REMSYN074SJSN4 46/// /2912 10066 40119 92236 222// 00046 333 91213 555 11011 22012=
0128997779999992023011700004+39300-075367FM-13+000399999V0203001N005719999999N999999999+00661+99999101161ADDMD1810031+9999OD159900621999SA1+0461REMSYN080SJSN4 46/// /3011 10066 40116 58003 90000 222// 00046 333 91212 555 11011 22012=
0128997779999992023011701004+39300-075367FM-13+000399999V0202801N006219999999N999999999+00661+99999101171ADDMD1410001+9999OD159900621999SA1+0451REMSYN080SJSN4 46/// /2812 10066 40117 54000 90100 222// 00045 333 91212 555 11011 22012=
0128997779999992023011702004+39300-075367FM-13+000399999V0202801N007219999999N999999999+00691+99999101141ADDMD1710051+9999OD159900771999SA1+0441REMSYN080SJSN4 46/// /2814 10069 40114 57005 90200 222// 00044 333 91215 555 11013 22015=
0128997779999992023011703004+39300-075367FM-13+000399999V0202701N007219999999N999999999+00631+99999101121ADDMD1710041+9999OD159900771999SA1+0421REMSYN080SJSN4 46/// /2714 10063 40112 57004 90300 222// 00042 333 91215 555 11013 22014=
0128997779999992023011704004+39300-075367FM-13+000399999V0202701N004619999999N999999999+00501+99999101131ADDMD1610041+9999OD159900571999SA1+0421REMSYN080SJSN4 46/// /2709 10050 40113 56004 90400 222// 00042 333 91211 555 11009 22009=
0128997779999992023011705004+39300-075367FM-13+000399999V0202701N005119999999N999999999+00561+99999101121ADDMD1410001+9999OD159900511999SA1+0421REMSYN080SJSN4 46/// /2710 10056 40112 54000 90500 222// 00042 333 91210 555 11009 22010=
0128997779999992023011706004+39300-075367FM-13+000399999V0202801N004619999999N999999999+00551+99999101091ADDMD1810031+9999OD159900461999SA1+0411REMSYN080SJSN4 46/// /2809 10055 40109 58003 90600 222// 00041 333 91209 555 11008 22009=
0128997779999992023011707004+39300-075367FM-13+000399999V0202801N003119999999N999999999+00421+99999101041ADDMD1810091+9999OD159900411999SA1+0421REMSYN080SJSN4 46/// /2806 10042 40104 58009 90700 222// 00042 333 91208 555 11006 22006=
0128997779999992023011708004+39300-075367FM-13+000399999V0202601N003119999999N999999999+00441+99999101001ADDMD1810121+9999OD159900361999SA1+0441REMSYN080SJSN4 46/// /2606 10044 40100 58012 90800 222// 00044 333 91207 555 11006 22006=
0128997779999992023011709004+39300-075367FM-13+000399999V0202501N003619999999N999999999+00441+99999100991ADDMD1610101+9999OD159900361999SA1+0441REMSYN080SJSN4 46/// /2507 10044 40099 56010 90900 222// 00044 333 91207 555 11006 22007=
0128997779999992023011710004+39300-075367FM-13+000399999V0202501N002619999999N999999999+00421+99999100951ADDMD1710091+9999OD159900411999SA1+0451REMSYN080SJSN4 46/// /2505 10042 40095 57009 91000 222// 00045 333 91208 555 11005 22006=
0128997779999992023011711004+39300-075367FM-13+000399999V0202301N002119999999N999999999+00371+99999100911ADDMD1810091+9999OD159900261999SA1+0451REMSYN080SJSN4 46/// /2304 10037 40091 58009 91100 222// 00045 333 91205 555 11004 22004=
0128997779999992023011712004+39300-075367FM-13+000399999V0201901N003119999999N999999999+00401+99999100921ADDMD1610071+9999OD159900361999SA1+0451REMSYN080SJSN4 46/// /1906 10040 40092 56007 91200 222// 00045 333 91207 555 11006 22006=
0128997779999992023011713004+39300-075367FM-13+000399999V0201701N004119999999N999999999+00441+99999100901ADDMD1610051+9999OD159900411999SA1+0451REMSYN080SJSN4 46/// /1708 10044 40090 56005 91300 222// 00045 333 91208 555 11007 22008=
0128997779999992023011714004+39300-075367FM-13+000399999V0201801N004119999999N999999999+00481+99999100901ADDMD1410001+9999OD159900411999SA1+0451REMSYN080SJSN4 46/// /1808 10048 40090 54000 91400 222// 00045 333 91208 555 11007 22008=
0128997779999992023011715004+39300-075367FM-13+000399999V0201601N004619999999N999999999+00491+99999100811ADDMD1810111+9999OD159900511999SA1+0441REMSYN080SJSN4 46/// /1609 10049 40081 58011 91500 222// 00044 333 91210 555 11008 22009=
0128997779999992023011716004+39300-075367FM-13+000399999V0201801N003619999999N999999999+00481+99999100781ADDMD1810121+9999OD159900361999SA1+0431REMSYN080SJSN4 46/// /1807 10048 40078 58012 91600 222// 00043 333 91207 555 11006 22007=
0128997779999992023011717004+39300-075367FM-13+000399999V0202201N003619999999N999999999+00531+99999100701ADDMD1610201+9999OD159900361999SA1+0441REMSYN080SJSN4 46/// /2207 10053 40070 56020 91700 222// 00044 333 91207 555 11007 22007=
0128997779999992023011718004+39300-075367FM-13+000399999V0202001N004119999999N999999999+00521+99999100541ADDMD1810271+9999OD159900511999SA1+0451REMSYN080SJSN4 46/// /2008 10052 40054 58027 91800 222// 00045 333 91210 555 11008 22009=
0128997779999992023011719004+39300-075367FM-13+000399999V0201901N002119999999N999999999+00561+99999100481ADDMD1610301+9999OD159900261999SA1+0441REMSYN080SJSN4 46/// /1904 10056 40048 56030 91900 222// 00044 333 91205 555 11004 22004=
0128997779999992023011720004+39300-075367FM-13+000399999V0201701N002619999999N999999999+00591+99999100491ADDMD1610211+9999OD159900311999SA1+0451REMSYN080SJSN4 46/// /1705 10059 40049 56021 92000 222// 00045 333 91206 555 11005 22006=
0128997779999992023011721004+39300-075367FM-13+000399999V0202001N004119999999N999999999+00591+99999100541ADDMD1510001+9999OD159900461999SA1+0461REMSYN080SJSN4 46/// /2008 10059 40054 55000 92100 222// 00046 333 91209 555 11007 22008=
0128997779999992023011722004+39300-075367FM-13+000399999V0202101N004119999999N999999999+00611+99999100501ADDMD1990001+9999OD159900461999SA1+0451REMSYN080SJSN4 46/// /2108 10061 40050 50000 92200 222// 00045 333 91209 555 11007 22008=
0128997779999992023011723004+39300-075367FM-13+000399999V0202001N003619999999N999999999+00551+99999100531ADDMD1110041+9999OD159900411999SA1+0461REMSYN080SJSN4 46/// /2007 10055 40053 51004 92300 222// 00046 333 91208 555 11007 22007=
0128997779999992023011800004+39300-075367FM-13+000399999V0202201N002119999999N999999999+00591+99999100581ADDMD1310041+9999OD159900211999SA1+0471REMSYN080SJSN4 46/// /2204 10059 40058 53004 90000 222// 00047 333 91204 555 11003 22004=
0128997779999992023011801004+39300-075367FM-13+000399999V0202101N001019999999N999999999+00591+99999100631ADDMD1310131+9999OD159900151999SA1+0471REMSYN080SJSN4 46/// /2102 10059 40063 53013 90100 222// 00047 333 91203 555 11002 22002=
0128997779999992023011802004+39300-075367FM-13+000399999V0202001N001519999999N999999999+00581+99999100641ADDMD1110111+9999OD159900211999SA1+0461REMSYN080SJSN4 46/// /2003 10058 40064 51011 90200 222// 00046 333 91204 555 11003 22003=
0128997779999992023011803004+39300-075367FM-13+000399999V0201801N003119999999N999999999+00611+99999100611ADDMD1990031+9999OD159900311999SA1+0461REMSYN080SJSN4 46/// /1806 10061 40061 50003 90300 222// 00046 333 91206 555 11005 22006=
0128997779999992023011804004+39300-075367FM-13+000399999V0202401N001519999999N999999999+00631+99999100641ADDMD1510001+9999OD159900211999SA1+0461REMSYN080SJSN4 46/// /2403 10063 40064 55000 90400 222// 00046 333 91204 555 11003 22003=
0128997779999992023011805004+39300-075367FM-13+000399999V0202301N004119999999N999999999+00661+99999100651ADDMD1510001+9999OD159900511999SA1+0461REMSYN080SJSN4 46/// /2308 10066 40065 55000 90500 222// 00046 333 91210 555 11007 22008=
0128997779999992023011806004+39300-075367FM-13+000399999V0201901N007219999999N999999999+00601+99999100551ADDMD1810061+9999OD159900821999SA1+0461REMSYN080SJSN4 46/// /1914 10060 40055 58006 90600 222// 00046 333 91216 555 11014 22015=
0128997779999992023011807004+39300-075367FM-13+000399999V0202101N007719999999N999999999+00571+99999100571ADDMD1710071+9999OD159900821999SA1+0461REMSYN080SJSN4 46/// /2115 10057 40057 57007 90700 222// 00046 333 91216 555 11014 22015=
0128997779999992023011808004+39300-075367FM-13+000399999V0202401N001519999999N999999999+00571+99999100631ADDMD1510001+9999OD159900361999SA1+0461REMSYN080SJSN4 46/// /2403 10057 40063 55000 90800 222// 00046 333 91207 555 11003 22003=
0128997779999992023011809004+39300-075367FM-13+000399999V0201901N001019999999N999999999+00561+99999100671ADDMD1310121+9999OD159900211999SA1+0461REMSYN080SJSN4 46/// /1902 10056 40067 53012 90900 222// 00046 333 91204 555 11002 22002=
0128997779999992023011810004+39300-075367FM-13+000399999V0202501N002619999999N999999999+00541+99999100731ADDMD1210161+9999OD159900311999SA1+0461REMSYN080SJSN4 46/// /2505 10054 40073 52016 91000 222// 00046 333 91206 555 11005 22005=
0128997779999992023011811004+39300-075367FM-13+000399999V0202501N002619999999N999999999+00561+99999100771ADDMD1210141+9999OD159900311999SA1+0461REMSYN080SJSN4 46/// /2505 10056 40077 52014 91100 222// 00046 333 91206 555 11005 22005=
0128997779999992023011812004+39300-075367FM-13+000399999V0202301N007219999999N999999999+00621+99999100831ADDMD1210161+9999OD159900771999SA1+0471REMSYN080SJSN4 46/// /2314 10062 40083 52016 91200 222// 00047 333 91215 555 11013 22015=
0128997779999992023011813004+39300-075367FM-13+000399999V0202601N006219999999N999999999+99999+99999100971ADDMD1310241+9999OD159900671999SA1+0461REMSYN080SJSN4 46/// /2612 1//// 40097 53024 91300 222// 00046 333 91213 555 11011 22012=
0128997779999992023011814004+39300-075367FM-13+000399999V0202701N006219999999N999999999+00771+99999101091ADDMD1310321+9999OD159900671999SA1+0471REMSYN080SJSN4 46/// /2712 10077 40109 53032 91400 222// 00047 333 91213 555 11011 22012=
0128997779999992023011815004+39300-075367FM-13+000399999V0203001N007719999999N999999999+00851+99999101161ADDMD1110331+9999OD159900821999SA1+0471REMSYN080SJSN4 46/// /3015 10085 40116 51033 91500 222// 00047 333 91216 555 11015 22016=
0128997779999992023011816004+39300-075367FM-13+000399999V0203101N007219999999N999999999+00761+99999101141ADDMD1110171+9999OD159900821999SA1+0471REMSYN080SJSN4 46/// /3114 10076 40114 51017 91600 222// 00047 333 91216 555 11014 22015=
0128997779999992023011817004+39300-075367FM-13+000399999V0203001N010319999999N999999999+00971+99999101131ADDMD1110041+9999OD159901081999SA1+0481REMSYN080SJSN4 46/// /3020 10097 40113 51004 91700 222// 00048 333 91221 555 11019 22021=
0128997779999992023011818004+39300-075367FM-13+000399999V0203001N008219999999N999999999+00991+99999101141ADDMD1410001+9999OD159900881999SA1+0481REMSYN080SJSN4 46/// /3016 10099 40114 54000 91800 222// 00048 333 91217 555 11015 22016=
0128997779999992023011819004+39300-075367FM-13+000399999V0202901N009819999999N999999999+01021+99999101151ADDMD1410001+9999OD159901131999SA1+0491REMSYN080SJSN4 46/// /2919 10102 40115 54000 91900 222// 00049 333 91222 555 11018 22020=
0128997779999992023011820004+39300-075367FM-13+000399999V0203001N009819999999N999999999+01041+99999101231ADDMD1310101+9999OD159901031999SA1+0501REMSYN080SJSN4 46/// /3019 10104 40123 53010 92000 222// 00050 333 91220 555 11018 22020=
0128997779999992023011821004+39300-075367FM-13+000399999V0202901N007719999999N999999999+00971+99999101371ADDMD1310231+9999OD159900881999SA1+0501REMSYN080SJSN4 46/// /2915 10097 40137 53023 92100 222// 00050 333 91217 555 11015 22016=
0128997779999992023011822004+39300-075367FM-13+000399999V0202901N006219999999N999999999+00871+99999101501ADDMD1310351+9999OD159900721999SA1+0501REMSYN080SJSN4 46/// /2912 10087 40150 53035 92200 222// 00050 333 91214 555 11012 22013=
0128997779999992023011823004+39300-075367FM-13+000399999V0202901N006219999999N999999999+00851+99999101611ADDMD1110381+9999OD159900671999SA1+0501REMSYN080SJSN4 46/// /2912 10085 40161 51038 92300 222// 00050 333 91213 555 11011 22012=
0128997779999992023011900004+39300-075367FM-13+000399999V0203101N007219999999N999999999+00781+99999101721ADDMD1110351+9999OD159900771999SA1+0491REMSYN080SJSN4 46/// /3114 10078 40172 51035 90000 222// 00049 333 91215 555 11013 22014=
0128997779999992023011901004+39300-075367FM-13+000399999V0203301N005719999999N999999999+00661+99999101721ADDMD1110221+9999OD159900771999SA1+0501REMSYN080SJSN4 46/// /3311 10066 40172 51022 90100 222// 00050 333 91215 555 11011 22012=
0128997779999992023011902004+39300-075367FM-13+000399999V0203201N007719999999N999999999+00701+99999101711ADDMD1110101+9999OD159900771999SA1+0501REMSYN080SJSN4 46/// /3215 10070 40171 51010 90200 222// 00050 333 91215 555 11014 22015=
0128997779999992023011903004+39300-075367FM-13+000399999V0203301N004619999999N999999999+00601+99999101771ADDMD1310051+9999OD159900511999SA1+0491REMSYN080SJSN4 46/// /3309 10060 40177 53005 90300 222// 00049 333 91210 555 11008 22009=
0128997779999992023011904004+39300-075367FM-13+000399999V0203201N003119999999N999999999+00541+99999101741ADDMD1990001+9999OD159900411999SA1+0491REMSYN080SJSN4 46/// /3206 10054 40174 50000 90400 222// 00049 333 91208 555 11006 22007=
