0108997743999992022010100004+40650-074067FM-13+007299999V0201801N003619999999N999999999+00951+99999101441ADDMD1310111+9999OD159900411999REMSYN068ROBN4 46/// /1807 10095 40144 53011 90000 333 91208 555 11006 22007=
0108997743999992022010101004+40650-074067FM-13+007299999V0201701N003119999999N999999999+00971+99999101421ADDMD1110071+9999OD159900361999REMSYN068ROBN4 46/// /1706 10097 40142 51007 90100 333 91207 555 11006 22006=
0108997743999992022010102004+40650-074067FM-13+007299999V0201801N003619999999N999999999+00961+99999101361ADDMD1810041+9999OD159900361999REMSYN068ROBN4 46/// /1807 10096 40136 58004 90200 333 91207 555 11006 22007=
0108997743999992022010103004+40650-074067FM-13+007299999V0201701N004119999999N999999999+00961+99999101371ADDMD1710071+9999OD159900411999REMSYN068ROBN4 46/// /1708 10096 40137 57007 90300 333 91208 555 11007 22008=
0108997743999992022010104004+40650-074067FM-13+007299999V0201801N004619999999N999999999+00931+99999101331ADDMD1610091+9999OD159900511999REMSYN068ROBN4 46/// /1809 10093 40133 56009 90400 333 91210 555 11008 22009=
0108997743999992022010105004+40650-074067FM-13+007299999V0201701N005119999999N999999999+00921+99999101261ADDMD1810101+9999OD159900511999REMSYN068ROBN4 46/// /1710 10092 40126 58010 90500 333 91210 555 11009 22010=
0108997743999992022010106004+40650-074067FM-13+007299999V0201601N003619999999N999999999+00961+99999101251ADDMD1610121+9999OD159900411999REMSYN068ROBN4 46/// /1607 10096 40125 56012 90600 333 91208 555 11007 22007=
0108997743999992022010107004+40650-074067FM-13+007299999V0201401N002119999999N999999999+00971+99999101231ADDMD1610101+9999OD159900211999REMSYN068ROBN4 46/// /1404 10097 40123 56010 90700 333 91204 555 11004 22004=
0108997743999992022010108004+40650-074067FM-13+007299999V0201301N003119999999N999999999+01031+99999101181ADDMD1810081+9999OD159900311999REMSYN068ROBN4 46/// /1306 10103 40118 58008 90800 333 91206 555 11005 22006=
0108997743999992022010109004+40650-074067FM-13+007299999V0201601N004619999999N999999999+00971+99999101121ADDMD1810131+9999OD159900511999REMSYN068ROBN4 46/// /1609 10097 40112 58013 90900 333 91210 555 11008 22009=
0108997743999992022010110004+40650-074067FM-13+007299999V0201501N003119999999N999999999+00971+99999101061ADDMD1810171+9999OD159900361999REMSYN068ROBN4 46/// /1506 10097 40106 58017 91000 333 91207 555 11006 22006=
0108997743999992022010111004+40650-074067FM-13+007299999V0201601N003619999999N999999999+00991+99999100981ADDMD1810201+9999OD159900411999REMSYN068ROBN4 46/// /1607 10099 40098 58020 91100 333 91208 555 11006 22007=
0108997743999992022010112004+40650-074067FM-13+007299999V0201701N005719999999N999999999+01011+99999101001ADDMD1610121+9999OD159900571999REMSYN068ROBN4 46/// /1711 10101 40100 56012 91200 333 91211 555 11010 22011=
0108997743999992022010113004+40650-074067FM-13+007299999V0201701N004619999999N999999999+01001+99999100981ADDMD1610081+9999OD159900461999REMSYN068ROBN4 46/// /1709 10100 40098 56008 91300 333 91209 555 11008 22009=
0108997743999992022010114004+40650-074067FM-13+007299999V0201801N006219999999N999999999+00991+99999101011ADDMD1310031+9999OD159900671999REMSYN068ROBN4 46/// /1812 10099 40101 53003 91400 333 91213 555 11011 22012=
0108997743999992022010115004+40650-074067FM-13+007299999V0201701N004119999999N999999999+01011+99999101061ADDMD1310061+9999OD159900461999REMSYN068ROBN4 46/// /1708 10101 40106 53006 91500 333 91209 555 11007 22008=
0108997743999992022010116004+40650-074067FM-13+007299999V0201701N005119999999N999999999+01061+99999100901ADDMD1810081+9999OD159900571999REMSYN068ROBN4 46/// /1710 10106 40090 58008 91600 333 91211 555 11009 22010=
0108997743999992022010117004+40650-074067FM-13+007299999V0202701N003119999999N999999999+01251+99999100811ADDMD1810201+9999OD159900461999REMSYN068ROBN4 46/// /2706 10125 40081 58020 91700 333 91209 555 11006 22006=
0108997743999992022010118004+40650-074067FM-13+007299999V0202601N003119999999N999999999+01251+99999100741ADDMD1610321+9999OD159900461999REMSYN068ROBN4 46/// /2606 10125 40074 56032 91800 333 91209 555 11005 22006=
0108997743999992022010119004+40650-074067FM-13+007299999V0202901N002119999999N999999999+01271+99999100681ADDMD1610221+9999OD159900261999REMSYN068ROBN4 46/// /2904 10127 40068 56022 91900 333 91205 555 11004 22004=
0108997743999992022010120004+40650-074067FM-13+007299999V0201501N002619999999N999999999+01261+99999100611ADDMD1710201+9999OD159900261999REMSYN068ROBN4 46/// /1505 10126 40061 57020 92000 333 91205 555 11004 22005=
0108997743999992022010121004+40650-074067FM-13+007299999V0201801N002119999999N999999999+01221+99999100591ADDMD1610151+9999OD159900261999REMSYN068ROBN4 46/// /1804 10122 40059 56015 92100 333 91205 555 11004 22004=
0108997743999992022010122004+40650-074067FM-13+007299999V0201701N003119999999N999999999+01221+99999100571ADDMD1610111+9999OD159900361999REMSYN068ROBN4 46/// /1706 10122 40057 56011 92200 333 91207 555 11006 22006=
0108997743999992022010123004+40650-074067FM-13+007299999V0201801N000519999999N999999999+01211+99999100621ADDMD1510001+9999OD159900101999REMSYN068ROBN4 46/// /1801 10121 40062 55000 92300 333 91202 555 11001 22001=
0108997743999992022010200004+40650-074067FM-13+007299999V0209999C000019999999N999999999+01111+99999100581ADDMD1990001+9999OD159900051999REMSYN068ROBN4 46/// /0000 10111 40058 50000 90000 333 91201 555 11000 22000=
0108997743999992022010201004+40650-074067FM-13+007299999V0200901N001519999999N999999999+01111+99999100481ADDMD1810091+9999OD159900211999REMSYN068ROBN4 46/// /0903 10111 40048 58009 90100 333 91204 555 11002 22003=
0108997743999992022010202004+40650-074067FM-13+007299999V0200801N004119999999N999999999+01201+99999100331ADDMD1810291+9999OD159900411999REMSYN068ROBN4 46/// /0808 10120 40033 58029 90200 333 91208 555 11007 22008=
0108997743999992022010203004+40650-074067FM-13+007299999V0200301N004619999999N999999999+01201+99999100271ADDMD1610311+9999OD159900621999REMSYN068ROBN4 46/// /0309 10120 40027 56031 90300 333 91212 555 11008 22009=
0108997743999992022010204004+40650-074067FM-13+007299999V0200701N004119999999N999999999+01181+99999100181ADDMD1610301+9999OD159900461999REMSYN068ROBN4 46/// /0708 10118 40018 56030 90400 333 91209 555 11007 22008=
0108997743999992022010205004+40650-074067FM-13+007299999V0200601N008219999999N999999999+01171+99999100001ADDMD1810331+9999OD159900821999REMSYN068ROBN4 46/// /0616 10117 40000 58033 90500 333 91216 555 11014 22015=
0108997743999992022010206004+40650-074067FM-13+007299999V0201001N004119999999N999999999+01191+99999100041ADDMD1510231+9999OD159900461999REMSYN068ROBN4 46/// /1008 10119 40004 55023 90600 333 91209 555 11008 22008=
0108997743999992022010207004+40650-074067FM-13+007299999V0200501N000519999999N999999999+01161+99999100021ADDMD1610161+9999OD159900101999REMSYN068ROBN4 46/// /0501 10116 40002 56016 90700 333 91202 555 11001 22001=
0108997743999992022010208004+40650-074067FM-13+007299999V0203301N003619999999N999999999+01171+99999100071ADDMD1310071+9999OD159900621999REMSYN068ROBN4 46/// /3307 10117 40007 53007 90800 333 91212 555 11006 22007=
0108997743999992022010209004+40650-074067FM-13+007299999V0203201N003619999999N999999999+01171+99999100111ADDMD1310071+9999OD159900411999REMSYN068ROBN4 46/// /3207 10117 40011 53007 90900 333 91208 555 11007 22007=
0108997743999992022010210004+40650-074067FM-13+007299999V0203201N003119999999N999999999+01161+99999100091ADDMD1110071+9999OD159900411999REMSYN068ROBN4 46/// /3206 10116 40009 51007 91000 333 91208 555 11005 22006=
0108997743999992022010211004+40650-074067FM-13+007299999V0209999C000019999999N999999999+01151+99999100121ADDMD1110051+9999OD159900261999REMSYN068ROBN4 46/// /0000 10115 40012 51005 91100 333 91205 555 11001 22001=
0108997743999992022010212004+40650-074067FM-13+007299999V0202601N001019999999N999999999+01141+99999100091ADDMD1990001+9999OD159900261999REMSYN068ROBN4 46/// /2602 10114 40009 50000 91200 333 91205 555 11002 22002=
0108997743999992022010213004+40650-074067FM-13+007299999V0202601N002119999999N999999999+01151+99999100171ADDMD1310081+9999OD159900311999REMSYN068ROBN4 46/// /2604 10115 40017 53008 91300 333 91206 555 11004 22004=
0108997743999992022010214004+40650-074067FM-13+007299999V0201901N002119999999N999999999+01151+99999100161ADDMD1310041+9999OD159900211999REMSYN068ROBN4 46/// /1904 10115 40016 53004 91400 333 91204 555 11003 22004=
0108997743999992022010215004+40650-074067FM-13+007299999V0202401N005119999999N999999999+01241+99999100311ADDMD1310221+9999OD159900621999REMSYN068ROBN4 46/// /2410 10124 40031 53022 91500 333 91212 555 11009 22010=
0108997743999992022010216004+40650-074067FM-13+007299999V0202601N006219999999N999999999+01291+99999100311ADDMD1210141+9999OD159900721999REMSYN068ROBN4 46/// /2612 10129 40031 52014 91600 333 91214 555 11011 22012=
0108997743999992022010217004+40650-074067FM-13+007299999V0202701N004619999999N999999999+01321+99999100251ADDMD1990091+9999OD159900671999REMSYN068ROBN4 46/// /2709 10132 40025 50009 91700 333 91213 555 11008 22009=
0108997743999992022010218004+40650-074067FM-13+007299999V0202601N008219999999N999999999+01381+99999100251ADDMD1710061+9999OD159900981999REMSYN068ROBN4 46/// /2616 10138 40025 57006 91800 333 91219 555 11014 22015=
0108997743999992022010219004+40650-074067FM-13+007299999V0202901N006219999999N999999999+01451+99999100311ADDMD1510001+9999OD159900721999REMSYN068ROBN4 46/// /2912 10145 40031 55000 91900 333 91214 555 11011 22011=
0108997743999992022010220004+40650-074067FM-13+007299999V0203101N008219999999N999999999+01471+99999100381ADDMD1310131+9999OD159900931999REMSYN068ROBN4 46/// /3116 10147 40038 53013 92000 333 91218 555 11015 22016=
0108997743999992022010221004+40650-074067FM-13+007299999V0203101N006219999999N999999999+01431+99999100491ADDMD1310241+9999OD159900771999REMSYN068ROBN4 46/// /3112 10143 40049 53024 92100 333 91215 555 11011 22012=
0108997743999992022010222004+40650-074067FM-13+007299999V0203301N006219999999N999999999+01191+99999100711ADDMD1310401+9999OD159900821999REMSYN068ROBN4 46/// /3312 10119 40071 53040 92200 333 91216 555 11011 22012=
0108997743999992022010223004+40650-074067FM-13+007299999V0203201N007219999999N999999999+00961+99999100891ADDMD1310511+9999OD159901081999REMSYN068ROBN4 46/// /3214 10096 40089 53051 92300 333 91221 555 11013 22014=
0108997743999992022010300004+40650-074067FM-13+007299999V0203201N008819999999N999999999+00771+99999101111ADDMD1210621+9999OD159901031999REMSYN068ROBN4 46/// /3217 10077 40111 52062 90000 333 91220 555 11015 22016=
0108997743999992022010301004+40650-074067FM-13+007299999V0203301N009819999999N999999999+00471+99999101271ADDMD1110561+9999OD159901241999REMSYN068ROBN4 46/// /3319 10047 40127 51056 90100 333 91224 555 11017 22019=
0108997743999992022010302004+40650-074067FM-13+007299999V0203301N008819999999N999999999+00371+99999101341ADDMD1110451+9999OD159901291999REMSYN068ROBN4 46/// /3317 10037 40134 51045 90200 333 91225 555 11016 22017=
0108997743999992022010303004+40650-074067FM-13+007299999V0203401N006719999999N999999999+00351+99999101441ADDMD1110331+9999OD159900931999REMSYN068ROBN4 46/// /3413 10035 40144 51033 90300 333 91218 555 11012 22013=
0108997743999992022010304004+40650-074067FM-13+007299999V0203401N005119999999N999999999+00351+99999101521ADDMD1310251+9999OD159900771999REMSYN068ROBN4 46/// /3410 10035 40152 53025 90400 333 91215 555 11009 22010=
0108997743999992022010305004+40650-074067FM-13+007299999V0203401N004119999999N999999999+00321+99999101631ADDMD1310291+9999OD159900621999REMSYN068ROBN4 46/// /3408 10032 40163 53029 90500 333 91212 555 11008 22008=
0108997743999992022010306004+40650-074067FM-13+007299999V0203501N004619999999N999999999+00301+99999101721ADDMD1310281+9999OD159900621999REMSYN068ROBN4 46/// /3509 10030 40172 53028 90600 333 91212 555 11009 22009=
0108997743999992022010307004+40650-074067FM-13+007299999V0203401N005119999999N999999999+00271+99999101901ADDMD1310381+9999OD159900621999REMSYN068ROBN4 46/// /3410 10027 40190 53038 90700 333 91212 555 11009 22010=
0108997743999992022010308004+40650-074067FM-13+007299999V0203601N006719999999N999999999+00221+99999101861ADDMD1990231+9999OD159900771999REMSYN068ROBN4 46/// /3613 10022 40186 50023 90800 333 91215 555 11012 22013=
0108997743999992022010309004+40650-074067FM-13+007299999V0203601N009319999999N999999999+00161+99999101771ADDMD1990051+9999OD159901081999REMSYN068ROBN4 46/// /3618 10016 40177 50005 90900 333 91221 555 11016 22018=
0108997743999992022010310004+40650-074067FM-13+007299999V0200201N006219999999N999999999+00121+99999101941ADDMD1310041+9999OD159900721999REMSYN068ROBN4 46/// /0212 10012 40194 53004 91000 333 91214 555 11011 22012=
0108997743999992022010311004+40650-074067FM-13+007299999V0200101N009319999999N999999999+00061+99999101901ADDMD1310041+9999OD159901131999REMSYN068ROBN4 46/// /0118 10006 40190 53004 91100 333 91222 555 11017 22018=
0108997743999992022010312004+40650-074067FM-13+007299999V0200201N010819999999N999999999-00031+99999101901ADDMD1110131+9999OD159901291999REMSYN068ROBN4 46/// /0221 11003 40190 51013 91200 333 91225 555 11019 22021=
0108997743999992022010313004+40650-074067FM-13+007299999V0200101N009819999999N999999999-00051+99999101891ADDMD1610051+9999OD159901131999REMSYN068ROBN4 46/// /0119 11005 40189 56005 91300 333 91222 555 11017 22019=
0108997743999992022010314004+40650-074067FM-13+007299999V0200101N011319999999N999999999-00041+99999102021ADDMD1310121+9999OD159901291999REMSYN068ROBN4 46/// /0122 11004 40202 53012 91400 333 91225 555 11020 22022=
0108997743999992022010315004+40650-074067FM-13+007299999V0200201N009819999999N999999999-00101+99999102031ADDMD1210131+9999OD159901131999REMSYN068ROBN4 46/// /0219 11010 40203 52013 91500 333 91222 555 11017 22019=
0108997743999992022010316004+40650-074067FM-13+007299999V0203601N009319999999N999999999-00151+99999102011ADDMD1110121+9999OD159901031999REMSYN068ROBN4 46/// /3618 11015 40201 51012 91600 333 91220 555 11017 22018=
0108997743999992022010317004+40650-074067FM-13+007299999V0200201N010819999999N999999999-00171+99999101791ADDMD1810231+9999OD159901181999REMSYN068ROBN4 46/// /0221 11017 40179 58023 91700 333 91223 555 11019 22021=
0108997743999992022010318004+40650-074067FM-13+007299999V0200101N010819999999N999999999-00171+99999101601ADDMD1810431+9999OD159901291999REMSYN068ROBN4 46/// /0121 11017 40160 58043 91800 333 91225 555 11019 22021=
0108997743999992022010319004+40650-074067FM-13+007299999V0200101N011319999999N999999999-00221+99999101611ADDMD1610401+9999OD159901441999REMSYN068ROBN4 46/// /0122 11022 40161 56040 91900 333 91228 555 11020 22021=
0108997743999992022010320004+40650-074067FM-13+007299999V0200101N013419999999N999999999-00241+99999101671ADDMD1510121+9999OD159901441999REMSYN068ROBN4 46/// /0126 11024 40167 55012 92000 333 91228 555 11024 22026=
0108997743999992022010321004+40650-074067FM-13+007299999V0203601N016019999999N999999999-00211+99999101681ADDMD1210081+9999OD159901751999REMSYN068ROBN4 46/// /3631 11021 40168 52008 92100 333 91234 555 11028 22031=
0108997743999992022010322004+40650-074067FM-13+007299999V0203601N010819999999N999999999-00211+99999101801ADDMD1310191+9999OD159901441999REMSYN068ROBN4 46/// /3621 11021 40180 53019 92200 333 91228 555 11019 22021=
0108997743999992022010323004+40650-074067FM-13+007299999V0203501N009319999999N999999999-00231+99999101951ADDMD1310281+9999OD159901031999REMSYN068ROBN4 46/// /3518 11023 40195 53028 92300 333 91220 555 11016 22018=
0108997743999992022010400004+40650-074067FM-13+007299999V0203601N009319999999N999999999-00251+99999102101ADDMD1310421+9999OD159901181999REMSYN068ROBN4 46/// /3618 11025 40210 53042 90000 333 91223 555 11016 22018=
0108997743999992022010401004+40650-074067FM-13+007299999V0203601N007219999999N999999999-00271+99999102211ADDMD1110411+9999OD159900931999REMSYN068ROBN4 46/// /3614 11027 40221 51041 90100 333 91218 555 11012 22014=
0108997743999992022010402004+40650-074067FM-13+007299999V0203501N005719999999N999999999-00331+99999102281ADDMD1110331+9999OD159900771999REMSYN068ROBN4 46/// /3511 11033 40228 51033 90200 333 91215 555 11010 22011=
0108997743999992022010403004+40650-074067FM-13+007299999V0203501N009819999999N999999999-00401+99999102331ADDMD1110231+9999OD159901181999REMSYN068ROBN4 46/// /3519 11040 40233 51023 90300 333 91223 555 11017 22019=
0108997743999992022010404004+40650-074067FM-13+007299999V0203401N007719999999N999999999-00461+99999102371ADDMD1110161+9999OD159900981999REMSYN068ROBN4 46/// /3415 11046 40237 51016 90400 333 91219 555 11014 22015=
0108997743999992022010405004+40650-074067FM-13+007299999V0203401N006719999999N999999999-00471+99999102451ADDMD1310171+9999OD159900931999REMSYN068ROBN4 46/// /3413 11047 40245 53017 90500 333 91218 555 11012 22013=
0108997743999992022010406004+40650-074067FM-13+007299999V0203301N007219999999N999999999-00511+99999102521ADDMD1310191+9999OD159901031999REMSYN068ROBN4 46/// /3314 11051 40252 53019 90600 333 91220 555 11012 22014=
0108997743999992022010407004+40650-074067FM-13+007299999V0203401N007719999999N999999999-00561+99999102641ADDMD1310271+9999OD159900881999REMSYN068ROBN4 46/// /3415 11056 40264 53027 90700 333 91217 555 11013 22015=
0108997743999992022010408004+40650-074067FM-13+007299999V0203301N006219999999N999999999-00571+99999102691ADDMD1110241+9999OD159900771999REMSYN068ROBN4 46/// /3312 11057 40269 51024 90800 333 91215 555 11011 22011=
0108997743999992022010409004+40650-074067FM-13+007299999V0203201N007219999999N999999999-00611+99999102781ADDMD1110261+9999OD159900931999REMSYN068ROBN4 46/// /3214 11061 40278 51026 90900 333 91218 555 11013 22014=
0108997743999992022010410004+40650-074067FM-13+007299999V0203101N007219999999N999999999-00641+99999102861ADDMD1310221+9999OD159900931999REMSYN068ROBN4 46/// /3114 11064 40286 53022 91000 333 91218 555 11013 22014=
0108997743999992022010411004+40650-074067FM-13+007299999V0203301N007219999999N999999999-00671+99999102911ADDMD1110221+9999OD159900821999REMSYN068ROBN4 46/// /3314 11067 40291 51022 91100 333 91216 555 11012 22014=
0108997743999992022010412004+40650-074067FM-13+007299999V0203301N007219999999N999999999-00661+99999102961ADDMD1110181+9999OD159900881999REMSYN068ROBN4 46/// /3314 11066 40296 51018 91200 333 91217 555 11013 22014=
0108997743999992022010413004+40650-074067FM-13+007299999V0203301N006219999999N999999999-00631+99999103071ADDMD1310211+9999OD159900671999REMSYN068ROBN4 46/// /3312 11063 40307 53021 91300 333 91213 555 11011 22011=
0108997743999992022010414004+40650-074067FM-13+007299999V0203201N003619999999N999999999+99999+99999103111ADDMD1110201+9999OD159900511999REMSYN068ROBN4 46/// /3207 1//// 40311 51020 91400 333 91210 555 11007 22007=
0108997743999992022010415004+40650-074067FM-13+007299999V0202901N000519999999N999999999-00451+99999103121ADDMD1110161+9999OD159900211999REMSYN068ROBN4 46/// /2901 11045 40312 51016 91500 333 91204 555 11001 22001=
0108997743999992022010416004+40650-074067FM-13+007299999V0202801N001519999999N999999999-00341+99999103081ADDMD1990001+9999OD159900261999REMSYN068ROBN4 46/// /2803 11034 40308 50000 91600 333 91205 555 11003 22003=
0108997743999992022010417004+40650-074067FM-13+007299999V0203101N001519999999N999999999-00201+99999102941ADDMD1810171+9999OD159900361999REMSYN068ROBN4 46/// /3103 11020 40294 58017 91700 333 91207 555 11002 22003=
0108997743999992022010418004+40650-074067FM-13+007299999V0202801N001019999999N999999999-00071+99999102851ADDMD1810271+9999OD159900151999REMSYN068ROBN4 46/// /2802 11007 40285 58027 91800 333 91203 555 11001 22002=
0108997743999992022010419004+40650-074067FM-13+007299999V0201501N004119999999N999999999-00051+99999102831ADDMD1610251+9999OD159900511999REMSYN068ROBN4 46/// /1508 11005 40283 56025 91900 333 91210 555 11007 22008=
0108997743999992022010420004+40650-074067FM-13+007299999V0202301N004619999999N999999999+00081+99999102811ADDMD1610131+9999OD159900571999REMSYN068ROBN4 46/// /2309 10008 40281 56013 92000 333 91211 555 11008 22009=
0108997743999992022010421004+40650-074067FM-13+007299999V0202401N003119999999N999999999+00141+99999102821ADDMD1710031+9999OD159900461999REMSYN068ROBN4 46/// /2406 10014 40282 57003 92100 333 91209 555 11005 22006=
0108997743999992022010422004+40650-074067FM-13+007299999V0202201N004119999999N999999999+00121+99999102831ADDMD1410001+9999OD159900511999REMSYN068ROBN4 46/// /2208 10012 40283 54000 92200 333 91210 555 11007 22008=
0108997743999992022010423004+40650-074067FM-13+007299999V0202201N004619999999N999999999+00131+99999102821ADDMD1410001+9999OD159900621999REMSYN068ROBN4 46/// /2209 10013 40282 54000 92300 333 91212 555 11008 22009=
0108997743999992022010500004+40650-074067FM-13+007299999V0202201N004119999999N999999999+00101+99999102821ADDMD1410001+9999OD159900571999REMSYN068ROBN4 46/// /2208 10010 40282 54000 90000 333 91211 555 11007 22008=
0108997743999992022010501004+40650-074067FM-13+007299999V0202301N004619999999N999999999+00061+99999102811ADDMD1410001+9999OD159900571999REMSYN068ROBN4 46/// /2309 10006 40281 54000 90100 333 91211 555 11009 22009=
0108997743999992022010502004+40650-074067FM-13+007299999V0202101N004619999999N999999999+00041+99999102751ADDMD1810071+9999OD159900571999REMSYN068ROBN4 46/// /2109 10004 40275 58007 90200 333 91211 555 11009 22009=
0108997743999992022010503004+40650-074067FM-13+007299999V0202001N005119999999N999999999+00001+99999102711ADDMD1810111+9999OD159900621999REMSYN068ROBN4 46/// /2010 10000 40271 58011 90300 333 91212 555 11009 22010=
0108997743999992022010504004+40650-074067FM-13+007299999V0202001N004619999999N999999999-00041+99999102651ADDMD1710161+9999OD159900571999REMSYN068ROBN4 46/// /2009 11004 40265 57016 90400 333 91211 555 11008 22009=
0108997743999992022010505004+40650-074067FM-13+007299999V0202201N005119999999N999999999-00061+99999102601ADDMD1810151+9999OD159900671999REMSYN068ROBN4 46/// /2210 11006 40260 58015 90500 333 91213 555 11009 22010=
0108997743999992022010506004+40650-074067FM-13+007299999V0202101N004619999999N999999999-00051+99999102471ADDMD1810241+9999OD159900621999REMSYN068ROBN4 46/// /2109 11005 40247 58024 90600 333 91212 555 11008 22009=
0108997743999992022010507004+40650-074067FM-13+007299999V0202301N004119999999N999999999+00021+99999102421ADDMD1710231+9999OD159900621999REMSYN068ROBN4 46/// /2308 10002 40242 57023 90700 333 91212 555 11008 22008=
0108997743999992022010508004+40650-074067FM-13+007299999V0202501N003619999999N999999999-00041+99999102321ADDMD1610281+9999OD159900411999REMSYN068ROBN4 46/// /2507 11004 40232 56028 90800 333 91208 555 11006 22007=
0108997743999992022010509004+40650-074067FM-13+007299999V0202601N003119999999N999999999-00051+99999102181ADDMD1810291+9999OD159900461999REMSYN068ROBN4 46/// /2606 11005 40218 58029 90900 333 91209 555 11006 22006=
0108997743999992022010510004+40650-074067FM-13+007299999V0202401N002619999999N999999999-00031+99999102051ADDMD1810371+9999OD159900361999REMSYN068ROBN4 46/// /2405 11003 40205 58037 91000 333 91207 555 11004 22005=
0108997743999992022010511004+40650-074067FM-13+007299999V0203001N004119999999N999999999-00031+99999101941ADDMD1610381+9999OD159900461999REMSYN068ROBN4 46/// /3008 11003 40194 56038 91100 333 91209 555 11007 22008=
0108997743999992022010512004+40650-074067FM-13+007299999V0202801N002619999999N999999999+00001+99999101851ADDMD1610331+9999OD159900361999REMSYN068ROBN4 46/// /2805 10000 40185 56033 91200 333 91207 555 11004 22004=
0108997743999992022010513004+40650-074067FM-13+007299999V0201601N001019999999N999999999+00121+99999101701ADDMD1810351+9999OD159900411999REMSYN068ROBN4 46/// /1602 10012 40170 58035 91300 333 91208 555 11001 22002=
0108997743999992022010514004+40650-074067FM-13+007299999V0202401N005719999999N999999999+00191+99999101671ADDMD1610271+9999OD159900621999REMSYN068ROBN4 46/// /2411 10019 40167 56027 91400 333 91212 555 11010 22011=
0108997743999992022010515004+40650-074067FM-13+007299999V0202201N005119999999N999999999+00341+99999101531ADDMD1610321+9999OD159900671999REMSYN068ROBN4 46/// /2210 10034 40153 56032 91500 333 91213 555 11009 22010=
0108997743999992022010516004+40650-074067FM-13+007299999V0202301N006219999999N999999999+00371+99999101441ADDMD1810261+9999OD159900771999REMSYN068ROBN4 46/// /2312 10037 40144 58026 91600 333 91215 555 11011 22012=
0108997743999992022010517004+40650-074067FM-13+007299999V0202201N006219999999N999999999+00421+99999101231ADDMD1810441+9999OD159900721999REMSYN068ROBN4 46/// /2212 10042 40123 58044 91700 333 91214 555 11011 22012=
0108997743999992022010518004+40650-074067FM-13+007299999V0202001N008219999999N999999999+00561+99999101041ADDMD1810491+9999OD159900981999REMSYN068ROBN4 46/// /2016 10056 40104 58049 91800 333 91219 555 11015 22016=
0108997743999992022010519004+40650-074067FM-13+007299999V0202101N005719999999N999999999+00621+99999100921ADDMD1610521+9999OD159900721999REMSYN068ROBN4 46/// /2111 10062 40092 56052 91900 333 91214 555 11010 22011=
0108997743999992022010520004+40650-074067FM-13+007299999V0202001N004619999999N999999999+00741+99999100841ADDMD1610391+9999OD159900571999REMSYN068ROBN4 46/// /2009 10074 40084 56039 92000 333 91211 555 11008 22009=
0108997743999992022010521004+40650-074067FM-13+007299999V0202401N003619999999N999999999+00851+99999100831ADDMD1610211+9999OD159900461999REMSYN068ROBN4 46/// /2407 10085 40083 56021 92100 333 91209 555 11007 22007=
0108997743999992022010522004+40650-074067FM-13+007299999V0202101N003119999999N999999999+00821+99999100801ADDMD1610121+9999OD159900361999REMSYN068ROBN4 46/// /2106 10082 40080 56012 92200 333 91207 555 11005 22006=
0108997743999992022010523004+40650-074067FM-13+007299999V0202101N004619999999N999999999+00801+99999100691ADDMD1810151+9999OD159900621999REMSYN068ROBN4 46/// /2109 10080 40069 58015 92300 333 91212 555 11008 22009=
0108997743999992022010600004+40650-074067FM-13+007299999V0202301N003619999999N999999999+00761+99999100711ADDMD1610121+9999OD159900461999REMSYN068ROBN4 46/// /2307 10076 40071 56012 90000 333 91209 555 11006 22007=
0108997743999992022010601004+40650-074067FM-13+007299999V0202401N004619999999N999999999+00681+99999100721ADDMD1610081+9999OD159900571999REMSYN068ROBN4 46/// /2409 10068 40072 56008 90100 333 91211 555 11008 22009=
0108997743999992022010602004+40650-074067FM-13+007299999V0202501N005719999999N999999999+00631+99999100671ADDMD1990001+9999OD159900721999REMSYN068ROBN4 46/// /2511 10063 40067 50000 90200 333 91214 555 11010 22011=
0108997743999992022010603004+40650-074067FM-13+007299999V0202601N005119999999N999999999+00571+99999100621ADDMD1810091+9999OD159900621999REMSYN068ROBN4 46/// /2610 10057 40062 58009 90300 333 91212 555 11009 22010=
0108997743999992022010604004+40650-074067FM-13+007299999V0202701N004119999999N999999999+00511+99999100551ADDMD1810171+9999OD159900671999REMSYN068ROBN4 46/// /2708 10051 40055 58017 90400 333 91213 555 11008 22008=
0108997743999992022010605004+40650-074067FM-13+007299999V0202601N005719999999N999999999+00471+99999100561ADDMD1610111+9999OD159900671999REMSYN068ROBN4 46/// /2611 10047 40056 56011 90500 333 91213 555 11010 22011=
0108997743999992022010606004+40650-074067FM-13+007299999V0202501N004119999999N999999999+00451+99999100551ADDMD1610071+9999OD159900511999REMSYN068ROBN4 46/// /2508 10045 40055 56007 90600 333 91210 555 11008 22008=
0108997743999992022010607004+40650-074067FM-13+007299999V0202801N005719999999N999999999+00421+99999100661ADDMD1310111+9999OD159900671999REMSYN068ROBN4 46/// /2811 10042 40066 53011 90700 333 91213 555 11010 22011=
0108997743999992022010608004+40650-074067FM-13+007299999V0202901N003119999999N999999999+00371+99999100681ADDMD1210121+9999OD159900361999REMSYN068ROBN4 46/// /2906 10037 40068 52012 90800 333 91207 555 11006 22006=
0108997743999992022010609004+40650-074067FM-13+007299999V0202701N003119999999N999999999+00391+99999100741ADDMD1110191+9999OD159900411999REMSYN068ROBN4 46/// /2706 10039 40074 51019 90900 333 91208 555 11006 22006=
0108997743999992022010610004+40650-074067FM-13+007299999V0202601N005719999999N999999999+00301+99999100841ADDMD1310181+9999OD159900621999REMSYN068ROBN4 46/// /2611 10030 40084 53018 91000 333 91212 555 11010 22011=
0108997743999992022010611004+40650-074067FM-13+007299999V0202901N005119999999N999999999+00331+99999100971ADDMD1310291+9999OD159900671999REMSYN068ROBN4 46/// /2910 10033 40097 53029 91100 333 91213 555 11009 22010=
0108997743999992022010612004+40650-074067FM-13+007299999V0202901N008819999999N999999999+00351+99999101041ADDMD1110301+9999OD159900981999REMSYN068ROBN4 46/// /2917 10035 40104 51030 91200 333 91219 555 11015 22017=
0108997743999992022010613004+40650-074067FM-13+007299999V0202801N009319999999N999999999+00301+99999101101ADDMD1110261+9999OD159901031999REMSYN068ROBN4 46/// /2818 10030 40110 51026 91300 333 91220 555 11016 22018=
0108997743999992022010614004+40650-074067FM-13+007299999V0202801N009819999999N999999999+00271+99999101241ADDMD1310271+9999OD159901131999REMSYN068ROBN4 46/// /2819 10027 40124 53027 91400 333 91222 555 11017 22019=
0108997743999992022010615004+40650-074067FM-13+007299999V0202801N008819999999N999999999+00271+99999101341ADDMD1310301+9999OD159900981999REMSYN068ROBN4 46/// /2817 10027 40134 53030 91500 333 91219 555 11015 22017=
0108997743999992022010616004+40650-074067FM-13+007299999V0203001N010819999999N999999999+00241+99999101321ADDMD1110221+9999OD159901181999REMSYN068ROBN4 46/// /3021 10024 40132 51022 91600 333 91223 555 11019 22021=
0108997743999992022010617004+40650-074067FM-13+007299999V0202801N009319999999N999999999+00231+99999101321ADDMD1110081+9999OD159901131999REMSYN068ROBN4 46/// /2818 10023 40132 51008 91700 333 91222 555 11017 22018=
0108997743999992022010618004+40650-074067FM-13+007299999V0203001N009319999999N999999999+00221+99999101281ADDMD1810061+9999OD159901241999REMSYN068ROBN4 46/// /3018 10022 40128 58006 91800 333 91224 555 11017 22018=
0108997743999992022010619004+40650-074067FM-13+007299999V0202801N006719999999N999999999+00241+99999101301ADDMD1410001+9999OD159900821999REMSYN068ROBN4 46/// /2813 10024 40130 54000 91900 333 91216 555 11012 22013=
0108997743999992022010620004+40650-074067FM-13+007299999V0202901N005719999999N999999999+00281+99999101261ADDMD1710061+9999OD159900671999REMSYN068ROBN4 46/// /2911 10028 40126 57006 92000 333 91213 555 11010 22011=
0108997743999992022010621004+40650-074067FM-13+007299999V0203001N003619999999N999999999+00281+99999101301ADDMD1510001+9999OD159900511999REMSYN068ROBN4 46/// /3007 10028 40130 55000 92100 333 91210 555 11007 22007=
0108997743999992022010622004+40650-074067FM-13+007299999V0203001N005119999999N999999999+00281+99999101391ADDMD1310091+9999OD159900621999REMSYN068ROBN4 46/// /3010 10028 40139 53009 92200 333 91212 555 11009 22010=
0108997743999992022010623004+40650-074067FM-13+007299999V0202901N006219999999N999999999+00241+99999101481ADDMD1310221+9999OD159900671999REMSYN068ROBN4 46/// /2912 10024 40148 53022 92300 333 91213 555 11011 22012=
0108997743999992022010700004+40650-074067FM-13+007299999V0203301N003619999999N999999999+00201+99999101441ADDMD1990141+9999OD159900571999REMSYN068ROBN4 46/// /3307 10020 40144 50014 90000 333 91211 555 11007 22007=
0108997743999992022010701004+40650-074067FM-13+007299999V0202801N002619999999N999999999+00181+99999101441ADDMD1110051+9999OD159900461999REMSYN068ROBN4 46/// /2805 10018 40144 51005 90100 333 91209 555 11005 22005=
0108997743999992022010702004+40650-074067FM-13+007299999V0202601N002119999999N999999999+00181+99999101361ADDMD1810121+9999OD159900261999REMSYN068ROBN4 46/// /2604 10018 40136 58012 90200 333 91205 555 11003 22004=
0108997743999992022010703004+40650-074067FM-13+007299999V0203501N002619999999N999999999+00171+99999101291ADDMD1810151+9999OD159900361999REMSYN068ROBN4 46/// /3505 10017 40129 58015 90300 333 91207 555 11005 22005=
0108997743999992022010704004+40650-074067FM-13+007299999V0203501N005119999999N999999999+00151+99999101321ADDMD1510121+9999OD159900511999REMSYN068ROBN4 46/// /3510 10015 40132 55012 90400 333 91210 555 11009 22010=
0108997743999992022010705004+40650-074067FM-13+007299999V0200201N009319999999N999999999+00131+99999101111ADDMD1810251+9999OD159901031999REMSYN068ROBN4 46/// /0218 10013 40111 58025 90500 333 91220 555 11016 22017=
0108997743999992022010706004+40650-074067FM-13+007299999V0203501N004619999999N999999999-00101+99999101011ADDMD1810281+9999OD159900821999REMSYN068ROBN4 46/// /3509 11010 40101 58028 90600 333 91216 555 11008 22009=
0108997743999992022010707004+40650-074067FM-13+007299999V0200101N005719999999N999999999-00111+99999100921ADDMD1610401+9999OD159900671999REMSYN068ROBN4 46/// /0111 11011 40092 56040 90700 333 91213 555 11010 22011=
0108997743999992022010708004+40650-074067FM-13+007299999V0200601N004619999999N999999999-00141+99999100811ADDMD1810301+9999OD159900621999REMSYN068ROBN4 46/// /0609 11014 40081 58030 90800 333 91212 555 11008 22009=
0108997743999992022010709004+40650-074067FM-13+007299999V0200401N006219999999N999999999-00131+99999100701ADDMD1810311+9999OD159900671999REMSYN068ROBN4 46/// /0412 11013 40070 58031 90900 333 91213 555 11011 22012=
0108997743999992022010710004+40650-074067FM-13+007299999V0203401N005719999999N999999999-00191+99999100741ADDMD1510181+9999OD159900771999REMSYN068ROBN4 46/// /3411 11019 40074 55018 91000 333 91215 555 11010 22011=
0108997743999992022010711004+40650-074067FM-13+007299999V0203301N004619999999N999999999-00201+99999100841ADDMD1310031+9999OD159900671999REMSYN068ROBN4 46/// /3309 11020 40084 53003 91100 333 91213 555 11009 22009=
0108997743999992022010712004+40650-074067FM-13+007299999V0203301N005719999999N999999999-00221+99999100831ADDMD1110131+9999OD159900821999REMSYN068ROBN4 46/// /3311 11022 40083 51013 91200 333 91216 555 11010 22011=
0108997743999992022010713004+40650-074067FM-13+007299999V0203201N006219999999N999999999-00241+99999100901ADDMD1110161+9999OD159900881999REMSYN068ROBN4 46/// /3212 11024 40090 51016 91300 333 91217 555 11011 22012=
0108997743999992022010714004+40650-074067FM-13+007299999V0203201N007719999999N999999999-00181+99999100951ADDMD1310111+9999OD159900981999REMSYN068ROBN4 46/// /3215 11018 40095 53011 91400 333 91219 555 11014 22015=
0108997743999992022010715004+40650-074067FM-13+007299999V0203101N009319999999N999999999-00091+99999100981ADDMD1110151+9999OD159901081999REMSYN068ROBN4 46/// /3118 11009 40098 51015 91500 333 91221 555 11017 22018=
0108997743999992022010716004+40650-074067FM-13+007299999V0203101N011819999999N999999999+00011+99999101011ADDMD1110111+9999OD159901601999REMSYN068ROBN4 46/// /3123 10001 40101 51011 91600 333 91231 555 11021 22022=
0108997743999992022010717004+40650-074067FM-13+007299999V0203001N011819999999N999999999+00071+99999100961ADDMD1990001+9999OD159901391999REMSYN068ROBN4 46/// /3023 10007 40096 50000 91700 333 91227 555 11021 22023=
0108997743999992022010718004+40650-074067FM-13+007299999V0203201N009819999999N999999999+00071+99999100991ADDMD1410001+9999OD159901601999REMSYN068ROBN4 46/// /3219 10007 40099 54000 91800 333 91231 555 11018 22019=
0108997743999992022010719004+40650-074067FM-13+007299999V0203101N010819999999N999999999+00061+99999101051ADDMD1310041+9999OD159901291999REMSYN068ROBN4 46/// /3121 10006 40105 53004 91900 333 91225 555 11019 22021=
0108997743999992022010720004+40650-074067FM-13+007299999V0203001N012419999999N999999999+00051+99999101181ADDMD1310221+9999OD159901751999REMSYN068ROBN4 46/// /3024 10005 40118 53022 92000 333 91234 555 11022 22024=
0108997743999992022010721004+40650-074067FM-13+007299999V0203001N012419999999N999999999+00061+99999101331ADDMD1310341+9999OD159901391999REMSYN068ROBN4 46/// /3024 10006 40133 53034 92100 333 91227 555 11022 22024=
0108997743999992022010722004+40650-074067FM-13+007299999V0202901N008819999999N999999999-00011+99999101501ADDMD1310451+9999OD159901441999REMSYN068ROBN4 46/// /2917 11001 40150 53045 92200 333 91228 555 11015 22016=
0108997743999992022010723004+40650-074067FM-13+007299999V0202901N011319999999N999999999-00081+99999101681ADDMD1310501+9999OD159901441999REMSYN068ROBN4 46/// /2922 11008 40168 53050 92300 333 91228 555 11020 22021=
0108997743999992022010800004+40650-074067FM-13+007299999V0202901N009819999999N999999999-00171+99999101831ADDMD1110501+9999OD159901241999REMSYN068ROBN4 46/// /2919 11017 40183 51050 90000 333 91224 555 11017 22018=
0108997743999992022010801004+40650-074067FM-13+007299999V0202901N010319999999N999999999-00211+99999101961ADDMD1110461+9999OD159901291999REMSYN068ROBN4 46/// /2920 11021 40196 51046 90100 333 91225 555 11018 22020=
0108997743999992022010802004+40650-074067FM-13+007299999V0202901N009819999999N999999999-00241+99999102051ADDMD1110371+9999OD159901241999REMSYN068ROBN4 46/// /2919 11024 40205 51037 90200 333 91224 555 11018 22019=
0108997743999992022010803004+40650-074067FM-13+007299999V0202901N009319999999N999999999-00271+99999102151ADDMD1110321+9999OD159901131999REMSYN068ROBN4 46/// /2918 11027 40215 51032 90300 333 91222 555 11017 22018=
0108997743999992022010804004+40650-074067FM-13+007299999V0202801N008219999999N999999999-00331+99999102251ADDMD1310291+9999OD159900981999REMSYN068ROBN4 46/// /2816 11033 40225 53029 90400 333 91219 555 11015 22016=
0108997743999992022010805004+40650-074067FM-13+007299999V0203201N011319999999N999999999-00311+99999102311ADDMD1110261+9999OD159901341999REMSYN068ROBN4 46/// /3222 11031 40231 51026 90500 333 91226 555 11020 22022=
0108997743999992022010806004+40650-074067FM-13+007299999V0203201N011319999999N999999999-00381+99999102411ADDMD1210261+9999OD159901391999REMSYN068ROBN4 46/// /3222 11038 40241 52026 90600 333 91227 555 11020 22022=
0108997743999992022010807004+40650-074067FM-13+007299999V0203201N007719999999N999999999-00401+99999102581ADDMD1310331+9999OD159901031999REMSYN068ROBN4 46/// /3215 11040 40258 53033 90700 333 91220 555 11014 22015=
0108997743999992022010808004+40650-074067FM-13+007299999V0203101N007219999999N999999999-00421+99999102711ADDMD1310401+9999OD159901031999REMSYN068ROBN4 46/// /3114 11042 40271 53040 90800 333 91220 555 11013 22014=
0108997743999992022010809004+40650-074067FM-13+007299999V0203101N006719999999N999999999-00471+99999102821ADDMD1110411+9999OD159900821999REMSYN068ROBN4 46/// /3113 11047 40282 51041 90900 333 91216 555 11012 22013=
0108997743999992022010810004+40650-074067FM-13+007299999V0203101N006219999999N999999999-00471+99999103031ADDMD1310451+9999OD159900881999REMSYN068ROBN4 46/// /3112 11047 40303 53045 91000 333 91217 555 11011 22012=
0108997743999992022010811004+40650-074067FM-13+007299999V0203101N008819999999N999999999-00511+99999103141ADDMD1210431+9999OD159901131999REMSYN068ROBN4 46/// /3117 11051 40314 52043 91100 333 91222 555 11016 22017=
0108997743999992022010812004+40650-074067FM-13+007299999V0203201N008219999999N999999999-00551+99999103231ADDMD1110411+9999OD159900981999REMSYN068ROBN4 46/// /3216 11055 40323 51041 91200 333 91219 555 11014 22015=
0108997743999992022010813004+40650-074067FM-13+007299999V0203101N007719999999N999999999-00571+99999103371ADDMD1310341+9999OD159901131999REMSYN068ROBN4 46/// /3115 11057 40337 53034 91300 333 91222 555 11013 22015=
0108997743999992022010814004+40650-074067FM-13+007299999V0203201N007719999999N999999999-00571+99999103511ADDMD1310371+9999OD159901181999REMSYN068ROBN4 46/// /3215 11057 40351 53037 91400 333 91223 555 11014 22015=
0108997743999992022010815004+40650-074067FM-13+007299999V0203301N006719999999N999999999-00501+99999103661ADDMD1310431+9999OD159900881999REMSYN068ROBN4 46/// /3313 11050 40366 53043 91500 333 91217 555 11012 22013=
0108997743999992022010816004+40650-074067FM-13+007299999V0203201N004619999999N999999999-00431+99999103661ADDMD1110291+9999OD159900621999REMSYN068ROBN4 46/// /3209 11043 40366 51029 91600 333 91212 555 11008 22009=
0108997743999992022010817004+40650-074067FM-13+007299999V0203201N004619999999N999999999-00371+99999103611ADDMD1990101+9999OD159900571999REMSYN068ROBN4 46/// /3209 11037 40361 50010 91700 333 91211 555 11008 22009=
0108997743999992022010818004+40650-074067FM-13+007299999V0203201N005119999999N999999999-00271+99999103571ADDMD1810091+9999OD159900571999REMSYN068ROBN4 46/// /3210 11027 40357 58009 91800 333 91211 555 11009 22010=
0108997743999992022010819004+40650-074067FM-13+007299999V0209999C000019999999N999999999-00161+99999103571ADDMD1610091+9999OD159900211999REMSYN068ROBN4 46/// /0000 11016 40357 56009 91900 333 91204 555 11000 22000=
0108997743999992022010820004+40650-074067FM-13+007299999V0202501N001019999999N999999999-00051+99999103571ADDMD1610041+9999OD159900151999REMSYN068ROBN4 46/// /2502 11005 40357 56004 92000 333 91203 555 11002 22002=
0108997743999992022010821004+40650-074067FM-13+007299999V0200601N000519999999N999999999-00101+99999103601ADDMD1310031+9999OD159900101999REMSYN068ROBN4 46/// /0601 11010 40360 53003 92100 333 91202 555 11001 22001=
0108997743999992022010822004+40650-074067FM-13+007299999V0202301N001519999999N999999999-00091+99999103591ADDMD1410001+9999OD159900211999REMSYN068ROBN4 46/// /2303 11009 40359 54000 92200 333 91204 555 11002 22003=
0108997743999992022010823004+40650-074067FM-13+007299999V0202301N004119999999N999999999-00121+99999103611ADDMD1110041+9999OD159900511999REMSYN068ROBN4 46/// /2308 11012 40361 51004 92300 333 91210 555 11007 22008=
0108997743999992022010900004+40650-074067FM-13+007299999V0202301N004619999999N999999999-00141+99999103621ADDMD1410001+9999OD159900511999REMSYN068ROBN4 46/// /2309 11014 40362 54000 90000 333 91210 555 11008 22009=
0088997743999992022010901004+40650-074067FM-13+007299999V0202301N004119999999N999999999-00141+99999103641ADDOD159900461999REMSYN062ROBN4 46/// /2308 11014 40364 90048 333 91209 555 11007 22008=
0108997743999992022010902004+40650-074067FM-13+007299999V0202201N003119999999N999999999-00161+99999103601ADDMD1990001+9999OD159900511999REMSYN068ROBN4 46/// /2206 11016 40360 50000 90200 333 91210 555 11006 22006=
0108997743999992022010903004+40650-074067FM-13+007299999V0201901N004619999999N999999999-00181+99999103531ADDMD1810091+9999OD159900621999REMSYN068ROBN4 46/// /1909 11018 40353 58009 90300 333 91212 555 11009 22009=
0108997743999992022010904004+40650-074067FM-13+007299999V0202001N004619999999N999999999-00131+99999103391ADDMD1810261+9999OD159900571999REMSYN068ROBN4 46/// /2009 11013 40339 58026 90400 333 91211 555 11008 22009=
0108997743999992022010905004+40650-074067FM-13+007299999V0202301N005119999999N999999999-00161+99999103451ADDMD1510151+9999OD159900671999REMSYN068ROBN4 46/// /2310 11016 40345 55015 90500 333 91213 555 11009 22010=
0108997743999992022010906004+40650-074067FM-13+007299999V0202301N005119999999N999999999-00171+99999103361ADDMD1610171+9999OD159900621999REMSYN068ROBN4 46/// /2310 11017 40336 56017 90600 333 91212 555 11009 22010=
0108997743999992022010907004+40650-074067FM-13+007299999V0202201N005119999999N999999999-00161+99999103371ADDMD1990001+9999OD159900621999REMSYN068ROBN4 46/// /2210 11016 40337 50000 90700 333 91212 555 11009 22010=
0108997743999992022010908004+40650-074067FM-13+007299999V0202201N007219999999N999999999-00081+99999103241ADDMD1810211+9999OD159900881999REMSYN068ROBN4 46/// /2214 11008 40324 58021 90800 333 91217 555 11012 22014=
0108997743999992022010909004+40650-074067FM-13+007299999V0202201N006719999999N999999999-00061+99999103111ADDMD1810251+9999OD159900881999REMSYN068ROBN4 46/// /2213 11006 40311 58025 90900 333 91217 555 11012 22013=
0108997743999992022010910004+40650-074067FM-13+007299999V0202101N009819999999N999999999+00011+99999102951ADDMD1810421+9999OD159901131999REMSYN068ROBN4 46/// /2119 10001 40295 58042 91000 333 91222 555 11018 22019=
0108997743999992022010911004+40650-074067FM-13+007299999V0202101N005719999999N999999999+00071+99999102861ADDMD1610381+9999OD159900881999REMSYN068ROBN4 46/// /2111 10007 40286 56038 91100 333 91217 555 11010 22011=
0108997743999992022010912004+40650-074067FM-13+007299999V0202101N007219999999N999999999+00101+99999102751ADDMD1610361+9999OD159900981999REMSYN068ROBN4 46/// /2114 10010 40275 56036 91200 333 91219 555 11012 22014=
0108997743999992022010913004+40650-074067FM-13+007299999V0202001N007219999999N999999999+00111+99999102611ADDMD1810341+9999OD159901081999REMSYN068ROBN4 46/// /2014 10011 40261 58034 91300 333 91221 555 11013 22014=
0108997743999992022010914004+40650-074067FM-13+007299999V0202001N006219999999N999999999+00171+99999102611ADDMD1610251+9999OD159900881999REMSYN068ROBN4 46/// /2012 10017 40261 56025 91400 333 91217 555 11011 22012=
0108997743999992022010915004+40650-074067FM-13+007299999V0202101N006219999999N999999999+00251+99999102501ADDMD1610251+9999OD159900671999REMSYN068ROBN4 46/// /2112 10025 40250 56025 91500 333 91213 555 11011 22011=
0108997743999992022010916004+40650-074067FM-13+007299999V0202201N007719999999N999999999+00301+99999102391ADDMD1810221+9999OD159901081999REMSYN068ROBN4 46/// /2215 10030 40239 58022 91600 333 91221 555 11014 22015=
0108997743999992022010917004+40650-074067FM-13+007299999V0202201N006719999999N999999999+00311+99999102071ADDMD1810541+9999OD159900981999REMSYN068ROBN4 46/// /2213 10031 40207 58054 91700 333 91219 555 11012 22013=
0108997743999992022010918004+40650-074067FM-13+007299999V0202401N006219999999N999999999+00381+99999101971ADDMD1610531+9999OD159900721999REMSYN068ROBN4 46/// /2412 10038 40197 56053 91800 333 91214 555 11011 22011=
0108997743999992022010919004+40650-074067FM-13+007299999V0202401N007719999999N999999999+00411+99999101861ADDMD1610531+9999OD159900931999REMSYN068ROBN4 46/// /2415 10041 40186 56053 91900 333 91218 555 11014 22015=
0108997743999992022010920004+40650-074067FM-13+007299999V0202501N007219999999N999999999+00391+99999101721ADDMD1810351+9999OD159900821999REMSYN068ROBN4 46/// /2514 10039 40172 58035 92000 333 91216 555 11012 22014=
0108997743999992022010921004+40650-074067FM-13+007299999V0202501N005719999999N999999999+00391+99999101701ADDMD1610271+9999OD159900721999REMSYN068ROBN4 46/// /2511 10039 40170 56027 92100 333 91214 555 11010 22011=
0108997743999992022010922004+40650-074067FM-13+007299999V0202601N005119999999N999999999+00381+99999101661ADDMD1610201+9999OD159900571999REMSYN068ROBN4 46/// /2610 10038 40166 56020 92200 333 91211 555 11009 22010=
0108997743999992022010923004+40650-074067FM-13+007299999V0202601N005119999999N999999999+00361+99999101641ADDMD1710081+9999OD159900721999REMSYN068ROBN4 46/// /2610 10036 40164 57008 92300 333 91214 555 11009 22010=
0108997743999992022011000004+40650-074067FM-13+007299999V0202501N006219999999N999999999+00361+99999101571ADDMD1810131+9999OD159900771999REMSYN068ROBN4 46/// /2512 10036 40157 58013 90000 333 91215 555 11011 22012=
0108997743999992022011001004+40650-074067FM-13+007299999V0202701N006219999999N999999999+00371+99999101551ADDMD1710111+9999OD159900931999REMSYN068ROBN4 46/// /2712 10037 40155 57011 90100 333 91218 555 11011 22012=
0108997743999992022011002004+40650-074067FM-13+007299999V0202801N007219999999N999999999+00401+99999101511ADDMD1610131+9999OD159900821999REMSYN068ROBN4 46/// /2814 10040 40151 56013 90200 333 91216 555 11013 22014=
0108997743999992022011003004+40650-074067FM-13+007299999V0202801N006219999999N999999999+00391+99999101481ADDMD1810091+9999OD159900771999REMSYN068ROBN4 46/// /2812 10039 40148 58009 90300 333 91215 555 11011 22012=
0108997743999992022011004004+40650-074067FM-13+007299999V0202901N007219999999N999999999+00401+99999101471ADDMD1610081+9999OD159900931999REMSYN068ROBN4 46/// /2914 10040 40147 56008 90400 333 91218 555 11013 22014=
0108997743999992022011005004+40650-074067FM-13+007299999V0202901N007219999999N999999999+00441+99999101501ADDMD1510001+9999OD159900821999REMSYN068ROBN4 46/// /2914 10044 40150 55000 90500 333 91216 555 11012 22014=
0108997743999992022011006004+40650-074067FM-13+007299999V0202901N007219999999N999999999+00421+99999101501ADDMD1410001+9999OD159900771999REMSYN068ROBN4 46/// /2914 10042 40150 54000 90600 333 91215 555 11012 22014=
0108997743999992022011007004+40650-074067FM-13+007299999V0202901N007719999999N999999999+00391+99999101521ADDMD1110051+9999OD159900931999REMSYN068ROBN4 46/// /2915 10039 40152 51005 90700 333 91218 555 11014 22015=
0108997743999992022011008004+40650-074067FM-13+007299999V0202901N007219999999N999999999+00371+99999101601ADDMD1310101+9999OD159900821999REMSYN068ROBN4 46/// /2914 10037 40160 53010 90800 333 91216 555 11013 22014=
0108997743999992022011009004+40650-074067FM-13+007299999V0203301N009819999999N999999999+00281+99999101661ADDMD1310161+9999OD159901291999REMSYN068ROBN4 46/// /3319 10028 40166 53016 90900 333 91225 555 11017 22019=
0108997743999992022011010004+40650-074067FM-13+007299999V0203301N006719999999N999999999+00131+99999101771ADDMD1310251+9999OD159901291999REMSYN068ROBN4 46/// /3313 10013 40177 53025 91000 333 91225 555 11012 22013=
0108997743999992022011011004+40650-074067FM-13+007299999V0203301N007219999999N999999999+00011+99999101851ADDMD1310251+9999OD159900981999REMSYN068ROBN4 46/// /3314 10001 40185 53025 91100 333 91219 555 11013 22014=
0108997743999992022011012004+40650-074067FM-13+007299999V0203401N009319999999N999999999-00101+99999101921ADDMD1110261+9999OD159901491999REMSYN068ROBN4 46/// /3418 11010 40192 51026 91200 333 91229 555 11017 22018=
0108997743999992022011013004+40650-074067FM-13+007299999V0203201N008819999999N999999999-00151+99999102041ADDMD1310271+9999OD159901241999REMSYN068ROBN4 46/// /3217 11015 40204 53027 91300 333 91224 555 11016 22017=
0108997743999992022011014004+40650-074067FM-13+007299999V0203101N010319999999N999999999-00201+99999102151ADDMD1310301+9999OD159901241999REMSYN068ROBN4 46/// /3120 11020 40215 53030 91400 333 91224 555 11019 22020=
0108997743999992022011015004+40650-074067FM-13+007299999V0203301N011319999999N999999999-00191+99999102161ADDMD1110241+9999OD159901341999REMSYN068ROBN4 46/// /3322 11019 40216 51024 91500 333 91226 555 11020 22022=
0108997743999992022011016004+40650-074067FM-13+007299999V0203301N009319999999N999999999-00211+99999102151ADDMD1110111+9999OD159901341999REMSYN068ROBN4 46/// /3318 11021 40215 51011 91600 333 91226 555 11017 22018=
0108997743999992022011017004+40650-074067FM-13+007299999V0203201N007719999999N999999999-00191+99999102091ADDMD1810061+9999OD159901181999REMSYN068ROBN4 46/// /3215 11019 40209 58006 91700 333 91223 555 11014 22015=
0108997743999992022011018004+40650-074067FM-13+007299999V0203001N009319999999N999999999-00191+99999101981ADDMD1810181+9999OD159901131999REMSYN068ROBN4 46/// /3018 11019 40198 58018 91800 333 91222 555 11016 22018=
0108997743999992022011019004+40650-074067FM-13+007299999V0202901N008819999999N999999999-00181+99999101971ADDMD1610181+9999OD159901081999REMSYN068ROBN4 46/// /2917 11018 40197 56018 91900 333 91221 555 11015 22016=
0108997743999992022011020004+40650-074067FM-13+007299999V0202801N009319999999N999999999-00201+99999102001ADDMD1510091+9999OD159901131999REMSYN068ROBN4 46/// /2818 11020 40200 55009 92000 333 91222 555 11016 22018=
0108997743999992022011021004+40650-074067FM-13+007299999V0203001N009819999999N999999999-00231+99999102021ADDMD1210041+9999OD159901181999REMSYN068ROBN4 46/// /3019 11023 40202 52004 92100 333 91223 555 11017 22019=
0108997743999992022011022004+40650-074067FM-13+007299999V0202801N009819999999N999999999-00241+99999102041ADDMD1110071+9999OD159901181999REMSYN068ROBN4 46/// /2819 11024 40204 51007 92200 333 91223 555 11017 22019=
0108997743999992022011023004+40650-074067FM-13+007299999V0202701N009319999999N999999999-00231+99999102101ADDMD1310101+9999OD159901131999REMSYN068ROBN4 46/// /2718 11023 40210 53010 92300 333 91222 555 11016 22017=
0108997743999992022011100004+40650-074067FM-13+007299999V0202701N008219999999N999999999-00221+99999102111ADDMD1210091+9999OD159900981999REMSYN068ROBN4 46/// /2716 11022 40211 52009 90000 333 91219 555 11014 22016=
0108997743999992022011101004+40650-074067FM-13+007299999V0202801N007719999999N999999999-00251+99999102111ADDMD1110071+9999OD159901081999REMSYN068ROBN4 46/// /2815 11025 40211 51007 90100 333 91221 555 11014 22015=
0108997743999992022011102004+40650-074067FM-13+007299999V0202801N009319999999N999999999-00261+99999102101ADDMD1410001+9999OD159901181999REMSYN068ROBN4 46/// /2818 11026 40210 54000 90200 333 91223 555 11016 22018=
0108997743999992022011103004+40650-074067FM-13+007299999V0202901N009819999999N999999999-00331+99999102121ADDMD1410001+9999OD159901131999REMSYN068ROBN4 46/// /2919 11033 40212 54000 90300 333 91222 555 11018 22019=
0108997743999992022011104004+40650-074067FM-13+007299999V0202901N009319999999N999999999-00341+99999102141ADDMD1210031+9999OD159901241999REMSYN068ROBN4 46/// /2918 11034 40214 52003 90400 333 91224 555 11016 22018=
0108997743999992022011105004+40650-074067FM-13+007299999V0202901N010819999999N999999999-00371+99999102191ADDMD1310091+9999OD159901291999REMSYN068ROBN4 46/// /2921 11037 40219 53009 90500 333 91225 555 11019 22021=
0108997743999992022011106004+40650-074067FM-13+007299999V0203201N012919999999N999999999-00401+99999102281ADDMD1310161+9999OD159901601999REMSYN068ROBN4 46/// /3225 11040 40228 53016 90600 333 91231 555 11023 22025=
0108997743999992022011107004+40650-074067FM-13+007299999V0203301N011319999999N999999999-00551+99999102461ADDMD1310321+9999OD159901391999REMSYN068ROBN4 46/// /3322 11055 40246 53032 90700 333 91227 555 11020 22022=
0108997743999992022011108004+40650-074067FM-13+007299999V0203301N009819999999N999999999-00631+99999102601ADDMD1310411+9999OD159901391999REMSYN068ROBN4 46/// /3319 11063 40260 53041 90800 333 91227 555 11018 22019=
0108997743999992022011109004+40650-074067FM-13+007299999V0203301N010319999999N999999999-00681+99999102681ADDMD1110401+9999OD159901601999REMSYN068ROBN4 46/// /3320 11068 40268 51040 90900 333 91231 555 11019 22020=
0108997743999992022011110004+40650-074067FM-13+007299999V0203201N007219999999N999999999-00701+99999102791ADDMD1110331+9999OD159900881999REMSYN068ROBN4 46/// /3214 11070 40279 51033 91000 333 91217 555 11012 22014=
0108997743999992022011111004+40650-074067FM-13+007299999V0203201N010819999999N999999999-00771+99999102951ADDMD1310351+9999OD159901341999REMSYN068ROBN4 46/// /3221 11077 40295 53035 91100 333 91226 555 11019 22021=
0108997743999992022011112004+40650-074067FM-13+007299999V0203301N006719999999N999999999-00821+99999103091ADDMD1310411+9999OD159900981999REMSYN068ROBN4 46/// /3313 11082 40309 53041 91200 333 91219 555 11012 22013=
0108997743999992022011113004+40650-074067FM-13+007299999V0203401N009319999999N999999999-00851+99999103171ADDMD1110381+9999OD159901341999REMSYN068ROBN4 46/// /3418 11085 40317 51038 91300 333 91226 555 11017 22018=
0108997743999992022011114004+40650-074067FM-13+007299999V0203301N010819999999N999999999-00901+99999103301ADDMD1110351+9999OD159901291999REMSYN068ROBN4 46/// /3321 11090 40330 51035 91400 333 91225 555 11019 22021=
0108997743999992022011115004+40650-074067FM-13+007299999V0203401N011319999999N999999999-00931+99999103381ADDMD1210291+9999OD159901441999REMSYN068ROBN4 46/// /3422 11093 40338 52029 91500 333 91228 555 11020 22021=
0108997743999992022011116004+40650-074067FM-13+007299999V0203201N009819999999N999999999-00931+99999103371ADDMD1110201+9999OD159901181999REMSYN068ROBN4 46/// /3219 11093 40337 51020 91600 333 91223 555 11018 22019=
0108997743999992022011117004+40650-074067FM-13+007299999V0203301N006719999999N999999999-00841+99999103331ADDMD1990031+9999OD159901081999REMSYN068ROBN4 46/// /3313 11084 40333 50003 91700 333 91221 555 11012 22013=
0108997743999992022011118004+40650-074067FM-13+007299999V0203301N007719999999N999999999-00851+99999103281ADDMD1810101+9999OD159901131999REMSYN068ROBN4 46/// /3315 11085 40328 58010 91800 333 91222 555 11014 22015=
0108997743999992022011119004+40650-074067FM-13+007299999V0203301N007219999999N999999999-00751+99999103291ADDMD1610081+9999OD159900931999REMSYN068ROBN4 46/// /3314 11075 40329 56008 91900 333 91218 555 11013 22014=
0108997743999992022011120004+40650-074067FM-13+007299999V0203301N006219999999N999999999-00711+99999103291ADDMD1610041+9999OD159900771999REMSYN068ROBN4 46/// /3312 11071 40329 56004 92000 333 91215 555 11011 22011=
0108997743999992022011121004+40650-074067FM-13+007299999V0203101N006219999999N999999999-00671+99999103341ADDMD1310061+9999OD159900821999REMSYN068ROBN4 46/// /3112 11067 40334 53006 92100 333 91216 555 11011 22012=
0108997743999992022011122004+40650-074067FM-13+007299999V0203401N005119999999N999999999-00671+99999103411ADDMD1310121+9999OD159900621999REMSYN068ROBN4 46/// /3410 11067 40341 53012 92200 333 91212 555 11009 22010=
0108997743999992022011123004+40650-074067FM-13+007299999V0203201N004619999999N999999999-00671+99999103471ADDMD1310181+9999OD159900511999REMSYN068ROBN4 46/// /3209 11067 40347 53018 92300 333 91210 555 11008 22009=
0108997743999992022011200004+40650-074067FM-13+007299999V0203601N003619999999N999999999-00691+99999103431ADDMD1990091+9999OD159900511999REMSYN068ROBN4 46/// /3607 11069 40343 50009 90000 333 91210 555 11006 22007=
0088997743999992022011201004+40650-074067FM-13+007299999V0203601N003619999999N999999999-00701+99999103401ADDOD159900461999REMSYN062ROBN4 46/// /3607 11070 40340 90042 333 91209 555 11006 22007=
0108997743999992022011202004+40650-074067FM-13+007299999V0203501N001019999999N999999999-00731+99999103351ADDMD1810121+9999OD159900261999REMSYN068ROBN4 46/// /3502 11073 40335 58012 90200 333 91205 555 11002 22002=
0108997743999992022011203004+40650-074067FM-13+007299999V0203201N001019999999N999999999-00721+99999103321ADDMD1810111+9999OD159900151999REMSYN068ROBN4 46/// /3202 11072 40332 58011 90300 333 91203 555 11001 22002=
0108997743999992022011204004+40650-074067FM-13+007299999V0202101N003619999999N999999999-00671+99999103271ADDMD1610141+9999OD159900511999REMSYN068ROBN4 46/// /2107 11067 40327 56014 90400 333 91210 555 11007 22007=
0108997743999992022011205004+40650-074067FM-13+007299999V0202201N004619999999N999999999-00641+99999103201ADDMD1810151+9999OD159900571999REMSYN068ROBN4 46/// /2209 11064 40320 58015 90500 333 91211 555 11008 22009=
0108997743999992022011206004+40650-074067FM-13+007299999V0201901N006719999999N999999999-00621+99999103061ADDMD1810261+9999OD159900821999REMSYN068ROBN4 46/// /1913 11062 40306 58026 90600 333 91216 555 11012 22013=
0108997743999992022011207004+40650-074067FM-13+007299999V0202001N007719999999N999999999-00621+99999103031ADDMD1610241+9999OD159900931999REMSYN068ROBN4 46/// /2015 11062 40303 56024 90700 333 91218 555 11014 22015=
0108997743999992022011208004+40650-074067FM-13+007299999V0202001N007219999999N999999999-00611+99999102931ADDMD1610271+9999OD159900881999REMSYN068ROBN4 46/// /2014 11061 40293 56027 90800 333 91217 555 11013 22014=
0108997743999992022011209004+40650-074067FM-13+007299999V0202101N005119999999N999999999-00581+99999102841ADDMD1810221+9999OD159900721999REMSYN068ROBN4 46/// /2110 11058 40284 58022 90900 333 91214 555 11009 22010=
0108997743999992022011210004+40650-074067FM-13+007299999V0202101N007719999999N999999999-00481+99999102701ADDMD1810331+9999OD159900981999REMSYN068ROBN4 46/// /2115 11048 40270 58033 91000 333 91219 555 11014 22015=
0108997743999992022011211004+40650-074067FM-13+007299999V0202201N006219999999N999999999-00401+99999102641ADDMD1610291+9999OD159900771999REMSYN068ROBN4 46/// /2212 11040 40264 56029 91100 333 91215 555 11011 22012=
0108997743999992022011212004+40650-074067FM-13+007299999V0202101N007719999999N999999999-00371+99999102531ADDMD1610311+9999OD159900931999REMSYN068ROBN4 46/// /2115 11037 40253 56031 91200 333 91218 555 11013 22015=
0108997743999992022011213004+40650-074067FM-13+007299999V0202001N005719999999N999999999-00281+99999102441ADDMD1810261+9999OD159900821999REMSYN068ROBN4 46/// /2011 11028 40244 58026 91300 333 91216 555 11010 22011=
0108997743999992022011214004+40650-074067FM-13+007299999V0202301N004619999999N999999999-00231+99999102421ADDMD1610221+9999OD159900821999REMSYN068ROBN4 46/// /2309 11023 40242 56022 91400 333 91216 555 11008 22009=
0108997743999992022011215004+40650-074067FM-13+007299999V0202301N005719999999N999999999-00081+99999102311ADDMD1810221+9999OD159900881999REMSYN068ROBN4 46/// /2311 11008 40231 58022 91500 333 91217 555 11010 22011=
0108997743999992022011216004+40650-074067FM-13+007299999V0202401N006719999999N999999999+00081+99999102151ADDMD1810291+9999OD159901241999REMSYN068ROBN4 46/// /2413 10008 40215 58029 91600 333 91224 555 11012 22013=
0108997743999992022011217004+40650-074067FM-13+007299999V0202601N008219999999N999999999+00171+99999102041ADDMD1710381+9999OD159900981999REMSYN068ROBN4 46/// /2616 10017 40204 57038 91700 333 91219 555 11014 22016=
0108997743999992022011218004+40650-074067FM-13+007299999V0202401N005119999999N999999999+00341+99999101921ADDMD1610391+9999OD159900721999REMSYN068ROBN4 46/// /2410 10034 40192 56039 91800 333 91214 555 11009 22010=
0108997743999992022011219004+40650-074067FM-13+007299999V0202401N007719999999N999999999+00381+99999101851ADDMD1610301+9999OD159900931999REMSYN068ROBN4 46/// /2415 10038 40185 56030 91900 333 91218 555 11014 22015=
0108997743999992022011220004+40650-074067FM-13+007299999V0202301N005119999999N999999999+00421+99999101861ADDMD1610181+9999OD159900821999REMSYN068ROBN4 46/// /2310 10042 40186 56018 92000 333 91216 555 11009 22010=
0108997743999992022011221004+40650-074067FM-13+007299999V0202601N002619999999N999999999+00491+99999101851ADDMD1610071+9999OD159900311999REMSYN068ROBN4 46/// /2605 10049 40185 56007 92100 333 91206 555 11005 22005=
0108997743999992022011222004+40650-074067FM-13+007299999V0202401N003119999999N999999999+00451+99999101861ADDMD1410001+9999OD159900411999REMSYN068ROBN4 46/// /2406 10045 40186 54000 92200 333 91208 555 11006 22006=
0108997743999992022011223004+40650-074067FM-13+007299999V0202301N004119999999N999999999+00431+99999101881ADDMD1410001+9999OD159900461999REMSYN068ROBN4 46/// /2308 10043 40188 54000 92300 333 91209 555 11007 22008=
0108997743999992022011300004+40650-074067FM-13+007299999V0202201N003619999999N999999999+00421+99999101921ADDMD1310071+9999OD159900461999REMSYN068ROBN4 46/// /2207 10042 40192 53007 90000 333 91209 555 11007 22007=
0108997743999992022011301004+40650-074067FM-13+007299999V0202401N005119999999N999999999+00401+99999101941ADDMD1210081+9999OD159900671999REMSYN068ROBN4 46/// /2410 10040 40194 52008 90100 333 91213 555 11009 22010=
0108997743999992022011302004+40650-074067FM-13+007299999V0202701N002119999999N999999999+00321+99999101941ADDMD1110061+9999OD159900261999REMSYN068ROBN4 46/// /2704 10032 40194 51006 90200 333 91205 555 11004 22004=
0108997743999992022011303004+40650-074067FM-13+007299999V0203201N002119999999N999999999+00251+99999101931ADDMD1410001+9999OD159900261999REMSYN068ROBN4 46/// /3204 10025 40193 54000 90300 333 91205 555 11004 22004=
0108997743999992022011304004+40650-074067FM-13+007299999V0201601N001019999999N999999999+00271+99999101911ADDMD1710031+9999OD159900101999REMSYN068ROBN4 46/// /1602 10027 40191 57003 90400 333 91202 555 11001 22002=
0108997743999992022011305004+40650-074067FM-13+007299999V0201901N003119999999N999999999+00241+99999101861ADDMD1810081+9999OD159900311999REMSYN068ROBN4 46/// /1906 10024 40186 58008 90500 333 91206 555 11005 22006=
0108997743999992022011306004+40650-074067FM-13+007299999V0202001N001019999999N999999999+00231+99999101821ADDMD1810111+9999OD159900101999REMSYN068ROBN4 46/// /2002 10023 40182 58011 90600 333 91202 555 11001 22002=
0108997743999992022011307004+40650-074067FM-13+007299999V0201901N004619999999N999999999+00181+99999101801ADDMD1610111+9999OD159900511999REMSYN068ROBN4 46/// /1909 10018 40180 56011 90700 333 91210 555 11009 22009=
0108997743999992022011308004+40650-074067FM-13+007299999V0201901N004619999999N999999999+00181+99999101771ADDMD1610091+9999OD159900511999REMSYN068ROBN4 46/// /1909 10018 40177 56009 90800 333 91210 555 11008 22009=
0108997743999992022011309004+40650-074067FM-13+007299999V0202901N002119999999N999999999+00161+99999101711ADDMD1810111+9999OD159900211999REMSYN068ROBN4 46/// /2904 10016 40171 58011 90900 333 91204 555 11003 22004=
0108997743999992022011310004+40650-074067FM-13+007299999V0203101N001519999999N999999999+00111+99999101701ADDMD1610101+9999OD159900151999REMSYN068ROBN4 46/// /3103 10011 40170 56010 91000 333 91203 555 11003 22003=
0108997743999992022011311004+40650-074067FM-13+007299999V0202901N001019999999N999999999+00091+99999101671ADDMD1610101+9999OD159900101999REMSYN068ROBN4 46/// /2902 10009 40167 56010 91100 333 91202 555 11002 22002=
0108997743999992022011312004+40650-074067FM-13+007299999V0203001N003119999999N999999999+00081+99999101721ADDMD1510001+9999OD159900311999REMSYN068ROBN4 46/// /3006 10008 40172 55000 91200 333 91206 555 11005 22006=
0108997743999992022011313004+40650-074067FM-13+007299999V0203101N002119999999N999999999+00091+99999101741ADDMD1310041+9999OD159900261999REMSYN068ROBN4 46/// /3104 10009 40174 53004 91300 333 91205 555 11004 22004=
0108997743999992022011314004+40650-074067FM-13+007299999V0203201N001019999999N999999999+00191+99999101751ADDMD1110081+9999OD159900151999REMSYN068ROBN4 46/// /3202 10019 40175 51008 91400 333 91203 555 11002 22002=
0108997743999992022011315004+40650-074067FM-13+007299999V0200101N001019999999N999999999+00301+99999101741ADDMD1410001+9999OD159900101999REMSYN068ROBN4 46/// /0102 10030 40174 54000 91500 333 91202 555 11002 22002=
0108997743999992022011316004+40650-074067FM-13+007299999V0202901N001519999999N999999999+00401+99999101681ADDMD1810061+9999OD159900261999REMSYN068ROBN4 46/// /2903 10040 40168 58006 91600 333 91205 555 11003 22003=
0108997743999992022011317004+40650-074067FM-13+007299999V0200101N000519999999N999999999+00601+99999101511ADDMD1810241+9999OD159900051999REMSYN068ROBN4 46/// /0101 10060 40151 58024 91700 333 91201 555 11001 22001=
0108997743999992022011318004+40650-074067FM-13+007299999V0209999C000019999999N999999999+00661+99999101431ADDMD1810311+9999OD159900001999REMSYN068ROBN4 46/// /0000 10066 40143 58031 91800 333 91200 555 11000 22000=
0108997743999992022011319004+40650-074067FM-13+007299999V0201901N002619999999N999999999+00541+99999101311ADDMD1610371+9999OD159900311999REMSYN068ROBN4 46/// /1905 10054 40131 56037 91900 333 91206 555 11004 22005=
0108997743999992022011320004+40650-074067FM-13+007299999V0201801N005119999999N999999999+00671+99999101301ADDMD1610211+9999OD159900511999REMSYN068ROBN4 46/// /1810 10067 40130 56021 92000 333 91210 555 11009 22010=
0108997743999992022011321004+40650-074067FM-13+007299999V0201801N003619999999N999999999+00631+99999101281ADDMD1610151+9999OD159900411999REMSYN068ROBN4 46/// /1807 10063 40128 56015 92100 333 91208 555 11007 22007=
0108997743999992022011322004+40650-074067FM-13+007299999V0201701N002619999999N999999999+00591+99999101261ADDMD1710051+9999OD159900311999REMSYN068ROBN4 46/// /1705 10059 40126 57005 92200 333 91206 555 11005 22005=
0108997743999992022011323004+40650-074067FM-13+007299999V0201601N001519999999N999999999+00661+99999101251ADDMD1710051+9999OD159900211999REMSYN068ROBN4 46/// /1603 10066 40125 57005 92300 333 91204 555 11003 22003=
0108997743999992022011400004+40650-074067FM-13+007299999V0200301N002619999999N999999999+00541+99999101251ADDMD1710031+9999OD159900261999REMSYN068ROBN4 46/// /0305 10054 40125 57003 90000 333 91205 555 11004 22005=
0108997743999992022011401004+40650-074067FM-13+007299999V0200601N003119999999N999999999+00581+99999101221ADDMD1810041+9999OD159900361999REMSYN068ROBN4 46/// /0606 10058 40122 58004 90100 333 91207 555 11006 22006=
0108997743999992022011402004+40650-074067FM-13+007299999V0200501N005119999999N999999999+00551+99999101181ADDMD1810071+9999OD159900511999REMSYN068ROBN4 46/// /0510 10055 40118 58007 90200 333 91210 555 11009 22010=
0108997743999992022011403004+40650-074067FM-13+007299999V0203501N002619999999N999999999+00481+99999101151ADDMD1710101+9999OD159900311999REMSYN068ROBN4 46/// /3505 10048 40115 57010 90300 333 91206 555 11005 22005=
0108997743999992022011404004+40650-074067FM-13+007299999V0203501N004119999999N999999999+00411+99999101081ADDMD1810141+9999OD159900461999REMSYN068ROBN4 46/// /3508 10041 40108 58014 90400 333 91209 555 11007 22008=
0108997743999992022011405004+40650-074067FM-13+007299999V0200101N005119999999N999999999+00381+99999101011ADDMD1810171+9999OD159900571999REMSYN068ROBN4 46/// /0110 10038 40101 58017 90500 333 91211 555 11009 22010=
0108997743999992022011406004+40650-074067FM-13+007299999V0203601N003119999999N999999999+00391+99999100951ADDMD1610201+9999OD159900411999REMSYN068ROBN4 46/// /3606 10039 40095 56020 90600 333 91208 555 11006 22006=
0108997743999992022011407004+40650-074067FM-13+007299999V0203601N004619999999N999999999+00351+99999100941ADDMD1610141+9999OD159900621999REMSYN068ROBN4 46/// /3609 10035 40094 56014 90700 333 91212 555 11008 22009=
0108997743999992022011408004+40650-074067FM-13+007299999V0200101N005719999999N999999999+00391+99999100951ADDMD1610061+9999OD159900621999REMSYN068ROBN4 46/// /0111 10039 40095 56006 90800 333 91212 555 11010 22011=
0108997743999992022011409004+40650-074067FM-13+007299999V0203601N006719999999N999999999+00411+99999100851ADDMD1810101+9999OD159900771999REMSYN068ROBN4 46/// /3613 10041 40085 58010 90900 333 91215 555 11012 22013=
0108997743999992022011410004+40650-074067FM-13+007299999V0203601N005119999999N999999999+00391+99999100801ADDMD1810141+9999OD159900671999REMSYN068ROBN4 46/// /3610 10039 40080 58014 91000 333 91213 555 11009 22010=
0108997743999992022011411004+40650-074067FM-13+007299999V0203501N005719999999N999999999+00391+99999100831ADDMD1510121+9999OD159900721999REMSYN068ROBN4 46/// /3511 10039 40083 55012 91100 333 91214 555 11010 22011=
0108997743999992022011412004+40650-074067FM-13+007299999V0203601N006719999999N999999999+00381+99999100831ADDMD1510001+9999OD159900821999REMSYN068ROBN4 46/// /3613 10038 40083 55000 91200 333 91216 555 11012 22013=
0108997743999992022011413004+40650-074067FM-13+007299999V0200101N007219999999N999999999+00361+99999100841ADDMD1110041+9999OD159900931999REMSYN068ROBN4 46/// /0114 10036 40084 51004 91300 333 91218 555 11013 22014=
0108997743999992022011414004+40650-074067FM-13+007299999V0200101N011819999999N999999999+00411+99999100821ADDMD1410001+9999OD159901441999REMSYN068ROBN4 46/// /0123 10041 40082 54000 91400 333 91228 555 11021 22023=
0108997743999992022011415004+40650-074067FM-13+007299999V0200101N013419999999N999999999+00511+99999100831ADDMD1410001+9999OD159901651999REMSYN068ROBN4 46/// /0126 10051 40083 54000 91500 333 91232 555 11024 22026=
0108997743999992022011416004+40650-074067FM-13+007299999V0200201N014419999999N999999999+00541+99999100791ADDMD1810051+9999OD159901651999REMSYN068ROBN4 46/// /0228 10054 40079 58005 91600 333 91232 555 11026 22028=
0108997743999992022011417004+40650-074067FM-13+007299999V0200101N010819999999N999999999+00551+99999100761ADDMD1810061+9999OD159901291999REMSYN068ROBN4 46/// /0121 10055 40076 58006 91700 333 91225 555 11019 22021=
0108997743999992022011418004+40650-074067FM-13+007299999V0203601N011819999999N999999999+00541+99999100691ADDMD1810141+9999OD159901701999REMSYN068ROBN4 46/// /3623 10054 40069 58014 91800 333 91233 555 11021 22023=
0108997743999992022011419004+40650-074067FM-13+007299999V0203601N010319999999N999999999+00531+99999100731ADDMD1510061+9999OD159901241999REMSYN068ROBN4 46/// /3620 10053 40073 55006 91900 333 91224 555 11018 22020=
0108997743999992022011420004+40650-074067FM-13+007299999V0203501N009819999999N999999999+00511+99999100771ADDMD1510001+9999OD159901181999REMSYN068ROBN4 46/// /3519 10051 40077 55000 92000 333 91223 555 11017 22019=
0108997743999992022011421004+40650-074067FM-13+007299999V0203401N011319999999N999999999+00491+99999100821ADDMD1310131+9999OD159901441999REMSYN068ROBN4 46/// /3422 10049 40082 53013 92100 333 91228 555 11020 22022=
0108997743999992022011422004+40650-074067FM-13+007299999V0203601N007719999999N999999999+00381+99999100871ADDMD1310141+9999OD159901131999REMSYN068ROBN4 46/// /3615 10038 40087 53014 92200 333 91222 555 11014 22015=
0108997743999992022011423004+40650-074067FM-13+007299999V0203501N009819999999N999999999+00241+99999100991ADDMD1310221+9999OD159901291999REMSYN068ROBN4 46/// /3519 10024 40099 53022 92300 333 91225 555 11018 22019=
0108997743999992022011500004+40650-074067FM-13+007299999V0203501N009819999999N999999999+00131+99999101101ADDMD1310281+9999OD159901131999REMSYN068ROBN4 46/// /3519 10013 40110 53028 90000 333 91222 555 11017 22019=
0108997743999992022011501004+40650-074067FM-13+007299999V0203401N008219999999N999999999+00031+99999101171ADDMD1110301+9999OD159901241999REMSYN068ROBN4 46/// /3416 10003 40117 51030 90100 333 91224 555 11015 22016=
0108997743999992022011502004+40650-074067FM-13+007299999V0203301N009819999999N999999999-00111+99999101291ADDMD1310301+9999OD159901241999REMSYN068ROBN4 46/// /3319 11011 40129 53030 90200 333 91224 555 11018 22019=
0108997743999992022011503004+40650-074067FM-13+007299999V0203401N008219999999N999999999-00201+99999101331ADDMD1110231+9999OD159901291999REMSYN068ROBN4 46/// /3416 11020 40133 51023 90300 333 91225 555 11014 22016=
0108997743999992022011504004+40650-074067FM-13+007299999V0203301N007719999999N999999999-00321+99999101421ADDMD1110251+9999OD159901181999REMSYN068ROBN4 46/// /3315 11032 40142 51025 90400 333 91223 555 11014 22015=
0108997743999992022011505004+40650-074067FM-13+007299999V0203501N009819999999N999999999-00441+99999101491ADDMD1310201+9999OD159901241999REMSYN068ROBN4 46/// /3519 11044 40149 53020 90500 333 91224 555 11017 22019=
0108997743999992022011506004+40650-074067FM-13+007299999V0203201N007719999999N999999999-00611+99999101561ADDMD1110231+9999OD159901081999REMSYN068ROBN4 46/// /3215 11061 40156 51023 90600 333 91221 555 11014 22015=
0108997743999992022011507004+40650-074067FM-13+007299999V0203401N009819999999N999999999-00691+99999101691ADDMD1310271+9999OD159901291999REMSYN068ROBN4 46/// /3419 11069 40169 53027 90700 333 91225 555 11017 22019=
0108997743999992022011508004+40650-074067FM-13+007299999V0203501N008819999999N999999999-00811+99999101811ADDMD1310321+9999OD159901131999REMSYN068ROBN4 46/// /3517 11081 40181 53032 90800 333 91222 555 11016 22017=
0108997743999992022011509004+40650-074067FM-13+007299999V0203301N008819999999N999999999-00911+99999101941ADDMD1210381+9999OD159901131999REMSYN068ROBN4 46/// /3317 11091 40194 52038 90900 333 91222 555 11015 22016=
0108997743999992022011510004+40650-074067FM-13+007299999V0203301N007719999999N999999999-00981+99999102031ADDMD1110341+9999OD159901031999REMSYN068ROBN4 46/// /3315 11098 40203 51034 91000 333 91220 555 11014 22015=
0108997743999992022011511004+40650-074067FM-13+007299999V0203301N006219999999N999999999-01051+99999102151ADDMD1110341+9999OD159900821999REMSYN068ROBN4 46/// /3312 11105 40215 51034 91100 333 91216 555 11011 22012=
0108997743999992022011512004+40650-074067FM-13+007299999V0203401N006719999999N999999999-01081+99999102261ADDMD1310321+9999OD159900821999REMSYN068ROBN4 46/// /3413 11108 40226 53032 91200 333 91216 555 11012 22013=
0108997743999992022011513004+40650-074067FM-13+007299999V0203401N006219999999N999999999-01101+99999102391ADDMD1310361+9999OD159900981999REMSYN068ROBN4 46/// /3412 11110 40239 53036 91300 333 91219 555 11011 22012=
0108997743999992022011514004+40650-074067FM-13+007299999V0200101N006719999999N999999999-01111+99999102501ADDMD1210351+9999OD159900931999REMSYN068ROBN4 46/// /0113 11111 40250 52035 91400 333 91218 555 11012 22013=
0108997743999992022011515004+40650-074067FM-13+007299999V0203501N004619999999N999999999-01081+99999102631ADDMD1210371+9999OD159900721999REMSYN068ROBN4 46/// /3509 11108 40263 52037 91500 333 91214 555 11009 22009=
0108997743999992022011516004+40650-074067FM-13+007299999V0203601N007219999999N999999999-01031+99999102631ADDMD1110241+9999OD159900881999REMSYN068ROBN4 46/// /3614 11103 40263 51024 91600 333 91217 555 11013 22014=
0108997743999992022011517004+40650-074067FM-13+007299999V0203601N008219999999N999999999-00891+99999102591ADDMD1990091+9999OD159900931999REMSYN068ROBN4 46/// /3616 11089 40259 50009 91700 333 91218 555 11014 22015=
0108997743999992022011518004+40650-074067FM-13+007299999V0203201N006219999999N999999999-00841+99999102611ADDMD1410001+9999OD159900771999REMSYN068ROBN4 46/// /3212 11084 40261 54000 91800 333 91215 555 11011 22011=
0108997743999992022011519004+40650-074067FM-13+007299999V0203401N004619999999N999999999-00761+99999102581ADDMD1610051+9999OD159900671999REMSYN068ROBN4 46/// /3409 11076 40258 56005 91900 333 91213 555 11009 22009=
0108997743999992022011520004+40650-074067FM-13+007299999V0203301N005119999999N999999999-00711+99999102621ADDMD1310031+9999OD159900721999REMSYN068ROBN4 46/// /3310 11071 40262 53003 92000 333 91214 555 11009 22010=
0108997743999992022011521004+40650-074067FM-13+007299999V0203401N005719999999N999999999-00691+99999102661ADDMD1310051+9999OD159900771999REMSYN068ROBN4 46/// /3411 11069 40266 53005 92100 333 91215 555 11010 22011=
0108997743999992022011522004+40650-074067FM-13+007299999V0203201N004619999999N999999999-00711+99999102751ADDMD1310171+9999OD159900621999REMSYN068ROBN4 46/// /3209 11071 40275 53017 92200 333 91212 555 11009 22009=
0108997743999992022011523004+40650-074067FM-13+007299999V0203401N004619999999N999999999-00711+99999102781ADDMD1110161+9999OD159900671999REMSYN068ROBN4 46/// /3409 11071 40278 51016 92300 333 91213 555 11008 22009=
0108997743999992022011600004+40650-074067FM-13+007299999V0203501N004619999999N999999999-00771+99999102851ADDMD1110191+9999OD159900621999REMSYN068ROBN4 46/// /3509 11077 40285 51019 90000 333 91212 555 11008 22009=
0088997743999992022011601004+40650-074067FM-13+007299999V0203601N004119999999N999999999-00781+99999102891ADDOD159900571999REMSYN062ROBN4 46/// /3608 11078 40289 90048 333 91211 555 11008 22008=
0108997743999992022011602004+40650-074067FM-13+007299999V0203501N006719999999N999999999-00881+99999102941ADDMD1110161+9999OD159900821999REMSYN068ROBN4 46/// /3513 11088 40294 51016 90200 333 91216 555 11012 22013=
0108997743999992022011603004+40650-074067FM-13+007299999V0203601N007719999999N999999999-00921+99999102971ADDMD1110121+9999OD159900881999REMSYN068ROBN4 46/// /3615 11092 40297 51012 90300 333 91217 555 11014 22015=
0108997743999992022011604004+40650-074067FM-13+007299999V0203601N008219999999N999999999-01021+99999102971ADDMD1110071+9999OD159901031999REMSYN068ROBN4 46/// /3616 11102 40297 51007 90400 333 91220 555 11015 22016=
0108997743999992022011605004+40650-074067FM-13+007299999V0203601N006719999999N999999999-01071+99999103051ADDMD1310111+9999OD159900931999REMSYN068ROBN4 46/// /3613 11107 40305 53011 90500 333 91218 555 11012 22013=
0108997743999992022011606004+40650-074067FM-13+007299999V0203501N006719999999N999999999-01101+99999102921ADDMD1810051+9999OD159900881999REMSYN068ROBN4 46/// /3513 11110 40292 58005 90600 333 91217 555 11012 22013=
0108997743999992022011607004+40650-074067FM-13+007299999V0203601N007719999999N999999999-01111+99999103011ADDMD1310041+9999OD159900981999REMSYN068ROBN4 46/// /3615 11111 40301 53004 90700 333 91219 555 11013 22015=
0108997743999992022011608004+40650-074067FM-13+007299999V0203601N007719999999N999999999-01151+99999102961ADDMD1610091+9999OD159900981999REMSYN068ROBN4 46/// /3615 11115 40296 56009 90800 333 91219 555 11014 22015=
0108997743999992022011609004+40650-074067FM-13+007299999V0203601N006219999999N999999999-01151+99999102991ADDMD1110071+9999OD159900881999REMSYN068ROBN4 46/// /3612 11115 40299 51007 90900 333 91217 555 11011 22012=
0108997743999992022011610004+40650-074067FM-13+007299999V0203601N006719999999N999999999-01181+99999102981ADDMD1610031+9999OD159900771999REMSYN068ROBN4 46/// /3613 11118 40298 56003 91000 333 91215 555 11012 22013=
0108997743999992022011611004+40650-074067FM-13+007299999V0203601N005719999999N999999999-01191+99999102981ADDMD1990001+9999OD159900671999REMSYN068ROBN4 46/// /3611 11119 40298 50000 91100 333 91213 555 11010 22011=
0108997743999992022011612004+40650-074067FM-13+007299999V0203401N004119999999N999999999-01181+99999103031ADDMD1310041+9999OD159900511999REMSYN068ROBN4 46/// /3408 11118 40303 53004 91200 333 91210 555 11007 22008=
0108997743999992022011613004+40650-074067FM-13+007299999V0203301N002119999999N999999999-01151+99999103061ADDMD1310081+9999OD159900361999REMSYN068ROBN4 46/// /3304 11115 40306 53008 91300 333 91207 555 11003 22004=
0108997743999992022011614004+40650-074067FM-13+007299999V0200601N002619999999N999999999-01011+99999103041ADDMD1110061+9999OD159900411999REMSYN068ROBN4 46/// /0605 11101 40304 51006 91400 333 91208 555 11004 22004=
0108997743999992022011615004+40650-074067FM-13+007299999V0203501N003119999999N999999999-00961+99999103031ADDMD1990001+9999OD159900411999REMSYN068ROBN4 46/// /3506 11096 40303 50000 91500 333 91208 555 11006 22006=
0108997743999992022011616004+40650-074067FM-13+007299999V0200101N004119999999N999999999-00811+99999102861ADDMD1810201+9999OD159900511999REMSYN068ROBN4 46/// /0108 11081 40286 58020 91600 333 91210 555 11007 22008=
0108997743999992022011617004+40650-074067FM-13+007299999V0203601N003619999999N999999999-00681+99999102731ADDMD1810311+9999OD159900461999REMSYN068ROBN4 46/// /3607 11068 40273 58031 91700 333 91209 555 11007 22007=
0108997743999992022011618004+40650-074067FM-13+007299999V0200401N002619999999N999999999-00521+99999102571ADDMD1610461+9999OD159900311999REMSYN068ROBN4 46/// /0405 11052 40257 56046 91800 333 91206 555 11004 22004=
0108997743999992022011619004+40650-074067FM-13+007299999V0200501N006219999999N999999999-00391+99999102431ADDMD1810431+9999OD159900671999REMSYN068ROBN4 46/// /0512 11039 40243 58043 91900 333 91213 555 11011 22011=
0108997743999992022011620004+40650-074067FM-13+007299999V0200501N006219999999N999999999-00371+99999102321ADDMD1610411+9999OD159900721999REMSYN068ROBN4 46/// /0512 11037 40232 56041 92000 333 91214 555 11011 22012=
0108997743999992022011621004+40650-074067FM-13+007299999V0200601N009319999999N999999999-00291+99999102081ADDMD1810491+9999OD159901081999REMSYN068ROBN4 46/// /0618 11029 40208 58049 92100 333 91221 555 11017 22018=
0108997743999992022011622004+40650-074067FM-13+007299999V0200601N007219999999N999999999-00191+99999102061ADDMD1610371+9999OD159900881999REMSYN068ROBN4 46/// /0614 11019 40206 56037 92200 333 91217 555 11012 22014=
0108997743999992022011623004+40650-074067FM-13+007299999V0200701N007219999999N999999999-00051+99999101911ADDMD1610411+9999OD159900931999REMSYN068ROBN4 46/// /0714 11005 40191 56041 92300 333 91218 555 11013 22014=
0108997743999992022011700004+40650-074067FM-13+007299999V0200701N007719999999N999999999-00041+99999101771ADDMD1810311+9999OD159900931999REMSYN068ROBN4 46/// /0715 11004 40177 58031 90000 333 91218 555 11014 22015=
0108997743999992022011701004+40650-074067FM-13+007299999V0200601N008819999999N999999999-00051+99999101521ADDMD1810541+9999OD159900981999REMSYN068ROBN4 46/// /0617 11005 40152 58054 90100 333 91219 555 11016 22017=
0108997743999992022011702004+40650-074067FM-13+007299999V0200701N008819999999N999999999+00081+99999101301ADDMD1810611+9999OD159900981999REMSYN068ROBN4 46/// /0717 10008 40130 58061 90200 333 91219 555 11015 22016=
0108997743999992022011703004+40650-074067FM-13+007299999V0200701N012419999999N999999999+00221+99999100911ADDMD1810861+9999OD159901491999REMSYN068ROBN4 46/// /0724 10022 40091 58086 90300 333 91229 555 11022 22024=
0108997743999992022011704004+40650-074067FM-13+007299999V0200701N010319999999N999999999+00351+99999100641ADDMD1810881+9999OD159901291999REMSYN068ROBN4 46/// /0720 10035 40064 58088 90400 333 91225 555 11019 22020=
0108997743999992022011705004+40650-074067FM-13+007299999V0200801N014419999999N999999999+00471+99999100241ADDMD1811061+9999OD159901701999REMSYN068ROBN4 46/// /0828 10047 40024 58106 90500 333 91233 555 11026 22028=
0108997743999992022011706004+40650-074067FM-13+007299999V0200801N016519999999N999999999+00541+99999099871ADDMD1811041+9999OD159901901999REMSYN068ROBN4 46/// /0832 10054 49987 58104 90600 333 91237 555 11029 22031=
0108997743999992022011707004+40650-074067FM-13+007299999V0200801N020119999999N999999999+00591+99999099391ADDMD1811251+9999OD159902321999REMSYN068ROBN4 46/// /0839 10059 49939 58125 90700 333 91245 555 11036 22039=
0108997743999992022011708004+40650-074067FM-13+007299999V0200901N019619999999N999999999+00661+99999099031ADDMD1611211+9999OD159902111999REMSYN068ROBN4 46/// /0938 10066 49903 56121 90800 333 91241 555 11034 22037=
0108997743999992022011709004+40650-074067FM-13+007299999V0201001N016519999999N999999999+00751+99999098741ADDMD1611131+9999OD159902161999REMSYN068ROBN4 46/// /1032 10075 49874 56113 90900 333 91242 555 11029 22032=
0108997743999992022011710004+40650-074067FM-13+007299999V0201101N006719999999N999999999+00761+99999098671ADDMD1610721+9999OD159900881999REMSYN068ROBN4 46/// /1113 10076 49867 56072 91000 333 91217 555 11012 22013=
0108997743999992022011711004+40650-074067FM-13+007299999V0201701N008819999999N999999999+00751+99999098571ADDMD1610461+9999OD159901031999REMSYN068ROBN4 46/// /1717 10075 49857 56046 91100 333 91220 555 11016 22017=
0108997743999992022011712004+40650-074067FM-13+007299999V0201801N010819999999N999999999+00651+99999098581ADDMD1610161+9999OD159901181999REMSYN068ROBN4 46/// /1821 10065 49858 56016 91200 333 91223 555 11019 22021=
0108997743999992022011713004+40650-074067FM-13+007299999V0202101N007719999999N999999999+00561+99999098551ADDMD1610121+9999OD159900931999REMSYN068ROBN4 46/// /2115 10056 49855 56012 91300 333 91218 555 11013 22015=
0108997743999992022011714004+40650-074067FM-13+007299999V0202101N009319999999N999999999+00421+99999098601ADDMD1310031+9999OD159901441999REMSYN068ROBN4 46/// /2118 10042 49860 53003 91400 333 91228 555 11016 22018=
0108997743999992022011715004+40650-074067FM-13+007299999V0202401N006719999999N999999999+00391+99999098532ADDMD1810051+9999OD159901131999REMSYN068ROBN4 46/// /2413 10039 49853 58005 91500 333 91222 555 11012 22013=
0108997743999992022011716004+40650-074067FM-13+007299999V0202201N008819999999N999999999+00361+99999098581ADDMD1210031+9999OD159901241999REMSYN068ROBN4 46/// /2217 10036 49858 52003 91600 333 91224 555 11016 22017=
0108997743999992022011717004+40650-074067FM-13+007299999V0202301N010819999999N999999999+00281+99999098551ADDMD1610051+9999OD159901391999REMSYN068ROBN4 46/// /2321 10028 49855 56005 91700 333 91227 555 11019 22021=
0108997743999992022011718004+40650-074067FM-13+007299999V0202301N007719999999N999999999+00261+99999098541ADDMD1990001+9999OD159901131999REMSYN068ROBN4 46/// /2315 10026 49854 50000 91800 333 91222 555 11014 22015=
0108997743999992022011719004+40650-074067FM-13+007299999V0202401N008819999999N999999999+00281+99999098601ADDMD1510001+9999OD159901181999REMSYN068ROBN4 46/// /2417 10028 49860 55000 91900 333 91223 555 11015 22017=
0108997743999992022011720004+40650-074067FM-13+007299999V0202401N010319999999N999999999+00301+99999098691ADDMD1310141+9999OD159901241999REMSYN068ROBN4 46/// /2420 10030 49869 53014 92000 333 91224 555 11019 22020=
0108997743999992022011721004+40650-074067FM-13+007299999V0202401N012419999999N999999999+00311+99999098731ADDMD1110191+9999OD159901441999REMSYN068ROBN4 46/// /2424 10031 49873 51019 92100 333 91228 555 11022 22023=
0108997743999992022011722004+40650-074067FM-13+007299999V0202501N012419999999N999999999+00221+99999098861ADDMD1310261+9999OD159901441999REMSYN068ROBN4 46/// /2524 10022 49886 53026 92200 333 91228 555 11022 22023=
0108997743999992022011723004+40650-074067FM-13+007299999V0202501N011319999999N999999999+00231+99999098991ADDMD1310301+9999OD159901291999REMSYN068ROBN4 46/// /2522 10023 49899 53030 92300 333 91225 555 11020 22021=
0108997743999992022011800004+40650-074067FM-13+007299999V0202701N008219999999N999999999+00271+99999099121ADDMD1210391+9999OD159900981999REMSYN068ROBN4 46/// /2716 10027 49912 52039 90000 333 91219 555 11015 22016=
0108997743999992022011801004+40650-074067FM-13+007299999V0202801N010819999999N999999999+00231+99999099191ADDMD1110331+9999OD159901541999REMSYN068ROBN4 46/// /2821 10023 49919 51033 90100 333 91230 555 11019 22021=
0108997743999992022011802004+40650-074067FM-13+007299999V0202801N011819999999N999999999+00211+99999099311ADDMD1110321+9999OD159901391999REMSYN068ROBN4 46/// /2823 10021 49931 51032 90200 333 91227 555 11021 22022=
0108997743999992022011803004+40650-074067FM-13+007299999V0202901N012919999999N999999999+00231+99999099401ADDMD1310281+9999OD159901851999REMSYN068ROBN4 46/// /2925 10023 49940 53028 90300 333 91236 555 11023 22025=
0108997743999992022011804004+40650-074067FM-13+007299999V0203101N012919999999N999999999+00181+99999099601ADDMD1310411+9999OD159901441999REMSYN068ROBN4 46/// /3125 10018 49960 53041 90400 333 91228 555 11023 22025=
0108997743999992022011805004+40650-074067FM-13+007299999V0203001N015419999999N999999999+00161+99999099651ADDMD1110341+9999OD159901851999REMSYN068ROBN4 46/// /3030 10016 49965 51034 90500 333 91236 555 11027 22029=
0108997743999992022011806004+40650-074067FM-13+007299999V0203001N012919999999N999999999+00151+99999099811ADDMD1110411+9999OD159901601999REMSYN068ROBN4 46/// /3025 10015 49981 51041 90600 333 91231 555 11023 22025=
0108997743999992022011807004+40650-074067FM-13+007299999V0203001N013919999999N999999999+00111+99999099981ADDMD1310381+9999OD159901901999REMSYN068ROBN4 46/// /3027 10011 49998 53038 90700 333 91237 555 11025 22027=
0108997743999992022011808004+40650-074067FM-13+007299999V0203201N013919999999N999999999-00041+99999100221ADDMD1310571+9999OD159901851999REMSYN068ROBN4 46/// /3227 11004 40022 53057 90800 333 91236 555 11024 22027=
0108997743999992022011809004+40650-074067FM-13+007299999V0203101N010819999999N999999999-00031+99999100331ADDMD1110521+9999OD159901541999REMSYN068ROBN4 46/// /3121 11003 40033 51052 90900 333 91230 555 11019 22021=
0108997743999992022011810004+40650-074067FM-13+007299999V0203101N010319999999N999999999+00011+99999100471ADDMD1110491+9999OD159901541999REMSYN068ROBN4 46/// /3120 10001 40047 51049 91000 333 91230 555 11019 22020=
0108997743999992022011811004+40650-074067FM-13+007299999V0203101N011819999999N999999999+00011+99999100611ADDMD1310391+9999OD159901491999REMSYN068ROBN4 46/// /3123 10001 40061 53039 91100 333 91229 555 11021 22023=
0108997743999992022011812004+40650-074067FM-13+007299999V0203101N011319999999N999999999+00021+99999100771ADDMD1310441+9999OD159901491999REMSYN068ROBN4 46/// /3122 10002 40077 53044 91200 333 91229 555 11020 22022=
0108997743999992022011813004+40650-074067FM-13+007299999V0202901N010319999999N999999999+00041+99999100911ADDMD1210441+9999OD159901181999REMSYN068ROBN4 46/// /2920 10004 40091 52044 91300 333 91223 555 11018 22020=
0108997743999992022011814004+40650-074067FM-13+007299999V0202901N008819999999N999999999+00031+99999101031ADDMD1110421+9999OD159901031999REMSYN068ROBN4 46/// /2917 10003 40103 51042 91400 333 91220 555 11016 22017=
0108997743999992022011815004+40650-074067FM-13+007299999V0203001N013419999999N999999999+00121+99999101121ADDMD1110351+9999OD159901541999REMSYN068ROBN4 46/// /3026 10012 40112 51035 91500 333 91230 555 11024 22026=
0108997743999992022011816004+40650-074067FM-13+007299999V0203101N012919999999N999999999+00171+99999101171ADDMD1110261+9999OD159901541999REMSYN068ROBN4 46/// /3125 10017 40117 51026 91600 333 91230 555 11022 22024=
0108997743999992022011817004+40650-074067FM-13+007299999V0203001N010319999999N999999999+00201+99999101191ADDMD1110161+9999OD159901441999REMSYN068ROBN4 46/// /3020 10020 40119 51016 91700 333 91228 555 11019 22020=
0108997743999992022011818004+40650-074067FM-13+007299999V0203101N014919999999N999999999+00211+99999101241ADDMD1210121+9999OD159901651999REMSYN068ROBN4 46/// /3129 10021 40124 52012 91800 333 91232 555 11026 22028=
0108997743999992022011819004+40650-074067FM-13+007299999V0203201N008219999999N999999999+00211+99999101361ADDMD1310191+9999OD159901181999REMSYN068ROBN4 46/// /3216 10021 40136 53019 91900 333 91223 555 11015 22016=
0108997743999992022011820004+40650-074067FM-13+007299999V0203201N011819999999N999999999+00241+99999101441ADDMD1310251+9999OD159901491999REMSYN068ROBN4 46/// /3223 10024 40144 53025 92000 333 91229 555 11021 22023=
0108997743999992022011821004+40650-074067FM-13+007299999V0203101N012919999999N999999999+00231+99999101581ADDMD1310341+9999OD159901601999REMSYN068ROBN4 46/// /3125 10023 40158 53034 92100 333 91231 555 11022 22024=
0108997743999992022011822004+40650-074067FM-13+007299999V0203201N007719999999N999999999+00181+99999101761ADDMD1310401+9999OD159901181999REMSYN068ROBN4 46/// /3215 10018 40176 53040 92200 333 91223 555 11013 22015=
0108997743999992022011823004+40650-074067FM-13+007299999V0203201N006219999999N999999999+00151+99999101901ADDMD1210461+9999OD159900931999REMSYN068ROBN4 46/// /3212 10015 40190 52046 92300 333 91218 555 11011 22012=
0108997743999992022011900004+40650-074067FM-13+007299999V0203301N005719999999N999999999+00081+99999102001ADDMD1110421+9999OD159900771999REMSYN068ROBN4 46/// /3311 10008 40200 51042 90000 333 91215 555 11010 22011=
0108997743999992022011901004+40650-074067FM-13+007299999V0203501N002619999999N999999999+00021+99999102071ADDMD1110311+9999OD159900361999REMSYN068ROBN4 46/// /3505 10002 40207 51031 90100 333 91207 555 11005 22005=
0108997743999992022011902004+40650-074067FM-13+007299999V0203401N001519999999N999999999-00011+99999102121ADDMD1110221+9999OD159900261999REMSYN068ROBN4 46/// /3403 11001 40212 51022 90200 333 91205 555 11003 22003=
0108997743999992022011903004+40650-074067FM-13+007299999V0203401N001519999999N999999999-00021+99999102151ADDMD1110151+9999OD159900211999REMSYN068ROBN4 46/// /3403 11002 40215 51015 90300 333 91204 555 11002 22003=
0108997743999992022011904004+40650-074067FM-13+007299999V0203401N000519999999N999999999-00031+99999102191ADDMD1110121+9999OD159900101999REMSYN068ROBN4 46/// /3401 11003 40219 51012 90400 333 91202 555 11001 22001=
0108997743999992022011905004+40650-074067FM-13+007299999V0209999C000019999999N999999999-00021+99999102171ADDMD1110051+9999OD159900151999REMSYN068ROBN4 46/// /0000 11002 40217 51005 90500 333 91203 555 11000 22000=
0108997743999992022011906004+40650-074067FM-13+007299999V0202001N003619999999N999999999+00001+99999102181ADDMD1110031+9999OD159900461999REMSYN068ROBN4 46/// /2007 10000 40218 51003 90600 333 91209 555 11006 22007=
0108997743999992022011907004+40650-074067FM-13+007299999V0201901N005119999999N999999999+00021+99999102171ADDMD1410001+9999OD159900571999REMSYN068ROBN4 46/// /1910 10002 40217 54000 90700 333 91211 555 11009 22010=
0108997743999992022011908004+40650-074067FM-13+007299999V0202301N003619999999N999999999-00011+99999102201ADDMD1310031+9999OD159900411999REMSYN068ROBN4 46/// /2307 11001 40220 53003 90800 333 91208 555 11006 22007=
0108997743999992022011909004+40650-074067FM-13+007299999V0201901N004119999999N999999999-00031+99999102161ADDMD1990001+9999OD159900461999REMSYN068ROBN4 46/// /1908 11003 40216 50000 90900 333 91209 555 11008 22008=
0108997743999992022011910004+40650-074067FM-13+007299999V0202001N005119999999N999999999+00001+99999102141ADDMD1810031+9999OD159900621999REMSYN068ROBN4 46/// /2010 10000 40214 58003 91000 333 91212 555 11009 22010=
0108997743999992022011911004+40650-074067FM-13+007299999V0201901N006219999999N999999999+00001+99999102091ADDMD1810111+9999OD159900721999REMSYN068ROBN4 46/// /1912 10000 40209 58011 91100 333 91214 555 11011 22012=
0108997743999992022011912004+40650-074067FM-13+007299999V0201901N008219999999N999999999+00021+99999102051ADDMD1810111+9999OD159900931999REMSYN068ROBN4 46/// /1916 10002 40205 58011 91200 333 91218 555 11014 22015=
0108997743999992022011913004+40650-074067FM-13+007299999V0202001N007219999999N999999999+00081+99999102061ADDMD1610081+9999OD159900881999REMSYN068ROBN4 46/// /2014 10008 40206 56008 91300 333 91217 555 11013 22014=
0108997743999992022011914004+40650-074067FM-13+007299999V0202101N006719999999N999999999+00231+99999102061ADDMD1610031+9999OD159900821999REMSYN068ROBN4 46/// /2113 10023 40206 56003 91400 333 91216 555 11012 22013=
0108997743999992022011915004+40650-074067FM-13+007299999V0202001N008219999999N999999999+00311+99999101941ADDMD1810111+9999OD159901131999REMSYN068ROBN4 46/// /2016 10031 40194 58011 91500 333 91222 555 11014 22015=
0108997743999992022011916004+40650-074067FM-13+007299999V0202201N004619999999N999999999+00451+99999101861ADDMD1810201+9999OD159900671999REMSYN068ROBN4 46/// /2209 10045 40186 58020 91600 333 91213 555 11009 22009=
0108997743999992022011917004+40650-074067FM-13+007299999V0202201N011819999999N999999999+00671+99999101671ADDMD1810391+9999OD159901391999REMSYN068ROBN4 46/// /2223 10067 40167 58039 91700 333 91227 555 11021 22023=
0108997743999992022011918004+40650-074067FM-13+007299999V0202201N008219999999N999999999+00791+99999101551ADDMD1810391+9999OD159901081999REMSYN068ROBN4 46/// /2216 10079 40155 58039 91800 333 91221 555 11015 22016=
0108997743999992022011919004+40650-074067FM-13+007299999V0202401N007719999999N999999999+00901+99999101451ADDMD1610411+9999OD159900981999REMSYN068ROBN4 46/// /2415 10090 40145 56041 91900 333 91219 555 11013 22015=
0108997743999992022011920004+40650-074067FM-13+007299999V0202401N006719999999N999999999+00951+99999101461ADDMD1610211+9999OD159900881999REMSYN068ROBN4 46/// /2413 10095 40146 56021 92000 333 91217 555 11012 22013=
0108997743999992022011921004+40650-074067FM-13+007299999V0202101N005719999999N999999999+00951+99999101411ADDMD1610141+9999OD159900721999REMSYN068ROBN4 46/// /2111 10095 40141 56014 92100 333 91214 555 11010 22011=
0108997743999992022011922004+40650-074067FM-13+007299999V0202201N006219999999N999999999+00941+99999101391ADDMD1710061+9999OD159900881999REMSYN068ROBN4 46/// /2212 10094 40139 57006 92200 333 91217 555 11011 22012=
0108997743999992022011923004+40650-074067FM-13+007299999V0202201N007219999999N999999999+00931+99999101411ADDMD1610051+9999OD159900981999REMSYN068ROBN4 46/// /2214 10093 40141 56005 92300 333 91219 555 11012 22014=
0108997743999992022012000004+40650-074067FM-13+007299999V0202201N006219999999N999999999+00891+99999101501ADDMD1310091+9999OD159900721999REMSYN068ROBN4 46/// /2212 10089 40150 53009 90000 333 91214 555 11011 22012=
0108997743999992022012001004+40650-074067FM-13+007299999V0202101N004119999999N999999999+00821+99999101501ADDMD1210111+9999OD159900571999REMSYN068ROBN4 46/// /2108 10082 40150 52011 90100 333 91211 555 11008 22008=
0108997743999992022012002004+40650-074067FM-13+007299999V0202301N003619999999N999999999+00801+99999101511ADDMD1110101+9999OD159900411999REMSYN068ROBN4 46/// /2307 10080 40151 51010 90200 333 91208 555 11006 22007=
0108997743999992022012003004+40650-074067FM-13+007299999V0202401N003619999999N999999999+00761+99999101481ADDMD1990001+9999OD159900511999REMSYN068ROBN4 46/// /2407 10076 40148 50000 90300 333 91210 555 11007 22007=
0108997743999992022012004004+40650-074067FM-13+007299999V0202701N004119999999N999999999+00741+99999101511ADDMD1510001+9999OD159900671999REMSYN068ROBN4 46/// /2708 10074 40151 55000 90400 333 91213 555 11008 22008=
0108997743999992022012005004+40650-074067FM-13+007299999V0202601N003119999999N999999999+00721+99999101491ADDMD1510001+9999OD159900361999REMSYN068ROBN4 46/// /2606 10072 40149 55000 90500 333 91207 555 11005 22006=
0088997743999992022012006004+40650-074067FM-13+007299999V0202701N002619999999N999999999+00681+99999101421ADDOD159900361999REMSYN062ROBN4 46/// /2705 10068 40142 90554 333 91207 555 11004 22005=
0108997743999992022012007004+40650-074067FM-13+007299999V0202601N005719999999N999999999+00681+99999101441ADDMD1710071+9999OD159900621999REMSYN068ROBN4 46/// /2611 10068 40144 57007 90700 333 91212 555 11010 22011=
0108997743999992022012008004+40650-074067FM-13+007299999V0202501N005719999999N999999999+00661+99999101541ADDMD1310051+9999OD159900721999REMSYN068ROBN4 46/// /2511 10066 40154 53005 90800 333 91214 555 11010 22011=
0108997743999992022012009004+40650-074067FM-13+007299999V0202901N007219999999N999999999+00521+99999101581ADDMD1310161+9999OD159901131999REMSYN068ROBN4 46/// /2914 10052 40158 53016 90900 333 91222 555 11012 22014=
0108997743999992022012010004+40650-074067FM-13+007299999V0202901N003119999999N999999999+00441+99999101581ADDMD1110141+9999OD159900361999REMSYN068ROBN4 46/// /2906 10044 40158 51014 91000 333 91207 555 11006 22006=
