0108997743999992024010100004+40650-074067FM-13+007299999V0202601N004619999999N999999999+00591+99999101621ADDMD1310141+9999OD159900621999REMSYN068ROBN4 46/// /2609 10059 40162 53014 90000 333 91212 555 11009 22009=
0108997743999992024010101004+40650-074067FM-13+007299999V0202501N003619999999N999999999+00571+99999101601ADDMD1110071+9999OD159900411999REMSYN068ROBN4 46/// /2507 10057 40160 51007 90100 333 91208 555 11006 22007=
0108997743999992024010102004+40650-074067FM-13+007299999V0202701N004619999999N999999999+00581+99999101591ADDMD1110031+9999OD159900511999REMSYN068ROBN4 46/// /2709 10058 40159 51003 90200 333 91210 555 11008 22009=
0108997743999992024010103004+40650-074067FM-13+007299999V0202501N002619999999N999999999+00571+99999101591ADDMD1710031+9999OD159900361999REMSYN068ROBN4 46/// /2505 10057 40159 57003 90300 333 91207 555 11004 22005=
0108997743999992024010104004+40650-074067FM-13+007299999V0202501N002619999999N999999999+00561+99999101611ADDMD1410001+9999OD159900261999REMSYN068ROBN4 46/// /2505 10056 40161 54000 90400 333 91205 555 11004 22005=
0108997743999992024010105004+40650-074067FM-13+007299999V0202401N003119999999N999999999+00541+99999101611ADDMD1410001+9999OD159900461999REMSYN068ROBN4 46/// /2406 10054 40161 54000 90500 333 91209 555 11005 22006=
0108997743999992024010106004+40650-074067FM-13+007299999V0202501N003619999999N999999999+00531+99999101591ADDMD1410001+9999OD159900511999REMSYN068ROBN4 46/// /2507 10053 40159 54000 90600 333 91210 555 11007 22007=
0108997743999992024010107004+40650-074067FM-13+007299999V0202801N003619999999N999999999+00521+99999101581ADDMD1710031+9999OD159900511999REMSYN068ROBN4 46/// /2807 10052 40158 57003 90700 333 91210 555 11007 22007=
0108997743999992024010108004+40650-074067FM-13+007299999V0202501N002619999999N999999999+00511+99999101561ADDMD1710051+9999OD159900311999REMSYN068ROBN4 46/// /2505 10051 40156 57005 90800 333 91206 555 11005 22005=
0108997743999992024010109004+40650-074067FM-13+007299999V0202701N002119999999N999999999+00501+99999101541ADDMD1710051+9999OD159900261999REMSYN068ROBN4 46/// /2704 10050 40154 57005 90900 333 91205 555 11003 22004=
0108997743999992024010110004+40650-074067FM-13+007299999V0203001N001019999999N999999999+00491+99999101531ADDMD1710051+9999OD159900151999REMSYN068ROBN4 46/// /3002 10049 40153 57005 91000 333 91203 555 11002 22002=
0108997743999992024010111004+40650-074067FM-13+007299999V0203101N003119999999N999999999+00481+99999101581ADDMD1510001+9999OD159900311999REMSYN068ROBN4 46/// /3106 10048 40158 55000 91100 333 91206 555 11005 22006=
0108997743999992024010112004+40650-074067FM-13+007299999V0203401N003119999999N999999999+00391+99999101621ADDMD1310081+9999OD159900411999REMSYN068ROBN4 46/// /3406 10039 40162 53008 91200 333 91208 555 11006 22006=
0108997743999992024010113004+40650-074067FM-13+007299999V0203501N002119999999N999999999+00391+99999101671ADDMD1210141+9999OD159900261999REMSYN068ROBN4 46/// /3504 10039 40167 52014 91300 333 91205 555 11004 22004=
0108997743999992024010114004+40650-074067FM-13+007299999V0203201N001519999999N999999999+00431+99999101711ADDMD1210131+9999OD159900211999REMSYN068ROBN4 46/// /3203 10043 40171 52013 91400 333 91204 555 11003 22003=
0108997743999992024010115004+40650-074067FM-13+007299999V0203501N002619999999N999999999+00451+99999101721ADDMD1110101+9999OD159900311999REMSYN068ROBN4 46/// /3505 10045 40172 51010 91500 333 91206 555 11004 22005=
0108997743999992024010116004+40650-074067FM-13+007299999V0200301N000519999999N999999999+00511+99999101691ADDMD1990001+9999OD159900151999REMSYN068ROBN4 46/// /0301 10051 40169 50000 91600 333 91203 555 11001 22001=
0108997743999992024010117004+40650-074067FM-13+007299999V0200801N000519999999N999999999+00591+99999101621ADDMD1810091+9999OD159900101999REMSYN068ROBN4 46/// /0801 10059 40162 58009 91700 333 91202 555 11001 22001=
0108997743999992024010118004+40650-074067FM-13+007299999V0209999C000019999999N999999999+00721+99999101591ADDMD1710131+9999OD159900051999REMSYN068ROBN4 46/// /0000 10072 40159 57013 91800 333 91201 555 11001 22001=
0108997743999992024010119004+40650-074067FM-13+007299999V0200801N001019999999N999999999+00641+99999101601ADDMD1610091+9999OD159900151999REMSYN068ROBN4 46/// /0802 10064 40160 56009 91900 333 91203 555 11002 22002=
0108997743999992024010120004+40650-074067FM-13+007299999V0201201N001019999999N999999999+00671+99999101621ADDMD1510001+9999OD159900101999REMSYN068ROBN4 46/// /1202 10067 40162 55000 92000 333 91202 555 11002 22002=
0108997743999992024010121004+40650-074067FM-13+007299999V0201201N001019999999N999999999+99999+99999101641ADDMD1210051+9999OD159900211999REMSYN068ROBN4 46/// /1202 1//// 40164 52005 92100 333 91204 555 11002 22002=
0108997743999992024010122004+40650-074067FM-13+007299999V0203401N003619999999N999999999+00721+99999101681ADDMD1310081+9999OD159900461999REMSYN068ROBN4 46/// /3407 10072 40168 53008 92200 333 91209 555 11006 22007=
0108997743999992024010123004+40650-074067FM-13+007299999V0203401N004119999999N999999999+00641+99999101731ADDMD1310111+9999OD159900571999REMSYN068ROBN4 46/// /3408 10064 40173 53011 92300 333 91211 555 11007 22008=
0108997743999992024010200004+40650-074067FM-13+007299999V0203401N004119999999N999999999+00581+99999101771ADDMD1210131+9999OD159900621999REMSYN068ROBN4 46/// /3408 10058 40177 52013 90000 333 91212 555 11008 22008=
0108997743999992024010201004+40650-074067FM-13+007299999V0203601N007219999999N999999999+00511+99999101791ADDMD1110111+9999OD159900881999REMSYN068ROBN4 46/// /3614 10051 40179 51011 90100 333 91217 555 11013 22014=
0108997743999992024010202004+40650-074067FM-13+007299999V0203401N005119999999N999999999+00441+99999101821ADDMD1110091+9999OD159900671999REMSYN068ROBN4 46/// /3410 10044 40182 51009 90200 333 91213 555 11009 22010=
0108997743999992024010203004+40650-074067FM-13+007299999V0203401N006219999999N999999999+00361+99999101861ADDMD1310091+9999OD159900721999REMSYN068ROBN4 46/// /3412 10036 40186 53009 90300 333 91214 555 11011 22012=
0108997743999992024010204004+40650-074067FM-13+007299999V0203401N006219999999N999999999+00271+99999101881ADDMD1110091+9999OD159900931999REMSYN068ROBN4 46/// /3412 10027 40188 51009 90400 333 91218 555 11011 22012=
0108997743999992024010205004+40650-074067FM-13+007299999V0203401N004119999999N999999999+00211+99999101861ADDMD1110041+9999OD159900571999REMSYN068ROBN4 46/// /3408 10021 40186 51004 90500 333 91211 555 11008 22008=
0108997743999992024010206004+40650-074067FM-13+007299999V0203601N005119999999N999999999+00141+99999101861ADDMD1410001+9999OD159900621999REMSYN068ROBN4 46/// /3610 10014 40186 54000 90600 333 91212 555 11009 22010=
0108997743999992024010207004+40650-074067FM-13+007299999V0203501N006219999999N999999999+00101+99999101871ADDMD1410001+9999OD159900721999REMSYN068ROBN4 46/// /3512 10010 40187 54000 90700 333 91214 555 11011 22012=
0108997743999992024010208004+40650-074067FM-13+007299999V0203501N005119999999N999999999+00041+99999101891ADDMD1210031+9999OD159900621999REMSYN068ROBN4 46/// /3510 10004 40189 52003 90800 333 91212 555 11009 22010=
0108997743999992024010209004+40650-074067FM-13+007299999V0203401N005719999999N999999999-00021+99999101891ADDMD1210031+9999OD159900721999REMSYN068ROBN4 46/// /3411 11002 40189 52003 90900 333 91214 555 11010 22011=
0108997743999992024010210004+40650-074067FM-13+007299999V0203501N005119999999N999999999-00051+99999101881ADDMD1410001+9999OD159900671999REMSYN068ROBN4 46/// /3510 11005 40188 54000 91000 333 91213 555 11009 22010=
0108997743999992024010211004+40650-074067FM-13+007299999V0203501N004619999999N999999999-00081+99999101951ADDMD1310061+9999OD159900671999REMSYN068ROBN4 46/// /3509 11008 40195 53006 91100 333 91213 555 11008 22009=
0108997743999992024010212004+40650-074067FM-13+007299999V0203401N004619999999N999999999-00101+99999102001ADDMD1310111+9999OD159900621999REMSYN068ROBN4 46/// /3409 11010 40200 53011 91200 333 91212 555 11008 22009=
0108997743999992024010213004+40650-074067FM-13+007299999V0203401N005119999999N999999999-00111+99999102021ADDMD1110141+9999OD159900671999REMSYN068ROBN4 46/// /3410 11011 40202 51014 91300 333 91213 555 11009 22010=
0108997743999992024010214004+40650-074067FM-13+007299999V0203301N005119999999N999999999-00061+99999102041ADDMD1110091+9999OD159900771999REMSYN068ROBN4 46/// /3310 11006 40204 51009 91400 333 91215 555 11009 22010=
0108997743999992024010215004+40650-074067FM-13+007299999V0203501N005119999999N999999999+00021+99999102041ADDMD1210041+9999OD159900671999REMSYN068ROBN4 46/// /3510 10002 40204 52004 91500 333 91213 555 11009 22010=
0108997743999992024010216004+40650-074067FM-13+007299999V0203101N003619999999N999999999+00101+99999101961ADDMD1810061+9999OD159900461999REMSYN068ROBN4 46/// /3107 10010 40196 58006 91600 333 91209 555 11006 22007=
0108997743999992024010217004+40650-074067FM-13+007299999V0203001N005119999999N999999999+00201+99999101831ADDMD1810211+9999OD159900671999REMSYN068ROBN4 46/// /3010 10020 40183 58021 91700 333 91213 555 11009 22010=
0108997743999992024010218004+40650-074067FM-13+007299999V0203201N005719999999N999999999+00331+99999101711ADDMD1810331+9999OD159900671999REMSYN068ROBN4 46/// /3211 10033 40171 58033 91800 333 91213 555 11010 22011=
0108997743999992024010219004+40650-074067FM-13+007299999V0203301N004619999999N999999999+00431+99999101631ADDMD1610331+9999OD159900571999REMSYN068ROBN4 46/// /3309 10043 40163 56033 91900 333 91211 555 11008 22009=
0108997743999992024010220004+40650-074067FM-13+007299999V0203101N004119999999N999999999+00511+99999101621ADDMD1610211+9999OD159900671999REMSYN068ROBN4 46/// /3108 10051 40162 56021 92000 333 91213 555 11008 22008=
0108997743999992024010221004+40650-074067FM-13+007299999V0203201N005119999999N999999999+00581+99999101591ADDMD1610121+9999OD159900571999REMSYN068ROBN4 46/// /3210 10058 40159 56012 92100 333 91211 555 11009 22010=
0108997743999992024010222004+40650-074067FM-13+007299999V0203201N004119999999N999999999+00581+99999101621ADDMD1510001+9999OD159900511999REMSYN068ROBN4 46/// /3208 10058 40162 55000 92200 333 91210 555 11007 22008=
0108997743999992024010223004+40650-074067FM-13+007299999V0203201N003619999999N999999999+00571+99999101641ADDMD1510001+9999OD159900411999REMSYN068ROBN4 46/// /3207 10057 40164 55000 92300 333 91208 555 11006 22007=
0108997743999992024010300004+40650-074067FM-13+007299999V0202901N002119999999N999999999+00521+99999101661ADDMD1110071+9999OD159900261999REMSYN068ROBN4 46/// /2904 10052 40166 51007 90000 333 91205 555 11004 22004=
0108997743999992024010301004+40650-074067FM-13+007299999V0203001N002619999999N999999999+00491+99999101651ADDMD1210031+9999OD159900361999REMSYN068ROBN4 46/// /3005 10049 40165 52003 90100 333 91207 555 11005 22005=
0108997743999992024010302004+40650-074067FM-13+007299999V0202801N003119999999N999999999+00431+99999101651ADDMD1410001+9999OD159900411999REMSYN068ROBN4 46/// /2806 10043 40165 54000 90200 333 91208 555 11006 22006=
0108997743999992024010303004+40650-074067FM-13+007299999V0202901N003619999999N999999999+00371+99999101681ADDMD1510001+9999OD159900411999REMSYN068ROBN4 46/// /2907 10037 40168 55000 90300 333 91208 555 11006 22007=
0108997743999992024010304004+40650-074067FM-13+007299999V0202901N004619999999N999999999+00301+99999101651ADDMD1990001+9999OD159900571999REMSYN068ROBN4 46/// /2909 10030 40165 50000 90400 333 91211 555 11008 22009=
0108997743999992024010305004+40650-074067FM-13+007299999V0202901N005719999999N999999999+00261+99999101601ADDMD1810051+9999OD159900621999REMSYN068ROBN4 46/// /2911 10026 40160 58005 90500 333 91212 555 11010 22010=
0108997743999992024010306004+40650-074067FM-13+007299999V0202901N005719999999N999999999+00211+99999101611ADDMD1610071+9999OD159900671999REMSYN068ROBN4 46/// /2911 10021 40161 56007 90600 333 91213 555 11010 22011=
0108997743999992024010307004+40650-074067FM-13+007299999V0202801N004619999999N999999999+00171+99999101601ADDMD1610051+9999OD159900571999REMSYN068ROBN4 46/// /2809 10017 40160 56005 90700 333 91211 555 11009 22009=
0108997743999992024010308004+40650-074067FM-13+007299999V0202901N005119999999N999999999+00151+99999101611ADDMD1410001+9999OD159900621999REMSYN068ROBN4 46/// /2910 10015 40161 54000 90800 333 91212 555 11009 22010=
0108997743999992024010309004+40650-074067FM-13+007299999V0203001N004619999999N999999999+00111+99999101601ADDMD1410001+9999OD159900571999REMSYN068ROBN4 46/// /3009 10011 40160 54000 90900 333 91211 555 11008 22009=
0108997743999992024010310004+40650-074067FM-13+007299999V0202901N004619999999N999999999+00101+99999101641ADDMD1310041+9999OD159900511999REMSYN068ROBN4 46/// /2909 10010 40164 53004 91000 333 91210 555 11008 22009=
0108997743999992024010311004+40650-074067FM-13+007299999V0202901N004119999999N999999999+00121+99999101661ADDMD1210051+9999OD159900461999REMSYN068ROBN4 46/// /2908 10012 40166 52005 91100 333 91209 555 11007 22008=
0108997743999992024010312004+40650-074067FM-13+007299999V0202801N004619999999N999999999+00141+99999101691ADDMD1110091+9999OD159900511999REMSYN068ROBN4 46/// /2809 10014 40169 51009 91200 333 91210 555 11008 22009=
0108997743999992024010313004+40650-074067FM-13+007299999V0202701N005119999999N999999999+00141+99999101781ADDMD1310141+9999OD159900621999REMSYN068ROBN4 46/// /2710 10014 40178 53014 91300 333 91212 555 11009 22010=
0108997743999992024010314004+40650-074067FM-13+007299999V0202801N005119999999N999999999+00181+99999101801ADDMD1110141+9999OD159900621999REMSYN068ROBN4 46/// /2810 10018 40180 51014 91400 333 91212 555 11009 22010=
0108997743999992024010315004+40650-074067FM-13+007299999V0202901N004619999999N999999999+00241+99999101791ADDMD1110101+9999OD159900571999REMSYN068ROBN4 46/// /2909 10024 40179 51010 91500 333 91211 555 11008 22009=
0108997743999992024010316004+40650-074067FM-13+007299999V0203601N004119999999N999999999+00361+99999101731ADDMD1810051+9999OD159900621999REMSYN068ROBN4 46/// /3608 10036 40173 58005 91600 333 91212 555 11008 22008=
0108997743999992024010317004+40650-074067FM-13+007299999V0203501N005119999999N999999999+00451+99999101631ADDMD1810171+9999OD159900621999REMSYN068ROBN4 46/// /3510 10045 40163 58017 91700 333 91212 555 11009 22010=
0108997743999992024010318004+40650-074067FM-13+007299999V0202901N003119999999N999999999+00521+99999101601ADDMD1610191+9999OD159900411999REMSYN068ROBN4 46/// /2906 10052 40160 56019 91800 333 91208 555 11006 22006=
0108997743999992024010319004+40650-074067FM-13+007299999V0203201N005119999999N999999999+00551+99999101561ADDMD1610171+9999OD159900721999REMSYN068ROBN4 46/// /3210 10055 40156 56017 91900 333 91214 555 11009 22010=
0108997743999992024010320004+40650-074067FM-13+007299999V0203201N006219999999N999999999+00521+99999101511ADDMD1810121+9999OD159900721999REMSYN068ROBN4 46/// /3212 10052 40151 58012 92000 333 91214 555 11011 22011=
0108997743999992024010321004+40650-074067FM-13+007299999V0203301N005119999999N999999999+00481+99999101501ADDMD1610101+9999OD159900671999REMSYN068ROBN4 46/// /3310 10048 40150 56010 92100 333 91213 555 11009 22010=
0108997743999992024010322004+40650-074067FM-13+007299999V0203201N003119999999N999999999+00481+99999101611ADDMD1310051+9999OD159900461999REMSYN068ROBN4 46/// /3206 10048 40161 53005 92200 333 91209 555 11005 22006=
0108997743999992024010323004+40650-074067FM-13+007299999V0203101N004619999999N999999999+00481+99999101621ADDMD1210111+9999OD159900571999REMSYN068ROBN4 46/// /3109 10048 40162 52011 92300 333 91211 555 11008 22009=
0108997743999992024010400004+40650-074067FM-13+007299999V0202901N004619999999N999999999+00471+99999101641ADDMD1110141+9999OD159900511999REMSYN068ROBN4 46/// /2909 10047 40164 51014 90000 333 91210 555 11009 22009=
0108997743999992024010401004+40650-074067FM-13+007299999V0203101N003619999999N999999999+00471+99999101591ADDMD1990001+9999OD159900511999REMSYN068ROBN4 46/// /3107 10047 40159 50000 90100 333 91210 555 11006 22007=
0108997743999992024010402004+40650-074067FM-13+007299999V0203101N002619999999N999999999+00461+99999101571ADDMD1710051+9999OD159900361999REMSYN068ROBN4 46/// /3105 10046 40157 57005 90200 333 91207 555 11005 22005=
0108997743999992024010403004+40650-074067FM-13+007299999V0203201N003619999999N999999999+00431+99999101551ADDMD1610091+9999OD159900461999REMSYN068ROBN4 46/// /3207 10043 40155 56009 90300 333 91209 555 11006 22007=
0108997743999992024010404004+40650-074067FM-13+007299999V0203101N003119999999N999999999+00431+99999101591ADDMD1510001+9999OD159900361999REMSYN068ROBN4 46/// /3106 10043 40159 55000 90400 333 91207 555 11006 22006=
0108997743999992024010405004+40650-074067FM-13+007299999V0203101N003119999999N999999999+00431+99999101571ADDMD1410001+9999OD159900311999REMSYN068ROBN4 46/// /3106 10043 40157 54000 90500 333 91206 555 11005 22006=
0108997743999992024010406004+40650-074067FM-13+007299999V0203201N001519999999N999999999+00421+99999101521ADDMD1810031+9999OD159900261999REMSYN068ROBN4 46/// /3203 10042 40152 58003 90600 333 91205 555 11003 22003=
0108997743999992024010407004+40650-074067FM-13+007299999V0202301N001519999999N999999999+00421+99999101501ADDMD1710091+9999OD159900211999REMSYN068ROBN4 46/// /2303 10042 40150 57009 90700 333 91204 555 11003 22003=
0108997743999992024010408004+40650-074067FM-13+007299999V0202501N002119999999N999999999+00391+99999101461ADDMD1610111+9999OD159900311999REMSYN068ROBN4 46/// /2504 10039 40146 56011 90800 333 91206 555 11004 22004=
0108997743999992024010409004+40650-074067FM-13+007299999V0202901N001519999999N999999999+00381+99999101401ADDMD1810121+9999OD159900211999REMSYN068ROBN4 46/// /2903 10038 40140 58012 90900 333 91204 555 11003 22003=
0108997743999992024010410004+40650-074067FM-13+007299999V0202501N002119999999N999999999+00381+99999101371ADDMD1610131+9999OD159900311999REMSYN068ROBN4 46/// /2504 10038 40137 56013 91000 333 91206 555 11004 22004=
0088997743999992024010411004+40650-074067FM-13+007299999V0202501N002119999999N999999999+00381+99999101351ADDOD159900311999REMSYN062ROBN4 46/// /2504 10038 40135 91048 333 91206 555 11004 22004=
0108997743999992024010412004+40650-074067FM-13+007299999V0202801N002619999999N999999999+00391+99999101371ADDMD1710031+9999OD159900261999REMSYN068ROBN4 46/// /2805 10039 40137 57003 91200 333 91205 555 11004 22004=
0108997743999992024010413004+40650-074067FM-13+007299999V0202701N003119999999N999999999+00401+99999101421ADDMD1210051+9999OD159900361999REMSYN068ROBN4 46/// /2706 10040 40142 52005 91300 333 91207 555 11006 22006=
0088997743999992024010414004+40650-074067FM-13+007299999V0202701N003119999999N999999999+00401+99999101451ADDOD159900411999REMSYN062ROBN4 46/// /2706 10040 40145 91336 333 91208 555 11006 22006=
0108997743999992024010415004+40650-074067FM-13+007299999V0202901N004119999999N999999999+00381+99999101501ADDMD1210131+9999OD159900511999REMSYN068ROBN4 46/// /2908 10038 40150 52013 91500 333 91210 555 11008 22008=
0108997743999992024010416004+40650-074067FM-13+007299999V0203301N005119999999N999999999+00451+99999101471ADDMD1990051+9999OD159900671999REMSYN068ROBN4 46/// /3310 10045 40147 50005 91600 333 91213 555 11009 22010=
0108997743999992024010417004+40650-074067FM-13+007299999V0203401N007719999999N999999999+00521+99999101411ADDMD1810041+9999OD159901031999REMSYN068ROBN4 46/// /3415 10052 40141 58004 91700 333 91220 555 11014 22015=
0108997743999992024010418004+40650-074067FM-13+007299999V0203401N009819999999N999999999+00571+99999101371ADDMD1810131+9999OD159901291999REMSYN068ROBN4 46/// /3419 10057 40137 58013 91800 333 91225 555 11017 22019=
0108997743999992024010419004+40650-074067FM-13+007299999V0203201N009319999999N999999999+00621+99999101371ADDMD1610101+9999OD159901031999REMSYN068ROBN4 46/// /3218 10062 40137 56010 91900 333 91220 555 11016 22017=
0108997743999992024010420004+40650-074067FM-13+007299999V0203401N010319999999N999999999+00601+99999101431ADDMD1510001+9999OD159901341999REMSYN068ROBN4 46/// /3420 10060 40143 55000 92000 333 91226 555 11018 22020=
0108997743999992024010421004+40650-074067FM-13+007299999V0203301N010319999999N999999999+00491+99999101571ADDMD1310201+9999OD159901341999REMSYN068ROBN4 46/// /3320 10049 40157 53020 92100 333 91226 555 11019 22020=
0108997743999992024010422004+40650-074067FM-13+007299999V0203201N008219999999N999999999+00391+99999101701ADDMD1310331+9999OD159901081999REMSYN068ROBN4 46/// /3216 10039 40170 53033 92200 333 91221 555 11014 22016=
0108997743999992024010423004+40650-074067FM-13+007299999V0203201N012419999999N999999999+00241+99999101831ADDMD1110401+9999OD159901491999REMSYN068ROBN4 46/// /3224 10024 40183 51040 92300 333 91229 555 11022 22023=
0108997743999992024010500004+40650-074067FM-13+007299999V0203201N010819999999N999999999+00171+99999101931ADDMD1110361+9999OD159901291999REMSYN068ROBN4 46/// /3221 10017 40193 51036 90000 333 91225 555 11019 22021=
0108997743999992024010501004+40650-074067FM-13+007299999V0203201N009819999999N999999999+00091+99999102011ADDMD1110311+9999OD159901391999REMSYN068ROBN4 46/// /3219 10009 40201 51031 90100 333 91227 555 11017 22019=
0108997743999992024010502004+40650-074067FM-13+007299999V0203301N007219999999N999999999+00021+99999102111ADDMD1210281+9999OD159900981999REMSYN068ROBN4 46/// /3314 10002 40211 52028 90200 333 91219 555 11012 22014=
0108997743999992024010503004+40650-074067FM-13+007299999V0203401N009819999999N999999999-00081+99999102171ADDMD1110241+9999OD159901181999REMSYN068ROBN4 46/// /3419 11008 40217 51024 90300 333 91223 555 11017 22019=
0108997743999992024010504004+40650-074067FM-13+007299999V0203301N006719999999N999999999-00121+99999102281ADDMD1310271+9999OD159900881999REMSYN068ROBN4 46/// /3313 11012 40228 53027 90400 333 91217 555 11012 22013=
0108997743999992024010505004+40650-074067FM-13+007299999V0203301N009319999999N999999999-00181+99999102281ADDMD1110171+9999OD159901181999REMSYN068ROBN4 46/// /3318 11018 40228 51017 90500 333 91223 555 11016 22018=
0108997743999992024010506004+40650-074067FM-13+007299999V0203301N006719999999N999999999-00231+99999102321ADDMD1110151+9999OD159900881999REMSYN068ROBN4 46/// /3313 11023 40232 51015 90600 333 91217 555 11012 22013=
0108997743999992024010507004+40650-074067FM-13+007299999V0203201N008819999999N999999999-00281+99999102371ADDMD1310091+9999OD159901081999REMSYN068ROBN4 46/// /3217 11028 40237 53009 90700 333 91221 555 11016 22017=
0108997743999992024010508004+40650-074067FM-13+007299999V0203201N006219999999N999999999-00301+99999102451ADDMD1310171+9999OD159901031999REMSYN068ROBN4 46/// /3212 11030 40245 53017 90800 333 91220 555 11011 22012=
0108997743999992024010509004+40650-074067FM-13+007299999V0203301N006719999999N999999999-00301+99999102461ADDMD1110141+9999OD159900931999REMSYN068ROBN4 46/// /3313 11030 40246 51014 90900 333 91218 555 11012 22013=
0108997743999992024010510004+40650-074067FM-13+007299999V0203101N008219999999N999999999-00291+99999102471ADDMD1110101+9999OD159900931999REMSYN068ROBN4 46/// /3116 11029 40247 51010 91000 333 91218 555 11015 22016=
0108997743999992024010511004+40650-074067FM-13+007299999V0202801N004119999999N999999999-00271+99999102541ADDMD1310091+9999OD159900511999REMSYN068ROBN4 46/// /2808 11027 40254 53009 91100 333 91210 555 11007 22008=
0108997743999992024010512004+40650-074067FM-13+007299999V0202901N005719999999N999999999-00291+99999102591ADDMD1310131+9999OD159900671999REMSYN068ROBN4 46/// /2911 11029 40259 53013 91200 333 91213 555 11010 22011=
0108997743999992024010513004+40650-074067FM-13+007299999V0202901N005719999999N999999999-00281+99999102661ADDMD1210191+9999OD159900671999REMSYN068ROBN4 46/// /2911 11028 40266 52019 91300 333 91213 555 11010 22011=
0108997743999992024010514004+40650-074067FM-13+007299999V0203301N006719999999N999999999-00191+99999102721ADDMD1310181+9999OD159900931999REMSYN068ROBN4 46/// /3313 11019 40272 53018 91400 333 91218 555 11012 22013=
0108997743999992024010515004+40650-074067FM-13+007299999V0203301N006719999999N999999999-00121+99999102751ADDMD1110161+9999OD159900881999REMSYN068ROBN4 46/// /3313 11012 40275 51016 91500 333 91217 555 11012 22013=
0108997743999992024010516004+40650-074067FM-13+007299999V0203301N007219999999N999999999-00021+99999102641ADDMD1990001+9999OD159901031999REMSYN068ROBN4 46/// /3314 11002 40264 50000 91600 333 91220 555 11013 22014=
0108997743999992024010517004+40650-074067FM-13+007299999V0203101N005719999999N999999999+00031+99999102521ADDMD1810201+9999OD159900771999REMSYN068ROBN4 46/// /3111 10003 40252 58020 91700 333 91215 555 11010 22011=
0108997743999992024010518004+40650-074067FM-13+007299999V0203001N004119999999N999999999+00101+99999102451ADDMD1610301+9999OD159900621999REMSYN068ROBN4 46/// /3008 10010 40245 56030 91800 333 91212 555 11008 22008=
0108997743999992024010519004+40650-074067FM-13+007299999V0203001N006219999999N999999999+00171+99999102421ADDMD1610221+9999OD159900771999REMSYN068ROBN4 46/// /3012 10017 40242 56022 91900 333 91215 555 11011 22012=
0108997743999992024010520004+40650-074067FM-13+007299999V0203201N005719999999N999999999+00231+99999102361ADDMD1610161+9999OD159900621999REMSYN068ROBN4 46/// /3211 10023 40236 56016 92000 333 91212 555 11010 22011=
0108997743999992024010521004+40650-074067FM-13+007299999V0202901N003619999999N999999999+00271+99999102371ADDMD1610081+9999OD159900621999REMSYN068ROBN4 46/// /2907 10027 40237 56008 92100 333 91212 555 11007 22007=
0108997743999992024010522004+40650-074067FM-13+007299999V0202901N003619999999N999999999+00281+99999102351ADDMD1610071+9999OD159900461999REMSYN068ROBN4 46/// /2907 10028 40235 56007 92200 333 91209 555 11006 22007=
0108997743999992024010523004+40650-074067FM-13+007299999V0202601N003119999999N999999999+00241+99999102371ADDMD1410001+9999OD159900461999REMSYN068ROBN4 46/// /2606 10024 40237 54000 92300 333 91209 555 11006 22006=
0108997743999992024010600004+40650-074067FM-13+007299999V0202501N004119999999N999999999+99999+99999102471ADDMD1310101+9999OD159900571999REMSYN068ROBN4 46/// /2508 1//// 40247 53010 90000 333 91211 555 11007 22008=
0108997743999992024010601004+40650-074067FM-13+007299999V0202401N004119999999N999999999+00191+99999102411ADDMD1990061+9999OD159900511999REMSYN068ROBN4 46/// /2408 10019 40241 50006 90100 333 91210 555 11008 22008=
0108997743999992024010602004+40650-074067FM-13+007299999V0202501N004119999999N999999999+00141+99999102391ADDMD1990001+9999OD159900571999REMSYN068ROBN4 46/// /2508 10014 40239 50000 90200 333 91211 555 11008 22008=
0108997743999992024010603004+40650-074067FM-13+007299999V0202501N005119999999N999999999+99999+99999102371ADDMD1610101+9999OD159900671999REMSYN068ROBN4 46/// /2510 1//// 40237 56010 90300 333 91213 555 11009 22010=
0108997743999992024010604004+40650-074067FM-13+007299999V0202501N005119999999N999999999+00061+99999102331ADDMD1810081+9999OD159900621999REMSYN068ROBN4 46/// /2510 10006 40233 58008 90400 333 91212 555 11009 22010=
0108997743999992024010605004+40650-074067FM-13+007299999V0202601N003619999999N999999999+00031+99999102311ADDMD1710081+9999OD159900411999REMSYN068ROBN4 46/// /2607 10003 40231 57008 90500 333 91208 555 11007 22007=
0108997743999992024010606004+40650-074067FM-13+007299999V0202501N004619999999N999999999+00001+99999102321ADDMD1610051+9999OD159900571999REMSYN068ROBN4 46/// /2509 10000 40232 56005 90600 333 91211 555 11008 22009=
0108997743999992024010607004+40650-074067FM-13+007299999V0202601N004619999999N999999999-00021+99999102361ADDMD1310031+9999OD159900461999REMSYN068ROBN4 46/// /2609 11002 40236 53003 90700 333 91209 555 11008 22009=
0108997743999992024010608004+40650-074067FM-13+007299999V0202701N004119999999N999999999-00031+99999102341ADDMD1210031+9999OD159900511999REMSYN068ROBN4 46/// /2708 11003 40234 52003 90800 333 91210 555 11007 22008=
0088997743999992024010609004+40650-074067FM-13+007299999V0202901N003119999999N999999999-00061+99999102291ADDOD159900361999REMSYN062ROBN4 46/// /2906 11006 40229 90842 333 91207 555 11005 22006=
0108997743999992024010610004+40650-074067FM-13+007299999V0203101N000519999999N999999999-00071+99999102291ADDMD1710071+9999OD159900101999REMSYN068ROBN4 46/// /3101 11007 40229 57007 91000 333 91202 555 11001 22001=
0108997743999992024010611004+40650-074067FM-13+007299999V0202901N001519999999N999999999+99999+99999102291ADDMD1610051+9999OD159900151999REMSYN068ROBN4 46/// /2903 1//// 40229 56005 91100 333 91203 555 11002 22003=
0108997743999992024010612004+40650-074067FM-13+007299999V0203401N001019999999N999999999+99999+99999102281ADDMD1410001+9999OD159900151999REMSYN068ROBN4 46/// /3402 1//// 40228 54000 91200 333 91203 555 11002 22002=
0108997743999992024010613004+40650-074067FM-13+007299999V0200401N001519999999N999999999+00011+99999102251ADDMD1810041+9999OD159900211999REMSYN068ROBN4 46/// /0403 10001 40225 58004 91300 333 91204 555 11003 22003=
0108997743999992024010614004+40650-074067FM-13+007299999V0200901N004119999999N999999999+00131+99999102251ADDMD1710041+9999OD159900511999REMSYN068ROBN4 46/// /0908 10013 40225 57004 91400 333 91210 555 11008 22008=
0108997743999992024010615004+40650-074067FM-13+007299999V0200901N004119999999N999999999+99999+99999102221ADDMD1710061+9999OD159900461999REMSYN068ROBN4 46/// /0908 1//// 40222 57006 91500 333 91209 555 11007 22008=
0108997743999992024010616004+40650-074067FM-13+007299999V0200801N004619999999N999999999+99999+99999102101ADDMD1810151+9999OD159900571999REMSYN068ROBN4 46/// /0809 1//// 40210 58015 91600 333 91211 555 11008 22009=
0108997743999992024010617004+40650-074067FM-13+007299999V0200801N005719999999N999999999+00201+99999101981ADDMD1810271+9999OD159900621999REMSYN068ROBN4 46/// /0811 10020 40198 58027 91700 333 91212 555 11010 22011=
0108997743999992024010618004+40650-074067FM-13+007299999V0200801N006219999999N999999999+00261+99999101831ADDMD1810391+9999OD159900671999REMSYN068ROBN4 46/// /0812 10026 40183 58039 91800 333 91213 555 11011 22012=
0108997743999992024010619004+40650-074067FM-13+007299999V0200901N006219999999N999999999+00291+99999101721ADDMD1610381+9999OD159900771999REMSYN068ROBN4 46/// /0912 10029 40172 56038 91900 333 91215 555 11011 22012=
0108997743999992024010620004+40650-074067FM-13+007299999V0200701N008219999999N999999999+00241+99999101561ADDMD1810421+9999OD159900931999REMSYN068ROBN4 46/// /0716 10024 40156 58042 92000 333 91218 555 11014 22015=
0108997743999992024010621004+40650-074067FM-13+007299999V0200701N006219999999N999999999+99999+99999101491ADDMD1610341+9999OD159900771999REMSYN068ROBN4 46/// /0712 1//// 40149 56034 92100 333 91215 555 11011 22012=
0088997743999992024010622004+40650-074067FM-13+007299999V0200701N007719999999N999999999+00141+99999101421ADDOD159900981999REMSYN062ROBN4 46/// /0715 10014 40142 92136 333 91219 555 11014 22015=
0108997743999992024010623004+40650-074067FM-13+007299999V0200801N009319999999N999999999+00151+99999101231ADDMD1710331+9999OD159901081999REMSYN068ROBN4 46/// /0818 10015 40123 57033 92300 333 91221 555 11016 22017=
0108997743999992024010700004+40650-074067FM-13+007299999V0200801N011819999999N999999999+00221+99999101001ADDMD1710491+9999OD159901441999REMSYN068ROBN4 46/// /0823 10022 40100 57049 90000 333 91228 555 11021 22023=
0088997743999992024010701004+40650-074067FM-13+007299999V0200801N012919999999N999999999+00241+99999100801ADDOD159901541999REMSYN062ROBN4 46/// /0825 10024 40080 90048 333 91230 555 11023 22025=
0108997743999992024010702004+40650-074067FM-13+007299999V0200601N011319999999N999999999+00281+99999100601ADDMD1610631+9999OD159901541999REMSYN068ROBN4 46/// /0622 10028 40060 56063 90200 333 91230 555 11020 22022=
0108997743999992024010703004+40650-074067FM-13+007299999V0200601N012919999999N999999999+00241+99999100471ADDMD1610531+9999OD159901541999REMSYN068ROBN4 46/// /0625 10024 40047 56053 90300 333 91230 555 11022 22024=
0108997743999992024010704004+40650-074067FM-13+007299999V0200601N011319999999N999999999+00341+99999100431ADDMD1610351+9999OD159901391999REMSYN068ROBN4 46/// /0622 10034 40043 56035 90400 333 91227 555 11020 22022=
0108997743999992024010705004+40650-074067FM-13+007299999V0200501N009819999999N999999999+00311+99999100461ADDMD1510141+9999OD159901081999REMSYN068ROBN4 46/// /0519 10031 40046 55014 90500 333 91221 555 11017 22018=
0108997743999992024010706004+40650-074067FM-13+007299999V0200501N012919999999N999999999+00301+99999100371ADDMD1810101+9999OD159901541999REMSYN068ROBN4 46/// /0525 10030 40037 58010 90600 333 91230 555 11022 22024=
0108997743999992024010707004+40650-074067FM-13+007299999V0200501N010819999999N999999999+00301+99999100331ADDMD1810101+9999OD159901391999REMSYN068ROBN4 46/// /0521 10030 40033 58010 90700 333 91227 555 11019 22021=
0108997743999992024010708004+40650-074067FM-13+007299999V0200501N011319999999N999999999+00321+99999100271ADDMD1610191+9999OD159901391999REMSYN068ROBN4 46/// /0522 10032 40027 56019 90800 333 91227 555 11020 22021=
0088997743999992024010709004+40650-074067FM-13+007299999V0200401N009819999999N999999999+00341+99999100231ADDOD159901341999REMSYN062ROBN4 46/// /0419 10034 40023 90836 333 91226 555 11018 22019=
0108997743999992024010710004+40650-074067FM-13+007299999V0200501N009319999999N999999999+99999+99999100181ADDMD1610151+9999OD159901391999REMSYN068ROBN4 46/// /0518 1//// 40018 56015 91000 333 91227 555 11016 22018=
0088997743999992024010711004+40650-074067FM-13+007299999V0200401N009319999999N999999999+00371+99999100181ADDOD159901131999REMSYN062ROBN4 46/// /0418 10037 40018 91036 333 91222 555 11017 22018=
0108997743999992024010712004+40650-074067FM-13+007299999V0200101N006719999999N999999999+00321+99999100151ADDMD1710041+9999OD159900881999REMSYN068ROBN4 46/// /0113 10032 40015 57004 91200 333 91217 555 11012 22013=
0108997743999992024010713004+40650-074067FM-13+007299999V0203601N007219999999N999999999+00281+99999100171ADDMD1410001+9999OD159900821999REMSYN068ROBN4 46/// /3614 10028 40017 54000 91300 333 91216 555 11012 22014=
0088997743999992024010714004+40650-074067FM-13+007299999V0203601N006219999999N999999999+00251+99999100181ADDOD159900671999REMSYN062ROBN4 46/// /3612 10025 40018 91348 333 91213 555 11011 22011=
0108997743999992024010715004+40650-074067FM-13+007299999V0203601N004619999999N999999999+00261+99999100171ADDMD1410001+9999OD159900621999REMSYN068ROBN4 46/// /3609 10026 40017 54000 91500 333 91212 555 11009 22009=
0108997743999992024010716004+40650-074067FM-13+007299999V0203101N007219999999N999999999+00171+99999100251ADDMD1310081+9999OD159900881999REMSYN068ROBN4 46/// /3114 10017 40025 53008 91600 333 91217 555 11013 22014=
0108997743999992024010717004+40650-074067FM-13+007299999V0203201N007219999999N999999999+00181+99999100221ADDMD1990031+9999OD159900981999REMSYN068ROBN4 46/// /3214 10018 40022 50003 91700 333 91219 555 11013 22014=
0108997743999992024010718004+40650-074067FM-13+007299999V0203301N007219999999N999999999+99999+99999100191ADDMD1990001+9999OD159901031999REMSYN068ROBN4 46/// /3314 1//// 40019 50000 91800 333 91220 555 11013 22014=
0108997743999992024010719004+40650-074067FM-13+007299999V0203401N007219999999N999999999+00281+99999100251ADDMD1510001+9999OD159900881999REMSYN068ROBN4 46/// /3414 10028 40025 55000 91900 333 91217 555 11013 22014=
0108997743999992024010720004+40650-074067FM-13+007299999V0203301N004619999999N999999999+00361+99999100341ADDMD1310121+9999OD159900771999REMSYN068ROBN4 46/// /3309 10036 40034 53012 92000 333 91215 555 11008 22009=
0108997743999992024010721004+40650-074067FM-13+007299999V0203101N006719999999N999999999+00361+99999100481ADDMD1310291+9999OD159900821999REMSYN068ROBN4 46/// /3113 10036 40048 53029 92100 333 91216 555 11012 22013=
0108997743999992024010722004+40650-074067FM-13+007299999V0203501N006219999999N999999999+00241+99999100631ADDMD1310381+9999OD159900721999REMSYN068ROBN4 46/// /3512 10024 40063 53038 92200 333 91214 555 11011 22012=
0108997743999992024010723004+40650-074067FM-13+007299999V0203501N005719999999N999999999+00171+99999100811ADDMD1310471+9999OD159900671999REMSYN068ROBN4 46/// /3511 10017 40081 53047 92300 333 91213 555 11010 22011=
0108997743999992024010800004+40650-074067FM-13+007299999V0203401N003619999999N999999999+00211+99999101001ADDMD1310521+9999OD159900411999REMSYN068ROBN4 46/// /3407 10021 40100 53052 90000 333 91208 555 11006 22007=
0108997743999992024010801004+40650-074067FM-13+007299999V0203101N010319999999N999999999+99999+99999101141ADDMD1110511+9999OD159901241999REMSYN068ROBN4 46/// /3120 1//// 40114 51051 90100 333 91224 555 11018 22020=
0108997743999992024010802004+40650-074067FM-13+007299999V0203101N008219999999N999999999+00311+99999101281ADDMD1110471+9999OD159901081999REMSYN068ROBN4 46/// /3116 10031 40128 51047 90200 333 91221 555 11015 22016=
0108997743999992024010803004+40650-074067FM-13+007299999V0203301N006719999999N999999999+00301+99999101401ADDMD1110401+9999OD159900821999REMSYN068ROBN4 46/// /3313 10030 40140 51040 90300 333 91216 555 11012 22013=
0108997743999992024010804004+40650-074067FM-13+007299999V0203201N006219999999N999999999+00291+99999101491ADDMD1110351+9999OD159900821999REMSYN068ROBN4 46/// /3212 10029 40149 51035 90400 333 91216 555 11011 22012=
0108997743999992024010805004+40650-074067FM-13+007299999V0203201N007719999999N999999999+00281+99999101611ADDMD1210331+9999OD159901081999REMSYN068ROBN4 46/// /3215 10028 40161 52033 90500 333 91221 555 11014 22015=
0108997743999992024010806004+40650-074067FM-13+007299999V0203301N004619999999N999999999+00281+99999101721ADDMD1310321+9999OD159900671999REMSYN068ROBN4 46/// /3309 10028 40172 53032 90600 333 91213 555 11008 22009=
0108997743999992024010807004+40650-074067FM-13+007299999V0203201N005719999999N999999999+00291+99999101811ADDMD1110321+9999OD159900671999REMSYN068ROBN4 46/// /3211 10029 40181 51032 90700 333 91213 555 11010 22010=
0108997743999992024010808004+40650-074067FM-13+007299999V0203201N007219999999N999999999+00341+99999101971ADDMD1310361+9999OD159900881999REMSYN068ROBN4 46/// /3214 10034 40197 53036 90800 333 91217 555 11013 22014=
0108997743999992024010809004+40650-074067FM-13+007299999V0203301N006719999999N999999999+00321+99999102031ADDMD1110311+9999OD159900931999REMSYN068ROBN4 46/// /3313 10032 40203 51031 90900 333 91218 555 11012 22013=
0108997743999992024010810004+40650-074067FM-13+007299999V0203401N008219999999N999999999+00281+99999102101ADDMD1110291+9999OD159901081999REMSYN068ROBN4 46/// /3416 10028 40210 51029 91000 333 91221 555 11014 22015=
0108997743999992024010811004+40650-074067FM-13+007299999V0203301N008819999999N999999999+00271+99999102241ADDMD1310271+9999OD159901341999REMSYN068ROBN4 46/// /3317 10027 40224 53027 91100 333 91226 555 11016 22017=
0108997743999992024010812004+40650-074067FM-13+007299999V0203301N005119999999N999999999+00271+99999102411ADDMD1310381+9999OD159900821999REMSYN068ROBN4 46/// /3310 10027 40241 53038 91200 333 91216 555 11009 22010=
0108997743999992024010813004+40650-074067FM-13+007299999V0203301N009819999999N999999999+00301+99999102511ADDMD1110411+9999OD159901181999REMSYN068ROBN4 46/// /3319 10030 40251 51041 91300 333 91223 555 11017 22019=
0108997743999992024010814004+40650-074067FM-13+007299999V0203301N007719999999N999999999+00361+99999102641ADDMD1110401+9999OD159901291999REMSYN068ROBN4 46/// /3315 10036 40264 51040 91400 333 91225 555 11013 22015=
0108997743999992024010815004+40650-074067FM-13+007299999V0203401N008219999999N999999999+00401+99999102811ADDMD1310401+9999OD159901131999REMSYN068ROBN4 46/// /3416 10040 40281 53040 91500 333 91222 555 11015 22016=
0108997743999992024010816004+40650-074067FM-13+007299999V0203501N007719999999N999999999+00481+99999102811ADDMD1110301+9999OD159901131999REMSYN068ROBN4 46/// /3515 10048 40281 51030 91600 333 91222 555 11013 22015=
0108997743999992024010817004+40650-074067FM-13+007299999V0203401N007719999999N999999999+00521+99999102841ADDMD1110201+9999OD159900981999REMSYN068ROBN4 46/// /3415 10052 40284 51020 91700 333 91219 555 11013 22015=
0108997743999992024010818004+40650-074067FM-13+007299999V0203601N004619999999N999999999+00571+99999102831ADDMD1410001+9999OD159900671999REMSYN068ROBN4 46/// /3609 10057 40283 54000 91800 333 91213 555 11008 22009=
0108997743999992024010819004+40650-074067FM-13+007299999V0203501N005719999999N999999999+00611+99999102851ADDMD1110041+9999OD159900671999REMSYN068ROBN4 46/// /3511 10061 40285 51004 91900 333 91213 555 11010 22011=
0108997743999992024010820004+40650-074067FM-13+007299999V0203401N004619999999N999999999+00641+99999102861ADDMD1410001+9999OD159900621999REMSYN068ROBN4 46/// /3409 10064 40286 54000 92000 333 91212 555 11008 22009=
0108997743999992024010821004+40650-074067FM-13+007299999V0200101N003619999999N999999999+00631+99999102921ADDMD1310091+9999OD159900721999REMSYN068ROBN4 46/// /0107 10063 40292 53009 92100 333 91214 555 11006 22007=
0108997743999992024010822004+40650-074067FM-13+007299999V0203501N003619999999N999999999+00581+99999102991ADDMD1310141+9999OD159900411999REMSYN068ROBN4 46/// /3507 10058 40299 53014 92200 333 91208 555 11006 22007=
0108997743999992024010823004+40650-074067FM-13+007299999V0203501N002619999999N999999999+99999+99999103071ADDMD1310211+9999OD159900311999REMSYN068ROBN4 46/// /3505 1//// 40307 53021 92300 333 91206 555 11005 22005=
0108997743999992024010900004+40650-074067FM-13+007299999V0200201N001519999999N999999999+00511+99999103101ADDMD1110181+9999OD159900211999REMSYN068ROBN4 46/// /0203 10051 40310 51018 90000 333 91204 555 11002 22003=
0108997743999992024010901004+40650-074067FM-13+007299999V0202601N001519999999N999999999+00491+99999103141ADDMD1110151+9999OD159900211999REMSYN068ROBN4 46/// /2603 10049 40314 51015 90100 333 91204 555 11003 22003=
0108997743999992024010902004+40650-074067FM-13+007299999V0202701N002119999999N999999999+00421+99999103081ADDMD1990001+9999OD159900211999REMSYN068ROBN4 46/// /2704 10042 40308 50000 90200 333 91204 555 11003 22004=
0108997743999992024010903004+40650-074067FM-13+007299999V0202601N000519999999N999999999+00401+99999103011ADDMD1810091+9999OD159900101999REMSYN068ROBN4 46/// /2601 10040 40301 58009 90300 333 91202 555 11001 22001=
0108997743999992024010904004+40650-074067FM-13+007299999V0203001N001019999999N999999999+00411+99999103001ADDMD1610141+9999OD159900101999REMSYN068ROBN4 46/// /3002 10041 40300 56014 90400 333 91202 555 11002 22002=
0108997743999992024010905004+40650-074067FM-13+007299999V0202601N001019999999N999999999+00341+99999103001ADDMD1610081+9999OD159900101999REMSYN068ROBN4 46/// /2602 10034 40300 56008 90500 333 91202 555 11001 22002=
0108997743999992024010906004+40650-074067FM-13+007299999V0203001N001519999999N999999999+00281+99999103061ADDMD1310051+9999OD159900211999REMSYN068ROBN4 46/// /3003 10028 40306 53005 90600 333 91204 555 11003 22003=
0108997743999992024010907004+40650-074067FM-13+007299999V0203001N001019999999N999999999+00241+99999103001ADDMD1990001+9999OD159900151999REMSYN068ROBN4 46/// /3002 10024 40300 50000 90700 333 91203 555 11002 22002=
0108997743999992024010908004+40650-074067FM-13+007299999V0202901N002119999999N999999999+00201+99999103001ADDMD1990001+9999OD159900261999REMSYN068ROBN4 46/// /2904 10020 40300 50000 90800 333 91205 555 11004 22004=
0108997743999992024010909004+40650-074067FM-13+007299999V0202901N001019999999N999999999+00161+99999102891ADDMD1810171+9999OD159900151999REMSYN068ROBN4 46/// /2902 10016 40289 58017 90900 333 91203 555 11002 22002=
0108997743999992024010910004+40650-074067FM-13+007299999V0209999C000019999999N999999999+00231+99999102861ADDMD1810141+9999OD159900051999REMSYN068ROBN4 46/// /0000 10023 40286 58014 91000 333 91201 555 11000 22000=
0108997743999992024010911004+40650-074067FM-13+007299999V0209999C000019999999N999999999+99999+99999102881ADDMD1610121+9999OD159900051999REMSYN068ROBN4 46/// /0000 1//// 40288 56012 91100 333 91201 555 11000 22000=
0108997743999992024010912004+40650-074067FM-13+007299999V0200901N002619999999N999999999+00461+99999102761ADDMD1810131+9999OD159900261999REMSYN068ROBN4 46/// /0905 10046 40276 58013 91200 333 91205 555 11004 22005=
0108997743999992024010913004+40650-074067FM-13+007299999V0201001N005119999999N999999999+00481+99999102621ADDMD1810241+9999OD159900571999REMSYN068ROBN4 46/// /1010 10048 40262 58024 91300 333 91211 555 11009 22010=
0108997743999992024010914004+40650-074067FM-13+007299999V0201301N005719999999N999999999+00571+99999102631ADDMD1610251+9999OD159900621999REMSYN068ROBN4 46/// /1311 10057 40263 56025 91400 333 91212 555 11010 22011=
0108997743999992024010915004+40650-074067FM-13+007299999V0201401N009319999999N999999999+00651+99999102521ADDMD1610241+9999OD159901131999REMSYN068ROBN4 46/// /1418 10065 40252 56024 91500 333 91222 555 11017 22018=
0108997743999992024010916004+40650-074067FM-13+007299999V0201401N007719999999N999999999+00671+99999102411ADDMD1810211+9999OD159901181999REMSYN068ROBN4 46/// /1415 10067 40241 58021 91600 333 91223 555 11014 22015=
0108997743999992024010917004+40650-074067FM-13+007299999V0201201N010319999999N999999999+00661+99999102111ADDMD1810521+9999OD159901241999REMSYN068ROBN4 46/// /1220 10066 40211 58052 91700 333 91224 555 11019 22020=
0108997743999992024010918004+40650-074067FM-13+007299999V0201101N012419999999N999999999+00671+99999101841ADDMD1810681+9999OD159901391999REMSYN068ROBN4 46/// /1124 10067 40184 58068 91800 333 91227 555 11022 22024=
0108997743999992024010919004+40650-074067FM-13+007299999V0201201N012419999999N999999999+00671+99999101651ADDMD1610761+9999OD159901391999REMSYN068ROBN4 46/// /1224 10067 40165 56076 91900 333 91227 555 11022 22024=
0108997743999992024010920004+40650-074067FM-13+007299999V0201201N016019999999N999999999+00701+99999101381ADDMD1710731+9999OD159901801999REMSYN068ROBN4 46/// /1231 10070 40138 57073 92000 333 91235 555 11028 22031=
0108997743999992024010921004+40650-074067FM-13+007299999V0201201N015419999999N999999999+00701+99999101081ADDMD1810761+9999OD159902011999REMSYN068ROBN4 46/// /1230 10070 40108 58076 92100 333 91239 555 11027 22030=
0108997743999992024010922004+40650-074067FM-13+007299999V0201201N014919999999N999999999+00791+99999100881ADDMD1610771+9999OD159901801999REMSYN068ROBN4 46/// /1229 10079 40088 56077 92200 333 91235 555 11027 22029=
0108997743999992024010923004+40650-074067FM-13+007299999V0201201N014919999999N999999999+00921+99999100551ADDMD1810831+9999OD159901851999REMSYN068ROBN4 46/// /1229 10092 40055 58083 92300 333 91236 555 11026 22028=
0108997743999992024011000004+40650-074067FM-13+007299999V0201201N015419999999N999999999+01051+99999100171ADDMD1810911+9999OD159902061999REMSYN068ROBN4 46/// /1230 10105 40017 58091 90000 333 91240 555 11027 22029=
0108997743999992024011001004+40650-074067FM-13+007299999V0201201N017019999999N999999999+01051+99999099851ADDMD1611031+9999OD159902111999REMSYN068ROBN4 46/// /1233 10105 49985 56103 90100 333 91241 555 11030 22033=
0108997743999992024011002004+40650-074067FM-13+007299999V0201401N014419999999N999999999+01131+99999099581ADDMD1610971+9999OD159901751999REMSYN068ROBN4 46/// /1428 10113 49958 56097 90200 333 91234 555 11025 22027=
0108997743999992024011003004+40650-074067FM-13+007299999V0201601N018019999999N999999999+01171+99999099181ADDMD1810991+9999OD159902211999REMSYN068ROBN4 46/// /1635 10117 49918 58099 90300 333 91243 555 11032 22035=
0108997743999992024011004004+40650-074067FM-13+007299999V0202001N011819999999N999999999+01281+99999099121ADDMD1610731+9999OD159901701999REMSYN068ROBN4 46/// /2023 10128 49912 56073 90400 333 91233 555 11021 22022=
0108997743999992024011005004+40650-074067FM-13+007299999V0201601N007219999999N999999999+01311+99999098891ADDMD1610691+9999OD159900771999REMSYN068ROBN4 46/// /1614 10131 49889 56069 90500 333 91215 555 11013 22014=
0108997743999992024011006004+40650-074067FM-13+007299999V0201501N017019999999N999999999+01161+99999098442ADDMD1810741+9999OD159902061999REMSYN068ROBN4 46/// /1533 10116 49844 58074 90600 333 91240 555 11031 22033=
0108997743999992024011007004+40650-074067FM-13+007299999V0201901N008819999999N999999999+00981+99999098471ADDMD1510651+9999OD159901081999REMSYN068ROBN4 46/// /1917 10098 49847 55065 90700 333 91221 555 11015 22016=
0108997743999992024011008004+40650-074067FM-13+007299999V0201701N007719999999N999999999+01101+99999098251ADDMD1610641+9999OD159900881999REMSYN068ROBN4 46/// /1715 10110 49825 56064 90800 333 91217 555 11014 22015=
0108997743999992024011009004+40650-074067FM-13+007299999V0202101N006719999999N999999999+01271+99999098232ADDMD1810211+9999OD159900981999REMSYN068ROBN4 46/// /2113 10127 49823 58021 90900 333 91219 555 11012 22013=
0108997743999992024011010004+40650-074067FM-13+007299999V0202601N014419999999N999999999+01371+99999098242ADDMD1610231+9999OD159902061999REMSYN068ROBN4 46/// /2628 10137 49824 56023 91000 333 91240 555 11025 22028=
0108997743999992024011011004+40650-074067FM-13+007299999V0202801N009319999999N999999999+01111+99999098442ADDMD1310191+9999OD159901031999REMSYN068ROBN4 46/// /2818 10111 49844 53019 91100 333 91220 555 11016 22018=
0108997743999992024011012004+40650-074067FM-13+007299999V0202801N010819999999N999999999+01041+99999098571ADDMD1310341+9999OD159901491999REMSYN068ROBN4 46/// /2821 10104 49857 53034 91200 333 91229 555 11019 22021=
0108997743999992024011013004+40650-074067FM-13+007299999V0202801N008219999999N999999999+01001+99999098701ADDMD1110461+9999OD159900981999REMSYN068ROBN4 46/// /2816 10100 49870 51046 91300 333 91219 555 11015 22016=
0108997743999992024011014004+40650-074067FM-13+007299999V0202801N011319999999N999999999+00921+99999098931ADDMD1310491+9999OD159901751999REMSYN068ROBN4 46/// /2822 10092 49893 53049 91400 333 91234 555 11020 22022=
0108997743999992024011015004+40650-074067FM-13+007299999V0202801N009819999999N999999999+00911+99999099051ADDMD1110481+9999OD159901491999REMSYN068ROBN4 46/// /2819 10091 49905 51048 91500 333 91229 555 11017 22019=
0108997743999992024011016004+40650-074067FM-13+007299999V0202601N011819999999N999999999+00951+99999099141ADDMD1110441+9999OD159901441999REMSYN068ROBN4 46/// /2623 10095 49914 51044 91600 333 91228 555 11021 22023=
0108997743999992024011017004+40650-074067FM-13+007299999V0202901N010819999999N999999999+99999+99999099151ADDMD1110221+9999OD159901441999REMSYN068ROBN4 46/// /2921 1//// 49915 51022 91700 333 91228 555 11019 22021=
0108997743999992024011018004+40650-074067FM-13+007299999V0202701N017019999999N999999999+00921+99999099231ADDMD1110181+9999OD159902011999REMSYN068ROBN4 46/// /2733 10092 49923 51018 91800 333 91239 555 11030 22032=
0108997743999992024011019004+40650-074067FM-13+007299999V0202801N013919999999N999999999+00871+99999099431ADDMD1310291+9999OD159901701999REMSYN068ROBN4 46/// /2827 10087 49943 53029 91900 333 91233 555 11025 22027=
0108997743999992024011020004+40650-074067FM-13+007299999V0202601N010819999999N999999999+00851+99999099561ADDMD1310411+9999OD159901651999REMSYN068ROBN4 46/// /2621 10085 49956 53041 92000 333 91232 555 11019 22021=
0108997743999992024011021004+40650-074067FM-13+007299999V0202701N010819999999N999999999+00871+99999099711ADDMD1110481+9999OD159901491999REMSYN068ROBN4 46/// /2721 10087 49971 51048 92100 333 91229 555 11020 22021=
0108997743999992024011022004+40650-074067FM-13+007299999V0202701N009819999999N999999999+00881+99999099861ADDMD1310431+9999OD159901291999REMSYN068ROBN4 46/// /2719 10088 49986 53043 92200 333 91225 555 11018 22019=
0108997743999992024011023004+40650-074067FM-13+007299999V0202701N008219999999N999999999+00861+99999100011ADDMD1210451+9999OD159901181999REMSYN068ROBN4 46/// /2716 10086 40001 52045 92300 333 91223 555 11015 22016=
0108997743999992024011100004+40650-074067FM-13+007299999V0202901N011319999999N999999999+00851+99999100131ADDMD1110421+9999OD159901441999REMSYN068ROBN4 46/// /2922 10085 40013 51042 90000 333 91228 555 11020 22021=
0108997743999992024011101004+40650-074067FM-13+007299999V0202701N008219999999N999999999+00811+99999100291ADDMD1310431+9999OD159901291999REMSYN068ROBN4 46/// /2716 10081 40029 53043 90100 333 91225 555 11014 22015=
0108997743999992024011102004+40650-074067FM-13+007299999V0202801N011819999999N999999999+00781+99999100351ADDMD1110341+9999OD159901541999REMSYN068ROBN4 46/// /2823 10078 40035 51034 90200 333 91230 555 11021 22022=
0108997743999992024011103004+40650-074067FM-13+007299999V0202801N013419999999N999999999+00741+99999100411ADDMD1110281+9999OD159901801999REMSYN068ROBN4 46/// /2826 10074 40041 51028 90300 333 91235 555 11024 22026=
0108997743999992024011104004+40650-074067FM-13+007299999V0202801N008819999999N999999999+00701+99999100491ADDMD1310201+9999OD159901131999REMSYN068ROBN4 46/// /2817 10070 40049 53020 90400 333 91222 555 11016 22017=
0108997743999992024011105004+40650-074067FM-13+007299999V0202801N010819999999N999999999+00671+99999100551ADDMD1210201+9999OD159901391999REMSYN068ROBN4 46/// /2821 10067 40055 52020 90500 333 91227 555 11019 22021=
0108997743999992024011106004+40650-074067FM-13+007299999V0202801N009319999999N999999999+00651+99999100631ADDMD1210221+9999OD159901081999REMSYN068ROBN4 46/// /2818 10065 40063 52022 90600 333 91221 555 11017 22018=
0108997743999992024011107004+40650-074067FM-13+007299999V0202801N008219999999N999999999+00641+99999100711ADDMD1310221+9999OD159901081999REMSYN068ROBN4 46/// /2816 10064 40071 53022 90700 333 91221 555 11014 22016=
0108997743999992024011108004+40650-074067FM-13+007299999V0202801N011819999999N999999999+00631+99999100771ADDMD1110221+9999OD159901291999REMSYN068ROBN4 46/// /2823 10063 40077 51022 90800 333 91225 555 11021 22023=
0108997743999992024011109004+40650-074067FM-13+007299999V0202901N009319999999N999999999+00611+99999100811ADDMD1110181+9999OD159901341999REMSYN068ROBN4 46/// /2918 10061 40081 51018 90900 333 91226 555 11017 22018=
0108997743999992024011110004+40650-074067FM-13+007299999V0202901N007219999999N999999999+00591+99999100861ADDMD1110151+9999OD159900981999REMSYN068ROBN4 46/// /2914 10059 40086 51015 91000 333 91219 555 11012 22014=
0108997743999992024011111004+40650-074067FM-13+007299999V0202801N005719999999N999999999+99999+99999100921ADDMD1310151+9999OD159900621999REMSYN068ROBN4 46/// /2811 1//// 40092 53015 91100 333 91212 555 11010 22011=
0108997743999992024011112004+40650-074067FM-13+007299999V0202801N007219999999N999999999+00531+99999101001ADDMD1310191+9999OD159900881999REMSYN068ROBN4 46/// /2814 10053 40100 53019 91200 333 91217 555 11013 22014=
0108997743999992024011113004+40650-074067FM-13+007299999V0202701N006719999999N999999999+00541+99999101031ADDMD1110171+9999OD159900771999REMSYN068ROBN4 46/// /2713 10054 40103 51017 91300 333 91215 555 11012 22013=
0108997743999992024011114004+40650-074067FM-13+007299999V0202801N007719999999N999999999+00541+99999101151ADDMD1310231+9999OD159900881999REMSYN068ROBN4 46/// /2815 10054 40115 53023 91400 333 91217 555 11014 22015=
0108997743999992024011115004+40650-074067FM-13+007299999V0202501N007719999999N999999999+00541+99999101131ADDMD1110131+9999OD159900981999REMSYN068ROBN4 46/// /2515 10054 40113 51013 91500 333 91219 555 11014 22015=
0108997743999992024011116004+40650-074067FM-13+007299999V0202601N007219999999N999999999+00531+99999101161ADDMD1110131+9999OD159900931999REMSYN068ROBN4 46/// /2614 10053 40116 51013 91600 333 91218 555 11013 22014=
0108997743999992024011117004+40650-074067FM-13+007299999V0202701N009319999999N999999999+00531+99999101101ADDMD1810051+9999OD159901241999REMSYN068ROBN4 46/// /2718 10053 40110 58005 91700 333 91224 555 11017 22018=
0108997743999992024011118004+40650-074067FM-13+007299999V0202701N006219999999N999999999+00591+99999101031ADDMD1810101+9999OD159900881999REMSYN068ROBN4 46/// /2712 10059 40103 58010 91800 333 91217 555 11011 22012=
0108997743999992024011119004+40650-074067FM-13+007299999V0202601N006219999999N999999999+00681+99999100971ADDMD1710191+9999OD159900881999REMSYN068ROBN4 46/// /2612 10068 40097 57019 91900 333 91217 555 11011 22012=
0108997743999992024011120004+40650-074067FM-13+007299999V0202601N005119999999N999999999+99999+99999100981ADDMD1610121+9999OD159900621999REMSYN068ROBN4 46/// /2610 1//// 40098 56012 92000 333 91212 555 11009 22010=
0108997743999992024011121004+40650-074067FM-13+007299999V0202701N005719999999N999999999+00791+99999101071ADDMD1310041+9999OD159900721999REMSYN068ROBN4 46/// /2711 10079 40107 53004 92100 333 91214 555 11010 22011=
0108997743999992024011122004+40650-074067FM-13+007299999V0202401N004119999999N999999999+00781+99999101181ADDMD1310211+9999OD159900461999REMSYN068ROBN4 46/// /2408 10078 40118 53021 92200 333 91209 555 11007 22008=
0088997743999992024011123004+40650-074067FM-13+007299999V0202101N005119999999N999999999+00761+99999101181ADDOD159900571999REMSYN062ROBN4 46/// /2110 10076 40118 92242 333 91211 555 11009 22010=
0108997743999992024011200004+40650-074067FM-13+007299999V0202101N005719999999N999999999+00741+99999101281ADDMD1110211+9999OD159900721999REMSYN068ROBN4 46/// /2111 10074 40128 51021 90000 333 91214 555 11010 22011=
0088997743999992024011201004+40650-074067FM-13+007299999V0202301N005719999999N999999999+00731+99999101331ADDOD159900721999REMSYN062ROBN4 46/// /2311 10073 40133 90048 333 91214 555 11010 22010=
0108997743999992024011202004+40650-074067FM-13+007299999V0202401N004119999999N999999999+00711+99999101421ADDMD1210221+9999OD159900621999REMSYN068ROBN4 46/// /2408 10071 40142 52022 90200 333 91212 555 11007 22008=
0108997743999992024011203004+40650-074067FM-13+007299999V0202401N004619999999N999999999+00681+99999101501ADDMD1210221+9999OD159900571999REMSYN068ROBN4 46/// /2409 10068 40150 52022 90300 333 91211 555 11008 22009=
0088997743999992024011204004+40650-074067FM-13+007299999V0202401N006719999999N999999999+00681+99999101521ADDOD159900821999REMSYN062ROBN4 46/// /2413 10068 40152 90336 333 91216 555 11012 22013=
0108997743999992024011205004+40650-074067FM-13+007299999V0202501N006719999999N999999999+00621+99999101621ADDMD1210201+9999OD159900771999REMSYN068ROBN4 46/// /2513 10062 40162 52020 90500 333 91215 555 11012 22013=
0108997743999992024011206004+40650-074067FM-13+007299999V0202601N006219999999N999999999+99999+99999101711ADDMD1310211+9999OD159900721999REMSYN068ROBN4 46/// /2612 1//// 40171 53021 90600 333 91214 555 11011 22012=
0108997743999992024011207004+40650-074067FM-13+007299999V0202701N004119999999N999999999+00531+99999101861ADDMD1310321+9999OD159900511999REMSYN068ROBN4 46/// /2708 10053 40186 53032 90700 333 91210 555 11008 22008=
0108997743999992024011208004+40650-074067FM-13+007299999V0202901N004119999999N999999999+00481+99999101951ADDMD1210331+9999OD159900461999REMSYN068ROBN4 46/// /2908 10048 40195 52033 90800 333 91209 555 11007 22008=
0108997743999992024011209004+40650-074067FM-13+007299999V0202601N005119999999N999999999+00491+99999101991ADDMD1110281+9999OD159900571999REMSYN068ROBN4 46/// /2610 10049 40199 51028 90900 333 91211 555 11009 22010=
0108997743999992024011210004+40650-074067FM-13+007299999V0202701N004119999999N999999999+00491+99999101981ADDMD1110121+9999OD159900461999REMSYN068ROBN4 46/// /2708 10049 40198 51012 91000 333 91209 555 11007 22008=
0108997743999992024011211004+40650-074067FM-13+007299999V0202701N006219999999N999999999+00401+99999102081ADDMD1310131+9999OD159900771999REMSYN068ROBN4 46/// /2712 10040 40208 53013 91100 333 91215 555 11011 22012=
0108997743999992024011212004+40650-074067FM-13+007299999V0203001N003619999999N999999999+00311+99999102101ADDMD1210111+9999OD159900411999REMSYN068ROBN4 46/// /3007 10031 40210 52011 91200 333 91208 555 11006 22007=
0108997743999992024011213004+40650-074067FM-13+007299999V0202901N003119999999N999999999+00351+99999102191ADDMD1110211+9999OD159900361999REMSYN068ROBN4 46/// /2906 10035 40219 51021 91300 333 91207 555 11005 22006=
0108997743999992024011214004+40650-074067FM-13+007299999V0203301N001519999999N999999999+00431+99999102251ADDMD1310171+9999OD159900151999REMSYN068ROBN4 46/// /3303 10043 40225 53017 91400 333 91203 555 11002 22003=
0108997743999992024011215004+40650-074067FM-13+007299999V0202901N001019999999N999999999+00581+99999102291ADDMD1110191+9999OD159900151999REMSYN068ROBN4 46/// /2902 10058 40229 51019 91500 333 91203 555 11002 22002=
0108997743999992024011216004+40650-074067FM-13+007299999V0200101N001519999999N999999999+00661+99999102311ADDMD1110121+9999OD159900311999REMSYN068ROBN4 46/// /0103 10066 40231 51012 91600 333 91206 555 11003 22003=
0108997743999992024011217004+40650-074067FM-13+007299999V0200701N000519999999N999999999+00711+99999102231ADDMD1990001+9999OD159900051999REMSYN068ROBN4 46/// /0701 10071 40223 50000 91700 333 91201 555 11001 22001=
0108997743999992024011218004+40650-074067FM-13+007299999V0201601N001019999999N999999999+00741+99999102051ADDMD1810241+9999OD159900211999REMSYN068ROBN4 46/// /1602 10074 40205 58024 91800 333 91204 555 11002 22002=
0108997743999992024011219004+40650-074067FM-13+007299999V0201301N005719999999N999999999+00761+99999101981ADDMD1610331+9999OD159900771999REMSYN068ROBN4 46/// /1311 10076 40198 56033 91900 333 91215 555 11010 22010=
0108997743999992024011220004+40650-074067FM-13+007299999V0201301N006219999999N999999999+00701+99999101951ADDMD1610281+9999OD159900821999REMSYN068ROBN4 46/// /1312 10070 40195 56028 92000 333 91216 555 11011 22012=
0108997743999992024011221004+40650-074067FM-13+007299999V0201201N008219999999N999999999+00671+99999101891ADDMD1610161+9999OD159900881999REMSYN068ROBN4 46/// /1216 10067 40189 56016 92100 333 91217 555 11014 22015=
0108997743999992024011222004+40650-074067FM-13+007299999V0201201N007219999999N999999999+00671+99999101731ADDMD1810251+9999OD159900931999REMSYN068ROBN4 46/// /1214 10067 40173 58025 92200 333 91218 555 11013 22014=
0108997743999992024011223004+40650-074067FM-13+007299999V0201401N007719999999N999999999+00711+99999101631ADDMD1810321+9999OD159900931999REMSYN068ROBN4 46/// /1415 10071 40163 58032 92300 333 91218 555 11014 22015=
0108997743999992024011300004+40650-074067FM-13+007299999V0201301N008219999999N999999999+99999+99999101471ADDMD1710421+9999OD159901031999REMSYN068ROBN4 46/// /1316 1//// 40147 57042 90000 333 91220 555 11015 22016=
0108997743999992024011301004+40650-074067FM-13+007299999V0201101N010319999999N999999999+00761+99999101151ADDMD1810581+9999OD159901341999REMSYN068ROBN4 46/// /1120 10076 40115 58058 90100 333 91226 555 11019 22020=
0108997743999992024011302004+40650-074067FM-13+007299999V0201001N009319999999N999999999+00791+99999101121ADDMD1610511+9999OD159901291999REMSYN068ROBN4 46/// /1018 10079 40112 56051 90200 333 91225 555 11017 22018=
0108997743999992024011303004+40650-074067FM-13+007299999V0201001N012919999999N999999999+00831+99999100991ADDMD1610481+9999OD159901601999REMSYN068ROBN4 46/// /1025 10083 40099 56048 90300 333 91231 555 11023 22025=
0088997743999992024011304004+40650-074067FM-13+007299999V0201101N014919999999N999999999+00831+99999100661ADDOD159902061999REMSYN062ROBN4 46/// /1129 10083 40066 90336 333 91240 555 11027 22029=
0108997743999992024011305004+40650-074067FM-13+007299999V0201101N017019999999N999999999+00821+99999100411ADDMD1810711+9999OD159902061999REMSYN068ROBN4 46/// /1133 10082 40041 58071 90500 333 91240 555 11030 22032=
0108997743999992024011306004+40650-074067FM-13+007299999V0201101N018019999999N999999999+00881+99999100061ADDMD1610931+9999OD159902111999REMSYN068ROBN4 46/// /1135 10088 40006 56093 90600 333 91241 555 11032 22034=
0108997743999992024011307004+40650-074067FM-13+007299999V0201101N015419999999N999999999+00981+99999099801ADDMD1810831+9999OD159901801999REMSYN068ROBN4 46/// /1130 10098 49980 58083 90700 333 91235 555 11027 22030=
0108997743999992024011308004+40650-074067FM-13+007299999V0201001N010819999999N999999999+01021+99999099591ADDMD1610821+9999OD159901391999REMSYN068ROBN4 46/// /1021 10102 49959 56082 90800 333 91227 555 11020 22021=
0088997743999992024011309004+40650-074067FM-13+007299999V0201101N010319999999N999999999+99999+99999099461ADDOD159901241999REMSYN062ROBN4 46/// /1120 1//// 49946 90842 333 91224 555 11019 22020=
0108997743999992024011310004+40650-074067FM-13+007299999V0201601N011319999999N999999999+01231+99999099101ADDMD1810701+9999OD159901291999REMSYN068ROBN4 46/// /1622 10123 49910 58070 91000 333 91225 555 11020 22022=
0108997743999992024011311004+40650-074067FM-13+007299999V0201801N006219999999N999999999+99999+99999099001ADDMD1610591+9999OD159900721999REMSYN068ROBN4 46/// /1812 1//// 49900 56059 91100 333 91214 555 11011 22012=
0088997743999992024011312004+40650-074067FM-13+007299999V0201901N006719999999N999999999+99999+99999098951ADDOD159900721999REMSYN062ROBN4 46/// /1913 1//// 49895 91142 333 91214 555 11012 22013=
0108997743999992024011313004+40650-074067FM-13+007299999V0201801N009819999999N999999999+01161+99999098842ADDMD1610261+9999OD159901031999REMSYN068ROBN4 46/// /1819 10116 49884 56026 91300 333 91220 555 11017 22019=
0108997743999992024011314004+40650-074067FM-13+007299999V0202201N006219999999N999999999+99999+99999098852ADDMD1610151+9999OD159900771999REMSYN068ROBN4 46/// /2212 1//// 49885 56015 91400 333 91215 555 11011 22012=
0108997743999992024011315004+40650-074067FM-13+007299999V0202301N009819999999N999999999+99999+99999098872ADDMD1610041+9999OD159901341999REMSYN068ROBN4 46/// /2319 1//// 49887 56004 91500 333 91226 555 11017 22019=
0108997743999992024011316004+40650-074067FM-13+007299999V0202601N013419999999N999999999+01341+99999098881ADDMD1210041+9999OD159901901999REMSYN068ROBN4 46/// /2626 10134 49888 52004 91600 333 91237 555 11024 22026=
0108997743999992024011317004+40650-074067FM-13+007299999V0202701N013919999999N999999999+99999+99999098871ADDMD1410001+9999OD159901601999REMSYN068ROBN4 46/// /2727 1//// 49887 54000 91700 333 91231 555 11024 22027=
0108997743999992024011318004+40650-074067FM-13+007299999V0202701N011819999999N999999999+00871+99999099011ADDMD1310141+9999OD159901441999REMSYN068ROBN4 46/// /2723 10087 49901 53014 91800 333 91228 555 11021 22023=
0108997743999992024011319004+40650-074067FM-13+007299999V0202901N011819999999N999999999+00811+99999099141ADDMD1310261+9999OD159901751999REMSYN068ROBN4 46/// /2923 10081 49914 53026 91900 333 91234 555 11021 22023=
0108997743999992024011320004+40650-074067FM-13+007299999V0202801N016519999999N999999999+00841+99999099271ADDMD1110401+9999OD159902211999REMSYN068ROBN4 46/// /2832 10084 49927 51040 92000 333 91243 555 11029 22031=
0088997743999992024011321004+40650-074067FM-13+007299999V0202701N014919999999N999999999+00801+99999099421ADDOD159902061999REMSYN062ROBN4 46/// /2729 10080 49942 92048 333 91240 555 11026 22029=
0108997743999992024011322004+40650-074067FM-13+007299999V0202701N013919999999N999999999+00741+99999099671ADDMD1210531+9999OD159901901999REMSYN068ROBN4 46/// /2727 10074 49967 52053 92200 333 91237 555 11025 22027=
0108997743999992024011323004+40650-074067FM-13+007299999V0202701N014919999999N999999999+00641+99999099861ADDMD1210591+9999OD159901751999REMSYN068ROBN4 46/// /2729 10064 49986 52059 92300 333 91234 555 11027 22029=
0088997743999992024011400004+40650-074067FM-13+007299999V0202801N017019999999N999999999+99999+99999099981ADDOD159901901999REMSYN062ROBN4 46/// /2833 1//// 49998 92342 333 91237 555 11030 22032=
0108997743999992024011401004+40650-074067FM-13+007299999V0202801N011819999999N999999999+00461+99999100211ADDMD1110541+9999OD159901651999REMSYN068ROBN4 46/// /2823 10046 40021 51054 90100 333 91232 555 11021 22023=
0108997743999992024011402004+40650-074067FM-13+007299999V0202801N013919999999N999999999+99999+99999100391ADDMD1210531+9999OD159902011999REMSYN068ROBN4 46/// /2827 1//// 40039 52053 90200 333 91239 555 11025 22027=
0108997743999992024011403004+40650-074067FM-13+007299999V0202801N013419999999N999999999+00291+99999100491ADDMD1110451+9999OD159901801999REMSYN068ROBN4 46/// /2826 10029 40049 51045 90300 333 91235 555 11024 22026=
0108997743999992024011404004+40650-074067FM-13+007299999V0202901N012419999999N999999999+00251+99999100631ADDMD1110421+9999OD159901901999REMSYN068ROBN4 46/// /2924 10025 40063 51042 90400 333 91237 555 11022 22024=
0108997743999992024011405004+40650-074067FM-13+007299999V0202801N012419999999N999999999+00201+99999100751ADDMD1310361+9999OD159901541999REMSYN068ROBN4 46/// /2824 10020 40075 53036 90500 333 91230 555 11022 22023=
0108997743999992024011406004+40650-074067FM-13+007299999V0202701N008819999999N999999999+00201+99999100861ADDMD1110371+9999OD159901181999REMSYN068ROBN4 46/// /2717 10020 40086 51037 90600 333 91223 555 11016 22017=
0108997743999992024011407004+40650-074067FM-13+007299999V0202801N011819999999N999999999+99999+99999100941ADDMD1110311+9999OD159901441999REMSYN068ROBN4 46/// /2823 1//// 40094 51031 90700 333 91228 555 11021 22023=
0108997743999992024011408004+40650-074067FM-13+007299999V0202601N006719999999N999999999+00131+99999101031ADDMD1110281+9999OD159900931999REMSYN068ROBN4 46/// /2613 10013 40103 51028 90800 333 91218 555 11012 22013=
0108997743999992024011409004+40650-074067FM-13+007299999V0202501N005719999999N999999999+00081+99999101071ADDMD1110211+9999OD159900721999REMSYN068ROBN4 46/// /2511 10008 40107 51021 90900 333 91214 555 11010 22011=
0108997743999992024011410004+40650-074067FM-13+007299999V0202501N007219999999N999999999+00061+99999101091ADDMD1110151+9999OD159900881999REMSYN068ROBN4 46/// /2514 10006 40109 51015 91000 333 91217 555 11013 22014=
0108997743999992024011411004+40650-074067FM-13+007299999V0202301N005719999999N999999999+99999+99999101171ADDMD1310141+9999OD159900771999REMSYN068ROBN4 46/// /2311 1//// 40117 53014 91100 333 91215 555 11010 22011=
0108997743999992024011412004+40650-074067FM-13+007299999V0202301N006219999999N999999999+99999+99999101161ADDMD1210091+9999OD159900881999REMSYN068ROBN4 46/// /2312 1//// 40116 52009 91200 333 91217 555 11011 22012=
0108997743999992024011413004+40650-074067FM-13+007299999V0202101N007219999999N999999999+00101+99999101141ADDMD1110051+9999OD159900981999REMSYN068ROBN4 46/// /2114 10010 40114 51005 91300 333 91219 555 11013 22014=
0108997743999992024011414004+40650-074067FM-13+007299999V0202201N009819999999N999999999+00191+99999101101ADDMD1810071+9999OD159901341999REMSYN068ROBN4 46/// /2219 10019 40110 58007 91400 333 91226 555 11017 22019=
0108997743999992024011415004+40650-074067FM-13+007299999V0202201N008219999999N999999999+00321+99999101071ADDMD1810091+9999OD159901241999REMSYN068ROBN4 46/// /2216 10032 40107 58009 91500 333 91224 555 11015 22016=
0108997743999992024011416004+40650-074067FM-13+007299999V0202101N008819999999N999999999+00511+99999100861ADDMD1810281+9999OD159901341999REMSYN068ROBN4 46/// /2117 10051 40086 58028 91600 333 91226 555 11015 22016=
0108997743999992024011417004+40650-074067FM-13+007299999V0202401N011319999999N999999999+00581+99999100781ADDMD1810321+9999OD159901441999REMSYN068ROBN4 46/// /2422 10058 40078 58032 91700 333 91228 555 11020 22022=
0108997743999992024011418004+40650-074067FM-13+007299999V0203001N014919999999N999999999+00241+99999100821ADDMD1510251+9999OD159902011999REMSYN068ROBN4 46/// /3029 10024 40082 55025 91800 333 91239 555 11027 22029=
0108997743999992024011419004+40650-074067FM-13+007299999V0202601N014419999999N999999999+00261+99999100921ADDMD1310061+9999OD159901701999REMSYN068ROBN4 46/// /2628 10026 40092 53006 91900 333 91233 555 11026 22028=
0108997743999992024011420004+40650-074067FM-13+007299999V0202601N012919999999N999999999+00381+99999100991ADDMD1310211+9999OD159901601999REMSYN068ROBN4 46/// /2625 10038 40099 53021 92000 333 91231 555 11023 22025=
0088997743999992024011421004+40650-074067FM-13+007299999V0202801N014919999999N999999999+00381+99999101091ADDOD159901901999REMSYN062ROBN4 46/// /2829 10038 40109 92042 333 91237 555 11027 22029=
0108997743999992024011422004+40650-074067FM-13+007299999V0202901N015419999999N999999999+00181+99999101471ADDMD1210551+9999OD159901901999REMSYN068ROBN4 46/// /2930 10018 40147 52055 92200 333 91237 555 11027 22030=
0108997743999992024011423004+40650-074067FM-13+007299999V0202801N012919999999N999999999+00061+99999101701ADDMD1210711+9999OD159901751999REMSYN068ROBN4 46/// /2825 10006 40170 52071 92300 333 91234 555 11023 22025=
0088997743999992024011500004+40650-074067FM-13+007299999V0202901N012419999999N999999999-00021+99999101811ADDOD159901441999REMSYN062ROBN4 46/// /2924 11002 40181 92348 333 91228 555 11022 22023=
0108997743999992024011501004+40650-074067FM-13+007299999V0203001N010319999999N999999999+99999+99999101891ADDMD1110421+9999OD159901181999REMSYN068ROBN4 46/// /3020 1//// 40189 51042 90100 333 91223 555 11018 22020=
0108997743999992024011502004+40650-074067FM-13+007299999V0202901N011319999999N999999999-00151+99999101971ADDMD1110271+9999OD159901391999REMSYN068ROBN4 46/// /2922 11015 40197 51027 90200 333 91227 555 11020 22022=
0108997743999992024011503004+40650-074067FM-13+007299999V0203001N009819999999N999999999-00181+99999102041ADDMD1310201+9999OD159901131999REMSYN068ROBN4 46/// /3019 11018 40204 53020 90300 333 91222 555 11017 22019=
0108997743999992024011504004+40650-074067FM-13+007299999V0203001N012919999999N999999999-00251+99999102041ADDMD1110151+9999OD159901441999REMSYN068ROBN4 46/// /3025 11025 40204 51015 90400 333 91228 555 11023 22025=
0108997743999992024011505004+40650-074067FM-13+007299999V0203001N007219999999N999999999-00281+99999102121ADDMD1310151+9999OD159900981999REMSYN068ROBN4 46/// /3014 11028 40212 53015 90500 333 91219 555 11013 22014=
0108997743999992024011506004+40650-074067FM-13+007299999V0202901N007719999999N999999999-00331+99999102181ADDMD1310141+9999OD159900821999REMSYN068ROBN4 46/// /2915 11033 40218 53014 90600 333 91216 555 11014 22015=
0108997743999992024011507004+40650-074067FM-13+007299999V0202901N006219999999N999999999-00371+99999102281ADDMD1310241+9999OD159900881999REMSYN068ROBN4 46/// /2912 11037 40228 53024 90700 333 91217 555 11011 22012=
0108997743999992024011508004+40650-074067FM-13+007299999V0203001N006219999999N999999999-00401+99999102291ADDMD1110171+9999OD159900721999REMSYN068ROBN4 46/// /3012 11040 40229 51017 90800 333 91214 555 11011 22012=
0108997743999992024011509004+40650-074067FM-13+007299999V0203201N005119999999N999999999-00431+99999102291ADDMD1110111+9999OD159900721999REMSYN068ROBN4 46/// /3210 11043 40229 51011 90900 333 91214 555 11009 22010=
0108997743999992024011510004+40650-074067FM-13+007299999V0202701N006219999999N999999999-00431+99999102371ADDMD1310091+9999OD159900721999REMSYN068ROBN4 46/// /2712 11043 40237 53009 91000 333 91214 555 11011 22012=
0108997743999992024011511004+40650-074067FM-13+007299999V0203001N006219999999N999999999-00441+99999102411ADDMD1310121+9999OD159900721999REMSYN068ROBN4 46/// /3012 11044 40241 53012 91100 333 91214 555 11011 22012=
0108997743999992024011512004+40650-074067FM-13+007299999V0203001N006719999999N999999999-00441+99999102461ADDMD1110171+9999OD159900821999REMSYN068ROBN4 46/// /3013 11044 40246 51017 91200 333 91216 555 11012 22013=
0108997743999992024011513004+40650-074067FM-13+007299999V0202901N005719999999N999999999-00441+99999102471ADDMD1110101+9999OD159900721999REMSYN068ROBN4 46/// /2911 11044 40247 51010 91300 333 91214 555 11010 22011=
0108997743999992024011514004+40650-074067FM-13+007299999V0203001N005719999999N999999999-00441+99999102501ADDMD1110091+9999OD159900721999REMSYN068ROBN4 46/// /3011 11044 40250 51009 91400 333 91214 555 11010 22011=
0108997743999992024011515004+40650-074067FM-13+007299999V0202801N004619999999N999999999-00391+99999102581ADDMD1310121+9999OD159900621999REMSYN068ROBN4 46/// /2809 11039 40258 53012 91500 333 91212 555 11009 22009=
0108997743999992024011516004+40650-074067FM-13+007299999V0202501N004619999999N999999999-00381+99999102521ADDMD1990051+9999OD159900621999REMSYN068ROBN4 46/// /2509 11038 40252 50005 91600 333 91212 555 11008 22009=
0108997743999992024011517004+40650-074067FM-13+007299999V0202701N006219999999N999999999-00341+99999102471ADDMD1810031+9999OD159900931999REMSYN068ROBN4 46/// /2712 11034 40247 58003 91700 333 91218 555 11011 22012=
0108997743999992024011518004+40650-074067FM-13+007299999V0202701N004619999999N999999999-00321+99999102391ADDMD1810191+9999OD159900721999REMSYN068ROBN4 46/// /2709 11032 40239 58019 91800 333 91214 555 11008 22009=
0108997743999992024011519004+40650-074067FM-13+007299999V0202901N003619999999N999999999-00281+99999102331ADDMD1810191+9999OD159900511999REMSYN068ROBN4 46/// /2907 11028 40233 58019 91900 333 91210 555 11006 22007=
0108997743999992024011520004+40650-074067FM-13+007299999V0203001N002619999999N999999999-00261+99999102291ADDMD1610181+9999OD159900411999REMSYN068ROBN4 46/// /3005 11026 40229 56018 92000 333 91208 555 11004 22005=
0108997743999992024011521004+40650-074067FM-13+007299999V0202701N003119999999N999999999-00231+99999102331ADDMD1510061+9999OD159900461999REMSYN068ROBN4 46/// /2706 11023 40233 55006 92100 333 91209 555 11006 22006=
0108997743999992024011522004+40650-074067FM-13+007299999V0202301N004119999999N999999999-00231+99999102311ADDMD1510001+9999OD159900461999REMSYN068ROBN4 46/// /2308 11023 40231 55000 92200 333 91209 555 11007 22008=
0088997743999992024011523004+40650-074067FM-13+007299999V0202201N003619999999N999999999-00231+99999102301ADDOD159900461999REMSYN062ROBN4 46/// /2207 11023 40230 92242 333 91209 555 11007 22007=
0108997743999992024011600004+40650-074067FM-13+007299999V0202201N003619999999N999999999-00221+99999102271ADDMD1710061+9999OD159900461999REMSYN068ROBN4 46/// /2207 11022 40227 57006 90000 333 91209 555 11006 22007=
0108997743999992024011601004+40650-074067FM-13+007299999V0202501N004119999999N999999999+99999+99999102311ADDMD1410001+9999OD159900571999REMSYN068ROBN4 46/// /2508 1//// 40231 54000 90100 333 91211 555 11007 22008=
0088997743999992024011602004+40650-074067FM-13+007299999V0202201N004119999999N999999999-00311+99999102311ADDOD159900571999REMSYN062ROBN4 46/// /2208 11031 40231 90136 333 91211 555 11008 22008=
0108997743999992024011603004+40650-074067FM-13+007299999V0203001N003119999999N999999999-00391+99999102271ADDMD1990001+9999OD159900361999REMSYN068ROBN4 46/// /3006 11039 40227 50000 90300 333 91207 555 11006 22006=
0108997743999992024011604004+40650-074067FM-13+007299999V0203101N003119999999N999999999-00401+99999102251ADDMD1710061+9999OD159900411999REMSYN068ROBN4 46/// /3106 11040 40225 57006 90400 333 91208 555 11006 22006=
0108997743999992024011605004+40650-074067FM-13+007299999V0203301N002119999999N999999999-00431+99999102141ADDMD1810181+9999OD159900261999REMSYN068ROBN4 46/// /3304 11043 40214 58018 90500 333 91205 555 11004 22004=
0108997743999992024011606004+40650-074067FM-13+007299999V0203301N001519999999N999999999-00421+99999102031ADDMD1810241+9999OD159900211999REMSYN068ROBN4 46/// /3303 11042 40203 58024 90600 333 91204 555 11003 22003=
0088997743999992024011607004+40650-074067FM-13+007299999V0203501N002619999999N999999999-00381+99999101971ADDOD159900361999REMSYN062ROBN4 46/// /3505 11038 40197 90648 333 91207 555 11005 22005=
0108997743999992024011608004+40650-074067FM-13+007299999V0203601N003119999999N999999999-00361+99999101891ADDMD1610251+9999OD159900411999REMSYN068ROBN4 46/// /3606 11036 40189 56025 90800 333 91208 555 11005 22006=
0108997743999992024011609004+40650-074067FM-13+007299999V0200101N003619999999N999999999-00361+99999101771ADDMD1810261+9999OD159900411999REMSYN068ROBN4 46/// /0107 11036 40177 58026 90900 333 91208 555 11006 22007=
0108997743999992024011610004+40650-074067FM-13+007299999V0200501N004119999999N999999999-00281+99999101691ADDMD1810271+9999OD159900511999REMSYN068ROBN4 46/// /0508 11028 40169 58027 91000 333 91210 555 11007 22008=
0108997743999992024011611004+40650-074067FM-13+007299999V0200701N005719999999N999999999-00241+99999101561ADDMD1810331+9999OD159900621999REMSYN068ROBN4 46/// /0711 11024 40156 58033 91100 333 91212 555 11010 22010=
0108997743999992024011612004+40650-074067FM-13+007299999V0200501N005719999999N999999999-00201+99999101471ADDMD1810301+9999OD159900621999REMSYN068ROBN4 46/// /0511 11020 40147 58030 91200 333 91212 555 11010 22011=
0108997743999992024011613004+40650-074067FM-13+007299999V0200601N005119999999N999999999-00141+99999101311ADDMD1810381+9999OD159900671999REMSYN068ROBN4 46/// /0610 11014 40131 58038 91300 333 91213 555 11009 22010=
0108997743999992024011614004+40650-074067FM-13+007299999V0200301N004119999999N999999999-00131+99999101231ADDMD1610331+9999OD159900571999REMSYN068ROBN4 46/// /0308 11013 40123 56033 91400 333 91211 555 11008 22008=
0108997743999992024011615004+40650-074067FM-13+007299999V0200101N005119999999N999999999-00181+99999101071ADDMD1710401+9999OD159900571999REMSYN068ROBN4 46/// /0110 11018 40107 57040 91500 333 91211 555 11009 22010=
0108997743999992024011616004+40650-074067FM-13+007299999V0203601N002119999999N999999999-00151+99999100901ADDMD1810411+9999OD159900411999REMSYN068ROBN4 46/// /3604 11015 40090 58041 91600 333 91208 555 11004 22004=
0108997743999992024011617004+40650-074067FM-13+007299999V0203601N002119999999N999999999-00051+99999100641ADDMD1810591+9999OD159900261999REMSYN068ROBN4 46/// /3604 11005 40064 58059 91700 333 91205 555 11004 22004=
0108997743999992024011618004+40650-074067FM-13+007299999V0203501N001519999999N999999999-00031+99999100431ADDMD1810641+9999OD159900211999REMSYN068ROBN4 46/// /3503 11003 40043 58064 91800 333 91204 555 11003 22003=
0108997743999992024011619004+40650-074067FM-13+007299999V0203301N001019999999N999999999-00141+99999100551ADDMD1510351+9999OD159900151999REMSYN068ROBN4 46/// /3302 11014 40055 55035 91900 333 91203 555 11002 22002=
0108997743999992024011620004+40650-074067FM-13+007299999V0203201N001519999999N999999999-00221+99999100641ADDMD1510001+9999OD159900151999REMSYN068ROBN4 46/// /3203 11022 40064 55000 92000 333 91203 555 11003 22003=
0108997743999992024011621004+40650-074067FM-13+007299999V0203401N001019999999N999999999-00231+99999100661ADDMD1110231+9999OD159900101999REMSYN068ROBN4 46/// /3402 11023 40066 51023 92100 333 91202 555 11002 22002=
0108997743999992024011622004+40650-074067FM-13+007299999V0203301N001019999999N999999999-00191+99999100691ADDMD1110141+9999OD159900151999REMSYN068ROBN4 46/// /3302 11019 40069 51014 92200 333 91203 555 11002 22002=
0108997743999992024011623004+40650-074067FM-13+007299999V0203201N001519999999N999999999-00171+99999100791ADDMD1310151+9999OD159900151999REMSYN068ROBN4 46/// /3203 11017 40079 53015 92300 333 91203 555 11002 22003=
0108997743999992024011700004+40650-074067FM-13+007299999V0203201N001519999999N999999999-00191+99999100821ADDMD1210161+9999OD159900211999REMSYN068ROBN4 46/// /3203 11019 40082 52016 90000 333 91204 555 11003 22003=
0108997743999992024011701004+40650-074067FM-13+007299999V0203301N001519999999N999999999-00241+99999100871ADDMD1110181+9999OD159900211999REMSYN068ROBN4 46/// /3303 11024 40087 51018 90100 333 91204 555 11003 22003=
0108997743999992024011702004+40650-074067FM-13+007299999V0203201N002119999999N999999999-00331+99999100941ADDMD1310151+9999OD159900311999REMSYN068ROBN4 46/// /3204 11033 40094 53015 90200 333 91206 555 11004 22004=
0108997743999992024011703004+40650-074067FM-13+007299999V0203201N003119999999N999999999-00431+99999101041ADDMD1310221+9999OD159900411999REMSYN068ROBN4 46/// /3206 11043 40104 53022 90300 333 91208 555 11006 22006=
0108997743999992024011704004+40650-074067FM-13+007299999V0203201N002619999999N999999999-00471+99999101141ADDMD1310271+9999OD159900361999REMSYN068ROBN4 46/// /3205 11047 40114 53027 90400 333 91207 555 11005 22005=
0108997743999992024011705004+40650-074067FM-13+007299999V0203201N004619999999N999999999-00501+99999101211ADDMD1110271+9999OD159900571999REMSYN068ROBN4 46/// /3209 11050 40121 51027 90500 333 91211 555 11008 22009=
0108997743999992024011706004+40650-074067FM-13+007299999V0203101N006219999999N999999999-00541+99999101211ADDMD1110171+9999OD159900721999REMSYN068ROBN4 46/// /3112 11054 40121 51017 90600 333 91214 555 11011 22012=
0108997743999992024011707004+40650-074067FM-13+007299999V0203001N006219999999N999999999-00541+99999101251ADDMD1110111+9999OD159900771999REMSYN068ROBN4 46/// /3012 11054 40125 51011 90700 333 91215 555 11011 22012=
0108997743999992024011708004+40650-074067FM-13+007299999V0203101N006219999999N999999999-00581+99999101271ADDMD1210061+9999OD159900881999REMSYN068ROBN4 46/// /3112 11058 40127 52006 90800 333 91217 555 11011 22012=
0108997743999992024011709004+40650-074067FM-13+007299999V0203101N007719999999N999999999-00621+99999101281ADDMD1110071+9999OD159900931999REMSYN068ROBN4 46/// /3115 11062 40128 51007 90900 333 91218 555 11014 22015=
0108997743999992024011710004+40650-074067FM-13+007299999V0202901N007719999999N999999999-00671+99999101331ADDMD1310081+9999OD159900881999REMSYN068ROBN4 46/// /2915 11067 40133 53008 91000 333 91217 555 11014 22015=
0108997743999992024011711004+40650-074067FM-13+007299999V0202901N008819999999N999999999-00731+99999101431ADDMD1310161+9999OD159900981999REMSYN068ROBN4 46/// /2917 11073 40143 53016 91100 333 91219 555 11015 22017=
0108997743999992024011712004+40650-074067FM-13+007299999V0202901N008219999999N999999999-00771+99999101501ADDMD1310221+9999OD159900981999REMSYN068ROBN4 46/// /2916 11077 40150 53022 91200 333 91219 555 11015 22016=
0108997743999992024011713004+40650-074067FM-13+007299999V0202801N007719999999N999999999-00821+99999101561ADDMD1110231+9999OD159900931999REMSYN068ROBN4 46/// /2815 11082 40156 51023 91300 333 91218 555 11013 22015=
0108997743999992024011714004+40650-074067FM-13+007299999V0202801N009319999999N999999999-00831+99999101621ADDMD1110191+9999OD159901241999REMSYN068ROBN4 46/// /2818 11083 40162 51019 91400 333 91224 555 11016 22018=
0108997743999992024011715004+40650-074067FM-13+007299999V0203001N009819999999N999999999-00791+99999101661ADDMD1110161+9999OD159901181999REMSYN068ROBN4 46/// /3019 11079 40166 51016 91500 333 91223 555 11018 22019=
0108997743999992024011716004+40650-074067FM-13+007299999V0202801N011319999999N999999999-00741+99999101651ADDMD1110091+9999OD159901341999REMSYN068ROBN4 46/// /2822 11074 40165 51009 91600 333 91226 555 11020 22022=
0108997743999992024011717004+40650-074067FM-13+007299999V0202801N011319999999N999999999+99999+99999101611ADDMD1990001+9999OD159901291999REMSYN068ROBN4 46/// /2822 1//// 40161 50000 91700 333 91225 555 11020 22021=
0108997743999992024011718004+40650-074067FM-13+007299999V0202801N011319999999N999999999-00591+99999101541ADDMD1810121+9999OD159901441999REMSYN068ROBN4 46/// /2822 11059 40154 58012 91800 333 91228 555 11020 22022=
0108997743999992024011719004+40650-074067FM-13+007299999V0202701N010319999999N999999999-00521+99999101521ADDMD1610131+9999OD159901241999REMSYN068ROBN4 46/// /2720 11052 40152 56013 91900 333 91224 555 11018 22020=
0108997743999992024011720004+40650-074067FM-13+007299999V0202701N010819999999N999999999+99999+99999101541ADDMD1610071+9999OD159901241999REMSYN068ROBN4 46/// /2721 1//// 40154 56007 92000 333 91224 555 11020 22021=
0108997743999992024011721004+40650-074067FM-13+007299999V0202701N008219999999N999999999-00451+99999101621ADDMD1310081+9999OD159901131999REMSYN068ROBN4 46/// /2716 11045 40162 53008 92100 333 91222 555 11014 22015=
0108997743999992024011722004+40650-074067FM-13+007299999V0202601N007219999999N999999999-00441+99999101671ADDMD1310151+9999OD159901181999REMSYN068ROBN4 46/// /2614 11044 40167 53015 92200 333 91223 555 11013 22014=
0108997743999992024011723004+40650-074067FM-13+007299999V0202501N007719999999N999999999-00481+99999101781ADDMD1310241+9999OD159900981999REMSYN068ROBN4 46/// /2515 11048 40178 53024 92300 333 91219 555 11014 22015=
0108997743999992024011800004+40650-074067FM-13+007299999V0202601N008219999999N999999999-00481+99999101851ADDMD1310231+9999OD159901131999REMSYN068ROBN4 46/// /2616 11048 40185 53023 90000 333 91222 555 11015 22016=
0108997743999992024011801004+40650-074067FM-13+007299999V0202601N008819999999N999999999-00471+99999101871ADDMD1110201+9999OD159901181999REMSYN068ROBN4 46/// /2617 11047 40187 51020 90100 333 91223 555 11016 22017=
0108997743999992024011802004+40650-074067FM-13+007299999V0202601N009819999999N999999999-00491+99999101941ADDMD1210161+9999OD159901241999REMSYN068ROBN4 46/// /2619 11049 40194 52016 90200 333 91224 555 11018 22019=
0108997743999992024011803004+40650-074067FM-13+007299999V0202601N009319999999N999999999-00481+99999102031ADDMD1310181+9999OD159901131999REMSYN068ROBN4 46/// /2618 11048 40203 53018 90300 333 91222 555 11016 22018=
0108997743999992024011804004+40650-074067FM-13+007299999V0202601N007719999999N999999999-00441+99999102081ADDMD1110211+9999OD159900981999REMSYN068ROBN4 46/// /2615 11044 40208 51021 90400 333 91219 555 11014 22015=
0108997743999992024011805004+40650-074067FM-13+007299999V0202501N007219999999N999999999-00501+99999102091ADDMD1110151+9999OD159900881999REMSYN068ROBN4 46/// /2514 11050 40209 51015 90500 333 91217 555 11012 22014=
0108997743999992024011806004+40650-074067FM-13+007299999V0202601N006219999999N999999999-00491+99999102101ADDMD1110071+9999OD159900721999REMSYN068ROBN4 46/// /2612 11049 40210 51007 90600 333 91214 555 11011 22012=
0108997743999992024011807004+40650-074067FM-13+007299999V0202501N006219999999N999999999-00521+99999102171ADDMD1310091+9999OD159900821999REMSYN068ROBN4 46/// /2512 11052 40217 53009 90700 333 91216 555 11011 22012=
0108997743999992024011808004+40650-074067FM-13+007299999V0202501N006719999999N999999999-00501+99999102191ADDMD1210101+9999OD159900821999REMSYN068ROBN4 46/// /2513 11050 40219 52010 90800 333 91216 555 11012 22013=
0108997743999992024011809004+40650-074067FM-13+007299999V0202801N007719999999N999999999-00491+99999102171ADDMD1110071+9999OD159900981999REMSYN068ROBN4 46/// /2815 11049 40217 51007 90900 333 91219 555 11014 22015=
0108997743999992024011810004+40650-074067FM-13+007299999V0202701N006219999999N999999999-00491+99999102171ADDMD1410001+9999OD159900671999REMSYN068ROBN4 46/// /2712 11049 40217 54000 91000 333 91213 555 11011 22012=
0108997743999992024011811004+40650-074067FM-13+007299999V0202501N004119999999N999999999-00521+99999102171ADDMD1410001+9999OD159900621999REMSYN068ROBN4 46/// /2508 11052 40217 54000 91100 333 91212 555 11008 22008=
0108997743999992024011812004+40650-074067FM-13+007299999V0202401N003619999999N999999999-00491+99999102211ADDMD1310041+9999OD159900461999REMSYN068ROBN4 46/// /2407 11049 40221 53004 91200 333 91209 555 11006 22007=
0108997743999992024011813004+40650-074067FM-13+007299999V0202501N005119999999N999999999-00441+99999102241ADDMD1310071+9999OD159900571999REMSYN068ROBN4 46/// /2510 11044 40224 53007 91300 333 91211 555 11009 22010=
0108997743999992024011814004+40650-074067FM-13+007299999V0202601N006219999999N999999999-00391+99999102321ADDMD1310151+9999OD159900721999REMSYN068ROBN4 46/// /2612 11039 40232 53015 91400 333 91214 555 11011 22012=
0108997743999992024011815004+40650-074067FM-13+007299999V0202801N006219999999N999999999+99999+99999102301ADDMD1110091+9999OD159900721999REMSYN068ROBN4 46/// /2812 1//// 40230 51009 91500 333 91214 555 11011 22012=
0108997743999992024011816004+40650-074067FM-13+007299999V0202601N005719999999N999999999-00241+99999102281ADDMD1110041+9999OD159900621999REMSYN068ROBN4 46/// /2611 11024 40228 51004 91600 333 91212 555 11010 22011=
0108997743999992024011817004+40650-074067FM-13+007299999V0202801N006719999999N999999999-00211+99999102231ADDMD1810091+9999OD159900981999REMSYN068ROBN4 46/// /2813 11021 40223 58009 91700 333 91219 555 11012 22013=
0108997743999992024011818004+40650-074067FM-13+007299999V0202901N004119999999N999999999-00181+99999102061ADDMD1810241+9999OD159900511999REMSYN068ROBN4 46/// /2908 11018 40206 58024 91800 333 91210 555 11008 22008=
0108997743999992024011819004+40650-074067FM-13+007299999V0202501N005719999999N999999999-00081+99999101991ADDMD1810291+9999OD159900771999REMSYN068ROBN4 46/// /2511 11008 40199 58029 91900 333 91215 555 11010 22011=
0108997743999992024011820004+40650-074067FM-13+007299999V0202301N004119999999N999999999+00001+99999101891ADDMD1610341+9999OD159900621999REMSYN068ROBN4 46/// /2308 10000 40189 56034 92000 333 91212 555 11008 22008=
0108997743999992024011821004+40650-074067FM-13+007299999V0202001N003619999999N999999999+00021+99999101771ADDMD1810291+9999OD159900511999REMSYN068ROBN4 46/// /2007 10002 40177 58029 92100 333 91210 555 11007 22007=
0108997743999992024011822004+40650-074067FM-13+007299999V0202201N004119999999N999999999+00031+99999101821ADDMD1510171+9999OD159900511999REMSYN068ROBN4 46/// /2208 10003 40182 55017 92200 333 91210 555 11007 22008=
0108997743999992024011823004+40650-074067FM-13+007299999V0202601N002619999999N999999999+99999+99999101841ADDMD1610051+9999OD159900361999REMSYN068ROBN4 46/// /2605 1//// 40184 56005 92300 333 91207 555 11005 22005=
0108997743999992024011900004+40650-074067FM-13+007299999V0202401N003619999999N999999999+00021+99999101891ADDMD1210121+9999OD159900511999REMSYN068ROBN4 46/// /2407 10002 40189 52012 90000 333 91210 555 11007 22007=
0108997743999992024011901004+40650-074067FM-13+007299999V0202401N004119999999N999999999+00021+99999101901ADDMD1210081+9999OD159900511999REMSYN068ROBN4 46/// /2408 10002 40190 52008 90100 333 91210 555 11007 22008=
0108997743999992024011902004+40650-074067FM-13+007299999V0202501N003619999999N999999999+00031+99999101841ADDMD1990001+9999OD159900411999REMSYN068ROBN4 46/// /2507 10003 40184 50000 90200 333 91208 555 11006 22007=
0108997743999992024011903004+40650-074067FM-13+007299999V0202201N002619999999N999999999+00061+99999101711ADDMD1810181+9999OD159900361999REMSYN068ROBN4 46/// /2205 10006 40171 58018 90300 333 91207 555 11005 22005=
0108997743999992024011904004+40650-074067FM-13+007299999V0203201N002119999999N999999999+00031+99999101661ADDMD1610241+9999OD159900261999REMSYN068ROBN4 46/// /3204 10003 40166 56024 90400 333 91205 555 11003 22004=
0108997743999992024011905004+40650-074067FM-13+007299999V0203301N002119999999N999999999+00021+99999101611ADDMD1610231+9999OD159900311999REMSYN068ROBN4 46/// /3304 10002 40161 56023 90500 333 91206 555 11004 22004=
0108997743999992024011906004+40650-074067FM-13+007299999V0203501N002619999999N999999999+00011+99999101561ADDMD1710151+9999OD159900261999REMSYN068ROBN4 46/// /3505 10001 40156 57015 90600 333 91205 555 11004 22004=
0108997743999992024011907004+40650-074067FM-13+007299999V0203501N001519999999N999999999+00001+99999101471ADDMD1810191+9999OD159900211999REMSYN068ROBN4 46/// /3503 10000 40147 58019 90700 333 91204 555 11003 22003=
0108997743999992024011908004+40650-074067FM-13+007299999V0203601N002119999999N999999999+00011+99999101421ADDMD1710191+9999OD159900261999REMSYN068ROBN4 46/// /3604 10001 40142 57019 90800 333 91205 555 11004 22004=
0108997743999992024011909004+40650-074067FM-13+007299999V0201101N002619999999N999999999+00051+99999101321ADDMD1810241+9999OD159900311999REMSYN068ROBN4 46/// /1105 10005 40132 58024 90900 333 91206 555 11004 22005=
0108997743999992024011910004+40650-074067FM-13+007299999V0200601N004619999999N999999999+00031+99999101301ADDMD1610171+9999OD159900621999REMSYN068ROBN4 46/// /0609 10003 40130 56017 91000 333 91212 555 11008 22009=
0108997743999992024011911004+40650-074067FM-13+007299999V0200701N005119999999N999999999+00011+99999101241ADDMD1610181+9999OD159900621999REMSYN068ROBN4 46/// /0710 10001 40124 56018 91100 333 91212 555 11009 22010=
0108997743999992024011912004+40650-074067FM-13+007299999V0200701N006719999999N999999999-00011+99999101151ADDMD1810171+9999OD159900721999REMSYN068ROBN4 46/// /0713 11001 40115 58017 91200 333 91214 555 11012 22013=
0108997743999992024011913004+40650-074067FM-13+007299999V0200601N006219999999N999999999-00081+99999101101ADDMD1610201+9999OD159900771999REMSYN068ROBN4 46/// /0612 11008 40110 56020 91300 333 91215 555 11011 22011=
0108997743999992024011914004+40650-074067FM-13+007299999V0200801N004619999999N999999999-00091+99999101121ADDMD1610121+9999OD159900621999REMSYN068ROBN4 46/// /0809 11009 40112 56012 91400 333 91212 555 11009 22009=
0108997743999992024011915004+40650-074067FM-13+007299999V0200701N005719999999N999999999-00131+99999101051ADDMD1810101+9999OD159900721999REMSYN068ROBN4 46/// /0711 11013 40105 58010 91500 333 91214 555 11010 22011=
0108997743999992024011916004+40650-074067FM-13+007299999V0200601N007219999999N999999999-00151+99999100941ADDMD1810161+9999OD159900881999REMSYN068ROBN4 46/// /0614 11015 40094 58016 91600 333 91217 555 11013 22014=
0108997743999992024011917004+40650-074067FM-13+007299999V0200401N006219999999N999999999-00191+99999100801ADDMD1810321+9999OD159900671999REMSYN068ROBN4 46/// /0412 11019 40080 58032 91700 333 91213 555 11011 22012=
0108997743999992024011918004+40650-074067FM-13+007299999V0200201N005719999999N999999999-00191+99999100701ADDMD1610351+9999OD159900671999REMSYN068ROBN4 46/// /0211 11019 40070 56035 91800 333 91213 555 11010 22011=
0108997743999992024011919004+40650-074067FM-13+007299999V0203601N006219999999N999999999-00221+99999100681ADDMD1610261+9999OD159900771999REMSYN068ROBN4 46/// /3612 11022 40068 56026 91900 333 91215 555 11011 22012=
0108997743999992024011920004+40650-074067FM-13+007299999V0200101N007719999999N999999999-00211+99999100681ADDMD1610121+9999OD159900881999REMSYN068ROBN4 46/// /0115 11021 40068 56012 92000 333 91217 555 11014 22015=
0108997743999992024011921004+40650-074067FM-13+007299999V0203601N006719999999N999999999-00191+99999100731ADDMD1310031+9999OD159900771999REMSYN068ROBN4 46/// /3613 11019 40073 53003 92100 333 91215 555 11012 22013=
0108997743999992024011922004+40650-074067FM-13+007299999V0203501N007219999999N999999999-00231+99999100821ADDMD1310141+9999OD159900931999REMSYN068ROBN4 46/// /3514 11023 40082 53014 92200 333 91218 555 11013 22014=
0108997743999992024011923004+40650-074067FM-13+007299999V0203601N005119999999N999999999-00201+99999100931ADDMD1310251+9999OD159900881999REMSYN068ROBN4 46/// /3610 11020 40093 53025 92300 333 91217 555 11009 22010=
0108997743999992024012000004+40650-074067FM-13+007299999V0203501N006219999999N999999999-00251+99999100991ADDMD1110261+9999OD159900821999REMSYN068ROBN4 46/// /3512 11025 40099 51026 90000 333 91216 555 11011 22012=
0108997743999992024012001004+40650-074067FM-13+007299999V0203401N004619999999N999999999-00301+99999101021ADDMD1110201+9999OD159900621999REMSYN068ROBN4 46/// /3409 11030 40102 51020 90100 333 91212 555 11009 22009=
0108997743999992024012002004+40650-074067FM-13+007299999V0203101N004619999999N999999999-00291+99999101071ADDMD1110141+9999OD159900571999REMSYN068ROBN4 46/// /3109 11029 40107 51014 90200 333 91211 555 11009 22009=
0108997743999992024012003004+40650-074067FM-13+007299999V0203101N007219999999N999999999-00251+99999101081ADDMD1110091+9999OD159900881999REMSYN068ROBN4 46/// /3114 11025 40108 51009 90300 333 91217 555 11012 22014=
0108997743999992024012004004+40650-074067FM-13+007299999V0203201N009819999999N999999999-00261+99999101131ADDMD1210111+9999OD159901131999REMSYN068ROBN4 46/// /3219 11026 40113 52011 90400 333 91222 555 11017 22019=
0108997743999992024012005004+40650-074067FM-13+007299999V0203101N009819999999N999999999-00301+99999101161ADDMD1310091+9999OD159901131999REMSYN068ROBN4 46/// /3119 11030 40116 53009 90500 333 91222 555 11017 22018=
0108997743999992024012006004+40650-074067FM-13+007299999V0203301N010819999999N999999999-00401+99999101221ADDMD1310141+9999OD159901541999REMSYN068ROBN4 46/// /3321 11040 40122 53014 90600 333 91230 555 11019 22021=
0108997743999992024012007004+40650-074067FM-13+007299999V0203201N007719999999N999999999-00481+99999101291ADDMD1310161+9999OD159900931999REMSYN068ROBN4 46/// /3215 11048 40129 53016 90700 333 91218 555 11014 22015=
0108997743999992024012008004+40650-074067FM-13+007299999V0203201N008819999999N999999999+99999+99999101321ADDMD1110161+9999OD159901241999REMSYN068ROBN4 46/// /3217 1//// 40132 51016 90800 333 91224 555 11016 22017=
0108997743999992024012009004+40650-074067FM-13+007299999V0203201N009319999999N999999999+99999+99999101351ADDMD1110131+9999OD159901081999REMSYN068ROBN4 46/// /3218 1//// 40135 51013 90900 333 91221 555 11017 22018=
0108997743999992024012010004+40650-074067FM-13+007299999V0203101N007719999999N999999999+99999+99999101401ADDMD1310111+9999OD159901031999REMSYN068ROBN4 46/// /3115 1//// 40140 53011 91000 333 91220 555 11014 22015=
0108997743999992024012011004+40650-074067FM-13+007299999V0203201N009319999999N999999999+99999+99999101471ADDMD1310151+9999OD159901081999REMSYN068ROBN4 46/// /3218 1//// 40147 53015 91100 333 91221 555 11016 22018=
0088997743999992024012012004+40650-074067FM-13+007299999V0203201N008819999999N999999999-00731+99999101511ADDOD159901131999REMSYN062ROBN4 46/// /3217 11073 40151 91142 333 91222 555 11016 22017=
