0108997743999992025010100004+40650-074067FM-13+007299999V0201001N008819999999N999999999+00931+99999100561ADDMD1810361+9999OD159900981999REMSYN068ROBN4 46/// /1017 10093 40056 58036 90000 333 91219 555 11015 22016=
0108997743999992025010101004+40650-074067FM-13+007299999V0200701N005719999999N999999999+00961+99999100411ADDMD1810461+9999OD159900621999REMSYN068ROBN4 46/// /0711 10096 40041 58046 90100 333 91212 555 11010 22011=
0108997743999992025010102004+40650-074067FM-13+007299999V0200801N007719999999N999999999+00941+99999100211ADDMD1610581+9999OD159901081999REMSYN068ROBN4 46/// /0815 10094 40021 56058 90200 333 91221 555 11014 22015=
0108997743999992025010103004+40650-074067FM-13+007299999V0200201N003119999999N999999999+00791+99999100141ADDMD1610421+9999OD159900461999REMSYN068ROBN4 46/// /0206 10079 40014 56042 90300 333 91209 555 11005 22006=
0108997743999992025010104004+40650-074067FM-13+007299999V0200801N005719999999N999999999+00861+99999099911ADDMD1810501+9999OD159900721999REMSYN068ROBN4 46/// /0811 10086 49991 58050 90400 333 91214 555 11010 22011=
0108997743999992025010105004+40650-074067FM-13+007299999V0200901N005719999999N999999999+00881+99999099821ADDMD1810391+9999OD159900721999REMSYN068ROBN4 46/// /0911 10088 49982 58039 90500 333 91214 555 11010 22011=
0108997743999992025010106004+40650-074067FM-13+007299999V0201301N002619999999N999999999+00951+99999099771ADDMD1610371+9999OD159900311999REMSYN068ROBN4 46/// /1305 10095 49977 56037 90600 333 91206 555 11005 22005=
0108997743999992025010107004+40650-074067FM-13+007299999V0209999C000019999999N999999999+00891+99999099801ADDMD1510111+9999OD159900051999REMSYN068ROBN4 46/// /0000 10089 49980 55011 90700 333 91201 555 11000 22000=
0108997743999992025010108004+40650-074067FM-13+007299999V0201701N003619999999N999999999+00861+99999099851ADDMD1310031+9999OD159900461999REMSYN068ROBN4 46/// /1707 10086 49985 53003 90800 333 91209 555 11007 22007=
0108997743999992025010109004+40650-074067FM-13+007299999V0202601N005119999999N999999999+00841+99999099821ADDMD1990051+9999OD159900621999REMSYN068ROBN4 46/// /2610 10084 49982 50005 90900 333 91212 555 11009 22010=
0108997743999992025010110004+40650-074067FM-13+007299999V0202801N004619999999N999999999+00831+99999099851ADDMD1110051+9999OD159900571999REMSYN068ROBN4 46/// /2809 10083 49985 51005 91000 333 91211 555 11009 22009=
0108997743999992025010111004+40650-074067FM-13+007299999V0202701N005119999999N999999999+00801+99999099881ADDMD1310031+9999OD159900621999REMSYN068ROBN4 46/// /2710 10080 49988 53003 91100 333 91212 555 11009 22010=
0108997743999992025010112004+40650-074067FM-13+007299999V0202701N006219999999N999999999+00791+99999099881ADDMD1110061+9999OD159900771999REMSYN068ROBN4 46/// /2712 10079 49988 51006 91200 333 91215 555 11011 22012=
0108997743999992025010113004+40650-074067FM-13+007299999V0202701N006719999999N999999999+00791+99999099891ADDMD1110041+9999OD159900771999REMSYN068ROBN4 46/// /2713 10079 49989 51004 91300 333 91215 555 11012 22013=
0108997743999992025010114004+40650-074067FM-13+007299999V0202601N009319999999N999999999+00811+99999099951ADDMD1310071+9999OD159901031999REMSYN068ROBN4 46/// /2618 10081 49995 53007 91400 333 91220 555 11017 22018=
0108997743999992025010115004+40650-074067FM-13+007299999V0202701N007219999999N999999999+00871+99999100021ADDMD1310141+9999OD159900931999REMSYN068ROBN4 46/// /2714 10087 40002 53014 91500 333 91218 555 11013 22014=
0108997743999992025010116004+40650-074067FM-13+007299999V0202801N009319999999N999999999+00961+99999100021ADDMD1110131+9999OD159901081999REMSYN068ROBN4 46/// /2818 10096 40002 51013 91600 333 91221 555 11016 22017=
0108997743999992025010117004+40650-074067FM-13+007299999V0202801N009819999999N999999999+00911+99999099971ADDMD1990001+9999OD159901291999REMSYN068ROBN4 46/// /2819 10091 49997 50000 91700 333 91225 555 11017 22018=
0108997743999992025010118004+40650-074067FM-13+007299999V0202801N012919999999N999999999+00831+99999100001ADDMD1510001+9999OD159901601999REMSYN068ROBN4 46/// /2825 10083 40000 55000 91800 333 91231 555 11023 22025=
0108997743999992025010119004+40650-074067FM-13+007299999V0202801N013919999999N999999999+00741+99999100061ADDMD1310041+9999OD159901751999REMSYN068ROBN4 46/// /2827 10074 40006 53004 91900 333 91234 555 11025 22027=
0108997743999992025010120004+40650-074067FM-13+007299999V0203001N011819999999N999999999+00751+99999100171ADDMD1310201+9999OD159901601999REMSYN068ROBN4 46/// /3023 10075 40017 53020 92000 333 91231 555 11021 22023=
0108997743999992025010121004+40650-074067FM-13+007299999V0202901N012419999999N999999999+00711+99999100351ADDMD1310351+9999OD159901751999REMSYN068ROBN4 46/// /2924 10071 40035 53035 92100 333 91234 555 11022 22024=
0108997743999992025010122004+40650-074067FM-13+007299999V0202901N012919999999N999999999+00661+99999100411ADDMD1110351+9999OD159901751999REMSYN068ROBN4 46/// /2925 10066 40041 51035 92200 333 91234 555 11023 22025=
0108997743999992025010123004+40650-074067FM-13+007299999V0203001N014419999999N999999999+00651+99999100471ADDMD1110301+9999OD159901801999REMSYN068ROBN4 46/// /3028 10065 40047 51030 92300 333 91235 555 11026 22028=
0108997743999992025010200004+40650-074067FM-13+007299999V0202901N010819999999N999999999+00631+99999100541ADDMD1310191+9999OD159901341999REMSYN068ROBN4 46/// /2921 10063 40054 53019 90000 333 91226 555 11019 22021=
0108997743999992025010201004+40650-074067FM-13+007299999V0202901N012419999999N999999999+00641+99999100641ADDMD1310231+9999OD159901491999REMSYN068ROBN4 46/// /2924 10064 40064 53023 90100 333 91229 555 11022 22024=
0108997743999992025010202004+40650-074067FM-13+007299999V0203101N010819999999N999999999+00581+99999100721ADDMD1310251+9999OD159901491999REMSYN068ROBN4 46/// /3121 10058 40072 53025 90200 333 91229 555 11019 22021=
0108997743999992025010203004+40650-074067FM-13+007299999V0203001N010319999999N999999999+00551+99999100781ADDMD1110241+9999OD159901241999REMSYN068ROBN4 46/// /3020 10055 40078 51024 90300 333 91224 555 11018 22020=
0108997743999992025010204004+40650-074067FM-13+007299999V0202801N010319999999N999999999+00491+99999100821ADDMD1110181+9999OD159901241999REMSYN068ROBN4 46/// /2820 10049 40082 51018 90400 333 91224 555 11018 22020=
0108997743999992025010205004+40650-074067FM-13+007299999V0202801N009319999999N999999999+00431+99999100841ADDMD1110121+9999OD159901241999REMSYN068ROBN4 46/// /2818 10043 40084 51012 90500 333 91224 555 11016 22018=
0108997743999992025010206004+40650-074067FM-13+007299999V0202801N009819999999N999999999+00411+99999100891ADDMD1310111+9999OD159901241999REMSYN068ROBN4 46/// /2819 10041 40089 53011 90600 333 91224 555 11017 22019=
0108997743999992025010207004+40650-074067FM-13+007299999V0202701N010319999999N999999999+00411+99999100951ADDMD1310131+9999OD159901291999REMSYN068ROBN4 46/// /2720 10041 40095 53013 90700 333 91225 555 11019 22020=
0108997743999992025010208004+40650-074067FM-13+007299999V0202701N010819999999N999999999+00431+99999101031ADDMD1310191+9999OD159901441999REMSYN068ROBN4 46/// /2721 10043 40103 53019 90800 333 91228 555 11019 22021=
0108997743999992025010209004+40650-074067FM-13+007299999V0202801N010819999999N999999999+00421+99999101041ADDMD1110151+9999OD159901291999REMSYN068ROBN4 46/// /2821 10042 40104 51015 90900 333 91225 555 11019 22021=
0108997743999992025010210004+40650-074067FM-13+007299999V0202701N013919999999N999999999+00381+99999101071ADDMD1110121+9999OD159901651999REMSYN068ROBN4 46/// /2727 10038 40107 51012 91000 333 91232 555 11024 22027=
0108997743999992025010211004+40650-074067FM-13+007299999V0202701N012419999999N999999999+00331+99999101161ADDMD1310131+9999OD159901601999REMSYN068ROBN4 46/// /2724 10033 40116 53013 91100 333 91231 555 11022 22024=
0108997743999992025010212004+40650-074067FM-13+007299999V0202701N010819999999N999999999+00301+99999101181ADDMD1110141+9999OD159901441999REMSYN068ROBN4 46/// /2721 10030 40118 51014 91200 333 91228 555 11019 22021=
0108997743999992025010213004+40650-074067FM-13+007299999V0202801N010819999999N999999999+00311+99999101241ADDMD1110171+9999OD159901491999REMSYN068ROBN4 46/// /2821 10031 40124 51017 91300 333 91229 555 11019 22021=
0108997743999992025010214004+40650-074067FM-13+007299999V0202801N010819999999N999999999+00331+99999101361ADDMD1310201+9999OD159901541999REMSYN068ROBN4 46/// /2821 10033 40136 53020 91400 333 91230 555 11019 22021=
0108997743999992025010215004+40650-074067FM-13+007299999V0202901N010819999999N999999999+00421+99999101431ADDMD1310251+9999OD159901491999REMSYN068ROBN4 46/// /2921 10042 40143 53025 91500 333 91229 555 11020 22021=
0108997743999992025010216004+40650-074067FM-13+007299999V0202901N011319999999N999999999+00461+99999101411ADDMD1110171+9999OD159901441999REMSYN068ROBN4 46/// /2922 10046 40141 51017 91600 333 91228 555 11020 22021=
0108997743999992025010217004+40650-074067FM-13+007299999V0202901N012919999999N999999999+00501+99999101301ADDMD1810061+9999OD159901751999REMSYN068ROBN4 46/// /2925 10050 40130 58006 91700 333 91234 555 11023 22025=
0108997743999992025010218004+40650-074067FM-13+007299999V0203001N016019999999N999999999+00501+99999101271ADDMD1810161+9999OD159901801999REMSYN068ROBN4 46/// /3031 10050 40127 58016 91800 333 91235 555 11028 22031=
0108997743999992025010219004+40650-074067FM-13+007299999V0202801N013419999999N999999999+00491+99999101281ADDMD1610131+9999OD159901851999REMSYN068ROBN4 46/// /2826 10049 40128 56013 91900 333 91236 555 11024 22026=
0108997743999992025010220004+40650-074067FM-13+007299999V0202701N014919999999N999999999+00441+99999101321ADDMD1510001+9999OD159901851999REMSYN068ROBN4 46/// /2729 10044 40132 55000 92000 333 91236 555 11026 22029=
0108997743999992025010221004+40650-074067FM-13+007299999V0202701N013919999999N999999999+00401+99999101411ADDMD1310141+9999OD159901601999REMSYN068ROBN4 46/// /2727 10040 40141 53014 92100 333 91231 555 11025 22027=
0108997743999992025010222004+40650-074067FM-13+007299999V0202801N010819999999N999999999+00351+99999101451ADDMD1210171+9999OD159901541999REMSYN068ROBN4 46/// /2821 10035 40145 52017 92200 333 91230 555 11019 22021=
0108997743999992025010223004+40650-074067FM-13+007299999V0202801N013919999999N999999999+00311+99999101461ADDMD1110141+9999OD159901651999REMSYN068ROBN4 46/// /2827 10031 40146 51014 92300 333 91232 555 11025 22027=
0108997743999992025010300004+40650-074067FM-13+007299999V0202801N014419999999N999999999+00291+99999101481ADDMD1110071+9999OD159901851999REMSYN068ROBN4 46/// /2828 10029 40148 51007 90000 333 91236 555 11026 22028=
0108997743999992025010301004+40650-074067FM-13+007299999V0202801N012419999999N999999999+00241+99999101531ADDMD1310081+9999OD159901441999REMSYN068ROBN4 46/// /2824 10024 40153 53008 90100 333 91228 555 11022 22024=
0108997743999992025010302004+40650-074067FM-13+007299999V0202801N011319999999N999999999+00181+99999101501ADDMD1990041+9999OD159901601999REMSYN068ROBN4 46/// /2822 10018 40150 50004 90200 333 91231 555 11020 22022=
0108997743999992025010303004+40650-074067FM-13+007299999V0202701N011319999999N999999999+00161+99999101511ADDMD1110031+9999OD159901391999REMSYN068ROBN4 46/// /2722 10016 40151 51003 90300 333 91227 555 11020 22022=
0108997743999992025010304004+40650-074067FM-13+007299999V0202701N009819999999N999999999+00141+99999101491ADDMD1610041+9999OD159901341999REMSYN068ROBN4 46/// /2719 10014 40149 56004 90400 333 91226 555 11017 22019=
0108997743999992025010305004+40650-074067FM-13+007299999V0202801N010819999999N999999999+00131+99999101501ADDMD1410001+9999OD159901391999REMSYN068ROBN4 46/// /2821 10013 40150 54000 90500 333 91227 555 11019 22021=
0108997743999992025010306004+40650-074067FM-13+007299999V0202901N010319999999N999999999+00111+99999101481ADDMD1710031+9999OD159901181999REMSYN068ROBN4 46/// /2920 10011 40148 57003 90600 333 91223 555 11018 22020=
0108997743999992025010307004+40650-074067FM-13+007299999V0202901N007219999999N999999999+00101+99999101521ADDMD1310031+9999OD159900981999REMSYN068ROBN4 46/// /2914 10010 40152 53003 90700 333 91219 555 11013 22014=
0108997743999992025010308004+40650-074067FM-13+007299999V0202801N008219999999N999999999+00101+99999101531ADDMD1210031+9999OD159901181999REMSYN068ROBN4 46/// /2816 10010 40153 52003 90800 333 91223 555 11015 22016=
0108997743999992025010309004+40650-074067FM-13+007299999V0202901N009319999999N999999999+00121+99999101541ADDMD1110061+9999OD159901131999REMSYN068ROBN4 46/// /2918 10012 40154 51006 90900 333 91222 555 11016 22017=
0108997743999992025010310004+40650-074067FM-13+007299999V0202801N010319999999N999999999+00101+99999101501ADDMD1990001+9999OD159901181999REMSYN068ROBN4 46/// /2820 10010 40150 50000 91000 333 91223 555 11018 22020=
0108997743999992025010311004+40650-074067FM-13+007299999V0202801N009319999999N999999999+00091+99999101481ADDMD1710051+9999OD159901081999REMSYN068ROBN4 46/// /2818 10009 40148 57005 91100 333 91221 555 11016 22017=
0108997743999992025010312004+40650-074067FM-13+007299999V0202701N008819999999N999999999+00101+99999101471ADDMD1610071+9999OD159901031999REMSYN068ROBN4 46/// /2717 10010 40147 56007 91200 333 91220 555 11015 22016=
0108997743999992025010313004+40650-074067FM-13+007299999V0202601N006219999999N999999999+00091+99999101431ADDMD1810071+9999OD159900771999REMSYN068ROBN4 46/// /2612 10009 40143 58007 91300 333 91215 555 11011 22012=
0108997743999992025010314004+40650-074067FM-13+007299999V0202601N008819999999N999999999+00091+99999101411ADDMD1710071+9999OD159901081999REMSYN068ROBN4 46/// /2617 10009 40141 57007 91400 333 91221 555 11015 22016=
0108997743999992025010315004+40650-074067FM-13+007299999V0202801N009819999999N999999999+00141+99999101371ADDMD1710101+9999OD159901181999REMSYN068ROBN4 46/// /2819 10014 40137 57010 91500 333 91223 555 11017 22019=
0108997743999992025010316004+40650-074067FM-13+007299999V0202801N009319999999N999999999+00171+99999101261ADDMD1810171+9999OD159901081999REMSYN068ROBN4 46/// /2818 10017 40126 58017 91600 333 91221 555 11017 22018=
0108997743999992025010317004+40650-074067FM-13+007299999V0202701N008819999999N999999999+00231+99999101101ADDMD1810311+9999OD159901031999REMSYN068ROBN4 46/// /2717 10023 40110 58031 91700 333 91220 555 11015 22017=
0108997743999992025010318004+40650-074067FM-13+007299999V0202901N007719999999N999999999+00241+99999100961ADDMD1810411+9999OD159901081999REMSYN068ROBN4 46/// /2915 10024 40096 58041 91800 333 91221 555 11014 22015=
0108997743999992025010319004+40650-074067FM-13+007299999V0202801N009319999999N999999999+00241+99999100901ADDMD1610361+9999OD159901131999REMSYN068ROBN4 46/// /2818 10024 40090 56036 91900 333 91222 555 11016 22018=
0108997743999992025010320004+40650-074067FM-13+007299999V0202801N007719999999N999999999+00281+99999100881ADDMD1610221+9999OD159900931999REMSYN068ROBN4 46/// /2815 10028 40088 56022 92000 333 91218 555 11014 22015=
0108997743999992025010321004+40650-074067FM-13+007299999V0202501N008219999999N999999999+00271+99999100901ADDMD1610061+9999OD159900981999REMSYN068ROBN4 46/// /2516 10027 40090 56006 92100 333 91219 555 11015 22016=
0108997743999992025010322004+40650-074067FM-13+007299999V0202901N008819999999N999999999+00201+99999100911ADDMD1410001+9999OD159901031999REMSYN068ROBN4 46/// /2917 10020 40091 54000 92200 333 91220 555 11016 22017=
0108997743999992025010323004+40650-074067FM-13+007299999V0202801N008819999999N999999999+00131+99999100941ADDMD1310061+9999OD159900981999REMSYN068ROBN4 46/// /2817 10013 40094 53006 92300 333 91219 555 11015 22016=
0108997743999992025010400004+40650-074067FM-13+007299999V0202801N007219999999N999999999+00051+99999100911ADDMD1990001+9999OD159900881999REMSYN068ROBN4 46/// /2814 10005 40091 50000 90000 333 91217 555 11013 22014=
0108997743999992025010401004+40650-074067FM-13+007299999V0202801N006719999999N999999999+00031+99999100881ADDMD1810031+9999OD159900771999REMSYN068ROBN4 46/// /2813 10003 40088 58003 90100 333 91215 555 11012 22013=
0108997743999992025010402004+40650-074067FM-13+007299999V0202901N006719999999N999999999+00011+99999100871ADDMD1610071+9999OD159900821999REMSYN068ROBN4 46/// /2913 10001 40087 56007 90200 333 91216 555 11012 22013=
0108997743999992025010403004+40650-074067FM-13+007299999V0202801N006719999999N999999999+00001+99999100851ADDMD1610061+9999OD159900881999REMSYN068ROBN4 46/// /2813 10000 40085 56006 90300 333 91217 555 11012 22013=
0108997743999992025010404004+40650-074067FM-13+007299999V0202901N007719999999N999999999-00031+99999100831ADDMD1710051+9999OD159900931999REMSYN068ROBN4 46/// /2915 11003 40083 57005 90400 333 91218 555 11013 22015=
0108997743999992025010405004+40650-074067FM-13+007299999V0203101N009319999999N999999999-00021+99999100781ADDMD1810091+9999OD159901081999REMSYN068ROBN4 46/// /3118 11002 40078 58009 90500 333 91221 555 11016 22018=
0108997743999992025010406004+40650-074067FM-13+007299999V0203101N008819999999N999999999-00051+99999100801ADDMD1710051+9999OD159901241999REMSYN068ROBN4 46/// /3117 11005 40080 57005 90600 333 91224 555 11015 22017=
0108997743999992025010407004+40650-074067FM-13+007299999V0203001N008219999999N999999999-00041+99999100811ADDMD1510001+9999OD159900981999REMSYN068ROBN4 46/// /3016 11004 40081 55000 90700 333 91219 555 11014 22015=
0108997743999992025010408004+40650-074067FM-13+007299999V0202901N007219999999N999999999-00051+99999100851ADDMD1310071+9999OD159900821999REMSYN068ROBN4 46/// /2914 11005 40085 53007 90800 333 91216 555 11012 22014=
0108997743999992025010409004+40650-074067FM-13+007299999V0203101N012419999999N999999999-00041+99999100861ADDMD1210061+9999OD159901541999REMSYN068ROBN4 46/// /3124 11004 40086 52006 90900 333 91230 555 11022 22024=
0108997743999992025010410004+40650-074067FM-13+007299999V0203101N010319999999N999999999-00091+99999100961ADDMD1310151+9999OD159901291999REMSYN068ROBN4 46/// /3120 11009 40096 53015 91000 333 91225 555 11019 22020=
0108997743999992025010411004+40650-074067FM-13+007299999V0203101N007219999999N999999999-00081+99999101031ADDMD1310181+9999OD159901081999REMSYN068ROBN4 46/// /3114 11008 40103 53018 91100 333 91221 555 11013 22014=
0108997743999992025010412004+40650-074067FM-13+007299999V0203101N009819999999N999999999-00051+99999101071ADDMD1110211+9999OD159901291999REMSYN068ROBN4 46/// /3119 11005 40107 51021 91200 333 91225 555 11017 22019=
0108997743999992025010413004+40650-074067FM-13+007299999V0203101N010819999999N999999999-00031+99999101101ADDMD1110141+9999OD159901961999REMSYN068ROBN4 46/// /3121 11003 40110 51014 91300 333 91238 555 11019 22021=
0108997743999992025010414004+40650-074067FM-13+007299999V0203001N010319999999N999999999-00011+99999101151ADDMD1310121+9999OD159901291999REMSYN068ROBN4 46/// /3020 11001 40115 53012 91400 333 91225 555 11019 22020=
0108997743999992025010415004+40650-074067FM-13+007299999V0203201N012419999999N999999999+99999+99999101201ADDMD1310131+9999OD159901701999REMSYN068ROBN4 46/// /3224 1//// 40120 53013 91500 333 91233 555 11022 22024=
0108997743999992025010416004+40650-074067FM-13+007299999V0203201N013919999999N999999999-00041+99999101171ADDMD1990071+9999OD159901701999REMSYN068ROBN4 46/// /3227 11004 40117 50007 91600 333 91233 555 11025 22027=
0108997743999992025010417004+40650-074067FM-13+007299999V0203101N013419999999N999999999+00001+99999101121ADDMD1810031+9999OD159901701999REMSYN068ROBN4 46/// /3126 10000 40112 58003 91700 333 91233 555 11024 22026=
0108997743999992025010418004+40650-074067FM-13+007299999V0203001N014419999999N999999999-00021+99999101051ADDMD1810151+9999OD159901701999REMSYN068ROBN4 46/// /3028 11002 40105 58015 91800 333 91233 555 11025 22027=
0108997743999992025010419004+40650-074067FM-13+007299999V0203101N013419999999N999999999+99999+99999101081ADDMD1510091+9999OD159901541999REMSYN068ROBN4 46/// /3126 1//// 40108 55009 91900 333 91230 555 11024 22026=
0108997743999992025010420004+40650-074067FM-13+007299999V0203001N014419999999N999999999+99999+99999101151ADDMD1310031+9999OD159901751999REMSYN068ROBN4 46/// /3028 1//// 40115 53003 92000 333 91234 555 11026 22028=
0108997743999992025010421004+40650-074067FM-13+007299999V0203101N009819999999N999999999-00021+99999101251ADDMD1310201+9999OD159901341999REMSYN068ROBN4 46/// /3119 11002 40125 53020 92100 333 91226 555 11018 22019=
0108997743999992025010422004+40650-074067FM-13+007299999V0203001N011819999999N999999999-00031+99999101331ADDMD1310251+9999OD159901601999REMSYN068ROBN4 46/// /3023 11003 40133 53025 92200 333 91231 555 11021 22022=
0108997743999992025010423004+40650-074067FM-13+007299999V0203001N009319999999N999999999-00031+99999101381ADDMD1110231+9999OD159901131999REMSYN068ROBN4 46/// /3018 11003 40138 51023 92300 333 91222 555 11016 22018=
0108997743999992025010500004+40650-074067FM-13+007299999V0202901N008819999999N999999999+99999+99999101401ADDMD1110151+9999OD159901241999REMSYN068ROBN4 46/// /2917 1//// 40140 51015 90000 333 91224 555 11016 22017=
0108997743999992025010501004+40650-074067FM-13+007299999V0202901N011319999999N999999999-00091+99999101411ADDMD1110081+9999OD159901341999REMSYN068ROBN4 46/// /2922 11009 40141 51008 90100 333 91226 555 11020 22022=
0108997743999992025010502004+40650-074067FM-13+007299999V0202901N010319999999N999999999-00131+99999101441ADDMD1310061+9999OD159901391999REMSYN068ROBN4 46/// /2920 11013 40144 53006 90200 333 91227 555 11019 22020=
0108997743999992025010503004+40650-074067FM-13+007299999V0202801N009319999999N999999999-00151+99999101511ADDMD1310111+9999OD159901181999REMSYN068ROBN4 46/// /2818 11015 40151 53011 90300 333 91223 555 11017 22018=
0108997743999992025010504004+40650-074067FM-13+007299999V0202701N009819999999N999999999-00191+99999101551ADDMD1310141+9999OD159901131999REMSYN068ROBN4 46/// /2719 11019 40155 53014 90400 333 91222 555 11017 22018=
0108997743999992025010505004+40650-074067FM-13+007299999V0202801N008219999999N999999999-00201+99999101561ADDMD1110121+9999OD159901031999REMSYN068ROBN4 46/// /2816 11020 40156 51012 90500 333 91220 555 11015 22016=
0108997743999992025010506004+40650-074067FM-13+007299999V0202801N009819999999N999999999-00211+99999101571ADDMD1110061+9999OD159901131999REMSYN068ROBN4 46/// /2819 11021 40157 51006 90600 333 91222 555 11017 22019=
0108997743999992025010507004+40650-074067FM-13+007299999V0202801N007719999999N999999999-00201+99999101601ADDMD1310051+9999OD159901081999REMSYN068ROBN4 46/// /2815 11020 40160 53005 90700 333 91221 555 11014 22015=
0108997743999992025010508004+40650-074067FM-13+007299999V0202801N009819999999N999999999-00201+99999101591ADDMD1210031+9999OD159901131999REMSYN068ROBN4 46/// /2819 11020 40159 52003 90800 333 91222 555 11017 22019=
0108997743999992025010509004+40650-074067FM-13+007299999V0202801N009319999999N999999999-00211+99999101581ADDMD1990001+9999OD159901031999REMSYN068ROBN4 46/// /2818 11021 40158 50000 90900 333 91220 555 11017 22018=
0108997743999992025010510004+40650-074067FM-13+007299999V0202801N008819999999N999999999-00201+99999101601ADDMD1410001+9999OD159901131999REMSYN068ROBN4 46/// /2817 11020 40160 54000 91000 333 91222 555 11015 22016=
0108997743999992025010511004+40650-074067FM-13+007299999V0202801N008819999999N999999999-00231+99999101641ADDMD1310051+9999OD159901081999REMSYN068ROBN4 46/// /2817 11023 40164 53005 91100 333 91221 555 11015 22016=
0108997743999992025010512004+40650-074067FM-13+007299999V0202801N008819999999N999999999-00231+99999101681ADDMD1310101+9999OD159900981999REMSYN068ROBN4 46/// /2817 11023 40168 53010 91200 333 91219 555 11015 22016=
0108997743999992025010513004+40650-074067FM-13+007299999V0202701N012919999999N999999999-00241+99999101681ADDMD1110081+9999OD159901441999REMSYN068ROBN4 46/// /2725 11024 40168 51008 91300 333 91228 555 11022 22024=
0088997743999992025010514004+40650-074067FM-13+007299999V0202701N010819999999N999999999+99999+99999101701ADDOD159901341999REMSYN062ROBN4 46/// /2721 1//// 40170 91336 333 91226 555 11020 22021=
0108997743999992025010515004+40650-074067FM-13+007299999V0202801N009319999999N999999999-00181+99999101761ADDMD1310081+9999OD159901181999REMSYN068ROBN4 46/// /2818 11018 40176 53008 91500 333 91223 555 11016 22018=
0108997743999992025010516004+40650-074067FM-13+007299999V0202801N010819999999N999999999+99999+99999101711ADDMD1990031+9999OD159901291999REMSYN068ROBN4 46/// /2821 1//// 40171 50003 91600 333 91225 555 11019 22021=
0108997743999992025010517004+40650-074067FM-13+007299999V0203001N009319999999N999999999+99999+99999101611ADDMD1810121+9999OD159901131999REMSYN068ROBN4 46/// /3018 1//// 40161 58012 91700 333 91222 555 11016 22018=
0108997743999992025010518004+40650-074067FM-13+007299999V0203101N009819999999N999999999-00081+99999101581ADDMD1610181+9999OD159901291999REMSYN068ROBN4 46/// /3119 11008 40158 56018 91800 333 91225 555 11018 22019=
0108997743999992025010519004+40650-074067FM-13+007299999V0203201N009819999999N999999999+00001+99999101591ADDMD1610121+9999OD159901131999REMSYN068ROBN4 46/// /3219 10000 40159 56012 91900 333 91222 555 11017 22019=
0108997743999992025010520004+40650-074067FM-13+007299999V0203201N009819999999N999999999+00031+99999101611ADDMD1510001+9999OD159901241999REMSYN068ROBN4 46/// /3219 10003 40161 55000 92000 333 91224 555 11018 22019=
0108997743999992025010521004+40650-074067FM-13+007299999V0203301N008819999999N999999999+00021+99999101681ADDMD1310101+9999OD159901181999REMSYN068ROBN4 46/// /3317 10002 40168 53010 92100 333 91223 555 11015 22016=
0108997743999992025010522004+40650-074067FM-13+007299999V0203301N007219999999N999999999-00011+99999101711ADDMD1310121+9999OD159900931999REMSYN068ROBN4 46/// /3314 11001 40171 53012 92200 333 91218 555 11013 22014=
0108997743999992025010523004+40650-074067FM-13+007299999V0203201N007219999999N999999999-00041+99999101801ADDMD1310191+9999OD159900981999REMSYN068ROBN4 46/// /3214 11004 40180 53019 92300 333 91219 555 11013 22014=
0108997743999992025010600004+40650-074067FM-13+007299999V0203001N008819999999N999999999-00041+99999101751ADDMD1990071+9999OD159901081999REMSYN068ROBN4 46/// /3017 11004 40175 50007 90000 333 91221 555 11016 22017=
0108997743999992025010601004+40650-074067FM-13+007299999V0202901N007719999999N999999999-00081+99999101781ADDMD1110071+9999OD159900981999REMSYN068ROBN4 46/// /2915 11008 40178 51007 90100 333 91219 555 11014 22015=
0108997743999992025010602004+40650-074067FM-13+007299999V0202901N007219999999N999999999-00101+99999101741ADDMD1610061+9999OD159900821999REMSYN068ROBN4 46/// /2914 11010 40174 56006 90200 333 91216 555 11013 22014=
0108997743999992025010603004+40650-074067FM-13+007299999V0202901N006719999999N999999999-00121+99999101731ADDMD1990001+9999OD159900821999REMSYN068ROBN4 46/// /2913 11012 40173 50000 90300 333 91216 555 11012 22013=
0108997743999992025010604004+40650-074067FM-13+007299999V0202701N006719999999N999999999-00151+99999101771ADDMD1510001+9999OD159900771999REMSYN068ROBN4 46/// /2713 11015 40177 55000 90400 333 91215 555 11012 22013=
0108997743999992025010605004+40650-074067FM-13+007299999V0202501N007219999999N999999999-00181+99999101771ADDMD1210031+9999OD159900881999REMSYN068ROBN4 46/// /2514 11018 40177 52003 90500 333 91217 555 11012 22014=
0108997743999992025010606004+40650-074067FM-13+007299999V0202801N006719999999N999999999-00201+99999101711ADDMD1990001+9999OD159900771999REMSYN068ROBN4 46/// /2813 11020 40171 50000 90600 333 91215 555 11012 22013=
0108997743999992025010607004+40650-074067FM-13+007299999V0202801N006719999999N999999999-00201+99999101721ADDMD1710051+9999OD159900821999REMSYN068ROBN4 46/// /2813 11020 40172 57005 90700 333 91216 555 11012 22013=
0108997743999992025010608004+40650-074067FM-13+007299999V0202801N006219999999N999999999-00211+99999101711ADDMD1610061+9999OD159900721999REMSYN068ROBN4 46/// /2812 11021 40171 56006 90800 333 91214 555 11011 22011=
0108997743999992025010609004+40650-074067FM-13+007299999V0202901N005119999999N999999999-00221+99999101591ADDMD1810121+9999OD159900571999REMSYN068ROBN4 46/// /2910 11022 40159 58012 90900 333 91211 555 11009 22010=
0108997743999992025010610004+40650-074067FM-13+007299999V0202901N003119999999N999999999-00201+99999101511ADDMD1810211+9999OD159900361999REMSYN068ROBN4 46/// /2906 11020 40151 58021 91000 333 91207 555 11006 22006=
0108997743999992025010611004+40650-074067FM-13+007299999V0202501N005119999999N999999999-00201+99999101541ADDMD1510171+9999OD159900621999REMSYN068ROBN4 46/// /2510 11020 40154 55017 91100 333 91212 555 11009 22010=
0108997743999992025010612004+40650-074067FM-13+007299999V0202701N004619999999N999999999-00211+99999101451ADDMD1810141+9999OD159900511999REMSYN068ROBN4 46/// /2709 11021 40145 58014 91200 333 91210 555 11008 22009=
0108997743999992025010613004+40650-074067FM-13+007299999V0202601N005119999999N999999999-00201+99999101451ADDMD1810061+9999OD159900571999REMSYN068ROBN4 46/// /2610 11020 40145 58006 91300 333 91211 555 11009 22010=
0108997743999992025010614004+40650-074067FM-13+007299999V0202901N002119999999N999999999-00181+99999101321ADDMD1810221+9999OD159900261999REMSYN068ROBN4 46/// /2904 11018 40132 58022 91400 333 91205 555 11003 22004=
0108997743999992025010615004+40650-074067FM-13+007299999V0203101N002119999999N999999999-00221+99999101261ADDMD1810191+9999OD159900261999REMSYN068ROBN4 46/// /3104 11022 40126 58019 91500 333 91205 555 11003 22004=
0108997743999992025010616004+40650-074067FM-13+007299999V0203101N002619999999N999999999-00311+99999101121ADDMD1810331+9999OD159900261999REMSYN068ROBN4 46/// /3105 11031 40112 58033 91600 333 91205 555 11004 22005=
0108997743999992025010617004+40650-074067FM-13+007299999V0203201N002619999999N999999999-00291+99999100991ADDMD1810331+9999OD159900311999REMSYN068ROBN4 46/// /3205 11029 40099 58033 91700 333 91206 555 11005 22005=
0108997743999992025010618004+40650-074067FM-13+007299999V0203601N004119999999N999999999-00251+99999100791ADDMD1810471+9999OD159900461999REMSYN068ROBN4 46/// /3608 11025 40079 58047 91800 333 91209 555 11008 22008=
0108997743999992025010619004+40650-074067FM-13+007299999V0200101N006219999999N999999999-00241+99999100681ADDMD1610441+9999OD159900721999REMSYN068ROBN4 46/// /0112 11024 40068 56044 91900 333 91214 555 11011 22012=
0108997743999992025010620004+40650-074067FM-13+007299999V0200101N006719999999N999999999-00161+99999100611ADDMD1610381+9999OD159900821999REMSYN068ROBN4 46/// /0113 11016 40061 56038 92000 333 91216 555 11012 22013=
0108997743999992025010621004+40650-074067FM-13+007299999V0200201N007219999999N999999999-00131+99999100541ADDMD1610251+9999OD159900821999REMSYN068ROBN4 46/// /0214 11013 40054 56025 92100 333 91216 555 11013 22014=
0108997743999992025010622004+40650-074067FM-13+007299999V0203601N006219999999N999999999-00111+99999100491ADDMD1610191+9999OD159900721999REMSYN068ROBN4 46/// /3612 11011 40049 56019 92200 333 91214 555 11011 22012=
0108997743999992025010623004+40650-074067FM-13+007299999V0203601N006219999999N999999999-00111+99999100441ADDMD1610171+9999OD159900721999REMSYN068ROBN4 46/// /3612 11011 40044 56017 92300 333 91214 555 11011 22012=
0108997743999992025010700004+40650-074067FM-13+007299999V0203501N006719999999N999999999-00151+99999100361ADDMD1810181+9999OD159900821999REMSYN068ROBN4 46/// /3513 11015 40036 58018 90000 333 91216 555 11012 22013=
0108997743999992025010701004+40650-074067FM-13+007299999V0203501N006219999999N999999999-00221+99999100371ADDMD1610121+9999OD159900771999REMSYN068ROBN4 46/// /3512 11022 40037 56012 90100 333 91215 555 11011 22011=
0108997743999992025010702004+40650-074067FM-13+007299999V0203601N008819999999N999999999-00331+99999100331ADDMD1610111+9999OD159901031999REMSYN068ROBN4 46/// /3617 11033 40033 56011 90200 333 91220 555 11016 22017=
0108997743999992025010703004+40650-074067FM-13+007299999V0203401N010819999999N999999999-00381+99999100441ADDMD1310081+9999OD159901391999REMSYN068ROBN4 46/// /3421 11038 40044 53008 90300 333 91227 555 11019 22021=
0108997743999992025010704004+40650-074067FM-13+007299999V0203301N009319999999N999999999-00411+99999100521ADDMD1310151+9999OD159901391999REMSYN068ROBN4 46/// /3318 11041 40052 53015 90400 333 91227 555 11017 22018=
0108997743999992025010705004+40650-074067FM-13+007299999V0203401N010819999999N999999999-00521+99999100621ADDMD1110291+9999OD159901291999REMSYN068ROBN4 46/// /3421 11052 40062 51029 90500 333 91225 555 11020 22021=
0108997743999992025010706004+40650-074067FM-13+007299999V0203401N009819999999N999999999-00681+99999100711ADDMD1310271+9999OD159901651999REMSYN068ROBN4 46/// /3419 11068 40071 53027 90600 333 91232 555 11017 22019=
0108997743999992025010707004+40650-074067FM-13+007299999V0203301N009819999999N999999999-00661+99999100711ADDMD1110191+9999OD159901491999REMSYN068ROBN4 46/// /3319 11066 40071 51019 90700 333 91229 555 11018 22019=
0108997743999992025010708004+40650-074067FM-13+007299999V0203301N009819999999N999999999-00621+99999100751ADDMD1110131+9999OD159901441999REMSYN068ROBN4 46/// /3319 11062 40075 51013 90800 333 91228 555 11018 22019=
0108997743999992025010709004+40650-074067FM-13+007299999V0203301N007719999999N999999999-00571+99999100761ADDMD1210051+9999OD159901491999REMSYN068ROBN4 46/// /3315 11057 40076 52005 90900 333 91229 555 11014 22015=
0108997743999992025010710004+40650-074067FM-13+007299999V0203301N009319999999N999999999-00531+99999100791ADDMD1110081+9999OD159901131999REMSYN068ROBN4 46/// /3318 11053 40079 51008 91000 333 91222 555 11016 22017=
0108997743999992025010711004+40650-074067FM-13+007299999V0203201N013419999999N999999999-00511+99999100841ADDMD1310091+9999OD159901651999REMSYN068ROBN4 46/// /3226 11051 40084 53009 91100 333 91232 555 11024 22026=
0108997743999992025010712004+40650-074067FM-13+007299999V0203101N011819999999N999999999-00481+99999100901ADDMD1310141+9999OD159901601999REMSYN068ROBN4 46/// /3123 11048 40090 53014 91200 333 91231 555 11021 22023=
0108997743999992025010713004+40650-074067FM-13+007299999V0203101N010819999999N999999999-00431+99999100911ADDMD1110121+9999OD159901391999REMSYN068ROBN4 46/// /3121 11043 40091 51012 91300 333 91227 555 11019 22021=
0108997743999992025010714004+40650-074067FM-13+007299999V0203101N013919999999N999999999-00451+99999100941ADDMD1110101+9999OD159901801999REMSYN068ROBN4 46/// /3127 11045 40094 51010 91400 333 91235 555 11025 22027=
0108997743999992025010715004+40650-074067FM-13+007299999V0203201N012919999999N999999999-00431+99999101001ADDMD1310101+9999OD159902011999REMSYN068ROBN4 46/// /3225 11043 40100 53010 91500 333 91239 555 11023 22025=
0108997743999992025010716004+40650-074067FM-13+007299999V0203101N012919999999N999999999-00331+99999100971ADDMD1990061+9999OD159901541999REMSYN068ROBN4 46/// /3125 11033 40097 50006 91600 333 91230 555 11023 22025=
0082997743999992025010717004+40650-074067FM-13+007299999V0203001N013919999999N999999999+99999+99999999999ADDOD159901801999REMSYN056ROBN4 46/// /3027 1//// 91636 333 91235 555 11024 22027=
0108997743999992025010718004+40650-074067FM-13+007299999V0203201N015419999999N999999999-00111+99999100851ADDMD1710151+9999OD159902061999REMSYN068ROBN4 46/// /3230 11011 40085 57015 91800 333 91240 555 11028 22030=
0108997743999992025010719004+40650-074067FM-13+007299999V0203201N017519999999N999999999+99999+99999100871ADDMD1710101+9999OD159902011999REMSYN068ROBN4 46/// /3234 1//// 40087 57010 91900 333 91239 555 11031 22034=
0088997743999992025010720004+40650-074067FM-13+007299999V0203101N012919999999N999999999+99999+99999100881ADDOD159901801999REMSYN062ROBN4 46/// /3125 1//// 40088 91942 333 91235 555 11023 22025=
0108997743999992025010722004+40650-074067FM-13+007299999V0203201N017019999999N999999999+99999+99999101171ADDMD1310301+9999OD159902011999REMSYN068ROBN4 46/// /3233 1//// 40117 53030 92200 333 91239 555 11030 22032=
0108997743999992025010723004+40650-074067FM-13+007299999V0203301N010819999999N999999999-00111+99999101351ADDMD1310451+9999OD159901391999REMSYN068ROBN4 46/// /3321 11011 40135 53045 92300 333 91227 555 11019 22021=
0108997743999992025010800004+40650-074067FM-13+007299999V0203201N016519999999N999999999-00181+99999101321ADDMD1990281+9999OD159901901999REMSYN068ROBN4 46/// /3232 11018 40132 50028 90000 333 91237 555 11029 22032=
0108997743999992025010801004+40650-074067FM-13+007299999V0203101N011319999999N999999999-00211+99999101431ADDMD1110261+9999OD159901651999REMSYN068ROBN4 46/// /3122 11021 40143 51026 90100 333 91232 555 11020 22021=
0108997743999992025010802004+40650-074067FM-13+007299999V0203201N009819999999N999999999-00231+99999101481ADDMD1310131+9999OD159901441999REMSYN068ROBN4 46/// /3219 11023 40148 53013 90200 333 91228 555 11017 22018=
0108997743999992025010803004+40650-074067FM-13+007299999V0203201N010319999999N999999999-00231+99999101511ADDMD1110191+9999OD159901291999REMSYN068ROBN4 46/// /3220 11023 40151 51019 90300 333 91225 555 11018 22020=
0108997743999992025010804004+40650-074067FM-13+007299999V0203201N011819999999N999999999-00251+99999101521ADDMD1110091+9999OD159901391999REMSYN068ROBN4 46/// /3223 11025 40152 51009 90400 333 91227 555 11021 22023=
0108997743999992025010805004+40650-074067FM-13+007299999V0203201N014919999999N999999999-00261+99999101471ADDMD1990001+9999OD159901901999REMSYN068ROBN4 46/// /3229 11026 40147 50000 90500 333 91237 555 11026 22028=
0108997743999992025010806004+40650-074067FM-13+007299999V0203101N016019999999N999999999-00271+99999101421ADDMD1810091+9999OD159901851999REMSYN068ROBN4 46/// /3131 11027 40142 58009 90600 333 91236 555 11028 22031=
0108997743999992025010807004+40650-074067FM-13+007299999V0203201N012919999999N999999999-00301+99999101491ADDMD1510031+9999OD159901701999REMSYN068ROBN4 46/// /3225 11030 40149 55003 90700 333 91233 555 11023 22025=
0108997743999992025010808004+40650-074067FM-13+007299999V0203101N012419999999N999999999-00261+99999101481ADDMD1510001+9999OD159901601999REMSYN068ROBN4 46/// /3124 11026 40148 55000 90800 333 91231 555 11022 22024=
0108997743999992025010809004+40650-074067FM-13+007299999V0203001N012919999999N999999999-00311+99999101491ADDMD1110071+9999OD159901441999REMSYN068ROBN4 46/// /3025 11031 40149 51007 90900 333 91228 555 11023 22025=
0108997743999992025010810004+40650-074067FM-13+007299999V0203101N012919999999N999999999-00341+99999101481ADDMD1410001+9999OD159901651999REMSYN068ROBN4 46/// /3125 11034 40148 54000 91000 333 91232 555 11022 22024=
0108997743999992025010811004+40650-074067FM-13+007299999V0203201N009819999999N999999999-00351+99999101511ADDMD1310031+9999OD159901291999REMSYN068ROBN4 46/// /3219 11035 40151 53003 91100 333 91225 555 11017 22019=
0108997743999992025010812004+40650-074067FM-13+007299999V0203201N010819999999N999999999-00371+99999101531ADDMD1210041+9999OD159901441999REMSYN068ROBN4 46/// /3221 11037 40153 52004 91200 333 91228 555 11019 22021=
0108997743999992025010813004+40650-074067FM-13+007299999V0203101N009819999999N999999999-00401+99999101551ADDMD1110071+9999OD159901291999REMSYN068ROBN4 46/// /3119 11040 40155 51007 91300 333 91225 555 11017 22019=
0108997743999992025010814004+40650-074067FM-13+007299999V0203001N008219999999N999999999-00361+99999101521ADDMD1990001+9999OD159901031999REMSYN068ROBN4 46/// /3016 11036 40152 50000 91400 333 91220 555 11014 22015=
0108997743999992025010815004+40650-074067FM-13+007299999V0203001N009319999999N999999999-00311+99999101481ADDMD1810051+9999OD159901241999REMSYN068ROBN4 46/// /3018 11031 40148 58005 91500 333 91224 555 11017 22018=
0108997743999992025010816004+40650-074067FM-13+007299999V0203101N012919999999N999999999-00291+99999101411ADDMD1810141+9999OD159901651999REMSYN068ROBN4 46/// /3125 11029 40141 58014 91600 333 91232 555 11023 22025=
0108997743999992025010817004+40650-074067FM-13+007299999V0203001N013419999999N999999999-00281+99999101251ADDMD1810271+9999OD159901651999REMSYN068ROBN4 46/// /3026 11028 40125 58027 91700 333 91232 555 11024 22026=
0108997743999992025010818004+40650-074067FM-13+007299999V0203001N016519999999N999999999-00231+99999101121ADDMD1810361+9999OD159901851999REMSYN068ROBN4 46/// /3032 11023 40112 58036 91800 333 91236 555 11029 22032=
0108997743999992025010819004+40650-074067FM-13+007299999V0203101N015419999999N999999999-00181+99999101041ADDMD1610371+9999OD159901961999REMSYN068ROBN4 46/// /3130 11018 40104 56037 91900 333 91238 555 11027 22029=
0108997743999992025010820004+40650-074067FM-13+007299999V0203101N014919999999N999999999-00201+99999100981ADDMD1610271+9999OD159901901999REMSYN068ROBN4 46/// /3129 11020 40098 56027 92000 333 91237 555 11026 22029=
0108997743999992025010821004+40650-074067FM-13+007299999V0203101N014419999999N999999999-00221+99999100971ADDMD1610151+9999OD159902061999REMSYN068ROBN4 46/// /3128 11022 40097 56015 92100 333 91240 555 11025 22028=
0108997743999992025010822004+40650-074067FM-13+007299999V0203301N013419999999N999999999-00291+99999101031ADDMD1510001+9999OD159901651999REMSYN068ROBN4 46/// /3326 11029 40103 55000 92200 333 91232 555 11024 22026=
0108997743999992025010823004+40650-074067FM-13+007299999V0203201N011819999999N999999999-00351+99999101031ADDMD1210051+9999OD159901541999REMSYN068ROBN4 46/// /3223 11035 40103 52005 92300 333 91230 555 11021 22023=
0108997743999992025010900004+40650-074067FM-13+007299999V0203101N016019999999N999999999-00461+99999101041ADDMD1110071+9999OD159901961999REMSYN068ROBN4 46/// /3131 11046 40104 51007 90000 333 91238 555 11028 22031=
0108997743999992025010901004+40650-074067FM-13+007299999V0203001N014419999999N999999999-00451+99999101031ADDMD1410001+9999OD159901801999REMSYN068ROBN4 46/// /3028 11045 40103 54000 90100 333 91235 555 11025 22027=
0108997743999992025010902004+40650-074067FM-13+007299999V0203101N011319999999N999999999-00461+99999101031ADDMD1410001+9999OD159901441999REMSYN068ROBN4 46/// /3122 11046 40103 54000 90200 333 91228 555 11020 22022=
0108997743999992025010903004+40650-074067FM-13+007299999V0203001N010819999999N999999999-00461+99999101001ADDMD1810041+9999OD159901391999REMSYN068ROBN4 46/// /3021 11046 40100 58004 90300 333 91227 555 11019 22021=
0108997743999992025010904004+40650-074067FM-13+007299999V0203001N010819999999N999999999-00491+99999100941ADDMD1810091+9999OD159901491999REMSYN068ROBN4 46/// /3021 11049 40094 58009 90400 333 91229 555 11019 22021=
0108997743999992025010905004+40650-074067FM-13+007299999V0203001N012919999999N999999999-00501+99999100851ADDMD1810181+9999OD159901601999REMSYN068ROBN4 46/// /3025 11050 40085 58018 90500 333 91231 555 11023 22025=
0108997743999992025010906004+40650-074067FM-13+007299999V0203101N012419999999N999999999-00491+99999100781ADDMD1810221+9999OD159901601999REMSYN068ROBN4 46/// /3124 11049 40078 58022 90600 333 91231 555 11022 22024=
0108997743999992025010907004+40650-074067FM-13+007299999V0203001N015419999999N999999999-00471+99999100741ADDMD1610201+9999OD159901751999REMSYN068ROBN4 46/// /3030 11047 40074 56020 90700 333 91234 555 11028 22030=
0108997743999992025010908004+40650-074067FM-13+007299999V0203101N016019999999N999999999-00441+99999100711ADDMD1610141+9999OD159901801999REMSYN068ROBN4 46/// /3131 11044 40071 56014 90800 333 91235 555 11028 22031=
0108997743999992025010909004+40650-074067FM-13+007299999V0203201N012919999999N999999999-00451+99999100651ADDMD1810131+9999OD159901651999REMSYN068ROBN4 46/// /3225 11045 40065 58013 90900 333 91232 555 11023 22025=
0108997743999992025010910004+40650-074067FM-13+007299999V0203201N016019999999N999999999-00461+99999100601ADDMD1810141+9999OD159901851999REMSYN068ROBN4 46/// /3231 11046 40060 58014 91000 333 91236 555 11029 22031=
0108997743999992025010911004+40650-074067FM-13+007299999V0203101N011819999999N999999999-00441+99999100691ADDMD1510001+9999OD159901701999REMSYN068ROBN4 46/// /3123 11044 40069 55000 91100 333 91233 555 11021 22023=
0108997743999992025010912004+40650-074067FM-13+007299999V0203101N009819999999N999999999-00451+99999100711ADDMD1310061+9999OD159901391999REMSYN068ROBN4 46/// /3119 11045 40071 53006 91200 333 91227 555 11017 22019=
0108997743999992025010913004+40650-074067FM-13+007299999V0203201N012919999999N999999999-00441+99999100741ADDMD1110141+9999OD159901701999REMSYN068ROBN4 46/// /3225 11044 40074 51014 91300 333 91233 555 11023 22025=
0108997743999992025010914004+40650-074067FM-13+007299999V0203201N014419999999N999999999-00381+99999100741ADDMD1210051+9999OD159901961999REMSYN068ROBN4 46/// /3228 11038 40074 52005 91400 333 91238 555 11025 22028=
0108997743999992025010915004+40650-074067FM-13+007299999V0203201N013419999999N999999999-00311+99999100751ADDMD1110041+9999OD159901901999REMSYN068ROBN4 46/// /3226 11031 40075 51004 91500 333 91237 555 11024 22026=
0108997743999992025010916004+40650-074067FM-13+007299999V0203101N014919999999N999999999-00221+99999100741ADDMD1410001+9999OD159901851999REMSYN068ROBN4 46/// /3129 11022 40074 54000 91600 333 91236 555 11026 22028=
0108997743999992025010917004+40650-074067FM-13+007299999V0203201N013919999999N999999999-00101+99999100691ADDMD1810051+9999OD159902011999REMSYN068ROBN4 46/// /3227 11010 40069 58005 91700 333 91239 555 11025 22027=
0108997743999992025010918004+40650-074067FM-13+007299999V0203201N018019999999N999999999-00051+99999100611ADDMD1810141+9999OD159902321999REMSYN068ROBN4 46/// /3235 11005 40061 58014 91800 333 91245 555 11032 22034=
0108997743999992025010919004+40650-074067FM-13+007299999V0203201N016519999999N999999999+00071+99999100601ADDMD1610141+9999OD159902271999REMSYN068ROBN4 46/// /3232 10007 40060 56014 91900 333 91244 555 11030 22032=
0108997743999992025010920004+40650-074067FM-13+007299999V0203201N010819999999N999999999+00141+99999100721ADDMD1310031+9999OD159901441999REMSYN068ROBN4 46/// /3221 10014 40072 53003 92000 333 91228 555 11019 22021=
0108997743999992025010923004+40650-074067FM-13+007299999V0203201N013919999999N999999999-00091+99999100911ADDMD1210191+9999OD159901801999REMSYN068ROBN4 46/// /3227 11009 40091 52019 92300 333 91235 555 11025 22027=
0108997743999992025011000004+40650-074067FM-13+007299999V0203201N013419999999N999999999-00131+99999100951ADDMD1210151+9999OD159901601999REMSYN068ROBN4 46/// /3226 11013 40095 52015 90000 333 91231 555 11024 22026=
0088997743999992025011001004+40650-074067FM-13+007299999V0203201N012419999999N999999999+99999+99999101021ADDOD159901491999REMSYN062ROBN4 46/// /3224 1//// 40102 90048 333 91229 555 11022 22024=
0108997743999992025011002004+40650-074067FM-13+007299999V0203201N007219999999N999999999-00161+99999101161ADDMD1310251+9999OD159901031999REMSYN068ROBN4 46/// /3214 11016 40116 53025 90200 333 91220 555 11013 22014=
0108997743999992025011003004+40650-074067FM-13+007299999V0203201N011819999999N999999999-00171+99999101151ADDMD1110201+9999OD159901541999REMSYN068ROBN4 46/// /3223 11017 40115 51020 90300 333 91230 555 11021 22023=
0108997743999992025011004004+40650-074067FM-13+007299999V0203101N012919999999N999999999-00181+99999101201ADDMD1110121+9999OD159901541999REMSYN068ROBN4 46/// /3125 11018 40120 51012 90400 333 91230 555 11023 22025=
0108997743999992025011005004+40650-074067FM-13+007299999V0203101N012419999999N999999999-00211+99999101241ADDMD1310081+9999OD159901491999REMSYN068ROBN4 46/// /3124 11021 40124 53008 90500 333 91229 555 11022 22024=
0108997743999992025011006004+40650-074067FM-13+007299999V0203201N010319999999N999999999-00221+99999101211ADDMD1990061+9999OD159901441999REMSYN068ROBN4 46/// /3220 11022 40121 50006 90600 333 91228 555 11018 22020=
0108997743999992025011007004+40650-074067FM-13+007299999V0203101N008219999999N999999999-00221+99999101311ADDMD1310111+9999OD159900981999REMSYN068ROBN4 46/// /3116 11022 40131 53011 90700 333 91219 555 11015 22016=
0108997743999992025011008004+40650-074067FM-13+007299999V0203201N009819999999N999999999-00241+99999101281ADDMD1210041+9999OD159901291999REMSYN068ROBN4 46/// /3219 11024 40128 52004 90800 333 91225 555 11017 22019=
0108997743999992025011009004+40650-074067FM-13+007299999V0203201N007219999999N999999999-00231+99999101261ADDMD1110051+9999OD159900981999REMSYN068ROBN4 46/// /3214 11023 40126 51005 90900 333 91219 555 11013 22014=
0108997743999992025011010004+40650-074067FM-13+007299999V0203101N008219999999N999999999-00231+99999101351ADDMD1310041+9999OD159901081999REMSYN068ROBN4 46/// /3116 11023 40135 53004 91000 333 91221 555 11014 22016=
0108997743999992025011011004+40650-074067FM-13+007299999V0203201N009319999999N999999999-00241+99999101411ADDMD1310131+9999OD159901081999REMSYN068ROBN4 46/// /3218 11024 40141 53013 91100 333 91221 555 11017 22018=
0108997743999992025011012004+40650-074067FM-13+007299999V0203101N006719999999N999999999-00221+99999101481ADDMD1110221+9999OD159900821999REMSYN068ROBN4 46/// /3113 11022 40148 51022 91200 333 91216 555 11012 22013=
0108997743999992025011013004+40650-074067FM-13+007299999V0203101N006719999999N999999999-00161+99999101491ADDMD1110141+9999OD159900771999REMSYN068ROBN4 46/// /3113 11016 40149 51014 91300 333 91215 555 11012 22013=
0108997743999992025011014004+40650-074067FM-13+007299999V0203201N007219999999N999999999-00111+99999101481ADDMD1110071+9999OD159901031999REMSYN068ROBN4 46/// /3214 11011 40148 51007 91400 333 91220 555 11013 22014=
0108997743999992025011015004+40650-074067FM-13+007299999V0203201N008819999999N999999999-00041+99999101541ADDMD1310061+9999OD159901131999REMSYN068ROBN4 46/// /3217 11004 40154 53006 91500 333 91222 555 11015 22017=
0108997743999992025011016004+40650-074067FM-13+007299999V0203101N006719999999N999999999+00081+99999101451ADDMD1810041+9999OD159900881999REMSYN068ROBN4 46/// /3113 10008 40145 58004 91600 333 91217 555 11012 22013=
0108997743999992025011017004+40650-074067FM-13+007299999V0203201N007219999999N999999999+00211+99999101321ADDMD1810161+9999OD159900931999REMSYN068ROBN4 46/// /3214 10021 40132 58016 91700 333 91218 555 11013 22014=
0108997743999992025011018004+40650-074067FM-13+007299999V0203401N006219999999N999999999+00281+99999101221ADDMD1810321+9999OD159900881999REMSYN068ROBN4 46/// /3412 10028 40122 58032 91800 333 91217 555 11011 22012=
0108997743999992025011019004+40650-074067FM-13+007299999V0203201N006719999999N999999999+00361+99999101171ADDMD1610281+9999OD159900931999REMSYN068ROBN4 46/// /3213 10036 40117 56028 91900 333 91218 555 11012 22013=
0108997743999992025011020004+40650-074067FM-13+007299999V0203001N006719999999N999999999+00361+99999101221ADDMD1510101+9999OD159900771999REMSYN068ROBN4 46/// /3013 10036 40122 55010 92000 333 91215 555 11012 22013=
0108997743999992025011021004+40650-074067FM-13+007299999V0203001N006219999999N999999999+00351+99999101181ADDMD1610041+9999OD159900671999REMSYN068ROBN4 46/// /3012 10035 40118 56004 92100 333 91213 555 11011 22012=
0108997743999992025011022004+40650-074067FM-13+007299999V0203101N004119999999N999999999+00291+99999101141ADDMD1810031+9999OD159900571999REMSYN068ROBN4 46/// /3108 10029 40114 58003 92200 333 91211 555 11007 22008=
0108997743999992025011023004+40650-074067FM-13+007299999V0203101N004619999999N999999999+00271+99999101101ADDMD1710121+9999OD159900571999REMSYN068ROBN4 46/// /3109 10027 40110 57012 92300 333 91211 555 11008 22009=
0108997743999992025011100004+40650-074067FM-13+007299999V0203201N003619999999N999999999+00261+99999101061ADDMD1710121+9999OD159900461999REMSYN068ROBN4 46/// /3207 10026 40106 57012 90000 333 91209 555 11007 22007=
0108997743999992025011101004+40650-074067FM-13+007299999V0202801N003619999999N999999999+00241+99999101011ADDMD1810131+9999OD159900461999REMSYN068ROBN4 46/// /2807 10024 40101 58013 90100 333 91209 555 11007 22007=
0108997743999992025011102004+40650-074067FM-13+007299999V0202801N004119999999N999999999+00221+99999100971ADDMD1710131+9999OD159900511999REMSYN068ROBN4 46/// /2808 10022 40097 57013 90200 333 91210 555 11008 22008=
0108997743999992025011103004+40650-074067FM-13+007299999V0203101N002619999999N999999999+00181+99999100791ADDMD1810271+9999OD159900411999REMSYN068ROBN4 46/// /3105 10018 40079 58027 90300 333 91208 555 11004 22005=
0108997743999992025011104004+40650-074067FM-13+007299999V0202601N003119999999N999999999+00161+99999100741ADDMD1810271+9999OD159900361999REMSYN068ROBN4 46/// /2606 10016 40074 58027 90400 333 91207 555 11006 22006=
0108997743999992025011105004+40650-074067FM-13+007299999V0202501N004119999999N999999999+00141+99999100701ADDMD1610271+9999OD159900461999REMSYN068ROBN4 46/// /2508 10014 40070 56027 90500 333 91209 555 11008 22008=
0108997743999992025011106004+40650-074067FM-13+007299999V0202601N004619999999N999999999+00091+99999100651ADDMD1710141+9999OD159900571999REMSYN068ROBN4 46/// /2609 10009 40065 57014 90600 333 91211 555 11009 22009=
0108997743999992025011107004+40650-074067FM-13+007299999V0202401N003119999999N999999999+00051+99999100531ADDMD1810211+9999OD159900361999REMSYN068ROBN4 46/// /2406 10005 40053 58021 90700 333 91207 555 11006 22006=
0108997743999992025011108004+40650-074067FM-13+007299999V0202301N004619999999N999999999+00011+99999100421ADDMD1810281+9999OD159900571999REMSYN068ROBN4 46/// /2309 10001 40042 58028 90800 333 91211 555 11008 22009=
0108997743999992025011109004+40650-074067FM-13+007299999V0202401N005719999999N999999999-00141+99999100361ADDMD1610291+9999OD159900671999REMSYN068ROBN4 46/// /2411 11014 40036 56029 90900 333 91213 555 11010 22011=
0108997743999992025011110004+40650-074067FM-13+007299999V0202701N004119999999N999999999-00261+99999100221ADDMD1810311+9999OD159900461999REMSYN068ROBN4 46/// /2708 11026 40022 58031 91000 333 91209 555 11008 22008=
0108997743999992025011111004+40650-074067FM-13+007299999V0202801N002119999999N999999999-00251+99999100121ADDMD1810301+9999OD159900211999REMSYN068ROBN4 46/// /2804 11025 40012 58030 91100 333 91204 555 11003 22004=
0108997743999992025011112004+40650-074067FM-13+007299999V0203201N003119999999N999999999-00241+99999100051ADDMD1610311+9999OD159900411999REMSYN068ROBN4 46/// /3206 11024 40005 56031 91200 333 91208 555 11006 22006=
0108997743999992025011113004+40650-074067FM-13+007299999V0203201N003619999999N999999999-00221+99999100021ADDMD1610201+9999OD159900511999REMSYN068ROBN4 46/// /3207 11022 40002 56020 91300 333 91210 555 11006 22007=
0108997743999992025011114004+40650-074067FM-13+007299999V0203101N003119999999N999999999+99999+99999099971ADDMD1610151+9999OD159900461999REMSYN068ROBN4 46/// /3106 1//// 49997 56015 91400 333 91209 555 11006 22006=
0108997743999992025011115004+40650-074067FM-13+007299999V0203101N003119999999N999999999-00151+99999099971ADDMD1610081+9999OD159900461999REMSYN068ROBN4 46/// /3106 11015 49997 56008 91500 333 91209 555 11006 22006=
0108997743999992025011116004+40650-074067FM-13+007299999V0203401N004119999999N999999999-00091+99999099901ADDMD1810121+9999OD159900511999REMSYN068ROBN4 46/// /3408 11009 49990 58012 91600 333 91210 555 11007 22008=
0108997743999992025011117004+40650-074067FM-13+007299999V0203501N005119999999N999999999-00011+99999099781ADDMD1810191+9999OD159900771999REMSYN068ROBN4 46/// /3510 11001 49978 58019 91700 333 91215 555 11009 22010=
0108997743999992025011118004+40650-074067FM-13+007299999V0203501N005719999999N999999999+00051+99999099761ADDMD1610211+9999OD159900721999REMSYN068ROBN4 46/// /3511 10005 49976 56021 91800 333 91214 555 11010 22011=
0108997743999992025011119004+40650-074067FM-13+007299999V0203201N006219999999N999999999+00121+99999099781ADDMD1610121+9999OD159900771999REMSYN068ROBN4 46/// /3212 10012 49978 56012 91900 333 91215 555 11011 22012=
0108997743999992025011120004+40650-074067FM-13+007299999V0203301N006219999999N999999999+00201+99999099851ADDMD1310071+9999OD159900771999REMSYN068ROBN4 46/// /3312 10020 49985 53007 92000 333 91215 555 11011 22012=
0108997743999992025011121004+40650-074067FM-13+007299999V0203201N007719999999N999999999+00221+99999099991ADDMD1310231+9999OD159901031999REMSYN068ROBN4 46/// /3215 10022 49999 53023 92100 333 91220 555 11014 22015=
0108997743999992025011122004+40650-074067FM-13+007299999V0203101N011819999999N999999999+00121+99999100161ADDMD1310381+9999OD159901441999REMSYN068ROBN4 46/// /3123 10012 40016 53038 92200 333 91228 555 11021 22022=
0108997743999992025011123004+40650-074067FM-13+007299999V0203201N007719999999N999999999+00071+99999100331ADDMD1310481+9999OD159901081999REMSYN068ROBN4 46/// /3215 10007 40033 53048 92300 333 91221 555 11013 22015=
0108997743999992025011200004+40650-074067FM-13+007299999V0203201N008219999999N999999999+99999+99999100451ADDMD1110461+9999OD159901181999REMSYN068ROBN4 46/// /3216 1//// 40045 51046 90000 333 91223 555 11015 22016=
0108997743999992025011201004+40650-074067FM-13+007299999V0203201N007719999999N999999999+00001+99999100571ADDMD1110411+9999OD159901181999REMSYN068ROBN4 46/// /3215 10000 40057 51041 90100 333 91223 555 11014 22015=
0108997743999992025011202004+40650-074067FM-13+007299999V0203201N009819999999N999999999-00021+99999100691ADDMD1210361+9999OD159901241999REMSYN068ROBN4 46/// /3219 11002 40069 52036 90200 333 91224 555 11017 22018=
0108997743999992025011203004+40650-074067FM-13+007299999V0203301N009319999999N999999999-00021+99999100721ADDMD1110271+9999OD159901341999REMSYN068ROBN4 46/// /3318 11002 40072 51027 90300 333 91226 555 11016 22018=
0108997743999992025011204004+40650-074067FM-13+007299999V0203301N006719999999N999999999-00021+99999100821ADDMD1110251+9999OD159901081999REMSYN068ROBN4 46/// /3313 11002 40082 51025 90400 333 91221 555 11012 22013=
0108997743999992025011205004+40650-074067FM-13+007299999V0203201N006219999999N999999999-00021+99999100911ADDMD1310221+9999OD159900821999REMSYN068ROBN4 46/// /3212 11002 40091 53022 90500 333 91216 555 11011 22012=
0108997743999992025011206004+40650-074067FM-13+007299999V0203101N005719999999N999999999-00021+99999101011ADDMD1210291+9999OD159900821999REMSYN068ROBN4 46/// /3111 11002 40101 52029 90600 333 91216 555 11010 22011=
0108997743999992025011207004+40650-074067FM-13+007299999V0203201N003619999999N999999999-00031+99999101061ADDMD1110241+9999OD159900621999REMSYN068ROBN4 46/// /3207 11003 40106 51024 90700 333 91212 555 11006 22007=
0108997743999992025011208004+40650-074067FM-13+007299999V0203201N005119999999N999999999+00021+99999101151ADDMD1110241+9999OD159900721999REMSYN068ROBN4 46/// /3210 10002 40115 51024 90800 333 91214 555 11009 22010=
0108997743999992025011209004+40650-074067FM-13+007299999V0203201N008219999999N999999999+00091+99999101231ADDMD1310221+9999OD159900981999REMSYN068ROBN4 46/// /3216 10009 40123 53022 90900 333 91219 555 11014 22015=
0108997743999992025011210004+40650-074067FM-13+007299999V0203101N006219999999N999999999+00121+99999101301ADDMD1110241+9999OD159900821999REMSYN068ROBN4 46/// /3112 10012 40130 51024 91000 333 91216 555 11011 22012=
0108997743999992025011211004+40650-074067FM-13+007299999V0203401N004619999999N999999999+00101+99999101351ADDMD1110201+9999OD159900981999REMSYN068ROBN4 46/// /3409 10010 40135 51020 91100 333 91219 555 11008 22009=
0108997743999992025011212004+40650-074067FM-13+007299999V0203301N003119999999N999999999+99999+99999101411ADDMD1110181+9999OD159900461999REMSYN068ROBN4 46/// /3306 1//// 40141 51018 91200 333 91209 555 11006 22006=
0108997743999992025011213004+40650-074067FM-13+007299999V0203201N002619999999N999999999+00061+99999101441ADDMD1110141+9999OD159900311999REMSYN068ROBN4 46/// /3205 10006 40144 51014 91300 333 91206 555 11005 22005=
0108997743999992025011214004+40650-074067FM-13+007299999V0202901N004619999999N999999999+99999+99999101591ADDMD1310241+9999OD159900571999REMSYN068ROBN4 46/// /2909 1//// 40159 53024 91400 333 91211 555 11008 22009=
0108997743999992025011215004+40650-074067FM-13+007299999V0202901N003119999999N999999999+00161+99999101621ADDMD1210211+9999OD159900411999REMSYN068ROBN4 46/// /2906 10016 40162 52021 91500 333 91208 555 11006 22006=
0108997743999992025011216004+40650-074067FM-13+007299999V0203401N003619999999N999999999+99999+99999101621ADDMD1110181+9999OD159900461999REMSYN068ROBN4 46/// /3407 1//// 40162 51018 91600 333 91209 555 11006 22007=
0108997743999992025011217004+40650-074067FM-13+007299999V0203301N005719999999N999999999+00381+99999101571ADDMD1990001+9999OD159900621999REMSYN068ROBN4 46/// /3311 10038 40157 50000 91700 333 91212 555 11010 22011=
0108997743999992025011218004+40650-074067FM-13+007299999V0203101N003619999999N999999999+00421+99999101561ADDMD1710061+9999OD159900511999REMSYN068ROBN4 46/// /3107 10042 40156 57006 91800 333 91210 555 11006 22007=
0108997743999992025011219004+40650-074067FM-13+007299999V0203001N003619999999N999999999+99999+99999101551ADDMD1610071+9999OD159900461999REMSYN068ROBN4 46/// /3007 1//// 40155 56007 91900 333 91209 555 11007 22007=
0108997743999992025011220004+40650-074067FM-13+007299999V0203001N004119999999N999999999+00481+99999101571ADDMD1410001+9999OD159900621999REMSYN068ROBN4 46/// /3008 10048 40157 54000 92000 333 91212 555 11008 22008=
0108997743999992025011221004+40650-074067FM-13+007299999V0203201N005119999999N999999999+00471+99999101591ADDMD1210031+9999OD159900671999REMSYN068ROBN4 46/// /3210 10047 40159 52003 92100 333 91213 555 11009 22010=
0108997743999992025011222004+40650-074067FM-13+007299999V0203201N005119999999N999999999+00451+99999101651ADDMD1310101+9999OD159900621999REMSYN068ROBN4 46/// /3210 10045 40165 53010 92200 333 91212 555 11009 22010=
0108997743999992025011223004+40650-074067FM-13+007299999V0203501N003119999999N999999999+99999+99999101691ADDMD1310121+9999OD159900461999REMSYN068ROBN4 46/// /3506 1//// 40169 53012 92300 333 91209 555 11005 22006=
0108997743999992025011300004+40650-074067FM-13+007299999V0202501N002619999999N999999999+00411+99999101711ADDMD1110121+9999OD159900261999REMSYN068ROBN4 46/// /2505 10041 40171 51012 90000 333 91205 555 11004 22005=
0108997743999992025011301004+40650-074067FM-13+007299999V0203301N001519999999N999999999+00411+99999101711ADDMD1110061+9999OD159900151999REMSYN068ROBN4 46/// /3303 10041 40171 51006 90100 333 91203 555 11003 22003=
0108997743999992025011302004+40650-074067FM-13+007299999V0202601N003619999999N999999999+00341+99999101731ADDMD1210041+9999OD159900361999REMSYN068ROBN4 46/// /2607 10034 40173 52004 90200 333 91207 555 11006 22007=
0108997743999992025011303004+40650-074067FM-13+007299999V0202501N004619999999N999999999+00291+99999101751ADDMD1210041+9999OD159900511999REMSYN068ROBN4 46/// /2509 10029 40175 52004 90300 333 91210 555 11008 22009=
0108997743999992025011304004+40650-074067FM-13+007299999V0202501N002619999999N999999999+00271+99999101731ADDMD1410001+9999OD159900311999REMSYN068ROBN4 46/// /2505 10027 40173 54000 90400 333 91206 555 11005 22005=
0108997743999992025011305004+40650-074067FM-13+007299999V0202601N003619999999N999999999+00271+99999101711ADDMD1410001+9999OD159900571999REMSYN068ROBN4 46/// /2607 10027 40171 54000 90500 333 91211 555 11006 22007=
0108997743999992025011306004+40650-074067FM-13+007299999V0202501N002619999999N999999999+00241+99999101671ADDMD1810081+9999OD159900361999REMSYN068ROBN4 46/// /2505 10024 40167 58008 90600 333 91207 555 11005 22005=
0108997743999992025011307004+40650-074067FM-13+007299999V0202501N003119999999N999999999+00231+99999101671ADDMD1710061+9999OD159900411999REMSYN068ROBN4 46/// /2506 10023 40167 57006 90700 333 91208 555 11005 22006=
0108997743999992025011308004+40650-074067FM-13+007299999V0202401N002619999999N999999999+99999+99999101661ADDMD1610051+9999OD159900311999REMSYN068ROBN4 46/// /2405 1//// 40166 56005 90800 333 91206 555 11005 22005=
0108997743999992025011309004+40650-074067FM-13+007299999V0202101N003119999999N999999999+00181+99999101601ADDMD1810071+9999OD159900411999REMSYN068ROBN4 46/// /2106 10018 40160 58007 90900 333 91208 555 11006 22006=
0088997743999992025011310004+40650-074067FM-13+007299999V0202101N003619999999N999999999+99999+99999101591ADDOD159900461999REMSYN062ROBN4 46/// /2107 1//// 40159 90936 333 91209 555 11007 22007=
0108997743999992025011311004+40650-074067FM-13+007299999V0202001N003619999999N999999999+00081+99999101581ADDMD1610081+9999OD159900461999REMSYN068ROBN4 46/// /2007 10008 40158 56008 91100 333 91209 555 11007 22007=
0108997743999992025011312004+40650-074067FM-13+007299999V0202501N003619999999N999999999+00061+99999101591ADDMD1510001+9999OD159900461999REMSYN068ROBN4 46/// /2507 10006 40159 55000 91200 333 91209 555 11006 22007=
0108997743999992025011313004+40650-074067FM-13+007299999V0202601N004619999999N999999999+00011+99999101571ADDMD1410001+9999OD159900571999REMSYN068ROBN4 46/// /2609 10001 40157 54000 91300 333 91211 555 11009 22009=
0108997743999992025011314004+40650-074067FM-13+007299999V0202601N004619999999N999999999+00061+99999101571ADDMD1410001+9999OD159900621999REMSYN068ROBN4 46/// /2609 10006 40157 54000 91400 333 91212 555 11008 22009=
0108997743999992025011315004+40650-074067FM-13+007299999V0202601N004119999999N999999999+00151+99999101571ADDMD1410001+9999OD159900511999REMSYN068ROBN4 46/// /2608 10015 40157 54000 91500 333 91210 555 11007 22008=
0108997743999992025011316004+40650-074067FM-13+007299999V0202601N006219999999N999999999+00241+99999101491ADDMD1810081+9999OD159900721999REMSYN068ROBN4 46/// /2612 10024 40149 58008 91600 333 91214 555 11011 22012=
0108997743999992025011317004+40650-074067FM-13+007299999V0202601N006219999999N999999999+00341+99999101371ADDMD1810201+9999OD159900721999REMSYN068ROBN4 46/// /2612 10034 40137 58020 91700 333 91214 555 11011 22012=
0108997743999992025011318004+40650-074067FM-13+007299999V0202601N006719999999N999999999+00401+99999101281ADDMD1810291+9999OD159900771999REMSYN068ROBN4 46/// /2613 10040 40128 58029 91800 333 91215 555 11012 22013=
0108997743999992025011319004+40650-074067FM-13+007299999V0202701N007219999999N999999999+00421+99999101231ADDMD1610261+9999OD159900821999REMSYN068ROBN4 46/// /2714 10042 40123 56026 91900 333 91216 555 11012 22014=
0108997743999992025011320004+40650-074067FM-13+007299999V0202601N007219999999N999999999+00501+99999101181ADDMD1610191+9999OD159900931999REMSYN068ROBN4 46/// /2614 10050 40118 56019 92000 333 91218 555 11013 22014=
0108997743999992025011321004+40650-074067FM-13+007299999V0202701N008219999999N999999999+00541+99999101191ADDMD1610091+9999OD159901031999REMSYN068ROBN4 46/// /2716 10054 40119 56009 92100 333 91220 555 11015 22016=
0108997743999992025011322004+40650-074067FM-13+007299999V0202701N007219999999N999999999+00531+99999101231ADDMD1510001+9999OD159900881999REMSYN068ROBN4 46/// /2714 10053 40123 55000 92200 333 91217 555 11013 22014=
0108997743999992025011323004+40650-074067FM-13+007299999V0202801N006719999999N999999999+00481+99999101291ADDMD1310111+9999OD159900881999REMSYN068ROBN4 46/// /2813 10048 40129 53011 92300 333 91217 555 11012 22013=
0108997743999992025011400004+40650-074067FM-13+007299999V0202701N006219999999N999999999+00441+99999101341ADDMD1310151+9999OD159900771999REMSYN068ROBN4 46/// /2712 10044 40134 53015 90000 333 91215 555 11011 22012=
0108997743999992025011401004+40650-074067FM-13+007299999V0202801N006719999999N999999999+00401+99999101331ADDMD1110101+9999OD159900771999REMSYN068ROBN4 46/// /2813 10040 40133 51010 90100 333 91215 555 11012 22013=
0108997743999992025011402004+40650-074067FM-13+007299999V0202801N006719999999N999999999+00351+99999101351ADDMD1110061+9999OD159900821999REMSYN068ROBN4 46/// /2813 10035 40135 51006 90200 333 91216 555 11012 22013=
0108997743999992025011403004+40650-074067FM-13+007299999V0202801N006219999999N999999999+00321+99999101361ADDMD1410001+9999OD159900721999REMSYN068ROBN4 46/// /2812 10032 40136 54000 90300 333 91214 555 11011 22011=
0108997743999992025011404004+40650-074067FM-13+007299999V0202801N006219999999N999999999+00251+99999101371ADDMD1210041+9999OD159900721999REMSYN068ROBN4 46/// /2812 10025 40137 52004 90400 333 91214 555 11011 22012=
0108997743999992025011405004+40650-074067FM-13+007299999V0202901N009319999999N999999999+00271+99999101331ADDMD1990001+9999OD159901181999REMSYN068ROBN4 46/// /2918 10027 40133 50000 90500 333 91223 555 11017 22018=
0108997743999992025011406004+40650-074067FM-13+007299999V0203301N004119999999N999999999+00151+99999101381ADDMD1510001+9999OD159900511999REMSYN068ROBN4 46/// /3308 10015 40138 55000 90600 333 91210 555 11007 22008=
0108997743999992025011407004+40650-074067FM-13+007299999V0203201N005119999999N999999999+00061+99999101441ADDMD1310071+9999OD159900671999REMSYN068ROBN4 46/// /3210 10006 40144 53007 90700 333 91213 555 11009 22010=
0108997743999992025011408004+40650-074067FM-13+007299999V0203101N005119999999N999999999+00011+99999101471ADDMD1110141+9999OD159900621999REMSYN068ROBN4 46/// /3110 10001 40147 51014 90800 333 91212 555 11009 22010=
0108997743999992025011409004+40650-074067FM-13+007299999V0202901N005719999999N999999999-00031+99999101471ADDMD1110091+9999OD159900721999REMSYN068ROBN4 46/// /2911 11003 40147 51009 90900 333 91214 555 11010 22011=
0108997743999992025011410004+40650-074067FM-13+007299999V0202701N007219999999N999999999-00071+99999101511ADDMD1310071+9999OD159900881999REMSYN068ROBN4 46/// /2714 11007 40151 53007 91000 333 91217 555 11013 22014=
0108997743999992025011411004+40650-074067FM-13+007299999V0202901N009319999999N999999999-00131+99999101551ADDMD1310081+9999OD159901181999REMSYN068ROBN4 46/// /2918 11013 40155 53008 91100 333 91223 555 11016 22017=
0108997743999992025011412004+40650-074067FM-13+007299999V0203101N009819999999N999999999-00171+99999101631ADDMD1310161+9999OD159901341999REMSYN068ROBN4 46/// /3119 11017 40163 53016 91200 333 91226 555 11017 22019=
0108997743999992025011413004+40650-074067FM-13+007299999V0203001N010819999999N999999999-00201+99999101691ADDMD1310181+9999OD159901341999REMSYN068ROBN4 46/// /3021 11020 40169 53018 91300 333 91226 555 11019 22021=
0108997743999992025011414004+40650-074067FM-13+007299999V0203101N009819999999N999999999-00201+99999101741ADDMD1110191+9999OD159901441999REMSYN068ROBN4 46/// /3119 11020 40174 51019 91400 333 91228 555 11017 22019=
0108997743999992025011415004+40650-074067FM-13+007299999V0203101N011819999999N999999999-00201+99999101811ADDMD1310181+9999OD159901441999REMSYN068ROBN4 46/// /3123 11020 40181 53018 91500 333 91228 555 11021 22023=
0108997743999992025011416004+40650-074067FM-13+007299999V0203101N009319999999N999999999-00201+99999101791ADDMD1110101+9999OD159901441999REMSYN068ROBN4 46/// /3118 11020 40179 51010 91600 333 91228 555 11016 22017=
0108997743999992025011417004+40650-074067FM-13+007299999V0203101N008819999999N999999999-00141+99999101651ADDMD1810091+9999OD159901341999REMSYN068ROBN4 46/// /3117 11014 40165 58009 91700 333 91226 555 11016 22017=
0088997743999992025011418004+40650-074067FM-13+007299999V0203101N009319999999N999999999+99999+99999101591ADDOD159901291999REMSYN062ROBN4 46/// /3118 1//// 40159 91742 333 91225 555 11017 22018=
0108997743999992025011419004+40650-074067FM-13+007299999V0203001N009819999999N999999999-00061+99999101481ADDMD1610311+9999OD159901181999REMSYN068ROBN4 46/// /3019 11006 40148 56031 91900 333 91223 555 11017 22018=
0108997743999992025011420004+40650-074067FM-13+007299999V0202901N010319999999N999999999-00041+99999101511ADDMD1510141+9999OD159901241999REMSYN068ROBN4 46/// /2920 11004 40151 55014 92000 333 91224 555 11018 22020=
0108997743999992025011421004+40650-074067FM-13+007299999V0202901N009819999999N999999999-00051+99999101521ADDMD1610031+9999OD159901341999REMSYN068ROBN4 46/// /2919 11005 40152 56003 92100 333 91226 555 11018 22019=
0108997743999992025011422004+40650-074067FM-13+007299999V0202901N010319999999N999999999-00071+99999101541ADDMD1110061+9999OD159901181999REMSYN068ROBN4 46/// /2920 11007 40154 51006 92200 333 91223 555 11018 22020=
0108997743999992025011423004+40650-074067FM-13+007299999V0202801N009819999999N999999999-00091+99999101591ADDMD1310081+9999OD159901181999REMSYN068ROBN4 46/// /2819 11009 40159 53008 92300 333 91223 555 11017 22018=
0108997743999992025011500004+40650-074067FM-13+007299999V0203001N009819999999N999999999+99999+99999101611ADDMD1210091+9999OD159901181999REMSYN068ROBN4 46/// /3019 1//// 40161 52009 90000 333 91223 555 11017 22019=
0108997743999992025011501004+40650-074067FM-13+007299999V0203001N009819999999N999999999-00141+99999101631ADDMD1110091+9999OD159901181999REMSYN068ROBN4 46/// /3019 11014 40163 51009 90100 333 91223 555 11017 22019=
0108997743999992025011502004+40650-074067FM-13+007299999V0202901N009819999999N999999999-00201+99999101671ADDMD1310081+9999OD159901181999REMSYN068ROBN4 46/// /2919 11020 40167 53008 90200 333 91223 555 11018 22019=
0108997743999992025011503004+40650-074067FM-13+007299999V0203001N009819999999N999999999-00231+99999101721ADDMD1310111+9999OD159901241999REMSYN068ROBN4 46/// /3019 11023 40172 53011 90300 333 91224 555 11017 22019=
0108997743999992025011504004+40650-074067FM-13+007299999V0202901N011819999999N999999999-00331+99999101761ADDMD1210131+9999OD159901291999REMSYN068ROBN4 46/// /2923 11033 40176 52013 90400 333 91225 555 11021 22023=
0108997743999992025011505004+40650-074067FM-13+007299999V0202901N009319999999N999999999-00381+99999101771ADDMD1110101+9999OD159901181999REMSYN068ROBN4 46/// /2918 11038 40177 51010 90500 333 91223 555 11017 22018=
0108997743999992025011506004+40650-074067FM-13+007299999V0203001N010319999999N999999999-00391+99999101751ADDMD1110031+9999OD159901341999REMSYN068ROBN4 46/// /3020 11039 40175 51003 90600 333 91226 555 11018 22020=
0088997743999992025011507004+40650-074067FM-13+007299999V0203001N011819999999N999999999+99999+99999101761ADDOD159901441999REMSYN062ROBN4 46/// /3023 1//// 40176 90636 333 91228 555 11021 22023=
0108997743999992025011508004+40650-074067FM-13+007299999V0203001N009319999999N999999999-00461+99999101841ADDMD1310071+9999OD159901131999REMSYN068ROBN4 46/// /3018 11046 40184 53007 90800 333 91222 555 11017 22018=
0108997743999992025011509004+40650-074067FM-13+007299999V0203001N008219999999N999999999-00501+99999101891ADDMD1110141+9999OD159900981999REMSYN068ROBN4 46/// /3016 11050 40189 51014 90900 333 91219 555 11015 22016=
0108997743999992025011510004+40650-074067FM-13+007299999V0203001N008219999999N999999999-00501+99999101941ADDMD1310131+9999OD159901031999REMSYN068ROBN4 46/// /3016 11050 40194 53013 91000 333 91220 555 11014 22015=
0108997743999992025011511004+40650-074067FM-13+007299999V0202901N006719999999N999999999-00521+99999101971ADDMD1110131+9999OD159900821999REMSYN068ROBN4 46/// /2913 11052 40197 51013 91100 333 91216 555 11012 22013=
0108997743999992025011512004+40650-074067FM-13+007299999V0202901N010319999999N999999999-00521+99999101991ADDMD1110101+9999OD159901181999REMSYN068ROBN4 46/// /2920 11052 40199 51010 91200 333 91223 555 11019 22020=
0108997743999992025011513004+40650-074067FM-13+007299999V0203001N009319999999N999999999-00411+99999102071ADDMD1310131+9999OD159901081999REMSYN068ROBN4 46/// /3018 11041 40207 53013 91300 333 91221 555 11016 22017=
0108997743999992025011514004+40650-074067FM-13+007299999V0203201N009819999999N999999999-00351+99999102131ADDMD1310161+9999OD159901341999REMSYN068ROBN4 46/// /3219 11035 40213 53016 91400 333 91226 555 11018 22019=
0108997743999992025011515004+40650-074067FM-13+007299999V0203301N007219999999N999999999-00291+99999102211ADDMD1210221+9999OD159901081999REMSYN068ROBN4 46/// /3314 11029 40221 52022 91500 333 91221 555 11013 22014=
0108997743999992025011516004+40650-074067FM-13+007299999V0203301N011819999999N999999999-00221+99999102161ADDMD1990091+9999OD159901541999REMSYN068ROBN4 46/// /3323 11022 40216 50009 91600 333 91230 555 11021 22022=
0108997743999992025011517004+40650-074067FM-13+007299999V0203401N010319999999N999999999-00171+99999102101ADDMD1810031+9999OD159901651999REMSYN068ROBN4 46/// /3420 11017 40210 58003 91700 333 91232 555 11019 22020=
0108997743999992025011518004+40650-074067FM-13+007299999V0203201N010319999999N999999999-00091+99999101981ADDMD1810231+9999OD159901291999REMSYN068ROBN4 46/// /3220 11009 40198 58023 91800 333 91225 555 11018 22020=
0108997743999992025011519004+40650-074067FM-13+007299999V0203201N009319999999N999999999-00051+99999101951ADDMD1610211+9999OD159901131999REMSYN068ROBN4 46/// /3218 11005 40195 56021 91900 333 91222 555 11017 22018=
0108997743999992025011520004+40650-074067FM-13+007299999V0203301N009819999999N999999999-00011+99999101901ADDMD1610201+9999OD159901241999REMSYN068ROBN4 46/// /3319 11001 40190 56020 92000 333 91224 555 11018 22019=
0108997743999992025011521004+40650-074067FM-13+007299999V0203201N011819999999N999999999-00021+99999101971ADDMD1510001+9999OD159901491999REMSYN068ROBN4 46/// /3223 11002 40197 55000 92100 333 91229 555 11021 22022=
0088997743999992025011522004+40650-074067FM-13+007299999V0203101N012919999999N999999999-00081+99999102051ADDOD159901541999REMSYN062ROBN4 46/// /3125 11008 40205 92154 333 91230 555 11023 22025=
0108997743999992025011523004+40650-074067FM-13+007299999V0203201N009819999999N999999999-00131+99999102141ADDMD1210241+9999OD159901291999REMSYN068ROBN4 46/// /3219 11013 40214 52024 92300 333 91225 555 11017 22019=
0108997743999992025011600004+40650-074067FM-13+007299999V0203301N004619999999N999999999-00151+99999102181ADDMD1110211+9999OD159900881999REMSYN068ROBN4 46/// /3309 11015 40218 51021 90000 333 91217 555 11008 22009=
0108997743999992025011601004+40650-074067FM-13+007299999V0203301N005719999999N999999999-00191+99999102201ADDMD1110131+9999OD159900721999REMSYN068ROBN4 46/// /3311 11019 40220 51013 90100 333 91214 555 11010 22010=
0108997743999992025011602004+40650-074067FM-13+007299999V0203101N005719999999N999999999-00211+99999102171ADDMD1990031+9999OD159900621999REMSYN068ROBN4 46/// /3111 11021 40217 50003 90200 333 91212 555 11010 22011=
0108997743999992025011603004+40650-074067FM-13+007299999V0203001N005719999999N999999999-00221+99999102141ADDMD1810041+9999OD159900671999REMSYN068ROBN4 46/// /3011 11022 40214 58004 90300 333 91213 555 11010 22011=
0108997743999992025011604004+40650-074067FM-13+007299999V0202901N004119999999N999999999-00221+99999102121ADDMD1610081+9999OD159900511999REMSYN068ROBN4 46/// /2908 11022 40212 56008 90400 333 91210 555 11007 22008=
0108997743999992025011605004+40650-074067FM-13+007299999V0202801N005719999999N999999999-00211+99999102061ADDMD1810111+9999OD159900621999REMSYN068ROBN4 46/// /2811 11021 40206 58011 90500 333 91212 555 11010 22011=
0108997743999992025011606004+40650-074067FM-13+007299999V0202501N005719999999N999999999-00251+99999102031ADDMD1810111+9999OD159900621999REMSYN068ROBN4 46/// /2511 11025 40203 58011 90600 333 91212 555 11010 22010=
0108997743999992025011607004+40650-074067FM-13+007299999V0202601N008219999999N999999999-00311+99999102021ADDMD1610101+9999OD159900881999REMSYN068ROBN4 46/// /2616 11031 40202 56010 90700 333 91217 555 11014 22016=
0108997743999992025011608004+40650-074067FM-13+007299999V0202701N007219999999N999999999-00331+99999102021ADDMD1610041+9999OD159900821999REMSYN068ROBN4 46/// /2714 11033 40202 56004 90800 333 91216 555 11012 22014=
0108997743999992025011609004+40650-074067FM-13+007299999V0202801N005119999999N999999999-00341+99999101951ADDMD1810081+9999OD159900671999REMSYN068ROBN4 46/// /2810 11034 40195 58008 90900 333 91213 555 11009 22010=
0108997743999992025011610004+40650-074067FM-13+007299999V0202801N004119999999N999999999-00361+99999101911ADDMD1810111+9999OD159900571999REMSYN068ROBN4 46/// /2808 11036 40191 58011 91000 333 91211 555 11008 22008=
0108997743999992025011611004+40650-074067FM-13+007299999V0202601N006219999999N999999999-00401+99999101891ADDMD1610131+9999OD159900671999REMSYN068ROBN4 46/// /2612 11040 40189 56013 91100 333 91213 555 11011 22011=
0108997743999992025011612004+40650-074067FM-13+007299999V0202701N004119999999N999999999-00451+99999101861ADDMD1610091+9999OD159900511999REMSYN068ROBN4 46/// /2708 11045 40186 56009 91200 333 91210 555 11008 22008=
0108997743999992025011613004+40650-074067FM-13+007299999V0202701N005119999999N999999999-00491+99999101831ADDMD1810081+9999OD159900671999REMSYN068ROBN4 46/// /2710 11049 40183 58008 91300 333 91213 555 11009 22010=
0108997743999992025011614004+40650-074067FM-13+007299999V0202601N006219999999N999999999-00481+99999101801ADDMD1710091+9999OD159900721999REMSYN068ROBN4 46/// /2612 11048 40180 57009 91400 333 91214 555 11011 22012=
0108997743999992025011615004+40650-074067FM-13+007299999V0202601N005119999999N999999999-00431+99999101731ADDMD1810131+9999OD159900621999REMSYN068ROBN4 46/// /2610 11043 40173 58013 91500 333 91212 555 11009 22010=
0108997743999992025011616004+40650-074067FM-13+007299999V0202501N004119999999N999999999-00381+99999101591ADDMD1810241+9999OD159900571999REMSYN068ROBN4 46/// /2508 11038 40159 58024 91600 333 91211 555 11007 22008=
0108997743999992025011617004+40650-074067FM-13+007299999V0202501N005719999999N999999999-00321+99999101431ADDMD1810371+9999OD159900771999REMSYN068ROBN4 46/// /2511 11032 40143 58037 91700 333 91215 555 11010 22011=
0108997743999992025011618004+40650-074067FM-13+007299999V0202401N007219999999N999999999-00261+99999101261ADDMD1810471+9999OD159900821999REMSYN068ROBN4 46/// /2414 11026 40126 58047 91800 333 91216 555 11013 22014=
0108997743999992025011619004+40650-074067FM-13+007299999V0202401N006219999999N999999999-00201+99999101141ADDMD1610451+9999OD159900931999REMSYN068ROBN4 46/// /2412 11020 40114 56045 91900 333 91218 555 11011 22012=
0108997743999992025011620004+40650-074067FM-13+007299999V0202601N005719999999N999999999-00191+99999101111ADDMD1610321+9999OD159900721999REMSYN068ROBN4 46/// /2611 11019 40111 56032 92000 333 91214 555 11010 22011=
0108997743999992025011621004+40650-074067FM-13+007299999V0202301N007219999999N999999999-00201+99999101051ADDMD1610211+9999OD159900881999REMSYN068ROBN4 46/// /2314 11020 40105 56021 92100 333 91217 555 11013 22014=
0108997743999992025011622004+40650-074067FM-13+007299999V0202301N003619999999N999999999-00201+99999101031ADDMD1610111+9999OD159900461999REMSYN068ROBN4 46/// /2307 11020 40103 56011 92200 333 91209 555 11007 22007=
0108997743999992025011623004+40650-074067FM-13+007299999V0202401N002619999999N999999999-00191+99999101051ADDMD1610061+9999OD159900411999REMSYN068ROBN4 46/// /2405 11019 40105 56006 92300 333 91208 555 11005 22005=
0108997743999992025011700004+40650-074067FM-13+007299999V0202501N004619999999N999999999-00231+99999101061ADDMD1410001+9999OD159900571999REMSYN068ROBN4 46/// /2509 11023 40106 54000 90000 333 91211 555 11009 22009=
0108997743999992025011701004+40650-074067FM-13+007299999V0202501N003619999999N999999999-00241+99999101061ADDMD1210031+9999OD159900511999REMSYN068ROBN4 46/// /2507 11024 40106 52003 90100 333 91210 555 11007 22007=
0108997743999992025011702004+40650-074067FM-13+007299999V0202501N006219999999N999999999-00251+99999101061ADDMD1410001+9999OD159900721999REMSYN068ROBN4 46/// /2512 11025 40106 54000 90200 333 91214 555 11011 22012=
0108997743999992025011703004+40650-074067FM-13+007299999V0202701N005719999999N999999999-00261+99999101091ADDMD1310031+9999OD159900771999REMSYN068ROBN4 46/// /2711 11026 40109 53003 90300 333 91215 555 11010 22011=
0108997743999992025011704004+40650-074067FM-13+007299999V0202801N006219999999N999999999-00301+99999101101ADDMD1210041+9999OD159900721999REMSYN068ROBN4 46/// /2812 11030 40110 52004 90400 333 91214 555 11011 22012=
0108997743999992025011705004+40650-074067FM-13+007299999V0202801N005719999999N999999999-00301+99999101131ADDMD1210071+9999OD159900771999REMSYN068ROBN4 46/// /2811 11030 40113 52007 90500 333 91215 555 11010 22011=
0108997743999992025011706004+40650-074067FM-13+007299999V0202901N004619999999N999999999-00311+99999101161ADDMD1310071+9999OD159900621999REMSYN068ROBN4 46/// /2909 11031 40116 53007 90600 333 91212 555 11008 22009=
0108997743999992025011707004+40650-074067FM-13+007299999V0202901N005119999999N999999999-00311+99999101231ADDMD1310131+9999OD159900621999REMSYN068ROBN4 46/// /2910 11031 40123 53013 90700 333 91212 555 11009 22010=
0108997743999992025011708004+40650-074067FM-13+007299999V0203001N005119999999N999999999-00321+99999101311ADDMD1310181+9999OD159900571999REMSYN068ROBN4 46/// /3010 11032 40131 53018 90800 333 91211 555 11009 22010=
0108997743999992025011709004+40650-074067FM-13+007299999V0202901N005119999999N999999999-00351+99999101381ADDMD1210221+9999OD159900621999REMSYN068ROBN4 46/// /2910 11035 40138 52022 90900 333 91212 555 11009 22010=
0108997743999992025011710004+40650-074067FM-13+007299999V0202901N005119999999N999999999-00321+99999101451ADDMD1110221+9999OD159900571999REMSYN068ROBN4 46/// /2910 11032 40145 51022 91000 333 91211 555 11009 22010=
0108997743999992025011711004+40650-074067FM-13+007299999V0203001N003119999999N999999999-00301+99999101541ADDMD1310231+9999OD159900411999REMSYN068ROBN4 46/// /3006 11030 40154 53023 91100 333 91208 555 11006 22006=
0108997743999992025011712004+40650-074067FM-13+007299999V0202901N004119999999N999999999-00271+99999101661ADDMD1310281+9999OD159900511999REMSYN068ROBN4 46/// /2908 11027 40166 53028 91200 333 91210 555 11008 22008=
0108997743999992025011713004+40650-074067FM-13+007299999V0202801N005119999999N999999999-00271+99999101781ADDMD1310331+9999OD159900621999REMSYN068ROBN4 46/// /2810 11027 40178 53033 91300 333 91212 555 11009 22010=
0108997743999992025011714004+40650-074067FM-13+007299999V0202701N003619999999N999999999-00171+99999101871ADDMD1110331+9999OD159900411999REMSYN068ROBN4 46/// /2707 11017 40187 51033 91400 333 91208 555 11006 22007=
0108997743999992025011715004+40650-074067FM-13+007299999V0202801N004119999999N999999999+99999+99999101921ADDMD1110261+9999OD159900461999REMSYN068ROBN4 46/// /2808 1//// 40192 51026 91500 333 91209 555 11007 22008=
0108997743999992025011716004+40650-074067FM-13+007299999V0202601N005719999999N999999999+00071+99999101911ADDMD1110131+9999OD159900671999REMSYN068ROBN4 46/// /2611 10007 40191 51013 91600 333 91213 555 11010 22011=
0108997743999992025011717004+40650-074067FM-13+007299999V0202901N006219999999N999999999+00201+99999101841ADDMD1810031+9999OD159900671999REMSYN068ROBN4 46/// /2912 10020 40184 58003 91700 333 91213 555 11011 22011=
0108997743999992025011718004+40650-074067FM-13+007299999V0202601N006219999999N999999999+00331+99999101821ADDMD1710101+9999OD159900721999REMSYN068ROBN4 46/// /2612 10033 40182 57010 91800 333 91214 555 11011 22012=
0108997743999992025011719004+40650-074067FM-13+007299999V0202601N005719999999N999999999+99999+99999101801ADDMD1610111+9999OD159900671999REMSYN068ROBN4 46/// /2611 1//// 40180 56011 91900 333 91213 555 11010 22011=
0108997743999992025011720004+40650-074067FM-13+007299999V0202901N005119999999N999999999+00481+99999101821ADDMD1410001+9999OD159900621999REMSYN068ROBN4 46/// /2910 10048 40182 54000 92000 333 91212 555 11009 22010=
0108997743999992025011721004+40650-074067FM-13+007299999V0202701N005119999999N999999999+00491+99999101841ADDMD1410001+9999OD159900571999REMSYN068ROBN4 46/// /2710 10049 40184 54000 92100 333 91211 555 11009 22010=
0108997743999992025011722004+40650-074067FM-13+007299999V0202601N003619999999N999999999+00441+99999101891ADDMD1310091+9999OD159900461999REMSYN068ROBN4 46/// /2607 10044 40189 53009 92200 333 91209 555 11006 22007=
0108997743999992025011723004+40650-074067FM-13+007299999V0202101N004119999999N999999999+00451+99999101931ADDMD1310111+9999OD159900511999REMSYN068ROBN4 46/// /2108 10045 40193 53011 92300 333 91210 555 11007 22008=
0108997743999992025011800004+40650-074067FM-13+007299999V0202201N005719999999N999999999+00431+99999102001ADDMD1310161+9999OD159900621999REMSYN068ROBN4 46/// /2211 10043 40200 53016 90000 333 91212 555 11010 22011=
0108997743999992025011801004+40650-074067FM-13+007299999V0202001N004619999999N999999999+00361+99999102011ADDMD1110121+9999OD159900511999REMSYN068ROBN4 46/// /2009 10036 40201 51012 90100 333 91210 555 11009 22009=
0108997743999992025011802004+40650-074067FM-13+007299999V0201901N006219999999N999999999+00291+99999102001ADDMD1110071+9999OD159900721999REMSYN068ROBN4 46/// /1912 10029 40200 51007 90200 333 91214 555 11011 22012=
0108997743999992025011803004+40650-074067FM-13+007299999V0202101N006219999999N999999999+00271+99999102041ADDMD1310041+9999OD159900821999REMSYN068ROBN4 46/// /2112 10027 40204 53004 90300 333 91216 555 11011 22012=
0108997743999992025011804004+40650-074067FM-13+007299999V0202201N005119999999N999999999+00261+99999102011ADDMD1990001+9999OD159900671999REMSYN068ROBN4 46/// /2210 10026 40201 50000 90400 333 91213 555 11009 22010=
0108997743999992025011805004+40650-074067FM-13+007299999V0202201N006719999999N999999999+00281+99999102011ADDMD1990001+9999OD159900931999REMSYN068ROBN4 46/// /2213 10028 40201 50000 90500 333 91218 555 11012 22013=
0108997743999992025011806004+40650-074067FM-13+007299999V0202001N005719999999N999999999+00141+99999101951ADDMD1810091+9999OD159900671999REMSYN068ROBN4 46/// /2011 10014 40195 58009 90600 333 91213 555 11010 22011=
0108997743999992025011807004+40650-074067FM-13+007299999V0202001N005719999999N999999999+00131+99999101911ADDMD1810101+9999OD159900721999REMSYN068ROBN4 46/// /2011 10013 40191 58010 90700 333 91214 555 11010 22011=
0108997743999992025011808004+40650-074067FM-13+007299999V0202001N006219999999N999999999+00161+99999101911ADDMD1610101+9999OD159900821999REMSYN068ROBN4 46/// /2012 10016 40191 56010 90800 333 91216 555 11011 22012=
0108997743999992025011809004+40650-074067FM-13+007299999V0202001N006219999999N999999999+00191+99999101911ADDMD1610041+9999OD159900821999REMSYN068ROBN4 46/// /2012 10019 40191 56004 90900 333 91216 555 11011 22012=
0108997743999992025011810004+40650-074067FM-13+007299999V0201901N004619999999N999999999+00171+99999101841ADDMD1810071+9999OD159900621999REMSYN068ROBN4 46/// /1909 10017 40184 58007 91000 333 91212 555 11008 22009=
0108997743999992025011811004+40650-074067FM-13+007299999V0201801N008219999999N999999999+00201+99999101741ADDMD1810171+9999OD159900881999REMSYN068ROBN4 46/// /1816 10020 40174 58017 91100 333 91217 555 11015 22016=
0108997743999992025011812004+40650-074067FM-13+007299999V0201801N007219999999N999999999+00251+99999101701ADDMD1610211+9999OD159900821999REMSYN068ROBN4 46/// /1814 10025 40170 56021 91200 333 91216 555 11013 22014=
0108997743999992025011813004+40650-074067FM-13+007299999V0201801N005719999999N999999999+00291+99999101671ADDMD1610171+9999OD159900671999REMSYN068ROBN4 46/// /1811 10029 40167 56017 91300 333 91213 555 11010 22010=
0108997743999992025011814004+40650-074067FM-13+007299999V0201801N006219999999N999999999+00361+99999101621ADDMD1810121+9999OD159900671999REMSYN068ROBN4 46/// /1812 10036 40162 58012 91400 333 91213 555 11011 22012=
0108997743999992025011815004+40650-074067FM-13+007299999V0201701N005119999999N999999999+00451+99999101551ADDMD1810151+9999OD159900571999REMSYN068ROBN4 46/// /1710 10045 40155 58015 91500 333 91211 555 11009 22010=
0108997743999992025011816004+40650-074067FM-13+007299999V0201801N007719999999N999999999+00611+99999101421ADDMD1810251+9999OD159900881999REMSYN068ROBN4 46/// /1815 10061 40142 58025 91600 333 91217 555 11014 22015=
0108997743999992025011817004+40650-074067FM-13+007299999V0201801N007219999999N999999999+99999+99999101281ADDMD1810341+9999OD159900821999REMSYN068ROBN4 46/// /1814 1//// 40128 58034 91700 333 91216 555 11013 22014=
0088997743999992025011818004+40650-074067FM-13+007299999V0201801N005119999999N999999999+99999+99999101111ADDOD159900621999REMSYN062ROBN4 46/// /1810 1//// 40111 91806 333 91212 555 11009 22010=
0108997743999992025011819004+40650-074067FM-13+007299999V0201701N004119999999N999999999+00571+99999101031ADDMD1710391+9999OD159900461999REMSYN068ROBN4 46/// /1708 10057 40103 57039 91900 333 91209 555 11007 22008=
0108997743999992025011820004+40650-074067FM-13+007299999V0209999C000019999999N999999999+00581+99999100891ADDMD1710391+9999OD159900001999REMSYN068ROBN4 46/// /0000 10058 40089 57039 92000 333 91200 555 11000 22000=
0088997743999992025011821004+40650-074067FM-13+007299999V0209999C000019999999N999999999+00591+99999100841ADDOD159900101999REMSYN062ROBN4 46/// /0000 10059 40084 92036 333 91202 555 11000 22000=
0108997743999992025011822004+40650-074067FM-13+007299999V0200701N001019999999N999999999+00591+99999100801ADDMD1610231+9999OD159900211999REMSYN068ROBN4 46/// /0702 10059 40080 56023 92200 333 91204 555 11002 22002=
0108997743999992025011823004+40650-074067FM-13+007299999V0200901N001519999999N999999999+00671+99999100751ADDMD1610141+9999OD159900211999REMSYN068ROBN4 46/// /0903 10067 40075 56014 92300 333 91204 555 11003 22003=
0108997743999992025011900004+40650-074067FM-13+007299999V0202601N001519999999N999999999+99999+99999100781ADDMD1510041+9999OD159900151999REMSYN068ROBN4 46/// /2603 1//// 40078 55004 90000 333 91203 555 11003 22003=
0108997743999992025011901004+40650-074067FM-13+007299999V0202701N002119999999N999999999+00581+99999100791ADDMD1510001+9999OD159900261999REMSYN068ROBN4 46/// /2704 10058 40079 55000 90100 333 91205 555 11004 22004=
0108997743999992025011902004+40650-074067FM-13+007299999V0202501N003119999999N999999999+00581+99999100811ADDMD1110061+9999OD159900311999REMSYN068ROBN4 46/// /2506 10058 40081 51006 90200 333 91206 555 11005 22006=
0108997743999992025011903004+40650-074067FM-13+007299999V0202801N005719999999N999999999+00511+99999100821ADDMD1210041+9999OD159900671999REMSYN068ROBN4 46/// /2811 10051 40082 52004 90300 333 91213 555 11010 22011=
0108997743999992025011904004+40650-074067FM-13+007299999V0202901N005719999999N999999999+00461+99999100831ADDMD1210041+9999OD159900621999REMSYN068ROBN4 46/// /2911 10046 40083 52004 90400 333 91212 555 11010 22011=
0108997743999992025011905004+40650-074067FM-13+007299999V0202801N003619999999N999999999+00391+99999100801ADDMD1990001+9999OD159900411999REMSYN068ROBN4 46/// /2807 10039 40080 50000 90500 333 91208 555 11006 22007=
0108997743999992025011906004+40650-074067FM-13+007299999V0202801N003619999999N999999999+00331+99999100811ADDMD1410001+9999OD159900461999REMSYN068ROBN4 46/// /2807 10033 40081 54000 90600 333 91209 555 11007 22007=
0108997743999992025011907004+40650-074067FM-13+007299999V0202701N004119999999N999999999+99999+99999100861ADDMD1310031+9999OD159900461999REMSYN068ROBN4 46/// /2708 1//// 40086 53003 90700 333 91209 555 11007 22008=
0108997743999992025011908004+40650-074067FM-13+007299999V0203201N003119999999N999999999+00361+99999100831ADDMD1990031+9999OD159900511999REMSYN068ROBN4 46/// /3206 10036 40083 50003 90800 333 91210 555 11005 22006=
0108997743999992025011909004+40650-074067FM-13+007299999V0203001N003619999999N999999999+99999+99999100831ADDMD1990001+9999OD159900461999REMSYN068ROBN4 46/// /3007 1//// 40083 50000 90900 333 91209 555 11006 22007=
0108997743999992025011910004+40650-074067FM-13+007299999V0203201N004119999999N999999999+00381+99999100911ADDMD1310051+9999OD159900571999REMSYN068ROBN4 46/// /3208 10038 40091 53005 91000 333 91211 555 11008 22008=
0108997743999992025011911004+40650-074067FM-13+007299999V0203301N003119999999N999999999+00351+99999100961ADDMD1310131+9999OD159900511999REMSYN068ROBN4 46/// /3306 10035 40096 53013 91100 333 91210 555 11006 22006=
0108997743999992025011912004+40650-074067FM-13+007299999V0203301N002619999999N999999999+00351+99999101021ADDMD1110191+9999OD159900361999REMSYN068ROBN4 46/// /3305 10035 40102 51019 91200 333 91207 555 11004 22005=
0108997743999992025011913004+40650-074067FM-13+007299999V0203401N002619999999N999999999+00331+99999101081ADDMD1310171+9999OD159900311999REMSYN068ROBN4 46/// /3405 10033 40108 53017 91300 333 91206 555 11005 22005=
0088997743999992025011914004+40650-074067FM-13+007299999V0203401N003119999999N999999999+00331+99999101111ADDOD159900461999REMSYN062ROBN4 46/// /3406 10033 40111 91336 333 91209 555 11006 22006=
0108997743999992025011915004+40650-074067FM-13+007299999V0203501N006219999999N999999999+00331+99999101111ADDMD1110091+9999OD159900771999REMSYN068ROBN4 46/// /3512 10033 40111 51009 91500 333 91215 555 11011 22012=
0088997743999992025011916004+40650-074067FM-13+007299999V0200101N005119999999N999999999+99999+99999100981ADDOD159900621999REMSYN062ROBN4 46/// /0110 1//// 40098 91630 333 91212 555 11009 22010=
0108997743999992025011917004+40650-074067FM-13+007299999V0200201N004619999999N999999999+99999+99999100931ADDMD1810131+9999OD159900621999REMSYN068ROBN4 46/// /0209 1//// 40093 58013 91700 333 91212 555 11008 22009=
0108997743999992025011918004+40650-074067FM-13+007299999V0200101N004619999999N999999999+00331+99999100751ADDMD1810361+9999OD159900571999REMSYN068ROBN4 46/// /0109 10033 40075 58036 91800 333 91211 555 11008 22009=
0108997743999992025011919004+40650-074067FM-13+007299999V0203601N004119999999N999999999+00221+99999100721ADDMD1610331+9999OD159900621999REMSYN068ROBN4 46/// /3608 10022 40072 56033 91900 333 91212 555 11007 22008=
0108997743999992025011920004+40650-074067FM-13+007299999V0200101N006219999999N999999999+00101+99999100551ADDMD1610381+9999OD159900721999REMSYN068ROBN4 46/// /0112 10010 40055 56038 92000 333 91214 555 11011 22012=
0088997743999992025011921004+40650-074067FM-13+007299999V0200201N006219999999N999999999+99999+99999100471ADDOD159900881999REMSYN062ROBN4 46/// /0212 1//// 40047 92036 333 91217 555 11011 22012=
0108997743999992025011922004+40650-074067FM-13+007299999V0203401N006719999999N999999999-00011+99999100511ADDMD1510211+9999OD159900981999REMSYN068ROBN4 46/// /3413 11001 40051 55021 92200 333 91219 555 11012 22013=
0108997743999992025011923004+40650-074067FM-13+007299999V0203601N010819999999N999999999-00051+99999100411ADDMD1710141+9999OD159901391999REMSYN068ROBN4 46/// /3621 11005 40041 57014 92300 333 91227 555 11019 22021=
0108997743999992025012000004+40650-074067FM-13+007299999V0203501N009319999999N999999999-00101+99999100461ADDMD1990001+9999OD159901131999REMSYN068ROBN4 46/// /3518 11010 40046 50000 90000 333 91222 555 11016 22018=
0108997743999992025012001004+40650-074067FM-13+007299999V0203401N007719999999N999999999-00141+99999100521ADDMD1510001+9999OD159900931999REMSYN068ROBN4 46/// /3415 11014 40052 55000 90100 333 91218 555 11013 22015=
0108997743999992025012002004+40650-074067FM-13+007299999V0203501N007719999999N999999999-00161+99999100531ADDMD1110121+9999OD159901131999REMSYN068ROBN4 46/// /3515 11016 40053 51012 90200 333 91222 555 11014 22015=
0108997743999992025012003004+40650-074067FM-13+007299999V0203301N007719999999N999999999-00201+99999100611ADDMD1310151+9999OD159900981999REMSYN068ROBN4 46/// /3315 11020 40061 53015 90300 333 91219 555 11014 22015=
0108997743999992025012004004+40650-074067FM-13+007299999V0203201N007719999999N999999999-00251+99999100761ADDMD1310241+9999OD159901031999REMSYN068ROBN4 46/// /3215 11025 40076 53024 90400 333 91220 555 11014 22015=
0108997743999992025012005004+40650-074067FM-13+007299999V0203101N010319999999N999999999-00441+99999100901ADDMD1310371+9999OD159901291999REMSYN068ROBN4 46/// /3120 11044 40090 53037 90500 333 91225 555 11019 22020=
0108997743999992025012006004+40650-074067FM-13+007299999V0203101N009819999999N999999999-00531+99999101031ADDMD1110421+9999OD159901181999REMSYN068ROBN4 46/// /3119 11053 40103 51042 90600 333 91223 555 11017 22019=
0108997743999992025012007004+40650-074067FM-13+007299999V0203101N007719999999N999999999+99999+99999101191ADDMD1310431+9999OD159900931999REMSYN068ROBN4 46/// /3115 1//// 40119 53043 90700 333 91218 555 11013 22015=
0108997743999992025012008004+40650-074067FM-13+007299999V0203101N010319999999N999999999-00571+99999101291ADDMD1110391+9999OD159901391999REMSYN068ROBN4 46/// /3120 11057 40129 51039 90800 333 91227 555 11018 22020=
0108997743999992025012009004+40650-074067FM-13+007299999V0203101N008819999999N999999999-00591+99999101451ADDMD1210421+9999OD159901081999REMSYN068ROBN4 46/// /3117 11059 40145 52042 90900 333 91221 555 11015 22017=
0088997743999992025012010004+40650-074067FM-13+007299999V0203201N008219999999N999999999-00661+99999101681ADDOD159900931999REMSYN062ROBN4 46/// /3216 11066 40168 91024 333 91218 555 11014 22015=
0108997743999992025012011004+40650-074067FM-13+007299999V0203201N008819999999N999999999-00671+99999101821ADDMD1310531+9999OD159901081999REMSYN068ROBN4 46/// /3217 11067 40182 53053 91100 333 91221 555 11016 22017=
0108997743999992025012012004+40650-074067FM-13+007299999V0203101N007719999999N999999999-00721+99999102001ADDMD1310551+9999OD159900931999REMSYN068ROBN4 46/// /3115 11072 40200 53055 91200 333 91218 555 11013 22015=
0108997743999992025012013004+40650-074067FM-13+007299999V0203001N008219999999N999999999-00711+99999102141ADDMD1110521+9999OD159901031999REMSYN068ROBN4 46/// /3016 11071 40214 51052 91300 333 91220 555 11014 22016=
0088997743999992025012014004+40650-074067FM-13+007299999V0203101N008219999999N999999999-00731+99999102321ADDOD159901131999REMSYN062ROBN4 46/// /3116 11073 40232 91406 333 91222 555 11015 22016=
