0108997779999992024010100004+39300-075367FM-13+000399999V0202001N002619999999N999999999+00681+99999101681ADDMD1110091+9999OD159900311999REMSYN068SJSN4 46/// /2005 10068 40168 51009 90000 333 91206 555 11005 22006=
0108997779999992024010101004+39300-075367FM-13+000399999V0202001N003619999999N999999999+00661+99999101681ADDMD1110061+9999OD159900361999REMSYN068SJSN4 46/// /2007 10066 40168 51006 90100 333 91207 555 11006 22007=
0108997779999992024010102004+39300-075367FM-13+000399999V0202001N003619999999N999999999+00611+99999101681ADDMD1410001+9999OD159900411999REMSYN068SJSN4 46/// /2007 10061 40168 54000 90200 333 91208 555 11007 22008=
0108997779999992024010103004+39300-075367FM-13+000399999V0201901N003619999999N999999999+00631+99999101701ADDMD1410001+9999OD159900461999REMSYN068SJSN4 46/// /1907 10063 40170 54000 90300 333 91209 555 11007 22008=
0108997779999992024010104004+39300-075367FM-13+000399999V0202101N005119999999N999999999+00561+99999101691ADDMD1410001+9999OD159900621999REMSYN068SJSN4 46/// /2110 10056 40169 54000 90400 333 91212 555 11009 22010=
0108997779999992024010105004+39300-075367FM-13+000399999V0202101N005119999999N999999999+00581+99999101651ADDMD1810031+9999OD159900671999REMSYN068SJSN4 46/// /2110 10058 40165 58003 90500 333 91213 555 11009 22010=
0108997779999992024010106004+39300-075367FM-13+000399999V0201901N003619999999N999999999+00591+99999101591ADDMD1810111+9999OD159900411999REMSYN068SJSN4 46/// /1907 10059 40159 58011 90600 333 91208 555 11006 22007=
0108997779999992024010107004+39300-075367FM-13+000399999V0202001N003619999999N999999999+00601+99999101611ADDMD1610081+9999OD159900411999REMSYN068SJSN4 46/// /2007 10060 40161 56008 90700 333 91208 555 11007 22008=
0108997779999992024010108004+39300-075367FM-13+000399999V0201501N002619999999N999999999+00581+99999101551ADDMD1710101+9999OD159900311999REMSYN068SJSN4 46/// /1505 10058 40155 57010 90800 333 91206 555 11005 22005=
0108997779999992024010109004+39300-075367FM-13+000399999V0201701N002119999999N999999999+00591+99999101531ADDMD1710061+9999OD159900311999REMSYN068SJSN4 46/// /1704 10059 40153 57006 90900 333 91206 555 11004 22004=
0108997779999992024010110004+39300-075367FM-13+000399999V0202101N002119999999N999999999+00581+99999101521ADDMD1610091+9999OD159900211999REMSYN068SJSN4 46/// /2104 10058 40152 56009 91000 333 91204 555 11003 22004=
0108997779999992024010111004+39300-075367FM-13+000399999V0201801N002119999999N999999999+00551+99999101531ADDMD1410001+9999OD159900211999REMSYN068SJSN4 46/// /1804 10055 40153 54000 91100 333 91204 555 11004 22004=
0108997779999992024010112004+39300-075367FM-13+000399999V0202601N001019999999N999999999+00561+99999101581ADDMD1310051+9999OD159900151999REMSYN068SJSN4 46/// /2602 10056 40158 53005 91200 333 91203 555 11002 22002=
0108997779999992024010113004+39300-075367FM-13+000399999V0202501N001519999999N999999999+00561+99999101631ADDMD1310111+9999OD159900211999REMSYN068SJSN4 46/// /2503 10056 40163 53011 91300 333 91204 555 11003 22003=
0108997779999992024010114004+39300-075367FM-13+000399999V0203301N002119999999N999999999+00531+99999101671ADDMD1110141+9999OD159900261999REMSYN068SJSN4 46/// /3304 10053 40167 51014 91400 333 91205 555 11004 22004=
0108997779999992024010115004+39300-075367FM-13+000399999V0200201N004119999999N999999999+00481+99999101711ADDMD1110131+9999OD159900411999REMSYN068SJSN4 46/// /0208 10048 40171 51013 91500 333 91208 555 11007 22008=
0108997779999992024010116004+39300-075367FM-13+000399999V0200301N002619999999N999999999+00571+99999101711ADDMD1110081+9999OD159900361999REMSYN068SJSN4 46/// /0305 10057 40171 51008 91600 333 91207 555 11005 22005=
0108997779999992024010117004+39300-075367FM-13+000399999V0201901N001019999999N999999999+00631+99999101661ADDMD1990001+9999OD159900151999REMSYN068SJSN4 46/// /1902 10063 40166 50000 91700 333 91203 555 11002 22002=
0108997779999992024010118004+39300-075367FM-13+000399999V0202601N001519999999N999999999+00641+99999101601ADDMD1810111+9999OD159900211999REMSYN068SJSN4 46/// /2603 10064 40160 58011 91800 333 91204 555 11003 22003=
0108997779999992024010119004+39300-075367FM-13+000399999V0203101N005719999999N999999999+00721+99999101601ADDMD1610111+9999OD159900621999REMSYN068SJSN4 46/// /3111 10072 40160 56011 91900 333 91212 555 11011 22012=
0108997779999992024010120004+39300-075367FM-13+000399999V0203201N005719999999N999999999+00711+99999101641ADDMD1510001+9999OD159900621999REMSYN068SJSN4 46/// /3211 10071 40164 55000 92000 333 91212 555 11010 22011=
0108997779999992024010121004+39300-075367FM-13+000399999V0203201N006719999999N999999999+99999+99999101661ADDMD1210061+9999OD159900721999REMSYN068SJSN4 46/// /3213 1//// 40166 52006 92100 333 91214 555 11013 22014=
0108997779999992024010122004+39300-075367FM-13+000399999V0203201N007219999999N999999999+00641+99999101711ADDMD1310111+9999OD159900771999REMSYN068SJSN4 46/// /3214 10064 40171 53011 92200 333 91215 555 11013 22014=
0108997779999992024010123004+39300-075367FM-13+000399999V0203101N006219999999N999999999+00601+99999101771ADDMD1310131+9999OD159900671999REMSYN068SJSN4 46/// /3112 10060 40177 53013 92300 333 91213 555 11012 22013=
0108997779999992024010200004+39300-075367FM-13+000399999V0203201N006719999999N999999999+00601+99999101801ADDMD1110141+9999OD159900721999REMSYN068SJSN4 46/// /3213 10060 40180 51014 90000 333 91214 555 11012 22014=
0108997779999992024010201004+39300-075367FM-13+000399999V0203301N007219999999N999999999+00571+99999101831ADDMD1110121+9999OD159900821999REMSYN068SJSN4 46/// /3314 10057 40183 51012 90100 333 91216 555 11014 22015=
0108997779999992024010202004+39300-075367FM-13+000399999V0203301N006719999999N999999999+00561+99999101861ADDMD1210091+9999OD159900771999REMSYN068SJSN4 46/// /3313 10056 40186 52009 90200 333 91215 555 11013 22014=
0108997779999992024010203004+39300-075367FM-13+000399999V0203401N006719999999N999999999+00551+99999101861ADDMD1110061+9999OD159900721999REMSYN068SJSN4 46/// /3413 10055 40186 51006 90300 333 91214 555 11012 22013=
0108997779999992024010204004+39300-075367FM-13+000399999V0203501N006219999999N999999999+00551+99999101871ADDMD1110041+9999OD159900721999REMSYN068SJSN4 46/// /3512 10055 40187 51004 90400 333 91214 555 11012 22013=
0108997779999992024010205004+39300-075367FM-13+000399999V0203601N005719999999N999999999+00531+99999101871ADDMD1410001+9999OD159900721999REMSYN068SJSN4 46/// /3611 10053 40187 54000 90500 333 91214 555 11011 22012=
0108997779999992024010206004+39300-075367FM-13+000399999V0203501N006719999999N999999999+00481+99999101871ADDMD1410001+9999OD159900721999REMSYN068SJSN4 46/// /3513 10048 40187 54000 90600 333 91214 555 11012 22014=
0108997779999992024010207004+39300-075367FM-13+000399999V0200101N006719999999N999999999+00371+99999101901ADDMD1310031+9999OD159900821999REMSYN068SJSN4 46/// /0113 10037 40190 53003 90700 333 91216 555 11012 22013=
0108997779999992024010208004+39300-075367FM-13+000399999V0203601N007219999999N999999999+00261+99999101931ADDMD1310061+9999OD159900821999REMSYN068SJSN4 46/// /3614 10026 40193 53006 90800 333 91216 555 11014 22015=
0108997779999992024010209004+39300-075367FM-13+000399999V0203601N007719999999N999999999+00231+99999101921ADDMD1110051+9999OD159900881999REMSYN068SJSN4 46/// /3615 10023 40192 51005 90900 333 91217 555 11014 22015=
0108997779999992024010210004+39300-075367FM-13+000399999V0200101N006219999999N999999999+00171+99999101941ADDMD1110041+9999OD159900671999REMSYN068SJSN4 46/// /0112 10017 40194 51004 91000 333 91213 555 11011 22012=
0108997779999992024010211004+39300-075367FM-13+000399999V0200101N005119999999N999999999+00141+99999102021ADDMD1310091+9999OD159900621999REMSYN068SJSN4 46/// /0110 10014 40202 53009 91100 333 91212 555 11010 22011=
0108997779999992024010212004+39300-075367FM-13+000399999V0203601N004619999999N999999999+00171+99999102061ADDMD1310141+9999OD159900571999REMSYN068SJSN4 46/// /3609 10017 40206 53014 91200 333 91211 555 11009 22010=
0108997779999992024010213004+39300-075367FM-13+000399999V0203601N004619999999N999999999+00201+99999102091ADDMD1110151+9999OD159900571999REMSYN068SJSN4 46/// /3609 10020 40209 51015 91300 333 91211 555 11009 22010=
0108997779999992024010214004+39300-075367FM-13+000399999V0203501N005119999999N999999999+00261+99999102131ADDMD1210111+9999OD159900571999REMSYN068SJSN4 46/// /3510 10026 40213 52011 91400 333 91211 555 11009 22010=
0108997779999992024010215004+39300-075367FM-13+000399999V0203501N007219999999N999999999+00301+99999102161ADDMD1210101+9999OD159900821999REMSYN068SJSN4 46/// /3514 10030 40216 52010 91500 333 91216 555 11013 22015=
0108997779999992024010216004+39300-075367FM-13+000399999V0203301N008219999999N999999999+00321+99999102111ADDMD1990001+9999OD159900981999REMSYN068SJSN4 46/// /3316 10032 40211 50000 91600 333 91219 555 11015 22016=
0108997779999992024010217004+39300-075367FM-13+000399999V0203101N008219999999N999999999+00321+99999101991ADDMD1810141+9999OD159900931999REMSYN068SJSN4 46/// /3116 10032 40199 58014 91700 333 91218 555 11015 22016=
0108997779999992024010218004+39300-075367FM-13+000399999V0202901N007719999999N999999999+00351+99999101881ADDMD1810281+9999OD159900931999REMSYN068SJSN4 46/// /2915 10035 40188 58028 91800 333 91218 555 11015 22016=
0108997779999992024010219004+39300-075367FM-13+000399999V0203101N007719999999N999999999+00411+99999101821ADDMD1610291+9999OD159900881999REMSYN068SJSN4 46/// /3115 10041 40182 56029 91900 333 91217 555 11015 22016=
0108997779999992024010220004+39300-075367FM-13+000399999V0203101N008819999999N999999999+00491+99999101791ADDMD1610201+9999OD159900981999REMSYN068SJSN4 46/// /3117 10049 40179 56020 92000 333 91219 555 11016 22018=
0108997779999992024010221004+39300-075367FM-13+000399999V0203101N007219999999N999999999+00531+99999101791ADDMD1610091+9999OD159900821999REMSYN068SJSN4 46/// /3114 10053 40179 56009 92100 333 91216 555 11014 22015=
0108997779999992024010222004+39300-075367FM-13+000399999V0203001N007719999999N999999999+00531+99999101831ADDMD1510001+9999OD159900821999REMSYN068SJSN4 46/// /3015 10053 40183 55000 92200 333 91216 555 11014 22015=
0108997779999992024010223004+39300-075367FM-13+000399999V0203001N005719999999N999999999+00521+99999101841ADDMD1210051+9999OD159900671999REMSYN068SJSN4 46/// /3011 10052 40184 52005 92300 333 91213 555 11010 22011=
0108997779999992024010300004+39300-075367FM-13+000399999V0202901N003619999999N999999999+00471+99999101861ADDMD1110071+9999OD159900411999REMSYN068SJSN4 46/// /2907 10047 40186 51007 90000 333 91208 555 11006 22007=
0108997779999992024010301004+39300-075367FM-13+000399999V0202701N003619999999N999999999+00441+99999101871ADDMD1210041+9999OD159900411999REMSYN068SJSN4 46/// /2707 10044 40187 52004 90100 333 91208 555 11007 22008=
0108997779999992024010302004+39300-075367FM-13+000399999V0202801N004619999999N999999999+00381+99999101861ADDMD1410001+9999OD159900511999REMSYN068SJSN4 46/// /2809 10038 40186 54000 90200 333 91210 555 11008 22009=
0108997779999992024010303004+39300-075367FM-13+000399999V0202701N003619999999N999999999+00331+99999101861ADDMD1410001+9999OD159900411999REMSYN068SJSN4 46/// /2707 10033 40186 54000 90300 333 91208 555 11007 22008=
0108997779999992024010304004+39300-075367FM-13+000399999V0202601N003119999999N999999999+00301+99999101871ADDMD1410001+9999OD159900411999REMSYN068SJSN4 46/// /2606 10030 40187 54000 90400 333 91208 555 11006 22006=
0108997779999992024010305004+39300-075367FM-13+000399999V0203101N006719999999N999999999+00371+99999101871ADDMD1410001+9999OD159900771999REMSYN068SJSN4 46/// /3113 10037 40187 54000 90500 333 91215 555 11013 22014=
0108997779999992024010306004+39300-075367FM-13+000399999V0202901N005119999999N999999999+00281+99999101841ADDMD1990001+9999OD159900621999REMSYN068SJSN4 46/// /2910 10028 40184 50000 90600 333 91212 555 11010 22010=
0108997779999992024010307004+39300-075367FM-13+000399999V0203001N006219999999N999999999+00291+99999101851ADDMD1410001+9999OD159900721999REMSYN068SJSN4 46/// /3012 10029 40185 54000 90700 333 91214 555 11011 22012=
0108997779999992024010308004+39300-075367FM-13+000399999V0202801N005719999999N999999999+00231+99999101851ADDMD1510001+9999OD159900621999REMSYN068SJSN4 46/// /2811 10023 40185 55000 90800 333 91212 555 11010 22011=
0108997779999992024010309004+39300-075367FM-13+000399999V0202801N006219999999N999999999+00211+99999101831ADDMD1410001+9999OD159900671999REMSYN068SJSN4 46/// /2812 10021 40183 54000 90900 333 91213 555 11011 22012=
0108997779999992024010310004+39300-075367FM-13+000399999V0202901N005719999999N999999999+00191+99999101841ADDMD1410001+9999OD159900621999REMSYN068SJSN4 46/// /2911 10019 40184 54000 91000 333 91212 555 11011 22012=
0108997779999992024010311004+39300-075367FM-13+000399999V0202801N005719999999N999999999+00191+99999101861ADDMD1410001+9999OD159900671999REMSYN068SJSN4 46/// /2811 10019 40186 54000 91100 333 91213 555 11011 22012=
0108997779999992024010312004+39300-075367FM-13+000399999V0202601N005119999999N999999999+00131+99999101931ADDMD1310101+9999OD159900571999REMSYN068SJSN4 46/// /2610 10013 40193 53010 91200 333 91211 555 11010 22011=
0108997779999992024010313004+39300-075367FM-13+000399999V0202601N004619999999N999999999+00141+99999101951ADDMD1210111+9999OD159900571999REMSYN068SJSN4 46/// /2609 10014 40195 52011 91300 333 91211 555 11008 22009=
0108997779999992024010314004+39300-075367FM-13+000399999V0202601N003619999999N999999999+00171+99999101971ADDMD1110111+9999OD159900511999REMSYN068SJSN4 46/// /2607 10017 40197 51011 91400 333 91210 555 11007 22008=
0108997779999992024010315004+39300-075367FM-13+000399999V0202901N004619999999N999999999+00261+99999101971ADDMD1210041+9999OD159900511999REMSYN068SJSN4 46/// /2909 10026 40197 52004 91500 333 91210 555 11009 22009=
0108997779999992024010316004+39300-075367FM-13+000399999V0203101N003619999999N999999999+00331+99999101941ADDMD1990001+9999OD159900411999REMSYN068SJSN4 46/// /3107 10033 40194 50000 91600 333 91208 555 11007 22007=
0108997779999992024010317004+39300-075367FM-13+000399999V0203001N003619999999N999999999+00371+99999101881ADDMD1810091+9999OD159900411999REMSYN068SJSN4 46/// /3007 10037 40188 58009 91700 333 91208 555 11007 22008=
0108997779999992024010318004+39300-075367FM-13+000399999V0203301N003119999999N999999999+00421+99999101791ADDMD1810181+9999OD159900361999REMSYN068SJSN4 46/// /3306 10042 40179 58018 91800 333 91207 555 11006 22006=
0108997779999992024010319004+39300-075367FM-13+000399999V0203501N003119999999N999999999+00471+99999101661ADDMD1810281+9999OD159900411999REMSYN068SJSN4 46/// /3506 10047 40166 58028 91900 333 91208 555 11006 22006=
0108997779999992024010320004+39300-075367FM-13+000399999V0203201N002119999999N999999999+00541+99999101661ADDMD1610221+9999OD159900311999REMSYN068SJSN4 46/// /3204 10054 40166 56022 92000 333 91206 555 11003 22004=
0108997779999992024010321004+39300-075367FM-13+000399999V0203301N000519999999N999999999+00581+99999101691ADDMD1510101+9999OD159900151999REMSYN068SJSN4 46/// /3301 10058 40169 55010 92100 333 91203 555 11001 22001=
0108997779999992024010322004+39300-075367FM-13+000399999V0203201N000519999999N999999999+00521+99999101671ADDMD1410001+9999OD159900101999REMSYN068SJSN4 46/// /3201 10052 40167 54000 92200 333 91202 555 11001 22001=
0108997779999992024010323004+39300-075367FM-13+000399999V0201801N002119999999N999999999+00531+99999101701ADDMD1210041+9999OD159900261999REMSYN068SJSN4 46/// /1804 10053 40170 52004 92300 333 91205 555 11004 22004=
0108997779999992024010400004+39300-075367FM-13+000399999V0201601N002119999999N999999999+00511+99999101691ADDMD1410001+9999OD159900261999REMSYN068SJSN4 46/// /1604 10051 40169 54000 90000 333 91205 555 11004 22004=
0108997779999992024010401004+39300-075367FM-13+000399999V0201701N003619999999N999999999+00501+99999101641ADDMD1810031+9999OD159900411999REMSYN068SJSN4 46/// /1707 10050 40164 58003 90100 333 91208 555 11006 22007=
0108997779999992024010402004+39300-075367FM-13+000399999V0201601N003619999999N999999999+00511+99999101631ADDMD1710071+9999OD159900411999REMSYN068SJSN4 46/// /1607 10051 40163 57007 90200 333 91208 555 11007 22007=
0108997779999992024010403004+39300-075367FM-13+000399999V0201601N004119999999N999999999+00531+99999101631ADDMD1610061+9999OD159900461999REMSYN068SJSN4 46/// /1608 10053 40163 56006 90300 333 91209 555 11007 22008=
0108997779999992024010404004+39300-075367FM-13+000399999V0202001N002619999999N999999999+00481+99999101621ADDMD1410001+9999OD159900361999REMSYN068SJSN4 46/// /2005 10048 40162 54000 90400 333 91207 555 11004 22005=
0108997779999992024010405004+39300-075367FM-13+000399999V0202101N002619999999N999999999+00481+99999101581ADDMD1810051+9999OD159900261999REMSYN068SJSN4 46/// /2105 10048 40158 58005 90500 333 91205 555 11004 22005=
0108997779999992024010406004+39300-075367FM-13+000399999V0202101N001019999999N999999999+00471+99999101511ADDMD1810121+9999OD159900101999REMSYN068SJSN4 46/// /2102 10047 40151 58012 90600 333 91202 555 11002 22002=
0108997779999992024010407004+39300-075367FM-13+000399999V0202601N001019999999N999999999+00501+99999101471ADDMD1710151+9999OD159900151999REMSYN068SJSN4 46/// /2602 10050 40147 57015 90700 333 91203 555 11002 22002=
0108997779999992024010408004+39300-075367FM-13+000399999V0201701N001519999999N999999999+00451+99999101451ADDMD1610131+9999OD159900211999REMSYN068SJSN4 46/// /1703 10045 40145 56013 90800 333 91204 555 11003 22003=
0108997779999992024010409004+39300-075367FM-13+000399999V0202401N001519999999N999999999+00471+99999101431ADDMD1610081+9999OD159900151999REMSYN068SJSN4 46/// /2403 10047 40143 56008 90900 333 91203 555 11003 22003=
0108997779999992024010410004+39300-075367FM-13+000399999V0203101N003619999999N999999999+00471+99999101391ADDMD1810081+9999OD159900461999REMSYN068SJSN4 46/// /3107 10047 40139 58008 91000 333 91209 555 11007 22007=
0088997779999992024010411004+39300-075367FM-13+000399999V0202501N003619999999N999999999+00421+99999101421ADDOD159900411999REMSYN062SJSN4 46/// /2507 10042 40142 91042 333 91208 555 11007 22008=
0108997779999992024010412004+39300-075367FM-13+000399999V0202801N003619999999N999999999+00411+99999101501ADDMD1210071+9999OD159900461999REMSYN068SJSN4 46/// /2807 10041 40150 52007 91200 333 91209 555 11007 22007=
0108997779999992024010413004+39300-075367FM-13+000399999V0203101N004619999999N999999999+00381+99999101551ADDMD1210161+9999OD159900511999REMSYN068SJSN4 46/// /3109 10038 40155 52016 91300 333 91210 555 11009 22009=
0088997779999992024010414004+39300-075367FM-13+000399999V0203201N004619999999N999999999+00411+99999101571ADDOD159900511999REMSYN062SJSN4 46/// /3209 10041 40157 91342 333 91210 555 11008 22009=
0108997779999992024010415004+39300-075367FM-13+000399999V0203001N005119999999N999999999+00371+99999101651ADDMD1310151+9999OD159900571999REMSYN068SJSN4 46/// /3010 10037 40165 53015 91500 333 91211 555 11010 22010=
0108997779999992024010416004+39300-075367FM-13+000399999V0203101N006219999999N999999999+00451+99999101661ADDMD1110111+9999OD159900771999REMSYN068SJSN4 46/// /3112 10045 40166 51011 91600 333 91215 555 11012 22013=
0108997779999992024010417004+39300-075367FM-13+000399999V0203201N010819999999N999999999+00521+99999101641ADDMD1110051+9999OD159901181999REMSYN068SJSN4 46/// /3221 10052 40164 51005 91700 333 91223 555 11020 22021=
0108997779999992024010418004+39300-075367FM-13+000399999V0203301N009319999999N999999999+00551+99999101621ADDMD1710031+9999OD159901081999REMSYN068SJSN4 46/// /3318 10055 40162 57003 91800 333 91221 555 11017 22019=
0108997779999992024010419004+39300-075367FM-13+000399999V0203301N010819999999N999999999+00591+99999101641ADDMD1410001+9999OD159901181999REMSYN068SJSN4 46/// /3321 10059 40164 54000 91900 333 91223 555 11020 22021=
0108997779999992024010420004+39300-075367FM-13+000399999V0203101N009319999999N999999999+00551+99999101711ADDMD1310071+9999OD159901181999REMSYN068SJSN4 46/// /3118 10055 40171 53007 92000 333 91223 555 11017 22019=
0108997779999992024010421004+39300-075367FM-13+000399999V0203301N009819999999N999999999+00571+99999101801ADDMD1310181+9999OD159901181999REMSYN068SJSN4 46/// /3319 10057 40180 53018 92100 333 91223 555 11018 22020=
0108997779999992024010422004+39300-075367FM-13+000399999V0203201N010319999999N999999999+00551+99999101911ADDMD1310271+9999OD159901291999REMSYN068SJSN4 46/// /3220 10055 40191 53027 92200 333 91225 555 11019 22021=
0108997779999992024010423004+39300-075367FM-13+000399999V0203201N011319999999N999999999+00511+99999102041ADDMD1310331+9999OD159901541999REMSYN068SJSN4 46/// /3222 10051 40204 53033 92300 333 91230 555 11021 22023=
0108997779999992024010500004+39300-075367FM-13+000399999V0203201N012919999999N999999999+00431+99999102161ADDMD1310361+9999OD159901441999REMSYN068SJSN4 46/// /3225 10043 40216 53036 90000 333 91228 555 11024 22026=
0108997779999992024010501004+39300-075367FM-13+000399999V0203301N011319999999N999999999+00341+99999102251ADDMD1110341+9999OD159901241999REMSYN068SJSN4 46/// /3322 10034 40225 51034 90100 333 91224 555 11021 22022=
0108997779999992024010502004+39300-075367FM-13+000399999V0203401N009819999999N999999999+00271+99999102301ADDMD1110261+9999OD159901131999REMSYN068SJSN4 46/// /3419 10027 40230 51026 90200 333 91222 555 11018 22019=
0108997779999992024010503004+39300-075367FM-13+000399999V0203401N009319999999N999999999+00231+99999102381ADDMD1110221+9999OD159901081999REMSYN068SJSN4 46/// /3418 10023 40238 51022 90300 333 91221 555 11017 22019=
0108997779999992024010504004+39300-075367FM-13+000399999V0203301N010319999999N999999999+00191+99999102441ADDMD1310191+9999OD159901181999REMSYN068SJSN4 46/// /3320 10019 40244 53019 90400 333 91223 555 11019 22020=
0108997779999992024010505004+39300-075367FM-13+000399999V0203401N010819999999N999999999+00111+99999102491ADDMD1110191+9999OD159901291999REMSYN068SJSN4 46/// /3421 10011 40249 51019 90500 333 91225 555 11020 22022=
0108997779999992024010506004+39300-075367FM-13+000399999V0203401N007719999999N999999999+00051+99999102471ADDMD1110091+9999OD159900931999REMSYN068SJSN4 46/// /3415 10005 40247 51009 90600 333 91218 555 11014 22016=
0108997779999992024010507004+39300-075367FM-13+000399999V0203401N009319999999N999999999+00021+99999102531ADDMD1310091+9999OD159901081999REMSYN068SJSN4 46/// /3418 10002 40253 53009 90700 333 91221 555 11017 22018=
0108997779999992024010508004+39300-075367FM-13+000399999V0203401N008219999999N999999999-00011+99999102581ADDMD1310091+9999OD159900981999REMSYN068SJSN4 46/// /3416 11001 40258 53009 90800 333 91219 555 11015 22016=
0108997779999992024010509004+39300-075367FM-13+000399999V0203401N009819999999N999999999-00081+99999102611ADDMD1110141+9999OD159901081999REMSYN068SJSN4 46/// /3419 11008 40261 51014 90900 333 91221 555 11018 22019=
0108997779999992024010510004+39300-075367FM-13+000399999V0203401N007719999999N999999999-00131+99999102671ADDMD1310141+9999OD159900931999REMSYN068SJSN4 46/// /3415 11013 40267 53014 91000 333 91218 555 11014 22016=
0108997779999992024010511004+39300-075367FM-13+000399999V0203401N008219999999N999999999-00171+99999102741ADDMD1310161+9999OD159901031999REMSYN068SJSN4 46/// /3416 11017 40274 53016 91100 333 91220 555 11016 22017=
0108997779999992024010512004+39300-075367FM-13+000399999V0203401N007719999999N999999999-00211+99999102831ADDMD1310221+9999OD159900981999REMSYN068SJSN4 46/// /3415 11021 40283 53022 91200 333 91219 555 11015 22016=
0108997779999992024010513004+39300-075367FM-13+000399999V0203401N006719999999N999999999-00201+99999102911ADDMD1310241+9999OD159900821999REMSYN068SJSN4 46/// /3413 11020 40291 53024 91300 333 91216 555 11013 22014=
0108997779999992024010514004+39300-075367FM-13+000399999V0203101N005719999999N999999999-00171+99999102951ADDMD1110211+9999OD159900671999REMSYN068SJSN4 46/// /3111 11017 40295 51021 91400 333 91213 555 11010 22011=
0108997779999992024010515004+39300-075367FM-13+000399999V0203301N005119999999N999999999-00121+99999102951ADDMD1110121+9999OD159900671999REMSYN068SJSN4 46/// /3310 11012 40295 51012 91500 333 91213 555 11010 22011=
0108997779999992024010516004+39300-075367FM-13+000399999V0203101N005719999999N999999999-00071+99999102891ADDMD1990001+9999OD159900721999REMSYN068SJSN4 46/// /3111 11007 40289 50000 91600 333 91214 555 11010 22011=
0108997779999992024010517004+39300-075367FM-13+000399999V0203201N005119999999N999999999-00041+99999102801ADDMD1810151+9999OD159900621999REMSYN068SJSN4 46/// /3210 11004 40280 58015 91700 333 91212 555 11010 22010=
0108997779999992024010518004+39300-075367FM-13+000399999V0203301N003119999999N999999999+00021+99999102691ADDMD1810261+9999OD159900411999REMSYN068SJSN4 46/// /3306 10002 40269 58026 91800 333 91208 555 11005 22006=
0108997779999992024010519004+39300-075367FM-13+000399999V0202601N003619999999N999999999+00141+99999102591ADDMD1810301+9999OD159900511999REMSYN068SJSN4 46/// /2607 10014 40259 58030 91900 333 91210 555 11007 22008=
0108997779999992024010520004+39300-075367FM-13+000399999V0202601N003619999999N999999999+00231+99999102541ADDMD1610261+9999OD159900461999REMSYN068SJSN4 46/// /2607 10023 40254 56026 92000 333 91209 555 11007 22008=
0108997779999992024010521004+39300-075367FM-13+000399999V0202501N005119999999N999999999+00231+99999102511ADDMD1610181+9999OD159900621999REMSYN068SJSN4 46/// /2510 10023 40251 56018 92100 333 91212 555 11010 22010=
0108997779999992024010522004+39300-075367FM-13+000399999V0202601N003619999999N999999999+00201+99999102521ADDMD1610071+9999OD159900461999REMSYN068SJSN4 46/// /2607 10020 40252 56007 92200 333 91209 555 11007 22008=
0108997779999992024010523004+39300-075367FM-13+000399999V0202401N004619999999N999999999+00191+99999102571ADDMD1310031+9999OD159900511999REMSYN068SJSN4 46/// /2409 10019 40257 53003 92300 333 91210 555 11009 22010=
0108997779999992024010600004+39300-075367FM-13+000399999V0202301N004619999999N999999999+99999+99999102601ADDMD1310091+9999OD159900511999REMSYN068SJSN4 46/// /2309 1//// 40260 53009 90000 333 91210 555 11008 22009=
0108997779999992024010601004+39300-075367FM-13+000399999V0202201N003619999999N999999999+00151+99999102551ADDMD1990031+9999OD159900461999REMSYN068SJSN4 46/// /2207 10015 40255 50003 90100 333 91209 555 11007 22008=
0108997779999992024010602004+39300-075367FM-13+000399999V0202201N004119999999N999999999+00151+99999102551ADDMD1990001+9999OD159900511999REMSYN068SJSN4 46/// /2208 10015 40255 50000 90200 333 91210 555 11008 22008=
0108997779999992024010603004+39300-075367FM-13+000399999V0202001N004119999999N999999999+99999+99999102441ADDMD1810161+9999OD159900411999REMSYN068SJSN4 46/// /2008 1//// 40244 58016 90300 333 91208 555 11007 22008=
0108997779999992024010604004+39300-075367FM-13+000399999V0202001N006219999999N999999999+00161+99999102391ADDMD1810161+9999OD159900721999REMSYN068SJSN4 46/// /2012 10016 40239 58016 90400 333 91214 555 11012 22013=
0108997779999992024010605004+39300-075367FM-13+000399999V0202101N006719999999N999999999+00051+99999102391ADDMD1610161+9999OD159900771999REMSYN068SJSN4 46/// /2113 10005 40239 56016 90500 333 91215 555 11012 22013=
0108997779999992024010606004+39300-075367FM-13+000399999V0202001N005119999999N999999999+00101+99999102371ADDMD1610071+9999OD159900621999REMSYN068SJSN4 46/// /2010 10010 40237 56007 90600 333 91212 555 11010 22011=
0108997779999992024010607004+39300-075367FM-13+000399999V0201901N006219999999N999999999+00141+99999102361ADDMD1710031+9999OD159900721999REMSYN068SJSN4 46/// /1912 10014 40236 57003 90700 333 91214 555 11011 22012=
0108997779999992024010608004+39300-075367FM-13+000399999V0201901N006219999999N999999999+00161+99999102321ADDMD1810071+9999OD159900671999REMSYN068SJSN4 46/// /1912 10016 40232 58007 90800 333 91213 555 11011 22012=
0088997779999992024010609004+39300-075367FM-13+000399999V0201801N005719999999N999999999+00191+99999102271ADDOD159900621999REMSYN062SJSN4 46/// /1811 10019 40227 90848 333 91212 555 11010 22011=
0108997779999992024010610004+39300-075367FM-13+000399999V0201801N005719999999N999999999+00171+99999102211ADDMD1810151+9999OD159900621999REMSYN068SJSN4 46/// /1811 10017 40221 58015 91000 333 91212 555 11010 22011=
0108997779999992024010611004+39300-075367FM-13+000399999V0201601N005119999999N999999999+99999+99999102151ADDMD1810171+9999OD159900621999REMSYN068SJSN4 46/// /1610 1//// 40215 58017 91100 333 91212 555 11010 22010=
0108997779999992024010612004+39300-075367FM-13+000399999V0201501N006219999999N999999999+99999+99999102151ADDMD1610141+9999OD159900771999REMSYN068SJSN4 46/// /1512 1//// 40215 56014 91200 333 91215 555 11012 22013=
0108997779999992024010613004+39300-075367FM-13+000399999V0201701N006219999999N999999999+00441+99999102181ADDMD1510031+9999OD159900721999REMSYN068SJSN4 46/// /1712 10044 40218 55003 91300 333 91214 555 11012 22013=
0108997779999992024010614004+39300-075367FM-13+000399999V0201301N005119999999N999999999+00451+99999102031ADDMD1810121+9999OD159900621999REMSYN068SJSN4 46/// /1310 10045 40203 58012 91400 333 91212 555 11010 22011=
0108997779999992024010615004+39300-075367FM-13+000399999V0201001N006719999999N999999999+99999+99999101961ADDMD1810191+9999OD159900721999REMSYN068SJSN4 46/// /1013 1//// 40196 58019 91500 333 91214 555 11012 22013=
0108997779999992024010616004+39300-075367FM-13+000399999V0200601N004619999999N999999999+99999+99999101821ADDMD1610361+9999OD159900511999REMSYN068SJSN4 46/// /0609 1//// 40182 56036 91600 333 91210 555 11009 22010=
0108997779999992024010617004+39300-075367FM-13+000399999V0200601N005119999999N999999999+00361+99999101631ADDMD1810401+9999OD159900571999REMSYN068SJSN4 46/// /0610 10036 40163 58040 91700 333 91211 555 11009 22010=
0108997779999992024010618004+39300-075367FM-13+000399999V0200601N006719999999N999999999+00341+99999101361ADDMD1810601+9999OD159900771999REMSYN068SJSN4 46/// /0613 10034 40136 58060 91800 333 91215 555 11012 22014=
0108997779999992024010619004+39300-075367FM-13+000399999V0200601N008219999999N999999999+00321+99999101171ADDMD1710651+9999OD159900981999REMSYN068SJSN4 46/// /0616 10032 40117 57065 91900 333 91219 555 11015 22016=
0108997779999992024010620004+39300-075367FM-13+000399999V0200601N007719999999N999999999+00321+99999101071ADDMD1610561+9999OD159901031999REMSYN068SJSN4 46/// /0615 10032 40107 56056 92000 333 91220 555 11015 22016=
0108997779999992024010621004+39300-075367FM-13+000399999V0200601N009319999999N999999999+99999+99999100871ADDMD1810491+9999OD159901081999REMSYN068SJSN4 46/// /0618 1//// 40087 58049 92100 333 91221 555 11017 22019=
0088997779999992024010622004+39300-075367FM-13+000399999V0200601N010819999999N999999999+00391+99999100761ADDOD159901391999REMSYN062SJSN4 46/// /0621 10039 40076 92136 333 91227 555 11020 22022=
0108997779999992024010623004+39300-075367FM-13+000399999V0200601N010319999999N999999999+00481+99999100491ADDMD1710581+9999OD159901601999REMSYN068SJSN4 46/// /0620 10048 40049 57058 92300 333 91231 555 11019 22021=
0108997779999992024010700004+39300-075367FM-13+000399999V0200701N009319999999N999999999+00621+99999100131ADDMD1710741+9999OD159901081999REMSYN068SJSN4 46/// /0718 10062 40013 57074 90000 333 91221 555 11017 22018=
0088997779999992024010701004+39300-075367FM-13+000399999V0200801N009319999999N999999999+00791+99999100022ADDOD159901131999REMSYN062SJSN4 46/// /0818 10079 40002 90048 333 91222 555 11017 22019=
0108997779999992024010702004+39300-075367FM-13+000399999V0200901N006719999999N999999999+00861+99999100041ADDMD1610451+9999OD159901341999REMSYN068SJSN4 46/// /0913 10086 40004 56045 90200 333 91226 555 11013 22014=
0108997779999992024010703004+39300-075367FM-13+000399999V0203301N008219999999N999999999+00541+99999100091ADDMD1510041+9999OD159901081999REMSYN068SJSN4 46/// /3316 10054 40009 55004 90300 333 91221 555 11016 22017=
0108997779999992024010704004+39300-075367FM-13+000399999V0203401N006219999999N999999999+00541+99999100071ADDMD1210031+9999OD159900671999REMSYN068SJSN4 46/// /3412 10054 40007 52003 90400 333 91213 555 11012 22013=
0108997779999992024010705004+39300-075367FM-13+000399999V0203301N007719999999N999999999+00471+99999100051ADDMD1990001+9999OD159900881999REMSYN068SJSN4 46/// /3315 10047 40005 50000 90500 333 91217 555 11014 22015=
0108997779999992024010706004+39300-075367FM-13+000399999V0203101N007219999999N999999999+00421+99999100161ADDMD1310071+9999OD159900821999REMSYN068SJSN4 46/// /3114 10042 40016 53007 90600 333 91216 555 11013 22014=
0108997779999992024010707004+39300-075367FM-13+000399999V0203101N008819999999N999999999+00401+99999100211ADDMD1310141+9999OD159900981999REMSYN068SJSN4 46/// /3117 10040 40021 53014 90700 333 91219 555 11017 22018=
0108997779999992024010708004+39300-075367FM-13+000399999V0203101N008219999999N999999999+00401+99999100241ADDMD1110191+9999OD159900981999REMSYN068SJSN4 46/// /3116 10040 40024 51019 90800 333 91219 555 11016 22017=
0088997779999992024010709004+39300-075367FM-13+000399999V0202901N008219999999N999999999+00361+99999100251ADDOD159900881999REMSYN062SJSN4 46/// /2916 10036 40025 90836 333 91217 555 11015 22016=
0108997779999992024010710004+39300-075367FM-13+000399999V0203101N007719999999N999999999+99999+99999100241ADDMD1990031+9999OD159900881999REMSYN068SJSN4 46/// /3115 1//// 40024 50003 91000 333 91217 555 11014 22016=
0088997779999992024010711004+39300-075367FM-13+000399999V0203001N007719999999N999999999+00361+99999100281ADDOD159900821999REMSYN062SJSN4 46/// /3015 10036 40028 91036 333 91216 555 11014 22016=
0108997779999992024010712004+39300-075367FM-13+000399999V0202901N007219999999N999999999+00331+99999100361ADDMD1210081+9999OD159900881999REMSYN068SJSN4 46/// /2914 10033 40036 52008 91200 333 91217 555 11014 22015=
0108997779999992024010713004+39300-075367FM-13+000399999V0202801N006719999999N999999999+00331+99999100471ADDMD1210231+9999OD159900771999REMSYN068SJSN4 46/// /2813 10033 40047 52023 91300 333 91215 555 11013 22014=
0088997779999992024010714004+39300-075367FM-13+000399999V0202701N006719999999N999999999+00341+99999100501ADDOD159900771999REMSYN062SJSN4 46/// /2713 10034 40050 91342 333 91215 555 11013 22014=
0108997779999992024010715004+39300-075367FM-13+000399999V0202701N008219999999N999999999+00361+99999100541ADDMD1110181+9999OD159900931999REMSYN068SJSN4 46/// /2716 10036 40054 51018 91500 333 91218 555 11015 22016=
0108997779999992024010716004+39300-075367FM-13+000399999V0202901N008819999999N999999999+00451+99999100521ADDMD1110051+9999OD159901031999REMSYN068SJSN4 46/// /2917 10045 40052 51005 91600 333 91220 555 11017 22018=
0108997779999992024010717004+39300-075367FM-13+000399999V0202901N009819999999N999999999+00521+99999100481ADDMD1810041+9999OD159901181999REMSYN068SJSN4 46/// /2919 10052 40048 58004 91700 333 91223 555 11018 22020=
0108997779999992024010718004+39300-075367FM-13+000399999V0202901N010819999999N999999999+99999+99999100501ADDMD1710041+9999OD159901241999REMSYN068SJSN4 46/// /2921 1//// 40050 57004 91800 333 91224 555 11020 22022=
0108997779999992024010719004+39300-075367FM-13+000399999V0203001N010319999999N999999999+00641+99999100571ADDMD1310051+9999OD159901181999REMSYN068SJSN4 46/// /3020 10064 40057 53005 91900 333 91223 555 11019 22021=
0108997779999992024010720004+39300-075367FM-13+000399999V0203001N013419999999N999999999+00651+99999100671ADDMD1310191+9999OD159901541999REMSYN068SJSN4 46/// /3026 10065 40067 53019 92000 333 91230 555 11025 22027=
0108997779999992024010721004+39300-075367FM-13+000399999V0203001N011819999999N999999999+00631+99999100851ADDMD1310351+9999OD159901441999REMSYN068SJSN4 46/// /3023 10063 40085 53035 92100 333 91228 555 11022 22024=
0108997779999992024010722004+39300-075367FM-13+000399999V0203001N010819999999N999999999+00631+99999101001ADDMD1310431+9999OD159901291999REMSYN068SJSN4 46/// /3021 10063 40100 53043 92200 333 91225 555 11020 22022=
0108997779999992024010723004+39300-075367FM-13+000399999V0203001N007219999999N999999999+00611+99999101171ADDMD1110501+9999OD159900881999REMSYN068SJSN4 46/// /3014 10061 40117 51050 92300 333 91217 555 11014 22015=
0108997779999992024010800004+39300-075367FM-13+000399999V0203001N010319999999N999999999+00631+99999101331ADDMD1310481+9999OD159901131999REMSYN068SJSN4 46/// /3020 10063 40133 53048 90000 333 91222 555 11019 22021=
0108997779999992024010801004+39300-075367FM-13+000399999V0202801N007719999999N999999999+99999+99999101451ADDMD1110451+9999OD159900881999REMSYN068SJSN4 46/// /2815 1//// 40145 51045 90100 333 91217 555 11015 22016=
0108997779999992024010802004+39300-075367FM-13+000399999V0202801N007219999999N999999999+00561+99999101531ADDMD1110361+9999OD159900881999REMSYN068SJSN4 46/// /2814 10056 40153 51036 90200 333 91217 555 11014 22015=
0108997779999992024010803004+39300-075367FM-13+000399999V0202601N007219999999N999999999+00541+99999101641ADDMD1110311+9999OD159900821999REMSYN068SJSN4 46/// /2614 10054 40164 51031 90300 333 91216 555 11014 22015=
0108997779999992024010804004+39300-075367FM-13+000399999V0202701N006719999999N999999999+00541+99999101771ADDMD1310321+9999OD159900821999REMSYN068SJSN4 46/// /2713 10054 40177 53032 90400 333 91216 555 11013 22014=
0108997779999992024010805004+39300-075367FM-13+000399999V0202701N007719999999N999999999+00521+99999101871ADDMD1110341+9999OD159901031999REMSYN068SJSN4 46/// /2715 10052 40187 51034 90500 333 91220 555 11015 22016=
0108997779999992024010806004+39300-075367FM-13+000399999V0202701N008219999999N999999999+00501+99999101971ADDMD1110331+9999OD159900881999REMSYN068SJSN4 46/// /2716 10050 40197 51033 90600 333 91217 555 11015 22016=
0108997779999992024010807004+39300-075367FM-13+000399999V0202801N008819999999N999999999+00501+99999102071ADDMD1210301+9999OD159900981999REMSYN068SJSN4 46/// /2817 10050 40207 52030 90700 333 91219 555 11016 22018=
0108997779999992024010808004+39300-075367FM-13+000399999V0202801N008219999999N999999999+00491+99999102141ADDMD1110271+9999OD159900981999REMSYN068SJSN4 46/// /2816 10049 40214 51027 90800 333 91219 555 11015 22016=
0108997779999992024010809004+39300-075367FM-13+000399999V0202701N006219999999N999999999+00431+99999102211ADDMD1110241+9999OD159900771999REMSYN068SJSN4 46/// /2712 10043 40221 51024 90900 333 91215 555 11012 22013=
0108997779999992024010810004+39300-075367FM-13+000399999V0202701N006219999999N999999999+00391+99999102311ADDMD1310241+9999OD159900721999REMSYN068SJSN4 46/// /2712 10039 40231 53024 91000 333 91214 555 11012 22013=
0108997779999992024010811004+39300-075367FM-13+000399999V0202601N006219999999N999999999+00341+99999102481ADDMD1310341+9999OD159900721999REMSYN068SJSN4 46/// /2612 10034 40248 53034 91100 333 91214 555 11012 22013=
0108997779999992024010812004+39300-075367FM-13+000399999V0202801N004619999999N999999999+00351+99999102601ADDMD1310391+9999OD159900511999REMSYN068SJSN4 46/// /2809 10035 40260 53039 91200 333 91210 555 11008 22009=
0108997779999992024010813004+39300-075367FM-13+000399999V0202701N005119999999N999999999+00401+99999102741ADDMD1110431+9999OD159900571999REMSYN068SJSN4 46/// /2710 10040 40274 51043 91300 333 91211 555 11009 22010=
0108997779999992024010814004+39300-075367FM-13+000399999V0202801N005119999999N999999999+00431+99999102911ADDMD1310431+9999OD159900621999REMSYN068SJSN4 46/// /2810 10043 40291 53043 91400 333 91212 555 11010 22011=
0108997779999992024010815004+39300-075367FM-13+000399999V0203101N005719999999N999999999+00521+99999103011ADDMD1110411+9999OD159900621999REMSYN068SJSN4 46/// /3111 10052 40301 51041 91500 333 91212 555 11010 22011=
0108997779999992024010816004+39300-075367FM-13+000399999V0203301N006219999999N999999999+00571+99999103031ADDMD1110291+9999OD159900881999REMSYN068SJSN4 46/// /3312 10057 40303 51029 91600 333 91217 555 11011 22012=
0108997779999992024010817004+39300-075367FM-13+000399999V0203401N005119999999N999999999+00601+99999102991ADDMD1990081+9999OD159900671999REMSYN068SJSN4 46/// /3410 10060 40299 50008 91700 333 91213 555 11010 22011=
0108997779999992024010818004+39300-075367FM-13+000399999V0203401N005119999999N999999999+00641+99999102971ADDMD1710041+9999OD159900571999REMSYN068SJSN4 46/// /3410 10064 40297 57004 91800 333 91211 555 11010 22011=
0108997779999992024010819004+39300-075367FM-13+000399999V0202901N004619999999N999999999+00631+99999102981ADDMD1610051+9999OD159900511999REMSYN068SJSN4 46/// /2909 10063 40298 56005 91900 333 91210 555 11009 22009=
0108997779999992024010820004+39300-075367FM-13+000399999V0202901N003619999999N999999999+00681+99999102991ADDMD1410001+9999OD159900411999REMSYN068SJSN4 46/// /2907 10068 40299 54000 92000 333 91208 555 11007 22008=
0108997779999992024010821004+39300-075367FM-13+000399999V0203101N004619999999N999999999+00661+99999103051ADDMD1310081+9999OD159900461999REMSYN068SJSN4 46/// /3109 10066 40305 53008 92100 333 91209 555 11008 22009=
0108997779999992024010822004+39300-075367FM-13+000399999V0202901N003119999999N999999999+00631+99999103101ADDMD1310121+9999OD159900311999REMSYN068SJSN4 46/// /2906 10063 40310 53012 92200 333 91206 555 11006 22006=
0108997779999992024010823004+39300-075367FM-13+000399999V0203101N001019999999N999999999+99999+99999103151ADDMD1110161+9999OD159900151999REMSYN068SJSN4 46/// /3102 1//// 40315 51016 92300 333 91203 555 11002 22002=
0108997779999992024010900004+39300-075367FM-13+000399999V0203601N001519999999N999999999+00571+99999103181ADDMD1110131+9999OD159900151999REMSYN068SJSN4 46/// /3603 10057 40318 51013 90000 333 91203 555 11003 22003=
0108997779999992024010901004+39300-075367FM-13+000399999V0200301N003119999999N999999999+00531+99999103151ADDMD1990051+9999OD159900361999REMSYN068SJSN4 46/// /0306 10053 40315 50005 90100 333 91207 555 11005 22006=
0108997779999992024010902004+39300-075367FM-13+000399999V0200601N003119999999N999999999+00441+99999103071ADDMD1810081+9999OD159900361999REMSYN068SJSN4 46/// /0606 10044 40307 58008 90200 333 91207 555 11006 22006=
0108997779999992024010903004+39300-075367FM-13+000399999V0200701N002619999999N999999999+00411+99999103021ADDMD1810161+9999OD159900261999REMSYN068SJSN4 46/// /0705 10041 40302 58016 90300 333 91205 555 11004 22005=
0108997779999992024010904004+39300-075367FM-13+000399999V0200801N002119999999N999999999+00371+99999103021ADDMD1610131+9999OD159900261999REMSYN068SJSN4 46/// /0804 10037 40302 56013 90400 333 91205 555 11004 22004=
0108997779999992024010905004+39300-075367FM-13+000399999V0201601N003119999999N999999999+00441+99999103031ADDMD1610041+9999OD159900411999REMSYN068SJSN4 46/// /1606 10044 40303 56004 90500 333 91208 555 11006 22006=
0108997779999992024010906004+39300-075367FM-13+000399999V0201601N002619999999N999999999+00431+99999102981ADDMD1810041+9999OD159900261999REMSYN068SJSN4 46/// /1605 10043 40298 58004 90600 333 91205 555 11004 22005=
0108997779999992024010907004+39300-075367FM-13+000399999V0201101N003119999999N999999999+00481+99999102921ADDMD1810101+9999OD159900361999REMSYN068SJSN4 46/// /1106 10048 40292 58010 90700 333 91207 555 11006 22006=
0108997779999992024010908004+39300-075367FM-13+000399999V0201001N003619999999N999999999+00401+99999102891ADDMD1610141+9999OD159900411999REMSYN068SJSN4 46/// /1007 10040 40289 56014 90800 333 91208 555 11007 22008=
0108997779999992024010909004+39300-075367FM-13+000399999V0200801N002119999999N999999999+00311+99999102781ADDMD1810201+9999OD159900261999REMSYN068SJSN4 46/// /0804 10031 40278 58020 90900 333 91205 555 11004 22004=
0108997779999992024010910004+39300-075367FM-13+000399999V0201001N005719999999N999999999+00451+99999102741ADDMD1810181+9999OD159900621999REMSYN068SJSN4 46/// /1011 10045 40274 58018 91000 333 91212 555 11010 22011=
0108997779999992024010911004+39300-075367FM-13+000399999V0201001N006219999999N999999999+99999+99999102591ADDMD1810301+9999OD159900721999REMSYN068SJSN4 46/// /1012 1//// 40259 58030 91100 333 91214 555 11011 22012=
0108997779999992024010912004+39300-075367FM-13+000399999V0201001N008819999999N999999999+00461+99999102421ADDMD1810361+9999OD159900981999REMSYN068SJSN4 46/// /1017 10046 40242 58036 91200 333 91219 555 11016 22018=
0108997779999992024010913004+39300-075367FM-13+000399999V0201001N008819999999N999999999+00541+99999102431ADDMD1610311+9999OD159900981999REMSYN068SJSN4 46/// /1017 10054 40243 56031 91300 333 91219 555 11016 22018=
0108997779999992024010914004+39300-075367FM-13+000399999V0201101N012919999999N999999999+00651+99999102341ADDMD1610251+9999OD159901391999REMSYN068SJSN4 46/// /1125 10065 40234 56025 91400 333 91227 555 11024 22026=
0108997779999992024010915004+39300-075367FM-13+000399999V0201001N012919999999N999999999+00671+99999102111ADDMD1810311+9999OD159901491999REMSYN068SJSN4 46/// /1025 10067 40211 58031 91500 333 91229 555 11024 22026=
0108997779999992024010916004+39300-075367FM-13+000399999V0201001N013919999999N999999999+00771+99999101871ADDMD1810561+9999OD159901651999REMSYN068SJSN4 46/// /1027 10077 40187 58056 91600 333 91232 555 11026 22028=
0108997779999992024010917004+39300-075367FM-13+000399999V0201101N012919999999N999999999+00731+99999101651ADDMD1610691+9999OD159901441999REMSYN068SJSN4 46/// /1125 10073 40165 56069 91700 333 91228 555 11024 22026=
0108997779999992024010918004+39300-075367FM-13+000399999V0201101N012919999999N999999999+00751+99999101451ADDMD1610661+9999OD159901491999REMSYN068SJSN4 46/// /1125 10075 40145 56066 91800 333 91229 555 11024 22026=
0108997779999992024010919004+39300-075367FM-13+000399999V0201101N014419999999N999999999+00801+99999101091ADDMD1810781+9999OD159901651999REMSYN068SJSN4 46/// /1128 10080 40109 58078 91900 333 91232 555 11027 22029=
0108997779999992024010920004+39300-075367FM-13+000399999V0201101N016019999999N999999999+00911+99999100681ADDMD1810971+9999OD159901801999REMSYN068SJSN4 46/// /1131 10091 40068 58097 92000 333 91235 555 11030 22032=
0108997779999992024010921004+39300-075367FM-13+000399999V0201201N019019999999N999999999+01011+99999100471ADDMD1610981+9999OD159902061999REMSYN068SJSN4 46/// /1237 10101 40047 56098 92100 333 91240 555 11035 22038=
0108997779999992024010922004+39300-075367FM-13+000399999V0201301N018519999999N999999999+00981+99999100221ADDMD1610871+9999OD159902111999REMSYN068SJSN4 46/// /1336 10098 40022 56087 92200 333 91241 555 11034 22037=
0108997779999992024010923004+39300-075367FM-13+000399999V0201301N021619999999N999999999+01021+99999099781ADDMD1810901+9999OD159902471999REMSYN068SJSN4 46/// /1342 10102 49978 58090 92300 333 91248 555 11040 22044=
0108997779999992024011000004+39300-075367FM-13+000399999V0201401N016519999999N999999999+00971+99999099661ADDMD1610811+9999OD159902011999REMSYN068SJSN4 46/// /1432 10097 49966 56081 90000 333 91239 555 11030 22033=
0108997779999992024011001004+39300-075367FM-13+000399999V0201401N020619999999N999999999+01051+99999099301ADDMD1610921+9999OD159902321999REMSYN068SJSN4 46/// /1440 10105 49930 56092 90100 333 91245 555 11038 22042=
0108997779999992024011002004+39300-075367FM-13+000399999V0201501N021619999999N999999999+01101+99999099021ADDMD1810761+9999OD159902571999REMSYN068SJSN4 46/// /1542 10110 49902 58076 90200 333 91250 555 11040 22044=
0108997779999992024011003004+39300-075367FM-13+000399999V0201801N009819999999N999999999+01191+99999099161ADDMD1510501+9999OD159901031999REMSYN068SJSN4 46/// /1819 10119 49916 55050 90300 333 91220 555 11018 22020=
0108997779999992024011004004+39300-075367FM-13+000399999V0201301N012919999999N999999999+01021+99999098691ADDMD1810611+9999OD159901291999REMSYN068SJSN4 46/// /1325 10102 49869 58061 90400 333 91225 555 11024 22026=
0108997779999992024011005004+39300-075367FM-13+000399999V0201801N007219999999N999999999+00991+99999098661ADDMD1810361+9999OD159901391999REMSYN068SJSN4 46/// /1814 10099 49866 58036 90500 333 91227 555 11013 22015=
0108997779999992024011006004+39300-075367FM-13+000399999V0201801N007219999999N999999999+01101+99999098531ADDMD1610631+9999OD159900981999REMSYN068SJSN4 46/// /1814 10110 49853 56063 90600 333 91219 555 11014 22015=
0108997779999992024011007004+39300-075367FM-13+000399999V0202201N012419999999N999999999+01371+99999098502ADDMD1710191+9999OD159901541999REMSYN068SJSN4 46/// /2224 10137 49850 57019 90700 333 91230 555 11023 22025=
0108997779999992024011008004+39300-075367FM-13+000399999V0202301N010819999999N999999999+01221+99999098542ADDMD1510121+9999OD159901241999REMSYN068SJSN4 46/// /2321 10122 49854 55012 90800 333 91224 555 11020 22022=
0108997779999992024011009004+39300-075367FM-13+000399999V0202301N010819999999N999999999+01121+99999098631ADDMD1310101+9999OD159901241999REMSYN068SJSN4 46/// /2321 10112 49863 53010 90900 333 91224 555 11020 22022=
0108997779999992024011010004+39300-075367FM-13+000399999V0202401N009319999999N999999999+01051+99999098751ADDMD1310251+9999OD159901081999REMSYN068SJSN4 46/// /2418 10105 49875 53025 91000 333 91221 555 11017 22019=
0108997779999992024011011004+39300-075367FM-13+000399999V0202601N009319999999N999999999+00861+99999098901ADDMD1310361+9999OD159901181999REMSYN068SJSN4 46/// /2618 10086 49890 53036 91100 333 91223 555 11017 22019=
0108997779999992024011012004+39300-075367FM-13+000399999V0202401N009819999999N999999999+00751+99999099121ADDMD1310491+9999OD159901081999REMSYN068SJSN4 46/// /2419 10075 49912 53049 91200 333 91221 555 11018 22020=
0108997779999992024011013004+39300-075367FM-13+000399999V0202401N006219999999N999999999+00751+99999099181ADDMD1110431+9999OD159900671999REMSYN068SJSN4 46/// /2412 10075 49918 51043 91300 333 91213 555 11012 22013=
0108997779999992024011014004+39300-075367FM-13+000399999V0202501N008819999999N999999999+00861+99999099371ADDMD1110471+9999OD159900931999REMSYN068SJSN4 46/// /2517 10086 49937 51047 91400 333 91218 555 11016 22017=
0108997779999992024011015004+39300-075367FM-13+000399999V0202601N013419999999N999999999+00901+99999099531ADDMD1310411+9999OD159901751999REMSYN068SJSN4 46/// /2626 10090 49953 53041 91500 333 91234 555 11025 22027=
0108997779999992024011016004+39300-075367FM-13+000399999V0202701N011819999999N999999999+00881+99999099581ADDMD1110401+9999OD159901651999REMSYN068SJSN4 46/// /2723 10088 49958 51040 91600 333 91232 555 11022 22023=
0108997779999992024011017004+39300-075367FM-13+000399999V0202601N013919999999N999999999+99999+99999099671ADDMD1110301+9999OD159901651999REMSYN068SJSN4 46/// /2627 1//// 49967 51030 91700 333 91232 555 11026 22028=
0108997779999992024011018004+39300-075367FM-13+000399999V0202601N013919999999N999999999+00911+99999099751ADDMD1310221+9999OD159901601999REMSYN068SJSN4 46/// /2627 10091 49975 53022 91800 333 91231 555 11026 22028=
0108997779999992024011019004+39300-075367FM-13+000399999V0202501N015419999999N999999999+00941+99999099851ADDMD1310271+9999OD159901801999REMSYN068SJSN4 46/// /2530 10094 49985 53027 91900 333 91235 555 11029 22031=
0108997779999992024011020004+39300-075367FM-13+000399999V0202501N010319999999N999999999+00941+99999099951ADDMD1310281+9999OD159901391999REMSYN068SJSN4 46/// /2520 10094 49995 53028 92000 333 91227 555 11019 22021=
0108997779999992024011021004+39300-075367FM-13+000399999V0202601N011319999999N999999999+00911+99999100141ADDMD1310391+9999OD159901391999REMSYN068SJSN4 46/// /2622 10091 40014 53039 92100 333 91227 555 11021 22023=
0108997779999992024011022004+39300-075367FM-13+000399999V0202701N009819999999N999999999+00891+99999100291ADDMD1310441+9999OD159901341999REMSYN068SJSN4 46/// /2719 10089 40029 53044 92200 333 91226 555 11018 22020=
0108997779999992024011023004+39300-075367FM-13+000399999V0202701N009319999999N999999999+00831+99999100441ADDMD1110491+9999OD159901081999REMSYN068SJSN4 46/// /2718 10083 40044 51049 92300 333 91221 555 11017 22018=
0108997779999992024011100004+39300-075367FM-13+000399999V0202601N006719999999N999999999+00781+99999100541ADDMD1110401+9999OD159901031999REMSYN068SJSN4 46/// /2613 10078 40054 51040 90000 333 91220 555 11013 22014=
0108997779999992024011101004+39300-075367FM-13+000399999V0202601N007219999999N999999999+00751+99999100621ADDMD1110331+9999OD159900881999REMSYN068SJSN4 46/// /2614 10075 40062 51033 90100 333 91217 555 11014 22015=
0108997779999992024011102004+39300-075367FM-13+000399999V0202601N008819999999N999999999+00751+99999100711ADDMD1110271+9999OD159900981999REMSYN068SJSN4 46/// /2617 10075 40071 51027 90200 333 91219 555 11017 22018=
0108997779999992024011103004+39300-075367FM-13+000399999V0202601N006719999999N999999999+00711+99999100761ADDMD1110221+9999OD159900881999REMSYN068SJSN4 46/// /2613 10071 40076 51022 90300 333 91217 555 11013 22014=
0108997779999992024011104004+39300-075367FM-13+000399999V0202601N008219999999N999999999+00681+99999100821ADDMD1110201+9999OD159900881999REMSYN068SJSN4 46/// /2616 10068 40082 51020 90400 333 91217 555 11015 22017=
0108997779999992024011105004+39300-075367FM-13+000399999V0202601N005119999999N999999999+00641+99999100881ADDMD1310171+9999OD159900771999REMSYN068SJSN4 46/// /2610 10064 40088 53017 90500 333 91215 555 11010 22011=
0108997779999992024011106004+39300-075367FM-13+000399999V0202701N004619999999N999999999+00611+99999100921ADDMD1110161+9999OD159900511999REMSYN068SJSN4 46/// /2709 10061 40092 51016 90600 333 91210 555 11008 22009=
0108997779999992024011107004+39300-075367FM-13+000399999V0202601N004119999999N999999999+00521+99999100981ADDMD1210161+9999OD159900461999REMSYN068SJSN4 46/// /2608 10052 40098 52016 90700 333 91209 555 11007 22008=
0108997779999992024011108004+39300-075367FM-13+000399999V0202401N004619999999N999999999+00511+99999101061ADDMD1310181+9999OD159900571999REMSYN068SJSN4 46/// /2409 10051 40106 53018 90800 333 91211 555 11009 22010=
0108997779999992024011109004+39300-075367FM-13+000399999V0202701N005719999999N999999999+00501+99999101051ADDMD1110131+9999OD159900671999REMSYN068SJSN4 46/// /2711 10050 40105 51013 90900 333 91213 555 11011 22012=
0108997779999992024011110004+39300-075367FM-13+000399999V0202601N004619999999N999999999+00451+99999101071ADDMD1110091+9999OD159900511999REMSYN068SJSN4 46/// /2609 10045 40107 51009 91000 333 91210 555 11009 22009=
0108997779999992024011111004+39300-075367FM-13+000399999V0202401N004119999999N999999999+99999+99999101131ADDMD1310071+9999OD159900461999REMSYN068SJSN4 46/// /2408 1//// 40113 53007 91100 333 91209 555 11007 22008=
0108997779999992024011112004+39300-075367FM-13+000399999V0202201N004119999999N999999999+00341+99999101211ADDMD1310161+9999OD159900461999REMSYN068SJSN4 46/// /2208 10034 40121 53016 91200 333 91209 555 11008 22009=
0108997779999992024011113004+39300-075367FM-13+000399999V0202201N004619999999N999999999+00311+99999101261ADDMD1110191+9999OD159900511999REMSYN068SJSN4 46/// /2209 10031 40126 51019 91300 333 91210 555 11009 22010=
0108997779999992024011114004+39300-075367FM-13+000399999V0202401N004619999999N999999999+00381+99999101351ADDMD1310221+9999OD159900571999REMSYN068SJSN4 46/// /2409 10038 40135 53022 91400 333 91211 555 11009 22010=
0108997779999992024011115004+39300-075367FM-13+000399999V0202501N004619999999N999999999+00521+99999101411ADDMD1310201+9999OD159900571999REMSYN068SJSN4 46/// /2509 10052 40141 53020 91500 333 91211 555 11009 22010=
0108997779999992024011116004+39300-075367FM-13+000399999V0202701N005719999999N999999999+00571+99999101351ADDMD1990091+9999OD159900671999REMSYN068SJSN4 46/// /2711 10057 40135 50009 91600 333 91213 555 11010 22011=
0108997779999992024011117004+39300-075367FM-13+000399999V0202401N004619999999N999999999+00671+99999101231ADDMD1810121+9999OD159900571999REMSYN068SJSN4 46/// /2409 10067 40123 58012 91700 333 91211 555 11009 22010=
0108997779999992024011118004+39300-075367FM-13+000399999V0202401N005719999999N999999999+00741+99999101161ADDMD1810251+9999OD159900671999REMSYN068SJSN4 46/// /2411 10074 40116 58025 91800 333 91213 555 11011 22012=
0108997779999992024011119004+39300-075367FM-13+000399999V0201901N004619999999N999999999+00761+99999101101ADDMD1610251+9999OD159900671999REMSYN068SJSN4 46/// /1909 10076 40110 56025 91900 333 91213 555 11009 22010=
0108997779999992024011120004+39300-075367FM-13+000399999V0201901N004119999999N999999999+99999+99999101141ADDMD1510091+9999OD159900511999REMSYN068SJSN4 46/// /1908 1//// 40114 55009 92000 333 91210 555 11008 22009=
0108997779999992024011121004+39300-075367FM-13+000399999V0202101N004619999999N999999999+00851+99999101201ADDMD1310041+9999OD159900571999REMSYN068SJSN4 46/// /2109 10085 40120 53004 92100 333 91211 555 11009 22009=
0108997779999992024011122004+39300-075367FM-13+000399999V0202201N005119999999N999999999+00761+99999101301ADDMD1310201+9999OD159900571999REMSYN068SJSN4 46/// /2210 10076 40130 53020 92200 333 91211 555 11009 22010=
0088997779999992024011123004+39300-075367FM-13+000399999V0202201N005119999999N999999999+00711+99999101361ADDOD159900571999REMSYN062SJSN4 46/// /2210 10071 40136 92248 333 91211 555 11010 22011=
0108997779999992024011200004+39300-075367FM-13+000399999V0201901N005119999999N999999999+00681+99999101441ADDMD1110241+9999OD159900511999REMSYN068SJSN4 46/// /1910 10068 40144 51024 90000 333 91210 555 11010 22011=
0088997779999992024011201004+39300-075367FM-13+000399999V0201901N005119999999N999999999+00641+99999101491ADDOD159900571999REMSYN062SJSN4 46/// /1910 10064 40149 90048 333 91211 555 11009 22010=
0108997779999992024011202004+39300-075367FM-13+000399999V0202001N004619999999N999999999+00571+99999101541ADDMD1210161+9999OD159900571999REMSYN068SJSN4 46/// /2009 10057 40154 52016 90200 333 91211 555 11009 22010=
0108997779999992024011203004+39300-075367FM-13+000399999V0202201N005119999999N999999999+00531+99999101601ADDMD1210161+9999OD159900571999REMSYN068SJSN4 46/// /2210 10053 40160 52016 90300 333 91211 555 11009 22010=
0088997779999992024011204004+39300-075367FM-13+000399999V0202401N004619999999N999999999+00561+99999101671ADDOD159900571999REMSYN062SJSN4 46/// /2409 10056 40167 90336 333 91211 555 11009 22010=
0108997779999992024011205004+39300-075367FM-13+000399999V0203101N003119999999N999999999+00541+99999101811ADDMD1310271+9999OD159900411999REMSYN068SJSN4 46/// /3106 10054 40181 53027 90500 333 91208 555 11006 22006=
0108997779999992024011206004+39300-075367FM-13+000399999V0202801N002119999999N999999999+99999+99999101901ADDMD1210301+9999OD159900261999REMSYN068SJSN4 46/// /2804 1//// 40190 52030 90600 333 91205 555 11004 22004=
0108997779999992024011207004+39300-075367FM-13+000399999V0203001N003119999999N999999999+00521+99999102031ADDMD1310341+9999OD159900361999REMSYN068SJSN4 46/// /3006 10052 40203 53034 90700 333 91207 555 11006 22006=
0108997779999992024011208004+39300-075367FM-13+000399999V0203301N004119999999N999999999+00531+99999102101ADDMD1110291+9999OD159900461999REMSYN068SJSN4 46/// /3308 10053 40210 51029 90800 333 91209 555 11007 22008=
0108997779999992024011209004+39300-075367FM-13+000399999V0203501N004119999999N999999999+00511+99999102111ADDMD1110211+9999OD159900511999REMSYN068SJSN4 46/// /3508 10051 40211 51021 90900 333 91210 555 11007 22008=
0108997779999992024011210004+39300-075367FM-13+000399999V0203501N004119999999N999999999+00561+99999102111ADDMD1110081+9999OD159900511999REMSYN068SJSN4 46/// /3508 10056 40211 51008 91000 333 91210 555 11008 22009=
0108997779999992024011211004+39300-075367FM-13+000399999V0203601N004619999999N999999999+00521+99999102101ADDMD1410001+9999OD159900511999REMSYN068SJSN4 46/// /3609 10052 40210 54000 91100 333 91210 555 11009 22009=
0108997779999992024011212004+39300-075367FM-13+000399999V0200101N003119999999N999999999+00481+99999102171ADDMD1310061+9999OD159900411999REMSYN068SJSN4 46/// /0106 10048 40217 53006 91200 333 91208 555 11006 22006=
0108997779999992024011213004+39300-075367FM-13+000399999V0200301N002119999999N999999999+00541+99999102291ADDMD1310181+9999OD159900261999REMSYN068SJSN4 46/// /0304 10054 40229 53018 91300 333 91205 555 11003 22004=
0108997779999992024011214004+39300-075367FM-13+000399999V0200701N002119999999N999999999+00491+99999102291ADDMD1110191+9999OD159900261999REMSYN068SJSN4 46/// /0704 10049 40229 51019 91400 333 91205 555 11004 22004=
0108997779999992024011215004+39300-075367FM-13+000399999V0200701N002119999999N999999999+00591+99999102311ADDMD1110141+9999OD159900211999REMSYN068SJSN4 46/// /0704 10059 40231 51014 91500 333 91204 555 11004 22004=
0108997779999992024011216004+39300-075367FM-13+000399999V0200701N003619999999N999999999+00691+99999102231ADDMD1810061+9999OD159900411999REMSYN068SJSN4 46/// /0707 10069 40223 58006 91600 333 91208 555 11007 22008=
0108997779999992024011217004+39300-075367FM-13+000399999V0201101N005119999999N999999999+00731+99999102121ADDMD1810171+9999OD159900571999REMSYN068SJSN4 46/// /1110 10073 40212 58017 91700 333 91211 555 11010 22011=
0108997779999992024011218004+39300-075367FM-13+000399999V0201301N007719999999N999999999+00731+99999101961ADDMD1810351+9999OD159900821999REMSYN068SJSN4 46/// /1315 10073 40196 58035 91800 333 91216 555 11014 22015=
0108997779999992024011219004+39300-075367FM-13+000399999V0201401N009819999999N999999999+00721+99999101921ADDMD1610311+9999OD159901081999REMSYN068SJSN4 46/// /1419 10072 40192 56031 91900 333 91221 555 11019 22020=
0108997779999992024011220004+39300-075367FM-13+000399999V0201201N009319999999N999999999+00701+99999101781ADDMD1610341+9999OD159901081999REMSYN068SJSN4 46/// /1218 10070 40178 56034 92000 333 91221 555 11017 22019=
0108997779999992024011221004+39300-075367FM-13+000399999V0201201N008819999999N999999999+00711+99999101681ADDMD1810281+9999OD159900981999REMSYN068SJSN4 46/// /1217 10071 40168 58028 92100 333 91219 555 11016 22017=
0108997779999992024011222004+39300-075367FM-13+000399999V0200901N006719999999N999999999+00721+99999101421ADDMD1810501+9999OD159900931999REMSYN068SJSN4 46/// /0913 10072 40142 58050 92200 333 91218 555 11013 22014=
0108997779999992024011223004+39300-075367FM-13+000399999V0200901N007219999999N999999999+00741+99999101271ADDMD1810511+9999OD159900881999REMSYN068SJSN4 46/// /0914 10074 40127 58051 92300 333 91217 555 11013 22015=
0108997779999992024011300004+39300-075367FM-13+000399999V0200901N010319999999N999999999+99999+99999100911ADDMD1810771+9999OD159901241999REMSYN068SJSN4 46/// /0920 1//// 40091 58077 90000 333 91224 555 11019 22020=
0108997779999992024011301004+39300-075367FM-13+000399999V0201101N015419999999N999999999+00921+99999100691ADDMD1810731+9999OD159901801999REMSYN068SJSN4 46/// /1130 10092 40069 58073 90100 333 91235 555 11029 22031=
0108997779999992024011302004+39300-075367FM-13+000399999V0201101N013419999999N999999999+00951+99999100561ADDMD1610711+9999OD159901441999REMSYN068SJSN4 46/// /1126 10095 40056 56071 90200 333 91228 555 11025 22027=
0108997779999992024011303004+39300-075367FM-13+000399999V0201101N014919999999N999999999+00901+99999100251ADDMD1810661+9999OD159901601999REMSYN068SJSN4 46/// /1129 10090 40025 58066 90300 333 91231 555 11027 22030=
0088997779999992024011304004+39300-075367FM-13+000399999V0201201N013919999999N999999999+00951+99999100131ADDOD159901701999REMSYN062SJSN4 46/// /1227 10095 40013 90336 333 91233 555 11026 22028=
0108997779999992024011305004+39300-075367FM-13+000399999V0201401N017019999999N999999999+01051+99999099702ADDMD1810861+9999OD159901961999REMSYN068SJSN4 46/// /1433 10105 49970 58086 90500 333 91238 555 11031 22034=
0108997779999992024011306004+39300-075367FM-13+000399999V0201801N009319999999N999999999+01001+99999099711ADDMD1610541+9999OD159901241999REMSYN068SJSN4 46/// /1818 10100 49971 56054 90600 333 91224 555 11017 22019=
0108997779999992024011307004+39300-075367FM-13+000399999V0201401N009819999999N999999999+00961+99999099441ADDMD1610591+9999OD159901081999REMSYN068SJSN4 46/// /1419 10096 49944 56059 90700 333 91221 555 11018 22019=
0108997779999992024011308004+39300-075367FM-13+000399999V0201401N008219999999N999999999+00971+99999099291ADDMD1810411+9999OD159900931999REMSYN068SJSN4 46/// /1416 10097 49929 58041 90800 333 91218 555 11016 22017=
0088997779999992024011309004+39300-075367FM-13+000399999V0201401N007219999999N999999999+99999+99999099241ADDOD159900821999REMSYN062SJSN4 46/// /1414 1//// 49924 90842 333 91216 555 11013 22014=
0108997779999992024011310004+39300-075367FM-13+000399999V0201601N006719999999N999999999+01041+99999099091ADDMD1610351+9999OD159900821999REMSYN068SJSN4 46/// /1613 10104 49909 56035 91000 333 91216 555 11013 22014=
0108997779999992024011311004+39300-075367FM-13+000399999V0201701N006219999999N999999999+99999+99999099081ADDMD1610211+9999OD159900771999REMSYN068SJSN4 46/// /1712 1//// 49908 56021 91100 333 91215 555 11011 22012=
0088997779999992024011312004+39300-075367FM-13+000399999V0202101N011819999999N999999999+99999+99999099051ADDOD159901391999REMSYN062SJSN4 46/// /2123 1//// 49905 91142 333 91227 555 11022 22024=
0108997779999992024011313004+39300-075367FM-13+000399999V0202201N009819999999N999999999+01201+99999099131ADDMD1310041+9999OD159901291999REMSYN068SJSN4 46/// /2219 10120 49913 53004 91300 333 91225 555 11018 22019=
0108997779999992024011314004+39300-075367FM-13+000399999V0202201N008819999999N999999999+99999+99999099211ADDMD1310131+9999OD159901081999REMSYN068SJSN4 46/// /2217 1//// 49921 53013 91400 333 91221 555 11016 22017=
0108997779999992024011315004+39300-075367FM-13+000399999V0202301N013419999999N999999999+99999+99999099271ADDMD1110241+9999OD159901541999REMSYN068SJSN4 46/// /2326 1//// 49927 51024 91500 333 91230 555 11025 22027=
0108997779999992024011316004+39300-075367FM-13+000399999V0202501N010819999999N999999999+01071+99999099341ADDMD1110211+9999OD159901391999REMSYN068SJSN4 46/// /2521 10107 49934 51021 91600 333 91227 555 11020 22022=
0108997779999992024011317004+39300-075367FM-13+000399999V0202801N013419999999N999999999+99999+99999099441ADDMD1310231+9999OD159901491999REMSYN068SJSN4 46/// /2826 1//// 49944 53023 91700 333 91229 555 11025 22027=
0108997779999992024011318004+39300-075367FM-13+000399999V0202601N012919999999N999999999+00851+99999099501ADDMD1110231+9999OD159901491999REMSYN068SJSN4 46/// /2625 10085 49950 51023 91800 333 91229 555 11024 22026=
0108997779999992024011319004+39300-075367FM-13+000399999V0202601N014919999999N999999999+00891+99999099611ADDMD1310271+9999OD159901701999REMSYN068SJSN4 46/// /2629 10089 49961 53027 91900 333 91233 555 11028 22030=
0108997779999992024011320004+39300-075367FM-13+000399999V0202701N015419999999N999999999+00841+99999099831ADDMD1310391+9999OD159901901999REMSYN068SJSN4 46/// /2730 10084 49983 53039 92000 333 91237 555 11029 22031=
0088997779999992024011321004+39300-075367FM-13+000399999V0202601N013919999999N999999999+00831+99999099961ADDOD159901901999REMSYN062SJSN4 46/// /2627 10083 49996 92048 333 91237 555 11025 22028=
0108997779999992024011322004+39300-075367FM-13+000399999V0202801N014919999999N999999999+00701+99999100211ADDMD1210601+9999OD159901901999REMSYN068SJSN4 46/// /2829 10070 40021 52060 92200 333 91237 555 11028 22030=
0108997779999992024011323004+39300-075367FM-13+000399999V0202801N013919999999N999999999+00561+99999100421ADDMD1210591+9999OD159901601999REMSYN068SJSN4 46/// /2827 10056 40042 52059 92300 333 91231 555 11026 22028=
0088997779999992024011400004+39300-075367FM-13+000399999V0202801N013919999999N999999999+99999+99999100541ADDOD159901651999REMSYN062SJSN4 46/// /2827 1//// 40054 92342 333 91232 555 11025 22028=
0108997779999992024011401004+39300-075367FM-13+000399999V0202801N014919999999N999999999+00391+99999100801ADDMD1310591+9999OD159901901999REMSYN068SJSN4 46/// /2829 10039 40080 53059 90100 333 91237 555 11028 22030=
0108997779999992024011402004+39300-075367FM-13+000399999V0202701N010819999999N999999999+99999+99999100851ADDMD1110431+9999OD159901391999REMSYN068SJSN4 46/// /2721 1//// 40085 51043 90200 333 91227 555 11020 22022=
0108997779999992024011403004+39300-075367FM-13+000399999V0202601N008219999999N999999999+00291+99999100961ADDMD1110381+9999OD159900981999REMSYN068SJSN4 46/// /2616 10029 40096 51038 90300 333 91219 555 11015 22017=
0108997779999992024011404004+39300-075367FM-13+000399999V0202601N007719999999N999999999+00261+99999101061ADDMD1310261+9999OD159900931999REMSYN068SJSN4 46/// /2615 10026 40106 53026 90400 333 91218 555 11015 22016=
0108997779999992024011405004+39300-075367FM-13+000399999V0202601N007719999999N999999999+00251+99999101161ADDMD1110311+9999OD159900931999REMSYN068SJSN4 46/// /2615 10025 40116 51031 90500 333 91218 555 11015 22016=
0108997779999992024011406004+39300-075367FM-13+000399999V0202501N007219999999N999999999+00251+99999101251ADDMD1110291+9999OD159900931999REMSYN068SJSN4 46/// /2514 10025 40125 51029 90600 333 91218 555 11013 22015=
0108997779999992024011407004+39300-075367FM-13+000399999V0202701N008819999999N999999999+99999+99999101291ADDMD1110231+9999OD159900981999REMSYN068SJSN4 46/// /2717 1//// 40129 51023 90700 333 91219 555 11016 22017=
0108997779999992024011408004+39300-075367FM-13+000399999V0202601N004619999999N999999999+00191+99999101351ADDMD1110191+9999OD159900621999REMSYN068SJSN4 46/// /2609 10019 40135 51019 90800 333 91212 555 11009 22010=
0108997779999992024011409004+39300-075367FM-13+000399999V0202401N005119999999N999999999+00181+99999101371ADDMD1110121+9999OD159900621999REMSYN068SJSN4 46/// /2410 10018 40137 51012 90900 333 91212 555 11010 22011=
0108997779999992024011410004+39300-075367FM-13+000399999V0202201N004619999999N999999999+00171+99999101391ADDMD1110101+9999OD159900511999REMSYN068SJSN4 46/// /2209 10017 40139 51010 91000 333 91210 555 11009 22009=
0108997779999992024011411004+39300-075367FM-13+000399999V0202101N006219999999N999999999+99999+99999101431ADDMD1310081+9999OD159900721999REMSYN068SJSN4 46/// /2112 1//// 40143 53008 91100 333 91214 555 11012 22013=
0108997779999992024011412004+39300-075367FM-13+000399999V0201901N008219999999N999999999+99999+99999101411ADDMD1210041+9999OD159900931999REMSYN068SJSN4 46/// /1916 1//// 40141 52004 91200 333 91218 555 11015 22017=
0108997779999992024011413004+39300-075367FM-13+000399999V0201901N010819999999N999999999+00191+99999101321ADDMD1810071+9999OD159901181999REMSYN068SJSN4 46/// /1921 10019 40132 58007 91300 333 91223 555 11020 22021=
0108997779999992024011414004+39300-075367FM-13+000399999V0202001N009319999999N999999999+00221+99999101311ADDMD1710121+9999OD159901081999REMSYN068SJSN4 46/// /2018 10022 40131 57012 91400 333 91221 555 11017 22019=
0108997779999992024011415004+39300-075367FM-13+000399999V0202001N011319999999N999999999+00401+99999101151ADDMD1810261+9999OD159901291999REMSYN068SJSN4 46/// /2022 10040 40115 58026 91500 333 91225 555 11021 22023=
0108997779999992024011416004+39300-075367FM-13+000399999V0202101N013419999999N999999999+00601+99999101071ADDMD1810251+9999OD159901651999REMSYN068SJSN4 46/// /2126 10060 40107 58025 91600 333 91232 555 11025 22027=
0108997779999992024011417004+39300-075367FM-13+000399999V0202101N016519999999N999999999+00751+99999100921ADDMD1610391+9999OD159902011999REMSYN068SJSN4 46/// /2132 10075 40092 56039 91700 333 91239 555 11031 22033=
0108997779999992024011418004+39300-075367FM-13+000399999V0203001N016019999999N999999999+00441+99999101161ADDMD1510001+9999OD159901851999REMSYN068SJSN4 46/// /3031 10044 40116 55000 91800 333 91236 555 11030 22032=
0108997779999992024011419004+39300-075367FM-13+000399999V0202901N012419999999N999999999+00201+99999101351ADDMD1310281+9999OD159901541999REMSYN068SJSN4 46/// /2924 10020 40135 53028 91900 333 91230 555 11023 22025=
0108997779999992024011420004+39300-075367FM-13+000399999V0202801N011819999999N999999999+00381+99999101371ADDMD1110451+9999OD159901341999REMSYN068SJSN4 46/// /2823 10038 40137 51045 92000 333 91226 555 11022 22024=
0088997779999992024011421004+39300-075367FM-13+000399999V0202901N012419999999N999999999+00451+99999101481ADDOD159901491999REMSYN062SJSN4 46/// /2924 10045 40148 92042 333 91229 555 11023 22025=
0108997779999992024011422004+39300-075367FM-13+000399999V0202901N014919999999N999999999+00361+99999101741ADDMD1210391+9999OD159901751999REMSYN068SJSN4 46/// /2929 10036 40174 52039 92200 333 91234 555 11027 22030=
0108997779999992024011423004+39300-075367FM-13+000399999V0203001N013419999999N999999999+00241+99999101961ADDMD1210591+9999OD159901751999REMSYN068SJSN4 46/// /3026 10024 40196 52059 92300 333 91234 555 11025 22027=
0088997779999992024011500004+39300-075367FM-13+000399999V0202801N008219999999N999999999+00181+99999102041ADDOD159901031999REMSYN062SJSN4 46/// /2816 10018 40204 92348 333 91220 555 11015 22016=
0108997779999992024011501004+39300-075367FM-13+000399999V0203001N010819999999N999999999+99999+99999102111ADDMD1110371+9999OD159901181999REMSYN068SJSN4 46/// /3021 1//// 40211 51037 90100 333 91223 555 11020 22022=
0108997779999992024011502004+39300-075367FM-13+000399999V0203101N007719999999N999999999+00051+99999102181ADDMD1110221+9999OD159901031999REMSYN068SJSN4 46/// /3115 10005 40218 51022 90200 333 91220 555 11014 22015=
0108997779999992024011503004+39300-075367FM-13+000399999V0203101N009319999999N999999999+00001+99999102201ADDMD1110161+9999OD159901131999REMSYN068SJSN4 46/// /3118 10000 40220 51016 90300 333 91222 555 11017 22018=
0108997779999992024011504004+39300-075367FM-13+000399999V0203101N007719999999N999999999-00031+99999102241ADDMD1110131+9999OD159900931999REMSYN068SJSN4 46/// /3115 11003 40224 51013 90400 333 91218 555 11014 22016=
0108997779999992024011505004+39300-075367FM-13+000399999V0203201N009319999999N999999999-00041+99999102261ADDMD1210081+9999OD159901181999REMSYN068SJSN4 46/// /3218 11004 40226 52008 90500 333 91223 555 11017 22019=
0108997779999992024011506004+39300-075367FM-13+000399999V0203401N008219999999N999999999-00131+99999102281ADDMD1110081+9999OD159900931999REMSYN068SJSN4 46/// /3416 11013 40228 51008 90600 333 91218 555 11015 22016=
0108997779999992024011507004+39300-075367FM-13+000399999V0203401N006219999999N999999999-00151+99999102411ADDMD1310171+9999OD159900821999REMSYN068SJSN4 46/// /3412 11015 40241 53017 90700 333 91216 555 11011 22012=
0108997779999992024011508004+39300-075367FM-13+000399999V0203101N005119999999N999999999-00141+99999102441ADDMD1310181+9999OD159900721999REMSYN068SJSN4 46/// /3110 11014 40244 53018 90800 333 91214 555 11010 22011=
0108997779999992024011509004+39300-075367FM-13+000399999V0202901N006219999999N999999999-00181+99999102471ADDMD1110191+9999OD159900671999REMSYN068SJSN4 46/// /2912 11018 40247 51019 90900 333 91213 555 11011 22012=
0108997779999992024011510004+39300-075367FM-13+000399999V0203101N004619999999N999999999-00201+99999102491ADDMD1110081+9999OD159900571999REMSYN068SJSN4 46/// /3109 11020 40249 51008 91000 333 91211 555 11009 22010=
0108997779999992024011511004+39300-075367FM-13+000399999V0203001N006719999999N999999999-00261+99999102531ADDMD1310091+9999OD159900771999REMSYN068SJSN4 46/// /3013 11026 40253 53009 91100 333 91215 555 11012 22013=
0108997779999992024011512004+39300-075367FM-13+000399999V0202801N003619999999N999999999-00291+99999102571ADDMD1310101+9999OD159900461999REMSYN068SJSN4 46/// /2807 11029 40257 53010 91200 333 91209 555 11007 22007=
0108997779999992024011513004+39300-075367FM-13+000399999V0202401N003619999999N999999999-00311+99999102571ADDMD1110081+9999OD159900511999REMSYN068SJSN4 46/// /2407 11031 40257 51008 91300 333 91210 555 11007 22007=
0108997779999992024011514004+39300-075367FM-13+000399999V0202401N003619999999N999999999-00301+99999102621ADDMD1310091+9999OD159900511999REMSYN068SJSN4 46/// /2407 11030 40262 53009 91400 333 91210 555 11007 22007=
0108997779999992024011515004+39300-075367FM-13+000399999V0202501N003619999999N999999999-00261+99999102671ADDMD1310101+9999OD159900461999REMSYN068SJSN4 46/// /2507 11026 40267 53010 91500 333 91209 555 11007 22007=
0108997779999992024011516004+39300-075367FM-13+000399999V0203301N002119999999N999999999-00221+99999102601ADDMD1990031+9999OD159900361999REMSYN068SJSN4 46/// /3304 11022 40260 50003 91600 333 91207 555 11003 22004=
0108997779999992024011517004+39300-075367FM-13+000399999V0200301N001519999999N999999999-00201+99999102501ADDMD1810121+9999OD159900261999REMSYN068SJSN4 46/// /0303 11020 40250 58012 91700 333 91205 555 11003 22003=
0108997779999992024011518004+39300-075367FM-13+000399999V0200301N001519999999N999999999-00191+99999102441ADDMD1610231+9999OD159900261999REMSYN068SJSN4 46/// /0303 11019 40244 56023 91800 333 91205 555 11003 22003=
0108997779999992024011519004+39300-075367FM-13+000399999V0200201N001519999999N999999999-00271+99999102361ADDMD1610241+9999OD159900211999REMSYN068SJSN4 46/// /0203 11027 40236 56024 91900 333 91204 555 11002 22003=
0108997779999992024011520004+39300-075367FM-13+000399999V0209999C000019999999N999999999-00281+99999102371ADDMD1610131+9999OD159900101999REMSYN068SJSN4 46/// /0000 11028 40237 56013 92000 333 91202 555 11001 22001=
0108997779999992024011521004+39300-075367FM-13+000399999V0200501N000519999999N999999999-00301+99999102381ADDMD1610061+9999OD159900151999REMSYN068SJSN4 46/// /0501 11030 40238 56006 92100 333 91203 555 11001 22001=
0108997779999992024011522004+39300-075367FM-13+000399999V0200601N002619999999N999999999-00311+99999102351ADDMD1990001+9999OD159900361999REMSYN068SJSN4 46/// /0605 11031 40235 50000 92200 333 91207 555 11004 22005=
0088997779999992024011523004+39300-075367FM-13+000399999V0200501N002619999999N999999999-00301+99999102351ADDOD159900361999REMSYN062SJSN4 46/// /0505 11030 40235 92242 333 91207 555 11005 22006=
0108997779999992024011600004+39300-075367FM-13+000399999V0200801N002119999999N999999999-00301+99999102351ADDMD1710031+9999OD159900361999REMSYN068SJSN4 46/// /0804 11030 40235 57003 90000 333 91207 555 11004 22004=
0108997779999992024011601004+39300-075367FM-13+000399999V0200601N003119999999N999999999+99999+99999102291ADDMD1710061+9999OD159900411999REMSYN068SJSN4 46/// /0606 1//// 40229 57006 90100 333 91208 555 11006 22007=
0088997779999992024011602004+39300-075367FM-13+000399999V0200601N003619999999N999999999-00291+99999102251ADDOD159900461999REMSYN062SJSN4 46/// /0607 11029 40225 90136 333 91209 555 11007 22008=
0108997779999992024011603004+39300-075367FM-13+000399999V0200501N003619999999N999999999-00271+99999102231ADDMD1610121+9999OD159900461999REMSYN068SJSN4 46/// /0507 11027 40223 56012 90300 333 91209 555 11007 22007=
0108997779999992024011604004+39300-075367FM-13+000399999V0200501N005119999999N999999999-00281+99999102101ADDMD1810191+9999OD159900621999REMSYN068SJSN4 46/// /0510 11028 40210 58019 90400 333 91212 555 11010 22010=
0108997779999992024011605004+39300-075367FM-13+000399999V0200601N005119999999N999999999-00271+99999101961ADDMD1810291+9999OD159900621999REMSYN068SJSN4 46/// /0610 11027 40196 58029 90500 333 91212 555 11009 22010=
0108997779999992024011606004+39300-075367FM-13+000399999V0200501N005119999999N999999999-00221+99999101871ADDMD1610361+9999OD159900621999REMSYN068SJSN4 46/// /0510 11022 40187 56036 90600 333 91212 555 11010 22010=
0088997779999992024011607004+39300-075367FM-13+000399999V0200401N005719999999N999999999-00221+99999101821ADDOD159900671999REMSYN062SJSN4 46/// /0411 11022 40182 90648 333 91213 555 11010 22011=
0108997779999992024011608004+39300-075367FM-13+000399999V0200301N006219999999N999999999-00181+99999101681ADDMD1810281+9999OD159900771999REMSYN068SJSN4 46/// /0312 11018 40168 58028 90800 333 91215 555 11012 22013=
0108997779999992024011609004+39300-075367FM-13+000399999V0200301N005719999999N999999999-00171+99999101631ADDMD1610241+9999OD159900671999REMSYN068SJSN4 46/// /0311 11017 40163 56024 90900 333 91213 555 11010 22011=
0108997779999992024011610004+39300-075367FM-13+000399999V0200501N007219999999N999999999-00161+99999101431ADDMD1810371+9999OD159900821999REMSYN068SJSN4 46/// /0514 11016 40143 58037 91000 333 91216 555 11013 22014=
0108997779999992024011611004+39300-075367FM-13+000399999V0200301N005119999999N999999999-00111+99999101381ADDMD1710301+9999OD159900621999REMSYN068SJSN4 46/// /0310 11011 40138 57030 91100 333 91212 555 11009 22010=
0108997779999992024011612004+39300-075367FM-13+000399999V0200301N005119999999N999999999-00111+99999101261ADDMD1610371+9999OD159900621999REMSYN068SJSN4 46/// /0310 11011 40126 56037 91200 333 91212 555 11010 22011=
0108997779999992024011613004+39300-075367FM-13+000399999V0200101N003619999999N999999999-00091+99999101151ADDMD1810281+9999OD159900411999REMSYN068SJSN4 46/// /0107 11009 40115 58028 91300 333 91208 555 11007 22007=
0108997779999992024011614004+39300-075367FM-13+000399999V0200201N003119999999N999999999-00041+99999101041ADDMD1610341+9999OD159900361999REMSYN068SJSN4 46/// /0206 11004 40104 56034 91400 333 91207 555 11006 22006=
0108997779999992024011615004+39300-075367FM-13+000399999V0203301N001519999999N999999999-00031+99999100991ADDMD1610271+9999OD159900211999REMSYN068SJSN4 46/// /3303 11003 40099 56027 91500 333 91204 555 11003 22003=
0108997779999992024011616004+39300-075367FM-13+000399999V0203401N001519999999N999999999+00001+99999100801ADDMD1810351+9999OD159900211999REMSYN068SJSN4 46/// /3403 10000 40080 58035 91600 333 91204 555 11003 22003=
0108997779999992024011617004+39300-075367FM-13+000399999V0203101N002119999999N999999999-00011+99999100681ADDMD1810361+9999OD159900211999REMSYN068SJSN4 46/// /3104 11001 40068 58036 91700 333 91204 555 11003 22004=
0108997779999992024011618004+39300-075367FM-13+000399999V0203001N002619999999N999999999-00071+99999100791ADDMD1510201+9999OD159900261999REMSYN068SJSN4 46/// /3005 11007 40079 55020 91800 333 91205 555 11004 22005=
0108997779999992024011619004+39300-075367FM-13+000399999V0203001N001519999999N999999999-00131+99999100841ADDMD1310041+9999OD159900151999REMSYN068SJSN4 46/// /3003 11013 40084 53004 91900 333 91203 555 11003 22003=
0108997779999992024011620004+39300-075367FM-13+000399999V0203101N001519999999N999999999-00091+99999100871ADDMD1110191+9999OD159900151999REMSYN068SJSN4 46/// /3103 11009 40087 51019 92000 333 91203 555 11003 22003=
0108997779999992024011621004+39300-075367FM-13+000399999V0203001N001519999999N999999999-00101+99999100961ADDMD1310171+9999OD159900211999REMSYN068SJSN4 46/// /3003 11010 40096 53017 92100 333 91204 555 11003 22003=
0108997779999992024011622004+39300-075367FM-13+000399999V0203001N002119999999N999999999-00131+99999101111ADDMD1310271+9999OD159900261999REMSYN068SJSN4 46/// /3004 11013 40111 53027 92200 333 91205 555 11003 22004=
0108997779999992024011623004+39300-075367FM-13+000399999V0203001N002119999999N999999999-00201+99999101161ADDMD1110291+9999OD159900261999REMSYN068SJSN4 46/// /3004 11020 40116 51029 92300 333 91205 555 11004 22004=
0108997779999992024011700004+39300-075367FM-13+000399999V0203001N001519999999N999999999-00251+99999101201ADDMD1110241+9999OD159900211999REMSYN068SJSN4 46/// /3003 11025 40120 51024 90000 333 91204 555 11003 22003=
0108997779999992024011701004+39300-075367FM-13+000399999V0203001N002119999999N999999999-00331+99999101251ADDMD1210141+9999OD159900261999REMSYN068SJSN4 46/// /3004 11033 40125 52014 90100 333 91205 555 11004 22004=
0108997779999992024011702004+39300-075367FM-13+000399999V0203101N002619999999N999999999-00391+99999101321ADDMD1310161+9999OD159900311999REMSYN068SJSN4 46/// /3105 11039 40132 53016 90200 333 91206 555 11005 22005=
0108997779999992024011703004+39300-075367FM-13+000399999V0203001N003119999999N999999999-00411+99999101421ADDMD1310221+9999OD159900361999REMSYN068SJSN4 46/// /3006 11041 40142 53022 90300 333 91207 555 11006 22007=
0108997779999992024011704004+39300-075367FM-13+000399999V0203001N008219999999N999999999-00471+99999101511ADDMD1310261+9999OD159900881999REMSYN068SJSN4 46/// /3016 11047 40151 53026 90400 333 91217 555 11015 22016=
0108997779999992024011705004+39300-075367FM-13+000399999V0203101N009819999999N999999999-00521+99999101571ADDMD1110251+9999OD159901241999REMSYN068SJSN4 46/// /3119 11052 40157 51025 90500 333 91224 555 11018 22019=
0108997779999992024011706004+39300-075367FM-13+000399999V0202901N008819999999N999999999-00591+99999101601ADDMD1110181+9999OD159901131999REMSYN068SJSN4 46/// /2917 11059 40160 51018 90600 333 91222 555 11016 22018=
0108997779999992024011707004+39300-075367FM-13+000399999V0203101N009819999999N999999999-00611+99999101631ADDMD1110121+9999OD159901181999REMSYN068SJSN4 46/// /3119 11061 40163 51012 90700 333 91223 555 11018 22020=
0108997779999992024011708004+39300-075367FM-13+000399999V0203001N010319999999N999999999-00611+99999101651ADDMD1110081+9999OD159901291999REMSYN068SJSN4 46/// /3020 11061 40165 51008 90800 333 91225 555 11020 22021=
0108997779999992024011709004+39300-075367FM-13+000399999V0203001N009319999999N999999999-00671+99999101681ADDMD1210081+9999OD159901131999REMSYN068SJSN4 46/// /3018 11067 40168 52008 90900 333 91222 555 11017 22018=
0108997779999992024011710004+39300-075367FM-13+000399999V0202801N008219999999N999999999-00721+99999101731ADDMD1310101+9999OD159900981999REMSYN068SJSN4 46/// /2816 11072 40173 53010 91000 333 91219 555 11015 22017=
0108997779999992024011711004+39300-075367FM-13+000399999V0202801N008819999999N999999999-00741+99999101791ADDMD1310141+9999OD159901031999REMSYN068SJSN4 46/// /2817 11074 40179 53014 91100 333 91220 555 11016 22018=
0108997779999992024011712004+39300-075367FM-13+000399999V0202801N007219999999N999999999-00771+99999101851ADDMD1310171+9999OD159900821999REMSYN068SJSN4 46/// /2814 11077 40185 53017 91200 333 91216 555 11013 22014=
0108997779999992024011713004+39300-075367FM-13+000399999V0202601N007719999999N999999999-00781+99999101931ADDMD1310201+9999OD159900931999REMSYN068SJSN4 46/// /2615 11078 40193 53020 91300 333 91218 555 11014 22015=
0108997779999992024011714004+39300-075367FM-13+000399999V0202601N006719999999N999999999-00741+99999102011ADDMD1310221+9999OD159900821999REMSYN068SJSN4 46/// /2613 11074 40201 53022 91400 333 91216 555 11012 22014=
0108997779999992024011715004+39300-075367FM-13+000399999V0202501N007719999999N999999999-00671+99999102101ADDMD1310251+9999OD159900881999REMSYN068SJSN4 46/// /2515 11067 40210 53025 91500 333 91217 555 11014 22015=
0108997779999992024011716004+39300-075367FM-13+000399999V0202601N008219999999N999999999-00611+99999102051ADDMD1990121+9999OD159901031999REMSYN068SJSN4 46/// /2616 11061 40205 50012 91600 333 91220 555 11015 22017=
0108997779999992024011717004+39300-075367FM-13+000399999V0202701N008819999999N999999999+99999+99999102011ADDMD1990001+9999OD159901081999REMSYN068SJSN4 46/// /2717 1//// 40201 50000 91700 333 91221 555 11017 22018=
0108997779999992024011718004+39300-075367FM-13+000399999V0202601N009319999999N999999999-00481+99999101931ADDMD1810171+9999OD159901031999REMSYN068SJSN4 46/// /2618 11048 40193 58017 91800 333 91220 555 11017 22018=
0108997779999992024011719004+39300-075367FM-13+000399999V0202501N008819999999N999999999-00431+99999101881ADDMD1810171+9999OD159901081999REMSYN068SJSN4 46/// /2517 11043 40188 58017 91900 333 91221 555 11016 22018=
0108997779999992024011720004+39300-075367FM-13+000399999V0202501N008819999999N999999999+99999+99999101891ADDMD1610121+9999OD159901031999REMSYN068SJSN4 46/// /2517 1//// 40189 56012 92000 333 91220 555 11016 22017=
0108997779999992024011721004+39300-075367FM-13+000399999V0202601N009319999999N999999999-00341+99999101931ADDMD1510001+9999OD159901081999REMSYN068SJSN4 46/// /2618 11034 40193 55000 92100 333 91221 555 11017 22019=
0108997779999992024011722004+39300-075367FM-13+000399999V0202701N005719999999N999999999-00331+99999102001ADDMD1310121+9999OD159900671999REMSYN068SJSN4 46/// /2711 11033 40200 53012 92200 333 91213 555 11010 22011=
0108997779999992024011723004+39300-075367FM-13+000399999V0202501N005719999999N999999999-00321+99999102101ADDMD1310211+9999OD159900671999REMSYN068SJSN4 46/// /2511 11032 40210 53021 92300 333 91213 555 11011 22012=
0108997779999992024011800004+39300-075367FM-13+000399999V0202301N005719999999N999999999-00311+99999102131ADDMD1110201+9999OD159900721999REMSYN068SJSN4 46/// /2311 11031 40213 51020 90000 333 91214 555 11010 22011=
0108997779999992024011801004+39300-075367FM-13+000399999V0202201N005119999999N999999999-00321+99999102151ADDMD1110151+9999OD159900621999REMSYN068SJSN4 46/// /2210 11032 40215 51015 90100 333 91212 555 11010 22011=
0108997779999992024011802004+39300-075367FM-13+000399999V0202301N005719999999N999999999-00311+99999102181ADDMD1210081+9999OD159900621999REMSYN068SJSN4 46/// /2311 11031 40218 52008 90200 333 91212 555 11010 22011=
0108997779999992024011803004+39300-075367FM-13+000399999V0202301N004119999999N999999999-00321+99999102241ADDMD1310111+9999OD159900511999REMSYN068SJSN4 46/// /2308 11032 40224 53011 90300 333 91210 555 11008 22009=
0108997779999992024011804004+39300-075367FM-13+000399999V0202401N004619999999N999999999-00341+99999102271ADDMD1210121+9999OD159900571999REMSYN068SJSN4 46/// /2409 11034 40227 52012 90400 333 91211 555 11008 22009=
0108997779999992024011805004+39300-075367FM-13+000399999V0202401N004119999999N999999999-00341+99999102281ADDMD1110101+9999OD159900461999REMSYN068SJSN4 46/// /2408 11034 40228 51010 90500 333 91209 555 11008 22008=
0108997779999992024011806004+39300-075367FM-13+000399999V0202201N005119999999N999999999-00331+99999102301ADDMD1110061+9999OD159900621999REMSYN068SJSN4 46/// /2210 11033 40230 51006 90600 333 91212 555 11010 22011=
0108997779999992024011807004+39300-075367FM-13+000399999V0202201N004619999999N999999999-00281+99999102341ADDMD1310071+9999OD159900511999REMSYN068SJSN4 46/// /2209 11028 40234 53007 90700 333 91210 555 11008 22009=
0108997779999992024011808004+39300-075367FM-13+000399999V0202201N005719999999N999999999-00301+99999102351ADDMD1210071+9999OD159900621999REMSYN068SJSN4 46/// /2211 11030 40235 52007 90800 333 91212 555 11010 22011=
0108997779999992024011809004+39300-075367FM-13+000399999V0202301N004619999999N999999999-00271+99999102311ADDMD1990001+9999OD159900511999REMSYN068SJSN4 46/// /2309 11027 40231 50000 90900 333 91210 555 11009 22010=
0108997779999992024011810004+39300-075367FM-13+000399999V0202401N003119999999N999999999-00241+99999102311ADDMD1710031+9999OD159900361999REMSYN068SJSN4 46/// /2406 11024 40231 57003 91000 333 91207 555 11006 22007=
0108997779999992024011811004+39300-075367FM-13+000399999V0202501N003619999999N999999999-00191+99999102321ADDMD1610031+9999OD159900411999REMSYN068SJSN4 46/// /2507 11019 40232 56003 91100 333 91208 555 11007 22008=
0108997779999992024011812004+39300-075367FM-13+000399999V0202301N004619999999N999999999-00241+99999102351ADDMD1310041+9999OD159900571999REMSYN068SJSN4 46/// /2309 11024 40235 53004 91200 333 91211 555 11009 22010=
0108997779999992024011813004+39300-075367FM-13+000399999V0202301N003619999999N999999999-00231+99999102351ADDMD1210041+9999OD159900461999REMSYN068SJSN4 46/// /2307 11023 40235 52004 91300 333 91209 555 11007 22008=
0108997779999992024011814004+39300-075367FM-13+000399999V0202501N002619999999N999999999-00191+99999102421ADDMD1310101+9999OD159900311999REMSYN068SJSN4 46/// /2505 11019 40242 53010 91400 333 91206 555 11005 22005=
0108997779999992024011815004+39300-075367FM-13+000399999V0202401N003119999999N999999999+99999+99999102471ADDMD1310121+9999OD159900361999REMSYN068SJSN4 46/// /2406 1//// 40247 53012 91500 333 91207 555 11005 22006=
0108997779999992024011816004+39300-075367FM-13+000399999V0202001N001519999999N999999999-00091+99999102461ADDMD1110111+9999OD159900261999REMSYN068SJSN4 46/// /2003 11009 40246 51011 91600 333 91205 555 11003 22003=
0108997779999992024011817004+39300-075367FM-13+000399999V0202001N001519999999N999999999-00021+99999102321ADDMD1810101+9999OD159900151999REMSYN068SJSN4 46/// /2003 11002 40232 58010 91700 333 91203 555 11003 22003=
0108997779999992024011818004+39300-075367FM-13+000399999V0201901N002119999999N999999999+00011+99999102201ADDMD1810271+9999OD159900261999REMSYN068SJSN4 46/// /1904 10001 40220 58027 91800 333 91205 555 11004 22004=
0108997779999992024011819004+39300-075367FM-13+000399999V0201101N003119999999N999999999+00031+99999102021ADDMD1810441+9999OD159900361999REMSYN068SJSN4 46/// /1106 10003 40202 58044 91900 333 91207 555 11005 22006=
0108997779999992024011820004+39300-075367FM-13+000399999V0201401N004119999999N999999999+00061+99999101921ADDMD1610401+9999OD159900571999REMSYN068SJSN4 46/// /1408 10006 40192 56040 92000 333 91211 555 11008 22008=
0108997779999992024011821004+39300-075367FM-13+000399999V0201501N004119999999N999999999+00121+99999101941ADDMD1610261+9999OD159900571999REMSYN068SJSN4 46/// /1508 10012 40194 56026 92100 333 91211 555 11008 22009=
0108997779999992024011822004+39300-075367FM-13+000399999V0201701N004619999999N999999999+00191+99999101871ADDMD1610151+9999OD159900511999REMSYN068SJSN4 46/// /1709 10019 40187 56015 92200 333 91210 555 11009 22009=
0108997779999992024011823004+39300-075367FM-13+000399999V0201901N002619999999N999999999+99999+99999101881ADDMD1710041+9999OD159900311999REMSYN068SJSN4 46/// /1905 1//// 40188 57004 92300 333 91206 555 11005 22005=
0108997779999992024011900004+39300-075367FM-13+000399999V0202701N001519999999N999999999+00171+99999101911ADDMD1510031+9999OD159900211999REMSYN068SJSN4 46/// /2703 10017 40191 55003 90000 333 91204 555 11003 22003=
0108997779999992024011901004+39300-075367FM-13+000399999V0203101N004119999999N999999999+00171+99999101901ADDMD1210031+9999OD159900461999REMSYN068SJSN4 46/// /3108 10017 40190 52003 90100 333 91209 555 11007 22008=
0108997779999992024011902004+39300-075367FM-13+000399999V0200101N003119999999N999999999+00101+99999101821ADDMD1810061+9999OD159900361999REMSYN068SJSN4 46/// /0106 10010 40182 58006 90200 333 91207 555 11005 22006=
0108997779999992024011903004+39300-075367FM-13+000399999V0200901N002619999999N999999999+00181+99999101681ADDMD1810231+9999OD159900361999REMSYN068SJSN4 46/// /0905 10018 40168 58023 90300 333 91207 555 11005 22005=
0108997779999992024011904004+39300-075367FM-13+000399999V0200901N002119999999N999999999+00191+99999101621ADDMD1610281+9999OD159900311999REMSYN068SJSN4 46/// /0904 10019 40162 56028 90400 333 91206 555 11004 22004=
0108997779999992024011905004+39300-075367FM-13+000399999V0201201N003119999999N999999999+00161+99999101581ADDMD1610241+9999OD159900411999REMSYN068SJSN4 46/// /1206 10016 40158 56024 90500 333 91208 555 11006 22007=
0108997779999992024011906004+39300-075367FM-13+000399999V0201201N005719999999N999999999+00181+99999101431ADDMD1810251+9999OD159900571999REMSYN068SJSN4 46/// /1211 10018 40143 58025 90600 333 91211 555 11010 22011=
0108997779999992024011907004+39300-075367FM-13+000399999V0200501N003119999999N999999999+00121+99999101321ADDMD1810301+9999OD159900411999REMSYN068SJSN4 46/// /0506 10012 40132 58030 90700 333 91208 555 11006 22006=
0108997779999992024011908004+39300-075367FM-13+000399999V0200201N003619999999N999999999+00031+99999101271ADDMD1610311+9999OD159900461999REMSYN068SJSN4 46/// /0207 10003 40127 56031 90800 333 91209 555 11007 22008=
0108997779999992024011909004+39300-075367FM-13+000399999V0200201N004619999999N999999999+00041+99999101171ADDMD1610261+9999OD159900511999REMSYN068SJSN4 46/// /0209 10004 40117 56026 90900 333 91210 555 11008 22009=
0108997779999992024011910004+39300-075367FM-13+000399999V0200201N006219999999N999999999+00101+99999101161ADDMD1610161+9999OD159900671999REMSYN068SJSN4 46/// /0212 10010 40116 56016 91000 333 91213 555 11012 22013=
0108997779999992024011911004+39300-075367FM-13+000399999V0200201N005119999999N999999999-00111+99999101131ADDMD1610141+9999OD159900621999REMSYN068SJSN4 46/// /0210 11011 40113 56014 91100 333 91212 555 11009 22010=
0108997779999992024011912004+39300-075367FM-13+000399999V0200401N006219999999N999999999-00161+99999101041ADDMD1810131+9999OD159900771999REMSYN068SJSN4 46/// /0412 11016 40104 58013 91200 333 91215 555 11012 22013=
0108997779999992024011913004+39300-075367FM-13+000399999V0200401N006719999999N999999999-00151+99999100981ADDMD1810181+9999OD159900771999REMSYN068SJSN4 46/// /0413 11015 40098 58018 91300 333 91215 555 11012 22014=
0108997779999992024011914004+39300-075367FM-13+000399999V0200301N007219999999N999999999-00171+99999100911ADDMD1610221+9999OD159900771999REMSYN068SJSN4 46/// /0314 11017 40091 56022 91400 333 91215 555 11013 22014=
0108997779999992024011915004+39300-075367FM-13+000399999V0200401N006719999999N999999999-00141+99999100821ADDMD1810221+9999OD159900771999REMSYN068SJSN4 46/// /0413 11014 40082 58022 91500 333 91215 555 11012 22013=
0108997779999992024011916004+39300-075367FM-13+000399999V0200301N006219999999N999999999-00151+99999100721ADDMD1810261+9999OD159900721999REMSYN068SJSN4 46/// /0312 11015 40072 58026 91600 333 91214 555 11012 22013=
0108997779999992024011917004+39300-075367FM-13+000399999V0200201N005119999999N999999999-00131+99999100641ADDMD1610271+9999OD159900571999REMSYN068SJSN4 46/// /0210 11013 40064 56027 91700 333 91211 555 11010 22010=
0108997779999992024011918004+39300-075367FM-13+000399999V0203601N005719999999N999999999-00141+99999100591ADDMD1610231+9999OD159900671999REMSYN068SJSN4 46/// /3611 11014 40059 56023 91800 333 91213 555 11010 22011=
0108997779999992024011919004+39300-075367FM-13+000399999V0203401N006719999999N999999999-00131+99999100601ADDMD1610121+9999OD159900721999REMSYN068SJSN4 46/// /3413 11013 40060 56012 91900 333 91214 555 11012 22014=
0108997779999992024011920004+39300-075367FM-13+000399999V0203401N009319999999N999999999-00141+99999100651ADDMD1510001+9999OD159900981999REMSYN068SJSN4 46/// /3418 11014 40065 55000 92000 333 91219 555 11017 22018=
0108997779999992024011921004+39300-075367FM-13+000399999V0203401N009319999999N999999999-00181+99999100801ADDMD1310211+9999OD159901031999REMSYN068SJSN4 46/// /3418 11018 40080 53021 92100 333 91220 555 11017 22018=
0108997779999992024011922004+39300-075367FM-13+000399999V0203301N009819999999N999999999-00181+99999100951ADDMD1310351+9999OD159901181999REMSYN068SJSN4 46/// /3319 11018 40095 53035 92200 333 91223 555 11019 22020=
0108997779999992024011923004+39300-075367FM-13+000399999V0203401N009319999999N999999999-00191+99999101071ADDMD1110421+9999OD159901031999REMSYN068SJSN4 46/// /3418 11019 40107 51042 92300 333 91220 555 11017 22019=
0108997779999992024012000004+39300-075367FM-13+000399999V0203301N008819999999N999999999-00161+99999101171ADDMD1110371+9999OD159901081999REMSYN068SJSN4 46/// /3317 11016 40117 51037 90000 333 91221 555 11017 22018=
0108997779999992024012001004+39300-075367FM-13+000399999V0203201N007219999999N999999999-00161+99999101251ADDMD1110301+9999OD159900881999REMSYN068SJSN4 46/// /3214 11016 40125 51030 90100 333 91217 555 11013 22015=
0108997779999992024012002004+39300-075367FM-13+000399999V0203101N006719999999N999999999-00161+99999101331ADDMD1110261+9999OD159900771999REMSYN068SJSN4 46/// /3113 11016 40133 51026 90200 333 91215 555 11012 22013=
0108997779999992024012003004+39300-075367FM-13+000399999V0202801N007219999999N999999999-00191+99999101381ADDMD1110211+9999OD159900771999REMSYN068SJSN4 46/// /2814 11019 40138 51021 90300 333 91215 555 11013 22014=
0108997779999992024012004004+39300-075367FM-13+000399999V0202901N007719999999N999999999-00201+99999101431ADDMD1110181+9999OD159900881999REMSYN068SJSN4 46/// /2915 11020 40143 51018 90400 333 91217 555 11014 22016=
0108997779999992024012005004+39300-075367FM-13+000399999V0202701N005119999999N999999999-00271+99999101481ADDMD1210151+9999OD159900671999REMSYN068SJSN4 46/// /2710 11027 40148 52015 90500 333 91213 555 11010 22010=
0108997779999992024012006004+39300-075367FM-13+000399999V0202901N006719999999N999999999-00221+99999101501ADDMD1110121+9999OD159900771999REMSYN068SJSN4 46/// /2913 11022 40150 51012 90600 333 91215 555 11012 22013=
0108997779999992024012007004+39300-075367FM-13+000399999V0203201N009819999999N999999999-00151+99999101571ADDMD1310141+9999OD159901131999REMSYN068SJSN4 46/// /3219 11015 40157 53014 90700 333 91222 555 11018 22020=
0108997779999992024012008004+39300-075367FM-13+000399999V0203201N011819999999N999999999+99999+99999101631ADDMD1310151+9999OD159901441999REMSYN068SJSN4 46/// /3223 1//// 40163 53015 90800 333 91228 555 11022 22024=
0108997779999992024012009004+39300-075367FM-13+000399999V0203201N009819999999N999999999+99999+99999101651ADDMD1110151+9999OD159901341999REMSYN068SJSN4 46/// /3219 1//// 40165 51015 90900 333 91226 555 11019 22020=
0108997779999992024012010004+39300-075367FM-13+000399999V0203101N009819999999N999999999+99999+99999101701ADDMD1110131+9999OD159901131999REMSYN068SJSN4 46/// /3119 1//// 40170 51013 91000 333 91222 555 11018 22020=
0108997779999992024012011004+39300-075367FM-13+000399999V0202901N011819999999N999999999+99999+99999101761ADDMD1310131+9999OD159901491999REMSYN068SJSN4 46/// /2923 1//// 40176 53013 91100 333 91229 555 11022 22024=
0088997779999992024012012004+39300-075367FM-13+000399999V0202901N011319999999N999999999-00411+99999101811ADDOD159901341999REMSYN062SJSN4 46/// /2922 11041 40181 91142 333 91226 555 11021 22023=
