0128997779999992022010100004+39300-075367FM-13+000399999V0201201N003619999999N999999999+00791+99999101501ADDMD1310051+9999OD159900411999SA1+0701REMSYN080SJSN4 46/// /1207 10079 40150 53005 90000 222// 00070 333 91208 555 11007 22007=
0128997779999992022010101004+39300-075367FM-13+000399999V0200901N003119999999N999999999+00831+99999101511ADDMD1210051+9999OD159900361999SA1+0701REMSYN080SJSN4 46/// /0906 10083 40151 52005 90100 222// 00070 333 91207 555 11006 22006=
0128997779999992022010102004+39300-075367FM-13+000399999V0201001N005119999999N999999999+00851+99999101481ADDMD1990031+9999OD159900511999SA1+0701REMSYN080SJSN4 46/// /1010 10085 40148 50003 90200 222// 00070 333 91210 555 11009 22010=
0128997779999992022010103004+39300-075367FM-13+000399999V0201301N006219999999N999999999+00831+99999101441ADDMD1810061+9999OD159900621999SA1+0701REMSYN080SJSN4 46/// /1312 10083 40144 58006 90300 222// 00070 333 91212 555 11011 22012=
0128997779999992022010104004+39300-075367FM-13+000399999V0201301N005119999999N999999999+00811+99999101431ADDMD1610081+9999OD159900511999SA1+0701REMSYN080SJSN4 46/// /1310 10081 40143 56008 90400 222// 00070 333 91210 555 11009 22010=
0128997779999992022010105004+39300-075367FM-13+000399999V0201401N007719999999N999999999+00871+99999101301ADDMD1810181+9999OD159900821999SA1+0701REMSYN080SJSN4 46/// /1415 10087 40130 58018 90500 222// 00070 333 91216 555 11014 22015=
0128997779999992022010106004+39300-075367FM-13+000399999V0201401N008219999999N999999999+00861+99999101221ADDMD1810221+9999OD159900931999SA1+0701REMSYN080SJSN4 46/// /1416 10086 40122 58022 90600 222// 00070 333 91218 555 11015 22016=
0128997779999992022010107004+39300-075367FM-13+000399999V0201501N005719999999N999999999+00881+99999101231ADDMD1610201+9999OD159900621999SA1+0701REMSYN080SJSN4 46/// /1511 10088 40123 56020 90700 222// 00070 333 91212 555 11010 22011=
0128997779999992022010108004+39300-075367FM-13+000399999V0201601N004619999999N999999999+00871+99999101221ADDMD1610081+9999OD159900511999SA1+0701REMSYN080SJSN4 46/// /1609 10087 40122 56008 90800 222// 00070 333 91210 555 11008 22009=
0128997779999992022010109004+39300-075367FM-13+000399999V0201401N004119999999N999999999+00851+99999101151ADDMD1810071+9999OD159900461999SA1+0711REMSYN080SJSN4 46/// /1408 10085 40115 58007 90900 222// 00071 333 91209 555 11008 22009=
0128997779999992022010110004+39300-075367FM-13+000399999V0201301N005119999999N999999999+00831+99999101071ADDMD1810161+9999OD159900511999SA1+0711REMSYN080SJSN4 46/// /1310 10083 40107 58016 91000 222// 00071 333 91210 555 11009 22010=
0128997779999992022010111004+39300-075367FM-13+000399999V0201501N005119999999N999999999+00871+99999101081ADDMD1610141+9999OD159900571999SA1+0711REMSYN080SJSN4 46/// /1510 10087 40108 56014 91100 222// 00071 333 91211 555 11010 22011=
0128997779999992022010112004+39300-075367FM-13+000399999V0201401N005119999999N999999999+00851+99999101061ADDMD1610091+9999OD159900571999SA1+0701REMSYN080SJSN4 46/// /1410 10085 40106 56009 91200 222// 00070 333 91211 555 11009 22010=
0128997779999992022010113004+39300-075367FM-13+000399999V0201501N004119999999N999999999+00901+99999101121ADDMD1310051+9999OD159900411999SA1+0701REMSYN080SJSN4 46/// /1508 10090 40112 53005 91300 222// 00070 333 91208 555 11007 22008=
0128997779999992022010114004+39300-075367FM-13+000399999V0201801N002619999999N999999999+00951+99999101211ADDMD1310131+9999OD159900261999SA1+0711REMSYN080SJSN4 46/// /1805 10095 40121 53013 91400 222// 00071 333 91205 555 11004 22005=
0128997779999992022010115004+39300-075367FM-13+000399999V0201601N003619999999N999999999+00931+99999101221ADDMD1110161+9999OD159900411999SA1+0711REMSYN080SJSN4 46/// /1607 10093 40122 51016 91500 222// 00071 333 91208 555 11007 22008=
0128997779999992022010116004+39300-075367FM-13+000399999V0201101N002619999999N999999999+00921+99999101071ADDMD1810051+9999OD159900261999SA1+0711REMSYN080SJSN4 46/// /1105 10092 40107 58005 91600 222// 00071 333 91205 555 11005 22005=
0128997779999992022010117004+39300-075367FM-13+000399999V0201101N002619999999N999999999+00961+99999100931ADDMD1810281+9999OD159900261999SA1+0711REMSYN080SJSN4 46/// /1105 10096 40093 58028 91700 222// 00071 333 91205 555 11005 22005=
0128997779999992022010118004+39300-075367FM-13+000399999V0201101N003119999999N999999999+01191+99999100831ADDMD1610391+9999OD159900311999SA1+0711REMSYN080SJSN4 46/// /1106 10119 40083 56039 91800 222// 00071 333 91206 555 11006 22006=
0128997779999992022010119004+39300-075367FM-13+000399999V0201301N006719999999N999999999+01011+99999100731ADDMD1610341+9999OD159900721999SA1+0711REMSYN080SJSN4 46/// /1313 10101 40073 56034 91900 222// 00071 333 91214 555 11013 22014=
0128997779999992022010120004+39300-075367FM-13+000399999V0201401N006219999999N999999999+00991+99999100701ADDMD1610231+9999OD159900671999SA1+0711REMSYN080SJSN4 46/// /1412 10099 40070 56023 92000 222// 00071 333 91213 555 11012 22013=
0128997779999992022010121004+39300-075367FM-13+000399999V0201401N005119999999N999999999+00931+99999100701ADDMD1610131+9999OD159900571999SA1+0711REMSYN080SJSN4 46/// /1410 10093 40070 56013 92100 222// 00071 333 91211 555 11010 22011=
0128997779999992022010122004+39300-075367FM-13+000399999V0201101N006719999999N999999999+00911+99999100631ADDMD1810101+9999OD159900721999SA1+0721REMSYN080SJSN4 46/// /1113 10091 40063 58010 92200 222// 00072 333 91214 555 11013 22014=
0128997779999992022010123004+39300-075367FM-13+000399999V0201101N008219999999N999999999+01031+99999100551ADDMD1810151+9999OD159900881999SA1+0721REMSYN080SJSN4 46/// /1116 10103 40055 58015 92300 222// 00072 333 91217 555 11015 22016=
0128997779999992022010200004+39300-075367FM-13+000399999V0201101N007219999999N999999999+01011+99999100471ADDMD1810231+9999OD159900771999SA1+0721REMSYN080SJSN4 46/// /1114 10101 40047 58023 90000 222// 00072 333 91215 555 11013 22015=
0128997779999992022010201004+39300-075367FM-13+000399999V0201201N008819999999N999999999+00991+99999100371ADDMD1810261+9999OD159900881999SA1+0721REMSYN080SJSN4 46/// /1217 10099 40037 58026 90100 222// 00072 333 91217 555 11016 22018=
0128997779999992022010202004+39300-075367FM-13+000399999V0201201N009319999999N999999999+00911+99999100171ADDMD1810381+9999OD159901031999SA1+0721REMSYN080SJSN4 46/// /1218 10091 40017 58038 90200 222// 00072 333 91220 555 11017 22019=
0128997779999992022010203004+39300-075367FM-13+000399999V0201401N005119999999N999999999+01021+99999100141ADDMD1610331+9999OD159900571999SA1+0711REMSYN080SJSN4 46/// /1410 10102 40014 56033 90300 222// 00071 333 91211 555 11010 22010=
0128997779999992022010204004+39300-075367FM-13+000399999V0203601N002619999999N999999999+00991+99999100231ADDMD1510141+9999OD159900311999SA1+0721REMSYN080SJSN4 46/// /3605 10099 40023 55014 90400 222// 00072 333 91206 555 11005 22006=
0128997779999992022010205004+39300-075367FM-13+000399999V0202101N002619999999N999999999+01161+99999100171ADDMD1990001+9999OD159900461999SA1+0721REMSYN080SJSN4 46/// /2105 10116 40017 50000 90500 222// 00072 333 91209 555 11005 22005=
0128997779999992022010206004+39300-075367FM-13+000399999V0203101N004119999999N999999999+01081+99999100221ADDMD1110081+9999OD159900511999SA1+0721REMSYN080SJSN4 46/// /3108 10108 40022 51008 90600 222// 00072 333 91210 555 11008 22008=
0128997779999992022010207004+39300-075367FM-13+000399999V0203001N003119999999N999999999+01281+99999100261ADDMD1310031+9999OD159900361999SA1+0721REMSYN080SJSN4 46/// /3006 10128 40026 53003 90700 222// 00072 333 91207 555 11006 22007=
0128997779999992022010208004+39300-075367FM-13+000399999V0202701N004119999999N999999999+01341+99999100281ADDMD1110111+9999OD159900461999SA1+0721REMSYN080SJSN4 46/// /2708 10134 40028 51011 90800 222// 00072 333 91209 555 11008 22009=
0128997779999992022010209004+39300-075367FM-13+000399999V0202701N004619999999N999999999+01311+99999100351ADDMD1310131+9999OD159900511999SA1+0721REMSYN080SJSN4 46/// /2709 10131 40035 53013 90900 222// 00072 333 91210 555 11008 22009=
0128997779999992022010210004+39300-075367FM-13+000399999V0202201N004619999999N999999999+01311+99999100291ADDMD1990031+9999OD159900511999SA1+0731REMSYN080SJSN4 46/// /2209 10131 40029 50003 91000 222// 00073 333 91210 555 11009 22009=
0128997779999992022010211004+39300-075367FM-13+000399999V0202101N004119999999N999999999+01131+99999100341ADDMD1110061+9999OD159900411999SA1+0731REMSYN080SJSN4 46/// /2108 10113 40034 51006 91100 222// 00073 333 91208 555 11008 22008=
0128997779999992022010212004+39300-075367FM-13+000399999V0202001N006219999999N999999999+01071+99999100241ADDMD1810111+9999OD159900621999SA1+0731REMSYN080SJSN4 46/// /2012 10107 40024 58011 91200 222// 00073 333 91212 555 11011 22012=
0128997779999992022010213004+39300-075367FM-13+000399999V0203201N001519999999N999999999+01021+99999100301ADDMD1510001+9999OD159900311999SA1+0721REMSYN080SJSN4 46/// /3203 10102 40030 55000 91300 222// 00072 333 91206 555 11003 22003=
0128997779999992022010214004+39300-075367FM-13+000399999V0202401N003119999999N999999999+01171+99999100501ADDMD1310161+9999OD159900311999SA1+0721REMSYN080SJSN4 46/// /2406 10117 40050 53016 91400 222// 00072 333 91206 555 11005 22006=
0128997779999992022010215004+39300-075367FM-13+000399999V0202301N006219999999N999999999+01281+99999100611ADDMD1310371+9999OD159900671999SA1+0721REMSYN080SJSN4 46/// /2312 10128 40061 53037 91500 222// 00072 333 91213 555 11012 22013=
0128997779999992022010216004+39300-075367FM-13+000399999V0202301N007219999999N999999999+01251+99999100581ADDMD1990281+9999OD159900821999SA1+0731REMSYN080SJSN4 46/// /2314 10125 40058 50028 91600 222// 00073 333 91216 555 11013 22014=
0128997779999992022010217004+39300-075367FM-13+000399999V0202301N006719999999N999999999+01351+99999100541ADDMD1990041+9999OD159900771999SA1+0731REMSYN080SJSN4 46/// /2313 10135 40054 50004 91700 222// 00073 333 91215 555 11012 22014=
0128997779999992022010218004+39300-075367FM-13+000399999V0202401N006719999999N999999999+01481+99999100561ADDMD1610051+9999OD159900721999SA1+0731REMSYN080SJSN4 46/// /2413 10148 40056 56005 91800 222// 00073 333 91214 555 11012 22013=
0128997779999992022010219004+39300-075367FM-13+000399999V0202501N005119999999N999999999+01531+99999100581ADDMD1510001+9999OD159900571999SA1+0731REMSYN080SJSN4 46/// /2510 10153 40058 55000 91900 222// 00073 333 91211 555 11010 22011=
0128997779999992022010220004+39300-075367FM-13+000399999V0202601N006219999999N999999999+01531+99999100611ADDMD1310071+9999OD159900671999SA1+0731REMSYN080SJSN4 46/// /2612 10153 40061 53007 92000 222// 00073 333 91213 555 11011 22012=
0128997779999992022010221004+39300-075367FM-13+000399999V0202401N006219999999N999999999+01461+99999100761ADDMD1310201+9999OD159900671999SA1+0731REMSYN080SJSN4 46/// /2412 10146 40076 53020 92100 222// 00073 333 91213 555 11011 22012=
0128997779999992022010222004+39300-075367FM-13+000399999V0202401N005119999999N999999999+01481+99999100851ADDMD1310271+9999OD159900621999SA1+0741REMSYN080SJSN4 46/// /2410 10148 40085 53027 92200 222// 00074 333 91212 555 11010 22011=
0128997779999992022010223004+39300-075367FM-13+000399999V0202501N005719999999N999999999+01461+99999101021ADDMD1310411+9999OD159900671999SA1+0741REMSYN080SJSN4 46/// /2511 10146 40102 53041 92300 222// 00074 333 91213 555 11010 22011=
0128997779999992022010300004+39300-075367FM-13+000399999V0203201N009819999999N999999999+01201+99999101151ADDMD1310391+9999OD159901081999SA1+0741REMSYN080SJSN4 46/// /3219 10120 40115 53039 90000 222// 00074 333 91221 555 11019 22020=
0128997779999992022010301004+39300-075367FM-13+000399999V0203301N008819999999N999999999+01111+99999101231ADDMD1110381+9999OD159901131999SA1+0741REMSYN080SJSN4 46/// /3317 10111 40123 51038 90100 222// 00074 333 91222 555 11017 22018=
0128997779999992022010302004+39300-075367FM-13+000399999V0203401N009819999999N999999999+00941+99999101371ADDMD1310351+9999OD159901181999SA1+0741REMSYN080SJSN4 46/// /3419 10094 40137 53035 90200 222// 00074 333 91223 555 11018 22020=
0128997779999992022010303004+39300-075367FM-13+000399999V0203401N009819999999N999999999+00801+99999101501ADDMD1310351+9999OD159901241999SA1+0741REMSYN080SJSN4 46/// /3419 10080 40150 53035 90300 222// 00074 333 91224 555 11018 22020=
0128997779999992022010304004+39300-075367FM-13+000399999V0200201N007719999999N999999999+00601+99999101661ADDMD1310431+9999OD159900981999SA1+0741REMSYN080SJSN4 46/// /0215 10060 40166 53043 90400 222// 00074 333 91219 555 11014 22015=
0128997779999992022010305004+39300-075367FM-13+000399999V0200101N008219999999N999999999+00471+99999101831ADDMD1310461+9999OD159900881999SA1+0741REMSYN080SJSN4 46/// /0116 10047 40183 53046 90500 222// 00074 333 91217 555 11015 22016=
0128997779999992022010306004+39300-075367FM-13+000399999V0203601N008219999999N999999999+00401+99999101841ADDMD1110341+9999OD159900981999SA1+0731REMSYN080SJSN4 46/// /3616 10040 40184 51034 90600 222// 00073 333 91219 555 11015 22017=
0128997779999992022010307004+39300-075367FM-13+000399999V0200101N010319999999N999999999+00341+99999101791ADDMD1990131+9999OD159901181999SA1+0731REMSYN080SJSN4 46/// /0120 10034 40179 50013 90700 222// 00073 333 91223 555 11019 22021=
0128997779999992022010308004+39300-075367FM-13+000399999V0200101N008819999999N999999999+00281+99999101821ADDMD1510001+9999OD159901081999SA1+0731REMSYN080SJSN4 46/// /0117 10028 40182 55000 90800 222// 00073 333 91221 555 11017 22018=
0128997779999992022010309004+39300-075367FM-13+000399999V0200101N005719999999N999999999+00181+99999101881ADDMD1310041+9999OD159900671999SA1+0731REMSYN080SJSN4 46/// /0111 10018 40188 53004 90900 222// 00073 333 91213 555 11011 22012=
0128997779999992022010310004+39300-075367FM-13+000399999V0200101N007219999999N999999999+00081+99999101831ADDMD1990041+9999OD159900821999SA1+0731REMSYN080SJSN4 46/// /0114 10008 40183 50004 91000 222// 00073 333 91216 555 11013 22014=
0128997779999992022010311004+39300-075367FM-13+000399999V0200101N008819999999N999999999+00001+99999101781ADDMD1810041+9999OD159900981999SA1+0721REMSYN080SJSN4 46/// /0117 10000 40178 58004 91100 222// 00072 333 91219 555 11016 22017=
0128997779999992022010312004+39300-075367FM-13+000399999V0200201N009819999999N999999999-00011+99999101681ADDMD1810201+9999OD159901081999SA1+0721REMSYN080SJSN4 46/// /0219 11001 40168 58020 91200 222// 00072 333 91221 555 11018 22020=
0128997779999992022010313004+39300-075367FM-13+000399999V0200101N010319999999N999999999-00031+99999101831ADDMD1510001+9999OD159901241999SA1+0721REMSYN080SJSN4 46/// /0120 11003 40183 55000 91300 222// 00072 333 91224 555 11020 22021=
0128997779999992022010314004+39300-075367FM-13+000399999V0200101N009819999999N999999999-00051+99999101911ADDMD1310131+9999OD159901031999SA1+0721REMSYN080SJSN4 46/// /0119 11005 40191 53013 91400 222// 00072 333 91220 555 11018 22020=
0128997779999992022010315004+39300-075367FM-13+000399999V0200101N012419999999N999999999-00081+99999101921ADDMD1110241+9999OD159901491999SA1+0711REMSYN080SJSN4 46/// /0124 11008 40192 51024 91500 222// 00071 333 91229 555 11023 22025=
0128997779999992022010316004+39300-075367FM-13+000399999V0200201N010819999999N999999999-00081+99999101781ADDMD1810051+9999OD159901341999SA1+0691REMSYN080SJSN4 46/// /0221 11008 40178 58005 91600 222// 00069 333 91226 555 11020 22022=
0128997779999992022010317004+39300-075367FM-13+000399999V0200101N012419999999N999999999-00141+99999101571ADDMD1810341+9999OD159901541999SA1+0671REMSYN080SJSN4 46/// /0124 11014 40157 58034 91700 222// 00067 333 91230 555 11023 22025=
0128997779999992022010318004+39300-075367FM-13+000399999V0200101N014419999999N999999999-00131+99999101421ADDMD1810501+9999OD159901651999SA1+0671REMSYN080SJSN4 46/// /0128 11013 40142 58050 91800 222// 00067 333 91232 555 11026 22029=
0128997779999992022010319004+39300-075367FM-13+000399999V0203601N011819999999N999999999-00141+99999101511ADDMD1510271+9999OD159901291999SA1+0671REMSYN080SJSN4 46/// /3623 11014 40151 55027 91900 222// 00067 333 91225 555 11022 22024=
0128997779999992022010320004+39300-075367FM-13+000399999V0203501N011319999999N999999999-00061+99999101621ADDMD1310051+9999OD159901341999SA1+0681REMSYN080SJSN4 46/// /3522 11006 40162 53005 92000 222// 00068 333 91226 555 11021 22023=
0128997779999992022010321004+39300-075367FM-13+000399999V0203301N011819999999N999999999+00021+99999101751ADDMD1310331+9999OD159901491999SA1+0691REMSYN080SJSN4 46/// /3323 10002 40175 53033 92100 222// 00069 333 91229 555 11022 22024=
0128997779999992022010322004+39300-075367FM-13+000399999V0203301N012919999999N999999999+00021+99999101891ADDMD1310381+9999OD159901541999SA1+0681REMSYN080SJSN4 46/// /3325 10002 40189 53038 92200 222// 00068 333 91230 555 11024 22026=
0128997779999992022010323004+39300-075367FM-13+000399999V0203301N012919999999N999999999-00021+99999102041ADDMD1310421+9999OD159901491999SA1+0681REMSYN080SJSN4 46/// /3325 11002 40204 53042 92300 222// 00068 333 91229 555 11024 22026=
0128997779999992022010400004+39300-075367FM-13+000399999V0203301N012919999999N999999999-00041+99999102141ADDMD1110391+9999OD159901441999SA1+0671REMSYN080SJSN4 46/// /3325 11004 40214 51039 90000 222// 00067 333 91228 555 11024 22026=
0128997779999992022010401004+39300-075367FM-13+000399999V0203301N013919999999N999999999-00061+99999102251ADDMD1110361+9999OD159901541999SA1+0661REMSYN080SJSN4 46/// /3327 11006 40225 51036 90100 222// 00066 333 91230 555 11025 22028=
0128997779999992022010402004+39300-075367FM-13+000399999V0203301N012419999999N999999999-00091+99999102361ADDMD1310321+9999OD159901491999SA1+0661REMSYN080SJSN4 46/// /3324 11009 40236 53032 90200 222// 00066 333 91229 555 11023 22025=
0128997779999992022010403004+39300-075367FM-13+000399999V0203301N010819999999N999999999-00141+99999102481ADDMD1310341+9999OD159901291999SA1+0651REMSYN080SJSN4 46/// /3321 11014 40248 53034 90300 222// 00065 333 91225 555 11020 22022=
0128997779999992022010404004+39300-075367FM-13+000399999V0203401N010819999999N999999999-00151+99999102571ADDMD1110321+9999OD159901341999SA1+0651REMSYN080SJSN4 46/// /3421 11015 40257 51032 90400 222// 00065 333 91226 555 11020 22022=
0128997779999992022010405004+39300-075367FM-13+000399999V0203301N013419999999N999999999-00211+99999102631ADDMD1110271+9999OD159901491999SA1+0651REMSYN080SJSN4 46/// /3326 11021 40263 51027 90500 222// 00065 333 91229 555 11025 22027=
0128997779999992022010406004+39300-075367FM-13+000399999V0203301N011819999999N999999999-00271+99999102721ADDMD1210241+9999OD159901291999SA1+0651REMSYN080SJSN4 46/// /3323 11027 40272 52024 90600 222// 00065 333 91225 555 11022 22024=
0128997779999992022010407004+39300-075367FM-13+000399999V0203401N010819999999N999999999-00311+99999102831ADDMD1310261+9999OD159901241999SA1+0631REMSYN080SJSN4 46/// /3421 11031 40283 53026 90700 222// 00063 333 91224 555 11020 22021=
0128997779999992022010408004+39300-075367FM-13+000399999V0203401N008819999999N999999999-00351+99999102941ADDMD1310311+9999OD159901181999SA1+0631REMSYN080SJSN4 46/// /3417 11035 40294 53031 90800 222// 00063 333 91223 555 11016 22017=
0128997779999992022010409004+39300-075367FM-13+000399999V0203401N008219999999N999999999-00341+99999103001ADDMD1110281+9999OD159900981999SA1+0621REMSYN080SJSN4 46/// /3416 11034 40300 51028 90900 222// 00062 333 91219 555 11016 22017=
0128997779999992022010410004+39300-075367FM-13+000399999V0203401N006719999999N999999999-00361+99999103091ADDMD1110261+9999OD159900821999SA1+0621REMSYN080SJSN4 46/// /3413 11036 40309 51026 91000 222// 00062 333 91216 555 11013 22014=
0128997779999992022010411004+39300-075367FM-13+000399999V0203401N006219999999N999999999-00351+99999103151ADDMD1210211+9999OD159900721999SA1+0621REMSYN080SJSN4 46/// /3412 11035 40315 52021 91100 222// 00062 333 91214 555 11011 22012=
0128997779999992022010412004+39300-075367FM-13+000399999V0203401N007219999999N999999999-00371+99999103181ADDMD1110181+9999OD159900821999SA1+0611REMSYN080SJSN4 46/// /3414 11037 40318 51018 91200 222// 00061 333 91216 555 11013 22014=
0128997779999992022010413004+39300-075367FM-13+000399999V0203601N007219999999N999999999-00371+99999103191ADDMD1110101+9999OD159900881999SA1+0601REMSYN080SJSN4 46/// /3614 11037 40319 51010 91300 222// 00060 333 91217 555 11013 22014=
0108997779999992022010414004+39300-075367FM-13+000399999V0200101N006719999999N999999999+99999+99999103221ADDMD1210071+9999OD159900771999REMSYN068SJSN4 46/// /0113 1//// 40322 52007 91400 333 91215 555 11012 22013=
0128997779999992022010415004+39300-075367FM-13+000399999V0200101N006219999999N999999999-00291+99999103251ADDMD1310071+9999OD159900721999SA1+0611REMSYN080SJSN4 46/// /0112 11029 40325 53007 91500 222// 00061 333 91214 555 11011 22012=
0128997779999992022010416004+39300-075367FM-13+000399999V0200101N003119999999N999999999-00231+99999103291ADDMD1310101+9999OD159900411999SA1+0621REMSYN080SJSN4 46/// /0106 11023 40329 53010 91600 222// 00062 333 91208 555 11005 22006=
0128997779999992022010417004+39300-075367FM-13+000399999V0200401N002619999999N999999999-00191+99999103191ADDMD1810031+9999OD159900361999SA1+0611REMSYN080SJSN4 46/// /0405 11019 40319 58003 91700 222// 00061 333 91207 555 11005 22005=
0128997779999992022010418004+39300-075367FM-13+000399999V0202301N001019999999N999999999-00071+99999103131ADDMD1810121+9999OD159900211999SA1+0611REMSYN080SJSN4 46/// /2302 11007 40313 58012 91800 222// 00061 333 91204 555 11002 22002=
0128997779999992022010419004+39300-075367FM-13+000399999V0202901N001519999999N999999999-00021+99999103061ADDMD1610231+9999OD159900261999SA1+0601REMSYN080SJSN4 46/// /2903 11002 40306 56023 91900 222// 00060 333 91205 555 11003 22003=
0128997779999992022010420004+39300-075367FM-13+000399999V0202301N002119999999N999999999+00061+99999103041ADDMD1610151+9999OD159900261999SA1+0591REMSYN080SJSN4 46/// /2304 10006 40304 56015 92000 222// 00059 333 91205 555 11003 22004=
0128997779999992022010421004+39300-075367FM-13+000399999V0202301N002619999999N999999999+00011+99999103031ADDMD1610101+9999OD159900361999SA1+0601REMSYN080SJSN4 46/// /2305 10001 40303 56010 92100 222// 00060 333 91207 555 11005 22006=
0128997779999992022010422004+39300-075367FM-13+000399999V0202401N003119999999N999999999+00001+99999103041ADDMD1410001+9999OD159900361999SA1+0601REMSYN080SJSN4 46/// /2406 10000 40304 54000 92200 222// 00060 333 91207 555 11005 22006=
0128997779999992022010423004+39300-075367FM-13+000399999V0202101N004619999999N999999999+00001+99999103051ADDMD1410001+9999OD159900571999SA1+0601REMSYN080SJSN4 46/// /2109 10000 40305 54000 92300 222// 00060 333 91211 555 11009 22010=
0128997779999992022010500004+39300-075367FM-13+000399999V0202001N004119999999N999999999-00051+99999103011ADDMD1990001+9999OD159900461999SA1+0591REMSYN080SJSN4 46/// /2008 11005 40301 50000 90000 222// 00059 333 91209 555 11008 22009=
0128997779999992022010501004+39300-075367FM-13+000399999V0201801N005719999999N999999999+00001+99999102941ADDMD1810101+9999OD159900671999SA1+0601REMSYN080SJSN4 46/// /1811 10000 40294 58010 90100 222// 00060 333 91213 555 11011 22012=
0128997779999992022010502004+39300-075367FM-13+000399999V0201701N007219999999N999999999+00051+99999102851ADDMD1810201+9999OD159900881999SA1+0601REMSYN080SJSN4 46/// /1714 10005 40285 58020 90200 222// 00060 333 91217 555 11014 22015=
0128997779999992022010503004+39300-075367FM-13+000399999V0201701N008219999999N999999999+00091+99999102791ADDMD1610221+9999OD159900981999SA1+0591REMSYN080SJSN4 46/// /1716 10009 40279 56022 90300 222// 00059 333 91219 555 11016 22017=
0128997779999992022010504004+39300-075367FM-13+000399999V0201801N006719999999N999999999+00051+99999102731ADDMD1610211+9999OD159900771999SA1+0591REMSYN080SJSN4 46/// /1813 10005 40273 56021 90400 222// 00059 333 91215 555 11012 22013=
0128997779999992022010505004+39300-075367FM-13+000399999V0201901N006219999999N999999999+00021+99999102681ADDMD1610171+9999OD159900721999SA1+0591REMSYN080SJSN4 46/// /1912 10002 40268 56017 90500 222// 00059 333 91214 555 11011 22012=
0128997779999992022010506004+39300-075367FM-13+000399999V0201901N005119999999N999999999+00061+99999102531ADDMD1810261+9999OD159900571999SA1+0591REMSYN080SJSN4 46/// /1910 10006 40253 58026 90600 222// 00059 333 91211 555 11009 22010=
0128997779999992022010507004+39300-075367FM-13+000399999V0202201N003119999999N999999999-00041+99999102461ADDMD1810271+9999OD159900411999SA1+0591REMSYN080SJSN4 46/// /2206 11004 40246 58027 90700 222// 00059 333 91208 555 11006 22007=
0128997779999992022010508004+39300-075367FM-13+000399999V0202401N003619999999N999999999+00041+99999102411ADDMD1610271+9999OD159900411999SA1+0591REMSYN080SJSN4 46/// /2407 10004 40241 56027 90800 222// 00059 333 91208 555 11007 22007=
0128997779999992022010509004+39300-075367FM-13+000399999V0201801N002619999999N999999999+00191+99999102201ADDMD1810331+9999OD159900361999SA1+0581REMSYN080SJSN4 46/// /1805 10019 40220 58033 90900 222// 00058 333 91207 555 11005 22005=
0128997779999992022010510004+39300-075367FM-13+000399999V0202401N003119999999N999999999+00141+99999102131ADDMD1810331+9999OD159900311999SA1+0571REMSYN080SJSN4 46/// /2406 10014 40213 58033 91000 222// 00057 333 91206 555 11005 22006=
0128997779999992022010511004+39300-075367FM-13+000399999V0201601N003119999999N999999999+00211+99999101981ADDMD1610431+9999OD159900411999SA1+0581REMSYN080SJSN4 46/// /1606 10021 40198 56043 91100 222// 00058 333 91208 555 11006 22006=
0128997779999992022010512004+39300-075367FM-13+000399999V0201901N004619999999N999999999+00311+99999101861ADDMD1810341+9999OD159900571999SA1+0581REMSYN080SJSN4 46/// /1909 10031 40186 58034 91200 222// 00058 333 91211 555 11009 22010=
0128997779999992022010513004+39300-075367FM-13+000399999V0202301N004619999999N999999999+00261+99999101861ADDMD1610271+9999OD159900571999SA1+0581REMSYN080SJSN4 46/// /2309 10026 40186 56027 91300 222// 00058 333 91211 555 11008 22009=
0128997779999992022010514004+39300-075367FM-13+000399999V0202101N005119999999N999999999+00311+99999101781ADDMD1610201+9999OD159900671999SA1+0581REMSYN080SJSN4 46/// /2110 10031 40178 56020 91400 222// 00058 333 91213 555 11009 22010=
0128997779999992022010515004+39300-075367FM-13+000399999V0202101N007219999999N999999999+00401+99999101691ADDMD1810171+9999OD159900821999SA1+0571REMSYN080SJSN4 46/// /2114 10040 40169 58017 91500 222// 00057 333 91216 555 11014 22015=
0128997779999992022010516004+39300-075367FM-13+000399999V0201801N006719999999N999999999+00441+99999101521ADDMD1810341+9999OD159900771999SA1+0581REMSYN080SJSN4 46/// /1813 10044 40152 58034 91600 222// 00058 333 91215 555 11013 22014=
0128997779999992022010517004+39300-075367FM-13+000399999V0201901N007219999999N999999999+00561+99999101371ADDMD1810411+9999OD159900771999SA1+0581REMSYN080SJSN4 46/// /1914 10056 40137 58041 91700 222// 00058 333 91215 555 11013 22014=
0128997779999992022010518004+39300-075367FM-13+000399999V0201701N006719999999N999999999+00531+99999101201ADDMD1710491+9999OD159900721999SA1+0581REMSYN080SJSN4 46/// /1713 10053 40120 57049 91800 222// 00058 333 91214 555 11012 22013=
0128997779999992022010519004+39300-075367FM-13+000399999V0201801N006219999999N999999999+00591+99999101091ADDMD1610431+9999OD159900721999SA1+0581REMSYN080SJSN4 46/// /1812 10059 40109 56043 91900 222// 00058 333 91214 555 11012 22013=
0128997779999992022010520004+39300-075367FM-13+000399999V0201701N005119999999N999999999+00591+99999101051ADDMD1610321+9999OD159900571999SA1+0581REMSYN080SJSN4 46/// /1710 10059 40105 56032 92000 222// 00058 333 91211 555 11010 22011=
0128997779999992022010521004+39300-075367FM-13+000399999V0201701N005119999999N999999999+00601+99999100991ADDMD1610211+9999OD159900571999SA1+0581REMSYN080SJSN4 46/// /1710 10060 40099 56021 92100 222// 00058 333 91211 555 11009 22010=
0128997779999992022010522004+39300-075367FM-13+000399999V0201801N004119999999N999999999+00621+99999100951ADDMD1710141+9999OD159900461999SA1+0581REMSYN080SJSN4 46/// /1808 10062 40095 57014 92200 222// 00058 333 91209 555 11007 22008=
0128997779999992022010523004+39300-075367FM-13+000399999V0201701N005719999999N999999999+00631+99999100881ADDMD1810171+9999OD159900571999SA1+0581REMSYN080SJSN4 46/// /1711 10063 40088 58017 92300 222// 00058 333 91211 555 11010 22011=
0128997779999992022010600004+39300-075367FM-13+000399999V0201901N005119999999N999999999+00611+99999100901ADDMD1610091+9999OD159900621999SA1+0581REMSYN080SJSN4 46/// /1910 10061 40090 56009 90000 222// 00058 333 91212 555 11010 22011=
0128997779999992022010601004+39300-075367FM-13+000399999V0202001N003619999999N999999999+00581+99999100881ADDMD1610071+9999OD159900461999SA1+0581REMSYN080SJSN4 46/// /2007 10058 40088 56007 90100 222// 00058 333 91209 555 11007 22007=
0128997779999992022010602004+39300-075367FM-13+000399999V0202201N003619999999N999999999+00571+99999100861ADDMD1410001+9999OD159900411999SA1+0591REMSYN080SJSN4 46/// /2207 10057 40086 54000 90200 222// 00059 333 91208 555 11007 22007=
0128997779999992022010603004+39300-075367FM-13+000399999V0202201N003119999999N999999999+00551+99999100821ADDMD1810081+9999OD159900361999SA1+0591REMSYN080SJSN4 46/// /2206 10055 40082 58008 90300 222// 00059 333 91207 555 11006 22006=
0128997779999992022010604004+39300-075367FM-13+000399999V0202301N003619999999N999999999+00531+99999100811ADDMD1710071+9999OD159900411999SA1+0581REMSYN080SJSN4 46/// /2307 10053 40081 57007 90400 222// 00058 333 91208 555 11006 22007=
0128997779999992022010605004+39300-075367FM-13+000399999V0202301N002619999999N999999999+00481+99999100801ADDMD1610061+9999OD159900311999SA1+0581REMSYN080SJSN4 46/// /2305 10048 40080 56006 90500 222// 00058 333 91206 555 11005 22006=
0128997779999992022010606004+39300-075367FM-13+000399999V0202601N003619999999N999999999+00481+99999100831ADDMD1510001+9999OD159900411999SA1+0581REMSYN080SJSN4 46/// /2607 10048 40083 55000 90600 222// 00058 333 91208 555 11006 22007=
0128997779999992022010607004+39300-075367FM-13+000399999V0202601N003619999999N999999999+00441+99999100881ADDMD1310071+9999OD159900511999SA1+0581REMSYN080SJSN4 46/// /2607 10044 40088 53007 90700 222// 00058 333 91210 555 11007 22007=
0128997779999992022010608004+39300-075367FM-13+000399999V0202601N006219999999N999999999+00441+99999100991ADDMD1310191+9999OD159900721999SA1+0581REMSYN080SJSN4 46/// /2612 10044 40099 53019 90800 222// 00058 333 91214 555 11012 22013=
0128997779999992022010609004+39300-075367FM-13+000399999V0202501N005719999999N999999999+00441+99999101031ADDMD1110201+9999OD159900771999SA1+0571REMSYN080SJSN4 46/// /2511 10044 40103 51020 90900 222// 00057 333 91215 555 11010 22011=
0128997779999992022010610004+39300-075367FM-13+000399999V0202401N005119999999N999999999+00411+99999101081ADDMD1110201+9999OD159900571999SA1+0571REMSYN080SJSN4 46/// /2410 10041 40108 51020 91000 222// 00057 333 91211 555 11009 22010=
0128997779999992022010611004+39300-075367FM-13+000399999V0202501N005719999999N999999999+00401+99999101221ADDMD1310231+9999OD159900621999SA1+0571REMSYN080SJSN4 46/// /2511 10040 40122 53023 91100 222// 00057 333 91212 555 11010 22011=
0128997779999992022010612004+39300-075367FM-13+000399999V0202901N004619999999N999999999+00361+99999101341ADDMD1310311+9999OD159900511999SA1+0571REMSYN080SJSN4 46/// /2909 10036 40134 53031 91200 222// 00057 333 91210 555 11008 22009=
0128997779999992022010613004+39300-075367FM-13+000399999V0203101N006219999999N999999999+00461+99999101471ADDMD1110391+9999OD159900721999SA1+0571REMSYN080SJSN4 46/// /3112 10046 40147 51039 91300 222// 00057 333 91214 555 11011 22012=
0128997779999992022010614004+39300-075367FM-13+000399999V0202801N004119999999N999999999+00421+99999101631ADDMD1310411+9999OD159900461999SA1+0571REMSYN080SJSN4 46/// /2808 10042 40163 53041 91400 222// 00057 333 91209 555 11008 22009=
0128997779999992022010615004+39300-075367FM-13+000399999V0203201N005719999999N999999999+00451+99999101671ADDMD1110331+9999OD159900671999SA1+0581REMSYN080SJSN4 46/// /3211 10045 40167 51033 91500 222// 00058 333 91213 555 11011 22012=
0128997779999992022010616004+39300-075367FM-13+000399999V0203101N006719999999N999999999+00441+99999101671ADDMD1110201+9999OD159900771999SA1+0581REMSYN080SJSN4 46/// /3113 10044 40167 51020 91600 222// 00058 333 91215 555 11012 22013=
0128997779999992022010617004+39300-075367FM-13+000399999V0203201N007219999999N999999999+00421+99999101611ADDMD1990001+9999OD159900821999SA1+0581REMSYN080SJSN4 46/// /3214 10042 40161 50000 91700 222// 00058 333 91216 555 11013 22015=
0128997779999992022010618004+39300-075367FM-13+000399999V0203101N006719999999N999999999+00421+99999101531ADDMD1810141+9999OD159900771999SA1+0581REMSYN080SJSN4 46/// /3113 10042 40153 58014 91800 222// 00058 333 91215 555 11012 22013=
0128997779999992022010619004+39300-075367FM-13+000399999V0203201N006219999999N999999999+00411+99999101491ADDMD1610181+9999OD159900721999SA1+0581REMSYN080SJSN4 46/// /3212 10041 40149 56018 91900 222// 00058 333 91214 555 11012 22013=
0128997779999992022010620004+39300-075367FM-13+000399999V0203101N006219999999N999999999+00421+99999101451ADDMD1610161+9999OD159900671999SA1+0571REMSYN080SJSN4 46/// /3112 10042 40145 56016 92000 222// 00057 333 91213 555 11011 22012=
0128997779999992022010621004+39300-075367FM-13+000399999V0203101N004119999999N999999999+00401+99999101511ADDMD1510001+9999OD159900461999SA1+0581REMSYN080SJSN4 46/// /3108 10040 40151 55000 92100 222// 00058 333 91209 555 11007 22008=
0128997779999992022010622004+39300-075367FM-13+000399999V0203201N006219999999N999999999+00401+99999101581ADDMD1310091+9999OD159900721999SA1+0571REMSYN080SJSN4 46/// /3212 10040 40158 53009 92200 222// 00057 333 91214 555 11012 22013=
0128997779999992022010623004+39300-075367FM-13+000399999V0200101N006219999999N999999999+00341+99999101521ADDMD1990071+9999OD159900721999SA1+0571REMSYN080SJSN4 46/// /0112 10034 40152 50007 92300 222// 00057 333 91214 555 11012 22013=
0128997779999992022010700004+39300-075367FM-13+000399999V0200101N005119999999N999999999+00291+99999101501ADDMD1990001+9999OD159900571999SA1+0571REMSYN080SJSN4 46/// /0110 10029 40150 50000 90000 222// 00057 333 91211 555 11009 22010=
0128997779999992022010701004+39300-075367FM-13+000399999V0200401N005719999999N999999999+00261+99999101421ADDMD1810161+9999OD159900621999SA1+0571REMSYN080SJSN4 46/// /0411 10026 40142 58016 90100 222// 00057 333 91212 555 11010 22011=
0128997779999992022010702004+39300-075367FM-13+000399999V0200601N003119999999N999999999+00211+99999101361ADDMD1810161+9999OD159900411999SA1+0571REMSYN080SJSN4 46/// /0606 10021 40136 58016 90200 222// 00057 333 91208 555 11006 22006=
0128997779999992022010703004+39300-075367FM-13+000399999V0200201N005719999999N999999999+00201+99999101221ADDMD1810281+9999OD159900621999SA1+0571REMSYN080SJSN4 46/// /0211 10020 40122 58028 90300 222// 00057 333 91212 555 11010 22011=
0128997779999992022010704004+39300-075367FM-13+000399999V0200401N006719999999N999999999+00171+99999101141ADDMD1810281+9999OD159900821999SA1+0571REMSYN080SJSN4 46/// /0413 10017 40114 58028 90400 222// 00057 333 91216 555 11012 22014=
0128997779999992022010705004+39300-075367FM-13+000399999V0200201N006219999999N999999999+00161+99999101091ADDMD1610271+9999OD159900881999SA1+0561REMSYN080SJSN4 46/// /0212 10016 40109 56027 90500 222// 00056 333 91217 555 11012 22013=
0128997779999992022010706004+39300-075367FM-13+000399999V0200301N008819999999N999999999+00141+99999100891ADDMD1810331+9999OD159900981999SA1+0571REMSYN080SJSN4 46/// /0317 10014 40089 58033 90600 222// 00057 333 91219 555 11016 22017=
0128997779999992022010707004+39300-075367FM-13+000399999V0200601N006719999999N999999999+00031+99999100821ADDMD1810321+9999OD159900981999SA1+0561REMSYN080SJSN4 46/// /0613 10003 40082 58032 90700 222// 00056 333 91219 555 11012 22013=
0128997779999992022010708004+39300-075367FM-13+000399999V0200101N005719999999N999999999-00141+99999100841ADDMD1610251+9999OD159900721999SA1+0551REMSYN080SJSN4 46/// /0111 11014 40084 56025 90800 222// 00055 333 91214 555 11010 22011=
0128997779999992022010709004+39300-075367FM-13+000399999V0203201N010819999999N999999999-00071+99999100881ADDMD1510001+9999OD159901181999SA1+0551REMSYN080SJSN4 46/// /3221 11007 40088 55000 90900 222// 00055 333 91223 555 11020 22022=
0128997779999992022010710004+39300-075367FM-13+000399999V0203301N010819999999N999999999-00091+99999100951ADDMD1310131+9999OD159901181999SA1+0551REMSYN080SJSN4 46/// /3321 11009 40095 53013 91000 222// 00055 333 91223 555 11020 22022=
0128997779999992022010711004+39300-075367FM-13+000399999V0203201N012419999999N999999999-00051+99999101041ADDMD1310201+9999OD159901391999SA1+0551REMSYN080SJSN4 46/// /3224 11005 40104 53020 91100 222// 00055 333 91227 555 11022 22024=
0128997779999992022010712004+39300-075367FM-13+000399999V0203201N013419999999N999999999-00051+99999101121ADDMD1310241+9999OD159901541999SA1+0551REMSYN080SJSN4 46/// /3226 11005 40112 53024 91200 222// 00055 333 91230 555 11025 22027=
0128997779999992022010713004+39300-075367FM-13+000399999V0203001N012919999999N999999999-00111+99999101251ADDMD1310301+9999OD159901391999SA1+0551REMSYN080SJSN4 46/// /3025 11011 40125 53030 91300 222// 00055 333 91227 555 11024 22026=
0128997779999992022010714004+39300-075367FM-13+000399999V0203001N011319999999N999999999-00051+99999101411ADDMD1310371+9999OD159901541999SA1+0551REMSYN080SJSN4 46/// /3022 11005 40141 53037 91400 222// 00055 333 91230 555 11021 22023=
0128997779999992022010715004+39300-075367FM-13+000399999V0202901N012419999999N999999999-00081+99999101571ADDMD1310451+9999OD159901541999SA1+0541REMSYN080SJSN4 46/// /2924 11008 40157 53045 91500 222// 00054 333 91230 555 11023 22025=
0128997779999992022010716004+39300-075367FM-13+000399999V0203001N012419999999N999999999-00081+99999101541ADDMD1990291+9999OD159901541999SA1+0541REMSYN080SJSN4 46/// /3024 11008 40154 50029 91600 222// 00054 333 91230 555 11023 22025=
0128997779999992022010717004+39300-075367FM-13+000399999V0202901N013919999999N999999999-00061+99999101521ADDMD1110111+9999OD159901541999SA1+0541REMSYN080SJSN4 46/// /2927 11006 40152 51011 91700 222// 00054 333 91230 555 11026 22028=
0128997779999992022010718004+39300-075367FM-13+000399999V0203001N014919999999N999999999-00071+99999101521ADDMD1610051+9999OD159901701999SA1+0531REMSYN080SJSN4 46/// /3029 11007 40152 56005 91800 222// 00053 333 91233 555 11028 22030=
0128997779999992022010719004+39300-075367FM-13+000399999V0203001N012419999999N999999999-00041+99999101591ADDMD1310051+9999OD159901651999SA1+0531REMSYN080SJSN4 46/// /3024 11004 40159 53005 91900 222// 00053 333 91232 555 11023 22025=
0128997779999992022010720004+39300-075367FM-13+000399999V0202901N012419999999N999999999-00051+99999101771ADDMD1310251+9999OD159901541999SA1+0541REMSYN080SJSN4 46/// /2924 11005 40177 53025 92000 222// 00054 333 91230 555 11023 22025=
0128997779999992022010721004+39300-075367FM-13+000399999V0203001N013419999999N999999999-00081+99999101921ADDMD1310401+9999OD159901491999SA1+0531REMSYN080SJSN4 46/// /3026 11008 40192 53040 92100 222// 00053 333 91229 555 11025 22027=
0128997779999992022010722004+39300-075367FM-13+000399999V0203001N012419999999N999999999-00111+99999102061ADDMD1110471+9999OD159901441999SA1+0531REMSYN080SJSN4 46/// /3024 11011 40206 51047 92200 222// 00053 333 91228 555 11022 22024=
0128997779999992022010723004+39300-075367FM-13+000399999V0202901N010319999999N999999999-00181+99999102241ADDMD1310471+9999OD159901181999SA1+0521REMSYN080SJSN4 46/// /2920 11018 40224 53047 92300 222// 00052 333 91223 555 11019 22021=
0128997779999992022010800004+39300-075367FM-13+000399999V0202901N012919999999N999999999-00171+99999102351ADDMD1110431+9999OD159901491999SA1+0521REMSYN080SJSN4 46/// /2925 11017 40235 51043 90000 222// 00052 333 91229 555 11024 22026=
0128997779999992022010801004+39300-075367FM-13+000399999V0202901N013419999999N999999999-00241+99999102471ADDMD1110411+9999OD159901491999SA1+0511REMSYN080SJSN4 46/// /2926 11024 40247 51041 90100 222// 00051 333 91229 555 11025 22027=
0128997779999992022010802004+39300-075367FM-13+000399999V0202901N011819999999N999999999-00261+99999102581ADDMD1210341+9999OD159901391999SA1+0511REMSYN080SJSN4 46/// /2923 11026 40258 52034 90200 222// 00051 333 91227 555 11022 22024=
0128997779999992022010803004+39300-075367FM-13+000399999V0202901N012419999999N999999999-00291+99999102651ADDMD1110301+9999OD159901601999SA1+0501REMSYN080SJSN4 46/// /2924 11029 40265 51030 90300 222// 00050 333 91231 555 11023 22025=
0128997779999992022010804004+39300-075367FM-13+000399999V0202801N010819999999N999999999-00311+99999102781ADDMD1310311+9999OD159901341999SA1+0501REMSYN080SJSN4 46/// /2821 11031 40278 53031 90400 222// 00050 333 91226 555 11020 22022=
0128997779999992022010805004+39300-075367FM-13+000399999V0202801N010319999999N999999999-00361+99999102831ADDMD1110251+9999OD159901181999SA1+0491REMSYN080SJSN4 46/// /2820 11036 40283 51025 90500 222// 00049 333 91223 555 11019 22020=
0128997779999992022010806004+39300-075367FM-13+000399999V0202701N007719999999N999999999-00361+99999102891ADDMD1110241+9999OD159901031999SA1+0481REMSYN080SJSN4 46/// /2715 11036 40289 51024 90600 222// 00048 333 91220 555 11015 22016=
0128997779999992022010807004+39300-075367FM-13+000399999V0202801N009319999999N999999999-00351+99999102991ADDMD1310211+9999OD159901131999SA1+0491REMSYN080SJSN4 46/// /2818 11035 40299 53021 90700 222// 00049 333 91222 555 11017 22019=
0128997779999992022010808004+39300-075367FM-13+000399999V0202701N008219999999N999999999-00381+99999103131ADDMD1310301+9999OD159900931999SA1+0491REMSYN080SJSN4 46/// /2716 11038 40313 53030 90800 222// 00049 333 91218 555 11015 22016=
0128997779999992022010809004+39300-075367FM-13+000399999V0202701N008219999999N999999999-00371+99999103211ADDMD1110321+9999OD159900981999SA1+0481REMSYN080SJSN4 46/// /2716 11037 40321 51032 90900 222// 00048 333 91219 555 11015 22016=
0128997779999992022010810004+39300-075367FM-13+000399999V0202801N009819999999N999999999-00351+99999103311ADDMD1110321+9999OD159901131999SA1+0471REMSYN080SJSN4 46/// /2819 11035 40331 51032 91000 222// 00047 333 91222 555 11018 22019=
0128997779999992022010811004+39300-075367FM-13+000399999V0203201N012919999999N999999999-00321+99999103341ADDMD1110211+9999OD159901441999SA1+0461REMSYN080SJSN4 46/// /3225 11032 40334 51021 91100 222// 00046 333 91228 555 11024 22026=
0128997779999992022010812004+39300-075367FM-13+000399999V0203201N012419999999N999999999-00291+99999103451ADDMD1310241+9999OD159901391999SA1+0461REMSYN080SJSN4 46/// /3224 11029 40345 53024 91200 222// 00046 333 91227 555 11023 22025=
0128997779999992022010813004+39300-075367FM-13+000399999V0203201N010819999999N999999999-00361+99999103611ADDMD1310301+9999OD159901391999SA1+0451REMSYN080SJSN4 46/// /3221 11036 40361 53030 91300 222// 00045 333 91227 555 11020 22021=
0128997779999992022010814004+39300-075367FM-13+000399999V0203501N007719999999N999999999-00381+99999103751ADDMD1310411+9999OD159900881999SA1+0461REMSYN080SJSN4 46/// /3515 11038 40375 53041 91400 222// 00046 333 91217 555 11014 22015=
0128997779999992022010815004+39300-075367FM-13+000399999V0203401N006719999999N999999999-00391+99999103851ADDMD1110401+9999OD159900821999SA1+0461REMSYN080SJSN4 46/// /3413 11039 40385 51040 91500 222// 00046 333 91216 555 11012 22014=
0128997779999992022010816004+39300-075367FM-13+000399999V0203301N006219999999N999999999-00331+99999103911ADDMD1110301+9999OD159900671999SA1+0461REMSYN080SJSN4 46/// /3312 11033 40391 51030 91600 222// 00046 333 91213 555 11011 22012=
0128997779999992022010817004+39300-075367FM-13+000399999V0203301N004119999999N999999999-00281+99999103841ADDMD1990091+9999OD159900461999SA1+0461REMSYN080SJSN4 46/// /3308 11028 40384 50009 91700 222// 00046 333 91209 555 11007 22008=
0128997779999992022010818004+39300-075367FM-13+000399999V0202901N003119999999N999999999-00211+99999103791ADDMD1810061+9999OD159900511999SA1+0441REMSYN080SJSN4 46/// /2906 11021 40379 58006 91800 222// 00044 333 91210 555 11006 22006=
0128997779999992022010819004+39300-075367FM-13+000399999V0202801N002619999999N999999999-00121+99999103741ADDMD1610171+9999OD159900311999SA1+0471REMSYN080SJSN4 46/// /2805 11012 40374 56017 91900 222// 00047 333 91206 555 11004 22005=
0128997779999992022010820004+39300-075367FM-13+000399999V0203501N002119999999N999999999-00051+99999103721ADDMD1610121+9999OD159900311999SA1+0461REMSYN080SJSN4 46/// /3504 11005 40372 56012 92000 222// 00046 333 91206 555 11004 22004=
0128997779999992022010821004+39300-075367FM-13+000399999V0200101N001519999999N999999999-00061+99999103701ADDMD1610091+9999OD159900211999SA1+0461REMSYN080SJSN4 46/// /0103 11006 40370 56009 92100 222// 00046 333 91204 555 11003 22003=
0128997779999992022010822004+39300-075367FM-13+000399999V0202501N001519999999N999999999-00081+99999103781ADDMD1310041+9999OD159900211999SA1+0461REMSYN080SJSN4 46/// /2503 11008 40378 53004 92200 222// 00046 333 91204 555 11002 22003=
0128997779999992022010823004+39300-075367FM-13+000399999V0201901N003119999999N999999999-00071+99999103801ADDMD1210081+9999OD159900361999SA1+0461REMSYN080SJSN4 46/// /1906 11007 40380 52008 92300 222// 00046 333 91207 555 11005 22006=
0128997779999992022010900004+39300-075367FM-13+000399999V0201901N005119999999N999999999-00061+99999103831ADDMD1110131+9999OD159900621999SA1+0431REMSYN080SJSN4 46/// /1910 11006 40383 51013 90000 222// 00043 333 91212 555 11009 22010=
0088997779999992022010901004+39300-075367FM-13+000399999V0209999C000019999999N999999999-00081+99999103811ADDMD1210031+9999SA1+0431REMSYN054SJSN4 46/// ///// 11008 40381 52003 90100 222// 00043=
0128997779999992022010902004+39300-075367FM-13+000399999V0201801N006219999999N999999999-00021+99999103721ADDMD1810081+9999OD159900721999SA1+0431REMSYN080SJSN4 46/// /1812 11002 40372 58008 90200 222// 00043 333 91214 555 11012 22013=
0128997779999992022010903004+39300-075367FM-13+000399999V0201701N009819999999N999999999+00051+99999103571ADDMD1810261+9999OD159901031999SA1+0431REMSYN080SJSN4 46/// /1719 10005 40357 58026 90300 222// 00043 333 91220 555 11018 22019=
0128997779999992022010904004+39300-075367FM-13+000399999V0201901N008819999999N999999999-00091+99999103581ADDMD1610231+9999OD159900981999SA1+0441REMSYN080SJSN4 46/// /1917 11009 40358 56023 90400 222// 00044 333 91219 555 11016 22017=
0128997779999992022010905004+39300-075367FM-13+000399999V0201901N007719999999N999999999-00091+99999103591ADDMD1610131+9999OD159900881999SA1+0441REMSYN080SJSN4 46/// /1915 11009 40359 56013 90500 222// 00044 333 91217 555 11015 22016=
0128997779999992022010906004+39300-075367FM-13+000399999V0201901N008819999999N999999999+00021+99999103441ADDMD1810131+9999OD159901081999SA1+0431REMSYN080SJSN4 46/// /1917 10002 40344 58013 90600 222// 00043 333 91221 555 11016 22018=
0128997779999992022010907004+39300-075367FM-13+000399999V0201901N007219999999N999999999-00061+99999103501ADDMD1510081+9999OD159900881999SA1+0421REMSYN080SJSN4 46/// /1914 11006 40350 55008 90700 222// 00042 333 91217 555 11014 22015=
0128997779999992022010908004+39300-075367FM-13+000399999V0201801N009319999999N999999999+00011+99999103321ADDMD1810271+9999OD159901031999SA1+0421REMSYN080SJSN4 46/// /1818 10001 40332 58027 90800 222// 00042 333 91220 555 11017 22018=
0128997779999992022010909004+39300-075367FM-13+000399999V0201901N009819999999N999999999+00071+99999103181ADDMD1810261+9999OD159901081999SA1+0431REMSYN080SJSN4 46/// /1919 10007 40318 58026 90900 222// 00043 333 91221 555 11018 22019=
0128997779999992022010910004+39300-075367FM-13+000399999V0201901N008219999999N999999999+00081+99999103091ADDMD1610411+9999OD159900981999SA1+0431REMSYN080SJSN4 46/// /1916 10008 40309 56041 91000 222// 00043 333 91219 555 11015 22017=
0128997779999992022010911004+39300-075367FM-13+000399999V0201701N009819999999N999999999+00151+99999102931ADDMD1810391+9999OD159901181999SA1+0421REMSYN080SJSN4 46/// /1719 10015 40293 58039 91100 222// 00042 333 91223 555 11019 22020=
0128997779999992022010912004+39300-075367FM-13+000399999V0201801N010319999999N999999999+00141+99999102891ADDMD1610291+9999OD159901241999SA1+0421REMSYN080SJSN4 46/// /1820 10014 40289 56029 91200 222// 00042 333 91224 555 11020 22021=
0128997779999992022010913004+39300-075367FM-13+000399999V0201701N009319999999N999999999+00151+99999102801ADDMD1610291+9999OD159901181999SA1+0411REMSYN080SJSN4 46/// /1718 10015 40280 56029 91300 222// 00041 333 91223 555 11017 22019=
0128997779999992022010914004+39300-075367FM-13+000399999V0201701N009319999999N999999999+00181+99999102731ADDMD1810201+9999OD159901031999SA1+0411REMSYN080SJSN4 46/// /1718 10018 40273 58020 91400 222// 00041 333 91220 555 11017 22018=
0128997779999992022010915004+39300-075367FM-13+000399999V0201801N005119999999N999999999+00251+99999102711ADDMD1610181+9999OD159900621999SA1+0421REMSYN080SJSN4 46/// /1810 10025 40271 56018 91500 222// 00042 333 91212 555 11010 22011=
0128997779999992022010916004+39300-075367FM-13+000399999V0202001N004119999999N999999999+00431+99999102611ADDMD1810191+9999OD159900461999SA1+0431REMSYN080SJSN4 46/// /2008 10043 40261 58019 91600 222// 00043 333 91209 555 11008 22008=
0128997779999992022010917004+39300-075367FM-13+000399999V0202001N006719999999N999999999+00541+99999102401ADDMD1810331+9999OD159900771999SA1+0431REMSYN080SJSN4 46/// /2013 10054 40240 58033 91700 222// 00043 333 91215 555 11012 22013=
0128997779999992022010918004+39300-075367FM-13+000399999V0202101N008819999999N999999999+00551+99999102241ADDMD1810471+9999OD159901081999SA1+0431REMSYN080SJSN4 46/// /2117 10055 40224 58047 91800 222// 00043 333 91221 555 11016 22017=
0128997779999992022010919004+39300-075367FM-13+000399999V0202101N006719999999N999999999+00501+99999102111ADDMD1610501+9999OD159900881999SA1+0421REMSYN080SJSN4 46/// /2113 10050 40211 56050 91900 222// 00042 333 91217 555 11012 22014=
0128997779999992022010920004+39300-075367FM-13+000399999V0201801N006719999999N999999999+00471+99999101971ADDMD1610431+9999OD159900771999SA1+0431REMSYN080SJSN4 46/// /1813 10047 40197 56043 92000 222// 00043 333 91215 555 11013 22014=
0128997779999992022010921004+39300-075367FM-13+000399999V0202101N005719999999N999999999+00501+99999101891ADDMD1610351+9999OD159900671999SA1+0431REMSYN080SJSN4 46/// /2111 10050 40189 56035 92100 222// 00043 333 91213 555 11011 22012=
0128997779999992022010922004+39300-075367FM-13+000399999V0202101N006219999999N999999999+00531+99999101871ADDMD1610241+9999OD159900721999SA1+0431REMSYN080SJSN4 46/// /2112 10053 40187 56024 92200 222// 00043 333 91214 555 11012 22013=
0128997779999992022010923004+39300-075367FM-13+000399999V0202201N004619999999N999999999+00561+99999101871ADDMD1610101+9999OD159900571999SA1+0421REMSYN080SJSN4 46/// /2209 10056 40187 56010 92300 222// 00042 333 91211 555 11009 22010=
0128997779999992022011000004+39300-075367FM-13+000399999V0202401N003619999999N999999999+00581+99999101831ADDMD1810061+9999OD159900461999SA1+0421REMSYN080SJSN4 46/// /2407 10058 40183 58006 90000 222// 00042 333 91209 555 11007 22008=
0128997779999992022011001004+39300-075367FM-13+000399999V0202501N003119999999N999999999+00591+99999101801ADDMD1810071+9999OD159900361999SA1+0431REMSYN080SJSN4 46/// /2506 10059 40180 58007 90100 222// 00043 333 91207 555 11006 22006=
0128997779999992022011002004+39300-075367FM-13+000399999V0202801N005119999999N999999999+00611+99999101801ADDMD1610071+9999OD159900621999SA1+0431REMSYN080SJSN4 46/// /2810 10061 40180 56007 90200 222// 00043 333 91212 555 11010 22011=
0128997779999992022011003004+39300-075367FM-13+000399999V0202601N006719999999N999999999+00631+99999101731ADDMD1810101+9999OD159900721999SA1+0431REMSYN080SJSN4 46/// /2613 10063 40173 58010 90300 222// 00043 333 91214 555 11012 22013=
0128997779999992022011004004+39300-075367FM-13+000399999V0202701N006219999999N999999999+00631+99999101761ADDMD1510041+9999OD159900721999SA1+0441REMSYN080SJSN4 46/// /2712 10063 40176 55004 90400 222// 00044 333 91214 555 11012 22013=
0128997779999992022011005004+39300-075367FM-13+000399999V0203301N009819999999N999999999+00541+99999101821ADDMD1510001+9999OD159901081999SA1+0461REMSYN080SJSN4 46/// /3319 10054 40182 55000 90500 222// 00046 333 91221 555 11018 22020=
0128997779999992022011006004+39300-075367FM-13+000399999V0203201N010319999999N999999999+00481+99999101861ADDMD1310131+9999OD159901181999SA1+0471REMSYN080SJSN4 46/// /3220 10048 40186 53013 90600 222// 00047 333 91223 555 11019 22021=
0128997779999992022011007004+39300-075367FM-13+000399999V0203201N011819999999N999999999+00441+99999101921ADDMD1210161+9999OD159901391999SA1+0461REMSYN080SJSN4 46/// /3223 10044 40192 52016 90700 222// 00046 333 91227 555 11022 22024=
0128997779999992022011008004+39300-075367FM-13+000399999V0203201N011819999999N999999999+00391+99999101951ADDMD1110131+9999OD159901291999SA1+0441REMSYN080SJSN4 46/// /3223 10039 40195 51013 90800 222// 00044 333 91225 555 11022 22023=
0128997779999992022011009004+39300-075367FM-13+000399999V0203101N013419999999N999999999+00291+99999101991ADDMD1110131+9999OD159901601999SA1+0431REMSYN080SJSN4 46/// /3126 10029 40199 51013 90900 222// 00043 333 91231 555 11025 22027=
0128997779999992022011010004+39300-075367FM-13+000399999V0203201N013419999999N999999999+00221+99999102081ADDMD1310161+9999OD159901651999SA1+0431REMSYN080SJSN4 46/// /3226 10022 40208 53016 91000 222// 00043 333 91232 555 11025 22027=
0128997779999992022011011004+39300-075367FM-13+000399999V0203001N012419999999N999999999+00111+99999102151ADDMD1310201+9999OD159901391999SA1+0421REMSYN080SJSN4 46/// /3024 10011 40215 53020 91100 222// 00042 333 91227 555 11023 22025=
0128997779999992022011012004+39300-075367FM-13+000399999V0203001N013919999999N999999999+00041+99999102221ADDMD1110231+9999OD159901491999SA1+0421REMSYN080SJSN4 46/// /3027 10004 40222 51023 91200 222// 00042 333 91229 555 11025 22028=
0128997779999992022011013004+39300-075367FM-13+000399999V0203201N013419999999N999999999-00021+99999102361ADDMD1310281+9999OD159901541999SA1+0421REMSYN080SJSN4 46/// /3226 11002 40236 53028 91300 222// 00042 333 91230 555 11025 22027=
0128997779999992022011014004+39300-075367FM-13+000399999V0203101N011819999999N999999999-00091+99999102471ADDMD1310321+9999OD159901391999SA1+0421REMSYN080SJSN4 46/// /3123 11009 40247 53032 91400 222// 00042 333 91227 555 11022 22023=
0128997779999992022011015004+39300-075367FM-13+000399999V0203101N011819999999N999999999-00121+99999102471ADDMD1110251+9999OD159901391999SA1+0421REMSYN080SJSN4 46/// /3123 11012 40247 51025 91500 222// 00042 333 91227 555 11022 22024=
0128997779999992022011016004+39300-075367FM-13+000399999V0203201N009819999999N999999999-00131+99999102501ADDMD1110141+9999OD159901241999SA1+0421REMSYN080SJSN4 46/// /3219 11013 40250 51014 91600 222// 00042 333 91224 555 11018 22020=
0128997779999992022011017004+39300-075367FM-13+000399999V0203101N010819999999N999999999-00181+99999102441ADDMD1810031+9999OD159901241999SA1+0431REMSYN080SJSN4 46/// /3121 11018 40244 58003 91700 222// 00043 333 91224 555 11020 22022=
0128997779999992022011018004+39300-075367FM-13+000399999V0203201N008819999999N999999999-00201+99999102381ADDMD1810091+9999OD159901031999SA1+0431REMSYN080SJSN4 46/// /3217 11020 40238 58009 91800 222// 00043 333 91220 555 11016 22018=
0128997779999992022011019004+39300-075367FM-13+000399999V0203101N007719999999N999999999-00161+99999102351ADDMD1610151+9999OD159900981999SA1+0431REMSYN080SJSN4 46/// /3115 11016 40235 56015 91900 222// 00043 333 91219 555 11014 22016=
0128997779999992022011020004+39300-075367FM-13+000399999V0203001N006219999999N999999999-00121+99999102341ADDMD1610101+9999OD159900821999SA1+0411REMSYN080SJSN4 46/// /3012 11012 40234 56010 92000 222// 00041 333 91216 555 11011 22012=
0128997779999992022011021004+39300-075367FM-13+000399999V0202801N007719999999N999999999-00081+99999102341ADDMD1610041+9999OD159900931999SA1+0411REMSYN080SJSN4 46/// /2815 11008 40234 56004 92100 222// 00041 333 91218 555 11014 22016=
0128997779999992022011022004+39300-075367FM-13+000399999V0202801N005719999999N999999999-00061+99999102331ADDMD1410001+9999OD159900671999SA1+0411REMSYN080SJSN4 46/// /2811 11006 40233 54000 92200 222// 00041 333 91213 555 11010 22011=
0128997779999992022011023004+39300-075367FM-13+000399999V0203101N007219999999N999999999-00031+99999102361ADDMD1510001+9999OD159900931999SA1+0411REMSYN080SJSN4 46/// /3114 11003 40236 55000 92300 222// 00041 333 91218 555 11013 22014=
0128997779999992022011100004+39300-075367FM-13+000399999V0203001N007719999999N999999999-00041+99999102391ADDMD1310051+9999OD159900821999SA1+0411REMSYN080SJSN4 46/// /3015 11004 40239 53005 90000 222// 00041 333 91216 555 11014 22015=
0128997779999992022011101004+39300-075367FM-13+000399999V0203101N007719999999N999999999-00081+99999102411ADDMD1110081+9999OD159900931999SA1+0401REMSYN080SJSN4 46/// /3115 11008 40241 51008 90100 222// 00040 333 91218 555 11014 22015=
0128997779999992022011102004+39300-075367FM-13+000399999V0203001N009319999999N999999999-00111+99999102411ADDMD1110051+9999OD159900981999SA1+0391REMSYN080SJSN4 46/// /3018 11011 40241 51005 90200 222// 00039 333 91219 555 11017 22018=
0128997779999992022011103004+39300-075367FM-13+000399999V0202801N012419999999N999999999-00121+99999102451ADDMD1310061+9999OD159901701999SA1+0391REMSYN080SJSN4 46/// /2824 11012 40245 53006 90300 222// 00039 333 91233 555 11023 22025=
0128997779999992022011104004+39300-075367FM-13+000399999V0202901N011819999999N999999999-00191+99999102551ADDMD1310141+9999OD159901441999SA1+0401REMSYN080SJSN4 46/// /2923 11019 40255 53014 90400 222// 00040 333 91228 555 11022 22024=
0128997779999992022011105004+39300-075367FM-13+000399999V0203001N011319999999N999999999-00221+99999102621ADDMD1310211+9999OD159901601999SA1+0401REMSYN080SJSN4 46/// /3022 11022 40262 53021 90500 222// 00040 333 91231 555 11021 22022=
0128997779999992022011106004+39300-075367FM-13+000399999V0202901N010819999999N999999999-00231+99999102661ADDMD1110211+9999OD159901341999SA1+0391REMSYN080SJSN4 46/// /2921 11023 40266 51021 90600 222// 00039 333 91226 555 11020 22022=
0128997779999992022011107004+39300-075367FM-13+000399999V0202801N008819999999N999999999-00291+99999102781ADDMD1310231+9999OD159901181999SA1+0381REMSYN080SJSN4 46/// /2817 11029 40278 53023 90700 222// 00038 333 91223 555 11016 22018=
0128997779999992022011108004+39300-075367FM-13+000399999V0203001N011819999999N999999999-00291+99999102821ADDMD1210201+9999OD159901441999SA1+0381REMSYN080SJSN4 46/// /3023 11029 40282 52020 90800 222// 00038 333 91228 555 11022 22023=
0128997779999992022011109004+39300-075367FM-13+000399999V0203401N013919999999N999999999-00431+99999102951ADDMD1310291+9999OD159901541999SA1+0371REMSYN080SJSN4 46/// /3427 11043 40295 53029 90900 222// 00037 333 91230 555 11026 22028=
0128997779999992022011110004+39300-075367FM-13+000399999V0203201N012419999999N999999999-00431+99999103071ADDMD1310291+9999OD159901491999SA1+0361REMSYN080SJSN4 46/// /3224 11043 40307 53029 91000 222// 00036 333 91229 555 11022 22024=
0128997779999992022011111004+39300-075367FM-13+000399999V0203401N012919999999N999999999-00491+99999103221ADDMD1310401+9999OD159901701999SA1+0351REMSYN080SJSN4 46/// /3425 11049 40322 53040 91100 222// 00035 333 91233 555 11024 22026=
0128997779999992022011112004+39300-075367FM-13+000399999V0203301N011319999999N999999999-00541+99999103391ADDMD1310441+9999OD159901441999SA1+0351REMSYN080SJSN4 46/// /3322 11054 40339 53044 91200 222// 00035 333 91228 555 11021 22022=
0128997779999992022011113004+39300-075367FM-13+000399999V0203301N010819999999N999999999-00581+99999103441ADDMD1110371+9999OD159901391999SA1+0341REMSYN080SJSN4 46/// /3321 11058 40344 51037 91300 222// 00034 333 91227 555 11020 22022=
0128997779999992022011114004+39300-075367FM-13+000399999V0203301N011319999999N999999999-00601+99999103521ADDMD1110301+9999OD159901291999SA1+0321REMSYN080SJSN4 46/// /3322 11060 40352 51030 91400 222// 00032 333 91225 555 11021 22023=
0128997779999992022011115004+39300-075367FM-13+000399999V0203401N009819999999N999999999-00621+99999103571ADDMD1210181+9999OD159901131999SA1+0321REMSYN080SJSN4 46/// /3419 11062 40357 52018 91500 222// 00032 333 91222 555 11018 22020=
0128997779999992022011116004+39300-075367FM-13+000399999V0203201N008219999999N999999999-00581+99999103601ADDMD1110161+9999OD159900981999SA1+0331REMSYN080SJSN4 46/// /3216 11058 40360 51016 91600 222// 00033 333 91219 555 11015 22016=
0128997779999992022011117004+39300-075367FM-13+000399999V0203101N006219999999N999999999-00561+99999103521ADDMD1990001+9999OD159900931999SA1+0341REMSYN080SJSN4 46/// /3112 11056 40352 50000 91700 222// 00034 333 91218 555 11011 22012=
0128997779999992022011118004+39300-075367FM-13+000399999V0203101N004619999999N999999999-00521+99999103471ADDMD1810101+9999OD159900821999SA1+0361REMSYN080SJSN4 46/// /3109 11052 40347 58010 91800 222// 00036 333 91216 555 11008 22009=
0128997779999992022011119004+39300-075367FM-13+000399999V0203201N007719999999N999999999-00471+99999103471ADDMD1610131+9999OD159900881999SA1+0351REMSYN080SJSN4 46/// /3215 11047 40347 56013 91900 222// 00035 333 91217 555 11014 22015=
0128997779999992022011120004+39300-075367FM-13+000399999V0203201N005719999999N999999999-00421+99999103481ADDMD1610041+9999OD159900821999SA1+0361REMSYN080SJSN4 46/// /3211 11042 40348 56004 92000 222// 00036 333 91216 555 11011 22012=
0128997779999992022011121004+39300-075367FM-13+000399999V0203101N005719999999N999999999-00391+99999103511ADDMD1310041+9999OD159900721999SA1+0341REMSYN080SJSN4 46/// /3111 11039 40351 53004 92100 222// 00034 333 91214 555 11010 22011=
0128997779999992022011122004+39300-075367FM-13+000399999V0203201N004119999999N999999999-00401+99999103561ADDMD1310091+9999OD159900671999SA1+0341REMSYN080SJSN4 46/// /3208 11040 40356 53009 92200 222// 00034 333 91213 555 11007 22008=
0128997779999992022011123004+39300-075367FM-13+000399999V0203601N005719999999N999999999-00431+99999103541ADDMD1110061+9999OD159900721999SA1+0341REMSYN080SJSN4 46/// /3611 11043 40354 51006 92300 222// 00034 333 91214 555 11010 22011=
0128997779999992022011200004+39300-075367FM-13+000399999V0200201N004619999999N999999999-00461+99999103521ADDMD1990001+9999OD159900571999SA1+0341REMSYN080SJSN4 46/// /0209 11046 40352 50000 90000 222// 00034 333 91211 555 11009 22010=
0088997779999992022011201004+39300-075367FM-13+000399999V0209999C000019999999N999999999-00481+99999103581ADDMD1510001+9999SA1+0331REMSYN054SJSN4 46/// ///// 11048 40358 55000 90100 222// 00033=
0128997779999992022011202004+39300-075367FM-13+000399999V0200601N001519999999N999999999-00491+99999103531ADDMD1990001+9999OD159900311999SA1+0301REMSYN080SJSN4 46/// /0603 11049 40353 50000 90200 222// 00030 333 91206 555 11003 22003=
0128997779999992022011203004+39300-075367FM-13+000399999V0201401N002619999999N999999999-00461+99999103451ADDMD1810071+9999OD159900411999SA1+0291REMSYN080SJSN4 46/// /1405 11046 40345 58007 90300 222// 00029 333 91208 555 11004 22005=
0128997779999992022011204004+39300-075367FM-13+000399999V0201901N005719999999N999999999-00381+99999103381ADDMD1810201+9999OD159900621999SA1+0281REMSYN080SJSN4 46/// /1911 11038 40338 58020 90400 222// 00028 333 91212 555 11010 22011=
0128997779999992022011205004+39300-075367FM-13+000399999V0202001N007219999999N999999999-00381+99999103341ADDMD1610191+9999OD159900821999SA1+0291REMSYN080SJSN4 46/// /2014 11038 40334 56019 90500 222// 00029 333 91216 555 11013 22014=
0128997779999992022011206004+39300-075367FM-13+000399999V0201901N008219999999N999999999-00391+99999103241ADDMD1810211+9999OD159900931999SA1+0291REMSYN080SJSN4 46/// /1916 11039 40324 58021 90600 222// 00029 333 91218 555 11015 22017=
0128997779999992022011207004+39300-075367FM-13+000399999V0201901N008219999999N999999999-00381+99999103171ADDMD1810211+9999OD159900931999SA1+0301REMSYN080SJSN4 46/// /1916 11038 40317 58021 90700 222// 00030 333 91218 555 11015 22016=
0128997779999992022011208004+39300-075367FM-13+000399999V0201801N009319999999N999999999-00311+99999103061ADDMD1810281+9999OD159901031999SA1+0301REMSYN080SJSN4 46/// /1818 11031 40306 58028 90800 222// 00030 333 91220 555 11017 22018=
0128997779999992022011209004+39300-075367FM-13+000399999V0201801N008819999999N999999999-00331+99999102941ADDMD1810301+9999OD159901031999SA1+0281REMSYN080SJSN4 46/// /1817 11033 40294 58030 90900 222// 00028 333 91220 555 11017 22018=
0128997779999992022011210004+39300-075367FM-13+000399999V0201901N008219999999N999999999-00411+99999102911ADDMD1610261+9999OD159900931999SA1+0271REMSYN080SJSN4 46/// /1916 11041 40291 56026 91000 222// 00027 333 91218 555 11016 22017=
0128997779999992022011211004+39300-075367FM-13+000399999V0201801N011319999999N999999999-00301+99999102781ADDMD1810281+9999OD159901291999SA1+0261REMSYN080SJSN4 46/// /1822 11030 40278 58028 91100 222// 00026 333 91225 555 11021 22023=
0128997779999992022011212004+39300-075367FM-13+000399999V0201901N010319999999N999999999-00301+99999102681ADDMD1810261+9999OD159901181999SA1+0251REMSYN080SJSN4 46/// /1920 11030 40268 58026 91200 222// 00025 333 91223 555 11019 22021=
0128997779999992022011213004+39300-075367FM-13+000399999V0201901N008219999999N999999999-00251+99999102651ADDMD1610261+9999OD159900981999SA1+0251REMSYN080SJSN4 46/// /1916 11025 40265 56026 91300 222// 00025 333 91219 555 11015 22016=
0128997779999992022011214004+39300-075367FM-13+000399999V0201901N006719999999N999999999-00131+99999102611ADDMD1610171+9999OD159900771999SA1+0251REMSYN080SJSN4 46/// /1913 11013 40261 56017 91400 222// 00025 333 91215 555 11012 22013=
0128997779999992022011215004+39300-075367FM-13+000399999V0202001N009819999999N999999999+00061+99999102541ADDMD1810141+9999OD159901131999SA1+0251REMSYN080SJSN4 46/// /2019 10006 40254 58014 91500 222// 00025 333 91222 555 11018 22019=
0128997779999992022011216004+39300-075367FM-13+000399999V0202301N009819999999N999999999+00241+99999102441ADDMD1810211+9999OD159901181999SA1+0261REMSYN080SJSN4 46/// /2319 10024 40244 58021 91600 222// 00026 333 91223 555 11018 22020=
0128997779999992022011217004+39300-075367FM-13+000399999V0202101N009319999999N999999999+00331+99999102281ADDMD1810331+9999OD159901031999SA1+0261REMSYN080SJSN4 46/// /2118 10033 40228 58033 91700 222// 00026 333 91220 555 11017 22019=
0128997779999992022011218004+39300-075367FM-13+000399999V0202101N009319999999N999999999+00421+99999102111ADDMD1810431+9999OD159901131999SA1+0281REMSYN080SJSN4 46/// /2118 10042 40211 58043 91800 222// 00028 333 91222 555 11017 22019=
0128997779999992022011219004+39300-075367FM-13+000399999V0202101N005119999999N999999999+00501+99999102021ADDMD1610421+9999OD159900771999SA1+0301REMSYN080SJSN4 46/// /2110 10050 40202 56042 91900 222// 00030 333 91215 555 11010 22010=
0128997779999992022011220004+39300-075367FM-13+000399999V0202301N006219999999N999999999+00551+99999102031ADDMD1610251+9999OD159900721999SA1+0301REMSYN080SJSN4 46/// /2312 10055 40203 56025 92000 222// 00030 333 91214 555 11011 22012=
0128997779999992022011221004+39300-075367FM-13+000399999V0202401N003119999999N999999999+00531+99999102021ADDMD1610091+9999OD159900361999SA1+0301REMSYN080SJSN4 46/// /2406 10053 40202 56009 92100 222// 00030 333 91207 555 11006 22006=
0128997779999992022011222004+39300-075367FM-13+000399999V0202001N003119999999N999999999+00461+99999102031ADDMD1410001+9999OD159900361999SA1+0301REMSYN080SJSN4 46/// /2006 10046 40203 54000 92200 222// 00030 333 91207 555 11006 22006=
0128997779999992022011223004+39300-075367FM-13+000399999V0202001N004619999999N999999999+00371+99999102041ADDMD1410001+9999OD159900511999SA1+0291REMSYN080SJSN4 46/// /2009 10037 40204 54000 92300 222// 00029 333 91210 555 11008 22009=
0128997779999992022011300004+39300-075367FM-13+000399999V0201701N003619999999N999999999+00391+99999102051ADDMD1210031+9999OD159900411999SA1+0291REMSYN080SJSN4 46/// /1707 10039 40205 52003 90000 222// 00029 333 91208 555 11007 22008=
0128997779999992022011301004+39300-075367FM-13+000399999V0201601N003619999999N999999999+00391+99999102071ADDMD1210041+9999OD159900411999SA1+0281REMSYN080SJSN4 46/// /1607 10039 40207 52004 90100 222// 00028 333 91208 555 11007 22008=
0128997779999992022011302004+39300-075367FM-13+000399999V0201601N004119999999N999999999+00371+99999102051ADDMD1410001+9999OD159900461999SA1+0291REMSYN080SJSN4 46/// /1608 10037 40205 54000 90200 222// 00029 333 91209 555 11008 22009=
0128997779999992022011303004+39300-075367FM-13+000399999V0201501N003119999999N999999999+00371+99999102011ADDMD1810041+9999OD159900361999SA1+0291REMSYN080SJSN4 46/// /1506 10037 40201 58004 90300 222// 00029 333 91207 555 11006 22006=
0128997779999992022011304004+39300-075367FM-13+000399999V0201501N002119999999N999999999+00331+99999101961ADDMD1810111+9999OD159900261999SA1+0291REMSYN080SJSN4 46/// /1504 10033 40196 58011 90400 222// 00029 333 91205 555 11004 22004=
0128997779999992022011305004+39300-075367FM-13+000399999V0201501N002619999999N999999999+00321+99999101941ADDMD1610111+9999OD159900361999SA1+0291REMSYN080SJSN4 46/// /1505 10032 40194 56011 90500 222// 00029 333 91207 555 11005 22006=
0128997779999992022011306004+39300-075367FM-13+000399999V0201601N003119999999N999999999+00301+99999101911ADDMD1610101+9999OD159900361999SA1+0301REMSYN080SJSN4 46/// /1606 10030 40191 56010 90600 222// 00030 333 91207 555 11006 22006=
0128997779999992022011307004+39300-075367FM-13+000399999V0201801N003119999999N999999999+00301+99999101891ADDMD1710071+9999OD159900361999SA1+0311REMSYN080SJSN4 46/// /1806 10030 40189 57007 90700 222// 00031 333 91207 555 11006 22007=
0128997779999992022011308004+39300-075367FM-13+000399999V0201901N002119999999N999999999+00261+99999101861ADDMD1710081+9999OD159900261999SA1+0311REMSYN080SJSN4 46/// /1904 10026 40186 57008 90800 222// 00031 333 91205 555 11004 22004=
0128997779999992022011309004+39300-075367FM-13+000399999V0201801N002119999999N999999999+00241+99999101821ADDMD1810091+9999OD159900211999SA1+0311REMSYN080SJSN4 46/// /1804 10024 40182 58009 90900 222// 00031 333 91204 555 11004 22004=
0128997779999992022011310004+39300-075367FM-13+000399999V0201901N001519999999N999999999+00211+99999101781ADDMD1810111+9999OD159900151999SA1+0291REMSYN080SJSN4 46/// /1903 10021 40178 58011 91000 222// 00029 333 91203 555 11003 22003=
0128997779999992022011311004+39300-075367FM-13+000399999V0201601N001519999999N999999999+00191+99999101771ADDMD1610091+9999OD159900151999SA1+0311REMSYN080SJSN4 46/// /1603 10019 40177 56009 91100 222// 00031 333 91203 555 11003 22003=
0128997779999992022011312004+39300-075367FM-13+000399999V0201901N001019999999N999999999+00201+99999101791ADDMD1610031+9999OD159900151999SA1+0321REMSYN080SJSN4 46/// /1902 10020 40179 56003 91200 222// 00032 333 91203 555 11002 22002=
0128997779999992022011313004+39300-075367FM-13+000399999V0202201N001019999999N999999999+00211+99999101781ADDMD1410001+9999OD159900151999SA1+0311REMSYN080SJSN4 46/// /2202 10021 40178 54000 91300 222// 00031 333 91203 555 11002 22002=
0128997779999992022011314004+39300-075367FM-13+000399999V0201901N001519999999N999999999+00211+99999101771ADDMD1410001+9999OD159900151999SA1+0311REMSYN080SJSN4 46/// /1903 10021 40177 54000 91400 222// 00031 333 91203 555 11003 22003=
0128997779999992022011315004+39300-075367FM-13+000399999V0203201N002119999999N999999999+00211+99999101771ADDMD1410001+9999OD159900211999SA1+0311REMSYN080SJSN4 46/// /3204 10021 40177 54000 91500 222// 00031 333 91204 555 11003 22004=
0128997779999992022011316004+39300-075367FM-13+000399999V0203101N003119999999N999999999+00261+99999101711ADDMD1810071+9999OD159900311999SA1+0311REMSYN080SJSN4 46/// /3106 10026 40171 58007 91600 222// 00031 333 91206 555 11006 22006=
0128997779999992022011317004+39300-075367FM-13+000399999V0203101N002619999999N999999999+00331+99999101561ADDMD1810211+9999OD159900261999SA1+0311REMSYN080SJSN4 46/// /3105 10033 40156 58021 91700 222// 00031 333 91205 555 11004 22005=
0128997779999992022011318004+39300-075367FM-13+000399999V0203301N000519999999N999999999+00401+99999101461ADDMD1810311+9999OD159900101999SA1+0321REMSYN080SJSN4 46/// /3301 10040 40146 58031 91800 222// 00032 333 91202 555 11001 22001=
0128997779999992022011319004+39300-075367FM-13+000399999V0200501N000519999999N999999999+00491+99999101381ADDMD1610331+9999OD159900051999SA1+0331REMSYN080SJSN4 46/// /0501 10049 40138 56033 91900 222// 00033 333 91201 555 11001 22001=
0128997779999992022011320004+39300-075367FM-13+000399999V0201301N002619999999N999999999+00481+99999101341ADDMD1610221+9999OD159900261999SA1+0341REMSYN080SJSN4 46/// /1305 10048 40134 56022 92000 222// 00034 333 91205 555 11005 22005=
0128997779999992022011321004+39300-075367FM-13+000399999V0201201N002619999999N999999999+00471+99999101291ADDMD1610171+9999OD159900261999SA1+0351REMSYN080SJSN4 46/// /1205 10047 40129 56017 92100 222// 00035 333 91205 555 11004 22005=
0128997779999992022011322004+39300-075367FM-13+000399999V0201401N001019999999N999999999+00521+99999101261ADDMD1610121+9999OD159900151999SA1+0341REMSYN080SJSN4 46/// /1402 10052 40126 56012 92200 222// 00034 333 91203 555 11002 22002=
0128997779999992022011323004+39300-075367FM-13+000399999V0201501N000519999999N999999999+00451+99999101271ADDMD1610071+9999OD159900101999SA1+0311REMSYN080SJSN4 46/// /1501 10045 40127 56007 92300 222// 00031 333 91202 555 11001 22001=
0128997779999992022011400004+39300-075367FM-13+000399999V0203501N002119999999N999999999+00411+99999101251ADDMD1610041+9999OD159900261999SA1+0321REMSYN080SJSN4 46/// /3504 10041 40125 56004 90000 222// 00032 333 91205 555 11004 22004=
0128997779999992022011401004+39300-075367FM-13+000399999V0200601N002119999999N999999999+00331+99999101221ADDMD1810041+9999OD159900311999SA1+0321REMSYN080SJSN4 46/// /0604 10033 40122 58004 90100 222// 00032 333 91206 555 11004 22004=
0128997779999992022011402004+39300-075367FM-13+000399999V0200701N001519999999N999999999+00321+99999101191ADDMD1810081+9999OD159900211999SA1+0321REMSYN080SJSN4 46/// /0703 10032 40119 58008 90200 222// 00032 333 91204 555 11003 22003=
0128997779999992022011403004+39300-075367FM-13+000399999V0200401N002619999999N999999999+00351+99999101171ADDMD1610081+9999OD159900311999SA1+0321REMSYN080SJSN4 46/// /0405 10035 40117 56008 90300 222// 00032 333 91206 555 11005 22005=
0128997779999992022011404004+39300-075367FM-13+000399999V0203501N004619999999N999999999+00341+99999101051ADDMD1810171+9999OD159900461999SA1+0321REMSYN080SJSN4 46/// /3509 10034 40105 58017 90400 222// 00032 333 91209 555 11009 22009=
0128997779999992022011405004+39300-075367FM-13+000399999V0203501N003619999999N999999999+00281+99999100991ADDMD1810201+9999OD159900411999SA1+0321REMSYN080SJSN4 46/// /3507 10028 40099 58020 90500 222// 00032 333 91208 555 11007 22007=
0128997779999992022011406004+39300-075367FM-13+000399999V0203401N005719999999N999999999+00271+99999100951ADDMD1610221+9999OD159900571999SA1+0321REMSYN080SJSN4 46/// /3411 10027 40095 56022 90600 222// 00032 333 91211 555 11010 22011=
0128997779999992022011407004+39300-075367FM-13+000399999V0203601N005719999999N999999999+00321+99999100951ADDMD1610101+9999OD159900621999SA1+0321REMSYN080SJSN4 46/// /3611 10032 40095 56010 90700 222// 00032 333 91212 555 11010 22011=
0128997779999992022011408004+39300-075367FM-13+000399999V0203401N005719999999N999999999+00261+99999100921ADDMD1610071+9999OD159900621999SA1+0331REMSYN080SJSN4 46/// /3411 10026 40092 56007 90800 222// 00033 333 91212 555 11011 22012=
0128997779999992022011409004+39300-075367FM-13+000399999V0203401N007219999999N999999999+00241+99999100871ADDMD1810081+9999OD159900771999SA1+0331REMSYN080SJSN4 46/// /3414 10024 40087 58008 90900 222// 00033 333 91215 555 11013 22015=
0128997779999992022011410004+39300-075367FM-13+000399999V0203501N006219999999N999999999+00311+99999100791ADDMD1810161+9999OD159900721999SA1+0311REMSYN080SJSN4 46/// /3512 10031 40079 58016 91000 222// 00031 333 91214 555 11012 22013=
0128997779999992022011411004+39300-075367FM-13+000399999V0203401N006219999999N999999999+00281+99999100821ADDMD1510101+9999OD159900671999SA1+0311REMSYN080SJSN4 46/// /3412 10028 40082 55010 91100 222// 00031 333 91213 555 11012 22013=
0128997779999992022011412004+39300-075367FM-13+000399999V0203201N007219999999N999999999+00291+99999100861ADDMD1510001+9999OD159900821999SA1+0311REMSYN080SJSN4 46/// /3214 10029 40086 55000 91200 222// 00031 333 91216 555 11013 22015=
0128997779999992022011413004+39300-075367FM-13+000399999V0203401N007719999999N999999999+00321+99999100881ADDMD1110091+9999OD159900881999SA1+0311REMSYN080SJSN4 46/// /3415 10032 40088 51009 91300 222// 00031 333 91217 555 11015 22016=
0128997779999992022011414004+39300-075367FM-13+000399999V0200101N008819999999N999999999+00431+99999100861ADDMD1110041+9999OD159901031999SA1+0311REMSYN080SJSN4 46/// /0117 10043 40086 51004 91400 222// 00031 333 91220 555 11016 22018=
0128997779999992022011415004+39300-075367FM-13+000399999V0203401N008819999999N999999999+00451+99999100931ADDMD1310071+9999OD159901081999SA1+0311REMSYN080SJSN4 46/// /3417 10045 40093 53007 91500 222// 00031 333 91221 555 11016 22017=
0128997779999992022011416004+39300-075367FM-13+000399999V0203501N009819999999N999999999+00591+99999100921ADDMD1210041+9999OD159901181999SA1+0311REMSYN080SJSN4 46/// /3519 10059 40092 52004 91600 222// 00031 333 91223 555 11018 22019=
0128997779999992022011417004+39300-075367FM-13+000399999V0203401N009819999999N999999999+00651+99999100881ADDMD1990001+9999OD159901081999SA1+0321REMSYN080SJSN4 46/// /3419 10065 40088 50000 91700 222// 00032 333 91221 555 11018 22019=
0128997779999992022011418004+39300-075367FM-13+000399999V0203201N011319999999N999999999+00581+99999100881ADDMD1710051+9999OD159901181999SA1+0331REMSYN080SJSN4 46/// /3222 10058 40088 57005 91800 222// 00033 333 91223 555 11021 22023=
0128997779999992022011419004+39300-075367FM-13+000399999V0203301N009319999999N999999999+00601+99999100891ADDMD1610031+9999OD159900981999SA1+0331REMSYN080SJSN4 46/// /3318 10060 40089 56003 91900 222// 00033 333 91219 555 11017 22018=
0128997779999992022011420004+39300-075367FM-13+000399999V0203401N011319999999N999999999+00621+99999100931ADDMD1310051+9999OD159901341999SA1+0341REMSYN080SJSN4 46/// /3422 10062 40093 53005 92000 222// 00034 333 91226 555 11021 22022=
0128997779999992022011421004+39300-075367FM-13+000399999V0203301N011819999999N999999999+00561+99999101011ADDMD1310131+9999OD159901391999SA1+0341REMSYN080SJSN4 46/// /3323 10056 40101 53013 92100 222// 00034 333 91227 555 11022 22024=
0128997779999992022011422004+39300-075367FM-13+000399999V0203201N012919999999N999999999+00491+99999101101ADDMD1310211+9999OD159901391999SA1+0351REMSYN080SJSN4 46/// /3225 10049 40110 53021 92200 222// 00035 333 91227 555 11023 22025=
0128997779999992022011423004+39300-075367FM-13+000399999V0203201N011819999999N999999999+00401+99999101221ADDMD1310291+9999OD159901291999SA1+0351REMSYN080SJSN4 46/// /3223 10040 40122 53029 92300 222// 00035 333 91225 555 11022 22024=
0128997779999992022011500004+39300-075367FM-13+000399999V0203301N013419999999N999999999+00301+99999101321ADDMD1310311+9999OD159901541999SA1+0341REMSYN080SJSN4 46/// /3326 10030 40132 53031 90000 222// 00034 333 91230 555 11025 22027=
0128997779999992022011501004+39300-075367FM-13+000399999V0203301N013919999999N999999999+00131+99999101441ADDMD1210341+9999OD159901651999SA1+0331REMSYN080SJSN4 46/// /3327 10013 40144 52034 90100 222// 00033 333 91232 555 11026 22028=
0128997779999992022011502004+39300-075367FM-13+000399999V0203401N012919999999N999999999+00041+99999101511ADDMD1110291+9999OD159901541999SA1+0321REMSYN080SJSN4 46/// /3425 10004 40151 51029 90200 222// 00032 333 91230 555 11024 22026=
0128997779999992022011503004+39300-075367FM-13+000399999V0203301N012919999999N999999999-00071+99999101581ADDMD1110261+9999OD159901491999SA1+0311REMSYN080SJSN4 46/// /3325 11007 40158 51026 90300 222// 00031 333 91229 555 11024 22026=
0128997779999992022011504004+39300-075367FM-13+000399999V0203301N011319999999N999999999-00151+99999101671ADDMD1310231+9999OD159901541999SA1+0311REMSYN080SJSN4 46/// /3322 11015 40167 53023 90400 222// 00031 333 91230 555 11021 22023=
0128997779999992022011505004+39300-075367FM-13+000399999V0203301N013919999999N999999999-00231+99999101671ADDMD1110161+9999OD159901651999SA1+0311REMSYN080SJSN4 46/// /3327 11023 40167 51016 90500 222// 00031 333 91232 555 11026 22028=
0128997779999992022011506004+39300-075367FM-13+000399999V0203301N012919999999N999999999-00331+99999101751ADDMD1110171+9999OD159901441999SA1+0311REMSYN080SJSN4 46/// /3325 11033 40175 51017 90600 222// 00031 333 91228 555 11024 22026=
0128997779999992022011507004+39300-075367FM-13+000399999V0203301N012919999999N999999999-00361+99999101861ADDMD1310191+9999OD159901441999SA1+0321REMSYN080SJSN4 46/// /3325 11036 40186 53019 90700 222// 00032 333 91228 555 11023 22025=
0128997779999992022011508004+39300-075367FM-13+000399999V0203301N012919999999N999999999-00401+99999101951ADDMD1310281+9999OD159901491999SA1+0311REMSYN080SJSN4 46/// /3325 11040 40195 53028 90800 222// 00031 333 91229 555 11024 22026=
0128997779999992022011509004+39300-075367FM-13+000399999V0203301N013919999999N999999999-00511+99999102031ADDMD1110281+9999OD159901541999SA1+0301REMSYN080SJSN4 46/// /3327 11051 40203 51028 90900 222// 00030 333 91230 555 11026 22028=
0128997779999992022011510004+39300-075367FM-13+000399999V0203301N010319999999N999999999-00571+99999102101ADDMD1110241+9999OD159901291999SA1+0291REMSYN080SJSN4 46/// /3320 11057 40210 51024 91000 222// 00029 333 91225 555 11019 22020=
0128997779999992022011511004+39300-075367FM-13+000399999V0203501N012419999999N999999999-00621+99999102181ADDMD1210231+9999OD159901391999SA1+0281REMSYN080SJSN4 46/// /3524 11062 40218 52023 91100 222// 00028 333 91227 555 11022 22024=
0128997779999992022011512004+39300-075367FM-13+000399999V0203501N011319999999N999999999-00671+99999102331ADDMD1310301+9999OD159901441999SA1+0291REMSYN080SJSN4 46/// /3522 11067 40233 53030 91200 222// 00029 333 91228 555 11021 22023=
0128997779999992022011513004+39300-075367FM-13+000399999V0203601N009819999999N999999999-00761+99999102471ADDMD1310371+9999OD159901081999SA1+0281REMSYN080SJSN4 46/// /3619 11076 40247 53037 91300 222// 00028 333 91221 555 11018 22019=
0128997779999992022011514004+39300-075367FM-13+000399999V0203601N008819999999N999999999-00751+99999102571ADDMD1110391+9999OD159901131999SA1+0281REMSYN080SJSN4 46/// /3617 11075 40257 51039 91400 222// 00028 333 91222 555 11016 22017=
0128997779999992022011515004+39300-075367FM-13+000399999V0203601N009319999999N999999999-00721+99999102691ADDMD1110361+9999OD159901131999SA1+0271REMSYN080SJSN4 46/// /3618 11072 40269 51036 91500 222// 00027 333 91222 555 11017 22018=
0128997779999992022011516004+39300-075367FM-13+000399999V0203601N008219999999N999999999-00641+99999102671ADDMD1110201+9999OD159900981999SA1+0261REMSYN080SJSN4 46/// /3616 11064 40267 51020 91600 222// 00026 333 91219 555 11016 22017=
0128997779999992022011517004+39300-075367FM-13+000399999V0203401N006719999999N999999999-00651+99999102721ADDMD1110151+9999OD159900821999SA1+0271REMSYN080SJSN4 46/// /3413 11065 40272 51015 91700 222// 00027 333 91216 555 11012 22013=
0128997779999992022011518004+39300-075367FM-13+000399999V0203501N007719999999N999999999-00601+99999102711ADDMD1410001+9999OD159900931999SA1+0261REMSYN080SJSN4 46/// /3515 11060 40271 54000 91800 222// 00026 333 91218 555 11014 22015=
0128997779999992022011519004+39300-075367FM-13+000399999V0203501N006219999999N999999999-00581+99999102711ADDMD1110041+9999OD159900821999SA1+0261REMSYN080SJSN4 46/// /3512 11058 40271 51004 91900 222// 00026 333 91216 555 11012 22013=
0128997779999992022011520004+39300-075367FM-13+000399999V0203601N007219999999N999999999-00511+99999102711ADDMD1410001+9999OD159900821999SA1+0261REMSYN080SJSN4 46/// /3614 11051 40271 54000 92000 222// 00026 333 91216 555 11013 22014=
0128997779999992022011521004+39300-075367FM-13+000399999V0203501N006219999999N999999999-00511+99999102781ADDMD1310071+9999OD159900771999SA1+0261REMSYN080SJSN4 46/// /3512 11051 40278 53007 92100 222// 00026 333 91215 555 11012 22013=
0128997779999992022011522004+39300-075367FM-13+000399999V0203601N005119999999N999999999-00521+99999102811ADDMD1310101+9999OD159900721999SA1+0241REMSYN080SJSN4 46/// /3610 11052 40281 53010 92200 222// 00024 333 91214 555 11010 22011=
0128997779999992022011523004+39300-075367FM-13+000399999V0203601N005719999999N999999999-00501+99999102901ADDMD1310191+9999OD159900671999SA1+0251REMSYN080SJSN4 46/// /3611 11050 40290 53019 92300 222// 00025 333 91213 555 11010 22011=
0128997779999992022011600004+39300-075367FM-13+000399999V0200101N006719999999N999999999-00521+99999102881ADDMD1110101+9999OD159900771999SA1+0241REMSYN080SJSN4 46/// /0113 11052 40288 51010 90000 222// 00024 333 91215 555 11013 22014=
0088997779999992022011601004+39300-075367FM-13+000399999V0209999C000019999999N999999999-00561+99999102951ADDMD1110141+9999SA1+0231REMSYN054SJSN4 46/// ///// 11056 40295 51014 90100 222// 00023=
0128997779999992022011602004+39300-075367FM-13+000399999V0200101N005119999999N999999999-00611+99999102981ADDMD1310081+9999OD159900671999SA1+0241REMSYN080SJSN4 46/// /0110 11061 40298 53008 90200 222// 00024 333 91213 555 11010 22011=
0128997779999992022011603004+39300-075367FM-13+000399999V0203601N005119999999N999999999-00651+99999103021ADDMD1110141+9999OD159900671999SA1+0241REMSYN080SJSN4 46/// /3610 11065 40302 51014 90300 222// 00024 333 91213 555 11009 22010=
0128997779999992022011604004+39300-075367FM-13+000399999V0200101N006219999999N999999999-00711+99999103041ADDMD1110091+9999OD159900721999SA1+0241REMSYN080SJSN4 46/// /0112 11071 40304 51009 90400 222// 00024 333 91214 555 11012 22013=
0128997779999992022011605004+39300-075367FM-13+000399999V0200201N006719999999N999999999-00761+99999103071ADDMD1110091+9999OD159900771999SA1+0231REMSYN080SJSN4 46/// /0213 11076 40307 51009 90500 222// 00023 333 91215 555 11013 22014=
0128997779999992022011606004+39300-075367FM-13+000399999V0200401N006219999999N999999999-00771+99999102971ADDMD1810051+9999OD159900771999SA1+0221REMSYN080SJSN4 46/// /0412 11077 40297 58005 90600 222// 00022 333 91215 555 11012 22013=
0128997779999992022011607004+39300-075367FM-13+000399999V0200301N006719999999N999999999-00811+99999103061ADDMD1510001+9999OD159900771999SA1+0221REMSYN080SJSN4 46/// /0313 11081 40306 55000 90700 222// 00022 333 91215 555 11012 22013=
0128997779999992022011608004+39300-075367FM-13+000399999V0200301N006719999999N999999999-00851+99999102991ADDMD1610081+9999OD159900821999SA1+0211REMSYN080SJSN4 46/// /0313 11085 40299 56008 90800 222// 00021 333 91216 555 11013 22014=
0128997779999992022011609004+39300-075367FM-13+000399999V0200401N007219999999N999999999-00901+99999102951ADDMD1990001+9999OD159900821999SA1+0211REMSYN080SJSN4 46/// /0414 11090 40295 50000 90900 222// 00021 333 91216 555 11013 22014=
0128997779999992022011610004+39300-075367FM-13+000399999V0200401N007719999999N999999999-00921+99999102901ADDMD1610161+9999OD159900881999SA1+0211REMSYN080SJSN4 46/// /0415 11092 40290 56016 91000 222// 00021 333 91217 555 11014 22015=
0128997779999992022011611004+39300-075367FM-13+000399999V0200401N005119999999N999999999-00911+99999102971ADDMD1510001+9999OD159900621999SA1+0221REMSYN080SJSN4 46/// /0410 11091 40297 55000 91100 222// 00022 333 91212 555 11010 22010=
0128997779999992022011612004+39300-075367FM-13+000399999V0200301N006219999999N999999999-00931+99999102951ADDMD1510001+9999OD159900721999SA1+0191REMSYN080SJSN4 46/// /0312 11093 40295 55000 91200 222// 00019 333 91214 555 11011 22012=
0128997779999992022011613004+39300-075367FM-13+000399999V0200301N005719999999N999999999-00921+99999102951ADDMD1110051+9999OD159900621999SA1+0201REMSYN080SJSN4 46/// /0311 11092 40295 51005 91300 222// 00020 333 91212 555 11010 22011=
0128997779999992022011614004+39300-075367FM-13+000399999V0200301N004119999999N999999999-00801+99999102921ADDMD1810051+9999OD159900511999SA1+0201REMSYN080SJSN4 46/// /0308 11080 40292 58005 91400 222// 00020 333 91210 555 11008 22009=
0128997779999992022011615004+39300-075367FM-13+000399999V0200201N004119999999N999999999-00631+99999102871ADDMD1810081+9999OD159900461999SA1+0201REMSYN080SJSN4 46/// /0208 11063 40287 58008 91500 222// 00020 333 91209 555 11008 22009=
0128997779999992022011616004+39300-075367FM-13+000399999V0200401N007219999999N999999999-00421+99999102661ADDMD1810291+9999OD159900771999SA1+0201REMSYN080SJSN4 46/// /0414 11042 40266 58029 91600 222// 00020 333 91215 555 11013 22014=
0128997779999992022011617004+39300-075367FM-13+000399999V0200501N005719999999N999999999-00281+99999102531ADDMD1810391+9999OD159900621999SA1+0201REMSYN080SJSN4 46/// /0511 11028 40253 58039 91700 222// 00020 333 91212 555 11010 22011=
0128997779999992022011618004+39300-075367FM-13+000399999V0200401N007219999999N999999999-00161+99999102291ADDMD1810581+9999OD159900821999SA1+0201REMSYN080SJSN4 46/// /0414 11016 40229 58058 91800 222// 00020 333 91216 555 11013 22015=
0128997779999992022011619004+39300-075367FM-13+000399999V0200501N007719999999N999999999-00081+99999102071ADDMD1810591+9999OD159900881999SA1+0201REMSYN080SJSN4 46/// /0515 11008 40207 58059 91900 222// 00020 333 91217 555 11014 22015=
0128997779999992022011620004+39300-075367FM-13+000399999V0200401N007719999999N999999999-00041+99999101881ADDMD1610651+9999OD159900981999SA1+0211REMSYN080SJSN4 46/// /0415 11004 40188 56065 92000 222// 00021 333 91219 555 11014 22015=
0128997779999992022011621004+39300-075367FM-13+000399999V0200301N005719999999N999999999-00031+99999101861ADDMD1610431+9999OD159900621999SA1+0221REMSYN080SJSN4 46/// /0311 11003 40186 56043 92100 222// 00022 333 91212 555 11010 22011=
0128997779999992022011622004+39300-075367FM-13+000399999V0200301N007719999999N999999999-00111+99999101651ADDMD1810421+9999OD159900931999SA1+0221REMSYN080SJSN4 46/// /0315 11011 40165 58042 92200 222// 00022 333 91218 555 11014 22015=
0128997779999992022011623004+39300-075367FM-13+000399999V0200501N009819999999N999999999+00011+99999101411ADDMD1810471+9999OD159901131999SA1+0211REMSYN080SJSN4 46/// /0519 10001 40141 58047 92300 222// 00021 333 91222 555 11018 22019=
0128997779999992022011700004+39300-075367FM-13+000399999V0200601N011319999999N999999999+00181+99999101081ADDMD1810781+9999OD159901391999SA1+0211REMSYN080SJSN4 46/// /0622 10018 40108 58078 90000 222// 00021 333 91227 555 11021 22023=
0128997779999992022011701004+39300-075367FM-13+000399999V0200601N010319999999N999999999+00301+99999100781ADDMD1810871+9999OD159901241999SA1+0221REMSYN080SJSN4 46/// /0620 10030 40078 58087 90100 222// 00022 333 91224 555 11020 22021=
0128997779999992022011702004+39300-075367FM-13+000399999V0200701N009819999999N999999999+00571+99999100351ADDMD1811061+9999OD159901241999SA1+0221REMSYN080SJSN4 46/// /0719 10057 40035 58106 90200 222// 00022 333 91224 555 11018 22020=
0128997779999992022011703004+39300-075367FM-13+000399999V0200801N010319999999N999999999+00761+99999099981ADDMD1811101+9999OD159901181999SA1+0221REMSYN080SJSN4 46/// /0820 10076 49998 58110 90300 222// 00022 333 91223 555 11019 22021=
0128997779999992022011704004+39300-075367FM-13+000399999V0200801N009819999999N999999999+00781+99999099611ADDMD1611171+9999OD159901181999SA1+0231REMSYN080SJSN4 46/// /0819 10078 49961 56117 90400 222// 00023 333 91223 555 11018 22019=
0128997779999992022011705004+39300-075367FM-13+000399999V0200801N012419999999N999999999+00841+99999099131ADDMD1811221+9999OD159901541999SA1+0241REMSYN080SJSN4 46/// /0824 10084 49913 58122 90500 222// 00024 333 91230 555 11023 22025=
0128997779999992022011706004+39300-075367FM-13+000399999V0201001N009819999999N999999999+00701+99999098971ADDMD1611011+9999OD159901131999SA1+0251REMSYN080SJSN4 46/// /1019 10070 49897 56101 90600 222// 00025 333 91222 555 11018 22019=
0128997779999992022011707004+39300-075367FM-13+000399999V0201201N013419999999N999999999+00791+99999098831ADDMD1610781+9999OD159901601999SA1+0251REMSYN080SJSN4 46/// /1226 10079 49883 56078 90700 222// 00025 333 91231 555 11025 22027=
0128997779999992022011708004+39300-075367FM-13+000399999V0201901N011819999999N999999999+00581+99999098821ADDMD1610311+9999OD159901491999SA1+0251REMSYN080SJSN4 46/// /1923 10058 49882 56031 90800 222// 00025 333 91229 555 11022 22024=
0128997779999992022011709004+39300-075367FM-13+000399999V0201701N009819999999N999999999+00461+99999098721ADDMD1610251+9999OD159901081999SA1+0251REMSYN080SJSN4 46/// /1719 10046 49872 56025 90900 222// 00025 333 91221 555 11018 22020=
0128997779999992022011710004+39300-075367FM-13+000399999V0202001N008819999999N999999999+00411+99999098712ADDMD1710121+9999OD159901031999SA1+0241REMSYN080SJSN4 46/// /2017 10041 49871 57012 91000 222// 00024 333 91220 555 11016 22017=
0128997779999992022011711004+39300-075367FM-13+000399999V0202001N009819999999N999999999+00311+99999098732ADDMD1610091+9999OD159901181999SA1+0201REMSYN080SJSN4 46/// /2019 10031 49873 56009 91100 222// 00020 333 91223 555 11018 22020=
0128997779999992022011712004+39300-075367FM-13+000399999V0202001N011819999999N999999999+00281+99999098732ADDMD1410001+9999OD159901341999SA1+0211REMSYN080SJSN4 46/// /2023 10028 49873 54000 91200 222// 00021 333 91226 555 11022 22024=
0128997779999992022011713004+39300-075367FM-13+000399999V0202101N011819999999N999999999+00181+99999098821ADDMD1310111+9999OD159901441999SA1+0221REMSYN080SJSN4 46/// /2123 10018 49882 53011 91300 222// 00022 333 91228 555 11022 22024=
0128997779999992022011714004+39300-075367FM-13+000399999V0202201N011319999999N999999999+00221+99999098861ADDMD1310131+9999OD159901341999SA1+0221REMSYN080SJSN4 46/// /2222 10022 49886 53013 91400 222// 00022 333 91226 555 11021 22023=
0128997779999992022011715004+39300-075367FM-13+000399999V0202401N012919999999N999999999+00301+99999098901ADDMD1110171+9999OD159901601999SA1+0221REMSYN080SJSN4 46/// /2425 10030 49890 51017 91500 222// 00022 333 91231 555 11024 22026=
0128997779999992022011716004+39300-075367FM-13+000399999V0202401N013919999999N999999999+00331+99999098991ADDMD1310171+9999OD159901651999SA1+0221REMSYN080SJSN4 46/// /2427 10033 49899 53017 91600 222// 00022 333 91232 555 11026 22028=
0128997779999992022011717004+39300-075367FM-13+000399999V0202501N011319999999N999999999+00381+99999098961ADDMD1990101+9999OD159901491999SA1+0231REMSYN080SJSN4 46/// /2522 10038 49896 50010 91700 222// 00023 333 91229 555 11021 22023=
0128997779999992022011718004+39300-075367FM-13+000399999V0202501N014919999999N999999999+00341+99999099001ADDMD1110101+9999OD159901801999SA1+0231REMSYN080SJSN4 46/// /2529 10034 49900 51010 91800 222// 00023 333 91235 555 11027 22030=
0128997779999992022011719004+39300-075367FM-13+000399999V0202501N014919999999N999999999+00351+99999099081ADDMD1310091+9999OD159901901999SA1+0231REMSYN080SJSN4 46/// /2529 10035 49908 53009 91900 222// 00023 333 91237 555 11028 22030=
0128997779999992022011720004+39300-075367FM-13+000399999V0202501N014919999999N999999999+00291+99999099201ADDMD1310241+9999OD159901901999SA1+0231REMSYN080SJSN4 46/// /2529 10029 49920 53024 92000 222// 00023 333 91237 555 11028 22030=
0128997779999992022011721004+39300-075367FM-13+000399999V0202601N016519999999N999999999+00171+99999099331ADDMD1310331+9999OD159902161999SA1+0231REMSYN080SJSN4 46/// /2632 10017 49933 53033 92100 222// 00023 333 91242 555 11031 22034=
0128997779999992022011722004+39300-075367FM-13+000399999V0202601N014419999999N999999999+00191+99999099461ADDMD1310381+9999OD159901651999SA1+0231REMSYN080SJSN4 46/// /2628 10019 49946 53038 92200 222// 00023 333 91232 555 11027 22029=
0128997779999992022011723004+39300-075367FM-13+000399999V0202701N011819999999N999999999+00181+99999099631ADDMD1310431+9999OD159901441999SA1+0231REMSYN080SJSN4 46/// /2723 10018 49963 53043 92300 222// 00023 333 91228 555 11022 22024=
0128997779999992022011800004+39300-075367FM-13+000399999V0202701N010819999999N999999999+00131+99999099781ADDMD1310451+9999OD159901341999SA1+0231REMSYN080SJSN4 46/// /2721 10013 49978 53045 90000 222// 00023 333 91226 555 11020 22022=
0128997779999992022011801004+39300-075367FM-13+000399999V0202701N009819999999N999999999+00101+99999099891ADDMD1110431+9999OD159901181999SA1+0231REMSYN080SJSN4 46/// /2719 10010 49989 51043 90100 222// 00023 333 91223 555 11019 22020=
0128997779999992022011802004+39300-075367FM-13+000399999V0202701N009319999999N999999999+00131+99999100011ADDMD1110381+9999OD159901181999SA1+0221REMSYN080SJSN4 46/// /2718 10013 40001 51038 90200 222// 00022 333 91223 555 11017 22019=
0128997779999992022011803004+39300-075367FM-13+000399999V0202701N011819999999N999999999+00151+99999100101ADDMD1110321+9999OD159901391999SA1+0221REMSYN080SJSN4 46/// /2723 10015 40010 51032 90300 222// 00022 333 91227 555 11022 22024=
0128997779999992022011804004+39300-075367FM-13+000399999V0202701N011819999999N999999999+00141+99999100231ADDMD1310341+9999OD159901391999SA1+0221REMSYN080SJSN4 46/// /2723 10014 40023 53034 90400 222// 00022 333 91227 555 11022 22024=
0128997779999992022011805004+39300-075367FM-13+000399999V0202701N009819999999N999999999+00101+99999100371ADDMD1310361+9999OD159901181999SA1+0221REMSYN080SJSN4 46/// /2719 10010 40037 53036 90500 222// 00022 333 91223 555 11018 22020=
0128997779999992022011806004+39300-075367FM-13+000399999V0202801N009819999999N999999999+00111+99999100471ADDMD1110371+9999OD159901241999SA1+0211REMSYN080SJSN4 46/// /2819 10011 40047 51037 90600 222// 00021 333 91224 555 11018 22019=
0128997779999992022011807004+39300-075367FM-13+000399999V0202701N008819999999N999999999+00121+99999100621ADDMD1310391+9999OD159900981999SA1+0221REMSYN080SJSN4 46/// /2717 10012 40062 53039 90700 222// 00022 333 91219 555 11016 22017=
0128997779999992022011808004+39300-075367FM-13+000399999V0202801N009819999999N999999999+00161+99999100731ADDMD1310361+9999OD159901131999SA1+0221REMSYN080SJSN4 46/// /2819 10016 40073 53036 90800 222// 00022 333 91222 555 11018 22019=
0128997779999992022011809004+39300-075367FM-13+000399999V0202901N011819999999N999999999+00171+99999100821ADDMD1110351+9999OD159901291999SA1+0221REMSYN080SJSN4 46/// /2923 10017 40082 51035 90900 222// 00022 333 91225 555 11022 22024=
0128997779999992022011810004+39300-075367FM-13+000399999V0202901N012419999999N999999999+00191+99999100961ADDMD1310341+9999OD159901491999SA1+0221REMSYN080SJSN4 46/// /2924 10019 40096 53034 91000 222// 00022 333 91229 555 11023 22025=
0128997779999992022011811004+39300-075367FM-13+000399999V0202801N009819999999N999999999+00161+99999101131ADDMD1310401+9999OD159901181999SA1+0231REMSYN080SJSN4 46/// /2819 10016 40113 53040 91100 222// 00023 333 91223 555 11019 22020=
0128997779999992022011812004+39300-075367FM-13+000399999V0202601N006719999999N999999999+00071+99999101281ADDMD1310461+9999OD159900771999SA1+0231REMSYN080SJSN4 46/// /2613 10007 40128 53046 91200 222// 00023 333 91215 555 11012 22013=
0128997779999992022011813004+39300-075367FM-13+000399999V0202601N006719999999N999999999+00091+99999101391ADDMD1110431+9999OD159900771999SA1+0231REMSYN080SJSN4 46/// /2613 10009 40139 51043 91300 222// 00023 333 91215 555 11012 22014=
0128997779999992022011814004+39300-075367FM-13+000399999V0202601N006719999999N999999999+00161+99999101501ADDMD1110371+9999OD159900981999SA1+0211REMSYN080SJSN4 46/// /2613 10016 40150 51037 91400 222// 00021 333 91219 555 11012 22014=
0128997779999992022011815004+39300-075367FM-13+000399999V0202601N008819999999N999999999+00221+99999101611ADDMD1210331+9999OD159901081999SA1+0221REMSYN080SJSN4 46/// /2617 10022 40161 52033 91500 222// 00022 333 91221 555 11017 22018=
0128997779999992022011816004+39300-075367FM-13+000399999V0202701N010819999999N999999999+00241+99999101691ADDMD1110301+9999OD159901241999SA1+0221REMSYN080SJSN4 46/// /2721 10024 40169 51030 91600 222// 00022 333 91224 555 11020 22021=
0128997779999992022011817004+39300-075367FM-13+000399999V0202801N007719999999N999999999+00261+99999101691ADDMD1110191+9999OD159901081999SA1+0211REMSYN080SJSN4 46/// /2815 10026 40169 51019 91700 222// 00021 333 91221 555 11014 22015=
0128997779999992022011818004+39300-075367FM-13+000399999V0202701N008219999999N999999999+00271+99999101701ADDMD1110091+9999OD159901131999SA1+0211REMSYN080SJSN4 46/// /2716 10027 40170 51009 91800 222// 00021 333 91222 555 11015 22016=
