0108997743999992021010100004+40650-074067FM-13+007299999V0203301N004619999999N999999999+00451+99999102621ADDMD1310281+9999OD159900881999REMSYN068ROBN4 46/// /3309 10045 40262 53028 90000 333 91217 555 11008 22009=
0108997743999992021010101004+40650-074067FM-13+007299999V0203401N005719999999N999999999+00411+99999102721ADDMD1310301+9999OD159900721999REMSYN068ROBN4 46/// /3411 10041 40272 53030 90100 333 91214 555 11010 22010=
0108997743999992021010102004+40650-074067FM-13+007299999V0203401N005719999999N999999999+00361+99999102801ADDMD1110311+9999OD159900671999REMSYN068ROBN4 46/// /3411 10036 40280 51031 90200 333 91213 555 11010 22010=
0108997743999992021010103004+40650-074067FM-13+007299999V0203401N004119999999N999999999+00311+99999102901ADDMD1210281+9999OD159900571999REMSYN068ROBN4 46/// /3408 10031 40290 52028 90300 333 91211 555 11008 22008=
0108997743999992021010104004+40650-074067FM-13+007299999V0203401N003619999999N999999999+00261+99999102951ADDMD1110231+9999OD159900511999REMSYN068ROBN4 46/// /3407 10026 40295 51023 90400 333 91210 555 11007 22007=
0108997743999992021010105004+40650-074067FM-13+007299999V0203601N002619999999N999999999+00241+99999102971ADDMD1110171+9999OD159900361999REMSYN068ROBN4 46/// /3605 10024 40297 51017 90500 333 91207 555 11005 22005=
0088997743999992021010106004+40650-074067FM-13+007299999V0203601N003119999999N999999999+00221+99999103021ADDOD159900411999REMSYN062ROBN4 46/// /3606 10022 40302 90536 333 91208 555 11006 22006=
0108997743999992021010107004+40650-074067FM-13+007299999V0203601N003619999999N999999999+00211+99999103111ADDMD1310161+9999OD159900361999REMSYN068ROBN4 46/// /3607 10021 40311 53016 90700 333 91207 555 11006 22007=
0108997743999992021010108004+40650-074067FM-13+007299999V0203501N004119999999N999999999+00201+99999103171ADDMD1310201+9999OD159900511999REMSYN068ROBN4 46/// /3508 10020 40317 53020 90800 333 91210 555 11008 22008=
0108997743999992021010109004+40650-074067FM-13+007299999V0203401N003119999999N999999999+00161+99999103191ADDMD1110171+9999OD159900411999REMSYN068ROBN4 46/// /3406 10016 40319 51017 90900 333 91208 555 11005 22006=
0108997743999992021010110004+40650-074067FM-13+007299999V0200101N003119999999N999999999+00171+99999103181ADDMD1110071+9999OD159900361999REMSYN068ROBN4 46/// /0106 10017 40318 51007 91000 333 91207 555 11005 22006=
0108997743999992021010111004+40650-074067FM-13+007299999V0203501N002119999999N999999999+00121+99999103231ADDMD1310061+9999OD159900261999REMSYN068ROBN4 46/// /3504 10012 40323 53006 91100 333 91205 555 11003 22004=
0108997743999992021010112004+40650-074067FM-13+007299999V0203301N001519999999N999999999+99999+99999103321ADDMD1310131+9999OD159900211999REMSYN068ROBN4 46/// /3303 1//// 40332 53013 91200 333 91204 555 11003 22003=
0108997743999992021010113004+40650-074067FM-13+007299999V0200101N002619999999N999999999+00091+99999103351ADDMD1110171+9999OD159900311999REMSYN068ROBN4 46/// /0105 10009 40335 51017 91300 333 91206 555 11005 22005=
0108997743999992021010114004+40650-074067FM-13+007299999V0203501N002119999999N999999999+00141+99999103351ADDMD1110121+9999OD159900261999REMSYN068ROBN4 46/// /3504 10014 40335 51012 91400 333 91205 555 11004 22004=
0108997743999992021010115004+40650-074067FM-13+007299999V0200501N004619999999N999999999+00221+99999103361ADDMD1110041+9999OD159900571999REMSYN068ROBN4 46/// /0509 10022 40336 51004 91500 333 91211 555 11008 22009=
0108997743999992021010116004+40650-074067FM-13+007299999V0200801N002119999999N999999999+00301+99999103291ADDMD1810061+9999OD159900261999REMSYN068ROBN4 46/// /0804 10030 40329 58006 91600 333 91205 555 11004 22004=
0088997743999992021010117004+40650-074067FM-13+007299999V0201401N004619999999N999999999+00321+99999103161ADDOD159900511999REMSYN062ROBN4 46/// /1409 10032 40316 91642 333 91210 555 11008 22009=
0108997743999992021010118004+40650-074067FM-13+007299999V0200901N002119999999N999999999+00331+99999103041ADDMD1710321+9999OD159900361999REMSYN068ROBN4 46/// /0904 10033 40304 57032 91800 333 91207 555 11004 22004=
0108997743999992021010119004+40650-074067FM-13+007299999V0200901N002119999999N999999999+00351+99999102961ADDMD1710331+9999OD159900361999REMSYN068ROBN4 46/// /0904 10035 40296 57033 91900 333 91207 555 11003 22004=
0088997743999992021010120004+40650-074067FM-13+007299999V0201101N001519999999N999999999+00371+99999102971ADDOD159900211999REMSYN062ROBN4 46/// /1103 10037 40297 91936 333 91204 555 11003 22003=
0108997743999992021010121004+40650-074067FM-13+007299999V0201201N004119999999N999999999+00401+99999102801ADDMD1610241+9999OD159900461999REMSYN068ROBN4 46/// /1208 10040 40280 56024 92100 333 91209 555 11008 22008=
0088997743999992021010122004+40650-074067FM-13+007299999V0200901N003619999999N999999999+00391+99999102701ADDOD159900411999REMSYN062ROBN4 46/// /0907 10039 40270 92206 333 91208 555 11006 22007=
0108997743999992021010123004+40650-074067FM-13+007299999V0200801N004619999999N999999999+00371+99999102601ADDMD1710271+9999OD159900511999REMSYN068ROBN4 46/// /0809 10037 40260 57027 92300 333 91210 555 11009 22009=
0108997743999992021010200004+40650-074067FM-13+007299999V0200801N005719999999N999999999+00341+99999102451ADDMD1710351+9999OD159900621999REMSYN068ROBN4 46/// /0811 10034 40245 57035 90000 333 91212 555 11010 22011=
0088997743999992021010201004+40650-074067FM-13+007299999V0200901N008219999999N999999999+00351+99999102281ADDOD159900931999REMSYN062ROBN4 46/// /0916 10035 40228 90048 333 91218 555 11014 22016=
0088997743999992021010202004+40650-074067FM-13+007299999V0200801N006219999999N999999999+00391+99999102181ADDOD159900671999REMSYN062ROBN4 46/// /0812 10039 40218 90148 333 91213 555 11011 22012=
0108997743999992021010203004+40650-074067FM-13+007299999V0200601N003619999999N999999999+00431+99999102111ADDMD1510341+9999OD159900621999REMSYN068ROBN4 46/// /0607 10043 40211 55034 90300 333 91212 555 11007 22007=
0108997743999992021010204004+40650-074067FM-13+007299999V0200501N006719999999N999999999+00441+99999101791ADDMD1810531+9999OD159900881999REMSYN068ROBN4 46/// /0513 10044 40179 58053 90400 333 91217 555 11012 22013=
0108997743999992021010205004+40650-074067FM-13+007299999V0200501N006219999999N999999999+99999+99999101601ADDMD1810421+9999OD159900671999REMSYN068ROBN4 46/// /0512 1//// 40160 58042 90500 333 91213 555 11011 22011=
0108997743999992021010206004+40650-074067FM-13+007299999V0200501N008219999999N999999999+00431+99999101361ADDMD1610751+9999OD159900931999REMSYN068ROBN4 46/// /0516 10043 40136 56075 90600 333 91218 555 11015 22016=
0108997743999992021010207004+40650-074067FM-13+007299999V0200501N006219999999N999999999+00311+99999101161ADDMD1810631+9999OD159900721999REMSYN068ROBN4 46/// /0512 10031 40116 58063 90700 333 91214 555 11011 22012=
0108997743999992021010208004+40650-074067FM-13+007299999V0200201N005119999999N999999999+00291+99999101021ADDMD1610581+9999OD159900621999REMSYN068ROBN4 46/// /0210 10029 40102 56058 90800 333 91212 555 11009 22010=
0108997743999992021010209004+40650-074067FM-13+007299999V0203201N001019999999N999999999+00311+99999100871ADDMD1610491+9999OD159900151999REMSYN068ROBN4 46/// /3202 10031 40087 56049 90900 333 91203 555 11002 22002=
0108997743999992021010210004+40650-074067FM-13+007299999V0203301N002619999999N999999999+00251+99999100731ADDMD1710431+9999OD159900411999REMSYN068ROBN4 46/// /3305 10025 40073 57043 91000 333 91208 555 11005 22005=
0108997743999992021010211004+40650-074067FM-13+007299999V0203101N004619999999N999999999+00251+99999100751ADDMD1610271+9999OD159900511999REMSYN068ROBN4 46/// /3109 10025 40075 56027 91100 333 91210 555 11008 22009=
0108997743999992021010212004+40650-074067FM-13+007299999V0202801N002619999999N999999999+00311+99999100791ADDMD1510081+9999OD159900311999REMSYN068ROBN4 46/// /2805 10031 40079 55008 91200 333 91206 555 11005 22005=
0088997743999992021010213004+40650-074067FM-13+007299999V0202501N004619999999N999999999+00351+99999100801ADDOD159900511999REMSYN062ROBN4 46/// /2509 10035 40080 91236 333 91210 555 11008 22009=
0108997743999992021010214004+40650-074067FM-13+007299999V0202801N007719999999N999999999+00481+99999100881ADDMD1210131+9999OD159900931999REMSYN068ROBN4 46/// /2815 10048 40088 52013 91400 333 91218 555 11014 22015=
0108997743999992021010215004+40650-074067FM-13+007299999V0202801N010819999999N999999999+00811+99999100881ADDMD1210091+9999OD159901341999REMSYN068ROBN4 46/// /2821 10081 40088 52009 91500 333 91226 555 11019 22021=
0088997743999992021010216004+40650-074067FM-13+007299999V0202801N012419999999N999999999+00911+99999100901ADDOD159901541999REMSYN062ROBN4 46/// /2824 10091 40090 91554 333 91230 555 11022 22024=
0108997743999992021010217004+40650-074067FM-13+007299999V0203001N011819999999N999999999+00981+99999100881ADDMD1410001+9999OD159901391999REMSYN068ROBN4 46/// /3023 10098 40088 54000 91700 333 91227 555 11021 22023=
0108997743999992021010218004+40650-074067FM-13+007299999V0203001N013919999999N999999999+01001+99999100921ADDMD1310041+9999OD159901701999REMSYN068ROBN4 46/// /3027 10100 40092 53004 91800 333 91233 555 11024 22027=
0108997743999992021010219004+40650-074067FM-13+007299999V0203101N011819999999N999999999+00981+99999101051ADDMD1310181+9999OD159901391999REMSYN068ROBN4 46/// /3123 10098 40105 53018 91900 333 91227 555 11021 22023=
0108997743999992021010220004+40650-074067FM-13+007299999V0203201N009819999999N999999999+00971+99999101231ADDMD1310351+9999OD159901291999REMSYN068ROBN4 46/// /3219 10097 40123 53035 92000 333 91225 555 11018 22019=
0108997743999992021010221004+40650-074067FM-13+007299999V0203201N010319999999N999999999+00831+99999101401ADDMD1310481+9999OD159901291999REMSYN068ROBN4 46/// /3220 10083 40140 53048 92100 333 91225 555 11019 22020=
0108997743999992021010222004+40650-074067FM-13+007299999V0203301N005719999999N999999999+00741+99999101521ADDMD1110471+9999OD159900771999REMSYN068ROBN4 46/// /3311 10074 40152 51047 92200 333 91215 555 11010 22011=
0108997743999992021010223004+40650-074067FM-13+007299999V0203201N004619999999N999999999+00631+99999101681ADDMD1110451+9999OD159900821999REMSYN068ROBN4 46/// /3209 10063 40168 51045 92300 333 91216 555 11008 22009=
0108997743999992021010300004+40650-074067FM-13+007299999V0203101N005719999999N999999999+00561+99999101791ADDMD1110391+9999OD159900671999REMSYN068ROBN4 46/// /3111 10056 40179 51039 90000 333 91213 555 11010 22011=
0108997743999992021010301004+40650-074067FM-13+007299999V0203301N004619999999N999999999+00501+99999101841ADDMD1110321+9999OD159900671999REMSYN068ROBN4 46/// /3309 10050 40184 51032 90100 333 91213 555 11008 22009=
0108997743999992021010302004+40650-074067FM-13+007299999V0203101N005719999999N999999999+00461+99999101891ADDMD1110211+9999OD159900771999REMSYN068ROBN4 46/// /3111 10046 40189 51021 90200 333 91215 555 11010 22011=
0108997743999992021010303004+40650-074067FM-13+007299999V0203201N002619999999N999999999+00421+99999101951ADDMD1310161+9999OD159900411999REMSYN068ROBN4 46/// /3205 10042 40195 53016 90300 333 91208 555 11004 22004=
0108997743999992021010304004+40650-074067FM-13+007299999V0203401N003119999999N999999999+00371+99999101971ADDMD1110131+9999OD159900511999REMSYN068ROBN4 46/// /3406 10037 40197 51013 90400 333 91210 555 11006 22006=
0108997743999992021010305004+40650-074067FM-13+007299999V0203501N004119999999N999999999+00331+99999101971ADDMD1110081+9999OD159900511999REMSYN068ROBN4 46/// /3508 10033 40197 51008 90500 333 91210 555 11007 22008=
0108997743999992021010306004+40650-074067FM-13+007299999V0203601N004619999999N999999999+00301+99999101981ADDMD1210031+9999OD159900571999REMSYN068ROBN4 46/// /3609 10030 40198 52003 90600 333 91211 555 11009 22009=
0108997743999992021010307004+40650-074067FM-13+007299999V0200101N006219999999N999999999+00281+99999101971ADDMD1410001+9999OD159900771999REMSYN068ROBN4 46/// /0112 10028 40197 54000 90700 333 91215 555 11011 22012=
0088997743999992021010308004+40650-074067FM-13+007299999V0200201N008819999999N999999999+00281+99999101941ADDOD159900931999REMSYN062ROBN4 46/// /0217 10028 40194 90736 333 91218 555 11015 22017=
0108997743999992021010309004+40650-074067FM-13+007299999V0200101N003119999999N999999999+00231+99999101991ADDMD1410001+9999OD159900571999REMSYN068ROBN4 46/// /0106 10023 40199 54000 90900 333 91211 555 11005 22006=
0108997743999992021010310004+40650-074067FM-13+007299999V0200601N008219999999N999999999+00251+99999101761ADDMD1710211+9999OD159901031999REMSYN068ROBN4 46/// /0616 10025 40176 57021 91000 333 91220 555 11015 22016=
0088997743999992021010311004+40650-074067FM-13+007299999V0200501N007719999999N999999999+00221+99999101811ADDOD159901031999REMSYN062ROBN4 46/// /0515 10022 40181 91036 333 91220 555 11014 22015=
0108997743999992021010312004+40650-074067FM-13+007299999V0200801N004619999999N999999999+00241+99999102101ADDMD1310111+9999OD159900621999REMSYN068ROBN4 46/// /0809 10024 40210 53011 91200 333 91212 555 11008 22009=
0108997743999992021010313004+40650-074067FM-13+007299999V0200601N006219999999N999999999+00271+99999102051ADDMD1990291+9999OD159900721999REMSYN068ROBN4 46/// /0612 10027 40205 50029 91300 333 91214 555 11011 22011=
0108997743999992021010314004+40650-074067FM-13+007299999V0200601N006219999999N999999999+00301+99999102021ADDMD1990041+9999OD159900771999REMSYN068ROBN4 46/// /0612 10030 40202 50004 91400 333 91215 555 11011 22012=
0108997743999992021010315004+40650-074067FM-13+007299999V0200601N007219999999N999999999+00261+99999101961ADDMD1810141+9999OD159900881999REMSYN068ROBN4 46/// /0614 10026 40196 58014 91500 333 91217 555 11013 22014=
0108997743999992021010316004+40650-074067FM-13+007299999V0200401N006719999999N999999999+99999+99999101761ADDMD1810291+9999OD159900821999REMSYN068ROBN4 46/// /0413 1//// 40176 58029 91600 333 91216 555 11012 22013=
0108997743999992021010317004+40650-074067FM-13+007299999V0200501N008219999999N999999999+00261+99999101551ADDMD1810471+9999OD159900981999REMSYN068ROBN4 46/// /0516 10026 40155 58047 91700 333 91219 555 11014 22016=
0108997743999992021010318004+40650-074067FM-13+007299999V0200401N007719999999N999999999+00301+99999101441ADDMD1610521+9999OD159900931999REMSYN068ROBN4 46/// /0415 10030 40144 56052 91800 333 91218 555 11014 22015=
0108997743999992021010319004+40650-074067FM-13+007299999V0200301N006719999999N999999999+00371+99999101441ADDMD1610321+9999OD159900771999REMSYN068ROBN4 46/// /0313 10037 40144 56032 91900 333 91215 555 11012 22013=
0108997743999992021010320004+40650-074067FM-13+007299999V0200501N009819999999N999999999+00311+99999101371ADDMD1610181+9999OD159901081999REMSYN068ROBN4 46/// /0519 10031 40137 56018 92000 333 91221 555 11017 22018=
0108997743999992021010321004+40650-074067FM-13+007299999V0200401N007219999999N999999999+00311+99999101381ADDMD1710061+9999OD159900981999REMSYN068ROBN4 46/// /0414 10031 40138 57006 92100 333 91219 555 11013 22014=
0108997743999992021010322004+40650-074067FM-13+007299999V0200501N009319999999N999999999+00301+99999101341ADDMD1610101+9999OD159901131999REMSYN068ROBN4 46/// /0518 10030 40134 56010 92200 333 91222 555 11017 22018=
0108997743999992021010323004+40650-074067FM-13+007299999V0200501N009819999999N999999999+00301+99999101341ADDMD1710031+9999OD159901081999REMSYN068ROBN4 46/// /0519 10030 40134 57003 92300 333 91221 555 11017 22018=
0108997743999992021010400004+40650-074067FM-13+007299999V0200401N008819999999N999999999+00341+99999101421ADDMD1310041+9999OD159900981999REMSYN068ROBN4 46/// /0417 10034 40142 53004 90000 333 91219 555 11015 22017=
0108997743999992021010401004+40650-074067FM-13+007299999V0200401N007219999999N999999999+00321+99999101401ADDMD1210061+9999OD159900981999REMSYN068ROBN4 46/// /0414 10032 40140 52006 90100 333 91219 555 11013 22014=
0108997743999992021010402004+40650-074067FM-13+007299999V0200501N008819999999N999999999+00301+99999101361ADDMD1990001+9999OD159901131999REMSYN068ROBN4 46/// /0517 10030 40136 50000 90200 333 91222 555 11015 22016=
0108997743999992021010403004+40650-074067FM-13+007299999V0200501N007219999999N999999999+00311+99999101371ADDMD1710051+9999OD159901031999REMSYN068ROBN4 46/// /0514 10031 40137 57005 90300 333 91220 555 11013 22014=
0108997743999992021010404004+40650-074067FM-13+007299999V0200501N007219999999N999999999+00301+99999101361ADDMD1610041+9999OD159901031999REMSYN068ROBN4 46/// /0514 10030 40136 56004 90400 333 91220 555 11013 22014=
0108997743999992021010405004+40650-074067FM-13+007299999V0200501N008219999999N999999999+00311+99999101341ADDMD1410001+9999OD159900981999REMSYN068ROBN4 46/// /0516 10031 40134 54000 90500 333 91219 555 11015 22016=
0108997743999992021010406004+40650-074067FM-13+007299999V0203601N004119999999N999999999+00251+99999101361ADDMD1410001+9999OD159900671999REMSYN068ROBN4 46/// /3608 10025 40136 54000 90600 333 91213 555 11007 22008=
0108997743999992021010407004+40650-074067FM-13+007299999V0203501N004619999999N999999999+00171+99999101421ADDMD1310061+9999OD159900571999REMSYN068ROBN4 46/// /3509 10017 40142 53006 90700 333 91211 555 11008 22009=
0108997743999992021010408004+40650-074067FM-13+007299999V0203601N005719999999N999999999+00151+99999101411ADDMD1210071+9999OD159900621999REMSYN068ROBN4 46/// /3611 10015 40141 52007 90800 333 91212 555 11010 22011=
0108997743999992021010409004+40650-074067FM-13+007299999V0203601N005719999999N999999999+00181+99999101391ADDMD1110031+9999OD159900771999REMSYN068ROBN4 46/// /3611 10018 40139 51003 90900 333 91215 555 11010 22011=
0108997743999992021010410004+40650-074067FM-13+007299999V0203601N006719999999N999999999+00201+99999101421ADDMD1510001+9999OD159900771999REMSYN068ROBN4 46/// /3613 10020 40142 55000 91000 333 91215 555 11012 22013=
0108997743999992021010411004+40650-074067FM-13+007299999V0203601N005119999999N999999999+00201+99999101491ADDMD1310081+9999OD159900621999REMSYN068ROBN4 46/// /3610 10020 40149 53008 91100 333 91212 555 11009 22010=
0108997743999992021010412004+40650-074067FM-13+007299999V0203401N004119999999N999999999+00221+99999101561ADDMD1310171+9999OD159900571999REMSYN068ROBN4 46/// /3408 10022 40156 53017 91200 333 91211 555 11007 22008=
0108997743999992021010413004+40650-074067FM-13+007299999V0200101N006719999999N999999999+00221+99999101591ADDMD1110171+9999OD159900721999REMSYN068ROBN4 46/// /0113 10022 40159 51017 91300 333 91214 555 11012 22013=
0108997743999992021010414004+40650-074067FM-13+007299999V0200101N007219999999N999999999+00241+99999101631ADDMD1110141+9999OD159900821999REMSYN068ROBN4 46/// /0114 10024 40163 51014 91400 333 91216 555 11013 22014=
0108997743999992021010415004+40650-074067FM-13+007299999V0200101N003619999999N999999999+00311+99999101601ADDMD1990041+9999OD159900511999REMSYN068ROBN4 46/// /0107 10031 40160 50004 91500 333 91210 555 11006 22007=
0108997743999992021010416004+40650-074067FM-13+007299999V0200101N006219999999N999999999+00381+99999101551ADDMD1810041+9999OD159900671999REMSYN068ROBN4 46/// /0112 10038 40155 58004 91600 333 91213 555 11011 22012=
0088997743999992021010417004+40650-074067FM-13+007299999V0203501N002119999999N999999999+00451+99999101471ADDOD159900571999REMSYN062ROBN4 46/// /3504 10045 40147 91642 333 91211 555 11004 22004=
0108997743999992021010418004+40650-074067FM-13+007299999V0200301N003119999999N999999999+00521+99999101401ADDMD1610201+9999OD159900411999REMSYN068ROBN4 46/// /0306 10052 40140 56020 91800 333 91208 555 11006 22006=
0108997743999992021010419004+40650-074067FM-13+007299999V0200401N004119999999N999999999+00501+99999101381ADDMD1610171+9999OD159900411999REMSYN068ROBN4 46/// /0408 10050 40138 56017 91900 333 91208 555 11007 22008=
0108997743999992021010420004+40650-074067FM-13+007299999V0200101N006719999999N999999999+00481+99999101421ADDMD1510001+9999OD159900821999REMSYN068ROBN4 46/// /0113 10048 40142 55000 92000 333 91216 555 11012 22013=
0108997743999992021010421004+40650-074067FM-13+007299999V0203501N005119999999N999999999+00491+99999101431ADDMD1210031+9999OD159900571999REMSYN068ROBN4 46/// /3510 10049 40143 52003 92100 333 91211 555 11009 22010=
0108997743999992021010422004+40650-074067FM-13+007299999V0203501N003619999999N999999999+00471+99999101451ADDMD1110071+9999OD159900511999REMSYN068ROBN4 46/// /3507 10047 40145 51007 92200 333 91210 555 11006 22007=
0108997743999992021010423004+40650-074067FM-13+007299999V0203501N003119999999N999999999+00451+99999101451ADDMD1210031+9999OD159900361999REMSYN068ROBN4 46/// /3506 10045 40145 52003 92300 333 91207 555 11006 22006=
0108997743999992021010500004+40650-074067FM-13+007299999V0203601N003119999999N999999999+00441+99999101461ADDMD1210031+9999OD159900361999REMSYN068ROBN4 46/// /3606 10044 40146 52003 90000 333 91207 555 11006 22006=
0088997743999992021010501004+40650-074067FM-13+007299999V0203601N004119999999N999999999+00431+99999101451ADDOD159900461999REMSYN062ROBN4 46/// /3608 10043 40145 90048 333 91209 555 11007 22008=
0108997743999992021010502004+40650-074067FM-13+007299999V0200201N004119999999N999999999+00401+99999101431ADDMD1410001+9999OD159900461999REMSYN068ROBN4 46/// /0208 10040 40143 54000 90200 333 91209 555 11007 22008=
0108997743999992021010503004+40650-074067FM-13+007299999V0200301N004619999999N999999999+00361+99999101411ADDMD1710051+9999OD159900571999REMSYN068ROBN4 46/// /0309 10036 40141 57005 90300 333 91211 555 11009 22009=
0108997743999992021010504004+40650-074067FM-13+007299999V0200201N004119999999N999999999+00341+99999101371ADDMD1810071+9999OD159900461999REMSYN068ROBN4 46/// /0208 10034 40137 58007 90400 333 91209 555 11008 22008=
0108997743999992021010505004+40650-074067FM-13+007299999V0203601N003619999999N999999999+00311+99999101341ADDMD1810091+9999OD159900511999REMSYN068ROBN4 46/// /3607 10031 40134 58009 90500 333 91210 555 11006 22007=
0108997743999992021010506004+40650-074067FM-13+007299999V0203501N004119999999N999999999+00301+99999101321ADDMD1610091+9999OD159900621999REMSYN068ROBN4 46/// /3508 10030 40132 56009 90600 333 91212 555 11008 22008=
0108997743999992021010507004+40650-074067FM-13+007299999V0203601N004119999999N999999999+00311+99999101321ADDMD1610051+9999OD159900511999REMSYN068ROBN4 46/// /3608 10031 40132 56005 90700 333 91210 555 11007 22008=
0108997743999992021010508004+40650-074067FM-13+007299999V0203501N004119999999N999999999+00291+99999101341ADDMD1410001+9999OD159900511999REMSYN068ROBN4 46/// /3508 10029 40134 54000 90800 333 91210 555 11008 22008=
0108997743999992021010509004+40650-074067FM-13+007299999V0200101N004619999999N999999999+00271+99999101321ADDMD1410001+9999OD159900511999REMSYN068ROBN4 46/// /0109 10027 40132 54000 90900 333 91210 555 11008 22009=
0108997743999992021010510004+40650-074067FM-13+007299999V0203601N003119999999N999999999+00271+99999101331ADDMD1410001+9999OD159900361999REMSYN068ROBN4 46/// /3606 10027 40133 54000 91000 333 91207 555 11005 22006=
0088997743999992021010511004+40650-074067FM-13+007299999V0203501N002619999999N999999999+00291+99999101331ADDOD159900311999REMSYN062ROBN4 46/// /3505 10029 40133 91042 333 91206 555 11005 22005=
0108997743999992021010512004+40650-074067FM-13+007299999V0203601N003619999999N999999999+00281+99999101341ADDMD1410001+9999OD159900461999REMSYN068ROBN4 46/// /3607 10028 40134 54000 91200 333 91209 555 11007 22007=
0088997743999992021010513004+40650-074067FM-13+007299999V0203501N002619999999N999999999+00271+99999101391ADDOD159900311999REMSYN062ROBN4 46/// /3505 10027 40139 91312 333 91206 555 11005 22005=
0088997743999992021010514004+40650-074067FM-13+007299999V0203401N002619999999N999999999+00271+99999101401ADDOD159900311999REMSYN062ROBN4 46/// /3405 10027 40140 91336 333 91206 555 11004 22005=
0108997743999992021010515004+40650-074067FM-13+007299999V0203501N002619999999N999999999+00311+99999101371ADDMD1990031+9999OD159900311999REMSYN068ROBN4 46/// /3505 10031 40137 50003 91500 333 91206 555 11005 22005=
0108997743999992021010516004+40650-074067FM-13+007299999V0203501N003119999999N999999999+00361+99999101301ADDMD1810081+9999OD159900311999REMSYN068ROBN4 46/// /3506 10036 40130 58008 91600 333 91206 555 11005 22006=
0108997743999992021010517004+40650-074067FM-13+007299999V0203501N003119999999N999999999+99999+99999101211ADDMD1810191+9999OD159900461999REMSYN068ROBN4 46/// /3506 1//// 40121 58019 91700 333 91209 555 11005 22006=
0108997743999992021010518004+40650-074067FM-13+007299999V0203401N003619999999N999999999+00451+99999101141ADDMD1710231+9999OD159900461999REMSYN068ROBN4 46/// /3407 10045 40114 57023 91800 333 91209 555 11006 22007=
0108997743999992021010519004+40650-074067FM-13+007299999V0200301N003619999999N999999999+00431+99999101161ADDMD1610141+9999OD159900411999REMSYN068ROBN4 46/// /0307 10043 40116 56014 91900 333 91208 555 11006 22007=
0108997743999992021010520004+40650-074067FM-13+007299999V0203501N003119999999N999999999+00451+99999101201ADDMD1510001+9999OD159900411999REMSYN068ROBN4 46/// /3506 10045 40120 55000 92000 333 91208 555 11005 22006=
0108997743999992021010521004+40650-074067FM-13+007299999V0203501N004619999999N999999999+00461+99999101221ADDMD1210081+9999OD159900621999REMSYN068ROBN4 46/// /3509 10046 40122 52008 92100 333 91212 555 11009 22009=
0108997743999992021010522004+40650-074067FM-13+007299999V0203501N004119999999N999999999+00451+99999101271ADDMD1310111+9999OD159900511999REMSYN068ROBN4 46/// /3508 10045 40127 53011 92200 333 91210 555 11008 22008=
0108997743999992021010523004+40650-074067FM-13+007299999V0203301N004119999999N999999999+00431+99999101341ADDMD1310141+9999OD159900511999REMSYN068ROBN4 46/// /3308 10043 40134 53014 92300 333 91210 555 11007 22008=
0108997743999992021010600004+40650-074067FM-13+007299999V0203301N003619999999N999999999+00421+99999101371ADDMD1110151+9999OD159900461999REMSYN068ROBN4 46/// /3307 10042 40137 51015 90000 333 91209 555 11007 22007=
0088997743999992021010601004+40650-074067FM-13+007299999V0203401N003619999999N999999999+00411+99999101381ADDOD159900571999REMSYN062ROBN4 46/// /3407 10041 40138 90036 333 91211 555 11007 22007=
0088997743999992021010602004+40650-074067FM-13+007299999V0203501N005719999999N999999999+00361+99999101361ADDOD159900671999REMSYN062ROBN4 46/// /3511 10036 40136 90230 333 91213 555 11010 22011=
0108997743999992021010603004+40650-074067FM-13+007299999V0203501N005119999999N999999999+00341+99999101341ADDMD1710031+9999OD159900671999REMSYN068ROBN4 46/// /3510 10034 40134 57003 90300 333 91213 555 11009 22010=
0108997743999992021010604004+40650-074067FM-13+007299999V0203501N005119999999N999999999+00311+99999101351ADDMD1710031+9999OD159900621999REMSYN068ROBN4 46/// /3510 10031 40135 57003 90400 333 91212 555 11009 22010=
0088997743999992021010605004+40650-074067FM-13+007299999V0203501N004119999999N999999999+00291+99999101341ADDOD159900571999REMSYN062ROBN4 46/// /3508 10029 40134 90436 333 91211 555 11007 22008=
0108997743999992021010606004+40650-074067FM-13+007299999V0203401N003619999999N999999999+00271+99999101371ADDMD1210031+9999OD159900511999REMSYN068ROBN4 46/// /3407 10027 40137 52003 90600 333 91210 555 11007 22007=
0108997743999992021010607004+40650-074067FM-13+007299999V0203401N003119999999N999999999+00271+99999101391ADDMD1210041+9999OD159900361999REMSYN068ROBN4 46/// /3406 10027 40139 52004 90700 333 91207 555 11005 22006=
0088997743999992021010608004+40650-074067FM-13+007299999V0203601N003119999999N999999999+00251+99999101411ADDOD159900361999REMSYN062ROBN4 46/// /3606 10025 40141 90736 333 91207 555 11006 22006=
0108997743999992021010609004+40650-074067FM-13+007299999V0203201N002619999999N999999999+00231+99999101391ADDMD1990001+9999OD159900361999REMSYN068ROBN4 46/// /3205 10023 40139 50000 90900 333 91207 555 11004 22005=
0108997743999992021010610004+40650-074067FM-13+007299999V0202801N002619999999N999999999+00241+99999101381ADDMD1990001+9999OD159900261999REMSYN068ROBN4 46/// /2805 10024 40138 50000 91000 333 91205 555 11005 22005=
0088997743999992021010611004+40650-074067FM-13+007299999V0203001N004619999999N999999999+00271+99999101371ADDOD159900571999REMSYN062ROBN4 46/// /3009 10027 40137 91048 333 91211 555 11008 22009=
0108997743999992021010612004+40650-074067FM-13+007299999V0203201N004619999999N999999999+00291+99999101431ADDMD1210041+9999OD159900621999REMSYN068ROBN4 46/// /3209 10029 40143 52004 91200 333 91212 555 11008 22009=
0108997743999992021010613004+40650-074067FM-13+007299999V0203301N005719999999N999999999+99999+99999101501ADDMD1210121+9999OD159900721999REMSYN068ROBN4 46/// /3311 1//// 40150 52012 91300 333 91214 555 11010 22010=
0088997743999992021010614004+40650-074067FM-13+007299999V0203301N005119999999N999999999+00311+99999101521ADDOD159900931999REMSYN062ROBN4 46/// /3310 10031 40152 91336 333 91218 555 11009 22010=
0108997743999992021010615004+40650-074067FM-13+007299999V0203301N006719999999N999999999+00361+99999101551ADDMD1110121+9999OD159901031999REMSYN068ROBN4 46/// /3313 10036 40155 51012 91500 333 91220 555 11012 22013=
0108997743999992021010616004+40650-074067FM-13+007299999V0203301N007719999999N999999999+00361+99999101531ADDMD1210031+9999OD159901391999REMSYN068ROBN4 46/// /3315 10036 40153 52003 91600 333 91227 555 11014 22015=
0108997743999992021010617004+40650-074067FM-13+007299999V0203401N009319999999N999999999+00361+99999101491ADDMD1990001+9999OD159901181999REMSYN068ROBN4 46/// /3418 10036 40149 50000 91700 333 91223 555 11017 22018=
0108997743999992021010618004+40650-074067FM-13+007299999V0203201N008819999999N999999999+00451+99999101421ADDMD1810131+9999OD159901031999REMSYN068ROBN4 46/// /3217 10045 40142 58013 91800 333 91220 555 11015 22017=
0108997743999992021010619004+40650-074067FM-13+007299999V0203201N009819999999N999999999+00451+99999101431ADDMD1610101+9999OD159901291999REMSYN068ROBN4 46/// /3219 10045 40143 56010 91900 333 91225 555 11017 22019=
0108997743999992021010620004+40650-074067FM-13+007299999V0203401N010819999999N999999999+00431+99999101501ADDMD1510001+9999OD159901391999REMSYN068ROBN4 46/// /3421 10043 40150 55000 92000 333 91227 555 11020 22021=
0108997743999992021010621004+40650-074067FM-13+007299999V0203201N010819999999N999999999+00351+99999101561ADDMD1310141+9999OD159901341999REMSYN068ROBN4 46/// /3221 10035 40156 53014 92100 333 91226 555 11019 22021=
0108997743999992021010622004+40650-074067FM-13+007299999V0203201N009819999999N999999999+00301+99999101621ADDMD1110191+9999OD159901391999REMSYN068ROBN4 46/// /3219 10030 40162 51019 92200 333 91227 555 11018 22019=
0108997743999992021010623004+40650-074067FM-13+007299999V0203301N009319999999N999999999+00271+99999101661ADDMD1110161+9999OD159901181999REMSYN068ROBN4 46/// /3318 10027 40166 51016 92300 333 91223 555 11016 22018=
0108997743999992021010700004+40650-074067FM-13+007299999V0203201N008819999999N999999999+00271+99999101711ADDMD1110151+9999OD159901131999REMSYN068ROBN4 46/// /3217 10027 40171 51015 90000 333 91222 555 11015 22016=
0108997743999992021010701004+40650-074067FM-13+007299999V0203201N008819999999N999999999+00271+99999101721ADDMD1110101+9999OD159901031999REMSYN068ROBN4 46/// /3217 10027 40172 51010 90100 333 91220 555 11016 22017=
0108997743999992021010702004+40650-074067FM-13+007299999V0203301N005719999999N999999999+00271+99999101721ADDMD1110061+9999OD159900981999REMSYN068ROBN4 46/// /3311 10027 40172 51006 90200 333 91219 555 11010 22011=
0108997743999992021010703004+40650-074067FM-13+007299999V0203301N007219999999N999999999+00251+99999101681ADDMD1810031+9999OD159901031999REMSYN068ROBN4 46/// /3314 10025 40168 58003 90300 333 91220 555 11013 22014=
0108997743999992021010704004+40650-074067FM-13+007299999V0203201N007219999999N999999999+00211+99999101691ADDMD1710031+9999OD159900981999REMSYN068ROBN4 46/// /3214 10021 40169 57003 90400 333 91219 555 11013 22014=
0108997743999992021010705004+40650-074067FM-13+007299999V0203201N006719999999N999999999+00181+99999101721ADDMD1510001+9999OD159900821999REMSYN068ROBN4 46/// /3213 10018 40172 55000 90500 333 91216 555 11012 22013=
0108997743999992021010706004+40650-074067FM-13+007299999V0203201N007219999999N999999999+00161+99999101751ADDMD1310071+9999OD159900981999REMSYN068ROBN4 46/// /3214 10016 40175 53007 90600 333 91219 555 11013 22014=
0108997743999992021010707004+40650-074067FM-13+007299999V0203201N007219999999N999999999+00131+99999101761ADDMD1110071+9999OD159900881999REMSYN068ROBN4 46/// /3214 10013 40176 51007 90700 333 91217 555 11013 22014=
0108997743999992021010708004+40650-074067FM-13+007299999V0203201N006219999999N999999999+00111+99999101771ADDMD1110051+9999OD159900931999REMSYN068ROBN4 46/// /3212 10011 40177 51005 90800 333 91218 555 11011 22012=
0108997743999992021010709004+40650-074067FM-13+007299999V0203301N005119999999N999999999+00101+99999101751ADDMD1410001+9999OD159900771999REMSYN068ROBN4 46/// /3310 10010 40175 54000 90900 333 91215 555 11009 22010=
0108997743999992021010710004+40650-074067FM-13+007299999V0203301N004619999999N999999999+00071+99999101791ADDMD1310031+9999OD159900771999REMSYN068ROBN4 46/// /3309 10007 40179 53003 91000 333 91215 555 11008 22009=
0108997743999992021010711004+40650-074067FM-13+007299999V0203301N007719999999N999999999+00061+99999101831ADDMD1310061+9999OD159901081999REMSYN068ROBN4 46/// /3315 10006 40183 53006 91100 333 91221 555 11013 22015=
0108997743999992021010712004+40650-074067FM-13+007299999V0203401N006719999999N999999999+00031+99999101891ADDMD1310141+9999OD159900931999REMSYN068ROBN4 46/// /3413 10003 40189 53014 91200 333 91218 555 11012 22013=
0108997743999992021010713004+40650-074067FM-13+007299999V0203301N006719999999N999999999+00021+99999101981ADDMD1310191+9999OD159900771999REMSYN068ROBN4 46/// /3313 10002 40198 53019 91300 333 91215 555 11012 22013=
0108997743999992021010714004+40650-074067FM-13+007299999V0203401N007219999999N999999999+00051+99999102011ADDMD1110181+9999OD159901031999REMSYN068ROBN4 46/// /3414 10005 40201 51018 91400 333 91220 555 11013 22014=
0108997743999992021010715004+40650-074067FM-13+007299999V0203401N007719999999N999999999+00101+99999101991ADDMD1110101+9999OD159901031999REMSYN068ROBN4 46/// /3415 10010 40199 51010 91500 333 91220 555 11014 22015=
0108997743999992021010716004+40650-074067FM-13+007299999V0203301N006719999999N999999999+00191+99999101931ADDMD1810051+9999OD159901081999REMSYN068ROBN4 46/// /3313 10019 40193 58005 91600 333 91221 555 11012 22013=
0088997743999992021010717004+40650-074067FM-13+007299999V0203301N005119999999N999999999+00271+99999101871ADDOD159900771999REMSYN062ROBN4 46/// /3310 10027 40187 91642 333 91215 555 11009 22010=
0108997743999992021010718004+40650-074067FM-13+007299999V0203401N007219999999N999999999+00391+99999101791ADDMD1610201+9999OD159901031999REMSYN068ROBN4 46/// /3414 10039 40179 56020 91800 333 91220 555 11013 22014=
0108997743999992021010719004+40650-074067FM-13+007299999V0203201N006219999999N999999999+00471+99999101761ADDMD1610171+9999OD159900881999REMSYN068ROBN4 46/// /3212 10047 40176 56017 91900 333 91217 555 11011 22012=
0108997743999992021010720004+40650-074067FM-13+007299999V0203501N005719999999N999999999+00511+99999101801ADDMD1510041+9999OD159900721999REMSYN068ROBN4 46/// /3511 10051 40180 55004 92000 333 91214 555 11010 22011=
0108997743999992021010721004+40650-074067FM-13+007299999V0203501N007219999999N999999999+00491+99999101841ADDMD1310051+9999OD159900881999REMSYN068ROBN4 46/// /3514 10049 40184 53005 92100 333 91217 555 11013 22014=
0108997743999992021010722004+40650-074067FM-13+007299999V0203301N005719999999N999999999+00441+99999101911ADDMD1310151+9999OD159900821999REMSYN068ROBN4 46/// /3311 10044 40191 53015 92200 333 91216 555 11010 22011=
0108997743999992021010723004+40650-074067FM-13+007299999V0203501N007719999999N999999999+00311+99999101911ADDMD1110111+9999OD159900931999REMSYN068ROBN4 46/// /3515 10031 40191 51011 92300 333 91218 555 11014 22015=
0108997743999992021010800004+40650-074067FM-13+007299999V0203401N006719999999N999999999+00201+99999101941ADDMD1110101+9999OD159900931999REMSYN068ROBN4 46/// /3413 10020 40194 51010 90000 333 91218 555 11012 22013=
0108997743999992021010801004+40650-074067FM-13+007299999V0203401N006719999999N999999999+00121+99999101961ADDMD1210051+9999OD159900881999REMSYN068ROBN4 46/// /3413 10012 40196 52005 90100 333 91217 555 11012 22013=
0108997743999992021010802004+40650-074067FM-13+007299999V0203301N006219999999N999999999+00061+99999101961ADDMD1110051+9999OD159900771999REMSYN068ROBN4 46/// /3312 10006 40196 51005 90200 333 91215 555 11011 22012=
0108997743999992021010803004+40650-074067FM-13+007299999V0203401N004619999999N999999999+00041+99999101931ADDMD1990001+9999OD159900721999REMSYN068ROBN4 46/// /3409 10004 40193 50000 90300 333 91214 555 11009 22009=
0108997743999992021010804004+40650-074067FM-13+007299999V0203401N004619999999N999999999+00001+99999101911ADDMD1710051+9999OD159900621999REMSYN068ROBN4 46/// /3409 10000 40191 57005 90400 333 91212 555 11008 22009=
0108997743999992021010805004+40650-074067FM-13+007299999V0203401N004119999999N999999999-00031+99999101871ADDMD1810091+9999OD159900621999REMSYN068ROBN4 46/// /3408 11003 40187 58009 90500 333 91212 555 11008 22008=
0108997743999992021010821004+40650-074067FM-13+007299999V0203501N004119999999N999999999+00311+99999101271ADDMD1710171+9999OD159900461999REMSYN068ROBN4 46/// /3508 10031 40127 57017 92100 333 91209 555 11007 22008=
0088997743999992021010822004+40650-074067FM-13+007299999V0203501N003619999999N999999999+00301+99999101301ADDOD159900461999REMSYN062ROBN4 46/// /3507 10030 40130 92154 333 91209 555 11007 22007=
0108997743999992021010823004+40650-074067FM-13+007299999V0203601N006719999999N999999999+00221+99999101291ADDMD1610041+9999OD159900821999REMSYN068ROBN4 46/// /3613 10022 40129 56004 92300 333 91216 555 11012 22013=
0108997743999992021010900004+40650-074067FM-13+007299999V0200101N006719999999N999999999+00151+99999101261ADDMD1990001+9999OD159900881999REMSYN068ROBN4 46/// /0113 10015 40126 50000 90000 333 91217 555 11012 22013=
0088997743999992021010901004+40650-074067FM-13+007299999V0203601N005719999999N999999999+00111+99999101241ADDOD159900721999REMSYN062ROBN4 46/// /3611 10011 40124 90042 333 91214 555 11010 22011=
0108997743999992021010902004+40650-074067FM-13+007299999V0200101N007219999999N999999999+00031+99999101231ADDMD1710061+9999OD159900881999REMSYN068ROBN4 46/// /0114 10003 40123 57006 90200 333 91217 555 11013 22014=
0108997743999992021010903004+40650-074067FM-13+007299999V0203501N008819999999N999999999-00021+99999101161ADDMD1710101+9999OD159901081999REMSYN068ROBN4 46/// /3517 11002 40116 57010 90300 333 91221 555 11015 22016=
0088997743999992021010904004+40650-074067FM-13+007299999V0203601N006719999999N999999999-00031+99999101121ADDOD159900981999REMSYN062ROBN4 46/// /3613 11003 40112 90342 333 91219 555 11012 22013=
0108997743999992021010905004+40650-074067FM-13+007299999V0203401N004619999999N999999999-00101+99999101081ADDMD1610151+9999OD159900771999REMSYN068ROBN4 46/// /3409 11010 40108 56015 90500 333 91215 555 11008 22009=
0108997743999992021010906004+40650-074067FM-13+007299999V0200101N007719999999N999999999-00111+99999101091ADDMD1610071+9999OD159900981999REMSYN068ROBN4 46/// /0115 11011 40109 56007 90600 333 91219 555 11014 22015=
0108997743999992021010907004+40650-074067FM-13+007299999V0203601N008819999999N999999999-00181+99999101121ADDMD1510001+9999OD159901031999REMSYN068ROBN4 46/// /3617 11018 40112 55000 90700 333 91220 555 11016 22017=
0108997743999992021010908004+40650-074067FM-13+007299999V0200101N008819999999N999999999-00251+99999101131ADDMD1210051+9999OD159900981999REMSYN068ROBN4 46/// /0117 11025 40113 52005 90800 333 91219 555 11016 22017=
0108997743999992021010909004+40650-074067FM-13+007299999V0203501N006219999999N999999999-00301+99999101141ADDMD1110051+9999OD159900821999REMSYN068ROBN4 46/// /3512 11030 40114 51005 90900 333 91216 555 11011 22012=
0108997743999992021010910004+40650-074067FM-13+007299999V0203501N006719999999N999999999-00361+99999101101ADDMD1990001+9999OD159900821999REMSYN068ROBN4 46/// /3513 11036 40110 50000 91000 333 91216 555 11012 22013=
0108997743999992021010911004+40650-074067FM-13+007299999V0203401N005119999999N999999999-00391+99999101121ADDMD1410001+9999OD159900671999REMSYN068ROBN4 46/// /3410 11039 40112 54000 91100 333 91213 555 11009 22010=
0108997743999992021010912004+40650-074067FM-13+007299999V0203501N007219999999N999999999-00381+99999101161ADDMD1510001+9999OD159900821999REMSYN068ROBN4 46/// /3514 11038 40116 55000 91200 333 91216 555 11012 22014=
0108997743999992021010913004+40650-074067FM-13+007299999V0203501N006219999999N999999999-00381+99999101211ADDMD1310111+9999OD159900881999REMSYN068ROBN4 46/// /3512 11038 40121 53011 91300 333 91217 555 11011 22012=
0108997743999992021010914004+40650-074067FM-13+007299999V0203501N007219999999N999999999-00341+99999101251ADDMD1210131+9999OD159900881999REMSYN068ROBN4 46/// /3514 11034 40125 52013 91400 333 91217 555 11013 22014=
0108997743999992021010915004+40650-074067FM-13+007299999V0203501N009319999999N999999999-00261+99999101261ADDMD1110101+9999OD159901081999REMSYN068ROBN4 46/// /3518 11026 40126 51010 91500 333 91221 555 11016 22018=
0108997743999992021010916004+40650-074067FM-13+007299999V0203401N007219999999N999999999-00131+99999101191ADDMD1990001+9999OD159901031999REMSYN068ROBN4 46/// /3414 11013 40119 50000 91600 333 91220 555 11013 22014=
0108997743999992021010917004+40650-074067FM-13+007299999V0203401N008219999999N999999999-00041+99999101111ADDMD1810141+9999OD159901081999REMSYN068ROBN4 46/// /3416 11004 40111 58014 91700 333 91221 555 11015 22016=
0108997743999992021010918004+40650-074067FM-13+007299999V0203401N007719999999N999999999+00061+99999101081ADDMD1610181+9999OD159900981999REMSYN068ROBN4 46/// /3415 10006 40108 56018 91800 333 91219 555 11014 22015=
0108997743999992021010919004+40650-074067FM-13+007299999V0203501N009819999999N999999999+00161+99999101101ADDMD1610091+9999OD159901131999REMSYN068ROBN4 46/// /3519 10016 40110 56009 91900 333 91222 555 11017 22019=
0108997743999992021010920004+40650-074067FM-13+007299999V0203601N007719999999N999999999+00231+99999101131ADDMD1510001+9999OD159900981999REMSYN068ROBN4 46/// /3615 10023 40113 55000 92000 333 91219 555 11014 22015=
0108997743999992021010921004+40650-074067FM-13+007299999V0203401N005119999999N999999999+00251+99999101201ADDMD1310121+9999OD159900721999REMSYN068ROBN4 46/// /3410 10025 40120 53012 92100 333 91214 555 11009 22010=
0108997743999992021010922004+40650-074067FM-13+007299999V0203501N003619999999N999999999+00221+99999101251ADDMD1310151+9999OD159900461999REMSYN068ROBN4 46/// /3507 10022 40125 53015 92200 333 91209 555 11007 22007=
0108997743999992021010923004+40650-074067FM-13+007299999V0203501N004119999999N999999999+99999+99999101281ADDMD1110151+9999OD159900511999REMSYN068ROBN4 46/// /3508 1//// 40128 51015 92300 333 91210 555 11007 22008=
0108997743999992021011000004+40650-074067FM-13+007299999V0203501N003619999999N999999999+00241+99999101341ADDMD1310141+9999OD159900411999REMSYN068ROBN4 46/// /3507 10024 40134 53014 90000 333 91208 555 11006 22007=
0108997743999992021011001004+40650-074067FM-13+007299999V0203601N004619999999N999999999+00251+99999101391ADDMD1310141+9999OD159900511999REMSYN068ROBN4 46/// /3609 10025 40139 53014 90100 333 91210 555 11008 22009=
0108997743999992021011002004+40650-074067FM-13+007299999V0203601N004119999999N999999999+00211+99999101461ADDMD1310181+9999OD159900571999REMSYN068ROBN4 46/// /3608 10021 40146 53018 90200 333 91211 555 11007 22008=
0108997743999992021011003004+40650-074067FM-13+007299999V0203401N003619999999N999999999+00171+99999101541ADDMD1310201+9999OD159900461999REMSYN068ROBN4 46/// /3407 10017 40154 53020 90300 333 91209 555 11006 22007=
0108997743999992021011004004+40650-074067FM-13+007299999V0203601N005719999999N999999999+00131+99999101571ADDMD1110181+9999OD159900671999REMSYN068ROBN4 46/// /3611 10013 40157 51018 90400 333 91213 555 11010 22011=
0108997743999992021011005004+40650-074067FM-13+007299999V0203501N005719999999N999999999+00081+99999101641ADDMD1110181+9999OD159900671999REMSYN068ROBN4 46/// /3511 10008 40164 51018 90500 333 91213 555 11010 22011=
0108997743999992021011006004+40650-074067FM-13+007299999V0203401N005719999999N999999999+00041+99999101651ADDMD1110111+9999OD159900881999REMSYN068ROBN4 46/// /3411 10004 40165 51011 90600 333 91217 555 11010 22010=
0108997743999992021011007004+40650-074067FM-13+007299999V0203301N005119999999N999999999+00001+99999101771ADDMD1310201+9999OD159900621999REMSYN068ROBN4 46/// /3310 10000 40177 53020 90700 333 91212 555 11009 22010=
0088997743999992021011008004+40650-074067FM-13+007299999V0203301N003619999999N999999999-00011+99999101821ADDOD159900511999REMSYN062ROBN4 46/// /3307 11001 40182 90748 333 91210 555 11007 22007=
0108997743999992021011009004+40650-074067FM-13+007299999V0203301N004619999999N999999999+00001+99999101871ADDMD1110221+9999OD159900671999REMSYN068ROBN4 46/// /3309 10000 40187 51022 90900 333 91213 555 11008 22009=
0088997743999992021011010004+40650-074067FM-13+007299999V0203401N004619999999N999999999-00041+99999101881ADDOD159900721999REMSYN062ROBN4 46/// /3409 11004 40188 90942 333 91214 555 11009 22009=
0108997743999992021011011004+40650-074067FM-13+007299999V0203301N004619999999N999999999-00071+99999101971ADDMD1210141+9999OD159900571999REMSYN068ROBN4 46/// /3309 11007 40197 52014 91100 333 91211 555 11008 22009=
0108997743999992021011012004+40650-074067FM-13+007299999V0203401N003619999999N999999999-00101+99999102041ADDMD1210171+9999OD159900511999REMSYN068ROBN4 46/// /3407 11010 40204 52017 91200 333 91210 555 11007 22007=
0088997743999992021011013004+40650-074067FM-13+007299999V0203401N005719999999N999999999-00111+99999102081ADDOD159900671999REMSYN062ROBN4 46/// /3411 11011 40208 91236 333 91213 555 11010 22011=
0108997743999992021011014004+40650-074067FM-13+007299999V0203401N005719999999N999999999-00081+99999102231ADDMD1310261+9999OD159900721999REMSYN068ROBN4 46/// /3411 11008 40223 53026 91400 333 91214 555 11010 22011=
0108997743999992021011015004+40650-074067FM-13+007299999V0203301N007219999999N999999999-00031+99999102321ADDMD1210281+9999OD159900881999REMSYN068ROBN4 46/// /3314 11003 40232 52028 91500 333 91217 555 11013 22014=
0108997743999992021011016004+40650-074067FM-13+007299999V0203501N006219999999N999999999+00061+99999102341ADDMD1110211+9999OD159900771999REMSYN068ROBN4 46/// /3512 10006 40234 51021 91600 333 91215 555 11011 22012=
0088997743999992021011017004+40650-074067FM-13+007299999V0203501N005719999999N999999999+00151+99999102301ADDOD159900671999REMSYN062ROBN4 46/// /3511 10015 40230 91642 333 91213 555 11010 22011=
0088997743999992021011018004+40650-074067FM-13+007299999V0203501N005719999999N999999999+00261+99999102251ADDOD159900671999REMSYN062ROBN4 46/// /3511 10026 40225 91748 333 91213 555 11010 22011=
0108997743999992021011019004+40650-074067FM-13+007299999V0203501N004619999999N999999999+00431+99999102211ADDMD1610131+9999OD159900571999REMSYN068ROBN4 46/// /3509 10043 40221 56013 91900 333 91211 555 11008 22009=
0108997743999992021011020004+40650-074067FM-13+007299999V0203501N005119999999N999999999+00471+99999102261ADDMD1510001+9999OD159900721999REMSYN068ROBN4 46/// /3510 10047 40226 55000 92000 333 91214 555 11009 22010=
0108997743999992021011021004+40650-074067FM-13+007299999V0200101N003119999999N999999999+00491+99999102311ADDMD1310071+9999OD159900361999REMSYN068ROBN4 46/// /0106 10049 40231 53007 92100 333 91207 555 11005 22006=
0108997743999992021011022004+40650-074067FM-13+007299999V0203601N004119999999N999999999+00491+99999102371ADDMD1310161+9999OD159900511999REMSYN068ROBN4 46/// /3608 10049 40237 53016 92200 333 91210 555 11007 22008=
0108997743999992021011023004+40650-074067FM-13+007299999V0203501N003119999999N999999999+00411+99999102471ADDMD1310211+9999OD159900361999REMSYN068ROBN4 46/// /3506 10041 40247 53021 92300 333 91207 555 11006 22006=
0108997743999992021011100004+40650-074067FM-13+007299999V0203601N001519999999N999999999+00381+99999102491ADDMD1110181+9999OD159900211999REMSYN068ROBN4 46/// /3603 10038 40249 51018 90000 333 91204 555 11003 22003=
0088997743999992021011101004+40650-074067FM-13+007299999V0203401N002619999999N999999999+00361+99999102491ADDOD159900311999REMSYN062ROBN4 46/// /3405 10036 40249 90036 333 91206 555 11005 22005=
0108997743999992021011102004+40650-074067FM-13+007299999V0203501N003119999999N999999999+00231+99999102631ADDMD1210161+9999OD159900361999REMSYN068ROBN4 46/// /3506 10023 40263 52016 90200 333 91207 555 11005 22006=
0108997743999992021011103004+40650-074067FM-13+007299999V0203501N003619999999N999999999+00151+99999102631ADDMD1210141+9999OD159900411999REMSYN068ROBN4 46/// /3507 10015 40263 52014 90300 333 91208 555 11007 22007=
0088997743999992021011104004+40650-074067FM-13+007299999V0203501N003619999999N999999999+00081+99999102621ADDOD159900461999REMSYN062ROBN4 46/// /3507 10008 40262 90354 333 91209 555 11007 22007=
0108997743999992021011105004+40650-074067FM-13+007299999V0203301N002619999999N999999999-00011+99999102651ADDMD1510001+9999OD159900311999REMSYN068ROBN4 46/// /3305 11001 40265 55000 90500 333 91206 555 11005 22005=
0108997743999992021011106004+40650-074067FM-13+007299999V0203401N003119999999N999999999-00081+99999102691ADDMD1310061+9999OD159900361999REMSYN068ROBN4 46/// /3406 11008 40269 53006 90600 333 91207 555 11006 22006=
0108997743999992021011107004+40650-074067FM-13+007299999V0200101N003619999999N999999999-00031+99999102651ADDMD1990041+9999OD159900411999REMSYN068ROBN4 46/// /0107 11003 40265 50004 90700 333 91208 555 11007 22007=
0088997743999992021011108004+40650-074067FM-13+007299999V0203501N003619999999N999999999-00061+99999102681ADDOD159900461999REMSYN062ROBN4 46/// /3507 11006 40268 90736 333 91209 555 11006 22007=
0108997743999992021011109004+40650-074067FM-13+007299999V0203301N003119999999N999999999-00181+99999102651ADDMD1610041+9999OD159900411999REMSYN068ROBN4 46/// /3306 11018 40265 56004 90900 333 91208 555 11006 22006=
0108997743999992021011110004+40650-074067FM-13+007299999V0203101N003619999999N999999999-00191+99999102731ADDMD1310081+9999OD159900411999REMSYN068ROBN4 46/// /3107 11019 40273 53008 91000 333 91208 555 11006 22007=
0088997743999992021011111004+40650-074067FM-13+007299999V0203301N003119999999N999999999-00191+99999102741ADDOD159900411999REMSYN062ROBN4 46/// /3306 11019 40274 91036 333 91208 555 11005 22006=
0108997743999992021011112004+40650-074067FM-13+007299999V0203501N002619999999N999999999-00191+99999102681ADDMD1210031+9999OD159900361999REMSYN068ROBN4 46/// /3505 11019 40268 52003 91200 333 91207 555 11005 22005=
0088997743999992021011113004+40650-074067FM-13+007299999V0203201N003119999999N999999999-00171+99999102711ADDOD159900311999REMSYN062ROBN4 46/// /3206 11017 40271 91318 333 91206 555 11005 22006=
0088997743999992021011114004+40650-074067FM-13+007299999V0203101N003619999999N999999999-00161+99999102721ADDOD159900411999REMSYN062ROBN4 46/// /3107 11016 40272 91354 333 91208 555 11006 22007=
0108997743999992021011115004+40650-074067FM-13+007299999V0203501N004119999999N999999999-00131+99999102731ADDMD1310051+9999OD159900461999REMSYN068ROBN4 46/// /3508 11013 40273 53005 91500 333 91209 555 11007 22008=
0108997743999992021011116004+40650-074067FM-13+007299999V0203401N002619999999N999999999-00071+99999102651ADDMD1810041+9999OD159900261999REMSYN068ROBN4 46/// /3405 11007 40265 58004 91600 333 91205 555 11004 22004=
0108997743999992021011117004+40650-074067FM-13+007299999V0203401N001519999999N999999999-00021+99999102491ADDMD1810211+9999OD159900211999REMSYN068ROBN4 46/// /3403 11002 40249 58021 91700 333 91204 555 11002 22003=
0108997743999992021011118004+40650-074067FM-13+007299999V0203301N001519999999N999999999+99999+99999102471ADDMD1610261+9999OD159900261999REMSYN068ROBN4 46/// /3303 1//// 40247 56026 91800 333 91205 555 11003 22003=
0108997743999992021011119004+40650-074067FM-13+007299999V0203201N000519999999N999999999+00151+99999102431ADDMD1610221+9999OD159900101999REMSYN068ROBN4 46/// /3201 10015 40243 56022 91900 333 91202 555 11001 22001=
0108997743999992021011120004+40650-074067FM-13+007299999V0201101N002119999999N999999999+00151+99999102341ADDMD1810151+9999OD159900261999REMSYN068ROBN4 46/// /1104 10015 40234 58015 92000 333 91205 555 11004 22004=
0108997743999992021011121004+40650-074067FM-13+007299999V0201801N001019999999N999999999+00231+99999102321ADDMD1610151+9999OD159900211999REMSYN068ROBN4 46/// /1802 10023 40232 56015 92100 333 91204 555 11002 22002=
0088997743999992021011122004+40650-074067FM-13+007299999V0201901N002619999999N999999999+00261+99999102301ADDOD159900261999REMSYN062ROBN4 46/// /1905 10026 40230 92148 333 91205 555 11004 22005=
0108997743999992021011123004+40650-074067FM-13+007299999V0201901N003119999999N999999999+00281+99999102271ADDMD1710071+9999OD159900361999REMSYN068ROBN4 46/// /1906 10028 40227 57007 92300 333 91207 555 11006 22006=
0108997743999992021011200004+40650-074067FM-13+007299999V0201901N002619999999N999999999+00281+99999102271ADDMD1710051+9999OD159900311999REMSYN068ROBN4 46/// /1905 10028 40227 57005 90000 333 91206 555 11005 22005=
0088997743999992021011201004+40650-074067FM-13+007299999V0202701N001519999999N999999999+00251+99999102301ADDOD159900211999REMSYN062ROBN4 46/// /2703 10025 40230 90042 333 91204 555 11003 22003=
0108997743999992021011202004+40650-074067FM-13+007299999V0202101N001019999999N999999999+00271+99999102231ADDMD1810041+9999OD159900151999REMSYN068ROBN4 46/// /2102 10027 40223 58004 90200 333 91203 555 11002 22002=
0108997743999992021011203004+40650-074067FM-13+007299999V0202401N001019999999N999999999+00231+99999102181ADDMD1810091+9999OD159900101999REMSYN068ROBN4 46/// /2402 10023 40218 58009 90300 333 91202 555 11002 22002=
0108997743999992021011204004+40650-074067FM-13+007299999V0202701N002119999999N999999999+00201+99999102161ADDMD1610111+9999OD159900261999REMSYN068ROBN4 46/// /2704 10020 40216 56011 90400 333 91205 555 11004 22004=
0108997743999992021011205004+40650-074067FM-13+007299999V0202801N003119999999N999999999+00161+99999102121ADDMD1610111+9999OD159900311999REMSYN068ROBN4 46/// /2806 10016 40212 56011 90500 333 91206 555 11005 22006=
0108997743999992021011206004+40650-074067FM-13+007299999V0202701N002119999999N999999999+00091+99999102081ADDMD1810101+9999OD159900261999REMSYN068ROBN4 46/// /2704 10009 40208 58010 90600 333 91205 555 11004 22004=
0088997743999992021011207004+40650-074067FM-13+007299999V0202701N002619999999N999999999+00091+99999102101ADDOD159900361999REMSYN062ROBN4 46/// /2705 10009 40210 90636 333 91207 555 11005 22005=
0108997743999992021011208004+40650-074067FM-13+007299999V0202701N004119999999N999999999+00061+99999102071ADDMD1710051+9999OD159900461999REMSYN068ROBN4 46/// /2708 10006 40207 57005 90800 333 91209 555 11008 22008=
0108997743999992021011209004+40650-074067FM-13+007299999V0202601N004619999999N999999999+00021+99999102031ADDMD1710051+9999OD159900511999REMSYN068ROBN4 46/// /2609 10002 40203 57005 90900 333 91210 555 11008 22009=
0088997743999992021011210004+40650-074067FM-13+007299999V0202701N004619999999N999999999+00011+99999102031ADDOD159900511999REMSYN062ROBN4 46/// /2709 10001 40203 90948 333 91210 555 11008 22009=
0108997743999992021011211004+40650-074067FM-13+007299999V0202701N004119999999N999999999-00041+99999102041ADDMD1710031+9999OD159900461999REMSYN068ROBN4 46/// /2708 11004 40204 57003 91100 333 91209 555 11008 22008=
0108997743999992021011212004+40650-074067FM-13+007299999V0202801N004119999999N999999999+99999+99999102061ADDMD1210031+9999OD159900461999REMSYN068ROBN4 46/// /2808 1//// 40206 52003 91200 333 91209 555 11007 22008=
0088997743999992021011213004+40650-074067FM-13+007299999V0202801N004619999999N999999999-00031+99999102031ADDOD159900511999REMSYN062ROBN4 46/// /2809 11003 40203 91254 333 91210 555 11008 22009=
0108997743999992021011214004+40650-074067FM-13+007299999V0202801N003619999999N999999999+00071+99999102121ADDMD1310081+9999OD159900411999REMSYN068ROBN4 46/// /2807 10007 40212 53008 91400 333 91208 555 11007 22007=
0108997743999992021011215004+40650-074067FM-13+007299999V0202801N002619999999N999999999+00181+99999102131ADDMD1210071+9999OD159900361999REMSYN068ROBN4 46/// /2805 10018 40213 52007 91500 333 91207 555 11005 22005=
0088997743999992021011216004+40650-074067FM-13+007299999V0203001N002119999999N999999999+00311+99999102071ADDOD159900261999REMSYN062ROBN4 46/// /3004 10031 40207 91548 333 91205 555 11004 22004=
0108997743999992021011217004+40650-074067FM-13+007299999V0203301N002119999999N999999999+00481+99999101931ADDMD1810191+9999OD159900261999REMSYN068ROBN4 46/// /3304 10048 40193 58019 91700 333 91205 555 11003 22004=
0108997743999992021011218004+40650-074067FM-13+007299999V0200701N002119999999N999999999+00501+99999101891ADDMD1610241+9999OD159900261999REMSYN068ROBN4 46/// /0704 10050 40189 56024 91800 333 91205 555 11004 22004=
0108997743999992021011219004+40650-074067FM-13+007299999V0201001N001019999999N999999999+00541+99999101861ADDMD1610191+9999OD159900151999REMSYN068ROBN4 46/// /1002 10054 40186 56019 91900 333 91203 555 11002 22002=
0108997743999992021011220004+40650-074067FM-13+007299999V0201001N001519999999N999999999+00581+99999101821ADDMD1710111+9999OD159900151999REMSYN068ROBN4 46/// /1003 10058 40182 57011 92000 333 91203 555 11003 22003=
0108997743999992021011221004+40650-074067FM-13+007299999V0201801N003119999999N999999999+00561+99999101781ADDMD1810111+9999OD159900361999REMSYN068ROBN4 46/// /1806 10056 40178 58011 92100 333 91207 555 11005 22006=
0108997743999992021011222004+40650-074067FM-13+007299999V0202001N003619999999N999999999+00521+99999101771ADDMD1610091+9999OD159900361999REMSYN068ROBN4 46/// /2007 10052 40177 56009 92200 333 91207 555 11006 22007=
0108997743999992021011223004+40650-074067FM-13+007299999V0202001N003619999999N999999999+00491+99999101801ADDMD1510001+9999OD159900461999REMSYN068ROBN4 46/// /2007 10049 40180 55000 92300 333 91209 555 11006 22007=
0108997743999992021011300004+40650-074067FM-13+007299999V0202501N003619999999N999999999+00491+99999101821ADDMD1210041+9999OD159900461999REMSYN068ROBN4 46/// /2507 10049 40182 52004 90000 333 91209 555 11007 22007=
0108997743999992021011301004+40650-074067FM-13+007299999V0203401N004119999999N999999999+00391+99999101861ADDMD1310091+9999OD159900511999REMSYN068ROBN4 46/// /3408 10039 40186 53009 90100 333 91210 555 11007 22008=
0108997743999992021011302004+40650-074067FM-13+007299999V0203401N002619999999N999999999+00361+99999101871ADDMD1210071+9999OD159900361999REMSYN068ROBN4 46/// /3405 10036 40187 52007 90200 333 91207 555 11004 22005=
0088997743999992021011303004+40650-074067FM-13+007299999V0203501N002619999999N999999999+00351+99999101891ADDOD159900361999REMSYN062ROBN4 46/// /3505 10035 40189 90248 333 91207 555 11005 22005=
0108997743999992021011304004+40650-074067FM-13+007299999V0203201N002619999999N999999999+00291+99999101891ADDMD1210031+9999OD159900311999REMSYN068ROBN4 46/// /3205 10029 40189 52003 90400 333 91206 555 11004 22004=
0108997743999992021011305004+40650-074067FM-13+007299999V0203401N002619999999N999999999+00231+99999101871ADDMD1410001+9999OD159900361999REMSYN068ROBN4 46/// /3405 10023 40187 54000 90500 333 91207 555 11005 22005=
0108997743999992021011306004+40650-074067FM-13+007299999V0203201N002619999999N999999999+00231+99999101841ADDMD1810051+9999OD159900361999REMSYN068ROBN4 46/// /3205 10023 40184 58005 90600 333 91207 555 11005 22005=
0108997743999992021011307004+40650-074067FM-13+007299999V0203601N001019999999N999999999+00231+99999101811ADDMD1810081+9999OD159900101999REMSYN068ROBN4 46/// /3602 10023 40181 58008 90700 333 91202 555 11001 22002=
0108997743999992021011308004+40650-074067FM-13+007299999V0202701N003119999999N999999999+00211+99999101831ADDMD1610041+9999OD159900361999REMSYN068ROBN4 46/// /2706 10021 40183 56004 90800 333 91207 555 11006 22006=
0108997743999992021011309004+40650-074067FM-13+007299999V0202701N004119999999N999999999+00161+99999101821ADDMD1510001+9999OD159900461999REMSYN068ROBN4 46/// /2708 10016 40182 55000 90900 333 91209 555 11007 22008=
0108997743999992021011310004+40650-074067FM-13+007299999V0203101N001519999999N999999999+00201+99999101801ADDMD1410001+9999OD159900151999REMSYN068ROBN4 46/// /3103 10020 40180 54000 91000 333 91203 555 11003 22003=
0108997743999992021011311004+40650-074067FM-13+007299999V0202901N001519999999N999999999+00251+99999101811ADDMD1410001+9999OD159900211999REMSYN068ROBN4 46/// /2903 10025 40181 54000 91100 333 91204 555 11003 22003=
0108997743999992021011312004+40650-074067FM-13+007299999V0202601N002119999999N999999999+00281+99999101831ADDMD1410001+9999OD159900211999REMSYN068ROBN4 46/// /2604 10028 40183 54000 91200 333 91204 555 11003 22004=
0108997743999992021011313004+40650-074067FM-13+007299999V0202401N001519999999N999999999+00311+99999101821ADDMD1410001+9999OD159900151999REMSYN068ROBN4 46/// /2403 10031 40182 54000 91300 333 91203 555 11003 22003=
0108997743999992021011314004+40650-074067FM-13+007299999V0202701N003119999999N999999999+00271+99999101861ADDMD1310051+9999OD159900361999REMSYN068ROBN4 46/// /2706 10027 40186 53005 91400 333 91207 555 11006 22006=
0108997743999992021011315004+40650-074067FM-13+007299999V0202601N002619999999N999999999+00351+99999101841ADDMD1410001+9999OD159900361999REMSYN068ROBN4 46/// /2605 10035 40184 54000 91500 333 91207 555 11004 22005=
0108997743999992021011316004+40650-074067FM-13+007299999V0202601N004119999999N999999999+00441+99999101721ADDMD1810101+9999OD159900511999REMSYN068ROBN4 46/// /2608 10044 40172 58010 91600 333 91210 555 11008 22008=
0108997743999992021011317004+40650-074067FM-13+007299999V0202501N006219999999N999999999+00461+99999101601ADDMD1810261+9999OD159900771999REMSYN068ROBN4 46/// /2512 10046 40160 58026 91700 333 91215 555 11011 22012=
0108997743999992021011318004+40650-074067FM-13+007299999V0202701N006719999999N999999999+00481+99999101501ADDMD1610341+9999OD159900931999REMSYN068ROBN4 46/// /2713 10048 40150 56034 91800 333 91218 555 11012 22013=
0108997743999992021011319004+40650-074067FM-13+007299999V0202801N009819999999N999999999+00511+99999101441ADDMD1610281+9999OD159901081999REMSYN068ROBN4 46/// /2819 10051 40144 56028 91900 333 91221 555 11017 22019=
0088997743999992021011320004+40650-074067FM-13+007299999V0202901N007219999999N999999999+00501+99999101421ADDOD159901031999REMSYN062ROBN4 46/// /2914 10050 40142 91942 333 91220 555 11012 22014=
0108997743999992021011321004+40650-074067FM-13+007299999V0202701N007719999999N999999999+00461+99999101441ADDMD1610061+9999OD159901031999REMSYN068ROBN4 46/// /2715 10046 40144 56006 92100 333 91220 555 11014 22015=
0108997743999992021011322004+40650-074067FM-13+007299999V0202801N006219999999N999999999+00451+99999101421ADDMD1410001+9999OD159900771999REMSYN068ROBN4 46/// /2812 10045 40142 54000 92200 333 91215 555 11011 22012=
0108997743999992021011323004+40650-074067FM-13+007299999V0202801N002619999999N999999999+00441+99999101381ADDMD1810041+9999OD159900311999REMSYN068ROBN4 46/// /2805 10044 40138 58004 92300 333 91206 555 11004 22005=
0108997743999992021011400004+40650-074067FM-13+007299999V0202101N002119999999N999999999+00421+99999101371ADDMD1710071+9999OD159900261999REMSYN068ROBN4 46/// /2104 10042 40137 57007 90000 333 91205 555 11004 22004=
0108997743999992021011401004+40650-074067FM-13+007299999V0202001N003119999999N999999999+00411+99999101351ADDMD1610071+9999OD159900361999REMSYN068ROBN4 46/// /2006 10041 40135 56007 90100 333 91207 555 11006 22006=
0108997743999992021011402004+40650-074067FM-13+007299999V0201901N004119999999N999999999+00381+99999101361ADDMD1410001+9999OD159900461999REMSYN068ROBN4 46/// /1908 10038 40136 54000 90200 333 91209 555 11008 22008=
0108997743999992021011403004+40650-074067FM-13+007299999V0201901N004119999999N999999999+00391+99999101321ADDMD1810051+9999OD159900461999REMSYN068ROBN4 46/// /1908 10039 40132 58005 90300 333 91209 555 11007 22008=
0088997743999992021011404004+40650-074067FM-13+007299999V0201901N003619999999N999999999+00391+99999101281ADDOD159900411999REMSYN062ROBN4 46/// /1907 10039 40128 90348 333 91208 555 11007 22007=
0108997743999992021011405004+40650-074067FM-13+007299999V0202201N003119999999N999999999+00451+99999101241ADDMD1710121+9999OD159900411999REMSYN068ROBN4 46/// /2206 10045 40124 57012 90500 333 91208 555 11006 22006=
0108997743999992021011406004+40650-074067FM-13+007299999V0202301N002619999999N999999999+00391+99999101161ADDMD1810161+9999OD159900411999REMSYN068ROBN4 46/// /2305 10039 40116 58016 90600 333 91208 555 11004 22005=
0108997743999992021011407004+40650-074067FM-13+007299999V0202601N001519999999N999999999+00351+99999101131ADDMD1610151+9999OD159900151999REMSYN068ROBN4 46/// /2603 10035 40113 56015 90700 333 91203 555 11003 22003=
0108997743999992021011408004+40650-074067FM-13+007299999V0202701N002119999999N999999999+99999+99999101111ADDMD1610131+9999OD159900261999REMSYN068ROBN4 46/// /2704 1//// 40111 56013 90800 333 91205 555 11004 22004=
0088997743999992021011409004+40650-074067FM-13+007299999V0202801N001519999999N999999999+00291+99999101061ADDOD159900151999REMSYN062ROBN4 46/// /2803 10029 40106 90842 333 91203 555 11002 22003=
0108997743999992021011410004+40650-074067FM-13+007299999V0202501N002119999999N999999999+00311+99999101061ADDMD1710071+9999OD159900211999REMSYN068ROBN4 46/// /2504 10031 40106 57007 91000 333 91204 555 11003 22004=
0108997743999992021011411004+40650-074067FM-13+007299999V0202201N001519999999N999999999+00301+99999101071ADDMD1610041+9999OD159900211999REMSYN068ROBN4 46/// /2203 10030 40107 56004 91100 333 91204 555 11003 22003=
0108997743999992021011412004+40650-074067FM-13+007299999V0203001N001019999999N999999999+00311+99999101101ADDMD1310041+9999OD159900211999REMSYN068ROBN4 46/// /3002 10031 40110 53004 91200 333 91204 555 11002 22002=
0108997743999992021011413004+40650-074067FM-13+007299999V0202801N001019999999N999999999+00251+99999101091ADDMD1210031+9999OD159900211999REMSYN068ROBN4 46/// /2802 10025 40109 52003 91300 333 91204 555 11002 22002=
0108997743999992021011414004+40650-074067FM-13+007299999V0203501N001019999999N999999999+00331+99999101081ADDMD1990001+9999OD159900151999REMSYN068ROBN4 46/// /3502 10033 40108 50000 91400 333 91203 555 11002 22002=
0108997743999992021011415004+40650-074067FM-13+007299999V0209999C000019999999N999999999+00641+99999101081ADDMD1410001+9999OD159900001999REMSYN068ROBN4 46/// /0000 10064 40108 54000 91500 333 91200 555 11000 22000=
0108997743999992021011416004+40650-074067FM-13+007299999V0209999C000019999999N999999999+00611+99999101031ADDMD1810061+9999OD159900051999REMSYN068ROBN4 46/// /0000 10061 40103 58006 91600 333 91201 555 11001 22001=
0108997743999992021011417004+40650-074067FM-13+007299999V0209999C000019999999N999999999+00701+99999100931ADDMD1810151+9999OD159900001999REMSYN068ROBN4 46/// /0000 10070 40093 58015 91700 333 91200 555 11000 22000=
0088997743999992021011418004+40650-074067FM-13+007299999V0200401N000519999999N999999999+00671+99999100891ADDOD159900051999REMSYN062ROBN4 46/// /0401 10067 40089 91736 333 91201 555 11001 22001=
0088997743999992021011419004+40650-074067FM-13+007299999V0200801N001519999999N999999999+00681+99999100851ADDOD159900151999REMSYN062ROBN4 46/// /0803 10068 40085 91848 333 91203 555 11003 22003=
0108997743999992021011420004+40650-074067FM-13+007299999V0200601N002119999999N999999999+00841+99999100851ADDMD1710081+9999OD159900211999REMSYN068ROBN4 46/// /0604 10084 40085 57008 92000 333 91204 555 11004 22004=
0088997743999992021011421004+40650-074067FM-13+007299999V0200601N002119999999N999999999+00851+99999100831ADDOD159900211999REMSYN062ROBN4 46/// /0604 10085 40083 92048 333 91204 555 11004 22004=
0088997743999992021011422004+40650-074067FM-13+007299999V0200401N003619999999N999999999+00891+99999100891ADDOD159900361999REMSYN062ROBN4 46/// /0407 10089 40089 92154 333 91207 555 11006 22007=
0108997743999992021011423004+40650-074067FM-13+007299999V0203101N002619999999N999999999+00821+99999100971ADDMD1210121+9999OD159900311999REMSYN068ROBN4 46/// /3105 10082 40097 52012 92300 333 91206 555 11005 22005=
0088997743999992021011500004+40650-074067FM-13+007299999V0203501N003119999999N999999999+00781+99999101001ADDOD159900411999REMSYN062ROBN4 46/// /3506 10078 40100 92348 333 91208 555 11005 22006=
0108997743999992021011501004+40650-074067FM-13+007299999V0200201N003619999999N999999999+00691+99999101071ADDMD1110191+9999OD159900461999REMSYN068ROBN4 46/// /0207 10069 40107 51019 90100 333 91209 555 11006 22007=
0108997743999992021011502004+40650-074067FM-13+007299999V0200301N003119999999N999999999+00641+99999101121ADDMD1210151+9999OD159900361999REMSYN068ROBN4 46/// /0306 10064 40112 52015 90200 333 91207 555 11006 22006=
0108997743999992021011503004+40650-074067FM-13+007299999V0203501N003619999999N999999999+00591+99999101191ADDMD1310171+9999OD159900461999REMSYN068ROBN4 46/// /3507 10059 40119 53017 90300 333 91209 555 11006 22007=
0108997743999992021011504004+40650-074067FM-13+007299999V0203401N003119999999N999999999+00531+99999101221ADDMD1110151+9999OD159900361999REMSYN068ROBN4 46/// /3406 10053 40122 51015 90400 333 91207 555 11006 22006=
0088997743999992021011505004+40650-074067FM-13+007299999V0203501N004119999999N999999999+00501+99999101241ADDOD159900461999REMSYN062ROBN4 46/// /3508 10050 40124 90442 333 91209 555 11008 22008=
0108997743999992021011506004+40650-074067FM-13+007299999V0200101N003619999999N999999999+00481+99999101221ADDMD1210031+9999OD159900411999REMSYN068ROBN4 46/// /0107 10048 40122 52003 90600 333 91208 555 11006 22007=
0088997743999992021011507004+40650-074067FM-13+007299999V0203501N002619999999N999999999+00481+99999101271ADDOD159900311999REMSYN062ROBN4 46/// /3505 10048 40127 90636 333 91206 555 11005 22005=
0088997743999992021011508004+40650-074067FM-13+007299999V0202901N002619999999N999999999+00391+99999101391ADDOD159900311999REMSYN062ROBN4 46/// /2905 10039 40139 90748 333 91206 555 11005 22005=
0108997743999992021011509004+40650-074067FM-13+007299999V0200101N003619999999N999999999+99999+99999101391ADDMD1210171+9999OD159900361999REMSYN068ROBN4 46/// /0107 1//// 40139 52017 90900 333 91207 555 11006 22007=
0088997743999992021011510004+40650-074067FM-13+007299999V0200501N007219999999N999999999+00461+99999101351ADDOD159900821999REMSYN062ROBN4 46/// /0514 10046 40135 90942 333 91216 555 11013 22014=
0108997743999992021011511004+40650-074067FM-13+007299999V0200801N004119999999N999999999+00441+99999101441ADDMD1310031+9999OD159900411999REMSYN068ROBN4 46/// /0808 10044 40144 53003 91100 333 91208 555 11007 22008=
0108997743999992021011512004+40650-074067FM-13+007299999V0200801N005719999999N999999999+00431+99999101431ADDMD1210041+9999OD159900721999REMSYN068ROBN4 46/// /0811 10043 40143 52004 91200 333 91214 555 11010 22011=
0108997743999992021011513004+40650-074067FM-13+007299999V0200901N007219999999N999999999+00361+99999101471ADDMD1110101+9999OD159900821999REMSYN068ROBN4 46/// /0914 10036 40147 51010 91300 333 91216 555 11013 22014=
0108997743999992021011514004+40650-074067FM-13+007299999V0200701N004119999999N999999999+00371+99999101611ADDMD1310171+9999OD159900461999REMSYN068ROBN4 46/// /0708 10037 40161 53017 91400 333 91209 555 11007 22008=
0108997743999992021011515004+40650-074067FM-13+007299999V0200701N005119999999N999999999+00501+99999101591ADDMD1110161+9999OD159900621999REMSYN068ROBN4 46/// /0710 10050 40159 51016 91500 333 91212 555 11009 22010=
0088997743999992021011516004+40650-074067FM-13+007299999V0200801N004119999999N999999999+00521+99999101581ADDOD159900671999REMSYN062ROBN4 46/// /0808 10052 40158 91536 333 91213 555 11008 22008=
0108997743999992021011517004+40650-074067FM-13+007299999V0200501N007219999999N999999999+00471+99999101451ADDMD1710161+9999OD159900771999REMSYN068ROBN4 46/// /0514 10047 40145 57016 91700 333 91215 555 11012 22014=
0108997743999992021011518004+40650-074067FM-13+007299999V0200501N007219999999N999999999+00491+99999101351ADDMD1710241+9999OD159900771999REMSYN068ROBN4 46/// /0514 10049 40135 57024 91800 333 91215 555 11013 22014=
0088997743999992021011519004+40650-074067FM-13+007299999V0200801N007219999999N999999999+00601+99999101251ADDOD159900881999REMSYN062ROBN4 46/// /0814 10060 40125 91854 333 91217 555 11013 22014=
0088997743999992021011520004+40650-074067FM-13+007299999V0201001N012419999999N999999999+00761+99999101231ADDOD159901391999REMSYN062ROBN4 46/// /1024 10076 40123 91942 333 91227 555 11022 22024=
0108997743999992021011521004+40650-074067FM-13+007299999V0201001N011819999999N999999999+00751+99999101201ADDMD1710151+9999OD159901491999REMSYN068ROBN4 46/// /1023 10075 40120 57015 92100 333 91229 555 11021 22023=
0108997743999992021011522004+40650-074067FM-13+007299999V0201001N009819999999N999999999+00761+99999101341ADDMD1210081+9999OD159901291999REMSYN068ROBN4 46/// /1019 10076 40134 52008 92200 333 91225 555 11018 22019=
0088997743999992021011523004+40650-074067FM-13+007299999V0201001N010819999999N999999999+00771+99999101271ADDOD159901391999REMSYN062ROBN4 46/// /1021 10077 40127 92236 333 91227 555 11019 22021=
0108997743999992021011600004+40650-074067FM-13+007299999V0201001N012919999999N999999999+00761+99999101141ADDMD1810061+9999OD159901491999REMSYN068ROBN4 46/// /1025 10076 40114 58006 90000 333 91229 555 11023 22025=
0108997743999992021011601004+40650-074067FM-13+007299999V0200901N012919999999N999999999+00761+99999101061ADDMD1610281+9999OD159901651999REMSYN068ROBN4 46/// /0925 10076 40106 56028 90100 333 91232 555 11022 22024=
0108997743999992021011602004+40650-074067FM-13+007299999V0200901N012919999999N999999999+00721+99999100851ADDMD1810361+9999OD159901751999REMSYN068ROBN4 46/// /0925 10072 40085 58036 90200 333 91234 555 11023 22025=
0108997743999992021011603004+40650-074067FM-13+007299999V0201001N013919999999N999999999+00671+99999100761ADDMD1810381+9999OD159901751999REMSYN068ROBN4 46/// /1027 10067 40076 58038 90300 333 91234 555 11025 22027=
0088997743999992021011604004+40650-074067FM-13+007299999V0201001N011819999999N999999999+00671+99999100711ADDOD159901651999REMSYN062ROBN4 46/// /1023 10067 40071 90342 333 91232 555 11021 22022=
0108997743999992021011605004+40650-074067FM-13+007299999V0201001N012919999999N999999999+00751+99999100581ADDMD1610271+9999OD159901491999REMSYN068ROBN4 46/// /1025 10075 40058 56027 90500 333 91229 555 11023 22025=
0108997743999992021011606004+40650-074067FM-13+007299999V0200901N012919999999N999999999+00801+99999100471ADDMD1710291+9999OD159901491999REMSYN068ROBN4 46/// /0925 10080 40047 57029 90600 333 91229 555 11023 22025=
0108997743999992021011607004+40650-074067FM-13+007299999V0202301N004119999999N999999999+00771+99999100511ADDMD1510141+9999OD159900721999REMSYN068ROBN4 46/// /2308 10077 40051 55014 90700 333 91214 555 11007 22008=
0108997743999992021011608004+40650-074067FM-13+007299999V0200501N007719999999N999999999+00651+99999100231ADDMD1810351+9999OD159901081999REMSYN068ROBN4 46/// /0515 10065 40023 58035 90800 333 91221 555 11013 22015=
0108997743999992021011609004+40650-074067FM-13+007299999V0200601N012419999999N999999999+00611+99999100081ADDMD1810391+9999OD159901391999REMSYN068ROBN4 46/// /0624 10061 40008 58039 90900 333 91227 555 11022 22024=
0088997743999992021011610004+40650-074067FM-13+007299999V0200501N011819999999N999999999+00491+99999100021ADDOD159901651999REMSYN062ROBN4 46/// /0523 10049 40002 90936 333 91232 555 11021 22022=
0088997743999992021011611004+40650-074067FM-13+007299999V0200301N004619999999N999999999+00571+99999099931ADDOD159900621999REMSYN062ROBN4 46/// /0309 10057 49993 91048 333 91212 555 11008 22009=
0088997743999992021011612004+40650-074067FM-13+007299999V0203001N005119999999N999999999+00561+99999099781ADDOD159900571999REMSYN062ROBN4 46/// /3010 10056 49978 91148 333 91211 555 11009 22010=
0088997743999992021011613004+40650-074067FM-13+007299999V0203301N003119999999N999999999+00541+99999099711ADDOD159900361999REMSYN062ROBN4 46/// /3306 10054 49971 91242 333 91207 555 11005 22006=
0088997743999992021011614004+40650-074067FM-13+007299999V0203201N004119999999N999999999+00531+99999099711ADDOD159900511999REMSYN062ROBN4 46/// /3208 10053 49971 91342 333 91210 555 11008 22008=
0088997743999992021011615004+40650-074067FM-13+007299999V0203001N002119999999N999999999+00581+99999099711ADDOD159900311999REMSYN062ROBN4 46/// /3004 10058 49971 91442 333 91206 555 11004 22004=
0088997743999992021011616004+40650-074067FM-13+007299999V0202801N004119999999N999999999+00641+99999099661ADDOD159900461999REMSYN062ROBN4 46/// /2808 10064 49966 91542 333 91209 555 11008 22008=
0088997743999992021011617004+40650-074067FM-13+007299999V0202501N008819999999N999999999+00741+99999099521ADDOD159901031999REMSYN062ROBN4 46/// /2517 10074 49952 91648 333 91220 555 11016 22017=
0108997743999992021011618004+40650-074067FM-13+007299999V0202601N006219999999N999999999+00761+99999099401ADDMD1810291+9999OD159900721999REMSYN068ROBN4 46/// /2612 10076 49940 58029 91800 333 91214 555 11011 22012=
0108997743999992021011619004+40650-074067FM-13+007299999V0202801N007219999999N999999999+00771+99999099401ADDMD1610211+9999OD159900881999REMSYN068ROBN4 46/// /2814 10077 49940 56021 91900 333 91217 555 11013 22014=
0108997743999992021011620004+40650-074067FM-13+007299999V0202801N008219999999N999999999+00751+99999099431ADDMD1510061+9999OD159901031999REMSYN068ROBN4 46/// /2816 10075 49943 55006 92000 333 91220 555 11014 22015=
0108997743999992021011621004+40650-074067FM-13+007299999V0202901N011319999999N999999999+00681+99999099471ADDMD1310071+9999OD159901291999REMSYN068ROBN4 46/// /2922 10068 49947 53007 92100 333 91225 555 11020 22022=
0108997743999992021011622004+40650-074067FM-13+007299999V0203001N008819999999N999999999+00651+99999099551ADDMD1310151+9999OD159901181999REMSYN068ROBN4 46/// /3017 10065 49955 53015 92200 333 91223 555 11016 22017=
0108997743999992021011623004+40650-074067FM-13+007299999V0203001N008219999999N999999999+99999+99999099631ADDMD1310201+9999OD159900981999REMSYN068ROBN4 46/// /3016 1//// 49963 53020 92300 333 91219 555 11014 22016=
0108997743999992021011700004+40650-074067FM-13+007299999V0203101N006719999999N999999999+00511+99999099691ADDMD1110221+9999OD159900821999REMSYN068ROBN4 46/// /3113 10051 49969 51022 90000 333 91216 555 11012 22013=
0088997743999992021011701004+40650-074067FM-13+007299999V0203001N006719999999N999999999+00491+99999099691ADDOD159900821999REMSYN062ROBN4 46/// /3013 10049 49969 90036 333 91216 555 11012 22013=
0108997743999992021011702004+40650-074067FM-13+007299999V0202801N005119999999N999999999+00441+99999099701ADDMD1110071+9999OD159900621999REMSYN068ROBN4 46/// /2810 10044 49970 51007 90200 333 91212 555 11009 22010=
0108997743999992021011703004+40650-074067FM-13+007299999V0202701N008219999999N999999999+00421+99999099681ADDMD1410001+9999OD159900931999REMSYN068ROBN4 46/// /2716 10042 49968 54000 90300 333 91218 555 11015 22016=
0108997743999992021011704004+40650-074067FM-13+007299999V0202801N009819999999N999999999+99999+99999099701ADDMD1410001+9999OD159901291999REMSYN068ROBN4 46/// /2819 1//// 49970 54000 90400 333 91225 555 11018 22019=
0108997743999992021011705004+40650-074067FM-13+007299999V0202701N010819999999N999999999+00341+99999099771ADDMD1310071+9999OD159901181999REMSYN068ROBN4 46/// /2721 10034 49977 53007 90500 333 91223 555 11019 22021=
0108997743999992021011706004+40650-074067FM-13+007299999V0202701N012419999999N999999999+00341+99999099861ADDMD1310181+9999OD159901541999REMSYN068ROBN4 46/// /2724 10034 49986 53018 90600 333 91230 555 11022 22024=
0108997743999992021011707004+40650-074067FM-13+007299999V0202701N007719999999N999999999+00321+99999099961ADDMD1310261+9999OD159900931999REMSYN068ROBN4 46/// /2715 10032 49996 53026 90700 333 91218 555 11013 22015=
0108997743999992021011708004+40650-074067FM-13+007299999V0202601N008219999999N999999999+00261+99999100031ADDMD1110261+9999OD159901081999REMSYN068ROBN4 46/// /2616 10026 40003 51026 90800 333 91221 555 11015 22016=
0108997743999992021011709004+40650-074067FM-13+007299999V0202601N009319999999N999999999+00261+99999100061ADDMD1110201+9999OD159901031999REMSYN068ROBN4 46/// /2618 10026 40006 51020 90900 333 91220 555 11016 22018=
0088997743999992021011710004+40650-074067FM-13+007299999V0202501N007219999999N999999999+00221+99999100091ADDOD159900981999REMSYN062ROBN4 46/// /2514 10022 40009 90936 333 91219 555 11013 22014=
0108997743999992021011711004+40650-074067FM-13+007299999V0202601N008819999999N999999999+00211+99999100211ADDMD1310181+9999OD159901031999REMSYN068ROBN4 46/// /2617 10021 40021 53018 91100 333 91220 555 11016 22017=
0108997743999992021011712004+40650-074067FM-13+007299999V0202601N009319999999N999999999+00231+99999100221ADDMD1110161+9999OD159901131999REMSYN068ROBN4 46/// /2618 10023 40022 51016 91200 333 91222 555 11017 22018=
0108997743999992021011713004+40650-074067FM-13+007299999V0202701N009319999999N999999999+00271+99999100251ADDMD1110141+9999OD159901031999REMSYN068ROBN4 46/// /2718 10027 40025 51014 91300 333 91220 555 11017 22018=
0108997743999992021011714004+40650-074067FM-13+007299999V0202601N013919999999N999999999+00301+99999100351ADDMD1310141+9999OD159901601999REMSYN068ROBN4 46/// /2627 10030 40035 53014 91400 333 91231 555 11025 22027=
0108997743999992021011715004+40650-074067FM-13+007299999V0202601N010319999999N999999999+00371+99999100401ADDMD1310181+9999OD159901291999REMSYN068ROBN4 46/// /2620 10037 40040 53018 91500 333 91225 555 11019 22020=
0108997743999992021011716004+40650-074067FM-13+007299999V0202701N013919999999N999999999+00451+99999100351ADDMD1990101+9999OD159901651999REMSYN068ROBN4 46/// /2727 10045 40035 50010 91600 333 91232 555 11024 22027=
0108997743999992021011717004+40650-074067FM-13+007299999V0202901N011819999999N999999999+00541+99999100281ADDMD1810071+9999OD159901391999REMSYN068ROBN4 46/// /2923 10054 40028 58007 91700 333 91227 555 11021 22023=
0108997743999992021011718004+40650-074067FM-13+007299999V0202901N010319999999N999999999+99999+99999100261ADDMD1610141+9999OD159901391999REMSYN068ROBN4 46/// /2920 1//// 40026 56014 91800 333 91227 555 11018 22020=
0108997743999992021011719004+40650-074067FM-13+007299999V0202901N011319999999N999999999+00621+99999100301ADDMD1510051+9999OD159901291999REMSYN068ROBN4 46/// /2922 10062 40030 55005 91900 333 91225 555 11020 22022=
0108997743999992021011720004+40650-074067FM-13+007299999V0202901N009319999999N999999999+00641+99999100351ADDMD1310071+9999OD159901181999REMSYN068ROBN4 46/// /2918 10064 40035 53007 92000 333 91223 555 11016 22017=
0108997743999992021011721004+40650-074067FM-13+007299999V0202801N008819999999N999999999+00641+99999100411ADDMD1310151+9999OD159901031999REMSYN068ROBN4 46/// /2817 10064 40041 53015 92100 333 91220 555 11016 22017=
0108997743999992021011722004+40650-074067FM-13+007299999V0202801N008819999999N999999999+00641+99999100511ADDMD1310211+9999OD159901081999REMSYN068ROBN4 46/// /2817 10064 40051 53021 92200 333 91221 555 11016 22017=
0108997743999992021011723004+40650-074067FM-13+007299999V0202801N009819999999N999999999+00641+99999100571ADDMD1210221+9999OD159901241999REMSYN068ROBN4 46/// /2819 10064 40057 52022 92300 333 91224 555 11017 22019=
0108997743999992021011800004+40650-074067FM-13+007299999V0202801N007719999999N999999999+00631+99999100631ADDMD1110221+9999OD159900981999REMSYN068ROBN4 46/// /2815 10063 40063 51022 90000 333 91219 555 11014 22015=
0108997743999992021011801004+40650-074067FM-13+007299999V0202601N006719999999N999999999+99999+99999100641ADDMD1110131+9999OD159900931999REMSYN068ROBN4 46/// /2613 1//// 40064 51013 90100 333 91218 555 11012 22013=
0108997743999992021011802004+40650-074067FM-13+007299999V0202501N005119999999N999999999+00581+99999100641ADDMD1110071+9999OD159900721999REMSYN068ROBN4 46/// /2510 10058 40064 51007 90200 333 91214 555 11009 22010=
0108997743999992021011803004+40650-074067FM-13+007299999V0202501N006219999999N999999999+00561+99999100651ADDMD1410001+9999OD159900721999REMSYN068ROBN4 46/// /2512 10056 40065 54000 90300 333 91214 555 11011 22012=
0108997743999992021011804004+40650-074067FM-13+007299999V0202301N004119999999N999999999+00551+99999100641ADDMD1410001+9999OD159900621999REMSYN068ROBN4 46/// /2308 10055 40064 54000 90400 333 91212 555 11007 22008=
0108997743999992021011805004+40650-074067FM-13+007299999V0202101N005119999999N999999999+00551+99999100581ADDMD1810061+9999OD159900671999REMSYN068ROBN4 46/// /2110 10055 40058 58006 90500 333 91213 555 11009 22010=
0108997743999992021011806004+40650-074067FM-13+007299999V0202301N005719999999N999999999+00521+99999100561ADDMD1710091+9999OD159900721999REMSYN068ROBN4 46/// /2311 10052 40056 57009 90600 333 91214 555 11010 22011=
0108997743999992021011807004+40650-074067FM-13+007299999V0202401N005119999999N999999999+00471+99999100571ADDMD1610071+9999OD159900621999REMSYN068ROBN4 46/// /2410 10047 40057 56007 90700 333 91212 555 11009 22010=
0108997743999992021011808004+40650-074067FM-13+007299999V0202401N005119999999N999999999+00451+99999100581ADDMD1410001+9999OD159900621999REMSYN068ROBN4 46/// /2410 10045 40058 54000 90800 333 91212 555 11009 22010=
0108997743999992021011809004+40650-074067FM-13+007299999V0202601N005119999999N999999999+00431+99999100571ADDMD1410001+9999OD159900621999REMSYN068ROBN4 46/// /2610 10043 40057 54000 90900 333 91212 555 11009 22010=
0108997743999992021011810004+40650-074067FM-13+007299999V0202701N003619999999N999999999+00401+99999100571ADDMD1410001+9999OD159900511999REMSYN068ROBN4 46/// /2707 10040 40057 54000 91000 333 91210 555 11007 22007=
0108997743999992021011811004+40650-074067FM-13+007299999V0202501N003119999999N999999999+00341+99999100571ADDMD1410001+9999OD159900361999REMSYN068ROBN4 46/// /2506 10034 40057 54000 91100 333 91207 555 11006 22006=
0088997743999992021011812004+40650-074067FM-13+007299999V0202601N004619999999N999999999+00341+99999100591ADDOD159900571999REMSYN062ROBN4 46/// /2609 10034 40059 91142 333 91211 555 11008 22009=
0108997743999992021011813004+40650-074067FM-13+007299999V0202501N005119999999N999999999+00341+99999100641ADDMD1210071+9999OD159900621999REMSYN068ROBN4 46/// /2510 10034 40064 52007 91300 333 91212 555 11009 22010=
0088997743999992021011814004+40650-074067FM-13+007299999V0202701N007219999999N999999999+00451+99999100731ADDOD159900981999REMSYN062ROBN4 46/// /2714 10045 40073 91430 333 91219 555 11013 22014=
0088997743999992021011815004+40650-074067FM-13+007299999V0202701N007719999999N999999999+00451+99999100731ADDOD159900931999REMSYN062ROBN4 46/// /2715 10045 40073 91436 333 91218 555 11013 22015=
0108997743999992021011816004+40650-074067FM-13+007299999V0202701N010319999999N999999999+00561+99999100691ADDMD1990051+9999OD159901241999REMSYN068ROBN4 46/// /2720 10056 40069 50005 91600 333 91224 555 11018 22020=
0108997743999992021011817004+40650-074067FM-13+007299999V0202701N008819999999N999999999+00611+99999100601ADDMD1810111+9999OD159901081999REMSYN068ROBN4 46/// /2717 10061 40060 58011 91700 333 91221 555 11015 22016=
0088997743999992021011818004+40650-074067FM-13+007299999V0203001N008219999999N999999999+00601+99999100551ADDOD159901131999REMSYN062ROBN4 46/// /3016 10060 40055 91736 333 91222 555 11015 22016=
0088997743999992021011819004+40650-074067FM-13+007299999V0202801N010319999999N999999999+00611+99999100551ADDOD159901181999REMSYN062ROBN4 46/// /2820 10061 40055 91836 333 91223 555 11018 22020=
0108997743999992021011820004+40650-074067FM-13+007299999V0202901N011819999999N999999999+00601+99999100621ADDMD1510001+9999OD159901391999REMSYN068ROBN4 46/// /2923 10060 40062 55000 92000 333 91227 555 11021 22023=
0108997743999992021011821004+40650-074067FM-13+007299999V0203001N009819999999N999999999+00641+99999100721ADDMD1310191+9999OD159901241999REMSYN068ROBN4 46/// /3019 10064 40072 53019 92100 333 91224 555 11017 22019=
0108997743999992021011822004+40650-074067FM-13+007299999V0202901N009319999999N999999999+00601+99999100831ADDMD1310271+9999OD159901081999REMSYN068ROBN4 46/// /2918 10060 40083 53027 92200 333 91221 555 11017 22018=
0088997743999992021011823004+40650-074067FM-13+007299999V0202801N006719999999N999999999+00571+99999100961ADDOD159900821999REMSYN062ROBN4 46/// /2813 10057 40096 92242 333 91216 555 11012 22013=
0108997743999992021011900004+40650-074067FM-13+007299999V0203101N006219999999N999999999+00491+99999101091ADDMD1110371+9999OD159900881999REMSYN068ROBN4 46/// /3112 10049 40109 51037 90000 333 91217 555 11011 22012=
0088997743999992021011901004+40650-074067FM-13+007299999V0203101N004619999999N999999999+00471+99999101171ADDOD159900571999REMSYN062ROBN4 46/// /3109 10047 40117 90042 333 91211 555 11008 22009=
0108997743999992021011902004+40650-074067FM-13+007299999V0202801N005719999999N999999999+00431+99999101261ADDMD1210261+9999OD159900771999REMSYN068ROBN4 46/// /2811 10043 40126 52026 90200 333 91215 555 11010 22011=
0108997743999992021011903004+40650-074067FM-13+007299999V0202801N008219999999N999999999+00361+99999101311ADDMD1210221+9999OD159900981999REMSYN068ROBN4 46/// /2816 10036 40131 52022 90300 333 91219 555 11015 22016=
0088997743999992021011904004+40650-074067FM-13+007299999V0202701N007219999999N999999999+00331+99999101371ADDOD159900931999REMSYN062ROBN4 46/// /2714 10033 40137 90336 333 91218 555 11013 22014=
0108997743999992021011905004+40650-074067FM-13+007299999V0202601N008819999999N999999999+00221+99999101421ADDMD1110161+9999OD159901031999REMSYN068ROBN4 46/// /2617 10022 40142 51016 90500 333 91220 555 11016 22017=
0108997743999992021011906004+40650-074067FM-13+007299999V0202801N008819999999N999999999+00191+99999101461ADDMD1110151+9999OD159901131999REMSYN068ROBN4 46/// /2817 10019 40146 51015 90600 333 91222 555 11015 22017=
0108997743999992021011907004+40650-074067FM-13+007299999V0202601N006219999999N999999999+00171+99999101511ADDMD1310111+9999OD159900721999REMSYN068ROBN4 46/// /2612 10017 40151 53011 90700 333 91214 555 11011 22012=
0108997743999992021011908004+40650-074067FM-13+007299999V0202601N006219999999N999999999+00161+99999101531ADDMD1110111+9999OD159900721999REMSYN068ROBN4 46/// /2612 10016 40153 51011 90800 333 91214 555 11011 22012=
0088997743999992021011909004+40650-074067FM-13+007299999V0202601N005719999999N999999999+00171+99999101581ADDOD159900571999REMSYN062ROBN4 46/// /2611 10017 40158 90848 333 91211 555 11010 22010=
0108997743999992021011910004+40650-074067FM-13+007299999V0202501N005719999999N999999999+00201+99999101641ADDMD1210131+9999OD159900721999REMSYN068ROBN4 46/// /2511 10020 40164 52013 91000 333 91214 555 11010 22011=
0108997743999992021011911004+40650-074067FM-13+007299999V0202701N005719999999N999999999+00191+99999101721ADDMD1210191+9999OD159900671999REMSYN068ROBN4 46/// /2711 10019 40172 52019 91100 333 91213 555 11010 22010=
0088997743999992021011912004+40650-074067FM-13+007299999V0202501N006719999999N999999999+00141+99999101751ADDOD159900771999REMSYN062ROBN4 46/// /2513 10014 40175 91142 333 91215 555 11012 22013=
0108997743999992021011913004+40650-074067FM-13+007299999V0202601N008219999999N999999999+00151+99999101801ADDMD1210161+9999OD159900981999REMSYN068ROBN4 46/// /2616 10015 40180 52016 91300 333 91219 555 11014 22016=
0108997743999992021011914004+40650-074067FM-13+007299999V0202701N008219999999N999999999+00251+99999101821ADDMD1210101+9999OD159901031999REMSYN068ROBN4 46/// /2716 10025 40182 52010 91400 333 91220 555 11015 22016=
0088997743999992021011915004+40650-074067FM-13+007299999V0202801N009819999999N999999999+00291+99999101831ADDOD159901081999REMSYN062ROBN4 46/// /2819 10029 40183 91442 333 91221 555 11017 22018=
0108997743999992021011916004+40650-074067FM-13+007299999V0203001N008819999999N999999999+00381+99999101831ADDMD1210031+9999OD159901241999REMSYN068ROBN4 46/// /3017 10038 40183 52003 91600 333 91224 555 11016 22017=
0088997743999992021011917004+40650-074067FM-13+007299999V0202901N009819999999N999999999+00411+99999101741ADDOD159901391999REMSYN062ROBN4 46/// /2919 10041 40174 91636 333 91227 555 11017 22019=
0108997743999992021011918004+40650-074067FM-13+007299999V0202801N012419999999N999999999+00431+99999101661ADDMD1710161+9999OD159901391999REMSYN068ROBN4 46/// /2824 10043 40166 57016 91800 333 91227 555 11022 22024=
0108997743999992021011919004+40650-074067FM-13+007299999V0202801N010319999999N999999999+00401+99999101681ADDMD1710151+9999OD159901291999REMSYN068ROBN4 46/// /2820 10040 40168 57015 91900 333 91225 555 11019 22020=
0088997743999992021011920004+40650-074067FM-13+007299999V0202701N009819999999N999999999+00441+99999101691ADDOD159901241999REMSYN062ROBN4 46/// /2719 10044 40169 91936 333 91224 555 11017 22019=
0108997743999992021011921004+40650-074067FM-13+007299999V0202801N012419999999N999999999+00431+99999101801ADDMD1310141+9999OD159901441999REMSYN068ROBN4 46/// /2824 10043 40180 53014 92100 333 91228 555 11022 22024=
0108997743999992021011922004+40650-074067FM-13+007299999V0202801N007719999999N999999999+00421+99999101851ADDMD1310171+9999OD159900981999REMSYN068ROBN4 46/// /2815 10042 40185 53017 92200 333 91219 555 11014 22015=
0088997743999992021011923004+40650-074067FM-13+007299999V0202901N005719999999N999999999+00401+99999101881ADDOD159900771999REMSYN062ROBN4 46/// /2911 10040 40188 92242 333 91215 555 11010 22011=
0108997743999992021012000004+40650-074067FM-13+007299999V0202501N003119999999N999999999+00381+99999101931ADDMD1110131+9999OD159900361999REMSYN068ROBN4 46/// /2506 10038 40193 51013 90000 333 91207 555 11005 22006=
0108997743999992021012001004+40650-074067FM-13+007299999V0202401N002119999999N999999999+00361+99999101941ADDMD1110091+9999OD159900261999REMSYN068ROBN4 46/// /2404 10036 40194 51009 90100 333 91205 555 11004 22004=
0108997743999992021012002004+40650-074067FM-13+007299999V0202701N002119999999N999999999+00311+99999101901ADDMD1990001+9999OD159900261999REMSYN068ROBN4 46/// /2704 10031 40190 50000 90200 333 91205 555 11004 22004=
0108997743999992021012003004+40650-074067FM-13+007299999V0202401N002619999999N999999999+00281+99999101861ADDMD1810071+9999OD159900311999REMSYN068ROBN4 46/// /2405 10028 40186 58007 90300 333 91206 555 11004 22005=
0108997743999992021012004004+40650-074067FM-13+007299999V0202801N003619999999N999999999+00311+99999101791ADDMD1810151+9999OD159900461999REMSYN068ROBN4 46/// /2807 10031 40179 58015 90400 333 91209 555 11006 22007=
0088997743999992021012005004+40650-074067FM-13+007299999V0202501N003619999999N999999999+00301+99999101751ADDOD159900411999REMSYN062ROBN4 46/// /2507 10030 40175 90448 333 91208 555 11006 22007=
0108997743999992021012006004+40650-074067FM-13+007299999V0202701N002619999999N999999999+00251+99999101611ADDMD1810251+9999OD159900311999REMSYN068ROBN4 46/// /2705 10025 40161 58025 90600 333 91206 555 11004 22005=
0088997743999992021012007004+40650-074067FM-13+007299999V0202201N001019999999N999999999+00291+99999101531ADDOD159900151999REMSYN062ROBN4 46/// /2202 10029 40153 90642 333 91203 555 11001 22002=
0108997743999992021012008004+40650-074067FM-13+007299999V0202001N003619999999N999999999+00311+99999101391ADDMD1810351+9999OD159900411999REMSYN068ROBN4 46/// /2007 10031 40139 58035 90800 333 91208 555 11006 22007=
0108997743999992021012009004+40650-074067FM-13+007299999V0202401N003619999999N999999999+00361+99999101271ADDMD1810341+9999OD159900511999REMSYN068ROBN4 46/// /2407 10036 40127 58034 90900 333 91210 555 11007 22007=
0108997743999992021012010004+40650-074067FM-13+007299999V0203001N002119999999N999999999+00271+99999101181ADDMD1610351+9999OD159900311999REMSYN068ROBN4 46/// /3004 10027 40118 56035 91000 333 91206 555 11003 22004=
0108997743999992021012011004+40650-074067FM-13+007299999V0202701N001519999999N999999999+00311+99999101171ADDMD1610221+9999OD159900211999REMSYN068ROBN4 46/// /2703 10031 40117 56022 91100 333 91204 555 11002 22003=
0108997743999992021012012004+40650-074067FM-13+007299999V0202801N006719999999N999999999+00071+99999101231ADDMD1510041+9999OD159900931999REMSYN068ROBN4 46/// /2813 10007 40123 55004 91200 333 91218 555 11012 22013=
0108997743999992021012013004+40650-074067FM-13+007299999V0202501N003619999999N999999999+00041+99999101181ADDMD1990001+9999OD159900461999REMSYN068ROBN4 46/// /2507 10004 40118 50000 91300 333 91209 555 11007 22007=
0088997743999992021012014004+40650-074067FM-13+007299999V0202601N003619999999N999999999+00071+99999101201ADDOD159900411999REMSYN062ROBN4 46/// /2607 10007 40120 91336 333 91208 555 11006 22007=
0088997743999992021012015004+40650-074067FM-13+007299999V0202901N004619999999N999999999+00121+99999101231ADDOD159900571999REMSYN062ROBN4 46/// /2909 10012 40123 91436 333 91211 555 11008 22009=
0108997743999992021012016004+40650-074067FM-13+007299999V0203101N012419999999N999999999+00351+99999101191ADDMD1990001+9999OD159901491999REMSYN068ROBN4 46/// /3124 10035 40119 50000 91600 333 91229 555 11022 22024=
0108997743999992021012017004+40650-074067FM-13+007299999V0203201N012419999999N999999999+00271+99999101201ADDMD1410001+9999OD159901541999REMSYN068ROBN4 46/// /3224 10027 40120 54000 91700 333 91230 555 11022 22024=
0108997743999992021012018004+40650-074067FM-13+007299999V0203301N012419999999N999999999+00311+99999101181ADDMD1610041+9999OD159901491999REMSYN068ROBN4 46/// /3324 10031 40118 56004 91800 333 91229 555 11022 22023=
0088997743999992021012019004+40650-074067FM-13+007299999V0203201N011819999999N999999999+00301+99999101221ADDOD159901491999REMSYN062ROBN4 46/// /3223 10030 40122 91836 333 91229 555 11021 22023=
0108997743999992021012200004+40650-074067FM-13+007299999V0202001N003119999999N999999999+00451+99999100371ADDMD1210041+9999OD159900361999REMSYN068ROBN4 46/// /2006 10045 40037 52004 90000 333 91207 555 11005 22006=
0108997743999992021012201004+40650-074067FM-13+007299999V0201601N002619999999N999999999+00401+99999100341ADDMD1990001+9999OD159900311999REMSYN068ROBN4 46/// /1605 10040 40034 50000 90100 333 91206 555 11004 22005=
0108997743999992021012202004+40650-074067FM-13+007299999V0201901N003119999999N999999999+00361+99999100341ADDMD1410001+9999OD159900311999REMSYN068ROBN4 46/// /1906 10036 40034 54000 90200 333 91206 555 11005 22006=
0108997743999992021012203004+40650-074067FM-13+007299999V0201901N001519999999N999999999+00351+99999100331ADDMD1610041+9999OD159900151999REMSYN068ROBN4 46/// /1903 10035 40033 56004 90300 333 91203 555 11003 22003=
0108997743999992021012204004+40650-074067FM-13+007299999V0202301N003119999999N999999999+00381+99999100331ADDMD1410001+9999OD159900461999REMSYN068ROBN4 46/// /2306 10038 40033 54000 90400 333 91209 555 11006 22006=
0088997743999992021012205004+40650-074067FM-13+007299999V0202701N003119999999N999999999+00371+99999100281ADDOD159900411999REMSYN062ROBN4 46/// /2706 10037 40028 90436 333 91208 555 11006 22006=
0108997743999992021012206004+40650-074067FM-13+007299999V0202601N005119999999N999999999+00321+99999100251ADDMD1710081+9999OD159900621999REMSYN068ROBN4 46/// /2610 10032 40025 57008 90600 333 91212 555 11009 22010=
0108997743999992021012207004+40650-074067FM-13+007299999V0202601N007219999999N999999999+00291+99999100261ADDMD1710071+9999OD159900881999REMSYN068ROBN4 46/// /2614 10029 40026 57007 90700 333 91217 555 11013 22014=
0088997743999992021012208004+40650-074067FM-13+007299999V0202601N007219999999N999999999+99999+99999100271ADDOD159900821999REMSYN062ROBN4 46/// /2614 1//// 40027 90754 333 91216 555 11013 22014=
0108997743999992021012209004+40650-074067FM-13+007299999V0202601N006219999999N999999999+00291+99999100311ADDMD1310061+9999OD159900771999REMSYN068ROBN4 46/// /2612 10029 40031 53006 90900 333 91215 555 11011 22012=
0108997743999992021012210004+40650-074067FM-13+007299999V0202601N008219999999N999999999+00311+99999100321ADDMD1210061+9999OD159900931999REMSYN068ROBN4 46/// /2616 10031 40032 52006 91000 333 91218 555 11014 22016=
0108997743999992021012211004+40650-074067FM-13+007299999V0202601N006219999999N999999999+00291+99999100391ADDMD1310121+9999OD159900671999REMSYN068ROBN4 46/// /2612 10029 40039 53012 91100 333 91213 555 11011 22011=
0108997743999992021012212004+40650-074067FM-13+007299999V0202501N006719999999N999999999+00281+99999100431ADDMD1310121+9999OD159900721999REMSYN068ROBN4 46/// /2513 10028 40043 53012 91200 333 91214 555 11012 22013=
0108997743999992021012213004+40650-074067FM-13+007299999V0202501N007219999999N999999999+99999+99999100471ADDMD1110151+9999OD159900821999REMSYN068ROBN4 46/// /2514 1//// 40047 51015 91300 333 91216 555 11013 22014=
