0389999999137242021010104596+39378-074424SOD  +000355N  V030999999999999999999999999999+99999+99999999999ADDAA124000095KA1240M+01225KA2240N+00395OE1124999999999999AOE22240089423099995OE33240044399999995REMSOD28324 HR PRECIPITATION (IN): 0.00 24 HR MAX TEMP (F): 5424 HR MIN TEMP (F): 39 FASTEST 2MIN SPEED (MPH): 20FASTEST 2MIN DIR (DEG):230 FASTEST 2MIN TIME (LST):     AVERAGE WIND SPEED (MPH): 9.9 24 HR AVG TEMP (F): 47DEPART FROM NORMAL: 10  HEATING DEGREE DAYS: 18 COOLING DEGREE DAYS:  0
0128999999137242021010104596+39378-074424SOM  +000355N  V030999999999999999999999999999+99999+99999999999ADDAD1004959161699999999IAE109I08I04I02IKB1240N+0200IKB2240M+0894IKB3240A+0550IKC1N9-0044199999IKC2M9+0183139999IKE100I00I13I00I
0408999999137242021010204596+39378-074424SOD  +000355N  V030999999999999999999999999999+99999+99999999999ADDAA12401689AKA1240M+00835KA2240N+00065OE1124999999999999AOE22240071509099995OE33240036299999995REMSOD28324 HR PRECIPITATION (IN): 0.66 24 HR MAX TEMP (F): 4724 HR MIN TEMP (F): 33 FASTEST 2MIN SPEED (MPH): 16FASTEST 2MIN DIR (DEG): 90 FASTEST 2MIN TIME (LST):     AVERAGE WIND SPEED (MPH): 8.1 24 HR AVG TEMP (F): 40DEPART FROM NORMAL:  3  HEATING DEGREE DAYS: 25 COOLING DEGREE DAYS:  0EQDR01  0.667AAP092
0408999999137242021010304596+39378-074424SOD  +000355N  V030999999999999999999999999999+99999+99999999999ADDAA12400089AKA1240M+01285KA2240N+00505OE1124999999999999AOE22240080529099995OE33240040299999995REMSOD28324 HR PRECIPITATION (IN): 0.03 24 HR MAX TEMP (F): 5524 HR MIN TEMP (F): 41 FASTEST 2MIN SPEED (MPH): 18FASTEST 2MIN DIR (DEG):290 FASTEST 2MIN TIME (LST):     AVERAGE WIND SPEED (MPH): 9.0 24 HR AVG TEMP (F): 48DEPART FROM NORMAL: 12  HEATING DEGREE DAYS: 17 COOLING DEGREE DAYS:  0EQDR01  0.037AAP092
0408999999137242021010404596+39378-074424SOD  +000355N  V030999999999999999999999999999+99999+99999999999ADDAA12401129AKA1240M+00895KA2240N+00335OE1124999999999999AOE22240089409099995OE33240039399999995REMSOD28324 HR PRECIPITATION (IN): 0.44 24 HR MAX TEMP (F): 4824 HR MIN TEMP (F): 38 FASTEST 2MIN SPEED (MPH): 20FASTEST 2MIN DIR (DEG): 90 FASTEST 2MIN TIME (LST):     AVERAGE WIND SPEED (MPH): 8.8 24 HR AVG TEMP (F): 43DEPART FROM NORMAL:  7  HEATING DEGREE DAYS: 22 COOLING DEGREE DAYS:  0EQDR01  0.447AAP092
0408999999137242021010504596+39378-074424SOD  +000355N  V030999999999999999999999999999+99999+99999999999ADDAA12400059AKA1240M+00675KA2240N+00285OE1124999999999999AOE22240044733099995OE33240022899999995REMSOD28324 HR PRECIPITATION (IN): 0.02 24 HR MAX TEMP (F): 4424 HR MIN TEMP (F): 37 FASTEST 2MIN SPEED (MPH): 10FASTEST 2MIN DIR (DEG):330 FASTEST 2MIN TIME (LST):     AVERAGE WIND SPEED (MPH): 5.1 24 HR AVG TEMP (F): 41DEPART FROM NORMAL:  5  HEATING DEGREE DAYS: 24 COOLING DEGREE DAYS:  0EQDR01  0.027AAP092
0389999999137242021010604596+39378-074424SOD  +000355N  V030999999999999999999999999999+99999+99999999999ADDAA124000095KA1240M+00505KA2240N+00335OE1124999999999999AOE22240040233099995OE33240021099999995REMSOD28324 HR PRECIPITATION (IN): 0.00 24 HR MAX TEMP (F): 4124 HR MIN TEMP (F): 38 FASTEST 2MIN SPEED (MPH):  9FASTEST 2MIN DIR (DEG):330 FASTEST 2MIN TIME (LST):     AVERAGE WIND SPEED (MPH): 4.7 24 HR AVG TEMP (F): 40DEPART FROM NORMAL:  4  HEATING DEGREE DAYS: 25 COOLING DEGREE DAYS:  0
0389999999137242021010704596+39378-074424SOD  +000355N  V030999999999999999999999999999+99999+99999999999ADDAA124000095KA1240M+00615KA2240N+00175OE1124999999999999AOE22240089433099995OE33240042599999995REMSOD28324 HR PRECIPITATION (IN): 0.00 24 HR MAX TEMP (F): 4324 HR MIN TEMP (F): 35 FASTEST 2MIN SPEED (MPH): 20FASTEST 2MIN DIR (DEG):330 FASTEST 2MIN TIME (LST):     AVERAGE WIND SPEED (MPH): 9.5 24 HR AVG TEMP (F): 39DEPART FROM NORMAL:  3  HEATING DEGREE DAYS: 26 COOLING DEGREE DAYS:  0
0389999999137242021010804596+39378-074424SOD  +000355N  V030999999999999999999999999999+99999+99999999999ADDAA124000095KA1240M+00675KA2240N+00065OE1124999999999999AOE22240076033099995OE33240038499999995REMSOD28324 HR PRECIPITATION (IN): 0.00 24 HR MAX TEMP (F): 4424 HR MIN TEMP (F): 33 FASTEST 2MIN SPEED (MPH): 17FASTEST 2MIN DIR (DEG):330 FASTEST 2MIN TIME (LST):     AVERAGE WIND SPEED (MPH): 8.6 24 HR AVG TEMP (F): 39DEPART FROM NORMAL:  3  HEATING DEGREE DAYS: 26 COOLING DEGREE DAYS:  0
0389999999137242021010904596+39378-074424SOD  +000355N  V030999999999999999999999999999+99999+99999999999ADDAA124000095KA1240M+00175KA2240N-00105OE1124999999999999AOE22240035804099995OE33240020699999995REMSOD28324 HR PRECIPITATION (IN): 0.00 24 HR MAX TEMP (F): 3524 HR MIN TEMP (F): 30 FASTEST 2MIN SPEED (MPH):  8FASTEST 2MIN DIR (DEG): 40 FASTEST 2MIN TIME (LST):     AVERAGE WIND SPEED (MPH): 4.6 24 HR AVG TEMP (F): 33DEPART FROM NORMAL: -3  HEATING DEGREE DAYS: 32 COOLING DEGREE DAYS:  0
0389999999137242021011004596+39378-074424SOD  +000355N  V030999999999999999999999999999+99999+99999999999ADDAA124000095KA1240M+00395KA2240N-00215OE1124999999999999AOE22240071533099995OE33240033599999995REMSOD28324 HR PRECIPITATION (IN): 0.00 24 HR MAX TEMP (F): 3924 HR MIN TEMP (F): 28 FASTEST 2MIN SPEED (MPH): 16FASTEST 2MIN DIR (DEG):330 FASTEST 2MIN TIME (LST):     AVERAGE WIND SPEED (MPH): 7.5 24 HR AVG TEMP (F): 34DEPART FROM NORMAL: -2  HEATING DEGREE DAYS: 31 COOLING DEGREE DAYS:  0
0389999999137242021011104596+39378-074424SOD  +000355N  V030999999999999999999999999999+99999+99999999999ADDAA124000095KA1240M+00785KA2240N+00005OE1124999999999999AOE22240053633099995OE33240024699999995REMSOD28324 HR PRECIPITATION (IN): 0.00 24 HR MAX TEMP (F): 4624 HR MIN TEMP (F): 32 FASTEST 2MIN SPEED (MPH): 12FASTEST 2MIN DIR (DEG):330 FASTEST 2MIN TIME (LST):     AVERAGE WIND SPEED (MPH): 5.5 24 HR AVG TEMP (F): 39DEPART FROM NORMAL:  3  HEATING DEGREE DAYS: 26 COOLING DEGREE DAYS:  0
0389999999137242021011204596+39378-074424SOD  +000355N  V030999999999999999999999999999+99999+99999999999ADDAA124000095KA1240M+00675KA2240N-00055OE1124999999999999AOE22240053622099995OE33240019799999995REMSOD28324 HR PRECIPITATION (IN): 0.00 24 HR MAX TEMP (F): 4424 HR MIN TEMP (F): 31 FASTEST 2MIN SPEED (MPH): 12FASTEST 2MIN DIR (DEG):220 FASTEST 2MIN TIME (LST):     AVERAGE WIND SPEED (MPH): 4.4 24 HR AVG TEMP (F): 38DEPART FROM NORMAL:  2  HEATING DEGREE DAYS: 27 COOLING DEGREE DAYS:  0
0389999999137242021011304596+39378-074424SOD  +000355N  V030999999999999999999999999999+99999+99999999999ADDAA124000095KA1240M+00785KA2240N+00115OE1124999999999999AOE22240049228099995OE33240022499999995REMSOD28324 HR PRECIPITATION (IN): 0.00 24 HR MAX TEMP (F): 4624 HR MIN TEMP (F): 34 FASTEST 2MIN SPEED (MPH): 11FASTEST 2MIN DIR (DEG):280 FASTEST 2MIN TIME (LST):     AVERAGE WIND SPEED (MPH): 5.0 24 HR AVG TEMP (F): 40DEPART FROM NORMAL:  5  HEATING DEGREE DAYS: 25 COOLING DEGREE DAYS:  0
0389999999137242021011404596+39378-074424SOD  +000355N  V030999999999999999999999999999+99999+99999999999ADDAA124000095KA1240M+00725KA2240N+00005OE1124999999999999AOE22240049223099995OE33240027799999995REMSOD28324 HR PRECIPITATION (IN): 0.00 24 HR MAX TEMP (F): 4524 HR MIN TEMP (F): 32 FASTEST 2MIN SPEED (MPH): 11FASTEST 2MIN DIR (DEG):230 FASTEST 2MIN TIME (LST):     AVERAGE WIND SPEED (MPH): 6.2 24 HR AVG TEMP (F): 39DEPART FROM NORMAL:  4  HEATING DEGREE DAYS: 26 COOLING DEGREE DAYS:  0
0389999999137242021011504596+39378-074424SOD  +000355N  V030999999999999999999999999999+99999+99999999999ADDAA124000095KA1240M+00785KA2240N+00395OE1124999999999999AOE22240040222099995OE33240014399999995REMSOD28324 HR PRECIPITATION (IN): 0.00 24 HR MAX TEMP (F): 4624 HR MIN TEMP (F): 39 FASTEST 2MIN SPEED (MPH):  9FASTEST 2MIN DIR (DEG):220 FASTEST 2MIN TIME (LST):     AVERAGE WIND SPEED (MPH): 3.2 24 HR AVG TEMP (F): 43DEPART FROM NORMAL:  8  HEATING DEGREE DAYS: 22 COOLING DEGREE DAYS:  0
0408999999137242021011604596+39378-074424SOD  +000355N  V030999999999999999999999999999+99999+99999999999ADDAA12400419AKA1240M+01175KA2240N+00285OE1124999999999999AOE22240058111099995OE33240031399999995REMSOD28324 HR PRECIPITATION (IN): 0.16 24 HR MAX TEMP (F): 5324 HR MIN TEMP (F): 37 FASTEST 2MIN SPEED (MPH): 13FASTEST 2MIN DIR (DEG):110 FASTEST 2MIN TIME (LST):     AVERAGE WIND SPEED (MPH): 7.0 24 HR AVG TEMP (F): 45DEPART FROM NORMAL: 10  HEATING DEGREE DAYS: 20 COOLING DEGREE DAYS:  0EQDR01  0.167AAP092
0408999999137242021011704596+39378-074424SOD  +000355N  V030999999999999999999999999999+99999+99999999999ADDAA12401179AKA1240M+01005KA2240N+00335OE1124999999999999AOE22240080526099995OE33240040299999995REMSOD28324 HR PRECIPITATION (IN): 0.46 24 HR MAX TEMP (F): 5024 HR MIN TEMP (F): 38 FASTEST 2MIN SPEED (MPH): 18FASTEST 2MIN DIR (DEG):260 FASTEST 2MIN TIME (LST):     AVERAGE WIND SPEED (MPH): 9.0 24 HR AVG TEMP (F): 44DEPART FROM NORMAL:  9  HEATING DEGREE DAYS: 21 COOLING DEGREE DAYS:  0EQDR01  0.467AAP092
0389999999137242021011804596+39378-074424SOD  +000355N  V030999999999999999999999999999+99999+99999999999ADDAA124000095KA1240M+00785KA2240N+00175OE1124999999999999AOE22240080527099995OE33240055999999995REMSOD28324 HR PRECIPITATION (IN): 0.00 24 HR MAX TEMP (F): 4624 HR MIN TEMP (F): 35 FASTEST 2MIN SPEED (MPH): 18FASTEST 2MIN DIR (DEG):270 FASTEST 2MIN TIME (LST):     AVERAGE WIND SPEED (MPH):12.5 24 HR AVG TEMP (F): 41DEPART FROM NORMAL:  6  HEATING DEGREE DAYS: 24 COOLING DEGREE DAYS:  0
0389999999137242021011904596+39378-074424SOD  +000355N  V030999999999999999999999999999+99999+99999999999ADDAA124000095KA1240M+00785KA2240N+00225OE1124999999999999AOE22240080529099995OE33240044399999995REMSOD28324 HR PRECIPITATION (IN): 0.00 24 HR MAX TEMP (F): 4624 HR MIN TEMP (F): 36 FASTEST 2MIN SPEED (MPH): 18FASTEST 2MIN DIR (DEG):290 FASTEST 2MIN TIME (LST):     AVERAGE WIND SPEED (MPH): 9.9 24 HR AVG TEMP (F): 41DEPART FROM NORMAL:  6  HEATING DEGREE DAYS: 24 COOLING DEGREE DAYS:  0
0389999999137242021012004596+39378-074424SOD  +000355N  V030999999999999999999999999999+99999+99999999999ADDAA124000095KA1240M+00785KA2240N+00065OE1124999999999999AOE22240089429099995OE33240046599999995REMSOD28324 HR PRECIPITATION (IN): 0.00 24 HR MAX TEMP (F): 4624 HR MIN TEMP (F): 33 FASTEST 2MIN SPEED (MPH): 20FASTEST 2MIN DIR (DEG):290 FASTEST 2MIN TIME (LST):     AVERAGE WIND SPEED (MPH):10.4 24 HR AVG TEMP (F): 40DEPART FROM NORMAL:  5  HEATING DEGREE DAYS: 25 COOLING DEGREE DAYS:  0
0389999999137242021012104596+39378-074424SOD  +000355N  V030999999999999999999999999999+99999+99999999999ADDAA124000095KA1240M+00565KA2240N-00055OE1124999999999999AOE22240102833099995OE33240038999999995REMSOD28324 HR PRECIPITATION (IN): 0.00 24 HR MAX TEMP (F): 4224 HR MIN TEMP (F): 31 FASTEST 2MIN SPEED (MPH): 23FASTEST 2MIN DIR (DEG):330 FASTEST 2MIN TIME (LST):     AVERAGE WIND SPEED (MPH): 8.7 24 HR AVG TEMP (F): 37DEPART FROM NORMAL:  2  HEATING DEGREE DAYS: 28 COOLING DEGREE DAYS:  0
0389999999137242021012204596+39378-074424SOD  +000355N  V030999999999999999999999999999+99999+99999999999ADDAA124000095KA1240M+00895KA2240N-00105OE1124999999999999AOE22240089424099995OE33240036799999995REMSOD28324 HR PRECIPITATION (IN): 0.00 24 HR MAX TEMP (F): 4824 HR MIN TEMP (F): 30 FASTEST 2MIN SPEED (MPH): 20FASTEST 2MIN DIR (DEG):240 FASTEST 2MIN TIME (LST):     AVERAGE WIND SPEED (MPH): 8.2 24 HR AVG TEMP (F): 39DEPART FROM NORMAL:  4  HEATING DEGREE DAYS: 26 COOLING DEGREE DAYS:  0
0389999999137242021012304596+39378-074424SOD  +000355N  V030999999999999999999999999999+99999+99999999999ADDAA124000095KA1240M+00835KA2240N+00225OE1124999999999999AOE22240071529099995OE33240042099999995REMSOD28324 HR PRECIPITATION (IN): 0.00 24 HR MAX TEMP (F): 4724 HR MIN TEMP (F): 36 FASTEST 2MIN SPEED (MPH): 16FASTEST 2MIN DIR (DEG):290 FASTEST 2MIN TIME (LST):     AVERAGE WIND SPEED (MPH): 9.4 24 HR AVG TEMP (F): 42DEPART FROM NORMAL:  7  HEATING DEGREE DAYS: 23 COOLING DEGREE DAYS:  0
0389999999137242021012404596+39378-074424SOD  +000355N  V030999999999999999999999999999+99999+99999999999ADDAA124000095KA1240M+00225KA2240N-00275OE1124999999999999AOE22240102833099995OE33240046999999995REMSOD28324 HR PRECIPITATION (IN): 0.00 24 HR MAX TEMP (F): 3624 HR MIN TEMP (F): 27 FASTEST 2MIN SPEED (MPH): 23FASTEST 2MIN DIR (DEG):330 FASTEST 2MIN TIME (LST):     AVERAGE WIND SPEED (MPH):10.5 24 HR AVG TEMP (F): 32DEPART FROM NORMAL: -3  HEATING DEGREE DAYS: 33 COOLING DEGREE DAYS:  0
0389999999137242021012504596+39378-074424SOD  +000355N  V030999999999999999999999999999+99999+99999999999ADDAA124000095KA1240M+00175KA2240N-00435OE1124999999999999AOE22240058133099995OE33240031799999995REMSOD28324 HR PRECIPITATION (IN): 0.00 24 HR MAX TEMP (F): 3524 HR MIN TEMP (F): 24 FASTEST 2MIN SPEED (MPH): 13FASTEST 2MIN DIR (DEG):330 FASTEST 2MIN TIME (LST):     AVERAGE WIND SPEED (MPH): 7.1 24 HR AVG TEMP (F): 30DEPART FROM NORMAL: -5  HEATING DEGREE DAYS: 35 COOLING DEGREE DAYS:  0
0389999999137242021012604596+39378-074424SOD  +000355N  V030999999999999999999999999999+99999+99999999999ADDAA124000095KA1240M+00335KA2240N+00005OE1124999999999999AOE22240035833099995OE33240016599999995REMSOD28324 HR PRECIPITATION (IN): 0.00 24 HR MAX TEMP (F): 3824 HR MIN TEMP (F): 32 FASTEST 2MIN SPEED (MPH):  8FASTEST 2MIN DIR (DEG):330 FASTEST 2MIN TIME (LST):     AVERAGE WIND SPEED (MPH): 3.7 24 HR AVG TEMP (F): 35DEPART FROM NORMAL:  0  HEATING DEGREE DAYS: 30 COOLING DEGREE DAYS:  0
0408999999137242021012704596+39378-074424SOD  +000355N  V030999999999999999999999999999+99999+99999999999ADDAA12400159AKA1240M+00615KA2240N+00115OE1124999999999999AOE22240076011099995OE33240041699999995REMSOD28324 HR PRECIPITATION (IN): 0.06 24 HR MAX TEMP (F): 4324 HR MIN TEMP (F): 34 FASTEST 2MIN SPEED (MPH): 17FASTEST 2MIN DIR (DEG):110 FASTEST 2MIN TIME (LST):     AVERAGE WIND SPEED (MPH): 9.3 24 HR AVG TEMP (F): 39DEPART FROM NORMAL:  4  HEATING DEGREE DAYS: 26 COOLING DEGREE DAYS:  0EQDR01  0.067AAP092
0389999999137242021012804596+39378-074424SOD  +000355N  V030999999999999999999999999999+99999+99999999999ADDAA124000095KA1240M+00505KA2240N+00005OE1124999999999999AOE22240080533099995OE33240040299999995REMSOD28324 HR PRECIPITATION (IN): 0.00 24 HR MAX TEMP (F): 4124 HR MIN TEMP (F): 32 FASTEST 2MIN SPEED (MPH): 18FASTEST 2MIN DIR (DEG):330 FASTEST 2MIN TIME (LST):     AVERAGE WIND SPEED (MPH): 9.0 24 HR AVG TEMP (F): 37DEPART FROM NORMAL:  2  HEATING DEGREE DAYS: 28 COOLING DEGREE DAYS:  0
0389999999137242021012904596+39378-074424SOD  +000355N  V030999999999999999999999999999+99999+99999999999ADDAA124000095KA1240M+00115KA2240N-00385OE1124999999999999AOE22240116233099995OE33240068899999995REMSOD28324 HR PRECIPITATION (IN): 0.00 24 HR MAX TEMP (F): 3424 HR MIN TEMP (F): 25 FASTEST 2MIN SPEED (MPH): 26FASTEST 2MIN DIR (DEG):330 FASTEST 2MIN TIME (LST):     AVERAGE WIND SPEED (MPH):15.4 24 HR AVG TEMP (F): 30DEPART FROM NORMAL: -5  HEATING DEGREE DAYS: 35 COOLING DEGREE DAYS:  0
0389999999137242021013004596+39378-074424SOD  +000355N  V030999999999999999999999999999+99999+99999999999ADDAA124000095KA1240M-00215KA2240N-00555OE1124999999999999AOE22240107333099995OE33240065799999995REMSOD28324 HR PRECIPITATION (IN): 0.00 24 HR MAX TEMP (F): 2824 HR MIN TEMP (F): 22 FASTEST 2MIN SPEED (MPH): 24FASTEST 2MIN DIR (DEG):330 FASTEST 2MIN TIME (LST):     AVERAGE WIND SPEED (MPH):14.7 24 HR AVG TEMP (F): 25DEPART FROM NORMAL:-10  HEATING DEGREE DAYS: 40 COOLING DEGREE DAYS:  0
0389999999137242021013104596+39378-074424SOD  +000355N  V030999999999999999999999999999+99999+99999999999ADDAA124000095KA1240M+00115KA2240N-00715OE1124999999999999AOE22240089433099995OE33240032699999995REMSOD28324 HR PRECIPITATION (IN): 0.00 24 HR MAX TEMP (F): 3424 HR MIN TEMP (F): 19 FASTEST 2MIN SPEED (MPH): 20FASTEST 2MIN DIR (DEG):330 FASTEST 2MIN TIME (LST):     AVERAGE WIND SPEED (MPH): 7.3 24 HR AVG TEMP (F): 27DEPART FROM NORMAL: -8  HEATING DEGREE DAYS: 38 COOLING DEGREE DAYS:  0
0408999999137242021020104596+39378-074424SOD  +000355N  V030999999999999999999999999999+99999+99999999999ADDAA12400949AKA1240M+00395KA2240N-00275OE1124999999999999AOE22240134109099995OE33240046999999995REMSOD28324 HR PRECIPITATION (IN): 0.37 24 HR MAX TEMP (F): 3924 HR MIN TEMP (F): 27 FASTEST 2MIN SPEED (MPH): 30FASTEST 2MIN DIR (DEG): 90 FASTEST 2MIN TIME (LST):     AVERAGE WIND SPEED (MPH):10.5 24 HR AVG TEMP (F): 33DEPART FROM NORMAL: -3  HEATING DEGREE DAYS: 32 COOLING DEGREE DAYS:  0EQDR01  0.377AAP092
0128999999137242021020104596+39378-074424SOM  +000355N  V030999999999999999999999999999+99999+99999999999ADDAD1001689010199999999IAE108I05I01I00IKB1240N+0011IKB2240M+0606IKB3240A+0311IKC1N9-0072309999IKC2M9+0128029999IKE101I00I15I00I
0408999999137242021020204596+39378-074424SOD  +000355N  V030999999999999999999999999999+99999+99999999999ADDAA12405119AKA1240M+00505KA2240N+00115OE1124999999999999AOE22240134106099995OE33240079699999995REMSOD28324 HR PRECIPITATION (IN): 2.01 24 HR MAX TEMP (F): 4124 HR MIN TEMP (F): 34 FASTEST 2MIN SPEED (MPH): 30FASTEST 2MIN DIR (DEG): 60 FASTEST 2MIN TIME (LST):     AVERAGE WIND SPEED (MPH):17.8 24 HR AVG TEMP (F): 38DEPART FROM NORMAL:  2  HEATING DEGREE DAYS: 27 COOLING DEGREE DAYS:  0EQDR01  2.017AAP092
0370999999137242021020304596+39378-074424SOD  +000355N  V030999999999999999999999999999+99999+99999999999ADDAA12400369AKA1240M+00115KA2240N-00055OE13240063099999995REMSOD28324 HR PRECIPITATION (IN): 0.14 24 HR MAX TEMP (F): 3424 HR MIN TEMP (F): 31 FASTEST 2MIN SPEED (MPH): 98FASTEST 2MIN DIR (DEG): 90 FASTEST 2MIN TIME (LST):     AVERAGE WIND SPEED (MPH):14.1 24 HR AVG TEMP (F): 33DEPART FROM NORMAL: -3  HEATING DEGREE DAYS: 32 COOLING DEGREE DAYS:  0EQDR01  0.147AAP092
0424999999137242021020404596+39378-074424SOD  +000355N  V030999999999999999999999999999+99999+99999999999ADDAA12400009AKA1240M+00175KA2240N-00165OE1124999999999999AOE22240067133099995OE33240035899999995REMSOD28324 HR PRECIPITATION (IN):    T 24 HR MAX TEMP (F): 3524 HR MIN TEMP (F): 29 FASTEST 2MIN SPEED (MPH): 15FASTEST 2MIN DIR (DEG):330 FASTEST 2MIN TIME (LST):     AVERAGE WIND SPEED (MPH): 8.0 24 HR AVG TEMP (F): 32DEPART FROM NORMAL: -4  HEATING DEGREE DAYS: 33 COOLING DEGREE DAYS:  0EQDQ01  00002PRCP24R01     T7AAP092
0389999999137242021020504596+39378-074424SOD  +000355N  V030999999999999999999999999999+99999+99999999999ADDAA124000095KA1240M+00565KA2240N+00005OE1124999999999999AOE22240067129099995OE33240036799999995REMSOD28324 HR PRECIPITATION (IN): 0.00 24 HR MAX TEMP (F): 4224 HR MIN TEMP (F): 32 FASTEST 2MIN SPEED (MPH): 15FASTEST 2MIN DIR (DEG):290 FASTEST 2MIN TIME (LST):     AVERAGE WIND SPEED (MPH): 8.2 24 HR AVG TEMP (F): 37DEPART FROM NORMAL:  1  HEATING DEGREE DAYS: 28 COOLING DEGREE DAYS:  0
0408999999137242021020604596+39378-074424SOD  +000355N  V030999999999999999999999999999+99999+99999999999ADDAA12400109AKA1240M+00895KA2240N+00395OE1124999999999999AOE22240098325099995OE33240046099999995REMSOD28324 HR PRECIPITATION (IN): 0.04 24 HR MAX TEMP (F): 4824 HR MIN TEMP (F): 39 FASTEST 2MIN SPEED (MPH): 22FASTEST 2MIN DIR (DEG):250 FASTEST 2MIN TIME (LST):     AVERAGE WIND SPEED (MPH):10.3 24 HR AVG TEMP (F): 44DEPART FROM NORMAL:  8  HEATING DEGREE DAYS: 21 COOLING DEGREE DAYS:  0EQDR01  0.047AAP092
0389999999137242021020704596+39378-074424SOD  +000355N  V030999999999999999999999999999+99999+99999999999ADDAA124000095KA1240M+00945KA2240N+00225OE1124999999999999AOE22240098328099995OE33240040799999995REMSOD28324 HR PRECIPITATION (IN): 0.00 24 HR MAX TEMP (F): 4924 HR MIN TEMP (F): 36 FASTEST 2MIN SPEED (MPH): 22FASTEST 2MIN DIR (DEG):280 FASTEST 2MIN TIME (LST):     AVERAGE WIND SPEED (MPH): 9.1 24 HR AVG TEMP (F): 43DEPART FROM NORMAL:  7  HEATING DEGREE DAYS: 22 COOLING DEGREE DAYS:  0
0408999999137242021020804596+39378-074424SOD  +000355N  V030999999999999999999999999999+99999+99999999999ADDAA12401989AKA1240M+00725KA2240N-00055OE1124999999999999AOE22240062610099995OE33240033599999995REMSOD28324 HR PRECIPITATION (IN): 0.78 24 HR MAX TEMP (F): 4524 HR MIN TEMP (F): 31 FASTEST 2MIN SPEED (MPH): 14FASTEST 2MIN DIR (DEG):100 FASTEST 2MIN TIME (LST):     AVERAGE WIND SPEED (MPH): 7.5 24 HR AVG TEMP (F): 38DEPART FROM NORMAL:  2  HEATING DEGREE DAYS: 27 COOLING DEGREE DAYS:  0EQDR01  0.787AAP092
0389999999137242021020904596+39378-074424SOD  +000355N  V030999999999999999999999999999+99999+99999999999ADDAA124000095KA1240M+00115KA2240N-00555OE1124999999999999AOE22240067133099995OE33240028299999995REMSOD28324 HR PRECIPITATION (IN): 0.00 24 HR MAX TEMP (F): 3424 HR MIN TEMP (F): 22 FASTEST 2MIN SPEED (MPH): 15FASTEST 2MIN DIR (DEG):330 FASTEST 2MIN TIME (LST):     AVERAGE WIND SPEED (MPH): 6.3 24 HR AVG TEMP (F): 28DEPART FROM NORMAL: -8  HEATING DEGREE DAYS: 37 COOLING DEGREE DAYS:  0
0408999999137242021021004596+39378-074424SOD  +000355N  V030999999999999999999999999999+99999+99999999999ADDAA12400519AKA1240M+00835KA2240N+00065OE1124999999999999AOE22240071513099995OE33240030499999995REMSOD28324 HR PRECIPITATION (IN): 0.20 24 HR MAX TEMP (F): 4724 HR MIN TEMP (F): 33 FASTEST 2MIN SPEED (MPH): 16FASTEST 2MIN DIR (DEG):130 FASTEST 2MIN TIME (LST):     AVERAGE WIND SPEED (MPH): 6.8 24 HR AVG TEMP (F): 40DEPART FROM NORMAL:  4  HEATING DEGREE DAYS: 25 COOLING DEGREE DAYS:  0EQDR01  0.207AAP092
0424999999137242021021104596+39378-074424SOD  +000355N  V030999999999999999999999999999+99999+99999999999ADDAA12400009AKA1240M+00285KA2240N-00165OE1124999999999999AOE22240035835099995OE33240018899999995REMSOD28324 HR PRECIPITATION (IN):    T 24 HR MAX TEMP (F): 3724 HR MIN TEMP (F): 29 FASTEST 2MIN SPEED (MPH):  8FASTEST 2MIN DIR (DEG):350 FASTEST 2MIN TIME (LST):     AVERAGE WIND SPEED (MPH): 4.2 24 HR AVG TEMP (F): 33DEPART FROM NORMAL: -3  HEATING DEGREE DAYS: 32 COOLING DEGREE DAYS:  0EQDQ01  00002PRCP24R01     T7AAP092
0408999999137242021021204596+39378-074424SOD  +000355N  V030999999999999999999999999999+99999+99999999999ADDAA12401029AKA1240M+00065KA2240N-00105OE1124999999999999AOE22240058105099995OE33240031399999995REMSOD28324 HR PRECIPITATION (IN): 0.40 24 HR MAX TEMP (F): 3324 HR MIN TEMP (F): 30 FASTEST 2MIN SPEED (MPH): 13FASTEST 2MIN DIR (DEG): 50 FASTEST 2MIN TIME (LST):     AVERAGE WIND SPEED (MPH): 7.0 24 HR AVG TEMP (F): 32DEPART FROM NORMAL: -4  HEATING DEGREE DAYS: 33 COOLING DEGREE DAYS:  0EQDR01  0.407AAP092
0389999999137242021021304596+39378-074424SOD  +000355N  V030999999999999999999999999999+99999+99999999999ADDAA124000095KA1240M-00055KA2240N-00385OE1124999999999999AOE22240053604099995OE33240032299999995REMSOD28324 HR PRECIPITATION (IN): 0.00 24 HR MAX TEMP (F): 3124 HR MIN TEMP (F): 25 FASTEST 2MIN SPEED (MPH): 12FASTEST 2MIN DIR (DEG): 40 FASTEST 2MIN TIME (LST):     AVERAGE WIND SPEED (MPH): 7.2 24 HR AVG TEMP (F): 28DEPART FROM NORMAL: -9  HEATING DEGREE DAYS: 37 COOLING DEGREE DAYS:  0
0476999999137242021021404596+39378-074424SOD  +000355N  V030999999999999999999999999999+99999+99999999999ADDAA12401049AAX1016246AX2066246KA1240M+00175KA2240N-00165OE1124999999999999AOE22240321935099995OE33240054599999995REMSOD30124 HR PRECIPITATION (IN): 0.41 WEATHER(CODE):16  24 HR MAX TEMP (F): 3524 HR MIN TEMP (F): 29 FASTEST 2MIN SPEED (MPH): 72FASTEST 2MIN DIR (DEG):350 FASTEST 2MIN TIME (LST):     AVERAGE WIND SPEED (MPH):12.2 24 HR AVG TEMP (F): 32DEPART FROM NORMAL: -5  HEATING DEGREE DAYS: 33 COOLING DEGREE DAYS:  0EQDR01  0.417AAP092R02    167AXW092R03    167AXW092
0408999999137242021021504596+39378-074424SOD  +000355N  V030999999999999999999999999999+99999+99999999999ADDAA12400309AKA1240M+00175KA2240N-00055OE1124999999999999AOE22240076006099995OE33240022499999995REMSOD28324 HR PRECIPITATION (IN): 0.12 24 HR MAX TEMP (F): 3524 HR MIN TEMP (F): 31 FASTEST 2MIN SPEED (MPH): 17FASTEST 2MIN DIR (DEG): 60 FASTEST 2MIN TIME (LST):     AVERAGE WIND SPEED (MPH): 5.0 24 HR AVG TEMP (F): 33DEPART FROM NORMAL: -4  HEATING DEGREE DAYS: 32 COOLING DEGREE DAYS:  0EQDR01  0.127AAP092
0408999999137242021021604596+39378-074424SOD  +000355N  V030999999999999999999999999999+99999+99999999999ADDAA12400059AKA1240M+00505KA2240N+00115OE1124999999999999AOE22240067108099995OE33240042599999995REMSOD28324 HR PRECIPITATION (IN): 0.02 24 HR MAX TEMP (F): 4124 HR MIN TEMP (F): 34 FASTEST 2MIN SPEED (MPH): 15FASTEST 2MIN DIR (DEG): 80 FASTEST 2MIN TIME (LST):     AVERAGE WIND SPEED (MPH): 9.5 24 HR AVG TEMP (F): 38DEPART FROM NORMAL:  1  HEATING DEGREE DAYS: 27 COOLING DEGREE DAYS:  0EQDR01  0.027AAP092
0408999999137242021021704596+39378-074424SOD  +000355N  V030999999999999999999999999999+99999+99999999999ADDAA12401839AKA1240M+01225KA2240N+00005OE1124999999999999AOE22240076023099995OE33240050599999995REMSOD28324 HR PRECIPITATION (IN): 0.72 24 HR MAX TEMP (F): 5424 HR MIN TEMP (F): 32 FASTEST 2MIN SPEED (MPH): 17FASTEST 2MIN DIR (DEG):230 FASTEST 2MIN TIME (LST):     AVERAGE WIND SPEED (MPH):11.3 24 HR AVG TEMP (F): 43DEPART FROM NORMAL:  6  HEATING DEGREE DAYS: 22 COOLING DEGREE DAYS:  0EQDR01  0.727AAP092
0389999999137242021021804596+39378-074424SOD  +000355N  V030999999999999999999999999999+99999+99999999999ADDAA124000095KA1240M+00115KA2240N-00325OE1124999999999999AOE22240084933099995OE33240031399999995REMSOD28324 HR PRECIPITATION (IN): 0.00 24 HR MAX TEMP (F): 3424 HR MIN TEMP (F): 26 FASTEST 2MIN SPEED (MPH): 19FASTEST 2MIN DIR (DEG):330 FASTEST 2MIN TIME (LST):     AVERAGE WIND SPEED (MPH): 7.0 24 HR AVG TEMP (F): 30DEPART FROM NORMAL: -7  HEATING DEGREE DAYS: 35 COOLING DEGREE DAYS:  0
0408999999137242021021904596+39378-074424SOD  +000355N  V030999999999999999999999999999+99999+99999999999ADDAA12401199AKA1240M+00335KA2240N-00105OE1124999999999999AOE22240165404099995OE33240054599999995REMSOD28324 HR PRECIPITATION (IN): 0.47 24 HR MAX TEMP (F): 3824 HR MIN TEMP (F): 30 FASTEST 2MIN SPEED (MPH): 37FASTEST 2MIN DIR (DEG): 40 FASTEST 2MIN TIME (LST):     AVERAGE WIND SPEED (MPH):12.2 24 HR AVG TEMP (F): 34DEPART FROM NORMAL: -4  HEATING DEGREE DAYS: 31 COOLING DEGREE DAYS:  0EQDR01  0.477AAP092
0408999999137242021022004596+39378-074424SOD  +000355N  V030999999999999999999999999999+99999+99999999999ADDAA12400949AKA1240M+00335KA2240N+00005OE1124999999999999AOE22240076005099995OE33240045299999995REMSOD28324 HR PRECIPITATION (IN): 0.37 24 HR MAX TEMP (F): 3824 HR MIN TEMP (F): 32 FASTEST 2MIN SPEED (MPH): 17FASTEST 2MIN DIR (DEG): 50 FASTEST 2MIN TIME (LST):     AVERAGE WIND SPEED (MPH):10.1 24 HR AVG TEMP (F): 35DEPART FROM NORMAL: -3  HEATING DEGREE DAYS: 30 COOLING DEGREE DAYS:  0EQDR01  0.377AAP092
0389999999137242021022104596+39378-074424SOD  +000355N  V030999999999999999999999999999+99999+99999999999ADDAA124000095KA1240M+00065KA2240N-00275OE1124999999999999AOE22240062629099995OE33240041199999995REMSOD28324 HR PRECIPITATION (IN): 0.00 24 HR MAX TEMP (F): 3324 HR MIN TEMP (F): 27 FASTEST 2MIN SPEED (MPH): 14FASTEST 2MIN DIR (DEG):290 FASTEST 2MIN TIME (LST):     AVERAGE WIND SPEED (MPH): 9.2 24 HR AVG TEMP (F): 30DEPART FROM NORMAL: -8  HEATING DEGREE DAYS: 35 COOLING DEGREE DAYS:  0
0389999999137242021022204596+39378-074424SOD  +000355N  V030999999999999999999999999999+99999+99999999999ADDAA124000095KA1240M+00335KA2240N-00435OE1124999999999999AOE22240058133099995OE33240026899999995REMSOD28324 HR PRECIPITATION (IN): 0.00 24 HR MAX TEMP (F): 3824 HR MIN TEMP (F): 24 FASTEST 2MIN SPEED (MPH): 13FASTEST 2MIN DIR (DEG):330 FASTEST 2MIN TIME (LST):     AVERAGE WIND SPEED (MPH): 6.0 24 HR AVG TEMP (F): 31DEPART FROM NORMAL: -7  HEATING DEGREE DAYS: 34 COOLING DEGREE DAYS:  0
0408999999137242021022304596+39378-074424SOD  +000355N  V030999999999999999999999999999+99999+99999999999ADDAA12401559AKA1240M+00785KA2240N+00005OE1124999999999999AOE22240102827099995OE33240048399999995REMSOD28324 HR PRECIPITATION (IN): 0.61 24 HR MAX TEMP (F): 4624 HR MIN TEMP (F): 32 FASTEST 2MIN SPEED (MPH): 23FASTEST 2MIN DIR (DEG):270 FASTEST 2MIN TIME (LST):     AVERAGE WIND SPEED (MPH):10.8 24 HR AVG TEMP (F): 39DEPART FROM NORMAL:  1  HEATING DEGREE DAYS: 26 COOLING DEGREE DAYS:  0EQDR01  0.617AAP092
0389999999137242021022404596+39378-074424SOD  +000355N  V030999999999999999999999999999+99999+99999999999ADDAA124000095KA1240M+01115KA2240N+00175OE1124999999999999AOE22240098329099995OE33240050599999995REMSOD28324 HR PRECIPITATION (IN): 0.00 24 HR MAX TEMP (F): 5224 HR MIN TEMP (F): 35 FASTEST 2MIN SPEED (MPH): 22FASTEST 2MIN DIR (DEG):290 FASTEST 2MIN TIME (LST):     AVERAGE WIND SPEED (MPH):11.3 24 HR AVG TEMP (F): 44DEPART FROM NORMAL:  6  HEATING DEGREE DAYS: 21 COOLING DEGREE DAYS:  0
0389999999137242021022504596+39378-074424SOD  +000355N  V030999999999999999999999999999+99999+99999999999ADDAA124000095KA1240M+00895KA2240N+00395OE1124999999999999AOE22240089423099995OE33240048799999995REMSOD28324 HR PRECIPITATION (IN): 0.00 24 HR MAX TEMP (F): 4824 HR MIN TEMP (F): 39 FASTEST 2MIN SPEED (MPH): 20FASTEST 2MIN DIR (DEG):230 FASTEST 2MIN TIME (LST):     AVERAGE WIND SPEED (MPH):10.9 24 HR AVG TEMP (F): 44DEPART FROM NORMAL:  5  HEATING DEGREE DAYS: 21 COOLING DEGREE DAYS:  0
0389999999137242021022604596+39378-074424SOD  +000355N  V030999999999999999999999999999+99999+99999999999ADDAA124000095KA1240M+01065KA2240N+00445OE1124999999999999AOE22240089433099995OE33240034499999995REMSOD28324 HR PRECIPITATION (IN): 0.00 24 HR MAX TEMP (F): 5124 HR MIN TEMP (F): 40 FASTEST 2MIN SPEED (MPH): 20FASTEST 2MIN DIR (DEG):330 FASTEST 2MIN TIME (LST):     AVERAGE WIND SPEED (MPH): 7.7 24 HR AVG TEMP (F): 46DEPART FROM NORMAL:  7  HEATING DEGREE DAYS: 19 COOLING DEGREE DAYS:  0
0408999999137242021022704596+39378-074424SOD  +000355N  V030999999999999999999999999999+99999+99999999999ADDAA12400089AKA1240M+00615KA2240N+00225OE1124999999999999AOE22240067109099995OE33240033199999995REMSOD28324 HR PRECIPITATION (IN): 0.03 24 HR MAX TEMP (F): 4324 HR MIN TEMP (F): 36 FASTEST 2MIN SPEED (MPH): 15FASTEST 2MIN DIR (DEG): 90 FASTEST 2MIN TIME (LST):     AVERAGE WIND SPEED (MPH): 7.4 24 HR AVG TEMP (F): 40DEPART FROM NORMAL:  1  HEATING DEGREE DAYS: 25 COOLING DEGREE DAYS:  0EQDR01  0.037AAP092
0408999999137242021022804596+39378-074424SOD  +000355N  V030999999999999999999999999999+99999+99999999999ADDAA12400979AKA1240M+01225KA2240N+00505OE1124999999999999AOE22240080516099995OE33240046999999995REMSOD28324 HR PRECIPITATION (IN): 0.38 24 HR MAX TEMP (F): 5424 HR MIN TEMP (F): 41 FASTEST 2MIN SPEED (MPH): 18FASTEST 2MIN DIR (DEG):160 FASTEST 2MIN TIME (LST):     AVERAGE WIND SPEED (MPH):10.5 24 HR AVG TEMP (F): 48DEPART FROM NORMAL:  9  HEATING DEGREE DAYS: 17 COOLING DEGREE DAYS:  0EQDR01  0.387AAP092
0408999999137242021030104596+39378-074424SOD  +000355N  V030999999999999999999999999999+99999+99999999999ADDAA12401809AKA1240M+00945KA2240N+00565OE1124999999999999AOE22240098324099995OE33240034099999995REMSOD28324 HR PRECIPITATION (IN): 0.71 24 HR MAX TEMP (F): 4924 HR MIN TEMP (F): 42 FASTEST 2MIN SPEED (MPH): 22FASTEST 2MIN DIR (DEG):240 FASTEST 2MIN TIME (LST):     AVERAGE WIND SPEED (MPH): 7.6 24 HR AVG TEMP (F): 46DEPART FROM NORMAL:  6  HEATING DEGREE DAYS: 19 COOLING DEGREE DAYS:  0EQDR01  0.717AAP092
0128999999137242021030104596+39378-074424SOM  +000355N  V030999999999999999999999999999+99999+99999999999ADDAD1005119010199999999IAE116I13I05I01IKB1240N+0011IKB2240M+0533IKB3240A+0272IKC1N9-0056089999IKC2M1+0122279999IKE101I00I17I00I
0408999999137242021030204596+39378-074424SOD  +000355N  V030999999999999999999999999999+99999+99999999999ADDAA12401759AKA1240M+01005KA2240N+00335OE1124999999999999AOE22240062628099995OE33240034999999995REMSOD28324 HR PRECIPITATION (IN): 0.69 24 HR MAX TEMP (F): 5024 HR MIN TEMP (F): 38 FASTEST 2MIN SPEED (MPH): 14FASTEST 2MIN DIR (DEG):280 FASTEST 2MIN TIME (LST):     AVERAGE WIND SPEED (MPH): 7.8 24 HR AVG TEMP (F): 44DEPART FROM NORMAL:  4  HEATING DEGREE DAYS: 21 COOLING DEGREE DAYS:  0EQDR01  0.697AAP092
0389999999137242021030304596+39378-074424SOD  +000355N  V030999999999999999999999999999+99999+99999999999ADDAA124000095KA1240M+00335KA2240N-00275OE1124999999999999AOE22240080533099995OE33240045299999995REMSOD28324 HR PRECIPITATION (IN): 0.00 24 HR MAX TEMP (F): 3824 HR MIN TEMP (F): 27 FASTEST 2MIN SPEED (MPH): 18FASTEST 2MIN DIR (DEG):330 FASTEST 2MIN TIME (LST):     AVERAGE WIND SPEED (MPH):10.1 24 HR AVG TEMP (F): 33DEPART FROM NORMAL: -7  HEATING DEGREE DAYS: 32 COOLING DEGREE DAYS:  0
0389999999137242021030404596+39378-074424SOD  +000355N  V030999999999999999999999999999+99999+99999999999ADDAA124000095KA1240M+01115KA2240N+00175OE1124999999999999AOE22240076026099995OE33240044799999995REMSOD28324 HR PRECIPITATION (IN): 0.00 24 HR MAX TEMP (F): 5224 HR MIN TEMP (F): 35 FASTEST 2MIN SPEED (MPH): 17FASTEST 2MIN DIR (DEG):260 FASTEST 2MIN TIME (LST):     AVERAGE WIND SPEED (MPH):10.0 24 HR AVG TEMP (F): 44DEPART FROM NORMAL:  4  HEATING DEGREE DAYS: 21 COOLING DEGREE DAYS:  0
0389999999137242021030504596+39378-074424SOD  +000355N  V030999999999999999999999999999+99999+99999999999ADDAA124000095KA1240M+00895KA2240N+00115OE1124999999999999AOE22240080533099995OE33240043499999995REMSOD28324 HR PRECIPITATION (IN): 0.00 24 HR MAX TEMP (F): 4824 HR MIN TEMP (F): 34 FASTEST 2MIN SPEED (MPH): 18FASTEST 2MIN DIR (DEG):330 FASTEST 2MIN TIME (LST):     AVERAGE WIND SPEED (MPH): 9.7 24 HR AVG TEMP (F): 41DEPART FROM NORMAL:  1  HEATING DEGREE DAYS: 24 COOLING DEGREE DAYS:  0
0389999999137242021030604596+39378-074424SOD  +000355N  V030999999999999999999999999999+99999+99999999999ADDAA124000095KA1240M+00335KA2240N-00275OE1124999999999999AOE22240084929099995OE33240051999999995REMSOD28324 HR PRECIPITATION (IN): 0.00 24 HR MAX TEMP (F): 3824 HR MIN TEMP (F): 27 FASTEST 2MIN SPEED (MPH): 19FASTEST 2MIN DIR (DEG):290 FASTEST 2MIN TIME (LST):     AVERAGE WIND SPEED (MPH):11.6 24 HR AVG TEMP (F): 33DEPART FROM NORMAL: -8  HEATING DEGREE DAYS: 32 COOLING DEGREE DAYS:  0
0389999999137242021030704596+39378-074424SOD  +000355N  V030999999999999999999999999999+99999+99999999999ADDAA124000095KA1240M+00335KA2240N-00055OE1124999999999999AOE22240058128099995OE33240035399999995REMSOD28324 HR PRECIPITATION (IN): 0.00 24 HR MAX TEMP (F): 3824 HR MIN TEMP (F): 31 FASTEST 2MIN SPEED (MPH): 13FASTEST 2MIN DIR (DEG):280 FASTEST 2MIN TIME (LST):     AVERAGE WIND SPEED (MPH): 7.9 24 HR AVG TEMP (F): 35DEPART FROM NORMAL: -6  HEATING DEGREE DAYS: 30 COOLING DEGREE DAYS:  0
0389999999137242021030804596+39378-074424SOD  +000355N  V030999999999999999999999999999+99999+99999999999ADDAA124000095KA1240M+00565KA2240N+00005OE1124999999999999AOE22240053633099995OE33240023799999995REMSOD28324 HR PRECIPITATION (IN): 0.00 24 HR MAX TEMP (F): 4224 HR MIN TEMP (F): 32 FASTEST 2MIN SPEED (MPH): 12FASTEST 2MIN DIR (DEG):330 FASTEST 2MIN TIME (LST):     AVERAGE WIND SPEED (MPH): 5.3 24 HR AVG TEMP (F): 37DEPART FROM NORMAL: -4  HEATING DEGREE DAYS: 28 COOLING DEGREE DAYS:  0
0079999999137242021030904596+39378-074424SOD  +000355N  V030999999999999999999999999999+99999+99999999999ADDAA124000095KA1240M+0078IKA2240N-0022IREMSOD03024 HR PRECIPITATION (IN): 0.00
0389999999137242021031004596+39378-074424SOD  +000355N  V030999999999999999999999999999+99999+99999999999ADDAA124000095KA1240M+01895KA2240N+00445OE1124999999999999AOE22240076026099995OE33240040799999995REMSOD28324 HR PRECIPITATION (IN): 0.00 24 HR MAX TEMP (F): 6624 HR MIN TEMP (F): 40 FASTEST 2MIN SPEED (MPH): 17FASTEST 2MIN DIR (DEG):260 FASTEST 2MIN TIME (LST):     AVERAGE WIND SPEED (MPH): 9.1 24 HR AVG TEMP (F): 53DEPART FROM NORMAL: 11  HEATING DEGREE DAYS: 12 COOLING DEGREE DAYS:  0
0389999999137242021031104596+39378-074424SOD  +000355N  V030999999999999999999999999999+99999+99999999999ADDAA124000095KA1240M+01115KA2240N+00615OE1124999999999999AOE22240053609099995OE33240042599999995REMSOD28324 HR PRECIPITATION (IN): 0.00 24 HR MAX TEMP (F): 5224 HR MIN TEMP (F): 43 FASTEST 2MIN SPEED (MPH): 12FASTEST 2MIN DIR (DEG): 90 FASTEST 2MIN TIME (LST):     AVERAGE WIND SPEED (MPH): 9.5 24 HR AVG TEMP (F): 48DEPART FROM NORMAL:  6  HEATING DEGREE DAYS: 17 COOLING DEGREE DAYS:  0
0389999999137242021031204596+39378-074424SOD  +000355N  V030999999999999999999999999999+99999+99999999999ADDAA124000095KA1240M+01115KA2240N+00785OE1124999999999999AOE22240093923099995OE33240061299999995REMSOD28324 HR PRECIPITATION (IN): 0.00 24 HR MAX TEMP (F): 5224 HR MIN TEMP (F): 46 FASTEST 2MIN SPEED (MPH): 21FASTEST 2MIN DIR (DEG):230 FASTEST 2MIN TIME (LST):     AVERAGE WIND SPEED (MPH):13.7 24 HR AVG TEMP (F): 49DEPART FROM NORMAL:  7  HEATING DEGREE DAYS: 16 COOLING DEGREE DAYS:  0
0389999999137242021031304596+39378-074424SOD  +000355N  V030999999999999999999999999999+99999+99999999999ADDAA124000095KA1240M+02005KA2240N+00895OE1124999999999999AOE22240067122099995OE33240036299999995REMSOD28324 HR PRECIPITATION (IN): 0.00 24 HR MAX TEMP (F): 6824 HR MIN TEMP (F): 48 FASTEST 2MIN SPEED (MPH): 15FASTEST 2MIN DIR (DEG):220 FASTEST 2MIN TIME (LST):     AVERAGE WIND SPEED (MPH): 8.1 24 HR AVG TEMP (F): 58DEPART FROM NORMAL: 16  HEATING DEGREE DAYS:  7 COOLING DEGREE DAYS:  0
0389999999137242021031404596+39378-074424SOD  +000355N  V030999999999999999999999999999+99999+99999999999ADDAA124000095KA1240M+01395KA2240N+00395OE1124999999999999AOE22240089433099995OE33240041199999995REMSOD28324 HR PRECIPITATION (IN): 0.00 24 HR MAX TEMP (F): 5724 HR MIN TEMP (F): 39 FASTEST 2MIN SPEED (MPH): 20FASTEST 2MIN DIR (DEG):330 FASTEST 2MIN TIME (LST):     AVERAGE WIND SPEED (MPH): 9.2 24 HR AVG TEMP (F): 48DEPART FROM NORMAL:  6  HEATING DEGREE DAYS: 17 COOLING DEGREE DAYS:  0
0389999999137242021031504596+39378-074424SOD  +000355N  V030999999999999999999999999999+99999+99999999999ADDAA124000095KA1240M+01395KA2240N+00225OE1124999999999999AOE22240089430099995OE33240050599999995REMSOD28324 HR PRECIPITATION (IN): 0.00 24 HR MAX TEMP (F): 5724 HR MIN TEMP (F): 36 FASTEST 2MIN SPEED (MPH): 20FASTEST 2MIN DIR (DEG):300 FASTEST 2MIN TIME (LST):     AVERAGE WIND SPEED (MPH):11.3 24 HR AVG TEMP (F): 47DEPART FROM NORMAL:  4  HEATING DEGREE DAYS: 18 COOLING DEGREE DAYS:  0
0389999999137242021031604596+39378-074424SOD  +000355N  V030999999999999999999999999999+99999+99999999999ADDAA124000095KA1240M+00505KA2240N-00165OE1124999999999999AOE22240093933099995OE33240042599999995REMSOD28324 HR PRECIPITATION (IN): 0.00 24 HR MAX TEMP (F): 4124 HR MIN TEMP (F): 29 FASTEST 2MIN SPEED (MPH): 21FASTEST 2MIN DIR (DEG):330 FASTEST 2MIN TIME (LST):     AVERAGE WIND SPEED (MPH): 9.5 24 HR AVG TEMP (F): 35DEPART FROM NORMAL: -8  HEATING DEGREE DAYS: 30 COOLING DEGREE DAYS:  0
0389999999137242021031704596+39378-074424SOD  +000355N  V030999999999999999999999999999+99999+99999999999ADDAA124000095KA1240M+00565KA2240N+00115OE1124999999999999AOE22240058111099995OE33240032699999995REMSOD28324 HR PRECIPITATION (IN): 0.00 24 HR MAX TEMP (F): 4224 HR MIN TEMP (F): 34 FASTEST 2MIN SPEED (MPH): 13FASTEST 2MIN DIR (DEG):110 FASTEST 2MIN TIME (LST):     AVERAGE WIND SPEED (MPH): 7.3 24 HR AVG TEMP (F): 38DEPART FROM NORMAL: -5  HEATING DEGREE DAYS: 27 COOLING DEGREE DAYS:  0
0389999999137242021031804596+39378-074424SOD  +000355N  V030999999999999999999999999999+99999+99999999999ADDAA124000095KA1240M+00725KA2240N+00505OE1124999999999999AOE22240067109099995OE33240028299999995REMSOD28324 HR PRECIPITATION (IN): 0.00 24 HR MAX TEMP (F): 4524 HR MIN TEMP (F): 41 FASTEST 2MIN SPEED (MPH): 15FASTEST 2MIN DIR (DEG): 90 FASTEST 2MIN TIME (LST):     AVERAGE WIND SPEED (MPH): 6.3 24 HR AVG TEMP (F): 43DEPART FROM NORMAL:  0  HEATING DEGREE DAYS: 22 COOLING DEGREE DAYS:  0
0408999999137242021031904596+39378-074424SOD  +000355N  V030999999999999999999999999999+99999+99999999999ADDAA12403919AKA1240M+01175KA2240N+00565OE1124999999999999AOE22240102805099995OE33240034099999995REMSOD28324 HR PRECIPITATION (IN): 1.54 24 HR MAX TEMP (F): 5324 HR MIN TEMP (F): 42 FASTEST 2MIN SPEED (MPH): 23FASTEST 2MIN DIR (DEG): 50 FASTEST 2MIN TIME (LST):     AVERAGE WIND SPEED (MPH): 7.6 24 HR AVG TEMP (F): 48DEPART FROM NORMAL:  4  HEATING DEGREE DAYS: 17 COOLING DEGREE DAYS:  0EQDR01  1.547AAP092
0408999999137242021032004596+39378-074424SOD  +000355N  V030999999999999999999999999999+99999+99999999999ADDAA12400159AKA1240M+00675KA2240N+00225OE1124999999999999AOE22240107305099995OE33240053299999995REMSOD28324 HR PRECIPITATION (IN): 0.06 24 HR MAX TEMP (F): 4424 HR MIN TEMP (F): 36 FASTEST 2MIN SPEED (MPH): 24FASTEST 2MIN DIR (DEG): 50 FASTEST 2MIN TIME (LST):     AVERAGE WIND SPEED (MPH):11.9 24 HR AVG TEMP (F): 40DEPART FROM NORMAL: -4  HEATING DEGREE DAYS: 25 COOLING DEGREE DAYS:  0EQDR01  0.067AAP092
0389999999137242021032104596+39378-074424SOD  +000355N  V030999999999999999999999999999+99999+99999999999ADDAA124000095KA1240M+00615KA2240N+00005OE1124999999999999AOE22240044712099995OE33240025599999995REMSOD28324 HR PRECIPITATION (IN): 0.00 24 HR MAX TEMP (F): 4324 HR MIN TEMP (F): 32 FASTEST 2MIN SPEED (MPH): 10FASTEST 2MIN DIR (DEG):120 FASTEST 2MIN TIME (LST):     AVERAGE WIND SPEED (MPH): 5.7 24 HR AVG TEMP (F): 38DEPART FROM NORMAL: -6  HEATING DEGREE DAYS: 27 COOLING DEGREE DAYS:  0
0389999999137242021032204596+39378-074424SOD  +000355N  V030999999999999999999999999999+99999+99999999999ADDAA124000095KA1240M+00895KA2240N+00285OE1124999999999999AOE22240044711099995OE33240021099999995REMSOD28324 HR PRECIPITATION (IN): 0.00 24 HR MAX TEMP (F): 4824 HR MIN TEMP (F): 37 FASTEST 2MIN SPEED (MPH): 10FASTEST 2MIN DIR (DEG):110 FASTEST 2MIN TIME (LST):     AVERAGE WIND SPEED (MPH): 4.7 24 HR AVG TEMP (F): 43DEPART FROM NORMAL: -1  HEATING DEGREE DAYS: 22 COOLING DEGREE DAYS:  0
0389999999137242021032304596+39378-074424SOD  +000355N  V030999999999999999999999999999+99999+99999999999ADDAA124000095KA1240M+01005KA2240N+00395OE1124999999999999AOE22240071508099995OE33240030499999995REMSOD28324 HR PRECIPITATION (IN): 0.00 24 HR MAX TEMP (F): 5024 HR MIN TEMP (F): 39 FASTEST 2MIN SPEED (MPH): 16FASTEST 2MIN DIR (DEG): 80 FASTEST 2MIN TIME (LST):     AVERAGE WIND SPEED (MPH): 6.8 24 HR AVG TEMP (F): 45DEPART FROM NORMAL:  0  HEATING DEGREE DAYS: 20 COOLING DEGREE DAYS:  0
0389999999137242021032404596+39378-074424SOD  +000355N  V030999999999999999999999999999+99999+99999999999ADDAA124000095KA1240M+01005KA2240N+00615OE1124999999999999AOE22240058105099995OE33240035399999995REMSOD28324 HR PRECIPITATION (IN): 0.00 24 HR MAX TEMP (F): 5024 HR MIN TEMP (F): 43 FASTEST 2MIN SPEED (MPH): 13FASTEST 2MIN DIR (DEG): 50 FASTEST 2MIN TIME (LST):     AVERAGE WIND SPEED (MPH): 7.9 24 HR AVG TEMP (F): 47DEPART FROM NORMAL:  2  HEATING DEGREE DAYS: 18 COOLING DEGREE DAYS:  0
0408999999137242021032504596+39378-074424SOD  +000355N  V030999999999999999999999999999+99999+99999999999ADDAA12405219AKA1240M+01505KA2240N+00835OE1124999999999999AOE22240071514099995OE33240038499999995REMSOD28324 HR PRECIPITATION (IN): 2.05 24 HR MAX TEMP (F): 5924 HR MIN TEMP (F): 47 FASTEST 2MIN SPEED (MPH): 16FASTEST 2MIN DIR (DEG):140 FASTEST 2MIN TIME (LST):     AVERAGE WIND SPEED (MPH): 8.6 24 HR AVG TEMP (F): 53DEPART FROM NORMAL:  8  HEATING DEGREE DAYS: 12 COOLING DEGREE DAYS:  0EQDR01  2.057AAP092
0408999999137242021032604596+39378-074424SOD  +000355N  V030999999999999999999999999999+99999+99999999999ADDAA12400039AKA1240M+01445KA2240N+00945OE1124999999999999AOE22240058123099995OE33240028299999995REMSOD28324 HR PRECIPITATION (IN): 0.01 24 HR MAX TEMP (F): 5824 HR MIN TEMP (F): 49 FASTEST 2MIN SPEED (MPH): 13FASTEST 2MIN DIR (DEG):230 FASTEST 2MIN TIME (LST):     AVERAGE WIND SPEED (MPH): 6.3 24 HR AVG TEMP (F): 54DEPART FROM NORMAL:  8  HEATING DEGREE DAYS: 11 COOLING DEGREE DAYS:  0EQDR01  0.017AAP092
0389999999137242021032704596+39378-074424SOD  +000355N  V030999999999999999999999999999+99999+99999999999ADDAA124000095KA1240M+02725KA2240N+01115OE1124999999999999AOE22240111829099995OE33240065799999995REMSOD28324 HR PRECIPITATION (IN): 0.00 24 HR MAX TEMP (F): 8124 HR MIN TEMP (F): 52 FASTEST 2MIN SPEED (MPH): 25FASTEST 2MIN DIR (DEG):290 FASTEST 2MIN TIME (LST):     AVERAGE WIND SPEED (MPH):14.7 24 HR AVG TEMP (F): 67DEPART FROM NORMAL: 21  HEATING DEGREE DAYS:  0 COOLING DEGREE DAYS:  2
0389999999137242021032804596+39378-074424SOD  +000355N  V030999999999999999999999999999+99999+99999999999ADDAA124000095KA1240M+01505KA2240N+01115OE1124999999999999AOE22240071523099995OE33240039399999995REMSOD28324 HR PRECIPITATION (IN): 0.00 24 HR MAX TEMP (F): 5924 HR MIN TEMP (F): 52 FASTEST 2MIN SPEED (MPH): 16FASTEST 2MIN DIR (DEG):230 FASTEST 2MIN TIME (LST):     AVERAGE WIND SPEED (MPH): 8.8 24 HR AVG TEMP (F): 56DEPART FROM NORMAL: 10  HEATING DEGREE DAYS:  9 COOLING DEGREE DAYS:  0
0408999999137242021032904596+39378-074424SOD  +000355N  V030999999999999999999999999999+99999+99999999999ADDAA12401279AKA1240M+01565KA2240N+00895OE1124999999999999AOE22240107324099995OE33240058199999995REMSOD28324 HR PRECIPITATION (IN): 0.50 24 HR MAX TEMP (F): 6024 HR MIN TEMP (F): 48 FASTEST 2MIN SPEED (MPH): 24FASTEST 2MIN DIR (DEG):240 FASTEST 2MIN TIME (LST):     AVERAGE WIND SPEED (MPH):13.0 24 HR AVG TEMP (F): 54DEPART FROM NORMAL:  8  HEATING DEGREE DAYS: 11 COOLING DEGREE DAYS:  0EQDR01  0.507AAP092
0389999999137242021033004596+39378-074424SOD  +000355N  V030999999999999999999999999999+99999+99999999999ADDAA124000095KA1240M+01285KA2240N+00785OE1124999999999999AOE22240093929099995OE33240050599999995REMSOD28324 HR PRECIPITATION (IN): 0.00 24 HR MAX TEMP (F): 5524 HR MIN TEMP (F): 46 FASTEST 2MIN SPEED (MPH): 21FASTEST 2MIN DIR (DEG):290 FASTEST 2MIN TIME (LST):     AVERAGE WIND SPEED (MPH):11.3 24 HR AVG TEMP (F): 51DEPART FROM NORMAL:  5  HEATING DEGREE DAYS: 14 COOLING DEGREE DAYS:  0
0389999999137242021033104596+39378-074424SOD  +000355N  V030999999999999999999999999999+99999+99999999999ADDAA124000095KA1240M+01175KA2240N+00565OE1124999999999999AOE22240076019099995OE33240036299999995REMSOD28324 HR PRECIPITATION (IN): 0.00 24 HR MAX TEMP (F): 5324 HR MIN TEMP (F): 42 FASTEST 2MIN SPEED (MPH): 17FASTEST 2MIN DIR (DEG):190 FASTEST 2MIN TIME (LST):     AVERAGE WIND SPEED (MPH): 8.1 24 HR AVG TEMP (F): 48DEPART FROM NORMAL:  1  HEATING DEGREE DAYS: 17 COOLING DEGREE DAYS:  0
0408999999137242021040104596+39378-074424SOD  +000355N  V030999999999999999999999999999+99999+99999999999ADDAA12402319AKA1240M+01505KA2240N+01065OE1124999999999999AOE22240080520099995OE33240046099999995REMSOD28324 HR PRECIPITATION (IN): 0.91 24 HR MAX TEMP (F): 5924 HR MIN TEMP (F): 51 FASTEST 2MIN SPEED (MPH): 18FASTEST 2MIN DIR (DEG):200 FASTEST 2MIN TIME (LST):     AVERAGE WIND SPEED (MPH):10.3 24 HR AVG TEMP (F): 55DEPART FROM NORMAL:  8  HEATING DEGREE DAYS: 10 COOLING DEGREE DAYS:  0EQDR01  0.917AAP092
0094999999137242021040104596+39378-074424SOM  +000355N  V030999999999999999999999999999+99999+99999999999ADDAD1005219242499999999IAE107I05I05I02IKB1240N+0417IKB2240M+1094IKB3240A+0756IKE100I00I07I00I
0408999999137242021040204596+39378-074424SOD  +000355N  V030999999999999999999999999999+99999+99999999999ADDAA12400059AKA1240M+01395KA2240N+00445OE1124999999999999AOE22240098333099995OE33240058199999995REMSOD28324 HR PRECIPITATION (IN): 0.02 24 HR MAX TEMP (F): 5724 HR MIN TEMP (F): 40 FASTEST 2MIN SPEED (MPH): 22FASTEST 2MIN DIR (DEG):330 FASTEST 2MIN TIME (LST):     AVERAGE WIND SPEED (MPH):13.0 24 HR AVG TEMP (F): 49DEPART FROM NORMAL:  2  HEATING DEGREE DAYS: 16 COOLING DEGREE DAYS:  0EQDR01  0.027AAP092
0389999999137242021040304596+39378-074424SOD  +000355N  V030999999999999999999999999999+99999+99999999999ADDAA124000095KA1240M+00505KA2240N+00005OE1124999999999999AOE22240084933099995OE33240047499999995REMSOD28324 HR PRECIPITATION (IN): 0.00 24 HR MAX TEMP (F): 4124 HR MIN TEMP (F): 32 FASTEST 2MIN SPEED (MPH): 19FASTEST 2MIN DIR (DEG):330 FASTEST 2MIN TIME (LST):     AVERAGE WIND SPEED (MPH):10.6 24 HR AVG TEMP (F): 37DEPART FROM NORMAL:-11  HEATING DEGREE DAYS: 28 COOLING DEGREE DAYS:  0
0389999999137242021040404596+39378-074424SOD  +000355N  V030999999999999999999999999999+99999+99999999999ADDAA124000095KA1240M+01065KA2240N-00055OE1124999999999999AOE22240062633099995OE33240032699999995REMSOD28324 HR PRECIPITATION (IN): 0.00 24 HR MAX TEMP (F): 5124 HR MIN TEMP (F): 31 FASTEST 2MIN SPEED (MPH): 14FASTEST 2MIN DIR (DEG):330 FASTEST 2MIN TIME (LST):     AVERAGE WIND SPEED (MPH): 7.3 24 HR AVG TEMP (F): 41DEPART FROM NORMAL: -7  HEATING DEGREE DAYS: 24 COOLING DEGREE DAYS:  0
0389999999137242021040504596+39378-074424SOD  +000355N  V030999999999999999999999999999+99999+99999999999ADDAA124000095KA1240M+01225KA2240N+00725OE1124999999999999AOE22240067123099995OE33240030499999995REMSOD28324 HR PRECIPITATION (IN): 0.00 24 HR MAX TEMP (F): 5424 HR MIN TEMP (F): 45 FASTEST 2MIN SPEED (MPH): 15FASTEST 2MIN DIR (DEG):230 FASTEST 2MIN TIME (LST):     AVERAGE WIND SPEED (MPH): 6.8 24 HR AVG TEMP (F): 50DEPART FROM NORMAL:  2  HEATING DEGREE DAYS: 15 COOLING DEGREE DAYS:  0
0389999999137242021040604596+39378-074424SOD  +000355N  V030999999999999999999999999999+99999+99999999999ADDAA124000095KA1240M+02005KA2240N+00785OE1124999999999999AOE22240080533099995OE33240038999999995REMSOD28324 HR PRECIPITATION (IN): 0.00 24 HR MAX TEMP (F): 6824 HR MIN TEMP (F): 46 FASTEST 2MIN SPEED (MPH): 18FASTEST 2MIN DIR (DEG):330 FASTEST 2MIN TIME (LST):     AVERAGE WIND SPEED (MPH): 8.7 24 HR AVG TEMP (F): 57DEPART FROM NORMAL:  9  HEATING DEGREE DAYS:  8 COOLING DEGREE DAYS:  0
0389999999137242021040704596+39378-074424SOD  +000355N  V030999999999999999999999999999+99999+99999999999ADDAA124000095KA1240M+01945KA2240N+01005OE1124999999999999AOE22240067133099995OE33240029599999995REMSOD28324 HR PRECIPITATION (IN): 0.00 24 HR MAX TEMP (F): 6724 HR MIN TEMP (F): 50 FASTEST 2MIN SPEED (MPH): 15FASTEST 2MIN DIR (DEG):330 FASTEST 2MIN TIME (LST):     AVERAGE WIND SPEED (MPH): 6.6 24 HR AVG TEMP (F): 59DEPART FROM NORMAL: 10  HEATING DEGREE DAYS:  6 COOLING DEGREE DAYS:  0
0408999999137242021040804596+39378-074424SOD  +000355N  V030999999999999999999999999999+99999+99999999999ADDAA12400039AKA1240M+01445KA2240N+00895OE1124999999999999AOE22240049212099995OE33240022499999995REMSOD28324 HR PRECIPITATION (IN): 0.01 24 HR MAX TEMP (F): 5824 HR MIN TEMP (F): 48 FASTEST 2MIN SPEED (MPH): 11FASTEST 2MIN DIR (DEG):120 FASTEST 2MIN TIME (LST):     AVERAGE WIND SPEED (MPH): 5.0 24 HR AVG TEMP (F): 53DEPART FROM NORMAL:  4  HEATING DEGREE DAYS: 12 COOLING DEGREE DAYS:  0EQDR01  0.017AAP092
0389999999137242021040904596+39378-074424SOD  +000355N  V030999999999999999999999999999+99999+99999999999ADDAA124000095KA1240M+01395KA2240N+00895OE1124999999999999AOE22240044711099995OE33240023799999995REMSOD28324 HR PRECIPITATION (IN): 0.00 24 HR MAX TEMP (F): 5724 HR MIN TEMP (F): 48 FASTEST 2MIN SPEED (MPH): 10FASTEST 2MIN DIR (DEG):110 FASTEST 2MIN TIME (LST):     AVERAGE WIND SPEED (MPH): 5.3 24 HR AVG TEMP (F): 53DEPART FROM NORMAL:  4  HEATING DEGREE DAYS: 12 COOLING DEGREE DAYS:  0
0389999999137242021041004596+39378-074424SOD  +000355N  V030999999999999999999999999999+99999+99999999999ADDAA124000095KA1240M+01065KA2240N+00945OE1124999999999999AOE22240053609099995OE33240033199999995REMSOD28324 HR PRECIPITATION (IN): 0.00 24 HR MAX TEMP (F): 5124 HR MIN TEMP (F): 49 FASTEST 2MIN SPEED (MPH): 12FASTEST 2MIN DIR (DEG): 90 FASTEST 2MIN TIME (LST):     AVERAGE WIND SPEED (MPH): 7.4 24 HR AVG TEMP (F): 50DEPART FROM NORMAL:  0  HEATING DEGREE DAYS: 15 COOLING DEGREE DAYS:  0
0408999999137242021041104596+39378-074424SOD  +000355N  V030999999999999999999999999999+99999+99999999999ADDAA12400059AKA1240M+01445KA2240N+01065OE1124999999999999AOE22240053617099995OE33240025999999995REMSOD28324 HR PRECIPITATION (IN): 0.02 24 HR MAX TEMP (F): 5824 HR MIN TEMP (F): 51 FASTEST 2MIN SPEED (MPH): 12FASTEST 2MIN DIR (DEG):170 FASTEST 2MIN TIME (LST):     AVERAGE WIND SPEED (MPH): 5.8 24 HR AVG TEMP (F): 55DEPART FROM NORMAL:  5  HEATING DEGREE DAYS: 10 COOLING DEGREE DAYS:  0EQDR01  0.027AAP092
0408999999137242021041204596+39378-074424SOD  +000355N  V030999999999999999999999999999+99999+99999999999ADDAA12400769AKA1240M+01445KA2240N+01005OE1124999999999999AOE22240084916099995OE33240041699999995REMSOD28324 HR PRECIPITATION (IN): 0.30 24 HR MAX TEMP (F): 5824 HR MIN TEMP (F): 50 FASTEST 2MIN SPEED (MPH): 19FASTEST 2MIN DIR (DEG):160 FASTEST 2MIN TIME (LST):     AVERAGE WIND SPEED (MPH): 9.3 24 HR AVG TEMP (F): 54DEPART FROM NORMAL:  4  HEATING DEGREE DAYS: 11 COOLING DEGREE DAYS:  0EQDR01  0.307AAP092
0408999999137242021041304596+39378-074424SOD  +000355N  V030999999999999999999999999999+99999+99999999999ADDAA12400919AKA1240M+01005KA2240N+00785OE1124999999999999AOE22240084905099995OE33240055499999995REMSOD28324 HR PRECIPITATION (IN): 0.36 24 HR MAX TEMP (F): 5024 HR MIN TEMP (F): 46 FASTEST 2MIN SPEED (MPH): 19FASTEST 2MIN DIR (DEG): 50 FASTEST 2MIN TIME (LST):     AVERAGE WIND SPEED (MPH):12.4 24 HR AVG TEMP (F): 48DEPART FROM NORMAL: -2  HEATING DEGREE DAYS: 17 COOLING DEGREE DAYS:  0EQDR01  0.367AAP092
0389999999137242021041404596+39378-074424SOD  +000355N  V030999999999999999999999999999+99999+99999999999ADDAA124000095KA1240M+01115KA2240N+00785OE1124999999999999AOE22240067110099995OE33240038099999995REMSOD28324 HR PRECIPITATION (IN): 0.00 24 HR MAX TEMP (F): 5224 HR MIN TEMP (F): 46 FASTEST 2MIN SPEED (MPH): 15FASTEST 2MIN DIR (DEG):100 FASTEST 2MIN TIME (LST):     AVERAGE WIND SPEED (MPH): 8.5 24 HR AVG TEMP (F): 49DEPART FROM NORMAL: -2  HEATING DEGREE DAYS: 16 COOLING DEGREE DAYS:  0
0408999999137242021041504596+39378-074424SOD  +000355N  V030999999999999999999999999999+99999+99999999999ADDAA12400039AKA1240M+01675KA2240N+00945OE1124999999999999AOE22240067122099995OE33240037199999995REMSOD28324 HR PRECIPITATION (IN): 0.01 24 HR MAX TEMP (F): 6224 HR MIN TEMP (F): 49 FASTEST 2MIN SPEED (MPH): 15FASTEST 2MIN DIR (DEG):220 FASTEST 2MIN TIME (LST):     AVERAGE WIND SPEED (MPH): 8.3 24 HR AVG TEMP (F): 56DEPART FROM NORMAL:  5  HEATING DEGREE DAYS:  9 COOLING DEGREE DAYS:  0EQDR01  0.017AAP092
0408999999137242021041604596+39378-074424SOD  +000355N  V030999999999999999999999999999+99999+99999999999ADDAA12401329AKA1240M+01505KA2240N+01005OE1124999999999999AOE22240049233099995OE33240019799999995REMSOD28324 HR PRECIPITATION (IN): 0.52 24 HR MAX TEMP (F): 5924 HR MIN TEMP (F): 50 FASTEST 2MIN SPEED (MPH): 11FASTEST 2MIN DIR (DEG):330 FASTEST 2MIN TIME (LST):     AVERAGE WIND SPEED (MPH): 4.4 24 HR AVG TEMP (F): 55DEPART FROM NORMAL:  4  HEATING DEGREE DAYS: 10 COOLING DEGREE DAYS:  0EQDR01  0.527AAP092
0389999999137242021041704596+39378-074424SOD  +000355N  V030999999999999999999999999999+99999+99999999999ADDAA124000095KA1240M+01335KA2240N+00615OE1124999999999999AOE22240089429099995OE33240044799999995REMSOD28324 HR PRECIPITATION (IN): 0.00 24 HR MAX TEMP (F): 5624 HR MIN TEMP (F): 43 FASTEST 2MIN SPEED (MPH): 20FASTEST 2MIN DIR (DEG):290 FASTEST 2MIN TIME (LST):     AVERAGE WIND SPEED (MPH):10.0 24 HR AVG TEMP (F): 50DEPART FROM NORMAL: -2  HEATING DEGREE DAYS: 15 COOLING DEGREE DAYS:  0
0389999999137242021041804596+39378-074424SOD  +000355N  V030999999999999999999999999999+99999+99999999999ADDAA124000095KA1240M+01335KA2240N+00725OE1124999999999999AOE22240044733099995OE33240024699999995REMSOD28324 HR PRECIPITATION (IN): 0.00 24 HR MAX TEMP (F): 5624 HR MIN TEMP (F): 45 FASTEST 2MIN SPEED (MPH): 10FASTEST 2MIN DIR (DEG):330 FASTEST 2MIN TIME (LST):     AVERAGE WIND SPEED (MPH): 5.5 24 HR AVG TEMP (F): 51DEPART FROM NORMAL: -1  HEATING DEGREE DAYS: 14 COOLING DEGREE DAYS:  0
0389999999137242021041904596+39378-074424SOD  +000355N  V030999999999999999999999999999+99999+99999999999ADDAA124000095KA1240M+01505KA2240N+00835OE1124999999999999AOE22240062622099995OE33240033199999995REMSOD28324 HR PRECIPITATION (IN): 0.00 24 HR MAX TEMP (F): 5924 HR MIN TEMP (F): 47 FASTEST 2MIN SPEED (MPH): 14FASTEST 2MIN DIR (DEG):220 FASTEST 2MIN TIME (LST):     AVERAGE WIND SPEED (MPH): 7.4 24 HR AVG TEMP (F): 53DEPART FROM NORMAL:  1  HEATING DEGREE DAYS: 12 COOLING DEGREE DAYS:  0
0389999999137242021042004596+39378-074424SOD  +000355N  V030999999999999999999999999999+99999+99999999999ADDAA124000095KA1240M+01565KA2240N+01065OE1124999999999999AOE22240049229099995OE33240031399999995REMSOD28324 HR PRECIPITATION (IN): 0.00 24 HR MAX TEMP (F): 6024 HR MIN TEMP (F): 51 FASTEST 2MIN SPEED (MPH): 11FASTEST 2MIN DIR (DEG):290 FASTEST 2MIN TIME (LST):     AVERAGE WIND SPEED (MPH): 7.0 24 HR AVG TEMP (F): 56DEPART FROM NORMAL:  3  HEATING DEGREE DAYS:  9 COOLING DEGREE DAYS:  0
0389999999137242021042104596+39378-074424SOD  +000355N  V030999999999999999999999999999+99999+99999999999ADDAA124000095KA1240M+01505KA2240N+00945OE1124999999999999AOE22240053627099995OE33240038499999995REMSOD28324 HR PRECIPITATION (IN): 0.00 24 HR MAX TEMP (F): 5924 HR MIN TEMP (F): 49 FASTEST 2MIN SPEED (MPH): 12FASTEST 2MIN DIR (DEG):270 FASTEST 2MIN TIME (LST):     AVERAGE WIND SPEED (MPH): 8.6 24 HR AVG TEMP (F): 54DEPART FROM NORMAL:  1  HEATING DEGREE DAYS: 11 COOLING DEGREE DAYS:  0
0435999999137242021042204596+39378-074424SOD  +000355N  V030999999999999999999999999999+99999+99999999999ADDAA12400369AKA1240M+01565KA2240N+00565OE11240183328099995OE22240107328099995REMSOD32924 HR PRECIPITATION (IN): 0.14 24 HR MAX TEMP (F): 6024 HR MIN TEMP (F): 42PEAK WIND SPEED (MPH): 41 PEAK WIND DIR (DEG):280 PEAK WIND TIME (LST):      FASTEST 2MIN SPEED (MPH): 24FASTEST 2MIN DIR (DEG):280 FASTEST 2MIN TIME (LST):     24 HR AVG TEMP (F): 51DEPART FROM NORMAL: -2  HEATING DEGREE DAYS: 14 COOLING DEGREE DAYS:  0EQDR01  0.147AAP092
0416999999137242021042304596+39378-074424SOD  +000355N  V030999999999999999999999999999+99999+99999999999ADDAA124000095KA1240M+00945KA2240N+00285OE1124019223009999POE2224009832909999PREMSOD32924 HR PRECIPITATION (IN): 0.00 24 HR MAX TEMP (F): 4924 HR MIN TEMP (F): 37PEAK WIND SPEED (MPH): 43 PEAK WIND DIR (DEG):306 PEAK WIND TIME (LST):      FASTEST 2MIN SPEED (MPH): 22FASTEST 2MIN DIR (DEG):286 FASTEST 2MIN TIME (LST):     24 HR AVG TEMP (F): 43DEPART FROM NORMAL:-11  HEATING DEGREE DAYS: 22 COOLING DEGREE DAYS:  0
0340999999137242021042404596+39378-074424SOD  +000355N  V030999999999999999999999999999+99999+99999999999ADDAA124000095KA1240M+01505KA2240N+00565OE1124999999999999AOE22240089429099995REMSOD25324 HR PRECIPITATION (IN): 0.00 24 HR MAX TEMP (F): 5924 HR MIN TEMP (F): 42 FASTEST 2MIN SPEED (MPH): 20FASTEST 2MIN DIR (DEG):290 FASTEST 2MIN TIME (LST):     24 HR AVG TEMP (F): 51DEPART FROM NORMAL: -3  HEATING DEGREE DAYS: 14 COOLING DEGREE DAYS:  0
0435999999137242021042504596+39378-074424SOD  +000355N  V030999999999999999999999999999+99999+99999999999ADDAA12400059AKA1240M+01675KA2240N+00895OE1124011182109999POE2224006262109999PREMSOD32924 HR PRECIPITATION (IN): 0.02 24 HR MAX TEMP (F): 6224 HR MIN TEMP (F): 48PEAK WIND SPEED (MPH): 25 PEAK WIND DIR (DEG):209 PEAK WIND TIME (LST):      FASTEST 2MIN SPEED (MPH): 14FASTEST 2MIN DIR (DEG):209 FASTEST 2MIN TIME (LST):     24 HR AVG TEMP (F): 55DEPART FROM NORMAL:  1  HEATING DEGREE DAYS: 10 COOLING DEGREE DAYS:  0EQDR01  0.027AAP092
0359999999137242021042604596+39378-074424SOD  +000355N  V030999999999999999999999999999+99999+99999999999ADDAA12402319AKA1240M+01725KA2240N+00945OE1124999999999999AOE22240067105099995REMSOD25324 HR PRECIPITATION (IN): 0.91 24 HR MAX TEMP (F): 6324 HR MIN TEMP (F): 49 FASTEST 2MIN SPEED (MPH): 15FASTEST 2MIN DIR (DEG): 50 FASTEST 2MIN TIME (LST):     24 HR AVG TEMP (F): 56DEPART FROM NORMAL:  2  HEATING DEGREE DAYS:  9 COOLING DEGREE DAYS:  0EQDR01  0.917AAP092
0435999999137242021042704596+39378-074424SOD  +000355N  V030999999999999999999999999999+99999+99999999999ADDAA124000095KA1240M+01615KA2240N+00785OE1124014753309999POE2224008493209999PREMSOD32924 HR PRECIPITATION (IN): 0.00 24 HR MAX TEMP (F): 6124 HR MIN TEMP (F): 46PEAK WIND SPEED (MPH): 33 PEAK WIND DIR (DEG):333 PEAK WIND TIME (LST):      FASTEST 2MIN SPEED (MPH): 19FASTEST 2MIN DIR (DEG):    FASTEST 2MIN TIME (LST):     24 HR AVG TEMP (F): 54DEPART FROM NORMAL: -1  HEATING DEGREE DAYS: 11 COOLING DEGREE DAYS:  0EQDR01    197SOE083
0435999999137242021042804596+39378-074424SOD  +000355N  V030999999999999999999999999999+99999+99999999999ADDAA124000095KA1240M+01615KA2240N+01005OE1124009392209999POE2224006262109999PREMSOD32924 HR PRECIPITATION (IN): 0.00 24 HR MAX TEMP (F): 6124 HR MIN TEMP (F): 50PEAK WIND SPEED (MPH): 21 PEAK WIND DIR (DEG):219 PEAK WIND TIME (LST):      FASTEST 2MIN SPEED (MPH): 14FASTEST 2MIN DIR (DEG):    FASTEST 2MIN TIME (LST):     24 HR AVG TEMP (F): 56DEPART FROM NORMAL:  1  HEATING DEGREE DAYS:  9 COOLING DEGREE DAYS:  0EQDR01    147SOE083
0416999999137242021042904596+39378-074424SOD  +000355N  V030999999999999999999999999999+99999+99999999999ADDAA124000095KA1240M+02565KA2240N+01445OE1124008942309999POE2224006262209999PREMSOD32924 HR PRECIPITATION (IN): 0.00 24 HR MAX TEMP (F): 7824 HR MIN TEMP (F): 58PEAK WIND SPEED (MPH): 20 PEAK WIND DIR (DEG):    PEAK WIND TIME (LST):      FASTEST 2MIN SPEED (MPH): 14FASTEST 2MIN DIR (DEG):225 FASTEST 2MIN TIME (LST):     24 HR AVG TEMP (F): 68DEPART FROM NORMAL: 13  HEATING DEGREE DAYS:  0 COOLING DEGREE DAYS:  3
0484999999137242021043004596+39378-074424SOD  +000355N  V030999999999999999999999999999+99999+99999999999ADDAA12400059AKA1240M+02615KA2240N+01565OE11240156520099995OE22240076023099995OE33240037199999995REMSOD35924 HR PRECIPITATION (IN): 0.02 24 HR MAX TEMP (F): 7924 HR MIN TEMP (F): 60PEAK WIND SPEED (MPH): 35 PEAK WIND DIR (DEG):200 PEAK WIND TIME (LST):      FASTEST 2MIN SPEED (MPH): 17FASTEST 2MIN DIR (DEG):230 FASTEST 2MIN TIME (LST):     AVERAGE WIND SPEED (MPH): 8.3 24 HR AVG TEMP (F): 70DEPART FROM NORMAL: 14  HEATING DEGREE DAYS:  0 COOLING DEGREE DAYS:  5EQDR01  0.027AAP092
0484999999137242021050104596+39378-074424SOD  +000355N  V030999999999999999999999999999+99999+99999999999ADDAA12400059AKA1240M+02285KA2240N+01005OE11240254830099995OE22240102829099995OE33240066699999995REMSOD35924 HR PRECIPITATION (IN): 0.02 24 HR MAX TEMP (F): 7324 HR MIN TEMP (F): 50PEAK WIND SPEED (MPH): 57 PEAK WIND DIR (DEG):300 PEAK WIND TIME (LST):      FASTEST 2MIN SPEED (MPH): 23FASTEST 2MIN DIR (DEG):290 FASTEST 2MIN TIME (LST):     AVERAGE WIND SPEED (MPH):14.9 24 HR AVG TEMP (F): 62DEPART FROM NORMAL:  6  HEATING DEGREE DAYS:  3 COOLING DEGREE DAYS:  0EQDR01  0.027AAP092
0128999999137242021050104596+39378-074424SOM  +000355N  V030999999999999999999999999999+99999+99999999999ADDAD1002319252599999999PAE112U05U02U00UKB1240N+0811IKB2240M+1517IKB3240A+1167UKC1N9-0006039999IKC2M9+0261299999IKE100U00U02U00U
0465999999137242021050204596+39378-074424SOD  +000355N  V030999999999999999999999999999+99999+99999999999ADDAA124000095KA1240M+01895KA2240N+00785OE11240183333099995OE22240093933099995OE33240048399999995REMSOD35924 HR PRECIPITATION (IN): 0.00 24 HR MAX TEMP (F): 6624 HR MIN TEMP (F): 46PEAK WIND SPEED (MPH): 41 PEAK WIND DIR (DEG):330 PEAK WIND TIME (LST):      FASTEST 2MIN SPEED (MPH): 21FASTEST 2MIN DIR (DEG):330 FASTEST 2MIN TIME (LST):     AVERAGE WIND SPEED (MPH):10.8 24 HR AVG TEMP (F): 56DEPART FROM NORMAL:  0  HEATING DEGREE DAYS:  9 COOLING DEGREE DAYS:  0
0465999999137242021050304596+39378-074424SOD  +000355N  V030999999999999999999999999999+99999+99999999999ADDAA124000095KA1240M+02225KA2240N+01285OE11240125223099995OE22240089424099995OE33240053299999995REMSOD35924 HR PRECIPITATION (IN): 0.00 24 HR MAX TEMP (F): 7224 HR MIN TEMP (F): 55PEAK WIND SPEED (MPH): 28 PEAK WIND DIR (DEG):230 PEAK WIND TIME (LST):      FASTEST 2MIN SPEED (MPH): 20FASTEST 2MIN DIR (DEG):240 FASTEST 2MIN TIME (LST):     AVERAGE WIND SPEED (MPH):11.9 24 HR AVG TEMP (F): 64DEPART FROM NORMAL:  8  HEATING DEGREE DAYS:  1 COOLING DEGREE DAYS:  0
0484999999137242021050404596+39378-074424SOD  +000355N  V030999999999999999999999999999+99999+99999999999ADDAA12400289AKA1240M+02225KA2240N+01335OE11240138623099995OE22240089423099995OE33240038499999995REMSOD35924 HR PRECIPITATION (IN): 0.11 24 HR MAX TEMP (F): 7224 HR MIN TEMP (F): 56PEAK WIND SPEED (MPH): 31 PEAK WIND DIR (DEG):230 PEAK WIND TIME (LST):      FASTEST 2MIN SPEED (MPH): 20FASTEST 2MIN DIR (DEG):230 FASTEST 2MIN TIME (LST):     AVERAGE WIND SPEED (MPH): 8.6 24 HR AVG TEMP (F): 64DEPART FROM NORMAL:  7  HEATING DEGREE DAYS:  1 COOLING DEGREE DAYS:  0EQDR01  0.117AAP092
0484999999137242021050504596+39378-074424SOD  +000355N  V030999999999999999999999999999+99999+99999999999ADDAA12400039AKA1240M+02065KA2240N+01285OE11240116218099995OE22240071523099995OE33240036299999995REMSOD35924 HR PRECIPITATION (IN): 0.01 24 HR MAX TEMP (F): 6924 HR MIN TEMP (F): 55PEAK WIND SPEED (MPH): 26 PEAK WIND DIR (DEG):180 PEAK WIND TIME (LST):      FASTEST 2MIN SPEED (MPH): 16FASTEST 2MIN DIR (DEG):230 FASTEST 2MIN TIME (LST):     AVERAGE WIND SPEED (MPH): 8.1 24 HR AVG TEMP (F): 62DEPART FROM NORMAL:  5  HEATING DEGREE DAYS:  3 COOLING DEGREE DAYS:  0EQDR01  0.017AAP092
0484999999137242021050604596+39378-074424SOD  +000355N  V030999999999999999999999999999+99999+99999999999ADDAA12400089AKA1240M+01725KA2240N+01225OE11240125233099995OE22240071533099995OE33240024699999995REMSOD35924 HR PRECIPITATION (IN): 0.03 24 HR MAX TEMP (F): 6324 HR MIN TEMP (F): 54PEAK WIND SPEED (MPH): 28 PEAK WIND DIR (DEG):330 PEAK WIND TIME (LST):      FASTEST 2MIN SPEED (MPH): 16FASTEST 2MIN DIR (DEG):330 FASTEST 2MIN TIME (LST):     AVERAGE WIND SPEED (MPH): 5.5 24 HR AVG TEMP (F): 59DEPART FROM NORMAL:  2  HEATING DEGREE DAYS:  6 COOLING DEGREE DAYS:  0EQDR01  0.037AAP092
0484999999137242021050704596+39378-074424SOD  +000355N  V030999999999999999999999999999+99999+99999999999ADDAA12400089AKA1240M+01725KA2240N+01065OE11240116233099995OE22240062633099995OE33240030899999995REMSOD35924 HR PRECIPITATION (IN): 0.03 24 HR MAX TEMP (F): 6324 HR MIN TEMP (F): 51PEAK WIND SPEED (MPH): 26 PEAK WIND DIR (DEG):330 PEAK WIND TIME (LST):      FASTEST 2MIN SPEED (MPH): 14FASTEST 2MIN DIR (DEG):330 FASTEST 2MIN TIME (LST):     AVERAGE WIND SPEED (MPH): 6.9 24 HR AVG TEMP (F): 57DEPART FROM NORMAL: -1  HEATING DEGREE DAYS:  8 COOLING DEGREE DAYS:  0EQDR01  0.037AAP092
0465999999137242021050804596+39378-074424SOD  +000355N  V030999999999999999999999999999+99999+99999999999ADDAA124000095KA1240M+01395KA2240N+01065OE11240089409099995OE22240062609099995OE33240032299999995REMSOD35924 HR PRECIPITATION (IN): 0.00 24 HR MAX TEMP (F): 5724 HR MIN TEMP (F): 51PEAK WIND SPEED (MPH): 20 PEAK WIND DIR (DEG): 90 PEAK WIND TIME (LST):      FASTEST 2MIN SPEED (MPH): 14FASTEST 2MIN DIR (DEG): 90 FASTEST 2MIN TIME (LST):     AVERAGE WIND SPEED (MPH): 7.2 24 HR AVG TEMP (F): 54DEPART FROM NORMAL: -4  HEATING DEGREE DAYS: 11 COOLING DEGREE DAYS:  0
0465999999137242021050904596+39378-074424SOD  +000355N  V030999999999999999999999999999+99999+99999999999ADDAA124000095KA1240M+01395KA2240N+00945OE11240120729099995OE22240071530099995OE33240037199999995REMSOD35924 HR PRECIPITATION (IN): 0.00 24 HR MAX TEMP (F): 5724 HR MIN TEMP (F): 49PEAK WIND SPEED (MPH): 27 PEAK WIND DIR (DEG):290 PEAK WIND TIME (LST):      FASTEST 2MIN SPEED (MPH): 16FASTEST 2MIN DIR (DEG):300 FASTEST 2MIN TIME (LST):     AVERAGE WIND SPEED (MPH): 8.3 24 HR AVG TEMP (F): 53DEPART FROM NORMAL: -5  HEATING DEGREE DAYS: 12 COOLING DEGREE DAYS:  0
0465999999137242021051004596+39378-074424SOD  +000355N  V030999999999999999999999999999+99999+99999999999ADDAA124000095KA1240M+01565KA2240N+00785OE11240129623099995OE22240071523099995OE33240035399999995REMSOD35924 HR PRECIPITATION (IN): 0.00 24 HR MAX TEMP (F): 6024 HR MIN TEMP (F): 46PEAK WIND SPEED (MPH): 29 PEAK WIND DIR (DEG):230 PEAK WIND TIME (LST):      FASTEST 2MIN SPEED (MPH): 16FASTEST 2MIN DIR (DEG):230 FASTEST 2MIN TIME (LST):     AVERAGE WIND SPEED (MPH): 7.9 24 HR AVG TEMP (F): 53DEPART FROM NORMAL: -5  HEATING DEGREE DAYS: 12 COOLING DEGREE DAYS:  0
0465999999137242021051104596+39378-074424SOD  +000355N  V030999999999999999999999999999+99999+99999999999ADDAA124000095KA1240M+01725KA2240N+01225OE11240152023099995OE22240089423099995OE33240036299999995REMSOD35924 HR PRECIPITATION (IN): 0.00 24 HR MAX TEMP (F): 6324 HR MIN TEMP (F): 54PEAK WIND SPEED (MPH): 34 PEAK WIND DIR (DEG):230 PEAK WIND TIME (LST):      FASTEST 2MIN SPEED (MPH): 20FASTEST 2MIN DIR (DEG):230 FASTEST 2MIN TIME (LST):     AVERAGE WIND SPEED (MPH): 8.1 24 HR AVG TEMP (F): 59DEPART FROM NORMAL:  0  HEATING DEGREE DAYS:  6 COOLING DEGREE DAYS:  0
0465999999137242021051204596+39378-074424SOD  +000355N  V030999999999999999999999999999+99999+99999999999ADDAA124000095KA1240M+01835KA2240N+00945OE11240420229099995OE22240080524099995OE33240038099999995REMSOD35924 HR PRECIPITATION (IN): 0.00 24 HR MAX TEMP (F): 6524 HR MIN TEMP (F): 49PEAK WIND SPEED (MPH): 94 PEAK WIND DIR (DEG):290 PEAK WIND TIME (LST):      FASTEST 2MIN SPEED (MPH): 18FASTEST 2MIN DIR (DEG):240 FASTEST 2MIN TIME (LST):     AVERAGE WIND SPEED (MPH): 8.5 24 HR AVG TEMP (F): 57DEPART FROM NORMAL: -2  HEATING DEGREE DAYS:  8 COOLING DEGREE DAYS:  0
0465999999137242021051304596+39378-074424SOD  +000355N  V030999999999999999999999999999+99999+99999999999ADDAA124000095KA1240M+01675KA2240N+00895OE11240093933099995OE22240053618099995OE33240029199999995REMSOD35924 HR PRECIPITATION (IN): 0.00 24 HR MAX TEMP (F): 6224 HR MIN TEMP (F): 48PEAK WIND SPEED (MPH): 21 PEAK WIND DIR (DEG):330 PEAK WIND TIME (LST):      FASTEST 2MIN SPEED (MPH): 12FASTEST 2MIN DIR (DEG):180 FASTEST 2MIN TIME (LST):     AVERAGE WIND SPEED (MPH): 6.5 24 HR AVG TEMP (F): 55DEPART FROM NORMAL: -4  HEATING DEGREE DAYS: 10 COOLING DEGREE DAYS:  0
0465999999137242021051404596+39378-074424SOD  +000355N  V030999999999999999999999999999+99999+99999999999ADDAA124000095KA1240M+01725KA2240N+01005OE11240080534099995OE22240058112099995OE33240030899999995REMSOD35924 HR PRECIPITATION (IN): 0.00 24 HR MAX TEMP (F): 6324 HR MIN TEMP (F): 50PEAK WIND SPEED (MPH): 18 PEAK WIND DIR (DEG):340 PEAK WIND TIME (LST):      FASTEST 2MIN SPEED (MPH): 13FASTEST 2MIN DIR (DEG):120 FASTEST 2MIN TIME (LST):     AVERAGE WIND SPEED (MPH): 6.9 24 HR AVG TEMP (F): 57DEPART FROM NORMAL: -2  HEATING DEGREE DAYS:  8 COOLING DEGREE DAYS:  0
0465999999137242021051504596+39378-074424SOD  +000355N  V030999999999999999999999999999+99999+99999999999ADDAA124000095KA1240M+01895KA2240N+01225OE11240089422099995OE22240053622099995OE33240032299999995REMSOD35924 HR PRECIPITATION (IN): 0.00 24 HR MAX TEMP (F): 6624 HR MIN TEMP (F): 54PEAK WIND SPEED (MPH): 20 PEAK WIND DIR (DEG):220 PEAK WIND TIME (LST):      FASTEST 2MIN SPEED (MPH): 12FASTEST 2MIN DIR (DEG):220 FASTEST 2MIN TIME (LST):     AVERAGE WIND SPEED (MPH): 7.2 24 HR AVG TEMP (F): 60DEPART FROM NORMAL:  0  HEATING DEGREE DAYS:  5 COOLING DEGREE DAYS:  0
0465999999137242021051604596+39378-074424SOD  +000355N  V030999999999999999999999999999+99999+99999999999ADDAA124000095KA1240M+01945KA2240N+01445OE11240093923099995OE22240062623099995OE33240036799999995REMSOD35924 HR PRECIPITATION (IN): 0.00 24 HR MAX TEMP (F): 6724 HR MIN TEMP (F): 58PEAK WIND SPEED (MPH): 21 PEAK WIND DIR (DEG):230 PEAK WIND TIME (LST):      FASTEST 2MIN SPEED (MPH): 14FASTEST 2MIN DIR (DEG):230 FASTEST 2MIN TIME (LST):     AVERAGE WIND SPEED (MPH): 8.2 24 HR AVG TEMP (F): 63DEPART FROM NORMAL:  3  HEATING DEGREE DAYS:  2 COOLING DEGREE DAYS:  0
0465999999137242021051704596+39378-074424SOD  +000355N  V030999999999999999999999999999+99999+99999999999ADDAA124000095KA1240M+01835KA2240N+01225OE11240076020099995OE22240049220099995OE33240027399999995REMSOD35924 HR PRECIPITATION (IN): 0.00 24 HR MAX TEMP (F): 6524 HR MIN TEMP (F): 54PEAK WIND SPEED (MPH): 17 PEAK WIND DIR (DEG):200 PEAK WIND TIME (LST):      FASTEST 2MIN SPEED (MPH): 11FASTEST 2MIN DIR (DEG):200 FASTEST 2MIN TIME (LST):     AVERAGE WIND SPEED (MPH): 6.1 24 HR AVG TEMP (F): 60DEPART FROM NORMAL:  0  HEATING DEGREE DAYS:  5 COOLING DEGREE DAYS:  0
0465999999137242021051804596+39378-074424SOD  +000355N  V030999999999999999999999999999+99999+99999999999ADDAA124000095KA1240M+01835KA2240N+01335OE11240093919099995OE22240058121099995OE33240028699999995REMSOD35924 HR PRECIPITATION (IN): 0.00 24 HR MAX TEMP (F): 6524 HR MIN TEMP (F): 56PEAK WIND SPEED (MPH): 21 PEAK WIND DIR (DEG):190 PEAK WIND TIME (LST):      FASTEST 2MIN SPEED (MPH): 13FASTEST 2MIN DIR (DEG):210 FASTEST 2MIN TIME (LST):     AVERAGE WIND SPEED (MPH): 6.4 24 HR AVG TEMP (F): 61DEPART FROM NORMAL:  1  HEATING DEGREE DAYS:  4 COOLING DEGREE DAYS:  0
0465999999137242021051904596+39378-074424SOD  +000355N  V030999999999999999999999999999+99999+99999999999ADDAA124000095KA1240M+02175KA2240N+01395OE11240111820099995OE22240071522099995OE33240043899999995REMSOD35924 HR PRECIPITATION (IN): 0.00 24 HR MAX TEMP (F): 7124 HR MIN TEMP (F): 57PEAK WIND SPEED (MPH): 25 PEAK WIND DIR (DEG):200 PEAK WIND TIME (LST):      FASTEST 2MIN SPEED (MPH): 16FASTEST 2MIN DIR (DEG):220 FASTEST 2MIN TIME (LST):     AVERAGE WIND SPEED (MPH): 9.8 24 HR AVG TEMP (F): 64DEPART FROM NORMAL:  3  HEATING DEGREE DAYS:  1 COOLING DEGREE DAYS:  0
0465999999137242021052004596+39378-074424SOD  +000355N  V030999999999999999999999999999+99999+99999999999ADDAA124000095KA1240M+02725KA2240N+01615OE11240107328099995OE22240062627099995OE33240035899999995REMSOD35924 HR PRECIPITATION (IN): 0.00 24 HR MAX TEMP (F): 8124 HR MIN TEMP (F): 61PEAK WIND SPEED (MPH): 24 PEAK WIND DIR (DEG):280 PEAK WIND TIME (LST):      FASTEST 2MIN SPEED (MPH): 14FASTEST 2MIN DIR (DEG):270 FASTEST 2MIN TIME (LST):     AVERAGE WIND SPEED (MPH): 8.0 24 HR AVG TEMP (F): 71DEPART FROM NORMAL: 10  HEATING DEGREE DAYS:  0 COOLING DEGREE DAYS:  6
0465999999137242021052104596+39378-074424SOD  +000355N  V030999999999999999999999999999+99999+99999999999ADDAA124000095KA1240M+01895KA2240N+01505OE11240076015099995OE22240053611099995OE33240035899999995REMSOD35924 HR PRECIPITATION (IN): 0.00 24 HR MAX TEMP (F): 6624 HR MIN TEMP (F): 59PEAK WIND SPEED (MPH): 17 PEAK WIND DIR (DEG):150 PEAK WIND TIME (LST):      FASTEST 2MIN SPEED (MPH): 12FASTEST 2MIN DIR (DEG):110 FASTEST 2MIN TIME (LST):     AVERAGE WIND SPEED (MPH): 8.0 24 HR AVG TEMP (F): 63DEPART FROM NORMAL:  2  HEATING DEGREE DAYS:  2 COOLING DEGREE DAYS:  0
0465999999137242021052204596+39378-074424SOD  +000355N  V030999999999999999999999999999+99999+99999999999ADDAA124000095KA1240M+01725KA2240N+01335OE11240089423099995OE22240062623099995OE33240033599999995REMSOD35924 HR PRECIPITATION (IN): 0.00 24 HR MAX TEMP (F): 6324 HR MIN TEMP (F): 56PEAK WIND SPEED (MPH): 20 PEAK WIND DIR (DEG):230 PEAK WIND TIME (LST):      FASTEST 2MIN SPEED (MPH): 14FASTEST 2MIN DIR (DEG):230 FASTEST 2MIN TIME (LST):     AVERAGE WIND SPEED (MPH): 7.5 24 HR AVG TEMP (F): 60DEPART FROM NORMAL: -2  HEATING DEGREE DAYS:  5 COOLING DEGREE DAYS:  0
0465999999137242021052304596+39378-074424SOD  +000355N  V030999999999999999999999999999+99999+99999999999ADDAA124000095KA1240M+03115KA2240N+01725OE11240080529099995OE22240049225099995OE33240028699999995REMSOD35924 HR PRECIPITATION (IN): 0.00 24 HR MAX TEMP (F): 8824 HR MIN TEMP (F): 63PEAK WIND SPEED (MPH): 18 PEAK WIND DIR (DEG):290 PEAK WIND TIME (LST):      FASTEST 2MIN SPEED (MPH): 11FASTEST 2MIN DIR (DEG):250 FASTEST 2MIN TIME (LST):     AVERAGE WIND SPEED (MPH): 6.4 24 HR AVG TEMP (F): 76DEPART FROM NORMAL: 14  HEATING DEGREE DAYS:  0 COOLING DEGREE DAYS: 11
0465999999137242021052404596+39378-074424SOD  +000355N  V030999999999999999999999999999+99999+99999999999ADDAA124000095KA1240M+03225KA2240N+02175OE11240138608099995OE22240089408099995OE33240030099999995REMSOD35924 HR PRECIPITATION (IN): 0.00 24 HR MAX TEMP (F): 9024 HR MIN TEMP (F): 71PEAK WIND SPEED (MPH): 31 PEAK WIND DIR (DEG): 80 PEAK WIND TIME (LST):      FASTEST 2MIN SPEED (MPH): 20FASTEST 2MIN DIR (DEG): 80 FASTEST 2MIN TIME (LST):     AVERAGE WIND SPEED (MPH): 6.7 24 HR AVG TEMP (F): 81DEPART FROM NORMAL: 19  HEATING DEGREE DAYS:  0 COOLING DEGREE DAYS: 16
0465999999137242021052504596+39378-074424SOD  +000355N  V030999999999999999999999999999+99999+99999999999ADDAA124000095KA1240M+02175KA2240N+01445OE11240152008099995OE22240111808099995OE33240057799999995REMSOD35924 HR PRECIPITATION (IN): 0.00 24 HR MAX TEMP (F): 7124 HR MIN TEMP (F): 58PEAK WIND SPEED (MPH): 34 PEAK WIND DIR (DEG): 80 PEAK WIND TIME (LST):      FASTEST 2MIN SPEED (MPH): 25FASTEST 2MIN DIR (DEG): 80 FASTEST 2MIN TIME (LST):     AVERAGE WIND SPEED (MPH):12.9 24 HR AVG TEMP (F): 65DEPART FROM NORMAL:  3  HEATING DEGREE DAYS:  0 COOLING DEGREE DAYS:  0
0465999999137242021052604596+39378-074424SOD  +000355N  V030999999999999999999999999999+99999+99999999999ADDAA124000095KA1240M+01785KA2240N+01445OE11240111822099995OE22240071522099995OE33240040299999995REMSOD35924 HR PRECIPITATION (IN): 0.00 24 HR MAX TEMP (F): 6424 HR MIN TEMP (F): 58PEAK WIND SPEED (MPH): 25 PEAK WIND DIR (DEG):220 PEAK WIND TIME (LST):      FASTEST 2MIN SPEED (MPH): 16FASTEST 2MIN DIR (DEG):220 FASTEST 2MIN TIME (LST):     AVERAGE WIND SPEED (MPH): 9.0 24 HR AVG TEMP (F): 61DEPART FROM NORMAL: -2  HEATING DEGREE DAYS:  4 COOLING DEGREE DAYS:  0
0484999999137242021052704596+39378-074424SOD  +000355N  V030999999999999999999999999999+99999+99999999999ADDAA12401079AKA1240M+02115KA2240N+01615OE11240138622099995OE22240084922099995OE33240053699999995REMSOD35924 HR PRECIPITATION (IN): 0.42 24 HR MAX TEMP (F): 7024 HR MIN TEMP (F): 61PEAK WIND SPEED (MPH): 31 PEAK WIND DIR (DEG):220 PEAK WIND TIME (LST):      FASTEST 2MIN SPEED (MPH): 19FASTEST 2MIN DIR (DEG):220 FASTEST 2MIN TIME (LST):     AVERAGE WIND SPEED (MPH):12.0 24 HR AVG TEMP (F): 66DEPART FROM NORMAL:  3  HEATING DEGREE DAYS:  0 COOLING DEGREE DAYS:  1EQDR01  0.427AAP092
0484999999137242021052804596+39378-074424SOD  +000355N  V030999999999999999999999999999+99999+99999999999ADDAA12400209AKA1240M+02785KA2240N+01835OE11240388926099995OE22240058133099995OE33240027799999995REMSOD35924 HR PRECIPITATION (IN): 0.08 24 HR MAX TEMP (F): 8224 HR MIN TEMP (F): 65PEAK WIND SPEED (MPH): 87 PEAK WIND DIR (DEG):260 PEAK WIND TIME (LST):      FASTEST 2MIN SPEED (MPH): 13FASTEST 2MIN DIR (DEG):330 FASTEST 2MIN TIME (LST):     AVERAGE WIND SPEED (MPH): 6.2 24 HR AVG TEMP (F): 74DEPART FROM NORMAL: 10  HEATING DEGREE DAYS:  0 COOLING DEGREE DAYS:  9EQDR01  0.087AAP092
0484999999137242021052904596+39378-074424SOD  +000355N  V030999999999999999999999999999+99999+99999999999ADDAA12400569AKA1240M+02005KA2240N+01335OE11240178806099995OE22240107305099995OE33240066699999995REMSOD35924 HR PRECIPITATION (IN): 0.22 24 HR MAX TEMP (F): 6824 HR MIN TEMP (F): 56PEAK WIND SPEED (MPH): 40 PEAK WIND DIR (DEG): 60 PEAK WIND TIME (LST):      FASTEST 2MIN SPEED (MPH): 24FASTEST 2MIN DIR (DEG): 50 FASTEST 2MIN TIME (LST):     AVERAGE WIND SPEED (MPH):14.9 24 HR AVG TEMP (F): 62DEPART FROM NORMAL: -2  HEATING DEGREE DAYS:  3 COOLING DEGREE DAYS:  0EQDR01  0.227AAP092
0484999999137242021053004596+39378-074424SOD  +000355N  V030999999999999999999999999999+99999+99999999999ADDAA12402119AKA1240M+01335KA2240N+01115OE11240201206099995OE22240116205099995OE33240085899999995REMSOD35924 HR PRECIPITATION (IN): 0.83 24 HR MAX TEMP (F): 5624 HR MIN TEMP (F): 52PEAK WIND SPEED (MPH): 45 PEAK WIND DIR (DEG): 60 PEAK WIND TIME (LST):      FASTEST 2MIN SPEED (MPH): 26FASTEST 2MIN DIR (DEG): 50 FASTEST 2MIN TIME (LST):     AVERAGE WIND SPEED (MPH):19.2 24 HR AVG TEMP (F): 54DEPART FROM NORMAL:-10  HEATING DEGREE DAYS: 11 COOLING DEGREE DAYS:  0EQDR01  0.837AAP092
0484999999137242021053104596+39378-074424SOD  +000355N  V030999999999999999999999999999+99999+99999999999ADDAA12402039AKA1240M+01225KA2240N+01065OE11240169906099995OE22240093906099995OE33240060499999995REMSOD35924 HR PRECIPITATION (IN): 0.80 24 HR MAX TEMP (F): 5424 HR MIN TEMP (F): 51PEAK WIND SPEED (MPH): 38 PEAK WIND DIR (DEG): 60 PEAK WIND TIME (LST):      FASTEST 2MIN SPEED (MPH): 21FASTEST 2MIN DIR (DEG): 60 FASTEST 2MIN TIME (LST):     AVERAGE WIND SPEED (MPH):13.5 24 HR AVG TEMP (F): 53DEPART FROM NORMAL:-11  HEATING DEGREE DAYS: 12 COOLING DEGREE DAYS:  0EQDR01  0.807AAP092
0465999999137242021060104596+39378-074424SOD  +000355N  V030999999999999999999999999999+99999+99999999999ADDAA124000095KA1240M+02115KA2240N+01005OE11240089422099995OE22240053622099995OE33240029599999995REMSOD35924 HR PRECIPITATION (IN): 0.00 24 HR MAX TEMP (F): 7024 HR MIN TEMP (F): 50PEAK WIND SPEED (MPH): 20 PEAK WIND DIR (DEG):220 PEAK WIND TIME (LST):      FASTEST 2MIN SPEED (MPH): 12FASTEST 2MIN DIR (DEG):220 FASTEST 2MIN TIME (LST):     AVERAGE WIND SPEED (MPH): 6.6 24 HR AVG TEMP (F): 60DEPART FROM NORMAL: -5  HEATING DEGREE DAYS:  5 COOLING DEGREE DAYS:  0
0128999999137242021060104596+39378-074424SOM  +000355N  V030999999999999999999999999999+99999+99999999999ADDAD1002119292999999999IAE109U05U02U00UKB1240N+1278IKB2240M+1967IKB3240A+1622IKC1N1+0078099999IKC2M9+0322239999IKE100P01P00P00P
0465999999137242021060204596+39378-074424SOD  +000355N  V030999999999999999999999999999+99999+99999999999ADDAA124000095KA1240M+02005KA2240N+01445OE11240102821099995OE22240058122099995OE33240038999999995REMSOD35924 HR PRECIPITATION (IN): 0.00 24 HR MAX TEMP (F): 6824 HR MIN TEMP (F): 58PEAK WIND SPEED (MPH): 23 PEAK WIND DIR (DEG):210 PEAK WIND TIME (LST):      FASTEST 2MIN SPEED (MPH): 13FASTEST 2MIN DIR (DEG):220 FASTEST 2MIN TIME (LST):     AVERAGE WIND SPEED (MPH): 8.7 24 HR AVG TEMP (F): 63DEPART FROM NORMAL: -2  HEATING DEGREE DAYS:  2 COOLING DEGREE DAYS:  0
0465999999137242021060304596+39378-074424SOD  +000355N  V030999999999999999999999999999+99999+99999999999ADDAA124000095KA1240M+01945KA2240N+01615OE11240084917099995OE22240053623099995OE33240031399999995REMSOD35924 HR PRECIPITATION (IN): 0.00 24 HR MAX TEMP (F): 6724 HR MIN TEMP (F): 61PEAK WIND SPEED (MPH): 19 PEAK WIND DIR (DEG):170 PEAK WIND TIME (LST):      FASTEST 2MIN SPEED (MPH): 12FASTEST 2MIN DIR (DEG):230 FASTEST 2MIN TIME (LST):     AVERAGE WIND SPEED (MPH): 7.0 24 HR AVG TEMP (F): 64DEPART FROM NORMAL: -2  HEATING DEGREE DAYS:  1 COOLING DEGREE DAYS:  0
0408999999137242021060404596+39378-074424SOD  +000355N  V030999999999999999999999999999+99999+99999999999ADDAA12401839AKA1240M+02115KA2240N+01675OE1124999999999999AOE22240093924099995OE33240042099999995REMSOD28324 HR PRECIPITATION (IN): 0.72 24 HR MAX TEMP (F): 7024 HR MIN TEMP (F): 62 FASTEST 2MIN SPEED (MPH): 21FASTEST 2MIN DIR (DEG):240 FASTEST 2MIN TIME (LST):     AVERAGE WIND SPEED (MPH): 9.4 24 HR AVG TEMP (F): 66DEPART FROM NORMAL:  0  HEATING DEGREE DAYS:  0 COOLING DEGREE DAYS:  1EQDR01  0.727AAP092
0484999999137242021060504596+39378-074424SOD  +000355N  V030999999999999999999999999999+99999+99999999999ADDAA12401529AKA1240M+02225KA2240N+01785OE11240093922099995OE22240062622099995OE33240039899999995REMSOD35924 HR PRECIPITATION (IN): 0.60 24 HR MAX TEMP (F): 7224 HR MIN TEMP (F): 64PEAK WIND SPEED (MPH): 21 PEAK WIND DIR (DEG):220 PEAK WIND TIME (LST):      FASTEST 2MIN SPEED (MPH): 14FASTEST 2MIN DIR (DEG):220 FASTEST 2MIN TIME (LST):     AVERAGE WIND SPEED (MPH): 8.9 24 HR AVG TEMP (F): 68DEPART FROM NORMAL:  2  HEATING DEGREE DAYS:  0 COOLING DEGREE DAYS:  3EQDR01  0.607AAP092
0465999999137242021060604596+39378-074424SOD  +000355N  V030999999999999999999999999999+99999+99999999999ADDAA124000095KA1240M+02785KA2240N+01895OE11240129622099995OE22240089422099995OE33240044399999995REMSOD35924 HR PRECIPITATION (IN): 0.00 24 HR MAX TEMP (F): 8224 HR MIN TEMP (F): 66PEAK WIND SPEED (MPH): 29 PEAK WIND DIR (DEG):220 PEAK WIND TIME (LST):      FASTEST 2MIN SPEED (MPH): 20FASTEST 2MIN DIR (DEG):220 FASTEST 2MIN TIME (LST):     AVERAGE WIND SPEED (MPH): 9.9 24 HR AVG TEMP (F): 74DEPART FROM NORMAL:  8  HEATING DEGREE DAYS:  0 COOLING DEGREE DAYS:  9
0389999999137242021060704596+39378-074424SOD  +000355N  V030999999999999999999999999999+99999+99999999999ADDAA124000095KA1240M+02675KA2240N+02005OE1124999999999999AOE22240071523099995OE33240042599999995REMSOD28324 HR PRECIPITATION (IN): 0.00 24 HR MAX TEMP (F): 8024 HR MIN TEMP (F): 68 FASTEST 2MIN SPEED (MPH): 16FASTEST 2MIN DIR (DEG):230 FASTEST 2MIN TIME (LST):     AVERAGE WIND SPEED (MPH): 9.5 24 HR AVG TEMP (F): 74DEPART FROM NORMAL:  7  HEATING DEGREE DAYS:  0 COOLING DEGREE DAYS:  9
0465999999137242021060804596+39378-074424SOD  +000355N  V030999999999999999999999999999+99999+99999999999ADDAA124000095KA1240M+02445KA2240N+01945OE11240125222099995OE22240071520099995OE33240042999999995REMSOD35924 HR PRECIPITATION (IN): 0.00 24 HR MAX TEMP (F): 7624 HR MIN TEMP (F): 67PEAK WIND SPEED (MPH): 28 PEAK WIND DIR (DEG):220 PEAK WIND TIME (LST):      FASTEST 2MIN SPEED (MPH): 16FASTEST 2MIN DIR (DEG):200 FASTEST 2MIN TIME (LST):     AVERAGE WIND SPEED (MPH): 9.6 24 HR AVG TEMP (F): 72DEPART FROM NORMAL:  5  HEATING DEGREE DAYS:  0 COOLING DEGREE DAYS:  7
0389999999137242021060904596+39378-074424SOD  +000355N  V030999999999999999999999999999+99999+99999999999ADDAA124000095KA1240M+02505KA2240N+02005OE1124999999999999AOE22240058120099995OE33240032699999995REMSOD28324 HR PRECIPITATION (IN): 0.00 24 HR MAX TEMP (F): 7724 HR MIN TEMP (F): 68 FASTEST 2MIN SPEED (MPH): 13FASTEST 2MIN DIR (DEG):200 FASTEST 2MIN TIME (LST):     AVERAGE WIND SPEED (MPH): 7.3 24 HR AVG TEMP (F): 73DEPART FROM NORMAL:  5  HEATING DEGREE DAYS:  0 COOLING DEGREE DAYS:  8
0465999999137242021061004596+39378-074424SOD  +000355N  V030999999999999999999999999999+99999+99999999999ADDAA124000095KA1240M+02725KA2240N+02065OE11240076026099995OE22240049225099995OE33240021999999995REMSOD35924 HR PRECIPITATION (IN): 0.00 24 HR MAX TEMP (F): 8124 HR MIN TEMP (F): 69PEAK WIND SPEED (MPH): 17 PEAK WIND DIR (DEG):260 PEAK WIND TIME (LST):      FASTEST 2MIN SPEED (MPH): 11FASTEST 2MIN DIR (DEG):250 FASTEST 2MIN TIME (LST):     AVERAGE WIND SPEED (MPH): 4.9 24 HR AVG TEMP (F): 75DEPART FROM NORMAL:  7  HEATING DEGREE DAYS:  0 COOLING DEGREE DAYS: 10
0484999999137242021061104596+39378-074424SOD  +000355N  V030999999999999999999999999999+99999+99999999999ADDAA12400059AKA1240M+02505KA2240N+01835OE11240116208099995OE22240080508099995OE33240042999999995REMSOD35924 HR PRECIPITATION (IN): 0.02 24 HR MAX TEMP (F): 7724 HR MIN TEMP (F): 65PEAK WIND SPEED (MPH): 26 PEAK WIND DIR (DEG): 80 PEAK WIND TIME (LST):      FASTEST 2MIN SPEED (MPH): 18FASTEST 2MIN DIR (DEG): 80 FASTEST 2MIN TIME (LST):     AVERAGE WIND SPEED (MPH): 9.6 24 HR AVG TEMP (F): 71DEPART FROM NORMAL:  3  HEATING DEGREE DAYS:  0 COOLING DEGREE DAYS:  6EQDR01  0.027AAP092
0484999999137242021061204596+39378-074424SOD  +000355N  V030999999999999999999999999999+99999+99999999999ADDAA12400089AKA1240M+01895KA2240N+01785OE11240107308099995OE22240071509099995OE33240047499999995REMSOD35924 HR PRECIPITATION (IN): 0.03 24 HR MAX TEMP (F): 6624 HR MIN TEMP (F): 64PEAK WIND SPEED (MPH): 24 PEAK WIND DIR (DEG): 80 PEAK WIND TIME (LST):      FASTEST 2MIN SPEED (MPH): 16FASTEST 2MIN DIR (DEG): 90 FASTEST 2MIN TIME (LST):     AVERAGE WIND SPEED (MPH):10.6 24 HR AVG TEMP (F): 65DEPART FROM NORMAL: -4  HEATING DEGREE DAYS:  0 COOLING DEGREE DAYS:  0EQDR01  0.037AAP092
0465999999137242021061304596+39378-074424SOD  +000355N  V030999999999999999999999999999+99999+99999999999ADDAA124000095KA1240M+01945KA2240N+01725OE11240107308099995OE22240071508099995OE33240042099999995REMSOD35924 HR PRECIPITATION (IN): 0.00 24 HR MAX TEMP (F): 6724 HR MIN TEMP (F): 63PEAK WIND SPEED (MPH): 24 PEAK WIND DIR (DEG): 80 PEAK WIND TIME (LST):      FASTEST 2MIN SPEED (MPH): 16FASTEST 2MIN DIR (DEG): 80 FASTEST 2MIN TIME (LST):     AVERAGE WIND SPEED (MPH): 9.4 24 HR AVG TEMP (F): 65DEPART FROM NORMAL: -4  HEATING DEGREE DAYS:  0 COOLING DEGREE DAYS:  0
0465999999137242021061404596+39378-074424SOD  +000355N  V030999999999999999999999999999+99999+99999999999ADDAA124000095KA1240M+02065KA2240N+01785OE11240084916099995OE22240062616099995OE33240029599999995REMSOD35924 HR PRECIPITATION (IN): 0.00 24 HR MAX TEMP (F): 6924 HR MIN TEMP (F): 64PEAK WIND SPEED (MPH): 19 PEAK WIND DIR (DEG):160 PEAK WIND TIME (LST):      FASTEST 2MIN SPEED (MPH): 14FASTEST 2MIN DIR (DEG):160 FASTEST 2MIN TIME (LST):     AVERAGE WIND SPEED (MPH): 6.6 24 HR AVG TEMP (F): 67DEPART FROM NORMAL: -2  HEATING DEGREE DAYS:  0 COOLING DEGREE DAYS:  2
0465999999137242021061504596+39378-074424SOD  +000355N  V030999999999999999999999999999+99999+99999999999ADDAA124000095KA1240M+02225KA2240N+01895OE11240107319099995OE22240062615099995OE33240038999999995REMSOD35924 HR PRECIPITATION (IN): 0.00 24 HR MAX TEMP (F): 7224 HR MIN TEMP (F): 66PEAK WIND SPEED (MPH): 24 PEAK WIND DIR (DEG):190 PEAK WIND TIME (LST):      FASTEST 2MIN SPEED (MPH): 14FASTEST 2MIN DIR (DEG):150 FASTEST 2MIN TIME (LST):     AVERAGE WIND SPEED (MPH): 8.7 24 HR AVG TEMP (F): 69DEPART FROM NORMAL: -1  HEATING DEGREE DAYS:  0 COOLING DEGREE DAYS:  4
0484999999137242021061604596+39378-074424SOD  +000355N  V030999999999999999999999999999+99999+99999999999ADDAA12401609AKA1240M+02675KA2240N+01835OE11240143129099995OE22240071529099995OE33240025099999995REMSOD35924 HR PRECIPITATION (IN): 0.63 24 HR MAX TEMP (F): 8024 HR MIN TEMP (F): 65PEAK WIND SPEED (MPH): 32 PEAK WIND DIR (DEG):290 PEAK WIND TIME (LST):      FASTEST 2MIN SPEED (MPH): 16FASTEST 2MIN DIR (DEG):290 FASTEST 2MIN TIME (LST):     AVERAGE WIND SPEED (MPH): 5.6 24 HR AVG TEMP (F): 73DEPART FROM NORMAL:  3  HEATING DEGREE DAYS:  0 COOLING DEGREE DAYS:  8EQDR01  0.637AAP092
0465999999137242021061704596+39378-074424SOD  +000355N  V030999999999999999999999999999+99999+99999999999ADDAA124000095KA1240M+02565KA2240N+01785OE11240111820099995OE22240058122099995OE33240030099999995REMSOD35924 HR PRECIPITATION (IN): 0.00 24 HR MAX TEMP (F): 7824 HR MIN TEMP (F): 64PEAK WIND SPEED (MPH): 25 PEAK WIND DIR (DEG):200 PEAK WIND TIME (LST):      FASTEST 2MIN SPEED (MPH): 13FASTEST 2MIN DIR (DEG):220 FASTEST 2MIN TIME (LST):     AVERAGE WIND SPEED (MPH): 6.7 24 HR AVG TEMP (F): 71DEPART FROM NORMAL:  1  HEATING DEGREE DAYS:  0 COOLING DEGREE DAYS:  6
0465999999137242021061804596+39378-074424SOD  +000355N  V030999999999999999999999999999+99999+99999999999ADDAA124000095KA1240M+02115KA2240N+01615OE11240084916099995OE22240053612099995OE33240030899999995REMSOD35924 HR PRECIPITATION (IN): 0.00 24 HR MAX TEMP (F): 7024 HR MIN TEMP (F): 61PEAK WIND SPEED (MPH): 19 PEAK WIND DIR (DEG):160 PEAK WIND TIME (LST):      FASTEST 2MIN SPEED (MPH): 12FASTEST 2MIN DIR (DEG):120 FASTEST 2MIN TIME (LST):     AVERAGE WIND SPEED (MPH): 6.9 24 HR AVG TEMP (F): 66DEPART FROM NORMAL: -5  HEATING DEGREE DAYS:  0 COOLING DEGREE DAYS:  1
0465999999137242021061904596+39378-074424SOD  +000355N  V030999999999999999999999999999+99999+99999999999ADDAA124000095KA1240M+02335KA2240N+01785OE11240321921099995OE22240080522099995OE33240049299999995REMSOD35924 HR PRECIPITATION (IN): 0.00 24 HR MAX TEMP (F): 7424 HR MIN TEMP (F): 64PEAK WIND SPEED (MPH): 72 PEAK WIND DIR (DEG):210 PEAK WIND TIME (LST):      FASTEST 2MIN SPEED (MPH): 18FASTEST 2MIN DIR (DEG):220 FASTEST 2MIN TIME (LST):     AVERAGE WIND SPEED (MPH):11.0 24 HR AVG TEMP (F): 69DEPART FROM NORMAL: -2  HEATING DEGREE DAYS:  0 COOLING DEGREE DAYS:  4
0526999999137242021062004596+39378-074424SOD  +000355N  V030999999999999999999999999999+99999+99999999999ADDAA12400769AAX1036246KA1240M+02895KA2240N+02115OE11240125223099995OE22240076023099995OE33240044399999995REMSOD37624 HR PRECIPITATION (IN): 0.30 WEATHER(CODE):3  24 HR MAX TEMP (F): 8424 HR MIN TEMP (F): 70PEAK WIND SPEED (MPH): 28 PEAK WIND DIR (DEG):230 PEAK WIND TIME (LST):      FASTEST 2MIN SPEED (MPH): 17FASTEST 2MIN DIR (DEG):230 FASTEST 2MIN TIME (LST):     AVERAGE WIND SPEED (MPH): 9.9 24 HR AVG TEMP (F): 77DEPART FROM NORMAL:  6  HEATING DEGREE DAYS:  0 COOLING DEGREE DAYS: 12EQDR01  0.307AAP092R02     37AXW092
0484999999137242021062104596+39378-074424SOD  +000355N  V030999999999999999999999999999+99999+99999999999ADDAA12400749AKA1240M+02615KA2240N+02005OE11240125223099995OE22240071523099995OE33240036799999995REMSOD35924 HR PRECIPITATION (IN): 0.29 24 HR MAX TEMP (F): 7924 HR MIN TEMP (F): 68PEAK WIND SPEED (MPH): 28 PEAK WIND DIR (DEG):230 PEAK WIND TIME (LST):      FASTEST 2MIN SPEED (MPH): 16FASTEST 2MIN DIR (DEG):230 FASTEST 2MIN TIME (LST):     AVERAGE WIND SPEED (MPH): 8.2 24 HR AVG TEMP (F): 74DEPART FROM NORMAL:  2  HEATING DEGREE DAYS:  0 COOLING DEGREE DAYS:  9EQDR01  0.297AAP092
0465999999137242021062204596+39378-074424SOD  +000355N  V030999999999999999999999999999+99999+99999999999ADDAA124000095KA1240M+02505KA2240N+02115OE11240111822099995OE22240067120099995OE33240044399999995REMSOD35924 HR PRECIPITATION (IN): 0.00 24 HR MAX TEMP (F): 7724 HR MIN TEMP (F): 70PEAK WIND SPEED (MPH): 25 PEAK WIND DIR (DEG):220 PEAK WIND TIME (LST):      FASTEST 2MIN SPEED (MPH): 15FASTEST 2MIN DIR (DEG):200 FASTEST 2MIN TIME (LST):     AVERAGE WIND SPEED (MPH): 9.9 24 HR AVG TEMP (F): 74DEPART FROM NORMAL:  2  HEATING DEGREE DAYS:  0 COOLING DEGREE DAYS:  9
0484999999137242021062304596+39378-074424SOD  +000355N  V030999999999999999999999999999+99999+99999999999ADDAA12401839AKA1240M+02565KA2240N+01675OE11240174330099995OE22240102833099995OE33240028699999995REMSOD35924 HR PRECIPITATION (IN): 0.72 24 HR MAX TEMP (F): 7824 HR MIN TEMP (F): 62PEAK WIND SPEED (MPH): 39 PEAK WIND DIR (DEG):300 PEAK WIND TIME (LST):      FASTEST 2MIN SPEED (MPH): 23FASTEST 2MIN DIR (DEG):330 FASTEST 2MIN TIME (LST):     AVERAGE WIND SPEED (MPH): 6.4 24 HR AVG TEMP (F): 70DEPART FROM NORMAL: -2  HEATING DEGREE DAYS:  0 COOLING DEGREE DAYS:  5EQDR01  0.727AAP092
0465999999137242021062404596+39378-074424SOD  +000355N  V030999999999999999999999999999+99999+99999999999ADDAA124000095KA1240M+02065KA2240N+01445OE11240098333099995OE22240053613099995OE33240029199999995REMSOD35924 HR PRECIPITATION (IN): 0.00 24 HR MAX TEMP (F): 6924 HR MIN TEMP (F): 58PEAK WIND SPEED (MPH): 22 PEAK WIND DIR (DEG):330 PEAK WIND TIME (LST):      FASTEST 2MIN SPEED (MPH): 12FASTEST 2MIN DIR (DEG):130 FASTEST 2MIN TIME (LST):     AVERAGE WIND SPEED (MPH): 6.5 24 HR AVG TEMP (F): 64DEPART FROM NORMAL: -8  HEATING DEGREE DAYS:  1 COOLING DEGREE DAYS:  0
0465999999137242021062504596+39378-074424SOD  +000355N  V030999999999999999999999999999+99999+99999999999ADDAA124000095KA1240M+02065KA2240N+01675OE11240107309099995OE22240080509099995OE33240037699999995REMSOD35924 HR PRECIPITATION (IN): 0.00 24 HR MAX TEMP (F): 6924 HR MIN TEMP (F): 62PEAK WIND SPEED (MPH): 24 PEAK WIND DIR (DEG): 90 PEAK WIND TIME (LST):      FASTEST 2MIN SPEED (MPH): 18FASTEST 2MIN DIR (DEG): 90 FASTEST 2MIN TIME (LST):     AVERAGE WIND SPEED (MPH): 8.4 24 HR AVG TEMP (F): 66DEPART FROM NORMAL: -7  HEATING DEGREE DAYS:  0 COOLING DEGREE DAYS:  1
0465999999137242021062604596+39378-074424SOD  +000355N  V030999999999999999999999999999+99999+99999999999ADDAA124000095KA1240M+02175KA2240N+01725OE11240080517099995OE22240049217099995OE33240028299999995REMSOD35924 HR PRECIPITATION (IN): 0.00 24 HR MAX TEMP (F): 7124 HR MIN TEMP (F): 63PEAK WIND SPEED (MPH): 18 PEAK WIND DIR (DEG):170 PEAK WIND TIME (LST):      FASTEST 2MIN SPEED (MPH): 11FASTEST 2MIN DIR (DEG):170 FASTEST 2MIN TIME (LST):     AVERAGE WIND SPEED (MPH): 6.3 24 HR AVG TEMP (F): 67DEPART FROM NORMAL: -6  HEATING DEGREE DAYS:  0 COOLING DEGREE DAYS:  2
0465999999137242021062704596+39378-074424SOD  +000355N  V030999999999999999999999999999+99999+99999999999ADDAA124000095KA1240M+02445KA2240N+02115OE11240111822099995OE22240071522099995OE33240040299999995REMSOD35924 HR PRECIPITATION (IN): 0.00 24 HR MAX TEMP (F): 7624 HR MIN TEMP (F): 70PEAK WIND SPEED (MPH): 25 PEAK WIND DIR (DEG):220 PEAK WIND TIME (LST):      FASTEST 2MIN SPEED (MPH): 16FASTEST 2MIN DIR (DEG):220 FASTEST 2MIN TIME (LST):     AVERAGE WIND SPEED (MPH): 9.0 24 HR AVG TEMP (F): 73DEPART FROM NORMAL:  0  HEATING DEGREE DAYS:  0 COOLING DEGREE DAYS:  8
0465999999137242021062804596+39378-074424SOD  +000355N  V030999999999999999999999999999+99999+99999999999ADDAA124000095KA1240M+02615KA2240N+02225OE11240107323099995OE22240067123099995OE33240034099999995REMSOD35924 HR PRECIPITATION (IN): 0.00 24 HR MAX TEMP (F): 7924 HR MIN TEMP (F): 72PEAK WIND SPEED (MPH): 24 PEAK WIND DIR (DEG):230 PEAK WIND TIME (LST):      FASTEST 2MIN SPEED (MPH): 15FASTEST 2MIN DIR (DEG):230 FASTEST 2MIN TIME (LST):     AVERAGE WIND SPEED (MPH): 7.6 24 HR AVG TEMP (F): 76DEPART FROM NORMAL:  3  HEATING DEGREE DAYS:  0 COOLING DEGREE DAYS: 11
0465999999137242021062904596+39378-074424SOD  +000355N  V030999999999999999999999999999+99999+99999999999ADDAA124000095KA1240M+02675KA2240N+02225OE11240111825099995OE22240062626099995OE33240021999999995REMSOD35924 HR PRECIPITATION (IN): 0.00 24 HR MAX TEMP (F): 8024 HR MIN TEMP (F): 72PEAK WIND SPEED (MPH): 25 PEAK WIND DIR (DEG):250 PEAK WIND TIME (LST):      FASTEST 2MIN SPEED (MPH): 14FASTEST 2MIN DIR (DEG):260 FASTEST 2MIN TIME (LST):     AVERAGE WIND SPEED (MPH): 4.9 24 HR AVG TEMP (F): 76DEPART FROM NORMAL:  2  HEATING DEGREE DAYS:  0 COOLING DEGREE DAYS: 11
0465999999137242021063004596+39378-074424SOD  +000355N  V030999999999999999999999999999+99999+99999999999ADDAA124000095KA1240M+02725KA2240N+02225OE11240134123099995OE22240080523099995OE33240046999999995REMSOD35924 HR PRECIPITATION (IN): 0.00 24 HR MAX TEMP (F): 8124 HR MIN TEMP (F): 72PEAK WIND SPEED (MPH): 30 PEAK WIND DIR (DEG):230 PEAK WIND TIME (LST):      FASTEST 2MIN SPEED (MPH): 18FASTEST 2MIN DIR (DEG):230 FASTEST 2MIN TIME (LST):     AVERAGE WIND SPEED (MPH):10.5 24 HR AVG TEMP (F): 77DEPART FROM NORMAL:  3  HEATING DEGREE DAYS:  0 COOLING DEGREE DAYS: 12
0465999999137242021070104596+39378-074424SOD  +000355N  V030999999999999999999999999999+99999+99999999999ADDAA124000095KA1240M+02835KA2240N+02285OE11240129623099995OE22240076023099995OE33240047899999995REMSOD35924 HR PRECIPITATION (IN): 0.00 24 HR MAX TEMP (F): 8324 HR MIN TEMP (F): 73PEAK WIND SPEED (MPH): 29 PEAK WIND DIR (DEG):230 PEAK WIND TIME (LST):      FASTEST 2MIN SPEED (MPH): 17FASTEST 2MIN DIR (DEG):230 FASTEST 2MIN TIME (LST):     AVERAGE WIND SPEED (MPH):10.7 24 HR AVG TEMP (F): 78DEPART FROM NORMAL:  4  HEATING DEGREE DAYS:  0 COOLING DEGREE DAYS: 13
0128999999137242021070104596+39378-074424SOM  +000355N  V030999999999999999999999999999+99999+99999999999ADDAD1001833222299999999IAE108I06I04I00IKB1240N+1872IKB2240M+2394IKB3240A+2133IKC1N1+0144239999IKC2M9+0289199999IKE100I00I00I00I
0484999999137242021070204596+39378-074424SOD  +000355N  V030999999999999999999999999999+99999+99999999999ADDAA12400719AKA1240M+02785KA2240N+02115OE11240160924099995OE22240093924099995OE33240034999999995REMSOD35924 HR PRECIPITATION (IN): 0.28 24 HR MAX TEMP (F): 8224 HR MIN TEMP (F): 70PEAK WIND SPEED (MPH): 36 PEAK WIND DIR (DEG):240 PEAK WIND TIME (LST):      FASTEST 2MIN SPEED (MPH): 21FASTEST 2MIN DIR (DEG):240 FASTEST 2MIN TIME (LST):     AVERAGE WIND SPEED (MPH): 7.8 24 HR AVG TEMP (F): 76DEPART FROM NORMAL:  2  HEATING DEGREE DAYS:  0 COOLING DEGREE DAYS: 11EQDR01  0.287AAP092
0484999999137242021070304596+39378-074424SOD  +000355N  V030999999999999999999999999999+99999+99999999999ADDAA12402269AKA1240M+02225KA2240N+02005OE11240084929099995OE22240053623099995OE33240031799999995REMSOD35924 HR PRECIPITATION (IN): 0.89 24 HR MAX TEMP (F): 7224 HR MIN TEMP (F): 68PEAK WIND SPEED (MPH): 19 PEAK WIND DIR (DEG):290 PEAK WIND TIME (LST):      FASTEST 2MIN SPEED (MPH): 12FASTEST 2MIN DIR (DEG):230 FASTEST 2MIN TIME (LST):     AVERAGE WIND SPEED (MPH): 7.1 24 HR AVG TEMP (F): 70DEPART FROM NORMAL: -4  HEATING DEGREE DAYS:  0 COOLING DEGREE DAYS:  5EQDR01  0.897AAP092
0484999999137242021070404596+39378-074424SOD  +000355N  V030999999999999999999999999999+99999+99999999999ADDAA12400819AKA1240M+02175KA2240N+01785OE11240098308099995OE22240071508099995OE33240024699999995REMSOD35924 HR PRECIPITATION (IN): 0.32 24 HR MAX TEMP (F): 7124 HR MIN TEMP (F): 64PEAK WIND SPEED (MPH): 22 PEAK WIND DIR (DEG): 80 PEAK WIND TIME (LST):      FASTEST 2MIN SPEED (MPH): 16FASTEST 2MIN DIR (DEG): 80 FASTEST 2MIN TIME (LST):     AVERAGE WIND SPEED (MPH): 5.5 24 HR AVG TEMP (F): 68DEPART FROM NORMAL: -6  HEATING DEGREE DAYS:  0 COOLING DEGREE DAYS:  3EQDR01  0.327AAP092
0484999999137242021070504596+39378-074424SOD  +000355N  V030999999999999999999999999999+99999+99999999999ADDAA12400819AKA1240M+02335KA2240N+01725OE11240098322099995OE22240067123099995OE33240021999999995REMSOD35924 HR PRECIPITATION (IN): 0.32 24 HR MAX TEMP (F): 7424 HR MIN TEMP (F): 63PEAK WIND SPEED (MPH): 22 PEAK WIND DIR (DEG):220 PEAK WIND TIME (LST):      FASTEST 2MIN SPEED (MPH): 15FASTEST 2MIN DIR (DEG):230 FASTEST 2MIN TIME (LST):     AVERAGE WIND SPEED (MPH): 4.9 24 HR AVG TEMP (F): 69DEPART FROM NORMAL: -6  HEATING DEGREE DAYS:  0 COOLING DEGREE DAYS:  4EQDR01  0.327AAP092
