0484999999137242022010104596+39378-074424SOD  +000355N  V030999999999999999999999999999+99999+99999999999ADDAA12400009AKA1240M+01175KA2240N+00785OE11240080524099995OE22240049223099995OE33240021599999995REMSOD35924 HR PRECIPITATION (IN): 0.00 24 HR MAX TEMP (F): 5324 HR MIN TEMP (F): 46PEAK WIND SPEED (MPH): 18 PEAK WIND DIR (DEG):240 PEAK WIND TIME (LST):      FASTEST 2MIN SPEED (MPH): 11FASTEST 2MIN DIR (DEG):230 FASTEST 2MIN TIME (LST):     AVERAGE WIND SPEED (MPH): 4.8 24 HR AVG TEMP (F): 50DEPART FROM NORMAL: 12  HEATING DEGREE DAYS: 15 COOLING DEGREE DAYS:  0EQDR01  0.007AAP092
0128999999137242022010104596+39378-074424SOM  +000355N  V030999999999999999999999999999+99999+99999999999ADDAD1001309060699999999IAE110I03I01I00IKB1240N+0478IKB2240M+1100IKB3240A+0789IKC1N9-0022209999IKC2M1+0161259999IKE100I00I04I00I
0526999999137242022010204596+39378-074424SOD  +000355N  V030999999999999999999999999999+99999+99999999999ADDAA12400309AAX1016246KA1240M+01505KA2240N+00945OE11240111820099995OE22240062626099995OE33240032299999995REMSOD37624 HR PRECIPITATION (IN): 0.12 WEATHER(CODE):1  24 HR MAX TEMP (F): 5924 HR MIN TEMP (F): 49PEAK WIND SPEED (MPH): 25 PEAK WIND DIR (DEG):200 PEAK WIND TIME (LST):      FASTEST 2MIN SPEED (MPH): 14FASTEST 2MIN DIR (DEG):260 FASTEST 2MIN TIME (LST):     AVERAGE WIND SPEED (MPH): 7.2 24 HR AVG TEMP (F): 54DEPART FROM NORMAL: 17  HEATING DEGREE DAYS: 11 COOLING DEGREE DAYS:  0EQDR01  0.127AAP092R02     17AXW092
0465999999137242022010304596+39378-074424SOD  +000355N  V030999999999999999999999999999+99999+99999999999ADDAA12400569AKA1240M+01675KA2240N+00565OE12240062627099995OE23240039399999995REMSOD35924 HR PRECIPITATION (IN): 0.22 24 HR MAX TEMP (F): 6224 HR MIN TEMP (F): 42PEAK WIND SPEED (MPH): 84 PEAK WIND DIR (DEG):270 PEAK WIND TIME (LST):      FASTEST 2MIN SPEED (MPH): 14FASTEST 2MIN DIR (DEG):270 FASTEST 2MIN TIME (LST):     AVERAGE WIND SPEED (MPH): 8.8 24 HR AVG TEMP (F): 52DEPART FROM NORMAL: 15  HEATING DEGREE DAYS: 13 COOLING DEGREE DAYS:  0EQDR01  0.227AAP092
0514999999137242022010404596+39378-074424SOD  +000355N  V030999999999999999999999999999+99999+99999999999ADDAA12402169AAX1016246AX2026246KA1240M+00565KA2240N-00495OE13240092599999995REMSOD37724 HR PRECIPITATION (IN): 0.85 WEATHER(CODE):12  24 HR MAX TEMP (F): 4224 HR MIN TEMP (F): 23PEAK WIND SPEED (MPH):145 PEAK WIND DIR (DEG): 30 PEAK WIND TIME (LST):      FASTEST 2MIN SPEED (MPH): 92FASTEST 2MIN DIR (DEG): 20 FASTEST 2MIN TIME (LST):     AVERAGE WIND SPEED (MPH):20.7 24 HR AVG TEMP (F): 33DEPART FROM NORMAL: -4  HEATING DEGREE DAYS: 32 COOLING DEGREE DAYS:  0EQDR01  0.857AAP092R02    127AXW092R03    127AXW092
0465999999137242022010504596+39378-074424SOD  +000355N  V030999999999999999999999999999+99999+99999999999ADDAA124000095KA1240M+00115KA2240N-00665OE11240116232099995OE22240062632099995OE33240031399999995REMSOD35924 HR PRECIPITATION (IN): 0.00 24 HR MAX TEMP (F): 3424 HR MIN TEMP (F): 20PEAK WIND SPEED (MPH): 26 PEAK WIND DIR (DEG):320 PEAK WIND TIME (LST):      FASTEST 2MIN SPEED (MPH): 14FASTEST 2MIN DIR (DEG):320 FASTEST 2MIN TIME (LST):     AVERAGE WIND SPEED (MPH): 7.0 24 HR AVG TEMP (F): 27DEPART FROM NORMAL:-10  HEATING DEGREE DAYS: 38 COOLING DEGREE DAYS:  0
0465999999137242022010604596+39378-074424SOD  +000355N  V030999999999999999999999999999+99999+99999999999ADDAA124000095KA1240M+00835KA2240N+00065OE11240107323099995OE22240067122099995OE33240033599999995REMSOD35924 HR PRECIPITATION (IN): 0.00 24 HR MAX TEMP (F): 4724 HR MIN TEMP (F): 33PEAK WIND SPEED (MPH): 24 PEAK WIND DIR (DEG):230 PEAK WIND TIME (LST):      FASTEST 2MIN SPEED (MPH): 15FASTEST 2MIN DIR (DEG):220 FASTEST 2MIN TIME (LST):     AVERAGE WIND SPEED (MPH): 7.5 24 HR AVG TEMP (F): 40DEPART FROM NORMAL:  3  HEATING DEGREE DAYS: 25 COOLING DEGREE DAYS:  0
0465999999137242022010704596+39378-074424SOD  +000355N  V030999999999999999999999999999+99999+99999999999ADDAA124000095KA1240M+00615KA2240N+00225OE11240160927099995OE22240053605099995OE33240031399999995REMSOD35924 HR PRECIPITATION (IN): 0.00 24 HR MAX TEMP (F): 4324 HR MIN TEMP (F): 36PEAK WIND SPEED (MPH): 36 PEAK WIND DIR (DEG):270 PEAK WIND TIME (LST):      FASTEST 2MIN SPEED (MPH): 12FASTEST 2MIN DIR (DEG): 50 FASTEST 2MIN TIME (LST):     AVERAGE WIND SPEED (MPH): 7.0 24 HR AVG TEMP (F): 40DEPART FROM NORMAL:  3  HEATING DEGREE DAYS: 25 COOLING DEGREE DAYS:  0
0484999999137242022010804596+39378-074424SOD  +000355N  V030999999999999999999999999999+99999+99999999999ADDAA12400519AKA1240M+00225KA2240N-00385OE11240156531099995OE22240080533099995OE33240048799999995REMSOD35924 HR PRECIPITATION (IN): 0.20 24 HR MAX TEMP (F): 3624 HR MIN TEMP (F): 25PEAK WIND SPEED (MPH): 35 PEAK WIND DIR (DEG):310 PEAK WIND TIME (LST):      FASTEST 2MIN SPEED (MPH): 18FASTEST 2MIN DIR (DEG):330 FASTEST 2MIN TIME (LST):     AVERAGE WIND SPEED (MPH):10.9 24 HR AVG TEMP (F): 31DEPART FROM NORMAL: -5  HEATING DEGREE DAYS: 34 COOLING DEGREE DAYS:  0EQDR01  0.207AAP092
0465999999137242022010904596+39378-074424SOD  +000355N  V030999999999999999999999999999+99999+99999999999ADDAA124000095KA1240M+00225KA2240N-00555OE11240205630099995OE22240071533099995OE33240032299999995REMSOD35924 HR PRECIPITATION (IN): 0.00 24 HR MAX TEMP (F): 3624 HR MIN TEMP (F): 22PEAK WIND SPEED (MPH): 46 PEAK WIND DIR (DEG):300 PEAK WIND TIME (LST):      FASTEST 2MIN SPEED (MPH): 16FASTEST 2MIN DIR (DEG):330 FASTEST 2MIN TIME (LST):     AVERAGE WIND SPEED (MPH): 7.2 24 HR AVG TEMP (F): 29DEPART FROM NORMAL: -7  HEATING DEGREE DAYS: 36 COOLING DEGREE DAYS:  0
0484999999137242022011004596+39378-074424SOD  +000355N  V030999999999999999999999999999+99999+99999999999ADDAA12400799AKA1240M+00675KA2240N+00005OE11240156523099995OE22240107323099995OE33240051099999995REMSOD35924 HR PRECIPITATION (IN): 0.31 24 HR MAX TEMP (F): 4424 HR MIN TEMP (F): 32PEAK WIND SPEED (MPH): 35 PEAK WIND DIR (DEG):230 PEAK WIND TIME (LST):      FASTEST 2MIN SPEED (MPH): 24FASTEST 2MIN DIR (DEG):230 FASTEST 2MIN TIME (LST):     AVERAGE WIND SPEED (MPH):11.4 24 HR AVG TEMP (F): 38DEPART FROM NORMAL:  2  HEATING DEGREE DAYS: 27 COOLING DEGREE DAYS:  0EQDR01  0.317AAP092
0465999999137242022011104596+39378-074424SOD  +000355N  V030999999999999999999999999999+99999+99999999999ADDAA124000095KA1240M+00675KA2240N-00325OE11240165433099995OE22240071533099995OE33240040299999995REMSOD35924 HR PRECIPITATION (IN): 0.00 24 HR MAX TEMP (F): 4424 HR MIN TEMP (F): 26PEAK WIND SPEED (MPH): 37 PEAK WIND DIR (DEG):330 PEAK WIND TIME (LST):      FASTEST 2MIN SPEED (MPH): 16FASTEST 2MIN DIR (DEG):330 FASTEST 2MIN TIME (LST):     AVERAGE WIND SPEED (MPH): 9.0 24 HR AVG TEMP (F): 35DEPART FROM NORMAL: -1  HEATING DEGREE DAYS: 30 COOLING DEGREE DAYS:  0
0465999999137242022011204596+39378-074424SOD  +000355N  V030999999999999999999999999999+99999+99999999999ADDAA124000095KA1240M-00325KA2240N-00665OE11240259333099995OE22240089433099995OE33240039899999995REMSOD35924 HR PRECIPITATION (IN): 0.00 24 HR MAX TEMP (F): 2624 HR MIN TEMP (F): 20PEAK WIND SPEED (MPH): 58 PEAK WIND DIR (DEG):330 PEAK WIND TIME (LST):      FASTEST 2MIN SPEED (MPH): 20FASTEST 2MIN DIR (DEG):330 FASTEST 2MIN TIME (LST):     AVERAGE WIND SPEED (MPH): 8.9 24 HR AVG TEMP (F): 23DEPART FROM NORMAL:-13  HEATING DEGREE DAYS: 42 COOLING DEGREE DAYS:  0
0465999999137242022011304596+39378-074424SOD  +000355N  V030999999999999999999999999999+99999+99999999999ADDAA124000095KA1240M+00565KA2240N-00435OE11240210123099995OE22240107324099995OE33240056899999995REMSOD35924 HR PRECIPITATION (IN): 0.00 24 HR MAX TEMP (F): 4224 HR MIN TEMP (F): 24PEAK WIND SPEED (MPH): 47 PEAK WIND DIR (DEG):230 PEAK WIND TIME (LST):      FASTEST 2MIN SPEED (MPH): 24FASTEST 2MIN DIR (DEG):240 FASTEST 2MIN TIME (LST):     AVERAGE WIND SPEED (MPH):12.7 24 HR AVG TEMP (F): 33DEPART FROM NORMAL: -3  HEATING DEGREE DAYS: 32 COOLING DEGREE DAYS:  0
0465999999137242022011404596+39378-074424SOD  +000355N  V030999999999999999999999999999+99999+99999999999ADDAA124000095KA1240M+00615KA2240N+00225OE11240107304099995OE22240044727099995OE33240020699999995REMSOD35924 HR PRECIPITATION (IN): 0.00 24 HR MAX TEMP (F): 4324 HR MIN TEMP (F): 36PEAK WIND SPEED (MPH): 24 PEAK WIND DIR (DEG): 40 PEAK WIND TIME (LST):      FASTEST 2MIN SPEED (MPH): 10FASTEST 2MIN DIR (DEG):270 FASTEST 2MIN TIME (LST):     AVERAGE WIND SPEED (MPH): 4.6 24 HR AVG TEMP (F): 40DEPART FROM NORMAL:  4  HEATING DEGREE DAYS: 25 COOLING DEGREE DAYS:  0
0465999999137242022011504596+39378-074424SOD  +000355N  V030999999999999999999999999999+99999+99999999999ADDAA124000095KA1240M+00835KA2240N-00215OE11240263833099995OE22240116233099995OE33240051999999995REMSOD35924 HR PRECIPITATION (IN): 0.00 24 HR MAX TEMP (F): 4724 HR MIN TEMP (F): 28PEAK WIND SPEED (MPH): 59 PEAK WIND DIR (DEG):330 PEAK WIND TIME (LST):      FASTEST 2MIN SPEED (MPH): 26FASTEST 2MIN DIR (DEG):330 FASTEST 2MIN TIME (LST):     AVERAGE WIND SPEED (MPH):11.6 24 HR AVG TEMP (F): 38DEPART FROM NORMAL:  2  HEATING DEGREE DAYS: 27 COOLING DEGREE DAYS:  0
0465999999137242022011604596+39378-074424SOD  +000355N  V030999999999999999999999999999+99999+99999999999ADDAA124000095KA1240M-00215KA2240N-00775OE11240160933099995OE22240089433099995OE33240039399999995REMSOD35924 HR PRECIPITATION (IN): 0.00 24 HR MAX TEMP (F): 2824 HR MIN TEMP (F): 18PEAK WIND SPEED (MPH): 36 PEAK WIND DIR (DEG):330 PEAK WIND TIME (LST):      FASTEST 2MIN SPEED (MPH): 20FASTEST 2MIN DIR (DEG):330 FASTEST 2MIN TIME (LST):     AVERAGE WIND SPEED (MPH): 8.8 24 HR AVG TEMP (F): 23DEPART FROM NORMAL:-13  HEATING DEGREE DAYS: 42 COOLING DEGREE DAYS:  0
0484999999137242022011704596+39378-074424SOD  +000355N  V030999999999999999999999999999+99999+99999999999ADDAA12401049AKA1240M+00895KA2240N-00935OE11240254810099995OE22240147510099995OE33240056899999995REMSOD35924 HR PRECIPITATION (IN): 0.41 24 HR MAX TEMP (F): 4824 HR MIN TEMP (F): 15PEAK WIND SPEED (MPH): 57 PEAK WIND DIR (DEG):100 PEAK WIND TIME (LST):      FASTEST 2MIN SPEED (MPH): 33FASTEST 2MIN DIR (DEG):100 FASTEST 2MIN TIME (LST):     AVERAGE WIND SPEED (MPH):12.7 24 HR AVG TEMP (F): 32DEPART FROM NORMAL: -3  HEATING DEGREE DAYS: 33 COOLING DEGREE DAYS:  0EQDR01  0.417AAP092
0484999999137242022011804596+39378-074424SOD  +000355N  V030999999999999999999999999999+99999+99999999999ADDAA12401379AKA1240M+01005KA2240N+00115OE11240281610099995OE22240160911099995OE33240088199999995REMSOD35924 HR PRECIPITATION (IN): 0.54 24 HR MAX TEMP (F): 5024 HR MIN TEMP (F): 34PEAK WIND SPEED (MPH): 63 PEAK WIND DIR (DEG):100 PEAK WIND TIME (LST):      FASTEST 2MIN SPEED (MPH): 36FASTEST 2MIN DIR (DEG):110 FASTEST 2MIN TIME (LST):     AVERAGE WIND SPEED (MPH):19.7 24 HR AVG TEMP (F): 42DEPART FROM NORMAL:  7  HEATING DEGREE DAYS: 23 COOLING DEGREE DAYS:  0EQDR01  0.547AAP092
0465999999137242022011904596+39378-074424SOD  +000355N  V030999999999999999999999999999+99999+99999999999ADDAA124000095KA1240M+00395KA2240N+00005OE11240174330099995OE22240089429099995OE33240047899999995REMSOD35924 HR PRECIPITATION (IN): 0.00 24 HR MAX TEMP (F): 3924 HR MIN TEMP (F): 32PEAK WIND SPEED (MPH): 39 PEAK WIND DIR (DEG):300 PEAK WIND TIME (LST):      FASTEST 2MIN SPEED (MPH): 20FASTEST 2MIN DIR (DEG):290 FASTEST 2MIN TIME (LST):     AVERAGE WIND SPEED (MPH):10.7 24 HR AVG TEMP (F): 36DEPART FROM NORMAL:  1  HEATING DEGREE DAYS: 29 COOLING DEGREE DAYS:  0
0465999999137242022012004596+39378-074424SOD  +000355N  V030999999999999999999999999999+99999+99999999999ADDAA124000095KA1240M+00785KA2240N+00005OE11240165422099995OE22240098323099995OE33240058699999995REMSOD35924 HR PRECIPITATION (IN): 0.00 24 HR MAX TEMP (F): 4624 HR MIN TEMP (F): 32PEAK WIND SPEED (MPH): 37 PEAK WIND DIR (DEG):220 PEAK WIND TIME (LST):      FASTEST 2MIN SPEED (MPH): 22FASTEST 2MIN DIR (DEG):230 FASTEST 2MIN TIME (LST):     AVERAGE WIND SPEED (MPH):13.1 24 HR AVG TEMP (F): 39DEPART FROM NORMAL:  4  HEATING DEGREE DAYS: 26 COOLING DEGREE DAYS:  0
0484999999137242022012104596+39378-074424SOD  +000355N  V030999999999999999999999999999+99999+99999999999ADDAA12400439AKA1240M+00835KA2240N-00325OE11240143132099995OE22240058123099995OE33240031799999995REMSOD35924 HR PRECIPITATION (IN): 0.17 24 HR MAX TEMP (F): 4724 HR MIN TEMP (F): 26PEAK WIND SPEED (MPH): 32 PEAK WIND DIR (DEG):320 PEAK WIND TIME (LST):      FASTEST 2MIN SPEED (MPH): 13FASTEST 2MIN DIR (DEG):230 FASTEST 2MIN TIME (LST):     AVERAGE WIND SPEED (MPH): 7.1 24 HR AVG TEMP (F): 37DEPART FROM NORMAL:  2  HEATING DEGREE DAYS: 28 COOLING DEGREE DAYS:  0EQDR01  0.177AAP092
0465999999137242022012204596+39378-074424SOD  +000355N  V030999999999999999999999999999+99999+99999999999ADDAA124000095KA1240M-00325KA2240N-00715OE11240183336099995OE22240058105099995OE33240036299999995REMSOD35924 HR PRECIPITATION (IN): 0.00 24 HR MAX TEMP (F): 2624 HR MIN TEMP (F): 19PEAK WIND SPEED (MPH): 41 PEAK WIND DIR (DEG):360 PEAK WIND TIME (LST):      FASTEST 2MIN SPEED (MPH): 13FASTEST 2MIN DIR (DEG): 50 FASTEST 2MIN TIME (LST):     AVERAGE WIND SPEED (MPH): 8.1 24 HR AVG TEMP (F): 23DEPART FROM NORMAL:-12  HEATING DEGREE DAYS: 42 COOLING DEGREE DAYS:  0
0465999999137242022012304596+39378-074424SOD  +000355N  V030999999999999999999999999999+99999+99999999999ADDAA124000095KA1240M-00055KA2240N-00665OE11240174329099995OE22240044705099995OE33240023799999995REMSOD35924 HR PRECIPITATION (IN): 0.00 24 HR MAX TEMP (F): 3124 HR MIN TEMP (F): 20PEAK WIND SPEED (MPH): 39 PEAK WIND DIR (DEG):290 PEAK WIND TIME (LST):      FASTEST 2MIN SPEED (MPH): 10FASTEST 2MIN DIR (DEG): 50 FASTEST 2MIN TIME (LST):     AVERAGE WIND SPEED (MPH): 5.3 24 HR AVG TEMP (F): 26DEPART FROM NORMAL: -9  HEATING DEGREE DAYS: 39 COOLING DEGREE DAYS:  0
0465999999137242022012404596+39378-074424SOD  +000355N  V030999999999999999999999999999+99999+99999999999ADDAA124000095KA1240M+00225KA2240N-00325OE11240165427099995OE22240058122099995OE33240032699999995REMSOD35924 HR PRECIPITATION (IN): 0.00 24 HR MAX TEMP (F): 3624 HR MIN TEMP (F): 26PEAK WIND SPEED (MPH): 37 PEAK WIND DIR (DEG):270 PEAK WIND TIME (LST):      FASTEST 2MIN SPEED (MPH): 13FASTEST 2MIN DIR (DEG):220 FASTEST 2MIN TIME (LST):     AVERAGE WIND SPEED (MPH): 7.3 24 HR AVG TEMP (F): 31DEPART FROM NORMAL: -4  HEATING DEGREE DAYS: 34 COOLING DEGREE DAYS:  0
0465999999137242022012504596+39378-074424SOD  +000355N  V030999999999999999999999999999+99999+99999999999ADDAA124000095KA1240M+00565KA2240N-00165OE11240111823099995OE22240062622099995OE33240032699999995REMSOD35924 HR PRECIPITATION (IN): 0.00 24 HR MAX TEMP (F): 4224 HR MIN TEMP (F): 29PEAK WIND SPEED (MPH): 25 PEAK WIND DIR (DEG):230 PEAK WIND TIME (LST):      FASTEST 2MIN SPEED (MPH): 14FASTEST 2MIN DIR (DEG):220 FASTEST 2MIN TIME (LST):     AVERAGE WIND SPEED (MPH): 7.3 24 HR AVG TEMP (F): 36DEPART FROM NORMAL:  1  HEATING DEGREE DAYS: 29 COOLING DEGREE DAYS:  0
0465999999137242022012604596+39378-074424SOD  +000355N  V030999999999999999999999999999+99999+99999999999ADDAA124000095KA1240M+00675KA2240N+00005OE11240192233099995OE22240076023099995OE33240036799999995REMSOD35924 HR PRECIPITATION (IN): 0.00 24 HR MAX TEMP (F): 4424 HR MIN TEMP (F): 32PEAK WIND SPEED (MPH): 43 PEAK WIND DIR (DEG):330 PEAK WIND TIME (LST):      FASTEST 2MIN SPEED (MPH): 17FASTEST 2MIN DIR (DEG):230 FASTEST 2MIN TIME (LST):     AVERAGE WIND SPEED (MPH): 8.2 24 HR AVG TEMP (F): 38DEPART FROM NORMAL:  3  HEATING DEGREE DAYS: 27 COOLING DEGREE DAYS:  0
0465999999137242022012704596+39378-074424SOD  +000355N  V030999999999999999999999999999+99999+99999999999ADDAA124000095KA1240M+00005KA2240N-00435OE11240160935099995OE22240053632099995OE33240030899999995REMSOD35924 HR PRECIPITATION (IN): 0.00 24 HR MAX TEMP (F): 3224 HR MIN TEMP (F): 24PEAK WIND SPEED (MPH): 36 PEAK WIND DIR (DEG):350 PEAK WIND TIME (LST):      FASTEST 2MIN SPEED (MPH): 12FASTEST 2MIN DIR (DEG):320 FASTEST 2MIN TIME (LST):     AVERAGE WIND SPEED (MPH): 6.9 24 HR AVG TEMP (F): 28DEPART FROM NORMAL: -7  HEATING DEGREE DAYS: 37 COOLING DEGREE DAYS:  0
0465999999137242022012804596+39378-074424SOD  +000355N  V030999999999999999999999999999+99999+99999999999ADDAA124000095KA1240M+00065KA2240N-00605OE11240080535099995OE22240044724099995OE33240019799999995REMSOD35924 HR PRECIPITATION (IN): 0.00 24 HR MAX TEMP (F): 3324 HR MIN TEMP (F): 21PEAK WIND SPEED (MPH): 18 PEAK WIND DIR (DEG):350 PEAK WIND TIME (LST):      FASTEST 2MIN SPEED (MPH): 10FASTEST 2MIN DIR (DEG):240 FASTEST 2MIN TIME (LST):     AVERAGE WIND SPEED (MPH): 4.4 24 HR AVG TEMP (F): 27DEPART FROM NORMAL: -8  HEATING DEGREE DAYS: 38 COOLING DEGREE DAYS:  0
0465999999137242022012904596+39378-074424SOD  +000355N  V030999999999999999999999999999+99999+99999999999ADDAA12400209AKA1240M+00335KA2240N+00005OE12240201235099995OE23240027799999995REMSOD35924 HR PRECIPITATION (IN): 0.08 24 HR MAX TEMP (F): 3824 HR MIN TEMP (F): 32PEAK WIND SPEED (MPH): 72 PEAK WIND DIR (DEG):350 PEAK WIND TIME (LST):      FASTEST 2MIN SPEED (MPH): 45FASTEST 2MIN DIR (DEG):350 FASTEST 2MIN TIME (LST):     AVERAGE WIND SPEED (MPH): 6.2 24 HR AVG TEMP (F): 35DEPART FROM NORMAL:  0  HEATING DEGREE DAYS: 30 COOLING DEGREE DAYS:  0EQDR01  0.087AAP092
0484999999137242022013004596+39378-074424SOD  +000355N  V030999999999999999999999999999+99999+99999999999ADDAA12402039AKA1240M+00005KA2240N-00885OE11240232532099995OE22240120732099995OE33240072499999995REMSOD35924 HR PRECIPITATION (IN): 0.80 24 HR MAX TEMP (F): 3224 HR MIN TEMP (F): 16PEAK WIND SPEED (MPH): 52 PEAK WIND DIR (DEG):320 PEAK WIND TIME (LST):      FASTEST 2MIN SPEED (MPH): 27FASTEST 2MIN DIR (DEG):320 FASTEST 2MIN TIME (LST):     AVERAGE WIND SPEED (MPH):16.2 24 HR AVG TEMP (F): 24DEPART FROM NORMAL:-11  HEATING DEGREE DAYS: 41 COOLING DEGREE DAYS:  0EQDR01  0.807AAP092
0465999999137242022013104596+39378-074424SOD  +000355N  V030999999999999999999999999999+99999+99999999999ADDAA124000095KA1240M-00275KA2240N-01055OE11240214630099995OE22240080533099995OE33240039399999995REMSOD35924 HR PRECIPITATION (IN): 0.00 24 HR MAX TEMP (F): 2724 HR MIN TEMP (F): 13PEAK WIND SPEED (MPH): 48 PEAK WIND DIR (DEG):300 PEAK WIND TIME (LST):      FASTEST 2MIN SPEED (MPH): 18FASTEST 2MIN DIR (DEG):330 FASTEST 2MIN TIME (LST):     AVERAGE WIND SPEED (MPH): 8.8 24 HR AVG TEMP (F): 20DEPART FROM NORMAL:-15  HEATING DEGREE DAYS: 45 COOLING DEGREE DAYS:  0
0465999999137242022020104596+39378-074424SOD  +000355N  V030999999999999999999999999999+99999+99999999999ADDAA124000095KA1240M+00065KA2240N-00385OE11240098304099995OE22240049205099995OE33240029599999995REMSOD35924 HR PRECIPITATION (IN): 0.00 24 HR MAX TEMP (F): 3324 HR MIN TEMP (F): 25PEAK WIND SPEED (MPH): 22 PEAK WIND DIR (DEG): 40 PEAK WIND TIME (LST):      FASTEST 2MIN SPEED (MPH): 11FASTEST 2MIN DIR (DEG): 50 FASTEST 2MIN TIME (LST):     AVERAGE WIND SPEED (MPH): 6.6 24 HR AVG TEMP (F): 29DEPART FROM NORMAL: -6  HEATING DEGREE DAYS: 36 COOLING DEGREE DAYS:  0
0128999999137242022020104596+39378-074424SOM  +000355N  V030999999999999999999999999999+99999+99999999999ADDAD1002499161799999999PAE110I09I03I00IKB1240N-0289IKB2240M+0439IKB3240A+0072UKC1N9-0106309999IKC2M9+0167029999IKE107U00U25U00U
0484999999137242022020204596+39378-074424SOD  +000355N  V030999999999999999999999999999+99999+99999999999ADDAA12400009AKA1240M+00225KA2240N-00325OE11240116205099995OE22240058106099995OE33240023299999995REMSOD35924 HR PRECIPITATION (IN): 0.00 24 HR MAX TEMP (F): 3624 HR MIN TEMP (F): 26PEAK WIND SPEED (MPH): 26 PEAK WIND DIR (DEG): 50 PEAK WIND TIME (LST):      FASTEST 2MIN SPEED (MPH): 13FASTEST 2MIN DIR (DEG): 60 FASTEST 2MIN TIME (LST):     AVERAGE WIND SPEED (MPH): 5.2 24 HR AVG TEMP (F): 31DEPART FROM NORMAL: -4  HEATING DEGREE DAYS: 34 COOLING DEGREE DAYS:  0EQDR01  0.007AAP092
0484999999137242022020304596+39378-074424SOD  +000355N  V030999999999999999999999999999+99999+99999999999ADDAA12400009AKA1240M+00725KA2240N-00055OE11240040205099995OE22240026811099995OE33240012199999995REMSOD35924 HR PRECIPITATION (IN): 0.00 24 HR MAX TEMP (F): 4524 HR MIN TEMP (F): 31PEAK WIND SPEED (MPH):  9 PEAK WIND DIR (DEG): 50 PEAK WIND TIME (LST):      FASTEST 2MIN SPEED (MPH):  6FASTEST 2MIN DIR (DEG):110 FASTEST 2MIN TIME (LST):     AVERAGE WIND SPEED (MPH): 2.7 24 HR AVG TEMP (F): 38DEPART FROM NORMAL:  2  HEATING DEGREE DAYS: 27 COOLING DEGREE DAYS:  0EQDR01  0.007AAP092
0465999999137242022020404596+39378-074424SOD  +000355N  V030999999999999999999999999999+99999+99999999999ADDAA124000395KA1240M+01005KA2240N+00395OE11240134116099995OE22240071522099995OE33240030899999995REMSOD35924 HR PRECIPITATION (IN): 0.01 24 HR MAX TEMP (F): 5024 HR MIN TEMP (F): 39PEAK WIND SPEED (MPH): 30 PEAK WIND DIR (DEG):160 PEAK WIND TIME (LST):      FASTEST 2MIN SPEED (MPH): 16FASTEST 2MIN DIR (DEG):220 FASTEST 2MIN TIME (LST):     AVERAGE WIND SPEED (MPH): 6.9 24 HR AVG TEMP (F): 45DEPART FROM NORMAL:  9  HEATING DEGREE DAYS: 20 COOLING DEGREE DAYS:  0
0465999999137242022020504596+39378-074424SOD  +000355N  V030999999999999999999999999999+99999+99999999999ADDAA124019095KA1240M+01115KA2240N+00005OE11240205621099995OE22240107322099995OE33240059099999995REMSOD35924 HR PRECIPITATION (IN): 0.75 24 HR MAX TEMP (F): 5224 HR MIN TEMP (F): 32PEAK WIND SPEED (MPH): 46 PEAK WIND DIR (DEG):210 PEAK WIND TIME (LST):      FASTEST 2MIN SPEED (MPH): 24FASTEST 2MIN DIR (DEG):220 FASTEST 2MIN TIME (LST):     AVERAGE WIND SPEED (MPH):13.2 24 HR AVG TEMP (F): 42DEPART FROM NORMAL:  6  HEATING DEGREE DAYS: 23 COOLING DEGREE DAYS:  0
0465999999137242022020604596+39378-074424SOD  +000355N  V030999999999999999999999999999+99999+99999999999ADDAA124000025KA1240M+00005KA2240N-00495OE11240210133099995OE22240093933099995OE33240054599999995REMSOD35924 HR PRECIPITATION (IN):    T 24 HR MAX TEMP (F): 3224 HR MIN TEMP (F): 23PEAK WIND SPEED (MPH): 47 PEAK WIND DIR (DEG):330 PEAK WIND TIME (LST):      FASTEST 2MIN SPEED (MPH): 21FASTEST 2MIN DIR (DEG):330 FASTEST 2MIN TIME (LST):     AVERAGE WIND SPEED (MPH):12.2 24 HR AVG TEMP (F): 28DEPART FROM NORMAL: -8  HEATING DEGREE DAYS: 37 COOLING DEGREE DAYS:  0
0465999999137242022020704596+39378-074424SOD  +000355N  V030999999999999999999999999999+99999+99999999999ADDAA124000025KA1240M+00335KA2240N-00665OE11240241411099995OE22240053610099995OE33240030099999995REMSOD35924 HR PRECIPITATION (IN):    T 24 HR MAX TEMP (F): 3824 HR MIN TEMP (F): 20PEAK WIND SPEED (MPH): 54 PEAK WIND DIR (DEG):110 PEAK WIND TIME (LST):      FASTEST 2MIN SPEED (MPH): 12FASTEST 2MIN DIR (DEG):100 FASTEST 2MIN TIME (LST):     AVERAGE WIND SPEED (MPH): 6.7 24 HR AVG TEMP (F): 29DEPART FROM NORMAL: -7  HEATING DEGREE DAYS: 36 COOLING DEGREE DAYS:  0
0465999999137242022020804596+39378-074424SOD  +000355N  V030999999999999999999999999999+99999+99999999999ADDAA124013095KA1240M+00505KA2240N+00115OE11240102804099995OE22240053605099995OE33240021099999995REMSOD35924 HR PRECIPITATION (IN): 0.51 24 HR MAX TEMP (F): 4124 HR MIN TEMP (F): 34PEAK WIND SPEED (MPH): 23 PEAK WIND DIR (DEG): 40 PEAK WIND TIME (LST):      FASTEST 2MIN SPEED (MPH): 12FASTEST 2MIN DIR (DEG): 50 FASTEST 2MIN TIME (LST):     AVERAGE WIND SPEED (MPH): 4.7 24 HR AVG TEMP (F): 38DEPART FROM NORMAL:  2  HEATING DEGREE DAYS: 27 COOLING DEGREE DAYS:  0
0484999999137242022020904596+39378-074424SOD  +000355N  V030999999999999999999999999999+99999+99999999999ADDAA12400009AKA1240M+00725KA2240N+00065OE11240196731099995OE22240062629099995OE33240030099999995REMSOD35924 HR PRECIPITATION (IN): 0.00 24 HR MAX TEMP (F): 4524 HR MIN TEMP (F): 33PEAK WIND SPEED (MPH): 44 PEAK WIND DIR (DEG):310 PEAK WIND TIME (LST):      FASTEST 2MIN SPEED (MPH): 14FASTEST 2MIN DIR (DEG):290 FASTEST 2MIN TIME (LST):     AVERAGE WIND SPEED (MPH): 6.7 24 HR AVG TEMP (F): 39DEPART FROM NORMAL:  3  HEATING DEGREE DAYS: 26 COOLING DEGREE DAYS:  0EQDR01  0.007AAP092
0484999999137242022021004596+39378-074424SOD  +000355N  V030999999999999999999999999999+99999+99999999999ADDAA12400009AKA1240M+00785KA2240N-00055OE11240111820099995OE22240058120099995OE33240029199999995REMSOD35924 HR PRECIPITATION (IN): 0.00 24 HR MAX TEMP (F): 4624 HR MIN TEMP (F): 31PEAK WIND SPEED (MPH): 25 PEAK WIND DIR (DEG):200 PEAK WIND TIME (LST):      FASTEST 2MIN SPEED (MPH): 13FASTEST 2MIN DIR (DEG):200 FASTEST 2MIN TIME (LST):     AVERAGE WIND SPEED (MPH): 6.5 24 HR AVG TEMP (F): 39DEPART FROM NORMAL:  3  HEATING DEGREE DAYS: 26 COOLING DEGREE DAYS:  0EQDR01  0.007AAP092
0484999999137242022021104596+39378-074424SOD  +000355N  V030999999999999999999999999999+99999+99999999999ADDAA12400009AKA1240M+01065KA2240N+00445OE11240098304099995OE22240053622099995OE33240029599999995REMSOD35924 HR PRECIPITATION (IN): 0.00 24 HR MAX TEMP (F): 5124 HR MIN TEMP (F): 40PEAK WIND SPEED (MPH): 22 PEAK WIND DIR (DEG): 40 PEAK WIND TIME (LST):      FASTEST 2MIN SPEED (MPH): 12FASTEST 2MIN DIR (DEG):220 FASTEST 2MIN TIME (LST):     AVERAGE WIND SPEED (MPH): 6.6 24 HR AVG TEMP (F): 46DEPART FROM NORMAL: 10  HEATING DEGREE DAYS: 19 COOLING DEGREE DAYS:  0EQDR01  0.007AAP092
0484999999137242022021204596+39378-074424SOD  +000355N  V030999999999999999999999999999+99999+99999999999ADDAA12400009AKA1240M+01065KA2240N+00505OE11240143122099995OE22240076023099995OE33240042099999995REMSOD35924 HR PRECIPITATION (IN): 0.00 24 HR MAX TEMP (F): 5124 HR MIN TEMP (F): 41PEAK WIND SPEED (MPH): 32 PEAK WIND DIR (DEG):220 PEAK WIND TIME (LST):      FASTEST 2MIN SPEED (MPH): 17FASTEST 2MIN DIR (DEG):230 FASTEST 2MIN TIME (LST):     AVERAGE WIND SPEED (MPH): 9.4 24 HR AVG TEMP (F): 46DEPART FROM NORMAL:  9  HEATING DEGREE DAYS: 19 COOLING DEGREE DAYS:  0EQDR01  0.007AAP092
0484999999137242022021304596+39378-074424SOD  +000355N  V030999999999999999999999999999+99999+99999999999ADDAA12400009AKA1240M+01725KA2240N+00725OE11240125222099995OE22240080523099995OE33240041699999995REMSOD35924 HR PRECIPITATION (IN): 0.00 24 HR MAX TEMP (F): 6324 HR MIN TEMP (F): 45PEAK WIND SPEED (MPH): 28 PEAK WIND DIR (DEG):220 PEAK WIND TIME (LST):      FASTEST 2MIN SPEED (MPH): 18FASTEST 2MIN DIR (DEG):230 FASTEST 2MIN TIME (LST):     AVERAGE WIND SPEED (MPH): 9.3 24 HR AVG TEMP (F): 54DEPART FROM NORMAL: 17  HEATING DEGREE DAYS: 11 COOLING DEGREE DAYS:  0EQDR01  0.007AAP092
0465999999137242022021404596+39378-074424SOD  +000355N  V030999999999999999999999999999+99999+99999999999ADDAA124001895KA1240M+00725KA2240N-00165OE11240107331099995OE22240053606099995OE33240030499999995REMSOD35924 HR PRECIPITATION (IN): 0.07 24 HR MAX TEMP (F): 4524 HR MIN TEMP (F): 29PEAK WIND SPEED (MPH): 24 PEAK WIND DIR (DEG):310 PEAK WIND TIME (LST):      FASTEST 2MIN SPEED (MPH): 12FASTEST 2MIN DIR (DEG): 60 FASTEST 2MIN TIME (LST):     AVERAGE WIND SPEED (MPH): 6.8 24 HR AVG TEMP (F): 37DEPART FROM NORMAL:  0  HEATING DEGREE DAYS: 28 COOLING DEGREE DAYS:  0
0408999999137242022021504596+39378-074424SOD  +000355N  V030999999999999999999999999999+99999+99999999999ADDAA124000025KA1240M-0021AKA2240N-00715OE1124999999999999AOE22240076033099995OE33240042599999995REMSOD28324 HR PRECIPITATION (IN):    T 24 HR MAX TEMP (F): 2824 HR MIN TEMP (F): 19 FASTEST 2MIN SPEED (MPH): 17FASTEST 2MIN DIR (DEG):330 FASTEST 2MIN TIME (LST):     AVERAGE WIND SPEED (MPH): 9.5 24 HR AVG TEMP (F): 24DEPART FROM NORMAL:-13  HEATING DEGREE DAYS: 41 COOLING DEGREE DAYS:  0EQDR01    287KAX008
0465999999137242022021604596+39378-074424SOD  +000355N  V030999999999999999999999999999+99999+99999999999ADDAA12400009AKA1240M+00005KA2240N-00605OE12240053616099995OE23240021999999995REMSOD35924 HR PRECIPITATION (IN): 0.00 24 HR MAX TEMP (F): 3224 HR MIN TEMP (F): 21PEAK WIND SPEED (MPH):    PEAK WIND DIR (DEG):350 PEAK WIND TIME (LST):      FASTEST 2MIN SPEED (MPH): 12FASTEST 2MIN DIR (DEG):160 FASTEST 2MIN TIME (LST):     AVERAGE WIND SPEED (MPH): 4.9 24 HR AVG TEMP (F): 27DEPART FROM NORMAL:-10  HEATING DEGREE DAYS: 38 COOLING DEGREE DAYS:  0EQDR01  0.007AAP092
0484999999137242022021704596+39378-074424SOD  +000355N  V030999999999999999999999999999+99999+99999999999ADDAA12400009AKA1240M+00835KA2240N-00105OE11240205616099995OE22240071523099995OE33240036799999995REMSOD35924 HR PRECIPITATION (IN): 0.00 24 HR MAX TEMP (F): 4724 HR MIN TEMP (F): 30PEAK WIND SPEED (MPH): 46 PEAK WIND DIR (DEG):160 PEAK WIND TIME (LST):      FASTEST 2MIN SPEED (MPH): 16FASTEST 2MIN DIR (DEG):230 FASTEST 2MIN TIME (LST):     AVERAGE WIND SPEED (MPH): 8.2 24 HR AVG TEMP (F): 39DEPART FROM NORMAL:  2  HEATING DEGREE DAYS: 26 COOLING DEGREE DAYS:  0EQDR01  0.007AAP092
0526999999137242022021804596+39378-074424SOD  +000355N  V030999999999999999999999999999+99999+99999999999ADDAA12400009AAX1016246KA1240M+01065KA2240N+00785OE11240201222099995OE22240098322099995OE33240064899999995REMSOD37624 HR PRECIPITATION (IN): 0.00 WEATHER(CODE):1  24 HR MAX TEMP (F): 5124 HR MIN TEMP (F): 46PEAK WIND SPEED (MPH): 45 PEAK WIND DIR (DEG):220 PEAK WIND TIME (LST):      FASTEST 2MIN SPEED (MPH): 22FASTEST 2MIN DIR (DEG):220 FASTEST 2MIN TIME (LST):     AVERAGE WIND SPEED (MPH):14.5 24 HR AVG TEMP (F): 49DEPART FROM NORMAL: 11  HEATING DEGREE DAYS: 16 COOLING DEGREE DAYS:  0EQDR01  0.007AAP092R02     17AXW092
0465999999137242022021904596+39378-074424SOD  +000355N  V030999999999999999999999999999+99999+99999999999ADDAA124003395KA1240M+01335KA2240N+00005OE11240250323099995OE22240134123099995OE33240064899999995REMSOD35924 HR PRECIPITATION (IN): 0.13 24 HR MAX TEMP (F): 5624 HR MIN TEMP (F): 32PEAK WIND SPEED (MPH): 56 PEAK WIND DIR (DEG):230 PEAK WIND TIME (LST):      FASTEST 2MIN SPEED (MPH): 30FASTEST 2MIN DIR (DEG):230 FASTEST 2MIN TIME (LST):     AVERAGE WIND SPEED (MPH):14.5 24 HR AVG TEMP (F): 44DEPART FROM NORMAL:  6  HEATING DEGREE DAYS: 21 COOLING DEGREE DAYS:  0
0484999999137242022022004596+39378-074424SOD  +000355N  V030999999999999999999999999999+99999+99999999999ADDAA12400009AKA1240M+00725KA2240N-00325OE11240223530099995OE22240107329099995OE33240050599999995REMSOD35924 HR PRECIPITATION (IN): 0.00 24 HR MAX TEMP (F): 4524 HR MIN TEMP (F): 26PEAK WIND SPEED (MPH): 50 PEAK WIND DIR (DEG):300 PEAK WIND TIME (LST):      FASTEST 2MIN SPEED (MPH): 24FASTEST 2MIN DIR (DEG):290 FASTEST 2MIN TIME (LST):     AVERAGE WIND SPEED (MPH):11.3 24 HR AVG TEMP (F): 36DEPART FROM NORMAL: -2  HEATING DEGREE DAYS: 29 COOLING DEGREE DAYS:  0EQDR01  0.007AAP092
0484999999137242022022104596+39378-074424SOD  +000355N  V030999999999999999999999999999+99999+99999999999ADDAA12400009AKA1240M+00445KA2240N-00555OE11240165428099995OE22240080522099995OE33240042999999995REMSOD35924 HR PRECIPITATION (IN): 0.00 24 HR MAX TEMP (F): 4024 HR MIN TEMP (F): 22PEAK WIND SPEED (MPH): 37 PEAK WIND DIR (DEG):280 PEAK WIND TIME (LST):      FASTEST 2MIN SPEED (MPH): 18FASTEST 2MIN DIR (DEG):220 FASTEST 2MIN TIME (LST):     AVERAGE WIND SPEED (MPH): 9.6 24 HR AVG TEMP (F): 31DEPART FROM NORMAL: -7  HEATING DEGREE DAYS: 34 COOLING DEGREE DAYS:  0EQDR01  0.007AAP092
0484999999137242022022204596+39378-074424SOD  +000355N  V030999999999999999999999999999+99999+99999999999ADDAA12400009AKA1240M+00945KA2240N+00445OE11240210123099995OE22240076022099995OE33240045699999995REMSOD35924 HR PRECIPITATION (IN): 0.00 24 HR MAX TEMP (F): 4924 HR MIN TEMP (F): 40PEAK WIND SPEED (MPH): 47 PEAK WIND DIR (DEG):230 PEAK WIND TIME (LST):      FASTEST 2MIN SPEED (MPH): 17FASTEST 2MIN DIR (DEG):220 FASTEST 2MIN TIME (LST):     AVERAGE WIND SPEED (MPH):10.2 24 HR AVG TEMP (F): 45DEPART FROM NORMAL:  7  HEATING DEGREE DAYS: 20 COOLING DEGREE DAYS:  0EQDR01  0.007AAP092
0484999999137242022022304596+39378-074424SOD  +000355N  V030999999999999999999999999999+99999+99999999999ADDAA12400009AKA1240M+01115KA2240N+00895OE11240219023099995OE22240129622099995OE33240058199999995REMSOD35924 HR PRECIPITATION (IN): 0.00 24 HR MAX TEMP (F): 5224 HR MIN TEMP (F): 48PEAK WIND SPEED (MPH): 49 PEAK WIND DIR (DEG):230 PEAK WIND TIME (LST):      FASTEST 2MIN SPEED (MPH): 29FASTEST 2MIN DIR (DEG):220 FASTEST 2MIN TIME (LST):     AVERAGE WIND SPEED (MPH):13.0 24 HR AVG TEMP (F): 50DEPART FROM NORMAL: 12  HEATING DEGREE DAYS: 15 COOLING DEGREE DAYS:  0EQDR01  0.007AAP092
0484999999137242022022404596+39378-074424SOD  +000355N  V030999999999999999999999999999+99999+99999999999ADDAA12400009AKA1240M+02065KA2240N+00785OE11240160923099995OE22240093922099995OE33240048399999995REMSOD35924 HR PRECIPITATION (IN): 0.00 24 HR MAX TEMP (F): 6924 HR MIN TEMP (F): 46PEAK WIND SPEED (MPH): 36 PEAK WIND DIR (DEG):230 PEAK WIND TIME (LST):      FASTEST 2MIN SPEED (MPH): 21FASTEST 2MIN DIR (DEG):220 FASTEST 2MIN TIME (LST):     AVERAGE WIND SPEED (MPH):10.8 24 HR AVG TEMP (F): 58DEPART FROM NORMAL: 20  HEATING DEGREE DAYS:  7 COOLING DEGREE DAYS:  0EQDR01  0.007AAP092
0465999999137242022022504596+39378-074424SOD  +000355N  V030999999999999999999999999999+99999+99999999999ADDAA124002895KA1240M+00785KA2240N+00065OE11240116205099995OE22240076009099995OE33240045699999995REMSOD35924 HR PRECIPITATION (IN): 0.11 24 HR MAX TEMP (F): 4624 HR MIN TEMP (F): 33PEAK WIND SPEED (MPH): 26 PEAK WIND DIR (DEG): 50 PEAK WIND TIME (LST):      FASTEST 2MIN SPEED (MPH): 17FASTEST 2MIN DIR (DEG): 90 FASTEST 2MIN TIME (LST):     AVERAGE WIND SPEED (MPH):10.2 24 HR AVG TEMP (F): 40DEPART FROM NORMAL:  1  HEATING DEGREE DAYS: 25 COOLING DEGREE DAYS:  0
0465999999137242022022604596+39378-074424SOD  +000355N  V030999999999999999999999999999+99999+99999999999ADDAA124015795KA1240M+00945KA2240N+00225OE11240143133099995OE22240080529099995OE33240046099999995REMSOD35924 HR PRECIPITATION (IN): 0.62 24 HR MAX TEMP (F): 4924 HR MIN TEMP (F): 36PEAK WIND SPEED (MPH): 32 PEAK WIND DIR (DEG):330 PEAK WIND TIME (LST):      FASTEST 2MIN SPEED (MPH): 18FASTEST 2MIN DIR (DEG):290 FASTEST 2MIN TIME (LST):     AVERAGE WIND SPEED (MPH):10.3 24 HR AVG TEMP (F): 43DEPART FROM NORMAL:  4  HEATING DEGREE DAYS: 22 COOLING DEGREE DAYS:  0
0484999999137242022022704596+39378-074424SOD  +000355N  V030999999999999999999999999999+99999+99999999999ADDAA12400009AKA1240M+00395KA2240N-00215OE11240102835099995OE22240053618099995OE33240029199999995REMSOD35924 HR PRECIPITATION (IN): 0.00 24 HR MAX TEMP (F): 3924 HR MIN TEMP (F): 28PEAK WIND SPEED (MPH): 23 PEAK WIND DIR (DEG):350 PEAK WIND TIME (LST):      FASTEST 2MIN SPEED (MPH): 12FASTEST 2MIN DIR (DEG):180 FASTEST 2MIN TIME (LST):     AVERAGE WIND SPEED (MPH): 6.5 24 HR AVG TEMP (F): 34DEPART FROM NORMAL: -5  HEATING DEGREE DAYS: 31 COOLING DEGREE DAYS:  0EQDR01  0.007AAP092
0484999999137242022022804596+39378-074424SOD  +000355N  V030999999999999999999999999999+99999+99999999999ADDAA12400009AKA1240M+00895KA2240N+00065OE11240156529099995OE22240093928099995OE33240043899999995REMSOD35924 HR PRECIPITATION (IN): 0.00 24 HR MAX TEMP (F): 4824 HR MIN TEMP (F): 33PEAK WIND SPEED (MPH): 35 PEAK WIND DIR (DEG):290 PEAK WIND TIME (LST):      FASTEST 2MIN SPEED (MPH): 21FASTEST 2MIN DIR (DEG):280 FASTEST 2MIN TIME (LST):     AVERAGE WIND SPEED (MPH): 9.8 24 HR AVG TEMP (F): 41DEPART FROM NORMAL:  2  HEATING DEGREE DAYS: 24 COOLING DEGREE DAYS:  0EQDR01  0.007AAP092
0484999999137242022030104596+39378-074424SOD  +000355N  V030999999999999999999999999999+99999+99999999999ADDAA12400009AKA1240M+00505KA2240N+00065OE11240125202099995OE22240062633099995OE33240036799999995REMSOD35924 HR PRECIPITATION (IN): 0.00 24 HR MAX TEMP (F): 4124 HR MIN TEMP (F): 33PEAK WIND SPEED (MPH): 28 PEAK WIND DIR (DEG): 20 PEAK WIND TIME (LST):      FASTEST 2MIN SPEED (MPH): 14FASTEST 2MIN DIR (DEG):330 FASTEST 2MIN TIME (LST):     AVERAGE WIND SPEED (MPH): 8.2 24 HR AVG TEMP (F): 37DEPART FROM NORMAL: -2  HEATING DEGREE DAYS: 28 COOLING DEGREE DAYS:  0EQDR01  0.007AAP092
0128999999137242022030104596+39378-074424SOM  +000355N  V030999999999999999999999999999+99999+99999999999ADDAD1001919040499999999UAE107U05U03U00UKB1240N+0044IKB2240M+0778IKB3240A+0411IKC1N9-0072149999IKC2M9+0206239999IKE103U00U14U00U
0465999999137242022030204596+39378-074424SOD  +000355N  V030999999999999999999999999999+99999+99999999999ADDAA124000095KA1240M+00895KA2240N+00225OE11240129622099995OE22240084922099995OE33240044399999995REMSOD35924 HR PRECIPITATION (IN): 0.00 24 HR MAX TEMP (F): 4824 HR MIN TEMP (F): 36PEAK WIND SPEED (MPH): 29 PEAK WIND DIR (DEG):220 PEAK WIND TIME (LST):      FASTEST 2MIN SPEED (MPH): 19FASTEST 2MIN DIR (DEG):220 FASTEST 2MIN TIME (LST):     AVERAGE WIND SPEED (MPH): 9.9 24 HR AVG TEMP (F): 42DEPART FROM NORMAL:  2  HEATING DEGREE DAYS: 23 COOLING DEGREE DAYS:  0
0465999999137242022030304596+39378-074424SOD  +000355N  V030999999999999999999999999999+99999+99999999999ADDAA124000095KA1240M+01115KA2240N+00675OE11240134119099995OE22240062620099995OE33240031799999995REMSOD35924 HR PRECIPITATION (IN): 0.00 24 HR MAX TEMP (F): 5224 HR MIN TEMP (F): 44PEAK WIND SPEED (MPH): 30 PEAK WIND DIR (DEG):190 PEAK WIND TIME (LST):      FASTEST 2MIN SPEED (MPH): 14FASTEST 2MIN DIR (DEG):200 FASTEST 2MIN TIME (LST):     AVERAGE WIND SPEED (MPH): 7.1 24 HR AVG TEMP (F): 48DEPART FROM NORMAL:  8  HEATING DEGREE DAYS: 17 COOLING DEGREE DAYS:  0
0465999999137242022030404596+39378-074424SOD  +000355N  V030999999999999999999999999999+99999+99999999999ADDAA124000095KA1240M+01005KA2240N+00005OE11240143133099995OE22240089433099995OE33240049699999995REMSOD35924 HR PRECIPITATION (IN): 0.00 24 HR MAX TEMP (F): 5024 HR MIN TEMP (F): 32PEAK WIND SPEED (MPH): 32 PEAK WIND DIR (DEG):330 PEAK WIND TIME (LST):      FASTEST 2MIN SPEED (MPH): 20FASTEST 2MIN DIR (DEG):330 FASTEST 2MIN TIME (LST):     AVERAGE WIND SPEED (MPH):11.1 24 HR AVG TEMP (F): 41DEPART FROM NORMAL:  1  HEATING DEGREE DAYS: 24 COOLING DEGREE DAYS:  0
0465999999137242022030504596+39378-074424SOD  +000355N  V030999999999999999999999999999+99999+99999999999ADDAA124000095KA1240M+00225KA2240N-00435OE11240152004099995OE22240058103099995OE33240033599999995REMSOD35924 HR PRECIPITATION (IN): 0.00 24 HR MAX TEMP (F): 3624 HR MIN TEMP (F): 24PEAK WIND SPEED (MPH): 34 PEAK WIND DIR (DEG): 40 PEAK WIND TIME (LST):      FASTEST 2MIN SPEED (MPH): 13FASTEST 2MIN DIR (DEG): 30 FASTEST 2MIN TIME (LST):     AVERAGE WIND SPEED (MPH): 7.5 24 HR AVG TEMP (F): 30DEPART FROM NORMAL:-10  HEATING DEGREE DAYS: 35 COOLING DEGREE DAYS:  0
0465999999137242022030604596+39378-074424SOD  +000355N  V030999999999999999999999999999+99999+99999999999ADDAA124000095KA1240M+01005KA2240N+00115OE11240093907099995OE22240053615099995OE33240025999999995REMSOD35924 HR PRECIPITATION (IN): 0.00 24 HR MAX TEMP (F): 5024 HR MIN TEMP (F): 34PEAK WIND SPEED (MPH): 21 PEAK WIND DIR (DEG): 70 PEAK WIND TIME (LST):      FASTEST 2MIN SPEED (MPH): 12FASTEST 2MIN DIR (DEG):150 FASTEST 2MIN TIME (LST):     AVERAGE WIND SPEED (MPH): 5.8 24 HR AVG TEMP (F): 42DEPART FROM NORMAL:  2  HEATING DEGREE DAYS: 23 COOLING DEGREE DAYS:  0
0484999999137242022030704596+39378-074424SOD  +000355N  V030999999999999999999999999999+99999+99999999999ADDAA12400139AKA1240M+01445KA2240N+00895OE11240143122099995OE22240102822099995OE33240061799999995REMSOD35924 HR PRECIPITATION (IN): 0.05 24 HR MAX TEMP (F): 5824 HR MIN TEMP (F): 48PEAK WIND SPEED (MPH): 32 PEAK WIND DIR (DEG):220 PEAK WIND TIME (LST):      FASTEST 2MIN SPEED (MPH): 23FASTEST 2MIN DIR (DEG):220 FASTEST 2MIN TIME (LST):     AVERAGE WIND SPEED (MPH):13.8 24 HR AVG TEMP (F): 53DEPART FROM NORMAL: 13  HEATING DEGREE DAYS: 12 COOLING DEGREE DAYS:  0EQDR01  0.057AAP092
0484999999137242022030804596+39378-074424SOD  +000355N  V030999999999999999999999999999+99999+99999999999ADDAA12400109AKA1240M+01725KA2240N+01065OE11240183323099995OE22240116222099995OE33240065399999995REMSOD35924 HR PRECIPITATION (IN): 0.04 24 HR MAX TEMP (F): 6324 HR MIN TEMP (F): 51PEAK WIND SPEED (MPH): 41 PEAK WIND DIR (DEG):230 PEAK WIND TIME (LST):      FASTEST 2MIN SPEED (MPH): 26FASTEST 2MIN DIR (DEG):220 FASTEST 2MIN TIME (LST):     AVERAGE WIND SPEED (MPH):14.6 24 HR AVG TEMP (F): 57DEPART FROM NORMAL: 16  HEATING DEGREE DAYS:  8 COOLING DEGREE DAYS:  0EQDR01  0.047AAP092
0465999999137242022030904596+39378-074424SOD  +000355N  V030999999999999999999999999999+99999+99999999999ADDAA124000095KA1240M+01615KA2240N+00615OE11240187831099995OE22240093933099995OE33240038099999995REMSOD35924 HR PRECIPITATION (IN): 0.00 24 HR MAX TEMP (F): 6124 HR MIN TEMP (F): 43PEAK WIND SPEED (MPH): 42 PEAK WIND DIR (DEG):310 PEAK WIND TIME (LST):      FASTEST 2MIN SPEED (MPH): 21FASTEST 2MIN DIR (DEG):330 FASTEST 2MIN TIME (LST):     AVERAGE WIND SPEED (MPH): 8.5 24 HR AVG TEMP (F): 52DEPART FROM NORMAL: 11  HEATING DEGREE DAYS: 13 COOLING DEGREE DAYS:  0
0484999999137242022031004596+39378-074424SOD  +000355N  V030999999999999999999999999999+99999+99999999999ADDAA12401079AKA1240M+00675KA2240N+00335OE11240169903099995OE22240098310099995OE33240046999999995REMSOD35924 HR PRECIPITATION (IN): 0.42 24 HR MAX TEMP (F): 4424 HR MIN TEMP (F): 38PEAK WIND SPEED (MPH): 38 PEAK WIND DIR (DEG): 30 PEAK WIND TIME (LST):      FASTEST 2MIN SPEED (MPH): 22FASTEST 2MIN DIR (DEG):100 FASTEST 2MIN TIME (LST):     AVERAGE WIND SPEED (MPH):10.5 24 HR AVG TEMP (F): 41DEPART FROM NORMAL:  0  HEATING DEGREE DAYS: 24 COOLING DEGREE DAYS:  0EQDR01  0.427AAP092
0465999999137242022031104596+39378-074424SOD  +000355N  V030999999999999999999999999999+99999+99999999999ADDAA124000095KA1240M+00565KA2240N+00285OE11240134109099995OE22240053610099995OE33240022899999995REMSOD35924 HR PRECIPITATION (IN): 0.00 24 HR MAX TEMP (F): 4224 HR MIN TEMP (F): 37PEAK WIND SPEED (MPH): 30 PEAK WIND DIR (DEG): 90 PEAK WIND TIME (LST):      FASTEST 2MIN SPEED (MPH): 12FASTEST 2MIN DIR (DEG):100 FASTEST 2MIN TIME (LST):     AVERAGE WIND SPEED (MPH): 5.1 24 HR AVG TEMP (F): 40DEPART FROM NORMAL: -1  HEATING DEGREE DAYS: 25 COOLING DEGREE DAYS:  0
0465999999137242022031204596+39378-074424SOD  +000355N  V030999999999999999999999999999+99999+99999999999ADDAA124000095KA1240M+00895KA2240N+00225OE11240098304099995OE22240049214099995OE33240023799999995REMSOD35924 HR PRECIPITATION (IN): 0.00 24 HR MAX TEMP (F): 4824 HR MIN TEMP (F): 36PEAK WIND SPEED (MPH): 22 PEAK WIND DIR (DEG): 40 PEAK WIND TIME (LST):      FASTEST 2MIN SPEED (MPH): 11FASTEST 2MIN DIR (DEG):140 FASTEST 2MIN TIME (LST):     AVERAGE WIND SPEED (MPH): 5.3 24 HR AVG TEMP (F): 42DEPART FROM NORMAL:  1  HEATING DEGREE DAYS: 23 COOLING DEGREE DAYS:  0
0484999999137242022031304596+39378-074424SOD  +000355N  V030999999999999999999999999999+99999+99999999999ADDAA12401859AKA1240M+00895KA2240N-00385OE11240277230099995OE22240116233099995OE33240055999999995REMSOD35924 HR PRECIPITATION (IN): 0.73 24 HR MAX TEMP (F): 4824 HR MIN TEMP (F): 25PEAK WIND SPEED (MPH): 62 PEAK WIND DIR (DEG):300 PEAK WIND TIME (LST):      FASTEST 2MIN SPEED (MPH): 26FASTEST 2MIN DIR (DEG):330 FASTEST 2MIN TIME (LST):     AVERAGE WIND SPEED (MPH):12.5 24 HR AVG TEMP (F): 37DEPART FROM NORMAL: -5  HEATING DEGREE DAYS: 28 COOLING DEGREE DAYS:  0EQDR01  0.737AAP092
0465999999137242022031404596+39378-074424SOD  +000355N  V030999999999999999999999999999+99999+99999999999ADDAA124000095KA1240M+00505KA2240N-00435OE11240259329099995OE22240107329099995OE33240058699999995REMSOD35924 HR PRECIPITATION (IN): 0.00 24 HR MAX TEMP (F): 4124 HR MIN TEMP (F): 24PEAK WIND SPEED (MPH): 58 PEAK WIND DIR (DEG):290 PEAK WIND TIME (LST):      FASTEST 2MIN SPEED (MPH): 24FASTEST 2MIN DIR (DEG):290 FASTEST 2MIN TIME (LST):     AVERAGE WIND SPEED (MPH):13.1 24 HR AVG TEMP (F): 33DEPART FROM NORMAL: -9  HEATING DEGREE DAYS: 32 COOLING DEGREE DAYS:  0
0465999999137242022031504596+39378-074424SOD  +000355N  V030999999999999999999999999999+99999+99999999999ADDAA124000095KA1240M+01005KA2240N+00285OE11240120722099995OE22240071523099995OE33240050599999995REMSOD35924 HR PRECIPITATION (IN): 0.00 24 HR MAX TEMP (F): 5024 HR MIN TEMP (F): 37PEAK WIND SPEED (MPH): 27 PEAK WIND DIR (DEG):220 PEAK WIND TIME (LST):      FASTEST 2MIN SPEED (MPH): 16FASTEST 2MIN DIR (DEG):230 FASTEST 2MIN TIME (LST):     AVERAGE WIND SPEED (MPH):11.3 24 HR AVG TEMP (F): 44DEPART FROM NORMAL:  2  HEATING DEGREE DAYS: 21 COOLING DEGREE DAYS:  0
0465999999137242022031604596+39378-074424SOD  +000355N  V030999999999999999999999999999+99999+99999999999ADDAA124000095KA1240M+01225KA2240N+00615OE11240116222099995OE22240067123099995OE33240042599999995REMSOD35924 HR PRECIPITATION (IN): 0.00 24 HR MAX TEMP (F): 5424 HR MIN TEMP (F): 43PEAK WIND SPEED (MPH): 26 PEAK WIND DIR (DEG):220 PEAK WIND TIME (LST):      FASTEST 2MIN SPEED (MPH): 15FASTEST 2MIN DIR (DEG):230 FASTEST 2MIN TIME (LST):     AVERAGE WIND SPEED (MPH): 9.5 24 HR AVG TEMP (F): 49DEPART FROM NORMAL:  7  HEATING DEGREE DAYS: 16 COOLING DEGREE DAYS:  0
0465999999137242022031704596+39378-074424SOD  +000355N  V030999999999999999999999999999+99999+99999999999ADDAA124000095KA1240M+01445KA2240N+00895OE11240089416099995OE22240067116099995OE33240028699999995REMSOD35924 HR PRECIPITATION (IN): 0.00 24 HR MAX TEMP (F): 5824 HR MIN TEMP (F): 48PEAK WIND SPEED (MPH): 20 PEAK WIND DIR (DEG):160 PEAK WIND TIME (LST):      FASTEST 2MIN SPEED (MPH): 15FASTEST 2MIN DIR (DEG):160 FASTEST 2MIN TIME (LST):     AVERAGE WIND SPEED (MPH): 6.4 24 HR AVG TEMP (F): 53DEPART FROM NORMAL: 11  HEATING DEGREE DAYS: 12 COOLING DEGREE DAYS:  0
0484999999137242022031804596+39378-074424SOD  +000355N  V030999999999999999999999999999+99999+99999999999ADDAA12400699AKA1240M+01285KA2240N+00895OE11240102805099995OE22240058105099995OE33240024699999995REMSOD35924 HR PRECIPITATION (IN): 0.27 24 HR MAX TEMP (F): 5524 HR MIN TEMP (F): 48PEAK WIND SPEED (MPH): 23 PEAK WIND DIR (DEG): 50 PEAK WIND TIME (LST):      FASTEST 2MIN SPEED (MPH): 13FASTEST 2MIN DIR (DEG): 50 FASTEST 2MIN TIME (LST):     AVERAGE WIND SPEED (MPH): 5.5 24 HR AVG TEMP (F): 52DEPART FROM NORMAL:  9  HEATING DEGREE DAYS: 13 COOLING DEGREE DAYS:  0EQDR01  0.277AAP092
0465999999137242022031904596+39378-074424SOD  +000355N  V030999999999999999999999999999+99999+99999999999ADDAA124000095KA1240M+01445KA2240N+00895OE11240089422099995OE22240053618099995OE33240034099999995REMSOD35924 HR PRECIPITATION (IN): 0.00 24 HR MAX TEMP (F): 5824 HR MIN TEMP (F): 48PEAK WIND SPEED (MPH): 20 PEAK WIND DIR (DEG):220 PEAK WIND TIME (LST):      FASTEST 2MIN SPEED (MPH): 12FASTEST 2MIN DIR (DEG):180 FASTEST 2MIN TIME (LST):     AVERAGE WIND SPEED (MPH): 7.6 24 HR AVG TEMP (F): 53DEPART FROM NORMAL: 10  HEATING DEGREE DAYS: 12 COOLING DEGREE DAYS:  0
0465999999137242022032004596+39378-074424SOD  +000355N  V030999999999999999999999999999+99999+99999999999ADDAA124000095KA1240M+01505KA2240N+01065OE11240156522099995OE22240089422099995OE33240053699999995REMSOD35924 HR PRECIPITATION (IN): 0.00 24 HR MAX TEMP (F): 5924 HR MIN TEMP (F): 51PEAK WIND SPEED (MPH): 35 PEAK WIND DIR (DEG):220 PEAK WIND TIME (LST):      FASTEST 2MIN SPEED (MPH): 20FASTEST 2MIN DIR (DEG):220 FASTEST 2MIN TIME (LST):     AVERAGE WIND SPEED (MPH):12.0 24 HR AVG TEMP (F): 55DEPART FROM NORMAL: 12  HEATING DEGREE DAYS: 10 COOLING DEGREE DAYS:  0
0465999999137242022032104596+39378-074424SOD  +000355N  V030999999999999999999999999999+99999+99999999999ADDAA124000095KA1240M+01565KA2240N+01005OE11240174333099995OE22240093933099995OE33240039399999995REMSOD35924 HR PRECIPITATION (IN): 0.00 24 HR MAX TEMP (F): 6024 HR MIN TEMP (F): 50PEAK WIND SPEED (MPH): 39 PEAK WIND DIR (DEG):330 PEAK WIND TIME (LST):      FASTEST 2MIN SPEED (MPH): 21FASTEST 2MIN DIR (DEG):330 FASTEST 2MIN TIME (LST):     AVERAGE WIND SPEED (MPH): 8.8 24 HR AVG TEMP (F): 55DEPART FROM NORMAL: 12  HEATING DEGREE DAYS: 10 COOLING DEGREE DAYS:  0
0465999999137242022032204596+39378-074424SOD  +000355N  V030999999999999999999999999999+99999+99999999999ADDAA124000095KA1240M+01725KA2240N+00725OE11240138629099995OE22240076029099995OE33240036799999995REMSOD35924 HR PRECIPITATION (IN): 0.00 24 HR MAX TEMP (F): 6324 HR MIN TEMP (F): 45PEAK WIND SPEED (MPH): 31 PEAK WIND DIR (DEG):290 PEAK WIND TIME (LST):      FASTEST 2MIN SPEED (MPH): 17FASTEST 2MIN DIR (DEG):290 FASTEST 2MIN TIME (LST):     AVERAGE WIND SPEED (MPH): 8.2 24 HR AVG TEMP (F): 54DEPART FROM NORMAL: 10  HEATING DEGREE DAYS: 11 COOLING DEGREE DAYS:  0
0465999999137242022032304596+39378-074424SOD  +000355N  V030999999999999999999999999999+99999+99999999999ADDAA124000095KA1240M+01445KA2240N+00835OE11240076005099995OE22240053612099995OE33240019799999995REMSOD35924 HR PRECIPITATION (IN): 0.00 24 HR MAX TEMP (F): 5824 HR MIN TEMP (F): 47PEAK WIND SPEED (MPH): 17 PEAK WIND DIR (DEG): 50 PEAK WIND TIME (LST):      FASTEST 2MIN SPEED (MPH): 12FASTEST 2MIN DIR (DEG):120 FASTEST 2MIN TIME (LST):     AVERAGE WIND SPEED (MPH): 4.4 24 HR AVG TEMP (F): 53DEPART FROM NORMAL:  9  HEATING DEGREE DAYS: 12 COOLING DEGREE DAYS:  0
0484999999137242022032404596+39378-074424SOD  +000355N  V030999999999999999999999999999+99999+99999999999ADDAA12400949AKA1240M+01115KA2240N+00675OE11240138608099995OE22240107309099995OE33240067199999995REMSOD35924 HR PRECIPITATION (IN): 0.37 24 HR MAX TEMP (F): 5224 HR MIN TEMP (F): 44PEAK WIND SPEED (MPH): 31 PEAK WIND DIR (DEG): 80 PEAK WIND TIME (LST):      FASTEST 2MIN SPEED (MPH): 24FASTEST 2MIN DIR (DEG): 90 FASTEST 2MIN TIME (LST):     AVERAGE WIND SPEED (MPH):15.0 24 HR AVG TEMP (F): 48DEPART FROM NORMAL:  4  HEATING DEGREE DAYS: 17 COOLING DEGREE DAYS:  0EQDR01  0.377AAP092
0484999999137242022032504596+39378-074424SOD  +000355N  V030999999999999999999999999999+99999+99999999999ADDAA12401969AKA1240M+01445KA2240N+00725OE11240156522099995OE22240098322099995OE33240043499999995REMSOD35924 HR PRECIPITATION (IN): 0.77 24 HR MAX TEMP (F): 5824 HR MIN TEMP (F): 45PEAK WIND SPEED (MPH): 35 PEAK WIND DIR (DEG):220 PEAK WIND TIME (LST):      FASTEST 2MIN SPEED (MPH): 22FASTEST 2MIN DIR (DEG):220 FASTEST 2MIN TIME (LST):     AVERAGE WIND SPEED (MPH): 9.7 24 HR AVG TEMP (F): 52DEPART FROM NORMAL:  8  HEATING DEGREE DAYS: 13 COOLING DEGREE DAYS:  0EQDR01  0.777AAP092
0484999999137242022032604596+39378-074424SOD  +000355N  V030999999999999999999999999999+99999+99999999999ADDAA12400059AKA1240M+01565KA2240N+00835OE11240120724099995OE22240084926099995OE33240032299999995REMSOD35924 HR PRECIPITATION (IN): 0.02 24 HR MAX TEMP (F): 6024 HR MIN TEMP (F): 47PEAK WIND SPEED (MPH): 27 PEAK WIND DIR (DEG):240 PEAK WIND TIME (LST):      FASTEST 2MIN SPEED (MPH): 19FASTEST 2MIN DIR (DEG):260 FASTEST 2MIN TIME (LST):     AVERAGE WIND SPEED (MPH): 7.2 24 HR AVG TEMP (F): 54DEPART FROM NORMAL:  9  HEATING DEGREE DAYS: 11 COOLING DEGREE DAYS:  0EQDR01  0.027AAP092
0484999999137242022032704596+39378-074424SOD  +000355N  V030999999999999999999999999999+99999+99999999999ADDAA12400139AKA1240M+01175KA2240N+00565OE11240201222099995OE22240102830099995OE33240051999999995REMSOD35924 HR PRECIPITATION (IN): 0.05 24 HR MAX TEMP (F): 5324 HR MIN TEMP (F): 42PEAK WIND SPEED (MPH): 45 PEAK WIND DIR (DEG):220 PEAK WIND TIME (LST):      FASTEST 2MIN SPEED (MPH): 23FASTEST 2MIN DIR (DEG):300 FASTEST 2MIN TIME (LST):     AVERAGE WIND SPEED (MPH):11.6 24 HR AVG TEMP (F): 48DEPART FROM NORMAL:  3  HEATING DEGREE DAYS: 17 COOLING DEGREE DAYS:  0EQDR01  0.057AAP092
0500999999137242022032804596+39378-074424SOD  +000355N  V030999999999999999999999999999+99999+99999999999ADDAA12400009AKA1240M+00725KA2240N+00005OE11240169931099995OE22240080529099995OE33240054599999995REMSOD35924 HR PRECIPITATION (IN):    T 24 HR MAX TEMP (F): 4524 HR MIN TEMP (F): 32PEAK WIND SPEED (MPH): 38 PEAK WIND DIR (DEG):310 PEAK WIND TIME (LST):      FASTEST 2MIN SPEED (MPH): 18FASTEST 2MIN DIR (DEG):290 FASTEST 2MIN TIME (LST):     AVERAGE WIND SPEED (MPH):12.2 24 HR AVG TEMP (F): 39DEPART FROM NORMAL: -6  HEATING DEGREE DAYS: 26 COOLING DEGREE DAYS:  0EQDQ01  00002PRCP24R01     T7AAP092
0500999999137242022032904596+39378-074424SOD  +000355N  V030999999999999999999999999999+99999+99999999999ADDAA12400009AKA1240M+00175KA2240N-00325OE11240183330099995OE22240093929099995OE33240051999999995REMSOD35924 HR PRECIPITATION (IN):    T 24 HR MAX TEMP (F): 3524 HR MIN TEMP (F): 26PEAK WIND SPEED (MPH): 41 PEAK WIND DIR (DEG):300 PEAK WIND TIME (LST):      FASTEST 2MIN SPEED (MPH): 21FASTEST 2MIN DIR (DEG):290 FASTEST 2MIN TIME (LST):     AVERAGE WIND SPEED (MPH):11.6 24 HR AVG TEMP (F): 31DEPART FROM NORMAL:-15  HEATING DEGREE DAYS: 34 COOLING DEGREE DAYS:  0EQDQ01  00002PRCP24R01     T7AAP092
0465999999137242022033004596+39378-074424SOD  +000355N  V030999999999999999999999999999+99999+99999999999ADDAA124000095KA1240M+00445KA2240N-00325OE11240143133099995OE22240080534099995OE33240041199999995REMSOD35924 HR PRECIPITATION (IN): 0.00 24 HR MAX TEMP (F): 4024 HR MIN TEMP (F): 26PEAK WIND SPEED (MPH): 32 PEAK WIND DIR (DEG):330 PEAK WIND TIME (LST):      FASTEST 2MIN SPEED (MPH): 18FASTEST 2MIN DIR (DEG):340 FASTEST 2MIN TIME (LST):     AVERAGE WIND SPEED (MPH): 9.2 24 HR AVG TEMP (F): 33DEPART FROM NORMAL:-13  HEATING DEGREE DAYS: 32 COOLING DEGREE DAYS:  0
0465999999137242022033104596+39378-074424SOD  +000355N  V030999999999999999999999999999+99999+99999999999ADDAA124000095KA1240M+01065KA2240N+00005OE11240111822099995OE22240062622099995OE33240030499999995REMSOD35924 HR PRECIPITATION (IN): 0.00 24 HR MAX TEMP (F): 5124 HR MIN TEMP (F): 32PEAK WIND SPEED (MPH): 25 PEAK WIND DIR (DEG):220 PEAK WIND TIME (LST):      FASTEST 2MIN SPEED (MPH): 14FASTEST 2MIN DIR (DEG):220 FASTEST 2MIN TIME (LST):     AVERAGE WIND SPEED (MPH): 6.8 24 HR AVG TEMP (F): 42DEPART FROM NORMAL: -4  HEATING DEGREE DAYS: 23 COOLING DEGREE DAYS:  0
0484999999137242022040104596+39378-074424SOD  +000355N  V030999999999999999999999999999+99999+99999999999ADDAA12400259AKA1240M+01565KA2240N+01005OE11240236920099995OE22240138622099995OE33240077899999995REMSOD35924 HR PRECIPITATION (IN): 0.10 24 HR MAX TEMP (F): 6024 HR MIN TEMP (F): 50PEAK WIND SPEED (MPH): 53 PEAK WIND DIR (DEG):200 PEAK WIND TIME (LST):      FASTEST 2MIN SPEED (MPH): 31FASTEST 2MIN DIR (DEG):220 FASTEST 2MIN TIME (LST):     AVERAGE WIND SPEED (MPH):17.4 24 HR AVG TEMP (F): 55DEPART FROM NORMAL:  9  HEATING DEGREE DAYS: 10 COOLING DEGREE DAYS:  0EQDR01  0.107AAP092
0128999999137242022040104596+39378-074424SOM  +000355N  V030999999999999999999999999999+99999+99999999999ADDAD1001969242499999999IAE110U06U02U00UKB1240N+0433IKB2240M+1106IKB3240A+0772IKC1N1-0044139999IKC2M1+0172219999IKE100U00U08U00U
0465999999137242022040204596+39378-074424SOD  +000355N  V030999999999999999999999999999+99999+99999999999ADDAA124000025KA1240M+01395KA2240N+00675OE11240205629099995OE22240111829099995OE33240057299999995REMSOD35924 HR PRECIPITATION (IN):    T 24 HR MAX TEMP (F): 5724 HR MIN TEMP (F): 44PEAK WIND SPEED (MPH): 46 PEAK WIND DIR (DEG):290 PEAK WIND TIME (LST):      FASTEST 2MIN SPEED (MPH): 25FASTEST 2MIN DIR (DEG):290 FASTEST 2MIN TIME (LST):     AVERAGE WIND SPEED (MPH):12.8 24 HR AVG TEMP (F): 51DEPART FROM NORMAL:  4  HEATING DEGREE DAYS: 14 COOLING DEGREE DAYS:  0
0484999999137242022040304596+39378-074424SOD  +000355N  V030999999999999999999999999999+99999+99999999999ADDAA12400009AKA1240M+01005KA2240N+00395OE11240120733099995OE22240071522099995OE33240039399999995REMSOD35924 HR PRECIPITATION (IN): 0.00 24 HR MAX TEMP (F): 5024 HR MIN TEMP (F): 39PEAK WIND SPEED (MPH): 27 PEAK WIND DIR (DEG):330 PEAK WIND TIME (LST):      FASTEST 2MIN SPEED (MPH): 16FASTEST 2MIN DIR (DEG):220 FASTEST 2MIN TIME (LST):     AVERAGE WIND SPEED (MPH): 8.8 24 HR AVG TEMP (F): 45DEPART FROM NORMAL: -2  HEATING DEGREE DAYS: 20 COOLING DEGREE DAYS:  0EQDR01  0.007AAP092
0465999999137242022040404596+39378-074424SOD  +000355N  V030999999999999999999999999999+99999+99999999999ADDAA124003695KA1240M+01175KA2240N+00615OE11240138633099995OE22240071533099995OE33240032699999995REMSOD35924 HR PRECIPITATION (IN): 0.14 24 HR MAX TEMP (F): 5324 HR MIN TEMP (F): 43PEAK WIND SPEED (MPH): 31 PEAK WIND DIR (DEG):330 PEAK WIND TIME (LST):      FASTEST 2MIN SPEED (MPH): 16FASTEST 2MIN DIR (DEG):330 FASTEST 2MIN TIME (LST):     AVERAGE WIND SPEED (MPH): 7.3 24 HR AVG TEMP (F): 48DEPART FROM NORMAL:  1  HEATING DEGREE DAYS: 17 COOLING DEGREE DAYS:  0
0484999999137242022040504596+39378-074424SOD  +000355N  V030999999999999999999999999999+99999+99999999999ADDAA12400009AKA1240M+01285KA2240N+00395OE11240107330099995OE22240067123099995OE33240036299999995REMSOD35924 HR PRECIPITATION (IN): 0.00 24 HR MAX TEMP (F): 5524 HR MIN TEMP (F): 39PEAK WIND SPEED (MPH): 24 PEAK WIND DIR (DEG):300 PEAK WIND TIME (LST):      FASTEST 2MIN SPEED (MPH): 15FASTEST 2MIN DIR (DEG):230 FASTEST 2MIN TIME (LST):     AVERAGE WIND SPEED (MPH): 8.1 24 HR AVG TEMP (F): 47DEPART FROM NORMAL: -1  HEATING DEGREE DAYS: 18 COOLING DEGREE DAYS:  0EQDR01  0.007AAP092
0465999999137242022040604596+39378-074424SOD  +000355N  V030999999999999999999999999999+99999+99999999999ADDAA124007695KA1240M+01065KA2240N+00725OE11240089416099995OE22240062616099995OE33240030499999995REMSOD35924 HR PRECIPITATION (IN): 0.30 24 HR MAX TEMP (F): 5124 HR MIN TEMP (F): 45PEAK WIND SPEED (MPH): 20 PEAK WIND DIR (DEG):160 PEAK WIND TIME (LST):      FASTEST 2MIN SPEED (MPH): 14FASTEST 2MIN DIR (DEG):160 FASTEST 2MIN TIME (LST):     AVERAGE WIND SPEED (MPH): 6.8 24 HR AVG TEMP (F): 48DEPART FROM NORMAL:  0  HEATING DEGREE DAYS: 17 COOLING DEGREE DAYS:  0
0465999999137242022040704596+39378-074424SOD  +000355N  V030999999999999999999999999999+99999+99999999999ADDAA124032895KA1240M+01175KA2240N+00785OE11240178805099995OE22240107310099995OE33240061799999995REMSOD35924 HR PRECIPITATION (IN): 1.29 24 HR MAX TEMP (F): 5324 HR MIN TEMP (F): 46PEAK WIND SPEED (MPH): 40 PEAK WIND DIR (DEG): 50 PEAK WIND TIME (LST):      FASTEST 2MIN SPEED (MPH): 24FASTEST 2MIN DIR (DEG):100 FASTEST 2MIN TIME (LST):     AVERAGE WIND SPEED (MPH):13.8 24 HR AVG TEMP (F): 50DEPART FROM NORMAL:  2  HEATING DEGREE DAYS: 15 COOLING DEGREE DAYS:  0
0465999999137242022040804596+39378-074424SOD  +000355N  V030999999999999999999999999999+99999+99999999999ADDAA124001395KA1240M+01395KA2240N+00785OE11240156516099995OE22240093908099995OE33240057299999995REMSOD35924 HR PRECIPITATION (IN): 0.05 24 HR MAX TEMP (F): 5724 HR MIN TEMP (F): 46PEAK WIND SPEED (MPH): 35 PEAK WIND DIR (DEG):160 PEAK WIND TIME (LST):      FASTEST 2MIN SPEED (MPH): 21FASTEST 2MIN DIR (DEG): 80 FASTEST 2MIN TIME (LST):     AVERAGE WIND SPEED (MPH):12.8 24 HR AVG TEMP (F): 52DEPART FROM NORMAL:  3  HEATING DEGREE DAYS: 13 COOLING DEGREE DAYS:  0
0484999999137242022040904596+39378-074424SOD  +000355N  V030999999999999999999999999999+99999+99999999999ADDAA12400009AKA1240M+01565KA2240N+00835OE11240116229099995OE22240076022099995OE33240042999999995REMSOD35924 HR PRECIPITATION (IN): 0.00 24 HR MAX TEMP (F): 6024 HR MIN TEMP (F): 47PEAK WIND SPEED (MPH): 26 PEAK WIND DIR (DEG):290 PEAK WIND TIME (LST):      FASTEST 2MIN SPEED (MPH): 17FASTEST 2MIN DIR (DEG):220 FASTEST 2MIN TIME (LST):     AVERAGE WIND SPEED (MPH): 9.6 24 HR AVG TEMP (F): 54DEPART FROM NORMAL:  5  HEATING DEGREE DAYS: 11 COOLING DEGREE DAYS:  0EQDR01  0.007AAP092
0484999999137242022041004596+39378-074424SOD  +000355N  V030999999999999999999999999999+99999+99999999999ADDAA12400009AKA1240M+01395KA2240N+00835OE11240120729099995OE22240076029099995OE33240036299999995REMSOD35924 HR PRECIPITATION (IN): 0.00 24 HR MAX TEMP (F): 5724 HR MIN TEMP (F): 47PEAK WIND SPEED (MPH): 27 PEAK WIND DIR (DEG):290 PEAK WIND TIME (LST):      FASTEST 2MIN SPEED (MPH): 17FASTEST 2MIN DIR (DEG):290 FASTEST 2MIN TIME (LST):     AVERAGE WIND SPEED (MPH): 8.1 24 HR AVG TEMP (F): 52DEPART FROM NORMAL:  3  HEATING DEGREE DAYS: 13 COOLING DEGREE DAYS:  0EQDR01  0.007AAP092
0484999999137242022041104596+39378-074424SOD  +000355N  V030999999999999999999999999999+99999+99999999999ADDAA12400009AKA1240M+00945KA2240N+00675OE11240169930099995OE22240089429099995OE33240046099999995REMSOD35924 HR PRECIPITATION (IN): 0.00 24 HR MAX TEMP (F): 4924 HR MIN TEMP (F): 44PEAK WIND SPEED (MPH): 38 PEAK WIND DIR (DEG):300 PEAK WIND TIME (LST):      FASTEST 2MIN SPEED (MPH): 20FASTEST 2MIN DIR (DEG):290 FASTEST 2MIN TIME (LST):     AVERAGE WIND SPEED (MPH):10.3 24 HR AVG TEMP (F): 47DEPART FROM NORMAL: -3  HEATING DEGREE DAYS: 18 COOLING DEGREE DAYS:  0EQDR01  0.007AAP092
0484999999137242022041204596+39378-074424SOD  +000355N  V030999999999999999999999999999+99999+99999999999ADDAA12400009AKA1240M+01005KA2240N+00395OE11240129622099995OE22240080522099995OE33240039399999995REMSOD35924 HR PRECIPITATION (IN): 0.00 24 HR MAX TEMP (F): 5024 HR MIN TEMP (F): 39PEAK WIND SPEED (MPH): 29 PEAK WIND DIR (DEG):220 PEAK WIND TIME (LST):      FASTEST 2MIN SPEED (MPH): 18FASTEST 2MIN DIR (DEG):220 FASTEST 2MIN TIME (LST):     AVERAGE WIND SPEED (MPH): 8.8 24 HR AVG TEMP (F): 45DEPART FROM NORMAL: -5  HEATING DEGREE DAYS: 20 COOLING DEGREE DAYS:  0EQDR01  0.007AAP092
0484999999137242022041304596+39378-074424SOD  +000355N  V030999999999999999999999999999+99999+99999999999ADDAA12400009AKA1240M+02225KA2240N+00835OE11240107330099995OE22240058133099995OE33240025999999995REMSOD35924 HR PRECIPITATION (IN): 0.00 24 HR MAX TEMP (F): 7224 HR MIN TEMP (F): 47PEAK WIND SPEED (MPH): 24 PEAK WIND DIR (DEG):300 PEAK WIND TIME (LST):      FASTEST 2MIN SPEED (MPH): 13FASTEST 2MIN DIR (DEG):330 FASTEST 2MIN TIME (LST):     AVERAGE WIND SPEED (MPH): 5.8 24 HR AVG TEMP (F): 60DEPART FROM NORMAL: 10  HEATING DEGREE DAYS:  5 COOLING DEGREE DAYS:  0EQDR01  0.007AAP092
0484999999137242022041404596+39378-074424SOD  +000355N  V030999999999999999999999999999+99999+99999999999ADDAA12400009AKA1240M+01725KA2240N+01175OE11240125222099995OE22240076022099995OE33240035899999995REMSOD35924 HR PRECIPITATION (IN): 0.00 24 HR MAX TEMP (F): 6324 HR MIN TEMP (F): 53PEAK WIND SPEED (MPH): 28 PEAK WIND DIR (DEG):220 PEAK WIND TIME (LST):      FASTEST 2MIN SPEED (MPH): 17FASTEST 2MIN DIR (DEG):220 FASTEST 2MIN TIME (LST):     AVERAGE WIND SPEED (MPH): 8.0 24 HR AVG TEMP (F): 58DEPART FROM NORMAL:  7  HEATING DEGREE DAYS:  7 COOLING DEGREE DAYS:  0EQDR01  0.007AAP092
0465999999137242022041504596+39378-074424SOD  +000355N  V030999999999999999999999999999+99999+99999999999ADDAA124001595KA1240M+01895KA2240N+01335OE11240183322099995OE22240098323099995OE33240063099999995REMSOD35924 HR PRECIPITATION (IN): 0.06 24 HR MAX TEMP (F): 6624 HR MIN TEMP (F): 56PEAK WIND SPEED (MPH): 41 PEAK WIND DIR (DEG):220 PEAK WIND TIME (LST):      FASTEST 2MIN SPEED (MPH): 22FASTEST 2MIN DIR (DEG):230 FASTEST 2MIN TIME (LST):     AVERAGE WIND SPEED (MPH):14.1 24 HR AVG TEMP (F): 61DEPART FROM NORMAL: 10  HEATING DEGREE DAYS:  4 COOLING DEGREE DAYS:  0
0465999999137242022041604596+39378-074424SOD  +000355N  V030999999999999999999999999999+99999+99999999999ADDAA124000025KA1240M+01835KA2240N+01175OE11240147523099995OE22240084922099995OE33240044399999995REMSOD35924 HR PRECIPITATION (IN):    T 24 HR MAX TEMP (F): 6524 HR MIN TEMP (F): 53PEAK WIND SPEED (MPH): 33 PEAK WIND DIR (DEG):230 PEAK WIND TIME (LST):      FASTEST 2MIN SPEED (MPH): 19FASTEST 2MIN DIR (DEG):220 FASTEST 2MIN TIME (LST):     AVERAGE WIND SPEED (MPH): 9.9 24 HR AVG TEMP (F): 59DEPART FROM NORMAL:  8  HEATING DEGREE DAYS:  6 COOLING DEGREE DAYS:  0
0465999999137242022041704596+39378-074424SOD  +000355N  V030999999999999999999999999999+99999+99999999999ADDAA124007495KA1240M+01565KA2240N+01005OE11240169923099995OE22240089422099995OE33240060899999995REMSOD35924 HR PRECIPITATION (IN): 0.29 24 HR MAX TEMP (F): 6024 HR MIN TEMP (F): 50PEAK WIND SPEED (MPH): 38 PEAK WIND DIR (DEG):230 PEAK WIND TIME (LST):      FASTEST 2MIN SPEED (MPH): 20FASTEST 2MIN DIR (DEG):220 FASTEST 2MIN TIME (LST):     AVERAGE WIND SPEED (MPH):13.6 24 HR AVG TEMP (F): 55DEPART FROM NORMAL:  3  HEATING DEGREE DAYS: 10 COOLING DEGREE DAYS:  0
0465999999137242022041804596+39378-074424SOD  +000355N  V030999999999999999999999999999+99999+99999999999ADDAA124000395KA1240M+01175KA2240N+00675OE11240125233099995OE22240067133099995OE33240031399999995REMSOD35924 HR PRECIPITATION (IN): 0.01 24 HR MAX TEMP (F): 5324 HR MIN TEMP (F): 44PEAK WIND SPEED (MPH): 28 PEAK WIND DIR (DEG):330 PEAK WIND TIME (LST):      FASTEST 2MIN SPEED (MPH): 15FASTEST 2MIN DIR (DEG):330 FASTEST 2MIN TIME (LST):     AVERAGE WIND SPEED (MPH): 7.0 24 HR AVG TEMP (F): 49DEPART FROM NORMAL: -3  HEATING DEGREE DAYS: 16 COOLING DEGREE DAYS:  0
0465999999137242022041904596+39378-074424SOD  +000355N  V030999999999999999999999999999+99999+99999999999ADDAA124025495KA1240M+01285KA2240N+00505OE11240259312099995OE22240174311099995OE33240084099999995REMSOD35924 HR PRECIPITATION (IN): 1.00 24 HR MAX TEMP (F): 5524 HR MIN TEMP (F): 41PEAK WIND SPEED (MPH): 58 PEAK WIND DIR (DEG):120 PEAK WIND TIME (LST):      FASTEST 2MIN SPEED (MPH): 39FASTEST 2MIN DIR (DEG):110 FASTEST 2MIN TIME (LST):     AVERAGE WIND SPEED (MPH):18.8 24 HR AVG TEMP (F): 48DEPART FROM NORMAL: -4  HEATING DEGREE DAYS: 17 COOLING DEGREE DAYS:  0
0465999999137242022042004596+39378-074424SOD  +000355N  V030999999999999999999999999999+99999+99999999999ADDAA124000025KA1240M+01335KA2240N+00505OE11240196730099995OE22240102829099995OE33240070699999995REMSOD35924 HR PRECIPITATION (IN):    T 24 HR MAX TEMP (F): 5624 HR MIN TEMP (F): 41PEAK WIND SPEED (MPH): 44 PEAK WIND DIR (DEG):300 PEAK WIND TIME (LST):      FASTEST 2MIN SPEED (MPH): 23FASTEST 2MIN DIR (DEG):290 FASTEST 2MIN TIME (LST):     AVERAGE WIND SPEED (MPH):15.8 24 HR AVG TEMP (F): 49DEPART FROM NORMAL: -3  HEATING DEGREE DAYS: 16 COOLING DEGREE DAYS:  0
0484999999137242022042104596+39378-074424SOD  +000355N  V030999999999999999999999999999+99999+99999999999ADDAA12400009AKA1240M+01505KA2240N+00505OE11240160928099995OE22240071528099995OE33240038499999995REMSOD35924 HR PRECIPITATION (IN): 0.00 24 HR MAX TEMP (F): 5924 HR MIN TEMP (F): 41PEAK WIND SPEED (MPH): 36 PEAK WIND DIR (DEG):280 PEAK WIND TIME (LST):      FASTEST 2MIN SPEED (MPH): 16FASTEST 2MIN DIR (DEG):280 FASTEST 2MIN TIME (LST):     AVERAGE WIND SPEED (MPH): 8.6 24 HR AVG TEMP (F): 50DEPART FROM NORMAL: -3  HEATING DEGREE DAYS: 15 COOLING DEGREE DAYS:  0EQDR01  0.007AAP092
0484999999137242022042204596+39378-074424SOD  +000355N  V030999999999999999999999999999+99999+99999999999ADDAA12400009AKA1240M+01225KA2240N+00945OE11240129621099995OE22240076022099995OE33240045299999995REMSOD35924 HR PRECIPITATION (IN): 0.00 24 HR MAX TEMP (F): 5424 HR MIN TEMP (F): 49PEAK WIND SPEED (MPH): 29 PEAK WIND DIR (DEG):210 PEAK WIND TIME (LST):      FASTEST 2MIN SPEED (MPH): 17FASTEST 2MIN DIR (DEG):220 FASTEST 2MIN TIME (LST):     AVERAGE WIND SPEED (MPH):10.1 24 HR AVG TEMP (F): 52DEPART FROM NORMAL: -1  HEATING DEGREE DAYS: 13 COOLING DEGREE DAYS:  0EQDR01  0.007AAP092
0484999999137242022042304596+39378-074424SOD  +000355N  V030999999999999999999999999999+99999+99999999999ADDAA12400009AKA1240M+02175KA2240N+01115OE11240098333099995OE22240058133099995OE33240030099999995REMSOD35924 HR PRECIPITATION (IN): 0.00 24 HR MAX TEMP (F): 7124 HR MIN TEMP (F): 52PEAK WIND SPEED (MPH): 22 PEAK WIND DIR (DEG):330 PEAK WIND TIME (LST):      FASTEST 2MIN SPEED (MPH): 13FASTEST 2MIN DIR (DEG):330 FASTEST 2MIN TIME (LST):     AVERAGE WIND SPEED (MPH): 6.7 24 HR AVG TEMP (F): 62DEPART FROM NORMAL:  8  HEATING DEGREE DAYS:  3 COOLING DEGREE DAYS:  0EQDR01  0.007AAP092
0484999999137242022042404596+39378-074424SOD  +000355N  V030999999999999999999999999999+99999+99999999999ADDAA12400009AKA1240M+01285KA2240N+01115OE11240084908099995OE22240062609099995OE33240029599999995REMSOD35924 HR PRECIPITATION (IN): 0.00 24 HR MAX TEMP (F): 5524 HR MIN TEMP (F): 52PEAK WIND SPEED (MPH): 19 PEAK WIND DIR (DEG): 80 PEAK WIND TIME (LST):      FASTEST 2MIN SPEED (MPH): 14FASTEST 2MIN DIR (DEG): 90 FASTEST 2MIN TIME (LST):     AVERAGE WIND SPEED (MPH): 6.6 24 HR AVG TEMP (F): 54DEPART FROM NORMAL:  0  HEATING DEGREE DAYS: 11 COOLING DEGREE DAYS:  0EQDR01  0.007AAP092
0484999999137242022042504596+39378-074424SOD  +000355N  V030999999999999999999999999999+99999+99999999999ADDAA12400009AKA1240M+01395KA2240N+01065OE11240143109099995OE22240098309099995OE33240048399999995REMSOD35924 HR PRECIPITATION (IN): 0.00 24 HR MAX TEMP (F): 5724 HR MIN TEMP (F): 51PEAK WIND SPEED (MPH): 32 PEAK WIND DIR (DEG): 90 PEAK WIND TIME (LST):      FASTEST 2MIN SPEED (MPH): 22FASTEST 2MIN DIR (DEG): 90 FASTEST 2MIN TIME (LST):     AVERAGE WIND SPEED (MPH):10.8 24 HR AVG TEMP (F): 54DEPART FROM NORMAL:  0  HEATING DEGREE DAYS: 11 COOLING DEGREE DAYS:  0EQDR01  0.007AAP092
0484999999137242022042604596+39378-074424SOD  +000355N  V030999999999999999999999999999+99999+99999999999ADDAA12400009AKA1240M+01225KA2240N+01065OE11240107314099995OE22240067108099995OE33240047899999995REMSOD35924 HR PRECIPITATION (IN): 0.00 24 HR MAX TEMP (F): 5424 HR MIN TEMP (F): 51PEAK WIND SPEED (MPH): 24 PEAK WIND DIR (DEG):140 PEAK WIND TIME (LST):      FASTEST 2MIN SPEED (MPH): 15FASTEST 2MIN DIR (DEG): 80 FASTEST 2MIN TIME (LST):     AVERAGE WIND SPEED (MPH):10.7 24 HR AVG TEMP (F): 53DEPART FROM NORMAL: -1  HEATING DEGREE DAYS: 12 COOLING DEGREE DAYS:  0EQDR01  0.007AAP092
0484999999137242022042704596+39378-074424SOD  +000355N  V030999999999999999999999999999+99999+99999999999ADDAA124001095KA1240M+02005KA2240N+0128AOE11240174333099995OE22240102833099995OE33240038499999995REMSOD35924 HR PRECIPITATION (IN): 0.04 24 HR MAX TEMP (F): 6824 HR MIN TEMP (F): 55PEAK WIND SPEED (MPH): 39 PEAK WIND DIR (DEG):330 PEAK WIND TIME (LST):      FASTEST 2MIN SPEED (MPH): 23FASTEST 2MIN DIR (DEG):330 FASTEST 2MIN TIME (LST):     AVERAGE WIND SPEED (MPH): 8.6 24 HR AVG TEMP (F): 62DEPART FROM NORMAL:  7  HEATING DEGREE DAYS:  3 COOLING DEGREE DAYS:  0EQDR01    557KAN014
0484999999137242022042804596+39378-074424SOD  +000355N  V030999999999999999999999999999+99999+99999999999ADDAA12400009AKA1240M+01505KA2240N+00725OE11240174333099995OE22240080529099995OE33240046599999995REMSOD35924 HR PRECIPITATION (IN): 0.00 24 HR MAX TEMP (F): 5924 HR MIN TEMP (F): 45PEAK WIND SPEED (MPH): 39 PEAK WIND DIR (DEG):330 PEAK WIND TIME (LST):      FASTEST 2MIN SPEED (MPH): 18FASTEST 2MIN DIR (DEG):290 FASTEST 2MIN TIME (LST):     AVERAGE WIND SPEED (MPH):10.4 24 HR AVG TEMP (F): 52DEPART FROM NORMAL: -3  HEATING DEGREE DAYS: 13 COOLING DEGREE DAYS:  0EQDR01  0.007AAP092
0484999999137242022042904596+39378-074424SOD  +000355N  V030999999999999999999999999999+99999+99999999999ADDAA12400009AKA1240M+01395KA2240N+00335OE11240187833099995OE22240107333099995OE33240059599999995REMSOD35924 HR PRECIPITATION (IN): 0.00 24 HR MAX TEMP (F): 5724 HR MIN TEMP (F): 38PEAK WIND SPEED (MPH): 42 PEAK WIND DIR (DEG):330 PEAK WIND TIME (LST):      FASTEST 2MIN SPEED (MPH): 24FASTEST 2MIN DIR (DEG):330 FASTEST 2MIN TIME (LST):     AVERAGE WIND SPEED (MPH):13.3 24 HR AVG TEMP (F): 48DEPART FROM NORMAL: -7  HEATING DEGREE DAYS: 17 COOLING DEGREE DAYS:  0EQDR01  0.007AAP092
0484999999137242022043004596+39378-074424SOD  +000355N  V030999999999999999999999999999+99999+99999999999ADDAA12400009AKA1240M+01675KA2240N+00565OE11240143133099995OE22240080533099995OE33240042999999995REMSOD35924 HR PRECIPITATION (IN): 0.00 24 HR MAX TEMP (F): 6224 HR MIN TEMP (F): 42PEAK WIND SPEED (MPH): 32 PEAK WIND DIR (DEG):330 PEAK WIND TIME (LST):      FASTEST 2MIN SPEED (MPH): 18FASTEST 2MIN DIR (DEG):330 FASTEST 2MIN TIME (LST):     AVERAGE WIND SPEED (MPH): 9.6 24 HR AVG TEMP (F): 52DEPART FROM NORMAL: -4  HEATING DEGREE DAYS: 13 COOLING DEGREE DAYS:  0EQDR01  0.007AAP092
0484999999137242022050104596+39378-074424SOD  +000355N  V030999999999999999999999999999+99999+99999999999ADDAA12400009AKA1240M+01445KA2240N+00675OE11240134117099995OE22240067119099995OE33240040299999995REMSOD35924 HR PRECIPITATION (IN): 0.00 24 HR MAX TEMP (F): 5824 HR MIN TEMP (F): 44PEAK WIND SPEED (MPH): 30 PEAK WIND DIR (DEG):170 PEAK WIND TIME (LST):      FASTEST 2MIN SPEED (MPH): 15FASTEST 2MIN DIR (DEG):190 FASTEST 2MIN TIME (LST):     AVERAGE WIND SPEED (MPH): 9.0 24 HR AVG TEMP (F): 51DEPART FROM NORMAL: -5  HEATING DEGREE DAYS: 14 COOLING DEGREE DAYS:  0EQDR01  0.007AAP092
0128999999137242022050104596+39378-074424SOM  +000355N  V030999999999999999999999999999+99999+99999999999ADDAD1003289060699999999IAE109I05I02I02IKB1240N+0783IKB2240M+1439IKB3240A+1111IKC1N9+0033289999IKC2M9+0222129999IKE100I00I00I00I
0484999999137242022050204596+39378-074424SOD  +000355N  V030999999999999999999999999999+99999+99999999999ADDAA12400059AKA1240M+01565KA2240N+00895OE11240125222099995OE22240067122099995OE33240036299999995REMSOD35924 HR PRECIPITATION (IN): 0.02 24 HR MAX TEMP (F): 6024 HR MIN TEMP (F): 48PEAK WIND SPEED (MPH): 28 PEAK WIND DIR (DEG):220 PEAK WIND TIME (LST):      FASTEST 2MIN SPEED (MPH): 15FASTEST 2MIN DIR (DEG):220 FASTEST 2MIN TIME (LST):     AVERAGE WIND SPEED (MPH): 8.1 24 HR AVG TEMP (F): 54DEPART FROM NORMAL: -2  HEATING DEGREE DAYS: 11 COOLING DEGREE DAYS:  0EQDR01  0.027AAP092
0484999999137242022050304596+39378-074424SOD  +000355N  V030999999999999999999999999999+99999+99999999999ADDAA12400589AKA1240M+02225KA2240N+01115OE11240093914099995OE22240062615099995OE33240035899999995REMSOD35924 HR PRECIPITATION (IN): 0.23 24 HR MAX TEMP (F): 7224 HR MIN TEMP (F): 52PEAK WIND SPEED (MPH): 21 PEAK WIND DIR (DEG):140 PEAK WIND TIME (LST):      FASTEST 2MIN SPEED (MPH): 14FASTEST 2MIN DIR (DEG):150 FASTEST 2MIN TIME (LST):     AVERAGE WIND SPEED (MPH): 8.0 24 HR AVG TEMP (F): 62DEPART FROM NORMAL:  6  HEATING DEGREE DAYS:  3 COOLING DEGREE DAYS:  0EQDR01  0.237AAP092
0465999999137242022050404596+39378-074424SOD  +000355N  V030999999999999999999999999999+99999+99999999999ADDAA124000095KA1240M+01175KA2240N+00945OE11240116209099995OE22240084910099995OE33240057799999995REMSOD35924 HR PRECIPITATION (IN): 0.00 24 HR MAX TEMP (F): 5324 HR MIN TEMP (F): 49PEAK WIND SPEED (MPH): 26 PEAK WIND DIR (DEG): 90 PEAK WIND TIME (LST):      FASTEST 2MIN SPEED (MPH): 19FASTEST 2MIN DIR (DEG):100 FASTEST 2MIN TIME (LST):     AVERAGE WIND SPEED (MPH):12.9 24 HR AVG TEMP (F): 51DEPART FROM NORMAL: -6  HEATING DEGREE DAYS: 14 COOLING DEGREE DAYS:  0
0500999999137242022050504596+39378-074424SOD  +000355N  V030999999999999999999999999999+99999+99999999999ADDAA12400009AKA1240M+01565KA2240N+01065OE11240080511099995OE22240062611099995OE33240023799999995REMSOD35924 HR PRECIPITATION (IN):    T 24 HR MAX TEMP (F): 6024 HR MIN TEMP (F): 51PEAK WIND SPEED (MPH): 18 PEAK WIND DIR (DEG):110 PEAK WIND TIME (LST):      FASTEST 2MIN SPEED (MPH): 14FASTEST 2MIN DIR (DEG):110 FASTEST 2MIN TIME (LST):     AVERAGE WIND SPEED (MPH): 5.3 24 HR AVG TEMP (F): 56DEPART FROM NORMAL: -1  HEATING DEGREE DAYS:  9 COOLING DEGREE DAYS:  0EQDQ01  00002PRCP24R01     T7AAP092
0465999999137242022050604596+39378-074424SOD  +000355N  V030999999999999999999999999999+99999+99999999999ADDAA124000095KA1240M+01615KA2240N+01285OE11240129607099995OE22240076008099995OE33240034999999995REMSOD35924 HR PRECIPITATION (IN): 0.00 24 HR MAX TEMP (F): 6124 HR MIN TEMP (F): 55PEAK WIND SPEED (MPH): 29 PEAK WIND DIR (DEG): 70 PEAK WIND TIME (LST):      FASTEST 2MIN SPEED (MPH): 17FASTEST 2MIN DIR (DEG): 80 FASTEST 2MIN TIME (LST):     AVERAGE WIND SPEED (MPH): 7.8 24 HR AVG TEMP (F): 58DEPART FROM NORMAL:  1  HEATING DEGREE DAYS:  7 COOLING DEGREE DAYS:  0
0484999999137242022050704596+39378-074424SOD  +000355N  V030999999999999999999999999999+99999+99999999999ADDAA12401079AKA1240M+01335KA2240N+01005OE11240178808099995OE22240125208099995OE33240052399999995REMSOD35924 HR PRECIPITATION (IN): 0.42 24 HR MAX TEMP (F): 5624 HR MIN TEMP (F): 50PEAK WIND SPEED (MPH): 40 PEAK WIND DIR (DEG): 80 PEAK WIND TIME (LST):      FASTEST 2MIN SPEED (MPH): 28FASTEST 2MIN DIR (DEG): 80 FASTEST 2MIN TIME (LST):     AVERAGE WIND SPEED (MPH):11.7 24 HR AVG TEMP (F): 53DEPART FROM NORMAL: -5  HEATING DEGREE DAYS: 12 COOLING DEGREE DAYS:  0EQDR01  0.427AAP092
0484999999137242022050804596+39378-074424SOD  +000355N  V030999999999999999999999999999+99999+99999999999ADDAA12404049AKA1240M+01065KA2240N+00835OE11240245907099995OE22240143108099995OE33240109199999995REMSOD35924 HR PRECIPITATION (IN): 1.59 24 HR MAX TEMP (F): 5124 HR MIN TEMP (F): 47PEAK WIND SPEED (MPH): 55 PEAK WIND DIR (DEG): 70 PEAK WIND TIME (LST):      FASTEST 2MIN SPEED (MPH): 32FASTEST 2MIN DIR (DEG): 80 FASTEST 2MIN TIME (LST):     AVERAGE WIND SPEED (MPH):24.4 24 HR AVG TEMP (F): 49DEPART FROM NORMAL: -9  HEATING DEGREE DAYS: 16 COOLING DEGREE DAYS:  0EQDR01  1.597AAP092
0484999999137242022050904596+39378-074424SOD  +000355N  V030999999999999999999999999999+99999+99999999999ADDAA12400749AKA1240M+01005KA2240N+00785OE11240232506099995OE22240129605099995OE33240093999999995REMSOD35924 HR PRECIPITATION (IN): 0.29 24 HR MAX TEMP (F): 5024 HR MIN TEMP (F): 46PEAK WIND SPEED (MPH): 52 PEAK WIND DIR (DEG): 60 PEAK WIND TIME (LST):      FASTEST 2MIN SPEED (MPH): 29FASTEST 2MIN DIR (DEG): 50 FASTEST 2MIN TIME (LST):     AVERAGE WIND SPEED (MPH):21.0 24 HR AVG TEMP (F): 48DEPART FROM NORMAL:-10  HEATING DEGREE DAYS: 17 COOLING DEGREE DAYS:  0EQDR01  0.297AAP092
0500999999137242022051004596+39378-074424SOD  +000355N  V030999999999999999999999999999+99999+99999999999ADDAA12400009AKA1240M+01395KA2240N+00725OE11240196705099995OE22240116205099995OE33240075599999995REMSOD35924 HR PRECIPITATION (IN):    T 24 HR MAX TEMP (F): 5724 HR MIN TEMP (F): 45PEAK WIND SPEED (MPH): 44 PEAK WIND DIR (DEG): 50 PEAK WIND TIME (LST):      FASTEST 2MIN SPEED (MPH): 26FASTEST 2MIN DIR (DEG): 50 FASTEST 2MIN TIME (LST):     AVERAGE WIND SPEED (MPH):16.9 24 HR AVG TEMP (F): 51DEPART FROM NORMAL: -7  HEATING DEGREE DAYS: 14 COOLING DEGREE DAYS:  0EQDQ01  00002PRCP24R01     T7AAP092
0465999999137242022051104596+39378-074424SOD  +000355N  V030999999999999999999999999999+99999+99999999999ADDAA124000095KA1240M+01505KA2240N+01115OE11240205607099995OE22240125207099995OE33240081499999995REMSOD35924 HR PRECIPITATION (IN): 0.00 24 HR MAX TEMP (F): 5924 HR MIN TEMP (F): 52PEAK WIND SPEED (MPH): 46 PEAK WIND DIR (DEG): 70 PEAK WIND TIME (LST):      FASTEST 2MIN SPEED (MPH): 28FASTEST 2MIN DIR (DEG): 70 FASTEST 2MIN TIME (LST):     AVERAGE WIND SPEED (MPH):18.2 24 HR AVG TEMP (F): 56DEPART FROM NORMAL: -3  HEATING DEGREE DAYS:  9 COOLING DEGREE DAYS:  0
0500999999137242022051204596+39378-074424SOD  +000355N  V030999999999999999999999999999+99999+99999999999ADDAA12400009AKA1240M+01335KA2240N+01115OE11240169906099995OE22240098305099995OE33240059999999995REMSOD35924 HR PRECIPITATION (IN):    T 24 HR MAX TEMP (F): 5624 HR MIN TEMP (F): 52PEAK WIND SPEED (MPH): 38 PEAK WIND DIR (DEG): 60 PEAK WIND TIME (LST):      FASTEST 2MIN SPEED (MPH): 22FASTEST 2MIN DIR (DEG): 50 FASTEST 2MIN TIME (LST):     AVERAGE WIND SPEED (MPH):13.4 24 HR AVG TEMP (F): 54DEPART FROM NORMAL: -5  HEATING DEGREE DAYS: 11 COOLING DEGREE DAYS:  0EQDQ01  00002PRCP24R01     T7AAP092
0484999999137242022051304596+39378-074424SOD  +000355N  V030999999999999999999999999999+99999+99999999999ADDAA12400059AKA1240M+01285KA2240N+01065OE11240116207099995OE22240067105099995OE33240046599999995REMSOD35924 HR PRECIPITATION (IN): 0.02 24 HR MAX TEMP (F): 5524 HR MIN TEMP (F): 51PEAK WIND SPEED (MPH): 26 PEAK WIND DIR (DEG): 70 PEAK WIND TIME (LST):      FASTEST 2MIN SPEED (MPH): 15FASTEST 2MIN DIR (DEG): 50 FASTEST 2MIN TIME (LST):     AVERAGE WIND SPEED (MPH):10.4 24 HR AVG TEMP (F): 53DEPART FROM NORMAL: -6  HEATING DEGREE DAYS: 12 COOLING DEGREE DAYS:  0EQDR01  0.027AAP092
0465999999137242022051404596+39378-074424SOD  +000355N  V030999999999999999999999999999+99999+99999999999ADDAA124000095KA1240M+01505KA2240N+01175OE11240093905099995OE22240053605099995OE33240029199999995REMSOD35924 HR PRECIPITATION (IN): 0.00 24 HR MAX TEMP (F): 5924 HR MIN TEMP (F): 53PEAK WIND SPEED (MPH): 21 PEAK WIND DIR (DEG): 50 PEAK WIND TIME (LST):      FASTEST 2MIN SPEED (MPH): 12FASTEST 2MIN DIR (DEG): 50 FASTEST 2MIN TIME (LST):     AVERAGE WIND SPEED (MPH): 6.5 24 HR AVG TEMP (F): 56DEPART FROM NORMAL: -3  HEATING DEGREE DAYS:  9 COOLING DEGREE DAYS:  0
0484999999137242022051504596+39378-074424SOD  +000355N  V030999999999999999999999999999+99999+99999999999ADDAA12404179AKA1240M+01675KA2240N+01225OE11240071516099995OE22240049211099995OE33240020699999995REMSOD35924 HR PRECIPITATION (IN): 1.64 24 HR MAX TEMP (F): 6224 HR MIN TEMP (F): 54PEAK WIND SPEED (MPH): 16 PEAK WIND DIR (DEG):160 PEAK WIND TIME (LST):      FASTEST 2MIN SPEED (MPH): 11FASTEST 2MIN DIR (DEG):110 FASTEST 2MIN TIME (LST):     AVERAGE WIND SPEED (MPH): 4.6 24 HR AVG TEMP (F): 58DEPART FROM NORMAL: -2  HEATING DEGREE DAYS:  7 COOLING DEGREE DAYS:  0EQDR01  1.647AAP092
0465999999137242022051604596+39378-074424SOD  +000355N  V030999999999999999999999999999+99999+99999999999ADDAA124000095KA1240M+02005KA2240N+01285OE11240089422099995OE22240058123099995OE33240028699999995REMSOD35924 HR PRECIPITATION (IN): 0.00 24 HR MAX TEMP (F): 6824 HR MIN TEMP (F): 55PEAK WIND SPEED (MPH): 20 PEAK WIND DIR (DEG):220 PEAK WIND TIME (LST):      FASTEST 2MIN SPEED (MPH): 13FASTEST 2MIN DIR (DEG):230 FASTEST 2MIN TIME (LST):     AVERAGE WIND SPEED (MPH): 6.4 24 HR AVG TEMP (F): 62DEPART FROM NORMAL:  2  HEATING DEGREE DAYS:  3 COOLING DEGREE DAYS:  0
0484999999137242022051704596+39378-074424SOD  +000355N  V030999999999999999999999999999+99999+99999999999ADDAA12400209AKA1240M+02065KA2240N+01445OE11240143122099995OE22240093922099995OE33240040799999995REMSOD35924 HR PRECIPITATION (IN): 0.08 24 HR MAX TEMP (F): 6924 HR MIN TEMP (F): 58PEAK WIND SPEED (MPH): 32 PEAK WIND DIR (DEG):220 PEAK WIND TIME (LST):      FASTEST 2MIN SPEED (MPH): 21FASTEST 2MIN DIR (DEG):220 FASTEST 2MIN TIME (LST):     AVERAGE WIND SPEED (MPH): 9.1 24 HR AVG TEMP (F): 64DEPART FROM NORMAL:  4  HEATING DEGREE DAYS:  1 COOLING DEGREE DAYS:  0EQDR01  0.087AAP092
0465999999137242022051804596+39378-074424SOD  +000355N  V030999999999999999999999999999+99999+99999999999ADDAA124000095KA1240M+02565KA2240N+01505OE11240156529099995OE22240084929099995OE33240038999999995REMSOD35924 HR PRECIPITATION (IN): 0.00 24 HR MAX TEMP (F): 7824 HR MIN TEMP (F): 59PEAK WIND SPEED (MPH): 35 PEAK WIND DIR (DEG):290 PEAK WIND TIME (LST):      FASTEST 2MIN SPEED (MPH): 19FASTEST 2MIN DIR (DEG):290 FASTEST 2MIN TIME (LST):     AVERAGE WIND SPEED (MPH): 8.7 24 HR AVG TEMP (F): 69DEPART FROM NORMAL:  9  HEATING DEGREE DAYS:  0 COOLING DEGREE DAYS:  4
0500999999137242022051904596+39378-074424SOD  +000355N  V030999999999999999999999999999+99999+99999999999ADDAA12400009AKA1240M+01895KA2240N+01335OE11240120722099995OE22240071522099995OE33240039399999995REMSOD35924 HR PRECIPITATION (IN):    T 24 HR MAX TEMP (F): 6624 HR MIN TEMP (F): 56PEAK WIND SPEED (MPH): 27 PEAK WIND DIR (DEG):220 PEAK WIND TIME (LST):      FASTEST 2MIN SPEED (MPH): 16FASTEST 2MIN DIR (DEG):220 FASTEST 2MIN TIME (LST):     AVERAGE WIND SPEED (MPH): 8.8 24 HR AVG TEMP (F): 61DEPART FROM NORMAL:  0  HEATING DEGREE DAYS:  4 COOLING DEGREE DAYS:  0EQDQ01  00002PRCP24R01     T7AAP092
0484999999137242022052004596+39378-074424SOD  +000355N  V030999999999999999999999999999+99999+99999999999ADDAA12401099AKA1240M+02335KA2240N+01335OE11240129624099995OE22240076016099995OE33240038499999995REMSOD35924 HR PRECIPITATION (IN): 0.43 24 HR MAX TEMP (F): 7424 HR MIN TEMP (F): 56PEAK WIND SPEED (MPH): 29 PEAK WIND DIR (DEG):240 PEAK WIND TIME (LST):      FASTEST 2MIN SPEED (MPH): 17FASTEST 2MIN DIR (DEG):160 FASTEST 2MIN TIME (LST):     AVERAGE WIND SPEED (MPH): 8.6 24 HR AVG TEMP (F): 65DEPART FROM NORMAL:  4  HEATING DEGREE DAYS:  0 COOLING DEGREE DAYS:  0EQDR01  0.437AAP092
0465999999137242022052104596+39378-074424SOD  +000355N  V030999999999999999999999999999+99999+99999999999ADDAA124000095KA1240M+02115KA2240N+01615OE11240143117099995OE22240089417099995OE33240038099999995REMSOD35924 HR PRECIPITATION (IN): 0.00 24 HR MAX TEMP (F): 7024 HR MIN TEMP (F): 61PEAK WIND SPEED (MPH): 32 PEAK WIND DIR (DEG):170 PEAK WIND TIME (LST):      FASTEST 2MIN SPEED (MPH): 20FASTEST 2MIN DIR (DEG):170 FASTEST 2MIN TIME (LST):     AVERAGE WIND SPEED (MPH): 8.5 24 HR AVG TEMP (F): 66DEPART FROM NORMAL:  5  HEATING DEGREE DAYS:  0 COOLING DEGREE DAYS:  1
0465999999137242022052204596+39378-074424SOD  +000355N  V030999999999999999999999999999+99999+99999999999ADDAA124000095KA1240M+02675KA2240N+01835OE11240138623099995OE22240084923099995OE33240038099999995REMSOD35924 HR PRECIPITATION (IN): 0.00 24 HR MAX TEMP (F): 8024 HR MIN TEMP (F): 65PEAK WIND SPEED (MPH): 31 PEAK WIND DIR (DEG):230 PEAK WIND TIME (LST):      FASTEST 2MIN SPEED (MPH): 19FASTEST 2MIN DIR (DEG):230 FASTEST 2MIN TIME (LST):     AVERAGE WIND SPEED (MPH): 8.5 24 HR AVG TEMP (F): 73DEPART FROM NORMAL: 11  HEATING DEGREE DAYS:  0 COOLING DEGREE DAYS:  8
0484999999137242022052304596+39378-074424SOD  +000355N  V030999999999999999999999999999+99999+99999999999ADDAA12400339AKA1240M+02615KA2240N+01895OE11240169929099995OE22240084923099995OE33240045299999995REMSOD35924 HR PRECIPITATION (IN): 0.13 24 HR MAX TEMP (F): 7924 HR MIN TEMP (F): 66PEAK WIND SPEED (MPH): 38 PEAK WIND DIR (DEG):290 PEAK WIND TIME (LST):      FASTEST 2MIN SPEED (MPH): 19FASTEST 2MIN DIR (DEG):230 FASTEST 2MIN TIME (LST):     AVERAGE WIND SPEED (MPH):10.1 24 HR AVG TEMP (F): 73DEPART FROM NORMAL: 11  HEATING DEGREE DAYS:  0 COOLING DEGREE DAYS:  8EQDR01  0.137AAP092
0484999999137242022052404596+39378-074424SOD  +000355N  V030999999999999999999999999999+99999+99999999999ADDAA12400039AKA1240M+02225KA2240N+01615OE11240111833099995OE22240071508099995OE33240035899999995REMSOD35924 HR PRECIPITATION (IN): 0.01 24 HR MAX TEMP (F): 7224 HR MIN TEMP (F): 61PEAK WIND SPEED (MPH): 25 PEAK WIND DIR (DEG):330 PEAK WIND TIME (LST):      FASTEST 2MIN SPEED (MPH): 16FASTEST 2MIN DIR (DEG): 80 FASTEST 2MIN TIME (LST):     AVERAGE WIND SPEED (MPH): 8.0 24 HR AVG TEMP (F): 67DEPART FROM NORMAL:  5  HEATING DEGREE DAYS:  0 COOLING DEGREE DAYS:  2EQDR01  0.017AAP092
0500999999137242022052504596+39378-074424SOD  +000355N  V030999999999999999999999999999+99999+99999999999ADDAA12400059AKA1240M+0156AKA2240N+01395OE11240125209099995OE22240089409099995OE33240051999999995REMSOD35924 HR PRECIPITATION (IN): 0.02 24 HR MAX TEMP (F): 6024 HR MIN TEMP (F): 57PEAK WIND SPEED (MPH): 28 PEAK WIND DIR (DEG): 90 PEAK WIND TIME (LST):      FASTEST 2MIN SPEED (MPH): 20FASTEST 2MIN DIR (DEG): 90 FASTEST 2MIN TIME (LST):     AVERAGE WIND SPEED (MPH):11.6 24 HR AVG TEMP (F): 59DEPART FROM NORMAL: -3  HEATING DEGREE DAYS:  6 COOLING DEGREE DAYS:  0EQDR01  0.027AAP092R02    607KAX008
0465999999137242022052604596+39378-074424SOD  +000355N  V030999999999999999999999999999+99999+99999999999ADDAA124000095KA1240M+01615KA2240N+01395OE11240116208099995OE22240084909099995OE33240054199999995REMSOD35924 HR PRECIPITATION (IN): 0.00 24 HR MAX TEMP (F): 6124 HR MIN TEMP (F): 57PEAK WIND SPEED (MPH): 26 PEAK WIND DIR (DEG): 80 PEAK WIND TIME (LST):      FASTEST 2MIN SPEED (MPH): 19FASTEST 2MIN DIR (DEG): 90 FASTEST 2MIN TIME (LST):     AVERAGE WIND SPEED (MPH):12.1 24 HR AVG TEMP (F): 59DEPART FROM NORMAL: -4  HEATING DEGREE DAYS:  6 COOLING DEGREE DAYS:  0
0500999999137242022052704596+39378-074424SOD  +000355N  V030999999999999999999999999999+99999+99999999999ADDAA12400009AKA1240M+01835KA2240N+01395OE11240098315099995OE22240058115099995OE33240039899999995REMSOD35924 HR PRECIPITATION (IN):    T 24 HR MAX TEMP (F): 6524 HR MIN TEMP (F): 57PEAK WIND SPEED (MPH): 22 PEAK WIND DIR (DEG):150 PEAK WIND TIME (LST):      FASTEST 2MIN SPEED (MPH): 13FASTEST 2MIN DIR (DEG):150 FASTEST 2MIN TIME (LST):     AVERAGE WIND SPEED (MPH): 8.9 24 HR AVG TEMP (F): 61DEPART FROM NORMAL: -2  HEATING DEGREE DAYS:  4 COOLING DEGREE DAYS:  0EQDQ01  00002PRCP24R01     T7AAP092
0484999999137242022052804596+39378-074424SOD  +000355N  V030999999999999999999999999999+99999+99999999999ADDAA12400239AKA1240M+01945KA2240N+01615OE11240143123099995OE22240084923099995OE33240040299999995REMSOD35924 HR PRECIPITATION (IN): 0.09 24 HR MAX TEMP (F): 6724 HR MIN TEMP (F): 61PEAK WIND SPEED (MPH): 32 PEAK WIND DIR (DEG):230 PEAK WIND TIME (LST):      FASTEST 2MIN SPEED (MPH): 19FASTEST 2MIN DIR (DEG):230 FASTEST 2MIN TIME (LST):     AVERAGE WIND SPEED (MPH): 9.0 24 HR AVG TEMP (F): 64DEPART FROM NORMAL:  0  HEATING DEGREE DAYS:  1 COOLING DEGREE DAYS:  0EQDR01  0.097AAP092
0465999999137242022052904596+39378-074424SOD  +000355N  V030999999999999999999999999999+99999+99999999999ADDAA124000095KA1240M+02565KA2240N+01725OE11240138630099995OE22240080522099995OE33240040799999995REMSOD35924 HR PRECIPITATION (IN): 0.00 24 HR MAX TEMP (F): 7824 HR MIN TEMP (F): 63PEAK WIND SPEED (MPH): 31 PEAK WIND DIR (DEG):300 PEAK WIND TIME (LST):      FASTEST 2MIN SPEED (MPH): 18FASTEST 2MIN DIR (DEG):220 FASTEST 2MIN TIME (LST):     AVERAGE WIND SPEED (MPH): 9.1 24 HR AVG TEMP (F): 71DEPART FROM NORMAL:  7  HEATING DEGREE DAYS:  0 COOLING DEGREE DAYS:  6
0465999999137242022053004596+39378-074424SOD  +000355N  V030999999999999999999999999999+99999+99999999999ADDAA124000095KA1240M+02175KA2240N+01835OE11240084915099995OE22240058123099995OE33240027399999995REMSOD35924 HR PRECIPITATION (IN): 0.00 24 HR MAX TEMP (F): 7124 HR MIN TEMP (F): 65PEAK WIND SPEED (MPH): 19 PEAK WIND DIR (DEG):150 PEAK WIND TIME (LST):      FASTEST 2MIN SPEED (MPH): 13FASTEST 2MIN DIR (DEG):230 FASTEST 2MIN TIME (LST):     AVERAGE WIND SPEED (MPH): 6.1 24 HR AVG TEMP (F): 68DEPART FROM NORMAL:  4  HEATING DEGREE DAYS:  0 COOLING DEGREE DAYS:  3
0465999999137242022053104596+39378-074424SOD  +000355N  V030999999999999999999999999999+99999+99999999999ADDAA124000095KA1240M+02445KA2240N+01835OE11240125222099995OE22240071522099995OE33240040799999995REMSOD35924 HR PRECIPITATION (IN): 0.00 24 HR MAX TEMP (F): 7624 HR MIN TEMP (F): 65PEAK WIND SPEED (MPH): 28 PEAK WIND DIR (DEG):220 PEAK WIND TIME (LST):      FASTEST 2MIN SPEED (MPH): 16FASTEST 2MIN DIR (DEG):220 FASTEST 2MIN TIME (LST):     AVERAGE WIND SPEED (MPH): 9.1 24 HR AVG TEMP (F): 71DEPART FROM NORMAL:  7  HEATING DEGREE DAYS:  0 COOLING DEGREE DAYS:  6
0097999999137242022060104596+39378-074424SOD  +000355N  V030999999999999999999999999999+99999+99999999999ADDAA12400009IKA1240M+0328IKA2240N+0211IOE1124008052309999IOE2224005362309999IOE3324003499999999I
0138999999137242022060104596+39378-074424SOM  +000355N  V030999999999999999999999999999+99999+99999999999ADDAB1012629IAD1004179141499999999IAE113I07I02I02IKB1240N+1333IKB2240M+1872IKB3240A+1606IKC1N9+0072099999IKC2M9+0328319999UKE100U01U00U00U
0465999999137242022060204596+39378-074424SOD  +000355N  V030999999999999999999999999999+99999+99999999999ADDAA124000095KA1240M+02565KA2240N+01615OE11240111807099995OE22240067109099995OE33240042099999995REMSOD35924 HR PRECIPITATION (IN): 0.00 24 HR MAX TEMP (F): 7824 HR MIN TEMP (F): 61PEAK WIND SPEED (MPH): 25 PEAK WIND DIR (DEG): 70 PEAK WIND TIME (LST):      FASTEST 2MIN SPEED (MPH): 15FASTEST 2MIN DIR (DEG): 90 FASTEST 2MIN TIME (LST):     AVERAGE WIND SPEED (MPH): 9.4 24 HR AVG TEMP (F): 70DEPART FROM NORMAL:  5  HEATING DEGREE DAYS:  0 COOLING DEGREE DAYS:  5
0484999999137242022060304596+39378-074424SOD  +000355N  V030999999999999999999999999999+99999+99999999999ADDAA12400919AKA1240M+02565KA2240N+01675OE11240111808099995OE22240076008099995OE33240035899999995REMSOD35924 HR PRECIPITATION (IN): 0.36 24 HR MAX TEMP (F): 7824 HR MIN TEMP (F): 62PEAK WIND SPEED (MPH): 25 PEAK WIND DIR (DEG): 80 PEAK WIND TIME (LST):      FASTEST 2MIN SPEED (MPH): 17FASTEST 2MIN DIR (DEG): 80 FASTEST 2MIN TIME (LST):     AVERAGE WIND SPEED (MPH): 8.0 24 HR AVG TEMP (F): 70DEPART FROM NORMAL:  4  HEATING DEGREE DAYS:  0 COOLING DEGREE DAYS:  5EQDR01  0.367AAP092
0484999999137242022060404596+39378-074424SOD  +000355N  V030999999999999999999999999999+99999+99999999999ADDAA12400039AKA1240M+02175KA2240N+01835OE11240076008099995OE22240058109099995OE33240023299999995REMSOD35924 HR PRECIPITATION (IN): 0.01 24 HR MAX TEMP (F): 7124 HR MIN TEMP (F): 65PEAK WIND SPEED (MPH): 17 PEAK WIND DIR (DEG): 80 PEAK WIND TIME (LST):      FASTEST 2MIN SPEED (MPH): 13FASTEST 2MIN DIR (DEG): 90 FASTEST 2MIN TIME (LST):     AVERAGE WIND SPEED (MPH): 5.2 24 HR AVG TEMP (F): 68DEPART FROM NORMAL:  2  HEATING DEGREE DAYS:  0 COOLING DEGREE DAYS:  3EQDR01  0.017AAP092
0465999999137242022060504596+39378-074424SOD  +000355N  V030999999999999999999999999999+99999+99999999999ADDAA124000095KA1240M+02395KA2240N+01785OE11240116222099995OE22240067122099995OE33240032699999995REMSOD35924 HR PRECIPITATION (IN): 0.00 24 HR MAX TEMP (F): 7524 HR MIN TEMP (F): 64PEAK WIND SPEED (MPH): 26 PEAK WIND DIR (DEG):220 PEAK WIND TIME (LST):      FASTEST 2MIN SPEED (MPH): 15FASTEST 2MIN DIR (DEG):220 FASTEST 2MIN TIME (LST):     AVERAGE WIND SPEED (MPH): 7.3 24 HR AVG TEMP (F): 70DEPART FROM NORMAL:  4  HEATING DEGREE DAYS:  0 COOLING DEGREE DAYS:  5
0465999999137242022060604596+39378-074424SOD  +000355N  V030999999999999999999999999999+99999+99999999999ADDAA124000095KA1240M+02115KA2240N+01725OE11240174309099995OE22240084909099995OE33240042999999995REMSOD35924 HR PRECIPITATION (IN): 0.00 24 HR MAX TEMP (F): 7024 HR MIN TEMP (F): 63PEAK WIND SPEED (MPH): 39 PEAK WIND DIR (DEG): 90 PEAK WIND TIME (LST):      FASTEST 2MIN SPEED (MPH): 19FASTEST 2MIN DIR (DEG): 90 FASTEST 2MIN TIME (LST):     AVERAGE WIND SPEED (MPH): 9.6 24 HR AVG TEMP (F): 67DEPART FROM NORMAL:  1  HEATING DEGREE DAYS:  0 COOLING DEGREE DAYS:  2
0465999999137242022060704596+39378-074424SOD  +000355N  V030999999999999999999999999999+99999+99999999999ADDAA124000095KA1240M+02225KA2240N+01505OE11240080522099995OE22240053623099995OE33240025599999995REMSOD35924 HR PRECIPITATION (IN): 0.00 24 HR MAX TEMP (F): 7224 HR MIN TEMP (F): 59PEAK WIND SPEED (MPH): 18 PEAK WIND DIR (DEG):220 PEAK WIND TIME (LST):      FASTEST 2MIN SPEED (MPH): 12FASTEST 2MIN DIR (DEG):230 FASTEST 2MIN TIME (LST):     AVERAGE WIND SPEED (MPH): 5.7 24 HR AVG TEMP (F): 66DEPART FROM NORMAL: -1  HEATING DEGREE DAYS:  0 COOLING DEGREE DAYS:  1
0465999999137242022060804596+39378-074424SOD  +000355N  V030999999999999999999999999999+99999+99999999999ADDAA124000095KA1240M+02225KA2240N+01895OE11240134120099995OE22240076017099995OE33240052899999995REMSOD35924 HR PRECIPITATION (IN): 0.00 24 HR MAX TEMP (F): 7224 HR MIN TEMP (F): 66PEAK WIND SPEED (MPH): 30 PEAK WIND DIR (DEG):200 PEAK WIND TIME (LST):      FASTEST 2MIN SPEED (MPH): 17FASTEST 2MIN DIR (DEG):170 FASTEST 2MIN TIME (LST):     AVERAGE WIND SPEED (MPH):11.8 24 HR AVG TEMP (F): 69DEPART FROM NORMAL:  2  HEATING DEGREE DAYS:  0 COOLING DEGREE DAYS:  4
0500999999137242022060904596+39378-074424SOD  +000355N  V030999999999999999999999999999+99999+99999999999ADDAA12400009AKA1240M+02675KA2240N+02005OE11240116220099995OE22240062620099995OE33240044799999995REMSOD35924 HR PRECIPITATION (IN):    T 24 HR MAX TEMP (F): 8024 HR MIN TEMP (F): 68PEAK WIND SPEED (MPH): 26 PEAK WIND DIR (DEG):200 PEAK WIND TIME (LST):      FASTEST 2MIN SPEED (MPH): 14FASTEST 2MIN DIR (DEG):200 FASTEST 2MIN TIME (LST):     AVERAGE WIND SPEED (MPH):10.0 24 HR AVG TEMP (F): 74DEPART FROM NORMAL:  6  HEATING DEGREE DAYS:  0 COOLING DEGREE DAYS:  9EQDQ01  00002PRCP24R01     T7AAP092
0526999999137242022061004596+39378-074424SOD  +000355N  V030999999999999999999999999999+99999+99999999999ADDAA12400289AAX1036246KA1240M+02785KA2240N+02005OE11240169929099995OE22240089423099995OE33240053299999995REMSOD37624 HR PRECIPITATION (IN): 0.11 WEATHER(CODE):3  24 HR MAX TEMP (F): 8224 HR MIN TEMP (F): 68PEAK WIND SPEED (MPH): 38 PEAK WIND DIR (DEG):290 PEAK WIND TIME (LST):      FASTEST 2MIN SPEED (MPH): 20FASTEST 2MIN DIR (DEG):230 FASTEST 2MIN TIME (LST):     AVERAGE WIND SPEED (MPH):11.9 24 HR AVG TEMP (F): 75DEPART FROM NORMAL:  7  HEATING DEGREE DAYS:  0 COOLING DEGREE DAYS: 10EQDR01  0.117AAP092R02     37AXW092
0465999999137242022061104596+39378-074424SOD  +000355N  V030999999999999999999999999999+99999+99999999999ADDAA124000095KA1240M+02615KA2240N+01725OE11240102824099995OE22240062622099995OE33240033599999995REMSOD35924 HR PRECIPITATION (IN): 0.00 24 HR MAX TEMP (F): 7924 HR MIN TEMP (F): 63PEAK WIND SPEED (MPH): 23 PEAK WIND DIR (DEG):240 PEAK WIND TIME (LST):      FASTEST 2MIN SPEED (MPH): 14FASTEST 2MIN DIR (DEG):220 FASTEST 2MIN TIME (LST):     AVERAGE WIND SPEED (MPH): 7.5 24 HR AVG TEMP (F): 71DEPART FROM NORMAL:  3  HEATING DEGREE DAYS:  0 COOLING DEGREE DAYS:  6
0500999999137242022061204596+39378-074424SOD  +000355N  V030999999999999999999999999999+99999+99999999999ADDAA12400009AKA1240M+02445KA2240N+01945OE11240080529099995OE22240049229099995OE33240024199999995REMSOD35924 HR PRECIPITATION (IN):    T 24 HR MAX TEMP (F): 7624 HR MIN TEMP (F): 67PEAK WIND SPEED (MPH): 18 PEAK WIND DIR (DEG):290 PEAK WIND TIME (LST):      FASTEST 2MIN SPEED (MPH): 11FASTEST 2MIN DIR (DEG):290 FASTEST 2MIN TIME (LST):     AVERAGE WIND SPEED (MPH): 5.4 24 HR AVG TEMP (F): 72DEPART FROM NORMAL:  3  HEATING DEGREE DAYS:  0 COOLING DEGREE DAYS:  7EQDQ01  00002PRCP24R01     T7AAP092
0484999999137242022061304596+39378-074424SOD  +000355N  V030999999999999999999999999999+99999+99999999999ADDAA12400589AKA1240M+02285KA2240N+01835OE11240089416099995OE22240062616099995OE33240031799999995REMSOD35924 HR PRECIPITATION (IN): 0.23 24 HR MAX TEMP (F): 7324 HR MIN TEMP (F): 65PEAK WIND SPEED (MPH): 20 PEAK WIND DIR (DEG):160 PEAK WIND TIME (LST):      FASTEST 2MIN SPEED (MPH): 14FASTEST 2MIN DIR (DEG):160 FASTEST 2MIN TIME (LST):     AVERAGE WIND SPEED (MPH): 7.1 24 HR AVG TEMP (F): 69DEPART FROM NORMAL:  0  HEATING DEGREE DAYS:  0 COOLING DEGREE DAYS:  4EQDR01  0.237AAP092
0465999999137242022061404596+39378-074424SOD  +000355N  V030999999999999999999999999999+99999+99999999999ADDAA124000095KA1240M+02675KA2240N+01945OE11240102823099995OE22240071523099995OE33240034999999995REMSOD35924 HR PRECIPITATION (IN): 0.00 24 HR MAX TEMP (F): 8024 HR MIN TEMP (F): 67PEAK WIND SPEED (MPH): 23 PEAK WIND DIR (DEG):230 PEAK WIND TIME (LST):      FASTEST 2MIN SPEED (MPH): 16FASTEST 2MIN DIR (DEG):230 FASTEST 2MIN TIME (LST):     AVERAGE WIND SPEED (MPH): 7.8 24 HR AVG TEMP (F): 74DEPART FROM NORMAL:  5  HEATING DEGREE DAYS:  0 COOLING DEGREE DAYS:  9
0484999999137242022061504596+39378-074424SOD  +000355N  V030999999999999999999999999999+99999+99999999999ADDAA12400109AKA1240M+02565KA2240N+01895OE11240107306099995OE22240076008099995OE33240031399999995REMSOD35924 HR PRECIPITATION (IN): 0.04 24 HR MAX TEMP (F): 7824 HR MIN TEMP (F): 66PEAK WIND SPEED (MPH): 24 PEAK WIND DIR (DEG): 60 PEAK WIND TIME (LST):      FASTEST 2MIN SPEED (MPH): 17FASTEST 2MIN DIR (DEG): 80 FASTEST 2MIN TIME (LST):     AVERAGE WIND SPEED (MPH): 7.0 24 HR AVG TEMP (F): 72DEPART FROM NORMAL:  2  HEATING DEGREE DAYS:  0 COOLING DEGREE DAYS:  7EQDR01  0.047AAP092
0465999999137242022061604596+39378-074424SOD  +000355N  V030999999999999999999999999999+99999+99999999999ADDAA124000095KA1240M+02395KA2240N+01835OE11240093911099995OE22240062611099995OE33240033199999995REMSOD35924 HR PRECIPITATION (IN): 0.00 24 HR MAX TEMP (F): 7524 HR MIN TEMP (F): 65PEAK WIND SPEED (MPH): 21 PEAK WIND DIR (DEG):110 PEAK WIND TIME (LST):      FASTEST 2MIN SPEED (MPH): 14FASTEST 2MIN DIR (DEG):110 FASTEST 2MIN TIME (LST):     AVERAGE WIND SPEED (MPH): 7.4 24 HR AVG TEMP (F): 70DEPART FROM NORMAL:  0  HEATING DEGREE DAYS:  0 COOLING DEGREE DAYS:  5
0484999999137242022061704596+39378-074424SOD  +000355N  V030999999999999999999999999999+99999+99999999999ADDAA12400749AKA1240M+02175KA2240N+01785OE11240129622099995OE22240080522099995OE33240042999999995REMSOD35924 HR PRECIPITATION (IN): 0.29 24 HR MAX TEMP (F): 7124 HR MIN TEMP (F): 64PEAK WIND SPEED (MPH): 29 PEAK WIND DIR (DEG):220 PEAK WIND TIME (LST):      FASTEST 2MIN SPEED (MPH): 18FASTEST 2MIN DIR (DEG):220 FASTEST 2MIN TIME (LST):     AVERAGE WIND SPEED (MPH): 9.6 24 HR AVG TEMP (F): 68DEPART FROM NORMAL: -2  HEATING DEGREE DAYS:  0 COOLING DEGREE DAYS:  3EQDR01  0.297AAP092
0465999999137242022061804596+39378-074424SOD  +000355N  V030999999999999999999999999999+99999+99999999999ADDAA124000095KA1240M+03335KA2240N+02065OE11240125223099995OE22240084923099995OE33240040799999995REMSOD35924 HR PRECIPITATION (IN): 0.00 24 HR MAX TEMP (F): 9224 HR MIN TEMP (F): 69PEAK WIND SPEED (MPH): 28 PEAK WIND DIR (DEG):230 PEAK WIND TIME (LST):      FASTEST 2MIN SPEED (MPH): 19FASTEST 2MIN DIR (DEG):230 FASTEST 2MIN TIME (LST):     AVERAGE WIND SPEED (MPH): 9.1 24 HR AVG TEMP (F): 81DEPART FROM NORMAL: 10  HEATING DEGREE DAYS:  0 COOLING DEGREE DAYS: 16
0465999999137242022061904596+39378-074424SOD  +000355N  V030999999999999999999999999999+99999+99999999999ADDAA124000095KA1240M+02445KA2240N+01725OE11240174333099995OE22240093933099995OE33240046999999995REMSOD35924 HR PRECIPITATION (IN): 0.00 24 HR MAX TEMP (F): 7624 HR MIN TEMP (F): 63PEAK WIND SPEED (MPH): 39 PEAK WIND DIR (DEG):330 PEAK WIND TIME (LST):      FASTEST 2MIN SPEED (MPH): 21FASTEST 2MIN DIR (DEG):330 FASTEST 2MIN TIME (LST):     AVERAGE WIND SPEED (MPH):10.5 24 HR AVG TEMP (F): 70DEPART FROM NORMAL: -1  HEATING DEGREE DAYS:  0 COOLING DEGREE DAYS:  5
