0484999999137242023010104596+39378-074424SOD  +000355N  V030999999999999999999999999999+99999+99999999999ADDAA12403009AKA1240M+01445KA2240N+01065OE11240107320099995OE22240062623099995OE33240033599999995REMSOD35924 HR PRECIPITATION (IN): 1.18 24 HR MAX TEMP (F): 5824 HR MIN TEMP (F): 51PEAK WIND SPEED (MPH): 24 PEAK WIND DIR (DEG):200 PEAK WIND TIME (LST):      FASTEST 2MIN SPEED (MPH): 14FASTEST 2MIN DIR (DEG):230 FASTEST 2MIN TIME (LST):     AVERAGE WIND SPEED (MPH): 7.5 24 HR AVG TEMP (F): 55DEPART FROM NORMAL: 17  HEATING DEGREE DAYS: 10 COOLING DEGREE DAYS:  0EQDR01  1.187AAP092
0128999999137242023010104596+39378-074424SOM  +000355N  V030999999999999999999999999999+99999+99999999999ADDAD1003819151599999999IAE110U07U03U02UKB1240N+0094IKB2240M+0794IKB3240A+0444IKC1N9-0122249999IKC2M1+0150069999IKE103U00U13U00U
0465999999137242023010204596+39378-074424SOD  +000355N  V030999999999999999999999999999+99999+99999999999ADDAA124000095KA1240M+01445KA2240N+00895OE11240093928099995OE22240053627099995OE33240030499999995REMSOD35924 HR PRECIPITATION (IN): 0.00 24 HR MAX TEMP (F): 5824 HR MIN TEMP (F): 48PEAK WIND SPEED (MPH): 21 PEAK WIND DIR (DEG):280 PEAK WIND TIME (LST):      FASTEST 2MIN SPEED (MPH): 12FASTEST 2MIN DIR (DEG):270 FASTEST 2MIN TIME (LST):     AVERAGE WIND SPEED (MPH): 6.8 24 HR AVG TEMP (F): 53DEPART FROM NORMAL: 16  HEATING DEGREE DAYS: 12 COOLING DEGREE DAYS:  0
0465999999137242023010304596+39378-074424SOD  +000355N  V030999999999999999999999999999+99999+99999999999ADDAA124000095KA1240M+01285KA2240N+00725OE11240067123099995OE22240044726099995OE33240022499999995REMSOD35924 HR PRECIPITATION (IN): 0.00 24 HR MAX TEMP (F): 5524 HR MIN TEMP (F): 45PEAK WIND SPEED (MPH): 15 PEAK WIND DIR (DEG):230 PEAK WIND TIME (LST):      FASTEST 2MIN SPEED (MPH): 10FASTEST 2MIN DIR (DEG):260 FASTEST 2MIN TIME (LST):     AVERAGE WIND SPEED (MPH): 5.0 24 HR AVG TEMP (F): 50DEPART FROM NORMAL: 13  HEATING DEGREE DAYS: 15 COOLING DEGREE DAYS:  0
0465999999137242023010404596+39378-074424SOD  +000355N  V030999999999999999999999999999+99999+99999999999ADDAA124000095KA1240M+01225KA2240N+00945OE11240143122099995OE22240080523099995OE33240056899999995REMSOD35924 HR PRECIPITATION (IN): 0.00 24 HR MAX TEMP (F): 5424 HR MIN TEMP (F): 49PEAK WIND SPEED (MPH): 32 PEAK WIND DIR (DEG):220 PEAK WIND TIME (LST):      FASTEST 2MIN SPEED (MPH): 18FASTEST 2MIN DIR (DEG):230 FASTEST 2MIN TIME (LST):     AVERAGE WIND SPEED (MPH):12.7 24 HR AVG TEMP (F): 52DEPART FROM NORMAL: 15  HEATING DEGREE DAYS: 13 COOLING DEGREE DAYS:  0
0484999999137242023010504596+39378-074424SOD  +000355N  V030999999999999999999999999999+99999+99999999999ADDAA12400289AKA1240M+01615KA2240N+01115OE11240138623099995OE22240076023099995OE33240036299999995REMSOD35924 HR PRECIPITATION (IN): 0.11 24 HR MAX TEMP (F): 6124 HR MIN TEMP (F): 52PEAK WIND SPEED (MPH): 31 PEAK WIND DIR (DEG):230 PEAK WIND TIME (LST):      FASTEST 2MIN SPEED (MPH): 17FASTEST 2MIN DIR (DEG):230 FASTEST 2MIN TIME (LST):     AVERAGE WIND SPEED (MPH): 8.1 24 HR AVG TEMP (F): 57DEPART FROM NORMAL: 20  HEATING DEGREE DAYS:  8 COOLING DEGREE DAYS:  0EQDR01  0.117AAP092
0484999999137242023010604596+39378-074424SOD  +000355N  V030999999999999999999999999999+99999+99999999999ADDAA12400039AKA1240M+01565KA2240N+00785OE11240080507099995OE22240049207099995OE33240027799999995REMSOD35924 HR PRECIPITATION (IN): 0.01 24 HR MAX TEMP (F): 6024 HR MIN TEMP (F): 46PEAK WIND SPEED (MPH): 18 PEAK WIND DIR (DEG): 70 PEAK WIND TIME (LST):      FASTEST 2MIN SPEED (MPH): 11FASTEST 2MIN DIR (DEG): 70 FASTEST 2MIN TIME (LST):     AVERAGE WIND SPEED (MPH): 6.2 24 HR AVG TEMP (F): 53DEPART FROM NORMAL: 16  HEATING DEGREE DAYS: 12 COOLING DEGREE DAYS:  0EQDR01  0.017AAP092
0484999999137242023010704596+39378-074424SOD  +000355N  V030999999999999999999999999999+99999+99999999999ADDAA12400089AKA1240M+01005KA2240N+00565OE11240116229099995OE22240049233099995OE33240023799999995REMSOD35924 HR PRECIPITATION (IN): 0.03 24 HR MAX TEMP (F): 5024 HR MIN TEMP (F): 42PEAK WIND SPEED (MPH): 26 PEAK WIND DIR (DEG):290 PEAK WIND TIME (LST):      FASTEST 2MIN SPEED (MPH): 11FASTEST 2MIN DIR (DEG):330 FASTEST 2MIN TIME (LST):     AVERAGE WIND SPEED (MPH): 5.3 24 HR AVG TEMP (F): 46DEPART FROM NORMAL:  9  HEATING DEGREE DAYS: 19 COOLING DEGREE DAYS:  0EQDR01  0.037AAP092
0465999999137242023010804596+39378-074424SOD  +000355N  V030999999999999999999999999999+99999+99999999999ADDAA124000095KA1240M+00835KA2240N+00335OE11240111833099995OE22240049229099995OE33240029199999995REMSOD35924 HR PRECIPITATION (IN): 0.00 24 HR MAX TEMP (F): 4724 HR MIN TEMP (F): 38PEAK WIND SPEED (MPH): 25 PEAK WIND DIR (DEG):330 PEAK WIND TIME (LST):      FASTEST 2MIN SPEED (MPH): 11FASTEST 2MIN DIR (DEG):290 FASTEST 2MIN TIME (LST):     AVERAGE WIND SPEED (MPH): 6.5 24 HR AVG TEMP (F): 43DEPART FROM NORMAL:  7  HEATING DEGREE DAYS: 22 COOLING DEGREE DAYS:  0
0465999999137242023010904596+39378-074424SOD  +000355N  V030999999999999999999999999999+99999+99999999999ADDAA124000095KA1240M+00615KA2240N+00115OE11240107313099995OE22240067113099995OE33240030099999995REMSOD35924 HR PRECIPITATION (IN): 0.00 24 HR MAX TEMP (F): 4324 HR MIN TEMP (F): 34PEAK WIND SPEED (MPH): 24 PEAK WIND DIR (DEG):130 PEAK WIND TIME (LST):      FASTEST 2MIN SPEED (MPH): 15FASTEST 2MIN DIR (DEG):130 FASTEST 2MIN TIME (LST):     AVERAGE WIND SPEED (MPH): 6.7 24 HR AVG TEMP (F): 39DEPART FROM NORMAL:  3  HEATING DEGREE DAYS: 26 COOLING DEGREE DAYS:  0
0484999999137242023011004596+39378-074424SOD  +000355N  V030999999999999999999999999999+99999+99999999999ADDAA12400109AKA1240M+00785KA2240N+00335OE11240093929099995OE22240067122099995OE33240032299999995REMSOD35924 HR PRECIPITATION (IN): 0.04 24 HR MAX TEMP (F): 4624 HR MIN TEMP (F): 38PEAK WIND SPEED (MPH): 21 PEAK WIND DIR (DEG):290 PEAK WIND TIME (LST):      FASTEST 2MIN SPEED (MPH): 15FASTEST 2MIN DIR (DEG):220 FASTEST 2MIN TIME (LST):     AVERAGE WIND SPEED (MPH): 7.2 24 HR AVG TEMP (F): 42DEPART FROM NORMAL:  6  HEATING DEGREE DAYS: 23 COOLING DEGREE DAYS:  0EQDR01  0.047AAP092
0465999999137242023011104596+39378-074424SOD  +000355N  V030999999999999999999999999999+99999+99999999999ADDAA124000095KA1240M+00615KA2240N+00115OE11240098325099995OE22240071527099995OE33240027799999995REMSOD35924 HR PRECIPITATION (IN): 0.00 24 HR MAX TEMP (F): 4324 HR MIN TEMP (F): 34PEAK WIND SPEED (MPH): 22 PEAK WIND DIR (DEG):250 PEAK WIND TIME (LST):      FASTEST 2MIN SPEED (MPH): 16FASTEST 2MIN DIR (DEG):270 FASTEST 2MIN TIME (LST):     AVERAGE WIND SPEED (MPH): 6.2 24 HR AVG TEMP (F): 39DEPART FROM NORMAL:  3  HEATING DEGREE DAYS: 26 COOLING DEGREE DAYS:  0
0484999999137242023011204596+39378-074424SOD  +000355N  V030999999999999999999999999999+99999+99999999999ADDAA124000095KA1240M+00565KA2240N+00225OE1124008050409999UOE2224006260309999POE33240026899999995REMSOD35924 HR PRECIPITATION (IN): 0.00 24 HR MAX TEMP (F): 4224 HR MIN TEMP (F): 36PEAK WIND SPEED (MPH): 14 PEAK WIND DIR (DEG): 30 PEAK WIND TIME (LST):      FASTEST 2MIN SPEED (MPH): 18FASTEST 2MIN DIR (DEG): 40 FASTEST 2MIN TIME (LST):     AVERAGE WIND SPEED (MPH): 6.0 24 HR AVG TEMP (F): 39DEPART FROM NORMAL:  3  HEATING DEGREE DAYS: 26 COOLING DEGREE DAYS:  0EQDR01    147OES065
0484999999137242023011304596+39378-074424SOD  +000355N  V030999999999999999999999999999+99999+99999999999ADDAA12400289AKA1240M+01285KA2240N+00445OE11240178823099995OE22240098323099995OE33240044799999995REMSOD35924 HR PRECIPITATION (IN): 0.11 24 HR MAX TEMP (F): 5524 HR MIN TEMP (F): 40PEAK WIND SPEED (MPH): 40 PEAK WIND DIR (DEG):230 PEAK WIND TIME (LST):      FASTEST 2MIN SPEED (MPH): 22FASTEST 2MIN DIR (DEG):230 FASTEST 2MIN TIME (LST):     AVERAGE WIND SPEED (MPH):10.0 24 HR AVG TEMP (F): 48DEPART FROM NORMAL: 12  HEATING DEGREE DAYS: 17 COOLING DEGREE DAYS:  0EQDR01  0.117AAP092
0484999999137242023011404596+39378-074424SOD  +000355N  V030999999999999999999999999999+99999+99999999999ADDAA12400159AKA1240M+01335KA2240N+00335OE11240214621099995OE22240111822099995OE33240056899999995REMSOD35924 HR PRECIPITATION (IN): 0.06 24 HR MAX TEMP (F): 5624 HR MIN TEMP (F): 38PEAK WIND SPEED (MPH): 48 PEAK WIND DIR (DEG):210 PEAK WIND TIME (LST):      FASTEST 2MIN SPEED (MPH): 25FASTEST 2MIN DIR (DEG):220 FASTEST 2MIN TIME (LST):     AVERAGE WIND SPEED (MPH):12.7 24 HR AVG TEMP (F): 47DEPART FROM NORMAL: 11  HEATING DEGREE DAYS: 18 COOLING DEGREE DAYS:  0EQDR01  0.067AAP092
0500999999137242023011504596+39378-074424SOD  +000355N  V030999999999999999999999999999+99999+99999999999ADDAA12400009AKA1240M+00335KA2240N+00005OE11240165433099995OE22240089433099995OE33240063099999995REMSOD35924 HR PRECIPITATION (IN):    T 24 HR MAX TEMP (F): 3824 HR MIN TEMP (F): 32PEAK WIND SPEED (MPH): 37 PEAK WIND DIR (DEG):330 PEAK WIND TIME (LST):      FASTEST 2MIN SPEED (MPH): 20FASTEST 2MIN DIR (DEG):330 FASTEST 2MIN TIME (LST):     AVERAGE WIND SPEED (MPH):14.1 24 HR AVG TEMP (F): 35DEPART FROM NORMAL: -1  HEATING DEGREE DAYS: 30 COOLING DEGREE DAYS:  0EQDQ01  00002PRCP24R01     T7AAP092
0465999999137242023011604596+39378-074424SOD  +000355N  V030999999999999999999999999999+99999+99999999999ADDAA124000095KA1240M+00565KA2240N+00005OE11240183333099995OE22240107333099995OE33240059599999995REMSOD35924 HR PRECIPITATION (IN): 0.00 24 HR MAX TEMP (F): 4224 HR MIN TEMP (F): 32PEAK WIND SPEED (MPH): 41 PEAK WIND DIR (DEG):330 PEAK WIND TIME (LST):      FASTEST 2MIN SPEED (MPH): 24FASTEST 2MIN DIR (DEG):330 FASTEST 2MIN TIME (LST):     AVERAGE WIND SPEED (MPH):13.3 24 HR AVG TEMP (F): 37DEPART FROM NORMAL:  1  HEATING DEGREE DAYS: 28 COOLING DEGREE DAYS:  0
0465999999137242023011704596+39378-074424SOD  +000355N  V030999999999999999999999999999+99999+99999999999ADDAA124000095KA1240M+00835KA2240N-00165OE11240120729099995OE22240071533099995OE33240041199999995REMSOD35924 HR PRECIPITATION (IN): 0.00 24 HR MAX TEMP (F): 4724 HR MIN TEMP (F): 29PEAK WIND SPEED (MPH): 27 PEAK WIND DIR (DEG):290 PEAK WIND TIME (LST):      FASTEST 2MIN SPEED (MPH): 16FASTEST 2MIN DIR (DEG):330 FASTEST 2MIN TIME (LST):     AVERAGE WIND SPEED (MPH): 9.2 24 HR AVG TEMP (F): 38DEPART FROM NORMAL:  3  HEATING DEGREE DAYS: 27 COOLING DEGREE DAYS:  0
0500999999137242023011804596+39378-074424SOD  +000355N  V030999999999999999999999999999+99999+99999999999ADDAA12400009AKA1240M+00785KA2240N+00285OE11240089424099995OE22240062622099995OE33240032299999995REMSOD35924 HR PRECIPITATION (IN):    T 24 HR MAX TEMP (F): 4624 HR MIN TEMP (F): 37PEAK WIND SPEED (MPH): 20 PEAK WIND DIR (DEG):240 PEAK WIND TIME (LST):      FASTEST 2MIN SPEED (MPH): 14FASTEST 2MIN DIR (DEG):220 FASTEST 2MIN TIME (LST):     AVERAGE WIND SPEED (MPH): 7.2 24 HR AVG TEMP (F): 42DEPART FROM NORMAL:  7  HEATING DEGREE DAYS: 23 COOLING DEGREE DAYS:  0EQDQ01  00002PRCP24R01     T7AAP092
0500999999137242023011904596+39378-074424SOD  +000355N  V030999999999999999999999999999+99999+99999999999ADDAA12400009AKA1240M+01285KA2240N+00565OE11240102826099995OE22240062627099995OE33240040299999995REMSOD35924 HR PRECIPITATION (IN):    T 24 HR MAX TEMP (F): 5524 HR MIN TEMP (F): 42PEAK WIND SPEED (MPH): 23 PEAK WIND DIR (DEG):260 PEAK WIND TIME (LST):      FASTEST 2MIN SPEED (MPH): 14FASTEST 2MIN DIR (DEG):270 FASTEST 2MIN TIME (LST):     AVERAGE WIND SPEED (MPH): 9.0 24 HR AVG TEMP (F): 49DEPART FROM NORMAL: 14  HEATING DEGREE DAYS: 16 COOLING DEGREE DAYS:  0EQDQ01  00002PRCP24R01     T7AAP092
0484999999137242023012004596+39378-074424SOD  +000355N  V030999999999999999999999999999+99999+99999999999ADDAA12400949AKA1240M+01115KA2240N+00505OE11240129625099995OE22240093919099995OE33240039899999995REMSOD35924 HR PRECIPITATION (IN): 0.37 24 HR MAX TEMP (F): 5224 HR MIN TEMP (F): 41PEAK WIND SPEED (MPH): 29 PEAK WIND DIR (DEG):250 PEAK WIND TIME (LST):      FASTEST 2MIN SPEED (MPH): 21FASTEST 2MIN DIR (DEG):190 FASTEST 2MIN TIME (LST):     AVERAGE WIND SPEED (MPH): 8.9 24 HR AVG TEMP (F): 47DEPART FROM NORMAL: 12  HEATING DEGREE DAYS: 18 COOLING DEGREE DAYS:  0EQDR01  0.377AAP092
0484999999137242023012104596+39378-074424SOD  +000355N  V030999999999999999999999999999+99999+99999999999ADDAA12400039AKA1240M+01005KA2240N+00505OE11240174329099995OE22240093930099995OE33240044799999995REMSOD35924 HR PRECIPITATION (IN): 0.01 24 HR MAX TEMP (F): 5024 HR MIN TEMP (F): 41PEAK WIND SPEED (MPH): 39 PEAK WIND DIR (DEG):290 PEAK WIND TIME (LST):      FASTEST 2MIN SPEED (MPH): 21FASTEST 2MIN DIR (DEG):300 FASTEST 2MIN TIME (LST):     AVERAGE WIND SPEED (MPH):10.0 24 HR AVG TEMP (F): 46DEPART FROM NORMAL: 11  HEATING DEGREE DAYS: 19 COOLING DEGREE DAYS:  0EQDR01  0.017AAP092
0465999999137242023012204596+39378-074424SOD  +000355N  V030999999999999999999999999999+99999+99999999999ADDAA124000095KA1240M+00565KA2240N+00335OE11240102825099995OE22240071524099995OE33240027399999995REMSOD35924 HR PRECIPITATION (IN): 0.00 24 HR MAX TEMP (F): 4224 HR MIN TEMP (F): 38PEAK WIND SPEED (MPH): 23 PEAK WIND DIR (DEG):250 PEAK WIND TIME (LST):      FASTEST 2MIN SPEED (MPH): 16FASTEST 2MIN DIR (DEG):240 FASTEST 2MIN TIME (LST):     AVERAGE WIND SPEED (MPH): 6.1 24 HR AVG TEMP (F): 40DEPART FROM NORMAL:  5  HEATING DEGREE DAYS: 25 COOLING DEGREE DAYS:  0
0484999999137242023012304596+39378-074424SOD  +000355N  V030999999999999999999999999999+99999+99999999999ADDAA12401529AKA1240M+00675KA2240N+00335OE11240067105099995OE22240058103099995OE33240046099999995REMSOD35924 HR PRECIPITATION (IN): 0.60 24 HR MAX TEMP (F): 4424 HR MIN TEMP (F): 38PEAK WIND SPEED (MPH): 15 PEAK WIND DIR (DEG): 50 PEAK WIND TIME (LST):      FASTEST 2MIN SPEED (MPH): 13FASTEST 2MIN DIR (DEG): 30 FASTEST 2MIN TIME (LST):     AVERAGE WIND SPEED (MPH):10.3 24 HR AVG TEMP (F): 41DEPART FROM NORMAL:  6  HEATING DEGREE DAYS: 24 COOLING DEGREE DAYS:  0EQDR01  0.607AAP092
0484999999137242023012404596+39378-074424SOD  +000355N  V030999999999999999999999999999+99999+99999999999ADDAA12400389AKA1240M+00785KA2240N+00395OE11240125226099995OE22240080526099995OE33240042999999995REMSOD35924 HR PRECIPITATION (IN): 0.15 24 HR MAX TEMP (F): 4624 HR MIN TEMP (F): 39PEAK WIND SPEED (MPH): 28 PEAK WIND DIR (DEG):260 PEAK WIND TIME (LST):      FASTEST 2MIN SPEED (MPH): 18FASTEST 2MIN DIR (DEG):260 FASTEST 2MIN TIME (LST):     AVERAGE WIND SPEED (MPH): 9.6 24 HR AVG TEMP (F): 43DEPART FROM NORMAL:  8  HEATING DEGREE DAYS: 22 COOLING DEGREE DAYS:  0EQDR01  0.157AAP092
0465999999137242023012504596+39378-074424SOD  +000355N  V030999999999999999999999999999+99999+99999999999ADDAA124000095KA1240M+00785KA2240N+00115OE11240143128099995OE22240076028099995OE33240043899999995REMSOD35924 HR PRECIPITATION (IN): 0.00 24 HR MAX TEMP (F): 4624 HR MIN TEMP (F): 34PEAK WIND SPEED (MPH): 32 PEAK WIND DIR (DEG):280 PEAK WIND TIME (LST):      FASTEST 2MIN SPEED (MPH): 17FASTEST 2MIN DIR (DEG):280 FASTEST 2MIN TIME (LST):     AVERAGE WIND SPEED (MPH): 9.8 24 HR AVG TEMP (F): 40DEPART FROM NORMAL:  5  HEATING DEGREE DAYS: 25 COOLING DEGREE DAYS:  0
0484999999137242023012604596+39378-074424SOD  +000355N  V030999999999999999999999999999+99999+99999999999ADDAA12401659AKA1240M+01225KA2240N+00175OE11240169912099995OE22240116217099995OE33240049699999995REMSOD35924 HR PRECIPITATION (IN): 0.65 24 HR MAX TEMP (F): 5424 HR MIN TEMP (F): 35PEAK WIND SPEED (MPH): 38 PEAK WIND DIR (DEG):120 PEAK WIND TIME (LST):      FASTEST 2MIN SPEED (MPH): 26FASTEST 2MIN DIR (DEG):170 FASTEST 2MIN TIME (LST):     AVERAGE WIND SPEED (MPH):11.1 24 HR AVG TEMP (F): 45DEPART FROM NORMAL: 10  HEATING DEGREE DAYS: 20 COOLING DEGREE DAYS:  0EQDR01  0.657AAP092
0484999999137242023012704596+39378-074424SOD  +000355N  V030999999999999999999999999999+99999+99999999999ADDAA12400419AKA1240M+01175KA2240N+00565OE11240192229099995OE22240111829099995OE33240061299999995REMSOD35924 HR PRECIPITATION (IN): 0.16 24 HR MAX TEMP (F): 5324 HR MIN TEMP (F): 42PEAK WIND SPEED (MPH): 43 PEAK WIND DIR (DEG):290 PEAK WIND TIME (LST):      FASTEST 2MIN SPEED (MPH): 25FASTEST 2MIN DIR (DEG):290 FASTEST 2MIN TIME (LST):     AVERAGE WIND SPEED (MPH):13.7 24 HR AVG TEMP (F): 48DEPART FROM NORMAL: 13  HEATING DEGREE DAYS: 17 COOLING DEGREE DAYS:  0EQDR01  0.167AAP092
0465999999137242023012804596+39378-074424SOD  +000355N  V030999999999999999999999999999+99999+99999999999ADDAA124000095KA1240M+00565KA2240N+00225OE11240098325099995OE22240076023099995OE33240036299999995REMSOD35924 HR PRECIPITATION (IN): 0.00 24 HR MAX TEMP (F): 4224 HR MIN TEMP (F): 36PEAK WIND SPEED (MPH): 22 PEAK WIND DIR (DEG):250 PEAK WIND TIME (LST):      FASTEST 2MIN SPEED (MPH): 17FASTEST 2MIN DIR (DEG):230 FASTEST 2MIN TIME (LST):     AVERAGE WIND SPEED (MPH): 8.1 24 HR AVG TEMP (F): 39DEPART FROM NORMAL:  4  HEATING DEGREE DAYS: 26 COOLING DEGREE DAYS:  0
0465999999137242023012904596+39378-074424SOD  +000355N  V030999999999999999999999999999+99999+99999999999ADDAA124000095KA1240M+01115KA2240N+00445OE11240196723099995OE22240071523099995OE33240038099999995REMSOD35924 HR PRECIPITATION (IN): 0.00 24 HR MAX TEMP (F): 5224 HR MIN TEMP (F): 40PEAK WIND SPEED (MPH): 44 PEAK WIND DIR (DEG):230 PEAK WIND TIME (LST):      FASTEST 2MIN SPEED (MPH): 16FASTEST 2MIN DIR (DEG):230 FASTEST 2MIN TIME (LST):     AVERAGE WIND SPEED (MPH): 8.5 24 HR AVG TEMP (F): 46DEPART FROM NORMAL: 11  HEATING DEGREE DAYS: 19 COOLING DEGREE DAYS:  0
0500999999137242023013004596+39378-074424SOD  +000355N  V030999999999999999999999999999+99999+99999999999ADDAA12400009AKA1240M+01005KA2240N+00725OE11240196722099995OE22240076023099995OE33240041699999995REMSOD35924 HR PRECIPITATION (IN):    T 24 HR MAX TEMP (F): 5024 HR MIN TEMP (F): 45PEAK WIND SPEED (MPH): 44 PEAK WIND DIR (DEG):220 PEAK WIND TIME (LST):      FASTEST 2MIN SPEED (MPH): 17FASTEST 2MIN DIR (DEG):230 FASTEST 2MIN TIME (LST):     AVERAGE WIND SPEED (MPH): 9.3 24 HR AVG TEMP (F): 48DEPART FROM NORMAL: 13  HEATING DEGREE DAYS: 17 COOLING DEGREE DAYS:  0EQDQ01  00002PRCP24R01     T7AAP092
0465999999137242023013104596+39378-074424SOD  +000355N  V030999999999999999999999999999+99999+99999999999ADDAA124000095KA1240M+01065KA2240N+00615OE11240076025099995OE22240044728099995OE33240023299999995REMSOD35924 HR PRECIPITATION (IN): 0.00 24 HR MAX TEMP (F): 5124 HR MIN TEMP (F): 43PEAK WIND SPEED (MPH): 17 PEAK WIND DIR (DEG):250 PEAK WIND TIME (LST):      FASTEST 2MIN SPEED (MPH): 10FASTEST 2MIN DIR (DEG):280 FASTEST 2MIN TIME (LST):     AVERAGE WIND SPEED (MPH): 5.2 24 HR AVG TEMP (F): 47DEPART FROM NORMAL: 12  HEATING DEGREE DAYS: 18 COOLING DEGREE DAYS:  0
0484999999137242023020104596+39378-074424SOD  +000355N  V030999999999999999999999999999+99999+99999999999ADDAA12400439AKA1240M+00835KA2240N+00175OE11240084934099995OE22240049223099995OE33240024699999995REMSOD35924 HR PRECIPITATION (IN): 0.17 24 HR MAX TEMP (F): 4724 HR MIN TEMP (F): 35PEAK WIND SPEED (MPH): 19 PEAK WIND DIR (DEG):340 PEAK WIND TIME (LST):      FASTEST 2MIN SPEED (MPH): 11FASTEST 2MIN DIR (DEG):230 FASTEST 2MIN TIME (LST):     AVERAGE WIND SPEED (MPH): 5.5 24 HR AVG TEMP (F): 41DEPART FROM NORMAL:  6  HEATING DEGREE DAYS: 24 COOLING DEGREE DAYS:  0EQDR01  0.177AAP092
0128999999137242023020104596+39378-074424SOM  +000355N  V030999999999999999999999999999+99999+99999999999ADDAD1001659252599999999IAE113U08U02U00UKB1240N+0406IKB2240M+0961IKB3240A+0683IKC1N9-0017169999IKC2M9+0161049999IKE100U00U03U00U
0484999999137242023020204596+39378-074424SOD  +000355N  V030999999999999999999999999999+99999+99999999999ADDAA12400089AKA1240M+00335KA2240N+00005OE11240071503099995OE22240049235099995OE33240020699999995REMSOD35924 HR PRECIPITATION (IN): 0.03 24 HR MAX TEMP (F): 3824 HR MIN TEMP (F): 32PEAK WIND SPEED (MPH): 16 PEAK WIND DIR (DEG): 30 PEAK WIND TIME (LST):      FASTEST 2MIN SPEED (MPH): 11FASTEST 2MIN DIR (DEG):350 FASTEST 2MIN TIME (LST):     AVERAGE WIND SPEED (MPH): 4.6 24 HR AVG TEMP (F): 35DEPART FROM NORMAL:  0  HEATING DEGREE DAYS: 30 COOLING DEGREE DAYS:  0EQDR01  0.037AAP092
0465999999137242023020304596+39378-074424SOD  +000355N  V030999999999999999999999999999+99999+99999999999ADDAA124000095KA1240M+00395KA2240N-00055OE11240089426099995OE22240062626099995OE33240031799999995REMSOD35924 HR PRECIPITATION (IN): 0.00 24 HR MAX TEMP (F): 3924 HR MIN TEMP (F): 31PEAK WIND SPEED (MPH): 20 PEAK WIND DIR (DEG):260 PEAK WIND TIME (LST):      FASTEST 2MIN SPEED (MPH): 14FASTEST 2MIN DIR (DEG):260 FASTEST 2MIN TIME (LST):     AVERAGE WIND SPEED (MPH): 7.1 24 HR AVG TEMP (F): 35DEPART FROM NORMAL: -1  HEATING DEGREE DAYS: 30 COOLING DEGREE DAYS:  0
0500999999137242023020404596+39378-074424SOD  +000355N  V030999999999999999999999999999+99999+99999999999ADDAA12400009AKA1240M+00225KA2240N-00715OE11240152034099995OE22240093933099995OE33240056899999995REMSOD35924 HR PRECIPITATION (IN):    T 24 HR MAX TEMP (F): 3624 HR MIN TEMP (F): 19PEAK WIND SPEED (MPH): 34 PEAK WIND DIR (DEG):340 PEAK WIND TIME (LST):      FASTEST 2MIN SPEED (MPH): 21FASTEST 2MIN DIR (DEG):330 FASTEST 2MIN TIME (LST):     AVERAGE WIND SPEED (MPH):12.7 24 HR AVG TEMP (F): 28DEPART FROM NORMAL: -8  HEATING DEGREE DAYS: 37 COOLING DEGREE DAYS:  0EQDQ01  00002PRCP24R01     T7AAP092
0465999999137242023020504596+39378-074424SOD  +000355N  V030999999999999999999999999999+99999+99999999999ADDAA124000095KA1240M+00115KA2240N-00885OE11240152033099995OE22240089423099995OE33240046999999995REMSOD35924 HR PRECIPITATION (IN): 0.00 24 HR MAX TEMP (F): 3424 HR MIN TEMP (F): 16PEAK WIND SPEED (MPH): 34 PEAK WIND DIR (DEG):330 PEAK WIND TIME (LST):      FASTEST 2MIN SPEED (MPH): 20FASTEST 2MIN DIR (DEG):230 FASTEST 2MIN TIME (LST):     AVERAGE WIND SPEED (MPH):10.5 24 HR AVG TEMP (F): 25DEPART FROM NORMAL:-11  HEATING DEGREE DAYS: 40 COOLING DEGREE DAYS:  0
0465999999137242023020604596+39378-074424SOD  +000355N  V030999999999999999999999999999+99999+99999999999ADDAA124000095KA1240M+00895KA2240N+00115OE11240152023099995OE22240111824099995OE33240069799999995REMSOD35924 HR PRECIPITATION (IN): 0.00 24 HR MAX TEMP (F): 4824 HR MIN TEMP (F): 34PEAK WIND SPEED (MPH): 34 PEAK WIND DIR (DEG):230 PEAK WIND TIME (LST):      FASTEST 2MIN SPEED (MPH): 25FASTEST 2MIN DIR (DEG):240 FASTEST 2MIN TIME (LST):     AVERAGE WIND SPEED (MPH):15.6 24 HR AVG TEMP (F): 41DEPART FROM NORMAL:  5  HEATING DEGREE DAYS: 24 COOLING DEGREE DAYS:  0
0465999999137242023020704596+39378-074424SOD  +000355N  V030999999999999999999999999999+99999+99999999999ADDAA124000095KA1240M+01175KA2240N+00395OE11240165427099995OE22240102833099995OE33240038099999995REMSOD35924 HR PRECIPITATION (IN): 0.00 24 HR MAX TEMP (F): 5324 HR MIN TEMP (F): 39PEAK WIND SPEED (MPH): 37 PEAK WIND DIR (DEG):270 PEAK WIND TIME (LST):      FASTEST 2MIN SPEED (MPH): 23FASTEST 2MIN DIR (DEG):330 FASTEST 2MIN TIME (LST):     AVERAGE WIND SPEED (MPH): 8.5 24 HR AVG TEMP (F): 46DEPART FROM NORMAL: 10  HEATING DEGREE DAYS: 19 COOLING DEGREE DAYS:  0
0465999999137242023020804596+39378-074424SOD  +000355N  V030999999999999999999999999999+99999+99999999999ADDAA124000095KA1240M+00675KA2240N+00005OE11240093920099995OE22240067122099995OE33240032299999995REMSOD35924 HR PRECIPITATION (IN): 0.00 24 HR MAX TEMP (F): 4424 HR MIN TEMP (F): 32PEAK WIND SPEED (MPH): 21 PEAK WIND DIR (DEG):200 PEAK WIND TIME (LST):      FASTEST 2MIN SPEED (MPH): 15FASTEST 2MIN DIR (DEG):220 FASTEST 2MIN TIME (LST):     AVERAGE WIND SPEED (MPH): 7.2 24 HR AVG TEMP (F): 38DEPART FROM NORMAL:  2  HEATING DEGREE DAYS: 27 COOLING DEGREE DAYS:  0
0500999999137242023020904596+39378-074424SOD  +000355N  V030999999999999999999999999999+99999+99999999999ADDAA12400009AKA1240M+01445KA2240N+00615OE11240080533099995OE22240044725099995OE33240024699999995REMSOD35924 HR PRECIPITATION (IN):    T 24 HR MAX TEMP (F): 5824 HR MIN TEMP (F): 43PEAK WIND SPEED (MPH): 18 PEAK WIND DIR (DEG):330 PEAK WIND TIME (LST):      FASTEST 2MIN SPEED (MPH): 10FASTEST 2MIN DIR (DEG):250 FASTEST 2MIN TIME (LST):     AVERAGE WIND SPEED (MPH): 5.5 24 HR AVG TEMP (F): 51DEPART FROM NORMAL: 15  HEATING DEGREE DAYS: 14 COOLING DEGREE DAYS:  0EQDQ01  00002PRCP24R01     T7AAP092
0465999999137242023021004596+39378-074424SOD  +000355N  V030999999999999999999999999999+99999+99999999999ADDAA124000095KA1240M+01285KA2240N+00565OE11240160922099995OE22240102822099995OE33240046999999995REMSOD35924 HR PRECIPITATION (IN): 0.00 24 HR MAX TEMP (F): 5524 HR MIN TEMP (F): 42PEAK WIND SPEED (MPH): 36 PEAK WIND DIR (DEG):220 PEAK WIND TIME (LST):      FASTEST 2MIN SPEED (MPH): 23FASTEST 2MIN DIR (DEG):220 FASTEST 2MIN TIME (LST):     AVERAGE WIND SPEED (MPH):10.5 24 HR AVG TEMP (F): 49DEPART FROM NORMAL: 13  HEATING DEGREE DAYS: 16 COOLING DEGREE DAYS:  0
0465999999137242023021104596+39378-074424SOD  +000355N  V030999999999999999999999999999+99999+99999999999ADDAA124000095KA1240M+01615KA2240N+00785OE11240165423099995OE22240093922099995OE33240046099999995REMSOD35924 HR PRECIPITATION (IN): 0.00 24 HR MAX TEMP (F): 6124 HR MIN TEMP (F): 46PEAK WIND SPEED (MPH): 37 PEAK WIND DIR (DEG):230 PEAK WIND TIME (LST):      FASTEST 2MIN SPEED (MPH): 21FASTEST 2MIN DIR (DEG):220 FASTEST 2MIN TIME (LST):     AVERAGE WIND SPEED (MPH):10.3 24 HR AVG TEMP (F): 54DEPART FROM NORMAL: 18  HEATING DEGREE DAYS: 11 COOLING DEGREE DAYS:  0
0465999999137242023021204596+39378-074424SOD  +000355N  V030999999999999999999999999999+99999+99999999999ADDAA124000095KA1240M+00785KA2240N+00445OE11240107333099995OE22240058133099995OE33240033599999995REMSOD35924 HR PRECIPITATION (IN): 0.00 24 HR MAX TEMP (F): 4624 HR MIN TEMP (F): 40PEAK WIND SPEED (MPH): 24 PEAK WIND DIR (DEG):330 PEAK WIND TIME (LST):      FASTEST 2MIN SPEED (MPH): 13FASTEST 2MIN DIR (DEG):330 FASTEST 2MIN TIME (LST):     AVERAGE WIND SPEED (MPH): 7.5 24 HR AVG TEMP (F): 43DEPART FROM NORMAL:  6  HEATING DEGREE DAYS: 22 COOLING DEGREE DAYS:  0
0484999999137242023021304596+39378-074424SOD  +000355N  V030999999999999999999999999999+99999+99999999999ADDAA12401129AKA1240M+00615KA2240N+00395OE11240165405099995OE22240098305099995OE33240041699999995REMSOD35924 HR PRECIPITATION (IN): 0.44 24 HR MAX TEMP (F): 4324 HR MIN TEMP (F): 39PEAK WIND SPEED (MPH): 37 PEAK WIND DIR (DEG): 50 PEAK WIND TIME (LST):      FASTEST 2MIN SPEED (MPH): 22FASTEST 2MIN DIR (DEG): 50 FASTEST 2MIN TIME (LST):     AVERAGE WIND SPEED (MPH): 9.3 24 HR AVG TEMP (F): 41DEPART FROM NORMAL:  4  HEATING DEGREE DAYS: 24 COOLING DEGREE DAYS:  0EQDR01  0.447AAP092
0484999999137242023021404596+39378-074424SOD  +000355N  V030999999999999999999999999999+99999+99999999999ADDAA12400039AKA1240M+01445KA2240N+00445OE11240156527099995OE22240076004099995OE33240044799999995REMSOD35924 HR PRECIPITATION (IN): 0.01 24 HR MAX TEMP (F): 5824 HR MIN TEMP (F): 40PEAK WIND SPEED (MPH): 35 PEAK WIND DIR (DEG):270 PEAK WIND TIME (LST):      FASTEST 2MIN SPEED (MPH): 17FASTEST 2MIN DIR (DEG): 40 FASTEST 2MIN TIME (LST):     AVERAGE WIND SPEED (MPH):10.0 24 HR AVG TEMP (F): 49DEPART FROM NORMAL: 12  HEATING DEGREE DAYS: 16 COOLING DEGREE DAYS:  0EQDR01  0.017AAP092
0465999999137242023021504596+39378-074424SOD  +000355N  V030999999999999999999999999999+99999+99999999999ADDAA124000095KA1240M+01285KA2240N+00565OE11240111829099995OE22240053623099995OE33240027799999995REMSOD35924 HR PRECIPITATION (IN): 0.00 24 HR MAX TEMP (F): 5524 HR MIN TEMP (F): 42PEAK WIND SPEED (MPH): 25 PEAK WIND DIR (DEG):290 PEAK WIND TIME (LST):      FASTEST 2MIN SPEED (MPH): 12FASTEST 2MIN DIR (DEG):230 FASTEST 2MIN TIME (LST):     AVERAGE WIND SPEED (MPH): 6.2 24 HR AVG TEMP (F): 49DEPART FROM NORMAL: 12  HEATING DEGREE DAYS: 16 COOLING DEGREE DAYS:  0
0465999999137242023021604596+39378-074424SOD  +000355N  V030999999999999999999999999999+99999+99999999999ADDAA124000095KA1240M+01395KA2240N+00785OE11240152022099995OE22240098322099995OE33240052899999995REMSOD35924 HR PRECIPITATION (IN): 0.00 24 HR MAX TEMP (F): 5724 HR MIN TEMP (F): 46PEAK WIND SPEED (MPH): 34 PEAK WIND DIR (DEG):220 PEAK WIND TIME (LST):      FASTEST 2MIN SPEED (MPH): 22FASTEST 2MIN DIR (DEG):220 FASTEST 2MIN TIME (LST):     AVERAGE WIND SPEED (MPH):11.8 24 HR AVG TEMP (F): 52DEPART FROM NORMAL: 15  HEATING DEGREE DAYS: 13 COOLING DEGREE DAYS:  0
0484999999137242023021704596+39378-074424SOD  +000355N  V030999999999999999999999999999+99999+99999999999ADDAA12400059AKA1240M+01505KA2240N+01065OE11240125223099995OE22240076023099995OE33240038499999995REMSOD35924 HR PRECIPITATION (IN): 0.02 24 HR MAX TEMP (F): 5924 HR MIN TEMP (F): 51PEAK WIND SPEED (MPH): 28 PEAK WIND DIR (DEG):230 PEAK WIND TIME (LST):      FASTEST 2MIN SPEED (MPH): 17FASTEST 2MIN DIR (DEG):230 FASTEST 2MIN TIME (LST):     AVERAGE WIND SPEED (MPH): 8.6 24 HR AVG TEMP (F): 55DEPART FROM NORMAL: 18  HEATING DEGREE DAYS: 10 COOLING DEGREE DAYS:  0EQDR01  0.027AAP092
0484999999137242023021804596+39378-074424SOD  +000355N  V030999999999999999999999999999+99999+99999999999ADDAA12400439AKA1240M+01505KA2240N+00225OE11240192233099995OE22240102823099995OE33240063999999995REMSOD35924 HR PRECIPITATION (IN): 0.17 24 HR MAX TEMP (F): 5924 HR MIN TEMP (F): 36PEAK WIND SPEED (MPH): 43 PEAK WIND DIR (DEG):330 PEAK WIND TIME (LST):      FASTEST 2MIN SPEED (MPH): 23FASTEST 2MIN DIR (DEG):230 FASTEST 2MIN TIME (LST):     AVERAGE WIND SPEED (MPH):14.3 24 HR AVG TEMP (F): 48DEPART FROM NORMAL: 10  HEATING DEGREE DAYS: 17 COOLING DEGREE DAYS:  0EQDR01  0.177AAP092
0465999999137242023021904596+39378-074424SOD  +000355N  V030999999999999999999999999999+99999+99999999999ADDAA124000095KA1240M+00565KA2240N-00055OE11240120733099995OE22240084933099995OE33240039399999995REMSOD35924 HR PRECIPITATION (IN): 0.00 24 HR MAX TEMP (F): 4224 HR MIN TEMP (F): 31PEAK WIND SPEED (MPH): 27 PEAK WIND DIR (DEG):330 PEAK WIND TIME (LST):      FASTEST 2MIN SPEED (MPH): 19FASTEST 2MIN DIR (DEG):330 FASTEST 2MIN TIME (LST):     AVERAGE WIND SPEED (MPH): 8.8 24 HR AVG TEMP (F): 37DEPART FROM NORMAL: -1  HEATING DEGREE DAYS: 28 COOLING DEGREE DAYS:  0
0465999999137242023022004596+39378-074424SOD  +000355N  V030999999999999999999999999999+99999+99999999999ADDAA124000095KA1240M+01005KA2240N+00335OE11240156522099995OE22240084922099995OE33240052399999995REMSOD35924 HR PRECIPITATION (IN): 0.00 24 HR MAX TEMP (F): 5024 HR MIN TEMP (F): 38PEAK WIND SPEED (MPH): 35 PEAK WIND DIR (DEG):220 PEAK WIND TIME (LST):      FASTEST 2MIN SPEED (MPH): 19FASTEST 2MIN DIR (DEG):220 FASTEST 2MIN TIME (LST):     AVERAGE WIND SPEED (MPH):11.7 24 HR AVG TEMP (F): 44DEPART FROM NORMAL:  6  HEATING DEGREE DAYS: 21 COOLING DEGREE DAYS:  0
0465999999137242023022104596+39378-074424SOD  +000355N  V030999999999999999999999999999+99999+99999999999ADDAA124000095KA1240M+01335KA2240N+00835OE11240147522099995OE22240084922099995OE33240040299999995REMSOD35924 HR PRECIPITATION (IN): 0.00 24 HR MAX TEMP (F): 5624 HR MIN TEMP (F): 47PEAK WIND SPEED (MPH): 33 PEAK WIND DIR (DEG):220 PEAK WIND TIME (LST):      FASTEST 2MIN SPEED (MPH): 19FASTEST 2MIN DIR (DEG):220 FASTEST 2MIN TIME (LST):     AVERAGE WIND SPEED (MPH): 9.0 24 HR AVG TEMP (F): 52DEPART FROM NORMAL: 14  HEATING DEGREE DAYS: 13 COOLING DEGREE DAYS:  0
0484999999137242023022204596+39378-074424SOD  +000355N  V030999999999999999999999999999+99999+99999999999ADDAA12400259AKA1240M+01175KA2240N+00565OE11240125201099995OE22240062633099995OE33240030499999995REMSOD35924 HR PRECIPITATION (IN): 0.10 24 HR MAX TEMP (F): 5324 HR MIN TEMP (F): 42PEAK WIND SPEED (MPH): 28 PEAK WIND DIR (DEG): 10 PEAK WIND TIME (LST):      FASTEST 2MIN SPEED (MPH): 14FASTEST 2MIN DIR (DEG):330 FASTEST 2MIN TIME (LST):     AVERAGE WIND SPEED (MPH): 6.8 24 HR AVG TEMP (F): 48DEPART FROM NORMAL: 10  HEATING DEGREE DAYS: 17 COOLING DEGREE DAYS:  0EQDR01  0.107AAP092
0484999999137242023022304596+39378-074424SOD  +000355N  V030999999999999999999999999999+99999+99999999999ADDAA12400059AKA1240M+00835KA2240N+00445OE11240111806099995OE22240067109099995OE33240034499999995REMSOD35924 HR PRECIPITATION (IN): 0.02 24 HR MAX TEMP (F): 4724 HR MIN TEMP (F): 40PEAK WIND SPEED (MPH): 25 PEAK WIND DIR (DEG): 60 PEAK WIND TIME (LST):      FASTEST 2MIN SPEED (MPH): 15FASTEST 2MIN DIR (DEG): 90 FASTEST 2MIN TIME (LST):     AVERAGE WIND SPEED (MPH): 7.7 24 HR AVG TEMP (F): 44DEPART FROM NORMAL:  6  HEATING DEGREE DAYS: 21 COOLING DEGREE DAYS:  0EQDR01  0.027AAP092
0465999999137242023022404596+39378-074424SOD  +000355N  V030999999999999999999999999999+99999+99999999999ADDAA124000095KA1240M+00835KA2240N+00675OE11240089402099995OE22240067108099995OE33240034499999995REMSOD35924 HR PRECIPITATION (IN): 0.00 24 HR MAX TEMP (F): 4724 HR MIN TEMP (F): 44PEAK WIND SPEED (MPH): 20 PEAK WIND DIR (DEG): 20 PEAK WIND TIME (LST):      FASTEST 2MIN SPEED (MPH): 15FASTEST 2MIN DIR (DEG): 80 FASTEST 2MIN TIME (LST):     AVERAGE WIND SPEED (MPH): 7.7 24 HR AVG TEMP (F): 46DEPART FROM NORMAL:  8  HEATING DEGREE DAYS: 19 COOLING DEGREE DAYS:  0
0465999999137242023022504596+39378-074424SOD  +000355N  V030999999999999999999999999999+99999+99999999999ADDAA124000095KA1240M+01175KA2240N+00115OE11240160933099995OE22240084933099995OE33240041699999995REMSOD35924 HR PRECIPITATION (IN): 0.00 24 HR MAX TEMP (F): 5324 HR MIN TEMP (F): 34PEAK WIND SPEED (MPH): 36 PEAK WIND DIR (DEG):330 PEAK WIND TIME (LST):      FASTEST 2MIN SPEED (MPH): 19FASTEST 2MIN DIR (DEG):330 FASTEST 2MIN TIME (LST):     AVERAGE WIND SPEED (MPH): 9.3 24 HR AVG TEMP (F): 44DEPART FROM NORMAL:  5  HEATING DEGREE DAYS: 21 COOLING DEGREE DAYS:  0
0484999999137242023022604596+39378-074424SOD  +000355N  V030999999999999999999999999999+99999+99999999999ADDAA12400039AKA1240M+00225KA2240N-00215OE11240093936099995OE22240071501099995OE33240046999999995REMSOD35924 HR PRECIPITATION (IN): 0.01 24 HR MAX TEMP (F): 3624 HR MIN TEMP (F): 28PEAK WIND SPEED (MPH): 21 PEAK WIND DIR (DEG):360 PEAK WIND TIME (LST):      FASTEST 2MIN SPEED (MPH): 16FASTEST 2MIN DIR (DEG): 10 FASTEST 2MIN TIME (LST):     AVERAGE WIND SPEED (MPH):10.5 24 HR AVG TEMP (F): 32DEPART FROM NORMAL: -7  HEATING DEGREE DAYS: 33 COOLING DEGREE DAYS:  0EQDR01  0.017AAP092
0465999999137242023022704596+39378-074424SOD  +000355N  V030999999999999999999999999999+99999+99999999999ADDAA124000095KA1240M+00835KA2240N+00005OE11240116225099995OE22240080525099995OE33240041199999995REMSOD35924 HR PRECIPITATION (IN): 0.00 24 HR MAX TEMP (F): 4724 HR MIN TEMP (F): 32PEAK WIND SPEED (MPH): 26 PEAK WIND DIR (DEG):250 PEAK WIND TIME (LST):      FASTEST 2MIN SPEED (MPH): 18FASTEST 2MIN DIR (DEG):250 FASTEST 2MIN TIME (LST):     AVERAGE WIND SPEED (MPH): 9.2 24 HR AVG TEMP (F): 40DEPART FROM NORMAL:  1  HEATING DEGREE DAYS: 25 COOLING DEGREE DAYS:  0
0484999999137242023022804596+39378-074424SOD  +000355N  V030999999999999999999999999999+99999+99999999999ADDAA12401049AKA1240M+00675KA2240N+00335OE11240192208099995OE22240143108099995OE33240046099999995REMSOD35924 HR PRECIPITATION (IN): 0.41 24 HR MAX TEMP (F): 4424 HR MIN TEMP (F): 38PEAK WIND SPEED (MPH): 43 PEAK WIND DIR (DEG): 80 PEAK WIND TIME (LST):      FASTEST 2MIN SPEED (MPH): 32FASTEST 2MIN DIR (DEG): 80 FASTEST 2MIN TIME (LST):     AVERAGE WIND SPEED (MPH):10.3 24 HR AVG TEMP (F): 41DEPART FROM NORMAL:  2  HEATING DEGREE DAYS: 24 COOLING DEGREE DAYS:  0EQDR01  0.417AAP092
0484999999137242023030104596+39378-074424SOD  +000355N  V030999999999999999999999999999+99999+99999999999ADDAA12400439AKA1240M+00835KA2240N+00395OE11240178810099995OE22240120708099995OE33240040299999995REMSOD35924 HR PRECIPITATION (IN): 0.17 24 HR MAX TEMP (F): 4724 HR MIN TEMP (F): 39PEAK WIND SPEED (MPH): 40 PEAK WIND DIR (DEG):100 PEAK WIND TIME (LST):      FASTEST 2MIN SPEED (MPH): 27FASTEST 2MIN DIR (DEG): 80 FASTEST 2MIN TIME (LST):     AVERAGE WIND SPEED (MPH): 9.0 24 HR AVG TEMP (F): 43DEPART FROM NORMAL:  4  HEATING DEGREE DAYS: 22 COOLING DEGREE DAYS:  0EQDR01  0.177AAP092
0128999999137242023030104596+39378-074424SOM  +000355N  V030999999999999999999999999999+99999+99999999999ADDAD1001129121299999999PAE110I05I00I00IKB1240N+0289IKB2240M+0933IKB3240A+0611IKC1N9-0089049999IKC2M9+0161109999IKE100I00I08I00I
0465999999137242023030204596+39378-074424SOD  +000355N  V030999999999999999999999999999+99999+99999999999ADDAA124000095KA1240M+00785KA2240N+00335OE11240080507099995OE22240053616099995OE33240030099999995REMSOD35924 HR PRECIPITATION (IN): 0.00 24 HR MAX TEMP (F): 4624 HR MIN TEMP (F): 38PEAK WIND SPEED (MPH): 18 PEAK WIND DIR (DEG): 70 PEAK WIND TIME (LST):      FASTEST 2MIN SPEED (MPH): 12FASTEST 2MIN DIR (DEG):160 FASTEST 2MIN TIME (LST):     AVERAGE WIND SPEED (MPH): 6.7 24 HR AVG TEMP (F): 42DEPART FROM NORMAL:  2  HEATING DEGREE DAYS: 23 COOLING DEGREE DAYS:  0
0500999999137242023030304596+39378-074424SOD  +000355N  V030999999999999999999999999999+99999+99999999999ADDAA12400009AKA1240M+01505KA2240N+00675OE11240098329099995OE22240058129099995OE33240023299999995REMSOD35924 HR PRECIPITATION (IN):    T 24 HR MAX TEMP (F): 5924 HR MIN TEMP (F): 44PEAK WIND SPEED (MPH): 22 PEAK WIND DIR (DEG):290 PEAK WIND TIME (LST):      FASTEST 2MIN SPEED (MPH): 13FASTEST 2MIN DIR (DEG):290 FASTEST 2MIN TIME (LST):     AVERAGE WIND SPEED (MPH): 5.2 24 HR AVG TEMP (F): 52DEPART FROM NORMAL: 12  HEATING DEGREE DAYS: 13 COOLING DEGREE DAYS:  0EQDQ01  00002PRCP24R01     T7AAP092
0484999999137242023030404596+39378-074424SOD  +000355N  V030999999999999999999999999999+99999+99999999999ADDAA12400919AKA1240M+01065KA2240N+00335OE11240214612099995OE22240116211099995OE33240060899999995REMSOD35924 HR PRECIPITATION (IN): 0.36 24 HR MAX TEMP (F): 5124 HR MIN TEMP (F): 38PEAK WIND SPEED (MPH): 48 PEAK WIND DIR (DEG):120 PEAK WIND TIME (LST):      FASTEST 2MIN SPEED (MPH): 26FASTEST 2MIN DIR (DEG):110 FASTEST 2MIN TIME (LST):     AVERAGE WIND SPEED (MPH):13.6 24 HR AVG TEMP (F): 45DEPART FROM NORMAL:  5  HEATING DEGREE DAYS: 20 COOLING DEGREE DAYS:  0EQDR01  0.367AAP092
0484999999137242023030504596+39378-074424SOD  +000355N  V030999999999999999999999999999+99999+99999999999ADDAA12400489AKA1240M+01395KA2240N+00565OE11240214626099995OE22240134115099995OE33240068899999995REMSOD35924 HR PRECIPITATION (IN): 0.19 24 HR MAX TEMP (F): 5724 HR MIN TEMP (F): 42PEAK WIND SPEED (MPH): 48 PEAK WIND DIR (DEG):260 PEAK WIND TIME (LST):      FASTEST 2MIN SPEED (MPH): 30FASTEST 2MIN DIR (DEG):150 FASTEST 2MIN TIME (LST):     AVERAGE WIND SPEED (MPH):15.4 24 HR AVG TEMP (F): 50DEPART FROM NORMAL: 10  HEATING DEGREE DAYS: 15 COOLING DEGREE DAYS:  0EQDR01  0.197AAP092
0465999999137242023030604596+39378-074424SOD  +000355N  V030999999999999999999999999999+99999+99999999999ADDAA124000095KA1240M+01445KA2240N+00285OE11240111833099995OE22240067133099995OE33240030899999995REMSOD35924 HR PRECIPITATION (IN): 0.00 24 HR MAX TEMP (F): 5824 HR MIN TEMP (F): 37PEAK WIND SPEED (MPH): 25 PEAK WIND DIR (DEG):330 PEAK WIND TIME (LST):      FASTEST 2MIN SPEED (MPH): 15FASTEST 2MIN DIR (DEG):330 FASTEST 2MIN TIME (LST):     AVERAGE WIND SPEED (MPH): 6.9 24 HR AVG TEMP (F): 48DEPART FROM NORMAL:  8  HEATING DEGREE DAYS: 17 COOLING DEGREE DAYS:  0
0465999999137242023030704596+39378-074424SOD  +000355N  V030999999999999999999999999999+99999+99999999999ADDAA124000095KA1240M+01285KA2240N+00335OE11240080528099995OE22240049222099995OE33240032699999995REMSOD35924 HR PRECIPITATION (IN): 0.00 24 HR MAX TEMP (F): 5524 HR MIN TEMP (F): 38PEAK WIND SPEED (MPH): 18 PEAK WIND DIR (DEG):280 PEAK WIND TIME (LST):      FASTEST 2MIN SPEED (MPH): 11FASTEST 2MIN DIR (DEG):220 FASTEST 2MIN TIME (LST):     AVERAGE WIND SPEED (MPH): 7.3 24 HR AVG TEMP (F): 47DEPART FROM NORMAL:  7  HEATING DEGREE DAYS: 18 COOLING DEGREE DAYS:  0
0500999999137242023030804596+39378-074424SOD  +000355N  V030999999999999999999999999999+99999+99999999999ADDAA12400009AKA1240M+00895KA2240N+00225OE11240205633099995OE22240116233099995OE33240053699999995REMSOD35924 HR PRECIPITATION (IN):    T 24 HR MAX TEMP (F): 4824 HR MIN TEMP (F): 36PEAK WIND SPEED (MPH): 46 PEAK WIND DIR (DEG):330 PEAK WIND TIME (LST):      FASTEST 2MIN SPEED (MPH): 26FASTEST 2MIN DIR (DEG):330 FASTEST 2MIN TIME (LST):     AVERAGE WIND SPEED (MPH):12.0 24 HR AVG TEMP (F): 42DEPART FROM NORMAL:  1  HEATING DEGREE DAYS: 23 COOLING DEGREE DAYS:  0EQDQ01  00002PRCP24R01     T7AAP092
0465999999137242023030904596+39378-074424SOD  +000355N  V030999999999999999999999999999+99999+99999999999ADDAA124000095KA1240M+00835KA2240N+00115OE11240160933099995OE22240084933099995OE33240055099999995REMSOD35924 HR PRECIPITATION (IN): 0.00 24 HR MAX TEMP (F): 4724 HR MIN TEMP (F): 34PEAK WIND SPEED (MPH): 36 PEAK WIND DIR (DEG):330 PEAK WIND TIME (LST):      FASTEST 2MIN SPEED (MPH): 19FASTEST 2MIN DIR (DEG):330 FASTEST 2MIN TIME (LST):     AVERAGE WIND SPEED (MPH):12.3 24 HR AVG TEMP (F): 41DEPART FROM NORMAL:  0  HEATING DEGREE DAYS: 24 COOLING DEGREE DAYS:  0
0465999999137242023031004596+39378-074424SOD  +000355N  V030999999999999999999999999999+99999+99999999999ADDAA124000095KA1240M+01005KA2240N+00065OE11240143133099995OE22240080533099995OE33240036799999995REMSOD35924 HR PRECIPITATION (IN): 0.00 24 HR MAX TEMP (F): 5024 HR MIN TEMP (F): 33PEAK WIND SPEED (MPH): 32 PEAK WIND DIR (DEG):330 PEAK WIND TIME (LST):      FASTEST 2MIN SPEED (MPH): 18FASTEST 2MIN DIR (DEG):330 FASTEST 2MIN TIME (LST):     AVERAGE WIND SPEED (MPH): 8.2 24 HR AVG TEMP (F): 42DEPART FROM NORMAL:  1  HEATING DEGREE DAYS: 23 COOLING DEGREE DAYS:  0
0484999999137242023031104596+39378-074424SOD  +000355N  V030999999999999999999999999999+99999+99999999999ADDAA12400259AKA1240M+00785KA2240N+00175OE11240089417099995OE22240053617099995OE33240026899999995REMSOD35924 HR PRECIPITATION (IN): 0.10 24 HR MAX TEMP (F): 4624 HR MIN TEMP (F): 35PEAK WIND SPEED (MPH): 20 PEAK WIND DIR (DEG):170 PEAK WIND TIME (LST):      FASTEST 2MIN SPEED (MPH): 12FASTEST 2MIN DIR (DEG):170 FASTEST 2MIN TIME (LST):     AVERAGE WIND SPEED (MPH): 6.0 24 HR AVG TEMP (F): 41DEPART FROM NORMAL:  0  HEATING DEGREE DAYS: 24 COOLING DEGREE DAYS:  0EQDR01  0.107AAP092
0484999999137242023031204596+39378-074424SOD  +000355N  V030999999999999999999999999999+99999+99999999999ADDAA12400209AKA1240M+00725KA2240N+00285OE11240134133099995OE22240076033099995OE33240041699999995REMSOD35924 HR PRECIPITATION (IN): 0.08 24 HR MAX TEMP (F): 4524 HR MIN TEMP (F): 37PEAK WIND SPEED (MPH): 30 PEAK WIND DIR (DEG):330 PEAK WIND TIME (LST):      FASTEST 2MIN SPEED (MPH): 17FASTEST 2MIN DIR (DEG):330 FASTEST 2MIN TIME (LST):     AVERAGE WIND SPEED (MPH): 9.3 24 HR AVG TEMP (F): 41DEPART FROM NORMAL:  0  HEATING DEGREE DAYS: 24 COOLING DEGREE DAYS:  0EQDR01  0.087AAP092
0465999999137242023031304596+39378-074424SOD  +000355N  V030999999999999999999999999999+99999+99999999999ADDAA124000095KA1240M+00615KA2240N+00005OE11240093934099995OE22240053610099995OE33240030099999995REMSOD35924 HR PRECIPITATION (IN): 0.00 24 HR MAX TEMP (F): 4324 HR MIN TEMP (F): 32PEAK WIND SPEED (MPH): 21 PEAK WIND DIR (DEG):340 PEAK WIND TIME (LST):      FASTEST 2MIN SPEED (MPH): 12FASTEST 2MIN DIR (DEG):100 FASTEST 2MIN TIME (LST):     AVERAGE WIND SPEED (MPH): 6.7 24 HR AVG TEMP (F): 38DEPART FROM NORMAL: -4  HEATING DEGREE DAYS: 27 COOLING DEGREE DAYS:  0
0484999999137242023031404596+39378-074424SOD  +000355N  V030999999999999999999999999999+99999+99999999999ADDAA12400719AKA1240M+00785KA2240N+00505OE11240125233099995OE22240067133099995OE33240025999999995REMSOD35924 HR PRECIPITATION (IN): 0.28 24 HR MAX TEMP (F): 4624 HR MIN TEMP (F): 41PEAK WIND SPEED (MPH): 28 PEAK WIND DIR (DEG):330 PEAK WIND TIME (LST):      FASTEST 2MIN SPEED (MPH): 15FASTEST 2MIN DIR (DEG):330 FASTEST 2MIN TIME (LST):     AVERAGE WIND SPEED (MPH): 5.8 24 HR AVG TEMP (F): 44DEPART FROM NORMAL:  2  HEATING DEGREE DAYS: 21 COOLING DEGREE DAYS:  0EQDR01  0.287AAP092
0484999999137242023031504596+39378-074424SOD  +000355N  V030999999999999999999999999999+99999+99999999999ADDAA12400039AKA1240M+00505KA2240N+00225OE11240236931099995OE22240120729099995OE33240072099999995REMSOD35924 HR PRECIPITATION (IN): 0.01 24 HR MAX TEMP (F): 4124 HR MIN TEMP (F): 36PEAK WIND SPEED (MPH): 53 PEAK WIND DIR (DEG):310 PEAK WIND TIME (LST):      FASTEST 2MIN SPEED (MPH): 27FASTEST 2MIN DIR (DEG):290 FASTEST 2MIN TIME (LST):     AVERAGE WIND SPEED (MPH):16.1 24 HR AVG TEMP (F): 39DEPART FROM NORMAL: -3  HEATING DEGREE DAYS: 26 COOLING DEGREE DAYS:  0EQDR01  0.017AAP092
0465999999137242023031604596+39378-074424SOD  +000355N  V030999999999999999999999999999+99999+99999999999ADDAA124000095KA1240M+00895KA2240N+00115OE11240183333099995OE22240111833099995OE33240055999999995REMSOD35924 HR PRECIPITATION (IN): 0.00 24 HR MAX TEMP (F): 4824 HR MIN TEMP (F): 34PEAK WIND SPEED (MPH): 41 PEAK WIND DIR (DEG):330 PEAK WIND TIME (LST):      FASTEST 2MIN SPEED (MPH): 25FASTEST 2MIN DIR (DEG):330 FASTEST 2MIN TIME (LST):     AVERAGE WIND SPEED (MPH):12.5 24 HR AVG TEMP (F): 41DEPART FROM NORMAL: -1  HEATING DEGREE DAYS: 24 COOLING DEGREE DAYS:  0
0465999999137242023031704596+39378-074424SOD  +000355N  V030999999999999999999999999999+99999+99999999999ADDAA124000095KA1240M+01335KA2240N+00175OE11240102826099995OE22240071525099995OE33240032299999995REMSOD35924 HR PRECIPITATION (IN): 0.00 24 HR MAX TEMP (F): 5624 HR MIN TEMP (F): 35PEAK WIND SPEED (MPH): 23 PEAK WIND DIR (DEG):260 PEAK WIND TIME (LST):      FASTEST 2MIN SPEED (MPH): 16FASTEST 2MIN DIR (DEG):250 FASTEST 2MIN TIME (LST):     AVERAGE WIND SPEED (MPH): 7.2 24 HR AVG TEMP (F): 46DEPART FROM NORMAL:  4  HEATING DEGREE DAYS: 19 COOLING DEGREE DAYS:  0
0500999999137242023031804596+39378-074424SOD  +000355N  V030999999999999999999999999999+99999+99999999999ADDAA12400009AKA1240M+01445KA2240N+00725OE11240129625099995OE22240089425099995OE33240053299999995REMSOD35924 HR PRECIPITATION (IN):    T 24 HR MAX TEMP (F): 5824 HR MIN TEMP (F): 45PEAK WIND SPEED (MPH): 29 PEAK WIND DIR (DEG):250 PEAK WIND TIME (LST):      FASTEST 2MIN SPEED (MPH): 20FASTEST 2MIN DIR (DEG):250 FASTEST 2MIN TIME (LST):     AVERAGE WIND SPEED (MPH):11.9 24 HR AVG TEMP (F): 52DEPART FROM NORMAL:  9  HEATING DEGREE DAYS: 13 COOLING DEGREE DAYS:  0EQDQ01  00002PRCP24R01     T7AAP092
0484999999137242023031904596+39378-074424SOD  +000355N  V030999999999999999999999999999+99999+99999999999ADDAA12400089AKA1240M+01225KA2240N+00615OE11240134133099995OE22240067133099995OE33240039899999995REMSOD35924 HR PRECIPITATION (IN): 0.03 24 HR MAX TEMP (F): 5424 HR MIN TEMP (F): 43PEAK WIND SPEED (MPH): 30 PEAK WIND DIR (DEG):330 PEAK WIND TIME (LST):      FASTEST 2MIN SPEED (MPH): 15FASTEST 2MIN DIR (DEG):330 FASTEST 2MIN TIME (LST):     AVERAGE WIND SPEED (MPH): 8.9 24 HR AVG TEMP (F): 49DEPART FROM NORMAL:  6  HEATING DEGREE DAYS: 16 COOLING DEGREE DAYS:  0EQDR01  0.037AAP092
0465999999137242023032004596+39378-074424SOD  +000355N  V030999999999999999999999999999+99999+99999999999ADDAA124000095KA1240M+00615KA2240N-00055OE11240165429099995OE22240076029099995OE33240042099999995REMSOD35924 HR PRECIPITATION (IN): 0.00 24 HR MAX TEMP (F): 4324 HR MIN TEMP (F): 31PEAK WIND SPEED (MPH): 37 PEAK WIND DIR (DEG):290 PEAK WIND TIME (LST):      FASTEST 2MIN SPEED (MPH): 17FASTEST 2MIN DIR (DEG):290 FASTEST 2MIN TIME (LST):     AVERAGE WIND SPEED (MPH): 9.4 24 HR AVG TEMP (F): 37DEPART FROM NORMAL: -6  HEATING DEGREE DAYS: 28 COOLING DEGREE DAYS:  0
0465999999137242023032104596+39378-074424SOD  +000355N  V030999999999999999999999999999+99999+99999999999ADDAA124000095KA1240M+00675KA2240N-00055OE11240107320099995OE22240067121099995OE33240031799999995REMSOD35924 HR PRECIPITATION (IN): 0.00 24 HR MAX TEMP (F): 4424 HR MIN TEMP (F): 31PEAK WIND SPEED (MPH): 24 PEAK WIND DIR (DEG):200 PEAK WIND TIME (LST):      FASTEST 2MIN SPEED (MPH): 15FASTEST 2MIN DIR (DEG):210 FASTEST 2MIN TIME (LST):     AVERAGE WIND SPEED (MPH): 7.1 24 HR AVG TEMP (F): 38DEPART FROM NORMAL: -5  HEATING DEGREE DAYS: 27 COOLING DEGREE DAYS:  0
0465999999137242023032204596+39378-074424SOD  +000355N  V030999999999999999999999999999+99999+99999999999ADDAA124000095KA1240M+01225KA2240N+00285OE11240111822099995OE22240076022099995OE33240043499999995REMSOD35924 HR PRECIPITATION (IN): 0.00 24 HR MAX TEMP (F): 5424 HR MIN TEMP (F): 37PEAK WIND SPEED (MPH): 25 PEAK WIND DIR (DEG):220 PEAK WIND TIME (LST):      FASTEST 2MIN SPEED (MPH): 17FASTEST 2MIN DIR (DEG):220 FASTEST 2MIN TIME (LST):     AVERAGE WIND SPEED (MPH): 9.7 24 HR AVG TEMP (F): 46DEPART FROM NORMAL:  2  HEATING DEGREE DAYS: 19 COOLING DEGREE DAYS:  0
0465999999137242023032304596+39378-074424SOD  +000355N  V030999999999999999999999999999+99999+99999999999ADDAA124000095KA1240M+01175KA2240N+00725OE11240116219099995OE22240071519099995OE33240040799999995REMSOD35924 HR PRECIPITATION (IN): 0.00 24 HR MAX TEMP (F): 5324 HR MIN TEMP (F): 45PEAK WIND SPEED (MPH): 26 PEAK WIND DIR (DEG):190 PEAK WIND TIME (LST):      FASTEST 2MIN SPEED (MPH): 16FASTEST 2MIN DIR (DEG):190 FASTEST 2MIN TIME (LST):     AVERAGE WIND SPEED (MPH): 9.1 24 HR AVG TEMP (F): 49DEPART FROM NORMAL:  5  HEATING DEGREE DAYS: 16 COOLING DEGREE DAYS:  0
0484999999137242023032404596+39378-074424SOD  +000355N  V030999999999999999999999999999+99999+99999999999ADDAA12400699AKA1240M+01505KA2240N+00895OE11240125224099995OE22240080525099995OE33240036799999995REMSOD35924 HR PRECIPITATION (IN): 0.27 24 HR MAX TEMP (F): 5924 HR MIN TEMP (F): 48PEAK WIND SPEED (MPH): 28 PEAK WIND DIR (DEG):240 PEAK WIND TIME (LST):      FASTEST 2MIN SPEED (MPH): 18FASTEST 2MIN DIR (DEG):250 FASTEST 2MIN TIME (LST):     AVERAGE WIND SPEED (MPH): 8.2 24 HR AVG TEMP (F): 54DEPART FROM NORMAL: 10  HEATING DEGREE DAYS: 11 COOLING DEGREE DAYS:  0EQDR01  0.277AAP092
0484999999137242023032504596+39378-074424SOD  +000355N  V030999999999999999999999999999+99999+99999999999ADDAA12400339AKA1240M+01505KA2240N+00675OE11240076004099995OE22240049226099995OE33240021999999995REMSOD35924 HR PRECIPITATION (IN): 0.13 24 HR MAX TEMP (F): 5924 HR MIN TEMP (F): 44PEAK WIND SPEED (MPH): 17 PEAK WIND DIR (DEG): 40 PEAK WIND TIME (LST):      FASTEST 2MIN SPEED (MPH): 11FASTEST 2MIN DIR (DEG):260 FASTEST 2MIN TIME (LST):     AVERAGE WIND SPEED (MPH): 4.9 24 HR AVG TEMP (F): 52DEPART FROM NORMAL:  8  HEATING DEGREE DAYS: 13 COOLING DEGREE DAYS:  0EQDR01  0.137AAP092
0484999999137242023032604596+39378-074424SOD  +000355N  V030999999999999999999999999999+99999+99999999999ADDAA12400159AKA1240M+01285KA2240N+00675OE11240183314099995OE22240107314099995OE33240039399999995REMSOD35924 HR PRECIPITATION (IN): 0.06 24 HR MAX TEMP (F): 5524 HR MIN TEMP (F): 44PEAK WIND SPEED (MPH): 41 PEAK WIND DIR (DEG):140 PEAK WIND TIME (LST):      FASTEST 2MIN SPEED (MPH): 24FASTEST 2MIN DIR (DEG):140 FASTEST 2MIN TIME (LST):     AVERAGE WIND SPEED (MPH): 8.8 24 HR AVG TEMP (F): 50DEPART FROM NORMAL:  5  HEATING DEGREE DAYS: 15 COOLING DEGREE DAYS:  0EQDR01  0.067AAP092
0465999999137242023032704596+39378-074424SOD  +000355N  V030999999999999999999999999999+99999+99999999999ADDAA124000095KA1240M+01675KA2240N+00945OE11240134131099995OE22240058129099995OE33240035899999995REMSOD35924 HR PRECIPITATION (IN): 0.00 24 HR MAX TEMP (F): 6224 HR MIN TEMP (F): 49PEAK WIND SPEED (MPH): 30 PEAK WIND DIR (DEG):310 PEAK WIND TIME (LST):      FASTEST 2MIN SPEED (MPH): 13FASTEST 2MIN DIR (DEG):290 FASTEST 2MIN TIME (LST):     AVERAGE WIND SPEED (MPH): 8.0 24 HR AVG TEMP (F): 56DEPART FROM NORMAL: 11  HEATING DEGREE DAYS:  9 COOLING DEGREE DAYS:  0
0484999999137242023032804596+39378-074424SOD  +000355N  V030999999999999999999999999999+99999+99999999999ADDAA12400469AKA1240M+01225KA2240N+00725OE11240134108099995OE22240053609099995OE33240028299999995REMSOD35924 HR PRECIPITATION (IN): 0.18 24 HR MAX TEMP (F): 5424 HR MIN TEMP (F): 45PEAK WIND SPEED (MPH): 30 PEAK WIND DIR (DEG): 80 PEAK WIND TIME (LST):      FASTEST 2MIN SPEED (MPH): 12FASTEST 2MIN DIR (DEG): 90 FASTEST 2MIN TIME (LST):     AVERAGE WIND SPEED (MPH): 6.3 24 HR AVG TEMP (F): 50DEPART FROM NORMAL:  5  HEATING DEGREE DAYS: 15 COOLING DEGREE DAYS:  0EQDR01  0.187AAP092
0465999999137242023032904596+39378-074424SOD  +000355N  V030999999999999999999999999999+99999+99999999999ADDAA124000095KA1240M+01005KA2240N+00565OE11240080532099995OE22240049208099995OE33240021599999995REMSOD35924 HR PRECIPITATION (IN): 0.00 24 HR MAX TEMP (F): 5024 HR MIN TEMP (F): 42PEAK WIND SPEED (MPH): 18 PEAK WIND DIR (DEG):320 PEAK WIND TIME (LST):      FASTEST 2MIN SPEED (MPH): 11FASTEST 2MIN DIR (DEG): 80 FASTEST 2MIN TIME (LST):     AVERAGE WIND SPEED (MPH): 4.8 24 HR AVG TEMP (F): 46DEPART FROM NORMAL:  0  HEATING DEGREE DAYS: 19 COOLING DEGREE DAYS:  0
0465999999137242023033004596+39378-074424SOD  +000355N  V030999999999999999999999999999+99999+99999999999ADDAA124000095KA1240M+00895KA2240N+00445OE11240111821099995OE22240076023099995OE33240034999999995REMSOD35924 HR PRECIPITATION (IN): 0.00 24 HR MAX TEMP (F): 4824 HR MIN TEMP (F): 40PEAK WIND SPEED (MPH): 25 PEAK WIND DIR (DEG):210 PEAK WIND TIME (LST):      FASTEST 2MIN SPEED (MPH): 17FASTEST 2MIN DIR (DEG):230 FASTEST 2MIN TIME (LST):     AVERAGE WIND SPEED (MPH): 7.8 24 HR AVG TEMP (F): 44DEPART FROM NORMAL: -2  HEATING DEGREE DAYS: 21 COOLING DEGREE DAYS:  0
0465999999137242023033104596+39378-074424SOD  +000355N  V030999999999999999999999999999+99999+99999999999ADDAA124000095KA1240M+00895KA2240N+00175OE11240134133099995OE22240076033099995OE33240038499999995REMSOD35924 HR PRECIPITATION (IN): 0.00 24 HR MAX TEMP (F): 4824 HR MIN TEMP (F): 35PEAK WIND SPEED (MPH): 30 PEAK WIND DIR (DEG):330 PEAK WIND TIME (LST):      FASTEST 2MIN SPEED (MPH): 17FASTEST 2MIN DIR (DEG):330 FASTEST 2MIN TIME (LST):     AVERAGE WIND SPEED (MPH): 8.6 24 HR AVG TEMP (F): 42DEPART FROM NORMAL: -4  HEATING DEGREE DAYS: 23 COOLING DEGREE DAYS:  0
0465999999137242023040104596+39378-074424SOD  +000355N  V030999999999999999999999999999+99999+99999999999ADDAA124000095KA1240M+01505KA2240N+00565OE11240147522099995OE22240093922099995OE33240050599999995REMSOD35924 HR PRECIPITATION (IN): 0.00 24 HR MAX TEMP (F): 5924 HR MIN TEMP (F): 42PEAK WIND SPEED (MPH): 33 PEAK WIND DIR (DEG):220 PEAK WIND TIME (LST):      FASTEST 2MIN SPEED (MPH): 21FASTEST 2MIN DIR (DEG):220 FASTEST 2MIN TIME (LST):     AVERAGE WIND SPEED (MPH):11.3 24 HR AVG TEMP (F): 51DEPART FROM NORMAL:  5  HEATING DEGREE DAYS: 14 COOLING DEGREE DAYS:  0
0128999999137242023040104596+39378-074424SOM  +000355N  V030999999999999999999999999999+99999+99999999999ADDAD1000919030399999999IAE111I07I00I00IKB1240N+0394IKB2240M+1083IKB3240A+0739IKC1N1-0006209999IKC2M9+0167269999IKE100U00U03U00U
0484999999137242023040204596+39378-074424SOD  +000355N  V030999999999999999999999999999+99999+99999999999ADDAA12401099AKA1240M+01725KA2240N+01005OE11240219031099995OE22240165431099995OE33240065399999995REMSOD35924 HR PRECIPITATION (IN): 0.43 24 HR MAX TEMP (F): 6324 HR MIN TEMP (F): 50PEAK WIND SPEED (MPH): 49 PEAK WIND DIR (DEG):310 PEAK WIND TIME (LST):      FASTEST 2MIN SPEED (MPH): 37FASTEST 2MIN DIR (DEG):310 FASTEST 2MIN TIME (LST):     AVERAGE WIND SPEED (MPH):14.6 24 HR AVG TEMP (F): 57DEPART FROM NORMAL: 10  HEATING DEGREE DAYS:  8 COOLING DEGREE DAYS:  0EQDR01  0.437AAP092
0465999999137242023040304596+39378-074424SOD  +000355N  V030999999999999999999999999999+99999+99999999999ADDAA124000095KA1240M+01175KA2240N+00675OE11240187833099995OE22240116233099995OE33240043899999995REMSOD35924 HR PRECIPITATION (IN): 0.00 24 HR MAX TEMP (F): 5324 HR MIN TEMP (F): 44PEAK WIND SPEED (MPH): 42 PEAK WIND DIR (DEG):330 PEAK WIND TIME (LST):      FASTEST 2MIN SPEED (MPH): 26FASTEST 2MIN DIR (DEG):330 FASTEST 2MIN TIME (LST):     AVERAGE WIND SPEED (MPH): 9.8 24 HR AVG TEMP (F): 49DEPART FROM NORMAL:  2  HEATING DEGREE DAYS: 16 COOLING DEGREE DAYS:  0
0465999999137242023040404596+39378-074424SOD  +000355N  V030999999999999999999999999999+99999+99999999999ADDAA124000095KA1240M+01115KA2240N+00615OE11240125220099995OE22240076023099995OE33240039899999995REMSOD35924 HR PRECIPITATION (IN): 0.00 24 HR MAX TEMP (F): 5224 HR MIN TEMP (F): 43PEAK WIND SPEED (MPH): 28 PEAK WIND DIR (DEG):200 PEAK WIND TIME (LST):      FASTEST 2MIN SPEED (MPH): 17FASTEST 2MIN DIR (DEG):230 FASTEST 2MIN TIME (LST):     AVERAGE WIND SPEED (MPH): 8.9 24 HR AVG TEMP (F): 48DEPART FROM NORMAL:  1  HEATING DEGREE DAYS: 17 COOLING DEGREE DAYS:  0
0465999999137242023040504596+39378-074424SOD  +000355N  V030999999999999999999999999999+99999+99999999999ADDAA124000095KA1240M+01565KA2240N+01115OE11240143122099995OE22240089422099995OE33240050599999995REMSOD35924 HR PRECIPITATION (IN): 0.00 24 HR MAX TEMP (F): 6024 HR MIN TEMP (F): 52PEAK WIND SPEED (MPH): 32 PEAK WIND DIR (DEG):220 PEAK WIND TIME (LST):      FASTEST 2MIN SPEED (MPH): 20FASTEST 2MIN DIR (DEG):220 FASTEST 2MIN TIME (LST):     AVERAGE WIND SPEED (MPH):11.3 24 HR AVG TEMP (F): 56DEPART FROM NORMAL:  8  HEATING DEGREE DAYS:  9 COOLING DEGREE DAYS:  0
0465999999137242023040604596+39378-074424SOD  +000355N  V030999999999999999999999999999+99999+99999999999ADDAA124000095KA1240M+01505KA2240N+01005OE11240138622099995OE22240080522099995OE33240036299999995REMSOD35924 HR PRECIPITATION (IN): 0.00 24 HR MAX TEMP (F): 5924 HR MIN TEMP (F): 50PEAK WIND SPEED (MPH): 31 PEAK WIND DIR (DEG):220 PEAK WIND TIME (LST):      FASTEST 2MIN SPEED (MPH): 18FASTEST 2MIN DIR (DEG):220 FASTEST 2MIN TIME (LST):     AVERAGE WIND SPEED (MPH): 8.1 24 HR AVG TEMP (F): 55DEPART FROM NORMAL:  7  HEATING DEGREE DAYS: 10 COOLING DEGREE DAYS:  0
0484999999137242023040704596+39378-074424SOD  +000355N  V030999999999999999999999999999+99999+99999999999ADDAA12401379AKA1240M+01895KA2240N+01285OE11240129622099995OE22240076022099995OE33240043499999995REMSOD35924 HR PRECIPITATION (IN): 0.54 24 HR MAX TEMP (F): 6624 HR MIN TEMP (F): 55PEAK WIND SPEED (MPH): 29 PEAK WIND DIR (DEG):220 PEAK WIND TIME (LST):      FASTEST 2MIN SPEED (MPH): 17FASTEST 2MIN DIR (DEG):220 FASTEST 2MIN TIME (LST):     AVERAGE WIND SPEED (MPH): 9.7 24 HR AVG TEMP (F): 61DEPART FROM NORMAL: 13  HEATING DEGREE DAYS:  4 COOLING DEGREE DAYS:  0EQDR01  0.547AAP092
0484999999137242023040804596+39378-074424SOD  +000355N  V030999999999999999999999999999+99999+99999999999ADDAA12400289AKA1240M+01565KA2240N+00895OE11240098331099995OE22240053633099995OE33240023299999995REMSOD35924 HR PRECIPITATION (IN): 0.11 24 HR MAX TEMP (F): 6024 HR MIN TEMP (F): 48PEAK WIND SPEED (MPH): 22 PEAK WIND DIR (DEG):310 PEAK WIND TIME (LST):      FASTEST 2MIN SPEED (MPH): 12FASTEST 2MIN DIR (DEG):330 FASTEST 2MIN TIME (LST):     AVERAGE WIND SPEED (MPH): 5.2 24 HR AVG TEMP (F): 54DEPART FROM NORMAL:  5  HEATING DEGREE DAYS: 11 COOLING DEGREE DAYS:  0EQDR01  0.117AAP092
0465999999137242023040904596+39378-074424SOD  +000355N  V030999999999999999999999999999+99999+99999999999ADDAA124000095KA1240M+00895KA2240N+00445OE11240125210099995OE22240080508099995OE33240040299999995REMSOD35924 HR PRECIPITATION (IN): 0.00 24 HR MAX TEMP (F): 4824 HR MIN TEMP (F): 40PEAK WIND SPEED (MPH): 28 PEAK WIND DIR (DEG):100 PEAK WIND TIME (LST):      FASTEST 2MIN SPEED (MPH): 18FASTEST 2MIN DIR (DEG): 80 FASTEST 2MIN TIME (LST):     AVERAGE WIND SPEED (MPH): 9.0 24 HR AVG TEMP (F): 44DEPART FROM NORMAL: -5  HEATING DEGREE DAYS: 21 COOLING DEGREE DAYS:  0
0465999999137242023041004596+39378-074424SOD  +000355N  V030999999999999999999999999999+99999+99999999999ADDAA124000095KA1240M+00895KA2240N+00445OE11240107310099995OE22240076010099995OE33240034499999995REMSOD35924 HR PRECIPITATION (IN): 0.00 24 HR MAX TEMP (F): 4824 HR MIN TEMP (F): 40PEAK WIND SPEED (MPH): 24 PEAK WIND DIR (DEG):100 PEAK WIND TIME (LST):      FASTEST 2MIN SPEED (MPH): 17FASTEST 2MIN DIR (DEG):100 FASTEST 2MIN TIME (LST):     AVERAGE WIND SPEED (MPH): 7.7 24 HR AVG TEMP (F): 44DEPART FROM NORMAL: -5  HEATING DEGREE DAYS: 21 COOLING DEGREE DAYS:  0
0465999999137242023041104596+39378-074424SOD  +000355N  V030999999999999999999999999999+99999+99999999999ADDAA124000095KA1240M+01115KA2240N+00445OE11240116221099995OE22240076023099995OE33240037199999995REMSOD35924 HR PRECIPITATION (IN): 0.00 24 HR MAX TEMP (F): 5224 HR MIN TEMP (F): 40PEAK WIND SPEED (MPH): 26 PEAK WIND DIR (DEG):210 PEAK WIND TIME (LST):      FASTEST 2MIN SPEED (MPH): 17FASTEST 2MIN DIR (DEG):230 FASTEST 2MIN TIME (LST):     AVERAGE WIND SPEED (MPH): 8.3 24 HR AVG TEMP (F): 46DEPART FROM NORMAL: -4  HEATING DEGREE DAYS: 19 COOLING DEGREE DAYS:  0
0465999999137242023041204596+39378-074424SOD  +000355N  V030999999999999999999999999999+99999+99999999999ADDAA124000095KA1240M+01725KA2240N+00835OE11240143123099995OE22240093922099995OE33240052399999995REMSOD35924 HR PRECIPITATION (IN): 0.00 24 HR MAX TEMP (F): 6324 HR MIN TEMP (F): 47PEAK WIND SPEED (MPH): 32 PEAK WIND DIR (DEG):230 PEAK WIND TIME (LST):      FASTEST 2MIN SPEED (MPH): 21FASTEST 2MIN DIR (DEG):220 FASTEST 2MIN TIME (LST):     AVERAGE WIND SPEED (MPH):11.7 24 HR AVG TEMP (F): 55DEPART FROM NORMAL:  5  HEATING DEGREE DAYS: 10 COOLING DEGREE DAYS:  0
0465999999137242023041304596+39378-074424SOD  +000355N  V030999999999999999999999999999+99999+99999999999ADDAA124000095KA1240M+02725KA2240N+01395OE11240125229099995OE22240071528099995OE33240044799999995REMSOD35924 HR PRECIPITATION (IN): 0.00 24 HR MAX TEMP (F): 8124 HR MIN TEMP (F): 57PEAK WIND SPEED (MPH): 28 PEAK WIND DIR (DEG):290 PEAK WIND TIME (LST):      FASTEST 2MIN SPEED (MPH): 16FASTEST 2MIN DIR (DEG):280 FASTEST 2MIN TIME (LST):     AVERAGE WIND SPEED (MPH):10.0 24 HR AVG TEMP (F): 69DEPART FROM NORMAL: 19  HEATING DEGREE DAYS:  0 COOLING DEGREE DAYS:  4
0465999999137242023041404596+39378-074424SOD  +000355N  V030999999999999999999999999999+99999+99999999999ADDAA124000095KA1240M+02835KA2240N+01565OE11240134124099995OE22240089425099995OE33240041699999995REMSOD35924 HR PRECIPITATION (IN): 0.00 24 HR MAX TEMP (F): 8324 HR MIN TEMP (F): 60PEAK WIND SPEED (MPH): 30 PEAK WIND DIR (DEG):240 PEAK WIND TIME (LST):      FASTEST 2MIN SPEED (MPH): 20FASTEST 2MIN DIR (DEG):250 FASTEST 2MIN TIME (LST):     AVERAGE WIND SPEED (MPH): 9.3 24 HR AVG TEMP (F): 72DEPART FROM NORMAL: 21  HEATING DEGREE DAYS:  0 COOLING DEGREE DAYS:  7
0465999999137242023041504596+39378-074424SOD  +000355N  V030999999999999999999999999999+99999+99999999999ADDAA124000095KA1240M+02115KA2240N+01565OE11240120722099995OE22240076023099995OE33240047499999995REMSOD35924 HR PRECIPITATION (IN): 0.00 24 HR MAX TEMP (F): 7024 HR MIN TEMP (F): 60PEAK WIND SPEED (MPH): 27 PEAK WIND DIR (DEG):220 PEAK WIND TIME (LST):      FASTEST 2MIN SPEED (MPH): 17FASTEST 2MIN DIR (DEG):230 FASTEST 2MIN TIME (LST):     AVERAGE WIND SPEED (MPH):10.6 24 HR AVG TEMP (F): 65DEPART FROM NORMAL: 14  HEATING DEGREE DAYS:  0 COOLING DEGREE DAYS:  0
0484999999137242023041604596+39378-074424SOD  +000355N  V030999999999999999999999999999+99999+99999999999ADDAA12400189AKA1240M+01725KA2240N+01335OE11240089419099995OE22240053618099995OE33240027399999995REMSOD35924 HR PRECIPITATION (IN): 0.07 24 HR MAX TEMP (F): 6324 HR MIN TEMP (F): 56PEAK WIND SPEED (MPH): 20 PEAK WIND DIR (DEG):190 PEAK WIND TIME (LST):      FASTEST 2MIN SPEED (MPH): 12FASTEST 2MIN DIR (DEG):180 FASTEST 2MIN TIME (LST):     AVERAGE WIND SPEED (MPH): 6.1 24 HR AVG TEMP (F): 60DEPART FROM NORMAL:  9  HEATING DEGREE DAYS:  5 COOLING DEGREE DAYS:  0EQDR01  0.077AAP092
0465999999137242023041704596+39378-074424SOD  +000355N  V030999999999999999999999999999+99999+99999999999ADDAA124000095KA1240M+01565KA2240N+01225OE11240058113099995OE22240040211099995OE33240023299999995REMSOD35924 HR PRECIPITATION (IN): 0.00 24 HR MAX TEMP (F): 6024 HR MIN TEMP (F): 54PEAK WIND SPEED (MPH): 13 PEAK WIND DIR (DEG):130 PEAK WIND TIME (LST):      FASTEST 2MIN SPEED (MPH):  9FASTEST 2MIN DIR (DEG):110 FASTEST 2MIN TIME (LST):     AVERAGE WIND SPEED (MPH): 5.2 24 HR AVG TEMP (F): 57DEPART FROM NORMAL:  5  HEATING DEGREE DAYS:  8 COOLING DEGREE DAYS:  0
0484999999137242023041804596+39378-074424SOD  +000355N  V030999999999999999999999999999+99999+99999999999ADDAA12400089AKA1240M+01895KA2240N+01335OE11240134128099995OE22240093925099995OE33240040299999995REMSOD35924 HR PRECIPITATION (IN): 0.03 24 HR MAX TEMP (F): 6624 HR MIN TEMP (F): 56PEAK WIND SPEED (MPH): 30 PEAK WIND DIR (DEG):280 PEAK WIND TIME (LST):      FASTEST 2MIN SPEED (MPH): 21FASTEST 2MIN DIR (DEG):250 FASTEST 2MIN TIME (LST):     AVERAGE WIND SPEED (MPH): 9.0 24 HR AVG TEMP (F): 61DEPART FROM NORMAL:  9  HEATING DEGREE DAYS:  4 COOLING DEGREE DAYS:  0EQDR01  0.037AAP092
0465999999137242023041904596+39378-074424SOD  +000355N  V030999999999999999999999999999+99999+99999999999ADDAA124000095KA1240M+01945KA2240N+00835OE11240165426099995OE22240107325099995OE33240049299999995REMSOD35924 HR PRECIPITATION (IN): 0.00 24 HR MAX TEMP (F): 6724 HR MIN TEMP (F): 47PEAK WIND SPEED (MPH): 37 PEAK WIND DIR (DEG):260 PEAK WIND TIME (LST):      FASTEST 2MIN SPEED (MPH): 24FASTEST 2MIN DIR (DEG):250 FASTEST 2MIN TIME (LST):     AVERAGE WIND SPEED (MPH):11.0 24 HR AVG TEMP (F): 57DEPART FROM NORMAL:  5  HEATING DEGREE DAYS:  8 COOLING DEGREE DAYS:  0
0465999999137242023042004596+39378-074424SOD  +000355N  V030999999999999999999999999999+99999+99999999999ADDAA124000095KA1240M+01895KA2240N+00785OE11240125229099995OE22240076022099995OE33240037199999995REMSOD35924 HR PRECIPITATION (IN): 0.00 24 HR MAX TEMP (F): 6624 HR MIN TEMP (F): 46PEAK WIND SPEED (MPH): 28 PEAK WIND DIR (DEG):290 PEAK WIND TIME (LST):      FASTEST 2MIN SPEED (MPH): 17FASTEST 2MIN DIR (DEG):220 FASTEST 2MIN TIME (LST):     AVERAGE WIND SPEED (MPH): 8.3 24 HR AVG TEMP (F): 56DEPART FROM NORMAL:  4  HEATING DEGREE DAYS:  9 COOLING DEGREE DAYS:  0
0465999999137242023042104596+39378-074424SOD  +000355N  V030999999999999999999999999999+99999+99999999999ADDAA124000095KA1240M+01285KA2240N+01065OE11240111803099995OE22240098305099995OE33240040799999995REMSOD35924 HR PRECIPITATION (IN): 0.00 24 HR MAX TEMP (F): 5524 HR MIN TEMP (F): 51PEAK WIND SPEED (MPH): 25 PEAK WIND DIR (DEG): 30 PEAK WIND TIME (LST):      FASTEST 2MIN SPEED (MPH): 22FASTEST 2MIN DIR (DEG): 50 FASTEST 2MIN TIME (LST):     AVERAGE WIND SPEED (MPH): 9.1 24 HR AVG TEMP (F): 53DEPART FROM NORMAL:  0  HEATING DEGREE DAYS: 12 COOLING DEGREE DAYS:  0
0465999999137242023042204596+39378-074424SOD  +000355N  V030999999999999999999999999999+99999+99999999999ADDAA124000095KA1240M+01785KA2240N+01175OE11240089420099995OE22240076020099995OE33240028299999995REMSOD35924 HR PRECIPITATION (IN): 0.00 24 HR MAX TEMP (F): 6424 HR MIN TEMP (F): 53PEAK WIND SPEED (MPH): 20 PEAK WIND DIR (DEG):200 PEAK WIND TIME (LST):      FASTEST 2MIN SPEED (MPH): 17FASTEST 2MIN DIR (DEG):200 FASTEST 2MIN TIME (LST):     AVERAGE WIND SPEED (MPH): 6.3 24 HR AVG TEMP (F): 59DEPART FROM NORMAL:  6  HEATING DEGREE DAYS:  6 COOLING DEGREE DAYS:  0
0484999999137242023042304596+39378-074424SOD  +000355N  V030999999999999999999999999999+99999+99999999999ADDAA12400669AKA1240M+01785KA2240N+01445OE11240129615099995OE22240098320099995OE33240045699999995REMSOD35924 HR PRECIPITATION (IN): 0.26 24 HR MAX TEMP (F): 6424 HR MIN TEMP (F): 58PEAK WIND SPEED (MPH): 29 PEAK WIND DIR (DEG):150 PEAK WIND TIME (LST):      FASTEST 2MIN SPEED (MPH): 22FASTEST 2MIN DIR (DEG):200 FASTEST 2MIN TIME (LST):     AVERAGE WIND SPEED (MPH):10.2 24 HR AVG TEMP (F): 61DEPART FROM NORMAL:  7  HEATING DEGREE DAYS:  4 COOLING DEGREE DAYS:  0EQDR01  0.267AAP092
0484999999137242023042404596+39378-074424SOD  +000355N  V030999999999999999999999999999+99999+99999999999ADDAA12400979AKA1240M+01945KA2240N+01285OE11240116225099995OE22240089425099995OE33240025599999995REMSOD35924 HR PRECIPITATION (IN): 0.38 24 HR MAX TEMP (F): 6724 HR MIN TEMP (F): 55PEAK WIND SPEED (MPH): 26 PEAK WIND DIR (DEG):250 PEAK WIND TIME (LST):      FASTEST 2MIN SPEED (MPH): 20FASTEST 2MIN DIR (DEG):250 FASTEST 2MIN TIME (LST):     AVERAGE WIND SPEED (MPH): 5.7 24 HR AVG TEMP (F): 61DEPART FROM NORMAL:  7  HEATING DEGREE DAYS:  4 COOLING DEGREE DAYS:  0EQDR01  0.387AAP092
0465999999137242023042504596+39378-074424SOD  +000355N  V030999999999999999999999999999+99999+99999999999ADDAA124000095KA1240M+01505KA2240N+00835OE11240080531099995OE22240062619099995OE33240021999999995REMSOD35924 HR PRECIPITATION (IN): 0.00 24 HR MAX TEMP (F): 5924 HR MIN TEMP (F): 47PEAK WIND SPEED (MPH): 18 PEAK WIND DIR (DEG):310 PEAK WIND TIME (LST):      FASTEST 2MIN SPEED (MPH): 14FASTEST 2MIN DIR (DEG):190 FASTEST 2MIN TIME (LST):     AVERAGE WIND SPEED (MPH): 4.9 24 HR AVG TEMP (F): 53DEPART FROM NORMAL: -1  HEATING DEGREE DAYS: 12 COOLING DEGREE DAYS:  0
0465999999137242023042604596+39378-074424SOD  +000355N  V030999999999999999999999999999+99999+99999999999ADDAA124000095KA1240M+01565KA2240N+00725OE11240071528099995OE22240053627099995OE33240019299999995REMSOD35924 HR PRECIPITATION (IN): 0.00 24 HR MAX TEMP (F): 6024 HR MIN TEMP (F): 45PEAK WIND SPEED (MPH): 16 PEAK WIND DIR (DEG):280 PEAK WIND TIME (LST):      FASTEST 2MIN SPEED (MPH): 12FASTEST 2MIN DIR (DEG):270 FASTEST 2MIN TIME (LST):     AVERAGE WIND SPEED (MPH): 4.3 24 HR AVG TEMP (F): 53DEPART FROM NORMAL: -1  HEATING DEGREE DAYS: 12 COOLING DEGREE DAYS:  0
0465999999137242023042704596+39378-074424SOD  +000355N  V030999999999999999999999999999+99999+99999999999ADDAA124000095KA1240M+01335KA2240N+00835OE11240071514099995OE22240053615099995OE33240021099999995REMSOD35924 HR PRECIPITATION (IN): 0.00 24 HR MAX TEMP (F): 5624 HR MIN TEMP (F): 47PEAK WIND SPEED (MPH): 16 PEAK WIND DIR (DEG):140 PEAK WIND TIME (LST):      FASTEST 2MIN SPEED (MPH): 12FASTEST 2MIN DIR (DEG):150 FASTEST 2MIN TIME (LST):     AVERAGE WIND SPEED (MPH): 4.7 24 HR AVG TEMP (F): 52DEPART FROM NORMAL: -3  HEATING DEGREE DAYS: 13 COOLING DEGREE DAYS:  0
0484999999137242023042804596+39378-074424SOD  +000355N  V030999999999999999999999999999+99999+99999999999ADDAA12400259AKA1240M+01285KA2240N+01115OE11240098312099995OE22240080508099995OE33240041699999995REMSOD35924 HR PRECIPITATION (IN): 0.10 24 HR MAX TEMP (F): 5524 HR MIN TEMP (F): 52PEAK WIND SPEED (MPH): 22 PEAK WIND DIR (DEG):120 PEAK WIND TIME (LST):      FASTEST 2MIN SPEED (MPH): 18FASTEST 2MIN DIR (DEG): 80 FASTEST 2MIN TIME (LST):     AVERAGE WIND SPEED (MPH): 9.3 24 HR AVG TEMP (F): 54DEPART FROM NORMAL: -1  HEATING DEGREE DAYS: 11 COOLING DEGREE DAYS:  0EQDR01  0.107AAP092
0484999999137242023042904596+39378-074424SOD  +000355N  V030999999999999999999999999999+99999+99999999999ADDAA12401859AKA1240M+01285KA2240N+01175OE11240187810099995OE22240134110099995OE33240093499999995REMSOD35924 HR PRECIPITATION (IN): 0.73 24 HR MAX TEMP (F): 5524 HR MIN TEMP (F): 53PEAK WIND SPEED (MPH): 42 PEAK WIND DIR (DEG):100 PEAK WIND TIME (LST):      FASTEST 2MIN SPEED (MPH): 30FASTEST 2MIN DIR (DEG):100 FASTEST 2MIN TIME (LST):     AVERAGE WIND SPEED (MPH):20.9 24 HR AVG TEMP (F): 54DEPART FROM NORMAL: -1  HEATING DEGREE DAYS: 11 COOLING DEGREE DAYS:  0EQDR01  0.737AAP092
0484999999137242023043004596+39378-074424SOD  +000355N  V030999999999999999999999999999+99999+99999999999ADDAA12405999AKA1240M+01505KA2240N+01225OE11240232512099995OE22240116210099995OE33240041199999995REMSOD35924 HR PRECIPITATION (IN): 2.36 24 HR MAX TEMP (F): 5924 HR MIN TEMP (F): 54PEAK WIND SPEED (MPH): 52 PEAK WIND DIR (DEG):120 PEAK WIND TIME (LST):      FASTEST 2MIN SPEED (MPH): 26FASTEST 2MIN DIR (DEG):100 FASTEST 2MIN TIME (LST):     AVERAGE WIND SPEED (MPH): 9.2 24 HR AVG TEMP (F): 57DEPART FROM NORMAL:  1  HEATING DEGREE DAYS:  8 COOLING DEGREE DAYS:  0EQDR01  2.367AAP092
0484999999137242023050104596+39378-074424SOD  +000355N  V030999999999999999999999999999+99999+99999999999ADDAA12402879AKA1240M+01675KA2240N+01115OE11240187829099995OE22240102817099995OE33240049699999995REMSOD35924 HR PRECIPITATION (IN): 1.13 24 HR MAX TEMP (F): 6224 HR MIN TEMP (F): 52PEAK WIND SPEED (MPH): 42 PEAK WIND DIR (DEG):290 PEAK WIND TIME (LST):      FASTEST 2MIN SPEED (MPH): 23FASTEST 2MIN DIR (DEG):170 FASTEST 2MIN TIME (LST):     AVERAGE WIND SPEED (MPH):11.1 24 HR AVG TEMP (F): 57DEPART FROM NORMAL:  1  HEATING DEGREE DAYS:  8 COOLING DEGREE DAYS:  0EQDR01  1.137AAP092
0128999999137242023050104596+39378-074424SOM  +000355N  V030999999999999999999999999999+99999+99999999999ADDAD1005999292999999999IAE111U09U04U02UKB1240N+1022IKB2240M+1622IKB3240A+1322IKC1N1+0044109999IKC2M9+0283139999IKE100U00U00U00U
0465999999137242023050204596+39378-074424SOD  +000355N  V030999999999999999999999999999+99999+99999999999ADDAA124000095KA1240M+01675KA2240N+01175OE11240196730099995OE22240089425099995OE33240063999999995REMSOD35924 HR PRECIPITATION (IN): 0.00 24 HR MAX TEMP (F): 6224 HR MIN TEMP (F): 53PEAK WIND SPEED (MPH): 44 PEAK WIND DIR (DEG):300 PEAK WIND TIME (LST):      FASTEST 2MIN SPEED (MPH): 20FASTEST 2MIN DIR (DEG):250 FASTEST 2MIN TIME (LST):     AVERAGE WIND SPEED (MPH):14.3 24 HR AVG TEMP (F): 58DEPART FROM NORMAL:  2  HEATING DEGREE DAYS:  7 COOLING DEGREE DAYS:  0
0500999999137242023050304596+39378-074424SOD  +000355N  V030999999999999999999999999999+99999+99999999999ADDAA12400009AKA1240M+01445KA2240N+00895OE11240152026099995OE22240098326099995OE33240047499999995REMSOD35924 HR PRECIPITATION (IN):    T 24 HR MAX TEMP (F): 5824 HR MIN TEMP (F): 48PEAK WIND SPEED (MPH): 34 PEAK WIND DIR (DEG):260 PEAK WIND TIME (LST):      FASTEST 2MIN SPEED (MPH): 22FASTEST 2MIN DIR (DEG):260 FASTEST 2MIN TIME (LST):     AVERAGE WIND SPEED (MPH):10.6 24 HR AVG TEMP (F): 53DEPART FROM NORMAL: -3  HEATING DEGREE DAYS: 12 COOLING DEGREE DAYS:  0EQDQ01  00002PRCP24R01     T7AAP092
0484999999137242023050404596+39378-074424SOD  +000355N  V030999999999999999999999999999+99999+99999999999ADDAA12400089AKA1240M+01115KA2240N+00895OE11240093932099995OE22240053626099995OE33240029199999995REMSOD35924 HR PRECIPITATION (IN): 0.03 24 HR MAX TEMP (F): 5224 HR MIN TEMP (F): 48PEAK WIND SPEED (MPH): 21 PEAK WIND DIR (DEG):320 PEAK WIND TIME (LST):      FASTEST 2MIN SPEED (MPH): 12FASTEST 2MIN DIR (DEG):260 FASTEST 2MIN TIME (LST):     AVERAGE WIND SPEED (MPH): 6.5 24 HR AVG TEMP (F): 50DEPART FROM NORMAL: -7  HEATING DEGREE DAYS: 15 COOLING DEGREE DAYS:  0EQDR01  0.037AAP092
0484999999137242023050504596+39378-074424SOD  +000355N  V030999999999999999999999999999+99999+99999999999ADDAA12400159AKA1240M+01175KA2240N+00675OE11240089405099995OE22240058105099995OE33240028699999995REMSOD35924 HR PRECIPITATION (IN): 0.06 24 HR MAX TEMP (F): 5324 HR MIN TEMP (F): 44PEAK WIND SPEED (MPH): 20 PEAK WIND DIR (DEG): 50 PEAK WIND TIME (LST):      FASTEST 2MIN SPEED (MPH): 13FASTEST 2MIN DIR (DEG): 50 FASTEST 2MIN TIME (LST):     AVERAGE WIND SPEED (MPH): 6.4 24 HR AVG TEMP (F): 49DEPART FROM NORMAL: -8  HEATING DEGREE DAYS: 16 COOLING DEGREE DAYS:  0EQDR01  0.067AAP092
0484999999137242023050604596+39378-074424SOD  +000355N  V030999999999999999999999999999+99999+99999999999ADDAA12400109AKA1240M+01285KA2240N+00945OE11240067114099995OE22240044713099995OE33240022899999995REMSOD35924 HR PRECIPITATION (IN): 0.04 24 HR MAX TEMP (F): 5524 HR MIN TEMP (F): 49PEAK WIND SPEED (MPH): 15 PEAK WIND DIR (DEG):140 PEAK WIND TIME (LST):      FASTEST 2MIN SPEED (MPH): 10FASTEST 2MIN DIR (DEG):130 FASTEST 2MIN TIME (LST):     AVERAGE WIND SPEED (MPH): 5.1 24 HR AVG TEMP (F): 52DEPART FROM NORMAL: -5  HEATING DEGREE DAYS: 13 COOLING DEGREE DAYS:  0EQDR01  0.047AAP092
0465999999137242023050704596+39378-074424SOD  +000355N  V030999999999999999999999999999+99999+99999999999ADDAA124000095KA1240M+01835KA2240N+01005OE11240093922099995OE22240053622099995OE33240025999999995REMSOD35924 HR PRECIPITATION (IN): 0.00 24 HR MAX TEMP (F): 6524 HR MIN TEMP (F): 50PEAK WIND SPEED (MPH): 21 PEAK WIND DIR (DEG):220 PEAK WIND TIME (LST):      FASTEST 2MIN SPEED (MPH): 12FASTEST 2MIN DIR (DEG):220 FASTEST 2MIN TIME (LST):     AVERAGE WIND SPEED (MPH): 5.8 24 HR AVG TEMP (F): 58DEPART FROM NORMAL:  0  HEATING DEGREE DAYS:  7 COOLING DEGREE DAYS:  0
0465999999137242023050804596+39378-074424SOD  +000355N  V030999999999999999999999999999+99999+99999999999ADDAA124000095KA1240M+01895KA2240N+01335OE11240089428099995OE22240053619099995OE33240038499999995REMSOD35924 HR PRECIPITATION (IN): 0.00 24 HR MAX TEMP (F): 6624 HR MIN TEMP (F): 56PEAK WIND SPEED (MPH): 20 PEAK WIND DIR (DEG):280 PEAK WIND TIME (LST):      FASTEST 2MIN SPEED (MPH): 12FASTEST 2MIN DIR (DEG):190 FASTEST 2MIN TIME (LST):     AVERAGE WIND SPEED (MPH): 8.6 24 HR AVG TEMP (F): 61DEPART FROM NORMAL:  3  HEATING DEGREE DAYS:  4 COOLING DEGREE DAYS:  0
0465999999137242023050904596+39378-074424SOD  +000355N  V030999999999999999999999999999+99999+99999999999ADDAA124000095KA1240M+02335KA2240N+01615OE11240089433099995OE22240058133099995OE33240030499999995REMSOD35924 HR PRECIPITATION (IN): 0.00 24 HR MAX TEMP (F): 7424 HR MIN TEMP (F): 61PEAK WIND SPEED (MPH): 20 PEAK WIND DIR (DEG):330 PEAK WIND TIME (LST):      FASTEST 2MIN SPEED (MPH): 13FASTEST 2MIN DIR (DEG):330 FASTEST 2MIN TIME (LST):     AVERAGE WIND SPEED (MPH): 6.8 24 HR AVG TEMP (F): 68DEPART FROM NORMAL: 10  HEATING DEGREE DAYS:  0 COOLING DEGREE DAYS:  3
0500999999137242023051004596+39378-074424SOD  +000355N  V030999999999999999999999999999+99999+99999999999ADDAA12400009AKA1240M+01785KA2240N+01225OE11240111807099995OE22240062609099995OE33240030899999995REMSOD35924 HR PRECIPITATION (IN):    T 24 HR MAX TEMP (F): 6424 HR MIN TEMP (F): 54PEAK WIND SPEED (MPH): 25 PEAK WIND DIR (DEG): 70 PEAK WIND TIME (LST):      FASTEST 2MIN SPEED (MPH): 14FASTEST 2MIN DIR (DEG): 90 FASTEST 2MIN TIME (LST):     AVERAGE WIND SPEED (MPH): 6.9 24 HR AVG TEMP (F): 59DEPART FROM NORMAL:  1  HEATING DEGREE DAYS:  6 COOLING DEGREE DAYS:  0EQDQ01  00002PRCP24R01     T7AAP092
0465999999137242023051104596+39378-074424SOD  +000355N  V030999999999999999999999999999+99999+99999999999ADDAA124000095KA1240M+01615KA2240N+01115OE11240125223099995OE22240080523099995OE33240036299999995REMSOD35924 HR PRECIPITATION (IN): 0.00 24 HR MAX TEMP (F): 6124 HR MIN TEMP (F): 52PEAK WIND SPEED (MPH): 28 PEAK WIND DIR (DEG):230 PEAK WIND TIME (LST):      FASTEST 2MIN SPEED (MPH): 18FASTEST 2MIN DIR (DEG):230 FASTEST 2MIN TIME (LST):     AVERAGE WIND SPEED (MPH): 8.1 24 HR AVG TEMP (F): 57DEPART FROM NORMAL: -2  HEATING DEGREE DAYS:  8 COOLING DEGREE DAYS:  0
0465999999137242023051204596+39378-074424SOD  +000355N  V030999999999999999999999999999+99999+99999999999ADDAA124000095KA1240M+02115KA2240N+01335OE11240116223099995OE22240071523099995OE33240044799999995REMSOD35924 HR PRECIPITATION (IN): 0.00 24 HR MAX TEMP (F): 7024 HR MIN TEMP (F): 56PEAK WIND SPEED (MPH): 26 PEAK WIND DIR (DEG):230 PEAK WIND TIME (LST):      FASTEST 2MIN SPEED (MPH): 16FASTEST 2MIN DIR (DEG):230 FASTEST 2MIN TIME (LST):     AVERAGE WIND SPEED (MPH):10.0 24 HR AVG TEMP (F): 63DEPART FROM NORMAL:  4  HEATING DEGREE DAYS:  2 COOLING DEGREE DAYS:  0
0465999999137242023051304596+39378-074424SOD  +000355N  V030999999999999999999999999999+99999+99999999999ADDAA124000095KA1240M+02395KA2240N+01565OE11240111823099995OE22240080523099995OE33240040299999995REMSOD35924 HR PRECIPITATION (IN): 0.00 24 HR MAX TEMP (F): 7524 HR MIN TEMP (F): 60PEAK WIND SPEED (MPH): 25 PEAK WIND DIR (DEG):230 PEAK WIND TIME (LST):      FASTEST 2MIN SPEED (MPH): 18FASTEST 2MIN DIR (DEG):230 FASTEST 2MIN TIME (LST):     AVERAGE WIND SPEED (MPH): 9.0 24 HR AVG TEMP (F): 68DEPART FROM NORMAL:  9  HEATING DEGREE DAYS:  0 COOLING DEGREE DAYS:  3
0484999999137242023051404596+39378-074424SOD  +000355N  V030999999999999999999999999999+99999+99999999999ADDAA12400369AKA1240M+02225KA2240N+01725OE11240071523099995OE22240053623099995OE33240030499999995REMSOD35924 HR PRECIPITATION (IN): 0.14 24 HR MAX TEMP (F): 7224 HR MIN TEMP (F): 63PEAK WIND SPEED (MPH): 16 PEAK WIND DIR (DEG):230 PEAK WIND TIME (LST):      FASTEST 2MIN SPEED (MPH): 12FASTEST 2MIN DIR (DEG):230 FASTEST 2MIN TIME (LST):     AVERAGE WIND SPEED (MPH): 6.8 24 HR AVG TEMP (F): 68DEPART FROM NORMAL:  9  HEATING DEGREE DAYS:  0 COOLING DEGREE DAYS:  3EQDR01  0.147AAP092
0465999999137242023051504596+39378-074424SOD  +000355N  V030999999999999999999999999999+99999+99999999999ADDAA124000095KA1240M+01725KA2240N+01395OE11240134106099995OE22240080505099995OE33240038099999995REMSOD35924 HR PRECIPITATION (IN): 0.00 24 HR MAX TEMP (F): 6324 HR MIN TEMP (F): 57PEAK WIND SPEED (MPH): 30 PEAK WIND DIR (DEG): 60 PEAK WIND TIME (LST):      FASTEST 2MIN SPEED (MPH): 18FASTEST 2MIN DIR (DEG): 50 FASTEST 2MIN TIME (LST):     AVERAGE WIND SPEED (MPH): 8.5 24 HR AVG TEMP (F): 60DEPART FROM NORMAL:  0  HEATING DEGREE DAYS:  5 COOLING DEGREE DAYS:  0
0465999999137242023051604596+39378-074424SOD  +000355N  V030999999999999999999999999999+99999+99999999999ADDAA124000095KA1240M+01725KA2240N+01175OE11240152022099995OE22240093923099995OE33240039399999995REMSOD35924 HR PRECIPITATION (IN): 0.00 24 HR MAX TEMP (F): 6324 HR MIN TEMP (F): 53PEAK WIND SPEED (MPH): 34 PEAK WIND DIR (DEG):220 PEAK WIND TIME (LST):      FASTEST 2MIN SPEED (MPH): 21FASTEST 2MIN DIR (DEG):230 FASTEST 2MIN TIME (LST):     AVERAGE WIND SPEED (MPH): 8.8 24 HR AVG TEMP (F): 58DEPART FROM NORMAL: -2  HEATING DEGREE DAYS:  7 COOLING DEGREE DAYS:  0
0465999999137242023051704596+39378-074424SOD  +000355N  V030999999999999999999999999999+99999+99999999999ADDAA124000095KA1240M+02115KA2240N+01565OE11240138623099995OE22240089423099995OE33240049299999995REMSOD35924 HR PRECIPITATION (IN): 0.00 24 HR MAX TEMP (F): 7024 HR MIN TEMP (F): 60PEAK WIND SPEED (MPH): 31 PEAK WIND DIR (DEG):230 PEAK WIND TIME (LST):      FASTEST 2MIN SPEED (MPH): 20FASTEST 2MIN DIR (DEG):230 FASTEST 2MIN TIME (LST):     AVERAGE WIND SPEED (MPH):11.0 24 HR AVG TEMP (F): 65DEPART FROM NORMAL:  5  HEATING DEGREE DAYS:  0 COOLING DEGREE DAYS:  0
0465999999137242023051804596+39378-074424SOD  +000355N  V030999999999999999999999999999+99999+99999999999ADDAA124000095KA1240M+02005KA2240N+01175OE11240120709099995OE22240089409099995OE33240035899999995REMSOD35924 HR PRECIPITATION (IN): 0.00 24 HR MAX TEMP (F): 6824 HR MIN TEMP (F): 53PEAK WIND SPEED (MPH): 27 PEAK WIND DIR (DEG): 90 PEAK WIND TIME (LST):      FASTEST 2MIN SPEED (MPH): 20FASTEST 2MIN DIR (DEG): 90 FASTEST 2MIN TIME (LST):     AVERAGE WIND SPEED (MPH): 8.0 24 HR AVG TEMP (F): 61DEPART FROM NORMAL:  1  HEATING DEGREE DAYS:  4 COOLING DEGREE DAYS:  0
0465999999137242023051904596+39378-074424SOD  +000355N  V030999999999999999999999999999+99999+99999999999ADDAA124000095KA1240M+01395KA2240N+00895OE11240098313099995OE22240067113099995OE33240046099999995REMSOD35924 HR PRECIPITATION (IN): 0.00 24 HR MAX TEMP (F): 5724 HR MIN TEMP (F): 48PEAK WIND SPEED (MPH): 22 PEAK WIND DIR (DEG):130 PEAK WIND TIME (LST):      FASTEST 2MIN SPEED (MPH): 15FASTEST 2MIN DIR (DEG):130 FASTEST 2MIN TIME (LST):     AVERAGE WIND SPEED (MPH):10.3 24 HR AVG TEMP (F): 53DEPART FROM NORMAL: -8  HEATING DEGREE DAYS: 12 COOLING DEGREE DAYS:  0
0484999999137242023052004596+39378-074424SOD  +000355N  V030999999999999999999999999999+99999+99999999999ADDAA12400039AKA1240M+01675KA2240N+01395OE11240093916099995OE22240058116099995OE33240042999999995REMSOD35924 HR PRECIPITATION (IN): 0.01 24 HR MAX TEMP (F): 6224 HR MIN TEMP (F): 57PEAK WIND SPEED (MPH): 21 PEAK WIND DIR (DEG):160 PEAK WIND TIME (LST):      FASTEST 2MIN SPEED (MPH): 13FASTEST 2MIN DIR (DEG):160 FASTEST 2MIN TIME (LST):     AVERAGE WIND SPEED (MPH): 9.6 24 HR AVG TEMP (F): 60DEPART FROM NORMAL: -1  HEATING DEGREE DAYS:  5 COOLING DEGREE DAYS:  0EQDR01  0.017AAP092
0484999999137242023052104596+39378-074424SOD  +000355N  V030999999999999999999999999999+99999+99999999999ADDAA12402929AKA1240M+01835KA2240N+01445OE11240129620099995OE22240062619099995OE33240034099999995REMSOD35924 HR PRECIPITATION (IN): 1.15 24 HR MAX TEMP (F): 6524 HR MIN TEMP (F): 58PEAK WIND SPEED (MPH): 29 PEAK WIND DIR (DEG):200 PEAK WIND TIME (LST):      FASTEST 2MIN SPEED (MPH): 14FASTEST 2MIN DIR (DEG):190 FASTEST 2MIN TIME (LST):     AVERAGE WIND SPEED (MPH): 7.6 24 HR AVG TEMP (F): 62DEPART FROM NORMAL:  1  HEATING DEGREE DAYS:  3 COOLING DEGREE DAYS:  0EQDR01  1.157AAP092
0484999999137242023052204596+39378-074424SOD  +000355N  V030999999999999999999999999999+99999+99999999999ADDAA12400189AKA1240M+02225KA2240N+01395OE11240102833099995OE22240058133099995OE33240026899999995REMSOD35924 HR PRECIPITATION (IN): 0.07 24 HR MAX TEMP (F): 7224 HR MIN TEMP (F): 57PEAK WIND SPEED (MPH): 23 PEAK WIND DIR (DEG):330 PEAK WIND TIME (LST):      FASTEST 2MIN SPEED (MPH): 13FASTEST 2MIN DIR (DEG):330 FASTEST 2MIN TIME (LST):     AVERAGE WIND SPEED (MPH): 6.0 24 HR AVG TEMP (F): 65DEPART FROM NORMAL:  3  HEATING DEGREE DAYS:  0 COOLING DEGREE DAYS:  0EQDR01  0.077AAP092
0465999999137242023052304596+39378-074424SOD  +000355N  V030999999999999999999999999999+99999+99999999999ADDAA124000095KA1240M+02005KA2240N+01445OE11240102807099995OE22240076009099995OE33240037199999995REMSOD35924 HR PRECIPITATION (IN): 0.00 24 HR MAX TEMP (F): 6824 HR MIN TEMP (F): 58PEAK WIND SPEED (MPH): 23 PEAK WIND DIR (DEG): 70 PEAK WIND TIME (LST):      FASTEST 2MIN SPEED (MPH): 17FASTEST 2MIN DIR (DEG): 90 FASTEST 2MIN TIME (LST):     AVERAGE WIND SPEED (MPH): 8.3 24 HR AVG TEMP (F): 63DEPART FROM NORMAL:  1  HEATING DEGREE DAYS:  2 COOLING DEGREE DAYS:  0
0465999999137242023052404596+39378-074424SOD  +000355N  V030999999999999999999999999999+99999+99999999999ADDAA124000095KA1240M+01565KA2240N+01395OE11240111808099995OE22240080509099995OE33240047899999995REMSOD35924 HR PRECIPITATION (IN): 0.00 24 HR MAX TEMP (F): 6024 HR MIN TEMP (F): 57PEAK WIND SPEED (MPH): 25 PEAK WIND DIR (DEG): 80 PEAK WIND TIME (LST):      FASTEST 2MIN SPEED (MPH): 18FASTEST 2MIN DIR (DEG): 90 FASTEST 2MIN TIME (LST):     AVERAGE WIND SPEED (MPH):10.7 24 HR AVG TEMP (F): 59DEPART FROM NORMAL: -3  HEATING DEGREE DAYS:  6 COOLING DEGREE DAYS:  0
0465999999137242023052504596+39378-074424SOD  +000355N  V030999999999999999999999999999+99999+99999999999ADDAA124000095KA1240M+01835KA2240N+01115OE11240160905099995OE22240089405099995OE33240031399999995REMSOD35924 HR PRECIPITATION (IN): 0.00 24 HR MAX TEMP (F): 6524 HR MIN TEMP (F): 52PEAK WIND SPEED (MPH): 36 PEAK WIND DIR (DEG): 50 PEAK WIND TIME (LST):      FASTEST 2MIN SPEED (MPH): 20FASTEST 2MIN DIR (DEG): 50 FASTEST 2MIN TIME (LST):     AVERAGE WIND SPEED (MPH): 7.0 24 HR AVG TEMP (F): 59DEPART FROM NORMAL: -3  HEATING DEGREE DAYS:  6 COOLING DEGREE DAYS:  0
0465999999137242023052604596+39378-074424SOD  +000355N  V030999999999999999999999999999+99999+99999999999ADDAA124000095KA1240M+01565KA2240N+01225OE11240138605099995OE22240098308099995OE33240049299999995REMSOD35924 HR PRECIPITATION (IN): 0.00 24 HR MAX TEMP (F): 6024 HR MIN TEMP (F): 54PEAK WIND SPEED (MPH): 31 PEAK WIND DIR (DEG): 50 PEAK WIND TIME (LST):      FASTEST 2MIN SPEED (MPH): 22FASTEST 2MIN DIR (DEG): 80 FASTEST 2MIN TIME (LST):     AVERAGE WIND SPEED (MPH):11.0 24 HR AVG TEMP (F): 57DEPART FROM NORMAL: -6  HEATING DEGREE DAYS:  8 COOLING DEGREE DAYS:  0
0465999999137242023052704596+39378-074424SOD  +000355N  V030999999999999999999999999999+99999+99999999999ADDAA124000095KA1240M+01675KA2240N+01115OE11240098309099995OE22240076009099995OE33240030099999995REMSOD35924 HR PRECIPITATION (IN): 0.00 24 HR MAX TEMP (F): 6224 HR MIN TEMP (F): 52PEAK WIND SPEED (MPH): 22 PEAK WIND DIR (DEG): 90 PEAK WIND TIME (LST):      FASTEST 2MIN SPEED (MPH): 17FASTEST 2MIN DIR (DEG): 90 FASTEST 2MIN TIME (LST):     AVERAGE WIND SPEED (MPH): 6.7 24 HR AVG TEMP (F): 57DEPART FROM NORMAL: -6  HEATING DEGREE DAYS:  8 COOLING DEGREE DAYS:  0
0465999999137242023052804596+39378-074424SOD  +000355N  V030999999999999999999999999999+99999+99999999999ADDAA124000095KA1240M+01895KA2240N+01225OE11240071513099995OE22240049214099995OE33240023799999995REMSOD35924 HR PRECIPITATION (IN): 0.00 24 HR MAX TEMP (F): 6624 HR MIN TEMP (F): 54PEAK WIND SPEED (MPH): 16 PEAK WIND DIR (DEG):130 PEAK WIND TIME (LST):      FASTEST 2MIN SPEED (MPH): 11FASTEST 2MIN DIR (DEG):140 FASTEST 2MIN TIME (LST):     AVERAGE WIND SPEED (MPH): 5.3 24 HR AVG TEMP (F): 60DEPART FROM NORMAL: -4  HEATING DEGREE DAYS:  5 COOLING DEGREE DAYS:  0
0465999999137242023052904596+39378-074424SOD  +000355N  V030999999999999999999999999999+99999+99999999999ADDAA124000095KA1240M+01785KA2240N+01505OE11240080509099995OE22240062609099995OE33240031799999995REMSOD35924 HR PRECIPITATION (IN): 0.00 24 HR MAX TEMP (F): 6424 HR MIN TEMP (F): 59PEAK WIND SPEED (MPH): 18 PEAK WIND DIR (DEG): 90 PEAK WIND TIME (LST):      FASTEST 2MIN SPEED (MPH): 14FASTEST 2MIN DIR (DEG): 90 FASTEST 2MIN TIME (LST):     AVERAGE WIND SPEED (MPH): 7.1 24 HR AVG TEMP (F): 62DEPART FROM NORMAL: -2  HEATING DEGREE DAYS:  3 COOLING DEGREE DAYS:  0
0465999999137242023053004596+39378-074424SOD  +000355N  V030999999999999999999999999999+99999+99999999999ADDAA124000095KA1240M+02005KA2240N+01505OE11240138607099995OE22240089408099995OE33240045299999995REMSOD35924 HR PRECIPITATION (IN): 0.00 24 HR MAX TEMP (F): 6824 HR MIN TEMP (F): 59PEAK WIND SPEED (MPH): 31 PEAK WIND DIR (DEG): 70 PEAK WIND TIME (LST):      FASTEST 2MIN SPEED (MPH): 20FASTEST 2MIN DIR (DEG): 80 FASTEST 2MIN TIME (LST):     AVERAGE WIND SPEED (MPH):10.1 24 HR AVG TEMP (F): 64DEPART FROM NORMAL:  0  HEATING DEGREE DAYS:  1 COOLING DEGREE DAYS:  0
0465999999137242023053104596+39378-074424SOD  +000355N  V030999999999999999999999999999+99999+99999999999ADDAA124000095KA1240M+01615KA2240N+01395OE11240143107099995OE22240093908099995OE33240060899999995REMSOD35924 HR PRECIPITATION (IN): 0.00 24 HR MAX TEMP (F): 6124 HR MIN TEMP (F): 57PEAK WIND SPEED (MPH): 32 PEAK WIND DIR (DEG): 70 PEAK WIND TIME (LST):      FASTEST 2MIN SPEED (MPH): 21FASTEST 2MIN DIR (DEG): 80 FASTEST 2MIN TIME (LST):     AVERAGE WIND SPEED (MPH):13.6 24 HR AVG TEMP (F): 59DEPART FROM NORMAL: -5  HEATING DEGREE DAYS:  6 COOLING DEGREE DAYS:  0
0465999999137242023060104596+39378-074424SOD  +000355N  V030999999999999999999999999999+99999+99999999999ADDAA124000095KA1240M+01725KA2240N+01335OE11240107305099995OE22240067105099995OE33240038099999995REMSOD35924 HR PRECIPITATION (IN): 0.00 24 HR MAX TEMP (F): 6324 HR MIN TEMP (F): 56PEAK WIND SPEED (MPH): 24 PEAK WIND DIR (DEG): 50 PEAK WIND TIME (LST):      FASTEST 2MIN SPEED (MPH): 15FASTEST 2MIN DIR (DEG): 50 FASTEST 2MIN TIME (LST):     AVERAGE WIND SPEED (MPH): 8.5 24 HR AVG TEMP (F): 60DEPART FROM NORMAL: -5  HEATING DEGREE DAYS:  5 COOLING DEGREE DAYS:  0
0128999999137242023060104596+39378-074424SOM  +000355N  V030999999999999999999999999999+99999+99999999999ADDAD1002929202099999999IAE107I02I01I01IKB1240N+1261IKB2240M+1778IKB3240A+1517IKC1N9+0067049999IKC2M9+0239129999IKE100I00I00I00I
0465999999137242023060204596+39378-074424SOD  +000355N  V030999999999999999999999999999+99999+99999999999ADDAA124000095KA1240M+02115KA2240N+01675OE11240093910099995OE22240067109099995OE33240033599999995REMSOD35924 HR PRECIPITATION (IN): 0.00 24 HR MAX TEMP (F): 7024 HR MIN TEMP (F): 62PEAK WIND SPEED (MPH): 21 PEAK WIND DIR (DEG):100 PEAK WIND TIME (LST):      FASTEST 2MIN SPEED (MPH): 15FASTEST 2MIN DIR (DEG): 90 FASTEST 2MIN TIME (LST):     AVERAGE WIND SPEED (MPH): 7.5 24 HR AVG TEMP (F): 66DEPART FROM NORMAL:  1  HEATING DEGREE DAYS:  0 COOLING DEGREE DAYS:  1
0465999999137242023060304596+39378-074424SOD  +000355N  V030999999999999999999999999999+99999+99999999999ADDAA124000095KA1240M+02335KA2240N+01565OE11240067122099995OE22240044722099995OE33240018899999995REMSOD35924 HR PRECIPITATION (IN): 0.00 24 HR MAX TEMP (F): 7424 HR MIN TEMP (F): 60PEAK WIND SPEED (MPH): 15 PEAK WIND DIR (DEG):220 PEAK WIND TIME (LST):      FASTEST 2MIN SPEED (MPH): 10FASTEST 2MIN DIR (DEG):220 FASTEST 2MIN TIME (LST):     AVERAGE WIND SPEED (MPH): 4.2 24 HR AVG TEMP (F): 67DEPART FROM NORMAL:  1  HEATING DEGREE DAYS:  0 COOLING DEGREE DAYS:  2
0465999999137242023060404596+39378-074424SOD  +000355N  V030999999999999999999999999999+99999+99999999999ADDAA124000095KA1240M+01945KA2240N+01335OE11240174308099995OE22240125208099995OE33240068499999995REMSOD35924 HR PRECIPITATION (IN): 0.00 24 HR MAX TEMP (F): 6724 HR MIN TEMP (F): 56PEAK WIND SPEED (MPH): 39 PEAK WIND DIR (DEG): 80 PEAK WIND TIME (LST):      FASTEST 2MIN SPEED (MPH): 28FASTEST 2MIN DIR (DEG): 80 FASTEST 2MIN TIME (LST):     AVERAGE WIND SPEED (MPH):15.3 24 HR AVG TEMP (F): 62DEPART FROM NORMAL: -4  HEATING DEGREE DAYS:  3 COOLING DEGREE DAYS:  0
0500999999137242023060504596+39378-074424SOD  +000355N  V030999999999999999999999999999+99999+99999999999ADDAA12400009AKA1240M+01505KA2240N+01225OE11240129608099995OE22240089408099995OE33240035399999995REMSOD35924 HR PRECIPITATION (IN):    T 24 HR MAX TEMP (F): 5924 HR MIN TEMP (F): 54PEAK WIND SPEED (MPH): 29 PEAK WIND DIR (DEG): 80 PEAK WIND TIME (LST):      FASTEST 2MIN SPEED (MPH): 20FASTEST 2MIN DIR (DEG): 80 FASTEST 2MIN TIME (LST):     AVERAGE WIND SPEED (MPH): 7.9 24 HR AVG TEMP (F): 57DEPART FROM NORMAL: -9  HEATING DEGREE DAYS:  8 COOLING DEGREE DAYS:  0EQDQ01  00002PRCP24R01     T7AAP092
0465999999137242023060604596+39378-074424SOD  +000355N  V030999999999999999999999999999+99999+99999999999ADDAA124000095KA1240M+02115KA2240N+01285OE11240071520099995OE22240049218099995OE33240023799999995REMSOD35924 HR PRECIPITATION (IN): 0.00 24 HR MAX TEMP (F): 7024 HR MIN TEMP (F): 55PEAK WIND SPEED (MPH): 16 PEAK WIND DIR (DEG):200 PEAK WIND TIME (LST):      FASTEST 2MIN SPEED (MPH): 11FASTEST 2MIN DIR (DEG):180 FASTEST 2MIN TIME (LST):     AVERAGE WIND SPEED (MPH): 5.3 24 HR AVG TEMP (F): 63DEPART FROM NORMAL: -3  HEATING DEGREE DAYS:  2 COOLING DEGREE DAYS:  0
0500999999137242023060704596+39378-074424SOD  +000355N  V030999999999999999999999999999+99999+99999999999ADDAA12400009AKA1240M+02675KA2240N+01505OE11240210133099995OE22240107333099995OE33240035399999995REMSOD35924 HR PRECIPITATION (IN):    T 24 HR MAX TEMP (F): 8024 HR MIN TEMP (F): 59PEAK WIND SPEED (MPH): 47 PEAK WIND DIR (DEG):330 PEAK WIND TIME (LST):      FASTEST 2MIN SPEED (MPH): 24FASTEST 2MIN DIR (DEG):330 FASTEST 2MIN TIME (LST):     AVERAGE WIND SPEED (MPH): 7.9 24 HR AVG TEMP (F): 70DEPART FROM NORMAL:  3  HEATING DEGREE DAYS:  0 COOLING DEGREE DAYS:  5EQDQ01  00002PRCP24R01     T7AAP092
0510999999137242023060804596+39378-074424SOD  +000355N  V030999999999999999999999999999+99999+99999999999ADDAA124000095AX1086246KA1240M+02335KA2240N+01445OE11240102829099995OE22240053623099995OE33240026899999995REMSOD37624 HR PRECIPITATION (IN): 0.00 WEATHER(CODE):8  24 HR MAX TEMP (F): 7424 HR MIN TEMP (F): 58PEAK WIND SPEED (MPH): 23 PEAK WIND DIR (DEG):290 PEAK WIND TIME (LST):      FASTEST 2MIN SPEED (MPH): 12FASTEST 2MIN DIR (DEG):230 FASTEST 2MIN TIME (LST):     AVERAGE WIND SPEED (MPH): 6.0 24 HR AVG TEMP (F): 66DEPART FROM NORMAL: -1  HEATING DEGREE DAYS:  0 COOLING DEGREE DAYS:  1EQDR01     87AXW093
0510999999137242023060904596+39378-074424SOD  +000355N  V030999999999999999999999999999+99999+99999999999ADDAA124000095AX1086246KA1240M+02065KA2240N+01445OE11240076012099995OE22240053612099995OE33240021099999995REMSOD37624 HR PRECIPITATION (IN): 0.00 WEATHER(CODE):8  24 HR MAX TEMP (F): 6924 HR MIN TEMP (F): 58PEAK WIND SPEED (MPH): 17 PEAK WIND DIR (DEG):120 PEAK WIND TIME (LST):      FASTEST 2MIN SPEED (MPH): 12FASTEST 2MIN DIR (DEG):120 FASTEST 2MIN TIME (LST):     AVERAGE WIND SPEED (MPH): 4.7 24 HR AVG TEMP (F): 64DEPART FROM NORMAL: -4  HEATING DEGREE DAYS:  1 COOLING DEGREE DAYS:  0EQDR01     87AXW093
0484999999137242023061004596+39378-074424SOD  +000355N  V030999999999999999999999999999+99999+99999999999ADDAA12400039AKA1240M+02285KA2240N+01445OE11240093928099995OE22240062627099995OE33240026899999995REMSOD35924 HR PRECIPITATION (IN): 0.01 24 HR MAX TEMP (F): 7324 HR MIN TEMP (F): 58PEAK WIND SPEED (MPH): 21 PEAK WIND DIR (DEG):280 PEAK WIND TIME (LST):      FASTEST 2MIN SPEED (MPH): 14FASTEST 2MIN DIR (DEG):270 FASTEST 2MIN TIME (LST):     AVERAGE WIND SPEED (MPH): 6.0 24 HR AVG TEMP (F): 66DEPART FROM NORMAL: -2  HEATING DEGREE DAYS:  0 COOLING DEGREE DAYS:  1EQDR01  0.017AAP092
0465999999137242023061104596+39378-074424SOD  +000355N  V030999999999999999999999999999+99999+99999999999ADDAA124000095KA1240M+02675KA2240N+01395OE11240098329099995OE22240067124099995OE33240031799999995REMSOD35924 HR PRECIPITATION (IN): 0.00 24 HR MAX TEMP (F): 8024 HR MIN TEMP (F): 57PEAK WIND SPEED (MPH): 22 PEAK WIND DIR (DEG):290 PEAK WIND TIME (LST):      FASTEST 2MIN SPEED (MPH): 15FASTEST 2MIN DIR (DEG):240 FASTEST 2MIN TIME (LST):     AVERAGE WIND SPEED (MPH): 7.1 24 HR AVG TEMP (F): 69DEPART FROM NORMAL:  1  HEATING DEGREE DAYS:  0 COOLING DEGREE DAYS:  4
0465999999137242023061204596+39378-074424SOD  +000355N  V030999999999999999999999999999+99999+99999999999ADDAA124000095KA1240M+02285KA2240N+01895OE11240125223099995OE22240071523099995OE33240045699999995REMSOD35924 HR PRECIPITATION (IN): 0.00 24 HR MAX TEMP (F): 7324 HR MIN TEMP (F): 66PEAK WIND SPEED (MPH): 28 PEAK WIND DIR (DEG):230 PEAK WIND TIME (LST):      FASTEST 2MIN SPEED (MPH): 16FASTEST 2MIN DIR (DEG):230 FASTEST 2MIN TIME (LST):     AVERAGE WIND SPEED (MPH):10.2 24 HR AVG TEMP (F): 70DEPART FROM NORMAL:  1  HEATING DEGREE DAYS:  0 COOLING DEGREE DAYS:  5
0484999999137242023061304596+39378-074424SOD  +000355N  V030999999999999999999999999999+99999+99999999999ADDAA12400589AKA1240M+02175KA2240N+01895OE11240143119099995OE22240076017099995OE33240053699999995REMSOD35924 HR PRECIPITATION (IN): 0.23 24 HR MAX TEMP (F): 7124 HR MIN TEMP (F): 66PEAK WIND SPEED (MPH): 32 PEAK WIND DIR (DEG):190 PEAK WIND TIME (LST):      FASTEST 2MIN SPEED (MPH): 17FASTEST 2MIN DIR (DEG):170 FASTEST 2MIN TIME (LST):     AVERAGE WIND SPEED (MPH):12.0 24 HR AVG TEMP (F): 69DEPART FROM NORMAL:  0  HEATING DEGREE DAYS:  0 COOLING DEGREE DAYS:  4EQDR01  0.237AAP092
0465999999137242023061404596+39378-074424SOD  +000355N  V030999999999999999999999999999+99999+99999999999ADDAA124000095KA1240M+02445KA2240N+01675OE11240134130099995OE22240076025099995OE33240044799999995REMSOD35924 HR PRECIPITATION (IN): 0.00 24 HR MAX TEMP (F): 7624 HR MIN TEMP (F): 62PEAK WIND SPEED (MPH): 30 PEAK WIND DIR (DEG):300 PEAK WIND TIME (LST):      FASTEST 2MIN SPEED (MPH): 17FASTEST 2MIN DIR (DEG):250 FASTEST 2MIN TIME (LST):     AVERAGE WIND SPEED (MPH):10.0 24 HR AVG TEMP (F): 69DEPART FROM NORMAL:  0  HEATING DEGREE DAYS:  0 COOLING DEGREE DAYS:  4
0500999999137242023061504596+39378-074424SOD  +000355N  V030999999999999999999999999999+99999+99999999999ADDAA12400009AKA1240M+02505KA2240N+01895OE11240165423099995OE22240098323099995OE33240046599999995REMSOD35924 HR PRECIPITATION (IN):    T 24 HR MAX TEMP (F): 7724 HR MIN TEMP (F): 66PEAK WIND SPEED (MPH): 37 PEAK WIND DIR (DEG):230 PEAK WIND TIME (LST):      FASTEST 2MIN SPEED (MPH): 22FASTEST 2MIN DIR (DEG):230 FASTEST 2MIN TIME (LST):     AVERAGE WIND SPEED (MPH):10.4 24 HR AVG TEMP (F): 72DEPART FROM NORMAL:  2  HEATING DEGREE DAYS:  0 COOLING DEGREE DAYS:  7EQDQ01  00002PRCP24R01     T7AAP092
0465999999137242023061604596+39378-074424SOD  +000355N  V030999999999999999999999999999+99999+99999999999ADDAA124000095KA1240M+02615KA2240N+01615OE11240107399999995OE22240053699999995OE33240032299999995REMSOD35924 HR PRECIPITATION (IN): 0.00 24 HR MAX TEMP (F): 7924 HR MIN TEMP (F): 61PEAK WIND SPEED (MPH): 24 PEAK WIND DIR (DEG):  0 PEAK WIND TIME (LST):      FASTEST 2MIN SPEED (MPH): 12FASTEST 2MIN DIR (DEG):  0 FASTEST 2MIN TIME (LST):     AVERAGE WIND SPEED (MPH): 7.2 24 HR AVG TEMP (F): 70DEPART FROM NORMAL:  0  HEATING DEGREE DAYS:  0 COOLING DEGREE DAYS:  5
0484999999137242023061704596+39378-074424SOD  +000355N  V030999999999999999999999999999+99999+99999999999ADDAA12402189AKA1240M+02115KA2240N+01725OE11240120715099995OE22240071515099995OE33240026899999995REMSOD35924 HR PRECIPITATION (IN): 0.86 24 HR MAX TEMP (F): 7024 HR MIN TEMP (F): 63PEAK WIND SPEED (MPH): 27 PEAK WIND DIR (DEG):150 PEAK WIND TIME (LST):      FASTEST 2MIN SPEED (MPH): 16FASTEST 2MIN DIR (DEG):150 FASTEST 2MIN TIME (LST):     AVERAGE WIND SPEED (MPH): 6.0 24 HR AVG TEMP (F): 67DEPART FROM NORMAL: -3  HEATING DEGREE DAYS:  0 COOLING DEGREE DAYS:  2EQDR01  0.867AAP092
0465999999137242023061804596+39378-074424SOD  +000355N  V030999999999999999999999999999+99999+99999999999ADDAA124000095KA1240M+02565KA2240N+01615OE11240116233099995OE22240062633099995OE33240030099999995REMSOD35924 HR PRECIPITATION (IN): 0.00 24 HR MAX TEMP (F): 7824 HR MIN TEMP (F): 61PEAK WIND SPEED (MPH): 26 PEAK WIND DIR (DEG):330 PEAK WIND TIME (LST):      FASTEST 2MIN SPEED (MPH): 14FASTEST 2MIN DIR (DEG):330 FASTEST 2MIN TIME (LST):     AVERAGE WIND SPEED (MPH): 6.7 24 HR AVG TEMP (F): 70DEPART FROM NORMAL: -1  HEATING DEGREE DAYS:  0 COOLING DEGREE DAYS:  5
