0500999999137242025020204596+39378-074424SOD  +000355N  V020999999999999999999999999999+99999+99999999999ADDAA124006696KA1240M+01116KA2240N-00275OE11240169933099995OE22240107333099995OE33240046999999995REMSOD35924 HR PRECIPITATION (IN): 0.26 24 HR MAX TEMP (F): 5224 HR MIN TEMP (F): 27PEAK WIND SPEED (MPH): 38 PEAK WIND DIR (DEG):330 PEAK WIND TIME (LST):      FASTEST 2MIN SPEED (MPH): 24FASTEST 2MIN DIR (DEG):330 FASTEST 2MIN TIME (LST):     AVERAGE WIND SPEED (MPH):10.5 24 HR AVG TEMP (F): 40DEPART FROM NORMAL:  5  HEATING DEGREE DAYS: 25 COOLING DEGREE DAYS:  0EQDR01  0.267AAP092R02    527KAX008
0465999999137242025020304596+39378-074424SOD  +000355N  V020999999999999999999999999999+99999+99999999999ADDAA124000095KA1240M+00445KA2240N-00435OE11240098310099995OE22240076010099995OE33240040799999995REMSOD35924 HR PRECIPITATION (IN): 0.00 24 HR MAX TEMP (F): 4024 HR MIN TEMP (F): 24PEAK WIND SPEED (MPH): 22 PEAK WIND DIR (DEG):100 PEAK WIND TIME (LST):      FASTEST 2MIN SPEED (MPH): 17FASTEST 2MIN DIR (DEG):100 FASTEST 2MIN TIME (LST):     AVERAGE WIND SPEED (MPH): 9.1 24 HR AVG TEMP (F): 32DEPART FROM NORMAL: -4  HEATING DEGREE DAYS: 33 COOLING DEGREE DAYS:  0
0465999999137242025020404596+39378-074424SOD  +000355N  V020999999999999999999999999999+99999+99999999999ADDAA124000095KA1240M+00725KA2240N+00225OE11240116222099995OE22240071523099995OE33240035399999995REMSOD35924 HR PRECIPITATION (IN): 0.00 24 HR MAX TEMP (F): 4524 HR MIN TEMP (F): 36PEAK WIND SPEED (MPH): 26 PEAK WIND DIR (DEG):220 PEAK WIND TIME (LST):      FASTEST 2MIN SPEED (MPH): 16FASTEST 2MIN DIR (DEG):230 FASTEST 2MIN TIME (LST):     AVERAGE WIND SPEED (MPH): 7.9 24 HR AVG TEMP (F): 41DEPART FROM NORMAL:  5  HEATING DEGREE DAYS: 24 COOLING DEGREE DAYS:  0
0465999999137242025020504596+39378-074424SOD  +000355N  V020999999999999999999999999999+99999+99999999999ADDAA124000095KA1240M+01115KA2240N+00175OE11240165433099995OE22240098333099995OE33240038999999995REMSOD35924 HR PRECIPITATION (IN): 0.00 24 HR MAX TEMP (F): 5224 HR MIN TEMP (F): 35PEAK WIND SPEED (MPH): 37 PEAK WIND DIR (DEG):330 PEAK WIND TIME (LST):      FASTEST 2MIN SPEED (MPH): 22FASTEST 2MIN DIR (DEG):330 FASTEST 2MIN TIME (LST):     AVERAGE WIND SPEED (MPH): 8.7 24 HR AVG TEMP (F): 44DEPART FROM NORMAL:  8  HEATING DEGREE DAYS: 21 COOLING DEGREE DAYS:  0
0484999999137242025020604596+39378-074424SOD  +000355N  V020999999999999999999999999999+99999+99999999999ADDAA124000026KA1240M+00175KA2240N+00005OE11240093934099995OE22240053612099995OE33240025099999995REMSOD35924 HR PRECIPITATION (IN):    T 24 HR MAX TEMP (F): 3524 HR MIN TEMP (F): 32PEAK WIND SPEED (MPH): 21 PEAK WIND DIR (DEG):340 PEAK WIND TIME (LST):      FASTEST 2MIN SPEED (MPH): 12FASTEST 2MIN DIR (DEG):120 FASTEST 2MIN TIME (LST):     AVERAGE WIND SPEED (MPH): 5.6 24 HR AVG TEMP (F): 34DEPART FROM NORMAL: -2  HEATING DEGREE DAYS: 31 COOLING DEGREE DAYS:  0EQDR01     T7AAP092
0484999999137242025020704596+39378-074424SOD  +000355N  V020999999999999999999999999999+99999+99999999999ADDAA124008496KA1240M+00615KA2240N+00065OE11240125227099995OE22240076013099995OE33240044799999995REMSOD35924 HR PRECIPITATION (IN): 0.33 24 HR MAX TEMP (F): 4324 HR MIN TEMP (F): 33PEAK WIND SPEED (MPH): 28 PEAK WIND DIR (DEG):270 PEAK WIND TIME (LST):      FASTEST 2MIN SPEED (MPH): 17FASTEST 2MIN DIR (DEG):130 FASTEST 2MIN TIME (LST):     AVERAGE WIND SPEED (MPH):10.0 24 HR AVG TEMP (F): 38DEPART FROM NORMAL:  2  HEATING DEGREE DAYS: 27 COOLING DEGREE DAYS:  0EQDR01  0.337AAP092
0465999999137242025020804596+39378-074424SOD  +000355N  V020999999999999999999999999999+99999+99999999999ADDAA124000095KA1240M+00725KA2240N+00005OE11240169930099995OE22240071530099995OE33240038999999995REMSOD35924 HR PRECIPITATION (IN): 0.00 24 HR MAX TEMP (F): 4524 HR MIN TEMP (F): 32PEAK WIND SPEED (MPH): 38 PEAK WIND DIR (DEG):300 PEAK WIND TIME (LST):      FASTEST 2MIN SPEED (MPH): 16FASTEST 2MIN DIR (DEG):300 FASTEST 2MIN TIME (LST):     AVERAGE WIND SPEED (MPH): 8.7 24 HR AVG TEMP (F): 39DEPART FROM NORMAL:  3  HEATING DEGREE DAYS: 26 COOLING DEGREE DAYS:  0
0526999999137242025020904596+39378-074424SOD  +000355N  V020999999999999999999999999999+99999+99999999999ADDAA124005196AX1046246KA1240M+00285KA2240N-00165OE11240084915099995OE22240058115099995OE33240024199999995REMSOD37624 HR PRECIPITATION (IN): 0.20 WEATHER(CODE):4  24 HR MAX TEMP (F): 3724 HR MIN TEMP (F): 29PEAK WIND SPEED (MPH): 19 PEAK WIND DIR (DEG):150 PEAK WIND TIME (LST):      FASTEST 2MIN SPEED (MPH): 13FASTEST 2MIN DIR (DEG):150 FASTEST 2MIN TIME (LST):     AVERAGE WIND SPEED (MPH): 5.4 24 HR AVG TEMP (F): 33DEPART FROM NORMAL: -3  HEATING DEGREE DAYS: 32 COOLING DEGREE DAYS:  0EQDR01  0.207AAP092R02     47AXW092
0484999999137242025021004596+39378-074424SOD  +000355N  V020999999999999999999999999999+99999+99999999999ADDAA124000596KA1240M+00445KA2240N+00065OE11240169933099995OE22240089433099995OE33240038099999995REMSOD35924 HR PRECIPITATION (IN): 0.02 24 HR MAX TEMP (F): 4024 HR MIN TEMP (F): 33PEAK WIND SPEED (MPH): 38 PEAK WIND DIR (DEG):330 PEAK WIND TIME (LST):      FASTEST 2MIN SPEED (MPH): 20FASTEST 2MIN DIR (DEG):330 FASTEST 2MIN TIME (LST):     AVERAGE WIND SPEED (MPH): 8.5 24 HR AVG TEMP (F): 37DEPART FROM NORMAL:  1  HEATING DEGREE DAYS: 28 COOLING DEGREE DAYS:  0EQDR01  0.027AAP092
0465999999137242025021104596+39378-074424SOD  +000355N  V020999999999999999999999999999+99999+99999999999ADDAA124000095KA1240M+00505KA2240N+00005OE11240084928099995OE22240044733099995OE33240021999999995REMSOD35924 HR PRECIPITATION (IN): 0.00 24 HR MAX TEMP (F): 4124 HR MIN TEMP (F): 32PEAK WIND SPEED (MPH): 19 PEAK WIND DIR (DEG):280 PEAK WIND TIME (LST):      FASTEST 2MIN SPEED (MPH): 10FASTEST 2MIN DIR (DEG):330 FASTEST 2MIN TIME (LST):     AVERAGE WIND SPEED (MPH): 4.9 24 HR AVG TEMP (F): 37DEPART FROM NORMAL:  1  HEATING DEGREE DAYS: 28 COOLING DEGREE DAYS:  0
0484999999137242025021204596+39378-074424SOD  +000355N  V020999999999999999999999999999+99999+99999999999ADDAA124011796KA1240M+00335KA2240N-00165OE11240080505099995OE22240044705099995OE33240015299999995REMSOD35924 HR PRECIPITATION (IN): 0.46 24 HR MAX TEMP (F): 3824 HR MIN TEMP (F): 29PEAK WIND SPEED (MPH): 18 PEAK WIND DIR (DEG): 50 PEAK WIND TIME (LST):      FASTEST 2MIN SPEED (MPH): 10FASTEST 2MIN DIR (DEG): 50 FASTEST 2MIN TIME (LST):     AVERAGE WIND SPEED (MPH): 3.4 24 HR AVG TEMP (F): 34DEPART FROM NORMAL: -3  HEATING DEGREE DAYS: 31 COOLING DEGREE DAYS:  0EQDR01  0.467AAP092
0484999999137242025021304596+39378-074424SOD  +000355N  V020999999999999999999999999999+99999+99999999999ADDAA124006496KA1240M+00445KA2240N-00055OE11240102808099995OE22240076008099995OE33240049699999995REMSOD35924 HR PRECIPITATION (IN): 0.25 24 HR MAX TEMP (F): 4024 HR MIN TEMP (F): 31PEAK WIND SPEED (MPH): 23 PEAK WIND DIR (DEG): 80 PEAK WIND TIME (LST):      FASTEST 2MIN SPEED (MPH): 17FASTEST 2MIN DIR (DEG): 80 FASTEST 2MIN TIME (LST):     AVERAGE WIND SPEED (MPH):11.1 24 HR AVG TEMP (F): 36DEPART FROM NORMAL: -1  HEATING DEGREE DAYS: 29 COOLING DEGREE DAYS:  0EQDR01  0.257AAP092
0484999999137242025021404596+39378-074424SOD  +000355N  V020999999999999999999999999999+99999+99999999999ADDAA124006696KA1240M+00725KA2240N+00225OE11240165432099995OE22240080527099995OE33240041199999995REMSOD35924 HR PRECIPITATION (IN): 0.26 24 HR MAX TEMP (F): 4524 HR MIN TEMP (F): 36PEAK WIND SPEED (MPH): 37 PEAK WIND DIR (DEG):320 PEAK WIND TIME (LST):      FASTEST 2MIN SPEED (MPH): 18FASTEST 2MIN DIR (DEG):270 FASTEST 2MIN TIME (LST):     AVERAGE WIND SPEED (MPH): 9.2 24 HR AVG TEMP (F): 41DEPART FROM NORMAL:  4  HEATING DEGREE DAYS: 24 COOLING DEGREE DAYS:  0EQDR01  0.267AAP092
0465999999137242025021504596+39378-074424SOD  +000355N  V020999999999999999999999999999+99999+99999999999ADDAA124000095KA1240M+00335KA2240N-00055OE11240111831099995OE22240058133099995OE33240029599999995REMSOD35924 HR PRECIPITATION (IN): 0.00 24 HR MAX TEMP (F): 3824 HR MIN TEMP (F): 31PEAK WIND SPEED (MPH): 25 PEAK WIND DIR (DEG):310 PEAK WIND TIME (LST):      FASTEST 2MIN SPEED (MPH): 13FASTEST 2MIN DIR (DEG):330 FASTEST 2MIN TIME (LST):     AVERAGE WIND SPEED (MPH): 6.6 24 HR AVG TEMP (F): 35DEPART FROM NORMAL: -2  HEATING DEGREE DAYS: 30 COOLING DEGREE DAYS:  0
0484999999137242025021604596+39378-074424SOD  +000355N  V020999999999999999999999999999+99999+99999999999ADDAA124004396KA1240M+00785KA2240N-00105OE11240120722099995OE22240071515099995OE33240038099999995REMSOD35924 HR PRECIPITATION (IN): 0.17 24 HR MAX TEMP (F): 4624 HR MIN TEMP (F): 30PEAK WIND SPEED (MPH): 27 PEAK WIND DIR (DEG):220 PEAK WIND TIME (LST):      FASTEST 2MIN SPEED (MPH): 16FASTEST 2MIN DIR (DEG):150 FASTEST 2MIN TIME (LST):     AVERAGE WIND SPEED (MPH): 8.5 24 HR AVG TEMP (F): 38DEPART FROM NORMAL:  1  HEATING DEGREE DAYS: 27 COOLING DEGREE DAYS:  0EQDR01  0.177AAP092
0484999999137242025021704596+39378-074424SOD  +000355N  V020999999999999999999999999999+99999+99999999999ADDAA124006196KA1240M+01335KA2240N+00445OE11240259329099995OE22240147529099995OE33240072999999995REMSOD35924 HR PRECIPITATION (IN): 0.24 24 HR MAX TEMP (F): 5624 HR MIN TEMP (F): 40PEAK WIND SPEED (MPH): 58 PEAK WIND DIR (DEG):290 PEAK WIND TIME (LST):      FASTEST 2MIN SPEED (MPH): 33FASTEST 2MIN DIR (DEG):290 FASTEST 2MIN TIME (LST):     AVERAGE WIND SPEED (MPH):16.3 24 HR AVG TEMP (F): 48DEPART FROM NORMAL: 11  HEATING DEGREE DAYS: 17 COOLING DEGREE DAYS:  0EQDR01  0.247AAP092
0465999999137242025021804596+39378-074424SOD  +000355N  V020999999999999999999999999999+99999+99999999999ADDAA124000095KA1240M+00445KA2240N-00055OE11240223529099995OE22240102829099995OE33240073899999995REMSOD35924 HR PRECIPITATION (IN): 0.00 24 HR MAX TEMP (F): 4024 HR MIN TEMP (F): 31PEAK WIND SPEED (MPH): 50 PEAK WIND DIR (DEG):290 PEAK WIND TIME (LST):      FASTEST 2MIN SPEED (MPH): 23FASTEST 2MIN DIR (DEG):290 FASTEST 2MIN TIME (LST):     AVERAGE WIND SPEED (MPH):16.5 24 HR AVG TEMP (F): 36DEPART FROM NORMAL: -2  HEATING DEGREE DAYS: 29 COOLING DEGREE DAYS:  0
0465999999137242025021904596+39378-074424SOD  +000355N  V020999999999999999999999999999+99999+99999999999ADDAA124000095KA1240M-00055KA2240N-00555OE11240156529099995OE22240080529099995OE33240042999999995REMSOD35924 HR PRECIPITATION (IN): 0.00 24 HR MAX TEMP (F): 3124 HR MIN TEMP (F): 22PEAK WIND SPEED (MPH): 35 PEAK WIND DIR (DEG):290 PEAK WIND TIME (LST):      FASTEST 2MIN SPEED (MPH): 18FASTEST 2MIN DIR (DEG):290 FASTEST 2MIN TIME (LST):     AVERAGE WIND SPEED (MPH): 9.6 24 HR AVG TEMP (F): 27DEPART FROM NORMAL:-11  HEATING DEGREE DAYS: 38 COOLING DEGREE DAYS:  0
0465999999137242025022004596+39378-074424SOD  +000355N  V020999999999999999999999999999+99999+99999999999ADDAA124000095KA1240M-00275KA2240N-00825OE11240102833099995OE22240058133099995OE33240030899999995REMSOD35924 HR PRECIPITATION (IN): 0.00 24 HR MAX TEMP (F): 2724 HR MIN TEMP (F): 17PEAK WIND SPEED (MPH): 23 PEAK WIND DIR (DEG):330 PEAK WIND TIME (LST):      FASTEST 2MIN SPEED (MPH): 13FASTEST 2MIN DIR (DEG):330 FASTEST 2MIN TIME (LST):     AVERAGE WIND SPEED (MPH): 6.9 24 HR AVG TEMP (F): 22DEPART FROM NORMAL:-16  HEATING DEGREE DAYS: 43 COOLING DEGREE DAYS:  0
0484999999137242025022104596+39378-074424SOD  +000355N  V020999999999999999999999999999+99999+99999999999ADDAA124000026KA1240M-00215KA2240N-00665OE11240138633099995OE22240062632099995OE33240037199999995REMSOD35924 HR PRECIPITATION (IN):    T 24 HR MAX TEMP (F): 2824 HR MIN TEMP (F): 20PEAK WIND SPEED (MPH): 31 PEAK WIND DIR (DEG):330 PEAK WIND TIME (LST):      FASTEST 2MIN SPEED (MPH): 14FASTEST 2MIN DIR (DEG):320 FASTEST 2MIN TIME (LST):     AVERAGE WIND SPEED (MPH): 8.3 24 HR AVG TEMP (F): 24DEPART FROM NORMAL:-14  HEATING DEGREE DAYS: 41 COOLING DEGREE DAYS:  0EQDR01     T7AAP092
0465999999137242025022204596+39378-074424SOD  +000355N  V020999999999999999999999999999+99999+99999999999ADDAA124000095KA1240M+00225KA2240N-00435OE11240183333099995OE22240093933099995OE33240048799999995REMSOD35924 HR PRECIPITATION (IN): 0.00 24 HR MAX TEMP (F): 3624 HR MIN TEMP (F): 24PEAK WIND SPEED (MPH): 41 PEAK WIND DIR (DEG):330 PEAK WIND TIME (LST):      FASTEST 2MIN SPEED (MPH): 21FASTEST 2MIN DIR (DEG):330 FASTEST 2MIN TIME (LST):     AVERAGE WIND SPEED (MPH):10.9 24 HR AVG TEMP (F): 30DEPART FROM NORMAL: -8  HEATING DEGREE DAYS: 35 COOLING DEGREE DAYS:  0
0465999999137242025022304596+39378-074424SOD  +000355N  V020999999999999999999999999999+99999+99999999999ADDAA124000095KA1240M+00285KA2240N-00495OE11240102823099995OE22240067122099995OE33240036299999995REMSOD35924 HR PRECIPITATION (IN): 0.00 24 HR MAX TEMP (F): 3724 HR MIN TEMP (F): 23PEAK WIND SPEED (MPH): 23 PEAK WIND DIR (DEG):230 PEAK WIND TIME (LST):      FASTEST 2MIN SPEED (MPH): 15FASTEST 2MIN DIR (DEG):220 FASTEST 2MIN TIME (LST):     AVERAGE WIND SPEED (MPH): 8.1 24 HR AVG TEMP (F): 30DEPART FROM NORMAL: -8  HEATING DEGREE DAYS: 35 COOLING DEGREE DAYS:  0
0465999999137242025022404596+39378-074424SOD  +000355N  V020999999999999999999999999999+99999+99999999999ADDAA124000095KA1240M+00835KA2240N-00055OE11240098330099995OE22240053625099995OE33240034099999995REMSOD35924 HR PRECIPITATION (IN): 0.00 24 HR MAX TEMP (F): 4724 HR MIN TEMP (F): 31PEAK WIND SPEED (MPH): 22 PEAK WIND DIR (DEG):300 PEAK WIND TIME (LST):      FASTEST 2MIN SPEED (MPH): 12FASTEST 2MIN DIR (DEG):250 FASTEST 2MIN TIME (LST):     AVERAGE WIND SPEED (MPH): 7.6 24 HR AVG TEMP (F): 39DEPART FROM NORMAL:  1  HEATING DEGREE DAYS: 26 COOLING DEGREE DAYS:  0
0465999999137242025022504596+39378-074424SOD  +000355N  V020999999999999999999999999999+99999+99999999999ADDAA124000095KA1240M+00675KA2240N+00115OE11240093921099995OE22240053618099995OE33240029599999995REMSOD35924 HR PRECIPITATION (IN): 0.00 24 HR MAX TEMP (F): 4424 HR MIN TEMP (F): 34PEAK WIND SPEED (MPH): 21 PEAK WIND DIR (DEG):210 PEAK WIND TIME (LST):      FASTEST 2MIN SPEED (MPH): 12FASTEST 2MIN DIR (DEG):180 FASTEST 2MIN TIME (LST):     AVERAGE WIND SPEED (MPH): 6.6 24 HR AVG TEMP (F): 39DEPART FROM NORMAL:  0  HEATING DEGREE DAYS: 26 COOLING DEGREE DAYS:  0
0465999999137242025022604596+39378-074424SOD  +000355N  V020999999999999999999999999999+99999+99999999999ADDAA124000095KA1240M+01065KA2240N+00565OE11240107323099995OE22240071523099995OE33240042999999995REMSOD35924 HR PRECIPITATION (IN): 0.00 24 HR MAX TEMP (F): 5124 HR MIN TEMP (F): 42PEAK WIND SPEED (MPH): 24 PEAK WIND DIR (DEG):230 PEAK WIND TIME (LST):      FASTEST 2MIN SPEED (MPH): 16FASTEST 2MIN DIR (DEG):230 FASTEST 2MIN TIME (LST):     AVERAGE WIND SPEED (MPH): 9.6 24 HR AVG TEMP (F): 47DEPART FROM NORMAL:  8  HEATING DEGREE DAYS: 18 COOLING DEGREE DAYS:  0
0465999999137242025022704596+39378-074424SOD  +000355N  V020999999999999999999999999999+99999+99999999999ADDAA124000095KA1240M+01335KA2240N+00445OE11240120722099995OE22240076023099995OE33240034499999995REMSOD35924 HR PRECIPITATION (IN): 0.00 24 HR MAX TEMP (F): 5624 HR MIN TEMP (F): 40PEAK WIND SPEED (MPH): 27 PEAK WIND DIR (DEG):220 PEAK WIND TIME (LST):      FASTEST 2MIN SPEED (MPH): 17FASTEST 2MIN DIR (DEG):230 FASTEST 2MIN TIME (LST):     AVERAGE WIND SPEED (MPH): 7.7 24 HR AVG TEMP (F): 48DEPART FROM NORMAL:  9  HEATING DEGREE DAYS: 17 COOLING DEGREE DAYS:  0
0484999999137242025022804596+39378-074424SOD  +000355N  V020999999999999999999999999999+99999+99999999999ADDAA124001096KA1240M+01225KA2240N+00675OE11240134118099995OE22240084918099995OE33240041199999995REMSOD35924 HR PRECIPITATION (IN): 0.04 24 HR MAX TEMP (F): 5424 HR MIN TEMP (F): 44PEAK WIND SPEED (MPH): 30 PEAK WIND DIR (DEG):180 PEAK WIND TIME (LST):      FASTEST 2MIN SPEED (MPH): 19FASTEST 2MIN DIR (DEG):180 FASTEST 2MIN TIME (LST):     AVERAGE WIND SPEED (MPH): 9.2 24 HR AVG TEMP (F): 49DEPART FROM NORMAL: 10  HEATING DEGREE DAYS: 16 COOLING DEGREE DAYS:  0EQDR01  0.047AAP092
0465999999137242025030104596+39378-074424SOD  +000355N  V020999999999999999999999999999+99999+99999999999ADDAA124000095KA1240M+01065KA2240N+00505OE11240125222099995OE22240076022099995OE33240040799999995REMSOD35924 HR PRECIPITATION (IN): 0.00 24 HR MAX TEMP (F): 5124 HR MIN TEMP (F): 41PEAK WIND SPEED (MPH): 28 PEAK WIND DIR (DEG):220 PEAK WIND TIME (LST):      FASTEST 2MIN SPEED (MPH): 17FASTEST 2MIN DIR (DEG):220 FASTEST 2MIN TIME (LST):     AVERAGE WIND SPEED (MPH): 9.1 24 HR AVG TEMP (F): 46DEPART FROM NORMAL:  7  HEATING DEGREE DAYS: 19 COOLING DEGREE DAYS:  0
0465999999137242025030204596+39378-074424SOD  +000355N  V020999999999999999999999999999+99999+99999999999ADDAA124000095KA1240M+01785KA2240N+00065OE11240183333099995OE22240098333099995OE33240059599999995REMSOD35924 HR PRECIPITATION (IN): 0.00 24 HR MAX TEMP (F): 6424 HR MIN TEMP (F): 33PEAK WIND SPEED (MPH): 41 PEAK WIND DIR (DEG):330 PEAK WIND TIME (LST):      FASTEST 2MIN SPEED (MPH): 22FASTEST 2MIN DIR (DEG):330 FASTEST 2MIN TIME (LST):     AVERAGE WIND SPEED (MPH):13.3 24 HR AVG TEMP (F): 49DEPART FROM NORMAL:  9  HEATING DEGREE DAYS: 16 COOLING DEGREE DAYS:  0
0465999999137242025030304596+39378-074424SOD  +000355N  V020999999999999999999999999999+99999+99999999999ADDAA124000095KA1240M+00175KA2240N-00495OE11240143133099995OE22240067133099995OE33240042599999995REMSOD35924 HR PRECIPITATION (IN): 0.00 24 HR MAX TEMP (F): 3524 HR MIN TEMP (F): 23PEAK WIND SPEED (MPH): 32 PEAK WIND DIR (DEG):330 PEAK WIND TIME (LST):      FASTEST 2MIN SPEED (MPH): 15FASTEST 2MIN DIR (DEG):330 FASTEST 2MIN TIME (LST):     AVERAGE WIND SPEED (MPH): 9.5 24 HR AVG TEMP (F): 29DEPART FROM NORMAL:-11  HEATING DEGREE DAYS: 36 COOLING DEGREE DAYS:  0
0465999999137242025030404596+39378-074424SOD  +000355N  V020999999999999999999999999999+99999+99999999999ADDAA124000095KA1240M+00395KA2240N-00385OE11240102821099995OE22240062618099995OE33240029599999995REMSOD35924 HR PRECIPITATION (IN): 0.00 24 HR MAX TEMP (F): 3924 HR MIN TEMP (F): 25PEAK WIND SPEED (MPH): 23 PEAK WIND DIR (DEG):210 PEAK WIND TIME (LST):      FASTEST 2MIN SPEED (MPH): 14FASTEST 2MIN DIR (DEG):180 FASTEST 2MIN TIME (LST):     AVERAGE WIND SPEED (MPH): 6.6 24 HR AVG TEMP (F): 32DEPART FROM NORMAL: -8  HEATING DEGREE DAYS: 33 COOLING DEGREE DAYS:  0
0465999999137242025030504596+39378-074424SOD  +000355N  V020999999999999999999999999999+99999+99999999999ADDAA124000095KA1240M+00835KA2240N+00285OE11240143123099995OE22240084923099995OE33240051099999995REMSOD35924 HR PRECIPITATION (IN): 0.00 24 HR MAX TEMP (F): 4724 HR MIN TEMP (F): 37PEAK WIND SPEED (MPH): 32 PEAK WIND DIR (DEG):230 PEAK WIND TIME (LST):      FASTEST 2MIN SPEED (MPH): 19FASTEST 2MIN DIR (DEG):230 FASTEST 2MIN TIME (LST):     AVERAGE WIND SPEED (MPH):11.4 24 HR AVG TEMP (F): 42DEPART FROM NORMAL:  2  HEATING DEGREE DAYS: 23 COOLING DEGREE DAYS:  0
0484999999137242025030604596+39378-074424SOD  +000355N  V020999999999999999999999999999+99999+99999999999ADDAA124043996KA1240M+01285KA2240N+00785OE11240210117099995OE22240129617099995OE33240072099999995REMSOD35924 HR PRECIPITATION (IN): 1.73 24 HR MAX TEMP (F): 5524 HR MIN TEMP (F): 46PEAK WIND SPEED (MPH): 47 PEAK WIND DIR (DEG):170 PEAK WIND TIME (LST):      FASTEST 2MIN SPEED (MPH): 29FASTEST 2MIN DIR (DEG):170 FASTEST 2MIN TIME (LST):     AVERAGE WIND SPEED (MPH):16.1 24 HR AVG TEMP (F): 51DEPART FROM NORMAL: 11  HEATING DEGREE DAYS: 14 COOLING DEGREE DAYS:  0EQDR01  1.737AAP092
0465999999137242025030704596+39378-074424SOD  +000355N  V020999999999999999999999999999+99999+99999999999ADDAA124000095KA1240M+01005KA2240N+00285OE11240192233099995OE22240080529099995OE33240049299999995REMSOD35924 HR PRECIPITATION (IN): 0.00 24 HR MAX TEMP (F): 5024 HR MIN TEMP (F): 37PEAK WIND SPEED (MPH): 43 PEAK WIND DIR (DEG):330 PEAK WIND TIME (LST):      FASTEST 2MIN SPEED (MPH): 18FASTEST 2MIN DIR (DEG):290 FASTEST 2MIN TIME (LST):     AVERAGE WIND SPEED (MPH):11.0 24 HR AVG TEMP (F): 44DEPART FROM NORMAL:  4  HEATING DEGREE DAYS: 21 COOLING DEGREE DAYS:  0
0465999999137242025030804596+39378-074424SOD  +000355N  V020999999999999999999999999999+99999+99999999999ADDAA124000095KA1240M+00945KA2240N+00175OE11240183329099995OE22240098329099995OE33240058199999995REMSOD35924 HR PRECIPITATION (IN): 0.00 24 HR MAX TEMP (F): 4924 HR MIN TEMP (F): 35PEAK WIND SPEED (MPH): 41 PEAK WIND DIR (DEG):290 PEAK WIND TIME (LST):      FASTEST 2MIN SPEED (MPH): 22FASTEST 2MIN DIR (DEG):290 FASTEST 2MIN TIME (LST):     AVERAGE WIND SPEED (MPH):13.0 24 HR AVG TEMP (F): 42DEPART FROM NORMAL:  1  HEATING DEGREE DAYS: 23 COOLING DEGREE DAYS:  0
0465999999137242025030904596+39378-074424SOD  +000355N  V020999999999999999999999999999+99999+99999999999ADDAA124000095KA1240M+00945KA2240N+00395OE11240143130099995OE22240076029099995OE33240038099999995REMSOD35924 HR PRECIPITATION (IN): 0.00 24 HR MAX TEMP (F): 4924 HR MIN TEMP (F): 39PEAK WIND SPEED (MPH): 32 PEAK WIND DIR (DEG):300 PEAK WIND TIME (LST):      FASTEST 2MIN SPEED (MPH): 17FASTEST 2MIN DIR (DEG):290 FASTEST 2MIN TIME (LST):     AVERAGE WIND SPEED (MPH): 8.5 24 HR AVG TEMP (F): 44DEPART FROM NORMAL:  3  HEATING DEGREE DAYS: 21 COOLING DEGREE DAYS:  0
0465999999137242025031004596+39378-074424SOD  +000355N  V020999999999999999999999999999+99999+99999999999ADDAA124000095KA1240M+01225KA2240N+00005OE11240156528099995OE22240093926099995OE33240048399999995REMSOD35924 HR PRECIPITATION (IN): 0.00 24 HR MAX TEMP (F): 5424 HR MIN TEMP (F): 32PEAK WIND SPEED (MPH): 35 PEAK WIND DIR (DEG):280 PEAK WIND TIME (LST):      FASTEST 2MIN SPEED (MPH): 21FASTEST 2MIN DIR (DEG):260 FASTEST 2MIN TIME (LST):     AVERAGE WIND SPEED (MPH):10.8 24 HR AVG TEMP (F): 43DEPART FROM NORMAL:  2  HEATING DEGREE DAYS: 22 COOLING DEGREE DAYS:  0
0465999999137242025031104596+39378-074424SOD  +000355N  V020999999999999999999999999999+99999+99999999999ADDAA124000095KA1240M+01335KA2240N+00615OE11240098319099995OE22240062619099995OE33240037699999995REMSOD35924 HR PRECIPITATION (IN): 0.00 24 HR MAX TEMP (F): 5624 HR MIN TEMP (F): 43PEAK WIND SPEED (MPH): 22 PEAK WIND DIR (DEG):190 PEAK WIND TIME (LST):      FASTEST 2MIN SPEED (MPH): 14FASTEST 2MIN DIR (DEG):190 FASTEST 2MIN TIME (LST):     AVERAGE WIND SPEED (MPH): 8.4 24 HR AVG TEMP (F): 50DEPART FROM NORMAL:  9  HEATING DEGREE DAYS: 15 COOLING DEGREE DAYS:  0
0465999999137242025031204596+39378-074424SOD  +000355N  V020999999999999999999999999999+99999+99999999999ADDAA124000095KA1240M+01335KA2240N+00505OE11240107323099995OE22240062623099995OE33240024699999995REMSOD35924 HR PRECIPITATION (IN): 0.00 24 HR MAX TEMP (F): 5624 HR MIN TEMP (F): 41PEAK WIND SPEED (MPH): 24 PEAK WIND DIR (DEG):230 PEAK WIND TIME (LST):      FASTEST 2MIN SPEED (MPH): 14FASTEST 2MIN DIR (DEG):230 FASTEST 2MIN TIME (LST):     AVERAGE WIND SPEED (MPH): 5.5 24 HR AVG TEMP (F): 49DEPART FROM NORMAL:  8  HEATING DEGREE DAYS: 16 COOLING DEGREE DAYS:  0
0465999999137242025031304596+39378-074424SOD  +000355N  V020999999999999999999999999999+99999+99999999999ADDAA124000095KA1240M+01005KA2240N+00565OE11240134107099995OE22240071508099995OE33240044799999995REMSOD35924 HR PRECIPITATION (IN): 0.00 24 HR MAX TEMP (F): 5024 HR MIN TEMP (F): 42PEAK WIND SPEED (MPH): 30 PEAK WIND DIR (DEG): 70 PEAK WIND TIME (LST):      FASTEST 2MIN SPEED (MPH): 16FASTEST 2MIN DIR (DEG): 80 FASTEST 2MIN TIME (LST):     AVERAGE WIND SPEED (MPH):10.0 24 HR AVG TEMP (F): 46DEPART FROM NORMAL:  4  HEATING DEGREE DAYS: 19 COOLING DEGREE DAYS:  0
0465999999137242025031404596+39378-074424SOD  +000355N  V020999999999999999999999999999+99999+99999999999ADDAA124000095KA1240M+00675KA2240N+00505OE11240147506099995OE22240089409099995OE33240061299999995REMSOD35924 HR PRECIPITATION (IN): 0.00 24 HR MAX TEMP (F): 4424 HR MIN TEMP (F): 41PEAK WIND SPEED (MPH): 33 PEAK WIND DIR (DEG): 60 PEAK WIND TIME (LST):      FASTEST 2MIN SPEED (MPH): 20FASTEST 2MIN DIR (DEG): 90 FASTEST 2MIN TIME (LST):     AVERAGE WIND SPEED (MPH):13.7 24 HR AVG TEMP (F): 43DEPART FROM NORMAL:  1  HEATING DEGREE DAYS: 22 COOLING DEGREE DAYS:  0
0465999999137242025031504596+39378-074424SOD  +000355N  V020999999999999999999999999999+99999+99999999999ADDAA124000095KA1240M+00615KA2240N+00505OE11240098307099995OE22240067109099995OE33240042099999995REMSOD35924 HR PRECIPITATION (IN): 0.00 24 HR MAX TEMP (F): 4324 HR MIN TEMP (F): 41PEAK WIND SPEED (MPH): 22 PEAK WIND DIR (DEG): 70 PEAK WIND TIME (LST):      FASTEST 2MIN SPEED (MPH): 15FASTEST 2MIN DIR (DEG): 90 FASTEST 2MIN TIME (LST):     AVERAGE WIND SPEED (MPH): 9.4 24 HR AVG TEMP (F): 42DEPART FROM NORMAL:  0  HEATING DEGREE DAYS: 23 COOLING DEGREE DAYS:  0
0465999999137242025031604596+39378-074424SOD  +000355N  V020999999999999999999999999999+99999+99999999999ADDAA124000095KA1240M+00835KA2240N+00445OE11240058122099995OE22240040222099995OE33240021999999995REMSOD35924 HR PRECIPITATION (IN): 0.00 24 HR MAX TEMP (F): 4724 HR MIN TEMP (F): 40PEAK WIND SPEED (MPH): 13 PEAK WIND DIR (DEG):220 PEAK WIND TIME (LST):      FASTEST 2MIN SPEED (MPH):  9FASTEST 2MIN DIR (DEG):220 FASTEST 2MIN TIME (LST):     AVERAGE WIND SPEED (MPH): 4.9 24 HR AVG TEMP (F): 44DEPART FROM NORMAL:  2  HEATING DEGREE DAYS: 21 COOLING DEGREE DAYS:  0
0484999999137242025031704596+39378-074424SOD  +000355N  V020999999999999999999999999999+99999+99999999999ADDAA124029596KA1240M+01505KA2240N+00835OE11240205618099995OE22240116218099995OE33240063599999995REMSOD35924 HR PRECIPITATION (IN): 1.16 24 HR MAX TEMP (F): 5924 HR MIN TEMP (F): 47PEAK WIND SPEED (MPH): 46 PEAK WIND DIR (DEG):180 PEAK WIND TIME (LST):      FASTEST 2MIN SPEED (MPH): 26FASTEST 2MIN DIR (DEG):180 FASTEST 2MIN TIME (LST):     AVERAGE WIND SPEED (MPH):14.2 24 HR AVG TEMP (F): 53DEPART FROM NORMAL: 11  HEATING DEGREE DAYS: 12 COOLING DEGREE DAYS:  0EQDR01  1.167AAP092
0484999999137242025031804596+39378-074424SOD  +000355N  V020999999999999999999999999999+99999+99999999999ADDAA124031296KA1240M+01565KA2240N+00395OE11240165433099995OE22240093933099995OE33240046599999995REMSOD35924 HR PRECIPITATION (IN): 1.23 24 HR MAX TEMP (F): 6024 HR MIN TEMP (F): 39PEAK WIND SPEED (MPH): 37 PEAK WIND DIR (DEG):330 PEAK WIND TIME (LST):      FASTEST 2MIN SPEED (MPH): 21FASTEST 2MIN DIR (DEG):330 FASTEST 2MIN TIME (LST):     AVERAGE WIND SPEED (MPH):10.4 24 HR AVG TEMP (F): 50DEPART FROM NORMAL:  7  HEATING DEGREE DAYS: 15 COOLING DEGREE DAYS:  0EQDR01  1.237AAP092
0465999999137242025031904596+39378-074424SOD  +000355N  V020999999999999999999999999999+99999+99999999999ADDAA124000095KA1240M+01065KA2240N+00065OE11240152035099995OE22240080533099995OE33240037199999995REMSOD35924 HR PRECIPITATION (IN): 0.00 24 HR MAX TEMP (F): 5124 HR MIN TEMP (F): 33PEAK WIND SPEED (MPH): 34 PEAK WIND DIR (DEG):350 PEAK WIND TIME (LST):      FASTEST 2MIN SPEED (MPH): 18FASTEST 2MIN DIR (DEG):330 FASTEST 2MIN TIME (LST):     AVERAGE WIND SPEED (MPH): 8.3 24 HR AVG TEMP (F): 42DEPART FROM NORMAL: -1  HEATING DEGREE DAYS: 23 COOLING DEGREE DAYS:  0
0465999999137242025032004596+39378-074424SOD  +000355N  V020999999999999999999999999999+99999+99999999999ADDAA124000095KA1240M+01115KA2240N+00505OE11240067115099995OE22240044711099995OE33240023799999995REMSOD35924 HR PRECIPITATION (IN): 0.00 24 HR MAX TEMP (F): 5224 HR MIN TEMP (F): 41PEAK WIND SPEED (MPH): 15 PEAK WIND DIR (DEG):150 PEAK WIND TIME (LST):      FASTEST 2MIN SPEED (MPH): 10FASTEST 2MIN DIR (DEG):110 FASTEST 2MIN TIME (LST):     AVERAGE WIND SPEED (MPH): 5.3 24 HR AVG TEMP (F): 47DEPART FROM NORMAL:  4  HEATING DEGREE DAYS: 18 COOLING DEGREE DAYS:  0
0484999999137242025032104596+39378-074424SOD  +000355N  V020999999999999999999999999999+99999+99999999999ADDAA124008996KA1240M+01285KA2240N+00565OE11240178816099995OE22240102816099995OE33240044399999995REMSOD35924 HR PRECIPITATION (IN): 0.35 24 HR MAX TEMP (F): 5524 HR MIN TEMP (F): 42PEAK WIND SPEED (MPH): 40 PEAK WIND DIR (DEG):160 PEAK WIND TIME (LST):      FASTEST 2MIN SPEED (MPH): 23FASTEST 2MIN DIR (DEG):160 FASTEST 2MIN TIME (LST):     AVERAGE WIND SPEED (MPH): 9.9 24 HR AVG TEMP (F): 49DEPART FROM NORMAL:  6  HEATING DEGREE DAYS: 16 COOLING DEGREE DAYS:  0EQDR01  0.357AAP092
0465999999137242025032204596+39378-074424SOD  +000355N  V020999999999999999999999999999+99999+99999999999ADDAA124000095KA1240M+01175KA2240N+00565OE11240178833099995OE22240093933099995OE33240053299999995REMSOD35924 HR PRECIPITATION (IN): 0.00 24 HR MAX TEMP (F): 5324 HR MIN TEMP (F): 42PEAK WIND SPEED (MPH): 40 PEAK WIND DIR (DEG):330 PEAK WIND TIME (LST):      FASTEST 2MIN SPEED (MPH): 21FASTEST 2MIN DIR (DEG):330 FASTEST 2MIN TIME (LST):     AVERAGE WIND SPEED (MPH):11.9 24 HR AVG TEMP (F): 48DEPART FROM NORMAL:  4  HEATING DEGREE DAYS: 17 COOLING DEGREE DAYS:  0
0465999999137242025032304596+39378-074424SOD  +000355N  V020999999999999999999999999999+99999+99999999999ADDAA124000095KA1240M+01725KA2240N+00785OE11240183330099995OE22240107330099995OE33240046999999995REMSOD35924 HR PRECIPITATION (IN): 0.00 24 HR MAX TEMP (F): 6324 HR MIN TEMP (F): 46PEAK WIND SPEED (MPH): 41 PEAK WIND DIR (DEG):300 PEAK WIND TIME (LST):      FASTEST 2MIN SPEED (MPH): 24FASTEST 2MIN DIR (DEG):300 FASTEST 2MIN TIME (LST):     AVERAGE WIND SPEED (MPH):10.5 24 HR AVG TEMP (F): 55DEPART FROM NORMAL: 11  HEATING DEGREE DAYS: 10 COOLING DEGREE DAYS:  0
0465999999137242025032404596+39378-074424SOD  +000355N  V020999999999999999999999999999+99999+99999999999ADDAA124000095KA1240M+01005KA2240N+00225OE11240134132099995OE22240071533099995OE33240038999999995REMSOD35924 HR PRECIPITATION (IN): 0.00 24 HR MAX TEMP (F): 5024 HR MIN TEMP (F): 36PEAK WIND SPEED (MPH): 30 PEAK WIND DIR (DEG):320 PEAK WIND TIME (LST):      FASTEST 2MIN SPEED (MPH): 16FASTEST 2MIN DIR (DEG):330 FASTEST 2MIN TIME (LST):     AVERAGE WIND SPEED (MPH): 8.7 24 HR AVG TEMP (F): 43DEPART FROM NORMAL: -1  HEATING DEGREE DAYS: 22 COOLING DEGREE DAYS:  0
0484999999137242025032504596+39378-074424SOD  +000355N  V020999999999999999999999999999+99999+99999999999ADDAA124018896KA1240M+01115KA2240N+00565OE11240174314099995OE22240107314099995OE33240041199999995REMSOD35924 HR PRECIPITATION (IN): 0.74 24 HR MAX TEMP (F): 5224 HR MIN TEMP (F): 42PEAK WIND SPEED (MPH): 39 PEAK WIND DIR (DEG):140 PEAK WIND TIME (LST):      FASTEST 2MIN SPEED (MPH): 24FASTEST 2MIN DIR (DEG):140 FASTEST 2MIN TIME (LST):     AVERAGE WIND SPEED (MPH): 9.2 24 HR AVG TEMP (F): 47DEPART FROM NORMAL:  3  HEATING DEGREE DAYS: 18 COOLING DEGREE DAYS:  0EQDR01  0.747AAP092
0484999999137242025032604596+39378-074424SOD  +000355N  V020999999999999999999999999999+99999+99999999999ADDAA124000026KA1240M+01175KA2240N+00785OE11240116222099995OE22240071522099995OE33240035399999995REMSOD35924 HR PRECIPITATION (IN):    T 24 HR MAX TEMP (F): 5324 HR MIN TEMP (F): 46PEAK WIND SPEED (MPH): 26 PEAK WIND DIR (DEG):220 PEAK WIND TIME (LST):      FASTEST 2MIN SPEED (MPH): 16FASTEST 2MIN DIR (DEG):220 FASTEST 2MIN TIME (LST):     AVERAGE WIND SPEED (MPH): 7.9 24 HR AVG TEMP (F): 50DEPART FROM NORMAL:  5  HEATING DEGREE DAYS: 15 COOLING DEGREE DAYS:  0EQDR01     T7AAP092
0465999999137242025032704596+39378-074424SOD  +000355N  V020999999999999999999999999999+99999+99999999999ADDAA124000095KA1240M+01005KA2240N+00395OE11240152030099995OE22240067129099995OE33240025999999995REMSOD35924 HR PRECIPITATION (IN): 0.00 24 HR MAX TEMP (F): 5024 HR MIN TEMP (F): 39PEAK WIND SPEED (MPH): 34 PEAK WIND DIR (DEG):300 PEAK WIND TIME (LST):      FASTEST 2MIN SPEED (MPH): 15FASTEST 2MIN DIR (DEG):290 FASTEST 2MIN TIME (LST):     AVERAGE WIND SPEED (MPH): 5.8 24 HR AVG TEMP (F): 45DEPART FROM NORMAL:  0  HEATING DEGREE DAYS: 20 COOLING DEGREE DAYS:  0
0465999999137242025032804596+39378-074424SOD  +000355N  V020999999999999999999999999999+99999+99999999999ADDAA124000095KA1240M+01175KA2240N+00115OE11240107332099995OE22240076007099995OE33240041699999995REMSOD35924 HR PRECIPITATION (IN): 0.00 24 HR MAX TEMP (F): 5324 HR MIN TEMP (F): 34PEAK WIND SPEED (MPH): 24 PEAK WIND DIR (DEG):320 PEAK WIND TIME (LST):      FASTEST 2MIN SPEED (MPH): 17FASTEST 2MIN DIR (DEG): 70 FASTEST 2MIN TIME (LST):     AVERAGE WIND SPEED (MPH): 9.3 24 HR AVG TEMP (F): 44DEPART FROM NORMAL: -1  HEATING DEGREE DAYS: 21 COOLING DEGREE DAYS:  0
0484999999137242025032904596+39378-074424SOD  +000355N  V020999999999999999999999999999+99999+99999999999ADDAA124000026KA1240M+01505KA2240N+00785OE11240098323099995OE22240067122099995OE33240042099999995REMSOD35924 HR PRECIPITATION (IN):    T 24 HR MAX TEMP (F): 5924 HR MIN TEMP (F): 46PEAK WIND SPEED (MPH): 22 PEAK WIND DIR (DEG):230 PEAK WIND TIME (LST):      FASTEST 2MIN SPEED (MPH): 15FASTEST 2MIN DIR (DEG):220 FASTEST 2MIN TIME (LST):     AVERAGE WIND SPEED (MPH): 9.4 24 HR AVG TEMP (F): 53DEPART FROM NORMAL:  7  HEATING DEGREE DAYS: 12 COOLING DEGREE DAYS:  0EQDR01     T7AAP092
0465999999137242025033004596+39378-074424SOD  +000355N  V020999999999999999999999999999+99999+99999999999ADDAA124000095KA1240M+02335KA2240N+00675OE11240143105099995OE22240084905099995OE33240048799999995REMSOD35924 HR PRECIPITATION (IN): 0.00 24 HR MAX TEMP (F): 7424 HR MIN TEMP (F): 44PEAK WIND SPEED (MPH): 32 PEAK WIND DIR (DEG): 50 PEAK WIND TIME (LST):      FASTEST 2MIN SPEED (MPH): 19FASTEST 2MIN DIR (DEG): 50 FASTEST 2MIN TIME (LST):     AVERAGE WIND SPEED (MPH):10.9 24 HR AVG TEMP (F): 59DEPART FROM NORMAL: 13  HEATING DEGREE DAYS:  6 COOLING DEGREE DAYS:  0
0465999999137242025033104596+39378-074424SOD  +000355N  V020999999999999999999999999999+99999+99999999999ADDAA124000095KA1240M+01395KA2240N+00675OE11240143122099995OE22240080522099995OE33240045699999995REMSOD35924 HR PRECIPITATION (IN): 0.00 24 HR MAX TEMP (F): 5724 HR MIN TEMP (F): 44PEAK WIND SPEED (MPH): 32 PEAK WIND DIR (DEG):220 PEAK WIND TIME (LST):      FASTEST 2MIN SPEED (MPH): 18FASTEST 2MIN DIR (DEG):220 FASTEST 2MIN TIME (LST):     AVERAGE WIND SPEED (MPH):10.2 24 HR AVG TEMP (F): 51DEPART FROM NORMAL:  5  HEATING DEGREE DAYS: 14 COOLING DEGREE DAYS:  0
0526999999137242025040104596+39378-074424SOD  +000355N  V020999999999999999999999999999+99999+99999999999ADDAA124011296AX1036246KA1240M+01505KA2240N+01115OE11240147521099995OE22240084922099995OE33240060499999995REMSOD37624 HR PRECIPITATION (IN): 0.44 WEATHER(CODE):3  24 HR MAX TEMP (F): 5924 HR MIN TEMP (F): 52PEAK WIND SPEED (MPH): 33 PEAK WIND DIR (DEG):210 PEAK WIND TIME (LST):      FASTEST 2MIN SPEED (MPH): 19FASTEST 2MIN DIR (DEG):220 FASTEST 2MIN TIME (LST):     AVERAGE WIND SPEED (MPH):13.5 24 HR AVG TEMP (F): 56DEPART FROM NORMAL: 10  HEATING DEGREE DAYS:  9 COOLING DEGREE DAYS:  0EQDR01  0.447AAP092R02     37AXW092
0484999999137242025040204596+39378-074424SOD  +000355N  V020999999999999999999999999999+99999+99999999999ADDAA124002096KA1240M+01505KA2240N+00675OE11240169933099995OE22240093933099995OE33240037699999995REMSOD35924 HR PRECIPITATION (IN): 0.08 24 HR MAX TEMP (F): 5924 HR MIN TEMP (F): 44PEAK WIND SPEED (MPH): 38 PEAK WIND DIR (DEG):330 PEAK WIND TIME (LST):      FASTEST 2MIN SPEED (MPH): 21FASTEST 2MIN DIR (DEG):330 FASTEST 2MIN TIME (LST):     AVERAGE WIND SPEED (MPH): 8.4 24 HR AVG TEMP (F): 52DEPART FROM NORMAL:  5  HEATING DEGREE DAYS: 13 COOLING DEGREE DAYS:  0EQDR01  0.087AAP092
0465999999137242025040304596+39378-074424SOD  +000355N  V020999999999999999999999999999+99999+99999999999ADDAA124000095KA1240M+00895KA2240N+00505OE11240129608099995OE22240093908099995OE33240053299999995REMSOD35924 HR PRECIPITATION (IN): 0.00 24 HR MAX TEMP (F): 4824 HR MIN TEMP (F): 41PEAK WIND SPEED (MPH): 29 PEAK WIND DIR (DEG): 80 PEAK WIND TIME (LST):      FASTEST 2MIN SPEED (MPH): 21FASTEST 2MIN DIR (DEG): 80 FASTEST 2MIN TIME (LST):     AVERAGE WIND SPEED (MPH):11.9 24 HR AVG TEMP (F): 45DEPART FROM NORMAL: -2  HEATING DEGREE DAYS: 20 COOLING DEGREE DAYS:  0
0465999999137242025040404596+39378-074424SOD  +000355N  V020999999999999999999999999999+99999+99999999999ADDAA124000095KA1240M+01565KA2240N+00895OE11240152023099995OE22240098323099995OE33240062199999995REMSOD35924 HR PRECIPITATION (IN): 0.00 24 HR MAX TEMP (F): 6024 HR MIN TEMP (F): 48PEAK WIND SPEED (MPH): 34 PEAK WIND DIR (DEG):230 PEAK WIND TIME (LST):      FASTEST 2MIN SPEED (MPH): 22FASTEST 2MIN DIR (DEG):230 FASTEST 2MIN TIME (LST):     AVERAGE WIND SPEED (MPH):13.9 24 HR AVG TEMP (F): 54DEPART FROM NORMAL:  7  HEATING DEGREE DAYS: 11 COOLING DEGREE DAYS:  0
0526999999137242025040504596+39378-074424SOD  +000355N  V020999999999999999999999999999+99999+99999999999ADDAA124003096AX1036246KA1240M+02175KA2240N+01335OE11240080526099995OE22240049223099995OE33240021099999995REMSOD37624 HR PRECIPITATION (IN): 0.12 WEATHER(CODE):3  24 HR MAX TEMP (F): 7124 HR MIN TEMP (F): 56PEAK WIND SPEED (MPH): 18 PEAK WIND DIR (DEG):260 PEAK WIND TIME (LST):      FASTEST 2MIN SPEED (MPH): 11FASTEST 2MIN DIR (DEG):230 FASTEST 2MIN TIME (LST):     AVERAGE WIND SPEED (MPH): 4.7 24 HR AVG TEMP (F): 64DEPART FROM NORMAL: 16  HEATING DEGREE DAYS:  1 COOLING DEGREE DAYS:  0EQDR01  0.127AAP092R02     37AXW092
0500999999137242025040604596+39378-074424SOD  +000355N  V020999999999999999999999999999+99999+99999999999ADDAA124000026KA1240M+01286KA2240N+00835OE11240111813099995OE22240067113099995OE33240033199999995REMSOD35924 HR PRECIPITATION (IN):    T 24 HR MAX TEMP (F): 5524 HR MIN TEMP (F): 47PEAK WIND SPEED (MPH): 25 PEAK WIND DIR (DEG):130 PEAK WIND TIME (LST):      FASTEST 2MIN SPEED (MPH): 15FASTEST 2MIN DIR (DEG):130 FASTEST 2MIN TIME (LST):     AVERAGE WIND SPEED (MPH): 7.4 24 HR AVG TEMP (F): 51DEPART FROM NORMAL:  3  HEATING DEGREE DAYS: 14 COOLING DEGREE DAYS:  0EQDR01     T7AAP092R02    557KAX008
0484999999137242025040704596+39378-074424SOD  +000355N  V020999999999999999999999999999+99999+99999999999ADDAA124000896KA1240M+01225KA2240N+00835OE11240089404099995OE22240044705099995OE33240018899999995REMSOD35924 HR PRECIPITATION (IN): 0.03 24 HR MAX TEMP (F): 5424 HR MIN TEMP (F): 47PEAK WIND SPEED (MPH): 20 PEAK WIND DIR (DEG): 40 PEAK WIND TIME (LST):      FASTEST 2MIN SPEED (MPH): 10FASTEST 2MIN DIR (DEG): 50 FASTEST 2MIN TIME (LST):     AVERAGE WIND SPEED (MPH): 4.2 24 HR AVG TEMP (F): 51DEPART FROM NORMAL:  3  HEATING DEGREE DAYS: 14 COOLING DEGREE DAYS:  0EQDR01  0.037AAP092
0484999999137242025040804596+39378-074424SOD  +000355N  V020999999999999999999999999999+99999+99999999999ADDAA124031096KA1240M+01115KA2240N+00615OE11240134107099995OE22240076009099995OE33240033199999995REMSOD35924 HR PRECIPITATION (IN): 1.22 24 HR MAX TEMP (F): 5224 HR MIN TEMP (F): 43PEAK WIND SPEED (MPH): 30 PEAK WIND DIR (DEG): 70 PEAK WIND TIME (LST):      FASTEST 2MIN SPEED (MPH): 17FASTEST 2MIN DIR (DEG): 90 FASTEST 2MIN TIME (LST):     AVERAGE WIND SPEED (MPH): 7.4 24 HR AVG TEMP (F): 48DEPART FROM NORMAL: -1  HEATING DEGREE DAYS: 17 COOLING DEGREE DAYS:  0EQDR01  1.227AAP092
0484999999137242025040904596+39378-074424SOD  +000355N  V020999999999999999999999999999+99999+99999999999ADDAA124000026KA1240M+00785KA2240N+00395OE11240196729099995OE22240093929099995OE33240051999999995REMSOD35924 HR PRECIPITATION (IN):    T 24 HR MAX TEMP (F): 4624 HR MIN TEMP (F): 39PEAK WIND SPEED (MPH): 44 PEAK WIND DIR (DEG):290 PEAK WIND TIME (LST):      FASTEST 2MIN SPEED (MPH): 21FASTEST 2MIN DIR (DEG):290 FASTEST 2MIN TIME (LST):     AVERAGE WIND SPEED (MPH):11.6 24 HR AVG TEMP (F): 43DEPART FROM NORMAL: -6  HEATING DEGREE DAYS: 22 COOLING DEGREE DAYS:  0EQDR01     T7AAP092
0465999999137242025041004596+39378-074424SOD  +000355N  V020999999999999999999999999999+99999+99999999999ADDAA124000095KA1240M+00945KA2240N+00065OE11240120723099995OE22240076023099995OE33240041699999995REMSOD35924 HR PRECIPITATION (IN): 0.00 24 HR MAX TEMP (F): 4924 HR MIN TEMP (F): 33PEAK WIND SPEED (MPH): 27 PEAK WIND DIR (DEG):230 PEAK WIND TIME (LST):      FASTEST 2MIN SPEED (MPH): 17FASTEST 2MIN DIR (DEG):230 FASTEST 2MIN TIME (LST):     AVERAGE WIND SPEED (MPH): 9.3 24 HR AVG TEMP (F): 41DEPART FROM NORMAL: -8  HEATING DEGREE DAYS: 24 COOLING DEGREE DAYS:  0
0465999999137242025041104596+39378-074424SOD  +000355N  V020999999999999999999999999999+99999+99999999999ADDAA124000095KA1240M+00785KA2240N+00675OE11240125210099995OE22240093910099995OE33240052399999995REMSOD35924 HR PRECIPITATION (IN): 0.00 24 HR MAX TEMP (F): 4624 HR MIN TEMP (F): 44PEAK WIND SPEED (MPH): 28 PEAK WIND DIR (DEG):100 PEAK WIND TIME (LST):      FASTEST 2MIN SPEED (MPH): 21FASTEST 2MIN DIR (DEG):100 FASTEST 2MIN TIME (LST):     AVERAGE WIND SPEED (MPH):11.7 24 HR AVG TEMP (F): 45DEPART FROM NORMAL: -5  HEATING DEGREE DAYS: 20 COOLING DEGREE DAYS:  0
0484999999137242025041204596+39378-074424SOD  +000355N  V020999999999999999999999999999+99999+99999999999ADDAA124039196KA1240M+00785KA2240N+00565OE11240183305099995OE22240111805099995OE33240068899999995REMSOD35924 HR PRECIPITATION (IN): 1.54 24 HR MAX TEMP (F): 4624 HR MIN TEMP (F): 42PEAK WIND SPEED (MPH): 41 PEAK WIND DIR (DEG): 50 PEAK WIND TIME (LST):      FASTEST 2MIN SPEED (MPH): 25FASTEST 2MIN DIR (DEG): 50 FASTEST 2MIN TIME (LST):     AVERAGE WIND SPEED (MPH):15.4 24 HR AVG TEMP (F): 44DEPART FROM NORMAL: -6  HEATING DEGREE DAYS: 21 COOLING DEGREE DAYS:  0EQDR01  1.547AAP092
0484999999137242025041304596+39378-074424SOD  +000355N  V020999999999999999999999999999+99999+99999999999ADDAA124002596KA1240M+00565KA2240N+00445OE11240196705099995OE22240111806099995OE33240059099999995REMSOD35924 HR PRECIPITATION (IN): 0.10 24 HR MAX TEMP (F): 4224 HR MIN TEMP (F): 40PEAK WIND SPEED (MPH): 44 PEAK WIND DIR (DEG): 50 PEAK WIND TIME (LST):      FASTEST 2MIN SPEED (MPH): 25FASTEST 2MIN DIR (DEG): 60 FASTEST 2MIN TIME (LST):     AVERAGE WIND SPEED (MPH):13.2 24 HR AVG TEMP (F): 41DEPART FROM NORMAL: -9  HEATING DEGREE DAYS: 24 COOLING DEGREE DAYS:  0EQDR01  0.107AAP092
0465999999137242025041404596+39378-074424SOD  +000355N  V020999999999999999999999999999+99999+99999999999ADDAA124000095KA1240M+01445KA2240N+00445OE11240143133099995OE22240067133099995OE33240038999999995REMSOD35924 HR PRECIPITATION (IN): 0.00 24 HR MAX TEMP (F): 5824 HR MIN TEMP (F): 40PEAK WIND SPEED (MPH): 32 PEAK WIND DIR (DEG):330 PEAK WIND TIME (LST):      FASTEST 2MIN SPEED (MPH): 15FASTEST 2MIN DIR (DEG):330 FASTEST 2MIN TIME (LST):     AVERAGE WIND SPEED (MPH): 8.7 24 HR AVG TEMP (F): 49DEPART FROM NORMAL: -2  HEATING DEGREE DAYS: 16 COOLING DEGREE DAYS:  0
0484999999137242025041504596+39378-074424SOD  +000355N  V020999999999999999999999999999+99999+99999999999ADDAA124000596KA1240M+01445KA2240N+00785OE11240093922099995OE22240058122099995OE33240025099999995REMSOD35924 HR PRECIPITATION (IN): 0.02 24 HR MAX TEMP (F): 5824 HR MIN TEMP (F): 46PEAK WIND SPEED (MPH): 21 PEAK WIND DIR (DEG):220 PEAK WIND TIME (LST):      FASTEST 2MIN SPEED (MPH): 13FASTEST 2MIN DIR (DEG):220 FASTEST 2MIN TIME (LST):     AVERAGE WIND SPEED (MPH): 5.6 24 HR AVG TEMP (F): 52DEPART FROM NORMAL:  1  HEATING DEGREE DAYS: 13 COOLING DEGREE DAYS:  0EQDR01  0.027AAP092
0484999999137242025041604596+39378-074424SOD  +000355N  V020999999999999999999999999999+99999+99999999999ADDAA124000596KA1240M+01895KA2240N+00945OE11240205629099995OE22240116229099995OE33240044399999995REMSOD35924 HR PRECIPITATION (IN): 0.02 24 HR MAX TEMP (F): 6624 HR MIN TEMP (F): 49PEAK WIND SPEED (MPH): 46 PEAK WIND DIR (DEG):290 PEAK WIND TIME (LST):      FASTEST 2MIN SPEED (MPH): 26FASTEST 2MIN DIR (DEG):290 FASTEST 2MIN TIME (LST):     AVERAGE WIND SPEED (MPH): 9.9 24 HR AVG TEMP (F): 58DEPART FROM NORMAL:  7  HEATING DEGREE DAYS:  7 COOLING DEGREE DAYS:  0EQDR01  0.027AAP092
0465999999137242025041704596+39378-074424SOD  +000355N  V020999999999999999999999999999+99999+99999999999ADDAA124000095KA1240M+01335KA2240N+00725OE11240205630099995OE22240093929099995OE33240051099999995REMSOD35924 HR PRECIPITATION (IN): 0.00 24 HR MAX TEMP (F): 5624 HR MIN TEMP (F): 45PEAK WIND SPEED (MPH): 46 PEAK WIND DIR (DEG):300 PEAK WIND TIME (LST):      FASTEST 2MIN SPEED (MPH): 21FASTEST 2MIN DIR (DEG):290 FASTEST 2MIN TIME (LST):     AVERAGE WIND SPEED (MPH):11.4 24 HR AVG TEMP (F): 51DEPART FROM NORMAL: -1  HEATING DEGREE DAYS: 14 COOLING DEGREE DAYS:  0
0465999999137242025041804596+39378-074424SOD  +000355N  V020999999999999999999999999999+99999+99999999999ADDAA124000095KA1240M+01615KA2240N+00445OE11240116224099995OE22240058133099995OE33240031399999995REMSOD35924 HR PRECIPITATION (IN): 0.00 24 HR MAX TEMP (F): 6124 HR MIN TEMP (F): 40PEAK WIND SPEED (MPH): 26 PEAK WIND DIR (DEG):240 PEAK WIND TIME (LST):      FASTEST 2MIN SPEED (MPH): 13FASTEST 2MIN DIR (DEG):330 FASTEST 2MIN TIME (LST):     AVERAGE WIND SPEED (MPH): 7.0 24 HR AVG TEMP (F): 51DEPART FROM NORMAL: -1  HEATING DEGREE DAYS: 14 COOLING DEGREE DAYS:  0
0465999999137242025041904596+39378-074424SOD  +000355N  V020999999999999999999999999999+99999+99999999999ADDAA124000095KA1240M+01445KA2240N+00835OE11240160922099995OE22240098322099995OE33240050599999995REMSOD35924 HR PRECIPITATION (IN): 0.00 24 HR MAX TEMP (F): 5824 HR MIN TEMP (F): 47PEAK WIND SPEED (MPH): 36 PEAK WIND DIR (DEG):220 PEAK WIND TIME (LST):      FASTEST 2MIN SPEED (MPH): 22FASTEST 2MIN DIR (DEG):220 FASTEST 2MIN TIME (LST):     AVERAGE WIND SPEED (MPH):11.3 24 HR AVG TEMP (F): 53DEPART FROM NORMAL:  1  HEATING DEGREE DAYS: 12 COOLING DEGREE DAYS:  0
0465999999137242025042004596+39378-074424SOD  +000355N  V020999999999999999999999999999+99999+99999999999ADDAA124000095KA1240M+02175KA2240N+01225OE11240134123099995OE22240084926099995OE33240056899999995REMSOD35924 HR PRECIPITATION (IN): 0.00 24 HR MAX TEMP (F): 7124 HR MIN TEMP (F): 54PEAK WIND SPEED (MPH): 30 PEAK WIND DIR (DEG):230 PEAK WIND TIME (LST):      FASTEST 2MIN SPEED (MPH): 19FASTEST 2MIN DIR (DEG):260 FASTEST 2MIN TIME (LST):     AVERAGE WIND SPEED (MPH):12.7 24 HR AVG TEMP (F): 63DEPART FROM NORMAL: 11  HEATING DEGREE DAYS:  2 COOLING DEGREE DAYS:  0
0465999999137242025042104596+39378-074424SOD  +000355N  V020999999999999999999999999999+99999+99999999999ADDAA124000095KA1240M+02225KA2240N+01175OE11240152033099995OE22240093933099995OE33240034499999995REMSOD35924 HR PRECIPITATION (IN): 0.00 24 HR MAX TEMP (F): 7224 HR MIN TEMP (F): 53PEAK WIND SPEED (MPH): 34 PEAK WIND DIR (DEG):330 PEAK WIND TIME (LST):      FASTEST 2MIN SPEED (MPH): 21FASTEST 2MIN DIR (DEG):330 FASTEST 2MIN TIME (LST):     AVERAGE WIND SPEED (MPH): 7.7 24 HR AVG TEMP (F): 63DEPART FROM NORMAL: 10  HEATING DEGREE DAYS:  2 COOLING DEGREE DAYS:  0
0484999999137242025042204596+39378-074424SOD  +000355N  V020999999999999999999999999999+99999+99999999999ADDAA124000026KA1240M+01395KA2240N+01005OE11240125217099995OE22240071520099995OE33240037699999995REMSOD35924 HR PRECIPITATION (IN):    T 24 HR MAX TEMP (F): 5724 HR MIN TEMP (F): 50PEAK WIND SPEED (MPH): 28 PEAK WIND DIR (DEG):170 PEAK WIND TIME (LST):      FASTEST 2MIN SPEED (MPH): 16FASTEST 2MIN DIR (DEG):200 FASTEST 2MIN TIME (LST):     AVERAGE WIND SPEED (MPH): 8.4 24 HR AVG TEMP (F): 54DEPART FROM NORMAL:  1  HEATING DEGREE DAYS: 11 COOLING DEGREE DAYS:  0EQDR01     T7AAP092
0484999999137242025042304596+39378-074424SOD  +000355N  V020999999999999999999999999999+99999+99999999999ADDAA124000396KA1240M+02615KA2240N+01285OE11240116226099995OE22240071526099995OE33240037199999995REMSOD35924 HR PRECIPITATION (IN): 0.01 24 HR MAX TEMP (F): 7924 HR MIN TEMP (F): 55PEAK WIND SPEED (MPH): 26 PEAK WIND DIR (DEG):260 PEAK WIND TIME (LST):      FASTEST 2MIN SPEED (MPH): 16FASTEST 2MIN DIR (DEG):260 FASTEST 2MIN TIME (LST):     AVERAGE WIND SPEED (MPH): 8.3 24 HR AVG TEMP (F): 67DEPART FROM NORMAL: 13  HEATING DEGREE DAYS:  0 COOLING DEGREE DAYS:  2EQDR01  0.017AAP092
0465999999137242025042404596+39378-074424SOD  +000355N  V020999999999999999999999999999+99999+99999999999ADDAA124000095KA1240M+01895KA2240N+01285OE11240102808099995OE22240071509099995OE33240034099999995REMSOD35924 HR PRECIPITATION (IN): 0.00 24 HR MAX TEMP (F): 6624 HR MIN TEMP (F): 55PEAK WIND SPEED (MPH): 23 PEAK WIND DIR (DEG): 80 PEAK WIND TIME (LST):      FASTEST 2MIN SPEED (MPH): 16FASTEST 2MIN DIR (DEG): 90 FASTEST 2MIN TIME (LST):     AVERAGE WIND SPEED (MPH): 7.6 24 HR AVG TEMP (F): 61DEPART FROM NORMAL:  7  HEATING DEGREE DAYS:  4 COOLING DEGREE DAYS:  0
0465999999137242025042504596+39378-074424SOD  +000355N  V020999999999999999999999999999+99999+99999999999ADDAA124000095KA1240M+01895KA2240N+01175OE11240080520099995OE22240049220099995OE33240030899999995REMSOD35924 HR PRECIPITATION (IN): 0.00 24 HR MAX TEMP (F): 6624 HR MIN TEMP (F): 53PEAK WIND SPEED (MPH): 18 PEAK WIND DIR (DEG):200 PEAK WIND TIME (LST):      FASTEST 2MIN SPEED (MPH): 11FASTEST 2MIN DIR (DEG):200 FASTEST 2MIN TIME (LST):     AVERAGE WIND SPEED (MPH): 6.9 24 HR AVG TEMP (F): 60DEPART FROM NORMAL:  6  HEATING DEGREE DAYS:  5 COOLING DEGREE DAYS:  0
0484999999137242025042604596+39378-074424SOD  +000355N  V020999999999999999999999999999+99999+99999999999ADDAA124000026KA1240M+01835KA2240N+01335OE11240107321099995OE22240062621099995OE33240031799999995REMSOD35924 HR PRECIPITATION (IN):    T 24 HR MAX TEMP (F): 6524 HR MIN TEMP (F): 56PEAK WIND SPEED (MPH): 24 PEAK WIND DIR (DEG):210 PEAK WIND TIME (LST):      FASTEST 2MIN SPEED (MPH): 14FASTEST 2MIN DIR (DEG):210 FASTEST 2MIN TIME (LST):     AVERAGE WIND SPEED (MPH): 7.1 24 HR AVG TEMP (F): 61DEPART FROM NORMAL:  7  HEATING DEGREE DAYS:  4 COOLING DEGREE DAYS:  0EQDR01     T7AAP092
0484999999137242025042704596+39378-074424SOD  +000355N  V020999999999999999999999999999+99999+99999999999ADDAA124000896KA1240M+01895KA2240N+01225OE11240138623099995OE22240080523099995OE33240051999999995REMSOD35924 HR PRECIPITATION (IN): 0.03 24 HR MAX TEMP (F): 6624 HR MIN TEMP (F): 54PEAK WIND SPEED (MPH): 31 PEAK WIND DIR (DEG):230 PEAK WIND TIME (LST):      FASTEST 2MIN SPEED (MPH): 18FASTEST 2MIN DIR (DEG):230 FASTEST 2MIN TIME (LST):     AVERAGE WIND SPEED (MPH):11.6 24 HR AVG TEMP (F): 60DEPART FROM NORMAL:  5  HEATING DEGREE DAYS:  5 COOLING DEGREE DAYS:  0EQDR01  0.037AAP092
0465999999137242025042804596+39378-074424SOD  +000355N  V020999999999999999999999999999+99999+99999999999ADDAA124000095KA1240M+02005KA2240N+00895OE11240187833099995OE22240116233099995OE33240042999999995REMSOD35924 HR PRECIPITATION (IN): 0.00 24 HR MAX TEMP (F): 6824 HR MIN TEMP (F): 48PEAK WIND SPEED (MPH): 42 PEAK WIND DIR (DEG):330 PEAK WIND TIME (LST):      FASTEST 2MIN SPEED (MPH): 26FASTEST 2MIN DIR (DEG):330 FASTEST 2MIN TIME (LST):     AVERAGE WIND SPEED (MPH): 9.6 24 HR AVG TEMP (F): 58DEPART FROM NORMAL:  3  HEATING DEGREE DAYS:  7 COOLING DEGREE DAYS:  0
0465999999137242025042904596+39378-074424SOD  +000355N  V020999999999999999999999999999+99999+99999999999ADDAA124000095KA1240M+01895KA2240N+01065OE11240102823099995OE22240062623099995OE33240037699999995REMSOD35924 HR PRECIPITATION (IN): 0.00 24 HR MAX TEMP (F): 6624 HR MIN TEMP (F): 51PEAK WIND SPEED (MPH): 23 PEAK WIND DIR (DEG):230 PEAK WIND TIME (LST):      FASTEST 2MIN SPEED (MPH): 14FASTEST 2MIN DIR (DEG):230 FASTEST 2MIN TIME (LST):     AVERAGE WIND SPEED (MPH): 8.4 24 HR AVG TEMP (F): 59DEPART FROM NORMAL:  4  HEATING DEGREE DAYS:  6 COOLING DEGREE DAYS:  0
0465999999137242025043004596+39378-074424SOD  +000355N  V020999999999999999999999999999+99999+99999999999ADDAA124000095KA1240M+01565KA2240N+01225OE11240192223099995OE22240116222099995OE33240063999999995REMSOD35924 HR PRECIPITATION (IN): 0.00 24 HR MAX TEMP (F): 6024 HR MIN TEMP (F): 54PEAK WIND SPEED (MPH): 43 PEAK WIND DIR (DEG):230 PEAK WIND TIME (LST):      FASTEST 2MIN SPEED (MPH): 26FASTEST 2MIN DIR (DEG):220 FASTEST 2MIN TIME (LST):     AVERAGE WIND SPEED (MPH):14.3 24 HR AVG TEMP (F): 57DEPART FROM NORMAL:  1  HEATING DEGREE DAYS:  8 COOLING DEGREE DAYS:  0
0484999999137242025050104596+39378-074424SOD  +000355N  V020999999999999999999999999999+99999+99999999999ADDAA124000026KA1240M+02675KA2240N+01395OE11240116223099995OE22240071522099995OE33240035899999995REMSOD35924 HR PRECIPITATION (IN):    T 24 HR MAX TEMP (F): 8024 HR MIN TEMP (F): 57PEAK WIND SPEED (MPH): 26 PEAK WIND DIR (DEG):230 PEAK WIND TIME (LST):      FASTEST 2MIN SPEED (MPH): 16FASTEST 2MIN DIR (DEG):220 FASTEST 2MIN TIME (LST):     AVERAGE WIND SPEED (MPH): 8.0 24 HR AVG TEMP (F): 69DEPART FROM NORMAL: 13  HEATING DEGREE DAYS:  0 COOLING DEGREE DAYS:  4EQDR01     T7AAP092
0465999999137242025050204596+39378-074424SOD  +000355N  V020999999999999999999999999999+99999+99999999999ADDAA124000095KA1240M+01565KA2240N+01225OE11240098309099995OE22240071509099995OE33240038099999995REMSOD35924 HR PRECIPITATION (IN): 0.00 24 HR MAX TEMP (F): 6024 HR MIN TEMP (F): 54PEAK WIND SPEED (MPH): 22 PEAK WIND DIR (DEG): 90 PEAK WIND TIME (LST):      FASTEST 2MIN SPEED (MPH): 16FASTEST 2MIN DIR (DEG): 90 FASTEST 2MIN TIME (LST):     AVERAGE WIND SPEED (MPH): 8.5 24 HR AVG TEMP (F): 57DEPART FROM NORMAL:  1  HEATING DEGREE DAYS:  8 COOLING DEGREE DAYS:  0
0465999999137242025050304596+39378-074424SOD  +000355N  V020999999999999999999999999999+99999+99999999999ADDAA124000095KA1240M+01945KA2240N+01565OE11240125223099995OE22240080523099995OE33240047499999995REMSOD35924 HR PRECIPITATION (IN): 0.00 24 HR MAX TEMP (F): 6724 HR MIN TEMP (F): 60PEAK WIND SPEED (MPH): 28 PEAK WIND DIR (DEG):230 PEAK WIND TIME (LST):      FASTEST 2MIN SPEED (MPH): 18FASTEST 2MIN DIR (DEG):230 FASTEST 2MIN TIME (LST):     AVERAGE WIND SPEED (MPH):10.6 24 HR AVG TEMP (F): 64DEPART FROM NORMAL:  8  HEATING DEGREE DAYS:  1 COOLING DEGREE DAYS:  0
0484999999137242025050404596+39378-074424SOD  +000355N  V020999999999999999999999999999+99999+99999999999ADDAA124001396KA1240M+01895KA2240N+01565OE11240152022099995OE22240093922099995OE33240059599999995REMSOD35924 HR PRECIPITATION (IN): 0.05 24 HR MAX TEMP (F): 6624 HR MIN TEMP (F): 60PEAK WIND SPEED (MPH): 34 PEAK WIND DIR (DEG):220 PEAK WIND TIME (LST):      FASTEST 2MIN SPEED (MPH): 21FASTEST 2MIN DIR (DEG):220 FASTEST 2MIN TIME (LST):     AVERAGE WIND SPEED (MPH):13.3 24 HR AVG TEMP (F): 63DEPART FROM NORMAL:  6  HEATING DEGREE DAYS:  2 COOLING DEGREE DAYS:  0EQDR01  0.057AAP092
0484999999137242025050504596+39378-074424SOD  +000355N  V020999999999999999999999999999+99999+99999999999ADDAA124011796KA1240M+01675KA2240N+01445OE11240107320099995OE22240062623099995OE33240040799999995REMSOD35924 HR PRECIPITATION (IN): 0.46 24 HR MAX TEMP (F): 6224 HR MIN TEMP (F): 58PEAK WIND SPEED (MPH): 24 PEAK WIND DIR (DEG):200 PEAK WIND TIME (LST):      FASTEST 2MIN SPEED (MPH): 14FASTEST 2MIN DIR (DEG):230 FASTEST 2MIN TIME (LST):     AVERAGE WIND SPEED (MPH): 9.1 24 HR AVG TEMP (F): 60DEPART FROM NORMAL:  3  HEATING DEGREE DAYS:  5 COOLING DEGREE DAYS:  0EQDR01  0.467AAP092
0484999999137242025050604596+39378-074424SOD  +000355N  V020999999999999999999999999999+99999+99999999999ADDAA124002096KA1240M+01785KA2240N+01335OE11240080517099995OE22240053616099995OE33240028299999995REMSOD35924 HR PRECIPITATION (IN): 0.08 24 HR MAX TEMP (F): 6424 HR MIN TEMP (F): 56PEAK WIND SPEED (MPH): 18 PEAK WIND DIR (DEG):170 PEAK WIND TIME (LST):      FASTEST 2MIN SPEED (MPH): 12FASTEST 2MIN DIR (DEG):160 FASTEST 2MIN TIME (LST):     AVERAGE WIND SPEED (MPH): 6.3 24 HR AVG TEMP (F): 60DEPART FROM NORMAL:  3  HEATING DEGREE DAYS:  5 COOLING DEGREE DAYS:  0EQDR01  0.087AAP092
0484999999137242025050704596+39378-074424SOD  +000355N  V020999999999999999999999999999+99999+99999999999ADDAA124001096KA1240M+01895KA2240N+01395OE11240129619099995OE22240076021099995OE33240042099999995REMSOD35924 HR PRECIPITATION (IN): 0.04 24 HR MAX TEMP (F): 6624 HR MIN TEMP (F): 57PEAK WIND SPEED (MPH): 29 PEAK WIND DIR (DEG):190 PEAK WIND TIME (LST):      FASTEST 2MIN SPEED (MPH): 17FASTEST 2MIN DIR (DEG):210 FASTEST 2MIN TIME (LST):     AVERAGE WIND SPEED (MPH): 9.4 24 HR AVG TEMP (F): 62DEPART FROM NORMAL:  4  HEATING DEGREE DAYS:  3 COOLING DEGREE DAYS:  0EQDR01  0.047AAP092
0465999999137242025050804596+39378-074424SOD  +000355N  V020999999999999999999999999999+99999+99999999999ADDAA124000095KA1240M+02005KA2240N+01395OE11240084923099995OE22240053622099995OE33240024699999995REMSOD35924 HR PRECIPITATION (IN): 0.00 24 HR MAX TEMP (F): 6824 HR MIN TEMP (F): 57PEAK WIND SPEED (MPH): 19 PEAK WIND DIR (DEG):230 PEAK WIND TIME (LST):      FASTEST 2MIN SPEED (MPH): 12FASTEST 2MIN DIR (DEG):220 FASTEST 2MIN TIME (LST):     AVERAGE WIND SPEED (MPH): 5.5 24 HR AVG TEMP (F): 63DEPART FROM NORMAL:  5  HEATING DEGREE DAYS:  2 COOLING DEGREE DAYS:  0
0465999999137242025050904596+39378-074424SOD  +000355N  V020999999999999999999999999999+99999+99999999999ADDAA124000095KA1240M+02115KA2240N+01565OE11240098316099995OE22240067116099995OE33240027799999995REMSOD35924 HR PRECIPITATION (IN): 0.00 24 HR MAX TEMP (F): 7024 HR MIN TEMP (F): 60PEAK WIND SPEED (MPH): 22 PEAK WIND DIR (DEG):160 PEAK WIND TIME (LST):      FASTEST 2MIN SPEED (MPH): 15FASTEST 2MIN DIR (DEG):160 FASTEST 2MIN TIME (LST):     AVERAGE WIND SPEED (MPH): 6.2 24 HR AVG TEMP (F): 65DEPART FROM NORMAL:  7  HEATING DEGREE DAYS:  0 COOLING DEGREE DAYS:  0
0484999999137242025051004596+39378-074424SOD  +000355N  V020999999999999999999999999999+99999+99999999999ADDAA124000396KA1240M+02065KA2240N+01115OE11240125233099995OE22240071533099995OE33240035399999995REMSOD35924 HR PRECIPITATION (IN): 0.01 24 HR MAX TEMP (F): 6924 HR MIN TEMP (F): 52PEAK WIND SPEED (MPH): 28 PEAK WIND DIR (DEG):330 PEAK WIND TIME (LST):      FASTEST 2MIN SPEED (MPH): 16FASTEST 2MIN DIR (DEG):330 FASTEST 2MIN TIME (LST):     AVERAGE WIND SPEED (MPH): 7.9 24 HR AVG TEMP (F): 61DEPART FROM NORMAL:  3  HEATING DEGREE DAYS:  4 COOLING DEGREE DAYS:  0EQDR01  0.017AAP092
0465999999137242025051104596+39378-074424SOD  +000355N  V020999999999999999999999999999+99999+99999999999ADDAA124000095KA1240M+02225KA2240N+01005OE11240138631099995OE22240067133099995OE33240042099999995REMSOD35924 HR PRECIPITATION (IN): 0.00 24 HR MAX TEMP (F): 7224 HR MIN TEMP (F): 50PEAK WIND SPEED (MPH): 31 PEAK WIND DIR (DEG):310 PEAK WIND TIME (LST):      FASTEST 2MIN SPEED (MPH): 15FASTEST 2MIN DIR (DEG):330 FASTEST 2MIN TIME (LST):     AVERAGE WIND SPEED (MPH): 9.4 24 HR AVG TEMP (F): 61DEPART FROM NORMAL:  2  HEATING DEGREE DAYS:  4 COOLING DEGREE DAYS:  0
0465999999137242025051204596+39378-074424SOD  +000355N  V020999999999999999999999999999+99999+99999999999ADDAA124000095KA1240M+02285KA2240N+01445OE11240084923099995OE22240053623099995OE33240025099999995REMSOD35924 HR PRECIPITATION (IN): 0.00 24 HR MAX TEMP (F): 7324 HR MIN TEMP (F): 58PEAK WIND SPEED (MPH): 19 PEAK WIND DIR (DEG):230 PEAK WIND TIME (LST):      FASTEST 2MIN SPEED (MPH): 12FASTEST 2MIN DIR (DEG):230 FASTEST 2MIN TIME (LST):     AVERAGE WIND SPEED (MPH): 5.6 24 HR AVG TEMP (F): 66DEPART FROM NORMAL:  7  HEATING DEGREE DAYS:  0 COOLING DEGREE DAYS:  1
0465999999137242025051304596+39378-074424SOD  +000355N  V020999999999999999999999999999+99999+99999999999ADDAA124000095KA1240M+01895KA2240N+01395OE11240080520099995OE22240044714099995OE33240031799999995REMSOD35924 HR PRECIPITATION (IN): 0.00 24 HR MAX TEMP (F): 6624 HR MIN TEMP (F): 57PEAK WIND SPEED (MPH): 18 PEAK WIND DIR (DEG):200 PEAK WIND TIME (LST):      FASTEST 2MIN SPEED (MPH): 10FASTEST 2MIN DIR (DEG):140 FASTEST 2MIN TIME (LST):     AVERAGE WIND SPEED (MPH): 7.1 24 HR AVG TEMP (F): 62DEPART FROM NORMAL:  3  HEATING DEGREE DAYS:  3 COOLING DEGREE DAYS:  0
0484999999137242025051404596+39378-074424SOD  +000355N  V020999999999999999999999999999+99999+99999999999ADDAA124005896KA1240M+01785KA2240N+01565OE11240143112099995OE22240089412099995OE33240035899999995REMSOD35924 HR PRECIPITATION (IN): 0.23 24 HR MAX TEMP (F): 6424 HR MIN TEMP (F): 60PEAK WIND SPEED (MPH): 32 PEAK WIND DIR (DEG):120 PEAK WIND TIME (LST):      FASTEST 2MIN SPEED (MPH): 20FASTEST 2MIN DIR (DEG):120 FASTEST 2MIN TIME (LST):     AVERAGE WIND SPEED (MPH): 8.0 24 HR AVG TEMP (F): 62DEPART FROM NORMAL:  3  HEATING DEGREE DAYS:  3 COOLING DEGREE DAYS:  0EQDR01  0.237AAP092
0484999999137242025051504596+39378-074424SOD  +000355N  V020999999999999999999999999999+99999+99999999999ADDAA124020196KA1240M+01725KA2240N+01505OE11240156511099995OE22240107311099995OE33240059099999995REMSOD35924 HR PRECIPITATION (IN): 0.79 24 HR MAX TEMP (F): 6324 HR MIN TEMP (F): 59PEAK WIND SPEED (MPH): 35 PEAK WIND DIR (DEG):110 PEAK WIND TIME (LST):      FASTEST 2MIN SPEED (MPH): 24FASTEST 2MIN DIR (DEG):110 FASTEST 2MIN TIME (LST):     AVERAGE WIND SPEED (MPH):13.2 24 HR AVG TEMP (F): 61DEPART FROM NORMAL:  1  HEATING DEGREE DAYS:  4 COOLING DEGREE DAYS:  0EQDR01  0.797AAP092
0465999999137242025051604596+39378-074424SOD  +000355N  V020999999999999999999999999999+99999+99999999999ADDAA124000095KA1240M+01835KA2240N+01505OE11240058115099995OE22240044712099995OE33240020199999995REMSOD35924 HR PRECIPITATION (IN): 0.00 24 HR MAX TEMP (F): 6524 HR MIN TEMP (F): 59PEAK WIND SPEED (MPH): 13 PEAK WIND DIR (DEG):150 PEAK WIND TIME (LST):      FASTEST 2MIN SPEED (MPH): 10FASTEST 2MIN DIR (DEG):120 FASTEST 2MIN TIME (LST):     AVERAGE WIND SPEED (MPH): 4.5 24 HR AVG TEMP (F): 62DEPART FROM NORMAL:  2  HEATING DEGREE DAYS:  3 COOLING DEGREE DAYS:  0
0484999999137242025051704596+39378-074424SOD  +000355N  V020999999999999999999999999999+99999+99999999999ADDAA124009996KA1240M+02065KA2240N+01565OE11240120706099995OE22240076024099995OE33240030899999995REMSOD35924 HR PRECIPITATION (IN): 0.39 24 HR MAX TEMP (F): 6924 HR MIN TEMP (F): 60PEAK WIND SPEED (MPH): 27 PEAK WIND DIR (DEG): 60 PEAK WIND TIME (LST):      FASTEST 2MIN SPEED (MPH): 17FASTEST 2MIN DIR (DEG):240 FASTEST 2MIN TIME (LST):     AVERAGE WIND SPEED (MPH): 6.9 24 HR AVG TEMP (F): 65DEPART FROM NORMAL:  5  HEATING DEGREE DAYS:  0 COOLING DEGREE DAYS:  0EQDR01  0.397AAP092
0465999999137242025051804596+39378-074424SOD  +000355N  V020999999999999999999999999999+99999+99999999999ADDAA124000095KA1240M+02835KA2240N+01785OE11240143126099995OE22240080527099995OE33240039899999995REMSOD35924 HR PRECIPITATION (IN): 0.00 24 HR MAX TEMP (F): 8324 HR MIN TEMP (F): 64PEAK WIND SPEED (MPH): 32 PEAK WIND DIR (DEG):260 PEAK WIND TIME (LST):      FASTEST 2MIN SPEED (MPH): 18FASTEST 2MIN DIR (DEG):270 FASTEST 2MIN TIME (LST):     AVERAGE WIND SPEED (MPH): 8.9 24 HR AVG TEMP (F): 74DEPART FROM NORMAL: 14  HEATING DEGREE DAYS:  0 COOLING DEGREE DAYS:  9
0465999999137242025051904596+39378-074424SOD  +000355N  V020999999999999999999999999999+99999+99999999999ADDAA124000095KA1240M+02445KA2240N+01785OE11240147529099995OE22240084929099995OE33240043899999995REMSOD35924 HR PRECIPITATION (IN): 0.00 24 HR MAX TEMP (F): 7624 HR MIN TEMP (F): 64PEAK WIND SPEED (MPH): 33 PEAK WIND DIR (DEG):290 PEAK WIND TIME (LST):      FASTEST 2MIN SPEED (MPH): 19FASTEST 2MIN DIR (DEG):290 FASTEST 2MIN TIME (LST):     AVERAGE WIND SPEED (MPH): 9.8 24 HR AVG TEMP (F): 70DEPART FROM NORMAL:  9  HEATING DEGREE DAYS:  0 COOLING DEGREE DAYS:  5
0465999999137242025052004596+39378-074424SOD  +000355N  V020999999999999999999999999999+99999+99999999999ADDAA124000095KA1240M+02285KA2240N+01505OE11240120733099995OE22240058133099995OE33240033599999995REMSOD35924 HR PRECIPITATION (IN): 0.00 24 HR MAX TEMP (F): 7324 HR MIN TEMP (F): 59PEAK WIND SPEED (MPH): 27 PEAK WIND DIR (DEG):330 PEAK WIND TIME (LST):      FASTEST 2MIN SPEED (MPH): 13FASTEST 2MIN DIR (DEG):330 FASTEST 2MIN TIME (LST):     AVERAGE WIND SPEED (MPH): 7.5 24 HR AVG TEMP (F): 66DEPART FROM NORMAL:  5  HEATING DEGREE DAYS:  0 COOLING DEGREE DAYS:  1
0465999999137242025052104596+39378-074424SOD  +000355N  V020999999999999999999999999999+99999+99999999999ADDAA124000095KA1240M+01505KA2240N+00945OE11240102835099995OE22240053614099995OE33240034499999995REMSOD35924 HR PRECIPITATION (IN): 0.00 24 HR MAX TEMP (F): 5924 HR MIN TEMP (F): 49PEAK WIND SPEED (MPH): 23 PEAK WIND DIR (DEG):350 PEAK WIND TIME (LST):      FASTEST 2MIN SPEED (MPH): 12FASTEST 2MIN DIR (DEG):140 FASTEST 2MIN TIME (LST):     AVERAGE WIND SPEED (MPH): 7.7 24 HR AVG TEMP (F): 54DEPART FROM NORMAL: -7  HEATING DEGREE DAYS: 11 COOLING DEGREE DAYS:  0
0484999999137242025052204596+39378-074424SOD  +000355N  V020999999999999999999999999999+99999+99999999999ADDAA124006996KA1240M+01445KA2240N+01225OE11240156509099995OE22240120710099995OE33240077899999995REMSOD35924 HR PRECIPITATION (IN): 0.27 24 HR MAX TEMP (F): 5824 HR MIN TEMP (F): 54PEAK WIND SPEED (MPH): 35 PEAK WIND DIR (DEG): 90 PEAK WIND TIME (LST):      FASTEST 2MIN SPEED (MPH): 27FASTEST 2MIN DIR (DEG):100 FASTEST 2MIN TIME (LST):     AVERAGE WIND SPEED (MPH):17.4 24 HR AVG TEMP (F): 56DEPART FROM NORMAL: -6  HEATING DEGREE DAYS:  9 COOLING DEGREE DAYS:  0EQDR01  0.277AAP092
0484999999137242025052304596+39378-074424SOD  +000355N  V020999999999999999999999999999+99999+99999999999ADDAA124019396KA1240M+01335KA2240N+01115OE11240143107099995OE22240098308099995OE33240049699999995REMSOD35924 HR PRECIPITATION (IN): 0.76 24 HR MAX TEMP (F): 5624 HR MIN TEMP (F): 52PEAK WIND SPEED (MPH): 32 PEAK WIND DIR (DEG): 70 PEAK WIND TIME (LST):      FASTEST 2MIN SPEED (MPH): 22FASTEST 2MIN DIR (DEG): 80 FASTEST 2MIN TIME (LST):     AVERAGE WIND SPEED (MPH):11.1 24 HR AVG TEMP (F): 54DEPART FROM NORMAL: -8  HEATING DEGREE DAYS: 11 COOLING DEGREE DAYS:  0EQDR01  0.767AAP092
0484999999137242025052404596+39378-074424SOD  +000355N  V020999999999999999999999999999+99999+99999999999ADDAA124000896KA1240M+01835KA2240N+01115OE11240125229099995OE22240071529099995OE33240035399999995REMSOD35924 HR PRECIPITATION (IN): 0.03 24 HR MAX TEMP (F): 6524 HR MIN TEMP (F): 52PEAK WIND SPEED (MPH): 28 PEAK WIND DIR (DEG):290 PEAK WIND TIME (LST):      FASTEST 2MIN SPEED (MPH): 16FASTEST 2MIN DIR (DEG):290 FASTEST 2MIN TIME (LST):     AVERAGE WIND SPEED (MPH): 7.9 24 HR AVG TEMP (F): 59DEPART FROM NORMAL: -3  HEATING DEGREE DAYS:  6 COOLING DEGREE DAYS:  0EQDR01  0.037AAP092
0465999999137242025052504596+39378-074424SOD  +000355N  V020999999999999999999999999999+99999+99999999999ADDAA124000095KA1240M+01895KA2240N+01115OE11240152029099995OE22240076029099995OE33240040299999995REMSOD35924 HR PRECIPITATION (IN): 0.00 24 HR MAX TEMP (F): 6624 HR MIN TEMP (F): 52PEAK WIND SPEED (MPH): 34 PEAK WIND DIR (DEG):290 PEAK WIND TIME (LST):      FASTEST 2MIN SPEED (MPH): 17FASTEST 2MIN DIR (DEG):290 FASTEST 2MIN TIME (LST):     AVERAGE WIND SPEED (MPH): 9.0 24 HR AVG TEMP (F): 59DEPART FROM NORMAL: -3  HEATING DEGREE DAYS:  6 COOLING DEGREE DAYS:  0
0465999999137242025052604596+39378-074424SOD  +000355N  V020999999999999999999999999999+99999+99999999999ADDAA124000095KA1240M+02065KA2240N+01115OE11240098330099995OE22240044729099995OE33240027399999995REMSOD35924 HR PRECIPITATION (IN): 0.00 24 HR MAX TEMP (F): 6924 HR MIN TEMP (F): 52PEAK WIND SPEED (MPH): 22 PEAK WIND DIR (DEG):300 PEAK WIND TIME (LST):      FASTEST 2MIN SPEED (MPH): 10FASTEST 2MIN DIR (DEG):290 FASTEST 2MIN TIME (LST):     AVERAGE WIND SPEED (MPH): 6.1 24 HR AVG TEMP (F): 61DEPART FROM NORMAL: -2  HEATING DEGREE DAYS:  4 COOLING DEGREE DAYS:  0
0465999999137242025052704596+39378-074424SOD  +000355N  V020999999999999999999999999999+99999+99999999999ADDAA124000095KA1240M+01725KA2240N+01225OE11240076012099995OE22240058112099995OE33240026499999995REMSOD35924 HR PRECIPITATION (IN): 0.00 24 HR MAX TEMP (F): 6324 HR MIN TEMP (F): 54PEAK WIND SPEED (MPH): 17 PEAK WIND DIR (DEG):120 PEAK WIND TIME (LST):      FASTEST 2MIN SPEED (MPH): 13FASTEST 2MIN DIR (DEG):120 FASTEST 2MIN TIME (LST):     AVERAGE WIND SPEED (MPH): 5.9 24 HR AVG TEMP (F): 59DEPART FROM NORMAL: -4  HEATING DEGREE DAYS:  6 COOLING DEGREE DAYS:  0
0465999999137242025052804596+39378-074424SOD  +000355N  V020999999999999999999999999999+99999+99999999999ADDAA124000095KA1240M+01785KA2240N+01445OE11240067117099995OE22240040216099995OE33240021999999995REMSOD35924 HR PRECIPITATION (IN): 0.00 24 HR MAX TEMP (F): 6424 HR MIN TEMP (F): 58PEAK WIND SPEED (MPH): 15 PEAK WIND DIR (DEG):170 PEAK WIND TIME (LST):      FASTEST 2MIN SPEED (MPH):  9FASTEST 2MIN DIR (DEG):160 FASTEST 2MIN TIME (LST):     AVERAGE WIND SPEED (MPH): 4.9 24 HR AVG TEMP (F): 61DEPART FROM NORMAL: -3  HEATING DEGREE DAYS:  4 COOLING DEGREE DAYS:  0
0484999999137242025052904596+39378-074424SOD  +000355N  V020999999999999999999999999999+99999+99999999999ADDAA124032396KA1240M+01565KA2240N+01225OE11240120712099995OE22240089411099995OE33240057799999995REMSOD35924 HR PRECIPITATION (IN): 1.27 24 HR MAX TEMP (F): 6024 HR MIN TEMP (F): 54PEAK WIND SPEED (MPH): 27 PEAK WIND DIR (DEG):120 PEAK WIND TIME (LST):      FASTEST 2MIN SPEED (MPH): 20FASTEST 2MIN DIR (DEG):110 FASTEST 2MIN TIME (LST):     AVERAGE WIND SPEED (MPH):12.9 24 HR AVG TEMP (F): 57DEPART FROM NORMAL: -7  HEATING DEGREE DAYS:  8 COOLING DEGREE DAYS:  0EQDR01  1.277AAP092
0484999999137242025053004596+39378-074424SOD  +000355N  V020999999999999999999999999999+99999+99999999999ADDAA124004196KA1240M+02005KA2240N+01505OE11240076036099995OE22240044722099995OE33240027399999995REMSOD35924 HR PRECIPITATION (IN): 0.16 24 HR MAX TEMP (F): 6824 HR MIN TEMP (F): 59PEAK WIND SPEED (MPH): 17 PEAK WIND DIR (DEG):360 PEAK WIND TIME (LST):      FASTEST 2MIN SPEED (MPH): 10FASTEST 2MIN DIR (DEG):220 FASTEST 2MIN TIME (LST):     AVERAGE WIND SPEED (MPH): 6.1 24 HR AVG TEMP (F): 64DEPART FROM NORMAL:  0  HEATING DEGREE DAYS:  1 COOLING DEGREE DAYS:  0EQDR01  0.167AAP092
0484999999137242025053104596+39378-074424SOD  +000355N  V020999999999999999999999999999+99999+99999999999ADDAA124009196KA1240M+02005KA2240N+01615OE11240107318099995OE22240062617099995OE33240031399999995REMSOD35924 HR PRECIPITATION (IN): 0.36 24 HR MAX TEMP (F): 6824 HR MIN TEMP (F): 61PEAK WIND SPEED (MPH): 24 PEAK WIND DIR (DEG):180 PEAK WIND TIME (LST):      FASTEST 2MIN SPEED (MPH): 14FASTEST 2MIN DIR (DEG):170 FASTEST 2MIN TIME (LST):     AVERAGE WIND SPEED (MPH): 7.0 24 HR AVG TEMP (F): 65DEPART FROM NORMAL:  1  HEATING DEGREE DAYS:  0 COOLING DEGREE DAYS:  0EQDR01  0.367AAP092
0484999999137242025060104596+39378-074424SOD  +000355N  V020999999999999999999999999999+99999+99999999999ADDAA124004896KA1240M+02115KA2240N+01335OE11240156529099995OE22240093926099995OE33240049299999995REMSOD35924 HR PRECIPITATION (IN): 0.19 24 HR MAX TEMP (F): 7024 HR MIN TEMP (F): 56PEAK WIND SPEED (MPH): 35 PEAK WIND DIR (DEG):290 PEAK WIND TIME (LST):      FASTEST 2MIN SPEED (MPH): 21FASTEST 2MIN DIR (DEG):260 FASTEST 2MIN TIME (LST):     AVERAGE WIND SPEED (MPH):11.0 24 HR AVG TEMP (F): 63DEPART FROM NORMAL: -2  HEATING DEGREE DAYS:  2 COOLING DEGREE DAYS:  0EQDR01  0.197AAP092
0465999999137242025060204596+39378-074424SOD  +000355N  V020999999999999999999999999999+99999+99999999999ADDAA124000095KA1240M+01945KA2240N+01115OE11240138629099995OE22240076029099995OE33240047499999995REMSOD35924 HR PRECIPITATION (IN): 0.00 24 HR MAX TEMP (F): 6724 HR MIN TEMP (F): 52PEAK WIND SPEED (MPH): 31 PEAK WIND DIR (DEG):290 PEAK WIND TIME (LST):      FASTEST 2MIN SPEED (MPH): 17FASTEST 2MIN DIR (DEG):290 FASTEST 2MIN TIME (LST):     AVERAGE WIND SPEED (MPH):10.6 24 HR AVG TEMP (F): 60DEPART FROM NORMAL: -5  HEATING DEGREE DAYS:  5 COOLING DEGREE DAYS:  0
0465999999137242025060304596+39378-074424SOD  +000355N  V020999999999999999999999999999+99999+99999999999ADDAA124000095KA1240M+02175KA2240N+01335OE11240084920099995OE22240053618099995OE33240029599999995REMSOD35924 HR PRECIPITATION (IN): 0.00 24 HR MAX TEMP (F): 7124 HR MIN TEMP (F): 56PEAK WIND SPEED (MPH): 19 PEAK WIND DIR (DEG):200 PEAK WIND TIME (LST):      FASTEST 2MIN SPEED (MPH): 12FASTEST 2MIN DIR (DEG):180 FASTEST 2MIN TIME (LST):     AVERAGE WIND SPEED (MPH): 6.6 24 HR AVG TEMP (F): 64DEPART FROM NORMAL: -2  HEATING DEGREE DAYS:  1 COOLING DEGREE DAYS:  0
0465999999137242025060404596+39378-074424SOD  +000355N  V020999999999999999999999999999+99999+99999999999ADDAA124000095KA1240M+02065KA2240N+01565OE11240076027099995OE22240044713099995OE33240030099999995REMSOD35924 HR PRECIPITATION (IN): 0.00 24 HR MAX TEMP (F): 6924 HR MIN TEMP (F): 60PEAK WIND SPEED (MPH): 17 PEAK WIND DIR (DEG):270 PEAK WIND TIME (LST):      FASTEST 2MIN SPEED (MPH): 10FASTEST 2MIN DIR (DEG):130 FASTEST 2MIN TIME (LST):     AVERAGE WIND SPEED (MPH): 6.7 24 HR AVG TEMP (F): 65DEPART FROM NORMAL: -1  HEATING DEGREE DAYS:  0 COOLING DEGREE DAYS:  0
0465999999137242025060504596+39378-074424SOD  +000355N  V020999999999999999999999999999+99999+99999999999ADDAA124000095KA1240M+02175KA2240N+01835OE11240116223099995OE22240071523099995OE33240041699999995REMSOD35924 HR PRECIPITATION (IN): 0.00 24 HR MAX TEMP (F): 7124 HR MIN TEMP (F): 65PEAK WIND SPEED (MPH): 26 PEAK WIND DIR (DEG):230 PEAK WIND TIME (LST):      FASTEST 2MIN SPEED (MPH): 16FASTEST 2MIN DIR (DEG):230 FASTEST 2MIN TIME (LST):     AVERAGE WIND SPEED (MPH): 9.3 24 HR AVG TEMP (F): 68DEPART FROM NORMAL:  2  HEATING DEGREE DAYS:  0 COOLING DEGREE DAYS:  3
0465999999137242025060604596+39378-074424SOD  +000355N  V020999999999999999999999999999+99999+99999999999ADDAA124000095KA1240M+02285KA2240N+01835OE11240120722099995OE22240071523099995OE33240043899999995REMSOD35924 HR PRECIPITATION (IN): 0.00 24 HR MAX TEMP (F): 7324 HR MIN TEMP (F): 65PEAK WIND SPEED (MPH): 27 PEAK WIND DIR (DEG):220 PEAK WIND TIME (LST):      FASTEST 2MIN SPEED (MPH): 16FASTEST 2MIN DIR (DEG):230 FASTEST 2MIN TIME (LST):     AVERAGE WIND SPEED (MPH): 9.8 24 HR AVG TEMP (F): 69DEPART FROM NORMAL:  3  HEATING DEGREE DAYS:  0 COOLING DEGREE DAYS:  4
0465999999137242025060704596+39378-074424SOD  +000355N  V020999999999999999999999999999+99999+99999999999ADDAA124000095KA1240M+02395KA2240N+01785OE11240080520099995OE22240058120099995OE33240028299999995REMSOD35924 HR PRECIPITATION (IN): 0.00 24 HR MAX TEMP (F): 7524 HR MIN TEMP (F): 64PEAK WIND SPEED (MPH): 18 PEAK WIND DIR (DEG):200 PEAK WIND TIME (LST):      FASTEST 2MIN SPEED (MPH): 13FASTEST 2MIN DIR (DEG):200 FASTEST 2MIN TIME (LST):     AVERAGE WIND SPEED (MPH): 6.3 24 HR AVG TEMP (F): 70DEPART FROM NORMAL:  3  HEATING DEGREE DAYS:  0 COOLING DEGREE DAYS:  5
0484999999137242025060804596+39378-074424SOD  +000355N  V020999999999999999999999999999+99999+99999999999ADDAA124005396KA1240M+02285KA2240N+01785OE11240053627099995OE22240040223099995OE33240018899999995REMSOD35924 HR PRECIPITATION (IN): 0.21 24 HR MAX TEMP (F): 7324 HR MIN TEMP (F): 64PEAK WIND SPEED (MPH): 12 PEAK WIND DIR (DEG):270 PEAK WIND TIME (LST):      FASTEST 2MIN SPEED (MPH):  9FASTEST 2MIN DIR (DEG):230 FASTEST 2MIN TIME (LST):     AVERAGE WIND SPEED (MPH): 4.2 24 HR AVG TEMP (F): 69DEPART FROM NORMAL:  2  HEATING DEGREE DAYS:  0 COOLING DEGREE DAYS:  4EQDR01  0.217AAP092
0484999999137242025060904596+39378-074424SOD  +000355N  V020999999999999999999999999999+99999+99999999999ADDAA124000026KA1240M+02115KA2240N+01675OE11240107307099995OE22240067111099995OE33240047499999995REMSOD35924 HR PRECIPITATION (IN):    T 24 HR MAX TEMP (F): 7024 HR MIN TEMP (F): 62PEAK WIND SPEED (MPH): 24 PEAK WIND DIR (DEG): 70 PEAK WIND TIME (LST):      FASTEST 2MIN SPEED (MPH): 15FASTEST 2MIN DIR (DEG):110 FASTEST 2MIN TIME (LST):     AVERAGE WIND SPEED (MPH):10.6 24 HR AVG TEMP (F): 66DEPART FROM NORMAL: -2  HEATING DEGREE DAYS:  0 COOLING DEGREE DAYS:  1EQDR01     T7AAP092
0484999999137242025061004596+39378-074424SOD  +000355N  V020999999999999999999999999999+99999+99999999999ADDAA124000026KA1240M+02005KA2240N+01675OE11240089406099995OE22240062609099995OE33240037699999995REMSOD35924 HR PRECIPITATION (IN):    T 24 HR MAX TEMP (F): 6824 HR MIN TEMP (F): 62PEAK WIND SPEED (MPH): 20 PEAK WIND DIR (DEG): 60 PEAK WIND TIME (LST):      FASTEST 2MIN SPEED (MPH): 14FASTEST 2MIN DIR (DEG): 90 FASTEST 2MIN TIME (LST):     AVERAGE WIND SPEED (MPH): 8.4 24 HR AVG TEMP (F): 65DEPART FROM NORMAL: -3  HEATING DEGREE DAYS:  0 COOLING DEGREE DAYS:  0EQDR01     T7AAP092
0484999999137242025061104596+39378-074424SOD  +000355N  V020999999999999999999999999999+99999+99999999999ADDAA124000396KA1240M+02565KA2240N+01675OE11240089433099995OE22240053633099995OE33240025599999995REMSOD35924 HR PRECIPITATION (IN): 0.01 24 HR MAX TEMP (F): 7824 HR MIN TEMP (F): 62PEAK WIND SPEED (MPH): 20 PEAK WIND DIR (DEG):330 PEAK WIND TIME (LST):      FASTEST 2MIN SPEED (MPH): 12FASTEST 2MIN DIR (DEG):330 FASTEST 2MIN TIME (LST):     AVERAGE WIND SPEED (MPH): 5.7 24 HR AVG TEMP (F): 70DEPART FROM NORMAL:  2  HEATING DEGREE DAYS:  0 COOLING DEGREE DAYS:  5EQDR01  0.017AAP092
0465999999137242025061204596+39378-074424SOD  +000355N  V020999999999999999999999999999+99999+99999999999ADDAA124000095KA1240M+02615KA2240N+02005OE11240098323099995OE22240062623099995OE33240031399999995REMSOD35924 HR PRECIPITATION (IN): 0.00 24 HR MAX TEMP (F): 7924 HR MIN TEMP (F): 68PEAK WIND SPEED (MPH): 22 PEAK WIND DIR (DEG):230 PEAK WIND TIME (LST):      FASTEST 2MIN SPEED (MPH): 14FASTEST 2MIN DIR (DEG):230 FASTEST 2MIN TIME (LST):     AVERAGE WIND SPEED (MPH): 7.0 24 HR AVG TEMP (F): 74DEPART FROM NORMAL:  5  HEATING DEGREE DAYS:  0 COOLING DEGREE DAYS:  9
0465999999137242025061304596+39378-074424SOD  +000355N  V020999999999999999999999999999+99999+99999999999ADDAA124000095KA1240M+02835KA2240N+02115OE11240098322099995OE22240067122099995OE33240036299999995REMSOD35924 HR PRECIPITATION (IN): 0.00 24 HR MAX TEMP (F): 8324 HR MIN TEMP (F): 70PEAK WIND SPEED (MPH): 22 PEAK WIND DIR (DEG):220 PEAK WIND TIME (LST):      FASTEST 2MIN SPEED (MPH): 15FASTEST 2MIN DIR (DEG):220 FASTEST 2MIN TIME (LST):     AVERAGE WIND SPEED (MPH): 8.1 24 HR AVG TEMP (F): 77DEPART FROM NORMAL:  8  HEATING DEGREE DAYS:  0 COOLING DEGREE DAYS: 12
0465999999137242025061404596+39378-074424SOD  +000355N  V020999999999999999999999999999+99999+99999999999ADDAA124000095KA1240M+02445KA2240N+01895OE11240120707099995OE22240084908099995OE33240045699999995REMSOD35924 HR PRECIPITATION (IN): 0.00 24 HR MAX TEMP (F): 7624 HR MIN TEMP (F): 66PEAK WIND SPEED (MPH): 27 PEAK WIND DIR (DEG): 70 PEAK WIND TIME (LST):      FASTEST 2MIN SPEED (MPH): 19FASTEST 2MIN DIR (DEG): 80 FASTEST 2MIN TIME (LST):     AVERAGE WIND SPEED (MPH):10.2 24 HR AVG TEMP (F): 71DEPART FROM NORMAL:  2  HEATING DEGREE DAYS:  0 COOLING DEGREE DAYS:  6
0484999999137242025061504596+39378-074424SOD  +000355N  V020999999999999999999999999999+99999+99999999999ADDAA124000026KA1240M+02005KA2240N+01675OE11240116207099995OE22240067107099995OE33240039899999995REMSOD35924 HR PRECIPITATION (IN):    T 24 HR MAX TEMP (F): 6824 HR MIN TEMP (F): 62PEAK WIND SPEED (MPH): 26 PEAK WIND DIR (DEG): 70 PEAK WIND TIME (LST):      FASTEST 2MIN SPEED (MPH): 15FASTEST 2MIN DIR (DEG): 70 FASTEST 2MIN TIME (LST):     AVERAGE WIND SPEED (MPH): 8.9 24 HR AVG TEMP (F): 65DEPART FROM NORMAL: -5  HEATING DEGREE DAYS:  0 COOLING DEGREE DAYS:  0EQDR01     T7AAP092
0465999999137242025061604596+39378-074424SOD  +000355N  V020999999999999999999999999999+99999+99999999999ADDAA124000095KA1240M+01725KA2240N+01615OE11240107307099995OE22240071508099995OE33240048799999995REMSOD35924 HR PRECIPITATION (IN): 0.00 24 HR MAX TEMP (F): 6324 HR MIN TEMP (F): 61PEAK WIND SPEED (MPH): 24 PEAK WIND DIR (DEG): 70 PEAK WIND TIME (LST):      FASTEST 2MIN SPEED (MPH): 16FASTEST 2MIN DIR (DEG): 80 FASTEST 2MIN TIME (LST):     AVERAGE WIND SPEED (MPH):10.9 24 HR AVG TEMP (F): 62DEPART FROM NORMAL: -8  HEATING DEGREE DAYS:  3 COOLING DEGREE DAYS:  0
0465999999137242025061704596+39378-074424SOD  +000355N  V020999999999999999999999999999+99999+99999999999ADDAA124000095KA1240M+01785KA2240N+01675OE11240089407099995OE22240062609099995OE33240039399999995REMSOD35924 HR PRECIPITATION (IN): 0.00 24 HR MAX TEMP (F): 6424 HR MIN TEMP (F): 62PEAK WIND SPEED (MPH): 20 PEAK WIND DIR (DEG): 70 PEAK WIND TIME (LST):      FASTEST 2MIN SPEED (MPH): 14FASTEST 2MIN DIR (DEG): 90 FASTEST 2MIN TIME (LST):     AVERAGE WIND SPEED (MPH): 8.8 24 HR AVG TEMP (F): 63DEPART FROM NORMAL: -7  HEATING DEGREE DAYS:  2 COOLING DEGREE DAYS:  0
0484999999137242025061804596+39378-074424SOD  +000355N  V020999999999999999999999999999+99999+99999999999ADDAA124000396KA1240M+02005KA2240N+01675OE11240058120099995OE22240035811099995OE33240024199999995REMSOD35924 HR PRECIPITATION (IN): 0.01 24 HR MAX TEMP (F): 6824 HR MIN TEMP (F): 62PEAK WIND SPEED (MPH): 13 PEAK WIND DIR (DEG):200 PEAK WIND TIME (LST):      FASTEST 2MIN SPEED (MPH):  8FASTEST 2MIN DIR (DEG):110 FASTEST 2MIN TIME (LST):     AVERAGE WIND SPEED (MPH): 5.4 24 HR AVG TEMP (F): 65DEPART FROM NORMAL: -6  HEATING DEGREE DAYS:  0 COOLING DEGREE DAYS:  0EQDR01  0.017AAP092
0526999999137242025061904596+39378-074424SOD  +000355N  V020999999999999999999999999999+99999+99999999999ADDAA124001896AX1036246KA1240M+02675KA2240N+01895OE11240107329099995OE22240049218099995OE33240029599999995REMSOD37624 HR PRECIPITATION (IN): 0.07 WEATHER(CODE):3  24 HR MAX TEMP (F): 8024 HR MIN TEMP (F): 66PEAK WIND SPEED (MPH): 24 PEAK WIND DIR (DEG):290 PEAK WIND TIME (LST):      FASTEST 2MIN SPEED (MPH): 11FASTEST 2MIN DIR (DEG):180 FASTEST 2MIN TIME (LST):     AVERAGE WIND SPEED (MPH): 6.6 24 HR AVG TEMP (F): 73DEPART FROM NORMAL:  2  HEATING DEGREE DAYS:  0 COOLING DEGREE DAYS:  8EQDR01  0.077AAP092R02     37AXW092
0526999999137242025062004596+39378-074424SOD  +000355N  V020999999999999999999999999999+99999+99999999999ADDAA124001896AX1036246KA1240M+02725KA2240N+02115OE11240165429099995OE22240089429099995OE33240043899999995REMSOD37624 HR PRECIPITATION (IN): 0.07 WEATHER(CODE):3  24 HR MAX TEMP (F): 8124 HR MIN TEMP (F): 70PEAK WIND SPEED (MPH): 37 PEAK WIND DIR (DEG):290 PEAK WIND TIME (LST):      FASTEST 2MIN SPEED (MPH): 20FASTEST 2MIN DIR (DEG):290 FASTEST 2MIN TIME (LST):     AVERAGE WIND SPEED (MPH): 9.8 24 HR AVG TEMP (F): 76DEPART FROM NORMAL:  5  HEATING DEGREE DAYS:  0 COOLING DEGREE DAYS: 11EQDR01  0.077AAP092R02     37AXW092
0465999999137242025062104596+39378-074424SOD  +000355N  V020999999999999999999999999999+99999+99999999999ADDAA124000095KA1240M+02835KA2240N+01945OE11240129629099995OE22240062627099995OE33240044399999995REMSOD35924 HR PRECIPITATION (IN): 0.00 24 HR MAX TEMP (F): 8324 HR MIN TEMP (F): 67PEAK WIND SPEED (MPH): 29 PEAK WIND DIR (DEG):290 PEAK WIND TIME (LST):      FASTEST 2MIN SPEED (MPH): 14FASTEST 2MIN DIR (DEG):270 FASTEST 2MIN TIME (LST):     AVERAGE WIND SPEED (MPH): 9.9 24 HR AVG TEMP (F): 75DEPART FROM NORMAL:  3  HEATING DEGREE DAYS:  0 COOLING DEGREE DAYS: 10
0465999999137242025062204596+39378-074424SOD  +000355N  V020999999999999999999999999999+99999+99999999999ADDAA124000095KA1240M+02835KA2240N+02285OE11240116222099995OE22240076022099995OE33240038499999995REMSOD35924 HR PRECIPITATION (IN): 0.00 24 HR MAX TEMP (F): 8324 HR MIN TEMP (F): 73PEAK WIND SPEED (MPH): 26 PEAK WIND DIR (DEG):220 PEAK WIND TIME (LST):      FASTEST 2MIN SPEED (MPH): 17FASTEST 2MIN DIR (DEG):220 FASTEST 2MIN TIME (LST):     AVERAGE WIND SPEED (MPH): 8.6 24 HR AVG TEMP (F): 78DEPART FROM NORMAL:  6  HEATING DEGREE DAYS:  0 COOLING DEGREE DAYS: 13
0465999999137242025062304596+39378-074424SOD  +000355N  V020999999999999999999999999999+99999+99999999999ADDAA124000095KA1240M+03065KA2240N+02335OE11240125225099995OE22240076025099995OE33240040299999995REMSOD35924 HR PRECIPITATION (IN): 0.00 24 HR MAX TEMP (F): 8724 HR MIN TEMP (F): 74PEAK WIND SPEED (MPH): 28 PEAK WIND DIR (DEG):250 PEAK WIND TIME (LST):      FASTEST 2MIN SPEED (MPH): 17FASTEST 2MIN DIR (DEG):250 FASTEST 2MIN TIME (LST):     AVERAGE WIND SPEED (MPH): 9.0 24 HR AVG TEMP (F): 81DEPART FROM NORMAL:  9  HEATING DEGREE DAYS:  0 COOLING DEGREE DAYS: 16
0465999999137242025062404596+39378-074424SOD  +000355N  V020999999999999999999999999999+99999+99999999999ADDAA124000095KA1240M+03395KA2240N+02565OE11240084927099995OE22240058123099995OE33240034999999995REMSOD35924 HR PRECIPITATION (IN): 0.00 24 HR MAX TEMP (F): 9324 HR MIN TEMP (F): 78PEAK WIND SPEED (MPH): 19 PEAK WIND DIR (DEG):270 PEAK WIND TIME (LST):      FASTEST 2MIN SPEED (MPH): 13FASTEST 2MIN DIR (DEG):230 FASTEST 2MIN TIME (LST):     AVERAGE WIND SPEED (MPH): 7.8 24 HR AVG TEMP (F): 86DEPART FROM NORMAL: 14  HEATING DEGREE DAYS:  0 COOLING DEGREE DAYS: 21
0465999999137242025062504596+39378-074424SOD  +000355N  V020999999999999999999999999999+99999+99999999999ADDAA124000095KA1240M+03505KA2240N+02615OE11240076023099995OE22240049225099995OE33240030099999995REMSOD35924 HR PRECIPITATION (IN): 0.00 24 HR MAX TEMP (F): 9524 HR MIN TEMP (F): 79PEAK WIND SPEED (MPH): 17 PEAK WIND DIR (DEG):230 PEAK WIND TIME (LST):      FASTEST 2MIN SPEED (MPH): 11FASTEST 2MIN DIR (DEG):250 FASTEST 2MIN TIME (LST):     AVERAGE WIND SPEED (MPH): 6.7 24 HR AVG TEMP (F): 87DEPART FROM NORMAL: 14  HEATING DEGREE DAYS:  0 COOLING DEGREE DAYS: 22
0484999999137242025062604596+39378-074424SOD  +000355N  V020999999999999999999999999999+99999+99999999999ADDAA124017596KA1240M+03335KA2240N+02675OE11240178832099995OE22240093932099995OE33240030099999995REMSOD35924 HR PRECIPITATION (IN): 0.69 24 HR MAX TEMP (F): 9224 HR MIN TEMP (F): 80PEAK WIND SPEED (MPH): 40 PEAK WIND DIR (DEG):320 PEAK WIND TIME (LST):      FASTEST 2MIN SPEED (MPH): 21FASTEST 2MIN DIR (DEG):320 FASTEST 2MIN TIME (LST):     AVERAGE WIND SPEED (MPH): 6.7 24 HR AVG TEMP (F): 86DEPART FROM NORMAL: 13  HEATING DEGREE DAYS:  0 COOLING DEGREE DAYS: 21EQDR01  0.697AAP092
0465999999137242025062704596+39378-074424SOD  +000355N  V020999999999999999999999999999+99999+99999999999ADDAA124000095KA1240M+02785KA2240N+01945OE11240147507099995OE22240084908099995OE33240046099999995REMSOD35924 HR PRECIPITATION (IN): 0.00 24 HR MAX TEMP (F): 8224 HR MIN TEMP (F): 67PEAK WIND SPEED (MPH): 33 PEAK WIND DIR (DEG): 70 PEAK WIND TIME (LST):      FASTEST 2MIN SPEED (MPH): 19FASTEST 2MIN DIR (DEG): 80 FASTEST 2MIN TIME (LST):     AVERAGE WIND SPEED (MPH):10.3 24 HR AVG TEMP (F): 75DEPART FROM NORMAL:  2  HEATING DEGREE DAYS:  0 COOLING DEGREE DAYS: 10
0484999999137242025062804596+39378-074424SOD  +000355N  V020999999999999999999999999999+99999+99999999999ADDAA124000026KA1240M+02005KA2240N+01835OE11240120708099995OE22240084909099995OE33240060499999995REMSOD35924 HR PRECIPITATION (IN):    T 24 HR MAX TEMP (F): 6824 HR MIN TEMP (F): 65PEAK WIND SPEED (MPH): 27 PEAK WIND DIR (DEG): 80 PEAK WIND TIME (LST):      FASTEST 2MIN SPEED (MPH): 19FASTEST 2MIN DIR (DEG): 90 FASTEST 2MIN TIME (LST):     AVERAGE WIND SPEED (MPH):13.5 24 HR AVG TEMP (F): 67DEPART FROM NORMAL: -6  HEATING DEGREE DAYS:  0 COOLING DEGREE DAYS:  2EQDR01     T7AAP092
0500999999137242025062904596+39378-074424SOD  +000355N  V020999999999999999999999999999+99999+99999999999ADDAA124000026KA1240M+02615KA2240N+02066OE11240093920099995OE22240053620099995OE33240028299999995REMSOD35924 HR PRECIPITATION (IN):    T 24 HR MAX TEMP (F): 7924 HR MIN TEMP (F): 69PEAK WIND SPEED (MPH): 21 PEAK WIND DIR (DEG):200 PEAK WIND TIME (LST):      FASTEST 2MIN SPEED (MPH): 12FASTEST 2MIN DIR (DEG):200 FASTEST 2MIN TIME (LST):     AVERAGE WIND SPEED (MPH): 6.3 24 HR AVG TEMP (F): 74DEPART FROM NORMAL:  0  HEATING DEGREE DAYS:  0 COOLING DEGREE DAYS:  9EQDR01     T7AAP092R02    697KAN014
0484999999137242025063004596+39378-074424SOD  +000355N  V020999999999999999999999999999+99999+99999999999ADDAA124013596KA1240M+03005KA2240N+02395OE11240120729099995OE22240076024099995OE33240027799999995REMSOD35924 HR PRECIPITATION (IN): 0.53 24 HR MAX TEMP (F): 8624 HR MIN TEMP (F): 75PEAK WIND SPEED (MPH): 27 PEAK WIND DIR (DEG):290 PEAK WIND TIME (LST):      FASTEST 2MIN SPEED (MPH): 17FASTEST 2MIN DIR (DEG):240 FASTEST 2MIN TIME (LST):     AVERAGE WIND SPEED (MPH): 6.2 24 HR AVG TEMP (F): 81DEPART FROM NORMAL:  7  HEATING DEGREE DAYS:  0 COOLING DEGREE DAYS: 16EQDR01  0.537AAP092
0484999999137242025070104596+39378-074424SOD  +000355N  V020999999999999999999999999999+99999+99999999999ADDAA124001596KA1240M+02785KA2240N+02335OE11240116223099995OE22240067123099995OE33240033199999995REMSOD35924 HR PRECIPITATION (IN): 0.06 24 HR MAX TEMP (F): 8224 HR MIN TEMP (F): 74PEAK WIND SPEED (MPH): 26 PEAK WIND DIR (DEG):230 PEAK WIND TIME (LST):      FASTEST 2MIN SPEED (MPH): 15FASTEST 2MIN DIR (DEG):230 FASTEST 2MIN TIME (LST):     AVERAGE WIND SPEED (MPH): 7.4 24 HR AVG TEMP (F): 78DEPART FROM NORMAL:  4  HEATING DEGREE DAYS:  0 COOLING DEGREE DAYS: 13EQDR01  0.067AAP092
0484999999137242025070204596+39378-074424SOD  +000355N  V020999999999999999999999999999+99999+99999999999ADDAA124011296KA1240M+02785KA2240N+02335OE11240156525099995OE22240093922099995OE33240049299999995REMSOD35924 HR PRECIPITATION (IN): 0.44 24 HR MAX TEMP (F): 8224 HR MIN TEMP (F): 74PEAK WIND SPEED (MPH): 35 PEAK WIND DIR (DEG):250 PEAK WIND TIME (LST):      FASTEST 2MIN SPEED (MPH): 21FASTEST 2MIN DIR (DEG):220 FASTEST 2MIN TIME (LST):     AVERAGE WIND SPEED (MPH):11.0 24 HR AVG TEMP (F): 78DEPART FROM NORMAL:  4  HEATING DEGREE DAYS:  0 COOLING DEGREE DAYS: 13EQDR01  0.447AAP092
0484999999137242025070304596+39378-074424SOD  +000355N  V020999999999999999999999999999+99999+99999999999ADDAA124037396KA1240M+02505KA2240N+02065OE11240080503099995OE22240049222099995OE33240023299999995REMSOD35924 HR PRECIPITATION (IN): 1.47 24 HR MAX TEMP (F): 7724 HR MIN TEMP (F): 69PEAK WIND SPEED (MPH): 18 PEAK WIND DIR (DEG): 30 PEAK WIND TIME (LST):      FASTEST 2MIN SPEED (MPH): 11FASTEST 2MIN DIR (DEG):220 FASTEST 2MIN TIME (LST):     AVERAGE WIND SPEED (MPH): 5.2 24 HR AVG TEMP (F): 73DEPART FROM NORMAL: -1  HEATING DEGREE DAYS:  0 COOLING DEGREE DAYS:  8EQDR01  1.477AAP092
0484999999137242025070404596+39378-074424SOD  +000355N  V020999999999999999999999999999+99999+99999999999ADDAA124002896KA1240M+03175KA2240N+02115OE11240107304099995OE22240062626099995OE33240033599999995REMSOD35924 HR PRECIPITATION (IN): 0.11 24 HR MAX TEMP (F): 8924 HR MIN TEMP (F): 70PEAK WIND SPEED (MPH): 24 PEAK WIND DIR (DEG): 40 PEAK WIND TIME (LST):      FASTEST 2MIN SPEED (MPH): 14FASTEST 2MIN DIR (DEG):260 FASTEST 2MIN TIME (LST):     AVERAGE WIND SPEED (MPH): 7.5 24 HR AVG TEMP (F): 80DEPART FROM NORMAL:  6  HEATING DEGREE DAYS:  0 COOLING DEGREE DAYS: 15EQDR01  0.117AAP092
0465999999137242025070504596+39378-074424SOD  +000355N  V020999999999999999999999999999+99999+99999999999ADDAA124000095KA1240M+02785KA2240N+02065OE11240080522099995OE22240053616099995OE33240021999999995REMSOD35924 HR PRECIPITATION (IN): 0.00 24 HR MAX TEMP (F): 8224 HR MIN TEMP (F): 69PEAK WIND SPEED (MPH): 18 PEAK WIND DIR (DEG):220 PEAK WIND TIME (LST):      FASTEST 2MIN SPEED (MPH): 12FASTEST 2MIN DIR (DEG):160 FASTEST 2MIN TIME (LST):     AVERAGE WIND SPEED (MPH): 4.9 24 HR AVG TEMP (F): 76DEPART FROM NORMAL:  1  HEATING DEGREE DAYS:  0 COOLING DEGREE DAYS: 11
0465999999137242025070604596+39378-074424SOD  +000355N  V020999999999999999999999999999+99999+99999999999ADDAA124000095KA1240M+02725KA2240N+02115OE11240111823099995OE22240067123099995OE33240034499999995REMSOD35924 HR PRECIPITATION (IN): 0.00 24 HR MAX TEMP (F): 8124 HR MIN TEMP (F): 70PEAK WIND SPEED (MPH): 25 PEAK WIND DIR (DEG):230 PEAK WIND TIME (LST):      FASTEST 2MIN SPEED (MPH): 15FASTEST 2MIN DIR (DEG):230 FASTEST 2MIN TIME (LST):     AVERAGE WIND SPEED (MPH): 7.7 24 HR AVG TEMP (F): 76DEPART FROM NORMAL:  1  HEATING DEGREE DAYS:  0 COOLING DEGREE DAYS: 11
0465999999137242025070704596+39378-074424SOD  +000355N  V020999999999999999999999999999+99999+99999999999ADDAA124000095KA1240M+02675KA2240N+02285OE11240089419099995OE22240053618099995OE33240034499999995REMSOD35924 HR PRECIPITATION (IN): 0.00 24 HR MAX TEMP (F): 8024 HR MIN TEMP (F): 73PEAK WIND SPEED (MPH): 20 PEAK WIND DIR (DEG):190 PEAK WIND TIME (LST):      FASTEST 2MIN SPEED (MPH): 12FASTEST 2MIN DIR (DEG):180 FASTEST 2MIN TIME (LST):     AVERAGE WIND SPEED (MPH): 7.7 24 HR AVG TEMP (F): 77DEPART FROM NORMAL:  2  HEATING DEGREE DAYS:  0 COOLING DEGREE DAYS: 12
0484999999137242025070804596+39378-074424SOD  +000355N  V020999999999999999999999999999+99999+99999999999ADDAA124000896KA1240M+02675KA2240N+02445OE11240116218099995OE22240067118099995OE33240041699999995REMSOD35924 HR PRECIPITATION (IN): 0.03 24 HR MAX TEMP (F): 8024 HR MIN TEMP (F): 76PEAK WIND SPEED (MPH): 26 PEAK WIND DIR (DEG):180 PEAK WIND TIME (LST):      FASTEST 2MIN SPEED (MPH): 15FASTEST 2MIN DIR (DEG):180 FASTEST 2MIN TIME (LST):     AVERAGE WIND SPEED (MPH): 9.3 24 HR AVG TEMP (F): 78DEPART FROM NORMAL:  3  HEATING DEGREE DAYS:  0 COOLING DEGREE DAYS: 13EQDR01  0.037AAP092
0484999999137242025070904596+39378-074424SOD  +000355N  V020999999999999999999999999999+99999+99999999999ADDAA124002396KA1240M+03225KA2240N+02335OE11240156533099995OE22240089433099995OE33240040299999995REMSOD35924 HR PRECIPITATION (IN): 0.09 24 HR MAX TEMP (F): 9024 HR MIN TEMP (F): 74PEAK WIND SPEED (MPH): 35 PEAK WIND DIR (DEG):330 PEAK WIND TIME (LST):      FASTEST 2MIN SPEED (MPH): 20FASTEST 2MIN DIR (DEG):330 FASTEST 2MIN TIME (LST):     AVERAGE WIND SPEED (MPH): 9.0 24 HR AVG TEMP (F): 82DEPART FROM NORMAL:  7  HEATING DEGREE DAYS:  0 COOLING DEGREE DAYS: 17EQDR01  0.097AAP092
0526999999137242025071004596+39378-074424SOD  +000355N  V020999999999999999999999999999+99999+99999999999ADDAA124030596AX1036246KA1240M+02785KA2240N+02225OE11240143129099995OE22240093925099995OE33240036799999995REMSOD37624 HR PRECIPITATION (IN): 1.20 WEATHER(CODE):3  24 HR MAX TEMP (F): 8224 HR MIN TEMP (F): 72PEAK WIND SPEED (MPH): 32 PEAK WIND DIR (DEG):290 PEAK WIND TIME (LST):      FASTEST 2MIN SPEED (MPH): 21FASTEST 2MIN DIR (DEG):250 FASTEST 2MIN TIME (LST):     AVERAGE WIND SPEED (MPH): 8.2 24 HR AVG TEMP (F): 77DEPART FROM NORMAL:  2  HEATING DEGREE DAYS:  0 COOLING DEGREE DAYS: 12EQDR01  1.207AAP092R02     37AXW092
0526999999137242025071104596+39378-074424SOD  +000355N  V020999999999999999999999999999+99999+99999999999ADDAA124012796AX1036246KA1240M+02505KA2240N+02175OE11240098322099995OE22240058124099995OE33240022899999995REMSOD37624 HR PRECIPITATION (IN): 0.50 WEATHER(CODE):3  24 HR MAX TEMP (F): 7724 HR MIN TEMP (F): 71PEAK WIND SPEED (MPH): 22 PEAK WIND DIR (DEG):220 PEAK WIND TIME (LST):      FASTEST 2MIN SPEED (MPH): 13FASTEST 2MIN DIR (DEG):240 FASTEST 2MIN TIME (LST):     AVERAGE WIND SPEED (MPH): 5.1 24 HR AVG TEMP (F): 74DEPART FROM NORMAL: -1  HEATING DEGREE DAYS:  0 COOLING DEGREE DAYS:  9EQDR01  0.507AAP092R02     37AXW092
0484999999137242025071204596+39378-074424SOD  +000355N  V020999999999999999999999999999+99999+99999999999ADDAA124002096KA1240M+02565KA2240N+02225OE11240080509099995OE22240058110099995OE33240025999999995REMSOD35924 HR PRECIPITATION (IN): 0.08 24 HR MAX TEMP (F): 7824 HR MIN TEMP (F): 72PEAK WIND SPEED (MPH): 18 PEAK WIND DIR (DEG): 90 PEAK WIND TIME (LST):      FASTEST 2MIN SPEED (MPH): 13FASTEST 2MIN DIR (DEG):100 FASTEST 2MIN TIME (LST):     AVERAGE WIND SPEED (MPH): 5.8 24 HR AVG TEMP (F): 75DEPART FROM NORMAL:  0  HEATING DEGREE DAYS:  0 COOLING DEGREE DAYS: 10EQDR01  0.087AAP092
0465999999137242025071304596+39378-074424SOD  +000355N  V020999999999999999999999999999+99999+99999999999ADDAA124000095KA1240M+02505KA2240N+02395OE11240071512099995OE22240053613099995OE33240030899999995REMSOD35924 HR PRECIPITATION (IN): 0.00 24 HR MAX TEMP (F): 7724 HR MIN TEMP (F): 75PEAK WIND SPEED (MPH): 16 PEAK WIND DIR (DEG):120 PEAK WIND TIME (LST):      FASTEST 2MIN SPEED (MPH): 12FASTEST 2MIN DIR (DEG):130 FASTEST 2MIN TIME (LST):     AVERAGE WIND SPEED (MPH): 6.9 24 HR AVG TEMP (F): 76DEPART FROM NORMAL:  0  HEATING DEGREE DAYS:  0 COOLING DEGREE DAYS: 11
0484999999137242025071404596+39378-074424SOD  +000355N  V020999999999999999999999999999+99999+99999999999ADDAA124000026KA1240M+02565KA2240N+02395OE11240076011099995OE22240053611099995OE33240034499999995REMSOD35924 HR PRECIPITATION (IN):    T 24 HR MAX TEMP (F): 7824 HR MIN TEMP (F): 75PEAK WIND SPEED (MPH): 17 PEAK WIND DIR (DEG):110 PEAK WIND TIME (LST):      FASTEST 2MIN SPEED (MPH): 12FASTEST 2MIN DIR (DEG):110 FASTEST 2MIN TIME (LST):     AVERAGE WIND SPEED (MPH): 7.7 24 HR AVG TEMP (F): 77DEPART FROM NORMAL:  1  HEATING DEGREE DAYS:  0 COOLING DEGREE DAYS: 12EQDR01     T7AAP092
0484999999137242025071504596+39378-074424SOD  +000355N  V020999999999999999999999999999+99999+99999999999ADDAA124001396KA1240M+02785KA2240N+02505OE11240089418099995OE22240062618099995OE33240032699999995REMSOD35924 HR PRECIPITATION (IN): 0.05 24 HR MAX TEMP (F): 8224 HR MIN TEMP (F): 77PEAK WIND SPEED (MPH): 20 PEAK WIND DIR (DEG):180 PEAK WIND TIME (LST):      FASTEST 2MIN SPEED (MPH): 14FASTEST 2MIN DIR (DEG):180 FASTEST 2MIN TIME (LST):     AVERAGE WIND SPEED (MPH): 7.3 24 HR AVG TEMP (F): 80DEPART FROM NORMAL:  4  HEATING DEGREE DAYS:  0 COOLING DEGREE DAYS: 15EQDR01  0.057AAP092
0484999999137242025071604596+39378-074424SOD  +000355N  V020999999999999999999999999999+99999+99999999999ADDAA124000396KA1240M+02725KA2240N+02395OE11240098322099995OE22240062623099995OE33240032699999995REMSOD35924 HR PRECIPITATION (IN): 0.01 24 HR MAX TEMP (F): 8124 HR MIN TEMP (F): 75PEAK WIND SPEED (MPH): 22 PEAK WIND DIR (DEG):220 PEAK WIND TIME (LST):      FASTEST 2MIN SPEED (MPH): 14FASTEST 2MIN DIR (DEG):230 FASTEST 2MIN TIME (LST):     AVERAGE WIND SPEED (MPH): 7.3 24 HR AVG TEMP (F): 78DEPART FROM NORMAL:  2  HEATING DEGREE DAYS:  0 COOLING DEGREE DAYS: 13EQDR01  0.017AAP092
0484999999137242025071704596+39378-074424SOD  +000355N  V020999999999999999999999999999+99999+99999999999ADDAA124000026KA1240M+02835KA2240N+02505OE11240116223099995OE22240071523099995OE33240043499999995REMSOD35924 HR PRECIPITATION (IN):    T 24 HR MAX TEMP (F): 8324 HR MIN TEMP (F): 77PEAK WIND SPEED (MPH): 26 PEAK WIND DIR (DEG):230 PEAK WIND TIME (LST):      FASTEST 2MIN SPEED (MPH): 16FASTEST 2MIN DIR (DEG):230 FASTEST 2MIN TIME (LST):     AVERAGE WIND SPEED (MPH): 9.7 24 HR AVG TEMP (F): 80DEPART FROM NORMAL:  4  HEATING DEGREE DAYS:  0 COOLING DEGREE DAYS: 15EQDR01     T7AAP092
0484999999137242025071804596+39378-074424SOD  +000355N  V020999999999999999999999999999+99999+99999999999ADDAA124000396KA1240M+03225KA2240N+02445OE11240116226099995OE22240076026099995OE33240045299999995REMSOD35924 HR PRECIPITATION (IN): 0.01 24 HR MAX TEMP (F): 9024 HR MIN TEMP (F): 76PEAK WIND SPEED (MPH): 26 PEAK WIND DIR (DEG):260 PEAK WIND TIME (LST):      FASTEST 2MIN SPEED (MPH): 17FASTEST 2MIN DIR (DEG):260 FASTEST 2MIN TIME (LST):     AVERAGE WIND SPEED (MPH):10.1 24 HR AVG TEMP (F): 83DEPART FROM NORMAL:  7  HEATING DEGREE DAYS:  0 COOLING DEGREE DAYS: 18EQDR01  0.017AAP092
0465999999137242025071904596+39378-074424SOD  +000355N  V020999999999999999999999999999+99999+99999999999ADDAA124000095KA1240M+02945KA2240N+02395OE11240071533099995OE22240044712099995OE33240025599999995REMSOD35924 HR PRECIPITATION (IN): 0.00 24 HR MAX TEMP (F): 8524 HR MIN TEMP (F): 75PEAK WIND SPEED (MPH): 16 PEAK WIND DIR (DEG):330 PEAK WIND TIME (LST):      FASTEST 2MIN SPEED (MPH): 10FASTEST 2MIN DIR (DEG):120 FASTEST 2MIN TIME (LST):     AVERAGE WIND SPEED (MPH): 5.7 24 HR AVG TEMP (F): 80DEPART FROM NORMAL:  4  HEATING DEGREE DAYS:  0 COOLING DEGREE DAYS: 15
0484999999137242025072004596+39378-074424SOD  +000355N  V020999999999999999999999999999+99999+99999999999ADDAA124006996KA1240M+02565KA2240N+02285OE11240080514099995OE22240053614099995OE33240032699999995REMSOD35924 HR PRECIPITATION (IN): 0.27 24 HR MAX TEMP (F): 7824 HR MIN TEMP (F): 73PEAK WIND SPEED (MPH): 18 PEAK WIND DIR (DEG):140 PEAK WIND TIME (LST):      FASTEST 2MIN SPEED (MPH): 12FASTEST 2MIN DIR (DEG):140 FASTEST 2MIN TIME (LST):     AVERAGE WIND SPEED (MPH): 7.3 24 HR AVG TEMP (F): 76DEPART FROM NORMAL:  0  HEATING DEGREE DAYS:  0 COOLING DEGREE DAYS: 11EQDR01  0.277AAP092
0465999999137242025072104596+39378-074424SOD  +000355N  V020999999999999999999999999999+99999+99999999999ADDAA124000095KA1240M+03005KA2240N+02395OE11240102826099995OE22240067126099995OE33240034099999995REMSOD35924 HR PRECIPITATION (IN): 0.00 24 HR MAX TEMP (F): 8624 HR MIN TEMP (F): 75PEAK WIND SPEED (MPH): 23 PEAK WIND DIR (DEG):260 PEAK WIND TIME (LST):      FASTEST 2MIN SPEED (MPH): 15FASTEST 2MIN DIR (DEG):260 FASTEST 2MIN TIME (LST):     AVERAGE WIND SPEED (MPH): 7.6 24 HR AVG TEMP (F): 81DEPART FROM NORMAL:  5  HEATING DEGREE DAYS:  0 COOLING DEGREE DAYS: 16
0465999999137242025072204596+39378-074424SOD  +000355N  V020999999999999999999999999999+99999+99999999999ADDAA124000095KA1240M+02675KA2240N+02335OE11240076018099995OE22240053612099995OE33240028299999995REMSOD35924 HR PRECIPITATION (IN): 0.00 24 HR MAX TEMP (F): 8024 HR MIN TEMP (F): 74PEAK WIND SPEED (MPH): 17 PEAK WIND DIR (DEG):180 PEAK WIND TIME (LST):      FASTEST 2MIN SPEED (MPH): 12FASTEST 2MIN DIR (DEG):120 FASTEST 2MIN TIME (LST):     AVERAGE WIND SPEED (MPH): 6.3 24 HR AVG TEMP (F): 77DEPART FROM NORMAL:  1  HEATING DEGREE DAYS:  0 COOLING DEGREE DAYS: 12
