0465999999137242024010104596+39378-074424SOD  +000355N  V030999999999999999999999999999+99999+99999999999ADDAA124000095KA1240M+00785KA2240N+00395OE11240102829099995OE22240053629099995OE33240023799999995REMSOD35924 HR PRECIPITATION (IN): 0.00 24 HR MAX TEMP (F): 4624 HR MIN TEMP (F): 39PEAK WIND SPEED (MPH): 23 PEAK WIND DIR (DEG):290 PEAK WIND TIME (LST):      FASTEST 2MIN SPEED (MPH): 12FASTEST 2MIN DIR (DEG):290 FASTEST 2MIN TIME (LST):     AVERAGE WIND SPEED (MPH): 5.3 24 HR AVG TEMP (F): 43DEPART FROM NORMAL:  5  HEATING DEGREE DAYS: 22 COOLING DEGREE DAYS:  0
0128999999137242024010104596+39378-074424SOM  +000355N  V030999999999999999999999999999+99999+99999999999ADDAD1005289181899999999IAE109U08U04U02UKB1240N+0461IKB2240M+0989IKB3240A+0722IKC1N9-0011209999IKC2M9+0156189999IKE100U00U04U00U
0500999999137242024010204596+39378-074424SOD  +000355N  V030999999999999999999999999999+99999+99999999999ADDAA12400009AKA1240M+00785KA2240N+00505OE11240080501099995OE22240044705099995OE33240018899999995REMSOD35924 HR PRECIPITATION (IN):    T 24 HR MAX TEMP (F): 4624 HR MIN TEMP (F): 41PEAK WIND SPEED (MPH): 18 PEAK WIND DIR (DEG): 10 PEAK WIND TIME (LST):      FASTEST 2MIN SPEED (MPH): 10FASTEST 2MIN DIR (DEG): 50 FASTEST 2MIN TIME (LST):     AVERAGE WIND SPEED (MPH): 4.2 24 HR AVG TEMP (F): 44DEPART FROM NORMAL:  7  HEATING DEGREE DAYS: 21 COOLING DEGREE DAYS:  0EQDQ01  00002PRCP24R01     T7AAP092
0465999999137242024010304596+39378-074424SOD  +000355N  V030999999999999999999999999999+99999+99999999999ADDAA124000095KA1240M+00615KA2240N+00005OE11240098335099995OE22240053633099995OE33240028699999995REMSOD35924 HR PRECIPITATION (IN): 0.00 24 HR MAX TEMP (F): 4324 HR MIN TEMP (F): 32PEAK WIND SPEED (MPH): 22 PEAK WIND DIR (DEG):350 PEAK WIND TIME (LST):      FASTEST 2MIN SPEED (MPH): 12FASTEST 2MIN DIR (DEG):330 FASTEST 2MIN TIME (LST):     AVERAGE WIND SPEED (MPH): 6.4 24 HR AVG TEMP (F): 38DEPART FROM NORMAL:  1  HEATING DEGREE DAYS: 27 COOLING DEGREE DAYS:  0
0465999999137242024010404596+39378-074424SOD  +000355N  V030999999999999999999999999999+99999+99999999999ADDAA124000095KA1240M+00675KA2240N+00005OE11240080529099995OE22240040229099995OE33240023799999995REMSOD35924 HR PRECIPITATION (IN): 0.00 24 HR MAX TEMP (F): 4424 HR MIN TEMP (F): 32PEAK WIND SPEED (MPH): 18 PEAK WIND DIR (DEG):290 PEAK WIND TIME (LST):      FASTEST 2MIN SPEED (MPH):  9FASTEST 2MIN DIR (DEG):290 FASTEST 2MIN TIME (LST):     AVERAGE WIND SPEED (MPH): 5.3 24 HR AVG TEMP (F): 38DEPART FROM NORMAL:  1  HEATING DEGREE DAYS: 27 COOLING DEGREE DAYS:  0
0465999999137242024010504596+39378-074424SOD  +000355N  V030999999999999999999999999999+99999+99999999999ADDAA124000095KA1240M+00615KA2240N+00005OE11240156533099995OE22240076033099995OE33240037199999995REMSOD35924 HR PRECIPITATION (IN): 0.00 24 HR MAX TEMP (F): 4324 HR MIN TEMP (F): 32PEAK WIND SPEED (MPH): 35 PEAK WIND DIR (DEG):330 PEAK WIND TIME (LST):      FASTEST 2MIN SPEED (MPH): 17FASTEST 2MIN DIR (DEG):330 FASTEST 2MIN TIME (LST):     AVERAGE WIND SPEED (MPH): 8.3 24 HR AVG TEMP (F): 38DEPART FROM NORMAL:  1  HEATING DEGREE DAYS: 27 COOLING DEGREE DAYS:  0
0465999999137242024010604596+39378-074424SOD  +000355N  V030999999999999999999999999999+99999+99999999999ADDAA124000095KA1240M+00285KA2240N-00325OE11240125233099995OE22240062633099995OE33240032699999995REMSOD35924 HR PRECIPITATION (IN): 0.00 24 HR MAX TEMP (F): 3724 HR MIN TEMP (F): 26PEAK WIND SPEED (MPH): 28 PEAK WIND DIR (DEG):330 PEAK WIND TIME (LST):      FASTEST 2MIN SPEED (MPH): 14FASTEST 2MIN DIR (DEG):330 FASTEST 2MIN TIME (LST):     AVERAGE WIND SPEED (MPH): 7.3 24 HR AVG TEMP (F): 32DEPART FROM NORMAL: -5  HEATING DEGREE DAYS: 33 COOLING DEGREE DAYS:  0
0484999999137242024010704596+39378-074424SOD  +000355N  V030999999999999999999999999999+99999+99999999999ADDAA12403409AKA1240M+00945KA2240N+00005OE11240214610099995OE22240156510099995OE33240055499999995REMSOD35924 HR PRECIPITATION (IN): 1.34 24 HR MAX TEMP (F): 4924 HR MIN TEMP (F): 32PEAK WIND SPEED (MPH): 48 PEAK WIND DIR (DEG):100 PEAK WIND TIME (LST):      FASTEST 2MIN SPEED (MPH): 35FASTEST 2MIN DIR (DEG):100 FASTEST 2MIN TIME (LST):     AVERAGE WIND SPEED (MPH):12.4 24 HR AVG TEMP (F): 41DEPART FROM NORMAL:  4  HEATING DEGREE DAYS: 24 COOLING DEGREE DAYS:  0EQDR01  1.347AAP092
0484999999137242024010804596+39378-074424SOD  +000355N  V030999999999999999999999999999+99999+99999999999ADDAA12400159AKA1240M+00895KA2240N+00335OE11240165430099995OE22240080530099995OE33240042999999995REMSOD35924 HR PRECIPITATION (IN): 0.06 24 HR MAX TEMP (F): 4824 HR MIN TEMP (F): 38PEAK WIND SPEED (MPH): 37 PEAK WIND DIR (DEG):300 PEAK WIND TIME (LST):      FASTEST 2MIN SPEED (MPH): 18FASTEST 2MIN DIR (DEG):300 FASTEST 2MIN TIME (LST):     AVERAGE WIND SPEED (MPH): 9.6 24 HR AVG TEMP (F): 43DEPART FROM NORMAL:  7  HEATING DEGREE DAYS: 22 COOLING DEGREE DAYS:  0EQDR01  0.067AAP092
0465999999137242024010904596+39378-074424SOD  +000355N  V030999999999999999999999999999+99999+99999999999ADDAA124000095KA1240M+00785KA2240N+00225OE11240093933099995OE22240044729099995OE33240022499999995REMSOD35924 HR PRECIPITATION (IN): 0.00 24 HR MAX TEMP (F): 4624 HR MIN TEMP (F): 36PEAK WIND SPEED (MPH): 21 PEAK WIND DIR (DEG):330 PEAK WIND TIME (LST):      FASTEST 2MIN SPEED (MPH): 10FASTEST 2MIN DIR (DEG):290 FASTEST 2MIN TIME (LST):     AVERAGE WIND SPEED (MPH): 5.0 24 HR AVG TEMP (F): 41DEPART FROM NORMAL:  5  HEATING DEGREE DAYS: 24 COOLING DEGREE DAYS:  0
0484999999137242024011004596+39378-074424SOD  +000355N  V030999999999999999999999999999+99999+99999999999ADDAA12405119AKA1240M+01395KA2240N+00565OE11240250317099995OE22240134116099995OE33240071599999995REMSOD35924 HR PRECIPITATION (IN): 2.01 24 HR MAX TEMP (F): 5724 HR MIN TEMP (F): 42PEAK WIND SPEED (MPH): 56 PEAK WIND DIR (DEG):170 PEAK WIND TIME (LST):      FASTEST 2MIN SPEED (MPH): 30FASTEST 2MIN DIR (DEG):160 FASTEST 2MIN TIME (LST):     AVERAGE WIND SPEED (MPH):16.0 24 HR AVG TEMP (F): 50DEPART FROM NORMAL: 14  HEATING DEGREE DAYS: 15 COOLING DEGREE DAYS:  0EQDR01  2.017AAP092
0484999999137242024011104596+39378-074424SOD  +000355N  V030999999999999999999999999999+99999+99999999999ADDAA12400589AKA1240M+01285KA2240N+00675OE11240214629099995OE22240107328099995OE33240072099999995REMSOD35924 HR PRECIPITATION (IN): 0.23 24 HR MAX TEMP (F): 5524 HR MIN TEMP (F): 44PEAK WIND SPEED (MPH): 48 PEAK WIND DIR (DEG):290 PEAK WIND TIME (LST):      FASTEST 2MIN SPEED (MPH): 24FASTEST 2MIN DIR (DEG):280 FASTEST 2MIN TIME (LST):     AVERAGE WIND SPEED (MPH):16.1 24 HR AVG TEMP (F): 50DEPART FROM NORMAL: 14  HEATING DEGREE DAYS: 15 COOLING DEGREE DAYS:  0EQDR01  0.237AAP092
0465999999137242024011204596+39378-074424SOD  +000355N  V030999999999999999999999999999+99999+99999999999ADDAA124000095KA1240M+00785KA2240N+00335OE11240102826099995OE22240071526099995OE33240041199999995REMSOD35924 HR PRECIPITATION (IN): 0.00 24 HR MAX TEMP (F): 4624 HR MIN TEMP (F): 38PEAK WIND SPEED (MPH): 23 PEAK WIND DIR (DEG):260 PEAK WIND TIME (LST):      FASTEST 2MIN SPEED (MPH): 16FASTEST 2MIN DIR (DEG):260 FASTEST 2MIN TIME (LST):     AVERAGE WIND SPEED (MPH): 9.2 24 HR AVG TEMP (F): 42DEPART FROM NORMAL:  6  HEATING DEGREE DAYS: 23 COOLING DEGREE DAYS:  0
0484999999137242024011304596+39378-074424SOD  +000355N  V030999999999999999999999999999+99999+99999999999ADDAA12400539AKA1240M+01115KA2240N+00395OE11240160915099995OE22240098315099995OE33240041199999995REMSOD35924 HR PRECIPITATION (IN): 0.21 24 HR MAX TEMP (F): 5224 HR MIN TEMP (F): 39PEAK WIND SPEED (MPH): 36 PEAK WIND DIR (DEG):150 PEAK WIND TIME (LST):      FASTEST 2MIN SPEED (MPH): 22FASTEST 2MIN DIR (DEG):150 FASTEST 2MIN TIME (LST):     AVERAGE WIND SPEED (MPH): 9.2 24 HR AVG TEMP (F): 46DEPART FROM NORMAL: 10  HEATING DEGREE DAYS: 19 COOLING DEGREE DAYS:  0EQDR01  0.217AAP092
0484999999137242024011404596+39378-074424SOD  +000355N  V030999999999999999999999999999+99999+99999999999ADDAA12400539AKA1240M+01395KA2240N+00285OE11240219029099995OE22240129615099995OE33240081899999995REMSOD35924 HR PRECIPITATION (IN): 0.21 24 HR MAX TEMP (F): 5724 HR MIN TEMP (F): 37PEAK WIND SPEED (MPH): 49 PEAK WIND DIR (DEG):290 PEAK WIND TIME (LST):      FASTEST 2MIN SPEED (MPH): 29FASTEST 2MIN DIR (DEG):150 FASTEST 2MIN TIME (LST):     AVERAGE WIND SPEED (MPH):18.3 24 HR AVG TEMP (F): 47DEPART FROM NORMAL: 11  HEATING DEGREE DAYS: 18 COOLING DEGREE DAYS:  0EQDR01  0.217AAP092
0465999999137242024011504596+39378-074424SOD  +000355N  V030999999999999999999999999999+99999+99999999999ADDAA124000095KA1240M+00895KA2240N-00105OE11240241426099995OE22240129627099995OE33240056399999995REMSOD35924 HR PRECIPITATION (IN): 0.00 24 HR MAX TEMP (F): 4824 HR MIN TEMP (F): 30PEAK WIND SPEED (MPH): 54 PEAK WIND DIR (DEG):260 PEAK WIND TIME (LST):      FASTEST 2MIN SPEED (MPH): 29FASTEST 2MIN DIR (DEG):270 FASTEST 2MIN TIME (LST):     AVERAGE WIND SPEED (MPH):12.6 24 HR AVG TEMP (F): 39DEPART FROM NORMAL:  3  HEATING DEGREE DAYS: 26 COOLING DEGREE DAYS:  0
0484999999137242024011604596+39378-074424SOD  +000355N  V030999999999999999999999999999+99999+99999999999ADDAA12400519AKA1240M-00055KA2240N-00275OE11240071529099995OE22240040229099995OE33240020699999995REMSOD35924 HR PRECIPITATION (IN): 0.20 24 HR MAX TEMP (F): 3124 HR MIN TEMP (F): 27PEAK WIND SPEED (MPH): 16 PEAK WIND DIR (DEG):290 PEAK WIND TIME (LST):      FASTEST 2MIN SPEED (MPH):  9FASTEST 2MIN DIR (DEG):290 FASTEST 2MIN TIME (LST):     AVERAGE WIND SPEED (MPH): 4.6 24 HR AVG TEMP (F): 29DEPART FROM NORMAL: -7  HEATING DEGREE DAYS: 36 COOLING DEGREE DAYS:  0EQDR01  0.207AAP092
0526999999137242024011704596+39378-074424SOD  +000355N  V030999999999999999999999999999+99999+99999999999ADDAA12400849AAX1066246KA1240M+00615KA2240N-00495OE11240138633099995OE22240089409099995OE33240042599999995REMSOD37624 HR PRECIPITATION (IN): 0.33 WEATHER(CODE):6  24 HR MAX TEMP (F): 4324 HR MIN TEMP (F): 23PEAK WIND SPEED (MPH): 31 PEAK WIND DIR (DEG):330 PEAK WIND TIME (LST):      FASTEST 2MIN SPEED (MPH): 20FASTEST 2MIN DIR (DEG): 90 FASTEST 2MIN TIME (LST):     AVERAGE WIND SPEED (MPH): 9.5 24 HR AVG TEMP (F): 33DEPART FROM NORMAL: -2  HEATING DEGREE DAYS: 32 COOLING DEGREE DAYS:  0EQDR01  0.337AAP092R02     67AXW092
0465999999137242024011804596+39378-074424SOD  +000355N  V030999999999999999999999999999+99999+99999999999ADDAA124000095KA1240M-00325KA2240N-00825OE11240138629099995OE22240076029099995OE33240046099999995REMSOD35924 HR PRECIPITATION (IN): 0.00 24 HR MAX TEMP (F): 2624 HR MIN TEMP (F): 17PEAK WIND SPEED (MPH): 31 PEAK WIND DIR (DEG):290 PEAK WIND TIME (LST):      FASTEST 2MIN SPEED (MPH): 17FASTEST 2MIN DIR (DEG):290 FASTEST 2MIN TIME (LST):     AVERAGE WIND SPEED (MPH):10.3 24 HR AVG TEMP (F): 22DEPART FROM NORMAL:-13  HEATING DEGREE DAYS: 43 COOLING DEGREE DAYS:  0
0465999999137242024011904596+39378-074424SOD  +000355N  V030999999999999999999999999999+99999+99999999999ADDAA124000095KA1240M+00395KA2240N-00325OE11240080523099995OE22240053627099995OE33240030099999995REMSOD35924 HR PRECIPITATION (IN): 0.00 24 HR MAX TEMP (F): 3924 HR MIN TEMP (F): 26PEAK WIND SPEED (MPH): 18 PEAK WIND DIR (DEG):230 PEAK WIND TIME (LST):      FASTEST 2MIN SPEED (MPH): 12FASTEST 2MIN DIR (DEG):270 FASTEST 2MIN TIME (LST):     AVERAGE WIND SPEED (MPH): 6.7 24 HR AVG TEMP (F): 33DEPART FROM NORMAL: -2  HEATING DEGREE DAYS: 32 COOLING DEGREE DAYS:  0
0484999999137242024012004596+39378-074424SOD  +000355N  V030999999999999999999999999999+99999+99999999999ADDAA12400719AKA1240M+00445KA2240N-00385OE11240134133099995OE22240062633099995OE33240030899999995REMSOD35924 HR PRECIPITATION (IN): 0.28 24 HR MAX TEMP (F): 4024 HR MIN TEMP (F): 25PEAK WIND SPEED (MPH): 30 PEAK WIND DIR (DEG):330 PEAK WIND TIME (LST):      FASTEST 2MIN SPEED (MPH): 14FASTEST 2MIN DIR (DEG):330 FASTEST 2MIN TIME (LST):     AVERAGE WIND SPEED (MPH): 6.9 24 HR AVG TEMP (F): 33DEPART FROM NORMAL: -2  HEATING DEGREE DAYS: 32 COOLING DEGREE DAYS:  0EQDR01  0.287AAP092
0465999999137242024012104596+39378-074424SOD  +000355N  V030999999999999999999999999999+99999+99999999999ADDAA124000095KA1240M-00325KA2240N-00665OE11240138630099995OE22240067129099995OE33240040299999995REMSOD35924 HR PRECIPITATION (IN): 0.00 24 HR MAX TEMP (F): 2624 HR MIN TEMP (F): 20PEAK WIND SPEED (MPH): 31 PEAK WIND DIR (DEG):300 PEAK WIND TIME (LST):      FASTEST 2MIN SPEED (MPH): 15FASTEST 2MIN DIR (DEG):290 FASTEST 2MIN TIME (LST):     AVERAGE WIND SPEED (MPH): 9.0 24 HR AVG TEMP (F): 23DEPART FROM NORMAL:-12  HEATING DEGREE DAYS: 42 COOLING DEGREE DAYS:  0
0465999999137242024012204596+39378-074424SOD  +000355N  V030999999999999999999999999999+99999+99999999999ADDAA124000095KA1240M+00005KA2240N-00665OE11240165433099995OE22240076033099995OE33240036799999995REMSOD35924 HR PRECIPITATION (IN): 0.00 24 HR MAX TEMP (F): 3224 HR MIN TEMP (F): 20PEAK WIND SPEED (MPH): 37 PEAK WIND DIR (DEG):330 PEAK WIND TIME (LST):      FASTEST 2MIN SPEED (MPH): 17FASTEST 2MIN DIR (DEG):330 FASTEST 2MIN TIME (LST):     AVERAGE WIND SPEED (MPH): 8.2 24 HR AVG TEMP (F): 26DEPART FROM NORMAL: -9  HEATING DEGREE DAYS: 39 COOLING DEGREE DAYS:  0
0465999999137242024012304596+39378-074424SOD  +000355N  V030999999999999999999999999999+99999+99999999999ADDAA124000095KA1240M+00175KA2240N-00555OE11240089425099995OE22240062625099995OE33240033199999995REMSOD35924 HR PRECIPITATION (IN): 0.00 24 HR MAX TEMP (F): 3524 HR MIN TEMP (F): 22PEAK WIND SPEED (MPH): 20 PEAK WIND DIR (DEG):250 PEAK WIND TIME (LST):      FASTEST 2MIN SPEED (MPH): 14FASTEST 2MIN DIR (DEG):250 FASTEST 2MIN TIME (LST):     AVERAGE WIND SPEED (MPH): 7.4 24 HR AVG TEMP (F): 29DEPART FROM NORMAL: -6  HEATING DEGREE DAYS: 36 COOLING DEGREE DAYS:  0
0465999999137242024012404596+39378-074424SOD  +000355N  V030999999999999999999999999999+99999+99999999999ADDAA124000095KA1240M+00615KA2240N+00115OE11240116227099995OE22240062627099995OE33240025099999995REMSOD35924 HR PRECIPITATION (IN): 0.00 24 HR MAX TEMP (F): 4324 HR MIN TEMP (F): 34PEAK WIND SPEED (MPH): 26 PEAK WIND DIR (DEG):270 PEAK WIND TIME (LST):      FASTEST 2MIN SPEED (MPH): 14FASTEST 2MIN DIR (DEG):270 FASTEST 2MIN TIME (LST):     AVERAGE WIND SPEED (MPH): 5.6 24 HR AVG TEMP (F): 39DEPART FROM NORMAL:  4  HEATING DEGREE DAYS: 26 COOLING DEGREE DAYS:  0
0500999999137242024012504596+39378-074424SOD  +000355N  V030999999999999999999999999999+99999+99999999999ADDAA12400009AKA1240M+01065KA2240N+00335OE11240125222099995OE22240067122099995OE33240030899999995REMSOD35924 HR PRECIPITATION (IN):    T 24 HR MAX TEMP (F): 5124 HR MIN TEMP (F): 38PEAK WIND SPEED (MPH): 28 PEAK WIND DIR (DEG):220 PEAK WIND TIME (LST):      FASTEST 2MIN SPEED (MPH): 15FASTEST 2MIN DIR (DEG):220 FASTEST 2MIN TIME (LST):     AVERAGE WIND SPEED (MPH): 6.9 24 HR AVG TEMP (F): 45DEPART FROM NORMAL: 10  HEATING DEGREE DAYS: 20 COOLING DEGREE DAYS:  0EQDQ01  00002PRCP24R01     T7AAP092
0484999999137242024012604596+39378-074424SOD  +000355N  V030999999999999999999999999999+99999+99999999999ADDAA12400389AKA1240M+01225KA2240N+00835OE11240134123099995OE22240071522099995OE33240032299999995REMSOD35924 HR PRECIPITATION (IN): 0.15 24 HR MAX TEMP (F): 5424 HR MIN TEMP (F): 47PEAK WIND SPEED (MPH): 30 PEAK WIND DIR (DEG):230 PEAK WIND TIME (LST):      FASTEST 2MIN SPEED (MPH): 16FASTEST 2MIN DIR (DEG):220 FASTEST 2MIN TIME (LST):     AVERAGE WIND SPEED (MPH): 7.2 24 HR AVG TEMP (F): 51DEPART FROM NORMAL: 16  HEATING DEGREE DAYS: 14 COOLING DEGREE DAYS:  0EQDR01  0.157AAP092
0484999999137242024012704596+39378-074424SOD  +000355N  V030999999999999999999999999999+99999+99999999999ADDAA12400159AKA1240M+01065KA2240N+00615OE11240084923099995OE22240058124099995OE33240026499999995REMSOD35924 HR PRECIPITATION (IN): 0.06 24 HR MAX TEMP (F): 5124 HR MIN TEMP (F): 43PEAK WIND SPEED (MPH): 19 PEAK WIND DIR (DEG):230 PEAK WIND TIME (LST):      FASTEST 2MIN SPEED (MPH): 13FASTEST 2MIN DIR (DEG):240 FASTEST 2MIN TIME (LST):     AVERAGE WIND SPEED (MPH): 5.9 24 HR AVG TEMP (F): 47DEPART FROM NORMAL: 12  HEATING DEGREE DAYS: 18 COOLING DEGREE DAYS:  0EQDR01  0.067AAP092
0484999999137242024012804596+39378-074424SOD  +000355N  V030999999999999999999999999999+99999+99999999999ADDAA12400039AKA1240M+00835KA2240N+00445OE11240076008099995OE22240053609099995OE33240026499999995REMSOD35924 HR PRECIPITATION (IN): 0.01 24 HR MAX TEMP (F): 4724 HR MIN TEMP (F): 40PEAK WIND SPEED (MPH): 17 PEAK WIND DIR (DEG): 80 PEAK WIND TIME (LST):      FASTEST 2MIN SPEED (MPH): 12FASTEST 2MIN DIR (DEG): 90 FASTEST 2MIN TIME (LST):     AVERAGE WIND SPEED (MPH): 5.9 24 HR AVG TEMP (F): 44DEPART FROM NORMAL:  9  HEATING DEGREE DAYS: 21 COOLING DEGREE DAYS:  0EQDR01  0.017AAP092
0484999999137242024012904596+39378-074424SOD  +000355N  V030999999999999999999999999999+99999+99999999999ADDAA12402189AKA1240M+00675KA2240N+00335OE11240169908099995OE22240116208099995OE33240058199999995REMSOD35924 HR PRECIPITATION (IN): 0.86 24 HR MAX TEMP (F): 4424 HR MIN TEMP (F): 38PEAK WIND SPEED (MPH): 38 PEAK WIND DIR (DEG): 80 PEAK WIND TIME (LST):      FASTEST 2MIN SPEED (MPH): 26FASTEST 2MIN DIR (DEG): 80 FASTEST 2MIN TIME (LST):     AVERAGE WIND SPEED (MPH):13.0 24 HR AVG TEMP (F): 41DEPART FROM NORMAL:  6  HEATING DEGREE DAYS: 24 COOLING DEGREE DAYS:  0EQDR01  0.867AAP092
0500999999137242024013004596+39378-074424SOD  +000355N  V030999999999999999999999999999+99999+99999999999ADDAA12400009AKA1240M+00445KA2240N+00285OE11240143133099995OE22240080532099995OE33240039399999995REMSOD35924 HR PRECIPITATION (IN):    T 24 HR MAX TEMP (F): 4024 HR MIN TEMP (F): 37PEAK WIND SPEED (MPH): 32 PEAK WIND DIR (DEG):330 PEAK WIND TIME (LST):      FASTEST 2MIN SPEED (MPH): 18FASTEST 2MIN DIR (DEG):320 FASTEST 2MIN TIME (LST):     AVERAGE WIND SPEED (MPH): 8.8 24 HR AVG TEMP (F): 39DEPART FROM NORMAL:  4  HEATING DEGREE DAYS: 26 COOLING DEGREE DAYS:  0EQDQ01  00002PRCP24R01     T7AAP092
0484999999137242024013104596+39378-074424SOD  +000355N  V030999999999999999999999999999+99999+99999999999ADDAA12400109AKA1240M+00395KA2240N+00175OE11240093933099995OE22240058111099995OE33240030099999995REMSOD35924 HR PRECIPITATION (IN): 0.04 24 HR MAX TEMP (F): 3924 HR MIN TEMP (F): 35PEAK WIND SPEED (MPH): 21 PEAK WIND DIR (DEG):330 PEAK WIND TIME (LST):      FASTEST 2MIN SPEED (MPH): 13FASTEST 2MIN DIR (DEG):110 FASTEST 2MIN TIME (LST):     AVERAGE WIND SPEED (MPH): 6.7 24 HR AVG TEMP (F): 37DEPART FROM NORMAL:  2  HEATING DEGREE DAYS: 28 COOLING DEGREE DAYS:  0EQDR01  0.047AAP092
0500999999137242024020104596+39378-074424SOD  +000355N  V030999999999999999999999999999+99999+99999999999ADDAA12400009AKA1240M+00505KA2240N+00285OE11240089409099995OE22240067109099995OE33240038999999995REMSOD35924 HR PRECIPITATION (IN):    T 24 HR MAX TEMP (F): 4124 HR MIN TEMP (F): 37PEAK WIND SPEED (MPH): 20 PEAK WIND DIR (DEG): 90 PEAK WIND TIME (LST):      FASTEST 2MIN SPEED (MPH): 15FASTEST 2MIN DIR (DEG): 90 FASTEST 2MIN TIME (LST):     AVERAGE WIND SPEED (MPH): 8.7 24 HR AVG TEMP (F): 39DEPART FROM NORMAL:  4  HEATING DEGREE DAYS: 26 COOLING DEGREE DAYS:  0EQDQ01  00002PRCP24R01     T7AAP092
0128999999137242024020104596+39378-074424SOM  +000355N  V030999999999999999999999999999+99999+99999999999ADDAD1005119090999999999IAE114I10I03I02IKB1240N+0067IKB2240M+0644IKB3240A+0356IKC1N9-0083179999IKC2M1+0139139999IKE104U00U14U00U
0465999999137242024020204596+39378-074424SOD  +000355N  V030999999999999999999999999999+99999+99999999999ADDAA124000095KA1240M+00675KA2240N+00175OE11240084921099995OE22240049221099995OE33240027399999995REMSOD35924 HR PRECIPITATION (IN): 0.00 24 HR MAX TEMP (F): 4424 HR MIN TEMP (F): 35PEAK WIND SPEED (MPH): 19 PEAK WIND DIR (DEG):210 PEAK WIND TIME (LST):      FASTEST 2MIN SPEED (MPH): 11FASTEST 2MIN DIR (DEG):210 FASTEST 2MIN TIME (LST):     AVERAGE WIND SPEED (MPH): 6.1 24 HR AVG TEMP (F): 40DEPART FROM NORMAL:  5  HEATING DEGREE DAYS: 25 COOLING DEGREE DAYS:  0
0484999999137242024020304596+39378-074424SOD  +000355N  V030999999999999999999999999999+99999+99999999999ADDAA12400339AKA1240M+00615KA2240N+00505OE11240102834099995OE22240035834099995OE33240019799999995REMSOD35924 HR PRECIPITATION (IN): 0.13 24 HR MAX TEMP (F): 4324 HR MIN TEMP (F): 41PEAK WIND SPEED (MPH): 23 PEAK WIND DIR (DEG):340 PEAK WIND TIME (LST):      FASTEST 2MIN SPEED (MPH):  8FASTEST 2MIN DIR (DEG):340 FASTEST 2MIN TIME (LST):     AVERAGE WIND SPEED (MPH): 4.4 24 HR AVG TEMP (F): 42DEPART FROM NORMAL:  6  HEATING DEGREE DAYS: 23 COOLING DEGREE DAYS:  0EQDR01  0.137AAP092
0465999999137242024020404596+39378-074424SOD  +000355N  V030999999999999999999999999999+99999+99999999999ADDAA124000095KA1240M+00565KA2240N+00225OE11240102834099995OE22240058109099995OE33240025099999995REMSOD35924 HR PRECIPITATION (IN): 0.00 24 HR MAX TEMP (F): 4224 HR MIN TEMP (F): 36PEAK WIND SPEED (MPH): 23 PEAK WIND DIR (DEG):340 PEAK WIND TIME (LST):      FASTEST 2MIN SPEED (MPH): 13FASTEST 2MIN DIR (DEG): 90 FASTEST 2MIN TIME (LST):     AVERAGE WIND SPEED (MPH): 5.6 24 HR AVG TEMP (F): 39DEPART FROM NORMAL:  3  HEATING DEGREE DAYS: 26 COOLING DEGREE DAYS:  0
0465999999137242024020504596+39378-074424SOD  +000355N  V030999999999999999999999999999+99999+99999999999ADDAA124000095KA1240M+00505KA2240N+00065OE11240067104099995OE22240040212099995OE33240021099999995REMSOD35924 HR PRECIPITATION (IN): 0.00 24 HR MAX TEMP (F): 4124 HR MIN TEMP (F): 33PEAK WIND SPEED (MPH): 15 PEAK WIND DIR (DEG): 40 PEAK WIND TIME (LST):      FASTEST 2MIN SPEED (MPH):  9FASTEST 2MIN DIR (DEG):120 FASTEST 2MIN TIME (LST):     AVERAGE WIND SPEED (MPH): 4.7 24 HR AVG TEMP (F): 37DEPART FROM NORMAL:  1  HEATING DEGREE DAYS: 28 COOLING DEGREE DAYS:  0
0465999999137242024020604596+39378-074424SOD  +000355N  V030999999999999999999999999999+99999+99999999999ADDAA124000095KA1240M+00445KA2240N+00065OE11240102804099995OE22240049210099995OE33240023799999995REMSOD35924 HR PRECIPITATION (IN): 0.00 24 HR MAX TEMP (F): 4024 HR MIN TEMP (F): 33PEAK WIND SPEED (MPH): 23 PEAK WIND DIR (DEG): 40 PEAK WIND TIME (LST):      FASTEST 2MIN SPEED (MPH): 11FASTEST 2MIN DIR (DEG):100 FASTEST 2MIN TIME (LST):     AVERAGE WIND SPEED (MPH): 5.3 24 HR AVG TEMP (F): 37DEPART FROM NORMAL:  1  HEATING DEGREE DAYS: 28 COOLING DEGREE DAYS:  0
0465999999137242024020704596+39378-074424SOD  +000355N  V030999999999999999999999999999+99999+99999999999ADDAA124000095KA1240M+00335KA2240N-00055OE11240125205099995OE22240076007099995OE33240040799999995REMSOD35924 HR PRECIPITATION (IN): 0.00 24 HR MAX TEMP (F): 3824 HR MIN TEMP (F): 31PEAK WIND SPEED (MPH): 28 PEAK WIND DIR (DEG): 50 PEAK WIND TIME (LST):      FASTEST 2MIN SPEED (MPH): 17FASTEST 2MIN DIR (DEG): 70 FASTEST 2MIN TIME (LST):     AVERAGE WIND SPEED (MPH): 9.1 24 HR AVG TEMP (F): 35DEPART FROM NORMAL: -1  HEATING DEGREE DAYS: 30 COOLING DEGREE DAYS:  0
0465999999137242024020804596+39378-074424SOD  +000355N  V030999999999999999999999999999+99999+99999999999ADDAA124000095KA1240M+00505KA2240N+00005OE11240093904099995OE22240062608099995OE33240024199999995REMSOD35924 HR PRECIPITATION (IN): 0.00 24 HR MAX TEMP (F): 4124 HR MIN TEMP (F): 32PEAK WIND SPEED (MPH): 21 PEAK WIND DIR (DEG): 40 PEAK WIND TIME (LST):      FASTEST 2MIN SPEED (MPH): 14FASTEST 2MIN DIR (DEG): 80 FASTEST 2MIN TIME (LST):     AVERAGE WIND SPEED (MPH): 5.4 24 HR AVG TEMP (F): 37DEPART FROM NORMAL:  1  HEATING DEGREE DAYS: 28 COOLING DEGREE DAYS:  0
0465999999137242024020904596+39378-074424SOD  +000355N  V030999999999999999999999999999+99999+99999999999ADDAA124000095KA1240M+00785KA2240N+00115OE11240080524099995OE22240049224099995OE33240025999999995REMSOD35924 HR PRECIPITATION (IN): 0.00 24 HR MAX TEMP (F): 4624 HR MIN TEMP (F): 34PEAK WIND SPEED (MPH): 18 PEAK WIND DIR (DEG):240 PEAK WIND TIME (LST):      FASTEST 2MIN SPEED (MPH): 11FASTEST 2MIN DIR (DEG):240 FASTEST 2MIN TIME (LST):     AVERAGE WIND SPEED (MPH): 5.8 24 HR AVG TEMP (F): 40DEPART FROM NORMAL:  4  HEATING DEGREE DAYS: 25 COOLING DEGREE DAYS:  0
0465999999137242024021004596+39378-074424SOD  +000355N  V030999999999999999999999999999+99999+99999999999ADDAA124000095KA1240M+00895KA2240N+00565OE11240107319099995OE22240062620099995OE33240036799999995REMSOD35924 HR PRECIPITATION (IN): 0.00 24 HR MAX TEMP (F): 4824 HR MIN TEMP (F): 42PEAK WIND SPEED (MPH): 24 PEAK WIND DIR (DEG):190 PEAK WIND TIME (LST):      FASTEST 2MIN SPEED (MPH): 14FASTEST 2MIN DIR (DEG):200 FASTEST 2MIN TIME (LST):     AVERAGE WIND SPEED (MPH): 8.2 24 HR AVG TEMP (F): 45DEPART FROM NORMAL:  9  HEATING DEGREE DAYS: 20 COOLING DEGREE DAYS:  0
0465999999137242024021104596+39378-074424SOD  +000355N  V030999999999999999999999999999+99999+99999999999ADDAA124000095KA1240M+01335KA2240N+00785OE11240076025099995OE22240049225099995OE33240029599999995REMSOD35924 HR PRECIPITATION (IN): 0.00 24 HR MAX TEMP (F): 5624 HR MIN TEMP (F): 46PEAK WIND SPEED (MPH): 17 PEAK WIND DIR (DEG):250 PEAK WIND TIME (LST):      FASTEST 2MIN SPEED (MPH): 11FASTEST 2MIN DIR (DEG):250 FASTEST 2MIN TIME (LST):     AVERAGE WIND SPEED (MPH): 6.6 24 HR AVG TEMP (F): 51DEPART FROM NORMAL: 15  HEATING DEGREE DAYS: 14 COOLING DEGREE DAYS:  0
0465999999137242024021204596+39378-074424SOD  +000355N  V030999999999999999999999999999+99999+99999999999ADDAA124000095KA1240M+01115KA2240N+00565OE11240062608099995OE22240044708099995OE33240016199999995REMSOD35924 HR PRECIPITATION (IN): 0.00 24 HR MAX TEMP (F): 5224 HR MIN TEMP (F): 42PEAK WIND SPEED (MPH): 14 PEAK WIND DIR (DEG): 80 PEAK WIND TIME (LST):      FASTEST 2MIN SPEED (MPH): 10FASTEST 2MIN DIR (DEG): 80 FASTEST 2MIN TIME (LST):     AVERAGE WIND SPEED (MPH): 3.6 24 HR AVG TEMP (F): 47DEPART FROM NORMAL: 10  HEATING DEGREE DAYS: 18 COOLING DEGREE DAYS:  0
0484999999137242024021304596+39378-074424SOD  +000355N  V030999999999999999999999999999+99999+99999999999ADDAA12400189AKA1240M+00675KA2240N+00505OE11240098308099995OE22240071509099995OE33240021099999995REMSOD35924 HR PRECIPITATION (IN): 0.07 24 HR MAX TEMP (F): 4424 HR MIN TEMP (F): 41PEAK WIND SPEED (MPH): 22 PEAK WIND DIR (DEG): 80 PEAK WIND TIME (LST):      FASTEST 2MIN SPEED (MPH): 16FASTEST 2MIN DIR (DEG): 90 FASTEST 2MIN TIME (LST):     AVERAGE WIND SPEED (MPH): 4.7 24 HR AVG TEMP (F): 43DEPART FROM NORMAL:  6  HEATING DEGREE DAYS: 22 COOLING DEGREE DAYS:  0EQDR01  0.077AAP092
0484999999137242024021404596+39378-074424SOD  +000355N  V030999999999999999999999999999+99999+99999999999ADDAA12402599AKA1240M+00505KA2240N+00115OE11240192207099995OE22240116207099995OE33240067199999995REMSOD35924 HR PRECIPITATION (IN): 1.02 24 HR MAX TEMP (F): 4124 HR MIN TEMP (F): 34PEAK WIND SPEED (MPH): 43 PEAK WIND DIR (DEG): 70 PEAK WIND TIME (LST):      FASTEST 2MIN SPEED (MPH): 26FASTEST 2MIN DIR (DEG): 70 FASTEST 2MIN TIME (LST):     AVERAGE WIND SPEED (MPH):15.0 24 HR AVG TEMP (F): 38DEPART FROM NORMAL:  1  HEATING DEGREE DAYS: 27 COOLING DEGREE DAYS:  0EQDR01  1.027AAP092
0465999999137242024021504596+39378-074424SOD  +000355N  V030999999999999999999999999999+99999+99999999999ADDAA124000095KA1240M+00395KA2240N+00005OE11240152033099995OE22240080533099995OE33240039399999995REMSOD35924 HR PRECIPITATION (IN): 0.00 24 HR MAX TEMP (F): 3924 HR MIN TEMP (F): 32PEAK WIND SPEED (MPH): 34 PEAK WIND DIR (DEG):330 PEAK WIND TIME (LST):      FASTEST 2MIN SPEED (MPH): 18FASTEST 2MIN DIR (DEG):330 FASTEST 2MIN TIME (LST):     AVERAGE WIND SPEED (MPH): 8.8 24 HR AVG TEMP (F): 36DEPART FROM NORMAL: -1  HEATING DEGREE DAYS: 29 COOLING DEGREE DAYS:  0
0465999999137242024021604596+39378-074424SOD  +000355N  V030999999999999999999999999999+99999+99999999999ADDAA124000095KA1240M+00565KA2240N-00215OE11240134122099995OE22240080523099995OE33240041699999995REMSOD35924 HR PRECIPITATION (IN): 0.00 24 HR MAX TEMP (F): 4224 HR MIN TEMP (F): 28PEAK WIND SPEED (MPH): 30 PEAK WIND DIR (DEG):220 PEAK WIND TIME (LST):      FASTEST 2MIN SPEED (MPH): 18FASTEST 2MIN DIR (DEG):230 FASTEST 2MIN TIME (LST):     AVERAGE WIND SPEED (MPH): 9.3 24 HR AVG TEMP (F): 35DEPART FROM NORMAL: -2  HEATING DEGREE DAYS: 30 COOLING DEGREE DAYS:  0
0465999999137242024021704596+39378-074424SOD  +000355N  V030999999999999999999999999999+99999+99999999999ADDAA124000095KA1240M+00615KA2240N+00285OE11240165430099995OE22240084933099995OE33240036799999995REMSOD35924 HR PRECIPITATION (IN): 0.00 24 HR MAX TEMP (F): 4324 HR MIN TEMP (F): 37PEAK WIND SPEED (MPH): 37 PEAK WIND DIR (DEG):300 PEAK WIND TIME (LST):      FASTEST 2MIN SPEED (MPH): 19FASTEST 2MIN DIR (DEG):330 FASTEST 2MIN TIME (LST):     AVERAGE WIND SPEED (MPH): 8.2 24 HR AVG TEMP (F): 40DEPART FROM NORMAL:  3  HEATING DEGREE DAYS: 25 COOLING DEGREE DAYS:  0
0484999999137242024021804596+39378-074424SOD  +000355N  V030999999999999999999999999999+99999+99999999999ADDAA12400539AKA1240M+00505KA2240N-00105OE11240147532099995OE22240058133099995OE33240036299999995REMSOD35924 HR PRECIPITATION (IN): 0.21 24 HR MAX TEMP (F): 4124 HR MIN TEMP (F): 30PEAK WIND SPEED (MPH): 33 PEAK WIND DIR (DEG):320 PEAK WIND TIME (LST):      FASTEST 2MIN SPEED (MPH): 13FASTEST 2MIN DIR (DEG):330 FASTEST 2MIN TIME (LST):     AVERAGE WIND SPEED (MPH): 8.1 24 HR AVG TEMP (F): 36DEPART FROM NORMAL: -2  HEATING DEGREE DAYS: 29 COOLING DEGREE DAYS:  0EQDR01  0.217AAP092
0465999999137242024021904596+39378-074424SOD  +000355N  V030999999999999999999999999999+99999+99999999999ADDAA124000095KA1240M+00565KA2240N-00215OE11240152025099995OE22240098326099995OE33240053699999995REMSOD35924 HR PRECIPITATION (IN): 0.00 24 HR MAX TEMP (F): 4224 HR MIN TEMP (F): 28PEAK WIND SPEED (MPH): 34 PEAK WIND DIR (DEG):250 PEAK WIND TIME (LST):      FASTEST 2MIN SPEED (MPH): 22FASTEST 2MIN DIR (DEG):260 FASTEST 2MIN TIME (LST):     AVERAGE WIND SPEED (MPH):12.0 24 HR AVG TEMP (F): 35DEPART FROM NORMAL: -3  HEATING DEGREE DAYS: 30 COOLING DEGREE DAYS:  0
0465999999137242024022004596+39378-074424SOD  +000355N  V030999999999999999999999999999+99999+99999999999ADDAA124000095KA1240M+00725KA2240N+00005OE11240080532099995OE22240053613099995OE33240024699999995REMSOD35924 HR PRECIPITATION (IN): 0.00 24 HR MAX TEMP (F): 4524 HR MIN TEMP (F): 32PEAK WIND SPEED (MPH): 18 PEAK WIND DIR (DEG):320 PEAK WIND TIME (LST):      FASTEST 2MIN SPEED (MPH): 12FASTEST 2MIN DIR (DEG):130 FASTEST 2MIN TIME (LST):     AVERAGE WIND SPEED (MPH): 5.5 24 HR AVG TEMP (F): 39DEPART FROM NORMAL:  1  HEATING DEGREE DAYS: 26 COOLING DEGREE DAYS:  0
0465999999137242024022104596+39378-074424SOD  +000355N  V030999999999999999999999999999+99999+99999999999ADDAA124000095KA1240M+00285KA2240N-00055OE11240107308099995OE22240071508099995OE33240041699999995REMSOD35924 HR PRECIPITATION (IN): 0.00 24 HR MAX TEMP (F): 3724 HR MIN TEMP (F): 31PEAK WIND SPEED (MPH): 24 PEAK WIND DIR (DEG): 80 PEAK WIND TIME (LST):      FASTEST 2MIN SPEED (MPH): 16FASTEST 2MIN DIR (DEG): 80 FASTEST 2MIN TIME (LST):     AVERAGE WIND SPEED (MPH): 9.3 24 HR AVG TEMP (F): 34DEPART FROM NORMAL: -4  HEATING DEGREE DAYS: 31 COOLING DEGREE DAYS:  0
0465999999137242024022204596+39378-074424SOD  +000355N  V030999999999999999999999999999+99999+99999999999ADDAA124000095KA1240M+00395KA2240N+00175OE11240089409099995OE22240067109099995OE33240047499999995REMSOD35924 HR PRECIPITATION (IN): 0.00 24 HR MAX TEMP (F): 3924 HR MIN TEMP (F): 35PEAK WIND SPEED (MPH): 20 PEAK WIND DIR (DEG): 90 PEAK WIND TIME (LST):      FASTEST 2MIN SPEED (MPH): 15FASTEST 2MIN DIR (DEG): 90 FASTEST 2MIN TIME (LST):     AVERAGE WIND SPEED (MPH):10.6 24 HR AVG TEMP (F): 37DEPART FROM NORMAL: -1  HEATING DEGREE DAYS: 28 COOLING DEGREE DAYS:  0
0484999999137242024022304596+39378-074424SOD  +000355N  V030999999999999999999999999999+99999+99999999999ADDAA12400089AKA1240M+00785KA2240N+00115OE11240111818099995OE22240062618099995OE33240031799999995REMSOD35924 HR PRECIPITATION (IN): 0.03 24 HR MAX TEMP (F): 4624 HR MIN TEMP (F): 34PEAK WIND SPEED (MPH): 25 PEAK WIND DIR (DEG):180 PEAK WIND TIME (LST):      FASTEST 2MIN SPEED (MPH): 14FASTEST 2MIN DIR (DEG):180 FASTEST 2MIN TIME (LST):     AVERAGE WIND SPEED (MPH): 7.1 24 HR AVG TEMP (F): 40DEPART FROM NORMAL:  2  HEATING DEGREE DAYS: 25 COOLING DEGREE DAYS:  0EQDR01  0.037AAP092
0484999999137242024022404596+39378-074424SOD  +000355N  V030999999999999999999999999999+99999+99999999999ADDAA12400669AKA1240M+00945KA2240N+00565OE11240116221099995OE22240071521099995OE33240034099999995REMSOD35924 HR PRECIPITATION (IN): 0.26 24 HR MAX TEMP (F): 4924 HR MIN TEMP (F): 42PEAK WIND SPEED (MPH): 26 PEAK WIND DIR (DEG):210 PEAK WIND TIME (LST):      FASTEST 2MIN SPEED (MPH): 16FASTEST 2MIN DIR (DEG):210 FASTEST 2MIN TIME (LST):     AVERAGE WIND SPEED (MPH): 7.6 24 HR AVG TEMP (F): 46DEPART FROM NORMAL:  8  HEATING DEGREE DAYS: 19 COOLING DEGREE DAYS:  0EQDR01  0.267AAP092
0484999999137242024022504596+39378-074424SOD  +000355N  V030999999999999999999999999999+99999+99999999999ADDAA12400239AKA1240M+00675KA2240N-00055OE11240116233099995OE22240067133099995OE33240034499999995REMSOD35924 HR PRECIPITATION (IN): 0.09 24 HR MAX TEMP (F): 4424 HR MIN TEMP (F): 31PEAK WIND SPEED (MPH): 26 PEAK WIND DIR (DEG):330 PEAK WIND TIME (LST):      FASTEST 2MIN SPEED (MPH): 15FASTEST 2MIN DIR (DEG):330 FASTEST 2MIN TIME (LST):     AVERAGE WIND SPEED (MPH): 7.7 24 HR AVG TEMP (F): 38DEPART FROM NORMAL: -1  HEATING DEGREE DAYS: 27 COOLING DEGREE DAYS:  0EQDR01  0.097AAP092
0465999999137242024022604596+39378-074424SOD  +000355N  V030999999999999999999999999999+99999+99999999999ADDAA124000095KA1240M+00395KA2240N-00325OE11240098322099995OE22240062622099995OE33240033599999995REMSOD35924 HR PRECIPITATION (IN): 0.00 24 HR MAX TEMP (F): 3924 HR MIN TEMP (F): 26PEAK WIND SPEED (MPH): 22 PEAK WIND DIR (DEG):220 PEAK WIND TIME (LST):      FASTEST 2MIN SPEED (MPH): 14FASTEST 2MIN DIR (DEG):220 FASTEST 2MIN TIME (LST):     AVERAGE WIND SPEED (MPH): 7.5 24 HR AVG TEMP (F): 33DEPART FROM NORMAL: -6  HEATING DEGREE DAYS: 32 COOLING DEGREE DAYS:  0
0465999999137242024022704596+39378-074424SOD  +000355N  V030999999999999999999999999999+99999+99999999999ADDAA124000095KA1240M+00835KA2240N+00395OE11240120723099995OE22240076023099995OE33240045299999995REMSOD35924 HR PRECIPITATION (IN): 0.00 24 HR MAX TEMP (F): 4724 HR MIN TEMP (F): 39PEAK WIND SPEED (MPH): 27 PEAK WIND DIR (DEG):230 PEAK WIND TIME (LST):      FASTEST 2MIN SPEED (MPH): 17FASTEST 2MIN DIR (DEG):230 FASTEST 2MIN TIME (LST):     AVERAGE WIND SPEED (MPH):10.1 24 HR AVG TEMP (F): 43DEPART FROM NORMAL:  4  HEATING DEGREE DAYS: 22 COOLING DEGREE DAYS:  0
0484999999137242024022804596+39378-074424SOD  +000355N  V030999999999999999999999999999+99999+99999999999ADDAA12400189AKA1240M+01065KA2240N+00675OE11240147521099995OE22240084923099995OE33240049699999995REMSOD35924 HR PRECIPITATION (IN): 0.07 24 HR MAX TEMP (F): 5124 HR MIN TEMP (F): 44PEAK WIND SPEED (MPH): 33 PEAK WIND DIR (DEG):210 PEAK WIND TIME (LST):      FASTEST 2MIN SPEED (MPH): 19FASTEST 2MIN DIR (DEG):230 FASTEST 2MIN TIME (LST):     AVERAGE WIND SPEED (MPH):11.1 24 HR AVG TEMP (F): 48DEPART FROM NORMAL:  9  HEATING DEGREE DAYS: 17 COOLING DEGREE DAYS:  0EQDR01  0.077AAP092
0484999999137242024022904596+39378-074424SOD  +000355N  V030999999999999999999999999999+99999+99999999999ADDAA12400489AKA1240M+01335KA2240N+00785OE11240210128099995OE22240102822099995OE33240073899999995REMSOD35924 HR PRECIPITATION (IN): 0.19 24 HR MAX TEMP (F): 5624 HR MIN TEMP (F): 46PEAK WIND SPEED (MPH): 47 PEAK WIND DIR (DEG):280 PEAK WIND TIME (LST):      FASTEST 2MIN SPEED (MPH): 23FASTEST 2MIN DIR (DEG):220 FASTEST 2MIN TIME (LST):     AVERAGE WIND SPEED (MPH):16.5 24 HR AVG TEMP (F): 51DEPART FROM NORMAL: 12  HEATING DEGREE DAYS: 14 COOLING DEGREE DAYS:  0EQDR01  0.197AAP092
0465999999137242024030104596+39378-074424SOD  +000355N  V030999999999999999999999999999+99999+99999999999ADDAA124000095KA1240M+00785KA2240N+00065OE11240183330099995OE22240071533099995OE33240039899999995REMSOD35924 HR PRECIPITATION (IN): 0.00 24 HR MAX TEMP (F): 4624 HR MIN TEMP (F): 33PEAK WIND SPEED (MPH): 41 PEAK WIND DIR (DEG):300 PEAK WIND TIME (LST):      FASTEST 2MIN SPEED (MPH): 16FASTEST 2MIN DIR (DEG):330 FASTEST 2MIN TIME (LST):     AVERAGE WIND SPEED (MPH): 8.9 24 HR AVG TEMP (F): 40DEPART FROM NORMAL:  1  HEATING DEGREE DAYS: 25 COOLING DEGREE DAYS:  0
0128999999137242024030104596+39378-074424SOM  +000355N  V030999999999999999999999999999+99999+99999999999ADDAD1002599131399999999IAE109I05I01I01IKB1240N+0189IKB2240M+0678IKB3240A+0433IKC1N9-0033259999IKC2M1+0133289999IKE100I00I10I00I
0484999999137242024030204596+39378-074424SOD  +000355N  V030999999999999999999999999999+99999+99999999999ADDAA12400009AKA1240M+00615KA2240N+00115OE11240093915099995OE22240062615099995OE33240036799999995REMSOD35924 HR PRECIPITATION (IN): 0.00 24 HR MAX TEMP (F): 4324 HR MIN TEMP (F): 34PEAK WIND SPEED (MPH): 21 PEAK WIND DIR (DEG):150 PEAK WIND TIME (LST):      FASTEST 2MIN SPEED (MPH): 14FASTEST 2MIN DIR (DEG):150 FASTEST 2MIN TIME (LST):     AVERAGE WIND SPEED (MPH): 8.2 24 HR AVG TEMP (F): 39DEPART FROM NORMAL: -1  HEATING DEGREE DAYS: 26 COOLING DEGREE DAYS:  0EQDR01  0.007AAP092
0465999999137242024030304596+39378-074424SOD  +000355N  V030999999999999999999999999999+99999+99999999999ADDAA124029095KA1240M+01115KA2240N+00615OE11240174317099995OE22240102817099995OE33240051099999995REMSOD35924 HR PRECIPITATION (IN): 1.14 24 HR MAX TEMP (F): 5224 HR MIN TEMP (F): 43PEAK WIND SPEED (MPH): 39 PEAK WIND DIR (DEG):170 PEAK WIND TIME (LST):      FASTEST 2MIN SPEED (MPH): 23FASTEST 2MIN DIR (DEG):170 FASTEST 2MIN TIME (LST):     AVERAGE WIND SPEED (MPH):11.4 24 HR AVG TEMP (F): 48DEPART FROM NORMAL:  8  HEATING DEGREE DAYS: 17 COOLING DEGREE DAYS:  0
0484999999137242024030404596+39378-074424SOD  +000355N  V030999999999999999999999999999+99999+99999999999ADDAA12400009AKA1240M+01445KA2240N+00835OE11240084929099995OE22240049223099995OE33240030099999995REMSOD35924 HR PRECIPITATION (IN): 0.00 24 HR MAX TEMP (F): 5824 HR MIN TEMP (F): 47PEAK WIND SPEED (MPH): 19 PEAK WIND DIR (DEG):290 PEAK WIND TIME (LST):      FASTEST 2MIN SPEED (MPH): 11FASTEST 2MIN DIR (DEG):230 FASTEST 2MIN TIME (LST):     AVERAGE WIND SPEED (MPH): 6.7 24 HR AVG TEMP (F): 53DEPART FROM NORMAL: 13  HEATING DEGREE DAYS: 12 COOLING DEGREE DAYS:  0EQDR01  0.007AAP092
0484999999137242024030504596+39378-074424SOD  +000355N  V030999999999999999999999999999+99999+99999999999ADDAA12400009AKA1240M+01115KA2240N+00615OE11240111809099995OE22240089409099995OE33240041699999995REMSOD35924 HR PRECIPITATION (IN): 0.00 24 HR MAX TEMP (F): 5224 HR MIN TEMP (F): 43PEAK WIND SPEED (MPH): 25 PEAK WIND DIR (DEG): 90 PEAK WIND TIME (LST):      FASTEST 2MIN SPEED (MPH): 20FASTEST 2MIN DIR (DEG): 90 FASTEST 2MIN TIME (LST):     AVERAGE WIND SPEED (MPH): 9.3 24 HR AVG TEMP (F): 48DEPART FROM NORMAL:  8  HEATING DEGREE DAYS: 17 COOLING DEGREE DAYS:  0EQDR01  0.007AAP092
0465999999137242024030604596+39378-074424SOD  +000355N  V030999999999999999999999999999+99999+99999999999ADDAA124017895KA1240M+01115KA2240N+00615OE11240152007099995OE22240080507099995OE33240047899999995REMSOD35924 HR PRECIPITATION (IN): 0.70 24 HR MAX TEMP (F): 5224 HR MIN TEMP (F): 43PEAK WIND SPEED (MPH): 34 PEAK WIND DIR (DEG): 70 PEAK WIND TIME (LST):      FASTEST 2MIN SPEED (MPH): 18FASTEST 2MIN DIR (DEG): 70 FASTEST 2MIN TIME (LST):     AVERAGE WIND SPEED (MPH):10.7 24 HR AVG TEMP (F): 48DEPART FROM NORMAL:  8  HEATING DEGREE DAYS: 17 COOLING DEGREE DAYS:  0
0465999999137242024030704596+39378-074424SOD  +000355N  V030999999999999999999999999999+99999+99999999999ADDAA124040695KA1240M+01285KA2240N+00725OE11240120705099995OE22240076005099995OE33240029199999995REMSOD35924 HR PRECIPITATION (IN): 1.60 24 HR MAX TEMP (F): 5524 HR MIN TEMP (F): 45PEAK WIND SPEED (MPH): 27 PEAK WIND DIR (DEG): 50 PEAK WIND TIME (LST):      FASTEST 2MIN SPEED (MPH): 17FASTEST 2MIN DIR (DEG): 50 FASTEST 2MIN TIME (LST):     AVERAGE WIND SPEED (MPH): 6.5 24 HR AVG TEMP (F): 50DEPART FROM NORMAL: 10  HEATING DEGREE DAYS: 15 COOLING DEGREE DAYS:  0
0465999999137242024030804596+39378-074424SOD  +000355N  V030999999999999999999999999999+99999+99999999999ADDAA124008695KA1240M+01175KA2240N+00895OE11240116203099995OE22240053604099995OE33240029199999995REMSOD35924 HR PRECIPITATION (IN): 0.34 24 HR MAX TEMP (F): 5324 HR MIN TEMP (F): 48PEAK WIND SPEED (MPH): 26 PEAK WIND DIR (DEG): 30 PEAK WIND TIME (LST):      FASTEST 2MIN SPEED (MPH): 12FASTEST 2MIN DIR (DEG): 40 FASTEST 2MIN TIME (LST):     AVERAGE WIND SPEED (MPH): 6.5 24 HR AVG TEMP (F): 51DEPART FROM NORMAL: 10  HEATING DEGREE DAYS: 14 COOLING DEGREE DAYS:  0
0484999999137242024030904596+39378-074424SOD  +000355N  V030999999999999999999999999999+99999+99999999999ADDAA12400009AKA1240M+01005KA2240N+00565OE11240111805099995OE22240071509099995OE33240043899999995REMSOD35924 HR PRECIPITATION (IN): 0.00 24 HR MAX TEMP (F): 5024 HR MIN TEMP (F): 42PEAK WIND SPEED (MPH): 25 PEAK WIND DIR (DEG): 50 PEAK WIND TIME (LST):      FASTEST 2MIN SPEED (MPH): 16FASTEST 2MIN DIR (DEG): 90 FASTEST 2MIN TIME (LST):     AVERAGE WIND SPEED (MPH): 9.8 24 HR AVG TEMP (F): 46DEPART FROM NORMAL:  5  HEATING DEGREE DAYS: 19 COOLING DEGREE DAYS:  0EQDR01  0.007AAP092
0465999999137242024031004596+39378-074424SOD  +000355N  V030999999999999999999999999999+99999+99999999999ADDAA124015595KA1240M+01175KA2240N+00505OE11240187817099995OE22240116217099995OE33240067599999995REMSOD35924 HR PRECIPITATION (IN): 0.61 24 HR MAX TEMP (F): 5324 HR MIN TEMP (F): 41PEAK WIND SPEED (MPH): 42 PEAK WIND DIR (DEG):170 PEAK WIND TIME (LST):      FASTEST 2MIN SPEED (MPH): 26FASTEST 2MIN DIR (DEG):170 FASTEST 2MIN TIME (LST):     AVERAGE WIND SPEED (MPH):15.1 24 HR AVG TEMP (F): 47DEPART FROM NORMAL:  6  HEATING DEGREE DAYS: 18 COOLING DEGREE DAYS:  0
0484999999137242024031104596+39378-074424SOD  +000355N  V030999999999999999999999999999+99999+99999999999ADDAA12400009AKA1240M+01175KA2240N+00225OE11240223530099995OE22240129629099995OE33240069399999995REMSOD35924 HR PRECIPITATION (IN): 0.00 24 HR MAX TEMP (F): 5324 HR MIN TEMP (F): 36PEAK WIND SPEED (MPH): 50 PEAK WIND DIR (DEG):300 PEAK WIND TIME (LST):      FASTEST 2MIN SPEED (MPH): 29FASTEST 2MIN DIR (DEG):290 FASTEST 2MIN TIME (LST):     AVERAGE WIND SPEED (MPH):15.5 24 HR AVG TEMP (F): 45DEPART FROM NORMAL:  4  HEATING DEGREE DAYS: 20 COOLING DEGREE DAYS:  0EQDR01  0.007AAP092
0484999999137242024031204596+39378-074424SOD  +000355N  V030999999999999999999999999999+99999+99999999999ADDAA12400009AKA1240M+01115KA2240N+00335OE11240205629099995OE22240093929099995OE33240063099999995REMSOD35924 HR PRECIPITATION (IN): 0.00 24 HR MAX TEMP (F): 5224 HR MIN TEMP (F): 38PEAK WIND SPEED (MPH): 46 PEAK WIND DIR (DEG):290 PEAK WIND TIME (LST):      FASTEST 2MIN SPEED (MPH): 21FASTEST 2MIN DIR (DEG):290 FASTEST 2MIN TIME (LST):     AVERAGE WIND SPEED (MPH):14.1 24 HR AVG TEMP (F): 45DEPART FROM NORMAL:  4  HEATING DEGREE DAYS: 20 COOLING DEGREE DAYS:  0EQDR01  0.007AAP092
0484999999137242024031304596+39378-074424SOD  +000355N  V030999999999999999999999999999+99999+99999999999ADDAA12400009AKA1240M+01895KA2240N+00565OE11240138630099995OE22240067129099995OE33240040799999995REMSOD35924 HR PRECIPITATION (IN): 0.00 24 HR MAX TEMP (F): 6624 HR MIN TEMP (F): 42PEAK WIND SPEED (MPH): 31 PEAK WIND DIR (DEG):300 PEAK WIND TIME (LST):      FASTEST 2MIN SPEED (MPH): 15FASTEST 2MIN DIR (DEG):290 FASTEST 2MIN TIME (LST):     AVERAGE WIND SPEED (MPH): 9.1 24 HR AVG TEMP (F): 54DEPART FROM NORMAL: 12  HEATING DEGREE DAYS: 11 COOLING DEGREE DAYS:  0EQDR01  0.007AAP092
0484999999137242024031404596+39378-074424SOD  +000355N  V030999999999999999999999999999+99999+99999999999ADDAA12400009AKA1240M+01835KA2240N+00895OE11240093923099995OE22240062623099995OE33240024199999995REMSOD35924 HR PRECIPITATION (IN): 0.00 24 HR MAX TEMP (F): 6524 HR MIN TEMP (F): 48PEAK WIND SPEED (MPH): 21 PEAK WIND DIR (DEG):230 PEAK WIND TIME (LST):      FASTEST 2MIN SPEED (MPH): 14FASTEST 2MIN DIR (DEG):230 FASTEST 2MIN TIME (LST):     AVERAGE WIND SPEED (MPH): 5.4 24 HR AVG TEMP (F): 57DEPART FROM NORMAL: 15  HEATING DEGREE DAYS:  8 COOLING DEGREE DAYS:  0EQDR01  0.007AAP092
0484999999137242024031504596+39378-074424SOD  +000355N  V030999999999999999999999999999+99999+99999999999ADDAA12400009AKA1240M+01895KA2240N+01115OE11240129622099995OE22240071521099995OE33240037699999995REMSOD35924 HR PRECIPITATION (IN): 0.00 24 HR MAX TEMP (F): 6624 HR MIN TEMP (F): 52PEAK WIND SPEED (MPH): 29 PEAK WIND DIR (DEG):220 PEAK WIND TIME (LST):      FASTEST 2MIN SPEED (MPH): 16FASTEST 2MIN DIR (DEG):210 FASTEST 2MIN TIME (LST):     AVERAGE WIND SPEED (MPH): 8.4 24 HR AVG TEMP (F): 59DEPART FROM NORMAL: 17  HEATING DEGREE DAYS:  6 COOLING DEGREE DAYS:  0EQDR01  0.007AAP092
0465999999137242024031604596+39378-074424SOD  +000355N  V030999999999999999999999999999+99999+99999999999ADDAA124004895KA1240M+02225KA2240N+00895OE11240116229099995OE22240071508099995OE33240042599999995REMSOD35924 HR PRECIPITATION (IN): 0.19 24 HR MAX TEMP (F): 7224 HR MIN TEMP (F): 48PEAK WIND SPEED (MPH): 26 PEAK WIND DIR (DEG):290 PEAK WIND TIME (LST):      FASTEST 2MIN SPEED (MPH): 16FASTEST 2MIN DIR (DEG): 80 FASTEST 2MIN TIME (LST):     AVERAGE WIND SPEED (MPH): 9.5 24 HR AVG TEMP (F): 60DEPART FROM NORMAL: 18  HEATING DEGREE DAYS:  5 COOLING DEGREE DAYS:  0
0484999999137242024031704596+39378-074424SOD  +000355N  V030999999999999999999999999999+99999+99999999999ADDAA12400009AKA1240M+01115KA2240N+00785OE11240134123099995OE22240084922099995OE33240038499999995REMSOD35924 HR PRECIPITATION (IN): 0.00 24 HR MAX TEMP (F): 5224 HR MIN TEMP (F): 46PEAK WIND SPEED (MPH): 30 PEAK WIND DIR (DEG):230 PEAK WIND TIME (LST):      FASTEST 2MIN SPEED (MPH): 19FASTEST 2MIN DIR (DEG):220 FASTEST 2MIN TIME (LST):     AVERAGE WIND SPEED (MPH): 8.6 24 HR AVG TEMP (F): 49DEPART FROM NORMAL:  7  HEATING DEGREE DAYS: 16 COOLING DEGREE DAYS:  0EQDR01  0.007AAP092
0484999999137242024031804596+39378-074424SOD  +000355N  V030999999999999999999999999999+99999+99999999999ADDAA12400009AKA1240M+01785KA2240N+00945OE11240138621099995OE22240080522099995OE33240039899999995REMSOD35924 HR PRECIPITATION (IN): 0.00 24 HR MAX TEMP (F): 6424 HR MIN TEMP (F): 49PEAK WIND SPEED (MPH): 31 PEAK WIND DIR (DEG):210 PEAK WIND TIME (LST):      FASTEST 2MIN SPEED (MPH): 18FASTEST 2MIN DIR (DEG):220 FASTEST 2MIN TIME (LST):     AVERAGE WIND SPEED (MPH): 8.9 24 HR AVG TEMP (F): 57DEPART FROM NORMAL: 14  HEATING DEGREE DAYS:  8 COOLING DEGREE DAYS:  0EQDR01  0.007AAP092
0484999999137242024031904596+39378-074424SOD  +000355N  V030999999999999999999999999999+99999+99999999999ADDAA12400009AKA1240M+01175KA2240N+00335OE11240134130099995OE22240067133099995OE33240042999999995REMSOD35924 HR PRECIPITATION (IN): 0.00 24 HR MAX TEMP (F): 5324 HR MIN TEMP (F): 38PEAK WIND SPEED (MPH): 30 PEAK WIND DIR (DEG):300 PEAK WIND TIME (LST):      FASTEST 2MIN SPEED (MPH): 15FASTEST 2MIN DIR (DEG):330 FASTEST 2MIN TIME (LST):     AVERAGE WIND SPEED (MPH): 9.6 24 HR AVG TEMP (F): 46DEPART FROM NORMAL:  3  HEATING DEGREE DAYS: 19 COOLING DEGREE DAYS:  0EQDR01  0.007AAP092
0484999999137242024032004596+39378-074424SOD  +000355N  V030999999999999999999999999999+99999+99999999999ADDAA12400009AKA1240M+00785KA2240N+00175OE11240147531099995OE22240080526099995OE33240045699999995REMSOD35924 HR PRECIPITATION (IN): 0.00 24 HR MAX TEMP (F): 4624 HR MIN TEMP (F): 35PEAK WIND SPEED (MPH): 33 PEAK WIND DIR (DEG):310 PEAK WIND TIME (LST):      FASTEST 2MIN SPEED (MPH): 18FASTEST 2MIN DIR (DEG):260 FASTEST 2MIN TIME (LST):     AVERAGE WIND SPEED (MPH):10.2 24 HR AVG TEMP (F): 41DEPART FROM NORMAL: -2  HEATING DEGREE DAYS: 24 COOLING DEGREE DAYS:  0EQDR01  0.007AAP092
0484999999137242024032104596+39378-074424SOD  +000355N  V030999999999999999999999999999+99999+99999999999ADDAA12400009AKA1240M+01675KA2240N+00395OE11240196733099995OE22240120733099995OE33240056899999995REMSOD35924 HR PRECIPITATION (IN): 0.00 24 HR MAX TEMP (F): 6224 HR MIN TEMP (F): 39PEAK WIND SPEED (MPH): 44 PEAK WIND DIR (DEG):330 PEAK WIND TIME (LST):      FASTEST 2MIN SPEED (MPH): 27FASTEST 2MIN DIR (DEG):330 FASTEST 2MIN TIME (LST):     AVERAGE WIND SPEED (MPH):12.7 24 HR AVG TEMP (F): 51DEPART FROM NORMAL:  8  HEATING DEGREE DAYS: 14 COOLING DEGREE DAYS:  0EQDR01  0.007AAP092
0484999999137242024032204596+39378-074424SOD  +000355N  V030999999999999999999999999999+99999+99999999999ADDAA12400009AKA1240M+00675KA2240N+00005OE11240125232099995OE22240062629099995OE33240034999999995REMSOD35924 HR PRECIPITATION (IN): 0.00 24 HR MAX TEMP (F): 4424 HR MIN TEMP (F): 32PEAK WIND SPEED (MPH): 28 PEAK WIND DIR (DEG):320 PEAK WIND TIME (LST):      FASTEST 2MIN SPEED (MPH): 14FASTEST 2MIN DIR (DEG):290 FASTEST 2MIN TIME (LST):     AVERAGE WIND SPEED (MPH): 7.8 24 HR AVG TEMP (F): 38DEPART FROM NORMAL: -6  HEATING DEGREE DAYS: 27 COOLING DEGREE DAYS:  0EQDR01  0.007AAP092
0484999999137242024032304596+39378-074424SOD  +000355N  V030999999999999999999999999999+99999+99999999999ADDAA12400009AKA1240M+00785KA2240N+00005OE11240084912099995OE22240058112099995OE33240036299999995REMSOD35924 HR PRECIPITATION (IN): 0.00 24 HR MAX TEMP (F): 4624 HR MIN TEMP (F): 32PEAK WIND SPEED (MPH): 19 PEAK WIND DIR (DEG):120 PEAK WIND TIME (LST):      FASTEST 2MIN SPEED (MPH): 13FASTEST 2MIN DIR (DEG):120 FASTEST 2MIN TIME (LST):     AVERAGE WIND SPEED (MPH): 8.1 24 HR AVG TEMP (F): 39DEPART FROM NORMAL: -5  HEATING DEGREE DAYS: 26 COOLING DEGREE DAYS:  0EQDR01  0.007AAP092
0465999999137242024032404596+39378-074424SOD  +000355N  V030999999999999999999999999999+99999+99999999999ADDAA124031095KA1240M+01285KA2240N+00115OE11240201233099995OE22240111833099995OE33240068099999995REMSOD35924 HR PRECIPITATION (IN): 1.22 24 HR MAX TEMP (F): 5524 HR MIN TEMP (F): 34PEAK WIND SPEED (MPH): 45 PEAK WIND DIR (DEG):330 PEAK WIND TIME (LST):      FASTEST 2MIN SPEED (MPH): 25FASTEST 2MIN DIR (DEG):330 FASTEST 2MIN TIME (LST):     AVERAGE WIND SPEED (MPH):15.2 24 HR AVG TEMP (F): 45DEPART FROM NORMAL:  1  HEATING DEGREE DAYS: 20 COOLING DEGREE DAYS:  0
0484999999137242024032504596+39378-074424SOD  +000355N  V030999999999999999999999999999+99999+99999999999ADDAA12400009AKA1240M+00615KA2240N+00005OE11240160933099995OE22240084933099995OE33240051499999995REMSOD35924 HR PRECIPITATION (IN): 0.00 24 HR MAX TEMP (F): 4324 HR MIN TEMP (F): 32PEAK WIND SPEED (MPH): 36 PEAK WIND DIR (DEG):330 PEAK WIND TIME (LST):      FASTEST 2MIN SPEED (MPH): 19FASTEST 2MIN DIR (DEG):330 FASTEST 2MIN TIME (LST):     AVERAGE WIND SPEED (MPH):11.5 24 HR AVG TEMP (F): 38DEPART FROM NORMAL: -6  HEATING DEGREE DAYS: 27 COOLING DEGREE DAYS:  0EQDR01  0.007AAP092
0484999999137242024032604596+39378-074424SOD  +000355N  V030999999999999999999999999999+99999+99999999999ADDAA12400009AKA1240M+00725KA2240N+00335OE11240147506099995OE22240084907099995OE33240060899999995REMSOD35924 HR PRECIPITATION (IN): 0.00 24 HR MAX TEMP (F): 4524 HR MIN TEMP (F): 38PEAK WIND SPEED (MPH): 33 PEAK WIND DIR (DEG): 60 PEAK WIND TIME (LST):      FASTEST 2MIN SPEED (MPH): 19FASTEST 2MIN DIR (DEG): 70 FASTEST 2MIN TIME (LST):     AVERAGE WIND SPEED (MPH):13.6 24 HR AVG TEMP (F): 42DEPART FROM NORMAL: -3  HEATING DEGREE DAYS: 23 COOLING DEGREE DAYS:  0EQDR01  0.007AAP092
0484999999137242024032704596+39378-074424SOD  +000355N  V030999999999999999999999999999+99999+99999999999ADDAA12400009AKA1240M+00615KA2240N+00445OE11240134107099995OE22240098308099995OE33240058699999995REMSOD35924 HR PRECIPITATION (IN): 0.00 24 HR MAX TEMP (F): 4324 HR MIN TEMP (F): 40PEAK WIND SPEED (MPH): 30 PEAK WIND DIR (DEG): 70 PEAK WIND TIME (LST):      FASTEST 2MIN SPEED (MPH): 22FASTEST 2MIN DIR (DEG): 80 FASTEST 2MIN TIME (LST):     AVERAGE WIND SPEED (MPH):13.1 24 HR AVG TEMP (F): 42DEPART FROM NORMAL: -3  HEATING DEGREE DAYS: 23 COOLING DEGREE DAYS:  0EQDR01  0.007AAP092
0465999999137242024032804596+39378-074424SOD  +000355N  V030999999999999999999999999999+99999+99999999999ADDAA124007195KA1240M+00725KA2240N+00565OE11240093909099995OE22240071509099995OE33240026899999995REMSOD35924 HR PRECIPITATION (IN): 0.28 24 HR MAX TEMP (F): 4524 HR MIN TEMP (F): 42PEAK WIND SPEED (MPH): 21 PEAK WIND DIR (DEG): 90 PEAK WIND TIME (LST):      FASTEST 2MIN SPEED (MPH): 16FASTEST 2MIN DIR (DEG): 90 FASTEST 2MIN TIME (LST):     AVERAGE WIND SPEED (MPH): 6.0 24 HR AVG TEMP (F): 44DEPART FROM NORMAL: -1  HEATING DEGREE DAYS: 21 COOLING DEGREE DAYS:  0
0465999999137242024032904596+39378-074424SOD  +000355N  V030999999999999999999999999999+99999+99999999999ADDAA124044295KA1240M+00945KA2240N+00675OE11240116235099995OE22240067133099995OE33240027799999995REMSOD35924 HR PRECIPITATION (IN): 1.74 24 HR MAX TEMP (F): 4924 HR MIN TEMP (F): 44PEAK WIND SPEED (MPH): 26 PEAK WIND DIR (DEG):350 PEAK WIND TIME (LST):      FASTEST 2MIN SPEED (MPH): 15FASTEST 2MIN DIR (DEG):330 FASTEST 2MIN TIME (LST):     AVERAGE WIND SPEED (MPH): 6.2 24 HR AVG TEMP (F): 47DEPART FROM NORMAL:  1  HEATING DEGREE DAYS: 18 COOLING DEGREE DAYS:  0
0484999999137242024033004596+39378-074424SOD  +000355N  V030999999999999999999999999999+99999+99999999999ADDAA12400009AKA1240M+01335KA2240N+00445OE11240169930099995OE22240084929099995OE33240048799999995REMSOD35924 HR PRECIPITATION (IN): 0.00 24 HR MAX TEMP (F): 5624 HR MIN TEMP (F): 40PEAK WIND SPEED (MPH): 38 PEAK WIND DIR (DEG):300 PEAK WIND TIME (LST):      FASTEST 2MIN SPEED (MPH): 19FASTEST 2MIN DIR (DEG):290 FASTEST 2MIN TIME (LST):     AVERAGE WIND SPEED (MPH):10.9 24 HR AVG TEMP (F): 48DEPART FROM NORMAL:  2  HEATING DEGREE DAYS: 17 COOLING DEGREE DAYS:  0EQDR01  0.007AAP092
0465999999137242024033104596+39378-074424SOD  +000355N  V030999999999999999999999999999+99999+99999999999ADDAA124002395KA1240M+01565KA2240N+00445OE11240120729099995OE22240076027099995OE33240038999999995REMSOD35924 HR PRECIPITATION (IN): 0.09 24 HR MAX TEMP (F): 6024 HR MIN TEMP (F): 40PEAK WIND SPEED (MPH): 27 PEAK WIND DIR (DEG):290 PEAK WIND TIME (LST):      FASTEST 2MIN SPEED (MPH): 17FASTEST 2MIN DIR (DEG):270 FASTEST 2MIN TIME (LST):     AVERAGE WIND SPEED (MPH): 8.7 24 HR AVG TEMP (F): 50DEPART FROM NORMAL:  4  HEATING DEGREE DAYS: 15 COOLING DEGREE DAYS:  0
0465999999137242024040104596+39378-074424SOD  +000355N  V030999999999999999999999999999+99999+99999999999ADDAA124000395KA1240M+01675KA2240N+00785OE11240080527099995OE22240053627099995OE33240024199999995REMSOD35924 HR PRECIPITATION (IN): 0.01 24 HR MAX TEMP (F): 6224 HR MIN TEMP (F): 46PEAK WIND SPEED (MPH): 18 PEAK WIND DIR (DEG):270 PEAK WIND TIME (LST):      FASTEST 2MIN SPEED (MPH): 12FASTEST 2MIN DIR (DEG):270 FASTEST 2MIN TIME (LST):     AVERAGE WIND SPEED (MPH): 5.4 24 HR AVG TEMP (F): 54DEPART FROM NORMAL:  8  HEATING DEGREE DAYS: 11 COOLING DEGREE DAYS:  0
0128999999137242024040104596+39378-074424SOM  +000355N  V030999999999999999999999999999+99999+99999999999ADDAD1004429282899999999IAE111U09U06U04UKB1240N+0511IKB2240M+1211IKB3240A+0861IKC1N1+0000249999IKC2M9+0222159999IKE100U00U03U00U
0465999999137242024050104596+39378-074424SOD  +000355N  V030999999999999999999999999999+99999+99999999999ADDAA124000095KA1240M+01945KA2240N+01225OE11240143123099995OE22240080522099995OE33240039899999995REMSOD35924 HR PRECIPITATION (IN): 0.00 24 HR MAX TEMP (F): 6724 HR MIN TEMP (F): 54PEAK WIND SPEED (MPH): 32 PEAK WIND DIR (DEG):230 PEAK WIND TIME (LST):      FASTEST 2MIN SPEED (MPH): 18FASTEST 2MIN DIR (DEG):220 FASTEST 2MIN TIME (LST):     AVERAGE WIND SPEED (MPH): 8.9 24 HR AVG TEMP (F): 61DEPART FROM NORMAL:  5  HEATING DEGREE DAYS:  4 COOLING DEGREE DAYS:  0
0128999999137242024050104596+39378-074424SOM  +000355N  V030999999999999999999999999999+99999+99999999999ADDAD1003819030399999999IAE110U07U02U01UKB1240N+0889IKB2240M+1467IKB3240A+1178IKC1N9+0044069999IKC2M9+0250159999IKE100U00U00U00U
0465999999137242024050204596+39378-074424SOD  +000355N  V030999999999999999999999999999+99999+99999999999ADDAA124000095KA1240M+01675KA2240N+01175OE11240080519099995OE22240053620099995OE33240029599999995REMSOD35924 HR PRECIPITATION (IN): 0.00 24 HR MAX TEMP (F): 6224 HR MIN TEMP (F): 53PEAK WIND SPEED (MPH): 18 PEAK WIND DIR (DEG):190 PEAK WIND TIME (LST):      FASTEST 2MIN SPEED (MPH): 12FASTEST 2MIN DIR (DEG):200 FASTEST 2MIN TIME (LST):     AVERAGE WIND SPEED (MPH): 6.6 24 HR AVG TEMP (F): 58DEPART FROM NORMAL:  2  HEATING DEGREE DAYS:  7 COOLING DEGREE DAYS:  0
0465999999137242024050304596+39378-074424SOD  +000355N  V030999999999999999999999999999+99999+99999999999ADDAA124000095KA1240M+02285KA2240N+01175OE11240147523099995OE22240080522099995OE33240042599999995REMSOD35924 HR PRECIPITATION (IN): 0.00 24 HR MAX TEMP (F): 7324 HR MIN TEMP (F): 53PEAK WIND SPEED (MPH): 33 PEAK WIND DIR (DEG):230 PEAK WIND TIME (LST):      FASTEST 2MIN SPEED (MPH): 18FASTEST 2MIN DIR (DEG):220 FASTEST 2MIN TIME (LST):     AVERAGE WIND SPEED (MPH): 9.5 24 HR AVG TEMP (F): 63DEPART FROM NORMAL:  7  HEATING DEGREE DAYS:  2 COOLING DEGREE DAYS:  0
0465999999137242024050404596+39378-074424SOD  +000355N  V030999999999999999999999999999+99999+99999999999ADDAA124000095KA1240M+01785KA2240N+00945OE11240129608099995OE22240089408099995OE33240064899999995REMSOD35924 HR PRECIPITATION (IN): 0.00 24 HR MAX TEMP (F): 6424 HR MIN TEMP (F): 49PEAK WIND SPEED (MPH): 29 PEAK WIND DIR (DEG): 80 PEAK WIND TIME (LST):      FASTEST 2MIN SPEED (MPH): 20FASTEST 2MIN DIR (DEG): 80 FASTEST 2MIN TIME (LST):     AVERAGE WIND SPEED (MPH):14.5 24 HR AVG TEMP (F): 57DEPART FROM NORMAL:  0  HEATING DEGREE DAYS:  8 COOLING DEGREE DAYS:  0
0484999999137242024050504596+39378-074424SOD  +000355N  V030999999999999999999999999999+99999+99999999999ADDAA12400259AKA1240M+01005KA2240N+00895OE11240111810099995OE22240084911099995OE33240060899999995REMSOD35924 HR PRECIPITATION (IN): 0.10 24 HR MAX TEMP (F): 5024 HR MIN TEMP (F): 48PEAK WIND SPEED (MPH): 25 PEAK WIND DIR (DEG):100 PEAK WIND TIME (LST):      FASTEST 2MIN SPEED (MPH): 19FASTEST 2MIN DIR (DEG):110 FASTEST 2MIN TIME (LST):     AVERAGE WIND SPEED (MPH):13.6 24 HR AVG TEMP (F): 49DEPART FROM NORMAL: -8  HEATING DEGREE DAYS: 16 COOLING DEGREE DAYS:  0EQDR01  0.107AAP092
0484999999137242024050604596+39378-074424SOD  +000355N  V030999999999999999999999999999+99999+99999999999ADDAA12400109AKA1240M+01505KA2240N+01005OE11240102811099995OE22240071511099995OE33240049699999995REMSOD35924 HR PRECIPITATION (IN): 0.04 24 HR MAX TEMP (F): 5924 HR MIN TEMP (F): 50PEAK WIND SPEED (MPH): 23 PEAK WIND DIR (DEG):110 PEAK WIND TIME (LST):      FASTEST 2MIN SPEED (MPH): 16FASTEST 2MIN DIR (DEG):110 FASTEST 2MIN TIME (LST):     AVERAGE WIND SPEED (MPH):11.1 24 HR AVG TEMP (F): 55DEPART FROM NORMAL: -2  HEATING DEGREE DAYS: 10 COOLING DEGREE DAYS:  0EQDR01  0.047AAP092
0484999999137242024050704596+39378-074424SOD  +000355N  V030999999999999999999999999999+99999+99999999999ADDAA12400189AKA1240M+01675KA2240N+01395OE11240080522099995OE22240040222099995OE33240020199999995REMSOD35924 HR PRECIPITATION (IN): 0.07 24 HR MAX TEMP (F): 6224 HR MIN TEMP (F): 57PEAK WIND SPEED (MPH): 18 PEAK WIND DIR (DEG):220 PEAK WIND TIME (LST):      FASTEST 2MIN SPEED (MPH):  9FASTEST 2MIN DIR (DEG):220 FASTEST 2MIN TIME (LST):     AVERAGE WIND SPEED (MPH): 4.5 24 HR AVG TEMP (F): 60DEPART FROM NORMAL:  2  HEATING DEGREE DAYS:  5 COOLING DEGREE DAYS:  0EQDR01  0.077AAP092
0465999999137242024050804596+39378-074424SOD  +000355N  V030999999999999999999999999999+99999+99999999999ADDAA124000095KA1240M+02005KA2240N+01615OE11240076013099995OE22240053610099995OE33240024699999995REMSOD35924 HR PRECIPITATION (IN): 0.00 24 HR MAX TEMP (F): 6824 HR MIN TEMP (F): 61PEAK WIND SPEED (MPH): 17 PEAK WIND DIR (DEG):130 PEAK WIND TIME (LST):      FASTEST 2MIN SPEED (MPH): 12FASTEST 2MIN DIR (DEG):100 FASTEST 2MIN TIME (LST):     AVERAGE WIND SPEED (MPH): 5.5 24 HR AVG TEMP (F): 65DEPART FROM NORMAL:  7  HEATING DEGREE DAYS:  0 COOLING DEGREE DAYS:  0
0465999999137242024050904596+39378-074424SOD  +000355N  V030999999999999999999999999999+99999+99999999999ADDAA124000095KA1240M+02895KA2240N+01395OE11240102823099995OE22240062622099995OE33240039899999995REMSOD35924 HR PRECIPITATION (IN): 0.00 24 HR MAX TEMP (F): 8424 HR MIN TEMP (F): 57PEAK WIND SPEED (MPH): 23 PEAK WIND DIR (DEG):230 PEAK WIND TIME (LST):      FASTEST 2MIN SPEED (MPH): 14FASTEST 2MIN DIR (DEG):220 FASTEST 2MIN TIME (LST):     AVERAGE WIND SPEED (MPH): 8.9 24 HR AVG TEMP (F): 71DEPART FROM NORMAL: 13  HEATING DEGREE DAYS:  0 COOLING DEGREE DAYS:  6
0465999999137242024051004596+39378-074424SOD  +000355N  V030999999999999999999999999999+99999+99999999999ADDAA124000095KA1240M+02285KA2240N+01335OE11240102811099995OE22240076011099995OE33240037199999995REMSOD35924 HR PRECIPITATION (IN): 0.00 24 HR MAX TEMP (F): 7324 HR MIN TEMP (F): 56PEAK WIND SPEED (MPH): 23 PEAK WIND DIR (DEG):110 PEAK WIND TIME (LST):      FASTEST 2MIN SPEED (MPH): 17FASTEST 2MIN DIR (DEG):110 FASTEST 2MIN TIME (LST):     AVERAGE WIND SPEED (MPH): 8.3 24 HR AVG TEMP (F): 65DEPART FROM NORMAL:  7  HEATING DEGREE DAYS:  0 COOLING DEGREE DAYS:  0
0484999999137242024051104596+39378-074424SOD  +000355N  V030999999999999999999999999999+99999+99999999999ADDAA12401149AKA1240M+01335KA2240N+00945OE11240178809099995OE22240125208099995OE33240083699999995REMSOD35924 HR PRECIPITATION (IN): 0.45 24 HR MAX TEMP (F): 5624 HR MIN TEMP (F): 49PEAK WIND SPEED (MPH): 40 PEAK WIND DIR (DEG): 90 PEAK WIND TIME (LST):      FASTEST 2MIN SPEED (MPH): 28FASTEST 2MIN DIR (DEG): 80 FASTEST 2MIN TIME (LST):     AVERAGE WIND SPEED (MPH):18.7 24 HR AVG TEMP (F): 53DEPART FROM NORMAL: -6  HEATING DEGREE DAYS: 12 COOLING DEGREE DAYS:  0EQDR01  0.457AAP092
0465999999137242024051204596+39378-074424SOD  +000355N  V030999999999999999999999999999+99999+99999999999ADDAA124000095KA1240M+01225KA2240N+00895OE11240102809099995OE22240076009099995OE33240042599999995REMSOD35924 HR PRECIPITATION (IN): 0.00 24 HR MAX TEMP (F): 5424 HR MIN TEMP (F): 48PEAK WIND SPEED (MPH): 23 PEAK WIND DIR (DEG): 90 PEAK WIND TIME (LST):      FASTEST 2MIN SPEED (MPH): 17FASTEST 2MIN DIR (DEG): 90 FASTEST 2MIN TIME (LST):     AVERAGE WIND SPEED (MPH): 9.5 24 HR AVG TEMP (F): 51DEPART FROM NORMAL: -8  HEATING DEGREE DAYS: 14 COOLING DEGREE DAYS:  0
0484999999137242024051304596+39378-074424SOD  +000355N  V030999999999999999999999999999+99999+99999999999ADDAA12400139AKA1240M+01065KA2240N+00945OE11240089411099995OE22240067111099995OE33240035399999995REMSOD35924 HR PRECIPITATION (IN): 0.05 24 HR MAX TEMP (F): 5124 HR MIN TEMP (F): 49PEAK WIND SPEED (MPH): 20 PEAK WIND DIR (DEG):110 PEAK WIND TIME (LST):      FASTEST 2MIN SPEED (MPH): 15FASTEST 2MIN DIR (DEG):110 FASTEST 2MIN TIME (LST):     AVERAGE WIND SPEED (MPH): 7.9 24 HR AVG TEMP (F): 50DEPART FROM NORMAL: -9  HEATING DEGREE DAYS: 15 COOLING DEGREE DAYS:  0EQDR01  0.057AAP092
0465999999137242024051404596+39378-074424SOD  +000355N  V030999999999999999999999999999+99999+99999999999ADDAA124000095KA1240M+01445KA2240N+00945OE11240111822099995OE22240076022099995OE33240037699999995REMSOD35924 HR PRECIPITATION (IN): 0.00 24 HR MAX TEMP (F): 5824 HR MIN TEMP (F): 49PEAK WIND SPEED (MPH): 25 PEAK WIND DIR (DEG):220 PEAK WIND TIME (LST):      FASTEST 2MIN SPEED (MPH): 17FASTEST 2MIN DIR (DEG):220 FASTEST 2MIN TIME (LST):     AVERAGE WIND SPEED (MPH): 8.4 24 HR AVG TEMP (F): 54DEPART FROM NORMAL: -5  HEATING DEGREE DAYS: 11 COOLING DEGREE DAYS:  0
0465999999137242024051504596+39378-074424SOD  +000355N  V030999999999999999999999999999+99999+99999999999ADDAA124000095KA1240M+01785KA2240N+01335OE11240098321099995OE22240058123099995OE33240039399999995REMSOD35924 HR PRECIPITATION (IN): 0.00 24 HR MAX TEMP (F): 6424 HR MIN TEMP (F): 56PEAK WIND SPEED (MPH): 22 PEAK WIND DIR (DEG):210 PEAK WIND TIME (LST):      FASTEST 2MIN SPEED (MPH): 13FASTEST 2MIN DIR (DEG):230 FASTEST 2MIN TIME (LST):     AVERAGE WIND SPEED (MPH): 8.8 24 HR AVG TEMP (F): 60DEPART FROM NORMAL:  0  HEATING DEGREE DAYS:  5 COOLING DEGREE DAYS:  0
0484999999137242024051604596+39378-074424SOD  +000355N  V030999999999999999999999999999+99999+99999999999ADDAA12402469AKA1240M+01565KA2240N+01395OE11240192208099995OE22240125208099995OE33240058199999995REMSOD35924 HR PRECIPITATION (IN): 0.97 24 HR MAX TEMP (F): 6024 HR MIN TEMP (F): 57PEAK WIND SPEED (MPH): 43 PEAK WIND DIR (DEG): 80 PEAK WIND TIME (LST):      FASTEST 2MIN SPEED (MPH): 28FASTEST 2MIN DIR (DEG): 80 FASTEST 2MIN TIME (LST):     AVERAGE WIND SPEED (MPH):13.0 24 HR AVG TEMP (F): 59DEPART FROM NORMAL: -1  HEATING DEGREE DAYS:  6 COOLING DEGREE DAYS:  0EQDR01  0.977AAP092
0484999999137242024051704596+39378-074424SOD  +000355N  V030999999999999999999999999999+99999+99999999999ADDAA12400389AKA1240M+01675KA2240N+01445OE11240134133099995OE22240076005099995OE33240048799999995REMSOD35924 HR PRECIPITATION (IN): 0.15 24 HR MAX TEMP (F): 6224 HR MIN TEMP (F): 58PEAK WIND SPEED (MPH): 30 PEAK WIND DIR (DEG):330 PEAK WIND TIME (LST):      FASTEST 2MIN SPEED (MPH): 17FASTEST 2MIN DIR (DEG): 50 FASTEST 2MIN TIME (LST):     AVERAGE WIND SPEED (MPH):10.9 24 HR AVG TEMP (F): 60DEPART FROM NORMAL:  0  HEATING DEGREE DAYS:  5 COOLING DEGREE DAYS:  0EQDR01  0.157AAP092
0465999999137242024051804596+39378-074424SOD  +000355N  V030999999999999999999999999999+99999+99999999999ADDAA124000095KA1240M+01835KA2240N+01395OE11240134106099995OE22240071506099995OE33240038099999995REMSOD35924 HR PRECIPITATION (IN): 0.00 24 HR MAX TEMP (F): 6524 HR MIN TEMP (F): 57PEAK WIND SPEED (MPH): 30 PEAK WIND DIR (DEG): 60 PEAK WIND TIME (LST):      FASTEST 2MIN SPEED (MPH): 16FASTEST 2MIN DIR (DEG): 60 FASTEST 2MIN TIME (LST):     AVERAGE WIND SPEED (MPH): 8.5 24 HR AVG TEMP (F): 61DEPART FROM NORMAL:  1  HEATING DEGREE DAYS:  4 COOLING DEGREE DAYS:  0
0484999999137242024051904596+39378-074424SOD  +000355N  V030999999999999999999999999999+99999+99999999999ADDAA12400339AKA1240M+01675KA2240N+01335OE11240071509099995OE22240049209099995OE33240022499999995REMSOD35924 HR PRECIPITATION (IN): 0.13 24 HR MAX TEMP (F): 6224 HR MIN TEMP (F): 56PEAK WIND SPEED (MPH): 16 PEAK WIND DIR (DEG): 90 PEAK WIND TIME (LST):      FASTEST 2MIN SPEED (MPH): 11FASTEST 2MIN DIR (DEG): 90 FASTEST 2MIN TIME (LST):     AVERAGE WIND SPEED (MPH): 5.0 24 HR AVG TEMP (F): 59DEPART FROM NORMAL: -2  HEATING DEGREE DAYS:  6 COOLING DEGREE DAYS:  0EQDR01  0.137AAP092
0465999999137242024052004596+39378-074424SOD  +000355N  V030999999999999999999999999999+99999+99999999999ADDAA124000095KA1240M+01725KA2240N+01285OE11240129607099995OE22240076007099995OE33240036299999995REMSOD35924 HR PRECIPITATION (IN): 0.00 24 HR MAX TEMP (F): 6324 HR MIN TEMP (F): 55PEAK WIND SPEED (MPH): 29 PEAK WIND DIR (DEG): 70 PEAK WIND TIME (LST):      FASTEST 2MIN SPEED (MPH): 17FASTEST 2MIN DIR (DEG): 70 FASTEST 2MIN TIME (LST):     AVERAGE WIND SPEED (MPH): 8.1 24 HR AVG TEMP (F): 59DEPART FROM NORMAL: -2  HEATING DEGREE DAYS:  6 COOLING DEGREE DAYS:  0
0465999999137242024052104596+39378-074424SOD  +000355N  V030999999999999999999999999999+99999+99999999999ADDAA124000095KA1240M+01565KA2240N+01225OE11240084908099995OE22240062608099995OE33240028699999995REMSOD35924 HR PRECIPITATION (IN): 0.00 24 HR MAX TEMP (F): 6024 HR MIN TEMP (F): 54PEAK WIND SPEED (MPH): 19 PEAK WIND DIR (DEG): 80 PEAK WIND TIME (LST):      FASTEST 2MIN SPEED (MPH): 14FASTEST 2MIN DIR (DEG): 80 FASTEST 2MIN TIME (LST):     AVERAGE WIND SPEED (MPH): 6.4 24 HR AVG TEMP (F): 57DEPART FROM NORMAL: -4  HEATING DEGREE DAYS:  8 COOLING DEGREE DAYS:  0
0465999999137242024052204596+39378-074424SOD  +000355N  V030999999999999999999999999999+99999+99999999999ADDAA124000095KA1240M+01895KA2240N+01225OE11240093924099995OE22240058124099995OE33240033199999995REMSOD35924 HR PRECIPITATION (IN): 0.00 24 HR MAX TEMP (F): 6624 HR MIN TEMP (F): 54PEAK WIND SPEED (MPH): 21 PEAK WIND DIR (DEG):240 PEAK WIND TIME (LST):      FASTEST 2MIN SPEED (MPH): 13FASTEST 2MIN DIR (DEG):240 FASTEST 2MIN TIME (LST):     AVERAGE WIND SPEED (MPH): 7.4 24 HR AVG TEMP (F): 60DEPART FROM NORMAL: -2  HEATING DEGREE DAYS:  5 COOLING DEGREE DAYS:  0
0465999999137242024052304596+39378-074424SOD  +000355N  V030999999999999999999999999999+99999+99999999999ADDAA124000095KA1240M+01895KA2240N+01565OE11240129622099995OE22240080522099995OE33240044799999995REMSOD35924 HR PRECIPITATION (IN): 0.00 24 HR MAX TEMP (F): 6624 HR MIN TEMP (F): 60PEAK WIND SPEED (MPH): 29 PEAK WIND DIR (DEG):220 PEAK WIND TIME (LST):      FASTEST 2MIN SPEED (MPH): 18FASTEST 2MIN DIR (DEG):220 FASTEST 2MIN TIME (LST):     AVERAGE WIND SPEED (MPH):10.0 24 HR AVG TEMP (F): 63DEPART FROM NORMAL:  1  HEATING DEGREE DAYS:  2 COOLING DEGREE DAYS:  0
0465999999137242024052404596+39378-074424SOD  +000355N  V030999999999999999999999999999+99999+99999999999ADDAA124000095KA1240M+02565KA2240N+01725OE11240093923099995OE22240062623099995OE33240032299999995REMSOD35924 HR PRECIPITATION (IN): 0.00 24 HR MAX TEMP (F): 7824 HR MIN TEMP (F): 63PEAK WIND SPEED (MPH): 21 PEAK WIND DIR (DEG):230 PEAK WIND TIME (LST):      FASTEST 2MIN SPEED (MPH): 14FASTEST 2MIN DIR (DEG):230 FASTEST 2MIN TIME (LST):     AVERAGE WIND SPEED (MPH): 7.2 24 HR AVG TEMP (F): 71DEPART FROM NORMAL:  9  HEATING DEGREE DAYS:  0 COOLING DEGREE DAYS:  6
0465999999137242024052504596+39378-074424SOD  +000355N  V030999999999999999999999999999+99999+99999999999ADDAA124000095KA1240M+02565KA2240N+01725OE11240080520099995OE22240053623099995OE33240027399999995REMSOD35924 HR PRECIPITATION (IN): 0.00 24 HR MAX TEMP (F): 7824 HR MIN TEMP (F): 63PEAK WIND SPEED (MPH): 18 PEAK WIND DIR (DEG):200 PEAK WIND TIME (LST):      FASTEST 2MIN SPEED (MPH): 12FASTEST 2MIN DIR (DEG):230 FASTEST 2MIN TIME (LST):     AVERAGE WIND SPEED (MPH): 6.1 24 HR AVG TEMP (F): 71DEPART FROM NORMAL:  9  HEATING DEGREE DAYS:  0 COOLING DEGREE DAYS:  6
0465999999137242024052604596+39378-074424SOD  +000355N  V030999999999999999999999999999+99999+99999999999ADDAA124000095KA1240M+02285KA2240N+01785OE11240084918099995OE22240049224099995OE33240027799999995REMSOD35924 HR PRECIPITATION (IN): 0.00 24 HR MAX TEMP (F): 7324 HR MIN TEMP (F): 64PEAK WIND SPEED (MPH): 19 PEAK WIND DIR (DEG):180 PEAK WIND TIME (LST):      FASTEST 2MIN SPEED (MPH): 11FASTEST 2MIN DIR (DEG):240 FASTEST 2MIN TIME (LST):     AVERAGE WIND SPEED (MPH): 6.2 24 HR AVG TEMP (F): 69DEPART FROM NORMAL:  6  HEATING DEGREE DAYS:  0 COOLING DEGREE DAYS:  4
0465999999137242024052704596+39378-074424SOD  +000355N  V030999999999999999999999999999+99999+99999999999ADDAA124000095KA1240M+02115KA2240N+01785OE11240076016099995OE22240049216099995OE33240025999999995REMSOD35924 HR PRECIPITATION (IN): 0.00 24 HR MAX TEMP (F): 7024 HR MIN TEMP (F): 64PEAK WIND SPEED (MPH): 17 PEAK WIND DIR (DEG):160 PEAK WIND TIME (LST):      FASTEST 2MIN SPEED (MPH): 11FASTEST 2MIN DIR (DEG):160 FASTEST 2MIN TIME (LST):     AVERAGE WIND SPEED (MPH): 5.8 24 HR AVG TEMP (F): 67DEPART FROM NORMAL:  4  HEATING DEGREE DAYS:  0 COOLING DEGREE DAYS:  2
0484999999137242024052804596+39378-074424SOD  +000355N  V030999999999999999999999999999+99999+99999999999ADDAA12402649AKA1240M+02115KA2240N+01785OE11240120720099995OE22240071516099995OE33240042999999995REMSOD35924 HR PRECIPITATION (IN): 1.04 24 HR MAX TEMP (F): 7024 HR MIN TEMP (F): 64PEAK WIND SPEED (MPH): 27 PEAK WIND DIR (DEG):200 PEAK WIND TIME (LST):      FASTEST 2MIN SPEED (MPH): 16FASTEST 2MIN DIR (DEG):160 FASTEST 2MIN TIME (LST):     AVERAGE WIND SPEED (MPH): 9.6 24 HR AVG TEMP (F): 67DEPART FROM NORMAL:  3  HEATING DEGREE DAYS:  0 COOLING DEGREE DAYS:  2EQDR01  1.047AAP092
0465999999137242024052904596+39378-074424SOD  +000355N  V030999999999999999999999999999+99999+99999999999ADDAA124000095KA1240M+02675KA2240N+01895OE11240134128099995OE22240071527099995OE33240038499999995REMSOD35924 HR PRECIPITATION (IN): 0.00 24 HR MAX TEMP (F): 8024 HR MIN TEMP (F): 66PEAK WIND SPEED (MPH): 30 PEAK WIND DIR (DEG):280 PEAK WIND TIME (LST):      FASTEST 2MIN SPEED (MPH): 16FASTEST 2MIN DIR (DEG):270 FASTEST 2MIN TIME (LST):     AVERAGE WIND SPEED (MPH): 8.6 24 HR AVG TEMP (F): 73DEPART FROM NORMAL:  9  HEATING DEGREE DAYS:  0 COOLING DEGREE DAYS:  8
0484999999137242024053004596+39378-074424SOD  +000355N  V030999999999999999999999999999+99999+99999999999ADDAA12400239AKA1240M+02335KA2240N+01675OE11240125227099995OE22240080527099995OE33240029199999995REMSOD35924 HR PRECIPITATION (IN): 0.09 24 HR MAX TEMP (F): 7424 HR MIN TEMP (F): 62PEAK WIND SPEED (MPH): 28 PEAK WIND DIR (DEG):270 PEAK WIND TIME (LST):      FASTEST 2MIN SPEED (MPH): 18FASTEST 2MIN DIR (DEG):270 FASTEST 2MIN TIME (LST):     AVERAGE WIND SPEED (MPH): 6.5 24 HR AVG TEMP (F): 68DEPART FROM NORMAL:  4  HEATING DEGREE DAYS:  0 COOLING DEGREE DAYS:  3EQDR01  0.097AAP092
0465999999137242024053104596+39378-074424SOD  +000355N  V030999999999999999999999999999+99999+99999999999ADDAA124000095KA1240M+02225KA2240N+01565OE11240102833099995OE22240058115099995OE33240025099999995REMSOD35924 HR PRECIPITATION (IN): 0.00 24 HR MAX TEMP (F): 7224 HR MIN TEMP (F): 60PEAK WIND SPEED (MPH): 23 PEAK WIND DIR (DEG):330 PEAK WIND TIME (LST):      FASTEST 2MIN SPEED (MPH): 13FASTEST 2MIN DIR (DEG):150 FASTEST 2MIN TIME (LST):     AVERAGE WIND SPEED (MPH): 5.6 24 HR AVG TEMP (F): 66DEPART FROM NORMAL:  2  HEATING DEGREE DAYS:  0 COOLING DEGREE DAYS:  1
0465999999137242024060104596+39378-074424SOD  +000355N  V030999999999999999999999999999+99999+99999999999ADDAA124000095KA1240M+02065KA2240N+01335OE11240089405099995OE22240062610099995OE33240030499999995REMSOD35924 HR PRECIPITATION (IN): 0.00 24 HR MAX TEMP (F): 6924 HR MIN TEMP (F): 56PEAK WIND SPEED (MPH): 20 PEAK WIND DIR (DEG): 50 PEAK WIND TIME (LST):      FASTEST 2MIN SPEED (MPH): 14FASTEST 2MIN DIR (DEG):100 FASTEST 2MIN TIME (LST):     AVERAGE WIND SPEED (MPH): 6.8 24 HR AVG TEMP (F): 63DEPART FROM NORMAL: -2  HEATING DEGREE DAYS:  2 COOLING DEGREE DAYS:  0
0128999999137242024060104596+39378-074424SOM  +000355N  V030999999999999999999999999999+99999+99999999999ADDAD1002649272799999999IAE110U06U02U01UKB1240N+1356IKB2240M+1889IKB3240A+1622IKC1N1+0089119999IKC2M9+0289089999IKE100U00U00U00U
0465999999137242024060204596+39378-074424SOD  +000355N  V030999999999999999999999999999+99999+99999999999ADDAA124000095KA1240M+02565KA2240N+01505OE11240093923099995OE22240067122099995OE33240034999999995REMSOD35924 HR PRECIPITATION (IN): 0.00 24 HR MAX TEMP (F): 7824 HR MIN TEMP (F): 59PEAK WIND SPEED (MPH): 21 PEAK WIND DIR (DEG):230 PEAK WIND TIME (LST):      FASTEST 2MIN SPEED (MPH): 15FASTEST 2MIN DIR (DEG):220 FASTEST 2MIN TIME (LST):     AVERAGE WIND SPEED (MPH): 7.8 24 HR AVG TEMP (F): 69DEPART FROM NORMAL:  4  HEATING DEGREE DAYS:  0 COOLING DEGREE DAYS:  4
0465999999137242024060304596+39378-074424SOD  +000355N  V030999999999999999999999999999+99999+99999999999ADDAA124000095KA1240M+02175KA2240N+01835OE11240120722099995OE22240076022099995OE33240040299999995REMSOD35924 HR PRECIPITATION (IN): 0.00 24 HR MAX TEMP (F): 7124 HR MIN TEMP (F): 65PEAK WIND SPEED (MPH): 27 PEAK WIND DIR (DEG):220 PEAK WIND TIME (LST):      FASTEST 2MIN SPEED (MPH): 17FASTEST 2MIN DIR (DEG):220 FASTEST 2MIN TIME (LST):     AVERAGE WIND SPEED (MPH): 9.0 24 HR AVG TEMP (F): 68DEPART FROM NORMAL:  2  HEATING DEGREE DAYS:  0 COOLING DEGREE DAYS:  3
0484999999137242024060404596+39378-074424SOD  +000355N  V030999999999999999999999999999+99999+99999999999ADDAA12400089AKA1240M+02445KA2240N+02005OE11240076022099995OE22240049222099995OE33240030099999995REMSOD35924 HR PRECIPITATION (IN): 0.03 24 HR MAX TEMP (F): 7624 HR MIN TEMP (F): 68PEAK WIND SPEED (MPH): 17 PEAK WIND DIR (DEG):220 PEAK WIND TIME (LST):      FASTEST 2MIN SPEED (MPH): 11FASTEST 2MIN DIR (DEG):220 FASTEST 2MIN TIME (LST):     AVERAGE WIND SPEED (MPH): 6.7 24 HR AVG TEMP (F): 72DEPART FROM NORMAL:  6  HEATING DEGREE DAYS:  0 COOLING DEGREE DAYS:  7EQDR01  0.037AAP092
0465999999137242024060504596+39378-074424SOD  +000355N  V030999999999999999999999999999+99999+99999999999ADDAA124000095KA1240M+02065KA2240N+01785OE11240062612099995OE22240049212099995OE33240026899999995REMSOD35924 HR PRECIPITATION (IN): 0.00 24 HR MAX TEMP (F): 6924 HR MIN TEMP (F): 64PEAK WIND SPEED (MPH): 14 PEAK WIND DIR (DEG):120 PEAK WIND TIME (LST):      FASTEST 2MIN SPEED (MPH): 11FASTEST 2MIN DIR (DEG):120 FASTEST 2MIN TIME (LST):     AVERAGE WIND SPEED (MPH): 6.0 24 HR AVG TEMP (F): 67DEPART FROM NORMAL:  1  HEATING DEGREE DAYS:  0 COOLING DEGREE DAYS:  2
0484999999137242024060604596+39378-074424SOD  +000355N  V030999999999999999999999999999+99999+99999999999ADDAA12401029AKA1240M+02225KA2240N+01945OE11240093921099995OE22240058121099995OE33240034999999995REMSOD35924 HR PRECIPITATION (IN): 0.40 24 HR MAX TEMP (F): 7224 HR MIN TEMP (F): 67PEAK WIND SPEED (MPH): 21 PEAK WIND DIR (DEG):210 PEAK WIND TIME (LST):      FASTEST 2MIN SPEED (MPH): 13FASTEST 2MIN DIR (DEG):210 FASTEST 2MIN TIME (LST):     AVERAGE WIND SPEED (MPH): 7.8 24 HR AVG TEMP (F): 70DEPART FROM NORMAL:  4  HEATING DEGREE DAYS:  0 COOLING DEGREE DAYS:  5EQDR01  0.407AAP092
0484999999137242024060704596+39378-074424SOD  +000355N  V030999999999999999999999999999+99999+99999999999ADDAA12400159AKA1240M+02675KA2240N+02005OE11240134123099995OE22240084923099995OE33240046099999995REMSOD35924 HR PRECIPITATION (IN): 0.06 24 HR MAX TEMP (F): 8024 HR MIN TEMP (F): 68PEAK WIND SPEED (MPH): 30 PEAK WIND DIR (DEG):230 PEAK WIND TIME (LST):      FASTEST 2MIN SPEED (MPH): 19FASTEST 2MIN DIR (DEG):230 FASTEST 2MIN TIME (LST):     AVERAGE WIND SPEED (MPH):10.3 24 HR AVG TEMP (F): 74DEPART FROM NORMAL:  7  HEATING DEGREE DAYS:  0 COOLING DEGREE DAYS:  9EQDR01  0.067AAP092
0465999999137242024060804596+39378-074424SOD  +000355N  V030999999999999999999999999999+99999+99999999999ADDAA124000095KA1240M+02895KA2240N+02115OE11240138629099995OE22240076025099995OE33240036799999995REMSOD35924 HR PRECIPITATION (IN): 0.00 24 HR MAX TEMP (F): 8424 HR MIN TEMP (F): 70PEAK WIND SPEED (MPH): 31 PEAK WIND DIR (DEG):290 PEAK WIND TIME (LST):      FASTEST 2MIN SPEED (MPH): 17FASTEST 2MIN DIR (DEG):250 FASTEST 2MIN TIME (LST):     AVERAGE WIND SPEED (MPH): 8.2 24 HR AVG TEMP (F): 77DEPART FROM NORMAL: 10  HEATING DEGREE DAYS:  0 COOLING DEGREE DAYS: 12
0465999999137242024060904596+39378-074424SOD  +000355N  V030999999999999999999999999999+99999+99999999999ADDAA124000095KA1240M+02675KA2240N+01895OE11240116229099995OE22240076029099995OE33240035899999995REMSOD35924 HR PRECIPITATION (IN): 0.00 24 HR MAX TEMP (F): 8024 HR MIN TEMP (F): 66PEAK WIND SPEED (MPH): 26 PEAK WIND DIR (DEG):290 PEAK WIND TIME (LST):      FASTEST 2MIN SPEED (MPH): 17FASTEST 2MIN DIR (DEG):290 FASTEST 2MIN TIME (LST):     AVERAGE WIND SPEED (MPH): 8.0 24 HR AVG TEMP (F): 73DEPART FROM NORMAL:  5  HEATING DEGREE DAYS:  0 COOLING DEGREE DAYS:  8
0465999999137242024061004596+39378-074424SOD  +000355N  V030999999999999999999999999999+99999+99999999999ADDAA124000095KA1240M+02725KA2240N+02005OE11240143129099995OE22240076029099995OE33240036299999995REMSOD35924 HR PRECIPITATION (IN): 0.00 24 HR MAX TEMP (F): 8124 HR MIN TEMP (F): 68PEAK WIND SPEED (MPH): 32 PEAK WIND DIR (DEG):290 PEAK WIND TIME (LST):      FASTEST 2MIN SPEED (MPH): 17FASTEST 2MIN DIR (DEG):290 FASTEST 2MIN TIME (LST):     AVERAGE WIND SPEED (MPH): 8.1 24 HR AVG TEMP (F): 75DEPART FROM NORMAL:  7  HEATING DEGREE DAYS:  0 COOLING DEGREE DAYS: 10
0465999999137242024061104596+39378-074424SOD  +000355N  V030999999999999999999999999999+99999+99999999999ADDAA124000095KA1240M+02565KA2240N+01785OE11240107330099995OE22240067129099995OE33240026899999995REMSOD35924 HR PRECIPITATION (IN): 0.00 24 HR MAX TEMP (F): 7824 HR MIN TEMP (F): 64PEAK WIND SPEED (MPH): 24 PEAK WIND DIR (DEG):300 PEAK WIND TIME (LST):      FASTEST 2MIN SPEED (MPH): 15FASTEST 2MIN DIR (DEG):290 FASTEST 2MIN TIME (LST):     AVERAGE WIND SPEED (MPH): 6.0 24 HR AVG TEMP (F): 71DEPART FROM NORMAL:  3  HEATING DEGREE DAYS:  0 COOLING DEGREE DAYS:  6
0484999999137242024061204596+39378-074424SOD  +000355N  V030999999999999999999999999999+99999+99999999999ADDAA12400039AKA1240M+02065KA2240N+01725OE11240093908099995OE22240076009099995OE33240026899999995REMSOD35924 HR PRECIPITATION (IN): 0.01 24 HR MAX TEMP (F): 6924 HR MIN TEMP (F): 63PEAK WIND SPEED (MPH): 21 PEAK WIND DIR (DEG): 80 PEAK WIND TIME (LST):      FASTEST 2MIN SPEED (MPH): 17FASTEST 2MIN DIR (DEG): 90 FASTEST 2MIN TIME (LST):     AVERAGE WIND SPEED (MPH): 6.0 24 HR AVG TEMP (F): 66DEPART FROM NORMAL: -3  HEATING DEGREE DAYS:  0 COOLING DEGREE DAYS:  1EQDR01  0.017AAP092
0465999999137242024061304596+39378-074424SOD  +000355N  V030999999999999999999999999999+99999+99999999999ADDAA124000095KA1240M+02285KA2240N+01675OE11240116221099995OE22240067122099995OE33240032299999995REMSOD35924 HR PRECIPITATION (IN): 0.00 24 HR MAX TEMP (F): 7324 HR MIN TEMP (F): 62PEAK WIND SPEED (MPH): 26 PEAK WIND DIR (DEG):210 PEAK WIND TIME (LST):      FASTEST 2MIN SPEED (MPH): 15FASTEST 2MIN DIR (DEG):220 FASTEST 2MIN TIME (LST):     AVERAGE WIND SPEED (MPH): 7.2 24 HR AVG TEMP (F): 68DEPART FROM NORMAL: -1  HEATING DEGREE DAYS:  0 COOLING DEGREE DAYS:  3
0465999999137242024061404596+39378-074424SOD  +000355N  V030999999999999999999999999999+99999+99999999999ADDAA124000095KA1240M+02335KA2240N+01895OE11240107320099995OE22240058121099995OE33240037699999995REMSOD35924 HR PRECIPITATION (IN): 0.00 24 HR MAX TEMP (F): 7424 HR MIN TEMP (F): 66PEAK WIND SPEED (MPH): 24 PEAK WIND DIR (DEG):200 PEAK WIND TIME (LST):      FASTEST 2MIN SPEED (MPH): 13FASTEST 2MIN DIR (DEG):210 FASTEST 2MIN TIME (LST):     AVERAGE WIND SPEED (MPH): 8.4 24 HR AVG TEMP (F): 70DEPART FROM NORMAL:  1  HEATING DEGREE DAYS:  0 COOLING DEGREE DAYS:  5
0484999999137242024061504596+39378-074424SOD  +000355N  V030999999999999999999999999999+99999+99999999999ADDAA12400259AKA1240M+02445KA2240N+01945OE11240134122099995OE22240080524099995OE33240046999999995REMSOD35924 HR PRECIPITATION (IN): 0.10 24 HR MAX TEMP (F): 7624 HR MIN TEMP (F): 67PEAK WIND SPEED (MPH): 30 PEAK WIND DIR (DEG):220 PEAK WIND TIME (LST):      FASTEST 2MIN SPEED (MPH): 18FASTEST 2MIN DIR (DEG):240 FASTEST 2MIN TIME (LST):     AVERAGE WIND SPEED (MPH):10.5 24 HR AVG TEMP (F): 72DEPART FROM NORMAL:  2  HEATING DEGREE DAYS:  0 COOLING DEGREE DAYS:  7EQDR01  0.107AAP092
0465999999137242024061604596+39378-074424SOD  +000355N  V030999999999999999999999999999+99999+99999999999ADDAA124000095KA1240M+02395KA2240N+01895OE11240107308099995OE22240089408099995OE33240032299999995REMSOD35924 HR PRECIPITATION (IN): 0.00 24 HR MAX TEMP (F): 7524 HR MIN TEMP (F): 66PEAK WIND SPEED (MPH): 24 PEAK WIND DIR (DEG): 80 PEAK WIND TIME (LST):      FASTEST 2MIN SPEED (MPH): 20FASTEST 2MIN DIR (DEG): 80 FASTEST 2MIN TIME (LST):     AVERAGE WIND SPEED (MPH): 7.2 24 HR AVG TEMP (F): 71DEPART FROM NORMAL:  1  HEATING DEGREE DAYS:  0 COOLING DEGREE DAYS:  6
0465999999137242024061704596+39378-074424SOD  +000355N  V030999999999999999999999999999+99999+99999999999ADDAA124000095KA1240M+02285KA2240N+01785OE11240089409099995OE22240067109099995OE33240030499999995REMSOD35924 HR PRECIPITATION (IN): 0.00 24 HR MAX TEMP (F): 7324 HR MIN TEMP (F): 64PEAK WIND SPEED (MPH): 20 PEAK WIND DIR (DEG): 90 PEAK WIND TIME (LST):      FASTEST 2MIN SPEED (MPH): 15FASTEST 2MIN DIR (DEG): 90 FASTEST 2MIN TIME (LST):     AVERAGE WIND SPEED (MPH): 6.8 24 HR AVG TEMP (F): 69DEPART FROM NORMAL: -1  HEATING DEGREE DAYS:  0 COOLING DEGREE DAYS:  4
0465999999137242024061804596+39378-074424SOD  +000355N  V030999999999999999999999999999+99999+99999999999ADDAA124000095KA1240M+02335KA2240N+02065OE11240125221099995OE22240071522099995OE33240046599999995REMSOD35924 HR PRECIPITATION (IN): 0.00 24 HR MAX TEMP (F): 7424 HR MIN TEMP (F): 69PEAK WIND SPEED (MPH): 28 PEAK WIND DIR (DEG):210 PEAK WIND TIME (LST):      FASTEST 2MIN SPEED (MPH): 16FASTEST 2MIN DIR (DEG):220 FASTEST 2MIN TIME (LST):     AVERAGE WIND SPEED (MPH):10.4 24 HR AVG TEMP (F): 72DEPART FROM NORMAL:  1  HEATING DEGREE DAYS:  0 COOLING DEGREE DAYS:  7
0465999999137242024061904596+39378-074424SOD  +000355N  V030999999999999999999999999999+99999+99999999999ADDAA124000095KA1240M+02395KA2240N+02065OE11240102821099995OE22240062623099995OE33240045699999995REMSOD35924 HR PRECIPITATION (IN): 0.00 24 HR MAX TEMP (F): 7524 HR MIN TEMP (F): 69PEAK WIND SPEED (MPH): 23 PEAK WIND DIR (DEG):210 PEAK WIND TIME (LST):      FASTEST 2MIN SPEED (MPH): 14FASTEST 2MIN DIR (DEG):230 FASTEST 2MIN TIME (LST):     AVERAGE WIND SPEED (MPH):10.2 24 HR AVG TEMP (F): 72DEPART FROM NORMAL:  1  HEATING DEGREE DAYS:  0 COOLING DEGREE DAYS:  7
0465999999137242024062004596+39378-074424SOD  +000355N  V030999999999999999999999999999+99999+99999999999ADDAA124000095KA1240M+02505KA2240N+02115OE11240084921099995OE22240053620099995OE33240034499999995REMSOD35924 HR PRECIPITATION (IN): 0.00 24 HR MAX TEMP (F): 7724 HR MIN TEMP (F): 70PEAK WIND SPEED (MPH): 19 PEAK WIND DIR (DEG):210 PEAK WIND TIME (LST):      FASTEST 2MIN SPEED (MPH): 12FASTEST 2MIN DIR (DEG):200 FASTEST 2MIN TIME (LST):     AVERAGE WIND SPEED (MPH): 7.7 24 HR AVG TEMP (F): 74DEPART FROM NORMAL:  3  HEATING DEGREE DAYS:  0 COOLING DEGREE DAYS:  9
0465999999137242024062104596+39378-074424SOD  +000355N  V030999999999999999999999999999+99999+99999999999ADDAA124000095KA1240M+02505KA2240N+02115OE11240125222099995OE22240067122099995OE33240044399999995REMSOD35924 HR PRECIPITATION (IN): 0.00 24 HR MAX TEMP (F): 7724 HR MIN TEMP (F): 70PEAK WIND SPEED (MPH): 28 PEAK WIND DIR (DEG):220 PEAK WIND TIME (LST):      FASTEST 2MIN SPEED (MPH): 15FASTEST 2MIN DIR (DEG):220 FASTEST 2MIN TIME (LST):     AVERAGE WIND SPEED (MPH): 9.9 24 HR AVG TEMP (F): 74DEPART FROM NORMAL:  2  HEATING DEGREE DAYS:  0 COOLING DEGREE DAYS:  9
0465999999137242024062204596+39378-074424SOD  +000355N  V030999999999999999999999999999+99999+99999999999ADDAA124000095KA1240M+02565KA2240N+02175OE11240134123099995OE22240076023099995OE33240046099999995REMSOD35924 HR PRECIPITATION (IN): 0.00 24 HR MAX TEMP (F): 7824 HR MIN TEMP (F): 71PEAK WIND SPEED (MPH): 30 PEAK WIND DIR (DEG):230 PEAK WIND TIME (LST):      FASTEST 2MIN SPEED (MPH): 17FASTEST 2MIN DIR (DEG):230 FASTEST 2MIN TIME (LST):     AVERAGE WIND SPEED (MPH):10.3 24 HR AVG TEMP (F): 75DEPART FROM NORMAL:  3  HEATING DEGREE DAYS:  0 COOLING DEGREE DAYS: 10
0465999999137242024062304596+39378-074424SOD  +000355N  V030999999999999999999999999999+99999+99999999999ADDAA124000095KA1240M+02615KA2240N+02175OE11240134122099995OE22240076022099995OE33240048799999995REMSOD35924 HR PRECIPITATION (IN): 0.00 24 HR MAX TEMP (F): 7924 HR MIN TEMP (F): 71PEAK WIND SPEED (MPH): 30 PEAK WIND DIR (DEG):220 PEAK WIND TIME (LST):      FASTEST 2MIN SPEED (MPH): 17FASTEST 2MIN DIR (DEG):220 FASTEST 2MIN TIME (LST):     AVERAGE WIND SPEED (MPH):10.9 24 HR AVG TEMP (F): 75DEPART FROM NORMAL:  3  HEATING DEGREE DAYS:  0 COOLING DEGREE DAYS: 10
0500999999137242024062404596+39378-074424SOD  +000355N  V030999999999999999999999999999+99999+99999999999ADDAA12400009AKA1240M+02505KA2240N+02005OE11240174323099995OE22240107322099995OE33240067599999995REMSOD35924 HR PRECIPITATION (IN):    T 24 HR MAX TEMP (F): 7724 HR MIN TEMP (F): 68PEAK WIND SPEED (MPH): 39 PEAK WIND DIR (DEG):230 PEAK WIND TIME (LST):      FASTEST 2MIN SPEED (MPH): 24FASTEST 2MIN DIR (DEG):220 FASTEST 2MIN TIME (LST):     AVERAGE WIND SPEED (MPH):15.1 24 HR AVG TEMP (F): 73DEPART FROM NORMAL:  1  HEATING DEGREE DAYS:  0 COOLING DEGREE DAYS:  8EQDQ01  00002PRCP24R01     T7AAP092
0465999999137242024062504596+39378-074424SOD  +000355N  V030999999999999999999999999999+99999+99999999999ADDAA124000095KA1240M+02835KA2240N+02005OE11240183333099995OE22240089425099995OE33240047899999995REMSOD35924 HR PRECIPITATION (IN): 0.00 24 HR MAX TEMP (F): 8324 HR MIN TEMP (F): 68PEAK WIND SPEED (MPH): 41 PEAK WIND DIR (DEG):330 PEAK WIND TIME (LST):      FASTEST 2MIN SPEED (MPH): 20FASTEST 2MIN DIR (DEG):250 FASTEST 2MIN TIME (LST):     AVERAGE WIND SPEED (MPH):10.7 24 HR AVG TEMP (F): 76DEPART FROM NORMAL:  3  HEATING DEGREE DAYS:  0 COOLING DEGREE DAYS: 11
0465999999137242024062604596+39378-074424SOD  +000355N  V030999999999999999999999999999+99999+99999999999ADDAA124000095KA1240M+02945KA2240N+02005OE11240125222099995OE22240080522099995OE33240059099999995REMSOD35924 HR PRECIPITATION (IN): 0.00 24 HR MAX TEMP (F): 8524 HR MIN TEMP (F): 68PEAK WIND SPEED (MPH): 28 PEAK WIND DIR (DEG):220 PEAK WIND TIME (LST):      FASTEST 2MIN SPEED (MPH): 18FASTEST 2MIN DIR (DEG):220 FASTEST 2MIN TIME (LST):     AVERAGE WIND SPEED (MPH):13.2 24 HR AVG TEMP (F): 77DEPART FROM NORMAL:  4  HEATING DEGREE DAYS:  0 COOLING DEGREE DAYS: 12
0465999999137242024062704596+39378-074424SOD  +000355N  V030999999999999999999999999999+99999+99999999999ADDAA124000095KA1240M+02445KA2240N+01945OE11240138626099995OE22240089425099995OE33240052899999995REMSOD35924 HR PRECIPITATION (IN): 0.00 24 HR MAX TEMP (F): 7624 HR MIN TEMP (F): 67PEAK WIND SPEED (MPH): 31 PEAK WIND DIR (DEG):260 PEAK WIND TIME (LST):      FASTEST 2MIN SPEED (MPH): 20FASTEST 2MIN DIR (DEG):250 FASTEST 2MIN TIME (LST):     AVERAGE WIND SPEED (MPH):11.8 24 HR AVG TEMP (F): 72DEPART FROM NORMAL: -1  HEATING DEGREE DAYS:  0 COOLING DEGREE DAYS:  7
0484999999137242024062804596+39378-074424SOD  +000355N  V030999999999999999999999999999+99999+99999999999ADDAA12400289AKA1240M+02565KA2240N+02005OE11240165429099995OE22240102829099995OE33240029199999995REMSOD35924 HR PRECIPITATION (IN): 0.11 24 HR MAX TEMP (F): 7824 HR MIN TEMP (F): 68PEAK WIND SPEED (MPH): 37 PEAK WIND DIR (DEG):290 PEAK WIND TIME (LST):      FASTEST 2MIN SPEED (MPH): 23FASTEST 2MIN DIR (DEG):290 FASTEST 2MIN TIME (LST):     AVERAGE WIND SPEED (MPH): 6.5 24 HR AVG TEMP (F): 73DEPART FROM NORMAL:  0  HEATING DEGREE DAYS:  0 COOLING DEGREE DAYS:  8EQDR01  0.117AAP092
0465999999137242024062904596+39378-074424SOD  +000355N  V030999999999999999999999999999+99999+99999999999ADDAA124000095KA1240M+02115KA2240N+01835OE11240125207099995OE22240076007099995OE33240042599999995REMSOD35924 HR PRECIPITATION (IN): 0.00 24 HR MAX TEMP (F): 7024 HR MIN TEMP (F): 65PEAK WIND SPEED (MPH): 28 PEAK WIND DIR (DEG): 70 PEAK WIND TIME (LST):      FASTEST 2MIN SPEED (MPH): 17FASTEST 2MIN DIR (DEG): 70 FASTEST 2MIN TIME (LST):     AVERAGE WIND SPEED (MPH): 9.5 24 HR AVG TEMP (F): 68DEPART FROM NORMAL: -6  HEATING DEGREE DAYS:  0 COOLING DEGREE DAYS:  3
0465999999137242024063004596+39378-074424SOD  +000355N  V030999999999999999999999999999+99999+99999999999ADDAA124000095KA1240M+02445KA2240N+02005OE11240134117099995OE22240076017099995OE33240054599999995REMSOD35924 HR PRECIPITATION (IN): 0.00 24 HR MAX TEMP (F): 7624 HR MIN TEMP (F): 68PEAK WIND SPEED (MPH): 30 PEAK WIND DIR (DEG):170 PEAK WIND TIME (LST):      FASTEST 2MIN SPEED (MPH): 17FASTEST 2MIN DIR (DEG):170 FASTEST 2MIN TIME (LST):     AVERAGE WIND SPEED (MPH):12.2 24 HR AVG TEMP (F): 72DEPART FROM NORMAL: -2  HEATING DEGREE DAYS:  0 COOLING DEGREE DAYS:  7
0484999999137242024070104596+39378-074424SOD  +000355N  V030999999999999999999999999999+99999+99999999999ADDAA12406739AKA1240M+02335KA2240N+02065OE11240120728099995OE22240076022099995OE33240042599999995REMSOD35924 HR PRECIPITATION (IN): 2.65 24 HR MAX TEMP (F): 7424 HR MIN TEMP (F): 69PEAK WIND SPEED (MPH): 27 PEAK WIND DIR (DEG):280 PEAK WIND TIME (LST):      FASTEST 2MIN SPEED (MPH): 17FASTEST 2MIN DIR (DEG):220 FASTEST 2MIN TIME (LST):     AVERAGE WIND SPEED (MPH): 9.5 24 HR AVG TEMP (F): 72DEPART FROM NORMAL: -2  HEATING DEGREE DAYS:  0 COOLING DEGREE DAYS:  7EQDR01  2.657AAP092
0128999999137242024070104596+39378-074424SOM  +000355N  V030999999999999999999999999999+99999+99999999999ADDAD1006739303099999999IAE107U04U01U01UKB1240N+1939IKB2240M+2461IKB3240A+2200IKC1N9+0150019999IKC2M9+0294259999IKE100U00U00U00U
0484999999137242024070204596+39378-074424SOD  +000355N  V030999999999999999999999999999+99999+99999999999ADDAA12400009AKA1240M+02565KA2240N+01785OE11240134133099995OE22240062633099995OE33240028299999995REMSOD35924 HR PRECIPITATION (IN): 0.00 24 HR MAX TEMP (F): 7824 HR MIN TEMP (F): 64PEAK WIND SPEED (MPH): 30 PEAK WIND DIR (DEG):330 PEAK WIND TIME (LST):      FASTEST 2MIN SPEED (MPH): 14FASTEST 2MIN DIR (DEG):330 FASTEST 2MIN TIME (LST):     AVERAGE WIND SPEED (MPH): 6.3 24 HR AVG TEMP (F): 71DEPART FROM NORMAL: -3  HEATING DEGREE DAYS:  0 COOLING DEGREE DAYS:  6EQDR01  0.007AAP092
0484999999137242024070304596+39378-074424SOD  +000355N  V030999999999999999999999999999+99999+99999999999ADDAA12400009AKA1240M+02335KA2240N+01785OE11240076011099995OE22240058110099995OE33240026499999995REMSOD35924 HR PRECIPITATION (IN): 0.00 24 HR MAX TEMP (F): 7424 HR MIN TEMP (F): 64PEAK WIND SPEED (MPH): 17 PEAK WIND DIR (DEG):110 PEAK WIND TIME (LST):      FASTEST 2MIN SPEED (MPH): 13FASTEST 2MIN DIR (DEG):100 FASTEST 2MIN TIME (LST):     AVERAGE WIND SPEED (MPH): 5.9 24 HR AVG TEMP (F): 69DEPART FROM NORMAL: -5  HEATING DEGREE DAYS:  0 COOLING DEGREE DAYS:  4EQDR01  0.007AAP092
0484999999137242024070404596+39378-074424SOD  +000355N  V030999999999999999999999999999+99999+99999999999ADDAA12400009AKA1240M+02395KA2240N+01895OE11240084919099995OE22240053618099995OE33240029199999995REMSOD35924 HR PRECIPITATION (IN): 0.00 24 HR MAX TEMP (F): 7524 HR MIN TEMP (F): 66PEAK WIND SPEED (MPH): 19 PEAK WIND DIR (DEG):190 PEAK WIND TIME (LST):      FASTEST 2MIN SPEED (MPH): 12FASTEST 2MIN DIR (DEG):180 FASTEST 2MIN TIME (LST):     AVERAGE WIND SPEED (MPH): 6.5 24 HR AVG TEMP (F): 71DEPART FROM NORMAL: -3  HEATING DEGREE DAYS:  0 COOLING DEGREE DAYS:  6EQDR01  0.007AAP092
0484999999137242024070504596+39378-074424SOD  +000355N  V030999999999999999999999999999+99999+99999999999ADDAA12400009AKA1240M+02395KA2240N+02115OE11240129622099995OE22240071522099995OE33240049299999995REMSOD35924 HR PRECIPITATION (IN): 0.00 24 HR MAX TEMP (F): 7524 HR MIN TEMP (F): 70PEAK WIND SPEED (MPH): 29 PEAK WIND DIR (DEG):220 PEAK WIND TIME (LST):      FASTEST 2MIN SPEED (MPH): 16FASTEST 2MIN DIR (DEG):220 FASTEST 2MIN TIME (LST):     AVERAGE WIND SPEED (MPH):11.0 24 HR AVG TEMP (F): 73DEPART FROM NORMAL: -2  HEATING DEGREE DAYS:  0 COOLING DEGREE DAYS:  8EQDR01  0.007AAP092
0484999999137242024070604596+39378-074424SOD  +000355N  V030999999999999999999999999999+99999+99999999999ADDAA12400009AKA1240M+02445KA2240N+02115OE11240143122099995OE22240076022099995OE33240050599999995REMSOD35924 HR PRECIPITATION (IN): 0.00 24 HR MAX TEMP (F): 7624 HR MIN TEMP (F): 70PEAK WIND SPEED (MPH): 32 PEAK WIND DIR (DEG):220 PEAK WIND TIME (LST):      FASTEST 2MIN SPEED (MPH): 17FASTEST 2MIN DIR (DEG):220 FASTEST 2MIN TIME (LST):     AVERAGE WIND SPEED (MPH):11.3 24 HR AVG TEMP (F): 73DEPART FROM NORMAL: -2  HEATING DEGREE DAYS:  0 COOLING DEGREE DAYS:  8EQDR01  0.007AAP092
0484999999137242024070704596+39378-074424SOD  +000355N  V030999999999999999999999999999+99999+99999999999ADDAA12400009AKA1240M+02565KA2240N+02115OE11240134121099995OE22240071522099995OE33240048799999995REMSOD35924 HR PRECIPITATION (IN): 0.00 24 HR MAX TEMP (F): 7824 HR MIN TEMP (F): 70PEAK WIND SPEED (MPH): 30 PEAK WIND DIR (DEG):210 PEAK WIND TIME (LST):      FASTEST 2MIN SPEED (MPH): 16FASTEST 2MIN DIR (DEG):220 FASTEST 2MIN TIME (LST):     AVERAGE WIND SPEED (MPH):10.9 24 HR AVG TEMP (F): 74DEPART FROM NORMAL: -1  HEATING DEGREE DAYS:  0 COOLING DEGREE DAYS:  9EQDR01  0.007AAP092
0484999999137242024070804596+39378-074424SOD  +000355N  V030999999999999999999999999999+99999+99999999999ADDAA12400009AKA1240M+02785KA2240N+02065OE11240071522099995OE22240049212099995OE33240021599999995REMSOD35924 HR PRECIPITATION (IN): 0.00 24 HR MAX TEMP (F): 8224 HR MIN TEMP (F): 69PEAK WIND SPEED (MPH): 16 PEAK WIND DIR (DEG):220 PEAK WIND TIME (LST):      FASTEST 2MIN SPEED (MPH): 11FASTEST 2MIN DIR (DEG):120 FASTEST 2MIN TIME (LST):     AVERAGE WIND SPEED (MPH): 4.8 24 HR AVG TEMP (F): 76DEPART FROM NORMAL:  1  HEATING DEGREE DAYS:  0 COOLING DEGREE DAYS: 11EQDR01  0.007AAP092
0484999999137242024070904596+39378-074424SOD  +000355N  V030999999999999999999999999999+99999+99999999999ADDAA12400009AKA1240M+02565KA2240N+02065OE11240058113099995OE22240044713099995OE33240020699999995REMSOD35924 HR PRECIPITATION (IN): 0.00 24 HR MAX TEMP (F): 7824 HR MIN TEMP (F): 69PEAK WIND SPEED (MPH): 13 PEAK WIND DIR (DEG):130 PEAK WIND TIME (LST):      FASTEST 2MIN SPEED (MPH): 10FASTEST 2MIN DIR (DEG):130 FASTEST 2MIN TIME (LST):     AVERAGE WIND SPEED (MPH): 4.6 24 HR AVG TEMP (F): 74DEPART FROM NORMAL: -1  HEATING DEGREE DAYS:  0 COOLING DEGREE DAYS:  9EQDR01  0.007AAP092
0484999999137242024071004596+39378-074424SOD  +000355N  V030999999999999999999999999999+99999+99999999999ADDAA12400009AKA1240M+02725KA2240N+02225OE11240107323099995OE22240062623099995OE33240038499999995REMSOD35924 HR PRECIPITATION (IN): 0.00 24 HR MAX TEMP (F): 8124 HR MIN TEMP (F): 72PEAK WIND SPEED (MPH): 24 PEAK WIND DIR (DEG):230 PEAK WIND TIME (LST):      FASTEST 2MIN SPEED (MPH): 14FASTEST 2MIN DIR (DEG):230 FASTEST 2MIN TIME (LST):     AVERAGE WIND SPEED (MPH): 8.6 24 HR AVG TEMP (F): 77DEPART FROM NORMAL:  2  HEATING DEGREE DAYS:  0 COOLING DEGREE DAYS: 12EQDR01  0.007AAP092
0484999999137242024071104596+39378-074424SOD  +000355N  V030999999999999999999999999999+99999+99999999999ADDAA12400009AKA1240M+02565KA2240N+02335OE11240134121099995OE22240076019099995OE33240055099999995REMSOD35924 HR PRECIPITATION (IN): 0.00 24 HR MAX TEMP (F): 7824 HR MIN TEMP (F): 74PEAK WIND SPEED (MPH): 30 PEAK WIND DIR (DEG):210 PEAK WIND TIME (LST):      FASTEST 2MIN SPEED (MPH): 17FASTEST 2MIN DIR (DEG):190 FASTEST 2MIN TIME (LST):     AVERAGE WIND SPEED (MPH):12.3 24 HR AVG TEMP (F): 76DEPART FROM NORMAL:  1  HEATING DEGREE DAYS:  0 COOLING DEGREE DAYS: 11EQDR01  0.007AAP092
0465999999137242024071204596+39378-074424SOD  +000355N  V030999999999999999999999999999+99999+99999999999ADDAA124000395KA1240M+02785KA2240N+02115OE11240138622099995OE22240089423099995OE33240036799999995REMSOD35924 HR PRECIPITATION (IN): 0.01 24 HR MAX TEMP (F): 8224 HR MIN TEMP (F): 70PEAK WIND SPEED (MPH): 31 PEAK WIND DIR (DEG):220 PEAK WIND TIME (LST):      FASTEST 2MIN SPEED (MPH): 20FASTEST 2MIN DIR (DEG):230 FASTEST 2MIN TIME (LST):     AVERAGE WIND SPEED (MPH): 8.2 24 HR AVG TEMP (F): 76DEPART FROM NORMAL:  1  HEATING DEGREE DAYS:  0 COOLING DEGREE DAYS: 11
0465999999137242024071304596+39378-074424SOD  +000355N  V030999999999999999999999999999+99999+99999999999ADDAA124018595KA1240M+02565KA2240N+02115OE11240111823099995OE22240067122099995OE33240034099999995REMSOD35924 HR PRECIPITATION (IN): 0.73 24 HR MAX TEMP (F): 7824 HR MIN TEMP (F): 70PEAK WIND SPEED (MPH): 25 PEAK WIND DIR (DEG):230 PEAK WIND TIME (LST):      FASTEST 2MIN SPEED (MPH): 15FASTEST 2MIN DIR (DEG):220 FASTEST 2MIN TIME (LST):     AVERAGE WIND SPEED (MPH): 7.6 24 HR AVG TEMP (F): 74DEPART FROM NORMAL: -2  HEATING DEGREE DAYS:  0 COOLING DEGREE DAYS:  9
0465999999137242024071404596+39378-074424SOD  +000355N  V030999999999999999999999999999+99999+99999999999ADDAA124001595KA1240M+02565KA2240N+02175OE11240098322099995OE22240058123099995OE33240030099999995REMSOD35924 HR PRECIPITATION (IN): 0.06 24 HR MAX TEMP (F): 7824 HR MIN TEMP (F): 71PEAK WIND SPEED (MPH): 22 PEAK WIND DIR (DEG):220 PEAK WIND TIME (LST):      FASTEST 2MIN SPEED (MPH): 13FASTEST 2MIN DIR (DEG):230 FASTEST 2MIN TIME (LST):     AVERAGE WIND SPEED (MPH): 6.7 24 HR AVG TEMP (F): 75DEPART FROM NORMAL: -1  HEATING DEGREE DAYS:  0 COOLING DEGREE DAYS: 10
0484999999137242024071504596+39378-074424SOD  +000355N  V030999999999999999999999999999+99999+99999999999ADDAA12400009AKA1240M+02835KA2240N+02285OE11240093921099995OE22240053622099995OE33240029599999995REMSOD35924 HR PRECIPITATION (IN): 0.00 24 HR MAX TEMP (F): 8324 HR MIN TEMP (F): 73PEAK WIND SPEED (MPH): 21 PEAK WIND DIR (DEG):210 PEAK WIND TIME (LST):      FASTEST 2MIN SPEED (MPH): 12FASTEST 2MIN DIR (DEG):220 FASTEST 2MIN TIME (LST):     AVERAGE WIND SPEED (MPH): 6.6 24 HR AVG TEMP (F): 78DEPART FROM NORMAL:  2  HEATING DEGREE DAYS:  0 COOLING DEGREE DAYS: 13EQDR01  0.007AAP092
0484999999137242024071604596+39378-074424SOD  +000355N  V030999999999999999999999999999+99999+99999999999ADDAA12400009AKA1240M+02945KA2240N+02225OE11240102823099995OE22240062622099995OE33240040299999995REMSOD35924 HR PRECIPITATION (IN): 0.00 24 HR MAX TEMP (F): 8524 HR MIN TEMP (F): 72PEAK WIND SPEED (MPH): 23 PEAK WIND DIR (DEG):230 PEAK WIND TIME (LST):      FASTEST 2MIN SPEED (MPH): 14FASTEST 2MIN DIR (DEG):220 FASTEST 2MIN TIME (LST):     AVERAGE WIND SPEED (MPH): 9.0 24 HR AVG TEMP (F): 79DEPART FROM NORMAL:  3  HEATING DEGREE DAYS:  0 COOLING DEGREE DAYS: 14EQDR01  0.007AAP092
